{
  "_format": "hh-sol-artifact-1",
  "contractName": "ERC20StakingPointsRewardsLinearPool",
  "sourceName": "contracts/staking/linear/ERC20StakingPointsRewardsLinearPool.sol",
  "abi": [
    {
      "inputs": [
        {
          "internalType": "address",
          "name": "claimContract",
          "type": "address"
        },
        {
          "internalType": "contract IERC20",
          "name": "stakingToken",
          "type": "address"
        },
        {
          "internalType": "contract IPointsV2",
          "name": "pointsContract",
          "type": "address"
        },
        {
          "internalType": "bytes32",
          "name": "depositReasonCode",
          "type": "bytes32"
        },
        {
          "internalType": "contract IForwarderRegistry",
          "name": "forwarderRegistry",
          "type": "address"
        }
      ],
      "stateMutability": "nonpayable",
      "type": "constructor"
    },
    {
      "inputs": [],
      "name": "FailedCall",
      "type": "error"
    },
    {
      "inputs": [],
      "name": "IllegalInterfaceId",
      "type": "error"
    },
    {
      "inputs": [],
      "name": "InconsistentArrayLengths",
      "type": "error"
    },
    {
      "inputs": [
        {
          "internalType": "address",
          "name": "tokenContract",
          "type": "address"
        }
      ],
      "name": "IncorrectTokenContractType",
      "type": "error"
    },
    {
      "inputs": [
        {
          "internalType": "uint256",
          "name": "balance",
          "type": "uint256"
        },
        {
          "internalType": "uint256",
          "name": "needed",
          "type": "uint256"
        }
      ],
      "name": "InsufficientBalance",
      "type": "error"
    },
    {
      "inputs": [
        {
          "internalType": "uint256",
          "name": "claimable",
          "type": "uint256"
        },
        {
          "internalType": "uint256",
          "name": "claimed",
          "type": "uint256"
        },
        {
          "internalType": "uint256",
          "name": "unclaimed",
          "type": "uint256"
        }
      ],
      "name": "InvalidClaimSum",
      "type": "error"
    },
    {
      "inputs": [],
      "name": "InvalidDuration",
      "type": "error"
    },
    {
      "inputs": [],
      "name": "InvalidPointsContract",
      "type": "error"
    },
    {
      "inputs": [
        {
          "internalType": "uint256",
          "name": "requested",
          "type": "uint256"
        },
        {
          "internalType": "uint256",
          "name": "recoverable",
          "type": "uint256"
        }
      ],
      "name": "InvalidRecoveryAmount",
      "type": "error"
    },
    {
      "inputs": [],
      "name": "InvalidRewardAmount",
      "type": "error"
    },
    {
      "inputs": [],
      "name": "InvalidStakeAmount",
      "type": "error"
    },
    {
      "inputs": [],
      "name": "InvalidToken",
      "type": "error"
    },
    {
      "inputs": [],
      "name": "InvalidWithdrawAmount",
      "type": "error"
    },
    {
      "inputs": [
        {
          "internalType": "address",
          "name": "account",
          "type": "address"
        }
      ],
      "name": "NotContractOwner",
      "type": "error"
    },
    {
      "inputs": [
        {
          "internalType": "address",
          "name": "staker",
          "type": "address"
        },
        {
          "internalType": "uint256",
          "name": "stake",
          "type": "uint256"
        },
        {
          "internalType": "uint256",
          "name": "withdraw",
          "type": "uint256"
        }
      ],
      "name": "NotEnoughStake",
      "type": "error"
    },
    {
      "inputs": [
        {
          "internalType": "bytes32",
          "name": "role",
          "type": "bytes32"
        },
        {
          "internalType": "address",
          "name": "account",
          "type": "address"
        }
      ],
      "name": "NotRoleHolder",
      "type": "error"
    },
    {
      "inputs": [],
      "name": "ReentrancyGuardReentrantCall",
      "type": "error"
    },
    {
      "inputs": [
        {
          "internalType": "uint256",
          "name": "currentRewardRate",
          "type": "uint256"
        },
        {
          "internalType": "uint256",
          "name": "newRewardRate",
          "type": "uint256"
        }
      ],
      "name": "RewardDilution",
      "type": "error"
    },
    {
      "inputs": [],
      "name": "RewardOverflow",
      "type": "error"
    },
    {
      "inputs": [
        {
          "internalType": "address",
          "name": "token",
          "type": "address"
        }
      ],
      "name": "SafeERC20FailedOperation",
      "type": "error"
    },
    {
      "inputs": [],
      "name": "ScalingFactorOutOfBounds",
      "type": "error"
    },
    {
      "anonymous": false,
      "inputs": [
        {
          "indexed": true,
          "internalType": "address",
          "name": "staker",
          "type": "address"
        },
        {
          "indexed": false,
          "internalType": "bytes",
          "name": "claimData",
          "type": "bytes"
        },
        {
          "indexed": false,
          "internalType": "uint256",
          "name": "claimed",
          "type": "uint256"
        },
        {
          "indexed": false,
          "internalType": "uint256",
          "name": "unclaimed",
          "type": "uint256"
        }
      ],
      "name": "Claimed",
      "type": "event"
    },
    {
      "anonymous": false,
      "inputs": [
        {
          "indexed": true,
          "internalType": "address",
          "name": "previousOwner",
          "type": "address"
        },
        {
          "indexed": true,
          "internalType": "address",
          "name": "newOwner",
          "type": "address"
        }
      ],
      "name": "OwnershipTransferred",
      "type": "event"
    },
    {
      "anonymous": false,
      "inputs": [
        {
          "indexed": true,
          "internalType": "address",
          "name": "rewarder",
          "type": "address"
        },
        {
          "indexed": false,
          "internalType": "uint256",
          "name": "reward",
          "type": "uint256"
        },
        {
          "indexed": false,
          "internalType": "uint256",
          "name": "duration",
          "type": "uint256"
        }
      ],
      "name": "RewardAdded",
      "type": "event"
    },
    {
      "anonymous": false,
      "inputs": [
        {
          "indexed": false,
          "internalType": "bytes32",
          "name": "role",
          "type": "bytes32"
        },
        {
          "indexed": false,
          "internalType": "address",
          "name": "account",
          "type": "address"
        },
        {
          "indexed": false,
          "internalType": "address",
          "name": "operator",
          "type": "address"
        }
      ],
      "name": "RoleGranted",
      "type": "event"
    },
    {
      "anonymous": false,
      "inputs": [
        {
          "indexed": false,
          "internalType": "bytes32",
          "name": "role",
          "type": "bytes32"
        },
        {
          "indexed": false,
          "internalType": "address",
          "name": "account",
          "type": "address"
        },
        {
          "indexed": false,
          "internalType": "address",
          "name": "operator",
          "type": "address"
        }
      ],
      "name": "RoleRevoked",
      "type": "event"
    },
    {
      "anonymous": false,
      "inputs": [
        {
          "indexed": true,
          "internalType": "address",
          "name": "staker",
          "type": "address"
        },
        {
          "indexed": false,
          "internalType": "bytes",
          "name": "stakeData",
          "type": "bytes"
        },
        {
          "indexed": false,
          "internalType": "uint256",
          "name": "stakePoints",
          "type": "uint256"
        }
      ],
      "name": "Staked",
      "type": "event"
    },
    {
      "anonymous": false,
      "inputs": [
        {
          "indexed": true,
          "internalType": "address",
          "name": "staker",
          "type": "address"
        },
        {
          "indexed": false,
          "internalType": "bytes",
          "name": "withdrawData",
          "type": "bytes"
        },
        {
          "indexed": false,
          "internalType": "uint256",
          "name": "stakePoints",
          "type": "uint256"
        }
      ],
      "name": "Withdrawn",
      "type": "event"
    },
    {
      "inputs": [],
      "name": "CLAIM_CONTRACT",
      "outputs": [
        {
          "internalType": "address",
          "name": "",
          "type": "address"
        }
      ],
      "stateMutability": "view",
      "type": "function"
    },
    {
      "inputs": [],
      "name": "DEPOSIT_REASON_CODE",
      "outputs": [
        {
          "internalType": "bytes32",
          "name": "",
          "type": "bytes32"
        }
      ],
      "stateMutability": "view",
      "type": "function"
    },
    {
      "inputs": [],
      "name": "POINTS_CONTRACT",
      "outputs": [
        {
          "internalType": "contract IPointsV2",
          "name": "",
          "type": "address"
        }
      ],
      "stateMutability": "view",
      "type": "function"
    },
    {
      "inputs": [],
      "name": "REWARDER_ROLE",
      "outputs": [
        {
          "internalType": "bytes32",
          "name": "",
          "type": "bytes32"
        }
      ],
      "stateMutability": "view",
      "type": "function"
    },
    {
      "inputs": [],
      "name": "SCALING_FACTOR",
      "outputs": [
        {
          "internalType": "uint256",
          "name": "",
          "type": "uint256"
        }
      ],
      "stateMutability": "view",
      "type": "function"
    },
    {
      "inputs": [],
      "name": "STAKING_TOKEN",
      "outputs": [
        {
          "internalType": "contract IERC20",
          "name": "",
          "type": "address"
        }
      ],
      "stateMutability": "view",
      "type": "function"
    },
    {
      "inputs": [
        {
          "internalType": "uint256",
          "name": "reward",
          "type": "uint256"
        },
        {
          "internalType": "uint256",
          "name": "duration",
          "type": "uint256"
        }
      ],
      "name": "addReward",
      "outputs": [],
      "stateMutability": "payable",
      "type": "function"
    },
    {
      "inputs": [],
      "name": "claim",
      "outputs": [],
      "stateMutability": "nonpayable",
      "type": "function"
    },
    {
      "inputs": [
        {
          "internalType": "bytes",
          "name": "claimData",
          "type": "bytes"
        }
      ],
      "name": "claim",
      "outputs": [],
      "stateMutability": "nonpayable",
      "type": "function"
    },
    {
      "inputs": [],
      "name": "distributionEnd",
      "outputs": [
        {
          "internalType": "uint256",
          "name": "",
          "type": "uint256"
        }
      ],
      "stateMutability": "view",
      "type": "function"
    },
    {
      "inputs": [
        {
          "internalType": "address",
          "name": "account",
          "type": "address"
        }
      ],
      "name": "earned",
      "outputs": [
        {
          "internalType": "uint256",
          "name": "",
          "type": "uint256"
        }
      ],
      "stateMutability": "view",
      "type": "function"
    },
    {
      "inputs": [],
      "name": "forwarderRegistry",
      "outputs": [
        {
          "internalType": "contract IForwarderRegistry",
          "name": "",
          "type": "address"
        }
      ],
      "stateMutability": "view",
      "type": "function"
    },
    {
      "inputs": [
        {
          "internalType": "bytes32",
          "name": "role",
          "type": "bytes32"
        },
        {
          "internalType": "address",
          "name": "account",
          "type": "address"
        }
      ],
      "name": "grantRole",
      "outputs": [],
      "stateMutability": "nonpayable",
      "type": "function"
    },
    {
      "inputs": [
        {
          "internalType": "bytes32",
          "name": "role",
          "type": "bytes32"
        },
        {
          "internalType": "address",
          "name": "account",
          "type": "address"
        }
      ],
      "name": "hasRole",
      "outputs": [
        {
          "internalType": "bool",
          "name": "hasRole_",
          "type": "bool"
        }
      ],
      "stateMutability": "view",
      "type": "function"
    },
    {
      "inputs": [
        {
          "internalType": "address",
          "name": "forwarder",
          "type": "address"
        }
      ],
      "name": "isTrustedForwarder",
      "outputs": [
        {
          "internalType": "bool",
          "name": "",
          "type": "bool"
        }
      ],
      "stateMutability": "view",
      "type": "function"
    },
    {
      "inputs": [],
      "name": "lastTimeRewardApplicable",
      "outputs": [
        {
          "internalType": "uint256",
          "name": "",
          "type": "uint256"
        }
      ],
      "stateMutability": "view",
      "type": "function"
    },
    {
      "inputs": [],
      "name": "lastUpdated",
      "outputs": [
        {
          "internalType": "uint256",
          "name": "",
          "type": "uint256"
        }
      ],
      "stateMutability": "view",
      "type": "function"
    },
    {
      "inputs": [
        {
          "internalType": "address",
          "name": "operator",
          "type": "address"
        },
        {
          "internalType": "address",
          "name": "from",
          "type": "address"
        },
        {
          "internalType": "uint256",
          "name": "value",
          "type": "uint256"
        },
        {
          "internalType": "bytes",
          "name": "data",
          "type": "bytes"
        }
      ],
      "name": "onERC20Received",
      "outputs": [
        {
          "internalType": "bytes4",
          "name": "",
          "type": "bytes4"
        }
      ],
      "stateMutability": "nonpayable",
      "type": "function"
    },
    {
      "inputs": [],
      "name": "owner",
      "outputs": [
        {
          "internalType": "address",
          "name": "",
          "type": "address"
        }
      ],
      "stateMutability": "view",
      "type": "function"
    },
    {
      "inputs": [
        {
          "internalType": "address[]",
          "name": "accounts",
          "type": "address[]"
        },
        {
          "internalType": "contract IERC20[]",
          "name": "tokens",
          "type": "address[]"
        },
        {
          "internalType": "uint256[]",
          "name": "amounts",
          "type": "uint256[]"
        }
      ],
      "name": "recoverERC20s",
      "outputs": [],
      "stateMutability": "nonpayable",
      "type": "function"
    },
    {
      "inputs": [
        {
          "internalType": "address[]",
          "name": "accounts",
          "type": "address[]"
        },
        {
          "internalType": "contract IERC721[]",
          "name": "contracts",
          "type": "address[]"
        },
        {
          "internalType": "uint256[]",
          "name": "tokenIds",
          "type": "uint256[]"
        }
      ],
      "name": "recoverERC721s",
      "outputs": [],
      "stateMutability": "nonpayable",
      "type": "function"
    },
    {
      "inputs": [
        {
          "internalType": "address payable[]",
          "name": "accounts",
          "type": "address[]"
        },
        {
          "internalType": "uint256[]",
          "name": "amounts",
          "type": "uint256[]"
        }
      ],
      "name": "recoverETH",
      "outputs": [],
      "stateMutability": "nonpayable",
      "type": "function"
    },
    {
      "inputs": [
        {
          "internalType": "bytes32",
          "name": "role",
          "type": "bytes32"
        }
      ],
      "name": "renounceRole",
      "outputs": [],
      "stateMutability": "nonpayable",
      "type": "function"
    },
    {
      "inputs": [
        {
          "internalType": "bytes32",
          "name": "role",
          "type": "bytes32"
        },
        {
          "internalType": "address",
          "name": "account",
          "type": "address"
        }
      ],
      "name": "revokeRole",
      "outputs": [],
      "stateMutability": "nonpayable",
      "type": "function"
    },
    {
      "inputs": [],
      "name": "rewardPerStakePoint",
      "outputs": [
        {
          "internalType": "uint256",
          "name": "",
          "type": "uint256"
        }
      ],
      "stateMutability": "view",
      "type": "function"
    },
    {
      "inputs": [
        {
          "internalType": "address",
          "name": "staker",
          "type": "address"
        }
      ],
      "name": "rewardPerStakePointPaid",
      "outputs": [
        {
          "internalType": "uint256",
          "name": "paid",
          "type": "uint256"
        }
      ],
      "stateMutability": "view",
      "type": "function"
    },
    {
      "inputs": [],
      "name": "rewardPerStakePointStored",
      "outputs": [
        {
          "internalType": "uint256",
          "name": "",
          "type": "uint256"
        }
      ],
      "stateMutability": "view",
      "type": "function"
    },
    {
      "inputs": [],
      "name": "rewardRate",
      "outputs": [
        {
          "internalType": "uint256",
          "name": "",
          "type": "uint256"
        }
      ],
      "stateMutability": "view",
      "type": "function"
    },
    {
      "inputs": [
        {
          "internalType": "address",
          "name": "staker",
          "type": "address"
        }
      ],
      "name": "rewards",
      "outputs": [
        {
          "internalType": "uint256",
          "name": "reward",
          "type": "uint256"
        }
      ],
      "stateMutability": "view",
      "type": "function"
    },
    {
      "inputs": [
        {
          "internalType": "bytes",
          "name": "stakeData",
          "type": "bytes"
        }
      ],
      "name": "stake",
      "outputs": [],
      "stateMutability": "payable",
      "type": "function"
    },
    {
      "inputs": [
        {
          "internalType": "address",
          "name": "staker",
          "type": "address"
        }
      ],
      "name": "staked",
      "outputs": [
        {
          "internalType": "uint256",
          "name": "stakePoints",
          "type": "uint256"
        }
      ],
      "stateMutability": "view",
      "type": "function"
    },
    {
      "inputs": [
        {
          "internalType": "bytes4",
          "name": "interfaceId",
          "type": "bytes4"
        }
      ],
      "name": "supportsInterface",
      "outputs": [
        {
          "internalType": "bool",
          "name": "",
          "type": "bool"
        }
      ],
      "stateMutability": "view",
      "type": "function"
    },
    {
      "inputs": [],
      "name": "totalStaked",
      "outputs": [
        {
          "internalType": "uint256",
          "name": "",
          "type": "uint256"
        }
      ],
      "stateMutability": "view",
      "type": "function"
    },
    {
      "inputs": [
        {
          "internalType": "address",
          "name": "newOwner",
          "type": "address"
        }
      ],
      "name": "transferOwnership",
      "outputs": [],
      "stateMutability": "nonpayable",
      "type": "function"
    },
    {
      "inputs": [
        {
          "internalType": "bytes",
          "name": "withdrawData",
          "type": "bytes"
        }
      ],
      "name": "withdraw",
      "outputs": [],
      "stateMutability": "nonpayable",
      "type": "function"
    }
  ],
  "bytecode": "0x6101403461027e57601f61334738819003918201601f19168301916001600160401b038311848410176102835780849260a09460405283398101031261027e578051906001600160a01b038216820361027e5760208101516001600160a01b038116810361027e576040820151906001600160a01b0382169081830361027e5760608401516080909401516001600160a01b038116810361027e573361021f575b7fca9d3e17f264b0f3984e2634e94adb37fa3e6a8103f06aeae6fa59e21c769f5d6020527fa53d5a615b1d5279f1a6647c5c0f31bf064b1e70af135676a4a96aeaeb691a2f8054600160ff19918216811790925560008281556080939093527a184f03e93ff9f4daa797ed6e38ed64bf6a1f01000000000000000060a052634fc3585960e01b9092527fe65694af8bc898f30b0dd47956ad372c47424e060a94ef47c1bbc9231c44a84b805490921617905560c0521561020e5760e05261010052610120526040516130ad908161029a823960805181818161242501528181612bc00152612e6c015260a051818181610557015281816107eb015281816111860152611d60015260c051818181611496015281816117d401528181612374015281816125570152612700015260e05181818161083301528181611da901526121280152610100518181816108b001528181611e25015261247f0152610120518181816116fa01526118290152f35b631051ee9560e31b60005260046000fd5b7fc9ed16f33ab3a66c84bfd83099ccb2a8845871e2e1c1928f63797152f0fd54cc80546001600160a01b0319163390811790915560007f8be0079c531659141344cd1fd0a4f28419497f9722a3daafe3b4186f6b6457e08180a36100a0565b600080fd5b634e487b7160e01b600052604160045260246000fdfe6080604052600436101561001257600080fd5b6000803560e01c80628cc2621461278c57806301ffc9a7146127245780630479d644146126b55780630700037d146126525780630968f264146124a25780632196e445146124495780632b4c9f16146123da5780632c9d0b80146123a15780632d1e0c021461214c5780632d4c2f93146120dd5780632f2ff15d14611f0e5780634e71d92d14611cff5780634fc358591461176a578063572b6c051461171e57806362ba9096146116af57806373c8a9581461147e57806375c93bb9146110c55780637b0a47ee1461108957806380faa57d14611048578063817b1cd21461100c5780638580cf7614610fb35780638bb9c5bf14610e495780638da5cb5b14610dd757806391d1485414610d4057806398807d8414610cdd5780639d696e3614610ca1578063c3666c3614610a0f578063c5c8f770146109ac578063c63ff8dd14610765578063d0b06f5d14610729578063d547741f1461057a578063ef4cadc514610521578063efa90b54146104e5578063f2fde38b146103bf5763f7ba94bd1461019d57600080fd5b346103bc5760407ffffffffffffffffffffffffffffffffffffffffffffffffffffffffffffffffc3601126103bc5760043567ffffffffffffffff81116103ba576101ec903690600401612842565b60243567ffffffffffffffff81116103b65761020c903690600401612842565b90917fc9ed16f33ab3a66c84bfd83099ccb2a8845871e2e1c1928f63797152f0fd54cc73ffffffffffffffffffffffffffffffffffffffff8061024d612e55565b9254169116908103610389575081810361036157845b81811061026e578580f35b610279818387612c08565b3573ffffffffffffffffffffffffffffffffffffffff811680910361035d576102a3828587612c08565b359081471061032d578780809381935af13d15610325573d906102c582612a4b565b916102d360405193846129db565b82523d88602084013e5b156102eb5750600101610263565b80518790156102fd5750805190602001fd5b807fd6bda2750000000000000000000000000000000000000000000000000000000060049252fd5b6060906102dd565b60448883477fcf479181000000000000000000000000000000000000000000000000000000008352600452602452fd5b8680fd5b6004857f65825336000000000000000000000000000000000000000000000000000000008152fd5b7f2ef4875e0000000000000000000000000000000000000000000000000000000060005260045260246000fd5b8380fd5b505b80fd5b50346103bc5760207ffffffffffffffffffffffffffffffffffffffffffffffffffffffffffffffffc3601126103bc576103f76127ce565b7fc9ed16f33ab3a66c84bfd83099ccb2a8845871e2e1c1928f63797152f0fd54cc610420612e55565b9080549273ffffffffffffffffffffffffffffffffffffffff80851693168381036104ba575073ffffffffffffffffffffffffffffffffffffffff1692838303610468578480f35b7fffffffffffffffffffffffff000000000000000000000000000000000000000016831790557f8be0079c531659141344cd1fd0a4f28419497f9722a3daafe3b4186f6b6457e08380a3388080808480f35b7f2ef4875e000000000000000000000000000000000000000000000000000000008652600452602485fd5b50346103bc57807ffffffffffffffffffffffffffffffffffffffffffffffffffffffffffffffffc3601126103bc576020600554604051908152f35b50346103bc57807ffffffffffffffffffffffffffffffffffffffffffffffffffffffffffffffffc3601126103bc5760206040517f00000000000000000000000000000000000000000000000000000000000000008152f35b50346103bc5760407ffffffffffffffffffffffffffffffffffffffffffffffffffffffffffffffffc3601126103bc576004356105b56127f1565b6105bd612e55565b9173ffffffffffffffffffffffffffffffffffffffff7fc9ed16f33ab3a66c84bfd83099ccb2a8845871e2e1c1928f63797152f0fd54cc541673ffffffffffffffffffffffffffffffffffffffff841690810361038957507fc8827d3282af6f37b64c3e9e6f3ac9df286ab0bb0fccd6f8661bf19adb368b22818552806020526040852073ffffffffffffffffffffffffffffffffffffffff841660005260205260ff6040600020541661066f578480f35b7ff6391f5c32d9c69d2a47ea670b442974b53935d1edc7fd64eb21e047a839171b9361071e918387526020526040862073ffffffffffffffffffffffffffffffffffffffff851660005260205260406000207fffffffffffffffffffffffffffffffffffffffffffffffffffffffffffffff0081541690556040519384938491604091949373ffffffffffffffffffffffffffffffffffffffff80926060860197865216602085015216910152565b0390a1388080808480f35b50346103bc57807ffffffffffffffffffffffffffffffffffffffffffffffffffffffffffffffffc3601126103bc576020600254604051908152f35b50346103bc5760207ffffffffffffffffffffffffffffffffffffffffffffffffffffffffffffffffc3601126103bc5760043567ffffffffffffffff81116103ba576107b5903690600401612814565b91906107bf612e1a565b6107c7612e55565b906107d182612d77565b6107da82612971565b93846107e9575b836001815580f35b7f0000000000000000000000000000000000000000000000000000000000000000946108158682612a85565b95801561097f5773ffffffffffffffffffffffffffffffffffffffff7f00000000000000000000000000000000000000000000000000000000000000001694853b1561035d578673ffffffffffffffffffffffffffffffffffffffff6064829360405194859384927f26b3293f000000000000000000000000000000000000000000000000000000008452169a8b60048401528d60248401527f000000000000000000000000000000000000000000000000000000000000000060448401525af180156109745790879161095b575b50507f019eda09011e476781de26947e4b78ee0a834e7182f5ff2eb62bcf8c523f42ca949596918161091861091f93612942565b9106612964565b85875260076020526040872055610943604051938493606085526060850191612b04565b9060208301528560408301520390a2803880806107e1565b81610965916129db565b6109705785386108e4565b8580fd5b6040513d89823e3d90fd5b6024867f4e487b710000000000000000000000000000000000000000000000000000000081526012600452fd5b50346103bc5760207ffffffffffffffffffffffffffffffffffffffffffffffffffffffffffffffffc3601126103bc57604060209173ffffffffffffffffffffffffffffffffffffffff6109fe6127ce565b168152600883522054604051908152f35b50346103bc57610a1e36612873565b929490939092917fc9ed16f33ab3a66c84bfd83099ccb2a8845871e2e1c1928f63797152f0fd54cc73ffffffffffffffffffffffffffffffffffffffff80610a64612e55565b92541691169081036103895750808214801590610c97575b610c6f57865b828110610a8d578780f35b73ffffffffffffffffffffffffffffffffffffffff610ab5610ab083858b612c08565b612c47565b166040517f01ffc9a70000000000000000000000000000000000000000000000000000000081527f80ac58cd000000000000000000000000000000000000000000000000000000006004820152602081602481855afa908115610c64578a91610c27575b5015610bfc57508773ffffffffffffffffffffffffffffffffffffffff610b44610ab084868c612c08565b16610b53610ab084878a612c08565b610b5e84888b612c08565b35823b156103b6576040517f42842e0e00000000000000000000000000000000000000000000000000000000815230600482015273ffffffffffffffffffffffffffffffffffffffff92909216602483015260448201529082908290606490829084905af18015610bf157610bd8575b5050600101610a82565b81610be2916129db565b610bed578738610bce565b8780fd5b6040513d84823e3d90fd5b7f986b9f1f000000000000000000000000000000000000000000000000000000008952600452602488fd5b90506020813d8211610c5c575b81610c41602093836129db565b81010312610c5857610c5290612e0d565b38610b19565b8980fd5b3d9150610c34565b6040513d8c823e3d90fd5b6004877f65825336000000000000000000000000000000000000000000000000000000008152fd5b5082821415610a7c565b50346103bc57807ffffffffffffffffffffffffffffffffffffffffffffffffffffffffffffffffc3601126103bc576020600454604051908152f35b50346103bc5760207ffffffffffffffffffffffffffffffffffffffffffffffffffffffffffffffffc3601126103bc57604060209173ffffffffffffffffffffffffffffffffffffffff610d2f6127ce565b168152600683522054604051908152f35b50346103bc5760407ffffffffffffffffffffffffffffffffffffffffffffffffffffffffffffffffc3601126103bc5773ffffffffffffffffffffffffffffffffffffffff6040610d8f6127f1565b927fc8827d3282af6f37b64c3e9e6f3ac9df286ab0bb0fccd6f8661bf19adb368b226004358252602052209116600052602052602060ff604060002054166040519015158152f35b50346103bc57807ffffffffffffffffffffffffffffffffffffffffffffffffffffffffffffffffc3601126103bc5750602073ffffffffffffffffffffffffffffffffffffffff7fc9ed16f33ab3a66c84bfd83099ccb2a8845871e2e1c1928f63797152f0fd54cc5416604051908152f35b50346103bc5760207ffffffffffffffffffffffffffffffffffffffffffffffffffffffffffffffffc3601126103bc57600435907fc8827d3282af6f37b64c3e9e6f3ac9df286ab0bb0fccd6f8661bf19adb368b22610ea6612e55565b90838352806020526040832073ffffffffffffffffffffffffffffffffffffffff831660005260205260ff6040600020541615610f6d578383526020908152604080842073ffffffffffffffffffffffffffffffffffffffff9390931660008181529383529281902080547fffffffffffffffffffffffffffffffffffffffffffffffffffffffffffffff001690558051948552908401829052830152907ff6391f5c32d9c69d2a47ea670b442974b53935d1edc7fd64eb21e047a839171b90606090a180f35b5073ffffffffffffffffffffffffffffffffffffffff906044937f7aa7288200000000000000000000000000000000000000000000000000000000845260045216602452fd5b50346103bc57807ffffffffffffffffffffffffffffffffffffffffffffffffffffffffffffffffc3601126103bc5760206040517f72657761726465720000000000000000000000000000000000000000000000008152f35b50346103bc57807ffffffffffffffffffffffffffffffffffffffffffffffffffffffffffffffffc3601126103bc576020600154604051908152f35b50346103bc57807ffffffffffffffffffffffffffffffffffffffffffffffffffffffffffffffffc3601126103bc576020611081612c68565b604051908152f35b50346103bc57807ffffffffffffffffffffffffffffffffffffffffffffffffffffffffffffffffc3601126103bc576020600354604051908152f35b5060407ffffffffffffffffffffffffffffffffffffffffffffffffffffffffffffffffc3601126103bc576004356024356110fe612e55565b907fc8827d3282af6f37b64c3e9e6f3ac9df286ab0bb0fccd6f8661bf19adb368b227f726577617264657200000000000000000000000000000000000000000000000085526020526040842073ffffffffffffffffffffffffffffffffffffffff831660005260205260ff60406000205416156114185782156113f05780156113c8576111ab7f000000000000000000000000000000000000000000000000000000000000000084612d45565b90156113a0576111b9612abe565b6004556005544210801590611395575b611385575b600554906111dc8342612964565b914281116112455750928273ffffffffffffffffffffffffffffffffffffffff9261122a6040957f6a6f77044107a33658235d41bedbbaf2fe9ccdceb313143c947a5e76e1ec847497612a85565b6003556005555b42600255835195865260208601521692a280f35b916112696003949294549461126361125d4287612906565b87612951565b90612dfc565b94901561135d578382116112d1575050507f6a6f77044107a33658235d41bedbbaf2fe9ccdceb313143c947a5e76e1ec8474926040926112c96112c273ffffffffffffffffffffffffffffffffffffffff944290612906565b8092612a85565b600355611231565b916112df9193508094612a85565b9080821061132f57509260409273ffffffffffffffffffffffffffffffffffffffff927f6a6f77044107a33658235d41bedbbaf2fe9ccdceb313143c947a5e76e1ec847495600355600555611231565b7f19e2447d000000000000000000000000000000000000000000000000000000008752600452602452604485fd5b6004887f50082065000000000000000000000000000000000000000000000000000000008152fd5b61138d612c68565b6002556111ce565b5060015415156111c9565b6004857f50082065000000000000000000000000000000000000000000000000000000008152fd5b6004847f76166401000000000000000000000000000000000000000000000000000000008152fd5b6004847f38539865000000000000000000000000000000000000000000000000000000008152fd5b60448473ffffffffffffffffffffffffffffffffffffffff847f7aa728820000000000000000000000000000000000000000000000000000000083527f726577617264657200000000000000000000000000000000000000000000000060045216602452fd5b50346103bc5761148d36612873565b929493909291867f000000000000000000000000000000000000000000000000000000000000000073ffffffffffffffffffffffffffffffffffffffff16815b81848a81841061165c57505050508161158f575b50507fc9ed16f33ab3a66c84bfd83099ccb2a8845871e2e1c1928f63797152f0fd54cc73ffffffffffffffffffffffffffffffffffffffff80611522612e55565b92541691169081036103895750808214801590611585575b610c6f57865b82811061154b578780f35b8061157f61155f610ab0600194868c612c08565b61156d610ab084888c612c08565b61157884898b612c08565b3591612f8d565b01611540565b508282141561153a565b6020602491604051928380927f70a082310000000000000000000000000000000000000000000000000000000082523060048301525afa8015611651578990611618575b6115e1915060015490612906565b90818111156114e1577f15c38d3e000000000000000000000000000000000000000000000000000000008952600452602452604487fd5b506020813d602011611649575b81611632602093836129db565b81010312611644576115e190516115d3565b600080fd5b3d9150611625565b6040513d8b823e3d90fd5b610ab08473ffffffffffffffffffffffffffffffffffffffff9361167f93612c08565b161461168e575b6001016114cd565b916116a76001916116a085898b612c08565b3590612964565b929050611686565b50346103bc57807ffffffffffffffffffffffffffffffffffffffffffffffffffffffffffffffffc3601126103bc57602060405173ffffffffffffffffffffffffffffffffffffffff7f0000000000000000000000000000000000000000000000000000000000000000168152f35b50346103bc5760207ffffffffffffffffffffffffffffffffffffffffffffffffffffffffffffffffc3601126103bc57602061176061175b6127ce565b612ba9565b6040519015158152f35b50346103bc5760807ffffffffffffffffffffffffffffffffffffffffffffffffffffffffffffffffc3601126103bc576117a26127ce565b906117ab6127f1565b916044359260643567ffffffffffffffff81116103b6576117d0903690600401612814565b90917f00000000000000000000000000000000000000000000000000000000000000009373ffffffffffffffffffffffffffffffffffffffff85163303611cd75773ffffffffffffffffffffffffffffffffffffffff807f000000000000000000000000000000000000000000000000000000000000000016911614600014611ade57508160209181010312611ada57359073ffffffffffffffffffffffffffffffffffffffff8216809203611ada57604051936020850152602084526118986040856129db565b60405190602082018481526118e9836118bd604082019860408a526060830190612b66565b037fffffffffffffffffffffffffffffffffffffffffffffffffffffffffffffffe081018552846129db565b6118f1612e1a565b6118fa84612d77565b8251830190604084602084019303126109705761191690612e0d565b955167ffffffffffffffff811161097057830181603f8201121561097057602081015161194281612a4b565b9161195060405193846129db565b818352602083019360408284010111610bed57602092918460406119749301612b43565b8051010160208260009203126103bc57505194611a44575b508315611a1c57837ff4679d394f1f97f1a3df1d73e193866ec5a813168ad5fa6958f9be21b10a594e916119c36001968754612964565b86558385526006602052604085206119dc838254612964565b90556119ed60405192839283612d29565b0390a2555b60206040517f4fc35859000000000000000000000000000000000000000000000000000000008152f35b6004837f040ef8ec000000000000000000000000000000000000000000000000000000008152fd5b6040517f23b872dd00000000000000000000000000000000000000000000000000000000602082015273ffffffffffffffffffffffffffffffffffffffff8416602482015230604482015260648101869052611ad491611acf82608481015b037fffffffffffffffffffffffffffffffffffffffffffffffffffffffffffffffe081018452836129db565b612fec565b3861198c565b8280fd5b91505060405193602085015260208452611af96040856129db565b6040519160208301848152611b4a84611b1e604082019860408a526060830190612b66565b037fffffffffffffffffffffffffffffffffffffffffffffffffffffffffffffffe081018652856129db565b611b52612e1a565b611b5b83612d77565b83518401906040856020840193031261097057611b7790612e0d565b955167ffffffffffffffff811161097057840181603f82011215610970576020810151611ba381612a4b565b91611bb160405193846129db565b818352602083019360408284010111610bed5760209291846040611bd59301612b43565b8051010160208260009203126103bc57505194611c6e575b508315611a1c578373ffffffffffffffffffffffffffffffffffffffff7ff4679d394f1f97f1a3df1d73e193866ec5a813168ad5fa6958f9be21b10a594e92611c396001978854612964565b87551692838552600660205260408520611c54838254612964565b9055611c6560405192839283612d29565b0390a2556119f2565b6040517f23b872dd00000000000000000000000000000000000000000000000000000000602082015273ffffffffffffffffffffffffffffffffffffffff8316602482015230604482015260648101869052611cd191611acf8260848101611aa3565b38611bed565b6004867fc1ab6dc1000000000000000000000000000000000000000000000000000000008152fd5b50346103bc57807ffffffffffffffffffffffffffffffffffffffffffffffffffffffffffffffffc3601126103bc57611d36612e1a565b611d3e612e55565b611d4781612d77565b611d5081612971565b80611d5e575b826001815580f35b7f000000000000000000000000000000000000000000000000000000000000000090611d8a8282612a85565b918015611ee1578473ffffffffffffffffffffffffffffffffffffffff7f00000000000000000000000000000000000000000000000000000000000000001694853b156103ba5773ffffffffffffffffffffffffffffffffffffffff6064839260405194859384927f26b3293f00000000000000000000000000000000000000000000000000000000845216998a60048401528960248401527f000000000000000000000000000000000000000000000000000000000000000060448401525af18015611ed657611ec2575b5091611e89608092846109187f019eda09011e476781de26947e4b78ee0a834e7182f5ff2eb62bcf8c523f42ca96612942565b84865260076020526040862055604051906060825285606083015282820186808037868152506020820152846040820152a23880611d56565b85611ecf919692966129db565b9338611e56565b6040513d88823e3d90fd5b6024857f4e487b710000000000000000000000000000000000000000000000000000000081526012600452fd5b50346103bc5760407ffffffffffffffffffffffffffffffffffffffffffffffffffffffffffffffffc3601126103bc57600435611f496127f1565b611f51612e55565b9173ffffffffffffffffffffffffffffffffffffffff7fc9ed16f33ab3a66c84bfd83099ccb2a8845871e2e1c1928f63797152f0fd54cc541673ffffffffffffffffffffffffffffffffffffffff84169081036120b257507fc8827d3282af6f37b64c3e9e6f3ac9df286ab0bb0fccd6f8661bf19adb368b22818552806020526040852073ffffffffffffffffffffffffffffffffffffffff8416865260205260ff60408620541615612002578480f35b7f2f8788117e7eff1d82e926ec794901d17c78024a50270940304540a733656f0d9361071e918387526020526040862073ffffffffffffffffffffffffffffffffffffffff851687526020526040862060017fffffffffffffffffffffffffffffffffffffffffffffffffffffffffffffff008254161790556040519384938491604091949373ffffffffffffffffffffffffffffffffffffffff80926060860197865216602085015216910152565b7f2ef4875e000000000000000000000000000000000000000000000000000000008552600452602484fd5b50346103bc57807ffffffffffffffffffffffffffffffffffffffffffffffffffffffffffffffffc3601126103bc57602060405173ffffffffffffffffffffffffffffffffffffffff7f0000000000000000000000000000000000000000000000000000000000000000168152f35b5060207ffffffffffffffffffffffffffffffffffffffffffffffffffffffffffffffffc3601126103bc5760043567ffffffffffffffff81116103ba57612197903690600401612814565b61219f612e55565b604051926121c684611b1e6020820193600185526040830196604088526060840191612b04565b6121ce612e1a565b6121d782612d77565b835184019060408560208401930312610970576121f390612e0d565b925167ffffffffffffffff811161097057840181603f820112156109705760208101519061222082612a4b565b9161222e60405193846129db565b808352602083019360408383010111610bed576020926122548492866040819601612b43565b80510101031261239d57519161230e575b81156122e6579073ffffffffffffffffffffffffffffffffffffffff7ff4679d394f1f97f1a3df1d73e193866ec5a813168ad5fa6958f9be21b10a594e926122af83600154612964565b60015516928385526006602052604085206122cb838254612964565b90556122dc60405192839283612d29565b0390a26001815580f35b6004847f040ef8ec000000000000000000000000000000000000000000000000000000008152fd5b6040517f23b872dd00000000000000000000000000000000000000000000000000000000602082015273ffffffffffffffffffffffffffffffffffffffff8216602482015230604482015260648082018490528152612398906123726084826129db565b7f0000000000000000000000000000000000000000000000000000000000000000612fec565b612265565b8480fd5b50346103bc57807ffffffffffffffffffffffffffffffffffffffffffffffffffffffffffffffffc3601126103bc576020611081612abe565b50346103bc57807ffffffffffffffffffffffffffffffffffffffffffffffffffffffffffffffffc3601126103bc57602060405173ffffffffffffffffffffffffffffffffffffffff7f0000000000000000000000000000000000000000000000000000000000000000168152f35b50346103bc57807ffffffffffffffffffffffffffffffffffffffffffffffffffffffffffffffffc3601126103bc5760206040517f00000000000000000000000000000000000000000000000000000000000000008152f35b50346103bc5760207ffffffffffffffffffffffffffffffffffffffffffffffffffffffffffffffffc3601126103bc5760043567ffffffffffffffff81116103ba576124f2903690600401612814565b6124fa612e55565b908361250582612a4b565b9361251360405195866129db565b82855260208501923681830111611ada5780602092853785010152612536612e1a565b61253f82612d77565b60208181855186010103126103b657519061257b82827f0000000000000000000000000000000000000000000000000000000000000000612f8d565b811561262a5773ffffffffffffffffffffffffffffffffffffffff1691828452600660205260408420548281106125f65790827faae638dec0d864ccb08558c28981bcfaee41330f57c4911cbe2d8432d0fb729e9392858752600660205203604086205581600154036001556122dc60405192839283612d29565b905083927f2b6a77580000000000000000000000000000000000000000000000000000000060649552600452602452604452fd5b6004847fdb73cdf0000000000000000000000000000000000000000000000000000000008152fd5b50346103bc5760207ffffffffffffffffffffffffffffffffffffffffffffffffffffffffffffffffc3601126103bc57604060209173ffffffffffffffffffffffffffffffffffffffff6126a46127ce565b168152600783522054604051908152f35b50346103bc57807ffffffffffffffffffffffffffffffffffffffffffffffffffffffffffffffffc3601126103bc57602060405173ffffffffffffffffffffffffffffffffffffffff7f0000000000000000000000000000000000000000000000000000000000000000168152f35b50346103bc5760207ffffffffffffffffffffffffffffffffffffffffffffffffffffffffffffffffc3601126103bc57600435907fffffffff00000000000000000000000000000000000000000000000000000000821682036103bc57602061176083612c7a565b50346103bc5760207ffffffffffffffffffffffffffffffffffffffffffffffffffffffffffffffffc3601126103bc5760206110816127c96127ce565b612971565b6004359073ffffffffffffffffffffffffffffffffffffffff8216820361164457565b6024359073ffffffffffffffffffffffffffffffffffffffff8216820361164457565b9181601f840112156116445782359167ffffffffffffffff8311611644576020838186019501011161164457565b9181601f840112156116445782359167ffffffffffffffff8311611644576020808501948460051b01011161164457565b60607ffffffffffffffffffffffffffffffffffffffffffffffffffffffffffffffffc8201126116445760043567ffffffffffffffff811161164457816128bc91600401612842565b9290929160243567ffffffffffffffff811161164457816128df91600401612842565b929092916044359067ffffffffffffffff82116116445761290291600401612842565b9091565b9190820391821161291357565b7f4e487b7100000000000000000000000000000000000000000000000000000000600052601160045260246000fd5b90600091156001171561291357565b8181029291811591840414171561291357565b9190820180921161291357565b73ffffffffffffffffffffffffffffffffffffffff6129d891168060005260066020526129c36040600020546129bd6129a8612abe565b84600052600860205260406000205490612906565b90612951565b90600052600760205260406000205490612964565b90565b90601f7fffffffffffffffffffffffffffffffffffffffffffffffffffffffffffffffe0910116810190811067ffffffffffffffff821117612a1c57604052565b7f4e487b7100000000000000000000000000000000000000000000000000000000600052604160045260246000fd5b67ffffffffffffffff8111612a1c57601f017fffffffffffffffffffffffffffffffffffffffffffffffffffffffffffffffe01660200190565b8115612a8f570490565b7f4e487b7100000000000000000000000000000000000000000000000000000000600052601260045260246000fd5b6001548015612afd576129d890612af760045491612af2612ae9612ae0612c68565b60025490612906565b60035490612951565b612a85565b90612964565b5060045490565b601f82602094937fffffffffffffffffffffffffffffffffffffffffffffffffffffffffffffffe0938186528686013760008582860101520116010190565b60005b838110612b565750506000910152565b8181015183820152602001612b46565b907fffffffffffffffffffffffffffffffffffffffffffffffffffffffffffffffe0601f602093612ba281518092818752878088019101612b43565b0116010190565b73ffffffffffffffffffffffffffffffffffffffff7f000000000000000000000000000000000000000000000000000000000000000016908115612c015773ffffffffffffffffffffffffffffffffffffffff161490565b5050600090565b9190811015612c185760051b0190565b7f4e487b7100000000000000000000000000000000000000000000000000000000600052603260045260246000fd5b3573ffffffffffffffffffffffffffffffffffffffff811681036116445790565b6005548042106000146129d857504290565b7fffffffff00000000000000000000000000000000000000000000000000000000167fffffffff000000000000000000000000000000000000000000000000000000008114612d23577f01ffc9a7000000000000000000000000000000000000000000000000000000008114612d1d576000527fca9d3e17f264b0f3984e2634e94adb37fa3e6a8103f06aeae6fa59e21c769f5d60205260ff6040600020541690565b50600190565b50600090565b929190612d40602091604086526040860190612b66565b930152565b91908215612d6d57612d5a8184029384612a85565b03612d655760019190565b600091508190565b5060019150600090565b612d7f612abe565b6004556005544210801590612df1575b612de1575b73ffffffffffffffffffffffffffffffffffffffff81169081612db5575050565b612dbe90612971565b816000526007602052604060002055600454906000526008602052604060002055565b612de9612c68565b600255612d94565b506001541515612d8f565b91908201918210612d655760019190565b5190811515820361164457565b600260005414612e2b576002600055565b7f3ee5aeb50000000000000000000000000000000000000000000000000000000060005260046000fd5b73ffffffffffffffffffffffffffffffffffffffff7f0000000000000000000000000000000000000000000000000000000000000000168015612f7e573233148015612f83575b612f7e577fffffffffffffffffffffffffffffffffffffffffffffffffffffffffffffffec36013560601c90803314908115612edd575b506129d857503390565b60649150602090604051928380927f019a20280000000000000000000000000000000000000000000000000000000082528660048301523360248301523060448301525afa908115612f7257600091612f38575b5038612ed3565b90506020813d602011612f6a575b81612f53602093836129db565b8101031261164457612f6490612e0d565b38612f31565b3d9150612f46565b6040513d6000823e3d90fd5b503390565b5060183610612e9c565b612fea9273ffffffffffffffffffffffffffffffffffffffff604051937fa9059cbb000000000000000000000000000000000000000000000000000000006020860152166024840152604483015260448252611acf6064836129db565b565b906000602091828151910182855af115612f72576000513d61306e575073ffffffffffffffffffffffffffffffffffffffff81163b155b61302a5750565b73ffffffffffffffffffffffffffffffffffffffff907f5274afe7000000000000000000000000000000000000000000000000000000006000521660045260246000fd5b6001141561302356fea2646970667358221220f7c57ba4c286a4a9f3181dcc630ed36e07413fdf6cdf6c35bdb79eebca32119f64736f6c634300081e0033",
  "linkReferences": {},
  "deployedLinkReferences": {}
}