{
  "_format": "hh-sol-artifact-1",
  "contractName": "CheckmateClaimWindowMerkleClaimMock",
  "sourceName": "contracts/mocks/merkleClaim/CheckmateClaimWindowMerkleClaimMock.sol",
  "abi": [
    {
      "inputs": [
        {
          "internalType": "address",
          "name": "checkmateToken_",
          "type": "address"
        },
        {
          "internalType": "address",
          "name": "stakingPool_",
          "type": "address"
        },
        {
          "internalType": "address payable",
          "name": "payoutWallet_",
          "type": "address"
        },
        {
          "internalType": "contract IForwarderRegistry",
          "name": "forwarderRegistry_",
          "type": "address"
        }
      ],
      "stateMutability": "nonpayable",
      "type": "constructor"
    },
    {
      "inputs": [
        {
          "internalType": "bytes32",
          "name": "epochId",
          "type": "bytes32"
        },
        {
          "internalType": "bytes32",
          "name": "leaf",
          "type": "bytes32"
        }
      ],
      "name": "AlreadyClaimed",
      "type": "error"
    },
    {
      "inputs": [
        {
          "internalType": "bytes32",
          "name": "epochId",
          "type": "bytes32"
        }
      ],
      "name": "EpochIdAlreadyExists",
      "type": "error"
    },
    {
      "inputs": [
        {
          "internalType": "bytes32",
          "name": "epochId",
          "type": "bytes32"
        }
      ],
      "name": "EpochIdNotExists",
      "type": "error"
    },
    {
      "inputs": [],
      "name": "IllegalInterfaceId",
      "type": "error"
    },
    {
      "inputs": [],
      "name": "InvalidCheckmateToken",
      "type": "error"
    },
    {
      "inputs": [
        {
          "internalType": "uint256",
          "name": "startTime",
          "type": "uint256"
        },
        {
          "internalType": "uint256",
          "name": "endTime",
          "type": "uint256"
        },
        {
          "internalType": "uint256",
          "name": "currentTime",
          "type": "uint256"
        }
      ],
      "name": "InvalidClaimWindow",
      "type": "error"
    },
    {
      "inputs": [],
      "name": "InvalidMerkleRoot",
      "type": "error"
    },
    {
      "inputs": [
        {
          "internalType": "bytes32",
          "name": "epochId",
          "type": "bytes32"
        },
        {
          "internalType": "address",
          "name": "recipient",
          "type": "address"
        },
        {
          "internalType": "uint256",
          "name": "amount",
          "type": "uint256"
        }
      ],
      "name": "InvalidProof",
      "type": "error"
    },
    {
      "inputs": [],
      "name": "InvalidStakingPool",
      "type": "error"
    },
    {
      "inputs": [
        {
          "internalType": "address",
          "name": "account",
          "type": "address"
        }
      ],
      "name": "NotContractOwner",
      "type": "error"
    },
    {
      "inputs": [
        {
          "internalType": "bytes32",
          "name": "epochId",
          "type": "bytes32"
        },
        {
          "internalType": "uint256",
          "name": "currentTime",
          "type": "uint256"
        }
      ],
      "name": "OutOfClaimWindow",
      "type": "error"
    },
    {
      "inputs": [
        {
          "internalType": "address",
          "name": "payoutWallet",
          "type": "address"
        },
        {
          "internalType": "address",
          "name": "recipient",
          "type": "address"
        },
        {
          "internalType": "uint256",
          "name": "amount",
          "type": "uint256"
        }
      ],
      "name": "TransferFailed",
      "type": "error"
    },
    {
      "inputs": [],
      "name": "ZeroAddressPayoutWallet",
      "type": "error"
    },
    {
      "anonymous": false,
      "inputs": [
        {
          "indexed": true,
          "internalType": "bytes32",
          "name": "epochId",
          "type": "bytes32"
        },
        {
          "indexed": true,
          "internalType": "bytes32",
          "name": "merkleRoot",
          "type": "bytes32"
        },
        {
          "indexed": false,
          "internalType": "uint256",
          "name": "startTime",
          "type": "uint256"
        },
        {
          "indexed": true,
          "internalType": "uint256",
          "name": "endTime",
          "type": "uint256"
        }
      ],
      "name": "EpochMerkleRootSet",
      "type": "event"
    },
    {
      "anonymous": false,
      "inputs": [
        {
          "indexed": true,
          "internalType": "address",
          "name": "previousOwner",
          "type": "address"
        },
        {
          "indexed": true,
          "internalType": "address",
          "name": "newOwner",
          "type": "address"
        }
      ],
      "name": "OwnershipTransferred",
      "type": "event"
    },
    {
      "anonymous": false,
      "inputs": [
        {
          "indexed": true,
          "internalType": "bytes32",
          "name": "epochId",
          "type": "bytes32"
        },
        {
          "indexed": true,
          "internalType": "bytes32",
          "name": "root",
          "type": "bytes32"
        },
        {
          "indexed": true,
          "internalType": "address",
          "name": "recipient",
          "type": "address"
        },
        {
          "indexed": false,
          "internalType": "uint256",
          "name": "amount",
          "type": "uint256"
        }
      ],
      "name": "PayoutClaimed",
      "type": "event"
    },
    {
      "anonymous": false,
      "inputs": [
        {
          "indexed": false,
          "internalType": "address",
          "name": "payoutWallet",
          "type": "address"
        }
      ],
      "name": "PayoutWalletSet",
      "type": "event"
    },
    {
      "inputs": [],
      "name": "CHECKMATE_TOKEN",
      "outputs": [
        {
          "internalType": "contract IERC20SafeTransfers",
          "name": "",
          "type": "address"
        }
      ],
      "stateMutability": "view",
      "type": "function"
    },
    {
      "inputs": [],
      "name": "STAKING_POOL",
      "outputs": [
        {
          "internalType": "address",
          "name": "",
          "type": "address"
        }
      ],
      "stateMutability": "view",
      "type": "function"
    },
    {
      "inputs": [],
      "name": "__msgData",
      "outputs": [
        {
          "internalType": "bytes",
          "name": "",
          "type": "bytes"
        }
      ],
      "stateMutability": "view",
      "type": "function"
    },
    {
      "inputs": [],
      "name": "__msgSender",
      "outputs": [
        {
          "internalType": "address",
          "name": "",
          "type": "address"
        }
      ],
      "stateMutability": "view",
      "type": "function"
    },
    {
      "inputs": [
        {
          "internalType": "bytes32",
          "name": "epochId",
          "type": "bytes32"
        },
        {
          "internalType": "address",
          "name": "recipient",
          "type": "address"
        },
        {
          "internalType": "uint256",
          "name": "amount",
          "type": "uint256"
        }
      ],
      "name": "canClaim",
      "outputs": [
        {
          "internalType": "enum CheckmateClaimWindowMerkleClaim.ClaimError",
          "name": "",
          "type": "uint8"
        }
      ],
      "stateMutability": "view",
      "type": "function"
    },
    {
      "inputs": [
        {
          "internalType": "bytes32",
          "name": "epochId",
          "type": "bytes32"
        },
        {
          "internalType": "address",
          "name": "recipient",
          "type": "address"
        },
        {
          "internalType": "uint256",
          "name": "amount",
          "type": "uint256"
        },
        {
          "internalType": "bytes32[]",
          "name": "proof",
          "type": "bytes32[]"
        }
      ],
      "name": "claimAndStake",
      "outputs": [],
      "stateMutability": "nonpayable",
      "type": "function"
    },
    {
      "inputs": [
        {
          "internalType": "bytes32",
          "name": "epochId",
          "type": "bytes32"
        }
      ],
      "name": "claimWindows",
      "outputs": [
        {
          "internalType": "bytes32",
          "name": "merkleRoot",
          "type": "bytes32"
        },
        {
          "internalType": "uint256",
          "name": "startTime",
          "type": "uint256"
        },
        {
          "internalType": "uint256",
          "name": "endTime",
          "type": "uint256"
        }
      ],
      "stateMutability": "view",
      "type": "function"
    },
    {
      "inputs": [
        {
          "internalType": "bytes32",
          "name": "leaf",
          "type": "bytes32"
        }
      ],
      "name": "claimed",
      "outputs": [
        {
          "internalType": "bool",
          "name": "claimed",
          "type": "bool"
        }
      ],
      "stateMutability": "view",
      "type": "function"
    },
    {
      "inputs": [],
      "name": "forwarderRegistry",
      "outputs": [
        {
          "internalType": "contract IForwarderRegistry",
          "name": "",
          "type": "address"
        }
      ],
      "stateMutability": "view",
      "type": "function"
    },
    {
      "inputs": [
        {
          "internalType": "address",
          "name": "forwarder",
          "type": "address"
        }
      ],
      "name": "isTrustedForwarder",
      "outputs": [
        {
          "internalType": "bool",
          "name": "",
          "type": "bool"
        }
      ],
      "stateMutability": "view",
      "type": "function"
    },
    {
      "inputs": [],
      "name": "owner",
      "outputs": [
        {
          "internalType": "address",
          "name": "",
          "type": "address"
        }
      ],
      "stateMutability": "view",
      "type": "function"
    },
    {
      "inputs": [],
      "name": "payoutWallet",
      "outputs": [
        {
          "internalType": "address payable",
          "name": "wallet",
          "type": "address"
        }
      ],
      "stateMutability": "view",
      "type": "function"
    },
    {
      "inputs": [
        {
          "internalType": "bytes32",
          "name": "epochId",
          "type": "bytes32"
        },
        {
          "internalType": "bytes32",
          "name": "merkleRoot",
          "type": "bytes32"
        },
        {
          "internalType": "uint256",
          "name": "startTime",
          "type": "uint256"
        },
        {
          "internalType": "uint256",
          "name": "endTime",
          "type": "uint256"
        }
      ],
      "name": "setEpochMerkleRoot",
      "outputs": [],
      "stateMutability": "nonpayable",
      "type": "function"
    },
    {
      "inputs": [
        {
          "internalType": "address payable",
          "name": "newPayoutWallet",
          "type": "address"
        }
      ],
      "name": "setPayoutWallet",
      "outputs": [],
      "stateMutability": "nonpayable",
      "type": "function"
    },
    {
      "inputs": [
        {
          "internalType": "bytes4",
          "name": "interfaceId",
          "type": "bytes4"
        }
      ],
      "name": "supportsInterface",
      "outputs": [
        {
          "internalType": "bool",
          "name": "",
          "type": "bool"
        }
      ],
      "stateMutability": "view",
      "type": "function"
    },
    {
      "inputs": [
        {
          "internalType": "address",
          "name": "newOwner",
          "type": "address"
        }
      ],
      "name": "transferOwnership",
      "outputs": [],
      "stateMutability": "nonpayable",
      "type": "function"
    }
  ],
  "bytecode": "0x60e060405234801561001057600080fd5b506040516118bd3803806118bd83398101604081905261002f916102ce565b8383838380808333610049816100436100d1565b90610105565b5061005c8161005661017b565b906101a9565b506001600160a01b039081166080528516905061008c57604051630338889560e21b815260040160405180910390fd5b6001600160a01b0383166100b357604051633b106f8560e01b815260040160405180910390fd5b50506001600160a01b0391821660a0521660c0525061034e92505050565b6000806100ff60017fc9ed16f33ab3a66c84bfd83099ccb2a8845871e2e1c1928f63797152f0fd54cd61032d565b92915050565b6001600160a01b0381161561015b5781546001600160a01b0319166001600160a01b03821690811783556040516000907f8be0079c531659141344cd1fd0a4f28419497f9722a3daafe3b4186f6b6457e0908290a35b6101776307f5828d60e41b60016101706101b3565b91906101e1565b5050565b6000806100ff60017f4fb5f8cdfbce77f22b0931a39e9f476a60a0f66524b2f379e96485471eb700ae61032d565b610177828261023d565b6000806100ff60017fca9d3e17f264b0f3984e2634e94adb37fa3e6a8103f06aeae6fa59e21c769f5e61032d565b600160e01b6001600160e01b031983160161020f576040516372c683bb60e01b815260040160405180910390fd5b6001600160e01b03199190911660009081526020929092526040909120805460ff1916911515919091179055565b6001600160a01b038116610264576040516340b539cf60e01b815260040160405180910390fd5b81546001600160a01b0319166001600160a01b03821690811783556040519081527fdd880d24a789958a6398c99c2e54ce31bc10a638cbc42f7dd34285479ae0f8559060200160405180910390a15050565b6001600160a01b03811681146102cb57600080fd5b50565b600080600080608085870312156102e457600080fd5b84516102ef816102b6565b6020860151909450610300816102b6565b6040860151909350610311816102b6565b6060860151909250610322816102b6565b939692955090935050565b818103818111156100ff57634e487b7160e01b600052601160045260246000fd5b60805160a05160c05161150f6103ae60003960008181610147015261072e01526000818161022f01526106f1015260008181610190015281816101ed01528181610dfc01528181610e8a01528181610f3d0152610f7b015261150f6000f3fe608060405234801561001057600080fd5b50600436106101005760003560e01c80636b8f9c4311610097578063d1a91ff211610066578063d1a91ff214610297578063d6a3138b1461029f578063dc45def6146102bf578063f2fde38b1461030957600080fd5b80636b8f9c43146102515780638488bb4e146102645780638da5cb5b1461026c578063cc3c0f061461027457600080fd5b806331e66e1e116100d357806331e66e1e146101b4578063563cac28146101ca578063572b6c05146101dd578063592c75b81461022a57600080fd5b806301ffc9a7146101055780630328a8fc1461012d57806314ae36ae146101425780632b4c9f161461018e575b600080fd5b61011861011336600461111b565b61031c565b60405190151581526020015b60405180910390f35b61014061013b36600461115d565b610336565b005b6101697f000000000000000000000000000000000000000000000000000000000000000081565b60405173ffffffffffffffffffffffffffffffffffffffff9091168152602001610124565b7f0000000000000000000000000000000000000000000000000000000000000000610169565b6101bc6104a7565b60405161012492919061118f565b6101406101d83660046111fe565b6104ba565b6101186101eb366004611299565b7f000000000000000000000000000000000000000000000000000000000000000073ffffffffffffffffffffffffffffffffffffffff90811691161490565b6101697f000000000000000000000000000000000000000000000000000000000000000081565b61014061025f366004611299565b6108ab565b6101696108cb565b6101696108dd565b6101186102823660046112b6565b60016020526000908152604090205460ff1681565b6101696108ea565b6102b26102ad3660046112cf565b6108f4565b6040516101249190611336565b6102ee6102cd3660046112b6565b60006020819052908152604090208054600182015460029092015490919083565b60408051938452602084019290925290820152606001610124565b610140610317366004611299565b61096a565b60006103308261032a610985565b906109b3565b92915050565b61034f610341610a8d565b610349610a97565b90610ac5565b82610386576040517f9dd854d300000000000000000000000000000000000000000000000000000000815260040160405180910390fd5b80821015806103955750428111155b156103e1576040517f790c7cef00000000000000000000000000000000000000000000000000000000815260048101839052602481018290524260448201526064015b60405180910390fd5b6000848152602081905260409020541561042a576040517fed10979d000000000000000000000000000000000000000000000000000000008152600481018590526024016103d8565b604080516060810182528481526020808201858152828401858152600089815292839052918490209251835551600183015551600290910155518190849086907f97df4a2fb6656595bc6eb616c2068e9d50031428ef69d8849590bc9f3dec620b906104999087815260200190565b60405180910390a450505050565b3660006104b2610b34565b915091509091565b604080516020808201889052606087901b7fffffffffffffffffffffffffffffffffffffffff0000000000000000000000001682840152605480830187905283518084039091018152607490920183528151918101919091206000888152918290529181209061052a8284610b3f565b9050600181600381111561054057610540611307565b0361057a576040517f84f229dc000000000000000000000000000000000000000000000000000000008152600481018990526024016103d8565b600281600381111561058e5761058e611307565b036105ce576040517fdbeb4f4d000000000000000000000000000000000000000000000000000000008152600481018990524260248201526044016103d8565b60038160038111156105e2576105e2611307565b03610623576040517fdc20789f00000000000000000000000000000000000000000000000000000000815260048101899052602481018490526044016103d8565b815461063186868387610b9a565b61068d576040517fcc55900d000000000000000000000000000000000000000000000000000000008152600481018a905273ffffffffffffffffffffffffffffffffffffffff89166024820152604481018890526064016103d8565b6000848152600160208190526040822080547fffffffffffffffffffffffffffffffffffffffffffffffffffffffffffffff001690911790556106eb6106d1610bb2565b5473ffffffffffffffffffffffffffffffffffffffff1690565b905060007f000000000000000000000000000000000000000000000000000000000000000073ffffffffffffffffffffffffffffffffffffffff1663b88d4fde837f00000000000000000000000000000000000000000000000000000000000000008c8e60405160200161077b919073ffffffffffffffffffffffffffffffffffffffff91909116815260200190565b6040516020818303038152906040526040518563ffffffff1660e01b81526004016107a99493929190611377565b6020604051808303816000875af11580156107c8573d6000803e3d6000fd5b505050506040513d601f19601f820116820180604052508101906107ec9190611424565b90508061084c576040517fbf182be800000000000000000000000000000000000000000000000000000000815273ffffffffffffffffffffffffffffffffffffffff80841660048301528b166024820152604481018a90526064016103d8565b8973ffffffffffffffffffffffffffffffffffffffff16838c7f06da15703c9baa6922f6a2f40fe90a03f70a24b9113edd75f913454a45d996cd8c60405161089691815260200190565b60405180910390a45050505050505050505050565b6108b6610341610a8d565b6108c8816108c2610bb2565b90610be0565b50565b60006108d86106d1610bb2565b905090565b60006108d86106d1610a97565b60006108d8610a8d565b60008381526020818152604080832081519283018790527fffffffffffffffffffffffffffffffffffffffff000000000000000000000000606087901b1691830191909152605482018490526109629160740160405160208183030381529060405280519060200120610b3f565b949350505050565b6108c8610975610a8d565b8261097e610a97565b9190610ca4565b60008061033060017fca9d3e17f264b0f3984e2634e94adb37fa3e6a8103f06aeae6fa59e21c769f5e611446565b60007c01000000000000000000000000000000000000000000000000000000007fffffffff00000000000000000000000000000000000000000000000000000000831601610a0357506000610330565b7ffe003659000000000000000000000000000000000000000000000000000000007fffffffff00000000000000000000000000000000000000000000000000000000831601610a5457506001610330565b507fffffffff00000000000000000000000000000000000000000000000000000000166000908152602091909152604090205460ff1690565b60006108d8610db9565b60008061033060017fc9ed16f33ab3a66c84bfd83099ccb2a8845871e2e1c1928f63797152f0fd54cd611446565b815473ffffffffffffffffffffffffffffffffffffffff828116911614610b30576040517f2ef4875e00000000000000000000000000000000000000000000000000000000815273ffffffffffffffffffffffffffffffffffffffff821660048201526024016103d8565b5050565b3660006104b2610f06565b8154600090610b5057506001610330565b8260010154421080610b655750826002015442115b15610b7257506002610330565b60008281526001602052604090205460ff1615610b9157506003610330565b50600092915050565b600082610ba8868685611076565b1495945050505050565b60008061033060017f4fb5f8cdfbce77f22b0931a39e9f476a60a0f66524b2f379e96485471eb700ae611446565b73ffffffffffffffffffffffffffffffffffffffff8116610c2d576040517f40b539cf00000000000000000000000000000000000000000000000000000000815260040160405180910390fd5b81547fffffffffffffffffffffffff00000000000000000000000000000000000000001673ffffffffffffffffffffffffffffffffffffffff821690811783556040519081527fdd880d24a789958a6398c99c2e54ce31bc10a638cbc42f7dd34285479ae0f8559060200160405180910390a15050565b825473ffffffffffffffffffffffffffffffffffffffff9081169083168114610d11576040517f2ef4875e00000000000000000000000000000000000000000000000000000000815273ffffffffffffffffffffffffffffffffffffffff841660048201526024016103d8565b8173ffffffffffffffffffffffffffffffffffffffff168173ffffffffffffffffffffffffffffffffffffffff1614610db35783547fffffffffffffffffffffffff00000000000000000000000000000000000000001673ffffffffffffffffffffffffffffffffffffffff8381169182178655604051908316907f8be0079c531659141344cd1fd0a4f28419497f9722a3daafe3b4186f6b6457e090600090a35b50505050565b600033321480610dc95750601836105b15610dd357503390565b7fffffffffffffffffffffffffffffffffffffffffffffffffffffffffffffffec36013560601c7f000000000000000000000000000000000000000000000000000000000000000073ffffffffffffffffffffffffffffffffffffffff16331480610ef557506040517f019a202800000000000000000000000000000000000000000000000000000000815273ffffffffffffffffffffffffffffffffffffffff82811660048301523360248301523060448301527f0000000000000000000000000000000000000000000000000000000000000000169063019a202890606401602060405180830381865afa158015610ed1573d6000803e3d6000fd5b505050506040513d601f19601f82011682018060405250810190610ef59190611424565b15610eff57919050565b3391505090565b36600033321480610f175750601836105b15610f255750600091369150565b3373ffffffffffffffffffffffffffffffffffffffff7f0000000000000000000000000000000000000000000000000000000000000000161480611060575073ffffffffffffffffffffffffffffffffffffffff7f00000000000000000000000000000000000000000000000000000000000000001663019a2028367fffffffffffffffffffffffffffffffffffffffffffffffffffffffffffffffec013560601c6040517fffffffff0000000000000000000000000000000000000000000000000000000060e084901b16815273ffffffffffffffffffffffffffffffffffffffff9091166004820152336024820152306044820152606401602060405180830381865afa15801561103c573d6000803e3d6000fd5b505050506040513d601f19601f820116820180604052508101906110609190611424565b1561106d576104b26110b8565b50600091369150565b600081815b848110156110af576110a58287878481811061109957611099611480565b905060200201356110e9565b915060010161107b565b50949350505050565b3660006104b27fffffffffffffffffffffffffffffffffffffffffffffffffffffffffffffffec83018284816114af565b6000818310611105576000828152602084905260409020611114565b60008381526020839052604090205b9392505050565b60006020828403121561112d57600080fd5b81357fffffffff000000000000000000000000000000000000000000000000000000008116811461111457600080fd5b6000806000806080858703121561117357600080fd5b5050823594602084013594506040840135936060013592509050565b60208152816020820152818360408301376000818301604090810191909152601f9092017fffffffffffffffffffffffffffffffffffffffffffffffffffffffffffffffe0160101919050565b73ffffffffffffffffffffffffffffffffffffffff811681146108c857600080fd5b60008060008060006080868803121561121657600080fd5b853594506020860135611228816111dc565b935060408601359250606086013567ffffffffffffffff81111561124b57600080fd5b8601601f8101881361125c57600080fd5b803567ffffffffffffffff81111561127357600080fd5b8860208260051b840101111561128857600080fd5b959894975092955050506020019190565b6000602082840312156112ab57600080fd5b8135611114816111dc565b6000602082840312156112c857600080fd5b5035919050565b6000806000606084860312156112e457600080fd5b8335925060208401356112f6816111dc565b929592945050506040919091013590565b7f4e487b7100000000000000000000000000000000000000000000000000000000600052602160045260246000fd5b6020810160048310611371577f4e487b7100000000000000000000000000000000000000000000000000000000600052602160045260246000fd5b91905290565b73ffffffffffffffffffffffffffffffffffffffff8516815273ffffffffffffffffffffffffffffffffffffffff84166020820152826040820152608060608201526000825180608084015260005b818110156113e357602081860181015160a08684010152016113c6565b50600060a0828501015260a07fffffffffffffffffffffffffffffffffffffffffffffffffffffffffffffffe0601f83011684010191505095945050505050565b60006020828403121561143657600080fd5b8151801515811461111457600080fd5b81810381811115610330577f4e487b7100000000000000000000000000000000000000000000000000000000600052601160045260246000fd5b7f4e487b7100000000000000000000000000000000000000000000000000000000600052603260045260246000fd5b600080858511156114bf57600080fd5b838611156114cc57600080fd5b505082019391909203915056fea2646970667358221220f17df3442fa8a25c4c67bd6cbad04a391ea1bfc6e6dc8fc87522f6067ccc1b0764736f6c634300081c0033",
  "linkReferences": {},
  "deployedLinkReferences": {}
}