{
  "_format": "hh-sol-artifact-1",
  "contractName": "CheckmateClaimWindowMerkleClaimMock",
  "sourceName": "contracts/mocks/merkleClaim/CheckmateClaimWindowMerkleClaimMock.sol",
  "abi": [
    {
      "inputs": [
        {
          "internalType": "address",
          "name": "checkmateToken_",
          "type": "address"
        },
        {
          "internalType": "address",
          "name": "stakingPool_",
          "type": "address"
        },
        {
          "internalType": "address",
          "name": "payoutWallet_",
          "type": "address"
        },
        {
          "internalType": "contract IForwarderRegistry",
          "name": "forwarderRegistry_",
          "type": "address"
        }
      ],
      "stateMutability": "nonpayable",
      "type": "constructor"
    },
    {
      "inputs": [
        {
          "internalType": "bytes32",
          "name": "epochId",
          "type": "bytes32"
        },
        {
          "internalType": "bytes32",
          "name": "leaf",
          "type": "bytes32"
        }
      ],
      "name": "AlreadyClaimed",
      "type": "error"
    },
    {
      "inputs": [
        {
          "internalType": "bytes32",
          "name": "epochId",
          "type": "bytes32"
        }
      ],
      "name": "EpochIdAlreadyExists",
      "type": "error"
    },
    {
      "inputs": [
        {
          "internalType": "bytes32",
          "name": "epochId",
          "type": "bytes32"
        }
      ],
      "name": "EpochIdNotExists",
      "type": "error"
    },
    {
      "inputs": [],
      "name": "IllegalInterfaceId",
      "type": "error"
    },
    {
      "inputs": [],
      "name": "InvalidCheckmateToken",
      "type": "error"
    },
    {
      "inputs": [
        {
          "internalType": "uint256",
          "name": "startTime",
          "type": "uint256"
        },
        {
          "internalType": "uint256",
          "name": "endTime",
          "type": "uint256"
        },
        {
          "internalType": "uint256",
          "name": "currentTime",
          "type": "uint256"
        }
      ],
      "name": "InvalidClaimWindow",
      "type": "error"
    },
    {
      "inputs": [],
      "name": "InvalidMerkleRoot",
      "type": "error"
    },
    {
      "inputs": [],
      "name": "InvalidPayoutWallet",
      "type": "error"
    },
    {
      "inputs": [
        {
          "internalType": "bytes32",
          "name": "epochId",
          "type": "bytes32"
        },
        {
          "internalType": "address",
          "name": "recipient",
          "type": "address"
        },
        {
          "internalType": "uint256",
          "name": "amount",
          "type": "uint256"
        }
      ],
      "name": "InvalidProof",
      "type": "error"
    },
    {
      "inputs": [],
      "name": "InvalidStakingPool",
      "type": "error"
    },
    {
      "inputs": [
        {
          "internalType": "address",
          "name": "account",
          "type": "address"
        }
      ],
      "name": "NotContractOwner",
      "type": "error"
    },
    {
      "inputs": [
        {
          "internalType": "bytes32",
          "name": "epochId",
          "type": "bytes32"
        },
        {
          "internalType": "uint256",
          "name": "currentTime",
          "type": "uint256"
        }
      ],
      "name": "OutOfClaimWindow",
      "type": "error"
    },
    {
      "inputs": [
        {
          "internalType": "address",
          "name": "payoutWallet",
          "type": "address"
        },
        {
          "internalType": "address",
          "name": "recipient",
          "type": "address"
        },
        {
          "internalType": "uint256",
          "name": "amount",
          "type": "uint256"
        }
      ],
      "name": "TransferFailed",
      "type": "error"
    },
    {
      "anonymous": false,
      "inputs": [
        {
          "indexed": true,
          "internalType": "bytes32",
          "name": "epochId",
          "type": "bytes32"
        },
        {
          "indexed": true,
          "internalType": "bytes32",
          "name": "merkleRoot",
          "type": "bytes32"
        },
        {
          "indexed": false,
          "internalType": "uint256",
          "name": "startTime",
          "type": "uint256"
        },
        {
          "indexed": true,
          "internalType": "uint256",
          "name": "endTime",
          "type": "uint256"
        }
      ],
      "name": "EpochMerkleRootSet",
      "type": "event"
    },
    {
      "anonymous": false,
      "inputs": [
        {
          "indexed": true,
          "internalType": "address",
          "name": "previousOwner",
          "type": "address"
        },
        {
          "indexed": true,
          "internalType": "address",
          "name": "newOwner",
          "type": "address"
        }
      ],
      "name": "OwnershipTransferred",
      "type": "event"
    },
    {
      "anonymous": false,
      "inputs": [
        {
          "indexed": true,
          "internalType": "bytes32",
          "name": "epochId",
          "type": "bytes32"
        },
        {
          "indexed": true,
          "internalType": "address",
          "name": "recipient",
          "type": "address"
        },
        {
          "indexed": true,
          "internalType": "uint256",
          "name": "amount",
          "type": "uint256"
        }
      ],
      "name": "PayoutClaimed",
      "type": "event"
    },
    {
      "anonymous": false,
      "inputs": [
        {
          "indexed": true,
          "internalType": "address",
          "name": "newPayoutWallet",
          "type": "address"
        }
      ],
      "name": "PayoutWalletSet",
      "type": "event"
    },
    {
      "inputs": [],
      "name": "CHECKMATE_TOKEN",
      "outputs": [
        {
          "internalType": "contract IERC20SafeTransfers",
          "name": "",
          "type": "address"
        }
      ],
      "stateMutability": "view",
      "type": "function"
    },
    {
      "inputs": [],
      "name": "STAKING_POOL",
      "outputs": [
        {
          "internalType": "address",
          "name": "",
          "type": "address"
        }
      ],
      "stateMutability": "view",
      "type": "function"
    },
    {
      "inputs": [],
      "name": "__msgData",
      "outputs": [
        {
          "internalType": "bytes",
          "name": "",
          "type": "bytes"
        }
      ],
      "stateMutability": "view",
      "type": "function"
    },
    {
      "inputs": [],
      "name": "__msgSender",
      "outputs": [
        {
          "internalType": "address",
          "name": "",
          "type": "address"
        }
      ],
      "stateMutability": "view",
      "type": "function"
    },
    {
      "inputs": [
        {
          "internalType": "bytes32",
          "name": "epochId",
          "type": "bytes32"
        },
        {
          "internalType": "address",
          "name": "recipient",
          "type": "address"
        },
        {
          "internalType": "uint256",
          "name": "amount",
          "type": "uint256"
        }
      ],
      "name": "canClaim",
      "outputs": [
        {
          "internalType": "enum CheckmateClaimWindowMerkleClaim.ClaimError",
          "name": "",
          "type": "uint8"
        }
      ],
      "stateMutability": "view",
      "type": "function"
    },
    {
      "inputs": [
        {
          "internalType": "bytes32",
          "name": "epochId",
          "type": "bytes32"
        },
        {
          "internalType": "address",
          "name": "recipient",
          "type": "address"
        },
        {
          "internalType": "uint256",
          "name": "amount",
          "type": "uint256"
        },
        {
          "internalType": "bytes32[]",
          "name": "proof",
          "type": "bytes32[]"
        }
      ],
      "name": "claimAndStake",
      "outputs": [],
      "stateMutability": "nonpayable",
      "type": "function"
    },
    {
      "inputs": [
        {
          "internalType": "bytes32",
          "name": "epochId",
          "type": "bytes32"
        }
      ],
      "name": "claimWindows",
      "outputs": [
        {
          "internalType": "bytes32",
          "name": "merkleRoot",
          "type": "bytes32"
        },
        {
          "internalType": "uint256",
          "name": "startTime",
          "type": "uint256"
        },
        {
          "internalType": "uint256",
          "name": "endTime",
          "type": "uint256"
        }
      ],
      "stateMutability": "view",
      "type": "function"
    },
    {
      "inputs": [
        {
          "internalType": "bytes32",
          "name": "leaf",
          "type": "bytes32"
        }
      ],
      "name": "claimed",
      "outputs": [
        {
          "internalType": "bool",
          "name": "claimed",
          "type": "bool"
        }
      ],
      "stateMutability": "view",
      "type": "function"
    },
    {
      "inputs": [],
      "name": "forwarderRegistry",
      "outputs": [
        {
          "internalType": "contract IForwarderRegistry",
          "name": "",
          "type": "address"
        }
      ],
      "stateMutability": "view",
      "type": "function"
    },
    {
      "inputs": [
        {
          "internalType": "address",
          "name": "forwarder",
          "type": "address"
        }
      ],
      "name": "isTrustedForwarder",
      "outputs": [
        {
          "internalType": "bool",
          "name": "",
          "type": "bool"
        }
      ],
      "stateMutability": "view",
      "type": "function"
    },
    {
      "inputs": [],
      "name": "owner",
      "outputs": [
        {
          "internalType": "address",
          "name": "",
          "type": "address"
        }
      ],
      "stateMutability": "view",
      "type": "function"
    },
    {
      "inputs": [],
      "name": "payoutWallet",
      "outputs": [
        {
          "internalType": "address",
          "name": "",
          "type": "address"
        }
      ],
      "stateMutability": "view",
      "type": "function"
    },
    {
      "inputs": [
        {
          "internalType": "bytes32",
          "name": "epochId",
          "type": "bytes32"
        },
        {
          "internalType": "bytes32",
          "name": "merkleRoot",
          "type": "bytes32"
        },
        {
          "internalType": "uint256",
          "name": "startTime",
          "type": "uint256"
        },
        {
          "internalType": "uint256",
          "name": "endTime",
          "type": "uint256"
        }
      ],
      "name": "setEpochMerkleRoot",
      "outputs": [],
      "stateMutability": "nonpayable",
      "type": "function"
    },
    {
      "inputs": [
        {
          "internalType": "address",
          "name": "newPayoutWallet",
          "type": "address"
        }
      ],
      "name": "setPayoutWallet",
      "outputs": [],
      "stateMutability": "nonpayable",
      "type": "function"
    },
    {
      "inputs": [
        {
          "internalType": "bytes4",
          "name": "interfaceId",
          "type": "bytes4"
        }
      ],
      "name": "supportsInterface",
      "outputs": [
        {
          "internalType": "bool",
          "name": "",
          "type": "bool"
        }
      ],
      "stateMutability": "view",
      "type": "function"
    },
    {
      "inputs": [
        {
          "internalType": "address",
          "name": "newOwner",
          "type": "address"
        }
      ],
      "name": "transferOwnership",
      "outputs": [],
      "stateMutability": "nonpayable",
      "type": "function"
    }
  ],
  "bytecode": "0x60e060405234801561001057600080fd5b5060405161179638038061179683398101604081905261002f91610249565b6001600160a01b03811660805283838383336100538161004d6100fd565b90610131565b506001600160a01b03841661007b57604051630338889560e21b815260040160405180910390fd5b6001600160a01b0383166100a257604051633b106f8560e01b815260040160405180910390fd5b6001600160a01b0382166100c95760405163620e5f7160e11b815260040160405180910390fd5b506001600160a01b0392831660a05290821660c052600080546001600160a01b03191691909216179055506102c992505050565b60008061012b60017fc9ed16f33ab3a66c84bfd83099ccb2a8845871e2e1c1928f63797152f0fd54cd6102a8565b92915050565b6001600160a01b038116156101875781546001600160a01b0319166001600160a01b03821690811783556040516000907f8be0079c531659141344cd1fd0a4f28419497f9722a3daafe3b4186f6b6457e0908290a35b6101a36307f5828d60e41b600161019c6101a7565b91906101d5565b5050565b60008061012b60017fca9d3e17f264b0f3984e2634e94adb37fa3e6a8103f06aeae6fa59e21c769f5e6102a8565b600160e01b6001600160e01b0319831601610203576040516372c683bb60e01b815260040160405180910390fd5b6001600160e01b03199190911660009081526020929092526040909120805460ff1916911515919091179055565b6001600160a01b038116811461024657600080fd5b50565b6000806000806080858703121561025f57600080fd5b845161026a81610231565b602086015190945061027b81610231565b604086015190935061028c81610231565b606086015190925061029d81610231565b939692955090935050565b8181038181111561012b57634e487b7160e01b600052601160045260246000fd5b60805160a05160c05161146d61032960003960008181610147015261077201526000818161022f0152610741015260008181610190015281816101ed01528181610d5901528181610de701528181610e9a0152610ed8015261146d6000f3fe608060405234801561001057600080fd5b50600436106101005760003560e01c80636b8f9c4311610097578063d1a91ff211610066578063d1a91ff2146102af578063d6a3138b146102b7578063dc45def6146102d7578063f2fde38b1461032057600080fd5b80636b8f9c43146102515780638488bb4e146102645780638da5cb5b14610284578063cc3c0f061461028c57600080fd5b806331e66e1e116100d357806331e66e1e146101b4578063563cac28146101ca578063572b6c05146101dd578063592c75b81461022a57600080fd5b806301ffc9a7146101055780630328a8fc1461012d57806314ae36ae146101425780632b4c9f161461018e575b600080fd5b610118610113366004611078565b610333565b60405190151581526020015b60405180910390f35b61014061013b3660046110ba565b61034d565b005b6101697f000000000000000000000000000000000000000000000000000000000000000081565b60405173ffffffffffffffffffffffffffffffffffffffff9091168152602001610124565b7f0000000000000000000000000000000000000000000000000000000000000000610169565b6101bc6104c2565b6040516101249291906110ec565b6101406101d8366004611162565b6104d5565b6101186101eb3660046111fb565b7f000000000000000000000000000000000000000000000000000000000000000073ffffffffffffffffffffffffffffffffffffffff90811691161490565b6101697f000000000000000000000000000000000000000000000000000000000000000081565b61014061025f3660046111fb565b610890565b6000546101699073ffffffffffffffffffffffffffffffffffffffff1681565b610169610908565b61011861029a366004611216565b60026020526000908152604090205460ff1681565b610169610934565b6102ca6102c536600461122f565b61093e565b6040516101249190611294565b6103056102e5366004611216565b600160208190526000918252604090912080549181015460029091015483565b60408051938452602084019290925290820152606001610124565b61014061032e3660046111fb565b6109b6565b6000610347826103416109d4565b90610a02565b92915050565b610366610358610adc565b610360610ae6565b90610b14565b8261039d576040517f9dd854d300000000000000000000000000000000000000000000000000000000815260040160405180910390fd5b80821015806103ac5750428111155b156103f8576040517f790c7cef00000000000000000000000000000000000000000000000000000000815260048101839052602481018290524260448201526064015b60405180910390fd5b60008481526001602052604090205415610441576040517fed10979d000000000000000000000000000000000000000000000000000000008152600481018590526024016103ef565b60408051606081018252848152602080820185815282840185815260008981526001938490528590209351845590519183019190915551600290910155518190849086907f97df4a2fb6656595bc6eb616c2068e9d50031428ef69d8849590bc9f3dec620b906104b49087815260200190565b60405180910390a450505050565b3660006104cd610b83565b915091509091565b604080516020808201889052606087901b7fffffffffffffffffffffffffffffffffffffffff00000000000000000000000016828401526054808301879052835180840390910181526074909201835281519181019190912060008881526001909252918120906105468284610b8e565b9050600181600381111561055c5761055c611265565b03610596576040517f84f229dc000000000000000000000000000000000000000000000000000000008152600481018990526024016103ef565b60028160038111156105aa576105aa611265565b036105ea576040517fdbeb4f4d000000000000000000000000000000000000000000000000000000008152600481018990524260248201526044016103ef565b60038160038111156105fe576105fe611265565b0361063f576040517fdc20789f00000000000000000000000000000000000000000000000000000000815260048101899052602481018490526044016103ef565b815461064f908690869086610be9565b6106ab576040517fcc55900d0000000000000000000000000000000000000000000000000000000081526004810189905273ffffffffffffffffffffffffffffffffffffffff88166024820152604481018790526064016103ef565b600083815260026020908152604080832080547fffffffffffffffffffffffffffffffffffffffffffffffffffffffffffffff001660011790558254815173ffffffffffffffffffffffffffffffffffffffff8c81168286015283518083039095018552818401938490527fb88d4fde0000000000000000000000000000000000000000000000000000000090935290821693927f00000000000000000000000000000000000000000000000000000000000000009092169163b88d4fde9161079c9186917f0000000000000000000000000000000000000000000000000000000000000000918e916044016112d5565b6020604051808303816000875af11580156107bb573d6000803e3d6000fd5b505050506040513d601f19601f820116820180604052508101906107df9190611382565b90508061083f576040517fbf182be800000000000000000000000000000000000000000000000000000000815273ffffffffffffffffffffffffffffffffffffffff80841660048301528a166024820152604481018990526064016103ef565b878973ffffffffffffffffffffffffffffffffffffffff168b7f038b0cdf6318f158304d2b2f11b821333b4e69a21d83e945b6a741e1bbfc234b60405160405180910390a450505050505050505050565b61089b610358610adc565b600080547fffffffffffffffffffffffff00000000000000000000000000000000000000001673ffffffffffffffffffffffffffffffffffffffff8316908117825560405190917fdd880d24a789958a6398c99c2e54ce31bc10a638cbc42f7dd34285479ae0f85591a250565b600061092f610915610ae6565b5473ffffffffffffffffffffffffffffffffffffffff1690565b905090565b600061092f610adc565b600083815260016020908152604080832081519283018790527fffffffffffffffffffffffffffffffffffffffff000000000000000000000000606087901b1691830191909152605482018490526109ae9160740160405160208183030381529060405280519060200120610b8e565b949350505050565b6109d16109c1610adc565b826109ca610ae6565b9190610c01565b50565b60008061034760017fca9d3e17f264b0f3984e2634e94adb37fa3e6a8103f06aeae6fa59e21c769f5e6113a4565b60007c01000000000000000000000000000000000000000000000000000000007fffffffff00000000000000000000000000000000000000000000000000000000831601610a5257506000610347565b7ffe003659000000000000000000000000000000000000000000000000000000007fffffffff00000000000000000000000000000000000000000000000000000000831601610aa357506001610347565b507fffffffff00000000000000000000000000000000000000000000000000000000166000908152602091909152604090205460ff1690565b600061092f610d16565b60008061034760017fc9ed16f33ab3a66c84bfd83099ccb2a8845871e2e1c1928f63797152f0fd54cd6113a4565b815473ffffffffffffffffffffffffffffffffffffffff828116911614610b7f576040517f2ef4875e00000000000000000000000000000000000000000000000000000000815273ffffffffffffffffffffffffffffffffffffffff821660048201526024016103ef565b5050565b3660006104cd610e63565b8154600090610b9f57506001610347565b8260010154421080610bb45750826002015442115b15610bc157506002610347565b60008281526002602052604090205460ff1615610be057506003610347565b50600092915050565b600082610bf7868685610fd3565b1495945050505050565b825473ffffffffffffffffffffffffffffffffffffffff9081169083168114610c6e576040517f2ef4875e00000000000000000000000000000000000000000000000000000000815273ffffffffffffffffffffffffffffffffffffffff841660048201526024016103ef565b8173ffffffffffffffffffffffffffffffffffffffff168173ffffffffffffffffffffffffffffffffffffffff1614610d105783547fffffffffffffffffffffffff00000000000000000000000000000000000000001673ffffffffffffffffffffffffffffffffffffffff8381169182178655604051908316907f8be0079c531659141344cd1fd0a4f28419497f9722a3daafe3b4186f6b6457e090600090a35b50505050565b600033321480610d265750601836105b15610d3057503390565b7fffffffffffffffffffffffffffffffffffffffffffffffffffffffffffffffec36013560601c7f000000000000000000000000000000000000000000000000000000000000000073ffffffffffffffffffffffffffffffffffffffff16331480610e5257506040517f019a202800000000000000000000000000000000000000000000000000000000815273ffffffffffffffffffffffffffffffffffffffff82811660048301523360248301523060448301527f0000000000000000000000000000000000000000000000000000000000000000169063019a202890606401602060405180830381865afa158015610e2e573d6000803e3d6000fd5b505050506040513d601f19601f82011682018060405250810190610e529190611382565b15610e5c57919050565b3391505090565b36600033321480610e745750601836105b15610e825750600091369150565b3373ffffffffffffffffffffffffffffffffffffffff7f0000000000000000000000000000000000000000000000000000000000000000161480610fbd575073ffffffffffffffffffffffffffffffffffffffff7f00000000000000000000000000000000000000000000000000000000000000001663019a2028367fffffffffffffffffffffffffffffffffffffffffffffffffffffffffffffffec013560601c6040517fffffffff0000000000000000000000000000000000000000000000000000000060e084901b16815273ffffffffffffffffffffffffffffffffffffffff9091166004820152336024820152306044820152606401602060405180830381865afa158015610f99573d6000803e3d6000fd5b505050506040513d601f19601f82011682018060405250810190610fbd9190611382565b15610fca576104cd611015565b50600091369150565b600081815b8481101561100c5761100282878784818110610ff657610ff66113de565b90506020020135611046565b9150600101610fd8565b50949350505050565b3660006104cd7fffffffffffffffffffffffffffffffffffffffffffffffffffffffffffffffec830182848161140d565b6000818310611062576000828152602084905260409020611071565b60008381526020839052604090205b9392505050565b60006020828403121561108a57600080fd5b81357fffffffff000000000000000000000000000000000000000000000000000000008116811461107157600080fd5b600080600080608085870312156110d057600080fd5b5050823594602084013594506040840135936060013592509050565b60208152816020820152818360408301376000818301604090810191909152601f9092017fffffffffffffffffffffffffffffffffffffffffffffffffffffffffffffffe0160101919050565b803573ffffffffffffffffffffffffffffffffffffffff8116811461115d57600080fd5b919050565b60008060008060006080868803121561117a57600080fd5b8535945061118a60208701611139565b935060408601359250606086013567ffffffffffffffff8111156111ad57600080fd5b8601601f810188136111be57600080fd5b803567ffffffffffffffff8111156111d557600080fd5b8860208260051b84010111156111ea57600080fd5b959894975092955050506020019190565b60006020828403121561120d57600080fd5b61107182611139565b60006020828403121561122857600080fd5b5035919050565b60008060006060848603121561124457600080fd5b8335925061125460208501611139565b929592945050506040919091013590565b7f4e487b7100000000000000000000000000000000000000000000000000000000600052602160045260246000fd5b60208101600483106112cf577f4e487b7100000000000000000000000000000000000000000000000000000000600052602160045260246000fd5b91905290565b73ffffffffffffffffffffffffffffffffffffffff8516815273ffffffffffffffffffffffffffffffffffffffff84166020820152826040820152608060608201526000825180608084015260005b8181101561134157602081860181015160a0868401015201611324565b50600060a0828501015260a07fffffffffffffffffffffffffffffffffffffffffffffffffffffffffffffffe0601f83011684010191505095945050505050565b60006020828403121561139457600080fd5b8151801515811461107157600080fd5b81810381811115610347577f4e487b7100000000000000000000000000000000000000000000000000000000600052601160045260246000fd5b7f4e487b7100000000000000000000000000000000000000000000000000000000600052603260045260246000fd5b6000808585111561141d57600080fd5b8386111561142a57600080fd5b505082019391909203915056fea264697066735822122095cc30d3bc22c01b3e61e2bbe79b527fc370626bd91bdb86b6846ecfa17eae4a64736f6c634300081c0033",
  "linkReferences": {},
  "deployedLinkReferences": {}
}