{
  "_format": "hh-sol-artifact-1",
  "contractName": "AnichessMultiplier",
  "sourceName": "contracts/merkleClaim/AnichessMultiplier.sol",
  "abi": [
    {
      "inputs": [
        {
          "internalType": "contract IForwarderRegistry",
          "name": "forwarderRegistry",
          "type": "address"
        }
      ],
      "stateMutability": "nonpayable",
      "type": "constructor"
    },
    {
      "inputs": [
        {
          "internalType": "address",
          "name": "recipient",
          "type": "address"
        },
        {
          "internalType": "uint256",
          "name": "batchId",
          "type": "uint256"
        }
      ],
      "name": "AlreadyClaimed",
      "type": "error"
    },
    {
      "inputs": [],
      "name": "IllegalInterfaceId",
      "type": "error"
    },
    {
      "inputs": [],
      "name": "InconsistentArrays",
      "type": "error"
    },
    {
      "inputs": [
        {
          "internalType": "bytes32",
          "name": "merkleRoot",
          "type": "bytes32"
        }
      ],
      "name": "InvalidMerkleRoot",
      "type": "error"
    },
    {
      "inputs": [
        {
          "internalType": "uint256",
          "name": "multiplier",
          "type": "uint256"
        }
      ],
      "name": "InvalidMultiplier",
      "type": "error"
    },
    {
      "inputs": [
        {
          "internalType": "address",
          "name": "recipient",
          "type": "address"
        },
        {
          "internalType": "uint256",
          "name": "batchId",
          "type": "uint256"
        }
      ],
      "name": "InvalidProof",
      "type": "error"
    },
    {
      "inputs": [
        {
          "internalType": "bytes32",
          "name": "merkleRoot",
          "type": "bytes32"
        }
      ],
      "name": "MerkleRootAlreadyExists",
      "type": "error"
    },
    {
      "inputs": [
        {
          "internalType": "address",
          "name": "account",
          "type": "address"
        }
      ],
      "name": "NotContractOwner",
      "type": "error"
    },
    {
      "anonymous": false,
      "inputs": [
        {
          "indexed": true,
          "internalType": "address",
          "name": "recipient",
          "type": "address"
        },
        {
          "indexed": true,
          "internalType": "uint256",
          "name": "batchId",
          "type": "uint256"
        },
        {
          "indexed": false,
          "internalType": "uint256",
          "name": "multiplier",
          "type": "uint256"
        }
      ],
      "name": "Claimed",
      "type": "event"
    },
    {
      "anonymous": false,
      "inputs": [
        {
          "indexed": true,
          "internalType": "address",
          "name": "previousOwner",
          "type": "address"
        },
        {
          "indexed": true,
          "internalType": "address",
          "name": "newOwner",
          "type": "address"
        }
      ],
      "name": "OwnershipTransferred",
      "type": "event"
    },
    {
      "anonymous": false,
      "inputs": [
        {
          "indexed": true,
          "internalType": "bytes32",
          "name": "merkleRoot",
          "type": "bytes32"
        }
      ],
      "name": "SetMerkleRoot",
      "type": "event"
    },
    {
      "inputs": [
        {
          "internalType": "bytes32",
          "name": "merkleRoot",
          "type": "bytes32"
        },
        {
          "internalType": "bytes32[]",
          "name": "proof",
          "type": "bytes32[]"
        },
        {
          "internalType": "address",
          "name": "recipient",
          "type": "address"
        },
        {
          "internalType": "uint256",
          "name": "multiplier",
          "type": "uint256"
        },
        {
          "internalType": "uint256",
          "name": "batchId",
          "type": "uint256"
        }
      ],
      "name": "claim",
      "outputs": [],
      "stateMutability": "nonpayable",
      "type": "function"
    },
    {
      "inputs": [
        {
          "internalType": "bytes32",
          "name": "",
          "type": "bytes32"
        }
      ],
      "name": "claimStatus",
      "outputs": [
        {
          "internalType": "bool",
          "name": "",
          "type": "bool"
        }
      ],
      "stateMutability": "view",
      "type": "function"
    },
    {
      "inputs": [],
      "name": "forwarderRegistry",
      "outputs": [
        {
          "internalType": "contract IForwarderRegistry",
          "name": "",
          "type": "address"
        }
      ],
      "stateMutability": "view",
      "type": "function"
    },
    {
      "inputs": [
        {
          "internalType": "address",
          "name": "wallet",
          "type": "address"
        },
        {
          "internalType": "address[]",
          "name": "tokens",
          "type": "address[]"
        },
        {
          "internalType": "uint256[]",
          "name": "ids",
          "type": "uint256[]"
        }
      ],
      "name": "getMultiplier",
      "outputs": [
        {
          "internalType": "uint256",
          "name": "multiplier",
          "type": "uint256"
        }
      ],
      "stateMutability": "view",
      "type": "function"
    },
    {
      "inputs": [
        {
          "internalType": "address",
          "name": "forwarder",
          "type": "address"
        }
      ],
      "name": "isTrustedForwarder",
      "outputs": [
        {
          "internalType": "bool",
          "name": "",
          "type": "bool"
        }
      ],
      "stateMutability": "view",
      "type": "function"
    },
    {
      "inputs": [
        {
          "internalType": "bytes32",
          "name": "",
          "type": "bytes32"
        }
      ],
      "name": "merkleRoots",
      "outputs": [
        {
          "internalType": "bool",
          "name": "",
          "type": "bool"
        }
      ],
      "stateMutability": "view",
      "type": "function"
    },
    {
      "inputs": [
        {
          "internalType": "address",
          "name": "",
          "type": "address"
        }
      ],
      "name": "multipliers",
      "outputs": [
        {
          "internalType": "uint256",
          "name": "",
          "type": "uint256"
        }
      ],
      "stateMutability": "view",
      "type": "function"
    },
    {
      "inputs": [],
      "name": "owner",
      "outputs": [
        {
          "internalType": "address",
          "name": "",
          "type": "address"
        }
      ],
      "stateMutability": "view",
      "type": "function"
    },
    {
      "inputs": [
        {
          "internalType": "bytes32",
          "name": "merkleRoot",
          "type": "bytes32"
        }
      ],
      "name": "setMerkleRoot",
      "outputs": [],
      "stateMutability": "nonpayable",
      "type": "function"
    },
    {
      "inputs": [
        {
          "internalType": "address[]",
          "name": "tokens",
          "type": "address[]"
        },
        {
          "internalType": "uint256[][]",
          "name": "tokenIds",
          "type": "uint256[][]"
        },
        {
          "internalType": "uint256[][]",
          "name": "_multipliers",
          "type": "uint256[][]"
        }
      ],
      "name": "setTokenMultipliers",
      "outputs": [],
      "stateMutability": "nonpayable",
      "type": "function"
    },
    {
      "inputs": [
        {
          "internalType": "bytes4",
          "name": "interfaceId",
          "type": "bytes4"
        }
      ],
      "name": "supportsInterface",
      "outputs": [
        {
          "internalType": "bool",
          "name": "",
          "type": "bool"
        }
      ],
      "stateMutability": "view",
      "type": "function"
    },
    {
      "inputs": [
        {
          "internalType": "address",
          "name": "",
          "type": "address"
        },
        {
          "internalType": "uint256",
          "name": "",
          "type": "uint256"
        }
      ],
      "name": "tokenMultipliers",
      "outputs": [
        {
          "internalType": "uint256",
          "name": "",
          "type": "uint256"
        }
      ],
      "stateMutability": "view",
      "type": "function"
    },
    {
      "inputs": [
        {
          "internalType": "address",
          "name": "newOwner",
          "type": "address"
        }
      ],
      "name": "transferOwnership",
      "outputs": [],
      "stateMutability": "nonpayable",
      "type": "function"
    }
  ],
  "bytecode": "0x60a06040523480156200001157600080fd5b50604051620015ac380380620015ac83398101604081905262000034916200019e565b6001600160a01b0381166080523362000058816200005162000060565b9062000096565b5050620001f2565b6000806200009060017fc9ed16f33ab3a66c84bfd83099ccb2a8845871e2e1c1928f63797152f0fd54cd620001d0565b92915050565b6001600160a01b03811615620000ed5781546001600160a01b0319166001600160a01b03821690811783556040516000907f8be0079c531659141344cd1fd0a4f28419497f9722a3daafe3b4186f6b6457e0908290a35b6200010d6307f5828d60e41b60016200010562000111565b919062000141565b5050565b6000806200009060017fca9d3e17f264b0f3984e2634e94adb37fa3e6a8103f06aeae6fa59e21c769f5e620001d0565b600160e01b6001600160e01b031983160162000170576040516372c683bb60e01b815260040160405180910390fd5b6001600160e01b03199190911660009081526020929092526040909120805460ff1916911515919091179055565b600060208284031215620001b157600080fd5b81516001600160a01b0381168114620001c957600080fd5b9392505050565b818103818111156200009057634e487b7160e01b600052601160045260246000fd5b608051611389620002236000396000818161010e0152818161017801528181610e580152610ee001526113896000f3fe608060405234801561001057600080fd5b50600436106100df5760003560e01c80638da5cb5b1161008c578063e18ea41811610066578063e18ea4181461023c578063e3a0ce091461024f578063f2fde38b14610272578063fe5a53771461028557600080fd5b80638da5cb5b14610201578063ac524f3d14610209578063cc668cf01461022957600080fd5b8063572b6c05116100bd578063572b6c05146101685780637cb64759146101b5578063851f3bd2146101c857600080fd5b806301ffc9a7146100e45780632b4c9f161461010c5780633ec6004f14610153575b600080fd5b6100f76100f2366004610f88565b6102a8565b60405190151581526020015b60405180910390f35b7f00000000000000000000000000000000000000000000000000000000000000005b60405173ffffffffffffffffffffffffffffffffffffffff9091168152602001610103565b61016661016136600461103f565b6102c2565b005b6100f76101763660046110af565b7f000000000000000000000000000000000000000000000000000000000000000073ffffffffffffffffffffffffffffffffffffffff90811691161490565b6101666101c33660046110ca565b610585565b6101f36101d63660046110e3565b600360209081526000928352604080842090915290825290205481565b604051908152602001610103565b61012e61064e565b6101f36102173660046110af565b60006020819052908152604090205481565b61016661023736600461110d565b61067a565b6101f361024a3660046111a7565b610893565b6100f761025d3660046110ca565b60026020526000908152604090205460ff1681565b6101666102803660046110af565b610a9e565b6100f76102933660046110ca565b60016020526000908152604090205460ff1681565b60006102bc826102b6610abc565b90610aea565b92915050565b60008681526001602052604090205460ff16610312576040517f6d825743000000000000000000000000000000000000000000000000000000008152600481018790526024015b60405180910390fd5b73ffffffffffffffffffffffffffffffffffffffff83166000908152602081905260409020548211610373576040517f9f44c9eb00000000000000000000000000000000000000000000000000000000815260048101839052602401610309565b6040517fffffffffffffffffffffffffffffffffffffffff000000000000000000000000606085901b1660208201526034810183905260548101829052600090607401604080517fffffffffffffffffffffffffffffffffffffffffffffffffffffffffffffffe081840301815291815281516020928301206000818152600290935291205490915060ff1615610455576040517fe64ea1da00000000000000000000000000000000000000000000000000000000815273ffffffffffffffffffffffffffffffffffffffff8516600482015260248101839052604401610309565b6104978782888880806020026020016040519081016040528093929190818152602001838360200280828437600092019190915250929493925050610bc49050565b6104ec576040517fadbd651200000000000000000000000000000000000000000000000000000000815273ffffffffffffffffffffffffffffffffffffffff8516600482015260248101839052604401610309565b73ffffffffffffffffffffffffffffffffffffffff8416600081815260208181526040808320879055848352600282529182902080547fffffffffffffffffffffffffffffffffffffffffffffffffffffffffffffff0016600117905590518581528492917f987d620f307ff6b94d58743cb7a7509f24071586a77759b77c2d4e29f75a2f9a910160405180910390a350505050505050565b61059e610590610bda565b610598610be4565b90610c12565b60008181526001602052604090205460ff16156105ea576040517f5d35de3700000000000000000000000000000000000000000000000000000000815260048101829052602401610309565b600081815260016020819052604080832080547fffffffffffffffffffffffffffffffffffffffffffffffffffffffffffffff00169092179091555182917f914960aef5e033ce5cae8a7992d4b7a6f0f9741227b66acb67c605b7019f8a4691a250565b600061067561065b610be4565b5473ffffffffffffffffffffffffffffffffffffffff1690565b905090565b610685610590610bda565b84831415806106945750848114155b156106cb576040517f35e83ac300000000000000000000000000000000000000000000000000000000815260040160405180910390fd5b60005b8581101561088a578282828181106106e8576106e8611228565b90506020028101906106fa9190611257565b905085858381811061070e5761070e611228565b90506020028101906107209190611257565b905014610759576040517f35e83ac300000000000000000000000000000000000000000000000000000000815260040160405180910390fd5b60005b85858381811061076e5761076e611228565b90506020028101906107809190611257565b90508110156108815783838381811061079b5761079b611228565b90506020028101906107ad9190611257565b828181106107bd576107bd611228565b90506020020135600360008a8a868181106107da576107da611228565b90506020020160208101906107ef91906110af565b73ffffffffffffffffffffffffffffffffffffffff1673ffffffffffffffffffffffffffffffffffffffff168152602001908152602001600020600088888681811061083d5761083d611228565b905060200281019061084f9190611257565b8581811061085f5761085f611228565b602090810292909201358352508101919091526040016000205560010161075c565b506001016106ce565b50505050505050565b600061089e86610c81565b90508382146108d9576040517f35e83ac300000000000000000000000000000000000000000000000000000000815260040160405180910390fd5b60005b84811015610a945760005b83811015610a8b57600087878481811061090357610903611228565b905060200201602081019061091891906110af565b73ffffffffffffffffffffffffffffffffffffffff1662fdd58e8a88888681811061094557610945611228565b6040517fffffffff0000000000000000000000000000000000000000000000000000000060e087901b16815273ffffffffffffffffffffffffffffffffffffffff90941660048501526020029190910135602483015250604401602060405180830381865afa1580156109bc573d6000803e3d6000fd5b505050506040513d601f19601f820116820180604052508101906109e091906112bf565b1115610a8357600360008888858181106109fc576109fc611228565b9050602002016020810190610a1191906110af565b73ffffffffffffffffffffffffffffffffffffffff1673ffffffffffffffffffffffffffffffffffffffff1681526020019081526020016000206000868684818110610a5f57610a5f611228565b9050602002013581526020019081526020016000205483610a809190611307565b92505b6001016108e7565b506001016108dc565b5095945050505050565b610ab9610aa9610bda565b82610ab2610be4565b9190610cbd565b50565b6000806102bc60017fca9d3e17f264b0f3984e2634e94adb37fa3e6a8103f06aeae6fa59e21c769f5e61131e565b60007c01000000000000000000000000000000000000000000000000000000007fffffffff00000000000000000000000000000000000000000000000000000000831601610b3a575060006102bc565b7ffe003659000000000000000000000000000000000000000000000000000000007fffffffff00000000000000000000000000000000000000000000000000000000831601610b8b575060016102bc565b507fffffffff00000000000000000000000000000000000000000000000000000000166000908152602091909152604090205460ff1690565b600082610bd18584610dd2565b14949350505050565b6000610675610e15565b6000806102bc60017fc9ed16f33ab3a66c84bfd83099ccb2a8845871e2e1c1928f63797152f0fd54cd61131e565b815473ffffffffffffffffffffffffffffffffffffffff828116911614610c7d576040517f2ef4875e00000000000000000000000000000000000000000000000000000000815273ffffffffffffffffffffffffffffffffffffffff82166004820152602401610309565b5050565b73ffffffffffffffffffffffffffffffffffffffff81166000908152602081905260408120548015610cb35780610cb6565b60015b9392505050565b825473ffffffffffffffffffffffffffffffffffffffff9081169083168114610d2a576040517f2ef4875e00000000000000000000000000000000000000000000000000000000815273ffffffffffffffffffffffffffffffffffffffff84166004820152602401610309565b8173ffffffffffffffffffffffffffffffffffffffff168173ffffffffffffffffffffffffffffffffffffffff1614610dcc5783547fffffffffffffffffffffffff00000000000000000000000000000000000000001673ffffffffffffffffffffffffffffffffffffffff8381169182178655604051908316907f8be0079c531659141344cd1fd0a4f28419497f9722a3daafe3b4186f6b6457e090600090a35b50505050565b600081815b8451811015610e0d57610e0382868381518110610df657610df6611228565b6020026020010151610f5c565b9150600101610dd7565b509392505050565b600033321480610e255750601836105b15610e2f57503390565b7fffffffffffffffffffffffffffffffffffffffffffffffffffffffffffffffec36013560601c7f000000000000000000000000000000000000000000000000000000000000000073ffffffffffffffffffffffffffffffffffffffff16331480610f4b57506040517f8929a8ca00000000000000000000000000000000000000000000000000000000815273ffffffffffffffffffffffffffffffffffffffff82811660048301523360248301527f00000000000000000000000000000000000000000000000000000000000000001690638929a8ca90604401602060405180830381865afa158015610f27573d6000803e3d6000fd5b505050506040513d601f19601f82011682018060405250810190610f4b9190611331565b15610f5557919050565b3391505090565b6000818310610f78576000828152602084905260409020610cb6565b5060009182526020526040902090565b600060208284031215610f9a57600080fd5b81357fffffffff0000000000000000000000000000000000000000000000000000000081168114610cb657600080fd5b60008083601f840112610fdc57600080fd5b50813567ffffffffffffffff811115610ff457600080fd5b6020830191508360208260051b850101111561100f57600080fd5b9250929050565b803573ffffffffffffffffffffffffffffffffffffffff8116811461103a57600080fd5b919050565b60008060008060008060a0878903121561105857600080fd5b86359550602087013567ffffffffffffffff81111561107657600080fd5b61108289828a01610fca565b9096509450611095905060408801611016565b925060608701359150608087013590509295509295509295565b6000602082840312156110c157600080fd5b610cb682611016565b6000602082840312156110dc57600080fd5b5035919050565b600080604083850312156110f657600080fd5b6110ff83611016565b946020939093013593505050565b6000806000806000806060878903121561112657600080fd5b863567ffffffffffffffff8082111561113e57600080fd5b61114a8a838b01610fca565b9098509650602089013591508082111561116357600080fd5b61116f8a838b01610fca565b9096509450604089013591508082111561118857600080fd5b5061119589828a01610fca565b979a9699509497509295939492505050565b6000806000806000606086880312156111bf57600080fd5b6111c886611016565b9450602086013567ffffffffffffffff808211156111e557600080fd5b6111f189838a01610fca565b9096509450604088013591508082111561120a57600080fd5b5061121788828901610fca565b969995985093965092949392505050565b7f4e487b7100000000000000000000000000000000000000000000000000000000600052603260045260246000fd5b60008083357fffffffffffffffffffffffffffffffffffffffffffffffffffffffffffffffe184360301811261128c57600080fd5b83018035915067ffffffffffffffff8211156112a757600080fd5b6020019150600581901b360382131561100f57600080fd5b6000602082840312156112d157600080fd5b5051919050565b7f4e487b7100000000000000000000000000000000000000000000000000000000600052601160045260246000fd5b80820281158282048414176102bc576102bc6112d8565b818103818111156102bc576102bc6112d8565b60006020828403121561134357600080fd5b81518015158114610cb657600080fdfea26469706673582212205fe1058634e90993e801c76bb858e40193aedd5dac25a24ca76bd79c494b7d0864736f6c63430008160033",
  "linkReferences": {},
  "deployedLinkReferences": {}
}