{
  "_format": "hh-sol-artifact-1",
  "contractName": "AnichessERC1155MerkleClaim",
  "sourceName": "contracts/merkleClaim/AnichessERC1155MerkleClaim.sol",
  "abi": [
    {
      "inputs": [
        {
          "internalType": "uint256",
          "name": "mintSupply",
          "type": "uint256"
        },
        {
          "internalType": "contract IERC1155Mintable",
          "name": "rewardContract",
          "type": "address"
        },
        {
          "internalType": "contract IForwarderRegistry",
          "name": "forwarderRegistry",
          "type": "address"
        }
      ],
      "stateMutability": "nonpayable",
      "type": "constructor"
    },
    {
      "inputs": [
        {
          "internalType": "bytes32",
          "name": "epochId",
          "type": "bytes32"
        },
        {
          "internalType": "address",
          "name": "recipient",
          "type": "address"
        },
        {
          "internalType": "uint256",
          "name": "id",
          "type": "uint256"
        },
        {
          "internalType": "uint256",
          "name": "value",
          "type": "uint256"
        }
      ],
      "name": "AlreadyClaimed",
      "type": "error"
    },
    {
      "inputs": [
        {
          "internalType": "bytes32",
          "name": "epochId",
          "type": "bytes32"
        }
      ],
      "name": "EpochIdAlreadyExists",
      "type": "error"
    },
    {
      "inputs": [
        {
          "internalType": "bytes32",
          "name": "epochId",
          "type": "bytes32"
        }
      ],
      "name": "EpochIdNotExists",
      "type": "error"
    },
    {
      "inputs": [
        {
          "internalType": "bytes32",
          "name": "epochId",
          "type": "bytes32"
        },
        {
          "internalType": "address",
          "name": "recipient",
          "type": "address"
        },
        {
          "internalType": "uint256",
          "name": "id",
          "type": "uint256"
        },
        {
          "internalType": "uint256",
          "name": "value",
          "type": "uint256"
        },
        {
          "internalType": "uint256",
          "name": "totalClaimed",
          "type": "uint256"
        }
      ],
      "name": "ExceededMintSupply",
      "type": "error"
    },
    {
      "inputs": [
        {
          "internalType": "bytes32",
          "name": "epochId",
          "type": "bytes32"
        },
        {
          "internalType": "address",
          "name": "recipient",
          "type": "address"
        },
        {
          "internalType": "uint256",
          "name": "id",
          "type": "uint256"
        },
        {
          "internalType": "uint256",
          "name": "value",
          "type": "uint256"
        }
      ],
      "name": "InvalidProof",
      "type": "error"
    },
    {
      "inputs": [
        {
          "internalType": "bytes32",
          "name": "epochId",
          "type": "bytes32"
        },
        {
          "internalType": "uint256",
          "name": "currentTime",
          "type": "uint256"
        }
      ],
      "name": "OutOfClaimWindow",
      "type": "error"
    },
    {
      "anonymous": false,
      "inputs": [
        {
          "indexed": true,
          "internalType": "address",
          "name": "previousOwner",
          "type": "address"
        },
        {
          "indexed": true,
          "internalType": "address",
          "name": "newOwner",
          "type": "address"
        }
      ],
      "name": "OwnershipTransferred",
      "type": "event"
    },
    {
      "anonymous": false,
      "inputs": [
        {
          "indexed": true,
          "internalType": "bytes32",
          "name": "epochId",
          "type": "bytes32"
        },
        {
          "indexed": true,
          "internalType": "address",
          "name": "recipient",
          "type": "address"
        },
        {
          "indexed": false,
          "internalType": "uint256",
          "name": "id",
          "type": "uint256"
        },
        {
          "indexed": false,
          "internalType": "uint256",
          "name": "value",
          "type": "uint256"
        }
      ],
      "name": "PayoutClaimed",
      "type": "event"
    },
    {
      "anonymous": false,
      "inputs": [
        {
          "indexed": true,
          "internalType": "bytes32",
          "name": "epochId",
          "type": "bytes32"
        },
        {
          "indexed": true,
          "internalType": "bytes32",
          "name": "merkleRoot",
          "type": "bytes32"
        },
        {
          "indexed": false,
          "internalType": "uint256",
          "name": "startTime",
          "type": "uint256"
        },
        {
          "indexed": false,
          "internalType": "uint256",
          "name": "endTime",
          "type": "uint256"
        }
      ],
      "name": "SetEpochMerkleRoot",
      "type": "event"
    },
    {
      "inputs": [],
      "name": "MINT_SUPPLY",
      "outputs": [
        {
          "internalType": "uint256",
          "name": "",
          "type": "uint256"
        }
      ],
      "stateMutability": "view",
      "type": "function"
    },
    {
      "inputs": [],
      "name": "REWARD_CONTRACT",
      "outputs": [
        {
          "internalType": "contract IERC1155Mintable",
          "name": "",
          "type": "address"
        }
      ],
      "stateMutability": "view",
      "type": "function"
    },
    {
      "inputs": [
        {
          "internalType": "bytes32",
          "name": "epochId",
          "type": "bytes32"
        },
        {
          "internalType": "bytes32[]",
          "name": "proof",
          "type": "bytes32[]"
        },
        {
          "internalType": "address",
          "name": "recipient",
          "type": "address"
        },
        {
          "internalType": "uint256",
          "name": "id",
          "type": "uint256"
        },
        {
          "internalType": "uint256",
          "name": "value",
          "type": "uint256"
        }
      ],
      "name": "claim",
      "outputs": [],
      "stateMutability": "nonpayable",
      "type": "function"
    },
    {
      "inputs": [
        {
          "internalType": "bytes32",
          "name": "",
          "type": "bytes32"
        }
      ],
      "name": "claimStatus",
      "outputs": [
        {
          "internalType": "bool",
          "name": "",
          "type": "bool"
        }
      ],
      "stateMutability": "view",
      "type": "function"
    },
    {
      "inputs": [
        {
          "internalType": "bytes32",
          "name": "",
          "type": "bytes32"
        }
      ],
      "name": "claimWindows",
      "outputs": [
        {
          "internalType": "bytes32",
          "name": "merkleRoot",
          "type": "bytes32"
        },
        {
          "internalType": "uint256",
          "name": "startTime",
          "type": "uint256"
        },
        {
          "internalType": "uint256",
          "name": "endTime",
          "type": "uint256"
        }
      ],
      "stateMutability": "view",
      "type": "function"
    },
    {
      "inputs": [],
      "name": "forwarderRegistry",
      "outputs": [
        {
          "internalType": "contract IForwarderRegistry",
          "name": "",
          "type": "address"
        }
      ],
      "stateMutability": "view",
      "type": "function"
    },
    {
      "inputs": [
        {
          "internalType": "address",
          "name": "forwarder",
          "type": "address"
        }
      ],
      "name": "isTrustedForwarder",
      "outputs": [
        {
          "internalType": "bool",
          "name": "",
          "type": "bool"
        }
      ],
      "stateMutability": "view",
      "type": "function"
    },
    {
      "inputs": [],
      "name": "noOfTokensClaimed",
      "outputs": [
        {
          "internalType": "uint256",
          "name": "",
          "type": "uint256"
        }
      ],
      "stateMutability": "view",
      "type": "function"
    },
    {
      "inputs": [],
      "name": "owner",
      "outputs": [
        {
          "internalType": "address",
          "name": "",
          "type": "address"
        }
      ],
      "stateMutability": "view",
      "type": "function"
    },
    {
      "inputs": [
        {
          "internalType": "bytes32",
          "name": "epochId",
          "type": "bytes32"
        },
        {
          "internalType": "bytes32",
          "name": "merkleRoot",
          "type": "bytes32"
        },
        {
          "internalType": "uint256",
          "name": "startTime",
          "type": "uint256"
        },
        {
          "internalType": "uint256",
          "name": "endTime",
          "type": "uint256"
        }
      ],
      "name": "setEpochMerkleRoot",
      "outputs": [],
      "stateMutability": "nonpayable",
      "type": "function"
    },
    {
      "inputs": [
        {
          "internalType": "bytes4",
          "name": "interfaceId",
          "type": "bytes4"
        }
      ],
      "name": "supportsInterface",
      "outputs": [
        {
          "internalType": "bool",
          "name": "",
          "type": "bool"
        }
      ],
      "stateMutability": "view",
      "type": "function"
    },
    {
      "inputs": [
        {
          "internalType": "address",
          "name": "newOwner",
          "type": "address"
        }
      ],
      "name": "transferOwnership",
      "outputs": [],
      "stateMutability": "nonpayable",
      "type": "function"
    }
  ],
  "bytecode": "0x60e06040523480156200001157600080fd5b50604051620014283803806200142883398101604081905262000034916200022d565b6001600160a01b0381166080523362000071816200005d6200008b602090811b6200081e17901c565b620000c160201b6200084c1790919060201c565b505060c0919091526001600160a01b031660a05262000297565b600080620000bb60017fc9ed16f33ab3a66c84bfd83099ccb2a8845871e2e1c1928f63797152f0fd54cd62000275565b92915050565b6001600160a01b03811615620001185781546001600160a01b0319166001600160a01b03821690811783556040516000907f8be0079c531659141344cd1fd0a4f28419497f9722a3daafe3b4186f6b6457e0908290a35b620001506307f5828d60e41b60016200013b6200015460201b6200090d1760201c565b6200018460201b6200093b179092919060201c565b5050565b600080620000bb60017fca9d3e17f264b0f3984e2634e94adb37fa3e6a8103f06aeae6fa59e21c769f5e62000275565b600160e01b6001600160e01b0319831601620001e65760405162461bcd60e51b815260206004820152601f60248201527f496e74657266616365446574656374696f6e3a2077726f6e672076616c756500604482015260640160405180910390fd5b6001600160e01b03199190911660009081526020929092526040909120805460ff1916911515919091179055565b6001600160a01b03811681146200022a57600080fd5b50565b6000806000606084860312156200024357600080fd5b835192506020840151620002578162000214565b60408501519092506200026a8162000214565b809150509250925092565b81810381811115620000bb57634e487b7160e01b600052601160045260246000fd5b60805160a05160c05161113e620002ea600039600081816101f101526105d10152600081816101620152610718015260008181610118015281816101a701528181610d340152610dbc015261113e6000f3fe608060405234801561001057600080fd5b50600436106100d45760003560e01c80638da5cb5b11610081578063dc45def61161005b578063dc45def61461022a578063e3a0ce0914610273578063f2fde38b1461029657600080fd5b80638da5cb5b146101e45780639dfbcde8146101ec578063ba65912e1461022157600080fd5b80633a5af339116100b25780633a5af3391461015d5780633ec6004f14610184578063572b6c051461019757600080fd5b806301ffc9a7146100d95780630328a8fc146101015780632b4c9f1614610116575b600080fd5b6100ec6100e7366004610eb7565b6102a9565b60405190151581526020015b60405180910390f35b61011461010f366004610ef9565b6102c3565b005b7f00000000000000000000000000000000000000000000000000000000000000005b60405173ffffffffffffffffffffffffffffffffffffffff90911681526020016100f8565b6101387f000000000000000000000000000000000000000000000000000000000000000081565b610114610192366004610f54565b6103aa565b6100ec6101a5366004610ff6565b7f000000000000000000000000000000000000000000000000000000000000000073ffffffffffffffffffffffffffffffffffffffff90811691161490565b6101386107d4565b6102137f000000000000000000000000000000000000000000000000000000000000000081565b6040519081526020016100f8565b61021360005481565b610258610238366004611011565b600160208190526000918252604090912080549181015460029091015483565b604080519384526020840192909252908201526060016100f8565b6100ec610281366004611011565b60026020526000908152604090205460ff1681565b6101146102a4366004610ff6565b610800565b60006102bd826102b761090d565b90610a47565b92915050565b6102dc6102ce610b21565b6102d661081e565b90610b2b565b6000848152600160205260409020541561032a576040517fed10979d000000000000000000000000000000000000000000000000000000008152600481018590526024015b60405180910390fd5b604080516060810182528481526020808201858152828401858152600089815260018085529086902094518555915191840191909155516002909201919091558151848152908101839052849186917f91a4b7a2b4c6a1702be62e3b867cf7e4dbbd496a4707e8d66638d99b3946a8da910160405180910390a350505050565b600086815260016020526040902080546103f3576040517f84f229dc00000000000000000000000000000000000000000000000000000000815260048101889052602401610321565b80600101544210806104085750806002015442115b15610448576040517fdbeb4f4d00000000000000000000000000000000000000000000000000000000815260048101889052426024820152604401610321565b60408051602081018990527fffffffffffffffffffffffffffffffffffffffff000000000000000000000000606087901b169181019190915260548101849052607481018390526000906094016040516020818303038152906040528051906020012090506104f3826000015482898980806020026020016040519081016040528093929190818152602001838360200280828437600092019190915250929493925050610bae9050565b610556576040517fcb4da9460000000000000000000000000000000000000000000000000000000081526004810189905273ffffffffffffffffffffffffffffffffffffffff861660248201526044810185905260648101849052608401610321565b60008181526002602052604090205460ff16156105cc576040517fc5ac808b0000000000000000000000000000000000000000000000000000000081526004810189905273ffffffffffffffffffffffffffffffffffffffff861660248201526044810185905260648101849052608401610321565b6000547f00000000000000000000000000000000000000000000000000000000000000006105fa8583611059565b1115610673578886868661060e8186611059565b6040517f6073f612000000000000000000000000000000000000000000000000000000008152600481019590955273ffffffffffffffffffffffffffffffffffffffff909316602485015260448401919091526064830152608482015260a401610321565b61067d8482611059565b60009081558281526002602052604080822080547fffffffffffffffffffffffffffffffffffffffffffffffffffffffffffffff00166001179055517f5cfa929700000000000000000000000000000000000000000000000000000000815273ffffffffffffffffffffffffffffffffffffffff888116600483015260248201889052604482018790526080606483015260848201929092527f000000000000000000000000000000000000000000000000000000000000000090911690635cfa92979060a401600060405180830381600087803b15801561075e57600080fd5b505af1158015610772573d6000803e3d6000fd5b5050604080518881526020810188905273ffffffffffffffffffffffffffffffffffffffff8a1693508c92507fa68c079189004e3175c636199e3e4d2aae420ce461ed29f670552b3eba9d2a03910160405180910390a3505050505050505050565b60006107fb6107e161081e565b5473ffffffffffffffffffffffffffffffffffffffff1690565b905090565b61081b61080b610b21565b8261081461081e565b9190610bc4565b50565b6000806102bd60017fc9ed16f33ab3a66c84bfd83099ccb2a8845871e2e1c1928f63797152f0fd54cd61106c565b73ffffffffffffffffffffffffffffffffffffffff8116156108d45781547fffffffffffffffffffffffff00000000000000000000000000000000000000001673ffffffffffffffffffffffffffffffffffffffff821690811783556040516000907f8be0079c531659141344cd1fd0a4f28419497f9722a3daafe3b4186f6b6457e0908290a35b6109097f7f5828d000000000000000000000000000000000000000000000000000000000600161090261090d565b919061093b565b5050565b6000806102bd60017fca9d3e17f264b0f3984e2634e94adb37fa3e6a8103f06aeae6fa59e21c769f5e61106c565b7c01000000000000000000000000000000000000000000000000000000007fffffffff000000000000000000000000000000000000000000000000000000008316016109e3576040517f08c379a000000000000000000000000000000000000000000000000000000000815260206004820152601f60248201527f496e74657266616365446574656374696f6e3a2077726f6e672076616c7565006044820152606401610321565b7fffffffff00000000000000000000000000000000000000000000000000000000919091166000908152602092909252604090912080547fffffffffffffffffffffffffffffffffffffffffffffffffffffffffffffff0016911515919091179055565b60007c01000000000000000000000000000000000000000000000000000000007fffffffff00000000000000000000000000000000000000000000000000000000831601610a97575060006102bd565b7ffe003659000000000000000000000000000000000000000000000000000000007fffffffff00000000000000000000000000000000000000000000000000000000831601610ae8575060016102bd565b507fffffffff00000000000000000000000000000000000000000000000000000000166000908152602091909152604090205460ff1690565b60006107fb610cf1565b815473ffffffffffffffffffffffffffffffffffffffff828116911614610909576040517f08c379a000000000000000000000000000000000000000000000000000000000815260206004820152601860248201527f4f776e6572736869703a206e6f7420746865206f776e657200000000000000006044820152606401610321565b600082610bbb8584610e38565b14949350505050565b825473ffffffffffffffffffffffffffffffffffffffff9081169083168114610c49576040517f08c379a000000000000000000000000000000000000000000000000000000000815260206004820152601860248201527f4f776e6572736869703a206e6f7420746865206f776e657200000000000000006044820152606401610321565b8173ffffffffffffffffffffffffffffffffffffffff168173ffffffffffffffffffffffffffffffffffffffff1614610ceb5783547fffffffffffffffffffffffff00000000000000000000000000000000000000001673ffffffffffffffffffffffffffffffffffffffff8381169182178655604051908316907f8be0079c531659141344cd1fd0a4f28419497f9722a3daafe3b4186f6b6457e090600090a35b50505050565b600033321480610d015750601836105b15610d0b57503390565b7fffffffffffffffffffffffffffffffffffffffffffffffffffffffffffffffec36013560601c7f000000000000000000000000000000000000000000000000000000000000000073ffffffffffffffffffffffffffffffffffffffff16331480610e2757506040517f8929a8ca00000000000000000000000000000000000000000000000000000000815273ffffffffffffffffffffffffffffffffffffffff82811660048301523360248301527f00000000000000000000000000000000000000000000000000000000000000001690638929a8ca90604401602060405180830381865afa158015610e03573d6000803e3d6000fd5b505050506040513d601f19601f82011682018060405250810190610e27919061107f565b15610e3157919050565b3391505090565b600081815b8451811015610e7d57610e6982868381518110610e5c57610e5c6110a1565b6020026020010151610e85565b915080610e75816110d0565b915050610e3d565b509392505050565b6000818310610ea1576000828152602084905260409020610eb0565b60008381526020839052604090205b9392505050565b600060208284031215610ec957600080fd5b81357fffffffff0000000000000000000000000000000000000000000000000000000081168114610eb057600080fd5b60008060008060808587031215610f0f57600080fd5b5050823594602084013594506040840135936060013592509050565b803573ffffffffffffffffffffffffffffffffffffffff81168114610f4f57600080fd5b919050565b60008060008060008060a08789031215610f6d57600080fd5b86359550602087013567ffffffffffffffff80821115610f8c57600080fd5b818901915089601f830112610fa057600080fd5b813581811115610faf57600080fd5b8a60208260051b8501011115610fc457600080fd5b602083019750809650505050610fdc60408801610f2b565b925060608701359150608087013590509295509295509295565b60006020828403121561100857600080fd5b610eb082610f2b565b60006020828403121561102357600080fd5b5035919050565b7f4e487b7100000000000000000000000000000000000000000000000000000000600052601160045260246000fd5b808201808211156102bd576102bd61102a565b818103818111156102bd576102bd61102a565b60006020828403121561109157600080fd5b81518015158114610eb057600080fd5b7f4e487b7100000000000000000000000000000000000000000000000000000000600052603260045260246000fd5b60007fffffffffffffffffffffffffffffffffffffffffffffffffffffffffffffffff82036111015761110161102a565b506001019056fea2646970667358221220041112444dd81c4b9914f5bb65d24992f20b529f310d647f4e51849a0dc6f33864736f6c63430008110033",
  "linkReferences": {},
  "deployedLinkReferences": {}
}