{
  "_format": "hh-sol-artifact-1",
  "contractName": "AnichessERC1155MerkleClaim",
  "sourceName": "contracts/merkleClaim/AnichessERC1155MerkleClaim.sol",
  "abi": [
    {
      "inputs": [
        {
          "internalType": "bytes32",
          "name": "merkleRoot",
          "type": "bytes32"
        },
        {
          "internalType": "contract IERC1155Mintable",
          "name": "rewardContract",
          "type": "address"
        },
        {
          "internalType": "contract IForwarderRegistry",
          "name": "forwarderRegistry",
          "type": "address"
        }
      ],
      "stateMutability": "nonpayable",
      "type": "constructor"
    },
    {
      "inputs": [
        {
          "internalType": "address",
          "name": "recipient",
          "type": "address"
        },
        {
          "internalType": "uint256[]",
          "name": "ids",
          "type": "uint256[]"
        },
        {
          "internalType": "uint256[]",
          "name": "values",
          "type": "uint256[]"
        },
        {
          "internalType": "bytes32",
          "name": "epochId",
          "type": "bytes32"
        }
      ],
      "name": "AlreadyClaimed",
      "type": "error"
    },
    {
      "inputs": [
        {
          "internalType": "address",
          "name": "recipient",
          "type": "address"
        },
        {
          "internalType": "uint256[]",
          "name": "ids",
          "type": "uint256[]"
        },
        {
          "internalType": "uint256[]",
          "name": "values",
          "type": "uint256[]"
        },
        {
          "internalType": "bytes32",
          "name": "epochId",
          "type": "bytes32"
        }
      ],
      "name": "InvalidProof",
      "type": "error"
    },
    {
      "anonymous": false,
      "inputs": [
        {
          "indexed": true,
          "internalType": "bytes32",
          "name": "epochId",
          "type": "bytes32"
        },
        {
          "indexed": true,
          "internalType": "address",
          "name": "recipient",
          "type": "address"
        },
        {
          "indexed": false,
          "internalType": "uint256[]",
          "name": "ids",
          "type": "uint256[]"
        },
        {
          "indexed": false,
          "internalType": "uint256[]",
          "name": "values",
          "type": "uint256[]"
        }
      ],
      "name": "PayoutClaimed",
      "type": "event"
    },
    {
      "inputs": [],
      "name": "MERKLE_ROOT",
      "outputs": [
        {
          "internalType": "bytes32",
          "name": "",
          "type": "bytes32"
        }
      ],
      "stateMutability": "view",
      "type": "function"
    },
    {
      "inputs": [],
      "name": "REWARD_CONTRACT",
      "outputs": [
        {
          "internalType": "contract IERC1155Mintable",
          "name": "",
          "type": "address"
        }
      ],
      "stateMutability": "view",
      "type": "function"
    },
    {
      "inputs": [
        {
          "internalType": "bytes",
          "name": "data",
          "type": "bytes"
        }
      ],
      "name": "claim",
      "outputs": [],
      "stateMutability": "nonpayable",
      "type": "function"
    },
    {
      "inputs": [
        {
          "internalType": "bytes32",
          "name": "",
          "type": "bytes32"
        }
      ],
      "name": "claimStatus",
      "outputs": [
        {
          "internalType": "bool",
          "name": "",
          "type": "bool"
        }
      ],
      "stateMutability": "view",
      "type": "function"
    },
    {
      "inputs": [],
      "name": "forwarderRegistry",
      "outputs": [
        {
          "internalType": "contract IForwarderRegistry",
          "name": "",
          "type": "address"
        }
      ],
      "stateMutability": "view",
      "type": "function"
    },
    {
      "inputs": [
        {
          "internalType": "address",
          "name": "forwarder",
          "type": "address"
        }
      ],
      "name": "isTrustedForwarder",
      "outputs": [
        {
          "internalType": "bool",
          "name": "",
          "type": "bool"
        }
      ],
      "stateMutability": "view",
      "type": "function"
    }
  ],
  "bytecode": "0x60e060405234801561001057600080fd5b50604051610ad2380380610ad283398101604081905261002f91610064565b6001600160a01b0390811660805260a0929092521660c0526100a7565b6001600160a01b038116811461006157600080fd5b50565b60008060006060848603121561007957600080fd5b83519250602084015161008b8161004c565b604085015190925061009c8161004c565b809150509250925092565b60805160a05160c0516109ea6100e86000396000818160c8015261031f01526000818160ef015261027f0152600081816079015261012f01526109ea6000f3fe608060405234801561001057600080fd5b50600436106100725760003560e01c8063572b6c0511610050578063572b6c051461011f578063c63ff8dd1461017c578063e3a0ce091461019157600080fd5b80632b4c9f16146100775780633a5af339146100c357806351e75e8b146100ea575b600080fd5b7f00000000000000000000000000000000000000000000000000000000000000005b60405173ffffffffffffffffffffffffffffffffffffffff90911681526020015b60405180910390f35b6100997f000000000000000000000000000000000000000000000000000000000000000081565b6101117f000000000000000000000000000000000000000000000000000000000000000081565b6040519081526020016100ba565b61016c61012d3660046104d9565b7f000000000000000000000000000000000000000000000000000000000000000073ffffffffffffffffffffffffffffffffffffffff90811691161490565b60405190151581526020016100ba565b61018f61018a3660046104f6565b6101b4565b005b61016c61019f366004610568565b60006020819052908152604090205460ff1681565b6000808080806101c68688018861069e565b945094509450945094506000838383886040516020016101e994939291906107cc565b604080517fffffffffffffffffffffffffffffffffffffffffffffffffffffffffffffffe0818403018152918152815160209283012060008181529283905291205490915060ff161561027957838383886040517fb21ae00b0000000000000000000000000000000000000000000000000000000081526004016102709493929190610848565b60405180910390fd5b6102a4857f00000000000000000000000000000000000000000000000000000000000000008361041f565b6102e257838383886040517f843019320000000000000000000000000000000000000000000000000000000081526004016102709493929190610848565b6040517f0d6a5bbb00000000000000000000000000000000000000000000000000000000815273ffffffffffffffffffffffffffffffffffffffff7f00000000000000000000000000000000000000000000000000000000000000001690630d6a5bbb906103589087908790879060040161089b565b600060405180830381600087803b15801561037257600080fd5b505af1158015610386573d6000803e3d6000fd5b5050506000828152602081905260409081902080547fffffffffffffffffffffffffffffffffffffffffffffffffffffffffffffff001660011790555173ffffffffffffffffffffffffffffffffffffffff8616915087907f8f9c73ccaa2efe63e7eac59937a2aa225b9d0748cbfe666eff28a75e964801a49061040d90879087906108f8565b60405180910390a35050505050505050565b60008261042c8584610435565b14949350505050565b600081815b845181101561047a576104668286838151811061045957610459610926565b6020026020010151610482565b91508061047281610955565b91505061043a565b509392505050565b600081831061049e5760008281526020849052604090206104ad565b60008381526020839052604090205b9392505050565b73ffffffffffffffffffffffffffffffffffffffff811681146104d657600080fd5b50565b6000602082840312156104eb57600080fd5b81356104ad816104b4565b6000806020838503121561050957600080fd5b823567ffffffffffffffff8082111561052157600080fd5b818501915085601f83011261053557600080fd5b81358181111561054457600080fd5b86602082850101111561055657600080fd5b60209290920196919550909350505050565b60006020828403121561057a57600080fd5b5035919050565b7f4e487b7100000000000000000000000000000000000000000000000000000000600052604160045260246000fd5b604051601f82017fffffffffffffffffffffffffffffffffffffffffffffffffffffffffffffffe016810167ffffffffffffffff811182821017156105f7576105f7610581565b604052919050565b600067ffffffffffffffff82111561061957610619610581565b5060051b60200190565b803561062e816104b4565b919050565b600082601f83011261064457600080fd5b81356020610659610654836105ff565b6105b0565b82815260059290921b8401810191818101908684111561067857600080fd5b8286015b84811015610693578035835291830191830161067c565b509695505050505050565b600080600080600060a086880312156106b657600080fd5b8535945060208087013567ffffffffffffffff808211156106d657600080fd5b818901915089601f8301126106ea57600080fd5b81356106f8610654826105ff565b81815260059190911b8301840190848101908c83111561071757600080fd5b938501935b828510156107355784358252938501939085019061071c565b985061074691505060408a01610623565b9550606089013592508083111561075c57600080fd5b6107688a848b01610633565b9450608089013592508083111561077e57600080fd5b505061078c88828901610633565b9150509295509295909350565b60008151602080840160005b838110156107c1578151875295820195908201906001016107a5565b509495945050505050565b7fffffffffffffffffffffffffffffffffffffffff0000000000000000000000008560601b168152600061080c6108066014840187610799565b85610799565b92835250506020019392505050565b8051808352602092830192600091908084018383156107c1578151875295820195908201906001016107a5565b73ffffffffffffffffffffffffffffffffffffffff85168152608060208201526000610877608083018661081b565b8281036040840152610889818661081b565b91505082606083015295945050505050565b73ffffffffffffffffffffffffffffffffffffffff841681526080602082015260006108ca608083018561081b565b82810360408401526108dc818561081b565b8381036060909401939093525050600081526020019392505050565b60408152600061090b604083018561081b565b828103602084015261091d818561081b565b95945050505050565b7f4e487b7100000000000000000000000000000000000000000000000000000000600052603260045260246000fd5b60007fffffffffffffffffffffffffffffffffffffffffffffffffffffffffffffffff82036109ad577f4e487b7100000000000000000000000000000000000000000000000000000000600052601160045260246000fd5b506001019056fea26469706673582212207b47120d6775b4b8e1cca01d85470d3cc971a18d8339cf25c613608b2ed252bf64736f6c63430008110033",
  "linkReferences": {},
  "deployedLinkReferences": {}
}