{
  "_format": "hh-sol-artifact-1",
  "contractName": "AnichessERC1155MerkleClaim",
  "sourceName": "contracts/merkleClaim/AnichessERC1155MerkleClaim.sol",
  "abi": [
    {
      "inputs": [
        {
          "internalType": "bytes32",
          "name": "merkleRoot",
          "type": "bytes32"
        },
        {
          "internalType": "contract IERC1155Mintable",
          "name": "rewardContract",
          "type": "address"
        },
        {
          "internalType": "contract IForwarderRegistry",
          "name": "forwarderRegistry",
          "type": "address"
        }
      ],
      "stateMutability": "nonpayable",
      "type": "constructor"
    },
    {
      "inputs": [
        {
          "internalType": "address",
          "name": "recipient",
          "type": "address"
        },
        {
          "internalType": "uint256[]",
          "name": "ids",
          "type": "uint256[]"
        },
        {
          "internalType": "uint256[]",
          "name": "values",
          "type": "uint256[]"
        },
        {
          "internalType": "bytes32",
          "name": "epochId",
          "type": "bytes32"
        }
      ],
      "name": "AlreadyClaimed",
      "type": "error"
    },
    {
      "inputs": [
        {
          "internalType": "address",
          "name": "recipient",
          "type": "address"
        },
        {
          "internalType": "uint256[]",
          "name": "ids",
          "type": "uint256[]"
        },
        {
          "internalType": "uint256[]",
          "name": "values",
          "type": "uint256[]"
        },
        {
          "internalType": "bytes32",
          "name": "epochId",
          "type": "bytes32"
        }
      ],
      "name": "InvalidProof",
      "type": "error"
    },
    {
      "anonymous": false,
      "inputs": [
        {
          "indexed": true,
          "internalType": "bytes32",
          "name": "epochId",
          "type": "bytes32"
        },
        {
          "indexed": true,
          "internalType": "address",
          "name": "recipient",
          "type": "address"
        },
        {
          "indexed": false,
          "internalType": "uint256[]",
          "name": "ids",
          "type": "uint256[]"
        },
        {
          "indexed": false,
          "internalType": "uint256[]",
          "name": "values",
          "type": "uint256[]"
        }
      ],
      "name": "PayoutClaimed",
      "type": "event"
    },
    {
      "inputs": [],
      "name": "MERKLE_ROOT",
      "outputs": [
        {
          "internalType": "bytes32",
          "name": "",
          "type": "bytes32"
        }
      ],
      "stateMutability": "view",
      "type": "function"
    },
    {
      "inputs": [],
      "name": "REWARD_CONTRACT",
      "outputs": [
        {
          "internalType": "contract IERC1155Mintable",
          "name": "",
          "type": "address"
        }
      ],
      "stateMutability": "view",
      "type": "function"
    },
    {
      "inputs": [
        {
          "internalType": "bytes32",
          "name": "epochId",
          "type": "bytes32"
        },
        {
          "internalType": "bytes32[]",
          "name": "proof",
          "type": "bytes32[]"
        },
        {
          "internalType": "address",
          "name": "recipient",
          "type": "address"
        },
        {
          "internalType": "uint256[]",
          "name": "ids",
          "type": "uint256[]"
        },
        {
          "internalType": "uint256[]",
          "name": "values",
          "type": "uint256[]"
        }
      ],
      "name": "claim",
      "outputs": [],
      "stateMutability": "nonpayable",
      "type": "function"
    },
    {
      "inputs": [
        {
          "internalType": "bytes32",
          "name": "",
          "type": "bytes32"
        }
      ],
      "name": "claimStatus",
      "outputs": [
        {
          "internalType": "bool",
          "name": "",
          "type": "bool"
        }
      ],
      "stateMutability": "view",
      "type": "function"
    },
    {
      "inputs": [],
      "name": "forwarderRegistry",
      "outputs": [
        {
          "internalType": "contract IForwarderRegistry",
          "name": "",
          "type": "address"
        }
      ],
      "stateMutability": "view",
      "type": "function"
    },
    {
      "inputs": [
        {
          "internalType": "address",
          "name": "forwarder",
          "type": "address"
        }
      ],
      "name": "isTrustedForwarder",
      "outputs": [
        {
          "internalType": "bool",
          "name": "",
          "type": "bool"
        }
      ],
      "stateMutability": "view",
      "type": "function"
    }
  ],
  "bytecode": "0x60e060405234801561001057600080fd5b50604051610a31380380610a3183398101604081905261002f91610064565b6001600160a01b0390811660805260a0929092521660c0526100a7565b6001600160a01b038116811461006157600080fd5b50565b60008060006060848603121561007957600080fd5b83519250602084015161008b8161004c565b604085015190925061009c8161004c565b809150509250925092565b60805160a05160c0516109496100e86000396000818160c8015261033a01526000818160ef01526102630152600081816079015261012f01526109496000f3fe608060405234801561001057600080fd5b50600436106100725760003560e01c8063572b6c0511610050578063572b6c051461011f578063e3a0ce091461017c578063f15e20e71461019f57600080fd5b80632b4c9f16146100775780633a5af339146100c357806351e75e8b146100ea575b600080fd5b7f00000000000000000000000000000000000000000000000000000000000000005b60405173ffffffffffffffffffffffffffffffffffffffff90911681526020015b60405180910390f35b6100997f000000000000000000000000000000000000000000000000000000000000000081565b6101117f000000000000000000000000000000000000000000000000000000000000000081565b6040519081526020016100ba565b61016c61012d3660046104bc565b7f000000000000000000000000000000000000000000000000000000000000000073ffffffffffffffffffffffffffffffffffffffff90811691161490565b60405190151581526020016100ba565b61016c61018a3660046104d7565b60006020819052908152604090205460ff1681565b6101b26101ad3660046105fd565b6101b4565b005b6000838383886040516020016101cd949392919061072b565b604080517fffffffffffffffffffffffffffffffffffffffffffffffffffffffffffffffe0818403018152918152815160209283012060008181529283905291205490915060ff161561025d57838383886040517fb21ae00b00000000000000000000000000000000000000000000000000000000815260040161025494939291906107a7565b60405180910390fd5b610288857f0000000000000000000000000000000000000000000000000000000000000000836103fe565b6102c657838383886040517f8430193200000000000000000000000000000000000000000000000000000000815260040161025494939291906107a7565b6000818152602081905260409081902080547fffffffffffffffffffffffffffffffffffffffffffffffffffffffffffffff00166001179055517f0d6a5bbb00000000000000000000000000000000000000000000000000000000815273ffffffffffffffffffffffffffffffffffffffff7f00000000000000000000000000000000000000000000000000000000000000001690630d6a5bbb90610373908790879087906004016107fa565b600060405180830381600087803b15801561038d57600080fd5b505af11580156103a1573d6000803e3d6000fd5b505050508373ffffffffffffffffffffffffffffffffffffffff16867f8f9c73ccaa2efe63e7eac59937a2aa225b9d0748cbfe666eff28a75e964801a485856040516103ee929190610857565b60405180910390a3505050505050565b60008261040b8584610414565b14949350505050565b600081815b8451811015610459576104458286838151811061043857610438610885565b6020026020010151610461565b915080610451816108b4565b915050610419565b509392505050565b600081831061047d57600082815260208490526040902061048c565b60008381526020839052604090205b9392505050565b803573ffffffffffffffffffffffffffffffffffffffff811681146104b757600080fd5b919050565b6000602082840312156104ce57600080fd5b61048c82610493565b6000602082840312156104e957600080fd5b5035919050565b7f4e487b7100000000000000000000000000000000000000000000000000000000600052604160045260246000fd5b604051601f82017fffffffffffffffffffffffffffffffffffffffffffffffffffffffffffffffe016810167ffffffffffffffff81118282101715610566576105666104f0565b604052919050565b600067ffffffffffffffff821115610588576105886104f0565b5060051b60200190565b600082601f8301126105a357600080fd5b813560206105b86105b38361056e565b61051f565b82815260059290921b840181019181810190868411156105d757600080fd5b8286015b848110156105f257803583529183019183016105db565b509695505050505050565b600080600080600060a0868803121561061557600080fd5b8535945060208087013567ffffffffffffffff8082111561063557600080fd5b818901915089601f83011261064957600080fd5b81356106576105b38261056e565b81815260059190911b8301840190848101908c83111561067657600080fd5b938501935b828510156106945784358252938501939085019061067b565b98506106a591505060408a01610493565b955060608901359250808311156106bb57600080fd5b6106c78a848b01610592565b945060808901359250808311156106dd57600080fd5b50506106eb88828901610592565b9150509295509295909350565b60008151602080840160005b8381101561072057815187529582019590820190600101610704565b509495945050505050565b7fffffffffffffffffffffffffffffffffffffffff0000000000000000000000008560601b168152600061076b61076560148401876106f8565b856106f8565b92835250506020019392505050565b80518083526020928301926000919080840183831561072057815187529582019590820190600101610704565b73ffffffffffffffffffffffffffffffffffffffff851681526080602082015260006107d6608083018661077a565b82810360408401526107e8818661077a565b91505082606083015295945050505050565b73ffffffffffffffffffffffffffffffffffffffff84168152608060208201526000610829608083018561077a565b828103604084015261083b818561077a565b8381036060909401939093525050600081526020019392505050565b60408152600061086a604083018561077a565b828103602084015261087c818561077a565b95945050505050565b7f4e487b7100000000000000000000000000000000000000000000000000000000600052603260045260246000fd5b60007fffffffffffffffffffffffffffffffffffffffffffffffffffffffffffffffff820361090c577f4e487b7100000000000000000000000000000000000000000000000000000000600052601160045260246000fd5b506001019056fea2646970667358221220f19b329f172445c8bac3c3d39612e4205733b950c477bd0cfb30775c209c114864736f6c63430008110033",
  "linkReferences": {},
  "deployedLinkReferences": {}
}