{
  "_format": "hh-sol-artifact-1",
  "contractName": "AnichessERC1155MerkleClaim",
  "sourceName": "contracts/merkleClaim/AnichessERC1155MerkleClaim.sol",
  "abi": [
    {
      "inputs": [
        {
          "internalType": "bytes32",
          "name": "merkleRoot",
          "type": "bytes32"
        },
        {
          "internalType": "contract IERC1155Mintable",
          "name": "rewardContract",
          "type": "address"
        },
        {
          "internalType": "contract IForwarderRegistry",
          "name": "forwarderRegistry",
          "type": "address"
        }
      ],
      "stateMutability": "nonpayable",
      "type": "constructor"
    },
    {
      "inputs": [
        {
          "internalType": "address",
          "name": "recipient",
          "type": "address"
        },
        {
          "internalType": "uint256[]",
          "name": "ids",
          "type": "uint256[]"
        },
        {
          "internalType": "uint256[]",
          "name": "values",
          "type": "uint256[]"
        },
        {
          "internalType": "bytes32",
          "name": "epochId",
          "type": "bytes32"
        }
      ],
      "name": "AlreadyClaimed",
      "type": "error"
    },
    {
      "inputs": [
        {
          "internalType": "address",
          "name": "recipient",
          "type": "address"
        },
        {
          "internalType": "uint256[]",
          "name": "ids",
          "type": "uint256[]"
        },
        {
          "internalType": "uint256[]",
          "name": "values",
          "type": "uint256[]"
        },
        {
          "internalType": "bytes32",
          "name": "epochId",
          "type": "bytes32"
        }
      ],
      "name": "InvalidProof",
      "type": "error"
    },
    {
      "anonymous": false,
      "inputs": [
        {
          "indexed": true,
          "internalType": "bytes32",
          "name": "epochId",
          "type": "bytes32"
        },
        {
          "indexed": true,
          "internalType": "address",
          "name": "recipient",
          "type": "address"
        },
        {
          "indexed": false,
          "internalType": "uint256[]",
          "name": "ids",
          "type": "uint256[]"
        },
        {
          "indexed": false,
          "internalType": "uint256[]",
          "name": "values",
          "type": "uint256[]"
        }
      ],
      "name": "PayoutClaimed",
      "type": "event"
    },
    {
      "inputs": [],
      "name": "MERKLE_ROOT",
      "outputs": [
        {
          "internalType": "bytes32",
          "name": "",
          "type": "bytes32"
        }
      ],
      "stateMutability": "view",
      "type": "function"
    },
    {
      "inputs": [],
      "name": "REWARD_CONTRACT",
      "outputs": [
        {
          "internalType": "contract IERC1155Mintable",
          "name": "",
          "type": "address"
        }
      ],
      "stateMutability": "view",
      "type": "function"
    },
    {
      "inputs": [
        {
          "internalType": "bytes32",
          "name": "epochId",
          "type": "bytes32"
        },
        {
          "internalType": "bytes32[]",
          "name": "proof",
          "type": "bytes32[]"
        },
        {
          "internalType": "address",
          "name": "recipient",
          "type": "address"
        },
        {
          "internalType": "uint256[]",
          "name": "ids",
          "type": "uint256[]"
        },
        {
          "internalType": "uint256[]",
          "name": "values",
          "type": "uint256[]"
        }
      ],
      "name": "claim",
      "outputs": [],
      "stateMutability": "nonpayable",
      "type": "function"
    },
    {
      "inputs": [
        {
          "internalType": "bytes32",
          "name": "",
          "type": "bytes32"
        }
      ],
      "name": "claimStatus",
      "outputs": [
        {
          "internalType": "bool",
          "name": "",
          "type": "bool"
        }
      ],
      "stateMutability": "view",
      "type": "function"
    },
    {
      "inputs": [],
      "name": "forwarderRegistry",
      "outputs": [
        {
          "internalType": "contract IForwarderRegistry",
          "name": "",
          "type": "address"
        }
      ],
      "stateMutability": "view",
      "type": "function"
    },
    {
      "inputs": [
        {
          "internalType": "address",
          "name": "forwarder",
          "type": "address"
        }
      ],
      "name": "isTrustedForwarder",
      "outputs": [
        {
          "internalType": "bool",
          "name": "",
          "type": "bool"
        }
      ],
      "stateMutability": "view",
      "type": "function"
    }
  ],
  "bytecode": "0x60e060405234801561001057600080fd5b506040516109b73803806109b783398101604081905261002f91610064565b6001600160a01b0390811660805260a0929092521660c0526100a7565b6001600160a01b038116811461006157600080fd5b50565b60008060006060848603121561007957600080fd5b83519250602084015161008b8161004c565b604085015190925061009c8161004c565b809150509250925092565b60805160a05160c0516108cf6100e86000396000818160c8015261037d01526000818160ef015261026a0152600081816079015261012f01526108cf6000f3fe608060405234801561001057600080fd5b50600436106100725760003560e01c8063572b6c0511610050578063572b6c051461011f578063e3a0ce091461017c578063f15e20e71461019f57600080fd5b80632b4c9f16146100775780633a5af339146100c357806351e75e8b146100ea575b600080fd5b7f00000000000000000000000000000000000000000000000000000000000000005b60405173ffffffffffffffffffffffffffffffffffffffff90911681526020015b60405180910390f35b6100997f000000000000000000000000000000000000000000000000000000000000000081565b6101117f000000000000000000000000000000000000000000000000000000000000000081565b6040519081526020016100ba565b61016c61012d36600461050a565b7f000000000000000000000000000000000000000000000000000000000000000073ffffffffffffffffffffffffffffffffffffffff90811691161490565b60405190151581526020016100ba565b61016c61018a366004610525565b60006020819052908152604090205460ff1681565b6101b26101ad36600461058a565b6101b4565b005b600085858585858d6040516020016101d196959493929190610683565b604080517fffffffffffffffffffffffffffffffffffffffffffffffffffffffffffffffe0818403018152918152815160209283012060008181529283905291205490915060ff16156102655785858585858d6040517fb21ae00b00000000000000000000000000000000000000000000000000000000815260040161025c96959493929190610721565b60405180910390fd5b6102c77f0000000000000000000000000000000000000000000000000000000000000000828a8a8080602002602001604051908101604052809392919081815260200183836020028082843760009201919091525092949392505061044c9050565b6103095785858585858d6040517f8430193200000000000000000000000000000000000000000000000000000000815260040161025c96959493929190610721565b6000818152602081905260409081902080547fffffffffffffffffffffffffffffffffffffffffffffffffffffffffffffff00166001179055517f0d6a5bbb00000000000000000000000000000000000000000000000000000000815273ffffffffffffffffffffffffffffffffffffffff7f00000000000000000000000000000000000000000000000000000000000000001690630d6a5bbb906103ba9089908990899089908990600401610778565b600060405180830381600087803b1580156103d457600080fd5b505af11580156103e8573d6000803e3d6000fd5b505050508573ffffffffffffffffffffffffffffffffffffffff16897f8f9c73ccaa2efe63e7eac59937a2aa225b9d0748cbfe666eff28a75e964801a48787878760405161043994939291906107d9565b60405180910390a3505050505050505050565b6000826104598584610462565b14949350505050565b600081815b84518110156104a757610493828683815181106104865761048661080b565b60200260200101516104af565b91508061049f8161083a565b915050610467565b509392505050565b60008183106104cb5760008281526020849052604090206104da565b60008381526020839052604090205b9392505050565b803573ffffffffffffffffffffffffffffffffffffffff8116811461050557600080fd5b919050565b60006020828403121561051c57600080fd5b6104da826104e1565b60006020828403121561053757600080fd5b5035919050565b60008083601f84011261055057600080fd5b50813567ffffffffffffffff81111561056857600080fd5b6020830191508360208260051b850101111561058357600080fd5b9250929050565b60008060008060008060008060a0898b0312156105a657600080fd5b88359750602089013567ffffffffffffffff808211156105c557600080fd5b6105d18c838d0161053e565b90995097508791506105e560408c016104e1565b965060608b01359150808211156105fb57600080fd5b6106078c838d0161053e565b909650945060808b013591508082111561062057600080fd5b5061062d8b828c0161053e565b999c989b5096995094979396929594505050565b60007f07ffffffffffffffffffffffffffffffffffffffffffffffffffffffffffffff83111561067057600080fd5b8260051b80838637939093019392505050565b7fffffffffffffffffffffffffffffffffffffffff0000000000000000000000008760601b16815260006106c56106be60148401888a610641565b8587610641565b928352505060200195945050505050565b81835260007f07ffffffffffffffffffffffffffffffffffffffffffffffffffffffffffffff83111561070857600080fd5b8260051b80836020870137939093016020019392505050565b73ffffffffffffffffffffffffffffffffffffffff871681526080602082015260006107516080830187896106d6565b82810360408401526107648186886106d6565b915050826060830152979650505050505050565b73ffffffffffffffffffffffffffffffffffffffff861681526080602082015260006107a86080830186886106d6565b82810360408401526107bb8185876106d6565b83810360609094019390935250506000815260200195945050505050565b6040815260006107ed6040830186886106d6565b82810360208401526108008185876106d6565b979650505050505050565b7f4e487b7100000000000000000000000000000000000000000000000000000000600052603260045260246000fd5b60007fffffffffffffffffffffffffffffffffffffffffffffffffffffffffffffffff8203610892577f4e487b7100000000000000000000000000000000000000000000000000000000600052601160045260246000fd5b506001019056fea264697066735822122024801565086c8a31f78d897d2f256293c6722f2c779cd4cd143942925f1c9a0a64736f6c63430008110033",
  "linkReferences": {},
  "deployedLinkReferences": {}
}