{
  "_format": "hh-sol-artifact-1",
  "contractName": "MockForwarderRegistry",
  "sourceName": "contracts/mocks/MockForwarderRegistry.sol",
  "abi": [
    {
      "inputs": [],
      "stateMutability": "nonpayable",
      "type": "constructor"
    },
    {
      "inputs": [
        {
          "internalType": "address",
          "name": "sender",
          "type": "address"
        },
        {
          "internalType": "address",
          "name": "forwarder",
          "type": "address"
        }
      ],
      "name": "ForwarderNotApproved",
      "type": "error"
    },
    {
      "inputs": [],
      "name": "InvalidEIP1271Signature",
      "type": "error"
    },
    {
      "inputs": [],
      "name": "WrongSigner",
      "type": "error"
    },
    {
      "anonymous": false,
      "inputs": [
        {
          "indexed": true,
          "internalType": "address",
          "name": "sender",
          "type": "address"
        },
        {
          "indexed": true,
          "internalType": "address",
          "name": "forwarder",
          "type": "address"
        },
        {
          "indexed": false,
          "internalType": "bool",
          "name": "approved",
          "type": "bool"
        },
        {
          "indexed": false,
          "internalType": "uint256",
          "name": "nonce",
          "type": "uint256"
        }
      ],
      "name": "ForwarderApproval",
      "type": "event"
    },
    {
      "inputs": [],
      "name": "DOMAIN_SEPARATOR",
      "outputs": [
        {
          "internalType": "bytes32",
          "name": "domainSeparator",
          "type": "bytes32"
        }
      ],
      "stateMutability": "view",
      "type": "function"
    },
    {
      "inputs": [
        {
          "internalType": "bytes",
          "name": "signature",
          "type": "bytes"
        },
        {
          "internalType": "bool",
          "name": "isEIP1271Signature",
          "type": "bool"
        },
        {
          "internalType": "address",
          "name": "target",
          "type": "address"
        },
        {
          "internalType": "bytes",
          "name": "data",
          "type": "bytes"
        }
      ],
      "name": "approveAndForward",
      "outputs": [],
      "stateMutability": "payable",
      "type": "function"
    },
    {
      "inputs": [
        {
          "internalType": "address",
          "name": "target",
          "type": "address"
        },
        {
          "internalType": "bytes",
          "name": "data",
          "type": "bytes"
        }
      ],
      "name": "forward",
      "outputs": [],
      "stateMutability": "payable",
      "type": "function"
    },
    {
      "inputs": [
        {
          "internalType": "address",
          "name": "sender",
          "type": "address"
        },
        {
          "internalType": "address",
          "name": "forwarder",
          "type": "address"
        }
      ],
      "name": "getNonce",
      "outputs": [
        {
          "internalType": "uint256",
          "name": "nonce",
          "type": "uint256"
        }
      ],
      "stateMutability": "view",
      "type": "function"
    },
    {
      "inputs": [
        {
          "internalType": "address",
          "name": "sender",
          "type": "address"
        },
        {
          "internalType": "address",
          "name": "forwarder",
          "type": "address"
        }
      ],
      "name": "isApprovedForwarder",
      "outputs": [
        {
          "internalType": "bool",
          "name": "",
          "type": "bool"
        }
      ],
      "stateMutability": "view",
      "type": "function"
    },
    {
      "inputs": [
        {
          "internalType": "address",
          "name": "",
          "type": "address"
        }
      ],
      "name": "isTrustedForwarder",
      "outputs": [
        {
          "internalType": "bool",
          "name": "",
          "type": "bool"
        }
      ],
      "stateMutability": "pure",
      "type": "function"
    },
    {
      "inputs": [
        {
          "internalType": "address",
          "name": "forwarder",
          "type": "address"
        }
      ],
      "name": "removeForwarderApproval",
      "outputs": [],
      "stateMutability": "nonpayable",
      "type": "function"
    },
    {
      "inputs": [
        {
          "internalType": "address",
          "name": "sender",
          "type": "address"
        },
        {
          "internalType": "address",
          "name": "forwarder",
          "type": "address"
        },
        {
          "internalType": "bool",
          "name": "approved",
          "type": "bool"
        },
        {
          "internalType": "bytes",
          "name": "signature",
          "type": "bytes"
        },
        {
          "internalType": "bool",
          "name": "isEIP1271Signature",
          "type": "bool"
        }
      ],
      "name": "setForwarderApproval",
      "outputs": [],
      "stateMutability": "nonpayable",
      "type": "function"
    }
  ],
  "bytecode": "0x60c060405234801561001057600080fd5b50466080818152604080517f8cad95687ba82c2ce50e74f7b754645e5117c3a5bec8151c0726d5857980a8666020808301919091527f06a520fda4ca688235391b02e357c6a65eb2a3bb40a69c0199f3f7f9cccee041828401526060820185905230828501528251808303909401845260a0909101909152815191012060a0525060805160a051610e0c6100b66000396000610278015260006101d10152610e0c6000f3fe60806040526004361061006b5760003560e01c80633644e51514610070578063572b6c05146100985780636ed0f382146100c95780636fadcf72146100eb5780638929a8ca146100fe5780639438f7f31461014c5780639c6a44241461015f578063d828435d1461017f575b600080fd5b34801561007c57600080fd5b506100856101cc565b6040519081526020015b60405180910390f35b3480156100a457600080fd5b506100b96100b3366004610a94565b50600190565b604051901515815260200161008f565b3480156100d557600080fd5b506100e96100e4366004610a94565b61029e565b005b6100e96100f9366004610af7565b6102de565b34801561010a57600080fd5b506100b9610119366004610b49565b6001600160a01b03918216600090815260208181526040808320939094168252919091522054600160f81b900460ff1690565b6100e961015a366004610b8c565b61038a565b34801561016b57600080fd5b506100e961017a366004610c1f565b6103c7565b34801561018b57600080fd5b5061008561019a366004610b49565b6001600160a01b039182166000908152602081815260408083209390941682529190915220546001600160f81b031690565b6000467f0000000000000000000000000000000000000000000000000000000000000000811461027657604080517f8cad95687ba82c2ce50e74f7b754645e5117c3a5bec8151c0726d5857980a8666020808301919091527f06a520fda4ca688235391b02e357c6a65eb2a3bb40a69c0199f3f7f9cccee0418284015260608201849052306080808401919091528351808403909101815260a09092019092528051910120610298565b7f00000000000000000000000000000000000000000000000000000000000000005b91505090565b336000818152602081815260408083206001600160a01b03861684529091528120805490926102da9284928691906001600160f81b031661040d565b5050565b60006102e8610484565b6001600160a01b038116600090815260208181526040808320338452909152902054909150600160f81b900460ff1661034a57604051631f14f71760e11b81526001600160a01b03821660048201523360248201526044015b60405180910390fd5b61038383838360405160200161036293929190610ca3565b60408051601f198184030181529190526001600160a01b0386169034610490565b5050505050565b6000610394610484565b90506103a5813360018a8a8a6103c7565b6103bd83838360405160200161036293929190610ca3565b5050505050505050565b6001600160a01b0380871660009081526020818152604080832093891683529290522080546001600160f81b0316610404888888848989896104be565b6103bd82898989855b600181016001600160f81b0316821515600160f81b81026001600160f81b03191691909117865560408051918252602082018390526001600160a01b0385811692908716917f1e416512661bbe7bb72d89bfee596249d7767c125e8c56cf7cf82ee698b63a6a910160405180910390a35050505050565b60131936013560601c90565b60606104b6848484604051806060016040528060298152602001610dae6029913961068f565b949350505050565b60006104c86101cc565b604080517f510634d3c850f3aab02dc8ab54bbb9b76a576f7e4edd8462a252673876bec9e560208201526001600160a01b03808c16928201929092529089166060820152871515608082015260a0810187905260c0016040516020818303038152906040528051906020012060405160200161055b92919061190160f01b81526002810192909252602282015260420190565b604051602081830303815290604052905081156106175780516020820120604051630b135d3f60e11b808252916001600160a01b038b1691631626ba7e916105a99189908990600401610cc4565b602060405180830381865afa1580156105c6573d6000803e3d6000fd5b505050506040513d601f19601f820116820180604052508101906105ea9190610cfa565b6001600160e01b0319161461061257604051635d52cbe360e01b815260040160405180910390fd5b6103bd565b876001600160a01b031661066885858080601f01602080910402602001604051908101604052809392919081815260200183838082843760009201919091525050855160208701209291505061076a565b6001600160a01b0316146103bd576040516353c9973560e11b815260040160405180910390fd5b6060824710156106f05760405162461bcd60e51b815260206004820152602660248201527f416464726573733a20696e73756666696369656e742062616c616e636520666f6044820152651c8818d85b1b60d21b6064820152608401610341565b600080866001600160a01b0316858760405161070c9190610d48565b60006040518083038185875af1925050503d8060008114610749576040519150601f19603f3d011682016040523d82523d6000602084013e61074e565b606091505b509150915061075f8783838761078e565b979650505050505050565b60008060006107798585610807565b915091506107868161084c565b509392505050565b606083156107fd5782516000036107f6576001600160a01b0385163b6107f65760405162461bcd60e51b815260206004820152601d60248201527f416464726573733a2063616c6c20746f206e6f6e2d636f6e74726163740000006044820152606401610341565b50816104b6565b6104b68383610994565b600080825160410361083d5760208301516040840151606085015160001a610831878285856109be565b94509450505050610845565b506000905060025b9250929050565b600081600481111561086057610860610d64565b036108685750565b600181600481111561087c5761087c610d64565b036108c45760405162461bcd60e51b815260206004820152601860248201527745434453413a20696e76616c6964207369676e617475726560401b6044820152606401610341565b60028160048111156108d8576108d8610d64565b036109255760405162461bcd60e51b815260206004820152601f60248201527f45434453413a20696e76616c6964207369676e6174757265206c656e677468006044820152606401610341565b600381600481111561093957610939610d64565b036109915760405162461bcd60e51b815260206004820152602260248201527f45434453413a20696e76616c6964207369676e6174757265202773272076616c604482015261756560f01b6064820152608401610341565b50565b8151156109a45781518083602001fd5b8060405162461bcd60e51b81526004016103419190610d7a565b6000806fa2a8918ca85bafe22016d0b997e4df60600160ff1b038311156109eb5750600090506003610a6f565b6040805160008082526020820180845289905260ff881692820192909252606081018690526080810185905260019060a0016020604051602081039080840390855afa158015610a3f573d6000803e3d6000fd5b5050604051601f1901519150506001600160a01b038116610a6857600060019250925050610a6f565b9150600090505b94509492505050565b80356001600160a01b0381168114610a8f57600080fd5b919050565b600060208284031215610aa657600080fd5b610aaf82610a78565b9392505050565b60008083601f840112610ac857600080fd5b5081356001600160401b03811115610adf57600080fd5b60208301915083602082850101111561084557600080fd5b600080600060408486031215610b0c57600080fd5b610b1584610a78565b925060208401356001600160401b03811115610b3057600080fd5b610b3c86828701610ab6565b9497909650939450505050565b60008060408385031215610b5c57600080fd5b610b6583610a78565b9150610b7360208401610a78565b90509250929050565b80358015158114610a8f57600080fd5b60008060008060008060808789031215610ba557600080fd5b86356001600160401b0380821115610bbc57600080fd5b610bc88a838b01610ab6565b9098509650869150610bdc60208a01610b7c565b9550610bea60408a01610a78565b94506060890135915080821115610c0057600080fd5b50610c0d89828a01610ab6565b979a9699509497509295939492505050565b60008060008060008060a08789031215610c3857600080fd5b610c4187610a78565b9550610c4f60208801610a78565b9450610c5d60408801610b7c565b935060608701356001600160401b03811115610c7857600080fd5b610c8489828a01610ab6565b9094509250610c97905060808801610b7c565b90509295509295509295565b8284823760609190911b6001600160601b0319169101908152601401919050565b83815260406020820152816040820152818360608301376000818301606090810191909152601f909201601f1916010192915050565b600060208284031215610d0c57600080fd5b81516001600160e01b031981168114610aaf57600080fd5b60005b83811015610d3f578181015183820152602001610d27565b50506000910152565b60008251610d5a818460208701610d24565b9190910192915050565b634e487b7160e01b600052602160045260246000fd5b6020815260008251806020840152610d99816040850160208701610d24565b601f01601f1916919091016040019291505056fe416464726573733a206c6f772d6c6576656c2063616c6c20776974682076616c7565206661696c6564a264697066735822122088377c5c9cae239d9461494f148ff97711d487d6071c3de5b6892868e066257464736f6c63430008110033",
  "linkReferences": {},
  "deployedLinkReferences": {}
}