{
  "_format": "hh-sol-artifact-1",
  "contractName": "ERC1155TokenBurn",
  "sourceName": "contracts/burn/AnichessOrbsBurnPoolSimpleMultiple.sol",
  "abi": [
    {
      "inputs": [
        {
          "internalType": "contract IERC1155Burnable[]",
          "name": "tokens",
          "type": "address[]"
        },
        {
          "internalType": "contract IForwarderRegistry",
          "name": "forwarderRegistry",
          "type": "address"
        }
      ],
      "stateMutability": "nonpayable",
      "type": "constructor"
    },
    {
      "inputs": [
        {
          "internalType": "bytes32",
          "name": "epochId",
          "type": "bytes32"
        }
      ],
      "name": "EpochIdNotExists",
      "type": "error"
    },
    {
      "inputs": [],
      "name": "IllegalInterfaceId",
      "type": "error"
    },
    {
      "inputs": [],
      "name": "InconsistentArrays",
      "type": "error"
    },
    {
      "inputs": [
        {
          "internalType": "address",
          "name": "account",
          "type": "address"
        }
      ],
      "name": "NotContractOwner",
      "type": "error"
    },
    {
      "inputs": [],
      "name": "TokenNotApproved",
      "type": "error"
    },
    {
      "inputs": [],
      "name": "WalletNotApproved",
      "type": "error"
    },
    {
      "anonymous": false,
      "inputs": [
        {
          "indexed": true,
          "internalType": "address",
          "name": "previousOwner",
          "type": "address"
        },
        {
          "indexed": true,
          "internalType": "address",
          "name": "newOwner",
          "type": "address"
        }
      ],
      "name": "OwnershipTransferred",
      "type": "event"
    },
    {
      "anonymous": false,
      "inputs": [
        {
          "indexed": true,
          "internalType": "address",
          "name": "burner",
          "type": "address"
        },
        {
          "indexed": true,
          "internalType": "uint256",
          "name": "timestamp",
          "type": "uint256"
        },
        {
          "indexed": true,
          "internalType": "address",
          "name": "token",
          "type": "address"
        },
        {
          "indexed": false,
          "internalType": "uint256[]",
          "name": "ids",
          "type": "uint256[]"
        },
        {
          "indexed": false,
          "internalType": "uint256[]",
          "name": "values",
          "type": "uint256[]"
        }
      ],
      "name": "TokensBurnt",
      "type": "event"
    },
    {
      "inputs": [
        {
          "internalType": "address[]",
          "name": "tokens",
          "type": "address[]"
        },
        {
          "internalType": "uint256[][]",
          "name": "ids",
          "type": "uint256[][]"
        },
        {
          "internalType": "uint256[][]",
          "name": "values",
          "type": "uint256[][]"
        }
      ],
      "name": "burn",
      "outputs": [],
      "stateMutability": "nonpayable",
      "type": "function"
    },
    {
      "inputs": [
        {
          "internalType": "address[]",
          "name": "from",
          "type": "address[]"
        },
        {
          "internalType": "address[]",
          "name": "tokens",
          "type": "address[]"
        },
        {
          "internalType": "uint256[][]",
          "name": "ids",
          "type": "uint256[][]"
        },
        {
          "internalType": "uint256[][]",
          "name": "values",
          "type": "uint256[][]"
        }
      ],
      "name": "burnFor",
      "outputs": [],
      "stateMutability": "nonpayable",
      "type": "function"
    },
    {
      "inputs": [],
      "name": "forwarderRegistry",
      "outputs": [
        {
          "internalType": "contract IForwarderRegistry",
          "name": "",
          "type": "address"
        }
      ],
      "stateMutability": "view",
      "type": "function"
    },
    {
      "inputs": [
        {
          "internalType": "address",
          "name": "",
          "type": "address"
        }
      ],
      "name": "isApprovedTokens",
      "outputs": [
        {
          "internalType": "bool",
          "name": "",
          "type": "bool"
        }
      ],
      "stateMutability": "view",
      "type": "function"
    },
    {
      "inputs": [
        {
          "internalType": "address",
          "name": "forwarder",
          "type": "address"
        }
      ],
      "name": "isTrustedForwarder",
      "outputs": [
        {
          "internalType": "bool",
          "name": "",
          "type": "bool"
        }
      ],
      "stateMutability": "view",
      "type": "function"
    },
    {
      "inputs": [],
      "name": "owner",
      "outputs": [
        {
          "internalType": "address",
          "name": "",
          "type": "address"
        }
      ],
      "stateMutability": "view",
      "type": "function"
    },
    {
      "inputs": [
        {
          "internalType": "contract IERC1155Burnable[]",
          "name": "tokens",
          "type": "address[]"
        },
        {
          "internalType": "bool[]",
          "name": "enabled",
          "type": "bool[]"
        }
      ],
      "name": "setApprovedTokens",
      "outputs": [],
      "stateMutability": "nonpayable",
      "type": "function"
    },
    {
      "inputs": [
        {
          "internalType": "bytes4",
          "name": "interfaceId",
          "type": "bytes4"
        }
      ],
      "name": "supportsInterface",
      "outputs": [
        {
          "internalType": "bool",
          "name": "",
          "type": "bool"
        }
      ],
      "stateMutability": "view",
      "type": "function"
    },
    {
      "inputs": [
        {
          "internalType": "address",
          "name": "newOwner",
          "type": "address"
        }
      ],
      "name": "transferOwnership",
      "outputs": [],
      "stateMutability": "nonpayable",
      "type": "function"
    }
  ],
  "bytecode": "0x60a06040523480156200001157600080fd5b506040516200178838038062001788833981016040819052620000349162000236565b6001600160a01b03811660805233620000588162000051620000c5565b90620000fb565b5060005b8251811015620000bc576001600460008584815181106200008157620000816200031c565b6020908102919091018101516001600160a01b03168252810191909152604001600020805460ff19169115159190911790556001016200005c565b50505062000354565b600080620000f560017fc9ed16f33ab3a66c84bfd83099ccb2a8845871e2e1c1928f63797152f0fd54cd62000332565b92915050565b6001600160a01b03811615620001525781546001600160a01b0319166001600160a01b03821690811783556040516000907f8be0079c531659141344cd1fd0a4f28419497f9722a3daafe3b4186f6b6457e0908290a35b620001726307f5828d60e41b60016200016a62000176565b9190620001a6565b5050565b600080620000f560017fca9d3e17f264b0f3984e2634e94adb37fa3e6a8103f06aeae6fa59e21c769f5e62000332565b600160e01b6001600160e01b0319831601620001d5576040516372c683bb60e01b815260040160405180910390fd5b6001600160e01b03199190911660009081526020929092526040909120805460ff1916911515919091179055565b634e487b7160e01b600052604160045260246000fd5b80516001600160a01b03811681146200023157600080fd5b919050565b600080604083850312156200024a57600080fd5b82516001600160401b03808211156200026257600080fd5b818501915085601f8301126200027757600080fd5b81516020828211156200028e576200028e62000203565b8160051b604051601f19603f83011681018181108682111715620002b657620002b662000203565b604052928352818301935084810182019289841115620002d557600080fd5b948201945b83861015620002fe57620002ee8662000219565b85529482019493820193620002da565b96506200030f905087820162000219565b9450505050509250929050565b634e487b7160e01b600052603260045260246000fd5b81810381811115620000f557634e487b7160e01b600052601160045260246000fd5b608051611403620003856000396000818161010a0152818161015f01528181610e460152610ece01526114036000f3fe608060405234801561001057600080fd5b50600436106100a35760003560e01c8063572b6c051161007657806392463bed1161005b57806392463bed146101a4578063f0a71104146101b7578063f2fde38b146101ca57600080fd5b8063572b6c051461014f5780638da5cb5b1461019c57600080fd5b806301ffc9a7146100a85780630458935e146100d05780630a0a3325146100e55780632b4c9f1614610108575b600080fd5b6100bb6100b6366004610f4a565b6101dd565b60405190151581526020015b60405180910390f35b6100e36100de366004610fdf565b6101f7565b005b6100bb6100f336600461109b565b60046020526000908152604090205460ff1681565b7f00000000000000000000000000000000000000000000000000000000000000005b60405173ffffffffffffffffffffffffffffffffffffffff90911681526020016100c7565b6100bb61015d36600461109b565b7f000000000000000000000000000000000000000000000000000000000000000073ffffffffffffffffffffffffffffffffffffffff90811691161490565b61012a610528565b6100e36101b23660046110b8565b610554565b6100e36101c5366004611124565b610665565b6100e36101d836600461109b565b610b1c565b60006101f1826101eb610b3a565b90610b68565b92915050565b84831415806102065750848114155b1561023d576040517f35e83ac300000000000000000000000000000000000000000000000000000000815260040160405180910390fd5b60005b8581101561051f576004600088888481811061025e5761025e6111e8565b9050602002016020810190610273919061109b565b73ffffffffffffffffffffffffffffffffffffffff16815260208101919091526040016000205460ff166102d3576040517f32da96a300000000000000000000000000000000000000000000000000000000815260040160405180910390fd5b8282828181106102e5576102e56111e8565b90506020028101906102f79190611217565b905085858381811061030b5761030b6111e8565b905060200281019061031d9190611217565b905014610356576040517f35e83ac300000000000000000000000000000000000000000000000000000000815260040160405180910390fd5b868682818110610368576103686111e8565b905060200201602081019061037d919061109b565b73ffffffffffffffffffffffffffffffffffffffff1663805349346103a0610c42565b8787858181106103b2576103b26111e8565b90506020028101906103c49190611217565b8787878181106103d6576103d66111e8565b90506020028101906103e89190611217565b6040518663ffffffff1660e01b81526004016104089594939291906112ca565b600060405180830381600087803b15801561042257600080fd5b505af1158015610436573d6000803e3d6000fd5b5050505086868281811061044c5761044c6111e8565b9050602002016020810190610461919061109b565b73ffffffffffffffffffffffffffffffffffffffff1642610480610c42565b73ffffffffffffffffffffffffffffffffffffffff167f695b30a33e54e34d55c7836e092fa38db4283a5b243d2a8cfd4180ee227b2c0d8888868181106104c9576104c96111e8565b90506020028101906104db9190611217565b8888888181106104ed576104ed6111e8565b90506020028101906104ff9190611217565b60405161050f9493929190611319565b60405180910390a4600101610240565b50505050505050565b600061054f610535610c4c565b5473ffffffffffffffffffffffffffffffffffffffff1690565b905090565b61056d61055f610c42565b610567610c4c565b90610c7a565b8281146105a6576040517f35e83ac300000000000000000000000000000000000000000000000000000000815260040160405180910390fd5b60005b8381101561065e578282828181106105c3576105c36111e8565b90506020020160208101906105d89190611359565b600460008787858181106105ee576105ee6111e8565b9050602002016020810190610603919061109b565b73ffffffffffffffffffffffffffffffffffffffff168152602081019190915260400160002080547fffffffffffffffffffffffffffffffffffffffffffffffffffffffffffffff00169115159190911790556001016105a9565b5050505050565b86851415806106745750868314155b8061067f5750868114155b156106b6576040517f35e83ac300000000000000000000000000000000000000000000000000000000815260040160405180910390fd5b60005b87811015610b1157600460008888848181106106d7576106d76111e8565b90506020020160208101906106ec919061109b565b73ffffffffffffffffffffffffffffffffffffffff16815260208101919091526040016000205460ff1661074c576040517f32da96a300000000000000000000000000000000000000000000000000000000815260040160405180910390fd5b82828281811061075e5761075e6111e8565b90506020028101906107709190611217565b9050858583818110610784576107846111e8565b90506020028101906107969190611217565b9050146107cf576040517f35e83ac300000000000000000000000000000000000000000000000000000000815260040160405180910390fd5b8686828181106107e1576107e16111e8565b90506020020160208101906107f6919061109b565b73ffffffffffffffffffffffffffffffffffffffff1663e985e9c58a8a84818110610823576108236111e8565b9050602002016020810190610838919061109b565b610840610c42565b6040517fffffffff0000000000000000000000000000000000000000000000000000000060e085901b16815273ffffffffffffffffffffffffffffffffffffffff928316600482015291166024820152604401602060405180830381865afa1580156108b0573d6000803e3d6000fd5b505050506040513d601f19601f820116820180604052508101906108d49190611376565b61090a576040517f729d852800000000000000000000000000000000000000000000000000000000815260040160405180910390fd5b86868281811061091c5761091c6111e8565b9050602002016020810190610931919061109b565b73ffffffffffffffffffffffffffffffffffffffff1663805349348a8a8481811061095e5761095e6111e8565b9050602002016020810190610973919061109b565b878785818110610985576109856111e8565b90506020028101906109979190611217565b8787878181106109a9576109a96111e8565b90506020028101906109bb9190611217565b6040518663ffffffff1660e01b81526004016109db9594939291906112ca565b600060405180830381600087803b1580156109f557600080fd5b505af1158015610a09573d6000803e3d6000fd5b50505050868682818110610a1f57610a1f6111e8565b9050602002016020810190610a34919061109b565b73ffffffffffffffffffffffffffffffffffffffff16428a8a84818110610a5d57610a5d6111e8565b9050602002016020810190610a72919061109b565b73ffffffffffffffffffffffffffffffffffffffff167f695b30a33e54e34d55c7836e092fa38db4283a5b243d2a8cfd4180ee227b2c0d888886818110610abb57610abb6111e8565b9050602002810190610acd9190611217565b888888818110610adf57610adf6111e8565b9050602002810190610af19190611217565b604051610b019493929190611319565b60405180910390a46001016106b9565b505050505050505050565b610b37610b27610c42565b82610b30610c4c565b9190610cee565b50565b6000806101f160017fca9d3e17f264b0f3984e2634e94adb37fa3e6a8103f06aeae6fa59e21c769f5e611393565b60007c01000000000000000000000000000000000000000000000000000000007fffffffff00000000000000000000000000000000000000000000000000000000831601610bb8575060006101f1565b7ffe003659000000000000000000000000000000000000000000000000000000007fffffffff00000000000000000000000000000000000000000000000000000000831601610c09575060016101f1565b507fffffffff00000000000000000000000000000000000000000000000000000000166000908152602091909152604090205460ff1690565b600061054f610e03565b6000806101f160017fc9ed16f33ab3a66c84bfd83099ccb2a8845871e2e1c1928f63797152f0fd54cd611393565b815473ffffffffffffffffffffffffffffffffffffffff828116911614610cea576040517f2ef4875e00000000000000000000000000000000000000000000000000000000815273ffffffffffffffffffffffffffffffffffffffff821660048201526024015b60405180910390fd5b5050565b825473ffffffffffffffffffffffffffffffffffffffff9081169083168114610d5b576040517f2ef4875e00000000000000000000000000000000000000000000000000000000815273ffffffffffffffffffffffffffffffffffffffff84166004820152602401610ce1565b8173ffffffffffffffffffffffffffffffffffffffff168173ffffffffffffffffffffffffffffffffffffffff1614610dfd5783547fffffffffffffffffffffffff00000000000000000000000000000000000000001673ffffffffffffffffffffffffffffffffffffffff8381169182178655604051908316907f8be0079c531659141344cd1fd0a4f28419497f9722a3daafe3b4186f6b6457e090600090a35b50505050565b600033321480610e135750601836105b15610e1d57503390565b7fffffffffffffffffffffffffffffffffffffffffffffffffffffffffffffffec36013560601c7f000000000000000000000000000000000000000000000000000000000000000073ffffffffffffffffffffffffffffffffffffffff16331480610f3957506040517f8929a8ca00000000000000000000000000000000000000000000000000000000815273ffffffffffffffffffffffffffffffffffffffff82811660048301523360248301527f00000000000000000000000000000000000000000000000000000000000000001690638929a8ca90604401602060405180830381865afa158015610f15573d6000803e3d6000fd5b505050506040513d601f19601f82011682018060405250810190610f399190611376565b15610f4357919050565b3391505090565b600060208284031215610f5c57600080fd5b81357fffffffff0000000000000000000000000000000000000000000000000000000081168114610f8c57600080fd5b9392505050565b60008083601f840112610fa557600080fd5b50813567ffffffffffffffff811115610fbd57600080fd5b6020830191508360208260051b8501011115610fd857600080fd5b9250929050565b60008060008060008060608789031215610ff857600080fd5b863567ffffffffffffffff8082111561101057600080fd5b61101c8a838b01610f93565b9098509650602089013591508082111561103557600080fd5b6110418a838b01610f93565b9096509450604089013591508082111561105a57600080fd5b5061106789828a01610f93565b979a9699509497509295939492505050565b73ffffffffffffffffffffffffffffffffffffffff81168114610b3757600080fd5b6000602082840312156110ad57600080fd5b8135610f8c81611079565b600080600080604085870312156110ce57600080fd5b843567ffffffffffffffff808211156110e657600080fd5b6110f288838901610f93565b9096509450602087013591508082111561110b57600080fd5b5061111887828801610f93565b95989497509550505050565b6000806000806000806000806080898b03121561114057600080fd5b883567ffffffffffffffff8082111561115857600080fd5b6111648c838d01610f93565b909a50985060208b013591508082111561117d57600080fd5b6111898c838d01610f93565b909850965060408b01359150808211156111a257600080fd5b6111ae8c838d01610f93565b909650945060608b01359150808211156111c757600080fd5b506111d48b828c01610f93565b999c989b5096995094979396929594505050565b7f4e487b7100000000000000000000000000000000000000000000000000000000600052603260045260246000fd5b60008083357fffffffffffffffffffffffffffffffffffffffffffffffffffffffffffffffe184360301811261124c57600080fd5b83018035915067ffffffffffffffff82111561126757600080fd5b6020019150600581901b3603821315610fd857600080fd5b81835260007f07ffffffffffffffffffffffffffffffffffffffffffffffffffffffffffffff8311156112b157600080fd5b8260051b80836020870137939093016020019392505050565b73ffffffffffffffffffffffffffffffffffffffff861681526060602082015260006112fa60608301868861127f565b828103604084015261130d81858761127f565b98975050505050505050565b60408152600061132d60408301868861127f565b828103602084015261134081858761127f565b979650505050505050565b8015158114610b3757600080fd5b60006020828403121561136b57600080fd5b8135610f8c8161134b565b60006020828403121561138857600080fd5b8151610f8c8161134b565b818103818111156101f1577f4e487b7100000000000000000000000000000000000000000000000000000000600052601160045260246000fdfea26469706673582212201244fdf5c11cbfe6f3bd980bf3836301997e86ac4050a7ae584dba5b49b25bd164736f6c63430008160033",
  "linkReferences": {},
  "deployedLinkReferences": {}
}