{"contracts/mocks/TokenEscrow/TokenEscrowMock.sol":{"TokenEscrowMock":{"abi":[{"inputs":[{"internalType":"contract IForwarderRegistry","name":"forwarderRegistry","type":"address"},{"internalType":"contract IERC1155","name":"inventory_","type":"address"}],"stateMutability":"nonpayable","type":"constructor"},{"inputs":[{"internalType":"uint256","name":"tokenId","type":"uint256"},{"internalType":"uint256","name":"balance","type":"uint256"}],"name":"BalanceExceeded","type":"error"},{"inputs":[],"name":"InconsistentArrays","type":"error"},{"inputs":[{"internalType":"uint256","name":"tokenId","type":"uint256"},{"internalType":"uint256","name":"balance","type":"uint256"}],"name":"InsufficientBalance","type":"error"},{"inputs":[],"name":"InvalidInventory","type":"error"},{"inputs":[],"name":"UnsupportedMethod","type":"error"},{"anonymous":false,"inputs":[{"indexed":false,"internalType":"bytes","name":"data","type":"bytes"}],"name":"Data","type":"event"},{"anonymous":false,"inputs":[{"indexed":true,"internalType":"address","name":"user","type":"address"},{"indexed":false,"internalType":"uint256[]","name":"ids","type":"uint256[]"}],"name":"DepositTokens","type":"event"},{"anonymous":false,"inputs":[{"indexed":true,"internalType":"address","name":"previousOwner","type":"address"},{"indexed":true,"internalType":"address","name":"newOwner","type":"address"}],"name":"OwnershipTransferred","type":"event"},{"anonymous":false,"inputs":[{"indexed":true,"internalType":"address","name":"user","type":"address"},{"indexed":false,"internalType":"uint256[]","name":"ids","type":"uint256[]"}],"name":"WithdrawTokens","type":"event"},{"inputs":[],"name":"TOKEN_INVENTORY","outputs":[{"internalType":"contract IERC1155","name":"","type":"address"}],"stateMutability":"view","type":"function"},{"inputs":[{"internalType":"address","name":"account","type":"address"},{"internalType":"uint256","name":"id","type":"uint256"}],"name":"balanceOf","outputs":[{"internalType":"uint256","name":"","type":"uint256"}],"stateMutability":"view","type":"function"},{"inputs":[{"internalType":"uint256[]","name":"ids","type":"uint256[]"},{"internalType":"uint256[]","name":"values","type":"uint256[]"}],"name":"deposit","outputs":[],"stateMutability":"nonpayable","type":"function"},{"inputs":[{"internalType":"address","name":"","type":"address"},{"internalType":"uint256","name":"","type":"uint256"}],"name":"escrowedNFTs","outputs":[{"internalType":"uint256","name":"","type":"uint256"}],"stateMutability":"view","type":"function"},{"inputs":[],"name":"forwarderRegistry","outputs":[{"internalType":"contract IForwarderRegistry","name":"","type":"address"}],"stateMutability":"view","type":"function"},{"inputs":[{"internalType":"address","name":"forwarder","type":"address"}],"name":"isTrustedForwarder","outputs":[{"internalType":"bool","name":"","type":"bool"}],"stateMutability":"view","type":"function"},{"inputs":[],"name":"msgData","outputs":[],"stateMutability":"nonpayable","type":"function"},{"inputs":[{"internalType":"address","name":"","type":"address"},{"internalType":"address","name":"from","type":"address"},{"internalType":"uint256[]","name":"ids","type":"uint256[]"},{"internalType":"uint256[]","name":"values","type":"uint256[]"},{"internalType":"bytes","name":"","type":"bytes"}],"name":"onERC1155BatchReceived","outputs":[{"internalType":"bytes4","name":"","type":"bytes4"}],"stateMutability":"nonpayable","type":"function"},{"inputs":[{"internalType":"address","name":"","type":"address"},{"internalType":"address","name":"","type":"address"},{"internalType":"uint256","name":"","type":"uint256"},{"internalType":"uint256","name":"","type":"uint256"},{"internalType":"bytes","name":"","type":"bytes"}],"name":"onERC1155Received","outputs":[{"internalType":"bytes4","name":"","type":"bytes4"}],"stateMutability":"pure","type":"function"},{"inputs":[],"name":"owner","outputs":[{"internalType":"address","name":"","type":"address"}],"stateMutability":"view","type":"function"},{"inputs":[{"internalType":"address[]","name":"accounts","type":"address[]"},{"internalType":"contract IERC20[]","name":"tokens","type":"address[]"},{"internalType":"uint256[]","name":"amounts","type":"uint256[]"}],"name":"recoverERC20s","outputs":[],"stateMutability":"nonpayable","type":"function"},{"inputs":[{"internalType":"address[]","name":"accounts","type":"address[]"},{"internalType":"contract IERC721[]","name":"contracts","type":"address[]"},{"internalType":"uint256[]","name":"tokenIds","type":"uint256[]"}],"name":"recoverERC721s","outputs":[],"stateMutability":"nonpayable","type":"function"},{"inputs":[{"internalType":"address payable[]","name":"accounts","type":"address[]"},{"internalType":"uint256[]","name":"amounts","type":"uint256[]"}],"name":"recoverETH","outputs":[],"stateMutability":"nonpayable","type":"function"},{"inputs":[{"internalType":"bytes4","name":"interfaceId","type":"bytes4"}],"name":"supportsInterface","outputs":[{"internalType":"bool","name":"","type":"bool"}],"stateMutability":"view","type":"function"},{"inputs":[{"internalType":"address","name":"newOwner","type":"address"}],"name":"transferOwnership","outputs":[],"stateMutability":"nonpayable","type":"function"},{"inputs":[{"internalType":"uint256[]","name":"ids","type":"uint256[]"},{"internalType":"uint256[]","name":"values","type":"uint256[]"}],"name":"withdraw","outputs":[],"stateMutability":"nonpayable","type":"function"}],"devdoc":{"kind":"dev","methods":{"balanceOf(address,uint256)":{"params":{"account":"The address of the token holder","id":"The ID of the token"},"returns":{"_0":"balance The amount of token escrowed held by the token holder correponding to the token ID"}},"constructor":{"details":"Throws if the _inventory address is a zero address.ContractOwnership is required to initiate TokenRecovery","params":{"forwarderRegistry":"The forwarder registry contract information","inventory_":"The inventory contract address"}},"deposit(uint256[],uint256[])":{"details":"Batch transfer tokens from the sender to this contract","params":{"ids":"An array containing ids of each token being transferred (corresponds to orbTypes)","values":"An array containing amounts of each token being transferred (corresponds to quantities)"}},"isTrustedForwarder(address)":{"params":{"forwarder":"The forwarder to check."},"returns":{"_0":"True if `forwarder` is trusted, false if not."}},"onERC1155BatchReceived(address,address,uint256[],uint256[],bytes)":{"details":"Reverts if the sender is not in the inventory.Updates the escrowedTokens mapping.Reverts if the updated token balance is greater than 1Emits a {DepositTokens} event.","params":{"from":"The address which previously owned the token","ids":"An array containing ids of each token being transferred (corresponds to orbTypes)","values":"An array containing amounts of each token being transferred (corresponds to quantities)"},"returns":{"_0":"selector The function selector"}},"onERC1155Received(address,address,uint256,uint256,bytes)":{"details":"Reverts if this method has been triggered."},"owner()":{"returns":{"_0":"The address of the contract owner."}},"recoverERC20s(address[],address[],uint256[])":{"details":"Warning: this function should be overriden for contracts which are supposed to hold ERC20 tokens  so that the extraction is limited to only amounts sent accidentally.Reverts if the sender is not the contract owner.Reverts if `accounts`, `tokens` and `amounts` do not have the same length.Reverts if one of the ERC20 transfers fails for any reason.","params":{"accounts":"the list of accounts to transfer the tokens to.","amounts":"the list of token amounts to transfer.","tokens":"the list of ERC20 token addresses."}},"recoverERC721s(address[],address[],uint256[])":{"details":"Warning: this function should be overriden for contracts which are supposed to hold ERC721 tokens  so that the extraction is limited to only tokens sent accidentally.Reverts if the sender is not the contract owner.Reverts if `accounts`, `contracts` and `amounts` do not have the same length.Reverts if one of the ERC721 transfers fails for any reason.","params":{"accounts":"the list of accounts to transfer the tokens to.","contracts":"the list of ERC721 contract addresses.","tokenIds":"the list of token ids to transfer."}},"recoverETH(address[],uint256[])":{"details":"Note: While contracts can generally prevent accidental ETH transfer by implementating a reverting  `receive()` function, this can still be bypassed in a `selfdestruct(address)` scenario.Warning: this function should be overriden for contracts which are supposed to hold ETH tokens  so that the extraction is limited to only amounts sent accidentally.Reverts if the sender is not the contract owner.Reverts if `accounts` and `amounts` do not have the same length.Reverts if one of the ETH transfers fails for any reason.","params":{"accounts":"the list of accounts to transfer the tokens to.","amounts":"the list of token amounts to transfer."}},"supportsInterface(bytes4)":{"details":"Note: This function call must use less than 30 000 gas.","params":{"interfaceId":"the interface identifier to test."},"returns":{"_0":"True if the interface is supported, false if `interfaceId` is `0xffffffff` or if the interface is not supported."}},"transferOwnership(address)":{"details":"Reverts if the sender is not the contract owner.Emits an {OwnershipTransferred} event if `newOwner` is different from the current contract owner.","params":{"newOwner":"The address of the new contract owner. Using the zero address means renouncing ownership."}},"withdraw(uint256[],uint256[])":{"details":"Reverts if the array length of ids & values does not match.Reverts if the sender does not have enough balance.Updates the escrowedTokens mapping.Emits {WithdrawTokens} events.Transfers the token from this contract to the sender's address","params":{"ids":"An array containing ids of each token being transferred (corresponds to orbTypes)","values":"An array containing amounts of each token being transferred (corresponds to quantities)"}}},"title":"ORBNFTMock Contract","version":1},"evm":{"bytecode":{"linkReferences":{},"object":"60c06040523480156200001157600080fd5b5060405162001bab38038062001bab833981016040819052620000349162000277565b6001600160a01b03821660805281813362000073816200005f620000ea602090811b620009fc17901c565b6200012060201b62000a2a1790919060201c565b50620000ac630271189760e51b6001620000976200019e60201b62000a8e1760201c565b620001ce60201b62000abc179092919060201c565b6001600160a01b038116620000d457604051636524d08b60e01b815260040160405180910390fd5b6001600160a01b031660a05250620002d8915050565b6000806200011a60017fc9ed16f33ab3a66c84bfd83099ccb2a8845871e2e1c1928f63797152f0fd54cd620002b6565b92915050565b6001600160a01b03811615620001775781546001600160a01b0319166001600160a01b03821690811783556040516000907f8be0079c531659141344cd1fd0a4f28419497f9722a3daafe3b4186f6b6457e0908290a35b6200019a6307f5828d60e41b6001620000976200019e60201b62000a8e1760201c565b5050565b6000806200011a60017fca9d3e17f264b0f3984e2634e94adb37fa3e6a8103f06aeae6fa59e21c769f5e620002b6565b600160e01b6001600160e01b0319831601620002305760405162461bcd60e51b815260206004820152601f60248201527f496e74657266616365446574656374696f6e3a2077726f6e672076616c756500604482015260640160405180910390fd5b6001600160e01b03199190911660009081526020929092526040909120805460ff1916911515919091179055565b6001600160a01b03811681146200027457600080fd5b50565b600080604083850312156200028b57600080fd5b825162000298816200025e565b6020840151909250620002ab816200025e565b809150509250929050565b818103818111156200011a57634e487b7160e01b600052601160045260246000fd5b60805160a051611875620003366000396000818161015c01528181610529015281816105cd01526108a301526000818161011f0152818161018e01528181610e1301528181610e5101528181610fd60152610fff01526118756000f3fe608060405234801561001057600080fd5b50600436106100cf5760003560e01c8062fdd58e146100d457806301ffc9a7146100fa5780632b4c9f161461011d5780634dfde97a14610157578063572b6c051461017e57806373c8a958146101be57806381c197ed146101d35780638da5cb5b146101e6578063bc197c81146101ee578063c3666c361461021a578063c4c2bfdc1461022d578063f223885a14610235578063f23a6e6114610248578063f2fde38b1461025b578063f7ba94bd1461026e578063f997659a14610281575b600080fd5b6100e76100e236600461126d565b6102a9565b6040519081526020015b60405180910390f35b61010d610108366004611299565b6102d2565b60405190151581526020016100f1565b7f00000000000000000000000000000000000000000000000000000000000000005b6040516001600160a01b0390911681526020016100f1565b61013f7f000000000000000000000000000000000000000000000000000000000000000081565b61010d61018c3660046112ca565b7f00000000000000000000000000000000000000000000000000000000000000006001600160a01b0390811691161490565b6101d16101cc366004611332565b6102e6565b005b6101d16101e13660046113cb565b6103c9565b61013f6105a1565b6102016101fc366004611477565b6105c0565b6040516001600160e01b031990911681526020016100f1565b6101d1610228366004611332565b610737565b6101d1610860565b6101d16102433660046113cb565b6108a1565b610201610256366004611535565b61092c565b6101d16102693660046112ca565b610947565b6101d161027c3660046113cb565b610965565b6100e761028f36600461126d565b600060208181529281526040808220909352908152205481565b6001600160a01b0382166000908152602081815260408083208484529091529020545b92915050565b60006102cc826102e0610a8e565b90610b47565b6102ff6102f1610ba7565b6102f96109fc565b90610bb1565b84838114801561030e57508082145b6103335760405162461bcd60e51b815260040161032a9061159e565b60405180910390fd5b60005b8181146103bf576103b7888883818110610352576103526115d5565b905060200201602081019061036791906112ca565b858584818110610379576103796115d5565b90506020020135888885818110610392576103926115d5565b90506020020160208101906103a791906112ca565b6001600160a01b03169190610bdd565b600101610336565b5050505050505050565b8281146103e9576040516335e83ac360e01b815260040160405180910390fd5b60006103f3610ba7565b905060005b848110156104ce576000868683818110610414576104146115d5565b9050602002013590506000858584818110610431576104316115d5565b6001600160a01b03871660009081526020818152604080832088845282529091205491029290920135925050818110156104885760405163cf47918160e01b8152600481018490526024810182905260440161032a565b6104928282611601565b6001600160a01b0386166000908152602081815260408083209683529590529390932092909255508190506104c681611614565b9150506103f8565b50806001600160a01b03167f651c6d84833866465bf050fea9fb84dc59faf4fc13d4607553b539e31e53ff02868660405161050a92919061165f565b60405180910390a2604051631759616b60e11b81526001600160a01b037f00000000000000000000000000000000000000000000000000000000000000001690632eb2c2d69061056890309085908a908a908a908a90600401611673565b600060405180830381600087803b15801561058257600080fd5b505af1158015610596573d6000803e3d6000fd5b505050505050505050565b60006105bb6105ae6109fc565b546001600160a01b031690565b905090565b6000336001600160a01b037f0000000000000000000000000000000000000000000000000000000000000000161461060b57604051636524d08b60e01b815260040160405180910390fd5b60005b868110156106de57600088888381811061062a5761062a6115d5565b9050602002013590506000878784818110610647576106476115d5565b6001600160a01b038e1660009081526020818152604080832088845282529091205461067a9491909202013591506116d2565b905060018111156106a85760405163f4dcf56b60e01b8152600481018390526024810182905260440161032a565b6001600160a01b038b166000908152602081815260408083209483529390529190912055806106d681611614565b91505061060e565b50876001600160a01b03167fd4960fb57883d065fb41b7f993f9be3105af91fe2b595a398457e1ff226cdc50888860405161071a92919061165f565b60405180910390a25063bc197c8160e01b98975050505050505050565b6107426102f1610ba7565b84838114801561075157508082145b61076d5760405162461bcd60e51b815260040161032a9061159e565b60005b8181146103bf57858582818110610789576107896115d5565b905060200201602081019061079e91906112ca565b6001600160a01b03166323b872dd308a8a858181106107bf576107bf6115d5565b90506020020160208101906107d491906112ca565b8787868181106107e6576107e66115d5565b6040516001600160e01b031960e088901b1681526001600160a01b03958616600482015294909316602485015250602090910201356044820152606401600060405180830381600087803b15801561083d57600080fd5b505af1158015610851573d6000803e3d6000fd5b50505050806001019050610770565b7f0b76c48be4e2908f4c9d4eabaf7538e91577fd9ae26db46693fa8d861c6a42fb610889610c34565b6040516108979291906116e5565b60405180910390a1565b7f00000000000000000000000000000000000000000000000000000000000000006001600160a01b0316632eb2c2d66108d8610ba7565b30878787876040518763ffffffff1660e01b81526004016108fe96959493929190611673565b600060405180830381600087803b15801561091857600080fd5b505af11580156103bf573d6000803e3d6000fd5b600060405163036a2f6360e31b815260040160405180910390fd5b610962610952610ba7565b8261095b6109fc565b9190610c47565b50565b6109706102f1610ba7565b828181146109905760405162461bcd60e51b815260040161032a9061159e565b60005b8181146109f4576109ec8484838181106109af576109af6115d5565b905060200201358787848181106109c8576109c86115d5565b90506020020160208101906109dd91906112ca565b6001600160a01b031690610ccc565b600101610993565b505050505050565b6000806102cc60017fc9ed16f33ab3a66c84bfd83099ccb2a8845871e2e1c1928f63797152f0fd54cd611601565b6001600160a01b03811615610a6e5781546001600160a01b0319166001600160a01b0382169081178355604051600090600080516020611820833981519152908290a35b610a8a6307f5828d60e41b6001610a83610a8e565b9190610abc565b5050565b6000806102cc60017fca9d3e17f264b0f3984e2634e94adb37fa3e6a8103f06aeae6fa59e21c769f5e611601565b600160e01b6001600160e01b0319831601610b195760405162461bcd60e51b815260206004820152601f60248201527f496e74657266616365446574656374696f6e3a2077726f6e672076616c756500604482015260640161032a565b6001600160e01b03199190911660009081526020929092526040909120805460ff1916911515919091179055565b6000600160e01b6001600160e01b0319831601610b66575060006102cc565b63fe00365960e01b6001600160e01b0319831601610b86575060016102cc565b506001600160e01b0319166000908152602091909152604090205460ff1690565b60006105bb610de2565b81546001600160a01b03828116911614610a8a5760405162461bcd60e51b815260040161032a90611714565b604080516001600160a01b038416602482015260448082018490528251808303909101815260649091019091526020810180516001600160e01b031663a9059cbb60e01b179052610c2f908490610eda565b505050565b366000610c3f610fac565b915091509091565b82546001600160a01b039081169083168114610c755760405162461bcd60e51b815260040161032a90611714565b816001600160a01b0316816001600160a01b031614610cc65783546001600160a01b0319166001600160a01b0383811691821786556040519083169060008051602061182083398151915290600090a35b50505050565b80471015610d1c5760405162461bcd60e51b815260206004820152601d60248201527f416464726573733a20696e73756666696369656e742062616c616e6365000000604482015260640161032a565b6000826001600160a01b03168260405160006040518083038185875af1925050503d8060008114610d69576040519150601f19603f3d011682016040523d82523d6000602084013e610d6e565b606091505b5050905080610c2f5760405162461bcd60e51b815260206004820152603a60248201527f416464726573733a20756e61626c6520746f2073656e642076616c75652c20726044820152791958da5c1a595b9d081b585e481a185d99481c995d995c9d195960321b606482015260840161032a565b600033321480610df25750601836105b15610dfc57503390565b6000610e066110a9565b9050336001600160a01b037f0000000000000000000000000000000000000000000000000000000000000000161480610ec95750604051634494d46560e11b81526001600160a01b037f00000000000000000000000000000000000000000000000000000000000000001690638929a8ca90610e889084903390600401611746565b602060405180830381865afa158015610ea5573d6000803e3d6000fd5b505050506040513d601f19601f82011682018060405250810190610ec99190611760565b15610ed357919050565b3391505090565b6000610f2f826040518060400160405280602081526020017f5361666545524332303a206c6f772d6c6576656c2063616c6c206661696c6564815250856001600160a01b03166110b59092919063ffffffff16565b805190915015610c2f5780806020019051810190610f4d9190611760565b610c2f5760405162461bcd60e51b815260206004820152602a60248201527f5361666545524332303a204552433230206f7065726174696f6e20646964206e6044820152691bdd081cdd58d8d9595960b21b606482015260840161032a565b36600033321480610fbd5750601836105b15610fcb5750600091369150565b336001600160a01b037f000000000000000000000000000000000000000000000000000000000000000016148061109357507f00000000000000000000000000000000000000000000000000000000000000006001600160a01b0316638929a8ca6110346110a9565b336040518363ffffffff1660e01b8152600401611052929190611746565b602060405180830381865afa15801561106f573d6000803e3d6000fd5b505050506040513d601f19601f820116820180604052508101906110939190611760565b156110a057610c3f6110cc565b50600091369150565b60131936013560601c90565b60606110c484846000856110df565b949350505050565b366000610c3f6013198301828481611782565b6060824710156111405760405162461bcd60e51b815260206004820152602660248201527f416464726573733a20696e73756666696369656e742062616c616e636520666f6044820152651c8818d85b1b60d21b606482015260840161032a565b600080866001600160a01b0316858760405161115c91906117d0565b60006040518083038185875af1925050503d8060008114611199576040519150601f19603f3d011682016040523d82523d6000602084013e61119e565b606091505b50915091506111af878383876111ba565b979650505050505050565b60608315611229578251600003611222576001600160a01b0385163b6112225760405162461bcd60e51b815260206004820152601d60248201527f416464726573733a2063616c6c20746f206e6f6e2d636f6e7472616374000000604482015260640161032a565b50816110c4565b6110c4838381511561123e5781518083602001fd5b8060405162461bcd60e51b815260040161032a91906117ec565b6001600160a01b038116811461096257600080fd5b6000806040838503121561128057600080fd5b823561128b81611258565b946020939093013593505050565b6000602082840312156112ab57600080fd5b81356001600160e01b0319811681146112c357600080fd5b9392505050565b6000602082840312156112dc57600080fd5b81356112c381611258565b60008083601f8401126112f957600080fd5b5081356001600160401b0381111561131057600080fd5b6020830191508360208260051b850101111561132b57600080fd5b9250929050565b6000806000806000806060878903121561134b57600080fd5b86356001600160401b038082111561136257600080fd5b61136e8a838b016112e7565b9098509650602089013591508082111561138757600080fd5b6113938a838b016112e7565b909650945060408901359150808211156113ac57600080fd5b506113b989828a016112e7565b979a9699509497509295939492505050565b600080600080604085870312156113e157600080fd5b84356001600160401b03808211156113f857600080fd5b611404888389016112e7565b9096509450602087013591508082111561141d57600080fd5b5061142a878288016112e7565b95989497509550505050565b60008083601f84011261144857600080fd5b5081356001600160401b0381111561145f57600080fd5b60208301915083602082850101111561132b57600080fd5b60008060008060008060008060a0898b03121561149357600080fd5b883561149e81611258565b975060208901356114ae81611258565b965060408901356001600160401b03808211156114ca57600080fd5b6114d68c838d016112e7565b909850965060608b01359150808211156114ef57600080fd5b6114fb8c838d016112e7565b909650945060808b013591508082111561151457600080fd5b506115218b828c01611436565b999c989b5096995094979396929594505050565b60008060008060008060a0878903121561154e57600080fd5b863561155981611258565b9550602087013561156981611258565b9450604087013593506060870135925060808701356001600160401b0381111561159257600080fd5b6113b989828a01611436565b6020808252601d908201527f5265636f766572793a20696e636f6e73697374656e7420617272617973000000604082015260600190565b634e487b7160e01b600052603260045260246000fd5b634e487b7160e01b600052601160045260246000fd5b818103818111156102cc576102cc6115eb565b600060018201611626576116266115eb565b5060010190565b81835260006001600160fb1b0383111561164657600080fd5b8260051b80836020870137939093016020019392505050565b6020815260006110c460208301848661162d565b6001600160a01b0387811682528616602082015260a0604082018190526000906116a0908301868861162d565b82810360608401526116b381858761162d565b8381036080909401939093525050600081526020019695505050505050565b808201808211156102cc576102cc6115eb565b60208152816020820152818360408301376000818301604090810191909152601f909201601f19160101919050565b60208082526018908201527727bbb732b939b434b81d103737ba103a34329037bbb732b960411b604082015260600190565b6001600160a01b0392831681529116602082015260400190565b60006020828403121561177257600080fd5b815180151581146112c357600080fd5b6000808585111561179257600080fd5b8386111561179f57600080fd5b5050820193919092039150565b60005b838110156117c75781810151838201526020016117af565b50506000910152565b600082516117e28184602087016117ac565b9190910192915050565b602081526000825180602084015261180b8160408501602087016117ac565b601f01601f1916919091016040019291505056fe8be0079c531659141344cd1fd0a4f28419497f9722a3daafe3b4186f6b6457e0a264697066735822122034cc647a760667a019f7c66ceb962c1f9742bcc46f044a8d47ae590fc3f8d28864736f6c63430008110033","opcodes":"PUSH1 0xC0 PUSH1 0x40 MSTORE CALLVALUE DUP1 ISZERO PUSH3 0x11 JUMPI PUSH1 0x0 DUP1 REVERT JUMPDEST POP PUSH1 0x40 MLOAD PUSH3 0x1BAB CODESIZE SUB DUP1 PUSH3 0x1BAB DUP4 CODECOPY DUP2 ADD PUSH1 0x40 DUP2 SWAP1 MSTORE PUSH3 0x34 SWAP2 PUSH3 0x277 JUMP JUMPDEST PUSH1 0x1 PUSH1 0x1 PUSH1 0xA0 SHL SUB DUP3 AND PUSH1 0x80 MSTORE DUP2 DUP2 CALLER PUSH3 0x73 DUP2 PUSH3 0x5F PUSH3 0xEA PUSH1 0x20 SWAP1 DUP2 SHL PUSH3 0x9FC OR SWAP1 SHR JUMP JUMPDEST PUSH3 0x120 PUSH1 0x20 SHL PUSH3 0xA2A OR SWAP1 SWAP2 SWAP1 PUSH1 0x20 SHR JUMP JUMPDEST POP PUSH3 0xAC PUSH4 0x2711897 PUSH1 0xE5 SHL PUSH1 0x1 PUSH3 0x97 PUSH3 0x19E PUSH1 0x20 SHL PUSH3 0xA8E OR PUSH1 0x20 SHR JUMP JUMPDEST PUSH3 0x1CE PUSH1 0x20 SHL PUSH3 0xABC OR SWAP1 SWAP3 SWAP2 SWAP1 PUSH1 0x20 SHR JUMP JUMPDEST PUSH1 0x1 PUSH1 0x1 PUSH1 0xA0 SHL SUB DUP2 AND PUSH3 0xD4 JUMPI PUSH1 0x40 MLOAD PUSH4 0x6524D08B PUSH1 0xE0 SHL DUP2 MSTORE PUSH1 0x4 ADD PUSH1 0x40 MLOAD DUP1 SWAP2 SUB SWAP1 REVERT JUMPDEST PUSH1 0x1 PUSH1 0x1 PUSH1 0xA0 SHL SUB AND PUSH1 0xA0 MSTORE POP PUSH3 0x2D8 SWAP2 POP POP JUMP JUMPDEST PUSH1 0x0 DUP1 PUSH3 0x11A PUSH1 0x1 PUSH32 0xC9ED16F33AB3A66C84BFD83099CCB2A8845871E2E1C1928F63797152F0FD54CD PUSH3 0x2B6 JUMP JUMPDEST SWAP3 SWAP2 POP POP JUMP JUMPDEST PUSH1 0x1 PUSH1 0x1 PUSH1 0xA0 SHL SUB DUP2 AND ISZERO PUSH3 0x177 JUMPI DUP2 SLOAD PUSH1 0x1 PUSH1 0x1 PUSH1 0xA0 SHL SUB NOT AND PUSH1 0x1 PUSH1 0x1 PUSH1 0xA0 SHL SUB DUP3 AND SWAP1 DUP2 OR DUP4 SSTORE PUSH1 0x40 MLOAD PUSH1 0x0 SWAP1 PUSH32 0x8BE0079C531659141344CD1FD0A4F28419497F9722A3DAAFE3B4186F6B6457E0 SWAP1 DUP3 SWAP1 LOG3 JUMPDEST PUSH3 0x19A PUSH4 0x7F5828D PUSH1 0xE4 SHL PUSH1 0x1 PUSH3 0x97 PUSH3 0x19E PUSH1 0x20 SHL PUSH3 0xA8E OR PUSH1 0x20 SHR JUMP JUMPDEST POP POP JUMP JUMPDEST PUSH1 0x0 DUP1 PUSH3 0x11A PUSH1 0x1 PUSH32 0xCA9D3E17F264B0F3984E2634E94ADB37FA3E6A8103F06AEAE6FA59E21C769F5E PUSH3 0x2B6 JUMP JUMPDEST PUSH1 0x1 PUSH1 0xE0 SHL PUSH1 0x1 PUSH1 0x1 PUSH1 0xE0 SHL SUB NOT DUP4 AND ADD PUSH3 0x230 JUMPI PUSH1 0x40 MLOAD PUSH3 0x461BCD PUSH1 0xE5 SHL DUP2 MSTORE PUSH1 0x20 PUSH1 0x4 DUP3 ADD MSTORE PUSH1 0x1F PUSH1 0x24 DUP3 ADD MSTORE PUSH32 0x496E74657266616365446574656374696F6E3A2077726F6E672076616C756500 PUSH1 0x44 DUP3 ADD MSTORE PUSH1 0x64 ADD PUSH1 0x40 MLOAD DUP1 SWAP2 SUB SWAP1 REVERT JUMPDEST PUSH1 0x1 PUSH1 0x1 PUSH1 0xE0 SHL SUB NOT SWAP2 SWAP1 SWAP2 AND PUSH1 0x0 SWAP1 DUP2 MSTORE PUSH1 0x20 SWAP3 SWAP1 SWAP3 MSTORE PUSH1 0x40 SWAP1 SWAP2 KECCAK256 DUP1 SLOAD PUSH1 0xFF NOT AND SWAP2 ISZERO ISZERO SWAP2 SWAP1 SWAP2 OR SWAP1 SSTORE JUMP JUMPDEST PUSH1 0x1 PUSH1 0x1 PUSH1 0xA0 SHL SUB DUP2 AND DUP2 EQ PUSH3 0x274 JUMPI PUSH1 0x0 DUP1 REVERT JUMPDEST POP JUMP JUMPDEST PUSH1 0x0 DUP1 PUSH1 0x40 DUP4 DUP6 SUB SLT ISZERO PUSH3 0x28B JUMPI PUSH1 0x0 DUP1 REVERT JUMPDEST DUP3 MLOAD PUSH3 0x298 DUP2 PUSH3 0x25E JUMP JUMPDEST PUSH1 0x20 DUP5 ADD MLOAD SWAP1 SWAP3 POP PUSH3 0x2AB DUP2 PUSH3 0x25E JUMP JUMPDEST DUP1 SWAP2 POP POP SWAP3 POP SWAP3 SWAP1 POP JUMP JUMPDEST DUP2 DUP2 SUB DUP2 DUP2 GT ISZERO PUSH3 0x11A JUMPI PUSH4 0x4E487B71 PUSH1 0xE0 SHL PUSH1 0x0 MSTORE PUSH1 0x11 PUSH1 0x4 MSTORE PUSH1 0x24 PUSH1 0x0 REVERT JUMPDEST PUSH1 0x80 MLOAD PUSH1 0xA0 MLOAD PUSH2 0x1875 PUSH3 0x336 PUSH1 0x0 CODECOPY PUSH1 0x0 DUP2 DUP2 PUSH2 0x15C ADD MSTORE DUP2 DUP2 PUSH2 0x529 ADD MSTORE DUP2 DUP2 PUSH2 0x5CD ADD MSTORE PUSH2 0x8A3 ADD MSTORE PUSH1 0x0 DUP2 DUP2 PUSH2 0x11F ADD MSTORE DUP2 DUP2 PUSH2 0x18E ADD MSTORE DUP2 DUP2 PUSH2 0xE13 ADD MSTORE DUP2 DUP2 PUSH2 0xE51 ADD MSTORE DUP2 DUP2 PUSH2 0xFD6 ADD MSTORE PUSH2 0xFFF ADD MSTORE PUSH2 0x1875 PUSH1 0x0 RETURN INVALID PUSH1 0x80 PUSH1 0x40 MSTORE CALLVALUE DUP1 ISZERO PUSH2 0x10 JUMPI PUSH1 0x0 DUP1 REVERT JUMPDEST POP PUSH1 0x4 CALLDATASIZE LT PUSH2 0xCF JUMPI PUSH1 0x0 CALLDATALOAD PUSH1 0xE0 SHR DUP1 PUSH3 0xFDD58E EQ PUSH2 0xD4 JUMPI DUP1 PUSH4 0x1FFC9A7 EQ PUSH2 0xFA JUMPI DUP1 PUSH4 0x2B4C9F16 EQ PUSH2 0x11D JUMPI DUP1 PUSH4 0x4DFDE97A EQ PUSH2 0x157 JUMPI DUP1 PUSH4 0x572B6C05 EQ PUSH2 0x17E JUMPI DUP1 PUSH4 0x73C8A958 EQ PUSH2 0x1BE JUMPI DUP1 PUSH4 0x81C197ED EQ PUSH2 0x1D3 JUMPI DUP1 PUSH4 0x8DA5CB5B EQ PUSH2 0x1E6 JUMPI DUP1 PUSH4 0xBC197C81 EQ PUSH2 0x1EE JUMPI DUP1 PUSH4 0xC3666C36 EQ PUSH2 0x21A JUMPI DUP1 PUSH4 0xC4C2BFDC EQ PUSH2 0x22D JUMPI DUP1 PUSH4 0xF223885A EQ PUSH2 0x235 JUMPI DUP1 PUSH4 0xF23A6E61 EQ PUSH2 0x248 JUMPI DUP1 PUSH4 0xF2FDE38B EQ PUSH2 0x25B JUMPI DUP1 PUSH4 0xF7BA94BD EQ PUSH2 0x26E JUMPI DUP1 PUSH4 0xF997659A EQ PUSH2 0x281 JUMPI JUMPDEST PUSH1 0x0 DUP1 REVERT JUMPDEST PUSH2 0xE7 PUSH2 0xE2 CALLDATASIZE PUSH1 0x4 PUSH2 0x126D JUMP JUMPDEST PUSH2 0x2A9 JUMP JUMPDEST PUSH1 0x40 MLOAD SWAP1 DUP2 MSTORE PUSH1 0x20 ADD JUMPDEST PUSH1 0x40 MLOAD DUP1 SWAP2 SUB SWAP1 RETURN JUMPDEST PUSH2 0x10D PUSH2 0x108 CALLDATASIZE PUSH1 0x4 PUSH2 0x1299 JUMP JUMPDEST PUSH2 0x2D2 JUMP JUMPDEST PUSH1 0x40 MLOAD SWAP1 ISZERO ISZERO DUP2 MSTORE PUSH1 0x20 ADD PUSH2 0xF1 JUMP JUMPDEST PUSH32 0x0 JUMPDEST PUSH1 0x40 MLOAD PUSH1 0x1 PUSH1 0x1 PUSH1 0xA0 SHL SUB SWAP1 SWAP2 AND DUP2 MSTORE PUSH1 0x20 ADD PUSH2 0xF1 JUMP JUMPDEST PUSH2 0x13F PUSH32 0x0 DUP2 JUMP JUMPDEST PUSH2 0x10D PUSH2 0x18C CALLDATASIZE PUSH1 0x4 PUSH2 0x12CA JUMP JUMPDEST PUSH32 0x0 PUSH1 0x1 PUSH1 0x1 PUSH1 0xA0 SHL SUB SWAP1 DUP2 AND SWAP2 AND EQ SWAP1 JUMP JUMPDEST PUSH2 0x1D1 PUSH2 0x1CC CALLDATASIZE PUSH1 0x4 PUSH2 0x1332 JUMP JUMPDEST PUSH2 0x2E6 JUMP JUMPDEST STOP JUMPDEST PUSH2 0x1D1 PUSH2 0x1E1 CALLDATASIZE PUSH1 0x4 PUSH2 0x13CB JUMP JUMPDEST PUSH2 0x3C9 JUMP JUMPDEST PUSH2 0x13F PUSH2 0x5A1 JUMP JUMPDEST PUSH2 0x201 PUSH2 0x1FC CALLDATASIZE PUSH1 0x4 PUSH2 0x1477 JUMP JUMPDEST PUSH2 0x5C0 JUMP JUMPDEST PUSH1 0x40 MLOAD PUSH1 0x1 PUSH1 0x1 PUSH1 0xE0 SHL SUB NOT SWAP1 SWAP2 AND DUP2 MSTORE PUSH1 0x20 ADD PUSH2 0xF1 JUMP JUMPDEST PUSH2 0x1D1 PUSH2 0x228 CALLDATASIZE PUSH1 0x4 PUSH2 0x1332 JUMP JUMPDEST PUSH2 0x737 JUMP JUMPDEST PUSH2 0x1D1 PUSH2 0x860 JUMP JUMPDEST PUSH2 0x1D1 PUSH2 0x243 CALLDATASIZE PUSH1 0x4 PUSH2 0x13CB JUMP JUMPDEST PUSH2 0x8A1 JUMP JUMPDEST PUSH2 0x201 PUSH2 0x256 CALLDATASIZE PUSH1 0x4 PUSH2 0x1535 JUMP JUMPDEST PUSH2 0x92C JUMP JUMPDEST PUSH2 0x1D1 PUSH2 0x269 CALLDATASIZE PUSH1 0x4 PUSH2 0x12CA JUMP JUMPDEST PUSH2 0x947 JUMP JUMPDEST PUSH2 0x1D1 PUSH2 0x27C CALLDATASIZE PUSH1 0x4 PUSH2 0x13CB JUMP JUMPDEST PUSH2 0x965 JUMP JUMPDEST PUSH2 0xE7 PUSH2 0x28F CALLDATASIZE PUSH1 0x4 PUSH2 0x126D JUMP JUMPDEST PUSH1 0x0 PUSH1 0x20 DUP2 DUP2 MSTORE SWAP3 DUP2 MSTORE PUSH1 0x40 DUP1 DUP3 KECCAK256 SWAP1 SWAP4 MSTORE SWAP1 DUP2 MSTORE KECCAK256 SLOAD DUP2 JUMP JUMPDEST PUSH1 0x1 PUSH1 0x1 PUSH1 0xA0 SHL SUB DUP3 AND PUSH1 0x0 SWAP1 DUP2 MSTORE PUSH1 0x20 DUP2 DUP2 MSTORE PUSH1 0x40 DUP1 DUP4 KECCAK256 DUP5 DUP5 MSTORE SWAP1 SWAP2 MSTORE SWAP1 KECCAK256 SLOAD JUMPDEST SWAP3 SWAP2 POP POP JUMP JUMPDEST PUSH1 0x0 PUSH2 0x2CC DUP3 PUSH2 0x2E0 PUSH2 0xA8E JUMP JUMPDEST SWAP1 PUSH2 0xB47 JUMP JUMPDEST PUSH2 0x2FF PUSH2 0x2F1 PUSH2 0xBA7 JUMP JUMPDEST PUSH2 0x2F9 PUSH2 0x9FC JUMP JUMPDEST SWAP1 PUSH2 0xBB1 JUMP JUMPDEST DUP5 DUP4 DUP2 EQ DUP1 ISZERO PUSH2 0x30E JUMPI POP DUP1 DUP3 EQ JUMPDEST PUSH2 0x333 JUMPI PUSH1 0x40 MLOAD PUSH3 0x461BCD PUSH1 0xE5 SHL DUP2 MSTORE PUSH1 0x4 ADD PUSH2 0x32A SWAP1 PUSH2 0x159E JUMP JUMPDEST PUSH1 0x40 MLOAD DUP1 SWAP2 SUB SWAP1 REVERT JUMPDEST PUSH1 0x0 JUMPDEST DUP2 DUP2 EQ PUSH2 0x3BF JUMPI PUSH2 0x3B7 DUP9 DUP9 DUP4 DUP2 DUP2 LT PUSH2 0x352 JUMPI PUSH2 0x352 PUSH2 0x15D5 JUMP JUMPDEST SWAP1 POP PUSH1 0x20 MUL ADD PUSH1 0x20 DUP2 ADD SWAP1 PUSH2 0x367 SWAP2 SWAP1 PUSH2 0x12CA JUMP JUMPDEST DUP6 DUP6 DUP5 DUP2 DUP2 LT PUSH2 0x379 JUMPI PUSH2 0x379 PUSH2 0x15D5 JUMP JUMPDEST SWAP1 POP PUSH1 0x20 MUL ADD CALLDATALOAD DUP9 DUP9 DUP6 DUP2 DUP2 LT PUSH2 0x392 JUMPI PUSH2 0x392 PUSH2 0x15D5 JUMP JUMPDEST SWAP1 POP PUSH1 0x20 MUL ADD PUSH1 0x20 DUP2 ADD SWAP1 PUSH2 0x3A7 SWAP2 SWAP1 PUSH2 0x12CA JUMP JUMPDEST PUSH1 0x1 PUSH1 0x1 PUSH1 0xA0 SHL SUB AND SWAP2 SWAP1 PUSH2 0xBDD JUMP JUMPDEST PUSH1 0x1 ADD PUSH2 0x336 JUMP JUMPDEST POP POP POP POP POP POP POP POP JUMP JUMPDEST DUP3 DUP2 EQ PUSH2 0x3E9 JUMPI PUSH1 0x40 MLOAD PUSH4 0x35E83AC3 PUSH1 0xE0 SHL DUP2 MSTORE PUSH1 0x4 ADD PUSH1 0x40 MLOAD DUP1 SWAP2 SUB SWAP1 REVERT JUMPDEST PUSH1 0x0 PUSH2 0x3F3 PUSH2 0xBA7 JUMP JUMPDEST SWAP1 POP PUSH1 0x0 JUMPDEST DUP5 DUP2 LT ISZERO PUSH2 0x4CE JUMPI PUSH1 0x0 DUP7 DUP7 DUP4 DUP2 DUP2 LT PUSH2 0x414 JUMPI PUSH2 0x414 PUSH2 0x15D5 JUMP JUMPDEST SWAP1 POP PUSH1 0x20 MUL ADD CALLDATALOAD SWAP1 POP PUSH1 0x0 DUP6 DUP6 DUP5 DUP2 DUP2 LT PUSH2 0x431 JUMPI PUSH2 0x431 PUSH2 0x15D5 JUMP JUMPDEST PUSH1 0x1 PUSH1 0x1 PUSH1 0xA0 SHL SUB DUP8 AND PUSH1 0x0 SWAP1 DUP2 MSTORE PUSH1 0x20 DUP2 DUP2 MSTORE PUSH1 0x40 DUP1 DUP4 KECCAK256 DUP9 DUP5 MSTORE DUP3 MSTORE SWAP1 SWAP2 KECCAK256 SLOAD SWAP2 MUL SWAP3 SWAP1 SWAP3 ADD CALLDATALOAD SWAP3 POP POP DUP2 DUP2 LT ISZERO PUSH2 0x488 JUMPI PUSH1 0x40 MLOAD PUSH4 0xCF479181 PUSH1 0xE0 SHL DUP2 MSTORE PUSH1 0x4 DUP2 ADD DUP5 SWAP1 MSTORE PUSH1 0x24 DUP2 ADD DUP3 SWAP1 MSTORE PUSH1 0x44 ADD PUSH2 0x32A JUMP JUMPDEST PUSH2 0x492 DUP3 DUP3 PUSH2 0x1601 JUMP JUMPDEST PUSH1 0x1 PUSH1 0x1 PUSH1 0xA0 SHL SUB DUP7 AND PUSH1 0x0 SWAP1 DUP2 MSTORE PUSH1 0x20 DUP2 DUP2 MSTORE PUSH1 0x40 DUP1 DUP4 KECCAK256 SWAP7 DUP4 MSTORE SWAP6 SWAP1 MSTORE SWAP4 SWAP1 SWAP4 KECCAK256 SWAP3 SWAP1 SWAP3 SSTORE POP DUP2 SWAP1 POP PUSH2 0x4C6 DUP2 PUSH2 0x1614 JUMP JUMPDEST SWAP2 POP POP PUSH2 0x3F8 JUMP JUMPDEST POP DUP1 PUSH1 0x1 PUSH1 0x1 PUSH1 0xA0 SHL SUB AND PUSH32 0x651C6D84833866465BF050FEA9FB84DC59FAF4FC13D4607553B539E31E53FF02 DUP7 DUP7 PUSH1 0x40 MLOAD PUSH2 0x50A SWAP3 SWAP2 SWAP1 PUSH2 0x165F JUMP JUMPDEST PUSH1 0x40 MLOAD DUP1 SWAP2 SUB SWAP1 LOG2 PUSH1 0x40 MLOAD PUSH4 0x1759616B PUSH1 0xE1 SHL DUP2 MSTORE PUSH1 0x1 PUSH1 0x1 PUSH1 0xA0 SHL SUB PUSH32 0x0 AND SWAP1 PUSH4 0x2EB2C2D6 SWAP1 PUSH2 0x568 SWAP1 ADDRESS SWAP1 DUP6 SWAP1 DUP11 SWAP1 DUP11 SWAP1 DUP11 SWAP1 DUP11 SWAP1 PUSH1 0x4 ADD PUSH2 0x1673 JUMP JUMPDEST PUSH1 0x0 PUSH1 0x40 MLOAD DUP1 DUP4 SUB DUP2 PUSH1 0x0 DUP8 DUP1 EXTCODESIZE ISZERO DUP1 ISZERO PUSH2 0x582 JUMPI PUSH1 0x0 DUP1 REVERT JUMPDEST POP GAS CALL ISZERO DUP1 ISZERO PUSH2 0x596 JUMPI RETURNDATASIZE PUSH1 0x0 DUP1 RETURNDATACOPY RETURNDATASIZE PUSH1 0x0 REVERT JUMPDEST POP POP POP POP POP POP POP POP POP JUMP JUMPDEST PUSH1 0x0 PUSH2 0x5BB PUSH2 0x5AE PUSH2 0x9FC JUMP JUMPDEST SLOAD PUSH1 0x1 PUSH1 0x1 PUSH1 0xA0 SHL SUB AND SWAP1 JUMP JUMPDEST SWAP1 POP SWAP1 JUMP JUMPDEST PUSH1 0x0 CALLER PUSH1 0x1 PUSH1 0x1 PUSH1 0xA0 SHL SUB PUSH32 0x0 AND EQ PUSH2 0x60B JUMPI PUSH1 0x40 MLOAD PUSH4 0x6524D08B PUSH1 0xE0 SHL DUP2 MSTORE PUSH1 0x4 ADD PUSH1 0x40 MLOAD DUP1 SWAP2 SUB SWAP1 REVERT JUMPDEST PUSH1 0x0 JUMPDEST DUP7 DUP2 LT ISZERO PUSH2 0x6DE JUMPI PUSH1 0x0 DUP9 DUP9 DUP4 DUP2 DUP2 LT PUSH2 0x62A JUMPI PUSH2 0x62A PUSH2 0x15D5 JUMP JUMPDEST SWAP1 POP PUSH1 0x20 MUL ADD CALLDATALOAD SWAP1 POP PUSH1 0x0 DUP8 DUP8 DUP5 DUP2 DUP2 LT PUSH2 0x647 JUMPI PUSH2 0x647 PUSH2 0x15D5 JUMP JUMPDEST PUSH1 0x1 PUSH1 0x1 PUSH1 0xA0 SHL SUB DUP15 AND PUSH1 0x0 SWAP1 DUP2 MSTORE PUSH1 0x20 DUP2 DUP2 MSTORE PUSH1 0x40 DUP1 DUP4 KECCAK256 DUP9 DUP5 MSTORE DUP3 MSTORE SWAP1 SWAP2 KECCAK256 SLOAD PUSH2 0x67A SWAP5 SWAP2 SWAP1 SWAP3 MUL ADD CALLDATALOAD SWAP2 POP PUSH2 0x16D2 JUMP JUMPDEST SWAP1 POP PUSH1 0x1 DUP2 GT ISZERO PUSH2 0x6A8 JUMPI PUSH1 0x40 MLOAD PUSH4 0xF4DCF56B PUSH1 0xE0 SHL DUP2 MSTORE PUSH1 0x4 DUP2 ADD DUP4 SWAP1 MSTORE PUSH1 0x24 DUP2 ADD DUP3 SWAP1 MSTORE PUSH1 0x44 ADD PUSH2 0x32A JUMP JUMPDEST PUSH1 0x1 PUSH1 0x1 PUSH1 0xA0 SHL SUB DUP12 AND PUSH1 0x0 SWAP1 DUP2 MSTORE PUSH1 0x20 DUP2 DUP2 MSTORE PUSH1 0x40 DUP1 DUP4 KECCAK256 SWAP5 DUP4 MSTORE SWAP4 SWAP1 MSTORE SWAP2 SWAP1 SWAP2 KECCAK256 SSTORE DUP1 PUSH2 0x6D6 DUP2 PUSH2 0x1614 JUMP JUMPDEST SWAP2 POP POP PUSH2 0x60E JUMP JUMPDEST POP DUP8 PUSH1 0x1 PUSH1 0x1 PUSH1 0xA0 SHL SUB AND PUSH32 0xD4960FB57883D065FB41B7F993F9BE3105AF91FE2B595A398457E1FF226CDC50 DUP9 DUP9 PUSH1 0x40 MLOAD PUSH2 0x71A SWAP3 SWAP2 SWAP1 PUSH2 0x165F JUMP JUMPDEST PUSH1 0x40 MLOAD DUP1 SWAP2 SUB SWAP1 LOG2 POP PUSH4 0xBC197C81 PUSH1 0xE0 SHL SWAP9 SWAP8 POP POP POP POP POP POP POP POP JUMP JUMPDEST PUSH2 0x742 PUSH2 0x2F1 PUSH2 0xBA7 JUMP JUMPDEST DUP5 DUP4 DUP2 EQ DUP1 ISZERO PUSH2 0x751 JUMPI POP DUP1 DUP3 EQ JUMPDEST PUSH2 0x76D JUMPI PUSH1 0x40 MLOAD PUSH3 0x461BCD PUSH1 0xE5 SHL DUP2 MSTORE PUSH1 0x4 ADD PUSH2 0x32A SWAP1 PUSH2 0x159E JUMP JUMPDEST PUSH1 0x0 JUMPDEST DUP2 DUP2 EQ PUSH2 0x3BF JUMPI DUP6 DUP6 DUP3 DUP2 DUP2 LT PUSH2 0x789 JUMPI PUSH2 0x789 PUSH2 0x15D5 JUMP JUMPDEST SWAP1 POP PUSH1 0x20 MUL ADD PUSH1 0x20 DUP2 ADD SWAP1 PUSH2 0x79E SWAP2 SWAP1 PUSH2 0x12CA JUMP JUMPDEST PUSH1 0x1 PUSH1 0x1 PUSH1 0xA0 SHL SUB AND PUSH4 0x23B872DD ADDRESS DUP11 DUP11 DUP6 DUP2 DUP2 LT PUSH2 0x7BF JUMPI PUSH2 0x7BF PUSH2 0x15D5 JUMP JUMPDEST SWAP1 POP PUSH1 0x20 MUL ADD PUSH1 0x20 DUP2 ADD SWAP1 PUSH2 0x7D4 SWAP2 SWAP1 PUSH2 0x12CA JUMP JUMPDEST DUP8 DUP8 DUP7 DUP2 DUP2 LT PUSH2 0x7E6 JUMPI PUSH2 0x7E6 PUSH2 0x15D5 JUMP JUMPDEST PUSH1 0x40 MLOAD PUSH1 0x1 PUSH1 0x1 PUSH1 0xE0 SHL SUB NOT PUSH1 0xE0 DUP9 SWAP1 SHL AND DUP2 MSTORE PUSH1 0x1 PUSH1 0x1 PUSH1 0xA0 SHL SUB SWAP6 DUP7 AND PUSH1 0x4 DUP3 ADD MSTORE SWAP5 SWAP1 SWAP4 AND PUSH1 0x24 DUP6 ADD MSTORE POP PUSH1 0x20 SWAP1 SWAP2 MUL ADD CALLDATALOAD PUSH1 0x44 DUP3 ADD MSTORE PUSH1 0x64 ADD PUSH1 0x0 PUSH1 0x40 MLOAD DUP1 DUP4 SUB DUP2 PUSH1 0x0 DUP8 DUP1 EXTCODESIZE ISZERO DUP1 ISZERO PUSH2 0x83D JUMPI PUSH1 0x0 DUP1 REVERT JUMPDEST POP GAS CALL ISZERO DUP1 ISZERO PUSH2 0x851 JUMPI RETURNDATASIZE PUSH1 0x0 DUP1 RETURNDATACOPY RETURNDATASIZE PUSH1 0x0 REVERT JUMPDEST POP POP POP POP DUP1 PUSH1 0x1 ADD SWAP1 POP PUSH2 0x770 JUMP JUMPDEST PUSH32 0xB76C48BE4E2908F4C9D4EABAF7538E91577FD9AE26DB46693FA8D861C6A42FB PUSH2 0x889 PUSH2 0xC34 JUMP JUMPDEST PUSH1 0x40 MLOAD PUSH2 0x897 SWAP3 SWAP2 SWAP1 PUSH2 0x16E5 JUMP JUMPDEST PUSH1 0x40 MLOAD DUP1 SWAP2 SUB SWAP1 LOG1 JUMP JUMPDEST PUSH32 0x0 PUSH1 0x1 PUSH1 0x1 PUSH1 0xA0 SHL SUB AND PUSH4 0x2EB2C2D6 PUSH2 0x8D8 PUSH2 0xBA7 JUMP JUMPDEST ADDRESS DUP8 DUP8 DUP8 DUP8 PUSH1 0x40 MLOAD DUP8 PUSH4 0xFFFFFFFF AND PUSH1 0xE0 SHL DUP2 MSTORE PUSH1 0x4 ADD PUSH2 0x8FE SWAP7 SWAP6 SWAP5 SWAP4 SWAP3 SWAP2 SWAP1 PUSH2 0x1673 JUMP JUMPDEST PUSH1 0x0 PUSH1 0x40 MLOAD DUP1 DUP4 SUB DUP2 PUSH1 0x0 DUP8 DUP1 EXTCODESIZE ISZERO DUP1 ISZERO PUSH2 0x918 JUMPI PUSH1 0x0 DUP1 REVERT JUMPDEST POP GAS CALL ISZERO DUP1 ISZERO PUSH2 0x3BF JUMPI RETURNDATASIZE PUSH1 0x0 DUP1 RETURNDATACOPY RETURNDATASIZE PUSH1 0x0 REVERT JUMPDEST PUSH1 0x0 PUSH1 0x40 MLOAD PUSH4 0x36A2F63 PUSH1 0xE3 SHL DUP2 MSTORE PUSH1 0x4 ADD PUSH1 0x40 MLOAD DUP1 SWAP2 SUB SWAP1 REVERT JUMPDEST PUSH2 0x962 PUSH2 0x952 PUSH2 0xBA7 JUMP JUMPDEST DUP3 PUSH2 0x95B PUSH2 0x9FC JUMP JUMPDEST SWAP2 SWAP1 PUSH2 0xC47 JUMP JUMPDEST POP JUMP JUMPDEST PUSH2 0x970 PUSH2 0x2F1 PUSH2 0xBA7 JUMP JUMPDEST DUP3 DUP2 DUP2 EQ PUSH2 0x990 JUMPI PUSH1 0x40 MLOAD PUSH3 0x461BCD PUSH1 0xE5 SHL DUP2 MSTORE PUSH1 0x4 ADD PUSH2 0x32A SWAP1 PUSH2 0x159E JUMP JUMPDEST PUSH1 0x0 JUMPDEST DUP2 DUP2 EQ PUSH2 0x9F4 JUMPI PUSH2 0x9EC DUP5 DUP5 DUP4 DUP2 DUP2 LT PUSH2 0x9AF JUMPI PUSH2 0x9AF PUSH2 0x15D5 JUMP JUMPDEST SWAP1 POP PUSH1 0x20 MUL ADD CALLDATALOAD DUP8 DUP8 DUP5 DUP2 DUP2 LT PUSH2 0x9C8 JUMPI PUSH2 0x9C8 PUSH2 0x15D5 JUMP JUMPDEST SWAP1 POP PUSH1 0x20 MUL ADD PUSH1 0x20 DUP2 ADD SWAP1 PUSH2 0x9DD SWAP2 SWAP1 PUSH2 0x12CA JUMP JUMPDEST PUSH1 0x1 PUSH1 0x1 PUSH1 0xA0 SHL SUB AND SWAP1 PUSH2 0xCCC JUMP JUMPDEST PUSH1 0x1 ADD PUSH2 0x993 JUMP JUMPDEST POP POP POP POP POP POP JUMP JUMPDEST PUSH1 0x0 DUP1 PUSH2 0x2CC PUSH1 0x1 PUSH32 0xC9ED16F33AB3A66C84BFD83099CCB2A8845871E2E1C1928F63797152F0FD54CD PUSH2 0x1601 JUMP JUMPDEST PUSH1 0x1 PUSH1 0x1 PUSH1 0xA0 SHL SUB DUP2 AND ISZERO PUSH2 0xA6E JUMPI DUP2 SLOAD PUSH1 0x1 PUSH1 0x1 PUSH1 0xA0 SHL SUB NOT AND PUSH1 0x1 PUSH1 0x1 PUSH1 0xA0 SHL SUB DUP3 AND SWAP1 DUP2 OR DUP4 SSTORE PUSH1 0x40 MLOAD PUSH1 0x0 SWAP1 PUSH1 0x0 DUP1 MLOAD PUSH1 0x20 PUSH2 0x1820 DUP4 CODECOPY DUP2 MLOAD SWAP2 MSTORE SWAP1 DUP3 SWAP1 LOG3 JUMPDEST PUSH2 0xA8A PUSH4 0x7F5828D PUSH1 0xE4 SHL PUSH1 0x1 PUSH2 0xA83 PUSH2 0xA8E JUMP JUMPDEST SWAP2 SWAP1 PUSH2 0xABC JUMP JUMPDEST POP POP JUMP JUMPDEST PUSH1 0x0 DUP1 PUSH2 0x2CC PUSH1 0x1 PUSH32 0xCA9D3E17F264B0F3984E2634E94ADB37FA3E6A8103F06AEAE6FA59E21C769F5E PUSH2 0x1601 JUMP JUMPDEST PUSH1 0x1 PUSH1 0xE0 SHL PUSH1 0x1 PUSH1 0x1 PUSH1 0xE0 SHL SUB NOT DUP4 AND ADD PUSH2 0xB19 JUMPI PUSH1 0x40 MLOAD PUSH3 0x461BCD PUSH1 0xE5 SHL DUP2 MSTORE PUSH1 0x20 PUSH1 0x4 DUP3 ADD MSTORE PUSH1 0x1F PUSH1 0x24 DUP3 ADD MSTORE PUSH32 0x496E74657266616365446574656374696F6E3A2077726F6E672076616C756500 PUSH1 0x44 DUP3 ADD MSTORE PUSH1 0x64 ADD PUSH2 0x32A JUMP JUMPDEST PUSH1 0x1 PUSH1 0x1 PUSH1 0xE0 SHL SUB NOT SWAP2 SWAP1 SWAP2 AND PUSH1 0x0 SWAP1 DUP2 MSTORE PUSH1 0x20 SWAP3 SWAP1 SWAP3 MSTORE PUSH1 0x40 SWAP1 SWAP2 KECCAK256 DUP1 SLOAD PUSH1 0xFF NOT AND SWAP2 ISZERO ISZERO SWAP2 SWAP1 SWAP2 OR SWAP1 SSTORE JUMP JUMPDEST PUSH1 0x0 PUSH1 0x1 PUSH1 0xE0 SHL PUSH1 0x1 PUSH1 0x1 PUSH1 0xE0 SHL SUB NOT DUP4 AND ADD PUSH2 0xB66 JUMPI POP PUSH1 0x0 PUSH2 0x2CC JUMP JUMPDEST PUSH4 0xFE003659 PUSH1 0xE0 SHL PUSH1 0x1 PUSH1 0x1 PUSH1 0xE0 SHL SUB NOT DUP4 AND ADD PUSH2 0xB86 JUMPI POP PUSH1 0x1 PUSH2 0x2CC JUMP JUMPDEST POP PUSH1 0x1 PUSH1 0x1 PUSH1 0xE0 SHL SUB NOT AND PUSH1 0x0 SWAP1 DUP2 MSTORE PUSH1 0x20 SWAP2 SWAP1 SWAP2 MSTORE PUSH1 0x40 SWAP1 KECCAK256 SLOAD PUSH1 0xFF AND SWAP1 JUMP JUMPDEST PUSH1 0x0 PUSH2 0x5BB PUSH2 0xDE2 JUMP JUMPDEST DUP2 SLOAD PUSH1 0x1 PUSH1 0x1 PUSH1 0xA0 SHL SUB DUP3 DUP2 AND SWAP2 AND EQ PUSH2 0xA8A JUMPI PUSH1 0x40 MLOAD PUSH3 0x461BCD PUSH1 0xE5 SHL DUP2 MSTORE PUSH1 0x4 ADD PUSH2 0x32A SWAP1 PUSH2 0x1714 JUMP JUMPDEST PUSH1 0x40 DUP1 MLOAD PUSH1 0x1 PUSH1 0x1 PUSH1 0xA0 SHL SUB DUP5 AND PUSH1 0x24 DUP3 ADD MSTORE PUSH1 0x44 DUP1 DUP3 ADD DUP5 SWAP1 MSTORE DUP3 MLOAD DUP1 DUP4 SUB SWAP1 SWAP2 ADD DUP2 MSTORE PUSH1 0x64 SWAP1 SWAP2 ADD SWAP1 SWAP2 MSTORE PUSH1 0x20 DUP2 ADD DUP1 MLOAD PUSH1 0x1 PUSH1 0x1 PUSH1 0xE0 SHL SUB AND PUSH4 0xA9059CBB PUSH1 0xE0 SHL OR SWAP1 MSTORE PUSH2 0xC2F SWAP1 DUP5 SWAP1 PUSH2 0xEDA JUMP JUMPDEST POP POP POP JUMP JUMPDEST CALLDATASIZE PUSH1 0x0 PUSH2 0xC3F PUSH2 0xFAC JUMP JUMPDEST SWAP2 POP SWAP2 POP SWAP1 SWAP2 JUMP JUMPDEST DUP3 SLOAD PUSH1 0x1 PUSH1 0x1 PUSH1 0xA0 SHL SUB SWAP1 DUP2 AND SWAP1 DUP4 AND DUP2 EQ PUSH2 0xC75 JUMPI PUSH1 0x40 MLOAD PUSH3 0x461BCD PUSH1 0xE5 SHL DUP2 MSTORE PUSH1 0x4 ADD PUSH2 0x32A SWAP1 PUSH2 0x1714 JUMP JUMPDEST DUP2 PUSH1 0x1 PUSH1 0x1 PUSH1 0xA0 SHL SUB AND DUP2 PUSH1 0x1 PUSH1 0x1 PUSH1 0xA0 SHL SUB AND EQ PUSH2 0xCC6 JUMPI DUP4 SLOAD PUSH1 0x1 PUSH1 0x1 PUSH1 0xA0 SHL SUB NOT AND PUSH1 0x1 PUSH1 0x1 PUSH1 0xA0 SHL SUB DUP4 DUP2 AND SWAP2 DUP3 OR DUP7 SSTORE PUSH1 0x40 MLOAD SWAP1 DUP4 AND SWAP1 PUSH1 0x0 DUP1 MLOAD PUSH1 0x20 PUSH2 0x1820 DUP4 CODECOPY DUP2 MLOAD SWAP2 MSTORE SWAP1 PUSH1 0x0 SWAP1 LOG3 JUMPDEST POP POP POP POP JUMP JUMPDEST DUP1 SELFBALANCE LT ISZERO PUSH2 0xD1C JUMPI PUSH1 0x40 MLOAD PUSH3 0x461BCD PUSH1 0xE5 SHL DUP2 MSTORE PUSH1 0x20 PUSH1 0x4 DUP3 ADD MSTORE PUSH1 0x1D PUSH1 0x24 DUP3 ADD MSTORE PUSH32 0x416464726573733A20696E73756666696369656E742062616C616E6365000000 PUSH1 0x44 DUP3 ADD MSTORE PUSH1 0x64 ADD PUSH2 0x32A JUMP JUMPDEST PUSH1 0x0 DUP3 PUSH1 0x1 PUSH1 0x1 PUSH1 0xA0 SHL SUB AND DUP3 PUSH1 0x40 MLOAD PUSH1 0x0 PUSH1 0x40 MLOAD DUP1 DUP4 SUB DUP2 DUP6 DUP8 GAS CALL SWAP3 POP POP POP RETURNDATASIZE DUP1 PUSH1 0x0 DUP2 EQ PUSH2 0xD69 JUMPI PUSH1 0x40 MLOAD SWAP2 POP PUSH1 0x1F NOT PUSH1 0x3F RETURNDATASIZE ADD AND DUP3 ADD PUSH1 0x40 MSTORE RETURNDATASIZE DUP3 MSTORE RETURNDATASIZE PUSH1 0x0 PUSH1 0x20 DUP5 ADD RETURNDATACOPY PUSH2 0xD6E JUMP JUMPDEST PUSH1 0x60 SWAP2 POP JUMPDEST POP POP SWAP1 POP DUP1 PUSH2 0xC2F JUMPI PUSH1 0x40 MLOAD PUSH3 0x461BCD PUSH1 0xE5 SHL DUP2 MSTORE PUSH1 0x20 PUSH1 0x4 DUP3 ADD MSTORE PUSH1 0x3A PUSH1 0x24 DUP3 ADD MSTORE PUSH32 0x416464726573733A20756E61626C6520746F2073656E642076616C75652C2072 PUSH1 0x44 DUP3 ADD MSTORE PUSH26 0x1958DA5C1A595B9D081B585E481A185D99481C995D995C9D1959 PUSH1 0x32 SHL PUSH1 0x64 DUP3 ADD MSTORE PUSH1 0x84 ADD PUSH2 0x32A JUMP JUMPDEST PUSH1 0x0 CALLER ORIGIN EQ DUP1 PUSH2 0xDF2 JUMPI POP PUSH1 0x18 CALLDATASIZE LT JUMPDEST ISZERO PUSH2 0xDFC JUMPI POP CALLER SWAP1 JUMP JUMPDEST PUSH1 0x0 PUSH2 0xE06 PUSH2 0x10A9 JUMP JUMPDEST SWAP1 POP CALLER PUSH1 0x1 PUSH1 0x1 PUSH1 0xA0 SHL SUB PUSH32 0x0 AND EQ DUP1 PUSH2 0xEC9 JUMPI POP PUSH1 0x40 MLOAD PUSH4 0x4494D465 PUSH1 0xE1 SHL DUP2 MSTORE PUSH1 0x1 PUSH1 0x1 PUSH1 0xA0 SHL SUB PUSH32 0x0 AND SWAP1 PUSH4 0x8929A8CA SWAP1 PUSH2 0xE88 SWAP1 DUP5 SWAP1 CALLER SWAP1 PUSH1 0x4 ADD PUSH2 0x1746 JUMP JUMPDEST PUSH1 0x20 PUSH1 0x40 MLOAD DUP1 DUP4 SUB DUP2 DUP7 GAS STATICCALL ISZERO DUP1 ISZERO PUSH2 0xEA5 JUMPI RETURNDATASIZE PUSH1 0x0 DUP1 RETURNDATACOPY RETURNDATASIZE PUSH1 0x0 REVERT JUMPDEST POP POP POP POP PUSH1 0x40 MLOAD RETURNDATASIZE PUSH1 0x1F NOT PUSH1 0x1F DUP3 ADD AND DUP3 ADD DUP1 PUSH1 0x40 MSTORE POP DUP2 ADD SWAP1 PUSH2 0xEC9 SWAP2 SWAP1 PUSH2 0x1760 JUMP JUMPDEST ISZERO PUSH2 0xED3 JUMPI SWAP2 SWAP1 POP JUMP JUMPDEST CALLER SWAP2 POP POP SWAP1 JUMP JUMPDEST PUSH1 0x0 PUSH2 0xF2F DUP3 PUSH1 0x40 MLOAD DUP1 PUSH1 0x40 ADD PUSH1 0x40 MSTORE DUP1 PUSH1 0x20 DUP2 MSTORE PUSH1 0x20 ADD PUSH32 0x5361666545524332303A206C6F772D6C6576656C2063616C6C206661696C6564 DUP2 MSTORE POP DUP6 PUSH1 0x1 PUSH1 0x1 PUSH1 0xA0 SHL SUB AND PUSH2 0x10B5 SWAP1 SWAP3 SWAP2 SWAP1 PUSH4 0xFFFFFFFF AND JUMP JUMPDEST DUP1 MLOAD SWAP1 SWAP2 POP ISZERO PUSH2 0xC2F JUMPI DUP1 DUP1 PUSH1 0x20 ADD SWAP1 MLOAD DUP2 ADD SWAP1 PUSH2 0xF4D SWAP2 SWAP1 PUSH2 0x1760 JUMP JUMPDEST PUSH2 0xC2F JUMPI PUSH1 0x40 MLOAD PUSH3 0x461BCD PUSH1 0xE5 SHL DUP2 MSTORE PUSH1 0x20 PUSH1 0x4 DUP3 ADD MSTORE PUSH1 0x2A PUSH1 0x24 DUP3 ADD MSTORE PUSH32 0x5361666545524332303A204552433230206F7065726174696F6E20646964206E PUSH1 0x44 DUP3 ADD MSTORE PUSH10 0x1BDD081CDD58D8D95959 PUSH1 0xB2 SHL PUSH1 0x64 DUP3 ADD MSTORE PUSH1 0x84 ADD PUSH2 0x32A JUMP JUMPDEST CALLDATASIZE PUSH1 0x0 CALLER ORIGIN EQ DUP1 PUSH2 0xFBD JUMPI POP PUSH1 0x18 CALLDATASIZE LT JUMPDEST ISZERO PUSH2 0xFCB JUMPI POP PUSH1 0x0 SWAP2 CALLDATASIZE SWAP2 POP JUMP JUMPDEST CALLER PUSH1 0x1 PUSH1 0x1 PUSH1 0xA0 SHL SUB PUSH32 0x0 AND EQ DUP1 PUSH2 0x1093 JUMPI POP PUSH32 0x0 PUSH1 0x1 PUSH1 0x1 PUSH1 0xA0 SHL SUB AND PUSH4 0x8929A8CA PUSH2 0x1034 PUSH2 0x10A9 JUMP JUMPDEST CALLER PUSH1 0x40 MLOAD DUP4 PUSH4 0xFFFFFFFF AND PUSH1 0xE0 SHL DUP2 MSTORE PUSH1 0x4 ADD PUSH2 0x1052 SWAP3 SWAP2 SWAP1 PUSH2 0x1746 JUMP JUMPDEST PUSH1 0x20 PUSH1 0x40 MLOAD DUP1 DUP4 SUB DUP2 DUP7 GAS STATICCALL ISZERO DUP1 ISZERO PUSH2 0x106F JUMPI RETURNDATASIZE PUSH1 0x0 DUP1 RETURNDATACOPY RETURNDATASIZE PUSH1 0x0 REVERT JUMPDEST POP POP POP POP PUSH1 0x40 MLOAD RETURNDATASIZE PUSH1 0x1F NOT PUSH1 0x1F DUP3 ADD AND DUP3 ADD DUP1 PUSH1 0x40 MSTORE POP DUP2 ADD SWAP1 PUSH2 0x1093 SWAP2 SWAP1 PUSH2 0x1760 JUMP JUMPDEST ISZERO PUSH2 0x10A0 JUMPI PUSH2 0xC3F PUSH2 0x10CC JUMP JUMPDEST POP PUSH1 0x0 SWAP2 CALLDATASIZE SWAP2 POP JUMP JUMPDEST PUSH1 0x13 NOT CALLDATASIZE ADD CALLDATALOAD PUSH1 0x60 SHR SWAP1 JUMP JUMPDEST PUSH1 0x60 PUSH2 0x10C4 DUP5 DUP5 PUSH1 0x0 DUP6 PUSH2 0x10DF JUMP JUMPDEST SWAP5 SWAP4 POP POP POP POP JUMP JUMPDEST CALLDATASIZE PUSH1 0x0 PUSH2 0xC3F PUSH1 0x13 NOT DUP4 ADD DUP3 DUP5 DUP2 PUSH2 0x1782 JUMP JUMPDEST PUSH1 0x60 DUP3 SELFBALANCE LT ISZERO PUSH2 0x1140 JUMPI PUSH1 0x40 MLOAD PUSH3 0x461BCD PUSH1 0xE5 SHL DUP2 MSTORE PUSH1 0x20 PUSH1 0x4 DUP3 ADD MSTORE PUSH1 0x26 PUSH1 0x24 DUP3 ADD MSTORE PUSH32 0x416464726573733A20696E73756666696369656E742062616C616E636520666F PUSH1 0x44 DUP3 ADD MSTORE PUSH6 0x1C8818D85B1B PUSH1 0xD2 SHL PUSH1 0x64 DUP3 ADD MSTORE PUSH1 0x84 ADD PUSH2 0x32A JUMP JUMPDEST PUSH1 0x0 DUP1 DUP7 PUSH1 0x1 PUSH1 0x1 PUSH1 0xA0 SHL SUB AND DUP6 DUP8 PUSH1 0x40 MLOAD PUSH2 0x115C SWAP2 SWAP1 PUSH2 0x17D0 JUMP JUMPDEST PUSH1 0x0 PUSH1 0x40 MLOAD DUP1 DUP4 SUB DUP2 DUP6 DUP8 GAS CALL SWAP3 POP POP POP RETURNDATASIZE DUP1 PUSH1 0x0 DUP2 EQ PUSH2 0x1199 JUMPI PUSH1 0x40 MLOAD SWAP2 POP PUSH1 0x1F NOT PUSH1 0x3F RETURNDATASIZE ADD AND DUP3 ADD PUSH1 0x40 MSTORE RETURNDATASIZE DUP3 MSTORE RETURNDATASIZE PUSH1 0x0 PUSH1 0x20 DUP5 ADD RETURNDATACOPY PUSH2 0x119E JUMP JUMPDEST PUSH1 0x60 SWAP2 POP JUMPDEST POP SWAP2 POP SWAP2 POP PUSH2 0x11AF DUP8 DUP4 DUP4 DUP8 PUSH2 0x11BA JUMP JUMPDEST SWAP8 SWAP7 POP POP POP POP POP POP POP JUMP JUMPDEST PUSH1 0x60 DUP4 ISZERO PUSH2 0x1229 JUMPI DUP3 MLOAD PUSH1 0x0 SUB PUSH2 0x1222 JUMPI PUSH1 0x1 PUSH1 0x1 PUSH1 0xA0 SHL SUB DUP6 AND EXTCODESIZE PUSH2 0x1222 JUMPI PUSH1 0x40 MLOAD PUSH3 0x461BCD PUSH1 0xE5 SHL DUP2 MSTORE PUSH1 0x20 PUSH1 0x4 DUP3 ADD MSTORE PUSH1 0x1D PUSH1 0x24 DUP3 ADD MSTORE PUSH32 0x416464726573733A2063616C6C20746F206E6F6E2D636F6E7472616374000000 PUSH1 0x44 DUP3 ADD MSTORE PUSH1 0x64 ADD PUSH2 0x32A JUMP JUMPDEST POP DUP2 PUSH2 0x10C4 JUMP JUMPDEST PUSH2 0x10C4 DUP4 DUP4 DUP2 MLOAD ISZERO PUSH2 0x123E JUMPI DUP2 MLOAD DUP1 DUP4 PUSH1 0x20 ADD REVERT JUMPDEST DUP1 PUSH1 0x40 MLOAD PUSH3 0x461BCD PUSH1 0xE5 SHL DUP2 MSTORE PUSH1 0x4 ADD PUSH2 0x32A SWAP2 SWAP1 PUSH2 0x17EC JUMP JUMPDEST PUSH1 0x1 PUSH1 0x1 PUSH1 0xA0 SHL SUB DUP2 AND DUP2 EQ PUSH2 0x962 JUMPI PUSH1 0x0 DUP1 REVERT JUMPDEST PUSH1 0x0 DUP1 PUSH1 0x40 DUP4 DUP6 SUB SLT ISZERO PUSH2 0x1280 JUMPI PUSH1 0x0 DUP1 REVERT JUMPDEST DUP3 CALLDATALOAD PUSH2 0x128B DUP2 PUSH2 0x1258 JUMP JUMPDEST SWAP5 PUSH1 0x20 SWAP4 SWAP1 SWAP4 ADD CALLDATALOAD SWAP4 POP POP POP JUMP JUMPDEST PUSH1 0x0 PUSH1 0x20 DUP3 DUP5 SUB SLT ISZERO PUSH2 0x12AB JUMPI PUSH1 0x0 DUP1 REVERT JUMPDEST DUP2 CALLDATALOAD PUSH1 0x1 PUSH1 0x1 PUSH1 0xE0 SHL SUB NOT DUP2 AND DUP2 EQ PUSH2 0x12C3 JUMPI PUSH1 0x0 DUP1 REVERT JUMPDEST SWAP4 SWAP3 POP POP POP JUMP JUMPDEST PUSH1 0x0 PUSH1 0x20 DUP3 DUP5 SUB SLT ISZERO PUSH2 0x12DC JUMPI PUSH1 0x0 DUP1 REVERT JUMPDEST DUP2 CALLDATALOAD PUSH2 0x12C3 DUP2 PUSH2 0x1258 JUMP JUMPDEST PUSH1 0x0 DUP1 DUP4 PUSH1 0x1F DUP5 ADD SLT PUSH2 0x12F9 JUMPI PUSH1 0x0 DUP1 REVERT JUMPDEST POP DUP2 CALLDATALOAD PUSH1 0x1 PUSH1 0x1 PUSH1 0x40 SHL SUB DUP2 GT ISZERO PUSH2 0x1310 JUMPI PUSH1 0x0 DUP1 REVERT JUMPDEST PUSH1 0x20 DUP4 ADD SWAP2 POP DUP4 PUSH1 0x20 DUP3 PUSH1 0x5 SHL DUP6 ADD ADD GT ISZERO PUSH2 0x132B JUMPI PUSH1 0x0 DUP1 REVERT JUMPDEST SWAP3 POP SWAP3 SWAP1 POP JUMP JUMPDEST PUSH1 0x0 DUP1 PUSH1 0x0 DUP1 PUSH1 0x0 DUP1 PUSH1 0x60 DUP8 DUP10 SUB SLT ISZERO PUSH2 0x134B JUMPI PUSH1 0x0 DUP1 REVERT JUMPDEST DUP7 CALLDATALOAD PUSH1 0x1 PUSH1 0x1 PUSH1 0x40 SHL SUB DUP1 DUP3 GT ISZERO PUSH2 0x1362 JUMPI PUSH1 0x0 DUP1 REVERT JUMPDEST PUSH2 0x136E DUP11 DUP4 DUP12 ADD PUSH2 0x12E7 JUMP JUMPDEST SWAP1 SWAP9 POP SWAP7 POP PUSH1 0x20 DUP10 ADD CALLDATALOAD SWAP2 POP DUP1 DUP3 GT ISZERO PUSH2 0x1387 JUMPI PUSH1 0x0 DUP1 REVERT JUMPDEST PUSH2 0x1393 DUP11 DUP4 DUP12 ADD PUSH2 0x12E7 JUMP JUMPDEST SWAP1 SWAP7 POP SWAP5 POP PUSH1 0x40 DUP10 ADD CALLDATALOAD SWAP2 POP DUP1 DUP3 GT ISZERO PUSH2 0x13AC JUMPI PUSH1 0x0 DUP1 REVERT JUMPDEST POP PUSH2 0x13B9 DUP10 DUP3 DUP11 ADD PUSH2 0x12E7 JUMP JUMPDEST SWAP8 SWAP11 SWAP7 SWAP10 POP SWAP5 SWAP8 POP SWAP3 SWAP6 SWAP4 SWAP5 SWAP3 POP POP POP JUMP JUMPDEST PUSH1 0x0 DUP1 PUSH1 0x0 DUP1 PUSH1 0x40 DUP6 DUP8 SUB SLT ISZERO PUSH2 0x13E1 JUMPI PUSH1 0x0 DUP1 REVERT JUMPDEST DUP5 CALLDATALOAD PUSH1 0x1 PUSH1 0x1 PUSH1 0x40 SHL SUB DUP1 DUP3 GT ISZERO PUSH2 0x13F8 JUMPI PUSH1 0x0 DUP1 REVERT JUMPDEST PUSH2 0x1404 DUP9 DUP4 DUP10 ADD PUSH2 0x12E7 JUMP JUMPDEST SWAP1 SWAP7 POP SWAP5 POP PUSH1 0x20 DUP8 ADD CALLDATALOAD SWAP2 POP DUP1 DUP3 GT ISZERO PUSH2 0x141D JUMPI PUSH1 0x0 DUP1 REVERT JUMPDEST POP PUSH2 0x142A DUP8 DUP3 DUP9 ADD PUSH2 0x12E7 JUMP JUMPDEST SWAP6 SWAP9 SWAP5 SWAP8 POP SWAP6 POP POP POP POP JUMP JUMPDEST PUSH1 0x0 DUP1 DUP4 PUSH1 0x1F DUP5 ADD SLT PUSH2 0x1448 JUMPI PUSH1 0x0 DUP1 REVERT JUMPDEST POP DUP2 CALLDATALOAD PUSH1 0x1 PUSH1 0x1 PUSH1 0x40 SHL SUB DUP2 GT ISZERO PUSH2 0x145F JUMPI PUSH1 0x0 DUP1 REVERT JUMPDEST PUSH1 0x20 DUP4 ADD SWAP2 POP DUP4 PUSH1 0x20 DUP3 DUP6 ADD ADD GT ISZERO PUSH2 0x132B JUMPI PUSH1 0x0 DUP1 REVERT JUMPDEST PUSH1 0x0 DUP1 PUSH1 0x0 DUP1 PUSH1 0x0 DUP1 PUSH1 0x0 DUP1 PUSH1 0xA0 DUP10 DUP12 SUB SLT ISZERO PUSH2 0x1493 JUMPI PUSH1 0x0 DUP1 REVERT JUMPDEST DUP9 CALLDATALOAD PUSH2 0x149E DUP2 PUSH2 0x1258 JUMP JUMPDEST SWAP8 POP PUSH1 0x20 DUP10 ADD CALLDATALOAD PUSH2 0x14AE DUP2 PUSH2 0x1258 JUMP JUMPDEST SWAP7 POP PUSH1 0x40 DUP10 ADD CALLDATALOAD PUSH1 0x1 PUSH1 0x1 PUSH1 0x40 SHL SUB DUP1 DUP3 GT ISZERO PUSH2 0x14CA JUMPI PUSH1 0x0 DUP1 REVERT JUMPDEST PUSH2 0x14D6 DUP13 DUP4 DUP14 ADD PUSH2 0x12E7 JUMP JUMPDEST SWAP1 SWAP9 POP SWAP7 POP PUSH1 0x60 DUP12 ADD CALLDATALOAD SWAP2 POP DUP1 DUP3 GT ISZERO PUSH2 0x14EF JUMPI PUSH1 0x0 DUP1 REVERT JUMPDEST PUSH2 0x14FB DUP13 DUP4 DUP14 ADD PUSH2 0x12E7 JUMP JUMPDEST SWAP1 SWAP7 POP SWAP5 POP PUSH1 0x80 DUP12 ADD CALLDATALOAD SWAP2 POP DUP1 DUP3 GT ISZERO PUSH2 0x1514 JUMPI PUSH1 0x0 DUP1 REVERT JUMPDEST POP PUSH2 0x1521 DUP12 DUP3 DUP13 ADD PUSH2 0x1436 JUMP JUMPDEST SWAP10 SWAP13 SWAP9 SWAP12 POP SWAP7 SWAP10 POP SWAP5 SWAP8 SWAP4 SWAP7 SWAP3 SWAP6 SWAP5 POP POP POP JUMP JUMPDEST PUSH1 0x0 DUP1 PUSH1 0x0 DUP1 PUSH1 0x0 DUP1 PUSH1 0xA0 DUP8 DUP10 SUB SLT ISZERO PUSH2 0x154E JUMPI PUSH1 0x0 DUP1 REVERT JUMPDEST DUP7 CALLDATALOAD PUSH2 0x1559 DUP2 PUSH2 0x1258 JUMP JUMPDEST SWAP6 POP PUSH1 0x20 DUP8 ADD CALLDATALOAD PUSH2 0x1569 DUP2 PUSH2 0x1258 JUMP JUMPDEST SWAP5 POP PUSH1 0x40 DUP8 ADD CALLDATALOAD SWAP4 POP PUSH1 0x60 DUP8 ADD CALLDATALOAD SWAP3 POP PUSH1 0x80 DUP8 ADD CALLDATALOAD PUSH1 0x1 PUSH1 0x1 PUSH1 0x40 SHL SUB DUP2 GT ISZERO PUSH2 0x1592 JUMPI PUSH1 0x0 DUP1 REVERT JUMPDEST PUSH2 0x13B9 DUP10 DUP3 DUP11 ADD PUSH2 0x1436 JUMP JUMPDEST PUSH1 0x20 DUP1 DUP3 MSTORE PUSH1 0x1D SWAP1 DUP3 ADD MSTORE PUSH32 0x5265636F766572793A20696E636F6E73697374656E7420617272617973000000 PUSH1 0x40 DUP3 ADD MSTORE PUSH1 0x60 ADD SWAP1 JUMP JUMPDEST PUSH4 0x4E487B71 PUSH1 0xE0 SHL PUSH1 0x0 MSTORE PUSH1 0x32 PUSH1 0x4 MSTORE PUSH1 0x24 PUSH1 0x0 REVERT JUMPDEST PUSH4 0x4E487B71 PUSH1 0xE0 SHL PUSH1 0x0 MSTORE PUSH1 0x11 PUSH1 0x4 MSTORE PUSH1 0x24 PUSH1 0x0 REVERT JUMPDEST DUP2 DUP2 SUB DUP2 DUP2 GT ISZERO PUSH2 0x2CC JUMPI PUSH2 0x2CC PUSH2 0x15EB JUMP JUMPDEST PUSH1 0x0 PUSH1 0x1 DUP3 ADD PUSH2 0x1626 JUMPI PUSH2 0x1626 PUSH2 0x15EB JUMP JUMPDEST POP PUSH1 0x1 ADD SWAP1 JUMP JUMPDEST DUP2 DUP4 MSTORE PUSH1 0x0 PUSH1 0x1 PUSH1 0x1 PUSH1 0xFB SHL SUB DUP4 GT ISZERO PUSH2 0x1646 JUMPI PUSH1 0x0 DUP1 REVERT JUMPDEST DUP3 PUSH1 0x5 SHL DUP1 DUP4 PUSH1 0x20 DUP8 ADD CALLDATACOPY SWAP4 SWAP1 SWAP4 ADD PUSH1 0x20 ADD SWAP4 SWAP3 POP POP POP JUMP JUMPDEST PUSH1 0x20 DUP2 MSTORE PUSH1 0x0 PUSH2 0x10C4 PUSH1 0x20 DUP4 ADD DUP5 DUP7 PUSH2 0x162D JUMP JUMPDEST PUSH1 0x1 PUSH1 0x1 PUSH1 0xA0 SHL SUB DUP8 DUP2 AND DUP3 MSTORE DUP7 AND PUSH1 0x20 DUP3 ADD MSTORE PUSH1 0xA0 PUSH1 0x40 DUP3 ADD DUP2 SWAP1 MSTORE PUSH1 0x0 SWAP1 PUSH2 0x16A0 SWAP1 DUP4 ADD DUP7 DUP9 PUSH2 0x162D JUMP JUMPDEST DUP3 DUP2 SUB PUSH1 0x60 DUP5 ADD MSTORE PUSH2 0x16B3 DUP2 DUP6 DUP8 PUSH2 0x162D JUMP JUMPDEST DUP4 DUP2 SUB PUSH1 0x80 SWAP1 SWAP5 ADD SWAP4 SWAP1 SWAP4 MSTORE POP POP PUSH1 0x0 DUP2 MSTORE PUSH1 0x20 ADD SWAP7 SWAP6 POP POP POP POP POP POP JUMP JUMPDEST DUP1 DUP3 ADD DUP1 DUP3 GT ISZERO PUSH2 0x2CC JUMPI PUSH2 0x2CC PUSH2 0x15EB JUMP JUMPDEST PUSH1 0x20 DUP2 MSTORE DUP2 PUSH1 0x20 DUP3 ADD MSTORE DUP2 DUP4 PUSH1 0x40 DUP4 ADD CALLDATACOPY PUSH1 0x0 DUP2 DUP4 ADD PUSH1 0x40 SWAP1 DUP2 ADD SWAP2 SWAP1 SWAP2 MSTORE PUSH1 0x1F SWAP1 SWAP3 ADD PUSH1 0x1F NOT AND ADD ADD SWAP2 SWAP1 POP JUMP JUMPDEST PUSH1 0x20 DUP1 DUP3 MSTORE PUSH1 0x18 SWAP1 DUP3 ADD MSTORE PUSH24 0x27BBB732B939B434B81D103737BA103A34329037BBB732B9 PUSH1 0x41 SHL PUSH1 0x40 DUP3 ADD MSTORE PUSH1 0x60 ADD SWAP1 JUMP JUMPDEST PUSH1 0x1 PUSH1 0x1 PUSH1 0xA0 SHL SUB SWAP3 DUP4 AND DUP2 MSTORE SWAP2 AND PUSH1 0x20 DUP3 ADD MSTORE PUSH1 0x40 ADD SWAP1 JUMP JUMPDEST PUSH1 0x0 PUSH1 0x20 DUP3 DUP5 SUB SLT ISZERO PUSH2 0x1772 JUMPI PUSH1 0x0 DUP1 REVERT JUMPDEST DUP2 MLOAD DUP1 ISZERO ISZERO DUP2 EQ PUSH2 0x12C3 JUMPI PUSH1 0x0 DUP1 REVERT JUMPDEST PUSH1 0x0 DUP1 DUP6 DUP6 GT ISZERO PUSH2 0x1792 JUMPI PUSH1 0x0 DUP1 REVERT JUMPDEST DUP4 DUP7 GT ISZERO PUSH2 0x179F JUMPI PUSH1 0x0 DUP1 REVERT JUMPDEST POP POP DUP3 ADD SWAP4 SWAP2 SWAP1 SWAP3 SUB SWAP2 POP JUMP JUMPDEST PUSH1 0x0 JUMPDEST DUP4 DUP2 LT ISZERO PUSH2 0x17C7 JUMPI DUP2 DUP2 ADD MLOAD DUP4 DUP3 ADD MSTORE PUSH1 0x20 ADD PUSH2 0x17AF JUMP JUMPDEST POP POP PUSH1 0x0 SWAP2 ADD MSTORE JUMP JUMPDEST PUSH1 0x0 DUP3 MLOAD PUSH2 0x17E2 DUP2 DUP5 PUSH1 0x20 DUP8 ADD PUSH2 0x17AC JUMP JUMPDEST SWAP2 SWAP1 SWAP2 ADD SWAP3 SWAP2 POP POP JUMP JUMPDEST PUSH1 0x20 DUP2 MSTORE PUSH1 0x0 DUP3 MLOAD DUP1 PUSH1 0x20 DUP5 ADD MSTORE PUSH2 0x180B DUP2 PUSH1 0x40 DUP6 ADD PUSH1 0x20 DUP8 ADD PUSH2 0x17AC JUMP JUMPDEST PUSH1 0x1F ADD PUSH1 0x1F NOT AND SWAP2 SWAP1 SWAP2 ADD PUSH1 0x40 ADD SWAP3 SWAP2 POP POP JUMP INVALID DUP12 0xE0 SMOD SWAP13 MSTORE8 AND MSIZE EQ SGT DIFFICULTY 0xCD 0x1F 0xD0 LOG4 CALLCODE DUP5 NOT 0x49 PUSH32 0x9722A3DAAFE3B4186F6B6457E0A264697066735822122034CC647A760667A019 0xF7 0xC6 PUSH13 0xEB962C1F9742BCC46F044A8D47 0xAE MSIZE 0xF 0xC3 0xF8 0xD2 DUP9 PUSH5 0x736F6C6343 STOP ADDMOD GT STOP CALLER "},"gasEstimates":{"creation":{"codeDepositCost":"1252200","executionCost":"infinite","totalCost":"infinite"},"external":{"TOKEN_INVENTORY()":"infinite","balanceOf(address,uint256)":"2611","deposit(uint256[],uint256[])":"infinite","escrowedNFTs(address,uint256)":"2897","forwarderRegistry()":"infinite","isTrustedForwarder(address)":"infinite","msgData()":"infinite","onERC1155BatchReceived(address,address,uint256[],uint256[],bytes)":"infinite","onERC1155Received(address,address,uint256,uint256,bytes)":"infinite","owner()":"infinite","recoverERC20s(address[],address[],uint256[])":"infinite","recoverERC721s(address[],address[],uint256[])":"infinite","recoverETH(address[],uint256[])":"infinite","supportsInterface(bytes4)":"infinite","transferOwnership(address)":"infinite","withdraw(uint256[],uint256[])":"infinite"}},"methodIdentifiers":{"TOKEN_INVENTORY()":"4dfde97a","balanceOf(address,uint256)":"00fdd58e","deposit(uint256[],uint256[])":"f223885a","escrowedNFTs(address,uint256)":"f997659a","forwarderRegistry()":"2b4c9f16","isTrustedForwarder(address)":"572b6c05","msgData()":"c4c2bfdc","onERC1155BatchReceived(address,address,uint256[],uint256[],bytes)":"bc197c81","onERC1155Received(address,address,uint256,uint256,bytes)":"f23a6e61","owner()":"8da5cb5b","recoverERC20s(address[],address[],uint256[])":"73c8a958","recoverERC721s(address[],address[],uint256[])":"c3666c36","recoverETH(address[],uint256[])":"f7ba94bd","supportsInterface(bytes4)":"01ffc9a7","transferOwnership(address)":"f2fde38b","withdraw(uint256[],uint256[])":"81c197ed"}},"storageLayout":{"storage":[{"astId":2134,"contract":"contracts/mocks/TokenEscrow/TokenEscrowMock.sol:TokenEscrowMock","label":"escrowedNFTs","offset":0,"slot":"0","type":"t_mapping(t_address,t_mapping(t_uint256,t_uint256))"}],"types":{"t_address":{"encoding":"inplace","label":"address","numberOfBytes":"20"},"t_mapping(t_address,t_mapping(t_uint256,t_uint256))":{"encoding":"mapping","key":"t_address","label":"mapping(address => mapping(uint256 => uint256))","numberOfBytes":"32","value":"t_mapping(t_uint256,t_uint256)"},"t_mapping(t_uint256,t_uint256)":{"encoding":"mapping","key":"t_uint256","label":"mapping(uint256 => uint256)","numberOfBytes":"32","value":"t_uint256"},"t_uint256":{"encoding":"inplace","label":"uint256","numberOfBytes":"32"}}},"userdoc":{"events":{"DepositTokens(address,uint256[])":{"notice":"Emitted when tokens are deposited"},"OwnershipTransferred(address,address)":{"notice":"Emitted when the contract ownership changes."},"WithdrawTokens(address,uint256[])":{"notice":"Emitted when tokens are withdrawn"}},"kind":"user","methods":{"TOKEN_INVENTORY()":{"notice":"An Orb contract reference"},"balanceOf(address,uint256)":{"notice":"Returns the escrowed token balance of a given token held by a given address"},"constructor":{"notice":"Creates a new escrow contract"},"deposit(uint256[],uint256[])":{"notice":"Handles the deposit of tokens."},"escrowedNFTs(address,uint256)":{"notice":"Mapping from owner address to a mapping from token ID to escrowed token count."},"isTrustedForwarder(address)":{"notice":"Checks whether a forwarder is trusted."},"onERC1155BatchReceived(address,address,uint256[],uint256[],bytes)":{"notice":"Handles the receipt of multiple types of tokens."},"onERC1155Received(address,address,uint256,uint256,bytes)":{"notice":"Handles the receipt of a single type of token."},"owner()":{"notice":"Gets the address of the contract owner."},"recoverERC20s(address[],address[],uint256[])":{"notice":"Extract ERC20 tokens which were accidentally sent to the contract to a list of accounts."},"recoverERC721s(address[],address[],uint256[])":{"notice":"Extract ERC721 tokens which were accidentally sent to the contract to a list of accounts."},"recoverETH(address[],uint256[])":{"notice":"Extract ETH tokens which were accidentally sent to the contract to a list of accounts."},"supportsInterface(bytes4)":{"notice":"Returns whether this contract implements a given interface."},"transferOwnership(address)":{"notice":"Sets the address of the new contract owner."},"withdraw(uint256[],uint256[])":{"notice":"Handles token withdrawal"}},"notice":"Mock contract for testing purposes, extends the ORBNFT contract.","version":1}}}}