{"contracts/mocks/merkleClaim/AnichessERC1155MerkleClaimMock.sol":{"AnichessERC1155MerkleClaimMock":{"abi":[{"inputs":[{"internalType":"bytes32","name":"merkleRoot","type":"bytes32"},{"internalType":"contract IERC1155Mintable","name":"rewardContract","type":"address"},{"internalType":"contract IForwarderRegistry","name":"forwarderRegistry","type":"address"}],"stateMutability":"nonpayable","type":"constructor"},{"inputs":[{"internalType":"address","name":"recipient","type":"address"},{"internalType":"uint256[]","name":"ids","type":"uint256[]"},{"internalType":"uint256[]","name":"values","type":"uint256[]"},{"internalType":"bytes32","name":"epochId","type":"bytes32"}],"name":"AlreadyClaimed","type":"error"},{"inputs":[{"internalType":"address","name":"recipient","type":"address"},{"internalType":"uint256[]","name":"ids","type":"uint256[]"},{"internalType":"uint256[]","name":"values","type":"uint256[]"},{"internalType":"bytes32","name":"epochId","type":"bytes32"}],"name":"InvalidProof","type":"error"},{"anonymous":false,"inputs":[{"indexed":true,"internalType":"bytes32","name":"epochId","type":"bytes32"},{"indexed":true,"internalType":"address","name":"recipient","type":"address"},{"indexed":false,"internalType":"uint256[]","name":"ids","type":"uint256[]"},{"indexed":false,"internalType":"uint256[]","name":"values","type":"uint256[]"}],"name":"PayoutClaimed","type":"event"},{"inputs":[],"name":"MERKLE_ROOT","outputs":[{"internalType":"bytes32","name":"","type":"bytes32"}],"stateMutability":"view","type":"function"},{"inputs":[],"name":"REWARD_CONTRACT","outputs":[{"internalType":"contract IERC1155Mintable","name":"","type":"address"}],"stateMutability":"view","type":"function"},{"inputs":[],"name":"__msgData","outputs":[{"internalType":"bytes","name":"","type":"bytes"}],"stateMutability":"view","type":"function"},{"inputs":[],"name":"__msgSender","outputs":[{"internalType":"address","name":"","type":"address"}],"stateMutability":"view","type":"function"},{"inputs":[{"internalType":"bytes32","name":"epochId","type":"bytes32"},{"internalType":"bytes32[]","name":"proof","type":"bytes32[]"},{"internalType":"address","name":"recipient","type":"address"},{"internalType":"uint256[]","name":"ids","type":"uint256[]"},{"internalType":"uint256[]","name":"values","type":"uint256[]"}],"name":"claim","outputs":[],"stateMutability":"nonpayable","type":"function"},{"inputs":[{"internalType":"bytes32","name":"","type":"bytes32"}],"name":"claimStatus","outputs":[{"internalType":"bool","name":"","type":"bool"}],"stateMutability":"view","type":"function"},{"inputs":[],"name":"forwarderRegistry","outputs":[{"internalType":"contract IForwarderRegistry","name":"","type":"address"}],"stateMutability":"view","type":"function"},{"inputs":[{"internalType":"address","name":"forwarder","type":"address"}],"name":"isTrustedForwarder","outputs":[{"internalType":"bool","name":"","type":"bool"}],"stateMutability":"view","type":"function"}],"devdoc":{"kind":"dev","methods":{"__msgData()":{"returns":{"_0":"The current msg.data value."}},"claim(bytes32,bytes32[],address,uint256[],uint256[])":{"details":"Claims the payout based on the proof provided, marks it as claimed, and mints the tokens.Throws if the claim has already been claimed.Throws if the proof is invalid.Throws if the claim is invalid.","params":{"epochId":"The epoch ID for the claim.","ids":"The array of token IDs to claim.","proof":"The Merkle proof for the claim.","recipient":"The address of the recipient.","values":"The array of token values to claim."}},"isTrustedForwarder(address)":{"params":{"forwarder":"The forwarder to check."},"returns":{"_0":"True if `forwarder` is trusted, false if not."}}},"version":1},"evm":{"bytecode":{"linkReferences":{},"object":"60e060405234801561001057600080fd5b50604051610e34380380610e3483398101604081905261002f91610064565b6001600160a01b0390811660805260a0929092521660c0526100a7565b6001600160a01b038116811461006157600080fd5b50565b60008060006060848603121561007957600080fd5b83519250602084015161008b8161004c565b604085015190925061009c8161004c565b809150509250925092565b60805160a05160c051610d2f6101056000396000818160f4015261039001526000818161011b01526102b9015260008181608f0152818161015b015281816104b6015281816104f40152818161062c01526106b40152610d2f6000f3fe608060405234801561001057600080fd5b50600436106100885760003560e01c8063572b6c051161005b578063572b6c051461014b578063d1a91ff2146101a8578063e3a0ce09146101b0578063f15e20e7146101d357600080fd5b80632b4c9f161461008d57806331e66e1e146100d95780633a5af339146100ef57806351e75e8b14610116575b600080fd5b7f00000000000000000000000000000000000000000000000000000000000000005b60405173ffffffffffffffffffffffffffffffffffffffff90911681526020015b60405180910390f35b6100e16101e8565b6040516100d09291906107e0565b6100af7f000000000000000000000000000000000000000000000000000000000000000081565b61013d7f000000000000000000000000000000000000000000000000000000000000000081565b6040519081526020016100d0565b610198610159366004610856565b7f000000000000000000000000000000000000000000000000000000000000000073ffffffffffffffffffffffffffffffffffffffff90811691161490565b60405190151581526020016100d0565b6100af6101fb565b6101986101be366004610871565b60006020819052908152604090205460ff1681565b6101e66101e1366004610997565b61020a565b005b3660006101f3610454565b915091509091565b600061020561045f565b905090565b6000838383886040516020016102239493929190610ac5565b604080517fffffffffffffffffffffffffffffffffffffffffffffffffffffffffffffffe0818403018152918152815160209283012060008181529283905291205490915060ff16156102b357838383886040517fb21ae00b0000000000000000000000000000000000000000000000000000000081526004016102aa9493929190610b41565b60405180910390fd5b6102de857f000000000000000000000000000000000000000000000000000000000000000083610469565b61031c57838383886040517f843019320000000000000000000000000000000000000000000000000000000081526004016102aa9493929190610b41565b6000818152602081905260409081902080547fffffffffffffffffffffffffffffffffffffffffffffffffffffffffffffff00166001179055517f0d6a5bbb00000000000000000000000000000000000000000000000000000000815273ffffffffffffffffffffffffffffffffffffffff7f00000000000000000000000000000000000000000000000000000000000000001690630d6a5bbb906103c990879087908790600401610b94565b600060405180830381600087803b1580156103e357600080fd5b505af11580156103f7573d6000803e3d6000fd5b505050508373ffffffffffffffffffffffffffffffffffffffff16867f8f9c73ccaa2efe63e7eac59937a2aa225b9d0748cbfe666eff28a75e964801a48585604051610444929190610bf1565b60405180910390a3505050505050565b3660006101f361047f565b60006102056105e9565b6000826104768584610730565b14949350505050565b366000333214806104905750601836105b1561049e5750600091369150565b3373ffffffffffffffffffffffffffffffffffffffff7f00000000000000000000000000000000000000000000000000000000000000001614806105d3575073ffffffffffffffffffffffffffffffffffffffff7f000000000000000000000000000000000000000000000000000000000000000016638929a8ca367fffffffffffffffffffffffffffffffffffffffffffffffffffffffffffffffec013560601c6040517fffffffff0000000000000000000000000000000000000000000000000000000060e084901b16815273ffffffffffffffffffffffffffffffffffffffff9091166004820152336024820152604401602060405180830381865afa1580156105af573d6000803e3d6000fd5b505050506040513d601f19601f820116820180604052508101906105d39190610c1f565b156105e0576101f361077d565b50600091369150565b6000333214806105f95750601836105b1561060357503390565b7fffffffffffffffffffffffffffffffffffffffffffffffffffffffffffffffec36013560601c7f000000000000000000000000000000000000000000000000000000000000000073ffffffffffffffffffffffffffffffffffffffff1633148061071f57506040517f8929a8ca00000000000000000000000000000000000000000000000000000000815273ffffffffffffffffffffffffffffffffffffffff82811660048301523360248301527f00000000000000000000000000000000000000000000000000000000000000001690638929a8ca90604401602060405180830381865afa1580156106fb573d6000803e3d6000fd5b505050506040513d601f19601f8201168201806040525081019061071f9190610c1f565b1561072957919050565b3391505090565b600081815b8451811015610775576107618286838151811061075457610754610c41565b60200260200101516107ae565b91508061076d81610c70565b915050610735565b509392505050565b3660006101f37fffffffffffffffffffffffffffffffffffffffffffffffffffffffffffffffec8301828481610ccf565b60008183106107ca5760008281526020849052604090206107d9565b60008381526020839052604090205b9392505050565b60208152816020820152818360408301376000818301604090810191909152601f9092017fffffffffffffffffffffffffffffffffffffffffffffffffffffffffffffffe0160101919050565b803573ffffffffffffffffffffffffffffffffffffffff8116811461085157600080fd5b919050565b60006020828403121561086857600080fd5b6107d98261082d565b60006020828403121561088357600080fd5b5035919050565b7f4e487b7100000000000000000000000000000000000000000000000000000000600052604160045260246000fd5b604051601f82017fffffffffffffffffffffffffffffffffffffffffffffffffffffffffffffffe016810167ffffffffffffffff811182821017156109005761090061088a565b604052919050565b600067ffffffffffffffff8211156109225761092261088a565b5060051b60200190565b600082601f83011261093d57600080fd5b8135602061095261094d83610908565b6108b9565b82815260059290921b8401810191818101908684111561097157600080fd5b8286015b8481101561098c5780358352918301918301610975565b509695505050505050565b600080600080600060a086880312156109af57600080fd5b8535945060208087013567ffffffffffffffff808211156109cf57600080fd5b818901915089601f8301126109e357600080fd5b81356109f161094d82610908565b81815260059190911b8301840190848101908c831115610a1057600080fd5b938501935b82851015610a2e57843582529385019390850190610a15565b9850610a3f91505060408a0161082d565b95506060890135925080831115610a5557600080fd5b610a618a848b0161092c565b94506080890135925080831115610a7757600080fd5b5050610a858882890161092c565b9150509295509295909350565b60008151602080840160005b83811015610aba57815187529582019590820190600101610a9e565b509495945050505050565b7fffffffffffffffffffffffffffffffffffffffff0000000000000000000000008560601b1681526000610b05610aff6014840187610a92565b85610a92565b92835250506020019392505050565b805180835260209283019260009190808401838315610aba57815187529582019590820190600101610a9e565b73ffffffffffffffffffffffffffffffffffffffff85168152608060208201526000610b706080830186610b14565b8281036040840152610b828186610b14565b91505082606083015295945050505050565b73ffffffffffffffffffffffffffffffffffffffff84168152608060208201526000610bc36080830185610b14565b8281036040840152610bd58185610b14565b8381036060909401939093525050600081526020019392505050565b604081526000610c046040830185610b14565b8281036020840152610c168185610b14565b95945050505050565b600060208284031215610c3157600080fd5b815180151581146107d957600080fd5b7f4e487b7100000000000000000000000000000000000000000000000000000000600052603260045260246000fd5b60007fffffffffffffffffffffffffffffffffffffffffffffffffffffffffffffffff8203610cc8577f4e487b7100000000000000000000000000000000000000000000000000000000600052601160045260246000fd5b5060010190565b60008085851115610cdf57600080fd5b83861115610cec57600080fd5b505082019391909203915056fea2646970667358221220e51ee95e59b480e58fedc0ded872ea2add361b07da462d089cd436f71e64104964736f6c63430008110033","opcodes":"PUSH1 0xE0 PUSH1 0x40 MSTORE CALLVALUE DUP1 ISZERO PUSH2 0x10 JUMPI PUSH1 0x0 DUP1 REVERT JUMPDEST POP PUSH1 0x40 MLOAD PUSH2 0xE34 CODESIZE SUB DUP1 PUSH2 0xE34 DUP4 CODECOPY DUP2 ADD PUSH1 0x40 DUP2 SWAP1 MSTORE PUSH2 0x2F SWAP2 PUSH2 0x64 JUMP JUMPDEST PUSH1 0x1 PUSH1 0x1 PUSH1 0xA0 SHL SUB SWAP1 DUP2 AND PUSH1 0x80 MSTORE PUSH1 0xA0 SWAP3 SWAP1 SWAP3 MSTORE AND PUSH1 0xC0 MSTORE PUSH2 0xA7 JUMP JUMPDEST PUSH1 0x1 PUSH1 0x1 PUSH1 0xA0 SHL SUB DUP2 AND DUP2 EQ PUSH2 0x61 JUMPI PUSH1 0x0 DUP1 REVERT JUMPDEST POP JUMP JUMPDEST PUSH1 0x0 DUP1 PUSH1 0x0 PUSH1 0x60 DUP5 DUP7 SUB SLT ISZERO PUSH2 0x79 JUMPI PUSH1 0x0 DUP1 REVERT JUMPDEST DUP4 MLOAD SWAP3 POP PUSH1 0x20 DUP5 ADD MLOAD PUSH2 0x8B DUP2 PUSH2 0x4C JUMP JUMPDEST PUSH1 0x40 DUP6 ADD MLOAD SWAP1 SWAP3 POP PUSH2 0x9C DUP2 PUSH2 0x4C JUMP JUMPDEST DUP1 SWAP2 POP POP SWAP3 POP SWAP3 POP SWAP3 JUMP JUMPDEST PUSH1 0x80 MLOAD PUSH1 0xA0 MLOAD PUSH1 0xC0 MLOAD PUSH2 0xD2F PUSH2 0x105 PUSH1 0x0 CODECOPY PUSH1 0x0 DUP2 DUP2 PUSH1 0xF4 ADD MSTORE PUSH2 0x390 ADD MSTORE PUSH1 0x0 DUP2 DUP2 PUSH2 0x11B ADD MSTORE PUSH2 0x2B9 ADD MSTORE PUSH1 0x0 DUP2 DUP2 PUSH1 0x8F ADD MSTORE DUP2 DUP2 PUSH2 0x15B ADD MSTORE DUP2 DUP2 PUSH2 0x4B6 ADD MSTORE DUP2 DUP2 PUSH2 0x4F4 ADD MSTORE DUP2 DUP2 PUSH2 0x62C ADD MSTORE PUSH2 0x6B4 ADD MSTORE PUSH2 0xD2F PUSH1 0x0 RETURN INVALID PUSH1 0x80 PUSH1 0x40 MSTORE CALLVALUE DUP1 ISZERO PUSH2 0x10 JUMPI PUSH1 0x0 DUP1 REVERT JUMPDEST POP PUSH1 0x4 CALLDATASIZE LT PUSH2 0x88 JUMPI PUSH1 0x0 CALLDATALOAD PUSH1 0xE0 SHR DUP1 PUSH4 0x572B6C05 GT PUSH2 0x5B JUMPI DUP1 PUSH4 0x572B6C05 EQ PUSH2 0x14B JUMPI DUP1 PUSH4 0xD1A91FF2 EQ PUSH2 0x1A8 JUMPI DUP1 PUSH4 0xE3A0CE09 EQ PUSH2 0x1B0 JUMPI DUP1 PUSH4 0xF15E20E7 EQ PUSH2 0x1D3 JUMPI PUSH1 0x0 DUP1 REVERT JUMPDEST DUP1 PUSH4 0x2B4C9F16 EQ PUSH2 0x8D JUMPI DUP1 PUSH4 0x31E66E1E EQ PUSH2 0xD9 JUMPI DUP1 PUSH4 0x3A5AF339 EQ PUSH2 0xEF JUMPI DUP1 PUSH4 0x51E75E8B EQ PUSH2 0x116 JUMPI JUMPDEST PUSH1 0x0 DUP1 REVERT JUMPDEST PUSH32 0x0 JUMPDEST PUSH1 0x40 MLOAD PUSH20 0xFFFFFFFFFFFFFFFFFFFFFFFFFFFFFFFFFFFFFFFF SWAP1 SWAP2 AND DUP2 MSTORE PUSH1 0x20 ADD JUMPDEST PUSH1 0x40 MLOAD DUP1 SWAP2 SUB SWAP1 RETURN JUMPDEST PUSH2 0xE1 PUSH2 0x1E8 JUMP JUMPDEST PUSH1 0x40 MLOAD PUSH2 0xD0 SWAP3 SWAP2 SWAP1 PUSH2 0x7E0 JUMP JUMPDEST PUSH2 0xAF PUSH32 0x0 DUP2 JUMP JUMPDEST PUSH2 0x13D PUSH32 0x0 DUP2 JUMP JUMPDEST PUSH1 0x40 MLOAD SWAP1 DUP2 MSTORE PUSH1 0x20 ADD PUSH2 0xD0 JUMP JUMPDEST PUSH2 0x198 PUSH2 0x159 CALLDATASIZE PUSH1 0x4 PUSH2 0x856 JUMP JUMPDEST PUSH32 0x0 PUSH20 0xFFFFFFFFFFFFFFFFFFFFFFFFFFFFFFFFFFFFFFFF SWAP1 DUP2 AND SWAP2 AND EQ SWAP1 JUMP JUMPDEST PUSH1 0x40 MLOAD SWAP1 ISZERO ISZERO DUP2 MSTORE PUSH1 0x20 ADD PUSH2 0xD0 JUMP JUMPDEST PUSH2 0xAF PUSH2 0x1FB JUMP JUMPDEST PUSH2 0x198 PUSH2 0x1BE CALLDATASIZE PUSH1 0x4 PUSH2 0x871 JUMP JUMPDEST PUSH1 0x0 PUSH1 0x20 DUP2 SWAP1 MSTORE SWAP1 DUP2 MSTORE PUSH1 0x40 SWAP1 KECCAK256 SLOAD PUSH1 0xFF AND DUP2 JUMP JUMPDEST PUSH2 0x1E6 PUSH2 0x1E1 CALLDATASIZE PUSH1 0x4 PUSH2 0x997 JUMP JUMPDEST PUSH2 0x20A JUMP JUMPDEST STOP JUMPDEST CALLDATASIZE PUSH1 0x0 PUSH2 0x1F3 PUSH2 0x454 JUMP JUMPDEST SWAP2 POP SWAP2 POP SWAP1 SWAP2 JUMP JUMPDEST PUSH1 0x0 PUSH2 0x205 PUSH2 0x45F JUMP JUMPDEST SWAP1 POP SWAP1 JUMP JUMPDEST PUSH1 0x0 DUP4 DUP4 DUP4 DUP9 PUSH1 0x40 MLOAD PUSH1 0x20 ADD PUSH2 0x223 SWAP5 SWAP4 SWAP3 SWAP2 SWAP1 PUSH2 0xAC5 JUMP JUMPDEST PUSH1 0x40 DUP1 MLOAD PUSH32 0xFFFFFFFFFFFFFFFFFFFFFFFFFFFFFFFFFFFFFFFFFFFFFFFFFFFFFFFFFFFFFFE0 DUP2 DUP5 SUB ADD DUP2 MSTORE SWAP2 DUP2 MSTORE DUP2 MLOAD PUSH1 0x20 SWAP3 DUP4 ADD KECCAK256 PUSH1 0x0 DUP2 DUP2 MSTORE SWAP3 DUP4 SWAP1 MSTORE SWAP2 KECCAK256 SLOAD SWAP1 SWAP2 POP PUSH1 0xFF AND ISZERO PUSH2 0x2B3 JUMPI DUP4 DUP4 DUP4 DUP9 PUSH1 0x40 MLOAD PUSH32 0xB21AE00B00000000000000000000000000000000000000000000000000000000 DUP2 MSTORE PUSH1 0x4 ADD PUSH2 0x2AA SWAP5 SWAP4 SWAP3 SWAP2 SWAP1 PUSH2 0xB41 JUMP JUMPDEST PUSH1 0x40 MLOAD DUP1 SWAP2 SUB SWAP1 REVERT JUMPDEST PUSH2 0x2DE DUP6 PUSH32 0x0 DUP4 PUSH2 0x469 JUMP JUMPDEST PUSH2 0x31C JUMPI DUP4 DUP4 DUP4 DUP9 PUSH1 0x40 MLOAD PUSH32 0x8430193200000000000000000000000000000000000000000000000000000000 DUP2 MSTORE PUSH1 0x4 ADD PUSH2 0x2AA SWAP5 SWAP4 SWAP3 SWAP2 SWAP1 PUSH2 0xB41 JUMP JUMPDEST PUSH1 0x0 DUP2 DUP2 MSTORE PUSH1 0x20 DUP2 SWAP1 MSTORE PUSH1 0x40 SWAP1 DUP2 SWAP1 KECCAK256 DUP1 SLOAD PUSH32 0xFFFFFFFFFFFFFFFFFFFFFFFFFFFFFFFFFFFFFFFFFFFFFFFFFFFFFFFFFFFFFF00 AND PUSH1 0x1 OR SWAP1 SSTORE MLOAD PUSH32 0xD6A5BBB00000000000000000000000000000000000000000000000000000000 DUP2 MSTORE PUSH20 0xFFFFFFFFFFFFFFFFFFFFFFFFFFFFFFFFFFFFFFFF PUSH32 0x0 AND SWAP1 PUSH4 0xD6A5BBB SWAP1 PUSH2 0x3C9 SWAP1 DUP8 SWAP1 DUP8 SWAP1 DUP8 SWAP1 PUSH1 0x4 ADD PUSH2 0xB94 JUMP JUMPDEST PUSH1 0x0 PUSH1 0x40 MLOAD DUP1 DUP4 SUB DUP2 PUSH1 0x0 DUP8 DUP1 EXTCODESIZE ISZERO DUP1 ISZERO PUSH2 0x3E3 JUMPI PUSH1 0x0 DUP1 REVERT JUMPDEST POP GAS CALL ISZERO DUP1 ISZERO PUSH2 0x3F7 JUMPI RETURNDATASIZE PUSH1 0x0 DUP1 RETURNDATACOPY RETURNDATASIZE PUSH1 0x0 REVERT JUMPDEST POP POP POP POP DUP4 PUSH20 0xFFFFFFFFFFFFFFFFFFFFFFFFFFFFFFFFFFFFFFFF AND DUP7 PUSH32 0x8F9C73CCAA2EFE63E7EAC59937A2AA225B9D0748CBFE666EFF28A75E964801A4 DUP6 DUP6 PUSH1 0x40 MLOAD PUSH2 0x444 SWAP3 SWAP2 SWAP1 PUSH2 0xBF1 JUMP JUMPDEST PUSH1 0x40 MLOAD DUP1 SWAP2 SUB SWAP1 LOG3 POP POP POP POP POP POP JUMP JUMPDEST CALLDATASIZE PUSH1 0x0 PUSH2 0x1F3 PUSH2 0x47F JUMP JUMPDEST PUSH1 0x0 PUSH2 0x205 PUSH2 0x5E9 JUMP JUMPDEST PUSH1 0x0 DUP3 PUSH2 0x476 DUP6 DUP5 PUSH2 0x730 JUMP JUMPDEST EQ SWAP5 SWAP4 POP POP POP POP JUMP JUMPDEST CALLDATASIZE PUSH1 0x0 CALLER ORIGIN EQ DUP1 PUSH2 0x490 JUMPI POP PUSH1 0x18 CALLDATASIZE LT JUMPDEST ISZERO PUSH2 0x49E JUMPI POP PUSH1 0x0 SWAP2 CALLDATASIZE SWAP2 POP JUMP JUMPDEST CALLER PUSH20 0xFFFFFFFFFFFFFFFFFFFFFFFFFFFFFFFFFFFFFFFF PUSH32 0x0 AND EQ DUP1 PUSH2 0x5D3 JUMPI POP PUSH20 0xFFFFFFFFFFFFFFFFFFFFFFFFFFFFFFFFFFFFFFFF PUSH32 0x0 AND PUSH4 0x8929A8CA CALLDATASIZE PUSH32 0xFFFFFFFFFFFFFFFFFFFFFFFFFFFFFFFFFFFFFFFFFFFFFFFFFFFFFFFFFFFFFFEC ADD CALLDATALOAD PUSH1 0x60 SHR PUSH1 0x40 MLOAD PUSH32 0xFFFFFFFF00000000000000000000000000000000000000000000000000000000 PUSH1 0xE0 DUP5 SWAP1 SHL AND DUP2 MSTORE PUSH20 0xFFFFFFFFFFFFFFFFFFFFFFFFFFFFFFFFFFFFFFFF SWAP1 SWAP2 AND PUSH1 0x4 DUP3 ADD MSTORE CALLER PUSH1 0x24 DUP3 ADD MSTORE PUSH1 0x44 ADD PUSH1 0x20 PUSH1 0x40 MLOAD DUP1 DUP4 SUB DUP2 DUP7 GAS STATICCALL ISZERO DUP1 ISZERO PUSH2 0x5AF JUMPI RETURNDATASIZE PUSH1 0x0 DUP1 RETURNDATACOPY RETURNDATASIZE PUSH1 0x0 REVERT JUMPDEST POP POP POP POP PUSH1 0x40 MLOAD RETURNDATASIZE PUSH1 0x1F NOT PUSH1 0x1F DUP3 ADD AND DUP3 ADD DUP1 PUSH1 0x40 MSTORE POP DUP2 ADD SWAP1 PUSH2 0x5D3 SWAP2 SWAP1 PUSH2 0xC1F JUMP JUMPDEST ISZERO PUSH2 0x5E0 JUMPI PUSH2 0x1F3 PUSH2 0x77D JUMP JUMPDEST POP PUSH1 0x0 SWAP2 CALLDATASIZE SWAP2 POP JUMP JUMPDEST PUSH1 0x0 CALLER ORIGIN EQ DUP1 PUSH2 0x5F9 JUMPI POP PUSH1 0x18 CALLDATASIZE LT JUMPDEST ISZERO PUSH2 0x603 JUMPI POP CALLER SWAP1 JUMP JUMPDEST PUSH32 0xFFFFFFFFFFFFFFFFFFFFFFFFFFFFFFFFFFFFFFFFFFFFFFFFFFFFFFFFFFFFFFEC CALLDATASIZE ADD CALLDATALOAD PUSH1 0x60 SHR PUSH32 0x0 PUSH20 0xFFFFFFFFFFFFFFFFFFFFFFFFFFFFFFFFFFFFFFFF AND CALLER EQ DUP1 PUSH2 0x71F JUMPI POP PUSH1 0x40 MLOAD PUSH32 0x8929A8CA00000000000000000000000000000000000000000000000000000000 DUP2 MSTORE PUSH20 0xFFFFFFFFFFFFFFFFFFFFFFFFFFFFFFFFFFFFFFFF DUP3 DUP2 AND PUSH1 0x4 DUP4 ADD MSTORE CALLER PUSH1 0x24 DUP4 ADD MSTORE PUSH32 0x0 AND SWAP1 PUSH4 0x8929A8CA SWAP1 PUSH1 0x44 ADD PUSH1 0x20 PUSH1 0x40 MLOAD DUP1 DUP4 SUB DUP2 DUP7 GAS STATICCALL ISZERO DUP1 ISZERO PUSH2 0x6FB JUMPI RETURNDATASIZE PUSH1 0x0 DUP1 RETURNDATACOPY RETURNDATASIZE PUSH1 0x0 REVERT JUMPDEST POP POP POP POP PUSH1 0x40 MLOAD RETURNDATASIZE PUSH1 0x1F NOT PUSH1 0x1F DUP3 ADD AND DUP3 ADD DUP1 PUSH1 0x40 MSTORE POP DUP2 ADD SWAP1 PUSH2 0x71F SWAP2 SWAP1 PUSH2 0xC1F JUMP JUMPDEST ISZERO PUSH2 0x729 JUMPI SWAP2 SWAP1 POP JUMP JUMPDEST CALLER SWAP2 POP POP SWAP1 JUMP JUMPDEST PUSH1 0x0 DUP2 DUP2 JUMPDEST DUP5 MLOAD DUP2 LT ISZERO PUSH2 0x775 JUMPI PUSH2 0x761 DUP3 DUP7 DUP4 DUP2 MLOAD DUP2 LT PUSH2 0x754 JUMPI PUSH2 0x754 PUSH2 0xC41 JUMP JUMPDEST PUSH1 0x20 MUL PUSH1 0x20 ADD ADD MLOAD PUSH2 0x7AE JUMP JUMPDEST SWAP2 POP DUP1 PUSH2 0x76D DUP2 PUSH2 0xC70 JUMP JUMPDEST SWAP2 POP POP PUSH2 0x735 JUMP JUMPDEST POP SWAP4 SWAP3 POP POP POP JUMP JUMPDEST CALLDATASIZE PUSH1 0x0 PUSH2 0x1F3 PUSH32 0xFFFFFFFFFFFFFFFFFFFFFFFFFFFFFFFFFFFFFFFFFFFFFFFFFFFFFFFFFFFFFFEC DUP4 ADD DUP3 DUP5 DUP2 PUSH2 0xCCF JUMP JUMPDEST PUSH1 0x0 DUP2 DUP4 LT PUSH2 0x7CA JUMPI PUSH1 0x0 DUP3 DUP2 MSTORE PUSH1 0x20 DUP5 SWAP1 MSTORE PUSH1 0x40 SWAP1 KECCAK256 PUSH2 0x7D9 JUMP JUMPDEST PUSH1 0x0 DUP4 DUP2 MSTORE PUSH1 0x20 DUP4 SWAP1 MSTORE PUSH1 0x40 SWAP1 KECCAK256 JUMPDEST SWAP4 SWAP3 POP POP POP JUMP JUMPDEST PUSH1 0x20 DUP2 MSTORE DUP2 PUSH1 0x20 DUP3 ADD MSTORE DUP2 DUP4 PUSH1 0x40 DUP4 ADD CALLDATACOPY PUSH1 0x0 DUP2 DUP4 ADD PUSH1 0x40 SWAP1 DUP2 ADD SWAP2 SWAP1 SWAP2 MSTORE PUSH1 0x1F SWAP1 SWAP3 ADD PUSH32 0xFFFFFFFFFFFFFFFFFFFFFFFFFFFFFFFFFFFFFFFFFFFFFFFFFFFFFFFFFFFFFFE0 AND ADD ADD SWAP2 SWAP1 POP JUMP JUMPDEST DUP1 CALLDATALOAD PUSH20 0xFFFFFFFFFFFFFFFFFFFFFFFFFFFFFFFFFFFFFFFF DUP2 AND DUP2 EQ PUSH2 0x851 JUMPI PUSH1 0x0 DUP1 REVERT JUMPDEST SWAP2 SWAP1 POP JUMP JUMPDEST PUSH1 0x0 PUSH1 0x20 DUP3 DUP5 SUB SLT ISZERO PUSH2 0x868 JUMPI PUSH1 0x0 DUP1 REVERT JUMPDEST PUSH2 0x7D9 DUP3 PUSH2 0x82D JUMP JUMPDEST PUSH1 0x0 PUSH1 0x20 DUP3 DUP5 SUB SLT ISZERO PUSH2 0x883 JUMPI PUSH1 0x0 DUP1 REVERT JUMPDEST POP CALLDATALOAD SWAP2 SWAP1 POP JUMP JUMPDEST PUSH32 0x4E487B7100000000000000000000000000000000000000000000000000000000 PUSH1 0x0 MSTORE PUSH1 0x41 PUSH1 0x4 MSTORE PUSH1 0x24 PUSH1 0x0 REVERT JUMPDEST PUSH1 0x40 MLOAD PUSH1 0x1F DUP3 ADD PUSH32 0xFFFFFFFFFFFFFFFFFFFFFFFFFFFFFFFFFFFFFFFFFFFFFFFFFFFFFFFFFFFFFFE0 AND DUP2 ADD PUSH8 0xFFFFFFFFFFFFFFFF DUP2 GT DUP3 DUP3 LT OR ISZERO PUSH2 0x900 JUMPI PUSH2 0x900 PUSH2 0x88A JUMP JUMPDEST PUSH1 0x40 MSTORE SWAP2 SWAP1 POP JUMP JUMPDEST PUSH1 0x0 PUSH8 0xFFFFFFFFFFFFFFFF DUP3 GT ISZERO PUSH2 0x922 JUMPI PUSH2 0x922 PUSH2 0x88A JUMP JUMPDEST POP PUSH1 0x5 SHL PUSH1 0x20 ADD SWAP1 JUMP JUMPDEST PUSH1 0x0 DUP3 PUSH1 0x1F DUP4 ADD SLT PUSH2 0x93D JUMPI PUSH1 0x0 DUP1 REVERT JUMPDEST DUP2 CALLDATALOAD PUSH1 0x20 PUSH2 0x952 PUSH2 0x94D DUP4 PUSH2 0x908 JUMP JUMPDEST PUSH2 0x8B9 JUMP JUMPDEST DUP3 DUP2 MSTORE PUSH1 0x5 SWAP3 SWAP1 SWAP3 SHL DUP5 ADD DUP2 ADD SWAP2 DUP2 DUP2 ADD SWAP1 DUP7 DUP5 GT ISZERO PUSH2 0x971 JUMPI PUSH1 0x0 DUP1 REVERT JUMPDEST DUP3 DUP7 ADD JUMPDEST DUP5 DUP2 LT ISZERO PUSH2 0x98C JUMPI DUP1 CALLDATALOAD DUP4 MSTORE SWAP2 DUP4 ADD SWAP2 DUP4 ADD PUSH2 0x975 JUMP JUMPDEST POP SWAP7 SWAP6 POP POP POP POP POP POP JUMP JUMPDEST PUSH1 0x0 DUP1 PUSH1 0x0 DUP1 PUSH1 0x0 PUSH1 0xA0 DUP7 DUP9 SUB SLT ISZERO PUSH2 0x9AF JUMPI PUSH1 0x0 DUP1 REVERT JUMPDEST DUP6 CALLDATALOAD SWAP5 POP PUSH1 0x20 DUP1 DUP8 ADD CALLDATALOAD PUSH8 0xFFFFFFFFFFFFFFFF DUP1 DUP3 GT ISZERO PUSH2 0x9CF JUMPI PUSH1 0x0 DUP1 REVERT JUMPDEST DUP2 DUP10 ADD SWAP2 POP DUP10 PUSH1 0x1F DUP4 ADD SLT PUSH2 0x9E3 JUMPI PUSH1 0x0 DUP1 REVERT JUMPDEST DUP2 CALLDATALOAD PUSH2 0x9F1 PUSH2 0x94D DUP3 PUSH2 0x908 JUMP JUMPDEST DUP2 DUP2 MSTORE PUSH1 0x5 SWAP2 SWAP1 SWAP2 SHL DUP4 ADD DUP5 ADD SWAP1 DUP5 DUP2 ADD SWAP1 DUP13 DUP4 GT ISZERO PUSH2 0xA10 JUMPI PUSH1 0x0 DUP1 REVERT JUMPDEST SWAP4 DUP6 ADD SWAP4 JUMPDEST DUP3 DUP6 LT ISZERO PUSH2 0xA2E JUMPI DUP5 CALLDATALOAD DUP3 MSTORE SWAP4 DUP6 ADD SWAP4 SWAP1 DUP6 ADD SWAP1 PUSH2 0xA15 JUMP JUMPDEST SWAP9 POP PUSH2 0xA3F SWAP2 POP POP PUSH1 0x40 DUP11 ADD PUSH2 0x82D JUMP JUMPDEST SWAP6 POP PUSH1 0x60 DUP10 ADD CALLDATALOAD SWAP3 POP DUP1 DUP4 GT ISZERO PUSH2 0xA55 JUMPI PUSH1 0x0 DUP1 REVERT JUMPDEST PUSH2 0xA61 DUP11 DUP5 DUP12 ADD PUSH2 0x92C JUMP JUMPDEST SWAP5 POP PUSH1 0x80 DUP10 ADD CALLDATALOAD SWAP3 POP DUP1 DUP4 GT ISZERO PUSH2 0xA77 JUMPI PUSH1 0x0 DUP1 REVERT JUMPDEST POP POP PUSH2 0xA85 DUP9 DUP3 DUP10 ADD PUSH2 0x92C JUMP JUMPDEST SWAP2 POP POP SWAP3 SWAP6 POP SWAP3 SWAP6 SWAP1 SWAP4 POP JUMP JUMPDEST PUSH1 0x0 DUP2 MLOAD PUSH1 0x20 DUP1 DUP5 ADD PUSH1 0x0 JUMPDEST DUP4 DUP2 LT ISZERO PUSH2 0xABA JUMPI DUP2 MLOAD DUP8 MSTORE SWAP6 DUP3 ADD SWAP6 SWAP1 DUP3 ADD SWAP1 PUSH1 0x1 ADD PUSH2 0xA9E JUMP JUMPDEST POP SWAP5 SWAP6 SWAP5 POP POP POP POP POP JUMP JUMPDEST PUSH32 0xFFFFFFFFFFFFFFFFFFFFFFFFFFFFFFFFFFFFFFFF000000000000000000000000 DUP6 PUSH1 0x60 SHL AND DUP2 MSTORE PUSH1 0x0 PUSH2 0xB05 PUSH2 0xAFF PUSH1 0x14 DUP5 ADD DUP8 PUSH2 0xA92 JUMP JUMPDEST DUP6 PUSH2 0xA92 JUMP JUMPDEST SWAP3 DUP4 MSTORE POP POP PUSH1 0x20 ADD SWAP4 SWAP3 POP POP POP JUMP JUMPDEST DUP1 MLOAD DUP1 DUP4 MSTORE PUSH1 0x20 SWAP3 DUP4 ADD SWAP3 PUSH1 0x0 SWAP2 SWAP1 DUP1 DUP5 ADD DUP4 DUP4 ISZERO PUSH2 0xABA JUMPI DUP2 MLOAD DUP8 MSTORE SWAP6 DUP3 ADD SWAP6 SWAP1 DUP3 ADD SWAP1 PUSH1 0x1 ADD PUSH2 0xA9E JUMP JUMPDEST PUSH20 0xFFFFFFFFFFFFFFFFFFFFFFFFFFFFFFFFFFFFFFFF DUP6 AND DUP2 MSTORE PUSH1 0x80 PUSH1 0x20 DUP3 ADD MSTORE PUSH1 0x0 PUSH2 0xB70 PUSH1 0x80 DUP4 ADD DUP7 PUSH2 0xB14 JUMP JUMPDEST DUP3 DUP2 SUB PUSH1 0x40 DUP5 ADD MSTORE PUSH2 0xB82 DUP2 DUP7 PUSH2 0xB14 JUMP JUMPDEST SWAP2 POP POP DUP3 PUSH1 0x60 DUP4 ADD MSTORE SWAP6 SWAP5 POP POP POP POP POP JUMP JUMPDEST PUSH20 0xFFFFFFFFFFFFFFFFFFFFFFFFFFFFFFFFFFFFFFFF DUP5 AND DUP2 MSTORE PUSH1 0x80 PUSH1 0x20 DUP3 ADD MSTORE PUSH1 0x0 PUSH2 0xBC3 PUSH1 0x80 DUP4 ADD DUP6 PUSH2 0xB14 JUMP JUMPDEST DUP3 DUP2 SUB PUSH1 0x40 DUP5 ADD MSTORE PUSH2 0xBD5 DUP2 DUP6 PUSH2 0xB14 JUMP JUMPDEST DUP4 DUP2 SUB PUSH1 0x60 SWAP1 SWAP5 ADD SWAP4 SWAP1 SWAP4 MSTORE POP POP PUSH1 0x0 DUP2 MSTORE PUSH1 0x20 ADD SWAP4 SWAP3 POP POP POP JUMP JUMPDEST PUSH1 0x40 DUP2 MSTORE PUSH1 0x0 PUSH2 0xC04 PUSH1 0x40 DUP4 ADD DUP6 PUSH2 0xB14 JUMP JUMPDEST DUP3 DUP2 SUB PUSH1 0x20 DUP5 ADD MSTORE PUSH2 0xC16 DUP2 DUP6 PUSH2 0xB14 JUMP JUMPDEST SWAP6 SWAP5 POP POP POP POP POP JUMP JUMPDEST PUSH1 0x0 PUSH1 0x20 DUP3 DUP5 SUB SLT ISZERO PUSH2 0xC31 JUMPI PUSH1 0x0 DUP1 REVERT JUMPDEST DUP2 MLOAD DUP1 ISZERO ISZERO DUP2 EQ PUSH2 0x7D9 JUMPI PUSH1 0x0 DUP1 REVERT JUMPDEST PUSH32 0x4E487B7100000000000000000000000000000000000000000000000000000000 PUSH1 0x0 MSTORE PUSH1 0x32 PUSH1 0x4 MSTORE PUSH1 0x24 PUSH1 0x0 REVERT JUMPDEST PUSH1 0x0 PUSH32 0xFFFFFFFFFFFFFFFFFFFFFFFFFFFFFFFFFFFFFFFFFFFFFFFFFFFFFFFFFFFFFFFF DUP3 SUB PUSH2 0xCC8 JUMPI PUSH32 0x4E487B7100000000000000000000000000000000000000000000000000000000 PUSH1 0x0 MSTORE PUSH1 0x11 PUSH1 0x4 MSTORE PUSH1 0x24 PUSH1 0x0 REVERT JUMPDEST POP PUSH1 0x1 ADD SWAP1 JUMP JUMPDEST PUSH1 0x0 DUP1 DUP6 DUP6 GT ISZERO PUSH2 0xCDF JUMPI PUSH1 0x0 DUP1 REVERT JUMPDEST DUP4 DUP7 GT ISZERO PUSH2 0xCEC JUMPI PUSH1 0x0 DUP1 REVERT JUMPDEST POP POP DUP3 ADD SWAP4 SWAP2 SWAP1 SWAP3 SUB SWAP2 POP JUMP INVALID LOG2 PUSH5 0x6970667358 0x22 SLT KECCAK256 0xE5 0x1E 0xE9 0x5E MSIZE 0xB4 DUP1 0xE5 DUP16 0xED 0xC0 0xDE 0xD8 PUSH19 0xEA2ADD361B07DA462D089CD436F71E64104964 PUSH20 0x6F6C634300081100330000000000000000000000 "},"gasEstimates":{"creation":{"codeDepositCost":"675000","executionCost":"infinite","totalCost":"infinite"},"external":{"MERKLE_ROOT()":"infinite","REWARD_CONTRACT()":"infinite","__msgData()":"infinite","__msgSender()":"infinite","claim(bytes32,bytes32[],address,uint256[],uint256[])":"infinite","claimStatus(bytes32)":"2497","forwarderRegistry()":"infinite","isTrustedForwarder(address)":"infinite"}},"methodIdentifiers":{"MERKLE_ROOT()":"51e75e8b","REWARD_CONTRACT()":"3a5af339","__msgData()":"31e66e1e","__msgSender()":"d1a91ff2","claim(bytes32,bytes32[],address,uint256[],uint256[])":"f15e20e7","claimStatus(bytes32)":"e3a0ce09","forwarderRegistry()":"2b4c9f16","isTrustedForwarder(address)":"572b6c05"}},"storageLayout":{"storage":[{"astId":780,"contract":"contracts/mocks/merkleClaim/AnichessERC1155MerkleClaimMock.sol:AnichessERC1155MerkleClaimMock","label":"claimStatus","offset":0,"slot":"0","type":"t_mapping(t_bytes32,t_bool)"}],"types":{"t_bool":{"encoding":"inplace","label":"bool","numberOfBytes":"1"},"t_bytes32":{"encoding":"inplace","label":"bytes32","numberOfBytes":"32"},"t_mapping(t_bytes32,t_bool)":{"encoding":"mapping","key":"t_bytes32","label":"mapping(bytes32 => bool)","numberOfBytes":"32","value":"t_bool"}}},"userdoc":{"errors":{"AlreadyClaimed(address,uint256[],uint256[],bytes32)":[{"notice":"Error thrown when the payout has already been claimed."}],"InvalidProof(address,uint256[],uint256[],bytes32)":[{"notice":"Error thrown when the proof provided for the claim is invalid."}]},"events":{"PayoutClaimed(bytes32,address,uint256[],uint256[])":{"notice":"Event emitted when a payout is claimed."}},"kind":"user","methods":{"MERKLE_ROOT()":{"notice":"The Merkle root of the claim."},"REWARD_CONTRACT()":{"notice":"The ERC1155Mintable reward contract interface."},"__msgData()":{"notice":"Internal function to access the current msg.data."},"claim(bytes32,bytes32[],address,uint256[],uint256[])":{"notice":"Allows eligible users to claim their rewards using a Merkle proof."},"claimStatus(bytes32)":{"notice":"Mapping to store claim status to prevent double claiming."},"isTrustedForwarder(address)":{"notice":"Checks whether a forwarder is trusted."}},"version":1}}}}