{"contracts/merkleClaim/ERC20ClaimWindowMerkleClaim.sol":{"ERC20ClaimWindowMerkleClaim":{"abi":[{"inputs":[{"internalType":"address","name":"erc20Token_","type":"address"},{"internalType":"address","name":"stakingPool_","type":"address"},{"internalType":"address","name":"tokenHolderWallet_","type":"address"},{"internalType":"contract IForwarderRegistry","name":"forwarderRegistry_","type":"address"}],"stateMutability":"nonpayable","type":"constructor"},{"inputs":[{"internalType":"bytes32","name":"epochId","type":"bytes32"},{"internalType":"bytes32","name":"leaf","type":"bytes32"}],"name":"AlreadyClaimed","type":"error"},{"inputs":[{"internalType":"bytes32","name":"epochId","type":"bytes32"}],"name":"EpochIdAlreadyExists","type":"error"},{"inputs":[{"internalType":"bytes32","name":"epochId","type":"bytes32"}],"name":"EpochIdNotExists","type":"error"},{"inputs":[],"name":"IllegalInterfaceId","type":"error"},{"inputs":[{"internalType":"uint256","name":"startTime","type":"uint256"},{"internalType":"uint256","name":"endTime","type":"uint256"},{"internalType":"uint256","name":"currentTime","type":"uint256"}],"name":"InvalidClaimWindow","type":"error"},{"inputs":[],"name":"InvalidERC20Token","type":"error"},{"inputs":[],"name":"InvalidMerkleRoot","type":"error"},{"inputs":[{"internalType":"bytes32","name":"epochId","type":"bytes32"},{"internalType":"address","name":"recipient","type":"address"},{"internalType":"uint256","name":"amount","type":"uint256"}],"name":"InvalidProof","type":"error"},{"inputs":[],"name":"InvalidStakingPool","type":"error"},{"inputs":[{"internalType":"address","name":"account","type":"address"}],"name":"NotContractOwner","type":"error"},{"inputs":[{"internalType":"bytes32","name":"epochId","type":"bytes32"},{"internalType":"uint256","name":"currentTime","type":"uint256"}],"name":"OutOfClaimWindow","type":"error"},{"anonymous":false,"inputs":[{"indexed":true,"internalType":"bytes32","name":"epochId","type":"bytes32"},{"indexed":true,"internalType":"bytes32","name":"merkleRoot","type":"bytes32"},{"indexed":false,"internalType":"uint256","name":"startTime","type":"uint256"},{"indexed":true,"internalType":"uint256","name":"endTime","type":"uint256"}],"name":"EpochMerkleRootSet","type":"event"},{"anonymous":false,"inputs":[{"indexed":true,"internalType":"address","name":"previousOwner","type":"address"},{"indexed":true,"internalType":"address","name":"newOwner","type":"address"}],"name":"OwnershipTransferred","type":"event"},{"anonymous":false,"inputs":[{"indexed":true,"internalType":"bytes32","name":"epochId","type":"bytes32"},{"indexed":true,"internalType":"bytes32","name":"root","type":"bytes32"},{"indexed":true,"internalType":"address","name":"recipient","type":"address"},{"indexed":false,"internalType":"uint256","name":"amount","type":"uint256"}],"name":"PayoutClaimed","type":"event"},{"anonymous":false,"inputs":[{"indexed":true,"internalType":"address","name":"newTokenHolderWallet","type":"address"}],"name":"TokenHolderWalletSet","type":"event"},{"inputs":[],"name":"ERC20_TOKEN","outputs":[{"internalType":"contract IERC20SafeTransfers","name":"","type":"address"}],"stateMutability":"view","type":"function"},{"inputs":[],"name":"STAKING_POOL","outputs":[{"internalType":"address","name":"","type":"address"}],"stateMutability":"view","type":"function"},{"inputs":[{"internalType":"bytes32","name":"epochId","type":"bytes32"},{"internalType":"address","name":"recipient","type":"address"},{"internalType":"uint256","name":"amount","type":"uint256"}],"name":"canClaim","outputs":[{"internalType":"enum ERC20ClaimWindowMerkleClaim.ClaimError","name":"","type":"uint8"}],"stateMutability":"view","type":"function"},{"inputs":[{"internalType":"bytes32","name":"epochId","type":"bytes32"},{"internalType":"address","name":"recipient","type":"address"},{"internalType":"uint256","name":"amount","type":"uint256"},{"internalType":"bytes32[]","name":"proof","type":"bytes32[]"}],"name":"claimAndStake","outputs":[],"stateMutability":"nonpayable","type":"function"},{"inputs":[{"internalType":"bytes32","name":"epochId","type":"bytes32"}],"name":"claimWindows","outputs":[{"internalType":"bytes32","name":"merkleRoot","type":"bytes32"},{"internalType":"uint256","name":"startTime","type":"uint256"},{"internalType":"uint256","name":"endTime","type":"uint256"}],"stateMutability":"view","type":"function"},{"inputs":[{"internalType":"bytes32","name":"leaf","type":"bytes32"}],"name":"claimed","outputs":[{"internalType":"bool","name":"claimed","type":"bool"}],"stateMutability":"view","type":"function"},{"inputs":[],"name":"forwarderRegistry","outputs":[{"internalType":"contract IForwarderRegistry","name":"","type":"address"}],"stateMutability":"view","type":"function"},{"inputs":[{"internalType":"address","name":"forwarder","type":"address"}],"name":"isTrustedForwarder","outputs":[{"internalType":"bool","name":"","type":"bool"}],"stateMutability":"view","type":"function"},{"inputs":[],"name":"owner","outputs":[{"internalType":"address","name":"","type":"address"}],"stateMutability":"view","type":"function"},{"inputs":[{"internalType":"bytes32","name":"epochId","type":"bytes32"},{"internalType":"bytes32","name":"merkleRoot","type":"bytes32"},{"internalType":"uint256","name":"startTime","type":"uint256"},{"internalType":"uint256","name":"endTime","type":"uint256"}],"name":"setEpochMerkleRoot","outputs":[],"stateMutability":"nonpayable","type":"function"},{"inputs":[{"internalType":"address","name":"newTokenHolderWallet","type":"address"}],"name":"setTokenHolderWallet","outputs":[],"stateMutability":"nonpayable","type":"function"},{"inputs":[{"internalType":"bytes4","name":"interfaceId","type":"bytes4"}],"name":"supportsInterface","outputs":[{"internalType":"bool","name":"","type":"bool"}],"stateMutability":"view","type":"function"},{"inputs":[],"name":"tokenHolderWallet","outputs":[{"internalType":"address","name":"","type":"address"}],"stateMutability":"view","type":"function"},{"inputs":[{"internalType":"address","name":"newOwner","type":"address"}],"name":"transferOwnership","outputs":[],"stateMutability":"nonpayable","type":"function"}],"devdoc":{"errors":{"NotContractOwner(address)":[{"params":{"account":"The account that was checked."}}]},"events":{"EpochMerkleRootSet(bytes32,bytes32,uint256,uint256)":{"params":{"endTime":"The end time of the claim window.","epochId":"The unique epoch ID associated with the specified claim window.","merkleRoot":"The merkle root in the claim window.","startTime":"The start time of the claim window."}},"OwnershipTransferred(address,address)":{"params":{"newOwner":"the new contract owner.","previousOwner":"the previous contract owner."}},"PayoutClaimed(bytes32,bytes32,address,uint256)":{"params":{"amount":"The amount of checkmate token is claimed.","epochId":"The unique epoch ID associated with the claim window.","recipient":"The recipient of the checkmate token.","root":"The merkle root of the claim window."}},"TokenHolderWalletSet(address)":{"params":{"newTokenHolderWallet":"The address of the new token holder wallet."}}},"kind":"dev","methods":{"canClaim(bytes32,address,uint256)":{"params":{"amount":"The amount of checkmate token to be claimed.","epochId":"The unique epoch ID associated with the claim window.","recipient":"The recipient of the checkmate token."}},"claimAndStake(bytes32,address,uint256,bytes32[])":{"details":"Reverts with {EpochIdNotExists} if epoch id does not exist.Reverts with {OutOfClaimWindow} if current block time is beyond claim window.Reverts with {AlreadyClaimed} if the specified payout has already been claimed.Reverts with {InvalidProof} if the merkle proof has failed the verification.Reverts with {TransferFailed} if checkmate token transfer fails.Emits a {PayoutClaimed} event.","params":{"amount":"The amount of checkmate token to be claimed.","epochId":"The unique epoch ID associated with the claim window.","proof":"The Merkle proof for the claim.","recipient":"The recipient of the checkmate token."}},"isTrustedForwarder(address)":{"params":{"forwarder":"The forwarder to check."},"returns":{"_0":"True if `forwarder` is trusted, false if not."}},"owner()":{"returns":{"_0":"The address of the contract owner."}},"setEpochMerkleRoot(bytes32,bytes32,uint256,uint256)":{"details":"Reverts if _msgSender() is not the owner.Reverts if the merkle root is zero.Reverts if the claim window is invalid.Reverts if the epoch ID has already been set.Emits a {EpochMerkleRootSet} event.","params":{"endTime":"The end time of the claim window.","epochId":"The epoch ID for the claim.","merkleRoot":"The Merkle root of the claim.","startTime":"The start time of the claim window."}},"setTokenHolderWallet(address)":{"details":"Reverts if _msgSender() is not the owner.Emits a {TokenHolderWalletSet} event.","params":{"newTokenHolderWallet":"The address of the new token holder wallet."}},"supportsInterface(bytes4)":{"details":"Note: This function call must use less than 30 000 gas.","params":{"interfaceId":"the interface identifier to test."},"returns":{"_0":"True if the interface is supported, false if `interfaceId` is `0xffffffff` or if the interface is not supported."}},"transferOwnership(address)":{"details":"Reverts if the sender is not the contract owner.Emits an {OwnershipTransferred} event if `newOwner` is different from the current contract owner.","params":{"newOwner":"The address of the new contract owner. Using the zero address means renouncing ownership."}}},"version":1},"evm":{"bytecode":{"linkReferences":{},"object":"60e060405234801561001057600080fd5b506040516114c33803806114c383398101604081905261002f91610244565b6001600160a01b0381166080523361004f816100496100f8565b9061012c565b506001600160a01b038416610077576040516326412d8960e21b815260040160405180910390fd5b6001600160a01b0380851660a05283166100a457604051633b106f8560e01b815260040160405180910390fd5b6001600160a01b0383811660c052600080546001600160a01b03191691841691821781556040517f329827290d5ca169f07779e969ad40b6df3087f6c12c9467c96f1a88316a5bdb9190a2505050506102c4565b60008061012660017fc9ed16f33ab3a66c84bfd83099ccb2a8845871e2e1c1928f63797152f0fd54cd6102a3565b92915050565b6001600160a01b038116156101825781546001600160a01b0319166001600160a01b03821690811783556040516000907f8be0079c531659141344cd1fd0a4f28419497f9722a3daafe3b4186f6b6457e0908290a35b61019e6307f5828d60e41b60016101976101a2565b91906101d0565b5050565b60008061012660017fca9d3e17f264b0f3984e2634e94adb37fa3e6a8103f06aeae6fa59e21c769f5e6102a3565b600160e01b6001600160e01b03198316016101fe576040516372c683bb60e01b815260040160405180910390fd5b6001600160e01b03199190911660009081526020929092526040909120805460ff1916911515919091179055565b6001600160a01b038116811461024157600080fd5b50565b6000806000806080858703121561025a57600080fd5b84516102658161022c565b60208601519094506102768161022c565b60408601519093506102878161022c565b60608601519092506102988161022c565b939692955090935050565b8181038181111561012657634e487b7160e01b600052601160045260246000fd5b60805160a05160c0516111ad6103166000396000818161013101526106e40152600081816102aa01526106b701526000818161017a015281816101c101528181610cb10152610d3f01526111ad6000f3fe608060405234801561001057600080fd5b50600436106100ea5760003560e01c8063cc3c0f061161008c578063ec7f749411610066578063ec7f749414610292578063efc4c631146102a5578063f2fde38b146102cc578063fbb0f673146102df57600080fd5b8063cc3c0f0614610206578063d6a3138b14610229578063dc45def61461024957600080fd5b80632b4c9f16116100c85780632b4c9f1614610178578063563cac281461019e578063572b6c05146101b15780638da5cb5b146101fe57600080fd5b806301ffc9a7146100ef5780630328a8fc1461011757806314ae36ae1461012c575b600080fd5b6101026100fd366004610e2f565b6102ff565b60405190151581526020015b60405180910390f35b61012a610125366004610e71565b610319565b005b6101537f000000000000000000000000000000000000000000000000000000000000000081565b60405173ffffffffffffffffffffffffffffffffffffffff909116815260200161010e565b7f0000000000000000000000000000000000000000000000000000000000000000610153565b61012a6101ac366004610ecc565b61048e565b6101026101bf366004610f65565b7f000000000000000000000000000000000000000000000000000000000000000073ffffffffffffffffffffffffffffffffffffffff90811691161490565b6101536107fd565b610102610214366004610f80565b60026020526000908152604090205460ff1681565b61023c610237366004610f99565b610829565b60405161010e9190610ffe565b610277610257366004610f80565b600160208190526000918252604090912080549181015460029091015483565b6040805193845260208401929092529082015260600161010e565b61012a6102a0366004610f65565b6108a1565b6101537f000000000000000000000000000000000000000000000000000000000000000081565b61012a6102da366004610f65565b610919565b6000546101539073ffffffffffffffffffffffffffffffffffffffff1681565b60006103138261030d610937565b90610965565b92915050565b610332610324610a3f565b61032c610a49565b90610a77565b82610369576040517f9dd854d300000000000000000000000000000000000000000000000000000000815260040160405180910390fd5b80821015806103785750428111155b156103c4576040517f790c7cef00000000000000000000000000000000000000000000000000000000815260048101839052602481018290524260448201526064015b60405180910390fd5b6000848152600160205260409020541561040d576040517fed10979d000000000000000000000000000000000000000000000000000000008152600481018590526024016103bb565b60408051606081018252848152602080820185815282840185815260008981526001938490528590209351845590519183019190915551600290910155518190849086907f97df4a2fb6656595bc6eb616c2068e9d50031428ef69d8849590bc9f3dec620b906104809087815260200190565b60405180910390a450505050565b604080516020808201889052606087901b7fffffffffffffffffffffffffffffffffffffffff00000000000000000000000016828401526054808301879052835180840390910181526074909201835281519181019190912060008881526001909252918120906104ff8284610ae6565b9050600181600381111561051557610515610fcf565b0361054f576040517f84f229dc000000000000000000000000000000000000000000000000000000008152600481018990526024016103bb565b600281600381111561056357610563610fcf565b036105a3576040517fdbeb4f4d000000000000000000000000000000000000000000000000000000008152600481018990524260248201526044016103bb565b60038160038111156105b7576105b7610fcf565b036105f8576040517fdc20789f00000000000000000000000000000000000000000000000000000000815260048101899052602481018490526044016103bb565b815461060686868387610b41565b610662576040517fcc55900d000000000000000000000000000000000000000000000000000000008152600481018a905273ffffffffffffffffffffffffffffffffffffffff89166024820152604481018890526064016103bb565b600084815260026020908152604080832080547fffffffffffffffffffffffffffffffffffffffffffffffffffffffffffffff001660011790559154915173ffffffffffffffffffffffffffffffffffffffff7f000000000000000000000000000000000000000000000000000000000000000081169363b88d4fde939116917f0000000000000000000000000000000000000000000000000000000000000000918c9161072e918f910173ffffffffffffffffffffffffffffffffffffffff91909116815260200190565b6040516020818303038152906040526040518563ffffffff1660e01b815260040161075c949392919061103f565b6020604051808303816000875af115801561077b573d6000803e3d6000fd5b505050506040513d601f19601f8201168201806040525081019061079f91906110ec565b508773ffffffffffffffffffffffffffffffffffffffff16818a7f06da15703c9baa6922f6a2f40fe90a03f70a24b9113edd75f913454a45d996cd8a6040516107ea91815260200190565b60405180910390a4505050505050505050565b600061082461080a610a49565b5473ffffffffffffffffffffffffffffffffffffffff1690565b905090565b600083815260016020908152604080832081519283018790527fffffffffffffffffffffffffffffffffffffffff000000000000000000000000606087901b1691830191909152605482018490526108999160740160405160208183030381529060405280519060200120610ae6565b949350505050565b6108ac610324610a3f565b600080547fffffffffffffffffffffffff00000000000000000000000000000000000000001673ffffffffffffffffffffffffffffffffffffffff8316908117825560405190917f329827290d5ca169f07779e969ad40b6df3087f6c12c9467c96f1a88316a5bdb91a250565b610934610924610a3f565b8261092d610a49565b9190610b59565b50565b60008061031360017fca9d3e17f264b0f3984e2634e94adb37fa3e6a8103f06aeae6fa59e21c769f5e61110e565b60007c01000000000000000000000000000000000000000000000000000000007fffffffff000000000000000000000000000000000000000000000000000000008316016109b557506000610313565b7ffe003659000000000000000000000000000000000000000000000000000000007fffffffff00000000000000000000000000000000000000000000000000000000831601610a0657506001610313565b507fffffffff00000000000000000000000000000000000000000000000000000000166000908152602091909152604090205460ff1690565b6000610824610c6e565b60008061031360017fc9ed16f33ab3a66c84bfd83099ccb2a8845871e2e1c1928f63797152f0fd54cd61110e565b815473ffffffffffffffffffffffffffffffffffffffff828116911614610ae2576040517f2ef4875e00000000000000000000000000000000000000000000000000000000815273ffffffffffffffffffffffffffffffffffffffff821660048201526024016103bb565b5050565b8154600090610af757506001610313565b8260010154421080610b0c5750826002015442115b15610b1957506002610313565b60008281526002602052604090205460ff1615610b3857506003610313565b50600092915050565b600082610b4f868685610dbb565b1495945050505050565b825473ffffffffffffffffffffffffffffffffffffffff9081169083168114610bc6576040517f2ef4875e00000000000000000000000000000000000000000000000000000000815273ffffffffffffffffffffffffffffffffffffffff841660048201526024016103bb565b8173ffffffffffffffffffffffffffffffffffffffff168173ffffffffffffffffffffffffffffffffffffffff1614610c685783547fffffffffffffffffffffffff00000000000000000000000000000000000000001673ffffffffffffffffffffffffffffffffffffffff8381169182178655604051908316907f8be0079c531659141344cd1fd0a4f28419497f9722a3daafe3b4186f6b6457e090600090a35b50505050565b600033321480610c7e5750601836105b15610c8857503390565b7fffffffffffffffffffffffffffffffffffffffffffffffffffffffffffffffec36013560601c7f000000000000000000000000000000000000000000000000000000000000000073ffffffffffffffffffffffffffffffffffffffff16331480610daa57506040517f019a202800000000000000000000000000000000000000000000000000000000815273ffffffffffffffffffffffffffffffffffffffff82811660048301523360248301523060448301527f0000000000000000000000000000000000000000000000000000000000000000169063019a202890606401602060405180830381865afa158015610d86573d6000803e3d6000fd5b505050506040513d601f19601f82011682018060405250810190610daa91906110ec565b15610db457919050565b3391505090565b600081815b84811015610df457610dea82878784818110610dde57610dde611148565b90506020020135610dfd565b9150600101610dc0565b50949350505050565b6000818310610e19576000828152602084905260409020610e28565b60008381526020839052604090205b9392505050565b600060208284031215610e4157600080fd5b81357fffffffff0000000000000000000000000000000000000000000000000000000081168114610e2857600080fd5b60008060008060808587031215610e8757600080fd5b5050823594602084013594506040840135936060013592509050565b803573ffffffffffffffffffffffffffffffffffffffff81168114610ec757600080fd5b919050565b600080600080600060808688031215610ee457600080fd5b85359450610ef460208701610ea3565b935060408601359250606086013567ffffffffffffffff811115610f1757600080fd5b8601601f81018813610f2857600080fd5b803567ffffffffffffffff811115610f3f57600080fd5b8860208260051b8401011115610f5457600080fd5b959894975092955050506020019190565b600060208284031215610f7757600080fd5b610e2882610ea3565b600060208284031215610f9257600080fd5b5035919050565b600080600060608486031215610fae57600080fd5b83359250610fbe60208501610ea3565b929592945050506040919091013590565b7f4e487b7100000000000000000000000000000000000000000000000000000000600052602160045260246000fd5b6020810160048310611039577f4e487b7100000000000000000000000000000000000000000000000000000000600052602160045260246000fd5b91905290565b73ffffffffffffffffffffffffffffffffffffffff8516815273ffffffffffffffffffffffffffffffffffffffff84166020820152826040820152608060608201526000825180608084015260005b818110156110ab57602081860181015160a086840101520161108e565b50600060a0828501015260a07fffffffffffffffffffffffffffffffffffffffffffffffffffffffffffffffe0601f83011684010191505095945050505050565b6000602082840312156110fe57600080fd5b81518015158114610e2857600080fd5b81810381811115610313577f4e487b7100000000000000000000000000000000000000000000000000000000600052601160045260246000fd5b7f4e487b7100000000000000000000000000000000000000000000000000000000600052603260045260246000fdfea26469706673582212207e0184fcb63a384ed33693536c967fa0a57566fe6a1ad46e55357753923506e064736f6c634300081c0033","opcodes":"PUSH1 0xE0 PUSH1 0x40 MSTORE CALLVALUE DUP1 ISZERO PUSH2 0x10 JUMPI PUSH1 0x0 DUP1 REVERT JUMPDEST POP PUSH1 0x40 MLOAD PUSH2 0x14C3 CODESIZE SUB DUP1 PUSH2 0x14C3 DUP4 CODECOPY DUP2 ADD PUSH1 0x40 DUP2 SWAP1 MSTORE PUSH2 0x2F SWAP2 PUSH2 0x244 JUMP JUMPDEST PUSH1 0x1 PUSH1 0x1 PUSH1 0xA0 SHL SUB DUP2 AND PUSH1 0x80 MSTORE CALLER PUSH2 0x4F DUP2 PUSH2 0x49 PUSH2 0xF8 JUMP JUMPDEST SWAP1 PUSH2 0x12C JUMP JUMPDEST POP PUSH1 0x1 PUSH1 0x1 PUSH1 0xA0 SHL SUB DUP5 AND PUSH2 0x77 JUMPI PUSH1 0x40 MLOAD PUSH4 0x26412D89 PUSH1 0xE2 SHL DUP2 MSTORE PUSH1 0x4 ADD PUSH1 0x40 MLOAD DUP1 SWAP2 SUB SWAP1 REVERT JUMPDEST PUSH1 0x1 PUSH1 0x1 PUSH1 0xA0 SHL SUB DUP1 DUP6 AND PUSH1 0xA0 MSTORE DUP4 AND PUSH2 0xA4 JUMPI PUSH1 0x40 MLOAD PUSH4 0x3B106F85 PUSH1 0xE0 SHL DUP2 MSTORE PUSH1 0x4 ADD PUSH1 0x40 MLOAD DUP1 SWAP2 SUB SWAP1 REVERT JUMPDEST PUSH1 0x1 PUSH1 0x1 PUSH1 0xA0 SHL SUB DUP4 DUP2 AND PUSH1 0xC0 MSTORE PUSH1 0x0 DUP1 SLOAD PUSH1 0x1 PUSH1 0x1 PUSH1 0xA0 SHL SUB NOT AND SWAP2 DUP5 AND SWAP2 DUP3 OR DUP2 SSTORE PUSH1 0x40 MLOAD PUSH32 0x329827290D5CA169F07779E969AD40B6DF3087F6C12C9467C96F1A88316A5BDB SWAP2 SWAP1 LOG2 POP POP POP POP PUSH2 0x2C4 JUMP JUMPDEST PUSH1 0x0 DUP1 PUSH2 0x126 PUSH1 0x1 PUSH32 0xC9ED16F33AB3A66C84BFD83099CCB2A8845871E2E1C1928F63797152F0FD54CD PUSH2 0x2A3 JUMP JUMPDEST SWAP3 SWAP2 POP POP JUMP JUMPDEST PUSH1 0x1 PUSH1 0x1 PUSH1 0xA0 SHL SUB DUP2 AND ISZERO PUSH2 0x182 JUMPI DUP2 SLOAD PUSH1 0x1 PUSH1 0x1 PUSH1 0xA0 SHL SUB NOT AND PUSH1 0x1 PUSH1 0x1 PUSH1 0xA0 SHL SUB DUP3 AND SWAP1 DUP2 OR DUP4 SSTORE PUSH1 0x40 MLOAD PUSH1 0x0 SWAP1 PUSH32 0x8BE0079C531659141344CD1FD0A4F28419497F9722A3DAAFE3B4186F6B6457E0 SWAP1 DUP3 SWAP1 LOG3 JUMPDEST PUSH2 0x19E PUSH4 0x7F5828D PUSH1 0xE4 SHL PUSH1 0x1 PUSH2 0x197 PUSH2 0x1A2 JUMP JUMPDEST SWAP2 SWAP1 PUSH2 0x1D0 JUMP JUMPDEST POP POP JUMP JUMPDEST PUSH1 0x0 DUP1 PUSH2 0x126 PUSH1 0x1 PUSH32 0xCA9D3E17F264B0F3984E2634E94ADB37FA3E6A8103F06AEAE6FA59E21C769F5E PUSH2 0x2A3 JUMP JUMPDEST PUSH1 0x1 PUSH1 0xE0 SHL PUSH1 0x1 PUSH1 0x1 PUSH1 0xE0 SHL SUB NOT DUP4 AND ADD PUSH2 0x1FE JUMPI PUSH1 0x40 MLOAD PUSH4 0x72C683BB PUSH1 0xE0 SHL DUP2 MSTORE PUSH1 0x4 ADD PUSH1 0x40 MLOAD DUP1 SWAP2 SUB SWAP1 REVERT JUMPDEST PUSH1 0x1 PUSH1 0x1 PUSH1 0xE0 SHL SUB NOT SWAP2 SWAP1 SWAP2 AND PUSH1 0x0 SWAP1 DUP2 MSTORE PUSH1 0x20 SWAP3 SWAP1 SWAP3 MSTORE PUSH1 0x40 SWAP1 SWAP2 KECCAK256 DUP1 SLOAD PUSH1 0xFF NOT AND SWAP2 ISZERO ISZERO SWAP2 SWAP1 SWAP2 OR SWAP1 SSTORE JUMP JUMPDEST PUSH1 0x1 PUSH1 0x1 PUSH1 0xA0 SHL SUB DUP2 AND DUP2 EQ PUSH2 0x241 JUMPI PUSH1 0x0 DUP1 REVERT JUMPDEST POP JUMP JUMPDEST PUSH1 0x0 DUP1 PUSH1 0x0 DUP1 PUSH1 0x80 DUP6 DUP8 SUB SLT ISZERO PUSH2 0x25A JUMPI PUSH1 0x0 DUP1 REVERT JUMPDEST DUP5 MLOAD PUSH2 0x265 DUP2 PUSH2 0x22C JUMP JUMPDEST PUSH1 0x20 DUP7 ADD MLOAD SWAP1 SWAP5 POP PUSH2 0x276 DUP2 PUSH2 0x22C JUMP JUMPDEST PUSH1 0x40 DUP7 ADD MLOAD SWAP1 SWAP4 POP PUSH2 0x287 DUP2 PUSH2 0x22C JUMP JUMPDEST PUSH1 0x60 DUP7 ADD MLOAD SWAP1 SWAP3 POP PUSH2 0x298 DUP2 PUSH2 0x22C JUMP JUMPDEST SWAP4 SWAP7 SWAP3 SWAP6 POP SWAP1 SWAP4 POP POP JUMP JUMPDEST DUP2 DUP2 SUB DUP2 DUP2 GT ISZERO PUSH2 0x126 JUMPI PUSH4 0x4E487B71 PUSH1 0xE0 SHL PUSH1 0x0 MSTORE PUSH1 0x11 PUSH1 0x4 MSTORE PUSH1 0x24 PUSH1 0x0 REVERT JUMPDEST PUSH1 0x80 MLOAD PUSH1 0xA0 MLOAD PUSH1 0xC0 MLOAD PUSH2 0x11AD PUSH2 0x316 PUSH1 0x0 CODECOPY PUSH1 0x0 DUP2 DUP2 PUSH2 0x131 ADD MSTORE PUSH2 0x6E4 ADD MSTORE PUSH1 0x0 DUP2 DUP2 PUSH2 0x2AA ADD MSTORE PUSH2 0x6B7 ADD MSTORE PUSH1 0x0 DUP2 DUP2 PUSH2 0x17A ADD MSTORE DUP2 DUP2 PUSH2 0x1C1 ADD MSTORE DUP2 DUP2 PUSH2 0xCB1 ADD MSTORE PUSH2 0xD3F ADD MSTORE PUSH2 0x11AD PUSH1 0x0 RETURN INVALID PUSH1 0x80 PUSH1 0x40 MSTORE CALLVALUE DUP1 ISZERO PUSH2 0x10 JUMPI PUSH1 0x0 DUP1 REVERT JUMPDEST POP PUSH1 0x4 CALLDATASIZE LT PUSH2 0xEA JUMPI PUSH1 0x0 CALLDATALOAD PUSH1 0xE0 SHR DUP1 PUSH4 0xCC3C0F06 GT PUSH2 0x8C JUMPI DUP1 PUSH4 0xEC7F7494 GT PUSH2 0x66 JUMPI DUP1 PUSH4 0xEC7F7494 EQ PUSH2 0x292 JUMPI DUP1 PUSH4 0xEFC4C631 EQ PUSH2 0x2A5 JUMPI DUP1 PUSH4 0xF2FDE38B EQ PUSH2 0x2CC JUMPI DUP1 PUSH4 0xFBB0F673 EQ PUSH2 0x2DF JUMPI PUSH1 0x0 DUP1 REVERT JUMPDEST DUP1 PUSH4 0xCC3C0F06 EQ PUSH2 0x206 JUMPI DUP1 PUSH4 0xD6A3138B EQ PUSH2 0x229 JUMPI DUP1 PUSH4 0xDC45DEF6 EQ PUSH2 0x249 JUMPI PUSH1 0x0 DUP1 REVERT JUMPDEST DUP1 PUSH4 0x2B4C9F16 GT PUSH2 0xC8 JUMPI DUP1 PUSH4 0x2B4C9F16 EQ PUSH2 0x178 JUMPI DUP1 PUSH4 0x563CAC28 EQ PUSH2 0x19E JUMPI DUP1 PUSH4 0x572B6C05 EQ PUSH2 0x1B1 JUMPI DUP1 PUSH4 0x8DA5CB5B EQ PUSH2 0x1FE JUMPI PUSH1 0x0 DUP1 REVERT JUMPDEST DUP1 PUSH4 0x1FFC9A7 EQ PUSH2 0xEF JUMPI DUP1 PUSH4 0x328A8FC EQ PUSH2 0x117 JUMPI DUP1 PUSH4 0x14AE36AE EQ PUSH2 0x12C JUMPI JUMPDEST PUSH1 0x0 DUP1 REVERT JUMPDEST PUSH2 0x102 PUSH2 0xFD CALLDATASIZE PUSH1 0x4 PUSH2 0xE2F JUMP JUMPDEST PUSH2 0x2FF JUMP JUMPDEST PUSH1 0x40 MLOAD SWAP1 ISZERO ISZERO DUP2 MSTORE PUSH1 0x20 ADD JUMPDEST PUSH1 0x40 MLOAD DUP1 SWAP2 SUB SWAP1 RETURN JUMPDEST PUSH2 0x12A PUSH2 0x125 CALLDATASIZE PUSH1 0x4 PUSH2 0xE71 JUMP JUMPDEST PUSH2 0x319 JUMP JUMPDEST STOP JUMPDEST PUSH2 0x153 PUSH32 0x0 DUP2 JUMP JUMPDEST PUSH1 0x40 MLOAD PUSH20 0xFFFFFFFFFFFFFFFFFFFFFFFFFFFFFFFFFFFFFFFF SWAP1 SWAP2 AND DUP2 MSTORE PUSH1 0x20 ADD PUSH2 0x10E JUMP JUMPDEST PUSH32 0x0 PUSH2 0x153 JUMP JUMPDEST PUSH2 0x12A PUSH2 0x1AC CALLDATASIZE PUSH1 0x4 PUSH2 0xECC JUMP JUMPDEST PUSH2 0x48E JUMP JUMPDEST PUSH2 0x102 PUSH2 0x1BF CALLDATASIZE PUSH1 0x4 PUSH2 0xF65 JUMP JUMPDEST PUSH32 0x0 PUSH20 0xFFFFFFFFFFFFFFFFFFFFFFFFFFFFFFFFFFFFFFFF SWAP1 DUP2 AND SWAP2 AND EQ SWAP1 JUMP JUMPDEST PUSH2 0x153 PUSH2 0x7FD JUMP JUMPDEST PUSH2 0x102 PUSH2 0x214 CALLDATASIZE PUSH1 0x4 PUSH2 0xF80 JUMP JUMPDEST PUSH1 0x2 PUSH1 0x20 MSTORE PUSH1 0x0 SWAP1 DUP2 MSTORE PUSH1 0x40 SWAP1 KECCAK256 SLOAD PUSH1 0xFF AND DUP2 JUMP JUMPDEST PUSH2 0x23C PUSH2 0x237 CALLDATASIZE PUSH1 0x4 PUSH2 0xF99 JUMP JUMPDEST PUSH2 0x829 JUMP JUMPDEST PUSH1 0x40 MLOAD PUSH2 0x10E SWAP2 SWAP1 PUSH2 0xFFE JUMP JUMPDEST PUSH2 0x277 PUSH2 0x257 CALLDATASIZE PUSH1 0x4 PUSH2 0xF80 JUMP JUMPDEST PUSH1 0x1 PUSH1 0x20 DUP2 SWAP1 MSTORE PUSH1 0x0 SWAP2 DUP3 MSTORE PUSH1 0x40 SWAP1 SWAP2 KECCAK256 DUP1 SLOAD SWAP2 DUP2 ADD SLOAD PUSH1 0x2 SWAP1 SWAP2 ADD SLOAD DUP4 JUMP JUMPDEST PUSH1 0x40 DUP1 MLOAD SWAP4 DUP5 MSTORE PUSH1 0x20 DUP5 ADD SWAP3 SWAP1 SWAP3 MSTORE SWAP1 DUP3 ADD MSTORE PUSH1 0x60 ADD PUSH2 0x10E JUMP JUMPDEST PUSH2 0x12A PUSH2 0x2A0 CALLDATASIZE PUSH1 0x4 PUSH2 0xF65 JUMP JUMPDEST PUSH2 0x8A1 JUMP JUMPDEST PUSH2 0x153 PUSH32 0x0 DUP2 JUMP JUMPDEST PUSH2 0x12A PUSH2 0x2DA CALLDATASIZE PUSH1 0x4 PUSH2 0xF65 JUMP JUMPDEST PUSH2 0x919 JUMP JUMPDEST PUSH1 0x0 SLOAD PUSH2 0x153 SWAP1 PUSH20 0xFFFFFFFFFFFFFFFFFFFFFFFFFFFFFFFFFFFFFFFF AND DUP2 JUMP JUMPDEST PUSH1 0x0 PUSH2 0x313 DUP3 PUSH2 0x30D PUSH2 0x937 JUMP JUMPDEST SWAP1 PUSH2 0x965 JUMP JUMPDEST SWAP3 SWAP2 POP POP JUMP JUMPDEST PUSH2 0x332 PUSH2 0x324 PUSH2 0xA3F JUMP JUMPDEST PUSH2 0x32C PUSH2 0xA49 JUMP JUMPDEST SWAP1 PUSH2 0xA77 JUMP JUMPDEST DUP3 PUSH2 0x369 JUMPI PUSH1 0x40 MLOAD PUSH32 0x9DD854D300000000000000000000000000000000000000000000000000000000 DUP2 MSTORE PUSH1 0x4 ADD PUSH1 0x40 MLOAD DUP1 SWAP2 SUB SWAP1 REVERT JUMPDEST DUP1 DUP3 LT ISZERO DUP1 PUSH2 0x378 JUMPI POP TIMESTAMP DUP2 GT ISZERO JUMPDEST ISZERO PUSH2 0x3C4 JUMPI PUSH1 0x40 MLOAD PUSH32 0x790C7CEF00000000000000000000000000000000000000000000000000000000 DUP2 MSTORE PUSH1 0x4 DUP2 ADD DUP4 SWAP1 MSTORE PUSH1 0x24 DUP2 ADD DUP3 SWAP1 MSTORE TIMESTAMP PUSH1 0x44 DUP3 ADD MSTORE PUSH1 0x64 ADD JUMPDEST PUSH1 0x40 MLOAD DUP1 SWAP2 SUB SWAP1 REVERT JUMPDEST PUSH1 0x0 DUP5 DUP2 MSTORE PUSH1 0x1 PUSH1 0x20 MSTORE PUSH1 0x40 SWAP1 KECCAK256 SLOAD ISZERO PUSH2 0x40D JUMPI PUSH1 0x40 MLOAD PUSH32 0xED10979D00000000000000000000000000000000000000000000000000000000 DUP2 MSTORE PUSH1 0x4 DUP2 ADD DUP6 SWAP1 MSTORE PUSH1 0x24 ADD PUSH2 0x3BB JUMP JUMPDEST PUSH1 0x40 DUP1 MLOAD PUSH1 0x60 DUP2 ADD DUP3 MSTORE DUP5 DUP2 MSTORE PUSH1 0x20 DUP1 DUP3 ADD DUP6 DUP2 MSTORE DUP3 DUP5 ADD DUP6 DUP2 MSTORE PUSH1 0x0 DUP10 DUP2 MSTORE PUSH1 0x1 SWAP4 DUP5 SWAP1 MSTORE DUP6 SWAP1 KECCAK256 SWAP4 MLOAD DUP5 SSTORE SWAP1 MLOAD SWAP2 DUP4 ADD SWAP2 SWAP1 SWAP2 SSTORE MLOAD PUSH1 0x2 SWAP1 SWAP2 ADD SSTORE MLOAD DUP2 SWAP1 DUP5 SWAP1 DUP7 SWAP1 PUSH32 0x97DF4A2FB6656595BC6EB616C2068E9D50031428EF69D8849590BC9F3DEC620B SWAP1 PUSH2 0x480 SWAP1 DUP8 DUP2 MSTORE PUSH1 0x20 ADD SWAP1 JUMP JUMPDEST PUSH1 0x40 MLOAD DUP1 SWAP2 SUB SWAP1 LOG4 POP POP POP POP JUMP JUMPDEST PUSH1 0x40 DUP1 MLOAD PUSH1 0x20 DUP1 DUP3 ADD DUP9 SWAP1 MSTORE PUSH1 0x60 DUP8 SWAP1 SHL PUSH32 0xFFFFFFFFFFFFFFFFFFFFFFFFFFFFFFFFFFFFFFFF000000000000000000000000 AND DUP3 DUP5 ADD MSTORE PUSH1 0x54 DUP1 DUP4 ADD DUP8 SWAP1 MSTORE DUP4 MLOAD DUP1 DUP5 SUB SWAP1 SWAP2 ADD DUP2 MSTORE PUSH1 0x74 SWAP1 SWAP3 ADD DUP4 MSTORE DUP2 MLOAD SWAP2 DUP2 ADD SWAP2 SWAP1 SWAP2 KECCAK256 PUSH1 0x0 DUP9 DUP2 MSTORE PUSH1 0x1 SWAP1 SWAP3 MSTORE SWAP2 DUP2 KECCAK256 SWAP1 PUSH2 0x4FF DUP3 DUP5 PUSH2 0xAE6 JUMP JUMPDEST SWAP1 POP PUSH1 0x1 DUP2 PUSH1 0x3 DUP2 GT ISZERO PUSH2 0x515 JUMPI PUSH2 0x515 PUSH2 0xFCF JUMP JUMPDEST SUB PUSH2 0x54F JUMPI PUSH1 0x40 MLOAD PUSH32 0x84F229DC00000000000000000000000000000000000000000000000000000000 DUP2 MSTORE PUSH1 0x4 DUP2 ADD DUP10 SWAP1 MSTORE PUSH1 0x24 ADD PUSH2 0x3BB JUMP JUMPDEST PUSH1 0x2 DUP2 PUSH1 0x3 DUP2 GT ISZERO PUSH2 0x563 JUMPI PUSH2 0x563 PUSH2 0xFCF JUMP JUMPDEST SUB PUSH2 0x5A3 JUMPI PUSH1 0x40 MLOAD PUSH32 0xDBEB4F4D00000000000000000000000000000000000000000000000000000000 DUP2 MSTORE PUSH1 0x4 DUP2 ADD DUP10 SWAP1 MSTORE TIMESTAMP PUSH1 0x24 DUP3 ADD MSTORE PUSH1 0x44 ADD PUSH2 0x3BB JUMP JUMPDEST PUSH1 0x3 DUP2 PUSH1 0x3 DUP2 GT ISZERO PUSH2 0x5B7 JUMPI PUSH2 0x5B7 PUSH2 0xFCF JUMP JUMPDEST SUB PUSH2 0x5F8 JUMPI PUSH1 0x40 MLOAD PUSH32 0xDC20789F00000000000000000000000000000000000000000000000000000000 DUP2 MSTORE PUSH1 0x4 DUP2 ADD DUP10 SWAP1 MSTORE PUSH1 0x24 DUP2 ADD DUP5 SWAP1 MSTORE PUSH1 0x44 ADD PUSH2 0x3BB JUMP JUMPDEST DUP2 SLOAD PUSH2 0x606 DUP7 DUP7 DUP4 DUP8 PUSH2 0xB41 JUMP JUMPDEST PUSH2 0x662 JUMPI PUSH1 0x40 MLOAD PUSH32 0xCC55900D00000000000000000000000000000000000000000000000000000000 DUP2 MSTORE PUSH1 0x4 DUP2 ADD DUP11 SWAP1 MSTORE PUSH20 0xFFFFFFFFFFFFFFFFFFFFFFFFFFFFFFFFFFFFFFFF DUP10 AND PUSH1 0x24 DUP3 ADD MSTORE PUSH1 0x44 DUP2 ADD DUP9 SWAP1 MSTORE PUSH1 0x64 ADD PUSH2 0x3BB JUMP JUMPDEST PUSH1 0x0 DUP5 DUP2 MSTORE PUSH1 0x2 PUSH1 0x20 SWAP1 DUP2 MSTORE PUSH1 0x40 DUP1 DUP4 KECCAK256 DUP1 SLOAD PUSH32 0xFFFFFFFFFFFFFFFFFFFFFFFFFFFFFFFFFFFFFFFFFFFFFFFFFFFFFFFFFFFFFF00 AND PUSH1 0x1 OR SWAP1 SSTORE SWAP2 SLOAD SWAP2 MLOAD PUSH20 0xFFFFFFFFFFFFFFFFFFFFFFFFFFFFFFFFFFFFFFFF PUSH32 0x0 DUP2 AND SWAP4 PUSH4 0xB88D4FDE SWAP4 SWAP2 AND SWAP2 PUSH32 0x0 SWAP2 DUP13 SWAP2 PUSH2 0x72E SWAP2 DUP16 SWAP2 ADD PUSH20 0xFFFFFFFFFFFFFFFFFFFFFFFFFFFFFFFFFFFFFFFF SWAP2 SWAP1 SWAP2 AND DUP2 MSTORE PUSH1 0x20 ADD SWAP1 JUMP JUMPDEST PUSH1 0x40 MLOAD PUSH1 0x20 DUP2 DUP4 SUB SUB DUP2 MSTORE SWAP1 PUSH1 0x40 MSTORE PUSH1 0x40 MLOAD DUP6 PUSH4 0xFFFFFFFF AND PUSH1 0xE0 SHL DUP2 MSTORE PUSH1 0x4 ADD PUSH2 0x75C SWAP5 SWAP4 SWAP3 SWAP2 SWAP1 PUSH2 0x103F JUMP JUMPDEST PUSH1 0x20 PUSH1 0x40 MLOAD DUP1 DUP4 SUB DUP2 PUSH1 0x0 DUP8 GAS CALL ISZERO DUP1 ISZERO PUSH2 0x77B JUMPI RETURNDATASIZE PUSH1 0x0 DUP1 RETURNDATACOPY RETURNDATASIZE PUSH1 0x0 REVERT JUMPDEST POP POP POP POP PUSH1 0x40 MLOAD RETURNDATASIZE PUSH1 0x1F NOT PUSH1 0x1F DUP3 ADD AND DUP3 ADD DUP1 PUSH1 0x40 MSTORE POP DUP2 ADD SWAP1 PUSH2 0x79F SWAP2 SWAP1 PUSH2 0x10EC JUMP JUMPDEST POP DUP8 PUSH20 0xFFFFFFFFFFFFFFFFFFFFFFFFFFFFFFFFFFFFFFFF AND DUP2 DUP11 PUSH32 0x6DA15703C9BAA6922F6A2F40FE90A03F70A24B9113EDD75F913454A45D996CD DUP11 PUSH1 0x40 MLOAD PUSH2 0x7EA SWAP2 DUP2 MSTORE PUSH1 0x20 ADD SWAP1 JUMP JUMPDEST PUSH1 0x40 MLOAD DUP1 SWAP2 SUB SWAP1 LOG4 POP POP POP POP POP POP POP POP POP JUMP JUMPDEST PUSH1 0x0 PUSH2 0x824 PUSH2 0x80A PUSH2 0xA49 JUMP JUMPDEST SLOAD PUSH20 0xFFFFFFFFFFFFFFFFFFFFFFFFFFFFFFFFFFFFFFFF AND SWAP1 JUMP JUMPDEST SWAP1 POP SWAP1 JUMP JUMPDEST PUSH1 0x0 DUP4 DUP2 MSTORE PUSH1 0x1 PUSH1 0x20 SWAP1 DUP2 MSTORE PUSH1 0x40 DUP1 DUP4 KECCAK256 DUP2 MLOAD SWAP3 DUP4 ADD DUP8 SWAP1 MSTORE PUSH32 0xFFFFFFFFFFFFFFFFFFFFFFFFFFFFFFFFFFFFFFFF000000000000000000000000 PUSH1 0x60 DUP8 SWAP1 SHL AND SWAP2 DUP4 ADD SWAP2 SWAP1 SWAP2 MSTORE PUSH1 0x54 DUP3 ADD DUP5 SWAP1 MSTORE PUSH2 0x899 SWAP2 PUSH1 0x74 ADD PUSH1 0x40 MLOAD PUSH1 0x20 DUP2 DUP4 SUB SUB DUP2 MSTORE SWAP1 PUSH1 0x40 MSTORE DUP1 MLOAD SWAP1 PUSH1 0x20 ADD KECCAK256 PUSH2 0xAE6 JUMP JUMPDEST SWAP5 SWAP4 POP POP POP POP JUMP JUMPDEST PUSH2 0x8AC PUSH2 0x324 PUSH2 0xA3F JUMP JUMPDEST PUSH1 0x0 DUP1 SLOAD PUSH32 0xFFFFFFFFFFFFFFFFFFFFFFFF0000000000000000000000000000000000000000 AND PUSH20 0xFFFFFFFFFFFFFFFFFFFFFFFFFFFFFFFFFFFFFFFF DUP4 AND SWAP1 DUP2 OR DUP3 SSTORE PUSH1 0x40 MLOAD SWAP1 SWAP2 PUSH32 0x329827290D5CA169F07779E969AD40B6DF3087F6C12C9467C96F1A88316A5BDB SWAP2 LOG2 POP JUMP JUMPDEST PUSH2 0x934 PUSH2 0x924 PUSH2 0xA3F JUMP JUMPDEST DUP3 PUSH2 0x92D PUSH2 0xA49 JUMP JUMPDEST SWAP2 SWAP1 PUSH2 0xB59 JUMP JUMPDEST POP JUMP JUMPDEST PUSH1 0x0 DUP1 PUSH2 0x313 PUSH1 0x1 PUSH32 0xCA9D3E17F264B0F3984E2634E94ADB37FA3E6A8103F06AEAE6FA59E21C769F5E PUSH2 0x110E JUMP JUMPDEST PUSH1 0x0 PUSH29 0x100000000000000000000000000000000000000000000000000000000 PUSH32 0xFFFFFFFF00000000000000000000000000000000000000000000000000000000 DUP4 AND ADD PUSH2 0x9B5 JUMPI POP PUSH1 0x0 PUSH2 0x313 JUMP JUMPDEST PUSH32 0xFE00365900000000000000000000000000000000000000000000000000000000 PUSH32 0xFFFFFFFF00000000000000000000000000000000000000000000000000000000 DUP4 AND ADD PUSH2 0xA06 JUMPI POP PUSH1 0x1 PUSH2 0x313 JUMP JUMPDEST POP PUSH32 0xFFFFFFFF00000000000000000000000000000000000000000000000000000000 AND PUSH1 0x0 SWAP1 DUP2 MSTORE PUSH1 0x20 SWAP2 SWAP1 SWAP2 MSTORE PUSH1 0x40 SWAP1 KECCAK256 SLOAD PUSH1 0xFF AND SWAP1 JUMP JUMPDEST PUSH1 0x0 PUSH2 0x824 PUSH2 0xC6E JUMP JUMPDEST PUSH1 0x0 DUP1 PUSH2 0x313 PUSH1 0x1 PUSH32 0xC9ED16F33AB3A66C84BFD83099CCB2A8845871E2E1C1928F63797152F0FD54CD PUSH2 0x110E JUMP JUMPDEST DUP2 SLOAD PUSH20 0xFFFFFFFFFFFFFFFFFFFFFFFFFFFFFFFFFFFFFFFF DUP3 DUP2 AND SWAP2 AND EQ PUSH2 0xAE2 JUMPI PUSH1 0x40 MLOAD PUSH32 0x2EF4875E00000000000000000000000000000000000000000000000000000000 DUP2 MSTORE PUSH20 0xFFFFFFFFFFFFFFFFFFFFFFFFFFFFFFFFFFFFFFFF DUP3 AND PUSH1 0x4 DUP3 ADD MSTORE PUSH1 0x24 ADD PUSH2 0x3BB JUMP JUMPDEST POP POP JUMP JUMPDEST DUP2 SLOAD PUSH1 0x0 SWAP1 PUSH2 0xAF7 JUMPI POP PUSH1 0x1 PUSH2 0x313 JUMP JUMPDEST DUP3 PUSH1 0x1 ADD SLOAD TIMESTAMP LT DUP1 PUSH2 0xB0C JUMPI POP DUP3 PUSH1 0x2 ADD SLOAD TIMESTAMP GT JUMPDEST ISZERO PUSH2 0xB19 JUMPI POP PUSH1 0x2 PUSH2 0x313 JUMP JUMPDEST PUSH1 0x0 DUP3 DUP2 MSTORE PUSH1 0x2 PUSH1 0x20 MSTORE PUSH1 0x40 SWAP1 KECCAK256 SLOAD PUSH1 0xFF AND ISZERO PUSH2 0xB38 JUMPI POP PUSH1 0x3 PUSH2 0x313 JUMP JUMPDEST POP PUSH1 0x0 SWAP3 SWAP2 POP POP JUMP JUMPDEST PUSH1 0x0 DUP3 PUSH2 0xB4F DUP7 DUP7 DUP6 PUSH2 0xDBB JUMP JUMPDEST EQ SWAP6 SWAP5 POP POP POP POP POP JUMP JUMPDEST DUP3 SLOAD PUSH20 0xFFFFFFFFFFFFFFFFFFFFFFFFFFFFFFFFFFFFFFFF SWAP1 DUP2 AND SWAP1 DUP4 AND DUP2 EQ PUSH2 0xBC6 JUMPI PUSH1 0x40 MLOAD PUSH32 0x2EF4875E00000000000000000000000000000000000000000000000000000000 DUP2 MSTORE PUSH20 0xFFFFFFFFFFFFFFFFFFFFFFFFFFFFFFFFFFFFFFFF DUP5 AND PUSH1 0x4 DUP3 ADD MSTORE PUSH1 0x24 ADD PUSH2 0x3BB JUMP JUMPDEST DUP2 PUSH20 0xFFFFFFFFFFFFFFFFFFFFFFFFFFFFFFFFFFFFFFFF AND DUP2 PUSH20 0xFFFFFFFFFFFFFFFFFFFFFFFFFFFFFFFFFFFFFFFF AND EQ PUSH2 0xC68 JUMPI DUP4 SLOAD PUSH32 0xFFFFFFFFFFFFFFFFFFFFFFFF0000000000000000000000000000000000000000 AND PUSH20 0xFFFFFFFFFFFFFFFFFFFFFFFFFFFFFFFFFFFFFFFF DUP4 DUP2 AND SWAP2 DUP3 OR DUP7 SSTORE PUSH1 0x40 MLOAD SWAP1 DUP4 AND SWAP1 PUSH32 0x8BE0079C531659141344CD1FD0A4F28419497F9722A3DAAFE3B4186F6B6457E0 SWAP1 PUSH1 0x0 SWAP1 LOG3 JUMPDEST POP POP POP POP JUMP JUMPDEST PUSH1 0x0 CALLER ORIGIN EQ DUP1 PUSH2 0xC7E JUMPI POP PUSH1 0x18 CALLDATASIZE LT JUMPDEST ISZERO PUSH2 0xC88 JUMPI POP CALLER SWAP1 JUMP JUMPDEST PUSH32 0xFFFFFFFFFFFFFFFFFFFFFFFFFFFFFFFFFFFFFFFFFFFFFFFFFFFFFFFFFFFFFFEC CALLDATASIZE ADD CALLDATALOAD PUSH1 0x60 SHR PUSH32 0x0 PUSH20 0xFFFFFFFFFFFFFFFFFFFFFFFFFFFFFFFFFFFFFFFF AND CALLER EQ DUP1 PUSH2 0xDAA JUMPI POP PUSH1 0x40 MLOAD PUSH32 0x19A202800000000000000000000000000000000000000000000000000000000 DUP2 MSTORE PUSH20 0xFFFFFFFFFFFFFFFFFFFFFFFFFFFFFFFFFFFFFFFF DUP3 DUP2 AND PUSH1 0x4 DUP4 ADD MSTORE CALLER PUSH1 0x24 DUP4 ADD MSTORE ADDRESS PUSH1 0x44 DUP4 ADD MSTORE PUSH32 0x0 AND SWAP1 PUSH4 0x19A2028 SWAP1 PUSH1 0x64 ADD PUSH1 0x20 PUSH1 0x40 MLOAD DUP1 DUP4 SUB DUP2 DUP7 GAS STATICCALL ISZERO DUP1 ISZERO PUSH2 0xD86 JUMPI RETURNDATASIZE PUSH1 0x0 DUP1 RETURNDATACOPY RETURNDATASIZE PUSH1 0x0 REVERT JUMPDEST POP POP POP POP PUSH1 0x40 MLOAD RETURNDATASIZE PUSH1 0x1F NOT PUSH1 0x1F DUP3 ADD AND DUP3 ADD DUP1 PUSH1 0x40 MSTORE POP DUP2 ADD SWAP1 PUSH2 0xDAA SWAP2 SWAP1 PUSH2 0x10EC JUMP JUMPDEST ISZERO PUSH2 0xDB4 JUMPI SWAP2 SWAP1 POP JUMP JUMPDEST CALLER SWAP2 POP POP SWAP1 JUMP JUMPDEST PUSH1 0x0 DUP2 DUP2 JUMPDEST DUP5 DUP2 LT ISZERO PUSH2 0xDF4 JUMPI PUSH2 0xDEA DUP3 DUP8 DUP8 DUP5 DUP2 DUP2 LT PUSH2 0xDDE JUMPI PUSH2 0xDDE PUSH2 0x1148 JUMP JUMPDEST SWAP1 POP PUSH1 0x20 MUL ADD CALLDATALOAD PUSH2 0xDFD JUMP JUMPDEST SWAP2 POP PUSH1 0x1 ADD PUSH2 0xDC0 JUMP JUMPDEST POP SWAP5 SWAP4 POP POP POP POP JUMP JUMPDEST PUSH1 0x0 DUP2 DUP4 LT PUSH2 0xE19 JUMPI PUSH1 0x0 DUP3 DUP2 MSTORE PUSH1 0x20 DUP5 SWAP1 MSTORE PUSH1 0x40 SWAP1 KECCAK256 PUSH2 0xE28 JUMP JUMPDEST PUSH1 0x0 DUP4 DUP2 MSTORE PUSH1 0x20 DUP4 SWAP1 MSTORE PUSH1 0x40 SWAP1 KECCAK256 JUMPDEST SWAP4 SWAP3 POP POP POP JUMP JUMPDEST PUSH1 0x0 PUSH1 0x20 DUP3 DUP5 SUB SLT ISZERO PUSH2 0xE41 JUMPI PUSH1 0x0 DUP1 REVERT JUMPDEST DUP2 CALLDATALOAD PUSH32 0xFFFFFFFF00000000000000000000000000000000000000000000000000000000 DUP2 AND DUP2 EQ PUSH2 0xE28 JUMPI PUSH1 0x0 DUP1 REVERT JUMPDEST PUSH1 0x0 DUP1 PUSH1 0x0 DUP1 PUSH1 0x80 DUP6 DUP8 SUB SLT ISZERO PUSH2 0xE87 JUMPI PUSH1 0x0 DUP1 REVERT JUMPDEST POP POP DUP3 CALLDATALOAD SWAP5 PUSH1 0x20 DUP5 ADD CALLDATALOAD SWAP5 POP PUSH1 0x40 DUP5 ADD CALLDATALOAD SWAP4 PUSH1 0x60 ADD CALLDATALOAD SWAP3 POP SWAP1 POP JUMP JUMPDEST DUP1 CALLDATALOAD PUSH20 0xFFFFFFFFFFFFFFFFFFFFFFFFFFFFFFFFFFFFFFFF DUP2 AND DUP2 EQ PUSH2 0xEC7 JUMPI PUSH1 0x0 DUP1 REVERT JUMPDEST SWAP2 SWAP1 POP JUMP JUMPDEST PUSH1 0x0 DUP1 PUSH1 0x0 DUP1 PUSH1 0x0 PUSH1 0x80 DUP7 DUP9 SUB SLT ISZERO PUSH2 0xEE4 JUMPI PUSH1 0x0 DUP1 REVERT JUMPDEST DUP6 CALLDATALOAD SWAP5 POP PUSH2 0xEF4 PUSH1 0x20 DUP8 ADD PUSH2 0xEA3 JUMP JUMPDEST SWAP4 POP PUSH1 0x40 DUP7 ADD CALLDATALOAD SWAP3 POP PUSH1 0x60 DUP7 ADD CALLDATALOAD PUSH8 0xFFFFFFFFFFFFFFFF DUP2 GT ISZERO PUSH2 0xF17 JUMPI PUSH1 0x0 DUP1 REVERT JUMPDEST DUP7 ADD PUSH1 0x1F DUP2 ADD DUP9 SGT PUSH2 0xF28 JUMPI PUSH1 0x0 DUP1 REVERT JUMPDEST DUP1 CALLDATALOAD PUSH8 0xFFFFFFFFFFFFFFFF DUP2 GT ISZERO PUSH2 0xF3F JUMPI PUSH1 0x0 DUP1 REVERT JUMPDEST DUP9 PUSH1 0x20 DUP3 PUSH1 0x5 SHL DUP5 ADD ADD GT ISZERO PUSH2 0xF54 JUMPI PUSH1 0x0 DUP1 REVERT JUMPDEST SWAP6 SWAP9 SWAP5 SWAP8 POP SWAP3 SWAP6 POP POP POP PUSH1 0x20 ADD SWAP2 SWAP1 JUMP JUMPDEST PUSH1 0x0 PUSH1 0x20 DUP3 DUP5 SUB SLT ISZERO PUSH2 0xF77 JUMPI PUSH1 0x0 DUP1 REVERT JUMPDEST PUSH2 0xE28 DUP3 PUSH2 0xEA3 JUMP JUMPDEST PUSH1 0x0 PUSH1 0x20 DUP3 DUP5 SUB SLT ISZERO PUSH2 0xF92 JUMPI PUSH1 0x0 DUP1 REVERT JUMPDEST POP CALLDATALOAD SWAP2 SWAP1 POP JUMP JUMPDEST PUSH1 0x0 DUP1 PUSH1 0x0 PUSH1 0x60 DUP5 DUP7 SUB SLT ISZERO PUSH2 0xFAE JUMPI PUSH1 0x0 DUP1 REVERT JUMPDEST DUP4 CALLDATALOAD SWAP3 POP PUSH2 0xFBE PUSH1 0x20 DUP6 ADD PUSH2 0xEA3 JUMP JUMPDEST SWAP3 SWAP6 SWAP3 SWAP5 POP POP POP PUSH1 0x40 SWAP2 SWAP1 SWAP2 ADD CALLDATALOAD SWAP1 JUMP JUMPDEST PUSH32 0x4E487B7100000000000000000000000000000000000000000000000000000000 PUSH1 0x0 MSTORE PUSH1 0x21 PUSH1 0x4 MSTORE PUSH1 0x24 PUSH1 0x0 REVERT JUMPDEST PUSH1 0x20 DUP2 ADD PUSH1 0x4 DUP4 LT PUSH2 0x1039 JUMPI PUSH32 0x4E487B7100000000000000000000000000000000000000000000000000000000 PUSH1 0x0 MSTORE PUSH1 0x21 PUSH1 0x4 MSTORE PUSH1 0x24 PUSH1 0x0 REVERT JUMPDEST SWAP2 SWAP1 MSTORE SWAP1 JUMP JUMPDEST PUSH20 0xFFFFFFFFFFFFFFFFFFFFFFFFFFFFFFFFFFFFFFFF DUP6 AND DUP2 MSTORE PUSH20 0xFFFFFFFFFFFFFFFFFFFFFFFFFFFFFFFFFFFFFFFF DUP5 AND PUSH1 0x20 DUP3 ADD MSTORE DUP3 PUSH1 0x40 DUP3 ADD MSTORE PUSH1 0x80 PUSH1 0x60 DUP3 ADD MSTORE PUSH1 0x0 DUP3 MLOAD DUP1 PUSH1 0x80 DUP5 ADD MSTORE PUSH1 0x0 JUMPDEST DUP2 DUP2 LT ISZERO PUSH2 0x10AB JUMPI PUSH1 0x20 DUP2 DUP7 ADD DUP2 ADD MLOAD PUSH1 0xA0 DUP7 DUP5 ADD ADD MSTORE ADD PUSH2 0x108E JUMP JUMPDEST POP PUSH1 0x0 PUSH1 0xA0 DUP3 DUP6 ADD ADD MSTORE PUSH1 0xA0 PUSH32 0xFFFFFFFFFFFFFFFFFFFFFFFFFFFFFFFFFFFFFFFFFFFFFFFFFFFFFFFFFFFFFFE0 PUSH1 0x1F DUP4 ADD AND DUP5 ADD ADD SWAP2 POP POP SWAP6 SWAP5 POP POP POP POP POP JUMP JUMPDEST PUSH1 0x0 PUSH1 0x20 DUP3 DUP5 SUB SLT ISZERO PUSH2 0x10FE JUMPI PUSH1 0x0 DUP1 REVERT JUMPDEST DUP2 MLOAD DUP1 ISZERO ISZERO DUP2 EQ PUSH2 0xE28 JUMPI PUSH1 0x0 DUP1 REVERT JUMPDEST DUP2 DUP2 SUB DUP2 DUP2 GT ISZERO PUSH2 0x313 JUMPI PUSH32 0x4E487B7100000000000000000000000000000000000000000000000000000000 PUSH1 0x0 MSTORE PUSH1 0x11 PUSH1 0x4 MSTORE PUSH1 0x24 PUSH1 0x0 REVERT JUMPDEST PUSH32 0x4E487B7100000000000000000000000000000000000000000000000000000000 PUSH1 0x0 MSTORE PUSH1 0x32 PUSH1 0x4 MSTORE PUSH1 0x24 PUSH1 0x0 REVERT INVALID LOG2 PUSH5 0x6970667358 0x22 SLT KECCAK256 PUSH31 0x184FCB63A384ED33693536C967FA0A57566FE6A1AD46E55357753923506E0 PUSH5 0x736F6C6343 STOP ADDMOD SHR STOP CALLER "},"gasEstimates":{"creation":{"codeDepositCost":"905000","executionCost":"infinite","totalCost":"infinite"},"external":{"ERC20_TOKEN()":"infinite","STAKING_POOL()":"infinite","canClaim(bytes32,address,uint256)":"9411","claimAndStake(bytes32,address,uint256,bytes32[])":"infinite","claimWindows(bytes32)":"6780","claimed(bytes32)":"2462","forwarderRegistry()":"infinite","isTrustedForwarder(address)":"infinite","owner()":"infinite","setEpochMerkleRoot(bytes32,bytes32,uint256,uint256)":"infinite","setTokenHolderWallet(address)":"infinite","supportsInterface(bytes4)":"infinite","tokenHolderWallet()":"2401","transferOwnership(address)":"infinite"},"internal":{"_canClaim(struct ERC20ClaimWindowMerkleClaim.ClaimWindow storage pointer,bytes32)":"8620","_msgData()":"infinite","_msgSender()":"infinite"}},"methodIdentifiers":{"ERC20_TOKEN()":"efc4c631","STAKING_POOL()":"14ae36ae","canClaim(bytes32,address,uint256)":"d6a3138b","claimAndStake(bytes32,address,uint256,bytes32[])":"563cac28","claimWindows(bytes32)":"dc45def6","claimed(bytes32)":"cc3c0f06","forwarderRegistry()":"2b4c9f16","isTrustedForwarder(address)":"572b6c05","owner()":"8da5cb5b","setEpochMerkleRoot(bytes32,bytes32,uint256,uint256)":"0328a8fc","setTokenHolderWallet(address)":"ec7f7494","supportsInterface(bytes4)":"01ffc9a7","tokenHolderWallet()":"fbb0f673","transferOwnership(address)":"f2fde38b"}},"storageLayout":{"storage":[{"astId":2203,"contract":"contracts/merkleClaim/ERC20ClaimWindowMerkleClaim.sol:ERC20ClaimWindowMerkleClaim","label":"tokenHolderWallet","offset":0,"slot":"0","type":"t_address"},{"astId":2209,"contract":"contracts/merkleClaim/ERC20ClaimWindowMerkleClaim.sol:ERC20ClaimWindowMerkleClaim","label":"claimWindows","offset":0,"slot":"1","type":"t_mapping(t_bytes32,t_struct(ClaimWindow)2193_storage)"},{"astId":2214,"contract":"contracts/merkleClaim/ERC20ClaimWindowMerkleClaim.sol:ERC20ClaimWindowMerkleClaim","label":"claimed","offset":0,"slot":"2","type":"t_mapping(t_bytes32,t_bool)"}],"types":{"t_address":{"encoding":"inplace","label":"address","numberOfBytes":"20"},"t_bool":{"encoding":"inplace","label":"bool","numberOfBytes":"1"},"t_bytes32":{"encoding":"inplace","label":"bytes32","numberOfBytes":"32"},"t_mapping(t_bytes32,t_bool)":{"encoding":"mapping","key":"t_bytes32","label":"mapping(bytes32 => bool)","numberOfBytes":"32","value":"t_bool"},"t_mapping(t_bytes32,t_struct(ClaimWindow)2193_storage)":{"encoding":"mapping","key":"t_bytes32","label":"mapping(bytes32 => struct ERC20ClaimWindowMerkleClaim.ClaimWindow)","numberOfBytes":"32","value":"t_struct(ClaimWindow)2193_storage"},"t_struct(ClaimWindow)2193_storage":{"encoding":"inplace","label":"struct ERC20ClaimWindowMerkleClaim.ClaimWindow","members":[{"astId":2188,"contract":"contracts/merkleClaim/ERC20ClaimWindowMerkleClaim.sol:ERC20ClaimWindowMerkleClaim","label":"merkleRoot","offset":0,"slot":"0","type":"t_bytes32"},{"astId":2190,"contract":"contracts/merkleClaim/ERC20ClaimWindowMerkleClaim.sol:ERC20ClaimWindowMerkleClaim","label":"startTime","offset":0,"slot":"1","type":"t_uint256"},{"astId":2192,"contract":"contracts/merkleClaim/ERC20ClaimWindowMerkleClaim.sol:ERC20ClaimWindowMerkleClaim","label":"endTime","offset":0,"slot":"2","type":"t_uint256"}],"numberOfBytes":"96"},"t_uint256":{"encoding":"inplace","label":"uint256","numberOfBytes":"32"}}},"userdoc":{"errors":{"AlreadyClaimed(bytes32,bytes32)":[{"notice":"Error thrown when the leaf has already been claimed."}],"EpochIdAlreadyExists(bytes32)":[{"notice":"Error thrown when the epoch ID already exists."}],"EpochIdNotExists(bytes32)":[{"notice":"Error thrown when the epoch ID does not exist."}],"IllegalInterfaceId()":[{"notice":"Thrown when setting the illegal interfaceId 0xffffffff."}],"InvalidClaimWindow(uint256,uint256,uint256)":[{"notice":"Error thrown when the claim window is invalid."}],"InvalidERC20Token()":[{"notice":"Thrown when the checkmate token contract address is zero."}],"InvalidMerkleRoot()":[{"notice":"Thrown when the merkle root is zero."}],"InvalidProof(bytes32,address,uint256)":[{"notice":"Error thrown when the proof provided for the claim is invalid."}],"InvalidStakingPool()":[{"notice":"Thrown when the staking pool address is zero."}],"NotContractOwner(address)":[{"notice":"Thrown when an account is not the contract owner but is required to."}],"OutOfClaimWindow(bytes32,uint256)":[{"notice":"Error thrown when the claim window is closed or has not yet opened."}]},"events":{"EpochMerkleRootSet(bytes32,bytes32,uint256,uint256)":{"notice":"Event emitted when a claim window is set."},"OwnershipTransferred(address,address)":{"notice":"Emitted when the contract ownership changes."},"PayoutClaimed(bytes32,bytes32,address,uint256)":{"notice":"Emitted when a payout is claimed."},"TokenHolderWalletSet(address)":{"notice":"Event emitted when the token holder wallet is set."}},"kind":"user","methods":{"ERC20_TOKEN()":{"notice":"a reference to the reward token contract"},"STAKING_POOL()":{"notice":"a reference to the staking pool contract"},"canClaim(bytes32,address,uint256)":{"notice":"Checks if a recipient can claim a reward for a given epoch id"},"claimAndStake(bytes32,address,uint256,bytes32[])":{"notice":"Claims the payout for a specific epoch and stake."},"claimWindows(bytes32)":{"notice":"Mapping from the epoch ID to the claim window."},"claimed(bytes32)":{"notice":"leaf hash to claimed state"},"isTrustedForwarder(address)":{"notice":"Checks whether a forwarder is trusted."},"owner()":{"notice":"Gets the address of the contract owner."},"setEpochMerkleRoot(bytes32,bytes32,uint256,uint256)":{"notice":"Sets the merkle root for a specific epoch with start and end time."},"setTokenHolderWallet(address)":{"notice":"Sets the token holder wallet address."},"supportsInterface(bytes4)":{"notice":"Returns whether this contract implements a given interface."},"tokenHolderWallet()":{"notice":"The address of the token holder wallet."},"transferOwnership(address)":{"notice":"Sets the address of the new contract owner."}},"version":1}}}}