{"contracts/burn/OrbsBurnPool.sol":{"OrbsBurnPool":{"abi":[{"inputs":[{"internalType":"uint256","name":"initialTime","type":"uint256"},{"internalType":"uint256","name":"cycleDuration","type":"uint256"},{"internalType":"uint256","name":"maxCycle","type":"uint256"},{"internalType":"bytes32","name":"merkleRoot","type":"bytes32"},{"internalType":"uint256[7]","name":"tokenBurnWeights","type":"uint256[7]"},{"internalType":"contract IERC1155Burnable","name":"orbOfPower","type":"address"},{"internalType":"contract IERC1155Burnable","name":"missingOrb","type":"address"}],"stateMutability":"nonpayable","type":"constructor"},{"inputs":[{"internalType":"address","name":"wallet","type":"address"}],"name":"AlreadySetROCMultiplier","type":"error"},{"inputs":[],"name":"IllegalInterfaceId","type":"error"},{"inputs":[{"internalType":"uint256","name":"cycle","type":"uint256"}],"name":"InvalidCycle","type":"error"},{"inputs":[{"internalType":"address","name":"recipient","type":"address"},{"internalType":"uint256","name":"puzzleGameMultiplierNumerator","type":"uint256"}],"name":"InvalidProof","type":"error"},{"inputs":[{"internalType":"address","name":"token","type":"address"}],"name":"InvalidTokenAddress","type":"error"},{"inputs":[{"internalType":"uint256","name":"weight","type":"uint256"}],"name":"InvalidTokenBurnWeight","type":"error"},{"inputs":[{"internalType":"address","name":"token","type":"address"},{"internalType":"uint256","name":"tokenId","type":"uint256"}],"name":"InvalidTokenId","type":"error"},{"inputs":[{"internalType":"address","name":"token","type":"address"},{"internalType":"uint256","name":"tokenId","type":"uint256"},{"internalType":"uint256","name":"value","type":"uint256"}],"name":"InvalidTokenValue","type":"error"},{"inputs":[],"name":"ZeroCycleDuration","type":"error"},{"inputs":[],"name":"ZeroMaxCycle","type":"error"},{"anonymous":false,"inputs":[{"indexed":true,"internalType":"address","name":"burner","type":"address"},{"indexed":true,"internalType":"uint256","name":"cycle","type":"uint256"},{"indexed":false,"internalType":"uint256[]","name":"ids","type":"uint256[]"},{"indexed":false,"internalType":"uint256[]","name":"values","type":"uint256[]"},{"indexed":false,"internalType":"uint256","name":"ash","type":"uint256"},{"indexed":false,"internalType":"uint256","name":"totalAsh","type":"uint256"},{"indexed":false,"internalType":"uint256","name":"orbMultiplier","type":"uint256"}],"name":"GenerateAsh","type":"event"},{"anonymous":false,"inputs":[{"indexed":true,"internalType":"address","name":"recipient","type":"address"},{"indexed":false,"internalType":"uint256","name":"curOrbMultiplier","type":"uint256"},{"indexed":false,"internalType":"uint256","name":"updatedOrbMultiplier","type":"uint256"}],"name":"UpdateOrbMultiplier","type":"event"},{"inputs":[],"name":"BURN_WEIGHT_TOKEN_1","outputs":[{"internalType":"uint256","name":"","type":"uint256"}],"stateMutability":"view","type":"function"},{"inputs":[],"name":"BURN_WEIGHT_TOKEN_2","outputs":[{"internalType":"uint256","name":"","type":"uint256"}],"stateMutability":"view","type":"function"},{"inputs":[],"name":"BURN_WEIGHT_TOKEN_3","outputs":[{"internalType":"uint256","name":"","type":"uint256"}],"stateMutability":"view","type":"function"},{"inputs":[],"name":"BURN_WEIGHT_TOKEN_4","outputs":[{"internalType":"uint256","name":"","type":"uint256"}],"stateMutability":"view","type":"function"},{"inputs":[],"name":"BURN_WEIGHT_TOKEN_5","outputs":[{"internalType":"uint256","name":"","type":"uint256"}],"stateMutability":"view","type":"function"},{"inputs":[],"name":"BURN_WEIGHT_TOKEN_6","outputs":[{"internalType":"uint256","name":"","type":"uint256"}],"stateMutability":"view","type":"function"},{"inputs":[],"name":"BURN_WEIGHT_TOKEN_7","outputs":[{"internalType":"uint256","name":"","type":"uint256"}],"stateMutability":"view","type":"function"},{"inputs":[],"name":"CYCLE_DURATION","outputs":[{"internalType":"uint256","name":"","type":"uint256"}],"stateMutability":"view","type":"function"},{"inputs":[],"name":"INITIAL_TIME","outputs":[{"internalType":"uint256","name":"","type":"uint256"}],"stateMutability":"view","type":"function"},{"inputs":[],"name":"MAX_CYCLE","outputs":[{"internalType":"uint256","name":"","type":"uint256"}],"stateMutability":"view","type":"function"},{"inputs":[],"name":"MERKLE_ROOT","outputs":[{"internalType":"bytes32","name":"","type":"bytes32"}],"stateMutability":"view","type":"function"},{"inputs":[],"name":"MISSING_ORB","outputs":[{"internalType":"contract IERC1155Burnable","name":"","type":"address"}],"stateMutability":"view","type":"function"},{"inputs":[],"name":"MISSING_ORB_TOKEN_ID","outputs":[{"internalType":"uint256","name":"","type":"uint256"}],"stateMutability":"view","type":"function"},{"inputs":[],"name":"ORB_OF_POWER","outputs":[{"internalType":"contract IERC1155Burnable","name":"","type":"address"}],"stateMutability":"view","type":"function"},{"inputs":[],"name":"ROC_MULTIPLIER","outputs":[{"internalType":"uint256","name":"","type":"uint256"}],"stateMutability":"view","type":"function"},{"inputs":[],"name":"currentCycle","outputs":[{"internalType":"uint256","name":"","type":"uint256"}],"stateMutability":"view","type":"function"},{"inputs":[{"internalType":"address","name":"","type":"address"},{"internalType":"address","name":"from","type":"address"},{"internalType":"uint256[]","name":"ids","type":"uint256[]"},{"internalType":"uint256[]","name":"values","type":"uint256[]"},{"internalType":"bytes","name":"data","type":"bytes"}],"name":"onERC1155BatchReceived","outputs":[{"internalType":"bytes4","name":"","type":"bytes4"}],"stateMutability":"nonpayable","type":"function"},{"inputs":[{"internalType":"address","name":"","type":"address"},{"internalType":"address","name":"from","type":"address"},{"internalType":"uint256","name":"id","type":"uint256"},{"internalType":"uint256","name":"value","type":"uint256"},{"internalType":"bytes","name":"data","type":"bytes"}],"name":"onERC1155Received","outputs":[{"internalType":"bytes4","name":"","type":"bytes4"}],"stateMutability":"nonpayable","type":"function"},{"inputs":[{"internalType":"address","name":"","type":"address"}],"name":"orbMultipliers","outputs":[{"internalType":"uint256","name":"","type":"uint256"}],"stateMutability":"view","type":"function"},{"inputs":[{"internalType":"bytes4","name":"interfaceId","type":"bytes4"}],"name":"supportsInterface","outputs":[{"internalType":"bool","name":"","type":"bool"}],"stateMutability":"view","type":"function"},{"inputs":[{"internalType":"uint256","name":"","type":"uint256"}],"name":"totalAshPerCycle","outputs":[{"internalType":"uint256","name":"","type":"uint256"}],"stateMutability":"view","type":"function"},{"inputs":[{"internalType":"uint256","name":"","type":"uint256"},{"internalType":"address","name":"","type":"address"}],"name":"userAshPerCycle","outputs":[{"internalType":"uint256","name":"","type":"uint256"}],"stateMutability":"view","type":"function"}],"devdoc":{"details":"This contract allows users to burn tokens and calculate rewards based on the amount of tokens burned.","kind":"dev","methods":{"constructor":{"details":"Throws if the cycle duration is zero.Throws if the max cycle is zero.","params":{"cycleDuration":"The duration of each cycle.","initialTime":"The initial time of the contract.","maxCycle":"The maximum cycle.","merkleRoot":"The Merkle root of the Puzzle Game multiplier claim.","missingOrb":"The IERC1155Burnable erc1155 missing orb contract for setting the token multiplier.","orbOfPower":"The IERC1155Burnable erc1155 contract burn to generate ASH."}},"currentCycle()":{"returns":{"_0":"cycle The current cycle."}},"onERC1155BatchReceived(address,address,uint256[],uint256[],bytes)":{"details":"Throws if the token is invalid.Throws if the cycle is invalid.Throws if the token ID is invalid.Throws if the token amount is invalid.","params":{"data":"The merkle proof data and multiplier value for setting the token multiplier.","from":"The wallet address.","ids":"The token IDs to burn.","values":"The amount of tokens to burn."},"returns":{"_0":"The ERC1155Received selector."}},"onERC1155Received(address,address,uint256,uint256,bytes)":{"details":"Throws if the token is invalid.Throws if the cycle is invalid.Throws if the token ID is invalid.Throws if the token amount is invalid.Throws if the token multiplier has already been set.","params":{"data":"The merkle proof data and multiplier value for setting the token multiplier.","from":"The wallet address.","id":"The token ID.","value":"The token value."},"returns":{"_0":"The ERC1155Received selector."}},"supportsInterface(bytes4)":{"details":"Note: This function call must use less than 30 000 gas.","params":{"interfaceId":"the interface identifier to test."},"returns":{"_0":"True if the interface is supported, false if `interfaceId` is `0xffffffff` or if the interface is not supported."}}},"title":"OrbsBurnPool Contract","version":1},"evm":{"bytecode":{"linkReferences":{},"object":"6102206040523480156200001257600080fd5b5060405162001e0938038062001e0983398101604081905262000035916200033b565b62000055630271189760e51b60016200004d62000275565b9190620002ab565b6101a087905260008690036200007e5760405163b870efbd60e01b815260040160405180910390fd5b6101c08690526000859003620000a757604051637e5e559b60e11b815260040160405180910390fd5b60005b60078110156200024857838160078110620000c957620000c96200040e565b60200201516000036200011657838160078110620000eb57620000eb6200040e565b602002015160405163276b6ff560e01b81526004016200010d91815260200190565b60405180910390fd5b8060000362000142578381600781106200013457620001346200040e565b60200201516080526200023f565b806001036200016e578381600781106200016057620001606200040e565b602002015160a0526200023f565b806002036200019a578381600781106200018c576200018c6200040e565b602002015160c0526200023f565b80600303620001c657838160078110620001b857620001b86200040e565b602002015160e0526200023f565b80600403620001f357838160078110620001e457620001e46200040e565b6020020151610100526200023f565b8060050362000220578381600781106200021157620002116200040e565b6020020151610120526200023f565b8381600781106200023557620002356200040e565b6020020151610140525b600101620000aa565b506101e09490945261020092909252506001600160a01b0390811661016052166101805250620004469050565b600080620002a560017fca9d3e17f264b0f3984e2634e94adb37fa3e6a8103f06aeae6fa59e21c769f5e62000424565b92915050565b600160e01b6001600160e01b0319831601620002da576040516372c683bb60e01b815260040160405180910390fd5b6001600160e01b03199190911660009081526020929092526040909120805460ff1916911515919091179055565b634e487b7160e01b600052604160045260246000fd5b80516001600160a01b03811681146200033657600080fd5b919050565b60008060008060008060006101a0888a0312156200035857600080fd5b875196506020808901519650604089015195506060890151945089609f8a01126200038257600080fd5b60405160e081016001600160401b0381118282101715620003a757620003a762000308565b604052806101608b018c811115620003be57600080fd5b60808c015b81811015620003dc5780518352918401918401620003c3565b50829650620003eb816200031e565b9550505050506200040061018089016200031e565b905092959891949750929550565b634e487b7160e01b600052603260045260246000fd5b81810381811115620002a557634e487b7160e01b600052601160045260246000fd5b60805160a05160c05160e05161010051610120516101405161016051610180516101a0516101c0516101e051610200516118b6620005536000396000818161034b01528181610aff01526110840152600081816101e9015281816105b30152610e8501526000818161045b01526104d50152600081816102f901526104f90152600081816104340152610d9101526000818161025f0152818161054701526109a501526000818161040d01526109720152600081816102ab015261091f01526000818161049501526108cc015260008181610210015261087901526000818161037a01526108260152600081816102d201526107d30152600081816101b4015261075e01526118b66000f3fe608060405234801561001057600080fd5b50600436106101825760003560e01c806351e75e8b116100d8578063bc197c811161008c578063cd421fbf11610066578063cd421fbf14610456578063f23a6e611461047d578063f95d10161461049057600080fd5b8063bc197c81146103c4578063c131754e14610408578063cd18a34f1461042f57600080fd5b8063aa918fd5116100bd578063aa918fd514610375578063ab504e731461039c578063bab2f552146103bc57600080fd5b806351e75e8b1461034657806355f5b0a81461036d57600080fd5b80631de0e40b1161013a578063424ab4f711610114578063424ab4f7146102cd578063491bde66146102f45780634dac1c2b1461031b57600080fd5b80631de0e40b1461025257806328a979cf1461025a5780633838a201146102a657600080fd5b8063043063bc1161016b578063043063bc146101e45780630455645a1461020b57806312828b7f1461023257600080fd5b806301ffc9a7146101875780630277640e146101af575b600080fd5b61019a61019536600461132c565b6104b7565b60405190151581526020015b60405180910390f35b6101d67f000000000000000000000000000000000000000000000000000000000000000081565b6040519081526020016101a6565b6101d67f000000000000000000000000000000000000000000000000000000000000000081565b6101d67f000000000000000000000000000000000000000000000000000000000000000081565b6101d6610240366004611397565b60026020526000908152604090205481565b6101d6600181565b6102817f000000000000000000000000000000000000000000000000000000000000000081565b60405173ffffffffffffffffffffffffffffffffffffffff90911681526020016101a6565b6101d67f000000000000000000000000000000000000000000000000000000000000000081565b6101d67f000000000000000000000000000000000000000000000000000000000000000081565b6101d67f000000000000000000000000000000000000000000000000000000000000000081565b6101d66103293660046113b2565b600160209081526000928352604080842090915290825290205481565b6101d67f000000000000000000000000000000000000000000000000000000000000000081565b6101d6600281565b6101d67f000000000000000000000000000000000000000000000000000000000000000081565b6101d66103aa3660046113de565b60006020819052908152604090205481565b6101d66104d1565b6103d76103d2366004611485565b61052d565b6040517fffffffff0000000000000000000000000000000000000000000000000000000090911681526020016101a6565b6101d67f000000000000000000000000000000000000000000000000000000000000000081565b6102817f000000000000000000000000000000000000000000000000000000000000000081565b6101d67f000000000000000000000000000000000000000000000000000000000000000081565b6103d761048b366004611540565b610d77565b6101d67f000000000000000000000000000000000000000000000000000000000000000081565b60006104cb826104c5611199565b906111c7565b92915050565b60007f000000000000000000000000000000000000000000000000000000000000000061051e7f0000000000000000000000000000000000000000000000000000000000000000426115e7565b61052891906115fa565b905090565b60003373ffffffffffffffffffffffffffffffffffffffff7f000000000000000000000000000000000000000000000000000000000000000016146105a5576040517f733068030000000000000000000000000000000000000000000000000000000081523360048201526024015b60405180910390fd5b60006105af6104d1565b90507f000000000000000000000000000000000000000000000000000000000000000081111561060e576040517f764e560f0000000000000000000000000000000000000000000000000000000081526004810182905260240161059c565b6040517f8053493400000000000000000000000000000000000000000000000000000000815233906380534934906106529030908c908c908c908c90600401611680565b600060405180830381600087803b15801561066c57600080fd5b505af1158015610680573d6000803e3d6000fd5b505050506000805b88811015610a37578787828181106106a2576106a26116cf565b9050602002013560000361073c57338a8a838181106106c3576106c36116cf565b905060200201358989848181106106dc576106dc6116cf565b6040517fe1f366e900000000000000000000000000000000000000000000000000000000815273ffffffffffffffffffffffffffffffffffffffff909516600486015260248501939093525060209091020135604482015260640161059c565b89898281811061074e5761074e6116cf565b905060200201356001036107b1577f000000000000000000000000000000000000000000000000000000000000000088888381811061078f5761078f6116cf565b905060200201356107a091906116fe565b6107aa9083611715565b9150610a2f565b8989828181106107c3576107c36116cf565b90506020020135600203610804577f000000000000000000000000000000000000000000000000000000000000000088888381811061078f5761078f6116cf565b898982818110610816576108166116cf565b90506020020135600303610857577f000000000000000000000000000000000000000000000000000000000000000088888381811061078f5761078f6116cf565b898982818110610869576108696116cf565b905060200201356004036108aa577f000000000000000000000000000000000000000000000000000000000000000088888381811061078f5761078f6116cf565b8989828181106108bc576108bc6116cf565b905060200201356005036108fd577f000000000000000000000000000000000000000000000000000000000000000088888381811061078f5761078f6116cf565b89898281811061090f5761090f6116cf565b90506020020135600603610950577f000000000000000000000000000000000000000000000000000000000000000088888381811061078f5761078f6116cf565b898982818110610962576109626116cf565b905060200201356007036109a3577f000000000000000000000000000000000000000000000000000000000000000088888381811061078f5761078f6116cf565b7f00000000000000000000000000000000000000000000000000000000000000008a8a838181106109d6576109d66116cf565b6040517f1912ea5100000000000000000000000000000000000000000000000000000000815273ffffffffffffffffffffffffffffffffffffffff9094166004850152602002919091013560248301525060440161059c565b600101610688565b5073ffffffffffffffffffffffffffffffffffffffff8a166000908152600260205260409020548a908515610c0957600080610a75888a018a611757565b91509150608083901c600003610be9576040517fffffffffffffffffffffffffffffffffffffffff000000000000000000000000606086901b16602082015260348101829052600090605401604080517fffffffffffffffffffffffffffffffffffffffffffffffffffffffffffffffe081840301815291905280516020909101209050610b24837f0000000000000000000000000000000000000000000000000000000000000000836112a1565b610b79576040517fadbd651200000000000000000000000000000000000000000000000000000000815273ffffffffffffffffffffffffffffffffffffffff861660048201526024810183905260440161059c565b73ffffffffffffffffffffffffffffffffffffffff8516600081815260026020908152604091829020608086901b881790819055825188815291820181905292917f528dfe447bc8e2a31cbcf22a36526a2fcc9ac2b2fc9a850ddaf575bb2aab3433910160405180910390a29350505b612710610bf682876116fe565b610c0091906115fa565b94505050610c30565b608081901c8015610c2e57612710610c2182866116fe565b610c2b91906115fa565b93505b505b6fffffffffffffffffffffffffffffffff81168015610c5657610c5381856116fe565b93505b600085815260016020908152604080832073ffffffffffffffffffffffffffffffffffffffff87168452909152812054610c91908690611715565b600087815260016020908152604080832073ffffffffffffffffffffffffffffffffffffffff89168452825280832084905589835290829052812080549293508792909190610ce1908490611715565b92505081905550858473ffffffffffffffffffffffffffffffffffffffff167f6e46cd5a8f4134e080f5038ee4632b01a585b6052863e4a1f0d5c57b1a35645b8f8f8f8f8b888b604051610d3b9796959493929190611839565b60405180910390a3507fbc197c81000000000000000000000000000000000000000000000000000000009e9d5050505050505050505050505050565b60003373ffffffffffffffffffffffffffffffffffffffff7f00000000000000000000000000000000000000000000000000000000000000001614610dea576040517f7330680300000000000000000000000000000000000000000000000000000000815233600482015260240161059c565b60018514610e2d576040517f1912ea510000000000000000000000000000000000000000000000000000000081523360048201526024810186905260440161059c565b83600114610e77576040517fe1f366e9000000000000000000000000000000000000000000000000000000008152336004820152602481018690526044810185905260640161059c565b6000610e816104d1565b90507f0000000000000000000000000000000000000000000000000000000000000000811115610ee0576040517f764e560f0000000000000000000000000000000000000000000000000000000081526004810182905260240161059c565b73ffffffffffffffffffffffffffffffffffffffff87166000908152600260205260409020546fffffffffffffffffffffffffffffffff811615610f68576040517f383b549300000000000000000000000000000000000000000000000000000000815273ffffffffffffffffffffffffffffffffffffffff8916600482015260240161059c565b6040517f124d91e50000000000000000000000000000000000000000000000000000000081523060048201526024810188905260448101879052339063124d91e590606401600060405180830381600087803b158015610fc757600080fd5b505af1158015610fdb573d6000803e3d6000fd5b505050600282179050841561110857608082901c6000036111085760008061100587890189611757565b6040517fffffffffffffffffffffffffffffffffffffffff00000000000000000000000060608f901b166020820152603481018290529193509150600090605401604080517fffffffffffffffffffffffffffffffffffffffffffffffffffffffffffffffe0818403018152919052805160209091012090506110a9837f0000000000000000000000000000000000000000000000000000000000000000836112a1565b6110fe576040517fadbd651200000000000000000000000000000000000000000000000000000000815273ffffffffffffffffffffffffffffffffffffffff8d1660048201526024810183905260440161059c565b5060801b90911790505b73ffffffffffffffffffffffffffffffffffffffff891660008181526002602090815260409182902084905581518581529081018490527f528dfe447bc8e2a31cbcf22a36526a2fcc9ac2b2fc9a850ddaf575bb2aab3433910160405180910390a2507ff23a6e61000000000000000000000000000000000000000000000000000000009998505050505050505050565b6000806104cb60017fca9d3e17f264b0f3984e2634e94adb37fa3e6a8103f06aeae6fa59e21c769f5e6115e7565b60007c01000000000000000000000000000000000000000000000000000000007fffffffff00000000000000000000000000000000000000000000000000000000831601611217575060006104cb565b7ffe003659000000000000000000000000000000000000000000000000000000007fffffffff00000000000000000000000000000000000000000000000000000000831601611268575060016104cb565b507fffffffff00000000000000000000000000000000000000000000000000000000166000908152602091909152604090205460ff1690565b6000826112ae85846112b7565b14949350505050565b600081815b84518110156112f2576112e8828683815181106112db576112db6116cf565b60200260200101516112fa565b91506001016112bc565b509392505050565b6000818310611316576000828152602084905260409020611325565b60008381526020839052604090205b9392505050565b60006020828403121561133e57600080fd5b81357fffffffff000000000000000000000000000000000000000000000000000000008116811461132557600080fd5b803573ffffffffffffffffffffffffffffffffffffffff8116811461139257600080fd5b919050565b6000602082840312156113a957600080fd5b6113258261136e565b600080604083850312156113c557600080fd5b823591506113d56020840161136e565b90509250929050565b6000602082840312156113f057600080fd5b5035919050565b60008083601f84011261140957600080fd5b50813567ffffffffffffffff81111561142157600080fd5b6020830191508360208260051b850101111561143c57600080fd5b9250929050565b60008083601f84011261145557600080fd5b50813567ffffffffffffffff81111561146d57600080fd5b60208301915083602082850101111561143c57600080fd5b60008060008060008060008060a0898b0312156114a157600080fd5b6114aa8961136e565b97506114b860208a0161136e565b9650604089013567ffffffffffffffff808211156114d557600080fd5b6114e18c838d016113f7565b909850965060608b01359150808211156114fa57600080fd5b6115068c838d016113f7565b909650945060808b013591508082111561151f57600080fd5b5061152c8b828c01611443565b999c989b5096995094979396929594505050565b60008060008060008060a0878903121561155957600080fd5b6115628761136e565b95506115706020880161136e565b94506040870135935060608701359250608087013567ffffffffffffffff81111561159a57600080fd5b6115a689828a01611443565b979a9699509497509295939492505050565b7f4e487b7100000000000000000000000000000000000000000000000000000000600052601160045260246000fd5b818103818111156104cb576104cb6115b8565b600082611630577f4e487b7100000000000000000000000000000000000000000000000000000000600052601260045260246000fd5b500490565b81835260007f07ffffffffffffffffffffffffffffffffffffffffffffffffffffffffffffff83111561166757600080fd5b8260051b80836020870137939093016020019392505050565b73ffffffffffffffffffffffffffffffffffffffff861681526060602082015260006116b0606083018688611635565b82810360408401526116c3818587611635565b98975050505050505050565b7f4e487b7100000000000000000000000000000000000000000000000000000000600052603260045260246000fd5b80820281158282048414176104cb576104cb6115b8565b808201808211156104cb576104cb6115b8565b7f4e487b7100000000000000000000000000000000000000000000000000000000600052604160045260246000fd5b6000806040838503121561176a57600080fd5b823567ffffffffffffffff8082111561178257600080fd5b818501915085601f83011261179657600080fd5b81356020828211156117aa576117aa611728565b8160051b6040517fffffffffffffffffffffffffffffffffffffffffffffffffffffffffffffffe0603f830116810181811086821117156117ed576117ed611728565b60405292835281830193508481018201928984111561180b57600080fd5b948201945b8386101561182957853585529482019493820193611810565b9997909101359750505050505050565b60a08152600061184d60a08301898b611635565b828103602084015261186081888a611635565b60408401969096525050606081019290925260809091015294935050505056fea26469706673582212201ad7517f220469814abd0dab20c4025cfb17ce7ed5fc9ae0cd9c3526888154df64736f6c63430008160033","opcodes":"PUSH2 0x220 PUSH1 0x40 MSTORE CALLVALUE DUP1 ISZERO PUSH3 0x12 JUMPI PUSH1 0x0 DUP1 REVERT JUMPDEST POP PUSH1 0x40 MLOAD PUSH3 0x1E09 CODESIZE SUB DUP1 PUSH3 0x1E09 DUP4 CODECOPY DUP2 ADD PUSH1 0x40 DUP2 SWAP1 MSTORE PUSH3 0x35 SWAP2 PUSH3 0x33B JUMP JUMPDEST PUSH3 0x55 PUSH4 0x2711897 PUSH1 0xE5 SHL PUSH1 0x1 PUSH3 0x4D PUSH3 0x275 JUMP JUMPDEST SWAP2 SWAP1 PUSH3 0x2AB JUMP JUMPDEST PUSH2 0x1A0 DUP8 SWAP1 MSTORE PUSH1 0x0 DUP7 SWAP1 SUB PUSH3 0x7E JUMPI PUSH1 0x40 MLOAD PUSH4 0xB870EFBD PUSH1 0xE0 SHL DUP2 MSTORE PUSH1 0x4 ADD PUSH1 0x40 MLOAD DUP1 SWAP2 SUB SWAP1 REVERT JUMPDEST PUSH2 0x1C0 DUP7 SWAP1 MSTORE PUSH1 0x0 DUP6 SWAP1 SUB PUSH3 0xA7 JUMPI PUSH1 0x40 MLOAD PUSH4 0x7E5E559B PUSH1 0xE1 SHL DUP2 MSTORE PUSH1 0x4 ADD PUSH1 0x40 MLOAD DUP1 SWAP2 SUB SWAP1 REVERT JUMPDEST PUSH1 0x0 JUMPDEST PUSH1 0x7 DUP2 LT ISZERO PUSH3 0x248 JUMPI DUP4 DUP2 PUSH1 0x7 DUP2 LT PUSH3 0xC9 JUMPI PUSH3 0xC9 PUSH3 0x40E JUMP JUMPDEST PUSH1 0x20 MUL ADD MLOAD PUSH1 0x0 SUB PUSH3 0x116 JUMPI DUP4 DUP2 PUSH1 0x7 DUP2 LT PUSH3 0xEB JUMPI PUSH3 0xEB PUSH3 0x40E JUMP JUMPDEST PUSH1 0x20 MUL ADD MLOAD PUSH1 0x40 MLOAD PUSH4 0x276B6FF5 PUSH1 0xE0 SHL DUP2 MSTORE PUSH1 0x4 ADD PUSH3 0x10D SWAP2 DUP2 MSTORE PUSH1 0x20 ADD SWAP1 JUMP JUMPDEST PUSH1 0x40 MLOAD DUP1 SWAP2 SUB SWAP1 REVERT JUMPDEST DUP1 PUSH1 0x0 SUB PUSH3 0x142 JUMPI DUP4 DUP2 PUSH1 0x7 DUP2 LT PUSH3 0x134 JUMPI PUSH3 0x134 PUSH3 0x40E JUMP JUMPDEST PUSH1 0x20 MUL ADD MLOAD PUSH1 0x80 MSTORE PUSH3 0x23F JUMP JUMPDEST DUP1 PUSH1 0x1 SUB PUSH3 0x16E JUMPI DUP4 DUP2 PUSH1 0x7 DUP2 LT PUSH3 0x160 JUMPI PUSH3 0x160 PUSH3 0x40E JUMP JUMPDEST PUSH1 0x20 MUL ADD MLOAD PUSH1 0xA0 MSTORE PUSH3 0x23F JUMP JUMPDEST DUP1 PUSH1 0x2 SUB PUSH3 0x19A JUMPI DUP4 DUP2 PUSH1 0x7 DUP2 LT PUSH3 0x18C JUMPI PUSH3 0x18C PUSH3 0x40E JUMP JUMPDEST PUSH1 0x20 MUL ADD MLOAD PUSH1 0xC0 MSTORE PUSH3 0x23F JUMP JUMPDEST DUP1 PUSH1 0x3 SUB PUSH3 0x1C6 JUMPI DUP4 DUP2 PUSH1 0x7 DUP2 LT PUSH3 0x1B8 JUMPI PUSH3 0x1B8 PUSH3 0x40E JUMP JUMPDEST PUSH1 0x20 MUL ADD MLOAD PUSH1 0xE0 MSTORE PUSH3 0x23F JUMP JUMPDEST DUP1 PUSH1 0x4 SUB PUSH3 0x1F3 JUMPI DUP4 DUP2 PUSH1 0x7 DUP2 LT PUSH3 0x1E4 JUMPI PUSH3 0x1E4 PUSH3 0x40E JUMP JUMPDEST PUSH1 0x20 MUL ADD MLOAD PUSH2 0x100 MSTORE PUSH3 0x23F JUMP JUMPDEST DUP1 PUSH1 0x5 SUB PUSH3 0x220 JUMPI DUP4 DUP2 PUSH1 0x7 DUP2 LT PUSH3 0x211 JUMPI PUSH3 0x211 PUSH3 0x40E JUMP JUMPDEST PUSH1 0x20 MUL ADD MLOAD PUSH2 0x120 MSTORE PUSH3 0x23F JUMP JUMPDEST DUP4 DUP2 PUSH1 0x7 DUP2 LT PUSH3 0x235 JUMPI PUSH3 0x235 PUSH3 0x40E JUMP JUMPDEST PUSH1 0x20 MUL ADD MLOAD PUSH2 0x140 MSTORE JUMPDEST PUSH1 0x1 ADD PUSH3 0xAA JUMP JUMPDEST POP PUSH2 0x1E0 SWAP5 SWAP1 SWAP5 MSTORE PUSH2 0x200 SWAP3 SWAP1 SWAP3 MSTORE POP PUSH1 0x1 PUSH1 0x1 PUSH1 0xA0 SHL SUB SWAP1 DUP2 AND PUSH2 0x160 MSTORE AND PUSH2 0x180 MSTORE POP PUSH3 0x446 SWAP1 POP JUMP JUMPDEST PUSH1 0x0 DUP1 PUSH3 0x2A5 PUSH1 0x1 PUSH32 0xCA9D3E17F264B0F3984E2634E94ADB37FA3E6A8103F06AEAE6FA59E21C769F5E PUSH3 0x424 JUMP JUMPDEST SWAP3 SWAP2 POP POP JUMP JUMPDEST PUSH1 0x1 PUSH1 0xE0 SHL PUSH1 0x1 PUSH1 0x1 PUSH1 0xE0 SHL SUB NOT DUP4 AND ADD PUSH3 0x2DA JUMPI PUSH1 0x40 MLOAD PUSH4 0x72C683BB PUSH1 0xE0 SHL DUP2 MSTORE PUSH1 0x4 ADD PUSH1 0x40 MLOAD DUP1 SWAP2 SUB SWAP1 REVERT JUMPDEST PUSH1 0x1 PUSH1 0x1 PUSH1 0xE0 SHL SUB NOT SWAP2 SWAP1 SWAP2 AND PUSH1 0x0 SWAP1 DUP2 MSTORE PUSH1 0x20 SWAP3 SWAP1 SWAP3 MSTORE PUSH1 0x40 SWAP1 SWAP2 KECCAK256 DUP1 SLOAD PUSH1 0xFF NOT AND SWAP2 ISZERO ISZERO SWAP2 SWAP1 SWAP2 OR SWAP1 SSTORE JUMP JUMPDEST PUSH4 0x4E487B71 PUSH1 0xE0 SHL PUSH1 0x0 MSTORE PUSH1 0x41 PUSH1 0x4 MSTORE PUSH1 0x24 PUSH1 0x0 REVERT JUMPDEST DUP1 MLOAD PUSH1 0x1 PUSH1 0x1 PUSH1 0xA0 SHL SUB DUP2 AND DUP2 EQ PUSH3 0x336 JUMPI PUSH1 0x0 DUP1 REVERT JUMPDEST SWAP2 SWAP1 POP JUMP JUMPDEST PUSH1 0x0 DUP1 PUSH1 0x0 DUP1 PUSH1 0x0 DUP1 PUSH1 0x0 PUSH2 0x1A0 DUP9 DUP11 SUB SLT ISZERO PUSH3 0x358 JUMPI PUSH1 0x0 DUP1 REVERT JUMPDEST DUP8 MLOAD SWAP7 POP PUSH1 0x20 DUP1 DUP10 ADD MLOAD SWAP7 POP PUSH1 0x40 DUP10 ADD MLOAD SWAP6 POP PUSH1 0x60 DUP10 ADD MLOAD SWAP5 POP DUP10 PUSH1 0x9F DUP11 ADD SLT PUSH3 0x382 JUMPI PUSH1 0x0 DUP1 REVERT JUMPDEST PUSH1 0x40 MLOAD PUSH1 0xE0 DUP2 ADD PUSH1 0x1 PUSH1 0x1 PUSH1 0x40 SHL SUB DUP2 GT DUP3 DUP3 LT OR ISZERO PUSH3 0x3A7 JUMPI PUSH3 0x3A7 PUSH3 0x308 JUMP JUMPDEST PUSH1 0x40 MSTORE DUP1 PUSH2 0x160 DUP12 ADD DUP13 DUP2 GT ISZERO PUSH3 0x3BE JUMPI PUSH1 0x0 DUP1 REVERT JUMPDEST PUSH1 0x80 DUP13 ADD JUMPDEST DUP2 DUP2 LT ISZERO PUSH3 0x3DC JUMPI DUP1 MLOAD DUP4 MSTORE SWAP2 DUP5 ADD SWAP2 DUP5 ADD PUSH3 0x3C3 JUMP JUMPDEST POP DUP3 SWAP7 POP PUSH3 0x3EB DUP2 PUSH3 0x31E JUMP JUMPDEST SWAP6 POP POP POP POP POP PUSH3 0x400 PUSH2 0x180 DUP10 ADD PUSH3 0x31E JUMP JUMPDEST SWAP1 POP SWAP3 SWAP6 SWAP9 SWAP2 SWAP5 SWAP8 POP SWAP3 SWAP6 POP JUMP JUMPDEST PUSH4 0x4E487B71 PUSH1 0xE0 SHL PUSH1 0x0 MSTORE PUSH1 0x32 PUSH1 0x4 MSTORE PUSH1 0x24 PUSH1 0x0 REVERT JUMPDEST DUP2 DUP2 SUB DUP2 DUP2 GT ISZERO PUSH3 0x2A5 JUMPI PUSH4 0x4E487B71 PUSH1 0xE0 SHL PUSH1 0x0 MSTORE PUSH1 0x11 PUSH1 0x4 MSTORE PUSH1 0x24 PUSH1 0x0 REVERT JUMPDEST PUSH1 0x80 MLOAD PUSH1 0xA0 MLOAD PUSH1 0xC0 MLOAD PUSH1 0xE0 MLOAD PUSH2 0x100 MLOAD PUSH2 0x120 MLOAD PUSH2 0x140 MLOAD PUSH2 0x160 MLOAD PUSH2 0x180 MLOAD PUSH2 0x1A0 MLOAD PUSH2 0x1C0 MLOAD PUSH2 0x1E0 MLOAD PUSH2 0x200 MLOAD PUSH2 0x18B6 PUSH3 0x553 PUSH1 0x0 CODECOPY PUSH1 0x0 DUP2 DUP2 PUSH2 0x34B ADD MSTORE DUP2 DUP2 PUSH2 0xAFF ADD MSTORE PUSH2 0x1084 ADD MSTORE PUSH1 0x0 DUP2 DUP2 PUSH2 0x1E9 ADD MSTORE DUP2 DUP2 PUSH2 0x5B3 ADD MSTORE PUSH2 0xE85 ADD MSTORE PUSH1 0x0 DUP2 DUP2 PUSH2 0x45B ADD MSTORE PUSH2 0x4D5 ADD MSTORE PUSH1 0x0 DUP2 DUP2 PUSH2 0x2F9 ADD MSTORE PUSH2 0x4F9 ADD MSTORE PUSH1 0x0 DUP2 DUP2 PUSH2 0x434 ADD MSTORE PUSH2 0xD91 ADD MSTORE PUSH1 0x0 DUP2 DUP2 PUSH2 0x25F ADD MSTORE DUP2 DUP2 PUSH2 0x547 ADD MSTORE PUSH2 0x9A5 ADD MSTORE PUSH1 0x0 DUP2 DUP2 PUSH2 0x40D ADD MSTORE PUSH2 0x972 ADD MSTORE PUSH1 0x0 DUP2 DUP2 PUSH2 0x2AB ADD MSTORE PUSH2 0x91F ADD MSTORE PUSH1 0x0 DUP2 DUP2 PUSH2 0x495 ADD MSTORE PUSH2 0x8CC ADD MSTORE PUSH1 0x0 DUP2 DUP2 PUSH2 0x210 ADD MSTORE PUSH2 0x879 ADD MSTORE PUSH1 0x0 DUP2 DUP2 PUSH2 0x37A ADD MSTORE PUSH2 0x826 ADD MSTORE PUSH1 0x0 DUP2 DUP2 PUSH2 0x2D2 ADD MSTORE PUSH2 0x7D3 ADD MSTORE PUSH1 0x0 DUP2 DUP2 PUSH2 0x1B4 ADD MSTORE PUSH2 0x75E ADD MSTORE PUSH2 0x18B6 PUSH1 0x0 RETURN INVALID PUSH1 0x80 PUSH1 0x40 MSTORE CALLVALUE DUP1 ISZERO PUSH2 0x10 JUMPI PUSH1 0x0 DUP1 REVERT JUMPDEST POP PUSH1 0x4 CALLDATASIZE LT PUSH2 0x182 JUMPI PUSH1 0x0 CALLDATALOAD PUSH1 0xE0 SHR DUP1 PUSH4 0x51E75E8B GT PUSH2 0xD8 JUMPI DUP1 PUSH4 0xBC197C81 GT PUSH2 0x8C JUMPI DUP1 PUSH4 0xCD421FBF GT PUSH2 0x66 JUMPI DUP1 PUSH4 0xCD421FBF EQ PUSH2 0x456 JUMPI DUP1 PUSH4 0xF23A6E61 EQ PUSH2 0x47D JUMPI DUP1 PUSH4 0xF95D1016 EQ PUSH2 0x490 JUMPI PUSH1 0x0 DUP1 REVERT JUMPDEST DUP1 PUSH4 0xBC197C81 EQ PUSH2 0x3C4 JUMPI DUP1 PUSH4 0xC131754E EQ PUSH2 0x408 JUMPI DUP1 PUSH4 0xCD18A34F EQ PUSH2 0x42F JUMPI PUSH1 0x0 DUP1 REVERT JUMPDEST DUP1 PUSH4 0xAA918FD5 GT PUSH2 0xBD JUMPI DUP1 PUSH4 0xAA918FD5 EQ PUSH2 0x375 JUMPI DUP1 PUSH4 0xAB504E73 EQ PUSH2 0x39C JUMPI DUP1 PUSH4 0xBAB2F552 EQ PUSH2 0x3BC JUMPI PUSH1 0x0 DUP1 REVERT JUMPDEST DUP1 PUSH4 0x51E75E8B EQ PUSH2 0x346 JUMPI DUP1 PUSH4 0x55F5B0A8 EQ PUSH2 0x36D JUMPI PUSH1 0x0 DUP1 REVERT JUMPDEST DUP1 PUSH4 0x1DE0E40B GT PUSH2 0x13A JUMPI DUP1 PUSH4 0x424AB4F7 GT PUSH2 0x114 JUMPI DUP1 PUSH4 0x424AB4F7 EQ PUSH2 0x2CD JUMPI DUP1 PUSH4 0x491BDE66 EQ PUSH2 0x2F4 JUMPI DUP1 PUSH4 0x4DAC1C2B EQ PUSH2 0x31B JUMPI PUSH1 0x0 DUP1 REVERT JUMPDEST DUP1 PUSH4 0x1DE0E40B EQ PUSH2 0x252 JUMPI DUP1 PUSH4 0x28A979CF EQ PUSH2 0x25A JUMPI DUP1 PUSH4 0x3838A201 EQ PUSH2 0x2A6 JUMPI PUSH1 0x0 DUP1 REVERT JUMPDEST DUP1 PUSH4 0x43063BC GT PUSH2 0x16B JUMPI DUP1 PUSH4 0x43063BC EQ PUSH2 0x1E4 JUMPI DUP1 PUSH4 0x455645A EQ PUSH2 0x20B JUMPI DUP1 PUSH4 0x12828B7F EQ PUSH2 0x232 JUMPI PUSH1 0x0 DUP1 REVERT JUMPDEST DUP1 PUSH4 0x1FFC9A7 EQ PUSH2 0x187 JUMPI DUP1 PUSH4 0x277640E EQ PUSH2 0x1AF JUMPI JUMPDEST PUSH1 0x0 DUP1 REVERT JUMPDEST PUSH2 0x19A PUSH2 0x195 CALLDATASIZE PUSH1 0x4 PUSH2 0x132C JUMP JUMPDEST PUSH2 0x4B7 JUMP JUMPDEST PUSH1 0x40 MLOAD SWAP1 ISZERO ISZERO DUP2 MSTORE PUSH1 0x20 ADD JUMPDEST PUSH1 0x40 MLOAD DUP1 SWAP2 SUB SWAP1 RETURN JUMPDEST PUSH2 0x1D6 PUSH32 0x0 DUP2 JUMP JUMPDEST PUSH1 0x40 MLOAD SWAP1 DUP2 MSTORE PUSH1 0x20 ADD PUSH2 0x1A6 JUMP JUMPDEST PUSH2 0x1D6 PUSH32 0x0 DUP2 JUMP JUMPDEST PUSH2 0x1D6 PUSH32 0x0 DUP2 JUMP JUMPDEST PUSH2 0x1D6 PUSH2 0x240 CALLDATASIZE PUSH1 0x4 PUSH2 0x1397 JUMP JUMPDEST PUSH1 0x2 PUSH1 0x20 MSTORE PUSH1 0x0 SWAP1 DUP2 MSTORE PUSH1 0x40 SWAP1 KECCAK256 SLOAD DUP2 JUMP JUMPDEST PUSH2 0x1D6 PUSH1 0x1 DUP2 JUMP JUMPDEST PUSH2 0x281 PUSH32 0x0 DUP2 JUMP JUMPDEST PUSH1 0x40 MLOAD PUSH20 0xFFFFFFFFFFFFFFFFFFFFFFFFFFFFFFFFFFFFFFFF SWAP1 SWAP2 AND DUP2 MSTORE PUSH1 0x20 ADD PUSH2 0x1A6 JUMP JUMPDEST PUSH2 0x1D6 PUSH32 0x0 DUP2 JUMP JUMPDEST PUSH2 0x1D6 PUSH32 0x0 DUP2 JUMP JUMPDEST PUSH2 0x1D6 PUSH32 0x0 DUP2 JUMP JUMPDEST PUSH2 0x1D6 PUSH2 0x329 CALLDATASIZE PUSH1 0x4 PUSH2 0x13B2 JUMP JUMPDEST PUSH1 0x1 PUSH1 0x20 SWAP1 DUP2 MSTORE PUSH1 0x0 SWAP3 DUP4 MSTORE PUSH1 0x40 DUP1 DUP5 KECCAK256 SWAP1 SWAP2 MSTORE SWAP1 DUP3 MSTORE SWAP1 KECCAK256 SLOAD DUP2 JUMP JUMPDEST PUSH2 0x1D6 PUSH32 0x0 DUP2 JUMP JUMPDEST PUSH2 0x1D6 PUSH1 0x2 DUP2 JUMP JUMPDEST PUSH2 0x1D6 PUSH32 0x0 DUP2 JUMP JUMPDEST PUSH2 0x1D6 PUSH2 0x3AA CALLDATASIZE PUSH1 0x4 PUSH2 0x13DE JUMP JUMPDEST PUSH1 0x0 PUSH1 0x20 DUP2 SWAP1 MSTORE SWAP1 DUP2 MSTORE PUSH1 0x40 SWAP1 KECCAK256 SLOAD DUP2 JUMP JUMPDEST PUSH2 0x1D6 PUSH2 0x4D1 JUMP JUMPDEST PUSH2 0x3D7 PUSH2 0x3D2 CALLDATASIZE PUSH1 0x4 PUSH2 0x1485 JUMP JUMPDEST PUSH2 0x52D JUMP JUMPDEST PUSH1 0x40 MLOAD PUSH32 0xFFFFFFFF00000000000000000000000000000000000000000000000000000000 SWAP1 SWAP2 AND DUP2 MSTORE PUSH1 0x20 ADD PUSH2 0x1A6 JUMP JUMPDEST PUSH2 0x1D6 PUSH32 0x0 DUP2 JUMP JUMPDEST PUSH2 0x281 PUSH32 0x0 DUP2 JUMP JUMPDEST PUSH2 0x1D6 PUSH32 0x0 DUP2 JUMP JUMPDEST PUSH2 0x3D7 PUSH2 0x48B CALLDATASIZE PUSH1 0x4 PUSH2 0x1540 JUMP JUMPDEST PUSH2 0xD77 JUMP JUMPDEST PUSH2 0x1D6 PUSH32 0x0 DUP2 JUMP JUMPDEST PUSH1 0x0 PUSH2 0x4CB DUP3 PUSH2 0x4C5 PUSH2 0x1199 JUMP JUMPDEST SWAP1 PUSH2 0x11C7 JUMP JUMPDEST SWAP3 SWAP2 POP POP JUMP JUMPDEST PUSH1 0x0 PUSH32 0x0 PUSH2 0x51E PUSH32 0x0 TIMESTAMP PUSH2 0x15E7 JUMP JUMPDEST PUSH2 0x528 SWAP2 SWAP1 PUSH2 0x15FA JUMP JUMPDEST SWAP1 POP SWAP1 JUMP JUMPDEST PUSH1 0x0 CALLER PUSH20 0xFFFFFFFFFFFFFFFFFFFFFFFFFFFFFFFFFFFFFFFF PUSH32 0x0 AND EQ PUSH2 0x5A5 JUMPI PUSH1 0x40 MLOAD PUSH32 0x7330680300000000000000000000000000000000000000000000000000000000 DUP2 MSTORE CALLER PUSH1 0x4 DUP3 ADD MSTORE PUSH1 0x24 ADD JUMPDEST PUSH1 0x40 MLOAD DUP1 SWAP2 SUB SWAP1 REVERT JUMPDEST PUSH1 0x0 PUSH2 0x5AF PUSH2 0x4D1 JUMP JUMPDEST SWAP1 POP PUSH32 0x0 DUP2 GT ISZERO PUSH2 0x60E JUMPI PUSH1 0x40 MLOAD PUSH32 0x764E560F00000000000000000000000000000000000000000000000000000000 DUP2 MSTORE PUSH1 0x4 DUP2 ADD DUP3 SWAP1 MSTORE PUSH1 0x24 ADD PUSH2 0x59C JUMP JUMPDEST PUSH1 0x40 MLOAD PUSH32 0x8053493400000000000000000000000000000000000000000000000000000000 DUP2 MSTORE CALLER SWAP1 PUSH4 0x80534934 SWAP1 PUSH2 0x652 SWAP1 ADDRESS SWAP1 DUP13 SWAP1 DUP13 SWAP1 DUP13 SWAP1 DUP13 SWAP1 PUSH1 0x4 ADD PUSH2 0x1680 JUMP JUMPDEST PUSH1 0x0 PUSH1 0x40 MLOAD DUP1 DUP4 SUB DUP2 PUSH1 0x0 DUP8 DUP1 EXTCODESIZE ISZERO DUP1 ISZERO PUSH2 0x66C JUMPI PUSH1 0x0 DUP1 REVERT JUMPDEST POP GAS CALL ISZERO DUP1 ISZERO PUSH2 0x680 JUMPI RETURNDATASIZE PUSH1 0x0 DUP1 RETURNDATACOPY RETURNDATASIZE PUSH1 0x0 REVERT JUMPDEST POP POP POP POP PUSH1 0x0 DUP1 JUMPDEST DUP9 DUP2 LT ISZERO PUSH2 0xA37 JUMPI DUP8 DUP8 DUP3 DUP2 DUP2 LT PUSH2 0x6A2 JUMPI PUSH2 0x6A2 PUSH2 0x16CF JUMP JUMPDEST SWAP1 POP PUSH1 0x20 MUL ADD CALLDATALOAD PUSH1 0x0 SUB PUSH2 0x73C JUMPI CALLER DUP11 DUP11 DUP4 DUP2 DUP2 LT PUSH2 0x6C3 JUMPI PUSH2 0x6C3 PUSH2 0x16CF JUMP JUMPDEST SWAP1 POP PUSH1 0x20 MUL ADD CALLDATALOAD DUP10 DUP10 DUP5 DUP2 DUP2 LT PUSH2 0x6DC JUMPI PUSH2 0x6DC PUSH2 0x16CF JUMP JUMPDEST PUSH1 0x40 MLOAD PUSH32 0xE1F366E900000000000000000000000000000000000000000000000000000000 DUP2 MSTORE PUSH20 0xFFFFFFFFFFFFFFFFFFFFFFFFFFFFFFFFFFFFFFFF SWAP1 SWAP6 AND PUSH1 0x4 DUP7 ADD MSTORE PUSH1 0x24 DUP6 ADD SWAP4 SWAP1 SWAP4 MSTORE POP PUSH1 0x20 SWAP1 SWAP2 MUL ADD CALLDATALOAD PUSH1 0x44 DUP3 ADD MSTORE PUSH1 0x64 ADD PUSH2 0x59C JUMP JUMPDEST DUP10 DUP10 DUP3 DUP2 DUP2 LT PUSH2 0x74E JUMPI PUSH2 0x74E PUSH2 0x16CF JUMP JUMPDEST SWAP1 POP PUSH1 0x20 MUL ADD CALLDATALOAD PUSH1 0x1 SUB PUSH2 0x7B1 JUMPI PUSH32 0x0 DUP9 DUP9 DUP4 DUP2 DUP2 LT PUSH2 0x78F JUMPI PUSH2 0x78F PUSH2 0x16CF JUMP JUMPDEST SWAP1 POP PUSH1 0x20 MUL ADD CALLDATALOAD PUSH2 0x7A0 SWAP2 SWAP1 PUSH2 0x16FE JUMP JUMPDEST PUSH2 0x7AA SWAP1 DUP4 PUSH2 0x1715 JUMP JUMPDEST SWAP2 POP PUSH2 0xA2F JUMP JUMPDEST DUP10 DUP10 DUP3 DUP2 DUP2 LT PUSH2 0x7C3 JUMPI PUSH2 0x7C3 PUSH2 0x16CF JUMP JUMPDEST SWAP1 POP PUSH1 0x20 MUL ADD CALLDATALOAD PUSH1 0x2 SUB PUSH2 0x804 JUMPI PUSH32 0x0 DUP9 DUP9 DUP4 DUP2 DUP2 LT PUSH2 0x78F JUMPI PUSH2 0x78F PUSH2 0x16CF JUMP JUMPDEST DUP10 DUP10 DUP3 DUP2 DUP2 LT PUSH2 0x816 JUMPI PUSH2 0x816 PUSH2 0x16CF JUMP JUMPDEST SWAP1 POP PUSH1 0x20 MUL ADD CALLDATALOAD PUSH1 0x3 SUB PUSH2 0x857 JUMPI PUSH32 0x0 DUP9 DUP9 DUP4 DUP2 DUP2 LT PUSH2 0x78F JUMPI PUSH2 0x78F PUSH2 0x16CF JUMP JUMPDEST DUP10 DUP10 DUP3 DUP2 DUP2 LT PUSH2 0x869 JUMPI PUSH2 0x869 PUSH2 0x16CF JUMP JUMPDEST SWAP1 POP PUSH1 0x20 MUL ADD CALLDATALOAD PUSH1 0x4 SUB PUSH2 0x8AA JUMPI PUSH32 0x0 DUP9 DUP9 DUP4 DUP2 DUP2 LT PUSH2 0x78F JUMPI PUSH2 0x78F PUSH2 0x16CF JUMP JUMPDEST DUP10 DUP10 DUP3 DUP2 DUP2 LT PUSH2 0x8BC JUMPI PUSH2 0x8BC PUSH2 0x16CF JUMP JUMPDEST SWAP1 POP PUSH1 0x20 MUL ADD CALLDATALOAD PUSH1 0x5 SUB PUSH2 0x8FD JUMPI PUSH32 0x0 DUP9 DUP9 DUP4 DUP2 DUP2 LT PUSH2 0x78F JUMPI PUSH2 0x78F PUSH2 0x16CF JUMP JUMPDEST DUP10 DUP10 DUP3 DUP2 DUP2 LT PUSH2 0x90F JUMPI PUSH2 0x90F PUSH2 0x16CF JUMP JUMPDEST SWAP1 POP PUSH1 0x20 MUL ADD CALLDATALOAD PUSH1 0x6 SUB PUSH2 0x950 JUMPI PUSH32 0x0 DUP9 DUP9 DUP4 DUP2 DUP2 LT PUSH2 0x78F JUMPI PUSH2 0x78F PUSH2 0x16CF JUMP JUMPDEST DUP10 DUP10 DUP3 DUP2 DUP2 LT PUSH2 0x962 JUMPI PUSH2 0x962 PUSH2 0x16CF JUMP JUMPDEST SWAP1 POP PUSH1 0x20 MUL ADD CALLDATALOAD PUSH1 0x7 SUB PUSH2 0x9A3 JUMPI PUSH32 0x0 DUP9 DUP9 DUP4 DUP2 DUP2 LT PUSH2 0x78F JUMPI PUSH2 0x78F PUSH2 0x16CF JUMP JUMPDEST PUSH32 0x0 DUP11 DUP11 DUP4 DUP2 DUP2 LT PUSH2 0x9D6 JUMPI PUSH2 0x9D6 PUSH2 0x16CF JUMP JUMPDEST PUSH1 0x40 MLOAD PUSH32 0x1912EA5100000000000000000000000000000000000000000000000000000000 DUP2 MSTORE PUSH20 0xFFFFFFFFFFFFFFFFFFFFFFFFFFFFFFFFFFFFFFFF SWAP1 SWAP5 AND PUSH1 0x4 DUP6 ADD MSTORE PUSH1 0x20 MUL SWAP2 SWAP1 SWAP2 ADD CALLDATALOAD PUSH1 0x24 DUP4 ADD MSTORE POP PUSH1 0x44 ADD PUSH2 0x59C JUMP JUMPDEST PUSH1 0x1 ADD PUSH2 0x688 JUMP JUMPDEST POP PUSH20 0xFFFFFFFFFFFFFFFFFFFFFFFFFFFFFFFFFFFFFFFF DUP11 AND PUSH1 0x0 SWAP1 DUP2 MSTORE PUSH1 0x2 PUSH1 0x20 MSTORE PUSH1 0x40 SWAP1 KECCAK256 SLOAD DUP11 SWAP1 DUP6 ISZERO PUSH2 0xC09 JUMPI PUSH1 0x0 DUP1 PUSH2 0xA75 DUP9 DUP11 ADD DUP11 PUSH2 0x1757 JUMP JUMPDEST SWAP2 POP SWAP2 POP PUSH1 0x80 DUP4 SWAP1 SHR PUSH1 0x0 SUB PUSH2 0xBE9 JUMPI PUSH1 0x40 MLOAD PUSH32 0xFFFFFFFFFFFFFFFFFFFFFFFFFFFFFFFFFFFFFFFF000000000000000000000000 PUSH1 0x60 DUP7 SWAP1 SHL AND PUSH1 0x20 DUP3 ADD MSTORE PUSH1 0x34 DUP2 ADD DUP3 SWAP1 MSTORE PUSH1 0x0 SWAP1 PUSH1 0x54 ADD PUSH1 0x40 DUP1 MLOAD PUSH32 0xFFFFFFFFFFFFFFFFFFFFFFFFFFFFFFFFFFFFFFFFFFFFFFFFFFFFFFFFFFFFFFE0 DUP2 DUP5 SUB ADD DUP2 MSTORE SWAP2 SWAP1 MSTORE DUP1 MLOAD PUSH1 0x20 SWAP1 SWAP2 ADD KECCAK256 SWAP1 POP PUSH2 0xB24 DUP4 PUSH32 0x0 DUP4 PUSH2 0x12A1 JUMP JUMPDEST PUSH2 0xB79 JUMPI PUSH1 0x40 MLOAD PUSH32 0xADBD651200000000000000000000000000000000000000000000000000000000 DUP2 MSTORE PUSH20 0xFFFFFFFFFFFFFFFFFFFFFFFFFFFFFFFFFFFFFFFF DUP7 AND PUSH1 0x4 DUP3 ADD MSTORE PUSH1 0x24 DUP2 ADD DUP4 SWAP1 MSTORE PUSH1 0x44 ADD PUSH2 0x59C JUMP JUMPDEST PUSH20 0xFFFFFFFFFFFFFFFFFFFFFFFFFFFFFFFFFFFFFFFF DUP6 AND PUSH1 0x0 DUP2 DUP2 MSTORE PUSH1 0x2 PUSH1 0x20 SWAP1 DUP2 MSTORE PUSH1 0x40 SWAP2 DUP3 SWAP1 KECCAK256 PUSH1 0x80 DUP7 SWAP1 SHL DUP9 OR SWAP1 DUP2 SWAP1 SSTORE DUP3 MLOAD DUP9 DUP2 MSTORE SWAP2 DUP3 ADD DUP2 SWAP1 MSTORE SWAP3 SWAP2 PUSH32 0x528DFE447BC8E2A31CBCF22A36526A2FCC9AC2B2FC9A850DDAF575BB2AAB3433 SWAP2 ADD PUSH1 0x40 MLOAD DUP1 SWAP2 SUB SWAP1 LOG2 SWAP4 POP POP JUMPDEST PUSH2 0x2710 PUSH2 0xBF6 DUP3 DUP8 PUSH2 0x16FE JUMP JUMPDEST PUSH2 0xC00 SWAP2 SWAP1 PUSH2 0x15FA JUMP JUMPDEST SWAP5 POP POP POP PUSH2 0xC30 JUMP JUMPDEST PUSH1 0x80 DUP2 SWAP1 SHR DUP1 ISZERO PUSH2 0xC2E JUMPI PUSH2 0x2710 PUSH2 0xC21 DUP3 DUP7 PUSH2 0x16FE JUMP JUMPDEST PUSH2 0xC2B SWAP2 SWAP1 PUSH2 0x15FA JUMP JUMPDEST SWAP4 POP JUMPDEST POP JUMPDEST PUSH16 0xFFFFFFFFFFFFFFFFFFFFFFFFFFFFFFFF DUP2 AND DUP1 ISZERO PUSH2 0xC56 JUMPI PUSH2 0xC53 DUP2 DUP6 PUSH2 0x16FE JUMP JUMPDEST SWAP4 POP JUMPDEST PUSH1 0x0 DUP6 DUP2 MSTORE PUSH1 0x1 PUSH1 0x20 SWAP1 DUP2 MSTORE PUSH1 0x40 DUP1 DUP4 KECCAK256 PUSH20 0xFFFFFFFFFFFFFFFFFFFFFFFFFFFFFFFFFFFFFFFF DUP8 AND DUP5 MSTORE SWAP1 SWAP2 MSTORE DUP2 KECCAK256 SLOAD PUSH2 0xC91 SWAP1 DUP7 SWAP1 PUSH2 0x1715 JUMP JUMPDEST PUSH1 0x0 DUP8 DUP2 MSTORE PUSH1 0x1 PUSH1 0x20 SWAP1 DUP2 MSTORE PUSH1 0x40 DUP1 DUP4 KECCAK256 PUSH20 0xFFFFFFFFFFFFFFFFFFFFFFFFFFFFFFFFFFFFFFFF DUP10 AND DUP5 MSTORE DUP3 MSTORE DUP1 DUP4 KECCAK256 DUP5 SWAP1 SSTORE DUP10 DUP4 MSTORE SWAP1 DUP3 SWAP1 MSTORE DUP2 KECCAK256 DUP1 SLOAD SWAP3 SWAP4 POP DUP8 SWAP3 SWAP1 SWAP2 SWAP1 PUSH2 0xCE1 SWAP1 DUP5 SWAP1 PUSH2 0x1715 JUMP JUMPDEST SWAP3 POP POP DUP2 SWAP1 SSTORE POP DUP6 DUP5 PUSH20 0xFFFFFFFFFFFFFFFFFFFFFFFFFFFFFFFFFFFFFFFF AND PUSH32 0x6E46CD5A8F4134E080F5038EE4632B01A585B6052863E4A1F0D5C57B1A35645B DUP16 DUP16 DUP16 DUP16 DUP12 DUP9 DUP12 PUSH1 0x40 MLOAD PUSH2 0xD3B SWAP8 SWAP7 SWAP6 SWAP5 SWAP4 SWAP3 SWAP2 SWAP1 PUSH2 0x1839 JUMP JUMPDEST PUSH1 0x40 MLOAD DUP1 SWAP2 SUB SWAP1 LOG3 POP PUSH32 0xBC197C8100000000000000000000000000000000000000000000000000000000 SWAP15 SWAP14 POP POP POP POP POP POP POP POP POP POP POP POP POP POP JUMP JUMPDEST PUSH1 0x0 CALLER PUSH20 0xFFFFFFFFFFFFFFFFFFFFFFFFFFFFFFFFFFFFFFFF PUSH32 0x0 AND EQ PUSH2 0xDEA JUMPI PUSH1 0x40 MLOAD PUSH32 0x7330680300000000000000000000000000000000000000000000000000000000 DUP2 MSTORE CALLER PUSH1 0x4 DUP3 ADD MSTORE PUSH1 0x24 ADD PUSH2 0x59C JUMP JUMPDEST PUSH1 0x1 DUP6 EQ PUSH2 0xE2D JUMPI PUSH1 0x40 MLOAD PUSH32 0x1912EA5100000000000000000000000000000000000000000000000000000000 DUP2 MSTORE CALLER PUSH1 0x4 DUP3 ADD MSTORE PUSH1 0x24 DUP2 ADD DUP7 SWAP1 MSTORE PUSH1 0x44 ADD PUSH2 0x59C JUMP JUMPDEST DUP4 PUSH1 0x1 EQ PUSH2 0xE77 JUMPI PUSH1 0x40 MLOAD PUSH32 0xE1F366E900000000000000000000000000000000000000000000000000000000 DUP2 MSTORE CALLER PUSH1 0x4 DUP3 ADD MSTORE PUSH1 0x24 DUP2 ADD DUP7 SWAP1 MSTORE PUSH1 0x44 DUP2 ADD DUP6 SWAP1 MSTORE PUSH1 0x64 ADD PUSH2 0x59C JUMP JUMPDEST PUSH1 0x0 PUSH2 0xE81 PUSH2 0x4D1 JUMP JUMPDEST SWAP1 POP PUSH32 0x0 DUP2 GT ISZERO PUSH2 0xEE0 JUMPI PUSH1 0x40 MLOAD PUSH32 0x764E560F00000000000000000000000000000000000000000000000000000000 DUP2 MSTORE PUSH1 0x4 DUP2 ADD DUP3 SWAP1 MSTORE PUSH1 0x24 ADD PUSH2 0x59C JUMP JUMPDEST PUSH20 0xFFFFFFFFFFFFFFFFFFFFFFFFFFFFFFFFFFFFFFFF DUP8 AND PUSH1 0x0 SWAP1 DUP2 MSTORE PUSH1 0x2 PUSH1 0x20 MSTORE PUSH1 0x40 SWAP1 KECCAK256 SLOAD PUSH16 0xFFFFFFFFFFFFFFFFFFFFFFFFFFFFFFFF DUP2 AND ISZERO PUSH2 0xF68 JUMPI PUSH1 0x40 MLOAD PUSH32 0x383B549300000000000000000000000000000000000000000000000000000000 DUP2 MSTORE PUSH20 0xFFFFFFFFFFFFFFFFFFFFFFFFFFFFFFFFFFFFFFFF DUP10 AND PUSH1 0x4 DUP3 ADD MSTORE PUSH1 0x24 ADD PUSH2 0x59C JUMP JUMPDEST PUSH1 0x40 MLOAD PUSH32 0x124D91E500000000000000000000000000000000000000000000000000000000 DUP2 MSTORE ADDRESS PUSH1 0x4 DUP3 ADD MSTORE PUSH1 0x24 DUP2 ADD DUP9 SWAP1 MSTORE PUSH1 0x44 DUP2 ADD DUP8 SWAP1 MSTORE CALLER SWAP1 PUSH4 0x124D91E5 SWAP1 PUSH1 0x64 ADD PUSH1 0x0 PUSH1 0x40 MLOAD DUP1 DUP4 SUB DUP2 PUSH1 0x0 DUP8 DUP1 EXTCODESIZE ISZERO DUP1 ISZERO PUSH2 0xFC7 JUMPI PUSH1 0x0 DUP1 REVERT JUMPDEST POP GAS CALL ISZERO DUP1 ISZERO PUSH2 0xFDB JUMPI RETURNDATASIZE PUSH1 0x0 DUP1 RETURNDATACOPY RETURNDATASIZE PUSH1 0x0 REVERT JUMPDEST POP POP POP PUSH1 0x2 DUP3 OR SWAP1 POP DUP5 ISZERO PUSH2 0x1108 JUMPI PUSH1 0x80 DUP3 SWAP1 SHR PUSH1 0x0 SUB PUSH2 0x1108 JUMPI PUSH1 0x0 DUP1 PUSH2 0x1005 DUP8 DUP10 ADD DUP10 PUSH2 0x1757 JUMP JUMPDEST PUSH1 0x40 MLOAD PUSH32 0xFFFFFFFFFFFFFFFFFFFFFFFFFFFFFFFFFFFFFFFF000000000000000000000000 PUSH1 0x60 DUP16 SWAP1 SHL AND PUSH1 0x20 DUP3 ADD MSTORE PUSH1 0x34 DUP2 ADD DUP3 SWAP1 MSTORE SWAP2 SWAP4 POP SWAP2 POP PUSH1 0x0 SWAP1 PUSH1 0x54 ADD PUSH1 0x40 DUP1 MLOAD PUSH32 0xFFFFFFFFFFFFFFFFFFFFFFFFFFFFFFFFFFFFFFFFFFFFFFFFFFFFFFFFFFFFFFE0 DUP2 DUP5 SUB ADD DUP2 MSTORE SWAP2 SWAP1 MSTORE DUP1 MLOAD PUSH1 0x20 SWAP1 SWAP2 ADD KECCAK256 SWAP1 POP PUSH2 0x10A9 DUP4 PUSH32 0x0 DUP4 PUSH2 0x12A1 JUMP JUMPDEST PUSH2 0x10FE JUMPI PUSH1 0x40 MLOAD PUSH32 0xADBD651200000000000000000000000000000000000000000000000000000000 DUP2 MSTORE PUSH20 0xFFFFFFFFFFFFFFFFFFFFFFFFFFFFFFFFFFFFFFFF DUP14 AND PUSH1 0x4 DUP3 ADD MSTORE PUSH1 0x24 DUP2 ADD DUP4 SWAP1 MSTORE PUSH1 0x44 ADD PUSH2 0x59C JUMP JUMPDEST POP PUSH1 0x80 SHL SWAP1 SWAP2 OR SWAP1 POP JUMPDEST PUSH20 0xFFFFFFFFFFFFFFFFFFFFFFFFFFFFFFFFFFFFFFFF DUP10 AND PUSH1 0x0 DUP2 DUP2 MSTORE PUSH1 0x2 PUSH1 0x20 SWAP1 DUP2 MSTORE PUSH1 0x40 SWAP2 DUP3 SWAP1 KECCAK256 DUP5 SWAP1 SSTORE DUP2 MLOAD DUP6 DUP2 MSTORE SWAP1 DUP2 ADD DUP5 SWAP1 MSTORE PUSH32 0x528DFE447BC8E2A31CBCF22A36526A2FCC9AC2B2FC9A850DDAF575BB2AAB3433 SWAP2 ADD PUSH1 0x40 MLOAD DUP1 SWAP2 SUB SWAP1 LOG2 POP PUSH32 0xF23A6E6100000000000000000000000000000000000000000000000000000000 SWAP10 SWAP9 POP POP POP POP POP POP POP POP POP JUMP JUMPDEST PUSH1 0x0 DUP1 PUSH2 0x4CB PUSH1 0x1 PUSH32 0xCA9D3E17F264B0F3984E2634E94ADB37FA3E6A8103F06AEAE6FA59E21C769F5E PUSH2 0x15E7 JUMP JUMPDEST PUSH1 0x0 PUSH29 0x100000000000000000000000000000000000000000000000000000000 PUSH32 0xFFFFFFFF00000000000000000000000000000000000000000000000000000000 DUP4 AND ADD PUSH2 0x1217 JUMPI POP PUSH1 0x0 PUSH2 0x4CB JUMP JUMPDEST PUSH32 0xFE00365900000000000000000000000000000000000000000000000000000000 PUSH32 0xFFFFFFFF00000000000000000000000000000000000000000000000000000000 DUP4 AND ADD PUSH2 0x1268 JUMPI POP PUSH1 0x1 PUSH2 0x4CB JUMP JUMPDEST POP PUSH32 0xFFFFFFFF00000000000000000000000000000000000000000000000000000000 AND PUSH1 0x0 SWAP1 DUP2 MSTORE PUSH1 0x20 SWAP2 SWAP1 SWAP2 MSTORE PUSH1 0x40 SWAP1 KECCAK256 SLOAD PUSH1 0xFF AND SWAP1 JUMP JUMPDEST PUSH1 0x0 DUP3 PUSH2 0x12AE DUP6 DUP5 PUSH2 0x12B7 JUMP JUMPDEST EQ SWAP5 SWAP4 POP POP POP POP JUMP JUMPDEST PUSH1 0x0 DUP2 DUP2 JUMPDEST DUP5 MLOAD DUP2 LT ISZERO PUSH2 0x12F2 JUMPI PUSH2 0x12E8 DUP3 DUP7 DUP4 DUP2 MLOAD DUP2 LT PUSH2 0x12DB JUMPI PUSH2 0x12DB PUSH2 0x16CF JUMP JUMPDEST PUSH1 0x20 MUL PUSH1 0x20 ADD ADD MLOAD PUSH2 0x12FA JUMP JUMPDEST SWAP2 POP PUSH1 0x1 ADD PUSH2 0x12BC JUMP JUMPDEST POP SWAP4 SWAP3 POP POP POP JUMP JUMPDEST PUSH1 0x0 DUP2 DUP4 LT PUSH2 0x1316 JUMPI PUSH1 0x0 DUP3 DUP2 MSTORE PUSH1 0x20 DUP5 SWAP1 MSTORE PUSH1 0x40 SWAP1 KECCAK256 PUSH2 0x1325 JUMP JUMPDEST PUSH1 0x0 DUP4 DUP2 MSTORE PUSH1 0x20 DUP4 SWAP1 MSTORE PUSH1 0x40 SWAP1 KECCAK256 JUMPDEST SWAP4 SWAP3 POP POP POP JUMP JUMPDEST PUSH1 0x0 PUSH1 0x20 DUP3 DUP5 SUB SLT ISZERO PUSH2 0x133E JUMPI PUSH1 0x0 DUP1 REVERT JUMPDEST DUP2 CALLDATALOAD PUSH32 0xFFFFFFFF00000000000000000000000000000000000000000000000000000000 DUP2 AND DUP2 EQ PUSH2 0x1325 JUMPI PUSH1 0x0 DUP1 REVERT JUMPDEST DUP1 CALLDATALOAD PUSH20 0xFFFFFFFFFFFFFFFFFFFFFFFFFFFFFFFFFFFFFFFF DUP2 AND DUP2 EQ PUSH2 0x1392 JUMPI PUSH1 0x0 DUP1 REVERT JUMPDEST SWAP2 SWAP1 POP JUMP JUMPDEST PUSH1 0x0 PUSH1 0x20 DUP3 DUP5 SUB SLT ISZERO PUSH2 0x13A9 JUMPI PUSH1 0x0 DUP1 REVERT JUMPDEST PUSH2 0x1325 DUP3 PUSH2 0x136E JUMP JUMPDEST PUSH1 0x0 DUP1 PUSH1 0x40 DUP4 DUP6 SUB SLT ISZERO PUSH2 0x13C5 JUMPI PUSH1 0x0 DUP1 REVERT JUMPDEST DUP3 CALLDATALOAD SWAP2 POP PUSH2 0x13D5 PUSH1 0x20 DUP5 ADD PUSH2 0x136E JUMP JUMPDEST SWAP1 POP SWAP3 POP SWAP3 SWAP1 POP JUMP JUMPDEST PUSH1 0x0 PUSH1 0x20 DUP3 DUP5 SUB SLT ISZERO PUSH2 0x13F0 JUMPI PUSH1 0x0 DUP1 REVERT JUMPDEST POP CALLDATALOAD SWAP2 SWAP1 POP JUMP JUMPDEST PUSH1 0x0 DUP1 DUP4 PUSH1 0x1F DUP5 ADD SLT PUSH2 0x1409 JUMPI PUSH1 0x0 DUP1 REVERT JUMPDEST POP DUP2 CALLDATALOAD PUSH8 0xFFFFFFFFFFFFFFFF DUP2 GT ISZERO PUSH2 0x1421 JUMPI PUSH1 0x0 DUP1 REVERT JUMPDEST PUSH1 0x20 DUP4 ADD SWAP2 POP DUP4 PUSH1 0x20 DUP3 PUSH1 0x5 SHL DUP6 ADD ADD GT ISZERO PUSH2 0x143C JUMPI PUSH1 0x0 DUP1 REVERT JUMPDEST SWAP3 POP SWAP3 SWAP1 POP JUMP JUMPDEST PUSH1 0x0 DUP1 DUP4 PUSH1 0x1F DUP5 ADD SLT PUSH2 0x1455 JUMPI PUSH1 0x0 DUP1 REVERT JUMPDEST POP DUP2 CALLDATALOAD PUSH8 0xFFFFFFFFFFFFFFFF DUP2 GT ISZERO PUSH2 0x146D JUMPI PUSH1 0x0 DUP1 REVERT JUMPDEST PUSH1 0x20 DUP4 ADD SWAP2 POP DUP4 PUSH1 0x20 DUP3 DUP6 ADD ADD GT ISZERO PUSH2 0x143C JUMPI PUSH1 0x0 DUP1 REVERT JUMPDEST PUSH1 0x0 DUP1 PUSH1 0x0 DUP1 PUSH1 0x0 DUP1 PUSH1 0x0 DUP1 PUSH1 0xA0 DUP10 DUP12 SUB SLT ISZERO PUSH2 0x14A1 JUMPI PUSH1 0x0 DUP1 REVERT JUMPDEST PUSH2 0x14AA DUP10 PUSH2 0x136E JUMP JUMPDEST SWAP8 POP PUSH2 0x14B8 PUSH1 0x20 DUP11 ADD PUSH2 0x136E JUMP JUMPDEST SWAP7 POP PUSH1 0x40 DUP10 ADD CALLDATALOAD PUSH8 0xFFFFFFFFFFFFFFFF DUP1 DUP3 GT ISZERO PUSH2 0x14D5 JUMPI PUSH1 0x0 DUP1 REVERT JUMPDEST PUSH2 0x14E1 DUP13 DUP4 DUP14 ADD PUSH2 0x13F7 JUMP JUMPDEST SWAP1 SWAP9 POP SWAP7 POP PUSH1 0x60 DUP12 ADD CALLDATALOAD SWAP2 POP DUP1 DUP3 GT ISZERO PUSH2 0x14FA JUMPI PUSH1 0x0 DUP1 REVERT JUMPDEST PUSH2 0x1506 DUP13 DUP4 DUP14 ADD PUSH2 0x13F7 JUMP JUMPDEST SWAP1 SWAP7 POP SWAP5 POP PUSH1 0x80 DUP12 ADD CALLDATALOAD SWAP2 POP DUP1 DUP3 GT ISZERO PUSH2 0x151F JUMPI PUSH1 0x0 DUP1 REVERT JUMPDEST POP PUSH2 0x152C DUP12 DUP3 DUP13 ADD PUSH2 0x1443 JUMP JUMPDEST SWAP10 SWAP13 SWAP9 SWAP12 POP SWAP7 SWAP10 POP SWAP5 SWAP8 SWAP4 SWAP7 SWAP3 SWAP6 SWAP5 POP POP POP JUMP JUMPDEST PUSH1 0x0 DUP1 PUSH1 0x0 DUP1 PUSH1 0x0 DUP1 PUSH1 0xA0 DUP8 DUP10 SUB SLT ISZERO PUSH2 0x1559 JUMPI PUSH1 0x0 DUP1 REVERT JUMPDEST PUSH2 0x1562 DUP8 PUSH2 0x136E JUMP JUMPDEST SWAP6 POP PUSH2 0x1570 PUSH1 0x20 DUP9 ADD PUSH2 0x136E JUMP JUMPDEST SWAP5 POP PUSH1 0x40 DUP8 ADD CALLDATALOAD SWAP4 POP PUSH1 0x60 DUP8 ADD CALLDATALOAD SWAP3 POP PUSH1 0x80 DUP8 ADD CALLDATALOAD PUSH8 0xFFFFFFFFFFFFFFFF DUP2 GT ISZERO PUSH2 0x159A JUMPI PUSH1 0x0 DUP1 REVERT JUMPDEST PUSH2 0x15A6 DUP10 DUP3 DUP11 ADD PUSH2 0x1443 JUMP JUMPDEST SWAP8 SWAP11 SWAP7 SWAP10 POP SWAP5 SWAP8 POP SWAP3 SWAP6 SWAP4 SWAP5 SWAP3 POP POP POP JUMP JUMPDEST PUSH32 0x4E487B7100000000000000000000000000000000000000000000000000000000 PUSH1 0x0 MSTORE PUSH1 0x11 PUSH1 0x4 MSTORE PUSH1 0x24 PUSH1 0x0 REVERT JUMPDEST DUP2 DUP2 SUB DUP2 DUP2 GT ISZERO PUSH2 0x4CB JUMPI PUSH2 0x4CB PUSH2 0x15B8 JUMP JUMPDEST PUSH1 0x0 DUP3 PUSH2 0x1630 JUMPI PUSH32 0x4E487B7100000000000000000000000000000000000000000000000000000000 PUSH1 0x0 MSTORE PUSH1 0x12 PUSH1 0x4 MSTORE PUSH1 0x24 PUSH1 0x0 REVERT JUMPDEST POP DIV SWAP1 JUMP JUMPDEST DUP2 DUP4 MSTORE PUSH1 0x0 PUSH32 0x7FFFFFFFFFFFFFFFFFFFFFFFFFFFFFFFFFFFFFFFFFFFFFFFFFFFFFFFFFFFFFF DUP4 GT ISZERO PUSH2 0x1667 JUMPI PUSH1 0x0 DUP1 REVERT JUMPDEST DUP3 PUSH1 0x5 SHL DUP1 DUP4 PUSH1 0x20 DUP8 ADD CALLDATACOPY SWAP4 SWAP1 SWAP4 ADD PUSH1 0x20 ADD SWAP4 SWAP3 POP POP POP JUMP JUMPDEST PUSH20 0xFFFFFFFFFFFFFFFFFFFFFFFFFFFFFFFFFFFFFFFF DUP7 AND DUP2 MSTORE PUSH1 0x60 PUSH1 0x20 DUP3 ADD MSTORE PUSH1 0x0 PUSH2 0x16B0 PUSH1 0x60 DUP4 ADD DUP7 DUP9 PUSH2 0x1635 JUMP JUMPDEST DUP3 DUP2 SUB PUSH1 0x40 DUP5 ADD MSTORE PUSH2 0x16C3 DUP2 DUP6 DUP8 PUSH2 0x1635 JUMP JUMPDEST SWAP9 SWAP8 POP POP POP POP POP POP POP POP JUMP JUMPDEST PUSH32 0x4E487B7100000000000000000000000000000000000000000000000000000000 PUSH1 0x0 MSTORE PUSH1 0x32 PUSH1 0x4 MSTORE PUSH1 0x24 PUSH1 0x0 REVERT JUMPDEST DUP1 DUP3 MUL DUP2 ISZERO DUP3 DUP3 DIV DUP5 EQ OR PUSH2 0x4CB JUMPI PUSH2 0x4CB PUSH2 0x15B8 JUMP JUMPDEST DUP1 DUP3 ADD DUP1 DUP3 GT ISZERO PUSH2 0x4CB JUMPI PUSH2 0x4CB PUSH2 0x15B8 JUMP JUMPDEST PUSH32 0x4E487B7100000000000000000000000000000000000000000000000000000000 PUSH1 0x0 MSTORE PUSH1 0x41 PUSH1 0x4 MSTORE PUSH1 0x24 PUSH1 0x0 REVERT JUMPDEST PUSH1 0x0 DUP1 PUSH1 0x40 DUP4 DUP6 SUB SLT ISZERO PUSH2 0x176A JUMPI PUSH1 0x0 DUP1 REVERT JUMPDEST DUP3 CALLDATALOAD PUSH8 0xFFFFFFFFFFFFFFFF DUP1 DUP3 GT ISZERO PUSH2 0x1782 JUMPI PUSH1 0x0 DUP1 REVERT JUMPDEST DUP2 DUP6 ADD SWAP2 POP DUP6 PUSH1 0x1F DUP4 ADD SLT PUSH2 0x1796 JUMPI PUSH1 0x0 DUP1 REVERT JUMPDEST DUP2 CALLDATALOAD PUSH1 0x20 DUP3 DUP3 GT ISZERO PUSH2 0x17AA JUMPI PUSH2 0x17AA PUSH2 0x1728 JUMP JUMPDEST DUP2 PUSH1 0x5 SHL PUSH1 0x40 MLOAD PUSH32 0xFFFFFFFFFFFFFFFFFFFFFFFFFFFFFFFFFFFFFFFFFFFFFFFFFFFFFFFFFFFFFFE0 PUSH1 0x3F DUP4 ADD AND DUP2 ADD DUP2 DUP2 LT DUP7 DUP3 GT OR ISZERO PUSH2 0x17ED JUMPI PUSH2 0x17ED PUSH2 0x1728 JUMP JUMPDEST PUSH1 0x40 MSTORE SWAP3 DUP4 MSTORE DUP2 DUP4 ADD SWAP4 POP DUP5 DUP2 ADD DUP3 ADD SWAP3 DUP10 DUP5 GT ISZERO PUSH2 0x180B JUMPI PUSH1 0x0 DUP1 REVERT JUMPDEST SWAP5 DUP3 ADD SWAP5 JUMPDEST DUP4 DUP7 LT ISZERO PUSH2 0x1829 JUMPI DUP6 CALLDATALOAD DUP6 MSTORE SWAP5 DUP3 ADD SWAP5 SWAP4 DUP3 ADD SWAP4 PUSH2 0x1810 JUMP JUMPDEST SWAP10 SWAP8 SWAP1 SWAP2 ADD CALLDATALOAD SWAP8 POP POP POP POP POP POP POP JUMP JUMPDEST PUSH1 0xA0 DUP2 MSTORE PUSH1 0x0 PUSH2 0x184D PUSH1 0xA0 DUP4 ADD DUP10 DUP12 PUSH2 0x1635 JUMP JUMPDEST DUP3 DUP2 SUB PUSH1 0x20 DUP5 ADD MSTORE PUSH2 0x1860 DUP2 DUP9 DUP11 PUSH2 0x1635 JUMP JUMPDEST PUSH1 0x40 DUP5 ADD SWAP7 SWAP1 SWAP7 MSTORE POP POP PUSH1 0x60 DUP2 ADD SWAP3 SWAP1 SWAP3 MSTORE PUSH1 0x80 SWAP1 SWAP2 ADD MSTORE SWAP5 SWAP4 POP POP POP POP JUMP INVALID LOG2 PUSH5 0x6970667358 0x22 SLT KECCAK256 BYTE 0xD7 MLOAD PUSH32 0x220469814ABD0DAB20C4025CFB17CE7ED5FC9AE0CD9C3526888154DF64736F6C PUSH4 0x43000816 STOP CALLER "},"gasEstimates":{"creation":{"codeDepositCost":"1265200","executionCost":"infinite","totalCost":"infinite"},"external":{"BURN_WEIGHT_TOKEN_1()":"infinite","BURN_WEIGHT_TOKEN_2()":"infinite","BURN_WEIGHT_TOKEN_3()":"infinite","BURN_WEIGHT_TOKEN_4()":"infinite","BURN_WEIGHT_TOKEN_5()":"infinite","BURN_WEIGHT_TOKEN_6()":"infinite","BURN_WEIGHT_TOKEN_7()":"infinite","CYCLE_DURATION()":"infinite","INITIAL_TIME()":"infinite","MAX_CYCLE()":"infinite","MERKLE_ROOT()":"infinite","MISSING_ORB()":"infinite","MISSING_ORB_TOKEN_ID()":"241","ORB_OF_POWER()":"infinite","ROC_MULTIPLIER()":"263","currentCycle()":"infinite","onERC1155BatchReceived(address,address,uint256[],uint256[],bytes)":"infinite","onERC1155Received(address,address,uint256,uint256,bytes)":"infinite","orbMultipliers(address)":"2597","supportsInterface(bytes4)":"infinite","totalAshPerCycle(uint256)":"2508","userAshPerCycle(uint256,address)":"2694"}},"methodIdentifiers":{"BURN_WEIGHT_TOKEN_1()":"0277640e","BURN_WEIGHT_TOKEN_2()":"424ab4f7","BURN_WEIGHT_TOKEN_3()":"aa918fd5","BURN_WEIGHT_TOKEN_4()":"0455645a","BURN_WEIGHT_TOKEN_5()":"f95d1016","BURN_WEIGHT_TOKEN_6()":"3838a201","BURN_WEIGHT_TOKEN_7()":"c131754e","CYCLE_DURATION()":"cd421fbf","INITIAL_TIME()":"491bde66","MAX_CYCLE()":"043063bc","MERKLE_ROOT()":"51e75e8b","MISSING_ORB()":"cd18a34f","MISSING_ORB_TOKEN_ID()":"1de0e40b","ORB_OF_POWER()":"28a979cf","ROC_MULTIPLIER()":"55f5b0a8","currentCycle()":"bab2f552","onERC1155BatchReceived(address,address,uint256[],uint256[],bytes)":"bc197c81","onERC1155Received(address,address,uint256,uint256,bytes)":"f23a6e61","orbMultipliers(address)":"12828b7f","supportsInterface(bytes4)":"01ffc9a7","totalAshPerCycle(uint256)":"ab504e73","userAshPerCycle(uint256,address)":"4dac1c2b"}},"storageLayout":{"storage":[{"astId":815,"contract":"contracts/burn/OrbsBurnPool.sol:OrbsBurnPool","label":"totalAshPerCycle","offset":0,"slot":"0","type":"t_mapping(t_uint256,t_uint256)"},{"astId":822,"contract":"contracts/burn/OrbsBurnPool.sol:OrbsBurnPool","label":"userAshPerCycle","offset":0,"slot":"1","type":"t_mapping(t_uint256,t_mapping(t_address,t_uint256))"},{"astId":827,"contract":"contracts/burn/OrbsBurnPool.sol:OrbsBurnPool","label":"orbMultipliers","offset":0,"slot":"2","type":"t_mapping(t_address,t_uint256)"}],"types":{"t_address":{"encoding":"inplace","label":"address","numberOfBytes":"20"},"t_mapping(t_address,t_uint256)":{"encoding":"mapping","key":"t_address","label":"mapping(address => uint256)","numberOfBytes":"32","value":"t_uint256"},"t_mapping(t_uint256,t_mapping(t_address,t_uint256))":{"encoding":"mapping","key":"t_uint256","label":"mapping(uint256 => mapping(address => uint256))","numberOfBytes":"32","value":"t_mapping(t_address,t_uint256)"},"t_mapping(t_uint256,t_uint256)":{"encoding":"mapping","key":"t_uint256","label":"mapping(uint256 => uint256)","numberOfBytes":"32","value":"t_uint256"},"t_uint256":{"encoding":"inplace","label":"uint256","numberOfBytes":"32"}}},"userdoc":{"errors":{"AlreadySetROCMultiplier(address)":[{"notice":"Error thrown when the wallet already has the ROC multiplier been set."}],"IllegalInterfaceId()":[{"notice":"Thrown when setting the illegal interfaceId 0xffffffff."}],"InvalidCycle(uint256)":[{"notice":"Error thrown when the cycle is invalid."}],"InvalidProof(address,uint256)":[{"notice":"Error thrown when the proof is invalid."}],"InvalidTokenAddress(address)":[{"notice":"Error thrown when the token is not approved."}],"InvalidTokenBurnWeight(uint256)":[{"notice":"Error thrown when the token weight is invalid."}],"InvalidTokenId(address,uint256)":[{"notice":"Error thrown when the token ID is invalid."}],"InvalidTokenValue(address,uint256,uint256)":[{"notice":"Error thrown when the token amount is invalid."}],"ZeroCycleDuration()":[{"notice":"Error thrown when the cycle duration is invalid."}],"ZeroMaxCycle()":[{"notice":"Error thrown when the cycle is invalid."}]},"events":{"GenerateAsh(address,uint256,uint256[],uint256[],uint256,uint256,uint256)":{"notice":"Event emitted when ASH are generated."},"UpdateOrbMultiplier(address,uint256,uint256)":{"notice":"Event emitted when the multiplier info is updated."}},"kind":"user","methods":{"BURN_WEIGHT_TOKEN_1()":{"notice":"The token weights for calculating Ash."},"CYCLE_DURATION()":{"notice":"The duration of each cycle."},"INITIAL_TIME()":{"notice":"The initial time of the contract."},"MAX_CYCLE()":{"notice":"The maximum cycle."},"MERKLE_ROOT()":{"notice":"The Merkle root for setting the puzzleMultiplier."},"MISSING_ORB()":{"notice":"The IERC1155 erc1155 contract for setting the token multiplier."},"MISSING_ORB_TOKEN_ID()":{"notice":"The token ID of RoC for setting the token multiplier."},"ORB_OF_POWER()":{"notice":"The IERC1155Burnable erc1155 contracts burn to generate ASH."},"ROC_MULTIPLIER()":{"notice":"The Riddle Of Chaos multiplier."},"constructor":{"notice":"Constructor for the OrbsBurnPool contract."},"currentCycle()":{"notice":"Get the current cycle."},"onERC1155BatchReceived(address,address,uint256[],uint256[],bytes)":{"notice":"Burn the tokens and calculate the ash."},"onERC1155Received(address,address,uint256,uint256,bytes)":{"notice":"Set the Orb multiplier by burning the Missing Orb token 1and set the Puzzle Game multiplier through a Merkle proof in the data field."},"orbMultipliers(address)":{"notice":"The orb multipliers for each user, first 128 bits are the puzzleMultiplier numerator, last 128 bits are the roc multiplier."},"supportsInterface(bytes4)":{"notice":"Returns whether this contract implements a given interface."},"totalAshPerCycle(uint256)":{"notice":"The total amount of ASH generated in each cycle."},"userAshPerCycle(uint256,address)":{"notice":"The total amount of ASH generated by each user in each cycle."}},"version":1}}}}