{"contracts/burn/AnichessOrbsBurnPool.sol":{"AnichessOrbsBurnPool":{"abi":[{"inputs":[{"internalType":"uint256","name":"initialTime","type":"uint256"},{"internalType":"uint256","name":"cycleDuration","type":"uint256"},{"internalType":"uint256","name":"maxCycle","type":"uint256"},{"internalType":"contract IERC1155Burnable","name":"sourceToken","type":"address"},{"internalType":"uint256[]","name":"tokenIds","type":"uint256[]"},{"internalType":"uint256[]","name":"weights","type":"uint256[]"},{"internalType":"bytes32","name":"merkleRoot","type":"bytes32"},{"internalType":"contract IERC1155Burnable","name":"missingOrb","type":"address"},{"internalType":"uint256","name":"tokenMultiplier","type":"uint256"},{"internalType":"contract IForwarderRegistry","name":"forwarderRegistry","type":"address"}],"stateMutability":"nonpayable","type":"constructor"},{"inputs":[{"internalType":"address","name":"recipient","type":"address"}],"name":"AlreadySetAnichessGameMultiplierNumerator","type":"error"},{"inputs":[{"internalType":"uint256","name":"tokenId","type":"uint256"}],"name":"AlreadySetTokenWeight","type":"error"},{"inputs":[{"internalType":"address","name":"wallet","type":"address"}],"name":"AlreadyUnlockedTokenMultiplier","type":"error"},{"inputs":[],"name":"IllegalInterfaceId","type":"error"},{"inputs":[],"name":"InconsistentArrays","type":"error"},{"inputs":[{"internalType":"uint256","name":"cycle","type":"uint256"}],"name":"InvalidCycle","type":"error"},{"inputs":[],"name":"InvalidProof","type":"error"},{"inputs":[],"name":"InvalidToken","type":"error"},{"inputs":[{"internalType":"uint256","name":"amount","type":"uint256"},{"internalType":"uint256","name":"expectedAmount","type":"uint256"}],"name":"InvalidTokenAmount","type":"error"},{"inputs":[{"internalType":"address","name":"token","type":"address"},{"internalType":"uint256","name":"tokenId","type":"uint256"}],"name":"InvalidTokenId","type":"error"},{"anonymous":false,"inputs":[{"indexed":true,"internalType":"address","name":"burner","type":"address"},{"indexed":true,"internalType":"uint256","name":"cycle","type":"uint256"},{"indexed":false,"internalType":"uint256","name":"timestamp","type":"uint256"},{"indexed":false,"internalType":"uint256[]","name":"ids","type":"uint256[]"},{"indexed":false,"internalType":"uint256[]","name":"values","type":"uint256[]"},{"indexed":false,"internalType":"uint256","name":"totalAsh","type":"uint256"},{"indexed":false,"internalType":"uint256","name":"multiplier","type":"uint256"}],"name":"AshGenerated","type":"event"},{"anonymous":false,"inputs":[{"indexed":true,"internalType":"address","name":"recipient","type":"address"},{"indexed":false,"internalType":"uint256","name":"curr","type":"uint256"},{"indexed":false,"internalType":"uint256","name":"updated","type":"uint256"}],"name":"UpdateMultiplierInfo","type":"event"},{"inputs":[],"name":"CYCLE_DURATION","outputs":[{"internalType":"uint256","name":"","type":"uint256"}],"stateMutability":"view","type":"function"},{"inputs":[],"name":"DENOMINATOR","outputs":[{"internalType":"uint256","name":"","type":"uint256"}],"stateMutability":"view","type":"function"},{"inputs":[],"name":"INITIAL_TIME","outputs":[{"internalType":"uint256","name":"","type":"uint256"}],"stateMutability":"view","type":"function"},{"inputs":[],"name":"MAX_CYCLE","outputs":[{"internalType":"uint256","name":"","type":"uint256"}],"stateMutability":"view","type":"function"},{"inputs":[],"name":"MERKLE_ROOT","outputs":[{"internalType":"bytes32","name":"","type":"bytes32"}],"stateMutability":"view","type":"function"},{"inputs":[],"name":"MISSING_ORB","outputs":[{"internalType":"contract IERC1155Burnable","name":"","type":"address"}],"stateMutability":"view","type":"function"},{"inputs":[],"name":"MISSING_ORB_TOKEN_ID","outputs":[{"internalType":"uint256","name":"","type":"uint256"}],"stateMutability":"view","type":"function"},{"inputs":[],"name":"SOURCE_TOKEN","outputs":[{"internalType":"contract IERC1155Burnable","name":"","type":"address"}],"stateMutability":"view","type":"function"},{"inputs":[],"name":"TOKEN_MULTIPLIER","outputs":[{"internalType":"uint256","name":"","type":"uint256"}],"stateMutability":"view","type":"function"},{"inputs":[],"name":"currentCycle","outputs":[{"internalType":"uint256","name":"","type":"uint256"}],"stateMutability":"view","type":"function"},{"inputs":[],"name":"forwarderRegistry","outputs":[{"internalType":"contract IForwarderRegistry","name":"","type":"address"}],"stateMutability":"view","type":"function"},{"inputs":[{"internalType":"address","name":"wallet","type":"address"}],"name":"getMultiplierInfo","outputs":[{"internalType":"uint256","name":"multiplierInfo","type":"uint256"},{"internalType":"uint128","name":"anichessGameMultiplierNumerator","type":"uint128"},{"internalType":"uint128","name":"tokenMultiplier","type":"uint128"}],"stateMutability":"view","type":"function"},{"inputs":[{"internalType":"address","name":"forwarder","type":"address"}],"name":"isTrustedForwarder","outputs":[{"internalType":"bool","name":"","type":"bool"}],"stateMutability":"view","type":"function"},{"inputs":[{"internalType":"bytes32","name":"","type":"bytes32"}],"name":"leafConsumptionStatus","outputs":[{"internalType":"bool","name":"","type":"bool"}],"stateMutability":"view","type":"function"},{"inputs":[{"internalType":"address","name":"","type":"address"}],"name":"multiplierInfos","outputs":[{"internalType":"uint256","name":"","type":"uint256"}],"stateMutability":"view","type":"function"},{"inputs":[{"internalType":"address","name":"","type":"address"},{"internalType":"address","name":"from","type":"address"},{"internalType":"uint256[]","name":"ids","type":"uint256[]"},{"internalType":"uint256[]","name":"values","type":"uint256[]"},{"internalType":"bytes","name":"","type":"bytes"}],"name":"onERC1155BatchReceived","outputs":[{"internalType":"bytes4","name":"","type":"bytes4"}],"stateMutability":"nonpayable","type":"function"},{"inputs":[{"internalType":"address","name":"","type":"address"},{"internalType":"address","name":"from","type":"address"},{"internalType":"uint256","name":"id","type":"uint256"},{"internalType":"uint256","name":"value","type":"uint256"},{"internalType":"bytes","name":"data","type":"bytes"}],"name":"onERC1155Received","outputs":[{"internalType":"bytes4","name":"","type":"bytes4"}],"stateMutability":"nonpayable","type":"function"},{"inputs":[{"internalType":"bytes32[]","name":"proof","type":"bytes32[]"},{"internalType":"address","name":"recipient","type":"address"},{"internalType":"uint256","name":"newAnichessGameMultiplierNumerator","type":"uint256"}],"name":"setAnichessGameMultiplierNumerator","outputs":[],"stateMutability":"nonpayable","type":"function"},{"inputs":[{"internalType":"bytes4","name":"interfaceId","type":"bytes4"}],"name":"supportsInterface","outputs":[{"internalType":"bool","name":"","type":"bool"}],"stateMutability":"view","type":"function"},{"inputs":[{"internalType":"uint256","name":"","type":"uint256"},{"internalType":"address","name":"","type":"address"}],"name":"userAshByCycle","outputs":[{"internalType":"uint256","name":"","type":"uint256"}],"stateMutability":"view","type":"function"}],"devdoc":{"details":"This contract allows users to burn tokens and calculate rewards based on the amount of tokens burned.The rewards are calculated based on the total amount of tokens burned in the previous cycle.","kind":"dev","methods":{"constructor":{"params":{"cycleDuration":"The duration of each cycle.","forwarderRegistry":"The forwarder registry contract.","initialTime":"The initial time of the contract.","maxCycle":"The maximum cycle.","merkleRoot":"The Merkle root of the AnichessGame multiplier claim.","missingOrb":"The IERC1155Burnable erc1155 missing orb contract for unlocking the token multiplier.","sourceToken":"The IERC1155Burnable erc1155 contract burn to generate ASH.","tokenIds":"The token IDs.","tokenMultiplier":"The token multiplier.","weights":"The weights for each token."}},"currentCycle()":{"returns":{"_0":"cycle The current cycle."}},"isTrustedForwarder(address)":{"params":{"forwarder":"The forwarder to check."},"returns":{"_0":"True if `forwarder` is trusted, false if not."}},"onERC1155BatchReceived(address,address,uint256[],uint256[],bytes)":{"details":"Throws if the token is invalid.Throws if the cycle is invalid.Throws if the token ID is invalid.","params":{"from":"The wallet address.","ids":"The token IDs to burn.","values":"The amount of tokens to burn."},"returns":{"_0":"The ERC1155Received selector."}},"onERC1155Received(address,address,uint256,uint256,bytes)":{"details":"Throws if the token is invalid.Throws if the token ID is invalid.Throws if the token amount is invalid.Throws if the token multiplier is already unlocked.","params":{"from":"The wallet address.","id":"The token ID.","value":"The token value."},"returns":{"_0":"The ERC1155Received selector."}},"setAnichessGameMultiplierNumerator(bytes32[],address,uint256)":{"details":"Throws if the payout has already been claimed.Throws if the proof is invalid.","params":{"newAnichessGameMultiplierNumerator":"The AnichessGame multiplier numerator for the recipient.","proof":"The Merkle proof for the claim.","recipient":"The recipient of the payout."}},"supportsInterface(bytes4)":{"details":"Note: This function call must use less than 30 000 gas.","params":{"interfaceId":"the interface identifier to test."},"returns":{"_0":"True if the interface is supported, false if `interfaceId` is `0xffffffff` or if the interface is not supported."}}},"title":"AnichessOrbsBurnPool Contract","version":1},"evm":{"bytecode":{"linkReferences":{},"object":"6101c060405261271060a0526001610160523480156200001e57600080fd5b5060405162001afb38038062001afb8339810160408190526200004191620002ef565b6001600160a01b0381166080526200006e630271189760e51b600162000066620000bb565b9190620000f1565b60e08a90526101008990526101208890526101808490526001600160a01b0380841661014052871660c0526101a0829052620000ab86866200014e565b50505050505050505050620003fc565b600080620000eb60017fca9d3e17f264b0f3984e2634e94adb37fa3e6a8103f06aeae6fa59e21c769f5e620003c4565b92915050565b600160e01b6001600160e01b031983160162000120576040516372c683bb60e01b815260040160405180910390fd5b6001600160e01b03199190911660009081526020929092526040909120805460ff1916911515919091179055565b805182511462000171576040516335e83ac360e01b815260040160405180910390fd5b60005b8251811015620002105760008181526004602052604090205415620001d657828181518110620001a857620001a8620003e6565b602002602001015160405163faf6788760e01b8152600401620001cd91815260200190565b60405180910390fd5b818181518110620001eb57620001eb620003e6565b6020908102919091018101516000838152600490925260409091205560010162000174565b505050565b80516001600160a01b03811681146200022d57600080fd5b919050565b634e487b7160e01b600052604160045260246000fd5b600082601f8301126200025a57600080fd5b815160206001600160401b038083111562000279576200027962000232565b8260051b604051601f19603f83011681018181108482111715620002a157620002a162000232565b6040529384526020818701810194908101925087851115620002c257600080fd5b6020870191505b84821015620002e457815183529183019190830190620002c9565b979650505050505050565b6000806000806000806000806000806101408b8d0312156200031057600080fd5b8a51995060208b0151985060408b015197506200033060608c0162000215565b60808c01519097506001600160401b03808211156200034e57600080fd5b6200035c8e838f0162000248565b975060a08d01519150808211156200037357600080fd5b50620003828d828e0162000248565b95505060c08b015193506200039a60e08c0162000215565b92506101008b01519150620003b36101208c0162000215565b90509295989b9194979a5092959850565b81810381811115620000eb57634e487b7160e01b600052601160045260246000fd5b634e487b7160e01b600052603260045260246000fd5b60805160a05160c05160e05161010051610120516101405161016051610180516101a05161163d620004be6000396000818161020f0152610bd40152600081816102a40152610e650152600081816101d30152610a5301526000818161043e01526109fa01526000818161019e0152610646015260008181610465015261056f01526000818161027d015261059301526000818161031801526105e10152600081816103ab015261080d01526000818161023301526102d6015261163d6000f3fe608060405234801561001057600080fd5b506004361061016c5760003560e01c80637e26d0cd116100cd578063cd18a34f11610081578063e1c96c2011610066578063e1c96c2014610487578063f23a6e61146104aa578063fa9fdc6a146104bd57600080fd5b8063cd18a34f14610439578063cd421fbf1461046057600080fd5b8063b28fd6e6116100b2578063b28fd6e6146103cd578063bab2f552146103ed578063bc197c81146103f557600080fd5b80637e26d0cd1461033a578063918f8674146103a657600080fd5b80632b4c9f161161012457806351e75e8b1161010957806351e75e8b1461029f578063572b6c05146102c657806372d69aa01461031357600080fd5b80632b4c9f1614610231578063491bde661461027857600080fd5b80631de0e40b116101555780631de0e40b146101ce57806324190c6e146101f55780632b093fe91461020a57600080fd5b806301ffc9a714610171578063043063bc14610199575b600080fd5b61018461017f36600461105a565b6104e8565b60405190151581526020015b60405180910390f35b6101c07f000000000000000000000000000000000000000000000000000000000000000081565b604051908152602001610190565b6101c07f000000000000000000000000000000000000000000000000000000000000000081565b610208610203366004611111565b610502565b005b6101c07f000000000000000000000000000000000000000000000000000000000000000081565b7f00000000000000000000000000000000000000000000000000000000000000005b60405173ffffffffffffffffffffffffffffffffffffffff9091168152602001610190565b6101c07f000000000000000000000000000000000000000000000000000000000000000081565b6101c07f000000000000000000000000000000000000000000000000000000000000000081565b6101846102d436600461116d565b7f000000000000000000000000000000000000000000000000000000000000000073ffffffffffffffffffffffffffffffffffffffff90811691161490565b6102537f000000000000000000000000000000000000000000000000000000000000000081565b61037861034836600461116d565b73ffffffffffffffffffffffffffffffffffffffff1660009081526003602052604090205490608082901c908290565b604080519384526fffffffffffffffffffffffffffffffff9283166020850152911690820152606001610190565b6101c07f000000000000000000000000000000000000000000000000000000000000000081565b6101c06103db36600461116d565b60036020526000908152604090205481565b6101c061056b565b6104086104033660046111ca565b6105c7565b6040517fffffffff000000000000000000000000000000000000000000000000000000009091168152602001610190565b6102537f000000000000000000000000000000000000000000000000000000000000000081565b6101c07f000000000000000000000000000000000000000000000000000000000000000081565b610184610495366004611285565b60026020526000908152604090205460ff1681565b6104086104b836600461129e565b6109e0565b6101c06104cb366004611316565b600160209081526000928352604080842090915290825290205481565b60006104fc826104f6610c81565b90610caf565b92915050565b610564848480806020026020016040519081016040528093929190818152602001838360200280828437600092018290525073ffffffffffffffffffffffffffffffffffffffff88168152600360205260409020548793509150859050610d89565b5050505050565b60007f00000000000000000000000000000000000000000000000000000000000000006105b87f000000000000000000000000000000000000000000000000000000000000000042611371565b6105c29190611384565b905090565b60003373ffffffffffffffffffffffffffffffffffffffff7f00000000000000000000000000000000000000000000000000000000000000001614610638576040517fc1ab6dc100000000000000000000000000000000000000000000000000000000815260040160405180910390fd5b600061064261056b565b90507f00000000000000000000000000000000000000000000000000000000000000008111156106a6576040517f764e560f000000000000000000000000000000000000000000000000000000008152600481018290526024015b60405180910390fd5b6000805b8881101561078f576000600460008c8c858181106106ca576106ca6113bf565b9050602002013581526020019081526020016000205490508060000361075657338b8b848181106106fd576106fd6113bf565b6040517f1912ea5100000000000000000000000000000000000000000000000000000000815273ffffffffffffffffffffffffffffffffffffffff9094166004850152602002919091013560248301525060440161069d565b80898984818110610769576107696113bf565b9050602002013561077a91906113ee565b6107849084611405565b9250506001016106aa565b5073ffffffffffffffffffffffffffffffffffffffff8a16600090815260036020526040902054608081901c816fffffffffffffffffffffffffffffffff8116156107f3576107f06fffffffffffffffffffffffffffffffff8216856113ee565b93505b6fffffffffffffffffffffffffffffffff821615610855577f00000000000000000000000000000000000000000000000000000000000000006108486fffffffffffffffffffffffffffffffff8416866113ee565b6108529190611384565b93505b836001600087815260200190815260200160002060008f73ffffffffffffffffffffffffffffffffffffffff1673ffffffffffffffffffffffffffffffffffffffff16815260200190815260200160002060008282546108b59190611405565b9091555050600085815260208190526040812080548692906108d8908490611405565b925050819055503373ffffffffffffffffffffffffffffffffffffffff1663805349348e8e8e8e8e6040518663ffffffff1660e01b8152600401610920959493929190611463565b600060405180830381600087803b15801561093a57600080fd5b505af115801561094e573d6000803e3d6000fd5b50505050848d73ffffffffffffffffffffffffffffffffffffffff167f12154d1bf24e3c99606a6e0a08972355a7a52b92d6f9093e67f843b070e06ff6428f8f8f8f8b8b6040516109a597969594939291906114b2565b60405180910390a3507fbc197c81000000000000000000000000000000000000000000000000000000009d9c50505050505050505050505050565b60003373ffffffffffffffffffffffffffffffffffffffff7f00000000000000000000000000000000000000000000000000000000000000001614610a51576040517fc1ab6dc100000000000000000000000000000000000000000000000000000000815260040160405180910390fd5b7f00000000000000000000000000000000000000000000000000000000000000008514610ab3576040517f1912ea510000000000000000000000000000000000000000000000000000000081523360048201526024810186905260440161069d565b83600114610af7576040517ff789eb2f000000000000000000000000000000000000000000000000000000008152600481018590526001602482015260440161069d565b73ffffffffffffffffffffffffffffffffffffffff86166000908152600360205260409020548215610b4757600080610b3285870187611525565b91509150610b42828a8584610d89565b925050505b6fffffffffffffffffffffffffffffffff811615610ba9576040517f03a0028700000000000000000000000000000000000000000000000000000000815273ffffffffffffffffffffffffffffffffffffffff8816600482015260240161069d565b73ffffffffffffffffffffffffffffffffffffffff87166000818152600360209081526040918290207f00000000000000000000000000000000000000000000000000000000000000007fffffffffffffffffffffffffffffffff0000000000000000000000000000000086161790819055825185815291820181905292917f54519572e3429998e82594d8b7f18c8099087447d701cbaa619b5e26f6de47eb910160405180910390a2507ff23a6e610000000000000000000000000000000000000000000000000000000098975050505050505050565b6000806104fc60017fca9d3e17f264b0f3984e2634e94adb37fa3e6a8103f06aeae6fa59e21c769f5e611371565b60007c01000000000000000000000000000000000000000000000000000000007fffffffff00000000000000000000000000000000000000000000000000000000831601610cff575060006104fc565b7ffe003659000000000000000000000000000000000000000000000000000000007fffffffff00000000000000000000000000000000000000000000000000000000831601610d50575060016104fc565b507fffffffff00000000000000000000000000000000000000000000000000000000166000908152602091909152604090205460ff1690565b6040517fffffffffffffffffffffffffffffffffffffffff000000000000000000000000606085901b166020820152603481018290526000908190605401604080517fffffffffffffffffffffffffffffffffffffffffffffffffffffffffffffffe081840301815291815281516020928301206000818152600290935291205490915060ff1615610e5f576040517f18ed059000000000000000000000000000000000000000000000000000000000815273ffffffffffffffffffffffffffffffffffffffff8616600482015260240161069d565b610e8a867f000000000000000000000000000000000000000000000000000000000000000083610fcf565b610ec0576040517f09bde33900000000000000000000000000000000000000000000000000000000815260040160405180910390fd5b608084901c15610f14576040517f18ed059000000000000000000000000000000000000000000000000000000000815273ffffffffffffffffffffffffffffffffffffffff8616600482015260240161069d565b73ffffffffffffffffffffffffffffffffffffffff851660008181526003602090815260408083206fffffffffffffffffffffffffffffffff8916608089901b1790819055858452600283529281902080547fffffffffffffffffffffffffffffffffffffffffffffffffffffffffffffff0016600117905580518881529182018390529194507f54519572e3429998e82594d8b7f18c8099087447d701cbaa619b5e26f6de47eb910160405180910390a250949350505050565b600082610fdc8584610fe5565b14949350505050565b600081815b84518110156110205761101682868381518110611009576110096113bf565b6020026020010151611028565b9150600101610fea565b509392505050565b6000818310611044576000828152602084905260409020611053565b60008381526020839052604090205b9392505050565b60006020828403121561106c57600080fd5b81357fffffffff000000000000000000000000000000000000000000000000000000008116811461105357600080fd5b60008083601f8401126110ae57600080fd5b50813567ffffffffffffffff8111156110c657600080fd5b6020830191508360208260051b85010111156110e157600080fd5b9250929050565b803573ffffffffffffffffffffffffffffffffffffffff8116811461110c57600080fd5b919050565b6000806000806060858703121561112757600080fd5b843567ffffffffffffffff81111561113e57600080fd5b61114a8782880161109c565b909550935061115d9050602086016110e8565b9396929550929360400135925050565b60006020828403121561117f57600080fd5b611053826110e8565b60008083601f84011261119a57600080fd5b50813567ffffffffffffffff8111156111b257600080fd5b6020830191508360208285010111156110e157600080fd5b60008060008060008060008060a0898b0312156111e657600080fd5b6111ef896110e8565b97506111fd60208a016110e8565b9650604089013567ffffffffffffffff8082111561121a57600080fd5b6112268c838d0161109c565b909850965060608b013591508082111561123f57600080fd5b61124b8c838d0161109c565b909650945060808b013591508082111561126457600080fd5b506112718b828c01611188565b999c989b5096995094979396929594505050565b60006020828403121561129757600080fd5b5035919050565b60008060008060008060a087890312156112b757600080fd5b6112c0876110e8565b95506112ce602088016110e8565b94506040870135935060608701359250608087013567ffffffffffffffff8111156112f857600080fd5b61130489828a01611188565b979a9699509497509295939492505050565b6000806040838503121561132957600080fd5b82359150611339602084016110e8565b90509250929050565b7f4e487b7100000000000000000000000000000000000000000000000000000000600052601160045260246000fd5b818103818111156104fc576104fc611342565b6000826113ba577f4e487b7100000000000000000000000000000000000000000000000000000000600052601260045260246000fd5b500490565b7f4e487b7100000000000000000000000000000000000000000000000000000000600052603260045260246000fd5b80820281158282048414176104fc576104fc611342565b808201808211156104fc576104fc611342565b81835260007f07ffffffffffffffffffffffffffffffffffffffffffffffffffffffffffffff83111561144a57600080fd5b8260051b80836020870137939093016020019392505050565b73ffffffffffffffffffffffffffffffffffffffff86168152606060208201526000611493606083018688611418565b82810360408401526114a6818587611418565b98975050505050505050565b87815260a0602082015260006114cc60a08301888a611418565b82810360408401526114df818789611418565b606084019590955250506080015295945050505050565b7f4e487b7100000000000000000000000000000000000000000000000000000000600052604160045260246000fd5b6000806040838503121561153857600080fd5b823567ffffffffffffffff8082111561155057600080fd5b818501915085601f83011261156457600080fd5b8135602082821115611578576115786114f6565b8160051b6040517fffffffffffffffffffffffffffffffffffffffffffffffffffffffffffffffe0603f830116810181811086821117156115bb576115bb6114f6565b6040529283528183019350848101820192898411156115d957600080fd5b948201945b838610156115f7578535855294820194938201936115de565b999790910135975050505050505056fea264697066735822122057f7ae87617b41d8ac096b5b382b8c4e7cdd474f915933d9aa3ca54506fafb4864736f6c63430008160033","opcodes":"PUSH2 0x1C0 PUSH1 0x40 MSTORE PUSH2 0x2710 PUSH1 0xA0 MSTORE PUSH1 0x1 PUSH2 0x160 MSTORE CALLVALUE DUP1 ISZERO PUSH3 0x1E JUMPI PUSH1 0x0 DUP1 REVERT JUMPDEST POP PUSH1 0x40 MLOAD PUSH3 0x1AFB CODESIZE SUB DUP1 PUSH3 0x1AFB DUP4 CODECOPY DUP2 ADD PUSH1 0x40 DUP2 SWAP1 MSTORE PUSH3 0x41 SWAP2 PUSH3 0x2EF JUMP JUMPDEST PUSH1 0x1 PUSH1 0x1 PUSH1 0xA0 SHL SUB DUP2 AND PUSH1 0x80 MSTORE PUSH3 0x6E PUSH4 0x2711897 PUSH1 0xE5 SHL PUSH1 0x1 PUSH3 0x66 PUSH3 0xBB JUMP JUMPDEST SWAP2 SWAP1 PUSH3 0xF1 JUMP JUMPDEST PUSH1 0xE0 DUP11 SWAP1 MSTORE PUSH2 0x100 DUP10 SWAP1 MSTORE PUSH2 0x120 DUP9 SWAP1 MSTORE PUSH2 0x180 DUP5 SWAP1 MSTORE PUSH1 0x1 PUSH1 0x1 PUSH1 0xA0 SHL SUB DUP1 DUP5 AND PUSH2 0x140 MSTORE DUP8 AND PUSH1 0xC0 MSTORE PUSH2 0x1A0 DUP3 SWAP1 MSTORE PUSH3 0xAB DUP7 DUP7 PUSH3 0x14E JUMP JUMPDEST POP POP POP POP POP POP POP POP POP POP PUSH3 0x3FC JUMP JUMPDEST PUSH1 0x0 DUP1 PUSH3 0xEB PUSH1 0x1 PUSH32 0xCA9D3E17F264B0F3984E2634E94ADB37FA3E6A8103F06AEAE6FA59E21C769F5E PUSH3 0x3C4 JUMP JUMPDEST SWAP3 SWAP2 POP POP JUMP JUMPDEST PUSH1 0x1 PUSH1 0xE0 SHL PUSH1 0x1 PUSH1 0x1 PUSH1 0xE0 SHL SUB NOT DUP4 AND ADD PUSH3 0x120 JUMPI PUSH1 0x40 MLOAD PUSH4 0x72C683BB PUSH1 0xE0 SHL DUP2 MSTORE PUSH1 0x4 ADD PUSH1 0x40 MLOAD DUP1 SWAP2 SUB SWAP1 REVERT JUMPDEST PUSH1 0x1 PUSH1 0x1 PUSH1 0xE0 SHL SUB NOT SWAP2 SWAP1 SWAP2 AND PUSH1 0x0 SWAP1 DUP2 MSTORE PUSH1 0x20 SWAP3 SWAP1 SWAP3 MSTORE PUSH1 0x40 SWAP1 SWAP2 KECCAK256 DUP1 SLOAD PUSH1 0xFF NOT AND SWAP2 ISZERO ISZERO SWAP2 SWAP1 SWAP2 OR SWAP1 SSTORE JUMP JUMPDEST DUP1 MLOAD DUP3 MLOAD EQ PUSH3 0x171 JUMPI PUSH1 0x40 MLOAD PUSH4 0x35E83AC3 PUSH1 0xE0 SHL DUP2 MSTORE PUSH1 0x4 ADD PUSH1 0x40 MLOAD DUP1 SWAP2 SUB SWAP1 REVERT JUMPDEST PUSH1 0x0 JUMPDEST DUP3 MLOAD DUP2 LT ISZERO PUSH3 0x210 JUMPI PUSH1 0x0 DUP2 DUP2 MSTORE PUSH1 0x4 PUSH1 0x20 MSTORE PUSH1 0x40 SWAP1 KECCAK256 SLOAD ISZERO PUSH3 0x1D6 JUMPI DUP3 DUP2 DUP2 MLOAD DUP2 LT PUSH3 0x1A8 JUMPI PUSH3 0x1A8 PUSH3 0x3E6 JUMP JUMPDEST PUSH1 0x20 MUL PUSH1 0x20 ADD ADD MLOAD PUSH1 0x40 MLOAD PUSH4 0xFAF67887 PUSH1 0xE0 SHL DUP2 MSTORE PUSH1 0x4 ADD PUSH3 0x1CD SWAP2 DUP2 MSTORE PUSH1 0x20 ADD SWAP1 JUMP JUMPDEST PUSH1 0x40 MLOAD DUP1 SWAP2 SUB SWAP1 REVERT JUMPDEST DUP2 DUP2 DUP2 MLOAD DUP2 LT PUSH3 0x1EB JUMPI PUSH3 0x1EB PUSH3 0x3E6 JUMP JUMPDEST PUSH1 0x20 SWAP1 DUP2 MUL SWAP2 SWAP1 SWAP2 ADD DUP2 ADD MLOAD PUSH1 0x0 DUP4 DUP2 MSTORE PUSH1 0x4 SWAP1 SWAP3 MSTORE PUSH1 0x40 SWAP1 SWAP2 KECCAK256 SSTORE PUSH1 0x1 ADD PUSH3 0x174 JUMP JUMPDEST POP POP POP JUMP JUMPDEST DUP1 MLOAD PUSH1 0x1 PUSH1 0x1 PUSH1 0xA0 SHL SUB DUP2 AND DUP2 EQ PUSH3 0x22D JUMPI PUSH1 0x0 DUP1 REVERT JUMPDEST SWAP2 SWAP1 POP JUMP JUMPDEST PUSH4 0x4E487B71 PUSH1 0xE0 SHL PUSH1 0x0 MSTORE PUSH1 0x41 PUSH1 0x4 MSTORE PUSH1 0x24 PUSH1 0x0 REVERT JUMPDEST PUSH1 0x0 DUP3 PUSH1 0x1F DUP4 ADD SLT PUSH3 0x25A JUMPI PUSH1 0x0 DUP1 REVERT JUMPDEST DUP2 MLOAD PUSH1 0x20 PUSH1 0x1 PUSH1 0x1 PUSH1 0x40 SHL SUB DUP1 DUP4 GT ISZERO PUSH3 0x279 JUMPI PUSH3 0x279 PUSH3 0x232 JUMP JUMPDEST DUP3 PUSH1 0x5 SHL PUSH1 0x40 MLOAD PUSH1 0x1F NOT PUSH1 0x3F DUP4 ADD AND DUP2 ADD DUP2 DUP2 LT DUP5 DUP3 GT OR ISZERO PUSH3 0x2A1 JUMPI PUSH3 0x2A1 PUSH3 0x232 JUMP JUMPDEST PUSH1 0x40 MSTORE SWAP4 DUP5 MSTORE PUSH1 0x20 DUP2 DUP8 ADD DUP2 ADD SWAP5 SWAP1 DUP2 ADD SWAP3 POP DUP8 DUP6 GT ISZERO PUSH3 0x2C2 JUMPI PUSH1 0x0 DUP1 REVERT JUMPDEST PUSH1 0x20 DUP8 ADD SWAP2 POP JUMPDEST DUP5 DUP3 LT ISZERO PUSH3 0x2E4 JUMPI DUP2 MLOAD DUP4 MSTORE SWAP2 DUP4 ADD SWAP2 SWAP1 DUP4 ADD SWAP1 PUSH3 0x2C9 JUMP JUMPDEST SWAP8 SWAP7 POP POP POP POP POP POP POP JUMP JUMPDEST PUSH1 0x0 DUP1 PUSH1 0x0 DUP1 PUSH1 0x0 DUP1 PUSH1 0x0 DUP1 PUSH1 0x0 DUP1 PUSH2 0x140 DUP12 DUP14 SUB SLT ISZERO PUSH3 0x310 JUMPI PUSH1 0x0 DUP1 REVERT JUMPDEST DUP11 MLOAD SWAP10 POP PUSH1 0x20 DUP12 ADD MLOAD SWAP9 POP PUSH1 0x40 DUP12 ADD MLOAD SWAP8 POP PUSH3 0x330 PUSH1 0x60 DUP13 ADD PUSH3 0x215 JUMP JUMPDEST PUSH1 0x80 DUP13 ADD MLOAD SWAP1 SWAP8 POP PUSH1 0x1 PUSH1 0x1 PUSH1 0x40 SHL SUB DUP1 DUP3 GT ISZERO PUSH3 0x34E JUMPI PUSH1 0x0 DUP1 REVERT JUMPDEST PUSH3 0x35C DUP15 DUP4 DUP16 ADD PUSH3 0x248 JUMP JUMPDEST SWAP8 POP PUSH1 0xA0 DUP14 ADD MLOAD SWAP2 POP DUP1 DUP3 GT ISZERO PUSH3 0x373 JUMPI PUSH1 0x0 DUP1 REVERT JUMPDEST POP PUSH3 0x382 DUP14 DUP3 DUP15 ADD PUSH3 0x248 JUMP JUMPDEST SWAP6 POP POP PUSH1 0xC0 DUP12 ADD MLOAD SWAP4 POP PUSH3 0x39A PUSH1 0xE0 DUP13 ADD PUSH3 0x215 JUMP JUMPDEST SWAP3 POP PUSH2 0x100 DUP12 ADD MLOAD SWAP2 POP PUSH3 0x3B3 PUSH2 0x120 DUP13 ADD PUSH3 0x215 JUMP JUMPDEST SWAP1 POP SWAP3 SWAP6 SWAP9 SWAP12 SWAP2 SWAP5 SWAP8 SWAP11 POP SWAP3 SWAP6 SWAP9 POP JUMP JUMPDEST DUP2 DUP2 SUB DUP2 DUP2 GT ISZERO PUSH3 0xEB JUMPI PUSH4 0x4E487B71 PUSH1 0xE0 SHL PUSH1 0x0 MSTORE PUSH1 0x11 PUSH1 0x4 MSTORE PUSH1 0x24 PUSH1 0x0 REVERT JUMPDEST PUSH4 0x4E487B71 PUSH1 0xE0 SHL PUSH1 0x0 MSTORE PUSH1 0x32 PUSH1 0x4 MSTORE PUSH1 0x24 PUSH1 0x0 REVERT JUMPDEST PUSH1 0x80 MLOAD PUSH1 0xA0 MLOAD PUSH1 0xC0 MLOAD PUSH1 0xE0 MLOAD PUSH2 0x100 MLOAD PUSH2 0x120 MLOAD PUSH2 0x140 MLOAD PUSH2 0x160 MLOAD PUSH2 0x180 MLOAD PUSH2 0x1A0 MLOAD PUSH2 0x163D PUSH3 0x4BE PUSH1 0x0 CODECOPY PUSH1 0x0 DUP2 DUP2 PUSH2 0x20F ADD MSTORE PUSH2 0xBD4 ADD MSTORE PUSH1 0x0 DUP2 DUP2 PUSH2 0x2A4 ADD MSTORE PUSH2 0xE65 ADD MSTORE PUSH1 0x0 DUP2 DUP2 PUSH2 0x1D3 ADD MSTORE PUSH2 0xA53 ADD MSTORE PUSH1 0x0 DUP2 DUP2 PUSH2 0x43E ADD MSTORE PUSH2 0x9FA ADD MSTORE PUSH1 0x0 DUP2 DUP2 PUSH2 0x19E ADD MSTORE PUSH2 0x646 ADD MSTORE PUSH1 0x0 DUP2 DUP2 PUSH2 0x465 ADD MSTORE PUSH2 0x56F ADD MSTORE PUSH1 0x0 DUP2 DUP2 PUSH2 0x27D ADD MSTORE PUSH2 0x593 ADD MSTORE PUSH1 0x0 DUP2 DUP2 PUSH2 0x318 ADD MSTORE PUSH2 0x5E1 ADD MSTORE PUSH1 0x0 DUP2 DUP2 PUSH2 0x3AB ADD MSTORE PUSH2 0x80D ADD MSTORE PUSH1 0x0 DUP2 DUP2 PUSH2 0x233 ADD MSTORE PUSH2 0x2D6 ADD MSTORE PUSH2 0x163D PUSH1 0x0 RETURN INVALID PUSH1 0x80 PUSH1 0x40 MSTORE CALLVALUE DUP1 ISZERO PUSH2 0x10 JUMPI PUSH1 0x0 DUP1 REVERT JUMPDEST POP PUSH1 0x4 CALLDATASIZE LT PUSH2 0x16C JUMPI PUSH1 0x0 CALLDATALOAD PUSH1 0xE0 SHR DUP1 PUSH4 0x7E26D0CD GT PUSH2 0xCD JUMPI DUP1 PUSH4 0xCD18A34F GT PUSH2 0x81 JUMPI DUP1 PUSH4 0xE1C96C20 GT PUSH2 0x66 JUMPI DUP1 PUSH4 0xE1C96C20 EQ PUSH2 0x487 JUMPI DUP1 PUSH4 0xF23A6E61 EQ PUSH2 0x4AA JUMPI DUP1 PUSH4 0xFA9FDC6A EQ PUSH2 0x4BD JUMPI PUSH1 0x0 DUP1 REVERT JUMPDEST DUP1 PUSH4 0xCD18A34F EQ PUSH2 0x439 JUMPI DUP1 PUSH4 0xCD421FBF EQ PUSH2 0x460 JUMPI PUSH1 0x0 DUP1 REVERT JUMPDEST DUP1 PUSH4 0xB28FD6E6 GT PUSH2 0xB2 JUMPI DUP1 PUSH4 0xB28FD6E6 EQ PUSH2 0x3CD JUMPI DUP1 PUSH4 0xBAB2F552 EQ PUSH2 0x3ED JUMPI DUP1 PUSH4 0xBC197C81 EQ PUSH2 0x3F5 JUMPI PUSH1 0x0 DUP1 REVERT JUMPDEST DUP1 PUSH4 0x7E26D0CD EQ PUSH2 0x33A JUMPI DUP1 PUSH4 0x918F8674 EQ PUSH2 0x3A6 JUMPI PUSH1 0x0 DUP1 REVERT JUMPDEST DUP1 PUSH4 0x2B4C9F16 GT PUSH2 0x124 JUMPI DUP1 PUSH4 0x51E75E8B GT PUSH2 0x109 JUMPI DUP1 PUSH4 0x51E75E8B EQ PUSH2 0x29F JUMPI DUP1 PUSH4 0x572B6C05 EQ PUSH2 0x2C6 JUMPI DUP1 PUSH4 0x72D69AA0 EQ PUSH2 0x313 JUMPI PUSH1 0x0 DUP1 REVERT JUMPDEST DUP1 PUSH4 0x2B4C9F16 EQ PUSH2 0x231 JUMPI DUP1 PUSH4 0x491BDE66 EQ PUSH2 0x278 JUMPI PUSH1 0x0 DUP1 REVERT JUMPDEST DUP1 PUSH4 0x1DE0E40B GT PUSH2 0x155 JUMPI DUP1 PUSH4 0x1DE0E40B EQ PUSH2 0x1CE JUMPI DUP1 PUSH4 0x24190C6E EQ PUSH2 0x1F5 JUMPI DUP1 PUSH4 0x2B093FE9 EQ PUSH2 0x20A JUMPI PUSH1 0x0 DUP1 REVERT JUMPDEST DUP1 PUSH4 0x1FFC9A7 EQ PUSH2 0x171 JUMPI DUP1 PUSH4 0x43063BC EQ PUSH2 0x199 JUMPI JUMPDEST PUSH1 0x0 DUP1 REVERT JUMPDEST PUSH2 0x184 PUSH2 0x17F CALLDATASIZE PUSH1 0x4 PUSH2 0x105A JUMP JUMPDEST PUSH2 0x4E8 JUMP JUMPDEST PUSH1 0x40 MLOAD SWAP1 ISZERO ISZERO DUP2 MSTORE PUSH1 0x20 ADD JUMPDEST PUSH1 0x40 MLOAD DUP1 SWAP2 SUB SWAP1 RETURN JUMPDEST PUSH2 0x1C0 PUSH32 0x0 DUP2 JUMP JUMPDEST PUSH1 0x40 MLOAD SWAP1 DUP2 MSTORE PUSH1 0x20 ADD PUSH2 0x190 JUMP JUMPDEST PUSH2 0x1C0 PUSH32 0x0 DUP2 JUMP JUMPDEST PUSH2 0x208 PUSH2 0x203 CALLDATASIZE PUSH1 0x4 PUSH2 0x1111 JUMP JUMPDEST PUSH2 0x502 JUMP JUMPDEST STOP JUMPDEST PUSH2 0x1C0 PUSH32 0x0 DUP2 JUMP JUMPDEST PUSH32 0x0 JUMPDEST PUSH1 0x40 MLOAD PUSH20 0xFFFFFFFFFFFFFFFFFFFFFFFFFFFFFFFFFFFFFFFF SWAP1 SWAP2 AND DUP2 MSTORE PUSH1 0x20 ADD PUSH2 0x190 JUMP JUMPDEST PUSH2 0x1C0 PUSH32 0x0 DUP2 JUMP JUMPDEST PUSH2 0x1C0 PUSH32 0x0 DUP2 JUMP JUMPDEST PUSH2 0x184 PUSH2 0x2D4 CALLDATASIZE PUSH1 0x4 PUSH2 0x116D JUMP JUMPDEST PUSH32 0x0 PUSH20 0xFFFFFFFFFFFFFFFFFFFFFFFFFFFFFFFFFFFFFFFF SWAP1 DUP2 AND SWAP2 AND EQ SWAP1 JUMP JUMPDEST PUSH2 0x253 PUSH32 0x0 DUP2 JUMP JUMPDEST PUSH2 0x378 PUSH2 0x348 CALLDATASIZE PUSH1 0x4 PUSH2 0x116D JUMP JUMPDEST PUSH20 0xFFFFFFFFFFFFFFFFFFFFFFFFFFFFFFFFFFFFFFFF AND PUSH1 0x0 SWAP1 DUP2 MSTORE PUSH1 0x3 PUSH1 0x20 MSTORE PUSH1 0x40 SWAP1 KECCAK256 SLOAD SWAP1 PUSH1 0x80 DUP3 SWAP1 SHR SWAP1 DUP3 SWAP1 JUMP JUMPDEST PUSH1 0x40 DUP1 MLOAD SWAP4 DUP5 MSTORE PUSH16 0xFFFFFFFFFFFFFFFFFFFFFFFFFFFFFFFF SWAP3 DUP4 AND PUSH1 0x20 DUP6 ADD MSTORE SWAP2 AND SWAP1 DUP3 ADD MSTORE PUSH1 0x60 ADD PUSH2 0x190 JUMP JUMPDEST PUSH2 0x1C0 PUSH32 0x0 DUP2 JUMP JUMPDEST PUSH2 0x1C0 PUSH2 0x3DB CALLDATASIZE PUSH1 0x4 PUSH2 0x116D JUMP JUMPDEST PUSH1 0x3 PUSH1 0x20 MSTORE PUSH1 0x0 SWAP1 DUP2 MSTORE PUSH1 0x40 SWAP1 KECCAK256 SLOAD DUP2 JUMP JUMPDEST PUSH2 0x1C0 PUSH2 0x56B JUMP JUMPDEST PUSH2 0x408 PUSH2 0x403 CALLDATASIZE PUSH1 0x4 PUSH2 0x11CA JUMP JUMPDEST PUSH2 0x5C7 JUMP JUMPDEST PUSH1 0x40 MLOAD PUSH32 0xFFFFFFFF00000000000000000000000000000000000000000000000000000000 SWAP1 SWAP2 AND DUP2 MSTORE PUSH1 0x20 ADD PUSH2 0x190 JUMP JUMPDEST PUSH2 0x253 PUSH32 0x0 DUP2 JUMP JUMPDEST PUSH2 0x1C0 PUSH32 0x0 DUP2 JUMP JUMPDEST PUSH2 0x184 PUSH2 0x495 CALLDATASIZE PUSH1 0x4 PUSH2 0x1285 JUMP JUMPDEST PUSH1 0x2 PUSH1 0x20 MSTORE PUSH1 0x0 SWAP1 DUP2 MSTORE PUSH1 0x40 SWAP1 KECCAK256 SLOAD PUSH1 0xFF AND DUP2 JUMP JUMPDEST PUSH2 0x408 PUSH2 0x4B8 CALLDATASIZE PUSH1 0x4 PUSH2 0x129E JUMP JUMPDEST PUSH2 0x9E0 JUMP JUMPDEST PUSH2 0x1C0 PUSH2 0x4CB CALLDATASIZE PUSH1 0x4 PUSH2 0x1316 JUMP JUMPDEST PUSH1 0x1 PUSH1 0x20 SWAP1 DUP2 MSTORE PUSH1 0x0 SWAP3 DUP4 MSTORE PUSH1 0x40 DUP1 DUP5 KECCAK256 SWAP1 SWAP2 MSTORE SWAP1 DUP3 MSTORE SWAP1 KECCAK256 SLOAD DUP2 JUMP JUMPDEST PUSH1 0x0 PUSH2 0x4FC DUP3 PUSH2 0x4F6 PUSH2 0xC81 JUMP JUMPDEST SWAP1 PUSH2 0xCAF JUMP JUMPDEST SWAP3 SWAP2 POP POP JUMP JUMPDEST PUSH2 0x564 DUP5 DUP5 DUP1 DUP1 PUSH1 0x20 MUL PUSH1 0x20 ADD PUSH1 0x40 MLOAD SWAP1 DUP2 ADD PUSH1 0x40 MSTORE DUP1 SWAP4 SWAP3 SWAP2 SWAP1 DUP2 DUP2 MSTORE PUSH1 0x20 ADD DUP4 DUP4 PUSH1 0x20 MUL DUP1 DUP3 DUP5 CALLDATACOPY PUSH1 0x0 SWAP3 ADD DUP3 SWAP1 MSTORE POP PUSH20 0xFFFFFFFFFFFFFFFFFFFFFFFFFFFFFFFFFFFFFFFF DUP9 AND DUP2 MSTORE PUSH1 0x3 PUSH1 0x20 MSTORE PUSH1 0x40 SWAP1 KECCAK256 SLOAD DUP8 SWAP4 POP SWAP2 POP DUP6 SWAP1 POP PUSH2 0xD89 JUMP JUMPDEST POP POP POP POP POP JUMP JUMPDEST PUSH1 0x0 PUSH32 0x0 PUSH2 0x5B8 PUSH32 0x0 TIMESTAMP PUSH2 0x1371 JUMP JUMPDEST PUSH2 0x5C2 SWAP2 SWAP1 PUSH2 0x1384 JUMP JUMPDEST SWAP1 POP SWAP1 JUMP JUMPDEST PUSH1 0x0 CALLER PUSH20 0xFFFFFFFFFFFFFFFFFFFFFFFFFFFFFFFFFFFFFFFF PUSH32 0x0 AND EQ PUSH2 0x638 JUMPI PUSH1 0x40 MLOAD PUSH32 0xC1AB6DC100000000000000000000000000000000000000000000000000000000 DUP2 MSTORE PUSH1 0x4 ADD PUSH1 0x40 MLOAD DUP1 SWAP2 SUB SWAP1 REVERT JUMPDEST PUSH1 0x0 PUSH2 0x642 PUSH2 0x56B JUMP JUMPDEST SWAP1 POP PUSH32 0x0 DUP2 GT ISZERO PUSH2 0x6A6 JUMPI PUSH1 0x40 MLOAD PUSH32 0x764E560F00000000000000000000000000000000000000000000000000000000 DUP2 MSTORE PUSH1 0x4 DUP2 ADD DUP3 SWAP1 MSTORE PUSH1 0x24 ADD JUMPDEST PUSH1 0x40 MLOAD DUP1 SWAP2 SUB SWAP1 REVERT JUMPDEST PUSH1 0x0 DUP1 JUMPDEST DUP9 DUP2 LT ISZERO PUSH2 0x78F JUMPI PUSH1 0x0 PUSH1 0x4 PUSH1 0x0 DUP13 DUP13 DUP6 DUP2 DUP2 LT PUSH2 0x6CA JUMPI PUSH2 0x6CA PUSH2 0x13BF JUMP JUMPDEST SWAP1 POP PUSH1 0x20 MUL ADD CALLDATALOAD DUP2 MSTORE PUSH1 0x20 ADD SWAP1 DUP2 MSTORE PUSH1 0x20 ADD PUSH1 0x0 KECCAK256 SLOAD SWAP1 POP DUP1 PUSH1 0x0 SUB PUSH2 0x756 JUMPI CALLER DUP12 DUP12 DUP5 DUP2 DUP2 LT PUSH2 0x6FD JUMPI PUSH2 0x6FD PUSH2 0x13BF JUMP JUMPDEST PUSH1 0x40 MLOAD PUSH32 0x1912EA5100000000000000000000000000000000000000000000000000000000 DUP2 MSTORE PUSH20 0xFFFFFFFFFFFFFFFFFFFFFFFFFFFFFFFFFFFFFFFF SWAP1 SWAP5 AND PUSH1 0x4 DUP6 ADD MSTORE PUSH1 0x20 MUL SWAP2 SWAP1 SWAP2 ADD CALLDATALOAD PUSH1 0x24 DUP4 ADD MSTORE POP PUSH1 0x44 ADD PUSH2 0x69D JUMP JUMPDEST DUP1 DUP10 DUP10 DUP5 DUP2 DUP2 LT PUSH2 0x769 JUMPI PUSH2 0x769 PUSH2 0x13BF JUMP JUMPDEST SWAP1 POP PUSH1 0x20 MUL ADD CALLDATALOAD PUSH2 0x77A SWAP2 SWAP1 PUSH2 0x13EE JUMP JUMPDEST PUSH2 0x784 SWAP1 DUP5 PUSH2 0x1405 JUMP JUMPDEST SWAP3 POP POP PUSH1 0x1 ADD PUSH2 0x6AA JUMP JUMPDEST POP PUSH20 0xFFFFFFFFFFFFFFFFFFFFFFFFFFFFFFFFFFFFFFFF DUP11 AND PUSH1 0x0 SWAP1 DUP2 MSTORE PUSH1 0x3 PUSH1 0x20 MSTORE PUSH1 0x40 SWAP1 KECCAK256 SLOAD PUSH1 0x80 DUP2 SWAP1 SHR DUP2 PUSH16 0xFFFFFFFFFFFFFFFFFFFFFFFFFFFFFFFF DUP2 AND ISZERO PUSH2 0x7F3 JUMPI PUSH2 0x7F0 PUSH16 0xFFFFFFFFFFFFFFFFFFFFFFFFFFFFFFFF DUP3 AND DUP6 PUSH2 0x13EE JUMP JUMPDEST SWAP4 POP JUMPDEST PUSH16 0xFFFFFFFFFFFFFFFFFFFFFFFFFFFFFFFF DUP3 AND ISZERO PUSH2 0x855 JUMPI PUSH32 0x0 PUSH2 0x848 PUSH16 0xFFFFFFFFFFFFFFFFFFFFFFFFFFFFFFFF DUP5 AND DUP7 PUSH2 0x13EE JUMP JUMPDEST PUSH2 0x852 SWAP2 SWAP1 PUSH2 0x1384 JUMP JUMPDEST SWAP4 POP JUMPDEST DUP4 PUSH1 0x1 PUSH1 0x0 DUP8 DUP2 MSTORE PUSH1 0x20 ADD SWAP1 DUP2 MSTORE PUSH1 0x20 ADD PUSH1 0x0 KECCAK256 PUSH1 0x0 DUP16 PUSH20 0xFFFFFFFFFFFFFFFFFFFFFFFFFFFFFFFFFFFFFFFF AND PUSH20 0xFFFFFFFFFFFFFFFFFFFFFFFFFFFFFFFFFFFFFFFF AND DUP2 MSTORE PUSH1 0x20 ADD SWAP1 DUP2 MSTORE PUSH1 0x20 ADD PUSH1 0x0 KECCAK256 PUSH1 0x0 DUP3 DUP3 SLOAD PUSH2 0x8B5 SWAP2 SWAP1 PUSH2 0x1405 JUMP JUMPDEST SWAP1 SWAP2 SSTORE POP POP PUSH1 0x0 DUP6 DUP2 MSTORE PUSH1 0x20 DUP2 SWAP1 MSTORE PUSH1 0x40 DUP2 KECCAK256 DUP1 SLOAD DUP7 SWAP3 SWAP1 PUSH2 0x8D8 SWAP1 DUP5 SWAP1 PUSH2 0x1405 JUMP JUMPDEST SWAP3 POP POP DUP2 SWAP1 SSTORE POP CALLER PUSH20 0xFFFFFFFFFFFFFFFFFFFFFFFFFFFFFFFFFFFFFFFF AND PUSH4 0x80534934 DUP15 DUP15 DUP15 DUP15 DUP15 PUSH1 0x40 MLOAD DUP7 PUSH4 0xFFFFFFFF AND PUSH1 0xE0 SHL DUP2 MSTORE PUSH1 0x4 ADD PUSH2 0x920 SWAP6 SWAP5 SWAP4 SWAP3 SWAP2 SWAP1 PUSH2 0x1463 JUMP JUMPDEST PUSH1 0x0 PUSH1 0x40 MLOAD DUP1 DUP4 SUB DUP2 PUSH1 0x0 DUP8 DUP1 EXTCODESIZE ISZERO DUP1 ISZERO PUSH2 0x93A JUMPI PUSH1 0x0 DUP1 REVERT JUMPDEST POP GAS CALL ISZERO DUP1 ISZERO PUSH2 0x94E JUMPI RETURNDATASIZE PUSH1 0x0 DUP1 RETURNDATACOPY RETURNDATASIZE PUSH1 0x0 REVERT JUMPDEST POP POP POP POP DUP5 DUP14 PUSH20 0xFFFFFFFFFFFFFFFFFFFFFFFFFFFFFFFFFFFFFFFF AND PUSH32 0x12154D1BF24E3C99606A6E0A08972355A7A52B92D6F9093E67F843B070E06FF6 TIMESTAMP DUP16 DUP16 DUP16 DUP16 DUP12 DUP12 PUSH1 0x40 MLOAD PUSH2 0x9A5 SWAP8 SWAP7 SWAP6 SWAP5 SWAP4 SWAP3 SWAP2 SWAP1 PUSH2 0x14B2 JUMP JUMPDEST PUSH1 0x40 MLOAD DUP1 SWAP2 SUB SWAP1 LOG3 POP PUSH32 0xBC197C8100000000000000000000000000000000000000000000000000000000 SWAP14 SWAP13 POP POP POP POP POP POP POP POP POP POP POP POP POP JUMP JUMPDEST PUSH1 0x0 CALLER PUSH20 0xFFFFFFFFFFFFFFFFFFFFFFFFFFFFFFFFFFFFFFFF PUSH32 0x0 AND EQ PUSH2 0xA51 JUMPI PUSH1 0x40 MLOAD PUSH32 0xC1AB6DC100000000000000000000000000000000000000000000000000000000 DUP2 MSTORE PUSH1 0x4 ADD PUSH1 0x40 MLOAD DUP1 SWAP2 SUB SWAP1 REVERT JUMPDEST PUSH32 0x0 DUP6 EQ PUSH2 0xAB3 JUMPI PUSH1 0x40 MLOAD PUSH32 0x1912EA5100000000000000000000000000000000000000000000000000000000 DUP2 MSTORE CALLER PUSH1 0x4 DUP3 ADD MSTORE PUSH1 0x24 DUP2 ADD DUP7 SWAP1 MSTORE PUSH1 0x44 ADD PUSH2 0x69D JUMP JUMPDEST DUP4 PUSH1 0x1 EQ PUSH2 0xAF7 JUMPI PUSH1 0x40 MLOAD PUSH32 0xF789EB2F00000000000000000000000000000000000000000000000000000000 DUP2 MSTORE PUSH1 0x4 DUP2 ADD DUP6 SWAP1 MSTORE PUSH1 0x1 PUSH1 0x24 DUP3 ADD MSTORE PUSH1 0x44 ADD PUSH2 0x69D JUMP JUMPDEST PUSH20 0xFFFFFFFFFFFFFFFFFFFFFFFFFFFFFFFFFFFFFFFF DUP7 AND PUSH1 0x0 SWAP1 DUP2 MSTORE PUSH1 0x3 PUSH1 0x20 MSTORE PUSH1 0x40 SWAP1 KECCAK256 SLOAD DUP3 ISZERO PUSH2 0xB47 JUMPI PUSH1 0x0 DUP1 PUSH2 0xB32 DUP6 DUP8 ADD DUP8 PUSH2 0x1525 JUMP JUMPDEST SWAP2 POP SWAP2 POP PUSH2 0xB42 DUP3 DUP11 DUP6 DUP5 PUSH2 0xD89 JUMP JUMPDEST SWAP3 POP POP POP JUMPDEST PUSH16 0xFFFFFFFFFFFFFFFFFFFFFFFFFFFFFFFF DUP2 AND ISZERO PUSH2 0xBA9 JUMPI PUSH1 0x40 MLOAD PUSH32 0x3A0028700000000000000000000000000000000000000000000000000000000 DUP2 MSTORE PUSH20 0xFFFFFFFFFFFFFFFFFFFFFFFFFFFFFFFFFFFFFFFF DUP9 AND PUSH1 0x4 DUP3 ADD MSTORE PUSH1 0x24 ADD PUSH2 0x69D JUMP JUMPDEST PUSH20 0xFFFFFFFFFFFFFFFFFFFFFFFFFFFFFFFFFFFFFFFF DUP8 AND PUSH1 0x0 DUP2 DUP2 MSTORE PUSH1 0x3 PUSH1 0x20 SWAP1 DUP2 MSTORE PUSH1 0x40 SWAP2 DUP3 SWAP1 KECCAK256 PUSH32 0x0 PUSH32 0xFFFFFFFFFFFFFFFFFFFFFFFFFFFFFFFF00000000000000000000000000000000 DUP7 AND OR SWAP1 DUP2 SWAP1 SSTORE DUP3 MLOAD DUP6 DUP2 MSTORE SWAP2 DUP3 ADD DUP2 SWAP1 MSTORE SWAP3 SWAP2 PUSH32 0x54519572E3429998E82594D8B7F18C8099087447D701CBAA619B5E26F6DE47EB SWAP2 ADD PUSH1 0x40 MLOAD DUP1 SWAP2 SUB SWAP1 LOG2 POP PUSH32 0xF23A6E6100000000000000000000000000000000000000000000000000000000 SWAP9 SWAP8 POP POP POP POP POP POP POP POP JUMP JUMPDEST PUSH1 0x0 DUP1 PUSH2 0x4FC PUSH1 0x1 PUSH32 0xCA9D3E17F264B0F3984E2634E94ADB37FA3E6A8103F06AEAE6FA59E21C769F5E PUSH2 0x1371 JUMP JUMPDEST PUSH1 0x0 PUSH29 0x100000000000000000000000000000000000000000000000000000000 PUSH32 0xFFFFFFFF00000000000000000000000000000000000000000000000000000000 DUP4 AND ADD PUSH2 0xCFF JUMPI POP PUSH1 0x0 PUSH2 0x4FC JUMP JUMPDEST PUSH32 0xFE00365900000000000000000000000000000000000000000000000000000000 PUSH32 0xFFFFFFFF00000000000000000000000000000000000000000000000000000000 DUP4 AND ADD PUSH2 0xD50 JUMPI POP PUSH1 0x1 PUSH2 0x4FC JUMP JUMPDEST POP PUSH32 0xFFFFFFFF00000000000000000000000000000000000000000000000000000000 AND PUSH1 0x0 SWAP1 DUP2 MSTORE PUSH1 0x20 SWAP2 SWAP1 SWAP2 MSTORE PUSH1 0x40 SWAP1 KECCAK256 SLOAD PUSH1 0xFF AND SWAP1 JUMP JUMPDEST PUSH1 0x40 MLOAD PUSH32 0xFFFFFFFFFFFFFFFFFFFFFFFFFFFFFFFFFFFFFFFF000000000000000000000000 PUSH1 0x60 DUP6 SWAP1 SHL AND PUSH1 0x20 DUP3 ADD MSTORE PUSH1 0x34 DUP2 ADD DUP3 SWAP1 MSTORE PUSH1 0x0 SWAP1 DUP2 SWAP1 PUSH1 0x54 ADD PUSH1 0x40 DUP1 MLOAD PUSH32 0xFFFFFFFFFFFFFFFFFFFFFFFFFFFFFFFFFFFFFFFFFFFFFFFFFFFFFFFFFFFFFFE0 DUP2 DUP5 SUB ADD DUP2 MSTORE SWAP2 DUP2 MSTORE DUP2 MLOAD PUSH1 0x20 SWAP3 DUP4 ADD KECCAK256 PUSH1 0x0 DUP2 DUP2 MSTORE PUSH1 0x2 SWAP1 SWAP4 MSTORE SWAP2 KECCAK256 SLOAD SWAP1 SWAP2 POP PUSH1 0xFF AND ISZERO PUSH2 0xE5F JUMPI PUSH1 0x40 MLOAD PUSH32 0x18ED059000000000000000000000000000000000000000000000000000000000 DUP2 MSTORE PUSH20 0xFFFFFFFFFFFFFFFFFFFFFFFFFFFFFFFFFFFFFFFF DUP7 AND PUSH1 0x4 DUP3 ADD MSTORE PUSH1 0x24 ADD PUSH2 0x69D JUMP JUMPDEST PUSH2 0xE8A DUP7 PUSH32 0x0 DUP4 PUSH2 0xFCF JUMP JUMPDEST PUSH2 0xEC0 JUMPI PUSH1 0x40 MLOAD PUSH32 0x9BDE33900000000000000000000000000000000000000000000000000000000 DUP2 MSTORE PUSH1 0x4 ADD PUSH1 0x40 MLOAD DUP1 SWAP2 SUB SWAP1 REVERT JUMPDEST PUSH1 0x80 DUP5 SWAP1 SHR ISZERO PUSH2 0xF14 JUMPI PUSH1 0x40 MLOAD PUSH32 0x18ED059000000000000000000000000000000000000000000000000000000000 DUP2 MSTORE PUSH20 0xFFFFFFFFFFFFFFFFFFFFFFFFFFFFFFFFFFFFFFFF DUP7 AND PUSH1 0x4 DUP3 ADD MSTORE PUSH1 0x24 ADD PUSH2 0x69D JUMP JUMPDEST PUSH20 0xFFFFFFFFFFFFFFFFFFFFFFFFFFFFFFFFFFFFFFFF DUP6 AND PUSH1 0x0 DUP2 DUP2 MSTORE PUSH1 0x3 PUSH1 0x20 SWAP1 DUP2 MSTORE PUSH1 0x40 DUP1 DUP4 KECCAK256 PUSH16 0xFFFFFFFFFFFFFFFFFFFFFFFFFFFFFFFF DUP10 AND PUSH1 0x80 DUP10 SWAP1 SHL OR SWAP1 DUP2 SWAP1 SSTORE DUP6 DUP5 MSTORE PUSH1 0x2 DUP4 MSTORE SWAP3 DUP2 SWAP1 KECCAK256 DUP1 SLOAD PUSH32 0xFFFFFFFFFFFFFFFFFFFFFFFFFFFFFFFFFFFFFFFFFFFFFFFFFFFFFFFFFFFFFF00 AND PUSH1 0x1 OR SWAP1 SSTORE DUP1 MLOAD DUP9 DUP2 MSTORE SWAP2 DUP3 ADD DUP4 SWAP1 MSTORE SWAP2 SWAP5 POP PUSH32 0x54519572E3429998E82594D8B7F18C8099087447D701CBAA619B5E26F6DE47EB SWAP2 ADD PUSH1 0x40 MLOAD DUP1 SWAP2 SUB SWAP1 LOG2 POP SWAP5 SWAP4 POP POP POP POP JUMP JUMPDEST PUSH1 0x0 DUP3 PUSH2 0xFDC DUP6 DUP5 PUSH2 0xFE5 JUMP JUMPDEST EQ SWAP5 SWAP4 POP POP POP POP JUMP JUMPDEST PUSH1 0x0 DUP2 DUP2 JUMPDEST DUP5 MLOAD DUP2 LT ISZERO PUSH2 0x1020 JUMPI PUSH2 0x1016 DUP3 DUP7 DUP4 DUP2 MLOAD DUP2 LT PUSH2 0x1009 JUMPI PUSH2 0x1009 PUSH2 0x13BF JUMP JUMPDEST PUSH1 0x20 MUL PUSH1 0x20 ADD ADD MLOAD PUSH2 0x1028 JUMP JUMPDEST SWAP2 POP PUSH1 0x1 ADD PUSH2 0xFEA JUMP JUMPDEST POP SWAP4 SWAP3 POP POP POP JUMP JUMPDEST PUSH1 0x0 DUP2 DUP4 LT PUSH2 0x1044 JUMPI PUSH1 0x0 DUP3 DUP2 MSTORE PUSH1 0x20 DUP5 SWAP1 MSTORE PUSH1 0x40 SWAP1 KECCAK256 PUSH2 0x1053 JUMP JUMPDEST PUSH1 0x0 DUP4 DUP2 MSTORE PUSH1 0x20 DUP4 SWAP1 MSTORE PUSH1 0x40 SWAP1 KECCAK256 JUMPDEST SWAP4 SWAP3 POP POP POP JUMP JUMPDEST PUSH1 0x0 PUSH1 0x20 DUP3 DUP5 SUB SLT ISZERO PUSH2 0x106C JUMPI PUSH1 0x0 DUP1 REVERT JUMPDEST DUP2 CALLDATALOAD PUSH32 0xFFFFFFFF00000000000000000000000000000000000000000000000000000000 DUP2 AND DUP2 EQ PUSH2 0x1053 JUMPI PUSH1 0x0 DUP1 REVERT JUMPDEST PUSH1 0x0 DUP1 DUP4 PUSH1 0x1F DUP5 ADD SLT PUSH2 0x10AE JUMPI PUSH1 0x0 DUP1 REVERT JUMPDEST POP DUP2 CALLDATALOAD PUSH8 0xFFFFFFFFFFFFFFFF DUP2 GT ISZERO PUSH2 0x10C6 JUMPI PUSH1 0x0 DUP1 REVERT JUMPDEST PUSH1 0x20 DUP4 ADD SWAP2 POP DUP4 PUSH1 0x20 DUP3 PUSH1 0x5 SHL DUP6 ADD ADD GT ISZERO PUSH2 0x10E1 JUMPI PUSH1 0x0 DUP1 REVERT JUMPDEST SWAP3 POP SWAP3 SWAP1 POP JUMP JUMPDEST DUP1 CALLDATALOAD PUSH20 0xFFFFFFFFFFFFFFFFFFFFFFFFFFFFFFFFFFFFFFFF DUP2 AND DUP2 EQ PUSH2 0x110C JUMPI PUSH1 0x0 DUP1 REVERT JUMPDEST SWAP2 SWAP1 POP JUMP JUMPDEST PUSH1 0x0 DUP1 PUSH1 0x0 DUP1 PUSH1 0x60 DUP6 DUP8 SUB SLT ISZERO PUSH2 0x1127 JUMPI PUSH1 0x0 DUP1 REVERT JUMPDEST DUP5 CALLDATALOAD PUSH8 0xFFFFFFFFFFFFFFFF DUP2 GT ISZERO PUSH2 0x113E JUMPI PUSH1 0x0 DUP1 REVERT JUMPDEST PUSH2 0x114A DUP8 DUP3 DUP9 ADD PUSH2 0x109C JUMP JUMPDEST SWAP1 SWAP6 POP SWAP4 POP PUSH2 0x115D SWAP1 POP PUSH1 0x20 DUP7 ADD PUSH2 0x10E8 JUMP JUMPDEST SWAP4 SWAP7 SWAP3 SWAP6 POP SWAP3 SWAP4 PUSH1 0x40 ADD CALLDATALOAD SWAP3 POP POP JUMP JUMPDEST PUSH1 0x0 PUSH1 0x20 DUP3 DUP5 SUB SLT ISZERO PUSH2 0x117F JUMPI PUSH1 0x0 DUP1 REVERT JUMPDEST PUSH2 0x1053 DUP3 PUSH2 0x10E8 JUMP JUMPDEST PUSH1 0x0 DUP1 DUP4 PUSH1 0x1F DUP5 ADD SLT PUSH2 0x119A JUMPI PUSH1 0x0 DUP1 REVERT JUMPDEST POP DUP2 CALLDATALOAD PUSH8 0xFFFFFFFFFFFFFFFF DUP2 GT ISZERO PUSH2 0x11B2 JUMPI PUSH1 0x0 DUP1 REVERT JUMPDEST PUSH1 0x20 DUP4 ADD SWAP2 POP DUP4 PUSH1 0x20 DUP3 DUP6 ADD ADD GT ISZERO PUSH2 0x10E1 JUMPI PUSH1 0x0 DUP1 REVERT JUMPDEST PUSH1 0x0 DUP1 PUSH1 0x0 DUP1 PUSH1 0x0 DUP1 PUSH1 0x0 DUP1 PUSH1 0xA0 DUP10 DUP12 SUB SLT ISZERO PUSH2 0x11E6 JUMPI PUSH1 0x0 DUP1 REVERT JUMPDEST PUSH2 0x11EF DUP10 PUSH2 0x10E8 JUMP JUMPDEST SWAP8 POP PUSH2 0x11FD PUSH1 0x20 DUP11 ADD PUSH2 0x10E8 JUMP JUMPDEST SWAP7 POP PUSH1 0x40 DUP10 ADD CALLDATALOAD PUSH8 0xFFFFFFFFFFFFFFFF DUP1 DUP3 GT ISZERO PUSH2 0x121A JUMPI PUSH1 0x0 DUP1 REVERT JUMPDEST PUSH2 0x1226 DUP13 DUP4 DUP14 ADD PUSH2 0x109C JUMP JUMPDEST SWAP1 SWAP9 POP SWAP7 POP PUSH1 0x60 DUP12 ADD CALLDATALOAD SWAP2 POP DUP1 DUP3 GT ISZERO PUSH2 0x123F JUMPI PUSH1 0x0 DUP1 REVERT JUMPDEST PUSH2 0x124B DUP13 DUP4 DUP14 ADD PUSH2 0x109C JUMP JUMPDEST SWAP1 SWAP7 POP SWAP5 POP PUSH1 0x80 DUP12 ADD CALLDATALOAD SWAP2 POP DUP1 DUP3 GT ISZERO PUSH2 0x1264 JUMPI PUSH1 0x0 DUP1 REVERT JUMPDEST POP PUSH2 0x1271 DUP12 DUP3 DUP13 ADD PUSH2 0x1188 JUMP JUMPDEST SWAP10 SWAP13 SWAP9 SWAP12 POP SWAP7 SWAP10 POP SWAP5 SWAP8 SWAP4 SWAP7 SWAP3 SWAP6 SWAP5 POP POP POP JUMP JUMPDEST PUSH1 0x0 PUSH1 0x20 DUP3 DUP5 SUB SLT ISZERO PUSH2 0x1297 JUMPI PUSH1 0x0 DUP1 REVERT JUMPDEST POP CALLDATALOAD SWAP2 SWAP1 POP JUMP JUMPDEST PUSH1 0x0 DUP1 PUSH1 0x0 DUP1 PUSH1 0x0 DUP1 PUSH1 0xA0 DUP8 DUP10 SUB SLT ISZERO PUSH2 0x12B7 JUMPI PUSH1 0x0 DUP1 REVERT JUMPDEST PUSH2 0x12C0 DUP8 PUSH2 0x10E8 JUMP JUMPDEST SWAP6 POP PUSH2 0x12CE PUSH1 0x20 DUP9 ADD PUSH2 0x10E8 JUMP JUMPDEST SWAP5 POP PUSH1 0x40 DUP8 ADD CALLDATALOAD SWAP4 POP PUSH1 0x60 DUP8 ADD CALLDATALOAD SWAP3 POP PUSH1 0x80 DUP8 ADD CALLDATALOAD PUSH8 0xFFFFFFFFFFFFFFFF DUP2 GT ISZERO PUSH2 0x12F8 JUMPI PUSH1 0x0 DUP1 REVERT JUMPDEST PUSH2 0x1304 DUP10 DUP3 DUP11 ADD PUSH2 0x1188 JUMP JUMPDEST SWAP8 SWAP11 SWAP7 SWAP10 POP SWAP5 SWAP8 POP SWAP3 SWAP6 SWAP4 SWAP5 SWAP3 POP POP POP JUMP JUMPDEST PUSH1 0x0 DUP1 PUSH1 0x40 DUP4 DUP6 SUB SLT ISZERO PUSH2 0x1329 JUMPI PUSH1 0x0 DUP1 REVERT JUMPDEST DUP3 CALLDATALOAD SWAP2 POP PUSH2 0x1339 PUSH1 0x20 DUP5 ADD PUSH2 0x10E8 JUMP JUMPDEST SWAP1 POP SWAP3 POP SWAP3 SWAP1 POP JUMP JUMPDEST PUSH32 0x4E487B7100000000000000000000000000000000000000000000000000000000 PUSH1 0x0 MSTORE PUSH1 0x11 PUSH1 0x4 MSTORE PUSH1 0x24 PUSH1 0x0 REVERT JUMPDEST DUP2 DUP2 SUB DUP2 DUP2 GT ISZERO PUSH2 0x4FC JUMPI PUSH2 0x4FC PUSH2 0x1342 JUMP JUMPDEST PUSH1 0x0 DUP3 PUSH2 0x13BA JUMPI PUSH32 0x4E487B7100000000000000000000000000000000000000000000000000000000 PUSH1 0x0 MSTORE PUSH1 0x12 PUSH1 0x4 MSTORE PUSH1 0x24 PUSH1 0x0 REVERT JUMPDEST POP DIV SWAP1 JUMP JUMPDEST PUSH32 0x4E487B7100000000000000000000000000000000000000000000000000000000 PUSH1 0x0 MSTORE PUSH1 0x32 PUSH1 0x4 MSTORE PUSH1 0x24 PUSH1 0x0 REVERT JUMPDEST DUP1 DUP3 MUL DUP2 ISZERO DUP3 DUP3 DIV DUP5 EQ OR PUSH2 0x4FC JUMPI PUSH2 0x4FC PUSH2 0x1342 JUMP JUMPDEST DUP1 DUP3 ADD DUP1 DUP3 GT ISZERO PUSH2 0x4FC JUMPI PUSH2 0x4FC PUSH2 0x1342 JUMP JUMPDEST DUP2 DUP4 MSTORE PUSH1 0x0 PUSH32 0x7FFFFFFFFFFFFFFFFFFFFFFFFFFFFFFFFFFFFFFFFFFFFFFFFFFFFFFFFFFFFFF DUP4 GT ISZERO PUSH2 0x144A JUMPI PUSH1 0x0 DUP1 REVERT JUMPDEST DUP3 PUSH1 0x5 SHL DUP1 DUP4 PUSH1 0x20 DUP8 ADD CALLDATACOPY SWAP4 SWAP1 SWAP4 ADD PUSH1 0x20 ADD SWAP4 SWAP3 POP POP POP JUMP JUMPDEST PUSH20 0xFFFFFFFFFFFFFFFFFFFFFFFFFFFFFFFFFFFFFFFF DUP7 AND DUP2 MSTORE PUSH1 0x60 PUSH1 0x20 DUP3 ADD MSTORE PUSH1 0x0 PUSH2 0x1493 PUSH1 0x60 DUP4 ADD DUP7 DUP9 PUSH2 0x1418 JUMP JUMPDEST DUP3 DUP2 SUB PUSH1 0x40 DUP5 ADD MSTORE PUSH2 0x14A6 DUP2 DUP6 DUP8 PUSH2 0x1418 JUMP JUMPDEST SWAP9 SWAP8 POP POP POP POP POP POP POP POP JUMP JUMPDEST DUP8 DUP2 MSTORE PUSH1 0xA0 PUSH1 0x20 DUP3 ADD MSTORE PUSH1 0x0 PUSH2 0x14CC PUSH1 0xA0 DUP4 ADD DUP9 DUP11 PUSH2 0x1418 JUMP JUMPDEST DUP3 DUP2 SUB PUSH1 0x40 DUP5 ADD MSTORE PUSH2 0x14DF DUP2 DUP8 DUP10 PUSH2 0x1418 JUMP JUMPDEST PUSH1 0x60 DUP5 ADD SWAP6 SWAP1 SWAP6 MSTORE POP POP PUSH1 0x80 ADD MSTORE SWAP6 SWAP5 POP POP POP POP POP JUMP JUMPDEST PUSH32 0x4E487B7100000000000000000000000000000000000000000000000000000000 PUSH1 0x0 MSTORE PUSH1 0x41 PUSH1 0x4 MSTORE PUSH1 0x24 PUSH1 0x0 REVERT JUMPDEST PUSH1 0x0 DUP1 PUSH1 0x40 DUP4 DUP6 SUB SLT ISZERO PUSH2 0x1538 JUMPI PUSH1 0x0 DUP1 REVERT JUMPDEST DUP3 CALLDATALOAD PUSH8 0xFFFFFFFFFFFFFFFF DUP1 DUP3 GT ISZERO PUSH2 0x1550 JUMPI PUSH1 0x0 DUP1 REVERT JUMPDEST DUP2 DUP6 ADD SWAP2 POP DUP6 PUSH1 0x1F DUP4 ADD SLT PUSH2 0x1564 JUMPI PUSH1 0x0 DUP1 REVERT JUMPDEST DUP2 CALLDATALOAD PUSH1 0x20 DUP3 DUP3 GT ISZERO PUSH2 0x1578 JUMPI PUSH2 0x1578 PUSH2 0x14F6 JUMP JUMPDEST DUP2 PUSH1 0x5 SHL PUSH1 0x40 MLOAD PUSH32 0xFFFFFFFFFFFFFFFFFFFFFFFFFFFFFFFFFFFFFFFFFFFFFFFFFFFFFFFFFFFFFFE0 PUSH1 0x3F DUP4 ADD AND DUP2 ADD DUP2 DUP2 LT DUP7 DUP3 GT OR ISZERO PUSH2 0x15BB JUMPI PUSH2 0x15BB PUSH2 0x14F6 JUMP JUMPDEST PUSH1 0x40 MSTORE SWAP3 DUP4 MSTORE DUP2 DUP4 ADD SWAP4 POP DUP5 DUP2 ADD DUP3 ADD SWAP3 DUP10 DUP5 GT ISZERO PUSH2 0x15D9 JUMPI PUSH1 0x0 DUP1 REVERT JUMPDEST SWAP5 DUP3 ADD SWAP5 JUMPDEST DUP4 DUP7 LT ISZERO PUSH2 0x15F7 JUMPI DUP6 CALLDATALOAD DUP6 MSTORE SWAP5 DUP3 ADD SWAP5 SWAP4 DUP3 ADD SWAP4 PUSH2 0x15DE JUMP JUMPDEST SWAP10 SWAP8 SWAP1 SWAP2 ADD CALLDATALOAD SWAP8 POP POP POP POP POP POP POP JUMP INVALID LOG2 PUSH5 0x6970667358 0x22 SLT KECCAK256 JUMPI 0xF7 0xAE DUP8 PUSH2 0x7B41 0xD8 0xAC MULMOD PUSH12 0x5B382B8C4E7CDD474F915933 0xD9 0xAA EXTCODECOPY 0xA5 GASLIMIT MOD STATICCALL 0xFB BASEFEE PUSH5 0x736F6C6343 STOP ADDMOD AND STOP CALLER "},"gasEstimates":{"creation":{"codeDepositCost":"1138600","executionCost":"infinite","totalCost":"infinite"},"external":{"CYCLE_DURATION()":"infinite","DENOMINATOR()":"infinite","INITIAL_TIME()":"infinite","MAX_CYCLE()":"infinite","MERKLE_ROOT()":"infinite","MISSING_ORB()":"infinite","MISSING_ORB_TOKEN_ID()":"infinite","SOURCE_TOKEN()":"infinite","TOKEN_MULTIPLIER()":"infinite","currentCycle()":"infinite","forwarderRegistry()":"infinite","getMultiplierInfo(address)":"2631","isTrustedForwarder(address)":"infinite","leafConsumptionStatus(bytes32)":"2483","multiplierInfos(address)":"2552","onERC1155BatchReceived(address,address,uint256[],uint256[],bytes)":"infinite","onERC1155Received(address,address,uint256,uint256,bytes)":"infinite","setAnichessGameMultiplierNumerator(bytes32[],address,uint256)":"infinite","supportsInterface(bytes4)":"infinite","userAshByCycle(uint256,address)":"2693"},"internal":{"_msgData()":"infinite","_msgSender()":"infinite","_setAnichessGameMultiplierNumerator(bytes32[] memory,address,uint256,uint256)":"infinite","_setTokenWeights(uint256[] memory,uint256[] memory)":"infinite"}},"methodIdentifiers":{"CYCLE_DURATION()":"cd421fbf","DENOMINATOR()":"918f8674","INITIAL_TIME()":"491bde66","MAX_CYCLE()":"043063bc","MERKLE_ROOT()":"51e75e8b","MISSING_ORB()":"cd18a34f","MISSING_ORB_TOKEN_ID()":"1de0e40b","SOURCE_TOKEN()":"72d69aa0","TOKEN_MULTIPLIER()":"2b093fe9","currentCycle()":"bab2f552","forwarderRegistry()":"2b4c9f16","getMultiplierInfo(address)":"7e26d0cd","isTrustedForwarder(address)":"572b6c05","leafConsumptionStatus(bytes32)":"e1c96c20","multiplierInfos(address)":"b28fd6e6","onERC1155BatchReceived(address,address,uint256[],uint256[],bytes)":"bc197c81","onERC1155Received(address,address,uint256,uint256,bytes)":"f23a6e61","setAnichessGameMultiplierNumerator(bytes32[],address,uint256)":"24190c6e","supportsInterface(bytes4)":"01ffc9a7","userAshByCycle(uint256,address)":"fa9fdc6a"}},"storageLayout":{"storage":[{"astId":1914,"contract":"contracts/burn/AnichessOrbsBurnPool.sol:AnichessOrbsBurnPool","label":"totalAshByCycle","offset":0,"slot":"0","type":"t_mapping(t_uint256,t_uint256)"},{"astId":1921,"contract":"contracts/burn/AnichessOrbsBurnPool.sol:AnichessOrbsBurnPool","label":"userAshByCycle","offset":0,"slot":"1","type":"t_mapping(t_uint256,t_mapping(t_address,t_uint256))"},{"astId":1926,"contract":"contracts/burn/AnichessOrbsBurnPool.sol:AnichessOrbsBurnPool","label":"leafConsumptionStatus","offset":0,"slot":"2","type":"t_mapping(t_bytes32,t_bool)"},{"astId":1931,"contract":"contracts/burn/AnichessOrbsBurnPool.sol:AnichessOrbsBurnPool","label":"multiplierInfos","offset":0,"slot":"3","type":"t_mapping(t_address,t_uint256)"},{"astId":1936,"contract":"contracts/burn/AnichessOrbsBurnPool.sol:AnichessOrbsBurnPool","label":"tokenWeights","offset":0,"slot":"4","type":"t_mapping(t_uint256,t_uint256)"}],"types":{"t_address":{"encoding":"inplace","label":"address","numberOfBytes":"20"},"t_bool":{"encoding":"inplace","label":"bool","numberOfBytes":"1"},"t_bytes32":{"encoding":"inplace","label":"bytes32","numberOfBytes":"32"},"t_mapping(t_address,t_uint256)":{"encoding":"mapping","key":"t_address","label":"mapping(address => uint256)","numberOfBytes":"32","value":"t_uint256"},"t_mapping(t_bytes32,t_bool)":{"encoding":"mapping","key":"t_bytes32","label":"mapping(bytes32 => bool)","numberOfBytes":"32","value":"t_bool"},"t_mapping(t_uint256,t_mapping(t_address,t_uint256))":{"encoding":"mapping","key":"t_uint256","label":"mapping(uint256 => mapping(address => uint256))","numberOfBytes":"32","value":"t_mapping(t_address,t_uint256)"},"t_mapping(t_uint256,t_uint256)":{"encoding":"mapping","key":"t_uint256","label":"mapping(uint256 => uint256)","numberOfBytes":"32","value":"t_uint256"},"t_uint256":{"encoding":"inplace","label":"uint256","numberOfBytes":"32"}}},"userdoc":{"errors":{"AlreadySetAnichessGameMultiplierNumerator(address)":[{"notice":"Error thrown when the payout has already been claimed."}],"AlreadySetTokenWeight(uint256)":[{"notice":"Error thrown when the token weight is already set."}],"AlreadyUnlockedTokenMultiplier(address)":[{"notice":"Error thrown when the wallet already has the token multiplier unlocked."}],"IllegalInterfaceId()":[{"notice":"Thrown when setting the illegal interfaceId 0xffffffff."}],"InconsistentArrays()":[{"notice":"Error thrown when the array lengths are inconsistent."}],"InvalidCycle(uint256)":[{"notice":"Error thrown when the cycle is invalid."}],"InvalidProof()":[{"notice":"Error thrown when the proof is invalid."}],"InvalidToken()":[{"notice":"Error thrown when the token is not approved."}],"InvalidTokenAmount(uint256,uint256)":[{"notice":"Error thrown when the token amount is invalid."}],"InvalidTokenId(address,uint256)":[{"notice":"Error thrown when the token ID is invalid."}]},"events":{"AshGenerated(address,uint256,uint256,uint256[],uint256[],uint256,uint256)":{"notice":"Event emitted when ASHes are generated."},"UpdateMultiplierInfo(address,uint256,uint256)":{"notice":"Event emitted when the multiplier info is updated."}},"kind":"user","methods":{"CYCLE_DURATION()":{"notice":"The duration of each cycle."},"INITIAL_TIME()":{"notice":"The initial time of the contract."},"MAX_CYCLE()":{"notice":"The maximum cycle."},"MERKLE_ROOT()":{"notice":"The Merkle root for setting the anichess game multiplier."},"MISSING_ORB()":{"notice":"The IERC1155 erc1155 contract for unlocking the token multiplier."},"MISSING_ORB_TOKEN_ID()":{"notice":"The token ID for unlocking the token multiplier."},"SOURCE_TOKEN()":{"notice":"The IERC1155Burnable erc1155 contracts burn to generate ASH."},"TOKEN_MULTIPLIER()":{"notice":"The token multiplier."},"constructor":{"notice":"Constructor for the AnichessOrbsBurnPool contract."},"currentCycle()":{"notice":"Get the current cycle."},"isTrustedForwarder(address)":{"notice":"Checks whether a forwarder is trusted."},"leafConsumptionStatus(bytes32)":{"notice":"The merkle leaf consumption status for the anichess game multiplier."},"multiplierInfos(address)":{"notice":"The multiplier info for each user, first 128 bits are the anichess game multiplier numerator, last 128 bits are the token multiplier."},"onERC1155BatchReceived(address,address,uint256[],uint256[],bytes)":{"notice":"Burn the tokens and calculate the ash."},"onERC1155Received(address,address,uint256,uint256,bytes)":{"notice":"Unlock the token multiplier by burning the multiplier token."},"setAnichessGameMultiplierNumerator(bytes32[],address,uint256)":{"notice":"Set the AnichessGame multiplier"},"supportsInterface(bytes4)":{"notice":"Returns whether this contract implements a given interface."},"userAshByCycle(uint256,address)":{"notice":"The total amount of ASH generated by each user in each cycle."}},"version":1}}}}