{"contracts/mocks/merkleClaim/ERC1155ClaimWindowMerkleClaimMock.sol":{"ERC1155ClaimWindowMerkleClaimMock":{"abi":[{"inputs":[{"internalType":"uint256","name":"tokenId","type":"uint256"},{"internalType":"uint256","name":"mintSupply","type":"uint256"},{"internalType":"contract IERC1155Mintable","name":"rewardContract","type":"address"},{"internalType":"contract IForwarderRegistry","name":"forwarderRegistry","type":"address"}],"stateMutability":"nonpayable","type":"constructor"},{"inputs":[{"internalType":"bytes32","name":"epochId","type":"bytes32"},{"internalType":"address","name":"recipient","type":"address"}],"name":"AlreadyClaimed","type":"error"},{"inputs":[{"internalType":"bytes32","name":"epochId","type":"bytes32"}],"name":"EpochIdAlreadyExists","type":"error"},{"inputs":[{"internalType":"bytes32","name":"epochId","type":"bytes32"}],"name":"EpochIdNotExists","type":"error"},{"inputs":[],"name":"ExceededMintSupply","type":"error"},{"inputs":[],"name":"IllegalInterfaceId","type":"error"},{"inputs":[{"internalType":"uint256","name":"startTime","type":"uint256"},{"internalType":"uint256","name":"endTime","type":"uint256"},{"internalType":"uint256","name":"currentTime","type":"uint256"}],"name":"InvalidClaimWindow","type":"error"},{"inputs":[{"internalType":"bytes32","name":"epochId","type":"bytes32"},{"internalType":"address","name":"recipient","type":"address"}],"name":"InvalidProof","type":"error"},{"inputs":[{"internalType":"address","name":"account","type":"address"}],"name":"NotContractOwner","type":"error"},{"inputs":[{"internalType":"bytes32","name":"epochId","type":"bytes32"},{"internalType":"uint256","name":"currentTime","type":"uint256"}],"name":"OutOfClaimWindow","type":"error"},{"anonymous":false,"inputs":[{"indexed":true,"internalType":"address","name":"previousOwner","type":"address"},{"indexed":true,"internalType":"address","name":"newOwner","type":"address"}],"name":"OwnershipTransferred","type":"event"},{"anonymous":false,"inputs":[{"indexed":true,"internalType":"bytes32","name":"epochId","type":"bytes32"},{"indexed":true,"internalType":"address","name":"recipient","type":"address"},{"indexed":false,"internalType":"uint256","name":"id","type":"uint256"},{"indexed":false,"internalType":"uint256","name":"value","type":"uint256"}],"name":"PayoutClaimed","type":"event"},{"anonymous":false,"inputs":[{"indexed":true,"internalType":"bytes32","name":"epochId","type":"bytes32"},{"indexed":true,"internalType":"bytes32","name":"merkleRoot","type":"bytes32"},{"indexed":false,"internalType":"uint256","name":"startTime","type":"uint256"},{"indexed":false,"internalType":"uint256","name":"endTime","type":"uint256"}],"name":"SetEpochMerkleRoot","type":"event"},{"inputs":[],"name":"MINT_SUPPLY","outputs":[{"internalType":"uint256","name":"","type":"uint256"}],"stateMutability":"view","type":"function"},{"inputs":[],"name":"REWARD_CONTRACT","outputs":[{"internalType":"contract IERC1155Mintable","name":"","type":"address"}],"stateMutability":"view","type":"function"},{"inputs":[],"name":"TOKEN_ID","outputs":[{"internalType":"uint256","name":"","type":"uint256"}],"stateMutability":"view","type":"function"},{"inputs":[],"name":"__msgData","outputs":[{"internalType":"bytes","name":"","type":"bytes"}],"stateMutability":"view","type":"function"},{"inputs":[],"name":"__msgSender","outputs":[{"internalType":"address","name":"","type":"address"}],"stateMutability":"view","type":"function"},{"inputs":[{"internalType":"bytes32","name":"epochId","type":"bytes32"},{"internalType":"bytes32[]","name":"proof","type":"bytes32[]"},{"internalType":"address","name":"recipient","type":"address"}],"name":"claim","outputs":[],"stateMutability":"nonpayable","type":"function"},{"inputs":[{"internalType":"bytes32","name":"","type":"bytes32"}],"name":"claimStatus","outputs":[{"internalType":"bool","name":"","type":"bool"}],"stateMutability":"view","type":"function"},{"inputs":[{"internalType":"bytes32","name":"","type":"bytes32"}],"name":"claimWindows","outputs":[{"internalType":"bytes32","name":"merkleRoot","type":"bytes32"},{"internalType":"uint256","name":"startTime","type":"uint256"},{"internalType":"uint256","name":"endTime","type":"uint256"}],"stateMutability":"view","type":"function"},{"inputs":[],"name":"forwarderRegistry","outputs":[{"internalType":"contract IForwarderRegistry","name":"","type":"address"}],"stateMutability":"view","type":"function"},{"inputs":[{"internalType":"address","name":"forwarder","type":"address"}],"name":"isTrustedForwarder","outputs":[{"internalType":"bool","name":"","type":"bool"}],"stateMutability":"view","type":"function"},{"inputs":[],"name":"noOfTokensClaimed","outputs":[{"internalType":"uint256","name":"","type":"uint256"}],"stateMutability":"view","type":"function"},{"inputs":[],"name":"owner","outputs":[{"internalType":"address","name":"","type":"address"}],"stateMutability":"view","type":"function"},{"inputs":[{"internalType":"bytes32","name":"epochId","type":"bytes32"},{"internalType":"bytes32","name":"merkleRoot","type":"bytes32"},{"internalType":"uint256","name":"startTime","type":"uint256"},{"internalType":"uint256","name":"endTime","type":"uint256"}],"name":"setEpochMerkleRoot","outputs":[],"stateMutability":"nonpayable","type":"function"},{"inputs":[{"internalType":"bytes4","name":"interfaceId","type":"bytes4"}],"name":"supportsInterface","outputs":[{"internalType":"bool","name":"","type":"bool"}],"stateMutability":"view","type":"function"},{"inputs":[{"internalType":"address","name":"newOwner","type":"address"}],"name":"transferOwnership","outputs":[],"stateMutability":"nonpayable","type":"function"}],"devdoc":{"errors":{"NotContractOwner(address)":[{"params":{"account":"The account that was checked."}}]},"events":{"OwnershipTransferred(address,address)":{"params":{"newOwner":"the new contract owner.","previousOwner":"the previous contract owner."}}},"kind":"dev","methods":{"__msgData()":{"returns":{"_0":"The current msg.data value."}},"claim(bytes32,bytes32[],address)":{"details":"Throws if the claim window has not been set.Throws if the claim window is closed or has not yet opened.Throws if the proof provided for the claim is invalid.Throws if the payout has already been claimed.Throws if the number of tokens claimed exceeds the mint supply.","params":{"epochId":"The epoch ID for the claim.","proof":"The Merkle proof for the claim.","recipient":"The recipient of the payout."}},"isTrustedForwarder(address)":{"params":{"forwarder":"The forwarder to check."},"returns":{"_0":"True if `forwarder` is trusted, false if not."}},"owner()":{"returns":{"_0":"The address of the contract owner."}},"setEpochMerkleRoot(bytes32,bytes32,uint256,uint256)":{"details":"Reverts if the _msgSender() is not the owner.Reverts if the epoch ID has already been set.Emits a SetEpochMerkleRoot event.","params":{"endTime":"The end time of the claim window.","epochId":"The epoch ID for the claim.","merkleRoot":"The Merkle root of the claim.","startTime":"The start time of the claim window."}},"supportsInterface(bytes4)":{"details":"Note: This function call must use less than 30 000 gas.","params":{"interfaceId":"the interface identifier to test."},"returns":{"_0":"True if the interface is supported, false if `interfaceId` is `0xffffffff` or if the interface is not supported."}},"transferOwnership(address)":{"details":"Reverts if the sender is not the contract owner.Emits an {OwnershipTransferred} event if `newOwner` is different from the current contract owner.","params":{"newOwner":"The address of the new contract owner. Using the zero address means renouncing ownership."}}},"version":1},"evm":{"bytecode":{"linkReferences":{},"object":"6101006040523480156200001257600080fd5b506040516200147a3803806200147a8339810160408190526200003591620001d6565b6001600160a01b03811660805283838383336200005d81620000566200007f565b90620000b5565b505060c09290925260e0526001600160a01b031660a052506200024892505050565b600080620000af60017fc9ed16f33ab3a66c84bfd83099ccb2a8845871e2e1c1928f63797152f0fd54cd62000226565b92915050565b6001600160a01b038116156200010c5781546001600160a01b0319166001600160a01b03821690811783556040516000907f8be0079c531659141344cd1fd0a4f28419497f9722a3daafe3b4186f6b6457e0908290a35b6200012c6307f5828d60e41b60016200012462000130565b919062000160565b5050565b600080620000af60017fca9d3e17f264b0f3984e2634e94adb37fa3e6a8103f06aeae6fa59e21c769f5e62000226565b600160e01b6001600160e01b03198316016200018f576040516372c683bb60e01b815260040160405180910390fd5b6001600160e01b03199190911660009081526020929092526040909120805460ff1916911515919091179055565b6001600160a01b0381168114620001d357600080fd5b50565b60008060008060808587031215620001ed57600080fd5b845193506020850151925060408501516200020881620001bd565b60608601519092506200021b81620001bd565b939692955090935050565b81810381811115620000af57634e487b7160e01b600052601160045260246000fd5b60805160a05160c05160e0516111b9620002c16000396000818161024a01526106bb01526000818161020d01528181610795015261083201526000818161019901526107d2015260008181610139015281816101cb01528181610bf101528181610c7901528181610d2c0152610d6a01526111b96000f3fe608060405234801561001057600080fd5b50600436106100f55760003560e01c80638da5cb5b11610097578063dc45def611610066578063dc45def61461027d578063e3a0ce09146102c6578063eb02625c146102e9578063f2fde38b146102fc57600080fd5b80638da5cb5b1461023d5780639dfbcde814610245578063ba65912e1461026c578063d1a91ff21461027557600080fd5b806331e66e1e116100d357806331e66e1e1461017e5780633a5af33914610194578063572b6c05146101bb57806389a890021461020857600080fd5b806301ffc9a7146100fa5780630328a8fc146101225780632b4c9f1614610137575b600080fd5b61010d610108366004610f05565b61030f565b60405190151581526020015b60405180910390f35b610135610130366004610f47565b610329565b005b7f00000000000000000000000000000000000000000000000000000000000000005b60405173ffffffffffffffffffffffffffffffffffffffff9091168152602001610119565b610186610466565b604051610119929190610f79565b6101597f000000000000000000000000000000000000000000000000000000000000000081565b61010d6101c9366004610fef565b7f000000000000000000000000000000000000000000000000000000000000000073ffffffffffffffffffffffffffffffffffffffff90811691161490565b61022f7f000000000000000000000000000000000000000000000000000000000000000081565b604051908152602001610119565b610159610479565b61022f7f000000000000000000000000000000000000000000000000000000000000000081565b61022f60005481565b6101596104a5565b6102ab61028b36600461100a565b600160208190526000918252604090912080549181015460029091015483565b60408051938452602084019290925290820152606001610119565b61010d6102d436600461100a565b60026020526000908152604090205460ff1681565b6101356102f7366004611023565b6104af565b61013561030a366004610fef565b6108ab565b60006103238261031d6108c9565b906108f7565b92915050565b6103426103346109d1565b61033c6109db565b90610a09565b80821015806103515750428111155b1561039d576040517f790c7cef00000000000000000000000000000000000000000000000000000000815260048101839052602481018290524260448201526064015b60405180910390fd5b600084815260016020526040902054156103e6576040517fed10979d00000000000000000000000000000000000000000000000000000000815260048101859052602401610394565b604080516060810182528481526020808201858152828401858152600089815260018085529086902094518555915191840191909155516002909201919091558151848152908101839052849186917f91a4b7a2b4c6a1702be62e3b867cf7e4dbbd496a4707e8d66638d99b3946a8da910160405180910390a350505050565b366000610471610a78565b915091509091565b60006104a06104866109db565b5473ffffffffffffffffffffffffffffffffffffffff1690565b905090565b60006104a06109d1565b60008481526001602052604090208054806104f9576040517f84f229dc00000000000000000000000000000000000000000000000000000000815260048101879052602401610394565b816001015442108061050e5750816002015442115b1561054e576040517fdbeb4f4d00000000000000000000000000000000000000000000000000000000815260048101879052426024820152604401610394565b6000868460405160200161059192919091825260601b7fffffffffffffffffffffffffffffffffffffffff00000000000000000000000016602082015260340190565b6040516020818303038152906040528051906020012090506105eb8282888880806020026020016040519081016040528093929190818152602001838360200280828437600092019190915250929493925050610a839050565b610640576040517fa04a37c00000000000000000000000000000000000000000000000000000000081526004810188905273ffffffffffffffffffffffffffffffffffffffff85166024820152604401610394565b60008181526002602052604090205460ff16156106a8576040517fa8ca238e0000000000000000000000000000000000000000000000000000000081526004810188905273ffffffffffffffffffffffffffffffffffffffff85166024820152604401610394565b600080546106b79060016110e2565b90507f0000000000000000000000000000000000000000000000000000000000000000811115610713576040517f192d175500000000000000000000000000000000000000000000000000000000815260040160405180910390fd5b60008181558281526002602052604080822080547fffffffffffffffffffffffffffffffffffffffffffffffffffffffffffffff0016600190811790915590517f5cfa929700000000000000000000000000000000000000000000000000000000815273ffffffffffffffffffffffffffffffffffffffff88811660048301527f0000000000000000000000000000000000000000000000000000000000000000602483015260448201929092526080606482015260848101929092527f00000000000000000000000000000000000000000000000000000000000000001690635cfa92979060a401600060405180830381600087803b15801561081657600080fd5b505af115801561082a573d6000803e3d6000fd5b5050604080517f000000000000000000000000000000000000000000000000000000000000000081526001602082015273ffffffffffffffffffffffffffffffffffffffff891693508b92507fa68c079189004e3175c636199e3e4d2aae420ce461ed29f670552b3eba9d2a03910160405180910390a35050505050505050565b6108c66108b66109d1565b826108bf6109db565b9190610a99565b50565b60008061032360017fca9d3e17f264b0f3984e2634e94adb37fa3e6a8103f06aeae6fa59e21c769f5e6110f5565b60007c01000000000000000000000000000000000000000000000000000000007fffffffff0000000000000000000000000000000000000000000000000000000083160161094757506000610323565b7ffe003659000000000000000000000000000000000000000000000000000000007fffffffff0000000000000000000000000000000000000000000000000000000083160161099857506001610323565b507fffffffff00000000000000000000000000000000000000000000000000000000166000908152602091909152604090205460ff1690565b60006104a0610bae565b60008061032360017fc9ed16f33ab3a66c84bfd83099ccb2a8845871e2e1c1928f63797152f0fd54cd6110f5565b815473ffffffffffffffffffffffffffffffffffffffff828116911614610a74576040517f2ef4875e00000000000000000000000000000000000000000000000000000000815273ffffffffffffffffffffffffffffffffffffffff82166004820152602401610394565b5050565b366000610471610cf5565b600082610a908584610e5f565b14949350505050565b825473ffffffffffffffffffffffffffffffffffffffff9081169083168114610b06576040517f2ef4875e00000000000000000000000000000000000000000000000000000000815273ffffffffffffffffffffffffffffffffffffffff84166004820152602401610394565b8173ffffffffffffffffffffffffffffffffffffffff168173ffffffffffffffffffffffffffffffffffffffff1614610ba85783547fffffffffffffffffffffffff00000000000000000000000000000000000000001673ffffffffffffffffffffffffffffffffffffffff8381169182178655604051908316907f8be0079c531659141344cd1fd0a4f28419497f9722a3daafe3b4186f6b6457e090600090a35b50505050565b600033321480610bbe5750601836105b15610bc857503390565b7fffffffffffffffffffffffffffffffffffffffffffffffffffffffffffffffec36013560601c7f000000000000000000000000000000000000000000000000000000000000000073ffffffffffffffffffffffffffffffffffffffff16331480610ce457506040517f8929a8ca00000000000000000000000000000000000000000000000000000000815273ffffffffffffffffffffffffffffffffffffffff82811660048301523360248301527f00000000000000000000000000000000000000000000000000000000000000001690638929a8ca90604401602060405180830381865afa158015610cc0573d6000803e3d6000fd5b505050506040513d601f19601f82011682018060405250810190610ce49190611108565b15610cee57919050565b3391505090565b36600033321480610d065750601836105b15610d145750600091369150565b3373ffffffffffffffffffffffffffffffffffffffff7f0000000000000000000000000000000000000000000000000000000000000000161480610e49575073ffffffffffffffffffffffffffffffffffffffff7f000000000000000000000000000000000000000000000000000000000000000016638929a8ca367fffffffffffffffffffffffffffffffffffffffffffffffffffffffffffffffec013560601c6040517fffffffff0000000000000000000000000000000000000000000000000000000060e084901b16815273ffffffffffffffffffffffffffffffffffffffff9091166004820152336024820152604401602060405180830381865afa158015610e25573d6000803e3d6000fd5b505050506040513d601f19601f82011682018060405250810190610e499190611108565b15610e5657610471610ea2565b50600091369150565b600081815b8451811015610e9a57610e9082868381518110610e8357610e8361112a565b6020026020010151610ed3565b9150600101610e64565b509392505050565b3660006104717fffffffffffffffffffffffffffffffffffffffffffffffffffffffffffffffec8301828481611159565b6000818310610eef576000828152602084905260409020610efe565b60008381526020839052604090205b9392505050565b600060208284031215610f1757600080fd5b81357fffffffff0000000000000000000000000000000000000000000000000000000081168114610efe57600080fd5b60008060008060808587031215610f5d57600080fd5b5050823594602084013594506040840135936060013592509050565b60208152816020820152818360408301376000818301604090810191909152601f9092017fffffffffffffffffffffffffffffffffffffffffffffffffffffffffffffffe0160101919050565b803573ffffffffffffffffffffffffffffffffffffffff81168114610fea57600080fd5b919050565b60006020828403121561100157600080fd5b610efe82610fc6565b60006020828403121561101c57600080fd5b5035919050565b6000806000806060858703121561103957600080fd5b84359350602085013567ffffffffffffffff8082111561105857600080fd5b818701915087601f83011261106c57600080fd5b81358181111561107b57600080fd5b8860208260051b850101111561109057600080fd5b6020830195508094505050506110a860408601610fc6565b905092959194509250565b7f4e487b7100000000000000000000000000000000000000000000000000000000600052601160045260246000fd5b80820180821115610323576103236110b3565b81810381811115610323576103236110b3565b60006020828403121561111a57600080fd5b81518015158114610efe57600080fd5b7f4e487b7100000000000000000000000000000000000000000000000000000000600052603260045260246000fd5b6000808585111561116957600080fd5b8386111561117657600080fd5b505082019391909203915056fea264697066735822122033540a6706258ded053f39361ece5dc62e6820d795b71240a5222322a72e58d564736f6c63430008160033","opcodes":"PUSH2 0x100 PUSH1 0x40 MSTORE CALLVALUE DUP1 ISZERO PUSH3 0x12 JUMPI PUSH1 0x0 DUP1 REVERT JUMPDEST POP PUSH1 0x40 MLOAD PUSH3 0x147A CODESIZE SUB DUP1 PUSH3 0x147A DUP4 CODECOPY DUP2 ADD PUSH1 0x40 DUP2 SWAP1 MSTORE PUSH3 0x35 SWAP2 PUSH3 0x1D6 JUMP JUMPDEST PUSH1 0x1 PUSH1 0x1 PUSH1 0xA0 SHL SUB DUP2 AND PUSH1 0x80 MSTORE DUP4 DUP4 DUP4 DUP4 CALLER PUSH3 0x5D DUP2 PUSH3 0x56 PUSH3 0x7F JUMP JUMPDEST SWAP1 PUSH3 0xB5 JUMP JUMPDEST POP POP PUSH1 0xC0 SWAP3 SWAP1 SWAP3 MSTORE PUSH1 0xE0 MSTORE PUSH1 0x1 PUSH1 0x1 PUSH1 0xA0 SHL SUB AND PUSH1 0xA0 MSTORE POP PUSH3 0x248 SWAP3 POP POP POP JUMP JUMPDEST PUSH1 0x0 DUP1 PUSH3 0xAF PUSH1 0x1 PUSH32 0xC9ED16F33AB3A66C84BFD83099CCB2A8845871E2E1C1928F63797152F0FD54CD PUSH3 0x226 JUMP JUMPDEST SWAP3 SWAP2 POP POP JUMP JUMPDEST PUSH1 0x1 PUSH1 0x1 PUSH1 0xA0 SHL SUB DUP2 AND ISZERO PUSH3 0x10C JUMPI DUP2 SLOAD PUSH1 0x1 PUSH1 0x1 PUSH1 0xA0 SHL SUB NOT AND PUSH1 0x1 PUSH1 0x1 PUSH1 0xA0 SHL SUB DUP3 AND SWAP1 DUP2 OR DUP4 SSTORE PUSH1 0x40 MLOAD PUSH1 0x0 SWAP1 PUSH32 0x8BE0079C531659141344CD1FD0A4F28419497F9722A3DAAFE3B4186F6B6457E0 SWAP1 DUP3 SWAP1 LOG3 JUMPDEST PUSH3 0x12C PUSH4 0x7F5828D PUSH1 0xE4 SHL PUSH1 0x1 PUSH3 0x124 PUSH3 0x130 JUMP JUMPDEST SWAP2 SWAP1 PUSH3 0x160 JUMP JUMPDEST POP POP JUMP JUMPDEST PUSH1 0x0 DUP1 PUSH3 0xAF PUSH1 0x1 PUSH32 0xCA9D3E17F264B0F3984E2634E94ADB37FA3E6A8103F06AEAE6FA59E21C769F5E PUSH3 0x226 JUMP JUMPDEST PUSH1 0x1 PUSH1 0xE0 SHL PUSH1 0x1 PUSH1 0x1 PUSH1 0xE0 SHL SUB NOT DUP4 AND ADD PUSH3 0x18F JUMPI PUSH1 0x40 MLOAD PUSH4 0x72C683BB PUSH1 0xE0 SHL DUP2 MSTORE PUSH1 0x4 ADD PUSH1 0x40 MLOAD DUP1 SWAP2 SUB SWAP1 REVERT JUMPDEST PUSH1 0x1 PUSH1 0x1 PUSH1 0xE0 SHL SUB NOT SWAP2 SWAP1 SWAP2 AND PUSH1 0x0 SWAP1 DUP2 MSTORE PUSH1 0x20 SWAP3 SWAP1 SWAP3 MSTORE PUSH1 0x40 SWAP1 SWAP2 KECCAK256 DUP1 SLOAD PUSH1 0xFF NOT AND SWAP2 ISZERO ISZERO SWAP2 SWAP1 SWAP2 OR SWAP1 SSTORE JUMP JUMPDEST PUSH1 0x1 PUSH1 0x1 PUSH1 0xA0 SHL SUB DUP2 AND DUP2 EQ PUSH3 0x1D3 JUMPI PUSH1 0x0 DUP1 REVERT JUMPDEST POP JUMP JUMPDEST PUSH1 0x0 DUP1 PUSH1 0x0 DUP1 PUSH1 0x80 DUP6 DUP8 SUB SLT ISZERO PUSH3 0x1ED JUMPI PUSH1 0x0 DUP1 REVERT JUMPDEST DUP5 MLOAD SWAP4 POP PUSH1 0x20 DUP6 ADD MLOAD SWAP3 POP PUSH1 0x40 DUP6 ADD MLOAD PUSH3 0x208 DUP2 PUSH3 0x1BD JUMP JUMPDEST PUSH1 0x60 DUP7 ADD MLOAD SWAP1 SWAP3 POP PUSH3 0x21B DUP2 PUSH3 0x1BD JUMP JUMPDEST SWAP4 SWAP7 SWAP3 SWAP6 POP SWAP1 SWAP4 POP POP JUMP JUMPDEST DUP2 DUP2 SUB DUP2 DUP2 GT ISZERO PUSH3 0xAF JUMPI PUSH4 0x4E487B71 PUSH1 0xE0 SHL PUSH1 0x0 MSTORE PUSH1 0x11 PUSH1 0x4 MSTORE PUSH1 0x24 PUSH1 0x0 REVERT JUMPDEST PUSH1 0x80 MLOAD PUSH1 0xA0 MLOAD PUSH1 0xC0 MLOAD PUSH1 0xE0 MLOAD PUSH2 0x11B9 PUSH3 0x2C1 PUSH1 0x0 CODECOPY PUSH1 0x0 DUP2 DUP2 PUSH2 0x24A ADD MSTORE PUSH2 0x6BB ADD MSTORE PUSH1 0x0 DUP2 DUP2 PUSH2 0x20D ADD MSTORE DUP2 DUP2 PUSH2 0x795 ADD MSTORE PUSH2 0x832 ADD MSTORE PUSH1 0x0 DUP2 DUP2 PUSH2 0x199 ADD MSTORE PUSH2 0x7D2 ADD MSTORE PUSH1 0x0 DUP2 DUP2 PUSH2 0x139 ADD MSTORE DUP2 DUP2 PUSH2 0x1CB ADD MSTORE DUP2 DUP2 PUSH2 0xBF1 ADD MSTORE DUP2 DUP2 PUSH2 0xC79 ADD MSTORE DUP2 DUP2 PUSH2 0xD2C ADD MSTORE PUSH2 0xD6A ADD MSTORE PUSH2 0x11B9 PUSH1 0x0 RETURN INVALID PUSH1 0x80 PUSH1 0x40 MSTORE CALLVALUE DUP1 ISZERO PUSH2 0x10 JUMPI PUSH1 0x0 DUP1 REVERT JUMPDEST POP PUSH1 0x4 CALLDATASIZE LT PUSH2 0xF5 JUMPI PUSH1 0x0 CALLDATALOAD PUSH1 0xE0 SHR DUP1 PUSH4 0x8DA5CB5B GT PUSH2 0x97 JUMPI DUP1 PUSH4 0xDC45DEF6 GT PUSH2 0x66 JUMPI DUP1 PUSH4 0xDC45DEF6 EQ PUSH2 0x27D JUMPI DUP1 PUSH4 0xE3A0CE09 EQ PUSH2 0x2C6 JUMPI DUP1 PUSH4 0xEB02625C EQ PUSH2 0x2E9 JUMPI DUP1 PUSH4 0xF2FDE38B EQ PUSH2 0x2FC JUMPI PUSH1 0x0 DUP1 REVERT JUMPDEST DUP1 PUSH4 0x8DA5CB5B EQ PUSH2 0x23D JUMPI DUP1 PUSH4 0x9DFBCDE8 EQ PUSH2 0x245 JUMPI DUP1 PUSH4 0xBA65912E EQ PUSH2 0x26C JUMPI DUP1 PUSH4 0xD1A91FF2 EQ PUSH2 0x275 JUMPI PUSH1 0x0 DUP1 REVERT JUMPDEST DUP1 PUSH4 0x31E66E1E GT PUSH2 0xD3 JUMPI DUP1 PUSH4 0x31E66E1E EQ PUSH2 0x17E JUMPI DUP1 PUSH4 0x3A5AF339 EQ PUSH2 0x194 JUMPI DUP1 PUSH4 0x572B6C05 EQ PUSH2 0x1BB JUMPI DUP1 PUSH4 0x89A89002 EQ PUSH2 0x208 JUMPI PUSH1 0x0 DUP1 REVERT JUMPDEST DUP1 PUSH4 0x1FFC9A7 EQ PUSH2 0xFA JUMPI DUP1 PUSH4 0x328A8FC EQ PUSH2 0x122 JUMPI DUP1 PUSH4 0x2B4C9F16 EQ PUSH2 0x137 JUMPI JUMPDEST PUSH1 0x0 DUP1 REVERT JUMPDEST PUSH2 0x10D PUSH2 0x108 CALLDATASIZE PUSH1 0x4 PUSH2 0xF05 JUMP JUMPDEST PUSH2 0x30F JUMP JUMPDEST PUSH1 0x40 MLOAD SWAP1 ISZERO ISZERO DUP2 MSTORE PUSH1 0x20 ADD JUMPDEST PUSH1 0x40 MLOAD DUP1 SWAP2 SUB SWAP1 RETURN JUMPDEST PUSH2 0x135 PUSH2 0x130 CALLDATASIZE PUSH1 0x4 PUSH2 0xF47 JUMP JUMPDEST PUSH2 0x329 JUMP JUMPDEST STOP JUMPDEST PUSH32 0x0 JUMPDEST PUSH1 0x40 MLOAD PUSH20 0xFFFFFFFFFFFFFFFFFFFFFFFFFFFFFFFFFFFFFFFF SWAP1 SWAP2 AND DUP2 MSTORE PUSH1 0x20 ADD PUSH2 0x119 JUMP JUMPDEST PUSH2 0x186 PUSH2 0x466 JUMP JUMPDEST PUSH1 0x40 MLOAD PUSH2 0x119 SWAP3 SWAP2 SWAP1 PUSH2 0xF79 JUMP JUMPDEST PUSH2 0x159 PUSH32 0x0 DUP2 JUMP JUMPDEST PUSH2 0x10D PUSH2 0x1C9 CALLDATASIZE PUSH1 0x4 PUSH2 0xFEF JUMP JUMPDEST PUSH32 0x0 PUSH20 0xFFFFFFFFFFFFFFFFFFFFFFFFFFFFFFFFFFFFFFFF SWAP1 DUP2 AND SWAP2 AND EQ SWAP1 JUMP JUMPDEST PUSH2 0x22F PUSH32 0x0 DUP2 JUMP JUMPDEST PUSH1 0x40 MLOAD SWAP1 DUP2 MSTORE PUSH1 0x20 ADD PUSH2 0x119 JUMP JUMPDEST PUSH2 0x159 PUSH2 0x479 JUMP JUMPDEST PUSH2 0x22F PUSH32 0x0 DUP2 JUMP JUMPDEST PUSH2 0x22F PUSH1 0x0 SLOAD DUP2 JUMP JUMPDEST PUSH2 0x159 PUSH2 0x4A5 JUMP JUMPDEST PUSH2 0x2AB PUSH2 0x28B CALLDATASIZE PUSH1 0x4 PUSH2 0x100A JUMP JUMPDEST PUSH1 0x1 PUSH1 0x20 DUP2 SWAP1 MSTORE PUSH1 0x0 SWAP2 DUP3 MSTORE PUSH1 0x40 SWAP1 SWAP2 KECCAK256 DUP1 SLOAD SWAP2 DUP2 ADD SLOAD PUSH1 0x2 SWAP1 SWAP2 ADD SLOAD DUP4 JUMP JUMPDEST PUSH1 0x40 DUP1 MLOAD SWAP4 DUP5 MSTORE PUSH1 0x20 DUP5 ADD SWAP3 SWAP1 SWAP3 MSTORE SWAP1 DUP3 ADD MSTORE PUSH1 0x60 ADD PUSH2 0x119 JUMP JUMPDEST PUSH2 0x10D PUSH2 0x2D4 CALLDATASIZE PUSH1 0x4 PUSH2 0x100A JUMP JUMPDEST PUSH1 0x2 PUSH1 0x20 MSTORE PUSH1 0x0 SWAP1 DUP2 MSTORE PUSH1 0x40 SWAP1 KECCAK256 SLOAD PUSH1 0xFF AND DUP2 JUMP JUMPDEST PUSH2 0x135 PUSH2 0x2F7 CALLDATASIZE PUSH1 0x4 PUSH2 0x1023 JUMP JUMPDEST PUSH2 0x4AF JUMP JUMPDEST PUSH2 0x135 PUSH2 0x30A CALLDATASIZE PUSH1 0x4 PUSH2 0xFEF JUMP JUMPDEST PUSH2 0x8AB JUMP JUMPDEST PUSH1 0x0 PUSH2 0x323 DUP3 PUSH2 0x31D PUSH2 0x8C9 JUMP JUMPDEST SWAP1 PUSH2 0x8F7 JUMP JUMPDEST SWAP3 SWAP2 POP POP JUMP JUMPDEST PUSH2 0x342 PUSH2 0x334 PUSH2 0x9D1 JUMP JUMPDEST PUSH2 0x33C PUSH2 0x9DB JUMP JUMPDEST SWAP1 PUSH2 0xA09 JUMP JUMPDEST DUP1 DUP3 LT ISZERO DUP1 PUSH2 0x351 JUMPI POP TIMESTAMP DUP2 GT ISZERO JUMPDEST ISZERO PUSH2 0x39D JUMPI PUSH1 0x40 MLOAD PUSH32 0x790C7CEF00000000000000000000000000000000000000000000000000000000 DUP2 MSTORE PUSH1 0x4 DUP2 ADD DUP4 SWAP1 MSTORE PUSH1 0x24 DUP2 ADD DUP3 SWAP1 MSTORE TIMESTAMP PUSH1 0x44 DUP3 ADD MSTORE PUSH1 0x64 ADD JUMPDEST PUSH1 0x40 MLOAD DUP1 SWAP2 SUB SWAP1 REVERT JUMPDEST PUSH1 0x0 DUP5 DUP2 MSTORE PUSH1 0x1 PUSH1 0x20 MSTORE PUSH1 0x40 SWAP1 KECCAK256 SLOAD ISZERO PUSH2 0x3E6 JUMPI PUSH1 0x40 MLOAD PUSH32 0xED10979D00000000000000000000000000000000000000000000000000000000 DUP2 MSTORE PUSH1 0x4 DUP2 ADD DUP6 SWAP1 MSTORE PUSH1 0x24 ADD PUSH2 0x394 JUMP JUMPDEST PUSH1 0x40 DUP1 MLOAD PUSH1 0x60 DUP2 ADD DUP3 MSTORE DUP5 DUP2 MSTORE PUSH1 0x20 DUP1 DUP3 ADD DUP6 DUP2 MSTORE DUP3 DUP5 ADD DUP6 DUP2 MSTORE PUSH1 0x0 DUP10 DUP2 MSTORE PUSH1 0x1 DUP1 DUP6 MSTORE SWAP1 DUP7 SWAP1 KECCAK256 SWAP5 MLOAD DUP6 SSTORE SWAP2 MLOAD SWAP2 DUP5 ADD SWAP2 SWAP1 SWAP2 SSTORE MLOAD PUSH1 0x2 SWAP1 SWAP3 ADD SWAP2 SWAP1 SWAP2 SSTORE DUP2 MLOAD DUP5 DUP2 MSTORE SWAP1 DUP2 ADD DUP4 SWAP1 MSTORE DUP5 SWAP2 DUP7 SWAP2 PUSH32 0x91A4B7A2B4C6A1702BE62E3B867CF7E4DBBD496A4707E8D66638D99B3946A8DA SWAP2 ADD PUSH1 0x40 MLOAD DUP1 SWAP2 SUB SWAP1 LOG3 POP POP POP POP JUMP JUMPDEST CALLDATASIZE PUSH1 0x0 PUSH2 0x471 PUSH2 0xA78 JUMP JUMPDEST SWAP2 POP SWAP2 POP SWAP1 SWAP2 JUMP JUMPDEST PUSH1 0x0 PUSH2 0x4A0 PUSH2 0x486 PUSH2 0x9DB JUMP JUMPDEST SLOAD PUSH20 0xFFFFFFFFFFFFFFFFFFFFFFFFFFFFFFFFFFFFFFFF AND SWAP1 JUMP JUMPDEST SWAP1 POP SWAP1 JUMP JUMPDEST PUSH1 0x0 PUSH2 0x4A0 PUSH2 0x9D1 JUMP JUMPDEST PUSH1 0x0 DUP5 DUP2 MSTORE PUSH1 0x1 PUSH1 0x20 MSTORE PUSH1 0x40 SWAP1 KECCAK256 DUP1 SLOAD DUP1 PUSH2 0x4F9 JUMPI PUSH1 0x40 MLOAD PUSH32 0x84F229DC00000000000000000000000000000000000000000000000000000000 DUP2 MSTORE PUSH1 0x4 DUP2 ADD DUP8 SWAP1 MSTORE PUSH1 0x24 ADD PUSH2 0x394 JUMP JUMPDEST DUP2 PUSH1 0x1 ADD SLOAD TIMESTAMP LT DUP1 PUSH2 0x50E JUMPI POP DUP2 PUSH1 0x2 ADD SLOAD TIMESTAMP GT JUMPDEST ISZERO PUSH2 0x54E JUMPI PUSH1 0x40 MLOAD PUSH32 0xDBEB4F4D00000000000000000000000000000000000000000000000000000000 DUP2 MSTORE PUSH1 0x4 DUP2 ADD DUP8 SWAP1 MSTORE TIMESTAMP PUSH1 0x24 DUP3 ADD MSTORE PUSH1 0x44 ADD PUSH2 0x394 JUMP JUMPDEST PUSH1 0x0 DUP7 DUP5 PUSH1 0x40 MLOAD PUSH1 0x20 ADD PUSH2 0x591 SWAP3 SWAP2 SWAP1 SWAP2 DUP3 MSTORE PUSH1 0x60 SHL PUSH32 0xFFFFFFFFFFFFFFFFFFFFFFFFFFFFFFFFFFFFFFFF000000000000000000000000 AND PUSH1 0x20 DUP3 ADD MSTORE PUSH1 0x34 ADD SWAP1 JUMP JUMPDEST PUSH1 0x40 MLOAD PUSH1 0x20 DUP2 DUP4 SUB SUB DUP2 MSTORE SWAP1 PUSH1 0x40 MSTORE DUP1 MLOAD SWAP1 PUSH1 0x20 ADD KECCAK256 SWAP1 POP PUSH2 0x5EB DUP3 DUP3 DUP9 DUP9 DUP1 DUP1 PUSH1 0x20 MUL PUSH1 0x20 ADD PUSH1 0x40 MLOAD SWAP1 DUP2 ADD PUSH1 0x40 MSTORE DUP1 SWAP4 SWAP3 SWAP2 SWAP1 DUP2 DUP2 MSTORE PUSH1 0x20 ADD DUP4 DUP4 PUSH1 0x20 MUL DUP1 DUP3 DUP5 CALLDATACOPY PUSH1 0x0 SWAP3 ADD SWAP2 SWAP1 SWAP2 MSTORE POP SWAP3 SWAP5 SWAP4 SWAP3 POP POP PUSH2 0xA83 SWAP1 POP JUMP JUMPDEST PUSH2 0x640 JUMPI PUSH1 0x40 MLOAD PUSH32 0xA04A37C000000000000000000000000000000000000000000000000000000000 DUP2 MSTORE PUSH1 0x4 DUP2 ADD DUP9 SWAP1 MSTORE PUSH20 0xFFFFFFFFFFFFFFFFFFFFFFFFFFFFFFFFFFFFFFFF DUP6 AND PUSH1 0x24 DUP3 ADD MSTORE PUSH1 0x44 ADD PUSH2 0x394 JUMP JUMPDEST PUSH1 0x0 DUP2 DUP2 MSTORE PUSH1 0x2 PUSH1 0x20 MSTORE PUSH1 0x40 SWAP1 KECCAK256 SLOAD PUSH1 0xFF AND ISZERO PUSH2 0x6A8 JUMPI PUSH1 0x40 MLOAD PUSH32 0xA8CA238E00000000000000000000000000000000000000000000000000000000 DUP2 MSTORE PUSH1 0x4 DUP2 ADD DUP9 SWAP1 MSTORE PUSH20 0xFFFFFFFFFFFFFFFFFFFFFFFFFFFFFFFFFFFFFFFF DUP6 AND PUSH1 0x24 DUP3 ADD MSTORE PUSH1 0x44 ADD PUSH2 0x394 JUMP JUMPDEST PUSH1 0x0 DUP1 SLOAD PUSH2 0x6B7 SWAP1 PUSH1 0x1 PUSH2 0x10E2 JUMP JUMPDEST SWAP1 POP PUSH32 0x0 DUP2 GT ISZERO PUSH2 0x713 JUMPI PUSH1 0x40 MLOAD PUSH32 0x192D175500000000000000000000000000000000000000000000000000000000 DUP2 MSTORE PUSH1 0x4 ADD PUSH1 0x40 MLOAD DUP1 SWAP2 SUB SWAP1 REVERT JUMPDEST PUSH1 0x0 DUP2 DUP2 SSTORE DUP3 DUP2 MSTORE PUSH1 0x2 PUSH1 0x20 MSTORE PUSH1 0x40 DUP1 DUP3 KECCAK256 DUP1 SLOAD PUSH32 0xFFFFFFFFFFFFFFFFFFFFFFFFFFFFFFFFFFFFFFFFFFFFFFFFFFFFFFFFFFFFFF00 AND PUSH1 0x1 SWAP1 DUP2 OR SWAP1 SWAP2 SSTORE SWAP1 MLOAD PUSH32 0x5CFA929700000000000000000000000000000000000000000000000000000000 DUP2 MSTORE PUSH20 0xFFFFFFFFFFFFFFFFFFFFFFFFFFFFFFFFFFFFFFFF DUP9 DUP2 AND PUSH1 0x4 DUP4 ADD MSTORE PUSH32 0x0 PUSH1 0x24 DUP4 ADD MSTORE PUSH1 0x44 DUP3 ADD SWAP3 SWAP1 SWAP3 MSTORE PUSH1 0x80 PUSH1 0x64 DUP3 ADD MSTORE PUSH1 0x84 DUP2 ADD SWAP3 SWAP1 SWAP3 MSTORE PUSH32 0x0 AND SWAP1 PUSH4 0x5CFA9297 SWAP1 PUSH1 0xA4 ADD PUSH1 0x0 PUSH1 0x40 MLOAD DUP1 DUP4 SUB DUP2 PUSH1 0x0 DUP8 DUP1 EXTCODESIZE ISZERO DUP1 ISZERO PUSH2 0x816 JUMPI PUSH1 0x0 DUP1 REVERT JUMPDEST POP GAS CALL ISZERO DUP1 ISZERO PUSH2 0x82A JUMPI RETURNDATASIZE PUSH1 0x0 DUP1 RETURNDATACOPY RETURNDATASIZE PUSH1 0x0 REVERT JUMPDEST POP POP PUSH1 0x40 DUP1 MLOAD PUSH32 0x0 DUP2 MSTORE PUSH1 0x1 PUSH1 0x20 DUP3 ADD MSTORE PUSH20 0xFFFFFFFFFFFFFFFFFFFFFFFFFFFFFFFFFFFFFFFF DUP10 AND SWAP4 POP DUP12 SWAP3 POP PUSH32 0xA68C079189004E3175C636199E3E4D2AAE420CE461ED29F670552B3EBA9D2A03 SWAP2 ADD PUSH1 0x40 MLOAD DUP1 SWAP2 SUB SWAP1 LOG3 POP POP POP POP POP POP POP POP JUMP JUMPDEST PUSH2 0x8C6 PUSH2 0x8B6 PUSH2 0x9D1 JUMP JUMPDEST DUP3 PUSH2 0x8BF PUSH2 0x9DB JUMP JUMPDEST SWAP2 SWAP1 PUSH2 0xA99 JUMP JUMPDEST POP JUMP JUMPDEST PUSH1 0x0 DUP1 PUSH2 0x323 PUSH1 0x1 PUSH32 0xCA9D3E17F264B0F3984E2634E94ADB37FA3E6A8103F06AEAE6FA59E21C769F5E PUSH2 0x10F5 JUMP JUMPDEST PUSH1 0x0 PUSH29 0x100000000000000000000000000000000000000000000000000000000 PUSH32 0xFFFFFFFF00000000000000000000000000000000000000000000000000000000 DUP4 AND ADD PUSH2 0x947 JUMPI POP PUSH1 0x0 PUSH2 0x323 JUMP JUMPDEST PUSH32 0xFE00365900000000000000000000000000000000000000000000000000000000 PUSH32 0xFFFFFFFF00000000000000000000000000000000000000000000000000000000 DUP4 AND ADD PUSH2 0x998 JUMPI POP PUSH1 0x1 PUSH2 0x323 JUMP JUMPDEST POP PUSH32 0xFFFFFFFF00000000000000000000000000000000000000000000000000000000 AND PUSH1 0x0 SWAP1 DUP2 MSTORE PUSH1 0x20 SWAP2 SWAP1 SWAP2 MSTORE PUSH1 0x40 SWAP1 KECCAK256 SLOAD PUSH1 0xFF AND SWAP1 JUMP JUMPDEST PUSH1 0x0 PUSH2 0x4A0 PUSH2 0xBAE JUMP JUMPDEST PUSH1 0x0 DUP1 PUSH2 0x323 PUSH1 0x1 PUSH32 0xC9ED16F33AB3A66C84BFD83099CCB2A8845871E2E1C1928F63797152F0FD54CD PUSH2 0x10F5 JUMP JUMPDEST DUP2 SLOAD PUSH20 0xFFFFFFFFFFFFFFFFFFFFFFFFFFFFFFFFFFFFFFFF DUP3 DUP2 AND SWAP2 AND EQ PUSH2 0xA74 JUMPI PUSH1 0x40 MLOAD PUSH32 0x2EF4875E00000000000000000000000000000000000000000000000000000000 DUP2 MSTORE PUSH20 0xFFFFFFFFFFFFFFFFFFFFFFFFFFFFFFFFFFFFFFFF DUP3 AND PUSH1 0x4 DUP3 ADD MSTORE PUSH1 0x24 ADD PUSH2 0x394 JUMP JUMPDEST POP POP JUMP JUMPDEST CALLDATASIZE PUSH1 0x0 PUSH2 0x471 PUSH2 0xCF5 JUMP JUMPDEST PUSH1 0x0 DUP3 PUSH2 0xA90 DUP6 DUP5 PUSH2 0xE5F JUMP JUMPDEST EQ SWAP5 SWAP4 POP POP POP POP JUMP JUMPDEST DUP3 SLOAD PUSH20 0xFFFFFFFFFFFFFFFFFFFFFFFFFFFFFFFFFFFFFFFF SWAP1 DUP2 AND SWAP1 DUP4 AND DUP2 EQ PUSH2 0xB06 JUMPI PUSH1 0x40 MLOAD PUSH32 0x2EF4875E00000000000000000000000000000000000000000000000000000000 DUP2 MSTORE PUSH20 0xFFFFFFFFFFFFFFFFFFFFFFFFFFFFFFFFFFFFFFFF DUP5 AND PUSH1 0x4 DUP3 ADD MSTORE PUSH1 0x24 ADD PUSH2 0x394 JUMP JUMPDEST DUP2 PUSH20 0xFFFFFFFFFFFFFFFFFFFFFFFFFFFFFFFFFFFFFFFF AND DUP2 PUSH20 0xFFFFFFFFFFFFFFFFFFFFFFFFFFFFFFFFFFFFFFFF AND EQ PUSH2 0xBA8 JUMPI DUP4 SLOAD PUSH32 0xFFFFFFFFFFFFFFFFFFFFFFFF0000000000000000000000000000000000000000 AND PUSH20 0xFFFFFFFFFFFFFFFFFFFFFFFFFFFFFFFFFFFFFFFF DUP4 DUP2 AND SWAP2 DUP3 OR DUP7 SSTORE PUSH1 0x40 MLOAD SWAP1 DUP4 AND SWAP1 PUSH32 0x8BE0079C531659141344CD1FD0A4F28419497F9722A3DAAFE3B4186F6B6457E0 SWAP1 PUSH1 0x0 SWAP1 LOG3 JUMPDEST POP POP POP POP JUMP JUMPDEST PUSH1 0x0 CALLER ORIGIN EQ DUP1 PUSH2 0xBBE JUMPI POP PUSH1 0x18 CALLDATASIZE LT JUMPDEST ISZERO PUSH2 0xBC8 JUMPI POP CALLER SWAP1 JUMP JUMPDEST PUSH32 0xFFFFFFFFFFFFFFFFFFFFFFFFFFFFFFFFFFFFFFFFFFFFFFFFFFFFFFFFFFFFFFEC CALLDATASIZE ADD CALLDATALOAD PUSH1 0x60 SHR PUSH32 0x0 PUSH20 0xFFFFFFFFFFFFFFFFFFFFFFFFFFFFFFFFFFFFFFFF AND CALLER EQ DUP1 PUSH2 0xCE4 JUMPI POP PUSH1 0x40 MLOAD PUSH32 0x8929A8CA00000000000000000000000000000000000000000000000000000000 DUP2 MSTORE PUSH20 0xFFFFFFFFFFFFFFFFFFFFFFFFFFFFFFFFFFFFFFFF DUP3 DUP2 AND PUSH1 0x4 DUP4 ADD MSTORE CALLER PUSH1 0x24 DUP4 ADD MSTORE PUSH32 0x0 AND SWAP1 PUSH4 0x8929A8CA SWAP1 PUSH1 0x44 ADD PUSH1 0x20 PUSH1 0x40 MLOAD DUP1 DUP4 SUB DUP2 DUP7 GAS STATICCALL ISZERO DUP1 ISZERO PUSH2 0xCC0 JUMPI RETURNDATASIZE PUSH1 0x0 DUP1 RETURNDATACOPY RETURNDATASIZE PUSH1 0x0 REVERT JUMPDEST POP POP POP POP PUSH1 0x40 MLOAD RETURNDATASIZE PUSH1 0x1F NOT PUSH1 0x1F DUP3 ADD AND DUP3 ADD DUP1 PUSH1 0x40 MSTORE POP DUP2 ADD SWAP1 PUSH2 0xCE4 SWAP2 SWAP1 PUSH2 0x1108 JUMP JUMPDEST ISZERO PUSH2 0xCEE JUMPI SWAP2 SWAP1 POP JUMP JUMPDEST CALLER SWAP2 POP POP SWAP1 JUMP JUMPDEST CALLDATASIZE PUSH1 0x0 CALLER ORIGIN EQ DUP1 PUSH2 0xD06 JUMPI POP PUSH1 0x18 CALLDATASIZE LT JUMPDEST ISZERO PUSH2 0xD14 JUMPI POP PUSH1 0x0 SWAP2 CALLDATASIZE SWAP2 POP JUMP JUMPDEST CALLER PUSH20 0xFFFFFFFFFFFFFFFFFFFFFFFFFFFFFFFFFFFFFFFF PUSH32 0x0 AND EQ DUP1 PUSH2 0xE49 JUMPI POP PUSH20 0xFFFFFFFFFFFFFFFFFFFFFFFFFFFFFFFFFFFFFFFF PUSH32 0x0 AND PUSH4 0x8929A8CA CALLDATASIZE PUSH32 0xFFFFFFFFFFFFFFFFFFFFFFFFFFFFFFFFFFFFFFFFFFFFFFFFFFFFFFFFFFFFFFEC ADD CALLDATALOAD PUSH1 0x60 SHR PUSH1 0x40 MLOAD PUSH32 0xFFFFFFFF00000000000000000000000000000000000000000000000000000000 PUSH1 0xE0 DUP5 SWAP1 SHL AND DUP2 MSTORE PUSH20 0xFFFFFFFFFFFFFFFFFFFFFFFFFFFFFFFFFFFFFFFF SWAP1 SWAP2 AND PUSH1 0x4 DUP3 ADD MSTORE CALLER PUSH1 0x24 DUP3 ADD MSTORE PUSH1 0x44 ADD PUSH1 0x20 PUSH1 0x40 MLOAD DUP1 DUP4 SUB DUP2 DUP7 GAS STATICCALL ISZERO DUP1 ISZERO PUSH2 0xE25 JUMPI RETURNDATASIZE PUSH1 0x0 DUP1 RETURNDATACOPY RETURNDATASIZE PUSH1 0x0 REVERT JUMPDEST POP POP POP POP PUSH1 0x40 MLOAD RETURNDATASIZE PUSH1 0x1F NOT PUSH1 0x1F DUP3 ADD AND DUP3 ADD DUP1 PUSH1 0x40 MSTORE POP DUP2 ADD SWAP1 PUSH2 0xE49 SWAP2 SWAP1 PUSH2 0x1108 JUMP JUMPDEST ISZERO PUSH2 0xE56 JUMPI PUSH2 0x471 PUSH2 0xEA2 JUMP JUMPDEST POP PUSH1 0x0 SWAP2 CALLDATASIZE SWAP2 POP JUMP JUMPDEST PUSH1 0x0 DUP2 DUP2 JUMPDEST DUP5 MLOAD DUP2 LT ISZERO PUSH2 0xE9A JUMPI PUSH2 0xE90 DUP3 DUP7 DUP4 DUP2 MLOAD DUP2 LT PUSH2 0xE83 JUMPI PUSH2 0xE83 PUSH2 0x112A JUMP JUMPDEST PUSH1 0x20 MUL PUSH1 0x20 ADD ADD MLOAD PUSH2 0xED3 JUMP JUMPDEST SWAP2 POP PUSH1 0x1 ADD PUSH2 0xE64 JUMP JUMPDEST POP SWAP4 SWAP3 POP POP POP JUMP JUMPDEST CALLDATASIZE PUSH1 0x0 PUSH2 0x471 PUSH32 0xFFFFFFFFFFFFFFFFFFFFFFFFFFFFFFFFFFFFFFFFFFFFFFFFFFFFFFFFFFFFFFEC DUP4 ADD DUP3 DUP5 DUP2 PUSH2 0x1159 JUMP JUMPDEST PUSH1 0x0 DUP2 DUP4 LT PUSH2 0xEEF JUMPI PUSH1 0x0 DUP3 DUP2 MSTORE PUSH1 0x20 DUP5 SWAP1 MSTORE PUSH1 0x40 SWAP1 KECCAK256 PUSH2 0xEFE JUMP JUMPDEST PUSH1 0x0 DUP4 DUP2 MSTORE PUSH1 0x20 DUP4 SWAP1 MSTORE PUSH1 0x40 SWAP1 KECCAK256 JUMPDEST SWAP4 SWAP3 POP POP POP JUMP JUMPDEST PUSH1 0x0 PUSH1 0x20 DUP3 DUP5 SUB SLT ISZERO PUSH2 0xF17 JUMPI PUSH1 0x0 DUP1 REVERT JUMPDEST DUP2 CALLDATALOAD PUSH32 0xFFFFFFFF00000000000000000000000000000000000000000000000000000000 DUP2 AND DUP2 EQ PUSH2 0xEFE JUMPI PUSH1 0x0 DUP1 REVERT JUMPDEST PUSH1 0x0 DUP1 PUSH1 0x0 DUP1 PUSH1 0x80 DUP6 DUP8 SUB SLT ISZERO PUSH2 0xF5D JUMPI PUSH1 0x0 DUP1 REVERT JUMPDEST POP POP DUP3 CALLDATALOAD SWAP5 PUSH1 0x20 DUP5 ADD CALLDATALOAD SWAP5 POP PUSH1 0x40 DUP5 ADD CALLDATALOAD SWAP4 PUSH1 0x60 ADD CALLDATALOAD SWAP3 POP SWAP1 POP JUMP JUMPDEST PUSH1 0x20 DUP2 MSTORE DUP2 PUSH1 0x20 DUP3 ADD MSTORE DUP2 DUP4 PUSH1 0x40 DUP4 ADD CALLDATACOPY PUSH1 0x0 DUP2 DUP4 ADD PUSH1 0x40 SWAP1 DUP2 ADD SWAP2 SWAP1 SWAP2 MSTORE PUSH1 0x1F SWAP1 SWAP3 ADD PUSH32 0xFFFFFFFFFFFFFFFFFFFFFFFFFFFFFFFFFFFFFFFFFFFFFFFFFFFFFFFFFFFFFFE0 AND ADD ADD SWAP2 SWAP1 POP JUMP JUMPDEST DUP1 CALLDATALOAD PUSH20 0xFFFFFFFFFFFFFFFFFFFFFFFFFFFFFFFFFFFFFFFF DUP2 AND DUP2 EQ PUSH2 0xFEA JUMPI PUSH1 0x0 DUP1 REVERT JUMPDEST SWAP2 SWAP1 POP JUMP JUMPDEST PUSH1 0x0 PUSH1 0x20 DUP3 DUP5 SUB SLT ISZERO PUSH2 0x1001 JUMPI PUSH1 0x0 DUP1 REVERT JUMPDEST PUSH2 0xEFE DUP3 PUSH2 0xFC6 JUMP JUMPDEST PUSH1 0x0 PUSH1 0x20 DUP3 DUP5 SUB SLT ISZERO PUSH2 0x101C JUMPI PUSH1 0x0 DUP1 REVERT JUMPDEST POP CALLDATALOAD SWAP2 SWAP1 POP JUMP JUMPDEST PUSH1 0x0 DUP1 PUSH1 0x0 DUP1 PUSH1 0x60 DUP6 DUP8 SUB SLT ISZERO PUSH2 0x1039 JUMPI PUSH1 0x0 DUP1 REVERT JUMPDEST DUP5 CALLDATALOAD SWAP4 POP PUSH1 0x20 DUP6 ADD CALLDATALOAD PUSH8 0xFFFFFFFFFFFFFFFF DUP1 DUP3 GT ISZERO PUSH2 0x1058 JUMPI PUSH1 0x0 DUP1 REVERT JUMPDEST DUP2 DUP8 ADD SWAP2 POP DUP8 PUSH1 0x1F DUP4 ADD SLT PUSH2 0x106C JUMPI PUSH1 0x0 DUP1 REVERT JUMPDEST DUP2 CALLDATALOAD DUP2 DUP2 GT ISZERO PUSH2 0x107B JUMPI PUSH1 0x0 DUP1 REVERT JUMPDEST DUP9 PUSH1 0x20 DUP3 PUSH1 0x5 SHL DUP6 ADD ADD GT ISZERO PUSH2 0x1090 JUMPI PUSH1 0x0 DUP1 REVERT JUMPDEST PUSH1 0x20 DUP4 ADD SWAP6 POP DUP1 SWAP5 POP POP POP POP PUSH2 0x10A8 PUSH1 0x40 DUP7 ADD PUSH2 0xFC6 JUMP JUMPDEST SWAP1 POP SWAP3 SWAP6 SWAP2 SWAP5 POP SWAP3 POP JUMP JUMPDEST PUSH32 0x4E487B7100000000000000000000000000000000000000000000000000000000 PUSH1 0x0 MSTORE PUSH1 0x11 PUSH1 0x4 MSTORE PUSH1 0x24 PUSH1 0x0 REVERT JUMPDEST DUP1 DUP3 ADD DUP1 DUP3 GT ISZERO PUSH2 0x323 JUMPI PUSH2 0x323 PUSH2 0x10B3 JUMP JUMPDEST DUP2 DUP2 SUB DUP2 DUP2 GT ISZERO PUSH2 0x323 JUMPI PUSH2 0x323 PUSH2 0x10B3 JUMP JUMPDEST PUSH1 0x0 PUSH1 0x20 DUP3 DUP5 SUB SLT ISZERO PUSH2 0x111A JUMPI PUSH1 0x0 DUP1 REVERT JUMPDEST DUP2 MLOAD DUP1 ISZERO ISZERO DUP2 EQ PUSH2 0xEFE JUMPI PUSH1 0x0 DUP1 REVERT JUMPDEST PUSH32 0x4E487B7100000000000000000000000000000000000000000000000000000000 PUSH1 0x0 MSTORE PUSH1 0x32 PUSH1 0x4 MSTORE PUSH1 0x24 PUSH1 0x0 REVERT JUMPDEST PUSH1 0x0 DUP1 DUP6 DUP6 GT ISZERO PUSH2 0x1169 JUMPI PUSH1 0x0 DUP1 REVERT JUMPDEST DUP4 DUP7 GT ISZERO PUSH2 0x1176 JUMPI PUSH1 0x0 DUP1 REVERT JUMPDEST POP POP DUP3 ADD SWAP4 SWAP2 SWAP1 SWAP3 SUB SWAP2 POP JUMP INVALID LOG2 PUSH5 0x6970667358 0x22 SLT KECCAK256 CALLER SLOAD EXP PUSH8 0x6258DED053F3936 0x1E 0xCE 0x5D 0xC6 0x2E PUSH9 0x20D795B71240A52223 0x22 0xA7 0x2E PC 0xD5 PUSH5 0x736F6C6343 STOP ADDMOD AND STOP CALLER "},"gasEstimates":{"creation":{"codeDepositCost":"907400","executionCost":"infinite","totalCost":"infinite"},"external":{"MINT_SUPPLY()":"infinite","REWARD_CONTRACT()":"infinite","TOKEN_ID()":"infinite","__msgData()":"infinite","__msgSender()":"infinite","claim(bytes32,bytes32[],address)":"infinite","claimStatus(bytes32)":"2483","claimWindows(bytes32)":"6735","forwarderRegistry()":"infinite","isTrustedForwarder(address)":"infinite","noOfTokensClaimed()":"2362","owner()":"infinite","setEpochMerkleRoot(bytes32,bytes32,uint256,uint256)":"infinite","supportsInterface(bytes4)":"infinite","transferOwnership(address)":"infinite"}},"methodIdentifiers":{"MINT_SUPPLY()":"9dfbcde8","REWARD_CONTRACT()":"3a5af339","TOKEN_ID()":"89a89002","__msgData()":"31e66e1e","__msgSender()":"d1a91ff2","claim(bytes32,bytes32[],address)":"eb02625c","claimStatus(bytes32)":"e3a0ce09","claimWindows(bytes32)":"dc45def6","forwarderRegistry()":"2b4c9f16","isTrustedForwarder(address)":"572b6c05","noOfTokensClaimed()":"ba65912e","owner()":"8da5cb5b","setEpochMerkleRoot(bytes32,bytes32,uint256,uint256)":"0328a8fc","supportsInterface(bytes4)":"01ffc9a7","transferOwnership(address)":"f2fde38b"}},"storageLayout":{"storage":[{"astId":2659,"contract":"contracts/mocks/merkleClaim/ERC1155ClaimWindowMerkleClaimMock.sol:ERC1155ClaimWindowMerkleClaimMock","label":"noOfTokensClaimed","offset":0,"slot":"0","type":"t_uint256"},{"astId":2665,"contract":"contracts/mocks/merkleClaim/ERC1155ClaimWindowMerkleClaimMock.sol:ERC1155ClaimWindowMerkleClaimMock","label":"claimWindows","offset":0,"slot":"1","type":"t_mapping(t_bytes32,t_struct(ClaimWindow)2646_storage)"},{"astId":2670,"contract":"contracts/mocks/merkleClaim/ERC1155ClaimWindowMerkleClaimMock.sol:ERC1155ClaimWindowMerkleClaimMock","label":"claimStatus","offset":0,"slot":"2","type":"t_mapping(t_bytes32,t_bool)"}],"types":{"t_bool":{"encoding":"inplace","label":"bool","numberOfBytes":"1"},"t_bytes32":{"encoding":"inplace","label":"bytes32","numberOfBytes":"32"},"t_mapping(t_bytes32,t_bool)":{"encoding":"mapping","key":"t_bytes32","label":"mapping(bytes32 => bool)","numberOfBytes":"32","value":"t_bool"},"t_mapping(t_bytes32,t_struct(ClaimWindow)2646_storage)":{"encoding":"mapping","key":"t_bytes32","label":"mapping(bytes32 => struct ERC1155ClaimWindowMerkleClaim.ClaimWindow)","numberOfBytes":"32","value":"t_struct(ClaimWindow)2646_storage"},"t_struct(ClaimWindow)2646_storage":{"encoding":"inplace","label":"struct ERC1155ClaimWindowMerkleClaim.ClaimWindow","members":[{"astId":2641,"contract":"contracts/mocks/merkleClaim/ERC1155ClaimWindowMerkleClaimMock.sol:ERC1155ClaimWindowMerkleClaimMock","label":"merkleRoot","offset":0,"slot":"0","type":"t_bytes32"},{"astId":2643,"contract":"contracts/mocks/merkleClaim/ERC1155ClaimWindowMerkleClaimMock.sol:ERC1155ClaimWindowMerkleClaimMock","label":"startTime","offset":0,"slot":"1","type":"t_uint256"},{"astId":2645,"contract":"contracts/mocks/merkleClaim/ERC1155ClaimWindowMerkleClaimMock.sol:ERC1155ClaimWindowMerkleClaimMock","label":"endTime","offset":0,"slot":"2","type":"t_uint256"}],"numberOfBytes":"96"},"t_uint256":{"encoding":"inplace","label":"uint256","numberOfBytes":"32"}}},"userdoc":{"errors":{"AlreadyClaimed(bytes32,address)":[{"notice":"Error thrown when the payout has already been claimed."}],"EpochIdAlreadyExists(bytes32)":[{"notice":"Error thrown when the epoch ID already exists."}],"EpochIdNotExists(bytes32)":[{"notice":"Error thrown when the epoch ID does not exist."}],"ExceededMintSupply()":[{"notice":"Error thrown when the number of tokens claimed exceeds the mint supply."}],"IllegalInterfaceId()":[{"notice":"Thrown when setting the illegal interfaceId 0xffffffff."}],"InvalidClaimWindow(uint256,uint256,uint256)":[{"notice":"Error thrown when the claim window is invalid."}],"InvalidProof(bytes32,address)":[{"notice":"Error thrown when the proof provided for the claim is invalid."}],"NotContractOwner(address)":[{"notice":"Thrown when an account is not the contract owner but is required to."}],"OutOfClaimWindow(bytes32,uint256)":[{"notice":"Error thrown when the claim window is closed or has not yet opened."}]},"events":{"OwnershipTransferred(address,address)":{"notice":"Emitted when the contract ownership changes."},"PayoutClaimed(bytes32,address,uint256,uint256)":{"notice":"Event emitted when a payout is claimed."},"SetEpochMerkleRoot(bytes32,bytes32,uint256,uint256)":{"notice":"Event emitted when a claim window is set."}},"kind":"user","methods":{"MINT_SUPPLY()":{"notice":"The total number of tokens that can be minted in this contract."},"REWARD_CONTRACT()":{"notice":"The ERC1155Mintable reward contract."},"TOKEN_ID()":{"notice":"The token id to be claimed."},"__msgData()":{"notice":"Internal function to access the current msg.data."},"claim(bytes32,bytes32[],address)":{"notice":"Claims the payout for a specific epoch."},"claimStatus(bytes32)":{"notice":"Mapping from leafhash to the claim status."},"claimWindows(bytes32)":{"notice":"Mapping from the epoch ID to the claim window."},"isTrustedForwarder(address)":{"notice":"Checks whether a forwarder is trusted."},"noOfTokensClaimed()":{"notice":"The total number of tokens that have been claimed."},"owner()":{"notice":"Gets the address of the contract owner."},"setEpochMerkleRoot(bytes32,bytes32,uint256,uint256)":{"notice":"Sets the merkle root for a specific epoch with start and end time."},"supportsInterface(bytes4)":{"notice":"Returns whether this contract implements a given interface."},"transferOwnership(address)":{"notice":"Sets the address of the new contract owner."}},"version":1}}}}