{"contracts/mocks/burn/AnichessOrbsBurnPoolMock.sol":{"AnichessOrbsBurnPoolMock":{"abi":[{"inputs":[{"internalType":"uint256","name":"initialTime","type":"uint256"},{"internalType":"uint256","name":"cycleDuration","type":"uint256"},{"internalType":"uint256","name":"maxCycle","type":"uint256"},{"internalType":"contract IERC1155Burnable","name":"orbOfPower","type":"address"},{"components":[{"internalType":"uint256","name":"tokenId","type":"uint256"},{"internalType":"uint256","name":"weight","type":"uint256"}],"internalType":"struct AnichessOrbsBurnPool.TokenConfig[]","name":"tokenConfigs","type":"tuple[]"},{"internalType":"bytes32","name":"merkleRoot","type":"bytes32"},{"internalType":"contract IERC1155Burnable","name":"missingOrb","type":"address"},{"internalType":"contract IForwarderRegistry","name":"forwarderRegistry","type":"address"}],"stateMutability":"nonpayable","type":"constructor"},{"inputs":[{"internalType":"bytes32","name":"leaf","type":"bytes32"}],"name":"AlreadyConsumedLeaf","type":"error"},{"inputs":[{"internalType":"address","name":"recipient","type":"address"}],"name":"AlreadySetAnichessGameMultiplierNumerator","type":"error"},{"inputs":[{"internalType":"address","name":"wallet","type":"address"}],"name":"AlreadySetTokenMultiplier","type":"error"},{"inputs":[{"internalType":"uint256","name":"tokenId","type":"uint256"}],"name":"AlreadySetTokenWeight","type":"error"},{"inputs":[],"name":"IllegalInterfaceId","type":"error"},{"inputs":[{"internalType":"uint256","name":"cycle","type":"uint256"}],"name":"InvalidCycle","type":"error"},{"inputs":[],"name":"InvalidProof","type":"error"},{"inputs":[{"internalType":"address","name":"token","type":"address"}],"name":"InvalidToken","type":"error"},{"inputs":[{"internalType":"address","name":"token","type":"address"},{"internalType":"uint256","name":"tokenId","type":"uint256"}],"name":"InvalidTokenId","type":"error"},{"inputs":[{"internalType":"uint256","name":"value","type":"uint256"},{"internalType":"uint256","name":"expectedValue","type":"uint256"}],"name":"InvalidTokenValue","type":"error"},{"inputs":[],"name":"ZeroCycleDuration","type":"error"},{"inputs":[],"name":"ZeroMaxCycle","type":"error"},{"inputs":[{"internalType":"uint256","name":"tokenId","type":"uint256"}],"name":"ZeroTokenWeight","type":"error"},{"anonymous":false,"inputs":[{"indexed":true,"internalType":"address","name":"burner","type":"address"},{"indexed":true,"internalType":"uint256","name":"cycle","type":"uint256"},{"indexed":false,"internalType":"uint256","name":"timestamp","type":"uint256"},{"indexed":false,"internalType":"uint256[]","name":"ids","type":"uint256[]"},{"indexed":false,"internalType":"uint256[]","name":"values","type":"uint256[]"},{"indexed":false,"internalType":"uint256","name":"totalAsh","type":"uint256"},{"indexed":false,"internalType":"uint256","name":"multiplierInfo","type":"uint256"}],"name":"GenerateAsh","type":"event"},{"anonymous":false,"inputs":[{"indexed":true,"internalType":"address","name":"recipient","type":"address"},{"indexed":false,"internalType":"uint256","name":"curr","type":"uint256"},{"indexed":false,"internalType":"uint256","name":"updated","type":"uint256"}],"name":"UpdateMultiplierInfo","type":"event"},{"inputs":[],"name":"CYCLE_DURATION","outputs":[{"internalType":"uint256","name":"","type":"uint256"}],"stateMutability":"view","type":"function"},{"inputs":[],"name":"INITIAL_TIME","outputs":[{"internalType":"uint256","name":"","type":"uint256"}],"stateMutability":"view","type":"function"},{"inputs":[],"name":"MAX_CYCLE","outputs":[{"internalType":"uint256","name":"","type":"uint256"}],"stateMutability":"view","type":"function"},{"inputs":[],"name":"MERKLE_ROOT","outputs":[{"internalType":"bytes32","name":"","type":"bytes32"}],"stateMutability":"view","type":"function"},{"inputs":[],"name":"MISSING_ORB","outputs":[{"internalType":"contract IERC1155Burnable","name":"","type":"address"}],"stateMutability":"view","type":"function"},{"inputs":[],"name":"ORB_OF_POWER","outputs":[{"internalType":"contract IERC1155Burnable","name":"","type":"address"}],"stateMutability":"view","type":"function"},{"inputs":[],"name":"TOKEN_MULTIPLIER","outputs":[{"internalType":"uint256","name":"","type":"uint256"}],"stateMutability":"view","type":"function"},{"inputs":[],"name":"__msgData","outputs":[{"internalType":"bytes","name":"","type":"bytes"}],"stateMutability":"view","type":"function"},{"inputs":[],"name":"__msgSender","outputs":[{"internalType":"address","name":"","type":"address"}],"stateMutability":"view","type":"function"},{"inputs":[],"name":"currentCycle","outputs":[{"internalType":"uint256","name":"","type":"uint256"}],"stateMutability":"view","type":"function"},{"inputs":[],"name":"forwarderRegistry","outputs":[{"internalType":"contract IForwarderRegistry","name":"","type":"address"}],"stateMutability":"view","type":"function"},{"inputs":[{"internalType":"address","name":"forwarder","type":"address"}],"name":"isTrustedForwarder","outputs":[{"internalType":"bool","name":"","type":"bool"}],"stateMutability":"view","type":"function"},{"inputs":[{"internalType":"bytes32","name":"","type":"bytes32"}],"name":"leafConsumptionStatus","outputs":[{"internalType":"bool","name":"","type":"bool"}],"stateMutability":"view","type":"function"},{"inputs":[{"internalType":"address","name":"","type":"address"}],"name":"multiplierInfos","outputs":[{"internalType":"uint256","name":"","type":"uint256"}],"stateMutability":"view","type":"function"},{"inputs":[{"internalType":"address","name":"","type":"address"},{"internalType":"address","name":"from","type":"address"},{"internalType":"uint256[]","name":"ids","type":"uint256[]"},{"internalType":"uint256[]","name":"values","type":"uint256[]"},{"internalType":"bytes","name":"","type":"bytes"}],"name":"onERC1155BatchReceived","outputs":[{"internalType":"bytes4","name":"","type":"bytes4"}],"stateMutability":"nonpayable","type":"function"},{"inputs":[{"internalType":"address","name":"","type":"address"},{"internalType":"address","name":"from","type":"address"},{"internalType":"uint256","name":"id","type":"uint256"},{"internalType":"uint256","name":"value","type":"uint256"},{"internalType":"bytes","name":"data","type":"bytes"}],"name":"onERC1155Received","outputs":[{"internalType":"bytes4","name":"","type":"bytes4"}],"stateMutability":"nonpayable","type":"function"},{"inputs":[{"internalType":"bytes32[]","name":"proof","type":"bytes32[]"},{"internalType":"address","name":"recipient","type":"address"},{"internalType":"uint256","name":"newAnichessGameMultiplierNumerator","type":"uint256"}],"name":"setAnichessGameMultiplierNumerator","outputs":[],"stateMutability":"nonpayable","type":"function"},{"inputs":[{"internalType":"bytes4","name":"interfaceId","type":"bytes4"}],"name":"supportsInterface","outputs":[{"internalType":"bool","name":"","type":"bool"}],"stateMutability":"view","type":"function"},{"inputs":[{"internalType":"uint256","name":"","type":"uint256"}],"name":"tokenWeights","outputs":[{"internalType":"uint256","name":"","type":"uint256"}],"stateMutability":"view","type":"function"},{"inputs":[{"internalType":"uint256","name":"","type":"uint256"}],"name":"totalAshByCycle","outputs":[{"internalType":"uint256","name":"","type":"uint256"}],"stateMutability":"view","type":"function"},{"inputs":[{"internalType":"uint256","name":"","type":"uint256"},{"internalType":"address","name":"","type":"address"}],"name":"userAshByCycle","outputs":[{"internalType":"uint256","name":"","type":"uint256"}],"stateMutability":"view","type":"function"}],"devdoc":{"kind":"dev","methods":{"__msgData()":{"returns":{"_0":"The current msg.data value."}},"currentCycle()":{"returns":{"_0":"cycle The current cycle."}},"isTrustedForwarder(address)":{"params":{"forwarder":"The forwarder to check."},"returns":{"_0":"True if `forwarder` is trusted, false if not."}},"onERC1155BatchReceived(address,address,uint256[],uint256[],bytes)":{"details":"Throws if the token is invalid.Throws if the cycle is invalid.Throws if the token ID is invalid.","params":{"from":"The wallet address.","ids":"The token IDs to burn.","values":"The amount of tokens to burn."},"returns":{"_0":"The ERC1155Received selector."}},"onERC1155Received(address,address,uint256,uint256,bytes)":{"details":"Throws if the token is invalid.Throws if the token ID is invalid.Throws if the token amount is invalid.Throws if the token multiplier has already been set.If the data is not empty, the proof and the anichessGameMultiplierNumerator are decoded from the data to set the AnichessGame multiplier numerator.","params":{"data":"The data for setting the token multiplier.","from":"The wallet address.","id":"The token ID.","value":"The token value."},"returns":{"_0":"The ERC1155Received selector."}},"setAnichessGameMultiplierNumerator(bytes32[],address,uint256)":{"details":"Throws if the anichess game multiplier numerator is already set.Throws if the leaf is already consumed.Throws if the proof is invalid.","params":{"newAnichessGameMultiplierNumerator":"The AnichessGame multiplier numerator for the recipient.","proof":"The Merkle proof for the claim.","recipient":"The recipient of the payout."}},"supportsInterface(bytes4)":{"details":"Note: This function call must use less than 30 000 gas.","params":{"interfaceId":"the interface identifier to test."},"returns":{"_0":"True if the interface is supported, false if `interfaceId` is `0xffffffff` or if the interface is not supported."}}},"version":1},"evm":{"bytecode":{"linkReferences":{},"object":"6101c060405261271060a052600160c05260026101a0523480156200002357600080fd5b5060405162001f5738038062001f5783398101604081905262000046916200038d565b6001600160a01b03811660805287878787878787876200007b630271189760e51b6001620000736200025b565b919062000291565b6101008890526000879003620000a45760405163b870efbd60e01b815260040160405180910390fd5b6101208790526000869003620000cd57604051637e5e559b60e11b815260040160405180910390fd5b6101408690526101808390526001600160a01b0380831661016052851660e05260005b845181101562000244578481815181106200010f576200010f620004d5565b6020026020010151602001516000036200016a57848181518110620001385762000138620004d5565b60200260200101516000015160405163f3d8422960e01b81526004016200016191815260200190565b60405180910390fd5b600060046000878481518110620001855762000185620004d5565b6020026020010151600001518152602001908152602001600020541115620001e557848181518110620001bc57620001bc620004d5565b60200260200101516000015160405163faf6788760e01b81526004016200016191815260200190565b848181518110620001fa57620001fa620004d5565b602002602001015160200151600460008784815181106200021f576200021f620004d5565b60209081029190910181015151825281019190915260400160002055600101620000f0565b50505050505050505050505050505050506200050d565b6000806200028b60017fca9d3e17f264b0f3984e2634e94adb37fa3e6a8103f06aeae6fa59e21c769f5e620004eb565b92915050565b600160e01b6001600160e01b0319831601620002c0576040516372c683bb60e01b815260040160405180910390fd5b6001600160e01b03199190911660009081526020929092526040909120805460ff1916911515919091179055565b6001600160a01b03811681146200030457600080fd5b50565b80516200031481620002ee565b919050565b634e487b7160e01b600052604160045260246000fd5b604080519081016001600160401b038111828210171562000354576200035462000319565b60405290565b604051601f8201601f191681016001600160401b038111828210171562000385576200038562000319565b604052919050565b600080600080600080600080610100898b031215620003ab57600080fd5b8851975060208901519650604089015195506060890151620003cd81620002ee565b60808a01519095506001600160401b0380821115620003eb57600080fd5b818b0191508b601f8301126200040057600080fd5b81518181111562000415576200041562000319565b6200042660208260051b016200035a565b91508181835260208301925060208260061b85010191508d8211156200044b57600080fd5b6020840193505b818410156200049a576040848f0312156200046c57600080fd5b620004766200032f565b84518152602085015160208201528084525060208301925060408401935062000452565b8097505050505060a08901519250620004b660c08a0162000307565b9150620004c660e08a0162000307565b90509295985092959890939650565b634e487b7160e01b600052603260045260246000fd5b818103818111156200028b57634e487b7160e01b600052601160045260246000fd5b60805160a05160c05160e05161010051610120516101405161016051610180516101a05161197a620005dd6000396000818161023f0152610b6c0152600081816102c90152610e1a0152600081816103c901526109ba0152600081816101a901526106130152600081816103f001526105350152600081816102a201526105590152600081816101f301526105a701526000610a15015260006107c3015260008181610263015281816102fb01528181610fde0152818161101c0152818161115401526111dc015261197a6000f3fe608060405234801561001057600080fd5b50600436106101775760003560e01c80636dca8c06116100d8578063cd421fbf1161008c578063f23a6e6111610066578063f23a6e611461043d578063f5f6911214610450578063fa9fdc6a1461047057600080fd5b8063cd421fbf146103eb578063d1a91ff214610412578063e1c96c201461041a57600080fd5b8063bab2f552116100bd578063bab2f55214610378578063bc197c8114610380578063cd18a34f146103c457600080fd5b80636dca8c0614610338578063b28fd6e61461035857600080fd5b80632b4c9f161161012f578063491bde6611610114578063491bde661461029d57806351e75e8b146102c4578063572b6c05146102eb57600080fd5b80632b4c9f161461026157806331e66e1e1461028757600080fd5b806324190c6e1161016057806324190c6e146101d957806328a979cf146101ee5780632b093fe91461023a57600080fd5b806301ffc9a71461017c578063043063bc146101a4575b600080fd5b61018f61018a3660046112fe565b61049b565b60405190151581526020015b60405180910390f35b6101cb7f000000000000000000000000000000000000000000000000000000000000000081565b60405190815260200161019b565b6101ec6101e73660046113b5565b6104b5565b005b6102157f000000000000000000000000000000000000000000000000000000000000000081565b60405173ffffffffffffffffffffffffffffffffffffffff909116815260200161019b565b6101cb7f000000000000000000000000000000000000000000000000000000000000000081565b7f0000000000000000000000000000000000000000000000000000000000000000610215565b61028f61051e565b60405161019b929190611411565b6101cb7f000000000000000000000000000000000000000000000000000000000000000081565b6101cb7f000000000000000000000000000000000000000000000000000000000000000081565b61018f6102f936600461145e565b7f000000000000000000000000000000000000000000000000000000000000000073ffffffffffffffffffffffffffffffffffffffff90811691161490565b6101cb610346366004611479565b60006020819052908152604090205481565b6101cb61036636600461145e565b60036020526000908152604090205481565b6101cb610531565b61039361038e3660046114d4565b61058d565b6040517fffffffff00000000000000000000000000000000000000000000000000000000909116815260200161019b565b6102157f000000000000000000000000000000000000000000000000000000000000000081565b6101cb7f000000000000000000000000000000000000000000000000000000000000000081565b610215610996565b61018f610428366004611479565b60026020526000908152604090205460ff1681565b61039361044b36600461158f565b6109a0565b6101cb61045e366004611479565b60046020526000908152604090205481565b6101cb61047e366004611607565b600160209081526000928352604080842090915290825290205481565b60006104af826104a9610c42565b90610c70565b92915050565b610517848480806020026020016040519081016040528093929190818152602001838360200280828437600092018290525073ffffffffffffffffffffffffffffffffffffffff88168152600360205260409020548793509150859050610d4a565b5050505050565b366000610529610f7c565b915091509091565b60007f000000000000000000000000000000000000000000000000000000000000000061057e7f000000000000000000000000000000000000000000000000000000000000000042611662565b6105889190611675565b905090565b60003373ffffffffffffffffffffffffffffffffffffffff7f00000000000000000000000000000000000000000000000000000000000000001614610605576040517f961c9a4f0000000000000000000000000000000000000000000000000000000081523360048201526024015b60405180910390fd5b600061060f610531565b90507f000000000000000000000000000000000000000000000000000000000000000081111561066e576040517f764e560f000000000000000000000000000000000000000000000000000000008152600481018290526024016105fc565b6000805b88811015610757576000600460008c8c85818110610692576106926116b0565b9050602002013581526020019081526020016000205490508060000361071e57338b8b848181106106c5576106c56116b0565b6040517f1912ea5100000000000000000000000000000000000000000000000000000000815273ffffffffffffffffffffffffffffffffffffffff909416600485015260200291909101356024830152506044016105fc565b80898984818110610731576107316116b0565b9050602002013561074291906116df565b61074c90846116f6565b925050600101610672565b5073ffffffffffffffffffffffffffffffffffffffff8a166000908152600360205260409020546fffffffffffffffffffffffffffffffff8116608082901c81156107a9576107a682856116df565b93505b6fffffffffffffffffffffffffffffffff81161561080b577f00000000000000000000000000000000000000000000000000000000000000006107fe6fffffffffffffffffffffffffffffffff8316866116df565b6108089190611675565b93505b836001600087815260200190815260200160002060008f73ffffffffffffffffffffffffffffffffffffffff1673ffffffffffffffffffffffffffffffffffffffff168152602001908152602001600020600082825461086b91906116f6565b90915550506000858152602081905260408120805486929061088e9084906116f6565b925050819055503373ffffffffffffffffffffffffffffffffffffffff166380534934308e8e8e8e6040518663ffffffff1660e01b81526004016108d6959493929190611754565b600060405180830381600087803b1580156108f057600080fd5b505af1158015610904573d6000803e3d6000fd5b50505050848d73ffffffffffffffffffffffffffffffffffffffff167f1501d0cda6731cd5958ea3b86b45b93dec9f22f125c433c0044b42d98ee4de11428f8f8f8f8b8b60405161095b97969594939291906117a3565b60405180910390a3507fbc197c81000000000000000000000000000000000000000000000000000000009d9c50505050505050505050505050565b6000610588610f87565b60003373ffffffffffffffffffffffffffffffffffffffff7f00000000000000000000000000000000000000000000000000000000000000001614610a13576040517f961c9a4f0000000000000000000000000000000000000000000000000000000081523360048201526024016105fc565b7f00000000000000000000000000000000000000000000000000000000000000008514610a75576040517f1912ea51000000000000000000000000000000000000000000000000000000008152336004820152602481018690526044016105fc565b83600114610ab9576040517ff3cc8ce400000000000000000000000000000000000000000000000000000000815260048101859052600160248201526044016105fc565b73ffffffffffffffffffffffffffffffffffffffff86166000908152600360205260409020546fffffffffffffffffffffffffffffffff811615610b41576040517f55c9045d00000000000000000000000000000000000000000000000000000000815273ffffffffffffffffffffffffffffffffffffffff881660048201526024016105fc565b73ffffffffffffffffffffffffffffffffffffffff87166000818152600360209081526040918290207f00000000000000000000000000000000000000000000000000000000000000007fffffffffffffffffffffffffffffffff0000000000000000000000000000000086161790819055825185815291820181905292917f54519572e3429998e82594d8b7f18c8099087447d701cbaa619b5e26f6de47eb910160405180910390a28315610c1457600080610c0086880188611816565b91509150610c10828b8584610d4a565b5050505b507ff23a6e610000000000000000000000000000000000000000000000000000000098975050505050505050565b6000806104af60017fca9d3e17f264b0f3984e2634e94adb37fa3e6a8103f06aeae6fa59e21c769f5e611662565b60007c01000000000000000000000000000000000000000000000000000000007fffffffff00000000000000000000000000000000000000000000000000000000831601610cc0575060006104af565b7ffe003659000000000000000000000000000000000000000000000000000000007fffffffff00000000000000000000000000000000000000000000000000000000831601610d11575060016104af565b507fffffffff00000000000000000000000000000000000000000000000000000000166000908152602091909152604090205460ff1690565b6000608083901c15610da0576040517f18ed059000000000000000000000000000000000000000000000000000000000815273ffffffffffffffffffffffffffffffffffffffff851660048201526024016105fc565b6040517fffffffffffffffffffffffffffffffffffffffff000000000000000000000000606086901b16602082015260348101839052600090605401604080517fffffffffffffffffffffffffffffffffffffffffffffffffffffffffffffffe081840301815291905280516020909101209050610e3f867f000000000000000000000000000000000000000000000000000000000000000083610f91565b610e75576040517f09bde33900000000000000000000000000000000000000000000000000000000815260040160405180910390fd5b60008181526002602052604090205460ff1615610ec1576040517f689301e8000000000000000000000000000000000000000000000000000000008152600481018290526024016105fc565b73ffffffffffffffffffffffffffffffffffffffff851660008181526003602090815260408083206fffffffffffffffffffffffffffffffff8916608089901b1790819055858452600283529281902080547fffffffffffffffffffffffffffffffffffffffffffffffffffffffffffffff0016600117905580518881529182018390529194507f54519572e3429998e82594d8b7f18c8099087447d701cbaa619b5e26f6de47eb910160405180910390a250949350505050565b366000610529610fa7565b6000610588611111565b600082610f9e8584611258565b14949350505050565b36600033321480610fb85750601836105b15610fc65750600091369150565b3373ffffffffffffffffffffffffffffffffffffffff7f00000000000000000000000000000000000000000000000000000000000000001614806110fb575073ffffffffffffffffffffffffffffffffffffffff7f000000000000000000000000000000000000000000000000000000000000000016638929a8ca367fffffffffffffffffffffffffffffffffffffffffffffffffffffffffffffffec013560601c6040517fffffffff0000000000000000000000000000000000000000000000000000000060e084901b16815273ffffffffffffffffffffffffffffffffffffffff9091166004820152336024820152604401602060405180830381865afa1580156110d7573d6000803e3d6000fd5b505050506040513d601f19601f820116820180604052508101906110fb91906118f8565b156111085761052961129b565b50600091369150565b6000333214806111215750601836105b1561112b57503390565b7fffffffffffffffffffffffffffffffffffffffffffffffffffffffffffffffec36013560601c7f000000000000000000000000000000000000000000000000000000000000000073ffffffffffffffffffffffffffffffffffffffff1633148061124757506040517f8929a8ca00000000000000000000000000000000000000000000000000000000815273ffffffffffffffffffffffffffffffffffffffff82811660048301523360248301527f00000000000000000000000000000000000000000000000000000000000000001690638929a8ca90604401602060405180830381865afa158015611223573d6000803e3d6000fd5b505050506040513d601f19601f8201168201806040525081019061124791906118f8565b1561125157919050565b3391505090565b600081815b8451811015611293576112898286838151811061127c5761127c6116b0565b60200260200101516112cc565b915060010161125d565b509392505050565b3660006105297fffffffffffffffffffffffffffffffffffffffffffffffffffffffffffffffec830182848161191a565b60008183106112e85760008281526020849052604090206112f7565b60008381526020839052604090205b9392505050565b60006020828403121561131057600080fd5b81357fffffffff00000000000000000000000000000000000000000000000000000000811681146112f757600080fd5b60008083601f84011261135257600080fd5b50813567ffffffffffffffff81111561136a57600080fd5b6020830191508360208260051b850101111561138557600080fd5b9250929050565b803573ffffffffffffffffffffffffffffffffffffffff811681146113b057600080fd5b919050565b600080600080606085870312156113cb57600080fd5b843567ffffffffffffffff8111156113e257600080fd5b6113ee87828801611340565b909550935061140190506020860161138c565b9396929550929360400135925050565b60208152816020820152818360408301376000818301604090810191909152601f9092017fffffffffffffffffffffffffffffffffffffffffffffffffffffffffffffffe0160101919050565b60006020828403121561147057600080fd5b6112f78261138c565b60006020828403121561148b57600080fd5b5035919050565b60008083601f8401126114a457600080fd5b50813567ffffffffffffffff8111156114bc57600080fd5b60208301915083602082850101111561138557600080fd5b60008060008060008060008060a0898b0312156114f057600080fd5b6114f98961138c565b975061150760208a0161138c565b9650604089013567ffffffffffffffff8082111561152457600080fd5b6115308c838d01611340565b909850965060608b013591508082111561154957600080fd5b6115558c838d01611340565b909650945060808b013591508082111561156e57600080fd5b5061157b8b828c01611492565b999c989b5096995094979396929594505050565b60008060008060008060a087890312156115a857600080fd5b6115b18761138c565b95506115bf6020880161138c565b94506040870135935060608701359250608087013567ffffffffffffffff8111156115e957600080fd5b6115f589828a01611492565b979a9699509497509295939492505050565b6000806040838503121561161a57600080fd5b8235915061162a6020840161138c565b90509250929050565b7f4e487b7100000000000000000000000000000000000000000000000000000000600052601160045260246000fd5b818103818111156104af576104af611633565b6000826116ab577f4e487b7100000000000000000000000000000000000000000000000000000000600052601260045260246000fd5b500490565b7f4e487b7100000000000000000000000000000000000000000000000000000000600052603260045260246000fd5b80820281158282048414176104af576104af611633565b808201808211156104af576104af611633565b81835260007f07ffffffffffffffffffffffffffffffffffffffffffffffffffffffffffffff83111561173b57600080fd5b8260051b80836020870137939093016020019392505050565b73ffffffffffffffffffffffffffffffffffffffff86168152606060208201526000611784606083018688611709565b8281036040840152611797818587611709565b98975050505050505050565b87815260a0602082015260006117bd60a08301888a611709565b82810360408401526117d0818789611709565b606084019590955250506080015295945050505050565b7f4e487b7100000000000000000000000000000000000000000000000000000000600052604160045260246000fd5b6000806040838503121561182957600080fd5b823567ffffffffffffffff8082111561184157600080fd5b818501915085601f83011261185557600080fd5b8135602082821115611869576118696117e7565b8160051b6040517fffffffffffffffffffffffffffffffffffffffffffffffffffffffffffffffe0603f830116810181811086821117156118ac576118ac6117e7565b6040529283528183019350848101820192898411156118ca57600080fd5b948201945b838610156118e8578535855294820194938201936118cf565b9997909101359750505050505050565b60006020828403121561190a57600080fd5b815180151581146112f757600080fd5b6000808585111561192a57600080fd5b8386111561193757600080fd5b505082019391909203915056fea26469706673582212201213721fdfe11a074413b4be54f41d741a0e4ce62d39469cbabcb5afdef77dcd64736f6c63430008160033","opcodes":"PUSH2 0x1C0 PUSH1 0x40 MSTORE PUSH2 0x2710 PUSH1 0xA0 MSTORE PUSH1 0x1 PUSH1 0xC0 MSTORE PUSH1 0x2 PUSH2 0x1A0 MSTORE CALLVALUE DUP1 ISZERO PUSH3 0x23 JUMPI PUSH1 0x0 DUP1 REVERT JUMPDEST POP PUSH1 0x40 MLOAD PUSH3 0x1F57 CODESIZE SUB DUP1 PUSH3 0x1F57 DUP4 CODECOPY DUP2 ADD PUSH1 0x40 DUP2 SWAP1 MSTORE PUSH3 0x46 SWAP2 PUSH3 0x38D JUMP JUMPDEST PUSH1 0x1 PUSH1 0x1 PUSH1 0xA0 SHL SUB DUP2 AND PUSH1 0x80 MSTORE DUP8 DUP8 DUP8 DUP8 DUP8 DUP8 DUP8 DUP8 PUSH3 0x7B PUSH4 0x2711897 PUSH1 0xE5 SHL PUSH1 0x1 PUSH3 0x73 PUSH3 0x25B JUMP JUMPDEST SWAP2 SWAP1 PUSH3 0x291 JUMP JUMPDEST PUSH2 0x100 DUP9 SWAP1 MSTORE PUSH1 0x0 DUP8 SWAP1 SUB PUSH3 0xA4 JUMPI PUSH1 0x40 MLOAD PUSH4 0xB870EFBD PUSH1 0xE0 SHL DUP2 MSTORE PUSH1 0x4 ADD PUSH1 0x40 MLOAD DUP1 SWAP2 SUB SWAP1 REVERT JUMPDEST PUSH2 0x120 DUP8 SWAP1 MSTORE PUSH1 0x0 DUP7 SWAP1 SUB PUSH3 0xCD JUMPI PUSH1 0x40 MLOAD PUSH4 0x7E5E559B PUSH1 0xE1 SHL DUP2 MSTORE PUSH1 0x4 ADD PUSH1 0x40 MLOAD DUP1 SWAP2 SUB SWAP1 REVERT JUMPDEST PUSH2 0x140 DUP7 SWAP1 MSTORE PUSH2 0x180 DUP4 SWAP1 MSTORE PUSH1 0x1 PUSH1 0x1 PUSH1 0xA0 SHL SUB DUP1 DUP4 AND PUSH2 0x160 MSTORE DUP6 AND PUSH1 0xE0 MSTORE PUSH1 0x0 JUMPDEST DUP5 MLOAD DUP2 LT ISZERO PUSH3 0x244 JUMPI DUP5 DUP2 DUP2 MLOAD DUP2 LT PUSH3 0x10F JUMPI PUSH3 0x10F PUSH3 0x4D5 JUMP JUMPDEST PUSH1 0x20 MUL PUSH1 0x20 ADD ADD MLOAD PUSH1 0x20 ADD MLOAD PUSH1 0x0 SUB PUSH3 0x16A JUMPI DUP5 DUP2 DUP2 MLOAD DUP2 LT PUSH3 0x138 JUMPI PUSH3 0x138 PUSH3 0x4D5 JUMP JUMPDEST PUSH1 0x20 MUL PUSH1 0x20 ADD ADD MLOAD PUSH1 0x0 ADD MLOAD PUSH1 0x40 MLOAD PUSH4 0xF3D84229 PUSH1 0xE0 SHL DUP2 MSTORE PUSH1 0x4 ADD PUSH3 0x161 SWAP2 DUP2 MSTORE PUSH1 0x20 ADD SWAP1 JUMP JUMPDEST PUSH1 0x40 MLOAD DUP1 SWAP2 SUB SWAP1 REVERT JUMPDEST PUSH1 0x0 PUSH1 0x4 PUSH1 0x0 DUP8 DUP5 DUP2 MLOAD DUP2 LT PUSH3 0x185 JUMPI PUSH3 0x185 PUSH3 0x4D5 JUMP JUMPDEST PUSH1 0x20 MUL PUSH1 0x20 ADD ADD MLOAD PUSH1 0x0 ADD MLOAD DUP2 MSTORE PUSH1 0x20 ADD SWAP1 DUP2 MSTORE PUSH1 0x20 ADD PUSH1 0x0 KECCAK256 SLOAD GT ISZERO PUSH3 0x1E5 JUMPI DUP5 DUP2 DUP2 MLOAD DUP2 LT PUSH3 0x1BC JUMPI PUSH3 0x1BC PUSH3 0x4D5 JUMP JUMPDEST PUSH1 0x20 MUL PUSH1 0x20 ADD ADD MLOAD PUSH1 0x0 ADD MLOAD PUSH1 0x40 MLOAD PUSH4 0xFAF67887 PUSH1 0xE0 SHL DUP2 MSTORE PUSH1 0x4 ADD PUSH3 0x161 SWAP2 DUP2 MSTORE PUSH1 0x20 ADD SWAP1 JUMP JUMPDEST DUP5 DUP2 DUP2 MLOAD DUP2 LT PUSH3 0x1FA JUMPI PUSH3 0x1FA PUSH3 0x4D5 JUMP JUMPDEST PUSH1 0x20 MUL PUSH1 0x20 ADD ADD MLOAD PUSH1 0x20 ADD MLOAD PUSH1 0x4 PUSH1 0x0 DUP8 DUP5 DUP2 MLOAD DUP2 LT PUSH3 0x21F JUMPI PUSH3 0x21F PUSH3 0x4D5 JUMP JUMPDEST PUSH1 0x20 SWAP1 DUP2 MUL SWAP2 SWAP1 SWAP2 ADD DUP2 ADD MLOAD MLOAD DUP3 MSTORE DUP2 ADD SWAP2 SWAP1 SWAP2 MSTORE PUSH1 0x40 ADD PUSH1 0x0 KECCAK256 SSTORE PUSH1 0x1 ADD PUSH3 0xF0 JUMP JUMPDEST POP POP POP POP POP POP POP POP POP POP POP POP POP POP POP POP POP PUSH3 0x50D JUMP JUMPDEST PUSH1 0x0 DUP1 PUSH3 0x28B PUSH1 0x1 PUSH32 0xCA9D3E17F264B0F3984E2634E94ADB37FA3E6A8103F06AEAE6FA59E21C769F5E PUSH3 0x4EB JUMP JUMPDEST SWAP3 SWAP2 POP POP JUMP JUMPDEST PUSH1 0x1 PUSH1 0xE0 SHL PUSH1 0x1 PUSH1 0x1 PUSH1 0xE0 SHL SUB NOT DUP4 AND ADD PUSH3 0x2C0 JUMPI PUSH1 0x40 MLOAD PUSH4 0x72C683BB PUSH1 0xE0 SHL DUP2 MSTORE PUSH1 0x4 ADD PUSH1 0x40 MLOAD DUP1 SWAP2 SUB SWAP1 REVERT JUMPDEST PUSH1 0x1 PUSH1 0x1 PUSH1 0xE0 SHL SUB NOT SWAP2 SWAP1 SWAP2 AND PUSH1 0x0 SWAP1 DUP2 MSTORE PUSH1 0x20 SWAP3 SWAP1 SWAP3 MSTORE PUSH1 0x40 SWAP1 SWAP2 KECCAK256 DUP1 SLOAD PUSH1 0xFF NOT AND SWAP2 ISZERO ISZERO SWAP2 SWAP1 SWAP2 OR SWAP1 SSTORE JUMP JUMPDEST PUSH1 0x1 PUSH1 0x1 PUSH1 0xA0 SHL SUB DUP2 AND DUP2 EQ PUSH3 0x304 JUMPI PUSH1 0x0 DUP1 REVERT JUMPDEST POP JUMP JUMPDEST DUP1 MLOAD PUSH3 0x314 DUP2 PUSH3 0x2EE JUMP JUMPDEST SWAP2 SWAP1 POP JUMP JUMPDEST PUSH4 0x4E487B71 PUSH1 0xE0 SHL PUSH1 0x0 MSTORE PUSH1 0x41 PUSH1 0x4 MSTORE PUSH1 0x24 PUSH1 0x0 REVERT JUMPDEST PUSH1 0x40 DUP1 MLOAD SWAP1 DUP2 ADD PUSH1 0x1 PUSH1 0x1 PUSH1 0x40 SHL SUB DUP2 GT DUP3 DUP3 LT OR ISZERO PUSH3 0x354 JUMPI PUSH3 0x354 PUSH3 0x319 JUMP JUMPDEST PUSH1 0x40 MSTORE SWAP1 JUMP JUMPDEST PUSH1 0x40 MLOAD PUSH1 0x1F DUP3 ADD PUSH1 0x1F NOT AND DUP2 ADD PUSH1 0x1 PUSH1 0x1 PUSH1 0x40 SHL SUB DUP2 GT DUP3 DUP3 LT OR ISZERO PUSH3 0x385 JUMPI PUSH3 0x385 PUSH3 0x319 JUMP JUMPDEST PUSH1 0x40 MSTORE SWAP2 SWAP1 POP JUMP JUMPDEST PUSH1 0x0 DUP1 PUSH1 0x0 DUP1 PUSH1 0x0 DUP1 PUSH1 0x0 DUP1 PUSH2 0x100 DUP10 DUP12 SUB SLT ISZERO PUSH3 0x3AB JUMPI PUSH1 0x0 DUP1 REVERT JUMPDEST DUP9 MLOAD SWAP8 POP PUSH1 0x20 DUP10 ADD MLOAD SWAP7 POP PUSH1 0x40 DUP10 ADD MLOAD SWAP6 POP PUSH1 0x60 DUP10 ADD MLOAD PUSH3 0x3CD DUP2 PUSH3 0x2EE JUMP JUMPDEST PUSH1 0x80 DUP11 ADD MLOAD SWAP1 SWAP6 POP PUSH1 0x1 PUSH1 0x1 PUSH1 0x40 SHL SUB DUP1 DUP3 GT ISZERO PUSH3 0x3EB JUMPI PUSH1 0x0 DUP1 REVERT JUMPDEST DUP2 DUP12 ADD SWAP2 POP DUP12 PUSH1 0x1F DUP4 ADD SLT PUSH3 0x400 JUMPI PUSH1 0x0 DUP1 REVERT JUMPDEST DUP2 MLOAD DUP2 DUP2 GT ISZERO PUSH3 0x415 JUMPI PUSH3 0x415 PUSH3 0x319 JUMP JUMPDEST PUSH3 0x426 PUSH1 0x20 DUP3 PUSH1 0x5 SHL ADD PUSH3 0x35A JUMP JUMPDEST SWAP2 POP DUP2 DUP2 DUP4 MSTORE PUSH1 0x20 DUP4 ADD SWAP3 POP PUSH1 0x20 DUP3 PUSH1 0x6 SHL DUP6 ADD ADD SWAP2 POP DUP14 DUP3 GT ISZERO PUSH3 0x44B JUMPI PUSH1 0x0 DUP1 REVERT JUMPDEST PUSH1 0x20 DUP5 ADD SWAP4 POP JUMPDEST DUP2 DUP5 LT ISZERO PUSH3 0x49A JUMPI PUSH1 0x40 DUP5 DUP16 SUB SLT ISZERO PUSH3 0x46C JUMPI PUSH1 0x0 DUP1 REVERT JUMPDEST PUSH3 0x476 PUSH3 0x32F JUMP JUMPDEST DUP5 MLOAD DUP2 MSTORE PUSH1 0x20 DUP6 ADD MLOAD PUSH1 0x20 DUP3 ADD MSTORE DUP1 DUP5 MSTORE POP PUSH1 0x20 DUP4 ADD SWAP3 POP PUSH1 0x40 DUP5 ADD SWAP4 POP PUSH3 0x452 JUMP JUMPDEST DUP1 SWAP8 POP POP POP POP POP PUSH1 0xA0 DUP10 ADD MLOAD SWAP3 POP PUSH3 0x4B6 PUSH1 0xC0 DUP11 ADD PUSH3 0x307 JUMP JUMPDEST SWAP2 POP PUSH3 0x4C6 PUSH1 0xE0 DUP11 ADD PUSH3 0x307 JUMP JUMPDEST SWAP1 POP SWAP3 SWAP6 SWAP9 POP SWAP3 SWAP6 SWAP9 SWAP1 SWAP4 SWAP7 POP JUMP JUMPDEST PUSH4 0x4E487B71 PUSH1 0xE0 SHL PUSH1 0x0 MSTORE PUSH1 0x32 PUSH1 0x4 MSTORE PUSH1 0x24 PUSH1 0x0 REVERT JUMPDEST DUP2 DUP2 SUB DUP2 DUP2 GT ISZERO PUSH3 0x28B JUMPI PUSH4 0x4E487B71 PUSH1 0xE0 SHL PUSH1 0x0 MSTORE PUSH1 0x11 PUSH1 0x4 MSTORE PUSH1 0x24 PUSH1 0x0 REVERT JUMPDEST PUSH1 0x80 MLOAD PUSH1 0xA0 MLOAD PUSH1 0xC0 MLOAD PUSH1 0xE0 MLOAD PUSH2 0x100 MLOAD PUSH2 0x120 MLOAD PUSH2 0x140 MLOAD PUSH2 0x160 MLOAD PUSH2 0x180 MLOAD PUSH2 0x1A0 MLOAD PUSH2 0x197A PUSH3 0x5DD PUSH1 0x0 CODECOPY PUSH1 0x0 DUP2 DUP2 PUSH2 0x23F ADD MSTORE PUSH2 0xB6C ADD MSTORE PUSH1 0x0 DUP2 DUP2 PUSH2 0x2C9 ADD MSTORE PUSH2 0xE1A ADD MSTORE PUSH1 0x0 DUP2 DUP2 PUSH2 0x3C9 ADD MSTORE PUSH2 0x9BA ADD MSTORE PUSH1 0x0 DUP2 DUP2 PUSH2 0x1A9 ADD MSTORE PUSH2 0x613 ADD MSTORE PUSH1 0x0 DUP2 DUP2 PUSH2 0x3F0 ADD MSTORE PUSH2 0x535 ADD MSTORE PUSH1 0x0 DUP2 DUP2 PUSH2 0x2A2 ADD MSTORE PUSH2 0x559 ADD MSTORE PUSH1 0x0 DUP2 DUP2 PUSH2 0x1F3 ADD MSTORE PUSH2 0x5A7 ADD MSTORE PUSH1 0x0 PUSH2 0xA15 ADD MSTORE PUSH1 0x0 PUSH2 0x7C3 ADD MSTORE PUSH1 0x0 DUP2 DUP2 PUSH2 0x263 ADD MSTORE DUP2 DUP2 PUSH2 0x2FB ADD MSTORE DUP2 DUP2 PUSH2 0xFDE ADD MSTORE DUP2 DUP2 PUSH2 0x101C ADD MSTORE DUP2 DUP2 PUSH2 0x1154 ADD MSTORE PUSH2 0x11DC ADD MSTORE PUSH2 0x197A PUSH1 0x0 RETURN INVALID PUSH1 0x80 PUSH1 0x40 MSTORE CALLVALUE DUP1 ISZERO PUSH2 0x10 JUMPI PUSH1 0x0 DUP1 REVERT JUMPDEST POP PUSH1 0x4 CALLDATASIZE LT PUSH2 0x177 JUMPI PUSH1 0x0 CALLDATALOAD PUSH1 0xE0 SHR DUP1 PUSH4 0x6DCA8C06 GT PUSH2 0xD8 JUMPI DUP1 PUSH4 0xCD421FBF GT PUSH2 0x8C JUMPI DUP1 PUSH4 0xF23A6E61 GT PUSH2 0x66 JUMPI DUP1 PUSH4 0xF23A6E61 EQ PUSH2 0x43D JUMPI DUP1 PUSH4 0xF5F69112 EQ PUSH2 0x450 JUMPI DUP1 PUSH4 0xFA9FDC6A EQ PUSH2 0x470 JUMPI PUSH1 0x0 DUP1 REVERT JUMPDEST DUP1 PUSH4 0xCD421FBF EQ PUSH2 0x3EB JUMPI DUP1 PUSH4 0xD1A91FF2 EQ PUSH2 0x412 JUMPI DUP1 PUSH4 0xE1C96C20 EQ PUSH2 0x41A JUMPI PUSH1 0x0 DUP1 REVERT JUMPDEST DUP1 PUSH4 0xBAB2F552 GT PUSH2 0xBD JUMPI DUP1 PUSH4 0xBAB2F552 EQ PUSH2 0x378 JUMPI DUP1 PUSH4 0xBC197C81 EQ PUSH2 0x380 JUMPI DUP1 PUSH4 0xCD18A34F EQ PUSH2 0x3C4 JUMPI PUSH1 0x0 DUP1 REVERT JUMPDEST DUP1 PUSH4 0x6DCA8C06 EQ PUSH2 0x338 JUMPI DUP1 PUSH4 0xB28FD6E6 EQ PUSH2 0x358 JUMPI PUSH1 0x0 DUP1 REVERT JUMPDEST DUP1 PUSH4 0x2B4C9F16 GT PUSH2 0x12F JUMPI DUP1 PUSH4 0x491BDE66 GT PUSH2 0x114 JUMPI DUP1 PUSH4 0x491BDE66 EQ PUSH2 0x29D JUMPI DUP1 PUSH4 0x51E75E8B EQ PUSH2 0x2C4 JUMPI DUP1 PUSH4 0x572B6C05 EQ PUSH2 0x2EB JUMPI PUSH1 0x0 DUP1 REVERT JUMPDEST DUP1 PUSH4 0x2B4C9F16 EQ PUSH2 0x261 JUMPI DUP1 PUSH4 0x31E66E1E EQ PUSH2 0x287 JUMPI PUSH1 0x0 DUP1 REVERT JUMPDEST DUP1 PUSH4 0x24190C6E GT PUSH2 0x160 JUMPI DUP1 PUSH4 0x24190C6E EQ PUSH2 0x1D9 JUMPI DUP1 PUSH4 0x28A979CF EQ PUSH2 0x1EE JUMPI DUP1 PUSH4 0x2B093FE9 EQ PUSH2 0x23A JUMPI PUSH1 0x0 DUP1 REVERT JUMPDEST DUP1 PUSH4 0x1FFC9A7 EQ PUSH2 0x17C JUMPI DUP1 PUSH4 0x43063BC EQ PUSH2 0x1A4 JUMPI JUMPDEST PUSH1 0x0 DUP1 REVERT JUMPDEST PUSH2 0x18F PUSH2 0x18A CALLDATASIZE PUSH1 0x4 PUSH2 0x12FE JUMP JUMPDEST PUSH2 0x49B JUMP JUMPDEST PUSH1 0x40 MLOAD SWAP1 ISZERO ISZERO DUP2 MSTORE PUSH1 0x20 ADD JUMPDEST PUSH1 0x40 MLOAD DUP1 SWAP2 SUB SWAP1 RETURN JUMPDEST PUSH2 0x1CB PUSH32 0x0 DUP2 JUMP JUMPDEST PUSH1 0x40 MLOAD SWAP1 DUP2 MSTORE PUSH1 0x20 ADD PUSH2 0x19B JUMP JUMPDEST PUSH2 0x1EC PUSH2 0x1E7 CALLDATASIZE PUSH1 0x4 PUSH2 0x13B5 JUMP JUMPDEST PUSH2 0x4B5 JUMP JUMPDEST STOP JUMPDEST PUSH2 0x215 PUSH32 0x0 DUP2 JUMP JUMPDEST PUSH1 0x40 MLOAD PUSH20 0xFFFFFFFFFFFFFFFFFFFFFFFFFFFFFFFFFFFFFFFF SWAP1 SWAP2 AND DUP2 MSTORE PUSH1 0x20 ADD PUSH2 0x19B JUMP JUMPDEST PUSH2 0x1CB PUSH32 0x0 DUP2 JUMP JUMPDEST PUSH32 0x0 PUSH2 0x215 JUMP JUMPDEST PUSH2 0x28F PUSH2 0x51E JUMP JUMPDEST PUSH1 0x40 MLOAD PUSH2 0x19B SWAP3 SWAP2 SWAP1 PUSH2 0x1411 JUMP JUMPDEST PUSH2 0x1CB PUSH32 0x0 DUP2 JUMP JUMPDEST PUSH2 0x1CB PUSH32 0x0 DUP2 JUMP JUMPDEST PUSH2 0x18F PUSH2 0x2F9 CALLDATASIZE PUSH1 0x4 PUSH2 0x145E JUMP JUMPDEST PUSH32 0x0 PUSH20 0xFFFFFFFFFFFFFFFFFFFFFFFFFFFFFFFFFFFFFFFF SWAP1 DUP2 AND SWAP2 AND EQ SWAP1 JUMP JUMPDEST PUSH2 0x1CB PUSH2 0x346 CALLDATASIZE PUSH1 0x4 PUSH2 0x1479 JUMP JUMPDEST PUSH1 0x0 PUSH1 0x20 DUP2 SWAP1 MSTORE SWAP1 DUP2 MSTORE PUSH1 0x40 SWAP1 KECCAK256 SLOAD DUP2 JUMP JUMPDEST PUSH2 0x1CB PUSH2 0x366 CALLDATASIZE PUSH1 0x4 PUSH2 0x145E JUMP JUMPDEST PUSH1 0x3 PUSH1 0x20 MSTORE PUSH1 0x0 SWAP1 DUP2 MSTORE PUSH1 0x40 SWAP1 KECCAK256 SLOAD DUP2 JUMP JUMPDEST PUSH2 0x1CB PUSH2 0x531 JUMP JUMPDEST PUSH2 0x393 PUSH2 0x38E CALLDATASIZE PUSH1 0x4 PUSH2 0x14D4 JUMP JUMPDEST PUSH2 0x58D JUMP JUMPDEST PUSH1 0x40 MLOAD PUSH32 0xFFFFFFFF00000000000000000000000000000000000000000000000000000000 SWAP1 SWAP2 AND DUP2 MSTORE PUSH1 0x20 ADD PUSH2 0x19B JUMP JUMPDEST PUSH2 0x215 PUSH32 0x0 DUP2 JUMP JUMPDEST PUSH2 0x1CB PUSH32 0x0 DUP2 JUMP JUMPDEST PUSH2 0x215 PUSH2 0x996 JUMP JUMPDEST PUSH2 0x18F PUSH2 0x428 CALLDATASIZE PUSH1 0x4 PUSH2 0x1479 JUMP JUMPDEST PUSH1 0x2 PUSH1 0x20 MSTORE PUSH1 0x0 SWAP1 DUP2 MSTORE PUSH1 0x40 SWAP1 KECCAK256 SLOAD PUSH1 0xFF AND DUP2 JUMP JUMPDEST PUSH2 0x393 PUSH2 0x44B CALLDATASIZE PUSH1 0x4 PUSH2 0x158F JUMP JUMPDEST PUSH2 0x9A0 JUMP JUMPDEST PUSH2 0x1CB PUSH2 0x45E CALLDATASIZE PUSH1 0x4 PUSH2 0x1479 JUMP JUMPDEST PUSH1 0x4 PUSH1 0x20 MSTORE PUSH1 0x0 SWAP1 DUP2 MSTORE PUSH1 0x40 SWAP1 KECCAK256 SLOAD DUP2 JUMP JUMPDEST PUSH2 0x1CB PUSH2 0x47E CALLDATASIZE PUSH1 0x4 PUSH2 0x1607 JUMP JUMPDEST PUSH1 0x1 PUSH1 0x20 SWAP1 DUP2 MSTORE PUSH1 0x0 SWAP3 DUP4 MSTORE PUSH1 0x40 DUP1 DUP5 KECCAK256 SWAP1 SWAP2 MSTORE SWAP1 DUP3 MSTORE SWAP1 KECCAK256 SLOAD DUP2 JUMP JUMPDEST PUSH1 0x0 PUSH2 0x4AF DUP3 PUSH2 0x4A9 PUSH2 0xC42 JUMP JUMPDEST SWAP1 PUSH2 0xC70 JUMP JUMPDEST SWAP3 SWAP2 POP POP JUMP JUMPDEST PUSH2 0x517 DUP5 DUP5 DUP1 DUP1 PUSH1 0x20 MUL PUSH1 0x20 ADD PUSH1 0x40 MLOAD SWAP1 DUP2 ADD PUSH1 0x40 MSTORE DUP1 SWAP4 SWAP3 SWAP2 SWAP1 DUP2 DUP2 MSTORE PUSH1 0x20 ADD DUP4 DUP4 PUSH1 0x20 MUL DUP1 DUP3 DUP5 CALLDATACOPY PUSH1 0x0 SWAP3 ADD DUP3 SWAP1 MSTORE POP PUSH20 0xFFFFFFFFFFFFFFFFFFFFFFFFFFFFFFFFFFFFFFFF DUP9 AND DUP2 MSTORE PUSH1 0x3 PUSH1 0x20 MSTORE PUSH1 0x40 SWAP1 KECCAK256 SLOAD DUP8 SWAP4 POP SWAP2 POP DUP6 SWAP1 POP PUSH2 0xD4A JUMP JUMPDEST POP POP POP POP POP JUMP JUMPDEST CALLDATASIZE PUSH1 0x0 PUSH2 0x529 PUSH2 0xF7C JUMP JUMPDEST SWAP2 POP SWAP2 POP SWAP1 SWAP2 JUMP JUMPDEST PUSH1 0x0 PUSH32 0x0 PUSH2 0x57E PUSH32 0x0 TIMESTAMP PUSH2 0x1662 JUMP JUMPDEST PUSH2 0x588 SWAP2 SWAP1 PUSH2 0x1675 JUMP JUMPDEST SWAP1 POP SWAP1 JUMP JUMPDEST PUSH1 0x0 CALLER PUSH20 0xFFFFFFFFFFFFFFFFFFFFFFFFFFFFFFFFFFFFFFFF PUSH32 0x0 AND EQ PUSH2 0x605 JUMPI PUSH1 0x40 MLOAD PUSH32 0x961C9A4F00000000000000000000000000000000000000000000000000000000 DUP2 MSTORE CALLER PUSH1 0x4 DUP3 ADD MSTORE PUSH1 0x24 ADD JUMPDEST PUSH1 0x40 MLOAD DUP1 SWAP2 SUB SWAP1 REVERT JUMPDEST PUSH1 0x0 PUSH2 0x60F PUSH2 0x531 JUMP JUMPDEST SWAP1 POP PUSH32 0x0 DUP2 GT ISZERO PUSH2 0x66E JUMPI PUSH1 0x40 MLOAD PUSH32 0x764E560F00000000000000000000000000000000000000000000000000000000 DUP2 MSTORE PUSH1 0x4 DUP2 ADD DUP3 SWAP1 MSTORE PUSH1 0x24 ADD PUSH2 0x5FC JUMP JUMPDEST PUSH1 0x0 DUP1 JUMPDEST DUP9 DUP2 LT ISZERO PUSH2 0x757 JUMPI PUSH1 0x0 PUSH1 0x4 PUSH1 0x0 DUP13 DUP13 DUP6 DUP2 DUP2 LT PUSH2 0x692 JUMPI PUSH2 0x692 PUSH2 0x16B0 JUMP JUMPDEST SWAP1 POP PUSH1 0x20 MUL ADD CALLDATALOAD DUP2 MSTORE PUSH1 0x20 ADD SWAP1 DUP2 MSTORE PUSH1 0x20 ADD PUSH1 0x0 KECCAK256 SLOAD SWAP1 POP DUP1 PUSH1 0x0 SUB PUSH2 0x71E JUMPI CALLER DUP12 DUP12 DUP5 DUP2 DUP2 LT PUSH2 0x6C5 JUMPI PUSH2 0x6C5 PUSH2 0x16B0 JUMP JUMPDEST PUSH1 0x40 MLOAD PUSH32 0x1912EA5100000000000000000000000000000000000000000000000000000000 DUP2 MSTORE PUSH20 0xFFFFFFFFFFFFFFFFFFFFFFFFFFFFFFFFFFFFFFFF SWAP1 SWAP5 AND PUSH1 0x4 DUP6 ADD MSTORE PUSH1 0x20 MUL SWAP2 SWAP1 SWAP2 ADD CALLDATALOAD PUSH1 0x24 DUP4 ADD MSTORE POP PUSH1 0x44 ADD PUSH2 0x5FC JUMP JUMPDEST DUP1 DUP10 DUP10 DUP5 DUP2 DUP2 LT PUSH2 0x731 JUMPI PUSH2 0x731 PUSH2 0x16B0 JUMP JUMPDEST SWAP1 POP PUSH1 0x20 MUL ADD CALLDATALOAD PUSH2 0x742 SWAP2 SWAP1 PUSH2 0x16DF JUMP JUMPDEST PUSH2 0x74C SWAP1 DUP5 PUSH2 0x16F6 JUMP JUMPDEST SWAP3 POP POP PUSH1 0x1 ADD PUSH2 0x672 JUMP JUMPDEST POP PUSH20 0xFFFFFFFFFFFFFFFFFFFFFFFFFFFFFFFFFFFFFFFF DUP11 AND PUSH1 0x0 SWAP1 DUP2 MSTORE PUSH1 0x3 PUSH1 0x20 MSTORE PUSH1 0x40 SWAP1 KECCAK256 SLOAD PUSH16 0xFFFFFFFFFFFFFFFFFFFFFFFFFFFFFFFF DUP2 AND PUSH1 0x80 DUP3 SWAP1 SHR DUP2 ISZERO PUSH2 0x7A9 JUMPI PUSH2 0x7A6 DUP3 DUP6 PUSH2 0x16DF JUMP JUMPDEST SWAP4 POP JUMPDEST PUSH16 0xFFFFFFFFFFFFFFFFFFFFFFFFFFFFFFFF DUP2 AND ISZERO PUSH2 0x80B JUMPI PUSH32 0x0 PUSH2 0x7FE PUSH16 0xFFFFFFFFFFFFFFFFFFFFFFFFFFFFFFFF DUP4 AND DUP7 PUSH2 0x16DF JUMP JUMPDEST PUSH2 0x808 SWAP2 SWAP1 PUSH2 0x1675 JUMP JUMPDEST SWAP4 POP JUMPDEST DUP4 PUSH1 0x1 PUSH1 0x0 DUP8 DUP2 MSTORE PUSH1 0x20 ADD SWAP1 DUP2 MSTORE PUSH1 0x20 ADD PUSH1 0x0 KECCAK256 PUSH1 0x0 DUP16 PUSH20 0xFFFFFFFFFFFFFFFFFFFFFFFFFFFFFFFFFFFFFFFF AND PUSH20 0xFFFFFFFFFFFFFFFFFFFFFFFFFFFFFFFFFFFFFFFF AND DUP2 MSTORE PUSH1 0x20 ADD SWAP1 DUP2 MSTORE PUSH1 0x20 ADD PUSH1 0x0 KECCAK256 PUSH1 0x0 DUP3 DUP3 SLOAD PUSH2 0x86B SWAP2 SWAP1 PUSH2 0x16F6 JUMP JUMPDEST SWAP1 SWAP2 SSTORE POP POP PUSH1 0x0 DUP6 DUP2 MSTORE PUSH1 0x20 DUP2 SWAP1 MSTORE PUSH1 0x40 DUP2 KECCAK256 DUP1 SLOAD DUP7 SWAP3 SWAP1 PUSH2 0x88E SWAP1 DUP5 SWAP1 PUSH2 0x16F6 JUMP JUMPDEST SWAP3 POP POP DUP2 SWAP1 SSTORE POP CALLER PUSH20 0xFFFFFFFFFFFFFFFFFFFFFFFFFFFFFFFFFFFFFFFF AND PUSH4 0x80534934 ADDRESS DUP15 DUP15 DUP15 DUP15 PUSH1 0x40 MLOAD DUP7 PUSH4 0xFFFFFFFF AND PUSH1 0xE0 SHL DUP2 MSTORE PUSH1 0x4 ADD PUSH2 0x8D6 SWAP6 SWAP5 SWAP4 SWAP3 SWAP2 SWAP1 PUSH2 0x1754 JUMP JUMPDEST PUSH1 0x0 PUSH1 0x40 MLOAD DUP1 DUP4 SUB DUP2 PUSH1 0x0 DUP8 DUP1 EXTCODESIZE ISZERO DUP1 ISZERO PUSH2 0x8F0 JUMPI PUSH1 0x0 DUP1 REVERT JUMPDEST POP GAS CALL ISZERO DUP1 ISZERO PUSH2 0x904 JUMPI RETURNDATASIZE PUSH1 0x0 DUP1 RETURNDATACOPY RETURNDATASIZE PUSH1 0x0 REVERT JUMPDEST POP POP POP POP DUP5 DUP14 PUSH20 0xFFFFFFFFFFFFFFFFFFFFFFFFFFFFFFFFFFFFFFFF AND PUSH32 0x1501D0CDA6731CD5958EA3B86B45B93DEC9F22F125C433C0044B42D98EE4DE11 TIMESTAMP DUP16 DUP16 DUP16 DUP16 DUP12 DUP12 PUSH1 0x40 MLOAD PUSH2 0x95B SWAP8 SWAP7 SWAP6 SWAP5 SWAP4 SWAP3 SWAP2 SWAP1 PUSH2 0x17A3 JUMP JUMPDEST PUSH1 0x40 MLOAD DUP1 SWAP2 SUB SWAP1 LOG3 POP PUSH32 0xBC197C8100000000000000000000000000000000000000000000000000000000 SWAP14 SWAP13 POP POP POP POP POP POP POP POP POP POP POP POP POP JUMP JUMPDEST PUSH1 0x0 PUSH2 0x588 PUSH2 0xF87 JUMP JUMPDEST PUSH1 0x0 CALLER PUSH20 0xFFFFFFFFFFFFFFFFFFFFFFFFFFFFFFFFFFFFFFFF PUSH32 0x0 AND EQ PUSH2 0xA13 JUMPI PUSH1 0x40 MLOAD PUSH32 0x961C9A4F00000000000000000000000000000000000000000000000000000000 DUP2 MSTORE CALLER PUSH1 0x4 DUP3 ADD MSTORE PUSH1 0x24 ADD PUSH2 0x5FC JUMP JUMPDEST PUSH32 0x0 DUP6 EQ PUSH2 0xA75 JUMPI PUSH1 0x40 MLOAD PUSH32 0x1912EA5100000000000000000000000000000000000000000000000000000000 DUP2 MSTORE CALLER PUSH1 0x4 DUP3 ADD MSTORE PUSH1 0x24 DUP2 ADD DUP7 SWAP1 MSTORE PUSH1 0x44 ADD PUSH2 0x5FC JUMP JUMPDEST DUP4 PUSH1 0x1 EQ PUSH2 0xAB9 JUMPI PUSH1 0x40 MLOAD PUSH32 0xF3CC8CE400000000000000000000000000000000000000000000000000000000 DUP2 MSTORE PUSH1 0x4 DUP2 ADD DUP6 SWAP1 MSTORE PUSH1 0x1 PUSH1 0x24 DUP3 ADD MSTORE PUSH1 0x44 ADD PUSH2 0x5FC JUMP JUMPDEST PUSH20 0xFFFFFFFFFFFFFFFFFFFFFFFFFFFFFFFFFFFFFFFF DUP7 AND PUSH1 0x0 SWAP1 DUP2 MSTORE PUSH1 0x3 PUSH1 0x20 MSTORE PUSH1 0x40 SWAP1 KECCAK256 SLOAD PUSH16 0xFFFFFFFFFFFFFFFFFFFFFFFFFFFFFFFF DUP2 AND ISZERO PUSH2 0xB41 JUMPI PUSH1 0x40 MLOAD PUSH32 0x55C9045D00000000000000000000000000000000000000000000000000000000 DUP2 MSTORE PUSH20 0xFFFFFFFFFFFFFFFFFFFFFFFFFFFFFFFFFFFFFFFF DUP9 AND PUSH1 0x4 DUP3 ADD MSTORE PUSH1 0x24 ADD PUSH2 0x5FC JUMP JUMPDEST PUSH20 0xFFFFFFFFFFFFFFFFFFFFFFFFFFFFFFFFFFFFFFFF DUP8 AND PUSH1 0x0 DUP2 DUP2 MSTORE PUSH1 0x3 PUSH1 0x20 SWAP1 DUP2 MSTORE PUSH1 0x40 SWAP2 DUP3 SWAP1 KECCAK256 PUSH32 0x0 PUSH32 0xFFFFFFFFFFFFFFFFFFFFFFFFFFFFFFFF00000000000000000000000000000000 DUP7 AND OR SWAP1 DUP2 SWAP1 SSTORE DUP3 MLOAD DUP6 DUP2 MSTORE SWAP2 DUP3 ADD DUP2 SWAP1 MSTORE SWAP3 SWAP2 PUSH32 0x54519572E3429998E82594D8B7F18C8099087447D701CBAA619B5E26F6DE47EB SWAP2 ADD PUSH1 0x40 MLOAD DUP1 SWAP2 SUB SWAP1 LOG2 DUP4 ISZERO PUSH2 0xC14 JUMPI PUSH1 0x0 DUP1 PUSH2 0xC00 DUP7 DUP9 ADD DUP9 PUSH2 0x1816 JUMP JUMPDEST SWAP2 POP SWAP2 POP PUSH2 0xC10 DUP3 DUP12 DUP6 DUP5 PUSH2 0xD4A JUMP JUMPDEST POP POP POP JUMPDEST POP PUSH32 0xF23A6E6100000000000000000000000000000000000000000000000000000000 SWAP9 SWAP8 POP POP POP POP POP POP POP POP JUMP JUMPDEST PUSH1 0x0 DUP1 PUSH2 0x4AF PUSH1 0x1 PUSH32 0xCA9D3E17F264B0F3984E2634E94ADB37FA3E6A8103F06AEAE6FA59E21C769F5E PUSH2 0x1662 JUMP JUMPDEST PUSH1 0x0 PUSH29 0x100000000000000000000000000000000000000000000000000000000 PUSH32 0xFFFFFFFF00000000000000000000000000000000000000000000000000000000 DUP4 AND ADD PUSH2 0xCC0 JUMPI POP PUSH1 0x0 PUSH2 0x4AF JUMP JUMPDEST PUSH32 0xFE00365900000000000000000000000000000000000000000000000000000000 PUSH32 0xFFFFFFFF00000000000000000000000000000000000000000000000000000000 DUP4 AND ADD PUSH2 0xD11 JUMPI POP PUSH1 0x1 PUSH2 0x4AF JUMP JUMPDEST POP PUSH32 0xFFFFFFFF00000000000000000000000000000000000000000000000000000000 AND PUSH1 0x0 SWAP1 DUP2 MSTORE PUSH1 0x20 SWAP2 SWAP1 SWAP2 MSTORE PUSH1 0x40 SWAP1 KECCAK256 SLOAD PUSH1 0xFF AND SWAP1 JUMP JUMPDEST PUSH1 0x0 PUSH1 0x80 DUP4 SWAP1 SHR ISZERO PUSH2 0xDA0 JUMPI PUSH1 0x40 MLOAD PUSH32 0x18ED059000000000000000000000000000000000000000000000000000000000 DUP2 MSTORE PUSH20 0xFFFFFFFFFFFFFFFFFFFFFFFFFFFFFFFFFFFFFFFF DUP6 AND PUSH1 0x4 DUP3 ADD MSTORE PUSH1 0x24 ADD PUSH2 0x5FC JUMP JUMPDEST PUSH1 0x40 MLOAD PUSH32 0xFFFFFFFFFFFFFFFFFFFFFFFFFFFFFFFFFFFFFFFF000000000000000000000000 PUSH1 0x60 DUP7 SWAP1 SHL AND PUSH1 0x20 DUP3 ADD MSTORE PUSH1 0x34 DUP2 ADD DUP4 SWAP1 MSTORE PUSH1 0x0 SWAP1 PUSH1 0x54 ADD PUSH1 0x40 DUP1 MLOAD PUSH32 0xFFFFFFFFFFFFFFFFFFFFFFFFFFFFFFFFFFFFFFFFFFFFFFFFFFFFFFFFFFFFFFE0 DUP2 DUP5 SUB ADD DUP2 MSTORE SWAP2 SWAP1 MSTORE DUP1 MLOAD PUSH1 0x20 SWAP1 SWAP2 ADD KECCAK256 SWAP1 POP PUSH2 0xE3F DUP7 PUSH32 0x0 DUP4 PUSH2 0xF91 JUMP JUMPDEST PUSH2 0xE75 JUMPI PUSH1 0x40 MLOAD PUSH32 0x9BDE33900000000000000000000000000000000000000000000000000000000 DUP2 MSTORE PUSH1 0x4 ADD PUSH1 0x40 MLOAD DUP1 SWAP2 SUB SWAP1 REVERT JUMPDEST PUSH1 0x0 DUP2 DUP2 MSTORE PUSH1 0x2 PUSH1 0x20 MSTORE PUSH1 0x40 SWAP1 KECCAK256 SLOAD PUSH1 0xFF AND ISZERO PUSH2 0xEC1 JUMPI PUSH1 0x40 MLOAD PUSH32 0x689301E800000000000000000000000000000000000000000000000000000000 DUP2 MSTORE PUSH1 0x4 DUP2 ADD DUP3 SWAP1 MSTORE PUSH1 0x24 ADD PUSH2 0x5FC JUMP JUMPDEST PUSH20 0xFFFFFFFFFFFFFFFFFFFFFFFFFFFFFFFFFFFFFFFF DUP6 AND PUSH1 0x0 DUP2 DUP2 MSTORE PUSH1 0x3 PUSH1 0x20 SWAP1 DUP2 MSTORE PUSH1 0x40 DUP1 DUP4 KECCAK256 PUSH16 0xFFFFFFFFFFFFFFFFFFFFFFFFFFFFFFFF DUP10 AND PUSH1 0x80 DUP10 SWAP1 SHL OR SWAP1 DUP2 SWAP1 SSTORE DUP6 DUP5 MSTORE PUSH1 0x2 DUP4 MSTORE SWAP3 DUP2 SWAP1 KECCAK256 DUP1 SLOAD PUSH32 0xFFFFFFFFFFFFFFFFFFFFFFFFFFFFFFFFFFFFFFFFFFFFFFFFFFFFFFFFFFFFFF00 AND PUSH1 0x1 OR SWAP1 SSTORE DUP1 MLOAD DUP9 DUP2 MSTORE SWAP2 DUP3 ADD DUP4 SWAP1 MSTORE SWAP2 SWAP5 POP PUSH32 0x54519572E3429998E82594D8B7F18C8099087447D701CBAA619B5E26F6DE47EB SWAP2 ADD PUSH1 0x40 MLOAD DUP1 SWAP2 SUB SWAP1 LOG2 POP SWAP5 SWAP4 POP POP POP POP JUMP JUMPDEST CALLDATASIZE PUSH1 0x0 PUSH2 0x529 PUSH2 0xFA7 JUMP JUMPDEST PUSH1 0x0 PUSH2 0x588 PUSH2 0x1111 JUMP JUMPDEST PUSH1 0x0 DUP3 PUSH2 0xF9E DUP6 DUP5 PUSH2 0x1258 JUMP JUMPDEST EQ SWAP5 SWAP4 POP POP POP POP JUMP JUMPDEST CALLDATASIZE PUSH1 0x0 CALLER ORIGIN EQ DUP1 PUSH2 0xFB8 JUMPI POP PUSH1 0x18 CALLDATASIZE LT JUMPDEST ISZERO PUSH2 0xFC6 JUMPI POP PUSH1 0x0 SWAP2 CALLDATASIZE SWAP2 POP JUMP JUMPDEST CALLER PUSH20 0xFFFFFFFFFFFFFFFFFFFFFFFFFFFFFFFFFFFFFFFF PUSH32 0x0 AND EQ DUP1 PUSH2 0x10FB JUMPI POP PUSH20 0xFFFFFFFFFFFFFFFFFFFFFFFFFFFFFFFFFFFFFFFF PUSH32 0x0 AND PUSH4 0x8929A8CA CALLDATASIZE PUSH32 0xFFFFFFFFFFFFFFFFFFFFFFFFFFFFFFFFFFFFFFFFFFFFFFFFFFFFFFFFFFFFFFEC ADD CALLDATALOAD PUSH1 0x60 SHR PUSH1 0x40 MLOAD PUSH32 0xFFFFFFFF00000000000000000000000000000000000000000000000000000000 PUSH1 0xE0 DUP5 SWAP1 SHL AND DUP2 MSTORE PUSH20 0xFFFFFFFFFFFFFFFFFFFFFFFFFFFFFFFFFFFFFFFF SWAP1 SWAP2 AND PUSH1 0x4 DUP3 ADD MSTORE CALLER PUSH1 0x24 DUP3 ADD MSTORE PUSH1 0x44 ADD PUSH1 0x20 PUSH1 0x40 MLOAD DUP1 DUP4 SUB DUP2 DUP7 GAS STATICCALL ISZERO DUP1 ISZERO PUSH2 0x10D7 JUMPI RETURNDATASIZE PUSH1 0x0 DUP1 RETURNDATACOPY RETURNDATASIZE PUSH1 0x0 REVERT JUMPDEST POP POP POP POP PUSH1 0x40 MLOAD RETURNDATASIZE PUSH1 0x1F NOT PUSH1 0x1F DUP3 ADD AND DUP3 ADD DUP1 PUSH1 0x40 MSTORE POP DUP2 ADD SWAP1 PUSH2 0x10FB SWAP2 SWAP1 PUSH2 0x18F8 JUMP JUMPDEST ISZERO PUSH2 0x1108 JUMPI PUSH2 0x529 PUSH2 0x129B JUMP JUMPDEST POP PUSH1 0x0 SWAP2 CALLDATASIZE SWAP2 POP JUMP JUMPDEST PUSH1 0x0 CALLER ORIGIN EQ DUP1 PUSH2 0x1121 JUMPI POP PUSH1 0x18 CALLDATASIZE LT JUMPDEST ISZERO PUSH2 0x112B JUMPI POP CALLER SWAP1 JUMP JUMPDEST PUSH32 0xFFFFFFFFFFFFFFFFFFFFFFFFFFFFFFFFFFFFFFFFFFFFFFFFFFFFFFFFFFFFFFEC CALLDATASIZE ADD CALLDATALOAD PUSH1 0x60 SHR PUSH32 0x0 PUSH20 0xFFFFFFFFFFFFFFFFFFFFFFFFFFFFFFFFFFFFFFFF AND CALLER EQ DUP1 PUSH2 0x1247 JUMPI POP PUSH1 0x40 MLOAD PUSH32 0x8929A8CA00000000000000000000000000000000000000000000000000000000 DUP2 MSTORE PUSH20 0xFFFFFFFFFFFFFFFFFFFFFFFFFFFFFFFFFFFFFFFF DUP3 DUP2 AND PUSH1 0x4 DUP4 ADD MSTORE CALLER PUSH1 0x24 DUP4 ADD MSTORE PUSH32 0x0 AND SWAP1 PUSH4 0x8929A8CA SWAP1 PUSH1 0x44 ADD PUSH1 0x20 PUSH1 0x40 MLOAD DUP1 DUP4 SUB DUP2 DUP7 GAS STATICCALL ISZERO DUP1 ISZERO PUSH2 0x1223 JUMPI RETURNDATASIZE PUSH1 0x0 DUP1 RETURNDATACOPY RETURNDATASIZE PUSH1 0x0 REVERT JUMPDEST POP POP POP POP PUSH1 0x40 MLOAD RETURNDATASIZE PUSH1 0x1F NOT PUSH1 0x1F DUP3 ADD AND DUP3 ADD DUP1 PUSH1 0x40 MSTORE POP DUP2 ADD SWAP1 PUSH2 0x1247 SWAP2 SWAP1 PUSH2 0x18F8 JUMP JUMPDEST ISZERO PUSH2 0x1251 JUMPI SWAP2 SWAP1 POP JUMP JUMPDEST CALLER SWAP2 POP POP SWAP1 JUMP JUMPDEST PUSH1 0x0 DUP2 DUP2 JUMPDEST DUP5 MLOAD DUP2 LT ISZERO PUSH2 0x1293 JUMPI PUSH2 0x1289 DUP3 DUP7 DUP4 DUP2 MLOAD DUP2 LT PUSH2 0x127C JUMPI PUSH2 0x127C PUSH2 0x16B0 JUMP JUMPDEST PUSH1 0x20 MUL PUSH1 0x20 ADD ADD MLOAD PUSH2 0x12CC JUMP JUMPDEST SWAP2 POP PUSH1 0x1 ADD PUSH2 0x125D JUMP JUMPDEST POP SWAP4 SWAP3 POP POP POP JUMP JUMPDEST CALLDATASIZE PUSH1 0x0 PUSH2 0x529 PUSH32 0xFFFFFFFFFFFFFFFFFFFFFFFFFFFFFFFFFFFFFFFFFFFFFFFFFFFFFFFFFFFFFFEC DUP4 ADD DUP3 DUP5 DUP2 PUSH2 0x191A JUMP JUMPDEST PUSH1 0x0 DUP2 DUP4 LT PUSH2 0x12E8 JUMPI PUSH1 0x0 DUP3 DUP2 MSTORE PUSH1 0x20 DUP5 SWAP1 MSTORE PUSH1 0x40 SWAP1 KECCAK256 PUSH2 0x12F7 JUMP JUMPDEST PUSH1 0x0 DUP4 DUP2 MSTORE PUSH1 0x20 DUP4 SWAP1 MSTORE PUSH1 0x40 SWAP1 KECCAK256 JUMPDEST SWAP4 SWAP3 POP POP POP JUMP JUMPDEST PUSH1 0x0 PUSH1 0x20 DUP3 DUP5 SUB SLT ISZERO PUSH2 0x1310 JUMPI PUSH1 0x0 DUP1 REVERT JUMPDEST DUP2 CALLDATALOAD PUSH32 0xFFFFFFFF00000000000000000000000000000000000000000000000000000000 DUP2 AND DUP2 EQ PUSH2 0x12F7 JUMPI PUSH1 0x0 DUP1 REVERT JUMPDEST PUSH1 0x0 DUP1 DUP4 PUSH1 0x1F DUP5 ADD SLT PUSH2 0x1352 JUMPI PUSH1 0x0 DUP1 REVERT JUMPDEST POP DUP2 CALLDATALOAD PUSH8 0xFFFFFFFFFFFFFFFF DUP2 GT ISZERO PUSH2 0x136A JUMPI PUSH1 0x0 DUP1 REVERT JUMPDEST PUSH1 0x20 DUP4 ADD SWAP2 POP DUP4 PUSH1 0x20 DUP3 PUSH1 0x5 SHL DUP6 ADD ADD GT ISZERO PUSH2 0x1385 JUMPI PUSH1 0x0 DUP1 REVERT JUMPDEST SWAP3 POP SWAP3 SWAP1 POP JUMP JUMPDEST DUP1 CALLDATALOAD PUSH20 0xFFFFFFFFFFFFFFFFFFFFFFFFFFFFFFFFFFFFFFFF DUP2 AND DUP2 EQ PUSH2 0x13B0 JUMPI PUSH1 0x0 DUP1 REVERT JUMPDEST SWAP2 SWAP1 POP JUMP JUMPDEST PUSH1 0x0 DUP1 PUSH1 0x0 DUP1 PUSH1 0x60 DUP6 DUP8 SUB SLT ISZERO PUSH2 0x13CB JUMPI PUSH1 0x0 DUP1 REVERT JUMPDEST DUP5 CALLDATALOAD PUSH8 0xFFFFFFFFFFFFFFFF DUP2 GT ISZERO PUSH2 0x13E2 JUMPI PUSH1 0x0 DUP1 REVERT JUMPDEST PUSH2 0x13EE DUP8 DUP3 DUP9 ADD PUSH2 0x1340 JUMP JUMPDEST SWAP1 SWAP6 POP SWAP4 POP PUSH2 0x1401 SWAP1 POP PUSH1 0x20 DUP7 ADD PUSH2 0x138C JUMP JUMPDEST SWAP4 SWAP7 SWAP3 SWAP6 POP SWAP3 SWAP4 PUSH1 0x40 ADD CALLDATALOAD SWAP3 POP POP JUMP JUMPDEST PUSH1 0x20 DUP2 MSTORE DUP2 PUSH1 0x20 DUP3 ADD MSTORE DUP2 DUP4 PUSH1 0x40 DUP4 ADD CALLDATACOPY PUSH1 0x0 DUP2 DUP4 ADD PUSH1 0x40 SWAP1 DUP2 ADD SWAP2 SWAP1 SWAP2 MSTORE PUSH1 0x1F SWAP1 SWAP3 ADD PUSH32 0xFFFFFFFFFFFFFFFFFFFFFFFFFFFFFFFFFFFFFFFFFFFFFFFFFFFFFFFFFFFFFFE0 AND ADD ADD SWAP2 SWAP1 POP JUMP JUMPDEST PUSH1 0x0 PUSH1 0x20 DUP3 DUP5 SUB SLT ISZERO PUSH2 0x1470 JUMPI PUSH1 0x0 DUP1 REVERT JUMPDEST PUSH2 0x12F7 DUP3 PUSH2 0x138C JUMP JUMPDEST PUSH1 0x0 PUSH1 0x20 DUP3 DUP5 SUB SLT ISZERO PUSH2 0x148B JUMPI PUSH1 0x0 DUP1 REVERT JUMPDEST POP CALLDATALOAD SWAP2 SWAP1 POP JUMP JUMPDEST PUSH1 0x0 DUP1 DUP4 PUSH1 0x1F DUP5 ADD SLT PUSH2 0x14A4 JUMPI PUSH1 0x0 DUP1 REVERT JUMPDEST POP DUP2 CALLDATALOAD PUSH8 0xFFFFFFFFFFFFFFFF DUP2 GT ISZERO PUSH2 0x14BC JUMPI PUSH1 0x0 DUP1 REVERT JUMPDEST PUSH1 0x20 DUP4 ADD SWAP2 POP DUP4 PUSH1 0x20 DUP3 DUP6 ADD ADD GT ISZERO PUSH2 0x1385 JUMPI PUSH1 0x0 DUP1 REVERT JUMPDEST PUSH1 0x0 DUP1 PUSH1 0x0 DUP1 PUSH1 0x0 DUP1 PUSH1 0x0 DUP1 PUSH1 0xA0 DUP10 DUP12 SUB SLT ISZERO PUSH2 0x14F0 JUMPI PUSH1 0x0 DUP1 REVERT JUMPDEST PUSH2 0x14F9 DUP10 PUSH2 0x138C JUMP JUMPDEST SWAP8 POP PUSH2 0x1507 PUSH1 0x20 DUP11 ADD PUSH2 0x138C JUMP JUMPDEST SWAP7 POP PUSH1 0x40 DUP10 ADD CALLDATALOAD PUSH8 0xFFFFFFFFFFFFFFFF DUP1 DUP3 GT ISZERO PUSH2 0x1524 JUMPI PUSH1 0x0 DUP1 REVERT JUMPDEST PUSH2 0x1530 DUP13 DUP4 DUP14 ADD PUSH2 0x1340 JUMP JUMPDEST SWAP1 SWAP9 POP SWAP7 POP PUSH1 0x60 DUP12 ADD CALLDATALOAD SWAP2 POP DUP1 DUP3 GT ISZERO PUSH2 0x1549 JUMPI PUSH1 0x0 DUP1 REVERT JUMPDEST PUSH2 0x1555 DUP13 DUP4 DUP14 ADD PUSH2 0x1340 JUMP JUMPDEST SWAP1 SWAP7 POP SWAP5 POP PUSH1 0x80 DUP12 ADD CALLDATALOAD SWAP2 POP DUP1 DUP3 GT ISZERO PUSH2 0x156E JUMPI PUSH1 0x0 DUP1 REVERT JUMPDEST POP PUSH2 0x157B DUP12 DUP3 DUP13 ADD PUSH2 0x1492 JUMP JUMPDEST SWAP10 SWAP13 SWAP9 SWAP12 POP SWAP7 SWAP10 POP SWAP5 SWAP8 SWAP4 SWAP7 SWAP3 SWAP6 SWAP5 POP POP POP JUMP JUMPDEST PUSH1 0x0 DUP1 PUSH1 0x0 DUP1 PUSH1 0x0 DUP1 PUSH1 0xA0 DUP8 DUP10 SUB SLT ISZERO PUSH2 0x15A8 JUMPI PUSH1 0x0 DUP1 REVERT JUMPDEST PUSH2 0x15B1 DUP8 PUSH2 0x138C JUMP JUMPDEST SWAP6 POP PUSH2 0x15BF PUSH1 0x20 DUP9 ADD PUSH2 0x138C JUMP JUMPDEST SWAP5 POP PUSH1 0x40 DUP8 ADD CALLDATALOAD SWAP4 POP PUSH1 0x60 DUP8 ADD CALLDATALOAD SWAP3 POP PUSH1 0x80 DUP8 ADD CALLDATALOAD PUSH8 0xFFFFFFFFFFFFFFFF DUP2 GT ISZERO PUSH2 0x15E9 JUMPI PUSH1 0x0 DUP1 REVERT JUMPDEST PUSH2 0x15F5 DUP10 DUP3 DUP11 ADD PUSH2 0x1492 JUMP JUMPDEST SWAP8 SWAP11 SWAP7 SWAP10 POP SWAP5 SWAP8 POP SWAP3 SWAP6 SWAP4 SWAP5 SWAP3 POP POP POP JUMP JUMPDEST PUSH1 0x0 DUP1 PUSH1 0x40 DUP4 DUP6 SUB SLT ISZERO PUSH2 0x161A JUMPI PUSH1 0x0 DUP1 REVERT JUMPDEST DUP3 CALLDATALOAD SWAP2 POP PUSH2 0x162A PUSH1 0x20 DUP5 ADD PUSH2 0x138C JUMP JUMPDEST SWAP1 POP SWAP3 POP SWAP3 SWAP1 POP JUMP JUMPDEST PUSH32 0x4E487B7100000000000000000000000000000000000000000000000000000000 PUSH1 0x0 MSTORE PUSH1 0x11 PUSH1 0x4 MSTORE PUSH1 0x24 PUSH1 0x0 REVERT JUMPDEST DUP2 DUP2 SUB DUP2 DUP2 GT ISZERO PUSH2 0x4AF JUMPI PUSH2 0x4AF PUSH2 0x1633 JUMP JUMPDEST PUSH1 0x0 DUP3 PUSH2 0x16AB JUMPI PUSH32 0x4E487B7100000000000000000000000000000000000000000000000000000000 PUSH1 0x0 MSTORE PUSH1 0x12 PUSH1 0x4 MSTORE PUSH1 0x24 PUSH1 0x0 REVERT JUMPDEST POP DIV SWAP1 JUMP JUMPDEST PUSH32 0x4E487B7100000000000000000000000000000000000000000000000000000000 PUSH1 0x0 MSTORE PUSH1 0x32 PUSH1 0x4 MSTORE PUSH1 0x24 PUSH1 0x0 REVERT JUMPDEST DUP1 DUP3 MUL DUP2 ISZERO DUP3 DUP3 DIV DUP5 EQ OR PUSH2 0x4AF JUMPI PUSH2 0x4AF PUSH2 0x1633 JUMP JUMPDEST DUP1 DUP3 ADD DUP1 DUP3 GT ISZERO PUSH2 0x4AF JUMPI PUSH2 0x4AF PUSH2 0x1633 JUMP JUMPDEST DUP2 DUP4 MSTORE PUSH1 0x0 PUSH32 0x7FFFFFFFFFFFFFFFFFFFFFFFFFFFFFFFFFFFFFFFFFFFFFFFFFFFFFFFFFFFFFF DUP4 GT ISZERO PUSH2 0x173B JUMPI PUSH1 0x0 DUP1 REVERT JUMPDEST DUP3 PUSH1 0x5 SHL DUP1 DUP4 PUSH1 0x20 DUP8 ADD CALLDATACOPY SWAP4 SWAP1 SWAP4 ADD PUSH1 0x20 ADD SWAP4 SWAP3 POP POP POP JUMP JUMPDEST PUSH20 0xFFFFFFFFFFFFFFFFFFFFFFFFFFFFFFFFFFFFFFFF DUP7 AND DUP2 MSTORE PUSH1 0x60 PUSH1 0x20 DUP3 ADD MSTORE PUSH1 0x0 PUSH2 0x1784 PUSH1 0x60 DUP4 ADD DUP7 DUP9 PUSH2 0x1709 JUMP JUMPDEST DUP3 DUP2 SUB PUSH1 0x40 DUP5 ADD MSTORE PUSH2 0x1797 DUP2 DUP6 DUP8 PUSH2 0x1709 JUMP JUMPDEST SWAP9 SWAP8 POP POP POP POP POP POP POP POP JUMP JUMPDEST DUP8 DUP2 MSTORE PUSH1 0xA0 PUSH1 0x20 DUP3 ADD MSTORE PUSH1 0x0 PUSH2 0x17BD PUSH1 0xA0 DUP4 ADD DUP9 DUP11 PUSH2 0x1709 JUMP JUMPDEST DUP3 DUP2 SUB PUSH1 0x40 DUP5 ADD MSTORE PUSH2 0x17D0 DUP2 DUP8 DUP10 PUSH2 0x1709 JUMP JUMPDEST PUSH1 0x60 DUP5 ADD SWAP6 SWAP1 SWAP6 MSTORE POP POP PUSH1 0x80 ADD MSTORE SWAP6 SWAP5 POP POP POP POP POP JUMP JUMPDEST PUSH32 0x4E487B7100000000000000000000000000000000000000000000000000000000 PUSH1 0x0 MSTORE PUSH1 0x41 PUSH1 0x4 MSTORE PUSH1 0x24 PUSH1 0x0 REVERT JUMPDEST PUSH1 0x0 DUP1 PUSH1 0x40 DUP4 DUP6 SUB SLT ISZERO PUSH2 0x1829 JUMPI PUSH1 0x0 DUP1 REVERT JUMPDEST DUP3 CALLDATALOAD PUSH8 0xFFFFFFFFFFFFFFFF DUP1 DUP3 GT ISZERO PUSH2 0x1841 JUMPI PUSH1 0x0 DUP1 REVERT JUMPDEST DUP2 DUP6 ADD SWAP2 POP DUP6 PUSH1 0x1F DUP4 ADD SLT PUSH2 0x1855 JUMPI PUSH1 0x0 DUP1 REVERT JUMPDEST DUP2 CALLDATALOAD PUSH1 0x20 DUP3 DUP3 GT ISZERO PUSH2 0x1869 JUMPI PUSH2 0x1869 PUSH2 0x17E7 JUMP JUMPDEST DUP2 PUSH1 0x5 SHL PUSH1 0x40 MLOAD PUSH32 0xFFFFFFFFFFFFFFFFFFFFFFFFFFFFFFFFFFFFFFFFFFFFFFFFFFFFFFFFFFFFFFE0 PUSH1 0x3F DUP4 ADD AND DUP2 ADD DUP2 DUP2 LT DUP7 DUP3 GT OR ISZERO PUSH2 0x18AC JUMPI PUSH2 0x18AC PUSH2 0x17E7 JUMP JUMPDEST PUSH1 0x40 MSTORE SWAP3 DUP4 MSTORE DUP2 DUP4 ADD SWAP4 POP DUP5 DUP2 ADD DUP3 ADD SWAP3 DUP10 DUP5 GT ISZERO PUSH2 0x18CA JUMPI PUSH1 0x0 DUP1 REVERT JUMPDEST SWAP5 DUP3 ADD SWAP5 JUMPDEST DUP4 DUP7 LT ISZERO PUSH2 0x18E8 JUMPI DUP6 CALLDATALOAD DUP6 MSTORE SWAP5 DUP3 ADD SWAP5 SWAP4 DUP3 ADD SWAP4 PUSH2 0x18CF JUMP JUMPDEST SWAP10 SWAP8 SWAP1 SWAP2 ADD CALLDATALOAD SWAP8 POP POP POP POP POP POP POP JUMP JUMPDEST PUSH1 0x0 PUSH1 0x20 DUP3 DUP5 SUB SLT ISZERO PUSH2 0x190A JUMPI PUSH1 0x0 DUP1 REVERT JUMPDEST DUP2 MLOAD DUP1 ISZERO ISZERO DUP2 EQ PUSH2 0x12F7 JUMPI PUSH1 0x0 DUP1 REVERT JUMPDEST PUSH1 0x0 DUP1 DUP6 DUP6 GT ISZERO PUSH2 0x192A JUMPI PUSH1 0x0 DUP1 REVERT JUMPDEST DUP4 DUP7 GT ISZERO PUSH2 0x1937 JUMPI PUSH1 0x0 DUP1 REVERT JUMPDEST POP POP DUP3 ADD SWAP4 SWAP2 SWAP1 SWAP3 SUB SWAP2 POP JUMP INVALID LOG2 PUSH5 0x6970667358 0x22 SLT KECCAK256 SLT SGT PUSH19 0x1FDFE11A074413B4BE54F41D741A0E4CE62D39 CHAINID SWAP13 0xBA 0xBC 0xB5 0xAF 0xDE 0xF7 PUSH30 0xCD64736F6C63430008160033000000000000000000000000000000000000 "},"gasEstimates":{"creation":{"codeDepositCost":"1304400","executionCost":"infinite","totalCost":"infinite"},"external":{"CYCLE_DURATION()":"infinite","INITIAL_TIME()":"infinite","MAX_CYCLE()":"infinite","MERKLE_ROOT()":"infinite","MISSING_ORB()":"infinite","ORB_OF_POWER()":"infinite","TOKEN_MULTIPLIER()":"infinite","__msgData()":"infinite","__msgSender()":"infinite","currentCycle()":"infinite","forwarderRegistry()":"infinite","isTrustedForwarder(address)":"infinite","leafConsumptionStatus(bytes32)":"2528","multiplierInfos(address)":"2575","onERC1155BatchReceived(address,address,uint256[],uint256[],bytes)":"infinite","onERC1155Received(address,address,uint256,uint256,bytes)":"infinite","setAnichessGameMultiplierNumerator(bytes32[],address,uint256)":"infinite","supportsInterface(bytes4)":"infinite","tokenWeights(uint256)":"2504","totalAshByCycle(uint256)":"2487","userAshByCycle(uint256,address)":"2693"}},"methodIdentifiers":{"CYCLE_DURATION()":"cd421fbf","INITIAL_TIME()":"491bde66","MAX_CYCLE()":"043063bc","MERKLE_ROOT()":"51e75e8b","MISSING_ORB()":"cd18a34f","ORB_OF_POWER()":"28a979cf","TOKEN_MULTIPLIER()":"2b093fe9","__msgData()":"31e66e1e","__msgSender()":"d1a91ff2","currentCycle()":"bab2f552","forwarderRegistry()":"2b4c9f16","isTrustedForwarder(address)":"572b6c05","leafConsumptionStatus(bytes32)":"e1c96c20","multiplierInfos(address)":"b28fd6e6","onERC1155BatchReceived(address,address,uint256[],uint256[],bytes)":"bc197c81","onERC1155Received(address,address,uint256,uint256,bytes)":"f23a6e61","setAnichessGameMultiplierNumerator(bytes32[],address,uint256)":"24190c6e","supportsInterface(bytes4)":"01ffc9a7","tokenWeights(uint256)":"f5f69112","totalAshByCycle(uint256)":"6dca8c06","userAshByCycle(uint256,address)":"fa9fdc6a"}},"storageLayout":{"storage":[{"astId":1033,"contract":"contracts/mocks/burn/AnichessOrbsBurnPoolMock.sol:AnichessOrbsBurnPoolMock","label":"totalAshByCycle","offset":0,"slot":"0","type":"t_mapping(t_uint256,t_uint256)"},{"astId":1040,"contract":"contracts/mocks/burn/AnichessOrbsBurnPoolMock.sol:AnichessOrbsBurnPoolMock","label":"userAshByCycle","offset":0,"slot":"1","type":"t_mapping(t_uint256,t_mapping(t_address,t_uint256))"},{"astId":1045,"contract":"contracts/mocks/burn/AnichessOrbsBurnPoolMock.sol:AnichessOrbsBurnPoolMock","label":"leafConsumptionStatus","offset":0,"slot":"2","type":"t_mapping(t_bytes32,t_bool)"},{"astId":1050,"contract":"contracts/mocks/burn/AnichessOrbsBurnPoolMock.sol:AnichessOrbsBurnPoolMock","label":"multiplierInfos","offset":0,"slot":"3","type":"t_mapping(t_address,t_uint256)"},{"astId":1055,"contract":"contracts/mocks/burn/AnichessOrbsBurnPoolMock.sol:AnichessOrbsBurnPoolMock","label":"tokenWeights","offset":0,"slot":"4","type":"t_mapping(t_uint256,t_uint256)"}],"types":{"t_address":{"encoding":"inplace","label":"address","numberOfBytes":"20"},"t_bool":{"encoding":"inplace","label":"bool","numberOfBytes":"1"},"t_bytes32":{"encoding":"inplace","label":"bytes32","numberOfBytes":"32"},"t_mapping(t_address,t_uint256)":{"encoding":"mapping","key":"t_address","label":"mapping(address => uint256)","numberOfBytes":"32","value":"t_uint256"},"t_mapping(t_bytes32,t_bool)":{"encoding":"mapping","key":"t_bytes32","label":"mapping(bytes32 => bool)","numberOfBytes":"32","value":"t_bool"},"t_mapping(t_uint256,t_mapping(t_address,t_uint256))":{"encoding":"mapping","key":"t_uint256","label":"mapping(uint256 => mapping(address => uint256))","numberOfBytes":"32","value":"t_mapping(t_address,t_uint256)"},"t_mapping(t_uint256,t_uint256)":{"encoding":"mapping","key":"t_uint256","label":"mapping(uint256 => uint256)","numberOfBytes":"32","value":"t_uint256"},"t_uint256":{"encoding":"inplace","label":"uint256","numberOfBytes":"32"}}},"userdoc":{"errors":{"AlreadyConsumedLeaf(bytes32)":[{"notice":"Error thrown when the leaf is already consumed."}],"AlreadySetAnichessGameMultiplierNumerator(address)":[{"notice":"Error thrown when the payout has already been claimed."}],"AlreadySetTokenMultiplier(address)":[{"notice":"Error thrown when the wallet already has the token multiplier been set."}],"AlreadySetTokenWeight(uint256)":[{"notice":"Error thrown when the token weight is already set."}],"IllegalInterfaceId()":[{"notice":"Thrown when setting the illegal interfaceId 0xffffffff."}],"InvalidCycle(uint256)":[{"notice":"Error thrown when the cycle is invalid."}],"InvalidProof()":[{"notice":"Error thrown when the proof is invalid."}],"InvalidToken(address)":[{"notice":"Error thrown when the token is not approved."}],"InvalidTokenId(address,uint256)":[{"notice":"Error thrown when the token ID is invalid."}],"InvalidTokenValue(uint256,uint256)":[{"notice":"Error thrown when the token amount is invalid."}],"ZeroCycleDuration()":[{"notice":"Error thrown when the cycle duration is invalid."}],"ZeroMaxCycle()":[{"notice":"Error thrown when the cycle is invalid."}],"ZeroTokenWeight(uint256)":[{"notice":"Error thrown when the token weight is invalid."}]},"events":{"GenerateAsh(address,uint256,uint256,uint256[],uint256[],uint256,uint256)":{"notice":"Event emitted when ASH are generated."},"UpdateMultiplierInfo(address,uint256,uint256)":{"notice":"Event emitted when the multiplier info is updated."}},"kind":"user","methods":{"CYCLE_DURATION()":{"notice":"The duration of each cycle."},"INITIAL_TIME()":{"notice":"The initial time of the contract."},"MAX_CYCLE()":{"notice":"The maximum cycle."},"MERKLE_ROOT()":{"notice":"The Merkle root for setting the anichess game multiplier."},"MISSING_ORB()":{"notice":"The IERC1155 erc1155 contract for setting the token multiplier."},"ORB_OF_POWER()":{"notice":"The IERC1155Burnable erc1155 contracts burn to generate ASH."},"TOKEN_MULTIPLIER()":{"notice":"The token multiplier."},"__msgData()":{"notice":"Internal function to access the current msg.data."},"currentCycle()":{"notice":"Get the current cycle."},"isTrustedForwarder(address)":{"notice":"Checks whether a forwarder is trusted."},"leafConsumptionStatus(bytes32)":{"notice":"The merkle leaf consumption status for the anichess game multiplier."},"multiplierInfos(address)":{"notice":"The multiplier info for each user, first 128 bits are the anichess game multiplier numerator, last 128 bits are the token multiplier."},"onERC1155BatchReceived(address,address,uint256[],uint256[],bytes)":{"notice":"Burn the tokens and calculate the ash."},"onERC1155Received(address,address,uint256,uint256,bytes)":{"notice":"Set the token multiplier by burning the Riddle of Chaos.and set the AnichessGame multiplier through a Merkle proof in the data field."},"setAnichessGameMultiplierNumerator(bytes32[],address,uint256)":{"notice":"Set the AnichessGame multiplier through a Merkle proof."},"supportsInterface(bytes4)":{"notice":"Returns whether this contract implements a given interface."},"tokenWeights(uint256)":{"notice":"The token weights for calculating Ash."},"totalAshByCycle(uint256)":{"notice":"The total amount of ASH generated in each cycle."},"userAshByCycle(uint256,address)":{"notice":"The total amount of ASH generated by each user in each cycle."}},"version":1}}}}