{"contracts/staking/ERC20StakingPointsRewardsLimitedLinearPool.sol":{"ERC20StakingPointsRewardsLimitedLinearPool":{"abi":[{"inputs":[{"internalType":"address","name":"claimContract","type":"address"},{"internalType":"contract IERC20","name":"stakingToken","type":"address"},{"internalType":"contract IPoints","name":"pointsContract","type":"address"},{"internalType":"bytes32","name":"depositReasonCode","type":"bytes32"},{"internalType":"contract IForwarderRegistry","name":"forwarderRegistry","type":"address"}],"stateMutability":"nonpayable","type":"constructor"},{"inputs":[],"name":"IllegalInterfaceId","type":"error"},{"inputs":[],"name":"InvalidDuration","type":"error"},{"inputs":[],"name":"InvalidRewardAmount","type":"error"},{"inputs":[],"name":"InvalidStakeAmount","type":"error"},{"inputs":[],"name":"InvalidToken","type":"error"},{"inputs":[{"internalType":"address","name":"operator","type":"address"}],"name":"InvalidTransferOperator","type":"error"},{"inputs":[],"name":"InvalidWithdrawAmount","type":"error"},{"inputs":[{"internalType":"address","name":"account","type":"address"}],"name":"NotContractOwner","type":"error"},{"inputs":[{"internalType":"bytes32","name":"role","type":"bytes32"},{"internalType":"address","name":"account","type":"address"}],"name":"NotRoleHolder","type":"error"},{"inputs":[],"name":"OnlyReceiverInterface","type":"error"},{"inputs":[],"name":"ReentrancyGuardReentrantCall","type":"error"},{"inputs":[{"internalType":"uint256","name":"reward","type":"uint256"},{"internalType":"uint256","name":"duration","type":"uint256"}],"name":"RewardTooSmallForDuration","type":"error"},{"inputs":[{"internalType":"address","name":"token","type":"address"}],"name":"SafeERC20FailedOperation","type":"error"},{"anonymous":false,"inputs":[{"indexed":true,"internalType":"address","name":"staker","type":"address"},{"indexed":false,"internalType":"bytes","name":"claimData","type":"bytes"},{"indexed":false,"internalType":"uint256","name":"reward","type":"uint256"}],"name":"Claimed","type":"event"},{"anonymous":false,"inputs":[{"indexed":true,"internalType":"address","name":"previousOwner","type":"address"},{"indexed":true,"internalType":"address","name":"newOwner","type":"address"}],"name":"OwnershipTransferred","type":"event"},{"anonymous":false,"inputs":[{"indexed":true,"internalType":"address","name":"rewarder","type":"address"},{"indexed":false,"internalType":"uint256","name":"reward","type":"uint256"},{"indexed":false,"internalType":"uint256","name":"duration","type":"uint256"},{"indexed":false,"internalType":"uint256","name":"dust","type":"uint256"}],"name":"RewardAdded","type":"event"},{"anonymous":false,"inputs":[{"indexed":false,"internalType":"bytes32","name":"role","type":"bytes32"},{"indexed":false,"internalType":"address","name":"account","type":"address"},{"indexed":false,"internalType":"address","name":"operator","type":"address"}],"name":"RoleGranted","type":"event"},{"anonymous":false,"inputs":[{"indexed":false,"internalType":"bytes32","name":"role","type":"bytes32"},{"indexed":false,"internalType":"address","name":"account","type":"address"},{"indexed":false,"internalType":"address","name":"operator","type":"address"}],"name":"RoleRevoked","type":"event"},{"anonymous":false,"inputs":[{"indexed":true,"internalType":"address","name":"staker","type":"address"},{"indexed":false,"internalType":"bytes","name":"stakeData","type":"bytes"},{"indexed":false,"internalType":"uint256","name":"stakePoints","type":"uint256"}],"name":"Staked","type":"event"},{"anonymous":false,"inputs":[{"indexed":true,"internalType":"address","name":"staker","type":"address"},{"indexed":false,"internalType":"bytes","name":"withdrawData","type":"bytes"},{"indexed":false,"internalType":"uint256","name":"stakePoints","type":"uint256"}],"name":"Withdrawn","type":"event"},{"inputs":[],"name":"CLAIM_CONTRACT","outputs":[{"internalType":"address","name":"","type":"address"}],"stateMutability":"view","type":"function"},{"inputs":[],"name":"DEPOSIT_REASON_CODE","outputs":[{"internalType":"bytes32","name":"","type":"bytes32"}],"stateMutability":"view","type":"function"},{"inputs":[],"name":"POINTS_CONTRACT","outputs":[{"internalType":"contract IPoints","name":"","type":"address"}],"stateMutability":"view","type":"function"},{"inputs":[],"name":"REWARDER_ROLE","outputs":[{"internalType":"bytes32","name":"","type":"bytes32"}],"stateMutability":"view","type":"function"},{"inputs":[],"name":"SCALING_FACTOR","outputs":[{"internalType":"uint256","name":"","type":"uint256"}],"stateMutability":"view","type":"function"},{"inputs":[],"name":"STAKING_TOKEN","outputs":[{"internalType":"contract IERC20","name":"","type":"address"}],"stateMutability":"view","type":"function"},{"inputs":[{"internalType":"uint256","name":"reward","type":"uint256"},{"internalType":"uint256","name":"duration","type":"uint256"}],"name":"addReward","outputs":[],"stateMutability":"payable","type":"function"},{"inputs":[],"name":"claim","outputs":[],"stateMutability":"nonpayable","type":"function"},{"inputs":[],"name":"distributionEnd","outputs":[{"internalType":"uint256","name":"","type":"uint256"}],"stateMutability":"view","type":"function"},{"inputs":[{"internalType":"address","name":"account","type":"address"}],"name":"earned","outputs":[{"internalType":"uint256","name":"","type":"uint256"}],"stateMutability":"view","type":"function"},{"inputs":[],"name":"forwarderRegistry","outputs":[{"internalType":"contract IForwarderRegistry","name":"","type":"address"}],"stateMutability":"view","type":"function"},{"inputs":[{"internalType":"bytes32","name":"role","type":"bytes32"},{"internalType":"address","name":"account","type":"address"}],"name":"grantRole","outputs":[],"stateMutability":"nonpayable","type":"function"},{"inputs":[{"internalType":"bytes32","name":"role","type":"bytes32"},{"internalType":"address","name":"account","type":"address"}],"name":"hasRole","outputs":[{"internalType":"bool","name":"hasRole_","type":"bool"}],"stateMutability":"view","type":"function"},{"inputs":[{"internalType":"address","name":"forwarder","type":"address"}],"name":"isTrustedForwarder","outputs":[{"internalType":"bool","name":"","type":"bool"}],"stateMutability":"view","type":"function"},{"inputs":[],"name":"lastTimeRewardApplicable","outputs":[{"internalType":"uint256","name":"","type":"uint256"}],"stateMutability":"view","type":"function"},{"inputs":[],"name":"lastUpdated","outputs":[{"internalType":"uint256","name":"","type":"uint256"}],"stateMutability":"view","type":"function"},{"inputs":[{"internalType":"address","name":"operator","type":"address"},{"internalType":"address","name":"","type":"address"},{"internalType":"uint256","name":"value","type":"uint256"},{"internalType":"bytes","name":"data","type":"bytes"}],"name":"onERC20Received","outputs":[{"internalType":"bytes4","name":"","type":"bytes4"}],"stateMutability":"nonpayable","type":"function"},{"inputs":[],"name":"owner","outputs":[{"internalType":"address","name":"","type":"address"}],"stateMutability":"view","type":"function"},{"inputs":[{"internalType":"bytes32","name":"role","type":"bytes32"}],"name":"renounceRole","outputs":[],"stateMutability":"nonpayable","type":"function"},{"inputs":[{"internalType":"bytes32","name":"role","type":"bytes32"},{"internalType":"address","name":"account","type":"address"}],"name":"revokeRole","outputs":[],"stateMutability":"nonpayable","type":"function"},{"inputs":[],"name":"rewardPerStakePoint","outputs":[{"internalType":"uint256","name":"","type":"uint256"}],"stateMutability":"view","type":"function"},{"inputs":[{"internalType":"address","name":"staker","type":"address"}],"name":"rewardPerStakePointPaid","outputs":[{"internalType":"uint256","name":"paid","type":"uint256"}],"stateMutability":"view","type":"function"},{"inputs":[],"name":"rewardPerStakePointStored","outputs":[{"internalType":"uint256","name":"","type":"uint256"}],"stateMutability":"view","type":"function"},{"inputs":[],"name":"rewardRate","outputs":[{"internalType":"uint256","name":"","type":"uint256"}],"stateMutability":"view","type":"function"},{"inputs":[{"internalType":"address","name":"staker","type":"address"}],"name":"rewards","outputs":[{"internalType":"uint256","name":"reward","type":"uint256"}],"stateMutability":"view","type":"function"},{"inputs":[{"internalType":"bytes","name":"","type":"bytes"}],"name":"stake","outputs":[],"stateMutability":"payable","type":"function"},{"inputs":[{"internalType":"address","name":"staker","type":"address"}],"name":"staked","outputs":[{"internalType":"uint256","name":"stakePoints","type":"uint256"}],"stateMutability":"view","type":"function"},{"inputs":[{"internalType":"bytes4","name":"interfaceId","type":"bytes4"}],"name":"supportsInterface","outputs":[{"internalType":"bool","name":"","type":"bool"}],"stateMutability":"view","type":"function"},{"inputs":[],"name":"totalStaked","outputs":[{"internalType":"uint256","name":"","type":"uint256"}],"stateMutability":"view","type":"function"},{"inputs":[{"internalType":"address","name":"newOwner","type":"address"}],"name":"transferOwnership","outputs":[],"stateMutability":"nonpayable","type":"function"},{"inputs":[{"internalType":"bytes","name":"withdrawData","type":"bytes"}],"name":"withdraw","outputs":[],"stateMutability":"nonpayable","type":"function"}],"devdoc":{"errors":{"NotContractOwner(address)":[{"params":{"account":"The account that was checked."}}],"NotRoleHolder(bytes32,address)":[{"params":{"account":"The account that was checked.","role":"The role the caller is missing."}}],"ReentrancyGuardReentrantCall()":[{"details":"Unauthorized reentrant call."}],"SafeERC20FailedOperation(address)":[{"details":"An operation with an ERC-20 token failed."}]},"events":{"OwnershipTransferred(address,address)":{"params":{"newOwner":"the new contract owner.","previousOwner":"the previous contract owner."}},"RoleGranted(bytes32,address,address)":{"params":{"account":"The account that has been granted the role.","operator":"The account that granted the role.","role":"The role that has been granted."}},"RoleRevoked(bytes32,address,address)":{"params":{"account":"The account that has been revoked the role.","operator":"The account that revoked the role.","role":"The role that has been revoked."}}},"kind":"dev","methods":{"grantRole(bytes32,address)":{"details":"Reverts with {NotContractOwner} if the sender is not the contract owner.Emits a {RoleGranted} event if the account did not previously have the role.","params":{"account":"The account to grant the role to.","role":"The role to grant."}},"hasRole(bytes32,address)":{"params":{"account":"The account.","role":"The role."},"returns":{"hasRole_":"Whether `account` has `role`."}},"isTrustedForwarder(address)":{"params":{"forwarder":"The forwarder to check."},"returns":{"_0":"True if `forwarder` is trusted, false if not."}},"owner()":{"returns":{"_0":"The address of the contract owner."}},"renounceRole(bytes32)":{"details":"Reverts if `sender` does not have `role`.Emits a {RoleRevoked} event.","params":{"role":"The role to renounce."}},"revokeRole(bytes32,address)":{"details":"Reverts with {NotContractOwner} if the sender is not the contract owner.Emits a {RoleRevoked} event if the account previously had the role.","params":{"account":"The account to revoke the role from.","role":"The role to revoke."}},"supportsInterface(bytes4)":{"details":"Note: This function call must use less than 30 000 gas.","params":{"interfaceId":"the interface identifier to test."},"returns":{"_0":"True if the interface is supported, false if `interfaceId` is `0xffffffff` or if the interface is not supported."}},"transferOwnership(address)":{"details":"Reverts if the sender is not the contract owner.Emits an {OwnershipTransferred} event if `newOwner` is different from the current contract owner.","params":{"newOwner":"The address of the new contract owner. Using the zero address means renouncing ownership."}}},"version":1},"evm":{"bytecode":{"linkReferences":{},"object":"61012060405234801561001157600080fd5b50604051612110380380612110833981016040819052610030916101f5565b83838383828285838080803361004e816100486100b0565b906100e4565b50600160008190556001600160a01b039091166080526100829250634fc3585960e01b915061007b610153565b9190610181565b506001600160a01b0390811660a05291821660c05260e0529890981661010052506102819650505050505050565b6000806100de60017fc9ed16f33ab3a66c84bfd83099ccb2a8845871e2e1c1928f63797152f0fd54cd610260565b92915050565b6001600160a01b0381161561013a5781546001600160a01b0319166001600160a01b03821690811783556040516000907f8be0079c531659141344cd1fd0a4f28419497f9722a3daafe3b4186f6b6457e0908290a35b61014f6307f5828d60e41b600161007b610153565b5050565b6000806100de60017fca9d3e17f264b0f3984e2634e94adb37fa3e6a8103f06aeae6fa59e21c769f5e610260565b600160e01b6001600160e01b03198316016101af576040516372c683bb60e01b815260040160405180910390fd5b6001600160e01b03199190911660009081526020929092526040909120805460ff1916911515919091179055565b6001600160a01b03811681146101f257600080fd5b50565b600080600080600060a0868803121561020d57600080fd5b8551610218816101dd565b6020870151909550610229816101dd565b604087015190945061023a816101dd565b606087015160808801519194509250610252816101dd565b809150509295509295909350565b818103818111156100de57634e487b7160e01b600052601160045260246000fd5b60805160a05160c05160e05161010051611e136102fd6000396000818161049c01526109800152600081816102f901526118b501526000818161038801526118de01526000818161025101528181610927015261180101526000818161032a0152818161044d015281816116c501526117530152611e136000f3fe6080604052600436106101d75760003560e01c806375c93bb91161010257806398807d8411610095578063d547741f11610064578063d547741f14610621578063ef4cadc514610641578063efa90b541461065d578063f2fde38b1461067357600080fd5b806398807d841461059b5780639d696e36146105c8578063c5c8f770146105de578063d0b06f5d1461060b57600080fd5b80638580cf76116100d15780638580cf76146105125780638bb9c5bf146105465780638da5cb5b1461056657806391d148541461057b57600080fd5b806375c93bb9146104be5780637b0a47ee146104d157806380faa57d146104e7578063817b1cd2146104fc57600080fd5b80632c9d0b801161017a5780634e71d92d116101495780634e71d92d146103ca5780634fc35859146103df578063572b6c051461043057806362ba90961461048a57600080fd5b80632c9d0b801461034e5780632d1e0c02146103635780632d4c2f93146103765780632f2ff15d146103aa57600080fd5b80630700037d116101b65780630700037d146102985780630968f264146102c55780632196e445146102e75780632b4c9f161461031b57600080fd5b80628cc262146101dc57806301ffc9a71461020f5780630479d6441461023f575b600080fd5b3480156101e857600080fd5b506101fc6101f7366004611aa4565b610693565b6040519081526020015b60405180910390f35b34801561021b57600080fd5b5061022f61022a366004611ac1565b61072a565b6040519015158152602001610206565b34801561024b57600080fd5b506102737f000000000000000000000000000000000000000000000000000000000000000081565b60405173ffffffffffffffffffffffffffffffffffffffff9091168152602001610206565b3480156102a457600080fd5b506101fc6102b3366004611aa4565b60076020526000908152604090205481565b3480156102d157600080fd5b506102e56102e0366004611b4c565b61073e565b005b3480156102f357600080fd5b506101fc7f000000000000000000000000000000000000000000000000000000000000000081565b34801561032757600080fd5b507f0000000000000000000000000000000000000000000000000000000000000000610273565b34801561035a57600080fd5b506101fc610789565b6102e5610371366004611b4c565b6107f1565b34801561038257600080fd5b506102737f000000000000000000000000000000000000000000000000000000000000000081565b3480156103b657600080fd5b506102e56103c5366004611b8e565b610823565b3480156103d657600080fd5b506102e561085c565b3480156103eb57600080fd5b506103ff6103fa366004611bbe565b61090d565b6040517fffffffff000000000000000000000000000000000000000000000000000000009091168152602001610206565b34801561043c57600080fd5b5061022f61044b366004611aa4565b7f000000000000000000000000000000000000000000000000000000000000000073ffffffffffffffffffffffffffffffffffffffff90811691161490565b34801561049657600080fd5b506102737f000000000000000000000000000000000000000000000000000000000000000081565b6102e56104cc366004611c31565b610a8b565b3480156104dd57600080fd5b506101fc60035481565b3480156104f357600080fd5b506101fc610d60565b34801561050857600080fd5b506101fc60015481565b34801561051e57600080fd5b506101fc7f726577617264657200000000000000000000000000000000000000000000000081565b34801561055257600080fd5b506102e5610561366004611c53565b610d7a565b34801561057257600080fd5b50610273610d98565b34801561058757600080fd5b5061022f610596366004611b8e565b610dc4565b3480156105a757600080fd5b506101fc6105b6366004611aa4565b60066020526000908152604090205481565b3480156105d457600080fd5b506101fc60045481565b3480156105ea57600080fd5b506101fc6105f9366004611aa4565b60086020526000908152604090205481565b34801561061757600080fd5b506101fc60025481565b34801561062d57600080fd5b506102e561063c366004611b8e565b610e0f565b34801561064d57600080fd5b506101fc670de0b6b3a764000081565b34801561066957600080fd5b506101fc60055481565b34801561067f57600080fd5b506102e561068e366004611aa4565b610e3d565b73ffffffffffffffffffffffffffffffffffffffff81166000908152600760209081526040808320546008909252822054670de0b6b3a7640000906106d6610789565b6106e09190611c9b565b73ffffffffffffffffffffffffffffffffffffffff85166000908152600660205260409020546107109190611cae565b61071a9190611cf4565b6107249190611d08565b92915050565b600061072482610738610e58565b90610e86565b610785610749610f60565b83838080601f016020809104026020016040519081016040528093929190818152602001838380828437600092019190915250610f6a92505050565b5050565b60015460009080820361079e57505060045490565b80670de0b6b3a76400006003546002546107b6610d60565b6107c09190611c9b565b6107ca9190611cae565b6107d49190611cae565b6107de9190611cf4565b6004546107eb9190611d08565b91505090565b6040517f7a404b1900000000000000000000000000000000000000000000000000000000815260040160405180910390fd5b600061082d610f60565b90506108418161083b611056565b90611084565b61085783838361084f6110ef565b92919061111d565b505050565b6000610866610f60565b9050610871816111f4565b600061087c82610693565b905080156107855773ffffffffffffffffffffffffffffffffffffffff821660009081526007602052604081208190556108b68383611282565b90508273ffffffffffffffffffffffffffffffffffffffff167f4196decb55b5644a278b6ded1c42a27acb5182aa099b1fd48974bcc0cf263fd58284604051610900929190611d1b565b60405180910390a2505050565b60003373ffffffffffffffffffffffffffffffffffffffff7f0000000000000000000000000000000000000000000000000000000000000000161461097e576040517fc1ab6dc100000000000000000000000000000000000000000000000000000000815260040160405180910390fd5b7f000000000000000000000000000000000000000000000000000000000000000073ffffffffffffffffffffffffffffffffffffffff168673ffffffffffffffffffffffffffffffffffffffff16148690610a23576040517fd0411ac500000000000000000000000000000000000000000000000000000000815273ffffffffffffffffffffffffffffffffffffffff90911660048201526024015b60405180910390fd5b506000610a3283850185611aa4565b9050610a5f8186604051602001610a4b91815260200190565b60405160208183030381529060405261128e565b507f4fc35859000000000000000000000000000000000000000000000000000000009695505050505050565b6000610a95610f60565b9050610acb7f726577617264657200000000000000000000000000000000000000000000000082610ac46110ef565b919061137a565b82600003610b05576040517f3853986500000000000000000000000000000000000000000000000000000000815260040160405180910390fd5b81600003610b3f576040517f7616640100000000000000000000000000000000000000000000000000000000815260040160405180910390fd5b610b4960006111f4565b60055460009081610b5a8542611d08565b9050814210610bd2576000610b6f8688611cf4565b9050868682610bb3576040517f99e66a4900000000000000000000000000000000000000000000000000000000815260048101929092526024820152604401610a1a565b50506003819055610bc48688611d8e565b60058390559350610cfb9050565b818111610c6157610be34283611c9b565b94506000610bf18688611cf4565b9050868682610c35576040517f99e66a4900000000000000000000000000000000000000000000000000000000815260048101929092526024820152604401610a1a565b50508060036000828254610c499190611d08565b90915550610c5990508688611d8e565b935050610cfb565b610c6b8587611cf4565b86908690610cae576040517f99e66a4900000000000000000000000000000000000000000000000000000000815260048101929092526024820152604401610a1a565b5060009050610cbd4284611c9b565b600354610cca9190611cae565b90506000610cd88883611d08565b9050610ce48782611cf4565b600355610cf18782611d8e565b6005849055945050505b42600255604080518781526020810187905290810184905273ffffffffffffffffffffffffffffffffffffffff8516907f0727302becd070529b3293f4ec8f553d9f6ae1773f638598db1205fbf89080839060600160405180910390a2505050505050565b600554600090428111610d7357806107eb565b4291505090565b610d95610d85610f60565b82610d8e6110ef565b9190611400565b50565b6000610dbf610da5611056565b5473ffffffffffffffffffffffffffffffffffffffff1690565b905090565b6000610e088383610dd36110ef565b60009283526020908152604080842073ffffffffffffffffffffffffffffffffffffffff909316845291905290205460ff1690565b9392505050565b6000610e19610f60565b9050610e278161083b611056565b610857838383610e356110ef565b9291906114a4565b610d95610e48610f60565b82610e51611056565b919061156e565b60008061072460017fca9d3e17f264b0f3984e2634e94adb37fa3e6a8103f06aeae6fa59e21c769f5e611c9b565b60007c01000000000000000000000000000000000000000000000000000000007fffffffff00000000000000000000000000000000000000000000000000000000831601610ed657506000610724565b7ffe003659000000000000000000000000000000000000000000000000000000007fffffffff00000000000000000000000000000000000000000000000000000000831601610f2757506001610724565b507fffffffff00000000000000000000000000000000000000000000000000000000166000908152602091909152604090205460ff1690565b6000610dbf611682565b610f73826111f4565b6000610f7f83836117cf565b905080600003610fbb576040517fdb73cdf000000000000000000000000000000000000000000000000000000000815260040160405180910390fd5b8060016000828254610fcd9190611c9b565b909155505073ffffffffffffffffffffffffffffffffffffffff831660009081526006602052604081208054839290611007908490611c9b565b925050819055508273ffffffffffffffffffffffffffffffffffffffff167faae638dec0d864ccb08558c28981bcfaee41330f57c4911cbe2d8432d0fb729e8383604051610900929190611d1b565b60008061072460017fc9ed16f33ab3a66c84bfd83099ccb2a8845871e2e1c1928f63797152f0fd54cd611c9b565b815473ffffffffffffffffffffffffffffffffffffffff828116911614610785576040517f2ef4875e00000000000000000000000000000000000000000000000000000000815273ffffffffffffffffffffffffffffffffffffffff82166004820152602401610a1a565b60008061072460017fc8827d3282af6f37b64c3e9e6f3ac9df286ab0bb0fccd6f8661bf19adb368b23611c9b565b60008381526020858152604080832073ffffffffffffffffffffffffffffffffffffffff8616845290915290205460ff166111ee5760008381526020858152604080832073ffffffffffffffffffffffffffffffffffffffff8681168086529184529382902080547fffffffffffffffffffffffffffffffffffffffffffffffffffffffffffffff00166001179055815187815292830152918316918101919091527f2f8788117e7eff1d82e926ec794901d17c78024a50270940304540a733656f0d906060015b60405180910390a15b50505050565b6111fc610789565b60045560055442101580611211575060015415155b156112225761121e610d60565b6002555b73ffffffffffffffffffffffffffffffffffffffff811615610d955761124781610693565b73ffffffffffffffffffffffffffffffffffffffff821660009081526007602090815260408083209390935560045460089091529190205550565b6060610e088383611828565b611297826111f4565b60006112a38383611940565b9050806000036112df576040517f040ef8ec00000000000000000000000000000000000000000000000000000000815260040160405180910390fd5b80600160008282546112f19190611d08565b909155505073ffffffffffffffffffffffffffffffffffffffff83166000908152600660205260408120805483929061132b908490611d08565b925050819055508273ffffffffffffffffffffffffffffffffffffffff167ff4679d394f1f97f1a3df1d73e193866ec5a813168ad5fa6958f9be21b10a594e8383604051610900929190611d1b565b60008281526020848152604080832073ffffffffffffffffffffffffffffffffffffffff8516845290915290205460ff16610857576040517f7aa728820000000000000000000000000000000000000000000000000000000081526004810183905273ffffffffffffffffffffffffffffffffffffffff82166024820152604401610a1a565b61140b83828461137a565b60008181526020848152604080832073ffffffffffffffffffffffffffffffffffffffff86168085529083529281902080547fffffffffffffffffffffffffffffffffffffffffffffffffffffffffffffff0016905580518481529182018390528101919091527ff6391f5c32d9c69d2a47ea670b442974b53935d1edc7fd64eb21e047a839171b9060600160405180910390a1505050565b60008381526020858152604080832073ffffffffffffffffffffffffffffffffffffffff8616845290915290205460ff16156111ee5760008381526020858152604080832073ffffffffffffffffffffffffffffffffffffffff8681168086529184529382902080547fffffffffffffffffffffffffffffffffffffffffffffffffffffffffffffff00169055815187815292830152918316918101919091527ff6391f5c32d9c69d2a47ea670b442974b53935d1edc7fd64eb21e047a839171b906060016111e5565b825473ffffffffffffffffffffffffffffffffffffffff90811690831681146115db576040517f2ef4875e00000000000000000000000000000000000000000000000000000000815273ffffffffffffffffffffffffffffffffffffffff84166004820152602401610a1a565b8173ffffffffffffffffffffffffffffffffffffffff168173ffffffffffffffffffffffffffffffffffffffff16146111ee5783547fffffffffffffffffffffffff00000000000000000000000000000000000000001673ffffffffffffffffffffffffffffffffffffffff8381169182178655604051908316907f8be0079c531659141344cd1fd0a4f28419497f9722a3daafe3b4186f6b6457e090600090a350505050565b6000333214806116925750601836105b1561169c57503390565b7fffffffffffffffffffffffffffffffffffffffffffffffffffffffffffffffec36013560601c7f000000000000000000000000000000000000000000000000000000000000000073ffffffffffffffffffffffffffffffffffffffff163314806117be57506040517f019a202800000000000000000000000000000000000000000000000000000000815273ffffffffffffffffffffffffffffffffffffffff82811660048301523360248301523060448301527f0000000000000000000000000000000000000000000000000000000000000000169063019a202890606401602060405180830381865afa15801561179a573d6000803e3d6000fd5b505050506040513d601f19601f820116820180604052508101906117be9190611da2565b156117c857919050565b3391505090565b6000818060200190518101906117e59190611dc4565b905061072473ffffffffffffffffffffffffffffffffffffffff7f0000000000000000000000000000000000000000000000000000000000000000168483611956565b60608160405160200161183d91815260200190565b604080518083037fffffffffffffffffffffffffffffffffffffffffffffffffffffffffffffffe0018152908290527f26b3293f00000000000000000000000000000000000000000000000000000000825273ffffffffffffffffffffffffffffffffffffffff8581166004840152602483018590527f000000000000000000000000000000000000000000000000000000000000000060448401529092507f000000000000000000000000000000000000000000000000000000000000000016906326b3293f90606401600060405180830381600087803b15801561192257600080fd5b505af1158015611936573d6000803e3d6000fd5b5050505092915050565b600081806020019051810190610e089190611dc4565b6040805173ffffffffffffffffffffffffffffffffffffffff841660248201526044808201849052825180830390910181526064909101909152602080820180517bffffffffffffffffffffffffffffffffffffffffffffffffffffffff167fa9059cbb000000000000000000000000000000000000000000000000000000001781528251610857938793909260009283929183919082885af180611a01576040513d6000823e3d81fd5b50506000513d91508115611a19578060011415611a33565b73ffffffffffffffffffffffffffffffffffffffff84163b155b156111ee576040517f5274afe700000000000000000000000000000000000000000000000000000000815273ffffffffffffffffffffffffffffffffffffffff85166004820152602401610a1a565b73ffffffffffffffffffffffffffffffffffffffff81168114610d9557600080fd5b600060208284031215611ab657600080fd5b8135610e0881611a82565b600060208284031215611ad357600080fd5b81357fffffffff0000000000000000000000000000000000000000000000000000000081168114610e0857600080fd5b60008083601f840112611b1557600080fd5b50813567ffffffffffffffff811115611b2d57600080fd5b602083019150836020828501011115611b4557600080fd5b9250929050565b60008060208385031215611b5f57600080fd5b823567ffffffffffffffff811115611b7657600080fd5b611b8285828601611b03565b90969095509350505050565b60008060408385031215611ba157600080fd5b823591506020830135611bb381611a82565b809150509250929050565b600080600080600060808688031215611bd657600080fd5b8535611be181611a82565b94506020860135611bf181611a82565b935060408601359250606086013567ffffffffffffffff811115611c1457600080fd5b611c2088828901611b03565b969995985093965092949392505050565b60008060408385031215611c4457600080fd5b50508035926020909101359150565b600060208284031215611c6557600080fd5b5035919050565b7f4e487b7100000000000000000000000000000000000000000000000000000000600052601160045260246000fd5b8181038181111561072457610724611c6c565b808202811582820484141761072457610724611c6c565b7f4e487b7100000000000000000000000000000000000000000000000000000000600052601260045260246000fd5b600082611d0357611d03611cc5565b500490565b8082018082111561072457610724611c6c565b604081526000835180604084015260005b81811015611d495760208187018101516060868401015201611d2c565b5060006060828501015260607fffffffffffffffffffffffffffffffffffffffffffffffffffffffffffffffe0601f8301168401019150508260208301529392505050565b600082611d9d57611d9d611cc5565b500690565b600060208284031215611db457600080fd5b81518015158114610e0857600080fd5b600060208284031215611dd657600080fd5b505191905056fea2646970667358221220d17693abdb43543bc7dce3d7f9d9c105650aa8e3d0763e3b5fd85f19c9a6064764736f6c634300081c0033","opcodes":"PUSH2 0x120 PUSH1 0x40 MSTORE CALLVALUE DUP1 ISZERO PUSH2 0x11 JUMPI PUSH1 0x0 DUP1 REVERT JUMPDEST POP PUSH1 0x40 MLOAD PUSH2 0x2110 CODESIZE SUB DUP1 PUSH2 0x2110 DUP4 CODECOPY DUP2 ADD PUSH1 0x40 DUP2 SWAP1 MSTORE PUSH2 0x30 SWAP2 PUSH2 0x1F5 JUMP JUMPDEST DUP4 DUP4 DUP4 DUP4 DUP3 DUP3 DUP6 DUP4 DUP1 DUP1 DUP1 CALLER PUSH2 0x4E DUP2 PUSH2 0x48 PUSH2 0xB0 JUMP JUMPDEST SWAP1 PUSH2 0xE4 JUMP JUMPDEST POP PUSH1 0x1 PUSH1 0x0 DUP2 SWAP1 SSTORE PUSH1 0x1 PUSH1 0x1 PUSH1 0xA0 SHL SUB SWAP1 SWAP2 AND PUSH1 0x80 MSTORE PUSH2 0x82 SWAP3 POP PUSH4 0x4FC35859 PUSH1 0xE0 SHL SWAP2 POP PUSH2 0x7B PUSH2 0x153 JUMP JUMPDEST SWAP2 SWAP1 PUSH2 0x181 JUMP JUMPDEST POP PUSH1 0x1 PUSH1 0x1 PUSH1 0xA0 SHL SUB SWAP1 DUP2 AND PUSH1 0xA0 MSTORE SWAP2 DUP3 AND PUSH1 0xC0 MSTORE PUSH1 0xE0 MSTORE SWAP9 SWAP1 SWAP9 AND PUSH2 0x100 MSTORE POP PUSH2 0x281 SWAP7 POP POP POP POP POP POP POP JUMP JUMPDEST PUSH1 0x0 DUP1 PUSH2 0xDE PUSH1 0x1 PUSH32 0xC9ED16F33AB3A66C84BFD83099CCB2A8845871E2E1C1928F63797152F0FD54CD PUSH2 0x260 JUMP JUMPDEST SWAP3 SWAP2 POP POP JUMP JUMPDEST PUSH1 0x1 PUSH1 0x1 PUSH1 0xA0 SHL SUB DUP2 AND ISZERO PUSH2 0x13A JUMPI DUP2 SLOAD PUSH1 0x1 PUSH1 0x1 PUSH1 0xA0 SHL SUB NOT AND PUSH1 0x1 PUSH1 0x1 PUSH1 0xA0 SHL SUB DUP3 AND SWAP1 DUP2 OR DUP4 SSTORE PUSH1 0x40 MLOAD PUSH1 0x0 SWAP1 PUSH32 0x8BE0079C531659141344CD1FD0A4F28419497F9722A3DAAFE3B4186F6B6457E0 SWAP1 DUP3 SWAP1 LOG3 JUMPDEST PUSH2 0x14F PUSH4 0x7F5828D PUSH1 0xE4 SHL PUSH1 0x1 PUSH2 0x7B PUSH2 0x153 JUMP JUMPDEST POP POP JUMP JUMPDEST PUSH1 0x0 DUP1 PUSH2 0xDE PUSH1 0x1 PUSH32 0xCA9D3E17F264B0F3984E2634E94ADB37FA3E6A8103F06AEAE6FA59E21C769F5E PUSH2 0x260 JUMP JUMPDEST PUSH1 0x1 PUSH1 0xE0 SHL PUSH1 0x1 PUSH1 0x1 PUSH1 0xE0 SHL SUB NOT DUP4 AND ADD PUSH2 0x1AF JUMPI PUSH1 0x40 MLOAD PUSH4 0x72C683BB PUSH1 0xE0 SHL DUP2 MSTORE PUSH1 0x4 ADD PUSH1 0x40 MLOAD DUP1 SWAP2 SUB SWAP1 REVERT JUMPDEST PUSH1 0x1 PUSH1 0x1 PUSH1 0xE0 SHL SUB NOT SWAP2 SWAP1 SWAP2 AND PUSH1 0x0 SWAP1 DUP2 MSTORE PUSH1 0x20 SWAP3 SWAP1 SWAP3 MSTORE PUSH1 0x40 SWAP1 SWAP2 KECCAK256 DUP1 SLOAD PUSH1 0xFF NOT AND SWAP2 ISZERO ISZERO SWAP2 SWAP1 SWAP2 OR SWAP1 SSTORE JUMP JUMPDEST PUSH1 0x1 PUSH1 0x1 PUSH1 0xA0 SHL SUB DUP2 AND DUP2 EQ PUSH2 0x1F2 JUMPI PUSH1 0x0 DUP1 REVERT JUMPDEST POP JUMP JUMPDEST PUSH1 0x0 DUP1 PUSH1 0x0 DUP1 PUSH1 0x0 PUSH1 0xA0 DUP7 DUP9 SUB SLT ISZERO PUSH2 0x20D JUMPI PUSH1 0x0 DUP1 REVERT JUMPDEST DUP6 MLOAD PUSH2 0x218 DUP2 PUSH2 0x1DD JUMP JUMPDEST PUSH1 0x20 DUP8 ADD MLOAD SWAP1 SWAP6 POP PUSH2 0x229 DUP2 PUSH2 0x1DD JUMP JUMPDEST PUSH1 0x40 DUP8 ADD MLOAD SWAP1 SWAP5 POP PUSH2 0x23A DUP2 PUSH2 0x1DD JUMP JUMPDEST PUSH1 0x60 DUP8 ADD MLOAD PUSH1 0x80 DUP9 ADD MLOAD SWAP2 SWAP5 POP SWAP3 POP PUSH2 0x252 DUP2 PUSH2 0x1DD JUMP JUMPDEST DUP1 SWAP2 POP POP SWAP3 SWAP6 POP SWAP3 SWAP6 SWAP1 SWAP4 POP JUMP JUMPDEST DUP2 DUP2 SUB DUP2 DUP2 GT ISZERO PUSH2 0xDE JUMPI PUSH4 0x4E487B71 PUSH1 0xE0 SHL PUSH1 0x0 MSTORE PUSH1 0x11 PUSH1 0x4 MSTORE PUSH1 0x24 PUSH1 0x0 REVERT JUMPDEST PUSH1 0x80 MLOAD PUSH1 0xA0 MLOAD PUSH1 0xC0 MLOAD PUSH1 0xE0 MLOAD PUSH2 0x100 MLOAD PUSH2 0x1E13 PUSH2 0x2FD PUSH1 0x0 CODECOPY PUSH1 0x0 DUP2 DUP2 PUSH2 0x49C ADD MSTORE PUSH2 0x980 ADD MSTORE PUSH1 0x0 DUP2 DUP2 PUSH2 0x2F9 ADD MSTORE PUSH2 0x18B5 ADD MSTORE PUSH1 0x0 DUP2 DUP2 PUSH2 0x388 ADD MSTORE PUSH2 0x18DE ADD MSTORE PUSH1 0x0 DUP2 DUP2 PUSH2 0x251 ADD MSTORE DUP2 DUP2 PUSH2 0x927 ADD MSTORE PUSH2 0x1801 ADD MSTORE PUSH1 0x0 DUP2 DUP2 PUSH2 0x32A ADD MSTORE DUP2 DUP2 PUSH2 0x44D ADD MSTORE DUP2 DUP2 PUSH2 0x16C5 ADD MSTORE PUSH2 0x1753 ADD MSTORE PUSH2 0x1E13 PUSH1 0x0 RETURN INVALID PUSH1 0x80 PUSH1 0x40 MSTORE PUSH1 0x4 CALLDATASIZE LT PUSH2 0x1D7 JUMPI PUSH1 0x0 CALLDATALOAD PUSH1 0xE0 SHR DUP1 PUSH4 0x75C93BB9 GT PUSH2 0x102 JUMPI DUP1 PUSH4 0x98807D84 GT PUSH2 0x95 JUMPI DUP1 PUSH4 0xD547741F GT PUSH2 0x64 JUMPI DUP1 PUSH4 0xD547741F EQ PUSH2 0x621 JUMPI DUP1 PUSH4 0xEF4CADC5 EQ PUSH2 0x641 JUMPI DUP1 PUSH4 0xEFA90B54 EQ PUSH2 0x65D JUMPI DUP1 PUSH4 0xF2FDE38B EQ PUSH2 0x673 JUMPI PUSH1 0x0 DUP1 REVERT JUMPDEST DUP1 PUSH4 0x98807D84 EQ PUSH2 0x59B JUMPI DUP1 PUSH4 0x9D696E36 EQ PUSH2 0x5C8 JUMPI DUP1 PUSH4 0xC5C8F770 EQ PUSH2 0x5DE JUMPI DUP1 PUSH4 0xD0B06F5D EQ PUSH2 0x60B JUMPI PUSH1 0x0 DUP1 REVERT JUMPDEST DUP1 PUSH4 0x8580CF76 GT PUSH2 0xD1 JUMPI DUP1 PUSH4 0x8580CF76 EQ PUSH2 0x512 JUMPI DUP1 PUSH4 0x8BB9C5BF EQ PUSH2 0x546 JUMPI DUP1 PUSH4 0x8DA5CB5B EQ PUSH2 0x566 JUMPI DUP1 PUSH4 0x91D14854 EQ PUSH2 0x57B JUMPI PUSH1 0x0 DUP1 REVERT JUMPDEST DUP1 PUSH4 0x75C93BB9 EQ PUSH2 0x4BE JUMPI DUP1 PUSH4 0x7B0A47EE EQ PUSH2 0x4D1 JUMPI DUP1 PUSH4 0x80FAA57D EQ PUSH2 0x4E7 JUMPI DUP1 PUSH4 0x817B1CD2 EQ PUSH2 0x4FC JUMPI PUSH1 0x0 DUP1 REVERT JUMPDEST DUP1 PUSH4 0x2C9D0B80 GT PUSH2 0x17A JUMPI DUP1 PUSH4 0x4E71D92D GT PUSH2 0x149 JUMPI DUP1 PUSH4 0x4E71D92D EQ PUSH2 0x3CA JUMPI DUP1 PUSH4 0x4FC35859 EQ PUSH2 0x3DF JUMPI DUP1 PUSH4 0x572B6C05 EQ PUSH2 0x430 JUMPI DUP1 PUSH4 0x62BA9096 EQ PUSH2 0x48A JUMPI PUSH1 0x0 DUP1 REVERT JUMPDEST DUP1 PUSH4 0x2C9D0B80 EQ PUSH2 0x34E JUMPI DUP1 PUSH4 0x2D1E0C02 EQ PUSH2 0x363 JUMPI DUP1 PUSH4 0x2D4C2F93 EQ PUSH2 0x376 JUMPI DUP1 PUSH4 0x2F2FF15D EQ PUSH2 0x3AA JUMPI PUSH1 0x0 DUP1 REVERT JUMPDEST DUP1 PUSH4 0x700037D GT PUSH2 0x1B6 JUMPI DUP1 PUSH4 0x700037D EQ PUSH2 0x298 JUMPI DUP1 PUSH4 0x968F264 EQ PUSH2 0x2C5 JUMPI DUP1 PUSH4 0x2196E445 EQ PUSH2 0x2E7 JUMPI DUP1 PUSH4 0x2B4C9F16 EQ PUSH2 0x31B JUMPI PUSH1 0x0 DUP1 REVERT JUMPDEST DUP1 PUSH3 0x8CC262 EQ PUSH2 0x1DC JUMPI DUP1 PUSH4 0x1FFC9A7 EQ PUSH2 0x20F JUMPI DUP1 PUSH4 0x479D644 EQ PUSH2 0x23F JUMPI JUMPDEST PUSH1 0x0 DUP1 REVERT JUMPDEST CALLVALUE DUP1 ISZERO PUSH2 0x1E8 JUMPI PUSH1 0x0 DUP1 REVERT JUMPDEST POP PUSH2 0x1FC PUSH2 0x1F7 CALLDATASIZE PUSH1 0x4 PUSH2 0x1AA4 JUMP JUMPDEST PUSH2 0x693 JUMP JUMPDEST PUSH1 0x40 MLOAD SWAP1 DUP2 MSTORE PUSH1 0x20 ADD JUMPDEST PUSH1 0x40 MLOAD DUP1 SWAP2 SUB SWAP1 RETURN JUMPDEST CALLVALUE DUP1 ISZERO PUSH2 0x21B JUMPI PUSH1 0x0 DUP1 REVERT JUMPDEST POP PUSH2 0x22F PUSH2 0x22A CALLDATASIZE PUSH1 0x4 PUSH2 0x1AC1 JUMP JUMPDEST PUSH2 0x72A JUMP JUMPDEST PUSH1 0x40 MLOAD SWAP1 ISZERO ISZERO DUP2 MSTORE PUSH1 0x20 ADD PUSH2 0x206 JUMP JUMPDEST CALLVALUE DUP1 ISZERO PUSH2 0x24B JUMPI PUSH1 0x0 DUP1 REVERT JUMPDEST POP PUSH2 0x273 PUSH32 0x0 DUP2 JUMP JUMPDEST PUSH1 0x40 MLOAD PUSH20 0xFFFFFFFFFFFFFFFFFFFFFFFFFFFFFFFFFFFFFFFF SWAP1 SWAP2 AND DUP2 MSTORE PUSH1 0x20 ADD PUSH2 0x206 JUMP JUMPDEST CALLVALUE DUP1 ISZERO PUSH2 0x2A4 JUMPI PUSH1 0x0 DUP1 REVERT JUMPDEST POP PUSH2 0x1FC PUSH2 0x2B3 CALLDATASIZE PUSH1 0x4 PUSH2 0x1AA4 JUMP JUMPDEST PUSH1 0x7 PUSH1 0x20 MSTORE PUSH1 0x0 SWAP1 DUP2 MSTORE PUSH1 0x40 SWAP1 KECCAK256 SLOAD DUP2 JUMP JUMPDEST CALLVALUE DUP1 ISZERO PUSH2 0x2D1 JUMPI PUSH1 0x0 DUP1 REVERT JUMPDEST POP PUSH2 0x2E5 PUSH2 0x2E0 CALLDATASIZE PUSH1 0x4 PUSH2 0x1B4C JUMP JUMPDEST PUSH2 0x73E JUMP JUMPDEST STOP JUMPDEST CALLVALUE DUP1 ISZERO PUSH2 0x2F3 JUMPI PUSH1 0x0 DUP1 REVERT JUMPDEST POP PUSH2 0x1FC PUSH32 0x0 DUP2 JUMP JUMPDEST CALLVALUE DUP1 ISZERO PUSH2 0x327 JUMPI PUSH1 0x0 DUP1 REVERT JUMPDEST POP PUSH32 0x0 PUSH2 0x273 JUMP JUMPDEST CALLVALUE DUP1 ISZERO PUSH2 0x35A JUMPI PUSH1 0x0 DUP1 REVERT JUMPDEST POP PUSH2 0x1FC PUSH2 0x789 JUMP JUMPDEST PUSH2 0x2E5 PUSH2 0x371 CALLDATASIZE PUSH1 0x4 PUSH2 0x1B4C JUMP JUMPDEST PUSH2 0x7F1 JUMP JUMPDEST CALLVALUE DUP1 ISZERO PUSH2 0x382 JUMPI PUSH1 0x0 DUP1 REVERT JUMPDEST POP PUSH2 0x273 PUSH32 0x0 DUP2 JUMP JUMPDEST CALLVALUE DUP1 ISZERO PUSH2 0x3B6 JUMPI PUSH1 0x0 DUP1 REVERT JUMPDEST POP PUSH2 0x2E5 PUSH2 0x3C5 CALLDATASIZE PUSH1 0x4 PUSH2 0x1B8E JUMP JUMPDEST PUSH2 0x823 JUMP JUMPDEST CALLVALUE DUP1 ISZERO PUSH2 0x3D6 JUMPI PUSH1 0x0 DUP1 REVERT JUMPDEST POP PUSH2 0x2E5 PUSH2 0x85C JUMP JUMPDEST CALLVALUE DUP1 ISZERO PUSH2 0x3EB JUMPI PUSH1 0x0 DUP1 REVERT JUMPDEST POP PUSH2 0x3FF PUSH2 0x3FA CALLDATASIZE PUSH1 0x4 PUSH2 0x1BBE JUMP JUMPDEST PUSH2 0x90D JUMP JUMPDEST PUSH1 0x40 MLOAD PUSH32 0xFFFFFFFF00000000000000000000000000000000000000000000000000000000 SWAP1 SWAP2 AND DUP2 MSTORE PUSH1 0x20 ADD PUSH2 0x206 JUMP JUMPDEST CALLVALUE DUP1 ISZERO PUSH2 0x43C JUMPI PUSH1 0x0 DUP1 REVERT JUMPDEST POP PUSH2 0x22F PUSH2 0x44B CALLDATASIZE PUSH1 0x4 PUSH2 0x1AA4 JUMP JUMPDEST PUSH32 0x0 PUSH20 0xFFFFFFFFFFFFFFFFFFFFFFFFFFFFFFFFFFFFFFFF SWAP1 DUP2 AND SWAP2 AND EQ SWAP1 JUMP JUMPDEST CALLVALUE DUP1 ISZERO PUSH2 0x496 JUMPI PUSH1 0x0 DUP1 REVERT JUMPDEST POP PUSH2 0x273 PUSH32 0x0 DUP2 JUMP JUMPDEST PUSH2 0x2E5 PUSH2 0x4CC CALLDATASIZE PUSH1 0x4 PUSH2 0x1C31 JUMP JUMPDEST PUSH2 0xA8B JUMP JUMPDEST CALLVALUE DUP1 ISZERO PUSH2 0x4DD JUMPI PUSH1 0x0 DUP1 REVERT JUMPDEST POP PUSH2 0x1FC PUSH1 0x3 SLOAD DUP2 JUMP JUMPDEST CALLVALUE DUP1 ISZERO PUSH2 0x4F3 JUMPI PUSH1 0x0 DUP1 REVERT JUMPDEST POP PUSH2 0x1FC PUSH2 0xD60 JUMP JUMPDEST CALLVALUE DUP1 ISZERO PUSH2 0x508 JUMPI PUSH1 0x0 DUP1 REVERT JUMPDEST POP PUSH2 0x1FC PUSH1 0x1 SLOAD DUP2 JUMP JUMPDEST CALLVALUE DUP1 ISZERO PUSH2 0x51E JUMPI PUSH1 0x0 DUP1 REVERT JUMPDEST POP PUSH2 0x1FC PUSH32 0x7265776172646572000000000000000000000000000000000000000000000000 DUP2 JUMP JUMPDEST CALLVALUE DUP1 ISZERO PUSH2 0x552 JUMPI PUSH1 0x0 DUP1 REVERT JUMPDEST POP PUSH2 0x2E5 PUSH2 0x561 CALLDATASIZE PUSH1 0x4 PUSH2 0x1C53 JUMP JUMPDEST PUSH2 0xD7A JUMP JUMPDEST CALLVALUE DUP1 ISZERO PUSH2 0x572 JUMPI PUSH1 0x0 DUP1 REVERT JUMPDEST POP PUSH2 0x273 PUSH2 0xD98 JUMP JUMPDEST CALLVALUE DUP1 ISZERO PUSH2 0x587 JUMPI PUSH1 0x0 DUP1 REVERT JUMPDEST POP PUSH2 0x22F PUSH2 0x596 CALLDATASIZE PUSH1 0x4 PUSH2 0x1B8E JUMP JUMPDEST PUSH2 0xDC4 JUMP JUMPDEST CALLVALUE DUP1 ISZERO PUSH2 0x5A7 JUMPI PUSH1 0x0 DUP1 REVERT JUMPDEST POP PUSH2 0x1FC PUSH2 0x5B6 CALLDATASIZE PUSH1 0x4 PUSH2 0x1AA4 JUMP JUMPDEST PUSH1 0x6 PUSH1 0x20 MSTORE PUSH1 0x0 SWAP1 DUP2 MSTORE PUSH1 0x40 SWAP1 KECCAK256 SLOAD DUP2 JUMP JUMPDEST CALLVALUE DUP1 ISZERO PUSH2 0x5D4 JUMPI PUSH1 0x0 DUP1 REVERT JUMPDEST POP PUSH2 0x1FC PUSH1 0x4 SLOAD DUP2 JUMP JUMPDEST CALLVALUE DUP1 ISZERO PUSH2 0x5EA JUMPI PUSH1 0x0 DUP1 REVERT JUMPDEST POP PUSH2 0x1FC PUSH2 0x5F9 CALLDATASIZE PUSH1 0x4 PUSH2 0x1AA4 JUMP JUMPDEST PUSH1 0x8 PUSH1 0x20 MSTORE PUSH1 0x0 SWAP1 DUP2 MSTORE PUSH1 0x40 SWAP1 KECCAK256 SLOAD DUP2 JUMP JUMPDEST CALLVALUE DUP1 ISZERO PUSH2 0x617 JUMPI PUSH1 0x0 DUP1 REVERT JUMPDEST POP PUSH2 0x1FC PUSH1 0x2 SLOAD DUP2 JUMP JUMPDEST CALLVALUE DUP1 ISZERO PUSH2 0x62D JUMPI PUSH1 0x0 DUP1 REVERT JUMPDEST POP PUSH2 0x2E5 PUSH2 0x63C CALLDATASIZE PUSH1 0x4 PUSH2 0x1B8E JUMP JUMPDEST PUSH2 0xE0F JUMP JUMPDEST CALLVALUE DUP1 ISZERO PUSH2 0x64D JUMPI PUSH1 0x0 DUP1 REVERT JUMPDEST POP PUSH2 0x1FC PUSH8 0xDE0B6B3A7640000 DUP2 JUMP JUMPDEST CALLVALUE DUP1 ISZERO PUSH2 0x669 JUMPI PUSH1 0x0 DUP1 REVERT JUMPDEST POP PUSH2 0x1FC PUSH1 0x5 SLOAD DUP2 JUMP JUMPDEST CALLVALUE DUP1 ISZERO PUSH2 0x67F JUMPI PUSH1 0x0 DUP1 REVERT JUMPDEST POP PUSH2 0x2E5 PUSH2 0x68E CALLDATASIZE PUSH1 0x4 PUSH2 0x1AA4 JUMP JUMPDEST PUSH2 0xE3D JUMP JUMPDEST PUSH20 0xFFFFFFFFFFFFFFFFFFFFFFFFFFFFFFFFFFFFFFFF DUP2 AND PUSH1 0x0 SWAP1 DUP2 MSTORE PUSH1 0x7 PUSH1 0x20 SWAP1 DUP2 MSTORE PUSH1 0x40 DUP1 DUP4 KECCAK256 SLOAD PUSH1 0x8 SWAP1 SWAP3 MSTORE DUP3 KECCAK256 SLOAD PUSH8 0xDE0B6B3A7640000 SWAP1 PUSH2 0x6D6 PUSH2 0x789 JUMP JUMPDEST PUSH2 0x6E0 SWAP2 SWAP1 PUSH2 0x1C9B JUMP JUMPDEST PUSH20 0xFFFFFFFFFFFFFFFFFFFFFFFFFFFFFFFFFFFFFFFF DUP6 AND PUSH1 0x0 SWAP1 DUP2 MSTORE PUSH1 0x6 PUSH1 0x20 MSTORE PUSH1 0x40 SWAP1 KECCAK256 SLOAD PUSH2 0x710 SWAP2 SWAP1 PUSH2 0x1CAE JUMP JUMPDEST PUSH2 0x71A SWAP2 SWAP1 PUSH2 0x1CF4 JUMP JUMPDEST PUSH2 0x724 SWAP2 SWAP1 PUSH2 0x1D08 JUMP JUMPDEST SWAP3 SWAP2 POP POP JUMP JUMPDEST PUSH1 0x0 PUSH2 0x724 DUP3 PUSH2 0x738 PUSH2 0xE58 JUMP JUMPDEST SWAP1 PUSH2 0xE86 JUMP JUMPDEST PUSH2 0x785 PUSH2 0x749 PUSH2 0xF60 JUMP JUMPDEST DUP4 DUP4 DUP1 DUP1 PUSH1 0x1F ADD PUSH1 0x20 DUP1 SWAP2 DIV MUL PUSH1 0x20 ADD PUSH1 0x40 MLOAD SWAP1 DUP2 ADD PUSH1 0x40 MSTORE DUP1 SWAP4 SWAP3 SWAP2 SWAP1 DUP2 DUP2 MSTORE PUSH1 0x20 ADD DUP4 DUP4 DUP1 DUP3 DUP5 CALLDATACOPY PUSH1 0x0 SWAP3 ADD SWAP2 SWAP1 SWAP2 MSTORE POP PUSH2 0xF6A SWAP3 POP POP POP JUMP JUMPDEST POP POP JUMP JUMPDEST PUSH1 0x1 SLOAD PUSH1 0x0 SWAP1 DUP1 DUP3 SUB PUSH2 0x79E JUMPI POP POP PUSH1 0x4 SLOAD SWAP1 JUMP JUMPDEST DUP1 PUSH8 0xDE0B6B3A7640000 PUSH1 0x3 SLOAD PUSH1 0x2 SLOAD PUSH2 0x7B6 PUSH2 0xD60 JUMP JUMPDEST PUSH2 0x7C0 SWAP2 SWAP1 PUSH2 0x1C9B JUMP JUMPDEST PUSH2 0x7CA SWAP2 SWAP1 PUSH2 0x1CAE JUMP JUMPDEST PUSH2 0x7D4 SWAP2 SWAP1 PUSH2 0x1CAE JUMP JUMPDEST PUSH2 0x7DE SWAP2 SWAP1 PUSH2 0x1CF4 JUMP JUMPDEST PUSH1 0x4 SLOAD PUSH2 0x7EB SWAP2 SWAP1 PUSH2 0x1D08 JUMP JUMPDEST SWAP2 POP POP SWAP1 JUMP JUMPDEST PUSH1 0x40 MLOAD PUSH32 0x7A404B1900000000000000000000000000000000000000000000000000000000 DUP2 MSTORE PUSH1 0x4 ADD PUSH1 0x40 MLOAD DUP1 SWAP2 SUB SWAP1 REVERT JUMPDEST PUSH1 0x0 PUSH2 0x82D PUSH2 0xF60 JUMP JUMPDEST SWAP1 POP PUSH2 0x841 DUP2 PUSH2 0x83B PUSH2 0x1056 JUMP JUMPDEST SWAP1 PUSH2 0x1084 JUMP JUMPDEST PUSH2 0x857 DUP4 DUP4 DUP4 PUSH2 0x84F PUSH2 0x10EF JUMP JUMPDEST SWAP3 SWAP2 SWAP1 PUSH2 0x111D JUMP JUMPDEST POP POP POP JUMP JUMPDEST PUSH1 0x0 PUSH2 0x866 PUSH2 0xF60 JUMP JUMPDEST SWAP1 POP PUSH2 0x871 DUP2 PUSH2 0x11F4 JUMP JUMPDEST PUSH1 0x0 PUSH2 0x87C DUP3 PUSH2 0x693 JUMP JUMPDEST SWAP1 POP DUP1 ISZERO PUSH2 0x785 JUMPI PUSH20 0xFFFFFFFFFFFFFFFFFFFFFFFFFFFFFFFFFFFFFFFF DUP3 AND PUSH1 0x0 SWAP1 DUP2 MSTORE PUSH1 0x7 PUSH1 0x20 MSTORE PUSH1 0x40 DUP2 KECCAK256 DUP2 SWAP1 SSTORE PUSH2 0x8B6 DUP4 DUP4 PUSH2 0x1282 JUMP JUMPDEST SWAP1 POP DUP3 PUSH20 0xFFFFFFFFFFFFFFFFFFFFFFFFFFFFFFFFFFFFFFFF AND PUSH32 0x4196DECB55B5644A278B6DED1C42A27ACB5182AA099B1FD48974BCC0CF263FD5 DUP3 DUP5 PUSH1 0x40 MLOAD PUSH2 0x900 SWAP3 SWAP2 SWAP1 PUSH2 0x1D1B JUMP JUMPDEST PUSH1 0x40 MLOAD DUP1 SWAP2 SUB SWAP1 LOG2 POP POP POP JUMP JUMPDEST PUSH1 0x0 CALLER PUSH20 0xFFFFFFFFFFFFFFFFFFFFFFFFFFFFFFFFFFFFFFFF PUSH32 0x0 AND EQ PUSH2 0x97E JUMPI PUSH1 0x40 MLOAD PUSH32 0xC1AB6DC100000000000000000000000000000000000000000000000000000000 DUP2 MSTORE PUSH1 0x4 ADD PUSH1 0x40 MLOAD DUP1 SWAP2 SUB SWAP1 REVERT JUMPDEST PUSH32 0x0 PUSH20 0xFFFFFFFFFFFFFFFFFFFFFFFFFFFFFFFFFFFFFFFF AND DUP7 PUSH20 0xFFFFFFFFFFFFFFFFFFFFFFFFFFFFFFFFFFFFFFFF AND EQ DUP7 SWAP1 PUSH2 0xA23 JUMPI PUSH1 0x40 MLOAD PUSH32 0xD0411AC500000000000000000000000000000000000000000000000000000000 DUP2 MSTORE PUSH20 0xFFFFFFFFFFFFFFFFFFFFFFFFFFFFFFFFFFFFFFFF SWAP1 SWAP2 AND PUSH1 0x4 DUP3 ADD MSTORE PUSH1 0x24 ADD JUMPDEST PUSH1 0x40 MLOAD DUP1 SWAP2 SUB SWAP1 REVERT JUMPDEST POP PUSH1 0x0 PUSH2 0xA32 DUP4 DUP6 ADD DUP6 PUSH2 0x1AA4 JUMP JUMPDEST SWAP1 POP PUSH2 0xA5F DUP2 DUP7 PUSH1 0x40 MLOAD PUSH1 0x20 ADD PUSH2 0xA4B SWAP2 DUP2 MSTORE PUSH1 0x20 ADD SWAP1 JUMP JUMPDEST PUSH1 0x40 MLOAD PUSH1 0x20 DUP2 DUP4 SUB SUB DUP2 MSTORE SWAP1 PUSH1 0x40 MSTORE PUSH2 0x128E JUMP JUMPDEST POP PUSH32 0x4FC3585900000000000000000000000000000000000000000000000000000000 SWAP7 SWAP6 POP POP POP POP POP POP JUMP JUMPDEST PUSH1 0x0 PUSH2 0xA95 PUSH2 0xF60 JUMP JUMPDEST SWAP1 POP PUSH2 0xACB PUSH32 0x7265776172646572000000000000000000000000000000000000000000000000 DUP3 PUSH2 0xAC4 PUSH2 0x10EF JUMP JUMPDEST SWAP2 SWAP1 PUSH2 0x137A JUMP JUMPDEST DUP3 PUSH1 0x0 SUB PUSH2 0xB05 JUMPI PUSH1 0x40 MLOAD PUSH32 0x3853986500000000000000000000000000000000000000000000000000000000 DUP2 MSTORE PUSH1 0x4 ADD PUSH1 0x40 MLOAD DUP1 SWAP2 SUB SWAP1 REVERT JUMPDEST DUP2 PUSH1 0x0 SUB PUSH2 0xB3F JUMPI PUSH1 0x40 MLOAD PUSH32 0x7616640100000000000000000000000000000000000000000000000000000000 DUP2 MSTORE PUSH1 0x4 ADD PUSH1 0x40 MLOAD DUP1 SWAP2 SUB SWAP1 REVERT JUMPDEST PUSH2 0xB49 PUSH1 0x0 PUSH2 0x11F4 JUMP JUMPDEST PUSH1 0x5 SLOAD PUSH1 0x0 SWAP1 DUP2 PUSH2 0xB5A DUP6 TIMESTAMP PUSH2 0x1D08 JUMP JUMPDEST SWAP1 POP DUP2 TIMESTAMP LT PUSH2 0xBD2 JUMPI PUSH1 0x0 PUSH2 0xB6F DUP7 DUP9 PUSH2 0x1CF4 JUMP JUMPDEST SWAP1 POP DUP7 DUP7 DUP3 PUSH2 0xBB3 JUMPI PUSH1 0x40 MLOAD PUSH32 0x99E66A4900000000000000000000000000000000000000000000000000000000 DUP2 MSTORE PUSH1 0x4 DUP2 ADD SWAP3 SWAP1 SWAP3 MSTORE PUSH1 0x24 DUP3 ADD MSTORE PUSH1 0x44 ADD PUSH2 0xA1A JUMP JUMPDEST POP POP PUSH1 0x3 DUP2 SWAP1 SSTORE PUSH2 0xBC4 DUP7 DUP9 PUSH2 0x1D8E JUMP JUMPDEST PUSH1 0x5 DUP4 SWAP1 SSTORE SWAP4 POP PUSH2 0xCFB SWAP1 POP JUMP JUMPDEST DUP2 DUP2 GT PUSH2 0xC61 JUMPI PUSH2 0xBE3 TIMESTAMP DUP4 PUSH2 0x1C9B JUMP JUMPDEST SWAP5 POP PUSH1 0x0 PUSH2 0xBF1 DUP7 DUP9 PUSH2 0x1CF4 JUMP JUMPDEST SWAP1 POP DUP7 DUP7 DUP3 PUSH2 0xC35 JUMPI PUSH1 0x40 MLOAD PUSH32 0x99E66A4900000000000000000000000000000000000000000000000000000000 DUP2 MSTORE PUSH1 0x4 DUP2 ADD SWAP3 SWAP1 SWAP3 MSTORE PUSH1 0x24 DUP3 ADD MSTORE PUSH1 0x44 ADD PUSH2 0xA1A JUMP JUMPDEST POP POP DUP1 PUSH1 0x3 PUSH1 0x0 DUP3 DUP3 SLOAD PUSH2 0xC49 SWAP2 SWAP1 PUSH2 0x1D08 JUMP JUMPDEST SWAP1 SWAP2 SSTORE POP PUSH2 0xC59 SWAP1 POP DUP7 DUP9 PUSH2 0x1D8E JUMP JUMPDEST SWAP4 POP POP PUSH2 0xCFB JUMP JUMPDEST PUSH2 0xC6B DUP6 DUP8 PUSH2 0x1CF4 JUMP JUMPDEST DUP7 SWAP1 DUP7 SWAP1 PUSH2 0xCAE JUMPI PUSH1 0x40 MLOAD PUSH32 0x99E66A4900000000000000000000000000000000000000000000000000000000 DUP2 MSTORE PUSH1 0x4 DUP2 ADD SWAP3 SWAP1 SWAP3 MSTORE PUSH1 0x24 DUP3 ADD MSTORE PUSH1 0x44 ADD PUSH2 0xA1A JUMP JUMPDEST POP PUSH1 0x0 SWAP1 POP PUSH2 0xCBD TIMESTAMP DUP5 PUSH2 0x1C9B JUMP JUMPDEST PUSH1 0x3 SLOAD PUSH2 0xCCA SWAP2 SWAP1 PUSH2 0x1CAE JUMP JUMPDEST SWAP1 POP PUSH1 0x0 PUSH2 0xCD8 DUP9 DUP4 PUSH2 0x1D08 JUMP JUMPDEST SWAP1 POP PUSH2 0xCE4 DUP8 DUP3 PUSH2 0x1CF4 JUMP JUMPDEST PUSH1 0x3 SSTORE PUSH2 0xCF1 DUP8 DUP3 PUSH2 0x1D8E JUMP JUMPDEST PUSH1 0x5 DUP5 SWAP1 SSTORE SWAP5 POP POP POP JUMPDEST TIMESTAMP PUSH1 0x2 SSTORE PUSH1 0x40 DUP1 MLOAD DUP8 DUP2 MSTORE PUSH1 0x20 DUP2 ADD DUP8 SWAP1 MSTORE SWAP1 DUP2 ADD DUP5 SWAP1 MSTORE PUSH20 0xFFFFFFFFFFFFFFFFFFFFFFFFFFFFFFFFFFFFFFFF DUP6 AND SWAP1 PUSH32 0x727302BECD070529B3293F4EC8F553D9F6AE1773F638598DB1205FBF8908083 SWAP1 PUSH1 0x60 ADD PUSH1 0x40 MLOAD DUP1 SWAP2 SUB SWAP1 LOG2 POP POP POP POP POP POP JUMP JUMPDEST PUSH1 0x5 SLOAD PUSH1 0x0 SWAP1 TIMESTAMP DUP2 GT PUSH2 0xD73 JUMPI DUP1 PUSH2 0x7EB JUMP JUMPDEST TIMESTAMP SWAP2 POP POP SWAP1 JUMP JUMPDEST PUSH2 0xD95 PUSH2 0xD85 PUSH2 0xF60 JUMP JUMPDEST DUP3 PUSH2 0xD8E PUSH2 0x10EF JUMP JUMPDEST SWAP2 SWAP1 PUSH2 0x1400 JUMP JUMPDEST POP JUMP JUMPDEST PUSH1 0x0 PUSH2 0xDBF PUSH2 0xDA5 PUSH2 0x1056 JUMP JUMPDEST SLOAD PUSH20 0xFFFFFFFFFFFFFFFFFFFFFFFFFFFFFFFFFFFFFFFF AND SWAP1 JUMP JUMPDEST SWAP1 POP SWAP1 JUMP JUMPDEST PUSH1 0x0 PUSH2 0xE08 DUP4 DUP4 PUSH2 0xDD3 PUSH2 0x10EF JUMP JUMPDEST PUSH1 0x0 SWAP3 DUP4 MSTORE PUSH1 0x20 SWAP1 DUP2 MSTORE PUSH1 0x40 DUP1 DUP5 KECCAK256 PUSH20 0xFFFFFFFFFFFFFFFFFFFFFFFFFFFFFFFFFFFFFFFF SWAP1 SWAP4 AND DUP5 MSTORE SWAP2 SWAP1 MSTORE SWAP1 KECCAK256 SLOAD PUSH1 0xFF AND SWAP1 JUMP JUMPDEST SWAP4 SWAP3 POP POP POP JUMP JUMPDEST PUSH1 0x0 PUSH2 0xE19 PUSH2 0xF60 JUMP JUMPDEST SWAP1 POP PUSH2 0xE27 DUP2 PUSH2 0x83B PUSH2 0x1056 JUMP JUMPDEST PUSH2 0x857 DUP4 DUP4 DUP4 PUSH2 0xE35 PUSH2 0x10EF JUMP JUMPDEST SWAP3 SWAP2 SWAP1 PUSH2 0x14A4 JUMP JUMPDEST PUSH2 0xD95 PUSH2 0xE48 PUSH2 0xF60 JUMP JUMPDEST DUP3 PUSH2 0xE51 PUSH2 0x1056 JUMP JUMPDEST SWAP2 SWAP1 PUSH2 0x156E JUMP JUMPDEST PUSH1 0x0 DUP1 PUSH2 0x724 PUSH1 0x1 PUSH32 0xCA9D3E17F264B0F3984E2634E94ADB37FA3E6A8103F06AEAE6FA59E21C769F5E PUSH2 0x1C9B JUMP JUMPDEST PUSH1 0x0 PUSH29 0x100000000000000000000000000000000000000000000000000000000 PUSH32 0xFFFFFFFF00000000000000000000000000000000000000000000000000000000 DUP4 AND ADD PUSH2 0xED6 JUMPI POP PUSH1 0x0 PUSH2 0x724 JUMP JUMPDEST PUSH32 0xFE00365900000000000000000000000000000000000000000000000000000000 PUSH32 0xFFFFFFFF00000000000000000000000000000000000000000000000000000000 DUP4 AND ADD PUSH2 0xF27 JUMPI POP PUSH1 0x1 PUSH2 0x724 JUMP JUMPDEST POP PUSH32 0xFFFFFFFF00000000000000000000000000000000000000000000000000000000 AND PUSH1 0x0 SWAP1 DUP2 MSTORE PUSH1 0x20 SWAP2 SWAP1 SWAP2 MSTORE PUSH1 0x40 SWAP1 KECCAK256 SLOAD PUSH1 0xFF AND SWAP1 JUMP JUMPDEST PUSH1 0x0 PUSH2 0xDBF PUSH2 0x1682 JUMP JUMPDEST PUSH2 0xF73 DUP3 PUSH2 0x11F4 JUMP JUMPDEST PUSH1 0x0 PUSH2 0xF7F DUP4 DUP4 PUSH2 0x17CF JUMP JUMPDEST SWAP1 POP DUP1 PUSH1 0x0 SUB PUSH2 0xFBB JUMPI PUSH1 0x40 MLOAD PUSH32 0xDB73CDF000000000000000000000000000000000000000000000000000000000 DUP2 MSTORE PUSH1 0x4 ADD PUSH1 0x40 MLOAD DUP1 SWAP2 SUB SWAP1 REVERT JUMPDEST DUP1 PUSH1 0x1 PUSH1 0x0 DUP3 DUP3 SLOAD PUSH2 0xFCD SWAP2 SWAP1 PUSH2 0x1C9B JUMP JUMPDEST SWAP1 SWAP2 SSTORE POP POP PUSH20 0xFFFFFFFFFFFFFFFFFFFFFFFFFFFFFFFFFFFFFFFF DUP4 AND PUSH1 0x0 SWAP1 DUP2 MSTORE PUSH1 0x6 PUSH1 0x20 MSTORE PUSH1 0x40 DUP2 KECCAK256 DUP1 SLOAD DUP4 SWAP3 SWAP1 PUSH2 0x1007 SWAP1 DUP5 SWAP1 PUSH2 0x1C9B JUMP JUMPDEST SWAP3 POP POP DUP2 SWAP1 SSTORE POP DUP3 PUSH20 0xFFFFFFFFFFFFFFFFFFFFFFFFFFFFFFFFFFFFFFFF AND PUSH32 0xAAE638DEC0D864CCB08558C28981BCFAEE41330F57C4911CBE2D8432D0FB729E DUP4 DUP4 PUSH1 0x40 MLOAD PUSH2 0x900 SWAP3 SWAP2 SWAP1 PUSH2 0x1D1B JUMP JUMPDEST PUSH1 0x0 DUP1 PUSH2 0x724 PUSH1 0x1 PUSH32 0xC9ED16F33AB3A66C84BFD83099CCB2A8845871E2E1C1928F63797152F0FD54CD PUSH2 0x1C9B JUMP JUMPDEST DUP2 SLOAD PUSH20 0xFFFFFFFFFFFFFFFFFFFFFFFFFFFFFFFFFFFFFFFF DUP3 DUP2 AND SWAP2 AND EQ PUSH2 0x785 JUMPI PUSH1 0x40 MLOAD PUSH32 0x2EF4875E00000000000000000000000000000000000000000000000000000000 DUP2 MSTORE PUSH20 0xFFFFFFFFFFFFFFFFFFFFFFFFFFFFFFFFFFFFFFFF DUP3 AND PUSH1 0x4 DUP3 ADD MSTORE PUSH1 0x24 ADD PUSH2 0xA1A JUMP JUMPDEST PUSH1 0x0 DUP1 PUSH2 0x724 PUSH1 0x1 PUSH32 0xC8827D3282AF6F37B64C3E9E6F3AC9DF286AB0BB0FCCD6F8661BF19ADB368B23 PUSH2 0x1C9B JUMP JUMPDEST PUSH1 0x0 DUP4 DUP2 MSTORE PUSH1 0x20 DUP6 DUP2 MSTORE PUSH1 0x40 DUP1 DUP4 KECCAK256 PUSH20 0xFFFFFFFFFFFFFFFFFFFFFFFFFFFFFFFFFFFFFFFF DUP7 AND DUP5 MSTORE SWAP1 SWAP2 MSTORE SWAP1 KECCAK256 SLOAD PUSH1 0xFF AND PUSH2 0x11EE JUMPI PUSH1 0x0 DUP4 DUP2 MSTORE PUSH1 0x20 DUP6 DUP2 MSTORE PUSH1 0x40 DUP1 DUP4 KECCAK256 PUSH20 0xFFFFFFFFFFFFFFFFFFFFFFFFFFFFFFFFFFFFFFFF DUP7 DUP2 AND DUP1 DUP7 MSTORE SWAP2 DUP5 MSTORE SWAP4 DUP3 SWAP1 KECCAK256 DUP1 SLOAD PUSH32 0xFFFFFFFFFFFFFFFFFFFFFFFFFFFFFFFFFFFFFFFFFFFFFFFFFFFFFFFFFFFFFF00 AND PUSH1 0x1 OR SWAP1 SSTORE DUP2 MLOAD DUP8 DUP2 MSTORE SWAP3 DUP4 ADD MSTORE SWAP2 DUP4 AND SWAP2 DUP2 ADD SWAP2 SWAP1 SWAP2 MSTORE PUSH32 0x2F8788117E7EFF1D82E926EC794901D17C78024A50270940304540A733656F0D SWAP1 PUSH1 0x60 ADD JUMPDEST PUSH1 0x40 MLOAD DUP1 SWAP2 SUB SWAP1 LOG1 JUMPDEST POP POP POP POP JUMP JUMPDEST PUSH2 0x11FC PUSH2 0x789 JUMP JUMPDEST PUSH1 0x4 SSTORE PUSH1 0x5 SLOAD TIMESTAMP LT ISZERO DUP1 PUSH2 0x1211 JUMPI POP PUSH1 0x1 SLOAD ISZERO ISZERO JUMPDEST ISZERO PUSH2 0x1222 JUMPI PUSH2 0x121E PUSH2 0xD60 JUMP JUMPDEST PUSH1 0x2 SSTORE JUMPDEST PUSH20 0xFFFFFFFFFFFFFFFFFFFFFFFFFFFFFFFFFFFFFFFF DUP2 AND ISZERO PUSH2 0xD95 JUMPI PUSH2 0x1247 DUP2 PUSH2 0x693 JUMP JUMPDEST PUSH20 0xFFFFFFFFFFFFFFFFFFFFFFFFFFFFFFFFFFFFFFFF DUP3 AND PUSH1 0x0 SWAP1 DUP2 MSTORE PUSH1 0x7 PUSH1 0x20 SWAP1 DUP2 MSTORE PUSH1 0x40 DUP1 DUP4 KECCAK256 SWAP4 SWAP1 SWAP4 SSTORE PUSH1 0x4 SLOAD PUSH1 0x8 SWAP1 SWAP2 MSTORE SWAP2 SWAP1 KECCAK256 SSTORE POP JUMP JUMPDEST PUSH1 0x60 PUSH2 0xE08 DUP4 DUP4 PUSH2 0x1828 JUMP JUMPDEST PUSH2 0x1297 DUP3 PUSH2 0x11F4 JUMP JUMPDEST PUSH1 0x0 PUSH2 0x12A3 DUP4 DUP4 PUSH2 0x1940 JUMP JUMPDEST SWAP1 POP DUP1 PUSH1 0x0 SUB PUSH2 0x12DF JUMPI PUSH1 0x40 MLOAD PUSH32 0x40EF8EC00000000000000000000000000000000000000000000000000000000 DUP2 MSTORE PUSH1 0x4 ADD PUSH1 0x40 MLOAD DUP1 SWAP2 SUB SWAP1 REVERT JUMPDEST DUP1 PUSH1 0x1 PUSH1 0x0 DUP3 DUP3 SLOAD PUSH2 0x12F1 SWAP2 SWAP1 PUSH2 0x1D08 JUMP JUMPDEST SWAP1 SWAP2 SSTORE POP POP PUSH20 0xFFFFFFFFFFFFFFFFFFFFFFFFFFFFFFFFFFFFFFFF DUP4 AND PUSH1 0x0 SWAP1 DUP2 MSTORE PUSH1 0x6 PUSH1 0x20 MSTORE PUSH1 0x40 DUP2 KECCAK256 DUP1 SLOAD DUP4 SWAP3 SWAP1 PUSH2 0x132B SWAP1 DUP5 SWAP1 PUSH2 0x1D08 JUMP JUMPDEST SWAP3 POP POP DUP2 SWAP1 SSTORE POP DUP3 PUSH20 0xFFFFFFFFFFFFFFFFFFFFFFFFFFFFFFFFFFFFFFFF AND PUSH32 0xF4679D394F1F97F1A3DF1D73E193866EC5A813168AD5FA6958F9BE21B10A594E DUP4 DUP4 PUSH1 0x40 MLOAD PUSH2 0x900 SWAP3 SWAP2 SWAP1 PUSH2 0x1D1B JUMP JUMPDEST PUSH1 0x0 DUP3 DUP2 MSTORE PUSH1 0x20 DUP5 DUP2 MSTORE PUSH1 0x40 DUP1 DUP4 KECCAK256 PUSH20 0xFFFFFFFFFFFFFFFFFFFFFFFFFFFFFFFFFFFFFFFF DUP6 AND DUP5 MSTORE SWAP1 SWAP2 MSTORE SWAP1 KECCAK256 SLOAD PUSH1 0xFF AND PUSH2 0x857 JUMPI PUSH1 0x40 MLOAD PUSH32 0x7AA7288200000000000000000000000000000000000000000000000000000000 DUP2 MSTORE PUSH1 0x4 DUP2 ADD DUP4 SWAP1 MSTORE PUSH20 0xFFFFFFFFFFFFFFFFFFFFFFFFFFFFFFFFFFFFFFFF DUP3 AND PUSH1 0x24 DUP3 ADD MSTORE PUSH1 0x44 ADD PUSH2 0xA1A JUMP JUMPDEST PUSH2 0x140B DUP4 DUP3 DUP5 PUSH2 0x137A JUMP JUMPDEST PUSH1 0x0 DUP2 DUP2 MSTORE PUSH1 0x20 DUP5 DUP2 MSTORE PUSH1 0x40 DUP1 DUP4 KECCAK256 PUSH20 0xFFFFFFFFFFFFFFFFFFFFFFFFFFFFFFFFFFFFFFFF DUP7 AND DUP1 DUP6 MSTORE SWAP1 DUP4 MSTORE SWAP3 DUP2 SWAP1 KECCAK256 DUP1 SLOAD PUSH32 0xFFFFFFFFFFFFFFFFFFFFFFFFFFFFFFFFFFFFFFFFFFFFFFFFFFFFFFFFFFFFFF00 AND SWAP1 SSTORE DUP1 MLOAD DUP5 DUP2 MSTORE SWAP2 DUP3 ADD DUP4 SWAP1 MSTORE DUP2 ADD SWAP2 SWAP1 SWAP2 MSTORE PUSH32 0xF6391F5C32D9C69D2A47EA670B442974B53935D1EDC7FD64EB21E047A839171B SWAP1 PUSH1 0x60 ADD PUSH1 0x40 MLOAD DUP1 SWAP2 SUB SWAP1 LOG1 POP POP POP JUMP JUMPDEST PUSH1 0x0 DUP4 DUP2 MSTORE PUSH1 0x20 DUP6 DUP2 MSTORE PUSH1 0x40 DUP1 DUP4 KECCAK256 PUSH20 0xFFFFFFFFFFFFFFFFFFFFFFFFFFFFFFFFFFFFFFFF DUP7 AND DUP5 MSTORE SWAP1 SWAP2 MSTORE SWAP1 KECCAK256 SLOAD PUSH1 0xFF AND ISZERO PUSH2 0x11EE JUMPI PUSH1 0x0 DUP4 DUP2 MSTORE PUSH1 0x20 DUP6 DUP2 MSTORE PUSH1 0x40 DUP1 DUP4 KECCAK256 PUSH20 0xFFFFFFFFFFFFFFFFFFFFFFFFFFFFFFFFFFFFFFFF DUP7 DUP2 AND DUP1 DUP7 MSTORE SWAP2 DUP5 MSTORE SWAP4 DUP3 SWAP1 KECCAK256 DUP1 SLOAD PUSH32 0xFFFFFFFFFFFFFFFFFFFFFFFFFFFFFFFFFFFFFFFFFFFFFFFFFFFFFFFFFFFFFF00 AND SWAP1 SSTORE DUP2 MLOAD DUP8 DUP2 MSTORE SWAP3 DUP4 ADD MSTORE SWAP2 DUP4 AND SWAP2 DUP2 ADD SWAP2 SWAP1 SWAP2 MSTORE PUSH32 0xF6391F5C32D9C69D2A47EA670B442974B53935D1EDC7FD64EB21E047A839171B SWAP1 PUSH1 0x60 ADD PUSH2 0x11E5 JUMP JUMPDEST DUP3 SLOAD PUSH20 0xFFFFFFFFFFFFFFFFFFFFFFFFFFFFFFFFFFFFFFFF SWAP1 DUP2 AND SWAP1 DUP4 AND DUP2 EQ PUSH2 0x15DB JUMPI PUSH1 0x40 MLOAD PUSH32 0x2EF4875E00000000000000000000000000000000000000000000000000000000 DUP2 MSTORE PUSH20 0xFFFFFFFFFFFFFFFFFFFFFFFFFFFFFFFFFFFFFFFF DUP5 AND PUSH1 0x4 DUP3 ADD MSTORE PUSH1 0x24 ADD PUSH2 0xA1A JUMP JUMPDEST DUP2 PUSH20 0xFFFFFFFFFFFFFFFFFFFFFFFFFFFFFFFFFFFFFFFF AND DUP2 PUSH20 0xFFFFFFFFFFFFFFFFFFFFFFFFFFFFFFFFFFFFFFFF AND EQ PUSH2 0x11EE JUMPI DUP4 SLOAD PUSH32 0xFFFFFFFFFFFFFFFFFFFFFFFF0000000000000000000000000000000000000000 AND PUSH20 0xFFFFFFFFFFFFFFFFFFFFFFFFFFFFFFFFFFFFFFFF DUP4 DUP2 AND SWAP2 DUP3 OR DUP7 SSTORE PUSH1 0x40 MLOAD SWAP1 DUP4 AND SWAP1 PUSH32 0x8BE0079C531659141344CD1FD0A4F28419497F9722A3DAAFE3B4186F6B6457E0 SWAP1 PUSH1 0x0 SWAP1 LOG3 POP POP POP POP JUMP JUMPDEST PUSH1 0x0 CALLER ORIGIN EQ DUP1 PUSH2 0x1692 JUMPI POP PUSH1 0x18 CALLDATASIZE LT JUMPDEST ISZERO PUSH2 0x169C JUMPI POP CALLER SWAP1 JUMP JUMPDEST PUSH32 0xFFFFFFFFFFFFFFFFFFFFFFFFFFFFFFFFFFFFFFFFFFFFFFFFFFFFFFFFFFFFFFEC CALLDATASIZE ADD CALLDATALOAD PUSH1 0x60 SHR PUSH32 0x0 PUSH20 0xFFFFFFFFFFFFFFFFFFFFFFFFFFFFFFFFFFFFFFFF AND CALLER EQ DUP1 PUSH2 0x17BE JUMPI POP PUSH1 0x40 MLOAD PUSH32 0x19A202800000000000000000000000000000000000000000000000000000000 DUP2 MSTORE PUSH20 0xFFFFFFFFFFFFFFFFFFFFFFFFFFFFFFFFFFFFFFFF DUP3 DUP2 AND PUSH1 0x4 DUP4 ADD MSTORE CALLER PUSH1 0x24 DUP4 ADD MSTORE ADDRESS PUSH1 0x44 DUP4 ADD MSTORE PUSH32 0x0 AND SWAP1 PUSH4 0x19A2028 SWAP1 PUSH1 0x64 ADD PUSH1 0x20 PUSH1 0x40 MLOAD DUP1 DUP4 SUB DUP2 DUP7 GAS STATICCALL ISZERO DUP1 ISZERO PUSH2 0x179A JUMPI RETURNDATASIZE PUSH1 0x0 DUP1 RETURNDATACOPY RETURNDATASIZE PUSH1 0x0 REVERT JUMPDEST POP POP POP POP PUSH1 0x40 MLOAD RETURNDATASIZE PUSH1 0x1F NOT PUSH1 0x1F DUP3 ADD AND DUP3 ADD DUP1 PUSH1 0x40 MSTORE POP DUP2 ADD SWAP1 PUSH2 0x17BE SWAP2 SWAP1 PUSH2 0x1DA2 JUMP JUMPDEST ISZERO PUSH2 0x17C8 JUMPI SWAP2 SWAP1 POP JUMP JUMPDEST CALLER SWAP2 POP POP SWAP1 JUMP JUMPDEST PUSH1 0x0 DUP2 DUP1 PUSH1 0x20 ADD SWAP1 MLOAD DUP2 ADD SWAP1 PUSH2 0x17E5 SWAP2 SWAP1 PUSH2 0x1DC4 JUMP JUMPDEST SWAP1 POP PUSH2 0x724 PUSH20 0xFFFFFFFFFFFFFFFFFFFFFFFFFFFFFFFFFFFFFFFF PUSH32 0x0 AND DUP5 DUP4 PUSH2 0x1956 JUMP JUMPDEST PUSH1 0x60 DUP2 PUSH1 0x40 MLOAD PUSH1 0x20 ADD PUSH2 0x183D SWAP2 DUP2 MSTORE PUSH1 0x20 ADD SWAP1 JUMP JUMPDEST PUSH1 0x40 DUP1 MLOAD DUP1 DUP4 SUB PUSH32 0xFFFFFFFFFFFFFFFFFFFFFFFFFFFFFFFFFFFFFFFFFFFFFFFFFFFFFFFFFFFFFFE0 ADD DUP2 MSTORE SWAP1 DUP3 SWAP1 MSTORE PUSH32 0x26B3293F00000000000000000000000000000000000000000000000000000000 DUP3 MSTORE PUSH20 0xFFFFFFFFFFFFFFFFFFFFFFFFFFFFFFFFFFFFFFFF DUP6 DUP2 AND PUSH1 0x4 DUP5 ADD MSTORE PUSH1 0x24 DUP4 ADD DUP6 SWAP1 MSTORE PUSH32 0x0 PUSH1 0x44 DUP5 ADD MSTORE SWAP1 SWAP3 POP PUSH32 0x0 AND SWAP1 PUSH4 0x26B3293F SWAP1 PUSH1 0x64 ADD PUSH1 0x0 PUSH1 0x40 MLOAD DUP1 DUP4 SUB DUP2 PUSH1 0x0 DUP8 DUP1 EXTCODESIZE ISZERO DUP1 ISZERO PUSH2 0x1922 JUMPI PUSH1 0x0 DUP1 REVERT JUMPDEST POP GAS CALL ISZERO DUP1 ISZERO PUSH2 0x1936 JUMPI RETURNDATASIZE PUSH1 0x0 DUP1 RETURNDATACOPY RETURNDATASIZE PUSH1 0x0 REVERT JUMPDEST POP POP POP POP SWAP3 SWAP2 POP POP JUMP JUMPDEST PUSH1 0x0 DUP2 DUP1 PUSH1 0x20 ADD SWAP1 MLOAD DUP2 ADD SWAP1 PUSH2 0xE08 SWAP2 SWAP1 PUSH2 0x1DC4 JUMP JUMPDEST PUSH1 0x40 DUP1 MLOAD PUSH20 0xFFFFFFFFFFFFFFFFFFFFFFFFFFFFFFFFFFFFFFFF DUP5 AND PUSH1 0x24 DUP3 ADD MSTORE PUSH1 0x44 DUP1 DUP3 ADD DUP5 SWAP1 MSTORE DUP3 MLOAD DUP1 DUP4 SUB SWAP1 SWAP2 ADD DUP2 MSTORE PUSH1 0x64 SWAP1 SWAP2 ADD SWAP1 SWAP2 MSTORE PUSH1 0x20 DUP1 DUP3 ADD DUP1 MLOAD PUSH28 0xFFFFFFFFFFFFFFFFFFFFFFFFFFFFFFFFFFFFFFFFFFFFFFFFFFFFFFFF AND PUSH32 0xA9059CBB00000000000000000000000000000000000000000000000000000000 OR DUP2 MSTORE DUP3 MLOAD PUSH2 0x857 SWAP4 DUP8 SWAP4 SWAP1 SWAP3 PUSH1 0x0 SWAP3 DUP4 SWAP3 SWAP2 DUP4 SWAP2 SWAP1 DUP3 DUP9 GAS CALL DUP1 PUSH2 0x1A01 JUMPI PUSH1 0x40 MLOAD RETURNDATASIZE PUSH1 0x0 DUP3 RETURNDATACOPY RETURNDATASIZE DUP2 REVERT JUMPDEST POP POP PUSH1 0x0 MLOAD RETURNDATASIZE SWAP2 POP DUP2 ISZERO PUSH2 0x1A19 JUMPI DUP1 PUSH1 0x1 EQ ISZERO PUSH2 0x1A33 JUMP JUMPDEST PUSH20 0xFFFFFFFFFFFFFFFFFFFFFFFFFFFFFFFFFFFFFFFF DUP5 AND EXTCODESIZE ISZERO JUMPDEST ISZERO PUSH2 0x11EE JUMPI PUSH1 0x40 MLOAD PUSH32 0x5274AFE700000000000000000000000000000000000000000000000000000000 DUP2 MSTORE PUSH20 0xFFFFFFFFFFFFFFFFFFFFFFFFFFFFFFFFFFFFFFFF DUP6 AND PUSH1 0x4 DUP3 ADD MSTORE PUSH1 0x24 ADD PUSH2 0xA1A JUMP JUMPDEST PUSH20 0xFFFFFFFFFFFFFFFFFFFFFFFFFFFFFFFFFFFFFFFF DUP2 AND DUP2 EQ PUSH2 0xD95 JUMPI PUSH1 0x0 DUP1 REVERT JUMPDEST PUSH1 0x0 PUSH1 0x20 DUP3 DUP5 SUB SLT ISZERO PUSH2 0x1AB6 JUMPI PUSH1 0x0 DUP1 REVERT JUMPDEST DUP2 CALLDATALOAD PUSH2 0xE08 DUP2 PUSH2 0x1A82 JUMP JUMPDEST PUSH1 0x0 PUSH1 0x20 DUP3 DUP5 SUB SLT ISZERO PUSH2 0x1AD3 JUMPI PUSH1 0x0 DUP1 REVERT JUMPDEST DUP2 CALLDATALOAD PUSH32 0xFFFFFFFF00000000000000000000000000000000000000000000000000000000 DUP2 AND DUP2 EQ PUSH2 0xE08 JUMPI PUSH1 0x0 DUP1 REVERT JUMPDEST PUSH1 0x0 DUP1 DUP4 PUSH1 0x1F DUP5 ADD SLT PUSH2 0x1B15 JUMPI PUSH1 0x0 DUP1 REVERT JUMPDEST POP DUP2 CALLDATALOAD PUSH8 0xFFFFFFFFFFFFFFFF DUP2 GT ISZERO PUSH2 0x1B2D JUMPI PUSH1 0x0 DUP1 REVERT JUMPDEST PUSH1 0x20 DUP4 ADD SWAP2 POP DUP4 PUSH1 0x20 DUP3 DUP6 ADD ADD GT ISZERO PUSH2 0x1B45 JUMPI PUSH1 0x0 DUP1 REVERT JUMPDEST SWAP3 POP SWAP3 SWAP1 POP JUMP JUMPDEST PUSH1 0x0 DUP1 PUSH1 0x20 DUP4 DUP6 SUB SLT ISZERO PUSH2 0x1B5F JUMPI PUSH1 0x0 DUP1 REVERT JUMPDEST DUP3 CALLDATALOAD PUSH8 0xFFFFFFFFFFFFFFFF DUP2 GT ISZERO PUSH2 0x1B76 JUMPI PUSH1 0x0 DUP1 REVERT JUMPDEST PUSH2 0x1B82 DUP6 DUP3 DUP7 ADD PUSH2 0x1B03 JUMP JUMPDEST SWAP1 SWAP7 SWAP1 SWAP6 POP SWAP4 POP POP POP POP JUMP JUMPDEST PUSH1 0x0 DUP1 PUSH1 0x40 DUP4 DUP6 SUB SLT ISZERO PUSH2 0x1BA1 JUMPI PUSH1 0x0 DUP1 REVERT JUMPDEST DUP3 CALLDATALOAD SWAP2 POP PUSH1 0x20 DUP4 ADD CALLDATALOAD PUSH2 0x1BB3 DUP2 PUSH2 0x1A82 JUMP JUMPDEST DUP1 SWAP2 POP POP SWAP3 POP SWAP3 SWAP1 POP JUMP JUMPDEST PUSH1 0x0 DUP1 PUSH1 0x0 DUP1 PUSH1 0x0 PUSH1 0x80 DUP7 DUP9 SUB SLT ISZERO PUSH2 0x1BD6 JUMPI PUSH1 0x0 DUP1 REVERT JUMPDEST DUP6 CALLDATALOAD PUSH2 0x1BE1 DUP2 PUSH2 0x1A82 JUMP JUMPDEST SWAP5 POP PUSH1 0x20 DUP7 ADD CALLDATALOAD PUSH2 0x1BF1 DUP2 PUSH2 0x1A82 JUMP JUMPDEST SWAP4 POP PUSH1 0x40 DUP7 ADD CALLDATALOAD SWAP3 POP PUSH1 0x60 DUP7 ADD CALLDATALOAD PUSH8 0xFFFFFFFFFFFFFFFF DUP2 GT ISZERO PUSH2 0x1C14 JUMPI PUSH1 0x0 DUP1 REVERT JUMPDEST PUSH2 0x1C20 DUP9 DUP3 DUP10 ADD PUSH2 0x1B03 JUMP JUMPDEST SWAP7 SWAP10 SWAP6 SWAP9 POP SWAP4 SWAP7 POP SWAP3 SWAP5 SWAP4 SWAP3 POP POP POP JUMP JUMPDEST PUSH1 0x0 DUP1 PUSH1 0x40 DUP4 DUP6 SUB SLT ISZERO PUSH2 0x1C44 JUMPI PUSH1 0x0 DUP1 REVERT JUMPDEST POP POP DUP1 CALLDATALOAD SWAP3 PUSH1 0x20 SWAP1 SWAP2 ADD CALLDATALOAD SWAP2 POP JUMP JUMPDEST PUSH1 0x0 PUSH1 0x20 DUP3 DUP5 SUB SLT ISZERO PUSH2 0x1C65 JUMPI PUSH1 0x0 DUP1 REVERT JUMPDEST POP CALLDATALOAD SWAP2 SWAP1 POP JUMP JUMPDEST PUSH32 0x4E487B7100000000000000000000000000000000000000000000000000000000 PUSH1 0x0 MSTORE PUSH1 0x11 PUSH1 0x4 MSTORE PUSH1 0x24 PUSH1 0x0 REVERT JUMPDEST DUP2 DUP2 SUB DUP2 DUP2 GT ISZERO PUSH2 0x724 JUMPI PUSH2 0x724 PUSH2 0x1C6C JUMP JUMPDEST DUP1 DUP3 MUL DUP2 ISZERO DUP3 DUP3 DIV DUP5 EQ OR PUSH2 0x724 JUMPI PUSH2 0x724 PUSH2 0x1C6C JUMP JUMPDEST PUSH32 0x4E487B7100000000000000000000000000000000000000000000000000000000 PUSH1 0x0 MSTORE PUSH1 0x12 PUSH1 0x4 MSTORE PUSH1 0x24 PUSH1 0x0 REVERT JUMPDEST PUSH1 0x0 DUP3 PUSH2 0x1D03 JUMPI PUSH2 0x1D03 PUSH2 0x1CC5 JUMP JUMPDEST POP DIV SWAP1 JUMP JUMPDEST DUP1 DUP3 ADD DUP1 DUP3 GT ISZERO PUSH2 0x724 JUMPI PUSH2 0x724 PUSH2 0x1C6C JUMP JUMPDEST PUSH1 0x40 DUP2 MSTORE PUSH1 0x0 DUP4 MLOAD DUP1 PUSH1 0x40 DUP5 ADD MSTORE PUSH1 0x0 JUMPDEST DUP2 DUP2 LT ISZERO PUSH2 0x1D49 JUMPI PUSH1 0x20 DUP2 DUP8 ADD DUP2 ADD MLOAD PUSH1 0x60 DUP7 DUP5 ADD ADD MSTORE ADD PUSH2 0x1D2C JUMP JUMPDEST POP PUSH1 0x0 PUSH1 0x60 DUP3 DUP6 ADD ADD MSTORE PUSH1 0x60 PUSH32 0xFFFFFFFFFFFFFFFFFFFFFFFFFFFFFFFFFFFFFFFFFFFFFFFFFFFFFFFFFFFFFFE0 PUSH1 0x1F DUP4 ADD AND DUP5 ADD ADD SWAP2 POP POP DUP3 PUSH1 0x20 DUP4 ADD MSTORE SWAP4 SWAP3 POP POP POP JUMP JUMPDEST PUSH1 0x0 DUP3 PUSH2 0x1D9D JUMPI PUSH2 0x1D9D PUSH2 0x1CC5 JUMP JUMPDEST POP MOD SWAP1 JUMP JUMPDEST PUSH1 0x0 PUSH1 0x20 DUP3 DUP5 SUB SLT ISZERO PUSH2 0x1DB4 JUMPI PUSH1 0x0 DUP1 REVERT JUMPDEST DUP2 MLOAD DUP1 ISZERO ISZERO DUP2 EQ PUSH2 0xE08 JUMPI PUSH1 0x0 DUP1 REVERT JUMPDEST PUSH1 0x0 PUSH1 0x20 DUP3 DUP5 SUB SLT ISZERO PUSH2 0x1DD6 JUMPI PUSH1 0x0 DUP1 REVERT JUMPDEST POP MLOAD SWAP2 SWAP1 POP JUMP INVALID LOG2 PUSH5 0x6970667358 0x22 SLT KECCAK256 0xD1 PUSH23 0x93ABDB43543BC7DCE3D7F9D9C105650AA8E3D0763E3B5F 0xD8 PUSH0 NOT 0xC9 0xA6 MOD SELFBALANCE PUSH5 0x736F6C6343 STOP ADDMOD SHR STOP CALLER "},"gasEstimates":{"creation":{"codeDepositCost":"1539800","executionCost":"infinite","totalCost":"infinite"},"external":{"CLAIM_CONTRACT()":"infinite","DEPOSIT_REASON_CODE()":"infinite","POINTS_CONTRACT()":"infinite","REWARDER_ROLE()":"229","SCALING_FACTOR()":"250","STAKING_TOKEN()":"infinite","addReward(uint256,uint256)":"infinite","claim()":"infinite","distributionEnd()":"2372","earned(address)":"infinite","forwarderRegistry()":"infinite","grantRole(bytes32,address)":"infinite","hasRole(bytes32,address)":"infinite","isTrustedForwarder(address)":"infinite","lastTimeRewardApplicable()":"2435","lastUpdated()":"2395","onERC20Received(address,address,uint256,bytes)":"infinite","owner()":"infinite","renounceRole(bytes32)":"infinite","revokeRole(bytes32,address)":"infinite","rewardPerStakePoint()":"infinite","rewardPerStakePointPaid(address)":"2579","rewardPerStakePointStored()":"2351","rewardRate()":"2352","rewards(address)":"2536","stake(bytes)":"518","staked(address)":"2535","supportsInterface(bytes4)":"infinite","totalStaked()":"2396","transferOwnership(address)":"infinite","withdraw(bytes)":"infinite"},"internal":{"_computeStake(address,bytes memory)":"infinite"}},"methodIdentifiers":{"CLAIM_CONTRACT()":"62ba9096","DEPOSIT_REASON_CODE()":"2196e445","POINTS_CONTRACT()":"2d4c2f93","REWARDER_ROLE()":"8580cf76","SCALING_FACTOR()":"ef4cadc5","STAKING_TOKEN()":"0479d644","addReward(uint256,uint256)":"75c93bb9","claim()":"4e71d92d","distributionEnd()":"efa90b54","earned(address)":"008cc262","forwarderRegistry()":"2b4c9f16","grantRole(bytes32,address)":"2f2ff15d","hasRole(bytes32,address)":"91d14854","isTrustedForwarder(address)":"572b6c05","lastTimeRewardApplicable()":"80faa57d","lastUpdated()":"d0b06f5d","onERC20Received(address,address,uint256,bytes)":"4fc35859","owner()":"8da5cb5b","renounceRole(bytes32)":"8bb9c5bf","revokeRole(bytes32,address)":"d547741f","rewardPerStakePoint()":"2c9d0b80","rewardPerStakePointPaid(address)":"c5c8f770","rewardPerStakePointStored()":"9d696e36","rewardRate()":"7b0a47ee","rewards(address)":"0700037d","stake(bytes)":"2d1e0c02","staked(address)":"98807d84","supportsInterface(bytes4)":"01ffc9a7","totalStaked()":"817b1cd2","transferOwnership(address)":"f2fde38b","withdraw(bytes)":"0968f264"}},"storageLayout":{"storage":[{"astId":3174,"contract":"contracts/staking/ERC20StakingPointsRewardsLimitedLinearPool.sol:ERC20StakingPointsRewardsLimitedLinearPool","label":"_status","offset":0,"slot":"0","type":"t_uint256"},{"astId":1623,"contract":"contracts/staking/ERC20StakingPointsRewardsLimitedLinearPool.sol:ERC20StakingPointsRewardsLimitedLinearPool","label":"totalStaked","offset":0,"slot":"1","type":"t_uint256"},{"astId":1625,"contract":"contracts/staking/ERC20StakingPointsRewardsLimitedLinearPool.sol:ERC20StakingPointsRewardsLimitedLinearPool","label":"lastUpdated","offset":0,"slot":"2","type":"t_uint256"},{"astId":1627,"contract":"contracts/staking/ERC20StakingPointsRewardsLimitedLinearPool.sol:ERC20StakingPointsRewardsLimitedLinearPool","label":"rewardRate","offset":0,"slot":"3","type":"t_uint256"},{"astId":1629,"contract":"contracts/staking/ERC20StakingPointsRewardsLimitedLinearPool.sol:ERC20StakingPointsRewardsLimitedLinearPool","label":"rewardPerStakePointStored","offset":0,"slot":"4","type":"t_uint256"},{"astId":1631,"contract":"contracts/staking/ERC20StakingPointsRewardsLimitedLinearPool.sol:ERC20StakingPointsRewardsLimitedLinearPool","label":"distributionEnd","offset":0,"slot":"5","type":"t_uint256"},{"astId":1635,"contract":"contracts/staking/ERC20StakingPointsRewardsLimitedLinearPool.sol:ERC20StakingPointsRewardsLimitedLinearPool","label":"staked","offset":0,"slot":"6","type":"t_mapping(t_address,t_uint256)"},{"astId":1639,"contract":"contracts/staking/ERC20StakingPointsRewardsLimitedLinearPool.sol:ERC20StakingPointsRewardsLimitedLinearPool","label":"rewards","offset":0,"slot":"7","type":"t_mapping(t_address,t_uint256)"},{"astId":1643,"contract":"contracts/staking/ERC20StakingPointsRewardsLimitedLinearPool.sol:ERC20StakingPointsRewardsLimitedLinearPool","label":"rewardPerStakePointPaid","offset":0,"slot":"8","type":"t_mapping(t_address,t_uint256)"}],"types":{"t_address":{"encoding":"inplace","label":"address","numberOfBytes":"20"},"t_mapping(t_address,t_uint256)":{"encoding":"mapping","key":"t_address","label":"mapping(address => uint256)","numberOfBytes":"32","value":"t_uint256"},"t_uint256":{"encoding":"inplace","label":"uint256","numberOfBytes":"32"}}},"userdoc":{"errors":{"IllegalInterfaceId()":[{"notice":"Thrown when setting the illegal interfaceId 0xffffffff."}],"NotContractOwner(address)":[{"notice":"Thrown when an account is not the contract owner but is required to."}],"NotRoleHolder(bytes32,address)":[{"notice":"Thrown when an account does not have the required role."}]},"events":{"OwnershipTransferred(address,address)":{"notice":"Emitted when the contract ownership changes."},"RoleGranted(bytes32,address,address)":{"notice":"Emitted when `role` is granted to `account`."},"RoleRevoked(bytes32,address,address)":{"notice":"Emitted when `role` is revoked from `account`."}},"kind":"user","methods":{"grantRole(bytes32,address)":{"notice":"Grants a role to an account."},"hasRole(bytes32,address)":{"notice":"Retrieves whether an account has a role."},"isTrustedForwarder(address)":{"notice":"Checks whether a forwarder is trusted."},"owner()":{"notice":"Gets the address of the contract owner."},"renounceRole(bytes32)":{"notice":"Renounces a role by the sender."},"revokeRole(bytes32,address)":{"notice":"Revokes a role from an account."},"supportsInterface(bytes4)":{"notice":"Returns whether this contract implements a given interface."},"transferOwnership(address)":{"notice":"Sets the address of the new contract owner."}},"version":1}}}}