{"contracts/merkleClaim/ERC20MerkleClaim.sol":{"ERC20MerkleClaim":{"abi":[{"inputs":[{"internalType":"address","name":"rewardContract_","type":"address"},{"internalType":"address","name":"stakingContract_","type":"address"},{"internalType":"address","name":"payoutWallet_","type":"address"},{"internalType":"address","name":"treasuryWallet_","type":"address"},{"internalType":"uint96","name":"fee_","type":"uint96"},{"internalType":"contract IForwarderRegistry","name":"forwarderRegistry_","type":"address"}],"stateMutability":"nonpayable","type":"constructor"},{"inputs":[{"internalType":"address","name":"recipient","type":"address"},{"internalType":"uint256","name":"amount","type":"uint256"},{"internalType":"uint256","name":"nonce","type":"uint256"}],"name":"AlreadyClaimed","type":"error"},{"inputs":[],"name":"IllegalInterfaceId","type":"error"},{"inputs":[{"internalType":"uint256","name":"amount","type":"uint256"}],"name":"InvalidClaimAmount","type":"error"},{"inputs":[],"name":"InvalidFee","type":"error"},{"inputs":[],"name":"InvalidForwarderRegistry","type":"error"},{"inputs":[],"name":"InvalidPayoutWallet","type":"error"},{"inputs":[{"internalType":"address","name":"recipient","type":"address"},{"internalType":"uint256","name":"amount","type":"uint256"},{"internalType":"uint256","name":"nonce","type":"uint256"}],"name":"InvalidProof","type":"error"},{"inputs":[{"internalType":"address","name":"rewardContract","type":"address"}],"name":"InvalidRewardContract","type":"error"},{"inputs":[{"internalType":"address","name":"stakingContract","type":"address"}],"name":"InvalidStakingContract","type":"error"},{"inputs":[],"name":"InvalidTreasuryWallet","type":"error"},{"inputs":[{"internalType":"uint256","name":"nonce","type":"uint256"}],"name":"MerkleRootNotExists","type":"error"},{"inputs":[{"internalType":"address","name":"account","type":"address"}],"name":"NotContractOwner","type":"error"},{"inputs":[],"name":"NotPaused","type":"error"},{"inputs":[],"name":"Paused","type":"error"},{"anonymous":false,"inputs":[{"indexed":true,"internalType":"uint256","name":"nonce","type":"uint256"},{"indexed":true,"internalType":"bytes32","name":"root","type":"bytes32"}],"name":"MerkleRootSet","type":"event"},{"anonymous":false,"inputs":[{"indexed":true,"internalType":"address","name":"previousOwner","type":"address"},{"indexed":true,"internalType":"address","name":"newOwner","type":"address"}],"name":"OwnershipTransferred","type":"event"},{"anonymous":false,"inputs":[],"name":"Pause","type":"event"},{"anonymous":false,"inputs":[{"indexed":true,"internalType":"uint256","name":"nonce","type":"uint256"},{"indexed":true,"internalType":"bytes32","name":"root","type":"bytes32"},{"indexed":true,"internalType":"address","name":"recipient","type":"address"},{"indexed":false,"internalType":"address","name":"payoutWallet","type":"address"},{"indexed":false,"internalType":"uint256","name":"netClaimedAmount","type":"uint256"},{"indexed":false,"internalType":"uint256","name":"feeAmount","type":"uint256"}],"name":"PayoutClaimed","type":"event"},{"anonymous":false,"inputs":[{"indexed":true,"internalType":"address","name":"newPayoutWallet","type":"address"}],"name":"PayoutWalletSet","type":"event"},{"anonymous":false,"inputs":[{"indexed":true,"internalType":"address","name":"newTreasuryWallet","type":"address"}],"name":"TreasuryWalletSet","type":"event"},{"anonymous":false,"inputs":[],"name":"Unpause","type":"event"},{"inputs":[],"name":"FEE_PRECISION","outputs":[{"internalType":"uint256","name":"","type":"uint256"}],"stateMutability":"view","type":"function"},{"inputs":[],"name":"REWARD_CONTRACT","outputs":[{"internalType":"address","name":"","type":"address"}],"stateMutability":"view","type":"function"},{"inputs":[],"name":"STAKING_CONTRACT","outputs":[{"internalType":"address","name":"","type":"address"}],"stateMutability":"view","type":"function"},{"inputs":[{"internalType":"address","name":"recipient","type":"address"},{"internalType":"uint256","name":"amount","type":"uint256"},{"internalType":"uint96","name":"nonce_","type":"uint96"},{"internalType":"bytes32[]","name":"proof","type":"bytes32[]"}],"name":"claimPayout","outputs":[],"stateMutability":"nonpayable","type":"function"},{"inputs":[{"internalType":"address","name":"recipient","type":"address"},{"internalType":"uint256","name":"amount","type":"uint256"},{"internalType":"uint96","name":"nonce_","type":"uint96"},{"internalType":"bytes32[]","name":"proof","type":"bytes32[]"}],"name":"claimPayoutAndStake","outputs":[],"stateMutability":"nonpayable","type":"function"},{"inputs":[{"internalType":"bytes32","name":"leaf","type":"bytes32"}],"name":"claimed","outputs":[{"internalType":"bool","name":"claimed","type":"bool"}],"stateMutability":"view","type":"function"},{"inputs":[],"name":"fee","outputs":[{"internalType":"uint96","name":"","type":"uint96"}],"stateMutability":"view","type":"function"},{"inputs":[],"name":"forwarderRegistry","outputs":[{"internalType":"contract IForwarderRegistry","name":"","type":"address"}],"stateMutability":"view","type":"function"},{"inputs":[{"internalType":"address","name":"forwarder","type":"address"}],"name":"isTrustedForwarder","outputs":[{"internalType":"bool","name":"","type":"bool"}],"stateMutability":"view","type":"function"},{"inputs":[],"name":"nonce","outputs":[{"internalType":"uint96","name":"","type":"uint96"}],"stateMutability":"view","type":"function"},{"inputs":[],"name":"owner","outputs":[{"internalType":"address","name":"","type":"address"}],"stateMutability":"view","type":"function"},{"inputs":[],"name":"pause","outputs":[],"stateMutability":"nonpayable","type":"function"},{"inputs":[],"name":"paused","outputs":[{"internalType":"bool","name":"","type":"bool"}],"stateMutability":"view","type":"function"},{"inputs":[],"name":"payoutWallet","outputs":[{"internalType":"address","name":"","type":"address"}],"stateMutability":"view","type":"function"},{"inputs":[{"internalType":"uint96","name":"nonce","type":"uint96"}],"name":"rootMap","outputs":[{"internalType":"bytes32","name":"root","type":"bytes32"}],"stateMutability":"view","type":"function"},{"inputs":[{"internalType":"bytes32","name":"merkleRoot","type":"bytes32"}],"name":"setMerkleRoot","outputs":[],"stateMutability":"nonpayable","type":"function"},{"inputs":[{"internalType":"address","name":"newPayoutWallet","type":"address"}],"name":"setPayoutWallet","outputs":[],"stateMutability":"nonpayable","type":"function"},{"inputs":[{"internalType":"address","name":"newTreasuryWallet","type":"address"}],"name":"setTreasuryWallet","outputs":[],"stateMutability":"nonpayable","type":"function"},{"inputs":[{"internalType":"bytes4","name":"interfaceId","type":"bytes4"}],"name":"supportsInterface","outputs":[{"internalType":"bool","name":"","type":"bool"}],"stateMutability":"view","type":"function"},{"inputs":[{"internalType":"address","name":"newOwner","type":"address"}],"name":"transferOwnership","outputs":[],"stateMutability":"nonpayable","type":"function"},{"inputs":[],"name":"treasuryWallet","outputs":[{"internalType":"address","name":"","type":"address"}],"stateMutability":"view","type":"function"},{"inputs":[],"name":"unpause","outputs":[],"stateMutability":"nonpayable","type":"function"}],"devdoc":{"errors":{"AlreadyClaimed(address,uint256,uint256)":[{"params":{"amount":"The amount of reward token is claimed.","nonce":"The nonce of the root.","recipient":"The recipient of the claim."}}],"InvalidClaimAmount(uint256)":[{"params":{"amount":"The amount of the claim."}}],"InvalidProof(address,uint256,uint256)":[{"params":{"amount":"The amount of reward token is claimed.","nonce":"The nonce of the root.","recipient":"The recipient of the token reward."}}],"InvalidRewardContract(address)":[{"params":{"rewardContract":"The address of the invalid reward contract."}}],"InvalidStakingContract(address)":[{"params":{"stakingContract":"The address of the invalid staking contract."}}],"MerkleRootNotExists(uint256)":[{"params":{"nonce":"The nonce of the root."}}],"NotContractOwner(address)":[{"params":{"account":"The account that was checked."}}]},"events":{"MerkleRootSet(uint256,bytes32)":{"params":{"nonce":"The nonce used for setting the root.","root":"The new merkle root."}},"OwnershipTransferred(address,address)":{"params":{"newOwner":"the new contract owner.","previousOwner":"the previous contract owner."}},"PayoutClaimed(uint256,bytes32,address,address,uint256,uint256)":{"params":{"feeAmount":"The fee amount taken from the claimed reward.","netClaimedAmount":"The amount of reward token is claimed minus fee amount.","nonce":"The nonce for the root.","payoutWallet":"The wallet sending out the reward token.","recipient":"The recipient of the reward token.","root":"The merkle root on which the claim was made."}},"PayoutWalletSet(address)":{"params":{"newPayoutWallet":"The new payout wallet."}},"TreasuryWalletSet(address)":{"params":{"newTreasuryWallet":"The new treasury wallet."}}},"kind":"dev","methods":{"claimPayout(address,uint256,uint96,bytes32[])":{"details":"Emits a {PayoutClaimed} event.","params":{"amount":"The amount of reward token to be claimed.","nonce_":"The nonce of the root.PayoutClaimed","proof":"The Merkle proof of the user based on the merkle root","recipient":"The recipient for this claim."}},"claimPayoutAndStake(address,uint256,uint96,bytes32[])":{"details":"Emits a {PayoutClaimed} event.","params":{"amount":"The amount of reward token to be claimed.","nonce_":"The nonce of the root.PayoutClaimed","proof":"The Merkle proof of the user based on the merkle root","recipient":"The recipient for this claim."}},"isTrustedForwarder(address)":{"params":{"forwarder":"The forwarder to check."},"returns":{"_0":"True if `forwarder` is trusted, false if not."}},"owner()":{"returns":{"_0":"The address of the contract owner."}},"pause()":{"details":"Reverts with {NotContractOwner} if the sender is not the contract owner.Reverts with {Paused} if the contract is paused.Emits a {Paused} event."},"paused()":{"returns":{"_0":"The paused state of the contract."}},"setMerkleRoot(bytes32)":{"details":"Reverts with {NotContractOwner} if the sender is not the contract owner.Emits a {MerkleRootSet} event.","params":{"merkleRoot":"The merkle root to be set."}},"setPayoutWallet(address)":{"details":"Reverts with {NotContractOwner} if the sender is not the contract owner.Emits a {PayoutWalletSet} event.","params":{"newPayoutWallet":"The payout wallet to be set."}},"setTreasuryWallet(address)":{"details":"Reverts with {NotContractOwner} if the sender is not the contract owner.Emits a {TreasuryWalletSet} event.","params":{"newTreasuryWallet":"The treasury wallet to be set."}},"supportsInterface(bytes4)":{"details":"Note: This function call must use less than 30 000 gas.","params":{"interfaceId":"the interface identifier to test."},"returns":{"_0":"True if the interface is supported, false if `interfaceId` is `0xffffffff` or if the interface is not supported."}},"transferOwnership(address)":{"details":"Reverts if the sender is not the contract owner.Emits an {OwnershipTransferred} event if `newOwner` is different from the current contract owner.","params":{"newOwner":"The address of the new contract owner. Using the zero address means renouncing ownership."}},"unpause()":{"details":"Reverts with {NotContractOwner} if the sender is not the contract owner.Reverts with {NotPaused} if the contract is not paused.Emits an {Unpaused} event."}},"version":1},"evm":{"bytecode":{"linkReferences":{},"object":"60e060405234801561001057600080fd5b50604051611abe380380611abe83398101604081905261002f916102f9565b8080336100448161003e6101ad565b906101e1565b506001600160a01b039081166080528716905061008457604051635287368360e11b81526001600160a01b03871660048201526024015b60405180910390fd5b6001600160a01b0385166100b6576040516340ecbd2f60e11b81526001600160a01b038616600482015260240161007b565b6001600160a01b0384166100dd5760405163620e5f7160e11b815260040160405180910390fd5b6001600160a01b038316610104576040516314ad71c560e31b815260040160405180910390fd5b612710826001600160601b03161115610130576040516358d620b360e01b815260040160405180910390fd5b6001600160a01b03811661015757604051633545ba1f60e21b815260040160405180910390fd5b506001600160a01b0394851660a05292841660c052600280549285166c010000000000000000000000009081026001600160601b0394851617909155929091169216026001600160601b031916176003556103ad565b6000806101db60017fc9ed16f33ab3a66c84bfd83099ccb2a8845871e2e1c1928f63797152f0fd54cd61038c565b92915050565b6001600160a01b038116156102375781546001600160a01b0319166001600160a01b03821690811783556040516000907f8be0079c531659141344cd1fd0a4f28419497f9722a3daafe3b4186f6b6457e0908290a35b6102536307f5828d60e41b600161024c610257565b9190610285565b5050565b6000806101db60017fca9d3e17f264b0f3984e2634e94adb37fa3e6a8103f06aeae6fa59e21c769f5e61038c565b600160e01b6001600160e01b03198316016102b3576040516372c683bb60e01b815260040160405180910390fd5b6001600160e01b03199190911660009081526020929092526040909120805460ff1916911515919091179055565b6001600160a01b03811681146102f657600080fd5b50565b60008060008060008060c0878903121561031257600080fd5b865161031d816102e1565b602088015190965061032e816102e1565b604088015190955061033f816102e1565b6060880151909450610350816102e1565b60808801519093506001600160601b038116811461036d57600080fd5b60a088015190925061037e816102e1565b809150509295509295509295565b818103818111156101db57634e487b7160e01b600052601160045260246000fd5b60805160a05160c0516116b161040d600039600081816103d601526106280152600081816101fb015281816105fd015281816108c801526109ad0152600081816101b1015281816102670152818161113101526111bf01526116b16000f3fe608060405234801561001057600080fd5b50600436106101825760003560e01c80638488bb4e116100d8578063cc3c0f061161008c578063ddca3f4311610066578063ddca3f43146103f8578063e63a391f14610410578063f2fde38b1461041957600080fd5b8063cc3c0f061461039b578063d074eb97146103be578063da19ddfb146103d157600080fd5b8063a8602fea116100bd578063a8602fea14610325578063ac13165814610338578063affed0e01461036657600080fd5b80638488bb4e146102ed5780638da5cb5b1461031d57600080fd5b8063572b6c051161013a5780637cb64759116101145780637cb64759146102bf578063808756d6146102d25780638456cb59146102e557600080fd5b8063572b6c05146102575780635c975abb146102a45780636b8f9c43146102ac57600080fd5b80633a5af3391161016b5780633a5af339146101f65780633f4ba83a1461021d5780634626402b1461022757600080fd5b806301ffc9a7146101875780632b4c9f16146101af575b600080fd5b61019a61019536600461133e565b61042c565b60405190151581526020015b60405180910390f35b7f00000000000000000000000000000000000000000000000000000000000000005b60405173ffffffffffffffffffffffffffffffffffffffff90911681526020016101a6565b6101d17f000000000000000000000000000000000000000000000000000000000000000081565b610225610446565b005b6003546101d1906c01000000000000000000000000900473ffffffffffffffffffffffffffffffffffffffff1681565b61019a6102653660046113a9565b7f000000000000000000000000000000000000000000000000000000000000000073ffffffffffffffffffffffffffffffffffffffff90811691161490565b61019a610471565b6102256102ba3660046113a9565b61048a565b6102256102cd3660046113c4565b610502565b6102256102e03660046113f9565b6105b1565b610225610733565b6002546101d1906c01000000000000000000000000900473ffffffffffffffffffffffffffffffffffffffff1681565b6101d161074e565b6102256103333660046113a9565b610775565b610358610346366004611499565b60006020819052908152604090205481565b6040519081526020016101a6565b60025461037e906bffffffffffffffffffffffff1681565b6040516bffffffffffffffffffffffff90911681526020016101a6565b61019a6103a93660046113c4565b60016020526000908152604090205460ff1681565b6102256103cc3660046113f9565b6107ed565b6101d17f000000000000000000000000000000000000000000000000000000000000000081565b60035461037e906bffffffffffffffffffffffff1681565b61035861271081565b6102256104273660046113a9565b610a96565b60006104408261043a610ab4565b90610ae2565b92915050565b61045f610451610bbc565b610459610bc6565b90610bf4565b61046f61046a610c68565b610c96565b565b600061048561047e610c68565b5460ff1690565b905090565b610495610451610bbc565b600280546bffffffffffffffffffffffff166c0100000000000000000000000073ffffffffffffffffffffffffffffffffffffffff8416908102919091179091556040517fdd880d24a789958a6398c99c2e54ce31bc10a638cbc42f7dd34285479ae0f85590600090a250565b61050d610451610bbc565b600280546bffffffffffffffffffffffff90811660008181526020819052604081208590558354919392909161054391166114e3565b91906101000a8154816bffffffffffffffffffffffff02191690836bffffffffffffffffffffffff16021790555081816bffffffffffffffffffffffff167fb04b7d6145a7588fdcf339a22877d5965f861c171204fc37688058c5f6c06d3b60405160405180910390a35050565b60006105c08686868686610cf1565b6002546040805173ffffffffffffffffffffffffffffffffffffffff8a811660208301529394506c010000000000000000000000009092048316927f0000000000000000000000000000000000000000000000000000000000000000169163b88d4fde9184917f0000000000000000000000000000000000000000000000000000000000000000918b91016040516020818303038152906040526040518563ffffffff1660e01b81526004016106799493929190611518565b6020604051808303816000875af1158015610698573d6000803e3d6000fd5b505050506040513d601f19601f820116820180604052508101906106bc91906115c5565b506040805173ffffffffffffffffffffffffffffffffffffffff89811682526020820189905260008284015291519183169184916bffffffffffffffffffffffff8916917f4198e253c4ae311bc3d0c7aca40cb1a9827879ca09dc5f3a430127c736748f189181900360600190a450505050505050565b61073e610451610bbc565b61046f610749610c68565b610f7b565b600061048561075b610bc6565b5473ffffffffffffffffffffffffffffffffffffffff1690565b610780610451610bbc565b600380546bffffffffffffffffffffffff166c0100000000000000000000000073ffffffffffffffffffffffffffffffffffffffff8416908102919091179091556040517f5695f8b02f5f53d02b408db3ed952c16f32f9701ad2691c44733f2a2d09225a990600090a250565b60006107fc8686868686610cf1565b6002546003549192506c01000000000000000000000000900473ffffffffffffffffffffffffffffffffffffffff16906000906127109061084b906bffffffffffffffffffffffff16896115e7565b61085591906115fe565b905060006108638289611639565b6040517fb88d4fde00000000000000000000000000000000000000000000000000000000815273ffffffffffffffffffffffffffffffffffffffff85811660048301528b811660248301526044820183905260806064830152600060848301529192507f00000000000000000000000000000000000000000000000000000000000000009091169063b88d4fde9060a4016020604051808303816000875af1158015610913573d6000803e3d6000fd5b505050506040513d601f19601f8201168201806040525081019061093791906115c5565b506003546040517fb88d4fde00000000000000000000000000000000000000000000000000000000815273ffffffffffffffffffffffffffffffffffffffff85811660048301526c01000000000000000000000000909204821660248201526044810184905260806064820152600060848201527f00000000000000000000000000000000000000000000000000000000000000009091169063b88d4fde9060a4016020604051808303816000875af11580156109f8573d6000803e3d6000fd5b505050506040513d601f19601f82011682018060405250810190610a1c91906115c5565b506040805173ffffffffffffffffffffffffffffffffffffffff8b81168252602082018490529181018490529084169085906bffffffffffffffffffffffff8a16907f4198e253c4ae311bc3d0c7aca40cb1a9827879ca09dc5f3a430127c736748f189060600160405180910390a4505050505050505050565b610ab1610aa1610bbc565b82610aaa610bc6565b9190610fd9565b50565b60008061044060017fca9d3e17f264b0f3984e2634e94adb37fa3e6a8103f06aeae6fa59e21c769f5e611639565b60007c01000000000000000000000000000000000000000000000000000000007fffffffff00000000000000000000000000000000000000000000000000000000831601610b3257506000610440565b7ffe003659000000000000000000000000000000000000000000000000000000007fffffffff00000000000000000000000000000000000000000000000000000000831601610b8357506001610440565b507fffffffff00000000000000000000000000000000000000000000000000000000166000908152602091909152604090205460ff1690565b60006104856110ee565b60008061044060017fc9ed16f33ab3a66c84bfd83099ccb2a8845871e2e1c1928f63797152f0fd54cd611639565b815473ffffffffffffffffffffffffffffffffffffffff828116911614610c64576040517f2ef4875e00000000000000000000000000000000000000000000000000000000815273ffffffffffffffffffffffffffffffffffffffff821660048201526024015b60405180910390fd5b5050565b60008061044060017f0186a05f63b1553398ad5ea3233c0ce68b8c9eecc47717f123c5c2b42fbd6d9f611639565b610c9f8161123b565b80547fffffffffffffffffffffffffffffffffffffffffffffffffffffffffffffff001681556040517f7805862f689e2f13df9f062ff482ad3ad112aca9e0847911ed832e158c525b3390600090a150565b600084600003610d30576040517f27ab1ee200000000000000000000000000000000000000000000000000000000815260048101869052602401610c5b565b610d40610d3b610c68565b611276565b506bffffffffffffffffffffffff831660009081526020819052604081205490819003610da9576040517fab4a79390000000000000000000000000000000000000000000000000000000081526bffffffffffffffffffffffff85166004820152602401610c5b565b604051606087811b7fffffffffffffffffffffffffffffffffffffffff0000000000000000000000001660208301526034820187905260a086901b7fffffffffffffffffffffffff000000000000000000000000000000000000000016605483015260009101604080517fffffffffffffffffffffffffffffffffffffffffffffffffffffffffffffffe081840301815291905280516020909101209050610e53848484846112b2565b610ebc576040517f3c6ee01b00000000000000000000000000000000000000000000000000000000815273ffffffffffffffffffffffffffffffffffffffff88166004820152602481018790526bffffffffffffffffffffffff86166044820152606401610c5b565b60008181526001602052604090205460ff1615610f38576040517f6508823200000000000000000000000000000000000000000000000000000000815273ffffffffffffffffffffffffffffffffffffffff88166004820152602481018790526bffffffffffffffffffffffff86166044820152606401610c5b565b600090815260016020819052604090912080547fffffffffffffffffffffffffffffffffffffffffffffffffffffffffffffff0016909117905595945050505050565b610f8481611276565b80547fffffffffffffffffffffffffffffffffffffffffffffffffffffffffffffff001660011781556040517f6985a02210a168e66602d3235cb6db0e70f92b3ba4d376a33c0f3d9434bff62590600090a150565b825473ffffffffffffffffffffffffffffffffffffffff9081169083168114611046576040517f2ef4875e00000000000000000000000000000000000000000000000000000000815273ffffffffffffffffffffffffffffffffffffffff84166004820152602401610c5b565b8173ffffffffffffffffffffffffffffffffffffffff168173ffffffffffffffffffffffffffffffffffffffff16146110e85783547fffffffffffffffffffffffff00000000000000000000000000000000000000001673ffffffffffffffffffffffffffffffffffffffff8381169182178655604051908316907f8be0079c531659141344cd1fd0a4f28419497f9722a3daafe3b4186f6b6457e090600090a35b50505050565b6000333214806110fe5750601836105b1561110857503390565b7fffffffffffffffffffffffffffffffffffffffffffffffffffffffffffffffec36013560601c7f000000000000000000000000000000000000000000000000000000000000000073ffffffffffffffffffffffffffffffffffffffff1633148061122a57506040517f019a202800000000000000000000000000000000000000000000000000000000815273ffffffffffffffffffffffffffffffffffffffff82811660048301523360248301523060448301527f0000000000000000000000000000000000000000000000000000000000000000169063019a202890606401602060405180830381865afa158015611206573d6000803e3d6000fd5b505050506040513d601f19601f8201168201806040525081019061122a91906115c5565b1561123457919050565b3391505090565b805460ff16610ab1576040517f6cd6020100000000000000000000000000000000000000000000000000000000815260040160405180910390fd5b805460ff1615610ab1576040517f9e87fac800000000000000000000000000000000000000000000000000000000815260040160405180910390fd5b6000826112c08686856112ca565b1495945050505050565b600081815b84811015611303576112f9828787848181106112ed576112ed61164c565b9050602002013561130c565b91506001016112cf565b50949350505050565b6000818310611328576000828152602084905260409020611337565b60008381526020839052604090205b9392505050565b60006020828403121561135057600080fd5b81357fffffffff000000000000000000000000000000000000000000000000000000008116811461133757600080fd5b803573ffffffffffffffffffffffffffffffffffffffff811681146113a457600080fd5b919050565b6000602082840312156113bb57600080fd5b61133782611380565b6000602082840312156113d657600080fd5b5035919050565b80356bffffffffffffffffffffffff811681146113a457600080fd5b60008060008060006080868803121561141157600080fd5b61141a86611380565b94506020860135935061142f604087016113dd565b9250606086013567ffffffffffffffff81111561144b57600080fd5b8601601f8101881361145c57600080fd5b803567ffffffffffffffff81111561147357600080fd5b8860208260051b840101111561148857600080fd5b959894975092955050506020019190565b6000602082840312156114ab57600080fd5b611337826113dd565b7f4e487b7100000000000000000000000000000000000000000000000000000000600052601160045260246000fd5b60006bffffffffffffffffffffffff82166bffffffffffffffffffffffff810361150f5761150f6114b4565b60010192915050565b73ffffffffffffffffffffffffffffffffffffffff8516815273ffffffffffffffffffffffffffffffffffffffff84166020820152826040820152608060608201526000825180608084015260005b8181101561158457602081860181015160a0868401015201611567565b50600060a0828501015260a07fffffffffffffffffffffffffffffffffffffffffffffffffffffffffffffffe0601f83011684010191505095945050505050565b6000602082840312156115d757600080fd5b8151801515811461133757600080fd5b8082028115828204841417610440576104406114b4565b600082611634577f4e487b7100000000000000000000000000000000000000000000000000000000600052601260045260246000fd5b500490565b81810381811115610440576104406114b4565b7f4e487b7100000000000000000000000000000000000000000000000000000000600052603260045260246000fdfea264697066735822122035cf98e8be03b32301d1cb41aab47c64ca8334667887b0ce1488f120e3be985e64736f6c634300081c0033","opcodes":"PUSH1 0xE0 PUSH1 0x40 MSTORE CALLVALUE DUP1 ISZERO PUSH2 0x10 JUMPI PUSH1 0x0 DUP1 REVERT JUMPDEST POP PUSH1 0x40 MLOAD PUSH2 0x1ABE CODESIZE SUB DUP1 PUSH2 0x1ABE DUP4 CODECOPY DUP2 ADD PUSH1 0x40 DUP2 SWAP1 MSTORE PUSH2 0x2F SWAP2 PUSH2 0x2F9 JUMP JUMPDEST DUP1 DUP1 CALLER PUSH2 0x44 DUP2 PUSH2 0x3E PUSH2 0x1AD JUMP JUMPDEST SWAP1 PUSH2 0x1E1 JUMP JUMPDEST POP PUSH1 0x1 PUSH1 0x1 PUSH1 0xA0 SHL SUB SWAP1 DUP2 AND PUSH1 0x80 MSTORE DUP8 AND SWAP1 POP PUSH2 0x84 JUMPI PUSH1 0x40 MLOAD PUSH4 0x52873683 PUSH1 0xE1 SHL DUP2 MSTORE PUSH1 0x1 PUSH1 0x1 PUSH1 0xA0 SHL SUB DUP8 AND PUSH1 0x4 DUP3 ADD MSTORE PUSH1 0x24 ADD JUMPDEST PUSH1 0x40 MLOAD DUP1 SWAP2 SUB SWAP1 REVERT JUMPDEST PUSH1 0x1 PUSH1 0x1 PUSH1 0xA0 SHL SUB DUP6 AND PUSH2 0xB6 JUMPI PUSH1 0x40 MLOAD PUSH4 0x40ECBD2F PUSH1 0xE1 SHL DUP2 MSTORE PUSH1 0x1 PUSH1 0x1 PUSH1 0xA0 SHL SUB DUP7 AND PUSH1 0x4 DUP3 ADD MSTORE PUSH1 0x24 ADD PUSH2 0x7B JUMP JUMPDEST PUSH1 0x1 PUSH1 0x1 PUSH1 0xA0 SHL SUB DUP5 AND PUSH2 0xDD JUMPI PUSH1 0x40 MLOAD PUSH4 0x620E5F71 PUSH1 0xE1 SHL DUP2 MSTORE PUSH1 0x4 ADD PUSH1 0x40 MLOAD DUP1 SWAP2 SUB SWAP1 REVERT JUMPDEST PUSH1 0x1 PUSH1 0x1 PUSH1 0xA0 SHL SUB DUP4 AND PUSH2 0x104 JUMPI PUSH1 0x40 MLOAD PUSH4 0x14AD71C5 PUSH1 0xE3 SHL DUP2 MSTORE PUSH1 0x4 ADD PUSH1 0x40 MLOAD DUP1 SWAP2 SUB SWAP1 REVERT JUMPDEST PUSH2 0x2710 DUP3 PUSH1 0x1 PUSH1 0x1 PUSH1 0x60 SHL SUB AND GT ISZERO PUSH2 0x130 JUMPI PUSH1 0x40 MLOAD PUSH4 0x58D620B3 PUSH1 0xE0 SHL DUP2 MSTORE PUSH1 0x4 ADD PUSH1 0x40 MLOAD DUP1 SWAP2 SUB SWAP1 REVERT JUMPDEST PUSH1 0x1 PUSH1 0x1 PUSH1 0xA0 SHL SUB DUP2 AND PUSH2 0x157 JUMPI PUSH1 0x40 MLOAD PUSH4 0x3545BA1F PUSH1 0xE2 SHL DUP2 MSTORE PUSH1 0x4 ADD PUSH1 0x40 MLOAD DUP1 SWAP2 SUB SWAP1 REVERT JUMPDEST POP PUSH1 0x1 PUSH1 0x1 PUSH1 0xA0 SHL SUB SWAP5 DUP6 AND PUSH1 0xA0 MSTORE SWAP3 DUP5 AND PUSH1 0xC0 MSTORE PUSH1 0x2 DUP1 SLOAD SWAP3 DUP6 AND PUSH13 0x1000000000000000000000000 SWAP1 DUP2 MUL PUSH1 0x1 PUSH1 0x1 PUSH1 0x60 SHL SUB SWAP5 DUP6 AND OR SWAP1 SWAP2 SSTORE SWAP3 SWAP1 SWAP2 AND SWAP3 AND MUL PUSH1 0x1 PUSH1 0x1 PUSH1 0x60 SHL SUB NOT AND OR PUSH1 0x3 SSTORE PUSH2 0x3AD JUMP JUMPDEST PUSH1 0x0 DUP1 PUSH2 0x1DB PUSH1 0x1 PUSH32 0xC9ED16F33AB3A66C84BFD83099CCB2A8845871E2E1C1928F63797152F0FD54CD PUSH2 0x38C JUMP JUMPDEST SWAP3 SWAP2 POP POP JUMP JUMPDEST PUSH1 0x1 PUSH1 0x1 PUSH1 0xA0 SHL SUB DUP2 AND ISZERO PUSH2 0x237 JUMPI DUP2 SLOAD PUSH1 0x1 PUSH1 0x1 PUSH1 0xA0 SHL SUB NOT AND PUSH1 0x1 PUSH1 0x1 PUSH1 0xA0 SHL SUB DUP3 AND SWAP1 DUP2 OR DUP4 SSTORE PUSH1 0x40 MLOAD PUSH1 0x0 SWAP1 PUSH32 0x8BE0079C531659141344CD1FD0A4F28419497F9722A3DAAFE3B4186F6B6457E0 SWAP1 DUP3 SWAP1 LOG3 JUMPDEST PUSH2 0x253 PUSH4 0x7F5828D PUSH1 0xE4 SHL PUSH1 0x1 PUSH2 0x24C PUSH2 0x257 JUMP JUMPDEST SWAP2 SWAP1 PUSH2 0x285 JUMP JUMPDEST POP POP JUMP JUMPDEST PUSH1 0x0 DUP1 PUSH2 0x1DB PUSH1 0x1 PUSH32 0xCA9D3E17F264B0F3984E2634E94ADB37FA3E6A8103F06AEAE6FA59E21C769F5E PUSH2 0x38C JUMP JUMPDEST PUSH1 0x1 PUSH1 0xE0 SHL PUSH1 0x1 PUSH1 0x1 PUSH1 0xE0 SHL SUB NOT DUP4 AND ADD PUSH2 0x2B3 JUMPI PUSH1 0x40 MLOAD PUSH4 0x72C683BB PUSH1 0xE0 SHL DUP2 MSTORE PUSH1 0x4 ADD PUSH1 0x40 MLOAD DUP1 SWAP2 SUB SWAP1 REVERT JUMPDEST PUSH1 0x1 PUSH1 0x1 PUSH1 0xE0 SHL SUB NOT SWAP2 SWAP1 SWAP2 AND PUSH1 0x0 SWAP1 DUP2 MSTORE PUSH1 0x20 SWAP3 SWAP1 SWAP3 MSTORE PUSH1 0x40 SWAP1 SWAP2 KECCAK256 DUP1 SLOAD PUSH1 0xFF NOT AND SWAP2 ISZERO ISZERO SWAP2 SWAP1 SWAP2 OR SWAP1 SSTORE JUMP JUMPDEST PUSH1 0x1 PUSH1 0x1 PUSH1 0xA0 SHL SUB DUP2 AND DUP2 EQ PUSH2 0x2F6 JUMPI PUSH1 0x0 DUP1 REVERT JUMPDEST POP JUMP JUMPDEST PUSH1 0x0 DUP1 PUSH1 0x0 DUP1 PUSH1 0x0 DUP1 PUSH1 0xC0 DUP8 DUP10 SUB SLT ISZERO PUSH2 0x312 JUMPI PUSH1 0x0 DUP1 REVERT JUMPDEST DUP7 MLOAD PUSH2 0x31D DUP2 PUSH2 0x2E1 JUMP JUMPDEST PUSH1 0x20 DUP9 ADD MLOAD SWAP1 SWAP7 POP PUSH2 0x32E DUP2 PUSH2 0x2E1 JUMP JUMPDEST PUSH1 0x40 DUP9 ADD MLOAD SWAP1 SWAP6 POP PUSH2 0x33F DUP2 PUSH2 0x2E1 JUMP JUMPDEST PUSH1 0x60 DUP9 ADD MLOAD SWAP1 SWAP5 POP PUSH2 0x350 DUP2 PUSH2 0x2E1 JUMP JUMPDEST PUSH1 0x80 DUP9 ADD MLOAD SWAP1 SWAP4 POP PUSH1 0x1 PUSH1 0x1 PUSH1 0x60 SHL SUB DUP2 AND DUP2 EQ PUSH2 0x36D JUMPI PUSH1 0x0 DUP1 REVERT JUMPDEST PUSH1 0xA0 DUP9 ADD MLOAD SWAP1 SWAP3 POP PUSH2 0x37E DUP2 PUSH2 0x2E1 JUMP JUMPDEST DUP1 SWAP2 POP POP SWAP3 SWAP6 POP SWAP3 SWAP6 POP SWAP3 SWAP6 JUMP JUMPDEST DUP2 DUP2 SUB DUP2 DUP2 GT ISZERO PUSH2 0x1DB JUMPI PUSH4 0x4E487B71 PUSH1 0xE0 SHL PUSH1 0x0 MSTORE PUSH1 0x11 PUSH1 0x4 MSTORE PUSH1 0x24 PUSH1 0x0 REVERT JUMPDEST PUSH1 0x80 MLOAD PUSH1 0xA0 MLOAD PUSH1 0xC0 MLOAD PUSH2 0x16B1 PUSH2 0x40D PUSH1 0x0 CODECOPY PUSH1 0x0 DUP2 DUP2 PUSH2 0x3D6 ADD MSTORE PUSH2 0x628 ADD MSTORE PUSH1 0x0 DUP2 DUP2 PUSH2 0x1FB ADD MSTORE DUP2 DUP2 PUSH2 0x5FD ADD MSTORE DUP2 DUP2 PUSH2 0x8C8 ADD MSTORE PUSH2 0x9AD ADD MSTORE PUSH1 0x0 DUP2 DUP2 PUSH2 0x1B1 ADD MSTORE DUP2 DUP2 PUSH2 0x267 ADD MSTORE DUP2 DUP2 PUSH2 0x1131 ADD MSTORE PUSH2 0x11BF ADD MSTORE PUSH2 0x16B1 PUSH1 0x0 RETURN INVALID PUSH1 0x80 PUSH1 0x40 MSTORE CALLVALUE DUP1 ISZERO PUSH2 0x10 JUMPI PUSH1 0x0 DUP1 REVERT JUMPDEST POP PUSH1 0x4 CALLDATASIZE LT PUSH2 0x182 JUMPI PUSH1 0x0 CALLDATALOAD PUSH1 0xE0 SHR DUP1 PUSH4 0x8488BB4E GT PUSH2 0xD8 JUMPI DUP1 PUSH4 0xCC3C0F06 GT PUSH2 0x8C JUMPI DUP1 PUSH4 0xDDCA3F43 GT PUSH2 0x66 JUMPI DUP1 PUSH4 0xDDCA3F43 EQ PUSH2 0x3F8 JUMPI DUP1 PUSH4 0xE63A391F EQ PUSH2 0x410 JUMPI DUP1 PUSH4 0xF2FDE38B EQ PUSH2 0x419 JUMPI PUSH1 0x0 DUP1 REVERT JUMPDEST DUP1 PUSH4 0xCC3C0F06 EQ PUSH2 0x39B JUMPI DUP1 PUSH4 0xD074EB97 EQ PUSH2 0x3BE JUMPI DUP1 PUSH4 0xDA19DDFB EQ PUSH2 0x3D1 JUMPI PUSH1 0x0 DUP1 REVERT JUMPDEST DUP1 PUSH4 0xA8602FEA GT PUSH2 0xBD JUMPI DUP1 PUSH4 0xA8602FEA EQ PUSH2 0x325 JUMPI DUP1 PUSH4 0xAC131658 EQ PUSH2 0x338 JUMPI DUP1 PUSH4 0xAFFED0E0 EQ PUSH2 0x366 JUMPI PUSH1 0x0 DUP1 REVERT JUMPDEST DUP1 PUSH4 0x8488BB4E EQ PUSH2 0x2ED JUMPI DUP1 PUSH4 0x8DA5CB5B EQ PUSH2 0x31D JUMPI PUSH1 0x0 DUP1 REVERT JUMPDEST DUP1 PUSH4 0x572B6C05 GT PUSH2 0x13A JUMPI DUP1 PUSH4 0x7CB64759 GT PUSH2 0x114 JUMPI DUP1 PUSH4 0x7CB64759 EQ PUSH2 0x2BF JUMPI DUP1 PUSH4 0x808756D6 EQ PUSH2 0x2D2 JUMPI DUP1 PUSH4 0x8456CB59 EQ PUSH2 0x2E5 JUMPI PUSH1 0x0 DUP1 REVERT JUMPDEST DUP1 PUSH4 0x572B6C05 EQ PUSH2 0x257 JUMPI DUP1 PUSH4 0x5C975ABB EQ PUSH2 0x2A4 JUMPI DUP1 PUSH4 0x6B8F9C43 EQ PUSH2 0x2AC JUMPI PUSH1 0x0 DUP1 REVERT JUMPDEST DUP1 PUSH4 0x3A5AF339 GT PUSH2 0x16B JUMPI DUP1 PUSH4 0x3A5AF339 EQ PUSH2 0x1F6 JUMPI DUP1 PUSH4 0x3F4BA83A EQ PUSH2 0x21D JUMPI DUP1 PUSH4 0x4626402B EQ PUSH2 0x227 JUMPI PUSH1 0x0 DUP1 REVERT JUMPDEST DUP1 PUSH4 0x1FFC9A7 EQ PUSH2 0x187 JUMPI DUP1 PUSH4 0x2B4C9F16 EQ PUSH2 0x1AF JUMPI JUMPDEST PUSH1 0x0 DUP1 REVERT JUMPDEST PUSH2 0x19A PUSH2 0x195 CALLDATASIZE PUSH1 0x4 PUSH2 0x133E JUMP JUMPDEST PUSH2 0x42C JUMP JUMPDEST PUSH1 0x40 MLOAD SWAP1 ISZERO ISZERO DUP2 MSTORE PUSH1 0x20 ADD JUMPDEST PUSH1 0x40 MLOAD DUP1 SWAP2 SUB SWAP1 RETURN JUMPDEST PUSH32 0x0 JUMPDEST PUSH1 0x40 MLOAD PUSH20 0xFFFFFFFFFFFFFFFFFFFFFFFFFFFFFFFFFFFFFFFF SWAP1 SWAP2 AND DUP2 MSTORE PUSH1 0x20 ADD PUSH2 0x1A6 JUMP JUMPDEST PUSH2 0x1D1 PUSH32 0x0 DUP2 JUMP JUMPDEST PUSH2 0x225 PUSH2 0x446 JUMP JUMPDEST STOP JUMPDEST PUSH1 0x3 SLOAD PUSH2 0x1D1 SWAP1 PUSH13 0x1000000000000000000000000 SWAP1 DIV PUSH20 0xFFFFFFFFFFFFFFFFFFFFFFFFFFFFFFFFFFFFFFFF AND DUP2 JUMP JUMPDEST PUSH2 0x19A PUSH2 0x265 CALLDATASIZE PUSH1 0x4 PUSH2 0x13A9 JUMP JUMPDEST PUSH32 0x0 PUSH20 0xFFFFFFFFFFFFFFFFFFFFFFFFFFFFFFFFFFFFFFFF SWAP1 DUP2 AND SWAP2 AND EQ SWAP1 JUMP JUMPDEST PUSH2 0x19A PUSH2 0x471 JUMP JUMPDEST PUSH2 0x225 PUSH2 0x2BA CALLDATASIZE PUSH1 0x4 PUSH2 0x13A9 JUMP JUMPDEST PUSH2 0x48A JUMP JUMPDEST PUSH2 0x225 PUSH2 0x2CD CALLDATASIZE PUSH1 0x4 PUSH2 0x13C4 JUMP JUMPDEST PUSH2 0x502 JUMP JUMPDEST PUSH2 0x225 PUSH2 0x2E0 CALLDATASIZE PUSH1 0x4 PUSH2 0x13F9 JUMP JUMPDEST PUSH2 0x5B1 JUMP JUMPDEST PUSH2 0x225 PUSH2 0x733 JUMP JUMPDEST PUSH1 0x2 SLOAD PUSH2 0x1D1 SWAP1 PUSH13 0x1000000000000000000000000 SWAP1 DIV PUSH20 0xFFFFFFFFFFFFFFFFFFFFFFFFFFFFFFFFFFFFFFFF AND DUP2 JUMP JUMPDEST PUSH2 0x1D1 PUSH2 0x74E JUMP JUMPDEST PUSH2 0x225 PUSH2 0x333 CALLDATASIZE PUSH1 0x4 PUSH2 0x13A9 JUMP JUMPDEST PUSH2 0x775 JUMP JUMPDEST PUSH2 0x358 PUSH2 0x346 CALLDATASIZE PUSH1 0x4 PUSH2 0x1499 JUMP JUMPDEST PUSH1 0x0 PUSH1 0x20 DUP2 SWAP1 MSTORE SWAP1 DUP2 MSTORE PUSH1 0x40 SWAP1 KECCAK256 SLOAD DUP2 JUMP JUMPDEST PUSH1 0x40 MLOAD SWAP1 DUP2 MSTORE PUSH1 0x20 ADD PUSH2 0x1A6 JUMP JUMPDEST PUSH1 0x2 SLOAD PUSH2 0x37E SWAP1 PUSH12 0xFFFFFFFFFFFFFFFFFFFFFFFF AND DUP2 JUMP JUMPDEST PUSH1 0x40 MLOAD PUSH12 0xFFFFFFFFFFFFFFFFFFFFFFFF SWAP1 SWAP2 AND DUP2 MSTORE PUSH1 0x20 ADD PUSH2 0x1A6 JUMP JUMPDEST PUSH2 0x19A PUSH2 0x3A9 CALLDATASIZE PUSH1 0x4 PUSH2 0x13C4 JUMP JUMPDEST PUSH1 0x1 PUSH1 0x20 MSTORE PUSH1 0x0 SWAP1 DUP2 MSTORE PUSH1 0x40 SWAP1 KECCAK256 SLOAD PUSH1 0xFF AND DUP2 JUMP JUMPDEST PUSH2 0x225 PUSH2 0x3CC CALLDATASIZE PUSH1 0x4 PUSH2 0x13F9 JUMP JUMPDEST PUSH2 0x7ED JUMP JUMPDEST PUSH2 0x1D1 PUSH32 0x0 DUP2 JUMP JUMPDEST PUSH1 0x3 SLOAD PUSH2 0x37E SWAP1 PUSH12 0xFFFFFFFFFFFFFFFFFFFFFFFF AND DUP2 JUMP JUMPDEST PUSH2 0x358 PUSH2 0x2710 DUP2 JUMP JUMPDEST PUSH2 0x225 PUSH2 0x427 CALLDATASIZE PUSH1 0x4 PUSH2 0x13A9 JUMP JUMPDEST PUSH2 0xA96 JUMP JUMPDEST PUSH1 0x0 PUSH2 0x440 DUP3 PUSH2 0x43A PUSH2 0xAB4 JUMP JUMPDEST SWAP1 PUSH2 0xAE2 JUMP JUMPDEST SWAP3 SWAP2 POP POP JUMP JUMPDEST PUSH2 0x45F PUSH2 0x451 PUSH2 0xBBC JUMP JUMPDEST PUSH2 0x459 PUSH2 0xBC6 JUMP JUMPDEST SWAP1 PUSH2 0xBF4 JUMP JUMPDEST PUSH2 0x46F PUSH2 0x46A PUSH2 0xC68 JUMP JUMPDEST PUSH2 0xC96 JUMP JUMPDEST JUMP JUMPDEST PUSH1 0x0 PUSH2 0x485 PUSH2 0x47E PUSH2 0xC68 JUMP JUMPDEST SLOAD PUSH1 0xFF AND SWAP1 JUMP JUMPDEST SWAP1 POP SWAP1 JUMP JUMPDEST PUSH2 0x495 PUSH2 0x451 PUSH2 0xBBC JUMP JUMPDEST PUSH1 0x2 DUP1 SLOAD PUSH12 0xFFFFFFFFFFFFFFFFFFFFFFFF AND PUSH13 0x1000000000000000000000000 PUSH20 0xFFFFFFFFFFFFFFFFFFFFFFFFFFFFFFFFFFFFFFFF DUP5 AND SWAP1 DUP2 MUL SWAP2 SWAP1 SWAP2 OR SWAP1 SWAP2 SSTORE PUSH1 0x40 MLOAD PUSH32 0xDD880D24A789958A6398C99C2E54CE31BC10A638CBC42F7DD34285479AE0F855 SWAP1 PUSH1 0x0 SWAP1 LOG2 POP JUMP JUMPDEST PUSH2 0x50D PUSH2 0x451 PUSH2 0xBBC JUMP JUMPDEST PUSH1 0x2 DUP1 SLOAD PUSH12 0xFFFFFFFFFFFFFFFFFFFFFFFF SWAP1 DUP2 AND PUSH1 0x0 DUP2 DUP2 MSTORE PUSH1 0x20 DUP2 SWAP1 MSTORE PUSH1 0x40 DUP2 KECCAK256 DUP6 SWAP1 SSTORE DUP4 SLOAD SWAP2 SWAP4 SWAP3 SWAP1 SWAP2 PUSH2 0x543 SWAP2 AND PUSH2 0x14E3 JUMP JUMPDEST SWAP2 SWAP1 PUSH2 0x100 EXP DUP2 SLOAD DUP2 PUSH12 0xFFFFFFFFFFFFFFFFFFFFFFFF MUL NOT AND SWAP1 DUP4 PUSH12 0xFFFFFFFFFFFFFFFFFFFFFFFF AND MUL OR SWAP1 SSTORE POP DUP2 DUP2 PUSH12 0xFFFFFFFFFFFFFFFFFFFFFFFF AND PUSH32 0xB04B7D6145A7588FDCF339A22877D5965F861C171204FC37688058C5F6C06D3B PUSH1 0x40 MLOAD PUSH1 0x40 MLOAD DUP1 SWAP2 SUB SWAP1 LOG3 POP POP JUMP JUMPDEST PUSH1 0x0 PUSH2 0x5C0 DUP7 DUP7 DUP7 DUP7 DUP7 PUSH2 0xCF1 JUMP JUMPDEST PUSH1 0x2 SLOAD PUSH1 0x40 DUP1 MLOAD PUSH20 0xFFFFFFFFFFFFFFFFFFFFFFFFFFFFFFFFFFFFFFFF DUP11 DUP2 AND PUSH1 0x20 DUP4 ADD MSTORE SWAP4 SWAP5 POP PUSH13 0x1000000000000000000000000 SWAP1 SWAP3 DIV DUP4 AND SWAP3 PUSH32 0x0 AND SWAP2 PUSH4 0xB88D4FDE SWAP2 DUP5 SWAP2 PUSH32 0x0 SWAP2 DUP12 SWAP2 ADD PUSH1 0x40 MLOAD PUSH1 0x20 DUP2 DUP4 SUB SUB DUP2 MSTORE SWAP1 PUSH1 0x40 MSTORE PUSH1 0x40 MLOAD DUP6 PUSH4 0xFFFFFFFF AND PUSH1 0xE0 SHL DUP2 MSTORE PUSH1 0x4 ADD PUSH2 0x679 SWAP5 SWAP4 SWAP3 SWAP2 SWAP1 PUSH2 0x1518 JUMP JUMPDEST PUSH1 0x20 PUSH1 0x40 MLOAD DUP1 DUP4 SUB DUP2 PUSH1 0x0 DUP8 GAS CALL ISZERO DUP1 ISZERO PUSH2 0x698 JUMPI RETURNDATASIZE PUSH1 0x0 DUP1 RETURNDATACOPY RETURNDATASIZE PUSH1 0x0 REVERT JUMPDEST POP POP POP POP PUSH1 0x40 MLOAD RETURNDATASIZE PUSH1 0x1F NOT PUSH1 0x1F DUP3 ADD AND DUP3 ADD DUP1 PUSH1 0x40 MSTORE POP DUP2 ADD SWAP1 PUSH2 0x6BC SWAP2 SWAP1 PUSH2 0x15C5 JUMP JUMPDEST POP PUSH1 0x40 DUP1 MLOAD PUSH20 0xFFFFFFFFFFFFFFFFFFFFFFFFFFFFFFFFFFFFFFFF DUP10 DUP2 AND DUP3 MSTORE PUSH1 0x20 DUP3 ADD DUP10 SWAP1 MSTORE PUSH1 0x0 DUP3 DUP5 ADD MSTORE SWAP2 MLOAD SWAP2 DUP4 AND SWAP2 DUP5 SWAP2 PUSH12 0xFFFFFFFFFFFFFFFFFFFFFFFF DUP10 AND SWAP2 PUSH32 0x4198E253C4AE311BC3D0C7ACA40CB1A9827879CA09DC5F3A430127C736748F18 SWAP2 DUP2 SWAP1 SUB PUSH1 0x60 ADD SWAP1 LOG4 POP POP POP POP POP POP POP JUMP JUMPDEST PUSH2 0x73E PUSH2 0x451 PUSH2 0xBBC JUMP JUMPDEST PUSH2 0x46F PUSH2 0x749 PUSH2 0xC68 JUMP JUMPDEST PUSH2 0xF7B JUMP JUMPDEST PUSH1 0x0 PUSH2 0x485 PUSH2 0x75B PUSH2 0xBC6 JUMP JUMPDEST SLOAD PUSH20 0xFFFFFFFFFFFFFFFFFFFFFFFFFFFFFFFFFFFFFFFF AND SWAP1 JUMP JUMPDEST PUSH2 0x780 PUSH2 0x451 PUSH2 0xBBC JUMP JUMPDEST PUSH1 0x3 DUP1 SLOAD PUSH12 0xFFFFFFFFFFFFFFFFFFFFFFFF AND PUSH13 0x1000000000000000000000000 PUSH20 0xFFFFFFFFFFFFFFFFFFFFFFFFFFFFFFFFFFFFFFFF DUP5 AND SWAP1 DUP2 MUL SWAP2 SWAP1 SWAP2 OR SWAP1 SWAP2 SSTORE PUSH1 0x40 MLOAD PUSH32 0x5695F8B02F5F53D02B408DB3ED952C16F32F9701AD2691C44733F2A2D09225A9 SWAP1 PUSH1 0x0 SWAP1 LOG2 POP JUMP JUMPDEST PUSH1 0x0 PUSH2 0x7FC DUP7 DUP7 DUP7 DUP7 DUP7 PUSH2 0xCF1 JUMP JUMPDEST PUSH1 0x2 SLOAD PUSH1 0x3 SLOAD SWAP2 SWAP3 POP PUSH13 0x1000000000000000000000000 SWAP1 DIV PUSH20 0xFFFFFFFFFFFFFFFFFFFFFFFFFFFFFFFFFFFFFFFF AND SWAP1 PUSH1 0x0 SWAP1 PUSH2 0x2710 SWAP1 PUSH2 0x84B SWAP1 PUSH12 0xFFFFFFFFFFFFFFFFFFFFFFFF AND DUP10 PUSH2 0x15E7 JUMP JUMPDEST PUSH2 0x855 SWAP2 SWAP1 PUSH2 0x15FE JUMP JUMPDEST SWAP1 POP PUSH1 0x0 PUSH2 0x863 DUP3 DUP10 PUSH2 0x1639 JUMP JUMPDEST PUSH1 0x40 MLOAD PUSH32 0xB88D4FDE00000000000000000000000000000000000000000000000000000000 DUP2 MSTORE PUSH20 0xFFFFFFFFFFFFFFFFFFFFFFFFFFFFFFFFFFFFFFFF DUP6 DUP2 AND PUSH1 0x4 DUP4 ADD MSTORE DUP12 DUP2 AND PUSH1 0x24 DUP4 ADD MSTORE PUSH1 0x44 DUP3 ADD DUP4 SWAP1 MSTORE PUSH1 0x80 PUSH1 0x64 DUP4 ADD MSTORE PUSH1 0x0 PUSH1 0x84 DUP4 ADD MSTORE SWAP2 SWAP3 POP PUSH32 0x0 SWAP1 SWAP2 AND SWAP1 PUSH4 0xB88D4FDE SWAP1 PUSH1 0xA4 ADD PUSH1 0x20 PUSH1 0x40 MLOAD DUP1 DUP4 SUB DUP2 PUSH1 0x0 DUP8 GAS CALL ISZERO DUP1 ISZERO PUSH2 0x913 JUMPI RETURNDATASIZE PUSH1 0x0 DUP1 RETURNDATACOPY RETURNDATASIZE PUSH1 0x0 REVERT JUMPDEST POP POP POP POP PUSH1 0x40 MLOAD RETURNDATASIZE PUSH1 0x1F NOT PUSH1 0x1F DUP3 ADD AND DUP3 ADD DUP1 PUSH1 0x40 MSTORE POP DUP2 ADD SWAP1 PUSH2 0x937 SWAP2 SWAP1 PUSH2 0x15C5 JUMP JUMPDEST POP PUSH1 0x3 SLOAD PUSH1 0x40 MLOAD PUSH32 0xB88D4FDE00000000000000000000000000000000000000000000000000000000 DUP2 MSTORE PUSH20 0xFFFFFFFFFFFFFFFFFFFFFFFFFFFFFFFFFFFFFFFF DUP6 DUP2 AND PUSH1 0x4 DUP4 ADD MSTORE PUSH13 0x1000000000000000000000000 SWAP1 SWAP3 DIV DUP3 AND PUSH1 0x24 DUP3 ADD MSTORE PUSH1 0x44 DUP2 ADD DUP5 SWAP1 MSTORE PUSH1 0x80 PUSH1 0x64 DUP3 ADD MSTORE PUSH1 0x0 PUSH1 0x84 DUP3 ADD MSTORE PUSH32 0x0 SWAP1 SWAP2 AND SWAP1 PUSH4 0xB88D4FDE SWAP1 PUSH1 0xA4 ADD PUSH1 0x20 PUSH1 0x40 MLOAD DUP1 DUP4 SUB DUP2 PUSH1 0x0 DUP8 GAS CALL ISZERO DUP1 ISZERO PUSH2 0x9F8 JUMPI RETURNDATASIZE PUSH1 0x0 DUP1 RETURNDATACOPY RETURNDATASIZE PUSH1 0x0 REVERT JUMPDEST POP POP POP POP PUSH1 0x40 MLOAD RETURNDATASIZE PUSH1 0x1F NOT PUSH1 0x1F DUP3 ADD AND DUP3 ADD DUP1 PUSH1 0x40 MSTORE POP DUP2 ADD SWAP1 PUSH2 0xA1C SWAP2 SWAP1 PUSH2 0x15C5 JUMP JUMPDEST POP PUSH1 0x40 DUP1 MLOAD PUSH20 0xFFFFFFFFFFFFFFFFFFFFFFFFFFFFFFFFFFFFFFFF DUP12 DUP2 AND DUP3 MSTORE PUSH1 0x20 DUP3 ADD DUP5 SWAP1 MSTORE SWAP2 DUP2 ADD DUP5 SWAP1 MSTORE SWAP1 DUP5 AND SWAP1 DUP6 SWAP1 PUSH12 0xFFFFFFFFFFFFFFFFFFFFFFFF DUP11 AND SWAP1 PUSH32 0x4198E253C4AE311BC3D0C7ACA40CB1A9827879CA09DC5F3A430127C736748F18 SWAP1 PUSH1 0x60 ADD PUSH1 0x40 MLOAD DUP1 SWAP2 SUB SWAP1 LOG4 POP POP POP POP POP POP POP POP POP JUMP JUMPDEST PUSH2 0xAB1 PUSH2 0xAA1 PUSH2 0xBBC JUMP JUMPDEST DUP3 PUSH2 0xAAA PUSH2 0xBC6 JUMP JUMPDEST SWAP2 SWAP1 PUSH2 0xFD9 JUMP JUMPDEST POP JUMP JUMPDEST PUSH1 0x0 DUP1 PUSH2 0x440 PUSH1 0x1 PUSH32 0xCA9D3E17F264B0F3984E2634E94ADB37FA3E6A8103F06AEAE6FA59E21C769F5E PUSH2 0x1639 JUMP JUMPDEST PUSH1 0x0 PUSH29 0x100000000000000000000000000000000000000000000000000000000 PUSH32 0xFFFFFFFF00000000000000000000000000000000000000000000000000000000 DUP4 AND ADD PUSH2 0xB32 JUMPI POP PUSH1 0x0 PUSH2 0x440 JUMP JUMPDEST PUSH32 0xFE00365900000000000000000000000000000000000000000000000000000000 PUSH32 0xFFFFFFFF00000000000000000000000000000000000000000000000000000000 DUP4 AND ADD PUSH2 0xB83 JUMPI POP PUSH1 0x1 PUSH2 0x440 JUMP JUMPDEST POP PUSH32 0xFFFFFFFF00000000000000000000000000000000000000000000000000000000 AND PUSH1 0x0 SWAP1 DUP2 MSTORE PUSH1 0x20 SWAP2 SWAP1 SWAP2 MSTORE PUSH1 0x40 SWAP1 KECCAK256 SLOAD PUSH1 0xFF AND SWAP1 JUMP JUMPDEST PUSH1 0x0 PUSH2 0x485 PUSH2 0x10EE JUMP JUMPDEST PUSH1 0x0 DUP1 PUSH2 0x440 PUSH1 0x1 PUSH32 0xC9ED16F33AB3A66C84BFD83099CCB2A8845871E2E1C1928F63797152F0FD54CD PUSH2 0x1639 JUMP JUMPDEST DUP2 SLOAD PUSH20 0xFFFFFFFFFFFFFFFFFFFFFFFFFFFFFFFFFFFFFFFF DUP3 DUP2 AND SWAP2 AND EQ PUSH2 0xC64 JUMPI PUSH1 0x40 MLOAD PUSH32 0x2EF4875E00000000000000000000000000000000000000000000000000000000 DUP2 MSTORE PUSH20 0xFFFFFFFFFFFFFFFFFFFFFFFFFFFFFFFFFFFFFFFF DUP3 AND PUSH1 0x4 DUP3 ADD MSTORE PUSH1 0x24 ADD JUMPDEST PUSH1 0x40 MLOAD DUP1 SWAP2 SUB SWAP1 REVERT JUMPDEST POP POP JUMP JUMPDEST PUSH1 0x0 DUP1 PUSH2 0x440 PUSH1 0x1 PUSH32 0x186A05F63B1553398AD5EA3233C0CE68B8C9EECC47717F123C5C2B42FBD6D9F PUSH2 0x1639 JUMP JUMPDEST PUSH2 0xC9F DUP2 PUSH2 0x123B JUMP JUMPDEST DUP1 SLOAD PUSH32 0xFFFFFFFFFFFFFFFFFFFFFFFFFFFFFFFFFFFFFFFFFFFFFFFFFFFFFFFFFFFFFF00 AND DUP2 SSTORE PUSH1 0x40 MLOAD PUSH32 0x7805862F689E2F13DF9F062FF482AD3AD112ACA9E0847911ED832E158C525B33 SWAP1 PUSH1 0x0 SWAP1 LOG1 POP JUMP JUMPDEST PUSH1 0x0 DUP5 PUSH1 0x0 SUB PUSH2 0xD30 JUMPI PUSH1 0x40 MLOAD PUSH32 0x27AB1EE200000000000000000000000000000000000000000000000000000000 DUP2 MSTORE PUSH1 0x4 DUP2 ADD DUP7 SWAP1 MSTORE PUSH1 0x24 ADD PUSH2 0xC5B JUMP JUMPDEST PUSH2 0xD40 PUSH2 0xD3B PUSH2 0xC68 JUMP JUMPDEST PUSH2 0x1276 JUMP JUMPDEST POP PUSH12 0xFFFFFFFFFFFFFFFFFFFFFFFF DUP4 AND PUSH1 0x0 SWAP1 DUP2 MSTORE PUSH1 0x20 DUP2 SWAP1 MSTORE PUSH1 0x40 DUP2 KECCAK256 SLOAD SWAP1 DUP2 SWAP1 SUB PUSH2 0xDA9 JUMPI PUSH1 0x40 MLOAD PUSH32 0xAB4A793900000000000000000000000000000000000000000000000000000000 DUP2 MSTORE PUSH12 0xFFFFFFFFFFFFFFFFFFFFFFFF DUP6 AND PUSH1 0x4 DUP3 ADD MSTORE PUSH1 0x24 ADD PUSH2 0xC5B JUMP JUMPDEST PUSH1 0x40 MLOAD PUSH1 0x60 DUP8 DUP2 SHL PUSH32 0xFFFFFFFFFFFFFFFFFFFFFFFFFFFFFFFFFFFFFFFF000000000000000000000000 AND PUSH1 0x20 DUP4 ADD MSTORE PUSH1 0x34 DUP3 ADD DUP8 SWAP1 MSTORE PUSH1 0xA0 DUP7 SWAP1 SHL PUSH32 0xFFFFFFFFFFFFFFFFFFFFFFFF0000000000000000000000000000000000000000 AND PUSH1 0x54 DUP4 ADD MSTORE PUSH1 0x0 SWAP2 ADD PUSH1 0x40 DUP1 MLOAD PUSH32 0xFFFFFFFFFFFFFFFFFFFFFFFFFFFFFFFFFFFFFFFFFFFFFFFFFFFFFFFFFFFFFFE0 DUP2 DUP5 SUB ADD DUP2 MSTORE SWAP2 SWAP1 MSTORE DUP1 MLOAD PUSH1 0x20 SWAP1 SWAP2 ADD KECCAK256 SWAP1 POP PUSH2 0xE53 DUP5 DUP5 DUP5 DUP5 PUSH2 0x12B2 JUMP JUMPDEST PUSH2 0xEBC JUMPI PUSH1 0x40 MLOAD PUSH32 0x3C6EE01B00000000000000000000000000000000000000000000000000000000 DUP2 MSTORE PUSH20 0xFFFFFFFFFFFFFFFFFFFFFFFFFFFFFFFFFFFFFFFF DUP9 AND PUSH1 0x4 DUP3 ADD MSTORE PUSH1 0x24 DUP2 ADD DUP8 SWAP1 MSTORE PUSH12 0xFFFFFFFFFFFFFFFFFFFFFFFF DUP7 AND PUSH1 0x44 DUP3 ADD MSTORE PUSH1 0x64 ADD PUSH2 0xC5B JUMP JUMPDEST PUSH1 0x0 DUP2 DUP2 MSTORE PUSH1 0x1 PUSH1 0x20 MSTORE PUSH1 0x40 SWAP1 KECCAK256 SLOAD PUSH1 0xFF AND ISZERO PUSH2 0xF38 JUMPI PUSH1 0x40 MLOAD PUSH32 0x6508823200000000000000000000000000000000000000000000000000000000 DUP2 MSTORE PUSH20 0xFFFFFFFFFFFFFFFFFFFFFFFFFFFFFFFFFFFFFFFF DUP9 AND PUSH1 0x4 DUP3 ADD MSTORE PUSH1 0x24 DUP2 ADD DUP8 SWAP1 MSTORE PUSH12 0xFFFFFFFFFFFFFFFFFFFFFFFF DUP7 AND PUSH1 0x44 DUP3 ADD MSTORE PUSH1 0x64 ADD PUSH2 0xC5B JUMP JUMPDEST PUSH1 0x0 SWAP1 DUP2 MSTORE PUSH1 0x1 PUSH1 0x20 DUP2 SWAP1 MSTORE PUSH1 0x40 SWAP1 SWAP2 KECCAK256 DUP1 SLOAD PUSH32 0xFFFFFFFFFFFFFFFFFFFFFFFFFFFFFFFFFFFFFFFFFFFFFFFFFFFFFFFFFFFFFF00 AND SWAP1 SWAP2 OR SWAP1 SSTORE SWAP6 SWAP5 POP POP POP POP POP JUMP JUMPDEST PUSH2 0xF84 DUP2 PUSH2 0x1276 JUMP JUMPDEST DUP1 SLOAD PUSH32 0xFFFFFFFFFFFFFFFFFFFFFFFFFFFFFFFFFFFFFFFFFFFFFFFFFFFFFFFFFFFFFF00 AND PUSH1 0x1 OR DUP2 SSTORE PUSH1 0x40 MLOAD PUSH32 0x6985A02210A168E66602D3235CB6DB0E70F92B3BA4D376A33C0F3D9434BFF625 SWAP1 PUSH1 0x0 SWAP1 LOG1 POP JUMP JUMPDEST DUP3 SLOAD PUSH20 0xFFFFFFFFFFFFFFFFFFFFFFFFFFFFFFFFFFFFFFFF SWAP1 DUP2 AND SWAP1 DUP4 AND DUP2 EQ PUSH2 0x1046 JUMPI PUSH1 0x40 MLOAD PUSH32 0x2EF4875E00000000000000000000000000000000000000000000000000000000 DUP2 MSTORE PUSH20 0xFFFFFFFFFFFFFFFFFFFFFFFFFFFFFFFFFFFFFFFF DUP5 AND PUSH1 0x4 DUP3 ADD MSTORE PUSH1 0x24 ADD PUSH2 0xC5B JUMP JUMPDEST DUP2 PUSH20 0xFFFFFFFFFFFFFFFFFFFFFFFFFFFFFFFFFFFFFFFF AND DUP2 PUSH20 0xFFFFFFFFFFFFFFFFFFFFFFFFFFFFFFFFFFFFFFFF AND EQ PUSH2 0x10E8 JUMPI DUP4 SLOAD PUSH32 0xFFFFFFFFFFFFFFFFFFFFFFFF0000000000000000000000000000000000000000 AND PUSH20 0xFFFFFFFFFFFFFFFFFFFFFFFFFFFFFFFFFFFFFFFF DUP4 DUP2 AND SWAP2 DUP3 OR DUP7 SSTORE PUSH1 0x40 MLOAD SWAP1 DUP4 AND SWAP1 PUSH32 0x8BE0079C531659141344CD1FD0A4F28419497F9722A3DAAFE3B4186F6B6457E0 SWAP1 PUSH1 0x0 SWAP1 LOG3 JUMPDEST POP POP POP POP JUMP JUMPDEST PUSH1 0x0 CALLER ORIGIN EQ DUP1 PUSH2 0x10FE JUMPI POP PUSH1 0x18 CALLDATASIZE LT JUMPDEST ISZERO PUSH2 0x1108 JUMPI POP CALLER SWAP1 JUMP JUMPDEST PUSH32 0xFFFFFFFFFFFFFFFFFFFFFFFFFFFFFFFFFFFFFFFFFFFFFFFFFFFFFFFFFFFFFFEC CALLDATASIZE ADD CALLDATALOAD PUSH1 0x60 SHR PUSH32 0x0 PUSH20 0xFFFFFFFFFFFFFFFFFFFFFFFFFFFFFFFFFFFFFFFF AND CALLER EQ DUP1 PUSH2 0x122A JUMPI POP PUSH1 0x40 MLOAD PUSH32 0x19A202800000000000000000000000000000000000000000000000000000000 DUP2 MSTORE PUSH20 0xFFFFFFFFFFFFFFFFFFFFFFFFFFFFFFFFFFFFFFFF DUP3 DUP2 AND PUSH1 0x4 DUP4 ADD MSTORE CALLER PUSH1 0x24 DUP4 ADD MSTORE ADDRESS PUSH1 0x44 DUP4 ADD MSTORE PUSH32 0x0 AND SWAP1 PUSH4 0x19A2028 SWAP1 PUSH1 0x64 ADD PUSH1 0x20 PUSH1 0x40 MLOAD DUP1 DUP4 SUB DUP2 DUP7 GAS STATICCALL ISZERO DUP1 ISZERO PUSH2 0x1206 JUMPI RETURNDATASIZE PUSH1 0x0 DUP1 RETURNDATACOPY RETURNDATASIZE PUSH1 0x0 REVERT JUMPDEST POP POP POP POP PUSH1 0x40 MLOAD RETURNDATASIZE PUSH1 0x1F NOT PUSH1 0x1F DUP3 ADD AND DUP3 ADD DUP1 PUSH1 0x40 MSTORE POP DUP2 ADD SWAP1 PUSH2 0x122A SWAP2 SWAP1 PUSH2 0x15C5 JUMP JUMPDEST ISZERO PUSH2 0x1234 JUMPI SWAP2 SWAP1 POP JUMP JUMPDEST CALLER SWAP2 POP POP SWAP1 JUMP JUMPDEST DUP1 SLOAD PUSH1 0xFF AND PUSH2 0xAB1 JUMPI PUSH1 0x40 MLOAD PUSH32 0x6CD6020100000000000000000000000000000000000000000000000000000000 DUP2 MSTORE PUSH1 0x4 ADD PUSH1 0x40 MLOAD DUP1 SWAP2 SUB SWAP1 REVERT JUMPDEST DUP1 SLOAD PUSH1 0xFF AND ISZERO PUSH2 0xAB1 JUMPI PUSH1 0x40 MLOAD PUSH32 0x9E87FAC800000000000000000000000000000000000000000000000000000000 DUP2 MSTORE PUSH1 0x4 ADD PUSH1 0x40 MLOAD DUP1 SWAP2 SUB SWAP1 REVERT JUMPDEST PUSH1 0x0 DUP3 PUSH2 0x12C0 DUP7 DUP7 DUP6 PUSH2 0x12CA JUMP JUMPDEST EQ SWAP6 SWAP5 POP POP POP POP POP JUMP JUMPDEST PUSH1 0x0 DUP2 DUP2 JUMPDEST DUP5 DUP2 LT ISZERO PUSH2 0x1303 JUMPI PUSH2 0x12F9 DUP3 DUP8 DUP8 DUP5 DUP2 DUP2 LT PUSH2 0x12ED JUMPI PUSH2 0x12ED PUSH2 0x164C JUMP JUMPDEST SWAP1 POP PUSH1 0x20 MUL ADD CALLDATALOAD PUSH2 0x130C JUMP JUMPDEST SWAP2 POP PUSH1 0x1 ADD PUSH2 0x12CF JUMP JUMPDEST POP SWAP5 SWAP4 POP POP POP POP JUMP JUMPDEST PUSH1 0x0 DUP2 DUP4 LT PUSH2 0x1328 JUMPI PUSH1 0x0 DUP3 DUP2 MSTORE PUSH1 0x20 DUP5 SWAP1 MSTORE PUSH1 0x40 SWAP1 KECCAK256 PUSH2 0x1337 JUMP JUMPDEST PUSH1 0x0 DUP4 DUP2 MSTORE PUSH1 0x20 DUP4 SWAP1 MSTORE PUSH1 0x40 SWAP1 KECCAK256 JUMPDEST SWAP4 SWAP3 POP POP POP JUMP JUMPDEST PUSH1 0x0 PUSH1 0x20 DUP3 DUP5 SUB SLT ISZERO PUSH2 0x1350 JUMPI PUSH1 0x0 DUP1 REVERT JUMPDEST DUP2 CALLDATALOAD PUSH32 0xFFFFFFFF00000000000000000000000000000000000000000000000000000000 DUP2 AND DUP2 EQ PUSH2 0x1337 JUMPI PUSH1 0x0 DUP1 REVERT JUMPDEST DUP1 CALLDATALOAD PUSH20 0xFFFFFFFFFFFFFFFFFFFFFFFFFFFFFFFFFFFFFFFF DUP2 AND DUP2 EQ PUSH2 0x13A4 JUMPI PUSH1 0x0 DUP1 REVERT JUMPDEST SWAP2 SWAP1 POP JUMP JUMPDEST PUSH1 0x0 PUSH1 0x20 DUP3 DUP5 SUB SLT ISZERO PUSH2 0x13BB JUMPI PUSH1 0x0 DUP1 REVERT JUMPDEST PUSH2 0x1337 DUP3 PUSH2 0x1380 JUMP JUMPDEST PUSH1 0x0 PUSH1 0x20 DUP3 DUP5 SUB SLT ISZERO PUSH2 0x13D6 JUMPI PUSH1 0x0 DUP1 REVERT JUMPDEST POP CALLDATALOAD SWAP2 SWAP1 POP JUMP JUMPDEST DUP1 CALLDATALOAD PUSH12 0xFFFFFFFFFFFFFFFFFFFFFFFF DUP2 AND DUP2 EQ PUSH2 0x13A4 JUMPI PUSH1 0x0 DUP1 REVERT JUMPDEST PUSH1 0x0 DUP1 PUSH1 0x0 DUP1 PUSH1 0x0 PUSH1 0x80 DUP7 DUP9 SUB SLT ISZERO PUSH2 0x1411 JUMPI PUSH1 0x0 DUP1 REVERT JUMPDEST PUSH2 0x141A DUP7 PUSH2 0x1380 JUMP JUMPDEST SWAP5 POP PUSH1 0x20 DUP7 ADD CALLDATALOAD SWAP4 POP PUSH2 0x142F PUSH1 0x40 DUP8 ADD PUSH2 0x13DD JUMP JUMPDEST SWAP3 POP PUSH1 0x60 DUP7 ADD CALLDATALOAD PUSH8 0xFFFFFFFFFFFFFFFF DUP2 GT ISZERO PUSH2 0x144B JUMPI PUSH1 0x0 DUP1 REVERT JUMPDEST DUP7 ADD PUSH1 0x1F DUP2 ADD DUP9 SGT PUSH2 0x145C JUMPI PUSH1 0x0 DUP1 REVERT JUMPDEST DUP1 CALLDATALOAD PUSH8 0xFFFFFFFFFFFFFFFF DUP2 GT ISZERO PUSH2 0x1473 JUMPI PUSH1 0x0 DUP1 REVERT JUMPDEST DUP9 PUSH1 0x20 DUP3 PUSH1 0x5 SHL DUP5 ADD ADD GT ISZERO PUSH2 0x1488 JUMPI PUSH1 0x0 DUP1 REVERT JUMPDEST SWAP6 SWAP9 SWAP5 SWAP8 POP SWAP3 SWAP6 POP POP POP PUSH1 0x20 ADD SWAP2 SWAP1 JUMP JUMPDEST PUSH1 0x0 PUSH1 0x20 DUP3 DUP5 SUB SLT ISZERO PUSH2 0x14AB JUMPI PUSH1 0x0 DUP1 REVERT JUMPDEST PUSH2 0x1337 DUP3 PUSH2 0x13DD JUMP JUMPDEST PUSH32 0x4E487B7100000000000000000000000000000000000000000000000000000000 PUSH1 0x0 MSTORE PUSH1 0x11 PUSH1 0x4 MSTORE PUSH1 0x24 PUSH1 0x0 REVERT JUMPDEST PUSH1 0x0 PUSH12 0xFFFFFFFFFFFFFFFFFFFFFFFF DUP3 AND PUSH12 0xFFFFFFFFFFFFFFFFFFFFFFFF DUP2 SUB PUSH2 0x150F JUMPI PUSH2 0x150F PUSH2 0x14B4 JUMP JUMPDEST PUSH1 0x1 ADD SWAP3 SWAP2 POP POP JUMP JUMPDEST PUSH20 0xFFFFFFFFFFFFFFFFFFFFFFFFFFFFFFFFFFFFFFFF DUP6 AND DUP2 MSTORE PUSH20 0xFFFFFFFFFFFFFFFFFFFFFFFFFFFFFFFFFFFFFFFF DUP5 AND PUSH1 0x20 DUP3 ADD MSTORE DUP3 PUSH1 0x40 DUP3 ADD MSTORE PUSH1 0x80 PUSH1 0x60 DUP3 ADD MSTORE PUSH1 0x0 DUP3 MLOAD DUP1 PUSH1 0x80 DUP5 ADD MSTORE PUSH1 0x0 JUMPDEST DUP2 DUP2 LT ISZERO PUSH2 0x1584 JUMPI PUSH1 0x20 DUP2 DUP7 ADD DUP2 ADD MLOAD PUSH1 0xA0 DUP7 DUP5 ADD ADD MSTORE ADD PUSH2 0x1567 JUMP JUMPDEST POP PUSH1 0x0 PUSH1 0xA0 DUP3 DUP6 ADD ADD MSTORE PUSH1 0xA0 PUSH32 0xFFFFFFFFFFFFFFFFFFFFFFFFFFFFFFFFFFFFFFFFFFFFFFFFFFFFFFFFFFFFFFE0 PUSH1 0x1F DUP4 ADD AND DUP5 ADD ADD SWAP2 POP POP SWAP6 SWAP5 POP POP POP POP POP JUMP JUMPDEST PUSH1 0x0 PUSH1 0x20 DUP3 DUP5 SUB SLT ISZERO PUSH2 0x15D7 JUMPI PUSH1 0x0 DUP1 REVERT JUMPDEST DUP2 MLOAD DUP1 ISZERO ISZERO DUP2 EQ PUSH2 0x1337 JUMPI PUSH1 0x0 DUP1 REVERT JUMPDEST DUP1 DUP3 MUL DUP2 ISZERO DUP3 DUP3 DIV DUP5 EQ OR PUSH2 0x440 JUMPI PUSH2 0x440 PUSH2 0x14B4 JUMP JUMPDEST PUSH1 0x0 DUP3 PUSH2 0x1634 JUMPI PUSH32 0x4E487B7100000000000000000000000000000000000000000000000000000000 PUSH1 0x0 MSTORE PUSH1 0x12 PUSH1 0x4 MSTORE PUSH1 0x24 PUSH1 0x0 REVERT JUMPDEST POP DIV SWAP1 JUMP JUMPDEST DUP2 DUP2 SUB DUP2 DUP2 GT ISZERO PUSH2 0x440 JUMPI PUSH2 0x440 PUSH2 0x14B4 JUMP JUMPDEST PUSH32 0x4E487B7100000000000000000000000000000000000000000000000000000000 PUSH1 0x0 MSTORE PUSH1 0x32 PUSH1 0x4 MSTORE PUSH1 0x24 PUSH1 0x0 REVERT INVALID LOG2 PUSH5 0x6970667358 0x22 SLT KECCAK256 CALLDATALOAD 0xCF SWAP9 0xE8 0xBE SUB 0xB3 0x23 ADD 0xD1 0xCB COINBASE 0xAA 0xB4 PUSH29 0x64CA8334667887B0CE1488F120E3BE985E64736F6C634300081C003300 "},"gasEstimates":{"creation":{"codeDepositCost":"1161800","executionCost":"infinite","totalCost":"infinite"},"external":{"FEE_PRECISION()":"261","REWARD_CONTRACT()":"infinite","STAKING_CONTRACT()":"infinite","claimPayout(address,uint256,uint96,bytes32[])":"infinite","claimPayoutAndStake(address,uint256,uint96,bytes32[])":"infinite","claimed(bytes32)":"2484","fee()":"2357","forwarderRegistry()":"infinite","isTrustedForwarder(address)":"infinite","nonce()":"2402","owner()":"infinite","pause()":"infinite","paused()":"infinite","payoutWallet()":"2370","rootMap(uint96)":"2577","setMerkleRoot(bytes32)":"infinite","setPayoutWallet(address)":"infinite","setTreasuryWallet(address)":"infinite","supportsInterface(bytes4)":"infinite","transferOwnership(address)":"infinite","treasuryWallet()":"2414","unpause()":"infinite"},"internal":{"_claim(address,uint256,uint96,bytes32[] calldata)":"infinite","_msgData()":"infinite","_msgSender()":"infinite"}},"methodIdentifiers":{"FEE_PRECISION()":"e63a391f","REWARD_CONTRACT()":"3a5af339","STAKING_CONTRACT()":"da19ddfb","claimPayout(address,uint256,uint96,bytes32[])":"d074eb97","claimPayoutAndStake(address,uint256,uint96,bytes32[])":"808756d6","claimed(bytes32)":"cc3c0f06","fee()":"ddca3f43","forwarderRegistry()":"2b4c9f16","isTrustedForwarder(address)":"572b6c05","nonce()":"affed0e0","owner()":"8da5cb5b","pause()":"8456cb59","paused()":"5c975abb","payoutWallet()":"8488bb4e","rootMap(uint96)":"ac131658","setMerkleRoot(bytes32)":"7cb64759","setPayoutWallet(address)":"6b8f9c43","setTreasuryWallet(address)":"a8602fea","supportsInterface(bytes4)":"01ffc9a7","transferOwnership(address)":"f2fde38b","treasuryWallet()":"4626402b","unpause()":"3f4ba83a"}},"storageLayout":{"storage":[{"astId":4536,"contract":"contracts/merkleClaim/ERC20MerkleClaim.sol:ERC20MerkleClaim","label":"rootMap","offset":0,"slot":"0","type":"t_mapping(t_uint96,t_bytes32)"},{"astId":4541,"contract":"contracts/merkleClaim/ERC20MerkleClaim.sol:ERC20MerkleClaim","label":"claimed","offset":0,"slot":"1","type":"t_mapping(t_bytes32,t_bool)"},{"astId":4544,"contract":"contracts/merkleClaim/ERC20MerkleClaim.sol:ERC20MerkleClaim","label":"nonce","offset":0,"slot":"2","type":"t_uint96"},{"astId":4547,"contract":"contracts/merkleClaim/ERC20MerkleClaim.sol:ERC20MerkleClaim","label":"payoutWallet","offset":12,"slot":"2","type":"t_address"},{"astId":4550,"contract":"contracts/merkleClaim/ERC20MerkleClaim.sol:ERC20MerkleClaim","label":"fee","offset":0,"slot":"3","type":"t_uint96"},{"astId":4553,"contract":"contracts/merkleClaim/ERC20MerkleClaim.sol:ERC20MerkleClaim","label":"treasuryWallet","offset":12,"slot":"3","type":"t_address"}],"types":{"t_address":{"encoding":"inplace","label":"address","numberOfBytes":"20"},"t_bool":{"encoding":"inplace","label":"bool","numberOfBytes":"1"},"t_bytes32":{"encoding":"inplace","label":"bytes32","numberOfBytes":"32"},"t_mapping(t_bytes32,t_bool)":{"encoding":"mapping","key":"t_bytes32","label":"mapping(bytes32 => bool)","numberOfBytes":"32","value":"t_bool"},"t_mapping(t_uint96,t_bytes32)":{"encoding":"mapping","key":"t_uint96","label":"mapping(uint96 => bytes32)","numberOfBytes":"32","value":"t_bytes32"},"t_uint96":{"encoding":"inplace","label":"uint96","numberOfBytes":"12"}}},"userdoc":{"errors":{"AlreadyClaimed(address,uint256,uint256)":[{"notice":"Thrown when trying to claim the same leaf more than once."}],"IllegalInterfaceId()":[{"notice":"Thrown when setting the illegal interfaceId 0xffffffff."}],"InvalidClaimAmount(uint256)":[{"notice":"Throws when the claim amount is zero."}],"InvalidFee()":[{"notice":"Thrown when the given fee is bigger than precision."}],"InvalidForwarderRegistry()":[{"notice":"Thrown when the given forwarder registry address is zero address."}],"InvalidPayoutWallet()":[{"notice":"Thrown when the given payout wallet address is zero address."}],"InvalidProof(address,uint256,uint256)":[{"notice":"Thrown when a proof cannot be verified."}],"InvalidRewardContract(address)":[{"notice":"Thrown when the reward contract address is invalid."}],"InvalidStakingContract(address)":[{"notice":"Thrown when the staking contract address is invalid."}],"InvalidTreasuryWallet()":[{"notice":"Thrown when the given treasury wallet address is zero address."}],"MerkleRootNotExists(uint256)":[{"notice":"Throws when the merkle root does not exist."}],"NotContractOwner(address)":[{"notice":"Thrown when an account is not the contract owner but is required to."}],"NotPaused()":[{"notice":"Thrown when the contract is not paused but is required to."}],"Paused()":[{"notice":"Thrown when the contract is paused but is required not to."}]},"events":{"MerkleRootSet(uint256,bytes32)":{"notice":"Emitted when a new merkle root is set."},"OwnershipTransferred(address,address)":{"notice":"Emitted when the contract ownership changes."},"Pause()":{"notice":"Emitted when the pause is triggered."},"PayoutClaimed(uint256,bytes32,address,address,uint256,uint256)":{"notice":"Emitted when a payout is claimed."},"PayoutWalletSet(address)":{"notice":"Emitted when a new payout wallet is set."},"TreasuryWalletSet(address)":{"notice":"Emitted when a new treasury wallet is set."},"Unpause()":{"notice":"Emitted when the pause is lifted."}},"kind":"user","methods":{"FEE_PRECISION()":{"notice":"Fee precision"},"REWARD_CONTRACT()":{"notice":"a reference to reward token contract"},"STAKING_CONTRACT()":{"notice":"a reference to staking contract"},"claimPayout(address,uint256,uint96,bytes32[])":{"notice":"Executes the payout for a given recipient address (anyone can call this function)."},"claimPayoutAndStake(address,uint256,uint96,bytes32[])":{"notice":"Executes the payout for a given recipient address (anyone can call this function) and stake the payout right away."},"claimed(bytes32)":{"notice":"leaf hash to claimed state"},"fee()":{"notice":"Store the fee percentage"},"isTrustedForwarder(address)":{"notice":"Checks whether a forwarder is trusted."},"nonce()":{"notice":"Store the nonce"},"owner()":{"notice":"Gets the address of the contract owner."},"pause()":{"notice":"Pauses the contract."},"paused()":{"notice":"Gets the paused state of the contract."},"payoutWallet()":{"notice":"Store the payout wallet address for transfering reward token"},"rootMap(uint96)":{"notice":"Store the merkle roots for claiming"},"setMerkleRoot(bytes32)":{"notice":"Sets the new merkle root with current nonce for claiming."},"setPayoutWallet(address)":{"notice":"Sets the new payout wallet."},"setTreasuryWallet(address)":{"notice":"Sets the new treasury wallet."},"supportsInterface(bytes4)":{"notice":"Returns whether this contract implements a given interface."},"transferOwnership(address)":{"notice":"Sets the address of the new contract owner."},"treasuryWallet()":{"notice":"Store the treasury wallet address for collecting fee"},"unpause()":{"notice":"Unpauses the contract."}},"version":1}}}}