{"contracts/mocks/merkleClaim/ERC20MerkleClaimMock.sol":{"ERC20MerkleClaimMock":{"abi":[{"inputs":[{"internalType":"address","name":"rewardContract_","type":"address"},{"internalType":"address","name":"stakingContract_","type":"address"},{"internalType":"address","name":"payoutWallet_","type":"address"},{"internalType":"address","name":"treasuryWallet_","type":"address"},{"internalType":"uint96","name":"fee_","type":"uint96"},{"internalType":"contract IForwarderRegistry","name":"forwarderRegistry_","type":"address"}],"stateMutability":"nonpayable","type":"constructor"},{"inputs":[{"internalType":"address","name":"recipient","type":"address"},{"internalType":"uint256","name":"amount","type":"uint256"},{"internalType":"uint256","name":"nonce","type":"uint256"}],"name":"AlreadyClaimed","type":"error"},{"inputs":[],"name":"IllegalInterfaceId","type":"error"},{"inputs":[{"internalType":"uint256","name":"amount","type":"uint256"}],"name":"InvalidClaimAmount","type":"error"},{"inputs":[],"name":"InvalidFee","type":"error"},{"inputs":[],"name":"InvalidForwarderRegistry","type":"error"},{"inputs":[],"name":"InvalidPayoutWallet","type":"error"},{"inputs":[{"internalType":"address","name":"recipient","type":"address"},{"internalType":"uint256","name":"amount","type":"uint256"},{"internalType":"uint256","name":"nonce","type":"uint256"}],"name":"InvalidProof","type":"error"},{"inputs":[{"internalType":"address","name":"rewardContract","type":"address"}],"name":"InvalidRewardContract","type":"error"},{"inputs":[{"internalType":"address","name":"stakingContract","type":"address"}],"name":"InvalidStakingContract","type":"error"},{"inputs":[],"name":"InvalidTreasuryWallet","type":"error"},{"inputs":[{"internalType":"uint256","name":"nonce","type":"uint256"}],"name":"MerkleRootNotExists","type":"error"},{"inputs":[{"internalType":"address","name":"account","type":"address"}],"name":"NotContractOwner","type":"error"},{"inputs":[],"name":"NotPaused","type":"error"},{"inputs":[],"name":"Paused","type":"error"},{"anonymous":false,"inputs":[{"indexed":true,"internalType":"uint256","name":"nonce","type":"uint256"},{"indexed":true,"internalType":"bytes32","name":"root","type":"bytes32"}],"name":"MerkleRootSet","type":"event"},{"anonymous":false,"inputs":[{"indexed":true,"internalType":"address","name":"previousOwner","type":"address"},{"indexed":true,"internalType":"address","name":"newOwner","type":"address"}],"name":"OwnershipTransferred","type":"event"},{"anonymous":false,"inputs":[],"name":"Pause","type":"event"},{"anonymous":false,"inputs":[{"indexed":true,"internalType":"uint256","name":"nonce","type":"uint256"},{"indexed":true,"internalType":"bytes32","name":"root","type":"bytes32"},{"indexed":true,"internalType":"address","name":"recipient","type":"address"},{"indexed":false,"internalType":"address","name":"payoutWallet","type":"address"},{"indexed":false,"internalType":"uint256","name":"netClaimedAmount","type":"uint256"},{"indexed":false,"internalType":"uint256","name":"feeAmount","type":"uint256"}],"name":"PayoutClaimed","type":"event"},{"anonymous":false,"inputs":[{"indexed":true,"internalType":"address","name":"newPayoutWallet","type":"address"}],"name":"PayoutWalletSet","type":"event"},{"anonymous":false,"inputs":[{"indexed":true,"internalType":"address","name":"newTreasuryWallet","type":"address"}],"name":"TreasuryWalletSet","type":"event"},{"anonymous":false,"inputs":[],"name":"Unpause","type":"event"},{"inputs":[],"name":"FEE_PRECISION","outputs":[{"internalType":"uint256","name":"","type":"uint256"}],"stateMutability":"view","type":"function"},{"inputs":[],"name":"REWARD_CONTRACT","outputs":[{"internalType":"address","name":"","type":"address"}],"stateMutability":"view","type":"function"},{"inputs":[],"name":"STAKING_CONTRACT","outputs":[{"internalType":"address","name":"","type":"address"}],"stateMutability":"view","type":"function"},{"inputs":[],"name":"__msgData","outputs":[{"internalType":"bytes","name":"","type":"bytes"}],"stateMutability":"view","type":"function"},{"inputs":[],"name":"__msgSender","outputs":[{"internalType":"address","name":"","type":"address"}],"stateMutability":"view","type":"function"},{"inputs":[{"internalType":"address","name":"recipient","type":"address"},{"internalType":"uint256","name":"amount","type":"uint256"},{"internalType":"uint96","name":"nonce_","type":"uint96"},{"internalType":"bytes32[]","name":"proof","type":"bytes32[]"}],"name":"claimPayout","outputs":[],"stateMutability":"nonpayable","type":"function"},{"inputs":[{"internalType":"address","name":"recipient","type":"address"},{"internalType":"uint256","name":"amount","type":"uint256"},{"internalType":"uint96","name":"nonce_","type":"uint96"},{"internalType":"bytes32[]","name":"proof","type":"bytes32[]"}],"name":"claimPayoutAndStake","outputs":[],"stateMutability":"nonpayable","type":"function"},{"inputs":[{"internalType":"bytes32","name":"leaf","type":"bytes32"}],"name":"claimed","outputs":[{"internalType":"bool","name":"claimed","type":"bool"}],"stateMutability":"view","type":"function"},{"inputs":[],"name":"fee","outputs":[{"internalType":"uint96","name":"","type":"uint96"}],"stateMutability":"view","type":"function"},{"inputs":[],"name":"forwarderRegistry","outputs":[{"internalType":"contract IForwarderRegistry","name":"","type":"address"}],"stateMutability":"view","type":"function"},{"inputs":[{"internalType":"address","name":"forwarder","type":"address"}],"name":"isTrustedForwarder","outputs":[{"internalType":"bool","name":"","type":"bool"}],"stateMutability":"view","type":"function"},{"inputs":[],"name":"nonce","outputs":[{"internalType":"uint96","name":"","type":"uint96"}],"stateMutability":"view","type":"function"},{"inputs":[],"name":"owner","outputs":[{"internalType":"address","name":"","type":"address"}],"stateMutability":"view","type":"function"},{"inputs":[],"name":"pause","outputs":[],"stateMutability":"nonpayable","type":"function"},{"inputs":[],"name":"paused","outputs":[{"internalType":"bool","name":"","type":"bool"}],"stateMutability":"view","type":"function"},{"inputs":[],"name":"payoutWallet","outputs":[{"internalType":"address","name":"","type":"address"}],"stateMutability":"view","type":"function"},{"inputs":[{"internalType":"uint96","name":"nonce","type":"uint96"}],"name":"rootMap","outputs":[{"internalType":"bytes32","name":"root","type":"bytes32"}],"stateMutability":"view","type":"function"},{"inputs":[{"internalType":"bytes32","name":"merkleRoot","type":"bytes32"}],"name":"setMerkleRoot","outputs":[],"stateMutability":"nonpayable","type":"function"},{"inputs":[{"internalType":"address","name":"newPayoutWallet","type":"address"}],"name":"setPayoutWallet","outputs":[],"stateMutability":"nonpayable","type":"function"},{"inputs":[{"internalType":"address","name":"newTreasuryWallet","type":"address"}],"name":"setTreasuryWallet","outputs":[],"stateMutability":"nonpayable","type":"function"},{"inputs":[{"internalType":"bytes4","name":"interfaceId","type":"bytes4"}],"name":"supportsInterface","outputs":[{"internalType":"bool","name":"","type":"bool"}],"stateMutability":"view","type":"function"},{"inputs":[{"internalType":"address","name":"newOwner","type":"address"}],"name":"transferOwnership","outputs":[],"stateMutability":"nonpayable","type":"function"},{"inputs":[],"name":"treasuryWallet","outputs":[{"internalType":"address","name":"","type":"address"}],"stateMutability":"view","type":"function"},{"inputs":[],"name":"unpause","outputs":[],"stateMutability":"nonpayable","type":"function"}],"devdoc":{"errors":{"AlreadyClaimed(address,uint256,uint256)":[{"params":{"amount":"The amount of reward token is claimed.","nonce":"The nonce of the root.","recipient":"The recipient of the claim."}}],"InvalidClaimAmount(uint256)":[{"params":{"amount":"The amount of the claim."}}],"InvalidProof(address,uint256,uint256)":[{"params":{"amount":"The amount of reward token is claimed.","nonce":"The nonce of the root.","recipient":"The recipient of the token reward."}}],"InvalidRewardContract(address)":[{"params":{"rewardContract":"The address of the invalid reward contract."}}],"InvalidStakingContract(address)":[{"params":{"stakingContract":"The address of the invalid staking contract."}}],"MerkleRootNotExists(uint256)":[{"params":{"nonce":"The nonce of the root."}}],"NotContractOwner(address)":[{"params":{"account":"The account that was checked."}}]},"events":{"MerkleRootSet(uint256,bytes32)":{"params":{"nonce":"The nonce used for setting the root.","root":"The new merkle root."}},"OwnershipTransferred(address,address)":{"params":{"newOwner":"the new contract owner.","previousOwner":"the previous contract owner."}},"PayoutClaimed(uint256,bytes32,address,address,uint256,uint256)":{"params":{"feeAmount":"The fee amount taken from the claimed reward.","netClaimedAmount":"The amount of reward token is claimed minus fee amount.","nonce":"The nonce for the root.","payoutWallet":"The wallet sending out the reward token.","recipient":"The recipient of the reward token.","root":"The merkle root on which the claim was made."}},"PayoutWalletSet(address)":{"params":{"newPayoutWallet":"The new payout wallet."}},"TreasuryWalletSet(address)":{"params":{"newTreasuryWallet":"The new treasury wallet."}}},"kind":"dev","methods":{"__msgData()":{"returns":{"_0":"The current msg.data value."}},"__msgSender()":{"returns":{"_0":"The current msg.sender value."}},"claimPayout(address,uint256,uint96,bytes32[])":{"details":"Emits a {PayoutClaimed} event.","params":{"amount":"The amount of reward token to be claimed.","nonce_":"The nonce of the root.PayoutClaimed","proof":"The Merkle proof of the user based on the merkle root","recipient":"The recipient for this claim."}},"claimPayoutAndStake(address,uint256,uint96,bytes32[])":{"details":"Emits a {PayoutClaimed} event.","params":{"amount":"The amount of reward token to be claimed.","nonce_":"The nonce of the root.PayoutClaimed","proof":"The Merkle proof of the user based on the merkle root","recipient":"The recipient for this claim."}},"isTrustedForwarder(address)":{"params":{"forwarder":"The forwarder to check."},"returns":{"_0":"True if `forwarder` is trusted, false if not."}},"owner()":{"returns":{"_0":"The address of the contract owner."}},"pause()":{"details":"Reverts with {NotContractOwner} if the sender is not the contract owner.Reverts with {Paused} if the contract is paused.Emits a {Paused} event."},"paused()":{"returns":{"_0":"The paused state of the contract."}},"setMerkleRoot(bytes32)":{"details":"Reverts with {NotContractOwner} if the sender is not the contract owner.Emits a {MerkleRootSet} event.","params":{"merkleRoot":"The merkle root to be set."}},"setPayoutWallet(address)":{"details":"Reverts with {NotContractOwner} if the sender is not the contract owner.Emits a {PayoutWalletSet} event.","params":{"newPayoutWallet":"The payout wallet to be set."}},"setTreasuryWallet(address)":{"details":"Reverts with {NotContractOwner} if the sender is not the contract owner.Emits a {TreasuryWalletSet} event.","params":{"newTreasuryWallet":"The treasury wallet to be set."}},"supportsInterface(bytes4)":{"details":"Note: This function call must use less than 30 000 gas.","params":{"interfaceId":"the interface identifier to test."},"returns":{"_0":"True if the interface is supported, false if `interfaceId` is `0xffffffff` or if the interface is not supported."}},"transferOwnership(address)":{"details":"Reverts if the sender is not the contract owner.Emits an {OwnershipTransferred} event if `newOwner` is different from the current contract owner.","params":{"newOwner":"The address of the new contract owner. Using the zero address means renouncing ownership."}},"unpause()":{"details":"Reverts with {NotContractOwner} if the sender is not the contract owner.Reverts with {NotPaused} if the contract is not paused.Emits an {Unpaused} event."}},"version":1},"evm":{"bytecode":{"linkReferences":{},"object":"60e060405234801561001057600080fd5b50604051611d4d380380611d4d83398101604081905261002f91610306565b85858585858580803361004a816100446101ba565b906101ee565b506001600160a01b039081166080528716905061008a57604051635287368360e11b81526001600160a01b03871660048201526024015b60405180910390fd5b6001600160a01b0385166100bc576040516340ecbd2f60e11b81526001600160a01b0386166004820152602401610081565b6001600160a01b0384166100e35760405163620e5f7160e11b815260040160405180910390fd5b6001600160a01b03831661010a576040516314ad71c560e31b815260040160405180910390fd5b612710826001600160601b03161115610136576040516358d620b360e01b815260040160405180910390fd5b6001600160a01b03811661015d57604051633545ba1f60e21b815260040160405180910390fd5b506001600160a01b0394851660a05292841660c052600280549285166c010000000000000000000000009081026001600160601b0394851617909155929091169216026001600160601b03191617600355506103ba945050505050565b6000806101e860017fc9ed16f33ab3a66c84bfd83099ccb2a8845871e2e1c1928f63797152f0fd54cd610399565b92915050565b6001600160a01b038116156102445781546001600160a01b0319166001600160a01b03821690811783556040516000907f8be0079c531659141344cd1fd0a4f28419497f9722a3daafe3b4186f6b6457e0908290a35b6102606307f5828d60e41b6001610259610264565b9190610292565b5050565b6000806101e860017fca9d3e17f264b0f3984e2634e94adb37fa3e6a8103f06aeae6fa59e21c769f5e610399565b600160e01b6001600160e01b03198316016102c0576040516372c683bb60e01b815260040160405180910390fd5b6001600160e01b03199190911660009081526020929092526040909120805460ff1916911515919091179055565b6001600160a01b038116811461030357600080fd5b50565b60008060008060008060c0878903121561031f57600080fd5b865161032a816102ee565b602088015190965061033b816102ee565b604088015190955061034c816102ee565b606088015190945061035d816102ee565b60808801519093506001600160601b038116811461037a57600080fd5b60a088015190925061038b816102ee565b809150509295509295509295565b818103818111156101e857634e487b7160e01b600052601160045260246000fd5b60805160a05160c0516119256104286000396000818161040a015261066f015260008181610227015281816106440152818161090f01526109f40152600081816101c70152818161029301528181611181015281816111bf015281816112fd015261138b01526119256000f3fe608060405234801561001057600080fd5b50600436106101985760003560e01c80638488bb4e116100e3578063d074eb971161008c578063ddca3f4311610066578063ddca3f431461042c578063e63a391f14610444578063f2fde38b1461044d57600080fd5b8063d074eb97146103ea578063d1a91ff2146103fd578063da19ddfb1461040557600080fd5b8063ac131658116100bd578063ac13165814610364578063affed0e014610392578063cc3c0f06146103c757600080fd5b80638488bb4e146103195780638da5cb5b14610349578063a8602fea1461035157600080fd5b8063572b6c05116101455780637cb647591161011f5780637cb64759146102eb578063808756d6146102fe5780638456cb591461031157600080fd5b8063572b6c05146102835780635c975abb146102d05780636b8f9c43146102d857600080fd5b80633a5af339116101765780633a5af339146102225780633f4ba83a146102495780634626402b1461025357600080fd5b806301ffc9a71461019d5780632b4c9f16146101c557806331e66e1e1461020c575b600080fd5b6101b06101ab36600461153b565b610460565b60405190151581526020015b60405180910390f35b7f00000000000000000000000000000000000000000000000000000000000000005b60405173ffffffffffffffffffffffffffffffffffffffff90911681526020016101bc565b61021461047a565b6040516101bc92919061157d565b6101e77f000000000000000000000000000000000000000000000000000000000000000081565b61025161048d565b005b6003546101e7906c01000000000000000000000000900473ffffffffffffffffffffffffffffffffffffffff1681565b6101b06102913660046115f3565b7f000000000000000000000000000000000000000000000000000000000000000073ffffffffffffffffffffffffffffffffffffffff90811691161490565b6101b06104b8565b6102516102e63660046115f3565b6104d1565b6102516102f936600461160e565b610549565b61025161030c366004611643565b6105f8565b61025161077a565b6002546101e7906c01000000000000000000000000900473ffffffffffffffffffffffffffffffffffffffff1681565b6101e7610795565b61025161035f3660046115f3565b6107bc565b6103846103723660046116e3565b60006020819052908152604090205481565b6040519081526020016101bc565b6002546103aa906bffffffffffffffffffffffff1681565b6040516bffffffffffffffffffffffff90911681526020016101bc565b6101b06103d536600461160e565b60016020526000908152604090205460ff1681565b6102516103f8366004611643565b610834565b6101e7610add565b6101e77f000000000000000000000000000000000000000000000000000000000000000081565b6003546103aa906bffffffffffffffffffffffff1681565b61038461271081565b61025161045b3660046115f3565b610ae7565b60006104748261046e610b05565b90610b33565b92915050565b366000610485610c0d565b915091509091565b6104a6610498610c18565b6104a0610c22565b90610c50565b6104b66104b1610cc4565b610cf2565b565b60006104cc6104c5610cc4565b5460ff1690565b905090565b6104dc610498610c18565b600280546bffffffffffffffffffffffff166c0100000000000000000000000073ffffffffffffffffffffffffffffffffffffffff8416908102919091179091556040517fdd880d24a789958a6398c99c2e54ce31bc10a638cbc42f7dd34285479ae0f85590600090a250565b610554610498610c18565b600280546bffffffffffffffffffffffff90811660008181526020819052604081208590558354919392909161058a911661172d565b91906101000a8154816bffffffffffffffffffffffff02191690836bffffffffffffffffffffffff16021790555081816bffffffffffffffffffffffff167fb04b7d6145a7588fdcf339a22877d5965f861c171204fc37688058c5f6c06d3b60405160405180910390a35050565b60006106078686868686610d4d565b6002546040805173ffffffffffffffffffffffffffffffffffffffff8a811660208301529394506c010000000000000000000000009092048316927f0000000000000000000000000000000000000000000000000000000000000000169163b88d4fde9184917f0000000000000000000000000000000000000000000000000000000000000000918b91016040516020818303038152906040526040518563ffffffff1660e01b81526004016106c09493929190611762565b6020604051808303816000875af11580156106df573d6000803e3d6000fd5b505050506040513d601f19601f82011682018060405250810190610703919061180f565b506040805173ffffffffffffffffffffffffffffffffffffffff89811682526020820189905260008284015291519183169184916bffffffffffffffffffffffff8916917f4198e253c4ae311bc3d0c7aca40cb1a9827879ca09dc5f3a430127c736748f189181900360600190a450505050505050565b610785610498610c18565b6104b6610790610cc4565b610fd7565b60006104cc6107a2610c22565b5473ffffffffffffffffffffffffffffffffffffffff1690565b6107c7610498610c18565b600380546bffffffffffffffffffffffff166c0100000000000000000000000073ffffffffffffffffffffffffffffffffffffffff8416908102919091179091556040517f5695f8b02f5f53d02b408db3ed952c16f32f9701ad2691c44733f2a2d09225a990600090a250565b60006108438686868686610d4d565b6002546003549192506c01000000000000000000000000900473ffffffffffffffffffffffffffffffffffffffff169060009061271090610892906bffffffffffffffffffffffff1689611831565b61089c9190611848565b905060006108aa8289611883565b6040517fb88d4fde00000000000000000000000000000000000000000000000000000000815273ffffffffffffffffffffffffffffffffffffffff85811660048301528b811660248301526044820183905260806064830152600060848301529192507f00000000000000000000000000000000000000000000000000000000000000009091169063b88d4fde9060a4016020604051808303816000875af115801561095a573d6000803e3d6000fd5b505050506040513d601f19601f8201168201806040525081019061097e919061180f565b506003546040517fb88d4fde00000000000000000000000000000000000000000000000000000000815273ffffffffffffffffffffffffffffffffffffffff85811660048301526c01000000000000000000000000909204821660248201526044810184905260806064820152600060848201527f00000000000000000000000000000000000000000000000000000000000000009091169063b88d4fde9060a4016020604051808303816000875af1158015610a3f573d6000803e3d6000fd5b505050506040513d601f19601f82011682018060405250810190610a63919061180f565b506040805173ffffffffffffffffffffffffffffffffffffffff8b81168252602082018490529181018490529084169085906bffffffffffffffffffffffff8a16907f4198e253c4ae311bc3d0c7aca40cb1a9827879ca09dc5f3a430127c736748f189060600160405180910390a4505050505050505050565b60006104cc610c18565b610b02610af2610c18565b82610afb610c22565b9190611035565b50565b60008061047460017fca9d3e17f264b0f3984e2634e94adb37fa3e6a8103f06aeae6fa59e21c769f5e611883565b60007c01000000000000000000000000000000000000000000000000000000007fffffffff00000000000000000000000000000000000000000000000000000000831601610b8357506000610474565b7ffe003659000000000000000000000000000000000000000000000000000000007fffffffff00000000000000000000000000000000000000000000000000000000831601610bd457506001610474565b507fffffffff00000000000000000000000000000000000000000000000000000000166000908152602091909152604090205460ff1690565b36600061048561114a565b60006104cc6112ba565b60008061047460017fc9ed16f33ab3a66c84bfd83099ccb2a8845871e2e1c1928f63797152f0fd54cd611883565b815473ffffffffffffffffffffffffffffffffffffffff828116911614610cc0576040517f2ef4875e00000000000000000000000000000000000000000000000000000000815273ffffffffffffffffffffffffffffffffffffffff821660048201526024015b60405180910390fd5b5050565b60008061047460017f0186a05f63b1553398ad5ea3233c0ce68b8c9eecc47717f123c5c2b42fbd6d9f611883565b610cfb81611407565b80547fffffffffffffffffffffffffffffffffffffffffffffffffffffffffffffff001681556040517f7805862f689e2f13df9f062ff482ad3ad112aca9e0847911ed832e158c525b3390600090a150565b600084600003610d8c576040517f27ab1ee200000000000000000000000000000000000000000000000000000000815260048101869052602401610cb7565b610d9c610d97610cc4565b611442565b506bffffffffffffffffffffffff831660009081526020819052604081205490819003610e05576040517fab4a79390000000000000000000000000000000000000000000000000000000081526bffffffffffffffffffffffff85166004820152602401610cb7565b604051606087811b7fffffffffffffffffffffffffffffffffffffffff0000000000000000000000001660208301526034820187905260a086901b7fffffffffffffffffffffffff000000000000000000000000000000000000000016605483015260009101604080517fffffffffffffffffffffffffffffffffffffffffffffffffffffffffffffffe081840301815291905280516020909101209050610eaf8484848461147e565b610f18576040517f3c6ee01b00000000000000000000000000000000000000000000000000000000815273ffffffffffffffffffffffffffffffffffffffff88166004820152602481018790526bffffffffffffffffffffffff86166044820152606401610cb7565b60008181526001602052604090205460ff1615610f94576040517f6508823200000000000000000000000000000000000000000000000000000000815273ffffffffffffffffffffffffffffffffffffffff88166004820152602481018790526bffffffffffffffffffffffff86166044820152606401610cb7565b600090815260016020819052604090912080547fffffffffffffffffffffffffffffffffffffffffffffffffffffffffffffff0016909117905595945050505050565b610fe081611442565b80547fffffffffffffffffffffffffffffffffffffffffffffffffffffffffffffff001660011781556040517f6985a02210a168e66602d3235cb6db0e70f92b3ba4d376a33c0f3d9434bff62590600090a150565b825473ffffffffffffffffffffffffffffffffffffffff90811690831681146110a2576040517f2ef4875e00000000000000000000000000000000000000000000000000000000815273ffffffffffffffffffffffffffffffffffffffff84166004820152602401610cb7565b8173ffffffffffffffffffffffffffffffffffffffff168173ffffffffffffffffffffffffffffffffffffffff16146111445783547fffffffffffffffffffffffff00000000000000000000000000000000000000001673ffffffffffffffffffffffffffffffffffffffff8381169182178655604051908316907f8be0079c531659141344cd1fd0a4f28419497f9722a3daafe3b4186f6b6457e090600090a35b50505050565b3660003332148061115b5750601836105b156111695750600091369150565b3373ffffffffffffffffffffffffffffffffffffffff7f00000000000000000000000000000000000000000000000000000000000000001614806112a4575073ffffffffffffffffffffffffffffffffffffffff7f00000000000000000000000000000000000000000000000000000000000000001663019a2028367fffffffffffffffffffffffffffffffffffffffffffffffffffffffffffffffec013560601c6040517fffffffff0000000000000000000000000000000000000000000000000000000060e084901b16815273ffffffffffffffffffffffffffffffffffffffff9091166004820152336024820152306044820152606401602060405180830381865afa158015611280573d6000803e3d6000fd5b505050506040513d601f19601f820116820180604052508101906112a4919061180f565b156112b157610485611496565b50600091369150565b6000333214806112ca5750601836105b156112d457503390565b7fffffffffffffffffffffffffffffffffffffffffffffffffffffffffffffffec36013560601c7f000000000000000000000000000000000000000000000000000000000000000073ffffffffffffffffffffffffffffffffffffffff163314806113f657506040517f019a202800000000000000000000000000000000000000000000000000000000815273ffffffffffffffffffffffffffffffffffffffff82811660048301523360248301523060448301527f0000000000000000000000000000000000000000000000000000000000000000169063019a202890606401602060405180830381865afa1580156113d2573d6000803e3d6000fd5b505050506040513d601f19601f820116820180604052508101906113f6919061180f565b1561140057919050565b3391505090565b805460ff16610b02576040517f6cd6020100000000000000000000000000000000000000000000000000000000815260040160405180910390fd5b805460ff1615610b02576040517f9e87fac800000000000000000000000000000000000000000000000000000000815260040160405180910390fd5b60008261148c8686856114c7565b1495945050505050565b3660006104857fffffffffffffffffffffffffffffffffffffffffffffffffffffffffffffffec8301828481611896565b600081815b84811015611500576114f6828787848181106114ea576114ea6118c0565b90506020020135611509565b91506001016114cc565b50949350505050565b6000818310611525576000828152602084905260409020611534565b60008381526020839052604090205b9392505050565b60006020828403121561154d57600080fd5b81357fffffffff000000000000000000000000000000000000000000000000000000008116811461153457600080fd5b60208152816020820152818360408301376000818301604090810191909152601f9092017fffffffffffffffffffffffffffffffffffffffffffffffffffffffffffffffe0160101919050565b803573ffffffffffffffffffffffffffffffffffffffff811681146115ee57600080fd5b919050565b60006020828403121561160557600080fd5b611534826115ca565b60006020828403121561162057600080fd5b5035919050565b80356bffffffffffffffffffffffff811681146115ee57600080fd5b60008060008060006080868803121561165b57600080fd5b611664866115ca565b94506020860135935061167960408701611627565b9250606086013567ffffffffffffffff81111561169557600080fd5b8601601f810188136116a657600080fd5b803567ffffffffffffffff8111156116bd57600080fd5b8860208260051b84010111156116d257600080fd5b959894975092955050506020019190565b6000602082840312156116f557600080fd5b61153482611627565b7f4e487b7100000000000000000000000000000000000000000000000000000000600052601160045260246000fd5b60006bffffffffffffffffffffffff82166bffffffffffffffffffffffff8103611759576117596116fe565b60010192915050565b73ffffffffffffffffffffffffffffffffffffffff8516815273ffffffffffffffffffffffffffffffffffffffff84166020820152826040820152608060608201526000825180608084015260005b818110156117ce57602081860181015160a08684010152016117b1565b50600060a0828501015260a07fffffffffffffffffffffffffffffffffffffffffffffffffffffffffffffffe0601f83011684010191505095945050505050565b60006020828403121561182157600080fd5b8151801515811461153457600080fd5b8082028115828204841417610474576104746116fe565b60008261187e577f4e487b7100000000000000000000000000000000000000000000000000000000600052601260045260246000fd5b500490565b81810381811115610474576104746116fe565b600080858511156118a657600080fd5b838611156118b357600080fd5b5050820193919092039150565b7f4e487b7100000000000000000000000000000000000000000000000000000000600052603260045260246000fdfea26469706673582212200035862a205c9194ed1cbc61715110f7bb522384dd89c297028c764f210000fe64736f6c634300081c0033","opcodes":"PUSH1 0xE0 PUSH1 0x40 MSTORE CALLVALUE DUP1 ISZERO PUSH2 0x10 JUMPI PUSH1 0x0 DUP1 REVERT JUMPDEST POP PUSH1 0x40 MLOAD PUSH2 0x1D4D CODESIZE SUB DUP1 PUSH2 0x1D4D DUP4 CODECOPY DUP2 ADD PUSH1 0x40 DUP2 SWAP1 MSTORE PUSH2 0x2F SWAP2 PUSH2 0x306 JUMP JUMPDEST DUP6 DUP6 DUP6 DUP6 DUP6 DUP6 DUP1 DUP1 CALLER PUSH2 0x4A DUP2 PUSH2 0x44 PUSH2 0x1BA JUMP JUMPDEST SWAP1 PUSH2 0x1EE JUMP JUMPDEST POP PUSH1 0x1 PUSH1 0x1 PUSH1 0xA0 SHL SUB SWAP1 DUP2 AND PUSH1 0x80 MSTORE DUP8 AND SWAP1 POP PUSH2 0x8A JUMPI PUSH1 0x40 MLOAD PUSH4 0x52873683 PUSH1 0xE1 SHL DUP2 MSTORE PUSH1 0x1 PUSH1 0x1 PUSH1 0xA0 SHL SUB DUP8 AND PUSH1 0x4 DUP3 ADD MSTORE PUSH1 0x24 ADD JUMPDEST PUSH1 0x40 MLOAD DUP1 SWAP2 SUB SWAP1 REVERT JUMPDEST PUSH1 0x1 PUSH1 0x1 PUSH1 0xA0 SHL SUB DUP6 AND PUSH2 0xBC JUMPI PUSH1 0x40 MLOAD PUSH4 0x40ECBD2F PUSH1 0xE1 SHL DUP2 MSTORE PUSH1 0x1 PUSH1 0x1 PUSH1 0xA0 SHL SUB DUP7 AND PUSH1 0x4 DUP3 ADD MSTORE PUSH1 0x24 ADD PUSH2 0x81 JUMP JUMPDEST PUSH1 0x1 PUSH1 0x1 PUSH1 0xA0 SHL SUB DUP5 AND PUSH2 0xE3 JUMPI PUSH1 0x40 MLOAD PUSH4 0x620E5F71 PUSH1 0xE1 SHL DUP2 MSTORE PUSH1 0x4 ADD PUSH1 0x40 MLOAD DUP1 SWAP2 SUB SWAP1 REVERT JUMPDEST PUSH1 0x1 PUSH1 0x1 PUSH1 0xA0 SHL SUB DUP4 AND PUSH2 0x10A JUMPI PUSH1 0x40 MLOAD PUSH4 0x14AD71C5 PUSH1 0xE3 SHL DUP2 MSTORE PUSH1 0x4 ADD PUSH1 0x40 MLOAD DUP1 SWAP2 SUB SWAP1 REVERT JUMPDEST PUSH2 0x2710 DUP3 PUSH1 0x1 PUSH1 0x1 PUSH1 0x60 SHL SUB AND GT ISZERO PUSH2 0x136 JUMPI PUSH1 0x40 MLOAD PUSH4 0x58D620B3 PUSH1 0xE0 SHL DUP2 MSTORE PUSH1 0x4 ADD PUSH1 0x40 MLOAD DUP1 SWAP2 SUB SWAP1 REVERT JUMPDEST PUSH1 0x1 PUSH1 0x1 PUSH1 0xA0 SHL SUB DUP2 AND PUSH2 0x15D JUMPI PUSH1 0x40 MLOAD PUSH4 0x3545BA1F PUSH1 0xE2 SHL DUP2 MSTORE PUSH1 0x4 ADD PUSH1 0x40 MLOAD DUP1 SWAP2 SUB SWAP1 REVERT JUMPDEST POP PUSH1 0x1 PUSH1 0x1 PUSH1 0xA0 SHL SUB SWAP5 DUP6 AND PUSH1 0xA0 MSTORE SWAP3 DUP5 AND PUSH1 0xC0 MSTORE PUSH1 0x2 DUP1 SLOAD SWAP3 DUP6 AND PUSH13 0x1000000000000000000000000 SWAP1 DUP2 MUL PUSH1 0x1 PUSH1 0x1 PUSH1 0x60 SHL SUB SWAP5 DUP6 AND OR SWAP1 SWAP2 SSTORE SWAP3 SWAP1 SWAP2 AND SWAP3 AND MUL PUSH1 0x1 PUSH1 0x1 PUSH1 0x60 SHL SUB NOT AND OR PUSH1 0x3 SSTORE POP PUSH2 0x3BA SWAP5 POP POP POP POP POP JUMP JUMPDEST PUSH1 0x0 DUP1 PUSH2 0x1E8 PUSH1 0x1 PUSH32 0xC9ED16F33AB3A66C84BFD83099CCB2A8845871E2E1C1928F63797152F0FD54CD PUSH2 0x399 JUMP JUMPDEST SWAP3 SWAP2 POP POP JUMP JUMPDEST PUSH1 0x1 PUSH1 0x1 PUSH1 0xA0 SHL SUB DUP2 AND ISZERO PUSH2 0x244 JUMPI DUP2 SLOAD PUSH1 0x1 PUSH1 0x1 PUSH1 0xA0 SHL SUB NOT AND PUSH1 0x1 PUSH1 0x1 PUSH1 0xA0 SHL SUB DUP3 AND SWAP1 DUP2 OR DUP4 SSTORE PUSH1 0x40 MLOAD PUSH1 0x0 SWAP1 PUSH32 0x8BE0079C531659141344CD1FD0A4F28419497F9722A3DAAFE3B4186F6B6457E0 SWAP1 DUP3 SWAP1 LOG3 JUMPDEST PUSH2 0x260 PUSH4 0x7F5828D PUSH1 0xE4 SHL PUSH1 0x1 PUSH2 0x259 PUSH2 0x264 JUMP JUMPDEST SWAP2 SWAP1 PUSH2 0x292 JUMP JUMPDEST POP POP JUMP JUMPDEST PUSH1 0x0 DUP1 PUSH2 0x1E8 PUSH1 0x1 PUSH32 0xCA9D3E17F264B0F3984E2634E94ADB37FA3E6A8103F06AEAE6FA59E21C769F5E PUSH2 0x399 JUMP JUMPDEST PUSH1 0x1 PUSH1 0xE0 SHL PUSH1 0x1 PUSH1 0x1 PUSH1 0xE0 SHL SUB NOT DUP4 AND ADD PUSH2 0x2C0 JUMPI PUSH1 0x40 MLOAD PUSH4 0x72C683BB PUSH1 0xE0 SHL DUP2 MSTORE PUSH1 0x4 ADD PUSH1 0x40 MLOAD DUP1 SWAP2 SUB SWAP1 REVERT JUMPDEST PUSH1 0x1 PUSH1 0x1 PUSH1 0xE0 SHL SUB NOT SWAP2 SWAP1 SWAP2 AND PUSH1 0x0 SWAP1 DUP2 MSTORE PUSH1 0x20 SWAP3 SWAP1 SWAP3 MSTORE PUSH1 0x40 SWAP1 SWAP2 KECCAK256 DUP1 SLOAD PUSH1 0xFF NOT AND SWAP2 ISZERO ISZERO SWAP2 SWAP1 SWAP2 OR SWAP1 SSTORE JUMP JUMPDEST PUSH1 0x1 PUSH1 0x1 PUSH1 0xA0 SHL SUB DUP2 AND DUP2 EQ PUSH2 0x303 JUMPI PUSH1 0x0 DUP1 REVERT JUMPDEST POP JUMP JUMPDEST PUSH1 0x0 DUP1 PUSH1 0x0 DUP1 PUSH1 0x0 DUP1 PUSH1 0xC0 DUP8 DUP10 SUB SLT ISZERO PUSH2 0x31F JUMPI PUSH1 0x0 DUP1 REVERT JUMPDEST DUP7 MLOAD PUSH2 0x32A DUP2 PUSH2 0x2EE JUMP JUMPDEST PUSH1 0x20 DUP9 ADD MLOAD SWAP1 SWAP7 POP PUSH2 0x33B DUP2 PUSH2 0x2EE JUMP JUMPDEST PUSH1 0x40 DUP9 ADD MLOAD SWAP1 SWAP6 POP PUSH2 0x34C DUP2 PUSH2 0x2EE JUMP JUMPDEST PUSH1 0x60 DUP9 ADD MLOAD SWAP1 SWAP5 POP PUSH2 0x35D DUP2 PUSH2 0x2EE JUMP JUMPDEST PUSH1 0x80 DUP9 ADD MLOAD SWAP1 SWAP4 POP PUSH1 0x1 PUSH1 0x1 PUSH1 0x60 SHL SUB DUP2 AND DUP2 EQ PUSH2 0x37A JUMPI PUSH1 0x0 DUP1 REVERT JUMPDEST PUSH1 0xA0 DUP9 ADD MLOAD SWAP1 SWAP3 POP PUSH2 0x38B DUP2 PUSH2 0x2EE JUMP JUMPDEST DUP1 SWAP2 POP POP SWAP3 SWAP6 POP SWAP3 SWAP6 POP SWAP3 SWAP6 JUMP JUMPDEST DUP2 DUP2 SUB DUP2 DUP2 GT ISZERO PUSH2 0x1E8 JUMPI PUSH4 0x4E487B71 PUSH1 0xE0 SHL PUSH1 0x0 MSTORE PUSH1 0x11 PUSH1 0x4 MSTORE PUSH1 0x24 PUSH1 0x0 REVERT JUMPDEST PUSH1 0x80 MLOAD PUSH1 0xA0 MLOAD PUSH1 0xC0 MLOAD PUSH2 0x1925 PUSH2 0x428 PUSH1 0x0 CODECOPY PUSH1 0x0 DUP2 DUP2 PUSH2 0x40A ADD MSTORE PUSH2 0x66F ADD MSTORE PUSH1 0x0 DUP2 DUP2 PUSH2 0x227 ADD MSTORE DUP2 DUP2 PUSH2 0x644 ADD MSTORE DUP2 DUP2 PUSH2 0x90F ADD MSTORE PUSH2 0x9F4 ADD MSTORE PUSH1 0x0 DUP2 DUP2 PUSH2 0x1C7 ADD MSTORE DUP2 DUP2 PUSH2 0x293 ADD MSTORE DUP2 DUP2 PUSH2 0x1181 ADD MSTORE DUP2 DUP2 PUSH2 0x11BF ADD MSTORE DUP2 DUP2 PUSH2 0x12FD ADD MSTORE PUSH2 0x138B ADD MSTORE PUSH2 0x1925 PUSH1 0x0 RETURN INVALID PUSH1 0x80 PUSH1 0x40 MSTORE CALLVALUE DUP1 ISZERO PUSH2 0x10 JUMPI PUSH1 0x0 DUP1 REVERT JUMPDEST POP PUSH1 0x4 CALLDATASIZE LT PUSH2 0x198 JUMPI PUSH1 0x0 CALLDATALOAD PUSH1 0xE0 SHR DUP1 PUSH4 0x8488BB4E GT PUSH2 0xE3 JUMPI DUP1 PUSH4 0xD074EB97 GT PUSH2 0x8C JUMPI DUP1 PUSH4 0xDDCA3F43 GT PUSH2 0x66 JUMPI DUP1 PUSH4 0xDDCA3F43 EQ PUSH2 0x42C JUMPI DUP1 PUSH4 0xE63A391F EQ PUSH2 0x444 JUMPI DUP1 PUSH4 0xF2FDE38B EQ PUSH2 0x44D JUMPI PUSH1 0x0 DUP1 REVERT JUMPDEST DUP1 PUSH4 0xD074EB97 EQ PUSH2 0x3EA JUMPI DUP1 PUSH4 0xD1A91FF2 EQ PUSH2 0x3FD JUMPI DUP1 PUSH4 0xDA19DDFB EQ PUSH2 0x405 JUMPI PUSH1 0x0 DUP1 REVERT JUMPDEST DUP1 PUSH4 0xAC131658 GT PUSH2 0xBD JUMPI DUP1 PUSH4 0xAC131658 EQ PUSH2 0x364 JUMPI DUP1 PUSH4 0xAFFED0E0 EQ PUSH2 0x392 JUMPI DUP1 PUSH4 0xCC3C0F06 EQ PUSH2 0x3C7 JUMPI PUSH1 0x0 DUP1 REVERT JUMPDEST DUP1 PUSH4 0x8488BB4E EQ PUSH2 0x319 JUMPI DUP1 PUSH4 0x8DA5CB5B EQ PUSH2 0x349 JUMPI DUP1 PUSH4 0xA8602FEA EQ PUSH2 0x351 JUMPI PUSH1 0x0 DUP1 REVERT JUMPDEST DUP1 PUSH4 0x572B6C05 GT PUSH2 0x145 JUMPI DUP1 PUSH4 0x7CB64759 GT PUSH2 0x11F JUMPI DUP1 PUSH4 0x7CB64759 EQ PUSH2 0x2EB JUMPI DUP1 PUSH4 0x808756D6 EQ PUSH2 0x2FE JUMPI DUP1 PUSH4 0x8456CB59 EQ PUSH2 0x311 JUMPI PUSH1 0x0 DUP1 REVERT JUMPDEST DUP1 PUSH4 0x572B6C05 EQ PUSH2 0x283 JUMPI DUP1 PUSH4 0x5C975ABB EQ PUSH2 0x2D0 JUMPI DUP1 PUSH4 0x6B8F9C43 EQ PUSH2 0x2D8 JUMPI PUSH1 0x0 DUP1 REVERT JUMPDEST DUP1 PUSH4 0x3A5AF339 GT PUSH2 0x176 JUMPI DUP1 PUSH4 0x3A5AF339 EQ PUSH2 0x222 JUMPI DUP1 PUSH4 0x3F4BA83A EQ PUSH2 0x249 JUMPI DUP1 PUSH4 0x4626402B EQ PUSH2 0x253 JUMPI PUSH1 0x0 DUP1 REVERT JUMPDEST DUP1 PUSH4 0x1FFC9A7 EQ PUSH2 0x19D JUMPI DUP1 PUSH4 0x2B4C9F16 EQ PUSH2 0x1C5 JUMPI DUP1 PUSH4 0x31E66E1E EQ PUSH2 0x20C JUMPI JUMPDEST PUSH1 0x0 DUP1 REVERT JUMPDEST PUSH2 0x1B0 PUSH2 0x1AB CALLDATASIZE PUSH1 0x4 PUSH2 0x153B JUMP JUMPDEST PUSH2 0x460 JUMP JUMPDEST PUSH1 0x40 MLOAD SWAP1 ISZERO ISZERO DUP2 MSTORE PUSH1 0x20 ADD JUMPDEST PUSH1 0x40 MLOAD DUP1 SWAP2 SUB SWAP1 RETURN JUMPDEST PUSH32 0x0 JUMPDEST PUSH1 0x40 MLOAD PUSH20 0xFFFFFFFFFFFFFFFFFFFFFFFFFFFFFFFFFFFFFFFF SWAP1 SWAP2 AND DUP2 MSTORE PUSH1 0x20 ADD PUSH2 0x1BC JUMP JUMPDEST PUSH2 0x214 PUSH2 0x47A JUMP JUMPDEST PUSH1 0x40 MLOAD PUSH2 0x1BC SWAP3 SWAP2 SWAP1 PUSH2 0x157D JUMP JUMPDEST PUSH2 0x1E7 PUSH32 0x0 DUP2 JUMP JUMPDEST PUSH2 0x251 PUSH2 0x48D JUMP JUMPDEST STOP JUMPDEST PUSH1 0x3 SLOAD PUSH2 0x1E7 SWAP1 PUSH13 0x1000000000000000000000000 SWAP1 DIV PUSH20 0xFFFFFFFFFFFFFFFFFFFFFFFFFFFFFFFFFFFFFFFF AND DUP2 JUMP JUMPDEST PUSH2 0x1B0 PUSH2 0x291 CALLDATASIZE PUSH1 0x4 PUSH2 0x15F3 JUMP JUMPDEST PUSH32 0x0 PUSH20 0xFFFFFFFFFFFFFFFFFFFFFFFFFFFFFFFFFFFFFFFF SWAP1 DUP2 AND SWAP2 AND EQ SWAP1 JUMP JUMPDEST PUSH2 0x1B0 PUSH2 0x4B8 JUMP JUMPDEST PUSH2 0x251 PUSH2 0x2E6 CALLDATASIZE PUSH1 0x4 PUSH2 0x15F3 JUMP JUMPDEST PUSH2 0x4D1 JUMP JUMPDEST PUSH2 0x251 PUSH2 0x2F9 CALLDATASIZE PUSH1 0x4 PUSH2 0x160E JUMP JUMPDEST PUSH2 0x549 JUMP JUMPDEST PUSH2 0x251 PUSH2 0x30C CALLDATASIZE PUSH1 0x4 PUSH2 0x1643 JUMP JUMPDEST PUSH2 0x5F8 JUMP JUMPDEST PUSH2 0x251 PUSH2 0x77A JUMP JUMPDEST PUSH1 0x2 SLOAD PUSH2 0x1E7 SWAP1 PUSH13 0x1000000000000000000000000 SWAP1 DIV PUSH20 0xFFFFFFFFFFFFFFFFFFFFFFFFFFFFFFFFFFFFFFFF AND DUP2 JUMP JUMPDEST PUSH2 0x1E7 PUSH2 0x795 JUMP JUMPDEST PUSH2 0x251 PUSH2 0x35F CALLDATASIZE PUSH1 0x4 PUSH2 0x15F3 JUMP JUMPDEST PUSH2 0x7BC JUMP JUMPDEST PUSH2 0x384 PUSH2 0x372 CALLDATASIZE PUSH1 0x4 PUSH2 0x16E3 JUMP JUMPDEST PUSH1 0x0 PUSH1 0x20 DUP2 SWAP1 MSTORE SWAP1 DUP2 MSTORE PUSH1 0x40 SWAP1 KECCAK256 SLOAD DUP2 JUMP JUMPDEST PUSH1 0x40 MLOAD SWAP1 DUP2 MSTORE PUSH1 0x20 ADD PUSH2 0x1BC JUMP JUMPDEST PUSH1 0x2 SLOAD PUSH2 0x3AA SWAP1 PUSH12 0xFFFFFFFFFFFFFFFFFFFFFFFF AND DUP2 JUMP JUMPDEST PUSH1 0x40 MLOAD PUSH12 0xFFFFFFFFFFFFFFFFFFFFFFFF SWAP1 SWAP2 AND DUP2 MSTORE PUSH1 0x20 ADD PUSH2 0x1BC JUMP JUMPDEST PUSH2 0x1B0 PUSH2 0x3D5 CALLDATASIZE PUSH1 0x4 PUSH2 0x160E JUMP JUMPDEST PUSH1 0x1 PUSH1 0x20 MSTORE PUSH1 0x0 SWAP1 DUP2 MSTORE PUSH1 0x40 SWAP1 KECCAK256 SLOAD PUSH1 0xFF AND DUP2 JUMP JUMPDEST PUSH2 0x251 PUSH2 0x3F8 CALLDATASIZE PUSH1 0x4 PUSH2 0x1643 JUMP JUMPDEST PUSH2 0x834 JUMP JUMPDEST PUSH2 0x1E7 PUSH2 0xADD JUMP JUMPDEST PUSH2 0x1E7 PUSH32 0x0 DUP2 JUMP JUMPDEST PUSH1 0x3 SLOAD PUSH2 0x3AA SWAP1 PUSH12 0xFFFFFFFFFFFFFFFFFFFFFFFF AND DUP2 JUMP JUMPDEST PUSH2 0x384 PUSH2 0x2710 DUP2 JUMP JUMPDEST PUSH2 0x251 PUSH2 0x45B CALLDATASIZE PUSH1 0x4 PUSH2 0x15F3 JUMP JUMPDEST PUSH2 0xAE7 JUMP JUMPDEST PUSH1 0x0 PUSH2 0x474 DUP3 PUSH2 0x46E PUSH2 0xB05 JUMP JUMPDEST SWAP1 PUSH2 0xB33 JUMP JUMPDEST SWAP3 SWAP2 POP POP JUMP JUMPDEST CALLDATASIZE PUSH1 0x0 PUSH2 0x485 PUSH2 0xC0D JUMP JUMPDEST SWAP2 POP SWAP2 POP SWAP1 SWAP2 JUMP JUMPDEST PUSH2 0x4A6 PUSH2 0x498 PUSH2 0xC18 JUMP JUMPDEST PUSH2 0x4A0 PUSH2 0xC22 JUMP JUMPDEST SWAP1 PUSH2 0xC50 JUMP JUMPDEST PUSH2 0x4B6 PUSH2 0x4B1 PUSH2 0xCC4 JUMP JUMPDEST PUSH2 0xCF2 JUMP JUMPDEST JUMP JUMPDEST PUSH1 0x0 PUSH2 0x4CC PUSH2 0x4C5 PUSH2 0xCC4 JUMP JUMPDEST SLOAD PUSH1 0xFF AND SWAP1 JUMP JUMPDEST SWAP1 POP SWAP1 JUMP JUMPDEST PUSH2 0x4DC PUSH2 0x498 PUSH2 0xC18 JUMP JUMPDEST PUSH1 0x2 DUP1 SLOAD PUSH12 0xFFFFFFFFFFFFFFFFFFFFFFFF AND PUSH13 0x1000000000000000000000000 PUSH20 0xFFFFFFFFFFFFFFFFFFFFFFFFFFFFFFFFFFFFFFFF DUP5 AND SWAP1 DUP2 MUL SWAP2 SWAP1 SWAP2 OR SWAP1 SWAP2 SSTORE PUSH1 0x40 MLOAD PUSH32 0xDD880D24A789958A6398C99C2E54CE31BC10A638CBC42F7DD34285479AE0F855 SWAP1 PUSH1 0x0 SWAP1 LOG2 POP JUMP JUMPDEST PUSH2 0x554 PUSH2 0x498 PUSH2 0xC18 JUMP JUMPDEST PUSH1 0x2 DUP1 SLOAD PUSH12 0xFFFFFFFFFFFFFFFFFFFFFFFF SWAP1 DUP2 AND PUSH1 0x0 DUP2 DUP2 MSTORE PUSH1 0x20 DUP2 SWAP1 MSTORE PUSH1 0x40 DUP2 KECCAK256 DUP6 SWAP1 SSTORE DUP4 SLOAD SWAP2 SWAP4 SWAP3 SWAP1 SWAP2 PUSH2 0x58A SWAP2 AND PUSH2 0x172D JUMP JUMPDEST SWAP2 SWAP1 PUSH2 0x100 EXP DUP2 SLOAD DUP2 PUSH12 0xFFFFFFFFFFFFFFFFFFFFFFFF MUL NOT AND SWAP1 DUP4 PUSH12 0xFFFFFFFFFFFFFFFFFFFFFFFF AND MUL OR SWAP1 SSTORE POP DUP2 DUP2 PUSH12 0xFFFFFFFFFFFFFFFFFFFFFFFF AND PUSH32 0xB04B7D6145A7588FDCF339A22877D5965F861C171204FC37688058C5F6C06D3B PUSH1 0x40 MLOAD PUSH1 0x40 MLOAD DUP1 SWAP2 SUB SWAP1 LOG3 POP POP JUMP JUMPDEST PUSH1 0x0 PUSH2 0x607 DUP7 DUP7 DUP7 DUP7 DUP7 PUSH2 0xD4D JUMP JUMPDEST PUSH1 0x2 SLOAD PUSH1 0x40 DUP1 MLOAD PUSH20 0xFFFFFFFFFFFFFFFFFFFFFFFFFFFFFFFFFFFFFFFF DUP11 DUP2 AND PUSH1 0x20 DUP4 ADD MSTORE SWAP4 SWAP5 POP PUSH13 0x1000000000000000000000000 SWAP1 SWAP3 DIV DUP4 AND SWAP3 PUSH32 0x0 AND SWAP2 PUSH4 0xB88D4FDE SWAP2 DUP5 SWAP2 PUSH32 0x0 SWAP2 DUP12 SWAP2 ADD PUSH1 0x40 MLOAD PUSH1 0x20 DUP2 DUP4 SUB SUB DUP2 MSTORE SWAP1 PUSH1 0x40 MSTORE PUSH1 0x40 MLOAD DUP6 PUSH4 0xFFFFFFFF AND PUSH1 0xE0 SHL DUP2 MSTORE PUSH1 0x4 ADD PUSH2 0x6C0 SWAP5 SWAP4 SWAP3 SWAP2 SWAP1 PUSH2 0x1762 JUMP JUMPDEST PUSH1 0x20 PUSH1 0x40 MLOAD DUP1 DUP4 SUB DUP2 PUSH1 0x0 DUP8 GAS CALL ISZERO DUP1 ISZERO PUSH2 0x6DF JUMPI RETURNDATASIZE PUSH1 0x0 DUP1 RETURNDATACOPY RETURNDATASIZE PUSH1 0x0 REVERT JUMPDEST POP POP POP POP PUSH1 0x40 MLOAD RETURNDATASIZE PUSH1 0x1F NOT PUSH1 0x1F DUP3 ADD AND DUP3 ADD DUP1 PUSH1 0x40 MSTORE POP DUP2 ADD SWAP1 PUSH2 0x703 SWAP2 SWAP1 PUSH2 0x180F JUMP JUMPDEST POP PUSH1 0x40 DUP1 MLOAD PUSH20 0xFFFFFFFFFFFFFFFFFFFFFFFFFFFFFFFFFFFFFFFF DUP10 DUP2 AND DUP3 MSTORE PUSH1 0x20 DUP3 ADD DUP10 SWAP1 MSTORE PUSH1 0x0 DUP3 DUP5 ADD MSTORE SWAP2 MLOAD SWAP2 DUP4 AND SWAP2 DUP5 SWAP2 PUSH12 0xFFFFFFFFFFFFFFFFFFFFFFFF DUP10 AND SWAP2 PUSH32 0x4198E253C4AE311BC3D0C7ACA40CB1A9827879CA09DC5F3A430127C736748F18 SWAP2 DUP2 SWAP1 SUB PUSH1 0x60 ADD SWAP1 LOG4 POP POP POP POP POP POP POP JUMP JUMPDEST PUSH2 0x785 PUSH2 0x498 PUSH2 0xC18 JUMP JUMPDEST PUSH2 0x4B6 PUSH2 0x790 PUSH2 0xCC4 JUMP JUMPDEST PUSH2 0xFD7 JUMP JUMPDEST PUSH1 0x0 PUSH2 0x4CC PUSH2 0x7A2 PUSH2 0xC22 JUMP JUMPDEST SLOAD PUSH20 0xFFFFFFFFFFFFFFFFFFFFFFFFFFFFFFFFFFFFFFFF AND SWAP1 JUMP JUMPDEST PUSH2 0x7C7 PUSH2 0x498 PUSH2 0xC18 JUMP JUMPDEST PUSH1 0x3 DUP1 SLOAD PUSH12 0xFFFFFFFFFFFFFFFFFFFFFFFF AND PUSH13 0x1000000000000000000000000 PUSH20 0xFFFFFFFFFFFFFFFFFFFFFFFFFFFFFFFFFFFFFFFF DUP5 AND SWAP1 DUP2 MUL SWAP2 SWAP1 SWAP2 OR SWAP1 SWAP2 SSTORE PUSH1 0x40 MLOAD PUSH32 0x5695F8B02F5F53D02B408DB3ED952C16F32F9701AD2691C44733F2A2D09225A9 SWAP1 PUSH1 0x0 SWAP1 LOG2 POP JUMP JUMPDEST PUSH1 0x0 PUSH2 0x843 DUP7 DUP7 DUP7 DUP7 DUP7 PUSH2 0xD4D JUMP JUMPDEST PUSH1 0x2 SLOAD PUSH1 0x3 SLOAD SWAP2 SWAP3 POP PUSH13 0x1000000000000000000000000 SWAP1 DIV PUSH20 0xFFFFFFFFFFFFFFFFFFFFFFFFFFFFFFFFFFFFFFFF AND SWAP1 PUSH1 0x0 SWAP1 PUSH2 0x2710 SWAP1 PUSH2 0x892 SWAP1 PUSH12 0xFFFFFFFFFFFFFFFFFFFFFFFF AND DUP10 PUSH2 0x1831 JUMP JUMPDEST PUSH2 0x89C SWAP2 SWAP1 PUSH2 0x1848 JUMP JUMPDEST SWAP1 POP PUSH1 0x0 PUSH2 0x8AA DUP3 DUP10 PUSH2 0x1883 JUMP JUMPDEST PUSH1 0x40 MLOAD PUSH32 0xB88D4FDE00000000000000000000000000000000000000000000000000000000 DUP2 MSTORE PUSH20 0xFFFFFFFFFFFFFFFFFFFFFFFFFFFFFFFFFFFFFFFF DUP6 DUP2 AND PUSH1 0x4 DUP4 ADD MSTORE DUP12 DUP2 AND PUSH1 0x24 DUP4 ADD MSTORE PUSH1 0x44 DUP3 ADD DUP4 SWAP1 MSTORE PUSH1 0x80 PUSH1 0x64 DUP4 ADD MSTORE PUSH1 0x0 PUSH1 0x84 DUP4 ADD MSTORE SWAP2 SWAP3 POP PUSH32 0x0 SWAP1 SWAP2 AND SWAP1 PUSH4 0xB88D4FDE SWAP1 PUSH1 0xA4 ADD PUSH1 0x20 PUSH1 0x40 MLOAD DUP1 DUP4 SUB DUP2 PUSH1 0x0 DUP8 GAS CALL ISZERO DUP1 ISZERO PUSH2 0x95A JUMPI RETURNDATASIZE PUSH1 0x0 DUP1 RETURNDATACOPY RETURNDATASIZE PUSH1 0x0 REVERT JUMPDEST POP POP POP POP PUSH1 0x40 MLOAD RETURNDATASIZE PUSH1 0x1F NOT PUSH1 0x1F DUP3 ADD AND DUP3 ADD DUP1 PUSH1 0x40 MSTORE POP DUP2 ADD SWAP1 PUSH2 0x97E SWAP2 SWAP1 PUSH2 0x180F JUMP JUMPDEST POP PUSH1 0x3 SLOAD PUSH1 0x40 MLOAD PUSH32 0xB88D4FDE00000000000000000000000000000000000000000000000000000000 DUP2 MSTORE PUSH20 0xFFFFFFFFFFFFFFFFFFFFFFFFFFFFFFFFFFFFFFFF DUP6 DUP2 AND PUSH1 0x4 DUP4 ADD MSTORE PUSH13 0x1000000000000000000000000 SWAP1 SWAP3 DIV DUP3 AND PUSH1 0x24 DUP3 ADD MSTORE PUSH1 0x44 DUP2 ADD DUP5 SWAP1 MSTORE PUSH1 0x80 PUSH1 0x64 DUP3 ADD MSTORE PUSH1 0x0 PUSH1 0x84 DUP3 ADD MSTORE PUSH32 0x0 SWAP1 SWAP2 AND SWAP1 PUSH4 0xB88D4FDE SWAP1 PUSH1 0xA4 ADD PUSH1 0x20 PUSH1 0x40 MLOAD DUP1 DUP4 SUB DUP2 PUSH1 0x0 DUP8 GAS CALL ISZERO DUP1 ISZERO PUSH2 0xA3F JUMPI RETURNDATASIZE PUSH1 0x0 DUP1 RETURNDATACOPY RETURNDATASIZE PUSH1 0x0 REVERT JUMPDEST POP POP POP POP PUSH1 0x40 MLOAD RETURNDATASIZE PUSH1 0x1F NOT PUSH1 0x1F DUP3 ADD AND DUP3 ADD DUP1 PUSH1 0x40 MSTORE POP DUP2 ADD SWAP1 PUSH2 0xA63 SWAP2 SWAP1 PUSH2 0x180F JUMP JUMPDEST POP PUSH1 0x40 DUP1 MLOAD PUSH20 0xFFFFFFFFFFFFFFFFFFFFFFFFFFFFFFFFFFFFFFFF DUP12 DUP2 AND DUP3 MSTORE PUSH1 0x20 DUP3 ADD DUP5 SWAP1 MSTORE SWAP2 DUP2 ADD DUP5 SWAP1 MSTORE SWAP1 DUP5 AND SWAP1 DUP6 SWAP1 PUSH12 0xFFFFFFFFFFFFFFFFFFFFFFFF DUP11 AND SWAP1 PUSH32 0x4198E253C4AE311BC3D0C7ACA40CB1A9827879CA09DC5F3A430127C736748F18 SWAP1 PUSH1 0x60 ADD PUSH1 0x40 MLOAD DUP1 SWAP2 SUB SWAP1 LOG4 POP POP POP POP POP POP POP POP POP JUMP JUMPDEST PUSH1 0x0 PUSH2 0x4CC PUSH2 0xC18 JUMP JUMPDEST PUSH2 0xB02 PUSH2 0xAF2 PUSH2 0xC18 JUMP JUMPDEST DUP3 PUSH2 0xAFB PUSH2 0xC22 JUMP JUMPDEST SWAP2 SWAP1 PUSH2 0x1035 JUMP JUMPDEST POP JUMP JUMPDEST PUSH1 0x0 DUP1 PUSH2 0x474 PUSH1 0x1 PUSH32 0xCA9D3E17F264B0F3984E2634E94ADB37FA3E6A8103F06AEAE6FA59E21C769F5E PUSH2 0x1883 JUMP JUMPDEST PUSH1 0x0 PUSH29 0x100000000000000000000000000000000000000000000000000000000 PUSH32 0xFFFFFFFF00000000000000000000000000000000000000000000000000000000 DUP4 AND ADD PUSH2 0xB83 JUMPI POP PUSH1 0x0 PUSH2 0x474 JUMP JUMPDEST PUSH32 0xFE00365900000000000000000000000000000000000000000000000000000000 PUSH32 0xFFFFFFFF00000000000000000000000000000000000000000000000000000000 DUP4 AND ADD PUSH2 0xBD4 JUMPI POP PUSH1 0x1 PUSH2 0x474 JUMP JUMPDEST POP PUSH32 0xFFFFFFFF00000000000000000000000000000000000000000000000000000000 AND PUSH1 0x0 SWAP1 DUP2 MSTORE PUSH1 0x20 SWAP2 SWAP1 SWAP2 MSTORE PUSH1 0x40 SWAP1 KECCAK256 SLOAD PUSH1 0xFF AND SWAP1 JUMP JUMPDEST CALLDATASIZE PUSH1 0x0 PUSH2 0x485 PUSH2 0x114A JUMP JUMPDEST PUSH1 0x0 PUSH2 0x4CC PUSH2 0x12BA JUMP JUMPDEST PUSH1 0x0 DUP1 PUSH2 0x474 PUSH1 0x1 PUSH32 0xC9ED16F33AB3A66C84BFD83099CCB2A8845871E2E1C1928F63797152F0FD54CD PUSH2 0x1883 JUMP JUMPDEST DUP2 SLOAD PUSH20 0xFFFFFFFFFFFFFFFFFFFFFFFFFFFFFFFFFFFFFFFF DUP3 DUP2 AND SWAP2 AND EQ PUSH2 0xCC0 JUMPI PUSH1 0x40 MLOAD PUSH32 0x2EF4875E00000000000000000000000000000000000000000000000000000000 DUP2 MSTORE PUSH20 0xFFFFFFFFFFFFFFFFFFFFFFFFFFFFFFFFFFFFFFFF DUP3 AND PUSH1 0x4 DUP3 ADD MSTORE PUSH1 0x24 ADD JUMPDEST PUSH1 0x40 MLOAD DUP1 SWAP2 SUB SWAP1 REVERT JUMPDEST POP POP JUMP JUMPDEST PUSH1 0x0 DUP1 PUSH2 0x474 PUSH1 0x1 PUSH32 0x186A05F63B1553398AD5EA3233C0CE68B8C9EECC47717F123C5C2B42FBD6D9F PUSH2 0x1883 JUMP JUMPDEST PUSH2 0xCFB DUP2 PUSH2 0x1407 JUMP JUMPDEST DUP1 SLOAD PUSH32 0xFFFFFFFFFFFFFFFFFFFFFFFFFFFFFFFFFFFFFFFFFFFFFFFFFFFFFFFFFFFFFF00 AND DUP2 SSTORE PUSH1 0x40 MLOAD PUSH32 0x7805862F689E2F13DF9F062FF482AD3AD112ACA9E0847911ED832E158C525B33 SWAP1 PUSH1 0x0 SWAP1 LOG1 POP JUMP JUMPDEST PUSH1 0x0 DUP5 PUSH1 0x0 SUB PUSH2 0xD8C JUMPI PUSH1 0x40 MLOAD PUSH32 0x27AB1EE200000000000000000000000000000000000000000000000000000000 DUP2 MSTORE PUSH1 0x4 DUP2 ADD DUP7 SWAP1 MSTORE PUSH1 0x24 ADD PUSH2 0xCB7 JUMP JUMPDEST PUSH2 0xD9C PUSH2 0xD97 PUSH2 0xCC4 JUMP JUMPDEST PUSH2 0x1442 JUMP JUMPDEST POP PUSH12 0xFFFFFFFFFFFFFFFFFFFFFFFF DUP4 AND PUSH1 0x0 SWAP1 DUP2 MSTORE PUSH1 0x20 DUP2 SWAP1 MSTORE PUSH1 0x40 DUP2 KECCAK256 SLOAD SWAP1 DUP2 SWAP1 SUB PUSH2 0xE05 JUMPI PUSH1 0x40 MLOAD PUSH32 0xAB4A793900000000000000000000000000000000000000000000000000000000 DUP2 MSTORE PUSH12 0xFFFFFFFFFFFFFFFFFFFFFFFF DUP6 AND PUSH1 0x4 DUP3 ADD MSTORE PUSH1 0x24 ADD PUSH2 0xCB7 JUMP JUMPDEST PUSH1 0x40 MLOAD PUSH1 0x60 DUP8 DUP2 SHL PUSH32 0xFFFFFFFFFFFFFFFFFFFFFFFFFFFFFFFFFFFFFFFF000000000000000000000000 AND PUSH1 0x20 DUP4 ADD MSTORE PUSH1 0x34 DUP3 ADD DUP8 SWAP1 MSTORE PUSH1 0xA0 DUP7 SWAP1 SHL PUSH32 0xFFFFFFFFFFFFFFFFFFFFFFFF0000000000000000000000000000000000000000 AND PUSH1 0x54 DUP4 ADD MSTORE PUSH1 0x0 SWAP2 ADD PUSH1 0x40 DUP1 MLOAD PUSH32 0xFFFFFFFFFFFFFFFFFFFFFFFFFFFFFFFFFFFFFFFFFFFFFFFFFFFFFFFFFFFFFFE0 DUP2 DUP5 SUB ADD DUP2 MSTORE SWAP2 SWAP1 MSTORE DUP1 MLOAD PUSH1 0x20 SWAP1 SWAP2 ADD KECCAK256 SWAP1 POP PUSH2 0xEAF DUP5 DUP5 DUP5 DUP5 PUSH2 0x147E JUMP JUMPDEST PUSH2 0xF18 JUMPI PUSH1 0x40 MLOAD PUSH32 0x3C6EE01B00000000000000000000000000000000000000000000000000000000 DUP2 MSTORE PUSH20 0xFFFFFFFFFFFFFFFFFFFFFFFFFFFFFFFFFFFFFFFF DUP9 AND PUSH1 0x4 DUP3 ADD MSTORE PUSH1 0x24 DUP2 ADD DUP8 SWAP1 MSTORE PUSH12 0xFFFFFFFFFFFFFFFFFFFFFFFF DUP7 AND PUSH1 0x44 DUP3 ADD MSTORE PUSH1 0x64 ADD PUSH2 0xCB7 JUMP JUMPDEST PUSH1 0x0 DUP2 DUP2 MSTORE PUSH1 0x1 PUSH1 0x20 MSTORE PUSH1 0x40 SWAP1 KECCAK256 SLOAD PUSH1 0xFF AND ISZERO PUSH2 0xF94 JUMPI PUSH1 0x40 MLOAD PUSH32 0x6508823200000000000000000000000000000000000000000000000000000000 DUP2 MSTORE PUSH20 0xFFFFFFFFFFFFFFFFFFFFFFFFFFFFFFFFFFFFFFFF DUP9 AND PUSH1 0x4 DUP3 ADD MSTORE PUSH1 0x24 DUP2 ADD DUP8 SWAP1 MSTORE PUSH12 0xFFFFFFFFFFFFFFFFFFFFFFFF DUP7 AND PUSH1 0x44 DUP3 ADD MSTORE PUSH1 0x64 ADD PUSH2 0xCB7 JUMP JUMPDEST PUSH1 0x0 SWAP1 DUP2 MSTORE PUSH1 0x1 PUSH1 0x20 DUP2 SWAP1 MSTORE PUSH1 0x40 SWAP1 SWAP2 KECCAK256 DUP1 SLOAD PUSH32 0xFFFFFFFFFFFFFFFFFFFFFFFFFFFFFFFFFFFFFFFFFFFFFFFFFFFFFFFFFFFFFF00 AND SWAP1 SWAP2 OR SWAP1 SSTORE SWAP6 SWAP5 POP POP POP POP POP JUMP JUMPDEST PUSH2 0xFE0 DUP2 PUSH2 0x1442 JUMP JUMPDEST DUP1 SLOAD PUSH32 0xFFFFFFFFFFFFFFFFFFFFFFFFFFFFFFFFFFFFFFFFFFFFFFFFFFFFFFFFFFFFFF00 AND PUSH1 0x1 OR DUP2 SSTORE PUSH1 0x40 MLOAD PUSH32 0x6985A02210A168E66602D3235CB6DB0E70F92B3BA4D376A33C0F3D9434BFF625 SWAP1 PUSH1 0x0 SWAP1 LOG1 POP JUMP JUMPDEST DUP3 SLOAD PUSH20 0xFFFFFFFFFFFFFFFFFFFFFFFFFFFFFFFFFFFFFFFF SWAP1 DUP2 AND SWAP1 DUP4 AND DUP2 EQ PUSH2 0x10A2 JUMPI PUSH1 0x40 MLOAD PUSH32 0x2EF4875E00000000000000000000000000000000000000000000000000000000 DUP2 MSTORE PUSH20 0xFFFFFFFFFFFFFFFFFFFFFFFFFFFFFFFFFFFFFFFF DUP5 AND PUSH1 0x4 DUP3 ADD MSTORE PUSH1 0x24 ADD PUSH2 0xCB7 JUMP JUMPDEST DUP2 PUSH20 0xFFFFFFFFFFFFFFFFFFFFFFFFFFFFFFFFFFFFFFFF AND DUP2 PUSH20 0xFFFFFFFFFFFFFFFFFFFFFFFFFFFFFFFFFFFFFFFF AND EQ PUSH2 0x1144 JUMPI DUP4 SLOAD PUSH32 0xFFFFFFFFFFFFFFFFFFFFFFFF0000000000000000000000000000000000000000 AND PUSH20 0xFFFFFFFFFFFFFFFFFFFFFFFFFFFFFFFFFFFFFFFF DUP4 DUP2 AND SWAP2 DUP3 OR DUP7 SSTORE PUSH1 0x40 MLOAD SWAP1 DUP4 AND SWAP1 PUSH32 0x8BE0079C531659141344CD1FD0A4F28419497F9722A3DAAFE3B4186F6B6457E0 SWAP1 PUSH1 0x0 SWAP1 LOG3 JUMPDEST POP POP POP POP JUMP JUMPDEST CALLDATASIZE PUSH1 0x0 CALLER ORIGIN EQ DUP1 PUSH2 0x115B JUMPI POP PUSH1 0x18 CALLDATASIZE LT JUMPDEST ISZERO PUSH2 0x1169 JUMPI POP PUSH1 0x0 SWAP2 CALLDATASIZE SWAP2 POP JUMP JUMPDEST CALLER PUSH20 0xFFFFFFFFFFFFFFFFFFFFFFFFFFFFFFFFFFFFFFFF PUSH32 0x0 AND EQ DUP1 PUSH2 0x12A4 JUMPI POP PUSH20 0xFFFFFFFFFFFFFFFFFFFFFFFFFFFFFFFFFFFFFFFF PUSH32 0x0 AND PUSH4 0x19A2028 CALLDATASIZE PUSH32 0xFFFFFFFFFFFFFFFFFFFFFFFFFFFFFFFFFFFFFFFFFFFFFFFFFFFFFFFFFFFFFFEC ADD CALLDATALOAD PUSH1 0x60 SHR PUSH1 0x40 MLOAD PUSH32 0xFFFFFFFF00000000000000000000000000000000000000000000000000000000 PUSH1 0xE0 DUP5 SWAP1 SHL AND DUP2 MSTORE PUSH20 0xFFFFFFFFFFFFFFFFFFFFFFFFFFFFFFFFFFFFFFFF SWAP1 SWAP2 AND PUSH1 0x4 DUP3 ADD MSTORE CALLER PUSH1 0x24 DUP3 ADD MSTORE ADDRESS PUSH1 0x44 DUP3 ADD MSTORE PUSH1 0x64 ADD PUSH1 0x20 PUSH1 0x40 MLOAD DUP1 DUP4 SUB DUP2 DUP7 GAS STATICCALL ISZERO DUP1 ISZERO PUSH2 0x1280 JUMPI RETURNDATASIZE PUSH1 0x0 DUP1 RETURNDATACOPY RETURNDATASIZE PUSH1 0x0 REVERT JUMPDEST POP POP POP POP PUSH1 0x40 MLOAD RETURNDATASIZE PUSH1 0x1F NOT PUSH1 0x1F DUP3 ADD AND DUP3 ADD DUP1 PUSH1 0x40 MSTORE POP DUP2 ADD SWAP1 PUSH2 0x12A4 SWAP2 SWAP1 PUSH2 0x180F JUMP JUMPDEST ISZERO PUSH2 0x12B1 JUMPI PUSH2 0x485 PUSH2 0x1496 JUMP JUMPDEST POP PUSH1 0x0 SWAP2 CALLDATASIZE SWAP2 POP JUMP JUMPDEST PUSH1 0x0 CALLER ORIGIN EQ DUP1 PUSH2 0x12CA JUMPI POP PUSH1 0x18 CALLDATASIZE LT JUMPDEST ISZERO PUSH2 0x12D4 JUMPI POP CALLER SWAP1 JUMP JUMPDEST PUSH32 0xFFFFFFFFFFFFFFFFFFFFFFFFFFFFFFFFFFFFFFFFFFFFFFFFFFFFFFFFFFFFFFEC CALLDATASIZE ADD CALLDATALOAD PUSH1 0x60 SHR PUSH32 0x0 PUSH20 0xFFFFFFFFFFFFFFFFFFFFFFFFFFFFFFFFFFFFFFFF AND CALLER EQ DUP1 PUSH2 0x13F6 JUMPI POP PUSH1 0x40 MLOAD PUSH32 0x19A202800000000000000000000000000000000000000000000000000000000 DUP2 MSTORE PUSH20 0xFFFFFFFFFFFFFFFFFFFFFFFFFFFFFFFFFFFFFFFF DUP3 DUP2 AND PUSH1 0x4 DUP4 ADD MSTORE CALLER PUSH1 0x24 DUP4 ADD MSTORE ADDRESS PUSH1 0x44 DUP4 ADD MSTORE PUSH32 0x0 AND SWAP1 PUSH4 0x19A2028 SWAP1 PUSH1 0x64 ADD PUSH1 0x20 PUSH1 0x40 MLOAD DUP1 DUP4 SUB DUP2 DUP7 GAS STATICCALL ISZERO DUP1 ISZERO PUSH2 0x13D2 JUMPI RETURNDATASIZE PUSH1 0x0 DUP1 RETURNDATACOPY RETURNDATASIZE PUSH1 0x0 REVERT JUMPDEST POP POP POP POP PUSH1 0x40 MLOAD RETURNDATASIZE PUSH1 0x1F NOT PUSH1 0x1F DUP3 ADD AND DUP3 ADD DUP1 PUSH1 0x40 MSTORE POP DUP2 ADD SWAP1 PUSH2 0x13F6 SWAP2 SWAP1 PUSH2 0x180F JUMP JUMPDEST ISZERO PUSH2 0x1400 JUMPI SWAP2 SWAP1 POP JUMP JUMPDEST CALLER SWAP2 POP POP SWAP1 JUMP JUMPDEST DUP1 SLOAD PUSH1 0xFF AND PUSH2 0xB02 JUMPI PUSH1 0x40 MLOAD PUSH32 0x6CD6020100000000000000000000000000000000000000000000000000000000 DUP2 MSTORE PUSH1 0x4 ADD PUSH1 0x40 MLOAD DUP1 SWAP2 SUB SWAP1 REVERT JUMPDEST DUP1 SLOAD PUSH1 0xFF AND ISZERO PUSH2 0xB02 JUMPI PUSH1 0x40 MLOAD PUSH32 0x9E87FAC800000000000000000000000000000000000000000000000000000000 DUP2 MSTORE PUSH1 0x4 ADD PUSH1 0x40 MLOAD DUP1 SWAP2 SUB SWAP1 REVERT JUMPDEST PUSH1 0x0 DUP3 PUSH2 0x148C DUP7 DUP7 DUP6 PUSH2 0x14C7 JUMP JUMPDEST EQ SWAP6 SWAP5 POP POP POP POP POP JUMP JUMPDEST CALLDATASIZE PUSH1 0x0 PUSH2 0x485 PUSH32 0xFFFFFFFFFFFFFFFFFFFFFFFFFFFFFFFFFFFFFFFFFFFFFFFFFFFFFFFFFFFFFFEC DUP4 ADD DUP3 DUP5 DUP2 PUSH2 0x1896 JUMP JUMPDEST PUSH1 0x0 DUP2 DUP2 JUMPDEST DUP5 DUP2 LT ISZERO PUSH2 0x1500 JUMPI PUSH2 0x14F6 DUP3 DUP8 DUP8 DUP5 DUP2 DUP2 LT PUSH2 0x14EA JUMPI PUSH2 0x14EA PUSH2 0x18C0 JUMP JUMPDEST SWAP1 POP PUSH1 0x20 MUL ADD CALLDATALOAD PUSH2 0x1509 JUMP JUMPDEST SWAP2 POP PUSH1 0x1 ADD PUSH2 0x14CC JUMP JUMPDEST POP SWAP5 SWAP4 POP POP POP POP JUMP JUMPDEST PUSH1 0x0 DUP2 DUP4 LT PUSH2 0x1525 JUMPI PUSH1 0x0 DUP3 DUP2 MSTORE PUSH1 0x20 DUP5 SWAP1 MSTORE PUSH1 0x40 SWAP1 KECCAK256 PUSH2 0x1534 JUMP JUMPDEST PUSH1 0x0 DUP4 DUP2 MSTORE PUSH1 0x20 DUP4 SWAP1 MSTORE PUSH1 0x40 SWAP1 KECCAK256 JUMPDEST SWAP4 SWAP3 POP POP POP JUMP JUMPDEST PUSH1 0x0 PUSH1 0x20 DUP3 DUP5 SUB SLT ISZERO PUSH2 0x154D JUMPI PUSH1 0x0 DUP1 REVERT JUMPDEST DUP2 CALLDATALOAD PUSH32 0xFFFFFFFF00000000000000000000000000000000000000000000000000000000 DUP2 AND DUP2 EQ PUSH2 0x1534 JUMPI PUSH1 0x0 DUP1 REVERT JUMPDEST PUSH1 0x20 DUP2 MSTORE DUP2 PUSH1 0x20 DUP3 ADD MSTORE DUP2 DUP4 PUSH1 0x40 DUP4 ADD CALLDATACOPY PUSH1 0x0 DUP2 DUP4 ADD PUSH1 0x40 SWAP1 DUP2 ADD SWAP2 SWAP1 SWAP2 MSTORE PUSH1 0x1F SWAP1 SWAP3 ADD PUSH32 0xFFFFFFFFFFFFFFFFFFFFFFFFFFFFFFFFFFFFFFFFFFFFFFFFFFFFFFFFFFFFFFE0 AND ADD ADD SWAP2 SWAP1 POP JUMP JUMPDEST DUP1 CALLDATALOAD PUSH20 0xFFFFFFFFFFFFFFFFFFFFFFFFFFFFFFFFFFFFFFFF DUP2 AND DUP2 EQ PUSH2 0x15EE JUMPI PUSH1 0x0 DUP1 REVERT JUMPDEST SWAP2 SWAP1 POP JUMP JUMPDEST PUSH1 0x0 PUSH1 0x20 DUP3 DUP5 SUB SLT ISZERO PUSH2 0x1605 JUMPI PUSH1 0x0 DUP1 REVERT JUMPDEST PUSH2 0x1534 DUP3 PUSH2 0x15CA JUMP JUMPDEST PUSH1 0x0 PUSH1 0x20 DUP3 DUP5 SUB SLT ISZERO PUSH2 0x1620 JUMPI PUSH1 0x0 DUP1 REVERT JUMPDEST POP CALLDATALOAD SWAP2 SWAP1 POP JUMP JUMPDEST DUP1 CALLDATALOAD PUSH12 0xFFFFFFFFFFFFFFFFFFFFFFFF DUP2 AND DUP2 EQ PUSH2 0x15EE JUMPI PUSH1 0x0 DUP1 REVERT JUMPDEST PUSH1 0x0 DUP1 PUSH1 0x0 DUP1 PUSH1 0x0 PUSH1 0x80 DUP7 DUP9 SUB SLT ISZERO PUSH2 0x165B JUMPI PUSH1 0x0 DUP1 REVERT JUMPDEST PUSH2 0x1664 DUP7 PUSH2 0x15CA JUMP JUMPDEST SWAP5 POP PUSH1 0x20 DUP7 ADD CALLDATALOAD SWAP4 POP PUSH2 0x1679 PUSH1 0x40 DUP8 ADD PUSH2 0x1627 JUMP JUMPDEST SWAP3 POP PUSH1 0x60 DUP7 ADD CALLDATALOAD PUSH8 0xFFFFFFFFFFFFFFFF DUP2 GT ISZERO PUSH2 0x1695 JUMPI PUSH1 0x0 DUP1 REVERT JUMPDEST DUP7 ADD PUSH1 0x1F DUP2 ADD DUP9 SGT PUSH2 0x16A6 JUMPI PUSH1 0x0 DUP1 REVERT JUMPDEST DUP1 CALLDATALOAD PUSH8 0xFFFFFFFFFFFFFFFF DUP2 GT ISZERO PUSH2 0x16BD JUMPI PUSH1 0x0 DUP1 REVERT JUMPDEST DUP9 PUSH1 0x20 DUP3 PUSH1 0x5 SHL DUP5 ADD ADD GT ISZERO PUSH2 0x16D2 JUMPI PUSH1 0x0 DUP1 REVERT JUMPDEST SWAP6 SWAP9 SWAP5 SWAP8 POP SWAP3 SWAP6 POP POP POP PUSH1 0x20 ADD SWAP2 SWAP1 JUMP JUMPDEST PUSH1 0x0 PUSH1 0x20 DUP3 DUP5 SUB SLT ISZERO PUSH2 0x16F5 JUMPI PUSH1 0x0 DUP1 REVERT JUMPDEST PUSH2 0x1534 DUP3 PUSH2 0x1627 JUMP JUMPDEST PUSH32 0x4E487B7100000000000000000000000000000000000000000000000000000000 PUSH1 0x0 MSTORE PUSH1 0x11 PUSH1 0x4 MSTORE PUSH1 0x24 PUSH1 0x0 REVERT JUMPDEST PUSH1 0x0 PUSH12 0xFFFFFFFFFFFFFFFFFFFFFFFF DUP3 AND PUSH12 0xFFFFFFFFFFFFFFFFFFFFFFFF DUP2 SUB PUSH2 0x1759 JUMPI PUSH2 0x1759 PUSH2 0x16FE JUMP JUMPDEST PUSH1 0x1 ADD SWAP3 SWAP2 POP POP JUMP JUMPDEST PUSH20 0xFFFFFFFFFFFFFFFFFFFFFFFFFFFFFFFFFFFFFFFF DUP6 AND DUP2 MSTORE PUSH20 0xFFFFFFFFFFFFFFFFFFFFFFFFFFFFFFFFFFFFFFFF DUP5 AND PUSH1 0x20 DUP3 ADD MSTORE DUP3 PUSH1 0x40 DUP3 ADD MSTORE PUSH1 0x80 PUSH1 0x60 DUP3 ADD MSTORE PUSH1 0x0 DUP3 MLOAD DUP1 PUSH1 0x80 DUP5 ADD MSTORE PUSH1 0x0 JUMPDEST DUP2 DUP2 LT ISZERO PUSH2 0x17CE JUMPI PUSH1 0x20 DUP2 DUP7 ADD DUP2 ADD MLOAD PUSH1 0xA0 DUP7 DUP5 ADD ADD MSTORE ADD PUSH2 0x17B1 JUMP JUMPDEST POP PUSH1 0x0 PUSH1 0xA0 DUP3 DUP6 ADD ADD MSTORE PUSH1 0xA0 PUSH32 0xFFFFFFFFFFFFFFFFFFFFFFFFFFFFFFFFFFFFFFFFFFFFFFFFFFFFFFFFFFFFFFE0 PUSH1 0x1F DUP4 ADD AND DUP5 ADD ADD SWAP2 POP POP SWAP6 SWAP5 POP POP POP POP POP JUMP JUMPDEST PUSH1 0x0 PUSH1 0x20 DUP3 DUP5 SUB SLT ISZERO PUSH2 0x1821 JUMPI PUSH1 0x0 DUP1 REVERT JUMPDEST DUP2 MLOAD DUP1 ISZERO ISZERO DUP2 EQ PUSH2 0x1534 JUMPI PUSH1 0x0 DUP1 REVERT JUMPDEST DUP1 DUP3 MUL DUP2 ISZERO DUP3 DUP3 DIV DUP5 EQ OR PUSH2 0x474 JUMPI PUSH2 0x474 PUSH2 0x16FE JUMP JUMPDEST PUSH1 0x0 DUP3 PUSH2 0x187E JUMPI PUSH32 0x4E487B7100000000000000000000000000000000000000000000000000000000 PUSH1 0x0 MSTORE PUSH1 0x12 PUSH1 0x4 MSTORE PUSH1 0x24 PUSH1 0x0 REVERT JUMPDEST POP DIV SWAP1 JUMP JUMPDEST DUP2 DUP2 SUB DUP2 DUP2 GT ISZERO PUSH2 0x474 JUMPI PUSH2 0x474 PUSH2 0x16FE JUMP JUMPDEST PUSH1 0x0 DUP1 DUP6 DUP6 GT ISZERO PUSH2 0x18A6 JUMPI PUSH1 0x0 DUP1 REVERT JUMPDEST DUP4 DUP7 GT ISZERO PUSH2 0x18B3 JUMPI PUSH1 0x0 DUP1 REVERT JUMPDEST POP POP DUP3 ADD SWAP4 SWAP2 SWAP1 SWAP3 SUB SWAP2 POP JUMP JUMPDEST PUSH32 0x4E487B7100000000000000000000000000000000000000000000000000000000 PUSH1 0x0 MSTORE PUSH1 0x32 PUSH1 0x4 MSTORE PUSH1 0x24 PUSH1 0x0 REVERT INVALID LOG2 PUSH5 0x6970667358 0x22 SLT KECCAK256 STOP CALLDATALOAD DUP7 0x2A KECCAK256 TLOAD SWAP2 SWAP5 0xED SHR 0xBC PUSH2 0x7151 LT 0xF7 0xBB MSTORE 0x23 DUP5 0xDD DUP10 0xC2 SWAP8 MUL DUP13 PUSH23 0x4F210000FE64736F6C634300081C003300000000000000 "},"gasEstimates":{"creation":{"codeDepositCost":"1287400","executionCost":"infinite","totalCost":"infinite"},"external":{"FEE_PRECISION()":"261","REWARD_CONTRACT()":"infinite","STAKING_CONTRACT()":"infinite","__msgData()":"infinite","__msgSender()":"infinite","claimPayout(address,uint256,uint96,bytes32[])":"infinite","claimPayoutAndStake(address,uint256,uint96,bytes32[])":"infinite","claimed(bytes32)":"2528","fee()":"2357","forwarderRegistry()":"infinite","isTrustedForwarder(address)":"infinite","nonce()":"2380","owner()":"infinite","pause()":"infinite","paused()":"infinite","payoutWallet()":"2370","rootMap(uint96)":"2555","setMerkleRoot(bytes32)":"infinite","setPayoutWallet(address)":"infinite","setTreasuryWallet(address)":"infinite","supportsInterface(bytes4)":"infinite","transferOwnership(address)":"infinite","treasuryWallet()":"2414","unpause()":"infinite"}},"methodIdentifiers":{"FEE_PRECISION()":"e63a391f","REWARD_CONTRACT()":"3a5af339","STAKING_CONTRACT()":"da19ddfb","__msgData()":"31e66e1e","__msgSender()":"d1a91ff2","claimPayout(address,uint256,uint96,bytes32[])":"d074eb97","claimPayoutAndStake(address,uint256,uint96,bytes32[])":"808756d6","claimed(bytes32)":"cc3c0f06","fee()":"ddca3f43","forwarderRegistry()":"2b4c9f16","isTrustedForwarder(address)":"572b6c05","nonce()":"affed0e0","owner()":"8da5cb5b","pause()":"8456cb59","paused()":"5c975abb","payoutWallet()":"8488bb4e","rootMap(uint96)":"ac131658","setMerkleRoot(bytes32)":"7cb64759","setPayoutWallet(address)":"6b8f9c43","setTreasuryWallet(address)":"a8602fea","supportsInterface(bytes4)":"01ffc9a7","transferOwnership(address)":"f2fde38b","treasuryWallet()":"4626402b","unpause()":"3f4ba83a"}},"storageLayout":{"storage":[{"astId":4536,"contract":"contracts/mocks/merkleClaim/ERC20MerkleClaimMock.sol:ERC20MerkleClaimMock","label":"rootMap","offset":0,"slot":"0","type":"t_mapping(t_uint96,t_bytes32)"},{"astId":4541,"contract":"contracts/mocks/merkleClaim/ERC20MerkleClaimMock.sol:ERC20MerkleClaimMock","label":"claimed","offset":0,"slot":"1","type":"t_mapping(t_bytes32,t_bool)"},{"astId":4544,"contract":"contracts/mocks/merkleClaim/ERC20MerkleClaimMock.sol:ERC20MerkleClaimMock","label":"nonce","offset":0,"slot":"2","type":"t_uint96"},{"astId":4547,"contract":"contracts/mocks/merkleClaim/ERC20MerkleClaimMock.sol:ERC20MerkleClaimMock","label":"payoutWallet","offset":12,"slot":"2","type":"t_address"},{"astId":4550,"contract":"contracts/mocks/merkleClaim/ERC20MerkleClaimMock.sol:ERC20MerkleClaimMock","label":"fee","offset":0,"slot":"3","type":"t_uint96"},{"astId":4553,"contract":"contracts/mocks/merkleClaim/ERC20MerkleClaimMock.sol:ERC20MerkleClaimMock","label":"treasuryWallet","offset":12,"slot":"3","type":"t_address"}],"types":{"t_address":{"encoding":"inplace","label":"address","numberOfBytes":"20"},"t_bool":{"encoding":"inplace","label":"bool","numberOfBytes":"1"},"t_bytes32":{"encoding":"inplace","label":"bytes32","numberOfBytes":"32"},"t_mapping(t_bytes32,t_bool)":{"encoding":"mapping","key":"t_bytes32","label":"mapping(bytes32 => bool)","numberOfBytes":"32","value":"t_bool"},"t_mapping(t_uint96,t_bytes32)":{"encoding":"mapping","key":"t_uint96","label":"mapping(uint96 => bytes32)","numberOfBytes":"32","value":"t_bytes32"},"t_uint96":{"encoding":"inplace","label":"uint96","numberOfBytes":"12"}}},"userdoc":{"errors":{"AlreadyClaimed(address,uint256,uint256)":[{"notice":"Thrown when trying to claim the same leaf more than once."}],"IllegalInterfaceId()":[{"notice":"Thrown when setting the illegal interfaceId 0xffffffff."}],"InvalidClaimAmount(uint256)":[{"notice":"Throws when the claim amount is zero."}],"InvalidFee()":[{"notice":"Thrown when the given fee is bigger than precision."}],"InvalidForwarderRegistry()":[{"notice":"Thrown when the given forwarder registry address is zero address."}],"InvalidPayoutWallet()":[{"notice":"Thrown when the given payout wallet address is zero address."}],"InvalidProof(address,uint256,uint256)":[{"notice":"Thrown when a proof cannot be verified."}],"InvalidRewardContract(address)":[{"notice":"Thrown when the reward contract address is invalid."}],"InvalidStakingContract(address)":[{"notice":"Thrown when the staking contract address is invalid."}],"InvalidTreasuryWallet()":[{"notice":"Thrown when the given treasury wallet address is zero address."}],"MerkleRootNotExists(uint256)":[{"notice":"Throws when the merkle root does not exist."}],"NotContractOwner(address)":[{"notice":"Thrown when an account is not the contract owner but is required to."}],"NotPaused()":[{"notice":"Thrown when the contract is not paused but is required to."}],"Paused()":[{"notice":"Thrown when the contract is paused but is required not to."}]},"events":{"MerkleRootSet(uint256,bytes32)":{"notice":"Emitted when a new merkle root is set."},"OwnershipTransferred(address,address)":{"notice":"Emitted when the contract ownership changes."},"Pause()":{"notice":"Emitted when the pause is triggered."},"PayoutClaimed(uint256,bytes32,address,address,uint256,uint256)":{"notice":"Emitted when a payout is claimed."},"PayoutWalletSet(address)":{"notice":"Emitted when a new payout wallet is set."},"TreasuryWalletSet(address)":{"notice":"Emitted when a new treasury wallet is set."},"Unpause()":{"notice":"Emitted when the pause is lifted."}},"kind":"user","methods":{"FEE_PRECISION()":{"notice":"Fee precision"},"REWARD_CONTRACT()":{"notice":"a reference to reward token contract"},"STAKING_CONTRACT()":{"notice":"a reference to staking contract"},"__msgData()":{"notice":"Internal function to access the current msg.data."},"__msgSender()":{"notice":"Internal function to access the current msg.sender."},"claimPayout(address,uint256,uint96,bytes32[])":{"notice":"Executes the payout for a given recipient address (anyone can call this function)."},"claimPayoutAndStake(address,uint256,uint96,bytes32[])":{"notice":"Executes the payout for a given recipient address (anyone can call this function) and stake the payout right away."},"claimed(bytes32)":{"notice":"leaf hash to claimed state"},"fee()":{"notice":"Store the fee percentage"},"isTrustedForwarder(address)":{"notice":"Checks whether a forwarder is trusted."},"nonce()":{"notice":"Store the nonce"},"owner()":{"notice":"Gets the address of the contract owner."},"pause()":{"notice":"Pauses the contract."},"paused()":{"notice":"Gets the paused state of the contract."},"payoutWallet()":{"notice":"Store the payout wallet address for transfering reward token"},"rootMap(uint96)":{"notice":"Store the merkle roots for claiming"},"setMerkleRoot(bytes32)":{"notice":"Sets the new merkle root with current nonce for claiming."},"setPayoutWallet(address)":{"notice":"Sets the new payout wallet."},"setTreasuryWallet(address)":{"notice":"Sets the new treasury wallet."},"supportsInterface(bytes4)":{"notice":"Returns whether this contract implements a given interface."},"transferOwnership(address)":{"notice":"Sets the address of the new contract owner."},"treasuryWallet()":{"notice":"Store the treasury wallet address for collecting fee"},"unpause()":{"notice":"Unpauses the contract."}},"version":1}}}}