{"contracts/staking/ERC20StakingPointsRewardsLinearPool.sol":{"ERC20StakingPointsRewardsLinearPool":{"abi":[{"inputs":[{"internalType":"contract IERC20","name":"stakingToken","type":"address"},{"internalType":"contract IPoints","name":"pointsContract","type":"address"},{"internalType":"bytes32","name":"depositReasonCode","type":"bytes32"},{"internalType":"contract IForwarderRegistry","name":"forwarderRegistry","type":"address"}],"stateMutability":"nonpayable","type":"constructor"},{"inputs":[],"name":"IllegalInterfaceId","type":"error"},{"inputs":[],"name":"InvalidDuration","type":"error"},{"inputs":[],"name":"InvalidRewardAmount","type":"error"},{"inputs":[],"name":"InvalidStakeAmount","type":"error"},{"inputs":[],"name":"InvalidToken","type":"error"},{"inputs":[],"name":"InvalidWithdrawAmount","type":"error"},{"inputs":[{"internalType":"address","name":"account","type":"address"}],"name":"NotContractOwner","type":"error"},{"inputs":[{"internalType":"bytes32","name":"role","type":"bytes32"},{"internalType":"address","name":"account","type":"address"}],"name":"NotRoleHolder","type":"error"},{"inputs":[],"name":"ReentrancyGuardReentrantCall","type":"error"},{"inputs":[{"internalType":"uint256","name":"reward","type":"uint256"},{"internalType":"uint256","name":"duration","type":"uint256"}],"name":"RewardTooSmallForDuration","type":"error"},{"inputs":[{"internalType":"address","name":"token","type":"address"}],"name":"SafeERC20FailedOperation","type":"error"},{"anonymous":false,"inputs":[{"indexed":true,"internalType":"address","name":"staker","type":"address"},{"indexed":false,"internalType":"bytes","name":"claimData","type":"bytes"},{"indexed":false,"internalType":"uint256","name":"reward","type":"uint256"}],"name":"Claimed","type":"event"},{"anonymous":false,"inputs":[{"indexed":true,"internalType":"address","name":"previousOwner","type":"address"},{"indexed":true,"internalType":"address","name":"newOwner","type":"address"}],"name":"OwnershipTransferred","type":"event"},{"anonymous":false,"inputs":[{"indexed":true,"internalType":"address","name":"rewarder","type":"address"},{"indexed":false,"internalType":"uint256","name":"reward","type":"uint256"},{"indexed":false,"internalType":"uint256","name":"duration","type":"uint256"},{"indexed":false,"internalType":"uint256","name":"dust","type":"uint256"}],"name":"RewardAdded","type":"event"},{"anonymous":false,"inputs":[{"indexed":false,"internalType":"bytes32","name":"role","type":"bytes32"},{"indexed":false,"internalType":"address","name":"account","type":"address"},{"indexed":false,"internalType":"address","name":"operator","type":"address"}],"name":"RoleGranted","type":"event"},{"anonymous":false,"inputs":[{"indexed":false,"internalType":"bytes32","name":"role","type":"bytes32"},{"indexed":false,"internalType":"address","name":"account","type":"address"},{"indexed":false,"internalType":"address","name":"operator","type":"address"}],"name":"RoleRevoked","type":"event"},{"anonymous":false,"inputs":[{"indexed":true,"internalType":"address","name":"staker","type":"address"},{"indexed":false,"internalType":"bytes","name":"stakeData","type":"bytes"},{"indexed":false,"internalType":"uint256","name":"stakePoints","type":"uint256"}],"name":"Staked","type":"event"},{"anonymous":false,"inputs":[{"indexed":true,"internalType":"address","name":"staker","type":"address"},{"indexed":false,"internalType":"bytes","name":"withdrawData","type":"bytes"},{"indexed":false,"internalType":"uint256","name":"stakePoints","type":"uint256"}],"name":"Withdrawn","type":"event"},{"inputs":[],"name":"DEPOSIT_REASON_CODE","outputs":[{"internalType":"bytes32","name":"","type":"bytes32"}],"stateMutability":"view","type":"function"},{"inputs":[],"name":"POINTS_CONTRACT","outputs":[{"internalType":"contract IPoints","name":"","type":"address"}],"stateMutability":"view","type":"function"},{"inputs":[],"name":"REWARDER_ROLE","outputs":[{"internalType":"bytes32","name":"","type":"bytes32"}],"stateMutability":"view","type":"function"},{"inputs":[],"name":"SCALING_FACTOR","outputs":[{"internalType":"uint256","name":"","type":"uint256"}],"stateMutability":"view","type":"function"},{"inputs":[],"name":"STAKING_TOKEN","outputs":[{"internalType":"contract IERC20","name":"","type":"address"}],"stateMutability":"view","type":"function"},{"inputs":[{"internalType":"uint256","name":"reward","type":"uint256"},{"internalType":"uint256","name":"duration","type":"uint256"}],"name":"addReward","outputs":[],"stateMutability":"payable","type":"function"},{"inputs":[],"name":"claim","outputs":[],"stateMutability":"nonpayable","type":"function"},{"inputs":[],"name":"distributionEnd","outputs":[{"internalType":"uint256","name":"","type":"uint256"}],"stateMutability":"view","type":"function"},{"inputs":[{"internalType":"address","name":"account","type":"address"}],"name":"earned","outputs":[{"internalType":"uint256","name":"","type":"uint256"}],"stateMutability":"view","type":"function"},{"inputs":[],"name":"forwarderRegistry","outputs":[{"internalType":"contract IForwarderRegistry","name":"","type":"address"}],"stateMutability":"view","type":"function"},{"inputs":[{"internalType":"bytes32","name":"role","type":"bytes32"},{"internalType":"address","name":"account","type":"address"}],"name":"grantRole","outputs":[],"stateMutability":"nonpayable","type":"function"},{"inputs":[{"internalType":"bytes32","name":"role","type":"bytes32"},{"internalType":"address","name":"account","type":"address"}],"name":"hasRole","outputs":[{"internalType":"bool","name":"hasRole_","type":"bool"}],"stateMutability":"view","type":"function"},{"inputs":[{"internalType":"address","name":"forwarder","type":"address"}],"name":"isTrustedForwarder","outputs":[{"internalType":"bool","name":"","type":"bool"}],"stateMutability":"view","type":"function"},{"inputs":[],"name":"lastTimeRewardApplicable","outputs":[{"internalType":"uint256","name":"","type":"uint256"}],"stateMutability":"view","type":"function"},{"inputs":[],"name":"lastUpdated","outputs":[{"internalType":"uint256","name":"","type":"uint256"}],"stateMutability":"view","type":"function"},{"inputs":[{"internalType":"address","name":"","type":"address"},{"internalType":"address","name":"from","type":"address"},{"internalType":"uint256","name":"value","type":"uint256"},{"internalType":"bytes","name":"","type":"bytes"}],"name":"onERC20Received","outputs":[{"internalType":"bytes4","name":"","type":"bytes4"}],"stateMutability":"nonpayable","type":"function"},{"inputs":[],"name":"owner","outputs":[{"internalType":"address","name":"","type":"address"}],"stateMutability":"view","type":"function"},{"inputs":[{"internalType":"bytes32","name":"role","type":"bytes32"}],"name":"renounceRole","outputs":[],"stateMutability":"nonpayable","type":"function"},{"inputs":[{"internalType":"bytes32","name":"role","type":"bytes32"},{"internalType":"address","name":"account","type":"address"}],"name":"revokeRole","outputs":[],"stateMutability":"nonpayable","type":"function"},{"inputs":[],"name":"rewardPerStakePoint","outputs":[{"internalType":"uint256","name":"","type":"uint256"}],"stateMutability":"view","type":"function"},{"inputs":[{"internalType":"address","name":"staker","type":"address"}],"name":"rewardPerStakePointPaid","outputs":[{"internalType":"uint256","name":"paid","type":"uint256"}],"stateMutability":"view","type":"function"},{"inputs":[],"name":"rewardPerStakePointStored","outputs":[{"internalType":"uint256","name":"","type":"uint256"}],"stateMutability":"view","type":"function"},{"inputs":[],"name":"rewardRate","outputs":[{"internalType":"uint256","name":"","type":"uint256"}],"stateMutability":"view","type":"function"},{"inputs":[{"internalType":"address","name":"staker","type":"address"}],"name":"rewards","outputs":[{"internalType":"uint256","name":"reward","type":"uint256"}],"stateMutability":"view","type":"function"},{"inputs":[{"internalType":"bytes","name":"stakeData","type":"bytes"}],"name":"stake","outputs":[],"stateMutability":"payable","type":"function"},{"inputs":[{"internalType":"address","name":"staker","type":"address"}],"name":"staked","outputs":[{"internalType":"uint256","name":"stakePoints","type":"uint256"}],"stateMutability":"view","type":"function"},{"inputs":[{"internalType":"bytes4","name":"interfaceId","type":"bytes4"}],"name":"supportsInterface","outputs":[{"internalType":"bool","name":"","type":"bool"}],"stateMutability":"view","type":"function"},{"inputs":[],"name":"totalStaked","outputs":[{"internalType":"uint256","name":"","type":"uint256"}],"stateMutability":"view","type":"function"},{"inputs":[{"internalType":"address","name":"newOwner","type":"address"}],"name":"transferOwnership","outputs":[],"stateMutability":"nonpayable","type":"function"},{"inputs":[{"internalType":"bytes","name":"withdrawData","type":"bytes"}],"name":"withdraw","outputs":[],"stateMutability":"nonpayable","type":"function"}],"devdoc":{"errors":{"NotContractOwner(address)":[{"params":{"account":"The account that was checked."}}],"NotRoleHolder(bytes32,address)":[{"params":{"account":"The account that was checked.","role":"The role the caller is missing."}}],"ReentrancyGuardReentrantCall()":[{"details":"Unauthorized reentrant call."}],"SafeERC20FailedOperation(address)":[{"details":"An operation with an ERC-20 token failed."}]},"events":{"OwnershipTransferred(address,address)":{"params":{"newOwner":"the new contract owner.","previousOwner":"the previous contract owner."}},"RoleGranted(bytes32,address,address)":{"params":{"account":"The account that has been granted the role.","operator":"The account that granted the role.","role":"The role that has been granted."}},"RoleRevoked(bytes32,address,address)":{"params":{"account":"The account that has been revoked the role.","operator":"The account that revoked the role.","role":"The role that has been revoked."}}},"kind":"dev","methods":{"grantRole(bytes32,address)":{"details":"Reverts with {NotContractOwner} if the sender is not the contract owner.Emits a {RoleGranted} event if the account did not previously have the role.","params":{"account":"The account to grant the role to.","role":"The role to grant."}},"hasRole(bytes32,address)":{"params":{"account":"The account.","role":"The role."},"returns":{"hasRole_":"Whether `account` has `role`."}},"isTrustedForwarder(address)":{"params":{"forwarder":"The forwarder to check."},"returns":{"_0":"True if `forwarder` is trusted, false if not."}},"owner()":{"returns":{"_0":"The address of the contract owner."}},"renounceRole(bytes32)":{"details":"Reverts if `sender` does not have `role`.Emits a {RoleRevoked} event.","params":{"role":"The role to renounce."}},"revokeRole(bytes32,address)":{"details":"Reverts with {NotContractOwner} if the sender is not the contract owner.Emits a {RoleRevoked} event if the account previously had the role.","params":{"account":"The account to revoke the role from.","role":"The role to revoke."}},"supportsInterface(bytes4)":{"details":"Note: This function call must use less than 30 000 gas.","params":{"interfaceId":"the interface identifier to test."},"returns":{"_0":"True if the interface is supported, false if `interfaceId` is `0xffffffff` or if the interface is not supported."}},"transferOwnership(address)":{"details":"Reverts if the sender is not the contract owner.Emits an {OwnershipTransferred} event if `newOwner` is different from the current contract owner.","params":{"newOwner":"The address of the new contract owner. Using the zero address means renouncing ownership."}}},"version":1},"evm":{"bytecode":{"linkReferences":{},"object":"61010060405234801561001157600080fd5b5060405161229b38038061229b833981016040819052610030916101e6565b828285838080803361004a816100446100a1565b906100d5565b50600160008190556001600160a01b0390911660805261007e9250634fc3585960e01b9150610077610144565b9190610172565b506001600160a01b0390811660a0529190911660c05260e0525061025c92505050565b6000806100cf60017fc9ed16f33ab3a66c84bfd83099ccb2a8845871e2e1c1928f63797152f0fd54cd61023b565b92915050565b6001600160a01b0381161561012b5781546001600160a01b0319166001600160a01b03821690811783556040516000907f8be0079c531659141344cd1fd0a4f28419497f9722a3daafe3b4186f6b6457e0908290a35b6101406307f5828d60e41b6001610077610144565b5050565b6000806100cf60017fca9d3e17f264b0f3984e2634e94adb37fa3e6a8103f06aeae6fa59e21c769f5e61023b565b600160e01b6001600160e01b03198316016101a0576040516372c683bb60e01b815260040160405180910390fd5b6001600160e01b03199190911660009081526020929092526040909120805460ff1916911515919091179055565b6001600160a01b03811681146101e357600080fd5b50565b600080600080608085870312156101fc57600080fd5b8451610207816101ce565b6020860151909450610218816101ce565b604086015160608701519194509250610230816101ce565b939692955090935050565b818103818111156100cf57634e487b7160e01b600052601160045260246000fd5b60805160a05160c05160e051611fce6102cd600039600081816102ee015261187701526000818161037d01526118a0015260008181610246015281816108ec0152818161174001526117ba01526000818161031f015281816104420152818161160401526116920152611fce6000f3fe6080604052600436106101cc5760003560e01c80637b0a47ee116100f757806398807d8411610095578063d547741f11610064578063d547741f146105e2578063ef4cadc514610602578063efa90b541461061e578063f2fde38b1461063457600080fd5b806398807d841461055c5780639d696e3614610589578063c5c8f7701461059f578063d0b06f5d146105cc57600080fd5b80638580cf76116100d15780638580cf76146104d35780638bb9c5bf146105075780638da5cb5b1461052757806391d148541461053c57600080fd5b80637b0a47ee1461049257806380faa57d146104a8578063817b1cd2146104bd57600080fd5b80632c9d0b801161016f5780634e71d92d1161013e5780634e71d92d146103bf5780634fc35859146103d4578063572b6c051461042557806375c93bb91461047f57600080fd5b80632c9d0b80146103435780632d1e0c02146103585780632d4c2f931461036b5780632f2ff15d1461039f57600080fd5b80630700037d116101ab5780630700037d1461028d5780630968f264146102ba5780632196e445146102dc5780632b4c9f161461031057600080fd5b80628cc262146101d157806301ffc9a7146102045780630479d64414610234575b600080fd5b3480156101dd57600080fd5b506101f16101ec366004611a96565b610654565b6040519081526020015b60405180910390f35b34801561021057600080fd5b5061022461021f366004611ab1565b6106eb565b60405190151581526020016101fb565b34801561024057600080fd5b506102687f000000000000000000000000000000000000000000000000000000000000000081565b60405173ffffffffffffffffffffffffffffffffffffffff90911681526020016101fb565b34801561029957600080fd5b506101f16102a8366004611a96565b60076020526000908152604090205481565b3480156102c657600080fd5b506102da6102d5366004611b3c565b6106ff565b005b3480156102e857600080fd5b506101f17f000000000000000000000000000000000000000000000000000000000000000081565b34801561031c57600080fd5b507f0000000000000000000000000000000000000000000000000000000000000000610268565b34801561034f57600080fd5b506101f161074a565b6102da610366366004611b3c565b6107b2565b34801561037757600080fd5b506102687f000000000000000000000000000000000000000000000000000000000000000081565b3480156103ab57600080fd5b506102da6103ba366004611b7e565b6107ed565b3480156103cb57600080fd5b506102da610821565b3480156103e057600080fd5b506103f46103ef366004611baa565b6108d2565b6040517fffffffff0000000000000000000000000000000000000000000000000000000090911681526020016101fb565b34801561043157600080fd5b50610224610440366004611a96565b7f000000000000000000000000000000000000000000000000000000000000000073ffffffffffffffffffffffffffffffffffffffff90811691161490565b6102da61048d366004611c19565b6109c5565b34801561049e57600080fd5b506101f160035481565b3480156104b457600080fd5b506101f1610c9f565b3480156104c957600080fd5b506101f160015481565b3480156104df57600080fd5b506101f17f726577617264657200000000000000000000000000000000000000000000000081565b34801561051357600080fd5b506102da610522366004611c3b565b610cb9565b34801561053357600080fd5b50610268610cd7565b34801561054857600080fd5b50610224610557366004611b7e565b610d03565b34801561056857600080fd5b506101f1610577366004611a96565b60066020526000908152604090205481565b34801561059557600080fd5b506101f160045481565b3480156105ab57600080fd5b506101f16105ba366004611a96565b60086020526000908152604090205481565b3480156105d857600080fd5b506101f160025481565b3480156105ee57600080fd5b506102da6105fd366004611b7e565b610d4e565b34801561060e57600080fd5b506101f1670de0b6b3a764000081565b34801561062a57600080fd5b506101f160055481565b34801561064057600080fd5b506102da61064f366004611a96565b610d7c565b73ffffffffffffffffffffffffffffffffffffffff81166000908152600760209081526040808320546008909252822054670de0b6b3a76400009061069761074a565b6106a19190611c83565b73ffffffffffffffffffffffffffffffffffffffff85166000908152600660205260409020546106d19190611c96565b6106db9190611cdc565b6106e59190611cf0565b92915050565b60006106e5826106f9610d97565b90610dc5565b61074661070a610e9f565b83838080601f016020809104026020016040519081016040528093929190818152602001838380828437600092019190915250610ea992505050565b5050565b60015460009080820361075f57505060045490565b80670de0b6b3a7640000600354600254610777610c9f565b6107819190611c83565b61078b9190611c96565b6107959190611c96565b61079f9190611cdc565b6004546107ac9190611cf0565b91505090565b60016107e86107bf610e9f565b8285856040516020016107d493929190611d03565b604051602081830303815290604052610f95565b505050565b60006107f7610e9f565b905061080b81610805611081565b906110af565b6107e883838361081961111a565b929190611148565b600061082b610e9f565b90506108368161121f565b600061084182610654565b905080156107465773ffffffffffffffffffffffffffffffffffffffff8216600090815260076020526040812081905561087b83836112ad565b90508273ffffffffffffffffffffffffffffffffffffffff167f4196decb55b5644a278b6ded1c42a27acb5182aa099b1fd48974bcc0cf263fd582846040516108c5929190611dc7565b60405180910390a2505050565b60003373ffffffffffffffffffffffffffffffffffffffff7f00000000000000000000000000000000000000000000000000000000000000001614610943576040517fc1ab6dc100000000000000000000000000000000000000000000000000000000815260040160405180910390fd5b600061099986828760405160200161095d91815260200190565b604080517fffffffffffffffffffffffffffffffffffffffffffffffffffffffffffffffe0818403018152908290526107d49291602001611de9565b507f4fc35859000000000000000000000000000000000000000000000000000000009695505050505050565b60006109cf610e9f565b9050610a057f7265776172646572000000000000000000000000000000000000000000000000826109fe61111a565b91906112b9565b82600003610a3f576040517f3853986500000000000000000000000000000000000000000000000000000000815260040160405180910390fd5b81600003610a79576040517f7616640100000000000000000000000000000000000000000000000000000000815260040160405180910390fd5b610a83600061121f565b60055460009081610a948542611cf0565b9050814210610b11576000610aa98688611cdc565b9050868682610af2576040517f99e66a49000000000000000000000000000000000000000000000000000000008152600481019290925260248201526044015b60405180910390fd5b50506003819055610b038688611e0c565b60058390559350610c3a9050565b818111610ba057610b224283611c83565b94506000610b308688611cdc565b9050868682610b74576040517f99e66a4900000000000000000000000000000000000000000000000000000000815260048101929092526024820152604401610ae9565b50508060036000828254610b889190611cf0565b90915550610b9890508688611e0c565b935050610c3a565b610baa8587611cdc565b86908690610bed576040517f99e66a4900000000000000000000000000000000000000000000000000000000815260048101929092526024820152604401610ae9565b5060009050610bfc4284611c83565b600354610c099190611c96565b90506000610c178883611cf0565b9050610c238782611cdc565b600355610c308782611e0c565b6005849055945050505b42600255604080518781526020810187905290810184905273ffffffffffffffffffffffffffffffffffffffff8516907f0727302becd070529b3293f4ec8f553d9f6ae1773f638598db1205fbf89080839060600160405180910390a2505050505050565b600554600090428111610cb257806107ac565b4291505090565b610cd4610cc4610e9f565b82610ccd61111a565b919061133f565b50565b6000610cfe610ce4611081565b5473ffffffffffffffffffffffffffffffffffffffff1690565b905090565b6000610d478383610d1261111a565b60009283526020908152604080842073ffffffffffffffffffffffffffffffffffffffff909316845291905290205460ff1690565b9392505050565b6000610d58610e9f565b9050610d6681610805611081565b6107e8838383610d7461111a565b9291906113e3565b610cd4610d87610e9f565b82610d90611081565b91906114ad565b6000806106e560017fca9d3e17f264b0f3984e2634e94adb37fa3e6a8103f06aeae6fa59e21c769f5e611c83565b60007c01000000000000000000000000000000000000000000000000000000007fffffffff00000000000000000000000000000000000000000000000000000000831601610e15575060006106e5565b7ffe003659000000000000000000000000000000000000000000000000000000007fffffffff00000000000000000000000000000000000000000000000000000000831601610e66575060016106e5565b507fffffffff00000000000000000000000000000000000000000000000000000000166000908152602091909152604090205460ff1690565b6000610cfe6115c1565b610eb28261121f565b6000610ebe838361170e565b905080600003610efa576040517fdb73cdf000000000000000000000000000000000000000000000000000000000815260040160405180910390fd5b8060016000828254610f0c9190611c83565b909155505073ffffffffffffffffffffffffffffffffffffffff831660009081526006602052604081208054839290610f46908490611c83565b925050819055508273ffffffffffffffffffffffffffffffffffffffff167faae638dec0d864ccb08558c28981bcfaee41330f57c4911cbe2d8432d0fb729e83836040516108c5929190611dc7565b610f9e8261121f565b6000610faa8383611767565b905080600003610fe6576040517f040ef8ec00000000000000000000000000000000000000000000000000000000815260040160405180910390fd5b8060016000828254610ff89190611cf0565b909155505073ffffffffffffffffffffffffffffffffffffffff831660009081526006602052604081208054839290611032908490611cf0565b925050819055508273ffffffffffffffffffffffffffffffffffffffff167ff4679d394f1f97f1a3df1d73e193866ec5a813168ad5fa6958f9be21b10a594e83836040516108c5929190611dc7565b6000806106e560017fc9ed16f33ab3a66c84bfd83099ccb2a8845871e2e1c1928f63797152f0fd54cd611c83565b815473ffffffffffffffffffffffffffffffffffffffff828116911614610746576040517f2ef4875e00000000000000000000000000000000000000000000000000000000815273ffffffffffffffffffffffffffffffffffffffff82166004820152602401610ae9565b6000806106e560017fc8827d3282af6f37b64c3e9e6f3ac9df286ab0bb0fccd6f8661bf19adb368b23611c83565b60008381526020858152604080832073ffffffffffffffffffffffffffffffffffffffff8616845290915290205460ff166112195760008381526020858152604080832073ffffffffffffffffffffffffffffffffffffffff8681168086529184529382902080547fffffffffffffffffffffffffffffffffffffffffffffffffffffffffffffff00166001179055815187815292830152918316918101919091527f2f8788117e7eff1d82e926ec794901d17c78024a50270940304540a733656f0d906060015b60405180910390a15b50505050565b61122761074a565b6004556005544210158061123c575060015415155b1561124d57611249610c9f565b6002555b73ffffffffffffffffffffffffffffffffffffffff811615610cd45761127281610654565b73ffffffffffffffffffffffffffffffffffffffff821660009081526007602090815260408083209390935560045460089091529190205550565b6060610d4783836117ea565b60008281526020848152604080832073ffffffffffffffffffffffffffffffffffffffff8516845290915290205460ff166107e8576040517f7aa728820000000000000000000000000000000000000000000000000000000081526004810183905273ffffffffffffffffffffffffffffffffffffffff82166024820152604401610ae9565b61134a8382846112b9565b60008181526020848152604080832073ffffffffffffffffffffffffffffffffffffffff86168085529083529281902080547fffffffffffffffffffffffffffffffffffffffffffffffffffffffffffffff0016905580518481529182018390528101919091527ff6391f5c32d9c69d2a47ea670b442974b53935d1edc7fd64eb21e047a839171b9060600160405180910390a1505050565b60008381526020858152604080832073ffffffffffffffffffffffffffffffffffffffff8616845290915290205460ff16156112195760008381526020858152604080832073ffffffffffffffffffffffffffffffffffffffff8681168086529184529382902080547fffffffffffffffffffffffffffffffffffffffffffffffffffffffffffffff00169055815187815292830152918316918101919091527ff6391f5c32d9c69d2a47ea670b442974b53935d1edc7fd64eb21e047a839171b90606001611210565b825473ffffffffffffffffffffffffffffffffffffffff908116908316811461151a576040517f2ef4875e00000000000000000000000000000000000000000000000000000000815273ffffffffffffffffffffffffffffffffffffffff84166004820152602401610ae9565b8173ffffffffffffffffffffffffffffffffffffffff168173ffffffffffffffffffffffffffffffffffffffff16146112195783547fffffffffffffffffffffffff00000000000000000000000000000000000000001673ffffffffffffffffffffffffffffffffffffffff8381169182178655604051908316907f8be0079c531659141344cd1fd0a4f28419497f9722a3daafe3b4186f6b6457e090600090a350505050565b6000333214806115d15750601836105b156115db57503390565b7fffffffffffffffffffffffffffffffffffffffffffffffffffffffffffffffec36013560601c7f000000000000000000000000000000000000000000000000000000000000000073ffffffffffffffffffffffffffffffffffffffff163314806116fd57506040517f019a202800000000000000000000000000000000000000000000000000000000815273ffffffffffffffffffffffffffffffffffffffff82811660048301523360248301523060448301527f0000000000000000000000000000000000000000000000000000000000000000169063019a202890606401602060405180830381865afa1580156116d9573d6000803e3d6000fd5b505050506040513d601f19601f820116820180604052508101906116fd9190611e30565b1561170757919050565b3391505090565b6000818060200190518101906117249190611e4b565b90506106e573ffffffffffffffffffffffffffffffffffffffff7f0000000000000000000000000000000000000000000000000000000000000000168483611902565b6000806000838060200190518101906117809190611e93565b91509150808060200190518101906117989190611e4b565b925081156117e2576117e273ffffffffffffffffffffffffffffffffffffffff7f000000000000000000000000000000000000000000000000000000000000000016863086611983565b505092915050565b6060816040516020016117ff91815260200190565b604080518083037fffffffffffffffffffffffffffffffffffffffffffffffffffffffffffffffe0018152908290527f26b3293f00000000000000000000000000000000000000000000000000000000825273ffffffffffffffffffffffffffffffffffffffff8581166004840152602483018590527f000000000000000000000000000000000000000000000000000000000000000060448401529092507f000000000000000000000000000000000000000000000000000000000000000016906326b3293f90606401600060405180830381600087803b1580156118e457600080fd5b505af11580156118f8573d6000803e3d6000fd5b5050505092915050565b60405173ffffffffffffffffffffffffffffffffffffffff8381166024830152604482018390526107e891859182169063a9059cbb906064015b604051602081830303815290604052915060e01b6020820180517bffffffffffffffffffffffffffffffffffffffffffffffffffffffff83818316178352505050506119c9565b60405173ffffffffffffffffffffffffffffffffffffffff84811660248301528381166044830152606482018390526112199186918216906323b872dd9060840161193c565b600080602060008451602086016000885af1806119ec576040513d6000823e3d81fd5b50506000513d91508115611a04578060011415611a1e565b73ffffffffffffffffffffffffffffffffffffffff84163b155b15611219576040517f5274afe700000000000000000000000000000000000000000000000000000000815273ffffffffffffffffffffffffffffffffffffffff85166004820152602401610ae9565b803573ffffffffffffffffffffffffffffffffffffffff81168114611a9157600080fd5b919050565b600060208284031215611aa857600080fd5b610d4782611a6d565b600060208284031215611ac357600080fd5b81357fffffffff0000000000000000000000000000000000000000000000000000000081168114610d4757600080fd5b60008083601f840112611b0557600080fd5b50813567ffffffffffffffff811115611b1d57600080fd5b602083019150836020828501011115611b3557600080fd5b9250929050565b60008060208385031215611b4f57600080fd5b823567ffffffffffffffff811115611b6657600080fd5b611b7285828601611af3565b90969095509350505050565b60008060408385031215611b9157600080fd5b82359150611ba160208401611a6d565b90509250929050565b600080600080600060808688031215611bc257600080fd5b611bcb86611a6d565b9450611bd960208701611a6d565b935060408601359250606086013567ffffffffffffffff811115611bfc57600080fd5b611c0888828901611af3565b969995985093965092949392505050565b60008060408385031215611c2c57600080fd5b50508035926020909101359150565b600060208284031215611c4d57600080fd5b5035919050565b7f4e487b7100000000000000000000000000000000000000000000000000000000600052601160045260246000fd5b818103818111156106e5576106e5611c54565b80820281158282048414176106e5576106e5611c54565b7f4e487b7100000000000000000000000000000000000000000000000000000000600052601260045260246000fd5b600082611ceb57611ceb611cad565b500490565b808201808211156106e5576106e5611c54565b831515815260406020820152816040820152818360608301376000818301606090810191909152601f9092017fffffffffffffffffffffffffffffffffffffffffffffffffffffffffffffffe016010192915050565b60005b83811015611d74578181015183820152602001611d5c565b50506000910152565b60008151808452611d95816020860160208601611d59565b601f017fffffffffffffffffffffffffffffffffffffffffffffffffffffffffffffffe0169290920160200192915050565b604081526000611dda6040830185611d7d565b90508260208301529392505050565b8215158152604060208201526000611e046040830184611d7d565b949350505050565b600082611e1b57611e1b611cad565b500690565b80518015158114611a9157600080fd5b600060208284031215611e4257600080fd5b610d4782611e20565b600060208284031215611e5d57600080fd5b5051919050565b7f4e487b7100000000000000000000000000000000000000000000000000000000600052604160045260246000fd5b60008060408385031215611ea657600080fd5b611eaf83611e20565b9150602083015167ffffffffffffffff811115611ecb57600080fd5b8301601f81018513611edc57600080fd5b805167ffffffffffffffff811115611ef657611ef6611e64565b6040517fffffffffffffffffffffffffffffffffffffffffffffffffffffffffffffffe0603f7fffffffffffffffffffffffffffffffffffffffffffffffffffffffffffffffe0601f8501160116810181811067ffffffffffffffff82111715611f6257611f62611e64565b604052818152828201602001871015611f7a57600080fd5b611f8b826020830160208601611d59565b809350505050925092905056fea26469706673582212208df611c883551c6a1cff0792d02ce7e88c6a7c3b8fa0ccfdb0cef41e4984126a64736f6c634300081c0033","opcodes":"PUSH2 0x100 PUSH1 0x40 MSTORE CALLVALUE DUP1 ISZERO PUSH2 0x11 JUMPI PUSH1 0x0 DUP1 REVERT JUMPDEST POP PUSH1 0x40 MLOAD PUSH2 0x229B CODESIZE SUB DUP1 PUSH2 0x229B DUP4 CODECOPY DUP2 ADD PUSH1 0x40 DUP2 SWAP1 MSTORE PUSH2 0x30 SWAP2 PUSH2 0x1E6 JUMP JUMPDEST DUP3 DUP3 DUP6 DUP4 DUP1 DUP1 DUP1 CALLER PUSH2 0x4A DUP2 PUSH2 0x44 PUSH2 0xA1 JUMP JUMPDEST SWAP1 PUSH2 0xD5 JUMP JUMPDEST POP PUSH1 0x1 PUSH1 0x0 DUP2 SWAP1 SSTORE PUSH1 0x1 PUSH1 0x1 PUSH1 0xA0 SHL SUB SWAP1 SWAP2 AND PUSH1 0x80 MSTORE PUSH2 0x7E SWAP3 POP PUSH4 0x4FC35859 PUSH1 0xE0 SHL SWAP2 POP PUSH2 0x77 PUSH2 0x144 JUMP JUMPDEST SWAP2 SWAP1 PUSH2 0x172 JUMP JUMPDEST POP PUSH1 0x1 PUSH1 0x1 PUSH1 0xA0 SHL SUB SWAP1 DUP2 AND PUSH1 0xA0 MSTORE SWAP2 SWAP1 SWAP2 AND PUSH1 0xC0 MSTORE PUSH1 0xE0 MSTORE POP PUSH2 0x25C SWAP3 POP POP POP JUMP JUMPDEST PUSH1 0x0 DUP1 PUSH2 0xCF PUSH1 0x1 PUSH32 0xC9ED16F33AB3A66C84BFD83099CCB2A8845871E2E1C1928F63797152F0FD54CD PUSH2 0x23B JUMP JUMPDEST SWAP3 SWAP2 POP POP JUMP JUMPDEST PUSH1 0x1 PUSH1 0x1 PUSH1 0xA0 SHL SUB DUP2 AND ISZERO PUSH2 0x12B JUMPI DUP2 SLOAD PUSH1 0x1 PUSH1 0x1 PUSH1 0xA0 SHL SUB NOT AND PUSH1 0x1 PUSH1 0x1 PUSH1 0xA0 SHL SUB DUP3 AND SWAP1 DUP2 OR DUP4 SSTORE PUSH1 0x40 MLOAD PUSH1 0x0 SWAP1 PUSH32 0x8BE0079C531659141344CD1FD0A4F28419497F9722A3DAAFE3B4186F6B6457E0 SWAP1 DUP3 SWAP1 LOG3 JUMPDEST PUSH2 0x140 PUSH4 0x7F5828D PUSH1 0xE4 SHL PUSH1 0x1 PUSH2 0x77 PUSH2 0x144 JUMP JUMPDEST POP POP JUMP JUMPDEST PUSH1 0x0 DUP1 PUSH2 0xCF PUSH1 0x1 PUSH32 0xCA9D3E17F264B0F3984E2634E94ADB37FA3E6A8103F06AEAE6FA59E21C769F5E PUSH2 0x23B JUMP JUMPDEST PUSH1 0x1 PUSH1 0xE0 SHL PUSH1 0x1 PUSH1 0x1 PUSH1 0xE0 SHL SUB NOT DUP4 AND ADD PUSH2 0x1A0 JUMPI PUSH1 0x40 MLOAD PUSH4 0x72C683BB PUSH1 0xE0 SHL DUP2 MSTORE PUSH1 0x4 ADD PUSH1 0x40 MLOAD DUP1 SWAP2 SUB SWAP1 REVERT JUMPDEST PUSH1 0x1 PUSH1 0x1 PUSH1 0xE0 SHL SUB NOT SWAP2 SWAP1 SWAP2 AND PUSH1 0x0 SWAP1 DUP2 MSTORE PUSH1 0x20 SWAP3 SWAP1 SWAP3 MSTORE PUSH1 0x40 SWAP1 SWAP2 KECCAK256 DUP1 SLOAD PUSH1 0xFF NOT AND SWAP2 ISZERO ISZERO SWAP2 SWAP1 SWAP2 OR SWAP1 SSTORE JUMP JUMPDEST PUSH1 0x1 PUSH1 0x1 PUSH1 0xA0 SHL SUB DUP2 AND DUP2 EQ PUSH2 0x1E3 JUMPI PUSH1 0x0 DUP1 REVERT JUMPDEST POP JUMP JUMPDEST PUSH1 0x0 DUP1 PUSH1 0x0 DUP1 PUSH1 0x80 DUP6 DUP8 SUB SLT ISZERO PUSH2 0x1FC JUMPI PUSH1 0x0 DUP1 REVERT JUMPDEST DUP5 MLOAD PUSH2 0x207 DUP2 PUSH2 0x1CE JUMP JUMPDEST PUSH1 0x20 DUP7 ADD MLOAD SWAP1 SWAP5 POP PUSH2 0x218 DUP2 PUSH2 0x1CE JUMP JUMPDEST PUSH1 0x40 DUP7 ADD MLOAD PUSH1 0x60 DUP8 ADD MLOAD SWAP2 SWAP5 POP SWAP3 POP PUSH2 0x230 DUP2 PUSH2 0x1CE JUMP JUMPDEST SWAP4 SWAP7 SWAP3 SWAP6 POP SWAP1 SWAP4 POP POP JUMP JUMPDEST DUP2 DUP2 SUB DUP2 DUP2 GT ISZERO PUSH2 0xCF JUMPI PUSH4 0x4E487B71 PUSH1 0xE0 SHL PUSH1 0x0 MSTORE PUSH1 0x11 PUSH1 0x4 MSTORE PUSH1 0x24 PUSH1 0x0 REVERT JUMPDEST PUSH1 0x80 MLOAD PUSH1 0xA0 MLOAD PUSH1 0xC0 MLOAD PUSH1 0xE0 MLOAD PUSH2 0x1FCE PUSH2 0x2CD PUSH1 0x0 CODECOPY PUSH1 0x0 DUP2 DUP2 PUSH2 0x2EE ADD MSTORE PUSH2 0x1877 ADD MSTORE PUSH1 0x0 DUP2 DUP2 PUSH2 0x37D ADD MSTORE PUSH2 0x18A0 ADD MSTORE PUSH1 0x0 DUP2 DUP2 PUSH2 0x246 ADD MSTORE DUP2 DUP2 PUSH2 0x8EC ADD MSTORE DUP2 DUP2 PUSH2 0x1740 ADD MSTORE PUSH2 0x17BA ADD MSTORE PUSH1 0x0 DUP2 DUP2 PUSH2 0x31F ADD MSTORE DUP2 DUP2 PUSH2 0x442 ADD MSTORE DUP2 DUP2 PUSH2 0x1604 ADD MSTORE PUSH2 0x1692 ADD MSTORE PUSH2 0x1FCE PUSH1 0x0 RETURN INVALID PUSH1 0x80 PUSH1 0x40 MSTORE PUSH1 0x4 CALLDATASIZE LT PUSH2 0x1CC JUMPI PUSH1 0x0 CALLDATALOAD PUSH1 0xE0 SHR DUP1 PUSH4 0x7B0A47EE GT PUSH2 0xF7 JUMPI DUP1 PUSH4 0x98807D84 GT PUSH2 0x95 JUMPI DUP1 PUSH4 0xD547741F GT PUSH2 0x64 JUMPI DUP1 PUSH4 0xD547741F EQ PUSH2 0x5E2 JUMPI DUP1 PUSH4 0xEF4CADC5 EQ PUSH2 0x602 JUMPI DUP1 PUSH4 0xEFA90B54 EQ PUSH2 0x61E JUMPI DUP1 PUSH4 0xF2FDE38B EQ PUSH2 0x634 JUMPI PUSH1 0x0 DUP1 REVERT JUMPDEST DUP1 PUSH4 0x98807D84 EQ PUSH2 0x55C JUMPI DUP1 PUSH4 0x9D696E36 EQ PUSH2 0x589 JUMPI DUP1 PUSH4 0xC5C8F770 EQ PUSH2 0x59F JUMPI DUP1 PUSH4 0xD0B06F5D EQ PUSH2 0x5CC JUMPI PUSH1 0x0 DUP1 REVERT JUMPDEST DUP1 PUSH4 0x8580CF76 GT PUSH2 0xD1 JUMPI DUP1 PUSH4 0x8580CF76 EQ PUSH2 0x4D3 JUMPI DUP1 PUSH4 0x8BB9C5BF EQ PUSH2 0x507 JUMPI DUP1 PUSH4 0x8DA5CB5B EQ PUSH2 0x527 JUMPI DUP1 PUSH4 0x91D14854 EQ PUSH2 0x53C JUMPI PUSH1 0x0 DUP1 REVERT JUMPDEST DUP1 PUSH4 0x7B0A47EE EQ PUSH2 0x492 JUMPI DUP1 PUSH4 0x80FAA57D EQ PUSH2 0x4A8 JUMPI DUP1 PUSH4 0x817B1CD2 EQ PUSH2 0x4BD JUMPI PUSH1 0x0 DUP1 REVERT JUMPDEST DUP1 PUSH4 0x2C9D0B80 GT PUSH2 0x16F JUMPI DUP1 PUSH4 0x4E71D92D GT PUSH2 0x13E JUMPI DUP1 PUSH4 0x4E71D92D EQ PUSH2 0x3BF JUMPI DUP1 PUSH4 0x4FC35859 EQ PUSH2 0x3D4 JUMPI DUP1 PUSH4 0x572B6C05 EQ PUSH2 0x425 JUMPI DUP1 PUSH4 0x75C93BB9 EQ PUSH2 0x47F JUMPI PUSH1 0x0 DUP1 REVERT JUMPDEST DUP1 PUSH4 0x2C9D0B80 EQ PUSH2 0x343 JUMPI DUP1 PUSH4 0x2D1E0C02 EQ PUSH2 0x358 JUMPI DUP1 PUSH4 0x2D4C2F93 EQ PUSH2 0x36B JUMPI DUP1 PUSH4 0x2F2FF15D EQ PUSH2 0x39F JUMPI PUSH1 0x0 DUP1 REVERT JUMPDEST DUP1 PUSH4 0x700037D GT PUSH2 0x1AB JUMPI DUP1 PUSH4 0x700037D EQ PUSH2 0x28D JUMPI DUP1 PUSH4 0x968F264 EQ PUSH2 0x2BA JUMPI DUP1 PUSH4 0x2196E445 EQ PUSH2 0x2DC JUMPI DUP1 PUSH4 0x2B4C9F16 EQ PUSH2 0x310 JUMPI PUSH1 0x0 DUP1 REVERT JUMPDEST DUP1 PUSH3 0x8CC262 EQ PUSH2 0x1D1 JUMPI DUP1 PUSH4 0x1FFC9A7 EQ PUSH2 0x204 JUMPI DUP1 PUSH4 0x479D644 EQ PUSH2 0x234 JUMPI JUMPDEST PUSH1 0x0 DUP1 REVERT JUMPDEST CALLVALUE DUP1 ISZERO PUSH2 0x1DD JUMPI PUSH1 0x0 DUP1 REVERT JUMPDEST POP PUSH2 0x1F1 PUSH2 0x1EC CALLDATASIZE PUSH1 0x4 PUSH2 0x1A96 JUMP JUMPDEST PUSH2 0x654 JUMP JUMPDEST PUSH1 0x40 MLOAD SWAP1 DUP2 MSTORE PUSH1 0x20 ADD JUMPDEST PUSH1 0x40 MLOAD DUP1 SWAP2 SUB SWAP1 RETURN JUMPDEST CALLVALUE DUP1 ISZERO PUSH2 0x210 JUMPI PUSH1 0x0 DUP1 REVERT JUMPDEST POP PUSH2 0x224 PUSH2 0x21F CALLDATASIZE PUSH1 0x4 PUSH2 0x1AB1 JUMP JUMPDEST PUSH2 0x6EB JUMP JUMPDEST PUSH1 0x40 MLOAD SWAP1 ISZERO ISZERO DUP2 MSTORE PUSH1 0x20 ADD PUSH2 0x1FB JUMP JUMPDEST CALLVALUE DUP1 ISZERO PUSH2 0x240 JUMPI PUSH1 0x0 DUP1 REVERT JUMPDEST POP PUSH2 0x268 PUSH32 0x0 DUP2 JUMP JUMPDEST PUSH1 0x40 MLOAD PUSH20 0xFFFFFFFFFFFFFFFFFFFFFFFFFFFFFFFFFFFFFFFF SWAP1 SWAP2 AND DUP2 MSTORE PUSH1 0x20 ADD PUSH2 0x1FB JUMP JUMPDEST CALLVALUE DUP1 ISZERO PUSH2 0x299 JUMPI PUSH1 0x0 DUP1 REVERT JUMPDEST POP PUSH2 0x1F1 PUSH2 0x2A8 CALLDATASIZE PUSH1 0x4 PUSH2 0x1A96 JUMP JUMPDEST PUSH1 0x7 PUSH1 0x20 MSTORE PUSH1 0x0 SWAP1 DUP2 MSTORE PUSH1 0x40 SWAP1 KECCAK256 SLOAD DUP2 JUMP JUMPDEST CALLVALUE DUP1 ISZERO PUSH2 0x2C6 JUMPI PUSH1 0x0 DUP1 REVERT JUMPDEST POP PUSH2 0x2DA PUSH2 0x2D5 CALLDATASIZE PUSH1 0x4 PUSH2 0x1B3C JUMP JUMPDEST PUSH2 0x6FF JUMP JUMPDEST STOP JUMPDEST CALLVALUE DUP1 ISZERO PUSH2 0x2E8 JUMPI PUSH1 0x0 DUP1 REVERT JUMPDEST POP PUSH2 0x1F1 PUSH32 0x0 DUP2 JUMP JUMPDEST CALLVALUE DUP1 ISZERO PUSH2 0x31C JUMPI PUSH1 0x0 DUP1 REVERT JUMPDEST POP PUSH32 0x0 PUSH2 0x268 JUMP JUMPDEST CALLVALUE DUP1 ISZERO PUSH2 0x34F JUMPI PUSH1 0x0 DUP1 REVERT JUMPDEST POP PUSH2 0x1F1 PUSH2 0x74A JUMP JUMPDEST PUSH2 0x2DA PUSH2 0x366 CALLDATASIZE PUSH1 0x4 PUSH2 0x1B3C JUMP JUMPDEST PUSH2 0x7B2 JUMP JUMPDEST CALLVALUE DUP1 ISZERO PUSH2 0x377 JUMPI PUSH1 0x0 DUP1 REVERT JUMPDEST POP PUSH2 0x268 PUSH32 0x0 DUP2 JUMP JUMPDEST CALLVALUE DUP1 ISZERO PUSH2 0x3AB JUMPI PUSH1 0x0 DUP1 REVERT JUMPDEST POP PUSH2 0x2DA PUSH2 0x3BA CALLDATASIZE PUSH1 0x4 PUSH2 0x1B7E JUMP JUMPDEST PUSH2 0x7ED JUMP JUMPDEST CALLVALUE DUP1 ISZERO PUSH2 0x3CB JUMPI PUSH1 0x0 DUP1 REVERT JUMPDEST POP PUSH2 0x2DA PUSH2 0x821 JUMP JUMPDEST CALLVALUE DUP1 ISZERO PUSH2 0x3E0 JUMPI PUSH1 0x0 DUP1 REVERT JUMPDEST POP PUSH2 0x3F4 PUSH2 0x3EF CALLDATASIZE PUSH1 0x4 PUSH2 0x1BAA JUMP JUMPDEST PUSH2 0x8D2 JUMP JUMPDEST PUSH1 0x40 MLOAD PUSH32 0xFFFFFFFF00000000000000000000000000000000000000000000000000000000 SWAP1 SWAP2 AND DUP2 MSTORE PUSH1 0x20 ADD PUSH2 0x1FB JUMP JUMPDEST CALLVALUE DUP1 ISZERO PUSH2 0x431 JUMPI PUSH1 0x0 DUP1 REVERT JUMPDEST POP PUSH2 0x224 PUSH2 0x440 CALLDATASIZE PUSH1 0x4 PUSH2 0x1A96 JUMP JUMPDEST PUSH32 0x0 PUSH20 0xFFFFFFFFFFFFFFFFFFFFFFFFFFFFFFFFFFFFFFFF SWAP1 DUP2 AND SWAP2 AND EQ SWAP1 JUMP JUMPDEST PUSH2 0x2DA PUSH2 0x48D CALLDATASIZE PUSH1 0x4 PUSH2 0x1C19 JUMP JUMPDEST PUSH2 0x9C5 JUMP JUMPDEST CALLVALUE DUP1 ISZERO PUSH2 0x49E JUMPI PUSH1 0x0 DUP1 REVERT JUMPDEST POP PUSH2 0x1F1 PUSH1 0x3 SLOAD DUP2 JUMP JUMPDEST CALLVALUE DUP1 ISZERO PUSH2 0x4B4 JUMPI PUSH1 0x0 DUP1 REVERT JUMPDEST POP PUSH2 0x1F1 PUSH2 0xC9F JUMP JUMPDEST CALLVALUE DUP1 ISZERO PUSH2 0x4C9 JUMPI PUSH1 0x0 DUP1 REVERT JUMPDEST POP PUSH2 0x1F1 PUSH1 0x1 SLOAD DUP2 JUMP JUMPDEST CALLVALUE DUP1 ISZERO PUSH2 0x4DF JUMPI PUSH1 0x0 DUP1 REVERT JUMPDEST POP PUSH2 0x1F1 PUSH32 0x7265776172646572000000000000000000000000000000000000000000000000 DUP2 JUMP JUMPDEST CALLVALUE DUP1 ISZERO PUSH2 0x513 JUMPI PUSH1 0x0 DUP1 REVERT JUMPDEST POP PUSH2 0x2DA PUSH2 0x522 CALLDATASIZE PUSH1 0x4 PUSH2 0x1C3B JUMP JUMPDEST PUSH2 0xCB9 JUMP JUMPDEST CALLVALUE DUP1 ISZERO PUSH2 0x533 JUMPI PUSH1 0x0 DUP1 REVERT JUMPDEST POP PUSH2 0x268 PUSH2 0xCD7 JUMP JUMPDEST CALLVALUE DUP1 ISZERO PUSH2 0x548 JUMPI PUSH1 0x0 DUP1 REVERT JUMPDEST POP PUSH2 0x224 PUSH2 0x557 CALLDATASIZE PUSH1 0x4 PUSH2 0x1B7E JUMP JUMPDEST PUSH2 0xD03 JUMP JUMPDEST CALLVALUE DUP1 ISZERO PUSH2 0x568 JUMPI PUSH1 0x0 DUP1 REVERT JUMPDEST POP PUSH2 0x1F1 PUSH2 0x577 CALLDATASIZE PUSH1 0x4 PUSH2 0x1A96 JUMP JUMPDEST PUSH1 0x6 PUSH1 0x20 MSTORE PUSH1 0x0 SWAP1 DUP2 MSTORE PUSH1 0x40 SWAP1 KECCAK256 SLOAD DUP2 JUMP JUMPDEST CALLVALUE DUP1 ISZERO PUSH2 0x595 JUMPI PUSH1 0x0 DUP1 REVERT JUMPDEST POP PUSH2 0x1F1 PUSH1 0x4 SLOAD DUP2 JUMP JUMPDEST CALLVALUE DUP1 ISZERO PUSH2 0x5AB JUMPI PUSH1 0x0 DUP1 REVERT JUMPDEST POP PUSH2 0x1F1 PUSH2 0x5BA CALLDATASIZE PUSH1 0x4 PUSH2 0x1A96 JUMP JUMPDEST PUSH1 0x8 PUSH1 0x20 MSTORE PUSH1 0x0 SWAP1 DUP2 MSTORE PUSH1 0x40 SWAP1 KECCAK256 SLOAD DUP2 JUMP JUMPDEST CALLVALUE DUP1 ISZERO PUSH2 0x5D8 JUMPI PUSH1 0x0 DUP1 REVERT JUMPDEST POP PUSH2 0x1F1 PUSH1 0x2 SLOAD DUP2 JUMP JUMPDEST CALLVALUE DUP1 ISZERO PUSH2 0x5EE JUMPI PUSH1 0x0 DUP1 REVERT JUMPDEST POP PUSH2 0x2DA PUSH2 0x5FD CALLDATASIZE PUSH1 0x4 PUSH2 0x1B7E JUMP JUMPDEST PUSH2 0xD4E JUMP JUMPDEST CALLVALUE DUP1 ISZERO PUSH2 0x60E JUMPI PUSH1 0x0 DUP1 REVERT JUMPDEST POP PUSH2 0x1F1 PUSH8 0xDE0B6B3A7640000 DUP2 JUMP JUMPDEST CALLVALUE DUP1 ISZERO PUSH2 0x62A JUMPI PUSH1 0x0 DUP1 REVERT JUMPDEST POP PUSH2 0x1F1 PUSH1 0x5 SLOAD DUP2 JUMP JUMPDEST CALLVALUE DUP1 ISZERO PUSH2 0x640 JUMPI PUSH1 0x0 DUP1 REVERT JUMPDEST POP PUSH2 0x2DA PUSH2 0x64F CALLDATASIZE PUSH1 0x4 PUSH2 0x1A96 JUMP JUMPDEST PUSH2 0xD7C JUMP JUMPDEST PUSH20 0xFFFFFFFFFFFFFFFFFFFFFFFFFFFFFFFFFFFFFFFF DUP2 AND PUSH1 0x0 SWAP1 DUP2 MSTORE PUSH1 0x7 PUSH1 0x20 SWAP1 DUP2 MSTORE PUSH1 0x40 DUP1 DUP4 KECCAK256 SLOAD PUSH1 0x8 SWAP1 SWAP3 MSTORE DUP3 KECCAK256 SLOAD PUSH8 0xDE0B6B3A7640000 SWAP1 PUSH2 0x697 PUSH2 0x74A JUMP JUMPDEST PUSH2 0x6A1 SWAP2 SWAP1 PUSH2 0x1C83 JUMP JUMPDEST PUSH20 0xFFFFFFFFFFFFFFFFFFFFFFFFFFFFFFFFFFFFFFFF DUP6 AND PUSH1 0x0 SWAP1 DUP2 MSTORE PUSH1 0x6 PUSH1 0x20 MSTORE PUSH1 0x40 SWAP1 KECCAK256 SLOAD PUSH2 0x6D1 SWAP2 SWAP1 PUSH2 0x1C96 JUMP JUMPDEST PUSH2 0x6DB SWAP2 SWAP1 PUSH2 0x1CDC JUMP JUMPDEST PUSH2 0x6E5 SWAP2 SWAP1 PUSH2 0x1CF0 JUMP JUMPDEST SWAP3 SWAP2 POP POP JUMP JUMPDEST PUSH1 0x0 PUSH2 0x6E5 DUP3 PUSH2 0x6F9 PUSH2 0xD97 JUMP JUMPDEST SWAP1 PUSH2 0xDC5 JUMP JUMPDEST PUSH2 0x746 PUSH2 0x70A PUSH2 0xE9F JUMP JUMPDEST DUP4 DUP4 DUP1 DUP1 PUSH1 0x1F ADD PUSH1 0x20 DUP1 SWAP2 DIV MUL PUSH1 0x20 ADD PUSH1 0x40 MLOAD SWAP1 DUP2 ADD PUSH1 0x40 MSTORE DUP1 SWAP4 SWAP3 SWAP2 SWAP1 DUP2 DUP2 MSTORE PUSH1 0x20 ADD DUP4 DUP4 DUP1 DUP3 DUP5 CALLDATACOPY PUSH1 0x0 SWAP3 ADD SWAP2 SWAP1 SWAP2 MSTORE POP PUSH2 0xEA9 SWAP3 POP POP POP JUMP JUMPDEST POP POP JUMP JUMPDEST PUSH1 0x1 SLOAD PUSH1 0x0 SWAP1 DUP1 DUP3 SUB PUSH2 0x75F JUMPI POP POP PUSH1 0x4 SLOAD SWAP1 JUMP JUMPDEST DUP1 PUSH8 0xDE0B6B3A7640000 PUSH1 0x3 SLOAD PUSH1 0x2 SLOAD PUSH2 0x777 PUSH2 0xC9F JUMP JUMPDEST PUSH2 0x781 SWAP2 SWAP1 PUSH2 0x1C83 JUMP JUMPDEST PUSH2 0x78B SWAP2 SWAP1 PUSH2 0x1C96 JUMP JUMPDEST PUSH2 0x795 SWAP2 SWAP1 PUSH2 0x1C96 JUMP JUMPDEST PUSH2 0x79F SWAP2 SWAP1 PUSH2 0x1CDC JUMP JUMPDEST PUSH1 0x4 SLOAD PUSH2 0x7AC SWAP2 SWAP1 PUSH2 0x1CF0 JUMP JUMPDEST SWAP2 POP POP SWAP1 JUMP JUMPDEST PUSH1 0x1 PUSH2 0x7E8 PUSH2 0x7BF PUSH2 0xE9F JUMP JUMPDEST DUP3 DUP6 DUP6 PUSH1 0x40 MLOAD PUSH1 0x20 ADD PUSH2 0x7D4 SWAP4 SWAP3 SWAP2 SWAP1 PUSH2 0x1D03 JUMP JUMPDEST PUSH1 0x40 MLOAD PUSH1 0x20 DUP2 DUP4 SUB SUB DUP2 MSTORE SWAP1 PUSH1 0x40 MSTORE PUSH2 0xF95 JUMP JUMPDEST POP POP POP JUMP JUMPDEST PUSH1 0x0 PUSH2 0x7F7 PUSH2 0xE9F JUMP JUMPDEST SWAP1 POP PUSH2 0x80B DUP2 PUSH2 0x805 PUSH2 0x1081 JUMP JUMPDEST SWAP1 PUSH2 0x10AF JUMP JUMPDEST PUSH2 0x7E8 DUP4 DUP4 DUP4 PUSH2 0x819 PUSH2 0x111A JUMP JUMPDEST SWAP3 SWAP2 SWAP1 PUSH2 0x1148 JUMP JUMPDEST PUSH1 0x0 PUSH2 0x82B PUSH2 0xE9F JUMP JUMPDEST SWAP1 POP PUSH2 0x836 DUP2 PUSH2 0x121F JUMP JUMPDEST PUSH1 0x0 PUSH2 0x841 DUP3 PUSH2 0x654 JUMP JUMPDEST SWAP1 POP DUP1 ISZERO PUSH2 0x746 JUMPI PUSH20 0xFFFFFFFFFFFFFFFFFFFFFFFFFFFFFFFFFFFFFFFF DUP3 AND PUSH1 0x0 SWAP1 DUP2 MSTORE PUSH1 0x7 PUSH1 0x20 MSTORE PUSH1 0x40 DUP2 KECCAK256 DUP2 SWAP1 SSTORE PUSH2 0x87B DUP4 DUP4 PUSH2 0x12AD JUMP JUMPDEST SWAP1 POP DUP3 PUSH20 0xFFFFFFFFFFFFFFFFFFFFFFFFFFFFFFFFFFFFFFFF AND PUSH32 0x4196DECB55B5644A278B6DED1C42A27ACB5182AA099B1FD48974BCC0CF263FD5 DUP3 DUP5 PUSH1 0x40 MLOAD PUSH2 0x8C5 SWAP3 SWAP2 SWAP1 PUSH2 0x1DC7 JUMP JUMPDEST PUSH1 0x40 MLOAD DUP1 SWAP2 SUB SWAP1 LOG2 POP POP POP JUMP JUMPDEST PUSH1 0x0 CALLER PUSH20 0xFFFFFFFFFFFFFFFFFFFFFFFFFFFFFFFFFFFFFFFF PUSH32 0x0 AND EQ PUSH2 0x943 JUMPI PUSH1 0x40 MLOAD PUSH32 0xC1AB6DC100000000000000000000000000000000000000000000000000000000 DUP2 MSTORE PUSH1 0x4 ADD PUSH1 0x40 MLOAD DUP1 SWAP2 SUB SWAP1 REVERT JUMPDEST PUSH1 0x0 PUSH2 0x999 DUP7 DUP3 DUP8 PUSH1 0x40 MLOAD PUSH1 0x20 ADD PUSH2 0x95D SWAP2 DUP2 MSTORE PUSH1 0x20 ADD SWAP1 JUMP JUMPDEST PUSH1 0x40 DUP1 MLOAD PUSH32 0xFFFFFFFFFFFFFFFFFFFFFFFFFFFFFFFFFFFFFFFFFFFFFFFFFFFFFFFFFFFFFFE0 DUP2 DUP5 SUB ADD DUP2 MSTORE SWAP1 DUP3 SWAP1 MSTORE PUSH2 0x7D4 SWAP3 SWAP2 PUSH1 0x20 ADD PUSH2 0x1DE9 JUMP JUMPDEST POP PUSH32 0x4FC3585900000000000000000000000000000000000000000000000000000000 SWAP7 SWAP6 POP POP POP POP POP POP JUMP JUMPDEST PUSH1 0x0 PUSH2 0x9CF PUSH2 0xE9F JUMP JUMPDEST SWAP1 POP PUSH2 0xA05 PUSH32 0x7265776172646572000000000000000000000000000000000000000000000000 DUP3 PUSH2 0x9FE PUSH2 0x111A JUMP JUMPDEST SWAP2 SWAP1 PUSH2 0x12B9 JUMP JUMPDEST DUP3 PUSH1 0x0 SUB PUSH2 0xA3F JUMPI PUSH1 0x40 MLOAD PUSH32 0x3853986500000000000000000000000000000000000000000000000000000000 DUP2 MSTORE PUSH1 0x4 ADD PUSH1 0x40 MLOAD DUP1 SWAP2 SUB SWAP1 REVERT JUMPDEST DUP2 PUSH1 0x0 SUB PUSH2 0xA79 JUMPI PUSH1 0x40 MLOAD PUSH32 0x7616640100000000000000000000000000000000000000000000000000000000 DUP2 MSTORE PUSH1 0x4 ADD PUSH1 0x40 MLOAD DUP1 SWAP2 SUB SWAP1 REVERT JUMPDEST PUSH2 0xA83 PUSH1 0x0 PUSH2 0x121F JUMP JUMPDEST PUSH1 0x5 SLOAD PUSH1 0x0 SWAP1 DUP2 PUSH2 0xA94 DUP6 TIMESTAMP PUSH2 0x1CF0 JUMP JUMPDEST SWAP1 POP DUP2 TIMESTAMP LT PUSH2 0xB11 JUMPI PUSH1 0x0 PUSH2 0xAA9 DUP7 DUP9 PUSH2 0x1CDC JUMP JUMPDEST SWAP1 POP DUP7 DUP7 DUP3 PUSH2 0xAF2 JUMPI PUSH1 0x40 MLOAD PUSH32 0x99E66A4900000000000000000000000000000000000000000000000000000000 DUP2 MSTORE PUSH1 0x4 DUP2 ADD SWAP3 SWAP1 SWAP3 MSTORE PUSH1 0x24 DUP3 ADD MSTORE PUSH1 0x44 ADD JUMPDEST PUSH1 0x40 MLOAD DUP1 SWAP2 SUB SWAP1 REVERT JUMPDEST POP POP PUSH1 0x3 DUP2 SWAP1 SSTORE PUSH2 0xB03 DUP7 DUP9 PUSH2 0x1E0C JUMP JUMPDEST PUSH1 0x5 DUP4 SWAP1 SSTORE SWAP4 POP PUSH2 0xC3A SWAP1 POP JUMP JUMPDEST DUP2 DUP2 GT PUSH2 0xBA0 JUMPI PUSH2 0xB22 TIMESTAMP DUP4 PUSH2 0x1C83 JUMP JUMPDEST SWAP5 POP PUSH1 0x0 PUSH2 0xB30 DUP7 DUP9 PUSH2 0x1CDC JUMP JUMPDEST SWAP1 POP DUP7 DUP7 DUP3 PUSH2 0xB74 JUMPI PUSH1 0x40 MLOAD PUSH32 0x99E66A4900000000000000000000000000000000000000000000000000000000 DUP2 MSTORE PUSH1 0x4 DUP2 ADD SWAP3 SWAP1 SWAP3 MSTORE PUSH1 0x24 DUP3 ADD MSTORE PUSH1 0x44 ADD PUSH2 0xAE9 JUMP JUMPDEST POP POP DUP1 PUSH1 0x3 PUSH1 0x0 DUP3 DUP3 SLOAD PUSH2 0xB88 SWAP2 SWAP1 PUSH2 0x1CF0 JUMP JUMPDEST SWAP1 SWAP2 SSTORE POP PUSH2 0xB98 SWAP1 POP DUP7 DUP9 PUSH2 0x1E0C JUMP JUMPDEST SWAP4 POP POP PUSH2 0xC3A JUMP JUMPDEST PUSH2 0xBAA DUP6 DUP8 PUSH2 0x1CDC JUMP JUMPDEST DUP7 SWAP1 DUP7 SWAP1 PUSH2 0xBED JUMPI PUSH1 0x40 MLOAD PUSH32 0x99E66A4900000000000000000000000000000000000000000000000000000000 DUP2 MSTORE PUSH1 0x4 DUP2 ADD SWAP3 SWAP1 SWAP3 MSTORE PUSH1 0x24 DUP3 ADD MSTORE PUSH1 0x44 ADD PUSH2 0xAE9 JUMP JUMPDEST POP PUSH1 0x0 SWAP1 POP PUSH2 0xBFC TIMESTAMP DUP5 PUSH2 0x1C83 JUMP JUMPDEST PUSH1 0x3 SLOAD PUSH2 0xC09 SWAP2 SWAP1 PUSH2 0x1C96 JUMP JUMPDEST SWAP1 POP PUSH1 0x0 PUSH2 0xC17 DUP9 DUP4 PUSH2 0x1CF0 JUMP JUMPDEST SWAP1 POP PUSH2 0xC23 DUP8 DUP3 PUSH2 0x1CDC JUMP JUMPDEST PUSH1 0x3 SSTORE PUSH2 0xC30 DUP8 DUP3 PUSH2 0x1E0C JUMP JUMPDEST PUSH1 0x5 DUP5 SWAP1 SSTORE SWAP5 POP POP POP JUMPDEST TIMESTAMP PUSH1 0x2 SSTORE PUSH1 0x40 DUP1 MLOAD DUP8 DUP2 MSTORE PUSH1 0x20 DUP2 ADD DUP8 SWAP1 MSTORE SWAP1 DUP2 ADD DUP5 SWAP1 MSTORE PUSH20 0xFFFFFFFFFFFFFFFFFFFFFFFFFFFFFFFFFFFFFFFF DUP6 AND SWAP1 PUSH32 0x727302BECD070529B3293F4EC8F553D9F6AE1773F638598DB1205FBF8908083 SWAP1 PUSH1 0x60 ADD PUSH1 0x40 MLOAD DUP1 SWAP2 SUB SWAP1 LOG2 POP POP POP POP POP POP JUMP JUMPDEST PUSH1 0x5 SLOAD PUSH1 0x0 SWAP1 TIMESTAMP DUP2 GT PUSH2 0xCB2 JUMPI DUP1 PUSH2 0x7AC JUMP JUMPDEST TIMESTAMP SWAP2 POP POP SWAP1 JUMP JUMPDEST PUSH2 0xCD4 PUSH2 0xCC4 PUSH2 0xE9F JUMP JUMPDEST DUP3 PUSH2 0xCCD PUSH2 0x111A JUMP JUMPDEST SWAP2 SWAP1 PUSH2 0x133F JUMP JUMPDEST POP JUMP JUMPDEST PUSH1 0x0 PUSH2 0xCFE PUSH2 0xCE4 PUSH2 0x1081 JUMP JUMPDEST SLOAD PUSH20 0xFFFFFFFFFFFFFFFFFFFFFFFFFFFFFFFFFFFFFFFF AND SWAP1 JUMP JUMPDEST SWAP1 POP SWAP1 JUMP JUMPDEST PUSH1 0x0 PUSH2 0xD47 DUP4 DUP4 PUSH2 0xD12 PUSH2 0x111A JUMP JUMPDEST PUSH1 0x0 SWAP3 DUP4 MSTORE PUSH1 0x20 SWAP1 DUP2 MSTORE PUSH1 0x40 DUP1 DUP5 KECCAK256 PUSH20 0xFFFFFFFFFFFFFFFFFFFFFFFFFFFFFFFFFFFFFFFF SWAP1 SWAP4 AND DUP5 MSTORE SWAP2 SWAP1 MSTORE SWAP1 KECCAK256 SLOAD PUSH1 0xFF AND SWAP1 JUMP JUMPDEST SWAP4 SWAP3 POP POP POP JUMP JUMPDEST PUSH1 0x0 PUSH2 0xD58 PUSH2 0xE9F JUMP JUMPDEST SWAP1 POP PUSH2 0xD66 DUP2 PUSH2 0x805 PUSH2 0x1081 JUMP JUMPDEST PUSH2 0x7E8 DUP4 DUP4 DUP4 PUSH2 0xD74 PUSH2 0x111A JUMP JUMPDEST SWAP3 SWAP2 SWAP1 PUSH2 0x13E3 JUMP JUMPDEST PUSH2 0xCD4 PUSH2 0xD87 PUSH2 0xE9F JUMP JUMPDEST DUP3 PUSH2 0xD90 PUSH2 0x1081 JUMP JUMPDEST SWAP2 SWAP1 PUSH2 0x14AD JUMP JUMPDEST PUSH1 0x0 DUP1 PUSH2 0x6E5 PUSH1 0x1 PUSH32 0xCA9D3E17F264B0F3984E2634E94ADB37FA3E6A8103F06AEAE6FA59E21C769F5E PUSH2 0x1C83 JUMP JUMPDEST PUSH1 0x0 PUSH29 0x100000000000000000000000000000000000000000000000000000000 PUSH32 0xFFFFFFFF00000000000000000000000000000000000000000000000000000000 DUP4 AND ADD PUSH2 0xE15 JUMPI POP PUSH1 0x0 PUSH2 0x6E5 JUMP JUMPDEST PUSH32 0xFE00365900000000000000000000000000000000000000000000000000000000 PUSH32 0xFFFFFFFF00000000000000000000000000000000000000000000000000000000 DUP4 AND ADD PUSH2 0xE66 JUMPI POP PUSH1 0x1 PUSH2 0x6E5 JUMP JUMPDEST POP PUSH32 0xFFFFFFFF00000000000000000000000000000000000000000000000000000000 AND PUSH1 0x0 SWAP1 DUP2 MSTORE PUSH1 0x20 SWAP2 SWAP1 SWAP2 MSTORE PUSH1 0x40 SWAP1 KECCAK256 SLOAD PUSH1 0xFF AND SWAP1 JUMP JUMPDEST PUSH1 0x0 PUSH2 0xCFE PUSH2 0x15C1 JUMP JUMPDEST PUSH2 0xEB2 DUP3 PUSH2 0x121F JUMP JUMPDEST PUSH1 0x0 PUSH2 0xEBE DUP4 DUP4 PUSH2 0x170E JUMP JUMPDEST SWAP1 POP DUP1 PUSH1 0x0 SUB PUSH2 0xEFA JUMPI PUSH1 0x40 MLOAD PUSH32 0xDB73CDF000000000000000000000000000000000000000000000000000000000 DUP2 MSTORE PUSH1 0x4 ADD PUSH1 0x40 MLOAD DUP1 SWAP2 SUB SWAP1 REVERT JUMPDEST DUP1 PUSH1 0x1 PUSH1 0x0 DUP3 DUP3 SLOAD PUSH2 0xF0C SWAP2 SWAP1 PUSH2 0x1C83 JUMP JUMPDEST SWAP1 SWAP2 SSTORE POP POP PUSH20 0xFFFFFFFFFFFFFFFFFFFFFFFFFFFFFFFFFFFFFFFF DUP4 AND PUSH1 0x0 SWAP1 DUP2 MSTORE PUSH1 0x6 PUSH1 0x20 MSTORE PUSH1 0x40 DUP2 KECCAK256 DUP1 SLOAD DUP4 SWAP3 SWAP1 PUSH2 0xF46 SWAP1 DUP5 SWAP1 PUSH2 0x1C83 JUMP JUMPDEST SWAP3 POP POP DUP2 SWAP1 SSTORE POP DUP3 PUSH20 0xFFFFFFFFFFFFFFFFFFFFFFFFFFFFFFFFFFFFFFFF AND PUSH32 0xAAE638DEC0D864CCB08558C28981BCFAEE41330F57C4911CBE2D8432D0FB729E DUP4 DUP4 PUSH1 0x40 MLOAD PUSH2 0x8C5 SWAP3 SWAP2 SWAP1 PUSH2 0x1DC7 JUMP JUMPDEST PUSH2 0xF9E DUP3 PUSH2 0x121F JUMP JUMPDEST PUSH1 0x0 PUSH2 0xFAA DUP4 DUP4 PUSH2 0x1767 JUMP JUMPDEST SWAP1 POP DUP1 PUSH1 0x0 SUB PUSH2 0xFE6 JUMPI PUSH1 0x40 MLOAD PUSH32 0x40EF8EC00000000000000000000000000000000000000000000000000000000 DUP2 MSTORE PUSH1 0x4 ADD PUSH1 0x40 MLOAD DUP1 SWAP2 SUB SWAP1 REVERT JUMPDEST DUP1 PUSH1 0x1 PUSH1 0x0 DUP3 DUP3 SLOAD PUSH2 0xFF8 SWAP2 SWAP1 PUSH2 0x1CF0 JUMP JUMPDEST SWAP1 SWAP2 SSTORE POP POP PUSH20 0xFFFFFFFFFFFFFFFFFFFFFFFFFFFFFFFFFFFFFFFF DUP4 AND PUSH1 0x0 SWAP1 DUP2 MSTORE PUSH1 0x6 PUSH1 0x20 MSTORE PUSH1 0x40 DUP2 KECCAK256 DUP1 SLOAD DUP4 SWAP3 SWAP1 PUSH2 0x1032 SWAP1 DUP5 SWAP1 PUSH2 0x1CF0 JUMP JUMPDEST SWAP3 POP POP DUP2 SWAP1 SSTORE POP DUP3 PUSH20 0xFFFFFFFFFFFFFFFFFFFFFFFFFFFFFFFFFFFFFFFF AND PUSH32 0xF4679D394F1F97F1A3DF1D73E193866EC5A813168AD5FA6958F9BE21B10A594E DUP4 DUP4 PUSH1 0x40 MLOAD PUSH2 0x8C5 SWAP3 SWAP2 SWAP1 PUSH2 0x1DC7 JUMP JUMPDEST PUSH1 0x0 DUP1 PUSH2 0x6E5 PUSH1 0x1 PUSH32 0xC9ED16F33AB3A66C84BFD83099CCB2A8845871E2E1C1928F63797152F0FD54CD PUSH2 0x1C83 JUMP JUMPDEST DUP2 SLOAD PUSH20 0xFFFFFFFFFFFFFFFFFFFFFFFFFFFFFFFFFFFFFFFF DUP3 DUP2 AND SWAP2 AND EQ PUSH2 0x746 JUMPI PUSH1 0x40 MLOAD PUSH32 0x2EF4875E00000000000000000000000000000000000000000000000000000000 DUP2 MSTORE PUSH20 0xFFFFFFFFFFFFFFFFFFFFFFFFFFFFFFFFFFFFFFFF DUP3 AND PUSH1 0x4 DUP3 ADD MSTORE PUSH1 0x24 ADD PUSH2 0xAE9 JUMP JUMPDEST PUSH1 0x0 DUP1 PUSH2 0x6E5 PUSH1 0x1 PUSH32 0xC8827D3282AF6F37B64C3E9E6F3AC9DF286AB0BB0FCCD6F8661BF19ADB368B23 PUSH2 0x1C83 JUMP JUMPDEST PUSH1 0x0 DUP4 DUP2 MSTORE PUSH1 0x20 DUP6 DUP2 MSTORE PUSH1 0x40 DUP1 DUP4 KECCAK256 PUSH20 0xFFFFFFFFFFFFFFFFFFFFFFFFFFFFFFFFFFFFFFFF DUP7 AND DUP5 MSTORE SWAP1 SWAP2 MSTORE SWAP1 KECCAK256 SLOAD PUSH1 0xFF AND PUSH2 0x1219 JUMPI PUSH1 0x0 DUP4 DUP2 MSTORE PUSH1 0x20 DUP6 DUP2 MSTORE PUSH1 0x40 DUP1 DUP4 KECCAK256 PUSH20 0xFFFFFFFFFFFFFFFFFFFFFFFFFFFFFFFFFFFFFFFF DUP7 DUP2 AND DUP1 DUP7 MSTORE SWAP2 DUP5 MSTORE SWAP4 DUP3 SWAP1 KECCAK256 DUP1 SLOAD PUSH32 0xFFFFFFFFFFFFFFFFFFFFFFFFFFFFFFFFFFFFFFFFFFFFFFFFFFFFFFFFFFFFFF00 AND PUSH1 0x1 OR SWAP1 SSTORE DUP2 MLOAD DUP8 DUP2 MSTORE SWAP3 DUP4 ADD MSTORE SWAP2 DUP4 AND SWAP2 DUP2 ADD SWAP2 SWAP1 SWAP2 MSTORE PUSH32 0x2F8788117E7EFF1D82E926EC794901D17C78024A50270940304540A733656F0D SWAP1 PUSH1 0x60 ADD JUMPDEST PUSH1 0x40 MLOAD DUP1 SWAP2 SUB SWAP1 LOG1 JUMPDEST POP POP POP POP JUMP JUMPDEST PUSH2 0x1227 PUSH2 0x74A JUMP JUMPDEST PUSH1 0x4 SSTORE PUSH1 0x5 SLOAD TIMESTAMP LT ISZERO DUP1 PUSH2 0x123C JUMPI POP PUSH1 0x1 SLOAD ISZERO ISZERO JUMPDEST ISZERO PUSH2 0x124D JUMPI PUSH2 0x1249 PUSH2 0xC9F JUMP JUMPDEST PUSH1 0x2 SSTORE JUMPDEST PUSH20 0xFFFFFFFFFFFFFFFFFFFFFFFFFFFFFFFFFFFFFFFF DUP2 AND ISZERO PUSH2 0xCD4 JUMPI PUSH2 0x1272 DUP2 PUSH2 0x654 JUMP JUMPDEST PUSH20 0xFFFFFFFFFFFFFFFFFFFFFFFFFFFFFFFFFFFFFFFF DUP3 AND PUSH1 0x0 SWAP1 DUP2 MSTORE PUSH1 0x7 PUSH1 0x20 SWAP1 DUP2 MSTORE PUSH1 0x40 DUP1 DUP4 KECCAK256 SWAP4 SWAP1 SWAP4 SSTORE PUSH1 0x4 SLOAD PUSH1 0x8 SWAP1 SWAP2 MSTORE SWAP2 SWAP1 KECCAK256 SSTORE POP JUMP JUMPDEST PUSH1 0x60 PUSH2 0xD47 DUP4 DUP4 PUSH2 0x17EA JUMP JUMPDEST PUSH1 0x0 DUP3 DUP2 MSTORE PUSH1 0x20 DUP5 DUP2 MSTORE PUSH1 0x40 DUP1 DUP4 KECCAK256 PUSH20 0xFFFFFFFFFFFFFFFFFFFFFFFFFFFFFFFFFFFFFFFF DUP6 AND DUP5 MSTORE SWAP1 SWAP2 MSTORE SWAP1 KECCAK256 SLOAD PUSH1 0xFF AND PUSH2 0x7E8 JUMPI PUSH1 0x40 MLOAD PUSH32 0x7AA7288200000000000000000000000000000000000000000000000000000000 DUP2 MSTORE PUSH1 0x4 DUP2 ADD DUP4 SWAP1 MSTORE PUSH20 0xFFFFFFFFFFFFFFFFFFFFFFFFFFFFFFFFFFFFFFFF DUP3 AND PUSH1 0x24 DUP3 ADD MSTORE PUSH1 0x44 ADD PUSH2 0xAE9 JUMP JUMPDEST PUSH2 0x134A DUP4 DUP3 DUP5 PUSH2 0x12B9 JUMP JUMPDEST PUSH1 0x0 DUP2 DUP2 MSTORE PUSH1 0x20 DUP5 DUP2 MSTORE PUSH1 0x40 DUP1 DUP4 KECCAK256 PUSH20 0xFFFFFFFFFFFFFFFFFFFFFFFFFFFFFFFFFFFFFFFF DUP7 AND DUP1 DUP6 MSTORE SWAP1 DUP4 MSTORE SWAP3 DUP2 SWAP1 KECCAK256 DUP1 SLOAD PUSH32 0xFFFFFFFFFFFFFFFFFFFFFFFFFFFFFFFFFFFFFFFFFFFFFFFFFFFFFFFFFFFFFF00 AND SWAP1 SSTORE DUP1 MLOAD DUP5 DUP2 MSTORE SWAP2 DUP3 ADD DUP4 SWAP1 MSTORE DUP2 ADD SWAP2 SWAP1 SWAP2 MSTORE PUSH32 0xF6391F5C32D9C69D2A47EA670B442974B53935D1EDC7FD64EB21E047A839171B SWAP1 PUSH1 0x60 ADD PUSH1 0x40 MLOAD DUP1 SWAP2 SUB SWAP1 LOG1 POP POP POP JUMP JUMPDEST PUSH1 0x0 DUP4 DUP2 MSTORE PUSH1 0x20 DUP6 DUP2 MSTORE PUSH1 0x40 DUP1 DUP4 KECCAK256 PUSH20 0xFFFFFFFFFFFFFFFFFFFFFFFFFFFFFFFFFFFFFFFF DUP7 AND DUP5 MSTORE SWAP1 SWAP2 MSTORE SWAP1 KECCAK256 SLOAD PUSH1 0xFF AND ISZERO PUSH2 0x1219 JUMPI PUSH1 0x0 DUP4 DUP2 MSTORE PUSH1 0x20 DUP6 DUP2 MSTORE PUSH1 0x40 DUP1 DUP4 KECCAK256 PUSH20 0xFFFFFFFFFFFFFFFFFFFFFFFFFFFFFFFFFFFFFFFF DUP7 DUP2 AND DUP1 DUP7 MSTORE SWAP2 DUP5 MSTORE SWAP4 DUP3 SWAP1 KECCAK256 DUP1 SLOAD PUSH32 0xFFFFFFFFFFFFFFFFFFFFFFFFFFFFFFFFFFFFFFFFFFFFFFFFFFFFFFFFFFFFFF00 AND SWAP1 SSTORE DUP2 MLOAD DUP8 DUP2 MSTORE SWAP3 DUP4 ADD MSTORE SWAP2 DUP4 AND SWAP2 DUP2 ADD SWAP2 SWAP1 SWAP2 MSTORE PUSH32 0xF6391F5C32D9C69D2A47EA670B442974B53935D1EDC7FD64EB21E047A839171B SWAP1 PUSH1 0x60 ADD PUSH2 0x1210 JUMP JUMPDEST DUP3 SLOAD PUSH20 0xFFFFFFFFFFFFFFFFFFFFFFFFFFFFFFFFFFFFFFFF SWAP1 DUP2 AND SWAP1 DUP4 AND DUP2 EQ PUSH2 0x151A JUMPI PUSH1 0x40 MLOAD PUSH32 0x2EF4875E00000000000000000000000000000000000000000000000000000000 DUP2 MSTORE PUSH20 0xFFFFFFFFFFFFFFFFFFFFFFFFFFFFFFFFFFFFFFFF DUP5 AND PUSH1 0x4 DUP3 ADD MSTORE PUSH1 0x24 ADD PUSH2 0xAE9 JUMP JUMPDEST DUP2 PUSH20 0xFFFFFFFFFFFFFFFFFFFFFFFFFFFFFFFFFFFFFFFF AND DUP2 PUSH20 0xFFFFFFFFFFFFFFFFFFFFFFFFFFFFFFFFFFFFFFFF AND EQ PUSH2 0x1219 JUMPI DUP4 SLOAD PUSH32 0xFFFFFFFFFFFFFFFFFFFFFFFF0000000000000000000000000000000000000000 AND PUSH20 0xFFFFFFFFFFFFFFFFFFFFFFFFFFFFFFFFFFFFFFFF DUP4 DUP2 AND SWAP2 DUP3 OR DUP7 SSTORE PUSH1 0x40 MLOAD SWAP1 DUP4 AND SWAP1 PUSH32 0x8BE0079C531659141344CD1FD0A4F28419497F9722A3DAAFE3B4186F6B6457E0 SWAP1 PUSH1 0x0 SWAP1 LOG3 POP POP POP POP JUMP JUMPDEST PUSH1 0x0 CALLER ORIGIN EQ DUP1 PUSH2 0x15D1 JUMPI POP PUSH1 0x18 CALLDATASIZE LT JUMPDEST ISZERO PUSH2 0x15DB JUMPI POP CALLER SWAP1 JUMP JUMPDEST PUSH32 0xFFFFFFFFFFFFFFFFFFFFFFFFFFFFFFFFFFFFFFFFFFFFFFFFFFFFFFFFFFFFFFEC CALLDATASIZE ADD CALLDATALOAD PUSH1 0x60 SHR PUSH32 0x0 PUSH20 0xFFFFFFFFFFFFFFFFFFFFFFFFFFFFFFFFFFFFFFFF AND CALLER EQ DUP1 PUSH2 0x16FD JUMPI POP PUSH1 0x40 MLOAD PUSH32 0x19A202800000000000000000000000000000000000000000000000000000000 DUP2 MSTORE PUSH20 0xFFFFFFFFFFFFFFFFFFFFFFFFFFFFFFFFFFFFFFFF DUP3 DUP2 AND PUSH1 0x4 DUP4 ADD MSTORE CALLER PUSH1 0x24 DUP4 ADD MSTORE ADDRESS PUSH1 0x44 DUP4 ADD MSTORE PUSH32 0x0 AND SWAP1 PUSH4 0x19A2028 SWAP1 PUSH1 0x64 ADD PUSH1 0x20 PUSH1 0x40 MLOAD DUP1 DUP4 SUB DUP2 DUP7 GAS STATICCALL ISZERO DUP1 ISZERO PUSH2 0x16D9 JUMPI RETURNDATASIZE PUSH1 0x0 DUP1 RETURNDATACOPY RETURNDATASIZE PUSH1 0x0 REVERT JUMPDEST POP POP POP POP PUSH1 0x40 MLOAD RETURNDATASIZE PUSH1 0x1F NOT PUSH1 0x1F DUP3 ADD AND DUP3 ADD DUP1 PUSH1 0x40 MSTORE POP DUP2 ADD SWAP1 PUSH2 0x16FD SWAP2 SWAP1 PUSH2 0x1E30 JUMP JUMPDEST ISZERO PUSH2 0x1707 JUMPI SWAP2 SWAP1 POP JUMP JUMPDEST CALLER SWAP2 POP POP SWAP1 JUMP JUMPDEST PUSH1 0x0 DUP2 DUP1 PUSH1 0x20 ADD SWAP1 MLOAD DUP2 ADD SWAP1 PUSH2 0x1724 SWAP2 SWAP1 PUSH2 0x1E4B JUMP JUMPDEST SWAP1 POP PUSH2 0x6E5 PUSH20 0xFFFFFFFFFFFFFFFFFFFFFFFFFFFFFFFFFFFFFFFF PUSH32 0x0 AND DUP5 DUP4 PUSH2 0x1902 JUMP JUMPDEST PUSH1 0x0 DUP1 PUSH1 0x0 DUP4 DUP1 PUSH1 0x20 ADD SWAP1 MLOAD DUP2 ADD SWAP1 PUSH2 0x1780 SWAP2 SWAP1 PUSH2 0x1E93 JUMP JUMPDEST SWAP2 POP SWAP2 POP DUP1 DUP1 PUSH1 0x20 ADD SWAP1 MLOAD DUP2 ADD SWAP1 PUSH2 0x1798 SWAP2 SWAP1 PUSH2 0x1E4B JUMP JUMPDEST SWAP3 POP DUP2 ISZERO PUSH2 0x17E2 JUMPI PUSH2 0x17E2 PUSH20 0xFFFFFFFFFFFFFFFFFFFFFFFFFFFFFFFFFFFFFFFF PUSH32 0x0 AND DUP7 ADDRESS DUP7 PUSH2 0x1983 JUMP JUMPDEST POP POP SWAP3 SWAP2 POP POP JUMP JUMPDEST PUSH1 0x60 DUP2 PUSH1 0x40 MLOAD PUSH1 0x20 ADD PUSH2 0x17FF SWAP2 DUP2 MSTORE PUSH1 0x20 ADD SWAP1 JUMP JUMPDEST PUSH1 0x40 DUP1 MLOAD DUP1 DUP4 SUB PUSH32 0xFFFFFFFFFFFFFFFFFFFFFFFFFFFFFFFFFFFFFFFFFFFFFFFFFFFFFFFFFFFFFFE0 ADD DUP2 MSTORE SWAP1 DUP3 SWAP1 MSTORE PUSH32 0x26B3293F00000000000000000000000000000000000000000000000000000000 DUP3 MSTORE PUSH20 0xFFFFFFFFFFFFFFFFFFFFFFFFFFFFFFFFFFFFFFFF DUP6 DUP2 AND PUSH1 0x4 DUP5 ADD MSTORE PUSH1 0x24 DUP4 ADD DUP6 SWAP1 MSTORE PUSH32 0x0 PUSH1 0x44 DUP5 ADD MSTORE SWAP1 SWAP3 POP PUSH32 0x0 AND SWAP1 PUSH4 0x26B3293F SWAP1 PUSH1 0x64 ADD PUSH1 0x0 PUSH1 0x40 MLOAD DUP1 DUP4 SUB DUP2 PUSH1 0x0 DUP8 DUP1 EXTCODESIZE ISZERO DUP1 ISZERO PUSH2 0x18E4 JUMPI PUSH1 0x0 DUP1 REVERT JUMPDEST POP GAS CALL ISZERO DUP1 ISZERO PUSH2 0x18F8 JUMPI RETURNDATASIZE PUSH1 0x0 DUP1 RETURNDATACOPY RETURNDATASIZE PUSH1 0x0 REVERT JUMPDEST POP POP POP POP SWAP3 SWAP2 POP POP JUMP JUMPDEST PUSH1 0x40 MLOAD PUSH20 0xFFFFFFFFFFFFFFFFFFFFFFFFFFFFFFFFFFFFFFFF DUP4 DUP2 AND PUSH1 0x24 DUP4 ADD MSTORE PUSH1 0x44 DUP3 ADD DUP4 SWAP1 MSTORE PUSH2 0x7E8 SWAP2 DUP6 SWAP2 DUP3 AND SWAP1 PUSH4 0xA9059CBB SWAP1 PUSH1 0x64 ADD JUMPDEST PUSH1 0x40 MLOAD PUSH1 0x20 DUP2 DUP4 SUB SUB DUP2 MSTORE SWAP1 PUSH1 0x40 MSTORE SWAP2 POP PUSH1 0xE0 SHL PUSH1 0x20 DUP3 ADD DUP1 MLOAD PUSH28 0xFFFFFFFFFFFFFFFFFFFFFFFFFFFFFFFFFFFFFFFFFFFFFFFFFFFFFFFF DUP4 DUP2 DUP4 AND OR DUP4 MSTORE POP POP POP POP PUSH2 0x19C9 JUMP JUMPDEST PUSH1 0x40 MLOAD PUSH20 0xFFFFFFFFFFFFFFFFFFFFFFFFFFFFFFFFFFFFFFFF DUP5 DUP2 AND PUSH1 0x24 DUP4 ADD MSTORE DUP4 DUP2 AND PUSH1 0x44 DUP4 ADD MSTORE PUSH1 0x64 DUP3 ADD DUP4 SWAP1 MSTORE PUSH2 0x1219 SWAP2 DUP7 SWAP2 DUP3 AND SWAP1 PUSH4 0x23B872DD SWAP1 PUSH1 0x84 ADD PUSH2 0x193C JUMP JUMPDEST PUSH1 0x0 DUP1 PUSH1 0x20 PUSH1 0x0 DUP5 MLOAD PUSH1 0x20 DUP7 ADD PUSH1 0x0 DUP9 GAS CALL DUP1 PUSH2 0x19EC JUMPI PUSH1 0x40 MLOAD RETURNDATASIZE PUSH1 0x0 DUP3 RETURNDATACOPY RETURNDATASIZE DUP2 REVERT JUMPDEST POP POP PUSH1 0x0 MLOAD RETURNDATASIZE SWAP2 POP DUP2 ISZERO PUSH2 0x1A04 JUMPI DUP1 PUSH1 0x1 EQ ISZERO PUSH2 0x1A1E JUMP JUMPDEST PUSH20 0xFFFFFFFFFFFFFFFFFFFFFFFFFFFFFFFFFFFFFFFF DUP5 AND EXTCODESIZE ISZERO JUMPDEST ISZERO PUSH2 0x1219 JUMPI PUSH1 0x40 MLOAD PUSH32 0x5274AFE700000000000000000000000000000000000000000000000000000000 DUP2 MSTORE PUSH20 0xFFFFFFFFFFFFFFFFFFFFFFFFFFFFFFFFFFFFFFFF DUP6 AND PUSH1 0x4 DUP3 ADD MSTORE PUSH1 0x24 ADD PUSH2 0xAE9 JUMP JUMPDEST DUP1 CALLDATALOAD PUSH20 0xFFFFFFFFFFFFFFFFFFFFFFFFFFFFFFFFFFFFFFFF DUP2 AND DUP2 EQ PUSH2 0x1A91 JUMPI PUSH1 0x0 DUP1 REVERT JUMPDEST SWAP2 SWAP1 POP JUMP JUMPDEST PUSH1 0x0 PUSH1 0x20 DUP3 DUP5 SUB SLT ISZERO PUSH2 0x1AA8 JUMPI PUSH1 0x0 DUP1 REVERT JUMPDEST PUSH2 0xD47 DUP3 PUSH2 0x1A6D JUMP JUMPDEST PUSH1 0x0 PUSH1 0x20 DUP3 DUP5 SUB SLT ISZERO PUSH2 0x1AC3 JUMPI PUSH1 0x0 DUP1 REVERT JUMPDEST DUP2 CALLDATALOAD PUSH32 0xFFFFFFFF00000000000000000000000000000000000000000000000000000000 DUP2 AND DUP2 EQ PUSH2 0xD47 JUMPI PUSH1 0x0 DUP1 REVERT JUMPDEST PUSH1 0x0 DUP1 DUP4 PUSH1 0x1F DUP5 ADD SLT PUSH2 0x1B05 JUMPI PUSH1 0x0 DUP1 REVERT JUMPDEST POP DUP2 CALLDATALOAD PUSH8 0xFFFFFFFFFFFFFFFF DUP2 GT ISZERO PUSH2 0x1B1D JUMPI PUSH1 0x0 DUP1 REVERT JUMPDEST PUSH1 0x20 DUP4 ADD SWAP2 POP DUP4 PUSH1 0x20 DUP3 DUP6 ADD ADD GT ISZERO PUSH2 0x1B35 JUMPI PUSH1 0x0 DUP1 REVERT JUMPDEST SWAP3 POP SWAP3 SWAP1 POP JUMP JUMPDEST PUSH1 0x0 DUP1 PUSH1 0x20 DUP4 DUP6 SUB SLT ISZERO PUSH2 0x1B4F JUMPI PUSH1 0x0 DUP1 REVERT JUMPDEST DUP3 CALLDATALOAD PUSH8 0xFFFFFFFFFFFFFFFF DUP2 GT ISZERO PUSH2 0x1B66 JUMPI PUSH1 0x0 DUP1 REVERT JUMPDEST PUSH2 0x1B72 DUP6 DUP3 DUP7 ADD PUSH2 0x1AF3 JUMP JUMPDEST SWAP1 SWAP7 SWAP1 SWAP6 POP SWAP4 POP POP POP POP JUMP JUMPDEST PUSH1 0x0 DUP1 PUSH1 0x40 DUP4 DUP6 SUB SLT ISZERO PUSH2 0x1B91 JUMPI PUSH1 0x0 DUP1 REVERT JUMPDEST DUP3 CALLDATALOAD SWAP2 POP PUSH2 0x1BA1 PUSH1 0x20 DUP5 ADD PUSH2 0x1A6D JUMP JUMPDEST SWAP1 POP SWAP3 POP SWAP3 SWAP1 POP JUMP JUMPDEST PUSH1 0x0 DUP1 PUSH1 0x0 DUP1 PUSH1 0x0 PUSH1 0x80 DUP7 DUP9 SUB SLT ISZERO PUSH2 0x1BC2 JUMPI PUSH1 0x0 DUP1 REVERT JUMPDEST PUSH2 0x1BCB DUP7 PUSH2 0x1A6D JUMP JUMPDEST SWAP5 POP PUSH2 0x1BD9 PUSH1 0x20 DUP8 ADD PUSH2 0x1A6D JUMP JUMPDEST SWAP4 POP PUSH1 0x40 DUP7 ADD CALLDATALOAD SWAP3 POP PUSH1 0x60 DUP7 ADD CALLDATALOAD PUSH8 0xFFFFFFFFFFFFFFFF DUP2 GT ISZERO PUSH2 0x1BFC JUMPI PUSH1 0x0 DUP1 REVERT JUMPDEST PUSH2 0x1C08 DUP9 DUP3 DUP10 ADD PUSH2 0x1AF3 JUMP JUMPDEST SWAP7 SWAP10 SWAP6 SWAP9 POP SWAP4 SWAP7 POP SWAP3 SWAP5 SWAP4 SWAP3 POP POP POP JUMP JUMPDEST PUSH1 0x0 DUP1 PUSH1 0x40 DUP4 DUP6 SUB SLT ISZERO PUSH2 0x1C2C JUMPI PUSH1 0x0 DUP1 REVERT JUMPDEST POP POP DUP1 CALLDATALOAD SWAP3 PUSH1 0x20 SWAP1 SWAP2 ADD CALLDATALOAD SWAP2 POP JUMP JUMPDEST PUSH1 0x0 PUSH1 0x20 DUP3 DUP5 SUB SLT ISZERO PUSH2 0x1C4D JUMPI PUSH1 0x0 DUP1 REVERT JUMPDEST POP CALLDATALOAD SWAP2 SWAP1 POP JUMP JUMPDEST PUSH32 0x4E487B7100000000000000000000000000000000000000000000000000000000 PUSH1 0x0 MSTORE PUSH1 0x11 PUSH1 0x4 MSTORE PUSH1 0x24 PUSH1 0x0 REVERT JUMPDEST DUP2 DUP2 SUB DUP2 DUP2 GT ISZERO PUSH2 0x6E5 JUMPI PUSH2 0x6E5 PUSH2 0x1C54 JUMP JUMPDEST DUP1 DUP3 MUL DUP2 ISZERO DUP3 DUP3 DIV DUP5 EQ OR PUSH2 0x6E5 JUMPI PUSH2 0x6E5 PUSH2 0x1C54 JUMP JUMPDEST PUSH32 0x4E487B7100000000000000000000000000000000000000000000000000000000 PUSH1 0x0 MSTORE PUSH1 0x12 PUSH1 0x4 MSTORE PUSH1 0x24 PUSH1 0x0 REVERT JUMPDEST PUSH1 0x0 DUP3 PUSH2 0x1CEB JUMPI PUSH2 0x1CEB PUSH2 0x1CAD JUMP JUMPDEST POP DIV SWAP1 JUMP JUMPDEST DUP1 DUP3 ADD DUP1 DUP3 GT ISZERO PUSH2 0x6E5 JUMPI PUSH2 0x6E5 PUSH2 0x1C54 JUMP JUMPDEST DUP4 ISZERO ISZERO DUP2 MSTORE PUSH1 0x40 PUSH1 0x20 DUP3 ADD MSTORE DUP2 PUSH1 0x40 DUP3 ADD MSTORE DUP2 DUP4 PUSH1 0x60 DUP4 ADD CALLDATACOPY PUSH1 0x0 DUP2 DUP4 ADD PUSH1 0x60 SWAP1 DUP2 ADD SWAP2 SWAP1 SWAP2 MSTORE PUSH1 0x1F SWAP1 SWAP3 ADD PUSH32 0xFFFFFFFFFFFFFFFFFFFFFFFFFFFFFFFFFFFFFFFFFFFFFFFFFFFFFFFFFFFFFFE0 AND ADD ADD SWAP3 SWAP2 POP POP JUMP JUMPDEST PUSH1 0x0 JUMPDEST DUP4 DUP2 LT ISZERO PUSH2 0x1D74 JUMPI DUP2 DUP2 ADD MLOAD DUP4 DUP3 ADD MSTORE PUSH1 0x20 ADD PUSH2 0x1D5C JUMP JUMPDEST POP POP PUSH1 0x0 SWAP2 ADD MSTORE JUMP JUMPDEST PUSH1 0x0 DUP2 MLOAD DUP1 DUP5 MSTORE PUSH2 0x1D95 DUP2 PUSH1 0x20 DUP7 ADD PUSH1 0x20 DUP7 ADD PUSH2 0x1D59 JUMP JUMPDEST PUSH1 0x1F ADD PUSH32 0xFFFFFFFFFFFFFFFFFFFFFFFFFFFFFFFFFFFFFFFFFFFFFFFFFFFFFFFFFFFFFFE0 AND SWAP3 SWAP1 SWAP3 ADD PUSH1 0x20 ADD SWAP3 SWAP2 POP POP JUMP JUMPDEST PUSH1 0x40 DUP2 MSTORE PUSH1 0x0 PUSH2 0x1DDA PUSH1 0x40 DUP4 ADD DUP6 PUSH2 0x1D7D JUMP JUMPDEST SWAP1 POP DUP3 PUSH1 0x20 DUP4 ADD MSTORE SWAP4 SWAP3 POP POP POP JUMP JUMPDEST DUP3 ISZERO ISZERO DUP2 MSTORE PUSH1 0x40 PUSH1 0x20 DUP3 ADD MSTORE PUSH1 0x0 PUSH2 0x1E04 PUSH1 0x40 DUP4 ADD DUP5 PUSH2 0x1D7D JUMP JUMPDEST SWAP5 SWAP4 POP POP POP POP JUMP JUMPDEST PUSH1 0x0 DUP3 PUSH2 0x1E1B JUMPI PUSH2 0x1E1B PUSH2 0x1CAD JUMP JUMPDEST POP MOD SWAP1 JUMP JUMPDEST DUP1 MLOAD DUP1 ISZERO ISZERO DUP2 EQ PUSH2 0x1A91 JUMPI PUSH1 0x0 DUP1 REVERT JUMPDEST PUSH1 0x0 PUSH1 0x20 DUP3 DUP5 SUB SLT ISZERO PUSH2 0x1E42 JUMPI PUSH1 0x0 DUP1 REVERT JUMPDEST PUSH2 0xD47 DUP3 PUSH2 0x1E20 JUMP JUMPDEST PUSH1 0x0 PUSH1 0x20 DUP3 DUP5 SUB SLT ISZERO PUSH2 0x1E5D JUMPI PUSH1 0x0 DUP1 REVERT JUMPDEST POP MLOAD SWAP2 SWAP1 POP JUMP JUMPDEST PUSH32 0x4E487B7100000000000000000000000000000000000000000000000000000000 PUSH1 0x0 MSTORE PUSH1 0x41 PUSH1 0x4 MSTORE PUSH1 0x24 PUSH1 0x0 REVERT JUMPDEST PUSH1 0x0 DUP1 PUSH1 0x40 DUP4 DUP6 SUB SLT ISZERO PUSH2 0x1EA6 JUMPI PUSH1 0x0 DUP1 REVERT JUMPDEST PUSH2 0x1EAF DUP4 PUSH2 0x1E20 JUMP JUMPDEST SWAP2 POP PUSH1 0x20 DUP4 ADD MLOAD PUSH8 0xFFFFFFFFFFFFFFFF DUP2 GT ISZERO PUSH2 0x1ECB JUMPI PUSH1 0x0 DUP1 REVERT JUMPDEST DUP4 ADD PUSH1 0x1F DUP2 ADD DUP6 SGT PUSH2 0x1EDC JUMPI PUSH1 0x0 DUP1 REVERT JUMPDEST DUP1 MLOAD PUSH8 0xFFFFFFFFFFFFFFFF DUP2 GT ISZERO PUSH2 0x1EF6 JUMPI PUSH2 0x1EF6 PUSH2 0x1E64 JUMP JUMPDEST PUSH1 0x40 MLOAD PUSH32 0xFFFFFFFFFFFFFFFFFFFFFFFFFFFFFFFFFFFFFFFFFFFFFFFFFFFFFFFFFFFFFFE0 PUSH1 0x3F PUSH32 0xFFFFFFFFFFFFFFFFFFFFFFFFFFFFFFFFFFFFFFFFFFFFFFFFFFFFFFFFFFFFFFE0 PUSH1 0x1F DUP6 ADD AND ADD AND DUP2 ADD DUP2 DUP2 LT PUSH8 0xFFFFFFFFFFFFFFFF DUP3 GT OR ISZERO PUSH2 0x1F62 JUMPI PUSH2 0x1F62 PUSH2 0x1E64 JUMP JUMPDEST PUSH1 0x40 MSTORE DUP2 DUP2 MSTORE DUP3 DUP3 ADD PUSH1 0x20 ADD DUP8 LT ISZERO PUSH2 0x1F7A JUMPI PUSH1 0x0 DUP1 REVERT JUMPDEST PUSH2 0x1F8B DUP3 PUSH1 0x20 DUP4 ADD PUSH1 0x20 DUP7 ADD PUSH2 0x1D59 JUMP JUMPDEST DUP1 SWAP4 POP POP POP POP SWAP3 POP SWAP3 SWAP1 POP JUMP INVALID LOG2 PUSH5 0x6970667358 0x22 SLT KECCAK256 DUP14 0xF6 GT 0xC8 DUP4 SSTORE SHR PUSH11 0x1CFF0792D02CE7E88C6A7C EXTCODESIZE DUP16 LOG0 0xCC REVERT 0xB0 0xCE DELEGATECALL 0x1E BLOBHASH DUP5 SLT PUSH11 0x64736F6C634300081C0033 "},"gasEstimates":{"creation":{"codeDepositCost":"1628400","executionCost":"infinite","totalCost":"infinite"},"external":{"DEPOSIT_REASON_CODE()":"infinite","POINTS_CONTRACT()":"infinite","REWARDER_ROLE()":"229","SCALING_FACTOR()":"250","STAKING_TOKEN()":"infinite","addReward(uint256,uint256)":"infinite","claim()":"infinite","distributionEnd()":"2372","earned(address)":"infinite","forwarderRegistry()":"infinite","grantRole(bytes32,address)":"infinite","hasRole(bytes32,address)":"infinite","isTrustedForwarder(address)":"infinite","lastTimeRewardApplicable()":"2413","lastUpdated()":"2395","onERC20Received(address,address,uint256,bytes)":"infinite","owner()":"infinite","renounceRole(bytes32)":"infinite","revokeRole(bytes32,address)":"infinite","rewardPerStakePoint()":"infinite","rewardPerStakePointPaid(address)":"2585","rewardPerStakePointStored()":"2351","rewardRate()":"2330","rewards(address)":"2542","stake(bytes)":"infinite","staked(address)":"2541","supportsInterface(bytes4)":"infinite","totalStaked()":"2374","transferOwnership(address)":"infinite","withdraw(bytes)":"infinite"},"internal":{"_computeAddReward(address,uint256,uint256)":"infinite","_computeClaim(address,uint256)":"infinite"}},"methodIdentifiers":{"DEPOSIT_REASON_CODE()":"2196e445","POINTS_CONTRACT()":"2d4c2f93","REWARDER_ROLE()":"8580cf76","SCALING_FACTOR()":"ef4cadc5","STAKING_TOKEN()":"0479d644","addReward(uint256,uint256)":"75c93bb9","claim()":"4e71d92d","distributionEnd()":"efa90b54","earned(address)":"008cc262","forwarderRegistry()":"2b4c9f16","grantRole(bytes32,address)":"2f2ff15d","hasRole(bytes32,address)":"91d14854","isTrustedForwarder(address)":"572b6c05","lastTimeRewardApplicable()":"80faa57d","lastUpdated()":"d0b06f5d","onERC20Received(address,address,uint256,bytes)":"4fc35859","owner()":"8da5cb5b","renounceRole(bytes32)":"8bb9c5bf","revokeRole(bytes32,address)":"d547741f","rewardPerStakePoint()":"2c9d0b80","rewardPerStakePointPaid(address)":"c5c8f770","rewardPerStakePointStored()":"9d696e36","rewardRate()":"7b0a47ee","rewards(address)":"0700037d","stake(bytes)":"2d1e0c02","staked(address)":"98807d84","supportsInterface(bytes4)":"01ffc9a7","totalStaked()":"817b1cd2","transferOwnership(address)":"f2fde38b","withdraw(bytes)":"0968f264"}},"storageLayout":{"storage":[{"astId":3174,"contract":"contracts/staking/ERC20StakingPointsRewardsLinearPool.sol:ERC20StakingPointsRewardsLinearPool","label":"_status","offset":0,"slot":"0","type":"t_uint256"},{"astId":1623,"contract":"contracts/staking/ERC20StakingPointsRewardsLinearPool.sol:ERC20StakingPointsRewardsLinearPool","label":"totalStaked","offset":0,"slot":"1","type":"t_uint256"},{"astId":1625,"contract":"contracts/staking/ERC20StakingPointsRewardsLinearPool.sol:ERC20StakingPointsRewardsLinearPool","label":"lastUpdated","offset":0,"slot":"2","type":"t_uint256"},{"astId":1627,"contract":"contracts/staking/ERC20StakingPointsRewardsLinearPool.sol:ERC20StakingPointsRewardsLinearPool","label":"rewardRate","offset":0,"slot":"3","type":"t_uint256"},{"astId":1629,"contract":"contracts/staking/ERC20StakingPointsRewardsLinearPool.sol:ERC20StakingPointsRewardsLinearPool","label":"rewardPerStakePointStored","offset":0,"slot":"4","type":"t_uint256"},{"astId":1631,"contract":"contracts/staking/ERC20StakingPointsRewardsLinearPool.sol:ERC20StakingPointsRewardsLinearPool","label":"distributionEnd","offset":0,"slot":"5","type":"t_uint256"},{"astId":1635,"contract":"contracts/staking/ERC20StakingPointsRewardsLinearPool.sol:ERC20StakingPointsRewardsLinearPool","label":"staked","offset":0,"slot":"6","type":"t_mapping(t_address,t_uint256)"},{"astId":1639,"contract":"contracts/staking/ERC20StakingPointsRewardsLinearPool.sol:ERC20StakingPointsRewardsLinearPool","label":"rewards","offset":0,"slot":"7","type":"t_mapping(t_address,t_uint256)"},{"astId":1643,"contract":"contracts/staking/ERC20StakingPointsRewardsLinearPool.sol:ERC20StakingPointsRewardsLinearPool","label":"rewardPerStakePointPaid","offset":0,"slot":"8","type":"t_mapping(t_address,t_uint256)"}],"types":{"t_address":{"encoding":"inplace","label":"address","numberOfBytes":"20"},"t_mapping(t_address,t_uint256)":{"encoding":"mapping","key":"t_address","label":"mapping(address => uint256)","numberOfBytes":"32","value":"t_uint256"},"t_uint256":{"encoding":"inplace","label":"uint256","numberOfBytes":"32"}}},"userdoc":{"errors":{"IllegalInterfaceId()":[{"notice":"Thrown when setting the illegal interfaceId 0xffffffff."}],"NotContractOwner(address)":[{"notice":"Thrown when an account is not the contract owner but is required to."}],"NotRoleHolder(bytes32,address)":[{"notice":"Thrown when an account does not have the required role."}]},"events":{"OwnershipTransferred(address,address)":{"notice":"Emitted when the contract ownership changes."},"RoleGranted(bytes32,address,address)":{"notice":"Emitted when `role` is granted to `account`."},"RoleRevoked(bytes32,address,address)":{"notice":"Emitted when `role` is revoked from `account`."}},"kind":"user","methods":{"grantRole(bytes32,address)":{"notice":"Grants a role to an account."},"hasRole(bytes32,address)":{"notice":"Retrieves whether an account has a role."},"isTrustedForwarder(address)":{"notice":"Checks whether a forwarder is trusted."},"owner()":{"notice":"Gets the address of the contract owner."},"renounceRole(bytes32)":{"notice":"Renounces a role by the sender."},"revokeRole(bytes32,address)":{"notice":"Revokes a role from an account."},"supportsInterface(bytes4)":{"notice":"Returns whether this contract implements a given interface."},"transferOwnership(address)":{"notice":"Sets the address of the new contract owner."}},"version":1}}}}