{"contracts/burn/AnichessOrbsBurnPool.sol":{"AnichessOrbsBurnPool":{"abi":[{"inputs":[{"internalType":"uint256","name":"initialTime","type":"uint256"},{"internalType":"uint256","name":"cycleDuration","type":"uint256"},{"internalType":"uint256","name":"maxCycle","type":"uint256"},{"internalType":"contract IERC1155Burnable","name":"sourceToken","type":"address"},{"internalType":"uint256[]","name":"tokenIds","type":"uint256[]"},{"internalType":"uint256[]","name":"weights","type":"uint256[]"},{"internalType":"bytes32","name":"merkleRoot","type":"bytes32"},{"internalType":"contract IERC1155Burnable","name":"missingOrb","type":"address"},{"internalType":"uint256","name":"tokenMultiplier","type":"uint256"},{"internalType":"contract IForwarderRegistry","name":"forwarderRegistry","type":"address"}],"stateMutability":"nonpayable","type":"constructor"},{"inputs":[{"internalType":"address","name":"recipient","type":"address"}],"name":"AlreadySetAnichessGameMultiplierNumerator","type":"error"},{"inputs":[{"internalType":"uint256","name":"tokenId","type":"uint256"}],"name":"AlreadySetTokenWeight","type":"error"},{"inputs":[{"internalType":"address","name":"wallet","type":"address"}],"name":"AlreadyUnlockedTokenMultiplier","type":"error"},{"inputs":[],"name":"IllegalInterfaceId","type":"error"},{"inputs":[],"name":"InconsistentArrays","type":"error"},{"inputs":[{"internalType":"uint256","name":"cycle","type":"uint256"}],"name":"InvalidCycle","type":"error"},{"inputs":[],"name":"InvalidProof","type":"error"},{"inputs":[],"name":"InvalidToken","type":"error"},{"inputs":[{"internalType":"uint256","name":"amount","type":"uint256"},{"internalType":"uint256","name":"expectedAmount","type":"uint256"}],"name":"InvalidTokenAmount","type":"error"},{"inputs":[{"internalType":"address","name":"token","type":"address"},{"internalType":"uint256","name":"tokenId","type":"uint256"}],"name":"InvalidTokenId","type":"error"},{"inputs":[{"internalType":"address","name":"account","type":"address"}],"name":"NotContractOwner","type":"error"},{"anonymous":false,"inputs":[{"indexed":true,"internalType":"address","name":"burner","type":"address"},{"indexed":true,"internalType":"uint256","name":"cycle","type":"uint256"},{"indexed":false,"internalType":"uint256","name":"timestamp","type":"uint256"},{"indexed":false,"internalType":"uint256[]","name":"ids","type":"uint256[]"},{"indexed":false,"internalType":"uint256[]","name":"values","type":"uint256[]"},{"indexed":false,"internalType":"uint256","name":"totalAsh","type":"uint256"},{"indexed":false,"internalType":"uint256","name":"multiplier","type":"uint256"}],"name":"AshGenerated","type":"event"},{"anonymous":false,"inputs":[{"indexed":true,"internalType":"address","name":"previousOwner","type":"address"},{"indexed":true,"internalType":"address","name":"newOwner","type":"address"}],"name":"OwnershipTransferred","type":"event"},{"anonymous":false,"inputs":[{"indexed":true,"internalType":"address","name":"recipient","type":"address"},{"indexed":false,"internalType":"uint256","name":"curr","type":"uint256"},{"indexed":false,"internalType":"uint256","name":"updated","type":"uint256"}],"name":"UpdateMultiplierInfo","type":"event"},{"inputs":[],"name":"CYCLE_DURATION","outputs":[{"internalType":"uint256","name":"","type":"uint256"}],"stateMutability":"view","type":"function"},{"inputs":[],"name":"DENOMINATOR","outputs":[{"internalType":"uint256","name":"","type":"uint256"}],"stateMutability":"view","type":"function"},{"inputs":[],"name":"INITIAL_TIME","outputs":[{"internalType":"uint256","name":"","type":"uint256"}],"stateMutability":"view","type":"function"},{"inputs":[],"name":"MAX_CYCLE","outputs":[{"internalType":"uint256","name":"","type":"uint256"}],"stateMutability":"view","type":"function"},{"inputs":[],"name":"MERKLE_ROOT","outputs":[{"internalType":"bytes32","name":"","type":"bytes32"}],"stateMutability":"view","type":"function"},{"inputs":[],"name":"MISSING_ORB","outputs":[{"internalType":"contract IERC1155Burnable","name":"","type":"address"}],"stateMutability":"view","type":"function"},{"inputs":[],"name":"MISSING_ORB_MULTIPLIER","outputs":[{"internalType":"uint256","name":"","type":"uint256"}],"stateMutability":"view","type":"function"},{"inputs":[],"name":"MISSING_ORB_TOKEN_ID","outputs":[{"internalType":"uint256","name":"","type":"uint256"}],"stateMutability":"view","type":"function"},{"inputs":[],"name":"SOURCE_TOKEN","outputs":[{"internalType":"contract IERC1155Burnable","name":"","type":"address"}],"stateMutability":"view","type":"function"},{"inputs":[],"name":"currentCycle","outputs":[{"internalType":"uint256","name":"","type":"uint256"}],"stateMutability":"view","type":"function"},{"inputs":[],"name":"forwarderRegistry","outputs":[{"internalType":"contract IForwarderRegistry","name":"","type":"address"}],"stateMutability":"view","type":"function"},{"inputs":[{"internalType":"address","name":"wallet","type":"address"}],"name":"getMultiplierInfo","outputs":[{"internalType":"uint256","name":"multiplierInfo","type":"uint256"},{"internalType":"uint128","name":"anichessGameMultiplierNumerator","type":"uint128"},{"internalType":"uint128","name":"tokenMultiplier","type":"uint128"}],"stateMutability":"view","type":"function"},{"inputs":[{"internalType":"address","name":"forwarder","type":"address"}],"name":"isTrustedForwarder","outputs":[{"internalType":"bool","name":"","type":"bool"}],"stateMutability":"view","type":"function"},{"inputs":[{"internalType":"bytes32","name":"","type":"bytes32"}],"name":"leafConsumptionStatus","outputs":[{"internalType":"bool","name":"","type":"bool"}],"stateMutability":"view","type":"function"},{"inputs":[{"internalType":"address","name":"","type":"address"}],"name":"multiplierInfos","outputs":[{"internalType":"uint256","name":"","type":"uint256"}],"stateMutability":"view","type":"function"},{"inputs":[{"internalType":"address","name":"","type":"address"},{"internalType":"address","name":"from","type":"address"},{"internalType":"uint256[]","name":"ids","type":"uint256[]"},{"internalType":"uint256[]","name":"values","type":"uint256[]"},{"internalType":"bytes","name":"","type":"bytes"}],"name":"onERC1155BatchReceived","outputs":[{"internalType":"bytes4","name":"","type":"bytes4"}],"stateMutability":"nonpayable","type":"function"},{"inputs":[{"internalType":"address","name":"","type":"address"},{"internalType":"address","name":"from","type":"address"},{"internalType":"uint256","name":"id","type":"uint256"},{"internalType":"uint256","name":"value","type":"uint256"},{"internalType":"bytes","name":"data","type":"bytes"}],"name":"onERC1155Received","outputs":[{"internalType":"bytes4","name":"","type":"bytes4"}],"stateMutability":"nonpayable","type":"function"},{"inputs":[],"name":"owner","outputs":[{"internalType":"address","name":"","type":"address"}],"stateMutability":"view","type":"function"},{"inputs":[{"internalType":"bytes32[]","name":"proof","type":"bytes32[]"},{"internalType":"address","name":"recipient","type":"address"},{"internalType":"uint256","name":"newAnichessGameMultiplierNumerator","type":"uint256"}],"name":"setAnichessGameMultiplierNumerator","outputs":[],"stateMutability":"nonpayable","type":"function"},{"inputs":[{"internalType":"bytes4","name":"interfaceId","type":"bytes4"}],"name":"supportsInterface","outputs":[{"internalType":"bool","name":"","type":"bool"}],"stateMutability":"view","type":"function"},{"inputs":[{"internalType":"address","name":"newOwner","type":"address"}],"name":"transferOwnership","outputs":[],"stateMutability":"nonpayable","type":"function"},{"inputs":[{"internalType":"uint256","name":"","type":"uint256"},{"internalType":"address","name":"","type":"address"}],"name":"userAshByCycle","outputs":[{"internalType":"uint256","name":"","type":"uint256"}],"stateMutability":"view","type":"function"}],"devdoc":{"details":"This contract allows users to burn tokens and calculate rewards based on the amount of tokens burned.The rewards are calculated based on the total amount of tokens burned in the previous cycle.","errors":{"NotContractOwner(address)":[{"params":{"account":"The account that was checked."}}]},"events":{"OwnershipTransferred(address,address)":{"params":{"newOwner":"the new contract owner.","previousOwner":"the previous contract owner."}}},"kind":"dev","methods":{"constructor":{"params":{"cycleDuration":"The duration of each cycle.","forwarderRegistry":"The forwarder registry contract.","initialTime":"The initial time of the contract.","maxCycle":"The maximum cycle.","merkleRoot":"The Merkle root of the AnichessGame multiplier claim.","missingOrb":"The IERC1155Burnable erc1155 missing orb contract for unlocking the token multiplier.","sourceToken":"The IERC1155Burnable erc1155 contract burn to generate ASH.","tokenIds":"The token IDs.","tokenMultiplier":"The token multiplier.","weights":"The weights for each token."}},"currentCycle()":{"returns":{"_0":"cycle The current cycle."}},"isTrustedForwarder(address)":{"params":{"forwarder":"The forwarder to check."},"returns":{"_0":"True if `forwarder` is trusted, false if not."}},"onERC1155BatchReceived(address,address,uint256[],uint256[],bytes)":{"details":"Throws if the token is invalid.Throws if the cycle is invalid.Throws if the token ID is invalid.","params":{"from":"The wallet address.","ids":"The token IDs to burn.","values":"The amount of tokens to burn."},"returns":{"_0":"The ERC1155Received selector."}},"onERC1155Received(address,address,uint256,uint256,bytes)":{"details":"Throws if the token is invalid.Throws if the token ID is invalid.Throws if the token amount is invalid.Throws if the token multiplier is already unlocked.","params":{"from":"The wallet address.","id":"The token ID.","value":"The token value."},"returns":{"_0":"The ERC1155Received selector."}},"owner()":{"returns":{"_0":"The address of the contract owner."}},"setAnichessGameMultiplierNumerator(bytes32[],address,uint256)":{"details":"Throws if the payout has already been claimed.Throws if the proof is invalid.","params":{"newAnichessGameMultiplierNumerator":"The AnichessGame multiplier numerator for the recipient.","proof":"The Merkle proof for the claim.","recipient":"The recipient of the payout."}},"supportsInterface(bytes4)":{"details":"Note: This function call must use less than 30 000 gas.","params":{"interfaceId":"the interface identifier to test."},"returns":{"_0":"True if the interface is supported, false if `interfaceId` is `0xffffffff` or if the interface is not supported."}},"transferOwnership(address)":{"details":"Reverts if the sender is not the contract owner.Emits an {OwnershipTransferred} event if `newOwner` is different from the current contract owner.","params":{"newOwner":"The address of the new contract owner. Using the zero address means renouncing ownership."}}},"title":"AnichessOrbsBurnPool Contract","version":1},"evm":{"bytecode":{"linkReferences":{},"object":"6101c060405261271060a0526001610160523480156200001e57600080fd5b5060405162001ef238038062001ef28339810160408190526200004191620003aa565b6001600160a01b038116608052336200006f630271189760e51b600162000067620000d3565b919062000109565b62000085816200007e62000166565b9062000196565b5060e08a90526101008990526101208890526101808490526001600160a01b0380841661014052871660c0526101a0829052620000c3868662000209565b50505050505050505050620004b7565b6000806200010360017fca9d3e17f264b0f3984e2634e94adb37fa3e6a8103f06aeae6fa59e21c769f5e6200047f565b92915050565b600160e01b6001600160e01b031983160162000138576040516372c683bb60e01b815260040160405180910390fd5b6001600160e01b03199190911660009081526020929092526040909120805460ff1916911515919091179055565b6000806200010360017fc9ed16f33ab3a66c84bfd83099ccb2a8845871e2e1c1928f63797152f0fd54cd6200047f565b6001600160a01b03811615620001ed5781546001600160a01b0319166001600160a01b03821690811783556040516000907f8be0079c531659141344cd1fd0a4f28419497f9722a3daafe3b4186f6b6457e0908290a35b620002056307f5828d60e41b600162000067620000d3565b5050565b80518251146200022c576040516335e83ac360e01b815260040160405180910390fd5b60005b8251811015620002cb57600081815260046020526040902054156200029157828181518110620002635762000263620004a1565b602002602001015160405163faf6788760e01b81526004016200028891815260200190565b60405180910390fd5b818181518110620002a657620002a6620004a1565b602090810291909101810151600083815260049092526040909120556001016200022f565b505050565b80516001600160a01b0381168114620002e857600080fd5b919050565b634e487b7160e01b600052604160045260246000fd5b600082601f8301126200031557600080fd5b815160206001600160401b0380831115620003345762000334620002ed565b8260051b604051601f19603f830116810181811084821117156200035c576200035c620002ed565b60405293845260208187018101949081019250878511156200037d57600080fd5b6020870191505b848210156200039f5781518352918301919083019062000384565b979650505050505050565b6000806000806000806000806000806101408b8d031215620003cb57600080fd5b8a51995060208b0151985060408b01519750620003eb60608c01620002d0565b60808c01519097506001600160401b03808211156200040957600080fd5b620004178e838f0162000303565b975060a08d01519150808211156200042e57600080fd5b506200043d8d828e0162000303565b95505060c08b015193506200045560e08c01620002d0565b92506101008b015191506200046e6101208c01620002d0565b90509295989b9194979a5092959850565b818103818111156200010357634e487b7160e01b600052601160045260246000fd5b634e487b7160e01b600052603260045260246000fd5b60805160a05160c05160e05161010051610120516101405161016051610180516101a05161196b62000587600039600081816103c90152610c2c0152600081816102930152610edb0152600081816101e90152610aab01526000818161045c0152610a520152600081816101b4015261069e01526000818161048301526105cc01526000818161026c01526105f001526000818161030701526106390152600081816103a20152610865015260008181610222015281816102c5015281816111ed0152611275015261196b6000f3fe608060405234801561001057600080fd5b50600436106101825760003560e01c8063918f8674116100d8578063cd18a34f1161008c578063f23a6e6111610066578063f23a6e61146104c8578063f2fde38b146104db578063fa9fdc6a146104ee57600080fd5b8063cd18a34f14610457578063cd421fbf1461047e578063e1c96c20146104a557600080fd5b8063b28fd6e6116100bd578063b28fd6e6146103eb578063bab2f5521461040b578063bc197c811461041357600080fd5b8063918f86741461039d578063a018e659146103c457600080fd5b8063491bde661161013a57806372d69aa01161011457806372d69aa0146103025780637e26d0cd146103295780638da5cb5b1461039557600080fd5b8063491bde661461026757806351e75e8b1461028e578063572b6c05146102b557600080fd5b80631de0e40b1161016b5780631de0e40b146101e457806324190c6e1461020b5780632b4c9f161461022057600080fd5b806301ffc9a714610187578063043063bc146101af575b600080fd5b61019a610195366004611366565b610519565b60405190151581526020015b60405180910390f35b6101d67f000000000000000000000000000000000000000000000000000000000000000081565b6040519081526020016101a6565b6101d67f000000000000000000000000000000000000000000000000000000000000000081565b61021e61021936600461141d565b610533565b005b7f00000000000000000000000000000000000000000000000000000000000000005b60405173ffffffffffffffffffffffffffffffffffffffff90911681526020016101a6565b6101d67f000000000000000000000000000000000000000000000000000000000000000081565b6101d67f000000000000000000000000000000000000000000000000000000000000000081565b61019a6102c3366004611479565b7f000000000000000000000000000000000000000000000000000000000000000073ffffffffffffffffffffffffffffffffffffffff90811691161490565b6102427f000000000000000000000000000000000000000000000000000000000000000081565b610367610337366004611479565b73ffffffffffffffffffffffffffffffffffffffff1660009081526003602052604090205490608082901c908290565b604080519384526fffffffffffffffffffffffffffffffff92831660208501529116908201526060016101a6565b61024261059c565b6101d67f000000000000000000000000000000000000000000000000000000000000000081565b6101d67f000000000000000000000000000000000000000000000000000000000000000081565b6101d66103f9366004611479565b60036020526000908152604090205481565b6101d66105c8565b6104266104213660046114d6565b61061f565b6040517fffffffff0000000000000000000000000000000000000000000000000000000090911681526020016101a6565b6102427f000000000000000000000000000000000000000000000000000000000000000081565b6101d67f000000000000000000000000000000000000000000000000000000000000000081565b61019a6104b3366004611591565b60026020526000908152604090205460ff1681565b6104266104d63660046115aa565b610a38565b61021e6104e9366004611479565b610cd9565b6101d66104fc366004611622565b600160209081526000928352604080842090915290825290205481565b600061052d82610527610cf7565b90610d25565b92915050565b610595848480806020026020016040519081016040528093929190818152602001838360200280828437600092018290525073ffffffffffffffffffffffffffffffffffffffff88168152600360205260409020548793509150859050610dff565b5050505050565b60006105c36105a9611047565b5473ffffffffffffffffffffffffffffffffffffffff1690565b905090565b60007f00000000000000000000000000000000000000000000000000000000000000006106157f00000000000000000000000000000000000000000000000000000000000000004261167d565b6105c39190611690565b60003373ffffffffffffffffffffffffffffffffffffffff7f00000000000000000000000000000000000000000000000000000000000000001614610690576040517fc1ab6dc100000000000000000000000000000000000000000000000000000000815260040160405180910390fd5b600061069a6105c8565b90507f00000000000000000000000000000000000000000000000000000000000000008111156106fe576040517f764e560f000000000000000000000000000000000000000000000000000000008152600481018290526024015b60405180910390fd5b6000805b888110156107e7576000600460008c8c85818110610722576107226116cb565b905060200201358152602001908152602001600020549050806000036107ae57338b8b84818110610755576107556116cb565b6040517f1912ea5100000000000000000000000000000000000000000000000000000000815273ffffffffffffffffffffffffffffffffffffffff909416600485015260200291909101356024830152506044016106f5565b808989848181106107c1576107c16116cb565b905060200201356107d291906116fa565b6107dc9084611711565b925050600101610702565b5073ffffffffffffffffffffffffffffffffffffffff8a16600090815260036020526040902054608081901c816fffffffffffffffffffffffffffffffff81161561084b576108486fffffffffffffffffffffffffffffffff8216856116fa565b93505b6fffffffffffffffffffffffffffffffff8216156108ad577f00000000000000000000000000000000000000000000000000000000000000006108a06fffffffffffffffffffffffffffffffff8416866116fa565b6108aa9190611690565b93505b836001600087815260200190815260200160002060008f73ffffffffffffffffffffffffffffffffffffffff1673ffffffffffffffffffffffffffffffffffffffff168152602001908152602001600020600082825461090d9190611711565b909155505060008581526020819052604081208054869290610930908490611711565b925050819055503373ffffffffffffffffffffffffffffffffffffffff1663805349348e8e8e8e8e6040518663ffffffff1660e01b815260040161097895949392919061176f565b600060405180830381600087803b15801561099257600080fd5b505af11580156109a6573d6000803e3d6000fd5b50505050848d73ffffffffffffffffffffffffffffffffffffffff167f12154d1bf24e3c99606a6e0a08972355a7a52b92d6f9093e67f843b070e06ff6428f8f8f8f8b8b6040516109fd97969594939291906117be565b60405180910390a3507fbc197c81000000000000000000000000000000000000000000000000000000009d9c50505050505050505050505050565b60003373ffffffffffffffffffffffffffffffffffffffff7f00000000000000000000000000000000000000000000000000000000000000001614610aa9576040517fc1ab6dc100000000000000000000000000000000000000000000000000000000815260040160405180910390fd5b7f00000000000000000000000000000000000000000000000000000000000000008514610b0b576040517f1912ea51000000000000000000000000000000000000000000000000000000008152336004820152602481018690526044016106f5565b83600114610b4f576040517ff789eb2f00000000000000000000000000000000000000000000000000000000815260048101859052600160248201526044016106f5565b73ffffffffffffffffffffffffffffffffffffffff86166000908152600360205260409020548215610b9f57600080610b8a85870187611831565b91509150610b9a828a8584610dff565b925050505b6fffffffffffffffffffffffffffffffff811615610c01576040517f03a0028700000000000000000000000000000000000000000000000000000000815273ffffffffffffffffffffffffffffffffffffffff881660048201526024016106f5565b73ffffffffffffffffffffffffffffffffffffffff87166000818152600360209081526040918290207f00000000000000000000000000000000000000000000000000000000000000007fffffffffffffffffffffffffffffffff0000000000000000000000000000000086161790819055825185815291820181905292917f54519572e3429998e82594d8b7f18c8099087447d701cbaa619b5e26f6de47eb910160405180910390a2507ff23a6e610000000000000000000000000000000000000000000000000000000098975050505050505050565b610cf4610ce4611075565b82610ced611047565b919061107f565b50565b60008061052d60017fca9d3e17f264b0f3984e2634e94adb37fa3e6a8103f06aeae6fa59e21c769f5e61167d565b60007c01000000000000000000000000000000000000000000000000000000007fffffffff00000000000000000000000000000000000000000000000000000000831601610d755750600061052d565b7ffe003659000000000000000000000000000000000000000000000000000000007fffffffff00000000000000000000000000000000000000000000000000000000831601610dc65750600161052d565b507fffffffff00000000000000000000000000000000000000000000000000000000166000908152602091909152604090205460ff1690565b6040517fffffffffffffffffffffffffffffffffffffffff000000000000000000000000606085901b166020820152603481018290526000908190605401604080517fffffffffffffffffffffffffffffffffffffffffffffffffffffffffffffffe081840301815291815281516020928301206000818152600290935291205490915060ff1615610ed5576040517f18ed059000000000000000000000000000000000000000000000000000000000815273ffffffffffffffffffffffffffffffffffffffff861660048201526024016106f5565b610f00867f000000000000000000000000000000000000000000000000000000000000000083611194565b610f36576040517f09bde33900000000000000000000000000000000000000000000000000000000815260040160405180910390fd5b608084901c8015610f8b576040517f18ed059000000000000000000000000000000000000000000000000000000000815273ffffffffffffffffffffffffffffffffffffffff871660048201526024016106f5565b73ffffffffffffffffffffffffffffffffffffffff861660008181526003602090815260408083206fffffffffffffffffffffffffffffffff8a1660808a901b1790819055868452600283529281902080547fffffffffffffffffffffffffffffffffffffffffffffffffffffffffffffff0016600117905580518981529182018390529195507f54519572e3429998e82594d8b7f18c8099087447d701cbaa619b5e26f6de47eb910160405180910390a25050949350505050565b60008061052d60017fc9ed16f33ab3a66c84bfd83099ccb2a8845871e2e1c1928f63797152f0fd54cd61167d565b60006105c36111aa565b825473ffffffffffffffffffffffffffffffffffffffff90811690831681146110ec576040517f2ef4875e00000000000000000000000000000000000000000000000000000000815273ffffffffffffffffffffffffffffffffffffffff841660048201526024016106f5565b8173ffffffffffffffffffffffffffffffffffffffff168173ffffffffffffffffffffffffffffffffffffffff161461118e5783547fffffffffffffffffffffffff00000000000000000000000000000000000000001673ffffffffffffffffffffffffffffffffffffffff8381169182178655604051908316907f8be0079c531659141344cd1fd0a4f28419497f9722a3daafe3b4186f6b6457e090600090a35b50505050565b6000826111a185846112f1565b14949350505050565b6000333214806111ba5750601836105b156111c457503390565b7fffffffffffffffffffffffffffffffffffffffffffffffffffffffffffffffec36013560601c7f000000000000000000000000000000000000000000000000000000000000000073ffffffffffffffffffffffffffffffffffffffff163314806112e057506040517f8929a8ca00000000000000000000000000000000000000000000000000000000815273ffffffffffffffffffffffffffffffffffffffff82811660048301523360248301527f00000000000000000000000000000000000000000000000000000000000000001690638929a8ca90604401602060405180830381865afa1580156112bc573d6000803e3d6000fd5b505050506040513d601f19601f820116820180604052508101906112e09190611913565b156112ea57919050565b3391505090565b600081815b845181101561132c5761132282868381518110611315576113156116cb565b6020026020010151611334565b91506001016112f6565b509392505050565b600081831061135057600082815260208490526040902061135f565b60008381526020839052604090205b9392505050565b60006020828403121561137857600080fd5b81357fffffffff000000000000000000000000000000000000000000000000000000008116811461135f57600080fd5b60008083601f8401126113ba57600080fd5b50813567ffffffffffffffff8111156113d257600080fd5b6020830191508360208260051b85010111156113ed57600080fd5b9250929050565b803573ffffffffffffffffffffffffffffffffffffffff8116811461141857600080fd5b919050565b6000806000806060858703121561143357600080fd5b843567ffffffffffffffff81111561144a57600080fd5b611456878288016113a8565b90955093506114699050602086016113f4565b9396929550929360400135925050565b60006020828403121561148b57600080fd5b61135f826113f4565b60008083601f8401126114a657600080fd5b50813567ffffffffffffffff8111156114be57600080fd5b6020830191508360208285010111156113ed57600080fd5b60008060008060008060008060a0898b0312156114f257600080fd5b6114fb896113f4565b975061150960208a016113f4565b9650604089013567ffffffffffffffff8082111561152657600080fd5b6115328c838d016113a8565b909850965060608b013591508082111561154b57600080fd5b6115578c838d016113a8565b909650945060808b013591508082111561157057600080fd5b5061157d8b828c01611494565b999c989b5096995094979396929594505050565b6000602082840312156115a357600080fd5b5035919050565b60008060008060008060a087890312156115c357600080fd5b6115cc876113f4565b95506115da602088016113f4565b94506040870135935060608701359250608087013567ffffffffffffffff81111561160457600080fd5b61161089828a01611494565b979a9699509497509295939492505050565b6000806040838503121561163557600080fd5b82359150611645602084016113f4565b90509250929050565b7f4e487b7100000000000000000000000000000000000000000000000000000000600052601160045260246000fd5b8181038181111561052d5761052d61164e565b6000826116c6577f4e487b7100000000000000000000000000000000000000000000000000000000600052601260045260246000fd5b500490565b7f4e487b7100000000000000000000000000000000000000000000000000000000600052603260045260246000fd5b808202811582820484141761052d5761052d61164e565b8082018082111561052d5761052d61164e565b81835260007f07ffffffffffffffffffffffffffffffffffffffffffffffffffffffffffffff83111561175657600080fd5b8260051b80836020870137939093016020019392505050565b73ffffffffffffffffffffffffffffffffffffffff8616815260606020820152600061179f606083018688611724565b82810360408401526117b2818587611724565b98975050505050505050565b87815260a0602082015260006117d860a08301888a611724565b82810360408401526117eb818789611724565b606084019590955250506080015295945050505050565b7f4e487b7100000000000000000000000000000000000000000000000000000000600052604160045260246000fd5b6000806040838503121561184457600080fd5b823567ffffffffffffffff8082111561185c57600080fd5b818501915085601f83011261187057600080fd5b813560208282111561188457611884611802565b8160051b6040517fffffffffffffffffffffffffffffffffffffffffffffffffffffffffffffffe0603f830116810181811086821117156118c7576118c7611802565b6040529283528183019350848101820192898411156118e557600080fd5b948201945b83861015611903578535855294820194938201936118ea565b9997909101359750505050505050565b60006020828403121561192557600080fd5b8151801515811461135f57600080fdfea2646970667358221220afea7f5ff0433caa3bb6a4d0aed4edd8c96ef1f8c7f4875c502e2a628c71fd4464736f6c63430008160033","opcodes":"PUSH2 0x1C0 PUSH1 0x40 MSTORE PUSH2 0x2710 PUSH1 0xA0 MSTORE PUSH1 0x1 PUSH2 0x160 MSTORE CALLVALUE DUP1 ISZERO PUSH3 0x1E JUMPI PUSH1 0x0 DUP1 REVERT JUMPDEST POP PUSH1 0x40 MLOAD PUSH3 0x1EF2 CODESIZE SUB DUP1 PUSH3 0x1EF2 DUP4 CODECOPY DUP2 ADD PUSH1 0x40 DUP2 SWAP1 MSTORE PUSH3 0x41 SWAP2 PUSH3 0x3AA JUMP JUMPDEST PUSH1 0x1 PUSH1 0x1 PUSH1 0xA0 SHL SUB DUP2 AND PUSH1 0x80 MSTORE CALLER PUSH3 0x6F PUSH4 0x2711897 PUSH1 0xE5 SHL PUSH1 0x1 PUSH3 0x67 PUSH3 0xD3 JUMP JUMPDEST SWAP2 SWAP1 PUSH3 0x109 JUMP JUMPDEST PUSH3 0x85 DUP2 PUSH3 0x7E PUSH3 0x166 JUMP JUMPDEST SWAP1 PUSH3 0x196 JUMP JUMPDEST POP PUSH1 0xE0 DUP11 SWAP1 MSTORE PUSH2 0x100 DUP10 SWAP1 MSTORE PUSH2 0x120 DUP9 SWAP1 MSTORE PUSH2 0x180 DUP5 SWAP1 MSTORE PUSH1 0x1 PUSH1 0x1 PUSH1 0xA0 SHL SUB DUP1 DUP5 AND PUSH2 0x140 MSTORE DUP8 AND PUSH1 0xC0 MSTORE PUSH2 0x1A0 DUP3 SWAP1 MSTORE PUSH3 0xC3 DUP7 DUP7 PUSH3 0x209 JUMP JUMPDEST POP POP POP POP POP POP POP POP POP POP PUSH3 0x4B7 JUMP JUMPDEST PUSH1 0x0 DUP1 PUSH3 0x103 PUSH1 0x1 PUSH32 0xCA9D3E17F264B0F3984E2634E94ADB37FA3E6A8103F06AEAE6FA59E21C769F5E PUSH3 0x47F JUMP JUMPDEST SWAP3 SWAP2 POP POP JUMP JUMPDEST PUSH1 0x1 PUSH1 0xE0 SHL PUSH1 0x1 PUSH1 0x1 PUSH1 0xE0 SHL SUB NOT DUP4 AND ADD PUSH3 0x138 JUMPI PUSH1 0x40 MLOAD PUSH4 0x72C683BB PUSH1 0xE0 SHL DUP2 MSTORE PUSH1 0x4 ADD PUSH1 0x40 MLOAD DUP1 SWAP2 SUB SWAP1 REVERT JUMPDEST PUSH1 0x1 PUSH1 0x1 PUSH1 0xE0 SHL SUB NOT SWAP2 SWAP1 SWAP2 AND PUSH1 0x0 SWAP1 DUP2 MSTORE PUSH1 0x20 SWAP3 SWAP1 SWAP3 MSTORE PUSH1 0x40 SWAP1 SWAP2 KECCAK256 DUP1 SLOAD PUSH1 0xFF NOT AND SWAP2 ISZERO ISZERO SWAP2 SWAP1 SWAP2 OR SWAP1 SSTORE JUMP JUMPDEST PUSH1 0x0 DUP1 PUSH3 0x103 PUSH1 0x1 PUSH32 0xC9ED16F33AB3A66C84BFD83099CCB2A8845871E2E1C1928F63797152F0FD54CD PUSH3 0x47F JUMP JUMPDEST PUSH1 0x1 PUSH1 0x1 PUSH1 0xA0 SHL SUB DUP2 AND ISZERO PUSH3 0x1ED JUMPI DUP2 SLOAD PUSH1 0x1 PUSH1 0x1 PUSH1 0xA0 SHL SUB NOT AND PUSH1 0x1 PUSH1 0x1 PUSH1 0xA0 SHL SUB DUP3 AND SWAP1 DUP2 OR DUP4 SSTORE PUSH1 0x40 MLOAD PUSH1 0x0 SWAP1 PUSH32 0x8BE0079C531659141344CD1FD0A4F28419497F9722A3DAAFE3B4186F6B6457E0 SWAP1 DUP3 SWAP1 LOG3 JUMPDEST PUSH3 0x205 PUSH4 0x7F5828D PUSH1 0xE4 SHL PUSH1 0x1 PUSH3 0x67 PUSH3 0xD3 JUMP JUMPDEST POP POP JUMP JUMPDEST DUP1 MLOAD DUP3 MLOAD EQ PUSH3 0x22C JUMPI PUSH1 0x40 MLOAD PUSH4 0x35E83AC3 PUSH1 0xE0 SHL DUP2 MSTORE PUSH1 0x4 ADD PUSH1 0x40 MLOAD DUP1 SWAP2 SUB SWAP1 REVERT JUMPDEST PUSH1 0x0 JUMPDEST DUP3 MLOAD DUP2 LT ISZERO PUSH3 0x2CB JUMPI PUSH1 0x0 DUP2 DUP2 MSTORE PUSH1 0x4 PUSH1 0x20 MSTORE PUSH1 0x40 SWAP1 KECCAK256 SLOAD ISZERO PUSH3 0x291 JUMPI DUP3 DUP2 DUP2 MLOAD DUP2 LT PUSH3 0x263 JUMPI PUSH3 0x263 PUSH3 0x4A1 JUMP JUMPDEST PUSH1 0x20 MUL PUSH1 0x20 ADD ADD MLOAD PUSH1 0x40 MLOAD PUSH4 0xFAF67887 PUSH1 0xE0 SHL DUP2 MSTORE PUSH1 0x4 ADD PUSH3 0x288 SWAP2 DUP2 MSTORE PUSH1 0x20 ADD SWAP1 JUMP JUMPDEST PUSH1 0x40 MLOAD DUP1 SWAP2 SUB SWAP1 REVERT JUMPDEST DUP2 DUP2 DUP2 MLOAD DUP2 LT PUSH3 0x2A6 JUMPI PUSH3 0x2A6 PUSH3 0x4A1 JUMP JUMPDEST PUSH1 0x20 SWAP1 DUP2 MUL SWAP2 SWAP1 SWAP2 ADD DUP2 ADD MLOAD PUSH1 0x0 DUP4 DUP2 MSTORE PUSH1 0x4 SWAP1 SWAP3 MSTORE PUSH1 0x40 SWAP1 SWAP2 KECCAK256 SSTORE PUSH1 0x1 ADD PUSH3 0x22F JUMP JUMPDEST POP POP POP JUMP JUMPDEST DUP1 MLOAD PUSH1 0x1 PUSH1 0x1 PUSH1 0xA0 SHL SUB DUP2 AND DUP2 EQ PUSH3 0x2E8 JUMPI PUSH1 0x0 DUP1 REVERT JUMPDEST SWAP2 SWAP1 POP JUMP JUMPDEST PUSH4 0x4E487B71 PUSH1 0xE0 SHL PUSH1 0x0 MSTORE PUSH1 0x41 PUSH1 0x4 MSTORE PUSH1 0x24 PUSH1 0x0 REVERT JUMPDEST PUSH1 0x0 DUP3 PUSH1 0x1F DUP4 ADD SLT PUSH3 0x315 JUMPI PUSH1 0x0 DUP1 REVERT JUMPDEST DUP2 MLOAD PUSH1 0x20 PUSH1 0x1 PUSH1 0x1 PUSH1 0x40 SHL SUB DUP1 DUP4 GT ISZERO PUSH3 0x334 JUMPI PUSH3 0x334 PUSH3 0x2ED JUMP JUMPDEST DUP3 PUSH1 0x5 SHL PUSH1 0x40 MLOAD PUSH1 0x1F NOT PUSH1 0x3F DUP4 ADD AND DUP2 ADD DUP2 DUP2 LT DUP5 DUP3 GT OR ISZERO PUSH3 0x35C JUMPI PUSH3 0x35C PUSH3 0x2ED JUMP JUMPDEST PUSH1 0x40 MSTORE SWAP4 DUP5 MSTORE PUSH1 0x20 DUP2 DUP8 ADD DUP2 ADD SWAP5 SWAP1 DUP2 ADD SWAP3 POP DUP8 DUP6 GT ISZERO PUSH3 0x37D JUMPI PUSH1 0x0 DUP1 REVERT JUMPDEST PUSH1 0x20 DUP8 ADD SWAP2 POP JUMPDEST DUP5 DUP3 LT ISZERO PUSH3 0x39F JUMPI DUP2 MLOAD DUP4 MSTORE SWAP2 DUP4 ADD SWAP2 SWAP1 DUP4 ADD SWAP1 PUSH3 0x384 JUMP JUMPDEST SWAP8 SWAP7 POP POP POP POP POP POP POP JUMP JUMPDEST PUSH1 0x0 DUP1 PUSH1 0x0 DUP1 PUSH1 0x0 DUP1 PUSH1 0x0 DUP1 PUSH1 0x0 DUP1 PUSH2 0x140 DUP12 DUP14 SUB SLT ISZERO PUSH3 0x3CB JUMPI PUSH1 0x0 DUP1 REVERT JUMPDEST DUP11 MLOAD SWAP10 POP PUSH1 0x20 DUP12 ADD MLOAD SWAP9 POP PUSH1 0x40 DUP12 ADD MLOAD SWAP8 POP PUSH3 0x3EB PUSH1 0x60 DUP13 ADD PUSH3 0x2D0 JUMP JUMPDEST PUSH1 0x80 DUP13 ADD MLOAD SWAP1 SWAP8 POP PUSH1 0x1 PUSH1 0x1 PUSH1 0x40 SHL SUB DUP1 DUP3 GT ISZERO PUSH3 0x409 JUMPI PUSH1 0x0 DUP1 REVERT JUMPDEST PUSH3 0x417 DUP15 DUP4 DUP16 ADD PUSH3 0x303 JUMP JUMPDEST SWAP8 POP PUSH1 0xA0 DUP14 ADD MLOAD SWAP2 POP DUP1 DUP3 GT ISZERO PUSH3 0x42E JUMPI PUSH1 0x0 DUP1 REVERT JUMPDEST POP PUSH3 0x43D DUP14 DUP3 DUP15 ADD PUSH3 0x303 JUMP JUMPDEST SWAP6 POP POP PUSH1 0xC0 DUP12 ADD MLOAD SWAP4 POP PUSH3 0x455 PUSH1 0xE0 DUP13 ADD PUSH3 0x2D0 JUMP JUMPDEST SWAP3 POP PUSH2 0x100 DUP12 ADD MLOAD SWAP2 POP PUSH3 0x46E PUSH2 0x120 DUP13 ADD PUSH3 0x2D0 JUMP JUMPDEST SWAP1 POP SWAP3 SWAP6 SWAP9 SWAP12 SWAP2 SWAP5 SWAP8 SWAP11 POP SWAP3 SWAP6 SWAP9 POP JUMP JUMPDEST DUP2 DUP2 SUB DUP2 DUP2 GT ISZERO PUSH3 0x103 JUMPI PUSH4 0x4E487B71 PUSH1 0xE0 SHL PUSH1 0x0 MSTORE PUSH1 0x11 PUSH1 0x4 MSTORE PUSH1 0x24 PUSH1 0x0 REVERT JUMPDEST PUSH4 0x4E487B71 PUSH1 0xE0 SHL PUSH1 0x0 MSTORE PUSH1 0x32 PUSH1 0x4 MSTORE PUSH1 0x24 PUSH1 0x0 REVERT JUMPDEST PUSH1 0x80 MLOAD PUSH1 0xA0 MLOAD PUSH1 0xC0 MLOAD PUSH1 0xE0 MLOAD PUSH2 0x100 MLOAD PUSH2 0x120 MLOAD PUSH2 0x140 MLOAD PUSH2 0x160 MLOAD PUSH2 0x180 MLOAD PUSH2 0x1A0 MLOAD PUSH2 0x196B PUSH3 0x587 PUSH1 0x0 CODECOPY PUSH1 0x0 DUP2 DUP2 PUSH2 0x3C9 ADD MSTORE PUSH2 0xC2C ADD MSTORE PUSH1 0x0 DUP2 DUP2 PUSH2 0x293 ADD MSTORE PUSH2 0xEDB ADD MSTORE PUSH1 0x0 DUP2 DUP2 PUSH2 0x1E9 ADD MSTORE PUSH2 0xAAB ADD MSTORE PUSH1 0x0 DUP2 DUP2 PUSH2 0x45C ADD MSTORE PUSH2 0xA52 ADD MSTORE PUSH1 0x0 DUP2 DUP2 PUSH2 0x1B4 ADD MSTORE PUSH2 0x69E ADD MSTORE PUSH1 0x0 DUP2 DUP2 PUSH2 0x483 ADD MSTORE PUSH2 0x5CC ADD MSTORE PUSH1 0x0 DUP2 DUP2 PUSH2 0x26C ADD MSTORE PUSH2 0x5F0 ADD MSTORE PUSH1 0x0 DUP2 DUP2 PUSH2 0x307 ADD MSTORE PUSH2 0x639 ADD MSTORE PUSH1 0x0 DUP2 DUP2 PUSH2 0x3A2 ADD MSTORE PUSH2 0x865 ADD MSTORE PUSH1 0x0 DUP2 DUP2 PUSH2 0x222 ADD MSTORE DUP2 DUP2 PUSH2 0x2C5 ADD MSTORE DUP2 DUP2 PUSH2 0x11ED ADD MSTORE PUSH2 0x1275 ADD MSTORE PUSH2 0x196B PUSH1 0x0 RETURN INVALID PUSH1 0x80 PUSH1 0x40 MSTORE CALLVALUE DUP1 ISZERO PUSH2 0x10 JUMPI PUSH1 0x0 DUP1 REVERT JUMPDEST POP PUSH1 0x4 CALLDATASIZE LT PUSH2 0x182 JUMPI PUSH1 0x0 CALLDATALOAD PUSH1 0xE0 SHR DUP1 PUSH4 0x918F8674 GT PUSH2 0xD8 JUMPI DUP1 PUSH4 0xCD18A34F GT PUSH2 0x8C JUMPI DUP1 PUSH4 0xF23A6E61 GT PUSH2 0x66 JUMPI DUP1 PUSH4 0xF23A6E61 EQ PUSH2 0x4C8 JUMPI DUP1 PUSH4 0xF2FDE38B EQ PUSH2 0x4DB JUMPI DUP1 PUSH4 0xFA9FDC6A EQ PUSH2 0x4EE JUMPI PUSH1 0x0 DUP1 REVERT JUMPDEST DUP1 PUSH4 0xCD18A34F EQ PUSH2 0x457 JUMPI DUP1 PUSH4 0xCD421FBF EQ PUSH2 0x47E JUMPI DUP1 PUSH4 0xE1C96C20 EQ PUSH2 0x4A5 JUMPI PUSH1 0x0 DUP1 REVERT JUMPDEST DUP1 PUSH4 0xB28FD6E6 GT PUSH2 0xBD JUMPI DUP1 PUSH4 0xB28FD6E6 EQ PUSH2 0x3EB JUMPI DUP1 PUSH4 0xBAB2F552 EQ PUSH2 0x40B JUMPI DUP1 PUSH4 0xBC197C81 EQ PUSH2 0x413 JUMPI PUSH1 0x0 DUP1 REVERT JUMPDEST DUP1 PUSH4 0x918F8674 EQ PUSH2 0x39D JUMPI DUP1 PUSH4 0xA018E659 EQ PUSH2 0x3C4 JUMPI PUSH1 0x0 DUP1 REVERT JUMPDEST DUP1 PUSH4 0x491BDE66 GT PUSH2 0x13A JUMPI DUP1 PUSH4 0x72D69AA0 GT PUSH2 0x114 JUMPI DUP1 PUSH4 0x72D69AA0 EQ PUSH2 0x302 JUMPI DUP1 PUSH4 0x7E26D0CD EQ PUSH2 0x329 JUMPI DUP1 PUSH4 0x8DA5CB5B EQ PUSH2 0x395 JUMPI PUSH1 0x0 DUP1 REVERT JUMPDEST DUP1 PUSH4 0x491BDE66 EQ PUSH2 0x267 JUMPI DUP1 PUSH4 0x51E75E8B EQ PUSH2 0x28E JUMPI DUP1 PUSH4 0x572B6C05 EQ PUSH2 0x2B5 JUMPI PUSH1 0x0 DUP1 REVERT JUMPDEST DUP1 PUSH4 0x1DE0E40B GT PUSH2 0x16B JUMPI DUP1 PUSH4 0x1DE0E40B EQ PUSH2 0x1E4 JUMPI DUP1 PUSH4 0x24190C6E EQ PUSH2 0x20B JUMPI DUP1 PUSH4 0x2B4C9F16 EQ PUSH2 0x220 JUMPI PUSH1 0x0 DUP1 REVERT JUMPDEST DUP1 PUSH4 0x1FFC9A7 EQ PUSH2 0x187 JUMPI DUP1 PUSH4 0x43063BC EQ PUSH2 0x1AF JUMPI JUMPDEST PUSH1 0x0 DUP1 REVERT JUMPDEST PUSH2 0x19A PUSH2 0x195 CALLDATASIZE PUSH1 0x4 PUSH2 0x1366 JUMP JUMPDEST PUSH2 0x519 JUMP JUMPDEST PUSH1 0x40 MLOAD SWAP1 ISZERO ISZERO DUP2 MSTORE PUSH1 0x20 ADD JUMPDEST PUSH1 0x40 MLOAD DUP1 SWAP2 SUB SWAP1 RETURN JUMPDEST PUSH2 0x1D6 PUSH32 0x0 DUP2 JUMP JUMPDEST PUSH1 0x40 MLOAD SWAP1 DUP2 MSTORE PUSH1 0x20 ADD PUSH2 0x1A6 JUMP JUMPDEST PUSH2 0x1D6 PUSH32 0x0 DUP2 JUMP JUMPDEST PUSH2 0x21E PUSH2 0x219 CALLDATASIZE PUSH1 0x4 PUSH2 0x141D JUMP JUMPDEST PUSH2 0x533 JUMP JUMPDEST STOP JUMPDEST PUSH32 0x0 JUMPDEST PUSH1 0x40 MLOAD PUSH20 0xFFFFFFFFFFFFFFFFFFFFFFFFFFFFFFFFFFFFFFFF SWAP1 SWAP2 AND DUP2 MSTORE PUSH1 0x20 ADD PUSH2 0x1A6 JUMP JUMPDEST PUSH2 0x1D6 PUSH32 0x0 DUP2 JUMP JUMPDEST PUSH2 0x1D6 PUSH32 0x0 DUP2 JUMP JUMPDEST PUSH2 0x19A PUSH2 0x2C3 CALLDATASIZE PUSH1 0x4 PUSH2 0x1479 JUMP JUMPDEST PUSH32 0x0 PUSH20 0xFFFFFFFFFFFFFFFFFFFFFFFFFFFFFFFFFFFFFFFF SWAP1 DUP2 AND SWAP2 AND EQ SWAP1 JUMP JUMPDEST PUSH2 0x242 PUSH32 0x0 DUP2 JUMP JUMPDEST PUSH2 0x367 PUSH2 0x337 CALLDATASIZE PUSH1 0x4 PUSH2 0x1479 JUMP JUMPDEST PUSH20 0xFFFFFFFFFFFFFFFFFFFFFFFFFFFFFFFFFFFFFFFF AND PUSH1 0x0 SWAP1 DUP2 MSTORE PUSH1 0x3 PUSH1 0x20 MSTORE PUSH1 0x40 SWAP1 KECCAK256 SLOAD SWAP1 PUSH1 0x80 DUP3 SWAP1 SHR SWAP1 DUP3 SWAP1 JUMP JUMPDEST PUSH1 0x40 DUP1 MLOAD SWAP4 DUP5 MSTORE PUSH16 0xFFFFFFFFFFFFFFFFFFFFFFFFFFFFFFFF SWAP3 DUP4 AND PUSH1 0x20 DUP6 ADD MSTORE SWAP2 AND SWAP1 DUP3 ADD MSTORE PUSH1 0x60 ADD PUSH2 0x1A6 JUMP JUMPDEST PUSH2 0x242 PUSH2 0x59C JUMP JUMPDEST PUSH2 0x1D6 PUSH32 0x0 DUP2 JUMP JUMPDEST PUSH2 0x1D6 PUSH32 0x0 DUP2 JUMP JUMPDEST PUSH2 0x1D6 PUSH2 0x3F9 CALLDATASIZE PUSH1 0x4 PUSH2 0x1479 JUMP JUMPDEST PUSH1 0x3 PUSH1 0x20 MSTORE PUSH1 0x0 SWAP1 DUP2 MSTORE PUSH1 0x40 SWAP1 KECCAK256 SLOAD DUP2 JUMP JUMPDEST PUSH2 0x1D6 PUSH2 0x5C8 JUMP JUMPDEST PUSH2 0x426 PUSH2 0x421 CALLDATASIZE PUSH1 0x4 PUSH2 0x14D6 JUMP JUMPDEST PUSH2 0x61F JUMP JUMPDEST PUSH1 0x40 MLOAD PUSH32 0xFFFFFFFF00000000000000000000000000000000000000000000000000000000 SWAP1 SWAP2 AND DUP2 MSTORE PUSH1 0x20 ADD PUSH2 0x1A6 JUMP JUMPDEST PUSH2 0x242 PUSH32 0x0 DUP2 JUMP JUMPDEST PUSH2 0x1D6 PUSH32 0x0 DUP2 JUMP JUMPDEST PUSH2 0x19A PUSH2 0x4B3 CALLDATASIZE PUSH1 0x4 PUSH2 0x1591 JUMP JUMPDEST PUSH1 0x2 PUSH1 0x20 MSTORE PUSH1 0x0 SWAP1 DUP2 MSTORE PUSH1 0x40 SWAP1 KECCAK256 SLOAD PUSH1 0xFF AND DUP2 JUMP JUMPDEST PUSH2 0x426 PUSH2 0x4D6 CALLDATASIZE PUSH1 0x4 PUSH2 0x15AA JUMP JUMPDEST PUSH2 0xA38 JUMP JUMPDEST PUSH2 0x21E PUSH2 0x4E9 CALLDATASIZE PUSH1 0x4 PUSH2 0x1479 JUMP JUMPDEST PUSH2 0xCD9 JUMP JUMPDEST PUSH2 0x1D6 PUSH2 0x4FC CALLDATASIZE PUSH1 0x4 PUSH2 0x1622 JUMP JUMPDEST PUSH1 0x1 PUSH1 0x20 SWAP1 DUP2 MSTORE PUSH1 0x0 SWAP3 DUP4 MSTORE PUSH1 0x40 DUP1 DUP5 KECCAK256 SWAP1 SWAP2 MSTORE SWAP1 DUP3 MSTORE SWAP1 KECCAK256 SLOAD DUP2 JUMP JUMPDEST PUSH1 0x0 PUSH2 0x52D DUP3 PUSH2 0x527 PUSH2 0xCF7 JUMP JUMPDEST SWAP1 PUSH2 0xD25 JUMP JUMPDEST SWAP3 SWAP2 POP POP JUMP JUMPDEST PUSH2 0x595 DUP5 DUP5 DUP1 DUP1 PUSH1 0x20 MUL PUSH1 0x20 ADD PUSH1 0x40 MLOAD SWAP1 DUP2 ADD PUSH1 0x40 MSTORE DUP1 SWAP4 SWAP3 SWAP2 SWAP1 DUP2 DUP2 MSTORE PUSH1 0x20 ADD DUP4 DUP4 PUSH1 0x20 MUL DUP1 DUP3 DUP5 CALLDATACOPY PUSH1 0x0 SWAP3 ADD DUP3 SWAP1 MSTORE POP PUSH20 0xFFFFFFFFFFFFFFFFFFFFFFFFFFFFFFFFFFFFFFFF DUP9 AND DUP2 MSTORE PUSH1 0x3 PUSH1 0x20 MSTORE PUSH1 0x40 SWAP1 KECCAK256 SLOAD DUP8 SWAP4 POP SWAP2 POP DUP6 SWAP1 POP PUSH2 0xDFF JUMP JUMPDEST POP POP POP POP POP JUMP JUMPDEST PUSH1 0x0 PUSH2 0x5C3 PUSH2 0x5A9 PUSH2 0x1047 JUMP JUMPDEST SLOAD PUSH20 0xFFFFFFFFFFFFFFFFFFFFFFFFFFFFFFFFFFFFFFFF AND SWAP1 JUMP JUMPDEST SWAP1 POP SWAP1 JUMP JUMPDEST PUSH1 0x0 PUSH32 0x0 PUSH2 0x615 PUSH32 0x0 TIMESTAMP PUSH2 0x167D JUMP JUMPDEST PUSH2 0x5C3 SWAP2 SWAP1 PUSH2 0x1690 JUMP JUMPDEST PUSH1 0x0 CALLER PUSH20 0xFFFFFFFFFFFFFFFFFFFFFFFFFFFFFFFFFFFFFFFF PUSH32 0x0 AND EQ PUSH2 0x690 JUMPI PUSH1 0x40 MLOAD PUSH32 0xC1AB6DC100000000000000000000000000000000000000000000000000000000 DUP2 MSTORE PUSH1 0x4 ADD PUSH1 0x40 MLOAD DUP1 SWAP2 SUB SWAP1 REVERT JUMPDEST PUSH1 0x0 PUSH2 0x69A PUSH2 0x5C8 JUMP JUMPDEST SWAP1 POP PUSH32 0x0 DUP2 GT ISZERO PUSH2 0x6FE JUMPI PUSH1 0x40 MLOAD PUSH32 0x764E560F00000000000000000000000000000000000000000000000000000000 DUP2 MSTORE PUSH1 0x4 DUP2 ADD DUP3 SWAP1 MSTORE PUSH1 0x24 ADD JUMPDEST PUSH1 0x40 MLOAD DUP1 SWAP2 SUB SWAP1 REVERT JUMPDEST PUSH1 0x0 DUP1 JUMPDEST DUP9 DUP2 LT ISZERO PUSH2 0x7E7 JUMPI PUSH1 0x0 PUSH1 0x4 PUSH1 0x0 DUP13 DUP13 DUP6 DUP2 DUP2 LT PUSH2 0x722 JUMPI PUSH2 0x722 PUSH2 0x16CB JUMP JUMPDEST SWAP1 POP PUSH1 0x20 MUL ADD CALLDATALOAD DUP2 MSTORE PUSH1 0x20 ADD SWAP1 DUP2 MSTORE PUSH1 0x20 ADD PUSH1 0x0 KECCAK256 SLOAD SWAP1 POP DUP1 PUSH1 0x0 SUB PUSH2 0x7AE JUMPI CALLER DUP12 DUP12 DUP5 DUP2 DUP2 LT PUSH2 0x755 JUMPI PUSH2 0x755 PUSH2 0x16CB JUMP JUMPDEST PUSH1 0x40 MLOAD PUSH32 0x1912EA5100000000000000000000000000000000000000000000000000000000 DUP2 MSTORE PUSH20 0xFFFFFFFFFFFFFFFFFFFFFFFFFFFFFFFFFFFFFFFF SWAP1 SWAP5 AND PUSH1 0x4 DUP6 ADD MSTORE PUSH1 0x20 MUL SWAP2 SWAP1 SWAP2 ADD CALLDATALOAD PUSH1 0x24 DUP4 ADD MSTORE POP PUSH1 0x44 ADD PUSH2 0x6F5 JUMP JUMPDEST DUP1 DUP10 DUP10 DUP5 DUP2 DUP2 LT PUSH2 0x7C1 JUMPI PUSH2 0x7C1 PUSH2 0x16CB JUMP JUMPDEST SWAP1 POP PUSH1 0x20 MUL ADD CALLDATALOAD PUSH2 0x7D2 SWAP2 SWAP1 PUSH2 0x16FA JUMP JUMPDEST PUSH2 0x7DC SWAP1 DUP5 PUSH2 0x1711 JUMP JUMPDEST SWAP3 POP POP PUSH1 0x1 ADD PUSH2 0x702 JUMP JUMPDEST POP PUSH20 0xFFFFFFFFFFFFFFFFFFFFFFFFFFFFFFFFFFFFFFFF DUP11 AND PUSH1 0x0 SWAP1 DUP2 MSTORE PUSH1 0x3 PUSH1 0x20 MSTORE PUSH1 0x40 SWAP1 KECCAK256 SLOAD PUSH1 0x80 DUP2 SWAP1 SHR DUP2 PUSH16 0xFFFFFFFFFFFFFFFFFFFFFFFFFFFFFFFF DUP2 AND ISZERO PUSH2 0x84B JUMPI PUSH2 0x848 PUSH16 0xFFFFFFFFFFFFFFFFFFFFFFFFFFFFFFFF DUP3 AND DUP6 PUSH2 0x16FA JUMP JUMPDEST SWAP4 POP JUMPDEST PUSH16 0xFFFFFFFFFFFFFFFFFFFFFFFFFFFFFFFF DUP3 AND ISZERO PUSH2 0x8AD JUMPI PUSH32 0x0 PUSH2 0x8A0 PUSH16 0xFFFFFFFFFFFFFFFFFFFFFFFFFFFFFFFF DUP5 AND DUP7 PUSH2 0x16FA JUMP JUMPDEST PUSH2 0x8AA SWAP2 SWAP1 PUSH2 0x1690 JUMP JUMPDEST SWAP4 POP JUMPDEST DUP4 PUSH1 0x1 PUSH1 0x0 DUP8 DUP2 MSTORE PUSH1 0x20 ADD SWAP1 DUP2 MSTORE PUSH1 0x20 ADD PUSH1 0x0 KECCAK256 PUSH1 0x0 DUP16 PUSH20 0xFFFFFFFFFFFFFFFFFFFFFFFFFFFFFFFFFFFFFFFF AND PUSH20 0xFFFFFFFFFFFFFFFFFFFFFFFFFFFFFFFFFFFFFFFF AND DUP2 MSTORE PUSH1 0x20 ADD SWAP1 DUP2 MSTORE PUSH1 0x20 ADD PUSH1 0x0 KECCAK256 PUSH1 0x0 DUP3 DUP3 SLOAD PUSH2 0x90D SWAP2 SWAP1 PUSH2 0x1711 JUMP JUMPDEST SWAP1 SWAP2 SSTORE POP POP PUSH1 0x0 DUP6 DUP2 MSTORE PUSH1 0x20 DUP2 SWAP1 MSTORE PUSH1 0x40 DUP2 KECCAK256 DUP1 SLOAD DUP7 SWAP3 SWAP1 PUSH2 0x930 SWAP1 DUP5 SWAP1 PUSH2 0x1711 JUMP JUMPDEST SWAP3 POP POP DUP2 SWAP1 SSTORE POP CALLER PUSH20 0xFFFFFFFFFFFFFFFFFFFFFFFFFFFFFFFFFFFFFFFF AND PUSH4 0x80534934 DUP15 DUP15 DUP15 DUP15 DUP15 PUSH1 0x40 MLOAD DUP7 PUSH4 0xFFFFFFFF AND PUSH1 0xE0 SHL DUP2 MSTORE PUSH1 0x4 ADD PUSH2 0x978 SWAP6 SWAP5 SWAP4 SWAP3 SWAP2 SWAP1 PUSH2 0x176F JUMP JUMPDEST PUSH1 0x0 PUSH1 0x40 MLOAD DUP1 DUP4 SUB DUP2 PUSH1 0x0 DUP8 DUP1 EXTCODESIZE ISZERO DUP1 ISZERO PUSH2 0x992 JUMPI PUSH1 0x0 DUP1 REVERT JUMPDEST POP GAS CALL ISZERO DUP1 ISZERO PUSH2 0x9A6 JUMPI RETURNDATASIZE PUSH1 0x0 DUP1 RETURNDATACOPY RETURNDATASIZE PUSH1 0x0 REVERT JUMPDEST POP POP POP POP DUP5 DUP14 PUSH20 0xFFFFFFFFFFFFFFFFFFFFFFFFFFFFFFFFFFFFFFFF AND PUSH32 0x12154D1BF24E3C99606A6E0A08972355A7A52B92D6F9093E67F843B070E06FF6 TIMESTAMP DUP16 DUP16 DUP16 DUP16 DUP12 DUP12 PUSH1 0x40 MLOAD PUSH2 0x9FD SWAP8 SWAP7 SWAP6 SWAP5 SWAP4 SWAP3 SWAP2 SWAP1 PUSH2 0x17BE JUMP JUMPDEST PUSH1 0x40 MLOAD DUP1 SWAP2 SUB SWAP1 LOG3 POP PUSH32 0xBC197C8100000000000000000000000000000000000000000000000000000000 SWAP14 SWAP13 POP POP POP POP POP POP POP POP POP POP POP POP POP JUMP JUMPDEST PUSH1 0x0 CALLER PUSH20 0xFFFFFFFFFFFFFFFFFFFFFFFFFFFFFFFFFFFFFFFF PUSH32 0x0 AND EQ PUSH2 0xAA9 JUMPI PUSH1 0x40 MLOAD PUSH32 0xC1AB6DC100000000000000000000000000000000000000000000000000000000 DUP2 MSTORE PUSH1 0x4 ADD PUSH1 0x40 MLOAD DUP1 SWAP2 SUB SWAP1 REVERT JUMPDEST PUSH32 0x0 DUP6 EQ PUSH2 0xB0B JUMPI PUSH1 0x40 MLOAD PUSH32 0x1912EA5100000000000000000000000000000000000000000000000000000000 DUP2 MSTORE CALLER PUSH1 0x4 DUP3 ADD MSTORE PUSH1 0x24 DUP2 ADD DUP7 SWAP1 MSTORE PUSH1 0x44 ADD PUSH2 0x6F5 JUMP JUMPDEST DUP4 PUSH1 0x1 EQ PUSH2 0xB4F JUMPI PUSH1 0x40 MLOAD PUSH32 0xF789EB2F00000000000000000000000000000000000000000000000000000000 DUP2 MSTORE PUSH1 0x4 DUP2 ADD DUP6 SWAP1 MSTORE PUSH1 0x1 PUSH1 0x24 DUP3 ADD MSTORE PUSH1 0x44 ADD PUSH2 0x6F5 JUMP JUMPDEST PUSH20 0xFFFFFFFFFFFFFFFFFFFFFFFFFFFFFFFFFFFFFFFF DUP7 AND PUSH1 0x0 SWAP1 DUP2 MSTORE PUSH1 0x3 PUSH1 0x20 MSTORE PUSH1 0x40 SWAP1 KECCAK256 SLOAD DUP3 ISZERO PUSH2 0xB9F JUMPI PUSH1 0x0 DUP1 PUSH2 0xB8A DUP6 DUP8 ADD DUP8 PUSH2 0x1831 JUMP JUMPDEST SWAP2 POP SWAP2 POP PUSH2 0xB9A DUP3 DUP11 DUP6 DUP5 PUSH2 0xDFF JUMP JUMPDEST SWAP3 POP POP POP JUMPDEST PUSH16 0xFFFFFFFFFFFFFFFFFFFFFFFFFFFFFFFF DUP2 AND ISZERO PUSH2 0xC01 JUMPI PUSH1 0x40 MLOAD PUSH32 0x3A0028700000000000000000000000000000000000000000000000000000000 DUP2 MSTORE PUSH20 0xFFFFFFFFFFFFFFFFFFFFFFFFFFFFFFFFFFFFFFFF DUP9 AND PUSH1 0x4 DUP3 ADD MSTORE PUSH1 0x24 ADD PUSH2 0x6F5 JUMP JUMPDEST PUSH20 0xFFFFFFFFFFFFFFFFFFFFFFFFFFFFFFFFFFFFFFFF DUP8 AND PUSH1 0x0 DUP2 DUP2 MSTORE PUSH1 0x3 PUSH1 0x20 SWAP1 DUP2 MSTORE PUSH1 0x40 SWAP2 DUP3 SWAP1 KECCAK256 PUSH32 0x0 PUSH32 0xFFFFFFFFFFFFFFFFFFFFFFFFFFFFFFFF00000000000000000000000000000000 DUP7 AND OR SWAP1 DUP2 SWAP1 SSTORE DUP3 MLOAD DUP6 DUP2 MSTORE SWAP2 DUP3 ADD DUP2 SWAP1 MSTORE SWAP3 SWAP2 PUSH32 0x54519572E3429998E82594D8B7F18C8099087447D701CBAA619B5E26F6DE47EB SWAP2 ADD PUSH1 0x40 MLOAD DUP1 SWAP2 SUB SWAP1 LOG2 POP PUSH32 0xF23A6E6100000000000000000000000000000000000000000000000000000000 SWAP9 SWAP8 POP POP POP POP POP POP POP POP JUMP JUMPDEST PUSH2 0xCF4 PUSH2 0xCE4 PUSH2 0x1075 JUMP JUMPDEST DUP3 PUSH2 0xCED PUSH2 0x1047 JUMP JUMPDEST SWAP2 SWAP1 PUSH2 0x107F JUMP JUMPDEST POP JUMP JUMPDEST PUSH1 0x0 DUP1 PUSH2 0x52D PUSH1 0x1 PUSH32 0xCA9D3E17F264B0F3984E2634E94ADB37FA3E6A8103F06AEAE6FA59E21C769F5E PUSH2 0x167D JUMP JUMPDEST PUSH1 0x0 PUSH29 0x100000000000000000000000000000000000000000000000000000000 PUSH32 0xFFFFFFFF00000000000000000000000000000000000000000000000000000000 DUP4 AND ADD PUSH2 0xD75 JUMPI POP PUSH1 0x0 PUSH2 0x52D JUMP JUMPDEST PUSH32 0xFE00365900000000000000000000000000000000000000000000000000000000 PUSH32 0xFFFFFFFF00000000000000000000000000000000000000000000000000000000 DUP4 AND ADD PUSH2 0xDC6 JUMPI POP PUSH1 0x1 PUSH2 0x52D JUMP JUMPDEST POP PUSH32 0xFFFFFFFF00000000000000000000000000000000000000000000000000000000 AND PUSH1 0x0 SWAP1 DUP2 MSTORE PUSH1 0x20 SWAP2 SWAP1 SWAP2 MSTORE PUSH1 0x40 SWAP1 KECCAK256 SLOAD PUSH1 0xFF AND SWAP1 JUMP JUMPDEST PUSH1 0x40 MLOAD PUSH32 0xFFFFFFFFFFFFFFFFFFFFFFFFFFFFFFFFFFFFFFFF000000000000000000000000 PUSH1 0x60 DUP6 SWAP1 SHL AND PUSH1 0x20 DUP3 ADD MSTORE PUSH1 0x34 DUP2 ADD DUP3 SWAP1 MSTORE PUSH1 0x0 SWAP1 DUP2 SWAP1 PUSH1 0x54 ADD PUSH1 0x40 DUP1 MLOAD PUSH32 0xFFFFFFFFFFFFFFFFFFFFFFFFFFFFFFFFFFFFFFFFFFFFFFFFFFFFFFFFFFFFFFE0 DUP2 DUP5 SUB ADD DUP2 MSTORE SWAP2 DUP2 MSTORE DUP2 MLOAD PUSH1 0x20 SWAP3 DUP4 ADD KECCAK256 PUSH1 0x0 DUP2 DUP2 MSTORE PUSH1 0x2 SWAP1 SWAP4 MSTORE SWAP2 KECCAK256 SLOAD SWAP1 SWAP2 POP PUSH1 0xFF AND ISZERO PUSH2 0xED5 JUMPI PUSH1 0x40 MLOAD PUSH32 0x18ED059000000000000000000000000000000000000000000000000000000000 DUP2 MSTORE PUSH20 0xFFFFFFFFFFFFFFFFFFFFFFFFFFFFFFFFFFFFFFFF DUP7 AND PUSH1 0x4 DUP3 ADD MSTORE PUSH1 0x24 ADD PUSH2 0x6F5 JUMP JUMPDEST PUSH2 0xF00 DUP7 PUSH32 0x0 DUP4 PUSH2 0x1194 JUMP JUMPDEST PUSH2 0xF36 JUMPI PUSH1 0x40 MLOAD PUSH32 0x9BDE33900000000000000000000000000000000000000000000000000000000 DUP2 MSTORE PUSH1 0x4 ADD PUSH1 0x40 MLOAD DUP1 SWAP2 SUB SWAP1 REVERT JUMPDEST PUSH1 0x80 DUP5 SWAP1 SHR DUP1 ISZERO PUSH2 0xF8B JUMPI PUSH1 0x40 MLOAD PUSH32 0x18ED059000000000000000000000000000000000000000000000000000000000 DUP2 MSTORE PUSH20 0xFFFFFFFFFFFFFFFFFFFFFFFFFFFFFFFFFFFFFFFF DUP8 AND PUSH1 0x4 DUP3 ADD MSTORE PUSH1 0x24 ADD PUSH2 0x6F5 JUMP JUMPDEST PUSH20 0xFFFFFFFFFFFFFFFFFFFFFFFFFFFFFFFFFFFFFFFF DUP7 AND PUSH1 0x0 DUP2 DUP2 MSTORE PUSH1 0x3 PUSH1 0x20 SWAP1 DUP2 MSTORE PUSH1 0x40 DUP1 DUP4 KECCAK256 PUSH16 0xFFFFFFFFFFFFFFFFFFFFFFFFFFFFFFFF DUP11 AND PUSH1 0x80 DUP11 SWAP1 SHL OR SWAP1 DUP2 SWAP1 SSTORE DUP7 DUP5 MSTORE PUSH1 0x2 DUP4 MSTORE SWAP3 DUP2 SWAP1 KECCAK256 DUP1 SLOAD PUSH32 0xFFFFFFFFFFFFFFFFFFFFFFFFFFFFFFFFFFFFFFFFFFFFFFFFFFFFFFFFFFFFFF00 AND PUSH1 0x1 OR SWAP1 SSTORE DUP1 MLOAD DUP10 DUP2 MSTORE SWAP2 DUP3 ADD DUP4 SWAP1 MSTORE SWAP2 SWAP6 POP PUSH32 0x54519572E3429998E82594D8B7F18C8099087447D701CBAA619B5E26F6DE47EB SWAP2 ADD PUSH1 0x40 MLOAD DUP1 SWAP2 SUB SWAP1 LOG2 POP POP SWAP5 SWAP4 POP POP POP POP JUMP JUMPDEST PUSH1 0x0 DUP1 PUSH2 0x52D PUSH1 0x1 PUSH32 0xC9ED16F33AB3A66C84BFD83099CCB2A8845871E2E1C1928F63797152F0FD54CD PUSH2 0x167D JUMP JUMPDEST PUSH1 0x0 PUSH2 0x5C3 PUSH2 0x11AA JUMP JUMPDEST DUP3 SLOAD PUSH20 0xFFFFFFFFFFFFFFFFFFFFFFFFFFFFFFFFFFFFFFFF SWAP1 DUP2 AND SWAP1 DUP4 AND DUP2 EQ PUSH2 0x10EC JUMPI PUSH1 0x40 MLOAD PUSH32 0x2EF4875E00000000000000000000000000000000000000000000000000000000 DUP2 MSTORE PUSH20 0xFFFFFFFFFFFFFFFFFFFFFFFFFFFFFFFFFFFFFFFF DUP5 AND PUSH1 0x4 DUP3 ADD MSTORE PUSH1 0x24 ADD PUSH2 0x6F5 JUMP JUMPDEST DUP2 PUSH20 0xFFFFFFFFFFFFFFFFFFFFFFFFFFFFFFFFFFFFFFFF AND DUP2 PUSH20 0xFFFFFFFFFFFFFFFFFFFFFFFFFFFFFFFFFFFFFFFF AND EQ PUSH2 0x118E JUMPI DUP4 SLOAD PUSH32 0xFFFFFFFFFFFFFFFFFFFFFFFF0000000000000000000000000000000000000000 AND PUSH20 0xFFFFFFFFFFFFFFFFFFFFFFFFFFFFFFFFFFFFFFFF DUP4 DUP2 AND SWAP2 DUP3 OR DUP7 SSTORE PUSH1 0x40 MLOAD SWAP1 DUP4 AND SWAP1 PUSH32 0x8BE0079C531659141344CD1FD0A4F28419497F9722A3DAAFE3B4186F6B6457E0 SWAP1 PUSH1 0x0 SWAP1 LOG3 JUMPDEST POP POP POP POP JUMP JUMPDEST PUSH1 0x0 DUP3 PUSH2 0x11A1 DUP6 DUP5 PUSH2 0x12F1 JUMP JUMPDEST EQ SWAP5 SWAP4 POP POP POP POP JUMP JUMPDEST PUSH1 0x0 CALLER ORIGIN EQ DUP1 PUSH2 0x11BA JUMPI POP PUSH1 0x18 CALLDATASIZE LT JUMPDEST ISZERO PUSH2 0x11C4 JUMPI POP CALLER SWAP1 JUMP JUMPDEST PUSH32 0xFFFFFFFFFFFFFFFFFFFFFFFFFFFFFFFFFFFFFFFFFFFFFFFFFFFFFFFFFFFFFFEC CALLDATASIZE ADD CALLDATALOAD PUSH1 0x60 SHR PUSH32 0x0 PUSH20 0xFFFFFFFFFFFFFFFFFFFFFFFFFFFFFFFFFFFFFFFF AND CALLER EQ DUP1 PUSH2 0x12E0 JUMPI POP PUSH1 0x40 MLOAD PUSH32 0x8929A8CA00000000000000000000000000000000000000000000000000000000 DUP2 MSTORE PUSH20 0xFFFFFFFFFFFFFFFFFFFFFFFFFFFFFFFFFFFFFFFF DUP3 DUP2 AND PUSH1 0x4 DUP4 ADD MSTORE CALLER PUSH1 0x24 DUP4 ADD MSTORE PUSH32 0x0 AND SWAP1 PUSH4 0x8929A8CA SWAP1 PUSH1 0x44 ADD PUSH1 0x20 PUSH1 0x40 MLOAD DUP1 DUP4 SUB DUP2 DUP7 GAS STATICCALL ISZERO DUP1 ISZERO PUSH2 0x12BC JUMPI RETURNDATASIZE PUSH1 0x0 DUP1 RETURNDATACOPY RETURNDATASIZE PUSH1 0x0 REVERT JUMPDEST POP POP POP POP PUSH1 0x40 MLOAD RETURNDATASIZE PUSH1 0x1F NOT PUSH1 0x1F DUP3 ADD AND DUP3 ADD DUP1 PUSH1 0x40 MSTORE POP DUP2 ADD SWAP1 PUSH2 0x12E0 SWAP2 SWAP1 PUSH2 0x1913 JUMP JUMPDEST ISZERO PUSH2 0x12EA JUMPI SWAP2 SWAP1 POP JUMP JUMPDEST CALLER SWAP2 POP POP SWAP1 JUMP JUMPDEST PUSH1 0x0 DUP2 DUP2 JUMPDEST DUP5 MLOAD DUP2 LT ISZERO PUSH2 0x132C JUMPI PUSH2 0x1322 DUP3 DUP7 DUP4 DUP2 MLOAD DUP2 LT PUSH2 0x1315 JUMPI PUSH2 0x1315 PUSH2 0x16CB JUMP JUMPDEST PUSH1 0x20 MUL PUSH1 0x20 ADD ADD MLOAD PUSH2 0x1334 JUMP JUMPDEST SWAP2 POP PUSH1 0x1 ADD PUSH2 0x12F6 JUMP JUMPDEST POP SWAP4 SWAP3 POP POP POP JUMP JUMPDEST PUSH1 0x0 DUP2 DUP4 LT PUSH2 0x1350 JUMPI PUSH1 0x0 DUP3 DUP2 MSTORE PUSH1 0x20 DUP5 SWAP1 MSTORE PUSH1 0x40 SWAP1 KECCAK256 PUSH2 0x135F JUMP JUMPDEST PUSH1 0x0 DUP4 DUP2 MSTORE PUSH1 0x20 DUP4 SWAP1 MSTORE PUSH1 0x40 SWAP1 KECCAK256 JUMPDEST SWAP4 SWAP3 POP POP POP JUMP JUMPDEST PUSH1 0x0 PUSH1 0x20 DUP3 DUP5 SUB SLT ISZERO PUSH2 0x1378 JUMPI PUSH1 0x0 DUP1 REVERT JUMPDEST DUP2 CALLDATALOAD PUSH32 0xFFFFFFFF00000000000000000000000000000000000000000000000000000000 DUP2 AND DUP2 EQ PUSH2 0x135F JUMPI PUSH1 0x0 DUP1 REVERT JUMPDEST PUSH1 0x0 DUP1 DUP4 PUSH1 0x1F DUP5 ADD SLT PUSH2 0x13BA JUMPI PUSH1 0x0 DUP1 REVERT JUMPDEST POP DUP2 CALLDATALOAD PUSH8 0xFFFFFFFFFFFFFFFF DUP2 GT ISZERO PUSH2 0x13D2 JUMPI PUSH1 0x0 DUP1 REVERT JUMPDEST PUSH1 0x20 DUP4 ADD SWAP2 POP DUP4 PUSH1 0x20 DUP3 PUSH1 0x5 SHL DUP6 ADD ADD GT ISZERO PUSH2 0x13ED JUMPI PUSH1 0x0 DUP1 REVERT JUMPDEST SWAP3 POP SWAP3 SWAP1 POP JUMP JUMPDEST DUP1 CALLDATALOAD PUSH20 0xFFFFFFFFFFFFFFFFFFFFFFFFFFFFFFFFFFFFFFFF DUP2 AND DUP2 EQ PUSH2 0x1418 JUMPI PUSH1 0x0 DUP1 REVERT JUMPDEST SWAP2 SWAP1 POP JUMP JUMPDEST PUSH1 0x0 DUP1 PUSH1 0x0 DUP1 PUSH1 0x60 DUP6 DUP8 SUB SLT ISZERO PUSH2 0x1433 JUMPI PUSH1 0x0 DUP1 REVERT JUMPDEST DUP5 CALLDATALOAD PUSH8 0xFFFFFFFFFFFFFFFF DUP2 GT ISZERO PUSH2 0x144A JUMPI PUSH1 0x0 DUP1 REVERT JUMPDEST PUSH2 0x1456 DUP8 DUP3 DUP9 ADD PUSH2 0x13A8 JUMP JUMPDEST SWAP1 SWAP6 POP SWAP4 POP PUSH2 0x1469 SWAP1 POP PUSH1 0x20 DUP7 ADD PUSH2 0x13F4 JUMP JUMPDEST SWAP4 SWAP7 SWAP3 SWAP6 POP SWAP3 SWAP4 PUSH1 0x40 ADD CALLDATALOAD SWAP3 POP POP JUMP JUMPDEST PUSH1 0x0 PUSH1 0x20 DUP3 DUP5 SUB SLT ISZERO PUSH2 0x148B JUMPI PUSH1 0x0 DUP1 REVERT JUMPDEST PUSH2 0x135F DUP3 PUSH2 0x13F4 JUMP JUMPDEST PUSH1 0x0 DUP1 DUP4 PUSH1 0x1F DUP5 ADD SLT PUSH2 0x14A6 JUMPI PUSH1 0x0 DUP1 REVERT JUMPDEST POP DUP2 CALLDATALOAD PUSH8 0xFFFFFFFFFFFFFFFF DUP2 GT ISZERO PUSH2 0x14BE JUMPI PUSH1 0x0 DUP1 REVERT JUMPDEST PUSH1 0x20 DUP4 ADD SWAP2 POP DUP4 PUSH1 0x20 DUP3 DUP6 ADD ADD GT ISZERO PUSH2 0x13ED JUMPI PUSH1 0x0 DUP1 REVERT JUMPDEST PUSH1 0x0 DUP1 PUSH1 0x0 DUP1 PUSH1 0x0 DUP1 PUSH1 0x0 DUP1 PUSH1 0xA0 DUP10 DUP12 SUB SLT ISZERO PUSH2 0x14F2 JUMPI PUSH1 0x0 DUP1 REVERT JUMPDEST PUSH2 0x14FB DUP10 PUSH2 0x13F4 JUMP JUMPDEST SWAP8 POP PUSH2 0x1509 PUSH1 0x20 DUP11 ADD PUSH2 0x13F4 JUMP JUMPDEST SWAP7 POP PUSH1 0x40 DUP10 ADD CALLDATALOAD PUSH8 0xFFFFFFFFFFFFFFFF DUP1 DUP3 GT ISZERO PUSH2 0x1526 JUMPI PUSH1 0x0 DUP1 REVERT JUMPDEST PUSH2 0x1532 DUP13 DUP4 DUP14 ADD PUSH2 0x13A8 JUMP JUMPDEST SWAP1 SWAP9 POP SWAP7 POP PUSH1 0x60 DUP12 ADD CALLDATALOAD SWAP2 POP DUP1 DUP3 GT ISZERO PUSH2 0x154B JUMPI PUSH1 0x0 DUP1 REVERT JUMPDEST PUSH2 0x1557 DUP13 DUP4 DUP14 ADD PUSH2 0x13A8 JUMP JUMPDEST SWAP1 SWAP7 POP SWAP5 POP PUSH1 0x80 DUP12 ADD CALLDATALOAD SWAP2 POP DUP1 DUP3 GT ISZERO PUSH2 0x1570 JUMPI PUSH1 0x0 DUP1 REVERT JUMPDEST POP PUSH2 0x157D DUP12 DUP3 DUP13 ADD PUSH2 0x1494 JUMP JUMPDEST SWAP10 SWAP13 SWAP9 SWAP12 POP SWAP7 SWAP10 POP SWAP5 SWAP8 SWAP4 SWAP7 SWAP3 SWAP6 SWAP5 POP POP POP JUMP JUMPDEST PUSH1 0x0 PUSH1 0x20 DUP3 DUP5 SUB SLT ISZERO PUSH2 0x15A3 JUMPI PUSH1 0x0 DUP1 REVERT JUMPDEST POP CALLDATALOAD SWAP2 SWAP1 POP JUMP JUMPDEST PUSH1 0x0 DUP1 PUSH1 0x0 DUP1 PUSH1 0x0 DUP1 PUSH1 0xA0 DUP8 DUP10 SUB SLT ISZERO PUSH2 0x15C3 JUMPI PUSH1 0x0 DUP1 REVERT JUMPDEST PUSH2 0x15CC DUP8 PUSH2 0x13F4 JUMP JUMPDEST SWAP6 POP PUSH2 0x15DA PUSH1 0x20 DUP9 ADD PUSH2 0x13F4 JUMP JUMPDEST SWAP5 POP PUSH1 0x40 DUP8 ADD CALLDATALOAD SWAP4 POP PUSH1 0x60 DUP8 ADD CALLDATALOAD SWAP3 POP PUSH1 0x80 DUP8 ADD CALLDATALOAD PUSH8 0xFFFFFFFFFFFFFFFF DUP2 GT ISZERO PUSH2 0x1604 JUMPI PUSH1 0x0 DUP1 REVERT JUMPDEST PUSH2 0x1610 DUP10 DUP3 DUP11 ADD PUSH2 0x1494 JUMP JUMPDEST SWAP8 SWAP11 SWAP7 SWAP10 POP SWAP5 SWAP8 POP SWAP3 SWAP6 SWAP4 SWAP5 SWAP3 POP POP POP JUMP JUMPDEST PUSH1 0x0 DUP1 PUSH1 0x40 DUP4 DUP6 SUB SLT ISZERO PUSH2 0x1635 JUMPI PUSH1 0x0 DUP1 REVERT JUMPDEST DUP3 CALLDATALOAD SWAP2 POP PUSH2 0x1645 PUSH1 0x20 DUP5 ADD PUSH2 0x13F4 JUMP JUMPDEST SWAP1 POP SWAP3 POP SWAP3 SWAP1 POP JUMP JUMPDEST PUSH32 0x4E487B7100000000000000000000000000000000000000000000000000000000 PUSH1 0x0 MSTORE PUSH1 0x11 PUSH1 0x4 MSTORE PUSH1 0x24 PUSH1 0x0 REVERT JUMPDEST DUP2 DUP2 SUB DUP2 DUP2 GT ISZERO PUSH2 0x52D JUMPI PUSH2 0x52D PUSH2 0x164E JUMP JUMPDEST PUSH1 0x0 DUP3 PUSH2 0x16C6 JUMPI PUSH32 0x4E487B7100000000000000000000000000000000000000000000000000000000 PUSH1 0x0 MSTORE PUSH1 0x12 PUSH1 0x4 MSTORE PUSH1 0x24 PUSH1 0x0 REVERT JUMPDEST POP DIV SWAP1 JUMP JUMPDEST PUSH32 0x4E487B7100000000000000000000000000000000000000000000000000000000 PUSH1 0x0 MSTORE PUSH1 0x32 PUSH1 0x4 MSTORE PUSH1 0x24 PUSH1 0x0 REVERT JUMPDEST DUP1 DUP3 MUL DUP2 ISZERO DUP3 DUP3 DIV DUP5 EQ OR PUSH2 0x52D JUMPI PUSH2 0x52D PUSH2 0x164E JUMP JUMPDEST DUP1 DUP3 ADD DUP1 DUP3 GT ISZERO PUSH2 0x52D JUMPI PUSH2 0x52D PUSH2 0x164E JUMP JUMPDEST DUP2 DUP4 MSTORE PUSH1 0x0 PUSH32 0x7FFFFFFFFFFFFFFFFFFFFFFFFFFFFFFFFFFFFFFFFFFFFFFFFFFFFFFFFFFFFFF DUP4 GT ISZERO PUSH2 0x1756 JUMPI PUSH1 0x0 DUP1 REVERT JUMPDEST DUP3 PUSH1 0x5 SHL DUP1 DUP4 PUSH1 0x20 DUP8 ADD CALLDATACOPY SWAP4 SWAP1 SWAP4 ADD PUSH1 0x20 ADD SWAP4 SWAP3 POP POP POP JUMP JUMPDEST PUSH20 0xFFFFFFFFFFFFFFFFFFFFFFFFFFFFFFFFFFFFFFFF DUP7 AND DUP2 MSTORE PUSH1 0x60 PUSH1 0x20 DUP3 ADD MSTORE PUSH1 0x0 PUSH2 0x179F PUSH1 0x60 DUP4 ADD DUP7 DUP9 PUSH2 0x1724 JUMP JUMPDEST DUP3 DUP2 SUB PUSH1 0x40 DUP5 ADD MSTORE PUSH2 0x17B2 DUP2 DUP6 DUP8 PUSH2 0x1724 JUMP JUMPDEST SWAP9 SWAP8 POP POP POP POP POP POP POP POP JUMP JUMPDEST DUP8 DUP2 MSTORE PUSH1 0xA0 PUSH1 0x20 DUP3 ADD MSTORE PUSH1 0x0 PUSH2 0x17D8 PUSH1 0xA0 DUP4 ADD DUP9 DUP11 PUSH2 0x1724 JUMP JUMPDEST DUP3 DUP2 SUB PUSH1 0x40 DUP5 ADD MSTORE PUSH2 0x17EB DUP2 DUP8 DUP10 PUSH2 0x1724 JUMP JUMPDEST PUSH1 0x60 DUP5 ADD SWAP6 SWAP1 SWAP6 MSTORE POP POP PUSH1 0x80 ADD MSTORE SWAP6 SWAP5 POP POP POP POP POP JUMP JUMPDEST PUSH32 0x4E487B7100000000000000000000000000000000000000000000000000000000 PUSH1 0x0 MSTORE PUSH1 0x41 PUSH1 0x4 MSTORE PUSH1 0x24 PUSH1 0x0 REVERT JUMPDEST PUSH1 0x0 DUP1 PUSH1 0x40 DUP4 DUP6 SUB SLT ISZERO PUSH2 0x1844 JUMPI PUSH1 0x0 DUP1 REVERT JUMPDEST DUP3 CALLDATALOAD PUSH8 0xFFFFFFFFFFFFFFFF DUP1 DUP3 GT ISZERO PUSH2 0x185C JUMPI PUSH1 0x0 DUP1 REVERT JUMPDEST DUP2 DUP6 ADD SWAP2 POP DUP6 PUSH1 0x1F DUP4 ADD SLT PUSH2 0x1870 JUMPI PUSH1 0x0 DUP1 REVERT JUMPDEST DUP2 CALLDATALOAD PUSH1 0x20 DUP3 DUP3 GT ISZERO PUSH2 0x1884 JUMPI PUSH2 0x1884 PUSH2 0x1802 JUMP JUMPDEST DUP2 PUSH1 0x5 SHL PUSH1 0x40 MLOAD PUSH32 0xFFFFFFFFFFFFFFFFFFFFFFFFFFFFFFFFFFFFFFFFFFFFFFFFFFFFFFFFFFFFFFE0 PUSH1 0x3F DUP4 ADD AND DUP2 ADD DUP2 DUP2 LT DUP7 DUP3 GT OR ISZERO PUSH2 0x18C7 JUMPI PUSH2 0x18C7 PUSH2 0x1802 JUMP JUMPDEST PUSH1 0x40 MSTORE SWAP3 DUP4 MSTORE DUP2 DUP4 ADD SWAP4 POP DUP5 DUP2 ADD DUP3 ADD SWAP3 DUP10 DUP5 GT ISZERO PUSH2 0x18E5 JUMPI PUSH1 0x0 DUP1 REVERT JUMPDEST SWAP5 DUP3 ADD SWAP5 JUMPDEST DUP4 DUP7 LT ISZERO PUSH2 0x1903 JUMPI DUP6 CALLDATALOAD DUP6 MSTORE SWAP5 DUP3 ADD SWAP5 SWAP4 DUP3 ADD SWAP4 PUSH2 0x18EA JUMP JUMPDEST SWAP10 SWAP8 SWAP1 SWAP2 ADD CALLDATALOAD SWAP8 POP POP POP POP POP POP POP JUMP JUMPDEST PUSH1 0x0 PUSH1 0x20 DUP3 DUP5 SUB SLT ISZERO PUSH2 0x1925 JUMPI PUSH1 0x0 DUP1 REVERT JUMPDEST DUP2 MLOAD DUP1 ISZERO ISZERO DUP2 EQ PUSH2 0x135F JUMPI PUSH1 0x0 DUP1 REVERT INVALID LOG2 PUSH5 0x6970667358 0x22 SLT KECCAK256 0xAF 0xEA PUSH32 0x5FF0433CAA3BB6A4D0AED4EDD8C96EF1F8C7F4875C502E2A628C71FD4464736F PUSH13 0x63430008160033000000000000 "},"gasEstimates":{"creation":{"codeDepositCost":"1301400","executionCost":"infinite","totalCost":"infinite"},"external":{"CYCLE_DURATION()":"infinite","DENOMINATOR()":"infinite","INITIAL_TIME()":"infinite","MAX_CYCLE()":"infinite","MERKLE_ROOT()":"infinite","MISSING_ORB()":"infinite","MISSING_ORB_MULTIPLIER()":"infinite","MISSING_ORB_TOKEN_ID()":"infinite","SOURCE_TOKEN()":"infinite","currentCycle()":"infinite","forwarderRegistry()":"infinite","getMultiplierInfo(address)":"2652","isTrustedForwarder(address)":"infinite","leafConsumptionStatus(bytes32)":"2528","multiplierInfos(address)":"2552","onERC1155BatchReceived(address,address,uint256[],uint256[],bytes)":"infinite","onERC1155Received(address,address,uint256,uint256,bytes)":"infinite","owner()":"infinite","setAnichessGameMultiplierNumerator(bytes32[],address,uint256)":"infinite","supportsInterface(bytes4)":"infinite","transferOwnership(address)":"infinite","userAshByCycle(uint256,address)":"2693"},"internal":{"_msgData()":"infinite","_msgSender()":"infinite","_setAnichessGameMultiplierNumerator(bytes32[] memory,address,uint256,uint256)":"infinite","_setTokenWeights(uint256[] memory,uint256[] memory)":"infinite"}},"methodIdentifiers":{"CYCLE_DURATION()":"cd421fbf","DENOMINATOR()":"918f8674","INITIAL_TIME()":"491bde66","MAX_CYCLE()":"043063bc","MERKLE_ROOT()":"51e75e8b","MISSING_ORB()":"cd18a34f","MISSING_ORB_MULTIPLIER()":"a018e659","MISSING_ORB_TOKEN_ID()":"1de0e40b","SOURCE_TOKEN()":"72d69aa0","currentCycle()":"bab2f552","forwarderRegistry()":"2b4c9f16","getMultiplierInfo(address)":"7e26d0cd","isTrustedForwarder(address)":"572b6c05","leafConsumptionStatus(bytes32)":"e1c96c20","multiplierInfos(address)":"b28fd6e6","onERC1155BatchReceived(address,address,uint256[],uint256[],bytes)":"bc197c81","onERC1155Received(address,address,uint256,uint256,bytes)":"f23a6e61","owner()":"8da5cb5b","setAnichessGameMultiplierNumerator(bytes32[],address,uint256)":"24190c6e","supportsInterface(bytes4)":"01ffc9a7","transferOwnership(address)":"f2fde38b","userAshByCycle(uint256,address)":"fa9fdc6a"}},"storageLayout":{"storage":[{"astId":1896,"contract":"contracts/burn/AnichessOrbsBurnPool.sol:AnichessOrbsBurnPool","label":"totalAshByCycle","offset":0,"slot":"0","type":"t_mapping(t_uint256,t_uint256)"},{"astId":1903,"contract":"contracts/burn/AnichessOrbsBurnPool.sol:AnichessOrbsBurnPool","label":"userAshByCycle","offset":0,"slot":"1","type":"t_mapping(t_uint256,t_mapping(t_address,t_uint256))"},{"astId":1908,"contract":"contracts/burn/AnichessOrbsBurnPool.sol:AnichessOrbsBurnPool","label":"leafConsumptionStatus","offset":0,"slot":"2","type":"t_mapping(t_bytes32,t_bool)"},{"astId":1913,"contract":"contracts/burn/AnichessOrbsBurnPool.sol:AnichessOrbsBurnPool","label":"multiplierInfos","offset":0,"slot":"3","type":"t_mapping(t_address,t_uint256)"},{"astId":1918,"contract":"contracts/burn/AnichessOrbsBurnPool.sol:AnichessOrbsBurnPool","label":"tokenWeights","offset":0,"slot":"4","type":"t_mapping(t_uint256,t_uint256)"}],"types":{"t_address":{"encoding":"inplace","label":"address","numberOfBytes":"20"},"t_bool":{"encoding":"inplace","label":"bool","numberOfBytes":"1"},"t_bytes32":{"encoding":"inplace","label":"bytes32","numberOfBytes":"32"},"t_mapping(t_address,t_uint256)":{"encoding":"mapping","key":"t_address","label":"mapping(address => uint256)","numberOfBytes":"32","value":"t_uint256"},"t_mapping(t_bytes32,t_bool)":{"encoding":"mapping","key":"t_bytes32","label":"mapping(bytes32 => bool)","numberOfBytes":"32","value":"t_bool"},"t_mapping(t_uint256,t_mapping(t_address,t_uint256))":{"encoding":"mapping","key":"t_uint256","label":"mapping(uint256 => mapping(address => uint256))","numberOfBytes":"32","value":"t_mapping(t_address,t_uint256)"},"t_mapping(t_uint256,t_uint256)":{"encoding":"mapping","key":"t_uint256","label":"mapping(uint256 => uint256)","numberOfBytes":"32","value":"t_uint256"},"t_uint256":{"encoding":"inplace","label":"uint256","numberOfBytes":"32"}}},"userdoc":{"errors":{"AlreadySetAnichessGameMultiplierNumerator(address)":[{"notice":"Error thrown when the payout has already been claimed."}],"AlreadySetTokenWeight(uint256)":[{"notice":"Error thrown when the token weight is already set."}],"AlreadyUnlockedTokenMultiplier(address)":[{"notice":"Error thrown when the wallet already has the token multiplier unlocked."}],"IllegalInterfaceId()":[{"notice":"Thrown when setting the illegal interfaceId 0xffffffff."}],"InconsistentArrays()":[{"notice":"Error thrown when the array lengths are inconsistent."}],"InvalidCycle(uint256)":[{"notice":"Error thrown when the cycle is invalid."}],"InvalidProof()":[{"notice":"Error thrown when the proof is invalid."}],"InvalidToken()":[{"notice":"Error thrown when the token is not approved."}],"InvalidTokenAmount(uint256,uint256)":[{"notice":"Error thrown when the token amount is invalid."}],"InvalidTokenId(address,uint256)":[{"notice":"Error thrown when the token ID is invalid."}],"NotContractOwner(address)":[{"notice":"Thrown when an account is not the contract owner but is required to."}]},"events":{"AshGenerated(address,uint256,uint256,uint256[],uint256[],uint256,uint256)":{"notice":"Event emitted when ASHes are generated."},"OwnershipTransferred(address,address)":{"notice":"Emitted when the contract ownership changes."},"UpdateMultiplierInfo(address,uint256,uint256)":{"notice":"Event emitted when the multiplier info is updated."}},"kind":"user","methods":{"CYCLE_DURATION()":{"notice":"The duration of each cycle."},"INITIAL_TIME()":{"notice":"The initial time of the contract."},"MAX_CYCLE()":{"notice":"The maximum cycle."},"MERKLE_ROOT()":{"notice":"The Merkle root for setting the anichess game multiplier."},"MISSING_ORB()":{"notice":"The IERC1155 erc1155 contract for unlocking the token multiplier."},"MISSING_ORB_MULTIPLIER()":{"notice":"The token multiplier."},"MISSING_ORB_TOKEN_ID()":{"notice":"The token ID for unlocking the token multiplier."},"SOURCE_TOKEN()":{"notice":"The IERC1155Burnable erc1155 contracts burn to generate ASH."},"constructor":{"notice":"Constructor for the AnichessOrbsBurnPool contract."},"currentCycle()":{"notice":"Get the current cycle."},"isTrustedForwarder(address)":{"notice":"Checks whether a forwarder is trusted."},"leafConsumptionStatus(bytes32)":{"notice":"The merkle leaf consumption status for the anichess game multiplier."},"multiplierInfos(address)":{"notice":"The multiplier info for each user, first 128 bits are the anichess game multiplier numerator, last 128 bits are the token multiplier."},"onERC1155BatchReceived(address,address,uint256[],uint256[],bytes)":{"notice":"Burn the tokens and calculate the ash."},"onERC1155Received(address,address,uint256,uint256,bytes)":{"notice":"Unlock the token multiplier by burning the multiplier token."},"owner()":{"notice":"Gets the address of the contract owner."},"setAnichessGameMultiplierNumerator(bytes32[],address,uint256)":{"notice":"Set the AnichessGame multiplier"},"supportsInterface(bytes4)":{"notice":"Returns whether this contract implements a given interface."},"transferOwnership(address)":{"notice":"Sets the address of the new contract owner."},"userAshByCycle(uint256,address)":{"notice":"The total amount of ASH burned by each user in each cycle."}},"version":1}}}}