{"contracts/mocks/burn/AnichessOrbsBurnPoolMock.sol":{"AnichessOrbsBurnPoolMock":{"abi":[{"inputs":[{"internalType":"uint256","name":"initialTime","type":"uint256"},{"internalType":"uint256","name":"cycleDuration","type":"uint256"},{"internalType":"uint256","name":"maxCycle","type":"uint256"},{"internalType":"contract IERC1155Burnable","name":"orbOfPower","type":"address"},{"internalType":"bytes32","name":"merkleRoot","type":"bytes32"},{"internalType":"contract IERC1155Burnable","name":"missingOrb","type":"address"},{"internalType":"contract IForwarderRegistry","name":"forwarderRegistry","type":"address"}],"stateMutability":"nonpayable","type":"constructor"},{"inputs":[{"internalType":"bytes32","name":"leaf","type":"bytes32"}],"name":"AlreadyConsumedLeaf","type":"error"},{"inputs":[{"internalType":"address","name":"recipient","type":"address"}],"name":"AlreadySetAnichessGameMultiplierNumerator","type":"error"},{"inputs":[{"internalType":"address","name":"wallet","type":"address"}],"name":"AlreadySetTokenMultiplier","type":"error"},{"inputs":[],"name":"IllegalInterfaceId","type":"error"},{"inputs":[{"internalType":"uint256","name":"cycle","type":"uint256"}],"name":"InvalidCycle","type":"error"},{"inputs":[],"name":"InvalidProof","type":"error"},{"inputs":[{"internalType":"address","name":"token","type":"address"}],"name":"InvalidToken","type":"error"},{"inputs":[{"internalType":"address","name":"token","type":"address"},{"internalType":"uint256","name":"tokenId","type":"uint256"}],"name":"InvalidTokenId","type":"error"},{"inputs":[{"internalType":"uint256","name":"value","type":"uint256"},{"internalType":"uint256","name":"expectedValue","type":"uint256"}],"name":"InvalidTokenValue","type":"error"},{"inputs":[],"name":"ZeroCycleDuration","type":"error"},{"inputs":[],"name":"ZeroMaxCycle","type":"error"},{"anonymous":false,"inputs":[{"indexed":true,"internalType":"address","name":"burner","type":"address"},{"indexed":true,"internalType":"uint256","name":"cycle","type":"uint256"},{"indexed":false,"internalType":"uint256[]","name":"ids","type":"uint256[]"},{"indexed":false,"internalType":"uint256[]","name":"values","type":"uint256[]"},{"indexed":false,"internalType":"uint256","name":"ash","type":"uint256"},{"indexed":false,"internalType":"uint256","name":"multiplierInfo","type":"uint256"}],"name":"GenerateAsh","type":"event"},{"anonymous":false,"inputs":[{"indexed":true,"internalType":"address","name":"recipient","type":"address"},{"indexed":false,"internalType":"uint256","name":"curr","type":"uint256"},{"indexed":false,"internalType":"uint256","name":"updated","type":"uint256"}],"name":"UpdateMultiplierInfo","type":"event"},{"inputs":[],"name":"CYCLE_DURATION","outputs":[{"internalType":"uint256","name":"","type":"uint256"}],"stateMutability":"view","type":"function"},{"inputs":[],"name":"INITIAL_TIME","outputs":[{"internalType":"uint256","name":"","type":"uint256"}],"stateMutability":"view","type":"function"},{"inputs":[],"name":"MAX_CYCLE","outputs":[{"internalType":"uint256","name":"","type":"uint256"}],"stateMutability":"view","type":"function"},{"inputs":[],"name":"MERKLE_ROOT","outputs":[{"internalType":"bytes32","name":"","type":"bytes32"}],"stateMutability":"view","type":"function"},{"inputs":[],"name":"MISSING_ORB","outputs":[{"internalType":"contract IERC1155Burnable","name":"","type":"address"}],"stateMutability":"view","type":"function"},{"inputs":[],"name":"ORB_OF_POWER","outputs":[{"internalType":"contract IERC1155Burnable","name":"","type":"address"}],"stateMutability":"view","type":"function"},{"inputs":[],"name":"TOKEN_MULTIPLIER","outputs":[{"internalType":"uint256","name":"","type":"uint256"}],"stateMutability":"view","type":"function"},{"inputs":[],"name":"__msgData","outputs":[{"internalType":"bytes","name":"","type":"bytes"}],"stateMutability":"view","type":"function"},{"inputs":[],"name":"__msgSender","outputs":[{"internalType":"address","name":"","type":"address"}],"stateMutability":"view","type":"function"},{"inputs":[],"name":"currentCycle","outputs":[{"internalType":"uint256","name":"","type":"uint256"}],"stateMutability":"view","type":"function"},{"inputs":[],"name":"forwarderRegistry","outputs":[{"internalType":"contract IForwarderRegistry","name":"","type":"address"}],"stateMutability":"view","type":"function"},{"inputs":[{"internalType":"address","name":"forwarder","type":"address"}],"name":"isTrustedForwarder","outputs":[{"internalType":"bool","name":"","type":"bool"}],"stateMutability":"view","type":"function"},{"inputs":[{"internalType":"bytes32","name":"","type":"bytes32"}],"name":"leafConsumptionStatus","outputs":[{"internalType":"bool","name":"","type":"bool"}],"stateMutability":"view","type":"function"},{"inputs":[{"internalType":"address","name":"","type":"address"}],"name":"multiplierInfos","outputs":[{"internalType":"uint256","name":"","type":"uint256"}],"stateMutability":"view","type":"function"},{"inputs":[{"internalType":"address","name":"","type":"address"},{"internalType":"address","name":"from","type":"address"},{"internalType":"uint256[]","name":"ids","type":"uint256[]"},{"internalType":"uint256[]","name":"values","type":"uint256[]"},{"internalType":"bytes","name":"data","type":"bytes"}],"name":"onERC1155BatchReceived","outputs":[{"internalType":"bytes4","name":"","type":"bytes4"}],"stateMutability":"nonpayable","type":"function"},{"inputs":[{"internalType":"address","name":"","type":"address"},{"internalType":"address","name":"from","type":"address"},{"internalType":"uint256","name":"id","type":"uint256"},{"internalType":"uint256","name":"value","type":"uint256"},{"internalType":"bytes","name":"data","type":"bytes"}],"name":"onERC1155Received","outputs":[{"internalType":"bytes4","name":"","type":"bytes4"}],"stateMutability":"nonpayable","type":"function"},{"inputs":[{"internalType":"bytes4","name":"interfaceId","type":"bytes4"}],"name":"supportsInterface","outputs":[{"internalType":"bool","name":"","type":"bool"}],"stateMutability":"view","type":"function"},{"inputs":[{"internalType":"uint256","name":"","type":"uint256"}],"name":"totalAshPerCycle","outputs":[{"internalType":"uint256","name":"","type":"uint256"}],"stateMutability":"view","type":"function"},{"inputs":[{"internalType":"uint256","name":"","type":"uint256"},{"internalType":"address","name":"","type":"address"}],"name":"userAshPerCycle","outputs":[{"internalType":"uint256","name":"","type":"uint256"}],"stateMutability":"view","type":"function"}],"devdoc":{"kind":"dev","methods":{"__msgData()":{"returns":{"_0":"The current msg.data value."}},"currentCycle()":{"returns":{"_0":"cycle The current cycle."}},"isTrustedForwarder(address)":{"params":{"forwarder":"The forwarder to check."},"returns":{"_0":"True if `forwarder` is trusted, false if not."}},"onERC1155BatchReceived(address,address,uint256[],uint256[],bytes)":{"details":"Throws if the token is invalid.Throws if the cycle is invalid.Throws if the token ID is invalid.Throws if the token amount is invalid.","params":{"data":"The merkle proof data and multiplier value for setting the token multiplier.","from":"The wallet address.","ids":"The token IDs to burn.","values":"The amount of tokens to burn."},"returns":{"_0":"The ERC1155Received selector."}},"onERC1155Received(address,address,uint256,uint256,bytes)":{"details":"Throws if the token is invalid.Throws if the cycle is invalid.Throws if the token ID is invalid.Throws if the token amount is invalid.Throws if the token multiplier has already been set.","params":{"data":"The merkle proof data and multiplier value for setting the token multiplier.","from":"The wallet address.","id":"The token ID.","value":"The token value."},"returns":{"_0":"The ERC1155Received selector."}},"supportsInterface(bytes4)":{"details":"Note: This function call must use less than 30 000 gas.","params":{"interfaceId":"the interface identifier to test."},"returns":{"_0":"True if the interface is supported, false if `interfaceId` is `0xffffffff` or if the interface is not supported."}}},"version":1},"evm":{"bytecode":{"linkReferences":{},"object":"6101606040523480156200001257600080fd5b5060405162001cb238038062001cb2833981016040819052620000359162000194565b6001600160a01b0381166080528686868686868662000069630271189760e51b600162000061620000e8565b91906200011e565b60e08790526000869003620000915760405163b870efbd60e01b815260040160405180910390fd5b6101008690526000859003620000ba57604051637e5e559b60e11b815260040160405180910390fd5b5061012093909352610140526001600160a01b0391821660c0521660a0525062000231975050505050505050565b6000806200011860017fca9d3e17f264b0f3984e2634e94adb37fa3e6a8103f06aeae6fa59e21c769f5e6200020f565b92915050565b600160e01b6001600160e01b03198316016200014d576040516372c683bb60e01b815260040160405180910390fd5b6001600160e01b03199190911660009081526020929092526040909120805460ff1916911515919091179055565b6001600160a01b03811681146200019157600080fd5b50565b600080600080600080600060e0888a031215620001b057600080fd5b8751965060208801519550604088015194506060880151620001d2816200017b565b608089015160a08a01519195509350620001ec816200017b565b60c0890151909250620001ff816200017b565b8091505092959891949750929550565b818103818111156200011857634e487b7160e01b600052601160045260246000fd5b60805160a05160c05160e0516101005161012051610140516119cb620002e76000396000818161029a0152610ede0152600081816101830152818161053001526109c10152600081816103c10152610452015260008181610248015261047601526000818161039a01526108d30152600081816101b8015281816104c40152610dd5015260008181610209015281816102cc01528181611081015281816110bf0152818161120d015261129501526119cb6000f3fe608060405234801561001057600080fd5b50600436106101515760003560e01c8063572b6c05116100cd578063cd18a34f11610081578063d1a91ff211610066578063d1a91ff2146103e3578063e1c96c20146103eb578063f23a6e611461040e57600080fd5b8063cd18a34f14610395578063cd421fbf146103bc57600080fd5b8063b28fd6e6116100b2578063b28fd6e614610329578063bab2f55214610349578063bc197c811461035157600080fd5b8063572b6c05146102bc578063ab504e731461030957600080fd5b80632b4c9f1611610124578063491bde6611610109578063491bde66146102435780634dac1c2b1461026a57806351e75e8b1461029557600080fd5b80632b4c9f161461020757806331e66e1e1461022d57600080fd5b806301ffc9a714610156578063043063bc1461017e57806328a979cf146101b35780632b093fe9146101ff575b600080fd5b6101696101643660046113b7565b610421565b60405190151581526020015b60405180910390f35b6101a57f000000000000000000000000000000000000000000000000000000000000000081565b604051908152602001610175565b6101da7f000000000000000000000000000000000000000000000000000000000000000081565b60405173ffffffffffffffffffffffffffffffffffffffff9091168152602001610175565b6101a5600281565b7f00000000000000000000000000000000000000000000000000000000000000006101da565b61023561043b565b6040516101759291906113f9565b6101a57f000000000000000000000000000000000000000000000000000000000000000081565b6101a561027836600461146a565b600160209081526000928352604080842090915290825290205481565b6101a57f000000000000000000000000000000000000000000000000000000000000000081565b6101696102ca366004611496565b7f000000000000000000000000000000000000000000000000000000000000000073ffffffffffffffffffffffffffffffffffffffff90811691161490565b6101a56103173660046114b1565b60006020819052908152604090205481565b6101a5610337366004611496565b60036020526000908152604090205481565b6101a561044e565b61036461035f366004611558565b6104aa565b6040517fffffffff000000000000000000000000000000000000000000000000000000009091168152602001610175565b6101da7f000000000000000000000000000000000000000000000000000000000000000081565b6101a57f000000000000000000000000000000000000000000000000000000000000000081565b6101da6108af565b6101696103f93660046114b1565b60026020526000908152604090205460ff1681565b61036461041c366004611613565b6108b9565b60006104358261042f610c13565b90610c41565b92915050565b366000610446610d1b565b915091509091565b60007f000000000000000000000000000000000000000000000000000000000000000061049b7f0000000000000000000000000000000000000000000000000000000000000000426116ba565b6104a591906116cd565b905090565b60003373ffffffffffffffffffffffffffffffffffffffff7f00000000000000000000000000000000000000000000000000000000000000001614610522576040517f961c9a4f0000000000000000000000000000000000000000000000000000000081523360048201526024015b60405180910390fd5b600061052c61044e565b90507f000000000000000000000000000000000000000000000000000000000000000081111561058b576040517f764e560f00000000000000000000000000000000000000000000000000000000815260048101829052602401610519565b6000805b88811015610666578787828181106105a9576105a9611708565b9050602002013560000361060e578787828181106105c9576105c9611708565b6040517ff3cc8ce40000000000000000000000000000000000000000000000000000000081526020909102929092013560048301525060006024820152604401610519565b61062f8a8a8381811061062357610623611708565b90506020020135610d26565b88888381811061064157610641611708565b905060200201356106529190611737565b61065c908361174e565b915060010161058f565b5073ffffffffffffffffffffffffffffffffffffffff8a1660009081526003602052604090205484156106b7576000806106a287890189611790565b915091506106b2828e8584610e0e565b925050505b6fffffffffffffffffffffffffffffffff8116608082901c81156106e2576106df8285611737565b93505b6fffffffffffffffffffffffffffffffff811615610726576127106107196fffffffffffffffffffffffffffffffff831686611737565b61072391906116cd565b93505b836001600087815260200190815260200160002060008f73ffffffffffffffffffffffffffffffffffffffff1673ffffffffffffffffffffffffffffffffffffffff1681526020019081526020016000206000828254610786919061174e565b9091555050600085815260208190526040812080548692906107a990849061174e565b925050819055503373ffffffffffffffffffffffffffffffffffffffff166380534934308e8e8e8e6040518663ffffffff1660e01b81526004016107f19594939291906118bd565b600060405180830381600087803b15801561080b57600080fd5b505af115801561081f573d6000803e3d6000fd5b50505050848d73ffffffffffffffffffffffffffffffffffffffff167f607d04b62b6720200ee29c63ac2e4b0aa4024c85f7b80181ac61d6bb6f5e797a8e8e8e8e8a8a6040516108749695949392919061190c565b60405180910390a3507fbc197c81000000000000000000000000000000000000000000000000000000009d9c50505050505050505050505050565b60006104a5611040565b60003373ffffffffffffffffffffffffffffffffffffffff7f0000000000000000000000000000000000000000000000000000000000000000161461092c576040517f961c9a4f000000000000000000000000000000000000000000000000000000008152336004820152602401610519565b6001851461096f576040517f1912ea5100000000000000000000000000000000000000000000000000000000815233600482015260248101869052604401610519565b836001146109b3576040517ff3cc8ce40000000000000000000000000000000000000000000000000000000081526004810185905260016024820152604401610519565b60006109bd61044e565b90507f0000000000000000000000000000000000000000000000000000000000000000811115610a1c576040517f764e560f00000000000000000000000000000000000000000000000000000000815260048101829052602401610519565b73ffffffffffffffffffffffffffffffffffffffff87166000908152600360205260409020546fffffffffffffffffffffffffffffffff811615610aa4576040517f55c9045d00000000000000000000000000000000000000000000000000000000815273ffffffffffffffffffffffffffffffffffffffff89166004820152602401610519565b73ffffffffffffffffffffffffffffffffffffffff881660009081526003602052604090207fffffffffffffffffffffffffffffffff000000000000000000000000000000008216600217908190558415610b1c57600080610b0887890189611790565b91509150610b18828c8584610e0e565b5050505b6040517f124d91e50000000000000000000000000000000000000000000000000000000081523060048201526024810189905260448101889052339063124d91e590606401600060405180830381600087803b158015610b7b57600080fd5b505af1158015610b8f573d6000803e3d6000fd5b5050604080518581526020810185905273ffffffffffffffffffffffffffffffffffffffff8d1693507f54519572e3429998e82594d8b7f18c8099087447d701cbaa619b5e26f6de47eb92500160405180910390a2507ff23a6e61000000000000000000000000000000000000000000000000000000009998505050505050505050565b60008061043560017fca9d3e17f264b0f3984e2634e94adb37fa3e6a8103f06aeae6fa59e21c769f5e6116ba565b60007c01000000000000000000000000000000000000000000000000000000007fffffffff00000000000000000000000000000000000000000000000000000000831601610c9157506000610435565b7ffe003659000000000000000000000000000000000000000000000000000000007fffffffff00000000000000000000000000000000000000000000000000000000831601610ce257506001610435565b507fffffffff00000000000000000000000000000000000000000000000000000000166000908152602091909152604090205460ff1690565b36600061044661104a565b600081600103610d3857506001919050565b81600203610d4857506003919050565b81600303610d5857506003919050565b81600403610d6857506005919050565b81600503610d7857506009919050565b81600603610d8857506019919050565b81600703610d9857506010919050565b6040517f1912ea5100000000000000000000000000000000000000000000000000000000815273ffffffffffffffffffffffffffffffffffffffff7f000000000000000000000000000000000000000000000000000000000000000016600482015260248101839052604401610519565b919050565b6000608083901c15610e64576040517f18ed059000000000000000000000000000000000000000000000000000000000815273ffffffffffffffffffffffffffffffffffffffff85166004820152602401610519565b6040517fffffffffffffffffffffffffffffffffffffffff000000000000000000000000606086901b16602082015260348101839052600090605401604080517fffffffffffffffffffffffffffffffffffffffffffffffffffffffffffffffe081840301815291905280516020909101209050610f03867f0000000000000000000000000000000000000000000000000000000000000000836111b4565b610f39576040517f09bde33900000000000000000000000000000000000000000000000000000000815260040160405180910390fd5b60008181526002602052604090205460ff1615610f85576040517f689301e800000000000000000000000000000000000000000000000000000000815260048101829052602401610519565b73ffffffffffffffffffffffffffffffffffffffff851660008181526003602090815260408083206fffffffffffffffffffffffffffffffff8916608089901b1790819055858452600283529281902080547fffffffffffffffffffffffffffffffffffffffffffffffffffffffffffffff0016600117905580518881529182018390529194507f54519572e3429998e82594d8b7f18c8099087447d701cbaa619b5e26f6de47eb910160405180910390a250949350505050565b60006104a56111ca565b3660003332148061105b5750601836105b156110695750600091369150565b3373ffffffffffffffffffffffffffffffffffffffff7f000000000000000000000000000000000000000000000000000000000000000016148061119e575073ffffffffffffffffffffffffffffffffffffffff7f000000000000000000000000000000000000000000000000000000000000000016638929a8ca367fffffffffffffffffffffffffffffffffffffffffffffffffffffffffffffffec013560601c6040517fffffffff0000000000000000000000000000000000000000000000000000000060e084901b16815273ffffffffffffffffffffffffffffffffffffffff9091166004820152336024820152604401602060405180830381865afa15801561117a573d6000803e3d6000fd5b505050506040513d601f19601f8201168201806040525081019061119e9190611949565b156111ab57610446611311565b50600091369150565b6000826111c18584611342565b14949350505050565b6000333214806111da5750601836105b156111e457503390565b7fffffffffffffffffffffffffffffffffffffffffffffffffffffffffffffffec36013560601c7f000000000000000000000000000000000000000000000000000000000000000073ffffffffffffffffffffffffffffffffffffffff1633148061130057506040517f8929a8ca00000000000000000000000000000000000000000000000000000000815273ffffffffffffffffffffffffffffffffffffffff82811660048301523360248301527f00000000000000000000000000000000000000000000000000000000000000001690638929a8ca90604401602060405180830381865afa1580156112dc573d6000803e3d6000fd5b505050506040513d601f19601f820116820180604052508101906113009190611949565b1561130a57919050565b3391505090565b3660006104467fffffffffffffffffffffffffffffffffffffffffffffffffffffffffffffffec830182848161196b565b600081815b845181101561137d576113738286838151811061136657611366611708565b6020026020010151611385565b9150600101611347565b509392505050565b60008183106113a15760008281526020849052604090206113b0565b60008381526020839052604090205b9392505050565b6000602082840312156113c957600080fd5b81357fffffffff00000000000000000000000000000000000000000000000000000000811681146113b057600080fd5b60208152816020820152818360408301376000818301604090810191909152601f9092017fffffffffffffffffffffffffffffffffffffffffffffffffffffffffffffffe0160101919050565b803573ffffffffffffffffffffffffffffffffffffffff81168114610e0957600080fd5b6000806040838503121561147d57600080fd5b8235915061148d60208401611446565b90509250929050565b6000602082840312156114a857600080fd5b6113b082611446565b6000602082840312156114c357600080fd5b5035919050565b60008083601f8401126114dc57600080fd5b50813567ffffffffffffffff8111156114f457600080fd5b6020830191508360208260051b850101111561150f57600080fd5b9250929050565b60008083601f84011261152857600080fd5b50813567ffffffffffffffff81111561154057600080fd5b60208301915083602082850101111561150f57600080fd5b60008060008060008060008060a0898b03121561157457600080fd5b61157d89611446565b975061158b60208a01611446565b9650604089013567ffffffffffffffff808211156115a857600080fd5b6115b48c838d016114ca565b909850965060608b01359150808211156115cd57600080fd5b6115d98c838d016114ca565b909650945060808b01359150808211156115f257600080fd5b506115ff8b828c01611516565b999c989b5096995094979396929594505050565b60008060008060008060a0878903121561162c57600080fd5b61163587611446565b955061164360208801611446565b94506040870135935060608701359250608087013567ffffffffffffffff81111561166d57600080fd5b61167989828a01611516565b979a9699509497509295939492505050565b7f4e487b7100000000000000000000000000000000000000000000000000000000600052601160045260246000fd5b818103818111156104355761043561168b565b600082611703577f4e487b7100000000000000000000000000000000000000000000000000000000600052601260045260246000fd5b500490565b7f4e487b7100000000000000000000000000000000000000000000000000000000600052603260045260246000fd5b80820281158282048414176104355761043561168b565b808201808211156104355761043561168b565b7f4e487b7100000000000000000000000000000000000000000000000000000000600052604160045260246000fd5b600080604083850312156117a357600080fd5b823567ffffffffffffffff808211156117bb57600080fd5b818501915085601f8301126117cf57600080fd5b81356020828211156117e3576117e3611761565b8160051b6040517fffffffffffffffffffffffffffffffffffffffffffffffffffffffffffffffe0603f8301168101818110868211171561182657611826611761565b60405292835281830193508481018201928984111561184457600080fd5b948201945b8386101561186257853585529482019493820193611849565b9997909101359750505050505050565b81835260007f07ffffffffffffffffffffffffffffffffffffffffffffffffffffffffffffff8311156118a457600080fd5b8260051b80836020870137939093016020019392505050565b73ffffffffffffffffffffffffffffffffffffffff861681526060602082015260006118ed606083018688611872565b8281036040840152611900818587611872565b98975050505050505050565b60808152600061192060808301888a611872565b8281036020840152611933818789611872565b6040840195909552505060600152949350505050565b60006020828403121561195b57600080fd5b815180151581146113b057600080fd5b6000808585111561197b57600080fd5b8386111561198857600080fd5b505082019391909203915056fea2646970667358221220933e154547f5b83abcf1724bce388c0af915d6cfe0f5b24a47d39e5e3a0804d164736f6c63430008160033","opcodes":"PUSH2 0x160 PUSH1 0x40 MSTORE CALLVALUE DUP1 ISZERO PUSH3 0x12 JUMPI PUSH1 0x0 DUP1 REVERT JUMPDEST POP PUSH1 0x40 MLOAD PUSH3 0x1CB2 CODESIZE SUB DUP1 PUSH3 0x1CB2 DUP4 CODECOPY DUP2 ADD PUSH1 0x40 DUP2 SWAP1 MSTORE PUSH3 0x35 SWAP2 PUSH3 0x194 JUMP JUMPDEST PUSH1 0x1 PUSH1 0x1 PUSH1 0xA0 SHL SUB DUP2 AND PUSH1 0x80 MSTORE DUP7 DUP7 DUP7 DUP7 DUP7 DUP7 DUP7 PUSH3 0x69 PUSH4 0x2711897 PUSH1 0xE5 SHL PUSH1 0x1 PUSH3 0x61 PUSH3 0xE8 JUMP JUMPDEST SWAP2 SWAP1 PUSH3 0x11E JUMP JUMPDEST PUSH1 0xE0 DUP8 SWAP1 MSTORE PUSH1 0x0 DUP7 SWAP1 SUB PUSH3 0x91 JUMPI PUSH1 0x40 MLOAD PUSH4 0xB870EFBD PUSH1 0xE0 SHL DUP2 MSTORE PUSH1 0x4 ADD PUSH1 0x40 MLOAD DUP1 SWAP2 SUB SWAP1 REVERT JUMPDEST PUSH2 0x100 DUP7 SWAP1 MSTORE PUSH1 0x0 DUP6 SWAP1 SUB PUSH3 0xBA JUMPI PUSH1 0x40 MLOAD PUSH4 0x7E5E559B PUSH1 0xE1 SHL DUP2 MSTORE PUSH1 0x4 ADD PUSH1 0x40 MLOAD DUP1 SWAP2 SUB SWAP1 REVERT JUMPDEST POP PUSH2 0x120 SWAP4 SWAP1 SWAP4 MSTORE PUSH2 0x140 MSTORE PUSH1 0x1 PUSH1 0x1 PUSH1 0xA0 SHL SUB SWAP2 DUP3 AND PUSH1 0xC0 MSTORE AND PUSH1 0xA0 MSTORE POP PUSH3 0x231 SWAP8 POP POP POP POP POP POP POP POP JUMP JUMPDEST PUSH1 0x0 DUP1 PUSH3 0x118 PUSH1 0x1 PUSH32 0xCA9D3E17F264B0F3984E2634E94ADB37FA3E6A8103F06AEAE6FA59E21C769F5E PUSH3 0x20F JUMP JUMPDEST SWAP3 SWAP2 POP POP JUMP JUMPDEST PUSH1 0x1 PUSH1 0xE0 SHL PUSH1 0x1 PUSH1 0x1 PUSH1 0xE0 SHL SUB NOT DUP4 AND ADD PUSH3 0x14D JUMPI PUSH1 0x40 MLOAD PUSH4 0x72C683BB PUSH1 0xE0 SHL DUP2 MSTORE PUSH1 0x4 ADD PUSH1 0x40 MLOAD DUP1 SWAP2 SUB SWAP1 REVERT JUMPDEST PUSH1 0x1 PUSH1 0x1 PUSH1 0xE0 SHL SUB NOT SWAP2 SWAP1 SWAP2 AND PUSH1 0x0 SWAP1 DUP2 MSTORE PUSH1 0x20 SWAP3 SWAP1 SWAP3 MSTORE PUSH1 0x40 SWAP1 SWAP2 KECCAK256 DUP1 SLOAD PUSH1 0xFF NOT AND SWAP2 ISZERO ISZERO SWAP2 SWAP1 SWAP2 OR SWAP1 SSTORE JUMP JUMPDEST PUSH1 0x1 PUSH1 0x1 PUSH1 0xA0 SHL SUB DUP2 AND DUP2 EQ PUSH3 0x191 JUMPI PUSH1 0x0 DUP1 REVERT JUMPDEST POP JUMP JUMPDEST PUSH1 0x0 DUP1 PUSH1 0x0 DUP1 PUSH1 0x0 DUP1 PUSH1 0x0 PUSH1 0xE0 DUP9 DUP11 SUB SLT ISZERO PUSH3 0x1B0 JUMPI PUSH1 0x0 DUP1 REVERT JUMPDEST DUP8 MLOAD SWAP7 POP PUSH1 0x20 DUP9 ADD MLOAD SWAP6 POP PUSH1 0x40 DUP9 ADD MLOAD SWAP5 POP PUSH1 0x60 DUP9 ADD MLOAD PUSH3 0x1D2 DUP2 PUSH3 0x17B JUMP JUMPDEST PUSH1 0x80 DUP10 ADD MLOAD PUSH1 0xA0 DUP11 ADD MLOAD SWAP2 SWAP6 POP SWAP4 POP PUSH3 0x1EC DUP2 PUSH3 0x17B JUMP JUMPDEST PUSH1 0xC0 DUP10 ADD MLOAD SWAP1 SWAP3 POP PUSH3 0x1FF DUP2 PUSH3 0x17B JUMP JUMPDEST DUP1 SWAP2 POP POP SWAP3 SWAP6 SWAP9 SWAP2 SWAP5 SWAP8 POP SWAP3 SWAP6 POP JUMP JUMPDEST DUP2 DUP2 SUB DUP2 DUP2 GT ISZERO PUSH3 0x118 JUMPI PUSH4 0x4E487B71 PUSH1 0xE0 SHL PUSH1 0x0 MSTORE PUSH1 0x11 PUSH1 0x4 MSTORE PUSH1 0x24 PUSH1 0x0 REVERT JUMPDEST PUSH1 0x80 MLOAD PUSH1 0xA0 MLOAD PUSH1 0xC0 MLOAD PUSH1 0xE0 MLOAD PUSH2 0x100 MLOAD PUSH2 0x120 MLOAD PUSH2 0x140 MLOAD PUSH2 0x19CB PUSH3 0x2E7 PUSH1 0x0 CODECOPY PUSH1 0x0 DUP2 DUP2 PUSH2 0x29A ADD MSTORE PUSH2 0xEDE ADD MSTORE PUSH1 0x0 DUP2 DUP2 PUSH2 0x183 ADD MSTORE DUP2 DUP2 PUSH2 0x530 ADD MSTORE PUSH2 0x9C1 ADD MSTORE PUSH1 0x0 DUP2 DUP2 PUSH2 0x3C1 ADD MSTORE PUSH2 0x452 ADD MSTORE PUSH1 0x0 DUP2 DUP2 PUSH2 0x248 ADD MSTORE PUSH2 0x476 ADD MSTORE PUSH1 0x0 DUP2 DUP2 PUSH2 0x39A ADD MSTORE PUSH2 0x8D3 ADD MSTORE PUSH1 0x0 DUP2 DUP2 PUSH2 0x1B8 ADD MSTORE DUP2 DUP2 PUSH2 0x4C4 ADD MSTORE PUSH2 0xDD5 ADD MSTORE PUSH1 0x0 DUP2 DUP2 PUSH2 0x209 ADD MSTORE DUP2 DUP2 PUSH2 0x2CC ADD MSTORE DUP2 DUP2 PUSH2 0x1081 ADD MSTORE DUP2 DUP2 PUSH2 0x10BF ADD MSTORE DUP2 DUP2 PUSH2 0x120D ADD MSTORE PUSH2 0x1295 ADD MSTORE PUSH2 0x19CB PUSH1 0x0 RETURN INVALID PUSH1 0x80 PUSH1 0x40 MSTORE CALLVALUE DUP1 ISZERO PUSH2 0x10 JUMPI PUSH1 0x0 DUP1 REVERT JUMPDEST POP PUSH1 0x4 CALLDATASIZE LT PUSH2 0x151 JUMPI PUSH1 0x0 CALLDATALOAD PUSH1 0xE0 SHR DUP1 PUSH4 0x572B6C05 GT PUSH2 0xCD JUMPI DUP1 PUSH4 0xCD18A34F GT PUSH2 0x81 JUMPI DUP1 PUSH4 0xD1A91FF2 GT PUSH2 0x66 JUMPI DUP1 PUSH4 0xD1A91FF2 EQ PUSH2 0x3E3 JUMPI DUP1 PUSH4 0xE1C96C20 EQ PUSH2 0x3EB JUMPI DUP1 PUSH4 0xF23A6E61 EQ PUSH2 0x40E JUMPI PUSH1 0x0 DUP1 REVERT JUMPDEST DUP1 PUSH4 0xCD18A34F EQ PUSH2 0x395 JUMPI DUP1 PUSH4 0xCD421FBF EQ PUSH2 0x3BC JUMPI PUSH1 0x0 DUP1 REVERT JUMPDEST DUP1 PUSH4 0xB28FD6E6 GT PUSH2 0xB2 JUMPI DUP1 PUSH4 0xB28FD6E6 EQ PUSH2 0x329 JUMPI DUP1 PUSH4 0xBAB2F552 EQ PUSH2 0x349 JUMPI DUP1 PUSH4 0xBC197C81 EQ PUSH2 0x351 JUMPI PUSH1 0x0 DUP1 REVERT JUMPDEST DUP1 PUSH4 0x572B6C05 EQ PUSH2 0x2BC JUMPI DUP1 PUSH4 0xAB504E73 EQ PUSH2 0x309 JUMPI PUSH1 0x0 DUP1 REVERT JUMPDEST DUP1 PUSH4 0x2B4C9F16 GT PUSH2 0x124 JUMPI DUP1 PUSH4 0x491BDE66 GT PUSH2 0x109 JUMPI DUP1 PUSH4 0x491BDE66 EQ PUSH2 0x243 JUMPI DUP1 PUSH4 0x4DAC1C2B EQ PUSH2 0x26A JUMPI DUP1 PUSH4 0x51E75E8B EQ PUSH2 0x295 JUMPI PUSH1 0x0 DUP1 REVERT JUMPDEST DUP1 PUSH4 0x2B4C9F16 EQ PUSH2 0x207 JUMPI DUP1 PUSH4 0x31E66E1E EQ PUSH2 0x22D JUMPI PUSH1 0x0 DUP1 REVERT JUMPDEST DUP1 PUSH4 0x1FFC9A7 EQ PUSH2 0x156 JUMPI DUP1 PUSH4 0x43063BC EQ PUSH2 0x17E JUMPI DUP1 PUSH4 0x28A979CF EQ PUSH2 0x1B3 JUMPI DUP1 PUSH4 0x2B093FE9 EQ PUSH2 0x1FF JUMPI JUMPDEST PUSH1 0x0 DUP1 REVERT JUMPDEST PUSH2 0x169 PUSH2 0x164 CALLDATASIZE PUSH1 0x4 PUSH2 0x13B7 JUMP JUMPDEST PUSH2 0x421 JUMP JUMPDEST PUSH1 0x40 MLOAD SWAP1 ISZERO ISZERO DUP2 MSTORE PUSH1 0x20 ADD JUMPDEST PUSH1 0x40 MLOAD DUP1 SWAP2 SUB SWAP1 RETURN JUMPDEST PUSH2 0x1A5 PUSH32 0x0 DUP2 JUMP JUMPDEST PUSH1 0x40 MLOAD SWAP1 DUP2 MSTORE PUSH1 0x20 ADD PUSH2 0x175 JUMP JUMPDEST PUSH2 0x1DA PUSH32 0x0 DUP2 JUMP JUMPDEST PUSH1 0x40 MLOAD PUSH20 0xFFFFFFFFFFFFFFFFFFFFFFFFFFFFFFFFFFFFFFFF SWAP1 SWAP2 AND DUP2 MSTORE PUSH1 0x20 ADD PUSH2 0x175 JUMP JUMPDEST PUSH2 0x1A5 PUSH1 0x2 DUP2 JUMP JUMPDEST PUSH32 0x0 PUSH2 0x1DA JUMP JUMPDEST PUSH2 0x235 PUSH2 0x43B JUMP JUMPDEST PUSH1 0x40 MLOAD PUSH2 0x175 SWAP3 SWAP2 SWAP1 PUSH2 0x13F9 JUMP JUMPDEST PUSH2 0x1A5 PUSH32 0x0 DUP2 JUMP JUMPDEST PUSH2 0x1A5 PUSH2 0x278 CALLDATASIZE PUSH1 0x4 PUSH2 0x146A JUMP JUMPDEST PUSH1 0x1 PUSH1 0x20 SWAP1 DUP2 MSTORE PUSH1 0x0 SWAP3 DUP4 MSTORE PUSH1 0x40 DUP1 DUP5 KECCAK256 SWAP1 SWAP2 MSTORE SWAP1 DUP3 MSTORE SWAP1 KECCAK256 SLOAD DUP2 JUMP JUMPDEST PUSH2 0x1A5 PUSH32 0x0 DUP2 JUMP JUMPDEST PUSH2 0x169 PUSH2 0x2CA CALLDATASIZE PUSH1 0x4 PUSH2 0x1496 JUMP JUMPDEST PUSH32 0x0 PUSH20 0xFFFFFFFFFFFFFFFFFFFFFFFFFFFFFFFFFFFFFFFF SWAP1 DUP2 AND SWAP2 AND EQ SWAP1 JUMP JUMPDEST PUSH2 0x1A5 PUSH2 0x317 CALLDATASIZE PUSH1 0x4 PUSH2 0x14B1 JUMP JUMPDEST PUSH1 0x0 PUSH1 0x20 DUP2 SWAP1 MSTORE SWAP1 DUP2 MSTORE PUSH1 0x40 SWAP1 KECCAK256 SLOAD DUP2 JUMP JUMPDEST PUSH2 0x1A5 PUSH2 0x337 CALLDATASIZE PUSH1 0x4 PUSH2 0x1496 JUMP JUMPDEST PUSH1 0x3 PUSH1 0x20 MSTORE PUSH1 0x0 SWAP1 DUP2 MSTORE PUSH1 0x40 SWAP1 KECCAK256 SLOAD DUP2 JUMP JUMPDEST PUSH2 0x1A5 PUSH2 0x44E JUMP JUMPDEST PUSH2 0x364 PUSH2 0x35F CALLDATASIZE PUSH1 0x4 PUSH2 0x1558 JUMP JUMPDEST PUSH2 0x4AA JUMP JUMPDEST PUSH1 0x40 MLOAD PUSH32 0xFFFFFFFF00000000000000000000000000000000000000000000000000000000 SWAP1 SWAP2 AND DUP2 MSTORE PUSH1 0x20 ADD PUSH2 0x175 JUMP JUMPDEST PUSH2 0x1DA PUSH32 0x0 DUP2 JUMP JUMPDEST PUSH2 0x1A5 PUSH32 0x0 DUP2 JUMP JUMPDEST PUSH2 0x1DA PUSH2 0x8AF JUMP JUMPDEST PUSH2 0x169 PUSH2 0x3F9 CALLDATASIZE PUSH1 0x4 PUSH2 0x14B1 JUMP JUMPDEST PUSH1 0x2 PUSH1 0x20 MSTORE PUSH1 0x0 SWAP1 DUP2 MSTORE PUSH1 0x40 SWAP1 KECCAK256 SLOAD PUSH1 0xFF AND DUP2 JUMP JUMPDEST PUSH2 0x364 PUSH2 0x41C CALLDATASIZE PUSH1 0x4 PUSH2 0x1613 JUMP JUMPDEST PUSH2 0x8B9 JUMP JUMPDEST PUSH1 0x0 PUSH2 0x435 DUP3 PUSH2 0x42F PUSH2 0xC13 JUMP JUMPDEST SWAP1 PUSH2 0xC41 JUMP JUMPDEST SWAP3 SWAP2 POP POP JUMP JUMPDEST CALLDATASIZE PUSH1 0x0 PUSH2 0x446 PUSH2 0xD1B JUMP JUMPDEST SWAP2 POP SWAP2 POP SWAP1 SWAP2 JUMP JUMPDEST PUSH1 0x0 PUSH32 0x0 PUSH2 0x49B PUSH32 0x0 TIMESTAMP PUSH2 0x16BA JUMP JUMPDEST PUSH2 0x4A5 SWAP2 SWAP1 PUSH2 0x16CD JUMP JUMPDEST SWAP1 POP SWAP1 JUMP JUMPDEST PUSH1 0x0 CALLER PUSH20 0xFFFFFFFFFFFFFFFFFFFFFFFFFFFFFFFFFFFFFFFF PUSH32 0x0 AND EQ PUSH2 0x522 JUMPI PUSH1 0x40 MLOAD PUSH32 0x961C9A4F00000000000000000000000000000000000000000000000000000000 DUP2 MSTORE CALLER PUSH1 0x4 DUP3 ADD MSTORE PUSH1 0x24 ADD JUMPDEST PUSH1 0x40 MLOAD DUP1 SWAP2 SUB SWAP1 REVERT JUMPDEST PUSH1 0x0 PUSH2 0x52C PUSH2 0x44E JUMP JUMPDEST SWAP1 POP PUSH32 0x0 DUP2 GT ISZERO PUSH2 0x58B JUMPI PUSH1 0x40 MLOAD PUSH32 0x764E560F00000000000000000000000000000000000000000000000000000000 DUP2 MSTORE PUSH1 0x4 DUP2 ADD DUP3 SWAP1 MSTORE PUSH1 0x24 ADD PUSH2 0x519 JUMP JUMPDEST PUSH1 0x0 DUP1 JUMPDEST DUP9 DUP2 LT ISZERO PUSH2 0x666 JUMPI DUP8 DUP8 DUP3 DUP2 DUP2 LT PUSH2 0x5A9 JUMPI PUSH2 0x5A9 PUSH2 0x1708 JUMP JUMPDEST SWAP1 POP PUSH1 0x20 MUL ADD CALLDATALOAD PUSH1 0x0 SUB PUSH2 0x60E JUMPI DUP8 DUP8 DUP3 DUP2 DUP2 LT PUSH2 0x5C9 JUMPI PUSH2 0x5C9 PUSH2 0x1708 JUMP JUMPDEST PUSH1 0x40 MLOAD PUSH32 0xF3CC8CE400000000000000000000000000000000000000000000000000000000 DUP2 MSTORE PUSH1 0x20 SWAP1 SWAP2 MUL SWAP3 SWAP1 SWAP3 ADD CALLDATALOAD PUSH1 0x4 DUP4 ADD MSTORE POP PUSH1 0x0 PUSH1 0x24 DUP3 ADD MSTORE PUSH1 0x44 ADD PUSH2 0x519 JUMP JUMPDEST PUSH2 0x62F DUP11 DUP11 DUP4 DUP2 DUP2 LT PUSH2 0x623 JUMPI PUSH2 0x623 PUSH2 0x1708 JUMP JUMPDEST SWAP1 POP PUSH1 0x20 MUL ADD CALLDATALOAD PUSH2 0xD26 JUMP JUMPDEST DUP9 DUP9 DUP4 DUP2 DUP2 LT PUSH2 0x641 JUMPI PUSH2 0x641 PUSH2 0x1708 JUMP JUMPDEST SWAP1 POP PUSH1 0x20 MUL ADD CALLDATALOAD PUSH2 0x652 SWAP2 SWAP1 PUSH2 0x1737 JUMP JUMPDEST PUSH2 0x65C SWAP1 DUP4 PUSH2 0x174E JUMP JUMPDEST SWAP2 POP PUSH1 0x1 ADD PUSH2 0x58F JUMP JUMPDEST POP PUSH20 0xFFFFFFFFFFFFFFFFFFFFFFFFFFFFFFFFFFFFFFFF DUP11 AND PUSH1 0x0 SWAP1 DUP2 MSTORE PUSH1 0x3 PUSH1 0x20 MSTORE PUSH1 0x40 SWAP1 KECCAK256 SLOAD DUP5 ISZERO PUSH2 0x6B7 JUMPI PUSH1 0x0 DUP1 PUSH2 0x6A2 DUP8 DUP10 ADD DUP10 PUSH2 0x1790 JUMP JUMPDEST SWAP2 POP SWAP2 POP PUSH2 0x6B2 DUP3 DUP15 DUP6 DUP5 PUSH2 0xE0E JUMP JUMPDEST SWAP3 POP POP POP JUMPDEST PUSH16 0xFFFFFFFFFFFFFFFFFFFFFFFFFFFFFFFF DUP2 AND PUSH1 0x80 DUP3 SWAP1 SHR DUP2 ISZERO PUSH2 0x6E2 JUMPI PUSH2 0x6DF DUP3 DUP6 PUSH2 0x1737 JUMP JUMPDEST SWAP4 POP JUMPDEST PUSH16 0xFFFFFFFFFFFFFFFFFFFFFFFFFFFFFFFF DUP2 AND ISZERO PUSH2 0x726 JUMPI PUSH2 0x2710 PUSH2 0x719 PUSH16 0xFFFFFFFFFFFFFFFFFFFFFFFFFFFFFFFF DUP4 AND DUP7 PUSH2 0x1737 JUMP JUMPDEST PUSH2 0x723 SWAP2 SWAP1 PUSH2 0x16CD JUMP JUMPDEST SWAP4 POP JUMPDEST DUP4 PUSH1 0x1 PUSH1 0x0 DUP8 DUP2 MSTORE PUSH1 0x20 ADD SWAP1 DUP2 MSTORE PUSH1 0x20 ADD PUSH1 0x0 KECCAK256 PUSH1 0x0 DUP16 PUSH20 0xFFFFFFFFFFFFFFFFFFFFFFFFFFFFFFFFFFFFFFFF AND PUSH20 0xFFFFFFFFFFFFFFFFFFFFFFFFFFFFFFFFFFFFFFFF AND DUP2 MSTORE PUSH1 0x20 ADD SWAP1 DUP2 MSTORE PUSH1 0x20 ADD PUSH1 0x0 KECCAK256 PUSH1 0x0 DUP3 DUP3 SLOAD PUSH2 0x786 SWAP2 SWAP1 PUSH2 0x174E JUMP JUMPDEST SWAP1 SWAP2 SSTORE POP POP PUSH1 0x0 DUP6 DUP2 MSTORE PUSH1 0x20 DUP2 SWAP1 MSTORE PUSH1 0x40 DUP2 KECCAK256 DUP1 SLOAD DUP7 SWAP3 SWAP1 PUSH2 0x7A9 SWAP1 DUP5 SWAP1 PUSH2 0x174E JUMP JUMPDEST SWAP3 POP POP DUP2 SWAP1 SSTORE POP CALLER PUSH20 0xFFFFFFFFFFFFFFFFFFFFFFFFFFFFFFFFFFFFFFFF AND PUSH4 0x80534934 ADDRESS DUP15 DUP15 DUP15 DUP15 PUSH1 0x40 MLOAD DUP7 PUSH4 0xFFFFFFFF AND PUSH1 0xE0 SHL DUP2 MSTORE PUSH1 0x4 ADD PUSH2 0x7F1 SWAP6 SWAP5 SWAP4 SWAP3 SWAP2 SWAP1 PUSH2 0x18BD JUMP JUMPDEST PUSH1 0x0 PUSH1 0x40 MLOAD DUP1 DUP4 SUB DUP2 PUSH1 0x0 DUP8 DUP1 EXTCODESIZE ISZERO DUP1 ISZERO PUSH2 0x80B JUMPI PUSH1 0x0 DUP1 REVERT JUMPDEST POP GAS CALL ISZERO DUP1 ISZERO PUSH2 0x81F JUMPI RETURNDATASIZE PUSH1 0x0 DUP1 RETURNDATACOPY RETURNDATASIZE PUSH1 0x0 REVERT JUMPDEST POP POP POP POP DUP5 DUP14 PUSH20 0xFFFFFFFFFFFFFFFFFFFFFFFFFFFFFFFFFFFFFFFF AND PUSH32 0x607D04B62B6720200EE29C63AC2E4B0AA4024C85F7B80181AC61D6BB6F5E797A DUP15 DUP15 DUP15 DUP15 DUP11 DUP11 PUSH1 0x40 MLOAD PUSH2 0x874 SWAP7 SWAP6 SWAP5 SWAP4 SWAP3 SWAP2 SWAP1 PUSH2 0x190C JUMP JUMPDEST PUSH1 0x40 MLOAD DUP1 SWAP2 SUB SWAP1 LOG3 POP PUSH32 0xBC197C8100000000000000000000000000000000000000000000000000000000 SWAP14 SWAP13 POP POP POP POP POP POP POP POP POP POP POP POP POP JUMP JUMPDEST PUSH1 0x0 PUSH2 0x4A5 PUSH2 0x1040 JUMP JUMPDEST PUSH1 0x0 CALLER PUSH20 0xFFFFFFFFFFFFFFFFFFFFFFFFFFFFFFFFFFFFFFFF PUSH32 0x0 AND EQ PUSH2 0x92C JUMPI PUSH1 0x40 MLOAD PUSH32 0x961C9A4F00000000000000000000000000000000000000000000000000000000 DUP2 MSTORE CALLER PUSH1 0x4 DUP3 ADD MSTORE PUSH1 0x24 ADD PUSH2 0x519 JUMP JUMPDEST PUSH1 0x1 DUP6 EQ PUSH2 0x96F JUMPI PUSH1 0x40 MLOAD PUSH32 0x1912EA5100000000000000000000000000000000000000000000000000000000 DUP2 MSTORE CALLER PUSH1 0x4 DUP3 ADD MSTORE PUSH1 0x24 DUP2 ADD DUP7 SWAP1 MSTORE PUSH1 0x44 ADD PUSH2 0x519 JUMP JUMPDEST DUP4 PUSH1 0x1 EQ PUSH2 0x9B3 JUMPI PUSH1 0x40 MLOAD PUSH32 0xF3CC8CE400000000000000000000000000000000000000000000000000000000 DUP2 MSTORE PUSH1 0x4 DUP2 ADD DUP6 SWAP1 MSTORE PUSH1 0x1 PUSH1 0x24 DUP3 ADD MSTORE PUSH1 0x44 ADD PUSH2 0x519 JUMP JUMPDEST PUSH1 0x0 PUSH2 0x9BD PUSH2 0x44E JUMP JUMPDEST SWAP1 POP PUSH32 0x0 DUP2 GT ISZERO PUSH2 0xA1C JUMPI PUSH1 0x40 MLOAD PUSH32 0x764E560F00000000000000000000000000000000000000000000000000000000 DUP2 MSTORE PUSH1 0x4 DUP2 ADD DUP3 SWAP1 MSTORE PUSH1 0x24 ADD PUSH2 0x519 JUMP JUMPDEST PUSH20 0xFFFFFFFFFFFFFFFFFFFFFFFFFFFFFFFFFFFFFFFF DUP8 AND PUSH1 0x0 SWAP1 DUP2 MSTORE PUSH1 0x3 PUSH1 0x20 MSTORE PUSH1 0x40 SWAP1 KECCAK256 SLOAD PUSH16 0xFFFFFFFFFFFFFFFFFFFFFFFFFFFFFFFF DUP2 AND ISZERO PUSH2 0xAA4 JUMPI PUSH1 0x40 MLOAD PUSH32 0x55C9045D00000000000000000000000000000000000000000000000000000000 DUP2 MSTORE PUSH20 0xFFFFFFFFFFFFFFFFFFFFFFFFFFFFFFFFFFFFFFFF DUP10 AND PUSH1 0x4 DUP3 ADD MSTORE PUSH1 0x24 ADD PUSH2 0x519 JUMP JUMPDEST PUSH20 0xFFFFFFFFFFFFFFFFFFFFFFFFFFFFFFFFFFFFFFFF DUP9 AND PUSH1 0x0 SWAP1 DUP2 MSTORE PUSH1 0x3 PUSH1 0x20 MSTORE PUSH1 0x40 SWAP1 KECCAK256 PUSH32 0xFFFFFFFFFFFFFFFFFFFFFFFFFFFFFFFF00000000000000000000000000000000 DUP3 AND PUSH1 0x2 OR SWAP1 DUP2 SWAP1 SSTORE DUP5 ISZERO PUSH2 0xB1C JUMPI PUSH1 0x0 DUP1 PUSH2 0xB08 DUP8 DUP10 ADD DUP10 PUSH2 0x1790 JUMP JUMPDEST SWAP2 POP SWAP2 POP PUSH2 0xB18 DUP3 DUP13 DUP6 DUP5 PUSH2 0xE0E JUMP JUMPDEST POP POP POP JUMPDEST PUSH1 0x40 MLOAD PUSH32 0x124D91E500000000000000000000000000000000000000000000000000000000 DUP2 MSTORE ADDRESS PUSH1 0x4 DUP3 ADD MSTORE PUSH1 0x24 DUP2 ADD DUP10 SWAP1 MSTORE PUSH1 0x44 DUP2 ADD DUP9 SWAP1 MSTORE CALLER SWAP1 PUSH4 0x124D91E5 SWAP1 PUSH1 0x64 ADD PUSH1 0x0 PUSH1 0x40 MLOAD DUP1 DUP4 SUB DUP2 PUSH1 0x0 DUP8 DUP1 EXTCODESIZE ISZERO DUP1 ISZERO PUSH2 0xB7B JUMPI PUSH1 0x0 DUP1 REVERT JUMPDEST POP GAS CALL ISZERO DUP1 ISZERO PUSH2 0xB8F JUMPI RETURNDATASIZE PUSH1 0x0 DUP1 RETURNDATACOPY RETURNDATASIZE PUSH1 0x0 REVERT JUMPDEST POP POP PUSH1 0x40 DUP1 MLOAD DUP6 DUP2 MSTORE PUSH1 0x20 DUP2 ADD DUP6 SWAP1 MSTORE PUSH20 0xFFFFFFFFFFFFFFFFFFFFFFFFFFFFFFFFFFFFFFFF DUP14 AND SWAP4 POP PUSH32 0x54519572E3429998E82594D8B7F18C8099087447D701CBAA619B5E26F6DE47EB SWAP3 POP ADD PUSH1 0x40 MLOAD DUP1 SWAP2 SUB SWAP1 LOG2 POP PUSH32 0xF23A6E6100000000000000000000000000000000000000000000000000000000 SWAP10 SWAP9 POP POP POP POP POP POP POP POP POP JUMP JUMPDEST PUSH1 0x0 DUP1 PUSH2 0x435 PUSH1 0x1 PUSH32 0xCA9D3E17F264B0F3984E2634E94ADB37FA3E6A8103F06AEAE6FA59E21C769F5E PUSH2 0x16BA JUMP JUMPDEST PUSH1 0x0 PUSH29 0x100000000000000000000000000000000000000000000000000000000 PUSH32 0xFFFFFFFF00000000000000000000000000000000000000000000000000000000 DUP4 AND ADD PUSH2 0xC91 JUMPI POP PUSH1 0x0 PUSH2 0x435 JUMP JUMPDEST PUSH32 0xFE00365900000000000000000000000000000000000000000000000000000000 PUSH32 0xFFFFFFFF00000000000000000000000000000000000000000000000000000000 DUP4 AND ADD PUSH2 0xCE2 JUMPI POP PUSH1 0x1 PUSH2 0x435 JUMP JUMPDEST POP PUSH32 0xFFFFFFFF00000000000000000000000000000000000000000000000000000000 AND PUSH1 0x0 SWAP1 DUP2 MSTORE PUSH1 0x20 SWAP2 SWAP1 SWAP2 MSTORE PUSH1 0x40 SWAP1 KECCAK256 SLOAD PUSH1 0xFF AND SWAP1 JUMP JUMPDEST CALLDATASIZE PUSH1 0x0 PUSH2 0x446 PUSH2 0x104A JUMP JUMPDEST PUSH1 0x0 DUP2 PUSH1 0x1 SUB PUSH2 0xD38 JUMPI POP PUSH1 0x1 SWAP2 SWAP1 POP JUMP JUMPDEST DUP2 PUSH1 0x2 SUB PUSH2 0xD48 JUMPI POP PUSH1 0x3 SWAP2 SWAP1 POP JUMP JUMPDEST DUP2 PUSH1 0x3 SUB PUSH2 0xD58 JUMPI POP PUSH1 0x3 SWAP2 SWAP1 POP JUMP JUMPDEST DUP2 PUSH1 0x4 SUB PUSH2 0xD68 JUMPI POP PUSH1 0x5 SWAP2 SWAP1 POP JUMP JUMPDEST DUP2 PUSH1 0x5 SUB PUSH2 0xD78 JUMPI POP PUSH1 0x9 SWAP2 SWAP1 POP JUMP JUMPDEST DUP2 PUSH1 0x6 SUB PUSH2 0xD88 JUMPI POP PUSH1 0x19 SWAP2 SWAP1 POP JUMP JUMPDEST DUP2 PUSH1 0x7 SUB PUSH2 0xD98 JUMPI POP PUSH1 0x10 SWAP2 SWAP1 POP JUMP JUMPDEST PUSH1 0x40 MLOAD PUSH32 0x1912EA5100000000000000000000000000000000000000000000000000000000 DUP2 MSTORE PUSH20 0xFFFFFFFFFFFFFFFFFFFFFFFFFFFFFFFFFFFFFFFF PUSH32 0x0 AND PUSH1 0x4 DUP3 ADD MSTORE PUSH1 0x24 DUP2 ADD DUP4 SWAP1 MSTORE PUSH1 0x44 ADD PUSH2 0x519 JUMP JUMPDEST SWAP2 SWAP1 POP JUMP JUMPDEST PUSH1 0x0 PUSH1 0x80 DUP4 SWAP1 SHR ISZERO PUSH2 0xE64 JUMPI PUSH1 0x40 MLOAD PUSH32 0x18ED059000000000000000000000000000000000000000000000000000000000 DUP2 MSTORE PUSH20 0xFFFFFFFFFFFFFFFFFFFFFFFFFFFFFFFFFFFFFFFF DUP6 AND PUSH1 0x4 DUP3 ADD MSTORE PUSH1 0x24 ADD PUSH2 0x519 JUMP JUMPDEST PUSH1 0x40 MLOAD PUSH32 0xFFFFFFFFFFFFFFFFFFFFFFFFFFFFFFFFFFFFFFFF000000000000000000000000 PUSH1 0x60 DUP7 SWAP1 SHL AND PUSH1 0x20 DUP3 ADD MSTORE PUSH1 0x34 DUP2 ADD DUP4 SWAP1 MSTORE PUSH1 0x0 SWAP1 PUSH1 0x54 ADD PUSH1 0x40 DUP1 MLOAD PUSH32 0xFFFFFFFFFFFFFFFFFFFFFFFFFFFFFFFFFFFFFFFFFFFFFFFFFFFFFFFFFFFFFFE0 DUP2 DUP5 SUB ADD DUP2 MSTORE SWAP2 SWAP1 MSTORE DUP1 MLOAD PUSH1 0x20 SWAP1 SWAP2 ADD KECCAK256 SWAP1 POP PUSH2 0xF03 DUP7 PUSH32 0x0 DUP4 PUSH2 0x11B4 JUMP JUMPDEST PUSH2 0xF39 JUMPI PUSH1 0x40 MLOAD PUSH32 0x9BDE33900000000000000000000000000000000000000000000000000000000 DUP2 MSTORE PUSH1 0x4 ADD PUSH1 0x40 MLOAD DUP1 SWAP2 SUB SWAP1 REVERT JUMPDEST PUSH1 0x0 DUP2 DUP2 MSTORE PUSH1 0x2 PUSH1 0x20 MSTORE PUSH1 0x40 SWAP1 KECCAK256 SLOAD PUSH1 0xFF AND ISZERO PUSH2 0xF85 JUMPI PUSH1 0x40 MLOAD PUSH32 0x689301E800000000000000000000000000000000000000000000000000000000 DUP2 MSTORE PUSH1 0x4 DUP2 ADD DUP3 SWAP1 MSTORE PUSH1 0x24 ADD PUSH2 0x519 JUMP JUMPDEST PUSH20 0xFFFFFFFFFFFFFFFFFFFFFFFFFFFFFFFFFFFFFFFF DUP6 AND PUSH1 0x0 DUP2 DUP2 MSTORE PUSH1 0x3 PUSH1 0x20 SWAP1 DUP2 MSTORE PUSH1 0x40 DUP1 DUP4 KECCAK256 PUSH16 0xFFFFFFFFFFFFFFFFFFFFFFFFFFFFFFFF DUP10 AND PUSH1 0x80 DUP10 SWAP1 SHL OR SWAP1 DUP2 SWAP1 SSTORE DUP6 DUP5 MSTORE PUSH1 0x2 DUP4 MSTORE SWAP3 DUP2 SWAP1 KECCAK256 DUP1 SLOAD PUSH32 0xFFFFFFFFFFFFFFFFFFFFFFFFFFFFFFFFFFFFFFFFFFFFFFFFFFFFFFFFFFFFFF00 AND PUSH1 0x1 OR SWAP1 SSTORE DUP1 MLOAD DUP9 DUP2 MSTORE SWAP2 DUP3 ADD DUP4 SWAP1 MSTORE SWAP2 SWAP5 POP PUSH32 0x54519572E3429998E82594D8B7F18C8099087447D701CBAA619B5E26F6DE47EB SWAP2 ADD PUSH1 0x40 MLOAD DUP1 SWAP2 SUB SWAP1 LOG2 POP SWAP5 SWAP4 POP POP POP POP JUMP JUMPDEST PUSH1 0x0 PUSH2 0x4A5 PUSH2 0x11CA JUMP JUMPDEST CALLDATASIZE PUSH1 0x0 CALLER ORIGIN EQ DUP1 PUSH2 0x105B JUMPI POP PUSH1 0x18 CALLDATASIZE LT JUMPDEST ISZERO PUSH2 0x1069 JUMPI POP PUSH1 0x0 SWAP2 CALLDATASIZE SWAP2 POP JUMP JUMPDEST CALLER PUSH20 0xFFFFFFFFFFFFFFFFFFFFFFFFFFFFFFFFFFFFFFFF PUSH32 0x0 AND EQ DUP1 PUSH2 0x119E JUMPI POP PUSH20 0xFFFFFFFFFFFFFFFFFFFFFFFFFFFFFFFFFFFFFFFF PUSH32 0x0 AND PUSH4 0x8929A8CA CALLDATASIZE PUSH32 0xFFFFFFFFFFFFFFFFFFFFFFFFFFFFFFFFFFFFFFFFFFFFFFFFFFFFFFFFFFFFFFEC ADD CALLDATALOAD PUSH1 0x60 SHR PUSH1 0x40 MLOAD PUSH32 0xFFFFFFFF00000000000000000000000000000000000000000000000000000000 PUSH1 0xE0 DUP5 SWAP1 SHL AND DUP2 MSTORE PUSH20 0xFFFFFFFFFFFFFFFFFFFFFFFFFFFFFFFFFFFFFFFF SWAP1 SWAP2 AND PUSH1 0x4 DUP3 ADD MSTORE CALLER PUSH1 0x24 DUP3 ADD MSTORE PUSH1 0x44 ADD PUSH1 0x20 PUSH1 0x40 MLOAD DUP1 DUP4 SUB DUP2 DUP7 GAS STATICCALL ISZERO DUP1 ISZERO PUSH2 0x117A JUMPI RETURNDATASIZE PUSH1 0x0 DUP1 RETURNDATACOPY RETURNDATASIZE PUSH1 0x0 REVERT JUMPDEST POP POP POP POP PUSH1 0x40 MLOAD RETURNDATASIZE PUSH1 0x1F NOT PUSH1 0x1F DUP3 ADD AND DUP3 ADD DUP1 PUSH1 0x40 MSTORE POP DUP2 ADD SWAP1 PUSH2 0x119E SWAP2 SWAP1 PUSH2 0x1949 JUMP JUMPDEST ISZERO PUSH2 0x11AB JUMPI PUSH2 0x446 PUSH2 0x1311 JUMP JUMPDEST POP PUSH1 0x0 SWAP2 CALLDATASIZE SWAP2 POP JUMP JUMPDEST PUSH1 0x0 DUP3 PUSH2 0x11C1 DUP6 DUP5 PUSH2 0x1342 JUMP JUMPDEST EQ SWAP5 SWAP4 POP POP POP POP JUMP JUMPDEST PUSH1 0x0 CALLER ORIGIN EQ DUP1 PUSH2 0x11DA JUMPI POP PUSH1 0x18 CALLDATASIZE LT JUMPDEST ISZERO PUSH2 0x11E4 JUMPI POP CALLER SWAP1 JUMP JUMPDEST PUSH32 0xFFFFFFFFFFFFFFFFFFFFFFFFFFFFFFFFFFFFFFFFFFFFFFFFFFFFFFFFFFFFFFEC CALLDATASIZE ADD CALLDATALOAD PUSH1 0x60 SHR PUSH32 0x0 PUSH20 0xFFFFFFFFFFFFFFFFFFFFFFFFFFFFFFFFFFFFFFFF AND CALLER EQ DUP1 PUSH2 0x1300 JUMPI POP PUSH1 0x40 MLOAD PUSH32 0x8929A8CA00000000000000000000000000000000000000000000000000000000 DUP2 MSTORE PUSH20 0xFFFFFFFFFFFFFFFFFFFFFFFFFFFFFFFFFFFFFFFF DUP3 DUP2 AND PUSH1 0x4 DUP4 ADD MSTORE CALLER PUSH1 0x24 DUP4 ADD MSTORE PUSH32 0x0 AND SWAP1 PUSH4 0x8929A8CA SWAP1 PUSH1 0x44 ADD PUSH1 0x20 PUSH1 0x40 MLOAD DUP1 DUP4 SUB DUP2 DUP7 GAS STATICCALL ISZERO DUP1 ISZERO PUSH2 0x12DC JUMPI RETURNDATASIZE PUSH1 0x0 DUP1 RETURNDATACOPY RETURNDATASIZE PUSH1 0x0 REVERT JUMPDEST POP POP POP POP PUSH1 0x40 MLOAD RETURNDATASIZE PUSH1 0x1F NOT PUSH1 0x1F DUP3 ADD AND DUP3 ADD DUP1 PUSH1 0x40 MSTORE POP DUP2 ADD SWAP1 PUSH2 0x1300 SWAP2 SWAP1 PUSH2 0x1949 JUMP JUMPDEST ISZERO PUSH2 0x130A JUMPI SWAP2 SWAP1 POP JUMP JUMPDEST CALLER SWAP2 POP POP SWAP1 JUMP JUMPDEST CALLDATASIZE PUSH1 0x0 PUSH2 0x446 PUSH32 0xFFFFFFFFFFFFFFFFFFFFFFFFFFFFFFFFFFFFFFFFFFFFFFFFFFFFFFFFFFFFFFEC DUP4 ADD DUP3 DUP5 DUP2 PUSH2 0x196B JUMP JUMPDEST PUSH1 0x0 DUP2 DUP2 JUMPDEST DUP5 MLOAD DUP2 LT ISZERO PUSH2 0x137D JUMPI PUSH2 0x1373 DUP3 DUP7 DUP4 DUP2 MLOAD DUP2 LT PUSH2 0x1366 JUMPI PUSH2 0x1366 PUSH2 0x1708 JUMP JUMPDEST PUSH1 0x20 MUL PUSH1 0x20 ADD ADD MLOAD PUSH2 0x1385 JUMP JUMPDEST SWAP2 POP PUSH1 0x1 ADD PUSH2 0x1347 JUMP JUMPDEST POP SWAP4 SWAP3 POP POP POP JUMP JUMPDEST PUSH1 0x0 DUP2 DUP4 LT PUSH2 0x13A1 JUMPI PUSH1 0x0 DUP3 DUP2 MSTORE PUSH1 0x20 DUP5 SWAP1 MSTORE PUSH1 0x40 SWAP1 KECCAK256 PUSH2 0x13B0 JUMP JUMPDEST PUSH1 0x0 DUP4 DUP2 MSTORE PUSH1 0x20 DUP4 SWAP1 MSTORE PUSH1 0x40 SWAP1 KECCAK256 JUMPDEST SWAP4 SWAP3 POP POP POP JUMP JUMPDEST PUSH1 0x0 PUSH1 0x20 DUP3 DUP5 SUB SLT ISZERO PUSH2 0x13C9 JUMPI PUSH1 0x0 DUP1 REVERT JUMPDEST DUP2 CALLDATALOAD PUSH32 0xFFFFFFFF00000000000000000000000000000000000000000000000000000000 DUP2 AND DUP2 EQ PUSH2 0x13B0 JUMPI PUSH1 0x0 DUP1 REVERT JUMPDEST PUSH1 0x20 DUP2 MSTORE DUP2 PUSH1 0x20 DUP3 ADD MSTORE DUP2 DUP4 PUSH1 0x40 DUP4 ADD CALLDATACOPY PUSH1 0x0 DUP2 DUP4 ADD PUSH1 0x40 SWAP1 DUP2 ADD SWAP2 SWAP1 SWAP2 MSTORE PUSH1 0x1F SWAP1 SWAP3 ADD PUSH32 0xFFFFFFFFFFFFFFFFFFFFFFFFFFFFFFFFFFFFFFFFFFFFFFFFFFFFFFFFFFFFFFE0 AND ADD ADD SWAP2 SWAP1 POP JUMP JUMPDEST DUP1 CALLDATALOAD PUSH20 0xFFFFFFFFFFFFFFFFFFFFFFFFFFFFFFFFFFFFFFFF DUP2 AND DUP2 EQ PUSH2 0xE09 JUMPI PUSH1 0x0 DUP1 REVERT JUMPDEST PUSH1 0x0 DUP1 PUSH1 0x40 DUP4 DUP6 SUB SLT ISZERO PUSH2 0x147D JUMPI PUSH1 0x0 DUP1 REVERT JUMPDEST DUP3 CALLDATALOAD SWAP2 POP PUSH2 0x148D PUSH1 0x20 DUP5 ADD PUSH2 0x1446 JUMP JUMPDEST SWAP1 POP SWAP3 POP SWAP3 SWAP1 POP JUMP JUMPDEST PUSH1 0x0 PUSH1 0x20 DUP3 DUP5 SUB SLT ISZERO PUSH2 0x14A8 JUMPI PUSH1 0x0 DUP1 REVERT JUMPDEST PUSH2 0x13B0 DUP3 PUSH2 0x1446 JUMP JUMPDEST PUSH1 0x0 PUSH1 0x20 DUP3 DUP5 SUB SLT ISZERO PUSH2 0x14C3 JUMPI PUSH1 0x0 DUP1 REVERT JUMPDEST POP CALLDATALOAD SWAP2 SWAP1 POP JUMP JUMPDEST PUSH1 0x0 DUP1 DUP4 PUSH1 0x1F DUP5 ADD SLT PUSH2 0x14DC JUMPI PUSH1 0x0 DUP1 REVERT JUMPDEST POP DUP2 CALLDATALOAD PUSH8 0xFFFFFFFFFFFFFFFF DUP2 GT ISZERO PUSH2 0x14F4 JUMPI PUSH1 0x0 DUP1 REVERT JUMPDEST PUSH1 0x20 DUP4 ADD SWAP2 POP DUP4 PUSH1 0x20 DUP3 PUSH1 0x5 SHL DUP6 ADD ADD GT ISZERO PUSH2 0x150F JUMPI PUSH1 0x0 DUP1 REVERT JUMPDEST SWAP3 POP SWAP3 SWAP1 POP JUMP JUMPDEST PUSH1 0x0 DUP1 DUP4 PUSH1 0x1F DUP5 ADD SLT PUSH2 0x1528 JUMPI PUSH1 0x0 DUP1 REVERT JUMPDEST POP DUP2 CALLDATALOAD PUSH8 0xFFFFFFFFFFFFFFFF DUP2 GT ISZERO PUSH2 0x1540 JUMPI PUSH1 0x0 DUP1 REVERT JUMPDEST PUSH1 0x20 DUP4 ADD SWAP2 POP DUP4 PUSH1 0x20 DUP3 DUP6 ADD ADD GT ISZERO PUSH2 0x150F JUMPI PUSH1 0x0 DUP1 REVERT JUMPDEST PUSH1 0x0 DUP1 PUSH1 0x0 DUP1 PUSH1 0x0 DUP1 PUSH1 0x0 DUP1 PUSH1 0xA0 DUP10 DUP12 SUB SLT ISZERO PUSH2 0x1574 JUMPI PUSH1 0x0 DUP1 REVERT JUMPDEST PUSH2 0x157D DUP10 PUSH2 0x1446 JUMP JUMPDEST SWAP8 POP PUSH2 0x158B PUSH1 0x20 DUP11 ADD PUSH2 0x1446 JUMP JUMPDEST SWAP7 POP PUSH1 0x40 DUP10 ADD CALLDATALOAD PUSH8 0xFFFFFFFFFFFFFFFF DUP1 DUP3 GT ISZERO PUSH2 0x15A8 JUMPI PUSH1 0x0 DUP1 REVERT JUMPDEST PUSH2 0x15B4 DUP13 DUP4 DUP14 ADD PUSH2 0x14CA JUMP JUMPDEST SWAP1 SWAP9 POP SWAP7 POP PUSH1 0x60 DUP12 ADD CALLDATALOAD SWAP2 POP DUP1 DUP3 GT ISZERO PUSH2 0x15CD JUMPI PUSH1 0x0 DUP1 REVERT JUMPDEST PUSH2 0x15D9 DUP13 DUP4 DUP14 ADD PUSH2 0x14CA JUMP JUMPDEST SWAP1 SWAP7 POP SWAP5 POP PUSH1 0x80 DUP12 ADD CALLDATALOAD SWAP2 POP DUP1 DUP3 GT ISZERO PUSH2 0x15F2 JUMPI PUSH1 0x0 DUP1 REVERT JUMPDEST POP PUSH2 0x15FF DUP12 DUP3 DUP13 ADD PUSH2 0x1516 JUMP JUMPDEST SWAP10 SWAP13 SWAP9 SWAP12 POP SWAP7 SWAP10 POP SWAP5 SWAP8 SWAP4 SWAP7 SWAP3 SWAP6 SWAP5 POP POP POP JUMP JUMPDEST PUSH1 0x0 DUP1 PUSH1 0x0 DUP1 PUSH1 0x0 DUP1 PUSH1 0xA0 DUP8 DUP10 SUB SLT ISZERO PUSH2 0x162C JUMPI PUSH1 0x0 DUP1 REVERT JUMPDEST PUSH2 0x1635 DUP8 PUSH2 0x1446 JUMP JUMPDEST SWAP6 POP PUSH2 0x1643 PUSH1 0x20 DUP9 ADD PUSH2 0x1446 JUMP JUMPDEST SWAP5 POP PUSH1 0x40 DUP8 ADD CALLDATALOAD SWAP4 POP PUSH1 0x60 DUP8 ADD CALLDATALOAD SWAP3 POP PUSH1 0x80 DUP8 ADD CALLDATALOAD PUSH8 0xFFFFFFFFFFFFFFFF DUP2 GT ISZERO PUSH2 0x166D JUMPI PUSH1 0x0 DUP1 REVERT JUMPDEST PUSH2 0x1679 DUP10 DUP3 DUP11 ADD PUSH2 0x1516 JUMP JUMPDEST SWAP8 SWAP11 SWAP7 SWAP10 POP SWAP5 SWAP8 POP SWAP3 SWAP6 SWAP4 SWAP5 SWAP3 POP POP POP JUMP JUMPDEST PUSH32 0x4E487B7100000000000000000000000000000000000000000000000000000000 PUSH1 0x0 MSTORE PUSH1 0x11 PUSH1 0x4 MSTORE PUSH1 0x24 PUSH1 0x0 REVERT JUMPDEST DUP2 DUP2 SUB DUP2 DUP2 GT ISZERO PUSH2 0x435 JUMPI PUSH2 0x435 PUSH2 0x168B JUMP JUMPDEST PUSH1 0x0 DUP3 PUSH2 0x1703 JUMPI PUSH32 0x4E487B7100000000000000000000000000000000000000000000000000000000 PUSH1 0x0 MSTORE PUSH1 0x12 PUSH1 0x4 MSTORE PUSH1 0x24 PUSH1 0x0 REVERT JUMPDEST POP DIV SWAP1 JUMP JUMPDEST PUSH32 0x4E487B7100000000000000000000000000000000000000000000000000000000 PUSH1 0x0 MSTORE PUSH1 0x32 PUSH1 0x4 MSTORE PUSH1 0x24 PUSH1 0x0 REVERT JUMPDEST DUP1 DUP3 MUL DUP2 ISZERO DUP3 DUP3 DIV DUP5 EQ OR PUSH2 0x435 JUMPI PUSH2 0x435 PUSH2 0x168B JUMP JUMPDEST DUP1 DUP3 ADD DUP1 DUP3 GT ISZERO PUSH2 0x435 JUMPI PUSH2 0x435 PUSH2 0x168B JUMP JUMPDEST PUSH32 0x4E487B7100000000000000000000000000000000000000000000000000000000 PUSH1 0x0 MSTORE PUSH1 0x41 PUSH1 0x4 MSTORE PUSH1 0x24 PUSH1 0x0 REVERT JUMPDEST PUSH1 0x0 DUP1 PUSH1 0x40 DUP4 DUP6 SUB SLT ISZERO PUSH2 0x17A3 JUMPI PUSH1 0x0 DUP1 REVERT JUMPDEST DUP3 CALLDATALOAD PUSH8 0xFFFFFFFFFFFFFFFF DUP1 DUP3 GT ISZERO PUSH2 0x17BB JUMPI PUSH1 0x0 DUP1 REVERT JUMPDEST DUP2 DUP6 ADD SWAP2 POP DUP6 PUSH1 0x1F DUP4 ADD SLT PUSH2 0x17CF JUMPI PUSH1 0x0 DUP1 REVERT JUMPDEST DUP2 CALLDATALOAD PUSH1 0x20 DUP3 DUP3 GT ISZERO PUSH2 0x17E3 JUMPI PUSH2 0x17E3 PUSH2 0x1761 JUMP JUMPDEST DUP2 PUSH1 0x5 SHL PUSH1 0x40 MLOAD PUSH32 0xFFFFFFFFFFFFFFFFFFFFFFFFFFFFFFFFFFFFFFFFFFFFFFFFFFFFFFFFFFFFFFE0 PUSH1 0x3F DUP4 ADD AND DUP2 ADD DUP2 DUP2 LT DUP7 DUP3 GT OR ISZERO PUSH2 0x1826 JUMPI PUSH2 0x1826 PUSH2 0x1761 JUMP JUMPDEST PUSH1 0x40 MSTORE SWAP3 DUP4 MSTORE DUP2 DUP4 ADD SWAP4 POP DUP5 DUP2 ADD DUP3 ADD SWAP3 DUP10 DUP5 GT ISZERO PUSH2 0x1844 JUMPI PUSH1 0x0 DUP1 REVERT JUMPDEST SWAP5 DUP3 ADD SWAP5 JUMPDEST DUP4 DUP7 LT ISZERO PUSH2 0x1862 JUMPI DUP6 CALLDATALOAD DUP6 MSTORE SWAP5 DUP3 ADD SWAP5 SWAP4 DUP3 ADD SWAP4 PUSH2 0x1849 JUMP JUMPDEST SWAP10 SWAP8 SWAP1 SWAP2 ADD CALLDATALOAD SWAP8 POP POP POP POP POP POP POP JUMP JUMPDEST DUP2 DUP4 MSTORE PUSH1 0x0 PUSH32 0x7FFFFFFFFFFFFFFFFFFFFFFFFFFFFFFFFFFFFFFFFFFFFFFFFFFFFFFFFFFFFFF DUP4 GT ISZERO PUSH2 0x18A4 JUMPI PUSH1 0x0 DUP1 REVERT JUMPDEST DUP3 PUSH1 0x5 SHL DUP1 DUP4 PUSH1 0x20 DUP8 ADD CALLDATACOPY SWAP4 SWAP1 SWAP4 ADD PUSH1 0x20 ADD SWAP4 SWAP3 POP POP POP JUMP JUMPDEST PUSH20 0xFFFFFFFFFFFFFFFFFFFFFFFFFFFFFFFFFFFFFFFF DUP7 AND DUP2 MSTORE PUSH1 0x60 PUSH1 0x20 DUP3 ADD MSTORE PUSH1 0x0 PUSH2 0x18ED PUSH1 0x60 DUP4 ADD DUP7 DUP9 PUSH2 0x1872 JUMP JUMPDEST DUP3 DUP2 SUB PUSH1 0x40 DUP5 ADD MSTORE PUSH2 0x1900 DUP2 DUP6 DUP8 PUSH2 0x1872 JUMP JUMPDEST SWAP9 SWAP8 POP POP POP POP POP POP POP POP JUMP JUMPDEST PUSH1 0x80 DUP2 MSTORE PUSH1 0x0 PUSH2 0x1920 PUSH1 0x80 DUP4 ADD DUP9 DUP11 PUSH2 0x1872 JUMP JUMPDEST DUP3 DUP2 SUB PUSH1 0x20 DUP5 ADD MSTORE PUSH2 0x1933 DUP2 DUP8 DUP10 PUSH2 0x1872 JUMP JUMPDEST PUSH1 0x40 DUP5 ADD SWAP6 SWAP1 SWAP6 MSTORE POP POP PUSH1 0x60 ADD MSTORE SWAP5 SWAP4 POP POP POP POP JUMP JUMPDEST PUSH1 0x0 PUSH1 0x20 DUP3 DUP5 SUB SLT ISZERO PUSH2 0x195B JUMPI PUSH1 0x0 DUP1 REVERT JUMPDEST DUP2 MLOAD DUP1 ISZERO ISZERO DUP2 EQ PUSH2 0x13B0 JUMPI PUSH1 0x0 DUP1 REVERT JUMPDEST PUSH1 0x0 DUP1 DUP6 DUP6 GT ISZERO PUSH2 0x197B JUMPI PUSH1 0x0 DUP1 REVERT JUMPDEST DUP4 DUP7 GT ISZERO PUSH2 0x1988 JUMPI PUSH1 0x0 DUP1 REVERT JUMPDEST POP POP DUP3 ADD SWAP4 SWAP2 SWAP1 SWAP3 SUB SWAP2 POP JUMP INVALID LOG2 PUSH5 0x6970667358 0x22 SLT KECCAK256 SWAP4 RETURNDATACOPY ISZERO GASLIMIT SELFBALANCE CREATE2 0xB8 GASPRICE 0xBC CALL PUSH19 0x4BCE388C0AF915D6CFE0F5B24A47D39E5E3A08 DIV 0xD1 PUSH5 0x736F6C6343 STOP ADDMOD AND STOP CALLER "},"gasEstimates":{"creation":{"codeDepositCost":"1320600","executionCost":"infinite","totalCost":"infinite"},"external":{"CYCLE_DURATION()":"infinite","INITIAL_TIME()":"infinite","MAX_CYCLE()":"infinite","MERKLE_ROOT()":"infinite","MISSING_ORB()":"infinite","ORB_OF_POWER()":"infinite","TOKEN_MULTIPLIER()":"285","__msgData()":"infinite","__msgSender()":"infinite","currentCycle()":"infinite","forwarderRegistry()":"infinite","isTrustedForwarder(address)":"infinite","leafConsumptionStatus(bytes32)":"2505","multiplierInfos(address)":"2552","onERC1155BatchReceived(address,address,uint256[],uint256[],bytes)":"infinite","onERC1155Received(address,address,uint256,uint256,bytes)":"infinite","supportsInterface(bytes4)":"infinite","totalAshPerCycle(uint256)":"2509","userAshPerCycle(uint256,address)":"2672"}},"methodIdentifiers":{"CYCLE_DURATION()":"cd421fbf","INITIAL_TIME()":"491bde66","MAX_CYCLE()":"043063bc","MERKLE_ROOT()":"51e75e8b","MISSING_ORB()":"cd18a34f","ORB_OF_POWER()":"28a979cf","TOKEN_MULTIPLIER()":"2b093fe9","__msgData()":"31e66e1e","__msgSender()":"d1a91ff2","currentCycle()":"bab2f552","forwarderRegistry()":"2b4c9f16","isTrustedForwarder(address)":"572b6c05","leafConsumptionStatus(bytes32)":"e1c96c20","multiplierInfos(address)":"b28fd6e6","onERC1155BatchReceived(address,address,uint256[],uint256[],bytes)":"bc197c81","onERC1155Received(address,address,uint256,uint256,bytes)":"f23a6e61","supportsInterface(bytes4)":"01ffc9a7","totalAshPerCycle(uint256)":"ab504e73","userAshPerCycle(uint256,address)":"4dac1c2b"}},"storageLayout":{"storage":[{"astId":1937,"contract":"contracts/mocks/burn/AnichessOrbsBurnPoolMock.sol:AnichessOrbsBurnPoolMock","label":"totalAshPerCycle","offset":0,"slot":"0","type":"t_mapping(t_uint256,t_uint256)"},{"astId":1944,"contract":"contracts/mocks/burn/AnichessOrbsBurnPoolMock.sol:AnichessOrbsBurnPoolMock","label":"userAshPerCycle","offset":0,"slot":"1","type":"t_mapping(t_uint256,t_mapping(t_address,t_uint256))"},{"astId":1949,"contract":"contracts/mocks/burn/AnichessOrbsBurnPoolMock.sol:AnichessOrbsBurnPoolMock","label":"leafConsumptionStatus","offset":0,"slot":"2","type":"t_mapping(t_bytes32,t_bool)"},{"astId":1954,"contract":"contracts/mocks/burn/AnichessOrbsBurnPoolMock.sol:AnichessOrbsBurnPoolMock","label":"multiplierInfos","offset":0,"slot":"3","type":"t_mapping(t_address,t_uint256)"}],"types":{"t_address":{"encoding":"inplace","label":"address","numberOfBytes":"20"},"t_bool":{"encoding":"inplace","label":"bool","numberOfBytes":"1"},"t_bytes32":{"encoding":"inplace","label":"bytes32","numberOfBytes":"32"},"t_mapping(t_address,t_uint256)":{"encoding":"mapping","key":"t_address","label":"mapping(address => uint256)","numberOfBytes":"32","value":"t_uint256"},"t_mapping(t_bytes32,t_bool)":{"encoding":"mapping","key":"t_bytes32","label":"mapping(bytes32 => bool)","numberOfBytes":"32","value":"t_bool"},"t_mapping(t_uint256,t_mapping(t_address,t_uint256))":{"encoding":"mapping","key":"t_uint256","label":"mapping(uint256 => mapping(address => uint256))","numberOfBytes":"32","value":"t_mapping(t_address,t_uint256)"},"t_mapping(t_uint256,t_uint256)":{"encoding":"mapping","key":"t_uint256","label":"mapping(uint256 => uint256)","numberOfBytes":"32","value":"t_uint256"},"t_uint256":{"encoding":"inplace","label":"uint256","numberOfBytes":"32"}}},"userdoc":{"errors":{"AlreadyConsumedLeaf(bytes32)":[{"notice":"Error thrown when the leaf is already consumed."}],"AlreadySetAnichessGameMultiplierNumerator(address)":[{"notice":"Error thrown when the payout has already been claimed."}],"AlreadySetTokenMultiplier(address)":[{"notice":"Error thrown when the wallet already has the token multiplier been set."}],"IllegalInterfaceId()":[{"notice":"Thrown when setting the illegal interfaceId 0xffffffff."}],"InvalidCycle(uint256)":[{"notice":"Error thrown when the cycle is invalid."}],"InvalidProof()":[{"notice":"Error thrown when the proof is invalid."}],"InvalidToken(address)":[{"notice":"Error thrown when the token is not approved."}],"InvalidTokenId(address,uint256)":[{"notice":"Error thrown when the token ID is invalid."}],"InvalidTokenValue(uint256,uint256)":[{"notice":"Error thrown when the token amount is invalid."}],"ZeroCycleDuration()":[{"notice":"Error thrown when the cycle duration is invalid."}],"ZeroMaxCycle()":[{"notice":"Error thrown when the cycle is invalid."}]},"events":{"GenerateAsh(address,uint256,uint256[],uint256[],uint256,uint256)":{"notice":"Event emitted when ASH are generated."},"UpdateMultiplierInfo(address,uint256,uint256)":{"notice":"Event emitted when the multiplier info is updated."}},"kind":"user","methods":{"CYCLE_DURATION()":{"notice":"The duration of each cycle."},"INITIAL_TIME()":{"notice":"The initial time of the contract."},"MAX_CYCLE()":{"notice":"The maximum cycle."},"MERKLE_ROOT()":{"notice":"The Merkle root for setting the anichess game multiplier."},"MISSING_ORB()":{"notice":"The IERC1155 erc1155 contract for setting the token multiplier."},"ORB_OF_POWER()":{"notice":"The IERC1155Burnable erc1155 contracts burn to generate ASH."},"TOKEN_MULTIPLIER()":{"notice":"The token multiplier."},"__msgData()":{"notice":"Internal function to access the current msg.data."},"currentCycle()":{"notice":"Get the current cycle."},"isTrustedForwarder(address)":{"notice":"Checks whether a forwarder is trusted."},"leafConsumptionStatus(bytes32)":{"notice":"The merkle leaf consumption status for the anichess game multiplier."},"multiplierInfos(address)":{"notice":"The multiplier info for each user, first 128 bits are the anichess game multiplier numerator, last 128 bits are the token multiplier."},"onERC1155BatchReceived(address,address,uint256[],uint256[],bytes)":{"notice":"Burn the tokens and calculate the ash."},"onERC1155Received(address,address,uint256,uint256,bytes)":{"notice":"Set the token multiplier by burning the Riddle of Chaos.and set the AnichessGame multiplier through a Merkle proof in the data field."},"supportsInterface(bytes4)":{"notice":"Returns whether this contract implements a given interface."},"totalAshPerCycle(uint256)":{"notice":"The total amount of ASH generated in each cycle."},"userAshPerCycle(uint256,address)":{"notice":"The total amount of ASH generated by each user in each cycle."}},"version":1}}}}