{"contracts/game/Gambit.sol":{"Gambit":{"abi":[{"inputs":[{"internalType":"address payable","name":"payoutAddress","type":"address"},{"internalType":"contract IERC20","name":"buyInToken","type":"address"},{"internalType":"uint256","name":"buyIn_","type":"uint256"},{"internalType":"uint256","name":"platformFee_","type":"uint256"}],"stateMutability":"nonpayable","type":"constructor"},{"inputs":[{"internalType":"address","name":"target","type":"address"},{"internalType":"uint256","name":"matchId","type":"uint256"},{"internalType":"address","name":"winner","type":"address"},{"internalType":"address","name":"loser","type":"address"},{"internalType":"uint256","name":"prize","type":"uint256"},{"internalType":"uint256","name":"totalFee","type":"uint256"}],"name":"CallbackRejected","type":"error"},{"inputs":[],"name":"ECDSAInvalidSignature","type":"error"},{"inputs":[{"internalType":"uint256","name":"length","type":"uint256"}],"name":"ECDSAInvalidSignatureLength","type":"error"},{"inputs":[{"internalType":"bytes32","name":"s","type":"bytes32"}],"name":"ECDSAInvalidSignatureS","type":"error"},{"inputs":[],"name":"ExpiredSignature","type":"error"},{"inputs":[],"name":"IllegalInterfaceId","type":"error"},{"inputs":[{"internalType":"uint256","name":"matchId","type":"uint256"}],"name":"InsufficientMatchBalance","type":"error"},{"inputs":[{"internalType":"uint256","name":"matchId","type":"uint256"}],"name":"InsufficientPlayers","type":"error"},{"inputs":[],"name":"InvalidPlayer","type":"error"},{"inputs":[],"name":"InvalidPlayerMoveKey","type":"error"},{"inputs":[],"name":"InvalidShortString","type":"error"},{"inputs":[{"internalType":"uint256","name":"matchId","type":"uint256"}],"name":"MatchAlreadyConcluded","type":"error"},{"inputs":[{"internalType":"uint256","name":"matchId","type":"uint256"}],"name":"MatchIsFull","type":"error"},{"inputs":[{"internalType":"address","name":"account","type":"address"}],"name":"NotContractOwner","type":"error"},{"inputs":[{"internalType":"uint256","name":"matchId","type":"uint256"},{"internalType":"address","name":"player","type":"address"}],"name":"NotMatchPlayer","type":"error"},{"inputs":[],"name":"NotPaused","type":"error"},{"inputs":[{"internalType":"bytes32","name":"role","type":"bytes32"},{"internalType":"address","name":"account","type":"address"}],"name":"NotRoleHolder","type":"error"},{"inputs":[],"name":"Paused","type":"error"},{"inputs":[{"internalType":"uint256","name":"buyInAmount","type":"uint256"},{"internalType":"uint256","name":"newPlatformFee","type":"uint256"}],"name":"PlatformFeeExceedsBuyIn","type":"error"},{"inputs":[{"internalType":"uint256","name":"matchId","type":"uint256"},{"internalType":"address","name":"player","type":"address"}],"name":"PlayerAlreadyJoined","type":"error"},{"inputs":[{"internalType":"uint256","name":"matchId","type":"uint256"},{"internalType":"address","name":"player","type":"address"}],"name":"PlayerAlreadyRefunded","type":"error"},{"inputs":[{"internalType":"address","name":"token","type":"address"}],"name":"SafeERC20FailedOperation","type":"error"},{"inputs":[{"internalType":"string","name":"str","type":"string"}],"name":"StringTooLong","type":"error"},{"inputs":[],"name":"ZeroAddressPayoutWallet","type":"error"},{"anonymous":false,"inputs":[{"indexed":true,"internalType":"uint256","name":"oldBuyIn","type":"uint256"},{"indexed":true,"internalType":"uint256","name":"newBuyIn","type":"uint256"}],"name":"BuyInUpdated","type":"event"},{"anonymous":false,"inputs":[],"name":"EIP712DomainChanged","type":"event"},{"anonymous":false,"inputs":[{"indexed":true,"internalType":"address","name":"newCallback","type":"address"}],"name":"MatchCompleteCallbackUpdated","type":"event"},{"anonymous":false,"inputs":[{"indexed":true,"internalType":"uint256","name":"matchId","type":"uint256"},{"indexed":true,"internalType":"address","name":"winner","type":"address"},{"indexed":false,"internalType":"uint256","name":"prizeAmount","type":"uint256"}],"name":"MatchCompleted","type":"event"},{"anonymous":false,"inputs":[{"indexed":true,"internalType":"uint256","name":"matchId","type":"uint256"},{"indexed":true,"internalType":"address","name":"player","type":"address"},{"indexed":false,"internalType":"uint256","name":"refundAmount","type":"uint256"}],"name":"MatchRefunded","type":"event"},{"anonymous":false,"inputs":[{"indexed":true,"internalType":"address","name":"previousOwner","type":"address"},{"indexed":true,"internalType":"address","name":"newOwner","type":"address"}],"name":"OwnershipTransferred","type":"event"},{"anonymous":false,"inputs":[],"name":"Pause","type":"event"},{"anonymous":false,"inputs":[{"indexed":false,"internalType":"address","name":"payoutWallet","type":"address"}],"name":"PayoutWalletSet","type":"event"},{"anonymous":false,"inputs":[{"indexed":true,"internalType":"uint256","name":"oldPlatformFee","type":"uint256"},{"indexed":true,"internalType":"uint256","name":"newPlatformFee","type":"uint256"}],"name":"PlatformFeeUpdated","type":"event"},{"anonymous":false,"inputs":[{"indexed":true,"internalType":"uint256","name":"matchId","type":"uint256"},{"indexed":true,"internalType":"address","name":"player","type":"address"},{"indexed":true,"internalType":"address","name":"playerMoveKey","type":"address"},{"indexed":false,"internalType":"bool","name":"isPlayer1","type":"bool"},{"indexed":false,"internalType":"uint256","name":"buyIn","type":"uint256"},{"indexed":false,"internalType":"uint256","name":"platformFee","type":"uint256"}],"name":"PlayerJoined","type":"event"},{"anonymous":false,"inputs":[{"indexed":false,"internalType":"bytes32","name":"role","type":"bytes32"},{"indexed":false,"internalType":"address","name":"account","type":"address"},{"indexed":false,"internalType":"address","name":"operator","type":"address"}],"name":"RoleGranted","type":"event"},{"anonymous":false,"inputs":[{"indexed":false,"internalType":"bytes32","name":"role","type":"bytes32"},{"indexed":false,"internalType":"address","name":"account","type":"address"},{"indexed":false,"internalType":"address","name":"operator","type":"address"}],"name":"RoleRevoked","type":"event"},{"anonymous":false,"inputs":[],"name":"Unpause","type":"event"},{"inputs":[],"name":"ADMIN_ROLE","outputs":[{"internalType":"bytes32","name":"","type":"bytes32"}],"stateMutability":"view","type":"function"},{"inputs":[],"name":"BUYIN_TOKEN","outputs":[{"internalType":"contract IERC20","name":"","type":"address"}],"stateMutability":"view","type":"function"},{"inputs":[],"name":"COMPLETE_MATCH_TYPEHASH","outputs":[{"internalType":"bytes32","name":"","type":"bytes32"}],"stateMutability":"view","type":"function"},{"inputs":[],"name":"DRAW_MATCH_TYPEHASH","outputs":[{"internalType":"bytes32","name":"","type":"bytes32"}],"stateMutability":"view","type":"function"},{"inputs":[],"name":"JOIN_MATCH_TYPEHASH","outputs":[{"internalType":"bytes32","name":"","type":"bytes32"}],"stateMutability":"view","type":"function"},{"inputs":[],"name":"REFEREE_ROLE","outputs":[{"internalType":"bytes32","name":"","type":"bytes32"}],"stateMutability":"view","type":"function"},{"inputs":[],"name":"REFUND_MATCH_TYPEHASH","outputs":[{"internalType":"bytes32","name":"","type":"bytes32"}],"stateMutability":"view","type":"function"},{"inputs":[],"name":"buyIn","outputs":[{"internalType":"uint256","name":"","type":"uint256"}],"stateMutability":"view","type":"function"},{"inputs":[{"internalType":"uint256","name":"matchId","type":"uint256"},{"internalType":"address","name":"winner","type":"address"},{"internalType":"bytes","name":"signature","type":"bytes"}],"name":"completeMatch","outputs":[],"stateMutability":"nonpayable","type":"function"},{"inputs":[{"internalType":"uint256","name":"matchId","type":"uint256"},{"internalType":"address","name":"player","type":"address"},{"internalType":"bytes","name":"signature","type":"bytes"}],"name":"drawMatch","outputs":[],"stateMutability":"nonpayable","type":"function"},{"inputs":[],"name":"eip712Domain","outputs":[{"internalType":"bytes1","name":"fields","type":"bytes1"},{"internalType":"string","name":"name","type":"string"},{"internalType":"string","name":"version","type":"string"},{"internalType":"uint256","name":"chainId","type":"uint256"},{"internalType":"address","name":"verifyingContract","type":"address"},{"internalType":"bytes32","name":"salt","type":"bytes32"},{"internalType":"uint256[]","name":"extensions","type":"uint256[]"}],"stateMutability":"view","type":"function"},{"inputs":[{"internalType":"bytes32","name":"role","type":"bytes32"},{"internalType":"address","name":"account","type":"address"}],"name":"grantRole","outputs":[],"stateMutability":"nonpayable","type":"function"},{"inputs":[{"internalType":"bytes32","name":"role","type":"bytes32"},{"internalType":"address","name":"account","type":"address"}],"name":"hasRole","outputs":[{"internalType":"bool","name":"hasRole_","type":"bool"}],"stateMutability":"view","type":"function"},{"inputs":[{"internalType":"uint256","name":"matchId","type":"uint256"}],"name":"isMatchConcluded","outputs":[{"internalType":"bool","name":"","type":"bool"}],"stateMutability":"view","type":"function"},{"inputs":[{"internalType":"uint256","name":"matchId","type":"uint256"},{"internalType":"address","name":"player","type":"address"},{"internalType":"address","name":"playerMoveKey","type":"address"},{"internalType":"uint256","name":"matchDeadline","type":"uint256"},{"internalType":"bytes","name":"signature","type":"bytes"}],"name":"joinMatch","outputs":[],"stateMutability":"nonpayable","type":"function"},{"inputs":[],"name":"matchCompleteCallback","outputs":[{"internalType":"contract IGambitMatchCompleteCallback","name":"","type":"address"}],"stateMutability":"view","type":"function"},{"inputs":[{"internalType":"uint256","name":"matchId","type":"uint256"}],"name":"matches","outputs":[{"internalType":"address","name":"p1","type":"address"},{"internalType":"address","name":"p2","type":"address"},{"internalType":"address","name":"p1MoveKey","type":"address"},{"internalType":"address","name":"p2MoveKey","type":"address"},{"internalType":"uint256","name":"p1Balance","type":"uint256"},{"internalType":"uint256","name":"p2Balance","type":"uint256"},{"internalType":"uint256","name":"platformFee","type":"uint256"}],"stateMutability":"view","type":"function"},{"inputs":[],"name":"owner","outputs":[{"internalType":"address","name":"","type":"address"}],"stateMutability":"view","type":"function"},{"inputs":[],"name":"pause","outputs":[],"stateMutability":"nonpayable","type":"function"},{"inputs":[],"name":"paused","outputs":[{"internalType":"bool","name":"","type":"bool"}],"stateMutability":"view","type":"function"},{"inputs":[],"name":"payoutWallet","outputs":[{"internalType":"address payable","name":"wallet","type":"address"}],"stateMutability":"view","type":"function"},{"inputs":[],"name":"platformFee","outputs":[{"internalType":"uint256","name":"","type":"uint256"}],"stateMutability":"view","type":"function"},{"inputs":[{"internalType":"uint256","name":"matchId","type":"uint256"}],"name":"refundMatch","outputs":[],"stateMutability":"nonpayable","type":"function"},{"inputs":[{"internalType":"uint256","name":"matchId","type":"uint256"},{"internalType":"address","name":"player","type":"address"},{"internalType":"bytes","name":"signature","type":"bytes"}],"name":"refundMatch","outputs":[],"stateMutability":"nonpayable","type":"function"},{"inputs":[{"internalType":"bytes32","name":"role","type":"bytes32"}],"name":"renounceRole","outputs":[],"stateMutability":"nonpayable","type":"function"},{"inputs":[{"internalType":"bytes32","name":"role","type":"bytes32"},{"internalType":"address","name":"account","type":"address"}],"name":"revokeRole","outputs":[],"stateMutability":"nonpayable","type":"function"},{"inputs":[{"internalType":"uint256","name":"newBuyIn","type":"uint256"}],"name":"setBuyIn","outputs":[],"stateMutability":"nonpayable","type":"function"},{"inputs":[{"internalType":"address","name":"newCallback","type":"address"}],"name":"setMatchCompleteCallback","outputs":[],"stateMutability":"nonpayable","type":"function"},{"inputs":[{"internalType":"address payable","name":"newPayoutWallet","type":"address"}],"name":"setPayoutWallet","outputs":[],"stateMutability":"nonpayable","type":"function"},{"inputs":[{"internalType":"uint256","name":"newPlatformFee","type":"uint256"}],"name":"setPlatformFee","outputs":[],"stateMutability":"nonpayable","type":"function"},{"inputs":[{"internalType":"bytes4","name":"interfaceId","type":"bytes4"}],"name":"supportsInterface","outputs":[{"internalType":"bool","name":"","type":"bool"}],"stateMutability":"view","type":"function"},{"inputs":[{"internalType":"address","name":"newOwner","type":"address"}],"name":"transferOwnership","outputs":[],"stateMutability":"nonpayable","type":"function"},{"inputs":[],"name":"unpause","outputs":[],"stateMutability":"nonpayable","type":"function"}],"devdoc":{"errors":{"CallbackRejected(address,uint256,address,address,uint256,uint256)":[{"params":{"loser":"The address of the losing player.","matchId":"The ID of the match.","prize":"The amount awarded to the winner.","target":"The address of the callback contract.","totalFee":"The total platform fee for the match.","winner":"The address of the winning player."}}],"ECDSAInvalidSignature()":[{"details":"The signature derives the `address(0)`."}],"ECDSAInvalidSignatureLength(uint256)":[{"details":"The signature has an invalid length."}],"ECDSAInvalidSignatureS(bytes32)":[{"details":"The signature has an S value that is in the upper half order."}],"InsufficientMatchBalance(uint256)":[{"params":{"matchId":"The ID of the match."}}],"InsufficientPlayers(uint256)":[{"params":{"matchId":"The ID of the match."}}],"MatchAlreadyConcluded(uint256)":[{"params":{"matchId":"The ID of the match."}}],"MatchIsFull(uint256)":[{"params":{"matchId":"The ID of the match."}}],"NotContractOwner(address)":[{"params":{"account":"The account that was checked."}}],"NotMatchPlayer(uint256,address)":[{"params":{"matchId":"The ID of the match.","player":"The address of the player."}}],"NotRoleHolder(bytes32,address)":[{"params":{"account":"The account that was checked.","role":"The role the caller is missing."}}],"PlayerAlreadyJoined(uint256,address)":[{"params":{"matchId":"The ID of the match.","player":"The address of the player."}}],"PlayerAlreadyRefunded(uint256,address)":[{"params":{"matchId":"The ID of the match.","player":"The address of the player."}}],"SafeERC20FailedOperation(address)":[{"details":"An operation with an ERC-20 token failed."}]},"events":{"BuyInUpdated(uint256,uint256)":{"params":{"newBuyIn":"The new buy-in amount.","oldBuyIn":"The previous buy-in amount."}},"EIP712DomainChanged()":{"details":"MAY be emitted to signal that the domain could have changed."},"MatchCompleteCallbackUpdated(address)":{"params":{"newCallback":"The address of the new match complete callback."}},"MatchCompleted(uint256,address,uint256)":{"params":{"matchId":"The ID of the match.","prizeAmount":"The amount awarded to the winner","winner":"The address of the winning player."}},"MatchRefunded(uint256,address,uint256)":{"params":{"matchId":"The ID of the match.","player":"The address of the player being refunded.","refundAmount":"The amount refunded to the player."}},"OwnershipTransferred(address,address)":{"params":{"newOwner":"the new contract owner.","previousOwner":"the previous contract owner."}},"PayoutWalletSet(address)":{"params":{"payoutWallet":"the new payout wallet address."}},"PlatformFeeUpdated(uint256,uint256)":{"params":{"newPlatformFee":"The new platform fee.","oldPlatformFee":"The previous platform fee."}},"PlayerJoined(uint256,address,address,bool,uint256,uint256)":{"params":{"buyIn":"The buy-in amount for the match.","isPlayer1":"A boolean indicating if the player is Player 1.","matchId":"The ID of the match.","platformFee":"The platform fee for the match.","player":"The address of the player joining the match.","playerMoveKey":"The address of the move key for the player."}},"RoleGranted(bytes32,address,address)":{"params":{"account":"The account that has been granted the role.","operator":"The account that granted the role.","role":"The role that has been granted."}},"RoleRevoked(bytes32,address,address)":{"params":{"account":"The account that has been revoked the role.","operator":"The account that revoked the role.","role":"The role that has been revoked."}}},"kind":"dev","methods":{"completeMatch(uint256,address,bytes)":{"details":"Reverts if the signature is invalid.Reverts if the match funds are insufficient to complete.Reverts if the winner is not a player in the match.Emits a {MatchCompleted} event.","params":{"matchId":"The ID of the match to complete.","signature":"The signature of the authorized signer.","winner":"The address of the winner."}},"drawMatch(uint256,address,bytes)":{"details":"Reverts if the signature is invalid.Reverts if the match funds are insufficient to draw.Reverts if the player is not part of the match.Reverts if the player has already been refunded.Emits a {MatchRefunded} event.","params":{"matchId":"The ID of the match to draw.","player":"The address of the player requesting the draw.","signature":"The signature of the authorized signer."}},"eip712Domain()":{"details":"See {IERC-5267}."},"grantRole(bytes32,address)":{"details":"Reverts with {NotContractOwner} if the sender is not the contract owner.Emits a {RoleGranted} event if the account did not previously have the role.","params":{"account":"The account to grant the role to.","role":"The role to grant."}},"hasRole(bytes32,address)":{"params":{"account":"The account.","role":"The role."},"returns":{"hasRole_":"Whether `account` has `role`."}},"isMatchConcluded(uint256)":{"params":{"matchId":"The ID of the match to check."},"returns":{"_0":"isConcluded A boolean indicating whether the match is concluded or not."}},"joinMatch(uint256,address,address,uint256,bytes)":{"details":"Reverts if the signature is invalid or expired.Reverts if the player or playerMoveKey is the zero address.Reverts if the contract is paused.Reverts if the match is already full.Emits a {PlayerJoined} event.","params":{"matchDeadline":"The deadline for the match.","matchId":"The ID of the match to join.","player":"The address of the player joining the match.","playerMoveKey":"The address of the move key for the player.","signature":"The signature of the authorized signer."}},"owner()":{"returns":{"_0":"The address of the contract owner."}},"pause()":{"details":"Reverts with {NotContractOwner} if the sender is not the contract owner.Reverts with {Paused} if the contract is paused.Emits a {Paused} event."},"paused()":{"returns":{"_0":"The paused state of the contract."}},"payoutWallet()":{"returns":{"wallet":"The payout wallet."}},"refundMatch(uint256)":{"details":"Reverts if caller is not an admin.Reverts if the match has already been concluded.","params":{"matchId":"The ID of the match to refund."}},"refundMatch(uint256,address,bytes)":{"details":"Reverts if the signature is invalid.Reverts if the match has already been concluded.Reverts if the player is not part of the match.Reverts if the player has already been refunded.Emits a {MatchRefunded} event.","params":{"matchId":"The ID of the match to refund.","player":"The address of the player requesting the refund.","signature":"The signature of the authorized signer."}},"renounceRole(bytes32)":{"details":"Reverts if `sender` does not have `role`.Emits a {RoleRevoked} event.","params":{"role":"The role to renounce."}},"revokeRole(bytes32,address)":{"details":"Reverts with {NotContractOwner} if the sender is not the contract owner.Emits a {RoleRevoked} event if the account previously had the role.","params":{"account":"The account to revoke the role from.","role":"The role to revoke."}},"setBuyIn(uint256)":{"details":"Reverts with {NotRoleHolder} if sender does not have ADMIN_ROLE.Emits a {BuyInUpdated} event.","params":{"newBuyIn":"The new buy-in amount."}},"setMatchCompleteCallback(address)":{"details":"Reverts if caller is not the contract owner.Emits a {MatchCompleteCallbackUpdated} event.","params":{"newCallback":"The address of the new match complete callback."}},"setPayoutWallet(address)":{"details":"Reverts with {NotContractOwner} if the sender is not the contract owner.Reverts with {ZeroAddressPayoutWallet} if `newPayoutWallet` is the zero address.Emits a {PayoutWalletSet} event.","params":{"newPayoutWallet":"The payout wallet."}},"setPlatformFee(uint256)":{"details":"Reverts with {NotRoleHolder} if sender does not have ADMIN_ROLE.Emits a {PlatformFeeUpdated} event.","params":{"newPlatformFee":"The new platform fee."}},"supportsInterface(bytes4)":{"details":"Note: This function call must use less than 30 000 gas.","params":{"interfaceId":"the interface identifier to test."},"returns":{"_0":"True if the interface is supported, false if `interfaceId` is `0xffffffff` or if the interface is not supported."}},"transferOwnership(address)":{"details":"Reverts if the sender is not the contract owner.Emits an {OwnershipTransferred} event if `newOwner` is different from the current contract owner.","params":{"newOwner":"The address of the new contract owner. Using the zero address means renouncing ownership."}},"unpause()":{"details":"Reverts with {NotContractOwner} if the sender is not the contract owner.Reverts with {NotPaused} if the contract is not paused.Emits an {Unpaused} event."}},"version":1},"evm":{"bytecode":{"linkReferences":{},"object":"61018080604052346103c357608081613874803803809161002082856103c8565b8339810103126103c35780516001600160a01b03811691908290036103c35760208101516001600160a01b03811681036103c35760606040830151920151926040519061006e6040836103c8565b60068252602082016511d85b589a5d60d21b8152604051926100916040856103c8565b600184526020840192603160f81b845233610364575b6307f5828d60e41b6000527fca9d3e17f264b0f3984e2634e94adb37fa3e6a8103f06aeae6fa59e21c769f5d6020527fa53d5a615b1d5279f1a6647c5c0f31bf064b1e70af135676a4a96aeaeb691a2f805460ff191660011790558015610353577f4fb5f8cdfbce77f22b0931a39e9f476a60a0f66524b2f379e96485471eb700ad80546001600160a01b031916821790556040519081527fdd880d24a789958a6398c99c2e54ce31bc10a638cbc42f7dd34285479ae0f85590602090a161016e81610421565b6101205261017b846105e3565b61014052519020918260e05251902080610100524660a0526040519060208201927f8b73c3c69bb8fe3d512ecc4cf759cc79239f7b179b0ffacaa9a75d522b39400f8452604083015260608201524660808201523060a082015260a081526101e460c0826103c8565b5190206080523060c052600160ff19600080516020613854833981519152541617600080516020613854833981519152557f6985a02210a168e66602d3235cb6db0e70f92b3ba4d376a33c0f3d9434bff625600080a1610160526004549061024f8282808210610401565b80600354816003557f6abf7e21d0157ac565825936f3d73ff3c4939140c08cdc99d445e4fa204007f0600080a382610315575b6040516130d29081610782823960805181612b03015260a05181612bc0015260c05181612ad4015260e05181612b5201526101005181612b78015261012051816107d5015261014051816107fe015261016051818181610bda015281816111e6015281816112c1015281816116000152818161184901528181611d7701528181611fd00152818161202301526122600152f35b8281610322928210610401565b816004557fd347e206f25a89b917fc9482f1a2d294d749baa4dc9bde7fb495ee11fe491643600080a3388080610282565b6340b539cf60e01b60005260046000fd5b7fc9ed16f33ab3a66c84bfd83099ccb2a8845871e2e1c1928f63797152f0fd54cc80546001600160a01b0319163390811790915560007f8be0079c531659141344cd1fd0a4f28419497f9722a3daafe3b4186f6b6457e08180a36100a7565b600080fd5b601f909101601f19168101906001600160401b038211908210176103eb57604052565b634e487b7160e01b600052604160045260246000fd5b1561040a575050565b633f49e97960e21b60005260045260245260446000fd5b908151602081106000146104b9575090601f81511161045d57602081519101516020821061044d571790565b6000198260200360031b1b161790565b6040519063305a27a960e01b8252602060048301528181519182602483015260005b8381106104a15750508160006044809484010152601f80199101168101030190fd5b6020828201810151604487840101528593500161047f565b6001600160401b0381116103eb57600054600181811c911680156105d9575b60208210146105c357601f811161058e575b50602092601f821160011461052a579281929360009261051f575b50508160011b916000199060031b1c19161760005560ff90565b015190503880610505565b601f1982169360008052806000209160005b868110610576575083600195961061055d575b505050811b0160005560ff90565b015160001960f88460031b161c1916905538808061054f565b9192602060018192868501518155019401920161053c565b60008052601f6020600020910160051c810190601f830160051c015b8181106105b757506104ea565b600081556001016105aa565b634e487b7160e01b600052602260045260246000fd5b90607f16906104d8565b9081516020811060001461066b575090601f81511161060f57602081519101516020821061044d571790565b6040519063305a27a960e01b8252602060048301528181519182602483015260005b8381106106535750508160006044809484010152601f80199101168101030190fd5b60208282018101516044878401015285935001610631565b6001600160401b0381116103eb57600154600181811c91168015610777575b60208210146105c357601f8111610741575b50602092601f82116001146106dc57928192936000926106d1575b50508160011b916000199060031b1c19161760015560ff90565b0151905038806106b7565b601f198216936001600052806000209160005b8681106107295750836001959610610710575b505050811b0160015560ff90565b015160001960f88460031b161c19169055388080610702565b919260206001819286850151815501940192016106ef565b6001600052601f6020600020910160051c810190601f830160051c015b81811061076b575061069c565b6000815560010161075e565b90607f169061068a56fe6080604052600436101561001257600080fd5b60003560e01c806301ffc9a7146123e2578063086116d1146120b05780630a1a2a7914612057578063105c4c4914611ec957806312e8e2c314611e3057806319b9413f14611dd757806326232a2e14611d9b5780632852150214611d2c57806329ed45db14611c9a5780632f2ff15d14611b1457806335b8ce9314611ac25780633b25637f14611a295780633f4ba83a146119195780633f8c49d3146114cd5780634768d4ef146113ea57806353aab434146113ae578063578b7d9914610faa5780635c975abb14610f4a5780635d913d2014610e3d5780636b8f9c4314610d0557806375b238fc14610cac57806380f752ad14610a595780638456cb59146109465780638488bb4e146108d557806384b0196e1461079e5780638bb9c5bf146106665780638da5cb5b146105f557806391d148541461055d578063a51f054e14610504578063af74bc14146104ab578063bd9eb3b514610452578063d547741f146102a25763f2fde38b1461018757600080fd5b3461029d5760207ffffffffffffffffffffffffffffffffffffffffffffffffffffffffffffffffc36011261029d576101be61246b565b7fc9ed16f33ab3a66c84bfd83099ccb2a8845871e2e1c1928f63797152f0fd54cc9073ffffffffffffffffffffffffffffffffffffffff8254169081330361026f5773ffffffffffffffffffffffffffffffffffffffff169182820361022057005b827fffffffffffffffffffffffff00000000000000000000000000000000000000008254161790557f8be0079c531659141344cd1fd0a4f28419497f9722a3daafe3b4186f6b6457e0600080a3005b7f2ef4875e000000000000000000000000000000000000000000000000000000006000523360045260246000fd5b600080fd5b3461029d5760407ffffffffffffffffffffffffffffffffffffffffffffffffffffffffffffffffc36011261029d576004356102dc612448565b9073ffffffffffffffffffffffffffffffffffffffff7fc9ed16f33ab3a66c84bfd83099ccb2a8845871e2e1c1928f63797152f0fd54cc541673ffffffffffffffffffffffffffffffffffffffff331690810361042557507fc8827d3282af6f37b64c3e9e6f3ac9df286ab0bb0fccd6f8661bf19adb368b22918160005282602052604060002073ffffffffffffffffffffffffffffffffffffffff821660005260205260ff6040600020541661038f57005b60008281526020938452604080822073ffffffffffffffffffffffffffffffffffffffff939093168083529285529081902080547fffffffffffffffffffffffffffffffffffffffffffffffffffffffffffffff0016905580519283529282015233918101919091527ff6391f5c32d9c69d2a47ea670b442974b53935d1edc7fd64eb21e047a839171b9080606081015b0390a1005b7f2ef4875e0000000000000000000000000000000000000000000000000000000060005260045260246000fd5b3461029d5760007ffffffffffffffffffffffffffffffffffffffffffffffffffffffffffffffffc36011261029d5760206040517f8ee1d14670be47589129ea1abfa7b982cd34487687f4f1305145d6be32d430a28152f35b3461029d5760007ffffffffffffffffffffffffffffffffffffffffffffffffffffffffffffffffc36011261029d5760206040517faef88082b8671e875d97d0d6c81d06fb9e76f97b3ad7523a55a378e5298aeeee8152f35b3461029d5760007ffffffffffffffffffffffffffffffffffffffffffffffffffffffffffffffffc36011261029d5760206040517f0385a2f357affe267c4ac0decbf9206d8604b02181a2dd8f81b5dcba0d74951a8152f35b3461029d5760407ffffffffffffffffffffffffffffffffffffffffffffffffffffffffffffffffc36011261029d57610594612448565b7fc8827d3282af6f37b64c3e9e6f3ac9df286ab0bb0fccd6f8661bf19adb368b2260043560005260205273ffffffffffffffffffffffffffffffffffffffff60406000209116600052602052602060ff604060002054166040519015158152f35b3461029d5760007ffffffffffffffffffffffffffffffffffffffffffffffffffffffffffffffffc36011261029d57602073ffffffffffffffffffffffffffffffffffffffff7fc9ed16f33ab3a66c84bfd83099ccb2a8845871e2e1c1928f63797152f0fd54cc5416604051908152f35b3461029d5760207ffffffffffffffffffffffffffffffffffffffffffffffffffffffffffffffffc36011261029d576004357fc8827d3282af6f37b64c3e9e6f3ac9df286ab0bb0fccd6f8661bf19adb368b228160005280602052604060002073ffffffffffffffffffffffffffffffffffffffff331660005260205260ff604060002054161561076c57600082815260209182526040808220338084529084529181902080547fffffffffffffffffffffffffffffffffffffffffffffffffffffffffffffff001690558051938452918301819052908201527ff6391f5c32d9c69d2a47ea670b442974b53935d1edc7fd64eb21e047a839171b908060608101610420565b507f7aa72882000000000000000000000000000000000000000000000000000000006000526004523360245260446000fd5b3461029d5760007ffffffffffffffffffffffffffffffffffffffffffffffffffffffffffffffffc36011261029d576108776107f97f0000000000000000000000000000000000000000000000000000000000000000612d99565b6108227f0000000000000000000000000000000000000000000000000000000000000000612f34565b602061088560405192610835838561258d565b6000845260003681376040519586957f0f00000000000000000000000000000000000000000000000000000000000000875260e08588015260e087019061252e565b90858203604087015261252e565b466060850152306080850152600060a085015283810360c085015281808451928381520193019160005b8281106108be57505050500390f35b8351855286955093810193928101926001016108af565b3461029d5760007ffffffffffffffffffffffffffffffffffffffffffffffffffffffffffffffffc36011261029d57602073ffffffffffffffffffffffffffffffffffffffff7f4fb5f8cdfbce77f22b0931a39e9f476a60a0f66524b2f379e96485471eb700ad5416604051908152f35b3461029d5760007ffffffffffffffffffffffffffffffffffffffffffffffffffffffffffffffffc36011261029d577fc9ed16f33ab3a66c84bfd83099ccb2a8845871e2e1c1928f63797152f0fd54cc54339073ffffffffffffffffffffffffffffffffffffffff168103610425577f0186a05f63b1553398ad5ea3233c0ce68b8c9eecc47717f123c5c2b42fbd6d9e60ff815416610a2f5760017fffffffffffffffffffffffffffffffffffffffffffffffffffffffffffffff008254161790557f6985a02210a168e66602d3235cb6db0e70f92b3ba4d376a33c0f3d9434bff625600080a1005b7f9e87fac80000000000000000000000000000000000000000000000000000000060005260046000fd5b3461029d5773ffffffffffffffffffffffffffffffffffffffff610a7c366124bc565b93909116928315610c8257610af4610afd91610aee610b2394610ae660405160208101907f8ee1d14670be47589129ea1abfa7b982cd34487687f4f1305145d6be32d430a282528960408201528a606082015260608152610ade60808261258d565b5190206127a4565b9236916125fd565b90612be6565b90929192612c22565b7fc8827d3282af6f37b64c3e9e6f3ac9df286ab0bb0fccd6f8661bf19adb368b226127e5565b80600052600560205260406000209173ffffffffffffffffffffffffffffffffffffffff8354169273ffffffffffffffffffffffffffffffffffffffff6001820154166004820190808254946005850190610b8d88610b878b8a8654978892612969565b15612662565b808903610c0757505050509160006006602093827f7e8d9d00c67d0eca419da2afaeb9897f1995ce74ca7e6e5dab3f4c85c40721b196610bd08a8a881515612697565b550155610bfe81867f00000000000000000000000000000000000000000000000000000000000000006129b9565b604051908152a3005b92975092509350858114600014610c5157509160006006602093827f7e8d9d00c67d0eca419da2afaeb9897f1995ce74ca7e6e5dab3f4c85c40721b196610bd08a8a881515612697565b847ff99ca0120000000000000000000000000000000000000000000000000000000060005260045260245260446000fd5b7f0e8a471c0000000000000000000000000000000000000000000000000000000060005260046000fd5b3461029d5760007ffffffffffffffffffffffffffffffffffffffffffffffffffffffffffffffffc36011261029d5760206040517fa49807205ce4d355092ef5a8a18f56e8913cf4a201fbe287825b095693c217758152f35b3461029d5760207ffffffffffffffffffffffffffffffffffffffffffffffffffffffffffffffffc36011261029d5760043573ffffffffffffffffffffffffffffffffffffffff811680910361029d577fc9ed16f33ab3a66c84bfd83099ccb2a8845871e2e1c1928f63797152f0fd54cc54339073ffffffffffffffffffffffffffffffffffffffff16810361042557507f4fb5f8cdfbce77f22b0931a39e9f476a60a0f66524b2f379e96485471eb700ad8115610e135781817fdd880d24a789958a6398c99c2e54ce31bc10a638cbc42f7dd34285479ae0f855937fffffffffffffffffffffffff00000000000000000000000000000000000000006020945416179055604051908152a1005b7f40b539cf0000000000000000000000000000000000000000000000000000000060005260046000fd5b3461029d5760207ffffffffffffffffffffffffffffffffffffffffffffffffffffffffffffffffc36011261029d57610e7461246b565b7fc9ed16f33ab3a66c84bfd83099ccb2a8845871e2e1c1928f63797152f0fd54cc5433919073ffffffffffffffffffffffffffffffffffffffff168203610f1c5773ffffffffffffffffffffffffffffffffffffffff16807fffffffffffffffffffffffff000000000000000000000000000000000000000060025416176002557f7b6e63ae66af5c70fbff811fa431e7646d4ec64cf86de8b3721ee49b6c8b5ad3600080a2005b507f2ef4875e0000000000000000000000000000000000000000000000000000000060005260045260246000fd5b3461029d5760007ffffffffffffffffffffffffffffffffffffffffffffffffffffffffffffffffc36011261029d57602060ff7f0186a05f63b1553398ad5ea3233c0ce68b8c9eecc47717f123c5c2b42fbd6d9e54166040519015158152f35b3461029d5760a07ffffffffffffffffffffffffffffffffffffffffffffffffffffffffffffffffc36011261029d57600435610fe4612448565b6044359173ffffffffffffffffffffffffffffffffffffffff831680930361029d576064359160843567ffffffffffffffff811161029d5761102a90369060040161248e565b9093804210156113845773ffffffffffffffffffffffffffffffffffffffff8316948515610c8257861561135a5760ff7f0186a05f63b1553398ad5ea3233c0ce68b8c9eecc47717f123c5c2b42fbd6d9e5416610a2f576110e492610aee610af492610ae6610afd9560405160208101917f453375e4f44bb00983db3dde1abb6154e31c5aab8fe14c7a4a55bb04fe1c3eb883528b60408301528c60608301528d608083015260a082015260a08152610ade60c08261258d565b81600052600560205260406000208473ffffffffffffffffffffffffffffffffffffffff82541692600183019373ffffffffffffffffffffffffffffffffffffffff85541694600485019586549260058701916111488a610b878554888587612969565b8161121f5750505050509261120a606093927f4b149d673b8317f48d55e0c9e8ee7c19e9fd8c290b6fd36ee506f77a24cee94195886004549485600660035498899687957fffffffffffffffffffffffff000000000000000000000000000000000000000083541617825560028201907fffffffffffffffffffffffff000000000000000000000000000000000000000082541617905501555530907f0000000000000000000000000000000000000000000000000000000000000000612a56565b604051916001835260208301526040820152a4005b9194955091959296501560001461132c5787146112fa578480937f4b149d673b8317f48d55e0c9e8ee7c19e9fd8c290b6fd36ee506f77a24cee941966060969460038560066112e5970154978d7fffffffffffffffffffffffff0000000000000000000000000000000000000000825416179055018c7fffffffffffffffffffffffff00000000000000000000000000000000000000008254161790555530907f0000000000000000000000000000000000000000000000000000000000000000612a56565b604051916000835260208301526040820152a4005b86867f474dee440000000000000000000000000000000000000000000000000000000060005260045260245260446000fd5b867fdc2995c40000000000000000000000000000000000000000000000000000000060005260045260246000fd5b7f7cfdd3730000000000000000000000000000000000000000000000000000000060005260046000fd5b7fdf4cc36d0000000000000000000000000000000000000000000000000000000060005260046000fd5b3461029d5760007ffffffffffffffffffffffffffffffffffffffffffffffffffffffffffffffffc36011261029d576020600354604051908152f35b3461029d5760207ffffffffffffffffffffffffffffffffffffffffffffffffffffffffffffffffc36011261029d57600435600052600560205260e0604060002073ffffffffffffffffffffffffffffffffffffffff8154169073ffffffffffffffffffffffffffffffffffffffff6001820154169073ffffffffffffffffffffffffffffffffffffffff60028201541673ffffffffffffffffffffffffffffffffffffffff6003830154166004830154916006600585015494015494604051968752602087015260408601526060850152608084015260a083015260c0820152f35b3461029d57611550610afd610af46114e4366124bc565b610aee604097949796939592965196610ae6602089017f0385a2f357affe267c4ac0decbf9206d8604b02181a2dd8f81b5dcba0d74951a81528a60408b015273ffffffffffffffffffffffffffffffffffffffff8916998a606082015260608152610ade60808261258d565b826000526005602052604060002060048101908154600582019283549482151580611910575b156118e25773ffffffffffffffffffffffffffffffffffffffff84541673ffffffffffffffffffffffffffffffffffffffff6001860154168189146000146118a15760069150945b01948554968760011b9780890460021490151715611872578401809411611872576000958680926115f28a611624986126e8565b9889965555558561180b575b7f00000000000000000000000000000000000000000000000000000000000000006129b9565b83857f0a2413835f07421c275d3e2feac4328391c22c9ed3db28c40b45b55a0c3a2ba66020604051868152a373ffffffffffffffffffffffffffffffffffffffff60025416938461167157005b73ffffffffffffffffffffffffffffffffffffffff604051927f1aef01e1000000000000000000000000000000000000000000000000000000008452876004850152826024850152169182604482015283606482015284608482015260208160a48160008a5af19081156117ff5760009161177d575b507fffffffff000000000000000000000000000000000000000000000000000000007f1aef01e10000000000000000000000000000000000000000000000000000000091160361173357005b60c495604051957fe9db41ca0000000000000000000000000000000000000000000000000000000087526004870152602486015260448501526064840152608483015260a4820152fd5b6020813d6020116117f7575b816117966020938361258d565b810103126117f35751907fffffffff00000000000000000000000000000000000000000000000000000000821682036117f057507fffffffff000000000000000000000000000000000000000000000000000000006116e7565b80fd5b5080fd5b3d9150611789565b6040513d6000823e3d90fd5b61186d8673ffffffffffffffffffffffffffffffffffffffff7f4fb5f8cdfbce77f22b0931a39e9f476a60a0f66524b2f379e96485471eb700ad54167f00000000000000000000000000000000000000000000000000000000000000006129b9565b6115fe565b7f4e487b7100000000000000000000000000000000000000000000000000000000600052601160045260246000fd5b88036118b057600690946115be565b87897ff99ca0120000000000000000000000000000000000000000000000000000000060005260045260245260446000fd5b877fcd7235820000000000000000000000000000000000000000000000000000000060005260045260246000fd5b50851515611576565b3461029d5760007ffffffffffffffffffffffffffffffffffffffffffffffffffffffffffffffffc36011261029d577fc9ed16f33ab3a66c84bfd83099ccb2a8845871e2e1c1928f63797152f0fd54cc54339073ffffffffffffffffffffffffffffffffffffffff168103610425577f0186a05f63b1553398ad5ea3233c0ce68b8c9eecc47717f123c5c2b42fbd6d9e805460ff8116156119ff577fffffffffffffffffffffffffffffffffffffffffffffffffffffffffffffff001690557f7805862f689e2f13df9f062ff482ad3ad112aca9e0847911ed832e158c525b33600080a1005b7f6cd602010000000000000000000000000000000000000000000000000000000060005260046000fd5b3461029d5760207ffffffffffffffffffffffffffffffffffffffffffffffffffffffffffffffffc36011261029d57600435611a85337fc8827d3282af6f37b64c3e9e6f3ac9df286ab0bb0fccd6f8661bf19adb368b226128a7565b611a9460045482808210612a1d565b600354816003557f6abf7e21d0157ac565825936f3d73ff3c4939140c08cdc99d445e4fa204007f0600080a3005b3461029d5760007ffffffffffffffffffffffffffffffffffffffffffffffffffffffffffffffffc36011261029d57602073ffffffffffffffffffffffffffffffffffffffff60025416604051908152f35b3461029d5760407ffffffffffffffffffffffffffffffffffffffffffffffffffffffffffffffffc36011261029d57600435611b4e612448565b9073ffffffffffffffffffffffffffffffffffffffff7fc9ed16f33ab3a66c84bfd83099ccb2a8845871e2e1c1928f63797152f0fd54cc541673ffffffffffffffffffffffffffffffffffffffff331690810361042557507fc8827d3282af6f37b64c3e9e6f3ac9df286ab0bb0fccd6f8661bf19adb368b22918160005282602052604060002073ffffffffffffffffffffffffffffffffffffffff821660005260205260ff6040600020541615611c0257005b60008281526020938452604080822073ffffffffffffffffffffffffffffffffffffffff939093168083529285529081902080547fffffffffffffffffffffffffffffffffffffffffffffffffffffffffffffff0016600117905580519283529282015233918101919091527f2f8788117e7eff1d82e926ec794901d17c78024a50270940304540a733656f0d908060608101610420565b3461029d5760207ffffffffffffffffffffffffffffffffffffffffffffffffffffffffffffffffc36011261029d5760043560005260056020526020611d22604060002073ffffffffffffffffffffffffffffffffffffffff8154169073ffffffffffffffffffffffffffffffffffffffff6001820154166005600483015492015492612969565b6040519015158152f35b3461029d5760007ffffffffffffffffffffffffffffffffffffffffffffffffffffffffffffffffc36011261029d57602060405173ffffffffffffffffffffffffffffffffffffffff7f0000000000000000000000000000000000000000000000000000000000000000168152f35b3461029d5760007ffffffffffffffffffffffffffffffffffffffffffffffffffffffffffffffffc36011261029d576020600454604051908152f35b3461029d5760007ffffffffffffffffffffffffffffffffffffffffffffffffffffffffffffffffc36011261029d5760206040517f7e056079185997e63584b574e7ede2bc1c951a9914820d9497bb54f8c133fa478152f35b3461029d5760207ffffffffffffffffffffffffffffffffffffffffffffffffffffffffffffffffc36011261029d57600435611e8c337fc8827d3282af6f37b64c3e9e6f3ac9df286ab0bb0fccd6f8661bf19adb368b226128a7565b611e9b81600354808210612a1d565b600454816004557fd347e206f25a89b917fc9482f1a2d294d749baa4dc9bde7fb495ee11fe491643600080a3005b3461029d5760207ffffffffffffffffffffffffffffffffffffffffffffffffffffffffffffffffc36011261029d57600435611f25337fc8827d3282af6f37b64c3e9e6f3ac9df286ab0bb0fccd6f8661bf19adb368b226128a7565b80600052600560205260406000209073ffffffffffffffffffffffffffffffffffffffff82541673ffffffffffffffffffffffffffffffffffffffff6001840154169260048101918383548094600060066005870196611f8e86610b878d8b549c8d918c612969565b015581611ff4575b5050505081611fa157005b7f7e8d9d00c67d0eca419da2afaeb9897f1995ce74ca7e6e5dab3f4c85c40721b191600060209255610bfe81867f00000000000000000000000000000000000000000000000000000000000000006129b9565b7f7e8d9d00c67d0eca419da2afaeb9897f1995ce74ca7e6e5dab3f4c85c40721b19160006020925561204781867f00000000000000000000000000000000000000000000000000000000000000006129b9565b604051908152a384838180611f96565b3461029d5760007ffffffffffffffffffffffffffffffffffffffffffffffffffffffffffffffffc36011261029d5760206040517f453375e4f44bb00983db3dde1abb6154e31c5aab8fe14c7a4a55bb04fe1c3eb88152f35b3461029d57612133610af4610afd6120c7366124bc565b610aee604097949593979692965196610ae6602089017f7e056079185997e63584b574e7ede2bc1c951a9914820d9497bb54f8c133fa4781528860408b015273ffffffffffffffffffffffffffffffffffffffff8b16998a606082015260608152610ade60808261258d565b80600052600560205260406000209273ffffffffffffffffffffffffffffffffffffffff8454169373ffffffffffffffffffffffffffffffffffffffff60018201541690851515806123d9575b156123ab578394956004820191825490600581019160068354926121aa8a610b8786868c8b612969565b01805496871595919291866122dd5788999a508c989596979814600014612284575083929160006121df6121e79682946126e8565b9855556126e8565b90555b8260011b928304600214171561187257610bfe817f7e8d9d00c67d0eca419da2afaeb9897f1995ce74ca7e6e5dab3f4c85c40721b1946115fe60209573ffffffffffffffffffffffffffffffffffffffff7f4fb5f8cdfbce77f22b0931a39e9f476a60a0f66524b2f379e96485471eb700ad54167f00000000000000000000000000000000000000000000000000000000000000006129b9565b94969492935090918a036122ab5760008792816121df856122a4976126e8565b90556121ea565b89897ff99ca0120000000000000000000000000000000000000000000000000000000060005260045260245260446000fd5b925092945096955089146000146123325750505082826000610bfe9361232c7f7e8d9d00c67d0eca419da2afaeb9897f1995ce74ca7e6e5dab3f4c85c40721b198966020989788961515612697565b556115fe565b9195939450915086036123795783836000610bfe9361232c6020977f7e8d9d00c67d0eca419da2afaeb9897f1995ce74ca7e6e5dab3f4c85c40721b1999788961515612697565b85827ff99ca0120000000000000000000000000000000000000000000000000000000060005260045260245260446000fd5b837fe4b1c23d0000000000000000000000000000000000000000000000000000000060005260045260246000fd5b50811515612180565b3461029d5760207ffffffffffffffffffffffffffffffffffffffffffffffffffffffffffffffffc36011261029d576004357fffffffff000000000000000000000000000000000000000000000000000000008116810361029d57611d226020916126f5565b6024359073ffffffffffffffffffffffffffffffffffffffff8216820361029d57565b6004359073ffffffffffffffffffffffffffffffffffffffff8216820361029d57565b9181601f8401121561029d5782359167ffffffffffffffff831161029d576020838186019501011161029d57565b60607ffffffffffffffffffffffffffffffffffffffffffffffffffffffffffffffffc82011261029d576004359160243573ffffffffffffffffffffffffffffffffffffffff8116810361029d57916044359067ffffffffffffffff821161029d5761252a9160040161248e565b9091565b919082519283825260005b8481106125785750507fffffffffffffffffffffffffffffffffffffffffffffffffffffffffffffffe0601f8460006020809697860101520116010190565b80602080928401015182828601015201612539565b90601f7fffffffffffffffffffffffffffffffffffffffffffffffffffffffffffffffe0910116810190811067ffffffffffffffff8211176125ce57604052565b7f4e487b7100000000000000000000000000000000000000000000000000000000600052604160045260246000fd5b92919267ffffffffffffffff82116125ce5760405191612645601f82017fffffffffffffffffffffffffffffffffffffffffffffffffffffffffffffffe0166020018461258d565b82948184528183011161029d578281602093846000960137010152565b1561266a5750565b7f60a3df590000000000000000000000000000000000000000000000000000000060005260045260246000fd5b156126a0575050565b73ffffffffffffffffffffffffffffffffffffffff92507f49568550000000000000000000000000000000000000000000000000000000006000526004521660245260446000fd5b9190820391821161187257565b7fffffffff00000000000000000000000000000000000000000000000000000000167fffffffff00000000000000000000000000000000000000000000000000000000811461279e577f01ffc9a7000000000000000000000000000000000000000000000000000000008114612798576000527fca9d3e17f264b0f3984e2634e94adb37fa3e6a8103f06aeae6fa59e21c769f5d60205260ff6040600020541690565b50600190565b50600090565b6042906127af612abd565b90604051917f19010000000000000000000000000000000000000000000000000000000000008352600283015260228201522090565b7faef88082b8671e875d97d0d6c81d06fb9e76f97b3ad7523a55a378e5298aeeee600052602052604060002073ffffffffffffffffffffffffffffffffffffffff821660005260205260ff604060002054161561283f5750565b73ffffffffffffffffffffffffffffffffffffffff907f7aa72882000000000000000000000000000000000000000000000000000000006000527faef88082b8671e875d97d0d6c81d06fb9e76f97b3ad7523a55a378e5298aeeee6004521660245260446000fd5b7fa49807205ce4d355092ef5a8a18f56e8913cf4a201fbe287825b095693c21775600052602052604060002073ffffffffffffffffffffffffffffffffffffffff821660005260205260ff60406000205416156129015750565b73ffffffffffffffffffffffffffffffffffffffff907f7aa72882000000000000000000000000000000000000000000000000000000006000527fa49807205ce4d355092ef5a8a18f56e8913cf4a201fbe287825b095693c217756004521660245260446000fd5b9073ffffffffffffffffffffffffffffffffffffffff16156129975750159081612991575090565b90501590565b90915073ffffffffffffffffffffffffffffffffffffffff161561279e571590565b612a1b9273ffffffffffffffffffffffffffffffffffffffff604051937fa9059cbb000000000000000000000000000000000000000000000000000000006020860152166024840152604483015260448252612a1660648361258d565b612d0e565b565b15612a26575050565b7ffd27a5e40000000000000000000000000000000000000000000000000000000060005260045260245260446000fd5b90919273ffffffffffffffffffffffffffffffffffffffff612a1b9481604051957f23b872dd000000000000000000000000000000000000000000000000000000006020880152166024860152166044840152606483015260648252612a1660848361258d565b73ffffffffffffffffffffffffffffffffffffffff7f000000000000000000000000000000000000000000000000000000000000000016301480612bbd575b15612b25577f000000000000000000000000000000000000000000000000000000000000000090565b60405160208101907f8b73c3c69bb8fe3d512ecc4cf759cc79239f7b179b0ffacaa9a75d522b39400f82527f000000000000000000000000000000000000000000000000000000000000000060408201527f000000000000000000000000000000000000000000000000000000000000000060608201524660808201523060a082015260a08152612bb760c08261258d565b51902090565b507f00000000000000000000000000000000000000000000000000000000000000004614612afc565b8151919060418303612c1757612c1092506020820151906060604084015193015160001a90613006565b9192909190565b505060009160029190565b9190916004811015612cdf5780612c3857509050565b600060018203612c6c577ff645eedf0000000000000000000000000000000000000000000000000000000060005260046000fd5b5060028103612ca357827ffce698f70000000000000000000000000000000000000000000000000000000060005260045260246000fd5b9091600360009214612cb3575050565b602492507fd78bce0c000000000000000000000000000000000000000000000000000000008252600452fd5b7f4e487b7100000000000000000000000000000000000000000000000000000000600052602160045260246000fd5b906000602091828151910182855af1156117ff576000513d612d90575073ffffffffffffffffffffffffffffffffffffffff81163b155b612d4c5750565b73ffffffffffffffffffffffffffffffffffffffff907f5274afe7000000000000000000000000000000000000000000000000000000006000521660045260246000fd5b60011415612d45565b60ff8114612e1b5760ff811690601f8211612df1576040805192612dbd828561258d565b602084527fffffffffffffffffffffffffffffffffffffffffffffffffffffffffffffffe060208501920136833783525290565b7fb3512b0c0000000000000000000000000000000000000000000000000000000060005260046000fd5b5060405160008054908160011c91600181168015612f2a575b602084108114612efd578385528492918115612ec05750600114612e62575b612e5f9250038261258d565b90565b50600080805290917f290decd9548b62a8d60345a988386fc84ba6bc95484008f6362f93160ef3e5635b818310612ea4575050906020612e5f92820101612e53565b6020919350806001915483858801015201910190918392612e8c565b60209250612e5f9491507fffffffffffffffffffffffffffffffffffffffffffffffffffffffffffffff001682840152151560051b820101612e53565b6024837f4e487b710000000000000000000000000000000000000000000000000000000081526022600452fd5b92607f1692612e34565b60ff8114612f585760ff811690601f8211612df1576040805192612dbd828561258d565b506040516000600154908160011c91600181168015612ffc575b602084108114612efd578385528492918115612ec05750600114612f9c57612e5f9250038261258d565b506001600090815290917fb10e2d527612073b26eecdfd717e6a320cf44b4afac2b0732d9fcbe2b7fa0cf65b818310612fe0575050906020612e5f92820101612e53565b6020919350806001915483858801015201910190918392612fc8565b92607f1692612f72565b91907f7fffffffffffffffffffffffffffffff5d576e7357a4501ddfe92f46681b20a08411613090579160209360809260ff60009560405194855216868401526040830152606082015282805260015afa156117ff5760005173ffffffffffffffffffffffffffffffffffffffff8116156130845790600090600090565b50600090600190600090565b5050506000916003919056fea2646970667358221220769fe29967e8a954fb2cd00014bdbd6d675545a7137a3531eec341306bda72a164736f6c634300081e00330186a05f63b1553398ad5ea3233c0ce68b8c9eecc47717f123c5c2b42fbd6d9e","opcodes":"PUSH2 0x180 DUP1 PUSH1 0x40 MSTORE CALLVALUE PUSH2 0x3C3 JUMPI PUSH1 0x80 DUP2 PUSH2 0x3874 DUP1 CODESIZE SUB DUP1 SWAP2 PUSH2 0x20 DUP3 DUP6 PUSH2 0x3C8 JUMP JUMPDEST DUP4 CODECOPY DUP2 ADD SUB SLT PUSH2 0x3C3 JUMPI DUP1 MLOAD PUSH1 0x1 PUSH1 0x1 PUSH1 0xA0 SHL SUB DUP2 AND SWAP2 SWAP1 DUP3 SWAP1 SUB PUSH2 0x3C3 JUMPI PUSH1 0x20 DUP2 ADD MLOAD PUSH1 0x1 PUSH1 0x1 PUSH1 0xA0 SHL SUB DUP2 AND DUP2 SUB PUSH2 0x3C3 JUMPI PUSH1 0x60 PUSH1 0x40 DUP4 ADD MLOAD SWAP3 ADD MLOAD SWAP3 PUSH1 0x40 MLOAD SWAP1 PUSH2 0x6E PUSH1 0x40 DUP4 PUSH2 0x3C8 JUMP JUMPDEST PUSH1 0x6 DUP3 MSTORE PUSH1 0x20 DUP3 ADD PUSH6 0x11D85B589A5D PUSH1 0xD2 SHL DUP2 MSTORE PUSH1 0x40 MLOAD SWAP3 PUSH2 0x91 PUSH1 0x40 DUP6 PUSH2 0x3C8 JUMP JUMPDEST PUSH1 0x1 DUP5 MSTORE PUSH1 0x20 DUP5 ADD SWAP3 PUSH1 0x31 PUSH1 0xF8 SHL DUP5 MSTORE CALLER PUSH2 0x364 JUMPI JUMPDEST PUSH4 0x7F5828D PUSH1 0xE4 SHL PUSH1 0x0 MSTORE PUSH32 0xCA9D3E17F264B0F3984E2634E94ADB37FA3E6A8103F06AEAE6FA59E21C769F5D PUSH1 0x20 MSTORE PUSH32 0xA53D5A615B1D5279F1A6647C5C0F31BF064B1E70AF135676A4A96AEAEB691A2F DUP1 SLOAD PUSH1 0xFF NOT AND PUSH1 0x1 OR SWAP1 SSTORE DUP1 ISZERO PUSH2 0x353 JUMPI PUSH32 0x4FB5F8CDFBCE77F22B0931A39E9F476A60A0F66524B2F379E96485471EB700AD DUP1 SLOAD PUSH1 0x1 PUSH1 0x1 PUSH1 0xA0 SHL SUB NOT AND DUP3 OR SWAP1 SSTORE PUSH1 0x40 MLOAD SWAP1 DUP2 MSTORE PUSH32 0xDD880D24A789958A6398C99C2E54CE31BC10A638CBC42F7DD34285479AE0F855 SWAP1 PUSH1 0x20 SWAP1 LOG1 PUSH2 0x16E DUP2 PUSH2 0x421 JUMP JUMPDEST PUSH2 0x120 MSTORE PUSH2 0x17B DUP5 PUSH2 0x5E3 JUMP JUMPDEST PUSH2 0x140 MSTORE MLOAD SWAP1 KECCAK256 SWAP2 DUP3 PUSH1 0xE0 MSTORE MLOAD SWAP1 KECCAK256 DUP1 PUSH2 0x100 MSTORE CHAINID PUSH1 0xA0 MSTORE PUSH1 0x40 MLOAD SWAP1 PUSH1 0x20 DUP3 ADD SWAP3 PUSH32 0x8B73C3C69BB8FE3D512ECC4CF759CC79239F7B179B0FFACAA9A75D522B39400F DUP5 MSTORE PUSH1 0x40 DUP4 ADD MSTORE PUSH1 0x60 DUP3 ADD MSTORE CHAINID PUSH1 0x80 DUP3 ADD MSTORE ADDRESS PUSH1 0xA0 DUP3 ADD MSTORE PUSH1 0xA0 DUP2 MSTORE PUSH2 0x1E4 PUSH1 0xC0 DUP3 PUSH2 0x3C8 JUMP JUMPDEST MLOAD SWAP1 KECCAK256 PUSH1 0x80 MSTORE ADDRESS PUSH1 0xC0 MSTORE PUSH1 0x1 PUSH1 0xFF NOT PUSH1 0x0 DUP1 MLOAD PUSH1 0x20 PUSH2 0x3854 DUP4 CODECOPY DUP2 MLOAD SWAP2 MSTORE SLOAD AND OR PUSH1 0x0 DUP1 MLOAD PUSH1 0x20 PUSH2 0x3854 DUP4 CODECOPY DUP2 MLOAD SWAP2 MSTORE SSTORE PUSH32 0x6985A02210A168E66602D3235CB6DB0E70F92B3BA4D376A33C0F3D9434BFF625 PUSH1 0x0 DUP1 LOG1 PUSH2 0x160 MSTORE PUSH1 0x4 SLOAD SWAP1 PUSH2 0x24F DUP3 DUP3 DUP1 DUP3 LT PUSH2 0x401 JUMP JUMPDEST DUP1 PUSH1 0x3 SLOAD DUP2 PUSH1 0x3 SSTORE PUSH32 0x6ABF7E21D0157AC565825936F3D73FF3C4939140C08CDC99D445E4FA204007F0 PUSH1 0x0 DUP1 LOG3 DUP3 PUSH2 0x315 JUMPI JUMPDEST PUSH1 0x40 MLOAD PUSH2 0x30D2 SWAP1 DUP2 PUSH2 0x782 DUP3 CODECOPY PUSH1 0x80 MLOAD DUP2 PUSH2 0x2B03 ADD MSTORE PUSH1 0xA0 MLOAD DUP2 PUSH2 0x2BC0 ADD MSTORE PUSH1 0xC0 MLOAD DUP2 PUSH2 0x2AD4 ADD MSTORE PUSH1 0xE0 MLOAD DUP2 PUSH2 0x2B52 ADD MSTORE PUSH2 0x100 MLOAD DUP2 PUSH2 0x2B78 ADD MSTORE PUSH2 0x120 MLOAD DUP2 PUSH2 0x7D5 ADD MSTORE PUSH2 0x140 MLOAD DUP2 PUSH2 0x7FE ADD MSTORE PUSH2 0x160 MLOAD DUP2 DUP2 DUP2 PUSH2 0xBDA ADD MSTORE DUP2 DUP2 PUSH2 0x11E6 ADD MSTORE DUP2 DUP2 PUSH2 0x12C1 ADD MSTORE DUP2 DUP2 PUSH2 0x1600 ADD MSTORE DUP2 DUP2 PUSH2 0x1849 ADD MSTORE DUP2 DUP2 PUSH2 0x1D77 ADD MSTORE DUP2 DUP2 PUSH2 0x1FD0 ADD MSTORE DUP2 DUP2 PUSH2 0x2023 ADD MSTORE PUSH2 0x2260 ADD MSTORE RETURN JUMPDEST DUP3 DUP2 PUSH2 0x322 SWAP3 DUP3 LT PUSH2 0x401 JUMP JUMPDEST DUP2 PUSH1 0x4 SSTORE PUSH32 0xD347E206F25A89B917FC9482F1A2D294D749BAA4DC9BDE7FB495EE11FE491643 PUSH1 0x0 DUP1 LOG3 CODESIZE DUP1 DUP1 PUSH2 0x282 JUMP JUMPDEST PUSH4 0x40B539CF PUSH1 0xE0 SHL PUSH1 0x0 MSTORE PUSH1 0x4 PUSH1 0x0 REVERT JUMPDEST PUSH32 0xC9ED16F33AB3A66C84BFD83099CCB2A8845871E2E1C1928F63797152F0FD54CC DUP1 SLOAD PUSH1 0x1 PUSH1 0x1 PUSH1 0xA0 SHL SUB NOT AND CALLER SWAP1 DUP2 OR SWAP1 SWAP2 SSTORE PUSH1 0x0 PUSH32 0x8BE0079C531659141344CD1FD0A4F28419497F9722A3DAAFE3B4186F6B6457E0 DUP2 DUP1 LOG3 PUSH2 0xA7 JUMP JUMPDEST PUSH1 0x0 DUP1 REVERT JUMPDEST PUSH1 0x1F SWAP1 SWAP2 ADD PUSH1 0x1F NOT AND DUP2 ADD SWAP1 PUSH1 0x1 PUSH1 0x1 PUSH1 0x40 SHL SUB DUP3 GT SWAP1 DUP3 LT OR PUSH2 0x3EB JUMPI PUSH1 0x40 MSTORE JUMP JUMPDEST PUSH4 0x4E487B71 PUSH1 0xE0 SHL PUSH1 0x0 MSTORE PUSH1 0x41 PUSH1 0x4 MSTORE PUSH1 0x24 PUSH1 0x0 REVERT JUMPDEST ISZERO PUSH2 0x40A JUMPI POP POP JUMP JUMPDEST PUSH4 0x3F49E979 PUSH1 0xE2 SHL PUSH1 0x0 MSTORE PUSH1 0x4 MSTORE PUSH1 0x24 MSTORE PUSH1 0x44 PUSH1 0x0 REVERT JUMPDEST SWAP1 DUP2 MLOAD PUSH1 0x20 DUP2 LT PUSH1 0x0 EQ PUSH2 0x4B9 JUMPI POP SWAP1 PUSH1 0x1F DUP2 MLOAD GT PUSH2 0x45D JUMPI PUSH1 0x20 DUP2 MLOAD SWAP2 ADD MLOAD PUSH1 0x20 DUP3 LT PUSH2 0x44D JUMPI OR SWAP1 JUMP JUMPDEST PUSH1 0x0 NOT DUP3 PUSH1 0x20 SUB PUSH1 0x3 SHL SHL AND OR SWAP1 JUMP JUMPDEST PUSH1 0x40 MLOAD SWAP1 PUSH4 0x305A27A9 PUSH1 0xE0 SHL DUP3 MSTORE PUSH1 0x20 PUSH1 0x4 DUP4 ADD MSTORE DUP2 DUP2 MLOAD SWAP2 DUP3 PUSH1 0x24 DUP4 ADD MSTORE PUSH1 0x0 JUMPDEST DUP4 DUP2 LT PUSH2 0x4A1 JUMPI POP POP DUP2 PUSH1 0x0 PUSH1 0x44 DUP1 SWAP5 DUP5 ADD ADD MSTORE PUSH1 0x1F DUP1 NOT SWAP2 ADD AND DUP2 ADD SUB ADD SWAP1 REVERT JUMPDEST PUSH1 0x20 DUP3 DUP3 ADD DUP2 ADD MLOAD PUSH1 0x44 DUP8 DUP5 ADD ADD MSTORE DUP6 SWAP4 POP ADD PUSH2 0x47F JUMP JUMPDEST PUSH1 0x1 PUSH1 0x1 PUSH1 0x40 SHL SUB DUP2 GT PUSH2 0x3EB JUMPI PUSH1 0x0 SLOAD PUSH1 0x1 DUP2 DUP2 SHR SWAP2 AND DUP1 ISZERO PUSH2 0x5D9 JUMPI JUMPDEST PUSH1 0x20 DUP3 LT EQ PUSH2 0x5C3 JUMPI PUSH1 0x1F DUP2 GT PUSH2 0x58E JUMPI JUMPDEST POP PUSH1 0x20 SWAP3 PUSH1 0x1F DUP3 GT PUSH1 0x1 EQ PUSH2 0x52A JUMPI SWAP3 DUP2 SWAP3 SWAP4 PUSH1 0x0 SWAP3 PUSH2 0x51F JUMPI JUMPDEST POP POP DUP2 PUSH1 0x1 SHL SWAP2 PUSH1 0x0 NOT SWAP1 PUSH1 0x3 SHL SHR NOT AND OR PUSH1 0x0 SSTORE PUSH1 0xFF SWAP1 JUMP JUMPDEST ADD MLOAD SWAP1 POP CODESIZE DUP1 PUSH2 0x505 JUMP JUMPDEST PUSH1 0x1F NOT DUP3 AND SWAP4 PUSH1 0x0 DUP1 MSTORE DUP1 PUSH1 0x0 KECCAK256 SWAP2 PUSH1 0x0 JUMPDEST DUP7 DUP2 LT PUSH2 0x576 JUMPI POP DUP4 PUSH1 0x1 SWAP6 SWAP7 LT PUSH2 0x55D JUMPI JUMPDEST POP POP POP DUP2 SHL ADD PUSH1 0x0 SSTORE PUSH1 0xFF SWAP1 JUMP JUMPDEST ADD MLOAD PUSH1 0x0 NOT PUSH1 0xF8 DUP5 PUSH1 0x3 SHL AND SHR NOT AND SWAP1 SSTORE CODESIZE DUP1 DUP1 PUSH2 0x54F JUMP JUMPDEST SWAP2 SWAP3 PUSH1 0x20 PUSH1 0x1 DUP2 SWAP3 DUP7 DUP6 ADD MLOAD DUP2 SSTORE ADD SWAP5 ADD SWAP3 ADD PUSH2 0x53C JUMP JUMPDEST PUSH1 0x0 DUP1 MSTORE PUSH1 0x1F PUSH1 0x20 PUSH1 0x0 KECCAK256 SWAP2 ADD PUSH1 0x5 SHR DUP2 ADD SWAP1 PUSH1 0x1F DUP4 ADD PUSH1 0x5 SHR ADD JUMPDEST DUP2 DUP2 LT PUSH2 0x5B7 JUMPI POP PUSH2 0x4EA JUMP JUMPDEST PUSH1 0x0 DUP2 SSTORE PUSH1 0x1 ADD PUSH2 0x5AA JUMP JUMPDEST PUSH4 0x4E487B71 PUSH1 0xE0 SHL PUSH1 0x0 MSTORE PUSH1 0x22 PUSH1 0x4 MSTORE PUSH1 0x24 PUSH1 0x0 REVERT JUMPDEST SWAP1 PUSH1 0x7F AND SWAP1 PUSH2 0x4D8 JUMP JUMPDEST SWAP1 DUP2 MLOAD PUSH1 0x20 DUP2 LT PUSH1 0x0 EQ PUSH2 0x66B JUMPI POP SWAP1 PUSH1 0x1F DUP2 MLOAD GT PUSH2 0x60F JUMPI PUSH1 0x20 DUP2 MLOAD SWAP2 ADD MLOAD PUSH1 0x20 DUP3 LT PUSH2 0x44D JUMPI OR SWAP1 JUMP JUMPDEST PUSH1 0x40 MLOAD SWAP1 PUSH4 0x305A27A9 PUSH1 0xE0 SHL DUP3 MSTORE PUSH1 0x20 PUSH1 0x4 DUP4 ADD MSTORE DUP2 DUP2 MLOAD SWAP2 DUP3 PUSH1 0x24 DUP4 ADD MSTORE PUSH1 0x0 JUMPDEST DUP4 DUP2 LT PUSH2 0x653 JUMPI POP POP DUP2 PUSH1 0x0 PUSH1 0x44 DUP1 SWAP5 DUP5 ADD ADD MSTORE PUSH1 0x1F DUP1 NOT SWAP2 ADD AND DUP2 ADD SUB ADD SWAP1 REVERT JUMPDEST PUSH1 0x20 DUP3 DUP3 ADD DUP2 ADD MLOAD PUSH1 0x44 DUP8 DUP5 ADD ADD MSTORE DUP6 SWAP4 POP ADD PUSH2 0x631 JUMP JUMPDEST PUSH1 0x1 PUSH1 0x1 PUSH1 0x40 SHL SUB DUP2 GT PUSH2 0x3EB JUMPI PUSH1 0x1 SLOAD PUSH1 0x1 DUP2 DUP2 SHR SWAP2 AND DUP1 ISZERO PUSH2 0x777 JUMPI JUMPDEST PUSH1 0x20 DUP3 LT EQ PUSH2 0x5C3 JUMPI PUSH1 0x1F DUP2 GT PUSH2 0x741 JUMPI JUMPDEST POP PUSH1 0x20 SWAP3 PUSH1 0x1F DUP3 GT PUSH1 0x1 EQ PUSH2 0x6DC JUMPI SWAP3 DUP2 SWAP3 SWAP4 PUSH1 0x0 SWAP3 PUSH2 0x6D1 JUMPI JUMPDEST POP POP DUP2 PUSH1 0x1 SHL SWAP2 PUSH1 0x0 NOT SWAP1 PUSH1 0x3 SHL SHR NOT AND OR PUSH1 0x1 SSTORE PUSH1 0xFF SWAP1 JUMP JUMPDEST ADD MLOAD SWAP1 POP CODESIZE DUP1 PUSH2 0x6B7 JUMP JUMPDEST PUSH1 0x1F NOT DUP3 AND SWAP4 PUSH1 0x1 PUSH1 0x0 MSTORE DUP1 PUSH1 0x0 KECCAK256 SWAP2 PUSH1 0x0 JUMPDEST DUP7 DUP2 LT PUSH2 0x729 JUMPI POP DUP4 PUSH1 0x1 SWAP6 SWAP7 LT PUSH2 0x710 JUMPI JUMPDEST POP POP POP DUP2 SHL ADD PUSH1 0x1 SSTORE PUSH1 0xFF SWAP1 JUMP JUMPDEST ADD MLOAD PUSH1 0x0 NOT PUSH1 0xF8 DUP5 PUSH1 0x3 SHL AND SHR NOT AND SWAP1 SSTORE CODESIZE DUP1 DUP1 PUSH2 0x702 JUMP JUMPDEST SWAP2 SWAP3 PUSH1 0x20 PUSH1 0x1 DUP2 SWAP3 DUP7 DUP6 ADD MLOAD DUP2 SSTORE ADD SWAP5 ADD SWAP3 ADD PUSH2 0x6EF JUMP JUMPDEST PUSH1 0x1 PUSH1 0x0 MSTORE PUSH1 0x1F PUSH1 0x20 PUSH1 0x0 KECCAK256 SWAP2 ADD PUSH1 0x5 SHR DUP2 ADD SWAP1 PUSH1 0x1F DUP4 ADD PUSH1 0x5 SHR ADD JUMPDEST DUP2 DUP2 LT PUSH2 0x76B JUMPI POP PUSH2 0x69C JUMP JUMPDEST PUSH1 0x0 DUP2 SSTORE PUSH1 0x1 ADD PUSH2 0x75E JUMP JUMPDEST SWAP1 PUSH1 0x7F AND SWAP1 PUSH2 0x68A JUMP INVALID PUSH1 0x80 PUSH1 0x40 MSTORE PUSH1 0x4 CALLDATASIZE LT ISZERO PUSH2 0x12 JUMPI PUSH1 0x0 DUP1 REVERT JUMPDEST PUSH1 0x0 CALLDATALOAD PUSH1 0xE0 SHR DUP1 PUSH4 0x1FFC9A7 EQ PUSH2 0x23E2 JUMPI DUP1 PUSH4 0x86116D1 EQ PUSH2 0x20B0 JUMPI DUP1 PUSH4 0xA1A2A79 EQ PUSH2 0x2057 JUMPI DUP1 PUSH4 0x105C4C49 EQ PUSH2 0x1EC9 JUMPI DUP1 PUSH4 0x12E8E2C3 EQ PUSH2 0x1E30 JUMPI DUP1 PUSH4 0x19B9413F EQ PUSH2 0x1DD7 JUMPI DUP1 PUSH4 0x26232A2E EQ PUSH2 0x1D9B JUMPI DUP1 PUSH4 0x28521502 EQ PUSH2 0x1D2C JUMPI DUP1 PUSH4 0x29ED45DB EQ PUSH2 0x1C9A JUMPI DUP1 PUSH4 0x2F2FF15D EQ PUSH2 0x1B14 JUMPI DUP1 PUSH4 0x35B8CE93 EQ PUSH2 0x1AC2 JUMPI DUP1 PUSH4 0x3B25637F EQ PUSH2 0x1A29 JUMPI DUP1 PUSH4 0x3F4BA83A EQ PUSH2 0x1919 JUMPI DUP1 PUSH4 0x3F8C49D3 EQ PUSH2 0x14CD JUMPI DUP1 PUSH4 0x4768D4EF EQ PUSH2 0x13EA JUMPI DUP1 PUSH4 0x53AAB434 EQ PUSH2 0x13AE JUMPI DUP1 PUSH4 0x578B7D99 EQ PUSH2 0xFAA JUMPI DUP1 PUSH4 0x5C975ABB EQ PUSH2 0xF4A JUMPI DUP1 PUSH4 0x5D913D20 EQ PUSH2 0xE3D JUMPI DUP1 PUSH4 0x6B8F9C43 EQ PUSH2 0xD05 JUMPI DUP1 PUSH4 0x75B238FC EQ PUSH2 0xCAC JUMPI DUP1 PUSH4 0x80F752AD EQ PUSH2 0xA59 JUMPI DUP1 PUSH4 0x8456CB59 EQ PUSH2 0x946 JUMPI DUP1 PUSH4 0x8488BB4E EQ PUSH2 0x8D5 JUMPI DUP1 PUSH4 0x84B0196E EQ PUSH2 0x79E JUMPI DUP1 PUSH4 0x8BB9C5BF EQ PUSH2 0x666 JUMPI DUP1 PUSH4 0x8DA5CB5B EQ PUSH2 0x5F5 JUMPI DUP1 PUSH4 0x91D14854 EQ PUSH2 0x55D JUMPI DUP1 PUSH4 0xA51F054E EQ PUSH2 0x504 JUMPI DUP1 PUSH4 0xAF74BC14 EQ PUSH2 0x4AB JUMPI DUP1 PUSH4 0xBD9EB3B5 EQ PUSH2 0x452 JUMPI DUP1 PUSH4 0xD547741F EQ PUSH2 0x2A2 JUMPI PUSH4 0xF2FDE38B EQ PUSH2 0x187 JUMPI PUSH1 0x0 DUP1 REVERT JUMPDEST CALLVALUE PUSH2 0x29D JUMPI PUSH1 0x20 PUSH32 0xFFFFFFFFFFFFFFFFFFFFFFFFFFFFFFFFFFFFFFFFFFFFFFFFFFFFFFFFFFFFFFFC CALLDATASIZE ADD SLT PUSH2 0x29D JUMPI PUSH2 0x1BE PUSH2 0x246B JUMP JUMPDEST PUSH32 0xC9ED16F33AB3A66C84BFD83099CCB2A8845871E2E1C1928F63797152F0FD54CC SWAP1 PUSH20 0xFFFFFFFFFFFFFFFFFFFFFFFFFFFFFFFFFFFFFFFF DUP3 SLOAD AND SWAP1 DUP2 CALLER SUB PUSH2 0x26F JUMPI PUSH20 0xFFFFFFFFFFFFFFFFFFFFFFFFFFFFFFFFFFFFFFFF AND SWAP2 DUP3 DUP3 SUB PUSH2 0x220 JUMPI STOP JUMPDEST DUP3 PUSH32 0xFFFFFFFFFFFFFFFFFFFFFFFF0000000000000000000000000000000000000000 DUP3 SLOAD AND OR SWAP1 SSTORE PUSH32 0x8BE0079C531659141344CD1FD0A4F28419497F9722A3DAAFE3B4186F6B6457E0 PUSH1 0x0 DUP1 LOG3 STOP JUMPDEST PUSH32 0x2EF4875E00000000000000000000000000000000000000000000000000000000 PUSH1 0x0 MSTORE CALLER PUSH1 0x4 MSTORE PUSH1 0x24 PUSH1 0x0 REVERT JUMPDEST PUSH1 0x0 DUP1 REVERT JUMPDEST CALLVALUE PUSH2 0x29D JUMPI PUSH1 0x40 PUSH32 0xFFFFFFFFFFFFFFFFFFFFFFFFFFFFFFFFFFFFFFFFFFFFFFFFFFFFFFFFFFFFFFFC CALLDATASIZE ADD SLT PUSH2 0x29D JUMPI PUSH1 0x4 CALLDATALOAD PUSH2 0x2DC PUSH2 0x2448 JUMP JUMPDEST SWAP1 PUSH20 0xFFFFFFFFFFFFFFFFFFFFFFFFFFFFFFFFFFFFFFFF PUSH32 0xC9ED16F33AB3A66C84BFD83099CCB2A8845871E2E1C1928F63797152F0FD54CC SLOAD AND PUSH20 0xFFFFFFFFFFFFFFFFFFFFFFFFFFFFFFFFFFFFFFFF CALLER AND SWAP1 DUP2 SUB PUSH2 0x425 JUMPI POP PUSH32 0xC8827D3282AF6F37B64C3E9E6F3AC9DF286AB0BB0FCCD6F8661BF19ADB368B22 SWAP2 DUP2 PUSH1 0x0 MSTORE DUP3 PUSH1 0x20 MSTORE PUSH1 0x40 PUSH1 0x0 KECCAK256 PUSH20 0xFFFFFFFFFFFFFFFFFFFFFFFFFFFFFFFFFFFFFFFF DUP3 AND PUSH1 0x0 MSTORE PUSH1 0x20 MSTORE PUSH1 0xFF PUSH1 0x40 PUSH1 0x0 KECCAK256 SLOAD AND PUSH2 0x38F JUMPI STOP JUMPDEST PUSH1 0x0 DUP3 DUP2 MSTORE PUSH1 0x20 SWAP4 DUP5 MSTORE PUSH1 0x40 DUP1 DUP3 KECCAK256 PUSH20 0xFFFFFFFFFFFFFFFFFFFFFFFFFFFFFFFFFFFFFFFF SWAP4 SWAP1 SWAP4 AND DUP1 DUP4 MSTORE SWAP3 DUP6 MSTORE SWAP1 DUP2 SWAP1 KECCAK256 DUP1 SLOAD PUSH32 0xFFFFFFFFFFFFFFFFFFFFFFFFFFFFFFFFFFFFFFFFFFFFFFFFFFFFFFFFFFFFFF00 AND SWAP1 SSTORE DUP1 MLOAD SWAP3 DUP4 MSTORE SWAP3 DUP3 ADD MSTORE CALLER SWAP2 DUP2 ADD SWAP2 SWAP1 SWAP2 MSTORE PUSH32 0xF6391F5C32D9C69D2A47EA670B442974B53935D1EDC7FD64EB21E047A839171B SWAP1 DUP1 PUSH1 0x60 DUP2 ADD JUMPDEST SUB SWAP1 LOG1 STOP JUMPDEST PUSH32 0x2EF4875E00000000000000000000000000000000000000000000000000000000 PUSH1 0x0 MSTORE PUSH1 0x4 MSTORE PUSH1 0x24 PUSH1 0x0 REVERT JUMPDEST CALLVALUE PUSH2 0x29D JUMPI PUSH1 0x0 PUSH32 0xFFFFFFFFFFFFFFFFFFFFFFFFFFFFFFFFFFFFFFFFFFFFFFFFFFFFFFFFFFFFFFFC CALLDATASIZE ADD SLT PUSH2 0x29D JUMPI PUSH1 0x20 PUSH1 0x40 MLOAD PUSH32 0x8EE1D14670BE47589129EA1ABFA7B982CD34487687F4F1305145D6BE32D430A2 DUP2 MSTORE RETURN JUMPDEST CALLVALUE PUSH2 0x29D JUMPI PUSH1 0x0 PUSH32 0xFFFFFFFFFFFFFFFFFFFFFFFFFFFFFFFFFFFFFFFFFFFFFFFFFFFFFFFFFFFFFFFC CALLDATASIZE ADD SLT PUSH2 0x29D JUMPI PUSH1 0x20 PUSH1 0x40 MLOAD PUSH32 0xAEF88082B8671E875D97D0D6C81D06FB9E76F97B3AD7523A55A378E5298AEEEE DUP2 MSTORE RETURN JUMPDEST CALLVALUE PUSH2 0x29D JUMPI PUSH1 0x0 PUSH32 0xFFFFFFFFFFFFFFFFFFFFFFFFFFFFFFFFFFFFFFFFFFFFFFFFFFFFFFFFFFFFFFFC CALLDATASIZE ADD SLT PUSH2 0x29D JUMPI PUSH1 0x20 PUSH1 0x40 MLOAD PUSH32 0x385A2F357AFFE267C4AC0DECBF9206D8604B02181A2DD8F81B5DCBA0D74951A DUP2 MSTORE RETURN JUMPDEST CALLVALUE PUSH2 0x29D JUMPI PUSH1 0x40 PUSH32 0xFFFFFFFFFFFFFFFFFFFFFFFFFFFFFFFFFFFFFFFFFFFFFFFFFFFFFFFFFFFFFFFC CALLDATASIZE ADD SLT PUSH2 0x29D JUMPI PUSH2 0x594 PUSH2 0x2448 JUMP JUMPDEST PUSH32 0xC8827D3282AF6F37B64C3E9E6F3AC9DF286AB0BB0FCCD6F8661BF19ADB368B22 PUSH1 0x4 CALLDATALOAD PUSH1 0x0 MSTORE PUSH1 0x20 MSTORE PUSH20 0xFFFFFFFFFFFFFFFFFFFFFFFFFFFFFFFFFFFFFFFF PUSH1 0x40 PUSH1 0x0 KECCAK256 SWAP2 AND PUSH1 0x0 MSTORE PUSH1 0x20 MSTORE PUSH1 0x20 PUSH1 0xFF PUSH1 0x40 PUSH1 0x0 KECCAK256 SLOAD AND PUSH1 0x40 MLOAD SWAP1 ISZERO ISZERO DUP2 MSTORE RETURN JUMPDEST CALLVALUE PUSH2 0x29D JUMPI PUSH1 0x0 PUSH32 0xFFFFFFFFFFFFFFFFFFFFFFFFFFFFFFFFFFFFFFFFFFFFFFFFFFFFFFFFFFFFFFFC CALLDATASIZE ADD SLT PUSH2 0x29D JUMPI PUSH1 0x20 PUSH20 0xFFFFFFFFFFFFFFFFFFFFFFFFFFFFFFFFFFFFFFFF PUSH32 0xC9ED16F33AB3A66C84BFD83099CCB2A8845871E2E1C1928F63797152F0FD54CC SLOAD AND PUSH1 0x40 MLOAD SWAP1 DUP2 MSTORE RETURN JUMPDEST CALLVALUE PUSH2 0x29D JUMPI PUSH1 0x20 PUSH32 0xFFFFFFFFFFFFFFFFFFFFFFFFFFFFFFFFFFFFFFFFFFFFFFFFFFFFFFFFFFFFFFFC CALLDATASIZE ADD SLT PUSH2 0x29D JUMPI PUSH1 0x4 CALLDATALOAD PUSH32 0xC8827D3282AF6F37B64C3E9E6F3AC9DF286AB0BB0FCCD6F8661BF19ADB368B22 DUP2 PUSH1 0x0 MSTORE DUP1 PUSH1 0x20 MSTORE PUSH1 0x40 PUSH1 0x0 KECCAK256 PUSH20 0xFFFFFFFFFFFFFFFFFFFFFFFFFFFFFFFFFFFFFFFF CALLER AND PUSH1 0x0 MSTORE PUSH1 0x20 MSTORE PUSH1 0xFF PUSH1 0x40 PUSH1 0x0 KECCAK256 SLOAD AND ISZERO PUSH2 0x76C JUMPI PUSH1 0x0 DUP3 DUP2 MSTORE PUSH1 0x20 SWAP2 DUP3 MSTORE PUSH1 0x40 DUP1 DUP3 KECCAK256 CALLER DUP1 DUP5 MSTORE SWAP1 DUP5 MSTORE SWAP2 DUP2 SWAP1 KECCAK256 DUP1 SLOAD PUSH32 0xFFFFFFFFFFFFFFFFFFFFFFFFFFFFFFFFFFFFFFFFFFFFFFFFFFFFFFFFFFFFFF00 AND SWAP1 SSTORE DUP1 MLOAD SWAP4 DUP5 MSTORE SWAP2 DUP4 ADD DUP2 SWAP1 MSTORE SWAP1 DUP3 ADD MSTORE PUSH32 0xF6391F5C32D9C69D2A47EA670B442974B53935D1EDC7FD64EB21E047A839171B SWAP1 DUP1 PUSH1 0x60 DUP2 ADD PUSH2 0x420 JUMP JUMPDEST POP PUSH32 0x7AA7288200000000000000000000000000000000000000000000000000000000 PUSH1 0x0 MSTORE PUSH1 0x4 MSTORE CALLER PUSH1 0x24 MSTORE PUSH1 0x44 PUSH1 0x0 REVERT JUMPDEST CALLVALUE PUSH2 0x29D JUMPI PUSH1 0x0 PUSH32 0xFFFFFFFFFFFFFFFFFFFFFFFFFFFFFFFFFFFFFFFFFFFFFFFFFFFFFFFFFFFFFFFC CALLDATASIZE ADD SLT PUSH2 0x29D JUMPI PUSH2 0x877 PUSH2 0x7F9 PUSH32 0x0 PUSH2 0x2D99 JUMP JUMPDEST PUSH2 0x822 PUSH32 0x0 PUSH2 0x2F34 JUMP JUMPDEST PUSH1 0x20 PUSH2 0x885 PUSH1 0x40 MLOAD SWAP3 PUSH2 0x835 DUP4 DUP6 PUSH2 0x258D JUMP JUMPDEST PUSH1 0x0 DUP5 MSTORE PUSH1 0x0 CALLDATASIZE DUP2 CALLDATACOPY PUSH1 0x40 MLOAD SWAP6 DUP7 SWAP6 PUSH32 0xF00000000000000000000000000000000000000000000000000000000000000 DUP8 MSTORE PUSH1 0xE0 DUP6 DUP9 ADD MSTORE PUSH1 0xE0 DUP8 ADD SWAP1 PUSH2 0x252E JUMP JUMPDEST SWAP1 DUP6 DUP3 SUB PUSH1 0x40 DUP8 ADD MSTORE PUSH2 0x252E JUMP JUMPDEST CHAINID PUSH1 0x60 DUP6 ADD MSTORE ADDRESS PUSH1 0x80 DUP6 ADD MSTORE PUSH1 0x0 PUSH1 0xA0 DUP6 ADD MSTORE DUP4 DUP2 SUB PUSH1 0xC0 DUP6 ADD MSTORE DUP2 DUP1 DUP5 MLOAD SWAP3 DUP4 DUP2 MSTORE ADD SWAP4 ADD SWAP2 PUSH1 0x0 JUMPDEST DUP3 DUP2 LT PUSH2 0x8BE JUMPI POP POP POP POP SUB SWAP1 RETURN JUMPDEST DUP4 MLOAD DUP6 MSTORE DUP7 SWAP6 POP SWAP4 DUP2 ADD SWAP4 SWAP3 DUP2 ADD SWAP3 PUSH1 0x1 ADD PUSH2 0x8AF JUMP JUMPDEST CALLVALUE PUSH2 0x29D JUMPI PUSH1 0x0 PUSH32 0xFFFFFFFFFFFFFFFFFFFFFFFFFFFFFFFFFFFFFFFFFFFFFFFFFFFFFFFFFFFFFFFC CALLDATASIZE ADD SLT PUSH2 0x29D JUMPI PUSH1 0x20 PUSH20 0xFFFFFFFFFFFFFFFFFFFFFFFFFFFFFFFFFFFFFFFF PUSH32 0x4FB5F8CDFBCE77F22B0931A39E9F476A60A0F66524B2F379E96485471EB700AD SLOAD AND PUSH1 0x40 MLOAD SWAP1 DUP2 MSTORE RETURN JUMPDEST CALLVALUE PUSH2 0x29D JUMPI PUSH1 0x0 PUSH32 0xFFFFFFFFFFFFFFFFFFFFFFFFFFFFFFFFFFFFFFFFFFFFFFFFFFFFFFFFFFFFFFFC CALLDATASIZE ADD SLT PUSH2 0x29D JUMPI PUSH32 0xC9ED16F33AB3A66C84BFD83099CCB2A8845871E2E1C1928F63797152F0FD54CC SLOAD CALLER SWAP1 PUSH20 0xFFFFFFFFFFFFFFFFFFFFFFFFFFFFFFFFFFFFFFFF AND DUP2 SUB PUSH2 0x425 JUMPI PUSH32 0x186A05F63B1553398AD5EA3233C0CE68B8C9EECC47717F123C5C2B42FBD6D9E PUSH1 0xFF DUP2 SLOAD AND PUSH2 0xA2F JUMPI PUSH1 0x1 PUSH32 0xFFFFFFFFFFFFFFFFFFFFFFFFFFFFFFFFFFFFFFFFFFFFFFFFFFFFFFFFFFFFFF00 DUP3 SLOAD AND OR SWAP1 SSTORE PUSH32 0x6985A02210A168E66602D3235CB6DB0E70F92B3BA4D376A33C0F3D9434BFF625 PUSH1 0x0 DUP1 LOG1 STOP JUMPDEST PUSH32 0x9E87FAC800000000000000000000000000000000000000000000000000000000 PUSH1 0x0 MSTORE PUSH1 0x4 PUSH1 0x0 REVERT JUMPDEST CALLVALUE PUSH2 0x29D JUMPI PUSH20 0xFFFFFFFFFFFFFFFFFFFFFFFFFFFFFFFFFFFFFFFF PUSH2 0xA7C CALLDATASIZE PUSH2 0x24BC JUMP JUMPDEST SWAP4 SWAP1 SWAP2 AND SWAP3 DUP4 ISZERO PUSH2 0xC82 JUMPI PUSH2 0xAF4 PUSH2 0xAFD SWAP2 PUSH2 0xAEE PUSH2 0xB23 SWAP5 PUSH2 0xAE6 PUSH1 0x40 MLOAD PUSH1 0x20 DUP2 ADD SWAP1 PUSH32 0x8EE1D14670BE47589129EA1ABFA7B982CD34487687F4F1305145D6BE32D430A2 DUP3 MSTORE DUP10 PUSH1 0x40 DUP3 ADD MSTORE DUP11 PUSH1 0x60 DUP3 ADD MSTORE PUSH1 0x60 DUP2 MSTORE PUSH2 0xADE PUSH1 0x80 DUP3 PUSH2 0x258D JUMP JUMPDEST MLOAD SWAP1 KECCAK256 PUSH2 0x27A4 JUMP JUMPDEST SWAP3 CALLDATASIZE SWAP2 PUSH2 0x25FD JUMP JUMPDEST SWAP1 PUSH2 0x2BE6 JUMP JUMPDEST SWAP1 SWAP3 SWAP2 SWAP3 PUSH2 0x2C22 JUMP JUMPDEST PUSH32 0xC8827D3282AF6F37B64C3E9E6F3AC9DF286AB0BB0FCCD6F8661BF19ADB368B22 PUSH2 0x27E5 JUMP JUMPDEST DUP1 PUSH1 0x0 MSTORE PUSH1 0x5 PUSH1 0x20 MSTORE PUSH1 0x40 PUSH1 0x0 KECCAK256 SWAP2 PUSH20 0xFFFFFFFFFFFFFFFFFFFFFFFFFFFFFFFFFFFFFFFF DUP4 SLOAD AND SWAP3 PUSH20 0xFFFFFFFFFFFFFFFFFFFFFFFFFFFFFFFFFFFFFFFF PUSH1 0x1 DUP3 ADD SLOAD AND PUSH1 0x4 DUP3 ADD SWAP1 DUP1 DUP3 SLOAD SWAP5 PUSH1 0x5 DUP6 ADD SWAP1 PUSH2 0xB8D DUP9 PUSH2 0xB87 DUP12 DUP11 DUP7 SLOAD SWAP8 DUP9 SWAP3 PUSH2 0x2969 JUMP JUMPDEST ISZERO PUSH2 0x2662 JUMP JUMPDEST DUP1 DUP10 SUB PUSH2 0xC07 JUMPI POP POP POP POP SWAP2 PUSH1 0x0 PUSH1 0x6 PUSH1 0x20 SWAP4 DUP3 PUSH32 0x7E8D9D00C67D0ECA419DA2AFAEB9897F1995CE74CA7E6E5DAB3F4C85C40721B1 SWAP7 PUSH2 0xBD0 DUP11 DUP11 DUP9 ISZERO ISZERO PUSH2 0x2697 JUMP JUMPDEST SSTORE ADD SSTORE PUSH2 0xBFE DUP2 DUP7 PUSH32 0x0 PUSH2 0x29B9 JUMP JUMPDEST PUSH1 0x40 MLOAD SWAP1 DUP2 MSTORE LOG3 STOP JUMPDEST SWAP3 SWAP8 POP SWAP3 POP SWAP4 POP DUP6 DUP2 EQ PUSH1 0x0 EQ PUSH2 0xC51 JUMPI POP SWAP2 PUSH1 0x0 PUSH1 0x6 PUSH1 0x20 SWAP4 DUP3 PUSH32 0x7E8D9D00C67D0ECA419DA2AFAEB9897F1995CE74CA7E6E5DAB3F4C85C40721B1 SWAP7 PUSH2 0xBD0 DUP11 DUP11 DUP9 ISZERO ISZERO PUSH2 0x2697 JUMP JUMPDEST DUP5 PUSH32 0xF99CA01200000000000000000000000000000000000000000000000000000000 PUSH1 0x0 MSTORE PUSH1 0x4 MSTORE PUSH1 0x24 MSTORE PUSH1 0x44 PUSH1 0x0 REVERT JUMPDEST PUSH32 0xE8A471C00000000000000000000000000000000000000000000000000000000 PUSH1 0x0 MSTORE PUSH1 0x4 PUSH1 0x0 REVERT JUMPDEST CALLVALUE PUSH2 0x29D JUMPI PUSH1 0x0 PUSH32 0xFFFFFFFFFFFFFFFFFFFFFFFFFFFFFFFFFFFFFFFFFFFFFFFFFFFFFFFFFFFFFFFC CALLDATASIZE ADD SLT PUSH2 0x29D JUMPI PUSH1 0x20 PUSH1 0x40 MLOAD PUSH32 0xA49807205CE4D355092EF5A8A18F56E8913CF4A201FBE287825B095693C21775 DUP2 MSTORE RETURN JUMPDEST CALLVALUE PUSH2 0x29D JUMPI PUSH1 0x20 PUSH32 0xFFFFFFFFFFFFFFFFFFFFFFFFFFFFFFFFFFFFFFFFFFFFFFFFFFFFFFFFFFFFFFFC CALLDATASIZE ADD SLT PUSH2 0x29D JUMPI PUSH1 0x4 CALLDATALOAD PUSH20 0xFFFFFFFFFFFFFFFFFFFFFFFFFFFFFFFFFFFFFFFF DUP2 AND DUP1 SWAP2 SUB PUSH2 0x29D JUMPI PUSH32 0xC9ED16F33AB3A66C84BFD83099CCB2A8845871E2E1C1928F63797152F0FD54CC SLOAD CALLER SWAP1 PUSH20 0xFFFFFFFFFFFFFFFFFFFFFFFFFFFFFFFFFFFFFFFF AND DUP2 SUB PUSH2 0x425 JUMPI POP PUSH32 0x4FB5F8CDFBCE77F22B0931A39E9F476A60A0F66524B2F379E96485471EB700AD DUP2 ISZERO PUSH2 0xE13 JUMPI DUP2 DUP2 PUSH32 0xDD880D24A789958A6398C99C2E54CE31BC10A638CBC42F7DD34285479AE0F855 SWAP4 PUSH32 0xFFFFFFFFFFFFFFFFFFFFFFFF0000000000000000000000000000000000000000 PUSH1 0x20 SWAP5 SLOAD AND OR SWAP1 SSTORE PUSH1 0x40 MLOAD SWAP1 DUP2 MSTORE LOG1 STOP JUMPDEST PUSH32 0x40B539CF00000000000000000000000000000000000000000000000000000000 PUSH1 0x0 MSTORE PUSH1 0x4 PUSH1 0x0 REVERT JUMPDEST CALLVALUE PUSH2 0x29D JUMPI PUSH1 0x20 PUSH32 0xFFFFFFFFFFFFFFFFFFFFFFFFFFFFFFFFFFFFFFFFFFFFFFFFFFFFFFFFFFFFFFFC CALLDATASIZE ADD SLT PUSH2 0x29D JUMPI PUSH2 0xE74 PUSH2 0x246B JUMP JUMPDEST PUSH32 0xC9ED16F33AB3A66C84BFD83099CCB2A8845871E2E1C1928F63797152F0FD54CC SLOAD CALLER SWAP2 SWAP1 PUSH20 0xFFFFFFFFFFFFFFFFFFFFFFFFFFFFFFFFFFFFFFFF AND DUP3 SUB PUSH2 0xF1C JUMPI PUSH20 0xFFFFFFFFFFFFFFFFFFFFFFFFFFFFFFFFFFFFFFFF AND DUP1 PUSH32 0xFFFFFFFFFFFFFFFFFFFFFFFF0000000000000000000000000000000000000000 PUSH1 0x2 SLOAD AND OR PUSH1 0x2 SSTORE PUSH32 0x7B6E63AE66AF5C70FBFF811FA431E7646D4EC64CF86DE8B3721EE49B6C8B5AD3 PUSH1 0x0 DUP1 LOG2 STOP JUMPDEST POP PUSH32 0x2EF4875E00000000000000000000000000000000000000000000000000000000 PUSH1 0x0 MSTORE PUSH1 0x4 MSTORE PUSH1 0x24 PUSH1 0x0 REVERT JUMPDEST CALLVALUE PUSH2 0x29D JUMPI PUSH1 0x0 PUSH32 0xFFFFFFFFFFFFFFFFFFFFFFFFFFFFFFFFFFFFFFFFFFFFFFFFFFFFFFFFFFFFFFFC CALLDATASIZE ADD SLT PUSH2 0x29D JUMPI PUSH1 0x20 PUSH1 0xFF PUSH32 0x186A05F63B1553398AD5EA3233C0CE68B8C9EECC47717F123C5C2B42FBD6D9E SLOAD AND PUSH1 0x40 MLOAD SWAP1 ISZERO ISZERO DUP2 MSTORE RETURN JUMPDEST CALLVALUE PUSH2 0x29D JUMPI PUSH1 0xA0 PUSH32 0xFFFFFFFFFFFFFFFFFFFFFFFFFFFFFFFFFFFFFFFFFFFFFFFFFFFFFFFFFFFFFFFC CALLDATASIZE ADD SLT PUSH2 0x29D JUMPI PUSH1 0x4 CALLDATALOAD PUSH2 0xFE4 PUSH2 0x2448 JUMP JUMPDEST PUSH1 0x44 CALLDATALOAD SWAP2 PUSH20 0xFFFFFFFFFFFFFFFFFFFFFFFFFFFFFFFFFFFFFFFF DUP4 AND DUP1 SWAP4 SUB PUSH2 0x29D JUMPI PUSH1 0x64 CALLDATALOAD SWAP2 PUSH1 0x84 CALLDATALOAD PUSH8 0xFFFFFFFFFFFFFFFF DUP2 GT PUSH2 0x29D JUMPI PUSH2 0x102A SWAP1 CALLDATASIZE SWAP1 PUSH1 0x4 ADD PUSH2 0x248E JUMP JUMPDEST SWAP1 SWAP4 DUP1 TIMESTAMP LT ISZERO PUSH2 0x1384 JUMPI PUSH20 0xFFFFFFFFFFFFFFFFFFFFFFFFFFFFFFFFFFFFFFFF DUP4 AND SWAP5 DUP6 ISZERO PUSH2 0xC82 JUMPI DUP7 ISZERO PUSH2 0x135A JUMPI PUSH1 0xFF PUSH32 0x186A05F63B1553398AD5EA3233C0CE68B8C9EECC47717F123C5C2B42FBD6D9E SLOAD AND PUSH2 0xA2F JUMPI PUSH2 0x10E4 SWAP3 PUSH2 0xAEE PUSH2 0xAF4 SWAP3 PUSH2 0xAE6 PUSH2 0xAFD SWAP6 PUSH1 0x40 MLOAD PUSH1 0x20 DUP2 ADD SWAP2 PUSH32 0x453375E4F44BB00983DB3DDE1ABB6154E31C5AAB8FE14C7A4A55BB04FE1C3EB8 DUP4 MSTORE DUP12 PUSH1 0x40 DUP4 ADD MSTORE DUP13 PUSH1 0x60 DUP4 ADD MSTORE DUP14 PUSH1 0x80 DUP4 ADD MSTORE PUSH1 0xA0 DUP3 ADD MSTORE PUSH1 0xA0 DUP2 MSTORE PUSH2 0xADE PUSH1 0xC0 DUP3 PUSH2 0x258D JUMP JUMPDEST DUP2 PUSH1 0x0 MSTORE PUSH1 0x5 PUSH1 0x20 MSTORE PUSH1 0x40 PUSH1 0x0 KECCAK256 DUP5 PUSH20 0xFFFFFFFFFFFFFFFFFFFFFFFFFFFFFFFFFFFFFFFF DUP3 SLOAD AND SWAP3 PUSH1 0x1 DUP4 ADD SWAP4 PUSH20 0xFFFFFFFFFFFFFFFFFFFFFFFFFFFFFFFFFFFFFFFF DUP6 SLOAD AND SWAP5 PUSH1 0x4 DUP6 ADD SWAP6 DUP7 SLOAD SWAP3 PUSH1 0x5 DUP8 ADD SWAP2 PUSH2 0x1148 DUP11 PUSH2 0xB87 DUP6 SLOAD DUP9 DUP6 DUP8 PUSH2 0x2969 JUMP JUMPDEST DUP2 PUSH2 0x121F JUMPI POP POP POP POP POP SWAP3 PUSH2 0x120A PUSH1 0x60 SWAP4 SWAP3 PUSH32 0x4B149D673B8317F48D55E0C9E8EE7C19E9FD8C290B6FD36EE506F77A24CEE941 SWAP6 DUP9 PUSH1 0x4 SLOAD SWAP5 DUP6 PUSH1 0x6 PUSH1 0x3 SLOAD SWAP9 DUP10 SWAP7 DUP8 SWAP6 PUSH32 0xFFFFFFFFFFFFFFFFFFFFFFFF0000000000000000000000000000000000000000 DUP4 SLOAD AND OR DUP3 SSTORE PUSH1 0x2 DUP3 ADD SWAP1 PUSH32 0xFFFFFFFFFFFFFFFFFFFFFFFF0000000000000000000000000000000000000000 DUP3 SLOAD AND OR SWAP1 SSTORE ADD SSTORE SSTORE ADDRESS SWAP1 PUSH32 0x0 PUSH2 0x2A56 JUMP JUMPDEST PUSH1 0x40 MLOAD SWAP2 PUSH1 0x1 DUP4 MSTORE PUSH1 0x20 DUP4 ADD MSTORE PUSH1 0x40 DUP3 ADD MSTORE LOG4 STOP JUMPDEST SWAP2 SWAP5 SWAP6 POP SWAP2 SWAP6 SWAP3 SWAP7 POP ISZERO PUSH1 0x0 EQ PUSH2 0x132C JUMPI DUP8 EQ PUSH2 0x12FA JUMPI DUP5 DUP1 SWAP4 PUSH32 0x4B149D673B8317F48D55E0C9E8EE7C19E9FD8C290B6FD36EE506F77A24CEE941 SWAP7 PUSH1 0x60 SWAP7 SWAP5 PUSH1 0x3 DUP6 PUSH1 0x6 PUSH2 0x12E5 SWAP8 ADD SLOAD SWAP8 DUP14 PUSH32 0xFFFFFFFFFFFFFFFFFFFFFFFF0000000000000000000000000000000000000000 DUP3 SLOAD AND OR SWAP1 SSTORE ADD DUP13 PUSH32 0xFFFFFFFFFFFFFFFFFFFFFFFF0000000000000000000000000000000000000000 DUP3 SLOAD AND OR SWAP1 SSTORE SSTORE ADDRESS SWAP1 PUSH32 0x0 PUSH2 0x2A56 JUMP JUMPDEST PUSH1 0x40 MLOAD SWAP2 PUSH1 0x0 DUP4 MSTORE PUSH1 0x20 DUP4 ADD MSTORE PUSH1 0x40 DUP3 ADD MSTORE LOG4 STOP JUMPDEST DUP7 DUP7 PUSH32 0x474DEE4400000000000000000000000000000000000000000000000000000000 PUSH1 0x0 MSTORE PUSH1 0x4 MSTORE PUSH1 0x24 MSTORE PUSH1 0x44 PUSH1 0x0 REVERT JUMPDEST DUP7 PUSH32 0xDC2995C400000000000000000000000000000000000000000000000000000000 PUSH1 0x0 MSTORE PUSH1 0x4 MSTORE PUSH1 0x24 PUSH1 0x0 REVERT JUMPDEST PUSH32 0x7CFDD37300000000000000000000000000000000000000000000000000000000 PUSH1 0x0 MSTORE PUSH1 0x4 PUSH1 0x0 REVERT JUMPDEST PUSH32 0xDF4CC36D00000000000000000000000000000000000000000000000000000000 PUSH1 0x0 MSTORE PUSH1 0x4 PUSH1 0x0 REVERT JUMPDEST CALLVALUE PUSH2 0x29D JUMPI PUSH1 0x0 PUSH32 0xFFFFFFFFFFFFFFFFFFFFFFFFFFFFFFFFFFFFFFFFFFFFFFFFFFFFFFFFFFFFFFFC CALLDATASIZE ADD SLT PUSH2 0x29D JUMPI PUSH1 0x20 PUSH1 0x3 SLOAD PUSH1 0x40 MLOAD SWAP1 DUP2 MSTORE RETURN JUMPDEST CALLVALUE PUSH2 0x29D JUMPI PUSH1 0x20 PUSH32 0xFFFFFFFFFFFFFFFFFFFFFFFFFFFFFFFFFFFFFFFFFFFFFFFFFFFFFFFFFFFFFFFC CALLDATASIZE ADD SLT PUSH2 0x29D JUMPI PUSH1 0x4 CALLDATALOAD PUSH1 0x0 MSTORE PUSH1 0x5 PUSH1 0x20 MSTORE PUSH1 0xE0 PUSH1 0x40 PUSH1 0x0 KECCAK256 PUSH20 0xFFFFFFFFFFFFFFFFFFFFFFFFFFFFFFFFFFFFFFFF DUP2 SLOAD AND SWAP1 PUSH20 0xFFFFFFFFFFFFFFFFFFFFFFFFFFFFFFFFFFFFFFFF PUSH1 0x1 DUP3 ADD SLOAD AND SWAP1 PUSH20 0xFFFFFFFFFFFFFFFFFFFFFFFFFFFFFFFFFFFFFFFF PUSH1 0x2 DUP3 ADD SLOAD AND PUSH20 0xFFFFFFFFFFFFFFFFFFFFFFFFFFFFFFFFFFFFFFFF PUSH1 0x3 DUP4 ADD SLOAD AND PUSH1 0x4 DUP4 ADD SLOAD SWAP2 PUSH1 0x6 PUSH1 0x5 DUP6 ADD SLOAD SWAP5 ADD SLOAD SWAP5 PUSH1 0x40 MLOAD SWAP7 DUP8 MSTORE PUSH1 0x20 DUP8 ADD MSTORE PUSH1 0x40 DUP7 ADD MSTORE PUSH1 0x60 DUP6 ADD MSTORE PUSH1 0x80 DUP5 ADD MSTORE PUSH1 0xA0 DUP4 ADD MSTORE PUSH1 0xC0 DUP3 ADD MSTORE RETURN JUMPDEST CALLVALUE PUSH2 0x29D JUMPI PUSH2 0x1550 PUSH2 0xAFD PUSH2 0xAF4 PUSH2 0x14E4 CALLDATASIZE PUSH2 0x24BC JUMP JUMPDEST PUSH2 0xAEE PUSH1 0x40 SWAP8 SWAP5 SWAP8 SWAP7 SWAP4 SWAP6 SWAP3 SWAP7 MLOAD SWAP7 PUSH2 0xAE6 PUSH1 0x20 DUP10 ADD PUSH32 0x385A2F357AFFE267C4AC0DECBF9206D8604B02181A2DD8F81B5DCBA0D74951A DUP2 MSTORE DUP11 PUSH1 0x40 DUP12 ADD MSTORE PUSH20 0xFFFFFFFFFFFFFFFFFFFFFFFFFFFFFFFFFFFFFFFF DUP10 AND SWAP10 DUP11 PUSH1 0x60 DUP3 ADD MSTORE PUSH1 0x60 DUP2 MSTORE PUSH2 0xADE PUSH1 0x80 DUP3 PUSH2 0x258D JUMP JUMPDEST DUP3 PUSH1 0x0 MSTORE PUSH1 0x5 PUSH1 0x20 MSTORE PUSH1 0x40 PUSH1 0x0 KECCAK256 PUSH1 0x4 DUP2 ADD SWAP1 DUP2 SLOAD PUSH1 0x5 DUP3 ADD SWAP3 DUP4 SLOAD SWAP5 DUP3 ISZERO ISZERO DUP1 PUSH2 0x1910 JUMPI JUMPDEST ISZERO PUSH2 0x18E2 JUMPI PUSH20 0xFFFFFFFFFFFFFFFFFFFFFFFFFFFFFFFFFFFFFFFF DUP5 SLOAD AND PUSH20 0xFFFFFFFFFFFFFFFFFFFFFFFFFFFFFFFFFFFFFFFF PUSH1 0x1 DUP7 ADD SLOAD AND DUP2 DUP10 EQ PUSH1 0x0 EQ PUSH2 0x18A1 JUMPI PUSH1 0x6 SWAP2 POP SWAP5 JUMPDEST ADD SWAP5 DUP6 SLOAD SWAP7 DUP8 PUSH1 0x1 SHL SWAP8 DUP1 DUP10 DIV PUSH1 0x2 EQ SWAP1 ISZERO OR ISZERO PUSH2 0x1872 JUMPI DUP5 ADD DUP1 SWAP5 GT PUSH2 0x1872 JUMPI PUSH1 0x0 SWAP6 DUP7 DUP1 SWAP3 PUSH2 0x15F2 DUP11 PUSH2 0x1624 SWAP9 PUSH2 0x26E8 JUMP JUMPDEST SWAP9 DUP10 SWAP7 SSTORE SSTORE SSTORE DUP6 PUSH2 0x180B JUMPI JUMPDEST PUSH32 0x0 PUSH2 0x29B9 JUMP JUMPDEST DUP4 DUP6 PUSH32 0xA2413835F07421C275D3E2FEAC4328391C22C9ED3DB28C40B45B55A0C3A2BA6 PUSH1 0x20 PUSH1 0x40 MLOAD DUP7 DUP2 MSTORE LOG3 PUSH20 0xFFFFFFFFFFFFFFFFFFFFFFFFFFFFFFFFFFFFFFFF PUSH1 0x2 SLOAD AND SWAP4 DUP5 PUSH2 0x1671 JUMPI STOP JUMPDEST PUSH20 0xFFFFFFFFFFFFFFFFFFFFFFFFFFFFFFFFFFFFFFFF PUSH1 0x40 MLOAD SWAP3 PUSH32 0x1AEF01E100000000000000000000000000000000000000000000000000000000 DUP5 MSTORE DUP8 PUSH1 0x4 DUP6 ADD MSTORE DUP3 PUSH1 0x24 DUP6 ADD MSTORE AND SWAP2 DUP3 PUSH1 0x44 DUP3 ADD MSTORE DUP4 PUSH1 0x64 DUP3 ADD MSTORE DUP5 PUSH1 0x84 DUP3 ADD MSTORE PUSH1 0x20 DUP2 PUSH1 0xA4 DUP2 PUSH1 0x0 DUP11 GAS CALL SWAP1 DUP2 ISZERO PUSH2 0x17FF JUMPI PUSH1 0x0 SWAP2 PUSH2 0x177D JUMPI JUMPDEST POP PUSH32 0xFFFFFFFF00000000000000000000000000000000000000000000000000000000 PUSH32 0x1AEF01E100000000000000000000000000000000000000000000000000000000 SWAP2 AND SUB PUSH2 0x1733 JUMPI STOP JUMPDEST PUSH1 0xC4 SWAP6 PUSH1 0x40 MLOAD SWAP6 PUSH32 0xE9DB41CA00000000000000000000000000000000000000000000000000000000 DUP8 MSTORE PUSH1 0x4 DUP8 ADD MSTORE PUSH1 0x24 DUP7 ADD MSTORE PUSH1 0x44 DUP6 ADD MSTORE PUSH1 0x64 DUP5 ADD MSTORE PUSH1 0x84 DUP4 ADD MSTORE PUSH1 0xA4 DUP3 ADD MSTORE REVERT JUMPDEST PUSH1 0x20 DUP2 RETURNDATASIZE PUSH1 0x20 GT PUSH2 0x17F7 JUMPI JUMPDEST DUP2 PUSH2 0x1796 PUSH1 0x20 SWAP4 DUP4 PUSH2 0x258D JUMP JUMPDEST DUP2 ADD SUB SLT PUSH2 0x17F3 JUMPI MLOAD SWAP1 PUSH32 0xFFFFFFFF00000000000000000000000000000000000000000000000000000000 DUP3 AND DUP3 SUB PUSH2 0x17F0 JUMPI POP PUSH32 0xFFFFFFFF00000000000000000000000000000000000000000000000000000000 PUSH2 0x16E7 JUMP JUMPDEST DUP1 REVERT JUMPDEST POP DUP1 REVERT JUMPDEST RETURNDATASIZE SWAP2 POP PUSH2 0x1789 JUMP JUMPDEST PUSH1 0x40 MLOAD RETURNDATASIZE PUSH1 0x0 DUP3 RETURNDATACOPY RETURNDATASIZE SWAP1 REVERT JUMPDEST PUSH2 0x186D DUP7 PUSH20 0xFFFFFFFFFFFFFFFFFFFFFFFFFFFFFFFFFFFFFFFF PUSH32 0x4FB5F8CDFBCE77F22B0931A39E9F476A60A0F66524B2F379E96485471EB700AD SLOAD AND PUSH32 0x0 PUSH2 0x29B9 JUMP JUMPDEST PUSH2 0x15FE JUMP JUMPDEST PUSH32 0x4E487B7100000000000000000000000000000000000000000000000000000000 PUSH1 0x0 MSTORE PUSH1 0x11 PUSH1 0x4 MSTORE PUSH1 0x24 PUSH1 0x0 REVERT JUMPDEST DUP9 SUB PUSH2 0x18B0 JUMPI PUSH1 0x6 SWAP1 SWAP5 PUSH2 0x15BE JUMP JUMPDEST DUP8 DUP10 PUSH32 0xF99CA01200000000000000000000000000000000000000000000000000000000 PUSH1 0x0 MSTORE PUSH1 0x4 MSTORE PUSH1 0x24 MSTORE PUSH1 0x44 PUSH1 0x0 REVERT JUMPDEST DUP8 PUSH32 0xCD72358200000000000000000000000000000000000000000000000000000000 PUSH1 0x0 MSTORE PUSH1 0x4 MSTORE PUSH1 0x24 PUSH1 0x0 REVERT JUMPDEST POP DUP6 ISZERO ISZERO PUSH2 0x1576 JUMP JUMPDEST CALLVALUE PUSH2 0x29D JUMPI PUSH1 0x0 PUSH32 0xFFFFFFFFFFFFFFFFFFFFFFFFFFFFFFFFFFFFFFFFFFFFFFFFFFFFFFFFFFFFFFFC CALLDATASIZE ADD SLT PUSH2 0x29D JUMPI PUSH32 0xC9ED16F33AB3A66C84BFD83099CCB2A8845871E2E1C1928F63797152F0FD54CC SLOAD CALLER SWAP1 PUSH20 0xFFFFFFFFFFFFFFFFFFFFFFFFFFFFFFFFFFFFFFFF AND DUP2 SUB PUSH2 0x425 JUMPI PUSH32 0x186A05F63B1553398AD5EA3233C0CE68B8C9EECC47717F123C5C2B42FBD6D9E DUP1 SLOAD PUSH1 0xFF DUP2 AND ISZERO PUSH2 0x19FF JUMPI PUSH32 0xFFFFFFFFFFFFFFFFFFFFFFFFFFFFFFFFFFFFFFFFFFFFFFFFFFFFFFFFFFFFFF00 AND SWAP1 SSTORE PUSH32 0x7805862F689E2F13DF9F062FF482AD3AD112ACA9E0847911ED832E158C525B33 PUSH1 0x0 DUP1 LOG1 STOP JUMPDEST PUSH32 0x6CD6020100000000000000000000000000000000000000000000000000000000 PUSH1 0x0 MSTORE PUSH1 0x4 PUSH1 0x0 REVERT JUMPDEST CALLVALUE PUSH2 0x29D JUMPI PUSH1 0x20 PUSH32 0xFFFFFFFFFFFFFFFFFFFFFFFFFFFFFFFFFFFFFFFFFFFFFFFFFFFFFFFFFFFFFFFC CALLDATASIZE ADD SLT PUSH2 0x29D JUMPI PUSH1 0x4 CALLDATALOAD PUSH2 0x1A85 CALLER PUSH32 0xC8827D3282AF6F37B64C3E9E6F3AC9DF286AB0BB0FCCD6F8661BF19ADB368B22 PUSH2 0x28A7 JUMP JUMPDEST PUSH2 0x1A94 PUSH1 0x4 SLOAD DUP3 DUP1 DUP3 LT PUSH2 0x2A1D JUMP JUMPDEST PUSH1 0x3 SLOAD DUP2 PUSH1 0x3 SSTORE PUSH32 0x6ABF7E21D0157AC565825936F3D73FF3C4939140C08CDC99D445E4FA204007F0 PUSH1 0x0 DUP1 LOG3 STOP JUMPDEST CALLVALUE PUSH2 0x29D JUMPI PUSH1 0x0 PUSH32 0xFFFFFFFFFFFFFFFFFFFFFFFFFFFFFFFFFFFFFFFFFFFFFFFFFFFFFFFFFFFFFFFC CALLDATASIZE ADD SLT PUSH2 0x29D JUMPI PUSH1 0x20 PUSH20 0xFFFFFFFFFFFFFFFFFFFFFFFFFFFFFFFFFFFFFFFF PUSH1 0x2 SLOAD AND PUSH1 0x40 MLOAD SWAP1 DUP2 MSTORE RETURN JUMPDEST CALLVALUE PUSH2 0x29D JUMPI PUSH1 0x40 PUSH32 0xFFFFFFFFFFFFFFFFFFFFFFFFFFFFFFFFFFFFFFFFFFFFFFFFFFFFFFFFFFFFFFFC CALLDATASIZE ADD SLT PUSH2 0x29D JUMPI PUSH1 0x4 CALLDATALOAD PUSH2 0x1B4E PUSH2 0x2448 JUMP JUMPDEST SWAP1 PUSH20 0xFFFFFFFFFFFFFFFFFFFFFFFFFFFFFFFFFFFFFFFF PUSH32 0xC9ED16F33AB3A66C84BFD83099CCB2A8845871E2E1C1928F63797152F0FD54CC SLOAD AND PUSH20 0xFFFFFFFFFFFFFFFFFFFFFFFFFFFFFFFFFFFFFFFF CALLER AND SWAP1 DUP2 SUB PUSH2 0x425 JUMPI POP PUSH32 0xC8827D3282AF6F37B64C3E9E6F3AC9DF286AB0BB0FCCD6F8661BF19ADB368B22 SWAP2 DUP2 PUSH1 0x0 MSTORE DUP3 PUSH1 0x20 MSTORE PUSH1 0x40 PUSH1 0x0 KECCAK256 PUSH20 0xFFFFFFFFFFFFFFFFFFFFFFFFFFFFFFFFFFFFFFFF DUP3 AND PUSH1 0x0 MSTORE PUSH1 0x20 MSTORE PUSH1 0xFF PUSH1 0x40 PUSH1 0x0 KECCAK256 SLOAD AND ISZERO PUSH2 0x1C02 JUMPI STOP JUMPDEST PUSH1 0x0 DUP3 DUP2 MSTORE PUSH1 0x20 SWAP4 DUP5 MSTORE PUSH1 0x40 DUP1 DUP3 KECCAK256 PUSH20 0xFFFFFFFFFFFFFFFFFFFFFFFFFFFFFFFFFFFFFFFF SWAP4 SWAP1 SWAP4 AND DUP1 DUP4 MSTORE SWAP3 DUP6 MSTORE SWAP1 DUP2 SWAP1 KECCAK256 DUP1 SLOAD PUSH32 0xFFFFFFFFFFFFFFFFFFFFFFFFFFFFFFFFFFFFFFFFFFFFFFFFFFFFFFFFFFFFFF00 AND PUSH1 0x1 OR SWAP1 SSTORE DUP1 MLOAD SWAP3 DUP4 MSTORE SWAP3 DUP3 ADD MSTORE CALLER SWAP2 DUP2 ADD SWAP2 SWAP1 SWAP2 MSTORE PUSH32 0x2F8788117E7EFF1D82E926EC794901D17C78024A50270940304540A733656F0D SWAP1 DUP1 PUSH1 0x60 DUP2 ADD PUSH2 0x420 JUMP JUMPDEST CALLVALUE PUSH2 0x29D JUMPI PUSH1 0x20 PUSH32 0xFFFFFFFFFFFFFFFFFFFFFFFFFFFFFFFFFFFFFFFFFFFFFFFFFFFFFFFFFFFFFFFC CALLDATASIZE ADD SLT PUSH2 0x29D JUMPI PUSH1 0x4 CALLDATALOAD PUSH1 0x0 MSTORE PUSH1 0x5 PUSH1 0x20 MSTORE PUSH1 0x20 PUSH2 0x1D22 PUSH1 0x40 PUSH1 0x0 KECCAK256 PUSH20 0xFFFFFFFFFFFFFFFFFFFFFFFFFFFFFFFFFFFFFFFF DUP2 SLOAD AND SWAP1 PUSH20 0xFFFFFFFFFFFFFFFFFFFFFFFFFFFFFFFFFFFFFFFF PUSH1 0x1 DUP3 ADD SLOAD AND PUSH1 0x5 PUSH1 0x4 DUP4 ADD SLOAD SWAP3 ADD SLOAD SWAP3 PUSH2 0x2969 JUMP JUMPDEST PUSH1 0x40 MLOAD SWAP1 ISZERO ISZERO DUP2 MSTORE RETURN JUMPDEST CALLVALUE PUSH2 0x29D JUMPI PUSH1 0x0 PUSH32 0xFFFFFFFFFFFFFFFFFFFFFFFFFFFFFFFFFFFFFFFFFFFFFFFFFFFFFFFFFFFFFFFC CALLDATASIZE ADD SLT PUSH2 0x29D JUMPI PUSH1 0x20 PUSH1 0x40 MLOAD PUSH20 0xFFFFFFFFFFFFFFFFFFFFFFFFFFFFFFFFFFFFFFFF PUSH32 0x0 AND DUP2 MSTORE RETURN JUMPDEST CALLVALUE PUSH2 0x29D JUMPI PUSH1 0x0 PUSH32 0xFFFFFFFFFFFFFFFFFFFFFFFFFFFFFFFFFFFFFFFFFFFFFFFFFFFFFFFFFFFFFFFC CALLDATASIZE ADD SLT PUSH2 0x29D JUMPI PUSH1 0x20 PUSH1 0x4 SLOAD PUSH1 0x40 MLOAD SWAP1 DUP2 MSTORE RETURN JUMPDEST CALLVALUE PUSH2 0x29D JUMPI PUSH1 0x0 PUSH32 0xFFFFFFFFFFFFFFFFFFFFFFFFFFFFFFFFFFFFFFFFFFFFFFFFFFFFFFFFFFFFFFFC CALLDATASIZE ADD SLT PUSH2 0x29D JUMPI PUSH1 0x20 PUSH1 0x40 MLOAD PUSH32 0x7E056079185997E63584B574E7EDE2BC1C951A9914820D9497BB54F8C133FA47 DUP2 MSTORE RETURN JUMPDEST CALLVALUE PUSH2 0x29D JUMPI PUSH1 0x20 PUSH32 0xFFFFFFFFFFFFFFFFFFFFFFFFFFFFFFFFFFFFFFFFFFFFFFFFFFFFFFFFFFFFFFFC CALLDATASIZE ADD SLT PUSH2 0x29D JUMPI PUSH1 0x4 CALLDATALOAD PUSH2 0x1E8C CALLER PUSH32 0xC8827D3282AF6F37B64C3E9E6F3AC9DF286AB0BB0FCCD6F8661BF19ADB368B22 PUSH2 0x28A7 JUMP JUMPDEST PUSH2 0x1E9B DUP2 PUSH1 0x3 SLOAD DUP1 DUP3 LT PUSH2 0x2A1D JUMP JUMPDEST PUSH1 0x4 SLOAD DUP2 PUSH1 0x4 SSTORE PUSH32 0xD347E206F25A89B917FC9482F1A2D294D749BAA4DC9BDE7FB495EE11FE491643 PUSH1 0x0 DUP1 LOG3 STOP JUMPDEST CALLVALUE PUSH2 0x29D JUMPI PUSH1 0x20 PUSH32 0xFFFFFFFFFFFFFFFFFFFFFFFFFFFFFFFFFFFFFFFFFFFFFFFFFFFFFFFFFFFFFFFC CALLDATASIZE ADD SLT PUSH2 0x29D JUMPI PUSH1 0x4 CALLDATALOAD PUSH2 0x1F25 CALLER PUSH32 0xC8827D3282AF6F37B64C3E9E6F3AC9DF286AB0BB0FCCD6F8661BF19ADB368B22 PUSH2 0x28A7 JUMP JUMPDEST DUP1 PUSH1 0x0 MSTORE PUSH1 0x5 PUSH1 0x20 MSTORE PUSH1 0x40 PUSH1 0x0 KECCAK256 SWAP1 PUSH20 0xFFFFFFFFFFFFFFFFFFFFFFFFFFFFFFFFFFFFFFFF DUP3 SLOAD AND PUSH20 0xFFFFFFFFFFFFFFFFFFFFFFFFFFFFFFFFFFFFFFFF PUSH1 0x1 DUP5 ADD SLOAD AND SWAP3 PUSH1 0x4 DUP2 ADD SWAP2 DUP4 DUP4 SLOAD DUP1 SWAP5 PUSH1 0x0 PUSH1 0x6 PUSH1 0x5 DUP8 ADD SWAP7 PUSH2 0x1F8E DUP7 PUSH2 0xB87 DUP14 DUP12 SLOAD SWAP13 DUP14 SWAP2 DUP13 PUSH2 0x2969 JUMP JUMPDEST ADD SSTORE DUP2 PUSH2 0x1FF4 JUMPI JUMPDEST POP POP POP POP DUP2 PUSH2 0x1FA1 JUMPI STOP JUMPDEST PUSH32 0x7E8D9D00C67D0ECA419DA2AFAEB9897F1995CE74CA7E6E5DAB3F4C85C40721B1 SWAP2 PUSH1 0x0 PUSH1 0x20 SWAP3 SSTORE PUSH2 0xBFE DUP2 DUP7 PUSH32 0x0 PUSH2 0x29B9 JUMP JUMPDEST PUSH32 0x7E8D9D00C67D0ECA419DA2AFAEB9897F1995CE74CA7E6E5DAB3F4C85C40721B1 SWAP2 PUSH1 0x0 PUSH1 0x20 SWAP3 SSTORE PUSH2 0x2047 DUP2 DUP7 PUSH32 0x0 PUSH2 0x29B9 JUMP JUMPDEST PUSH1 0x40 MLOAD SWAP1 DUP2 MSTORE LOG3 DUP5 DUP4 DUP2 DUP1 PUSH2 0x1F96 JUMP JUMPDEST CALLVALUE PUSH2 0x29D JUMPI PUSH1 0x0 PUSH32 0xFFFFFFFFFFFFFFFFFFFFFFFFFFFFFFFFFFFFFFFFFFFFFFFFFFFFFFFFFFFFFFFC CALLDATASIZE ADD SLT PUSH2 0x29D JUMPI PUSH1 0x20 PUSH1 0x40 MLOAD PUSH32 0x453375E4F44BB00983DB3DDE1ABB6154E31C5AAB8FE14C7A4A55BB04FE1C3EB8 DUP2 MSTORE RETURN JUMPDEST CALLVALUE PUSH2 0x29D JUMPI PUSH2 0x2133 PUSH2 0xAF4 PUSH2 0xAFD PUSH2 0x20C7 CALLDATASIZE PUSH2 0x24BC JUMP JUMPDEST PUSH2 0xAEE PUSH1 0x40 SWAP8 SWAP5 SWAP6 SWAP4 SWAP8 SWAP7 SWAP3 SWAP7 MLOAD SWAP7 PUSH2 0xAE6 PUSH1 0x20 DUP10 ADD PUSH32 0x7E056079185997E63584B574E7EDE2BC1C951A9914820D9497BB54F8C133FA47 DUP2 MSTORE DUP9 PUSH1 0x40 DUP12 ADD MSTORE PUSH20 0xFFFFFFFFFFFFFFFFFFFFFFFFFFFFFFFFFFFFFFFF DUP12 AND SWAP10 DUP11 PUSH1 0x60 DUP3 ADD MSTORE PUSH1 0x60 DUP2 MSTORE PUSH2 0xADE PUSH1 0x80 DUP3 PUSH2 0x258D JUMP JUMPDEST DUP1 PUSH1 0x0 MSTORE PUSH1 0x5 PUSH1 0x20 MSTORE PUSH1 0x40 PUSH1 0x0 KECCAK256 SWAP3 PUSH20 0xFFFFFFFFFFFFFFFFFFFFFFFFFFFFFFFFFFFFFFFF DUP5 SLOAD AND SWAP4 PUSH20 0xFFFFFFFFFFFFFFFFFFFFFFFFFFFFFFFFFFFFFFFF PUSH1 0x1 DUP3 ADD SLOAD AND SWAP1 DUP6 ISZERO ISZERO DUP1 PUSH2 0x23D9 JUMPI JUMPDEST ISZERO PUSH2 0x23AB JUMPI DUP4 SWAP5 SWAP6 PUSH1 0x4 DUP3 ADD SWAP2 DUP3 SLOAD SWAP1 PUSH1 0x5 DUP2 ADD SWAP2 PUSH1 0x6 DUP4 SLOAD SWAP3 PUSH2 0x21AA DUP11 PUSH2 0xB87 DUP7 DUP7 DUP13 DUP12 PUSH2 0x2969 JUMP JUMPDEST ADD DUP1 SLOAD SWAP7 DUP8 ISZERO SWAP6 SWAP2 SWAP3 SWAP2 DUP7 PUSH2 0x22DD JUMPI DUP9 SWAP10 SWAP11 POP DUP13 SWAP9 SWAP6 SWAP7 SWAP8 SWAP9 EQ PUSH1 0x0 EQ PUSH2 0x2284 JUMPI POP DUP4 SWAP3 SWAP2 PUSH1 0x0 PUSH2 0x21DF PUSH2 0x21E7 SWAP7 DUP3 SWAP5 PUSH2 0x26E8 JUMP JUMPDEST SWAP9 SSTORE SSTORE PUSH2 0x26E8 JUMP JUMPDEST SWAP1 SSTORE JUMPDEST DUP3 PUSH1 0x1 SHL SWAP3 DUP4 DIV PUSH1 0x2 EQ OR ISZERO PUSH2 0x1872 JUMPI PUSH2 0xBFE DUP2 PUSH32 0x7E8D9D00C67D0ECA419DA2AFAEB9897F1995CE74CA7E6E5DAB3F4C85C40721B1 SWAP5 PUSH2 0x15FE PUSH1 0x20 SWAP6 PUSH20 0xFFFFFFFFFFFFFFFFFFFFFFFFFFFFFFFFFFFFFFFF PUSH32 0x4FB5F8CDFBCE77F22B0931A39E9F476A60A0F66524B2F379E96485471EB700AD SLOAD AND PUSH32 0x0 PUSH2 0x29B9 JUMP JUMPDEST SWAP5 SWAP7 SWAP5 SWAP3 SWAP4 POP SWAP1 SWAP2 DUP11 SUB PUSH2 0x22AB JUMPI PUSH1 0x0 DUP8 SWAP3 DUP2 PUSH2 0x21DF DUP6 PUSH2 0x22A4 SWAP8 PUSH2 0x26E8 JUMP JUMPDEST SWAP1 SSTORE PUSH2 0x21EA JUMP JUMPDEST DUP10 DUP10 PUSH32 0xF99CA01200000000000000000000000000000000000000000000000000000000 PUSH1 0x0 MSTORE PUSH1 0x4 MSTORE PUSH1 0x24 MSTORE PUSH1 0x44 PUSH1 0x0 REVERT JUMPDEST SWAP3 POP SWAP3 SWAP5 POP SWAP7 SWAP6 POP DUP10 EQ PUSH1 0x0 EQ PUSH2 0x2332 JUMPI POP POP POP DUP3 DUP3 PUSH1 0x0 PUSH2 0xBFE SWAP4 PUSH2 0x232C PUSH32 0x7E8D9D00C67D0ECA419DA2AFAEB9897F1995CE74CA7E6E5DAB3F4C85C40721B1 SWAP9 SWAP7 PUSH1 0x20 SWAP9 SWAP8 DUP9 SWAP7 ISZERO ISZERO PUSH2 0x2697 JUMP JUMPDEST SSTORE PUSH2 0x15FE JUMP JUMPDEST SWAP2 SWAP6 SWAP4 SWAP5 POP SWAP2 POP DUP7 SUB PUSH2 0x2379 JUMPI DUP4 DUP4 PUSH1 0x0 PUSH2 0xBFE SWAP4 PUSH2 0x232C PUSH1 0x20 SWAP8 PUSH32 0x7E8D9D00C67D0ECA419DA2AFAEB9897F1995CE74CA7E6E5DAB3F4C85C40721B1 SWAP10 SWAP8 DUP9 SWAP7 ISZERO ISZERO PUSH2 0x2697 JUMP JUMPDEST DUP6 DUP3 PUSH32 0xF99CA01200000000000000000000000000000000000000000000000000000000 PUSH1 0x0 MSTORE PUSH1 0x4 MSTORE PUSH1 0x24 MSTORE PUSH1 0x44 PUSH1 0x0 REVERT JUMPDEST DUP4 PUSH32 0xE4B1C23D00000000000000000000000000000000000000000000000000000000 PUSH1 0x0 MSTORE PUSH1 0x4 MSTORE PUSH1 0x24 PUSH1 0x0 REVERT JUMPDEST POP DUP2 ISZERO ISZERO PUSH2 0x2180 JUMP JUMPDEST CALLVALUE PUSH2 0x29D JUMPI PUSH1 0x20 PUSH32 0xFFFFFFFFFFFFFFFFFFFFFFFFFFFFFFFFFFFFFFFFFFFFFFFFFFFFFFFFFFFFFFFC CALLDATASIZE ADD SLT PUSH2 0x29D JUMPI PUSH1 0x4 CALLDATALOAD PUSH32 0xFFFFFFFF00000000000000000000000000000000000000000000000000000000 DUP2 AND DUP2 SUB PUSH2 0x29D JUMPI PUSH2 0x1D22 PUSH1 0x20 SWAP2 PUSH2 0x26F5 JUMP JUMPDEST PUSH1 0x24 CALLDATALOAD SWAP1 PUSH20 0xFFFFFFFFFFFFFFFFFFFFFFFFFFFFFFFFFFFFFFFF DUP3 AND DUP3 SUB PUSH2 0x29D JUMPI JUMP JUMPDEST PUSH1 0x4 CALLDATALOAD SWAP1 PUSH20 0xFFFFFFFFFFFFFFFFFFFFFFFFFFFFFFFFFFFFFFFF DUP3 AND DUP3 SUB PUSH2 0x29D JUMPI JUMP JUMPDEST SWAP2 DUP2 PUSH1 0x1F DUP5 ADD SLT ISZERO PUSH2 0x29D JUMPI DUP3 CALLDATALOAD SWAP2 PUSH8 0xFFFFFFFFFFFFFFFF DUP4 GT PUSH2 0x29D JUMPI PUSH1 0x20 DUP4 DUP2 DUP7 ADD SWAP6 ADD ADD GT PUSH2 0x29D JUMPI JUMP JUMPDEST PUSH1 0x60 PUSH32 0xFFFFFFFFFFFFFFFFFFFFFFFFFFFFFFFFFFFFFFFFFFFFFFFFFFFFFFFFFFFFFFFC DUP3 ADD SLT PUSH2 0x29D JUMPI PUSH1 0x4 CALLDATALOAD SWAP2 PUSH1 0x24 CALLDATALOAD PUSH20 0xFFFFFFFFFFFFFFFFFFFFFFFFFFFFFFFFFFFFFFFF DUP2 AND DUP2 SUB PUSH2 0x29D JUMPI SWAP2 PUSH1 0x44 CALLDATALOAD SWAP1 PUSH8 0xFFFFFFFFFFFFFFFF DUP3 GT PUSH2 0x29D JUMPI PUSH2 0x252A SWAP2 PUSH1 0x4 ADD PUSH2 0x248E JUMP JUMPDEST SWAP1 SWAP2 JUMP JUMPDEST SWAP2 SWAP1 DUP3 MLOAD SWAP3 DUP4 DUP3 MSTORE PUSH1 0x0 JUMPDEST DUP5 DUP2 LT PUSH2 0x2578 JUMPI POP POP PUSH32 0xFFFFFFFFFFFFFFFFFFFFFFFFFFFFFFFFFFFFFFFFFFFFFFFFFFFFFFFFFFFFFFE0 PUSH1 0x1F DUP5 PUSH1 0x0 PUSH1 0x20 DUP1 SWAP7 SWAP8 DUP7 ADD ADD MSTORE ADD AND ADD ADD SWAP1 JUMP JUMPDEST DUP1 PUSH1 0x20 DUP1 SWAP3 DUP5 ADD ADD MLOAD DUP3 DUP3 DUP7 ADD ADD MSTORE ADD PUSH2 0x2539 JUMP JUMPDEST SWAP1 PUSH1 0x1F PUSH32 0xFFFFFFFFFFFFFFFFFFFFFFFFFFFFFFFFFFFFFFFFFFFFFFFFFFFFFFFFFFFFFFE0 SWAP2 ADD AND DUP2 ADD SWAP1 DUP2 LT PUSH8 0xFFFFFFFFFFFFFFFF DUP3 GT OR PUSH2 0x25CE JUMPI PUSH1 0x40 MSTORE JUMP JUMPDEST PUSH32 0x4E487B7100000000000000000000000000000000000000000000000000000000 PUSH1 0x0 MSTORE PUSH1 0x41 PUSH1 0x4 MSTORE PUSH1 0x24 PUSH1 0x0 REVERT JUMPDEST SWAP3 SWAP2 SWAP3 PUSH8 0xFFFFFFFFFFFFFFFF DUP3 GT PUSH2 0x25CE JUMPI PUSH1 0x40 MLOAD SWAP2 PUSH2 0x2645 PUSH1 0x1F DUP3 ADD PUSH32 0xFFFFFFFFFFFFFFFFFFFFFFFFFFFFFFFFFFFFFFFFFFFFFFFFFFFFFFFFFFFFFFE0 AND PUSH1 0x20 ADD DUP5 PUSH2 0x258D JUMP JUMPDEST DUP3 SWAP5 DUP2 DUP5 MSTORE DUP2 DUP4 ADD GT PUSH2 0x29D JUMPI DUP3 DUP2 PUSH1 0x20 SWAP4 DUP5 PUSH1 0x0 SWAP7 ADD CALLDATACOPY ADD ADD MSTORE JUMP JUMPDEST ISZERO PUSH2 0x266A JUMPI POP JUMP JUMPDEST PUSH32 0x60A3DF5900000000000000000000000000000000000000000000000000000000 PUSH1 0x0 MSTORE PUSH1 0x4 MSTORE PUSH1 0x24 PUSH1 0x0 REVERT JUMPDEST ISZERO PUSH2 0x26A0 JUMPI POP POP JUMP JUMPDEST PUSH20 0xFFFFFFFFFFFFFFFFFFFFFFFFFFFFFFFFFFFFFFFF SWAP3 POP PUSH32 0x4956855000000000000000000000000000000000000000000000000000000000 PUSH1 0x0 MSTORE PUSH1 0x4 MSTORE AND PUSH1 0x24 MSTORE PUSH1 0x44 PUSH1 0x0 REVERT JUMPDEST SWAP2 SWAP1 DUP3 SUB SWAP2 DUP3 GT PUSH2 0x1872 JUMPI JUMP JUMPDEST PUSH32 0xFFFFFFFF00000000000000000000000000000000000000000000000000000000 AND PUSH32 0xFFFFFFFF00000000000000000000000000000000000000000000000000000000 DUP2 EQ PUSH2 0x279E JUMPI PUSH32 0x1FFC9A700000000000000000000000000000000000000000000000000000000 DUP2 EQ PUSH2 0x2798 JUMPI PUSH1 0x0 MSTORE PUSH32 0xCA9D3E17F264B0F3984E2634E94ADB37FA3E6A8103F06AEAE6FA59E21C769F5D PUSH1 0x20 MSTORE PUSH1 0xFF PUSH1 0x40 PUSH1 0x0 KECCAK256 SLOAD AND SWAP1 JUMP JUMPDEST POP PUSH1 0x1 SWAP1 JUMP JUMPDEST POP PUSH1 0x0 SWAP1 JUMP JUMPDEST PUSH1 0x42 SWAP1 PUSH2 0x27AF PUSH2 0x2ABD JUMP JUMPDEST SWAP1 PUSH1 0x40 MLOAD SWAP2 PUSH32 0x1901000000000000000000000000000000000000000000000000000000000000 DUP4 MSTORE PUSH1 0x2 DUP4 ADD MSTORE PUSH1 0x22 DUP3 ADD MSTORE KECCAK256 SWAP1 JUMP JUMPDEST PUSH32 0xAEF88082B8671E875D97D0D6C81D06FB9E76F97B3AD7523A55A378E5298AEEEE PUSH1 0x0 MSTORE PUSH1 0x20 MSTORE PUSH1 0x40 PUSH1 0x0 KECCAK256 PUSH20 0xFFFFFFFFFFFFFFFFFFFFFFFFFFFFFFFFFFFFFFFF DUP3 AND PUSH1 0x0 MSTORE PUSH1 0x20 MSTORE PUSH1 0xFF PUSH1 0x40 PUSH1 0x0 KECCAK256 SLOAD AND ISZERO PUSH2 0x283F JUMPI POP JUMP JUMPDEST PUSH20 0xFFFFFFFFFFFFFFFFFFFFFFFFFFFFFFFFFFFFFFFF SWAP1 PUSH32 0x7AA7288200000000000000000000000000000000000000000000000000000000 PUSH1 0x0 MSTORE PUSH32 0xAEF88082B8671E875D97D0D6C81D06FB9E76F97B3AD7523A55A378E5298AEEEE PUSH1 0x4 MSTORE AND PUSH1 0x24 MSTORE PUSH1 0x44 PUSH1 0x0 REVERT JUMPDEST PUSH32 0xA49807205CE4D355092EF5A8A18F56E8913CF4A201FBE287825B095693C21775 PUSH1 0x0 MSTORE PUSH1 0x20 MSTORE PUSH1 0x40 PUSH1 0x0 KECCAK256 PUSH20 0xFFFFFFFFFFFFFFFFFFFFFFFFFFFFFFFFFFFFFFFF DUP3 AND PUSH1 0x0 MSTORE PUSH1 0x20 MSTORE PUSH1 0xFF PUSH1 0x40 PUSH1 0x0 KECCAK256 SLOAD AND ISZERO PUSH2 0x2901 JUMPI POP JUMP JUMPDEST PUSH20 0xFFFFFFFFFFFFFFFFFFFFFFFFFFFFFFFFFFFFFFFF SWAP1 PUSH32 0x7AA7288200000000000000000000000000000000000000000000000000000000 PUSH1 0x0 MSTORE PUSH32 0xA49807205CE4D355092EF5A8A18F56E8913CF4A201FBE287825B095693C21775 PUSH1 0x4 MSTORE AND PUSH1 0x24 MSTORE PUSH1 0x44 PUSH1 0x0 REVERT JUMPDEST SWAP1 PUSH20 0xFFFFFFFFFFFFFFFFFFFFFFFFFFFFFFFFFFFFFFFF AND ISZERO PUSH2 0x2997 JUMPI POP ISZERO SWAP1 DUP2 PUSH2 0x2991 JUMPI POP SWAP1 JUMP JUMPDEST SWAP1 POP ISZERO SWAP1 JUMP JUMPDEST SWAP1 SWAP2 POP PUSH20 0xFFFFFFFFFFFFFFFFFFFFFFFFFFFFFFFFFFFFFFFF AND ISZERO PUSH2 0x279E JUMPI ISZERO SWAP1 JUMP JUMPDEST PUSH2 0x2A1B SWAP3 PUSH20 0xFFFFFFFFFFFFFFFFFFFFFFFFFFFFFFFFFFFFFFFF PUSH1 0x40 MLOAD SWAP4 PUSH32 0xA9059CBB00000000000000000000000000000000000000000000000000000000 PUSH1 0x20 DUP7 ADD MSTORE AND PUSH1 0x24 DUP5 ADD MSTORE PUSH1 0x44 DUP4 ADD MSTORE PUSH1 0x44 DUP3 MSTORE PUSH2 0x2A16 PUSH1 0x64 DUP4 PUSH2 0x258D JUMP JUMPDEST PUSH2 0x2D0E JUMP JUMPDEST JUMP JUMPDEST ISZERO PUSH2 0x2A26 JUMPI POP POP JUMP JUMPDEST PUSH32 0xFD27A5E400000000000000000000000000000000000000000000000000000000 PUSH1 0x0 MSTORE PUSH1 0x4 MSTORE PUSH1 0x24 MSTORE PUSH1 0x44 PUSH1 0x0 REVERT JUMPDEST SWAP1 SWAP2 SWAP3 PUSH20 0xFFFFFFFFFFFFFFFFFFFFFFFFFFFFFFFFFFFFFFFF PUSH2 0x2A1B SWAP5 DUP2 PUSH1 0x40 MLOAD SWAP6 PUSH32 0x23B872DD00000000000000000000000000000000000000000000000000000000 PUSH1 0x20 DUP9 ADD MSTORE AND PUSH1 0x24 DUP7 ADD MSTORE AND PUSH1 0x44 DUP5 ADD MSTORE PUSH1 0x64 DUP4 ADD MSTORE PUSH1 0x64 DUP3 MSTORE PUSH2 0x2A16 PUSH1 0x84 DUP4 PUSH2 0x258D JUMP JUMPDEST PUSH20 0xFFFFFFFFFFFFFFFFFFFFFFFFFFFFFFFFFFFFFFFF PUSH32 0x0 AND ADDRESS EQ DUP1 PUSH2 0x2BBD JUMPI JUMPDEST ISZERO PUSH2 0x2B25 JUMPI PUSH32 0x0 SWAP1 JUMP JUMPDEST PUSH1 0x40 MLOAD PUSH1 0x20 DUP2 ADD SWAP1 PUSH32 0x8B73C3C69BB8FE3D512ECC4CF759CC79239F7B179B0FFACAA9A75D522B39400F DUP3 MSTORE PUSH32 0x0 PUSH1 0x40 DUP3 ADD MSTORE PUSH32 0x0 PUSH1 0x60 DUP3 ADD MSTORE CHAINID PUSH1 0x80 DUP3 ADD MSTORE ADDRESS PUSH1 0xA0 DUP3 ADD MSTORE PUSH1 0xA0 DUP2 MSTORE PUSH2 0x2BB7 PUSH1 0xC0 DUP3 PUSH2 0x258D JUMP JUMPDEST MLOAD SWAP1 KECCAK256 SWAP1 JUMP JUMPDEST POP PUSH32 0x0 CHAINID EQ PUSH2 0x2AFC JUMP JUMPDEST DUP2 MLOAD SWAP2 SWAP1 PUSH1 0x41 DUP4 SUB PUSH2 0x2C17 JUMPI PUSH2 0x2C10 SWAP3 POP PUSH1 0x20 DUP3 ADD MLOAD SWAP1 PUSH1 0x60 PUSH1 0x40 DUP5 ADD MLOAD SWAP4 ADD MLOAD PUSH1 0x0 BYTE SWAP1 PUSH2 0x3006 JUMP JUMPDEST SWAP2 SWAP3 SWAP1 SWAP2 SWAP1 JUMP JUMPDEST POP POP PUSH1 0x0 SWAP2 PUSH1 0x2 SWAP2 SWAP1 JUMP JUMPDEST SWAP2 SWAP1 SWAP2 PUSH1 0x4 DUP2 LT ISZERO PUSH2 0x2CDF JUMPI DUP1 PUSH2 0x2C38 JUMPI POP SWAP1 POP JUMP JUMPDEST PUSH1 0x0 PUSH1 0x1 DUP3 SUB PUSH2 0x2C6C JUMPI PUSH32 0xF645EEDF00000000000000000000000000000000000000000000000000000000 PUSH1 0x0 MSTORE PUSH1 0x4 PUSH1 0x0 REVERT JUMPDEST POP PUSH1 0x2 DUP2 SUB PUSH2 0x2CA3 JUMPI DUP3 PUSH32 0xFCE698F700000000000000000000000000000000000000000000000000000000 PUSH1 0x0 MSTORE PUSH1 0x4 MSTORE PUSH1 0x24 PUSH1 0x0 REVERT JUMPDEST SWAP1 SWAP2 PUSH1 0x3 PUSH1 0x0 SWAP3 EQ PUSH2 0x2CB3 JUMPI POP POP JUMP JUMPDEST PUSH1 0x24 SWAP3 POP PUSH32 0xD78BCE0C00000000000000000000000000000000000000000000000000000000 DUP3 MSTORE PUSH1 0x4 MSTORE REVERT JUMPDEST PUSH32 0x4E487B7100000000000000000000000000000000000000000000000000000000 PUSH1 0x0 MSTORE PUSH1 0x21 PUSH1 0x4 MSTORE PUSH1 0x24 PUSH1 0x0 REVERT JUMPDEST SWAP1 PUSH1 0x0 PUSH1 0x20 SWAP2 DUP3 DUP2 MLOAD SWAP2 ADD DUP3 DUP6 GAS CALL ISZERO PUSH2 0x17FF JUMPI PUSH1 0x0 MLOAD RETURNDATASIZE PUSH2 0x2D90 JUMPI POP PUSH20 0xFFFFFFFFFFFFFFFFFFFFFFFFFFFFFFFFFFFFFFFF DUP2 AND EXTCODESIZE ISZERO JUMPDEST PUSH2 0x2D4C JUMPI POP JUMP JUMPDEST PUSH20 0xFFFFFFFFFFFFFFFFFFFFFFFFFFFFFFFFFFFFFFFF SWAP1 PUSH32 0x5274AFE700000000000000000000000000000000000000000000000000000000 PUSH1 0x0 MSTORE AND PUSH1 0x4 MSTORE PUSH1 0x24 PUSH1 0x0 REVERT JUMPDEST PUSH1 0x1 EQ ISZERO PUSH2 0x2D45 JUMP JUMPDEST PUSH1 0xFF DUP2 EQ PUSH2 0x2E1B JUMPI PUSH1 0xFF DUP2 AND SWAP1 PUSH1 0x1F DUP3 GT PUSH2 0x2DF1 JUMPI PUSH1 0x40 DUP1 MLOAD SWAP3 PUSH2 0x2DBD DUP3 DUP6 PUSH2 0x258D JUMP JUMPDEST PUSH1 0x20 DUP5 MSTORE PUSH32 0xFFFFFFFFFFFFFFFFFFFFFFFFFFFFFFFFFFFFFFFFFFFFFFFFFFFFFFFFFFFFFFE0 PUSH1 0x20 DUP6 ADD SWAP3 ADD CALLDATASIZE DUP4 CALLDATACOPY DUP4 MSTORE MSTORE SWAP1 JUMP JUMPDEST PUSH32 0xB3512B0C00000000000000000000000000000000000000000000000000000000 PUSH1 0x0 MSTORE PUSH1 0x4 PUSH1 0x0 REVERT JUMPDEST POP PUSH1 0x40 MLOAD PUSH1 0x0 DUP1 SLOAD SWAP1 DUP2 PUSH1 0x1 SHR SWAP2 PUSH1 0x1 DUP2 AND DUP1 ISZERO PUSH2 0x2F2A JUMPI JUMPDEST PUSH1 0x20 DUP5 LT DUP2 EQ PUSH2 0x2EFD JUMPI DUP4 DUP6 MSTORE DUP5 SWAP3 SWAP2 DUP2 ISZERO PUSH2 0x2EC0 JUMPI POP PUSH1 0x1 EQ PUSH2 0x2E62 JUMPI JUMPDEST PUSH2 0x2E5F SWAP3 POP SUB DUP3 PUSH2 0x258D JUMP JUMPDEST SWAP1 JUMP JUMPDEST POP PUSH1 0x0 DUP1 DUP1 MSTORE SWAP1 SWAP2 PUSH32 0x290DECD9548B62A8D60345A988386FC84BA6BC95484008F6362F93160EF3E563 JUMPDEST DUP2 DUP4 LT PUSH2 0x2EA4 JUMPI POP POP SWAP1 PUSH1 0x20 PUSH2 0x2E5F SWAP3 DUP3 ADD ADD PUSH2 0x2E53 JUMP JUMPDEST PUSH1 0x20 SWAP2 SWAP4 POP DUP1 PUSH1 0x1 SWAP2 SLOAD DUP4 DUP6 DUP9 ADD ADD MSTORE ADD SWAP2 ADD SWAP1 SWAP2 DUP4 SWAP3 PUSH2 0x2E8C JUMP JUMPDEST PUSH1 0x20 SWAP3 POP PUSH2 0x2E5F SWAP5 SWAP2 POP PUSH32 0xFFFFFFFFFFFFFFFFFFFFFFFFFFFFFFFFFFFFFFFFFFFFFFFFFFFFFFFFFFFFFF00 AND DUP3 DUP5 ADD MSTORE ISZERO ISZERO PUSH1 0x5 SHL DUP3 ADD ADD PUSH2 0x2E53 JUMP JUMPDEST PUSH1 0x24 DUP4 PUSH32 0x4E487B7100000000000000000000000000000000000000000000000000000000 DUP2 MSTORE PUSH1 0x22 PUSH1 0x4 MSTORE REVERT JUMPDEST SWAP3 PUSH1 0x7F AND SWAP3 PUSH2 0x2E34 JUMP JUMPDEST PUSH1 0xFF DUP2 EQ PUSH2 0x2F58 JUMPI PUSH1 0xFF DUP2 AND SWAP1 PUSH1 0x1F DUP3 GT PUSH2 0x2DF1 JUMPI PUSH1 0x40 DUP1 MLOAD SWAP3 PUSH2 0x2DBD DUP3 DUP6 PUSH2 0x258D JUMP JUMPDEST POP PUSH1 0x40 MLOAD PUSH1 0x0 PUSH1 0x1 SLOAD SWAP1 DUP2 PUSH1 0x1 SHR SWAP2 PUSH1 0x1 DUP2 AND DUP1 ISZERO PUSH2 0x2FFC JUMPI JUMPDEST PUSH1 0x20 DUP5 LT DUP2 EQ PUSH2 0x2EFD JUMPI DUP4 DUP6 MSTORE DUP5 SWAP3 SWAP2 DUP2 ISZERO PUSH2 0x2EC0 JUMPI POP PUSH1 0x1 EQ PUSH2 0x2F9C JUMPI PUSH2 0x2E5F SWAP3 POP SUB DUP3 PUSH2 0x258D JUMP JUMPDEST POP PUSH1 0x1 PUSH1 0x0 SWAP1 DUP2 MSTORE SWAP1 SWAP2 PUSH32 0xB10E2D527612073B26EECDFD717E6A320CF44B4AFAC2B0732D9FCBE2B7FA0CF6 JUMPDEST DUP2 DUP4 LT PUSH2 0x2FE0 JUMPI POP POP SWAP1 PUSH1 0x20 PUSH2 0x2E5F SWAP3 DUP3 ADD ADD PUSH2 0x2E53 JUMP JUMPDEST PUSH1 0x20 SWAP2 SWAP4 POP DUP1 PUSH1 0x1 SWAP2 SLOAD DUP4 DUP6 DUP9 ADD ADD MSTORE ADD SWAP2 ADD SWAP1 SWAP2 DUP4 SWAP3 PUSH2 0x2FC8 JUMP JUMPDEST SWAP3 PUSH1 0x7F AND SWAP3 PUSH2 0x2F72 JUMP JUMPDEST SWAP2 SWAP1 PUSH32 0x7FFFFFFFFFFFFFFFFFFFFFFFFFFFFFFF5D576E7357A4501DDFE92F46681B20A0 DUP5 GT PUSH2 0x3090 JUMPI SWAP2 PUSH1 0x20 SWAP4 PUSH1 0x80 SWAP3 PUSH1 0xFF PUSH1 0x0 SWAP6 PUSH1 0x40 MLOAD SWAP5 DUP6 MSTORE AND DUP7 DUP5 ADD MSTORE PUSH1 0x40 DUP4 ADD MSTORE PUSH1 0x60 DUP3 ADD MSTORE DUP3 DUP1 MSTORE PUSH1 0x1 GAS STATICCALL ISZERO PUSH2 0x17FF JUMPI PUSH1 0x0 MLOAD PUSH20 0xFFFFFFFFFFFFFFFFFFFFFFFFFFFFFFFFFFFFFFFF DUP2 AND ISZERO PUSH2 0x3084 JUMPI SWAP1 PUSH1 0x0 SWAP1 PUSH1 0x0 SWAP1 JUMP JUMPDEST POP PUSH1 0x0 SWAP1 PUSH1 0x1 SWAP1 PUSH1 0x0 SWAP1 JUMP JUMPDEST POP POP POP PUSH1 0x0 SWAP2 PUSH1 0x3 SWAP2 SWAP1 JUMP INVALID LOG2 PUSH5 0x6970667358 0x22 SLT KECCAK256 PUSH23 0x9FE29967E8A954FB2CD00014BDBD6D675545A7137A3531 RETURNCONTRACT 0xC3 COINBASE ADDRESS PUSH12 0xDA72A164736F6C634300081E STOP CALLER ADD DUP7 LOG0 PUSH0 PUSH4 0xB1553398 0xAD MCOPY LOG3 0x23 EXTCODECOPY 0xC DUPN 0x8B DUP13 SWAP15 EOFCREATE 0xC4 PUSH24 0x17F123C5C2B42FBD6D9E0000000000000000000000000000 "},"gasEstimates":{"creation":{"codeDepositCost":"2499600","executionCost":"infinite","totalCost":"infinite"},"external":{"ADMIN_ROLE()":"584","BUYIN_TOKEN()":"infinite","COMPLETE_MATCH_TYPEHASH()":"760","DRAW_MATCH_TYPEHASH()":"254","JOIN_MATCH_TYPEHASH()":"188","REFEREE_ROLE()":"782","REFUND_MATCH_TYPEHASH()":"804","buyIn()":"2577","completeMatch(uint256,address,bytes)":"infinite","drawMatch(uint256,address,bytes)":"infinite","eip712Domain()":"infinite","grantRole(bytes32,address)":"30786","hasRole(bytes32,address)":"3049","isMatchConcluded(uint256)":"8932","joinMatch(uint256,address,address,uint256,bytes)":"infinite","matchCompleteCallback()":"2473","matches(uint256)":"15404","owner()":"2825","pause()":"29839","paused()":"2633","payoutWallet()":"2759","platformFee()":"2379","refundMatch(uint256)":"infinite","refundMatch(uint256,address,bytes)":"infinite","renounceRole(bytes32)":"28904","revokeRole(bytes32,address)":"31250","setBuyIn(uint256)":"30530","setMatchCompleteCallback(address)":"28071","setPayoutWallet(address)":"27989","setPlatformFee(uint256)":"30376","supportsInterface(bytes4)":"2433","transferOwnership(address)":"28780","unpause()":"27516"},"internal":{"_isMatchConcluded(address,address,uint256,uint256)":"74","_setBuyIn(uint256)":"infinite","_setPlatformFee(uint256)":"infinite"}},"methodIdentifiers":{"ADMIN_ROLE()":"75b238fc","BUYIN_TOKEN()":"28521502","COMPLETE_MATCH_TYPEHASH()":"a51f054e","DRAW_MATCH_TYPEHASH()":"19b9413f","JOIN_MATCH_TYPEHASH()":"0a1a2a79","REFEREE_ROLE()":"af74bc14","REFUND_MATCH_TYPEHASH()":"bd9eb3b5","buyIn()":"53aab434","completeMatch(uint256,address,bytes)":"3f8c49d3","drawMatch(uint256,address,bytes)":"086116d1","eip712Domain()":"84b0196e","grantRole(bytes32,address)":"2f2ff15d","hasRole(bytes32,address)":"91d14854","isMatchConcluded(uint256)":"29ed45db","joinMatch(uint256,address,address,uint256,bytes)":"578b7d99","matchCompleteCallback()":"35b8ce93","matches(uint256)":"4768d4ef","owner()":"8da5cb5b","pause()":"8456cb59","paused()":"5c975abb","payoutWallet()":"8488bb4e","platformFee()":"26232a2e","refundMatch(uint256)":"105c4c49","refundMatch(uint256,address,bytes)":"80f752ad","renounceRole(bytes32)":"8bb9c5bf","revokeRole(bytes32,address)":"d547741f","setBuyIn(uint256)":"3b25637f","setMatchCompleteCallback(address)":"5d913d20","setPayoutWallet(address)":"6b8f9c43","setPlatformFee(uint256)":"12e8e2c3","supportsInterface(bytes4)":"01ffc9a7","transferOwnership(address)":"f2fde38b","unpause()":"3f4ba83a"}},"storageLayout":{"storage":[{"astId":4261,"contract":"contracts/game/Gambit.sol:Gambit","label":"_nameFallback","offset":0,"slot":"0","type":"t_string_storage"},{"astId":4263,"contract":"contracts/game/Gambit.sol:Gambit","label":"_versionFallback","offset":0,"slot":"1","type":"t_string_storage"},{"astId":8155,"contract":"contracts/game/Gambit.sol:Gambit","label":"matchCompleteCallback","offset":0,"slot":"2","type":"t_contract(IGambitMatchCompleteCallback)9643"},{"astId":8160,"contract":"contracts/game/Gambit.sol:Gambit","label":"buyIn","offset":0,"slot":"3","type":"t_uint256"},{"astId":8162,"contract":"contracts/game/Gambit.sol:Gambit","label":"platformFee","offset":0,"slot":"4","type":"t_uint256"},{"astId":8167,"contract":"contracts/game/Gambit.sol:Gambit","label":"matches","offset":0,"slot":"5","type":"t_mapping(t_uint256,t_struct(Match)8122_storage)"}],"types":{"t_address":{"encoding":"inplace","label":"address","numberOfBytes":"20"},"t_contract(IGambitMatchCompleteCallback)9643":{"encoding":"inplace","label":"contract IGambitMatchCompleteCallback","numberOfBytes":"20"},"t_mapping(t_uint256,t_struct(Match)8122_storage)":{"encoding":"mapping","key":"t_uint256","label":"mapping(uint256 => struct Gambit.Match)","numberOfBytes":"32","value":"t_struct(Match)8122_storage"},"t_string_storage":{"encoding":"bytes","label":"string","numberOfBytes":"32"},"t_struct(Match)8122_storage":{"encoding":"inplace","label":"struct Gambit.Match","members":[{"astId":8109,"contract":"contracts/game/Gambit.sol:Gambit","label":"p1","offset":0,"slot":"0","type":"t_address"},{"astId":8111,"contract":"contracts/game/Gambit.sol:Gambit","label":"p2","offset":0,"slot":"1","type":"t_address"},{"astId":8113,"contract":"contracts/game/Gambit.sol:Gambit","label":"p1MoveKey","offset":0,"slot":"2","type":"t_address"},{"astId":8115,"contract":"contracts/game/Gambit.sol:Gambit","label":"p2MoveKey","offset":0,"slot":"3","type":"t_address"},{"astId":8117,"contract":"contracts/game/Gambit.sol:Gambit","label":"p1Balance","offset":0,"slot":"4","type":"t_uint256"},{"astId":8119,"contract":"contracts/game/Gambit.sol:Gambit","label":"p2Balance","offset":0,"slot":"5","type":"t_uint256"},{"astId":8121,"contract":"contracts/game/Gambit.sol:Gambit","label":"platformFee","offset":0,"slot":"6","type":"t_uint256"}],"numberOfBytes":"224"},"t_uint256":{"encoding":"inplace","label":"uint256","numberOfBytes":"32"}}},"userdoc":{"errors":{"CallbackRejected(address,uint256,address,address,uint256,uint256)":[{"notice":"Thrown when a callback call fails."}],"IllegalInterfaceId()":[{"notice":"Thrown when setting the illegal interfaceId 0xffffffff."}],"InsufficientMatchBalance(uint256)":[{"notice":"Thrown when the match funds are insufficient to complete."}],"InsufficientPlayers(uint256)":[{"notice":"Thrown when the match does not have sufficient players to complete."}],"InvalidPlayerMoveKey()":[{"notice":"Thrown when the player move key is zero address."}],"MatchAlreadyConcluded(uint256)":[{"notice":"Thrown when the match has already concluded."}],"MatchIsFull(uint256)":[{"notice":"Thrown when the match is full."}],"NotContractOwner(address)":[{"notice":"Thrown when an account is not the contract owner but is required to."}],"NotMatchPlayer(uint256,address)":[{"notice":"Thrown when the player is not part of the match."}],"NotPaused()":[{"notice":"Thrown when the contract is not paused but is required to."}],"NotRoleHolder(bytes32,address)":[{"notice":"Thrown when an account does not have the required role."}],"Paused()":[{"notice":"Thrown when the contract is paused but is required not to."}],"PlayerAlreadyJoined(uint256,address)":[{"notice":"Thrown when the player has already joined the match."}],"PlayerAlreadyRefunded(uint256,address)":[{"notice":"Thrown when the match has already refunded a player."}],"ZeroAddressPayoutWallet()":[{"notice":"Thrown when setting the zero address as the payout wallet."}]},"events":{"BuyInUpdated(uint256,uint256)":{"notice":"Emitted when the buy-in amount is updated."},"MatchCompleteCallbackUpdated(address)":{"notice":"Emitted when the match complete callback is updated."},"MatchCompleted(uint256,address,uint256)":{"notice":"Emitted when a match is completed."},"MatchRefunded(uint256,address,uint256)":{"notice":"Emitted when a match is refunded."},"OwnershipTransferred(address,address)":{"notice":"Emitted when the contract ownership changes."},"Pause()":{"notice":"Emitted when the pause is triggered."},"PayoutWalletSet(address)":{"notice":"Emitted when the payout wallet address changes."},"PlatformFeeUpdated(uint256,uint256)":{"notice":"Emitted when the platform fee is updated."},"PlayerJoined(uint256,address,address,bool,uint256,uint256)":{"notice":"Emitted when a player joins a match."},"RoleGranted(bytes32,address,address)":{"notice":"Emitted when `role` is granted to `account`."},"RoleRevoked(bytes32,address,address)":{"notice":"Emitted when `role` is revoked from `account`."},"Unpause()":{"notice":"Emitted when the pause is lifted."}},"kind":"user","methods":{"completeMatch(uint256,address,bytes)":{"notice":"Completes a match by providing a signature"},"drawMatch(uint256,address,bytes)":{"notice":"Allows a player to declare a match as a draw and claim a refund of their buy-in amount minus the platform fee."},"grantRole(bytes32,address)":{"notice":"Grants a role to an account."},"hasRole(bytes32,address)":{"notice":"Retrieves whether an account has a role."},"isMatchConcluded(uint256)":{"notice":"Checks if a match is concluded."},"joinMatch(uint256,address,address,uint256,bytes)":{"notice":"Allows a player to join a match and escrow their buy-in amount."},"owner()":{"notice":"Gets the address of the contract owner."},"pause()":{"notice":"Pauses the contract."},"paused()":{"notice":"Gets the paused state of the contract."},"payoutWallet()":{"notice":"Gets the payout wallet."},"refundMatch(uint256)":{"notice":"Allows an admin to refund a match."},"refundMatch(uint256,address,bytes)":{"notice":"Allows a player to claim a refund for a match that has not concluded."},"renounceRole(bytes32)":{"notice":"Renounces a role by the sender."},"revokeRole(bytes32,address)":{"notice":"Revokes a role from an account."},"setBuyIn(uint256)":{"notice":"Sets the buy-in amount for matches."},"setMatchCompleteCallback(address)":{"notice":"Sets the match complete callback."},"setPayoutWallet(address)":{"notice":"Sets the payout wallet."},"setPlatformFee(uint256)":{"notice":"Sets the platform fee."},"supportsInterface(bytes4)":{"notice":"Returns whether this contract implements a given interface."},"transferOwnership(address)":{"notice":"Sets the address of the new contract owner."},"unpause()":{"notice":"Unpauses the contract."}},"version":1}}}}