{"contracts/mocks/game/GambitMatchCompleteCallbackMock.sol":{"GambitMatchCompleteCallbackMock":{"abi":[{"inputs":[{"internalType":"address","name":"gambit","type":"address"}],"stateMutability":"nonpayable","type":"constructor"},{"inputs":[{"internalType":"address","name":"caller","type":"address"}],"name":"IncorrectCallbackCaller","type":"error"},{"anonymous":false,"inputs":[{"indexed":true,"internalType":"uint256","name":"matchId","type":"uint256"},{"indexed":true,"internalType":"address","name":"winner","type":"address"},{"indexed":true,"internalType":"address","name":"loser","type":"address"},{"indexed":false,"internalType":"uint256","name":"prize","type":"uint256"},{"indexed":false,"internalType":"uint256","name":"fee","type":"uint256"}],"name":"OnMatchCompletedCalled","type":"event"},{"inputs":[],"name":"GAMBIT","outputs":[{"internalType":"address","name":"","type":"address"}],"stateMutability":"view","type":"function"},{"inputs":[{"internalType":"uint256","name":"matchId","type":"uint256"},{"internalType":"address","name":"winner","type":"address"},{"internalType":"address","name":"loser","type":"address"},{"internalType":"uint256","name":"prize","type":"uint256"},{"internalType":"uint256","name":"fee","type":"uint256"}],"name":"onMatchCompleted","outputs":[{"internalType":"bytes4","name":"","type":"bytes4"}],"stateMutability":"nonpayable","type":"function"}],"devdoc":{"kind":"dev","methods":{},"version":1},"evm":{"bytecode":{"linkReferences":{},"object":"60a034606c57601f6102a338819003918201601f19168301916001600160401b03831184841017607157808492602094604052833981010312606c57516001600160a01b0381168103606c5760805260405161021b90816100888239608051818181608001526101320152f35b600080fd5b634e487b7160e01b600052604160045260246000fdfe608080604052600436101561001357600080fd5b60003560e01c9081631aef01e1146100a9575063b989de131461003557600080fd5b346100a45760007ffffffffffffffffffffffffffffffffffffffffffffffffffffffffffffffffc3601126100a457602060405173ffffffffffffffffffffffffffffffffffffffff7f0000000000000000000000000000000000000000000000000000000000000000168152f35b600080fd5b346100a45760a07ffffffffffffffffffffffffffffffffffffffffffffffffffffffffffffffffc3601126100a45760243573ffffffffffffffffffffffffffffffffffffffff81168091036100a4576044359173ffffffffffffffffffffffffffffffffffffffff83168093036100a45773ffffffffffffffffffffffffffffffffffffffff7f00000000000000000000000000000000000000000000000000000000000000001633036101b757606435815260843560208201527f62340c5519c6fb4c94c46850178dc869ad6e117daa6db0835e6940bbec11c591604060043592a460206040517f1aef01e1000000000000000000000000000000000000000000000000000000008152f35b7fe588902b000000000000000000000000000000000000000000000000000000006000523360045260246000fdfea2646970667358221220500d84bfc2829a8b1b8022b674cdd5c61b52b9259e7b56a4ea7d34da9464f77764736f6c634300081e0033","opcodes":"PUSH1 0xA0 CALLVALUE PUSH1 0x6C JUMPI PUSH1 0x1F PUSH2 0x2A3 CODESIZE DUP2 SWAP1 SUB SWAP2 DUP3 ADD PUSH1 0x1F NOT AND DUP4 ADD SWAP2 PUSH1 0x1 PUSH1 0x1 PUSH1 0x40 SHL SUB DUP4 GT DUP5 DUP5 LT OR PUSH1 0x71 JUMPI DUP1 DUP5 SWAP3 PUSH1 0x20 SWAP5 PUSH1 0x40 MSTORE DUP4 CODECOPY DUP2 ADD SUB SLT PUSH1 0x6C JUMPI MLOAD PUSH1 0x1 PUSH1 0x1 PUSH1 0xA0 SHL SUB DUP2 AND DUP2 SUB PUSH1 0x6C JUMPI PUSH1 0x80 MSTORE PUSH1 0x40 MLOAD PUSH2 0x21B SWAP1 DUP2 PUSH2 0x88 DUP3 CODECOPY PUSH1 0x80 MLOAD DUP2 DUP2 DUP2 PUSH1 0x80 ADD MSTORE PUSH2 0x132 ADD MSTORE RETURN JUMPDEST PUSH1 0x0 DUP1 REVERT JUMPDEST PUSH4 0x4E487B71 PUSH1 0xE0 SHL PUSH1 0x0 MSTORE PUSH1 0x41 PUSH1 0x4 MSTORE PUSH1 0x24 PUSH1 0x0 REVERT INVALID PUSH1 0x80 DUP1 PUSH1 0x40 MSTORE PUSH1 0x4 CALLDATASIZE LT ISZERO PUSH2 0x13 JUMPI PUSH1 0x0 DUP1 REVERT JUMPDEST PUSH1 0x0 CALLDATALOAD PUSH1 0xE0 SHR SWAP1 DUP2 PUSH4 0x1AEF01E1 EQ PUSH2 0xA9 JUMPI POP PUSH4 0xB989DE13 EQ PUSH2 0x35 JUMPI PUSH1 0x0 DUP1 REVERT JUMPDEST CALLVALUE PUSH2 0xA4 JUMPI PUSH1 0x0 PUSH32 0xFFFFFFFFFFFFFFFFFFFFFFFFFFFFFFFFFFFFFFFFFFFFFFFFFFFFFFFFFFFFFFFC CALLDATASIZE ADD SLT PUSH2 0xA4 JUMPI PUSH1 0x20 PUSH1 0x40 MLOAD PUSH20 0xFFFFFFFFFFFFFFFFFFFFFFFFFFFFFFFFFFFFFFFF PUSH32 0x0 AND DUP2 MSTORE RETURN JUMPDEST PUSH1 0x0 DUP1 REVERT JUMPDEST CALLVALUE PUSH2 0xA4 JUMPI PUSH1 0xA0 PUSH32 0xFFFFFFFFFFFFFFFFFFFFFFFFFFFFFFFFFFFFFFFFFFFFFFFFFFFFFFFFFFFFFFFC CALLDATASIZE ADD SLT PUSH2 0xA4 JUMPI PUSH1 0x24 CALLDATALOAD PUSH20 0xFFFFFFFFFFFFFFFFFFFFFFFFFFFFFFFFFFFFFFFF DUP2 AND DUP1 SWAP2 SUB PUSH2 0xA4 JUMPI PUSH1 0x44 CALLDATALOAD SWAP2 PUSH20 0xFFFFFFFFFFFFFFFFFFFFFFFFFFFFFFFFFFFFFFFF DUP4 AND DUP1 SWAP4 SUB PUSH2 0xA4 JUMPI PUSH20 0xFFFFFFFFFFFFFFFFFFFFFFFFFFFFFFFFFFFFFFFF PUSH32 0x0 AND CALLER SUB PUSH2 0x1B7 JUMPI PUSH1 0x64 CALLDATALOAD DUP2 MSTORE PUSH1 0x84 CALLDATALOAD PUSH1 0x20 DUP3 ADD MSTORE PUSH32 0x62340C5519C6FB4C94C46850178DC869AD6E117DAA6DB0835E6940BBEC11C591 PUSH1 0x40 PUSH1 0x4 CALLDATALOAD SWAP3 LOG4 PUSH1 0x20 PUSH1 0x40 MLOAD PUSH32 0x1AEF01E100000000000000000000000000000000000000000000000000000000 DUP2 MSTORE RETURN JUMPDEST PUSH32 0xE588902B00000000000000000000000000000000000000000000000000000000 PUSH1 0x0 MSTORE CALLER PUSH1 0x4 MSTORE PUSH1 0x24 PUSH1 0x0 REVERT INVALID LOG2 PUSH5 0x6970667358 0x22 SLT KECCAK256 POP 0xD DUP5 0xBF 0xC2 DUP3 SWAP11 DUP12 SHL DUP1 0x22 0xB6 PUSH21 0xCDD5C61B52B9259E7B56A4EA7D34DA9464F7776473 PUSH16 0x6C634300081E00330000000000000000 "},"gasEstimates":{"creation":{"codeDepositCost":"107800","executionCost":"infinite","totalCost":"infinite"},"external":{"GAMBIT()":"infinite","onMatchCompleted(uint256,address,address,uint256,uint256)":"infinite"},"internal":{"_onMatchCompleted(uint256,address,address,uint256,uint256)":"infinite"}},"methodIdentifiers":{"GAMBIT()":"b989de13","onMatchCompleted(uint256,address,address,uint256,uint256)":"1aef01e1"}},"storageLayout":{"storage":[],"types":null},"userdoc":{"kind":"user","methods":{},"version":1}}}}