{"contracts/mocks/game/InvalidGambitMatchCompleteCallbackMock.sol":{"InvalidGambitMatchCompleteCallbackMock":{"abi":[{"inputs":[{"internalType":"address","name":"gambit","type":"address"}],"stateMutability":"nonpayable","type":"constructor"},{"inputs":[],"name":"GAMBIT","outputs":[{"internalType":"address","name":"","type":"address"}],"stateMutability":"view","type":"function"},{"inputs":[{"internalType":"uint256","name":"","type":"uint256"},{"internalType":"address","name":"","type":"address"},{"internalType":"address","name":"","type":"address"},{"internalType":"uint256","name":"","type":"uint256"},{"internalType":"uint256","name":"","type":"uint256"}],"name":"onMatchCompleted","outputs":[{"internalType":"bytes4","name":"","type":"bytes4"}],"stateMutability":"pure","type":"function"}],"devdoc":{"kind":"dev","methods":{},"version":1},"evm":{"bytecode":{"linkReferences":{},"object":"60a034606557601f6101f038819003918201601f19168301916001600160401b03831184841017606a57808492602094604052833981010312606557516001600160a01b038116810360655760805260405161016f908161008182396080518160800152f35b600080fd5b634e487b7160e01b600052604160045260246000fdfe608080604052600436101561001357600080fd5b60003560e01c9081631aef01e1146100a9575063b989de131461003557600080fd5b346100a45760007ffffffffffffffffffffffffffffffffffffffffffffffffffffffffffffffffc3601126100a457602060405173ffffffffffffffffffffffffffffffffffffffff7f0000000000000000000000000000000000000000000000000000000000000000168152f35b600080fd5b346100a45760a07ffffffffffffffffffffffffffffffffffffffffffffffffffffffffffffffffc3601126100a4576020906100e36100f3565b506100ec610116565b5060008152f35b6024359073ffffffffffffffffffffffffffffffffffffffff821682036100a457565b6044359073ffffffffffffffffffffffffffffffffffffffff821682036100a45756fea2646970667358221220b65c8a34336db1b7fd96e995d665c301d776bd9f7270dff0abdd2b727137cc5f64736f6c634300081e0033","opcodes":"PUSH1 0xA0 CALLVALUE PUSH1 0x65 JUMPI PUSH1 0x1F PUSH2 0x1F0 CODESIZE DUP2 SWAP1 SUB SWAP2 DUP3 ADD PUSH1 0x1F NOT AND DUP4 ADD SWAP2 PUSH1 0x1 PUSH1 0x1 PUSH1 0x40 SHL SUB DUP4 GT DUP5 DUP5 LT OR PUSH1 0x6A JUMPI DUP1 DUP5 SWAP3 PUSH1 0x20 SWAP5 PUSH1 0x40 MSTORE DUP4 CODECOPY DUP2 ADD SUB SLT PUSH1 0x65 JUMPI MLOAD PUSH1 0x1 PUSH1 0x1 PUSH1 0xA0 SHL SUB DUP2 AND DUP2 SUB PUSH1 0x65 JUMPI PUSH1 0x80 MSTORE PUSH1 0x40 MLOAD PUSH2 0x16F SWAP1 DUP2 PUSH2 0x81 DUP3 CODECOPY PUSH1 0x80 MLOAD DUP2 PUSH1 0x80 ADD MSTORE RETURN JUMPDEST PUSH1 0x0 DUP1 REVERT JUMPDEST PUSH4 0x4E487B71 PUSH1 0xE0 SHL PUSH1 0x0 MSTORE PUSH1 0x41 PUSH1 0x4 MSTORE PUSH1 0x24 PUSH1 0x0 REVERT INVALID PUSH1 0x80 DUP1 PUSH1 0x40 MSTORE PUSH1 0x4 CALLDATASIZE LT ISZERO PUSH2 0x13 JUMPI PUSH1 0x0 DUP1 REVERT JUMPDEST PUSH1 0x0 CALLDATALOAD PUSH1 0xE0 SHR SWAP1 DUP2 PUSH4 0x1AEF01E1 EQ PUSH2 0xA9 JUMPI POP PUSH4 0xB989DE13 EQ PUSH2 0x35 JUMPI PUSH1 0x0 DUP1 REVERT JUMPDEST CALLVALUE PUSH2 0xA4 JUMPI PUSH1 0x0 PUSH32 0xFFFFFFFFFFFFFFFFFFFFFFFFFFFFFFFFFFFFFFFFFFFFFFFFFFFFFFFFFFFFFFFC CALLDATASIZE ADD SLT PUSH2 0xA4 JUMPI PUSH1 0x20 PUSH1 0x40 MLOAD PUSH20 0xFFFFFFFFFFFFFFFFFFFFFFFFFFFFFFFFFFFFFFFF PUSH32 0x0 AND DUP2 MSTORE RETURN JUMPDEST PUSH1 0x0 DUP1 REVERT JUMPDEST CALLVALUE PUSH2 0xA4 JUMPI PUSH1 0xA0 PUSH32 0xFFFFFFFFFFFFFFFFFFFFFFFFFFFFFFFFFFFFFFFFFFFFFFFFFFFFFFFFFFFFFFFC CALLDATASIZE ADD SLT PUSH2 0xA4 JUMPI PUSH1 0x20 SWAP1 PUSH2 0xE3 PUSH2 0xF3 JUMP JUMPDEST POP PUSH2 0xEC PUSH2 0x116 JUMP JUMPDEST POP PUSH1 0x0 DUP2 MSTORE RETURN JUMPDEST PUSH1 0x24 CALLDATALOAD SWAP1 PUSH20 0xFFFFFFFFFFFFFFFFFFFFFFFFFFFFFFFFFFFFFFFF DUP3 AND DUP3 SUB PUSH2 0xA4 JUMPI JUMP JUMPDEST PUSH1 0x44 CALLDATALOAD SWAP1 PUSH20 0xFFFFFFFFFFFFFFFFFFFFFFFFFFFFFFFFFFFFFFFF DUP3 AND DUP3 SUB PUSH2 0xA4 JUMPI JUMP INVALID LOG2 PUSH5 0x6970667358 0x22 SLT KECCAK256 0xB6 TLOAD DUP11 CALLVALUE CALLER PUSH14 0xB1B7FD96E995D665C301D776BD9F PUSH19 0x70DFF0ABDD2B727137CC5F64736F6C63430008 0x1E STOP CALLER "},"gasEstimates":{"creation":{"codeDepositCost":"73400","executionCost":"infinite","totalCost":"infinite"},"external":{"GAMBIT()":"infinite","onMatchCompleted(uint256,address,address,uint256,uint256)":"273"}},"methodIdentifiers":{"GAMBIT()":"b989de13","onMatchCompleted(uint256,address,address,uint256,uint256)":"1aef01e1"}},"storageLayout":{"storage":[],"types":null},"userdoc":{"kind":"user","methods":{},"version":1}}}}