{"contracts/burn/OrbsBurnPool.sol":{"OrbsBurnPool":{"abi":[{"inputs":[{"internalType":"uint256","name":"initialTime","type":"uint256"},{"internalType":"uint256","name":"cycleDuration","type":"uint256"},{"internalType":"uint256","name":"maxCycle","type":"uint256"},{"internalType":"bytes32","name":"merkleRoot","type":"bytes32"},{"internalType":"contract IERC1155Burnable","name":"orbOfPower","type":"address"},{"internalType":"contract IERC1155Burnable","name":"missingOrb","type":"address"}],"stateMutability":"nonpayable","type":"constructor"},{"inputs":[{"internalType":"address","name":"wallet","type":"address"}],"name":"AlreadySetROCMultiplier","type":"error"},{"inputs":[],"name":"IllegalInterfaceId","type":"error"},{"inputs":[{"internalType":"uint256","name":"cycle","type":"uint256"}],"name":"InvalidCycle","type":"error"},{"inputs":[{"internalType":"address","name":"recipient","type":"address"},{"internalType":"uint256","name":"puzzleGameMultiplierNumerator","type":"uint256"}],"name":"InvalidProof","type":"error"},{"inputs":[{"internalType":"address","name":"token","type":"address"}],"name":"InvalidTokenAddress","type":"error"},{"inputs":[{"internalType":"address","name":"token","type":"address"},{"internalType":"uint256","name":"tokenId","type":"uint256"}],"name":"InvalidTokenId","type":"error"},{"inputs":[{"internalType":"address","name":"token","type":"address"},{"internalType":"uint256","name":"tokenId","type":"uint256"},{"internalType":"uint256","name":"value","type":"uint256"}],"name":"InvalidTokenValue","type":"error"},{"inputs":[],"name":"ZeroCycleDuration","type":"error"},{"inputs":[],"name":"ZeroMaxCycle","type":"error"},{"anonymous":false,"inputs":[{"indexed":true,"internalType":"address","name":"burner","type":"address"},{"indexed":true,"internalType":"uint256","name":"cycle","type":"uint256"},{"indexed":false,"internalType":"uint256[]","name":"ids","type":"uint256[]"},{"indexed":false,"internalType":"uint256[]","name":"values","type":"uint256[]"},{"indexed":false,"internalType":"uint256","name":"ash","type":"uint256"},{"indexed":false,"internalType":"uint256","name":"totalAsh","type":"uint256"},{"indexed":false,"internalType":"uint256","name":"orbMultiplier","type":"uint256"}],"name":"GenerateAsh","type":"event"},{"anonymous":false,"inputs":[{"indexed":true,"internalType":"address","name":"recipient","type":"address"},{"indexed":false,"internalType":"uint256","name":"curOrbMultiplier","type":"uint256"},{"indexed":false,"internalType":"uint256","name":"updatedOrbMultiplier","type":"uint256"}],"name":"UpdateOrbMultiplier","type":"event"},{"inputs":[],"name":"BURN_WEIGHT_TOKEN_1","outputs":[{"internalType":"uint256","name":"","type":"uint256"}],"stateMutability":"view","type":"function"},{"inputs":[],"name":"BURN_WEIGHT_TOKEN_2","outputs":[{"internalType":"uint256","name":"","type":"uint256"}],"stateMutability":"view","type":"function"},{"inputs":[],"name":"BURN_WEIGHT_TOKEN_3","outputs":[{"internalType":"uint256","name":"","type":"uint256"}],"stateMutability":"view","type":"function"},{"inputs":[],"name":"BURN_WEIGHT_TOKEN_4","outputs":[{"internalType":"uint256","name":"","type":"uint256"}],"stateMutability":"view","type":"function"},{"inputs":[],"name":"BURN_WEIGHT_TOKEN_5","outputs":[{"internalType":"uint256","name":"","type":"uint256"}],"stateMutability":"view","type":"function"},{"inputs":[],"name":"BURN_WEIGHT_TOKEN_6","outputs":[{"internalType":"uint256","name":"","type":"uint256"}],"stateMutability":"view","type":"function"},{"inputs":[],"name":"BURN_WEIGHT_TOKEN_7","outputs":[{"internalType":"uint256","name":"","type":"uint256"}],"stateMutability":"view","type":"function"},{"inputs":[],"name":"CYCLE_DURATION","outputs":[{"internalType":"uint256","name":"","type":"uint256"}],"stateMutability":"view","type":"function"},{"inputs":[],"name":"INITIAL_TIME","outputs":[{"internalType":"uint256","name":"","type":"uint256"}],"stateMutability":"view","type":"function"},{"inputs":[],"name":"MAX_CYCLE","outputs":[{"internalType":"uint256","name":"","type":"uint256"}],"stateMutability":"view","type":"function"},{"inputs":[],"name":"MERKLE_ROOT","outputs":[{"internalType":"bytes32","name":"","type":"bytes32"}],"stateMutability":"view","type":"function"},{"inputs":[],"name":"MISSING_ORB","outputs":[{"internalType":"contract IERC1155Burnable","name":"","type":"address"}],"stateMutability":"view","type":"function"},{"inputs":[],"name":"MISSING_ORB_TOKEN_ID","outputs":[{"internalType":"uint256","name":"","type":"uint256"}],"stateMutability":"view","type":"function"},{"inputs":[],"name":"ORB_OF_POWER","outputs":[{"internalType":"contract IERC1155Burnable","name":"","type":"address"}],"stateMutability":"view","type":"function"},{"inputs":[],"name":"ROC_MULTIPLIER","outputs":[{"internalType":"uint256","name":"","type":"uint256"}],"stateMutability":"view","type":"function"},{"inputs":[],"name":"currentCycle","outputs":[{"internalType":"uint256","name":"","type":"uint256"}],"stateMutability":"view","type":"function"},{"inputs":[{"internalType":"address","name":"","type":"address"},{"internalType":"address","name":"from","type":"address"},{"internalType":"uint256[]","name":"ids","type":"uint256[]"},{"internalType":"uint256[]","name":"values","type":"uint256[]"},{"internalType":"bytes","name":"data","type":"bytes"}],"name":"onERC1155BatchReceived","outputs":[{"internalType":"bytes4","name":"","type":"bytes4"}],"stateMutability":"nonpayable","type":"function"},{"inputs":[{"internalType":"address","name":"","type":"address"},{"internalType":"address","name":"from","type":"address"},{"internalType":"uint256","name":"id","type":"uint256"},{"internalType":"uint256","name":"value","type":"uint256"},{"internalType":"bytes","name":"data","type":"bytes"}],"name":"onERC1155Received","outputs":[{"internalType":"bytes4","name":"","type":"bytes4"}],"stateMutability":"nonpayable","type":"function"},{"inputs":[{"internalType":"address","name":"","type":"address"}],"name":"orbMultipliers","outputs":[{"internalType":"uint256","name":"","type":"uint256"}],"stateMutability":"view","type":"function"},{"inputs":[{"internalType":"bytes4","name":"interfaceId","type":"bytes4"}],"name":"supportsInterface","outputs":[{"internalType":"bool","name":"","type":"bool"}],"stateMutability":"view","type":"function"},{"inputs":[{"internalType":"uint256","name":"","type":"uint256"}],"name":"totalAshPerCycle","outputs":[{"internalType":"uint256","name":"","type":"uint256"}],"stateMutability":"view","type":"function"},{"inputs":[{"internalType":"uint256","name":"","type":"uint256"},{"internalType":"address","name":"","type":"address"}],"name":"userAshPerCycle","outputs":[{"internalType":"uint256","name":"","type":"uint256"}],"stateMutability":"view","type":"function"}],"devdoc":{"details":"This contract allows users to burn tokens and calculate rewards based on the amount of tokens burned.","kind":"dev","methods":{"constructor":{"details":"Throws if the cycle duration is zero.Throws if the max cycle is zero.","params":{"cycleDuration":"The duration of each cycle.","initialTime":"The initial time of the contract.","maxCycle":"The maximum cycle.","merkleRoot":"The Merkle root of the Puzzle Game multiplier claim.","missingOrb":"The IERC1155Burnable erc1155 missing orb contract for setting the token multiplier.","orbOfPower":"The IERC1155Burnable erc1155 contract burn to generate ASH."}},"currentCycle()":{"returns":{"_0":"cycle The current cycle."}},"onERC1155BatchReceived(address,address,uint256[],uint256[],bytes)":{"details":"Throws if the token is invalid.Throws if the cycle is invalid.Throws if the token ID is invalid.Throws if the token amount is invalid.","params":{"data":"The merkle proof data and multiplier value for setting the token multiplier.","from":"The wallet address.","ids":"The token IDs to burn.","values":"The amount of tokens to burn."},"returns":{"_0":"The ERC1155Received selector."}},"onERC1155Received(address,address,uint256,uint256,bytes)":{"details":"Throws if the token is invalid.Throws if the cycle is invalid.Throws if the token ID is invalid.Throws if the token amount is invalid.Throws if the token multiplier has already been set.","params":{"data":"The merkle proof data and multiplier value for setting the token multiplier.","from":"The wallet address.","id":"The token ID.","value":"The token value."},"returns":{"_0":"The ERC1155Received selector."}},"supportsInterface(bytes4)":{"details":"Note: This function call must use less than 30 000 gas.","params":{"interfaceId":"the interface identifier to test."},"returns":{"_0":"True if the interface is supported, false if `interfaceId` is `0xffffffff` or if the interface is not supported."}}},"title":"OrbsBurnPool Contract","version":1},"evm":{"bytecode":{"linkReferences":{},"object":"6101406040523480156200001257600080fd5b50604051620019803803806200198083398101604081905262000035916200017e565b62000055630271189760e51b60016200004d620000ce565b919062000104565b60c086905260008590036200007d5760405163b870efbd60e01b815260040160405180910390fd5b60e08590526000849003620000a557604051637e5e559b60e11b815260040160405180910390fd5b61010093909352610120919091526001600160a01b039081166080521660a05250620001fd9050565b600080620000fe60017fca9d3e17f264b0f3984e2634e94adb37fa3e6a8103f06aeae6fa59e21c769f5e620001db565b92915050565b600160e01b6001600160e01b031983160162000133576040516372c683bb60e01b815260040160405180910390fd5b6001600160e01b03199190911660009081526020929092526040909120805460ff1916911515919091179055565b80516001600160a01b03811681146200017957600080fd5b919050565b60008060008060008060c087890312156200019857600080fd5b86519550602087015194506040870151935060608701519250620001bf6080880162000161565b9150620001cf60a0880162000161565b90509295509295509295565b81810381811115620000fe57634e487b7160e01b600052601160045260246000fd5b60805160a05160c05160e05161010051610120516116f46200028c600039600081816102c70152818161093d0152610ec20152600081816101ca015281816104ca0152610cc301526000818161039101526103ec015260008181610275015261041001526000818161036a0152610bcf0152600081816102190152818161045e01526107e301526116f46000f3fe608060405234801561001057600080fd5b50600436106101825760003560e01c806351e75e8b116100d8578063bc197c811161008c578063cd421fbf11610066578063cd421fbf1461038c578063f23a6e61146103b3578063f95d1016146103c657600080fd5b8063bc197c8114610319578063c131754e1461035d578063cd18a34f1461036557600080fd5b8063aa918fd5116100bd578063aa918fd514610268578063ab504e73146102f1578063bab2f5521461031157600080fd5b806351e75e8b146102c257806355f5b0a8146102e957600080fd5b80631de0e40b1161013a578063424ab4f711610114578063424ab4f714610268578063491bde66146102705780634dac1c2b1461029757600080fd5b80631de0e40b146101af57806328a979cf146102145780633838a2011461026057600080fd5b8063043063bc1161016b578063043063bc146101c55780630455645a146101ec57806312828b7f146101f457600080fd5b806301ffc9a7146101875780630277640e146101af575b600080fd5b61019a61019536600461116a565b6103ce565b60405190151581526020015b60405180910390f35b6101b7600181565b6040519081526020016101a6565b6101b77f000000000000000000000000000000000000000000000000000000000000000081565b6101b7600581565b6101b76102023660046111d5565b60026020526000908152604090205481565b61023b7f000000000000000000000000000000000000000000000000000000000000000081565b60405173ffffffffffffffffffffffffffffffffffffffff90911681526020016101a6565b6101b7601981565b6101b7600381565b6101b77f000000000000000000000000000000000000000000000000000000000000000081565b6101b76102a53660046111f0565b600160209081526000928352604080842090915290825290205481565b6101b77f000000000000000000000000000000000000000000000000000000000000000081565b6101b7600281565b6101b76102ff36600461121c565b60006020819052908152604090205481565b6101b76103e8565b61032c6103273660046112c3565b610444565b6040517fffffffff0000000000000000000000000000000000000000000000000000000090911681526020016101a6565b6101b7601081565b61023b7f000000000000000000000000000000000000000000000000000000000000000081565b6101b77f000000000000000000000000000000000000000000000000000000000000000081565b61032c6103c136600461137e565b610bb5565b6101b7600981565b60006103e2826103dc610fd7565b90611005565b92915050565b60007f00000000000000000000000000000000000000000000000000000000000000006104357f000000000000000000000000000000000000000000000000000000000000000042611425565b61043f9190611438565b905090565b60003373ffffffffffffffffffffffffffffffffffffffff7f000000000000000000000000000000000000000000000000000000000000000016146104bc576040517f733068030000000000000000000000000000000000000000000000000000000081523360048201526024015b60405180910390fd5b60006104c66103e8565b90507f0000000000000000000000000000000000000000000000000000000000000000811115610525576040517f764e560f000000000000000000000000000000000000000000000000000000008152600481018290526024016104b3565b6040517f8053493400000000000000000000000000000000000000000000000000000000815233906380534934906105699030908c908c908c908c906004016114be565b600060405180830381600087803b15801561058357600080fd5b505af1158015610597573d6000803e3d6000fd5b505050506000805b88811015610875578787828181106105b9576105b961150d565b9050602002013560000361065357338a8a838181106105da576105da61150d565b905060200201358989848181106105f3576105f361150d565b6040517fe1f366e900000000000000000000000000000000000000000000000000000000815273ffffffffffffffffffffffffffffffffffffffff90951660048601526024850193909352506020909102013560448201526064016104b3565b8989828181106106655761066561150d565b905060200201356001036106a95760018888838181106106875761068761150d565b90506020020135610698919061153c565b6106a29083611553565b915061086d565b8989828181106106bb576106bb61150d565b905060200201356002036106dd5760038888838181106106875761068761150d565b8989828181106106ef576106ef61150d565b905060200201356003036107115760038888838181106106875761068761150d565b8989828181106107235761072361150d565b905060200201356004036107455760058888838181106106875761068761150d565b8989828181106107575761075761150d565b905060200201356005036107795760098888838181106106875761068761150d565b89898281811061078b5761078b61150d565b905060200201356006036107ad5760198888838181106106875761068761150d565b8989828181106107bf576107bf61150d565b905060200201356007036107e15760108888838181106106875761068761150d565b7f00000000000000000000000000000000000000000000000000000000000000008a8a838181106108145761081461150d565b6040517f1912ea5100000000000000000000000000000000000000000000000000000000815273ffffffffffffffffffffffffffffffffffffffff909416600485015260200291909101356024830152506044016104b3565b60010161059f565b5073ffffffffffffffffffffffffffffffffffffffff8a166000908152600260205260409020548a908515610a47576000806108b3888a018a611595565b91509150608083901c600003610a27576040517fffffffffffffffffffffffffffffffffffffffff000000000000000000000000606086901b16602082015260348101829052600090605401604080517fffffffffffffffffffffffffffffffffffffffffffffffffffffffffffffffe081840301815291905280516020909101209050610962837f0000000000000000000000000000000000000000000000000000000000000000836110df565b6109b7576040517fadbd651200000000000000000000000000000000000000000000000000000000815273ffffffffffffffffffffffffffffffffffffffff86166004820152602481018390526044016104b3565b73ffffffffffffffffffffffffffffffffffffffff8516600081815260026020908152604091829020608086901b881790819055825188815291820181905292917f528dfe447bc8e2a31cbcf22a36526a2fcc9ac2b2fc9a850ddaf575bb2aab3433910160405180910390a29350505b612710610a34828761153c565b610a3e9190611438565b94505050610a6e565b608081901c8015610a6c57612710610a5f828661153c565b610a699190611438565b93505b505b6fffffffffffffffffffffffffffffffff81168015610a9457610a91818561153c565b93505b600085815260016020908152604080832073ffffffffffffffffffffffffffffffffffffffff87168452909152812054610acf908690611553565b600087815260016020908152604080832073ffffffffffffffffffffffffffffffffffffffff89168452825280832084905589835290829052812080549293508792909190610b1f908490611553565b92505081905550858473ffffffffffffffffffffffffffffffffffffffff167f6e46cd5a8f4134e080f5038ee4632b01a585b6052863e4a1f0d5c57b1a35645b8f8f8f8f8b888b604051610b799796959493929190611677565b60405180910390a3507fbc197c81000000000000000000000000000000000000000000000000000000009e9d5050505050505050505050505050565b60003373ffffffffffffffffffffffffffffffffffffffff7f00000000000000000000000000000000000000000000000000000000000000001614610c28576040517f733068030000000000000000000000000000000000000000000000000000000081523360048201526024016104b3565b60018514610c6b576040517f1912ea51000000000000000000000000000000000000000000000000000000008152336004820152602481018690526044016104b3565b83600114610cb5576040517fe1f366e900000000000000000000000000000000000000000000000000000000815233600482015260248101869052604481018590526064016104b3565b6000610cbf6103e8565b90507f0000000000000000000000000000000000000000000000000000000000000000811115610d1e576040517f764e560f000000000000000000000000000000000000000000000000000000008152600481018290526024016104b3565b73ffffffffffffffffffffffffffffffffffffffff87166000908152600260205260409020546fffffffffffffffffffffffffffffffff811615610da6576040517f383b549300000000000000000000000000000000000000000000000000000000815273ffffffffffffffffffffffffffffffffffffffff891660048201526024016104b3565b6040517f124d91e50000000000000000000000000000000000000000000000000000000081523060048201526024810188905260448101879052339063124d91e590606401600060405180830381600087803b158015610e0557600080fd5b505af1158015610e19573d6000803e3d6000fd5b5050506002821790508415610f4657608082901c600003610f4657600080610e4387890189611595565b6040517fffffffffffffffffffffffffffffffffffffffff00000000000000000000000060608f901b166020820152603481018290529193509150600090605401604080517fffffffffffffffffffffffffffffffffffffffffffffffffffffffffffffffe081840301815291905280516020909101209050610ee7837f0000000000000000000000000000000000000000000000000000000000000000836110df565b610f3c576040517fadbd651200000000000000000000000000000000000000000000000000000000815273ffffffffffffffffffffffffffffffffffffffff8d166004820152602481018390526044016104b3565b5060801b90911790505b73ffffffffffffffffffffffffffffffffffffffff891660008181526002602090815260409182902084905581518581529081018490527f528dfe447bc8e2a31cbcf22a36526a2fcc9ac2b2fc9a850ddaf575bb2aab3433910160405180910390a2507ff23a6e61000000000000000000000000000000000000000000000000000000009998505050505050505050565b6000806103e260017fca9d3e17f264b0f3984e2634e94adb37fa3e6a8103f06aeae6fa59e21c769f5e611425565b60007c01000000000000000000000000000000000000000000000000000000007fffffffff00000000000000000000000000000000000000000000000000000000831601611055575060006103e2565b7ffe003659000000000000000000000000000000000000000000000000000000007fffffffff000000000000000000000000000000000000000000000000000000008316016110a6575060016103e2565b507fffffffff00000000000000000000000000000000000000000000000000000000166000908152602091909152604090205460ff1690565b6000826110ec85846110f5565b14949350505050565b600081815b845181101561113057611126828683815181106111195761111961150d565b6020026020010151611138565b91506001016110fa565b509392505050565b6000818310611154576000828152602084905260409020611163565b60008381526020839052604090205b9392505050565b60006020828403121561117c57600080fd5b81357fffffffff000000000000000000000000000000000000000000000000000000008116811461116357600080fd5b803573ffffffffffffffffffffffffffffffffffffffff811681146111d057600080fd5b919050565b6000602082840312156111e757600080fd5b611163826111ac565b6000806040838503121561120357600080fd5b82359150611213602084016111ac565b90509250929050565b60006020828403121561122e57600080fd5b5035919050565b60008083601f84011261124757600080fd5b50813567ffffffffffffffff81111561125f57600080fd5b6020830191508360208260051b850101111561127a57600080fd5b9250929050565b60008083601f84011261129357600080fd5b50813567ffffffffffffffff8111156112ab57600080fd5b60208301915083602082850101111561127a57600080fd5b60008060008060008060008060a0898b0312156112df57600080fd5b6112e8896111ac565b97506112f660208a016111ac565b9650604089013567ffffffffffffffff8082111561131357600080fd5b61131f8c838d01611235565b909850965060608b013591508082111561133857600080fd5b6113448c838d01611235565b909650945060808b013591508082111561135d57600080fd5b5061136a8b828c01611281565b999c989b5096995094979396929594505050565b60008060008060008060a0878903121561139757600080fd5b6113a0876111ac565b95506113ae602088016111ac565b94506040870135935060608701359250608087013567ffffffffffffffff8111156113d857600080fd5b6113e489828a01611281565b979a9699509497509295939492505050565b7f4e487b7100000000000000000000000000000000000000000000000000000000600052601160045260246000fd5b818103818111156103e2576103e26113f6565b60008261146e577f4e487b7100000000000000000000000000000000000000000000000000000000600052601260045260246000fd5b500490565b81835260007f07ffffffffffffffffffffffffffffffffffffffffffffffffffffffffffffff8311156114a557600080fd5b8260051b80836020870137939093016020019392505050565b73ffffffffffffffffffffffffffffffffffffffff861681526060602082015260006114ee606083018688611473565b8281036040840152611501818587611473565b98975050505050505050565b7f4e487b7100000000000000000000000000000000000000000000000000000000600052603260045260246000fd5b80820281158282048414176103e2576103e26113f6565b808201808211156103e2576103e26113f6565b7f4e487b7100000000000000000000000000000000000000000000000000000000600052604160045260246000fd5b600080604083850312156115a857600080fd5b823567ffffffffffffffff808211156115c057600080fd5b818501915085601f8301126115d457600080fd5b81356020828211156115e8576115e8611566565b8160051b6040517fffffffffffffffffffffffffffffffffffffffffffffffffffffffffffffffe0603f8301168101818110868211171561162b5761162b611566565b60405292835281830193508481018201928984111561164957600080fd5b948201945b838610156116675785358552948201949382019361164e565b9997909101359750505050505050565b60a08152600061168b60a08301898b611473565b828103602084015261169e81888a611473565b60408401969096525050606081019290925260809091015294935050505056fea2646970667358221220b761619cc0cd930ba131c535ad55e54ddd56a4e8f912ffe15867c1e495bb4ee364736f6c63430008160033","opcodes":"PUSH2 0x140 PUSH1 0x40 MSTORE CALLVALUE DUP1 ISZERO PUSH3 0x12 JUMPI PUSH1 0x0 DUP1 REVERT JUMPDEST POP PUSH1 0x40 MLOAD PUSH3 0x1980 CODESIZE SUB DUP1 PUSH3 0x1980 DUP4 CODECOPY DUP2 ADD PUSH1 0x40 DUP2 SWAP1 MSTORE PUSH3 0x35 SWAP2 PUSH3 0x17E JUMP JUMPDEST PUSH3 0x55 PUSH4 0x2711897 PUSH1 0xE5 SHL PUSH1 0x1 PUSH3 0x4D PUSH3 0xCE JUMP JUMPDEST SWAP2 SWAP1 PUSH3 0x104 JUMP JUMPDEST PUSH1 0xC0 DUP7 SWAP1 MSTORE PUSH1 0x0 DUP6 SWAP1 SUB PUSH3 0x7D JUMPI PUSH1 0x40 MLOAD PUSH4 0xB870EFBD PUSH1 0xE0 SHL DUP2 MSTORE PUSH1 0x4 ADD PUSH1 0x40 MLOAD DUP1 SWAP2 SUB SWAP1 REVERT JUMPDEST PUSH1 0xE0 DUP6 SWAP1 MSTORE PUSH1 0x0 DUP5 SWAP1 SUB PUSH3 0xA5 JUMPI PUSH1 0x40 MLOAD PUSH4 0x7E5E559B PUSH1 0xE1 SHL DUP2 MSTORE PUSH1 0x4 ADD PUSH1 0x40 MLOAD DUP1 SWAP2 SUB SWAP1 REVERT JUMPDEST PUSH2 0x100 SWAP4 SWAP1 SWAP4 MSTORE PUSH2 0x120 SWAP2 SWAP1 SWAP2 MSTORE PUSH1 0x1 PUSH1 0x1 PUSH1 0xA0 SHL SUB SWAP1 DUP2 AND PUSH1 0x80 MSTORE AND PUSH1 0xA0 MSTORE POP PUSH3 0x1FD SWAP1 POP JUMP JUMPDEST PUSH1 0x0 DUP1 PUSH3 0xFE PUSH1 0x1 PUSH32 0xCA9D3E17F264B0F3984E2634E94ADB37FA3E6A8103F06AEAE6FA59E21C769F5E PUSH3 0x1DB JUMP JUMPDEST SWAP3 SWAP2 POP POP JUMP JUMPDEST PUSH1 0x1 PUSH1 0xE0 SHL PUSH1 0x1 PUSH1 0x1 PUSH1 0xE0 SHL SUB NOT DUP4 AND ADD PUSH3 0x133 JUMPI PUSH1 0x40 MLOAD PUSH4 0x72C683BB PUSH1 0xE0 SHL DUP2 MSTORE PUSH1 0x4 ADD PUSH1 0x40 MLOAD DUP1 SWAP2 SUB SWAP1 REVERT JUMPDEST PUSH1 0x1 PUSH1 0x1 PUSH1 0xE0 SHL SUB NOT SWAP2 SWAP1 SWAP2 AND PUSH1 0x0 SWAP1 DUP2 MSTORE PUSH1 0x20 SWAP3 SWAP1 SWAP3 MSTORE PUSH1 0x40 SWAP1 SWAP2 KECCAK256 DUP1 SLOAD PUSH1 0xFF NOT AND SWAP2 ISZERO ISZERO SWAP2 SWAP1 SWAP2 OR SWAP1 SSTORE JUMP JUMPDEST DUP1 MLOAD PUSH1 0x1 PUSH1 0x1 PUSH1 0xA0 SHL SUB DUP2 AND DUP2 EQ PUSH3 0x179 JUMPI PUSH1 0x0 DUP1 REVERT JUMPDEST SWAP2 SWAP1 POP JUMP JUMPDEST PUSH1 0x0 DUP1 PUSH1 0x0 DUP1 PUSH1 0x0 DUP1 PUSH1 0xC0 DUP8 DUP10 SUB SLT ISZERO PUSH3 0x198 JUMPI PUSH1 0x0 DUP1 REVERT JUMPDEST DUP7 MLOAD SWAP6 POP PUSH1 0x20 DUP8 ADD MLOAD SWAP5 POP PUSH1 0x40 DUP8 ADD MLOAD SWAP4 POP PUSH1 0x60 DUP8 ADD MLOAD SWAP3 POP PUSH3 0x1BF PUSH1 0x80 DUP9 ADD PUSH3 0x161 JUMP JUMPDEST SWAP2 POP PUSH3 0x1CF PUSH1 0xA0 DUP9 ADD PUSH3 0x161 JUMP JUMPDEST SWAP1 POP SWAP3 SWAP6 POP SWAP3 SWAP6 POP SWAP3 SWAP6 JUMP JUMPDEST DUP2 DUP2 SUB DUP2 DUP2 GT ISZERO PUSH3 0xFE JUMPI PUSH4 0x4E487B71 PUSH1 0xE0 SHL PUSH1 0x0 MSTORE PUSH1 0x11 PUSH1 0x4 MSTORE PUSH1 0x24 PUSH1 0x0 REVERT JUMPDEST PUSH1 0x80 MLOAD PUSH1 0xA0 MLOAD PUSH1 0xC0 MLOAD PUSH1 0xE0 MLOAD PUSH2 0x100 MLOAD PUSH2 0x120 MLOAD PUSH2 0x16F4 PUSH3 0x28C PUSH1 0x0 CODECOPY PUSH1 0x0 DUP2 DUP2 PUSH2 0x2C7 ADD MSTORE DUP2 DUP2 PUSH2 0x93D ADD MSTORE PUSH2 0xEC2 ADD MSTORE PUSH1 0x0 DUP2 DUP2 PUSH2 0x1CA ADD MSTORE DUP2 DUP2 PUSH2 0x4CA ADD MSTORE PUSH2 0xCC3 ADD MSTORE PUSH1 0x0 DUP2 DUP2 PUSH2 0x391 ADD MSTORE PUSH2 0x3EC ADD MSTORE PUSH1 0x0 DUP2 DUP2 PUSH2 0x275 ADD MSTORE PUSH2 0x410 ADD MSTORE PUSH1 0x0 DUP2 DUP2 PUSH2 0x36A ADD MSTORE PUSH2 0xBCF ADD MSTORE PUSH1 0x0 DUP2 DUP2 PUSH2 0x219 ADD MSTORE DUP2 DUP2 PUSH2 0x45E ADD MSTORE PUSH2 0x7E3 ADD MSTORE PUSH2 0x16F4 PUSH1 0x0 RETURN INVALID PUSH1 0x80 PUSH1 0x40 MSTORE CALLVALUE DUP1 ISZERO PUSH2 0x10 JUMPI PUSH1 0x0 DUP1 REVERT JUMPDEST POP PUSH1 0x4 CALLDATASIZE LT PUSH2 0x182 JUMPI PUSH1 0x0 CALLDATALOAD PUSH1 0xE0 SHR DUP1 PUSH4 0x51E75E8B GT PUSH2 0xD8 JUMPI DUP1 PUSH4 0xBC197C81 GT PUSH2 0x8C JUMPI DUP1 PUSH4 0xCD421FBF GT PUSH2 0x66 JUMPI DUP1 PUSH4 0xCD421FBF EQ PUSH2 0x38C JUMPI DUP1 PUSH4 0xF23A6E61 EQ PUSH2 0x3B3 JUMPI DUP1 PUSH4 0xF95D1016 EQ PUSH2 0x3C6 JUMPI PUSH1 0x0 DUP1 REVERT JUMPDEST DUP1 PUSH4 0xBC197C81 EQ PUSH2 0x319 JUMPI DUP1 PUSH4 0xC131754E EQ PUSH2 0x35D JUMPI DUP1 PUSH4 0xCD18A34F EQ PUSH2 0x365 JUMPI PUSH1 0x0 DUP1 REVERT JUMPDEST DUP1 PUSH4 0xAA918FD5 GT PUSH2 0xBD JUMPI DUP1 PUSH4 0xAA918FD5 EQ PUSH2 0x268 JUMPI DUP1 PUSH4 0xAB504E73 EQ PUSH2 0x2F1 JUMPI DUP1 PUSH4 0xBAB2F552 EQ PUSH2 0x311 JUMPI PUSH1 0x0 DUP1 REVERT JUMPDEST DUP1 PUSH4 0x51E75E8B EQ PUSH2 0x2C2 JUMPI DUP1 PUSH4 0x55F5B0A8 EQ PUSH2 0x2E9 JUMPI PUSH1 0x0 DUP1 REVERT JUMPDEST DUP1 PUSH4 0x1DE0E40B GT PUSH2 0x13A JUMPI DUP1 PUSH4 0x424AB4F7 GT PUSH2 0x114 JUMPI DUP1 PUSH4 0x424AB4F7 EQ PUSH2 0x268 JUMPI DUP1 PUSH4 0x491BDE66 EQ PUSH2 0x270 JUMPI DUP1 PUSH4 0x4DAC1C2B EQ PUSH2 0x297 JUMPI PUSH1 0x0 DUP1 REVERT JUMPDEST DUP1 PUSH4 0x1DE0E40B EQ PUSH2 0x1AF JUMPI DUP1 PUSH4 0x28A979CF EQ PUSH2 0x214 JUMPI DUP1 PUSH4 0x3838A201 EQ PUSH2 0x260 JUMPI PUSH1 0x0 DUP1 REVERT JUMPDEST DUP1 PUSH4 0x43063BC GT PUSH2 0x16B JUMPI DUP1 PUSH4 0x43063BC EQ PUSH2 0x1C5 JUMPI DUP1 PUSH4 0x455645A EQ PUSH2 0x1EC JUMPI DUP1 PUSH4 0x12828B7F EQ PUSH2 0x1F4 JUMPI PUSH1 0x0 DUP1 REVERT JUMPDEST DUP1 PUSH4 0x1FFC9A7 EQ PUSH2 0x187 JUMPI DUP1 PUSH4 0x277640E EQ PUSH2 0x1AF JUMPI JUMPDEST PUSH1 0x0 DUP1 REVERT JUMPDEST PUSH2 0x19A PUSH2 0x195 CALLDATASIZE PUSH1 0x4 PUSH2 0x116A JUMP JUMPDEST PUSH2 0x3CE JUMP JUMPDEST PUSH1 0x40 MLOAD SWAP1 ISZERO ISZERO DUP2 MSTORE PUSH1 0x20 ADD JUMPDEST PUSH1 0x40 MLOAD DUP1 SWAP2 SUB SWAP1 RETURN JUMPDEST PUSH2 0x1B7 PUSH1 0x1 DUP2 JUMP JUMPDEST PUSH1 0x40 MLOAD SWAP1 DUP2 MSTORE PUSH1 0x20 ADD PUSH2 0x1A6 JUMP JUMPDEST PUSH2 0x1B7 PUSH32 0x0 DUP2 JUMP JUMPDEST PUSH2 0x1B7 PUSH1 0x5 DUP2 JUMP JUMPDEST PUSH2 0x1B7 PUSH2 0x202 CALLDATASIZE PUSH1 0x4 PUSH2 0x11D5 JUMP JUMPDEST PUSH1 0x2 PUSH1 0x20 MSTORE PUSH1 0x0 SWAP1 DUP2 MSTORE PUSH1 0x40 SWAP1 KECCAK256 SLOAD DUP2 JUMP JUMPDEST PUSH2 0x23B PUSH32 0x0 DUP2 JUMP JUMPDEST PUSH1 0x40 MLOAD PUSH20 0xFFFFFFFFFFFFFFFFFFFFFFFFFFFFFFFFFFFFFFFF SWAP1 SWAP2 AND DUP2 MSTORE PUSH1 0x20 ADD PUSH2 0x1A6 JUMP JUMPDEST PUSH2 0x1B7 PUSH1 0x19 DUP2 JUMP JUMPDEST PUSH2 0x1B7 PUSH1 0x3 DUP2 JUMP JUMPDEST PUSH2 0x1B7 PUSH32 0x0 DUP2 JUMP JUMPDEST PUSH2 0x1B7 PUSH2 0x2A5 CALLDATASIZE PUSH1 0x4 PUSH2 0x11F0 JUMP JUMPDEST PUSH1 0x1 PUSH1 0x20 SWAP1 DUP2 MSTORE PUSH1 0x0 SWAP3 DUP4 MSTORE PUSH1 0x40 DUP1 DUP5 KECCAK256 SWAP1 SWAP2 MSTORE SWAP1 DUP3 MSTORE SWAP1 KECCAK256 SLOAD DUP2 JUMP JUMPDEST PUSH2 0x1B7 PUSH32 0x0 DUP2 JUMP JUMPDEST PUSH2 0x1B7 PUSH1 0x2 DUP2 JUMP JUMPDEST PUSH2 0x1B7 PUSH2 0x2FF CALLDATASIZE PUSH1 0x4 PUSH2 0x121C JUMP JUMPDEST PUSH1 0x0 PUSH1 0x20 DUP2 SWAP1 MSTORE SWAP1 DUP2 MSTORE PUSH1 0x40 SWAP1 KECCAK256 SLOAD DUP2 JUMP JUMPDEST PUSH2 0x1B7 PUSH2 0x3E8 JUMP JUMPDEST PUSH2 0x32C PUSH2 0x327 CALLDATASIZE PUSH1 0x4 PUSH2 0x12C3 JUMP JUMPDEST PUSH2 0x444 JUMP JUMPDEST PUSH1 0x40 MLOAD PUSH32 0xFFFFFFFF00000000000000000000000000000000000000000000000000000000 SWAP1 SWAP2 AND DUP2 MSTORE PUSH1 0x20 ADD PUSH2 0x1A6 JUMP JUMPDEST PUSH2 0x1B7 PUSH1 0x10 DUP2 JUMP JUMPDEST PUSH2 0x23B PUSH32 0x0 DUP2 JUMP JUMPDEST PUSH2 0x1B7 PUSH32 0x0 DUP2 JUMP JUMPDEST PUSH2 0x32C PUSH2 0x3C1 CALLDATASIZE PUSH1 0x4 PUSH2 0x137E JUMP JUMPDEST PUSH2 0xBB5 JUMP JUMPDEST PUSH2 0x1B7 PUSH1 0x9 DUP2 JUMP JUMPDEST PUSH1 0x0 PUSH2 0x3E2 DUP3 PUSH2 0x3DC PUSH2 0xFD7 JUMP JUMPDEST SWAP1 PUSH2 0x1005 JUMP JUMPDEST SWAP3 SWAP2 POP POP JUMP JUMPDEST PUSH1 0x0 PUSH32 0x0 PUSH2 0x435 PUSH32 0x0 TIMESTAMP PUSH2 0x1425 JUMP JUMPDEST PUSH2 0x43F SWAP2 SWAP1 PUSH2 0x1438 JUMP JUMPDEST SWAP1 POP SWAP1 JUMP JUMPDEST PUSH1 0x0 CALLER PUSH20 0xFFFFFFFFFFFFFFFFFFFFFFFFFFFFFFFFFFFFFFFF PUSH32 0x0 AND EQ PUSH2 0x4BC JUMPI PUSH1 0x40 MLOAD PUSH32 0x7330680300000000000000000000000000000000000000000000000000000000 DUP2 MSTORE CALLER PUSH1 0x4 DUP3 ADD MSTORE PUSH1 0x24 ADD JUMPDEST PUSH1 0x40 MLOAD DUP1 SWAP2 SUB SWAP1 REVERT JUMPDEST PUSH1 0x0 PUSH2 0x4C6 PUSH2 0x3E8 JUMP JUMPDEST SWAP1 POP PUSH32 0x0 DUP2 GT ISZERO PUSH2 0x525 JUMPI PUSH1 0x40 MLOAD PUSH32 0x764E560F00000000000000000000000000000000000000000000000000000000 DUP2 MSTORE PUSH1 0x4 DUP2 ADD DUP3 SWAP1 MSTORE PUSH1 0x24 ADD PUSH2 0x4B3 JUMP JUMPDEST PUSH1 0x40 MLOAD PUSH32 0x8053493400000000000000000000000000000000000000000000000000000000 DUP2 MSTORE CALLER SWAP1 PUSH4 0x80534934 SWAP1 PUSH2 0x569 SWAP1 ADDRESS SWAP1 DUP13 SWAP1 DUP13 SWAP1 DUP13 SWAP1 DUP13 SWAP1 PUSH1 0x4 ADD PUSH2 0x14BE JUMP JUMPDEST PUSH1 0x0 PUSH1 0x40 MLOAD DUP1 DUP4 SUB DUP2 PUSH1 0x0 DUP8 DUP1 EXTCODESIZE ISZERO DUP1 ISZERO PUSH2 0x583 JUMPI PUSH1 0x0 DUP1 REVERT JUMPDEST POP GAS CALL ISZERO DUP1 ISZERO PUSH2 0x597 JUMPI RETURNDATASIZE PUSH1 0x0 DUP1 RETURNDATACOPY RETURNDATASIZE PUSH1 0x0 REVERT JUMPDEST POP POP POP POP PUSH1 0x0 DUP1 JUMPDEST DUP9 DUP2 LT ISZERO PUSH2 0x875 JUMPI DUP8 DUP8 DUP3 DUP2 DUP2 LT PUSH2 0x5B9 JUMPI PUSH2 0x5B9 PUSH2 0x150D JUMP JUMPDEST SWAP1 POP PUSH1 0x20 MUL ADD CALLDATALOAD PUSH1 0x0 SUB PUSH2 0x653 JUMPI CALLER DUP11 DUP11 DUP4 DUP2 DUP2 LT PUSH2 0x5DA JUMPI PUSH2 0x5DA PUSH2 0x150D JUMP JUMPDEST SWAP1 POP PUSH1 0x20 MUL ADD CALLDATALOAD DUP10 DUP10 DUP5 DUP2 DUP2 LT PUSH2 0x5F3 JUMPI PUSH2 0x5F3 PUSH2 0x150D JUMP JUMPDEST PUSH1 0x40 MLOAD PUSH32 0xE1F366E900000000000000000000000000000000000000000000000000000000 DUP2 MSTORE PUSH20 0xFFFFFFFFFFFFFFFFFFFFFFFFFFFFFFFFFFFFFFFF SWAP1 SWAP6 AND PUSH1 0x4 DUP7 ADD MSTORE PUSH1 0x24 DUP6 ADD SWAP4 SWAP1 SWAP4 MSTORE POP PUSH1 0x20 SWAP1 SWAP2 MUL ADD CALLDATALOAD PUSH1 0x44 DUP3 ADD MSTORE PUSH1 0x64 ADD PUSH2 0x4B3 JUMP JUMPDEST DUP10 DUP10 DUP3 DUP2 DUP2 LT PUSH2 0x665 JUMPI PUSH2 0x665 PUSH2 0x150D JUMP JUMPDEST SWAP1 POP PUSH1 0x20 MUL ADD CALLDATALOAD PUSH1 0x1 SUB PUSH2 0x6A9 JUMPI PUSH1 0x1 DUP9 DUP9 DUP4 DUP2 DUP2 LT PUSH2 0x687 JUMPI PUSH2 0x687 PUSH2 0x150D JUMP JUMPDEST SWAP1 POP PUSH1 0x20 MUL ADD CALLDATALOAD PUSH2 0x698 SWAP2 SWAP1 PUSH2 0x153C JUMP JUMPDEST PUSH2 0x6A2 SWAP1 DUP4 PUSH2 0x1553 JUMP JUMPDEST SWAP2 POP PUSH2 0x86D JUMP JUMPDEST DUP10 DUP10 DUP3 DUP2 DUP2 LT PUSH2 0x6BB JUMPI PUSH2 0x6BB PUSH2 0x150D JUMP JUMPDEST SWAP1 POP PUSH1 0x20 MUL ADD CALLDATALOAD PUSH1 0x2 SUB PUSH2 0x6DD JUMPI PUSH1 0x3 DUP9 DUP9 DUP4 DUP2 DUP2 LT PUSH2 0x687 JUMPI PUSH2 0x687 PUSH2 0x150D JUMP JUMPDEST DUP10 DUP10 DUP3 DUP2 DUP2 LT PUSH2 0x6EF JUMPI PUSH2 0x6EF PUSH2 0x150D JUMP JUMPDEST SWAP1 POP PUSH1 0x20 MUL ADD CALLDATALOAD PUSH1 0x3 SUB PUSH2 0x711 JUMPI PUSH1 0x3 DUP9 DUP9 DUP4 DUP2 DUP2 LT PUSH2 0x687 JUMPI PUSH2 0x687 PUSH2 0x150D JUMP JUMPDEST DUP10 DUP10 DUP3 DUP2 DUP2 LT PUSH2 0x723 JUMPI PUSH2 0x723 PUSH2 0x150D JUMP JUMPDEST SWAP1 POP PUSH1 0x20 MUL ADD CALLDATALOAD PUSH1 0x4 SUB PUSH2 0x745 JUMPI PUSH1 0x5 DUP9 DUP9 DUP4 DUP2 DUP2 LT PUSH2 0x687 JUMPI PUSH2 0x687 PUSH2 0x150D JUMP JUMPDEST DUP10 DUP10 DUP3 DUP2 DUP2 LT PUSH2 0x757 JUMPI PUSH2 0x757 PUSH2 0x150D JUMP JUMPDEST SWAP1 POP PUSH1 0x20 MUL ADD CALLDATALOAD PUSH1 0x5 SUB PUSH2 0x779 JUMPI PUSH1 0x9 DUP9 DUP9 DUP4 DUP2 DUP2 LT PUSH2 0x687 JUMPI PUSH2 0x687 PUSH2 0x150D JUMP JUMPDEST DUP10 DUP10 DUP3 DUP2 DUP2 LT PUSH2 0x78B JUMPI PUSH2 0x78B PUSH2 0x150D JUMP JUMPDEST SWAP1 POP PUSH1 0x20 MUL ADD CALLDATALOAD PUSH1 0x6 SUB PUSH2 0x7AD JUMPI PUSH1 0x19 DUP9 DUP9 DUP4 DUP2 DUP2 LT PUSH2 0x687 JUMPI PUSH2 0x687 PUSH2 0x150D JUMP JUMPDEST DUP10 DUP10 DUP3 DUP2 DUP2 LT PUSH2 0x7BF JUMPI PUSH2 0x7BF PUSH2 0x150D JUMP JUMPDEST SWAP1 POP PUSH1 0x20 MUL ADD CALLDATALOAD PUSH1 0x7 SUB PUSH2 0x7E1 JUMPI PUSH1 0x10 DUP9 DUP9 DUP4 DUP2 DUP2 LT PUSH2 0x687 JUMPI PUSH2 0x687 PUSH2 0x150D JUMP JUMPDEST PUSH32 0x0 DUP11 DUP11 DUP4 DUP2 DUP2 LT PUSH2 0x814 JUMPI PUSH2 0x814 PUSH2 0x150D JUMP JUMPDEST PUSH1 0x40 MLOAD PUSH32 0x1912EA5100000000000000000000000000000000000000000000000000000000 DUP2 MSTORE PUSH20 0xFFFFFFFFFFFFFFFFFFFFFFFFFFFFFFFFFFFFFFFF SWAP1 SWAP5 AND PUSH1 0x4 DUP6 ADD MSTORE PUSH1 0x20 MUL SWAP2 SWAP1 SWAP2 ADD CALLDATALOAD PUSH1 0x24 DUP4 ADD MSTORE POP PUSH1 0x44 ADD PUSH2 0x4B3 JUMP JUMPDEST PUSH1 0x1 ADD PUSH2 0x59F JUMP JUMPDEST POP PUSH20 0xFFFFFFFFFFFFFFFFFFFFFFFFFFFFFFFFFFFFFFFF DUP11 AND PUSH1 0x0 SWAP1 DUP2 MSTORE PUSH1 0x2 PUSH1 0x20 MSTORE PUSH1 0x40 SWAP1 KECCAK256 SLOAD DUP11 SWAP1 DUP6 ISZERO PUSH2 0xA47 JUMPI PUSH1 0x0 DUP1 PUSH2 0x8B3 DUP9 DUP11 ADD DUP11 PUSH2 0x1595 JUMP JUMPDEST SWAP2 POP SWAP2 POP PUSH1 0x80 DUP4 SWAP1 SHR PUSH1 0x0 SUB PUSH2 0xA27 JUMPI PUSH1 0x40 MLOAD PUSH32 0xFFFFFFFFFFFFFFFFFFFFFFFFFFFFFFFFFFFFFFFF000000000000000000000000 PUSH1 0x60 DUP7 SWAP1 SHL AND PUSH1 0x20 DUP3 ADD MSTORE PUSH1 0x34 DUP2 ADD DUP3 SWAP1 MSTORE PUSH1 0x0 SWAP1 PUSH1 0x54 ADD PUSH1 0x40 DUP1 MLOAD PUSH32 0xFFFFFFFFFFFFFFFFFFFFFFFFFFFFFFFFFFFFFFFFFFFFFFFFFFFFFFFFFFFFFFE0 DUP2 DUP5 SUB ADD DUP2 MSTORE SWAP2 SWAP1 MSTORE DUP1 MLOAD PUSH1 0x20 SWAP1 SWAP2 ADD KECCAK256 SWAP1 POP PUSH2 0x962 DUP4 PUSH32 0x0 DUP4 PUSH2 0x10DF JUMP JUMPDEST PUSH2 0x9B7 JUMPI PUSH1 0x40 MLOAD PUSH32 0xADBD651200000000000000000000000000000000000000000000000000000000 DUP2 MSTORE PUSH20 0xFFFFFFFFFFFFFFFFFFFFFFFFFFFFFFFFFFFFFFFF DUP7 AND PUSH1 0x4 DUP3 ADD MSTORE PUSH1 0x24 DUP2 ADD DUP4 SWAP1 MSTORE PUSH1 0x44 ADD PUSH2 0x4B3 JUMP JUMPDEST PUSH20 0xFFFFFFFFFFFFFFFFFFFFFFFFFFFFFFFFFFFFFFFF DUP6 AND PUSH1 0x0 DUP2 DUP2 MSTORE PUSH1 0x2 PUSH1 0x20 SWAP1 DUP2 MSTORE PUSH1 0x40 SWAP2 DUP3 SWAP1 KECCAK256 PUSH1 0x80 DUP7 SWAP1 SHL DUP9 OR SWAP1 DUP2 SWAP1 SSTORE DUP3 MLOAD DUP9 DUP2 MSTORE SWAP2 DUP3 ADD DUP2 SWAP1 MSTORE SWAP3 SWAP2 PUSH32 0x528DFE447BC8E2A31CBCF22A36526A2FCC9AC2B2FC9A850DDAF575BB2AAB3433 SWAP2 ADD PUSH1 0x40 MLOAD DUP1 SWAP2 SUB SWAP1 LOG2 SWAP4 POP POP JUMPDEST PUSH2 0x2710 PUSH2 0xA34 DUP3 DUP8 PUSH2 0x153C JUMP JUMPDEST PUSH2 0xA3E SWAP2 SWAP1 PUSH2 0x1438 JUMP JUMPDEST SWAP5 POP POP POP PUSH2 0xA6E JUMP JUMPDEST PUSH1 0x80 DUP2 SWAP1 SHR DUP1 ISZERO PUSH2 0xA6C JUMPI PUSH2 0x2710 PUSH2 0xA5F DUP3 DUP7 PUSH2 0x153C JUMP JUMPDEST PUSH2 0xA69 SWAP2 SWAP1 PUSH2 0x1438 JUMP JUMPDEST SWAP4 POP JUMPDEST POP JUMPDEST PUSH16 0xFFFFFFFFFFFFFFFFFFFFFFFFFFFFFFFF DUP2 AND DUP1 ISZERO PUSH2 0xA94 JUMPI PUSH2 0xA91 DUP2 DUP6 PUSH2 0x153C JUMP JUMPDEST SWAP4 POP JUMPDEST PUSH1 0x0 DUP6 DUP2 MSTORE PUSH1 0x1 PUSH1 0x20 SWAP1 DUP2 MSTORE PUSH1 0x40 DUP1 DUP4 KECCAK256 PUSH20 0xFFFFFFFFFFFFFFFFFFFFFFFFFFFFFFFFFFFFFFFF DUP8 AND DUP5 MSTORE SWAP1 SWAP2 MSTORE DUP2 KECCAK256 SLOAD PUSH2 0xACF SWAP1 DUP7 SWAP1 PUSH2 0x1553 JUMP JUMPDEST PUSH1 0x0 DUP8 DUP2 MSTORE PUSH1 0x1 PUSH1 0x20 SWAP1 DUP2 MSTORE PUSH1 0x40 DUP1 DUP4 KECCAK256 PUSH20 0xFFFFFFFFFFFFFFFFFFFFFFFFFFFFFFFFFFFFFFFF DUP10 AND DUP5 MSTORE DUP3 MSTORE DUP1 DUP4 KECCAK256 DUP5 SWAP1 SSTORE DUP10 DUP4 MSTORE SWAP1 DUP3 SWAP1 MSTORE DUP2 KECCAK256 DUP1 SLOAD SWAP3 SWAP4 POP DUP8 SWAP3 SWAP1 SWAP2 SWAP1 PUSH2 0xB1F SWAP1 DUP5 SWAP1 PUSH2 0x1553 JUMP JUMPDEST SWAP3 POP POP DUP2 SWAP1 SSTORE POP DUP6 DUP5 PUSH20 0xFFFFFFFFFFFFFFFFFFFFFFFFFFFFFFFFFFFFFFFF AND PUSH32 0x6E46CD5A8F4134E080F5038EE4632B01A585B6052863E4A1F0D5C57B1A35645B DUP16 DUP16 DUP16 DUP16 DUP12 DUP9 DUP12 PUSH1 0x40 MLOAD PUSH2 0xB79 SWAP8 SWAP7 SWAP6 SWAP5 SWAP4 SWAP3 SWAP2 SWAP1 PUSH2 0x1677 JUMP JUMPDEST PUSH1 0x40 MLOAD DUP1 SWAP2 SUB SWAP1 LOG3 POP PUSH32 0xBC197C8100000000000000000000000000000000000000000000000000000000 SWAP15 SWAP14 POP POP POP POP POP POP POP POP POP POP POP POP POP POP JUMP JUMPDEST PUSH1 0x0 CALLER PUSH20 0xFFFFFFFFFFFFFFFFFFFFFFFFFFFFFFFFFFFFFFFF PUSH32 0x0 AND EQ PUSH2 0xC28 JUMPI PUSH1 0x40 MLOAD PUSH32 0x7330680300000000000000000000000000000000000000000000000000000000 DUP2 MSTORE CALLER PUSH1 0x4 DUP3 ADD MSTORE PUSH1 0x24 ADD PUSH2 0x4B3 JUMP JUMPDEST PUSH1 0x1 DUP6 EQ PUSH2 0xC6B JUMPI PUSH1 0x40 MLOAD PUSH32 0x1912EA5100000000000000000000000000000000000000000000000000000000 DUP2 MSTORE CALLER PUSH1 0x4 DUP3 ADD MSTORE PUSH1 0x24 DUP2 ADD DUP7 SWAP1 MSTORE PUSH1 0x44 ADD PUSH2 0x4B3 JUMP JUMPDEST DUP4 PUSH1 0x1 EQ PUSH2 0xCB5 JUMPI PUSH1 0x40 MLOAD PUSH32 0xE1F366E900000000000000000000000000000000000000000000000000000000 DUP2 MSTORE CALLER PUSH1 0x4 DUP3 ADD MSTORE PUSH1 0x24 DUP2 ADD DUP7 SWAP1 MSTORE PUSH1 0x44 DUP2 ADD DUP6 SWAP1 MSTORE PUSH1 0x64 ADD PUSH2 0x4B3 JUMP JUMPDEST PUSH1 0x0 PUSH2 0xCBF PUSH2 0x3E8 JUMP JUMPDEST SWAP1 POP PUSH32 0x0 DUP2 GT ISZERO PUSH2 0xD1E JUMPI PUSH1 0x40 MLOAD PUSH32 0x764E560F00000000000000000000000000000000000000000000000000000000 DUP2 MSTORE PUSH1 0x4 DUP2 ADD DUP3 SWAP1 MSTORE PUSH1 0x24 ADD PUSH2 0x4B3 JUMP JUMPDEST PUSH20 0xFFFFFFFFFFFFFFFFFFFFFFFFFFFFFFFFFFFFFFFF DUP8 AND PUSH1 0x0 SWAP1 DUP2 MSTORE PUSH1 0x2 PUSH1 0x20 MSTORE PUSH1 0x40 SWAP1 KECCAK256 SLOAD PUSH16 0xFFFFFFFFFFFFFFFFFFFFFFFFFFFFFFFF DUP2 AND ISZERO PUSH2 0xDA6 JUMPI PUSH1 0x40 MLOAD PUSH32 0x383B549300000000000000000000000000000000000000000000000000000000 DUP2 MSTORE PUSH20 0xFFFFFFFFFFFFFFFFFFFFFFFFFFFFFFFFFFFFFFFF DUP10 AND PUSH1 0x4 DUP3 ADD MSTORE PUSH1 0x24 ADD PUSH2 0x4B3 JUMP JUMPDEST PUSH1 0x40 MLOAD PUSH32 0x124D91E500000000000000000000000000000000000000000000000000000000 DUP2 MSTORE ADDRESS PUSH1 0x4 DUP3 ADD MSTORE PUSH1 0x24 DUP2 ADD DUP9 SWAP1 MSTORE PUSH1 0x44 DUP2 ADD DUP8 SWAP1 MSTORE CALLER SWAP1 PUSH4 0x124D91E5 SWAP1 PUSH1 0x64 ADD PUSH1 0x0 PUSH1 0x40 MLOAD DUP1 DUP4 SUB DUP2 PUSH1 0x0 DUP8 DUP1 EXTCODESIZE ISZERO DUP1 ISZERO PUSH2 0xE05 JUMPI PUSH1 0x0 DUP1 REVERT JUMPDEST POP GAS CALL ISZERO DUP1 ISZERO PUSH2 0xE19 JUMPI RETURNDATASIZE PUSH1 0x0 DUP1 RETURNDATACOPY RETURNDATASIZE PUSH1 0x0 REVERT JUMPDEST POP POP POP PUSH1 0x2 DUP3 OR SWAP1 POP DUP5 ISZERO PUSH2 0xF46 JUMPI PUSH1 0x80 DUP3 SWAP1 SHR PUSH1 0x0 SUB PUSH2 0xF46 JUMPI PUSH1 0x0 DUP1 PUSH2 0xE43 DUP8 DUP10 ADD DUP10 PUSH2 0x1595 JUMP JUMPDEST PUSH1 0x40 MLOAD PUSH32 0xFFFFFFFFFFFFFFFFFFFFFFFFFFFFFFFFFFFFFFFF000000000000000000000000 PUSH1 0x60 DUP16 SWAP1 SHL AND PUSH1 0x20 DUP3 ADD MSTORE PUSH1 0x34 DUP2 ADD DUP3 SWAP1 MSTORE SWAP2 SWAP4 POP SWAP2 POP PUSH1 0x0 SWAP1 PUSH1 0x54 ADD PUSH1 0x40 DUP1 MLOAD PUSH32 0xFFFFFFFFFFFFFFFFFFFFFFFFFFFFFFFFFFFFFFFFFFFFFFFFFFFFFFFFFFFFFFE0 DUP2 DUP5 SUB ADD DUP2 MSTORE SWAP2 SWAP1 MSTORE DUP1 MLOAD PUSH1 0x20 SWAP1 SWAP2 ADD KECCAK256 SWAP1 POP PUSH2 0xEE7 DUP4 PUSH32 0x0 DUP4 PUSH2 0x10DF JUMP JUMPDEST PUSH2 0xF3C JUMPI PUSH1 0x40 MLOAD PUSH32 0xADBD651200000000000000000000000000000000000000000000000000000000 DUP2 MSTORE PUSH20 0xFFFFFFFFFFFFFFFFFFFFFFFFFFFFFFFFFFFFFFFF DUP14 AND PUSH1 0x4 DUP3 ADD MSTORE PUSH1 0x24 DUP2 ADD DUP4 SWAP1 MSTORE PUSH1 0x44 ADD PUSH2 0x4B3 JUMP JUMPDEST POP PUSH1 0x80 SHL SWAP1 SWAP2 OR SWAP1 POP JUMPDEST PUSH20 0xFFFFFFFFFFFFFFFFFFFFFFFFFFFFFFFFFFFFFFFF DUP10 AND PUSH1 0x0 DUP2 DUP2 MSTORE PUSH1 0x2 PUSH1 0x20 SWAP1 DUP2 MSTORE PUSH1 0x40 SWAP2 DUP3 SWAP1 KECCAK256 DUP5 SWAP1 SSTORE DUP2 MLOAD DUP6 DUP2 MSTORE SWAP1 DUP2 ADD DUP5 SWAP1 MSTORE PUSH32 0x528DFE447BC8E2A31CBCF22A36526A2FCC9AC2B2FC9A850DDAF575BB2AAB3433 SWAP2 ADD PUSH1 0x40 MLOAD DUP1 SWAP2 SUB SWAP1 LOG2 POP PUSH32 0xF23A6E6100000000000000000000000000000000000000000000000000000000 SWAP10 SWAP9 POP POP POP POP POP POP POP POP POP JUMP JUMPDEST PUSH1 0x0 DUP1 PUSH2 0x3E2 PUSH1 0x1 PUSH32 0xCA9D3E17F264B0F3984E2634E94ADB37FA3E6A8103F06AEAE6FA59E21C769F5E PUSH2 0x1425 JUMP JUMPDEST PUSH1 0x0 PUSH29 0x100000000000000000000000000000000000000000000000000000000 PUSH32 0xFFFFFFFF00000000000000000000000000000000000000000000000000000000 DUP4 AND ADD PUSH2 0x1055 JUMPI POP PUSH1 0x0 PUSH2 0x3E2 JUMP JUMPDEST PUSH32 0xFE00365900000000000000000000000000000000000000000000000000000000 PUSH32 0xFFFFFFFF00000000000000000000000000000000000000000000000000000000 DUP4 AND ADD PUSH2 0x10A6 JUMPI POP PUSH1 0x1 PUSH2 0x3E2 JUMP JUMPDEST POP PUSH32 0xFFFFFFFF00000000000000000000000000000000000000000000000000000000 AND PUSH1 0x0 SWAP1 DUP2 MSTORE PUSH1 0x20 SWAP2 SWAP1 SWAP2 MSTORE PUSH1 0x40 SWAP1 KECCAK256 SLOAD PUSH1 0xFF AND SWAP1 JUMP JUMPDEST PUSH1 0x0 DUP3 PUSH2 0x10EC DUP6 DUP5 PUSH2 0x10F5 JUMP JUMPDEST EQ SWAP5 SWAP4 POP POP POP POP JUMP JUMPDEST PUSH1 0x0 DUP2 DUP2 JUMPDEST DUP5 MLOAD DUP2 LT ISZERO PUSH2 0x1130 JUMPI PUSH2 0x1126 DUP3 DUP7 DUP4 DUP2 MLOAD DUP2 LT PUSH2 0x1119 JUMPI PUSH2 0x1119 PUSH2 0x150D JUMP JUMPDEST PUSH1 0x20 MUL PUSH1 0x20 ADD ADD MLOAD PUSH2 0x1138 JUMP JUMPDEST SWAP2 POP PUSH1 0x1 ADD PUSH2 0x10FA JUMP JUMPDEST POP SWAP4 SWAP3 POP POP POP JUMP JUMPDEST PUSH1 0x0 DUP2 DUP4 LT PUSH2 0x1154 JUMPI PUSH1 0x0 DUP3 DUP2 MSTORE PUSH1 0x20 DUP5 SWAP1 MSTORE PUSH1 0x40 SWAP1 KECCAK256 PUSH2 0x1163 JUMP JUMPDEST PUSH1 0x0 DUP4 DUP2 MSTORE PUSH1 0x20 DUP4 SWAP1 MSTORE PUSH1 0x40 SWAP1 KECCAK256 JUMPDEST SWAP4 SWAP3 POP POP POP JUMP JUMPDEST PUSH1 0x0 PUSH1 0x20 DUP3 DUP5 SUB SLT ISZERO PUSH2 0x117C JUMPI PUSH1 0x0 DUP1 REVERT JUMPDEST DUP2 CALLDATALOAD PUSH32 0xFFFFFFFF00000000000000000000000000000000000000000000000000000000 DUP2 AND DUP2 EQ PUSH2 0x1163 JUMPI PUSH1 0x0 DUP1 REVERT JUMPDEST DUP1 CALLDATALOAD PUSH20 0xFFFFFFFFFFFFFFFFFFFFFFFFFFFFFFFFFFFFFFFF DUP2 AND DUP2 EQ PUSH2 0x11D0 JUMPI PUSH1 0x0 DUP1 REVERT JUMPDEST SWAP2 SWAP1 POP JUMP JUMPDEST PUSH1 0x0 PUSH1 0x20 DUP3 DUP5 SUB SLT ISZERO PUSH2 0x11E7 JUMPI PUSH1 0x0 DUP1 REVERT JUMPDEST PUSH2 0x1163 DUP3 PUSH2 0x11AC JUMP JUMPDEST PUSH1 0x0 DUP1 PUSH1 0x40 DUP4 DUP6 SUB SLT ISZERO PUSH2 0x1203 JUMPI PUSH1 0x0 DUP1 REVERT JUMPDEST DUP3 CALLDATALOAD SWAP2 POP PUSH2 0x1213 PUSH1 0x20 DUP5 ADD PUSH2 0x11AC JUMP JUMPDEST SWAP1 POP SWAP3 POP SWAP3 SWAP1 POP JUMP JUMPDEST PUSH1 0x0 PUSH1 0x20 DUP3 DUP5 SUB SLT ISZERO PUSH2 0x122E JUMPI PUSH1 0x0 DUP1 REVERT JUMPDEST POP CALLDATALOAD SWAP2 SWAP1 POP JUMP JUMPDEST PUSH1 0x0 DUP1 DUP4 PUSH1 0x1F DUP5 ADD SLT PUSH2 0x1247 JUMPI PUSH1 0x0 DUP1 REVERT JUMPDEST POP DUP2 CALLDATALOAD PUSH8 0xFFFFFFFFFFFFFFFF DUP2 GT ISZERO PUSH2 0x125F JUMPI PUSH1 0x0 DUP1 REVERT JUMPDEST PUSH1 0x20 DUP4 ADD SWAP2 POP DUP4 PUSH1 0x20 DUP3 PUSH1 0x5 SHL DUP6 ADD ADD GT ISZERO PUSH2 0x127A JUMPI PUSH1 0x0 DUP1 REVERT JUMPDEST SWAP3 POP SWAP3 SWAP1 POP JUMP JUMPDEST PUSH1 0x0 DUP1 DUP4 PUSH1 0x1F DUP5 ADD SLT PUSH2 0x1293 JUMPI PUSH1 0x0 DUP1 REVERT JUMPDEST POP DUP2 CALLDATALOAD PUSH8 0xFFFFFFFFFFFFFFFF DUP2 GT ISZERO PUSH2 0x12AB JUMPI PUSH1 0x0 DUP1 REVERT JUMPDEST PUSH1 0x20 DUP4 ADD SWAP2 POP DUP4 PUSH1 0x20 DUP3 DUP6 ADD ADD GT ISZERO PUSH2 0x127A JUMPI PUSH1 0x0 DUP1 REVERT JUMPDEST PUSH1 0x0 DUP1 PUSH1 0x0 DUP1 PUSH1 0x0 DUP1 PUSH1 0x0 DUP1 PUSH1 0xA0 DUP10 DUP12 SUB SLT ISZERO PUSH2 0x12DF JUMPI PUSH1 0x0 DUP1 REVERT JUMPDEST PUSH2 0x12E8 DUP10 PUSH2 0x11AC JUMP JUMPDEST SWAP8 POP PUSH2 0x12F6 PUSH1 0x20 DUP11 ADD PUSH2 0x11AC JUMP JUMPDEST SWAP7 POP PUSH1 0x40 DUP10 ADD CALLDATALOAD PUSH8 0xFFFFFFFFFFFFFFFF DUP1 DUP3 GT ISZERO PUSH2 0x1313 JUMPI PUSH1 0x0 DUP1 REVERT JUMPDEST PUSH2 0x131F DUP13 DUP4 DUP14 ADD PUSH2 0x1235 JUMP JUMPDEST SWAP1 SWAP9 POP SWAP7 POP PUSH1 0x60 DUP12 ADD CALLDATALOAD SWAP2 POP DUP1 DUP3 GT ISZERO PUSH2 0x1338 JUMPI PUSH1 0x0 DUP1 REVERT JUMPDEST PUSH2 0x1344 DUP13 DUP4 DUP14 ADD PUSH2 0x1235 JUMP JUMPDEST SWAP1 SWAP7 POP SWAP5 POP PUSH1 0x80 DUP12 ADD CALLDATALOAD SWAP2 POP DUP1 DUP3 GT ISZERO PUSH2 0x135D JUMPI PUSH1 0x0 DUP1 REVERT JUMPDEST POP PUSH2 0x136A DUP12 DUP3 DUP13 ADD PUSH2 0x1281 JUMP JUMPDEST SWAP10 SWAP13 SWAP9 SWAP12 POP SWAP7 SWAP10 POP SWAP5 SWAP8 SWAP4 SWAP7 SWAP3 SWAP6 SWAP5 POP POP POP JUMP JUMPDEST PUSH1 0x0 DUP1 PUSH1 0x0 DUP1 PUSH1 0x0 DUP1 PUSH1 0xA0 DUP8 DUP10 SUB SLT ISZERO PUSH2 0x1397 JUMPI PUSH1 0x0 DUP1 REVERT JUMPDEST PUSH2 0x13A0 DUP8 PUSH2 0x11AC JUMP JUMPDEST SWAP6 POP PUSH2 0x13AE PUSH1 0x20 DUP9 ADD PUSH2 0x11AC JUMP JUMPDEST SWAP5 POP PUSH1 0x40 DUP8 ADD CALLDATALOAD SWAP4 POP PUSH1 0x60 DUP8 ADD CALLDATALOAD SWAP3 POP PUSH1 0x80 DUP8 ADD CALLDATALOAD PUSH8 0xFFFFFFFFFFFFFFFF DUP2 GT ISZERO PUSH2 0x13D8 JUMPI PUSH1 0x0 DUP1 REVERT JUMPDEST PUSH2 0x13E4 DUP10 DUP3 DUP11 ADD PUSH2 0x1281 JUMP JUMPDEST SWAP8 SWAP11 SWAP7 SWAP10 POP SWAP5 SWAP8 POP SWAP3 SWAP6 SWAP4 SWAP5 SWAP3 POP POP POP JUMP JUMPDEST PUSH32 0x4E487B7100000000000000000000000000000000000000000000000000000000 PUSH1 0x0 MSTORE PUSH1 0x11 PUSH1 0x4 MSTORE PUSH1 0x24 PUSH1 0x0 REVERT JUMPDEST DUP2 DUP2 SUB DUP2 DUP2 GT ISZERO PUSH2 0x3E2 JUMPI PUSH2 0x3E2 PUSH2 0x13F6 JUMP JUMPDEST PUSH1 0x0 DUP3 PUSH2 0x146E JUMPI PUSH32 0x4E487B7100000000000000000000000000000000000000000000000000000000 PUSH1 0x0 MSTORE PUSH1 0x12 PUSH1 0x4 MSTORE PUSH1 0x24 PUSH1 0x0 REVERT JUMPDEST POP DIV SWAP1 JUMP JUMPDEST DUP2 DUP4 MSTORE PUSH1 0x0 PUSH32 0x7FFFFFFFFFFFFFFFFFFFFFFFFFFFFFFFFFFFFFFFFFFFFFFFFFFFFFFFFFFFFFF DUP4 GT ISZERO PUSH2 0x14A5 JUMPI PUSH1 0x0 DUP1 REVERT JUMPDEST DUP3 PUSH1 0x5 SHL DUP1 DUP4 PUSH1 0x20 DUP8 ADD CALLDATACOPY SWAP4 SWAP1 SWAP4 ADD PUSH1 0x20 ADD SWAP4 SWAP3 POP POP POP JUMP JUMPDEST PUSH20 0xFFFFFFFFFFFFFFFFFFFFFFFFFFFFFFFFFFFFFFFF DUP7 AND DUP2 MSTORE PUSH1 0x60 PUSH1 0x20 DUP3 ADD MSTORE PUSH1 0x0 PUSH2 0x14EE PUSH1 0x60 DUP4 ADD DUP7 DUP9 PUSH2 0x1473 JUMP JUMPDEST DUP3 DUP2 SUB PUSH1 0x40 DUP5 ADD MSTORE PUSH2 0x1501 DUP2 DUP6 DUP8 PUSH2 0x1473 JUMP JUMPDEST SWAP9 SWAP8 POP POP POP POP POP POP POP POP JUMP JUMPDEST PUSH32 0x4E487B7100000000000000000000000000000000000000000000000000000000 PUSH1 0x0 MSTORE PUSH1 0x32 PUSH1 0x4 MSTORE PUSH1 0x24 PUSH1 0x0 REVERT JUMPDEST DUP1 DUP3 MUL DUP2 ISZERO DUP3 DUP3 DIV DUP5 EQ OR PUSH2 0x3E2 JUMPI PUSH2 0x3E2 PUSH2 0x13F6 JUMP JUMPDEST DUP1 DUP3 ADD DUP1 DUP3 GT ISZERO PUSH2 0x3E2 JUMPI PUSH2 0x3E2 PUSH2 0x13F6 JUMP JUMPDEST PUSH32 0x4E487B7100000000000000000000000000000000000000000000000000000000 PUSH1 0x0 MSTORE PUSH1 0x41 PUSH1 0x4 MSTORE PUSH1 0x24 PUSH1 0x0 REVERT JUMPDEST PUSH1 0x0 DUP1 PUSH1 0x40 DUP4 DUP6 SUB SLT ISZERO PUSH2 0x15A8 JUMPI PUSH1 0x0 DUP1 REVERT JUMPDEST DUP3 CALLDATALOAD PUSH8 0xFFFFFFFFFFFFFFFF DUP1 DUP3 GT ISZERO PUSH2 0x15C0 JUMPI PUSH1 0x0 DUP1 REVERT JUMPDEST DUP2 DUP6 ADD SWAP2 POP DUP6 PUSH1 0x1F DUP4 ADD SLT PUSH2 0x15D4 JUMPI PUSH1 0x0 DUP1 REVERT JUMPDEST DUP2 CALLDATALOAD PUSH1 0x20 DUP3 DUP3 GT ISZERO PUSH2 0x15E8 JUMPI PUSH2 0x15E8 PUSH2 0x1566 JUMP JUMPDEST DUP2 PUSH1 0x5 SHL PUSH1 0x40 MLOAD PUSH32 0xFFFFFFFFFFFFFFFFFFFFFFFFFFFFFFFFFFFFFFFFFFFFFFFFFFFFFFFFFFFFFFE0 PUSH1 0x3F DUP4 ADD AND DUP2 ADD DUP2 DUP2 LT DUP7 DUP3 GT OR ISZERO PUSH2 0x162B JUMPI PUSH2 0x162B PUSH2 0x1566 JUMP JUMPDEST PUSH1 0x40 MSTORE SWAP3 DUP4 MSTORE DUP2 DUP4 ADD SWAP4 POP DUP5 DUP2 ADD DUP3 ADD SWAP3 DUP10 DUP5 GT ISZERO PUSH2 0x1649 JUMPI PUSH1 0x0 DUP1 REVERT JUMPDEST SWAP5 DUP3 ADD SWAP5 JUMPDEST DUP4 DUP7 LT ISZERO PUSH2 0x1667 JUMPI DUP6 CALLDATALOAD DUP6 MSTORE SWAP5 DUP3 ADD SWAP5 SWAP4 DUP3 ADD SWAP4 PUSH2 0x164E JUMP JUMPDEST SWAP10 SWAP8 SWAP1 SWAP2 ADD CALLDATALOAD SWAP8 POP POP POP POP POP POP POP JUMP JUMPDEST PUSH1 0xA0 DUP2 MSTORE PUSH1 0x0 PUSH2 0x168B PUSH1 0xA0 DUP4 ADD DUP10 DUP12 PUSH2 0x1473 JUMP JUMPDEST DUP3 DUP2 SUB PUSH1 0x20 DUP5 ADD MSTORE PUSH2 0x169E DUP2 DUP9 DUP11 PUSH2 0x1473 JUMP JUMPDEST PUSH1 0x40 DUP5 ADD SWAP7 SWAP1 SWAP7 MSTORE POP POP PUSH1 0x60 DUP2 ADD SWAP3 SWAP1 SWAP3 MSTORE PUSH1 0x80 SWAP1 SWAP2 ADD MSTORE SWAP5 SWAP4 POP POP POP POP JUMP INVALID LOG2 PUSH5 0x6970667358 0x22 SLT KECCAK256 0xB7 PUSH2 0x619C 0xC0 0xCD SWAP4 SIGNEXTEND LOG1 BALANCE 0xC5 CALLDATALOAD 0xAD SSTORE 0xE5 0x4D 0xDD JUMP LOG4 0xE8 0xF9 SLT SELFDESTRUCT 0xE1 PC PUSH8 0xC1E495BB4EE36473 PUSH16 0x6C634300081600330000000000000000 "},"gasEstimates":{"creation":{"codeDepositCost":"1175200","executionCost":"infinite","totalCost":"infinite"},"external":{"BURN_WEIGHT_TOKEN_1()":"264","BURN_WEIGHT_TOKEN_2()":"240","BURN_WEIGHT_TOKEN_3()":"240","BURN_WEIGHT_TOKEN_4()":"263","BURN_WEIGHT_TOKEN_5()":"283","BURN_WEIGHT_TOKEN_6()":"285","BURN_WEIGHT_TOKEN_7()":"262","CYCLE_DURATION()":"infinite","INITIAL_TIME()":"infinite","MAX_CYCLE()":"infinite","MERKLE_ROOT()":"infinite","MISSING_ORB()":"infinite","MISSING_ORB_TOKEN_ID()":"241","ORB_OF_POWER()":"infinite","ROC_MULTIPLIER()":"263","currentCycle()":"infinite","onERC1155BatchReceived(address,address,uint256[],uint256[],bytes)":"infinite","onERC1155Received(address,address,uint256,uint256,bytes)":"infinite","orbMultipliers(address)":"2597","supportsInterface(bytes4)":"infinite","totalAshPerCycle(uint256)":"2508","userAshPerCycle(uint256,address)":"2694"}},"methodIdentifiers":{"BURN_WEIGHT_TOKEN_1()":"0277640e","BURN_WEIGHT_TOKEN_2()":"424ab4f7","BURN_WEIGHT_TOKEN_3()":"aa918fd5","BURN_WEIGHT_TOKEN_4()":"0455645a","BURN_WEIGHT_TOKEN_5()":"f95d1016","BURN_WEIGHT_TOKEN_6()":"3838a201","BURN_WEIGHT_TOKEN_7()":"c131754e","CYCLE_DURATION()":"cd421fbf","INITIAL_TIME()":"491bde66","MAX_CYCLE()":"043063bc","MERKLE_ROOT()":"51e75e8b","MISSING_ORB()":"cd18a34f","MISSING_ORB_TOKEN_ID()":"1de0e40b","ORB_OF_POWER()":"28a979cf","ROC_MULTIPLIER()":"55f5b0a8","currentCycle()":"bab2f552","onERC1155BatchReceived(address,address,uint256[],uint256[],bytes)":"bc197c81","onERC1155Received(address,address,uint256,uint256,bytes)":"f23a6e61","orbMultipliers(address)":"12828b7f","supportsInterface(bytes4)":"01ffc9a7","totalAshPerCycle(uint256)":"ab504e73","userAshPerCycle(uint256,address)":"4dac1c2b"}},"storageLayout":{"storage":[{"astId":822,"contract":"contracts/burn/OrbsBurnPool.sol:OrbsBurnPool","label":"totalAshPerCycle","offset":0,"slot":"0","type":"t_mapping(t_uint256,t_uint256)"},{"astId":829,"contract":"contracts/burn/OrbsBurnPool.sol:OrbsBurnPool","label":"userAshPerCycle","offset":0,"slot":"1","type":"t_mapping(t_uint256,t_mapping(t_address,t_uint256))"},{"astId":834,"contract":"contracts/burn/OrbsBurnPool.sol:OrbsBurnPool","label":"orbMultipliers","offset":0,"slot":"2","type":"t_mapping(t_address,t_uint256)"}],"types":{"t_address":{"encoding":"inplace","label":"address","numberOfBytes":"20"},"t_mapping(t_address,t_uint256)":{"encoding":"mapping","key":"t_address","label":"mapping(address => uint256)","numberOfBytes":"32","value":"t_uint256"},"t_mapping(t_uint256,t_mapping(t_address,t_uint256))":{"encoding":"mapping","key":"t_uint256","label":"mapping(uint256 => mapping(address => uint256))","numberOfBytes":"32","value":"t_mapping(t_address,t_uint256)"},"t_mapping(t_uint256,t_uint256)":{"encoding":"mapping","key":"t_uint256","label":"mapping(uint256 => uint256)","numberOfBytes":"32","value":"t_uint256"},"t_uint256":{"encoding":"inplace","label":"uint256","numberOfBytes":"32"}}},"userdoc":{"errors":{"AlreadySetROCMultiplier(address)":[{"notice":"Error thrown when the wallet already has the ROC multiplier been set."}],"IllegalInterfaceId()":[{"notice":"Thrown when setting the illegal interfaceId 0xffffffff."}],"InvalidCycle(uint256)":[{"notice":"Error thrown when the cycle is invalid."}],"InvalidProof(address,uint256)":[{"notice":"Error thrown when the proof is invalid."}],"InvalidTokenAddress(address)":[{"notice":"Error thrown when the token is not approved."}],"InvalidTokenId(address,uint256)":[{"notice":"Error thrown when the token ID is invalid."}],"InvalidTokenValue(address,uint256,uint256)":[{"notice":"Error thrown when the token amount is invalid."}],"ZeroCycleDuration()":[{"notice":"Error thrown when the cycle duration is invalid."}],"ZeroMaxCycle()":[{"notice":"Error thrown when the cycle is invalid."}]},"events":{"GenerateAsh(address,uint256,uint256[],uint256[],uint256,uint256,uint256)":{"notice":"Event emitted when ASH are generated."},"UpdateOrbMultiplier(address,uint256,uint256)":{"notice":"Event emitted when the multiplier info is updated."}},"kind":"user","methods":{"BURN_WEIGHT_TOKEN_1()":{"notice":"The token weights for calculating Ash."},"CYCLE_DURATION()":{"notice":"The duration of each cycle."},"INITIAL_TIME()":{"notice":"The initial time of the contract."},"MAX_CYCLE()":{"notice":"The maximum cycle."},"MERKLE_ROOT()":{"notice":"The Merkle root for setting the puzzleMultiplier."},"MISSING_ORB()":{"notice":"The IERC1155 erc1155 contract for setting the token multiplier."},"MISSING_ORB_TOKEN_ID()":{"notice":"The token ID of RoC for setting the token multiplier."},"ORB_OF_POWER()":{"notice":"The IERC1155Burnable erc1155 contracts burn to generate ASH."},"ROC_MULTIPLIER()":{"notice":"The Riddle Of Chaos multiplier."},"constructor":{"notice":"Constructor for the OrbsBurnPool contract."},"currentCycle()":{"notice":"Get the current cycle."},"onERC1155BatchReceived(address,address,uint256[],uint256[],bytes)":{"notice":"Burn the tokens and calculate the ash."},"onERC1155Received(address,address,uint256,uint256,bytes)":{"notice":"Set the Orb multiplier by burning the Missing Orb token 1and set the Puzzle Game multiplier through a Merkle proof in the data field."},"orbMultipliers(address)":{"notice":"The orb multipliers for each user, first 128 bits are the puzzleMultiplier numerator, last 128 bits are the roc multiplier."},"supportsInterface(bytes4)":{"notice":"Returns whether this contract implements a given interface."},"totalAshPerCycle(uint256)":{"notice":"The total amount of ASH generated in each cycle."},"userAshPerCycle(uint256,address)":{"notice":"The total amount of ASH generated by each user in each cycle."}},"version":1}}}}