{"contracts/mocks/points/PointsMock.sol":{"PointsMock":{"abi":[{"anonymous":false,"inputs":[{"indexed":true,"internalType":"address","name":"sender","type":"address"},{"indexed":true,"internalType":"bytes32","name":"reasonCode","type":"bytes32"},{"indexed":true,"internalType":"address","name":"holder","type":"address"},{"indexed":false,"internalType":"uint256","name":"amount","type":"uint256"}],"name":"Deposited","type":"event"},{"inputs":[{"internalType":"address","name":"holder","type":"address"},{"internalType":"uint256","name":"amount","type":"uint256"},{"internalType":"bytes32","name":"depositReasonCode","type":"bytes32"}],"name":"deposit","outputs":[],"stateMutability":"nonpayable","type":"function"}],"devdoc":{"events":{"Deposited(address,bytes32,address,uint256)":{"params":{"amount":"The amount deposited.","holder":"The holder of the balance deposited to.","reasonCode":"The reason code of the deposit.","sender":"The sender of the deposit."}}},"kind":"dev","methods":{"deposit(address,uint256,bytes32)":{"params":{"amount":"The amount to deposit.","depositReasonCode":"The reason code of the deposit.","holder":"The holder of the balance to deposit to."}}},"version":1},"evm":{"bytecode":{"linkReferences":{},"object":"6080604052348015600f57600080fd5b5061012c8061001f6000396000f3fe6080604052348015600f57600080fd5b506004361060285760003560e01c806326b3293f14602d575b600080fd5b603c603836600460aa565b603e565b005b8273ffffffffffffffffffffffffffffffffffffffff16813373ffffffffffffffffffffffffffffffffffffffff167f81226022599698f02239ac5895ce7a96962ba5fe72f8f7610d1cc2cb0405f39185604051609d91815260200190565b60405180910390a4505050565b60008060006060848603121560be57600080fd5b833573ffffffffffffffffffffffffffffffffffffffff8116811460e157600080fd5b9560208501359550604090940135939250505056fea26469706673582212209f00959c3503eee27db719101f579d786a4e106a8be16d3d8670722e54948f7064736f6c634300081c0033","opcodes":"PUSH1 0x80 PUSH1 0x40 MSTORE CALLVALUE DUP1 ISZERO PUSH1 0xF JUMPI PUSH1 0x0 DUP1 REVERT JUMPDEST POP PUSH2 0x12C DUP1 PUSH2 0x1F PUSH1 0x0 CODECOPY PUSH1 0x0 RETURN INVALID PUSH1 0x80 PUSH1 0x40 MSTORE CALLVALUE DUP1 ISZERO PUSH1 0xF JUMPI PUSH1 0x0 DUP1 REVERT JUMPDEST POP PUSH1 0x4 CALLDATASIZE LT PUSH1 0x28 JUMPI PUSH1 0x0 CALLDATALOAD PUSH1 0xE0 SHR DUP1 PUSH4 0x26B3293F EQ PUSH1 0x2D JUMPI JUMPDEST PUSH1 0x0 DUP1 REVERT JUMPDEST PUSH1 0x3C PUSH1 0x38 CALLDATASIZE PUSH1 0x4 PUSH1 0xAA JUMP JUMPDEST PUSH1 0x3E JUMP JUMPDEST STOP JUMPDEST DUP3 PUSH20 0xFFFFFFFFFFFFFFFFFFFFFFFFFFFFFFFFFFFFFFFF AND DUP2 CALLER PUSH20 0xFFFFFFFFFFFFFFFFFFFFFFFFFFFFFFFFFFFFFFFF AND PUSH32 0x81226022599698F02239AC5895CE7A96962BA5FE72F8F7610D1CC2CB0405F391 DUP6 PUSH1 0x40 MLOAD PUSH1 0x9D SWAP2 DUP2 MSTORE PUSH1 0x20 ADD SWAP1 JUMP JUMPDEST PUSH1 0x40 MLOAD DUP1 SWAP2 SUB SWAP1 LOG4 POP POP POP JUMP JUMPDEST PUSH1 0x0 DUP1 PUSH1 0x0 PUSH1 0x60 DUP5 DUP7 SUB SLT ISZERO PUSH1 0xBE JUMPI PUSH1 0x0 DUP1 REVERT JUMPDEST DUP4 CALLDATALOAD PUSH20 0xFFFFFFFFFFFFFFFFFFFFFFFFFFFFFFFFFFFFFFFF DUP2 AND DUP2 EQ PUSH1 0xE1 JUMPI PUSH1 0x0 DUP1 REVERT JUMPDEST SWAP6 PUSH1 0x20 DUP6 ADD CALLDATALOAD SWAP6 POP PUSH1 0x40 SWAP1 SWAP5 ADD CALLDATALOAD SWAP4 SWAP3 POP POP POP JUMP INVALID LOG2 PUSH5 0x6970667358 0x22 SLT KECCAK256 SWAP16 STOP SWAP6 SWAP13 CALLDATALOAD SUB 0xEE 0xE2 PUSH30 0xB719101F579D786A4E106A8BE16D3D8670722E54948F7064736F6C634300 ADDMOD SHR STOP CALLER "},"gasEstimates":{"creation":{"codeDepositCost":"60000","executionCost":"111","totalCost":"60111"},"external":{"deposit(address,uint256,bytes32)":"2497"}},"methodIdentifiers":{"deposit(address,uint256,bytes32)":"26b3293f"}},"storageLayout":{"storage":[],"types":null},"userdoc":{"events":{"Deposited(address,bytes32,address,uint256)":{"notice":"Emitted when an amount is deposited to a balance."}},"kind":"user","methods":{"deposit(address,uint256,bytes32)":{"notice":"Called by a depositor to increase the balance of a holder."}},"version":1}}}}