{"contracts/mocks/ERC20/ERC20SafeTransfersAlwaysFailedMock.sol":{"ERC20SafeTransfersAlwaysFailedMock":{"abi":[{"inputs":[{"internalType":"address","name":"","type":"address"},{"internalType":"uint256","name":"","type":"uint256"},{"internalType":"bytes","name":"","type":"bytes"}],"name":"safeTransfer","outputs":[{"internalType":"bool","name":"","type":"bool"}],"stateMutability":"pure","type":"function"},{"inputs":[{"internalType":"address","name":"","type":"address"},{"internalType":"address","name":"","type":"address"},{"internalType":"uint256","name":"","type":"uint256"},{"internalType":"bytes","name":"","type":"bytes"}],"name":"safeTransferFrom","outputs":[{"internalType":"bool","name":"","type":"bool"}],"stateMutability":"pure","type":"function"}],"devdoc":{"kind":"dev","methods":{},"version":1},"evm":{"bytecode":{"linkReferences":{},"object":"6080604052348015600f57600080fd5b506101f18061001f6000396000f3fe608060405234801561001057600080fd5b50600436106100365760003560e01c8063b88d4fde1461003b578063eb79554914610068575b600080fd5b6100546100493660046100f2565b600095945050505050565b604051901515815260200160405180910390f35b610054610076366004610161565b6000949350505050565b803573ffffffffffffffffffffffffffffffffffffffff811681146100a457600080fd5b919050565b60008083601f8401126100bb57600080fd5b50813567ffffffffffffffff8111156100d357600080fd5b6020830191508360208285010111156100eb57600080fd5b9250929050565b60008060008060006080868803121561010a57600080fd5b61011386610080565b945061012160208701610080565b935060408601359250606086013567ffffffffffffffff81111561014457600080fd5b610150888289016100a9565b969995985093965092949392505050565b6000806000806060858703121561017757600080fd5b61018085610080565b935060208501359250604085013567ffffffffffffffff8111156101a357600080fd5b6101af878288016100a9565b9598949750955050505056fea2646970667358221220f1e161e2a8589b806d287fbf2418f27e5d190acb745e1f56c3d42e858e17506964736f6c634300081c0033","opcodes":"PUSH1 0x80 PUSH1 0x40 MSTORE CALLVALUE DUP1 ISZERO PUSH1 0xF JUMPI PUSH1 0x0 DUP1 REVERT JUMPDEST POP PUSH2 0x1F1 DUP1 PUSH2 0x1F PUSH1 0x0 CODECOPY PUSH1 0x0 RETURN INVALID PUSH1 0x80 PUSH1 0x40 MSTORE CALLVALUE DUP1 ISZERO PUSH2 0x10 JUMPI PUSH1 0x0 DUP1 REVERT JUMPDEST POP PUSH1 0x4 CALLDATASIZE LT PUSH2 0x36 JUMPI PUSH1 0x0 CALLDATALOAD PUSH1 0xE0 SHR DUP1 PUSH4 0xB88D4FDE EQ PUSH2 0x3B JUMPI DUP1 PUSH4 0xEB795549 EQ PUSH2 0x68 JUMPI JUMPDEST PUSH1 0x0 DUP1 REVERT JUMPDEST PUSH2 0x54 PUSH2 0x49 CALLDATASIZE PUSH1 0x4 PUSH2 0xF2 JUMP JUMPDEST PUSH1 0x0 SWAP6 SWAP5 POP POP POP POP POP JUMP JUMPDEST PUSH1 0x40 MLOAD SWAP1 ISZERO ISZERO DUP2 MSTORE PUSH1 0x20 ADD PUSH1 0x40 MLOAD DUP1 SWAP2 SUB SWAP1 RETURN JUMPDEST PUSH2 0x54 PUSH2 0x76 CALLDATASIZE PUSH1 0x4 PUSH2 0x161 JUMP JUMPDEST PUSH1 0x0 SWAP5 SWAP4 POP POP POP POP JUMP JUMPDEST DUP1 CALLDATALOAD PUSH20 0xFFFFFFFFFFFFFFFFFFFFFFFFFFFFFFFFFFFFFFFF DUP2 AND DUP2 EQ PUSH2 0xA4 JUMPI PUSH1 0x0 DUP1 REVERT JUMPDEST SWAP2 SWAP1 POP JUMP JUMPDEST PUSH1 0x0 DUP1 DUP4 PUSH1 0x1F DUP5 ADD SLT PUSH2 0xBB JUMPI PUSH1 0x0 DUP1 REVERT JUMPDEST POP DUP2 CALLDATALOAD PUSH8 0xFFFFFFFFFFFFFFFF DUP2 GT ISZERO PUSH2 0xD3 JUMPI PUSH1 0x0 DUP1 REVERT JUMPDEST PUSH1 0x20 DUP4 ADD SWAP2 POP DUP4 PUSH1 0x20 DUP3 DUP6 ADD ADD GT ISZERO PUSH2 0xEB JUMPI PUSH1 0x0 DUP1 REVERT JUMPDEST SWAP3 POP SWAP3 SWAP1 POP JUMP JUMPDEST PUSH1 0x0 DUP1 PUSH1 0x0 DUP1 PUSH1 0x0 PUSH1 0x80 DUP7 DUP9 SUB SLT ISZERO PUSH2 0x10A JUMPI PUSH1 0x0 DUP1 REVERT JUMPDEST PUSH2 0x113 DUP7 PUSH2 0x80 JUMP JUMPDEST SWAP5 POP PUSH2 0x121 PUSH1 0x20 DUP8 ADD PUSH2 0x80 JUMP JUMPDEST SWAP4 POP PUSH1 0x40 DUP7 ADD CALLDATALOAD SWAP3 POP PUSH1 0x60 DUP7 ADD CALLDATALOAD PUSH8 0xFFFFFFFFFFFFFFFF DUP2 GT ISZERO PUSH2 0x144 JUMPI PUSH1 0x0 DUP1 REVERT JUMPDEST PUSH2 0x150 DUP9 DUP3 DUP10 ADD PUSH2 0xA9 JUMP JUMPDEST SWAP7 SWAP10 SWAP6 SWAP9 POP SWAP4 SWAP7 POP SWAP3 SWAP5 SWAP4 SWAP3 POP POP POP JUMP JUMPDEST PUSH1 0x0 DUP1 PUSH1 0x0 DUP1 PUSH1 0x60 DUP6 DUP8 SUB SLT ISZERO PUSH2 0x177 JUMPI PUSH1 0x0 DUP1 REVERT JUMPDEST PUSH2 0x180 DUP6 PUSH2 0x80 JUMP JUMPDEST SWAP4 POP PUSH1 0x20 DUP6 ADD CALLDATALOAD SWAP3 POP PUSH1 0x40 DUP6 ADD CALLDATALOAD PUSH8 0xFFFFFFFFFFFFFFFF DUP2 GT ISZERO PUSH2 0x1A3 JUMPI PUSH1 0x0 DUP1 REVERT JUMPDEST PUSH2 0x1AF DUP8 DUP3 DUP9 ADD PUSH2 0xA9 JUMP JUMPDEST SWAP6 SWAP9 SWAP5 SWAP8 POP SWAP6 POP POP POP POP JUMP INVALID LOG2 PUSH5 0x6970667358 0x22 SLT KECCAK256 CALL 0xE1 PUSH2 0xE2A8 PC SWAP12 DUP1 PUSH14 0x287FBF2418F27E5D190ACB745E1F JUMP 0xC3 0xD4 0x2E DUP6 DUP15 OR POP PUSH10 0x64736F6C634300081C00 CALLER "},"gasEstimates":{"creation":{"codeDepositCost":"99400","executionCost":"147","totalCost":"99547"},"external":{"safeTransfer(address,uint256,bytes)":"598","safeTransferFrom(address,address,uint256,bytes)":"infinite"}},"methodIdentifiers":{"safeTransfer(address,uint256,bytes)":"eb795549","safeTransferFrom(address,address,uint256,bytes)":"b88d4fde"}},"storageLayout":{"storage":[],"types":null},"userdoc":{"kind":"user","methods":{},"version":1}}}}