{"contracts/merkleClaim/CheckmateMerkleClaim.sol":{"CheckmateMerkleClaim":{"abi":[{"inputs":[{"internalType":"address","name":"checkmateTokenContract_","type":"address"},{"internalType":"address","name":"stakingContract_","type":"address"},{"internalType":"address","name":"payoutWallet_","type":"address"}],"stateMutability":"nonpayable","type":"constructor"},{"inputs":[{"internalType":"address","name":"recipient","type":"address"},{"internalType":"uint256","name":"amount","type":"uint256"},{"internalType":"bytes32","name":"root","type":"bytes32"}],"name":"AlreadyClaimed","type":"error"},{"inputs":[],"name":"IllegalInterfaceId","type":"error"},{"inputs":[],"name":"InvalidCheckmateTokenContract","type":"error"},{"inputs":[{"internalType":"uint256","name":"amount","type":"uint256"}],"name":"InvalidClaimAmount","type":"error"},{"inputs":[],"name":"InvalidForwarderRegistry","type":"error"},{"inputs":[],"name":"InvalidPayoutWallet","type":"error"},{"inputs":[{"internalType":"address","name":"recipient","type":"address"},{"internalType":"uint256","name":"amount","type":"uint256"},{"internalType":"uint16","name":"nonce","type":"uint16"}],"name":"InvalidProof","type":"error"},{"inputs":[],"name":"InvalidRoot","type":"error"},{"inputs":[],"name":"InvalidStakingContract","type":"error"},{"inputs":[{"internalType":"bytes32","name":"root","type":"bytes32"}],"name":"MerkleRootNotExists","type":"error"},{"inputs":[{"internalType":"address","name":"account","type":"address"}],"name":"NotContractOwner","type":"error"},{"inputs":[],"name":"NotPaused","type":"error"},{"inputs":[],"name":"Paused","type":"error"},{"inputs":[{"internalType":"address","name":"payoutWallet","type":"address"},{"internalType":"address","name":"recipient","type":"address"},{"internalType":"uint256","name":"amount","type":"uint256"}],"name":"TransferFailed","type":"error"},{"anonymous":false,"inputs":[{"indexed":true,"internalType":"bytes32","name":"root","type":"bytes32"},{"indexed":true,"internalType":"uint16","name":"nonce","type":"uint16"}],"name":"MerkleRootSet","type":"event"},{"anonymous":false,"inputs":[{"indexed":true,"internalType":"address","name":"previousOwner","type":"address"},{"indexed":true,"internalType":"address","name":"newOwner","type":"address"}],"name":"OwnershipTransferred","type":"event"},{"anonymous":false,"inputs":[],"name":"Pause","type":"event"},{"anonymous":false,"inputs":[{"indexed":true,"internalType":"bytes32","name":"root","type":"bytes32"},{"indexed":true,"internalType":"address","name":"payoutWallet","type":"address"},{"indexed":true,"internalType":"address","name":"recipient","type":"address"},{"indexed":false,"internalType":"uint256","name":"amount","type":"uint256"}],"name":"PayoutClaimed","type":"event"},{"anonymous":false,"inputs":[{"indexed":true,"internalType":"address","name":"newPayoutWallet","type":"address"}],"name":"PayoutWalletSet","type":"event"},{"anonymous":false,"inputs":[{"indexed":true,"internalType":"address","name":"newTreasuryWallet","type":"address"}],"name":"TreasuryWalletSet","type":"event"},{"anonymous":false,"inputs":[],"name":"Unpause","type":"event"},{"inputs":[],"name":"CHECKMATE_TOKEN_CONTRACT","outputs":[{"internalType":"address","name":"","type":"address"}],"stateMutability":"view","type":"function"},{"inputs":[],"name":"STAKING_CONTRACT","outputs":[{"internalType":"address","name":"","type":"address"}],"stateMutability":"view","type":"function"},{"inputs":[{"internalType":"address","name":"recipient","type":"address"},{"internalType":"uint256","name":"amount","type":"uint256"},{"internalType":"bytes32","name":"root","type":"bytes32"},{"internalType":"bytes32[]","name":"proof","type":"bytes32[]"}],"name":"claimAndStake","outputs":[],"stateMutability":"nonpayable","type":"function"},{"inputs":[{"internalType":"bytes32","name":"leaf","type":"bytes32"}],"name":"claimed","outputs":[{"internalType":"bool","name":"claimed","type":"bool"}],"stateMutability":"view","type":"function"},{"inputs":[],"name":"nonce","outputs":[{"internalType":"uint16","name":"","type":"uint16"}],"stateMutability":"view","type":"function"},{"inputs":[],"name":"owner","outputs":[{"internalType":"address","name":"","type":"address"}],"stateMutability":"view","type":"function"},{"inputs":[],"name":"pause","outputs":[],"stateMutability":"nonpayable","type":"function"},{"inputs":[],"name":"paused","outputs":[{"internalType":"bool","name":"","type":"bool"}],"stateMutability":"view","type":"function"},{"inputs":[],"name":"payoutWallet","outputs":[{"internalType":"address","name":"","type":"address"}],"stateMutability":"view","type":"function"},{"inputs":[{"internalType":"bytes32","name":"root","type":"bytes32"}],"name":"rootToNonceMap","outputs":[{"internalType":"uint16","name":"nonce","type":"uint16"}],"stateMutability":"view","type":"function"},{"inputs":[{"internalType":"bytes32","name":"merkleRoot","type":"bytes32"}],"name":"setMerkleRoot","outputs":[],"stateMutability":"nonpayable","type":"function"},{"inputs":[{"internalType":"address","name":"newPayoutWallet","type":"address"}],"name":"setPayoutWallet","outputs":[],"stateMutability":"nonpayable","type":"function"},{"inputs":[{"internalType":"bytes4","name":"interfaceId","type":"bytes4"}],"name":"supportsInterface","outputs":[{"internalType":"bool","name":"","type":"bool"}],"stateMutability":"view","type":"function"},{"inputs":[{"internalType":"address","name":"newOwner","type":"address"}],"name":"transferOwnership","outputs":[],"stateMutability":"nonpayable","type":"function"},{"inputs":[],"name":"unpause","outputs":[],"stateMutability":"nonpayable","type":"function"}],"devdoc":{"errors":{"AlreadyClaimed(address,uint256,bytes32)":[{"params":{"amount":"The amount of checkmate token is claimed.","recipient":"The recipient of the claim.","root":"The root."}}],"InvalidClaimAmount(uint256)":[{"params":{"amount":"The amount of the claim."}}],"InvalidProof(address,uint256,uint16)":[{"params":{"amount":"The amount of checkmate token is claimed.","nonce":"The nonce of the root.","recipient":"The recipient of the checkmate token."}}],"MerkleRootNotExists(bytes32)":[{"params":{"root":"The root."}}],"NotContractOwner(address)":[{"params":{"account":"The account that was checked."}}],"TransferFailed(address,address,uint256)":[{"params":{"amount":"The amount of the claim.","payoutWallet":"The wallet sending out the checkmate token.","recipient":"The recipient of the claim."}}]},"events":{"MerkleRootSet(bytes32,uint16)":{"params":{"nonce":"The nonce assigned to the root.","root":"The new merkle root."}},"OwnershipTransferred(address,address)":{"params":{"newOwner":"the new contract owner.","previousOwner":"the previous contract owner."}},"PayoutClaimed(bytes32,address,address,uint256)":{"params":{"amount":"The amount of checkmate token is claimed.","payoutWallet":"The wallet sending out the checkmate token.","recipient":"The recipient of the checkmate token.","root":"The merkle root on which the claim was made."}},"PayoutWalletSet(address)":{"params":{"newPayoutWallet":"The new payout wallet."}},"TreasuryWalletSet(address)":{"params":{"newTreasuryWallet":"The new treasury wallet."}}},"kind":"dev","methods":{"claimAndStake(address,uint256,bytes32,bytes32[])":{"details":"Reverts with {InvalidClaimAmount} if it is claiming a zero amount.Reverts with {Paused} if contract is paused.Reverts with {MerkleRootNotExists} if the merkle root does not exist.Reverts with {InvalidProof} if the merkle proof has failed the verificationReverts with {AlreadyClaimed} if this specific payout has already been claimed.Emits a {PayoutClaimed} event.","params":{"amount":"The amount of checkmate token to be claimed.","proof":"The Merkle proof of the user based on the merkle root.","recipient":"The recipient for this claim.","root":"The root for this claim."}},"owner()":{"returns":{"_0":"The address of the contract owner."}},"pause()":{"details":"Reverts with {NotContractOwner} if the sender is not the contract owner.Reverts with {Paused} if the contract is paused.Emits a {Paused} event."},"paused()":{"returns":{"_0":"The paused state of the contract."}},"setMerkleRoot(bytes32)":{"details":"Reverts with {InvalidRoot} if the merkle root is zero.Reverts with {NotContractOwner} if the sender is not the contract owner.Emits a {MerkleRootSet} event.","params":{"merkleRoot":"The merkle root to be set."}},"setPayoutWallet(address)":{"details":"Reverts with {InvalidPayoutWallet} if the new payout wallet is zero address.Reverts with {NotContractOwner} if the sender is not the contract owner.Emits a {PayoutWalletSet} event.","params":{"newPayoutWallet":"The payout wallet to be set."}},"supportsInterface(bytes4)":{"details":"Note: This function call must use less than 30 000 gas.","params":{"interfaceId":"the interface identifier to test."},"returns":{"_0":"True if the interface is supported, false if `interfaceId` is `0xffffffff` or if the interface is not supported."}},"transferOwnership(address)":{"details":"Reverts if the sender is not the contract owner.Emits an {OwnershipTransferred} event if `newOwner` is different from the current contract owner.","params":{"newOwner":"The address of the new contract owner. Using the zero address means renouncing ownership."}},"unpause()":{"details":"Reverts with {NotContractOwner} if the sender is not the contract owner.Reverts with {NotPaused} if the contract is not paused.Emits an {Unpaused} event."}},"version":1},"evm":{"bytecode":{"linkReferences":{},"object":"60c060405234801561001057600080fd5b5060405161139238038061139283398101604081905261002f91610236565b336100428161003c6100e6565b9061011a565b506001600160a01b03831661006a57604051638246bfe760e01b815260040160405180910390fd5b6001600160a01b038216610091576040516307b18df360e31b815260040160405180910390fd5b6001600160a01b0381166100b85760405163620e5f7160e11b815260040160405180910390fd5b6001600160a01b0392831660805290821660a052600280546001600160a01b0319169190921617905561029a565b60008061011460017fc9ed16f33ab3a66c84bfd83099ccb2a8845871e2e1c1928f63797152f0fd54cd610279565b92915050565b6001600160a01b038116156101705781546001600160a01b0319166001600160a01b03821690811783556040516000907f8be0079c531659141344cd1fd0a4f28419497f9722a3daafe3b4186f6b6457e0908290a35b61018c6307f5828d60e41b6001610185610190565b91906101be565b5050565b60008061011460017fca9d3e17f264b0f3984e2634e94adb37fa3e6a8103f06aeae6fa59e21c769f5e610279565b600160e01b6001600160e01b03198316016101ec576040516372c683bb60e01b815260040160405180910390fd5b6001600160e01b03199190911660009081526020929092526040909120805460ff1916911515919091179055565b80516001600160a01b038116811461023157600080fd5b919050565b60008060006060848603121561024b57600080fd5b6102548461021a565b92506102626020850161021a565b91506102706040850161021a565b90509250925092565b8181038181111561011457634e487b7160e01b600052601160045260246000fd5b60805160a0516110c56102cd6000396000818161026e01526105c5015260008181610224015261059601526110c56000f3fe608060405234801561001057600080fd5b50600436106100f55760003560e01c80638456cb5911610097578063b1bb0c6c11610066578063b1bb0c6c1461021f578063cc3c0f0614610246578063da19ddfb14610269578063f2fde38b1461029057600080fd5b80638456cb59146101a45780638488bb4e146101ac5780638da5cb5b146101f1578063affed0e0146101f957600080fd5b80635c975abb116100d35780635c975abb1461013f5780636b8f9c43146101475780637505fee11461015a5780637cb647591461019157600080fd5b806301ffc9a7146100fa5780633f4ba83a14610122578063422a8b551461012c575b600080fd5b61010d610108366004610dfd565b6102a3565b60405190151581526020015b60405180910390f35b61012a6102bd565b005b61012a61013a366004610e68565b6102e2565b61010d610705565b61012a610155366004610f01565b61071e565b61017e610168366004610f1c565b60006020819052908152604090205461ffff1681565b60405161ffff9091168152602001610119565b61012a61019f366004610f1c565b6107e3565b61012a610902565b6002546101cc9073ffffffffffffffffffffffffffffffffffffffff1681565b60405173ffffffffffffffffffffffffffffffffffffffff9091168152602001610119565b6101cc61091b565b60025461017e9074010000000000000000000000000000000000000000900461ffff1681565b6101cc7f000000000000000000000000000000000000000000000000000000000000000081565b61010d610254366004610f1c565b60016020526000908152604090205460ff1681565b6101cc7f000000000000000000000000000000000000000000000000000000000000000081565b61012a61029e366004610f01565b610942565b60006102b7826102b1610959565b90610987565b92915050565b6102d0335b6102ca610a61565b90610a8f565b6102e06102db610afe565b610b2c565b565b83600003610324576040517f27ab1ee2000000000000000000000000000000000000000000000000000000008152600481018590526024015b60405180910390fd5b61033461032f610afe565b610b87565b60008381526020819052604081205461ffff1690819003610384576040517f1d3bbc3f0000000000000000000000000000000000000000000000000000000081526004810185905260240161031b565b6040517fffffffffffffffffffffffffffffffffffffffff000000000000000000000000606088901b166020820152603481018690527fffff00000000000000000000000000000000000000000000000000000000000060f083901b166054820152600090605601604080517fffffffffffffffffffffffffffffffffffffffffffffffffffffffffffffffe08184030181529190528051602090910120905061043084848784610bc3565b61048f576040517facfb186500000000000000000000000000000000000000000000000000000000815273ffffffffffffffffffffffffffffffffffffffff881660048201526024810187905261ffff8316604482015260640161031b565b60008181526001602052604090205460ff16156104fe576040517f685fced700000000000000000000000000000000000000000000000000000000815273ffffffffffffffffffffffffffffffffffffffff88166004820152602481018790526044810186905260640161031b565b600081815260016020818152604080842080547fffffffffffffffffffffffffffffffffffffffffffffffffffffffffffffff0016909317909255600254825173ffffffffffffffffffffffffffffffffffffffff8c81168285015284518083039094018452818501948590527fb88d4fde0000000000000000000000000000000000000000000000000000000090945290831693927f0000000000000000000000000000000000000000000000000000000000000000169163b88d4fde916105ef9186917f0000000000000000000000000000000000000000000000000000000000000000918e91604401610f35565b6020604051808303816000875af115801561060e573d6000803e3d6000fd5b505050506040513d601f19601f820116820180604052508101906106329190610fe2565b905080610692576040517fbf182be800000000000000000000000000000000000000000000000000000000815273ffffffffffffffffffffffffffffffffffffffff80841660048301528a1660248201526044810189905260640161031b565b8873ffffffffffffffffffffffffffffffffffffffff168273ffffffffffffffffffffffffffffffffffffffff16887f96a0bda4b1c283cf8feeb70ec1fc51c1f830f0548dc9f740b8d885079be891068b6040516106f291815260200190565b60405180910390a4505050505050505050565b6000610719610712610afe565b5460ff1690565b905090565b73ffffffffffffffffffffffffffffffffffffffff811661076b576040517fc41cbee200000000000000000000000000000000000000000000000000000000815260040160405180910390fd5b610774336102c2565b600280547fffffffffffffffffffffffff00000000000000000000000000000000000000001673ffffffffffffffffffffffffffffffffffffffff83169081179091556040517fdd880d24a789958a6398c99c2e54ce31bc10a638cbc42f7dd34285479ae0f85590600090a250565b600081900361081e576040517f504570e300000000000000000000000000000000000000000000000000000000815260040160405180910390fd5b610827336102c2565b6002546000906108549074010000000000000000000000000000000000000000900461ffff166001611033565b60008381526020819052604080822080547fffffffffffffffffffffffffffffffffffffffffffffffffffffffffffff00001661ffff8516908117909155600280547fffffffffffffffffffff0000ffffffffffffffffffffffffffffffffffffffff1674010000000000000000000000000000000000000000830217905590519293509184917fbb00584cc5258c6d02504d390995c03261d52c617c9171c16cb9edb00f672f3a91a35050565b61090b336102c2565b6102e0610916610afe565b610bdb565b6000610719610928610a61565b5473ffffffffffffffffffffffffffffffffffffffff1690565b610956338261094f610a61565b9190610c39565b50565b6000806102b760017fca9d3e17f264b0f3984e2634e94adb37fa3e6a8103f06aeae6fa59e21c769f5e61104d565b60007c01000000000000000000000000000000000000000000000000000000007fffffffff000000000000000000000000000000000000000000000000000000008316016109d7575060006102b7565b7ffe003659000000000000000000000000000000000000000000000000000000007fffffffff00000000000000000000000000000000000000000000000000000000831601610a28575060016102b7565b507fffffffff00000000000000000000000000000000000000000000000000000000166000908152602091909152604090205460ff1690565b6000806102b760017fc9ed16f33ab3a66c84bfd83099ccb2a8845871e2e1c1928f63797152f0fd54cd61104d565b815473ffffffffffffffffffffffffffffffffffffffff828116911614610afa576040517f2ef4875e00000000000000000000000000000000000000000000000000000000815273ffffffffffffffffffffffffffffffffffffffff8216600482015260240161031b565b5050565b6000806102b760017f0186a05f63b1553398ad5ea3233c0ce68b8c9eecc47717f123c5c2b42fbd6d9f61104d565b610b3581610d4e565b80547fffffffffffffffffffffffffffffffffffffffffffffffffffffffffffffff001681556040517f7805862f689e2f13df9f062ff482ad3ad112aca9e0847911ed832e158c525b3390600090a150565b805460ff1615610956576040517f9e87fac800000000000000000000000000000000000000000000000000000000815260040160405180910390fd5b600082610bd1868685610d89565b1495945050505050565b610be481610b87565b80547fffffffffffffffffffffffffffffffffffffffffffffffffffffffffffffff001660011781556040517f6985a02210a168e66602d3235cb6db0e70f92b3ba4d376a33c0f3d9434bff62590600090a150565b825473ffffffffffffffffffffffffffffffffffffffff9081169083168114610ca6576040517f2ef4875e00000000000000000000000000000000000000000000000000000000815273ffffffffffffffffffffffffffffffffffffffff8416600482015260240161031b565b8173ffffffffffffffffffffffffffffffffffffffff168173ffffffffffffffffffffffffffffffffffffffff1614610d485783547fffffffffffffffffffffffff00000000000000000000000000000000000000001673ffffffffffffffffffffffffffffffffffffffff8381169182178655604051908316907f8be0079c531659141344cd1fd0a4f28419497f9722a3daafe3b4186f6b6457e090600090a35b50505050565b805460ff16610956576040517f6cd6020100000000000000000000000000000000000000000000000000000000815260040160405180910390fd5b600081815b84811015610dc257610db882878784818110610dac57610dac611060565b90506020020135610dcb565b9150600101610d8e565b50949350505050565b6000818310610de7576000828152602084905260409020610df6565b60008381526020839052604090205b9392505050565b600060208284031215610e0f57600080fd5b81357fffffffff0000000000000000000000000000000000000000000000000000000081168114610df657600080fd5b803573ffffffffffffffffffffffffffffffffffffffff81168114610e6357600080fd5b919050565b600080600080600060808688031215610e8057600080fd5b610e8986610e3f565b94506020860135935060408601359250606086013567ffffffffffffffff811115610eb357600080fd5b8601601f81018813610ec457600080fd5b803567ffffffffffffffff811115610edb57600080fd5b8860208260051b8401011115610ef057600080fd5b959894975092955050506020019190565b600060208284031215610f1357600080fd5b610df682610e3f565b600060208284031215610f2e57600080fd5b5035919050565b73ffffffffffffffffffffffffffffffffffffffff8516815273ffffffffffffffffffffffffffffffffffffffff84166020820152826040820152608060608201526000825180608084015260005b81811015610fa157602081860181015160a0868401015201610f84565b50600060a0828501015260a07fffffffffffffffffffffffffffffffffffffffffffffffffffffffffffffffe0601f83011684010191505095945050505050565b600060208284031215610ff457600080fd5b81518015158114610df657600080fd5b7f4e487b7100000000000000000000000000000000000000000000000000000000600052601160045260246000fd5b61ffff81811683821601908111156102b7576102b7611004565b818103818111156102b7576102b7611004565b7f4e487b7100000000000000000000000000000000000000000000000000000000600052603260045260246000fdfea2646970667358221220a38206df15181e77868d951b70ea57d206d1480dbaafd8a9a97c43f891f0739964736f6c634300081c0033","opcodes":"PUSH1 0xC0 PUSH1 0x40 MSTORE CALLVALUE DUP1 ISZERO PUSH2 0x10 JUMPI PUSH1 0x0 DUP1 REVERT JUMPDEST POP PUSH1 0x40 MLOAD PUSH2 0x1392 CODESIZE SUB DUP1 PUSH2 0x1392 DUP4 CODECOPY DUP2 ADD PUSH1 0x40 DUP2 SWAP1 MSTORE PUSH2 0x2F SWAP2 PUSH2 0x236 JUMP JUMPDEST CALLER PUSH2 0x42 DUP2 PUSH2 0x3C PUSH2 0xE6 JUMP JUMPDEST SWAP1 PUSH2 0x11A JUMP JUMPDEST POP PUSH1 0x1 PUSH1 0x1 PUSH1 0xA0 SHL SUB DUP4 AND PUSH2 0x6A JUMPI PUSH1 0x40 MLOAD PUSH4 0x8246BFE7 PUSH1 0xE0 SHL DUP2 MSTORE PUSH1 0x4 ADD PUSH1 0x40 MLOAD DUP1 SWAP2 SUB SWAP1 REVERT JUMPDEST PUSH1 0x1 PUSH1 0x1 PUSH1 0xA0 SHL SUB DUP3 AND PUSH2 0x91 JUMPI PUSH1 0x40 MLOAD PUSH4 0x7B18DF3 PUSH1 0xE3 SHL DUP2 MSTORE PUSH1 0x4 ADD PUSH1 0x40 MLOAD DUP1 SWAP2 SUB SWAP1 REVERT JUMPDEST PUSH1 0x1 PUSH1 0x1 PUSH1 0xA0 SHL SUB DUP2 AND PUSH2 0xB8 JUMPI PUSH1 0x40 MLOAD PUSH4 0x620E5F71 PUSH1 0xE1 SHL DUP2 MSTORE PUSH1 0x4 ADD PUSH1 0x40 MLOAD DUP1 SWAP2 SUB SWAP1 REVERT JUMPDEST PUSH1 0x1 PUSH1 0x1 PUSH1 0xA0 SHL SUB SWAP3 DUP4 AND PUSH1 0x80 MSTORE SWAP1 DUP3 AND PUSH1 0xA0 MSTORE PUSH1 0x2 DUP1 SLOAD PUSH1 0x1 PUSH1 0x1 PUSH1 0xA0 SHL SUB NOT AND SWAP2 SWAP1 SWAP3 AND OR SWAP1 SSTORE PUSH2 0x29A JUMP JUMPDEST PUSH1 0x0 DUP1 PUSH2 0x114 PUSH1 0x1 PUSH32 0xC9ED16F33AB3A66C84BFD83099CCB2A8845871E2E1C1928F63797152F0FD54CD PUSH2 0x279 JUMP JUMPDEST SWAP3 SWAP2 POP POP JUMP JUMPDEST PUSH1 0x1 PUSH1 0x1 PUSH1 0xA0 SHL SUB DUP2 AND ISZERO PUSH2 0x170 JUMPI DUP2 SLOAD PUSH1 0x1 PUSH1 0x1 PUSH1 0xA0 SHL SUB NOT AND PUSH1 0x1 PUSH1 0x1 PUSH1 0xA0 SHL SUB DUP3 AND SWAP1 DUP2 OR DUP4 SSTORE PUSH1 0x40 MLOAD PUSH1 0x0 SWAP1 PUSH32 0x8BE0079C531659141344CD1FD0A4F28419497F9722A3DAAFE3B4186F6B6457E0 SWAP1 DUP3 SWAP1 LOG3 JUMPDEST PUSH2 0x18C PUSH4 0x7F5828D PUSH1 0xE4 SHL PUSH1 0x1 PUSH2 0x185 PUSH2 0x190 JUMP JUMPDEST SWAP2 SWAP1 PUSH2 0x1BE JUMP JUMPDEST POP POP JUMP JUMPDEST PUSH1 0x0 DUP1 PUSH2 0x114 PUSH1 0x1 PUSH32 0xCA9D3E17F264B0F3984E2634E94ADB37FA3E6A8103F06AEAE6FA59E21C769F5E PUSH2 0x279 JUMP JUMPDEST PUSH1 0x1 PUSH1 0xE0 SHL PUSH1 0x1 PUSH1 0x1 PUSH1 0xE0 SHL SUB NOT DUP4 AND ADD PUSH2 0x1EC JUMPI PUSH1 0x40 MLOAD PUSH4 0x72C683BB PUSH1 0xE0 SHL DUP2 MSTORE PUSH1 0x4 ADD PUSH1 0x40 MLOAD DUP1 SWAP2 SUB SWAP1 REVERT JUMPDEST PUSH1 0x1 PUSH1 0x1 PUSH1 0xE0 SHL SUB NOT SWAP2 SWAP1 SWAP2 AND PUSH1 0x0 SWAP1 DUP2 MSTORE PUSH1 0x20 SWAP3 SWAP1 SWAP3 MSTORE PUSH1 0x40 SWAP1 SWAP2 KECCAK256 DUP1 SLOAD PUSH1 0xFF NOT AND SWAP2 ISZERO ISZERO SWAP2 SWAP1 SWAP2 OR SWAP1 SSTORE JUMP JUMPDEST DUP1 MLOAD PUSH1 0x1 PUSH1 0x1 PUSH1 0xA0 SHL SUB DUP2 AND DUP2 EQ PUSH2 0x231 JUMPI PUSH1 0x0 DUP1 REVERT JUMPDEST SWAP2 SWAP1 POP JUMP JUMPDEST PUSH1 0x0 DUP1 PUSH1 0x0 PUSH1 0x60 DUP5 DUP7 SUB SLT ISZERO PUSH2 0x24B JUMPI PUSH1 0x0 DUP1 REVERT JUMPDEST PUSH2 0x254 DUP5 PUSH2 0x21A JUMP JUMPDEST SWAP3 POP PUSH2 0x262 PUSH1 0x20 DUP6 ADD PUSH2 0x21A JUMP JUMPDEST SWAP2 POP PUSH2 0x270 PUSH1 0x40 DUP6 ADD PUSH2 0x21A JUMP JUMPDEST SWAP1 POP SWAP3 POP SWAP3 POP SWAP3 JUMP JUMPDEST DUP2 DUP2 SUB DUP2 DUP2 GT ISZERO PUSH2 0x114 JUMPI PUSH4 0x4E487B71 PUSH1 0xE0 SHL PUSH1 0x0 MSTORE PUSH1 0x11 PUSH1 0x4 MSTORE PUSH1 0x24 PUSH1 0x0 REVERT JUMPDEST PUSH1 0x80 MLOAD PUSH1 0xA0 MLOAD PUSH2 0x10C5 PUSH2 0x2CD PUSH1 0x0 CODECOPY PUSH1 0x0 DUP2 DUP2 PUSH2 0x26E ADD MSTORE PUSH2 0x5C5 ADD MSTORE PUSH1 0x0 DUP2 DUP2 PUSH2 0x224 ADD MSTORE PUSH2 0x596 ADD MSTORE PUSH2 0x10C5 PUSH1 0x0 RETURN INVALID PUSH1 0x80 PUSH1 0x40 MSTORE CALLVALUE DUP1 ISZERO PUSH2 0x10 JUMPI PUSH1 0x0 DUP1 REVERT JUMPDEST POP PUSH1 0x4 CALLDATASIZE LT PUSH2 0xF5 JUMPI PUSH1 0x0 CALLDATALOAD PUSH1 0xE0 SHR DUP1 PUSH4 0x8456CB59 GT PUSH2 0x97 JUMPI DUP1 PUSH4 0xB1BB0C6C GT PUSH2 0x66 JUMPI DUP1 PUSH4 0xB1BB0C6C EQ PUSH2 0x21F JUMPI DUP1 PUSH4 0xCC3C0F06 EQ PUSH2 0x246 JUMPI DUP1 PUSH4 0xDA19DDFB EQ PUSH2 0x269 JUMPI DUP1 PUSH4 0xF2FDE38B EQ PUSH2 0x290 JUMPI PUSH1 0x0 DUP1 REVERT JUMPDEST DUP1 PUSH4 0x8456CB59 EQ PUSH2 0x1A4 JUMPI DUP1 PUSH4 0x8488BB4E EQ PUSH2 0x1AC JUMPI DUP1 PUSH4 0x8DA5CB5B EQ PUSH2 0x1F1 JUMPI DUP1 PUSH4 0xAFFED0E0 EQ PUSH2 0x1F9 JUMPI PUSH1 0x0 DUP1 REVERT JUMPDEST DUP1 PUSH4 0x5C975ABB GT PUSH2 0xD3 JUMPI DUP1 PUSH4 0x5C975ABB EQ PUSH2 0x13F JUMPI DUP1 PUSH4 0x6B8F9C43 EQ PUSH2 0x147 JUMPI DUP1 PUSH4 0x7505FEE1 EQ PUSH2 0x15A JUMPI DUP1 PUSH4 0x7CB64759 EQ PUSH2 0x191 JUMPI PUSH1 0x0 DUP1 REVERT JUMPDEST DUP1 PUSH4 0x1FFC9A7 EQ PUSH2 0xFA JUMPI DUP1 PUSH4 0x3F4BA83A EQ PUSH2 0x122 JUMPI DUP1 PUSH4 0x422A8B55 EQ PUSH2 0x12C JUMPI JUMPDEST PUSH1 0x0 DUP1 REVERT JUMPDEST PUSH2 0x10D PUSH2 0x108 CALLDATASIZE PUSH1 0x4 PUSH2 0xDFD JUMP JUMPDEST PUSH2 0x2A3 JUMP JUMPDEST PUSH1 0x40 MLOAD SWAP1 ISZERO ISZERO DUP2 MSTORE PUSH1 0x20 ADD JUMPDEST PUSH1 0x40 MLOAD DUP1 SWAP2 SUB SWAP1 RETURN JUMPDEST PUSH2 0x12A PUSH2 0x2BD JUMP JUMPDEST STOP JUMPDEST PUSH2 0x12A PUSH2 0x13A CALLDATASIZE PUSH1 0x4 PUSH2 0xE68 JUMP JUMPDEST PUSH2 0x2E2 JUMP JUMPDEST PUSH2 0x10D PUSH2 0x705 JUMP JUMPDEST PUSH2 0x12A PUSH2 0x155 CALLDATASIZE PUSH1 0x4 PUSH2 0xF01 JUMP JUMPDEST PUSH2 0x71E JUMP JUMPDEST PUSH2 0x17E PUSH2 0x168 CALLDATASIZE PUSH1 0x4 PUSH2 0xF1C JUMP JUMPDEST PUSH1 0x0 PUSH1 0x20 DUP2 SWAP1 MSTORE SWAP1 DUP2 MSTORE PUSH1 0x40 SWAP1 KECCAK256 SLOAD PUSH2 0xFFFF AND DUP2 JUMP JUMPDEST PUSH1 0x40 MLOAD PUSH2 0xFFFF SWAP1 SWAP2 AND DUP2 MSTORE PUSH1 0x20 ADD PUSH2 0x119 JUMP JUMPDEST PUSH2 0x12A PUSH2 0x19F CALLDATASIZE PUSH1 0x4 PUSH2 0xF1C JUMP JUMPDEST PUSH2 0x7E3 JUMP JUMPDEST PUSH2 0x12A PUSH2 0x902 JUMP JUMPDEST PUSH1 0x2 SLOAD PUSH2 0x1CC SWAP1 PUSH20 0xFFFFFFFFFFFFFFFFFFFFFFFFFFFFFFFFFFFFFFFF AND DUP2 JUMP JUMPDEST PUSH1 0x40 MLOAD PUSH20 0xFFFFFFFFFFFFFFFFFFFFFFFFFFFFFFFFFFFFFFFF SWAP1 SWAP2 AND DUP2 MSTORE PUSH1 0x20 ADD PUSH2 0x119 JUMP JUMPDEST PUSH2 0x1CC PUSH2 0x91B JUMP JUMPDEST PUSH1 0x2 SLOAD PUSH2 0x17E SWAP1 PUSH21 0x10000000000000000000000000000000000000000 SWAP1 DIV PUSH2 0xFFFF AND DUP2 JUMP JUMPDEST PUSH2 0x1CC PUSH32 0x0 DUP2 JUMP JUMPDEST PUSH2 0x10D PUSH2 0x254 CALLDATASIZE PUSH1 0x4 PUSH2 0xF1C JUMP JUMPDEST PUSH1 0x1 PUSH1 0x20 MSTORE PUSH1 0x0 SWAP1 DUP2 MSTORE PUSH1 0x40 SWAP1 KECCAK256 SLOAD PUSH1 0xFF AND DUP2 JUMP JUMPDEST PUSH2 0x1CC PUSH32 0x0 DUP2 JUMP JUMPDEST PUSH2 0x12A PUSH2 0x29E CALLDATASIZE PUSH1 0x4 PUSH2 0xF01 JUMP JUMPDEST PUSH2 0x942 JUMP JUMPDEST PUSH1 0x0 PUSH2 0x2B7 DUP3 PUSH2 0x2B1 PUSH2 0x959 JUMP JUMPDEST SWAP1 PUSH2 0x987 JUMP JUMPDEST SWAP3 SWAP2 POP POP JUMP JUMPDEST PUSH2 0x2D0 CALLER JUMPDEST PUSH2 0x2CA PUSH2 0xA61 JUMP JUMPDEST SWAP1 PUSH2 0xA8F JUMP JUMPDEST PUSH2 0x2E0 PUSH2 0x2DB PUSH2 0xAFE JUMP JUMPDEST PUSH2 0xB2C JUMP JUMPDEST JUMP JUMPDEST DUP4 PUSH1 0x0 SUB PUSH2 0x324 JUMPI PUSH1 0x40 MLOAD PUSH32 0x27AB1EE200000000000000000000000000000000000000000000000000000000 DUP2 MSTORE PUSH1 0x4 DUP2 ADD DUP6 SWAP1 MSTORE PUSH1 0x24 ADD JUMPDEST PUSH1 0x40 MLOAD DUP1 SWAP2 SUB SWAP1 REVERT JUMPDEST PUSH2 0x334 PUSH2 0x32F PUSH2 0xAFE JUMP JUMPDEST PUSH2 0xB87 JUMP JUMPDEST PUSH1 0x0 DUP4 DUP2 MSTORE PUSH1 0x20 DUP2 SWAP1 MSTORE PUSH1 0x40 DUP2 KECCAK256 SLOAD PUSH2 0xFFFF AND SWAP1 DUP2 SWAP1 SUB PUSH2 0x384 JUMPI PUSH1 0x40 MLOAD PUSH32 0x1D3BBC3F00000000000000000000000000000000000000000000000000000000 DUP2 MSTORE PUSH1 0x4 DUP2 ADD DUP6 SWAP1 MSTORE PUSH1 0x24 ADD PUSH2 0x31B JUMP JUMPDEST PUSH1 0x40 MLOAD PUSH32 0xFFFFFFFFFFFFFFFFFFFFFFFFFFFFFFFFFFFFFFFF000000000000000000000000 PUSH1 0x60 DUP9 SWAP1 SHL AND PUSH1 0x20 DUP3 ADD MSTORE PUSH1 0x34 DUP2 ADD DUP7 SWAP1 MSTORE PUSH32 0xFFFF000000000000000000000000000000000000000000000000000000000000 PUSH1 0xF0 DUP4 SWAP1 SHL AND PUSH1 0x54 DUP3 ADD MSTORE PUSH1 0x0 SWAP1 PUSH1 0x56 ADD PUSH1 0x40 DUP1 MLOAD PUSH32 0xFFFFFFFFFFFFFFFFFFFFFFFFFFFFFFFFFFFFFFFFFFFFFFFFFFFFFFFFFFFFFFE0 DUP2 DUP5 SUB ADD DUP2 MSTORE SWAP2 SWAP1 MSTORE DUP1 MLOAD PUSH1 0x20 SWAP1 SWAP2 ADD KECCAK256 SWAP1 POP PUSH2 0x430 DUP5 DUP5 DUP8 DUP5 PUSH2 0xBC3 JUMP JUMPDEST PUSH2 0x48F JUMPI PUSH1 0x40 MLOAD PUSH32 0xACFB186500000000000000000000000000000000000000000000000000000000 DUP2 MSTORE PUSH20 0xFFFFFFFFFFFFFFFFFFFFFFFFFFFFFFFFFFFFFFFF DUP9 AND PUSH1 0x4 DUP3 ADD MSTORE PUSH1 0x24 DUP2 ADD DUP8 SWAP1 MSTORE PUSH2 0xFFFF DUP4 AND PUSH1 0x44 DUP3 ADD MSTORE PUSH1 0x64 ADD PUSH2 0x31B JUMP JUMPDEST PUSH1 0x0 DUP2 DUP2 MSTORE PUSH1 0x1 PUSH1 0x20 MSTORE PUSH1 0x40 SWAP1 KECCAK256 SLOAD PUSH1 0xFF AND ISZERO PUSH2 0x4FE JUMPI PUSH1 0x40 MLOAD PUSH32 0x685FCED700000000000000000000000000000000000000000000000000000000 DUP2 MSTORE PUSH20 0xFFFFFFFFFFFFFFFFFFFFFFFFFFFFFFFFFFFFFFFF DUP9 AND PUSH1 0x4 DUP3 ADD MSTORE PUSH1 0x24 DUP2 ADD DUP8 SWAP1 MSTORE PUSH1 0x44 DUP2 ADD DUP7 SWAP1 MSTORE PUSH1 0x64 ADD PUSH2 0x31B JUMP JUMPDEST PUSH1 0x0 DUP2 DUP2 MSTORE PUSH1 0x1 PUSH1 0x20 DUP2 DUP2 MSTORE PUSH1 0x40 DUP1 DUP5 KECCAK256 DUP1 SLOAD PUSH32 0xFFFFFFFFFFFFFFFFFFFFFFFFFFFFFFFFFFFFFFFFFFFFFFFFFFFFFFFFFFFFFF00 AND SWAP1 SWAP4 OR SWAP1 SWAP3 SSTORE PUSH1 0x2 SLOAD DUP3 MLOAD PUSH20 0xFFFFFFFFFFFFFFFFFFFFFFFFFFFFFFFFFFFFFFFF DUP13 DUP2 AND DUP3 DUP6 ADD MSTORE DUP5 MLOAD DUP1 DUP4 SUB SWAP1 SWAP5 ADD DUP5 MSTORE DUP2 DUP6 ADD SWAP5 DUP6 SWAP1 MSTORE PUSH32 0xB88D4FDE00000000000000000000000000000000000000000000000000000000 SWAP1 SWAP5 MSTORE SWAP1 DUP4 AND SWAP4 SWAP3 PUSH32 0x0 AND SWAP2 PUSH4 0xB88D4FDE SWAP2 PUSH2 0x5EF SWAP2 DUP7 SWAP2 PUSH32 0x0 SWAP2 DUP15 SWAP2 PUSH1 0x44 ADD PUSH2 0xF35 JUMP JUMPDEST PUSH1 0x20 PUSH1 0x40 MLOAD DUP1 DUP4 SUB DUP2 PUSH1 0x0 DUP8 GAS CALL ISZERO DUP1 ISZERO PUSH2 0x60E JUMPI RETURNDATASIZE PUSH1 0x0 DUP1 RETURNDATACOPY RETURNDATASIZE PUSH1 0x0 REVERT JUMPDEST POP POP POP POP PUSH1 0x40 MLOAD RETURNDATASIZE PUSH1 0x1F NOT PUSH1 0x1F DUP3 ADD AND DUP3 ADD DUP1 PUSH1 0x40 MSTORE POP DUP2 ADD SWAP1 PUSH2 0x632 SWAP2 SWAP1 PUSH2 0xFE2 JUMP JUMPDEST SWAP1 POP DUP1 PUSH2 0x692 JUMPI PUSH1 0x40 MLOAD PUSH32 0xBF182BE800000000000000000000000000000000000000000000000000000000 DUP2 MSTORE PUSH20 0xFFFFFFFFFFFFFFFFFFFFFFFFFFFFFFFFFFFFFFFF DUP1 DUP5 AND PUSH1 0x4 DUP4 ADD MSTORE DUP11 AND PUSH1 0x24 DUP3 ADD MSTORE PUSH1 0x44 DUP2 ADD DUP10 SWAP1 MSTORE PUSH1 0x64 ADD PUSH2 0x31B JUMP JUMPDEST DUP9 PUSH20 0xFFFFFFFFFFFFFFFFFFFFFFFFFFFFFFFFFFFFFFFF AND DUP3 PUSH20 0xFFFFFFFFFFFFFFFFFFFFFFFFFFFFFFFFFFFFFFFF AND DUP9 PUSH32 0x96A0BDA4B1C283CF8FEEB70EC1FC51C1F830F0548DC9F740B8D885079BE89106 DUP12 PUSH1 0x40 MLOAD PUSH2 0x6F2 SWAP2 DUP2 MSTORE PUSH1 0x20 ADD SWAP1 JUMP JUMPDEST PUSH1 0x40 MLOAD DUP1 SWAP2 SUB SWAP1 LOG4 POP POP POP POP POP POP POP POP POP JUMP JUMPDEST PUSH1 0x0 PUSH2 0x719 PUSH2 0x712 PUSH2 0xAFE JUMP JUMPDEST SLOAD PUSH1 0xFF AND SWAP1 JUMP JUMPDEST SWAP1 POP SWAP1 JUMP JUMPDEST PUSH20 0xFFFFFFFFFFFFFFFFFFFFFFFFFFFFFFFFFFFFFFFF DUP2 AND PUSH2 0x76B JUMPI PUSH1 0x40 MLOAD PUSH32 0xC41CBEE200000000000000000000000000000000000000000000000000000000 DUP2 MSTORE PUSH1 0x4 ADD PUSH1 0x40 MLOAD DUP1 SWAP2 SUB SWAP1 REVERT JUMPDEST PUSH2 0x774 CALLER PUSH2 0x2C2 JUMP JUMPDEST PUSH1 0x2 DUP1 SLOAD PUSH32 0xFFFFFFFFFFFFFFFFFFFFFFFF0000000000000000000000000000000000000000 AND PUSH20 0xFFFFFFFFFFFFFFFFFFFFFFFFFFFFFFFFFFFFFFFF DUP4 AND SWAP1 DUP2 OR SWAP1 SWAP2 SSTORE PUSH1 0x40 MLOAD PUSH32 0xDD880D24A789958A6398C99C2E54CE31BC10A638CBC42F7DD34285479AE0F855 SWAP1 PUSH1 0x0 SWAP1 LOG2 POP JUMP JUMPDEST PUSH1 0x0 DUP2 SWAP1 SUB PUSH2 0x81E JUMPI PUSH1 0x40 MLOAD PUSH32 0x504570E300000000000000000000000000000000000000000000000000000000 DUP2 MSTORE PUSH1 0x4 ADD PUSH1 0x40 MLOAD DUP1 SWAP2 SUB SWAP1 REVERT JUMPDEST PUSH2 0x827 CALLER PUSH2 0x2C2 JUMP JUMPDEST PUSH1 0x2 SLOAD PUSH1 0x0 SWAP1 PUSH2 0x854 SWAP1 PUSH21 0x10000000000000000000000000000000000000000 SWAP1 DIV PUSH2 0xFFFF AND PUSH1 0x1 PUSH2 0x1033 JUMP JUMPDEST PUSH1 0x0 DUP4 DUP2 MSTORE PUSH1 0x20 DUP2 SWAP1 MSTORE PUSH1 0x40 DUP1 DUP3 KECCAK256 DUP1 SLOAD PUSH32 0xFFFFFFFFFFFFFFFFFFFFFFFFFFFFFFFFFFFFFFFFFFFFFFFFFFFFFFFFFFFF0000 AND PUSH2 0xFFFF DUP6 AND SWAP1 DUP2 OR SWAP1 SWAP2 SSTORE PUSH1 0x2 DUP1 SLOAD PUSH32 0xFFFFFFFFFFFFFFFFFFFF0000FFFFFFFFFFFFFFFFFFFFFFFFFFFFFFFFFFFFFFFF AND PUSH21 0x10000000000000000000000000000000000000000 DUP4 MUL OR SWAP1 SSTORE SWAP1 MLOAD SWAP3 SWAP4 POP SWAP2 DUP5 SWAP2 PUSH32 0xBB00584CC5258C6D02504D390995C03261D52C617C9171C16CB9EDB00F672F3A SWAP2 LOG3 POP POP JUMP JUMPDEST PUSH2 0x90B CALLER PUSH2 0x2C2 JUMP JUMPDEST PUSH2 0x2E0 PUSH2 0x916 PUSH2 0xAFE JUMP JUMPDEST PUSH2 0xBDB JUMP JUMPDEST PUSH1 0x0 PUSH2 0x719 PUSH2 0x928 PUSH2 0xA61 JUMP JUMPDEST SLOAD PUSH20 0xFFFFFFFFFFFFFFFFFFFFFFFFFFFFFFFFFFFFFFFF AND SWAP1 JUMP JUMPDEST PUSH2 0x956 CALLER DUP3 PUSH2 0x94F PUSH2 0xA61 JUMP JUMPDEST SWAP2 SWAP1 PUSH2 0xC39 JUMP JUMPDEST POP JUMP JUMPDEST PUSH1 0x0 DUP1 PUSH2 0x2B7 PUSH1 0x1 PUSH32 0xCA9D3E17F264B0F3984E2634E94ADB37FA3E6A8103F06AEAE6FA59E21C769F5E PUSH2 0x104D JUMP JUMPDEST PUSH1 0x0 PUSH29 0x100000000000000000000000000000000000000000000000000000000 PUSH32 0xFFFFFFFF00000000000000000000000000000000000000000000000000000000 DUP4 AND ADD PUSH2 0x9D7 JUMPI POP PUSH1 0x0 PUSH2 0x2B7 JUMP JUMPDEST PUSH32 0xFE00365900000000000000000000000000000000000000000000000000000000 PUSH32 0xFFFFFFFF00000000000000000000000000000000000000000000000000000000 DUP4 AND ADD PUSH2 0xA28 JUMPI POP PUSH1 0x1 PUSH2 0x2B7 JUMP JUMPDEST POP PUSH32 0xFFFFFFFF00000000000000000000000000000000000000000000000000000000 AND PUSH1 0x0 SWAP1 DUP2 MSTORE PUSH1 0x20 SWAP2 SWAP1 SWAP2 MSTORE PUSH1 0x40 SWAP1 KECCAK256 SLOAD PUSH1 0xFF AND SWAP1 JUMP JUMPDEST PUSH1 0x0 DUP1 PUSH2 0x2B7 PUSH1 0x1 PUSH32 0xC9ED16F33AB3A66C84BFD83099CCB2A8845871E2E1C1928F63797152F0FD54CD PUSH2 0x104D JUMP JUMPDEST DUP2 SLOAD PUSH20 0xFFFFFFFFFFFFFFFFFFFFFFFFFFFFFFFFFFFFFFFF DUP3 DUP2 AND SWAP2 AND EQ PUSH2 0xAFA JUMPI PUSH1 0x40 MLOAD PUSH32 0x2EF4875E00000000000000000000000000000000000000000000000000000000 DUP2 MSTORE PUSH20 0xFFFFFFFFFFFFFFFFFFFFFFFFFFFFFFFFFFFFFFFF DUP3 AND PUSH1 0x4 DUP3 ADD MSTORE PUSH1 0x24 ADD PUSH2 0x31B JUMP JUMPDEST POP POP JUMP JUMPDEST PUSH1 0x0 DUP1 PUSH2 0x2B7 PUSH1 0x1 PUSH32 0x186A05F63B1553398AD5EA3233C0CE68B8C9EECC47717F123C5C2B42FBD6D9F PUSH2 0x104D JUMP JUMPDEST PUSH2 0xB35 DUP2 PUSH2 0xD4E JUMP JUMPDEST DUP1 SLOAD PUSH32 0xFFFFFFFFFFFFFFFFFFFFFFFFFFFFFFFFFFFFFFFFFFFFFFFFFFFFFFFFFFFFFF00 AND DUP2 SSTORE PUSH1 0x40 MLOAD PUSH32 0x7805862F689E2F13DF9F062FF482AD3AD112ACA9E0847911ED832E158C525B33 SWAP1 PUSH1 0x0 SWAP1 LOG1 POP JUMP JUMPDEST DUP1 SLOAD PUSH1 0xFF AND ISZERO PUSH2 0x956 JUMPI PUSH1 0x40 MLOAD PUSH32 0x9E87FAC800000000000000000000000000000000000000000000000000000000 DUP2 MSTORE PUSH1 0x4 ADD PUSH1 0x40 MLOAD DUP1 SWAP2 SUB SWAP1 REVERT JUMPDEST PUSH1 0x0 DUP3 PUSH2 0xBD1 DUP7 DUP7 DUP6 PUSH2 0xD89 JUMP JUMPDEST EQ SWAP6 SWAP5 POP POP POP POP POP JUMP JUMPDEST PUSH2 0xBE4 DUP2 PUSH2 0xB87 JUMP JUMPDEST DUP1 SLOAD PUSH32 0xFFFFFFFFFFFFFFFFFFFFFFFFFFFFFFFFFFFFFFFFFFFFFFFFFFFFFFFFFFFFFF00 AND PUSH1 0x1 OR DUP2 SSTORE PUSH1 0x40 MLOAD PUSH32 0x6985A02210A168E66602D3235CB6DB0E70F92B3BA4D376A33C0F3D9434BFF625 SWAP1 PUSH1 0x0 SWAP1 LOG1 POP JUMP JUMPDEST DUP3 SLOAD PUSH20 0xFFFFFFFFFFFFFFFFFFFFFFFFFFFFFFFFFFFFFFFF SWAP1 DUP2 AND SWAP1 DUP4 AND DUP2 EQ PUSH2 0xCA6 JUMPI PUSH1 0x40 MLOAD PUSH32 0x2EF4875E00000000000000000000000000000000000000000000000000000000 DUP2 MSTORE PUSH20 0xFFFFFFFFFFFFFFFFFFFFFFFFFFFFFFFFFFFFFFFF DUP5 AND PUSH1 0x4 DUP3 ADD MSTORE PUSH1 0x24 ADD PUSH2 0x31B JUMP JUMPDEST DUP2 PUSH20 0xFFFFFFFFFFFFFFFFFFFFFFFFFFFFFFFFFFFFFFFF AND DUP2 PUSH20 0xFFFFFFFFFFFFFFFFFFFFFFFFFFFFFFFFFFFFFFFF AND EQ PUSH2 0xD48 JUMPI DUP4 SLOAD PUSH32 0xFFFFFFFFFFFFFFFFFFFFFFFF0000000000000000000000000000000000000000 AND PUSH20 0xFFFFFFFFFFFFFFFFFFFFFFFFFFFFFFFFFFFFFFFF DUP4 DUP2 AND SWAP2 DUP3 OR DUP7 SSTORE PUSH1 0x40 MLOAD SWAP1 DUP4 AND SWAP1 PUSH32 0x8BE0079C531659141344CD1FD0A4F28419497F9722A3DAAFE3B4186F6B6457E0 SWAP1 PUSH1 0x0 SWAP1 LOG3 JUMPDEST POP POP POP POP JUMP JUMPDEST DUP1 SLOAD PUSH1 0xFF AND PUSH2 0x956 JUMPI PUSH1 0x40 MLOAD PUSH32 0x6CD6020100000000000000000000000000000000000000000000000000000000 DUP2 MSTORE PUSH1 0x4 ADD PUSH1 0x40 MLOAD DUP1 SWAP2 SUB SWAP1 REVERT JUMPDEST PUSH1 0x0 DUP2 DUP2 JUMPDEST DUP5 DUP2 LT ISZERO PUSH2 0xDC2 JUMPI PUSH2 0xDB8 DUP3 DUP8 DUP8 DUP5 DUP2 DUP2 LT PUSH2 0xDAC JUMPI PUSH2 0xDAC PUSH2 0x1060 JUMP JUMPDEST SWAP1 POP PUSH1 0x20 MUL ADD CALLDATALOAD PUSH2 0xDCB JUMP JUMPDEST SWAP2 POP PUSH1 0x1 ADD PUSH2 0xD8E JUMP JUMPDEST POP SWAP5 SWAP4 POP POP POP POP JUMP JUMPDEST PUSH1 0x0 DUP2 DUP4 LT PUSH2 0xDE7 JUMPI PUSH1 0x0 DUP3 DUP2 MSTORE PUSH1 0x20 DUP5 SWAP1 MSTORE PUSH1 0x40 SWAP1 KECCAK256 PUSH2 0xDF6 JUMP JUMPDEST PUSH1 0x0 DUP4 DUP2 MSTORE PUSH1 0x20 DUP4 SWAP1 MSTORE PUSH1 0x40 SWAP1 KECCAK256 JUMPDEST SWAP4 SWAP3 POP POP POP JUMP JUMPDEST PUSH1 0x0 PUSH1 0x20 DUP3 DUP5 SUB SLT ISZERO PUSH2 0xE0F JUMPI PUSH1 0x0 DUP1 REVERT JUMPDEST DUP2 CALLDATALOAD PUSH32 0xFFFFFFFF00000000000000000000000000000000000000000000000000000000 DUP2 AND DUP2 EQ PUSH2 0xDF6 JUMPI PUSH1 0x0 DUP1 REVERT JUMPDEST DUP1 CALLDATALOAD PUSH20 0xFFFFFFFFFFFFFFFFFFFFFFFFFFFFFFFFFFFFFFFF DUP2 AND DUP2 EQ PUSH2 0xE63 JUMPI PUSH1 0x0 DUP1 REVERT JUMPDEST SWAP2 SWAP1 POP JUMP JUMPDEST PUSH1 0x0 DUP1 PUSH1 0x0 DUP1 PUSH1 0x0 PUSH1 0x80 DUP7 DUP9 SUB SLT ISZERO PUSH2 0xE80 JUMPI PUSH1 0x0 DUP1 REVERT JUMPDEST PUSH2 0xE89 DUP7 PUSH2 0xE3F JUMP JUMPDEST SWAP5 POP PUSH1 0x20 DUP7 ADD CALLDATALOAD SWAP4 POP PUSH1 0x40 DUP7 ADD CALLDATALOAD SWAP3 POP PUSH1 0x60 DUP7 ADD CALLDATALOAD PUSH8 0xFFFFFFFFFFFFFFFF DUP2 GT ISZERO PUSH2 0xEB3 JUMPI PUSH1 0x0 DUP1 REVERT JUMPDEST DUP7 ADD PUSH1 0x1F DUP2 ADD DUP9 SGT PUSH2 0xEC4 JUMPI PUSH1 0x0 DUP1 REVERT JUMPDEST DUP1 CALLDATALOAD PUSH8 0xFFFFFFFFFFFFFFFF DUP2 GT ISZERO PUSH2 0xEDB JUMPI PUSH1 0x0 DUP1 REVERT JUMPDEST DUP9 PUSH1 0x20 DUP3 PUSH1 0x5 SHL DUP5 ADD ADD GT ISZERO PUSH2 0xEF0 JUMPI PUSH1 0x0 DUP1 REVERT JUMPDEST SWAP6 SWAP9 SWAP5 SWAP8 POP SWAP3 SWAP6 POP POP POP PUSH1 0x20 ADD SWAP2 SWAP1 JUMP JUMPDEST PUSH1 0x0 PUSH1 0x20 DUP3 DUP5 SUB SLT ISZERO PUSH2 0xF13 JUMPI PUSH1 0x0 DUP1 REVERT JUMPDEST PUSH2 0xDF6 DUP3 PUSH2 0xE3F JUMP JUMPDEST PUSH1 0x0 PUSH1 0x20 DUP3 DUP5 SUB SLT ISZERO PUSH2 0xF2E JUMPI PUSH1 0x0 DUP1 REVERT JUMPDEST POP CALLDATALOAD SWAP2 SWAP1 POP JUMP JUMPDEST PUSH20 0xFFFFFFFFFFFFFFFFFFFFFFFFFFFFFFFFFFFFFFFF DUP6 AND DUP2 MSTORE PUSH20 0xFFFFFFFFFFFFFFFFFFFFFFFFFFFFFFFFFFFFFFFF DUP5 AND PUSH1 0x20 DUP3 ADD MSTORE DUP3 PUSH1 0x40 DUP3 ADD MSTORE PUSH1 0x80 PUSH1 0x60 DUP3 ADD MSTORE PUSH1 0x0 DUP3 MLOAD DUP1 PUSH1 0x80 DUP5 ADD MSTORE PUSH1 0x0 JUMPDEST DUP2 DUP2 LT ISZERO PUSH2 0xFA1 JUMPI PUSH1 0x20 DUP2 DUP7 ADD DUP2 ADD MLOAD PUSH1 0xA0 DUP7 DUP5 ADD ADD MSTORE ADD PUSH2 0xF84 JUMP JUMPDEST POP PUSH1 0x0 PUSH1 0xA0 DUP3 DUP6 ADD ADD MSTORE PUSH1 0xA0 PUSH32 0xFFFFFFFFFFFFFFFFFFFFFFFFFFFFFFFFFFFFFFFFFFFFFFFFFFFFFFFFFFFFFFE0 PUSH1 0x1F DUP4 ADD AND DUP5 ADD ADD SWAP2 POP POP SWAP6 SWAP5 POP POP POP POP POP JUMP JUMPDEST PUSH1 0x0 PUSH1 0x20 DUP3 DUP5 SUB SLT ISZERO PUSH2 0xFF4 JUMPI PUSH1 0x0 DUP1 REVERT JUMPDEST DUP2 MLOAD DUP1 ISZERO ISZERO DUP2 EQ PUSH2 0xDF6 JUMPI PUSH1 0x0 DUP1 REVERT JUMPDEST PUSH32 0x4E487B7100000000000000000000000000000000000000000000000000000000 PUSH1 0x0 MSTORE PUSH1 0x11 PUSH1 0x4 MSTORE PUSH1 0x24 PUSH1 0x0 REVERT JUMPDEST PUSH2 0xFFFF DUP2 DUP2 AND DUP4 DUP3 AND ADD SWAP1 DUP2 GT ISZERO PUSH2 0x2B7 JUMPI PUSH2 0x2B7 PUSH2 0x1004 JUMP JUMPDEST DUP2 DUP2 SUB DUP2 DUP2 GT ISZERO PUSH2 0x2B7 JUMPI PUSH2 0x2B7 PUSH2 0x1004 JUMP JUMPDEST PUSH32 0x4E487B7100000000000000000000000000000000000000000000000000000000 PUSH1 0x0 MSTORE PUSH1 0x32 PUSH1 0x4 MSTORE PUSH1 0x24 PUSH1 0x0 REVERT INVALID LOG2 PUSH5 0x6970667358 0x22 SLT KECCAK256 LOG3 DUP3 MOD 0xDF ISZERO XOR 0x1E PUSH24 0x868D951B70EA57D206D1480DBAAFD8A9A97C43F891F07399 PUSH5 0x736F6C6343 STOP ADDMOD SHR STOP CALLER "},"gasEstimates":{"creation":{"codeDepositCost":"858600","executionCost":"infinite","totalCost":"infinite"},"external":{"CHECKMATE_TOKEN_CONTRACT()":"infinite","STAKING_CONTRACT()":"infinite","claimAndStake(address,uint256,bytes32,bytes32[])":"infinite","claimed(bytes32)":"2483","nonce()":"2413","owner()":"infinite","pause()":"infinite","paused()":"infinite","payoutWallet()":"2358","rootToNonceMap(bytes32)":"2523","setMerkleRoot(bytes32)":"infinite","setPayoutWallet(address)":"infinite","supportsInterface(bytes4)":"infinite","transferOwnership(address)":"infinite","unpause()":"infinite"}},"methodIdentifiers":{"CHECKMATE_TOKEN_CONTRACT()":"b1bb0c6c","STAKING_CONTRACT()":"da19ddfb","claimAndStake(address,uint256,bytes32,bytes32[])":"422a8b55","claimed(bytes32)":"cc3c0f06","nonce()":"affed0e0","owner()":"8da5cb5b","pause()":"8456cb59","paused()":"5c975abb","payoutWallet()":"8488bb4e","rootToNonceMap(bytes32)":"7505fee1","setMerkleRoot(bytes32)":"7cb64759","setPayoutWallet(address)":"6b8f9c43","supportsInterface(bytes4)":"01ffc9a7","transferOwnership(address)":"f2fde38b","unpause()":"3f4ba83a"}},"storageLayout":{"storage":[{"astId":5466,"contract":"contracts/merkleClaim/CheckmateMerkleClaim.sol:CheckmateMerkleClaim","label":"rootToNonceMap","offset":0,"slot":"0","type":"t_mapping(t_bytes32,t_uint16)"},{"astId":5471,"contract":"contracts/merkleClaim/CheckmateMerkleClaim.sol:CheckmateMerkleClaim","label":"claimed","offset":0,"slot":"1","type":"t_mapping(t_bytes32,t_bool)"},{"astId":5474,"contract":"contracts/merkleClaim/CheckmateMerkleClaim.sol:CheckmateMerkleClaim","label":"payoutWallet","offset":0,"slot":"2","type":"t_address"},{"astId":5477,"contract":"contracts/merkleClaim/CheckmateMerkleClaim.sol:CheckmateMerkleClaim","label":"nonce","offset":20,"slot":"2","type":"t_uint16"}],"types":{"t_address":{"encoding":"inplace","label":"address","numberOfBytes":"20"},"t_bool":{"encoding":"inplace","label":"bool","numberOfBytes":"1"},"t_bytes32":{"encoding":"inplace","label":"bytes32","numberOfBytes":"32"},"t_mapping(t_bytes32,t_bool)":{"encoding":"mapping","key":"t_bytes32","label":"mapping(bytes32 => bool)","numberOfBytes":"32","value":"t_bool"},"t_mapping(t_bytes32,t_uint16)":{"encoding":"mapping","key":"t_bytes32","label":"mapping(bytes32 => uint16)","numberOfBytes":"32","value":"t_uint16"},"t_uint16":{"encoding":"inplace","label":"uint16","numberOfBytes":"2"}}},"userdoc":{"errors":{"AlreadyClaimed(address,uint256,bytes32)":[{"notice":"Thrown when trying to claim the same leaf more than once."}],"IllegalInterfaceId()":[{"notice":"Thrown when setting the illegal interfaceId 0xffffffff."}],"InvalidCheckmateTokenContract()":[{"notice":"Thrown when the checkmate token contract address is invalid."}],"InvalidClaimAmount(uint256)":[{"notice":"Thrown when the claim amount is zero."}],"InvalidForwarderRegistry()":[{"notice":"Thrown when the given forwarder registry address is zero address."}],"InvalidPayoutWallet()":[{"notice":"Thrown when the given payout wallet address is zero address."}],"InvalidProof(address,uint256,uint16)":[{"notice":"Thrown when a proof cannot be verified."}],"InvalidRoot()":[{"notice":"Thrown when the given root is zero."}],"InvalidStakingContract()":[{"notice":"Thrown when the staking contract address is invalid."}],"MerkleRootNotExists(bytes32)":[{"notice":"Thrown when the merkle root does not exist."}],"NotContractOwner(address)":[{"notice":"Thrown when an account is not the contract owner but is required to."}],"NotPaused()":[{"notice":"Thrown when the contract is not paused but is required to."}],"Paused()":[{"notice":"Thrown when the contract is paused but is required not to."}],"TransferFailed(address,address,uint256)":[{"notice":"Thrown when checkmate token transfer failed."}]},"events":{"MerkleRootSet(bytes32,uint16)":{"notice":"Emitted when a new merkle root is set."},"OwnershipTransferred(address,address)":{"notice":"Emitted when the contract ownership changes."},"Pause()":{"notice":"Emitted when the pause is triggered."},"PayoutClaimed(bytes32,address,address,uint256)":{"notice":"Emitted when a payout is claimed."},"PayoutWalletSet(address)":{"notice":"Emitted when a new payout wallet is set."},"TreasuryWalletSet(address)":{"notice":"Emitted when a new treasury wallet is set."},"Unpause()":{"notice":"Emitted when the pause is lifted."}},"kind":"user","methods":{"CHECKMATE_TOKEN_CONTRACT()":{"notice":"a reference to checkmate token contract"},"STAKING_CONTRACT()":{"notice":"a reference to staking contract"},"claimAndStake(address,uint256,bytes32,bytes32[])":{"notice":"Executes the payout for a given recipient address (anyone can call this function) and stake the payout right away."},"claimed(bytes32)":{"notice":"leaf hash to claimed state"},"nonce()":{"notice":"Store the nonce"},"owner()":{"notice":"Gets the address of the contract owner."},"pause()":{"notice":"Pauses the contract."},"paused()":{"notice":"Gets the paused state of the contract."},"payoutWallet()":{"notice":"Store the payout wallet address for transfering checkmate token"},"rootToNonceMap(bytes32)":{"notice":"Store the merkle root to nonce mapping"},"setMerkleRoot(bytes32)":{"notice":"Sets the new merkle root with current nonce for claiming."},"setPayoutWallet(address)":{"notice":"Sets the new payout wallet."},"supportsInterface(bytes4)":{"notice":"Returns whether this contract implements a given interface."},"transferOwnership(address)":{"notice":"Sets the address of the new contract owner."},"unpause()":{"notice":"Unpauses the contract."}},"version":1}}}}