{"contracts/mocks/ERC20/ERC20ReceiverMock.sol":{"ERC20ReceiverMock":{"abi":[{"inputs":[{"internalType":"address","name":"","type":"address"},{"internalType":"address","name":"","type":"address"},{"internalType":"uint256","name":"","type":"uint256"},{"internalType":"bytes","name":"","type":"bytes"}],"name":"onERC20Received","outputs":[{"internalType":"bytes4","name":"","type":"bytes4"}],"stateMutability":"pure","type":"function"}],"devdoc":{"kind":"dev","methods":{},"version":1},"evm":{"bytecode":{"linkReferences":{},"object":"6080604052348015600f57600080fd5b506101998061001f6000396000f3fe608060405234801561001057600080fd5b506004361061002b5760003560e01c80634fc3585914610030575b600080fd5b61006861003e3660046100c6565b7f4fc358590000000000000000000000000000000000000000000000000000000095945050505050565b6040517fffffffff00000000000000000000000000000000000000000000000000000000909116815260200160405180910390f35b803573ffffffffffffffffffffffffffffffffffffffff811681146100c157600080fd5b919050565b6000806000806000608086880312156100de57600080fd5b6100e78661009d565b94506100f56020870161009d565b935060408601359250606086013567ffffffffffffffff81111561011857600080fd5b8601601f8101881361012957600080fd5b803567ffffffffffffffff81111561014057600080fd5b88602082840101111561015257600080fd5b95989497509295505050602001919056fea2646970667358221220bd8700687f44bbeeb29e64bf712b32acbeec6dc976e13a32fcb070b77bfd8eaa64736f6c634300081c0033","opcodes":"PUSH1 0x80 PUSH1 0x40 MSTORE CALLVALUE DUP1 ISZERO PUSH1 0xF JUMPI PUSH1 0x0 DUP1 REVERT JUMPDEST POP PUSH2 0x199 DUP1 PUSH2 0x1F PUSH1 0x0 CODECOPY PUSH1 0x0 RETURN INVALID PUSH1 0x80 PUSH1 0x40 MSTORE CALLVALUE DUP1 ISZERO PUSH2 0x10 JUMPI PUSH1 0x0 DUP1 REVERT JUMPDEST POP PUSH1 0x4 CALLDATASIZE LT PUSH2 0x2B JUMPI PUSH1 0x0 CALLDATALOAD PUSH1 0xE0 SHR DUP1 PUSH4 0x4FC35859 EQ PUSH2 0x30 JUMPI JUMPDEST PUSH1 0x0 DUP1 REVERT JUMPDEST PUSH2 0x68 PUSH2 0x3E CALLDATASIZE PUSH1 0x4 PUSH2 0xC6 JUMP JUMPDEST PUSH32 0x4FC3585900000000000000000000000000000000000000000000000000000000 SWAP6 SWAP5 POP POP POP POP POP JUMP JUMPDEST PUSH1 0x40 MLOAD PUSH32 0xFFFFFFFF00000000000000000000000000000000000000000000000000000000 SWAP1 SWAP2 AND DUP2 MSTORE PUSH1 0x20 ADD PUSH1 0x40 MLOAD DUP1 SWAP2 SUB SWAP1 RETURN JUMPDEST DUP1 CALLDATALOAD PUSH20 0xFFFFFFFFFFFFFFFFFFFFFFFFFFFFFFFFFFFFFFFF DUP2 AND DUP2 EQ PUSH2 0xC1 JUMPI PUSH1 0x0 DUP1 REVERT JUMPDEST SWAP2 SWAP1 POP JUMP JUMPDEST PUSH1 0x0 DUP1 PUSH1 0x0 DUP1 PUSH1 0x0 PUSH1 0x80 DUP7 DUP9 SUB SLT ISZERO PUSH2 0xDE JUMPI PUSH1 0x0 DUP1 REVERT JUMPDEST PUSH2 0xE7 DUP7 PUSH2 0x9D JUMP JUMPDEST SWAP5 POP PUSH2 0xF5 PUSH1 0x20 DUP8 ADD PUSH2 0x9D JUMP JUMPDEST SWAP4 POP PUSH1 0x40 DUP7 ADD CALLDATALOAD SWAP3 POP PUSH1 0x60 DUP7 ADD CALLDATALOAD PUSH8 0xFFFFFFFFFFFFFFFF DUP2 GT ISZERO PUSH2 0x118 JUMPI PUSH1 0x0 DUP1 REVERT JUMPDEST DUP7 ADD PUSH1 0x1F DUP2 ADD DUP9 SGT PUSH2 0x129 JUMPI PUSH1 0x0 DUP1 REVERT JUMPDEST DUP1 CALLDATALOAD PUSH8 0xFFFFFFFFFFFFFFFF DUP2 GT ISZERO PUSH2 0x140 JUMPI PUSH1 0x0 DUP1 REVERT JUMPDEST DUP9 PUSH1 0x20 DUP3 DUP5 ADD ADD GT ISZERO PUSH2 0x152 JUMPI PUSH1 0x0 DUP1 REVERT JUMPDEST SWAP6 SWAP9 SWAP5 SWAP8 POP SWAP3 SWAP6 POP POP POP PUSH1 0x20 ADD SWAP2 SWAP1 JUMP INVALID LOG2 PUSH5 0x6970667358 0x22 SLT KECCAK256 0xBD DUP8 STOP PUSH9 0x7F44BBEEB29E64BF71 0x2B ORIGIN 0xAC 0xBE 0xEC PUSH14 0xC976E13A32FCB070B77BFD8EAA64 PUSH20 0x6F6C634300081C00330000000000000000000000 "},"gasEstimates":{"creation":{"codeDepositCost":"81800","executionCost":"129","totalCost":"81929"},"external":{"onERC20Received(address,address,uint256,bytes)":"infinite"}},"methodIdentifiers":{"onERC20Received(address,address,uint256,bytes)":"4fc35859"}},"storageLayout":{"storage":[],"types":null},"userdoc":{"kind":"user","methods":{},"version":1}}}}