{"contracts/staking/ERC20StakingPointsRewardsLimitedLinearPool.sol":{"ERC20StakingPointsRewardsLimitedLinearPool":{"abi":[{"inputs":[{"internalType":"address","name":"claimContract","type":"address"},{"internalType":"contract IERC20","name":"stakingToken","type":"address"},{"internalType":"contract IPoints","name":"pointsContract","type":"address"},{"internalType":"bytes32","name":"depositReasonCode","type":"bytes32"},{"internalType":"contract IForwarderRegistry","name":"forwarderRegistry","type":"address"}],"stateMutability":"nonpayable","type":"constructor"},{"inputs":[],"name":"FailedCall","type":"error"},{"inputs":[],"name":"IllegalInterfaceId","type":"error"},{"inputs":[],"name":"InconsistentArrayLengths","type":"error"},{"inputs":[{"internalType":"address","name":"tokenContract","type":"address"}],"name":"IncorrectTokenContractType","type":"error"},{"inputs":[{"internalType":"uint256","name":"balance","type":"uint256"},{"internalType":"uint256","name":"needed","type":"uint256"}],"name":"InsufficientBalance","type":"error"},{"inputs":[],"name":"InvalidDuration","type":"error"},{"inputs":[{"internalType":"uint256","name":"requested","type":"uint256"},{"internalType":"uint256","name":"recoverable","type":"uint256"}],"name":"InvalidRecoveryAmount","type":"error"},{"inputs":[],"name":"InvalidRewardAmount","type":"error"},{"inputs":[],"name":"InvalidStakeAmount","type":"error"},{"inputs":[],"name":"InvalidToken","type":"error"},{"inputs":[{"internalType":"address","name":"operator","type":"address"}],"name":"InvalidTransferOperator","type":"error"},{"inputs":[],"name":"InvalidWithdrawAmount","type":"error"},{"inputs":[{"internalType":"address","name":"account","type":"address"}],"name":"NotContractOwner","type":"error"},{"inputs":[{"internalType":"address","name":"staker","type":"address"},{"internalType":"uint256","name":"stake","type":"uint256"},{"internalType":"uint256","name":"withdraw","type":"uint256"}],"name":"NotEnoughStake","type":"error"},{"inputs":[{"internalType":"bytes32","name":"role","type":"bytes32"},{"internalType":"address","name":"account","type":"address"}],"name":"NotRoleHolder","type":"error"},{"inputs":[],"name":"OnlyReceiverInterface","type":"error"},{"inputs":[],"name":"ReentrancyGuardReentrantCall","type":"error"},{"inputs":[{"internalType":"uint256","name":"reward","type":"uint256"},{"internalType":"uint256","name":"duration","type":"uint256"}],"name":"RewardTooSmallForDuration","type":"error"},{"inputs":[{"internalType":"address","name":"token","type":"address"}],"name":"SafeERC20FailedOperation","type":"error"},{"anonymous":false,"inputs":[{"indexed":true,"internalType":"address","name":"staker","type":"address"},{"indexed":false,"internalType":"bytes","name":"claimData","type":"bytes"},{"indexed":false,"internalType":"uint256","name":"reward","type":"uint256"}],"name":"Claimed","type":"event"},{"anonymous":false,"inputs":[{"indexed":true,"internalType":"address","name":"previousOwner","type":"address"},{"indexed":true,"internalType":"address","name":"newOwner","type":"address"}],"name":"OwnershipTransferred","type":"event"},{"anonymous":false,"inputs":[{"indexed":true,"internalType":"address","name":"rewarder","type":"address"},{"indexed":false,"internalType":"uint256","name":"reward","type":"uint256"},{"indexed":false,"internalType":"uint256","name":"duration","type":"uint256"},{"indexed":false,"internalType":"uint256","name":"dust","type":"uint256"}],"name":"RewardAdded","type":"event"},{"anonymous":false,"inputs":[{"indexed":false,"internalType":"bytes32","name":"role","type":"bytes32"},{"indexed":false,"internalType":"address","name":"account","type":"address"},{"indexed":false,"internalType":"address","name":"operator","type":"address"}],"name":"RoleGranted","type":"event"},{"anonymous":false,"inputs":[{"indexed":false,"internalType":"bytes32","name":"role","type":"bytes32"},{"indexed":false,"internalType":"address","name":"account","type":"address"},{"indexed":false,"internalType":"address","name":"operator","type":"address"}],"name":"RoleRevoked","type":"event"},{"anonymous":false,"inputs":[{"indexed":true,"internalType":"address","name":"staker","type":"address"},{"indexed":false,"internalType":"bytes","name":"stakeData","type":"bytes"},{"indexed":false,"internalType":"uint256","name":"stakePoints","type":"uint256"}],"name":"Staked","type":"event"},{"anonymous":false,"inputs":[{"indexed":true,"internalType":"address","name":"staker","type":"address"},{"indexed":false,"internalType":"bytes","name":"withdrawData","type":"bytes"},{"indexed":false,"internalType":"uint256","name":"stakePoints","type":"uint256"}],"name":"Withdrawn","type":"event"},{"inputs":[],"name":"CLAIM_CONTRACT","outputs":[{"internalType":"address","name":"","type":"address"}],"stateMutability":"view","type":"function"},{"inputs":[],"name":"DEPOSIT_REASON_CODE","outputs":[{"internalType":"bytes32","name":"","type":"bytes32"}],"stateMutability":"view","type":"function"},{"inputs":[],"name":"POINTS_CONTRACT","outputs":[{"internalType":"contract IPoints","name":"","type":"address"}],"stateMutability":"view","type":"function"},{"inputs":[],"name":"REWARDER_ROLE","outputs":[{"internalType":"bytes32","name":"","type":"bytes32"}],"stateMutability":"view","type":"function"},{"inputs":[],"name":"SCALING_FACTOR","outputs":[{"internalType":"uint256","name":"","type":"uint256"}],"stateMutability":"view","type":"function"},{"inputs":[],"name":"STAKING_TOKEN","outputs":[{"internalType":"contract IERC20","name":"","type":"address"}],"stateMutability":"view","type":"function"},{"inputs":[{"internalType":"uint256","name":"reward","type":"uint256"},{"internalType":"uint256","name":"duration","type":"uint256"}],"name":"addReward","outputs":[],"stateMutability":"payable","type":"function"},{"inputs":[],"name":"claim","outputs":[],"stateMutability":"nonpayable","type":"function"},{"inputs":[],"name":"distributionEnd","outputs":[{"internalType":"uint256","name":"","type":"uint256"}],"stateMutability":"view","type":"function"},{"inputs":[{"internalType":"address","name":"account","type":"address"}],"name":"earned","outputs":[{"internalType":"uint256","name":"","type":"uint256"}],"stateMutability":"view","type":"function"},{"inputs":[],"name":"forwarderRegistry","outputs":[{"internalType":"contract IForwarderRegistry","name":"","type":"address"}],"stateMutability":"view","type":"function"},{"inputs":[{"internalType":"bytes32","name":"role","type":"bytes32"},{"internalType":"address","name":"account","type":"address"}],"name":"grantRole","outputs":[],"stateMutability":"nonpayable","type":"function"},{"inputs":[{"internalType":"bytes32","name":"role","type":"bytes32"},{"internalType":"address","name":"account","type":"address"}],"name":"hasRole","outputs":[{"internalType":"bool","name":"hasRole_","type":"bool"}],"stateMutability":"view","type":"function"},{"inputs":[{"internalType":"address","name":"forwarder","type":"address"}],"name":"isTrustedForwarder","outputs":[{"internalType":"bool","name":"","type":"bool"}],"stateMutability":"view","type":"function"},{"inputs":[],"name":"lastTimeRewardApplicable","outputs":[{"internalType":"uint256","name":"","type":"uint256"}],"stateMutability":"view","type":"function"},{"inputs":[],"name":"lastUpdated","outputs":[{"internalType":"uint256","name":"","type":"uint256"}],"stateMutability":"view","type":"function"},{"inputs":[{"internalType":"address","name":"operator","type":"address"},{"internalType":"address","name":"","type":"address"},{"internalType":"uint256","name":"value","type":"uint256"},{"internalType":"bytes","name":"data","type":"bytes"}],"name":"onERC20Received","outputs":[{"internalType":"bytes4","name":"","type":"bytes4"}],"stateMutability":"nonpayable","type":"function"},{"inputs":[],"name":"owner","outputs":[{"internalType":"address","name":"","type":"address"}],"stateMutability":"view","type":"function"},{"inputs":[{"internalType":"address[]","name":"accounts","type":"address[]"},{"internalType":"contract IERC20[]","name":"tokens","type":"address[]"},{"internalType":"uint256[]","name":"amounts","type":"uint256[]"}],"name":"recoverERC20s","outputs":[],"stateMutability":"nonpayable","type":"function"},{"inputs":[{"internalType":"address[]","name":"accounts","type":"address[]"},{"internalType":"contract IERC721[]","name":"contracts","type":"address[]"},{"internalType":"uint256[]","name":"tokenIds","type":"uint256[]"}],"name":"recoverERC721s","outputs":[],"stateMutability":"nonpayable","type":"function"},{"inputs":[{"internalType":"address payable[]","name":"accounts","type":"address[]"},{"internalType":"uint256[]","name":"amounts","type":"uint256[]"}],"name":"recoverETH","outputs":[],"stateMutability":"nonpayable","type":"function"},{"inputs":[{"internalType":"bytes32","name":"role","type":"bytes32"}],"name":"renounceRole","outputs":[],"stateMutability":"nonpayable","type":"function"},{"inputs":[{"internalType":"bytes32","name":"role","type":"bytes32"},{"internalType":"address","name":"account","type":"address"}],"name":"revokeRole","outputs":[],"stateMutability":"nonpayable","type":"function"},{"inputs":[],"name":"rewardPerStakePoint","outputs":[{"internalType":"uint256","name":"","type":"uint256"}],"stateMutability":"view","type":"function"},{"inputs":[{"internalType":"address","name":"staker","type":"address"}],"name":"rewardPerStakePointPaid","outputs":[{"internalType":"uint256","name":"paid","type":"uint256"}],"stateMutability":"view","type":"function"},{"inputs":[],"name":"rewardPerStakePointStored","outputs":[{"internalType":"uint256","name":"","type":"uint256"}],"stateMutability":"view","type":"function"},{"inputs":[],"name":"rewardRate","outputs":[{"internalType":"uint256","name":"","type":"uint256"}],"stateMutability":"view","type":"function"},{"inputs":[{"internalType":"address","name":"staker","type":"address"}],"name":"rewards","outputs":[{"internalType":"uint256","name":"reward","type":"uint256"}],"stateMutability":"view","type":"function"},{"inputs":[{"internalType":"bytes","name":"","type":"bytes"}],"name":"stake","outputs":[],"stateMutability":"payable","type":"function"},{"inputs":[{"internalType":"address","name":"staker","type":"address"}],"name":"staked","outputs":[{"internalType":"uint256","name":"stakePoints","type":"uint256"}],"stateMutability":"view","type":"function"},{"inputs":[{"internalType":"bytes4","name":"interfaceId","type":"bytes4"}],"name":"supportsInterface","outputs":[{"internalType":"bool","name":"","type":"bool"}],"stateMutability":"view","type":"function"},{"inputs":[],"name":"totalStaked","outputs":[{"internalType":"uint256","name":"","type":"uint256"}],"stateMutability":"view","type":"function"},{"inputs":[{"internalType":"address","name":"newOwner","type":"address"}],"name":"transferOwnership","outputs":[],"stateMutability":"nonpayable","type":"function"},{"inputs":[{"internalType":"bytes","name":"withdrawData","type":"bytes"}],"name":"withdraw","outputs":[],"stateMutability":"nonpayable","type":"function"}],"devdoc":{"errors":{"FailedCall()":[{"details":"A call to an address target failed. The target may have reverted."}],"IncorrectTokenContractType(address)":[{"params":{"tokenContract":"The token contract being recovered."}}],"InsufficientBalance(uint256,uint256)":[{"details":"The ETH balance of the account is not enough to perform the operation."}],"NotContractOwner(address)":[{"params":{"account":"The account that was checked."}}],"NotRoleHolder(bytes32,address)":[{"params":{"account":"The account that was checked.","role":"The role the caller is missing."}}],"ReentrancyGuardReentrantCall()":[{"details":"Unauthorized reentrant call."}],"SafeERC20FailedOperation(address)":[{"details":"An operation with an ERC-20 token failed."}]},"events":{"OwnershipTransferred(address,address)":{"params":{"newOwner":"the new contract owner.","previousOwner":"the previous contract owner."}},"RoleGranted(bytes32,address,address)":{"params":{"account":"The account that has been granted the role.","operator":"The account that granted the role.","role":"The role that has been granted."}},"RoleRevoked(bytes32,address,address)":{"params":{"account":"The account that has been revoked the role.","operator":"The account that revoked the role.","role":"The role that has been revoked."}}},"kind":"dev","methods":{"addReward(uint256,uint256)":{"details":"Reverts with {NotRoleHolder} if the sender does not have the REWARDER_ROLE.Reverts with {InvalidRewardAmount} if the reward amount is 0.Reverts with {InvalidDuration} if the duration is 0.Reverts with {RewardTooSmallForDuration} if the reward is too small for the duration.Emits a {RewardAdded} event with the rewarder address, reward amount, duration and dust.","params":{"duration":"The duration of the rewards distribution.","reward":"The amount of rewards to be added."}},"claim()":{"details":"Emits a {Claimed} event with the staker address, claimData and reward.The claimData is generated by the _computeClaim function, which must be implemented in the deriving contract."},"earned(address)":{"params":{"account":"The address of the account to check."},"returns":{"_0":"The account's stake points times the difference between the current reward per stake point and the last paid reward per stake point."}},"grantRole(bytes32,address)":{"details":"Reverts with {NotContractOwner} if the sender is not the contract owner.Emits a {RoleGranted} event if the account did not previously have the role.","params":{"account":"The account to grant the role to.","role":"The role to grant."}},"hasRole(bytes32,address)":{"params":{"account":"The account.","role":"The role."},"returns":{"hasRole_":"Whether `account` has `role`."}},"isTrustedForwarder(address)":{"params":{"forwarder":"The forwarder to check."},"returns":{"_0":"True if `forwarder` is trusted, false if not."}},"lastTimeRewardApplicable()":{"returns":{"_0":"The minimum of the current block timestamp and the distribution end."}},"owner()":{"returns":{"_0":"The address of the contract owner."}},"recoverERC20s(address[],address[],uint256[])":{"details":"Reverts with {InvalidRecoveryAmount} if recovering some STAKING_TOKEN in greater quatity than what is recoverable.","params":{"accounts":"the list of accounts to transfer the tokens to.","amounts":"the list of token amounts to transfer.","tokens":"the list of ERC20 token addresses."}},"recoverERC721s(address[],address[],uint256[])":{"details":"Reverts with {NotContractOwner} if the sender is not the contract owner.Reverts with {InconsistentArrayLengths} if `accounts`, `contracts` and `amounts` do not have the same length.Reverts if one of the ERC721 transfers fails for any reason.","params":{"accounts":"the list of accounts to transfer the tokens to.","contracts":"the list of ERC721 contract addresses.","tokenIds":"the list of token ids to transfer."}},"recoverETH(address[],uint256[])":{"details":"Reverts with {NotContractOwner} if the sender is not the contract owner.Reverts with {InconsistentArrayLengths} `accounts` and `amounts` do not have the same length.Reverts if one of the ETH transfers fails for any reason.","params":{"accounts":"the list of accounts to transfer the tokens to.","amounts":"the list of token amounts to transfer."}},"renounceRole(bytes32)":{"details":"Reverts if `sender` does not have `role`.Emits a {RoleRevoked} event.","params":{"role":"The role to renounce."}},"revokeRole(bytes32,address)":{"details":"Reverts with {NotContractOwner} if the sender is not the contract owner.Emits a {RoleRevoked} event if the account previously had the role.","params":{"account":"The account to revoke the role from.","role":"The role to revoke."}},"rewardPerStakePoint()":{"returns":{"_0":"The sum of the last stored value and the new rewards since the last update"}},"stake(bytes)":{"details":"Reverts with {OnlyReceiverInterface}."},"supportsInterface(bytes4)":{"details":"Note: This function call must use less than 30 000 gas.","params":{"interfaceId":"the interface identifier to test."},"returns":{"_0":"True if the interface is supported, false if `interfaceId` is `0xffffffff` or if the interface is not supported."}},"transferOwnership(address)":{"details":"Reverts if the sender is not the contract owner.Emits an {OwnershipTransferred} event if `newOwner` is different from the current contract owner.","params":{"newOwner":"The address of the new contract owner. Using the zero address means renouncing ownership."}},"withdraw(bytes)":{"details":"Reverts with {ReentrancyGuardReentrantCall} if the function is re-entered.Reverts with {InvalidWithdrawAmount} if the withdraw amount is 0.Reverts with {NotEnoughStake} if the staker does not have enough stake points to withdraw.Emits a {Withdrawn} event with the staker address, withdrawData and stake points.The withdrawData is passed to the _computeWithdraw function, which must be implemented in the deriving contract.The withdrawData is not used in the base implementation, but it is passed to the event for convenience.","params":{"withdrawData":"The data to be used for withdrawing, encoded as (uint256 value)"}}},"title":"ERC20StakingPointsRewardsLimitedLinearPool","version":1},"evm":{"bytecode":{"linkReferences":{},"object":"61012060405234801561001157600080fd5b50604051612b10380380612b10833981016040819052610030916101f7565b8484848484828285838080803361004f816100496100b2565b906100e6565b50600160008190556001600160a01b039091166080526100839250634fc3585960e01b915061007c610155565b9190610183565b506001600160a01b0390811660a05291821660c05260e052949094166101005250610283975050505050505050565b6000806100e060017fc9ed16f33ab3a66c84bfd83099ccb2a8845871e2e1c1928f63797152f0fd54cd610262565b92915050565b6001600160a01b0381161561013c5781546001600160a01b0319166001600160a01b03821690811783556040516000907f8be0079c531659141344cd1fd0a4f28419497f9722a3daafe3b4186f6b6457e0908290a35b6101516307f5828d60e41b600161007c610155565b5050565b6000806100e060017fca9d3e17f264b0f3984e2634e94adb37fa3e6a8103f06aeae6fa59e21c769f5e610262565b600160e01b6001600160e01b03198316016101b1576040516372c683bb60e01b815260040160405180910390fd5b6001600160e01b03199190911660009081526020929092526040909120805460ff1916911515919091179055565b6001600160a01b03811681146101f457600080fd5b50565b600080600080600060a0868803121561020f57600080fd5b855161021a816101df565b602087015190955061022b816101df565b604087015190945061023c816101df565b606087015160808801519194509250610254816101df565b809150509295509295909350565b818103818111156100e057634e487b7160e01b600052601160045260246000fd5b60805160a05160c05160e0516101005161280361030d600039600081816104dd0152610a2101526000818161033a0152611f3c0152600081816103c90152611f65015260008181610292015281816109c801528181610b3a01528181610c310152611e8801526000818161036b0152818161048e01528181611d4c0152611dda01526128036000f3fe6080604052600436106102185760003560e01c80637b0a47ee1161011d5780639d696e36116100b0578063d547741f1161007f578063efa90b5411610064578063efa90b54146106de578063f2fde38b146106f4578063f7ba94bd1461071457600080fd5b8063d547741f146106a2578063ef4cadc5146106c257600080fd5b80639d696e3614610629578063c3666c361461063f578063c5c8f7701461065f578063d0b06f5d1461068c57600080fd5b80638bb9c5bf116100ec5780638bb9c5bf146105a75780638da5cb5b146105c757806391d14854146105dc57806398807d84146105fc57600080fd5b80637b0a47ee1461053257806380faa57d14610548578063817b1cd21461055d5780638580cf761461057357600080fd5b80632d1e0c02116101b05780634fc358591161017f57806362ba90961161016457806362ba9096146104cb57806373c8a958146104ff57806375c93bb91461051f57600080fd5b80634fc3585914610420578063572b6c051461047157600080fd5b80632d1e0c02146103a45780632d4c2f93146103b75780632f2ff15d146103eb5780634e71d92d1461040b57600080fd5b80630968f264116101ec5780630968f264146103065780632196e445146103285780632b4c9f161461035c5780632c9d0b801461038f57600080fd5b80628cc2621461021d57806301ffc9a7146102505780630479d644146102805780630700037d146102d9575b600080fd5b34801561022957600080fd5b5061023d610238366004612309565b610734565b6040519081526020015b60405180910390f35b34801561025c57600080fd5b5061027061026b366004612326565b6107cb565b6040519015158152602001610247565b34801561028c57600080fd5b506102b47f000000000000000000000000000000000000000000000000000000000000000081565b60405173ffffffffffffffffffffffffffffffffffffffff9091168152602001610247565b3480156102e557600080fd5b5061023d6102f4366004612309565b60076020526000908152604090205481565b34801561031257600080fd5b506103266103213660046123b1565b6107df565b005b34801561033457600080fd5b5061023d7f000000000000000000000000000000000000000000000000000000000000000081565b34801561036857600080fd5b507f00000000000000000000000000000000000000000000000000000000000000006102b4565b34801561039b57600080fd5b5061023d61082a565b6103266103b23660046123b1565b610892565b3480156103c357600080fd5b506102b47f000000000000000000000000000000000000000000000000000000000000000081565b3480156103f757600080fd5b506103266104063660046123f3565b6108c4565b34801561041757600080fd5b506103266108fd565b34801561042c57600080fd5b5061044061043b366004612423565b6109ae565b6040517fffffffff000000000000000000000000000000000000000000000000000000009091168152602001610247565b34801561047d57600080fd5b5061027061048c366004612309565b7f000000000000000000000000000000000000000000000000000000000000000073ffffffffffffffffffffffffffffffffffffffff90811691161490565b3480156104d757600080fd5b506102b47f000000000000000000000000000000000000000000000000000000000000000081565b34801561050b57600080fd5b5061032661051a3660046124db565b610b2c565b61032661052d366004612581565b610d05565b34801561053e57600080fd5b5061023d60035481565b34801561055457600080fd5b5061023d610fda565b34801561056957600080fd5b5061023d60015481565b34801561057f57600080fd5b5061023d7f726577617264657200000000000000000000000000000000000000000000000081565b3480156105b357600080fd5b506103266105c23660046125a3565b610ff4565b3480156105d357600080fd5b506102b4611012565b3480156105e857600080fd5b506102706105f73660046123f3565b61103e565b34801561060857600080fd5b5061023d610617366004612309565b60066020526000908152604090205481565b34801561063557600080fd5b5061023d60045481565b34801561064b57600080fd5b5061032661065a3660046124db565b611089565b34801561066b57600080fd5b5061023d61067a366004612309565b60086020526000908152604090205481565b34801561069857600080fd5b5061023d60025481565b3480156106ae57600080fd5b506103266106bd3660046123f3565b6110b2565b3480156106ce57600080fd5b5061023d670de0b6b3a764000081565b3480156106ea57600080fd5b5061023d60055481565b34801561070057600080fd5b5061032661070f366004612309565b6110e0565b34801561072057600080fd5b5061032661072f3660046125bc565b6110fb565b73ffffffffffffffffffffffffffffffffffffffff81166000908152600760209081526040808320546008909252822054670de0b6b3a76400009061077761082a565b610781919061265c565b73ffffffffffffffffffffffffffffffffffffffff85166000908152600660205260409020546107b1919061266f565b6107bb91906126b5565b6107c591906126c9565b92915050565b60006107c5826107d9611118565b90611146565b6108266107ea611220565b83838080601f01602080910402602001604051908101604052809392919081815260200183838082843760009201919091525061122a92505050565b5050565b60015460009080820361083f57505060045490565b80670de0b6b3a7640000600354600254610857610fda565b610861919061265c565b61086b919061266f565b610875919061266f565b61087f91906126b5565b60045461088c91906126c9565b91505090565b6040517f7a404b1900000000000000000000000000000000000000000000000000000000815260040160405180910390fd5b60006108ce611220565b90506108e2816108dc611379565b906113a7565b6108f88383836108f0611412565b929190611440565b505050565b6000610907611220565b905061091281611516565b600061091d82610734565b905080156108265773ffffffffffffffffffffffffffffffffffffffff8216600090815260076020526040812081905561095783836115a4565b90508273ffffffffffffffffffffffffffffffffffffffff167f4196decb55b5644a278b6ded1c42a27acb5182aa099b1fd48974bcc0cf263fd582846040516109a19291906126dc565b60405180910390a2505050565b60003373ffffffffffffffffffffffffffffffffffffffff7f00000000000000000000000000000000000000000000000000000000000000001614610a1f576040517fc1ab6dc100000000000000000000000000000000000000000000000000000000815260040160405180910390fd5b7f000000000000000000000000000000000000000000000000000000000000000073ffffffffffffffffffffffffffffffffffffffff168673ffffffffffffffffffffffffffffffffffffffff16148690610ac4576040517fd0411ac500000000000000000000000000000000000000000000000000000000815273ffffffffffffffffffffffffffffffffffffffff90911660048201526024015b60405180910390fd5b506000610ad383850185612309565b9050610b008186604051602001610aec91815260200190565b6040516020818303038152906040526115b0565b507f4fc35859000000000000000000000000000000000000000000000000000000009695505050505050565b6000805b84811015610be0577f000000000000000000000000000000000000000000000000000000000000000073ffffffffffffffffffffffffffffffffffffffff16868683818110610b8157610b8161274f565b9050602002016020810190610b969190612309565b73ffffffffffffffffffffffffffffffffffffffff1603610bd857838382818110610bc357610bc361274f565b9050602002013582610bd591906126c9565b91505b600101610b30565b508015610cee576001546040517f70a082310000000000000000000000000000000000000000000000000000000081523060048201526000919073ffffffffffffffffffffffffffffffffffffffff7f000000000000000000000000000000000000000000000000000000000000000016906370a0823190602401602060405180830381865afa158015610c78573d6000803e3d6000fd5b505050506040513d601f19601f82011682018060405250810190610c9c919061277e565b610ca6919061265c565b905080821115610cec576040517f15c38d3e0000000000000000000000000000000000000000000000000000000081526004810183905260248101829052604401610abb565b505b610cfc87878787878761169c565b50505050505050565b6000610d0f611220565b9050610d457f726577617264657200000000000000000000000000000000000000000000000082610d3e611412565b91906116b5565b82600003610d7f576040517f3853986500000000000000000000000000000000000000000000000000000000815260040160405180910390fd5b81600003610db9576040517f7616640100000000000000000000000000000000000000000000000000000000815260040160405180910390fd5b610dc36000611516565b60055460009081610dd485426126c9565b9050814210610e4c576000610de986886126b5565b9050868682610e2d576040517f99e66a4900000000000000000000000000000000000000000000000000000000815260048101929092526024820152604401610abb565b50506003819055610e3e8688612797565b60058390559350610f759050565b818111610edb57610e5d428361265c565b94506000610e6b86886126b5565b9050868682610eaf576040517f99e66a4900000000000000000000000000000000000000000000000000000000815260048101929092526024820152604401610abb565b50508060036000828254610ec391906126c9565b90915550610ed390508688612797565b935050610f75565b610ee585876126b5565b86908690610f28576040517f99e66a4900000000000000000000000000000000000000000000000000000000815260048101929092526024820152604401610abb565b5060009050610f37428461265c565b600354610f44919061266f565b90506000610f5288836126c9565b9050610f5e87826126b5565b600355610f6b8782612797565b6005849055945050505b42600255604080518781526020810187905290810184905273ffffffffffffffffffffffffffffffffffffffff8516907f0727302becd070529b3293f4ec8f553d9f6ae1773f638598db1205fbf89080839060600160405180910390a2505050505050565b600554600090428111610fed578061088c565b4291505090565b61100f610fff611220565b82611008611412565b919061173b565b50565b600061103961101f611379565b5473ffffffffffffffffffffffffffffffffffffffff1690565b905090565b6000611082838361104d611412565b60009283526020908152604080842073ffffffffffffffffffffffffffffffffffffffff909316845291905290205460ff1690565b9392505050565b61109c611094611220565b6108dc611379565b6110aa8686868686866117df565b505050505050565b60006110bc611220565b90506110ca816108dc611379565b6108f88383836110d8611412565b929190611a7f565b61100f6110eb611220565b826110f4611379565b9190611b49565b611106611094611220565b61111284848484611c5d565b50505050565b6000806107c560017fca9d3e17f264b0f3984e2634e94adb37fa3e6a8103f06aeae6fa59e21c769f5e61265c565b60007c01000000000000000000000000000000000000000000000000000000007fffffffff00000000000000000000000000000000000000000000000000000000831601611196575060006107c5565b7ffe003659000000000000000000000000000000000000000000000000000000007fffffffff000000000000000000000000000000000000000000000000000000008316016111e7575060016107c5565b507fffffffff00000000000000000000000000000000000000000000000000000000166000908152602091909152604090205460ff1690565b6000611039611d09565b61123382611516565b600061123f8383611e56565b90508060000361127b576040517fdb73cdf000000000000000000000000000000000000000000000000000000000815260040160405180910390fd5b73ffffffffffffffffffffffffffffffffffffffff831660009081526006602052604090205483818380821015611304576040517f2b6a775800000000000000000000000000000000000000000000000000000000815273ffffffffffffffffffffffffffffffffffffffff909316600484015260248301919091526044820152606401610abb565b50505073ffffffffffffffffffffffffffffffffffffffff84166000818152600660205260409081902080548590039055838303600155517faae638dec0d864ccb08558c28981bcfaee41330f57c4911cbe2d8432d0fb729e9061136b90869086906126dc565b60405180910390a250505050565b6000806107c560017fc9ed16f33ab3a66c84bfd83099ccb2a8845871e2e1c1928f63797152f0fd54cd61265c565b815473ffffffffffffffffffffffffffffffffffffffff828116911614610826576040517f2ef4875e00000000000000000000000000000000000000000000000000000000815273ffffffffffffffffffffffffffffffffffffffff82166004820152602401610abb565b6000806107c560017fc8827d3282af6f37b64c3e9e6f3ac9df286ab0bb0fccd6f8661bf19adb368b2361265c565b60008381526020858152604080832073ffffffffffffffffffffffffffffffffffffffff8616845290915290205460ff166111125760008381526020858152604080832073ffffffffffffffffffffffffffffffffffffffff8681168086529184529382902080547fffffffffffffffffffffffffffffffffffffffffffffffffffffffffffffff00166001179055815187815292830152918316918101919091527f2f8788117e7eff1d82e926ec794901d17c78024a50270940304540a733656f0d906060015b60405180910390a150505050565b61151e61082a565b60045560055442101580611533575060015415155b1561154457611540610fda565b6002555b73ffffffffffffffffffffffffffffffffffffffff81161561100f5761156981610734565b73ffffffffffffffffffffffffffffffffffffffff821660009081526007602090815260408083209390935560045460089091529190205550565b60606110828383611eaf565b6115b982611516565b60006115c58383611fc7565b905080600003611601576040517f040ef8ec00000000000000000000000000000000000000000000000000000000815260040160405180910390fd5b806001600082825461161391906126c9565b909155505073ffffffffffffffffffffffffffffffffffffffff83166000908152600660205260408120805483929061164d9084906126c9565b925050819055508273ffffffffffffffffffffffffffffffffffffffff167ff4679d394f1f97f1a3df1d73e193866ec5a813168ad5fa6958f9be21b10a594e83836040516109a19291906126dc565b6116a7611094611220565b6110aa868686868686611fdd565b60008281526020848152604080832073ffffffffffffffffffffffffffffffffffffffff8516845290915290205460ff166108f8576040517f7aa728820000000000000000000000000000000000000000000000000000000081526004810183905273ffffffffffffffffffffffffffffffffffffffff82166024820152604401610abb565b6117468382846116b5565b60008181526020848152604080832073ffffffffffffffffffffffffffffffffffffffff86168085529083529281902080547fffffffffffffffffffffffffffffffffffffffffffffffffffffffffffffff0016905580518481529182018390528101919091527ff6391f5c32d9c69d2a47ea670b442974b53935d1edc7fd64eb21e047a839171b9060600160405180910390a1505050565b8483811415806117ef5750808214155b15611826576040517f6582533600000000000000000000000000000000000000000000000000000000815260040160405180910390fd5b60005b81811015611a755760008686838181106118455761184561274f565b905060200201602081019061185a9190612309565b6040517f01ffc9a70000000000000000000000000000000000000000000000000000000081527f80ac58cd00000000000000000000000000000000000000000000000000000000600482015290915073ffffffffffffffffffffffffffffffffffffffff8216906301ffc9a790602401602060405180830381865afa1580156118e7573d6000803e3d6000fd5b505050506040513d601f19601f8201168201806040525081019061190b91906127ab565b611959576040517f986b9f1f00000000000000000000000000000000000000000000000000000000815273ffffffffffffffffffffffffffffffffffffffff82166004820152602401610abb565b86868381811061196b5761196b61274f565b90506020020160208101906119809190612309565b73ffffffffffffffffffffffffffffffffffffffff166342842e0e308b8b868181106119ae576119ae61274f565b90506020020160208101906119c39190612309565b8888878181106119d5576119d561274f565b6040517fffffffff0000000000000000000000000000000000000000000000000000000060e088901b16815273ffffffffffffffffffffffffffffffffffffffff958616600482015294909316602485015250602090910201356044820152606401600060405180830381600087803b158015611a5157600080fd5b505af1158015611a65573d6000803e3d6000fd5b5050505050806001019050611829565b5050505050505050565b60008381526020858152604080832073ffffffffffffffffffffffffffffffffffffffff8616845290915290205460ff16156111125760008381526020858152604080832073ffffffffffffffffffffffffffffffffffffffff8681168086529184529382902080547fffffffffffffffffffffffffffffffffffffffffffffffffffffffffffffff00169055815187815292830152918316918101919091527ff6391f5c32d9c69d2a47ea670b442974b53935d1edc7fd64eb21e047a839171b90606001611508565b825473ffffffffffffffffffffffffffffffffffffffff9081169083168114611bb6576040517f2ef4875e00000000000000000000000000000000000000000000000000000000815273ffffffffffffffffffffffffffffffffffffffff84166004820152602401610abb565b8173ffffffffffffffffffffffffffffffffffffffff168173ffffffffffffffffffffffffffffffffffffffff16146111125783547fffffffffffffffffffffffff00000000000000000000000000000000000000001673ffffffffffffffffffffffffffffffffffffffff8381169182178655604051908316907f8be0079c531659141344cd1fd0a4f28419497f9722a3daafe3b4186f6b6457e090600090a350505050565b82818114611c97576040517f6582533600000000000000000000000000000000000000000000000000000000815260040160405180910390fd5b60005b818110156110aa57611d01848483818110611cb757611cb761274f565b90506020020135878784818110611cd057611cd061274f565b9050602002016020810190611ce59190612309565b73ffffffffffffffffffffffffffffffffffffffff16906120be565b600101611c9a565b600033321480611d195750601836105b15611d2357503390565b7fffffffffffffffffffffffffffffffffffffffffffffffffffffffffffffffec36013560601c7f000000000000000000000000000000000000000000000000000000000000000073ffffffffffffffffffffffffffffffffffffffff16331480611e4557506040517f019a202800000000000000000000000000000000000000000000000000000000815273ffffffffffffffffffffffffffffffffffffffff82811660048301523360248301523060448301527f0000000000000000000000000000000000000000000000000000000000000000169063019a202890606401602060405180830381865afa158015611e21573d6000803e3d6000fd5b505050506040513d601f19601f82011682018060405250810190611e4591906127ab565b15611e4f57919050565b3391505090565b600081806020019051810190611e6c919061277e565b90506107c573ffffffffffffffffffffffffffffffffffffffff7f0000000000000000000000000000000000000000000000000000000000000000168483612174565b606081604051602001611ec491815260200190565b604080518083037fffffffffffffffffffffffffffffffffffffffffffffffffffffffffffffffe0018152908290527f26b3293f00000000000000000000000000000000000000000000000000000000825273ffffffffffffffffffffffffffffffffffffffff8581166004840152602483018590527f000000000000000000000000000000000000000000000000000000000000000060448401529092507f000000000000000000000000000000000000000000000000000000000000000016906326b3293f90606401600060405180830381600087803b158015611fa957600080fd5b505af1158015611fbd573d6000803e3d6000fd5b5050505092915050565b600081806020019051810190611082919061277e565b848381141580611fed5750808214155b15612024576040517f6582533600000000000000000000000000000000000000000000000000000000815260040160405180910390fd5b60005b81811015611a75576120b68888838181106120445761204461274f565b90506020020160208101906120599190612309565b85858481811061206b5761206b61274f565b905060200201358888858181106120845761208461274f565b90506020020160208101906120999190612309565b73ffffffffffffffffffffffffffffffffffffffff169190612174565b600101612027565b80471015612101576040517fcf47918100000000000000000000000000000000000000000000000000000000815247600482015260248101829052604401610abb565b6000808373ffffffffffffffffffffffffffffffffffffffff168360405160006040518083038185875af1925050503d806000811461215c576040519150601f19603f3d011682016040523d82523d6000602084013e612161565b606091505b5091509150816111125761111281612201565b6040805173ffffffffffffffffffffffffffffffffffffffff8416602482015260448082018490528251808303909101815260649091019091526020810180517bffffffffffffffffffffffffffffffffffffffffffffffffffffffff167fa9059cbb000000000000000000000000000000000000000000000000000000001790526108f8908490612243565b8051156122115780518082602001fd5b6040517fd6bda27500000000000000000000000000000000000000000000000000000000815260040160405180910390fd5b600080602060008451602086016000885af180612266576040513d6000823e3d81fd5b50506000513d9150811561227e578060011415612298565b73ffffffffffffffffffffffffffffffffffffffff84163b155b15611112576040517f5274afe700000000000000000000000000000000000000000000000000000000815273ffffffffffffffffffffffffffffffffffffffff85166004820152602401610abb565b73ffffffffffffffffffffffffffffffffffffffff8116811461100f57600080fd5b60006020828403121561231b57600080fd5b8135611082816122e7565b60006020828403121561233857600080fd5b81357fffffffff000000000000000000000000000000000000000000000000000000008116811461108257600080fd5b60008083601f84011261237a57600080fd5b50813567ffffffffffffffff81111561239257600080fd5b6020830191508360208285010111156123aa57600080fd5b9250929050565b600080602083850312156123c457600080fd5b823567ffffffffffffffff8111156123db57600080fd5b6123e785828601612368565b90969095509350505050565b6000806040838503121561240657600080fd5b823591506020830135612418816122e7565b809150509250929050565b60008060008060006080868803121561243b57600080fd5b8535612446816122e7565b94506020860135612456816122e7565b935060408601359250606086013567ffffffffffffffff81111561247957600080fd5b61248588828901612368565b969995985093965092949392505050565b60008083601f8401126124a857600080fd5b50813567ffffffffffffffff8111156124c057600080fd5b6020830191508360208260051b85010111156123aa57600080fd5b600080600080600080606087890312156124f457600080fd5b863567ffffffffffffffff81111561250b57600080fd5b61251789828a01612496565b909750955050602087013567ffffffffffffffff81111561253757600080fd5b61254389828a01612496565b909550935050604087013567ffffffffffffffff81111561256357600080fd5b61256f89828a01612496565b979a9699509497509295939492505050565b6000806040838503121561259457600080fd5b50508035926020909101359150565b6000602082840312156125b557600080fd5b5035919050565b600080600080604085870312156125d257600080fd5b843567ffffffffffffffff8111156125e957600080fd5b6125f587828801612496565b909550935050602085013567ffffffffffffffff81111561261557600080fd5b61262187828801612496565b95989497509550505050565b7f4e487b7100000000000000000000000000000000000000000000000000000000600052601160045260246000fd5b818103818111156107c5576107c561262d565b80820281158282048414176107c5576107c561262d565b7f4e487b7100000000000000000000000000000000000000000000000000000000600052601260045260246000fd5b6000826126c4576126c4612686565b500490565b808201808211156107c5576107c561262d565b604081526000835180604084015260005b8181101561270a57602081870181015160608684010152016126ed565b5060006060828501015260607fffffffffffffffffffffffffffffffffffffffffffffffffffffffffffffffe0601f8301168401019150508260208301529392505050565b7f4e487b7100000000000000000000000000000000000000000000000000000000600052603260045260246000fd5b60006020828403121561279057600080fd5b5051919050565b6000826127a6576127a6612686565b500690565b6000602082840312156127bd57600080fd5b8151801515811461108257600080fdfea2646970667358221220c5c6510a20b98179a7fa7e80031dc655b9f838d7f63d4be7b7dca003ccfb320b64736f6c634300081c0033","opcodes":"PUSH2 0x120 PUSH1 0x40 MSTORE CALLVALUE DUP1 ISZERO PUSH2 0x11 JUMPI PUSH1 0x0 DUP1 REVERT JUMPDEST POP PUSH1 0x40 MLOAD PUSH2 0x2B10 CODESIZE SUB DUP1 PUSH2 0x2B10 DUP4 CODECOPY DUP2 ADD PUSH1 0x40 DUP2 SWAP1 MSTORE PUSH2 0x30 SWAP2 PUSH2 0x1F7 JUMP JUMPDEST DUP5 DUP5 DUP5 DUP5 DUP5 DUP3 DUP3 DUP6 DUP4 DUP1 DUP1 DUP1 CALLER PUSH2 0x4F DUP2 PUSH2 0x49 PUSH2 0xB2 JUMP JUMPDEST SWAP1 PUSH2 0xE6 JUMP JUMPDEST POP PUSH1 0x1 PUSH1 0x0 DUP2 SWAP1 SSTORE PUSH1 0x1 PUSH1 0x1 PUSH1 0xA0 SHL SUB SWAP1 SWAP2 AND PUSH1 0x80 MSTORE PUSH2 0x83 SWAP3 POP PUSH4 0x4FC35859 PUSH1 0xE0 SHL SWAP2 POP PUSH2 0x7C PUSH2 0x155 JUMP JUMPDEST SWAP2 SWAP1 PUSH2 0x183 JUMP JUMPDEST POP PUSH1 0x1 PUSH1 0x1 PUSH1 0xA0 SHL SUB SWAP1 DUP2 AND PUSH1 0xA0 MSTORE SWAP2 DUP3 AND PUSH1 0xC0 MSTORE PUSH1 0xE0 MSTORE SWAP5 SWAP1 SWAP5 AND PUSH2 0x100 MSTORE POP PUSH2 0x283 SWAP8 POP POP POP POP POP POP POP POP JUMP JUMPDEST PUSH1 0x0 DUP1 PUSH2 0xE0 PUSH1 0x1 PUSH32 0xC9ED16F33AB3A66C84BFD83099CCB2A8845871E2E1C1928F63797152F0FD54CD PUSH2 0x262 JUMP JUMPDEST SWAP3 SWAP2 POP POP JUMP JUMPDEST PUSH1 0x1 PUSH1 0x1 PUSH1 0xA0 SHL SUB DUP2 AND ISZERO PUSH2 0x13C JUMPI DUP2 SLOAD PUSH1 0x1 PUSH1 0x1 PUSH1 0xA0 SHL SUB NOT AND PUSH1 0x1 PUSH1 0x1 PUSH1 0xA0 SHL SUB DUP3 AND SWAP1 DUP2 OR DUP4 SSTORE PUSH1 0x40 MLOAD PUSH1 0x0 SWAP1 PUSH32 0x8BE0079C531659141344CD1FD0A4F28419497F9722A3DAAFE3B4186F6B6457E0 SWAP1 DUP3 SWAP1 LOG3 JUMPDEST PUSH2 0x151 PUSH4 0x7F5828D PUSH1 0xE4 SHL PUSH1 0x1 PUSH2 0x7C PUSH2 0x155 JUMP JUMPDEST POP POP JUMP JUMPDEST PUSH1 0x0 DUP1 PUSH2 0xE0 PUSH1 0x1 PUSH32 0xCA9D3E17F264B0F3984E2634E94ADB37FA3E6A8103F06AEAE6FA59E21C769F5E PUSH2 0x262 JUMP JUMPDEST PUSH1 0x1 PUSH1 0xE0 SHL PUSH1 0x1 PUSH1 0x1 PUSH1 0xE0 SHL SUB NOT DUP4 AND ADD PUSH2 0x1B1 JUMPI PUSH1 0x40 MLOAD PUSH4 0x72C683BB PUSH1 0xE0 SHL DUP2 MSTORE PUSH1 0x4 ADD PUSH1 0x40 MLOAD DUP1 SWAP2 SUB SWAP1 REVERT JUMPDEST PUSH1 0x1 PUSH1 0x1 PUSH1 0xE0 SHL SUB NOT SWAP2 SWAP1 SWAP2 AND PUSH1 0x0 SWAP1 DUP2 MSTORE PUSH1 0x20 SWAP3 SWAP1 SWAP3 MSTORE PUSH1 0x40 SWAP1 SWAP2 KECCAK256 DUP1 SLOAD PUSH1 0xFF NOT AND SWAP2 ISZERO ISZERO SWAP2 SWAP1 SWAP2 OR SWAP1 SSTORE JUMP JUMPDEST PUSH1 0x1 PUSH1 0x1 PUSH1 0xA0 SHL SUB DUP2 AND DUP2 EQ PUSH2 0x1F4 JUMPI PUSH1 0x0 DUP1 REVERT JUMPDEST POP JUMP JUMPDEST PUSH1 0x0 DUP1 PUSH1 0x0 DUP1 PUSH1 0x0 PUSH1 0xA0 DUP7 DUP9 SUB SLT ISZERO PUSH2 0x20F JUMPI PUSH1 0x0 DUP1 REVERT JUMPDEST DUP6 MLOAD PUSH2 0x21A DUP2 PUSH2 0x1DF JUMP JUMPDEST PUSH1 0x20 DUP8 ADD MLOAD SWAP1 SWAP6 POP PUSH2 0x22B DUP2 PUSH2 0x1DF JUMP JUMPDEST PUSH1 0x40 DUP8 ADD MLOAD SWAP1 SWAP5 POP PUSH2 0x23C DUP2 PUSH2 0x1DF JUMP JUMPDEST PUSH1 0x60 DUP8 ADD MLOAD PUSH1 0x80 DUP9 ADD MLOAD SWAP2 SWAP5 POP SWAP3 POP PUSH2 0x254 DUP2 PUSH2 0x1DF JUMP JUMPDEST DUP1 SWAP2 POP POP SWAP3 SWAP6 POP SWAP3 SWAP6 SWAP1 SWAP4 POP JUMP JUMPDEST DUP2 DUP2 SUB DUP2 DUP2 GT ISZERO PUSH2 0xE0 JUMPI PUSH4 0x4E487B71 PUSH1 0xE0 SHL PUSH1 0x0 MSTORE PUSH1 0x11 PUSH1 0x4 MSTORE PUSH1 0x24 PUSH1 0x0 REVERT JUMPDEST PUSH1 0x80 MLOAD PUSH1 0xA0 MLOAD PUSH1 0xC0 MLOAD PUSH1 0xE0 MLOAD PUSH2 0x100 MLOAD PUSH2 0x2803 PUSH2 0x30D PUSH1 0x0 CODECOPY PUSH1 0x0 DUP2 DUP2 PUSH2 0x4DD ADD MSTORE PUSH2 0xA21 ADD MSTORE PUSH1 0x0 DUP2 DUP2 PUSH2 0x33A ADD MSTORE PUSH2 0x1F3C ADD MSTORE PUSH1 0x0 DUP2 DUP2 PUSH2 0x3C9 ADD MSTORE PUSH2 0x1F65 ADD MSTORE PUSH1 0x0 DUP2 DUP2 PUSH2 0x292 ADD MSTORE DUP2 DUP2 PUSH2 0x9C8 ADD MSTORE DUP2 DUP2 PUSH2 0xB3A ADD MSTORE DUP2 DUP2 PUSH2 0xC31 ADD MSTORE PUSH2 0x1E88 ADD MSTORE PUSH1 0x0 DUP2 DUP2 PUSH2 0x36B ADD MSTORE DUP2 DUP2 PUSH2 0x48E ADD MSTORE DUP2 DUP2 PUSH2 0x1D4C ADD MSTORE PUSH2 0x1DDA ADD MSTORE PUSH2 0x2803 PUSH1 0x0 RETURN INVALID PUSH1 0x80 PUSH1 0x40 MSTORE PUSH1 0x4 CALLDATASIZE LT PUSH2 0x218 JUMPI PUSH1 0x0 CALLDATALOAD PUSH1 0xE0 SHR DUP1 PUSH4 0x7B0A47EE GT PUSH2 0x11D JUMPI DUP1 PUSH4 0x9D696E36 GT PUSH2 0xB0 JUMPI DUP1 PUSH4 0xD547741F GT PUSH2 0x7F JUMPI DUP1 PUSH4 0xEFA90B54 GT PUSH2 0x64 JUMPI DUP1 PUSH4 0xEFA90B54 EQ PUSH2 0x6DE JUMPI DUP1 PUSH4 0xF2FDE38B EQ PUSH2 0x6F4 JUMPI DUP1 PUSH4 0xF7BA94BD EQ PUSH2 0x714 JUMPI PUSH1 0x0 DUP1 REVERT JUMPDEST DUP1 PUSH4 0xD547741F EQ PUSH2 0x6A2 JUMPI DUP1 PUSH4 0xEF4CADC5 EQ PUSH2 0x6C2 JUMPI PUSH1 0x0 DUP1 REVERT JUMPDEST DUP1 PUSH4 0x9D696E36 EQ PUSH2 0x629 JUMPI DUP1 PUSH4 0xC3666C36 EQ PUSH2 0x63F JUMPI DUP1 PUSH4 0xC5C8F770 EQ PUSH2 0x65F JUMPI DUP1 PUSH4 0xD0B06F5D EQ PUSH2 0x68C JUMPI PUSH1 0x0 DUP1 REVERT JUMPDEST DUP1 PUSH4 0x8BB9C5BF GT PUSH2 0xEC JUMPI DUP1 PUSH4 0x8BB9C5BF EQ PUSH2 0x5A7 JUMPI DUP1 PUSH4 0x8DA5CB5B EQ PUSH2 0x5C7 JUMPI DUP1 PUSH4 0x91D14854 EQ PUSH2 0x5DC JUMPI DUP1 PUSH4 0x98807D84 EQ PUSH2 0x5FC JUMPI PUSH1 0x0 DUP1 REVERT JUMPDEST DUP1 PUSH4 0x7B0A47EE EQ PUSH2 0x532 JUMPI DUP1 PUSH4 0x80FAA57D EQ PUSH2 0x548 JUMPI DUP1 PUSH4 0x817B1CD2 EQ PUSH2 0x55D JUMPI DUP1 PUSH4 0x8580CF76 EQ PUSH2 0x573 JUMPI PUSH1 0x0 DUP1 REVERT JUMPDEST DUP1 PUSH4 0x2D1E0C02 GT PUSH2 0x1B0 JUMPI DUP1 PUSH4 0x4FC35859 GT PUSH2 0x17F JUMPI DUP1 PUSH4 0x62BA9096 GT PUSH2 0x164 JUMPI DUP1 PUSH4 0x62BA9096 EQ PUSH2 0x4CB JUMPI DUP1 PUSH4 0x73C8A958 EQ PUSH2 0x4FF JUMPI DUP1 PUSH4 0x75C93BB9 EQ PUSH2 0x51F JUMPI PUSH1 0x0 DUP1 REVERT JUMPDEST DUP1 PUSH4 0x4FC35859 EQ PUSH2 0x420 JUMPI DUP1 PUSH4 0x572B6C05 EQ PUSH2 0x471 JUMPI PUSH1 0x0 DUP1 REVERT JUMPDEST DUP1 PUSH4 0x2D1E0C02 EQ PUSH2 0x3A4 JUMPI DUP1 PUSH4 0x2D4C2F93 EQ PUSH2 0x3B7 JUMPI DUP1 PUSH4 0x2F2FF15D EQ PUSH2 0x3EB JUMPI DUP1 PUSH4 0x4E71D92D EQ PUSH2 0x40B JUMPI PUSH1 0x0 DUP1 REVERT JUMPDEST DUP1 PUSH4 0x968F264 GT PUSH2 0x1EC JUMPI DUP1 PUSH4 0x968F264 EQ PUSH2 0x306 JUMPI DUP1 PUSH4 0x2196E445 EQ PUSH2 0x328 JUMPI DUP1 PUSH4 0x2B4C9F16 EQ PUSH2 0x35C JUMPI DUP1 PUSH4 0x2C9D0B80 EQ PUSH2 0x38F JUMPI PUSH1 0x0 DUP1 REVERT JUMPDEST DUP1 PUSH3 0x8CC262 EQ PUSH2 0x21D JUMPI DUP1 PUSH4 0x1FFC9A7 EQ PUSH2 0x250 JUMPI DUP1 PUSH4 0x479D644 EQ PUSH2 0x280 JUMPI DUP1 PUSH4 0x700037D EQ PUSH2 0x2D9 JUMPI JUMPDEST PUSH1 0x0 DUP1 REVERT JUMPDEST CALLVALUE DUP1 ISZERO PUSH2 0x229 JUMPI PUSH1 0x0 DUP1 REVERT JUMPDEST POP PUSH2 0x23D PUSH2 0x238 CALLDATASIZE PUSH1 0x4 PUSH2 0x2309 JUMP JUMPDEST PUSH2 0x734 JUMP JUMPDEST PUSH1 0x40 MLOAD SWAP1 DUP2 MSTORE PUSH1 0x20 ADD JUMPDEST PUSH1 0x40 MLOAD DUP1 SWAP2 SUB SWAP1 RETURN JUMPDEST CALLVALUE DUP1 ISZERO PUSH2 0x25C JUMPI PUSH1 0x0 DUP1 REVERT JUMPDEST POP PUSH2 0x270 PUSH2 0x26B CALLDATASIZE PUSH1 0x4 PUSH2 0x2326 JUMP JUMPDEST PUSH2 0x7CB JUMP JUMPDEST PUSH1 0x40 MLOAD SWAP1 ISZERO ISZERO DUP2 MSTORE PUSH1 0x20 ADD PUSH2 0x247 JUMP JUMPDEST CALLVALUE DUP1 ISZERO PUSH2 0x28C JUMPI PUSH1 0x0 DUP1 REVERT JUMPDEST POP PUSH2 0x2B4 PUSH32 0x0 DUP2 JUMP JUMPDEST PUSH1 0x40 MLOAD PUSH20 0xFFFFFFFFFFFFFFFFFFFFFFFFFFFFFFFFFFFFFFFF SWAP1 SWAP2 AND DUP2 MSTORE PUSH1 0x20 ADD PUSH2 0x247 JUMP JUMPDEST CALLVALUE DUP1 ISZERO PUSH2 0x2E5 JUMPI PUSH1 0x0 DUP1 REVERT JUMPDEST POP PUSH2 0x23D PUSH2 0x2F4 CALLDATASIZE PUSH1 0x4 PUSH2 0x2309 JUMP JUMPDEST PUSH1 0x7 PUSH1 0x20 MSTORE PUSH1 0x0 SWAP1 DUP2 MSTORE PUSH1 0x40 SWAP1 KECCAK256 SLOAD DUP2 JUMP JUMPDEST CALLVALUE DUP1 ISZERO PUSH2 0x312 JUMPI PUSH1 0x0 DUP1 REVERT JUMPDEST POP PUSH2 0x326 PUSH2 0x321 CALLDATASIZE PUSH1 0x4 PUSH2 0x23B1 JUMP JUMPDEST PUSH2 0x7DF JUMP JUMPDEST STOP JUMPDEST CALLVALUE DUP1 ISZERO PUSH2 0x334 JUMPI PUSH1 0x0 DUP1 REVERT JUMPDEST POP PUSH2 0x23D PUSH32 0x0 DUP2 JUMP JUMPDEST CALLVALUE DUP1 ISZERO PUSH2 0x368 JUMPI PUSH1 0x0 DUP1 REVERT JUMPDEST POP PUSH32 0x0 PUSH2 0x2B4 JUMP JUMPDEST CALLVALUE DUP1 ISZERO PUSH2 0x39B JUMPI PUSH1 0x0 DUP1 REVERT JUMPDEST POP PUSH2 0x23D PUSH2 0x82A JUMP JUMPDEST PUSH2 0x326 PUSH2 0x3B2 CALLDATASIZE PUSH1 0x4 PUSH2 0x23B1 JUMP JUMPDEST PUSH2 0x892 JUMP JUMPDEST CALLVALUE DUP1 ISZERO PUSH2 0x3C3 JUMPI PUSH1 0x0 DUP1 REVERT JUMPDEST POP PUSH2 0x2B4 PUSH32 0x0 DUP2 JUMP JUMPDEST CALLVALUE DUP1 ISZERO PUSH2 0x3F7 JUMPI PUSH1 0x0 DUP1 REVERT JUMPDEST POP PUSH2 0x326 PUSH2 0x406 CALLDATASIZE PUSH1 0x4 PUSH2 0x23F3 JUMP JUMPDEST PUSH2 0x8C4 JUMP JUMPDEST CALLVALUE DUP1 ISZERO PUSH2 0x417 JUMPI PUSH1 0x0 DUP1 REVERT JUMPDEST POP PUSH2 0x326 PUSH2 0x8FD JUMP JUMPDEST CALLVALUE DUP1 ISZERO PUSH2 0x42C JUMPI PUSH1 0x0 DUP1 REVERT JUMPDEST POP PUSH2 0x440 PUSH2 0x43B CALLDATASIZE PUSH1 0x4 PUSH2 0x2423 JUMP JUMPDEST PUSH2 0x9AE JUMP JUMPDEST PUSH1 0x40 MLOAD PUSH32 0xFFFFFFFF00000000000000000000000000000000000000000000000000000000 SWAP1 SWAP2 AND DUP2 MSTORE PUSH1 0x20 ADD PUSH2 0x247 JUMP JUMPDEST CALLVALUE DUP1 ISZERO PUSH2 0x47D JUMPI PUSH1 0x0 DUP1 REVERT JUMPDEST POP PUSH2 0x270 PUSH2 0x48C CALLDATASIZE PUSH1 0x4 PUSH2 0x2309 JUMP JUMPDEST PUSH32 0x0 PUSH20 0xFFFFFFFFFFFFFFFFFFFFFFFFFFFFFFFFFFFFFFFF SWAP1 DUP2 AND SWAP2 AND EQ SWAP1 JUMP JUMPDEST CALLVALUE DUP1 ISZERO PUSH2 0x4D7 JUMPI PUSH1 0x0 DUP1 REVERT JUMPDEST POP PUSH2 0x2B4 PUSH32 0x0 DUP2 JUMP JUMPDEST CALLVALUE DUP1 ISZERO PUSH2 0x50B JUMPI PUSH1 0x0 DUP1 REVERT JUMPDEST POP PUSH2 0x326 PUSH2 0x51A CALLDATASIZE PUSH1 0x4 PUSH2 0x24DB JUMP JUMPDEST PUSH2 0xB2C JUMP JUMPDEST PUSH2 0x326 PUSH2 0x52D CALLDATASIZE PUSH1 0x4 PUSH2 0x2581 JUMP JUMPDEST PUSH2 0xD05 JUMP JUMPDEST CALLVALUE DUP1 ISZERO PUSH2 0x53E JUMPI PUSH1 0x0 DUP1 REVERT JUMPDEST POP PUSH2 0x23D PUSH1 0x3 SLOAD DUP2 JUMP JUMPDEST CALLVALUE DUP1 ISZERO PUSH2 0x554 JUMPI PUSH1 0x0 DUP1 REVERT JUMPDEST POP PUSH2 0x23D PUSH2 0xFDA JUMP JUMPDEST CALLVALUE DUP1 ISZERO PUSH2 0x569 JUMPI PUSH1 0x0 DUP1 REVERT JUMPDEST POP PUSH2 0x23D PUSH1 0x1 SLOAD DUP2 JUMP JUMPDEST CALLVALUE DUP1 ISZERO PUSH2 0x57F JUMPI PUSH1 0x0 DUP1 REVERT JUMPDEST POP PUSH2 0x23D PUSH32 0x7265776172646572000000000000000000000000000000000000000000000000 DUP2 JUMP JUMPDEST CALLVALUE DUP1 ISZERO PUSH2 0x5B3 JUMPI PUSH1 0x0 DUP1 REVERT JUMPDEST POP PUSH2 0x326 PUSH2 0x5C2 CALLDATASIZE PUSH1 0x4 PUSH2 0x25A3 JUMP JUMPDEST PUSH2 0xFF4 JUMP JUMPDEST CALLVALUE DUP1 ISZERO PUSH2 0x5D3 JUMPI PUSH1 0x0 DUP1 REVERT JUMPDEST POP PUSH2 0x2B4 PUSH2 0x1012 JUMP JUMPDEST CALLVALUE DUP1 ISZERO PUSH2 0x5E8 JUMPI PUSH1 0x0 DUP1 REVERT JUMPDEST POP PUSH2 0x270 PUSH2 0x5F7 CALLDATASIZE PUSH1 0x4 PUSH2 0x23F3 JUMP JUMPDEST PUSH2 0x103E JUMP JUMPDEST CALLVALUE DUP1 ISZERO PUSH2 0x608 JUMPI PUSH1 0x0 DUP1 REVERT JUMPDEST POP PUSH2 0x23D PUSH2 0x617 CALLDATASIZE PUSH1 0x4 PUSH2 0x2309 JUMP JUMPDEST PUSH1 0x6 PUSH1 0x20 MSTORE PUSH1 0x0 SWAP1 DUP2 MSTORE PUSH1 0x40 SWAP1 KECCAK256 SLOAD DUP2 JUMP JUMPDEST CALLVALUE DUP1 ISZERO PUSH2 0x635 JUMPI PUSH1 0x0 DUP1 REVERT JUMPDEST POP PUSH2 0x23D PUSH1 0x4 SLOAD DUP2 JUMP JUMPDEST CALLVALUE DUP1 ISZERO PUSH2 0x64B JUMPI PUSH1 0x0 DUP1 REVERT JUMPDEST POP PUSH2 0x326 PUSH2 0x65A CALLDATASIZE PUSH1 0x4 PUSH2 0x24DB JUMP JUMPDEST PUSH2 0x1089 JUMP JUMPDEST CALLVALUE DUP1 ISZERO PUSH2 0x66B JUMPI PUSH1 0x0 DUP1 REVERT JUMPDEST POP PUSH2 0x23D PUSH2 0x67A CALLDATASIZE PUSH1 0x4 PUSH2 0x2309 JUMP JUMPDEST PUSH1 0x8 PUSH1 0x20 MSTORE PUSH1 0x0 SWAP1 DUP2 MSTORE PUSH1 0x40 SWAP1 KECCAK256 SLOAD DUP2 JUMP JUMPDEST CALLVALUE DUP1 ISZERO PUSH2 0x698 JUMPI PUSH1 0x0 DUP1 REVERT JUMPDEST POP PUSH2 0x23D PUSH1 0x2 SLOAD DUP2 JUMP JUMPDEST CALLVALUE DUP1 ISZERO PUSH2 0x6AE JUMPI PUSH1 0x0 DUP1 REVERT JUMPDEST POP PUSH2 0x326 PUSH2 0x6BD CALLDATASIZE PUSH1 0x4 PUSH2 0x23F3 JUMP JUMPDEST PUSH2 0x10B2 JUMP JUMPDEST CALLVALUE DUP1 ISZERO PUSH2 0x6CE JUMPI PUSH1 0x0 DUP1 REVERT JUMPDEST POP PUSH2 0x23D PUSH8 0xDE0B6B3A7640000 DUP2 JUMP JUMPDEST CALLVALUE DUP1 ISZERO PUSH2 0x6EA JUMPI PUSH1 0x0 DUP1 REVERT JUMPDEST POP PUSH2 0x23D PUSH1 0x5 SLOAD DUP2 JUMP JUMPDEST CALLVALUE DUP1 ISZERO PUSH2 0x700 JUMPI PUSH1 0x0 DUP1 REVERT JUMPDEST POP PUSH2 0x326 PUSH2 0x70F CALLDATASIZE PUSH1 0x4 PUSH2 0x2309 JUMP JUMPDEST PUSH2 0x10E0 JUMP JUMPDEST CALLVALUE DUP1 ISZERO PUSH2 0x720 JUMPI PUSH1 0x0 DUP1 REVERT JUMPDEST POP PUSH2 0x326 PUSH2 0x72F CALLDATASIZE PUSH1 0x4 PUSH2 0x25BC JUMP JUMPDEST PUSH2 0x10FB JUMP JUMPDEST PUSH20 0xFFFFFFFFFFFFFFFFFFFFFFFFFFFFFFFFFFFFFFFF DUP2 AND PUSH1 0x0 SWAP1 DUP2 MSTORE PUSH1 0x7 PUSH1 0x20 SWAP1 DUP2 MSTORE PUSH1 0x40 DUP1 DUP4 KECCAK256 SLOAD PUSH1 0x8 SWAP1 SWAP3 MSTORE DUP3 KECCAK256 SLOAD PUSH8 0xDE0B6B3A7640000 SWAP1 PUSH2 0x777 PUSH2 0x82A JUMP JUMPDEST PUSH2 0x781 SWAP2 SWAP1 PUSH2 0x265C JUMP JUMPDEST PUSH20 0xFFFFFFFFFFFFFFFFFFFFFFFFFFFFFFFFFFFFFFFF DUP6 AND PUSH1 0x0 SWAP1 DUP2 MSTORE PUSH1 0x6 PUSH1 0x20 MSTORE PUSH1 0x40 SWAP1 KECCAK256 SLOAD PUSH2 0x7B1 SWAP2 SWAP1 PUSH2 0x266F JUMP JUMPDEST PUSH2 0x7BB SWAP2 SWAP1 PUSH2 0x26B5 JUMP JUMPDEST PUSH2 0x7C5 SWAP2 SWAP1 PUSH2 0x26C9 JUMP JUMPDEST SWAP3 SWAP2 POP POP JUMP JUMPDEST PUSH1 0x0 PUSH2 0x7C5 DUP3 PUSH2 0x7D9 PUSH2 0x1118 JUMP JUMPDEST SWAP1 PUSH2 0x1146 JUMP JUMPDEST PUSH2 0x826 PUSH2 0x7EA PUSH2 0x1220 JUMP JUMPDEST DUP4 DUP4 DUP1 DUP1 PUSH1 0x1F ADD PUSH1 0x20 DUP1 SWAP2 DIV MUL PUSH1 0x20 ADD PUSH1 0x40 MLOAD SWAP1 DUP2 ADD PUSH1 0x40 MSTORE DUP1 SWAP4 SWAP3 SWAP2 SWAP1 DUP2 DUP2 MSTORE PUSH1 0x20 ADD DUP4 DUP4 DUP1 DUP3 DUP5 CALLDATACOPY PUSH1 0x0 SWAP3 ADD SWAP2 SWAP1 SWAP2 MSTORE POP PUSH2 0x122A SWAP3 POP POP POP JUMP JUMPDEST POP POP JUMP JUMPDEST PUSH1 0x1 SLOAD PUSH1 0x0 SWAP1 DUP1 DUP3 SUB PUSH2 0x83F JUMPI POP POP PUSH1 0x4 SLOAD SWAP1 JUMP JUMPDEST DUP1 PUSH8 0xDE0B6B3A7640000 PUSH1 0x3 SLOAD PUSH1 0x2 SLOAD PUSH2 0x857 PUSH2 0xFDA JUMP JUMPDEST PUSH2 0x861 SWAP2 SWAP1 PUSH2 0x265C JUMP JUMPDEST PUSH2 0x86B SWAP2 SWAP1 PUSH2 0x266F JUMP JUMPDEST PUSH2 0x875 SWAP2 SWAP1 PUSH2 0x266F JUMP JUMPDEST PUSH2 0x87F SWAP2 SWAP1 PUSH2 0x26B5 JUMP JUMPDEST PUSH1 0x4 SLOAD PUSH2 0x88C SWAP2 SWAP1 PUSH2 0x26C9 JUMP JUMPDEST SWAP2 POP POP SWAP1 JUMP JUMPDEST PUSH1 0x40 MLOAD PUSH32 0x7A404B1900000000000000000000000000000000000000000000000000000000 DUP2 MSTORE PUSH1 0x4 ADD PUSH1 0x40 MLOAD DUP1 SWAP2 SUB SWAP1 REVERT JUMPDEST PUSH1 0x0 PUSH2 0x8CE PUSH2 0x1220 JUMP JUMPDEST SWAP1 POP PUSH2 0x8E2 DUP2 PUSH2 0x8DC PUSH2 0x1379 JUMP JUMPDEST SWAP1 PUSH2 0x13A7 JUMP JUMPDEST PUSH2 0x8F8 DUP4 DUP4 DUP4 PUSH2 0x8F0 PUSH2 0x1412 JUMP JUMPDEST SWAP3 SWAP2 SWAP1 PUSH2 0x1440 JUMP JUMPDEST POP POP POP JUMP JUMPDEST PUSH1 0x0 PUSH2 0x907 PUSH2 0x1220 JUMP JUMPDEST SWAP1 POP PUSH2 0x912 DUP2 PUSH2 0x1516 JUMP JUMPDEST PUSH1 0x0 PUSH2 0x91D DUP3 PUSH2 0x734 JUMP JUMPDEST SWAP1 POP DUP1 ISZERO PUSH2 0x826 JUMPI PUSH20 0xFFFFFFFFFFFFFFFFFFFFFFFFFFFFFFFFFFFFFFFF DUP3 AND PUSH1 0x0 SWAP1 DUP2 MSTORE PUSH1 0x7 PUSH1 0x20 MSTORE PUSH1 0x40 DUP2 KECCAK256 DUP2 SWAP1 SSTORE PUSH2 0x957 DUP4 DUP4 PUSH2 0x15A4 JUMP JUMPDEST SWAP1 POP DUP3 PUSH20 0xFFFFFFFFFFFFFFFFFFFFFFFFFFFFFFFFFFFFFFFF AND PUSH32 0x4196DECB55B5644A278B6DED1C42A27ACB5182AA099B1FD48974BCC0CF263FD5 DUP3 DUP5 PUSH1 0x40 MLOAD PUSH2 0x9A1 SWAP3 SWAP2 SWAP1 PUSH2 0x26DC JUMP JUMPDEST PUSH1 0x40 MLOAD DUP1 SWAP2 SUB SWAP1 LOG2 POP POP POP JUMP JUMPDEST PUSH1 0x0 CALLER PUSH20 0xFFFFFFFFFFFFFFFFFFFFFFFFFFFFFFFFFFFFFFFF PUSH32 0x0 AND EQ PUSH2 0xA1F JUMPI PUSH1 0x40 MLOAD PUSH32 0xC1AB6DC100000000000000000000000000000000000000000000000000000000 DUP2 MSTORE PUSH1 0x4 ADD PUSH1 0x40 MLOAD DUP1 SWAP2 SUB SWAP1 REVERT JUMPDEST PUSH32 0x0 PUSH20 0xFFFFFFFFFFFFFFFFFFFFFFFFFFFFFFFFFFFFFFFF AND DUP7 PUSH20 0xFFFFFFFFFFFFFFFFFFFFFFFFFFFFFFFFFFFFFFFF AND EQ DUP7 SWAP1 PUSH2 0xAC4 JUMPI PUSH1 0x40 MLOAD PUSH32 0xD0411AC500000000000000000000000000000000000000000000000000000000 DUP2 MSTORE PUSH20 0xFFFFFFFFFFFFFFFFFFFFFFFFFFFFFFFFFFFFFFFF SWAP1 SWAP2 AND PUSH1 0x4 DUP3 ADD MSTORE PUSH1 0x24 ADD JUMPDEST PUSH1 0x40 MLOAD DUP1 SWAP2 SUB SWAP1 REVERT JUMPDEST POP PUSH1 0x0 PUSH2 0xAD3 DUP4 DUP6 ADD DUP6 PUSH2 0x2309 JUMP JUMPDEST SWAP1 POP PUSH2 0xB00 DUP2 DUP7 PUSH1 0x40 MLOAD PUSH1 0x20 ADD PUSH2 0xAEC SWAP2 DUP2 MSTORE PUSH1 0x20 ADD SWAP1 JUMP JUMPDEST PUSH1 0x40 MLOAD PUSH1 0x20 DUP2 DUP4 SUB SUB DUP2 MSTORE SWAP1 PUSH1 0x40 MSTORE PUSH2 0x15B0 JUMP JUMPDEST POP PUSH32 0x4FC3585900000000000000000000000000000000000000000000000000000000 SWAP7 SWAP6 POP POP POP POP POP POP JUMP JUMPDEST PUSH1 0x0 DUP1 JUMPDEST DUP5 DUP2 LT ISZERO PUSH2 0xBE0 JUMPI PUSH32 0x0 PUSH20 0xFFFFFFFFFFFFFFFFFFFFFFFFFFFFFFFFFFFFFFFF AND DUP7 DUP7 DUP4 DUP2 DUP2 LT PUSH2 0xB81 JUMPI PUSH2 0xB81 PUSH2 0x274F JUMP JUMPDEST SWAP1 POP PUSH1 0x20 MUL ADD PUSH1 0x20 DUP2 ADD SWAP1 PUSH2 0xB96 SWAP2 SWAP1 PUSH2 0x2309 JUMP JUMPDEST PUSH20 0xFFFFFFFFFFFFFFFFFFFFFFFFFFFFFFFFFFFFFFFF AND SUB PUSH2 0xBD8 JUMPI DUP4 DUP4 DUP3 DUP2 DUP2 LT PUSH2 0xBC3 JUMPI PUSH2 0xBC3 PUSH2 0x274F JUMP JUMPDEST SWAP1 POP PUSH1 0x20 MUL ADD CALLDATALOAD DUP3 PUSH2 0xBD5 SWAP2 SWAP1 PUSH2 0x26C9 JUMP JUMPDEST SWAP2 POP JUMPDEST PUSH1 0x1 ADD PUSH2 0xB30 JUMP JUMPDEST POP DUP1 ISZERO PUSH2 0xCEE JUMPI PUSH1 0x1 SLOAD PUSH1 0x40 MLOAD PUSH32 0x70A0823100000000000000000000000000000000000000000000000000000000 DUP2 MSTORE ADDRESS PUSH1 0x4 DUP3 ADD MSTORE PUSH1 0x0 SWAP2 SWAP1 PUSH20 0xFFFFFFFFFFFFFFFFFFFFFFFFFFFFFFFFFFFFFFFF PUSH32 0x0 AND SWAP1 PUSH4 0x70A08231 SWAP1 PUSH1 0x24 ADD PUSH1 0x20 PUSH1 0x40 MLOAD DUP1 DUP4 SUB DUP2 DUP7 GAS STATICCALL ISZERO DUP1 ISZERO PUSH2 0xC78 JUMPI RETURNDATASIZE PUSH1 0x0 DUP1 RETURNDATACOPY RETURNDATASIZE PUSH1 0x0 REVERT JUMPDEST POP POP POP POP PUSH1 0x40 MLOAD RETURNDATASIZE PUSH1 0x1F NOT PUSH1 0x1F DUP3 ADD AND DUP3 ADD DUP1 PUSH1 0x40 MSTORE POP DUP2 ADD SWAP1 PUSH2 0xC9C SWAP2 SWAP1 PUSH2 0x277E JUMP JUMPDEST PUSH2 0xCA6 SWAP2 SWAP1 PUSH2 0x265C JUMP JUMPDEST SWAP1 POP DUP1 DUP3 GT ISZERO PUSH2 0xCEC JUMPI PUSH1 0x40 MLOAD PUSH32 0x15C38D3E00000000000000000000000000000000000000000000000000000000 DUP2 MSTORE PUSH1 0x4 DUP2 ADD DUP4 SWAP1 MSTORE PUSH1 0x24 DUP2 ADD DUP3 SWAP1 MSTORE PUSH1 0x44 ADD PUSH2 0xABB JUMP JUMPDEST POP JUMPDEST PUSH2 0xCFC DUP8 DUP8 DUP8 DUP8 DUP8 DUP8 PUSH2 0x169C JUMP JUMPDEST POP POP POP POP POP POP POP JUMP JUMPDEST PUSH1 0x0 PUSH2 0xD0F PUSH2 0x1220 JUMP JUMPDEST SWAP1 POP PUSH2 0xD45 PUSH32 0x7265776172646572000000000000000000000000000000000000000000000000 DUP3 PUSH2 0xD3E PUSH2 0x1412 JUMP JUMPDEST SWAP2 SWAP1 PUSH2 0x16B5 JUMP JUMPDEST DUP3 PUSH1 0x0 SUB PUSH2 0xD7F JUMPI PUSH1 0x40 MLOAD PUSH32 0x3853986500000000000000000000000000000000000000000000000000000000 DUP2 MSTORE PUSH1 0x4 ADD PUSH1 0x40 MLOAD DUP1 SWAP2 SUB SWAP1 REVERT JUMPDEST DUP2 PUSH1 0x0 SUB PUSH2 0xDB9 JUMPI PUSH1 0x40 MLOAD PUSH32 0x7616640100000000000000000000000000000000000000000000000000000000 DUP2 MSTORE PUSH1 0x4 ADD PUSH1 0x40 MLOAD DUP1 SWAP2 SUB SWAP1 REVERT JUMPDEST PUSH2 0xDC3 PUSH1 0x0 PUSH2 0x1516 JUMP JUMPDEST PUSH1 0x5 SLOAD PUSH1 0x0 SWAP1 DUP2 PUSH2 0xDD4 DUP6 TIMESTAMP PUSH2 0x26C9 JUMP JUMPDEST SWAP1 POP DUP2 TIMESTAMP LT PUSH2 0xE4C JUMPI PUSH1 0x0 PUSH2 0xDE9 DUP7 DUP9 PUSH2 0x26B5 JUMP JUMPDEST SWAP1 POP DUP7 DUP7 DUP3 PUSH2 0xE2D JUMPI PUSH1 0x40 MLOAD PUSH32 0x99E66A4900000000000000000000000000000000000000000000000000000000 DUP2 MSTORE PUSH1 0x4 DUP2 ADD SWAP3 SWAP1 SWAP3 MSTORE PUSH1 0x24 DUP3 ADD MSTORE PUSH1 0x44 ADD PUSH2 0xABB JUMP JUMPDEST POP POP PUSH1 0x3 DUP2 SWAP1 SSTORE PUSH2 0xE3E DUP7 DUP9 PUSH2 0x2797 JUMP JUMPDEST PUSH1 0x5 DUP4 SWAP1 SSTORE SWAP4 POP PUSH2 0xF75 SWAP1 POP JUMP JUMPDEST DUP2 DUP2 GT PUSH2 0xEDB JUMPI PUSH2 0xE5D TIMESTAMP DUP4 PUSH2 0x265C JUMP JUMPDEST SWAP5 POP PUSH1 0x0 PUSH2 0xE6B DUP7 DUP9 PUSH2 0x26B5 JUMP JUMPDEST SWAP1 POP DUP7 DUP7 DUP3 PUSH2 0xEAF JUMPI PUSH1 0x40 MLOAD PUSH32 0x99E66A4900000000000000000000000000000000000000000000000000000000 DUP2 MSTORE PUSH1 0x4 DUP2 ADD SWAP3 SWAP1 SWAP3 MSTORE PUSH1 0x24 DUP3 ADD MSTORE PUSH1 0x44 ADD PUSH2 0xABB JUMP JUMPDEST POP POP DUP1 PUSH1 0x3 PUSH1 0x0 DUP3 DUP3 SLOAD PUSH2 0xEC3 SWAP2 SWAP1 PUSH2 0x26C9 JUMP JUMPDEST SWAP1 SWAP2 SSTORE POP PUSH2 0xED3 SWAP1 POP DUP7 DUP9 PUSH2 0x2797 JUMP JUMPDEST SWAP4 POP POP PUSH2 0xF75 JUMP JUMPDEST PUSH2 0xEE5 DUP6 DUP8 PUSH2 0x26B5 JUMP JUMPDEST DUP7 SWAP1 DUP7 SWAP1 PUSH2 0xF28 JUMPI PUSH1 0x40 MLOAD PUSH32 0x99E66A4900000000000000000000000000000000000000000000000000000000 DUP2 MSTORE PUSH1 0x4 DUP2 ADD SWAP3 SWAP1 SWAP3 MSTORE PUSH1 0x24 DUP3 ADD MSTORE PUSH1 0x44 ADD PUSH2 0xABB JUMP JUMPDEST POP PUSH1 0x0 SWAP1 POP PUSH2 0xF37 TIMESTAMP DUP5 PUSH2 0x265C JUMP JUMPDEST PUSH1 0x3 SLOAD PUSH2 0xF44 SWAP2 SWAP1 PUSH2 0x266F JUMP JUMPDEST SWAP1 POP PUSH1 0x0 PUSH2 0xF52 DUP9 DUP4 PUSH2 0x26C9 JUMP JUMPDEST SWAP1 POP PUSH2 0xF5E DUP8 DUP3 PUSH2 0x26B5 JUMP JUMPDEST PUSH1 0x3 SSTORE PUSH2 0xF6B DUP8 DUP3 PUSH2 0x2797 JUMP JUMPDEST PUSH1 0x5 DUP5 SWAP1 SSTORE SWAP5 POP POP POP JUMPDEST TIMESTAMP PUSH1 0x2 SSTORE PUSH1 0x40 DUP1 MLOAD DUP8 DUP2 MSTORE PUSH1 0x20 DUP2 ADD DUP8 SWAP1 MSTORE SWAP1 DUP2 ADD DUP5 SWAP1 MSTORE PUSH20 0xFFFFFFFFFFFFFFFFFFFFFFFFFFFFFFFFFFFFFFFF DUP6 AND SWAP1 PUSH32 0x727302BECD070529B3293F4EC8F553D9F6AE1773F638598DB1205FBF8908083 SWAP1 PUSH1 0x60 ADD PUSH1 0x40 MLOAD DUP1 SWAP2 SUB SWAP1 LOG2 POP POP POP POP POP POP JUMP JUMPDEST PUSH1 0x5 SLOAD PUSH1 0x0 SWAP1 TIMESTAMP DUP2 GT PUSH2 0xFED JUMPI DUP1 PUSH2 0x88C JUMP JUMPDEST TIMESTAMP SWAP2 POP POP SWAP1 JUMP JUMPDEST PUSH2 0x100F PUSH2 0xFFF PUSH2 0x1220 JUMP JUMPDEST DUP3 PUSH2 0x1008 PUSH2 0x1412 JUMP JUMPDEST SWAP2 SWAP1 PUSH2 0x173B JUMP JUMPDEST POP JUMP JUMPDEST PUSH1 0x0 PUSH2 0x1039 PUSH2 0x101F PUSH2 0x1379 JUMP JUMPDEST SLOAD PUSH20 0xFFFFFFFFFFFFFFFFFFFFFFFFFFFFFFFFFFFFFFFF AND SWAP1 JUMP JUMPDEST SWAP1 POP SWAP1 JUMP JUMPDEST PUSH1 0x0 PUSH2 0x1082 DUP4 DUP4 PUSH2 0x104D PUSH2 0x1412 JUMP JUMPDEST PUSH1 0x0 SWAP3 DUP4 MSTORE PUSH1 0x20 SWAP1 DUP2 MSTORE PUSH1 0x40 DUP1 DUP5 KECCAK256 PUSH20 0xFFFFFFFFFFFFFFFFFFFFFFFFFFFFFFFFFFFFFFFF SWAP1 SWAP4 AND DUP5 MSTORE SWAP2 SWAP1 MSTORE SWAP1 KECCAK256 SLOAD PUSH1 0xFF AND SWAP1 JUMP JUMPDEST SWAP4 SWAP3 POP POP POP JUMP JUMPDEST PUSH2 0x109C PUSH2 0x1094 PUSH2 0x1220 JUMP JUMPDEST PUSH2 0x8DC PUSH2 0x1379 JUMP JUMPDEST PUSH2 0x10AA DUP7 DUP7 DUP7 DUP7 DUP7 DUP7 PUSH2 0x17DF JUMP JUMPDEST POP POP POP POP POP POP JUMP JUMPDEST PUSH1 0x0 PUSH2 0x10BC PUSH2 0x1220 JUMP JUMPDEST SWAP1 POP PUSH2 0x10CA DUP2 PUSH2 0x8DC PUSH2 0x1379 JUMP JUMPDEST PUSH2 0x8F8 DUP4 DUP4 DUP4 PUSH2 0x10D8 PUSH2 0x1412 JUMP JUMPDEST SWAP3 SWAP2 SWAP1 PUSH2 0x1A7F JUMP JUMPDEST PUSH2 0x100F PUSH2 0x10EB PUSH2 0x1220 JUMP JUMPDEST DUP3 PUSH2 0x10F4 PUSH2 0x1379 JUMP JUMPDEST SWAP2 SWAP1 PUSH2 0x1B49 JUMP JUMPDEST PUSH2 0x1106 PUSH2 0x1094 PUSH2 0x1220 JUMP JUMPDEST PUSH2 0x1112 DUP5 DUP5 DUP5 DUP5 PUSH2 0x1C5D JUMP JUMPDEST POP POP POP POP JUMP JUMPDEST PUSH1 0x0 DUP1 PUSH2 0x7C5 PUSH1 0x1 PUSH32 0xCA9D3E17F264B0F3984E2634E94ADB37FA3E6A8103F06AEAE6FA59E21C769F5E PUSH2 0x265C JUMP JUMPDEST PUSH1 0x0 PUSH29 0x100000000000000000000000000000000000000000000000000000000 PUSH32 0xFFFFFFFF00000000000000000000000000000000000000000000000000000000 DUP4 AND ADD PUSH2 0x1196 JUMPI POP PUSH1 0x0 PUSH2 0x7C5 JUMP JUMPDEST PUSH32 0xFE00365900000000000000000000000000000000000000000000000000000000 PUSH32 0xFFFFFFFF00000000000000000000000000000000000000000000000000000000 DUP4 AND ADD PUSH2 0x11E7 JUMPI POP PUSH1 0x1 PUSH2 0x7C5 JUMP JUMPDEST POP PUSH32 0xFFFFFFFF00000000000000000000000000000000000000000000000000000000 AND PUSH1 0x0 SWAP1 DUP2 MSTORE PUSH1 0x20 SWAP2 SWAP1 SWAP2 MSTORE PUSH1 0x40 SWAP1 KECCAK256 SLOAD PUSH1 0xFF AND SWAP1 JUMP JUMPDEST PUSH1 0x0 PUSH2 0x1039 PUSH2 0x1D09 JUMP JUMPDEST PUSH2 0x1233 DUP3 PUSH2 0x1516 JUMP JUMPDEST PUSH1 0x0 PUSH2 0x123F DUP4 DUP4 PUSH2 0x1E56 JUMP JUMPDEST SWAP1 POP DUP1 PUSH1 0x0 SUB PUSH2 0x127B JUMPI PUSH1 0x40 MLOAD PUSH32 0xDB73CDF000000000000000000000000000000000000000000000000000000000 DUP2 MSTORE PUSH1 0x4 ADD PUSH1 0x40 MLOAD DUP1 SWAP2 SUB SWAP1 REVERT JUMPDEST PUSH20 0xFFFFFFFFFFFFFFFFFFFFFFFFFFFFFFFFFFFFFFFF DUP4 AND PUSH1 0x0 SWAP1 DUP2 MSTORE PUSH1 0x6 PUSH1 0x20 MSTORE PUSH1 0x40 SWAP1 KECCAK256 SLOAD DUP4 DUP2 DUP4 DUP1 DUP3 LT ISZERO PUSH2 0x1304 JUMPI PUSH1 0x40 MLOAD PUSH32 0x2B6A775800000000000000000000000000000000000000000000000000000000 DUP2 MSTORE PUSH20 0xFFFFFFFFFFFFFFFFFFFFFFFFFFFFFFFFFFFFFFFF SWAP1 SWAP4 AND PUSH1 0x4 DUP5 ADD MSTORE PUSH1 0x24 DUP4 ADD SWAP2 SWAP1 SWAP2 MSTORE PUSH1 0x44 DUP3 ADD MSTORE PUSH1 0x64 ADD PUSH2 0xABB JUMP JUMPDEST POP POP POP PUSH20 0xFFFFFFFFFFFFFFFFFFFFFFFFFFFFFFFFFFFFFFFF DUP5 AND PUSH1 0x0 DUP2 DUP2 MSTORE PUSH1 0x6 PUSH1 0x20 MSTORE PUSH1 0x40 SWAP1 DUP2 SWAP1 KECCAK256 DUP1 SLOAD DUP6 SWAP1 SUB SWAP1 SSTORE DUP4 DUP4 SUB PUSH1 0x1 SSTORE MLOAD PUSH32 0xAAE638DEC0D864CCB08558C28981BCFAEE41330F57C4911CBE2D8432D0FB729E SWAP1 PUSH2 0x136B SWAP1 DUP7 SWAP1 DUP7 SWAP1 PUSH2 0x26DC JUMP JUMPDEST PUSH1 0x40 MLOAD DUP1 SWAP2 SUB SWAP1 LOG2 POP POP POP POP JUMP JUMPDEST PUSH1 0x0 DUP1 PUSH2 0x7C5 PUSH1 0x1 PUSH32 0xC9ED16F33AB3A66C84BFD83099CCB2A8845871E2E1C1928F63797152F0FD54CD PUSH2 0x265C JUMP JUMPDEST DUP2 SLOAD PUSH20 0xFFFFFFFFFFFFFFFFFFFFFFFFFFFFFFFFFFFFFFFF DUP3 DUP2 AND SWAP2 AND EQ PUSH2 0x826 JUMPI PUSH1 0x40 MLOAD PUSH32 0x2EF4875E00000000000000000000000000000000000000000000000000000000 DUP2 MSTORE PUSH20 0xFFFFFFFFFFFFFFFFFFFFFFFFFFFFFFFFFFFFFFFF DUP3 AND PUSH1 0x4 DUP3 ADD MSTORE PUSH1 0x24 ADD PUSH2 0xABB JUMP JUMPDEST PUSH1 0x0 DUP1 PUSH2 0x7C5 PUSH1 0x1 PUSH32 0xC8827D3282AF6F37B64C3E9E6F3AC9DF286AB0BB0FCCD6F8661BF19ADB368B23 PUSH2 0x265C JUMP JUMPDEST PUSH1 0x0 DUP4 DUP2 MSTORE PUSH1 0x20 DUP6 DUP2 MSTORE PUSH1 0x40 DUP1 DUP4 KECCAK256 PUSH20 0xFFFFFFFFFFFFFFFFFFFFFFFFFFFFFFFFFFFFFFFF DUP7 AND DUP5 MSTORE SWAP1 SWAP2 MSTORE SWAP1 KECCAK256 SLOAD PUSH1 0xFF AND PUSH2 0x1112 JUMPI PUSH1 0x0 DUP4 DUP2 MSTORE PUSH1 0x20 DUP6 DUP2 MSTORE PUSH1 0x40 DUP1 DUP4 KECCAK256 PUSH20 0xFFFFFFFFFFFFFFFFFFFFFFFFFFFFFFFFFFFFFFFF DUP7 DUP2 AND DUP1 DUP7 MSTORE SWAP2 DUP5 MSTORE SWAP4 DUP3 SWAP1 KECCAK256 DUP1 SLOAD PUSH32 0xFFFFFFFFFFFFFFFFFFFFFFFFFFFFFFFFFFFFFFFFFFFFFFFFFFFFFFFFFFFFFF00 AND PUSH1 0x1 OR SWAP1 SSTORE DUP2 MLOAD DUP8 DUP2 MSTORE SWAP3 DUP4 ADD MSTORE SWAP2 DUP4 AND SWAP2 DUP2 ADD SWAP2 SWAP1 SWAP2 MSTORE PUSH32 0x2F8788117E7EFF1D82E926EC794901D17C78024A50270940304540A733656F0D SWAP1 PUSH1 0x60 ADD JUMPDEST PUSH1 0x40 MLOAD DUP1 SWAP2 SUB SWAP1 LOG1 POP POP POP POP JUMP JUMPDEST PUSH2 0x151E PUSH2 0x82A JUMP JUMPDEST PUSH1 0x4 SSTORE PUSH1 0x5 SLOAD TIMESTAMP LT ISZERO DUP1 PUSH2 0x1533 JUMPI POP PUSH1 0x1 SLOAD ISZERO ISZERO JUMPDEST ISZERO PUSH2 0x1544 JUMPI PUSH2 0x1540 PUSH2 0xFDA JUMP JUMPDEST PUSH1 0x2 SSTORE JUMPDEST PUSH20 0xFFFFFFFFFFFFFFFFFFFFFFFFFFFFFFFFFFFFFFFF DUP2 AND ISZERO PUSH2 0x100F JUMPI PUSH2 0x1569 DUP2 PUSH2 0x734 JUMP JUMPDEST PUSH20 0xFFFFFFFFFFFFFFFFFFFFFFFFFFFFFFFFFFFFFFFF DUP3 AND PUSH1 0x0 SWAP1 DUP2 MSTORE PUSH1 0x7 PUSH1 0x20 SWAP1 DUP2 MSTORE PUSH1 0x40 DUP1 DUP4 KECCAK256 SWAP4 SWAP1 SWAP4 SSTORE PUSH1 0x4 SLOAD PUSH1 0x8 SWAP1 SWAP2 MSTORE SWAP2 SWAP1 KECCAK256 SSTORE POP JUMP JUMPDEST PUSH1 0x60 PUSH2 0x1082 DUP4 DUP4 PUSH2 0x1EAF JUMP JUMPDEST PUSH2 0x15B9 DUP3 PUSH2 0x1516 JUMP JUMPDEST PUSH1 0x0 PUSH2 0x15C5 DUP4 DUP4 PUSH2 0x1FC7 JUMP JUMPDEST SWAP1 POP DUP1 PUSH1 0x0 SUB PUSH2 0x1601 JUMPI PUSH1 0x40 MLOAD PUSH32 0x40EF8EC00000000000000000000000000000000000000000000000000000000 DUP2 MSTORE PUSH1 0x4 ADD PUSH1 0x40 MLOAD DUP1 SWAP2 SUB SWAP1 REVERT JUMPDEST DUP1 PUSH1 0x1 PUSH1 0x0 DUP3 DUP3 SLOAD PUSH2 0x1613 SWAP2 SWAP1 PUSH2 0x26C9 JUMP JUMPDEST SWAP1 SWAP2 SSTORE POP POP PUSH20 0xFFFFFFFFFFFFFFFFFFFFFFFFFFFFFFFFFFFFFFFF DUP4 AND PUSH1 0x0 SWAP1 DUP2 MSTORE PUSH1 0x6 PUSH1 0x20 MSTORE PUSH1 0x40 DUP2 KECCAK256 DUP1 SLOAD DUP4 SWAP3 SWAP1 PUSH2 0x164D SWAP1 DUP5 SWAP1 PUSH2 0x26C9 JUMP JUMPDEST SWAP3 POP POP DUP2 SWAP1 SSTORE POP DUP3 PUSH20 0xFFFFFFFFFFFFFFFFFFFFFFFFFFFFFFFFFFFFFFFF AND PUSH32 0xF4679D394F1F97F1A3DF1D73E193866EC5A813168AD5FA6958F9BE21B10A594E DUP4 DUP4 PUSH1 0x40 MLOAD PUSH2 0x9A1 SWAP3 SWAP2 SWAP1 PUSH2 0x26DC JUMP JUMPDEST PUSH2 0x16A7 PUSH2 0x1094 PUSH2 0x1220 JUMP JUMPDEST PUSH2 0x10AA DUP7 DUP7 DUP7 DUP7 DUP7 DUP7 PUSH2 0x1FDD JUMP JUMPDEST PUSH1 0x0 DUP3 DUP2 MSTORE PUSH1 0x20 DUP5 DUP2 MSTORE PUSH1 0x40 DUP1 DUP4 KECCAK256 PUSH20 0xFFFFFFFFFFFFFFFFFFFFFFFFFFFFFFFFFFFFFFFF DUP6 AND DUP5 MSTORE SWAP1 SWAP2 MSTORE SWAP1 KECCAK256 SLOAD PUSH1 0xFF AND PUSH2 0x8F8 JUMPI PUSH1 0x40 MLOAD PUSH32 0x7AA7288200000000000000000000000000000000000000000000000000000000 DUP2 MSTORE PUSH1 0x4 DUP2 ADD DUP4 SWAP1 MSTORE PUSH20 0xFFFFFFFFFFFFFFFFFFFFFFFFFFFFFFFFFFFFFFFF DUP3 AND PUSH1 0x24 DUP3 ADD MSTORE PUSH1 0x44 ADD PUSH2 0xABB JUMP JUMPDEST PUSH2 0x1746 DUP4 DUP3 DUP5 PUSH2 0x16B5 JUMP JUMPDEST PUSH1 0x0 DUP2 DUP2 MSTORE PUSH1 0x20 DUP5 DUP2 MSTORE PUSH1 0x40 DUP1 DUP4 KECCAK256 PUSH20 0xFFFFFFFFFFFFFFFFFFFFFFFFFFFFFFFFFFFFFFFF DUP7 AND DUP1 DUP6 MSTORE SWAP1 DUP4 MSTORE SWAP3 DUP2 SWAP1 KECCAK256 DUP1 SLOAD PUSH32 0xFFFFFFFFFFFFFFFFFFFFFFFFFFFFFFFFFFFFFFFFFFFFFFFFFFFFFFFFFFFFFF00 AND SWAP1 SSTORE DUP1 MLOAD DUP5 DUP2 MSTORE SWAP2 DUP3 ADD DUP4 SWAP1 MSTORE DUP2 ADD SWAP2 SWAP1 SWAP2 MSTORE PUSH32 0xF6391F5C32D9C69D2A47EA670B442974B53935D1EDC7FD64EB21E047A839171B SWAP1 PUSH1 0x60 ADD PUSH1 0x40 MLOAD DUP1 SWAP2 SUB SWAP1 LOG1 POP POP POP JUMP JUMPDEST DUP5 DUP4 DUP2 EQ ISZERO DUP1 PUSH2 0x17EF JUMPI POP DUP1 DUP3 EQ ISZERO JUMPDEST ISZERO PUSH2 0x1826 JUMPI PUSH1 0x40 MLOAD PUSH32 0x6582533600000000000000000000000000000000000000000000000000000000 DUP2 MSTORE PUSH1 0x4 ADD PUSH1 0x40 MLOAD DUP1 SWAP2 SUB SWAP1 REVERT JUMPDEST PUSH1 0x0 JUMPDEST DUP2 DUP2 LT ISZERO PUSH2 0x1A75 JUMPI PUSH1 0x0 DUP7 DUP7 DUP4 DUP2 DUP2 LT PUSH2 0x1845 JUMPI PUSH2 0x1845 PUSH2 0x274F JUMP JUMPDEST SWAP1 POP PUSH1 0x20 MUL ADD PUSH1 0x20 DUP2 ADD SWAP1 PUSH2 0x185A SWAP2 SWAP1 PUSH2 0x2309 JUMP JUMPDEST PUSH1 0x40 MLOAD PUSH32 0x1FFC9A700000000000000000000000000000000000000000000000000000000 DUP2 MSTORE PUSH32 0x80AC58CD00000000000000000000000000000000000000000000000000000000 PUSH1 0x4 DUP3 ADD MSTORE SWAP1 SWAP2 POP PUSH20 0xFFFFFFFFFFFFFFFFFFFFFFFFFFFFFFFFFFFFFFFF DUP3 AND SWAP1 PUSH4 0x1FFC9A7 SWAP1 PUSH1 0x24 ADD PUSH1 0x20 PUSH1 0x40 MLOAD DUP1 DUP4 SUB DUP2 DUP7 GAS STATICCALL ISZERO DUP1 ISZERO PUSH2 0x18E7 JUMPI RETURNDATASIZE PUSH1 0x0 DUP1 RETURNDATACOPY RETURNDATASIZE PUSH1 0x0 REVERT JUMPDEST POP POP POP POP PUSH1 0x40 MLOAD RETURNDATASIZE PUSH1 0x1F NOT PUSH1 0x1F DUP3 ADD AND DUP3 ADD DUP1 PUSH1 0x40 MSTORE POP DUP2 ADD SWAP1 PUSH2 0x190B SWAP2 SWAP1 PUSH2 0x27AB JUMP JUMPDEST PUSH2 0x1959 JUMPI PUSH1 0x40 MLOAD PUSH32 0x986B9F1F00000000000000000000000000000000000000000000000000000000 DUP2 MSTORE PUSH20 0xFFFFFFFFFFFFFFFFFFFFFFFFFFFFFFFFFFFFFFFF DUP3 AND PUSH1 0x4 DUP3 ADD MSTORE PUSH1 0x24 ADD PUSH2 0xABB JUMP JUMPDEST DUP7 DUP7 DUP4 DUP2 DUP2 LT PUSH2 0x196B JUMPI PUSH2 0x196B PUSH2 0x274F JUMP JUMPDEST SWAP1 POP PUSH1 0x20 MUL ADD PUSH1 0x20 DUP2 ADD SWAP1 PUSH2 0x1980 SWAP2 SWAP1 PUSH2 0x2309 JUMP JUMPDEST PUSH20 0xFFFFFFFFFFFFFFFFFFFFFFFFFFFFFFFFFFFFFFFF AND PUSH4 0x42842E0E ADDRESS DUP12 DUP12 DUP7 DUP2 DUP2 LT PUSH2 0x19AE JUMPI PUSH2 0x19AE PUSH2 0x274F JUMP JUMPDEST SWAP1 POP PUSH1 0x20 MUL ADD PUSH1 0x20 DUP2 ADD SWAP1 PUSH2 0x19C3 SWAP2 SWAP1 PUSH2 0x2309 JUMP JUMPDEST DUP9 DUP9 DUP8 DUP2 DUP2 LT PUSH2 0x19D5 JUMPI PUSH2 0x19D5 PUSH2 0x274F JUMP JUMPDEST PUSH1 0x40 MLOAD PUSH32 0xFFFFFFFF00000000000000000000000000000000000000000000000000000000 PUSH1 0xE0 DUP9 SWAP1 SHL AND DUP2 MSTORE PUSH20 0xFFFFFFFFFFFFFFFFFFFFFFFFFFFFFFFFFFFFFFFF SWAP6 DUP7 AND PUSH1 0x4 DUP3 ADD MSTORE SWAP5 SWAP1 SWAP4 AND PUSH1 0x24 DUP6 ADD MSTORE POP PUSH1 0x20 SWAP1 SWAP2 MUL ADD CALLDATALOAD PUSH1 0x44 DUP3 ADD MSTORE PUSH1 0x64 ADD PUSH1 0x0 PUSH1 0x40 MLOAD DUP1 DUP4 SUB DUP2 PUSH1 0x0 DUP8 DUP1 EXTCODESIZE ISZERO DUP1 ISZERO PUSH2 0x1A51 JUMPI PUSH1 0x0 DUP1 REVERT JUMPDEST POP GAS CALL ISZERO DUP1 ISZERO PUSH2 0x1A65 JUMPI RETURNDATASIZE PUSH1 0x0 DUP1 RETURNDATACOPY RETURNDATASIZE PUSH1 0x0 REVERT JUMPDEST POP POP POP POP POP DUP1 PUSH1 0x1 ADD SWAP1 POP PUSH2 0x1829 JUMP JUMPDEST POP POP POP POP POP POP POP POP JUMP JUMPDEST PUSH1 0x0 DUP4 DUP2 MSTORE PUSH1 0x20 DUP6 DUP2 MSTORE PUSH1 0x40 DUP1 DUP4 KECCAK256 PUSH20 0xFFFFFFFFFFFFFFFFFFFFFFFFFFFFFFFFFFFFFFFF DUP7 AND DUP5 MSTORE SWAP1 SWAP2 MSTORE SWAP1 KECCAK256 SLOAD PUSH1 0xFF AND ISZERO PUSH2 0x1112 JUMPI PUSH1 0x0 DUP4 DUP2 MSTORE PUSH1 0x20 DUP6 DUP2 MSTORE PUSH1 0x40 DUP1 DUP4 KECCAK256 PUSH20 0xFFFFFFFFFFFFFFFFFFFFFFFFFFFFFFFFFFFFFFFF DUP7 DUP2 AND DUP1 DUP7 MSTORE SWAP2 DUP5 MSTORE SWAP4 DUP3 SWAP1 KECCAK256 DUP1 SLOAD PUSH32 0xFFFFFFFFFFFFFFFFFFFFFFFFFFFFFFFFFFFFFFFFFFFFFFFFFFFFFFFFFFFFFF00 AND SWAP1 SSTORE DUP2 MLOAD DUP8 DUP2 MSTORE SWAP3 DUP4 ADD MSTORE SWAP2 DUP4 AND SWAP2 DUP2 ADD SWAP2 SWAP1 SWAP2 MSTORE PUSH32 0xF6391F5C32D9C69D2A47EA670B442974B53935D1EDC7FD64EB21E047A839171B SWAP1 PUSH1 0x60 ADD PUSH2 0x1508 JUMP JUMPDEST DUP3 SLOAD PUSH20 0xFFFFFFFFFFFFFFFFFFFFFFFFFFFFFFFFFFFFFFFF SWAP1 DUP2 AND SWAP1 DUP4 AND DUP2 EQ PUSH2 0x1BB6 JUMPI PUSH1 0x40 MLOAD PUSH32 0x2EF4875E00000000000000000000000000000000000000000000000000000000 DUP2 MSTORE PUSH20 0xFFFFFFFFFFFFFFFFFFFFFFFFFFFFFFFFFFFFFFFF DUP5 AND PUSH1 0x4 DUP3 ADD MSTORE PUSH1 0x24 ADD PUSH2 0xABB JUMP JUMPDEST DUP2 PUSH20 0xFFFFFFFFFFFFFFFFFFFFFFFFFFFFFFFFFFFFFFFF AND DUP2 PUSH20 0xFFFFFFFFFFFFFFFFFFFFFFFFFFFFFFFFFFFFFFFF AND EQ PUSH2 0x1112 JUMPI DUP4 SLOAD PUSH32 0xFFFFFFFFFFFFFFFFFFFFFFFF0000000000000000000000000000000000000000 AND PUSH20 0xFFFFFFFFFFFFFFFFFFFFFFFFFFFFFFFFFFFFFFFF DUP4 DUP2 AND SWAP2 DUP3 OR DUP7 SSTORE PUSH1 0x40 MLOAD SWAP1 DUP4 AND SWAP1 PUSH32 0x8BE0079C531659141344CD1FD0A4F28419497F9722A3DAAFE3B4186F6B6457E0 SWAP1 PUSH1 0x0 SWAP1 LOG3 POP POP POP POP JUMP JUMPDEST DUP3 DUP2 DUP2 EQ PUSH2 0x1C97 JUMPI PUSH1 0x40 MLOAD PUSH32 0x6582533600000000000000000000000000000000000000000000000000000000 DUP2 MSTORE PUSH1 0x4 ADD PUSH1 0x40 MLOAD DUP1 SWAP2 SUB SWAP1 REVERT JUMPDEST PUSH1 0x0 JUMPDEST DUP2 DUP2 LT ISZERO PUSH2 0x10AA JUMPI PUSH2 0x1D01 DUP5 DUP5 DUP4 DUP2 DUP2 LT PUSH2 0x1CB7 JUMPI PUSH2 0x1CB7 PUSH2 0x274F JUMP JUMPDEST SWAP1 POP PUSH1 0x20 MUL ADD CALLDATALOAD DUP8 DUP8 DUP5 DUP2 DUP2 LT PUSH2 0x1CD0 JUMPI PUSH2 0x1CD0 PUSH2 0x274F JUMP JUMPDEST SWAP1 POP PUSH1 0x20 MUL ADD PUSH1 0x20 DUP2 ADD SWAP1 PUSH2 0x1CE5 SWAP2 SWAP1 PUSH2 0x2309 JUMP JUMPDEST PUSH20 0xFFFFFFFFFFFFFFFFFFFFFFFFFFFFFFFFFFFFFFFF AND SWAP1 PUSH2 0x20BE JUMP JUMPDEST PUSH1 0x1 ADD PUSH2 0x1C9A JUMP JUMPDEST PUSH1 0x0 CALLER ORIGIN EQ DUP1 PUSH2 0x1D19 JUMPI POP PUSH1 0x18 CALLDATASIZE LT JUMPDEST ISZERO PUSH2 0x1D23 JUMPI POP CALLER SWAP1 JUMP JUMPDEST PUSH32 0xFFFFFFFFFFFFFFFFFFFFFFFFFFFFFFFFFFFFFFFFFFFFFFFFFFFFFFFFFFFFFFEC CALLDATASIZE ADD CALLDATALOAD PUSH1 0x60 SHR PUSH32 0x0 PUSH20 0xFFFFFFFFFFFFFFFFFFFFFFFFFFFFFFFFFFFFFFFF AND CALLER EQ DUP1 PUSH2 0x1E45 JUMPI POP PUSH1 0x40 MLOAD PUSH32 0x19A202800000000000000000000000000000000000000000000000000000000 DUP2 MSTORE PUSH20 0xFFFFFFFFFFFFFFFFFFFFFFFFFFFFFFFFFFFFFFFF DUP3 DUP2 AND PUSH1 0x4 DUP4 ADD MSTORE CALLER PUSH1 0x24 DUP4 ADD MSTORE ADDRESS PUSH1 0x44 DUP4 ADD MSTORE PUSH32 0x0 AND SWAP1 PUSH4 0x19A2028 SWAP1 PUSH1 0x64 ADD PUSH1 0x20 PUSH1 0x40 MLOAD DUP1 DUP4 SUB DUP2 DUP7 GAS STATICCALL ISZERO DUP1 ISZERO PUSH2 0x1E21 JUMPI RETURNDATASIZE PUSH1 0x0 DUP1 RETURNDATACOPY RETURNDATASIZE PUSH1 0x0 REVERT JUMPDEST POP POP POP POP PUSH1 0x40 MLOAD RETURNDATASIZE PUSH1 0x1F NOT PUSH1 0x1F DUP3 ADD AND DUP3 ADD DUP1 PUSH1 0x40 MSTORE POP DUP2 ADD SWAP1 PUSH2 0x1E45 SWAP2 SWAP1 PUSH2 0x27AB JUMP JUMPDEST ISZERO PUSH2 0x1E4F JUMPI SWAP2 SWAP1 POP JUMP JUMPDEST CALLER SWAP2 POP POP SWAP1 JUMP JUMPDEST PUSH1 0x0 DUP2 DUP1 PUSH1 0x20 ADD SWAP1 MLOAD DUP2 ADD SWAP1 PUSH2 0x1E6C SWAP2 SWAP1 PUSH2 0x277E JUMP JUMPDEST SWAP1 POP PUSH2 0x7C5 PUSH20 0xFFFFFFFFFFFFFFFFFFFFFFFFFFFFFFFFFFFFFFFF PUSH32 0x0 AND DUP5 DUP4 PUSH2 0x2174 JUMP JUMPDEST PUSH1 0x60 DUP2 PUSH1 0x40 MLOAD PUSH1 0x20 ADD PUSH2 0x1EC4 SWAP2 DUP2 MSTORE PUSH1 0x20 ADD SWAP1 JUMP JUMPDEST PUSH1 0x40 DUP1 MLOAD DUP1 DUP4 SUB PUSH32 0xFFFFFFFFFFFFFFFFFFFFFFFFFFFFFFFFFFFFFFFFFFFFFFFFFFFFFFFFFFFFFFE0 ADD DUP2 MSTORE SWAP1 DUP3 SWAP1 MSTORE PUSH32 0x26B3293F00000000000000000000000000000000000000000000000000000000 DUP3 MSTORE PUSH20 0xFFFFFFFFFFFFFFFFFFFFFFFFFFFFFFFFFFFFFFFF DUP6 DUP2 AND PUSH1 0x4 DUP5 ADD MSTORE PUSH1 0x24 DUP4 ADD DUP6 SWAP1 MSTORE PUSH32 0x0 PUSH1 0x44 DUP5 ADD MSTORE SWAP1 SWAP3 POP PUSH32 0x0 AND SWAP1 PUSH4 0x26B3293F SWAP1 PUSH1 0x64 ADD PUSH1 0x0 PUSH1 0x40 MLOAD DUP1 DUP4 SUB DUP2 PUSH1 0x0 DUP8 DUP1 EXTCODESIZE ISZERO DUP1 ISZERO PUSH2 0x1FA9 JUMPI PUSH1 0x0 DUP1 REVERT JUMPDEST POP GAS CALL ISZERO DUP1 ISZERO PUSH2 0x1FBD JUMPI RETURNDATASIZE PUSH1 0x0 DUP1 RETURNDATACOPY RETURNDATASIZE PUSH1 0x0 REVERT JUMPDEST POP POP POP POP SWAP3 SWAP2 POP POP JUMP JUMPDEST PUSH1 0x0 DUP2 DUP1 PUSH1 0x20 ADD SWAP1 MLOAD DUP2 ADD SWAP1 PUSH2 0x1082 SWAP2 SWAP1 PUSH2 0x277E JUMP JUMPDEST DUP5 DUP4 DUP2 EQ ISZERO DUP1 PUSH2 0x1FED JUMPI POP DUP1 DUP3 EQ ISZERO JUMPDEST ISZERO PUSH2 0x2024 JUMPI PUSH1 0x40 MLOAD PUSH32 0x6582533600000000000000000000000000000000000000000000000000000000 DUP2 MSTORE PUSH1 0x4 ADD PUSH1 0x40 MLOAD DUP1 SWAP2 SUB SWAP1 REVERT JUMPDEST PUSH1 0x0 JUMPDEST DUP2 DUP2 LT ISZERO PUSH2 0x1A75 JUMPI PUSH2 0x20B6 DUP9 DUP9 DUP4 DUP2 DUP2 LT PUSH2 0x2044 JUMPI PUSH2 0x2044 PUSH2 0x274F JUMP JUMPDEST SWAP1 POP PUSH1 0x20 MUL ADD PUSH1 0x20 DUP2 ADD SWAP1 PUSH2 0x2059 SWAP2 SWAP1 PUSH2 0x2309 JUMP JUMPDEST DUP6 DUP6 DUP5 DUP2 DUP2 LT PUSH2 0x206B JUMPI PUSH2 0x206B PUSH2 0x274F JUMP JUMPDEST SWAP1 POP PUSH1 0x20 MUL ADD CALLDATALOAD DUP9 DUP9 DUP6 DUP2 DUP2 LT PUSH2 0x2084 JUMPI PUSH2 0x2084 PUSH2 0x274F JUMP JUMPDEST SWAP1 POP PUSH1 0x20 MUL ADD PUSH1 0x20 DUP2 ADD SWAP1 PUSH2 0x2099 SWAP2 SWAP1 PUSH2 0x2309 JUMP JUMPDEST PUSH20 0xFFFFFFFFFFFFFFFFFFFFFFFFFFFFFFFFFFFFFFFF AND SWAP2 SWAP1 PUSH2 0x2174 JUMP JUMPDEST PUSH1 0x1 ADD PUSH2 0x2027 JUMP JUMPDEST DUP1 SELFBALANCE LT ISZERO PUSH2 0x2101 JUMPI PUSH1 0x40 MLOAD PUSH32 0xCF47918100000000000000000000000000000000000000000000000000000000 DUP2 MSTORE SELFBALANCE PUSH1 0x4 DUP3 ADD MSTORE PUSH1 0x24 DUP2 ADD DUP3 SWAP1 MSTORE PUSH1 0x44 ADD PUSH2 0xABB JUMP JUMPDEST PUSH1 0x0 DUP1 DUP4 PUSH20 0xFFFFFFFFFFFFFFFFFFFFFFFFFFFFFFFFFFFFFFFF AND DUP4 PUSH1 0x40 MLOAD PUSH1 0x0 PUSH1 0x40 MLOAD DUP1 DUP4 SUB DUP2 DUP6 DUP8 GAS CALL SWAP3 POP POP POP RETURNDATASIZE DUP1 PUSH1 0x0 DUP2 EQ PUSH2 0x215C JUMPI PUSH1 0x40 MLOAD SWAP2 POP PUSH1 0x1F NOT PUSH1 0x3F RETURNDATASIZE ADD AND DUP3 ADD PUSH1 0x40 MSTORE RETURNDATASIZE DUP3 MSTORE RETURNDATASIZE PUSH1 0x0 PUSH1 0x20 DUP5 ADD RETURNDATACOPY PUSH2 0x2161 JUMP JUMPDEST PUSH1 0x60 SWAP2 POP JUMPDEST POP SWAP2 POP SWAP2 POP DUP2 PUSH2 0x1112 JUMPI PUSH2 0x1112 DUP2 PUSH2 0x2201 JUMP JUMPDEST PUSH1 0x40 DUP1 MLOAD PUSH20 0xFFFFFFFFFFFFFFFFFFFFFFFFFFFFFFFFFFFFFFFF DUP5 AND PUSH1 0x24 DUP3 ADD MSTORE PUSH1 0x44 DUP1 DUP3 ADD DUP5 SWAP1 MSTORE DUP3 MLOAD DUP1 DUP4 SUB SWAP1 SWAP2 ADD DUP2 MSTORE PUSH1 0x64 SWAP1 SWAP2 ADD SWAP1 SWAP2 MSTORE PUSH1 0x20 DUP2 ADD DUP1 MLOAD PUSH28 0xFFFFFFFFFFFFFFFFFFFFFFFFFFFFFFFFFFFFFFFFFFFFFFFFFFFFFFFF AND PUSH32 0xA9059CBB00000000000000000000000000000000000000000000000000000000 OR SWAP1 MSTORE PUSH2 0x8F8 SWAP1 DUP5 SWAP1 PUSH2 0x2243 JUMP JUMPDEST DUP1 MLOAD ISZERO PUSH2 0x2211 JUMPI DUP1 MLOAD DUP1 DUP3 PUSH1 0x20 ADD REVERT JUMPDEST PUSH1 0x40 MLOAD PUSH32 0xD6BDA27500000000000000000000000000000000000000000000000000000000 DUP2 MSTORE PUSH1 0x4 ADD PUSH1 0x40 MLOAD DUP1 SWAP2 SUB SWAP1 REVERT JUMPDEST PUSH1 0x0 DUP1 PUSH1 0x20 PUSH1 0x0 DUP5 MLOAD PUSH1 0x20 DUP7 ADD PUSH1 0x0 DUP9 GAS CALL DUP1 PUSH2 0x2266 JUMPI PUSH1 0x40 MLOAD RETURNDATASIZE PUSH1 0x0 DUP3 RETURNDATACOPY RETURNDATASIZE DUP2 REVERT JUMPDEST POP POP PUSH1 0x0 MLOAD RETURNDATASIZE SWAP2 POP DUP2 ISZERO PUSH2 0x227E JUMPI DUP1 PUSH1 0x1 EQ ISZERO PUSH2 0x2298 JUMP JUMPDEST PUSH20 0xFFFFFFFFFFFFFFFFFFFFFFFFFFFFFFFFFFFFFFFF DUP5 AND EXTCODESIZE ISZERO JUMPDEST ISZERO PUSH2 0x1112 JUMPI PUSH1 0x40 MLOAD PUSH32 0x5274AFE700000000000000000000000000000000000000000000000000000000 DUP2 MSTORE PUSH20 0xFFFFFFFFFFFFFFFFFFFFFFFFFFFFFFFFFFFFFFFF DUP6 AND PUSH1 0x4 DUP3 ADD MSTORE PUSH1 0x24 ADD PUSH2 0xABB JUMP JUMPDEST PUSH20 0xFFFFFFFFFFFFFFFFFFFFFFFFFFFFFFFFFFFFFFFF DUP2 AND DUP2 EQ PUSH2 0x100F JUMPI PUSH1 0x0 DUP1 REVERT JUMPDEST PUSH1 0x0 PUSH1 0x20 DUP3 DUP5 SUB SLT ISZERO PUSH2 0x231B JUMPI PUSH1 0x0 DUP1 REVERT JUMPDEST DUP2 CALLDATALOAD PUSH2 0x1082 DUP2 PUSH2 0x22E7 JUMP JUMPDEST PUSH1 0x0 PUSH1 0x20 DUP3 DUP5 SUB SLT ISZERO PUSH2 0x2338 JUMPI PUSH1 0x0 DUP1 REVERT JUMPDEST DUP2 CALLDATALOAD PUSH32 0xFFFFFFFF00000000000000000000000000000000000000000000000000000000 DUP2 AND DUP2 EQ PUSH2 0x1082 JUMPI PUSH1 0x0 DUP1 REVERT JUMPDEST PUSH1 0x0 DUP1 DUP4 PUSH1 0x1F DUP5 ADD SLT PUSH2 0x237A JUMPI PUSH1 0x0 DUP1 REVERT JUMPDEST POP DUP2 CALLDATALOAD PUSH8 0xFFFFFFFFFFFFFFFF DUP2 GT ISZERO PUSH2 0x2392 JUMPI PUSH1 0x0 DUP1 REVERT JUMPDEST PUSH1 0x20 DUP4 ADD SWAP2 POP DUP4 PUSH1 0x20 DUP3 DUP6 ADD ADD GT ISZERO PUSH2 0x23AA JUMPI PUSH1 0x0 DUP1 REVERT JUMPDEST SWAP3 POP SWAP3 SWAP1 POP JUMP JUMPDEST PUSH1 0x0 DUP1 PUSH1 0x20 DUP4 DUP6 SUB SLT ISZERO PUSH2 0x23C4 JUMPI PUSH1 0x0 DUP1 REVERT JUMPDEST DUP3 CALLDATALOAD PUSH8 0xFFFFFFFFFFFFFFFF DUP2 GT ISZERO PUSH2 0x23DB JUMPI PUSH1 0x0 DUP1 REVERT JUMPDEST PUSH2 0x23E7 DUP6 DUP3 DUP7 ADD PUSH2 0x2368 JUMP JUMPDEST SWAP1 SWAP7 SWAP1 SWAP6 POP SWAP4 POP POP POP POP JUMP JUMPDEST PUSH1 0x0 DUP1 PUSH1 0x40 DUP4 DUP6 SUB SLT ISZERO PUSH2 0x2406 JUMPI PUSH1 0x0 DUP1 REVERT JUMPDEST DUP3 CALLDATALOAD SWAP2 POP PUSH1 0x20 DUP4 ADD CALLDATALOAD PUSH2 0x2418 DUP2 PUSH2 0x22E7 JUMP JUMPDEST DUP1 SWAP2 POP POP SWAP3 POP SWAP3 SWAP1 POP JUMP JUMPDEST PUSH1 0x0 DUP1 PUSH1 0x0 DUP1 PUSH1 0x0 PUSH1 0x80 DUP7 DUP9 SUB SLT ISZERO PUSH2 0x243B JUMPI PUSH1 0x0 DUP1 REVERT JUMPDEST DUP6 CALLDATALOAD PUSH2 0x2446 DUP2 PUSH2 0x22E7 JUMP JUMPDEST SWAP5 POP PUSH1 0x20 DUP7 ADD CALLDATALOAD PUSH2 0x2456 DUP2 PUSH2 0x22E7 JUMP JUMPDEST SWAP4 POP PUSH1 0x40 DUP7 ADD CALLDATALOAD SWAP3 POP PUSH1 0x60 DUP7 ADD CALLDATALOAD PUSH8 0xFFFFFFFFFFFFFFFF DUP2 GT ISZERO PUSH2 0x2479 JUMPI PUSH1 0x0 DUP1 REVERT JUMPDEST PUSH2 0x2485 DUP9 DUP3 DUP10 ADD PUSH2 0x2368 JUMP JUMPDEST SWAP7 SWAP10 SWAP6 SWAP9 POP SWAP4 SWAP7 POP SWAP3 SWAP5 SWAP4 SWAP3 POP POP POP JUMP JUMPDEST PUSH1 0x0 DUP1 DUP4 PUSH1 0x1F DUP5 ADD SLT PUSH2 0x24A8 JUMPI PUSH1 0x0 DUP1 REVERT JUMPDEST POP DUP2 CALLDATALOAD PUSH8 0xFFFFFFFFFFFFFFFF DUP2 GT ISZERO PUSH2 0x24C0 JUMPI PUSH1 0x0 DUP1 REVERT JUMPDEST PUSH1 0x20 DUP4 ADD SWAP2 POP DUP4 PUSH1 0x20 DUP3 PUSH1 0x5 SHL DUP6 ADD ADD GT ISZERO PUSH2 0x23AA JUMPI PUSH1 0x0 DUP1 REVERT JUMPDEST PUSH1 0x0 DUP1 PUSH1 0x0 DUP1 PUSH1 0x0 DUP1 PUSH1 0x60 DUP8 DUP10 SUB SLT ISZERO PUSH2 0x24F4 JUMPI PUSH1 0x0 DUP1 REVERT JUMPDEST DUP7 CALLDATALOAD PUSH8 0xFFFFFFFFFFFFFFFF DUP2 GT ISZERO PUSH2 0x250B JUMPI PUSH1 0x0 DUP1 REVERT JUMPDEST PUSH2 0x2517 DUP10 DUP3 DUP11 ADD PUSH2 0x2496 JUMP JUMPDEST SWAP1 SWAP8 POP SWAP6 POP POP PUSH1 0x20 DUP8 ADD CALLDATALOAD PUSH8 0xFFFFFFFFFFFFFFFF DUP2 GT ISZERO PUSH2 0x2537 JUMPI PUSH1 0x0 DUP1 REVERT JUMPDEST PUSH2 0x2543 DUP10 DUP3 DUP11 ADD PUSH2 0x2496 JUMP JUMPDEST SWAP1 SWAP6 POP SWAP4 POP POP PUSH1 0x40 DUP8 ADD CALLDATALOAD PUSH8 0xFFFFFFFFFFFFFFFF DUP2 GT ISZERO PUSH2 0x2563 JUMPI PUSH1 0x0 DUP1 REVERT JUMPDEST PUSH2 0x256F DUP10 DUP3 DUP11 ADD PUSH2 0x2496 JUMP JUMPDEST SWAP8 SWAP11 SWAP7 SWAP10 POP SWAP5 SWAP8 POP SWAP3 SWAP6 SWAP4 SWAP5 SWAP3 POP POP POP JUMP JUMPDEST PUSH1 0x0 DUP1 PUSH1 0x40 DUP4 DUP6 SUB SLT ISZERO PUSH2 0x2594 JUMPI PUSH1 0x0 DUP1 REVERT JUMPDEST POP POP DUP1 CALLDATALOAD SWAP3 PUSH1 0x20 SWAP1 SWAP2 ADD CALLDATALOAD SWAP2 POP JUMP JUMPDEST PUSH1 0x0 PUSH1 0x20 DUP3 DUP5 SUB SLT ISZERO PUSH2 0x25B5 JUMPI PUSH1 0x0 DUP1 REVERT JUMPDEST POP CALLDATALOAD SWAP2 SWAP1 POP JUMP JUMPDEST PUSH1 0x0 DUP1 PUSH1 0x0 DUP1 PUSH1 0x40 DUP6 DUP8 SUB SLT ISZERO PUSH2 0x25D2 JUMPI PUSH1 0x0 DUP1 REVERT JUMPDEST DUP5 CALLDATALOAD PUSH8 0xFFFFFFFFFFFFFFFF DUP2 GT ISZERO PUSH2 0x25E9 JUMPI PUSH1 0x0 DUP1 REVERT JUMPDEST PUSH2 0x25F5 DUP8 DUP3 DUP9 ADD PUSH2 0x2496 JUMP JUMPDEST SWAP1 SWAP6 POP SWAP4 POP POP PUSH1 0x20 DUP6 ADD CALLDATALOAD PUSH8 0xFFFFFFFFFFFFFFFF DUP2 GT ISZERO PUSH2 0x2615 JUMPI PUSH1 0x0 DUP1 REVERT JUMPDEST PUSH2 0x2621 DUP8 DUP3 DUP9 ADD PUSH2 0x2496 JUMP JUMPDEST SWAP6 SWAP9 SWAP5 SWAP8 POP SWAP6 POP POP POP POP JUMP JUMPDEST PUSH32 0x4E487B7100000000000000000000000000000000000000000000000000000000 PUSH1 0x0 MSTORE PUSH1 0x11 PUSH1 0x4 MSTORE PUSH1 0x24 PUSH1 0x0 REVERT JUMPDEST DUP2 DUP2 SUB DUP2 DUP2 GT ISZERO PUSH2 0x7C5 JUMPI PUSH2 0x7C5 PUSH2 0x262D JUMP JUMPDEST DUP1 DUP3 MUL DUP2 ISZERO DUP3 DUP3 DIV DUP5 EQ OR PUSH2 0x7C5 JUMPI PUSH2 0x7C5 PUSH2 0x262D JUMP JUMPDEST PUSH32 0x4E487B7100000000000000000000000000000000000000000000000000000000 PUSH1 0x0 MSTORE PUSH1 0x12 PUSH1 0x4 MSTORE PUSH1 0x24 PUSH1 0x0 REVERT JUMPDEST PUSH1 0x0 DUP3 PUSH2 0x26C4 JUMPI PUSH2 0x26C4 PUSH2 0x2686 JUMP JUMPDEST POP DIV SWAP1 JUMP JUMPDEST DUP1 DUP3 ADD DUP1 DUP3 GT ISZERO PUSH2 0x7C5 JUMPI PUSH2 0x7C5 PUSH2 0x262D JUMP JUMPDEST PUSH1 0x40 DUP2 MSTORE PUSH1 0x0 DUP4 MLOAD DUP1 PUSH1 0x40 DUP5 ADD MSTORE PUSH1 0x0 JUMPDEST DUP2 DUP2 LT ISZERO PUSH2 0x270A JUMPI PUSH1 0x20 DUP2 DUP8 ADD DUP2 ADD MLOAD PUSH1 0x60 DUP7 DUP5 ADD ADD MSTORE ADD PUSH2 0x26ED JUMP JUMPDEST POP PUSH1 0x0 PUSH1 0x60 DUP3 DUP6 ADD ADD MSTORE PUSH1 0x60 PUSH32 0xFFFFFFFFFFFFFFFFFFFFFFFFFFFFFFFFFFFFFFFFFFFFFFFFFFFFFFFFFFFFFFE0 PUSH1 0x1F DUP4 ADD AND DUP5 ADD ADD SWAP2 POP POP DUP3 PUSH1 0x20 DUP4 ADD MSTORE SWAP4 SWAP3 POP POP POP JUMP JUMPDEST PUSH32 0x4E487B7100000000000000000000000000000000000000000000000000000000 PUSH1 0x0 MSTORE PUSH1 0x32 PUSH1 0x4 MSTORE PUSH1 0x24 PUSH1 0x0 REVERT JUMPDEST PUSH1 0x0 PUSH1 0x20 DUP3 DUP5 SUB SLT ISZERO PUSH2 0x2790 JUMPI PUSH1 0x0 DUP1 REVERT JUMPDEST POP MLOAD SWAP2 SWAP1 POP JUMP JUMPDEST PUSH1 0x0 DUP3 PUSH2 0x27A6 JUMPI PUSH2 0x27A6 PUSH2 0x2686 JUMP JUMPDEST POP MOD SWAP1 JUMP JUMPDEST PUSH1 0x0 PUSH1 0x20 DUP3 DUP5 SUB SLT ISZERO PUSH2 0x27BD JUMPI PUSH1 0x0 DUP1 REVERT JUMPDEST DUP2 MLOAD DUP1 ISZERO ISZERO DUP2 EQ PUSH2 0x1082 JUMPI PUSH1 0x0 DUP1 REVERT INVALID LOG2 PUSH5 0x6970667358 0x22 SLT KECCAK256 0xC5 0xC6 MLOAD EXP KECCAK256 0xB9 DUP2 PUSH26 0xA7FA7E80031DC655B9F838D7F63D4BE7B7DCA003CCFB320B6473 PUSH16 0x6C634300081C00330000000000000000 "},"gasEstimates":{"creation":{"codeDepositCost":"2048600","executionCost":"infinite","totalCost":"infinite"},"external":{"CLAIM_CONTRACT()":"infinite","DEPOSIT_REASON_CODE()":"infinite","POINTS_CONTRACT()":"infinite","REWARDER_ROLE()":"296","SCALING_FACTOR()":"273","STAKING_TOKEN()":"infinite","addReward(uint256,uint256)":"infinite","claim()":"infinite","distributionEnd()":"2350","earned(address)":"infinite","forwarderRegistry()":"infinite","grantRole(bytes32,address)":"infinite","hasRole(bytes32,address)":"infinite","isTrustedForwarder(address)":"infinite","lastTimeRewardApplicable()":"2413","lastUpdated()":"2395","onERC20Received(address,address,uint256,bytes)":"infinite","owner()":"infinite","recoverERC20s(address[],address[],uint256[])":"infinite","recoverERC721s(address[],address[],uint256[])":"infinite","recoverETH(address[],uint256[])":"infinite","renounceRole(bytes32)":"infinite","revokeRole(bytes32,address)":"infinite","rewardPerStakePoint()":"infinite","rewardPerStakePointPaid(address)":"2579","rewardPerStakePointStored()":"2329","rewardRate()":"2330","rewards(address)":"2603","stake(bytes)":"496","staked(address)":"2601","supportsInterface(bytes4)":"infinite","totalStaked()":"2374","transferOwnership(address)":"infinite","withdraw(bytes)":"infinite"},"internal":{"_computeStake(address,bytes memory)":"infinite"}},"methodIdentifiers":{"CLAIM_CONTRACT()":"62ba9096","DEPOSIT_REASON_CODE()":"2196e445","POINTS_CONTRACT()":"2d4c2f93","REWARDER_ROLE()":"8580cf76","SCALING_FACTOR()":"ef4cadc5","STAKING_TOKEN()":"0479d644","addReward(uint256,uint256)":"75c93bb9","claim()":"4e71d92d","distributionEnd()":"efa90b54","earned(address)":"008cc262","forwarderRegistry()":"2b4c9f16","grantRole(bytes32,address)":"2f2ff15d","hasRole(bytes32,address)":"91d14854","isTrustedForwarder(address)":"572b6c05","lastTimeRewardApplicable()":"80faa57d","lastUpdated()":"d0b06f5d","onERC20Received(address,address,uint256,bytes)":"4fc35859","owner()":"8da5cb5b","recoverERC20s(address[],address[],uint256[])":"73c8a958","recoverERC721s(address[],address[],uint256[])":"c3666c36","recoverETH(address[],uint256[])":"f7ba94bd","renounceRole(bytes32)":"8bb9c5bf","revokeRole(bytes32,address)":"d547741f","rewardPerStakePoint()":"2c9d0b80","rewardPerStakePointPaid(address)":"c5c8f770","rewardPerStakePointStored()":"9d696e36","rewardRate()":"7b0a47ee","rewards(address)":"0700037d","stake(bytes)":"2d1e0c02","staked(address)":"98807d84","supportsInterface(bytes4)":"01ffc9a7","totalStaked()":"817b1cd2","transferOwnership(address)":"f2fde38b","withdraw(bytes)":"0968f264"}},"storageLayout":{"storage":[{"astId":4118,"contract":"contracts/staking/ERC20StakingPointsRewardsLimitedLinearPool.sol:ERC20StakingPointsRewardsLimitedLinearPool","label":"_status","offset":0,"slot":"0","type":"t_uint256"},{"astId":2032,"contract":"contracts/staking/ERC20StakingPointsRewardsLimitedLinearPool.sol:ERC20StakingPointsRewardsLimitedLinearPool","label":"totalStaked","offset":0,"slot":"1","type":"t_uint256"},{"astId":2034,"contract":"contracts/staking/ERC20StakingPointsRewardsLimitedLinearPool.sol:ERC20StakingPointsRewardsLimitedLinearPool","label":"lastUpdated","offset":0,"slot":"2","type":"t_uint256"},{"astId":2036,"contract":"contracts/staking/ERC20StakingPointsRewardsLimitedLinearPool.sol:ERC20StakingPointsRewardsLimitedLinearPool","label":"rewardRate","offset":0,"slot":"3","type":"t_uint256"},{"astId":2038,"contract":"contracts/staking/ERC20StakingPointsRewardsLimitedLinearPool.sol:ERC20StakingPointsRewardsLimitedLinearPool","label":"rewardPerStakePointStored","offset":0,"slot":"4","type":"t_uint256"},{"astId":2040,"contract":"contracts/staking/ERC20StakingPointsRewardsLimitedLinearPool.sol:ERC20StakingPointsRewardsLimitedLinearPool","label":"distributionEnd","offset":0,"slot":"5","type":"t_uint256"},{"astId":2044,"contract":"contracts/staking/ERC20StakingPointsRewardsLimitedLinearPool.sol:ERC20StakingPointsRewardsLimitedLinearPool","label":"staked","offset":0,"slot":"6","type":"t_mapping(t_address,t_uint256)"},{"astId":2048,"contract":"contracts/staking/ERC20StakingPointsRewardsLimitedLinearPool.sol:ERC20StakingPointsRewardsLimitedLinearPool","label":"rewards","offset":0,"slot":"7","type":"t_mapping(t_address,t_uint256)"},{"astId":2052,"contract":"contracts/staking/ERC20StakingPointsRewardsLimitedLinearPool.sol:ERC20StakingPointsRewardsLimitedLinearPool","label":"rewardPerStakePointPaid","offset":0,"slot":"8","type":"t_mapping(t_address,t_uint256)"}],"types":{"t_address":{"encoding":"inplace","label":"address","numberOfBytes":"20"},"t_mapping(t_address,t_uint256)":{"encoding":"mapping","key":"t_address","label":"mapping(address => uint256)","numberOfBytes":"32","value":"t_uint256"},"t_uint256":{"encoding":"inplace","label":"uint256","numberOfBytes":"32"}}},"userdoc":{"errors":{"IllegalInterfaceId()":[{"notice":"Thrown when setting the illegal interfaceId 0xffffffff."}],"InconsistentArrayLengths()":[{"notice":"Thrown when the multiple related arrays have different lengths."}],"IncorrectTokenContractType(address)":[{"notice":"Thrown when trying to recover a token of the wrong contract type."}],"NotContractOwner(address)":[{"notice":"Thrown when an account is not the contract owner but is required to."}],"NotRoleHolder(bytes32,address)":[{"notice":"Thrown when an account does not have the required role."}]},"events":{"OwnershipTransferred(address,address)":{"notice":"Emitted when the contract ownership changes."},"RoleGranted(bytes32,address,address)":{"notice":"Emitted when `role` is granted to `account`."},"RoleRevoked(bytes32,address,address)":{"notice":"Emitted when `role` is revoked from `account`."}},"kind":"user","methods":{"addReward(uint256,uint256)":{"notice":"Adds rewards to the pool.If there is an ongoing distribution, the new rewards are added to the current distribution:- If the new distribution ends before the current one, the new rewards are added to the current distribution.- If the new distribution ends after the current one, the remaining rewards are added to the new distribution."},"claim()":{"notice":"Claims the rewards for the sender."},"earned(address)":{"notice":"Returns the amount of rewards earned by the account."},"grantRole(bytes32,address)":{"notice":"Grants a role to an account."},"hasRole(bytes32,address)":{"notice":"Retrieves whether an account has a role."},"isTrustedForwarder(address)":{"notice":"Checks whether a forwarder is trusted."},"lastTimeRewardApplicable()":{"notice":"Returns the last time rewards are applicable."},"owner()":{"notice":"Gets the address of the contract owner."},"recoverERC20s(address[],address[],uint256[])":{"notice":"Extract ERC20 tokens which were accidentally sent to the contract to a list of accounts."},"recoverERC721s(address[],address[],uint256[])":{"notice":"Extract ERC721 tokens which were accidentally sent to the contract to a list of accounts."},"recoverETH(address[],uint256[])":{"notice":"Extract ETH tokens which were accidentally sent to the contract to a list of accounts."},"renounceRole(bytes32)":{"notice":"Renounces a role by the sender."},"revokeRole(bytes32,address)":{"notice":"Revokes a role from an account."},"rewardPerStakePoint()":{"notice":"Returns the current reward per stake point."},"supportsInterface(bytes4)":{"notice":"Returns whether this contract implements a given interface."},"transferOwnership(address)":{"notice":"Sets the address of the new contract owner."},"withdraw(bytes)":{"notice":"Withdraws from the pool."}},"notice":"This contract is used to stake ERC20 tokens and obtain Points rewards.Staking can only be done via a claim contract and the `stake` function is not available.","version":1}}}}