{"contracts/mocks/merkleClaim/ERC20MerkleClaimMock.sol":{"ERC20MerkleClaimMock":{"abi":[{"inputs":[{"internalType":"address","name":"rewardContract_","type":"address"},{"internalType":"address","name":"stakingContract_","type":"address"},{"internalType":"address","name":"payoutWallet_","type":"address"},{"internalType":"address","name":"treasuryWallet_","type":"address"},{"internalType":"uint96","name":"fee_","type":"uint96"},{"internalType":"contract IForwarderRegistry","name":"forwarderRegistry_","type":"address"}],"stateMutability":"nonpayable","type":"constructor"},{"inputs":[{"internalType":"address","name":"recipient","type":"address"},{"internalType":"uint256","name":"amount","type":"uint256"},{"internalType":"uint256","name":"nonce","type":"uint256"}],"name":"AlreadyClaimed","type":"error"},{"inputs":[],"name":"IllegalInterfaceId","type":"error"},{"inputs":[{"internalType":"uint256","name":"amount","type":"uint256"}],"name":"InvalidClaimAmount","type":"error"},{"inputs":[],"name":"InvalidFee","type":"error"},{"inputs":[],"name":"InvalidForwarderRegistry","type":"error"},{"inputs":[],"name":"InvalidPayoutWallet","type":"error"},{"inputs":[{"internalType":"address","name":"recipient","type":"address"},{"internalType":"uint256","name":"amount","type":"uint256"},{"internalType":"uint256","name":"nonce","type":"uint256"}],"name":"InvalidProof","type":"error"},{"inputs":[{"internalType":"address","name":"rewardContract","type":"address"}],"name":"InvalidRewardContract","type":"error"},{"inputs":[{"internalType":"address","name":"stakingContract","type":"address"}],"name":"InvalidStakingContract","type":"error"},{"inputs":[],"name":"InvalidTreasuryWallet","type":"error"},{"inputs":[{"internalType":"uint256","name":"nonce","type":"uint256"}],"name":"MerkleRootNotExists","type":"error"},{"inputs":[{"internalType":"address","name":"account","type":"address"}],"name":"NotContractOwner","type":"error"},{"inputs":[],"name":"NotPaused","type":"error"},{"inputs":[],"name":"Paused","type":"error"},{"anonymous":false,"inputs":[{"indexed":true,"internalType":"uint256","name":"nonce","type":"uint256"},{"indexed":true,"internalType":"bytes32","name":"root","type":"bytes32"}],"name":"MerkleRootSet","type":"event"},{"anonymous":false,"inputs":[{"indexed":true,"internalType":"address","name":"previousOwner","type":"address"},{"indexed":true,"internalType":"address","name":"newOwner","type":"address"}],"name":"OwnershipTransferred","type":"event"},{"anonymous":false,"inputs":[],"name":"Pause","type":"event"},{"anonymous":false,"inputs":[{"indexed":true,"internalType":"uint256","name":"nonce","type":"uint256"},{"indexed":true,"internalType":"bytes32","name":"root","type":"bytes32"},{"indexed":true,"internalType":"address","name":"recipient","type":"address"},{"indexed":false,"internalType":"address","name":"payoutWallet","type":"address"},{"indexed":false,"internalType":"uint256","name":"netClaimedAmount","type":"uint256"},{"indexed":false,"internalType":"uint256","name":"feeAmount","type":"uint256"}],"name":"PayoutClaimed","type":"event"},{"anonymous":false,"inputs":[{"indexed":true,"internalType":"address","name":"newPayoutWallet","type":"address"}],"name":"PayoutWalletSet","type":"event"},{"anonymous":false,"inputs":[{"indexed":true,"internalType":"address","name":"newTreasuryWallet","type":"address"}],"name":"TreasuryWalletSet","type":"event"},{"anonymous":false,"inputs":[],"name":"Unpause","type":"event"},{"inputs":[],"name":"FEE_PRECISION","outputs":[{"internalType":"uint256","name":"","type":"uint256"}],"stateMutability":"view","type":"function"},{"inputs":[],"name":"REWARD_CONTRACT","outputs":[{"internalType":"address","name":"","type":"address"}],"stateMutability":"view","type":"function"},{"inputs":[],"name":"STAKING_CONTRACT","outputs":[{"internalType":"address","name":"","type":"address"}],"stateMutability":"view","type":"function"},{"inputs":[],"name":"__msgData","outputs":[{"internalType":"bytes","name":"","type":"bytes"}],"stateMutability":"view","type":"function"},{"inputs":[],"name":"__msgSender","outputs":[{"internalType":"address","name":"","type":"address"}],"stateMutability":"view","type":"function"},{"inputs":[{"internalType":"address","name":"recipient","type":"address"},{"internalType":"uint256","name":"amount","type":"uint256"},{"internalType":"uint256","name":"nonce_","type":"uint256"},{"internalType":"bytes32[]","name":"proof","type":"bytes32[]"}],"name":"claimPayout","outputs":[],"stateMutability":"nonpayable","type":"function"},{"inputs":[{"internalType":"address","name":"recipient","type":"address"},{"internalType":"uint256","name":"amount","type":"uint256"},{"internalType":"uint256","name":"nonce_","type":"uint256"},{"internalType":"bytes32[]","name":"proof","type":"bytes32[]"}],"name":"claimPayoutAndStake","outputs":[],"stateMutability":"nonpayable","type":"function"},{"inputs":[{"internalType":"bytes32","name":"","type":"bytes32"}],"name":"claimed","outputs":[{"internalType":"bool","name":"","type":"bool"}],"stateMutability":"view","type":"function"},{"inputs":[],"name":"fee","outputs":[{"internalType":"uint96","name":"","type":"uint96"}],"stateMutability":"view","type":"function"},{"inputs":[],"name":"forwarderRegistry","outputs":[{"internalType":"contract IForwarderRegistry","name":"","type":"address"}],"stateMutability":"view","type":"function"},{"inputs":[{"internalType":"address","name":"forwarder","type":"address"}],"name":"isTrustedForwarder","outputs":[{"internalType":"bool","name":"","type":"bool"}],"stateMutability":"view","type":"function"},{"inputs":[],"name":"nonce","outputs":[{"internalType":"uint256","name":"","type":"uint256"}],"stateMutability":"view","type":"function"},{"inputs":[],"name":"owner","outputs":[{"internalType":"address","name":"","type":"address"}],"stateMutability":"view","type":"function"},{"inputs":[],"name":"pause","outputs":[],"stateMutability":"nonpayable","type":"function"},{"inputs":[],"name":"paused","outputs":[{"internalType":"bool","name":"","type":"bool"}],"stateMutability":"view","type":"function"},{"inputs":[],"name":"payoutWallet","outputs":[{"internalType":"address","name":"","type":"address"}],"stateMutability":"view","type":"function"},{"inputs":[{"internalType":"uint256","name":"nonce","type":"uint256"}],"name":"rootMap","outputs":[{"internalType":"bytes32","name":"root","type":"bytes32"}],"stateMutability":"view","type":"function"},{"inputs":[{"internalType":"bytes32","name":"merkleRoot","type":"bytes32"}],"name":"setMerkleRoot","outputs":[],"stateMutability":"nonpayable","type":"function"},{"inputs":[{"internalType":"address","name":"newPayoutWallet","type":"address"}],"name":"setPayoutWallet","outputs":[],"stateMutability":"nonpayable","type":"function"},{"inputs":[{"internalType":"address","name":"newTreasuryWallet","type":"address"}],"name":"setTreasuryWallet","outputs":[],"stateMutability":"nonpayable","type":"function"},{"inputs":[{"internalType":"bytes4","name":"interfaceId","type":"bytes4"}],"name":"supportsInterface","outputs":[{"internalType":"bool","name":"","type":"bool"}],"stateMutability":"view","type":"function"},{"inputs":[{"internalType":"address","name":"newOwner","type":"address"}],"name":"transferOwnership","outputs":[],"stateMutability":"nonpayable","type":"function"},{"inputs":[],"name":"treasuryWallet","outputs":[{"internalType":"address","name":"","type":"address"}],"stateMutability":"view","type":"function"},{"inputs":[],"name":"unpause","outputs":[],"stateMutability":"nonpayable","type":"function"}],"devdoc":{"errors":{"AlreadyClaimed(address,uint256,uint256)":[{"params":{"amount":"The amount of reward token is claimed.","nonce":"The nonce of the root.","recipient":"The recipient of the claim."}}],"InvalidClaimAmount(uint256)":[{"params":{"amount":"The amount of the claim."}}],"InvalidProof(address,uint256,uint256)":[{"params":{"amount":"The amount of reward token is claimed.","nonce":"The nonce of the root.","recipient":"The recipient of the token reward."}}],"InvalidRewardContract(address)":[{"params":{"rewardContract":"The address of the invalid reward contract."}}],"InvalidStakingContract(address)":[{"params":{"stakingContract":"The address of the invalid staking contract."}}],"MerkleRootNotExists(uint256)":[{"params":{"nonce":"The nonce of the root."}}],"NotContractOwner(address)":[{"params":{"account":"The account that was checked."}}]},"events":{"MerkleRootSet(uint256,bytes32)":{"params":{"nonce":"The nonce used for setting the root.","root":"The new merkle root."}},"OwnershipTransferred(address,address)":{"params":{"newOwner":"the new contract owner.","previousOwner":"the previous contract owner."}},"PayoutClaimed(uint256,bytes32,address,address,uint256,uint256)":{"params":{"feeAmount":"The fee amount taken from the claimed reward.","netClaimedAmount":"The amount of reward token is claimed minus fee amount.","nonce":"The nonce for the root.","payoutWallet":"The wallet sending out the reward token.","recipient":"The recipient of the reward token.","root":"The merkle root on which the claim was made."}},"PayoutWalletSet(address)":{"params":{"newPayoutWallet":"The new payout wallet."}},"TreasuryWalletSet(address)":{"params":{"newTreasuryWallet":"The new treasury wallet."}}},"kind":"dev","methods":{"__msgData()":{"returns":{"_0":"The current msg.data value."}},"__msgSender()":{"returns":{"_0":"The current msg.sender value."}},"claimPayout(address,uint256,uint256,bytes32[])":{"details":"Emits a {PayoutClaimed} event.","params":{"amount":"The amount of reward token to be claimed.","nonce_":"The nonce of the root.PayoutClaimed","proof":"The Merkle proof of the user based on the merkle root","recipient":"The recipient for this claim."}},"claimPayoutAndStake(address,uint256,uint256,bytes32[])":{"details":"Reverts with {InvalidClaimAmount} if it is claiming a zero amount.Reverts with {Paused} if contract is paused.Reverts with {MerkleRootNotExists} if the merkle root does not exist.Reverts with {InvalidProof} if the merkle proof has failed the verificationReverts with {AlreadyClaimed} if this specific payout has already been claimed.Emits a {PayoutClaimed} event.","params":{"amount":"The amount of reward token to be claimed.","nonce_":"The nonce of the root.PayoutClaimed","proof":"The Merkle proof of the user based on the merkle root","recipient":"The recipient for this claim."}},"isTrustedForwarder(address)":{"params":{"forwarder":"The forwarder to check."},"returns":{"_0":"True if `forwarder` is trusted, false if not."}},"owner()":{"returns":{"_0":"The address of the contract owner."}},"pause()":{"details":"Reverts with {NotContractOwner} if the sender is not the contract owner.Reverts with {Paused} if the contract is paused.Emits a {Paused} event."},"paused()":{"returns":{"_0":"The paused state of the contract."}},"setMerkleRoot(bytes32)":{"details":"Reverts with {NotContractOwner} if the sender is not the contract owner.Emits a {MerkleRootSet} event.","params":{"merkleRoot":"The merkle root to be set."}},"setPayoutWallet(address)":{"details":"Reverts with {NotContractOwner} if the sender is not the contract owner.Emits a {PayoutWalletSet} event.","params":{"newPayoutWallet":"The payout wallet to be set."}},"setTreasuryWallet(address)":{"details":"Reverts with {NotContractOwner} if the sender is not the contract owner.Emits a {TreasuryWalletSet} event.","params":{"newTreasuryWallet":"The treasury wallet to be set."}},"supportsInterface(bytes4)":{"details":"Note: This function call must use less than 30 000 gas.","params":{"interfaceId":"the interface identifier to test."},"returns":{"_0":"True if the interface is supported, false if `interfaceId` is `0xffffffff` or if the interface is not supported."}},"transferOwnership(address)":{"details":"Reverts if the sender is not the contract owner.Emits an {OwnershipTransferred} event if `newOwner` is different from the current contract owner.","params":{"newOwner":"The address of the new contract owner. Using the zero address means renouncing ownership."}},"unpause()":{"details":"Reverts with {NotContractOwner} if the sender is not the contract owner.Reverts with {NotPaused} if the contract is not paused.Emits an {Unpaused} event."}},"version":1},"evm":{"bytecode":{"linkReferences":{},"object":"60e060405234801561001057600080fd5b506040516134ff3803806134ff83398181016040528101906100329190610b4f565b85858585858580803361005b8161004d6107de60201b60201c565b61081d60201b90919060201c565b508073ffffffffffffffffffffffffffffffffffffffff1660808173ffffffffffffffffffffffffffffffffffffffff168152505050506100ac67a36d0adc33f17b3760c01b61093760201b60201c565b6100c667f41a12884d7e7e4960c01b61093760201b60201c565b6100e0675ba9bd0ada17a2b760c01b61093760201b60201c565b600073ffffffffffffffffffffffffffffffffffffffff168673ffffffffffffffffffffffffffffffffffffffff16036101855761012e67e1d3106370b5eec360c01b61093760201b60201c565b61014867f2ebf5c343b4690260c01b61093760201b60201c565b856040517fa50e6d0600000000000000000000000000000000000000000000000000000000815260040161017c9190610beb565b60405180910390fd5b61019f67d6adf97c1300073560c01b61093760201b60201c565b6101b967028224bcda3fd3f160c01b61093760201b60201c565b6101d367c6573d49b8b457ee60c01b61093760201b60201c565b600073ffffffffffffffffffffffffffffffffffffffff168573ffffffffffffffffffffffffffffffffffffffff1603610278576102216783ae3a514963d1d660c01b61093760201b60201c565b61023b672842dde92847e2ee60c01b61093760201b60201c565b846040517f81d97a5e00000000000000000000000000000000000000000000000000000000815260040161026f9190610beb565b60405180910390fd5b61029267e6fe166f375962af60c01b61093760201b60201c565b6102ac67954d1bf7b105f97260c01b61093760201b60201c565b6102c66753ffc2574d590cba60c01b61093760201b60201c565b600073ffffffffffffffffffffffffffffffffffffffff168473ffffffffffffffffffffffffffffffffffffffff1603610360576103146796dea910f583e2cf60c01b61093760201b60201c565b61032e67f511eee0969a3bef60c01b61093760201b60201c565b6040517fc41cbee200000000000000000000000000000000000000000000000000000000815260040160405180910390fd5b61037a67fcddcf9f05abce3a60c01b61093760201b60201c565b610394670f45261b1a1c9a8c60c01b61093760201b60201c565b6103ae673c524d8f2dcf1b8e60c01b61093760201b60201c565b600073ffffffffffffffffffffffffffffffffffffffff168373ffffffffffffffffffffffffffffffffffffffff1603610448576103fc67ac47d6bedafdb43760c01b61093760201b60201c565b610416678f11a9c2afff8acb60c01b61093760201b60201c565b6040517fa56b8e2800000000000000000000000000000000000000000000000000000000815260040160405180910390fd5b6104626744c28dbe437b1dfc60c01b61093760201b60201c565b61047c67284ede5b121b9d3e60c01b61093760201b60201c565b6104966745f3ef2ccb38590c60c01b61093760201b60201c565b612710826bffffffffffffffffffffffff161115610514576104c86742e5b9f0295b445b60c01b61093760201b60201c565b6104e26702f82b71c2bdc9de60c01b61093760201b60201c565b6040517f58d620b300000000000000000000000000000000000000000000000000000000815260040160405180910390fd5b61052e6731a20387d0d79ccd60c01b61093760201b60201c565b6105486754c5f1fd634dfcd160c01b61093760201b60201c565b61056267629ac93ff6bad45b60c01b61093760201b60201c565b600073ffffffffffffffffffffffffffffffffffffffff168173ffffffffffffffffffffffffffffffffffffffff16036105fc576105b067a3aa0fcab4a2adf760c01b61093760201b60201c565b6105ca6779a731af8353c2f360c01b61093760201b60201c565b6040517fd516e87c00000000000000000000000000000000000000000000000000000000815260040160405180910390fd5b61061667dbedd722de4f23c160c01b61093760201b60201c565b6106306707d6d904528705b460c01b61093760201b60201c565b8573ffffffffffffffffffffffffffffffffffffffff1660a08173ffffffffffffffffffffffffffffffffffffffff168152505061067e676e034145a881c40760c01b61093760201b60201c565b8473ffffffffffffffffffffffffffffffffffffffff1660c08173ffffffffffffffffffffffffffffffffffffffff16815250506106cc67e4361ac244b7cdf060c01b61093760201b60201c565b83600260006101000a81548173ffffffffffffffffffffffffffffffffffffffff021916908373ffffffffffffffffffffffffffffffffffffffff16021790555061072767363c98df3963001e60c01b61093760201b60201c565b82600460006101000a81548173ffffffffffffffffffffffffffffffffffffffff021916908373ffffffffffffffffffffffffffffffffffffffff160217905550610782676f476763bdd26a2660c01b61093760201b60201c565b81600460146101000a8154816bffffffffffffffffffffffff02191690836bffffffffffffffffffffffff1602179055505050505050506107d367f9b6e43d54455cc460c01b61093a60201b60201c565b505050505050610c73565b60008060017fc9ed16f33ab3a66c84bfd83099ccb2a8845871e2e1c1928f63797152f0fd54cd60001c6108119190610c3f565b60001b90508091505090565b600073ffffffffffffffffffffffffffffffffffffffff168173ffffffffffffffffffffffffffffffffffffffff16146108f057808260000160006101000a81548173ffffffffffffffffffffffffffffffffffffffff021916908373ffffffffffffffffffffffffffffffffffffffff1602179055508073ffffffffffffffffffffffffffffffffffffffff16600073ffffffffffffffffffffffffffffffffffffffff167f8be0079c531659141344cd1fd0a4f28419497f9722a3daafe3b4186f6b6457e060405160405180910390a35b6109337f7f5828d000000000000000000000000000000000000000000000000000000000600161092461093d60201b60201c565b61097c60201b9092919060201c565b5050565b50565b50565b60008060017fca9d3e17f264b0f3984e2634e94adb37fa3e6a8103f06aeae6fa59e21c769f5e60001c6109709190610c3f565b60001b90508091505090565b63ffffffff60e01b7bffffffffffffffffffffffffffffffffffffffffffffffffffffffff1916827bffffffffffffffffffffffffffffffffffffffffffffffffffffffff1916036109fa576040517f72c683bb00000000000000000000000000000000000000000000000000000000815260040160405180910390fd5b80836000016000847bffffffffffffffffffffffffffffffffffffffffffffffffffffffff19167bffffffffffffffffffffffffffffffffffffffffffffffffffffffff1916815260200190815260200160002060006101000a81548160ff021916908315150217905550505050565b600080fd5b600073ffffffffffffffffffffffffffffffffffffffff82169050919050565b6000610a9a82610a6f565b9050919050565b610aaa81610a8f565b8114610ab557600080fd5b50565b600081519050610ac781610aa1565b92915050565b60006bffffffffffffffffffffffff82169050919050565b610aee81610acd565b8114610af957600080fd5b50565b600081519050610b0b81610ae5565b92915050565b6000610b1c82610a8f565b9050919050565b610b2c81610b11565b8114610b3757600080fd5b50565b600081519050610b4981610b23565b92915050565b60008060008060008060c08789031215610b6c57610b6b610a6a565b5b6000610b7a89828a01610ab8565b9650506020610b8b89828a01610ab8565b9550506040610b9c89828a01610ab8565b9450506060610bad89828a01610ab8565b9350506080610bbe89828a01610afc565b92505060a0610bcf89828a01610b3a565b9150509295509295509295565b610be581610a8f565b82525050565b6000602082019050610c006000830184610bdc565b92915050565b6000819050919050565b7f4e487b7100000000000000000000000000000000000000000000000000000000600052601160045260246000fd5b6000610c4a82610c06565b9150610c5583610c06565b9250828203905081811115610c6d57610c6c610c10565b5b92915050565b60805160a05160c05161281e610ce160003960008181610ba7015261100d015260008181610610015281816106d90152818161089a0152610b6a0152600081816108250152818161091901528181611ace01528181611b2301528181611c440152611c99015261281e6000f3fe608060405234801561001057600080fd5b50600436106101985760003560e01c80638456cb59116100e3578063d1a91ff21161008c578063ddca3f4311610066578063ddca3f431461042a578063e63a391f14610448578063f2fde38b1461046657610198565b8063d1a91ff2146103be578063da19ddfb146103dc578063db200205146103fa57610198565b8063a8602fea116100bd578063a8602fea14610354578063affed0e014610370578063cc3c0f061461038e57610198565b80638456cb591461030e5780638488bb4e146103185780638da5cb5b1461033657610198565b80634626402b116101455780636b8f9c431161011f5780636b8f9c43146102ba5780636ed31d09146102d65780637cb64759146102f257610198565b80634626402b1461024e578063572b6c051461026c5780635c975abb1461029c57610198565b806331e66e1e1161017657806331e66e1e146102075780633a5af339146102265780633f4ba83a1461024457610198565b806301ffc9a71461019d57806321c3df25146101cd5780632b4c9f16146101e9575b600080fd5b6101b760048036038101906101b29190611ec1565b610482565b6040516101c49190611f09565b60405180910390f35b6101e760048036038101906101e2919061201d565b6104a5565b005b6101f1610821565b6040516101fe9190612104565b60405180910390f35b61020f610849565b60405161021d92919061217d565b60405180910390f35b61022e610898565b60405161023b91906121b0565b60405180910390f35b61024c6108bc565b005b6102566108ef565b60405161026391906121b0565b60405180910390f35b610286600480360381019061028191906121cb565b610915565b6040516102939190611f09565b60405180910390f35b6102a461096d565b6040516102b19190611f09565b60405180910390f35b6102d460048036038101906102cf91906121cb565b610984565b005b6102f060048036038101906102eb919061201d565b610aa4565b005b61030c6004803603810190610307919061222e565b610cd0565b005b610316610e0a565b005b610320610e3d565b60405161032d91906121b0565b60405180910390f35b61033e610e63565b60405161034b91906121b0565b60405180910390f35b61036e600480360381019061036991906121cb565b610e7a565b005b610378610f9a565b604051610385919061226a565b60405180910390f35b6103a860048036038101906103a3919061222e565b610fa0565b6040516103b59190611f09565b60405180910390f35b6103c6610fc0565b6040516103d391906121b0565b60405180910390f35b6103e461100b565b6040516103f191906121b0565b60405180910390f35b610414600480360381019061040f9190612285565b61102f565b60405161042191906122c1565b60405180910390f35b610432611047565b60405161043f9190612303565b60405180910390f35b610450611065565b60405161045d919061226a565b60405180910390f35b610480600480360381019061047b91906121cb565b61106b565b005b600061049e82610490611091565b6110d090919063ffffffff16565b9050919050565b6104b96778a933ca72bb7dbc60c01b6111ff565b6104cd679035f8f98fe4b1e160c01b6111ff565b6104e167a0f21499b3c32b7360c01b6111ff565b60006104f08686868686611202565b905061050667a984774aa3943eaf60c01b6111ff565b61051a67712e2bbcc7f9afce60c01b6111ff565b6000600260009054906101000a900473ffffffffffffffffffffffffffffffffffffffff169050610555675810c450c4878b0860c01b6111ff565b610569673171e5520acb297c60c01b6111ff565b6000612710600460149054906101000a90046bffffffffffffffffffffffff166bffffffffffffffffffffffff16886105a2919061234d565b6105ac91906123be565b90506105c267bbd9522296412b5c60c01b6111ff565b6105d6679298961c7a33fcbd60c01b6111ff565b600081886105e491906123ef565b90506105fa67e912e15f0a67591a60c01b6111ff565b61060e67e24634582e52c89c60c01b6111ff565b7f000000000000000000000000000000000000000000000000000000000000000073ffffffffffffffffffffffffffffffffffffffff1663b88d4fde848b846040518463ffffffff1660e01b815260040161066b93929190612449565b6020604051808303816000875af115801561068a573d6000803e3d6000fd5b505050506040513d601f19601f820116820180604052508101906106ae91906124bf565b506106c3676d12824caa331eac60c01b6111ff565b6106d767fdbdc225ff6e7e6160c01b6111ff565b7f000000000000000000000000000000000000000000000000000000000000000073ffffffffffffffffffffffffffffffffffffffff1663b88d4fde84600460009054906101000a900473ffffffffffffffffffffffffffffffffffffffff16856040518463ffffffff1660e01b815260040161075693929190612449565b6020604051808303816000875af1158015610775573d6000803e3d6000fd5b505050506040513d601f19601f8201168201806040525081019061079991906124bf565b506107ae6732e24239e34ad1d160c01b6111ff565b6107c26799e45fdc9469e71260c01b6111ff565b8273ffffffffffffffffffffffffffffffffffffffff1684887f4198e253c4ae311bc3d0c7aca40cb1a9827879ca09dc5f3a430127c736748f188c858760405161080e939291906124ec565b60405180910390a4505050505050505050565b60007f0000000000000000000000000000000000000000000000000000000000000000905090565b36600061086067c14d123f9de969e960c01b6115ff565b61087467cd59a43744958f7060c01b6115ff565b61088867a6ea60d12f2d09c060c01b6115ff565b610890611602565b915091509091565b7f000000000000000000000000000000000000000000000000000000000000000081565b6108dd6108c7611651565b6108cf61169c565b6116db90919063ffffffff16565b6108ed6108e8611773565b6117b2565b565b600460009054906101000a900473ffffffffffffffffffffffffffffffffffffffff1681565b60007f000000000000000000000000000000000000000000000000000000000000000073ffffffffffffffffffffffffffffffffffffffff168273ffffffffffffffffffffffffffffffffffffffff16149050919050565b600061097f61097a611773565b611807565b905090565b61099867928c33f27d01033f60c01b6111ff565b6109ac678d1614dcaecd1d8460c01b6111ff565b6109c067443ead99e20af34860c01b6111ff565b6109e16109cb611651565b6109d361169c565b6116db90919063ffffffff16565b6109f567d653c1dda23cb42660c01b6111ff565b80600260006101000a81548173ffffffffffffffffffffffffffffffffffffffff021916908373ffffffffffffffffffffffffffffffffffffffff160217905550610a4a67600cf39eb099506760c01b6111ff565b610a5e6713b3bdfb30a95acd60c01b6111ff565b8073ffffffffffffffffffffffffffffffffffffffff167fdd880d24a789958a6398c99c2e54ce31bc10a638cbc42f7dd34285479ae0f85560405160405180910390a250565b610ab8671fa9a34f82f569f560c01b6111ff565b610acc67ccdf7fc425ae651c60c01b6111ff565b610ae0677bbfc81b5d11388460c01b6111ff565b6000610aef8686868686611202565b9050610b0567d6fce75f5bb9934960c01b6111ff565b610b1967fe8125bd1e7535ff60c01b6111ff565b6000600260009054906101000a900473ffffffffffffffffffffffffffffffffffffffff169050610b546712e3a3940b2ed1cb60c01b6111ff565b610b6867c8511a1845337b1760c01b6111ff565b7f000000000000000000000000000000000000000000000000000000000000000073ffffffffffffffffffffffffffffffffffffffff1663b88d4fde827f0000000000000000000000000000000000000000000000000000000000000000898b604051602001610bd891906121b0565b6040516020818303038152906040526040518563ffffffff1660e01b8152600401610c069493929190612591565b6020604051808303816000875af1158015610c25573d6000803e3d6000fd5b505050506040513d601f19601f82011682018060405250810190610c4991906124bf565b50610c5e67471763f08e05d1f460c01b6111ff565b610c7267465a0a91b88c859460c01b6111ff565b8073ffffffffffffffffffffffffffffffffffffffff1682867f4198e253c4ae311bc3d0c7aca40cb1a9827879ca09dc5f3a430127c736748f188a8a6000604051610cbf93929190612618565b60405180910390a450505050505050565b610ce4676990f6d6e5bdc50560c01b6111ff565b610cf8675ec09081b65b9d2660c01b6111ff565b610d0c67237470c49cd9ae2a60c01b6111ff565b610d2d610d17611651565b610d1f61169c565b6116db90919063ffffffff16565b610d4167b7f67d7449fef35760c01b6111ff565b610d55675e80f1a38095b0f260c01b6111ff565b600080549050610d6f6777ad003a196f927560c01b6111ff565b816001600083815260200190815260200160002081905550610d9b67a0b843d6b512dde960c01b6111ff565b6000808154610da99061264f565b91905081905550610dc4676fa1815d9989536e60c01b6111ff565b610dd86705a0122b50355bd960c01b6111ff565b81817fb04b7d6145a7588fdcf339a22877d5965f861c171204fc37688058c5f6c06d3b60405160405180910390a35050565b610e2b610e15611651565b610e1d61169c565b6116db90919063ffffffff16565b610e3b610e36611773565b611822565b565b600260009054906101000a900473ffffffffffffffffffffffffffffffffffffffff1681565b6000610e75610e7061169c565b611877565b905090565b610e8e670aa0a42f500f709b60c01b6111ff565b610ea2675aa1f6791f6b422460c01b6111ff565b610eb66754b4f7e0fad144e360c01b6111ff565b610ed7610ec1611651565b610ec961169c565b6116db90919063ffffffff16565b610eeb67018055766956728860c01b6111ff565b80600460006101000a81548173ffffffffffffffffffffffffffffffffffffffff021916908373ffffffffffffffffffffffffffffffffffffffff160217905550610f4067a512d3ba837cc4e560c01b6111ff565b610f546786a2de4e8066dbfc60c01b6111ff565b8073ffffffffffffffffffffffffffffffffffffffff167f5695f8b02f5f53d02b408db3ed952c16f32f9701ad2691c44733f2a2d09225a960405160405180910390a250565b60005481565b60036020528060005260406000206000915054906101000a900460ff1681565b6000610fd66769b2f3a5e252866760c01b6115ff565b610fea6772a006f61dacfb2060c01b6115ff565b610ffe67c8df36afde0d87b260c01b6115ff565b611006611651565b905090565b7f000000000000000000000000000000000000000000000000000000000000000081565b60016020528060005260406000206000915090505481565b600460149054906101000a90046bffffffffffffffffffffffff1681565b61271081565b61108e611076611651565b8261107f61169c565b6118a59092919063ffffffff16565b50565b60008060017fca9d3e17f264b0f3984e2634e94adb37fa3e6a8103f06aeae6fa59e21c769f5e60001c6110c491906123ef565b60001b90508091505090565b600063ffffffff60e01b7bffffffffffffffffffffffffffffffffffffffffffffffffffffffff1916827bffffffffffffffffffffffffffffffffffffffffffffffffffffffff19160361112757600090506111f9565b7f01ffc9a7000000000000000000000000000000000000000000000000000000007bffffffffffffffffffffffffffffffffffffffffffffffffffffffff1916827bffffffffffffffffffffffffffffffffffffffffffffffffffffffff19160361119557600190506111f9565b826000016000837bffffffffffffffffffffffffffffffffffffffffffffffffffffffff19167bffffffffffffffffffffffffffffffffffffffffffffffffffffffff1916815260200190815260200160002060009054906101000a900460ff1690505b92915050565b50565b600061121867a7327f453ad5032160c01b6111ff565b61122c67075c662761029a2960c01b6111ff565b61124067bf28ab16e133c08660c01b6111ff565b600085036112ad5761125c6797603388ab818c2860c01b6111ff565b611270679fb27415628391d860c01b6111ff565b846040517f27ab1ee20000000000000000000000000000000000000000000000000000000081526004016112a4919061226a565b60405180910390fd5b6112c167e04a91daf0131d6b60c01b6111ff565b6112d567dec24d517c734c9660c01b6111ff565b6112e967d66b1d07ecab5b3360c01b6111ff565b6112f96112f4611773565b611a15565b61130d67ac81a3bc0e1c460060c01b6111ff565b6001600085815260200190815260200160002054905061133767a83abcc386f1af5160c01b6111ff565b61134b67f64cd1c6f7ddaf1c60c01b6111ff565b6000801b81036113ba57611369674fd05ae2de49f15f60c01b6111ff565b61137d673c3ab8f20eb36f5860c01b6111ff565b836040517fab4a79390000000000000000000000000000000000000000000000000000000081526004016113b1919061226a565b60405180910390fd5b6113ce672824ffb85f09520560c01b6111ff565b6113e267efd8f9e092ff2bac60c01b6111ff565b6113f667632eba0c04b014f760c01b6111ff565b600086868660405160200161140d93929190612700565b604051602081830303815290604052805190602001209050611439671e43010ee891c02460c01b6111ff565b61144d67993c2e012c4cef6960c01b6111ff565b61146982828686611a619190939291909392919063ffffffff16565b6114d657611481675aa8dc0b94b40e8360c01b6111ff565b6114956792a4bf13cb61e1e760c01b6111ff565b8686866040517f3c6ee01b0000000000000000000000000000000000000000000000000000000081526004016114cd939291906124ec565b60405180910390fd5b6114ea67781d0a12fc2b6fa260c01b6111ff565b6114fe67b0431c2e7f23866260c01b6111ff565b6115126708ba5900c37248f960c01b6111ff565b6003600082815260200190815260200160002060009054906101000a900460ff16156115a15761154c67814b93850c5c56ad60c01b6111ff565b6115606773133859a92ff36460c01b6111ff565b8686866040517f65088232000000000000000000000000000000000000000000000000000000008152600401611598939291906124ec565b60405180910390fd5b6115b567afc2d03b49a4484e60c01b6111ff565b6115c96743515cbaa4995deb60c01b6111ff565b60016003600083815260200190815260200160002060006101000a81548160ff0219169083151502179055505095945050505050565b50565b3660006116196746339f04270a88b560c01b6111ff565b61162d67205e4d60b354d13260c01b6111ff565b61164167f09250e0d4737b1d60c01b6111ff565b611649611a7a565b915091509091565b600061166767bbd9c07b9847e90c60c01b6111ff565b61167b674061a9d6377a14cb60c01b6111ff565b61168f67f0891df5316503f260c01b6111ff565b611697611be9565b905090565b60008060017fc9ed16f33ab3a66c84bfd83099ccb2a8845871e2e1c1928f63797152f0fd54cd60001c6116cf91906123ef565b60001b90508091505090565b8160000160009054906101000a900473ffffffffffffffffffffffffffffffffffffffff1673ffffffffffffffffffffffffffffffffffffffff168173ffffffffffffffffffffffffffffffffffffffff161461176f57806040517f2ef4875e00000000000000000000000000000000000000000000000000000000815260040161176691906121b0565b60405180910390fd5b5050565b60008060017f0186a05f63b1553398ad5ea3233c0ce68b8c9eecc47717f123c5c2b42fbd6d9f60001c6117a691906123ef565b60001b90508091505090565b6117bb81611d4c565b60008160000160006101000a81548160ff0219169083151502179055507f7805862f689e2f13df9f062ff482ad3ad112aca9e0847911ed832e158c525b3360405160405180910390a150565b60008160000160009054906101000a900460ff169050919050565b61182b81611a15565b60018160000160006101000a81548160ff0219169083151502179055507f6985a02210a168e66602d3235cb6db0e70f92b3ba4d376a33c0f3d9434bff62560405160405180910390a150565b60008160000160009054906101000a900473ffffffffffffffffffffffffffffffffffffffff169050919050565b60008360000160009054906101000a900473ffffffffffffffffffffffffffffffffffffffff1690508073ffffffffffffffffffffffffffffffffffffffff168373ffffffffffffffffffffffffffffffffffffffff161461193e57826040517f2ef4875e00000000000000000000000000000000000000000000000000000000815260040161193591906121b0565b60405180910390fd5b8173ffffffffffffffffffffffffffffffffffffffff168173ffffffffffffffffffffffffffffffffffffffff1614611a0f57818460000160006101000a81548173ffffffffffffffffffffffffffffffffffffffff021916908373ffffffffffffffffffffffffffffffffffffffff1602179055508173ffffffffffffffffffffffffffffffffffffffff168173ffffffffffffffffffffffffffffffffffffffff167f8be0079c531659141344cd1fd0a4f28419497f9722a3daafe3b4186f6b6457e060405160405180910390a35b50505050565b8060000160009054906101000a900460ff1615611a5e576040517f9e87fac800000000000000000000000000000000000000000000000000000000815260040160405180910390fd5b50565b600082611a6f868685611d97565b149050949350505050565b3660003273ffffffffffffffffffffffffffffffffffffffff163373ffffffffffffffffffffffffffffffffffffffff161480611abb575060186000369050105b15611acc5760003691509150611be5565b7f000000000000000000000000000000000000000000000000000000000000000073ffffffffffffffffffffffffffffffffffffffff163373ffffffffffffffffffffffffffffffffffffffff161480611bc757507f000000000000000000000000000000000000000000000000000000000000000073ffffffffffffffffffffffffffffffffffffffff1663019a2028611b65611de9565b33306040518463ffffffff1660e01b8152600401611b859392919061273d565b602060405180830381865afa158015611ba2573d6000803e3d6000fd5b505050506040513d601f19601f82011682018060405250810190611bc691906124bf565b5b15611bdd57611bd4611df8565b91509150611be5565b600036915091505b9091565b60003273ffffffffffffffffffffffffffffffffffffffff163373ffffffffffffffffffffffffffffffffffffffff161480611c29575060186000369050105b15611c3657339050611d49565b6000611c40611de9565b90507f000000000000000000000000000000000000000000000000000000000000000073ffffffffffffffffffffffffffffffffffffffff163373ffffffffffffffffffffffffffffffffffffffff161480611d3657507f000000000000000000000000000000000000000000000000000000000000000073ffffffffffffffffffffffffffffffffffffffff1663019a20288233306040518463ffffffff1660e01b8152600401611cf49392919061273d565b602060405180830381865afa158015611d11573d6000803e3d6000fd5b505050506040513d601f19601f82011682018060405250810190611d3591906124bf565b5b15611d445780915050611d49565b339150505b90565b8060000160009054906101000a900460ff16611d94576040517f6cd6020100000000000000000000000000000000000000000000000000000000815260040160405180910390fd5b50565b60008082905060005b85859050811015611ddd57611dce82878784818110611dc257611dc1612774565b5b90506020020135611e1d565b91508080600101915050611da0565b50809150509392505050565b6000601436033560601c905090565b3660008036600090601460003690500392611e15939291906127ad565b915091509091565b6000818310611e3557611e308284611e48565b611e40565b611e3f8383611e48565b5b905092915050565b600082600052816020526040600020905092915050565b600080fd5b600080fd5b60007fffffffff0000000000000000000000000000000000000000000000000000000082169050919050565b611e9e81611e69565b8114611ea957600080fd5b50565b600081359050611ebb81611e95565b92915050565b600060208284031215611ed757611ed6611e5f565b5b6000611ee584828501611eac565b91505092915050565b60008115159050919050565b611f0381611eee565b82525050565b6000602082019050611f1e6000830184611efa565b92915050565b600073ffffffffffffffffffffffffffffffffffffffff82169050919050565b6000611f4f82611f24565b9050919050565b611f5f81611f44565b8114611f6a57600080fd5b50565b600081359050611f7c81611f56565b92915050565b6000819050919050565b611f9581611f82565b8114611fa057600080fd5b50565b600081359050611fb281611f8c565b92915050565b600080fd5b600080fd5b600080fd5b60008083601f840112611fdd57611fdc611fb8565b5b8235905067ffffffffffffffff811115611ffa57611ff9611fbd565b5b60208301915083602082028301111561201657612015611fc2565b5b9250929050565b60008060008060006080868803121561203957612038611e5f565b5b600061204788828901611f6d565b955050602061205888828901611fa3565b945050604061206988828901611fa3565b935050606086013567ffffffffffffffff81111561208a57612089611e64565b5b61209688828901611fc7565b92509250509295509295909350565b6000819050919050565b60006120ca6120c56120c084611f24565b6120a5565b611f24565b9050919050565b60006120dc826120af565b9050919050565b60006120ee826120d1565b9050919050565b6120fe816120e3565b82525050565b600060208201905061211960008301846120f5565b92915050565b600082825260208201905092915050565b82818337600083830152505050565b6000601f19601f8301169050919050565b600061215c838561211f565b9350612169838584612130565b6121728361213f565b840190509392505050565b60006020820190508181036000830152612198818486612150565b90509392505050565b6121aa81611f44565b82525050565b60006020820190506121c560008301846121a1565b92915050565b6000602082840312156121e1576121e0611e5f565b5b60006121ef84828501611f6d565b91505092915050565b6000819050919050565b61220b816121f8565b811461221657600080fd5b50565b60008135905061222881612202565b92915050565b60006020828403121561224457612243611e5f565b5b600061225284828501612219565b91505092915050565b61226481611f82565b82525050565b600060208201905061227f600083018461225b565b92915050565b60006020828403121561229b5761229a611e5f565b5b60006122a984828501611fa3565b91505092915050565b6122bb816121f8565b82525050565b60006020820190506122d660008301846122b2565b92915050565b60006bffffffffffffffffffffffff82169050919050565b6122fd816122dc565b82525050565b600060208201905061231860008301846122f4565b92915050565b7f4e487b7100000000000000000000000000000000000000000000000000000000600052601160045260246000fd5b600061235882611f82565b915061236383611f82565b925082820261237181611f82565b915082820484148315176123885761238761231e565b5b5092915050565b7f4e487b7100000000000000000000000000000000000000000000000000000000600052601260045260246000fd5b60006123c982611f82565b91506123d483611f82565b9250826123e4576123e361238f565b5b828204905092915050565b60006123fa82611f82565b915061240583611f82565b925082820390508181111561241d5761241c61231e565b5b92915050565b50565b600061243360008361211f565b915061243e82612423565b600082019050919050565b600060808201905061245e60008301866121a1565b61246b60208301856121a1565b612478604083018461225b565b818103606083015261248981612426565b9050949350505050565b61249c81611eee565b81146124a757600080fd5b50565b6000815190506124b981612493565b92915050565b6000602082840312156124d5576124d4611e5f565b5b60006124e3848285016124aa565b91505092915050565b600060608201905061250160008301866121a1565b61250e602083018561225b565b61251b604083018461225b565b949350505050565b600081519050919050565b60005b8381101561254c578082015181840152602081019050612531565b60008484015250505050565b600061256382612523565b61256d818561211f565b935061257d81856020860161252e565b6125868161213f565b840191505092915050565b60006080820190506125a660008301876121a1565b6125b360208301866121a1565b6125c0604083018561225b565b81810360608301526125d28184612558565b905095945050505050565b6000819050919050565b60006126026125fd6125f8846125dd565b6120a5565b611f82565b9050919050565b612612816125e7565b82525050565b600060608201905061262d60008301866121a1565b61263a602083018561225b565b6126476040830184612609565b949350505050565b600061265a82611f82565b91507fffffffffffffffffffffffffffffffffffffffffffffffffffffffffffffffff820361268c5761268b61231e565b5b600182019050919050565b60008160601b9050919050565b60006126af82612697565b9050919050565b60006126c1826126a4565b9050919050565b6126d96126d482611f44565b6126b6565b82525050565b6000819050919050565b6126fa6126f582611f82565b6126df565b82525050565b600061270c82866126c8565b60148201915061271c82856126e9565b60208201915061272c82846126e9565b602082019150819050949350505050565b600060608201905061275260008301866121a1565b61275f60208301856121a1565b61276c60408301846121a1565b949350505050565b7f4e487b7100000000000000000000000000000000000000000000000000000000600052603260045260246000fd5b600080fd5b600080fd5b600080858511156127c1576127c06127a3565b5b838611156127d2576127d16127a8565b5b600185028301915084860390509450949250505056fea26469706673582212201ff523e1d3bc2e4f079a58a8fa6109da14a8cf14825afeb2e9b022e2b8376b5064736f6c634300081c0033","opcodes":"PUSH1 0xE0 PUSH1 0x40 MSTORE CALLVALUE DUP1 ISZERO PUSH2 0x10 JUMPI PUSH1 0x0 DUP1 REVERT JUMPDEST POP PUSH1 0x40 MLOAD PUSH2 0x34FF CODESIZE SUB DUP1 PUSH2 0x34FF DUP4 CODECOPY DUP2 DUP2 ADD PUSH1 0x40 MSTORE DUP2 ADD SWAP1 PUSH2 0x32 SWAP2 SWAP1 PUSH2 0xB4F JUMP JUMPDEST DUP6 DUP6 DUP6 DUP6 DUP6 DUP6 DUP1 DUP1 CALLER PUSH2 0x5B DUP2 PUSH2 0x4D PUSH2 0x7DE PUSH1 0x20 SHL PUSH1 0x20 SHR JUMP JUMPDEST PUSH2 0x81D PUSH1 0x20 SHL SWAP1 SWAP2 SWAP1 PUSH1 0x20 SHR JUMP JUMPDEST POP DUP1 PUSH20 0xFFFFFFFFFFFFFFFFFFFFFFFFFFFFFFFFFFFFFFFF AND PUSH1 0x80 DUP2 PUSH20 0xFFFFFFFFFFFFFFFFFFFFFFFFFFFFFFFFFFFFFFFF AND DUP2 MSTORE POP POP POP POP PUSH2 0xAC PUSH8 0xA36D0ADC33F17B37 PUSH1 0xC0 SHL PUSH2 0x937 PUSH1 0x20 SHL PUSH1 0x20 SHR JUMP JUMPDEST PUSH2 0xC6 PUSH8 0xF41A12884D7E7E49 PUSH1 0xC0 SHL PUSH2 0x937 PUSH1 0x20 SHL PUSH1 0x20 SHR JUMP JUMPDEST PUSH2 0xE0 PUSH8 0x5BA9BD0ADA17A2B7 PUSH1 0xC0 SHL PUSH2 0x937 PUSH1 0x20 SHL PUSH1 0x20 SHR JUMP JUMPDEST PUSH1 0x0 PUSH20 0xFFFFFFFFFFFFFFFFFFFFFFFFFFFFFFFFFFFFFFFF AND DUP7 PUSH20 0xFFFFFFFFFFFFFFFFFFFFFFFFFFFFFFFFFFFFFFFF AND SUB PUSH2 0x185 JUMPI PUSH2 0x12E PUSH8 0xE1D3106370B5EEC3 PUSH1 0xC0 SHL PUSH2 0x937 PUSH1 0x20 SHL PUSH1 0x20 SHR JUMP JUMPDEST PUSH2 0x148 PUSH8 0xF2EBF5C343B46902 PUSH1 0xC0 SHL PUSH2 0x937 PUSH1 0x20 SHL PUSH1 0x20 SHR JUMP JUMPDEST DUP6 PUSH1 0x40 MLOAD PUSH32 0xA50E6D0600000000000000000000000000000000000000000000000000000000 DUP2 MSTORE PUSH1 0x4 ADD PUSH2 0x17C SWAP2 SWAP1 PUSH2 0xBEB JUMP JUMPDEST PUSH1 0x40 MLOAD DUP1 SWAP2 SUB SWAP1 REVERT JUMPDEST PUSH2 0x19F PUSH8 0xD6ADF97C13000735 PUSH1 0xC0 SHL PUSH2 0x937 PUSH1 0x20 SHL PUSH1 0x20 SHR JUMP JUMPDEST PUSH2 0x1B9 PUSH8 0x28224BCDA3FD3F1 PUSH1 0xC0 SHL PUSH2 0x937 PUSH1 0x20 SHL PUSH1 0x20 SHR JUMP JUMPDEST PUSH2 0x1D3 PUSH8 0xC6573D49B8B457EE PUSH1 0xC0 SHL PUSH2 0x937 PUSH1 0x20 SHL PUSH1 0x20 SHR JUMP JUMPDEST PUSH1 0x0 PUSH20 0xFFFFFFFFFFFFFFFFFFFFFFFFFFFFFFFFFFFFFFFF AND DUP6 PUSH20 0xFFFFFFFFFFFFFFFFFFFFFFFFFFFFFFFFFFFFFFFF AND SUB PUSH2 0x278 JUMPI PUSH2 0x221 PUSH8 0x83AE3A514963D1D6 PUSH1 0xC0 SHL PUSH2 0x937 PUSH1 0x20 SHL PUSH1 0x20 SHR JUMP JUMPDEST PUSH2 0x23B PUSH8 0x2842DDE92847E2EE PUSH1 0xC0 SHL PUSH2 0x937 PUSH1 0x20 SHL PUSH1 0x20 SHR JUMP JUMPDEST DUP5 PUSH1 0x40 MLOAD PUSH32 0x81D97A5E00000000000000000000000000000000000000000000000000000000 DUP2 MSTORE PUSH1 0x4 ADD PUSH2 0x26F SWAP2 SWAP1 PUSH2 0xBEB JUMP JUMPDEST PUSH1 0x40 MLOAD DUP1 SWAP2 SUB SWAP1 REVERT JUMPDEST PUSH2 0x292 PUSH8 0xE6FE166F375962AF PUSH1 0xC0 SHL PUSH2 0x937 PUSH1 0x20 SHL PUSH1 0x20 SHR JUMP JUMPDEST PUSH2 0x2AC PUSH8 0x954D1BF7B105F972 PUSH1 0xC0 SHL PUSH2 0x937 PUSH1 0x20 SHL PUSH1 0x20 SHR JUMP JUMPDEST PUSH2 0x2C6 PUSH8 0x53FFC2574D590CBA PUSH1 0xC0 SHL PUSH2 0x937 PUSH1 0x20 SHL PUSH1 0x20 SHR JUMP JUMPDEST PUSH1 0x0 PUSH20 0xFFFFFFFFFFFFFFFFFFFFFFFFFFFFFFFFFFFFFFFF AND DUP5 PUSH20 0xFFFFFFFFFFFFFFFFFFFFFFFFFFFFFFFFFFFFFFFF AND SUB PUSH2 0x360 JUMPI PUSH2 0x314 PUSH8 0x96DEA910F583E2CF PUSH1 0xC0 SHL PUSH2 0x937 PUSH1 0x20 SHL PUSH1 0x20 SHR JUMP JUMPDEST PUSH2 0x32E PUSH8 0xF511EEE0969A3BEF PUSH1 0xC0 SHL PUSH2 0x937 PUSH1 0x20 SHL PUSH1 0x20 SHR JUMP JUMPDEST PUSH1 0x40 MLOAD PUSH32 0xC41CBEE200000000000000000000000000000000000000000000000000000000 DUP2 MSTORE PUSH1 0x4 ADD PUSH1 0x40 MLOAD DUP1 SWAP2 SUB SWAP1 REVERT JUMPDEST PUSH2 0x37A PUSH8 0xFCDDCF9F05ABCE3A PUSH1 0xC0 SHL PUSH2 0x937 PUSH1 0x20 SHL PUSH1 0x20 SHR JUMP JUMPDEST PUSH2 0x394 PUSH8 0xF45261B1A1C9A8C PUSH1 0xC0 SHL PUSH2 0x937 PUSH1 0x20 SHL PUSH1 0x20 SHR JUMP JUMPDEST PUSH2 0x3AE PUSH8 0x3C524D8F2DCF1B8E PUSH1 0xC0 SHL PUSH2 0x937 PUSH1 0x20 SHL PUSH1 0x20 SHR JUMP JUMPDEST PUSH1 0x0 PUSH20 0xFFFFFFFFFFFFFFFFFFFFFFFFFFFFFFFFFFFFFFFF AND DUP4 PUSH20 0xFFFFFFFFFFFFFFFFFFFFFFFFFFFFFFFFFFFFFFFF AND SUB PUSH2 0x448 JUMPI PUSH2 0x3FC PUSH8 0xAC47D6BEDAFDB437 PUSH1 0xC0 SHL PUSH2 0x937 PUSH1 0x20 SHL PUSH1 0x20 SHR JUMP JUMPDEST PUSH2 0x416 PUSH8 0x8F11A9C2AFFF8ACB PUSH1 0xC0 SHL PUSH2 0x937 PUSH1 0x20 SHL PUSH1 0x20 SHR JUMP JUMPDEST PUSH1 0x40 MLOAD PUSH32 0xA56B8E2800000000000000000000000000000000000000000000000000000000 DUP2 MSTORE PUSH1 0x4 ADD PUSH1 0x40 MLOAD DUP1 SWAP2 SUB SWAP1 REVERT JUMPDEST PUSH2 0x462 PUSH8 0x44C28DBE437B1DFC PUSH1 0xC0 SHL PUSH2 0x937 PUSH1 0x20 SHL PUSH1 0x20 SHR JUMP JUMPDEST PUSH2 0x47C PUSH8 0x284EDE5B121B9D3E PUSH1 0xC0 SHL PUSH2 0x937 PUSH1 0x20 SHL PUSH1 0x20 SHR JUMP JUMPDEST PUSH2 0x496 PUSH8 0x45F3EF2CCB38590C PUSH1 0xC0 SHL PUSH2 0x937 PUSH1 0x20 SHL PUSH1 0x20 SHR JUMP JUMPDEST PUSH2 0x2710 DUP3 PUSH12 0xFFFFFFFFFFFFFFFFFFFFFFFF AND GT ISZERO PUSH2 0x514 JUMPI PUSH2 0x4C8 PUSH8 0x42E5B9F0295B445B PUSH1 0xC0 SHL PUSH2 0x937 PUSH1 0x20 SHL PUSH1 0x20 SHR JUMP JUMPDEST PUSH2 0x4E2 PUSH8 0x2F82B71C2BDC9DE PUSH1 0xC0 SHL PUSH2 0x937 PUSH1 0x20 SHL PUSH1 0x20 SHR JUMP JUMPDEST PUSH1 0x40 MLOAD PUSH32 0x58D620B300000000000000000000000000000000000000000000000000000000 DUP2 MSTORE PUSH1 0x4 ADD PUSH1 0x40 MLOAD DUP1 SWAP2 SUB SWAP1 REVERT JUMPDEST PUSH2 0x52E PUSH8 0x31A20387D0D79CCD PUSH1 0xC0 SHL PUSH2 0x937 PUSH1 0x20 SHL PUSH1 0x20 SHR JUMP JUMPDEST PUSH2 0x548 PUSH8 0x54C5F1FD634DFCD1 PUSH1 0xC0 SHL PUSH2 0x937 PUSH1 0x20 SHL PUSH1 0x20 SHR JUMP JUMPDEST PUSH2 0x562 PUSH8 0x629AC93FF6BAD45B PUSH1 0xC0 SHL PUSH2 0x937 PUSH1 0x20 SHL PUSH1 0x20 SHR JUMP JUMPDEST PUSH1 0x0 PUSH20 0xFFFFFFFFFFFFFFFFFFFFFFFFFFFFFFFFFFFFFFFF AND DUP2 PUSH20 0xFFFFFFFFFFFFFFFFFFFFFFFFFFFFFFFFFFFFFFFF AND SUB PUSH2 0x5FC JUMPI PUSH2 0x5B0 PUSH8 0xA3AA0FCAB4A2ADF7 PUSH1 0xC0 SHL PUSH2 0x937 PUSH1 0x20 SHL PUSH1 0x20 SHR JUMP JUMPDEST PUSH2 0x5CA PUSH8 0x79A731AF8353C2F3 PUSH1 0xC0 SHL PUSH2 0x937 PUSH1 0x20 SHL PUSH1 0x20 SHR JUMP JUMPDEST PUSH1 0x40 MLOAD PUSH32 0xD516E87C00000000000000000000000000000000000000000000000000000000 DUP2 MSTORE PUSH1 0x4 ADD PUSH1 0x40 MLOAD DUP1 SWAP2 SUB SWAP1 REVERT JUMPDEST PUSH2 0x616 PUSH8 0xDBEDD722DE4F23C1 PUSH1 0xC0 SHL PUSH2 0x937 PUSH1 0x20 SHL PUSH1 0x20 SHR JUMP JUMPDEST PUSH2 0x630 PUSH8 0x7D6D904528705B4 PUSH1 0xC0 SHL PUSH2 0x937 PUSH1 0x20 SHL PUSH1 0x20 SHR JUMP JUMPDEST DUP6 PUSH20 0xFFFFFFFFFFFFFFFFFFFFFFFFFFFFFFFFFFFFFFFF AND PUSH1 0xA0 DUP2 PUSH20 0xFFFFFFFFFFFFFFFFFFFFFFFFFFFFFFFFFFFFFFFF AND DUP2 MSTORE POP POP PUSH2 0x67E PUSH8 0x6E034145A881C407 PUSH1 0xC0 SHL PUSH2 0x937 PUSH1 0x20 SHL PUSH1 0x20 SHR JUMP JUMPDEST DUP5 PUSH20 0xFFFFFFFFFFFFFFFFFFFFFFFFFFFFFFFFFFFFFFFF AND PUSH1 0xC0 DUP2 PUSH20 0xFFFFFFFFFFFFFFFFFFFFFFFFFFFFFFFFFFFFFFFF AND DUP2 MSTORE POP POP PUSH2 0x6CC PUSH8 0xE4361AC244B7CDF0 PUSH1 0xC0 SHL PUSH2 0x937 PUSH1 0x20 SHL PUSH1 0x20 SHR JUMP JUMPDEST DUP4 PUSH1 0x2 PUSH1 0x0 PUSH2 0x100 EXP DUP2 SLOAD DUP2 PUSH20 0xFFFFFFFFFFFFFFFFFFFFFFFFFFFFFFFFFFFFFFFF MUL NOT AND SWAP1 DUP4 PUSH20 0xFFFFFFFFFFFFFFFFFFFFFFFFFFFFFFFFFFFFFFFF AND MUL OR SWAP1 SSTORE POP PUSH2 0x727 PUSH8 0x363C98DF3963001E PUSH1 0xC0 SHL PUSH2 0x937 PUSH1 0x20 SHL PUSH1 0x20 SHR JUMP JUMPDEST DUP3 PUSH1 0x4 PUSH1 0x0 PUSH2 0x100 EXP DUP2 SLOAD DUP2 PUSH20 0xFFFFFFFFFFFFFFFFFFFFFFFFFFFFFFFFFFFFFFFF MUL NOT AND SWAP1 DUP4 PUSH20 0xFFFFFFFFFFFFFFFFFFFFFFFFFFFFFFFFFFFFFFFF AND MUL OR SWAP1 SSTORE POP PUSH2 0x782 PUSH8 0x6F476763BDD26A26 PUSH1 0xC0 SHL PUSH2 0x937 PUSH1 0x20 SHL PUSH1 0x20 SHR JUMP JUMPDEST DUP2 PUSH1 0x4 PUSH1 0x14 PUSH2 0x100 EXP DUP2 SLOAD DUP2 PUSH12 0xFFFFFFFFFFFFFFFFFFFFFFFF MUL NOT AND SWAP1 DUP4 PUSH12 0xFFFFFFFFFFFFFFFFFFFFFFFF AND MUL OR SWAP1 SSTORE POP POP POP POP POP POP POP PUSH2 0x7D3 PUSH8 0xF9B6E43D54455CC4 PUSH1 0xC0 SHL PUSH2 0x93A PUSH1 0x20 SHL PUSH1 0x20 SHR JUMP JUMPDEST POP POP POP POP POP POP PUSH2 0xC73 JUMP JUMPDEST PUSH1 0x0 DUP1 PUSH1 0x1 PUSH32 0xC9ED16F33AB3A66C84BFD83099CCB2A8845871E2E1C1928F63797152F0FD54CD PUSH1 0x0 SHR PUSH2 0x811 SWAP2 SWAP1 PUSH2 0xC3F JUMP JUMPDEST PUSH1 0x0 SHL SWAP1 POP DUP1 SWAP2 POP POP SWAP1 JUMP JUMPDEST PUSH1 0x0 PUSH20 0xFFFFFFFFFFFFFFFFFFFFFFFFFFFFFFFFFFFFFFFF AND DUP2 PUSH20 0xFFFFFFFFFFFFFFFFFFFFFFFFFFFFFFFFFFFFFFFF AND EQ PUSH2 0x8F0 JUMPI DUP1 DUP3 PUSH1 0x0 ADD PUSH1 0x0 PUSH2 0x100 EXP DUP2 SLOAD DUP2 PUSH20 0xFFFFFFFFFFFFFFFFFFFFFFFFFFFFFFFFFFFFFFFF MUL NOT AND SWAP1 DUP4 PUSH20 0xFFFFFFFFFFFFFFFFFFFFFFFFFFFFFFFFFFFFFFFF AND MUL OR SWAP1 SSTORE POP DUP1 PUSH20 0xFFFFFFFFFFFFFFFFFFFFFFFFFFFFFFFFFFFFFFFF AND PUSH1 0x0 PUSH20 0xFFFFFFFFFFFFFFFFFFFFFFFFFFFFFFFFFFFFFFFF AND PUSH32 0x8BE0079C531659141344CD1FD0A4F28419497F9722A3DAAFE3B4186F6B6457E0 PUSH1 0x40 MLOAD PUSH1 0x40 MLOAD DUP1 SWAP2 SUB SWAP1 LOG3 JUMPDEST PUSH2 0x933 PUSH32 0x7F5828D000000000000000000000000000000000000000000000000000000000 PUSH1 0x1 PUSH2 0x924 PUSH2 0x93D PUSH1 0x20 SHL PUSH1 0x20 SHR JUMP JUMPDEST PUSH2 0x97C PUSH1 0x20 SHL SWAP1 SWAP3 SWAP2 SWAP1 PUSH1 0x20 SHR JUMP JUMPDEST POP POP JUMP JUMPDEST POP JUMP JUMPDEST POP JUMP JUMPDEST PUSH1 0x0 DUP1 PUSH1 0x1 PUSH32 0xCA9D3E17F264B0F3984E2634E94ADB37FA3E6A8103F06AEAE6FA59E21C769F5E PUSH1 0x0 SHR PUSH2 0x970 SWAP2 SWAP1 PUSH2 0xC3F JUMP JUMPDEST PUSH1 0x0 SHL SWAP1 POP DUP1 SWAP2 POP POP SWAP1 JUMP JUMPDEST PUSH4 0xFFFFFFFF PUSH1 0xE0 SHL PUSH28 0xFFFFFFFFFFFFFFFFFFFFFFFFFFFFFFFFFFFFFFFFFFFFFFFFFFFFFFFF NOT AND DUP3 PUSH28 0xFFFFFFFFFFFFFFFFFFFFFFFFFFFFFFFFFFFFFFFFFFFFFFFFFFFFFFFF NOT AND SUB PUSH2 0x9FA JUMPI PUSH1 0x40 MLOAD PUSH32 0x72C683BB00000000000000000000000000000000000000000000000000000000 DUP2 MSTORE PUSH1 0x4 ADD PUSH1 0x40 MLOAD DUP1 SWAP2 SUB SWAP1 REVERT JUMPDEST DUP1 DUP4 PUSH1 0x0 ADD PUSH1 0x0 DUP5 PUSH28 0xFFFFFFFFFFFFFFFFFFFFFFFFFFFFFFFFFFFFFFFFFFFFFFFFFFFFFFFF NOT AND PUSH28 0xFFFFFFFFFFFFFFFFFFFFFFFFFFFFFFFFFFFFFFFFFFFFFFFFFFFFFFFF NOT AND DUP2 MSTORE PUSH1 0x20 ADD SWAP1 DUP2 MSTORE PUSH1 0x20 ADD PUSH1 0x0 KECCAK256 PUSH1 0x0 PUSH2 0x100 EXP DUP2 SLOAD DUP2 PUSH1 0xFF MUL NOT AND SWAP1 DUP4 ISZERO ISZERO MUL OR SWAP1 SSTORE POP POP POP POP JUMP JUMPDEST PUSH1 0x0 DUP1 REVERT JUMPDEST PUSH1 0x0 PUSH20 0xFFFFFFFFFFFFFFFFFFFFFFFFFFFFFFFFFFFFFFFF DUP3 AND SWAP1 POP SWAP2 SWAP1 POP JUMP JUMPDEST PUSH1 0x0 PUSH2 0xA9A DUP3 PUSH2 0xA6F JUMP JUMPDEST SWAP1 POP SWAP2 SWAP1 POP JUMP JUMPDEST PUSH2 0xAAA DUP2 PUSH2 0xA8F JUMP JUMPDEST DUP2 EQ PUSH2 0xAB5 JUMPI PUSH1 0x0 DUP1 REVERT JUMPDEST POP JUMP JUMPDEST PUSH1 0x0 DUP2 MLOAD SWAP1 POP PUSH2 0xAC7 DUP2 PUSH2 0xAA1 JUMP JUMPDEST SWAP3 SWAP2 POP POP JUMP JUMPDEST PUSH1 0x0 PUSH12 0xFFFFFFFFFFFFFFFFFFFFFFFF DUP3 AND SWAP1 POP SWAP2 SWAP1 POP JUMP JUMPDEST PUSH2 0xAEE DUP2 PUSH2 0xACD JUMP JUMPDEST DUP2 EQ PUSH2 0xAF9 JUMPI PUSH1 0x0 DUP1 REVERT JUMPDEST POP JUMP JUMPDEST PUSH1 0x0 DUP2 MLOAD SWAP1 POP PUSH2 0xB0B DUP2 PUSH2 0xAE5 JUMP JUMPDEST SWAP3 SWAP2 POP POP JUMP JUMPDEST PUSH1 0x0 PUSH2 0xB1C DUP3 PUSH2 0xA8F JUMP JUMPDEST SWAP1 POP SWAP2 SWAP1 POP JUMP JUMPDEST PUSH2 0xB2C DUP2 PUSH2 0xB11 JUMP JUMPDEST DUP2 EQ PUSH2 0xB37 JUMPI PUSH1 0x0 DUP1 REVERT JUMPDEST POP JUMP JUMPDEST PUSH1 0x0 DUP2 MLOAD SWAP1 POP PUSH2 0xB49 DUP2 PUSH2 0xB23 JUMP JUMPDEST SWAP3 SWAP2 POP POP JUMP JUMPDEST PUSH1 0x0 DUP1 PUSH1 0x0 DUP1 PUSH1 0x0 DUP1 PUSH1 0xC0 DUP8 DUP10 SUB SLT ISZERO PUSH2 0xB6C JUMPI PUSH2 0xB6B PUSH2 0xA6A JUMP JUMPDEST JUMPDEST PUSH1 0x0 PUSH2 0xB7A DUP10 DUP3 DUP11 ADD PUSH2 0xAB8 JUMP JUMPDEST SWAP7 POP POP PUSH1 0x20 PUSH2 0xB8B DUP10 DUP3 DUP11 ADD PUSH2 0xAB8 JUMP JUMPDEST SWAP6 POP POP PUSH1 0x40 PUSH2 0xB9C DUP10 DUP3 DUP11 ADD PUSH2 0xAB8 JUMP JUMPDEST SWAP5 POP POP PUSH1 0x60 PUSH2 0xBAD DUP10 DUP3 DUP11 ADD PUSH2 0xAB8 JUMP JUMPDEST SWAP4 POP POP PUSH1 0x80 PUSH2 0xBBE DUP10 DUP3 DUP11 ADD PUSH2 0xAFC JUMP JUMPDEST SWAP3 POP POP PUSH1 0xA0 PUSH2 0xBCF DUP10 DUP3 DUP11 ADD PUSH2 0xB3A JUMP JUMPDEST SWAP2 POP POP SWAP3 SWAP6 POP SWAP3 SWAP6 POP SWAP3 SWAP6 JUMP JUMPDEST PUSH2 0xBE5 DUP2 PUSH2 0xA8F JUMP JUMPDEST DUP3 MSTORE POP POP JUMP JUMPDEST PUSH1 0x0 PUSH1 0x20 DUP3 ADD SWAP1 POP PUSH2 0xC00 PUSH1 0x0 DUP4 ADD DUP5 PUSH2 0xBDC JUMP JUMPDEST SWAP3 SWAP2 POP POP JUMP JUMPDEST PUSH1 0x0 DUP2 SWAP1 POP SWAP2 SWAP1 POP JUMP JUMPDEST PUSH32 0x4E487B7100000000000000000000000000000000000000000000000000000000 PUSH1 0x0 MSTORE PUSH1 0x11 PUSH1 0x4 MSTORE PUSH1 0x24 PUSH1 0x0 REVERT JUMPDEST PUSH1 0x0 PUSH2 0xC4A DUP3 PUSH2 0xC06 JUMP JUMPDEST SWAP2 POP PUSH2 0xC55 DUP4 PUSH2 0xC06 JUMP JUMPDEST SWAP3 POP DUP3 DUP3 SUB SWAP1 POP DUP2 DUP2 GT ISZERO PUSH2 0xC6D JUMPI PUSH2 0xC6C PUSH2 0xC10 JUMP JUMPDEST JUMPDEST SWAP3 SWAP2 POP POP JUMP JUMPDEST PUSH1 0x80 MLOAD PUSH1 0xA0 MLOAD PUSH1 0xC0 MLOAD PUSH2 0x281E PUSH2 0xCE1 PUSH1 0x0 CODECOPY PUSH1 0x0 DUP2 DUP2 PUSH2 0xBA7 ADD MSTORE PUSH2 0x100D ADD MSTORE PUSH1 0x0 DUP2 DUP2 PUSH2 0x610 ADD MSTORE DUP2 DUP2 PUSH2 0x6D9 ADD MSTORE DUP2 DUP2 PUSH2 0x89A ADD MSTORE PUSH2 0xB6A ADD MSTORE PUSH1 0x0 DUP2 DUP2 PUSH2 0x825 ADD MSTORE DUP2 DUP2 PUSH2 0x919 ADD MSTORE DUP2 DUP2 PUSH2 0x1ACE ADD MSTORE DUP2 DUP2 PUSH2 0x1B23 ADD MSTORE DUP2 DUP2 PUSH2 0x1C44 ADD MSTORE PUSH2 0x1C99 ADD MSTORE PUSH2 0x281E PUSH1 0x0 RETURN INVALID PUSH1 0x80 PUSH1 0x40 MSTORE CALLVALUE DUP1 ISZERO PUSH2 0x10 JUMPI PUSH1 0x0 DUP1 REVERT JUMPDEST POP PUSH1 0x4 CALLDATASIZE LT PUSH2 0x198 JUMPI PUSH1 0x0 CALLDATALOAD PUSH1 0xE0 SHR DUP1 PUSH4 0x8456CB59 GT PUSH2 0xE3 JUMPI DUP1 PUSH4 0xD1A91FF2 GT PUSH2 0x8C JUMPI DUP1 PUSH4 0xDDCA3F43 GT PUSH2 0x66 JUMPI DUP1 PUSH4 0xDDCA3F43 EQ PUSH2 0x42A JUMPI DUP1 PUSH4 0xE63A391F EQ PUSH2 0x448 JUMPI DUP1 PUSH4 0xF2FDE38B EQ PUSH2 0x466 JUMPI PUSH2 0x198 JUMP JUMPDEST DUP1 PUSH4 0xD1A91FF2 EQ PUSH2 0x3BE JUMPI DUP1 PUSH4 0xDA19DDFB EQ PUSH2 0x3DC JUMPI DUP1 PUSH4 0xDB200205 EQ PUSH2 0x3FA JUMPI PUSH2 0x198 JUMP JUMPDEST DUP1 PUSH4 0xA8602FEA GT PUSH2 0xBD JUMPI DUP1 PUSH4 0xA8602FEA EQ PUSH2 0x354 JUMPI DUP1 PUSH4 0xAFFED0E0 EQ PUSH2 0x370 JUMPI DUP1 PUSH4 0xCC3C0F06 EQ PUSH2 0x38E JUMPI PUSH2 0x198 JUMP JUMPDEST DUP1 PUSH4 0x8456CB59 EQ PUSH2 0x30E JUMPI DUP1 PUSH4 0x8488BB4E EQ PUSH2 0x318 JUMPI DUP1 PUSH4 0x8DA5CB5B EQ PUSH2 0x336 JUMPI PUSH2 0x198 JUMP JUMPDEST DUP1 PUSH4 0x4626402B GT PUSH2 0x145 JUMPI DUP1 PUSH4 0x6B8F9C43 GT PUSH2 0x11F JUMPI DUP1 PUSH4 0x6B8F9C43 EQ PUSH2 0x2BA JUMPI DUP1 PUSH4 0x6ED31D09 EQ PUSH2 0x2D6 JUMPI DUP1 PUSH4 0x7CB64759 EQ PUSH2 0x2F2 JUMPI PUSH2 0x198 JUMP JUMPDEST DUP1 PUSH4 0x4626402B EQ PUSH2 0x24E JUMPI DUP1 PUSH4 0x572B6C05 EQ PUSH2 0x26C JUMPI DUP1 PUSH4 0x5C975ABB EQ PUSH2 0x29C JUMPI PUSH2 0x198 JUMP JUMPDEST DUP1 PUSH4 0x31E66E1E GT PUSH2 0x176 JUMPI DUP1 PUSH4 0x31E66E1E EQ PUSH2 0x207 JUMPI DUP1 PUSH4 0x3A5AF339 EQ PUSH2 0x226 JUMPI DUP1 PUSH4 0x3F4BA83A EQ PUSH2 0x244 JUMPI PUSH2 0x198 JUMP JUMPDEST DUP1 PUSH4 0x1FFC9A7 EQ PUSH2 0x19D JUMPI DUP1 PUSH4 0x21C3DF25 EQ PUSH2 0x1CD JUMPI DUP1 PUSH4 0x2B4C9F16 EQ PUSH2 0x1E9 JUMPI JUMPDEST PUSH1 0x0 DUP1 REVERT JUMPDEST PUSH2 0x1B7 PUSH1 0x4 DUP1 CALLDATASIZE SUB DUP2 ADD SWAP1 PUSH2 0x1B2 SWAP2 SWAP1 PUSH2 0x1EC1 JUMP JUMPDEST PUSH2 0x482 JUMP JUMPDEST PUSH1 0x40 MLOAD PUSH2 0x1C4 SWAP2 SWAP1 PUSH2 0x1F09 JUMP JUMPDEST PUSH1 0x40 MLOAD DUP1 SWAP2 SUB SWAP1 RETURN JUMPDEST PUSH2 0x1E7 PUSH1 0x4 DUP1 CALLDATASIZE SUB DUP2 ADD SWAP1 PUSH2 0x1E2 SWAP2 SWAP1 PUSH2 0x201D JUMP JUMPDEST PUSH2 0x4A5 JUMP JUMPDEST STOP JUMPDEST PUSH2 0x1F1 PUSH2 0x821 JUMP JUMPDEST PUSH1 0x40 MLOAD PUSH2 0x1FE SWAP2 SWAP1 PUSH2 0x2104 JUMP JUMPDEST PUSH1 0x40 MLOAD DUP1 SWAP2 SUB SWAP1 RETURN JUMPDEST PUSH2 0x20F PUSH2 0x849 JUMP JUMPDEST PUSH1 0x40 MLOAD PUSH2 0x21D SWAP3 SWAP2 SWAP1 PUSH2 0x217D JUMP JUMPDEST PUSH1 0x40 MLOAD DUP1 SWAP2 SUB SWAP1 RETURN JUMPDEST PUSH2 0x22E PUSH2 0x898 JUMP JUMPDEST PUSH1 0x40 MLOAD PUSH2 0x23B SWAP2 SWAP1 PUSH2 0x21B0 JUMP JUMPDEST PUSH1 0x40 MLOAD DUP1 SWAP2 SUB SWAP1 RETURN JUMPDEST PUSH2 0x24C PUSH2 0x8BC JUMP JUMPDEST STOP JUMPDEST PUSH2 0x256 PUSH2 0x8EF JUMP JUMPDEST PUSH1 0x40 MLOAD PUSH2 0x263 SWAP2 SWAP1 PUSH2 0x21B0 JUMP JUMPDEST PUSH1 0x40 MLOAD DUP1 SWAP2 SUB SWAP1 RETURN JUMPDEST PUSH2 0x286 PUSH1 0x4 DUP1 CALLDATASIZE SUB DUP2 ADD SWAP1 PUSH2 0x281 SWAP2 SWAP1 PUSH2 0x21CB JUMP JUMPDEST PUSH2 0x915 JUMP JUMPDEST PUSH1 0x40 MLOAD PUSH2 0x293 SWAP2 SWAP1 PUSH2 0x1F09 JUMP JUMPDEST PUSH1 0x40 MLOAD DUP1 SWAP2 SUB SWAP1 RETURN JUMPDEST PUSH2 0x2A4 PUSH2 0x96D JUMP JUMPDEST PUSH1 0x40 MLOAD PUSH2 0x2B1 SWAP2 SWAP1 PUSH2 0x1F09 JUMP JUMPDEST PUSH1 0x40 MLOAD DUP1 SWAP2 SUB SWAP1 RETURN JUMPDEST PUSH2 0x2D4 PUSH1 0x4 DUP1 CALLDATASIZE SUB DUP2 ADD SWAP1 PUSH2 0x2CF SWAP2 SWAP1 PUSH2 0x21CB JUMP JUMPDEST PUSH2 0x984 JUMP JUMPDEST STOP JUMPDEST PUSH2 0x2F0 PUSH1 0x4 DUP1 CALLDATASIZE SUB DUP2 ADD SWAP1 PUSH2 0x2EB SWAP2 SWAP1 PUSH2 0x201D JUMP JUMPDEST PUSH2 0xAA4 JUMP JUMPDEST STOP JUMPDEST PUSH2 0x30C PUSH1 0x4 DUP1 CALLDATASIZE SUB DUP2 ADD SWAP1 PUSH2 0x307 SWAP2 SWAP1 PUSH2 0x222E JUMP JUMPDEST PUSH2 0xCD0 JUMP JUMPDEST STOP JUMPDEST PUSH2 0x316 PUSH2 0xE0A JUMP JUMPDEST STOP JUMPDEST PUSH2 0x320 PUSH2 0xE3D JUMP JUMPDEST PUSH1 0x40 MLOAD PUSH2 0x32D SWAP2 SWAP1 PUSH2 0x21B0 JUMP JUMPDEST PUSH1 0x40 MLOAD DUP1 SWAP2 SUB SWAP1 RETURN JUMPDEST PUSH2 0x33E PUSH2 0xE63 JUMP JUMPDEST PUSH1 0x40 MLOAD PUSH2 0x34B SWAP2 SWAP1 PUSH2 0x21B0 JUMP JUMPDEST PUSH1 0x40 MLOAD DUP1 SWAP2 SUB SWAP1 RETURN JUMPDEST PUSH2 0x36E PUSH1 0x4 DUP1 CALLDATASIZE SUB DUP2 ADD SWAP1 PUSH2 0x369 SWAP2 SWAP1 PUSH2 0x21CB JUMP JUMPDEST PUSH2 0xE7A JUMP JUMPDEST STOP JUMPDEST PUSH2 0x378 PUSH2 0xF9A JUMP JUMPDEST PUSH1 0x40 MLOAD PUSH2 0x385 SWAP2 SWAP1 PUSH2 0x226A JUMP JUMPDEST PUSH1 0x40 MLOAD DUP1 SWAP2 SUB SWAP1 RETURN JUMPDEST PUSH2 0x3A8 PUSH1 0x4 DUP1 CALLDATASIZE SUB DUP2 ADD SWAP1 PUSH2 0x3A3 SWAP2 SWAP1 PUSH2 0x222E JUMP JUMPDEST PUSH2 0xFA0 JUMP JUMPDEST PUSH1 0x40 MLOAD PUSH2 0x3B5 SWAP2 SWAP1 PUSH2 0x1F09 JUMP JUMPDEST PUSH1 0x40 MLOAD DUP1 SWAP2 SUB SWAP1 RETURN JUMPDEST PUSH2 0x3C6 PUSH2 0xFC0 JUMP JUMPDEST PUSH1 0x40 MLOAD PUSH2 0x3D3 SWAP2 SWAP1 PUSH2 0x21B0 JUMP JUMPDEST PUSH1 0x40 MLOAD DUP1 SWAP2 SUB SWAP1 RETURN JUMPDEST PUSH2 0x3E4 PUSH2 0x100B JUMP JUMPDEST PUSH1 0x40 MLOAD PUSH2 0x3F1 SWAP2 SWAP1 PUSH2 0x21B0 JUMP JUMPDEST PUSH1 0x40 MLOAD DUP1 SWAP2 SUB SWAP1 RETURN JUMPDEST PUSH2 0x414 PUSH1 0x4 DUP1 CALLDATASIZE SUB DUP2 ADD SWAP1 PUSH2 0x40F SWAP2 SWAP1 PUSH2 0x2285 JUMP JUMPDEST PUSH2 0x102F JUMP JUMPDEST PUSH1 0x40 MLOAD PUSH2 0x421 SWAP2 SWAP1 PUSH2 0x22C1 JUMP JUMPDEST PUSH1 0x40 MLOAD DUP1 SWAP2 SUB SWAP1 RETURN JUMPDEST PUSH2 0x432 PUSH2 0x1047 JUMP JUMPDEST PUSH1 0x40 MLOAD PUSH2 0x43F SWAP2 SWAP1 PUSH2 0x2303 JUMP JUMPDEST PUSH1 0x40 MLOAD DUP1 SWAP2 SUB SWAP1 RETURN JUMPDEST PUSH2 0x450 PUSH2 0x1065 JUMP JUMPDEST PUSH1 0x40 MLOAD PUSH2 0x45D SWAP2 SWAP1 PUSH2 0x226A JUMP JUMPDEST PUSH1 0x40 MLOAD DUP1 SWAP2 SUB SWAP1 RETURN JUMPDEST PUSH2 0x480 PUSH1 0x4 DUP1 CALLDATASIZE SUB DUP2 ADD SWAP1 PUSH2 0x47B SWAP2 SWAP1 PUSH2 0x21CB JUMP JUMPDEST PUSH2 0x106B JUMP JUMPDEST STOP JUMPDEST PUSH1 0x0 PUSH2 0x49E DUP3 PUSH2 0x490 PUSH2 0x1091 JUMP JUMPDEST PUSH2 0x10D0 SWAP1 SWAP2 SWAP1 PUSH4 0xFFFFFFFF AND JUMP JUMPDEST SWAP1 POP SWAP2 SWAP1 POP JUMP JUMPDEST PUSH2 0x4B9 PUSH8 0x78A933CA72BB7DBC PUSH1 0xC0 SHL PUSH2 0x11FF JUMP JUMPDEST PUSH2 0x4CD PUSH8 0x9035F8F98FE4B1E1 PUSH1 0xC0 SHL PUSH2 0x11FF JUMP JUMPDEST PUSH2 0x4E1 PUSH8 0xA0F21499B3C32B73 PUSH1 0xC0 SHL PUSH2 0x11FF JUMP JUMPDEST PUSH1 0x0 PUSH2 0x4F0 DUP7 DUP7 DUP7 DUP7 DUP7 PUSH2 0x1202 JUMP JUMPDEST SWAP1 POP PUSH2 0x506 PUSH8 0xA984774AA3943EAF PUSH1 0xC0 SHL PUSH2 0x11FF JUMP JUMPDEST PUSH2 0x51A PUSH8 0x712E2BBCC7F9AFCE PUSH1 0xC0 SHL PUSH2 0x11FF JUMP JUMPDEST PUSH1 0x0 PUSH1 0x2 PUSH1 0x0 SWAP1 SLOAD SWAP1 PUSH2 0x100 EXP SWAP1 DIV PUSH20 0xFFFFFFFFFFFFFFFFFFFFFFFFFFFFFFFFFFFFFFFF AND SWAP1 POP PUSH2 0x555 PUSH8 0x5810C450C4878B08 PUSH1 0xC0 SHL PUSH2 0x11FF JUMP JUMPDEST PUSH2 0x569 PUSH8 0x3171E5520ACB297C PUSH1 0xC0 SHL PUSH2 0x11FF JUMP JUMPDEST PUSH1 0x0 PUSH2 0x2710 PUSH1 0x4 PUSH1 0x14 SWAP1 SLOAD SWAP1 PUSH2 0x100 EXP SWAP1 DIV PUSH12 0xFFFFFFFFFFFFFFFFFFFFFFFF AND PUSH12 0xFFFFFFFFFFFFFFFFFFFFFFFF AND DUP9 PUSH2 0x5A2 SWAP2 SWAP1 PUSH2 0x234D JUMP JUMPDEST PUSH2 0x5AC SWAP2 SWAP1 PUSH2 0x23BE JUMP JUMPDEST SWAP1 POP PUSH2 0x5C2 PUSH8 0xBBD9522296412B5C PUSH1 0xC0 SHL PUSH2 0x11FF JUMP JUMPDEST PUSH2 0x5D6 PUSH8 0x9298961C7A33FCBD PUSH1 0xC0 SHL PUSH2 0x11FF JUMP JUMPDEST PUSH1 0x0 DUP2 DUP9 PUSH2 0x5E4 SWAP2 SWAP1 PUSH2 0x23EF JUMP JUMPDEST SWAP1 POP PUSH2 0x5FA PUSH8 0xE912E15F0A67591A PUSH1 0xC0 SHL PUSH2 0x11FF JUMP JUMPDEST PUSH2 0x60E PUSH8 0xE24634582E52C89C PUSH1 0xC0 SHL PUSH2 0x11FF JUMP JUMPDEST PUSH32 0x0 PUSH20 0xFFFFFFFFFFFFFFFFFFFFFFFFFFFFFFFFFFFFFFFF AND PUSH4 0xB88D4FDE DUP5 DUP12 DUP5 PUSH1 0x40 MLOAD DUP5 PUSH4 0xFFFFFFFF AND PUSH1 0xE0 SHL DUP2 MSTORE PUSH1 0x4 ADD PUSH2 0x66B SWAP4 SWAP3 SWAP2 SWAP1 PUSH2 0x2449 JUMP JUMPDEST PUSH1 0x20 PUSH1 0x40 MLOAD DUP1 DUP4 SUB DUP2 PUSH1 0x0 DUP8 GAS CALL ISZERO DUP1 ISZERO PUSH2 0x68A JUMPI RETURNDATASIZE PUSH1 0x0 DUP1 RETURNDATACOPY RETURNDATASIZE PUSH1 0x0 REVERT JUMPDEST POP POP POP POP PUSH1 0x40 MLOAD RETURNDATASIZE PUSH1 0x1F NOT PUSH1 0x1F DUP3 ADD AND DUP3 ADD DUP1 PUSH1 0x40 MSTORE POP DUP2 ADD SWAP1 PUSH2 0x6AE SWAP2 SWAP1 PUSH2 0x24BF JUMP JUMPDEST POP PUSH2 0x6C3 PUSH8 0x6D12824CAA331EAC PUSH1 0xC0 SHL PUSH2 0x11FF JUMP JUMPDEST PUSH2 0x6D7 PUSH8 0xFDBDC225FF6E7E61 PUSH1 0xC0 SHL PUSH2 0x11FF JUMP JUMPDEST PUSH32 0x0 PUSH20 0xFFFFFFFFFFFFFFFFFFFFFFFFFFFFFFFFFFFFFFFF AND PUSH4 0xB88D4FDE DUP5 PUSH1 0x4 PUSH1 0x0 SWAP1 SLOAD SWAP1 PUSH2 0x100 EXP SWAP1 DIV PUSH20 0xFFFFFFFFFFFFFFFFFFFFFFFFFFFFFFFFFFFFFFFF AND DUP6 PUSH1 0x40 MLOAD DUP5 PUSH4 0xFFFFFFFF AND PUSH1 0xE0 SHL DUP2 MSTORE PUSH1 0x4 ADD PUSH2 0x756 SWAP4 SWAP3 SWAP2 SWAP1 PUSH2 0x2449 JUMP JUMPDEST PUSH1 0x20 PUSH1 0x40 MLOAD DUP1 DUP4 SUB DUP2 PUSH1 0x0 DUP8 GAS CALL ISZERO DUP1 ISZERO PUSH2 0x775 JUMPI RETURNDATASIZE PUSH1 0x0 DUP1 RETURNDATACOPY RETURNDATASIZE PUSH1 0x0 REVERT JUMPDEST POP POP POP POP PUSH1 0x40 MLOAD RETURNDATASIZE PUSH1 0x1F NOT PUSH1 0x1F DUP3 ADD AND DUP3 ADD DUP1 PUSH1 0x40 MSTORE POP DUP2 ADD SWAP1 PUSH2 0x799 SWAP2 SWAP1 PUSH2 0x24BF JUMP JUMPDEST POP PUSH2 0x7AE PUSH8 0x32E24239E34AD1D1 PUSH1 0xC0 SHL PUSH2 0x11FF JUMP JUMPDEST PUSH2 0x7C2 PUSH8 0x99E45FDC9469E712 PUSH1 0xC0 SHL PUSH2 0x11FF JUMP JUMPDEST DUP3 PUSH20 0xFFFFFFFFFFFFFFFFFFFFFFFFFFFFFFFFFFFFFFFF AND DUP5 DUP9 PUSH32 0x4198E253C4AE311BC3D0C7ACA40CB1A9827879CA09DC5F3A430127C736748F18 DUP13 DUP6 DUP8 PUSH1 0x40 MLOAD PUSH2 0x80E SWAP4 SWAP3 SWAP2 SWAP1 PUSH2 0x24EC JUMP JUMPDEST PUSH1 0x40 MLOAD DUP1 SWAP2 SUB SWAP1 LOG4 POP POP POP POP POP POP POP POP POP JUMP JUMPDEST PUSH1 0x0 PUSH32 0x0 SWAP1 POP SWAP1 JUMP JUMPDEST CALLDATASIZE PUSH1 0x0 PUSH2 0x860 PUSH8 0xC14D123F9DE969E9 PUSH1 0xC0 SHL PUSH2 0x15FF JUMP JUMPDEST PUSH2 0x874 PUSH8 0xCD59A43744958F70 PUSH1 0xC0 SHL PUSH2 0x15FF JUMP JUMPDEST PUSH2 0x888 PUSH8 0xA6EA60D12F2D09C0 PUSH1 0xC0 SHL PUSH2 0x15FF JUMP JUMPDEST PUSH2 0x890 PUSH2 0x1602 JUMP JUMPDEST SWAP2 POP SWAP2 POP SWAP1 SWAP2 JUMP JUMPDEST PUSH32 0x0 DUP2 JUMP JUMPDEST PUSH2 0x8DD PUSH2 0x8C7 PUSH2 0x1651 JUMP JUMPDEST PUSH2 0x8CF PUSH2 0x169C JUMP JUMPDEST PUSH2 0x16DB SWAP1 SWAP2 SWAP1 PUSH4 0xFFFFFFFF AND JUMP JUMPDEST PUSH2 0x8ED PUSH2 0x8E8 PUSH2 0x1773 JUMP JUMPDEST PUSH2 0x17B2 JUMP JUMPDEST JUMP JUMPDEST PUSH1 0x4 PUSH1 0x0 SWAP1 SLOAD SWAP1 PUSH2 0x100 EXP SWAP1 DIV PUSH20 0xFFFFFFFFFFFFFFFFFFFFFFFFFFFFFFFFFFFFFFFF AND DUP2 JUMP JUMPDEST PUSH1 0x0 PUSH32 0x0 PUSH20 0xFFFFFFFFFFFFFFFFFFFFFFFFFFFFFFFFFFFFFFFF AND DUP3 PUSH20 0xFFFFFFFFFFFFFFFFFFFFFFFFFFFFFFFFFFFFFFFF AND EQ SWAP1 POP SWAP2 SWAP1 POP JUMP JUMPDEST PUSH1 0x0 PUSH2 0x97F PUSH2 0x97A PUSH2 0x1773 JUMP JUMPDEST PUSH2 0x1807 JUMP JUMPDEST SWAP1 POP SWAP1 JUMP JUMPDEST PUSH2 0x998 PUSH8 0x928C33F27D01033F PUSH1 0xC0 SHL PUSH2 0x11FF JUMP JUMPDEST PUSH2 0x9AC PUSH8 0x8D1614DCAECD1D84 PUSH1 0xC0 SHL PUSH2 0x11FF JUMP JUMPDEST PUSH2 0x9C0 PUSH8 0x443EAD99E20AF348 PUSH1 0xC0 SHL PUSH2 0x11FF JUMP JUMPDEST PUSH2 0x9E1 PUSH2 0x9CB PUSH2 0x1651 JUMP JUMPDEST PUSH2 0x9D3 PUSH2 0x169C JUMP JUMPDEST PUSH2 0x16DB SWAP1 SWAP2 SWAP1 PUSH4 0xFFFFFFFF AND JUMP JUMPDEST PUSH2 0x9F5 PUSH8 0xD653C1DDA23CB426 PUSH1 0xC0 SHL PUSH2 0x11FF JUMP JUMPDEST DUP1 PUSH1 0x2 PUSH1 0x0 PUSH2 0x100 EXP DUP2 SLOAD DUP2 PUSH20 0xFFFFFFFFFFFFFFFFFFFFFFFFFFFFFFFFFFFFFFFF MUL NOT AND SWAP1 DUP4 PUSH20 0xFFFFFFFFFFFFFFFFFFFFFFFFFFFFFFFFFFFFFFFF AND MUL OR SWAP1 SSTORE POP PUSH2 0xA4A PUSH8 0x600CF39EB0995067 PUSH1 0xC0 SHL PUSH2 0x11FF JUMP JUMPDEST PUSH2 0xA5E PUSH8 0x13B3BDFB30A95ACD PUSH1 0xC0 SHL PUSH2 0x11FF JUMP JUMPDEST DUP1 PUSH20 0xFFFFFFFFFFFFFFFFFFFFFFFFFFFFFFFFFFFFFFFF AND PUSH32 0xDD880D24A789958A6398C99C2E54CE31BC10A638CBC42F7DD34285479AE0F855 PUSH1 0x40 MLOAD PUSH1 0x40 MLOAD DUP1 SWAP2 SUB SWAP1 LOG2 POP JUMP JUMPDEST PUSH2 0xAB8 PUSH8 0x1FA9A34F82F569F5 PUSH1 0xC0 SHL PUSH2 0x11FF JUMP JUMPDEST PUSH2 0xACC PUSH8 0xCCDF7FC425AE651C PUSH1 0xC0 SHL PUSH2 0x11FF JUMP JUMPDEST PUSH2 0xAE0 PUSH8 0x7BBFC81B5D113884 PUSH1 0xC0 SHL PUSH2 0x11FF JUMP JUMPDEST PUSH1 0x0 PUSH2 0xAEF DUP7 DUP7 DUP7 DUP7 DUP7 PUSH2 0x1202 JUMP JUMPDEST SWAP1 POP PUSH2 0xB05 PUSH8 0xD6FCE75F5BB99349 PUSH1 0xC0 SHL PUSH2 0x11FF JUMP JUMPDEST PUSH2 0xB19 PUSH8 0xFE8125BD1E7535FF PUSH1 0xC0 SHL PUSH2 0x11FF JUMP JUMPDEST PUSH1 0x0 PUSH1 0x2 PUSH1 0x0 SWAP1 SLOAD SWAP1 PUSH2 0x100 EXP SWAP1 DIV PUSH20 0xFFFFFFFFFFFFFFFFFFFFFFFFFFFFFFFFFFFFFFFF AND SWAP1 POP PUSH2 0xB54 PUSH8 0x12E3A3940B2ED1CB PUSH1 0xC0 SHL PUSH2 0x11FF JUMP JUMPDEST PUSH2 0xB68 PUSH8 0xC8511A1845337B17 PUSH1 0xC0 SHL PUSH2 0x11FF JUMP JUMPDEST PUSH32 0x0 PUSH20 0xFFFFFFFFFFFFFFFFFFFFFFFFFFFFFFFFFFFFFFFF AND PUSH4 0xB88D4FDE DUP3 PUSH32 0x0 DUP10 DUP12 PUSH1 0x40 MLOAD PUSH1 0x20 ADD PUSH2 0xBD8 SWAP2 SWAP1 PUSH2 0x21B0 JUMP JUMPDEST PUSH1 0x40 MLOAD PUSH1 0x20 DUP2 DUP4 SUB SUB DUP2 MSTORE SWAP1 PUSH1 0x40 MSTORE PUSH1 0x40 MLOAD DUP6 PUSH4 0xFFFFFFFF AND PUSH1 0xE0 SHL DUP2 MSTORE PUSH1 0x4 ADD PUSH2 0xC06 SWAP5 SWAP4 SWAP3 SWAP2 SWAP1 PUSH2 0x2591 JUMP JUMPDEST PUSH1 0x20 PUSH1 0x40 MLOAD DUP1 DUP4 SUB DUP2 PUSH1 0x0 DUP8 GAS CALL ISZERO DUP1 ISZERO PUSH2 0xC25 JUMPI RETURNDATASIZE PUSH1 0x0 DUP1 RETURNDATACOPY RETURNDATASIZE PUSH1 0x0 REVERT JUMPDEST POP POP POP POP PUSH1 0x40 MLOAD RETURNDATASIZE PUSH1 0x1F NOT PUSH1 0x1F DUP3 ADD AND DUP3 ADD DUP1 PUSH1 0x40 MSTORE POP DUP2 ADD SWAP1 PUSH2 0xC49 SWAP2 SWAP1 PUSH2 0x24BF JUMP JUMPDEST POP PUSH2 0xC5E PUSH8 0x471763F08E05D1F4 PUSH1 0xC0 SHL PUSH2 0x11FF JUMP JUMPDEST PUSH2 0xC72 PUSH8 0x465A0A91B88C8594 PUSH1 0xC0 SHL PUSH2 0x11FF JUMP JUMPDEST DUP1 PUSH20 0xFFFFFFFFFFFFFFFFFFFFFFFFFFFFFFFFFFFFFFFF AND DUP3 DUP7 PUSH32 0x4198E253C4AE311BC3D0C7ACA40CB1A9827879CA09DC5F3A430127C736748F18 DUP11 DUP11 PUSH1 0x0 PUSH1 0x40 MLOAD PUSH2 0xCBF SWAP4 SWAP3 SWAP2 SWAP1 PUSH2 0x2618 JUMP JUMPDEST PUSH1 0x40 MLOAD DUP1 SWAP2 SUB SWAP1 LOG4 POP POP POP POP POP POP POP JUMP JUMPDEST PUSH2 0xCE4 PUSH8 0x6990F6D6E5BDC505 PUSH1 0xC0 SHL PUSH2 0x11FF JUMP JUMPDEST PUSH2 0xCF8 PUSH8 0x5EC09081B65B9D26 PUSH1 0xC0 SHL PUSH2 0x11FF JUMP JUMPDEST PUSH2 0xD0C PUSH8 0x237470C49CD9AE2A PUSH1 0xC0 SHL PUSH2 0x11FF JUMP JUMPDEST PUSH2 0xD2D PUSH2 0xD17 PUSH2 0x1651 JUMP JUMPDEST PUSH2 0xD1F PUSH2 0x169C JUMP JUMPDEST PUSH2 0x16DB SWAP1 SWAP2 SWAP1 PUSH4 0xFFFFFFFF AND JUMP JUMPDEST PUSH2 0xD41 PUSH8 0xB7F67D7449FEF357 PUSH1 0xC0 SHL PUSH2 0x11FF JUMP JUMPDEST PUSH2 0xD55 PUSH8 0x5E80F1A38095B0F2 PUSH1 0xC0 SHL PUSH2 0x11FF JUMP JUMPDEST PUSH1 0x0 DUP1 SLOAD SWAP1 POP PUSH2 0xD6F PUSH8 0x77AD003A196F9275 PUSH1 0xC0 SHL PUSH2 0x11FF JUMP JUMPDEST DUP2 PUSH1 0x1 PUSH1 0x0 DUP4 DUP2 MSTORE PUSH1 0x20 ADD SWAP1 DUP2 MSTORE PUSH1 0x20 ADD PUSH1 0x0 KECCAK256 DUP2 SWAP1 SSTORE POP PUSH2 0xD9B PUSH8 0xA0B843D6B512DDE9 PUSH1 0xC0 SHL PUSH2 0x11FF JUMP JUMPDEST PUSH1 0x0 DUP1 DUP2 SLOAD PUSH2 0xDA9 SWAP1 PUSH2 0x264F JUMP JUMPDEST SWAP2 SWAP1 POP DUP2 SWAP1 SSTORE POP PUSH2 0xDC4 PUSH8 0x6FA1815D9989536E PUSH1 0xC0 SHL PUSH2 0x11FF JUMP JUMPDEST PUSH2 0xDD8 PUSH8 0x5A0122B50355BD9 PUSH1 0xC0 SHL PUSH2 0x11FF JUMP JUMPDEST DUP2 DUP2 PUSH32 0xB04B7D6145A7588FDCF339A22877D5965F861C171204FC37688058C5F6C06D3B PUSH1 0x40 MLOAD PUSH1 0x40 MLOAD DUP1 SWAP2 SUB SWAP1 LOG3 POP POP JUMP JUMPDEST PUSH2 0xE2B PUSH2 0xE15 PUSH2 0x1651 JUMP JUMPDEST PUSH2 0xE1D PUSH2 0x169C JUMP JUMPDEST PUSH2 0x16DB SWAP1 SWAP2 SWAP1 PUSH4 0xFFFFFFFF AND JUMP JUMPDEST PUSH2 0xE3B PUSH2 0xE36 PUSH2 0x1773 JUMP JUMPDEST PUSH2 0x1822 JUMP JUMPDEST JUMP JUMPDEST PUSH1 0x2 PUSH1 0x0 SWAP1 SLOAD SWAP1 PUSH2 0x100 EXP SWAP1 DIV PUSH20 0xFFFFFFFFFFFFFFFFFFFFFFFFFFFFFFFFFFFFFFFF AND DUP2 JUMP JUMPDEST PUSH1 0x0 PUSH2 0xE75 PUSH2 0xE70 PUSH2 0x169C JUMP JUMPDEST PUSH2 0x1877 JUMP JUMPDEST SWAP1 POP SWAP1 JUMP JUMPDEST PUSH2 0xE8E PUSH8 0xAA0A42F500F709B PUSH1 0xC0 SHL PUSH2 0x11FF JUMP JUMPDEST PUSH2 0xEA2 PUSH8 0x5AA1F6791F6B4224 PUSH1 0xC0 SHL PUSH2 0x11FF JUMP JUMPDEST PUSH2 0xEB6 PUSH8 0x54B4F7E0FAD144E3 PUSH1 0xC0 SHL PUSH2 0x11FF JUMP JUMPDEST PUSH2 0xED7 PUSH2 0xEC1 PUSH2 0x1651 JUMP JUMPDEST PUSH2 0xEC9 PUSH2 0x169C JUMP JUMPDEST PUSH2 0x16DB SWAP1 SWAP2 SWAP1 PUSH4 0xFFFFFFFF AND JUMP JUMPDEST PUSH2 0xEEB PUSH8 0x180557669567288 PUSH1 0xC0 SHL PUSH2 0x11FF JUMP JUMPDEST DUP1 PUSH1 0x4 PUSH1 0x0 PUSH2 0x100 EXP DUP2 SLOAD DUP2 PUSH20 0xFFFFFFFFFFFFFFFFFFFFFFFFFFFFFFFFFFFFFFFF MUL NOT AND SWAP1 DUP4 PUSH20 0xFFFFFFFFFFFFFFFFFFFFFFFFFFFFFFFFFFFFFFFF AND MUL OR SWAP1 SSTORE POP PUSH2 0xF40 PUSH8 0xA512D3BA837CC4E5 PUSH1 0xC0 SHL PUSH2 0x11FF JUMP JUMPDEST PUSH2 0xF54 PUSH8 0x86A2DE4E8066DBFC PUSH1 0xC0 SHL PUSH2 0x11FF JUMP JUMPDEST DUP1 PUSH20 0xFFFFFFFFFFFFFFFFFFFFFFFFFFFFFFFFFFFFFFFF AND PUSH32 0x5695F8B02F5F53D02B408DB3ED952C16F32F9701AD2691C44733F2A2D09225A9 PUSH1 0x40 MLOAD PUSH1 0x40 MLOAD DUP1 SWAP2 SUB SWAP1 LOG2 POP JUMP JUMPDEST PUSH1 0x0 SLOAD DUP2 JUMP JUMPDEST PUSH1 0x3 PUSH1 0x20 MSTORE DUP1 PUSH1 0x0 MSTORE PUSH1 0x40 PUSH1 0x0 KECCAK256 PUSH1 0x0 SWAP2 POP SLOAD SWAP1 PUSH2 0x100 EXP SWAP1 DIV PUSH1 0xFF AND DUP2 JUMP JUMPDEST PUSH1 0x0 PUSH2 0xFD6 PUSH8 0x69B2F3A5E2528667 PUSH1 0xC0 SHL PUSH2 0x15FF JUMP JUMPDEST PUSH2 0xFEA PUSH8 0x72A006F61DACFB20 PUSH1 0xC0 SHL PUSH2 0x15FF JUMP JUMPDEST PUSH2 0xFFE PUSH8 0xC8DF36AFDE0D87B2 PUSH1 0xC0 SHL PUSH2 0x15FF JUMP JUMPDEST PUSH2 0x1006 PUSH2 0x1651 JUMP JUMPDEST SWAP1 POP SWAP1 JUMP JUMPDEST PUSH32 0x0 DUP2 JUMP JUMPDEST PUSH1 0x1 PUSH1 0x20 MSTORE DUP1 PUSH1 0x0 MSTORE PUSH1 0x40 PUSH1 0x0 KECCAK256 PUSH1 0x0 SWAP2 POP SWAP1 POP SLOAD DUP2 JUMP JUMPDEST PUSH1 0x4 PUSH1 0x14 SWAP1 SLOAD SWAP1 PUSH2 0x100 EXP SWAP1 DIV PUSH12 0xFFFFFFFFFFFFFFFFFFFFFFFF AND DUP2 JUMP JUMPDEST PUSH2 0x2710 DUP2 JUMP JUMPDEST PUSH2 0x108E PUSH2 0x1076 PUSH2 0x1651 JUMP JUMPDEST DUP3 PUSH2 0x107F PUSH2 0x169C JUMP JUMPDEST PUSH2 0x18A5 SWAP1 SWAP3 SWAP2 SWAP1 PUSH4 0xFFFFFFFF AND JUMP JUMPDEST POP JUMP JUMPDEST PUSH1 0x0 DUP1 PUSH1 0x1 PUSH32 0xCA9D3E17F264B0F3984E2634E94ADB37FA3E6A8103F06AEAE6FA59E21C769F5E PUSH1 0x0 SHR PUSH2 0x10C4 SWAP2 SWAP1 PUSH2 0x23EF JUMP JUMPDEST PUSH1 0x0 SHL SWAP1 POP DUP1 SWAP2 POP POP SWAP1 JUMP JUMPDEST PUSH1 0x0 PUSH4 0xFFFFFFFF PUSH1 0xE0 SHL PUSH28 0xFFFFFFFFFFFFFFFFFFFFFFFFFFFFFFFFFFFFFFFFFFFFFFFFFFFFFFFF NOT AND DUP3 PUSH28 0xFFFFFFFFFFFFFFFFFFFFFFFFFFFFFFFFFFFFFFFFFFFFFFFFFFFFFFFF NOT AND SUB PUSH2 0x1127 JUMPI PUSH1 0x0 SWAP1 POP PUSH2 0x11F9 JUMP JUMPDEST PUSH32 0x1FFC9A700000000000000000000000000000000000000000000000000000000 PUSH28 0xFFFFFFFFFFFFFFFFFFFFFFFFFFFFFFFFFFFFFFFFFFFFFFFFFFFFFFFF NOT AND DUP3 PUSH28 0xFFFFFFFFFFFFFFFFFFFFFFFFFFFFFFFFFFFFFFFFFFFFFFFFFFFFFFFF NOT AND SUB PUSH2 0x1195 JUMPI PUSH1 0x1 SWAP1 POP PUSH2 0x11F9 JUMP JUMPDEST DUP3 PUSH1 0x0 ADD PUSH1 0x0 DUP4 PUSH28 0xFFFFFFFFFFFFFFFFFFFFFFFFFFFFFFFFFFFFFFFFFFFFFFFFFFFFFFFF NOT AND PUSH28 0xFFFFFFFFFFFFFFFFFFFFFFFFFFFFFFFFFFFFFFFFFFFFFFFFFFFFFFFF NOT AND DUP2 MSTORE PUSH1 0x20 ADD SWAP1 DUP2 MSTORE PUSH1 0x20 ADD PUSH1 0x0 KECCAK256 PUSH1 0x0 SWAP1 SLOAD SWAP1 PUSH2 0x100 EXP SWAP1 DIV PUSH1 0xFF AND SWAP1 POP JUMPDEST SWAP3 SWAP2 POP POP JUMP JUMPDEST POP JUMP JUMPDEST PUSH1 0x0 PUSH2 0x1218 PUSH8 0xA7327F453AD50321 PUSH1 0xC0 SHL PUSH2 0x11FF JUMP JUMPDEST PUSH2 0x122C PUSH8 0x75C662761029A29 PUSH1 0xC0 SHL PUSH2 0x11FF JUMP JUMPDEST PUSH2 0x1240 PUSH8 0xBF28AB16E133C086 PUSH1 0xC0 SHL PUSH2 0x11FF JUMP JUMPDEST PUSH1 0x0 DUP6 SUB PUSH2 0x12AD JUMPI PUSH2 0x125C PUSH8 0x97603388AB818C28 PUSH1 0xC0 SHL PUSH2 0x11FF JUMP JUMPDEST PUSH2 0x1270 PUSH8 0x9FB27415628391D8 PUSH1 0xC0 SHL PUSH2 0x11FF JUMP JUMPDEST DUP5 PUSH1 0x40 MLOAD PUSH32 0x27AB1EE200000000000000000000000000000000000000000000000000000000 DUP2 MSTORE PUSH1 0x4 ADD PUSH2 0x12A4 SWAP2 SWAP1 PUSH2 0x226A JUMP JUMPDEST PUSH1 0x40 MLOAD DUP1 SWAP2 SUB SWAP1 REVERT JUMPDEST PUSH2 0x12C1 PUSH8 0xE04A91DAF0131D6B PUSH1 0xC0 SHL PUSH2 0x11FF JUMP JUMPDEST PUSH2 0x12D5 PUSH8 0xDEC24D517C734C96 PUSH1 0xC0 SHL PUSH2 0x11FF JUMP JUMPDEST PUSH2 0x12E9 PUSH8 0xD66B1D07ECAB5B33 PUSH1 0xC0 SHL PUSH2 0x11FF JUMP JUMPDEST PUSH2 0x12F9 PUSH2 0x12F4 PUSH2 0x1773 JUMP JUMPDEST PUSH2 0x1A15 JUMP JUMPDEST PUSH2 0x130D PUSH8 0xAC81A3BC0E1C4600 PUSH1 0xC0 SHL PUSH2 0x11FF JUMP JUMPDEST PUSH1 0x1 PUSH1 0x0 DUP6 DUP2 MSTORE PUSH1 0x20 ADD SWAP1 DUP2 MSTORE PUSH1 0x20 ADD PUSH1 0x0 KECCAK256 SLOAD SWAP1 POP PUSH2 0x1337 PUSH8 0xA83ABCC386F1AF51 PUSH1 0xC0 SHL PUSH2 0x11FF JUMP JUMPDEST PUSH2 0x134B PUSH8 0xF64CD1C6F7DDAF1C PUSH1 0xC0 SHL PUSH2 0x11FF JUMP JUMPDEST PUSH1 0x0 DUP1 SHL DUP2 SUB PUSH2 0x13BA JUMPI PUSH2 0x1369 PUSH8 0x4FD05AE2DE49F15F PUSH1 0xC0 SHL PUSH2 0x11FF JUMP JUMPDEST PUSH2 0x137D PUSH8 0x3C3AB8F20EB36F58 PUSH1 0xC0 SHL PUSH2 0x11FF JUMP JUMPDEST DUP4 PUSH1 0x40 MLOAD PUSH32 0xAB4A793900000000000000000000000000000000000000000000000000000000 DUP2 MSTORE PUSH1 0x4 ADD PUSH2 0x13B1 SWAP2 SWAP1 PUSH2 0x226A JUMP JUMPDEST PUSH1 0x40 MLOAD DUP1 SWAP2 SUB SWAP1 REVERT JUMPDEST PUSH2 0x13CE PUSH8 0x2824FFB85F095205 PUSH1 0xC0 SHL PUSH2 0x11FF JUMP JUMPDEST PUSH2 0x13E2 PUSH8 0xEFD8F9E092FF2BAC PUSH1 0xC0 SHL PUSH2 0x11FF JUMP JUMPDEST PUSH2 0x13F6 PUSH8 0x632EBA0C04B014F7 PUSH1 0xC0 SHL PUSH2 0x11FF JUMP JUMPDEST PUSH1 0x0 DUP7 DUP7 DUP7 PUSH1 0x40 MLOAD PUSH1 0x20 ADD PUSH2 0x140D SWAP4 SWAP3 SWAP2 SWAP1 PUSH2 0x2700 JUMP JUMPDEST PUSH1 0x40 MLOAD PUSH1 0x20 DUP2 DUP4 SUB SUB DUP2 MSTORE SWAP1 PUSH1 0x40 MSTORE DUP1 MLOAD SWAP1 PUSH1 0x20 ADD KECCAK256 SWAP1 POP PUSH2 0x1439 PUSH8 0x1E43010EE891C024 PUSH1 0xC0 SHL PUSH2 0x11FF JUMP JUMPDEST PUSH2 0x144D PUSH8 0x993C2E012C4CEF69 PUSH1 0xC0 SHL PUSH2 0x11FF JUMP JUMPDEST PUSH2 0x1469 DUP3 DUP3 DUP7 DUP7 PUSH2 0x1A61 SWAP2 SWAP1 SWAP4 SWAP3 SWAP2 SWAP1 SWAP4 SWAP3 SWAP2 SWAP1 PUSH4 0xFFFFFFFF AND JUMP JUMPDEST PUSH2 0x14D6 JUMPI PUSH2 0x1481 PUSH8 0x5AA8DC0B94B40E83 PUSH1 0xC0 SHL PUSH2 0x11FF JUMP JUMPDEST PUSH2 0x1495 PUSH8 0x92A4BF13CB61E1E7 PUSH1 0xC0 SHL PUSH2 0x11FF JUMP JUMPDEST DUP7 DUP7 DUP7 PUSH1 0x40 MLOAD PUSH32 0x3C6EE01B00000000000000000000000000000000000000000000000000000000 DUP2 MSTORE PUSH1 0x4 ADD PUSH2 0x14CD SWAP4 SWAP3 SWAP2 SWAP1 PUSH2 0x24EC JUMP JUMPDEST PUSH1 0x40 MLOAD DUP1 SWAP2 SUB SWAP1 REVERT JUMPDEST PUSH2 0x14EA PUSH8 0x781D0A12FC2B6FA2 PUSH1 0xC0 SHL PUSH2 0x11FF JUMP JUMPDEST PUSH2 0x14FE PUSH8 0xB0431C2E7F238662 PUSH1 0xC0 SHL PUSH2 0x11FF JUMP JUMPDEST PUSH2 0x1512 PUSH8 0x8BA5900C37248F9 PUSH1 0xC0 SHL PUSH2 0x11FF JUMP JUMPDEST PUSH1 0x3 PUSH1 0x0 DUP3 DUP2 MSTORE PUSH1 0x20 ADD SWAP1 DUP2 MSTORE PUSH1 0x20 ADD PUSH1 0x0 KECCAK256 PUSH1 0x0 SWAP1 SLOAD SWAP1 PUSH2 0x100 EXP SWAP1 DIV PUSH1 0xFF AND ISZERO PUSH2 0x15A1 JUMPI PUSH2 0x154C PUSH8 0x814B93850C5C56AD PUSH1 0xC0 SHL PUSH2 0x11FF JUMP JUMPDEST PUSH2 0x1560 PUSH8 0x73133859A92FF364 PUSH1 0xC0 SHL PUSH2 0x11FF JUMP JUMPDEST DUP7 DUP7 DUP7 PUSH1 0x40 MLOAD PUSH32 0x6508823200000000000000000000000000000000000000000000000000000000 DUP2 MSTORE PUSH1 0x4 ADD PUSH2 0x1598 SWAP4 SWAP3 SWAP2 SWAP1 PUSH2 0x24EC JUMP JUMPDEST PUSH1 0x40 MLOAD DUP1 SWAP2 SUB SWAP1 REVERT JUMPDEST PUSH2 0x15B5 PUSH8 0xAFC2D03B49A4484E PUSH1 0xC0 SHL PUSH2 0x11FF JUMP JUMPDEST PUSH2 0x15C9 PUSH8 0x43515CBAA4995DEB PUSH1 0xC0 SHL PUSH2 0x11FF JUMP JUMPDEST PUSH1 0x1 PUSH1 0x3 PUSH1 0x0 DUP4 DUP2 MSTORE PUSH1 0x20 ADD SWAP1 DUP2 MSTORE PUSH1 0x20 ADD PUSH1 0x0 KECCAK256 PUSH1 0x0 PUSH2 0x100 EXP DUP2 SLOAD DUP2 PUSH1 0xFF MUL NOT AND SWAP1 DUP4 ISZERO ISZERO MUL OR SWAP1 SSTORE POP POP SWAP6 SWAP5 POP POP POP POP POP JUMP JUMPDEST POP JUMP JUMPDEST CALLDATASIZE PUSH1 0x0 PUSH2 0x1619 PUSH8 0x46339F04270A88B5 PUSH1 0xC0 SHL PUSH2 0x11FF JUMP JUMPDEST PUSH2 0x162D PUSH8 0x205E4D60B354D132 PUSH1 0xC0 SHL PUSH2 0x11FF JUMP JUMPDEST PUSH2 0x1641 PUSH8 0xF09250E0D4737B1D PUSH1 0xC0 SHL PUSH2 0x11FF JUMP JUMPDEST PUSH2 0x1649 PUSH2 0x1A7A JUMP JUMPDEST SWAP2 POP SWAP2 POP SWAP1 SWAP2 JUMP JUMPDEST PUSH1 0x0 PUSH2 0x1667 PUSH8 0xBBD9C07B9847E90C PUSH1 0xC0 SHL PUSH2 0x11FF JUMP JUMPDEST PUSH2 0x167B PUSH8 0x4061A9D6377A14CB PUSH1 0xC0 SHL PUSH2 0x11FF JUMP JUMPDEST PUSH2 0x168F PUSH8 0xF0891DF5316503F2 PUSH1 0xC0 SHL PUSH2 0x11FF JUMP JUMPDEST PUSH2 0x1697 PUSH2 0x1BE9 JUMP JUMPDEST SWAP1 POP SWAP1 JUMP JUMPDEST PUSH1 0x0 DUP1 PUSH1 0x1 PUSH32 0xC9ED16F33AB3A66C84BFD83099CCB2A8845871E2E1C1928F63797152F0FD54CD PUSH1 0x0 SHR PUSH2 0x16CF SWAP2 SWAP1 PUSH2 0x23EF JUMP JUMPDEST PUSH1 0x0 SHL SWAP1 POP DUP1 SWAP2 POP POP SWAP1 JUMP JUMPDEST DUP2 PUSH1 0x0 ADD PUSH1 0x0 SWAP1 SLOAD SWAP1 PUSH2 0x100 EXP SWAP1 DIV PUSH20 0xFFFFFFFFFFFFFFFFFFFFFFFFFFFFFFFFFFFFFFFF AND PUSH20 0xFFFFFFFFFFFFFFFFFFFFFFFFFFFFFFFFFFFFFFFF AND DUP2 PUSH20 0xFFFFFFFFFFFFFFFFFFFFFFFFFFFFFFFFFFFFFFFF AND EQ PUSH2 0x176F JUMPI DUP1 PUSH1 0x40 MLOAD PUSH32 0x2EF4875E00000000000000000000000000000000000000000000000000000000 DUP2 MSTORE PUSH1 0x4 ADD PUSH2 0x1766 SWAP2 SWAP1 PUSH2 0x21B0 JUMP JUMPDEST PUSH1 0x40 MLOAD DUP1 SWAP2 SUB SWAP1 REVERT JUMPDEST POP POP JUMP JUMPDEST PUSH1 0x0 DUP1 PUSH1 0x1 PUSH32 0x186A05F63B1553398AD5EA3233C0CE68B8C9EECC47717F123C5C2B42FBD6D9F PUSH1 0x0 SHR PUSH2 0x17A6 SWAP2 SWAP1 PUSH2 0x23EF JUMP JUMPDEST PUSH1 0x0 SHL SWAP1 POP DUP1 SWAP2 POP POP SWAP1 JUMP JUMPDEST PUSH2 0x17BB DUP2 PUSH2 0x1D4C JUMP JUMPDEST PUSH1 0x0 DUP2 PUSH1 0x0 ADD PUSH1 0x0 PUSH2 0x100 EXP DUP2 SLOAD DUP2 PUSH1 0xFF MUL NOT AND SWAP1 DUP4 ISZERO ISZERO MUL OR SWAP1 SSTORE POP PUSH32 0x7805862F689E2F13DF9F062FF482AD3AD112ACA9E0847911ED832E158C525B33 PUSH1 0x40 MLOAD PUSH1 0x40 MLOAD DUP1 SWAP2 SUB SWAP1 LOG1 POP JUMP JUMPDEST PUSH1 0x0 DUP2 PUSH1 0x0 ADD PUSH1 0x0 SWAP1 SLOAD SWAP1 PUSH2 0x100 EXP SWAP1 DIV PUSH1 0xFF AND SWAP1 POP SWAP2 SWAP1 POP JUMP JUMPDEST PUSH2 0x182B DUP2 PUSH2 0x1A15 JUMP JUMPDEST PUSH1 0x1 DUP2 PUSH1 0x0 ADD PUSH1 0x0 PUSH2 0x100 EXP DUP2 SLOAD DUP2 PUSH1 0xFF MUL NOT AND SWAP1 DUP4 ISZERO ISZERO MUL OR SWAP1 SSTORE POP PUSH32 0x6985A02210A168E66602D3235CB6DB0E70F92B3BA4D376A33C0F3D9434BFF625 PUSH1 0x40 MLOAD PUSH1 0x40 MLOAD DUP1 SWAP2 SUB SWAP1 LOG1 POP JUMP JUMPDEST PUSH1 0x0 DUP2 PUSH1 0x0 ADD PUSH1 0x0 SWAP1 SLOAD SWAP1 PUSH2 0x100 EXP SWAP1 DIV PUSH20 0xFFFFFFFFFFFFFFFFFFFFFFFFFFFFFFFFFFFFFFFF AND SWAP1 POP SWAP2 SWAP1 POP JUMP JUMPDEST PUSH1 0x0 DUP4 PUSH1 0x0 ADD PUSH1 0x0 SWAP1 SLOAD SWAP1 PUSH2 0x100 EXP SWAP1 DIV PUSH20 0xFFFFFFFFFFFFFFFFFFFFFFFFFFFFFFFFFFFFFFFF AND SWAP1 POP DUP1 PUSH20 0xFFFFFFFFFFFFFFFFFFFFFFFFFFFFFFFFFFFFFFFF AND DUP4 PUSH20 0xFFFFFFFFFFFFFFFFFFFFFFFFFFFFFFFFFFFFFFFF AND EQ PUSH2 0x193E JUMPI DUP3 PUSH1 0x40 MLOAD PUSH32 0x2EF4875E00000000000000000000000000000000000000000000000000000000 DUP2 MSTORE PUSH1 0x4 ADD PUSH2 0x1935 SWAP2 SWAP1 PUSH2 0x21B0 JUMP JUMPDEST PUSH1 0x40 MLOAD DUP1 SWAP2 SUB SWAP1 REVERT JUMPDEST DUP2 PUSH20 0xFFFFFFFFFFFFFFFFFFFFFFFFFFFFFFFFFFFFFFFF AND DUP2 PUSH20 0xFFFFFFFFFFFFFFFFFFFFFFFFFFFFFFFFFFFFFFFF AND EQ PUSH2 0x1A0F JUMPI DUP2 DUP5 PUSH1 0x0 ADD PUSH1 0x0 PUSH2 0x100 EXP DUP2 SLOAD DUP2 PUSH20 0xFFFFFFFFFFFFFFFFFFFFFFFFFFFFFFFFFFFFFFFF MUL NOT AND SWAP1 DUP4 PUSH20 0xFFFFFFFFFFFFFFFFFFFFFFFFFFFFFFFFFFFFFFFF AND MUL OR SWAP1 SSTORE POP DUP2 PUSH20 0xFFFFFFFFFFFFFFFFFFFFFFFFFFFFFFFFFFFFFFFF AND DUP2 PUSH20 0xFFFFFFFFFFFFFFFFFFFFFFFFFFFFFFFFFFFFFFFF AND PUSH32 0x8BE0079C531659141344CD1FD0A4F28419497F9722A3DAAFE3B4186F6B6457E0 PUSH1 0x40 MLOAD PUSH1 0x40 MLOAD DUP1 SWAP2 SUB SWAP1 LOG3 JUMPDEST POP POP POP POP JUMP JUMPDEST DUP1 PUSH1 0x0 ADD PUSH1 0x0 SWAP1 SLOAD SWAP1 PUSH2 0x100 EXP SWAP1 DIV PUSH1 0xFF AND ISZERO PUSH2 0x1A5E JUMPI PUSH1 0x40 MLOAD PUSH32 0x9E87FAC800000000000000000000000000000000000000000000000000000000 DUP2 MSTORE PUSH1 0x4 ADD PUSH1 0x40 MLOAD DUP1 SWAP2 SUB SWAP1 REVERT JUMPDEST POP JUMP JUMPDEST PUSH1 0x0 DUP3 PUSH2 0x1A6F DUP7 DUP7 DUP6 PUSH2 0x1D97 JUMP JUMPDEST EQ SWAP1 POP SWAP5 SWAP4 POP POP POP POP JUMP JUMPDEST CALLDATASIZE PUSH1 0x0 ORIGIN PUSH20 0xFFFFFFFFFFFFFFFFFFFFFFFFFFFFFFFFFFFFFFFF AND CALLER PUSH20 0xFFFFFFFFFFFFFFFFFFFFFFFFFFFFFFFFFFFFFFFF AND EQ DUP1 PUSH2 0x1ABB JUMPI POP PUSH1 0x18 PUSH1 0x0 CALLDATASIZE SWAP1 POP LT JUMPDEST ISZERO PUSH2 0x1ACC JUMPI PUSH1 0x0 CALLDATASIZE SWAP2 POP SWAP2 POP PUSH2 0x1BE5 JUMP JUMPDEST PUSH32 0x0 PUSH20 0xFFFFFFFFFFFFFFFFFFFFFFFFFFFFFFFFFFFFFFFF AND CALLER PUSH20 0xFFFFFFFFFFFFFFFFFFFFFFFFFFFFFFFFFFFFFFFF AND EQ DUP1 PUSH2 0x1BC7 JUMPI POP PUSH32 0x0 PUSH20 0xFFFFFFFFFFFFFFFFFFFFFFFFFFFFFFFFFFFFFFFF AND PUSH4 0x19A2028 PUSH2 0x1B65 PUSH2 0x1DE9 JUMP JUMPDEST CALLER ADDRESS PUSH1 0x40 MLOAD DUP5 PUSH4 0xFFFFFFFF AND PUSH1 0xE0 SHL DUP2 MSTORE PUSH1 0x4 ADD PUSH2 0x1B85 SWAP4 SWAP3 SWAP2 SWAP1 PUSH2 0x273D JUMP JUMPDEST PUSH1 0x20 PUSH1 0x40 MLOAD DUP1 DUP4 SUB DUP2 DUP7 GAS STATICCALL ISZERO DUP1 ISZERO PUSH2 0x1BA2 JUMPI RETURNDATASIZE PUSH1 0x0 DUP1 RETURNDATACOPY RETURNDATASIZE PUSH1 0x0 REVERT JUMPDEST POP POP POP POP PUSH1 0x40 MLOAD RETURNDATASIZE PUSH1 0x1F NOT PUSH1 0x1F DUP3 ADD AND DUP3 ADD DUP1 PUSH1 0x40 MSTORE POP DUP2 ADD SWAP1 PUSH2 0x1BC6 SWAP2 SWAP1 PUSH2 0x24BF JUMP JUMPDEST JUMPDEST ISZERO PUSH2 0x1BDD JUMPI PUSH2 0x1BD4 PUSH2 0x1DF8 JUMP JUMPDEST SWAP2 POP SWAP2 POP PUSH2 0x1BE5 JUMP JUMPDEST PUSH1 0x0 CALLDATASIZE SWAP2 POP SWAP2 POP JUMPDEST SWAP1 SWAP2 JUMP JUMPDEST PUSH1 0x0 ORIGIN PUSH20 0xFFFFFFFFFFFFFFFFFFFFFFFFFFFFFFFFFFFFFFFF AND CALLER PUSH20 0xFFFFFFFFFFFFFFFFFFFFFFFFFFFFFFFFFFFFFFFF AND EQ DUP1 PUSH2 0x1C29 JUMPI POP PUSH1 0x18 PUSH1 0x0 CALLDATASIZE SWAP1 POP LT JUMPDEST ISZERO PUSH2 0x1C36 JUMPI CALLER SWAP1 POP PUSH2 0x1D49 JUMP JUMPDEST PUSH1 0x0 PUSH2 0x1C40 PUSH2 0x1DE9 JUMP JUMPDEST SWAP1 POP PUSH32 0x0 PUSH20 0xFFFFFFFFFFFFFFFFFFFFFFFFFFFFFFFFFFFFFFFF AND CALLER PUSH20 0xFFFFFFFFFFFFFFFFFFFFFFFFFFFFFFFFFFFFFFFF AND EQ DUP1 PUSH2 0x1D36 JUMPI POP PUSH32 0x0 PUSH20 0xFFFFFFFFFFFFFFFFFFFFFFFFFFFFFFFFFFFFFFFF AND PUSH4 0x19A2028 DUP3 CALLER ADDRESS PUSH1 0x40 MLOAD DUP5 PUSH4 0xFFFFFFFF AND PUSH1 0xE0 SHL DUP2 MSTORE PUSH1 0x4 ADD PUSH2 0x1CF4 SWAP4 SWAP3 SWAP2 SWAP1 PUSH2 0x273D JUMP JUMPDEST PUSH1 0x20 PUSH1 0x40 MLOAD DUP1 DUP4 SUB DUP2 DUP7 GAS STATICCALL ISZERO DUP1 ISZERO PUSH2 0x1D11 JUMPI RETURNDATASIZE PUSH1 0x0 DUP1 RETURNDATACOPY RETURNDATASIZE PUSH1 0x0 REVERT JUMPDEST POP POP POP POP PUSH1 0x40 MLOAD RETURNDATASIZE PUSH1 0x1F NOT PUSH1 0x1F DUP3 ADD AND DUP3 ADD DUP1 PUSH1 0x40 MSTORE POP DUP2 ADD SWAP1 PUSH2 0x1D35 SWAP2 SWAP1 PUSH2 0x24BF JUMP JUMPDEST JUMPDEST ISZERO PUSH2 0x1D44 JUMPI DUP1 SWAP2 POP POP PUSH2 0x1D49 JUMP JUMPDEST CALLER SWAP2 POP POP JUMPDEST SWAP1 JUMP JUMPDEST DUP1 PUSH1 0x0 ADD PUSH1 0x0 SWAP1 SLOAD SWAP1 PUSH2 0x100 EXP SWAP1 DIV PUSH1 0xFF AND PUSH2 0x1D94 JUMPI PUSH1 0x40 MLOAD PUSH32 0x6CD6020100000000000000000000000000000000000000000000000000000000 DUP2 MSTORE PUSH1 0x4 ADD PUSH1 0x40 MLOAD DUP1 SWAP2 SUB SWAP1 REVERT JUMPDEST POP JUMP JUMPDEST PUSH1 0x0 DUP1 DUP3 SWAP1 POP PUSH1 0x0 JUMPDEST DUP6 DUP6 SWAP1 POP DUP2 LT ISZERO PUSH2 0x1DDD JUMPI PUSH2 0x1DCE DUP3 DUP8 DUP8 DUP5 DUP2 DUP2 LT PUSH2 0x1DC2 JUMPI PUSH2 0x1DC1 PUSH2 0x2774 JUMP JUMPDEST JUMPDEST SWAP1 POP PUSH1 0x20 MUL ADD CALLDATALOAD PUSH2 0x1E1D JUMP JUMPDEST SWAP2 POP DUP1 DUP1 PUSH1 0x1 ADD SWAP2 POP POP PUSH2 0x1DA0 JUMP JUMPDEST POP DUP1 SWAP2 POP POP SWAP4 SWAP3 POP POP POP JUMP JUMPDEST PUSH1 0x0 PUSH1 0x14 CALLDATASIZE SUB CALLDATALOAD PUSH1 0x60 SHR SWAP1 POP SWAP1 JUMP JUMPDEST CALLDATASIZE PUSH1 0x0 DUP1 CALLDATASIZE PUSH1 0x0 SWAP1 PUSH1 0x14 PUSH1 0x0 CALLDATASIZE SWAP1 POP SUB SWAP3 PUSH2 0x1E15 SWAP4 SWAP3 SWAP2 SWAP1 PUSH2 0x27AD JUMP JUMPDEST SWAP2 POP SWAP2 POP SWAP1 SWAP2 JUMP JUMPDEST PUSH1 0x0 DUP2 DUP4 LT PUSH2 0x1E35 JUMPI PUSH2 0x1E30 DUP3 DUP5 PUSH2 0x1E48 JUMP JUMPDEST PUSH2 0x1E40 JUMP JUMPDEST PUSH2 0x1E3F DUP4 DUP4 PUSH2 0x1E48 JUMP JUMPDEST JUMPDEST SWAP1 POP SWAP3 SWAP2 POP POP JUMP JUMPDEST PUSH1 0x0 DUP3 PUSH1 0x0 MSTORE DUP2 PUSH1 0x20 MSTORE PUSH1 0x40 PUSH1 0x0 KECCAK256 SWAP1 POP SWAP3 SWAP2 POP POP JUMP JUMPDEST PUSH1 0x0 DUP1 REVERT JUMPDEST PUSH1 0x0 DUP1 REVERT JUMPDEST PUSH1 0x0 PUSH32 0xFFFFFFFF00000000000000000000000000000000000000000000000000000000 DUP3 AND SWAP1 POP SWAP2 SWAP1 POP JUMP JUMPDEST PUSH2 0x1E9E DUP2 PUSH2 0x1E69 JUMP JUMPDEST DUP2 EQ PUSH2 0x1EA9 JUMPI PUSH1 0x0 DUP1 REVERT JUMPDEST POP JUMP JUMPDEST PUSH1 0x0 DUP2 CALLDATALOAD SWAP1 POP PUSH2 0x1EBB DUP2 PUSH2 0x1E95 JUMP JUMPDEST SWAP3 SWAP2 POP POP JUMP JUMPDEST PUSH1 0x0 PUSH1 0x20 DUP3 DUP5 SUB SLT ISZERO PUSH2 0x1ED7 JUMPI PUSH2 0x1ED6 PUSH2 0x1E5F JUMP JUMPDEST JUMPDEST PUSH1 0x0 PUSH2 0x1EE5 DUP5 DUP3 DUP6 ADD PUSH2 0x1EAC JUMP JUMPDEST SWAP2 POP POP SWAP3 SWAP2 POP POP JUMP JUMPDEST PUSH1 0x0 DUP2 ISZERO ISZERO SWAP1 POP SWAP2 SWAP1 POP JUMP JUMPDEST PUSH2 0x1F03 DUP2 PUSH2 0x1EEE JUMP JUMPDEST DUP3 MSTORE POP POP JUMP JUMPDEST PUSH1 0x0 PUSH1 0x20 DUP3 ADD SWAP1 POP PUSH2 0x1F1E PUSH1 0x0 DUP4 ADD DUP5 PUSH2 0x1EFA JUMP JUMPDEST SWAP3 SWAP2 POP POP JUMP JUMPDEST PUSH1 0x0 PUSH20 0xFFFFFFFFFFFFFFFFFFFFFFFFFFFFFFFFFFFFFFFF DUP3 AND SWAP1 POP SWAP2 SWAP1 POP JUMP JUMPDEST PUSH1 0x0 PUSH2 0x1F4F DUP3 PUSH2 0x1F24 JUMP JUMPDEST SWAP1 POP SWAP2 SWAP1 POP JUMP JUMPDEST PUSH2 0x1F5F DUP2 PUSH2 0x1F44 JUMP JUMPDEST DUP2 EQ PUSH2 0x1F6A JUMPI PUSH1 0x0 DUP1 REVERT JUMPDEST POP JUMP JUMPDEST PUSH1 0x0 DUP2 CALLDATALOAD SWAP1 POP PUSH2 0x1F7C DUP2 PUSH2 0x1F56 JUMP JUMPDEST SWAP3 SWAP2 POP POP JUMP JUMPDEST PUSH1 0x0 DUP2 SWAP1 POP SWAP2 SWAP1 POP JUMP JUMPDEST PUSH2 0x1F95 DUP2 PUSH2 0x1F82 JUMP JUMPDEST DUP2 EQ PUSH2 0x1FA0 JUMPI PUSH1 0x0 DUP1 REVERT JUMPDEST POP JUMP JUMPDEST PUSH1 0x0 DUP2 CALLDATALOAD SWAP1 POP PUSH2 0x1FB2 DUP2 PUSH2 0x1F8C JUMP JUMPDEST SWAP3 SWAP2 POP POP JUMP JUMPDEST PUSH1 0x0 DUP1 REVERT JUMPDEST PUSH1 0x0 DUP1 REVERT JUMPDEST PUSH1 0x0 DUP1 REVERT JUMPDEST PUSH1 0x0 DUP1 DUP4 PUSH1 0x1F DUP5 ADD SLT PUSH2 0x1FDD JUMPI PUSH2 0x1FDC PUSH2 0x1FB8 JUMP JUMPDEST JUMPDEST DUP3 CALLDATALOAD SWAP1 POP PUSH8 0xFFFFFFFFFFFFFFFF DUP2 GT ISZERO PUSH2 0x1FFA JUMPI PUSH2 0x1FF9 PUSH2 0x1FBD JUMP JUMPDEST JUMPDEST PUSH1 0x20 DUP4 ADD SWAP2 POP DUP4 PUSH1 0x20 DUP3 MUL DUP4 ADD GT ISZERO PUSH2 0x2016 JUMPI PUSH2 0x2015 PUSH2 0x1FC2 JUMP JUMPDEST JUMPDEST SWAP3 POP SWAP3 SWAP1 POP JUMP JUMPDEST PUSH1 0x0 DUP1 PUSH1 0x0 DUP1 PUSH1 0x0 PUSH1 0x80 DUP7 DUP9 SUB SLT ISZERO PUSH2 0x2039 JUMPI PUSH2 0x2038 PUSH2 0x1E5F JUMP JUMPDEST JUMPDEST PUSH1 0x0 PUSH2 0x2047 DUP9 DUP3 DUP10 ADD PUSH2 0x1F6D JUMP JUMPDEST SWAP6 POP POP PUSH1 0x20 PUSH2 0x2058 DUP9 DUP3 DUP10 ADD PUSH2 0x1FA3 JUMP JUMPDEST SWAP5 POP POP PUSH1 0x40 PUSH2 0x2069 DUP9 DUP3 DUP10 ADD PUSH2 0x1FA3 JUMP JUMPDEST SWAP4 POP POP PUSH1 0x60 DUP7 ADD CALLDATALOAD PUSH8 0xFFFFFFFFFFFFFFFF DUP2 GT ISZERO PUSH2 0x208A JUMPI PUSH2 0x2089 PUSH2 0x1E64 JUMP JUMPDEST JUMPDEST PUSH2 0x2096 DUP9 DUP3 DUP10 ADD PUSH2 0x1FC7 JUMP JUMPDEST SWAP3 POP SWAP3 POP POP SWAP3 SWAP6 POP SWAP3 SWAP6 SWAP1 SWAP4 POP JUMP JUMPDEST PUSH1 0x0 DUP2 SWAP1 POP SWAP2 SWAP1 POP JUMP JUMPDEST PUSH1 0x0 PUSH2 0x20CA PUSH2 0x20C5 PUSH2 0x20C0 DUP5 PUSH2 0x1F24 JUMP JUMPDEST PUSH2 0x20A5 JUMP JUMPDEST PUSH2 0x1F24 JUMP JUMPDEST SWAP1 POP SWAP2 SWAP1 POP JUMP JUMPDEST PUSH1 0x0 PUSH2 0x20DC DUP3 PUSH2 0x20AF JUMP JUMPDEST SWAP1 POP SWAP2 SWAP1 POP JUMP JUMPDEST PUSH1 0x0 PUSH2 0x20EE DUP3 PUSH2 0x20D1 JUMP JUMPDEST SWAP1 POP SWAP2 SWAP1 POP JUMP JUMPDEST PUSH2 0x20FE DUP2 PUSH2 0x20E3 JUMP JUMPDEST DUP3 MSTORE POP POP JUMP JUMPDEST PUSH1 0x0 PUSH1 0x20 DUP3 ADD SWAP1 POP PUSH2 0x2119 PUSH1 0x0 DUP4 ADD DUP5 PUSH2 0x20F5 JUMP JUMPDEST SWAP3 SWAP2 POP POP JUMP JUMPDEST PUSH1 0x0 DUP3 DUP3 MSTORE PUSH1 0x20 DUP3 ADD SWAP1 POP SWAP3 SWAP2 POP POP JUMP JUMPDEST DUP3 DUP2 DUP4 CALLDATACOPY PUSH1 0x0 DUP4 DUP4 ADD MSTORE POP POP POP JUMP JUMPDEST PUSH1 0x0 PUSH1 0x1F NOT PUSH1 0x1F DUP4 ADD AND SWAP1 POP SWAP2 SWAP1 POP JUMP JUMPDEST PUSH1 0x0 PUSH2 0x215C DUP4 DUP6 PUSH2 0x211F JUMP JUMPDEST SWAP4 POP PUSH2 0x2169 DUP4 DUP6 DUP5 PUSH2 0x2130 JUMP JUMPDEST PUSH2 0x2172 DUP4 PUSH2 0x213F JUMP JUMPDEST DUP5 ADD SWAP1 POP SWAP4 SWAP3 POP POP POP JUMP JUMPDEST PUSH1 0x0 PUSH1 0x20 DUP3 ADD SWAP1 POP DUP2 DUP2 SUB PUSH1 0x0 DUP4 ADD MSTORE PUSH2 0x2198 DUP2 DUP5 DUP7 PUSH2 0x2150 JUMP JUMPDEST SWAP1 POP SWAP4 SWAP3 POP POP POP JUMP JUMPDEST PUSH2 0x21AA DUP2 PUSH2 0x1F44 JUMP JUMPDEST DUP3 MSTORE POP POP JUMP JUMPDEST PUSH1 0x0 PUSH1 0x20 DUP3 ADD SWAP1 POP PUSH2 0x21C5 PUSH1 0x0 DUP4 ADD DUP5 PUSH2 0x21A1 JUMP JUMPDEST SWAP3 SWAP2 POP POP JUMP JUMPDEST PUSH1 0x0 PUSH1 0x20 DUP3 DUP5 SUB SLT ISZERO PUSH2 0x21E1 JUMPI PUSH2 0x21E0 PUSH2 0x1E5F JUMP JUMPDEST JUMPDEST PUSH1 0x0 PUSH2 0x21EF DUP5 DUP3 DUP6 ADD PUSH2 0x1F6D JUMP JUMPDEST SWAP2 POP POP SWAP3 SWAP2 POP POP JUMP JUMPDEST PUSH1 0x0 DUP2 SWAP1 POP SWAP2 SWAP1 POP JUMP JUMPDEST PUSH2 0x220B DUP2 PUSH2 0x21F8 JUMP JUMPDEST DUP2 EQ PUSH2 0x2216 JUMPI PUSH1 0x0 DUP1 REVERT JUMPDEST POP JUMP JUMPDEST PUSH1 0x0 DUP2 CALLDATALOAD SWAP1 POP PUSH2 0x2228 DUP2 PUSH2 0x2202 JUMP JUMPDEST SWAP3 SWAP2 POP POP JUMP JUMPDEST PUSH1 0x0 PUSH1 0x20 DUP3 DUP5 SUB SLT ISZERO PUSH2 0x2244 JUMPI PUSH2 0x2243 PUSH2 0x1E5F JUMP JUMPDEST JUMPDEST PUSH1 0x0 PUSH2 0x2252 DUP5 DUP3 DUP6 ADD PUSH2 0x2219 JUMP JUMPDEST SWAP2 POP POP SWAP3 SWAP2 POP POP JUMP JUMPDEST PUSH2 0x2264 DUP2 PUSH2 0x1F82 JUMP JUMPDEST DUP3 MSTORE POP POP JUMP JUMPDEST PUSH1 0x0 PUSH1 0x20 DUP3 ADD SWAP1 POP PUSH2 0x227F PUSH1 0x0 DUP4 ADD DUP5 PUSH2 0x225B JUMP JUMPDEST SWAP3 SWAP2 POP POP JUMP JUMPDEST PUSH1 0x0 PUSH1 0x20 DUP3 DUP5 SUB SLT ISZERO PUSH2 0x229B JUMPI PUSH2 0x229A PUSH2 0x1E5F JUMP JUMPDEST JUMPDEST PUSH1 0x0 PUSH2 0x22A9 DUP5 DUP3 DUP6 ADD PUSH2 0x1FA3 JUMP JUMPDEST SWAP2 POP POP SWAP3 SWAP2 POP POP JUMP JUMPDEST PUSH2 0x22BB DUP2 PUSH2 0x21F8 JUMP JUMPDEST DUP3 MSTORE POP POP JUMP JUMPDEST PUSH1 0x0 PUSH1 0x20 DUP3 ADD SWAP1 POP PUSH2 0x22D6 PUSH1 0x0 DUP4 ADD DUP5 PUSH2 0x22B2 JUMP JUMPDEST SWAP3 SWAP2 POP POP JUMP JUMPDEST PUSH1 0x0 PUSH12 0xFFFFFFFFFFFFFFFFFFFFFFFF DUP3 AND SWAP1 POP SWAP2 SWAP1 POP JUMP JUMPDEST PUSH2 0x22FD DUP2 PUSH2 0x22DC JUMP JUMPDEST DUP3 MSTORE POP POP JUMP JUMPDEST PUSH1 0x0 PUSH1 0x20 DUP3 ADD SWAP1 POP PUSH2 0x2318 PUSH1 0x0 DUP4 ADD DUP5 PUSH2 0x22F4 JUMP JUMPDEST SWAP3 SWAP2 POP POP JUMP JUMPDEST PUSH32 0x4E487B7100000000000000000000000000000000000000000000000000000000 PUSH1 0x0 MSTORE PUSH1 0x11 PUSH1 0x4 MSTORE PUSH1 0x24 PUSH1 0x0 REVERT JUMPDEST PUSH1 0x0 PUSH2 0x2358 DUP3 PUSH2 0x1F82 JUMP JUMPDEST SWAP2 POP PUSH2 0x2363 DUP4 PUSH2 0x1F82 JUMP JUMPDEST SWAP3 POP DUP3 DUP3 MUL PUSH2 0x2371 DUP2 PUSH2 0x1F82 JUMP JUMPDEST SWAP2 POP DUP3 DUP3 DIV DUP5 EQ DUP4 ISZERO OR PUSH2 0x2388 JUMPI PUSH2 0x2387 PUSH2 0x231E JUMP JUMPDEST JUMPDEST POP SWAP3 SWAP2 POP POP JUMP JUMPDEST PUSH32 0x4E487B7100000000000000000000000000000000000000000000000000000000 PUSH1 0x0 MSTORE PUSH1 0x12 PUSH1 0x4 MSTORE PUSH1 0x24 PUSH1 0x0 REVERT JUMPDEST PUSH1 0x0 PUSH2 0x23C9 DUP3 PUSH2 0x1F82 JUMP JUMPDEST SWAP2 POP PUSH2 0x23D4 DUP4 PUSH2 0x1F82 JUMP JUMPDEST SWAP3 POP DUP3 PUSH2 0x23E4 JUMPI PUSH2 0x23E3 PUSH2 0x238F JUMP JUMPDEST JUMPDEST DUP3 DUP3 DIV SWAP1 POP SWAP3 SWAP2 POP POP JUMP JUMPDEST PUSH1 0x0 PUSH2 0x23FA DUP3 PUSH2 0x1F82 JUMP JUMPDEST SWAP2 POP PUSH2 0x2405 DUP4 PUSH2 0x1F82 JUMP JUMPDEST SWAP3 POP DUP3 DUP3 SUB SWAP1 POP DUP2 DUP2 GT ISZERO PUSH2 0x241D JUMPI PUSH2 0x241C PUSH2 0x231E JUMP JUMPDEST JUMPDEST SWAP3 SWAP2 POP POP JUMP JUMPDEST POP JUMP JUMPDEST PUSH1 0x0 PUSH2 0x2433 PUSH1 0x0 DUP4 PUSH2 0x211F JUMP JUMPDEST SWAP2 POP PUSH2 0x243E DUP3 PUSH2 0x2423 JUMP JUMPDEST PUSH1 0x0 DUP3 ADD SWAP1 POP SWAP2 SWAP1 POP JUMP JUMPDEST PUSH1 0x0 PUSH1 0x80 DUP3 ADD SWAP1 POP PUSH2 0x245E PUSH1 0x0 DUP4 ADD DUP7 PUSH2 0x21A1 JUMP JUMPDEST PUSH2 0x246B PUSH1 0x20 DUP4 ADD DUP6 PUSH2 0x21A1 JUMP JUMPDEST PUSH2 0x2478 PUSH1 0x40 DUP4 ADD DUP5 PUSH2 0x225B JUMP JUMPDEST DUP2 DUP2 SUB PUSH1 0x60 DUP4 ADD MSTORE PUSH2 0x2489 DUP2 PUSH2 0x2426 JUMP JUMPDEST SWAP1 POP SWAP5 SWAP4 POP POP POP POP JUMP JUMPDEST PUSH2 0x249C DUP2 PUSH2 0x1EEE JUMP JUMPDEST DUP2 EQ PUSH2 0x24A7 JUMPI PUSH1 0x0 DUP1 REVERT JUMPDEST POP JUMP JUMPDEST PUSH1 0x0 DUP2 MLOAD SWAP1 POP PUSH2 0x24B9 DUP2 PUSH2 0x2493 JUMP JUMPDEST SWAP3 SWAP2 POP POP JUMP JUMPDEST PUSH1 0x0 PUSH1 0x20 DUP3 DUP5 SUB SLT ISZERO PUSH2 0x24D5 JUMPI PUSH2 0x24D4 PUSH2 0x1E5F JUMP JUMPDEST JUMPDEST PUSH1 0x0 PUSH2 0x24E3 DUP5 DUP3 DUP6 ADD PUSH2 0x24AA JUMP JUMPDEST SWAP2 POP POP SWAP3 SWAP2 POP POP JUMP JUMPDEST PUSH1 0x0 PUSH1 0x60 DUP3 ADD SWAP1 POP PUSH2 0x2501 PUSH1 0x0 DUP4 ADD DUP7 PUSH2 0x21A1 JUMP JUMPDEST PUSH2 0x250E PUSH1 0x20 DUP4 ADD DUP6 PUSH2 0x225B JUMP JUMPDEST PUSH2 0x251B PUSH1 0x40 DUP4 ADD DUP5 PUSH2 0x225B JUMP JUMPDEST SWAP5 SWAP4 POP POP POP POP JUMP JUMPDEST PUSH1 0x0 DUP2 MLOAD SWAP1 POP SWAP2 SWAP1 POP JUMP JUMPDEST PUSH1 0x0 JUMPDEST DUP4 DUP2 LT ISZERO PUSH2 0x254C JUMPI DUP1 DUP3 ADD MLOAD DUP2 DUP5 ADD MSTORE PUSH1 0x20 DUP2 ADD SWAP1 POP PUSH2 0x2531 JUMP JUMPDEST PUSH1 0x0 DUP5 DUP5 ADD MSTORE POP POP POP POP JUMP JUMPDEST PUSH1 0x0 PUSH2 0x2563 DUP3 PUSH2 0x2523 JUMP JUMPDEST PUSH2 0x256D DUP2 DUP6 PUSH2 0x211F JUMP JUMPDEST SWAP4 POP PUSH2 0x257D DUP2 DUP6 PUSH1 0x20 DUP7 ADD PUSH2 0x252E JUMP JUMPDEST PUSH2 0x2586 DUP2 PUSH2 0x213F JUMP JUMPDEST DUP5 ADD SWAP2 POP POP SWAP3 SWAP2 POP POP JUMP JUMPDEST PUSH1 0x0 PUSH1 0x80 DUP3 ADD SWAP1 POP PUSH2 0x25A6 PUSH1 0x0 DUP4 ADD DUP8 PUSH2 0x21A1 JUMP JUMPDEST PUSH2 0x25B3 PUSH1 0x20 DUP4 ADD DUP7 PUSH2 0x21A1 JUMP JUMPDEST PUSH2 0x25C0 PUSH1 0x40 DUP4 ADD DUP6 PUSH2 0x225B JUMP JUMPDEST DUP2 DUP2 SUB PUSH1 0x60 DUP4 ADD MSTORE PUSH2 0x25D2 DUP2 DUP5 PUSH2 0x2558 JUMP JUMPDEST SWAP1 POP SWAP6 SWAP5 POP POP POP POP POP JUMP JUMPDEST PUSH1 0x0 DUP2 SWAP1 POP SWAP2 SWAP1 POP JUMP JUMPDEST PUSH1 0x0 PUSH2 0x2602 PUSH2 0x25FD PUSH2 0x25F8 DUP5 PUSH2 0x25DD JUMP JUMPDEST PUSH2 0x20A5 JUMP JUMPDEST PUSH2 0x1F82 JUMP JUMPDEST SWAP1 POP SWAP2 SWAP1 POP JUMP JUMPDEST PUSH2 0x2612 DUP2 PUSH2 0x25E7 JUMP JUMPDEST DUP3 MSTORE POP POP JUMP JUMPDEST PUSH1 0x0 PUSH1 0x60 DUP3 ADD SWAP1 POP PUSH2 0x262D PUSH1 0x0 DUP4 ADD DUP7 PUSH2 0x21A1 JUMP JUMPDEST PUSH2 0x263A PUSH1 0x20 DUP4 ADD DUP6 PUSH2 0x225B JUMP JUMPDEST PUSH2 0x2647 PUSH1 0x40 DUP4 ADD DUP5 PUSH2 0x2609 JUMP JUMPDEST SWAP5 SWAP4 POP POP POP POP JUMP JUMPDEST PUSH1 0x0 PUSH2 0x265A DUP3 PUSH2 0x1F82 JUMP JUMPDEST SWAP2 POP PUSH32 0xFFFFFFFFFFFFFFFFFFFFFFFFFFFFFFFFFFFFFFFFFFFFFFFFFFFFFFFFFFFFFFFF DUP3 SUB PUSH2 0x268C JUMPI PUSH2 0x268B PUSH2 0x231E JUMP JUMPDEST JUMPDEST PUSH1 0x1 DUP3 ADD SWAP1 POP SWAP2 SWAP1 POP JUMP JUMPDEST PUSH1 0x0 DUP2 PUSH1 0x60 SHL SWAP1 POP SWAP2 SWAP1 POP JUMP JUMPDEST PUSH1 0x0 PUSH2 0x26AF DUP3 PUSH2 0x2697 JUMP JUMPDEST SWAP1 POP SWAP2 SWAP1 POP JUMP JUMPDEST PUSH1 0x0 PUSH2 0x26C1 DUP3 PUSH2 0x26A4 JUMP JUMPDEST SWAP1 POP SWAP2 SWAP1 POP JUMP JUMPDEST PUSH2 0x26D9 PUSH2 0x26D4 DUP3 PUSH2 0x1F44 JUMP JUMPDEST PUSH2 0x26B6 JUMP JUMPDEST DUP3 MSTORE POP POP JUMP JUMPDEST PUSH1 0x0 DUP2 SWAP1 POP SWAP2 SWAP1 POP JUMP JUMPDEST PUSH2 0x26FA PUSH2 0x26F5 DUP3 PUSH2 0x1F82 JUMP JUMPDEST PUSH2 0x26DF JUMP JUMPDEST DUP3 MSTORE POP POP JUMP JUMPDEST PUSH1 0x0 PUSH2 0x270C DUP3 DUP7 PUSH2 0x26C8 JUMP JUMPDEST PUSH1 0x14 DUP3 ADD SWAP2 POP PUSH2 0x271C DUP3 DUP6 PUSH2 0x26E9 JUMP JUMPDEST PUSH1 0x20 DUP3 ADD SWAP2 POP PUSH2 0x272C DUP3 DUP5 PUSH2 0x26E9 JUMP JUMPDEST PUSH1 0x20 DUP3 ADD SWAP2 POP DUP2 SWAP1 POP SWAP5 SWAP4 POP POP POP POP JUMP JUMPDEST PUSH1 0x0 PUSH1 0x60 DUP3 ADD SWAP1 POP PUSH2 0x2752 PUSH1 0x0 DUP4 ADD DUP7 PUSH2 0x21A1 JUMP JUMPDEST PUSH2 0x275F PUSH1 0x20 DUP4 ADD DUP6 PUSH2 0x21A1 JUMP JUMPDEST PUSH2 0x276C PUSH1 0x40 DUP4 ADD DUP5 PUSH2 0x21A1 JUMP JUMPDEST SWAP5 SWAP4 POP POP POP POP JUMP JUMPDEST PUSH32 0x4E487B7100000000000000000000000000000000000000000000000000000000 PUSH1 0x0 MSTORE PUSH1 0x32 PUSH1 0x4 MSTORE PUSH1 0x24 PUSH1 0x0 REVERT JUMPDEST PUSH1 0x0 DUP1 REVERT JUMPDEST PUSH1 0x0 DUP1 REVERT JUMPDEST PUSH1 0x0 DUP1 DUP6 DUP6 GT ISZERO PUSH2 0x27C1 JUMPI PUSH2 0x27C0 PUSH2 0x27A3 JUMP JUMPDEST JUMPDEST DUP4 DUP7 GT ISZERO PUSH2 0x27D2 JUMPI PUSH2 0x27D1 PUSH2 0x27A8 JUMP JUMPDEST JUMPDEST PUSH1 0x1 DUP6 MUL DUP4 ADD SWAP2 POP DUP5 DUP7 SUB SWAP1 POP SWAP5 POP SWAP5 SWAP3 POP POP POP JUMP INVALID LOG2 PUSH5 0x6970667358 0x22 SLT KECCAK256 0x1F CREATE2 0x23 0xE1 0xD3 0xBC 0x2E 0x4F SMOD SWAP11 PC 0xA8 STATICCALL PUSH2 0x9DA EQ 0xA8 0xCF EQ DUP3 GAS INVALID 0xB2 0xE9 0xB0 0x22 0xE2 0xB8 CALLDATACOPY PUSH12 0x5064736F6C634300081C0033 "},"gasEstimates":{"creation":{"codeDepositCost":"2054000","executionCost":"infinite","totalCost":"infinite"},"external":{"FEE_PRECISION()":"395","REWARD_CONTRACT()":"infinite","STAKING_CONTRACT()":"infinite","__msgData()":"infinite","__msgSender()":"infinite","claimPayout(address,uint256,uint256,bytes32[])":"infinite","claimPayoutAndStake(address,uint256,uint256,bytes32[])":"infinite","claimed(bytes32)":"2885","fee()":"2565","forwarderRegistry()":"infinite","isTrustedForwarder(address)":"infinite","nonce()":"2496","owner()":"infinite","pause()":"infinite","paused()":"infinite","payoutWallet()":"2582","rootMap(uint256)":"2854","setMerkleRoot(bytes32)":"infinite","setPayoutWallet(address)":"infinite","setTreasuryWallet(address)":"infinite","supportsInterface(bytes4)":"infinite","transferOwnership(address)":"infinite","treasuryWallet()":"2560","unpause()":"infinite"},"internal":{"c_98394dd1(bytes8)":"11","c_false98394dd1(bytes8)":"infinite","c_true98394dd1(bytes8)":"infinite"}},"methodIdentifiers":{"FEE_PRECISION()":"e63a391f","REWARD_CONTRACT()":"3a5af339","STAKING_CONTRACT()":"da19ddfb","__msgData()":"31e66e1e","__msgSender()":"d1a91ff2","claimPayout(address,uint256,uint256,bytes32[])":"21c3df25","claimPayoutAndStake(address,uint256,uint256,bytes32[])":"6ed31d09","claimed(bytes32)":"cc3c0f06","fee()":"ddca3f43","forwarderRegistry()":"2b4c9f16","isTrustedForwarder(address)":"572b6c05","nonce()":"affed0e0","owner()":"8da5cb5b","pause()":"8456cb59","paused()":"5c975abb","payoutWallet()":"8488bb4e","rootMap(uint256)":"db200205","setMerkleRoot(bytes32)":"7cb64759","setPayoutWallet(address)":"6b8f9c43","setTreasuryWallet(address)":"a8602fea","supportsInterface(bytes4)":"01ffc9a7","transferOwnership(address)":"f2fde38b","treasuryWallet()":"4626402b","unpause()":"3f4ba83a"}},"storageLayout":{"storage":[{"astId":4586,"contract":"contracts/mocks/merkleClaim/ERC20MerkleClaimMock.sol:ERC20MerkleClaimMock","label":"nonce","offset":0,"slot":"0","type":"t_uint256"},{"astId":4591,"contract":"contracts/mocks/merkleClaim/ERC20MerkleClaimMock.sol:ERC20MerkleClaimMock","label":"rootMap","offset":0,"slot":"1","type":"t_mapping(t_uint256,t_bytes32)"},{"astId":4594,"contract":"contracts/mocks/merkleClaim/ERC20MerkleClaimMock.sol:ERC20MerkleClaimMock","label":"payoutWallet","offset":0,"slot":"2","type":"t_address"},{"astId":4599,"contract":"contracts/mocks/merkleClaim/ERC20MerkleClaimMock.sol:ERC20MerkleClaimMock","label":"claimed","offset":0,"slot":"3","type":"t_mapping(t_bytes32,t_bool)"},{"astId":4602,"contract":"contracts/mocks/merkleClaim/ERC20MerkleClaimMock.sol:ERC20MerkleClaimMock","label":"treasuryWallet","offset":0,"slot":"4","type":"t_address"},{"astId":4605,"contract":"contracts/mocks/merkleClaim/ERC20MerkleClaimMock.sol:ERC20MerkleClaimMock","label":"fee","offset":20,"slot":"4","type":"t_uint96"}],"types":{"t_address":{"encoding":"inplace","label":"address","numberOfBytes":"20"},"t_bool":{"encoding":"inplace","label":"bool","numberOfBytes":"1"},"t_bytes32":{"encoding":"inplace","label":"bytes32","numberOfBytes":"32"},"t_mapping(t_bytes32,t_bool)":{"encoding":"mapping","key":"t_bytes32","label":"mapping(bytes32 => bool)","numberOfBytes":"32","value":"t_bool"},"t_mapping(t_uint256,t_bytes32)":{"encoding":"mapping","key":"t_uint256","label":"mapping(uint256 => bytes32)","numberOfBytes":"32","value":"t_bytes32"},"t_uint256":{"encoding":"inplace","label":"uint256","numberOfBytes":"32"},"t_uint96":{"encoding":"inplace","label":"uint96","numberOfBytes":"12"}}},"userdoc":{"errors":{"AlreadyClaimed(address,uint256,uint256)":[{"notice":"Thrown when trying to claim the same leaf more than once."}],"IllegalInterfaceId()":[{"notice":"Thrown when setting the illegal interfaceId 0xffffffff."}],"InvalidClaimAmount(uint256)":[{"notice":"Throws when the claim amount is zero."}],"InvalidFee()":[{"notice":"Thrown when the given fee is bigger than precision."}],"InvalidForwarderRegistry()":[{"notice":"Thrown when the given forwarder registry address is zero address."}],"InvalidPayoutWallet()":[{"notice":"Thrown when the given payout wallet address is zero address."}],"InvalidProof(address,uint256,uint256)":[{"notice":"Thrown when a proof cannot be verified."}],"InvalidRewardContract(address)":[{"notice":"Thrown when the reward contract address is invalid."}],"InvalidStakingContract(address)":[{"notice":"Thrown when the staking contract address is invalid."}],"InvalidTreasuryWallet()":[{"notice":"Thrown when the given treasury wallet address is zero address."}],"MerkleRootNotExists(uint256)":[{"notice":"Throws when the merkle root does not exist."}],"NotContractOwner(address)":[{"notice":"Thrown when an account is not the contract owner but is required to."}],"NotPaused()":[{"notice":"Thrown when the contract is not paused but is required to."}],"Paused()":[{"notice":"Thrown when the contract is paused but is required not to."}]},"events":{"MerkleRootSet(uint256,bytes32)":{"notice":"Emitted when a new merkle root is set."},"OwnershipTransferred(address,address)":{"notice":"Emitted when the contract ownership changes."},"Pause()":{"notice":"Emitted when the pause is triggered."},"PayoutClaimed(uint256,bytes32,address,address,uint256,uint256)":{"notice":"Emitted when a payout is claimed."},"PayoutWalletSet(address)":{"notice":"Emitted when a new payout wallet is set."},"TreasuryWalletSet(address)":{"notice":"Emitted when a new treasury wallet is set."},"Unpause()":{"notice":"Emitted when the pause is lifted."}},"kind":"user","methods":{"FEE_PRECISION()":{"notice":"Fee precision"},"REWARD_CONTRACT()":{"notice":"a reference to reward token contract"},"STAKING_CONTRACT()":{"notice":"a reference to staking contract"},"__msgData()":{"notice":"Internal function to access the current msg.data."},"__msgSender()":{"notice":"Internal function to access the current msg.sender."},"claimPayoutAndStake(address,uint256,uint256,bytes32[])":{"notice":"Executes the payout for a given recipient address (anyone can call this function)."},"claimed(bytes32)":{"notice":"leaf hash to claimed state"},"fee()":{"notice":"Store the fee percentage"},"isTrustedForwarder(address)":{"notice":"Checks whether a forwarder is trusted."},"nonce()":{"notice":"Store the nonce"},"owner()":{"notice":"Gets the address of the contract owner."},"pause()":{"notice":"Pauses the contract."},"paused()":{"notice":"Gets the paused state of the contract."},"payoutWallet()":{"notice":"Store the payout wallet address for transfering reward token"},"rootMap(uint256)":{"notice":"Store the merkle roots for claiming"},"setMerkleRoot(bytes32)":{"notice":"Sets the new merkle root for claiming."},"setPayoutWallet(address)":{"notice":"Sets the new payout wallet."},"setTreasuryWallet(address)":{"notice":"Sets the new treasury wallet."},"supportsInterface(bytes4)":{"notice":"Returns whether this contract implements a given interface."},"transferOwnership(address)":{"notice":"Sets the address of the new contract owner."},"treasuryWallet()":{"notice":"Store the treasury wallet address for fee"},"unpause()":{"notice":"Unpauses the contract."}},"version":1}}}}