{"contracts/merkleClaim/ERC20MerkleClaim.sol":{"ERC20MerkleClaim":{"abi":[{"inputs":[{"internalType":"address","name":"rewardContract_","type":"address"},{"internalType":"address","name":"stakingContract_","type":"address"},{"internalType":"address","name":"payoutWallet_","type":"address"},{"internalType":"address","name":"treasuryWallet_","type":"address"},{"internalType":"uint96","name":"fee_","type":"uint96"},{"internalType":"contract IForwarderRegistry","name":"forwarderRegistry_","type":"address"}],"stateMutability":"nonpayable","type":"constructor"},{"inputs":[{"internalType":"address","name":"recipient","type":"address"},{"internalType":"uint256","name":"amount","type":"uint256"},{"internalType":"uint256","name":"nonce","type":"uint256"}],"name":"AlreadyClaimed","type":"error"},{"inputs":[],"name":"IllegalInterfaceId","type":"error"},{"inputs":[{"internalType":"uint256","name":"amount","type":"uint256"}],"name":"InvalidClaimAmount","type":"error"},{"inputs":[],"name":"InvalidFee","type":"error"},{"inputs":[],"name":"InvalidForwarderRegistry","type":"error"},{"inputs":[],"name":"InvalidPayoutWallet","type":"error"},{"inputs":[{"internalType":"address","name":"recipient","type":"address"},{"internalType":"uint256","name":"amount","type":"uint256"},{"internalType":"uint256","name":"nonce","type":"uint256"}],"name":"InvalidProof","type":"error"},{"inputs":[{"internalType":"address","name":"rewardContract","type":"address"}],"name":"InvalidRewardContract","type":"error"},{"inputs":[{"internalType":"address","name":"stakingContract","type":"address"}],"name":"InvalidStakingContract","type":"error"},{"inputs":[],"name":"InvalidTreasuryWallet","type":"error"},{"inputs":[{"internalType":"uint256","name":"nonce","type":"uint256"}],"name":"MerkleRootNotExists","type":"error"},{"inputs":[{"internalType":"address","name":"account","type":"address"}],"name":"NotContractOwner","type":"error"},{"inputs":[],"name":"NotPaused","type":"error"},{"inputs":[],"name":"Paused","type":"error"},{"anonymous":false,"inputs":[{"indexed":true,"internalType":"uint256","name":"nonce","type":"uint256"},{"indexed":true,"internalType":"bytes32","name":"root","type":"bytes32"}],"name":"MerkleRootSet","type":"event"},{"anonymous":false,"inputs":[{"indexed":true,"internalType":"address","name":"previousOwner","type":"address"},{"indexed":true,"internalType":"address","name":"newOwner","type":"address"}],"name":"OwnershipTransferred","type":"event"},{"anonymous":false,"inputs":[],"name":"Pause","type":"event"},{"anonymous":false,"inputs":[{"indexed":true,"internalType":"uint256","name":"nonce","type":"uint256"},{"indexed":true,"internalType":"bytes32","name":"root","type":"bytes32"},{"indexed":true,"internalType":"address","name":"recipient","type":"address"},{"indexed":false,"internalType":"address","name":"payoutWallet","type":"address"},{"indexed":false,"internalType":"uint256","name":"netClaimedAmount","type":"uint256"},{"indexed":false,"internalType":"uint256","name":"feeAmount","type":"uint256"}],"name":"PayoutClaimed","type":"event"},{"anonymous":false,"inputs":[{"indexed":true,"internalType":"address","name":"newPayoutWallet","type":"address"}],"name":"PayoutWalletSet","type":"event"},{"anonymous":false,"inputs":[{"indexed":true,"internalType":"address","name":"newTreasuryWallet","type":"address"}],"name":"TreasuryWalletSet","type":"event"},{"anonymous":false,"inputs":[],"name":"Unpause","type":"event"},{"inputs":[],"name":"FEE_PRECISION","outputs":[{"internalType":"uint256","name":"","type":"uint256"}],"stateMutability":"view","type":"function"},{"inputs":[],"name":"REWARD_CONTRACT","outputs":[{"internalType":"address","name":"","type":"address"}],"stateMutability":"view","type":"function"},{"inputs":[],"name":"STAKING_CONTRACT","outputs":[{"internalType":"address","name":"","type":"address"}],"stateMutability":"view","type":"function"},{"inputs":[{"internalType":"address","name":"recipient","type":"address"},{"internalType":"uint256","name":"amount","type":"uint256"},{"internalType":"uint256","name":"nonce_","type":"uint256"},{"internalType":"bytes32[]","name":"proof","type":"bytes32[]"}],"name":"claimPayout","outputs":[],"stateMutability":"nonpayable","type":"function"},{"inputs":[{"internalType":"address","name":"recipient","type":"address"},{"internalType":"uint256","name":"amount","type":"uint256"},{"internalType":"uint256","name":"nonce_","type":"uint256"},{"internalType":"bytes32[]","name":"proof","type":"bytes32[]"}],"name":"claimPayoutAndStake","outputs":[],"stateMutability":"nonpayable","type":"function"},{"inputs":[{"internalType":"bytes32","name":"","type":"bytes32"}],"name":"claimed","outputs":[{"internalType":"bool","name":"","type":"bool"}],"stateMutability":"view","type":"function"},{"inputs":[],"name":"fee","outputs":[{"internalType":"uint96","name":"","type":"uint96"}],"stateMutability":"view","type":"function"},{"inputs":[],"name":"forwarderRegistry","outputs":[{"internalType":"contract IForwarderRegistry","name":"","type":"address"}],"stateMutability":"view","type":"function"},{"inputs":[{"internalType":"address","name":"forwarder","type":"address"}],"name":"isTrustedForwarder","outputs":[{"internalType":"bool","name":"","type":"bool"}],"stateMutability":"view","type":"function"},{"inputs":[],"name":"nonce","outputs":[{"internalType":"uint256","name":"","type":"uint256"}],"stateMutability":"view","type":"function"},{"inputs":[],"name":"owner","outputs":[{"internalType":"address","name":"","type":"address"}],"stateMutability":"view","type":"function"},{"inputs":[],"name":"pause","outputs":[],"stateMutability":"nonpayable","type":"function"},{"inputs":[],"name":"paused","outputs":[{"internalType":"bool","name":"","type":"bool"}],"stateMutability":"view","type":"function"},{"inputs":[],"name":"payoutWallet","outputs":[{"internalType":"address","name":"","type":"address"}],"stateMutability":"view","type":"function"},{"inputs":[{"internalType":"uint256","name":"nonce","type":"uint256"}],"name":"rootMap","outputs":[{"internalType":"bytes32","name":"root","type":"bytes32"}],"stateMutability":"view","type":"function"},{"inputs":[{"internalType":"bytes32","name":"merkleRoot","type":"bytes32"}],"name":"setMerkleRoot","outputs":[],"stateMutability":"nonpayable","type":"function"},{"inputs":[{"internalType":"address","name":"newPayoutWallet","type":"address"}],"name":"setPayoutWallet","outputs":[],"stateMutability":"nonpayable","type":"function"},{"inputs":[{"internalType":"address","name":"newTreasuryWallet","type":"address"}],"name":"setTreasuryWallet","outputs":[],"stateMutability":"nonpayable","type":"function"},{"inputs":[{"internalType":"bytes4","name":"interfaceId","type":"bytes4"}],"name":"supportsInterface","outputs":[{"internalType":"bool","name":"","type":"bool"}],"stateMutability":"view","type":"function"},{"inputs":[{"internalType":"address","name":"newOwner","type":"address"}],"name":"transferOwnership","outputs":[],"stateMutability":"nonpayable","type":"function"},{"inputs":[],"name":"treasuryWallet","outputs":[{"internalType":"address","name":"","type":"address"}],"stateMutability":"view","type":"function"},{"inputs":[],"name":"unpause","outputs":[],"stateMutability":"nonpayable","type":"function"}],"devdoc":{"errors":{"AlreadyClaimed(address,uint256,uint256)":[{"params":{"amount":"The amount of reward token is claimed.","nonce":"The nonce of the root.","recipient":"The recipient of the claim."}}],"InvalidClaimAmount(uint256)":[{"params":{"amount":"The amount of the claim."}}],"InvalidProof(address,uint256,uint256)":[{"params":{"amount":"The amount of reward token is claimed.","nonce":"The nonce of the root.","recipient":"The recipient of the token reward."}}],"InvalidRewardContract(address)":[{"params":{"rewardContract":"The address of the invalid reward contract."}}],"InvalidStakingContract(address)":[{"params":{"stakingContract":"The address of the invalid staking contract."}}],"MerkleRootNotExists(uint256)":[{"params":{"nonce":"The nonce of the root."}}],"NotContractOwner(address)":[{"params":{"account":"The account that was checked."}}]},"events":{"MerkleRootSet(uint256,bytes32)":{"params":{"nonce":"The nonce used for setting the root.","root":"The new merkle root."}},"OwnershipTransferred(address,address)":{"params":{"newOwner":"the new contract owner.","previousOwner":"the previous contract owner."}},"PayoutClaimed(uint256,bytes32,address,address,uint256,uint256)":{"params":{"feeAmount":"The fee amount taken from the claimed reward.","netClaimedAmount":"The amount of reward token is claimed minus fee amount.","nonce":"The nonce for the root.","payoutWallet":"The wallet sending out the reward token.","recipient":"The recipient of the reward token.","root":"The merkle root on which the claim was made."}},"PayoutWalletSet(address)":{"params":{"newPayoutWallet":"The new payout wallet."}},"TreasuryWalletSet(address)":{"params":{"newTreasuryWallet":"The new treasury wallet."}}},"kind":"dev","methods":{"claimPayout(address,uint256,uint256,bytes32[])":{"details":"Emits a {PayoutClaimed} event.","params":{"amount":"The amount of reward token to be claimed.","nonce_":"The nonce of the root.PayoutClaimed","proof":"The Merkle proof of the user based on the merkle root","recipient":"The recipient for this claim."}},"claimPayoutAndStake(address,uint256,uint256,bytes32[])":{"details":"Reverts with {InvalidClaimAmount} if it is claiming a zero amount.Reverts with {Paused} if contract is paused.Reverts with {MerkleRootNotExists} if the merkle root does not exist.Reverts with {InvalidProof} if the merkle proof has failed the verificationReverts with {AlreadyClaimed} if this specific payout has already been claimed.Emits a {PayoutClaimed} event.","params":{"amount":"The amount of reward token to be claimed.","nonce_":"The nonce of the root.PayoutClaimed","proof":"The Merkle proof of the user based on the merkle root","recipient":"The recipient for this claim."}},"isTrustedForwarder(address)":{"params":{"forwarder":"The forwarder to check."},"returns":{"_0":"True if `forwarder` is trusted, false if not."}},"owner()":{"returns":{"_0":"The address of the contract owner."}},"pause()":{"details":"Reverts with {NotContractOwner} if the sender is not the contract owner.Reverts with {Paused} if the contract is paused.Emits a {Paused} event."},"paused()":{"returns":{"_0":"The paused state of the contract."}},"setMerkleRoot(bytes32)":{"details":"Reverts with {NotContractOwner} if the sender is not the contract owner.Emits a {MerkleRootSet} event.","params":{"merkleRoot":"The merkle root to be set."}},"setPayoutWallet(address)":{"details":"Reverts with {NotContractOwner} if the sender is not the contract owner.Emits a {PayoutWalletSet} event.","params":{"newPayoutWallet":"The payout wallet to be set."}},"setTreasuryWallet(address)":{"details":"Reverts with {NotContractOwner} if the sender is not the contract owner.Emits a {TreasuryWalletSet} event.","params":{"newTreasuryWallet":"The treasury wallet to be set."}},"supportsInterface(bytes4)":{"details":"Note: This function call must use less than 30 000 gas.","params":{"interfaceId":"the interface identifier to test."},"returns":{"_0":"True if the interface is supported, false if `interfaceId` is `0xffffffff` or if the interface is not supported."}},"transferOwnership(address)":{"details":"Reverts if the sender is not the contract owner.Emits an {OwnershipTransferred} event if `newOwner` is different from the current contract owner.","params":{"newOwner":"The address of the new contract owner. Using the zero address means renouncing ownership."}},"unpause()":{"details":"Reverts with {NotContractOwner} if the sender is not the contract owner.Reverts with {NotPaused} if the contract is not paused.Emits an {Unpaused} event."}},"version":1},"evm":{"bytecode":{"linkReferences":{},"object":"60e060405234801561001057600080fd5b5060405161315038038061315083398181016040528101906100329190610b26565b808033610055816100476107b860201b60201c565b6107f760201b90919060201c565b508073ffffffffffffffffffffffffffffffffffffffff1660808173ffffffffffffffffffffffffffffffffffffffff168152505050506100a667a36d0adc33f17b3760c01b61091160201b60201c565b6100c067f41a12884d7e7e4960c01b61091160201b60201c565b6100da675ba9bd0ada17a2b760c01b61091160201b60201c565b600073ffffffffffffffffffffffffffffffffffffffff168673ffffffffffffffffffffffffffffffffffffffff160361017f5761012867e1d3106370b5eec360c01b61091160201b60201c565b61014267f2ebf5c343b4690260c01b61091160201b60201c565b856040517fa50e6d060000000000000000000000000000000000000000000000000000000081526004016101769190610bc2565b60405180910390fd5b61019967d6adf97c1300073560c01b61091160201b60201c565b6101b367028224bcda3fd3f160c01b61091160201b60201c565b6101cd67c6573d49b8b457ee60c01b61091160201b60201c565b600073ffffffffffffffffffffffffffffffffffffffff168573ffffffffffffffffffffffffffffffffffffffff16036102725761021b6783ae3a514963d1d660c01b61091160201b60201c565b610235672842dde92847e2ee60c01b61091160201b60201c565b846040517f81d97a5e0000000000000000000000000000000000000000000000000000000081526004016102699190610bc2565b60405180910390fd5b61028c67e6fe166f375962af60c01b61091160201b60201c565b6102a667954d1bf7b105f97260c01b61091160201b60201c565b6102c06753ffc2574d590cba60c01b61091160201b60201c565b600073ffffffffffffffffffffffffffffffffffffffff168473ffffffffffffffffffffffffffffffffffffffff160361035a5761030e6796dea910f583e2cf60c01b61091160201b60201c565b61032867f511eee0969a3bef60c01b61091160201b60201c565b6040517fc41cbee200000000000000000000000000000000000000000000000000000000815260040160405180910390fd5b61037467fcddcf9f05abce3a60c01b61091160201b60201c565b61038e670f45261b1a1c9a8c60c01b61091160201b60201c565b6103a8673c524d8f2dcf1b8e60c01b61091160201b60201c565b600073ffffffffffffffffffffffffffffffffffffffff168373ffffffffffffffffffffffffffffffffffffffff1603610442576103f667ac47d6bedafdb43760c01b61091160201b60201c565b610410678f11a9c2afff8acb60c01b61091160201b60201c565b6040517fa56b8e2800000000000000000000000000000000000000000000000000000000815260040160405180910390fd5b61045c6744c28dbe437b1dfc60c01b61091160201b60201c565b61047667284ede5b121b9d3e60c01b61091160201b60201c565b6104906745f3ef2ccb38590c60c01b61091160201b60201c565b612710826bffffffffffffffffffffffff16111561050e576104c26742e5b9f0295b445b60c01b61091160201b60201c565b6104dc6702f82b71c2bdc9de60c01b61091160201b60201c565b6040517f58d620b300000000000000000000000000000000000000000000000000000000815260040160405180910390fd5b6105286731a20387d0d79ccd60c01b61091160201b60201c565b6105426754c5f1fd634dfcd160c01b61091160201b60201c565b61055c67629ac93ff6bad45b60c01b61091160201b60201c565b600073ffffffffffffffffffffffffffffffffffffffff168173ffffffffffffffffffffffffffffffffffffffff16036105f6576105aa67a3aa0fcab4a2adf760c01b61091160201b60201c565b6105c46779a731af8353c2f360c01b61091160201b60201c565b6040517fd516e87c00000000000000000000000000000000000000000000000000000000815260040160405180910390fd5b61061067dbedd722de4f23c160c01b61091160201b60201c565b61062a6707d6d904528705b460c01b61091160201b60201c565b8573ffffffffffffffffffffffffffffffffffffffff1660a08173ffffffffffffffffffffffffffffffffffffffff1681525050610678676e034145a881c40760c01b61091160201b60201c565b8473ffffffffffffffffffffffffffffffffffffffff1660c08173ffffffffffffffffffffffffffffffffffffffff16815250506106c667e4361ac244b7cdf060c01b61091160201b60201c565b83600260006101000a81548173ffffffffffffffffffffffffffffffffffffffff021916908373ffffffffffffffffffffffffffffffffffffffff16021790555061072167363c98df3963001e60c01b61091160201b60201c565b82600460006101000a81548173ffffffffffffffffffffffffffffffffffffffff021916908373ffffffffffffffffffffffffffffffffffffffff16021790555061077c676f476763bdd26a2660c01b61091160201b60201c565b81600460146101000a8154816bffffffffffffffffffffffff02191690836bffffffffffffffffffffffff160217905550505050505050610c4a565b60008060017fc9ed16f33ab3a66c84bfd83099ccb2a8845871e2e1c1928f63797152f0fd54cd60001c6107eb9190610c16565b60001b90508091505090565b600073ffffffffffffffffffffffffffffffffffffffff168173ffffffffffffffffffffffffffffffffffffffff16146108ca57808260000160006101000a81548173ffffffffffffffffffffffffffffffffffffffff021916908373ffffffffffffffffffffffffffffffffffffffff1602179055508073ffffffffffffffffffffffffffffffffffffffff16600073ffffffffffffffffffffffffffffffffffffffff167f8be0079c531659141344cd1fd0a4f28419497f9722a3daafe3b4186f6b6457e060405160405180910390a35b61090d7f7f5828d00000000000000000000000000000000000000000000000000000000060016108fe61091460201b60201c565b61095360201b9092919060201c565b5050565b50565b60008060017fca9d3e17f264b0f3984e2634e94adb37fa3e6a8103f06aeae6fa59e21c769f5e60001c6109479190610c16565b60001b90508091505090565b63ffffffff60e01b7bffffffffffffffffffffffffffffffffffffffffffffffffffffffff1916827bffffffffffffffffffffffffffffffffffffffffffffffffffffffff1916036109d1576040517f72c683bb00000000000000000000000000000000000000000000000000000000815260040160405180910390fd5b80836000016000847bffffffffffffffffffffffffffffffffffffffffffffffffffffffff19167bffffffffffffffffffffffffffffffffffffffffffffffffffffffff1916815260200190815260200160002060006101000a81548160ff021916908315150217905550505050565b600080fd5b600073ffffffffffffffffffffffffffffffffffffffff82169050919050565b6000610a7182610a46565b9050919050565b610a8181610a66565b8114610a8c57600080fd5b50565b600081519050610a9e81610a78565b92915050565b60006bffffffffffffffffffffffff82169050919050565b610ac581610aa4565b8114610ad057600080fd5b50565b600081519050610ae281610abc565b92915050565b6000610af382610a66565b9050919050565b610b0381610ae8565b8114610b0e57600080fd5b50565b600081519050610b2081610afa565b92915050565b60008060008060008060c08789031215610b4357610b42610a41565b5b6000610b5189828a01610a8f565b9650506020610b6289828a01610a8f565b9550506040610b7389828a01610a8f565b9450506060610b8489828a01610a8f565b9350506080610b9589828a01610ad3565b92505060a0610ba689828a01610b11565b9150509295509295509295565b610bbc81610a66565b82525050565b6000602082019050610bd76000830184610bb3565b92915050565b6000819050919050565b7f4e487b7100000000000000000000000000000000000000000000000000000000600052601160045260246000fd5b6000610c2182610bdd565b9150610c2c83610bdd565b9250828203905081811115610c4457610c43610be7565b5b92915050565b60805160a05160c0516124a6610caa60003960008181610b050152610f200152600081816105bd01528181610686015281816107f80152610ac80152600081816107d2015281816108770152818161199601526119eb01526124a66000f3fe608060405234801561001057600080fd5b50600436106101825760003560e01c80638456cb59116100d8578063cc3c0f061161008c578063ddca3f4311610066578063ddca3f43146103d7578063e63a391f146103f5578063f2fde38b1461041357610182565b8063cc3c0f0614610359578063da19ddfb14610389578063db200205146103a757610182565b80638da5cb5b116100bd5780638da5cb5b14610301578063a8602fea1461031f578063affed0e01461033b57610182565b80638456cb59146102d95780638488bb4e146102e357610182565b80634626402b1161013a5780636b8f9c43116101145780636b8f9c43146102855780636ed31d09146102a15780637cb64759146102bd57610182565b80634626402b14610219578063572b6c05146102375780635c975abb1461026757610182565b80632b4c9f161161016b5780632b4c9f16146101d35780633a5af339146101f15780633f4ba83a1461020f57610182565b806301ffc9a71461018757806321c3df25146101b7575b600080fd5b6101a1600480360381019061019c9190611bee565b61042f565b6040516101ae9190611c36565b60405180910390f35b6101d160048036038101906101cc9190611d4a565b610452565b005b6101db6107ce565b6040516101e89190611e31565b60405180910390f35b6101f96107f6565b6040516102069190611e5b565b60405180910390f35b61021761081a565b005b61022161084d565b60405161022e9190611e5b565b60405180910390f35b610251600480360381019061024c9190611e76565b610873565b60405161025e9190611c36565b60405180910390f35b61026f6108cb565b60405161027c9190611c36565b60405180910390f35b61029f600480360381019061029a9190611e76565b6108e2565b005b6102bb60048036038101906102b69190611d4a565b610a02565b005b6102d760048036038101906102d29190611ed9565b610c2e565b005b6102e1610d68565b005b6102eb610d9b565b6040516102f89190611e5b565b60405180910390f35b610309610dc1565b6040516103169190611e5b565b60405180910390f35b61033960048036038101906103349190611e76565b610dd8565b005b610343610ef8565b6040516103509190611f15565b60405180910390f35b610373600480360381019061036e9190611ed9565b610efe565b6040516103809190611c36565b60405180910390f35b610391610f1e565b60405161039e9190611e5b565b60405180910390f35b6103c160048036038101906103bc9190611f30565b610f42565b6040516103ce9190611f6c565b60405180910390f35b6103df610f5a565b6040516103ec9190611fae565b60405180910390f35b6103fd610f78565b60405161040a9190611f15565b60405180910390f35b61042d60048036038101906104289190611e76565b610f7e565b005b600061044b8261043d610fa4565b610fe390919063ffffffff16565b9050919050565b6104666778a933ca72bb7dbc60c01b611112565b61047a679035f8f98fe4b1e160c01b611112565b61048e67a0f21499b3c32b7360c01b611112565b600061049d8686868686611115565b90506104b367a984774aa3943eaf60c01b611112565b6104c767712e2bbcc7f9afce60c01b611112565b6000600260009054906101000a900473ffffffffffffffffffffffffffffffffffffffff169050610502675810c450c4878b0860c01b611112565b610516673171e5520acb297c60c01b611112565b6000612710600460149054906101000a90046bffffffffffffffffffffffff166bffffffffffffffffffffffff168861054f9190611ff8565b6105599190612069565b905061056f67bbd9522296412b5c60c01b611112565b610583679298961c7a33fcbd60c01b611112565b60008188610591919061209a565b90506105a767e912e15f0a67591a60c01b611112565b6105bb67e24634582e52c89c60c01b611112565b7f000000000000000000000000000000000000000000000000000000000000000073ffffffffffffffffffffffffffffffffffffffff1663b88d4fde848b846040518463ffffffff1660e01b815260040161061893929190612105565b6020604051808303816000875af1158015610637573d6000803e3d6000fd5b505050506040513d601f19601f8201168201806040525081019061065b919061217b565b50610670676d12824caa331eac60c01b611112565b61068467fdbdc225ff6e7e6160c01b611112565b7f000000000000000000000000000000000000000000000000000000000000000073ffffffffffffffffffffffffffffffffffffffff1663b88d4fde84600460009054906101000a900473ffffffffffffffffffffffffffffffffffffffff16856040518463ffffffff1660e01b815260040161070393929190612105565b6020604051808303816000875af1158015610722573d6000803e3d6000fd5b505050506040513d601f19601f82011682018060405250810190610746919061217b565b5061075b6732e24239e34ad1d160c01b611112565b61076f6799e45fdc9469e71260c01b611112565b8273ffffffffffffffffffffffffffffffffffffffff1684887f4198e253c4ae311bc3d0c7aca40cb1a9827879ca09dc5f3a430127c736748f188c85876040516107bb939291906121a8565b60405180910390a4505050505050505050565b60007f0000000000000000000000000000000000000000000000000000000000000000905090565b7f000000000000000000000000000000000000000000000000000000000000000081565b61083b610825611512565b61082d61155d565b61159c90919063ffffffff16565b61084b610846611634565b611673565b565b600460009054906101000a900473ffffffffffffffffffffffffffffffffffffffff1681565b60007f000000000000000000000000000000000000000000000000000000000000000073ffffffffffffffffffffffffffffffffffffffff168273ffffffffffffffffffffffffffffffffffffffff16149050919050565b60006108dd6108d8611634565b6116c8565b905090565b6108f667928c33f27d01033f60c01b611112565b61090a678d1614dcaecd1d8460c01b611112565b61091e67443ead99e20af34860c01b611112565b61093f610929611512565b61093161155d565b61159c90919063ffffffff16565b61095367d653c1dda23cb42660c01b611112565b80600260006101000a81548173ffffffffffffffffffffffffffffffffffffffff021916908373ffffffffffffffffffffffffffffffffffffffff1602179055506109a867600cf39eb099506760c01b611112565b6109bc6713b3bdfb30a95acd60c01b611112565b8073ffffffffffffffffffffffffffffffffffffffff167fdd880d24a789958a6398c99c2e54ce31bc10a638cbc42f7dd34285479ae0f85560405160405180910390a250565b610a16671fa9a34f82f569f560c01b611112565b610a2a67ccdf7fc425ae651c60c01b611112565b610a3e677bbfc81b5d11388460c01b611112565b6000610a4d8686868686611115565b9050610a6367d6fce75f5bb9934960c01b611112565b610a7767fe8125bd1e7535ff60c01b611112565b6000600260009054906101000a900473ffffffffffffffffffffffffffffffffffffffff169050610ab26712e3a3940b2ed1cb60c01b611112565b610ac667c8511a1845337b1760c01b611112565b7f000000000000000000000000000000000000000000000000000000000000000073ffffffffffffffffffffffffffffffffffffffff1663b88d4fde827f0000000000000000000000000000000000000000000000000000000000000000898b604051602001610b369190611e5b565b6040516020818303038152906040526040518563ffffffff1660e01b8152600401610b64949392919061225e565b6020604051808303816000875af1158015610b83573d6000803e3d6000fd5b505050506040513d601f19601f82011682018060405250810190610ba7919061217b565b50610bbc67471763f08e05d1f460c01b611112565b610bd067465a0a91b88c859460c01b611112565b8073ffffffffffffffffffffffffffffffffffffffff1682867f4198e253c4ae311bc3d0c7aca40cb1a9827879ca09dc5f3a430127c736748f188a8a6000604051610c1d939291906122e5565b60405180910390a450505050505050565b610c42676990f6d6e5bdc50560c01b611112565b610c56675ec09081b65b9d2660c01b611112565b610c6a67237470c49cd9ae2a60c01b611112565b610c8b610c75611512565b610c7d61155d565b61159c90919063ffffffff16565b610c9f67b7f67d7449fef35760c01b611112565b610cb3675e80f1a38095b0f260c01b611112565b600080549050610ccd6777ad003a196f927560c01b611112565b816001600083815260200190815260200160002081905550610cf967a0b843d6b512dde960c01b611112565b6000808154610d079061231c565b91905081905550610d22676fa1815d9989536e60c01b611112565b610d366705a0122b50355bd960c01b611112565b81817fb04b7d6145a7588fdcf339a22877d5965f861c171204fc37688058c5f6c06d3b60405160405180910390a35050565b610d89610d73611512565b610d7b61155d565b61159c90919063ffffffff16565b610d99610d94611634565b6116e3565b565b600260009054906101000a900473ffffffffffffffffffffffffffffffffffffffff1681565b6000610dd3610dce61155d565b611738565b905090565b610dec670aa0a42f500f709b60c01b611112565b610e00675aa1f6791f6b422460c01b611112565b610e146754b4f7e0fad144e360c01b611112565b610e35610e1f611512565b610e2761155d565b61159c90919063ffffffff16565b610e4967018055766956728860c01b611112565b80600460006101000a81548173ffffffffffffffffffffffffffffffffffffffff021916908373ffffffffffffffffffffffffffffffffffffffff160217905550610e9e67a512d3ba837cc4e560c01b611112565b610eb26786a2de4e8066dbfc60c01b611112565b8073ffffffffffffffffffffffffffffffffffffffff167f5695f8b02f5f53d02b408db3ed952c16f32f9701ad2691c44733f2a2d09225a960405160405180910390a250565b60005481565b60036020528060005260406000206000915054906101000a900460ff1681565b7f000000000000000000000000000000000000000000000000000000000000000081565b60016020528060005260406000206000915090505481565b600460149054906101000a90046bffffffffffffffffffffffff1681565b61271081565b610fa1610f89611512565b82610f9261155d565b6117669092919063ffffffff16565b50565b60008060017fca9d3e17f264b0f3984e2634e94adb37fa3e6a8103f06aeae6fa59e21c769f5e60001c610fd7919061209a565b60001b90508091505090565b600063ffffffff60e01b7bffffffffffffffffffffffffffffffffffffffffffffffffffffffff1916827bffffffffffffffffffffffffffffffffffffffffffffffffffffffff19160361103a576000905061110c565b7f01ffc9a7000000000000000000000000000000000000000000000000000000007bffffffffffffffffffffffffffffffffffffffffffffffffffffffff1916827bffffffffffffffffffffffffffffffffffffffffffffffffffffffff1916036110a8576001905061110c565b826000016000837bffffffffffffffffffffffffffffffffffffffffffffffffffffffff19167bffffffffffffffffffffffffffffffffffffffffffffffffffffffff1916815260200190815260200160002060009054906101000a900460ff1690505b92915050565b50565b600061112b67a7327f453ad5032160c01b611112565b61113f67075c662761029a2960c01b611112565b61115367bf28ab16e133c08660c01b611112565b600085036111c05761116f6797603388ab818c2860c01b611112565b611183679fb27415628391d860c01b611112565b846040517f27ab1ee20000000000000000000000000000000000000000000000000000000081526004016111b79190611f15565b60405180910390fd5b6111d467e04a91daf0131d6b60c01b611112565b6111e867dec24d517c734c9660c01b611112565b6111fc67d66b1d07ecab5b3360c01b611112565b61120c611207611634565b6118d6565b61122067ac81a3bc0e1c460060c01b611112565b6001600085815260200190815260200160002054905061124a67a83abcc386f1af5160c01b611112565b61125e67f64cd1c6f7ddaf1c60c01b611112565b6000801b81036112cd5761127c674fd05ae2de49f15f60c01b611112565b611290673c3ab8f20eb36f5860c01b611112565b836040517fab4a79390000000000000000000000000000000000000000000000000000000081526004016112c49190611f15565b60405180910390fd5b6112e1672824ffb85f09520560c01b611112565b6112f567efd8f9e092ff2bac60c01b611112565b61130967632eba0c04b014f760c01b611112565b6000868686604051602001611320939291906123cd565b60405160208183030381529060405280519060200120905061134c671e43010ee891c02460c01b611112565b61136067993c2e012c4cef6960c01b611112565b61137c828286866119229190939291909392919063ffffffff16565b6113e957611394675aa8dc0b94b40e8360c01b611112565b6113a86792a4bf13cb61e1e760c01b611112565b8686866040517f3c6ee01b0000000000000000000000000000000000000000000000000000000081526004016113e0939291906121a8565b60405180910390fd5b6113fd67781d0a12fc2b6fa260c01b611112565b61141167b0431c2e7f23866260c01b611112565b6114256708ba5900c37248f960c01b611112565b6003600082815260200190815260200160002060009054906101000a900460ff16156114b45761145f67814b93850c5c56ad60c01b611112565b6114736773133859a92ff36460c01b611112565b8686866040517f650882320000000000000000000000000000000000000000000000000000000081526004016114ab939291906121a8565b60405180910390fd5b6114c867afc2d03b49a4484e60c01b611112565b6114dc6743515cbaa4995deb60c01b611112565b60016003600083815260200190815260200160002060006101000a81548160ff0219169083151502179055505095945050505050565b600061152867bbd9c07b9847e90c60c01b611112565b61153c674061a9d6377a14cb60c01b611112565b61155067f0891df5316503f260c01b611112565b61155861193b565b905090565b60008060017fc9ed16f33ab3a66c84bfd83099ccb2a8845871e2e1c1928f63797152f0fd54cd60001c611590919061209a565b60001b90508091505090565b8160000160009054906101000a900473ffffffffffffffffffffffffffffffffffffffff1673ffffffffffffffffffffffffffffffffffffffff168173ffffffffffffffffffffffffffffffffffffffff161461163057806040517f2ef4875e0000000000000000000000000000000000000000000000000000000081526004016116279190611e5b565b60405180910390fd5b5050565b60008060017f0186a05f63b1553398ad5ea3233c0ce68b8c9eecc47717f123c5c2b42fbd6d9f60001c611667919061209a565b60001b90508091505090565b61167c81611a9e565b60008160000160006101000a81548160ff0219169083151502179055507f7805862f689e2f13df9f062ff482ad3ad112aca9e0847911ed832e158c525b3360405160405180910390a150565b60008160000160009054906101000a900460ff169050919050565b6116ec816118d6565b60018160000160006101000a81548160ff0219169083151502179055507f6985a02210a168e66602d3235cb6db0e70f92b3ba4d376a33c0f3d9434bff62560405160405180910390a150565b60008160000160009054906101000a900473ffffffffffffffffffffffffffffffffffffffff169050919050565b60008360000160009054906101000a900473ffffffffffffffffffffffffffffffffffffffff1690508073ffffffffffffffffffffffffffffffffffffffff168373ffffffffffffffffffffffffffffffffffffffff16146117ff57826040517f2ef4875e0000000000000000000000000000000000000000000000000000000081526004016117f69190611e5b565b60405180910390fd5b8173ffffffffffffffffffffffffffffffffffffffff168173ffffffffffffffffffffffffffffffffffffffff16146118d057818460000160006101000a81548173ffffffffffffffffffffffffffffffffffffffff021916908373ffffffffffffffffffffffffffffffffffffffff1602179055508173ffffffffffffffffffffffffffffffffffffffff168173ffffffffffffffffffffffffffffffffffffffff167f8be0079c531659141344cd1fd0a4f28419497f9722a3daafe3b4186f6b6457e060405160405180910390a35b50505050565b8060000160009054906101000a900460ff161561191f576040517f9e87fac800000000000000000000000000000000000000000000000000000000815260040160405180910390fd5b50565b600082611930868685611ae9565b149050949350505050565b60003273ffffffffffffffffffffffffffffffffffffffff163373ffffffffffffffffffffffffffffffffffffffff16148061197b575060186000369050105b1561198857339050611a9b565b6000611992611b3b565b90507f000000000000000000000000000000000000000000000000000000000000000073ffffffffffffffffffffffffffffffffffffffff163373ffffffffffffffffffffffffffffffffffffffff161480611a8857507f000000000000000000000000000000000000000000000000000000000000000073ffffffffffffffffffffffffffffffffffffffff1663019a20288233306040518463ffffffff1660e01b8152600401611a469392919061240a565b602060405180830381865afa158015611a63573d6000803e3d6000fd5b505050506040513d601f19601f82011682018060405250810190611a87919061217b565b5b15611a965780915050611a9b565b339150505b90565b8060000160009054906101000a900460ff16611ae6576040517f6cd6020100000000000000000000000000000000000000000000000000000000815260040160405180910390fd5b50565b60008082905060005b85859050811015611b2f57611b2082878784818110611b1457611b13612441565b5b90506020020135611b4a565b91508080600101915050611af2565b50809150509392505050565b6000601436033560601c905090565b6000818310611b6257611b5d8284611b75565b611b6d565b611b6c8383611b75565b5b905092915050565b600082600052816020526040600020905092915050565b600080fd5b600080fd5b60007fffffffff0000000000000000000000000000000000000000000000000000000082169050919050565b611bcb81611b96565b8114611bd657600080fd5b50565b600081359050611be881611bc2565b92915050565b600060208284031215611c0457611c03611b8c565b5b6000611c1284828501611bd9565b91505092915050565b60008115159050919050565b611c3081611c1b565b82525050565b6000602082019050611c4b6000830184611c27565b92915050565b600073ffffffffffffffffffffffffffffffffffffffff82169050919050565b6000611c7c82611c51565b9050919050565b611c8c81611c71565b8114611c9757600080fd5b50565b600081359050611ca981611c83565b92915050565b6000819050919050565b611cc281611caf565b8114611ccd57600080fd5b50565b600081359050611cdf81611cb9565b92915050565b600080fd5b600080fd5b600080fd5b60008083601f840112611d0a57611d09611ce5565b5b8235905067ffffffffffffffff811115611d2757611d26611cea565b5b602083019150836020820283011115611d4357611d42611cef565b5b9250929050565b600080600080600060808688031215611d6657611d65611b8c565b5b6000611d7488828901611c9a565b9550506020611d8588828901611cd0565b9450506040611d9688828901611cd0565b935050606086013567ffffffffffffffff811115611db757611db6611b91565b5b611dc388828901611cf4565b92509250509295509295909350565b6000819050919050565b6000611df7611df2611ded84611c51565b611dd2565b611c51565b9050919050565b6000611e0982611ddc565b9050919050565b6000611e1b82611dfe565b9050919050565b611e2b81611e10565b82525050565b6000602082019050611e466000830184611e22565b92915050565b611e5581611c71565b82525050565b6000602082019050611e706000830184611e4c565b92915050565b600060208284031215611e8c57611e8b611b8c565b5b6000611e9a84828501611c9a565b91505092915050565b6000819050919050565b611eb681611ea3565b8114611ec157600080fd5b50565b600081359050611ed381611ead565b92915050565b600060208284031215611eef57611eee611b8c565b5b6000611efd84828501611ec4565b91505092915050565b611f0f81611caf565b82525050565b6000602082019050611f2a6000830184611f06565b92915050565b600060208284031215611f4657611f45611b8c565b5b6000611f5484828501611cd0565b91505092915050565b611f6681611ea3565b82525050565b6000602082019050611f816000830184611f5d565b92915050565b60006bffffffffffffffffffffffff82169050919050565b611fa881611f87565b82525050565b6000602082019050611fc36000830184611f9f565b92915050565b7f4e487b7100000000000000000000000000000000000000000000000000000000600052601160045260246000fd5b600061200382611caf565b915061200e83611caf565b925082820261201c81611caf565b9150828204841483151761203357612032611fc9565b5b5092915050565b7f4e487b7100000000000000000000000000000000000000000000000000000000600052601260045260246000fd5b600061207482611caf565b915061207f83611caf565b92508261208f5761208e61203a565b5b828204905092915050565b60006120a582611caf565b91506120b083611caf565b92508282039050818111156120c8576120c7611fc9565b5b92915050565b600082825260208201905092915050565b50565b60006120ef6000836120ce565b91506120fa826120df565b600082019050919050565b600060808201905061211a6000830186611e4c565b6121276020830185611e4c565b6121346040830184611f06565b8181036060830152612145816120e2565b9050949350505050565b61215881611c1b565b811461216357600080fd5b50565b6000815190506121758161214f565b92915050565b60006020828403121561219157612190611b8c565b5b600061219f84828501612166565b91505092915050565b60006060820190506121bd6000830186611e4c565b6121ca6020830185611f06565b6121d76040830184611f06565b949350505050565b600081519050919050565b60005b838110156122085780820151818401526020810190506121ed565b60008484015250505050565b6000601f19601f8301169050919050565b6000612230826121df565b61223a81856120ce565b935061224a8185602086016121ea565b61225381612214565b840191505092915050565b60006080820190506122736000830187611e4c565b6122806020830186611e4c565b61228d6040830185611f06565b818103606083015261229f8184612225565b905095945050505050565b6000819050919050565b60006122cf6122ca6122c5846122aa565b611dd2565b611caf565b9050919050565b6122df816122b4565b82525050565b60006060820190506122fa6000830186611e4c565b6123076020830185611f06565b61231460408301846122d6565b949350505050565b600061232782611caf565b91507fffffffffffffffffffffffffffffffffffffffffffffffffffffffffffffffff820361235957612358611fc9565b5b600182019050919050565b60008160601b9050919050565b600061237c82612364565b9050919050565b600061238e82612371565b9050919050565b6123a66123a182611c71565b612383565b82525050565b6000819050919050565b6123c76123c282611caf565b6123ac565b82525050565b60006123d98286612395565b6014820191506123e982856123b6565b6020820191506123f982846123b6565b602082019150819050949350505050565b600060608201905061241f6000830186611e4c565b61242c6020830185611e4c565b6124396040830184611e4c565b949350505050565b7f4e487b7100000000000000000000000000000000000000000000000000000000600052603260045260246000fdfea2646970667358221220122610fe7868801f2a98cd9231f997816152ed6e7358aff973f5e24364efe69a64736f6c634300081c0033","opcodes":"PUSH1 0xE0 PUSH1 0x40 MSTORE CALLVALUE DUP1 ISZERO PUSH2 0x10 JUMPI PUSH1 0x0 DUP1 REVERT JUMPDEST POP PUSH1 0x40 MLOAD PUSH2 0x3150 CODESIZE SUB DUP1 PUSH2 0x3150 DUP4 CODECOPY DUP2 DUP2 ADD PUSH1 0x40 MSTORE DUP2 ADD SWAP1 PUSH2 0x32 SWAP2 SWAP1 PUSH2 0xB26 JUMP JUMPDEST DUP1 DUP1 CALLER PUSH2 0x55 DUP2 PUSH2 0x47 PUSH2 0x7B8 PUSH1 0x20 SHL PUSH1 0x20 SHR JUMP JUMPDEST PUSH2 0x7F7 PUSH1 0x20 SHL SWAP1 SWAP2 SWAP1 PUSH1 0x20 SHR JUMP JUMPDEST POP DUP1 PUSH20 0xFFFFFFFFFFFFFFFFFFFFFFFFFFFFFFFFFFFFFFFF AND PUSH1 0x80 DUP2 PUSH20 0xFFFFFFFFFFFFFFFFFFFFFFFFFFFFFFFFFFFFFFFF AND DUP2 MSTORE POP POP POP POP PUSH2 0xA6 PUSH8 0xA36D0ADC33F17B37 PUSH1 0xC0 SHL PUSH2 0x911 PUSH1 0x20 SHL PUSH1 0x20 SHR JUMP JUMPDEST PUSH2 0xC0 PUSH8 0xF41A12884D7E7E49 PUSH1 0xC0 SHL PUSH2 0x911 PUSH1 0x20 SHL PUSH1 0x20 SHR JUMP JUMPDEST PUSH2 0xDA PUSH8 0x5BA9BD0ADA17A2B7 PUSH1 0xC0 SHL PUSH2 0x911 PUSH1 0x20 SHL PUSH1 0x20 SHR JUMP JUMPDEST PUSH1 0x0 PUSH20 0xFFFFFFFFFFFFFFFFFFFFFFFFFFFFFFFFFFFFFFFF AND DUP7 PUSH20 0xFFFFFFFFFFFFFFFFFFFFFFFFFFFFFFFFFFFFFFFF AND SUB PUSH2 0x17F JUMPI PUSH2 0x128 PUSH8 0xE1D3106370B5EEC3 PUSH1 0xC0 SHL PUSH2 0x911 PUSH1 0x20 SHL PUSH1 0x20 SHR JUMP JUMPDEST PUSH2 0x142 PUSH8 0xF2EBF5C343B46902 PUSH1 0xC0 SHL PUSH2 0x911 PUSH1 0x20 SHL PUSH1 0x20 SHR JUMP JUMPDEST DUP6 PUSH1 0x40 MLOAD PUSH32 0xA50E6D0600000000000000000000000000000000000000000000000000000000 DUP2 MSTORE PUSH1 0x4 ADD PUSH2 0x176 SWAP2 SWAP1 PUSH2 0xBC2 JUMP JUMPDEST PUSH1 0x40 MLOAD DUP1 SWAP2 SUB SWAP1 REVERT JUMPDEST PUSH2 0x199 PUSH8 0xD6ADF97C13000735 PUSH1 0xC0 SHL PUSH2 0x911 PUSH1 0x20 SHL PUSH1 0x20 SHR JUMP JUMPDEST PUSH2 0x1B3 PUSH8 0x28224BCDA3FD3F1 PUSH1 0xC0 SHL PUSH2 0x911 PUSH1 0x20 SHL PUSH1 0x20 SHR JUMP JUMPDEST PUSH2 0x1CD PUSH8 0xC6573D49B8B457EE PUSH1 0xC0 SHL PUSH2 0x911 PUSH1 0x20 SHL PUSH1 0x20 SHR JUMP JUMPDEST PUSH1 0x0 PUSH20 0xFFFFFFFFFFFFFFFFFFFFFFFFFFFFFFFFFFFFFFFF AND DUP6 PUSH20 0xFFFFFFFFFFFFFFFFFFFFFFFFFFFFFFFFFFFFFFFF AND SUB PUSH2 0x272 JUMPI PUSH2 0x21B PUSH8 0x83AE3A514963D1D6 PUSH1 0xC0 SHL PUSH2 0x911 PUSH1 0x20 SHL PUSH1 0x20 SHR JUMP JUMPDEST PUSH2 0x235 PUSH8 0x2842DDE92847E2EE PUSH1 0xC0 SHL PUSH2 0x911 PUSH1 0x20 SHL PUSH1 0x20 SHR JUMP JUMPDEST DUP5 PUSH1 0x40 MLOAD PUSH32 0x81D97A5E00000000000000000000000000000000000000000000000000000000 DUP2 MSTORE PUSH1 0x4 ADD PUSH2 0x269 SWAP2 SWAP1 PUSH2 0xBC2 JUMP JUMPDEST PUSH1 0x40 MLOAD DUP1 SWAP2 SUB SWAP1 REVERT JUMPDEST PUSH2 0x28C PUSH8 0xE6FE166F375962AF PUSH1 0xC0 SHL PUSH2 0x911 PUSH1 0x20 SHL PUSH1 0x20 SHR JUMP JUMPDEST PUSH2 0x2A6 PUSH8 0x954D1BF7B105F972 PUSH1 0xC0 SHL PUSH2 0x911 PUSH1 0x20 SHL PUSH1 0x20 SHR JUMP JUMPDEST PUSH2 0x2C0 PUSH8 0x53FFC2574D590CBA PUSH1 0xC0 SHL PUSH2 0x911 PUSH1 0x20 SHL PUSH1 0x20 SHR JUMP JUMPDEST PUSH1 0x0 PUSH20 0xFFFFFFFFFFFFFFFFFFFFFFFFFFFFFFFFFFFFFFFF AND DUP5 PUSH20 0xFFFFFFFFFFFFFFFFFFFFFFFFFFFFFFFFFFFFFFFF AND SUB PUSH2 0x35A JUMPI PUSH2 0x30E PUSH8 0x96DEA910F583E2CF PUSH1 0xC0 SHL PUSH2 0x911 PUSH1 0x20 SHL PUSH1 0x20 SHR JUMP JUMPDEST PUSH2 0x328 PUSH8 0xF511EEE0969A3BEF PUSH1 0xC0 SHL PUSH2 0x911 PUSH1 0x20 SHL PUSH1 0x20 SHR JUMP JUMPDEST PUSH1 0x40 MLOAD PUSH32 0xC41CBEE200000000000000000000000000000000000000000000000000000000 DUP2 MSTORE PUSH1 0x4 ADD PUSH1 0x40 MLOAD DUP1 SWAP2 SUB SWAP1 REVERT JUMPDEST PUSH2 0x374 PUSH8 0xFCDDCF9F05ABCE3A PUSH1 0xC0 SHL PUSH2 0x911 PUSH1 0x20 SHL PUSH1 0x20 SHR JUMP JUMPDEST PUSH2 0x38E PUSH8 0xF45261B1A1C9A8C PUSH1 0xC0 SHL PUSH2 0x911 PUSH1 0x20 SHL PUSH1 0x20 SHR JUMP JUMPDEST PUSH2 0x3A8 PUSH8 0x3C524D8F2DCF1B8E PUSH1 0xC0 SHL PUSH2 0x911 PUSH1 0x20 SHL PUSH1 0x20 SHR JUMP JUMPDEST PUSH1 0x0 PUSH20 0xFFFFFFFFFFFFFFFFFFFFFFFFFFFFFFFFFFFFFFFF AND DUP4 PUSH20 0xFFFFFFFFFFFFFFFFFFFFFFFFFFFFFFFFFFFFFFFF AND SUB PUSH2 0x442 JUMPI PUSH2 0x3F6 PUSH8 0xAC47D6BEDAFDB437 PUSH1 0xC0 SHL PUSH2 0x911 PUSH1 0x20 SHL PUSH1 0x20 SHR JUMP JUMPDEST PUSH2 0x410 PUSH8 0x8F11A9C2AFFF8ACB PUSH1 0xC0 SHL PUSH2 0x911 PUSH1 0x20 SHL PUSH1 0x20 SHR JUMP JUMPDEST PUSH1 0x40 MLOAD PUSH32 0xA56B8E2800000000000000000000000000000000000000000000000000000000 DUP2 MSTORE PUSH1 0x4 ADD PUSH1 0x40 MLOAD DUP1 SWAP2 SUB SWAP1 REVERT JUMPDEST PUSH2 0x45C PUSH8 0x44C28DBE437B1DFC PUSH1 0xC0 SHL PUSH2 0x911 PUSH1 0x20 SHL PUSH1 0x20 SHR JUMP JUMPDEST PUSH2 0x476 PUSH8 0x284EDE5B121B9D3E PUSH1 0xC0 SHL PUSH2 0x911 PUSH1 0x20 SHL PUSH1 0x20 SHR JUMP JUMPDEST PUSH2 0x490 PUSH8 0x45F3EF2CCB38590C PUSH1 0xC0 SHL PUSH2 0x911 PUSH1 0x20 SHL PUSH1 0x20 SHR JUMP JUMPDEST PUSH2 0x2710 DUP3 PUSH12 0xFFFFFFFFFFFFFFFFFFFFFFFF AND GT ISZERO PUSH2 0x50E JUMPI PUSH2 0x4C2 PUSH8 0x42E5B9F0295B445B PUSH1 0xC0 SHL PUSH2 0x911 PUSH1 0x20 SHL PUSH1 0x20 SHR JUMP JUMPDEST PUSH2 0x4DC PUSH8 0x2F82B71C2BDC9DE PUSH1 0xC0 SHL PUSH2 0x911 PUSH1 0x20 SHL PUSH1 0x20 SHR JUMP JUMPDEST PUSH1 0x40 MLOAD PUSH32 0x58D620B300000000000000000000000000000000000000000000000000000000 DUP2 MSTORE PUSH1 0x4 ADD PUSH1 0x40 MLOAD DUP1 SWAP2 SUB SWAP1 REVERT JUMPDEST PUSH2 0x528 PUSH8 0x31A20387D0D79CCD PUSH1 0xC0 SHL PUSH2 0x911 PUSH1 0x20 SHL PUSH1 0x20 SHR JUMP JUMPDEST PUSH2 0x542 PUSH8 0x54C5F1FD634DFCD1 PUSH1 0xC0 SHL PUSH2 0x911 PUSH1 0x20 SHL PUSH1 0x20 SHR JUMP JUMPDEST PUSH2 0x55C PUSH8 0x629AC93FF6BAD45B PUSH1 0xC0 SHL PUSH2 0x911 PUSH1 0x20 SHL PUSH1 0x20 SHR JUMP JUMPDEST PUSH1 0x0 PUSH20 0xFFFFFFFFFFFFFFFFFFFFFFFFFFFFFFFFFFFFFFFF AND DUP2 PUSH20 0xFFFFFFFFFFFFFFFFFFFFFFFFFFFFFFFFFFFFFFFF AND SUB PUSH2 0x5F6 JUMPI PUSH2 0x5AA PUSH8 0xA3AA0FCAB4A2ADF7 PUSH1 0xC0 SHL PUSH2 0x911 PUSH1 0x20 SHL PUSH1 0x20 SHR JUMP JUMPDEST PUSH2 0x5C4 PUSH8 0x79A731AF8353C2F3 PUSH1 0xC0 SHL PUSH2 0x911 PUSH1 0x20 SHL PUSH1 0x20 SHR JUMP JUMPDEST PUSH1 0x40 MLOAD PUSH32 0xD516E87C00000000000000000000000000000000000000000000000000000000 DUP2 MSTORE PUSH1 0x4 ADD PUSH1 0x40 MLOAD DUP1 SWAP2 SUB SWAP1 REVERT JUMPDEST PUSH2 0x610 PUSH8 0xDBEDD722DE4F23C1 PUSH1 0xC0 SHL PUSH2 0x911 PUSH1 0x20 SHL PUSH1 0x20 SHR JUMP JUMPDEST PUSH2 0x62A PUSH8 0x7D6D904528705B4 PUSH1 0xC0 SHL PUSH2 0x911 PUSH1 0x20 SHL PUSH1 0x20 SHR JUMP JUMPDEST DUP6 PUSH20 0xFFFFFFFFFFFFFFFFFFFFFFFFFFFFFFFFFFFFFFFF AND PUSH1 0xA0 DUP2 PUSH20 0xFFFFFFFFFFFFFFFFFFFFFFFFFFFFFFFFFFFFFFFF AND DUP2 MSTORE POP POP PUSH2 0x678 PUSH8 0x6E034145A881C407 PUSH1 0xC0 SHL PUSH2 0x911 PUSH1 0x20 SHL PUSH1 0x20 SHR JUMP JUMPDEST DUP5 PUSH20 0xFFFFFFFFFFFFFFFFFFFFFFFFFFFFFFFFFFFFFFFF AND PUSH1 0xC0 DUP2 PUSH20 0xFFFFFFFFFFFFFFFFFFFFFFFFFFFFFFFFFFFFFFFF AND DUP2 MSTORE POP POP PUSH2 0x6C6 PUSH8 0xE4361AC244B7CDF0 PUSH1 0xC0 SHL PUSH2 0x911 PUSH1 0x20 SHL PUSH1 0x20 SHR JUMP JUMPDEST DUP4 PUSH1 0x2 PUSH1 0x0 PUSH2 0x100 EXP DUP2 SLOAD DUP2 PUSH20 0xFFFFFFFFFFFFFFFFFFFFFFFFFFFFFFFFFFFFFFFF MUL NOT AND SWAP1 DUP4 PUSH20 0xFFFFFFFFFFFFFFFFFFFFFFFFFFFFFFFFFFFFFFFF AND MUL OR SWAP1 SSTORE POP PUSH2 0x721 PUSH8 0x363C98DF3963001E PUSH1 0xC0 SHL PUSH2 0x911 PUSH1 0x20 SHL PUSH1 0x20 SHR JUMP JUMPDEST DUP3 PUSH1 0x4 PUSH1 0x0 PUSH2 0x100 EXP DUP2 SLOAD DUP2 PUSH20 0xFFFFFFFFFFFFFFFFFFFFFFFFFFFFFFFFFFFFFFFF MUL NOT AND SWAP1 DUP4 PUSH20 0xFFFFFFFFFFFFFFFFFFFFFFFFFFFFFFFFFFFFFFFF AND MUL OR SWAP1 SSTORE POP PUSH2 0x77C PUSH8 0x6F476763BDD26A26 PUSH1 0xC0 SHL PUSH2 0x911 PUSH1 0x20 SHL PUSH1 0x20 SHR JUMP JUMPDEST DUP2 PUSH1 0x4 PUSH1 0x14 PUSH2 0x100 EXP DUP2 SLOAD DUP2 PUSH12 0xFFFFFFFFFFFFFFFFFFFFFFFF MUL NOT AND SWAP1 DUP4 PUSH12 0xFFFFFFFFFFFFFFFFFFFFFFFF AND MUL OR SWAP1 SSTORE POP POP POP POP POP POP POP PUSH2 0xC4A JUMP JUMPDEST PUSH1 0x0 DUP1 PUSH1 0x1 PUSH32 0xC9ED16F33AB3A66C84BFD83099CCB2A8845871E2E1C1928F63797152F0FD54CD PUSH1 0x0 SHR PUSH2 0x7EB SWAP2 SWAP1 PUSH2 0xC16 JUMP JUMPDEST PUSH1 0x0 SHL SWAP1 POP DUP1 SWAP2 POP POP SWAP1 JUMP JUMPDEST PUSH1 0x0 PUSH20 0xFFFFFFFFFFFFFFFFFFFFFFFFFFFFFFFFFFFFFFFF AND DUP2 PUSH20 0xFFFFFFFFFFFFFFFFFFFFFFFFFFFFFFFFFFFFFFFF AND EQ PUSH2 0x8CA JUMPI DUP1 DUP3 PUSH1 0x0 ADD PUSH1 0x0 PUSH2 0x100 EXP DUP2 SLOAD DUP2 PUSH20 0xFFFFFFFFFFFFFFFFFFFFFFFFFFFFFFFFFFFFFFFF MUL NOT AND SWAP1 DUP4 PUSH20 0xFFFFFFFFFFFFFFFFFFFFFFFFFFFFFFFFFFFFFFFF AND MUL OR SWAP1 SSTORE POP DUP1 PUSH20 0xFFFFFFFFFFFFFFFFFFFFFFFFFFFFFFFFFFFFFFFF AND PUSH1 0x0 PUSH20 0xFFFFFFFFFFFFFFFFFFFFFFFFFFFFFFFFFFFFFFFF AND PUSH32 0x8BE0079C531659141344CD1FD0A4F28419497F9722A3DAAFE3B4186F6B6457E0 PUSH1 0x40 MLOAD PUSH1 0x40 MLOAD DUP1 SWAP2 SUB SWAP1 LOG3 JUMPDEST PUSH2 0x90D PUSH32 0x7F5828D000000000000000000000000000000000000000000000000000000000 PUSH1 0x1 PUSH2 0x8FE PUSH2 0x914 PUSH1 0x20 SHL PUSH1 0x20 SHR JUMP JUMPDEST PUSH2 0x953 PUSH1 0x20 SHL SWAP1 SWAP3 SWAP2 SWAP1 PUSH1 0x20 SHR JUMP JUMPDEST POP POP JUMP JUMPDEST POP JUMP JUMPDEST PUSH1 0x0 DUP1 PUSH1 0x1 PUSH32 0xCA9D3E17F264B0F3984E2634E94ADB37FA3E6A8103F06AEAE6FA59E21C769F5E PUSH1 0x0 SHR PUSH2 0x947 SWAP2 SWAP1 PUSH2 0xC16 JUMP JUMPDEST PUSH1 0x0 SHL SWAP1 POP DUP1 SWAP2 POP POP SWAP1 JUMP JUMPDEST PUSH4 0xFFFFFFFF PUSH1 0xE0 SHL PUSH28 0xFFFFFFFFFFFFFFFFFFFFFFFFFFFFFFFFFFFFFFFFFFFFFFFFFFFFFFFF NOT AND DUP3 PUSH28 0xFFFFFFFFFFFFFFFFFFFFFFFFFFFFFFFFFFFFFFFFFFFFFFFFFFFFFFFF NOT AND SUB PUSH2 0x9D1 JUMPI PUSH1 0x40 MLOAD PUSH32 0x72C683BB00000000000000000000000000000000000000000000000000000000 DUP2 MSTORE PUSH1 0x4 ADD PUSH1 0x40 MLOAD DUP1 SWAP2 SUB SWAP1 REVERT JUMPDEST DUP1 DUP4 PUSH1 0x0 ADD PUSH1 0x0 DUP5 PUSH28 0xFFFFFFFFFFFFFFFFFFFFFFFFFFFFFFFFFFFFFFFFFFFFFFFFFFFFFFFF NOT AND PUSH28 0xFFFFFFFFFFFFFFFFFFFFFFFFFFFFFFFFFFFFFFFFFFFFFFFFFFFFFFFF NOT AND DUP2 MSTORE PUSH1 0x20 ADD SWAP1 DUP2 MSTORE PUSH1 0x20 ADD PUSH1 0x0 KECCAK256 PUSH1 0x0 PUSH2 0x100 EXP DUP2 SLOAD DUP2 PUSH1 0xFF MUL NOT AND SWAP1 DUP4 ISZERO ISZERO MUL OR SWAP1 SSTORE POP POP POP POP JUMP JUMPDEST PUSH1 0x0 DUP1 REVERT JUMPDEST PUSH1 0x0 PUSH20 0xFFFFFFFFFFFFFFFFFFFFFFFFFFFFFFFFFFFFFFFF DUP3 AND SWAP1 POP SWAP2 SWAP1 POP JUMP JUMPDEST PUSH1 0x0 PUSH2 0xA71 DUP3 PUSH2 0xA46 JUMP JUMPDEST SWAP1 POP SWAP2 SWAP1 POP JUMP JUMPDEST PUSH2 0xA81 DUP2 PUSH2 0xA66 JUMP JUMPDEST DUP2 EQ PUSH2 0xA8C JUMPI PUSH1 0x0 DUP1 REVERT JUMPDEST POP JUMP JUMPDEST PUSH1 0x0 DUP2 MLOAD SWAP1 POP PUSH2 0xA9E DUP2 PUSH2 0xA78 JUMP JUMPDEST SWAP3 SWAP2 POP POP JUMP JUMPDEST PUSH1 0x0 PUSH12 0xFFFFFFFFFFFFFFFFFFFFFFFF DUP3 AND SWAP1 POP SWAP2 SWAP1 POP JUMP JUMPDEST PUSH2 0xAC5 DUP2 PUSH2 0xAA4 JUMP JUMPDEST DUP2 EQ PUSH2 0xAD0 JUMPI PUSH1 0x0 DUP1 REVERT JUMPDEST POP JUMP JUMPDEST PUSH1 0x0 DUP2 MLOAD SWAP1 POP PUSH2 0xAE2 DUP2 PUSH2 0xABC JUMP JUMPDEST SWAP3 SWAP2 POP POP JUMP JUMPDEST PUSH1 0x0 PUSH2 0xAF3 DUP3 PUSH2 0xA66 JUMP JUMPDEST SWAP1 POP SWAP2 SWAP1 POP JUMP JUMPDEST PUSH2 0xB03 DUP2 PUSH2 0xAE8 JUMP JUMPDEST DUP2 EQ PUSH2 0xB0E JUMPI PUSH1 0x0 DUP1 REVERT JUMPDEST POP JUMP JUMPDEST PUSH1 0x0 DUP2 MLOAD SWAP1 POP PUSH2 0xB20 DUP2 PUSH2 0xAFA JUMP JUMPDEST SWAP3 SWAP2 POP POP JUMP JUMPDEST PUSH1 0x0 DUP1 PUSH1 0x0 DUP1 PUSH1 0x0 DUP1 PUSH1 0xC0 DUP8 DUP10 SUB SLT ISZERO PUSH2 0xB43 JUMPI PUSH2 0xB42 PUSH2 0xA41 JUMP JUMPDEST JUMPDEST PUSH1 0x0 PUSH2 0xB51 DUP10 DUP3 DUP11 ADD PUSH2 0xA8F JUMP JUMPDEST SWAP7 POP POP PUSH1 0x20 PUSH2 0xB62 DUP10 DUP3 DUP11 ADD PUSH2 0xA8F JUMP JUMPDEST SWAP6 POP POP PUSH1 0x40 PUSH2 0xB73 DUP10 DUP3 DUP11 ADD PUSH2 0xA8F JUMP JUMPDEST SWAP5 POP POP PUSH1 0x60 PUSH2 0xB84 DUP10 DUP3 DUP11 ADD PUSH2 0xA8F JUMP JUMPDEST SWAP4 POP POP PUSH1 0x80 PUSH2 0xB95 DUP10 DUP3 DUP11 ADD PUSH2 0xAD3 JUMP JUMPDEST SWAP3 POP POP PUSH1 0xA0 PUSH2 0xBA6 DUP10 DUP3 DUP11 ADD PUSH2 0xB11 JUMP JUMPDEST SWAP2 POP POP SWAP3 SWAP6 POP SWAP3 SWAP6 POP SWAP3 SWAP6 JUMP JUMPDEST PUSH2 0xBBC DUP2 PUSH2 0xA66 JUMP JUMPDEST DUP3 MSTORE POP POP JUMP JUMPDEST PUSH1 0x0 PUSH1 0x20 DUP3 ADD SWAP1 POP PUSH2 0xBD7 PUSH1 0x0 DUP4 ADD DUP5 PUSH2 0xBB3 JUMP JUMPDEST SWAP3 SWAP2 POP POP JUMP JUMPDEST PUSH1 0x0 DUP2 SWAP1 POP SWAP2 SWAP1 POP JUMP JUMPDEST PUSH32 0x4E487B7100000000000000000000000000000000000000000000000000000000 PUSH1 0x0 MSTORE PUSH1 0x11 PUSH1 0x4 MSTORE PUSH1 0x24 PUSH1 0x0 REVERT JUMPDEST PUSH1 0x0 PUSH2 0xC21 DUP3 PUSH2 0xBDD JUMP JUMPDEST SWAP2 POP PUSH2 0xC2C DUP4 PUSH2 0xBDD JUMP JUMPDEST SWAP3 POP DUP3 DUP3 SUB SWAP1 POP DUP2 DUP2 GT ISZERO PUSH2 0xC44 JUMPI PUSH2 0xC43 PUSH2 0xBE7 JUMP JUMPDEST JUMPDEST SWAP3 SWAP2 POP POP JUMP JUMPDEST PUSH1 0x80 MLOAD PUSH1 0xA0 MLOAD PUSH1 0xC0 MLOAD PUSH2 0x24A6 PUSH2 0xCAA PUSH1 0x0 CODECOPY PUSH1 0x0 DUP2 DUP2 PUSH2 0xB05 ADD MSTORE PUSH2 0xF20 ADD MSTORE PUSH1 0x0 DUP2 DUP2 PUSH2 0x5BD ADD MSTORE DUP2 DUP2 PUSH2 0x686 ADD MSTORE DUP2 DUP2 PUSH2 0x7F8 ADD MSTORE PUSH2 0xAC8 ADD MSTORE PUSH1 0x0 DUP2 DUP2 PUSH2 0x7D2 ADD MSTORE DUP2 DUP2 PUSH2 0x877 ADD MSTORE DUP2 DUP2 PUSH2 0x1996 ADD MSTORE PUSH2 0x19EB ADD MSTORE PUSH2 0x24A6 PUSH1 0x0 RETURN INVALID PUSH1 0x80 PUSH1 0x40 MSTORE CALLVALUE DUP1 ISZERO PUSH2 0x10 JUMPI PUSH1 0x0 DUP1 REVERT JUMPDEST POP PUSH1 0x4 CALLDATASIZE LT PUSH2 0x182 JUMPI PUSH1 0x0 CALLDATALOAD PUSH1 0xE0 SHR DUP1 PUSH4 0x8456CB59 GT PUSH2 0xD8 JUMPI DUP1 PUSH4 0xCC3C0F06 GT PUSH2 0x8C JUMPI DUP1 PUSH4 0xDDCA3F43 GT PUSH2 0x66 JUMPI DUP1 PUSH4 0xDDCA3F43 EQ PUSH2 0x3D7 JUMPI DUP1 PUSH4 0xE63A391F EQ PUSH2 0x3F5 JUMPI DUP1 PUSH4 0xF2FDE38B EQ PUSH2 0x413 JUMPI PUSH2 0x182 JUMP JUMPDEST DUP1 PUSH4 0xCC3C0F06 EQ PUSH2 0x359 JUMPI DUP1 PUSH4 0xDA19DDFB EQ PUSH2 0x389 JUMPI DUP1 PUSH4 0xDB200205 EQ PUSH2 0x3A7 JUMPI PUSH2 0x182 JUMP JUMPDEST DUP1 PUSH4 0x8DA5CB5B GT PUSH2 0xBD JUMPI DUP1 PUSH4 0x8DA5CB5B EQ PUSH2 0x301 JUMPI DUP1 PUSH4 0xA8602FEA EQ PUSH2 0x31F JUMPI DUP1 PUSH4 0xAFFED0E0 EQ PUSH2 0x33B JUMPI PUSH2 0x182 JUMP JUMPDEST DUP1 PUSH4 0x8456CB59 EQ PUSH2 0x2D9 JUMPI DUP1 PUSH4 0x8488BB4E EQ PUSH2 0x2E3 JUMPI PUSH2 0x182 JUMP JUMPDEST DUP1 PUSH4 0x4626402B GT PUSH2 0x13A JUMPI DUP1 PUSH4 0x6B8F9C43 GT PUSH2 0x114 JUMPI DUP1 PUSH4 0x6B8F9C43 EQ PUSH2 0x285 JUMPI DUP1 PUSH4 0x6ED31D09 EQ PUSH2 0x2A1 JUMPI DUP1 PUSH4 0x7CB64759 EQ PUSH2 0x2BD JUMPI PUSH2 0x182 JUMP JUMPDEST DUP1 PUSH4 0x4626402B EQ PUSH2 0x219 JUMPI DUP1 PUSH4 0x572B6C05 EQ PUSH2 0x237 JUMPI DUP1 PUSH4 0x5C975ABB EQ PUSH2 0x267 JUMPI PUSH2 0x182 JUMP JUMPDEST DUP1 PUSH4 0x2B4C9F16 GT PUSH2 0x16B JUMPI DUP1 PUSH4 0x2B4C9F16 EQ PUSH2 0x1D3 JUMPI DUP1 PUSH4 0x3A5AF339 EQ PUSH2 0x1F1 JUMPI DUP1 PUSH4 0x3F4BA83A EQ PUSH2 0x20F JUMPI PUSH2 0x182 JUMP JUMPDEST DUP1 PUSH4 0x1FFC9A7 EQ PUSH2 0x187 JUMPI DUP1 PUSH4 0x21C3DF25 EQ PUSH2 0x1B7 JUMPI JUMPDEST PUSH1 0x0 DUP1 REVERT JUMPDEST PUSH2 0x1A1 PUSH1 0x4 DUP1 CALLDATASIZE SUB DUP2 ADD SWAP1 PUSH2 0x19C SWAP2 SWAP1 PUSH2 0x1BEE JUMP JUMPDEST PUSH2 0x42F JUMP JUMPDEST PUSH1 0x40 MLOAD PUSH2 0x1AE SWAP2 SWAP1 PUSH2 0x1C36 JUMP JUMPDEST PUSH1 0x40 MLOAD DUP1 SWAP2 SUB SWAP1 RETURN JUMPDEST PUSH2 0x1D1 PUSH1 0x4 DUP1 CALLDATASIZE SUB DUP2 ADD SWAP1 PUSH2 0x1CC SWAP2 SWAP1 PUSH2 0x1D4A JUMP JUMPDEST PUSH2 0x452 JUMP JUMPDEST STOP JUMPDEST PUSH2 0x1DB PUSH2 0x7CE JUMP JUMPDEST PUSH1 0x40 MLOAD PUSH2 0x1E8 SWAP2 SWAP1 PUSH2 0x1E31 JUMP JUMPDEST PUSH1 0x40 MLOAD DUP1 SWAP2 SUB SWAP1 RETURN JUMPDEST PUSH2 0x1F9 PUSH2 0x7F6 JUMP JUMPDEST PUSH1 0x40 MLOAD PUSH2 0x206 SWAP2 SWAP1 PUSH2 0x1E5B JUMP JUMPDEST PUSH1 0x40 MLOAD DUP1 SWAP2 SUB SWAP1 RETURN JUMPDEST PUSH2 0x217 PUSH2 0x81A JUMP JUMPDEST STOP JUMPDEST PUSH2 0x221 PUSH2 0x84D JUMP JUMPDEST PUSH1 0x40 MLOAD PUSH2 0x22E SWAP2 SWAP1 PUSH2 0x1E5B JUMP JUMPDEST PUSH1 0x40 MLOAD DUP1 SWAP2 SUB SWAP1 RETURN JUMPDEST PUSH2 0x251 PUSH1 0x4 DUP1 CALLDATASIZE SUB DUP2 ADD SWAP1 PUSH2 0x24C SWAP2 SWAP1 PUSH2 0x1E76 JUMP JUMPDEST PUSH2 0x873 JUMP JUMPDEST PUSH1 0x40 MLOAD PUSH2 0x25E SWAP2 SWAP1 PUSH2 0x1C36 JUMP JUMPDEST PUSH1 0x40 MLOAD DUP1 SWAP2 SUB SWAP1 RETURN JUMPDEST PUSH2 0x26F PUSH2 0x8CB JUMP JUMPDEST PUSH1 0x40 MLOAD PUSH2 0x27C SWAP2 SWAP1 PUSH2 0x1C36 JUMP JUMPDEST PUSH1 0x40 MLOAD DUP1 SWAP2 SUB SWAP1 RETURN JUMPDEST PUSH2 0x29F PUSH1 0x4 DUP1 CALLDATASIZE SUB DUP2 ADD SWAP1 PUSH2 0x29A SWAP2 SWAP1 PUSH2 0x1E76 JUMP JUMPDEST PUSH2 0x8E2 JUMP JUMPDEST STOP JUMPDEST PUSH2 0x2BB PUSH1 0x4 DUP1 CALLDATASIZE SUB DUP2 ADD SWAP1 PUSH2 0x2B6 SWAP2 SWAP1 PUSH2 0x1D4A JUMP JUMPDEST PUSH2 0xA02 JUMP JUMPDEST STOP JUMPDEST PUSH2 0x2D7 PUSH1 0x4 DUP1 CALLDATASIZE SUB DUP2 ADD SWAP1 PUSH2 0x2D2 SWAP2 SWAP1 PUSH2 0x1ED9 JUMP JUMPDEST PUSH2 0xC2E JUMP JUMPDEST STOP JUMPDEST PUSH2 0x2E1 PUSH2 0xD68 JUMP JUMPDEST STOP JUMPDEST PUSH2 0x2EB PUSH2 0xD9B JUMP JUMPDEST PUSH1 0x40 MLOAD PUSH2 0x2F8 SWAP2 SWAP1 PUSH2 0x1E5B JUMP JUMPDEST PUSH1 0x40 MLOAD DUP1 SWAP2 SUB SWAP1 RETURN JUMPDEST PUSH2 0x309 PUSH2 0xDC1 JUMP JUMPDEST PUSH1 0x40 MLOAD PUSH2 0x316 SWAP2 SWAP1 PUSH2 0x1E5B JUMP JUMPDEST PUSH1 0x40 MLOAD DUP1 SWAP2 SUB SWAP1 RETURN JUMPDEST PUSH2 0x339 PUSH1 0x4 DUP1 CALLDATASIZE SUB DUP2 ADD SWAP1 PUSH2 0x334 SWAP2 SWAP1 PUSH2 0x1E76 JUMP JUMPDEST PUSH2 0xDD8 JUMP JUMPDEST STOP JUMPDEST PUSH2 0x343 PUSH2 0xEF8 JUMP JUMPDEST PUSH1 0x40 MLOAD PUSH2 0x350 SWAP2 SWAP1 PUSH2 0x1F15 JUMP JUMPDEST PUSH1 0x40 MLOAD DUP1 SWAP2 SUB SWAP1 RETURN JUMPDEST PUSH2 0x373 PUSH1 0x4 DUP1 CALLDATASIZE SUB DUP2 ADD SWAP1 PUSH2 0x36E SWAP2 SWAP1 PUSH2 0x1ED9 JUMP JUMPDEST PUSH2 0xEFE JUMP JUMPDEST PUSH1 0x40 MLOAD PUSH2 0x380 SWAP2 SWAP1 PUSH2 0x1C36 JUMP JUMPDEST PUSH1 0x40 MLOAD DUP1 SWAP2 SUB SWAP1 RETURN JUMPDEST PUSH2 0x391 PUSH2 0xF1E JUMP JUMPDEST PUSH1 0x40 MLOAD PUSH2 0x39E SWAP2 SWAP1 PUSH2 0x1E5B JUMP JUMPDEST PUSH1 0x40 MLOAD DUP1 SWAP2 SUB SWAP1 RETURN JUMPDEST PUSH2 0x3C1 PUSH1 0x4 DUP1 CALLDATASIZE SUB DUP2 ADD SWAP1 PUSH2 0x3BC SWAP2 SWAP1 PUSH2 0x1F30 JUMP JUMPDEST PUSH2 0xF42 JUMP JUMPDEST PUSH1 0x40 MLOAD PUSH2 0x3CE SWAP2 SWAP1 PUSH2 0x1F6C JUMP JUMPDEST PUSH1 0x40 MLOAD DUP1 SWAP2 SUB SWAP1 RETURN JUMPDEST PUSH2 0x3DF PUSH2 0xF5A JUMP JUMPDEST PUSH1 0x40 MLOAD PUSH2 0x3EC SWAP2 SWAP1 PUSH2 0x1FAE JUMP JUMPDEST PUSH1 0x40 MLOAD DUP1 SWAP2 SUB SWAP1 RETURN JUMPDEST PUSH2 0x3FD PUSH2 0xF78 JUMP JUMPDEST PUSH1 0x40 MLOAD PUSH2 0x40A SWAP2 SWAP1 PUSH2 0x1F15 JUMP JUMPDEST PUSH1 0x40 MLOAD DUP1 SWAP2 SUB SWAP1 RETURN JUMPDEST PUSH2 0x42D PUSH1 0x4 DUP1 CALLDATASIZE SUB DUP2 ADD SWAP1 PUSH2 0x428 SWAP2 SWAP1 PUSH2 0x1E76 JUMP JUMPDEST PUSH2 0xF7E JUMP JUMPDEST STOP JUMPDEST PUSH1 0x0 PUSH2 0x44B DUP3 PUSH2 0x43D PUSH2 0xFA4 JUMP JUMPDEST PUSH2 0xFE3 SWAP1 SWAP2 SWAP1 PUSH4 0xFFFFFFFF AND JUMP JUMPDEST SWAP1 POP SWAP2 SWAP1 POP JUMP JUMPDEST PUSH2 0x466 PUSH8 0x78A933CA72BB7DBC PUSH1 0xC0 SHL PUSH2 0x1112 JUMP JUMPDEST PUSH2 0x47A PUSH8 0x9035F8F98FE4B1E1 PUSH1 0xC0 SHL PUSH2 0x1112 JUMP JUMPDEST PUSH2 0x48E PUSH8 0xA0F21499B3C32B73 PUSH1 0xC0 SHL PUSH2 0x1112 JUMP JUMPDEST PUSH1 0x0 PUSH2 0x49D DUP7 DUP7 DUP7 DUP7 DUP7 PUSH2 0x1115 JUMP JUMPDEST SWAP1 POP PUSH2 0x4B3 PUSH8 0xA984774AA3943EAF PUSH1 0xC0 SHL PUSH2 0x1112 JUMP JUMPDEST PUSH2 0x4C7 PUSH8 0x712E2BBCC7F9AFCE PUSH1 0xC0 SHL PUSH2 0x1112 JUMP JUMPDEST PUSH1 0x0 PUSH1 0x2 PUSH1 0x0 SWAP1 SLOAD SWAP1 PUSH2 0x100 EXP SWAP1 DIV PUSH20 0xFFFFFFFFFFFFFFFFFFFFFFFFFFFFFFFFFFFFFFFF AND SWAP1 POP PUSH2 0x502 PUSH8 0x5810C450C4878B08 PUSH1 0xC0 SHL PUSH2 0x1112 JUMP JUMPDEST PUSH2 0x516 PUSH8 0x3171E5520ACB297C PUSH1 0xC0 SHL PUSH2 0x1112 JUMP JUMPDEST PUSH1 0x0 PUSH2 0x2710 PUSH1 0x4 PUSH1 0x14 SWAP1 SLOAD SWAP1 PUSH2 0x100 EXP SWAP1 DIV PUSH12 0xFFFFFFFFFFFFFFFFFFFFFFFF AND PUSH12 0xFFFFFFFFFFFFFFFFFFFFFFFF AND DUP9 PUSH2 0x54F SWAP2 SWAP1 PUSH2 0x1FF8 JUMP JUMPDEST PUSH2 0x559 SWAP2 SWAP1 PUSH2 0x2069 JUMP JUMPDEST SWAP1 POP PUSH2 0x56F PUSH8 0xBBD9522296412B5C PUSH1 0xC0 SHL PUSH2 0x1112 JUMP JUMPDEST PUSH2 0x583 PUSH8 0x9298961C7A33FCBD PUSH1 0xC0 SHL PUSH2 0x1112 JUMP JUMPDEST PUSH1 0x0 DUP2 DUP9 PUSH2 0x591 SWAP2 SWAP1 PUSH2 0x209A JUMP JUMPDEST SWAP1 POP PUSH2 0x5A7 PUSH8 0xE912E15F0A67591A PUSH1 0xC0 SHL PUSH2 0x1112 JUMP JUMPDEST PUSH2 0x5BB PUSH8 0xE24634582E52C89C PUSH1 0xC0 SHL PUSH2 0x1112 JUMP JUMPDEST PUSH32 0x0 PUSH20 0xFFFFFFFFFFFFFFFFFFFFFFFFFFFFFFFFFFFFFFFF AND PUSH4 0xB88D4FDE DUP5 DUP12 DUP5 PUSH1 0x40 MLOAD DUP5 PUSH4 0xFFFFFFFF AND PUSH1 0xE0 SHL DUP2 MSTORE PUSH1 0x4 ADD PUSH2 0x618 SWAP4 SWAP3 SWAP2 SWAP1 PUSH2 0x2105 JUMP JUMPDEST PUSH1 0x20 PUSH1 0x40 MLOAD DUP1 DUP4 SUB DUP2 PUSH1 0x0 DUP8 GAS CALL ISZERO DUP1 ISZERO PUSH2 0x637 JUMPI RETURNDATASIZE PUSH1 0x0 DUP1 RETURNDATACOPY RETURNDATASIZE PUSH1 0x0 REVERT JUMPDEST POP POP POP POP PUSH1 0x40 MLOAD RETURNDATASIZE PUSH1 0x1F NOT PUSH1 0x1F DUP3 ADD AND DUP3 ADD DUP1 PUSH1 0x40 MSTORE POP DUP2 ADD SWAP1 PUSH2 0x65B SWAP2 SWAP1 PUSH2 0x217B JUMP JUMPDEST POP PUSH2 0x670 PUSH8 0x6D12824CAA331EAC PUSH1 0xC0 SHL PUSH2 0x1112 JUMP JUMPDEST PUSH2 0x684 PUSH8 0xFDBDC225FF6E7E61 PUSH1 0xC0 SHL PUSH2 0x1112 JUMP JUMPDEST PUSH32 0x0 PUSH20 0xFFFFFFFFFFFFFFFFFFFFFFFFFFFFFFFFFFFFFFFF AND PUSH4 0xB88D4FDE DUP5 PUSH1 0x4 PUSH1 0x0 SWAP1 SLOAD SWAP1 PUSH2 0x100 EXP SWAP1 DIV PUSH20 0xFFFFFFFFFFFFFFFFFFFFFFFFFFFFFFFFFFFFFFFF AND DUP6 PUSH1 0x40 MLOAD DUP5 PUSH4 0xFFFFFFFF AND PUSH1 0xE0 SHL DUP2 MSTORE PUSH1 0x4 ADD PUSH2 0x703 SWAP4 SWAP3 SWAP2 SWAP1 PUSH2 0x2105 JUMP JUMPDEST PUSH1 0x20 PUSH1 0x40 MLOAD DUP1 DUP4 SUB DUP2 PUSH1 0x0 DUP8 GAS CALL ISZERO DUP1 ISZERO PUSH2 0x722 JUMPI RETURNDATASIZE PUSH1 0x0 DUP1 RETURNDATACOPY RETURNDATASIZE PUSH1 0x0 REVERT JUMPDEST POP POP POP POP PUSH1 0x40 MLOAD RETURNDATASIZE PUSH1 0x1F NOT PUSH1 0x1F DUP3 ADD AND DUP3 ADD DUP1 PUSH1 0x40 MSTORE POP DUP2 ADD SWAP1 PUSH2 0x746 SWAP2 SWAP1 PUSH2 0x217B JUMP JUMPDEST POP PUSH2 0x75B PUSH8 0x32E24239E34AD1D1 PUSH1 0xC0 SHL PUSH2 0x1112 JUMP JUMPDEST PUSH2 0x76F PUSH8 0x99E45FDC9469E712 PUSH1 0xC0 SHL PUSH2 0x1112 JUMP JUMPDEST DUP3 PUSH20 0xFFFFFFFFFFFFFFFFFFFFFFFFFFFFFFFFFFFFFFFF AND DUP5 DUP9 PUSH32 0x4198E253C4AE311BC3D0C7ACA40CB1A9827879CA09DC5F3A430127C736748F18 DUP13 DUP6 DUP8 PUSH1 0x40 MLOAD PUSH2 0x7BB SWAP4 SWAP3 SWAP2 SWAP1 PUSH2 0x21A8 JUMP JUMPDEST PUSH1 0x40 MLOAD DUP1 SWAP2 SUB SWAP1 LOG4 POP POP POP POP POP POP POP POP POP JUMP JUMPDEST PUSH1 0x0 PUSH32 0x0 SWAP1 POP SWAP1 JUMP JUMPDEST PUSH32 0x0 DUP2 JUMP JUMPDEST PUSH2 0x83B PUSH2 0x825 PUSH2 0x1512 JUMP JUMPDEST PUSH2 0x82D PUSH2 0x155D JUMP JUMPDEST PUSH2 0x159C SWAP1 SWAP2 SWAP1 PUSH4 0xFFFFFFFF AND JUMP JUMPDEST PUSH2 0x84B PUSH2 0x846 PUSH2 0x1634 JUMP JUMPDEST PUSH2 0x1673 JUMP JUMPDEST JUMP JUMPDEST PUSH1 0x4 PUSH1 0x0 SWAP1 SLOAD SWAP1 PUSH2 0x100 EXP SWAP1 DIV PUSH20 0xFFFFFFFFFFFFFFFFFFFFFFFFFFFFFFFFFFFFFFFF AND DUP2 JUMP JUMPDEST PUSH1 0x0 PUSH32 0x0 PUSH20 0xFFFFFFFFFFFFFFFFFFFFFFFFFFFFFFFFFFFFFFFF AND DUP3 PUSH20 0xFFFFFFFFFFFFFFFFFFFFFFFFFFFFFFFFFFFFFFFF AND EQ SWAP1 POP SWAP2 SWAP1 POP JUMP JUMPDEST PUSH1 0x0 PUSH2 0x8DD PUSH2 0x8D8 PUSH2 0x1634 JUMP JUMPDEST PUSH2 0x16C8 JUMP JUMPDEST SWAP1 POP SWAP1 JUMP JUMPDEST PUSH2 0x8F6 PUSH8 0x928C33F27D01033F PUSH1 0xC0 SHL PUSH2 0x1112 JUMP JUMPDEST PUSH2 0x90A PUSH8 0x8D1614DCAECD1D84 PUSH1 0xC0 SHL PUSH2 0x1112 JUMP JUMPDEST PUSH2 0x91E PUSH8 0x443EAD99E20AF348 PUSH1 0xC0 SHL PUSH2 0x1112 JUMP JUMPDEST PUSH2 0x93F PUSH2 0x929 PUSH2 0x1512 JUMP JUMPDEST PUSH2 0x931 PUSH2 0x155D JUMP JUMPDEST PUSH2 0x159C SWAP1 SWAP2 SWAP1 PUSH4 0xFFFFFFFF AND JUMP JUMPDEST PUSH2 0x953 PUSH8 0xD653C1DDA23CB426 PUSH1 0xC0 SHL PUSH2 0x1112 JUMP JUMPDEST DUP1 PUSH1 0x2 PUSH1 0x0 PUSH2 0x100 EXP DUP2 SLOAD DUP2 PUSH20 0xFFFFFFFFFFFFFFFFFFFFFFFFFFFFFFFFFFFFFFFF MUL NOT AND SWAP1 DUP4 PUSH20 0xFFFFFFFFFFFFFFFFFFFFFFFFFFFFFFFFFFFFFFFF AND MUL OR SWAP1 SSTORE POP PUSH2 0x9A8 PUSH8 0x600CF39EB0995067 PUSH1 0xC0 SHL PUSH2 0x1112 JUMP JUMPDEST PUSH2 0x9BC PUSH8 0x13B3BDFB30A95ACD PUSH1 0xC0 SHL PUSH2 0x1112 JUMP JUMPDEST DUP1 PUSH20 0xFFFFFFFFFFFFFFFFFFFFFFFFFFFFFFFFFFFFFFFF AND PUSH32 0xDD880D24A789958A6398C99C2E54CE31BC10A638CBC42F7DD34285479AE0F855 PUSH1 0x40 MLOAD PUSH1 0x40 MLOAD DUP1 SWAP2 SUB SWAP1 LOG2 POP JUMP JUMPDEST PUSH2 0xA16 PUSH8 0x1FA9A34F82F569F5 PUSH1 0xC0 SHL PUSH2 0x1112 JUMP JUMPDEST PUSH2 0xA2A PUSH8 0xCCDF7FC425AE651C PUSH1 0xC0 SHL PUSH2 0x1112 JUMP JUMPDEST PUSH2 0xA3E PUSH8 0x7BBFC81B5D113884 PUSH1 0xC0 SHL PUSH2 0x1112 JUMP JUMPDEST PUSH1 0x0 PUSH2 0xA4D DUP7 DUP7 DUP7 DUP7 DUP7 PUSH2 0x1115 JUMP JUMPDEST SWAP1 POP PUSH2 0xA63 PUSH8 0xD6FCE75F5BB99349 PUSH1 0xC0 SHL PUSH2 0x1112 JUMP JUMPDEST PUSH2 0xA77 PUSH8 0xFE8125BD1E7535FF PUSH1 0xC0 SHL PUSH2 0x1112 JUMP JUMPDEST PUSH1 0x0 PUSH1 0x2 PUSH1 0x0 SWAP1 SLOAD SWAP1 PUSH2 0x100 EXP SWAP1 DIV PUSH20 0xFFFFFFFFFFFFFFFFFFFFFFFFFFFFFFFFFFFFFFFF AND SWAP1 POP PUSH2 0xAB2 PUSH8 0x12E3A3940B2ED1CB PUSH1 0xC0 SHL PUSH2 0x1112 JUMP JUMPDEST PUSH2 0xAC6 PUSH8 0xC8511A1845337B17 PUSH1 0xC0 SHL PUSH2 0x1112 JUMP JUMPDEST PUSH32 0x0 PUSH20 0xFFFFFFFFFFFFFFFFFFFFFFFFFFFFFFFFFFFFFFFF AND PUSH4 0xB88D4FDE DUP3 PUSH32 0x0 DUP10 DUP12 PUSH1 0x40 MLOAD PUSH1 0x20 ADD PUSH2 0xB36 SWAP2 SWAP1 PUSH2 0x1E5B JUMP JUMPDEST PUSH1 0x40 MLOAD PUSH1 0x20 DUP2 DUP4 SUB SUB DUP2 MSTORE SWAP1 PUSH1 0x40 MSTORE PUSH1 0x40 MLOAD DUP6 PUSH4 0xFFFFFFFF AND PUSH1 0xE0 SHL DUP2 MSTORE PUSH1 0x4 ADD PUSH2 0xB64 SWAP5 SWAP4 SWAP3 SWAP2 SWAP1 PUSH2 0x225E JUMP JUMPDEST PUSH1 0x20 PUSH1 0x40 MLOAD DUP1 DUP4 SUB DUP2 PUSH1 0x0 DUP8 GAS CALL ISZERO DUP1 ISZERO PUSH2 0xB83 JUMPI RETURNDATASIZE PUSH1 0x0 DUP1 RETURNDATACOPY RETURNDATASIZE PUSH1 0x0 REVERT JUMPDEST POP POP POP POP PUSH1 0x40 MLOAD RETURNDATASIZE PUSH1 0x1F NOT PUSH1 0x1F DUP3 ADD AND DUP3 ADD DUP1 PUSH1 0x40 MSTORE POP DUP2 ADD SWAP1 PUSH2 0xBA7 SWAP2 SWAP1 PUSH2 0x217B JUMP JUMPDEST POP PUSH2 0xBBC PUSH8 0x471763F08E05D1F4 PUSH1 0xC0 SHL PUSH2 0x1112 JUMP JUMPDEST PUSH2 0xBD0 PUSH8 0x465A0A91B88C8594 PUSH1 0xC0 SHL PUSH2 0x1112 JUMP JUMPDEST DUP1 PUSH20 0xFFFFFFFFFFFFFFFFFFFFFFFFFFFFFFFFFFFFFFFF AND DUP3 DUP7 PUSH32 0x4198E253C4AE311BC3D0C7ACA40CB1A9827879CA09DC5F3A430127C736748F18 DUP11 DUP11 PUSH1 0x0 PUSH1 0x40 MLOAD PUSH2 0xC1D SWAP4 SWAP3 SWAP2 SWAP1 PUSH2 0x22E5 JUMP JUMPDEST PUSH1 0x40 MLOAD DUP1 SWAP2 SUB SWAP1 LOG4 POP POP POP POP POP POP POP JUMP JUMPDEST PUSH2 0xC42 PUSH8 0x6990F6D6E5BDC505 PUSH1 0xC0 SHL PUSH2 0x1112 JUMP JUMPDEST PUSH2 0xC56 PUSH8 0x5EC09081B65B9D26 PUSH1 0xC0 SHL PUSH2 0x1112 JUMP JUMPDEST PUSH2 0xC6A PUSH8 0x237470C49CD9AE2A PUSH1 0xC0 SHL PUSH2 0x1112 JUMP JUMPDEST PUSH2 0xC8B PUSH2 0xC75 PUSH2 0x1512 JUMP JUMPDEST PUSH2 0xC7D PUSH2 0x155D JUMP JUMPDEST PUSH2 0x159C SWAP1 SWAP2 SWAP1 PUSH4 0xFFFFFFFF AND JUMP JUMPDEST PUSH2 0xC9F PUSH8 0xB7F67D7449FEF357 PUSH1 0xC0 SHL PUSH2 0x1112 JUMP JUMPDEST PUSH2 0xCB3 PUSH8 0x5E80F1A38095B0F2 PUSH1 0xC0 SHL PUSH2 0x1112 JUMP JUMPDEST PUSH1 0x0 DUP1 SLOAD SWAP1 POP PUSH2 0xCCD PUSH8 0x77AD003A196F9275 PUSH1 0xC0 SHL PUSH2 0x1112 JUMP JUMPDEST DUP2 PUSH1 0x1 PUSH1 0x0 DUP4 DUP2 MSTORE PUSH1 0x20 ADD SWAP1 DUP2 MSTORE PUSH1 0x20 ADD PUSH1 0x0 KECCAK256 DUP2 SWAP1 SSTORE POP PUSH2 0xCF9 PUSH8 0xA0B843D6B512DDE9 PUSH1 0xC0 SHL PUSH2 0x1112 JUMP JUMPDEST PUSH1 0x0 DUP1 DUP2 SLOAD PUSH2 0xD07 SWAP1 PUSH2 0x231C JUMP JUMPDEST SWAP2 SWAP1 POP DUP2 SWAP1 SSTORE POP PUSH2 0xD22 PUSH8 0x6FA1815D9989536E PUSH1 0xC0 SHL PUSH2 0x1112 JUMP JUMPDEST PUSH2 0xD36 PUSH8 0x5A0122B50355BD9 PUSH1 0xC0 SHL PUSH2 0x1112 JUMP JUMPDEST DUP2 DUP2 PUSH32 0xB04B7D6145A7588FDCF339A22877D5965F861C171204FC37688058C5F6C06D3B PUSH1 0x40 MLOAD PUSH1 0x40 MLOAD DUP1 SWAP2 SUB SWAP1 LOG3 POP POP JUMP JUMPDEST PUSH2 0xD89 PUSH2 0xD73 PUSH2 0x1512 JUMP JUMPDEST PUSH2 0xD7B PUSH2 0x155D JUMP JUMPDEST PUSH2 0x159C SWAP1 SWAP2 SWAP1 PUSH4 0xFFFFFFFF AND JUMP JUMPDEST PUSH2 0xD99 PUSH2 0xD94 PUSH2 0x1634 JUMP JUMPDEST PUSH2 0x16E3 JUMP JUMPDEST JUMP JUMPDEST PUSH1 0x2 PUSH1 0x0 SWAP1 SLOAD SWAP1 PUSH2 0x100 EXP SWAP1 DIV PUSH20 0xFFFFFFFFFFFFFFFFFFFFFFFFFFFFFFFFFFFFFFFF AND DUP2 JUMP JUMPDEST PUSH1 0x0 PUSH2 0xDD3 PUSH2 0xDCE PUSH2 0x155D JUMP JUMPDEST PUSH2 0x1738 JUMP JUMPDEST SWAP1 POP SWAP1 JUMP JUMPDEST PUSH2 0xDEC PUSH8 0xAA0A42F500F709B PUSH1 0xC0 SHL PUSH2 0x1112 JUMP JUMPDEST PUSH2 0xE00 PUSH8 0x5AA1F6791F6B4224 PUSH1 0xC0 SHL PUSH2 0x1112 JUMP JUMPDEST PUSH2 0xE14 PUSH8 0x54B4F7E0FAD144E3 PUSH1 0xC0 SHL PUSH2 0x1112 JUMP JUMPDEST PUSH2 0xE35 PUSH2 0xE1F PUSH2 0x1512 JUMP JUMPDEST PUSH2 0xE27 PUSH2 0x155D JUMP JUMPDEST PUSH2 0x159C SWAP1 SWAP2 SWAP1 PUSH4 0xFFFFFFFF AND JUMP JUMPDEST PUSH2 0xE49 PUSH8 0x180557669567288 PUSH1 0xC0 SHL PUSH2 0x1112 JUMP JUMPDEST DUP1 PUSH1 0x4 PUSH1 0x0 PUSH2 0x100 EXP DUP2 SLOAD DUP2 PUSH20 0xFFFFFFFFFFFFFFFFFFFFFFFFFFFFFFFFFFFFFFFF MUL NOT AND SWAP1 DUP4 PUSH20 0xFFFFFFFFFFFFFFFFFFFFFFFFFFFFFFFFFFFFFFFF AND MUL OR SWAP1 SSTORE POP PUSH2 0xE9E PUSH8 0xA512D3BA837CC4E5 PUSH1 0xC0 SHL PUSH2 0x1112 JUMP JUMPDEST PUSH2 0xEB2 PUSH8 0x86A2DE4E8066DBFC PUSH1 0xC0 SHL PUSH2 0x1112 JUMP JUMPDEST DUP1 PUSH20 0xFFFFFFFFFFFFFFFFFFFFFFFFFFFFFFFFFFFFFFFF AND PUSH32 0x5695F8B02F5F53D02B408DB3ED952C16F32F9701AD2691C44733F2A2D09225A9 PUSH1 0x40 MLOAD PUSH1 0x40 MLOAD DUP1 SWAP2 SUB SWAP1 LOG2 POP JUMP JUMPDEST PUSH1 0x0 SLOAD DUP2 JUMP JUMPDEST PUSH1 0x3 PUSH1 0x20 MSTORE DUP1 PUSH1 0x0 MSTORE PUSH1 0x40 PUSH1 0x0 KECCAK256 PUSH1 0x0 SWAP2 POP SLOAD SWAP1 PUSH2 0x100 EXP SWAP1 DIV PUSH1 0xFF AND DUP2 JUMP JUMPDEST PUSH32 0x0 DUP2 JUMP JUMPDEST PUSH1 0x1 PUSH1 0x20 MSTORE DUP1 PUSH1 0x0 MSTORE PUSH1 0x40 PUSH1 0x0 KECCAK256 PUSH1 0x0 SWAP2 POP SWAP1 POP SLOAD DUP2 JUMP JUMPDEST PUSH1 0x4 PUSH1 0x14 SWAP1 SLOAD SWAP1 PUSH2 0x100 EXP SWAP1 DIV PUSH12 0xFFFFFFFFFFFFFFFFFFFFFFFF AND DUP2 JUMP JUMPDEST PUSH2 0x2710 DUP2 JUMP JUMPDEST PUSH2 0xFA1 PUSH2 0xF89 PUSH2 0x1512 JUMP JUMPDEST DUP3 PUSH2 0xF92 PUSH2 0x155D JUMP JUMPDEST PUSH2 0x1766 SWAP1 SWAP3 SWAP2 SWAP1 PUSH4 0xFFFFFFFF AND JUMP JUMPDEST POP JUMP JUMPDEST PUSH1 0x0 DUP1 PUSH1 0x1 PUSH32 0xCA9D3E17F264B0F3984E2634E94ADB37FA3E6A8103F06AEAE6FA59E21C769F5E PUSH1 0x0 SHR PUSH2 0xFD7 SWAP2 SWAP1 PUSH2 0x209A JUMP JUMPDEST PUSH1 0x0 SHL SWAP1 POP DUP1 SWAP2 POP POP SWAP1 JUMP JUMPDEST PUSH1 0x0 PUSH4 0xFFFFFFFF PUSH1 0xE0 SHL PUSH28 0xFFFFFFFFFFFFFFFFFFFFFFFFFFFFFFFFFFFFFFFFFFFFFFFFFFFFFFFF NOT AND DUP3 PUSH28 0xFFFFFFFFFFFFFFFFFFFFFFFFFFFFFFFFFFFFFFFFFFFFFFFFFFFFFFFF NOT AND SUB PUSH2 0x103A JUMPI PUSH1 0x0 SWAP1 POP PUSH2 0x110C JUMP JUMPDEST PUSH32 0x1FFC9A700000000000000000000000000000000000000000000000000000000 PUSH28 0xFFFFFFFFFFFFFFFFFFFFFFFFFFFFFFFFFFFFFFFFFFFFFFFFFFFFFFFF NOT AND DUP3 PUSH28 0xFFFFFFFFFFFFFFFFFFFFFFFFFFFFFFFFFFFFFFFFFFFFFFFFFFFFFFFF NOT AND SUB PUSH2 0x10A8 JUMPI PUSH1 0x1 SWAP1 POP PUSH2 0x110C JUMP JUMPDEST DUP3 PUSH1 0x0 ADD PUSH1 0x0 DUP4 PUSH28 0xFFFFFFFFFFFFFFFFFFFFFFFFFFFFFFFFFFFFFFFFFFFFFFFFFFFFFFFF NOT AND PUSH28 0xFFFFFFFFFFFFFFFFFFFFFFFFFFFFFFFFFFFFFFFFFFFFFFFFFFFFFFFF NOT AND DUP2 MSTORE PUSH1 0x20 ADD SWAP1 DUP2 MSTORE PUSH1 0x20 ADD PUSH1 0x0 KECCAK256 PUSH1 0x0 SWAP1 SLOAD SWAP1 PUSH2 0x100 EXP SWAP1 DIV PUSH1 0xFF AND SWAP1 POP JUMPDEST SWAP3 SWAP2 POP POP JUMP JUMPDEST POP JUMP JUMPDEST PUSH1 0x0 PUSH2 0x112B PUSH8 0xA7327F453AD50321 PUSH1 0xC0 SHL PUSH2 0x1112 JUMP JUMPDEST PUSH2 0x113F PUSH8 0x75C662761029A29 PUSH1 0xC0 SHL PUSH2 0x1112 JUMP JUMPDEST PUSH2 0x1153 PUSH8 0xBF28AB16E133C086 PUSH1 0xC0 SHL PUSH2 0x1112 JUMP JUMPDEST PUSH1 0x0 DUP6 SUB PUSH2 0x11C0 JUMPI PUSH2 0x116F PUSH8 0x97603388AB818C28 PUSH1 0xC0 SHL PUSH2 0x1112 JUMP JUMPDEST PUSH2 0x1183 PUSH8 0x9FB27415628391D8 PUSH1 0xC0 SHL PUSH2 0x1112 JUMP JUMPDEST DUP5 PUSH1 0x40 MLOAD PUSH32 0x27AB1EE200000000000000000000000000000000000000000000000000000000 DUP2 MSTORE PUSH1 0x4 ADD PUSH2 0x11B7 SWAP2 SWAP1 PUSH2 0x1F15 JUMP JUMPDEST PUSH1 0x40 MLOAD DUP1 SWAP2 SUB SWAP1 REVERT JUMPDEST PUSH2 0x11D4 PUSH8 0xE04A91DAF0131D6B PUSH1 0xC0 SHL PUSH2 0x1112 JUMP JUMPDEST PUSH2 0x11E8 PUSH8 0xDEC24D517C734C96 PUSH1 0xC0 SHL PUSH2 0x1112 JUMP JUMPDEST PUSH2 0x11FC PUSH8 0xD66B1D07ECAB5B33 PUSH1 0xC0 SHL PUSH2 0x1112 JUMP JUMPDEST PUSH2 0x120C PUSH2 0x1207 PUSH2 0x1634 JUMP JUMPDEST PUSH2 0x18D6 JUMP JUMPDEST PUSH2 0x1220 PUSH8 0xAC81A3BC0E1C4600 PUSH1 0xC0 SHL PUSH2 0x1112 JUMP JUMPDEST PUSH1 0x1 PUSH1 0x0 DUP6 DUP2 MSTORE PUSH1 0x20 ADD SWAP1 DUP2 MSTORE PUSH1 0x20 ADD PUSH1 0x0 KECCAK256 SLOAD SWAP1 POP PUSH2 0x124A PUSH8 0xA83ABCC386F1AF51 PUSH1 0xC0 SHL PUSH2 0x1112 JUMP JUMPDEST PUSH2 0x125E PUSH8 0xF64CD1C6F7DDAF1C PUSH1 0xC0 SHL PUSH2 0x1112 JUMP JUMPDEST PUSH1 0x0 DUP1 SHL DUP2 SUB PUSH2 0x12CD JUMPI PUSH2 0x127C PUSH8 0x4FD05AE2DE49F15F PUSH1 0xC0 SHL PUSH2 0x1112 JUMP JUMPDEST PUSH2 0x1290 PUSH8 0x3C3AB8F20EB36F58 PUSH1 0xC0 SHL PUSH2 0x1112 JUMP JUMPDEST DUP4 PUSH1 0x40 MLOAD PUSH32 0xAB4A793900000000000000000000000000000000000000000000000000000000 DUP2 MSTORE PUSH1 0x4 ADD PUSH2 0x12C4 SWAP2 SWAP1 PUSH2 0x1F15 JUMP JUMPDEST PUSH1 0x40 MLOAD DUP1 SWAP2 SUB SWAP1 REVERT JUMPDEST PUSH2 0x12E1 PUSH8 0x2824FFB85F095205 PUSH1 0xC0 SHL PUSH2 0x1112 JUMP JUMPDEST PUSH2 0x12F5 PUSH8 0xEFD8F9E092FF2BAC PUSH1 0xC0 SHL PUSH2 0x1112 JUMP JUMPDEST PUSH2 0x1309 PUSH8 0x632EBA0C04B014F7 PUSH1 0xC0 SHL PUSH2 0x1112 JUMP JUMPDEST PUSH1 0x0 DUP7 DUP7 DUP7 PUSH1 0x40 MLOAD PUSH1 0x20 ADD PUSH2 0x1320 SWAP4 SWAP3 SWAP2 SWAP1 PUSH2 0x23CD JUMP JUMPDEST PUSH1 0x40 MLOAD PUSH1 0x20 DUP2 DUP4 SUB SUB DUP2 MSTORE SWAP1 PUSH1 0x40 MSTORE DUP1 MLOAD SWAP1 PUSH1 0x20 ADD KECCAK256 SWAP1 POP PUSH2 0x134C PUSH8 0x1E43010EE891C024 PUSH1 0xC0 SHL PUSH2 0x1112 JUMP JUMPDEST PUSH2 0x1360 PUSH8 0x993C2E012C4CEF69 PUSH1 0xC0 SHL PUSH2 0x1112 JUMP JUMPDEST PUSH2 0x137C DUP3 DUP3 DUP7 DUP7 PUSH2 0x1922 SWAP2 SWAP1 SWAP4 SWAP3 SWAP2 SWAP1 SWAP4 SWAP3 SWAP2 SWAP1 PUSH4 0xFFFFFFFF AND JUMP JUMPDEST PUSH2 0x13E9 JUMPI PUSH2 0x1394 PUSH8 0x5AA8DC0B94B40E83 PUSH1 0xC0 SHL PUSH2 0x1112 JUMP JUMPDEST PUSH2 0x13A8 PUSH8 0x92A4BF13CB61E1E7 PUSH1 0xC0 SHL PUSH2 0x1112 JUMP JUMPDEST DUP7 DUP7 DUP7 PUSH1 0x40 MLOAD PUSH32 0x3C6EE01B00000000000000000000000000000000000000000000000000000000 DUP2 MSTORE PUSH1 0x4 ADD PUSH2 0x13E0 SWAP4 SWAP3 SWAP2 SWAP1 PUSH2 0x21A8 JUMP JUMPDEST PUSH1 0x40 MLOAD DUP1 SWAP2 SUB SWAP1 REVERT JUMPDEST PUSH2 0x13FD PUSH8 0x781D0A12FC2B6FA2 PUSH1 0xC0 SHL PUSH2 0x1112 JUMP JUMPDEST PUSH2 0x1411 PUSH8 0xB0431C2E7F238662 PUSH1 0xC0 SHL PUSH2 0x1112 JUMP JUMPDEST PUSH2 0x1425 PUSH8 0x8BA5900C37248F9 PUSH1 0xC0 SHL PUSH2 0x1112 JUMP JUMPDEST PUSH1 0x3 PUSH1 0x0 DUP3 DUP2 MSTORE PUSH1 0x20 ADD SWAP1 DUP2 MSTORE PUSH1 0x20 ADD PUSH1 0x0 KECCAK256 PUSH1 0x0 SWAP1 SLOAD SWAP1 PUSH2 0x100 EXP SWAP1 DIV PUSH1 0xFF AND ISZERO PUSH2 0x14B4 JUMPI PUSH2 0x145F PUSH8 0x814B93850C5C56AD PUSH1 0xC0 SHL PUSH2 0x1112 JUMP JUMPDEST PUSH2 0x1473 PUSH8 0x73133859A92FF364 PUSH1 0xC0 SHL PUSH2 0x1112 JUMP JUMPDEST DUP7 DUP7 DUP7 PUSH1 0x40 MLOAD PUSH32 0x6508823200000000000000000000000000000000000000000000000000000000 DUP2 MSTORE PUSH1 0x4 ADD PUSH2 0x14AB SWAP4 SWAP3 SWAP2 SWAP1 PUSH2 0x21A8 JUMP JUMPDEST PUSH1 0x40 MLOAD DUP1 SWAP2 SUB SWAP1 REVERT JUMPDEST PUSH2 0x14C8 PUSH8 0xAFC2D03B49A4484E PUSH1 0xC0 SHL PUSH2 0x1112 JUMP JUMPDEST PUSH2 0x14DC PUSH8 0x43515CBAA4995DEB PUSH1 0xC0 SHL PUSH2 0x1112 JUMP JUMPDEST PUSH1 0x1 PUSH1 0x3 PUSH1 0x0 DUP4 DUP2 MSTORE PUSH1 0x20 ADD SWAP1 DUP2 MSTORE PUSH1 0x20 ADD PUSH1 0x0 KECCAK256 PUSH1 0x0 PUSH2 0x100 EXP DUP2 SLOAD DUP2 PUSH1 0xFF MUL NOT AND SWAP1 DUP4 ISZERO ISZERO MUL OR SWAP1 SSTORE POP POP SWAP6 SWAP5 POP POP POP POP POP JUMP JUMPDEST PUSH1 0x0 PUSH2 0x1528 PUSH8 0xBBD9C07B9847E90C PUSH1 0xC0 SHL PUSH2 0x1112 JUMP JUMPDEST PUSH2 0x153C PUSH8 0x4061A9D6377A14CB PUSH1 0xC0 SHL PUSH2 0x1112 JUMP JUMPDEST PUSH2 0x1550 PUSH8 0xF0891DF5316503F2 PUSH1 0xC0 SHL PUSH2 0x1112 JUMP JUMPDEST PUSH2 0x1558 PUSH2 0x193B JUMP JUMPDEST SWAP1 POP SWAP1 JUMP JUMPDEST PUSH1 0x0 DUP1 PUSH1 0x1 PUSH32 0xC9ED16F33AB3A66C84BFD83099CCB2A8845871E2E1C1928F63797152F0FD54CD PUSH1 0x0 SHR PUSH2 0x1590 SWAP2 SWAP1 PUSH2 0x209A JUMP JUMPDEST PUSH1 0x0 SHL SWAP1 POP DUP1 SWAP2 POP POP SWAP1 JUMP JUMPDEST DUP2 PUSH1 0x0 ADD PUSH1 0x0 SWAP1 SLOAD SWAP1 PUSH2 0x100 EXP SWAP1 DIV PUSH20 0xFFFFFFFFFFFFFFFFFFFFFFFFFFFFFFFFFFFFFFFF AND PUSH20 0xFFFFFFFFFFFFFFFFFFFFFFFFFFFFFFFFFFFFFFFF AND DUP2 PUSH20 0xFFFFFFFFFFFFFFFFFFFFFFFFFFFFFFFFFFFFFFFF AND EQ PUSH2 0x1630 JUMPI DUP1 PUSH1 0x40 MLOAD PUSH32 0x2EF4875E00000000000000000000000000000000000000000000000000000000 DUP2 MSTORE PUSH1 0x4 ADD PUSH2 0x1627 SWAP2 SWAP1 PUSH2 0x1E5B JUMP JUMPDEST PUSH1 0x40 MLOAD DUP1 SWAP2 SUB SWAP1 REVERT JUMPDEST POP POP JUMP JUMPDEST PUSH1 0x0 DUP1 PUSH1 0x1 PUSH32 0x186A05F63B1553398AD5EA3233C0CE68B8C9EECC47717F123C5C2B42FBD6D9F PUSH1 0x0 SHR PUSH2 0x1667 SWAP2 SWAP1 PUSH2 0x209A JUMP JUMPDEST PUSH1 0x0 SHL SWAP1 POP DUP1 SWAP2 POP POP SWAP1 JUMP JUMPDEST PUSH2 0x167C DUP2 PUSH2 0x1A9E JUMP JUMPDEST PUSH1 0x0 DUP2 PUSH1 0x0 ADD PUSH1 0x0 PUSH2 0x100 EXP DUP2 SLOAD DUP2 PUSH1 0xFF MUL NOT AND SWAP1 DUP4 ISZERO ISZERO MUL OR SWAP1 SSTORE POP PUSH32 0x7805862F689E2F13DF9F062FF482AD3AD112ACA9E0847911ED832E158C525B33 PUSH1 0x40 MLOAD PUSH1 0x40 MLOAD DUP1 SWAP2 SUB SWAP1 LOG1 POP JUMP JUMPDEST PUSH1 0x0 DUP2 PUSH1 0x0 ADD PUSH1 0x0 SWAP1 SLOAD SWAP1 PUSH2 0x100 EXP SWAP1 DIV PUSH1 0xFF AND SWAP1 POP SWAP2 SWAP1 POP JUMP JUMPDEST PUSH2 0x16EC DUP2 PUSH2 0x18D6 JUMP JUMPDEST PUSH1 0x1 DUP2 PUSH1 0x0 ADD PUSH1 0x0 PUSH2 0x100 EXP DUP2 SLOAD DUP2 PUSH1 0xFF MUL NOT AND SWAP1 DUP4 ISZERO ISZERO MUL OR SWAP1 SSTORE POP PUSH32 0x6985A02210A168E66602D3235CB6DB0E70F92B3BA4D376A33C0F3D9434BFF625 PUSH1 0x40 MLOAD PUSH1 0x40 MLOAD DUP1 SWAP2 SUB SWAP1 LOG1 POP JUMP JUMPDEST PUSH1 0x0 DUP2 PUSH1 0x0 ADD PUSH1 0x0 SWAP1 SLOAD SWAP1 PUSH2 0x100 EXP SWAP1 DIV PUSH20 0xFFFFFFFFFFFFFFFFFFFFFFFFFFFFFFFFFFFFFFFF AND SWAP1 POP SWAP2 SWAP1 POP JUMP JUMPDEST PUSH1 0x0 DUP4 PUSH1 0x0 ADD PUSH1 0x0 SWAP1 SLOAD SWAP1 PUSH2 0x100 EXP SWAP1 DIV PUSH20 0xFFFFFFFFFFFFFFFFFFFFFFFFFFFFFFFFFFFFFFFF AND SWAP1 POP DUP1 PUSH20 0xFFFFFFFFFFFFFFFFFFFFFFFFFFFFFFFFFFFFFFFF AND DUP4 PUSH20 0xFFFFFFFFFFFFFFFFFFFFFFFFFFFFFFFFFFFFFFFF AND EQ PUSH2 0x17FF JUMPI DUP3 PUSH1 0x40 MLOAD PUSH32 0x2EF4875E00000000000000000000000000000000000000000000000000000000 DUP2 MSTORE PUSH1 0x4 ADD PUSH2 0x17F6 SWAP2 SWAP1 PUSH2 0x1E5B JUMP JUMPDEST PUSH1 0x40 MLOAD DUP1 SWAP2 SUB SWAP1 REVERT JUMPDEST DUP2 PUSH20 0xFFFFFFFFFFFFFFFFFFFFFFFFFFFFFFFFFFFFFFFF AND DUP2 PUSH20 0xFFFFFFFFFFFFFFFFFFFFFFFFFFFFFFFFFFFFFFFF AND EQ PUSH2 0x18D0 JUMPI DUP2 DUP5 PUSH1 0x0 ADD PUSH1 0x0 PUSH2 0x100 EXP DUP2 SLOAD DUP2 PUSH20 0xFFFFFFFFFFFFFFFFFFFFFFFFFFFFFFFFFFFFFFFF MUL NOT AND SWAP1 DUP4 PUSH20 0xFFFFFFFFFFFFFFFFFFFFFFFFFFFFFFFFFFFFFFFF AND MUL OR SWAP1 SSTORE POP DUP2 PUSH20 0xFFFFFFFFFFFFFFFFFFFFFFFFFFFFFFFFFFFFFFFF AND DUP2 PUSH20 0xFFFFFFFFFFFFFFFFFFFFFFFFFFFFFFFFFFFFFFFF AND PUSH32 0x8BE0079C531659141344CD1FD0A4F28419497F9722A3DAAFE3B4186F6B6457E0 PUSH1 0x40 MLOAD PUSH1 0x40 MLOAD DUP1 SWAP2 SUB SWAP1 LOG3 JUMPDEST POP POP POP POP JUMP JUMPDEST DUP1 PUSH1 0x0 ADD PUSH1 0x0 SWAP1 SLOAD SWAP1 PUSH2 0x100 EXP SWAP1 DIV PUSH1 0xFF AND ISZERO PUSH2 0x191F JUMPI PUSH1 0x40 MLOAD PUSH32 0x9E87FAC800000000000000000000000000000000000000000000000000000000 DUP2 MSTORE PUSH1 0x4 ADD PUSH1 0x40 MLOAD DUP1 SWAP2 SUB SWAP1 REVERT JUMPDEST POP JUMP JUMPDEST PUSH1 0x0 DUP3 PUSH2 0x1930 DUP7 DUP7 DUP6 PUSH2 0x1AE9 JUMP JUMPDEST EQ SWAP1 POP SWAP5 SWAP4 POP POP POP POP JUMP JUMPDEST PUSH1 0x0 ORIGIN PUSH20 0xFFFFFFFFFFFFFFFFFFFFFFFFFFFFFFFFFFFFFFFF AND CALLER PUSH20 0xFFFFFFFFFFFFFFFFFFFFFFFFFFFFFFFFFFFFFFFF AND EQ DUP1 PUSH2 0x197B JUMPI POP PUSH1 0x18 PUSH1 0x0 CALLDATASIZE SWAP1 POP LT JUMPDEST ISZERO PUSH2 0x1988 JUMPI CALLER SWAP1 POP PUSH2 0x1A9B JUMP JUMPDEST PUSH1 0x0 PUSH2 0x1992 PUSH2 0x1B3B JUMP JUMPDEST SWAP1 POP PUSH32 0x0 PUSH20 0xFFFFFFFFFFFFFFFFFFFFFFFFFFFFFFFFFFFFFFFF AND CALLER PUSH20 0xFFFFFFFFFFFFFFFFFFFFFFFFFFFFFFFFFFFFFFFF AND EQ DUP1 PUSH2 0x1A88 JUMPI POP PUSH32 0x0 PUSH20 0xFFFFFFFFFFFFFFFFFFFFFFFFFFFFFFFFFFFFFFFF AND PUSH4 0x19A2028 DUP3 CALLER ADDRESS PUSH1 0x40 MLOAD DUP5 PUSH4 0xFFFFFFFF AND PUSH1 0xE0 SHL DUP2 MSTORE PUSH1 0x4 ADD PUSH2 0x1A46 SWAP4 SWAP3 SWAP2 SWAP1 PUSH2 0x240A JUMP JUMPDEST PUSH1 0x20 PUSH1 0x40 MLOAD DUP1 DUP4 SUB DUP2 DUP7 GAS STATICCALL ISZERO DUP1 ISZERO PUSH2 0x1A63 JUMPI RETURNDATASIZE PUSH1 0x0 DUP1 RETURNDATACOPY RETURNDATASIZE PUSH1 0x0 REVERT JUMPDEST POP POP POP POP PUSH1 0x40 MLOAD RETURNDATASIZE PUSH1 0x1F NOT PUSH1 0x1F DUP3 ADD AND DUP3 ADD DUP1 PUSH1 0x40 MSTORE POP DUP2 ADD SWAP1 PUSH2 0x1A87 SWAP2 SWAP1 PUSH2 0x217B JUMP JUMPDEST JUMPDEST ISZERO PUSH2 0x1A96 JUMPI DUP1 SWAP2 POP POP PUSH2 0x1A9B JUMP JUMPDEST CALLER SWAP2 POP POP JUMPDEST SWAP1 JUMP JUMPDEST DUP1 PUSH1 0x0 ADD PUSH1 0x0 SWAP1 SLOAD SWAP1 PUSH2 0x100 EXP SWAP1 DIV PUSH1 0xFF AND PUSH2 0x1AE6 JUMPI PUSH1 0x40 MLOAD PUSH32 0x6CD6020100000000000000000000000000000000000000000000000000000000 DUP2 MSTORE PUSH1 0x4 ADD PUSH1 0x40 MLOAD DUP1 SWAP2 SUB SWAP1 REVERT JUMPDEST POP JUMP JUMPDEST PUSH1 0x0 DUP1 DUP3 SWAP1 POP PUSH1 0x0 JUMPDEST DUP6 DUP6 SWAP1 POP DUP2 LT ISZERO PUSH2 0x1B2F JUMPI PUSH2 0x1B20 DUP3 DUP8 DUP8 DUP5 DUP2 DUP2 LT PUSH2 0x1B14 JUMPI PUSH2 0x1B13 PUSH2 0x2441 JUMP JUMPDEST JUMPDEST SWAP1 POP PUSH1 0x20 MUL ADD CALLDATALOAD PUSH2 0x1B4A JUMP JUMPDEST SWAP2 POP DUP1 DUP1 PUSH1 0x1 ADD SWAP2 POP POP PUSH2 0x1AF2 JUMP JUMPDEST POP DUP1 SWAP2 POP POP SWAP4 SWAP3 POP POP POP JUMP JUMPDEST PUSH1 0x0 PUSH1 0x14 CALLDATASIZE SUB CALLDATALOAD PUSH1 0x60 SHR SWAP1 POP SWAP1 JUMP JUMPDEST PUSH1 0x0 DUP2 DUP4 LT PUSH2 0x1B62 JUMPI PUSH2 0x1B5D DUP3 DUP5 PUSH2 0x1B75 JUMP JUMPDEST PUSH2 0x1B6D JUMP JUMPDEST PUSH2 0x1B6C DUP4 DUP4 PUSH2 0x1B75 JUMP JUMPDEST JUMPDEST SWAP1 POP SWAP3 SWAP2 POP POP JUMP JUMPDEST PUSH1 0x0 DUP3 PUSH1 0x0 MSTORE DUP2 PUSH1 0x20 MSTORE PUSH1 0x40 PUSH1 0x0 KECCAK256 SWAP1 POP SWAP3 SWAP2 POP POP JUMP JUMPDEST PUSH1 0x0 DUP1 REVERT JUMPDEST PUSH1 0x0 DUP1 REVERT JUMPDEST PUSH1 0x0 PUSH32 0xFFFFFFFF00000000000000000000000000000000000000000000000000000000 DUP3 AND SWAP1 POP SWAP2 SWAP1 POP JUMP JUMPDEST PUSH2 0x1BCB DUP2 PUSH2 0x1B96 JUMP JUMPDEST DUP2 EQ PUSH2 0x1BD6 JUMPI PUSH1 0x0 DUP1 REVERT JUMPDEST POP JUMP JUMPDEST PUSH1 0x0 DUP2 CALLDATALOAD SWAP1 POP PUSH2 0x1BE8 DUP2 PUSH2 0x1BC2 JUMP JUMPDEST SWAP3 SWAP2 POP POP JUMP JUMPDEST PUSH1 0x0 PUSH1 0x20 DUP3 DUP5 SUB SLT ISZERO PUSH2 0x1C04 JUMPI PUSH2 0x1C03 PUSH2 0x1B8C JUMP JUMPDEST JUMPDEST PUSH1 0x0 PUSH2 0x1C12 DUP5 DUP3 DUP6 ADD PUSH2 0x1BD9 JUMP JUMPDEST SWAP2 POP POP SWAP3 SWAP2 POP POP JUMP JUMPDEST PUSH1 0x0 DUP2 ISZERO ISZERO SWAP1 POP SWAP2 SWAP1 POP JUMP JUMPDEST PUSH2 0x1C30 DUP2 PUSH2 0x1C1B JUMP JUMPDEST DUP3 MSTORE POP POP JUMP JUMPDEST PUSH1 0x0 PUSH1 0x20 DUP3 ADD SWAP1 POP PUSH2 0x1C4B PUSH1 0x0 DUP4 ADD DUP5 PUSH2 0x1C27 JUMP JUMPDEST SWAP3 SWAP2 POP POP JUMP JUMPDEST PUSH1 0x0 PUSH20 0xFFFFFFFFFFFFFFFFFFFFFFFFFFFFFFFFFFFFFFFF DUP3 AND SWAP1 POP SWAP2 SWAP1 POP JUMP JUMPDEST PUSH1 0x0 PUSH2 0x1C7C DUP3 PUSH2 0x1C51 JUMP JUMPDEST SWAP1 POP SWAP2 SWAP1 POP JUMP JUMPDEST PUSH2 0x1C8C DUP2 PUSH2 0x1C71 JUMP JUMPDEST DUP2 EQ PUSH2 0x1C97 JUMPI PUSH1 0x0 DUP1 REVERT JUMPDEST POP JUMP JUMPDEST PUSH1 0x0 DUP2 CALLDATALOAD SWAP1 POP PUSH2 0x1CA9 DUP2 PUSH2 0x1C83 JUMP JUMPDEST SWAP3 SWAP2 POP POP JUMP JUMPDEST PUSH1 0x0 DUP2 SWAP1 POP SWAP2 SWAP1 POP JUMP JUMPDEST PUSH2 0x1CC2 DUP2 PUSH2 0x1CAF JUMP JUMPDEST DUP2 EQ PUSH2 0x1CCD JUMPI PUSH1 0x0 DUP1 REVERT JUMPDEST POP JUMP JUMPDEST PUSH1 0x0 DUP2 CALLDATALOAD SWAP1 POP PUSH2 0x1CDF DUP2 PUSH2 0x1CB9 JUMP JUMPDEST SWAP3 SWAP2 POP POP JUMP JUMPDEST PUSH1 0x0 DUP1 REVERT JUMPDEST PUSH1 0x0 DUP1 REVERT JUMPDEST PUSH1 0x0 DUP1 REVERT JUMPDEST PUSH1 0x0 DUP1 DUP4 PUSH1 0x1F DUP5 ADD SLT PUSH2 0x1D0A JUMPI PUSH2 0x1D09 PUSH2 0x1CE5 JUMP JUMPDEST JUMPDEST DUP3 CALLDATALOAD SWAP1 POP PUSH8 0xFFFFFFFFFFFFFFFF DUP2 GT ISZERO PUSH2 0x1D27 JUMPI PUSH2 0x1D26 PUSH2 0x1CEA JUMP JUMPDEST JUMPDEST PUSH1 0x20 DUP4 ADD SWAP2 POP DUP4 PUSH1 0x20 DUP3 MUL DUP4 ADD GT ISZERO PUSH2 0x1D43 JUMPI PUSH2 0x1D42 PUSH2 0x1CEF JUMP JUMPDEST JUMPDEST SWAP3 POP SWAP3 SWAP1 POP JUMP JUMPDEST PUSH1 0x0 DUP1 PUSH1 0x0 DUP1 PUSH1 0x0 PUSH1 0x80 DUP7 DUP9 SUB SLT ISZERO PUSH2 0x1D66 JUMPI PUSH2 0x1D65 PUSH2 0x1B8C JUMP JUMPDEST JUMPDEST PUSH1 0x0 PUSH2 0x1D74 DUP9 DUP3 DUP10 ADD PUSH2 0x1C9A JUMP JUMPDEST SWAP6 POP POP PUSH1 0x20 PUSH2 0x1D85 DUP9 DUP3 DUP10 ADD PUSH2 0x1CD0 JUMP JUMPDEST SWAP5 POP POP PUSH1 0x40 PUSH2 0x1D96 DUP9 DUP3 DUP10 ADD PUSH2 0x1CD0 JUMP JUMPDEST SWAP4 POP POP PUSH1 0x60 DUP7 ADD CALLDATALOAD PUSH8 0xFFFFFFFFFFFFFFFF DUP2 GT ISZERO PUSH2 0x1DB7 JUMPI PUSH2 0x1DB6 PUSH2 0x1B91 JUMP JUMPDEST JUMPDEST PUSH2 0x1DC3 DUP9 DUP3 DUP10 ADD PUSH2 0x1CF4 JUMP JUMPDEST SWAP3 POP SWAP3 POP POP SWAP3 SWAP6 POP SWAP3 SWAP6 SWAP1 SWAP4 POP JUMP JUMPDEST PUSH1 0x0 DUP2 SWAP1 POP SWAP2 SWAP1 POP JUMP JUMPDEST PUSH1 0x0 PUSH2 0x1DF7 PUSH2 0x1DF2 PUSH2 0x1DED DUP5 PUSH2 0x1C51 JUMP JUMPDEST PUSH2 0x1DD2 JUMP JUMPDEST PUSH2 0x1C51 JUMP JUMPDEST SWAP1 POP SWAP2 SWAP1 POP JUMP JUMPDEST PUSH1 0x0 PUSH2 0x1E09 DUP3 PUSH2 0x1DDC JUMP JUMPDEST SWAP1 POP SWAP2 SWAP1 POP JUMP JUMPDEST PUSH1 0x0 PUSH2 0x1E1B DUP3 PUSH2 0x1DFE JUMP JUMPDEST SWAP1 POP SWAP2 SWAP1 POP JUMP JUMPDEST PUSH2 0x1E2B DUP2 PUSH2 0x1E10 JUMP JUMPDEST DUP3 MSTORE POP POP JUMP JUMPDEST PUSH1 0x0 PUSH1 0x20 DUP3 ADD SWAP1 POP PUSH2 0x1E46 PUSH1 0x0 DUP4 ADD DUP5 PUSH2 0x1E22 JUMP JUMPDEST SWAP3 SWAP2 POP POP JUMP JUMPDEST PUSH2 0x1E55 DUP2 PUSH2 0x1C71 JUMP JUMPDEST DUP3 MSTORE POP POP JUMP JUMPDEST PUSH1 0x0 PUSH1 0x20 DUP3 ADD SWAP1 POP PUSH2 0x1E70 PUSH1 0x0 DUP4 ADD DUP5 PUSH2 0x1E4C JUMP JUMPDEST SWAP3 SWAP2 POP POP JUMP JUMPDEST PUSH1 0x0 PUSH1 0x20 DUP3 DUP5 SUB SLT ISZERO PUSH2 0x1E8C JUMPI PUSH2 0x1E8B PUSH2 0x1B8C JUMP JUMPDEST JUMPDEST PUSH1 0x0 PUSH2 0x1E9A DUP5 DUP3 DUP6 ADD PUSH2 0x1C9A JUMP JUMPDEST SWAP2 POP POP SWAP3 SWAP2 POP POP JUMP JUMPDEST PUSH1 0x0 DUP2 SWAP1 POP SWAP2 SWAP1 POP JUMP JUMPDEST PUSH2 0x1EB6 DUP2 PUSH2 0x1EA3 JUMP JUMPDEST DUP2 EQ PUSH2 0x1EC1 JUMPI PUSH1 0x0 DUP1 REVERT JUMPDEST POP JUMP JUMPDEST PUSH1 0x0 DUP2 CALLDATALOAD SWAP1 POP PUSH2 0x1ED3 DUP2 PUSH2 0x1EAD JUMP JUMPDEST SWAP3 SWAP2 POP POP JUMP JUMPDEST PUSH1 0x0 PUSH1 0x20 DUP3 DUP5 SUB SLT ISZERO PUSH2 0x1EEF JUMPI PUSH2 0x1EEE PUSH2 0x1B8C JUMP JUMPDEST JUMPDEST PUSH1 0x0 PUSH2 0x1EFD DUP5 DUP3 DUP6 ADD PUSH2 0x1EC4 JUMP JUMPDEST SWAP2 POP POP SWAP3 SWAP2 POP POP JUMP JUMPDEST PUSH2 0x1F0F DUP2 PUSH2 0x1CAF JUMP JUMPDEST DUP3 MSTORE POP POP JUMP JUMPDEST PUSH1 0x0 PUSH1 0x20 DUP3 ADD SWAP1 POP PUSH2 0x1F2A PUSH1 0x0 DUP4 ADD DUP5 PUSH2 0x1F06 JUMP JUMPDEST SWAP3 SWAP2 POP POP JUMP JUMPDEST PUSH1 0x0 PUSH1 0x20 DUP3 DUP5 SUB SLT ISZERO PUSH2 0x1F46 JUMPI PUSH2 0x1F45 PUSH2 0x1B8C JUMP JUMPDEST JUMPDEST PUSH1 0x0 PUSH2 0x1F54 DUP5 DUP3 DUP6 ADD PUSH2 0x1CD0 JUMP JUMPDEST SWAP2 POP POP SWAP3 SWAP2 POP POP JUMP JUMPDEST PUSH2 0x1F66 DUP2 PUSH2 0x1EA3 JUMP JUMPDEST DUP3 MSTORE POP POP JUMP JUMPDEST PUSH1 0x0 PUSH1 0x20 DUP3 ADD SWAP1 POP PUSH2 0x1F81 PUSH1 0x0 DUP4 ADD DUP5 PUSH2 0x1F5D JUMP JUMPDEST SWAP3 SWAP2 POP POP JUMP JUMPDEST PUSH1 0x0 PUSH12 0xFFFFFFFFFFFFFFFFFFFFFFFF DUP3 AND SWAP1 POP SWAP2 SWAP1 POP JUMP JUMPDEST PUSH2 0x1FA8 DUP2 PUSH2 0x1F87 JUMP JUMPDEST DUP3 MSTORE POP POP JUMP JUMPDEST PUSH1 0x0 PUSH1 0x20 DUP3 ADD SWAP1 POP PUSH2 0x1FC3 PUSH1 0x0 DUP4 ADD DUP5 PUSH2 0x1F9F JUMP JUMPDEST SWAP3 SWAP2 POP POP JUMP JUMPDEST PUSH32 0x4E487B7100000000000000000000000000000000000000000000000000000000 PUSH1 0x0 MSTORE PUSH1 0x11 PUSH1 0x4 MSTORE PUSH1 0x24 PUSH1 0x0 REVERT JUMPDEST PUSH1 0x0 PUSH2 0x2003 DUP3 PUSH2 0x1CAF JUMP JUMPDEST SWAP2 POP PUSH2 0x200E DUP4 PUSH2 0x1CAF JUMP JUMPDEST SWAP3 POP DUP3 DUP3 MUL PUSH2 0x201C DUP2 PUSH2 0x1CAF JUMP JUMPDEST SWAP2 POP DUP3 DUP3 DIV DUP5 EQ DUP4 ISZERO OR PUSH2 0x2033 JUMPI PUSH2 0x2032 PUSH2 0x1FC9 JUMP JUMPDEST JUMPDEST POP SWAP3 SWAP2 POP POP JUMP JUMPDEST PUSH32 0x4E487B7100000000000000000000000000000000000000000000000000000000 PUSH1 0x0 MSTORE PUSH1 0x12 PUSH1 0x4 MSTORE PUSH1 0x24 PUSH1 0x0 REVERT JUMPDEST PUSH1 0x0 PUSH2 0x2074 DUP3 PUSH2 0x1CAF JUMP JUMPDEST SWAP2 POP PUSH2 0x207F DUP4 PUSH2 0x1CAF JUMP JUMPDEST SWAP3 POP DUP3 PUSH2 0x208F JUMPI PUSH2 0x208E PUSH2 0x203A JUMP JUMPDEST JUMPDEST DUP3 DUP3 DIV SWAP1 POP SWAP3 SWAP2 POP POP JUMP JUMPDEST PUSH1 0x0 PUSH2 0x20A5 DUP3 PUSH2 0x1CAF JUMP JUMPDEST SWAP2 POP PUSH2 0x20B0 DUP4 PUSH2 0x1CAF JUMP JUMPDEST SWAP3 POP DUP3 DUP3 SUB SWAP1 POP DUP2 DUP2 GT ISZERO PUSH2 0x20C8 JUMPI PUSH2 0x20C7 PUSH2 0x1FC9 JUMP JUMPDEST JUMPDEST SWAP3 SWAP2 POP POP JUMP JUMPDEST PUSH1 0x0 DUP3 DUP3 MSTORE PUSH1 0x20 DUP3 ADD SWAP1 POP SWAP3 SWAP2 POP POP JUMP JUMPDEST POP JUMP JUMPDEST PUSH1 0x0 PUSH2 0x20EF PUSH1 0x0 DUP4 PUSH2 0x20CE JUMP JUMPDEST SWAP2 POP PUSH2 0x20FA DUP3 PUSH2 0x20DF JUMP JUMPDEST PUSH1 0x0 DUP3 ADD SWAP1 POP SWAP2 SWAP1 POP JUMP JUMPDEST PUSH1 0x0 PUSH1 0x80 DUP3 ADD SWAP1 POP PUSH2 0x211A PUSH1 0x0 DUP4 ADD DUP7 PUSH2 0x1E4C JUMP JUMPDEST PUSH2 0x2127 PUSH1 0x20 DUP4 ADD DUP6 PUSH2 0x1E4C JUMP JUMPDEST PUSH2 0x2134 PUSH1 0x40 DUP4 ADD DUP5 PUSH2 0x1F06 JUMP JUMPDEST DUP2 DUP2 SUB PUSH1 0x60 DUP4 ADD MSTORE PUSH2 0x2145 DUP2 PUSH2 0x20E2 JUMP JUMPDEST SWAP1 POP SWAP5 SWAP4 POP POP POP POP JUMP JUMPDEST PUSH2 0x2158 DUP2 PUSH2 0x1C1B JUMP JUMPDEST DUP2 EQ PUSH2 0x2163 JUMPI PUSH1 0x0 DUP1 REVERT JUMPDEST POP JUMP JUMPDEST PUSH1 0x0 DUP2 MLOAD SWAP1 POP PUSH2 0x2175 DUP2 PUSH2 0x214F JUMP JUMPDEST SWAP3 SWAP2 POP POP JUMP JUMPDEST PUSH1 0x0 PUSH1 0x20 DUP3 DUP5 SUB SLT ISZERO PUSH2 0x2191 JUMPI PUSH2 0x2190 PUSH2 0x1B8C JUMP JUMPDEST JUMPDEST PUSH1 0x0 PUSH2 0x219F DUP5 DUP3 DUP6 ADD PUSH2 0x2166 JUMP JUMPDEST SWAP2 POP POP SWAP3 SWAP2 POP POP JUMP JUMPDEST PUSH1 0x0 PUSH1 0x60 DUP3 ADD SWAP1 POP PUSH2 0x21BD PUSH1 0x0 DUP4 ADD DUP7 PUSH2 0x1E4C JUMP JUMPDEST PUSH2 0x21CA PUSH1 0x20 DUP4 ADD DUP6 PUSH2 0x1F06 JUMP JUMPDEST PUSH2 0x21D7 PUSH1 0x40 DUP4 ADD DUP5 PUSH2 0x1F06 JUMP JUMPDEST SWAP5 SWAP4 POP POP POP POP JUMP JUMPDEST PUSH1 0x0 DUP2 MLOAD SWAP1 POP SWAP2 SWAP1 POP JUMP JUMPDEST PUSH1 0x0 JUMPDEST DUP4 DUP2 LT ISZERO PUSH2 0x2208 JUMPI DUP1 DUP3 ADD MLOAD DUP2 DUP5 ADD MSTORE PUSH1 0x20 DUP2 ADD SWAP1 POP PUSH2 0x21ED JUMP JUMPDEST PUSH1 0x0 DUP5 DUP5 ADD MSTORE POP POP POP POP JUMP JUMPDEST PUSH1 0x0 PUSH1 0x1F NOT PUSH1 0x1F DUP4 ADD AND SWAP1 POP SWAP2 SWAP1 POP JUMP JUMPDEST PUSH1 0x0 PUSH2 0x2230 DUP3 PUSH2 0x21DF JUMP JUMPDEST PUSH2 0x223A DUP2 DUP6 PUSH2 0x20CE JUMP JUMPDEST SWAP4 POP PUSH2 0x224A DUP2 DUP6 PUSH1 0x20 DUP7 ADD PUSH2 0x21EA JUMP JUMPDEST PUSH2 0x2253 DUP2 PUSH2 0x2214 JUMP JUMPDEST DUP5 ADD SWAP2 POP POP SWAP3 SWAP2 POP POP JUMP JUMPDEST PUSH1 0x0 PUSH1 0x80 DUP3 ADD SWAP1 POP PUSH2 0x2273 PUSH1 0x0 DUP4 ADD DUP8 PUSH2 0x1E4C JUMP JUMPDEST PUSH2 0x2280 PUSH1 0x20 DUP4 ADD DUP7 PUSH2 0x1E4C JUMP JUMPDEST PUSH2 0x228D PUSH1 0x40 DUP4 ADD DUP6 PUSH2 0x1F06 JUMP JUMPDEST DUP2 DUP2 SUB PUSH1 0x60 DUP4 ADD MSTORE PUSH2 0x229F DUP2 DUP5 PUSH2 0x2225 JUMP JUMPDEST SWAP1 POP SWAP6 SWAP5 POP POP POP POP POP JUMP JUMPDEST PUSH1 0x0 DUP2 SWAP1 POP SWAP2 SWAP1 POP JUMP JUMPDEST PUSH1 0x0 PUSH2 0x22CF PUSH2 0x22CA PUSH2 0x22C5 DUP5 PUSH2 0x22AA JUMP JUMPDEST PUSH2 0x1DD2 JUMP JUMPDEST PUSH2 0x1CAF JUMP JUMPDEST SWAP1 POP SWAP2 SWAP1 POP JUMP JUMPDEST PUSH2 0x22DF DUP2 PUSH2 0x22B4 JUMP JUMPDEST DUP3 MSTORE POP POP JUMP JUMPDEST PUSH1 0x0 PUSH1 0x60 DUP3 ADD SWAP1 POP PUSH2 0x22FA PUSH1 0x0 DUP4 ADD DUP7 PUSH2 0x1E4C JUMP JUMPDEST PUSH2 0x2307 PUSH1 0x20 DUP4 ADD DUP6 PUSH2 0x1F06 JUMP JUMPDEST PUSH2 0x2314 PUSH1 0x40 DUP4 ADD DUP5 PUSH2 0x22D6 JUMP JUMPDEST SWAP5 SWAP4 POP POP POP POP JUMP JUMPDEST PUSH1 0x0 PUSH2 0x2327 DUP3 PUSH2 0x1CAF JUMP JUMPDEST SWAP2 POP PUSH32 0xFFFFFFFFFFFFFFFFFFFFFFFFFFFFFFFFFFFFFFFFFFFFFFFFFFFFFFFFFFFFFFFF DUP3 SUB PUSH2 0x2359 JUMPI PUSH2 0x2358 PUSH2 0x1FC9 JUMP JUMPDEST JUMPDEST PUSH1 0x1 DUP3 ADD SWAP1 POP SWAP2 SWAP1 POP JUMP JUMPDEST PUSH1 0x0 DUP2 PUSH1 0x60 SHL SWAP1 POP SWAP2 SWAP1 POP JUMP JUMPDEST PUSH1 0x0 PUSH2 0x237C DUP3 PUSH2 0x2364 JUMP JUMPDEST SWAP1 POP SWAP2 SWAP1 POP JUMP JUMPDEST PUSH1 0x0 PUSH2 0x238E DUP3 PUSH2 0x2371 JUMP JUMPDEST SWAP1 POP SWAP2 SWAP1 POP JUMP JUMPDEST PUSH2 0x23A6 PUSH2 0x23A1 DUP3 PUSH2 0x1C71 JUMP JUMPDEST PUSH2 0x2383 JUMP JUMPDEST DUP3 MSTORE POP POP JUMP JUMPDEST PUSH1 0x0 DUP2 SWAP1 POP SWAP2 SWAP1 POP JUMP JUMPDEST PUSH2 0x23C7 PUSH2 0x23C2 DUP3 PUSH2 0x1CAF JUMP JUMPDEST PUSH2 0x23AC JUMP JUMPDEST DUP3 MSTORE POP POP JUMP JUMPDEST PUSH1 0x0 PUSH2 0x23D9 DUP3 DUP7 PUSH2 0x2395 JUMP JUMPDEST PUSH1 0x14 DUP3 ADD SWAP2 POP PUSH2 0x23E9 DUP3 DUP6 PUSH2 0x23B6 JUMP JUMPDEST PUSH1 0x20 DUP3 ADD SWAP2 POP PUSH2 0x23F9 DUP3 DUP5 PUSH2 0x23B6 JUMP JUMPDEST PUSH1 0x20 DUP3 ADD SWAP2 POP DUP2 SWAP1 POP SWAP5 SWAP4 POP POP POP POP JUMP JUMPDEST PUSH1 0x0 PUSH1 0x60 DUP3 ADD SWAP1 POP PUSH2 0x241F PUSH1 0x0 DUP4 ADD DUP7 PUSH2 0x1E4C JUMP JUMPDEST PUSH2 0x242C PUSH1 0x20 DUP4 ADD DUP6 PUSH2 0x1E4C JUMP JUMPDEST PUSH2 0x2439 PUSH1 0x40 DUP4 ADD DUP5 PUSH2 0x1E4C JUMP JUMPDEST SWAP5 SWAP4 POP POP POP POP JUMP JUMPDEST PUSH32 0x4E487B7100000000000000000000000000000000000000000000000000000000 PUSH1 0x0 MSTORE PUSH1 0x32 PUSH1 0x4 MSTORE PUSH1 0x24 PUSH1 0x0 REVERT INVALID LOG2 PUSH5 0x6970667358 0x22 SLT KECCAK256 SLT 0x26 LT INVALID PUSH25 0x68801F2A98CD9231F997816152ED6E7358AFF973F5E24364EF 0xE6 SWAP11 PUSH5 0x736F6C6343 STOP ADDMOD SHR STOP CALLER "},"gasEstimates":{"creation":{"codeDepositCost":"1876400","executionCost":"infinite","totalCost":"infinite"},"external":{"FEE_PRECISION()":"395","REWARD_CONTRACT()":"infinite","STAKING_CONTRACT()":"infinite","claimPayout(address,uint256,uint256,bytes32[])":"infinite","claimPayoutAndStake(address,uint256,uint256,bytes32[])":"infinite","claimed(bytes32)":"2841","fee()":"2565","forwarderRegistry()":"infinite","isTrustedForwarder(address)":"infinite","nonce()":"2518","owner()":"infinite","pause()":"infinite","paused()":"infinite","payoutWallet()":"2582","rootMap(uint256)":"2854","setMerkleRoot(bytes32)":"infinite","setPayoutWallet(address)":"infinite","setTreasuryWallet(address)":"infinite","supportsInterface(bytes4)":"infinite","transferOwnership(address)":"infinite","treasuryWallet()":"2560","unpause()":"infinite"},"internal":{"_claim(address,uint256,uint256,bytes32[] calldata)":"infinite","_msgData()":"infinite","_msgSender()":"infinite","c_ea8990f1(bytes8)":"11","c_falseea8990f1(bytes8)":"infinite","c_trueea8990f1(bytes8)":"infinite"}},"methodIdentifiers":{"FEE_PRECISION()":"e63a391f","REWARD_CONTRACT()":"3a5af339","STAKING_CONTRACT()":"da19ddfb","claimPayout(address,uint256,uint256,bytes32[])":"21c3df25","claimPayoutAndStake(address,uint256,uint256,bytes32[])":"6ed31d09","claimed(bytes32)":"cc3c0f06","fee()":"ddca3f43","forwarderRegistry()":"2b4c9f16","isTrustedForwarder(address)":"572b6c05","nonce()":"affed0e0","owner()":"8da5cb5b","pause()":"8456cb59","paused()":"5c975abb","payoutWallet()":"8488bb4e","rootMap(uint256)":"db200205","setMerkleRoot(bytes32)":"7cb64759","setPayoutWallet(address)":"6b8f9c43","setTreasuryWallet(address)":"a8602fea","supportsInterface(bytes4)":"01ffc9a7","transferOwnership(address)":"f2fde38b","treasuryWallet()":"4626402b","unpause()":"3f4ba83a"}},"storageLayout":{"storage":[{"astId":4586,"contract":"contracts/merkleClaim/ERC20MerkleClaim.sol:ERC20MerkleClaim","label":"nonce","offset":0,"slot":"0","type":"t_uint256"},{"astId":4591,"contract":"contracts/merkleClaim/ERC20MerkleClaim.sol:ERC20MerkleClaim","label":"rootMap","offset":0,"slot":"1","type":"t_mapping(t_uint256,t_bytes32)"},{"astId":4594,"contract":"contracts/merkleClaim/ERC20MerkleClaim.sol:ERC20MerkleClaim","label":"payoutWallet","offset":0,"slot":"2","type":"t_address"},{"astId":4599,"contract":"contracts/merkleClaim/ERC20MerkleClaim.sol:ERC20MerkleClaim","label":"claimed","offset":0,"slot":"3","type":"t_mapping(t_bytes32,t_bool)"},{"astId":4602,"contract":"contracts/merkleClaim/ERC20MerkleClaim.sol:ERC20MerkleClaim","label":"treasuryWallet","offset":0,"slot":"4","type":"t_address"},{"astId":4605,"contract":"contracts/merkleClaim/ERC20MerkleClaim.sol:ERC20MerkleClaim","label":"fee","offset":20,"slot":"4","type":"t_uint96"}],"types":{"t_address":{"encoding":"inplace","label":"address","numberOfBytes":"20"},"t_bool":{"encoding":"inplace","label":"bool","numberOfBytes":"1"},"t_bytes32":{"encoding":"inplace","label":"bytes32","numberOfBytes":"32"},"t_mapping(t_bytes32,t_bool)":{"encoding":"mapping","key":"t_bytes32","label":"mapping(bytes32 => bool)","numberOfBytes":"32","value":"t_bool"},"t_mapping(t_uint256,t_bytes32)":{"encoding":"mapping","key":"t_uint256","label":"mapping(uint256 => bytes32)","numberOfBytes":"32","value":"t_bytes32"},"t_uint256":{"encoding":"inplace","label":"uint256","numberOfBytes":"32"},"t_uint96":{"encoding":"inplace","label":"uint96","numberOfBytes":"12"}}},"userdoc":{"errors":{"AlreadyClaimed(address,uint256,uint256)":[{"notice":"Thrown when trying to claim the same leaf more than once."}],"IllegalInterfaceId()":[{"notice":"Thrown when setting the illegal interfaceId 0xffffffff."}],"InvalidClaimAmount(uint256)":[{"notice":"Throws when the claim amount is zero."}],"InvalidFee()":[{"notice":"Thrown when the given fee is bigger than precision."}],"InvalidForwarderRegistry()":[{"notice":"Thrown when the given forwarder registry address is zero address."}],"InvalidPayoutWallet()":[{"notice":"Thrown when the given payout wallet address is zero address."}],"InvalidProof(address,uint256,uint256)":[{"notice":"Thrown when a proof cannot be verified."}],"InvalidRewardContract(address)":[{"notice":"Thrown when the reward contract address is invalid."}],"InvalidStakingContract(address)":[{"notice":"Thrown when the staking contract address is invalid."}],"InvalidTreasuryWallet()":[{"notice":"Thrown when the given treasury wallet address is zero address."}],"MerkleRootNotExists(uint256)":[{"notice":"Throws when the merkle root does not exist."}],"NotContractOwner(address)":[{"notice":"Thrown when an account is not the contract owner but is required to."}],"NotPaused()":[{"notice":"Thrown when the contract is not paused but is required to."}],"Paused()":[{"notice":"Thrown when the contract is paused but is required not to."}]},"events":{"MerkleRootSet(uint256,bytes32)":{"notice":"Emitted when a new merkle root is set."},"OwnershipTransferred(address,address)":{"notice":"Emitted when the contract ownership changes."},"Pause()":{"notice":"Emitted when the pause is triggered."},"PayoutClaimed(uint256,bytes32,address,address,uint256,uint256)":{"notice":"Emitted when a payout is claimed."},"PayoutWalletSet(address)":{"notice":"Emitted when a new payout wallet is set."},"TreasuryWalletSet(address)":{"notice":"Emitted when a new treasury wallet is set."},"Unpause()":{"notice":"Emitted when the pause is lifted."}},"kind":"user","methods":{"FEE_PRECISION()":{"notice":"Fee precision"},"REWARD_CONTRACT()":{"notice":"a reference to reward token contract"},"STAKING_CONTRACT()":{"notice":"a reference to staking contract"},"claimPayoutAndStake(address,uint256,uint256,bytes32[])":{"notice":"Executes the payout for a given recipient address (anyone can call this function)."},"claimed(bytes32)":{"notice":"leaf hash to claimed state"},"fee()":{"notice":"Store the fee percentage"},"isTrustedForwarder(address)":{"notice":"Checks whether a forwarder is trusted."},"nonce()":{"notice":"Store the nonce"},"owner()":{"notice":"Gets the address of the contract owner."},"pause()":{"notice":"Pauses the contract."},"paused()":{"notice":"Gets the paused state of the contract."},"payoutWallet()":{"notice":"Store the payout wallet address for transfering reward token"},"rootMap(uint256)":{"notice":"Store the merkle roots for claiming"},"setMerkleRoot(bytes32)":{"notice":"Sets the new merkle root for claiming."},"setPayoutWallet(address)":{"notice":"Sets the new payout wallet."},"setTreasuryWallet(address)":{"notice":"Sets the new treasury wallet."},"supportsInterface(bytes4)":{"notice":"Returns whether this contract implements a given interface."},"transferOwnership(address)":{"notice":"Sets the address of the new contract owner."},"treasuryWallet()":{"notice":"Store the treasury wallet address for fee"},"unpause()":{"notice":"Unpauses the contract."}},"version":1}}}}