{"contracts/merkleClaim/AnichessMultiplier.sol":{"AnichessMultiplier":{"abi":[{"inputs":[{"internalType":"contract IForwarderRegistry","name":"forwarderRegistry","type":"address"}],"stateMutability":"nonpayable","type":"constructor"},{"inputs":[{"internalType":"address","name":"recipient","type":"address"},{"internalType":"uint256","name":"batchId","type":"uint256"}],"name":"AlreadyClaimed","type":"error"},{"inputs":[],"name":"IllegalInterfaceId","type":"error"},{"inputs":[],"name":"InconsistentArrays","type":"error"},{"inputs":[{"internalType":"bytes32","name":"merkleRoot","type":"bytes32"}],"name":"InvalidMerkleRoot","type":"error"},{"inputs":[{"internalType":"uint256","name":"multiplier","type":"uint256"}],"name":"InvalidMultiplier","type":"error"},{"inputs":[{"internalType":"address","name":"recipient","type":"address"},{"internalType":"uint256","name":"batchId","type":"uint256"}],"name":"InvalidProof","type":"error"},{"inputs":[{"internalType":"bytes32","name":"merkleRoot","type":"bytes32"}],"name":"MerkleRootAlreadyExists","type":"error"},{"inputs":[{"internalType":"address","name":"account","type":"address"}],"name":"NotContractOwner","type":"error"},{"anonymous":false,"inputs":[{"indexed":true,"internalType":"address","name":"recipient","type":"address"},{"indexed":true,"internalType":"uint256","name":"batchId","type":"uint256"},{"indexed":false,"internalType":"uint256","name":"multiplier","type":"uint256"}],"name":"Claimed","type":"event"},{"anonymous":false,"inputs":[{"indexed":true,"internalType":"address","name":"previousOwner","type":"address"},{"indexed":true,"internalType":"address","name":"newOwner","type":"address"}],"name":"OwnershipTransferred","type":"event"},{"anonymous":false,"inputs":[{"indexed":true,"internalType":"bytes32","name":"merkleRoot","type":"bytes32"}],"name":"SetMerkleRoot","type":"event"},{"inputs":[{"internalType":"bytes32","name":"merkleRoot","type":"bytes32"},{"internalType":"bytes32[]","name":"proof","type":"bytes32[]"},{"internalType":"address","name":"recipient","type":"address"},{"internalType":"uint256","name":"multiplier","type":"uint256"},{"internalType":"uint256","name":"batchId","type":"uint256"}],"name":"claim","outputs":[],"stateMutability":"nonpayable","type":"function"},{"inputs":[{"internalType":"bytes32","name":"","type":"bytes32"}],"name":"claimStatus","outputs":[{"internalType":"bool","name":"","type":"bool"}],"stateMutability":"view","type":"function"},{"inputs":[],"name":"forwarderRegistry","outputs":[{"internalType":"contract IForwarderRegistry","name":"","type":"address"}],"stateMutability":"view","type":"function"},{"inputs":[{"internalType":"address","name":"wallet","type":"address"},{"internalType":"address[]","name":"tokens","type":"address[]"},{"internalType":"uint256[]","name":"ids","type":"uint256[]"}],"name":"getMultiplier","outputs":[{"internalType":"uint256","name":"multiplier","type":"uint256"}],"stateMutability":"view","type":"function"},{"inputs":[{"internalType":"address","name":"forwarder","type":"address"}],"name":"isTrustedForwarder","outputs":[{"internalType":"bool","name":"","type":"bool"}],"stateMutability":"view","type":"function"},{"inputs":[{"internalType":"bytes32","name":"","type":"bytes32"}],"name":"merkleRoots","outputs":[{"internalType":"bool","name":"","type":"bool"}],"stateMutability":"view","type":"function"},{"inputs":[{"internalType":"address","name":"","type":"address"}],"name":"multipliers","outputs":[{"internalType":"uint256","name":"","type":"uint256"}],"stateMutability":"view","type":"function"},{"inputs":[],"name":"owner","outputs":[{"internalType":"address","name":"","type":"address"}],"stateMutability":"view","type":"function"},{"inputs":[{"internalType":"bytes32","name":"merkleRoot","type":"bytes32"}],"name":"setMerkleRoot","outputs":[],"stateMutability":"nonpayable","type":"function"},{"inputs":[{"internalType":"address[]","name":"tokens","type":"address[]"},{"internalType":"uint256[][]","name":"tokenIds","type":"uint256[][]"},{"internalType":"uint256[][]","name":"_multipliers","type":"uint256[][]"}],"name":"setTokenMultipliers","outputs":[],"stateMutability":"nonpayable","type":"function"},{"inputs":[{"internalType":"bytes4","name":"interfaceId","type":"bytes4"}],"name":"supportsInterface","outputs":[{"internalType":"bool","name":"","type":"bool"}],"stateMutability":"view","type":"function"},{"inputs":[{"internalType":"address","name":"","type":"address"},{"internalType":"uint256","name":"","type":"uint256"}],"name":"tokenMultipliers","outputs":[{"internalType":"uint256","name":"","type":"uint256"}],"stateMutability":"view","type":"function"},{"inputs":[{"internalType":"address","name":"newOwner","type":"address"}],"name":"transferOwnership","outputs":[],"stateMutability":"nonpayable","type":"function"}],"devdoc":{"details":"This contract allows users to claim multiplier based on a Merkle proof","errors":{"NotContractOwner(address)":[{"params":{"account":"The account that was checked."}}]},"events":{"OwnershipTransferred(address,address)":{"params":{"newOwner":"the new contract owner.","previousOwner":"the previous contract owner."}}},"kind":"dev","methods":{"claim(bytes32,bytes32[],address,uint256,uint256)":{"params":{"merkleRoot":"The Merkle root for the claim.","proof":"The Merkle proof for the claim.","recipient":"The recipient of the payout."}},"constructor":{"params":{"forwarderRegistry":"The forwarder registry contract."}},"isTrustedForwarder(address)":{"params":{"forwarder":"The forwarder to check."},"returns":{"_0":"True if `forwarder` is trusted, false if not."}},"owner()":{"returns":{"_0":"The address of the contract owner."}},"setMerkleRoot(bytes32)":{"params":{"merkleRoot":"The Merkle root of the claim."}},"supportsInterface(bytes4)":{"details":"Note: This function call must use less than 30 000 gas.","params":{"interfaceId":"the interface identifier to test."},"returns":{"_0":"True if the interface is supported, false if `interfaceId` is `0xffffffff` or if the interface is not supported."}},"transferOwnership(address)":{"details":"Reverts if the sender is not the contract owner.Emits an {OwnershipTransferred} event if `newOwner` is different from the current contract owner.","params":{"newOwner":"The address of the new contract owner. Using the zero address means renouncing ownership."}}},"title":"Anichess Multiplier Merkle Claim Contract","version":1},"evm":{"bytecode":{"linkReferences":{},"object":"60a06040523480156200001157600080fd5b50604051620015ac380380620015ac83398101604081905262000034916200019e565b6001600160a01b0381166080523362000058816200005162000060565b9062000096565b5050620001f2565b6000806200009060017fc9ed16f33ab3a66c84bfd83099ccb2a8845871e2e1c1928f63797152f0fd54cd620001d0565b92915050565b6001600160a01b03811615620000ed5781546001600160a01b0319166001600160a01b03821690811783556040516000907f8be0079c531659141344cd1fd0a4f28419497f9722a3daafe3b4186f6b6457e0908290a35b6200010d6307f5828d60e41b60016200010562000111565b919062000141565b5050565b6000806200009060017fca9d3e17f264b0f3984e2634e94adb37fa3e6a8103f06aeae6fa59e21c769f5e620001d0565b600160e01b6001600160e01b031983160162000170576040516372c683bb60e01b815260040160405180910390fd5b6001600160e01b03199190911660009081526020929092526040909120805460ff1916911515919091179055565b600060208284031215620001b157600080fd5b81516001600160a01b0381168114620001c957600080fd5b9392505050565b818103818111156200009057634e487b7160e01b600052601160045260246000fd5b608051611389620002236000396000818161010e0152818161017801528181610e580152610ee001526113896000f3fe608060405234801561001057600080fd5b50600436106100df5760003560e01c80638da5cb5b1161008c578063e18ea41811610066578063e18ea4181461023c578063e3a0ce091461024f578063f2fde38b14610272578063fe5a53771461028557600080fd5b80638da5cb5b14610201578063ac524f3d14610209578063cc668cf01461022957600080fd5b8063572b6c05116100bd578063572b6c05146101685780637cb64759146101b5578063851f3bd2146101c857600080fd5b806301ffc9a7146100e45780632b4c9f161461010c5780633ec6004f14610153575b600080fd5b6100f76100f2366004610f88565b6102a8565b60405190151581526020015b60405180910390f35b7f00000000000000000000000000000000000000000000000000000000000000005b60405173ffffffffffffffffffffffffffffffffffffffff9091168152602001610103565b61016661016136600461103f565b6102c2565b005b6100f76101763660046110af565b7f000000000000000000000000000000000000000000000000000000000000000073ffffffffffffffffffffffffffffffffffffffff90811691161490565b6101666101c33660046110ca565b610585565b6101f36101d63660046110e3565b600360209081526000928352604080842090915290825290205481565b604051908152602001610103565b61012e61064e565b6101f36102173660046110af565b60006020819052908152604090205481565b61016661023736600461110d565b61067a565b6101f361024a3660046111a7565b610893565b6100f761025d3660046110ca565b60026020526000908152604090205460ff1681565b6101666102803660046110af565b610a9e565b6100f76102933660046110ca565b60016020526000908152604090205460ff1681565b60006102bc826102b6610abc565b90610aea565b92915050565b60008681526001602052604090205460ff16610312576040517f6d825743000000000000000000000000000000000000000000000000000000008152600481018790526024015b60405180910390fd5b73ffffffffffffffffffffffffffffffffffffffff83166000908152602081905260409020548211610373576040517f9f44c9eb00000000000000000000000000000000000000000000000000000000815260048101839052602401610309565b6040517fffffffffffffffffffffffffffffffffffffffff000000000000000000000000606085901b1660208201526034810183905260548101829052600090607401604080517fffffffffffffffffffffffffffffffffffffffffffffffffffffffffffffffe081840301815291815281516020928301206000818152600290935291205490915060ff1615610455576040517fe64ea1da00000000000000000000000000000000000000000000000000000000815273ffffffffffffffffffffffffffffffffffffffff8516600482015260248101839052604401610309565b6104978782888880806020026020016040519081016040528093929190818152602001838360200280828437600092019190915250929493925050610bc49050565b6104ec576040517fadbd651200000000000000000000000000000000000000000000000000000000815273ffffffffffffffffffffffffffffffffffffffff8516600482015260248101839052604401610309565b73ffffffffffffffffffffffffffffffffffffffff8416600081815260208181526040808320879055848352600282529182902080547fffffffffffffffffffffffffffffffffffffffffffffffffffffffffffffff0016600117905590518581528492917f987d620f307ff6b94d58743cb7a7509f24071586a77759b77c2d4e29f75a2f9a910160405180910390a350505050505050565b61059e610590610bda565b610598610be4565b90610c12565b60008181526001602052604090205460ff16156105ea576040517f5d35de3700000000000000000000000000000000000000000000000000000000815260048101829052602401610309565b600081815260016020819052604080832080547fffffffffffffffffffffffffffffffffffffffffffffffffffffffffffffff00169092179091555182917f914960aef5e033ce5cae8a7992d4b7a6f0f9741227b66acb67c605b7019f8a4691a250565b600061067561065b610be4565b5473ffffffffffffffffffffffffffffffffffffffff1690565b905090565b610685610590610bda565b84831415806106945750848114155b156106cb576040517f35e83ac300000000000000000000000000000000000000000000000000000000815260040160405180910390fd5b60005b8581101561088a578282828181106106e8576106e8611228565b90506020028101906106fa9190611257565b905085858381811061070e5761070e611228565b90506020028101906107209190611257565b905014610759576040517f35e83ac300000000000000000000000000000000000000000000000000000000815260040160405180910390fd5b60005b85858381811061076e5761076e611228565b90506020028101906107809190611257565b90508110156108815783838381811061079b5761079b611228565b90506020028101906107ad9190611257565b828181106107bd576107bd611228565b90506020020135600360008a8a868181106107da576107da611228565b90506020020160208101906107ef91906110af565b73ffffffffffffffffffffffffffffffffffffffff1673ffffffffffffffffffffffffffffffffffffffff168152602001908152602001600020600088888681811061083d5761083d611228565b905060200281019061084f9190611257565b8581811061085f5761085f611228565b602090810292909201358352508101919091526040016000205560010161075c565b506001016106ce565b50505050505050565b600061089e86610c81565b90508382146108d9576040517f35e83ac300000000000000000000000000000000000000000000000000000000815260040160405180910390fd5b60005b84811015610a945760005b83811015610a8b57600087878481811061090357610903611228565b905060200201602081019061091891906110af565b73ffffffffffffffffffffffffffffffffffffffff1662fdd58e8a88888681811061094557610945611228565b6040517fffffffff0000000000000000000000000000000000000000000000000000000060e087901b16815273ffffffffffffffffffffffffffffffffffffffff90941660048501526020029190910135602483015250604401602060405180830381865afa1580156109bc573d6000803e3d6000fd5b505050506040513d601f19601f820116820180604052508101906109e091906112bf565b1115610a8357600360008888858181106109fc576109fc611228565b9050602002016020810190610a1191906110af565b73ffffffffffffffffffffffffffffffffffffffff1673ffffffffffffffffffffffffffffffffffffffff1681526020019081526020016000206000868684818110610a5f57610a5f611228565b9050602002013581526020019081526020016000205483610a809190611307565b92505b6001016108e7565b506001016108dc565b5095945050505050565b610ab9610aa9610bda565b82610ab2610be4565b9190610cbd565b50565b6000806102bc60017fca9d3e17f264b0f3984e2634e94adb37fa3e6a8103f06aeae6fa59e21c769f5e61131e565b60007c01000000000000000000000000000000000000000000000000000000007fffffffff00000000000000000000000000000000000000000000000000000000831601610b3a575060006102bc565b7ffe003659000000000000000000000000000000000000000000000000000000007fffffffff00000000000000000000000000000000000000000000000000000000831601610b8b575060016102bc565b507fffffffff00000000000000000000000000000000000000000000000000000000166000908152602091909152604090205460ff1690565b600082610bd18584610dd2565b14949350505050565b6000610675610e15565b6000806102bc60017fc9ed16f33ab3a66c84bfd83099ccb2a8845871e2e1c1928f63797152f0fd54cd61131e565b815473ffffffffffffffffffffffffffffffffffffffff828116911614610c7d576040517f2ef4875e00000000000000000000000000000000000000000000000000000000815273ffffffffffffffffffffffffffffffffffffffff82166004820152602401610309565b5050565b73ffffffffffffffffffffffffffffffffffffffff81166000908152602081905260408120548015610cb35780610cb6565b60015b9392505050565b825473ffffffffffffffffffffffffffffffffffffffff9081169083168114610d2a576040517f2ef4875e00000000000000000000000000000000000000000000000000000000815273ffffffffffffffffffffffffffffffffffffffff84166004820152602401610309565b8173ffffffffffffffffffffffffffffffffffffffff168173ffffffffffffffffffffffffffffffffffffffff1614610dcc5783547fffffffffffffffffffffffff00000000000000000000000000000000000000001673ffffffffffffffffffffffffffffffffffffffff8381169182178655604051908316907f8be0079c531659141344cd1fd0a4f28419497f9722a3daafe3b4186f6b6457e090600090a35b50505050565b600081815b8451811015610e0d57610e0382868381518110610df657610df6611228565b6020026020010151610f5c565b9150600101610dd7565b509392505050565b600033321480610e255750601836105b15610e2f57503390565b7fffffffffffffffffffffffffffffffffffffffffffffffffffffffffffffffec36013560601c7f000000000000000000000000000000000000000000000000000000000000000073ffffffffffffffffffffffffffffffffffffffff16331480610f4b57506040517f8929a8ca00000000000000000000000000000000000000000000000000000000815273ffffffffffffffffffffffffffffffffffffffff82811660048301523360248301527f00000000000000000000000000000000000000000000000000000000000000001690638929a8ca90604401602060405180830381865afa158015610f27573d6000803e3d6000fd5b505050506040513d601f19601f82011682018060405250810190610f4b9190611331565b15610f5557919050565b3391505090565b6000818310610f78576000828152602084905260409020610cb6565b5060009182526020526040902090565b600060208284031215610f9a57600080fd5b81357fffffffff0000000000000000000000000000000000000000000000000000000081168114610cb657600080fd5b60008083601f840112610fdc57600080fd5b50813567ffffffffffffffff811115610ff457600080fd5b6020830191508360208260051b850101111561100f57600080fd5b9250929050565b803573ffffffffffffffffffffffffffffffffffffffff8116811461103a57600080fd5b919050565b60008060008060008060a0878903121561105857600080fd5b86359550602087013567ffffffffffffffff81111561107657600080fd5b61108289828a01610fca565b9096509450611095905060408801611016565b925060608701359150608087013590509295509295509295565b6000602082840312156110c157600080fd5b610cb682611016565b6000602082840312156110dc57600080fd5b5035919050565b600080604083850312156110f657600080fd5b6110ff83611016565b946020939093013593505050565b6000806000806000806060878903121561112657600080fd5b863567ffffffffffffffff8082111561113e57600080fd5b61114a8a838b01610fca565b9098509650602089013591508082111561116357600080fd5b61116f8a838b01610fca565b9096509450604089013591508082111561118857600080fd5b5061119589828a01610fca565b979a9699509497509295939492505050565b6000806000806000606086880312156111bf57600080fd5b6111c886611016565b9450602086013567ffffffffffffffff808211156111e557600080fd5b6111f189838a01610fca565b9096509450604088013591508082111561120a57600080fd5b5061121788828901610fca565b969995985093965092949392505050565b7f4e487b7100000000000000000000000000000000000000000000000000000000600052603260045260246000fd5b60008083357fffffffffffffffffffffffffffffffffffffffffffffffffffffffffffffffe184360301811261128c57600080fd5b83018035915067ffffffffffffffff8211156112a757600080fd5b6020019150600581901b360382131561100f57600080fd5b6000602082840312156112d157600080fd5b5051919050565b7f4e487b7100000000000000000000000000000000000000000000000000000000600052601160045260246000fd5b80820281158282048414176102bc576102bc6112d8565b818103818111156102bc576102bc6112d8565b60006020828403121561134357600080fd5b81518015158114610cb657600080fdfea26469706673582212205fe1058634e90993e801c76bb858e40193aedd5dac25a24ca76bd79c494b7d0864736f6c63430008160033","opcodes":"PUSH1 0xA0 PUSH1 0x40 MSTORE CALLVALUE DUP1 ISZERO PUSH3 0x11 JUMPI PUSH1 0x0 DUP1 REVERT JUMPDEST POP PUSH1 0x40 MLOAD PUSH3 0x15AC CODESIZE SUB DUP1 PUSH3 0x15AC DUP4 CODECOPY DUP2 ADD PUSH1 0x40 DUP2 SWAP1 MSTORE PUSH3 0x34 SWAP2 PUSH3 0x19E JUMP JUMPDEST PUSH1 0x1 PUSH1 0x1 PUSH1 0xA0 SHL SUB DUP2 AND PUSH1 0x80 MSTORE CALLER PUSH3 0x58 DUP2 PUSH3 0x51 PUSH3 0x60 JUMP JUMPDEST SWAP1 PUSH3 0x96 JUMP JUMPDEST POP POP PUSH3 0x1F2 JUMP JUMPDEST PUSH1 0x0 DUP1 PUSH3 0x90 PUSH1 0x1 PUSH32 0xC9ED16F33AB3A66C84BFD83099CCB2A8845871E2E1C1928F63797152F0FD54CD PUSH3 0x1D0 JUMP JUMPDEST SWAP3 SWAP2 POP POP JUMP JUMPDEST PUSH1 0x1 PUSH1 0x1 PUSH1 0xA0 SHL SUB DUP2 AND ISZERO PUSH3 0xED JUMPI DUP2 SLOAD PUSH1 0x1 PUSH1 0x1 PUSH1 0xA0 SHL SUB NOT AND PUSH1 0x1 PUSH1 0x1 PUSH1 0xA0 SHL SUB DUP3 AND SWAP1 DUP2 OR DUP4 SSTORE PUSH1 0x40 MLOAD PUSH1 0x0 SWAP1 PUSH32 0x8BE0079C531659141344CD1FD0A4F28419497F9722A3DAAFE3B4186F6B6457E0 SWAP1 DUP3 SWAP1 LOG3 JUMPDEST PUSH3 0x10D PUSH4 0x7F5828D PUSH1 0xE4 SHL PUSH1 0x1 PUSH3 0x105 PUSH3 0x111 JUMP JUMPDEST SWAP2 SWAP1 PUSH3 0x141 JUMP JUMPDEST POP POP JUMP JUMPDEST PUSH1 0x0 DUP1 PUSH3 0x90 PUSH1 0x1 PUSH32 0xCA9D3E17F264B0F3984E2634E94ADB37FA3E6A8103F06AEAE6FA59E21C769F5E PUSH3 0x1D0 JUMP JUMPDEST PUSH1 0x1 PUSH1 0xE0 SHL PUSH1 0x1 PUSH1 0x1 PUSH1 0xE0 SHL SUB NOT DUP4 AND ADD PUSH3 0x170 JUMPI PUSH1 0x40 MLOAD PUSH4 0x72C683BB PUSH1 0xE0 SHL DUP2 MSTORE PUSH1 0x4 ADD PUSH1 0x40 MLOAD DUP1 SWAP2 SUB SWAP1 REVERT JUMPDEST PUSH1 0x1 PUSH1 0x1 PUSH1 0xE0 SHL SUB NOT SWAP2 SWAP1 SWAP2 AND PUSH1 0x0 SWAP1 DUP2 MSTORE PUSH1 0x20 SWAP3 SWAP1 SWAP3 MSTORE PUSH1 0x40 SWAP1 SWAP2 KECCAK256 DUP1 SLOAD PUSH1 0xFF NOT AND SWAP2 ISZERO ISZERO SWAP2 SWAP1 SWAP2 OR SWAP1 SSTORE JUMP JUMPDEST PUSH1 0x0 PUSH1 0x20 DUP3 DUP5 SUB SLT ISZERO PUSH3 0x1B1 JUMPI PUSH1 0x0 DUP1 REVERT JUMPDEST DUP2 MLOAD PUSH1 0x1 PUSH1 0x1 PUSH1 0xA0 SHL SUB DUP2 AND DUP2 EQ PUSH3 0x1C9 JUMPI PUSH1 0x0 DUP1 REVERT JUMPDEST SWAP4 SWAP3 POP POP POP JUMP JUMPDEST DUP2 DUP2 SUB DUP2 DUP2 GT ISZERO PUSH3 0x90 JUMPI PUSH4 0x4E487B71 PUSH1 0xE0 SHL PUSH1 0x0 MSTORE PUSH1 0x11 PUSH1 0x4 MSTORE PUSH1 0x24 PUSH1 0x0 REVERT JUMPDEST PUSH1 0x80 MLOAD PUSH2 0x1389 PUSH3 0x223 PUSH1 0x0 CODECOPY PUSH1 0x0 DUP2 DUP2 PUSH2 0x10E ADD MSTORE DUP2 DUP2 PUSH2 0x178 ADD MSTORE DUP2 DUP2 PUSH2 0xE58 ADD MSTORE PUSH2 0xEE0 ADD MSTORE PUSH2 0x1389 PUSH1 0x0 RETURN INVALID PUSH1 0x80 PUSH1 0x40 MSTORE CALLVALUE DUP1 ISZERO PUSH2 0x10 JUMPI PUSH1 0x0 DUP1 REVERT JUMPDEST POP PUSH1 0x4 CALLDATASIZE LT PUSH2 0xDF JUMPI PUSH1 0x0 CALLDATALOAD PUSH1 0xE0 SHR DUP1 PUSH4 0x8DA5CB5B GT PUSH2 0x8C JUMPI DUP1 PUSH4 0xE18EA418 GT PUSH2 0x66 JUMPI DUP1 PUSH4 0xE18EA418 EQ PUSH2 0x23C JUMPI DUP1 PUSH4 0xE3A0CE09 EQ PUSH2 0x24F JUMPI DUP1 PUSH4 0xF2FDE38B EQ PUSH2 0x272 JUMPI DUP1 PUSH4 0xFE5A5377 EQ PUSH2 0x285 JUMPI PUSH1 0x0 DUP1 REVERT JUMPDEST DUP1 PUSH4 0x8DA5CB5B EQ PUSH2 0x201 JUMPI DUP1 PUSH4 0xAC524F3D EQ PUSH2 0x209 JUMPI DUP1 PUSH4 0xCC668CF0 EQ PUSH2 0x229 JUMPI PUSH1 0x0 DUP1 REVERT JUMPDEST DUP1 PUSH4 0x572B6C05 GT PUSH2 0xBD JUMPI DUP1 PUSH4 0x572B6C05 EQ PUSH2 0x168 JUMPI DUP1 PUSH4 0x7CB64759 EQ PUSH2 0x1B5 JUMPI DUP1 PUSH4 0x851F3BD2 EQ PUSH2 0x1C8 JUMPI PUSH1 0x0 DUP1 REVERT JUMPDEST DUP1 PUSH4 0x1FFC9A7 EQ PUSH2 0xE4 JUMPI DUP1 PUSH4 0x2B4C9F16 EQ PUSH2 0x10C JUMPI DUP1 PUSH4 0x3EC6004F EQ PUSH2 0x153 JUMPI JUMPDEST PUSH1 0x0 DUP1 REVERT JUMPDEST PUSH2 0xF7 PUSH2 0xF2 CALLDATASIZE PUSH1 0x4 PUSH2 0xF88 JUMP JUMPDEST PUSH2 0x2A8 JUMP JUMPDEST PUSH1 0x40 MLOAD SWAP1 ISZERO ISZERO DUP2 MSTORE PUSH1 0x20 ADD JUMPDEST PUSH1 0x40 MLOAD DUP1 SWAP2 SUB SWAP1 RETURN JUMPDEST PUSH32 0x0 JUMPDEST PUSH1 0x40 MLOAD PUSH20 0xFFFFFFFFFFFFFFFFFFFFFFFFFFFFFFFFFFFFFFFF SWAP1 SWAP2 AND DUP2 MSTORE PUSH1 0x20 ADD PUSH2 0x103 JUMP JUMPDEST PUSH2 0x166 PUSH2 0x161 CALLDATASIZE PUSH1 0x4 PUSH2 0x103F JUMP JUMPDEST PUSH2 0x2C2 JUMP JUMPDEST STOP JUMPDEST PUSH2 0xF7 PUSH2 0x176 CALLDATASIZE PUSH1 0x4 PUSH2 0x10AF JUMP JUMPDEST PUSH32 0x0 PUSH20 0xFFFFFFFFFFFFFFFFFFFFFFFFFFFFFFFFFFFFFFFF SWAP1 DUP2 AND SWAP2 AND EQ SWAP1 JUMP JUMPDEST PUSH2 0x166 PUSH2 0x1C3 CALLDATASIZE PUSH1 0x4 PUSH2 0x10CA JUMP JUMPDEST PUSH2 0x585 JUMP JUMPDEST PUSH2 0x1F3 PUSH2 0x1D6 CALLDATASIZE PUSH1 0x4 PUSH2 0x10E3 JUMP JUMPDEST PUSH1 0x3 PUSH1 0x20 SWAP1 DUP2 MSTORE PUSH1 0x0 SWAP3 DUP4 MSTORE PUSH1 0x40 DUP1 DUP5 KECCAK256 SWAP1 SWAP2 MSTORE SWAP1 DUP3 MSTORE SWAP1 KECCAK256 SLOAD DUP2 JUMP JUMPDEST PUSH1 0x40 MLOAD SWAP1 DUP2 MSTORE PUSH1 0x20 ADD PUSH2 0x103 JUMP JUMPDEST PUSH2 0x12E PUSH2 0x64E JUMP JUMPDEST PUSH2 0x1F3 PUSH2 0x217 CALLDATASIZE PUSH1 0x4 PUSH2 0x10AF JUMP JUMPDEST PUSH1 0x0 PUSH1 0x20 DUP2 SWAP1 MSTORE SWAP1 DUP2 MSTORE PUSH1 0x40 SWAP1 KECCAK256 SLOAD DUP2 JUMP JUMPDEST PUSH2 0x166 PUSH2 0x237 CALLDATASIZE PUSH1 0x4 PUSH2 0x110D JUMP JUMPDEST PUSH2 0x67A JUMP JUMPDEST PUSH2 0x1F3 PUSH2 0x24A CALLDATASIZE PUSH1 0x4 PUSH2 0x11A7 JUMP JUMPDEST PUSH2 0x893 JUMP JUMPDEST PUSH2 0xF7 PUSH2 0x25D CALLDATASIZE PUSH1 0x4 PUSH2 0x10CA JUMP JUMPDEST PUSH1 0x2 PUSH1 0x20 MSTORE PUSH1 0x0 SWAP1 DUP2 MSTORE PUSH1 0x40 SWAP1 KECCAK256 SLOAD PUSH1 0xFF AND DUP2 JUMP JUMPDEST PUSH2 0x166 PUSH2 0x280 CALLDATASIZE PUSH1 0x4 PUSH2 0x10AF JUMP JUMPDEST PUSH2 0xA9E JUMP JUMPDEST PUSH2 0xF7 PUSH2 0x293 CALLDATASIZE PUSH1 0x4 PUSH2 0x10CA JUMP JUMPDEST PUSH1 0x1 PUSH1 0x20 MSTORE PUSH1 0x0 SWAP1 DUP2 MSTORE PUSH1 0x40 SWAP1 KECCAK256 SLOAD PUSH1 0xFF AND DUP2 JUMP JUMPDEST PUSH1 0x0 PUSH2 0x2BC DUP3 PUSH2 0x2B6 PUSH2 0xABC JUMP JUMPDEST SWAP1 PUSH2 0xAEA JUMP JUMPDEST SWAP3 SWAP2 POP POP JUMP JUMPDEST PUSH1 0x0 DUP7 DUP2 MSTORE PUSH1 0x1 PUSH1 0x20 MSTORE PUSH1 0x40 SWAP1 KECCAK256 SLOAD PUSH1 0xFF AND PUSH2 0x312 JUMPI PUSH1 0x40 MLOAD PUSH32 0x6D82574300000000000000000000000000000000000000000000000000000000 DUP2 MSTORE PUSH1 0x4 DUP2 ADD DUP8 SWAP1 MSTORE PUSH1 0x24 ADD JUMPDEST PUSH1 0x40 MLOAD DUP1 SWAP2 SUB SWAP1 REVERT JUMPDEST PUSH20 0xFFFFFFFFFFFFFFFFFFFFFFFFFFFFFFFFFFFFFFFF DUP4 AND PUSH1 0x0 SWAP1 DUP2 MSTORE PUSH1 0x20 DUP2 SWAP1 MSTORE PUSH1 0x40 SWAP1 KECCAK256 SLOAD DUP3 GT PUSH2 0x373 JUMPI PUSH1 0x40 MLOAD PUSH32 0x9F44C9EB00000000000000000000000000000000000000000000000000000000 DUP2 MSTORE PUSH1 0x4 DUP2 ADD DUP4 SWAP1 MSTORE PUSH1 0x24 ADD PUSH2 0x309 JUMP JUMPDEST PUSH1 0x40 MLOAD PUSH32 0xFFFFFFFFFFFFFFFFFFFFFFFFFFFFFFFFFFFFFFFF000000000000000000000000 PUSH1 0x60 DUP6 SWAP1 SHL AND PUSH1 0x20 DUP3 ADD MSTORE PUSH1 0x34 DUP2 ADD DUP4 SWAP1 MSTORE PUSH1 0x54 DUP2 ADD DUP3 SWAP1 MSTORE PUSH1 0x0 SWAP1 PUSH1 0x74 ADD PUSH1 0x40 DUP1 MLOAD PUSH32 0xFFFFFFFFFFFFFFFFFFFFFFFFFFFFFFFFFFFFFFFFFFFFFFFFFFFFFFFFFFFFFFE0 DUP2 DUP5 SUB ADD DUP2 MSTORE SWAP2 DUP2 MSTORE DUP2 MLOAD PUSH1 0x20 SWAP3 DUP4 ADD KECCAK256 PUSH1 0x0 DUP2 DUP2 MSTORE PUSH1 0x2 SWAP1 SWAP4 MSTORE SWAP2 KECCAK256 SLOAD SWAP1 SWAP2 POP PUSH1 0xFF AND ISZERO PUSH2 0x455 JUMPI PUSH1 0x40 MLOAD PUSH32 0xE64EA1DA00000000000000000000000000000000000000000000000000000000 DUP2 MSTORE PUSH20 0xFFFFFFFFFFFFFFFFFFFFFFFFFFFFFFFFFFFFFFFF DUP6 AND PUSH1 0x4 DUP3 ADD MSTORE PUSH1 0x24 DUP2 ADD DUP4 SWAP1 MSTORE PUSH1 0x44 ADD PUSH2 0x309 JUMP JUMPDEST PUSH2 0x497 DUP8 DUP3 DUP9 DUP9 DUP1 DUP1 PUSH1 0x20 MUL PUSH1 0x20 ADD PUSH1 0x40 MLOAD SWAP1 DUP2 ADD PUSH1 0x40 MSTORE DUP1 SWAP4 SWAP3 SWAP2 SWAP1 DUP2 DUP2 MSTORE PUSH1 0x20 ADD DUP4 DUP4 PUSH1 0x20 MUL DUP1 DUP3 DUP5 CALLDATACOPY PUSH1 0x0 SWAP3 ADD SWAP2 SWAP1 SWAP2 MSTORE POP SWAP3 SWAP5 SWAP4 SWAP3 POP POP PUSH2 0xBC4 SWAP1 POP JUMP JUMPDEST PUSH2 0x4EC JUMPI PUSH1 0x40 MLOAD PUSH32 0xADBD651200000000000000000000000000000000000000000000000000000000 DUP2 MSTORE PUSH20 0xFFFFFFFFFFFFFFFFFFFFFFFFFFFFFFFFFFFFFFFF DUP6 AND PUSH1 0x4 DUP3 ADD MSTORE PUSH1 0x24 DUP2 ADD DUP4 SWAP1 MSTORE PUSH1 0x44 ADD PUSH2 0x309 JUMP JUMPDEST PUSH20 0xFFFFFFFFFFFFFFFFFFFFFFFFFFFFFFFFFFFFFFFF DUP5 AND PUSH1 0x0 DUP2 DUP2 MSTORE PUSH1 0x20 DUP2 DUP2 MSTORE PUSH1 0x40 DUP1 DUP4 KECCAK256 DUP8 SWAP1 SSTORE DUP5 DUP4 MSTORE PUSH1 0x2 DUP3 MSTORE SWAP2 DUP3 SWAP1 KECCAK256 DUP1 SLOAD PUSH32 0xFFFFFFFFFFFFFFFFFFFFFFFFFFFFFFFFFFFFFFFFFFFFFFFFFFFFFFFFFFFFFF00 AND PUSH1 0x1 OR SWAP1 SSTORE SWAP1 MLOAD DUP6 DUP2 MSTORE DUP5 SWAP3 SWAP2 PUSH32 0x987D620F307FF6B94D58743CB7A7509F24071586A77759B77C2D4E29F75A2F9A SWAP2 ADD PUSH1 0x40 MLOAD DUP1 SWAP2 SUB SWAP1 LOG3 POP POP POP POP POP POP POP JUMP JUMPDEST PUSH2 0x59E PUSH2 0x590 PUSH2 0xBDA JUMP JUMPDEST PUSH2 0x598 PUSH2 0xBE4 JUMP JUMPDEST SWAP1 PUSH2 0xC12 JUMP JUMPDEST PUSH1 0x0 DUP2 DUP2 MSTORE PUSH1 0x1 PUSH1 0x20 MSTORE PUSH1 0x40 SWAP1 KECCAK256 SLOAD PUSH1 0xFF AND ISZERO PUSH2 0x5EA JUMPI PUSH1 0x40 MLOAD PUSH32 0x5D35DE3700000000000000000000000000000000000000000000000000000000 DUP2 MSTORE PUSH1 0x4 DUP2 ADD DUP3 SWAP1 MSTORE PUSH1 0x24 ADD PUSH2 0x309 JUMP JUMPDEST PUSH1 0x0 DUP2 DUP2 MSTORE PUSH1 0x1 PUSH1 0x20 DUP2 SWAP1 MSTORE PUSH1 0x40 DUP1 DUP4 KECCAK256 DUP1 SLOAD PUSH32 0xFFFFFFFFFFFFFFFFFFFFFFFFFFFFFFFFFFFFFFFFFFFFFFFFFFFFFFFFFFFFFF00 AND SWAP1 SWAP3 OR SWAP1 SWAP2 SSTORE MLOAD DUP3 SWAP2 PUSH32 0x914960AEF5E033CE5CAE8A7992D4B7A6F0F9741227B66ACB67C605B7019F8A46 SWAP2 LOG2 POP JUMP JUMPDEST PUSH1 0x0 PUSH2 0x675 PUSH2 0x65B PUSH2 0xBE4 JUMP JUMPDEST SLOAD PUSH20 0xFFFFFFFFFFFFFFFFFFFFFFFFFFFFFFFFFFFFFFFF AND SWAP1 JUMP JUMPDEST SWAP1 POP SWAP1 JUMP JUMPDEST PUSH2 0x685 PUSH2 0x590 PUSH2 0xBDA JUMP JUMPDEST DUP5 DUP4 EQ ISZERO DUP1 PUSH2 0x694 JUMPI POP DUP5 DUP2 EQ ISZERO JUMPDEST ISZERO PUSH2 0x6CB JUMPI PUSH1 0x40 MLOAD PUSH32 0x35E83AC300000000000000000000000000000000000000000000000000000000 DUP2 MSTORE PUSH1 0x4 ADD PUSH1 0x40 MLOAD DUP1 SWAP2 SUB SWAP1 REVERT JUMPDEST PUSH1 0x0 JUMPDEST DUP6 DUP2 LT ISZERO PUSH2 0x88A JUMPI DUP3 DUP3 DUP3 DUP2 DUP2 LT PUSH2 0x6E8 JUMPI PUSH2 0x6E8 PUSH2 0x1228 JUMP JUMPDEST SWAP1 POP PUSH1 0x20 MUL DUP2 ADD SWAP1 PUSH2 0x6FA SWAP2 SWAP1 PUSH2 0x1257 JUMP JUMPDEST SWAP1 POP DUP6 DUP6 DUP4 DUP2 DUP2 LT PUSH2 0x70E JUMPI PUSH2 0x70E PUSH2 0x1228 JUMP JUMPDEST SWAP1 POP PUSH1 0x20 MUL DUP2 ADD SWAP1 PUSH2 0x720 SWAP2 SWAP1 PUSH2 0x1257 JUMP JUMPDEST SWAP1 POP EQ PUSH2 0x759 JUMPI PUSH1 0x40 MLOAD PUSH32 0x35E83AC300000000000000000000000000000000000000000000000000000000 DUP2 MSTORE PUSH1 0x4 ADD PUSH1 0x40 MLOAD DUP1 SWAP2 SUB SWAP1 REVERT JUMPDEST PUSH1 0x0 JUMPDEST DUP6 DUP6 DUP4 DUP2 DUP2 LT PUSH2 0x76E JUMPI PUSH2 0x76E PUSH2 0x1228 JUMP JUMPDEST SWAP1 POP PUSH1 0x20 MUL DUP2 ADD SWAP1 PUSH2 0x780 SWAP2 SWAP1 PUSH2 0x1257 JUMP JUMPDEST SWAP1 POP DUP2 LT ISZERO PUSH2 0x881 JUMPI DUP4 DUP4 DUP4 DUP2 DUP2 LT PUSH2 0x79B JUMPI PUSH2 0x79B PUSH2 0x1228 JUMP JUMPDEST SWAP1 POP PUSH1 0x20 MUL DUP2 ADD SWAP1 PUSH2 0x7AD SWAP2 SWAP1 PUSH2 0x1257 JUMP JUMPDEST DUP3 DUP2 DUP2 LT PUSH2 0x7BD JUMPI PUSH2 0x7BD PUSH2 0x1228 JUMP JUMPDEST SWAP1 POP PUSH1 0x20 MUL ADD CALLDATALOAD PUSH1 0x3 PUSH1 0x0 DUP11 DUP11 DUP7 DUP2 DUP2 LT PUSH2 0x7DA JUMPI PUSH2 0x7DA PUSH2 0x1228 JUMP JUMPDEST SWAP1 POP PUSH1 0x20 MUL ADD PUSH1 0x20 DUP2 ADD SWAP1 PUSH2 0x7EF SWAP2 SWAP1 PUSH2 0x10AF JUMP JUMPDEST PUSH20 0xFFFFFFFFFFFFFFFFFFFFFFFFFFFFFFFFFFFFFFFF AND PUSH20 0xFFFFFFFFFFFFFFFFFFFFFFFFFFFFFFFFFFFFFFFF AND DUP2 MSTORE PUSH1 0x20 ADD SWAP1 DUP2 MSTORE PUSH1 0x20 ADD PUSH1 0x0 KECCAK256 PUSH1 0x0 DUP9 DUP9 DUP7 DUP2 DUP2 LT PUSH2 0x83D JUMPI PUSH2 0x83D PUSH2 0x1228 JUMP JUMPDEST SWAP1 POP PUSH1 0x20 MUL DUP2 ADD SWAP1 PUSH2 0x84F SWAP2 SWAP1 PUSH2 0x1257 JUMP JUMPDEST DUP6 DUP2 DUP2 LT PUSH2 0x85F JUMPI PUSH2 0x85F PUSH2 0x1228 JUMP JUMPDEST PUSH1 0x20 SWAP1 DUP2 MUL SWAP3 SWAP1 SWAP3 ADD CALLDATALOAD DUP4 MSTORE POP DUP2 ADD SWAP2 SWAP1 SWAP2 MSTORE PUSH1 0x40 ADD PUSH1 0x0 KECCAK256 SSTORE PUSH1 0x1 ADD PUSH2 0x75C JUMP JUMPDEST POP PUSH1 0x1 ADD PUSH2 0x6CE JUMP JUMPDEST POP POP POP POP POP POP POP JUMP JUMPDEST PUSH1 0x0 PUSH2 0x89E DUP7 PUSH2 0xC81 JUMP JUMPDEST SWAP1 POP DUP4 DUP3 EQ PUSH2 0x8D9 JUMPI PUSH1 0x40 MLOAD PUSH32 0x35E83AC300000000000000000000000000000000000000000000000000000000 DUP2 MSTORE PUSH1 0x4 ADD PUSH1 0x40 MLOAD DUP1 SWAP2 SUB SWAP1 REVERT JUMPDEST PUSH1 0x0 JUMPDEST DUP5 DUP2 LT ISZERO PUSH2 0xA94 JUMPI PUSH1 0x0 JUMPDEST DUP4 DUP2 LT ISZERO PUSH2 0xA8B JUMPI PUSH1 0x0 DUP8 DUP8 DUP5 DUP2 DUP2 LT PUSH2 0x903 JUMPI PUSH2 0x903 PUSH2 0x1228 JUMP JUMPDEST SWAP1 POP PUSH1 0x20 MUL ADD PUSH1 0x20 DUP2 ADD SWAP1 PUSH2 0x918 SWAP2 SWAP1 PUSH2 0x10AF JUMP JUMPDEST PUSH20 0xFFFFFFFFFFFFFFFFFFFFFFFFFFFFFFFFFFFFFFFF AND PUSH3 0xFDD58E DUP11 DUP9 DUP9 DUP7 DUP2 DUP2 LT PUSH2 0x945 JUMPI PUSH2 0x945 PUSH2 0x1228 JUMP JUMPDEST PUSH1 0x40 MLOAD PUSH32 0xFFFFFFFF00000000000000000000000000000000000000000000000000000000 PUSH1 0xE0 DUP8 SWAP1 SHL AND DUP2 MSTORE PUSH20 0xFFFFFFFFFFFFFFFFFFFFFFFFFFFFFFFFFFFFFFFF SWAP1 SWAP5 AND PUSH1 0x4 DUP6 ADD MSTORE PUSH1 0x20 MUL SWAP2 SWAP1 SWAP2 ADD CALLDATALOAD PUSH1 0x24 DUP4 ADD MSTORE POP PUSH1 0x44 ADD PUSH1 0x20 PUSH1 0x40 MLOAD DUP1 DUP4 SUB DUP2 DUP7 GAS STATICCALL ISZERO DUP1 ISZERO PUSH2 0x9BC JUMPI RETURNDATASIZE PUSH1 0x0 DUP1 RETURNDATACOPY RETURNDATASIZE PUSH1 0x0 REVERT JUMPDEST POP POP POP POP PUSH1 0x40 MLOAD RETURNDATASIZE PUSH1 0x1F NOT PUSH1 0x1F DUP3 ADD AND DUP3 ADD DUP1 PUSH1 0x40 MSTORE POP DUP2 ADD SWAP1 PUSH2 0x9E0 SWAP2 SWAP1 PUSH2 0x12BF JUMP JUMPDEST GT ISZERO PUSH2 0xA83 JUMPI PUSH1 0x3 PUSH1 0x0 DUP9 DUP9 DUP6 DUP2 DUP2 LT PUSH2 0x9FC JUMPI PUSH2 0x9FC PUSH2 0x1228 JUMP JUMPDEST SWAP1 POP PUSH1 0x20 MUL ADD PUSH1 0x20 DUP2 ADD SWAP1 PUSH2 0xA11 SWAP2 SWAP1 PUSH2 0x10AF JUMP JUMPDEST PUSH20 0xFFFFFFFFFFFFFFFFFFFFFFFFFFFFFFFFFFFFFFFF AND PUSH20 0xFFFFFFFFFFFFFFFFFFFFFFFFFFFFFFFFFFFFFFFF AND DUP2 MSTORE PUSH1 0x20 ADD SWAP1 DUP2 MSTORE PUSH1 0x20 ADD PUSH1 0x0 KECCAK256 PUSH1 0x0 DUP7 DUP7 DUP5 DUP2 DUP2 LT PUSH2 0xA5F JUMPI PUSH2 0xA5F PUSH2 0x1228 JUMP JUMPDEST SWAP1 POP PUSH1 0x20 MUL ADD CALLDATALOAD DUP2 MSTORE PUSH1 0x20 ADD SWAP1 DUP2 MSTORE PUSH1 0x20 ADD PUSH1 0x0 KECCAK256 SLOAD DUP4 PUSH2 0xA80 SWAP2 SWAP1 PUSH2 0x1307 JUMP JUMPDEST SWAP3 POP JUMPDEST PUSH1 0x1 ADD PUSH2 0x8E7 JUMP JUMPDEST POP PUSH1 0x1 ADD PUSH2 0x8DC JUMP JUMPDEST POP SWAP6 SWAP5 POP POP POP POP POP JUMP JUMPDEST PUSH2 0xAB9 PUSH2 0xAA9 PUSH2 0xBDA JUMP JUMPDEST DUP3 PUSH2 0xAB2 PUSH2 0xBE4 JUMP JUMPDEST SWAP2 SWAP1 PUSH2 0xCBD JUMP JUMPDEST POP JUMP JUMPDEST PUSH1 0x0 DUP1 PUSH2 0x2BC PUSH1 0x1 PUSH32 0xCA9D3E17F264B0F3984E2634E94ADB37FA3E6A8103F06AEAE6FA59E21C769F5E PUSH2 0x131E JUMP JUMPDEST PUSH1 0x0 PUSH29 0x100000000000000000000000000000000000000000000000000000000 PUSH32 0xFFFFFFFF00000000000000000000000000000000000000000000000000000000 DUP4 AND ADD PUSH2 0xB3A JUMPI POP PUSH1 0x0 PUSH2 0x2BC JUMP JUMPDEST PUSH32 0xFE00365900000000000000000000000000000000000000000000000000000000 PUSH32 0xFFFFFFFF00000000000000000000000000000000000000000000000000000000 DUP4 AND ADD PUSH2 0xB8B JUMPI POP PUSH1 0x1 PUSH2 0x2BC JUMP JUMPDEST POP PUSH32 0xFFFFFFFF00000000000000000000000000000000000000000000000000000000 AND PUSH1 0x0 SWAP1 DUP2 MSTORE PUSH1 0x20 SWAP2 SWAP1 SWAP2 MSTORE PUSH1 0x40 SWAP1 KECCAK256 SLOAD PUSH1 0xFF AND SWAP1 JUMP JUMPDEST PUSH1 0x0 DUP3 PUSH2 0xBD1 DUP6 DUP5 PUSH2 0xDD2 JUMP JUMPDEST EQ SWAP5 SWAP4 POP POP POP POP JUMP JUMPDEST PUSH1 0x0 PUSH2 0x675 PUSH2 0xE15 JUMP JUMPDEST PUSH1 0x0 DUP1 PUSH2 0x2BC PUSH1 0x1 PUSH32 0xC9ED16F33AB3A66C84BFD83099CCB2A8845871E2E1C1928F63797152F0FD54CD PUSH2 0x131E JUMP JUMPDEST DUP2 SLOAD PUSH20 0xFFFFFFFFFFFFFFFFFFFFFFFFFFFFFFFFFFFFFFFF DUP3 DUP2 AND SWAP2 AND EQ PUSH2 0xC7D JUMPI PUSH1 0x40 MLOAD PUSH32 0x2EF4875E00000000000000000000000000000000000000000000000000000000 DUP2 MSTORE PUSH20 0xFFFFFFFFFFFFFFFFFFFFFFFFFFFFFFFFFFFFFFFF DUP3 AND PUSH1 0x4 DUP3 ADD MSTORE PUSH1 0x24 ADD PUSH2 0x309 JUMP JUMPDEST POP POP JUMP JUMPDEST PUSH20 0xFFFFFFFFFFFFFFFFFFFFFFFFFFFFFFFFFFFFFFFF DUP2 AND PUSH1 0x0 SWAP1 DUP2 MSTORE PUSH1 0x20 DUP2 SWAP1 MSTORE PUSH1 0x40 DUP2 KECCAK256 SLOAD DUP1 ISZERO PUSH2 0xCB3 JUMPI DUP1 PUSH2 0xCB6 JUMP JUMPDEST PUSH1 0x1 JUMPDEST SWAP4 SWAP3 POP POP POP JUMP JUMPDEST DUP3 SLOAD PUSH20 0xFFFFFFFFFFFFFFFFFFFFFFFFFFFFFFFFFFFFFFFF SWAP1 DUP2 AND SWAP1 DUP4 AND DUP2 EQ PUSH2 0xD2A JUMPI PUSH1 0x40 MLOAD PUSH32 0x2EF4875E00000000000000000000000000000000000000000000000000000000 DUP2 MSTORE PUSH20 0xFFFFFFFFFFFFFFFFFFFFFFFFFFFFFFFFFFFFFFFF DUP5 AND PUSH1 0x4 DUP3 ADD MSTORE PUSH1 0x24 ADD PUSH2 0x309 JUMP JUMPDEST DUP2 PUSH20 0xFFFFFFFFFFFFFFFFFFFFFFFFFFFFFFFFFFFFFFFF AND DUP2 PUSH20 0xFFFFFFFFFFFFFFFFFFFFFFFFFFFFFFFFFFFFFFFF AND EQ PUSH2 0xDCC JUMPI DUP4 SLOAD PUSH32 0xFFFFFFFFFFFFFFFFFFFFFFFF0000000000000000000000000000000000000000 AND PUSH20 0xFFFFFFFFFFFFFFFFFFFFFFFFFFFFFFFFFFFFFFFF DUP4 DUP2 AND SWAP2 DUP3 OR DUP7 SSTORE PUSH1 0x40 MLOAD SWAP1 DUP4 AND SWAP1 PUSH32 0x8BE0079C531659141344CD1FD0A4F28419497F9722A3DAAFE3B4186F6B6457E0 SWAP1 PUSH1 0x0 SWAP1 LOG3 JUMPDEST POP POP POP POP JUMP JUMPDEST PUSH1 0x0 DUP2 DUP2 JUMPDEST DUP5 MLOAD DUP2 LT ISZERO PUSH2 0xE0D JUMPI PUSH2 0xE03 DUP3 DUP7 DUP4 DUP2 MLOAD DUP2 LT PUSH2 0xDF6 JUMPI PUSH2 0xDF6 PUSH2 0x1228 JUMP JUMPDEST PUSH1 0x20 MUL PUSH1 0x20 ADD ADD MLOAD PUSH2 0xF5C JUMP JUMPDEST SWAP2 POP PUSH1 0x1 ADD PUSH2 0xDD7 JUMP JUMPDEST POP SWAP4 SWAP3 POP POP POP JUMP JUMPDEST PUSH1 0x0 CALLER ORIGIN EQ DUP1 PUSH2 0xE25 JUMPI POP PUSH1 0x18 CALLDATASIZE LT JUMPDEST ISZERO PUSH2 0xE2F JUMPI POP CALLER SWAP1 JUMP JUMPDEST PUSH32 0xFFFFFFFFFFFFFFFFFFFFFFFFFFFFFFFFFFFFFFFFFFFFFFFFFFFFFFFFFFFFFFEC CALLDATASIZE ADD CALLDATALOAD PUSH1 0x60 SHR PUSH32 0x0 PUSH20 0xFFFFFFFFFFFFFFFFFFFFFFFFFFFFFFFFFFFFFFFF AND CALLER EQ DUP1 PUSH2 0xF4B JUMPI POP PUSH1 0x40 MLOAD PUSH32 0x8929A8CA00000000000000000000000000000000000000000000000000000000 DUP2 MSTORE PUSH20 0xFFFFFFFFFFFFFFFFFFFFFFFFFFFFFFFFFFFFFFFF DUP3 DUP2 AND PUSH1 0x4 DUP4 ADD MSTORE CALLER PUSH1 0x24 DUP4 ADD MSTORE PUSH32 0x0 AND SWAP1 PUSH4 0x8929A8CA SWAP1 PUSH1 0x44 ADD PUSH1 0x20 PUSH1 0x40 MLOAD DUP1 DUP4 SUB DUP2 DUP7 GAS STATICCALL ISZERO DUP1 ISZERO PUSH2 0xF27 JUMPI RETURNDATASIZE PUSH1 0x0 DUP1 RETURNDATACOPY RETURNDATASIZE PUSH1 0x0 REVERT JUMPDEST POP POP POP POP PUSH1 0x40 MLOAD RETURNDATASIZE PUSH1 0x1F NOT PUSH1 0x1F DUP3 ADD AND DUP3 ADD DUP1 PUSH1 0x40 MSTORE POP DUP2 ADD SWAP1 PUSH2 0xF4B SWAP2 SWAP1 PUSH2 0x1331 JUMP JUMPDEST ISZERO PUSH2 0xF55 JUMPI SWAP2 SWAP1 POP JUMP JUMPDEST CALLER SWAP2 POP POP SWAP1 JUMP JUMPDEST PUSH1 0x0 DUP2 DUP4 LT PUSH2 0xF78 JUMPI PUSH1 0x0 DUP3 DUP2 MSTORE PUSH1 0x20 DUP5 SWAP1 MSTORE PUSH1 0x40 SWAP1 KECCAK256 PUSH2 0xCB6 JUMP JUMPDEST POP PUSH1 0x0 SWAP2 DUP3 MSTORE PUSH1 0x20 MSTORE PUSH1 0x40 SWAP1 KECCAK256 SWAP1 JUMP JUMPDEST PUSH1 0x0 PUSH1 0x20 DUP3 DUP5 SUB SLT ISZERO PUSH2 0xF9A JUMPI PUSH1 0x0 DUP1 REVERT JUMPDEST DUP2 CALLDATALOAD PUSH32 0xFFFFFFFF00000000000000000000000000000000000000000000000000000000 DUP2 AND DUP2 EQ PUSH2 0xCB6 JUMPI PUSH1 0x0 DUP1 REVERT JUMPDEST PUSH1 0x0 DUP1 DUP4 PUSH1 0x1F DUP5 ADD SLT PUSH2 0xFDC JUMPI PUSH1 0x0 DUP1 REVERT JUMPDEST POP DUP2 CALLDATALOAD PUSH8 0xFFFFFFFFFFFFFFFF DUP2 GT ISZERO PUSH2 0xFF4 JUMPI PUSH1 0x0 DUP1 REVERT JUMPDEST PUSH1 0x20 DUP4 ADD SWAP2 POP DUP4 PUSH1 0x20 DUP3 PUSH1 0x5 SHL DUP6 ADD ADD GT ISZERO PUSH2 0x100F JUMPI PUSH1 0x0 DUP1 REVERT JUMPDEST SWAP3 POP SWAP3 SWAP1 POP JUMP JUMPDEST DUP1 CALLDATALOAD PUSH20 0xFFFFFFFFFFFFFFFFFFFFFFFFFFFFFFFFFFFFFFFF DUP2 AND DUP2 EQ PUSH2 0x103A JUMPI PUSH1 0x0 DUP1 REVERT JUMPDEST SWAP2 SWAP1 POP JUMP JUMPDEST PUSH1 0x0 DUP1 PUSH1 0x0 DUP1 PUSH1 0x0 DUP1 PUSH1 0xA0 DUP8 DUP10 SUB SLT ISZERO PUSH2 0x1058 JUMPI PUSH1 0x0 DUP1 REVERT JUMPDEST DUP7 CALLDATALOAD SWAP6 POP PUSH1 0x20 DUP8 ADD CALLDATALOAD PUSH8 0xFFFFFFFFFFFFFFFF DUP2 GT ISZERO PUSH2 0x1076 JUMPI PUSH1 0x0 DUP1 REVERT JUMPDEST PUSH2 0x1082 DUP10 DUP3 DUP11 ADD PUSH2 0xFCA JUMP JUMPDEST SWAP1 SWAP7 POP SWAP5 POP PUSH2 0x1095 SWAP1 POP PUSH1 0x40 DUP9 ADD PUSH2 0x1016 JUMP JUMPDEST SWAP3 POP PUSH1 0x60 DUP8 ADD CALLDATALOAD SWAP2 POP PUSH1 0x80 DUP8 ADD CALLDATALOAD SWAP1 POP SWAP3 SWAP6 POP SWAP3 SWAP6 POP SWAP3 SWAP6 JUMP JUMPDEST PUSH1 0x0 PUSH1 0x20 DUP3 DUP5 SUB SLT ISZERO PUSH2 0x10C1 JUMPI PUSH1 0x0 DUP1 REVERT JUMPDEST PUSH2 0xCB6 DUP3 PUSH2 0x1016 JUMP JUMPDEST PUSH1 0x0 PUSH1 0x20 DUP3 DUP5 SUB SLT ISZERO PUSH2 0x10DC JUMPI PUSH1 0x0 DUP1 REVERT JUMPDEST POP CALLDATALOAD SWAP2 SWAP1 POP JUMP JUMPDEST PUSH1 0x0 DUP1 PUSH1 0x40 DUP4 DUP6 SUB SLT ISZERO PUSH2 0x10F6 JUMPI PUSH1 0x0 DUP1 REVERT JUMPDEST PUSH2 0x10FF DUP4 PUSH2 0x1016 JUMP JUMPDEST SWAP5 PUSH1 0x20 SWAP4 SWAP1 SWAP4 ADD CALLDATALOAD SWAP4 POP POP POP JUMP JUMPDEST PUSH1 0x0 DUP1 PUSH1 0x0 DUP1 PUSH1 0x0 DUP1 PUSH1 0x60 DUP8 DUP10 SUB SLT ISZERO PUSH2 0x1126 JUMPI PUSH1 0x0 DUP1 REVERT JUMPDEST DUP7 CALLDATALOAD PUSH8 0xFFFFFFFFFFFFFFFF DUP1 DUP3 GT ISZERO PUSH2 0x113E JUMPI PUSH1 0x0 DUP1 REVERT JUMPDEST PUSH2 0x114A DUP11 DUP4 DUP12 ADD PUSH2 0xFCA JUMP JUMPDEST SWAP1 SWAP9 POP SWAP7 POP PUSH1 0x20 DUP10 ADD CALLDATALOAD SWAP2 POP DUP1 DUP3 GT ISZERO PUSH2 0x1163 JUMPI PUSH1 0x0 DUP1 REVERT JUMPDEST PUSH2 0x116F DUP11 DUP4 DUP12 ADD PUSH2 0xFCA JUMP JUMPDEST SWAP1 SWAP7 POP SWAP5 POP PUSH1 0x40 DUP10 ADD CALLDATALOAD SWAP2 POP DUP1 DUP3 GT ISZERO PUSH2 0x1188 JUMPI PUSH1 0x0 DUP1 REVERT JUMPDEST POP PUSH2 0x1195 DUP10 DUP3 DUP11 ADD PUSH2 0xFCA JUMP JUMPDEST SWAP8 SWAP11 SWAP7 SWAP10 POP SWAP5 SWAP8 POP SWAP3 SWAP6 SWAP4 SWAP5 SWAP3 POP POP POP JUMP JUMPDEST PUSH1 0x0 DUP1 PUSH1 0x0 DUP1 PUSH1 0x0 PUSH1 0x60 DUP7 DUP9 SUB SLT ISZERO PUSH2 0x11BF JUMPI PUSH1 0x0 DUP1 REVERT JUMPDEST PUSH2 0x11C8 DUP7 PUSH2 0x1016 JUMP JUMPDEST SWAP5 POP PUSH1 0x20 DUP7 ADD CALLDATALOAD PUSH8 0xFFFFFFFFFFFFFFFF DUP1 DUP3 GT ISZERO PUSH2 0x11E5 JUMPI PUSH1 0x0 DUP1 REVERT JUMPDEST PUSH2 0x11F1 DUP10 DUP4 DUP11 ADD PUSH2 0xFCA JUMP JUMPDEST SWAP1 SWAP7 POP SWAP5 POP PUSH1 0x40 DUP9 ADD CALLDATALOAD SWAP2 POP DUP1 DUP3 GT ISZERO PUSH2 0x120A JUMPI PUSH1 0x0 DUP1 REVERT JUMPDEST POP PUSH2 0x1217 DUP9 DUP3 DUP10 ADD PUSH2 0xFCA JUMP JUMPDEST SWAP7 SWAP10 SWAP6 SWAP9 POP SWAP4 SWAP7 POP SWAP3 SWAP5 SWAP4 SWAP3 POP POP POP JUMP JUMPDEST PUSH32 0x4E487B7100000000000000000000000000000000000000000000000000000000 PUSH1 0x0 MSTORE PUSH1 0x32 PUSH1 0x4 MSTORE PUSH1 0x24 PUSH1 0x0 REVERT JUMPDEST PUSH1 0x0 DUP1 DUP4 CALLDATALOAD PUSH32 0xFFFFFFFFFFFFFFFFFFFFFFFFFFFFFFFFFFFFFFFFFFFFFFFFFFFFFFFFFFFFFFE1 DUP5 CALLDATASIZE SUB ADD DUP2 SLT PUSH2 0x128C JUMPI PUSH1 0x0 DUP1 REVERT JUMPDEST DUP4 ADD DUP1 CALLDATALOAD SWAP2 POP PUSH8 0xFFFFFFFFFFFFFFFF DUP3 GT ISZERO PUSH2 0x12A7 JUMPI PUSH1 0x0 DUP1 REVERT JUMPDEST PUSH1 0x20 ADD SWAP2 POP PUSH1 0x5 DUP2 SWAP1 SHL CALLDATASIZE SUB DUP3 SGT ISZERO PUSH2 0x100F JUMPI PUSH1 0x0 DUP1 REVERT JUMPDEST PUSH1 0x0 PUSH1 0x20 DUP3 DUP5 SUB SLT ISZERO PUSH2 0x12D1 JUMPI PUSH1 0x0 DUP1 REVERT JUMPDEST POP MLOAD SWAP2 SWAP1 POP JUMP JUMPDEST PUSH32 0x4E487B7100000000000000000000000000000000000000000000000000000000 PUSH1 0x0 MSTORE PUSH1 0x11 PUSH1 0x4 MSTORE PUSH1 0x24 PUSH1 0x0 REVERT JUMPDEST DUP1 DUP3 MUL DUP2 ISZERO DUP3 DUP3 DIV DUP5 EQ OR PUSH2 0x2BC JUMPI PUSH2 0x2BC PUSH2 0x12D8 JUMP JUMPDEST DUP2 DUP2 SUB DUP2 DUP2 GT ISZERO PUSH2 0x2BC JUMPI PUSH2 0x2BC PUSH2 0x12D8 JUMP JUMPDEST PUSH1 0x0 PUSH1 0x20 DUP3 DUP5 SUB SLT ISZERO PUSH2 0x1343 JUMPI PUSH1 0x0 DUP1 REVERT JUMPDEST DUP2 MLOAD DUP1 ISZERO ISZERO DUP2 EQ PUSH2 0xCB6 JUMPI PUSH1 0x0 DUP1 REVERT INVALID LOG2 PUSH5 0x6970667358 0x22 SLT KECCAK256 PUSH0 0xE1 SDIV DUP7 CALLVALUE 0xE9 MULMOD SWAP4 0xE8 ADD 0xC7 PUSH12 0xB858E40193AEDD5DAC25A24C 0xA7 PUSH12 0xD79C494B7D0864736F6C6343 STOP ADDMOD AND STOP CALLER "},"gasEstimates":{"creation":{"codeDepositCost":"1000200","executionCost":"infinite","totalCost":"infinite"},"external":{"claim(bytes32,bytes32[],address,uint256,uint256)":"infinite","claimStatus(bytes32)":"2483","forwarderRegistry()":"infinite","getMultiplier(address,address[],uint256[])":"infinite","isTrustedForwarder(address)":"infinite","merkleRoots(bytes32)":"2527","multipliers(address)":"2555","owner()":"infinite","setMerkleRoot(bytes32)":"infinite","setTokenMultipliers(address[],uint256[][],uint256[][])":"infinite","supportsInterface(bytes4)":"infinite","tokenMultipliers(address,uint256)":"2667","transferOwnership(address)":"infinite"},"internal":{"_baseMultiplier(address)":"2242","_msgData()":"infinite","_msgSender()":"infinite"}},"methodIdentifiers":{"claim(bytes32,bytes32[],address,uint256,uint256)":"3ec6004f","claimStatus(bytes32)":"e3a0ce09","forwarderRegistry()":"2b4c9f16","getMultiplier(address,address[],uint256[])":"e18ea418","isTrustedForwarder(address)":"572b6c05","merkleRoots(bytes32)":"fe5a5377","multipliers(address)":"ac524f3d","owner()":"8da5cb5b","setMerkleRoot(bytes32)":"7cb64759","setTokenMultipliers(address[],uint256[][],uint256[][])":"cc668cf0","supportsInterface(bytes4)":"01ffc9a7","tokenMultipliers(address,uint256)":"851f3bd2","transferOwnership(address)":"f2fde38b"}},"storageLayout":{"storage":[{"astId":2848,"contract":"contracts/merkleClaim/AnichessMultiplier.sol:AnichessMultiplier","label":"multipliers","offset":0,"slot":"0","type":"t_mapping(t_address,t_uint256)"},{"astId":2852,"contract":"contracts/merkleClaim/AnichessMultiplier.sol:AnichessMultiplier","label":"merkleRoots","offset":0,"slot":"1","type":"t_mapping(t_bytes32,t_bool)"},{"astId":2856,"contract":"contracts/merkleClaim/AnichessMultiplier.sol:AnichessMultiplier","label":"claimStatus","offset":0,"slot":"2","type":"t_mapping(t_bytes32,t_bool)"},{"astId":2862,"contract":"contracts/merkleClaim/AnichessMultiplier.sol:AnichessMultiplier","label":"tokenMultipliers","offset":0,"slot":"3","type":"t_mapping(t_address,t_mapping(t_uint256,t_uint256))"}],"types":{"t_address":{"encoding":"inplace","label":"address","numberOfBytes":"20"},"t_bool":{"encoding":"inplace","label":"bool","numberOfBytes":"1"},"t_bytes32":{"encoding":"inplace","label":"bytes32","numberOfBytes":"32"},"t_mapping(t_address,t_mapping(t_uint256,t_uint256))":{"encoding":"mapping","key":"t_address","label":"mapping(address => mapping(uint256 => uint256))","numberOfBytes":"32","value":"t_mapping(t_uint256,t_uint256)"},"t_mapping(t_address,t_uint256)":{"encoding":"mapping","key":"t_address","label":"mapping(address => uint256)","numberOfBytes":"32","value":"t_uint256"},"t_mapping(t_bytes32,t_bool)":{"encoding":"mapping","key":"t_bytes32","label":"mapping(bytes32 => bool)","numberOfBytes":"32","value":"t_bool"},"t_mapping(t_uint256,t_uint256)":{"encoding":"mapping","key":"t_uint256","label":"mapping(uint256 => uint256)","numberOfBytes":"32","value":"t_uint256"},"t_uint256":{"encoding":"inplace","label":"uint256","numberOfBytes":"32"}}},"userdoc":{"errors":{"AlreadyClaimed(address,uint256)":[{"notice":"Error thrown when the payout has already been claimed."}],"IllegalInterfaceId()":[{"notice":"Thrown when setting the illegal interfaceId 0xffffffff."}],"InconsistentArrays()":[{"notice":"Error thrown when the array lengths are inconsistent."}],"NotContractOwner(address)":[{"notice":"Thrown when an account is not the contract owner but is required to."}]},"events":{"OwnershipTransferred(address,address)":{"notice":"Emitted when the contract ownership changes."},"SetMerkleRoot(bytes32)":{"notice":"Event emitted when a merkle root is set."}},"kind":"user","methods":{"claim(bytes32,bytes32[],address,uint256,uint256)":{"notice":"Claims the payout for a specific merkleRoot."},"constructor":{"notice":"Constructor for the AnichessMultiplierMerkleClaim contract."},"isTrustedForwarder(address)":{"notice":"Checks whether a forwarder is trusted."},"owner()":{"notice":"Gets the address of the contract owner."},"setMerkleRoot(bytes32)":{"notice":"Sets the merkle root"},"supportsInterface(bytes4)":{"notice":"Returns whether this contract implements a given interface."},"transferOwnership(address)":{"notice":"Sets the address of the new contract owner."}},"version":1}}}}