{"contracts/burn/AnichessOrbsBurnPool.sol":{"AnichessOrbsBurnPool":{"abi":[{"inputs":[{"internalType":"uint256","name":"initialTime","type":"uint256"},{"internalType":"uint256","name":"cycleDuration","type":"uint256"},{"internalType":"uint256","name":"maxCycle","type":"uint256"},{"internalType":"contract IERC1155Burnable","name":"token","type":"address"},{"internalType":"bytes32","name":"merkleRoot","type":"bytes32"},{"internalType":"contract IERC1155Burnable","name":"multiplierToken","type":"address"},{"internalType":"uint256","name":"multiplierTokenId","type":"uint256"},{"internalType":"uint256","name":"tokenMultiplier","type":"uint256"},{"internalType":"contract IForwarderRegistry","name":"forwarderRegistry","type":"address"}],"stateMutability":"nonpayable","type":"constructor"},{"inputs":[{"internalType":"address","name":"recipient","type":"address"}],"name":"AlreadyClaimedLeaderboardMultiplier","type":"error"},{"inputs":[],"name":"AlreadySetTiers","type":"error"},{"inputs":[{"internalType":"uint256","name":"tokenId","type":"uint256"}],"name":"AlreadySetTokenWeight","type":"error"},{"inputs":[{"internalType":"address","name":"wallet","type":"address"}],"name":"AlreadyUnlockedTokenMultiplier","type":"error"},{"inputs":[],"name":"IllegalInterfaceId","type":"error"},{"inputs":[],"name":"InconsistentArrays","type":"error"},{"inputs":[],"name":"IncorrectTiers","type":"error"},{"inputs":[{"internalType":"uint256","name":"cycle","type":"uint256"}],"name":"InvalidCycle","type":"error"},{"inputs":[],"name":"InvalidProof","type":"error"},{"inputs":[],"name":"InvalidToken","type":"error"},{"inputs":[{"internalType":"uint256","name":"amount","type":"uint256"},{"internalType":"uint256","name":"expectedAmount","type":"uint256"}],"name":"InvalidTokenAmount","type":"error"},{"inputs":[{"internalType":"address","name":"token","type":"address"},{"internalType":"uint256","name":"tokenId","type":"uint256"}],"name":"InvalidTokenId","type":"error"},{"inputs":[{"internalType":"address","name":"account","type":"address"}],"name":"NotContractOwner","type":"error"},{"anonymous":false,"inputs":[{"indexed":true,"internalType":"address","name":"recipient","type":"address"},{"indexed":false,"internalType":"uint256","name":"multiplier","type":"uint256"}],"name":"ClaimLeaderboardMultiplier","type":"event"},{"anonymous":false,"inputs":[{"indexed":true,"internalType":"address","name":"previousOwner","type":"address"},{"indexed":true,"internalType":"address","name":"newOwner","type":"address"}],"name":"OwnershipTransferred","type":"event"},{"anonymous":false,"inputs":[{"indexed":true,"internalType":"address","name":"burner","type":"address"},{"indexed":true,"internalType":"uint256","name":"cycle","type":"uint256"},{"indexed":false,"internalType":"uint256","name":"timestamp","type":"uint256"},{"indexed":false,"internalType":"uint256[]","name":"ids","type":"uint256[]"},{"indexed":false,"internalType":"uint256[]","name":"values","type":"uint256[]"},{"indexed":false,"internalType":"uint256","name":"totalAsh","type":"uint256"},{"indexed":false,"internalType":"uint256","name":"multiplier","type":"uint256"}],"name":"TokensBurnt","type":"event"},{"anonymous":false,"inputs":[{"indexed":false,"internalType":"address","name":"wallet","type":"address"},{"indexed":false,"internalType":"uint256","name":"timestamp","type":"uint256"}],"name":"UnlockTokenMultiplier","type":"event"},{"inputs":[],"name":"CYCLE_DURATION","outputs":[{"internalType":"uint256","name":"","type":"uint256"}],"stateMutability":"view","type":"function"},{"inputs":[],"name":"INITIAL_TIME","outputs":[{"internalType":"uint256","name":"","type":"uint256"}],"stateMutability":"view","type":"function"},{"inputs":[],"name":"MAX_CYCLE","outputs":[{"internalType":"uint256","name":"","type":"uint256"}],"stateMutability":"view","type":"function"},{"inputs":[],"name":"MERKLE_ROOT","outputs":[{"internalType":"bytes32","name":"","type":"bytes32"}],"stateMutability":"view","type":"function"},{"inputs":[],"name":"MULTIPLIER_TOKEN","outputs":[{"internalType":"contract IERC1155Burnable","name":"","type":"address"}],"stateMutability":"view","type":"function"},{"inputs":[],"name":"MULTIPLIER_TOKEN_ID","outputs":[{"internalType":"uint256","name":"","type":"uint256"}],"stateMutability":"view","type":"function"},{"inputs":[],"name":"TOKEN","outputs":[{"internalType":"contract IERC1155Burnable","name":"","type":"address"}],"stateMutability":"view","type":"function"},{"inputs":[],"name":"TOKEN_MULTIPLIER","outputs":[{"internalType":"uint256","name":"","type":"uint256"}],"stateMutability":"view","type":"function"},{"inputs":[{"internalType":"bytes32[]","name":"proof","type":"bytes32[]"},{"internalType":"address","name":"recipient","type":"address"},{"internalType":"uint256","name":"multiplier","type":"uint256"}],"name":"claimLeaderboardMultiplier","outputs":[],"stateMutability":"nonpayable","type":"function"},{"inputs":[{"internalType":"bytes32","name":"","type":"bytes32"}],"name":"claimStatus","outputs":[{"internalType":"bool","name":"","type":"bool"}],"stateMutability":"view","type":"function"},{"inputs":[],"name":"currentCycle","outputs":[{"internalType":"uint256","name":"","type":"uint256"}],"stateMutability":"view","type":"function"},{"inputs":[],"name":"forwarderRegistry","outputs":[{"internalType":"contract IForwarderRegistry","name":"","type":"address"}],"stateMutability":"view","type":"function"},{"inputs":[{"internalType":"uint256","name":"cycle","type":"uint256"}],"name":"getCycleReward","outputs":[{"internalType":"uint256","name":"","type":"uint256"}],"stateMutability":"view","type":"function"},{"inputs":[{"internalType":"address","name":"wallet","type":"address"}],"name":"getMultiplier","outputs":[{"internalType":"uint256","name":"multiplier","type":"uint256"}],"stateMutability":"view","type":"function"},{"inputs":[{"internalType":"uint256","name":"cycle","type":"uint256"},{"internalType":"address","name":"wallet","type":"address"}],"name":"getUserReward","outputs":[{"internalType":"uint256","name":"","type":"uint256"}],"stateMutability":"view","type":"function"},{"inputs":[{"internalType":"address","name":"forwarder","type":"address"}],"name":"isTrustedForwarder","outputs":[{"internalType":"bool","name":"","type":"bool"}],"stateMutability":"view","type":"function"},{"inputs":[{"internalType":"address","name":"","type":"address"}],"name":"leaderboardMultiplers","outputs":[{"internalType":"uint256","name":"","type":"uint256"}],"stateMutability":"view","type":"function"},{"inputs":[{"internalType":"address","name":"","type":"address"},{"internalType":"address","name":"from","type":"address"},{"internalType":"uint256[]","name":"ids","type":"uint256[]"},{"internalType":"uint256[]","name":"values","type":"uint256[]"},{"internalType":"bytes","name":"","type":"bytes"}],"name":"onERC1155BatchReceived","outputs":[{"internalType":"bytes4","name":"","type":"bytes4"}],"stateMutability":"nonpayable","type":"function"},{"inputs":[{"internalType":"address","name":"","type":"address"},{"internalType":"address","name":"from","type":"address"},{"internalType":"uint256","name":"id","type":"uint256"},{"internalType":"uint256","name":"value","type":"uint256"},{"internalType":"bytes","name":"","type":"bytes"}],"name":"onERC1155Received","outputs":[{"internalType":"bytes4","name":"","type":"bytes4"}],"stateMutability":"nonpayable","type":"function"},{"inputs":[],"name":"owner","outputs":[{"internalType":"address","name":"","type":"address"}],"stateMutability":"view","type":"function"},{"inputs":[{"internalType":"uint256[]","name":"_tiers","type":"uint256[]"},{"internalType":"uint256[]","name":"_tierRewards","type":"uint256[]"}],"name":"setTiers","outputs":[],"stateMutability":"nonpayable","type":"function"},{"inputs":[{"internalType":"uint256[]","name":"tokenIds","type":"uint256[]"},{"internalType":"uint256[]","name":"weights","type":"uint256[]"}],"name":"setTokensWeight","outputs":[],"stateMutability":"nonpayable","type":"function"},{"inputs":[{"internalType":"bytes4","name":"interfaceId","type":"bytes4"}],"name":"supportsInterface","outputs":[{"internalType":"bool","name":"","type":"bool"}],"stateMutability":"view","type":"function"},{"inputs":[{"internalType":"uint256","name":"","type":"uint256"}],"name":"tierRewards","outputs":[{"internalType":"uint256","name":"","type":"uint256"}],"stateMutability":"view","type":"function"},{"inputs":[{"internalType":"uint256","name":"","type":"uint256"}],"name":"tiers","outputs":[{"internalType":"uint256","name":"","type":"uint256"}],"stateMutability":"view","type":"function"},{"inputs":[{"internalType":"address","name":"","type":"address"}],"name":"tokenMultiplerUnlockStatus","outputs":[{"internalType":"bool","name":"","type":"bool"}],"stateMutability":"view","type":"function"},{"inputs":[{"internalType":"address","name":"newOwner","type":"address"}],"name":"transferOwnership","outputs":[],"stateMutability":"nonpayable","type":"function"},{"inputs":[{"internalType":"uint256","name":"","type":"uint256"},{"internalType":"address","name":"","type":"address"}],"name":"userAshByCycle","outputs":[{"internalType":"uint256","name":"","type":"uint256"}],"stateMutability":"view","type":"function"}],"devdoc":{"details":"This contract allows users to burn tokens and calculate rewards based on the amount of tokens burned.The rewards are calculated based on the total amount of tokens burned in the previous cycle.","errors":{"NotContractOwner(address)":[{"params":{"account":"The account that was checked."}}]},"events":{"OwnershipTransferred(address,address)":{"params":{"newOwner":"the new contract owner.","previousOwner":"the previous contract owner."}}},"kind":"dev","methods":{"claimLeaderboardMultiplier(bytes32[],address,uint256)":{"details":"Throws if the payout has already been claimed.Throws if the proof is invalid.","params":{"multiplier":"The multiplier for the recipient.","proof":"The Merkle proof for the claim.","recipient":"The recipient of the payout."}},"constructor":{"params":{"cycleDuration":"The duration of each cycle.","forwarderRegistry":"The forwarder registry contract.","initialTime":"The initial time of the contract.","maxCycle":"The maximum cycle.","merkleRoot":"The Merkle root of the leaderboard multiplier claim.","multiplierToken":"The IERC1155Burnable erc1155 contract for unlocking the token multiplier.","multiplierTokenId":"The token ID for unlocking the token multiplier.","token":"The IERC1155Burnable erc1155 contract.","tokenMultiplier":"The token multiplier."}},"currentCycle()":{"returns":{"_0":"cycle The current cycle."}},"getCycleReward(uint256)":{"details":"Throws if the cycle is invalid.","params":{"cycle":"The cycle number."},"returns":{"_0":"reward The reward for the cycle."}},"getMultiplier(address)":{"params":{"wallet":"The wallet address."},"returns":{"multiplier":"The multiplier for the user."}},"getUserReward(uint256,address)":{"details":"Throws if the cycle is invalid.","params":{"cycle":"The cycle number.","wallet":"The wallet address."},"returns":{"_0":"reward The reward for the user."}},"isTrustedForwarder(address)":{"params":{"forwarder":"The forwarder to check."},"returns":{"_0":"True if `forwarder` is trusted, false if not."}},"onERC1155BatchReceived(address,address,uint256[],uint256[],bytes)":{"details":"Throws if the token is invalid.Throws if the token ID is invalid.Throws if the cycle is invalid.","params":{"from":"The wallet address.","ids":"The token IDs to burn.","values":"The amount of tokens to burn."},"returns":{"_0":"The ERC1155Received selector."}},"onERC1155Received(address,address,uint256,uint256,bytes)":{"details":"Throws if the token is invalid.Throws if the token ID is invalid.Throws if the token amount is invalid.Throws if the token multiplier is already unlocked.","params":{"from":"The wallet address.","id":"The token ID.","value":"The token value."},"returns":{"_0":"The ERC1155Received selector."}},"owner()":{"returns":{"_0":"The address of the contract owner."}},"setTiers(uint256[],uint256[])":{"details":"Throws if the lengths of tiers and rewards are inconsistent.Throws if the tiers are empty.Throws if the tiers are already set.Throws if the tiers are not in increasing order.Throws if the rewards are not in increasing order.","params":{"_tierRewards":"The list of rewards for each tier.","_tiers":"The list of tiers."}},"setTokensWeight(uint256[],uint256[])":{"details":"Throws if the lengths of token IDs and weights are inconsistent.","params":{"tokenIds":"The token IDs.","weights":"The weights for each token."}},"supportsInterface(bytes4)":{"details":"Note: This function call must use less than 30 000 gas.","params":{"interfaceId":"the interface identifier to test."},"returns":{"_0":"True if the interface is supported, false if `interfaceId` is `0xffffffff` or if the interface is not supported."}},"transferOwnership(address)":{"details":"Reverts if the sender is not the contract owner.Emits an {OwnershipTransferred} event if `newOwner` is different from the current contract owner.","params":{"newOwner":"The address of the new contract owner. Using the zero address means renouncing ownership."}}},"title":"Anichess Orbs Burn Pool Contract","version":1},"evm":{"bytecode":{"linkReferences":{},"object":"6101a06040523480156200001257600080fd5b50604051620023bb380380620023bb833981016040819052620000359162000205565b6001600160a01b0381166080523362000063630271189760e51b60016200005b620000b6565b9190620000ec565b62000079816200007262000149565b9062000179565b505060c09790975260e09590955261010093909352610160526001600160a01b0391821661012052610140929092521660a05261018052620002b7565b600080620000e660017fca9d3e17f264b0f3984e2634e94adb37fa3e6a8103f06aeae6fa59e21c769f5e62000295565b92915050565b600160e01b6001600160e01b03198316016200011b576040516372c683bb60e01b815260040160405180910390fd5b6001600160e01b03199190911660009081526020929092526040909120805460ff1916911515919091179055565b600080620000e660017fc9ed16f33ab3a66c84bfd83099ccb2a8845871e2e1c1928f63797152f0fd54cd62000295565b6001600160a01b03811615620001d05781546001600160a01b0319166001600160a01b03821690811783556040516000907f8be0079c531659141344cd1fd0a4f28419497f9722a3daafe3b4186f6b6457e0908290a35b620001e86307f5828d60e41b60016200005b620000b6565b5050565b6001600160a01b03811681146200020257600080fd5b50565b60008060008060008060008060006101208a8c0312156200022557600080fd5b8951985060208a0151975060408a0151965060608a01516200024781620001ec565b60808b015160a08c015191975095506200026181620001ec565b8094505060c08a0151925060e08a015191506101008a01516200028481620001ec565b809150509295985092959850929598565b81810381811115620000e657634e487b7160e01b600052601160045260246000fd5b60805160a05160c05160e051610100516101205161014051610160516101805161202a62000391600039600081816102a00152610c5d0152600081816103480152610a8c0152600081816102510152818161100b01526112600152600081816103cf01528181610f9b0152611207015260008181610217015281816105bf015281816108ef0152610e520152600081816104da0152610d8001526000818161030e0152610da40152600081816104160152610ded0152600081816102c40152818161038d0152818161176a01526117f2015261202a6000f3fe608060405234801561001057600080fd5b50600436106101c45760003560e01c806364c19303116100f9578063bab2f55211610097578063e3a0ce0911610071578063e3a0ce09146104fc578063f23a6e611461051f578063f2fde38b14610532578063fa9fdc6a1461054557600080fd5b8063bab2f55214610489578063bc197c8114610491578063cd421fbf146104d557600080fd5b80638da5cb5b116100d35780638da5cb5b14610438578063a5bb3ec114610440578063a9d637e114610463578063ad740fa01461047657600080fd5b806364c19303146103ca57806370d92882146103f157806382bfefc81461041157600080fd5b80632b093fe911610166578063496baa4711610140578063496baa471461033057806351e75e8b14610343578063556c448d1461036a578063572b6c051461037d57600080fd5b80632b093fe91461029b5780632b4c9f16146102c2578063491bde661461030957600080fd5b806304585ac7116101a257806304585ac71461023957806316a3138b1461024c5780631b8ebc3c146102735780632099920e1461028857600080fd5b806301ffc9a7146101c9578063039af9eb146101f1578063043063bc14610212575b600080fd5b6101dc6101d7366004611943565b610570565b60405190151581526020015b60405180910390f35b6102046101ff366004611985565b61058a565b6040519081526020016101e8565b6102047f000000000000000000000000000000000000000000000000000000000000000081565b610204610247366004611985565b6105ab565b6102047f000000000000000000000000000000000000000000000000000000000000000081565b6102866102813660046119ea565b6106f8565b005b610204610296366004611a7f565b6108db565b6102047f000000000000000000000000000000000000000000000000000000000000000081565b7f00000000000000000000000000000000000000000000000000000000000000005b60405173ffffffffffffffffffffffffffffffffffffffff90911681526020016101e8565b6102047f000000000000000000000000000000000000000000000000000000000000000081565b61028661033e366004611aab565b6109b3565b6102047f000000000000000000000000000000000000000000000000000000000000000081565b610204610378366004611985565b610bb5565b6101dc61038b366004611b07565b7f000000000000000000000000000000000000000000000000000000000000000073ffffffffffffffffffffffffffffffffffffffff90811691161490565b6102e47f000000000000000000000000000000000000000000000000000000000000000081565b6102046103ff366004611b07565b60056020526000908152604090205481565b6102e47f000000000000000000000000000000000000000000000000000000000000000081565b6102e4610bc5565b6101dc61044e366004611b07565b60066020526000908152604090205460ff1681565b610204610471366004611b07565b610bf1565b610286610484366004611c0d565b610c8c565b610204610d7c565b6104a461049f366004611cb3565b610dd3565b6040517fffffffff0000000000000000000000000000000000000000000000000000000090911681526020016101e8565b6102047f000000000000000000000000000000000000000000000000000000000000000081565b6101dc61050a366004611985565b60046020526000908152604090205460ff1681565b6104a461052d366004611d6e565b6111ed565b610286610540366004611b07565b61142f565b610204610553366004611a7f565b600360209081526000928352604080842090915290825290205481565b60006105848261057e61144d565b9061147b565b92915050565b6000818154811061059a57600080fd5b600091825260209091200154905081565b60006105b5610d7c565b8211806105e157507f000000000000000000000000000000000000000000000000000000000000000082115b15610620576040517f764e560f000000000000000000000000000000000000000000000000000000008152600481018390526024015b60405180910390fd5b6000821561064b5760026000610637600186611e15565b81526020019081526020016000205461064e565b60005b905060015b60005481116106c3576000818154811061066f5761066f611e28565b90600052602060002001548210156106b157600161068d8183611e15565b8154811061069d5761069d611e28565b906000526020600020015492505050919050565b806106bb81611e57565b915050610653565b506000546001906106d5908290611e15565b815481106106e5576106e5611e28565b9060005260206000200154915050919050565b610711610703611555565b61070b61155f565b9061158d565b82811461074a576040517f35e83ac300000000000000000000000000000000000000000000000000000000815260040160405180910390fd5b6000839003610785576040517f7bd3bbea00000000000000000000000000000000000000000000000000000000815260040160405180910390fd5b600054156107bf576040517f65edd76100000000000000000000000000000000000000000000000000000000815260040160405180910390fd5b60015b838110156108ba5784846107d7600184611e15565b8181106107e6576107e6611e28565b905060200201358585838181106107ff576107ff611e28565b90506020020135101561083e576040517f7bd3bbea00000000000000000000000000000000000000000000000000000000815260040160405180910390fd5b828261084b600184611e15565b81811061085a5761085a611e28565b9050602002013583838381811061087357610873611e28565b9050602002013510156108b2576040517f7bd3bbea00000000000000000000000000000000000000000000000000000000815260040160405180910390fd5b6001016107c2565b506108c7600085856118e3565b506108d4600183836118e3565b5050505050565b60006108e5610d7c565b83118061091157507f000000000000000000000000000000000000000000000000000000000000000083115b1561094b576040517f764e560f00000000000000000000000000000000000000000000000000000000815260048101849052602401610617565b6000610956846105ab565b600085815260036020908152604080832073ffffffffffffffffffffffffffffffffffffffff88168452825280832054888452600290925290912054919250906109a08383611e8f565b6109aa9190611ea6565b95945050505050565b6040517fffffffffffffffffffffffffffffffffffffffff000000000000000000000000606084901b16602082015260348101829052600090605401604080517fffffffffffffffffffffffffffffffffffffffffffffffffffffffffffffffe081840301815291815281516020928301206000818152600490935291205490915060ff1615610a87576040517f8084224300000000000000000000000000000000000000000000000000000000815273ffffffffffffffffffffffffffffffffffffffff84166004820152602401610617565b610ae97f0000000000000000000000000000000000000000000000000000000000000000828787808060200260200160405190810160405280939291908181526020018383602002808284376000920191909152509294939250506115fc9050565b610b1f576040517f09bde33900000000000000000000000000000000000000000000000000000000815260040160405180910390fd5b73ffffffffffffffffffffffffffffffffffffffff83166000818152600560209081526040808320869055848352600482529182902080547fffffffffffffffffffffffffffffffffffffffffffffffffffffffffffffff0016600117905590518481527fad13a161261d327d2506101e44c2dd1737e7314cd7ed475a2819bdc64c76b857910160405180910390a25050505050565b6001818154811061059a57600080fd5b6000610bec610bd261155f565b5473ffffffffffffffffffffffffffffffffffffffff1690565b905090565b73ffffffffffffffffffffffffffffffffffffffff81166000908152600560205260408120548015610c235780610c26565b60015b73ffffffffffffffffffffffffffffffffffffffff841660009081526006602052604090205490925060ff168015610c8557610c827f000000000000000000000000000000000000000000000000000000000000000084611e8f565b92505b5050919050565b610c97610703611555565b8051825114610cd2576040517f35e83ac300000000000000000000000000000000000000000000000000000000815260040160405180910390fd5b60005b8251811015610d775760008181526007602052604090205415610d4157828181518110610d0457610d04611e28565b60200260200101516040517ffaf6788700000000000000000000000000000000000000000000000000000000815260040161061791815260200190565b818181518110610d5357610d53611e28565b60209081029190910181015160008381526007909252604090912055600101610cd5565b505050565b60007f0000000000000000000000000000000000000000000000000000000000000000610dc97f000000000000000000000000000000000000000000000000000000000000000042611e15565b610bec9190611ea6565b60003373ffffffffffffffffffffffffffffffffffffffff7f00000000000000000000000000000000000000000000000000000000000000001614610e44576040517fc1ab6dc100000000000000000000000000000000000000000000000000000000815260040160405180910390fd5b6000610e4e610d7c565b90507f0000000000000000000000000000000000000000000000000000000000000000811115610ead576040517f764e560f00000000000000000000000000000000000000000000000000000000815260048101829052602401610617565b6000805b88811015610f96576000600760008c8c85818110610ed157610ed1611e28565b90506020020135815260200190815260200160002054905080600003610f5d57338b8b84818110610f0457610f04611e28565b6040517f1912ea5100000000000000000000000000000000000000000000000000000000815273ffffffffffffffffffffffffffffffffffffffff90941660048501526020029190910135602483015250604401610617565b80898984818110610f7057610f70611e28565b90506020020135610f819190611e8f565b610f8b9084611ee1565b925050600101610eb1565b5060607f000000000000000000000000000000000000000000000000000000000000000081600081518110610fcd57610fcd611e28565b602002602001019073ffffffffffffffffffffffffffffffffffffffff16908173ffffffffffffffffffffffffffffffffffffffff168152505060607f00000000000000000000000000000000000000000000000000000000000000008160008151811061103d5761103d611e28565b60200260200101818152505060006110548d610bf1565b90506110608185611e8f565b9350836003600087815260200190815260200160002060008f73ffffffffffffffffffffffffffffffffffffffff1673ffffffffffffffffffffffffffffffffffffffff16815260200190815260200160002060008282546110c29190611ee1565b9091555050600085815260026020526040812080548692906110e5908490611ee1565b925050819055503373ffffffffffffffffffffffffffffffffffffffff1663805349348e8e8e8e8e6040518663ffffffff1660e01b815260040161112d959493929190611f3f565b600060405180830381600087803b15801561114757600080fd5b505af115801561115b573d6000803e3d6000fd5b50505050848d73ffffffffffffffffffffffffffffffffffffffff167f3adb63d4fde6845c0b2322e50ebb349a765d70b1756f0c1d1cfa64da74681942428f8f8f8f8b896040516111b29796959493929190611f8e565b60405180910390a3507fbc197c81000000000000000000000000000000000000000000000000000000009d9c50505050505050505050505050565b60003373ffffffffffffffffffffffffffffffffffffffff7f0000000000000000000000000000000000000000000000000000000000000000161461125e576040517fc1ab6dc100000000000000000000000000000000000000000000000000000000815260040160405180910390fd5b7f000000000000000000000000000000000000000000000000000000000000000085146112c0576040517f1912ea5100000000000000000000000000000000000000000000000000000000815233600482015260248101869052604401610617565b83600114611304576040517ff789eb2f0000000000000000000000000000000000000000000000000000000081526004810185905260016024820152604401610617565b73ffffffffffffffffffffffffffffffffffffffff861660009081526006602052604090205460ff161561137c576040517f03a0028700000000000000000000000000000000000000000000000000000000815273ffffffffffffffffffffffffffffffffffffffff87166004820152602401610617565b73ffffffffffffffffffffffffffffffffffffffff861660008181526006602090815260409182902080547fffffffffffffffffffffffffffffffffffffffffffffffffffffffffffffff00166001179055815192835242908301527f2f1cff01c45015e0e6d543724e40ddc5472049fe52ae6a10dda3d2363d38f38b910160405180910390a1507ff23a6e61000000000000000000000000000000000000000000000000000000009695505050505050565b61144a61143a611555565b8261144361155f565b9190611612565b50565b60008061058460017fca9d3e17f264b0f3984e2634e94adb37fa3e6a8103f06aeae6fa59e21c769f5e611e15565b60007c01000000000000000000000000000000000000000000000000000000007fffffffff000000000000000000000000000000000000000000000000000000008316016114cb57506000610584565b7ffe003659000000000000000000000000000000000000000000000000000000007fffffffff0000000000000000000000000000000000000000000000000000000083160161151c57506001610584565b507fffffffff00000000000000000000000000000000000000000000000000000000166000908152602091909152604090205460ff1690565b6000610bec611727565b60008061058460017fc9ed16f33ab3a66c84bfd83099ccb2a8845871e2e1c1928f63797152f0fd54cd611e15565b815473ffffffffffffffffffffffffffffffffffffffff8281169116146115f8576040517f2ef4875e00000000000000000000000000000000000000000000000000000000815273ffffffffffffffffffffffffffffffffffffffff82166004820152602401610617565b5050565b600082611609858461186e565b14949350505050565b825473ffffffffffffffffffffffffffffffffffffffff908116908316811461167f576040517f2ef4875e00000000000000000000000000000000000000000000000000000000815273ffffffffffffffffffffffffffffffffffffffff84166004820152602401610617565b8173ffffffffffffffffffffffffffffffffffffffff168173ffffffffffffffffffffffffffffffffffffffff16146117215783547fffffffffffffffffffffffff00000000000000000000000000000000000000001673ffffffffffffffffffffffffffffffffffffffff8381169182178655604051908316907f8be0079c531659141344cd1fd0a4f28419497f9722a3daafe3b4186f6b6457e090600090a35b50505050565b6000333214806117375750601836105b1561174157503390565b7fffffffffffffffffffffffffffffffffffffffffffffffffffffffffffffffec36013560601c7f000000000000000000000000000000000000000000000000000000000000000073ffffffffffffffffffffffffffffffffffffffff1633148061185d57506040517f8929a8ca00000000000000000000000000000000000000000000000000000000815273ffffffffffffffffffffffffffffffffffffffff82811660048301523360248301527f00000000000000000000000000000000000000000000000000000000000000001690638929a8ca90604401602060405180830381865afa158015611839573d6000803e3d6000fd5b505050506040513d601f19601f8201168201806040525081019061185d9190611fd2565b1561186757919050565b3391505090565b600081815b84518110156118a95761189f8286838151811061189257611892611e28565b60200260200101516118b1565b9150600101611873565b509392505050565b60008183106118cd5760008281526020849052604090206118dc565b60008381526020839052604090205b9392505050565b82805482825590600052602060002090810192821561191e579160200282015b8281111561191e578235825591602001919060010190611903565b5061192a92915061192e565b5090565b5b8082111561192a576000815560010161192f565b60006020828403121561195557600080fd5b81357fffffffff00000000000000000000000000000000000000000000000000000000811681146118dc57600080fd5b60006020828403121561199757600080fd5b5035919050565b60008083601f8401126119b057600080fd5b50813567ffffffffffffffff8111156119c857600080fd5b6020830191508360208260051b85010111156119e357600080fd5b9250929050565b60008060008060408587031215611a0057600080fd5b843567ffffffffffffffff80821115611a1857600080fd5b611a248883890161199e565b90965094506020870135915080821115611a3d57600080fd5b50611a4a8782880161199e565b95989497509550505050565b803573ffffffffffffffffffffffffffffffffffffffff81168114611a7a57600080fd5b919050565b60008060408385031215611a9257600080fd5b82359150611aa260208401611a56565b90509250929050565b60008060008060608587031215611ac157600080fd5b843567ffffffffffffffff811115611ad857600080fd5b611ae48782880161199e565b9095509350611af7905060208601611a56565b9396929550929360400135925050565b600060208284031215611b1957600080fd5b6118dc82611a56565b7f4e487b7100000000000000000000000000000000000000000000000000000000600052604160045260246000fd5b600082601f830112611b6257600080fd5b8135602067ffffffffffffffff80831115611b7f57611b7f611b22565b8260051b6040517fffffffffffffffffffffffffffffffffffffffffffffffffffffffffffffffe0603f83011681018181108482111715611bc257611bc2611b22565b6040529384526020818701810194908101925087851115611be257600080fd5b6020870191505b84821015611c0257813583529183019190830190611be9565b979650505050505050565b60008060408385031215611c2057600080fd5b823567ffffffffffffffff80821115611c3857600080fd5b611c4486838701611b51565b93506020850135915080821115611c5a57600080fd5b50611c6785828601611b51565b9150509250929050565b60008083601f840112611c8357600080fd5b50813567ffffffffffffffff811115611c9b57600080fd5b6020830191508360208285010111156119e357600080fd5b60008060008060008060008060a0898b031215611ccf57600080fd5b611cd889611a56565b9750611ce660208a01611a56565b9650604089013567ffffffffffffffff80821115611d0357600080fd5b611d0f8c838d0161199e565b909850965060608b0135915080821115611d2857600080fd5b611d348c838d0161199e565b909650945060808b0135915080821115611d4d57600080fd5b50611d5a8b828c01611c71565b999c989b5096995094979396929594505050565b60008060008060008060a08789031215611d8757600080fd5b611d9087611a56565b9550611d9e60208801611a56565b94506040870135935060608701359250608087013567ffffffffffffffff811115611dc857600080fd5b611dd489828a01611c71565b979a9699509497509295939492505050565b7f4e487b7100000000000000000000000000000000000000000000000000000000600052601160045260246000fd5b8181038181111561058457610584611de6565b7f4e487b7100000000000000000000000000000000000000000000000000000000600052603260045260246000fd5b60007fffffffffffffffffffffffffffffffffffffffffffffffffffffffffffffffff8203611e8857611e88611de6565b5060010190565b808202811582820484141761058457610584611de6565b600082611edc577f4e487b7100000000000000000000000000000000000000000000000000000000600052601260045260246000fd5b500490565b8082018082111561058457610584611de6565b81835260007f07ffffffffffffffffffffffffffffffffffffffffffffffffffffffffffffff831115611f2657600080fd5b8260051b80836020870137939093016020019392505050565b73ffffffffffffffffffffffffffffffffffffffff86168152606060208201526000611f6f606083018688611ef4565b8281036040840152611f82818587611ef4565b98975050505050505050565b87815260a060208201526000611fa860a08301888a611ef4565b8281036040840152611fbb818789611ef4565b606084019590955250506080015295945050505050565b600060208284031215611fe457600080fd5b815180151581146118dc57600080fdfea2646970667358221220fe918149952dfc14a0b9560d5c5a922af5c54e40740bf8c98971dc1f7280374364736f6c63430008160033","opcodes":"PUSH2 0x1A0 PUSH1 0x40 MSTORE CALLVALUE DUP1 ISZERO PUSH3 0x12 JUMPI PUSH1 0x0 DUP1 REVERT JUMPDEST POP PUSH1 0x40 MLOAD PUSH3 0x23BB CODESIZE SUB DUP1 PUSH3 0x23BB DUP4 CODECOPY DUP2 ADD PUSH1 0x40 DUP2 SWAP1 MSTORE PUSH3 0x35 SWAP2 PUSH3 0x205 JUMP JUMPDEST PUSH1 0x1 PUSH1 0x1 PUSH1 0xA0 SHL SUB DUP2 AND PUSH1 0x80 MSTORE CALLER PUSH3 0x63 PUSH4 0x2711897 PUSH1 0xE5 SHL PUSH1 0x1 PUSH3 0x5B PUSH3 0xB6 JUMP JUMPDEST SWAP2 SWAP1 PUSH3 0xEC JUMP JUMPDEST PUSH3 0x79 DUP2 PUSH3 0x72 PUSH3 0x149 JUMP JUMPDEST SWAP1 PUSH3 0x179 JUMP JUMPDEST POP POP PUSH1 0xC0 SWAP8 SWAP1 SWAP8 MSTORE PUSH1 0xE0 SWAP6 SWAP1 SWAP6 MSTORE PUSH2 0x100 SWAP4 SWAP1 SWAP4 MSTORE PUSH2 0x160 MSTORE PUSH1 0x1 PUSH1 0x1 PUSH1 0xA0 SHL SUB SWAP2 DUP3 AND PUSH2 0x120 MSTORE PUSH2 0x140 SWAP3 SWAP1 SWAP3 MSTORE AND PUSH1 0xA0 MSTORE PUSH2 0x180 MSTORE PUSH3 0x2B7 JUMP JUMPDEST PUSH1 0x0 DUP1 PUSH3 0xE6 PUSH1 0x1 PUSH32 0xCA9D3E17F264B0F3984E2634E94ADB37FA3E6A8103F06AEAE6FA59E21C769F5E PUSH3 0x295 JUMP JUMPDEST SWAP3 SWAP2 POP POP JUMP JUMPDEST PUSH1 0x1 PUSH1 0xE0 SHL PUSH1 0x1 PUSH1 0x1 PUSH1 0xE0 SHL SUB NOT DUP4 AND ADD PUSH3 0x11B JUMPI PUSH1 0x40 MLOAD PUSH4 0x72C683BB PUSH1 0xE0 SHL DUP2 MSTORE PUSH1 0x4 ADD PUSH1 0x40 MLOAD DUP1 SWAP2 SUB SWAP1 REVERT JUMPDEST PUSH1 0x1 PUSH1 0x1 PUSH1 0xE0 SHL SUB NOT SWAP2 SWAP1 SWAP2 AND PUSH1 0x0 SWAP1 DUP2 MSTORE PUSH1 0x20 SWAP3 SWAP1 SWAP3 MSTORE PUSH1 0x40 SWAP1 SWAP2 KECCAK256 DUP1 SLOAD PUSH1 0xFF NOT AND SWAP2 ISZERO ISZERO SWAP2 SWAP1 SWAP2 OR SWAP1 SSTORE JUMP JUMPDEST PUSH1 0x0 DUP1 PUSH3 0xE6 PUSH1 0x1 PUSH32 0xC9ED16F33AB3A66C84BFD83099CCB2A8845871E2E1C1928F63797152F0FD54CD PUSH3 0x295 JUMP JUMPDEST PUSH1 0x1 PUSH1 0x1 PUSH1 0xA0 SHL SUB DUP2 AND ISZERO PUSH3 0x1D0 JUMPI DUP2 SLOAD PUSH1 0x1 PUSH1 0x1 PUSH1 0xA0 SHL SUB NOT AND PUSH1 0x1 PUSH1 0x1 PUSH1 0xA0 SHL SUB DUP3 AND SWAP1 DUP2 OR DUP4 SSTORE PUSH1 0x40 MLOAD PUSH1 0x0 SWAP1 PUSH32 0x8BE0079C531659141344CD1FD0A4F28419497F9722A3DAAFE3B4186F6B6457E0 SWAP1 DUP3 SWAP1 LOG3 JUMPDEST PUSH3 0x1E8 PUSH4 0x7F5828D PUSH1 0xE4 SHL PUSH1 0x1 PUSH3 0x5B PUSH3 0xB6 JUMP JUMPDEST POP POP JUMP JUMPDEST PUSH1 0x1 PUSH1 0x1 PUSH1 0xA0 SHL SUB DUP2 AND DUP2 EQ PUSH3 0x202 JUMPI PUSH1 0x0 DUP1 REVERT JUMPDEST POP JUMP JUMPDEST PUSH1 0x0 DUP1 PUSH1 0x0 DUP1 PUSH1 0x0 DUP1 PUSH1 0x0 DUP1 PUSH1 0x0 PUSH2 0x120 DUP11 DUP13 SUB SLT ISZERO PUSH3 0x225 JUMPI PUSH1 0x0 DUP1 REVERT JUMPDEST DUP10 MLOAD SWAP9 POP PUSH1 0x20 DUP11 ADD MLOAD SWAP8 POP PUSH1 0x40 DUP11 ADD MLOAD SWAP7 POP PUSH1 0x60 DUP11 ADD MLOAD PUSH3 0x247 DUP2 PUSH3 0x1EC JUMP JUMPDEST PUSH1 0x80 DUP12 ADD MLOAD PUSH1 0xA0 DUP13 ADD MLOAD SWAP2 SWAP8 POP SWAP6 POP PUSH3 0x261 DUP2 PUSH3 0x1EC JUMP JUMPDEST DUP1 SWAP5 POP POP PUSH1 0xC0 DUP11 ADD MLOAD SWAP3 POP PUSH1 0xE0 DUP11 ADD MLOAD SWAP2 POP PUSH2 0x100 DUP11 ADD MLOAD PUSH3 0x284 DUP2 PUSH3 0x1EC JUMP JUMPDEST DUP1 SWAP2 POP POP SWAP3 SWAP6 SWAP9 POP SWAP3 SWAP6 SWAP9 POP SWAP3 SWAP6 SWAP9 JUMP JUMPDEST DUP2 DUP2 SUB DUP2 DUP2 GT ISZERO PUSH3 0xE6 JUMPI PUSH4 0x4E487B71 PUSH1 0xE0 SHL PUSH1 0x0 MSTORE PUSH1 0x11 PUSH1 0x4 MSTORE PUSH1 0x24 PUSH1 0x0 REVERT JUMPDEST PUSH1 0x80 MLOAD PUSH1 0xA0 MLOAD PUSH1 0xC0 MLOAD PUSH1 0xE0 MLOAD PUSH2 0x100 MLOAD PUSH2 0x120 MLOAD PUSH2 0x140 MLOAD PUSH2 0x160 MLOAD PUSH2 0x180 MLOAD PUSH2 0x202A PUSH3 0x391 PUSH1 0x0 CODECOPY PUSH1 0x0 DUP2 DUP2 PUSH2 0x2A0 ADD MSTORE PUSH2 0xC5D ADD MSTORE PUSH1 0x0 DUP2 DUP2 PUSH2 0x348 ADD MSTORE PUSH2 0xA8C ADD MSTORE PUSH1 0x0 DUP2 DUP2 PUSH2 0x251 ADD MSTORE DUP2 DUP2 PUSH2 0x100B ADD MSTORE PUSH2 0x1260 ADD MSTORE PUSH1 0x0 DUP2 DUP2 PUSH2 0x3CF ADD MSTORE DUP2 DUP2 PUSH2 0xF9B ADD MSTORE PUSH2 0x1207 ADD MSTORE PUSH1 0x0 DUP2 DUP2 PUSH2 0x217 ADD MSTORE DUP2 DUP2 PUSH2 0x5BF ADD MSTORE DUP2 DUP2 PUSH2 0x8EF ADD MSTORE PUSH2 0xE52 ADD MSTORE PUSH1 0x0 DUP2 DUP2 PUSH2 0x4DA ADD MSTORE PUSH2 0xD80 ADD MSTORE PUSH1 0x0 DUP2 DUP2 PUSH2 0x30E ADD MSTORE PUSH2 0xDA4 ADD MSTORE PUSH1 0x0 DUP2 DUP2 PUSH2 0x416 ADD MSTORE PUSH2 0xDED ADD MSTORE PUSH1 0x0 DUP2 DUP2 PUSH2 0x2C4 ADD MSTORE DUP2 DUP2 PUSH2 0x38D ADD MSTORE DUP2 DUP2 PUSH2 0x176A ADD MSTORE PUSH2 0x17F2 ADD MSTORE PUSH2 0x202A PUSH1 0x0 RETURN INVALID PUSH1 0x80 PUSH1 0x40 MSTORE CALLVALUE DUP1 ISZERO PUSH2 0x10 JUMPI PUSH1 0x0 DUP1 REVERT JUMPDEST POP PUSH1 0x4 CALLDATASIZE LT PUSH2 0x1C4 JUMPI PUSH1 0x0 CALLDATALOAD PUSH1 0xE0 SHR DUP1 PUSH4 0x64C19303 GT PUSH2 0xF9 JUMPI DUP1 PUSH4 0xBAB2F552 GT PUSH2 0x97 JUMPI DUP1 PUSH4 0xE3A0CE09 GT PUSH2 0x71 JUMPI DUP1 PUSH4 0xE3A0CE09 EQ PUSH2 0x4FC JUMPI DUP1 PUSH4 0xF23A6E61 EQ PUSH2 0x51F JUMPI DUP1 PUSH4 0xF2FDE38B EQ PUSH2 0x532 JUMPI DUP1 PUSH4 0xFA9FDC6A EQ PUSH2 0x545 JUMPI PUSH1 0x0 DUP1 REVERT JUMPDEST DUP1 PUSH4 0xBAB2F552 EQ PUSH2 0x489 JUMPI DUP1 PUSH4 0xBC197C81 EQ PUSH2 0x491 JUMPI DUP1 PUSH4 0xCD421FBF EQ PUSH2 0x4D5 JUMPI PUSH1 0x0 DUP1 REVERT JUMPDEST DUP1 PUSH4 0x8DA5CB5B GT PUSH2 0xD3 JUMPI DUP1 PUSH4 0x8DA5CB5B EQ PUSH2 0x438 JUMPI DUP1 PUSH4 0xA5BB3EC1 EQ PUSH2 0x440 JUMPI DUP1 PUSH4 0xA9D637E1 EQ PUSH2 0x463 JUMPI DUP1 PUSH4 0xAD740FA0 EQ PUSH2 0x476 JUMPI PUSH1 0x0 DUP1 REVERT JUMPDEST DUP1 PUSH4 0x64C19303 EQ PUSH2 0x3CA JUMPI DUP1 PUSH4 0x70D92882 EQ PUSH2 0x3F1 JUMPI DUP1 PUSH4 0x82BFEFC8 EQ PUSH2 0x411 JUMPI PUSH1 0x0 DUP1 REVERT JUMPDEST DUP1 PUSH4 0x2B093FE9 GT PUSH2 0x166 JUMPI DUP1 PUSH4 0x496BAA47 GT PUSH2 0x140 JUMPI DUP1 PUSH4 0x496BAA47 EQ PUSH2 0x330 JUMPI DUP1 PUSH4 0x51E75E8B EQ PUSH2 0x343 JUMPI DUP1 PUSH4 0x556C448D EQ PUSH2 0x36A JUMPI DUP1 PUSH4 0x572B6C05 EQ PUSH2 0x37D JUMPI PUSH1 0x0 DUP1 REVERT JUMPDEST DUP1 PUSH4 0x2B093FE9 EQ PUSH2 0x29B JUMPI DUP1 PUSH4 0x2B4C9F16 EQ PUSH2 0x2C2 JUMPI DUP1 PUSH4 0x491BDE66 EQ PUSH2 0x309 JUMPI PUSH1 0x0 DUP1 REVERT JUMPDEST DUP1 PUSH4 0x4585AC7 GT PUSH2 0x1A2 JUMPI DUP1 PUSH4 0x4585AC7 EQ PUSH2 0x239 JUMPI DUP1 PUSH4 0x16A3138B EQ PUSH2 0x24C JUMPI DUP1 PUSH4 0x1B8EBC3C EQ PUSH2 0x273 JUMPI DUP1 PUSH4 0x2099920E EQ PUSH2 0x288 JUMPI PUSH1 0x0 DUP1 REVERT JUMPDEST DUP1 PUSH4 0x1FFC9A7 EQ PUSH2 0x1C9 JUMPI DUP1 PUSH4 0x39AF9EB EQ PUSH2 0x1F1 JUMPI DUP1 PUSH4 0x43063BC EQ PUSH2 0x212 JUMPI JUMPDEST PUSH1 0x0 DUP1 REVERT JUMPDEST PUSH2 0x1DC PUSH2 0x1D7 CALLDATASIZE PUSH1 0x4 PUSH2 0x1943 JUMP JUMPDEST PUSH2 0x570 JUMP JUMPDEST PUSH1 0x40 MLOAD SWAP1 ISZERO ISZERO DUP2 MSTORE PUSH1 0x20 ADD JUMPDEST PUSH1 0x40 MLOAD DUP1 SWAP2 SUB SWAP1 RETURN JUMPDEST PUSH2 0x204 PUSH2 0x1FF CALLDATASIZE PUSH1 0x4 PUSH2 0x1985 JUMP JUMPDEST PUSH2 0x58A JUMP JUMPDEST PUSH1 0x40 MLOAD SWAP1 DUP2 MSTORE PUSH1 0x20 ADD PUSH2 0x1E8 JUMP JUMPDEST PUSH2 0x204 PUSH32 0x0 DUP2 JUMP JUMPDEST PUSH2 0x204 PUSH2 0x247 CALLDATASIZE PUSH1 0x4 PUSH2 0x1985 JUMP JUMPDEST PUSH2 0x5AB JUMP JUMPDEST PUSH2 0x204 PUSH32 0x0 DUP2 JUMP JUMPDEST PUSH2 0x286 PUSH2 0x281 CALLDATASIZE PUSH1 0x4 PUSH2 0x19EA JUMP JUMPDEST PUSH2 0x6F8 JUMP JUMPDEST STOP JUMPDEST PUSH2 0x204 PUSH2 0x296 CALLDATASIZE PUSH1 0x4 PUSH2 0x1A7F JUMP JUMPDEST PUSH2 0x8DB JUMP JUMPDEST PUSH2 0x204 PUSH32 0x0 DUP2 JUMP JUMPDEST PUSH32 0x0 JUMPDEST PUSH1 0x40 MLOAD PUSH20 0xFFFFFFFFFFFFFFFFFFFFFFFFFFFFFFFFFFFFFFFF SWAP1 SWAP2 AND DUP2 MSTORE PUSH1 0x20 ADD PUSH2 0x1E8 JUMP JUMPDEST PUSH2 0x204 PUSH32 0x0 DUP2 JUMP JUMPDEST PUSH2 0x286 PUSH2 0x33E CALLDATASIZE PUSH1 0x4 PUSH2 0x1AAB JUMP JUMPDEST PUSH2 0x9B3 JUMP JUMPDEST PUSH2 0x204 PUSH32 0x0 DUP2 JUMP JUMPDEST PUSH2 0x204 PUSH2 0x378 CALLDATASIZE PUSH1 0x4 PUSH2 0x1985 JUMP JUMPDEST PUSH2 0xBB5 JUMP JUMPDEST PUSH2 0x1DC PUSH2 0x38B CALLDATASIZE PUSH1 0x4 PUSH2 0x1B07 JUMP JUMPDEST PUSH32 0x0 PUSH20 0xFFFFFFFFFFFFFFFFFFFFFFFFFFFFFFFFFFFFFFFF SWAP1 DUP2 AND SWAP2 AND EQ SWAP1 JUMP JUMPDEST PUSH2 0x2E4 PUSH32 0x0 DUP2 JUMP JUMPDEST PUSH2 0x204 PUSH2 0x3FF CALLDATASIZE PUSH1 0x4 PUSH2 0x1B07 JUMP JUMPDEST PUSH1 0x5 PUSH1 0x20 MSTORE PUSH1 0x0 SWAP1 DUP2 MSTORE PUSH1 0x40 SWAP1 KECCAK256 SLOAD DUP2 JUMP JUMPDEST PUSH2 0x2E4 PUSH32 0x0 DUP2 JUMP JUMPDEST PUSH2 0x2E4 PUSH2 0xBC5 JUMP JUMPDEST PUSH2 0x1DC PUSH2 0x44E CALLDATASIZE PUSH1 0x4 PUSH2 0x1B07 JUMP JUMPDEST PUSH1 0x6 PUSH1 0x20 MSTORE PUSH1 0x0 SWAP1 DUP2 MSTORE PUSH1 0x40 SWAP1 KECCAK256 SLOAD PUSH1 0xFF AND DUP2 JUMP JUMPDEST PUSH2 0x204 PUSH2 0x471 CALLDATASIZE PUSH1 0x4 PUSH2 0x1B07 JUMP JUMPDEST PUSH2 0xBF1 JUMP JUMPDEST PUSH2 0x286 PUSH2 0x484 CALLDATASIZE PUSH1 0x4 PUSH2 0x1C0D JUMP JUMPDEST PUSH2 0xC8C JUMP JUMPDEST PUSH2 0x204 PUSH2 0xD7C JUMP JUMPDEST PUSH2 0x4A4 PUSH2 0x49F CALLDATASIZE PUSH1 0x4 PUSH2 0x1CB3 JUMP JUMPDEST PUSH2 0xDD3 JUMP JUMPDEST PUSH1 0x40 MLOAD PUSH32 0xFFFFFFFF00000000000000000000000000000000000000000000000000000000 SWAP1 SWAP2 AND DUP2 MSTORE PUSH1 0x20 ADD PUSH2 0x1E8 JUMP JUMPDEST PUSH2 0x204 PUSH32 0x0 DUP2 JUMP JUMPDEST PUSH2 0x1DC PUSH2 0x50A CALLDATASIZE PUSH1 0x4 PUSH2 0x1985 JUMP JUMPDEST PUSH1 0x4 PUSH1 0x20 MSTORE PUSH1 0x0 SWAP1 DUP2 MSTORE PUSH1 0x40 SWAP1 KECCAK256 SLOAD PUSH1 0xFF AND DUP2 JUMP JUMPDEST PUSH2 0x4A4 PUSH2 0x52D CALLDATASIZE PUSH1 0x4 PUSH2 0x1D6E JUMP JUMPDEST PUSH2 0x11ED JUMP JUMPDEST PUSH2 0x286 PUSH2 0x540 CALLDATASIZE PUSH1 0x4 PUSH2 0x1B07 JUMP JUMPDEST PUSH2 0x142F JUMP JUMPDEST PUSH2 0x204 PUSH2 0x553 CALLDATASIZE PUSH1 0x4 PUSH2 0x1A7F JUMP JUMPDEST PUSH1 0x3 PUSH1 0x20 SWAP1 DUP2 MSTORE PUSH1 0x0 SWAP3 DUP4 MSTORE PUSH1 0x40 DUP1 DUP5 KECCAK256 SWAP1 SWAP2 MSTORE SWAP1 DUP3 MSTORE SWAP1 KECCAK256 SLOAD DUP2 JUMP JUMPDEST PUSH1 0x0 PUSH2 0x584 DUP3 PUSH2 0x57E PUSH2 0x144D JUMP JUMPDEST SWAP1 PUSH2 0x147B JUMP JUMPDEST SWAP3 SWAP2 POP POP JUMP JUMPDEST PUSH1 0x0 DUP2 DUP2 SLOAD DUP2 LT PUSH2 0x59A JUMPI PUSH1 0x0 DUP1 REVERT JUMPDEST PUSH1 0x0 SWAP2 DUP3 MSTORE PUSH1 0x20 SWAP1 SWAP2 KECCAK256 ADD SLOAD SWAP1 POP DUP2 JUMP JUMPDEST PUSH1 0x0 PUSH2 0x5B5 PUSH2 0xD7C JUMP JUMPDEST DUP3 GT DUP1 PUSH2 0x5E1 JUMPI POP PUSH32 0x0 DUP3 GT JUMPDEST ISZERO PUSH2 0x620 JUMPI PUSH1 0x40 MLOAD PUSH32 0x764E560F00000000000000000000000000000000000000000000000000000000 DUP2 MSTORE PUSH1 0x4 DUP2 ADD DUP4 SWAP1 MSTORE PUSH1 0x24 ADD JUMPDEST PUSH1 0x40 MLOAD DUP1 SWAP2 SUB SWAP1 REVERT JUMPDEST PUSH1 0x0 DUP3 ISZERO PUSH2 0x64B JUMPI PUSH1 0x2 PUSH1 0x0 PUSH2 0x637 PUSH1 0x1 DUP7 PUSH2 0x1E15 JUMP JUMPDEST DUP2 MSTORE PUSH1 0x20 ADD SWAP1 DUP2 MSTORE PUSH1 0x20 ADD PUSH1 0x0 KECCAK256 SLOAD PUSH2 0x64E JUMP JUMPDEST PUSH1 0x0 JUMPDEST SWAP1 POP PUSH1 0x1 JUMPDEST PUSH1 0x0 SLOAD DUP2 GT PUSH2 0x6C3 JUMPI PUSH1 0x0 DUP2 DUP2 SLOAD DUP2 LT PUSH2 0x66F JUMPI PUSH2 0x66F PUSH2 0x1E28 JUMP JUMPDEST SWAP1 PUSH1 0x0 MSTORE PUSH1 0x20 PUSH1 0x0 KECCAK256 ADD SLOAD DUP3 LT ISZERO PUSH2 0x6B1 JUMPI PUSH1 0x1 PUSH2 0x68D DUP2 DUP4 PUSH2 0x1E15 JUMP JUMPDEST DUP2 SLOAD DUP2 LT PUSH2 0x69D JUMPI PUSH2 0x69D PUSH2 0x1E28 JUMP JUMPDEST SWAP1 PUSH1 0x0 MSTORE PUSH1 0x20 PUSH1 0x0 KECCAK256 ADD SLOAD SWAP3 POP POP POP SWAP2 SWAP1 POP JUMP JUMPDEST DUP1 PUSH2 0x6BB DUP2 PUSH2 0x1E57 JUMP JUMPDEST SWAP2 POP POP PUSH2 0x653 JUMP JUMPDEST POP PUSH1 0x0 SLOAD PUSH1 0x1 SWAP1 PUSH2 0x6D5 SWAP1 DUP3 SWAP1 PUSH2 0x1E15 JUMP JUMPDEST DUP2 SLOAD DUP2 LT PUSH2 0x6E5 JUMPI PUSH2 0x6E5 PUSH2 0x1E28 JUMP JUMPDEST SWAP1 PUSH1 0x0 MSTORE PUSH1 0x20 PUSH1 0x0 KECCAK256 ADD SLOAD SWAP2 POP POP SWAP2 SWAP1 POP JUMP JUMPDEST PUSH2 0x711 PUSH2 0x703 PUSH2 0x1555 JUMP JUMPDEST PUSH2 0x70B PUSH2 0x155F JUMP JUMPDEST SWAP1 PUSH2 0x158D JUMP JUMPDEST DUP3 DUP2 EQ PUSH2 0x74A JUMPI PUSH1 0x40 MLOAD PUSH32 0x35E83AC300000000000000000000000000000000000000000000000000000000 DUP2 MSTORE PUSH1 0x4 ADD PUSH1 0x40 MLOAD DUP1 SWAP2 SUB SWAP1 REVERT JUMPDEST PUSH1 0x0 DUP4 SWAP1 SUB PUSH2 0x785 JUMPI PUSH1 0x40 MLOAD PUSH32 0x7BD3BBEA00000000000000000000000000000000000000000000000000000000 DUP2 MSTORE PUSH1 0x4 ADD PUSH1 0x40 MLOAD DUP1 SWAP2 SUB SWAP1 REVERT JUMPDEST PUSH1 0x0 SLOAD ISZERO PUSH2 0x7BF JUMPI PUSH1 0x40 MLOAD PUSH32 0x65EDD76100000000000000000000000000000000000000000000000000000000 DUP2 MSTORE PUSH1 0x4 ADD PUSH1 0x40 MLOAD DUP1 SWAP2 SUB SWAP1 REVERT JUMPDEST PUSH1 0x1 JUMPDEST DUP4 DUP2 LT ISZERO PUSH2 0x8BA JUMPI DUP5 DUP5 PUSH2 0x7D7 PUSH1 0x1 DUP5 PUSH2 0x1E15 JUMP JUMPDEST DUP2 DUP2 LT PUSH2 0x7E6 JUMPI PUSH2 0x7E6 PUSH2 0x1E28 JUMP JUMPDEST SWAP1 POP PUSH1 0x20 MUL ADD CALLDATALOAD DUP6 DUP6 DUP4 DUP2 DUP2 LT PUSH2 0x7FF JUMPI PUSH2 0x7FF PUSH2 0x1E28 JUMP JUMPDEST SWAP1 POP PUSH1 0x20 MUL ADD CALLDATALOAD LT ISZERO PUSH2 0x83E JUMPI PUSH1 0x40 MLOAD PUSH32 0x7BD3BBEA00000000000000000000000000000000000000000000000000000000 DUP2 MSTORE PUSH1 0x4 ADD PUSH1 0x40 MLOAD DUP1 SWAP2 SUB SWAP1 REVERT JUMPDEST DUP3 DUP3 PUSH2 0x84B PUSH1 0x1 DUP5 PUSH2 0x1E15 JUMP JUMPDEST DUP2 DUP2 LT PUSH2 0x85A JUMPI PUSH2 0x85A PUSH2 0x1E28 JUMP JUMPDEST SWAP1 POP PUSH1 0x20 MUL ADD CALLDATALOAD DUP4 DUP4 DUP4 DUP2 DUP2 LT PUSH2 0x873 JUMPI PUSH2 0x873 PUSH2 0x1E28 JUMP JUMPDEST SWAP1 POP PUSH1 0x20 MUL ADD CALLDATALOAD LT ISZERO PUSH2 0x8B2 JUMPI PUSH1 0x40 MLOAD PUSH32 0x7BD3BBEA00000000000000000000000000000000000000000000000000000000 DUP2 MSTORE PUSH1 0x4 ADD PUSH1 0x40 MLOAD DUP1 SWAP2 SUB SWAP1 REVERT JUMPDEST PUSH1 0x1 ADD PUSH2 0x7C2 JUMP JUMPDEST POP PUSH2 0x8C7 PUSH1 0x0 DUP6 DUP6 PUSH2 0x18E3 JUMP JUMPDEST POP PUSH2 0x8D4 PUSH1 0x1 DUP4 DUP4 PUSH2 0x18E3 JUMP JUMPDEST POP POP POP POP POP JUMP JUMPDEST PUSH1 0x0 PUSH2 0x8E5 PUSH2 0xD7C JUMP JUMPDEST DUP4 GT DUP1 PUSH2 0x911 JUMPI POP PUSH32 0x0 DUP4 GT JUMPDEST ISZERO PUSH2 0x94B JUMPI PUSH1 0x40 MLOAD PUSH32 0x764E560F00000000000000000000000000000000000000000000000000000000 DUP2 MSTORE PUSH1 0x4 DUP2 ADD DUP5 SWAP1 MSTORE PUSH1 0x24 ADD PUSH2 0x617 JUMP JUMPDEST PUSH1 0x0 PUSH2 0x956 DUP5 PUSH2 0x5AB JUMP JUMPDEST PUSH1 0x0 DUP6 DUP2 MSTORE PUSH1 0x3 PUSH1 0x20 SWAP1 DUP2 MSTORE PUSH1 0x40 DUP1 DUP4 KECCAK256 PUSH20 0xFFFFFFFFFFFFFFFFFFFFFFFFFFFFFFFFFFFFFFFF DUP9 AND DUP5 MSTORE DUP3 MSTORE DUP1 DUP4 KECCAK256 SLOAD DUP9 DUP5 MSTORE PUSH1 0x2 SWAP1 SWAP3 MSTORE SWAP1 SWAP2 KECCAK256 SLOAD SWAP2 SWAP3 POP SWAP1 PUSH2 0x9A0 DUP4 DUP4 PUSH2 0x1E8F JUMP JUMPDEST PUSH2 0x9AA SWAP2 SWAP1 PUSH2 0x1EA6 JUMP JUMPDEST SWAP6 SWAP5 POP POP POP POP POP JUMP JUMPDEST PUSH1 0x40 MLOAD PUSH32 0xFFFFFFFFFFFFFFFFFFFFFFFFFFFFFFFFFFFFFFFF000000000000000000000000 PUSH1 0x60 DUP5 SWAP1 SHL AND PUSH1 0x20 DUP3 ADD MSTORE PUSH1 0x34 DUP2 ADD DUP3 SWAP1 MSTORE PUSH1 0x0 SWAP1 PUSH1 0x54 ADD PUSH1 0x40 DUP1 MLOAD PUSH32 0xFFFFFFFFFFFFFFFFFFFFFFFFFFFFFFFFFFFFFFFFFFFFFFFFFFFFFFFFFFFFFFE0 DUP2 DUP5 SUB ADD DUP2 MSTORE SWAP2 DUP2 MSTORE DUP2 MLOAD PUSH1 0x20 SWAP3 DUP4 ADD KECCAK256 PUSH1 0x0 DUP2 DUP2 MSTORE PUSH1 0x4 SWAP1 SWAP4 MSTORE SWAP2 KECCAK256 SLOAD SWAP1 SWAP2 POP PUSH1 0xFF AND ISZERO PUSH2 0xA87 JUMPI PUSH1 0x40 MLOAD PUSH32 0x8084224300000000000000000000000000000000000000000000000000000000 DUP2 MSTORE PUSH20 0xFFFFFFFFFFFFFFFFFFFFFFFFFFFFFFFFFFFFFFFF DUP5 AND PUSH1 0x4 DUP3 ADD MSTORE PUSH1 0x24 ADD PUSH2 0x617 JUMP JUMPDEST PUSH2 0xAE9 PUSH32 0x0 DUP3 DUP8 DUP8 DUP1 DUP1 PUSH1 0x20 MUL PUSH1 0x20 ADD PUSH1 0x40 MLOAD SWAP1 DUP2 ADD PUSH1 0x40 MSTORE DUP1 SWAP4 SWAP3 SWAP2 SWAP1 DUP2 DUP2 MSTORE PUSH1 0x20 ADD DUP4 DUP4 PUSH1 0x20 MUL DUP1 DUP3 DUP5 CALLDATACOPY PUSH1 0x0 SWAP3 ADD SWAP2 SWAP1 SWAP2 MSTORE POP SWAP3 SWAP5 SWAP4 SWAP3 POP POP PUSH2 0x15FC SWAP1 POP JUMP JUMPDEST PUSH2 0xB1F JUMPI PUSH1 0x40 MLOAD PUSH32 0x9BDE33900000000000000000000000000000000000000000000000000000000 DUP2 MSTORE PUSH1 0x4 ADD PUSH1 0x40 MLOAD DUP1 SWAP2 SUB SWAP1 REVERT JUMPDEST PUSH20 0xFFFFFFFFFFFFFFFFFFFFFFFFFFFFFFFFFFFFFFFF DUP4 AND PUSH1 0x0 DUP2 DUP2 MSTORE PUSH1 0x5 PUSH1 0x20 SWAP1 DUP2 MSTORE PUSH1 0x40 DUP1 DUP4 KECCAK256 DUP7 SWAP1 SSTORE DUP5 DUP4 MSTORE PUSH1 0x4 DUP3 MSTORE SWAP2 DUP3 SWAP1 KECCAK256 DUP1 SLOAD PUSH32 0xFFFFFFFFFFFFFFFFFFFFFFFFFFFFFFFFFFFFFFFFFFFFFFFFFFFFFFFFFFFFFF00 AND PUSH1 0x1 OR SWAP1 SSTORE SWAP1 MLOAD DUP5 DUP2 MSTORE PUSH32 0xAD13A161261D327D2506101E44C2DD1737E7314CD7ED475A2819BDC64C76B857 SWAP2 ADD PUSH1 0x40 MLOAD DUP1 SWAP2 SUB SWAP1 LOG2 POP POP POP POP POP JUMP JUMPDEST PUSH1 0x1 DUP2 DUP2 SLOAD DUP2 LT PUSH2 0x59A JUMPI PUSH1 0x0 DUP1 REVERT JUMPDEST PUSH1 0x0 PUSH2 0xBEC PUSH2 0xBD2 PUSH2 0x155F JUMP JUMPDEST SLOAD PUSH20 0xFFFFFFFFFFFFFFFFFFFFFFFFFFFFFFFFFFFFFFFF AND SWAP1 JUMP JUMPDEST SWAP1 POP SWAP1 JUMP JUMPDEST PUSH20 0xFFFFFFFFFFFFFFFFFFFFFFFFFFFFFFFFFFFFFFFF DUP2 AND PUSH1 0x0 SWAP1 DUP2 MSTORE PUSH1 0x5 PUSH1 0x20 MSTORE PUSH1 0x40 DUP2 KECCAK256 SLOAD DUP1 ISZERO PUSH2 0xC23 JUMPI DUP1 PUSH2 0xC26 JUMP JUMPDEST PUSH1 0x1 JUMPDEST PUSH20 0xFFFFFFFFFFFFFFFFFFFFFFFFFFFFFFFFFFFFFFFF DUP5 AND PUSH1 0x0 SWAP1 DUP2 MSTORE PUSH1 0x6 PUSH1 0x20 MSTORE PUSH1 0x40 SWAP1 KECCAK256 SLOAD SWAP1 SWAP3 POP PUSH1 0xFF AND DUP1 ISZERO PUSH2 0xC85 JUMPI PUSH2 0xC82 PUSH32 0x0 DUP5 PUSH2 0x1E8F JUMP JUMPDEST SWAP3 POP JUMPDEST POP POP SWAP2 SWAP1 POP JUMP JUMPDEST PUSH2 0xC97 PUSH2 0x703 PUSH2 0x1555 JUMP JUMPDEST DUP1 MLOAD DUP3 MLOAD EQ PUSH2 0xCD2 JUMPI PUSH1 0x40 MLOAD PUSH32 0x35E83AC300000000000000000000000000000000000000000000000000000000 DUP2 MSTORE PUSH1 0x4 ADD PUSH1 0x40 MLOAD DUP1 SWAP2 SUB SWAP1 REVERT JUMPDEST PUSH1 0x0 JUMPDEST DUP3 MLOAD DUP2 LT ISZERO PUSH2 0xD77 JUMPI PUSH1 0x0 DUP2 DUP2 MSTORE PUSH1 0x7 PUSH1 0x20 MSTORE PUSH1 0x40 SWAP1 KECCAK256 SLOAD ISZERO PUSH2 0xD41 JUMPI DUP3 DUP2 DUP2 MLOAD DUP2 LT PUSH2 0xD04 JUMPI PUSH2 0xD04 PUSH2 0x1E28 JUMP JUMPDEST PUSH1 0x20 MUL PUSH1 0x20 ADD ADD MLOAD PUSH1 0x40 MLOAD PUSH32 0xFAF6788700000000000000000000000000000000000000000000000000000000 DUP2 MSTORE PUSH1 0x4 ADD PUSH2 0x617 SWAP2 DUP2 MSTORE PUSH1 0x20 ADD SWAP1 JUMP JUMPDEST DUP2 DUP2 DUP2 MLOAD DUP2 LT PUSH2 0xD53 JUMPI PUSH2 0xD53 PUSH2 0x1E28 JUMP JUMPDEST PUSH1 0x20 SWAP1 DUP2 MUL SWAP2 SWAP1 SWAP2 ADD DUP2 ADD MLOAD PUSH1 0x0 DUP4 DUP2 MSTORE PUSH1 0x7 SWAP1 SWAP3 MSTORE PUSH1 0x40 SWAP1 SWAP2 KECCAK256 SSTORE PUSH1 0x1 ADD PUSH2 0xCD5 JUMP JUMPDEST POP POP POP JUMP JUMPDEST PUSH1 0x0 PUSH32 0x0 PUSH2 0xDC9 PUSH32 0x0 TIMESTAMP PUSH2 0x1E15 JUMP JUMPDEST PUSH2 0xBEC SWAP2 SWAP1 PUSH2 0x1EA6 JUMP JUMPDEST PUSH1 0x0 CALLER PUSH20 0xFFFFFFFFFFFFFFFFFFFFFFFFFFFFFFFFFFFFFFFF PUSH32 0x0 AND EQ PUSH2 0xE44 JUMPI PUSH1 0x40 MLOAD PUSH32 0xC1AB6DC100000000000000000000000000000000000000000000000000000000 DUP2 MSTORE PUSH1 0x4 ADD PUSH1 0x40 MLOAD DUP1 SWAP2 SUB SWAP1 REVERT JUMPDEST PUSH1 0x0 PUSH2 0xE4E PUSH2 0xD7C JUMP JUMPDEST SWAP1 POP PUSH32 0x0 DUP2 GT ISZERO PUSH2 0xEAD JUMPI PUSH1 0x40 MLOAD PUSH32 0x764E560F00000000000000000000000000000000000000000000000000000000 DUP2 MSTORE PUSH1 0x4 DUP2 ADD DUP3 SWAP1 MSTORE PUSH1 0x24 ADD PUSH2 0x617 JUMP JUMPDEST PUSH1 0x0 DUP1 JUMPDEST DUP9 DUP2 LT ISZERO PUSH2 0xF96 JUMPI PUSH1 0x0 PUSH1 0x7 PUSH1 0x0 DUP13 DUP13 DUP6 DUP2 DUP2 LT PUSH2 0xED1 JUMPI PUSH2 0xED1 PUSH2 0x1E28 JUMP JUMPDEST SWAP1 POP PUSH1 0x20 MUL ADD CALLDATALOAD DUP2 MSTORE PUSH1 0x20 ADD SWAP1 DUP2 MSTORE PUSH1 0x20 ADD PUSH1 0x0 KECCAK256 SLOAD SWAP1 POP DUP1 PUSH1 0x0 SUB PUSH2 0xF5D JUMPI CALLER DUP12 DUP12 DUP5 DUP2 DUP2 LT PUSH2 0xF04 JUMPI PUSH2 0xF04 PUSH2 0x1E28 JUMP JUMPDEST PUSH1 0x40 MLOAD PUSH32 0x1912EA5100000000000000000000000000000000000000000000000000000000 DUP2 MSTORE PUSH20 0xFFFFFFFFFFFFFFFFFFFFFFFFFFFFFFFFFFFFFFFF SWAP1 SWAP5 AND PUSH1 0x4 DUP6 ADD MSTORE PUSH1 0x20 MUL SWAP2 SWAP1 SWAP2 ADD CALLDATALOAD PUSH1 0x24 DUP4 ADD MSTORE POP PUSH1 0x44 ADD PUSH2 0x617 JUMP JUMPDEST DUP1 DUP10 DUP10 DUP5 DUP2 DUP2 LT PUSH2 0xF70 JUMPI PUSH2 0xF70 PUSH2 0x1E28 JUMP JUMPDEST SWAP1 POP PUSH1 0x20 MUL ADD CALLDATALOAD PUSH2 0xF81 SWAP2 SWAP1 PUSH2 0x1E8F JUMP JUMPDEST PUSH2 0xF8B SWAP1 DUP5 PUSH2 0x1EE1 JUMP JUMPDEST SWAP3 POP POP PUSH1 0x1 ADD PUSH2 0xEB1 JUMP JUMPDEST POP PUSH1 0x60 PUSH32 0x0 DUP2 PUSH1 0x0 DUP2 MLOAD DUP2 LT PUSH2 0xFCD JUMPI PUSH2 0xFCD PUSH2 0x1E28 JUMP JUMPDEST PUSH1 0x20 MUL PUSH1 0x20 ADD ADD SWAP1 PUSH20 0xFFFFFFFFFFFFFFFFFFFFFFFFFFFFFFFFFFFFFFFF AND SWAP1 DUP2 PUSH20 0xFFFFFFFFFFFFFFFFFFFFFFFFFFFFFFFFFFFFFFFF AND DUP2 MSTORE POP POP PUSH1 0x60 PUSH32 0x0 DUP2 PUSH1 0x0 DUP2 MLOAD DUP2 LT PUSH2 0x103D JUMPI PUSH2 0x103D PUSH2 0x1E28 JUMP JUMPDEST PUSH1 0x20 MUL PUSH1 0x20 ADD ADD DUP2 DUP2 MSTORE POP POP PUSH1 0x0 PUSH2 0x1054 DUP14 PUSH2 0xBF1 JUMP JUMPDEST SWAP1 POP PUSH2 0x1060 DUP2 DUP6 PUSH2 0x1E8F JUMP JUMPDEST SWAP4 POP DUP4 PUSH1 0x3 PUSH1 0x0 DUP8 DUP2 MSTORE PUSH1 0x20 ADD SWAP1 DUP2 MSTORE PUSH1 0x20 ADD PUSH1 0x0 KECCAK256 PUSH1 0x0 DUP16 PUSH20 0xFFFFFFFFFFFFFFFFFFFFFFFFFFFFFFFFFFFFFFFF AND PUSH20 0xFFFFFFFFFFFFFFFFFFFFFFFFFFFFFFFFFFFFFFFF AND DUP2 MSTORE PUSH1 0x20 ADD SWAP1 DUP2 MSTORE PUSH1 0x20 ADD PUSH1 0x0 KECCAK256 PUSH1 0x0 DUP3 DUP3 SLOAD PUSH2 0x10C2 SWAP2 SWAP1 PUSH2 0x1EE1 JUMP JUMPDEST SWAP1 SWAP2 SSTORE POP POP PUSH1 0x0 DUP6 DUP2 MSTORE PUSH1 0x2 PUSH1 0x20 MSTORE PUSH1 0x40 DUP2 KECCAK256 DUP1 SLOAD DUP7 SWAP3 SWAP1 PUSH2 0x10E5 SWAP1 DUP5 SWAP1 PUSH2 0x1EE1 JUMP JUMPDEST SWAP3 POP POP DUP2 SWAP1 SSTORE POP CALLER PUSH20 0xFFFFFFFFFFFFFFFFFFFFFFFFFFFFFFFFFFFFFFFF AND PUSH4 0x80534934 DUP15 DUP15 DUP15 DUP15 DUP15 PUSH1 0x40 MLOAD DUP7 PUSH4 0xFFFFFFFF AND PUSH1 0xE0 SHL DUP2 MSTORE PUSH1 0x4 ADD PUSH2 0x112D SWAP6 SWAP5 SWAP4 SWAP3 SWAP2 SWAP1 PUSH2 0x1F3F JUMP JUMPDEST PUSH1 0x0 PUSH1 0x40 MLOAD DUP1 DUP4 SUB DUP2 PUSH1 0x0 DUP8 DUP1 EXTCODESIZE ISZERO DUP1 ISZERO PUSH2 0x1147 JUMPI PUSH1 0x0 DUP1 REVERT JUMPDEST POP GAS CALL ISZERO DUP1 ISZERO PUSH2 0x115B JUMPI RETURNDATASIZE PUSH1 0x0 DUP1 RETURNDATACOPY RETURNDATASIZE PUSH1 0x0 REVERT JUMPDEST POP POP POP POP DUP5 DUP14 PUSH20 0xFFFFFFFFFFFFFFFFFFFFFFFFFFFFFFFFFFFFFFFF AND PUSH32 0x3ADB63D4FDE6845C0B2322E50EBB349A765D70B1756F0C1D1CFA64DA74681942 TIMESTAMP DUP16 DUP16 DUP16 DUP16 DUP12 DUP10 PUSH1 0x40 MLOAD PUSH2 0x11B2 SWAP8 SWAP7 SWAP6 SWAP5 SWAP4 SWAP3 SWAP2 SWAP1 PUSH2 0x1F8E JUMP JUMPDEST PUSH1 0x40 MLOAD DUP1 SWAP2 SUB SWAP1 LOG3 POP PUSH32 0xBC197C8100000000000000000000000000000000000000000000000000000000 SWAP14 SWAP13 POP POP POP POP POP POP POP POP POP POP POP POP POP JUMP JUMPDEST PUSH1 0x0 CALLER PUSH20 0xFFFFFFFFFFFFFFFFFFFFFFFFFFFFFFFFFFFFFFFF PUSH32 0x0 AND EQ PUSH2 0x125E JUMPI PUSH1 0x40 MLOAD PUSH32 0xC1AB6DC100000000000000000000000000000000000000000000000000000000 DUP2 MSTORE PUSH1 0x4 ADD PUSH1 0x40 MLOAD DUP1 SWAP2 SUB SWAP1 REVERT JUMPDEST PUSH32 0x0 DUP6 EQ PUSH2 0x12C0 JUMPI PUSH1 0x40 MLOAD PUSH32 0x1912EA5100000000000000000000000000000000000000000000000000000000 DUP2 MSTORE CALLER PUSH1 0x4 DUP3 ADD MSTORE PUSH1 0x24 DUP2 ADD DUP7 SWAP1 MSTORE PUSH1 0x44 ADD PUSH2 0x617 JUMP JUMPDEST DUP4 PUSH1 0x1 EQ PUSH2 0x1304 JUMPI PUSH1 0x40 MLOAD PUSH32 0xF789EB2F00000000000000000000000000000000000000000000000000000000 DUP2 MSTORE PUSH1 0x4 DUP2 ADD DUP6 SWAP1 MSTORE PUSH1 0x1 PUSH1 0x24 DUP3 ADD MSTORE PUSH1 0x44 ADD PUSH2 0x617 JUMP JUMPDEST PUSH20 0xFFFFFFFFFFFFFFFFFFFFFFFFFFFFFFFFFFFFFFFF DUP7 AND PUSH1 0x0 SWAP1 DUP2 MSTORE PUSH1 0x6 PUSH1 0x20 MSTORE PUSH1 0x40 SWAP1 KECCAK256 SLOAD PUSH1 0xFF AND ISZERO PUSH2 0x137C JUMPI PUSH1 0x40 MLOAD PUSH32 0x3A0028700000000000000000000000000000000000000000000000000000000 DUP2 MSTORE PUSH20 0xFFFFFFFFFFFFFFFFFFFFFFFFFFFFFFFFFFFFFFFF DUP8 AND PUSH1 0x4 DUP3 ADD MSTORE PUSH1 0x24 ADD PUSH2 0x617 JUMP JUMPDEST PUSH20 0xFFFFFFFFFFFFFFFFFFFFFFFFFFFFFFFFFFFFFFFF DUP7 AND PUSH1 0x0 DUP2 DUP2 MSTORE PUSH1 0x6 PUSH1 0x20 SWAP1 DUP2 MSTORE PUSH1 0x40 SWAP2 DUP3 SWAP1 KECCAK256 DUP1 SLOAD PUSH32 0xFFFFFFFFFFFFFFFFFFFFFFFFFFFFFFFFFFFFFFFFFFFFFFFFFFFFFFFFFFFFFF00 AND PUSH1 0x1 OR SWAP1 SSTORE DUP2 MLOAD SWAP3 DUP4 MSTORE TIMESTAMP SWAP1 DUP4 ADD MSTORE PUSH32 0x2F1CFF01C45015E0E6D543724E40DDC5472049FE52AE6A10DDA3D2363D38F38B SWAP2 ADD PUSH1 0x40 MLOAD DUP1 SWAP2 SUB SWAP1 LOG1 POP PUSH32 0xF23A6E6100000000000000000000000000000000000000000000000000000000 SWAP7 SWAP6 POP POP POP POP POP POP JUMP JUMPDEST PUSH2 0x144A PUSH2 0x143A PUSH2 0x1555 JUMP JUMPDEST DUP3 PUSH2 0x1443 PUSH2 0x155F JUMP JUMPDEST SWAP2 SWAP1 PUSH2 0x1612 JUMP JUMPDEST POP JUMP JUMPDEST PUSH1 0x0 DUP1 PUSH2 0x584 PUSH1 0x1 PUSH32 0xCA9D3E17F264B0F3984E2634E94ADB37FA3E6A8103F06AEAE6FA59E21C769F5E PUSH2 0x1E15 JUMP JUMPDEST PUSH1 0x0 PUSH29 0x100000000000000000000000000000000000000000000000000000000 PUSH32 0xFFFFFFFF00000000000000000000000000000000000000000000000000000000 DUP4 AND ADD PUSH2 0x14CB JUMPI POP PUSH1 0x0 PUSH2 0x584 JUMP JUMPDEST PUSH32 0xFE00365900000000000000000000000000000000000000000000000000000000 PUSH32 0xFFFFFFFF00000000000000000000000000000000000000000000000000000000 DUP4 AND ADD PUSH2 0x151C JUMPI POP PUSH1 0x1 PUSH2 0x584 JUMP JUMPDEST POP PUSH32 0xFFFFFFFF00000000000000000000000000000000000000000000000000000000 AND PUSH1 0x0 SWAP1 DUP2 MSTORE PUSH1 0x20 SWAP2 SWAP1 SWAP2 MSTORE PUSH1 0x40 SWAP1 KECCAK256 SLOAD PUSH1 0xFF AND SWAP1 JUMP JUMPDEST PUSH1 0x0 PUSH2 0xBEC PUSH2 0x1727 JUMP JUMPDEST PUSH1 0x0 DUP1 PUSH2 0x584 PUSH1 0x1 PUSH32 0xC9ED16F33AB3A66C84BFD83099CCB2A8845871E2E1C1928F63797152F0FD54CD PUSH2 0x1E15 JUMP JUMPDEST DUP2 SLOAD PUSH20 0xFFFFFFFFFFFFFFFFFFFFFFFFFFFFFFFFFFFFFFFF DUP3 DUP2 AND SWAP2 AND EQ PUSH2 0x15F8 JUMPI PUSH1 0x40 MLOAD PUSH32 0x2EF4875E00000000000000000000000000000000000000000000000000000000 DUP2 MSTORE PUSH20 0xFFFFFFFFFFFFFFFFFFFFFFFFFFFFFFFFFFFFFFFF DUP3 AND PUSH1 0x4 DUP3 ADD MSTORE PUSH1 0x24 ADD PUSH2 0x617 JUMP JUMPDEST POP POP JUMP JUMPDEST PUSH1 0x0 DUP3 PUSH2 0x1609 DUP6 DUP5 PUSH2 0x186E JUMP JUMPDEST EQ SWAP5 SWAP4 POP POP POP POP JUMP JUMPDEST DUP3 SLOAD PUSH20 0xFFFFFFFFFFFFFFFFFFFFFFFFFFFFFFFFFFFFFFFF SWAP1 DUP2 AND SWAP1 DUP4 AND DUP2 EQ PUSH2 0x167F JUMPI PUSH1 0x40 MLOAD PUSH32 0x2EF4875E00000000000000000000000000000000000000000000000000000000 DUP2 MSTORE PUSH20 0xFFFFFFFFFFFFFFFFFFFFFFFFFFFFFFFFFFFFFFFF DUP5 AND PUSH1 0x4 DUP3 ADD MSTORE PUSH1 0x24 ADD PUSH2 0x617 JUMP JUMPDEST DUP2 PUSH20 0xFFFFFFFFFFFFFFFFFFFFFFFFFFFFFFFFFFFFFFFF AND DUP2 PUSH20 0xFFFFFFFFFFFFFFFFFFFFFFFFFFFFFFFFFFFFFFFF AND EQ PUSH2 0x1721 JUMPI DUP4 SLOAD PUSH32 0xFFFFFFFFFFFFFFFFFFFFFFFF0000000000000000000000000000000000000000 AND PUSH20 0xFFFFFFFFFFFFFFFFFFFFFFFFFFFFFFFFFFFFFFFF DUP4 DUP2 AND SWAP2 DUP3 OR DUP7 SSTORE PUSH1 0x40 MLOAD SWAP1 DUP4 AND SWAP1 PUSH32 0x8BE0079C531659141344CD1FD0A4F28419497F9722A3DAAFE3B4186F6B6457E0 SWAP1 PUSH1 0x0 SWAP1 LOG3 JUMPDEST POP POP POP POP JUMP JUMPDEST PUSH1 0x0 CALLER ORIGIN EQ DUP1 PUSH2 0x1737 JUMPI POP PUSH1 0x18 CALLDATASIZE LT JUMPDEST ISZERO PUSH2 0x1741 JUMPI POP CALLER SWAP1 JUMP JUMPDEST PUSH32 0xFFFFFFFFFFFFFFFFFFFFFFFFFFFFFFFFFFFFFFFFFFFFFFFFFFFFFFFFFFFFFFEC CALLDATASIZE ADD CALLDATALOAD PUSH1 0x60 SHR PUSH32 0x0 PUSH20 0xFFFFFFFFFFFFFFFFFFFFFFFFFFFFFFFFFFFFFFFF AND CALLER EQ DUP1 PUSH2 0x185D JUMPI POP PUSH1 0x40 MLOAD PUSH32 0x8929A8CA00000000000000000000000000000000000000000000000000000000 DUP2 MSTORE PUSH20 0xFFFFFFFFFFFFFFFFFFFFFFFFFFFFFFFFFFFFFFFF DUP3 DUP2 AND PUSH1 0x4 DUP4 ADD MSTORE CALLER PUSH1 0x24 DUP4 ADD MSTORE PUSH32 0x0 AND SWAP1 PUSH4 0x8929A8CA SWAP1 PUSH1 0x44 ADD PUSH1 0x20 PUSH1 0x40 MLOAD DUP1 DUP4 SUB DUP2 DUP7 GAS STATICCALL ISZERO DUP1 ISZERO PUSH2 0x1839 JUMPI RETURNDATASIZE PUSH1 0x0 DUP1 RETURNDATACOPY RETURNDATASIZE PUSH1 0x0 REVERT JUMPDEST POP POP POP POP PUSH1 0x40 MLOAD RETURNDATASIZE PUSH1 0x1F NOT PUSH1 0x1F DUP3 ADD AND DUP3 ADD DUP1 PUSH1 0x40 MSTORE POP DUP2 ADD SWAP1 PUSH2 0x185D SWAP2 SWAP1 PUSH2 0x1FD2 JUMP JUMPDEST ISZERO PUSH2 0x1867 JUMPI SWAP2 SWAP1 POP JUMP JUMPDEST CALLER SWAP2 POP POP SWAP1 JUMP JUMPDEST PUSH1 0x0 DUP2 DUP2 JUMPDEST DUP5 MLOAD DUP2 LT ISZERO PUSH2 0x18A9 JUMPI PUSH2 0x189F DUP3 DUP7 DUP4 DUP2 MLOAD DUP2 LT PUSH2 0x1892 JUMPI PUSH2 0x1892 PUSH2 0x1E28 JUMP JUMPDEST PUSH1 0x20 MUL PUSH1 0x20 ADD ADD MLOAD PUSH2 0x18B1 JUMP JUMPDEST SWAP2 POP PUSH1 0x1 ADD PUSH2 0x1873 JUMP JUMPDEST POP SWAP4 SWAP3 POP POP POP JUMP JUMPDEST PUSH1 0x0 DUP2 DUP4 LT PUSH2 0x18CD JUMPI PUSH1 0x0 DUP3 DUP2 MSTORE PUSH1 0x20 DUP5 SWAP1 MSTORE PUSH1 0x40 SWAP1 KECCAK256 PUSH2 0x18DC JUMP JUMPDEST PUSH1 0x0 DUP4 DUP2 MSTORE PUSH1 0x20 DUP4 SWAP1 MSTORE PUSH1 0x40 SWAP1 KECCAK256 JUMPDEST SWAP4 SWAP3 POP POP POP JUMP JUMPDEST DUP3 DUP1 SLOAD DUP3 DUP3 SSTORE SWAP1 PUSH1 0x0 MSTORE PUSH1 0x20 PUSH1 0x0 KECCAK256 SWAP1 DUP2 ADD SWAP3 DUP3 ISZERO PUSH2 0x191E JUMPI SWAP2 PUSH1 0x20 MUL DUP3 ADD JUMPDEST DUP3 DUP2 GT ISZERO PUSH2 0x191E JUMPI DUP3 CALLDATALOAD DUP3 SSTORE SWAP2 PUSH1 0x20 ADD SWAP2 SWAP1 PUSH1 0x1 ADD SWAP1 PUSH2 0x1903 JUMP JUMPDEST POP PUSH2 0x192A SWAP3 SWAP2 POP PUSH2 0x192E JUMP JUMPDEST POP SWAP1 JUMP JUMPDEST JUMPDEST DUP1 DUP3 GT ISZERO PUSH2 0x192A JUMPI PUSH1 0x0 DUP2 SSTORE PUSH1 0x1 ADD PUSH2 0x192F JUMP JUMPDEST PUSH1 0x0 PUSH1 0x20 DUP3 DUP5 SUB SLT ISZERO PUSH2 0x1955 JUMPI PUSH1 0x0 DUP1 REVERT JUMPDEST DUP2 CALLDATALOAD PUSH32 0xFFFFFFFF00000000000000000000000000000000000000000000000000000000 DUP2 AND DUP2 EQ PUSH2 0x18DC JUMPI PUSH1 0x0 DUP1 REVERT JUMPDEST PUSH1 0x0 PUSH1 0x20 DUP3 DUP5 SUB SLT ISZERO PUSH2 0x1997 JUMPI PUSH1 0x0 DUP1 REVERT JUMPDEST POP CALLDATALOAD SWAP2 SWAP1 POP JUMP JUMPDEST PUSH1 0x0 DUP1 DUP4 PUSH1 0x1F DUP5 ADD SLT PUSH2 0x19B0 JUMPI PUSH1 0x0 DUP1 REVERT JUMPDEST POP DUP2 CALLDATALOAD PUSH8 0xFFFFFFFFFFFFFFFF DUP2 GT ISZERO PUSH2 0x19C8 JUMPI PUSH1 0x0 DUP1 REVERT JUMPDEST PUSH1 0x20 DUP4 ADD SWAP2 POP DUP4 PUSH1 0x20 DUP3 PUSH1 0x5 SHL DUP6 ADD ADD GT ISZERO PUSH2 0x19E3 JUMPI PUSH1 0x0 DUP1 REVERT JUMPDEST SWAP3 POP SWAP3 SWAP1 POP JUMP JUMPDEST PUSH1 0x0 DUP1 PUSH1 0x0 DUP1 PUSH1 0x40 DUP6 DUP8 SUB SLT ISZERO PUSH2 0x1A00 JUMPI PUSH1 0x0 DUP1 REVERT JUMPDEST DUP5 CALLDATALOAD PUSH8 0xFFFFFFFFFFFFFFFF DUP1 DUP3 GT ISZERO PUSH2 0x1A18 JUMPI PUSH1 0x0 DUP1 REVERT JUMPDEST PUSH2 0x1A24 DUP9 DUP4 DUP10 ADD PUSH2 0x199E JUMP JUMPDEST SWAP1 SWAP7 POP SWAP5 POP PUSH1 0x20 DUP8 ADD CALLDATALOAD SWAP2 POP DUP1 DUP3 GT ISZERO PUSH2 0x1A3D JUMPI PUSH1 0x0 DUP1 REVERT JUMPDEST POP PUSH2 0x1A4A DUP8 DUP3 DUP9 ADD PUSH2 0x199E JUMP JUMPDEST SWAP6 SWAP9 SWAP5 SWAP8 POP SWAP6 POP POP POP POP JUMP JUMPDEST DUP1 CALLDATALOAD PUSH20 0xFFFFFFFFFFFFFFFFFFFFFFFFFFFFFFFFFFFFFFFF DUP2 AND DUP2 EQ PUSH2 0x1A7A JUMPI PUSH1 0x0 DUP1 REVERT JUMPDEST SWAP2 SWAP1 POP JUMP JUMPDEST PUSH1 0x0 DUP1 PUSH1 0x40 DUP4 DUP6 SUB SLT ISZERO PUSH2 0x1A92 JUMPI PUSH1 0x0 DUP1 REVERT JUMPDEST DUP3 CALLDATALOAD SWAP2 POP PUSH2 0x1AA2 PUSH1 0x20 DUP5 ADD PUSH2 0x1A56 JUMP JUMPDEST SWAP1 POP SWAP3 POP SWAP3 SWAP1 POP JUMP JUMPDEST PUSH1 0x0 DUP1 PUSH1 0x0 DUP1 PUSH1 0x60 DUP6 DUP8 SUB SLT ISZERO PUSH2 0x1AC1 JUMPI PUSH1 0x0 DUP1 REVERT JUMPDEST DUP5 CALLDATALOAD PUSH8 0xFFFFFFFFFFFFFFFF DUP2 GT ISZERO PUSH2 0x1AD8 JUMPI PUSH1 0x0 DUP1 REVERT JUMPDEST PUSH2 0x1AE4 DUP8 DUP3 DUP9 ADD PUSH2 0x199E JUMP JUMPDEST SWAP1 SWAP6 POP SWAP4 POP PUSH2 0x1AF7 SWAP1 POP PUSH1 0x20 DUP7 ADD PUSH2 0x1A56 JUMP JUMPDEST SWAP4 SWAP7 SWAP3 SWAP6 POP SWAP3 SWAP4 PUSH1 0x40 ADD CALLDATALOAD SWAP3 POP POP JUMP JUMPDEST PUSH1 0x0 PUSH1 0x20 DUP3 DUP5 SUB SLT ISZERO PUSH2 0x1B19 JUMPI PUSH1 0x0 DUP1 REVERT JUMPDEST PUSH2 0x18DC DUP3 PUSH2 0x1A56 JUMP JUMPDEST PUSH32 0x4E487B7100000000000000000000000000000000000000000000000000000000 PUSH1 0x0 MSTORE PUSH1 0x41 PUSH1 0x4 MSTORE PUSH1 0x24 PUSH1 0x0 REVERT JUMPDEST PUSH1 0x0 DUP3 PUSH1 0x1F DUP4 ADD SLT PUSH2 0x1B62 JUMPI PUSH1 0x0 DUP1 REVERT JUMPDEST DUP2 CALLDATALOAD PUSH1 0x20 PUSH8 0xFFFFFFFFFFFFFFFF DUP1 DUP4 GT ISZERO PUSH2 0x1B7F JUMPI PUSH2 0x1B7F PUSH2 0x1B22 JUMP JUMPDEST DUP3 PUSH1 0x5 SHL PUSH1 0x40 MLOAD PUSH32 0xFFFFFFFFFFFFFFFFFFFFFFFFFFFFFFFFFFFFFFFFFFFFFFFFFFFFFFFFFFFFFFE0 PUSH1 0x3F DUP4 ADD AND DUP2 ADD DUP2 DUP2 LT DUP5 DUP3 GT OR ISZERO PUSH2 0x1BC2 JUMPI PUSH2 0x1BC2 PUSH2 0x1B22 JUMP JUMPDEST PUSH1 0x40 MSTORE SWAP4 DUP5 MSTORE PUSH1 0x20 DUP2 DUP8 ADD DUP2 ADD SWAP5 SWAP1 DUP2 ADD SWAP3 POP DUP8 DUP6 GT ISZERO PUSH2 0x1BE2 JUMPI PUSH1 0x0 DUP1 REVERT JUMPDEST PUSH1 0x20 DUP8 ADD SWAP2 POP JUMPDEST DUP5 DUP3 LT ISZERO PUSH2 0x1C02 JUMPI DUP2 CALLDATALOAD DUP4 MSTORE SWAP2 DUP4 ADD SWAP2 SWAP1 DUP4 ADD SWAP1 PUSH2 0x1BE9 JUMP JUMPDEST SWAP8 SWAP7 POP POP POP POP POP POP POP JUMP JUMPDEST PUSH1 0x0 DUP1 PUSH1 0x40 DUP4 DUP6 SUB SLT ISZERO PUSH2 0x1C20 JUMPI PUSH1 0x0 DUP1 REVERT JUMPDEST DUP3 CALLDATALOAD PUSH8 0xFFFFFFFFFFFFFFFF DUP1 DUP3 GT ISZERO PUSH2 0x1C38 JUMPI PUSH1 0x0 DUP1 REVERT JUMPDEST PUSH2 0x1C44 DUP7 DUP4 DUP8 ADD PUSH2 0x1B51 JUMP JUMPDEST SWAP4 POP PUSH1 0x20 DUP6 ADD CALLDATALOAD SWAP2 POP DUP1 DUP3 GT ISZERO PUSH2 0x1C5A JUMPI PUSH1 0x0 DUP1 REVERT JUMPDEST POP PUSH2 0x1C67 DUP6 DUP3 DUP7 ADD PUSH2 0x1B51 JUMP JUMPDEST SWAP2 POP POP SWAP3 POP SWAP3 SWAP1 POP JUMP JUMPDEST PUSH1 0x0 DUP1 DUP4 PUSH1 0x1F DUP5 ADD SLT PUSH2 0x1C83 JUMPI PUSH1 0x0 DUP1 REVERT JUMPDEST POP DUP2 CALLDATALOAD PUSH8 0xFFFFFFFFFFFFFFFF DUP2 GT ISZERO PUSH2 0x1C9B JUMPI PUSH1 0x0 DUP1 REVERT JUMPDEST PUSH1 0x20 DUP4 ADD SWAP2 POP DUP4 PUSH1 0x20 DUP3 DUP6 ADD ADD GT ISZERO PUSH2 0x19E3 JUMPI PUSH1 0x0 DUP1 REVERT JUMPDEST PUSH1 0x0 DUP1 PUSH1 0x0 DUP1 PUSH1 0x0 DUP1 PUSH1 0x0 DUP1 PUSH1 0xA0 DUP10 DUP12 SUB SLT ISZERO PUSH2 0x1CCF JUMPI PUSH1 0x0 DUP1 REVERT JUMPDEST PUSH2 0x1CD8 DUP10 PUSH2 0x1A56 JUMP JUMPDEST SWAP8 POP PUSH2 0x1CE6 PUSH1 0x20 DUP11 ADD PUSH2 0x1A56 JUMP JUMPDEST SWAP7 POP PUSH1 0x40 DUP10 ADD CALLDATALOAD PUSH8 0xFFFFFFFFFFFFFFFF DUP1 DUP3 GT ISZERO PUSH2 0x1D03 JUMPI PUSH1 0x0 DUP1 REVERT JUMPDEST PUSH2 0x1D0F DUP13 DUP4 DUP14 ADD PUSH2 0x199E JUMP JUMPDEST SWAP1 SWAP9 POP SWAP7 POP PUSH1 0x60 DUP12 ADD CALLDATALOAD SWAP2 POP DUP1 DUP3 GT ISZERO PUSH2 0x1D28 JUMPI PUSH1 0x0 DUP1 REVERT JUMPDEST PUSH2 0x1D34 DUP13 DUP4 DUP14 ADD PUSH2 0x199E JUMP JUMPDEST SWAP1 SWAP7 POP SWAP5 POP PUSH1 0x80 DUP12 ADD CALLDATALOAD SWAP2 POP DUP1 DUP3 GT ISZERO PUSH2 0x1D4D JUMPI PUSH1 0x0 DUP1 REVERT JUMPDEST POP PUSH2 0x1D5A DUP12 DUP3 DUP13 ADD PUSH2 0x1C71 JUMP JUMPDEST SWAP10 SWAP13 SWAP9 SWAP12 POP SWAP7 SWAP10 POP SWAP5 SWAP8 SWAP4 SWAP7 SWAP3 SWAP6 SWAP5 POP POP POP JUMP JUMPDEST PUSH1 0x0 DUP1 PUSH1 0x0 DUP1 PUSH1 0x0 DUP1 PUSH1 0xA0 DUP8 DUP10 SUB SLT ISZERO PUSH2 0x1D87 JUMPI PUSH1 0x0 DUP1 REVERT JUMPDEST PUSH2 0x1D90 DUP8 PUSH2 0x1A56 JUMP JUMPDEST SWAP6 POP PUSH2 0x1D9E PUSH1 0x20 DUP9 ADD PUSH2 0x1A56 JUMP JUMPDEST SWAP5 POP PUSH1 0x40 DUP8 ADD CALLDATALOAD SWAP4 POP PUSH1 0x60 DUP8 ADD CALLDATALOAD SWAP3 POP PUSH1 0x80 DUP8 ADD CALLDATALOAD PUSH8 0xFFFFFFFFFFFFFFFF DUP2 GT ISZERO PUSH2 0x1DC8 JUMPI PUSH1 0x0 DUP1 REVERT JUMPDEST PUSH2 0x1DD4 DUP10 DUP3 DUP11 ADD PUSH2 0x1C71 JUMP JUMPDEST SWAP8 SWAP11 SWAP7 SWAP10 POP SWAP5 SWAP8 POP SWAP3 SWAP6 SWAP4 SWAP5 SWAP3 POP POP POP JUMP JUMPDEST PUSH32 0x4E487B7100000000000000000000000000000000000000000000000000000000 PUSH1 0x0 MSTORE PUSH1 0x11 PUSH1 0x4 MSTORE PUSH1 0x24 PUSH1 0x0 REVERT JUMPDEST DUP2 DUP2 SUB DUP2 DUP2 GT ISZERO PUSH2 0x584 JUMPI PUSH2 0x584 PUSH2 0x1DE6 JUMP JUMPDEST PUSH32 0x4E487B7100000000000000000000000000000000000000000000000000000000 PUSH1 0x0 MSTORE PUSH1 0x32 PUSH1 0x4 MSTORE PUSH1 0x24 PUSH1 0x0 REVERT JUMPDEST PUSH1 0x0 PUSH32 0xFFFFFFFFFFFFFFFFFFFFFFFFFFFFFFFFFFFFFFFFFFFFFFFFFFFFFFFFFFFFFFFF DUP3 SUB PUSH2 0x1E88 JUMPI PUSH2 0x1E88 PUSH2 0x1DE6 JUMP JUMPDEST POP PUSH1 0x1 ADD SWAP1 JUMP JUMPDEST DUP1 DUP3 MUL DUP2 ISZERO DUP3 DUP3 DIV DUP5 EQ OR PUSH2 0x584 JUMPI PUSH2 0x584 PUSH2 0x1DE6 JUMP JUMPDEST PUSH1 0x0 DUP3 PUSH2 0x1EDC JUMPI PUSH32 0x4E487B7100000000000000000000000000000000000000000000000000000000 PUSH1 0x0 MSTORE PUSH1 0x12 PUSH1 0x4 MSTORE PUSH1 0x24 PUSH1 0x0 REVERT JUMPDEST POP DIV SWAP1 JUMP JUMPDEST DUP1 DUP3 ADD DUP1 DUP3 GT ISZERO PUSH2 0x584 JUMPI PUSH2 0x584 PUSH2 0x1DE6 JUMP JUMPDEST DUP2 DUP4 MSTORE PUSH1 0x0 PUSH32 0x7FFFFFFFFFFFFFFFFFFFFFFFFFFFFFFFFFFFFFFFFFFFFFFFFFFFFFFFFFFFFFF DUP4 GT ISZERO PUSH2 0x1F26 JUMPI PUSH1 0x0 DUP1 REVERT JUMPDEST DUP3 PUSH1 0x5 SHL DUP1 DUP4 PUSH1 0x20 DUP8 ADD CALLDATACOPY SWAP4 SWAP1 SWAP4 ADD PUSH1 0x20 ADD SWAP4 SWAP3 POP POP POP JUMP JUMPDEST PUSH20 0xFFFFFFFFFFFFFFFFFFFFFFFFFFFFFFFFFFFFFFFF DUP7 AND DUP2 MSTORE PUSH1 0x60 PUSH1 0x20 DUP3 ADD MSTORE PUSH1 0x0 PUSH2 0x1F6F PUSH1 0x60 DUP4 ADD DUP7 DUP9 PUSH2 0x1EF4 JUMP JUMPDEST DUP3 DUP2 SUB PUSH1 0x40 DUP5 ADD MSTORE PUSH2 0x1F82 DUP2 DUP6 DUP8 PUSH2 0x1EF4 JUMP JUMPDEST SWAP9 SWAP8 POP POP POP POP POP POP POP POP JUMP JUMPDEST DUP8 DUP2 MSTORE PUSH1 0xA0 PUSH1 0x20 DUP3 ADD MSTORE PUSH1 0x0 PUSH2 0x1FA8 PUSH1 0xA0 DUP4 ADD DUP9 DUP11 PUSH2 0x1EF4 JUMP JUMPDEST DUP3 DUP2 SUB PUSH1 0x40 DUP5 ADD MSTORE PUSH2 0x1FBB DUP2 DUP8 DUP10 PUSH2 0x1EF4 JUMP JUMPDEST PUSH1 0x60 DUP5 ADD SWAP6 SWAP1 SWAP6 MSTORE POP POP PUSH1 0x80 ADD MSTORE SWAP6 SWAP5 POP POP POP POP POP JUMP JUMPDEST PUSH1 0x0 PUSH1 0x20 DUP3 DUP5 SUB SLT ISZERO PUSH2 0x1FE4 JUMPI PUSH1 0x0 DUP1 REVERT JUMPDEST DUP2 MLOAD DUP1 ISZERO ISZERO DUP2 EQ PUSH2 0x18DC JUMPI PUSH1 0x0 DUP1 REVERT INVALID LOG2 PUSH5 0x6970667358 0x22 SLT KECCAK256 INVALID SWAP2 DUP2 0x49 SWAP6 0x2D 0xFC EQ LOG0 0xB9 JUMP 0xD 0x5C GAS SWAP3 0x2A CREATE2 0xC5 0x4E BLOCKHASH PUSH21 0xBF8C98971DC1F7280374364736F6C634300081600 CALLER "},"gasEstimates":{"creation":{"codeDepositCost":"1646800","executionCost":"infinite","totalCost":"infinite"},"external":{"CYCLE_DURATION()":"infinite","INITIAL_TIME()":"infinite","MAX_CYCLE()":"infinite","MERKLE_ROOT()":"infinite","MULTIPLIER_TOKEN()":"infinite","MULTIPLIER_TOKEN_ID()":"infinite","TOKEN()":"infinite","TOKEN_MULTIPLIER()":"infinite","claimLeaderboardMultiplier(bytes32[],address,uint256)":"infinite","claimStatus(bytes32)":"2483","currentCycle()":"infinite","forwarderRegistry()":"infinite","getCycleReward(uint256)":"infinite","getMultiplier(address)":"infinite","getUserReward(uint256,address)":"infinite","isTrustedForwarder(address)":"infinite","leaderboardMultiplers(address)":"2575","onERC1155BatchReceived(address,address,uint256[],uint256[],bytes)":"infinite","onERC1155Received(address,address,uint256,uint256,bytes)":"infinite","owner()":"infinite","setTiers(uint256[],uint256[])":"infinite","setTokensWeight(uint256[],uint256[])":"infinite","supportsInterface(bytes4)":"infinite","tierRewards(uint256)":"4664","tiers(uint256)":"4644","tokenMultiplerUnlockStatus(address)":"2575","transferOwnership(address)":"infinite","userAshByCycle(uint256,address)":"2715"},"internal":{"_msgData()":"infinite","_msgSender()":"infinite"}},"methodIdentifiers":{"CYCLE_DURATION()":"cd421fbf","INITIAL_TIME()":"491bde66","MAX_CYCLE()":"043063bc","MERKLE_ROOT()":"51e75e8b","MULTIPLIER_TOKEN()":"64c19303","MULTIPLIER_TOKEN_ID()":"16a3138b","TOKEN()":"82bfefc8","TOKEN_MULTIPLIER()":"2b093fe9","claimLeaderboardMultiplier(bytes32[],address,uint256)":"496baa47","claimStatus(bytes32)":"e3a0ce09","currentCycle()":"bab2f552","forwarderRegistry()":"2b4c9f16","getCycleReward(uint256)":"04585ac7","getMultiplier(address)":"a9d637e1","getUserReward(uint256,address)":"2099920e","isTrustedForwarder(address)":"572b6c05","leaderboardMultiplers(address)":"70d92882","onERC1155BatchReceived(address,address,uint256[],uint256[],bytes)":"bc197c81","onERC1155Received(address,address,uint256,uint256,bytes)":"f23a6e61","owner()":"8da5cb5b","setTiers(uint256[],uint256[])":"1b8ebc3c","setTokensWeight(uint256[],uint256[])":"ad740fa0","supportsInterface(bytes4)":"01ffc9a7","tierRewards(uint256)":"556c448d","tiers(uint256)":"039af9eb","tokenMultiplerUnlockStatus(address)":"a5bb3ec1","transferOwnership(address)":"f2fde38b","userAshByCycle(uint256,address)":"fa9fdc6a"}},"storageLayout":{"storage":[{"astId":1967,"contract":"contracts/burn/AnichessOrbsBurnPool.sol:AnichessOrbsBurnPool","label":"tiers","offset":0,"slot":"0","type":"t_array(t_uint256)dyn_storage"},{"astId":1971,"contract":"contracts/burn/AnichessOrbsBurnPool.sol:AnichessOrbsBurnPool","label":"tierRewards","offset":0,"slot":"1","type":"t_array(t_uint256)dyn_storage"},{"astId":1976,"contract":"contracts/burn/AnichessOrbsBurnPool.sol:AnichessOrbsBurnPool","label":"totalAshByCycle","offset":0,"slot":"2","type":"t_mapping(t_uint256,t_uint256)"},{"astId":1983,"contract":"contracts/burn/AnichessOrbsBurnPool.sol:AnichessOrbsBurnPool","label":"userAshByCycle","offset":0,"slot":"3","type":"t_mapping(t_uint256,t_mapping(t_address,t_uint256))"},{"astId":1988,"contract":"contracts/burn/AnichessOrbsBurnPool.sol:AnichessOrbsBurnPool","label":"claimStatus","offset":0,"slot":"4","type":"t_mapping(t_bytes32,t_bool)"},{"astId":1993,"contract":"contracts/burn/AnichessOrbsBurnPool.sol:AnichessOrbsBurnPool","label":"leaderboardMultiplers","offset":0,"slot":"5","type":"t_mapping(t_address,t_uint256)"},{"astId":1998,"contract":"contracts/burn/AnichessOrbsBurnPool.sol:AnichessOrbsBurnPool","label":"tokenMultiplerUnlockStatus","offset":0,"slot":"6","type":"t_mapping(t_address,t_bool)"},{"astId":2003,"contract":"contracts/burn/AnichessOrbsBurnPool.sol:AnichessOrbsBurnPool","label":"tokenWeights","offset":0,"slot":"7","type":"t_mapping(t_uint256,t_uint256)"}],"types":{"t_address":{"encoding":"inplace","label":"address","numberOfBytes":"20"},"t_array(t_uint256)dyn_storage":{"base":"t_uint256","encoding":"dynamic_array","label":"uint256[]","numberOfBytes":"32"},"t_bool":{"encoding":"inplace","label":"bool","numberOfBytes":"1"},"t_bytes32":{"encoding":"inplace","label":"bytes32","numberOfBytes":"32"},"t_mapping(t_address,t_bool)":{"encoding":"mapping","key":"t_address","label":"mapping(address => bool)","numberOfBytes":"32","value":"t_bool"},"t_mapping(t_address,t_uint256)":{"encoding":"mapping","key":"t_address","label":"mapping(address => uint256)","numberOfBytes":"32","value":"t_uint256"},"t_mapping(t_bytes32,t_bool)":{"encoding":"mapping","key":"t_bytes32","label":"mapping(bytes32 => bool)","numberOfBytes":"32","value":"t_bool"},"t_mapping(t_uint256,t_mapping(t_address,t_uint256))":{"encoding":"mapping","key":"t_uint256","label":"mapping(uint256 => mapping(address => uint256))","numberOfBytes":"32","value":"t_mapping(t_address,t_uint256)"},"t_mapping(t_uint256,t_uint256)":{"encoding":"mapping","key":"t_uint256","label":"mapping(uint256 => uint256)","numberOfBytes":"32","value":"t_uint256"},"t_uint256":{"encoding":"inplace","label":"uint256","numberOfBytes":"32"}}},"userdoc":{"errors":{"AlreadyClaimedLeaderboardMultiplier(address)":[{"notice":"Error thrown when the payout has already been claimed."}],"AlreadySetTiers()":[{"notice":"Error thrown when the tiers are already set."}],"AlreadySetTokenWeight(uint256)":[{"notice":"Error thrown when the token weight is already set."}],"AlreadyUnlockedTokenMultiplier(address)":[{"notice":"Error thrown when the wallet already has the token multiplier unlocked."}],"IllegalInterfaceId()":[{"notice":"Thrown when setting the illegal interfaceId 0xffffffff."}],"InconsistentArrays()":[{"notice":"Error thrown when the array lengths are inconsistent."}],"IncorrectTiers()":[{"notice":"Error thrown when the tiers are incorrect."}],"InvalidCycle(uint256)":[{"notice":"Error thrown when the cycle is invalid."}],"InvalidProof()":[{"notice":"Error thrown when the proof is invalid."}],"InvalidToken()":[{"notice":"Error thrown when the token is not approved."}],"InvalidTokenAmount(uint256,uint256)":[{"notice":"Error thrown when the token amount is invalid."}],"InvalidTokenId(address,uint256)":[{"notice":"Error thrown when the token ID is invalid."}],"NotContractOwner(address)":[{"notice":"Thrown when an account is not the contract owner but is required to."}]},"events":{"ClaimLeaderboardMultiplier(address,uint256)":{"notice":"Event emitted when the leaderboard multiplier is claimed."},"OwnershipTransferred(address,address)":{"notice":"Emitted when the contract ownership changes."},"TokensBurnt(address,uint256,uint256,uint256[],uint256[],uint256,uint256)":{"notice":"Event emitted when tokens are burnt."},"UnlockTokenMultiplier(address,uint256)":{"notice":"Event emitted when the token multiplier is unlocked."}},"kind":"user","methods":{"CYCLE_DURATION()":{"notice":"The duration of each cycle."},"INITIAL_TIME()":{"notice":"The initial time of the contract."},"MAX_CYCLE()":{"notice":"The maximum cycle."},"MERKLE_ROOT()":{"notice":"The Merkle root of the leaderboard multiplier claim."},"MULTIPLIER_TOKEN()":{"notice":"The IERC1155 erc1155 contract for unlocking the token multiplier."},"MULTIPLIER_TOKEN_ID()":{"notice":"The token ID for unlocking the token multiplier."},"TOKEN()":{"notice":"The IERC1155Burnable erc1155 contracts."},"TOKEN_MULTIPLIER()":{"notice":"The token multiplier."},"claimLeaderboardMultiplier(bytes32[],address,uint256)":{"notice":"Claims the leaderboard multiplier"},"claimStatus(bytes32)":{"notice":"The claim status for the leaderboard multiplier."},"constructor":{"notice":"Constructor for the ERC1155TokenBurn contract."},"currentCycle()":{"notice":"Get the current cycle."},"getCycleReward(uint256)":{"notice":"Get the reward for the cycle."},"getMultiplier(address)":{"notice":"Get the multiplier for the user."},"getUserReward(uint256,address)":{"notice":"Get the user reward for the cycle."},"isTrustedForwarder(address)":{"notice":"Checks whether a forwarder is trusted."},"leaderboardMultiplers(address)":{"notice":"The leaderboard multipliers for each user."},"onERC1155BatchReceived(address,address,uint256[],uint256[],bytes)":{"notice":"Burn the tokens and calculate the ash."},"onERC1155Received(address,address,uint256,uint256,bytes)":{"notice":"Unlock the token multiplier by burning the multiplier token."},"owner()":{"notice":"Gets the address of the contract owner."},"setTiers(uint256[],uint256[])":{"notice":"Set the tiers and rewards."},"setTokensWeight(uint256[],uint256[])":{"notice":"Set the token weights."},"supportsInterface(bytes4)":{"notice":"Returns whether this contract implements a given interface."},"tierRewards(uint256)":{"notice":"The list of rewards for each tier."},"tiers(uint256)":{"notice":"The list of tiers to decide the reward pool."},"tokenMultiplerUnlockStatus(address)":{"notice":"The token multiplier unlock status for each user."},"transferOwnership(address)":{"notice":"Sets the address of the new contract owner."},"userAshByCycle(uint256,address)":{"notice":"The total amount of ASH burned by each user in each cycle."}},"version":1}}}}