{"contracts/mocks/burn/OrbsBurnPoolMock.sol":{"OrbsBurnPoolMock":{"abi":[{"inputs":[{"internalType":"uint256","name":"initialTime","type":"uint256"},{"internalType":"uint256","name":"cycleDuration","type":"uint256"},{"internalType":"uint256","name":"maxCycle","type":"uint256"},{"internalType":"bytes32","name":"merkleRoot","type":"bytes32"},{"internalType":"contract IERC1155Burnable","name":"orbOfPower","type":"address"},{"internalType":"contract IERC1155Burnable","name":"missingOrb","type":"address"},{"internalType":"contract IForwarderRegistry","name":"forwarderRegistry","type":"address"}],"stateMutability":"nonpayable","type":"constructor"},{"inputs":[{"internalType":"address","name":"wallet","type":"address"}],"name":"AlreadySetROCMultiplier","type":"error"},{"inputs":[],"name":"IllegalInterfaceId","type":"error"},{"inputs":[{"internalType":"uint256","name":"cycle","type":"uint256"}],"name":"InvalidCycle","type":"error"},{"inputs":[{"internalType":"address","name":"recipient","type":"address"},{"internalType":"uint256","name":"puzzleGameMultiplierNumerator","type":"uint256"}],"name":"InvalidProof","type":"error"},{"inputs":[{"internalType":"address","name":"token","type":"address"}],"name":"InvalidTokenAddress","type":"error"},{"inputs":[{"internalType":"address","name":"token","type":"address"},{"internalType":"uint256","name":"tokenId","type":"uint256"}],"name":"InvalidTokenId","type":"error"},{"inputs":[{"internalType":"address","name":"token","type":"address"},{"internalType":"uint256","name":"tokenId","type":"uint256"},{"internalType":"uint256","name":"value","type":"uint256"}],"name":"InvalidTokenValue","type":"error"},{"inputs":[],"name":"ZeroCycleDuration","type":"error"},{"inputs":[],"name":"ZeroMaxCycle","type":"error"},{"anonymous":false,"inputs":[{"indexed":true,"internalType":"address","name":"burner","type":"address"},{"indexed":true,"internalType":"uint256","name":"cycle","type":"uint256"},{"indexed":false,"internalType":"uint256[]","name":"ids","type":"uint256[]"},{"indexed":false,"internalType":"uint256[]","name":"values","type":"uint256[]"},{"indexed":false,"internalType":"uint256","name":"ash","type":"uint256"},{"indexed":false,"internalType":"uint256","name":"totalAsh","type":"uint256"},{"indexed":false,"internalType":"uint256","name":"orbMultiplier","type":"uint256"}],"name":"GenerateAsh","type":"event"},{"anonymous":false,"inputs":[{"indexed":true,"internalType":"address","name":"recipient","type":"address"},{"indexed":false,"internalType":"uint256","name":"curOrbMultiplier","type":"uint256"},{"indexed":false,"internalType":"uint256","name":"updatedOrbMultiplier","type":"uint256"}],"name":"UpdateOrbMultiplier","type":"event"},{"inputs":[],"name":"BURN_WEIGHT_TOKEN_1","outputs":[{"internalType":"uint256","name":"","type":"uint256"}],"stateMutability":"view","type":"function"},{"inputs":[],"name":"BURN_WEIGHT_TOKEN_2","outputs":[{"internalType":"uint256","name":"","type":"uint256"}],"stateMutability":"view","type":"function"},{"inputs":[],"name":"BURN_WEIGHT_TOKEN_3","outputs":[{"internalType":"uint256","name":"","type":"uint256"}],"stateMutability":"view","type":"function"},{"inputs":[],"name":"BURN_WEIGHT_TOKEN_4","outputs":[{"internalType":"uint256","name":"","type":"uint256"}],"stateMutability":"view","type":"function"},{"inputs":[],"name":"BURN_WEIGHT_TOKEN_5","outputs":[{"internalType":"uint256","name":"","type":"uint256"}],"stateMutability":"view","type":"function"},{"inputs":[],"name":"BURN_WEIGHT_TOKEN_6","outputs":[{"internalType":"uint256","name":"","type":"uint256"}],"stateMutability":"view","type":"function"},{"inputs":[],"name":"BURN_WEIGHT_TOKEN_7","outputs":[{"internalType":"uint256","name":"","type":"uint256"}],"stateMutability":"view","type":"function"},{"inputs":[],"name":"CYCLE_DURATION","outputs":[{"internalType":"uint256","name":"","type":"uint256"}],"stateMutability":"view","type":"function"},{"inputs":[],"name":"INITIAL_TIME","outputs":[{"internalType":"uint256","name":"","type":"uint256"}],"stateMutability":"view","type":"function"},{"inputs":[],"name":"MAX_CYCLE","outputs":[{"internalType":"uint256","name":"","type":"uint256"}],"stateMutability":"view","type":"function"},{"inputs":[],"name":"MERKLE_ROOT","outputs":[{"internalType":"bytes32","name":"","type":"bytes32"}],"stateMutability":"view","type":"function"},{"inputs":[],"name":"MISSING_ORB","outputs":[{"internalType":"contract IERC1155Burnable","name":"","type":"address"}],"stateMutability":"view","type":"function"},{"inputs":[],"name":"MISSING_ORB_TOKEN_ID","outputs":[{"internalType":"uint256","name":"","type":"uint256"}],"stateMutability":"view","type":"function"},{"inputs":[],"name":"ORB_OF_POWER","outputs":[{"internalType":"contract IERC1155Burnable","name":"","type":"address"}],"stateMutability":"view","type":"function"},{"inputs":[],"name":"ROC_MULTIPLIER","outputs":[{"internalType":"uint256","name":"","type":"uint256"}],"stateMutability":"view","type":"function"},{"inputs":[],"name":"__msgData","outputs":[{"internalType":"bytes","name":"","type":"bytes"}],"stateMutability":"view","type":"function"},{"inputs":[],"name":"__msgSender","outputs":[{"internalType":"address","name":"","type":"address"}],"stateMutability":"view","type":"function"},{"inputs":[],"name":"currentCycle","outputs":[{"internalType":"uint256","name":"","type":"uint256"}],"stateMutability":"view","type":"function"},{"inputs":[],"name":"forwarderRegistry","outputs":[{"internalType":"contract IForwarderRegistry","name":"","type":"address"}],"stateMutability":"view","type":"function"},{"inputs":[{"internalType":"address","name":"forwarder","type":"address"}],"name":"isTrustedForwarder","outputs":[{"internalType":"bool","name":"","type":"bool"}],"stateMutability":"view","type":"function"},{"inputs":[{"internalType":"address","name":"","type":"address"},{"internalType":"address","name":"from","type":"address"},{"internalType":"uint256[]","name":"ids","type":"uint256[]"},{"internalType":"uint256[]","name":"values","type":"uint256[]"},{"internalType":"bytes","name":"data","type":"bytes"}],"name":"onERC1155BatchReceived","outputs":[{"internalType":"bytes4","name":"","type":"bytes4"}],"stateMutability":"nonpayable","type":"function"},{"inputs":[{"internalType":"address","name":"","type":"address"},{"internalType":"address","name":"from","type":"address"},{"internalType":"uint256","name":"id","type":"uint256"},{"internalType":"uint256","name":"value","type":"uint256"},{"internalType":"bytes","name":"data","type":"bytes"}],"name":"onERC1155Received","outputs":[{"internalType":"bytes4","name":"","type":"bytes4"}],"stateMutability":"nonpayable","type":"function"},{"inputs":[{"internalType":"address","name":"","type":"address"}],"name":"orbMultipliers","outputs":[{"internalType":"uint256","name":"","type":"uint256"}],"stateMutability":"view","type":"function"},{"inputs":[{"internalType":"bytes4","name":"interfaceId","type":"bytes4"}],"name":"supportsInterface","outputs":[{"internalType":"bool","name":"","type":"bool"}],"stateMutability":"view","type":"function"},{"inputs":[{"internalType":"uint256","name":"","type":"uint256"}],"name":"totalAshPerCycle","outputs":[{"internalType":"uint256","name":"","type":"uint256"}],"stateMutability":"view","type":"function"},{"inputs":[{"internalType":"uint256","name":"","type":"uint256"},{"internalType":"address","name":"","type":"address"}],"name":"userAshPerCycle","outputs":[{"internalType":"uint256","name":"","type":"uint256"}],"stateMutability":"view","type":"function"}],"devdoc":{"kind":"dev","methods":{"__msgData()":{"returns":{"_0":"The current msg.data value."}},"currentCycle()":{"returns":{"_0":"cycle The current cycle."}},"isTrustedForwarder(address)":{"params":{"forwarder":"The forwarder to check."},"returns":{"_0":"True if `forwarder` is trusted, false if not."}},"onERC1155BatchReceived(address,address,uint256[],uint256[],bytes)":{"details":"Throws if the token is invalid.Throws if the cycle is invalid.Throws if the token ID is invalid.Throws if the token amount is invalid.","params":{"data":"The merkle proof data and multiplier value for setting the token multiplier.","from":"The wallet address.","ids":"The token IDs to burn.","values":"The amount of tokens to burn."},"returns":{"_0":"The ERC1155Received selector."}},"onERC1155Received(address,address,uint256,uint256,bytes)":{"details":"Throws if the token is invalid.Throws if the cycle is invalid.Throws if the token ID is invalid.Throws if the token amount is invalid.Throws if the token multiplier has already been set.","params":{"data":"The merkle proof data and multiplier value for setting the token multiplier.","from":"The wallet address.","id":"The token ID.","value":"The token value."},"returns":{"_0":"The ERC1155Received selector."}},"supportsInterface(bytes4)":{"details":"Note: This function call must use less than 30 000 gas.","params":{"interfaceId":"the interface identifier to test."},"returns":{"_0":"True if the interface is supported, false if `interfaceId` is `0xffffffff` or if the interface is not supported."}}},"version":1},"evm":{"bytecode":{"linkReferences":{},"object":"6101606040523480156200001257600080fd5b5060405162001e4f38038062001e4f833981016040819052620000359162000197565b6001600160a01b0381166080528686868686868662000069630271189760e51b600162000061620000eb565b919062000121565b60e08790526000869003620000915760405163b870efbd60e01b815260040160405180910390fd5b6101008690526000859003620000ba57604051637e5e559b60e11b815260040160405180910390fd5b5061012093909352610140919091526001600160a01b0390811660a0521660c0525062000234975050505050505050565b6000806200011b60017fca9d3e17f264b0f3984e2634e94adb37fa3e6a8103f06aeae6fa59e21c769f5e62000212565b92915050565b600160e01b6001600160e01b031983160162000150576040516372c683bb60e01b815260040160405180910390fd5b6001600160e01b03199190911660009081526020929092526040909120805460ff1916911515919091179055565b6001600160a01b03811681146200019457600080fd5b50565b600080600080600080600060e0888a031215620001b357600080fd5b875196506020880151955060408801519450606088015193506080880151620001dc816200017e565b60a0890151909350620001ef816200017e565b60c089015190925062000202816200017e565b8091505092959891949750929550565b818103818111156200011b57634e487b7160e01b600052601160045260246000fd5b60805160a05160c05160e051610100516101205161014051611b5e620002f16000396000818161032f01528181610a0d0152610f9c0152600081816101f60152818161059a0152610d9d01526000818161044601526104bc0152600081816102dd01526104e001526000818161041f0152610ca90152600081816102450152818161052e01526108b301526000818161028e015281816103690152818161121b01528181611259015281816113d4015261145c0152611b5e6000f3fe608060405234801561001057600080fd5b50600436106101ae5760003560e01c806351e75e8b116100ee578063bc197c8111610097578063cd421fbf11610071578063cd421fbf14610441578063d1a91ff214610468578063f23a6e6114610470578063f95d10161461048357600080fd5b8063bc197c81146103ce578063c131754e14610412578063cd18a34f1461041a57600080fd5b8063aa918fd5116100c8578063aa918fd5146102d0578063ab504e73146103a6578063bab2f552146103c657600080fd5b806351e75e8b1461032a57806355f5b0a814610351578063572b6c051461035957600080fd5b806328a979cf1161015b5780633838a201116101355780633838a201146102c8578063424ab4f7146102d0578063491bde66146102d85780634dac1c2b146102ff57600080fd5b806328a979cf146102405780632b4c9f161461028c57806331e66e1e146102b257600080fd5b80630455645a1161018c5780630455645a1461021857806312828b7f146102205780631de0e40b146101db57600080fd5b806301ffc9a7146101b35780630277640e146101db578063043063bc146101f1575b600080fd5b6101c66101c136600461153b565b61048b565b60405190151581526020015b60405180910390f35b6101e3600181565b6040519081526020016101d2565b6101e37f000000000000000000000000000000000000000000000000000000000000000081565b6101e3600581565b6101e361022e3660046115a6565b60026020526000908152604090205481565b6102677f000000000000000000000000000000000000000000000000000000000000000081565b60405173ffffffffffffffffffffffffffffffffffffffff90911681526020016101d2565b7f0000000000000000000000000000000000000000000000000000000000000000610267565b6102ba6104a5565b6040516101d29291906115c1565b6101e3601981565b6101e3600381565b6101e37f000000000000000000000000000000000000000000000000000000000000000081565b6101e361030d36600461160e565b600160209081526000928352604080842090915290825290205481565b6101e37f000000000000000000000000000000000000000000000000000000000000000081565b6101e3600281565b6101c66103673660046115a6565b7f000000000000000000000000000000000000000000000000000000000000000073ffffffffffffffffffffffffffffffffffffffff90811691161490565b6101e36103b436600461163a565b60006020819052908152604090205481565b6101e36104b8565b6103e16103dc3660046116e1565b610514565b6040517fffffffff0000000000000000000000000000000000000000000000000000000090911681526020016101d2565b6101e3601081565b6102677f000000000000000000000000000000000000000000000000000000000000000081565b6101e37f000000000000000000000000000000000000000000000000000000000000000081565b610267610c85565b6103e161047e36600461179c565b610c8f565b6101e3600981565b600061049f826104996110b1565b906110df565b92915050565b3660006104b06111b9565b915091509091565b60007f00000000000000000000000000000000000000000000000000000000000000006105057f000000000000000000000000000000000000000000000000000000000000000042611843565b61050f9190611856565b905090565b60003373ffffffffffffffffffffffffffffffffffffffff7f0000000000000000000000000000000000000000000000000000000000000000161461058c576040517f733068030000000000000000000000000000000000000000000000000000000081523360048201526024015b60405180910390fd5b60006105966104b8565b90507f00000000000000000000000000000000000000000000000000000000000000008111156105f5576040517f764e560f00000000000000000000000000000000000000000000000000000000815260048101829052602401610583565b6040517f8053493400000000000000000000000000000000000000000000000000000000815233906380534934906106399030908c908c908c908c906004016118dc565b600060405180830381600087803b15801561065357600080fd5b505af1158015610667573d6000803e3d6000fd5b505050506000805b88811015610945578787828181106106895761068961192b565b9050602002013560000361072357338a8a838181106106aa576106aa61192b565b905060200201358989848181106106c3576106c361192b565b6040517fe1f366e900000000000000000000000000000000000000000000000000000000815273ffffffffffffffffffffffffffffffffffffffff9095166004860152602485019390935250602090910201356044820152606401610583565b8989828181106107355761073561192b565b905060200201356001036107795760018888838181106107575761075761192b565b90506020020135610768919061195a565b6107729083611971565b915061093d565b89898281811061078b5761078b61192b565b905060200201356002036107ad5760038888838181106107575761075761192b565b8989828181106107bf576107bf61192b565b905060200201356003036107e15760038888838181106107575761075761192b565b8989828181106107f3576107f361192b565b905060200201356004036108155760058888838181106107575761075761192b565b8989828181106108275761082761192b565b905060200201356005036108495760098888838181106107575761075761192b565b89898281811061085b5761085b61192b565b9050602002013560060361087d5760198888838181106107575761075761192b565b89898281811061088f5761088f61192b565b905060200201356007036108b15760108888838181106107575761075761192b565b7f00000000000000000000000000000000000000000000000000000000000000008a8a838181106108e4576108e461192b565b6040517f1912ea5100000000000000000000000000000000000000000000000000000000815273ffffffffffffffffffffffffffffffffffffffff90941660048501526020029190910135602483015250604401610583565b60010161066f565b5073ffffffffffffffffffffffffffffffffffffffff8a166000908152600260205260409020548a908515610b1757600080610983888a018a6119b3565b91509150608083901c600003610af7576040517fffffffffffffffffffffffffffffffffffffffff000000000000000000000000606086901b16602082015260348101829052600090605401604080517fffffffffffffffffffffffffffffffffffffffffffffffffffffffffffffffe081840301815291905280516020909101209050610a32837f0000000000000000000000000000000000000000000000000000000000000000836111c4565b610a87576040517fadbd651200000000000000000000000000000000000000000000000000000000815273ffffffffffffffffffffffffffffffffffffffff8616600482015260248101839052604401610583565b73ffffffffffffffffffffffffffffffffffffffff8516600081815260026020908152604091829020608086901b881790819055825188815291820181905292917f528dfe447bc8e2a31cbcf22a36526a2fcc9ac2b2fc9a850ddaf575bb2aab3433910160405180910390a29350505b612710610b04828761195a565b610b0e9190611856565b94505050610b3e565b608081901c8015610b3c57612710610b2f828661195a565b610b399190611856565b93505b505b6fffffffffffffffffffffffffffffffff81168015610b6457610b61818561195a565b93505b600085815260016020908152604080832073ffffffffffffffffffffffffffffffffffffffff87168452909152812054610b9f908690611971565b600087815260016020908152604080832073ffffffffffffffffffffffffffffffffffffffff89168452825280832084905589835290829052812080549293508792909190610bef908490611971565b92505081905550858473ffffffffffffffffffffffffffffffffffffffff167f6e46cd5a8f4134e080f5038ee4632b01a585b6052863e4a1f0d5c57b1a35645b8f8f8f8f8b888b604051610c499796959493929190611a95565b60405180910390a3507fbc197c81000000000000000000000000000000000000000000000000000000009e9d5050505050505050505050505050565b600061050f6111da565b60003373ffffffffffffffffffffffffffffffffffffffff7f00000000000000000000000000000000000000000000000000000000000000001614610d02576040517f73306803000000000000000000000000000000000000000000000000000000008152336004820152602401610583565b60018514610d45576040517f1912ea5100000000000000000000000000000000000000000000000000000000815233600482015260248101869052604401610583565b83600114610d8f576040517fe1f366e90000000000000000000000000000000000000000000000000000000081523360048201526024810186905260448101859052606401610583565b6000610d996104b8565b90507f0000000000000000000000000000000000000000000000000000000000000000811115610df8576040517f764e560f00000000000000000000000000000000000000000000000000000000815260048101829052602401610583565b73ffffffffffffffffffffffffffffffffffffffff87166000908152600260205260409020546fffffffffffffffffffffffffffffffff811615610e80576040517f383b549300000000000000000000000000000000000000000000000000000000815273ffffffffffffffffffffffffffffffffffffffff89166004820152602401610583565b6040517f124d91e50000000000000000000000000000000000000000000000000000000081523060048201526024810188905260448101879052339063124d91e590606401600060405180830381600087803b158015610edf57600080fd5b505af1158015610ef3573d6000803e3d6000fd5b505050600282179050841561102057608082901c60000361102057600080610f1d878901896119b3565b6040517fffffffffffffffffffffffffffffffffffffffff00000000000000000000000060608f901b166020820152603481018290529193509150600090605401604080517fffffffffffffffffffffffffffffffffffffffffffffffffffffffffffffffe081840301815291905280516020909101209050610fc1837f0000000000000000000000000000000000000000000000000000000000000000836111c4565b611016576040517fadbd651200000000000000000000000000000000000000000000000000000000815273ffffffffffffffffffffffffffffffffffffffff8d16600482015260248101839052604401610583565b5060801b90911790505b73ffffffffffffffffffffffffffffffffffffffff891660008181526002602090815260409182902084905581518581529081018490527f528dfe447bc8e2a31cbcf22a36526a2fcc9ac2b2fc9a850ddaf575bb2aab3433910160405180910390a2507ff23a6e61000000000000000000000000000000000000000000000000000000009998505050505050505050565b60008061049f60017fca9d3e17f264b0f3984e2634e94adb37fa3e6a8103f06aeae6fa59e21c769f5e611843565b60007c01000000000000000000000000000000000000000000000000000000007fffffffff0000000000000000000000000000000000000000000000000000000083160161112f5750600061049f565b7ffe003659000000000000000000000000000000000000000000000000000000007fffffffff000000000000000000000000000000000000000000000000000000008316016111805750600161049f565b507fffffffff00000000000000000000000000000000000000000000000000000000166000908152602091909152604090205460ff1690565b3660006104b06111e4565b6000826111d1858461134e565b14949350505050565b600061050f611391565b366000333214806111f55750601836105b156112035750600091369150565b3373ffffffffffffffffffffffffffffffffffffffff7f0000000000000000000000000000000000000000000000000000000000000000161480611338575073ffffffffffffffffffffffffffffffffffffffff7f000000000000000000000000000000000000000000000000000000000000000016638929a8ca367fffffffffffffffffffffffffffffffffffffffffffffffffffffffffffffffec013560601c6040517fffffffff0000000000000000000000000000000000000000000000000000000060e084901b16815273ffffffffffffffffffffffffffffffffffffffff9091166004820152336024820152604401602060405180830381865afa158015611314573d6000803e3d6000fd5b505050506040513d601f19601f820116820180604052508101906113389190611adc565b15611345576104b06114d8565b50600091369150565b600081815b84518110156113895761137f828683815181106113725761137261192b565b6020026020010151611509565b9150600101611353565b509392505050565b6000333214806113a15750601836105b156113ab57503390565b7fffffffffffffffffffffffffffffffffffffffffffffffffffffffffffffffec36013560601c7f000000000000000000000000000000000000000000000000000000000000000073ffffffffffffffffffffffffffffffffffffffff163314806114c757506040517f8929a8ca00000000000000000000000000000000000000000000000000000000815273ffffffffffffffffffffffffffffffffffffffff82811660048301523360248301527f00000000000000000000000000000000000000000000000000000000000000001690638929a8ca90604401602060405180830381865afa1580156114a3573d6000803e3d6000fd5b505050506040513d601f19601f820116820180604052508101906114c79190611adc565b156114d157919050565b3391505090565b3660006104b07fffffffffffffffffffffffffffffffffffffffffffffffffffffffffffffffec8301828481611afe565b6000818310611525576000828152602084905260409020611534565b60008381526020839052604090205b9392505050565b60006020828403121561154d57600080fd5b81357fffffffff000000000000000000000000000000000000000000000000000000008116811461153457600080fd5b803573ffffffffffffffffffffffffffffffffffffffff811681146115a157600080fd5b919050565b6000602082840312156115b857600080fd5b6115348261157d565b60208152816020820152818360408301376000818301604090810191909152601f9092017fffffffffffffffffffffffffffffffffffffffffffffffffffffffffffffffe0160101919050565b6000806040838503121561162157600080fd5b823591506116316020840161157d565b90509250929050565b60006020828403121561164c57600080fd5b5035919050565b60008083601f84011261166557600080fd5b50813567ffffffffffffffff81111561167d57600080fd5b6020830191508360208260051b850101111561169857600080fd5b9250929050565b60008083601f8401126116b157600080fd5b50813567ffffffffffffffff8111156116c957600080fd5b60208301915083602082850101111561169857600080fd5b60008060008060008060008060a0898b0312156116fd57600080fd5b6117068961157d565b975061171460208a0161157d565b9650604089013567ffffffffffffffff8082111561173157600080fd5b61173d8c838d01611653565b909850965060608b013591508082111561175657600080fd5b6117628c838d01611653565b909650945060808b013591508082111561177b57600080fd5b506117888b828c0161169f565b999c989b5096995094979396929594505050565b60008060008060008060a087890312156117b557600080fd5b6117be8761157d565b95506117cc6020880161157d565b94506040870135935060608701359250608087013567ffffffffffffffff8111156117f657600080fd5b61180289828a0161169f565b979a9699509497509295939492505050565b7f4e487b7100000000000000000000000000000000000000000000000000000000600052601160045260246000fd5b8181038181111561049f5761049f611814565b60008261188c577f4e487b7100000000000000000000000000000000000000000000000000000000600052601260045260246000fd5b500490565b81835260007f07ffffffffffffffffffffffffffffffffffffffffffffffffffffffffffffff8311156118c357600080fd5b8260051b80836020870137939093016020019392505050565b73ffffffffffffffffffffffffffffffffffffffff8616815260606020820152600061190c606083018688611891565b828103604084015261191f818587611891565b98975050505050505050565b7f4e487b7100000000000000000000000000000000000000000000000000000000600052603260045260246000fd5b808202811582820484141761049f5761049f611814565b8082018082111561049f5761049f611814565b7f4e487b7100000000000000000000000000000000000000000000000000000000600052604160045260246000fd5b600080604083850312156119c657600080fd5b823567ffffffffffffffff808211156119de57600080fd5b818501915085601f8301126119f257600080fd5b8135602082821115611a0657611a06611984565b8160051b6040517fffffffffffffffffffffffffffffffffffffffffffffffffffffffffffffffe0603f83011681018181108682111715611a4957611a49611984565b604052928352818301935084810182019289841115611a6757600080fd5b948201945b83861015611a8557853585529482019493820193611a6c565b9997909101359750505050505050565b60a081526000611aa960a08301898b611891565b8281036020840152611abc81888a611891565b604084019690965250506060810192909252608090910152949350505050565b600060208284031215611aee57600080fd5b8151801515811461153457600080fd5b60008085851115611b0e57600080fd5b83861115611b1b57600080fd5b505082019391909203915056fea2646970667358221220a934c528d9fa2bab018b81bccfb95d05bac989c22a6f153a141565317740d44064736f6c63430008160033","opcodes":"PUSH2 0x160 PUSH1 0x40 MSTORE CALLVALUE DUP1 ISZERO PUSH3 0x12 JUMPI PUSH1 0x0 DUP1 REVERT JUMPDEST POP PUSH1 0x40 MLOAD PUSH3 0x1E4F CODESIZE SUB DUP1 PUSH3 0x1E4F DUP4 CODECOPY DUP2 ADD PUSH1 0x40 DUP2 SWAP1 MSTORE PUSH3 0x35 SWAP2 PUSH3 0x197 JUMP JUMPDEST PUSH1 0x1 PUSH1 0x1 PUSH1 0xA0 SHL SUB DUP2 AND PUSH1 0x80 MSTORE DUP7 DUP7 DUP7 DUP7 DUP7 DUP7 DUP7 PUSH3 0x69 PUSH4 0x2711897 PUSH1 0xE5 SHL PUSH1 0x1 PUSH3 0x61 PUSH3 0xEB JUMP JUMPDEST SWAP2 SWAP1 PUSH3 0x121 JUMP JUMPDEST PUSH1 0xE0 DUP8 SWAP1 MSTORE PUSH1 0x0 DUP7 SWAP1 SUB PUSH3 0x91 JUMPI PUSH1 0x40 MLOAD PUSH4 0xB870EFBD PUSH1 0xE0 SHL DUP2 MSTORE PUSH1 0x4 ADD PUSH1 0x40 MLOAD DUP1 SWAP2 SUB SWAP1 REVERT JUMPDEST PUSH2 0x100 DUP7 SWAP1 MSTORE PUSH1 0x0 DUP6 SWAP1 SUB PUSH3 0xBA JUMPI PUSH1 0x40 MLOAD PUSH4 0x7E5E559B PUSH1 0xE1 SHL DUP2 MSTORE PUSH1 0x4 ADD PUSH1 0x40 MLOAD DUP1 SWAP2 SUB SWAP1 REVERT JUMPDEST POP PUSH2 0x120 SWAP4 SWAP1 SWAP4 MSTORE PUSH2 0x140 SWAP2 SWAP1 SWAP2 MSTORE PUSH1 0x1 PUSH1 0x1 PUSH1 0xA0 SHL SUB SWAP1 DUP2 AND PUSH1 0xA0 MSTORE AND PUSH1 0xC0 MSTORE POP PUSH3 0x234 SWAP8 POP POP POP POP POP POP POP POP JUMP JUMPDEST PUSH1 0x0 DUP1 PUSH3 0x11B PUSH1 0x1 PUSH32 0xCA9D3E17F264B0F3984E2634E94ADB37FA3E6A8103F06AEAE6FA59E21C769F5E PUSH3 0x212 JUMP JUMPDEST SWAP3 SWAP2 POP POP JUMP JUMPDEST PUSH1 0x1 PUSH1 0xE0 SHL PUSH1 0x1 PUSH1 0x1 PUSH1 0xE0 SHL SUB NOT DUP4 AND ADD PUSH3 0x150 JUMPI PUSH1 0x40 MLOAD PUSH4 0x72C683BB PUSH1 0xE0 SHL DUP2 MSTORE PUSH1 0x4 ADD PUSH1 0x40 MLOAD DUP1 SWAP2 SUB SWAP1 REVERT JUMPDEST PUSH1 0x1 PUSH1 0x1 PUSH1 0xE0 SHL SUB NOT SWAP2 SWAP1 SWAP2 AND PUSH1 0x0 SWAP1 DUP2 MSTORE PUSH1 0x20 SWAP3 SWAP1 SWAP3 MSTORE PUSH1 0x40 SWAP1 SWAP2 KECCAK256 DUP1 SLOAD PUSH1 0xFF NOT AND SWAP2 ISZERO ISZERO SWAP2 SWAP1 SWAP2 OR SWAP1 SSTORE JUMP JUMPDEST PUSH1 0x1 PUSH1 0x1 PUSH1 0xA0 SHL SUB DUP2 AND DUP2 EQ PUSH3 0x194 JUMPI PUSH1 0x0 DUP1 REVERT JUMPDEST POP JUMP JUMPDEST PUSH1 0x0 DUP1 PUSH1 0x0 DUP1 PUSH1 0x0 DUP1 PUSH1 0x0 PUSH1 0xE0 DUP9 DUP11 SUB SLT ISZERO PUSH3 0x1B3 JUMPI PUSH1 0x0 DUP1 REVERT JUMPDEST DUP8 MLOAD SWAP7 POP PUSH1 0x20 DUP9 ADD MLOAD SWAP6 POP PUSH1 0x40 DUP9 ADD MLOAD SWAP5 POP PUSH1 0x60 DUP9 ADD MLOAD SWAP4 POP PUSH1 0x80 DUP9 ADD MLOAD PUSH3 0x1DC DUP2 PUSH3 0x17E JUMP JUMPDEST PUSH1 0xA0 DUP10 ADD MLOAD SWAP1 SWAP4 POP PUSH3 0x1EF DUP2 PUSH3 0x17E JUMP JUMPDEST PUSH1 0xC0 DUP10 ADD MLOAD SWAP1 SWAP3 POP PUSH3 0x202 DUP2 PUSH3 0x17E JUMP JUMPDEST DUP1 SWAP2 POP POP SWAP3 SWAP6 SWAP9 SWAP2 SWAP5 SWAP8 POP SWAP3 SWAP6 POP JUMP JUMPDEST DUP2 DUP2 SUB DUP2 DUP2 GT ISZERO PUSH3 0x11B JUMPI PUSH4 0x4E487B71 PUSH1 0xE0 SHL PUSH1 0x0 MSTORE PUSH1 0x11 PUSH1 0x4 MSTORE PUSH1 0x24 PUSH1 0x0 REVERT JUMPDEST PUSH1 0x80 MLOAD PUSH1 0xA0 MLOAD PUSH1 0xC0 MLOAD PUSH1 0xE0 MLOAD PUSH2 0x100 MLOAD PUSH2 0x120 MLOAD PUSH2 0x140 MLOAD PUSH2 0x1B5E PUSH3 0x2F1 PUSH1 0x0 CODECOPY PUSH1 0x0 DUP2 DUP2 PUSH2 0x32F ADD MSTORE DUP2 DUP2 PUSH2 0xA0D ADD MSTORE PUSH2 0xF9C ADD MSTORE PUSH1 0x0 DUP2 DUP2 PUSH2 0x1F6 ADD MSTORE DUP2 DUP2 PUSH2 0x59A ADD MSTORE PUSH2 0xD9D ADD MSTORE PUSH1 0x0 DUP2 DUP2 PUSH2 0x446 ADD MSTORE PUSH2 0x4BC ADD MSTORE PUSH1 0x0 DUP2 DUP2 PUSH2 0x2DD ADD MSTORE PUSH2 0x4E0 ADD MSTORE PUSH1 0x0 DUP2 DUP2 PUSH2 0x41F ADD MSTORE PUSH2 0xCA9 ADD MSTORE PUSH1 0x0 DUP2 DUP2 PUSH2 0x245 ADD MSTORE DUP2 DUP2 PUSH2 0x52E ADD MSTORE PUSH2 0x8B3 ADD MSTORE PUSH1 0x0 DUP2 DUP2 PUSH2 0x28E ADD MSTORE DUP2 DUP2 PUSH2 0x369 ADD MSTORE DUP2 DUP2 PUSH2 0x121B ADD MSTORE DUP2 DUP2 PUSH2 0x1259 ADD MSTORE DUP2 DUP2 PUSH2 0x13D4 ADD MSTORE PUSH2 0x145C ADD MSTORE PUSH2 0x1B5E PUSH1 0x0 RETURN INVALID PUSH1 0x80 PUSH1 0x40 MSTORE CALLVALUE DUP1 ISZERO PUSH2 0x10 JUMPI PUSH1 0x0 DUP1 REVERT JUMPDEST POP PUSH1 0x4 CALLDATASIZE LT PUSH2 0x1AE JUMPI PUSH1 0x0 CALLDATALOAD PUSH1 0xE0 SHR DUP1 PUSH4 0x51E75E8B GT PUSH2 0xEE JUMPI DUP1 PUSH4 0xBC197C81 GT PUSH2 0x97 JUMPI DUP1 PUSH4 0xCD421FBF GT PUSH2 0x71 JUMPI DUP1 PUSH4 0xCD421FBF EQ PUSH2 0x441 JUMPI DUP1 PUSH4 0xD1A91FF2 EQ PUSH2 0x468 JUMPI DUP1 PUSH4 0xF23A6E61 EQ PUSH2 0x470 JUMPI DUP1 PUSH4 0xF95D1016 EQ PUSH2 0x483 JUMPI PUSH1 0x0 DUP1 REVERT JUMPDEST DUP1 PUSH4 0xBC197C81 EQ PUSH2 0x3CE JUMPI DUP1 PUSH4 0xC131754E EQ PUSH2 0x412 JUMPI DUP1 PUSH4 0xCD18A34F EQ PUSH2 0x41A JUMPI PUSH1 0x0 DUP1 REVERT JUMPDEST DUP1 PUSH4 0xAA918FD5 GT PUSH2 0xC8 JUMPI DUP1 PUSH4 0xAA918FD5 EQ PUSH2 0x2D0 JUMPI DUP1 PUSH4 0xAB504E73 EQ PUSH2 0x3A6 JUMPI DUP1 PUSH4 0xBAB2F552 EQ PUSH2 0x3C6 JUMPI PUSH1 0x0 DUP1 REVERT JUMPDEST DUP1 PUSH4 0x51E75E8B EQ PUSH2 0x32A JUMPI DUP1 PUSH4 0x55F5B0A8 EQ PUSH2 0x351 JUMPI DUP1 PUSH4 0x572B6C05 EQ PUSH2 0x359 JUMPI PUSH1 0x0 DUP1 REVERT JUMPDEST DUP1 PUSH4 0x28A979CF GT PUSH2 0x15B JUMPI DUP1 PUSH4 0x3838A201 GT PUSH2 0x135 JUMPI DUP1 PUSH4 0x3838A201 EQ PUSH2 0x2C8 JUMPI DUP1 PUSH4 0x424AB4F7 EQ PUSH2 0x2D0 JUMPI DUP1 PUSH4 0x491BDE66 EQ PUSH2 0x2D8 JUMPI DUP1 PUSH4 0x4DAC1C2B EQ PUSH2 0x2FF JUMPI PUSH1 0x0 DUP1 REVERT JUMPDEST DUP1 PUSH4 0x28A979CF EQ PUSH2 0x240 JUMPI DUP1 PUSH4 0x2B4C9F16 EQ PUSH2 0x28C JUMPI DUP1 PUSH4 0x31E66E1E EQ PUSH2 0x2B2 JUMPI PUSH1 0x0 DUP1 REVERT JUMPDEST DUP1 PUSH4 0x455645A GT PUSH2 0x18C JUMPI DUP1 PUSH4 0x455645A EQ PUSH2 0x218 JUMPI DUP1 PUSH4 0x12828B7F EQ PUSH2 0x220 JUMPI DUP1 PUSH4 0x1DE0E40B EQ PUSH2 0x1DB JUMPI PUSH1 0x0 DUP1 REVERT JUMPDEST DUP1 PUSH4 0x1FFC9A7 EQ PUSH2 0x1B3 JUMPI DUP1 PUSH4 0x277640E EQ PUSH2 0x1DB JUMPI DUP1 PUSH4 0x43063BC EQ PUSH2 0x1F1 JUMPI JUMPDEST PUSH1 0x0 DUP1 REVERT JUMPDEST PUSH2 0x1C6 PUSH2 0x1C1 CALLDATASIZE PUSH1 0x4 PUSH2 0x153B JUMP JUMPDEST PUSH2 0x48B JUMP JUMPDEST PUSH1 0x40 MLOAD SWAP1 ISZERO ISZERO DUP2 MSTORE PUSH1 0x20 ADD JUMPDEST PUSH1 0x40 MLOAD DUP1 SWAP2 SUB SWAP1 RETURN JUMPDEST PUSH2 0x1E3 PUSH1 0x1 DUP2 JUMP JUMPDEST PUSH1 0x40 MLOAD SWAP1 DUP2 MSTORE PUSH1 0x20 ADD PUSH2 0x1D2 JUMP JUMPDEST PUSH2 0x1E3 PUSH32 0x0 DUP2 JUMP JUMPDEST PUSH2 0x1E3 PUSH1 0x5 DUP2 JUMP JUMPDEST PUSH2 0x1E3 PUSH2 0x22E CALLDATASIZE PUSH1 0x4 PUSH2 0x15A6 JUMP JUMPDEST PUSH1 0x2 PUSH1 0x20 MSTORE PUSH1 0x0 SWAP1 DUP2 MSTORE PUSH1 0x40 SWAP1 KECCAK256 SLOAD DUP2 JUMP JUMPDEST PUSH2 0x267 PUSH32 0x0 DUP2 JUMP JUMPDEST PUSH1 0x40 MLOAD PUSH20 0xFFFFFFFFFFFFFFFFFFFFFFFFFFFFFFFFFFFFFFFF SWAP1 SWAP2 AND DUP2 MSTORE PUSH1 0x20 ADD PUSH2 0x1D2 JUMP JUMPDEST PUSH32 0x0 PUSH2 0x267 JUMP JUMPDEST PUSH2 0x2BA PUSH2 0x4A5 JUMP JUMPDEST PUSH1 0x40 MLOAD PUSH2 0x1D2 SWAP3 SWAP2 SWAP1 PUSH2 0x15C1 JUMP JUMPDEST PUSH2 0x1E3 PUSH1 0x19 DUP2 JUMP JUMPDEST PUSH2 0x1E3 PUSH1 0x3 DUP2 JUMP JUMPDEST PUSH2 0x1E3 PUSH32 0x0 DUP2 JUMP JUMPDEST PUSH2 0x1E3 PUSH2 0x30D CALLDATASIZE PUSH1 0x4 PUSH2 0x160E JUMP JUMPDEST PUSH1 0x1 PUSH1 0x20 SWAP1 DUP2 MSTORE PUSH1 0x0 SWAP3 DUP4 MSTORE PUSH1 0x40 DUP1 DUP5 KECCAK256 SWAP1 SWAP2 MSTORE SWAP1 DUP3 MSTORE SWAP1 KECCAK256 SLOAD DUP2 JUMP JUMPDEST PUSH2 0x1E3 PUSH32 0x0 DUP2 JUMP JUMPDEST PUSH2 0x1E3 PUSH1 0x2 DUP2 JUMP JUMPDEST PUSH2 0x1C6 PUSH2 0x367 CALLDATASIZE PUSH1 0x4 PUSH2 0x15A6 JUMP JUMPDEST PUSH32 0x0 PUSH20 0xFFFFFFFFFFFFFFFFFFFFFFFFFFFFFFFFFFFFFFFF SWAP1 DUP2 AND SWAP2 AND EQ SWAP1 JUMP JUMPDEST PUSH2 0x1E3 PUSH2 0x3B4 CALLDATASIZE PUSH1 0x4 PUSH2 0x163A JUMP JUMPDEST PUSH1 0x0 PUSH1 0x20 DUP2 SWAP1 MSTORE SWAP1 DUP2 MSTORE PUSH1 0x40 SWAP1 KECCAK256 SLOAD DUP2 JUMP JUMPDEST PUSH2 0x1E3 PUSH2 0x4B8 JUMP JUMPDEST PUSH2 0x3E1 PUSH2 0x3DC CALLDATASIZE PUSH1 0x4 PUSH2 0x16E1 JUMP JUMPDEST PUSH2 0x514 JUMP JUMPDEST PUSH1 0x40 MLOAD PUSH32 0xFFFFFFFF00000000000000000000000000000000000000000000000000000000 SWAP1 SWAP2 AND DUP2 MSTORE PUSH1 0x20 ADD PUSH2 0x1D2 JUMP JUMPDEST PUSH2 0x1E3 PUSH1 0x10 DUP2 JUMP JUMPDEST PUSH2 0x267 PUSH32 0x0 DUP2 JUMP JUMPDEST PUSH2 0x1E3 PUSH32 0x0 DUP2 JUMP JUMPDEST PUSH2 0x267 PUSH2 0xC85 JUMP JUMPDEST PUSH2 0x3E1 PUSH2 0x47E CALLDATASIZE PUSH1 0x4 PUSH2 0x179C JUMP JUMPDEST PUSH2 0xC8F JUMP JUMPDEST PUSH2 0x1E3 PUSH1 0x9 DUP2 JUMP JUMPDEST PUSH1 0x0 PUSH2 0x49F DUP3 PUSH2 0x499 PUSH2 0x10B1 JUMP JUMPDEST SWAP1 PUSH2 0x10DF JUMP JUMPDEST SWAP3 SWAP2 POP POP JUMP JUMPDEST CALLDATASIZE PUSH1 0x0 PUSH2 0x4B0 PUSH2 0x11B9 JUMP JUMPDEST SWAP2 POP SWAP2 POP SWAP1 SWAP2 JUMP JUMPDEST PUSH1 0x0 PUSH32 0x0 PUSH2 0x505 PUSH32 0x0 TIMESTAMP PUSH2 0x1843 JUMP JUMPDEST PUSH2 0x50F SWAP2 SWAP1 PUSH2 0x1856 JUMP JUMPDEST SWAP1 POP SWAP1 JUMP JUMPDEST PUSH1 0x0 CALLER PUSH20 0xFFFFFFFFFFFFFFFFFFFFFFFFFFFFFFFFFFFFFFFF PUSH32 0x0 AND EQ PUSH2 0x58C JUMPI PUSH1 0x40 MLOAD PUSH32 0x7330680300000000000000000000000000000000000000000000000000000000 DUP2 MSTORE CALLER PUSH1 0x4 DUP3 ADD MSTORE PUSH1 0x24 ADD JUMPDEST PUSH1 0x40 MLOAD DUP1 SWAP2 SUB SWAP1 REVERT JUMPDEST PUSH1 0x0 PUSH2 0x596 PUSH2 0x4B8 JUMP JUMPDEST SWAP1 POP PUSH32 0x0 DUP2 GT ISZERO PUSH2 0x5F5 JUMPI PUSH1 0x40 MLOAD PUSH32 0x764E560F00000000000000000000000000000000000000000000000000000000 DUP2 MSTORE PUSH1 0x4 DUP2 ADD DUP3 SWAP1 MSTORE PUSH1 0x24 ADD PUSH2 0x583 JUMP JUMPDEST PUSH1 0x40 MLOAD PUSH32 0x8053493400000000000000000000000000000000000000000000000000000000 DUP2 MSTORE CALLER SWAP1 PUSH4 0x80534934 SWAP1 PUSH2 0x639 SWAP1 ADDRESS SWAP1 DUP13 SWAP1 DUP13 SWAP1 DUP13 SWAP1 DUP13 SWAP1 PUSH1 0x4 ADD PUSH2 0x18DC JUMP JUMPDEST PUSH1 0x0 PUSH1 0x40 MLOAD DUP1 DUP4 SUB DUP2 PUSH1 0x0 DUP8 DUP1 EXTCODESIZE ISZERO DUP1 ISZERO PUSH2 0x653 JUMPI PUSH1 0x0 DUP1 REVERT JUMPDEST POP GAS CALL ISZERO DUP1 ISZERO PUSH2 0x667 JUMPI RETURNDATASIZE PUSH1 0x0 DUP1 RETURNDATACOPY RETURNDATASIZE PUSH1 0x0 REVERT JUMPDEST POP POP POP POP PUSH1 0x0 DUP1 JUMPDEST DUP9 DUP2 LT ISZERO PUSH2 0x945 JUMPI DUP8 DUP8 DUP3 DUP2 DUP2 LT PUSH2 0x689 JUMPI PUSH2 0x689 PUSH2 0x192B JUMP JUMPDEST SWAP1 POP PUSH1 0x20 MUL ADD CALLDATALOAD PUSH1 0x0 SUB PUSH2 0x723 JUMPI CALLER DUP11 DUP11 DUP4 DUP2 DUP2 LT PUSH2 0x6AA JUMPI PUSH2 0x6AA PUSH2 0x192B JUMP JUMPDEST SWAP1 POP PUSH1 0x20 MUL ADD CALLDATALOAD DUP10 DUP10 DUP5 DUP2 DUP2 LT PUSH2 0x6C3 JUMPI PUSH2 0x6C3 PUSH2 0x192B JUMP JUMPDEST PUSH1 0x40 MLOAD PUSH32 0xE1F366E900000000000000000000000000000000000000000000000000000000 DUP2 MSTORE PUSH20 0xFFFFFFFFFFFFFFFFFFFFFFFFFFFFFFFFFFFFFFFF SWAP1 SWAP6 AND PUSH1 0x4 DUP7 ADD MSTORE PUSH1 0x24 DUP6 ADD SWAP4 SWAP1 SWAP4 MSTORE POP PUSH1 0x20 SWAP1 SWAP2 MUL ADD CALLDATALOAD PUSH1 0x44 DUP3 ADD MSTORE PUSH1 0x64 ADD PUSH2 0x583 JUMP JUMPDEST DUP10 DUP10 DUP3 DUP2 DUP2 LT PUSH2 0x735 JUMPI PUSH2 0x735 PUSH2 0x192B JUMP JUMPDEST SWAP1 POP PUSH1 0x20 MUL ADD CALLDATALOAD PUSH1 0x1 SUB PUSH2 0x779 JUMPI PUSH1 0x1 DUP9 DUP9 DUP4 DUP2 DUP2 LT PUSH2 0x757 JUMPI PUSH2 0x757 PUSH2 0x192B JUMP JUMPDEST SWAP1 POP PUSH1 0x20 MUL ADD CALLDATALOAD PUSH2 0x768 SWAP2 SWAP1 PUSH2 0x195A JUMP JUMPDEST PUSH2 0x772 SWAP1 DUP4 PUSH2 0x1971 JUMP JUMPDEST SWAP2 POP PUSH2 0x93D JUMP JUMPDEST DUP10 DUP10 DUP3 DUP2 DUP2 LT PUSH2 0x78B JUMPI PUSH2 0x78B PUSH2 0x192B JUMP JUMPDEST SWAP1 POP PUSH1 0x20 MUL ADD CALLDATALOAD PUSH1 0x2 SUB PUSH2 0x7AD JUMPI PUSH1 0x3 DUP9 DUP9 DUP4 DUP2 DUP2 LT PUSH2 0x757 JUMPI PUSH2 0x757 PUSH2 0x192B JUMP JUMPDEST DUP10 DUP10 DUP3 DUP2 DUP2 LT PUSH2 0x7BF JUMPI PUSH2 0x7BF PUSH2 0x192B JUMP JUMPDEST SWAP1 POP PUSH1 0x20 MUL ADD CALLDATALOAD PUSH1 0x3 SUB PUSH2 0x7E1 JUMPI PUSH1 0x3 DUP9 DUP9 DUP4 DUP2 DUP2 LT PUSH2 0x757 JUMPI PUSH2 0x757 PUSH2 0x192B JUMP JUMPDEST DUP10 DUP10 DUP3 DUP2 DUP2 LT PUSH2 0x7F3 JUMPI PUSH2 0x7F3 PUSH2 0x192B JUMP JUMPDEST SWAP1 POP PUSH1 0x20 MUL ADD CALLDATALOAD PUSH1 0x4 SUB PUSH2 0x815 JUMPI PUSH1 0x5 DUP9 DUP9 DUP4 DUP2 DUP2 LT PUSH2 0x757 JUMPI PUSH2 0x757 PUSH2 0x192B JUMP JUMPDEST DUP10 DUP10 DUP3 DUP2 DUP2 LT PUSH2 0x827 JUMPI PUSH2 0x827 PUSH2 0x192B JUMP JUMPDEST SWAP1 POP PUSH1 0x20 MUL ADD CALLDATALOAD PUSH1 0x5 SUB PUSH2 0x849 JUMPI PUSH1 0x9 DUP9 DUP9 DUP4 DUP2 DUP2 LT PUSH2 0x757 JUMPI PUSH2 0x757 PUSH2 0x192B JUMP JUMPDEST DUP10 DUP10 DUP3 DUP2 DUP2 LT PUSH2 0x85B JUMPI PUSH2 0x85B PUSH2 0x192B JUMP JUMPDEST SWAP1 POP PUSH1 0x20 MUL ADD CALLDATALOAD PUSH1 0x6 SUB PUSH2 0x87D JUMPI PUSH1 0x19 DUP9 DUP9 DUP4 DUP2 DUP2 LT PUSH2 0x757 JUMPI PUSH2 0x757 PUSH2 0x192B JUMP JUMPDEST DUP10 DUP10 DUP3 DUP2 DUP2 LT PUSH2 0x88F JUMPI PUSH2 0x88F PUSH2 0x192B JUMP JUMPDEST SWAP1 POP PUSH1 0x20 MUL ADD CALLDATALOAD PUSH1 0x7 SUB PUSH2 0x8B1 JUMPI PUSH1 0x10 DUP9 DUP9 DUP4 DUP2 DUP2 LT PUSH2 0x757 JUMPI PUSH2 0x757 PUSH2 0x192B JUMP JUMPDEST PUSH32 0x0 DUP11 DUP11 DUP4 DUP2 DUP2 LT PUSH2 0x8E4 JUMPI PUSH2 0x8E4 PUSH2 0x192B JUMP JUMPDEST PUSH1 0x40 MLOAD PUSH32 0x1912EA5100000000000000000000000000000000000000000000000000000000 DUP2 MSTORE PUSH20 0xFFFFFFFFFFFFFFFFFFFFFFFFFFFFFFFFFFFFFFFF SWAP1 SWAP5 AND PUSH1 0x4 DUP6 ADD MSTORE PUSH1 0x20 MUL SWAP2 SWAP1 SWAP2 ADD CALLDATALOAD PUSH1 0x24 DUP4 ADD MSTORE POP PUSH1 0x44 ADD PUSH2 0x583 JUMP JUMPDEST PUSH1 0x1 ADD PUSH2 0x66F JUMP JUMPDEST POP PUSH20 0xFFFFFFFFFFFFFFFFFFFFFFFFFFFFFFFFFFFFFFFF DUP11 AND PUSH1 0x0 SWAP1 DUP2 MSTORE PUSH1 0x2 PUSH1 0x20 MSTORE PUSH1 0x40 SWAP1 KECCAK256 SLOAD DUP11 SWAP1 DUP6 ISZERO PUSH2 0xB17 JUMPI PUSH1 0x0 DUP1 PUSH2 0x983 DUP9 DUP11 ADD DUP11 PUSH2 0x19B3 JUMP JUMPDEST SWAP2 POP SWAP2 POP PUSH1 0x80 DUP4 SWAP1 SHR PUSH1 0x0 SUB PUSH2 0xAF7 JUMPI PUSH1 0x40 MLOAD PUSH32 0xFFFFFFFFFFFFFFFFFFFFFFFFFFFFFFFFFFFFFFFF000000000000000000000000 PUSH1 0x60 DUP7 SWAP1 SHL AND PUSH1 0x20 DUP3 ADD MSTORE PUSH1 0x34 DUP2 ADD DUP3 SWAP1 MSTORE PUSH1 0x0 SWAP1 PUSH1 0x54 ADD PUSH1 0x40 DUP1 MLOAD PUSH32 0xFFFFFFFFFFFFFFFFFFFFFFFFFFFFFFFFFFFFFFFFFFFFFFFFFFFFFFFFFFFFFFE0 DUP2 DUP5 SUB ADD DUP2 MSTORE SWAP2 SWAP1 MSTORE DUP1 MLOAD PUSH1 0x20 SWAP1 SWAP2 ADD KECCAK256 SWAP1 POP PUSH2 0xA32 DUP4 PUSH32 0x0 DUP4 PUSH2 0x11C4 JUMP JUMPDEST PUSH2 0xA87 JUMPI PUSH1 0x40 MLOAD PUSH32 0xADBD651200000000000000000000000000000000000000000000000000000000 DUP2 MSTORE PUSH20 0xFFFFFFFFFFFFFFFFFFFFFFFFFFFFFFFFFFFFFFFF DUP7 AND PUSH1 0x4 DUP3 ADD MSTORE PUSH1 0x24 DUP2 ADD DUP4 SWAP1 MSTORE PUSH1 0x44 ADD PUSH2 0x583 JUMP JUMPDEST PUSH20 0xFFFFFFFFFFFFFFFFFFFFFFFFFFFFFFFFFFFFFFFF DUP6 AND PUSH1 0x0 DUP2 DUP2 MSTORE PUSH1 0x2 PUSH1 0x20 SWAP1 DUP2 MSTORE PUSH1 0x40 SWAP2 DUP3 SWAP1 KECCAK256 PUSH1 0x80 DUP7 SWAP1 SHL DUP9 OR SWAP1 DUP2 SWAP1 SSTORE DUP3 MLOAD DUP9 DUP2 MSTORE SWAP2 DUP3 ADD DUP2 SWAP1 MSTORE SWAP3 SWAP2 PUSH32 0x528DFE447BC8E2A31CBCF22A36526A2FCC9AC2B2FC9A850DDAF575BB2AAB3433 SWAP2 ADD PUSH1 0x40 MLOAD DUP1 SWAP2 SUB SWAP1 LOG2 SWAP4 POP POP JUMPDEST PUSH2 0x2710 PUSH2 0xB04 DUP3 DUP8 PUSH2 0x195A JUMP JUMPDEST PUSH2 0xB0E SWAP2 SWAP1 PUSH2 0x1856 JUMP JUMPDEST SWAP5 POP POP POP PUSH2 0xB3E JUMP JUMPDEST PUSH1 0x80 DUP2 SWAP1 SHR DUP1 ISZERO PUSH2 0xB3C JUMPI PUSH2 0x2710 PUSH2 0xB2F DUP3 DUP7 PUSH2 0x195A JUMP JUMPDEST PUSH2 0xB39 SWAP2 SWAP1 PUSH2 0x1856 JUMP JUMPDEST SWAP4 POP JUMPDEST POP JUMPDEST PUSH16 0xFFFFFFFFFFFFFFFFFFFFFFFFFFFFFFFF DUP2 AND DUP1 ISZERO PUSH2 0xB64 JUMPI PUSH2 0xB61 DUP2 DUP6 PUSH2 0x195A JUMP JUMPDEST SWAP4 POP JUMPDEST PUSH1 0x0 DUP6 DUP2 MSTORE PUSH1 0x1 PUSH1 0x20 SWAP1 DUP2 MSTORE PUSH1 0x40 DUP1 DUP4 KECCAK256 PUSH20 0xFFFFFFFFFFFFFFFFFFFFFFFFFFFFFFFFFFFFFFFF DUP8 AND DUP5 MSTORE SWAP1 SWAP2 MSTORE DUP2 KECCAK256 SLOAD PUSH2 0xB9F SWAP1 DUP7 SWAP1 PUSH2 0x1971 JUMP JUMPDEST PUSH1 0x0 DUP8 DUP2 MSTORE PUSH1 0x1 PUSH1 0x20 SWAP1 DUP2 MSTORE PUSH1 0x40 DUP1 DUP4 KECCAK256 PUSH20 0xFFFFFFFFFFFFFFFFFFFFFFFFFFFFFFFFFFFFFFFF DUP10 AND DUP5 MSTORE DUP3 MSTORE DUP1 DUP4 KECCAK256 DUP5 SWAP1 SSTORE DUP10 DUP4 MSTORE SWAP1 DUP3 SWAP1 MSTORE DUP2 KECCAK256 DUP1 SLOAD SWAP3 SWAP4 POP DUP8 SWAP3 SWAP1 SWAP2 SWAP1 PUSH2 0xBEF SWAP1 DUP5 SWAP1 PUSH2 0x1971 JUMP JUMPDEST SWAP3 POP POP DUP2 SWAP1 SSTORE POP DUP6 DUP5 PUSH20 0xFFFFFFFFFFFFFFFFFFFFFFFFFFFFFFFFFFFFFFFF AND PUSH32 0x6E46CD5A8F4134E080F5038EE4632B01A585B6052863E4A1F0D5C57B1A35645B DUP16 DUP16 DUP16 DUP16 DUP12 DUP9 DUP12 PUSH1 0x40 MLOAD PUSH2 0xC49 SWAP8 SWAP7 SWAP6 SWAP5 SWAP4 SWAP3 SWAP2 SWAP1 PUSH2 0x1A95 JUMP JUMPDEST PUSH1 0x40 MLOAD DUP1 SWAP2 SUB SWAP1 LOG3 POP PUSH32 0xBC197C8100000000000000000000000000000000000000000000000000000000 SWAP15 SWAP14 POP POP POP POP POP POP POP POP POP POP POP POP POP POP JUMP JUMPDEST PUSH1 0x0 PUSH2 0x50F PUSH2 0x11DA JUMP JUMPDEST PUSH1 0x0 CALLER PUSH20 0xFFFFFFFFFFFFFFFFFFFFFFFFFFFFFFFFFFFFFFFF PUSH32 0x0 AND EQ PUSH2 0xD02 JUMPI PUSH1 0x40 MLOAD PUSH32 0x7330680300000000000000000000000000000000000000000000000000000000 DUP2 MSTORE CALLER PUSH1 0x4 DUP3 ADD MSTORE PUSH1 0x24 ADD PUSH2 0x583 JUMP JUMPDEST PUSH1 0x1 DUP6 EQ PUSH2 0xD45 JUMPI PUSH1 0x40 MLOAD PUSH32 0x1912EA5100000000000000000000000000000000000000000000000000000000 DUP2 MSTORE CALLER PUSH1 0x4 DUP3 ADD MSTORE PUSH1 0x24 DUP2 ADD DUP7 SWAP1 MSTORE PUSH1 0x44 ADD PUSH2 0x583 JUMP JUMPDEST DUP4 PUSH1 0x1 EQ PUSH2 0xD8F JUMPI PUSH1 0x40 MLOAD PUSH32 0xE1F366E900000000000000000000000000000000000000000000000000000000 DUP2 MSTORE CALLER PUSH1 0x4 DUP3 ADD MSTORE PUSH1 0x24 DUP2 ADD DUP7 SWAP1 MSTORE PUSH1 0x44 DUP2 ADD DUP6 SWAP1 MSTORE PUSH1 0x64 ADD PUSH2 0x583 JUMP JUMPDEST PUSH1 0x0 PUSH2 0xD99 PUSH2 0x4B8 JUMP JUMPDEST SWAP1 POP PUSH32 0x0 DUP2 GT ISZERO PUSH2 0xDF8 JUMPI PUSH1 0x40 MLOAD PUSH32 0x764E560F00000000000000000000000000000000000000000000000000000000 DUP2 MSTORE PUSH1 0x4 DUP2 ADD DUP3 SWAP1 MSTORE PUSH1 0x24 ADD PUSH2 0x583 JUMP JUMPDEST PUSH20 0xFFFFFFFFFFFFFFFFFFFFFFFFFFFFFFFFFFFFFFFF DUP8 AND PUSH1 0x0 SWAP1 DUP2 MSTORE PUSH1 0x2 PUSH1 0x20 MSTORE PUSH1 0x40 SWAP1 KECCAK256 SLOAD PUSH16 0xFFFFFFFFFFFFFFFFFFFFFFFFFFFFFFFF DUP2 AND ISZERO PUSH2 0xE80 JUMPI PUSH1 0x40 MLOAD PUSH32 0x383B549300000000000000000000000000000000000000000000000000000000 DUP2 MSTORE PUSH20 0xFFFFFFFFFFFFFFFFFFFFFFFFFFFFFFFFFFFFFFFF DUP10 AND PUSH1 0x4 DUP3 ADD MSTORE PUSH1 0x24 ADD PUSH2 0x583 JUMP JUMPDEST PUSH1 0x40 MLOAD PUSH32 0x124D91E500000000000000000000000000000000000000000000000000000000 DUP2 MSTORE ADDRESS PUSH1 0x4 DUP3 ADD MSTORE PUSH1 0x24 DUP2 ADD DUP9 SWAP1 MSTORE PUSH1 0x44 DUP2 ADD DUP8 SWAP1 MSTORE CALLER SWAP1 PUSH4 0x124D91E5 SWAP1 PUSH1 0x64 ADD PUSH1 0x0 PUSH1 0x40 MLOAD DUP1 DUP4 SUB DUP2 PUSH1 0x0 DUP8 DUP1 EXTCODESIZE ISZERO DUP1 ISZERO PUSH2 0xEDF JUMPI PUSH1 0x0 DUP1 REVERT JUMPDEST POP GAS CALL ISZERO DUP1 ISZERO PUSH2 0xEF3 JUMPI RETURNDATASIZE PUSH1 0x0 DUP1 RETURNDATACOPY RETURNDATASIZE PUSH1 0x0 REVERT JUMPDEST POP POP POP PUSH1 0x2 DUP3 OR SWAP1 POP DUP5 ISZERO PUSH2 0x1020 JUMPI PUSH1 0x80 DUP3 SWAP1 SHR PUSH1 0x0 SUB PUSH2 0x1020 JUMPI PUSH1 0x0 DUP1 PUSH2 0xF1D DUP8 DUP10 ADD DUP10 PUSH2 0x19B3 JUMP JUMPDEST PUSH1 0x40 MLOAD PUSH32 0xFFFFFFFFFFFFFFFFFFFFFFFFFFFFFFFFFFFFFFFF000000000000000000000000 PUSH1 0x60 DUP16 SWAP1 SHL AND PUSH1 0x20 DUP3 ADD MSTORE PUSH1 0x34 DUP2 ADD DUP3 SWAP1 MSTORE SWAP2 SWAP4 POP SWAP2 POP PUSH1 0x0 SWAP1 PUSH1 0x54 ADD PUSH1 0x40 DUP1 MLOAD PUSH32 0xFFFFFFFFFFFFFFFFFFFFFFFFFFFFFFFFFFFFFFFFFFFFFFFFFFFFFFFFFFFFFFE0 DUP2 DUP5 SUB ADD DUP2 MSTORE SWAP2 SWAP1 MSTORE DUP1 MLOAD PUSH1 0x20 SWAP1 SWAP2 ADD KECCAK256 SWAP1 POP PUSH2 0xFC1 DUP4 PUSH32 0x0 DUP4 PUSH2 0x11C4 JUMP JUMPDEST PUSH2 0x1016 JUMPI PUSH1 0x40 MLOAD PUSH32 0xADBD651200000000000000000000000000000000000000000000000000000000 DUP2 MSTORE PUSH20 0xFFFFFFFFFFFFFFFFFFFFFFFFFFFFFFFFFFFFFFFF DUP14 AND PUSH1 0x4 DUP3 ADD MSTORE PUSH1 0x24 DUP2 ADD DUP4 SWAP1 MSTORE PUSH1 0x44 ADD PUSH2 0x583 JUMP JUMPDEST POP PUSH1 0x80 SHL SWAP1 SWAP2 OR SWAP1 POP JUMPDEST PUSH20 0xFFFFFFFFFFFFFFFFFFFFFFFFFFFFFFFFFFFFFFFF DUP10 AND PUSH1 0x0 DUP2 DUP2 MSTORE PUSH1 0x2 PUSH1 0x20 SWAP1 DUP2 MSTORE PUSH1 0x40 SWAP2 DUP3 SWAP1 KECCAK256 DUP5 SWAP1 SSTORE DUP2 MLOAD DUP6 DUP2 MSTORE SWAP1 DUP2 ADD DUP5 SWAP1 MSTORE PUSH32 0x528DFE447BC8E2A31CBCF22A36526A2FCC9AC2B2FC9A850DDAF575BB2AAB3433 SWAP2 ADD PUSH1 0x40 MLOAD DUP1 SWAP2 SUB SWAP1 LOG2 POP PUSH32 0xF23A6E6100000000000000000000000000000000000000000000000000000000 SWAP10 SWAP9 POP POP POP POP POP POP POP POP POP JUMP JUMPDEST PUSH1 0x0 DUP1 PUSH2 0x49F PUSH1 0x1 PUSH32 0xCA9D3E17F264B0F3984E2634E94ADB37FA3E6A8103F06AEAE6FA59E21C769F5E PUSH2 0x1843 JUMP JUMPDEST PUSH1 0x0 PUSH29 0x100000000000000000000000000000000000000000000000000000000 PUSH32 0xFFFFFFFF00000000000000000000000000000000000000000000000000000000 DUP4 AND ADD PUSH2 0x112F JUMPI POP PUSH1 0x0 PUSH2 0x49F JUMP JUMPDEST PUSH32 0xFE00365900000000000000000000000000000000000000000000000000000000 PUSH32 0xFFFFFFFF00000000000000000000000000000000000000000000000000000000 DUP4 AND ADD PUSH2 0x1180 JUMPI POP PUSH1 0x1 PUSH2 0x49F JUMP JUMPDEST POP PUSH32 0xFFFFFFFF00000000000000000000000000000000000000000000000000000000 AND PUSH1 0x0 SWAP1 DUP2 MSTORE PUSH1 0x20 SWAP2 SWAP1 SWAP2 MSTORE PUSH1 0x40 SWAP1 KECCAK256 SLOAD PUSH1 0xFF AND SWAP1 JUMP JUMPDEST CALLDATASIZE PUSH1 0x0 PUSH2 0x4B0 PUSH2 0x11E4 JUMP JUMPDEST PUSH1 0x0 DUP3 PUSH2 0x11D1 DUP6 DUP5 PUSH2 0x134E JUMP JUMPDEST EQ SWAP5 SWAP4 POP POP POP POP JUMP JUMPDEST PUSH1 0x0 PUSH2 0x50F PUSH2 0x1391 JUMP JUMPDEST CALLDATASIZE PUSH1 0x0 CALLER ORIGIN EQ DUP1 PUSH2 0x11F5 JUMPI POP PUSH1 0x18 CALLDATASIZE LT JUMPDEST ISZERO PUSH2 0x1203 JUMPI POP PUSH1 0x0 SWAP2 CALLDATASIZE SWAP2 POP JUMP JUMPDEST CALLER PUSH20 0xFFFFFFFFFFFFFFFFFFFFFFFFFFFFFFFFFFFFFFFF PUSH32 0x0 AND EQ DUP1 PUSH2 0x1338 JUMPI POP PUSH20 0xFFFFFFFFFFFFFFFFFFFFFFFFFFFFFFFFFFFFFFFF PUSH32 0x0 AND PUSH4 0x8929A8CA CALLDATASIZE PUSH32 0xFFFFFFFFFFFFFFFFFFFFFFFFFFFFFFFFFFFFFFFFFFFFFFFFFFFFFFFFFFFFFFEC ADD CALLDATALOAD PUSH1 0x60 SHR PUSH1 0x40 MLOAD PUSH32 0xFFFFFFFF00000000000000000000000000000000000000000000000000000000 PUSH1 0xE0 DUP5 SWAP1 SHL AND DUP2 MSTORE PUSH20 0xFFFFFFFFFFFFFFFFFFFFFFFFFFFFFFFFFFFFFFFF SWAP1 SWAP2 AND PUSH1 0x4 DUP3 ADD MSTORE CALLER PUSH1 0x24 DUP3 ADD MSTORE PUSH1 0x44 ADD PUSH1 0x20 PUSH1 0x40 MLOAD DUP1 DUP4 SUB DUP2 DUP7 GAS STATICCALL ISZERO DUP1 ISZERO PUSH2 0x1314 JUMPI RETURNDATASIZE PUSH1 0x0 DUP1 RETURNDATACOPY RETURNDATASIZE PUSH1 0x0 REVERT JUMPDEST POP POP POP POP PUSH1 0x40 MLOAD RETURNDATASIZE PUSH1 0x1F NOT PUSH1 0x1F DUP3 ADD AND DUP3 ADD DUP1 PUSH1 0x40 MSTORE POP DUP2 ADD SWAP1 PUSH2 0x1338 SWAP2 SWAP1 PUSH2 0x1ADC JUMP JUMPDEST ISZERO PUSH2 0x1345 JUMPI PUSH2 0x4B0 PUSH2 0x14D8 JUMP JUMPDEST POP PUSH1 0x0 SWAP2 CALLDATASIZE SWAP2 POP JUMP JUMPDEST PUSH1 0x0 DUP2 DUP2 JUMPDEST DUP5 MLOAD DUP2 LT ISZERO PUSH2 0x1389 JUMPI PUSH2 0x137F DUP3 DUP7 DUP4 DUP2 MLOAD DUP2 LT PUSH2 0x1372 JUMPI PUSH2 0x1372 PUSH2 0x192B JUMP JUMPDEST PUSH1 0x20 MUL PUSH1 0x20 ADD ADD MLOAD PUSH2 0x1509 JUMP JUMPDEST SWAP2 POP PUSH1 0x1 ADD PUSH2 0x1353 JUMP JUMPDEST POP SWAP4 SWAP3 POP POP POP JUMP JUMPDEST PUSH1 0x0 CALLER ORIGIN EQ DUP1 PUSH2 0x13A1 JUMPI POP PUSH1 0x18 CALLDATASIZE LT JUMPDEST ISZERO PUSH2 0x13AB JUMPI POP CALLER SWAP1 JUMP JUMPDEST PUSH32 0xFFFFFFFFFFFFFFFFFFFFFFFFFFFFFFFFFFFFFFFFFFFFFFFFFFFFFFFFFFFFFFEC CALLDATASIZE ADD CALLDATALOAD PUSH1 0x60 SHR PUSH32 0x0 PUSH20 0xFFFFFFFFFFFFFFFFFFFFFFFFFFFFFFFFFFFFFFFF AND CALLER EQ DUP1 PUSH2 0x14C7 JUMPI POP PUSH1 0x40 MLOAD PUSH32 0x8929A8CA00000000000000000000000000000000000000000000000000000000 DUP2 MSTORE PUSH20 0xFFFFFFFFFFFFFFFFFFFFFFFFFFFFFFFFFFFFFFFF DUP3 DUP2 AND PUSH1 0x4 DUP4 ADD MSTORE CALLER PUSH1 0x24 DUP4 ADD MSTORE PUSH32 0x0 AND SWAP1 PUSH4 0x8929A8CA SWAP1 PUSH1 0x44 ADD PUSH1 0x20 PUSH1 0x40 MLOAD DUP1 DUP4 SUB DUP2 DUP7 GAS STATICCALL ISZERO DUP1 ISZERO PUSH2 0x14A3 JUMPI RETURNDATASIZE PUSH1 0x0 DUP1 RETURNDATACOPY RETURNDATASIZE PUSH1 0x0 REVERT JUMPDEST POP POP POP POP PUSH1 0x40 MLOAD RETURNDATASIZE PUSH1 0x1F NOT PUSH1 0x1F DUP3 ADD AND DUP3 ADD DUP1 PUSH1 0x40 MSTORE POP DUP2 ADD SWAP1 PUSH2 0x14C7 SWAP2 SWAP1 PUSH2 0x1ADC JUMP JUMPDEST ISZERO PUSH2 0x14D1 JUMPI SWAP2 SWAP1 POP JUMP JUMPDEST CALLER SWAP2 POP POP SWAP1 JUMP JUMPDEST CALLDATASIZE PUSH1 0x0 PUSH2 0x4B0 PUSH32 0xFFFFFFFFFFFFFFFFFFFFFFFFFFFFFFFFFFFFFFFFFFFFFFFFFFFFFFFFFFFFFFEC DUP4 ADD DUP3 DUP5 DUP2 PUSH2 0x1AFE JUMP JUMPDEST PUSH1 0x0 DUP2 DUP4 LT PUSH2 0x1525 JUMPI PUSH1 0x0 DUP3 DUP2 MSTORE PUSH1 0x20 DUP5 SWAP1 MSTORE PUSH1 0x40 SWAP1 KECCAK256 PUSH2 0x1534 JUMP JUMPDEST PUSH1 0x0 DUP4 DUP2 MSTORE PUSH1 0x20 DUP4 SWAP1 MSTORE PUSH1 0x40 SWAP1 KECCAK256 JUMPDEST SWAP4 SWAP3 POP POP POP JUMP JUMPDEST PUSH1 0x0 PUSH1 0x20 DUP3 DUP5 SUB SLT ISZERO PUSH2 0x154D JUMPI PUSH1 0x0 DUP1 REVERT JUMPDEST DUP2 CALLDATALOAD PUSH32 0xFFFFFFFF00000000000000000000000000000000000000000000000000000000 DUP2 AND DUP2 EQ PUSH2 0x1534 JUMPI PUSH1 0x0 DUP1 REVERT JUMPDEST DUP1 CALLDATALOAD PUSH20 0xFFFFFFFFFFFFFFFFFFFFFFFFFFFFFFFFFFFFFFFF DUP2 AND DUP2 EQ PUSH2 0x15A1 JUMPI PUSH1 0x0 DUP1 REVERT JUMPDEST SWAP2 SWAP1 POP JUMP JUMPDEST PUSH1 0x0 PUSH1 0x20 DUP3 DUP5 SUB SLT ISZERO PUSH2 0x15B8 JUMPI PUSH1 0x0 DUP1 REVERT JUMPDEST PUSH2 0x1534 DUP3 PUSH2 0x157D JUMP JUMPDEST PUSH1 0x20 DUP2 MSTORE DUP2 PUSH1 0x20 DUP3 ADD MSTORE DUP2 DUP4 PUSH1 0x40 DUP4 ADD CALLDATACOPY PUSH1 0x0 DUP2 DUP4 ADD PUSH1 0x40 SWAP1 DUP2 ADD SWAP2 SWAP1 SWAP2 MSTORE PUSH1 0x1F SWAP1 SWAP3 ADD PUSH32 0xFFFFFFFFFFFFFFFFFFFFFFFFFFFFFFFFFFFFFFFFFFFFFFFFFFFFFFFFFFFFFFE0 AND ADD ADD SWAP2 SWAP1 POP JUMP JUMPDEST PUSH1 0x0 DUP1 PUSH1 0x40 DUP4 DUP6 SUB SLT ISZERO PUSH2 0x1621 JUMPI PUSH1 0x0 DUP1 REVERT JUMPDEST DUP3 CALLDATALOAD SWAP2 POP PUSH2 0x1631 PUSH1 0x20 DUP5 ADD PUSH2 0x157D JUMP JUMPDEST SWAP1 POP SWAP3 POP SWAP3 SWAP1 POP JUMP JUMPDEST PUSH1 0x0 PUSH1 0x20 DUP3 DUP5 SUB SLT ISZERO PUSH2 0x164C JUMPI PUSH1 0x0 DUP1 REVERT JUMPDEST POP CALLDATALOAD SWAP2 SWAP1 POP JUMP JUMPDEST PUSH1 0x0 DUP1 DUP4 PUSH1 0x1F DUP5 ADD SLT PUSH2 0x1665 JUMPI PUSH1 0x0 DUP1 REVERT JUMPDEST POP DUP2 CALLDATALOAD PUSH8 0xFFFFFFFFFFFFFFFF DUP2 GT ISZERO PUSH2 0x167D JUMPI PUSH1 0x0 DUP1 REVERT JUMPDEST PUSH1 0x20 DUP4 ADD SWAP2 POP DUP4 PUSH1 0x20 DUP3 PUSH1 0x5 SHL DUP6 ADD ADD GT ISZERO PUSH2 0x1698 JUMPI PUSH1 0x0 DUP1 REVERT JUMPDEST SWAP3 POP SWAP3 SWAP1 POP JUMP JUMPDEST PUSH1 0x0 DUP1 DUP4 PUSH1 0x1F DUP5 ADD SLT PUSH2 0x16B1 JUMPI PUSH1 0x0 DUP1 REVERT JUMPDEST POP DUP2 CALLDATALOAD PUSH8 0xFFFFFFFFFFFFFFFF DUP2 GT ISZERO PUSH2 0x16C9 JUMPI PUSH1 0x0 DUP1 REVERT JUMPDEST PUSH1 0x20 DUP4 ADD SWAP2 POP DUP4 PUSH1 0x20 DUP3 DUP6 ADD ADD GT ISZERO PUSH2 0x1698 JUMPI PUSH1 0x0 DUP1 REVERT JUMPDEST PUSH1 0x0 DUP1 PUSH1 0x0 DUP1 PUSH1 0x0 DUP1 PUSH1 0x0 DUP1 PUSH1 0xA0 DUP10 DUP12 SUB SLT ISZERO PUSH2 0x16FD JUMPI PUSH1 0x0 DUP1 REVERT JUMPDEST PUSH2 0x1706 DUP10 PUSH2 0x157D JUMP JUMPDEST SWAP8 POP PUSH2 0x1714 PUSH1 0x20 DUP11 ADD PUSH2 0x157D JUMP JUMPDEST SWAP7 POP PUSH1 0x40 DUP10 ADD CALLDATALOAD PUSH8 0xFFFFFFFFFFFFFFFF DUP1 DUP3 GT ISZERO PUSH2 0x1731 JUMPI PUSH1 0x0 DUP1 REVERT JUMPDEST PUSH2 0x173D DUP13 DUP4 DUP14 ADD PUSH2 0x1653 JUMP JUMPDEST SWAP1 SWAP9 POP SWAP7 POP PUSH1 0x60 DUP12 ADD CALLDATALOAD SWAP2 POP DUP1 DUP3 GT ISZERO PUSH2 0x1756 JUMPI PUSH1 0x0 DUP1 REVERT JUMPDEST PUSH2 0x1762 DUP13 DUP4 DUP14 ADD PUSH2 0x1653 JUMP JUMPDEST SWAP1 SWAP7 POP SWAP5 POP PUSH1 0x80 DUP12 ADD CALLDATALOAD SWAP2 POP DUP1 DUP3 GT ISZERO PUSH2 0x177B JUMPI PUSH1 0x0 DUP1 REVERT JUMPDEST POP PUSH2 0x1788 DUP12 DUP3 DUP13 ADD PUSH2 0x169F JUMP JUMPDEST SWAP10 SWAP13 SWAP9 SWAP12 POP SWAP7 SWAP10 POP SWAP5 SWAP8 SWAP4 SWAP7 SWAP3 SWAP6 SWAP5 POP POP POP JUMP JUMPDEST PUSH1 0x0 DUP1 PUSH1 0x0 DUP1 PUSH1 0x0 DUP1 PUSH1 0xA0 DUP8 DUP10 SUB SLT ISZERO PUSH2 0x17B5 JUMPI PUSH1 0x0 DUP1 REVERT JUMPDEST PUSH2 0x17BE DUP8 PUSH2 0x157D JUMP JUMPDEST SWAP6 POP PUSH2 0x17CC PUSH1 0x20 DUP9 ADD PUSH2 0x157D JUMP JUMPDEST SWAP5 POP PUSH1 0x40 DUP8 ADD CALLDATALOAD SWAP4 POP PUSH1 0x60 DUP8 ADD CALLDATALOAD SWAP3 POP PUSH1 0x80 DUP8 ADD CALLDATALOAD PUSH8 0xFFFFFFFFFFFFFFFF DUP2 GT ISZERO PUSH2 0x17F6 JUMPI PUSH1 0x0 DUP1 REVERT JUMPDEST PUSH2 0x1802 DUP10 DUP3 DUP11 ADD PUSH2 0x169F JUMP JUMPDEST SWAP8 SWAP11 SWAP7 SWAP10 POP SWAP5 SWAP8 POP SWAP3 SWAP6 SWAP4 SWAP5 SWAP3 POP POP POP JUMP JUMPDEST PUSH32 0x4E487B7100000000000000000000000000000000000000000000000000000000 PUSH1 0x0 MSTORE PUSH1 0x11 PUSH1 0x4 MSTORE PUSH1 0x24 PUSH1 0x0 REVERT JUMPDEST DUP2 DUP2 SUB DUP2 DUP2 GT ISZERO PUSH2 0x49F JUMPI PUSH2 0x49F PUSH2 0x1814 JUMP JUMPDEST PUSH1 0x0 DUP3 PUSH2 0x188C JUMPI PUSH32 0x4E487B7100000000000000000000000000000000000000000000000000000000 PUSH1 0x0 MSTORE PUSH1 0x12 PUSH1 0x4 MSTORE PUSH1 0x24 PUSH1 0x0 REVERT JUMPDEST POP DIV SWAP1 JUMP JUMPDEST DUP2 DUP4 MSTORE PUSH1 0x0 PUSH32 0x7FFFFFFFFFFFFFFFFFFFFFFFFFFFFFFFFFFFFFFFFFFFFFFFFFFFFFFFFFFFFFF DUP4 GT ISZERO PUSH2 0x18C3 JUMPI PUSH1 0x0 DUP1 REVERT JUMPDEST DUP3 PUSH1 0x5 SHL DUP1 DUP4 PUSH1 0x20 DUP8 ADD CALLDATACOPY SWAP4 SWAP1 SWAP4 ADD PUSH1 0x20 ADD SWAP4 SWAP3 POP POP POP JUMP JUMPDEST PUSH20 0xFFFFFFFFFFFFFFFFFFFFFFFFFFFFFFFFFFFFFFFF DUP7 AND DUP2 MSTORE PUSH1 0x60 PUSH1 0x20 DUP3 ADD MSTORE PUSH1 0x0 PUSH2 0x190C PUSH1 0x60 DUP4 ADD DUP7 DUP9 PUSH2 0x1891 JUMP JUMPDEST DUP3 DUP2 SUB PUSH1 0x40 DUP5 ADD MSTORE PUSH2 0x191F DUP2 DUP6 DUP8 PUSH2 0x1891 JUMP JUMPDEST SWAP9 SWAP8 POP POP POP POP POP POP POP POP JUMP JUMPDEST PUSH32 0x4E487B7100000000000000000000000000000000000000000000000000000000 PUSH1 0x0 MSTORE PUSH1 0x32 PUSH1 0x4 MSTORE PUSH1 0x24 PUSH1 0x0 REVERT JUMPDEST DUP1 DUP3 MUL DUP2 ISZERO DUP3 DUP3 DIV DUP5 EQ OR PUSH2 0x49F JUMPI PUSH2 0x49F PUSH2 0x1814 JUMP JUMPDEST DUP1 DUP3 ADD DUP1 DUP3 GT ISZERO PUSH2 0x49F JUMPI PUSH2 0x49F PUSH2 0x1814 JUMP JUMPDEST PUSH32 0x4E487B7100000000000000000000000000000000000000000000000000000000 PUSH1 0x0 MSTORE PUSH1 0x41 PUSH1 0x4 MSTORE PUSH1 0x24 PUSH1 0x0 REVERT JUMPDEST PUSH1 0x0 DUP1 PUSH1 0x40 DUP4 DUP6 SUB SLT ISZERO PUSH2 0x19C6 JUMPI PUSH1 0x0 DUP1 REVERT JUMPDEST DUP3 CALLDATALOAD PUSH8 0xFFFFFFFFFFFFFFFF DUP1 DUP3 GT ISZERO PUSH2 0x19DE JUMPI PUSH1 0x0 DUP1 REVERT JUMPDEST DUP2 DUP6 ADD SWAP2 POP DUP6 PUSH1 0x1F DUP4 ADD SLT PUSH2 0x19F2 JUMPI PUSH1 0x0 DUP1 REVERT JUMPDEST DUP2 CALLDATALOAD PUSH1 0x20 DUP3 DUP3 GT ISZERO PUSH2 0x1A06 JUMPI PUSH2 0x1A06 PUSH2 0x1984 JUMP JUMPDEST DUP2 PUSH1 0x5 SHL PUSH1 0x40 MLOAD PUSH32 0xFFFFFFFFFFFFFFFFFFFFFFFFFFFFFFFFFFFFFFFFFFFFFFFFFFFFFFFFFFFFFFE0 PUSH1 0x3F DUP4 ADD AND DUP2 ADD DUP2 DUP2 LT DUP7 DUP3 GT OR ISZERO PUSH2 0x1A49 JUMPI PUSH2 0x1A49 PUSH2 0x1984 JUMP JUMPDEST PUSH1 0x40 MSTORE SWAP3 DUP4 MSTORE DUP2 DUP4 ADD SWAP4 POP DUP5 DUP2 ADD DUP3 ADD SWAP3 DUP10 DUP5 GT ISZERO PUSH2 0x1A67 JUMPI PUSH1 0x0 DUP1 REVERT JUMPDEST SWAP5 DUP3 ADD SWAP5 JUMPDEST DUP4 DUP7 LT ISZERO PUSH2 0x1A85 JUMPI DUP6 CALLDATALOAD DUP6 MSTORE SWAP5 DUP3 ADD SWAP5 SWAP4 DUP3 ADD SWAP4 PUSH2 0x1A6C JUMP JUMPDEST SWAP10 SWAP8 SWAP1 SWAP2 ADD CALLDATALOAD SWAP8 POP POP POP POP POP POP POP JUMP JUMPDEST PUSH1 0xA0 DUP2 MSTORE PUSH1 0x0 PUSH2 0x1AA9 PUSH1 0xA0 DUP4 ADD DUP10 DUP12 PUSH2 0x1891 JUMP JUMPDEST DUP3 DUP2 SUB PUSH1 0x20 DUP5 ADD MSTORE PUSH2 0x1ABC DUP2 DUP9 DUP11 PUSH2 0x1891 JUMP JUMPDEST PUSH1 0x40 DUP5 ADD SWAP7 SWAP1 SWAP7 MSTORE POP POP PUSH1 0x60 DUP2 ADD SWAP3 SWAP1 SWAP3 MSTORE PUSH1 0x80 SWAP1 SWAP2 ADD MSTORE SWAP5 SWAP4 POP POP POP POP JUMP JUMPDEST PUSH1 0x0 PUSH1 0x20 DUP3 DUP5 SUB SLT ISZERO PUSH2 0x1AEE JUMPI PUSH1 0x0 DUP1 REVERT JUMPDEST DUP2 MLOAD DUP1 ISZERO ISZERO DUP2 EQ PUSH2 0x1534 JUMPI PUSH1 0x0 DUP1 REVERT JUMPDEST PUSH1 0x0 DUP1 DUP6 DUP6 GT ISZERO PUSH2 0x1B0E JUMPI PUSH1 0x0 DUP1 REVERT JUMPDEST DUP4 DUP7 GT ISZERO PUSH2 0x1B1B JUMPI PUSH1 0x0 DUP1 REVERT JUMPDEST POP POP DUP3 ADD SWAP4 SWAP2 SWAP1 SWAP3 SUB SWAP2 POP JUMP INVALID LOG2 PUSH5 0x6970667358 0x22 SLT KECCAK256 0xA9 CALLVALUE 0xC5 0x28 0xD9 STATICCALL 0x2B 0xAB ADD DUP12 DUP2 0xBC 0xCF 0xB9 0x5D SDIV 0xBA 0xC9 DUP10 0xC2 0x2A PUSH16 0x153A141565317740D44064736F6C6343 STOP ADDMOD AND STOP CALLER "},"gasEstimates":{"creation":{"codeDepositCost":"1401200","executionCost":"infinite","totalCost":"infinite"},"external":{"BURN_WEIGHT_TOKEN_1()":"264","BURN_WEIGHT_TOKEN_2()":"262","BURN_WEIGHT_TOKEN_3()":"240","BURN_WEIGHT_TOKEN_4()":"241","BURN_WEIGHT_TOKEN_5()":"305","BURN_WEIGHT_TOKEN_6()":"240","BURN_WEIGHT_TOKEN_7()":"262","CYCLE_DURATION()":"infinite","INITIAL_TIME()":"infinite","MAX_CYCLE()":"infinite","MERKLE_ROOT()":"infinite","MISSING_ORB()":"infinite","MISSING_ORB_TOKEN_ID()":"285","ORB_OF_POWER()":"infinite","ROC_MULTIPLIER()":"263","__msgData()":"infinite","__msgSender()":"infinite","currentCycle()":"infinite","forwarderRegistry()":"infinite","isTrustedForwarder(address)":"infinite","onERC1155BatchReceived(address,address,uint256[],uint256[],bytes)":"infinite","onERC1155Received(address,address,uint256,uint256,bytes)":"infinite","orbMultipliers(address)":"2575","supportsInterface(bytes4)":"infinite","totalAshPerCycle(uint256)":"2508","userAshPerCycle(uint256,address)":"2716"}},"methodIdentifiers":{"BURN_WEIGHT_TOKEN_1()":"0277640e","BURN_WEIGHT_TOKEN_2()":"424ab4f7","BURN_WEIGHT_TOKEN_3()":"aa918fd5","BURN_WEIGHT_TOKEN_4()":"0455645a","BURN_WEIGHT_TOKEN_5()":"f95d1016","BURN_WEIGHT_TOKEN_6()":"3838a201","BURN_WEIGHT_TOKEN_7()":"c131754e","CYCLE_DURATION()":"cd421fbf","INITIAL_TIME()":"491bde66","MAX_CYCLE()":"043063bc","MERKLE_ROOT()":"51e75e8b","MISSING_ORB()":"cd18a34f","MISSING_ORB_TOKEN_ID()":"1de0e40b","ORB_OF_POWER()":"28a979cf","ROC_MULTIPLIER()":"55f5b0a8","__msgData()":"31e66e1e","__msgSender()":"d1a91ff2","currentCycle()":"bab2f552","forwarderRegistry()":"2b4c9f16","isTrustedForwarder(address)":"572b6c05","onERC1155BatchReceived(address,address,uint256[],uint256[],bytes)":"bc197c81","onERC1155Received(address,address,uint256,uint256,bytes)":"f23a6e61","orbMultipliers(address)":"12828b7f","supportsInterface(bytes4)":"01ffc9a7","totalAshPerCycle(uint256)":"ab504e73","userAshPerCycle(uint256,address)":"4dac1c2b"}},"storageLayout":{"storage":[{"astId":1054,"contract":"contracts/mocks/burn/OrbsBurnPoolMock.sol:OrbsBurnPoolMock","label":"totalAshPerCycle","offset":0,"slot":"0","type":"t_mapping(t_uint256,t_uint256)"},{"astId":1061,"contract":"contracts/mocks/burn/OrbsBurnPoolMock.sol:OrbsBurnPoolMock","label":"userAshPerCycle","offset":0,"slot":"1","type":"t_mapping(t_uint256,t_mapping(t_address,t_uint256))"},{"astId":1066,"contract":"contracts/mocks/burn/OrbsBurnPoolMock.sol:OrbsBurnPoolMock","label":"orbMultipliers","offset":0,"slot":"2","type":"t_mapping(t_address,t_uint256)"}],"types":{"t_address":{"encoding":"inplace","label":"address","numberOfBytes":"20"},"t_mapping(t_address,t_uint256)":{"encoding":"mapping","key":"t_address","label":"mapping(address => uint256)","numberOfBytes":"32","value":"t_uint256"},"t_mapping(t_uint256,t_mapping(t_address,t_uint256))":{"encoding":"mapping","key":"t_uint256","label":"mapping(uint256 => mapping(address => uint256))","numberOfBytes":"32","value":"t_mapping(t_address,t_uint256)"},"t_mapping(t_uint256,t_uint256)":{"encoding":"mapping","key":"t_uint256","label":"mapping(uint256 => uint256)","numberOfBytes":"32","value":"t_uint256"},"t_uint256":{"encoding":"inplace","label":"uint256","numberOfBytes":"32"}}},"userdoc":{"errors":{"AlreadySetROCMultiplier(address)":[{"notice":"Error thrown when the wallet already has the ROC multiplier been set."}],"IllegalInterfaceId()":[{"notice":"Thrown when setting the illegal interfaceId 0xffffffff."}],"InvalidCycle(uint256)":[{"notice":"Error thrown when the cycle is invalid."}],"InvalidProof(address,uint256)":[{"notice":"Error thrown when the proof is invalid."}],"InvalidTokenAddress(address)":[{"notice":"Error thrown when the token is not approved."}],"InvalidTokenId(address,uint256)":[{"notice":"Error thrown when the token ID is invalid."}],"InvalidTokenValue(address,uint256,uint256)":[{"notice":"Error thrown when the token amount is invalid."}],"ZeroCycleDuration()":[{"notice":"Error thrown when the cycle duration is invalid."}],"ZeroMaxCycle()":[{"notice":"Error thrown when the cycle is invalid."}]},"events":{"GenerateAsh(address,uint256,uint256[],uint256[],uint256,uint256,uint256)":{"notice":"Event emitted when ASH are generated."},"UpdateOrbMultiplier(address,uint256,uint256)":{"notice":"Event emitted when the multiplier info is updated."}},"kind":"user","methods":{"BURN_WEIGHT_TOKEN_1()":{"notice":"The token weights for calculating Ash."},"CYCLE_DURATION()":{"notice":"The duration of each cycle."},"INITIAL_TIME()":{"notice":"The initial time of the contract."},"MAX_CYCLE()":{"notice":"The maximum cycle."},"MERKLE_ROOT()":{"notice":"The Merkle root for setting the puzzleMultiplier."},"MISSING_ORB()":{"notice":"The IERC1155 erc1155 contract for setting the token multiplier."},"MISSING_ORB_TOKEN_ID()":{"notice":"The token ID of RoC for setting the token multiplier."},"ORB_OF_POWER()":{"notice":"The IERC1155Burnable erc1155 contracts burn to generate ASH."},"ROC_MULTIPLIER()":{"notice":"The Riddle Of Chaos multiplier."},"__msgData()":{"notice":"Internal function to access the current msg.data."},"currentCycle()":{"notice":"Get the current cycle."},"isTrustedForwarder(address)":{"notice":"Checks whether a forwarder is trusted."},"onERC1155BatchReceived(address,address,uint256[],uint256[],bytes)":{"notice":"Burn the tokens and calculate the ash."},"onERC1155Received(address,address,uint256,uint256,bytes)":{"notice":"Set the Orb multiplier by burning the Missing Orb token 1and set the Puzzle Game multiplier through a Merkle proof in the data field."},"orbMultipliers(address)":{"notice":"The orb multipliers for each user, first 128 bits are the puzzleMultiplier numerator, last 128 bits are the roc multiplier."},"supportsInterface(bytes4)":{"notice":"Returns whether this contract implements a given interface."},"totalAshPerCycle(uint256)":{"notice":"The total amount of ASH generated in each cycle."},"userAshPerCycle(uint256,address)":{"notice":"The total amount of ASH generated by each user in each cycle."}},"version":1}}}}