{"contracts/burn/AnichessOrbsBurnPoolOnchainClaim.sol":{"AnichessOrbsBurnPool":{"abi":[{"inputs":[{"internalType":"uint256","name":"initialTime","type":"uint256"},{"internalType":"uint256","name":"cycleDuration","type":"uint256"},{"internalType":"uint256","name":"maxCycle","type":"uint256"},{"internalType":"contract IERC1155Burnable[]","name":"_tokens","type":"address[]"},{"internalType":"uint256[][]","name":"tokenIds","type":"uint256[][]"},{"internalType":"uint256[][]","name":"weights","type":"uint256[][]"},{"internalType":"uint256[]","name":"_tiers","type":"uint256[]"},{"internalType":"uint256[]","name":"_tierRewards","type":"uint256[]"},{"internalType":"contract IForwarderRegistry","name":"forwarderRegistry","type":"address"}],"stateMutability":"nonpayable","type":"constructor"},{"inputs":[],"name":"IllegalInterfaceId","type":"error"},{"inputs":[],"name":"InconsistentArrays","type":"error"},{"inputs":[],"name":"IncorrectTiers","type":"error"},{"inputs":[{"internalType":"uint256","name":"cycle","type":"uint256"}],"name":"InvalidCycle","type":"error"},{"inputs":[],"name":"InvalidToken","type":"error"},{"inputs":[{"internalType":"address","name":"token","type":"address"},{"internalType":"uint256","name":"tokenId","type":"uint256"}],"name":"InvalidTokenId","type":"error"},{"inputs":[{"internalType":"address","name":"account","type":"address"}],"name":"NotContractOwner","type":"error"},{"inputs":[],"name":"NotImplemented","type":"error"},{"anonymous":false,"inputs":[{"indexed":true,"internalType":"address","name":"claimer","type":"address"},{"indexed":true,"internalType":"uint256","name":"cycle","type":"uint256"},{"indexed":false,"internalType":"uint256","name":"amount","type":"uint256"}],"name":"Claimed","type":"event"},{"anonymous":false,"inputs":[{"indexed":true,"internalType":"address","name":"previousOwner","type":"address"},{"indexed":true,"internalType":"address","name":"newOwner","type":"address"}],"name":"OwnershipTransferred","type":"event"},{"anonymous":false,"inputs":[{"indexed":true,"internalType":"address","name":"burner","type":"address"},{"indexed":true,"internalType":"address","name":"token","type":"address"},{"indexed":false,"internalType":"uint256","name":"cycle","type":"uint256"},{"indexed":false,"internalType":"uint256","name":"timestamp","type":"uint256"},{"indexed":false,"internalType":"uint256[]","name":"ids","type":"uint256[]"},{"indexed":false,"internalType":"uint256[]","name":"values","type":"uint256[]"},{"indexed":false,"internalType":"uint256","name":"totalAsh","type":"uint256"}],"name":"TokensBurnt","type":"event"},{"inputs":[],"name":"CYCLE_DURATION","outputs":[{"internalType":"uint256","name":"","type":"uint256"}],"stateMutability":"view","type":"function"},{"inputs":[],"name":"INITIAL_TIME","outputs":[{"internalType":"uint256","name":"","type":"uint256"}],"stateMutability":"view","type":"function"},{"inputs":[],"name":"MAX_CYCLE","outputs":[{"internalType":"uint256","name":"","type":"uint256"}],"stateMutability":"view","type":"function"},{"inputs":[],"name":"forwarderRegistry","outputs":[{"internalType":"contract IForwarderRegistry","name":"","type":"address"}],"stateMutability":"view","type":"function"},{"inputs":[{"internalType":"uint256","name":"cycle","type":"uint256"}],"name":"getCycleReward","outputs":[{"internalType":"uint256","name":"","type":"uint256"}],"stateMutability":"view","type":"function"},{"inputs":[{"internalType":"uint256","name":"cycle","type":"uint256"},{"internalType":"address","name":"wallet","type":"address"}],"name":"getUserReward","outputs":[{"internalType":"uint256","name":"","type":"uint256"}],"stateMutability":"view","type":"function"},{"inputs":[{"internalType":"address","name":"forwarder","type":"address"}],"name":"isTrustedForwarder","outputs":[{"internalType":"bool","name":"","type":"bool"}],"stateMutability":"view","type":"function"},{"inputs":[{"internalType":"address","name":"","type":"address"},{"internalType":"address","name":"from","type":"address"},{"internalType":"uint256[]","name":"ids","type":"uint256[]"},{"internalType":"uint256[]","name":"values","type":"uint256[]"},{"internalType":"bytes","name":"","type":"bytes"}],"name":"onERC1155BatchReceived","outputs":[{"internalType":"bytes4","name":"","type":"bytes4"}],"stateMutability":"nonpayable","type":"function"},{"inputs":[{"internalType":"address","name":"","type":"address"},{"internalType":"address","name":"","type":"address"},{"internalType":"uint256","name":"","type":"uint256"},{"internalType":"uint256","name":"","type":"uint256"},{"internalType":"bytes","name":"","type":"bytes"}],"name":"onERC1155Received","outputs":[{"internalType":"bytes4","name":"","type":"bytes4"}],"stateMutability":"pure","type":"function"},{"inputs":[],"name":"owner","outputs":[{"internalType":"address","name":"","type":"address"}],"stateMutability":"view","type":"function"},{"inputs":[{"internalType":"bytes4","name":"interfaceId","type":"bytes4"}],"name":"supportsInterface","outputs":[{"internalType":"bool","name":"","type":"bool"}],"stateMutability":"view","type":"function"},{"inputs":[{"internalType":"uint256","name":"","type":"uint256"}],"name":"tierRewards","outputs":[{"internalType":"uint256","name":"","type":"uint256"}],"stateMutability":"view","type":"function"},{"inputs":[{"internalType":"uint256","name":"","type":"uint256"}],"name":"tiers","outputs":[{"internalType":"uint256","name":"","type":"uint256"}],"stateMutability":"view","type":"function"},{"inputs":[{"internalType":"address","name":"","type":"address"}],"name":"tokens","outputs":[{"internalType":"bool","name":"","type":"bool"}],"stateMutability":"view","type":"function"},{"inputs":[{"internalType":"address","name":"newOwner","type":"address"}],"name":"transferOwnership","outputs":[],"stateMutability":"nonpayable","type":"function"},{"inputs":[{"internalType":"uint256","name":"","type":"uint256"},{"internalType":"address","name":"","type":"address"}],"name":"userAshByCycle","outputs":[{"internalType":"uint256","name":"","type":"uint256"}],"stateMutability":"view","type":"function"}],"devdoc":{"details":"This contract allows users to claim rewards based on a Merkle proof, which verifies that they areentitled to the rewards without revealing the entire list of recipients.","errors":{"NotContractOwner(address)":[{"params":{"account":"The account that was checked."}}]},"events":{"OwnershipTransferred(address,address)":{"params":{"newOwner":"the new contract owner.","previousOwner":"the previous contract owner."}}},"kind":"dev","methods":{"constructor":{"params":{"_tierRewards":"The list of rewards for each tier.","_tiers":"The list of tiers.","_tokens":"The list of IERC1155Burnable tokens to be approved.","cycleDuration":"The duration of each cycle.","forwarderRegistry":"The forwarder registry contract.","initialTime":"The initial time of the contract.","maxCycle":"The maximum cycle.","tokenIds":"The list of token IDs for each token.","weights":"The list of weights for each token ID."}},"isTrustedForwarder(address)":{"params":{"forwarder":"The forwarder to check."},"returns":{"_0":"True if `forwarder` is trusted, false if not."}},"owner()":{"returns":{"_0":"The address of the contract owner."}},"supportsInterface(bytes4)":{"details":"Note: This function call must use less than 30 000 gas.","params":{"interfaceId":"the interface identifier to test."},"returns":{"_0":"True if the interface is supported, false if `interfaceId` is `0xffffffff` or if the interface is not supported."}},"transferOwnership(address)":{"details":"Reverts if the sender is not the contract owner.Emits an {OwnershipTransferred} event if `newOwner` is different from the current contract owner.","params":{"newOwner":"The address of the new contract owner. Using the zero address means renouncing ownership."}}},"title":"Anichess ERC1155 Merkle Claim Contract","version":1},"evm":{"bytecode":{"linkReferences":{},"object":"6101006040523480156200001257600080fd5b5060405162001b3a38038062001b3a83398101604081905262000035916200074b565b6001600160a01b0381166080523362000063630271189760e51b60016200005b620000b1565b9190620000e7565b62000079816200007262000144565b9062000174565b5060a089905260c088905260e087905262000096868686620001e7565b620000a28383620003e6565b50505050505050505062000896565b600080620000e160017fca9d3e17f264b0f3984e2634e94adb37fa3e6a8103f06aeae6fa59e21c769f5e6200085e565b92915050565b600160e01b6001600160e01b031983160162000116576040516372c683bb60e01b815260040160405180910390fd5b6001600160e01b03199190911660009081526020929092526040909120805460ff1916911515919091179055565b600080620000e160017fc9ed16f33ab3a66c84bfd83099ccb2a8845871e2e1c1928f63797152f0fd54cd6200085e565b6001600160a01b03811615620001cb5781546001600160a01b0319166001600160a01b03821690811783556040516000907f8be0079c531659141344cd1fd0a4f28419497f9722a3daafe3b4186f6b6457e0908290a35b620001e36307f5828d60e41b60016200005b620000b1565b5050565b81518351141580620001fb57508051835114155b156200021a576040516335e83ac360e01b815260040160405180910390fd5b60005b8351811015620003e05760016004600086848151811062000242576200024262000880565b60200260200101516001600160a01b03166001600160a01b0316815260200190815260200160002060006101000a81548160ff02191690831515021790555081818151811062000296576200029662000880565b602002602001015151838281518110620002b457620002b462000880565b60200260200101515114620002dc576040516335e83ac360e01b815260040160405180910390fd5b60005b838281518110620002f457620002f462000880565b602002602001015151811015620003d6578282815181106200031a576200031a62000880565b6020026020010151818151811062000336576200033662000880565b60200260200101516005600087858151811062000357576200035762000880565b60200260200101516001600160a01b03166001600160a01b03168152602001908152602001600020600086858151811062000396576200039662000880565b60200260200101518481518110620003b257620003b262000880565b602090810291909101810151825281019190915260400160002055600101620002df565b506001016200021d565b50505050565b805182511462000409576040516335e83ac360e01b815260040160405180910390fd5b81516000036200042c57604051633de9ddf560e11b815260040160405180910390fd5b60015b8251811015620004a85782620004476001836200085e565b815181106200045a576200045a62000880565b602002602001015183828151811062000477576200047762000880565b602002602001015110156200049f57604051633de9ddf560e11b815260040160405180910390fd5b6001016200042f565b508151620004be906000906020850190620004d9565b508051620004d4906001906020840190620004d9565b505050565b82805482825590600052602060002090810192821562000517579160200282015b8281111562000517578251825591602001919060010190620004fa565b506200052592915062000529565b5090565b5b808211156200052557600081556001016200052a565b634e487b7160e01b600052604160045260246000fd5b604051601f8201601f191681016001600160401b038111828210171562000581576200058162000540565b604052919050565b60006001600160401b03821115620005a557620005a562000540565b5060051b60200190565b6001600160a01b0381168114620005c557600080fd5b50565b600082601f830112620005da57600080fd5b81516020620005f3620005ed8362000589565b62000556565b8083825260208201915060208460051b8701019350868411156200061657600080fd5b602086015b848110156200063f5780516200063181620005af565b83529183019183016200061b565b509695505050505050565b600082601f8301126200065c57600080fd5b815160206200066f620005ed8362000589565b8083825260208201915060208460051b8701019350868411156200069257600080fd5b602086015b848110156200063f578051835291830191830162000697565b600082601f830112620006c257600080fd5b81516020620006d5620005ed8362000589565b82815260059290921b84018101918181019086841115620006f557600080fd5b8286015b848110156200063f5780516001600160401b038111156200071a5760008081fd5b6200072a8986838b01016200064a565b845250918301918301620006f9565b80516200074681620005af565b919050565b60008060008060008060008060006101208a8c0312156200076b57600080fd5b895160208b015160408c015160608d0151929b5090995097506001600160401b03808211156200079a57600080fd5b620007a88d838e01620005c8565b975060808c0151915080821115620007bf57600080fd5b620007cd8d838e01620006b0565b965060a08c0151915080821115620007e457600080fd5b620007f28d838e01620006b0565b955060c08c01519150808211156200080957600080fd5b620008178d838e016200064a565b945060e08c01519150808211156200082e57600080fd5b506200083d8c828d016200064a565b9250506200084f6101008b0162000739565b90509295985092959850929598565b81810381811115620000e157634e487b7160e01b600052601160045260246000fd5b634e487b7160e01b600052603260045260246000fd5b60805160a05160c05160e0516112326200090860003960008181610153015281816103a1015281816104ee01526106450152600081816102ba0152610a700152600081816101e70152610a9401526000818161019d0152818161022c01528181610c530152610cdb01526112326000f3fe608060405234801561001057600080fd5b50600436106101005760003560e01c8063572b6c0511610097578063e486033911610066578063e4860339146102dc578063f23a6e61146102ff578063f2fde38b14610312578063fa9fdc6a1461032757600080fd5b8063572b6c051461021c5780638da5cb5b14610269578063bc197c8114610271578063cd421fbf146102b557600080fd5b80632099920e116100d35780632099920e146101885780632b4c9f161461019b578063491bde66146101e2578063556c448d1461020957600080fd5b806301ffc9a714610105578063039af9eb1461012d578063043063bc1461014e57806304585ac714610175575b600080fd5b610118610113366004610d57565b610352565b60405190151581526020015b60405180910390f35b61014061013b366004610da0565b61036c565b604051908152602001610124565b6101407f000000000000000000000000000000000000000000000000000000000000000081565b610140610183366004610da0565b61038d565b610140610196366004610de2565b6104da565b7f00000000000000000000000000000000000000000000000000000000000000005b60405173ffffffffffffffffffffffffffffffffffffffff9091168152602001610124565b6101407f000000000000000000000000000000000000000000000000000000000000000081565b610140610217366004610da0565b6105b2565b61011861022a366004610e0e565b7f000000000000000000000000000000000000000000000000000000000000000073ffffffffffffffffffffffffffffffffffffffff90811691161490565b6101bd6105c2565b61028461027f366004610eb7565b6105ee565b6040517fffffffff000000000000000000000000000000000000000000000000000000009091168152602001610124565b6101407f000000000000000000000000000000000000000000000000000000000000000081565b6101186102ea366004610e0e565b60046020526000908152604090205460ff1681565b61028461030d366004610f72565b610912565b610325610320366004610e0e565b610946565b005b610140610335366004610de2565b600360209081526000928352604080842090915290825290205481565b600061036682610360610964565b90610992565b92915050565b6000818154811061037c57600080fd5b600091825260209091200154905081565b6000610397610a6c565b8211806103c357507f000000000000000000000000000000000000000000000000000000000000000082115b15610402576040517f764e560f000000000000000000000000000000000000000000000000000000008152600481018390526024015b60405180910390fd5b6000821561042d5760026000610419600186611019565b815260200190815260200160002054610430565b60005b905060015b60005481116104a557600081815481106104515761045161102c565b906000526020600020015482101561049357600161046f8183611019565b8154811061047f5761047f61102c565b906000526020600020015492505050919050565b8061049d8161105b565b915050610435565b506000546001906104b7908290611019565b815481106104c7576104c761102c565b9060005260206000200154915050919050565b60006104e4610a6c565b83118061051057507f000000000000000000000000000000000000000000000000000000000000000083115b1561054a576040517f764e560f000000000000000000000000000000000000000000000000000000008152600481018490526024016103f9565b60006105558461038d565b600085815260036020908152604080832073ffffffffffffffffffffffffffffffffffffffff881684528252808320548884526002909252909120549192509061059f8383611093565b6105a991906110aa565b95945050505050565b6001818154811061037c57600080fd5b60006105e96105cf610ac3565b5473ffffffffffffffffffffffffffffffffffffffff1690565b905090565b3360009081526004602052604081205460ff16610637576040517fc1ab6dc100000000000000000000000000000000000000000000000000000000815260040160405180910390fd5b6000610641610a6c565b90507f00000000000000000000000000000000000000000000000000000000000000008111156106a0576040517f764e560f000000000000000000000000000000000000000000000000000000008152600481018290526024016103f9565b6000805b8881101561079357336000908152600560205260408120818c8c858181106106ce576106ce61102c565b9050602002013581526020019081526020016000205490508060000361075a57338b8b848181106107015761070161102c565b6040517f1912ea5100000000000000000000000000000000000000000000000000000000815273ffffffffffffffffffffffffffffffffffffffff909416600485015260200291909101356024830152506044016103f9565b8089898481811061076d5761076d61102c565b9050602002013561077e9190611093565b61078890846110e5565b9250506001016106a4565b50600082815260036020908152604080832073ffffffffffffffffffffffffffffffffffffffff8e168452909152812080548392906107d39084906110e5565b9091555050600082815260026020526040812080548392906107f69084906110e5565b90915550506040517f80534934000000000000000000000000000000000000000000000000000000008152339063805349349061083f908d908d908d908d908d90600401611143565b600060405180830381600087803b15801561085957600080fd5b505af115801561086d573d6000803e3d6000fd5b505050503373ffffffffffffffffffffffffffffffffffffffff168a73ffffffffffffffffffffffffffffffffffffffff167fdbbe1cdf876fa73ee022a259cac764db805dcc10f143a583201b8c5e97c2573d84428d8d8d8d896040516108da9796959493929190611192565b60405180910390a3507fbc197c81000000000000000000000000000000000000000000000000000000009a9950505050505050505050565b60006040517fd623472500000000000000000000000000000000000000000000000000000000815260040160405180910390fd5b610961610951610af1565b8261095a610ac3565b9190610afb565b50565b60008061036660017fca9d3e17f264b0f3984e2634e94adb37fa3e6a8103f06aeae6fa59e21c769f5e611019565b60007c01000000000000000000000000000000000000000000000000000000007fffffffff000000000000000000000000000000000000000000000000000000008316016109e257506000610366565b7ffe003659000000000000000000000000000000000000000000000000000000007fffffffff00000000000000000000000000000000000000000000000000000000831601610a3357506001610366565b507fffffffff00000000000000000000000000000000000000000000000000000000166000908152602091909152604090205460ff1690565b60007f0000000000000000000000000000000000000000000000000000000000000000610ab97f000000000000000000000000000000000000000000000000000000000000000042611019565b6105e991906110aa565b60008061036660017fc9ed16f33ab3a66c84bfd83099ccb2a8845871e2e1c1928f63797152f0fd54cd611019565b60006105e9610c10565b825473ffffffffffffffffffffffffffffffffffffffff9081169083168114610b68576040517f2ef4875e00000000000000000000000000000000000000000000000000000000815273ffffffffffffffffffffffffffffffffffffffff841660048201526024016103f9565b8173ffffffffffffffffffffffffffffffffffffffff168173ffffffffffffffffffffffffffffffffffffffff1614610c0a5783547fffffffffffffffffffffffff00000000000000000000000000000000000000001673ffffffffffffffffffffffffffffffffffffffff8381169182178655604051908316907f8be0079c531659141344cd1fd0a4f28419497f9722a3daafe3b4186f6b6457e090600090a35b50505050565b600033321480610c205750601836105b15610c2a57503390565b7fffffffffffffffffffffffffffffffffffffffffffffffffffffffffffffffec36013560601c7f000000000000000000000000000000000000000000000000000000000000000073ffffffffffffffffffffffffffffffffffffffff16331480610d4657506040517f8929a8ca00000000000000000000000000000000000000000000000000000000815273ffffffffffffffffffffffffffffffffffffffff82811660048301523360248301527f00000000000000000000000000000000000000000000000000000000000000001690638929a8ca90604401602060405180830381865afa158015610d22573d6000803e3d6000fd5b505050506040513d601f19601f82011682018060405250810190610d4691906111da565b15610d5057919050565b3391505090565b600060208284031215610d6957600080fd5b81357fffffffff0000000000000000000000000000000000000000000000000000000081168114610d9957600080fd5b9392505050565b600060208284031215610db257600080fd5b5035919050565b803573ffffffffffffffffffffffffffffffffffffffff81168114610ddd57600080fd5b919050565b60008060408385031215610df557600080fd5b82359150610e0560208401610db9565b90509250929050565b600060208284031215610e2057600080fd5b610d9982610db9565b60008083601f840112610e3b57600080fd5b50813567ffffffffffffffff811115610e5357600080fd5b6020830191508360208260051b8501011115610e6e57600080fd5b9250929050565b60008083601f840112610e8757600080fd5b50813567ffffffffffffffff811115610e9f57600080fd5b602083019150836020828501011115610e6e57600080fd5b60008060008060008060008060a0898b031215610ed357600080fd5b610edc89610db9565b9750610eea60208a01610db9565b9650604089013567ffffffffffffffff80821115610f0757600080fd5b610f138c838d01610e29565b909850965060608b0135915080821115610f2c57600080fd5b610f388c838d01610e29565b909650945060808b0135915080821115610f5157600080fd5b50610f5e8b828c01610e75565b999c989b5096995094979396929594505050565b60008060008060008060a08789031215610f8b57600080fd5b610f9487610db9565b9550610fa260208801610db9565b94506040870135935060608701359250608087013567ffffffffffffffff811115610fcc57600080fd5b610fd889828a01610e75565b979a9699509497509295939492505050565b7f4e487b7100000000000000000000000000000000000000000000000000000000600052601160045260246000fd5b8181038181111561036657610366610fea565b7f4e487b7100000000000000000000000000000000000000000000000000000000600052603260045260246000fd5b60007fffffffffffffffffffffffffffffffffffffffffffffffffffffffffffffffff820361108c5761108c610fea565b5060010190565b808202811582820484141761036657610366610fea565b6000826110e0577f4e487b7100000000000000000000000000000000000000000000000000000000600052601260045260246000fd5b500490565b8082018082111561036657610366610fea565b81835260007f07ffffffffffffffffffffffffffffffffffffffffffffffffffffffffffffff83111561112a57600080fd5b8260051b80836020870137939093016020019392505050565b73ffffffffffffffffffffffffffffffffffffffff861681526060602082015260006111736060830186886110f8565b82810360408401526111868185876110f8565b98975050505050505050565b87815286602082015260a0604082015260006111b260a0830187896110f8565b82810360608401526111c58186886110f8565b91505082608083015298975050505050505050565b6000602082840312156111ec57600080fd5b81518015158114610d9957600080fdfea264697066735822122075ed54939fbffadc480c130304c2304188bf0782edd7c7076c5ff31f3ecc445f64736f6c63430008160033","opcodes":"PUSH2 0x100 PUSH1 0x40 MSTORE CALLVALUE DUP1 ISZERO PUSH3 0x12 JUMPI PUSH1 0x0 DUP1 REVERT JUMPDEST POP PUSH1 0x40 MLOAD PUSH3 0x1B3A CODESIZE SUB DUP1 PUSH3 0x1B3A DUP4 CODECOPY DUP2 ADD PUSH1 0x40 DUP2 SWAP1 MSTORE PUSH3 0x35 SWAP2 PUSH3 0x74B JUMP JUMPDEST PUSH1 0x1 PUSH1 0x1 PUSH1 0xA0 SHL SUB DUP2 AND PUSH1 0x80 MSTORE CALLER PUSH3 0x63 PUSH4 0x2711897 PUSH1 0xE5 SHL PUSH1 0x1 PUSH3 0x5B PUSH3 0xB1 JUMP JUMPDEST SWAP2 SWAP1 PUSH3 0xE7 JUMP JUMPDEST PUSH3 0x79 DUP2 PUSH3 0x72 PUSH3 0x144 JUMP JUMPDEST SWAP1 PUSH3 0x174 JUMP JUMPDEST POP PUSH1 0xA0 DUP10 SWAP1 MSTORE PUSH1 0xC0 DUP9 SWAP1 MSTORE PUSH1 0xE0 DUP8 SWAP1 MSTORE PUSH3 0x96 DUP7 DUP7 DUP7 PUSH3 0x1E7 JUMP JUMPDEST PUSH3 0xA2 DUP4 DUP4 PUSH3 0x3E6 JUMP JUMPDEST POP POP POP POP POP POP POP POP POP PUSH3 0x896 JUMP JUMPDEST PUSH1 0x0 DUP1 PUSH3 0xE1 PUSH1 0x1 PUSH32 0xCA9D3E17F264B0F3984E2634E94ADB37FA3E6A8103F06AEAE6FA59E21C769F5E PUSH3 0x85E JUMP JUMPDEST SWAP3 SWAP2 POP POP JUMP JUMPDEST PUSH1 0x1 PUSH1 0xE0 SHL PUSH1 0x1 PUSH1 0x1 PUSH1 0xE0 SHL SUB NOT DUP4 AND ADD PUSH3 0x116 JUMPI PUSH1 0x40 MLOAD PUSH4 0x72C683BB PUSH1 0xE0 SHL DUP2 MSTORE PUSH1 0x4 ADD PUSH1 0x40 MLOAD DUP1 SWAP2 SUB SWAP1 REVERT JUMPDEST PUSH1 0x1 PUSH1 0x1 PUSH1 0xE0 SHL SUB NOT SWAP2 SWAP1 SWAP2 AND PUSH1 0x0 SWAP1 DUP2 MSTORE PUSH1 0x20 SWAP3 SWAP1 SWAP3 MSTORE PUSH1 0x40 SWAP1 SWAP2 KECCAK256 DUP1 SLOAD PUSH1 0xFF NOT AND SWAP2 ISZERO ISZERO SWAP2 SWAP1 SWAP2 OR SWAP1 SSTORE JUMP JUMPDEST PUSH1 0x0 DUP1 PUSH3 0xE1 PUSH1 0x1 PUSH32 0xC9ED16F33AB3A66C84BFD83099CCB2A8845871E2E1C1928F63797152F0FD54CD PUSH3 0x85E JUMP JUMPDEST PUSH1 0x1 PUSH1 0x1 PUSH1 0xA0 SHL SUB DUP2 AND ISZERO PUSH3 0x1CB JUMPI DUP2 SLOAD PUSH1 0x1 PUSH1 0x1 PUSH1 0xA0 SHL SUB NOT AND PUSH1 0x1 PUSH1 0x1 PUSH1 0xA0 SHL SUB DUP3 AND SWAP1 DUP2 OR DUP4 SSTORE PUSH1 0x40 MLOAD PUSH1 0x0 SWAP1 PUSH32 0x8BE0079C531659141344CD1FD0A4F28419497F9722A3DAAFE3B4186F6B6457E0 SWAP1 DUP3 SWAP1 LOG3 JUMPDEST PUSH3 0x1E3 PUSH4 0x7F5828D PUSH1 0xE4 SHL PUSH1 0x1 PUSH3 0x5B PUSH3 0xB1 JUMP JUMPDEST POP POP JUMP JUMPDEST DUP2 MLOAD DUP4 MLOAD EQ ISZERO DUP1 PUSH3 0x1FB JUMPI POP DUP1 MLOAD DUP4 MLOAD EQ ISZERO JUMPDEST ISZERO PUSH3 0x21A JUMPI PUSH1 0x40 MLOAD PUSH4 0x35E83AC3 PUSH1 0xE0 SHL DUP2 MSTORE PUSH1 0x4 ADD PUSH1 0x40 MLOAD DUP1 SWAP2 SUB SWAP1 REVERT JUMPDEST PUSH1 0x0 JUMPDEST DUP4 MLOAD DUP2 LT ISZERO PUSH3 0x3E0 JUMPI PUSH1 0x1 PUSH1 0x4 PUSH1 0x0 DUP7 DUP5 DUP2 MLOAD DUP2 LT PUSH3 0x242 JUMPI PUSH3 0x242 PUSH3 0x880 JUMP JUMPDEST PUSH1 0x20 MUL PUSH1 0x20 ADD ADD MLOAD PUSH1 0x1 PUSH1 0x1 PUSH1 0xA0 SHL SUB AND PUSH1 0x1 PUSH1 0x1 PUSH1 0xA0 SHL SUB AND DUP2 MSTORE PUSH1 0x20 ADD SWAP1 DUP2 MSTORE PUSH1 0x20 ADD PUSH1 0x0 KECCAK256 PUSH1 0x0 PUSH2 0x100 EXP DUP2 SLOAD DUP2 PUSH1 0xFF MUL NOT AND SWAP1 DUP4 ISZERO ISZERO MUL OR SWAP1 SSTORE POP DUP2 DUP2 DUP2 MLOAD DUP2 LT PUSH3 0x296 JUMPI PUSH3 0x296 PUSH3 0x880 JUMP JUMPDEST PUSH1 0x20 MUL PUSH1 0x20 ADD ADD MLOAD MLOAD DUP4 DUP3 DUP2 MLOAD DUP2 LT PUSH3 0x2B4 JUMPI PUSH3 0x2B4 PUSH3 0x880 JUMP JUMPDEST PUSH1 0x20 MUL PUSH1 0x20 ADD ADD MLOAD MLOAD EQ PUSH3 0x2DC JUMPI PUSH1 0x40 MLOAD PUSH4 0x35E83AC3 PUSH1 0xE0 SHL DUP2 MSTORE PUSH1 0x4 ADD PUSH1 0x40 MLOAD DUP1 SWAP2 SUB SWAP1 REVERT JUMPDEST PUSH1 0x0 JUMPDEST DUP4 DUP3 DUP2 MLOAD DUP2 LT PUSH3 0x2F4 JUMPI PUSH3 0x2F4 PUSH3 0x880 JUMP JUMPDEST PUSH1 0x20 MUL PUSH1 0x20 ADD ADD MLOAD MLOAD DUP2 LT ISZERO PUSH3 0x3D6 JUMPI DUP3 DUP3 DUP2 MLOAD DUP2 LT PUSH3 0x31A JUMPI PUSH3 0x31A PUSH3 0x880 JUMP JUMPDEST PUSH1 0x20 MUL PUSH1 0x20 ADD ADD MLOAD DUP2 DUP2 MLOAD DUP2 LT PUSH3 0x336 JUMPI PUSH3 0x336 PUSH3 0x880 JUMP JUMPDEST PUSH1 0x20 MUL PUSH1 0x20 ADD ADD MLOAD PUSH1 0x5 PUSH1 0x0 DUP8 DUP6 DUP2 MLOAD DUP2 LT PUSH3 0x357 JUMPI PUSH3 0x357 PUSH3 0x880 JUMP JUMPDEST PUSH1 0x20 MUL PUSH1 0x20 ADD ADD MLOAD PUSH1 0x1 PUSH1 0x1 PUSH1 0xA0 SHL SUB AND PUSH1 0x1 PUSH1 0x1 PUSH1 0xA0 SHL SUB AND DUP2 MSTORE PUSH1 0x20 ADD SWAP1 DUP2 MSTORE PUSH1 0x20 ADD PUSH1 0x0 KECCAK256 PUSH1 0x0 DUP7 DUP6 DUP2 MLOAD DUP2 LT PUSH3 0x396 JUMPI PUSH3 0x396 PUSH3 0x880 JUMP JUMPDEST PUSH1 0x20 MUL PUSH1 0x20 ADD ADD MLOAD DUP5 DUP2 MLOAD DUP2 LT PUSH3 0x3B2 JUMPI PUSH3 0x3B2 PUSH3 0x880 JUMP JUMPDEST PUSH1 0x20 SWAP1 DUP2 MUL SWAP2 SWAP1 SWAP2 ADD DUP2 ADD MLOAD DUP3 MSTORE DUP2 ADD SWAP2 SWAP1 SWAP2 MSTORE PUSH1 0x40 ADD PUSH1 0x0 KECCAK256 SSTORE PUSH1 0x1 ADD PUSH3 0x2DF JUMP JUMPDEST POP PUSH1 0x1 ADD PUSH3 0x21D JUMP JUMPDEST POP POP POP POP JUMP JUMPDEST DUP1 MLOAD DUP3 MLOAD EQ PUSH3 0x409 JUMPI PUSH1 0x40 MLOAD PUSH4 0x35E83AC3 PUSH1 0xE0 SHL DUP2 MSTORE PUSH1 0x4 ADD PUSH1 0x40 MLOAD DUP1 SWAP2 SUB SWAP1 REVERT JUMPDEST DUP2 MLOAD PUSH1 0x0 SUB PUSH3 0x42C JUMPI PUSH1 0x40 MLOAD PUSH4 0x3DE9DDF5 PUSH1 0xE1 SHL DUP2 MSTORE PUSH1 0x4 ADD PUSH1 0x40 MLOAD DUP1 SWAP2 SUB SWAP1 REVERT JUMPDEST PUSH1 0x1 JUMPDEST DUP3 MLOAD DUP2 LT ISZERO PUSH3 0x4A8 JUMPI DUP3 PUSH3 0x447 PUSH1 0x1 DUP4 PUSH3 0x85E JUMP JUMPDEST DUP2 MLOAD DUP2 LT PUSH3 0x45A JUMPI PUSH3 0x45A PUSH3 0x880 JUMP JUMPDEST PUSH1 0x20 MUL PUSH1 0x20 ADD ADD MLOAD DUP4 DUP3 DUP2 MLOAD DUP2 LT PUSH3 0x477 JUMPI PUSH3 0x477 PUSH3 0x880 JUMP JUMPDEST PUSH1 0x20 MUL PUSH1 0x20 ADD ADD MLOAD LT ISZERO PUSH3 0x49F JUMPI PUSH1 0x40 MLOAD PUSH4 0x3DE9DDF5 PUSH1 0xE1 SHL DUP2 MSTORE PUSH1 0x4 ADD PUSH1 0x40 MLOAD DUP1 SWAP2 SUB SWAP1 REVERT JUMPDEST PUSH1 0x1 ADD PUSH3 0x42F JUMP JUMPDEST POP DUP2 MLOAD PUSH3 0x4BE SWAP1 PUSH1 0x0 SWAP1 PUSH1 0x20 DUP6 ADD SWAP1 PUSH3 0x4D9 JUMP JUMPDEST POP DUP1 MLOAD PUSH3 0x4D4 SWAP1 PUSH1 0x1 SWAP1 PUSH1 0x20 DUP5 ADD SWAP1 PUSH3 0x4D9 JUMP JUMPDEST POP POP POP JUMP JUMPDEST DUP3 DUP1 SLOAD DUP3 DUP3 SSTORE SWAP1 PUSH1 0x0 MSTORE PUSH1 0x20 PUSH1 0x0 KECCAK256 SWAP1 DUP2 ADD SWAP3 DUP3 ISZERO PUSH3 0x517 JUMPI SWAP2 PUSH1 0x20 MUL DUP3 ADD JUMPDEST DUP3 DUP2 GT ISZERO PUSH3 0x517 JUMPI DUP3 MLOAD DUP3 SSTORE SWAP2 PUSH1 0x20 ADD SWAP2 SWAP1 PUSH1 0x1 ADD SWAP1 PUSH3 0x4FA JUMP JUMPDEST POP PUSH3 0x525 SWAP3 SWAP2 POP PUSH3 0x529 JUMP JUMPDEST POP SWAP1 JUMP JUMPDEST JUMPDEST DUP1 DUP3 GT ISZERO PUSH3 0x525 JUMPI PUSH1 0x0 DUP2 SSTORE PUSH1 0x1 ADD PUSH3 0x52A JUMP JUMPDEST PUSH4 0x4E487B71 PUSH1 0xE0 SHL PUSH1 0x0 MSTORE PUSH1 0x41 PUSH1 0x4 MSTORE PUSH1 0x24 PUSH1 0x0 REVERT JUMPDEST PUSH1 0x40 MLOAD PUSH1 0x1F DUP3 ADD PUSH1 0x1F NOT AND DUP2 ADD PUSH1 0x1 PUSH1 0x1 PUSH1 0x40 SHL SUB DUP2 GT DUP3 DUP3 LT OR ISZERO PUSH3 0x581 JUMPI PUSH3 0x581 PUSH3 0x540 JUMP JUMPDEST PUSH1 0x40 MSTORE SWAP2 SWAP1 POP JUMP JUMPDEST PUSH1 0x0 PUSH1 0x1 PUSH1 0x1 PUSH1 0x40 SHL SUB DUP3 GT ISZERO PUSH3 0x5A5 JUMPI PUSH3 0x5A5 PUSH3 0x540 JUMP JUMPDEST POP PUSH1 0x5 SHL PUSH1 0x20 ADD SWAP1 JUMP JUMPDEST PUSH1 0x1 PUSH1 0x1 PUSH1 0xA0 SHL SUB DUP2 AND DUP2 EQ PUSH3 0x5C5 JUMPI PUSH1 0x0 DUP1 REVERT JUMPDEST POP JUMP JUMPDEST PUSH1 0x0 DUP3 PUSH1 0x1F DUP4 ADD SLT PUSH3 0x5DA JUMPI PUSH1 0x0 DUP1 REVERT JUMPDEST DUP2 MLOAD PUSH1 0x20 PUSH3 0x5F3 PUSH3 0x5ED DUP4 PUSH3 0x589 JUMP JUMPDEST PUSH3 0x556 JUMP JUMPDEST DUP1 DUP4 DUP3 MSTORE PUSH1 0x20 DUP3 ADD SWAP2 POP PUSH1 0x20 DUP5 PUSH1 0x5 SHL DUP8 ADD ADD SWAP4 POP DUP7 DUP5 GT ISZERO PUSH3 0x616 JUMPI PUSH1 0x0 DUP1 REVERT JUMPDEST PUSH1 0x20 DUP7 ADD JUMPDEST DUP5 DUP2 LT ISZERO PUSH3 0x63F JUMPI DUP1 MLOAD PUSH3 0x631 DUP2 PUSH3 0x5AF JUMP JUMPDEST DUP4 MSTORE SWAP2 DUP4 ADD SWAP2 DUP4 ADD PUSH3 0x61B JUMP JUMPDEST POP SWAP7 SWAP6 POP POP POP POP POP POP JUMP JUMPDEST PUSH1 0x0 DUP3 PUSH1 0x1F DUP4 ADD SLT PUSH3 0x65C JUMPI PUSH1 0x0 DUP1 REVERT JUMPDEST DUP2 MLOAD PUSH1 0x20 PUSH3 0x66F PUSH3 0x5ED DUP4 PUSH3 0x589 JUMP JUMPDEST DUP1 DUP4 DUP3 MSTORE PUSH1 0x20 DUP3 ADD SWAP2 POP PUSH1 0x20 DUP5 PUSH1 0x5 SHL DUP8 ADD ADD SWAP4 POP DUP7 DUP5 GT ISZERO PUSH3 0x692 JUMPI PUSH1 0x0 DUP1 REVERT JUMPDEST PUSH1 0x20 DUP7 ADD JUMPDEST DUP5 DUP2 LT ISZERO PUSH3 0x63F JUMPI DUP1 MLOAD DUP4 MSTORE SWAP2 DUP4 ADD SWAP2 DUP4 ADD PUSH3 0x697 JUMP JUMPDEST PUSH1 0x0 DUP3 PUSH1 0x1F DUP4 ADD SLT PUSH3 0x6C2 JUMPI PUSH1 0x0 DUP1 REVERT JUMPDEST DUP2 MLOAD PUSH1 0x20 PUSH3 0x6D5 PUSH3 0x5ED DUP4 PUSH3 0x589 JUMP JUMPDEST DUP3 DUP2 MSTORE PUSH1 0x5 SWAP3 SWAP1 SWAP3 SHL DUP5 ADD DUP2 ADD SWAP2 DUP2 DUP2 ADD SWAP1 DUP7 DUP5 GT ISZERO PUSH3 0x6F5 JUMPI PUSH1 0x0 DUP1 REVERT JUMPDEST DUP3 DUP7 ADD JUMPDEST DUP5 DUP2 LT ISZERO PUSH3 0x63F JUMPI DUP1 MLOAD PUSH1 0x1 PUSH1 0x1 PUSH1 0x40 SHL SUB DUP2 GT ISZERO PUSH3 0x71A JUMPI PUSH1 0x0 DUP1 DUP2 REVERT JUMPDEST PUSH3 0x72A DUP10 DUP7 DUP4 DUP12 ADD ADD PUSH3 0x64A JUMP JUMPDEST DUP5 MSTORE POP SWAP2 DUP4 ADD SWAP2 DUP4 ADD PUSH3 0x6F9 JUMP JUMPDEST DUP1 MLOAD PUSH3 0x746 DUP2 PUSH3 0x5AF JUMP JUMPDEST SWAP2 SWAP1 POP JUMP JUMPDEST PUSH1 0x0 DUP1 PUSH1 0x0 DUP1 PUSH1 0x0 DUP1 PUSH1 0x0 DUP1 PUSH1 0x0 PUSH2 0x120 DUP11 DUP13 SUB SLT ISZERO PUSH3 0x76B JUMPI PUSH1 0x0 DUP1 REVERT JUMPDEST DUP10 MLOAD PUSH1 0x20 DUP12 ADD MLOAD PUSH1 0x40 DUP13 ADD MLOAD PUSH1 0x60 DUP14 ADD MLOAD SWAP3 SWAP12 POP SWAP1 SWAP10 POP SWAP8 POP PUSH1 0x1 PUSH1 0x1 PUSH1 0x40 SHL SUB DUP1 DUP3 GT ISZERO PUSH3 0x79A JUMPI PUSH1 0x0 DUP1 REVERT JUMPDEST PUSH3 0x7A8 DUP14 DUP4 DUP15 ADD PUSH3 0x5C8 JUMP JUMPDEST SWAP8 POP PUSH1 0x80 DUP13 ADD MLOAD SWAP2 POP DUP1 DUP3 GT ISZERO PUSH3 0x7BF JUMPI PUSH1 0x0 DUP1 REVERT JUMPDEST PUSH3 0x7CD DUP14 DUP4 DUP15 ADD PUSH3 0x6B0 JUMP JUMPDEST SWAP7 POP PUSH1 0xA0 DUP13 ADD MLOAD SWAP2 POP DUP1 DUP3 GT ISZERO PUSH3 0x7E4 JUMPI PUSH1 0x0 DUP1 REVERT JUMPDEST PUSH3 0x7F2 DUP14 DUP4 DUP15 ADD PUSH3 0x6B0 JUMP JUMPDEST SWAP6 POP PUSH1 0xC0 DUP13 ADD MLOAD SWAP2 POP DUP1 DUP3 GT ISZERO PUSH3 0x809 JUMPI PUSH1 0x0 DUP1 REVERT JUMPDEST PUSH3 0x817 DUP14 DUP4 DUP15 ADD PUSH3 0x64A JUMP JUMPDEST SWAP5 POP PUSH1 0xE0 DUP13 ADD MLOAD SWAP2 POP DUP1 DUP3 GT ISZERO PUSH3 0x82E JUMPI PUSH1 0x0 DUP1 REVERT JUMPDEST POP PUSH3 0x83D DUP13 DUP3 DUP14 ADD PUSH3 0x64A JUMP JUMPDEST SWAP3 POP POP PUSH3 0x84F PUSH2 0x100 DUP12 ADD PUSH3 0x739 JUMP JUMPDEST SWAP1 POP SWAP3 SWAP6 SWAP9 POP SWAP3 SWAP6 SWAP9 POP SWAP3 SWAP6 SWAP9 JUMP JUMPDEST DUP2 DUP2 SUB DUP2 DUP2 GT ISZERO PUSH3 0xE1 JUMPI PUSH4 0x4E487B71 PUSH1 0xE0 SHL PUSH1 0x0 MSTORE PUSH1 0x11 PUSH1 0x4 MSTORE PUSH1 0x24 PUSH1 0x0 REVERT JUMPDEST PUSH4 0x4E487B71 PUSH1 0xE0 SHL PUSH1 0x0 MSTORE PUSH1 0x32 PUSH1 0x4 MSTORE PUSH1 0x24 PUSH1 0x0 REVERT JUMPDEST PUSH1 0x80 MLOAD PUSH1 0xA0 MLOAD PUSH1 0xC0 MLOAD PUSH1 0xE0 MLOAD PUSH2 0x1232 PUSH3 0x908 PUSH1 0x0 CODECOPY PUSH1 0x0 DUP2 DUP2 PUSH2 0x153 ADD MSTORE DUP2 DUP2 PUSH2 0x3A1 ADD MSTORE DUP2 DUP2 PUSH2 0x4EE ADD MSTORE PUSH2 0x645 ADD MSTORE PUSH1 0x0 DUP2 DUP2 PUSH2 0x2BA ADD MSTORE PUSH2 0xA70 ADD MSTORE PUSH1 0x0 DUP2 DUP2 PUSH2 0x1E7 ADD MSTORE PUSH2 0xA94 ADD MSTORE PUSH1 0x0 DUP2 DUP2 PUSH2 0x19D ADD MSTORE DUP2 DUP2 PUSH2 0x22C ADD MSTORE DUP2 DUP2 PUSH2 0xC53 ADD MSTORE PUSH2 0xCDB ADD MSTORE PUSH2 0x1232 PUSH1 0x0 RETURN INVALID PUSH1 0x80 PUSH1 0x40 MSTORE CALLVALUE DUP1 ISZERO PUSH2 0x10 JUMPI PUSH1 0x0 DUP1 REVERT JUMPDEST POP PUSH1 0x4 CALLDATASIZE LT PUSH2 0x100 JUMPI PUSH1 0x0 CALLDATALOAD PUSH1 0xE0 SHR DUP1 PUSH4 0x572B6C05 GT PUSH2 0x97 JUMPI DUP1 PUSH4 0xE4860339 GT PUSH2 0x66 JUMPI DUP1 PUSH4 0xE4860339 EQ PUSH2 0x2DC JUMPI DUP1 PUSH4 0xF23A6E61 EQ PUSH2 0x2FF JUMPI DUP1 PUSH4 0xF2FDE38B EQ PUSH2 0x312 JUMPI DUP1 PUSH4 0xFA9FDC6A EQ PUSH2 0x327 JUMPI PUSH1 0x0 DUP1 REVERT JUMPDEST DUP1 PUSH4 0x572B6C05 EQ PUSH2 0x21C JUMPI DUP1 PUSH4 0x8DA5CB5B EQ PUSH2 0x269 JUMPI DUP1 PUSH4 0xBC197C81 EQ PUSH2 0x271 JUMPI DUP1 PUSH4 0xCD421FBF EQ PUSH2 0x2B5 JUMPI PUSH1 0x0 DUP1 REVERT JUMPDEST DUP1 PUSH4 0x2099920E GT PUSH2 0xD3 JUMPI DUP1 PUSH4 0x2099920E EQ PUSH2 0x188 JUMPI DUP1 PUSH4 0x2B4C9F16 EQ PUSH2 0x19B JUMPI DUP1 PUSH4 0x491BDE66 EQ PUSH2 0x1E2 JUMPI DUP1 PUSH4 0x556C448D EQ PUSH2 0x209 JUMPI PUSH1 0x0 DUP1 REVERT JUMPDEST DUP1 PUSH4 0x1FFC9A7 EQ PUSH2 0x105 JUMPI DUP1 PUSH4 0x39AF9EB EQ PUSH2 0x12D JUMPI DUP1 PUSH4 0x43063BC EQ PUSH2 0x14E JUMPI DUP1 PUSH4 0x4585AC7 EQ PUSH2 0x175 JUMPI JUMPDEST PUSH1 0x0 DUP1 REVERT JUMPDEST PUSH2 0x118 PUSH2 0x113 CALLDATASIZE PUSH1 0x4 PUSH2 0xD57 JUMP JUMPDEST PUSH2 0x352 JUMP JUMPDEST PUSH1 0x40 MLOAD SWAP1 ISZERO ISZERO DUP2 MSTORE PUSH1 0x20 ADD JUMPDEST PUSH1 0x40 MLOAD DUP1 SWAP2 SUB SWAP1 RETURN JUMPDEST PUSH2 0x140 PUSH2 0x13B CALLDATASIZE PUSH1 0x4 PUSH2 0xDA0 JUMP JUMPDEST PUSH2 0x36C JUMP JUMPDEST PUSH1 0x40 MLOAD SWAP1 DUP2 MSTORE PUSH1 0x20 ADD PUSH2 0x124 JUMP JUMPDEST PUSH2 0x140 PUSH32 0x0 DUP2 JUMP JUMPDEST PUSH2 0x140 PUSH2 0x183 CALLDATASIZE PUSH1 0x4 PUSH2 0xDA0 JUMP JUMPDEST PUSH2 0x38D JUMP JUMPDEST PUSH2 0x140 PUSH2 0x196 CALLDATASIZE PUSH1 0x4 PUSH2 0xDE2 JUMP JUMPDEST PUSH2 0x4DA JUMP JUMPDEST PUSH32 0x0 JUMPDEST PUSH1 0x40 MLOAD PUSH20 0xFFFFFFFFFFFFFFFFFFFFFFFFFFFFFFFFFFFFFFFF SWAP1 SWAP2 AND DUP2 MSTORE PUSH1 0x20 ADD PUSH2 0x124 JUMP JUMPDEST PUSH2 0x140 PUSH32 0x0 DUP2 JUMP JUMPDEST PUSH2 0x140 PUSH2 0x217 CALLDATASIZE PUSH1 0x4 PUSH2 0xDA0 JUMP JUMPDEST PUSH2 0x5B2 JUMP JUMPDEST PUSH2 0x118 PUSH2 0x22A CALLDATASIZE PUSH1 0x4 PUSH2 0xE0E JUMP JUMPDEST PUSH32 0x0 PUSH20 0xFFFFFFFFFFFFFFFFFFFFFFFFFFFFFFFFFFFFFFFF SWAP1 DUP2 AND SWAP2 AND EQ SWAP1 JUMP JUMPDEST PUSH2 0x1BD PUSH2 0x5C2 JUMP JUMPDEST PUSH2 0x284 PUSH2 0x27F CALLDATASIZE PUSH1 0x4 PUSH2 0xEB7 JUMP JUMPDEST PUSH2 0x5EE JUMP JUMPDEST PUSH1 0x40 MLOAD PUSH32 0xFFFFFFFF00000000000000000000000000000000000000000000000000000000 SWAP1 SWAP2 AND DUP2 MSTORE PUSH1 0x20 ADD PUSH2 0x124 JUMP JUMPDEST PUSH2 0x140 PUSH32 0x0 DUP2 JUMP JUMPDEST PUSH2 0x118 PUSH2 0x2EA CALLDATASIZE PUSH1 0x4 PUSH2 0xE0E JUMP JUMPDEST PUSH1 0x4 PUSH1 0x20 MSTORE PUSH1 0x0 SWAP1 DUP2 MSTORE PUSH1 0x40 SWAP1 KECCAK256 SLOAD PUSH1 0xFF AND DUP2 JUMP JUMPDEST PUSH2 0x284 PUSH2 0x30D CALLDATASIZE PUSH1 0x4 PUSH2 0xF72 JUMP JUMPDEST PUSH2 0x912 JUMP JUMPDEST PUSH2 0x325 PUSH2 0x320 CALLDATASIZE PUSH1 0x4 PUSH2 0xE0E JUMP JUMPDEST PUSH2 0x946 JUMP JUMPDEST STOP JUMPDEST PUSH2 0x140 PUSH2 0x335 CALLDATASIZE PUSH1 0x4 PUSH2 0xDE2 JUMP JUMPDEST PUSH1 0x3 PUSH1 0x20 SWAP1 DUP2 MSTORE PUSH1 0x0 SWAP3 DUP4 MSTORE PUSH1 0x40 DUP1 DUP5 KECCAK256 SWAP1 SWAP2 MSTORE SWAP1 DUP3 MSTORE SWAP1 KECCAK256 SLOAD DUP2 JUMP JUMPDEST PUSH1 0x0 PUSH2 0x366 DUP3 PUSH2 0x360 PUSH2 0x964 JUMP JUMPDEST SWAP1 PUSH2 0x992 JUMP JUMPDEST SWAP3 SWAP2 POP POP JUMP JUMPDEST PUSH1 0x0 DUP2 DUP2 SLOAD DUP2 LT PUSH2 0x37C JUMPI PUSH1 0x0 DUP1 REVERT JUMPDEST PUSH1 0x0 SWAP2 DUP3 MSTORE PUSH1 0x20 SWAP1 SWAP2 KECCAK256 ADD SLOAD SWAP1 POP DUP2 JUMP JUMPDEST PUSH1 0x0 PUSH2 0x397 PUSH2 0xA6C JUMP JUMPDEST DUP3 GT DUP1 PUSH2 0x3C3 JUMPI POP PUSH32 0x0 DUP3 GT JUMPDEST ISZERO PUSH2 0x402 JUMPI PUSH1 0x40 MLOAD PUSH32 0x764E560F00000000000000000000000000000000000000000000000000000000 DUP2 MSTORE PUSH1 0x4 DUP2 ADD DUP4 SWAP1 MSTORE PUSH1 0x24 ADD JUMPDEST PUSH1 0x40 MLOAD DUP1 SWAP2 SUB SWAP1 REVERT JUMPDEST PUSH1 0x0 DUP3 ISZERO PUSH2 0x42D JUMPI PUSH1 0x2 PUSH1 0x0 PUSH2 0x419 PUSH1 0x1 DUP7 PUSH2 0x1019 JUMP JUMPDEST DUP2 MSTORE PUSH1 0x20 ADD SWAP1 DUP2 MSTORE PUSH1 0x20 ADD PUSH1 0x0 KECCAK256 SLOAD PUSH2 0x430 JUMP JUMPDEST PUSH1 0x0 JUMPDEST SWAP1 POP PUSH1 0x1 JUMPDEST PUSH1 0x0 SLOAD DUP2 GT PUSH2 0x4A5 JUMPI PUSH1 0x0 DUP2 DUP2 SLOAD DUP2 LT PUSH2 0x451 JUMPI PUSH2 0x451 PUSH2 0x102C JUMP JUMPDEST SWAP1 PUSH1 0x0 MSTORE PUSH1 0x20 PUSH1 0x0 KECCAK256 ADD SLOAD DUP3 LT ISZERO PUSH2 0x493 JUMPI PUSH1 0x1 PUSH2 0x46F DUP2 DUP4 PUSH2 0x1019 JUMP JUMPDEST DUP2 SLOAD DUP2 LT PUSH2 0x47F JUMPI PUSH2 0x47F PUSH2 0x102C JUMP JUMPDEST SWAP1 PUSH1 0x0 MSTORE PUSH1 0x20 PUSH1 0x0 KECCAK256 ADD SLOAD SWAP3 POP POP POP SWAP2 SWAP1 POP JUMP JUMPDEST DUP1 PUSH2 0x49D DUP2 PUSH2 0x105B JUMP JUMPDEST SWAP2 POP POP PUSH2 0x435 JUMP JUMPDEST POP PUSH1 0x0 SLOAD PUSH1 0x1 SWAP1 PUSH2 0x4B7 SWAP1 DUP3 SWAP1 PUSH2 0x1019 JUMP JUMPDEST DUP2 SLOAD DUP2 LT PUSH2 0x4C7 JUMPI PUSH2 0x4C7 PUSH2 0x102C JUMP JUMPDEST SWAP1 PUSH1 0x0 MSTORE PUSH1 0x20 PUSH1 0x0 KECCAK256 ADD SLOAD SWAP2 POP POP SWAP2 SWAP1 POP JUMP JUMPDEST PUSH1 0x0 PUSH2 0x4E4 PUSH2 0xA6C JUMP JUMPDEST DUP4 GT DUP1 PUSH2 0x510 JUMPI POP PUSH32 0x0 DUP4 GT JUMPDEST ISZERO PUSH2 0x54A JUMPI PUSH1 0x40 MLOAD PUSH32 0x764E560F00000000000000000000000000000000000000000000000000000000 DUP2 MSTORE PUSH1 0x4 DUP2 ADD DUP5 SWAP1 MSTORE PUSH1 0x24 ADD PUSH2 0x3F9 JUMP JUMPDEST PUSH1 0x0 PUSH2 0x555 DUP5 PUSH2 0x38D JUMP JUMPDEST PUSH1 0x0 DUP6 DUP2 MSTORE PUSH1 0x3 PUSH1 0x20 SWAP1 DUP2 MSTORE PUSH1 0x40 DUP1 DUP4 KECCAK256 PUSH20 0xFFFFFFFFFFFFFFFFFFFFFFFFFFFFFFFFFFFFFFFF DUP9 AND DUP5 MSTORE DUP3 MSTORE DUP1 DUP4 KECCAK256 SLOAD DUP9 DUP5 MSTORE PUSH1 0x2 SWAP1 SWAP3 MSTORE SWAP1 SWAP2 KECCAK256 SLOAD SWAP2 SWAP3 POP SWAP1 PUSH2 0x59F DUP4 DUP4 PUSH2 0x1093 JUMP JUMPDEST PUSH2 0x5A9 SWAP2 SWAP1 PUSH2 0x10AA JUMP JUMPDEST SWAP6 SWAP5 POP POP POP POP POP JUMP JUMPDEST PUSH1 0x1 DUP2 DUP2 SLOAD DUP2 LT PUSH2 0x37C JUMPI PUSH1 0x0 DUP1 REVERT JUMPDEST PUSH1 0x0 PUSH2 0x5E9 PUSH2 0x5CF PUSH2 0xAC3 JUMP JUMPDEST SLOAD PUSH20 0xFFFFFFFFFFFFFFFFFFFFFFFFFFFFFFFFFFFFFFFF AND SWAP1 JUMP JUMPDEST SWAP1 POP SWAP1 JUMP JUMPDEST CALLER PUSH1 0x0 SWAP1 DUP2 MSTORE PUSH1 0x4 PUSH1 0x20 MSTORE PUSH1 0x40 DUP2 KECCAK256 SLOAD PUSH1 0xFF AND PUSH2 0x637 JUMPI PUSH1 0x40 MLOAD PUSH32 0xC1AB6DC100000000000000000000000000000000000000000000000000000000 DUP2 MSTORE PUSH1 0x4 ADD PUSH1 0x40 MLOAD DUP1 SWAP2 SUB SWAP1 REVERT JUMPDEST PUSH1 0x0 PUSH2 0x641 PUSH2 0xA6C JUMP JUMPDEST SWAP1 POP PUSH32 0x0 DUP2 GT ISZERO PUSH2 0x6A0 JUMPI PUSH1 0x40 MLOAD PUSH32 0x764E560F00000000000000000000000000000000000000000000000000000000 DUP2 MSTORE PUSH1 0x4 DUP2 ADD DUP3 SWAP1 MSTORE PUSH1 0x24 ADD PUSH2 0x3F9 JUMP JUMPDEST PUSH1 0x0 DUP1 JUMPDEST DUP9 DUP2 LT ISZERO PUSH2 0x793 JUMPI CALLER PUSH1 0x0 SWAP1 DUP2 MSTORE PUSH1 0x5 PUSH1 0x20 MSTORE PUSH1 0x40 DUP2 KECCAK256 DUP2 DUP13 DUP13 DUP6 DUP2 DUP2 LT PUSH2 0x6CE JUMPI PUSH2 0x6CE PUSH2 0x102C JUMP JUMPDEST SWAP1 POP PUSH1 0x20 MUL ADD CALLDATALOAD DUP2 MSTORE PUSH1 0x20 ADD SWAP1 DUP2 MSTORE PUSH1 0x20 ADD PUSH1 0x0 KECCAK256 SLOAD SWAP1 POP DUP1 PUSH1 0x0 SUB PUSH2 0x75A JUMPI CALLER DUP12 DUP12 DUP5 DUP2 DUP2 LT PUSH2 0x701 JUMPI PUSH2 0x701 PUSH2 0x102C JUMP JUMPDEST PUSH1 0x40 MLOAD PUSH32 0x1912EA5100000000000000000000000000000000000000000000000000000000 DUP2 MSTORE PUSH20 0xFFFFFFFFFFFFFFFFFFFFFFFFFFFFFFFFFFFFFFFF SWAP1 SWAP5 AND PUSH1 0x4 DUP6 ADD MSTORE PUSH1 0x20 MUL SWAP2 SWAP1 SWAP2 ADD CALLDATALOAD PUSH1 0x24 DUP4 ADD MSTORE POP PUSH1 0x44 ADD PUSH2 0x3F9 JUMP JUMPDEST DUP1 DUP10 DUP10 DUP5 DUP2 DUP2 LT PUSH2 0x76D JUMPI PUSH2 0x76D PUSH2 0x102C JUMP JUMPDEST SWAP1 POP PUSH1 0x20 MUL ADD CALLDATALOAD PUSH2 0x77E SWAP2 SWAP1 PUSH2 0x1093 JUMP JUMPDEST PUSH2 0x788 SWAP1 DUP5 PUSH2 0x10E5 JUMP JUMPDEST SWAP3 POP POP PUSH1 0x1 ADD PUSH2 0x6A4 JUMP JUMPDEST POP PUSH1 0x0 DUP3 DUP2 MSTORE PUSH1 0x3 PUSH1 0x20 SWAP1 DUP2 MSTORE PUSH1 0x40 DUP1 DUP4 KECCAK256 PUSH20 0xFFFFFFFFFFFFFFFFFFFFFFFFFFFFFFFFFFFFFFFF DUP15 AND DUP5 MSTORE SWAP1 SWAP2 MSTORE DUP2 KECCAK256 DUP1 SLOAD DUP4 SWAP3 SWAP1 PUSH2 0x7D3 SWAP1 DUP5 SWAP1 PUSH2 0x10E5 JUMP JUMPDEST SWAP1 SWAP2 SSTORE POP POP PUSH1 0x0 DUP3 DUP2 MSTORE PUSH1 0x2 PUSH1 0x20 MSTORE PUSH1 0x40 DUP2 KECCAK256 DUP1 SLOAD DUP4 SWAP3 SWAP1 PUSH2 0x7F6 SWAP1 DUP5 SWAP1 PUSH2 0x10E5 JUMP JUMPDEST SWAP1 SWAP2 SSTORE POP POP PUSH1 0x40 MLOAD PUSH32 0x8053493400000000000000000000000000000000000000000000000000000000 DUP2 MSTORE CALLER SWAP1 PUSH4 0x80534934 SWAP1 PUSH2 0x83F SWAP1 DUP14 SWAP1 DUP14 SWAP1 DUP14 SWAP1 DUP14 SWAP1 DUP14 SWAP1 PUSH1 0x4 ADD PUSH2 0x1143 JUMP JUMPDEST PUSH1 0x0 PUSH1 0x40 MLOAD DUP1 DUP4 SUB DUP2 PUSH1 0x0 DUP8 DUP1 EXTCODESIZE ISZERO DUP1 ISZERO PUSH2 0x859 JUMPI PUSH1 0x0 DUP1 REVERT JUMPDEST POP GAS CALL ISZERO DUP1 ISZERO PUSH2 0x86D JUMPI RETURNDATASIZE PUSH1 0x0 DUP1 RETURNDATACOPY RETURNDATASIZE PUSH1 0x0 REVERT JUMPDEST POP POP POP POP CALLER PUSH20 0xFFFFFFFFFFFFFFFFFFFFFFFFFFFFFFFFFFFFFFFF AND DUP11 PUSH20 0xFFFFFFFFFFFFFFFFFFFFFFFFFFFFFFFFFFFFFFFF AND PUSH32 0xDBBE1CDF876FA73EE022A259CAC764DB805DCC10F143A583201B8C5E97C2573D DUP5 TIMESTAMP DUP14 DUP14 DUP14 DUP14 DUP10 PUSH1 0x40 MLOAD PUSH2 0x8DA SWAP8 SWAP7 SWAP6 SWAP5 SWAP4 SWAP3 SWAP2 SWAP1 PUSH2 0x1192 JUMP JUMPDEST PUSH1 0x40 MLOAD DUP1 SWAP2 SUB SWAP1 LOG3 POP PUSH32 0xBC197C8100000000000000000000000000000000000000000000000000000000 SWAP11 SWAP10 POP POP POP POP POP POP POP POP POP POP JUMP JUMPDEST PUSH1 0x0 PUSH1 0x40 MLOAD PUSH32 0xD623472500000000000000000000000000000000000000000000000000000000 DUP2 MSTORE PUSH1 0x4 ADD PUSH1 0x40 MLOAD DUP1 SWAP2 SUB SWAP1 REVERT JUMPDEST PUSH2 0x961 PUSH2 0x951 PUSH2 0xAF1 JUMP JUMPDEST DUP3 PUSH2 0x95A PUSH2 0xAC3 JUMP JUMPDEST SWAP2 SWAP1 PUSH2 0xAFB JUMP JUMPDEST POP JUMP JUMPDEST PUSH1 0x0 DUP1 PUSH2 0x366 PUSH1 0x1 PUSH32 0xCA9D3E17F264B0F3984E2634E94ADB37FA3E6A8103F06AEAE6FA59E21C769F5E PUSH2 0x1019 JUMP JUMPDEST PUSH1 0x0 PUSH29 0x100000000000000000000000000000000000000000000000000000000 PUSH32 0xFFFFFFFF00000000000000000000000000000000000000000000000000000000 DUP4 AND ADD PUSH2 0x9E2 JUMPI POP PUSH1 0x0 PUSH2 0x366 JUMP JUMPDEST PUSH32 0xFE00365900000000000000000000000000000000000000000000000000000000 PUSH32 0xFFFFFFFF00000000000000000000000000000000000000000000000000000000 DUP4 AND ADD PUSH2 0xA33 JUMPI POP PUSH1 0x1 PUSH2 0x366 JUMP JUMPDEST POP PUSH32 0xFFFFFFFF00000000000000000000000000000000000000000000000000000000 AND PUSH1 0x0 SWAP1 DUP2 MSTORE PUSH1 0x20 SWAP2 SWAP1 SWAP2 MSTORE PUSH1 0x40 SWAP1 KECCAK256 SLOAD PUSH1 0xFF AND SWAP1 JUMP JUMPDEST PUSH1 0x0 PUSH32 0x0 PUSH2 0xAB9 PUSH32 0x0 TIMESTAMP PUSH2 0x1019 JUMP JUMPDEST PUSH2 0x5E9 SWAP2 SWAP1 PUSH2 0x10AA JUMP JUMPDEST PUSH1 0x0 DUP1 PUSH2 0x366 PUSH1 0x1 PUSH32 0xC9ED16F33AB3A66C84BFD83099CCB2A8845871E2E1C1928F63797152F0FD54CD PUSH2 0x1019 JUMP JUMPDEST PUSH1 0x0 PUSH2 0x5E9 PUSH2 0xC10 JUMP JUMPDEST DUP3 SLOAD PUSH20 0xFFFFFFFFFFFFFFFFFFFFFFFFFFFFFFFFFFFFFFFF SWAP1 DUP2 AND SWAP1 DUP4 AND DUP2 EQ PUSH2 0xB68 JUMPI PUSH1 0x40 MLOAD PUSH32 0x2EF4875E00000000000000000000000000000000000000000000000000000000 DUP2 MSTORE PUSH20 0xFFFFFFFFFFFFFFFFFFFFFFFFFFFFFFFFFFFFFFFF DUP5 AND PUSH1 0x4 DUP3 ADD MSTORE PUSH1 0x24 ADD PUSH2 0x3F9 JUMP JUMPDEST DUP2 PUSH20 0xFFFFFFFFFFFFFFFFFFFFFFFFFFFFFFFFFFFFFFFF AND DUP2 PUSH20 0xFFFFFFFFFFFFFFFFFFFFFFFFFFFFFFFFFFFFFFFF AND EQ PUSH2 0xC0A JUMPI DUP4 SLOAD PUSH32 0xFFFFFFFFFFFFFFFFFFFFFFFF0000000000000000000000000000000000000000 AND PUSH20 0xFFFFFFFFFFFFFFFFFFFFFFFFFFFFFFFFFFFFFFFF DUP4 DUP2 AND SWAP2 DUP3 OR DUP7 SSTORE PUSH1 0x40 MLOAD SWAP1 DUP4 AND SWAP1 PUSH32 0x8BE0079C531659141344CD1FD0A4F28419497F9722A3DAAFE3B4186F6B6457E0 SWAP1 PUSH1 0x0 SWAP1 LOG3 JUMPDEST POP POP POP POP JUMP JUMPDEST PUSH1 0x0 CALLER ORIGIN EQ DUP1 PUSH2 0xC20 JUMPI POP PUSH1 0x18 CALLDATASIZE LT JUMPDEST ISZERO PUSH2 0xC2A JUMPI POP CALLER SWAP1 JUMP JUMPDEST PUSH32 0xFFFFFFFFFFFFFFFFFFFFFFFFFFFFFFFFFFFFFFFFFFFFFFFFFFFFFFFFFFFFFFEC CALLDATASIZE ADD CALLDATALOAD PUSH1 0x60 SHR PUSH32 0x0 PUSH20 0xFFFFFFFFFFFFFFFFFFFFFFFFFFFFFFFFFFFFFFFF AND CALLER EQ DUP1 PUSH2 0xD46 JUMPI POP PUSH1 0x40 MLOAD PUSH32 0x8929A8CA00000000000000000000000000000000000000000000000000000000 DUP2 MSTORE PUSH20 0xFFFFFFFFFFFFFFFFFFFFFFFFFFFFFFFFFFFFFFFF DUP3 DUP2 AND PUSH1 0x4 DUP4 ADD MSTORE CALLER PUSH1 0x24 DUP4 ADD MSTORE PUSH32 0x0 AND SWAP1 PUSH4 0x8929A8CA SWAP1 PUSH1 0x44 ADD PUSH1 0x20 PUSH1 0x40 MLOAD DUP1 DUP4 SUB DUP2 DUP7 GAS STATICCALL ISZERO DUP1 ISZERO PUSH2 0xD22 JUMPI RETURNDATASIZE PUSH1 0x0 DUP1 RETURNDATACOPY RETURNDATASIZE PUSH1 0x0 REVERT JUMPDEST POP POP POP POP PUSH1 0x40 MLOAD RETURNDATASIZE PUSH1 0x1F NOT PUSH1 0x1F DUP3 ADD AND DUP3 ADD DUP1 PUSH1 0x40 MSTORE POP DUP2 ADD SWAP1 PUSH2 0xD46 SWAP2 SWAP1 PUSH2 0x11DA JUMP JUMPDEST ISZERO PUSH2 0xD50 JUMPI SWAP2 SWAP1 POP JUMP JUMPDEST CALLER SWAP2 POP POP SWAP1 JUMP JUMPDEST PUSH1 0x0 PUSH1 0x20 DUP3 DUP5 SUB SLT ISZERO PUSH2 0xD69 JUMPI PUSH1 0x0 DUP1 REVERT JUMPDEST DUP2 CALLDATALOAD PUSH32 0xFFFFFFFF00000000000000000000000000000000000000000000000000000000 DUP2 AND DUP2 EQ PUSH2 0xD99 JUMPI PUSH1 0x0 DUP1 REVERT JUMPDEST SWAP4 SWAP3 POP POP POP JUMP JUMPDEST PUSH1 0x0 PUSH1 0x20 DUP3 DUP5 SUB SLT ISZERO PUSH2 0xDB2 JUMPI PUSH1 0x0 DUP1 REVERT JUMPDEST POP CALLDATALOAD SWAP2 SWAP1 POP JUMP JUMPDEST DUP1 CALLDATALOAD PUSH20 0xFFFFFFFFFFFFFFFFFFFFFFFFFFFFFFFFFFFFFFFF DUP2 AND DUP2 EQ PUSH2 0xDDD JUMPI PUSH1 0x0 DUP1 REVERT JUMPDEST SWAP2 SWAP1 POP JUMP JUMPDEST PUSH1 0x0 DUP1 PUSH1 0x40 DUP4 DUP6 SUB SLT ISZERO PUSH2 0xDF5 JUMPI PUSH1 0x0 DUP1 REVERT JUMPDEST DUP3 CALLDATALOAD SWAP2 POP PUSH2 0xE05 PUSH1 0x20 DUP5 ADD PUSH2 0xDB9 JUMP JUMPDEST SWAP1 POP SWAP3 POP SWAP3 SWAP1 POP JUMP JUMPDEST PUSH1 0x0 PUSH1 0x20 DUP3 DUP5 SUB SLT ISZERO PUSH2 0xE20 JUMPI PUSH1 0x0 DUP1 REVERT JUMPDEST PUSH2 0xD99 DUP3 PUSH2 0xDB9 JUMP JUMPDEST PUSH1 0x0 DUP1 DUP4 PUSH1 0x1F DUP5 ADD SLT PUSH2 0xE3B JUMPI PUSH1 0x0 DUP1 REVERT JUMPDEST POP DUP2 CALLDATALOAD PUSH8 0xFFFFFFFFFFFFFFFF DUP2 GT ISZERO PUSH2 0xE53 JUMPI PUSH1 0x0 DUP1 REVERT JUMPDEST PUSH1 0x20 DUP4 ADD SWAP2 POP DUP4 PUSH1 0x20 DUP3 PUSH1 0x5 SHL DUP6 ADD ADD GT ISZERO PUSH2 0xE6E JUMPI PUSH1 0x0 DUP1 REVERT JUMPDEST SWAP3 POP SWAP3 SWAP1 POP JUMP JUMPDEST PUSH1 0x0 DUP1 DUP4 PUSH1 0x1F DUP5 ADD SLT PUSH2 0xE87 JUMPI PUSH1 0x0 DUP1 REVERT JUMPDEST POP DUP2 CALLDATALOAD PUSH8 0xFFFFFFFFFFFFFFFF DUP2 GT ISZERO PUSH2 0xE9F JUMPI PUSH1 0x0 DUP1 REVERT JUMPDEST PUSH1 0x20 DUP4 ADD SWAP2 POP DUP4 PUSH1 0x20 DUP3 DUP6 ADD ADD GT ISZERO PUSH2 0xE6E JUMPI PUSH1 0x0 DUP1 REVERT JUMPDEST PUSH1 0x0 DUP1 PUSH1 0x0 DUP1 PUSH1 0x0 DUP1 PUSH1 0x0 DUP1 PUSH1 0xA0 DUP10 DUP12 SUB SLT ISZERO PUSH2 0xED3 JUMPI PUSH1 0x0 DUP1 REVERT JUMPDEST PUSH2 0xEDC DUP10 PUSH2 0xDB9 JUMP JUMPDEST SWAP8 POP PUSH2 0xEEA PUSH1 0x20 DUP11 ADD PUSH2 0xDB9 JUMP JUMPDEST SWAP7 POP PUSH1 0x40 DUP10 ADD CALLDATALOAD PUSH8 0xFFFFFFFFFFFFFFFF DUP1 DUP3 GT ISZERO PUSH2 0xF07 JUMPI PUSH1 0x0 DUP1 REVERT JUMPDEST PUSH2 0xF13 DUP13 DUP4 DUP14 ADD PUSH2 0xE29 JUMP JUMPDEST SWAP1 SWAP9 POP SWAP7 POP PUSH1 0x60 DUP12 ADD CALLDATALOAD SWAP2 POP DUP1 DUP3 GT ISZERO PUSH2 0xF2C JUMPI PUSH1 0x0 DUP1 REVERT JUMPDEST PUSH2 0xF38 DUP13 DUP4 DUP14 ADD PUSH2 0xE29 JUMP JUMPDEST SWAP1 SWAP7 POP SWAP5 POP PUSH1 0x80 DUP12 ADD CALLDATALOAD SWAP2 POP DUP1 DUP3 GT ISZERO PUSH2 0xF51 JUMPI PUSH1 0x0 DUP1 REVERT JUMPDEST POP PUSH2 0xF5E DUP12 DUP3 DUP13 ADD PUSH2 0xE75 JUMP JUMPDEST SWAP10 SWAP13 SWAP9 SWAP12 POP SWAP7 SWAP10 POP SWAP5 SWAP8 SWAP4 SWAP7 SWAP3 SWAP6 SWAP5 POP POP POP JUMP JUMPDEST PUSH1 0x0 DUP1 PUSH1 0x0 DUP1 PUSH1 0x0 DUP1 PUSH1 0xA0 DUP8 DUP10 SUB SLT ISZERO PUSH2 0xF8B JUMPI PUSH1 0x0 DUP1 REVERT JUMPDEST PUSH2 0xF94 DUP8 PUSH2 0xDB9 JUMP JUMPDEST SWAP6 POP PUSH2 0xFA2 PUSH1 0x20 DUP9 ADD PUSH2 0xDB9 JUMP JUMPDEST SWAP5 POP PUSH1 0x40 DUP8 ADD CALLDATALOAD SWAP4 POP PUSH1 0x60 DUP8 ADD CALLDATALOAD SWAP3 POP PUSH1 0x80 DUP8 ADD CALLDATALOAD PUSH8 0xFFFFFFFFFFFFFFFF DUP2 GT ISZERO PUSH2 0xFCC JUMPI PUSH1 0x0 DUP1 REVERT JUMPDEST PUSH2 0xFD8 DUP10 DUP3 DUP11 ADD PUSH2 0xE75 JUMP JUMPDEST SWAP8 SWAP11 SWAP7 SWAP10 POP SWAP5 SWAP8 POP SWAP3 SWAP6 SWAP4 SWAP5 SWAP3 POP POP POP JUMP JUMPDEST PUSH32 0x4E487B7100000000000000000000000000000000000000000000000000000000 PUSH1 0x0 MSTORE PUSH1 0x11 PUSH1 0x4 MSTORE PUSH1 0x24 PUSH1 0x0 REVERT JUMPDEST DUP2 DUP2 SUB DUP2 DUP2 GT ISZERO PUSH2 0x366 JUMPI PUSH2 0x366 PUSH2 0xFEA JUMP JUMPDEST PUSH32 0x4E487B7100000000000000000000000000000000000000000000000000000000 PUSH1 0x0 MSTORE PUSH1 0x32 PUSH1 0x4 MSTORE PUSH1 0x24 PUSH1 0x0 REVERT JUMPDEST PUSH1 0x0 PUSH32 0xFFFFFFFFFFFFFFFFFFFFFFFFFFFFFFFFFFFFFFFFFFFFFFFFFFFFFFFFFFFFFFFF DUP3 SUB PUSH2 0x108C JUMPI PUSH2 0x108C PUSH2 0xFEA JUMP JUMPDEST POP PUSH1 0x1 ADD SWAP1 JUMP JUMPDEST DUP1 DUP3 MUL DUP2 ISZERO DUP3 DUP3 DIV DUP5 EQ OR PUSH2 0x366 JUMPI PUSH2 0x366 PUSH2 0xFEA JUMP JUMPDEST PUSH1 0x0 DUP3 PUSH2 0x10E0 JUMPI PUSH32 0x4E487B7100000000000000000000000000000000000000000000000000000000 PUSH1 0x0 MSTORE PUSH1 0x12 PUSH1 0x4 MSTORE PUSH1 0x24 PUSH1 0x0 REVERT JUMPDEST POP DIV SWAP1 JUMP JUMPDEST DUP1 DUP3 ADD DUP1 DUP3 GT ISZERO PUSH2 0x366 JUMPI PUSH2 0x366 PUSH2 0xFEA JUMP JUMPDEST DUP2 DUP4 MSTORE PUSH1 0x0 PUSH32 0x7FFFFFFFFFFFFFFFFFFFFFFFFFFFFFFFFFFFFFFFFFFFFFFFFFFFFFFFFFFFFFF DUP4 GT ISZERO PUSH2 0x112A JUMPI PUSH1 0x0 DUP1 REVERT JUMPDEST DUP3 PUSH1 0x5 SHL DUP1 DUP4 PUSH1 0x20 DUP8 ADD CALLDATACOPY SWAP4 SWAP1 SWAP4 ADD PUSH1 0x20 ADD SWAP4 SWAP3 POP POP POP JUMP JUMPDEST PUSH20 0xFFFFFFFFFFFFFFFFFFFFFFFFFFFFFFFFFFFFFFFF DUP7 AND DUP2 MSTORE PUSH1 0x60 PUSH1 0x20 DUP3 ADD MSTORE PUSH1 0x0 PUSH2 0x1173 PUSH1 0x60 DUP4 ADD DUP7 DUP9 PUSH2 0x10F8 JUMP JUMPDEST DUP3 DUP2 SUB PUSH1 0x40 DUP5 ADD MSTORE PUSH2 0x1186 DUP2 DUP6 DUP8 PUSH2 0x10F8 JUMP JUMPDEST SWAP9 SWAP8 POP POP POP POP POP POP POP POP JUMP JUMPDEST DUP8 DUP2 MSTORE DUP7 PUSH1 0x20 DUP3 ADD MSTORE PUSH1 0xA0 PUSH1 0x40 DUP3 ADD MSTORE PUSH1 0x0 PUSH2 0x11B2 PUSH1 0xA0 DUP4 ADD DUP8 DUP10 PUSH2 0x10F8 JUMP JUMPDEST DUP3 DUP2 SUB PUSH1 0x60 DUP5 ADD MSTORE PUSH2 0x11C5 DUP2 DUP7 DUP9 PUSH2 0x10F8 JUMP JUMPDEST SWAP2 POP POP DUP3 PUSH1 0x80 DUP4 ADD MSTORE SWAP9 SWAP8 POP POP POP POP POP POP POP POP JUMP JUMPDEST PUSH1 0x0 PUSH1 0x20 DUP3 DUP5 SUB SLT ISZERO PUSH2 0x11EC JUMPI PUSH1 0x0 DUP1 REVERT JUMPDEST DUP2 MLOAD DUP1 ISZERO ISZERO DUP2 EQ PUSH2 0xD99 JUMPI PUSH1 0x0 DUP1 REVERT INVALID LOG2 PUSH5 0x6970667358 0x22 SLT KECCAK256 PUSH22 0xED54939FBFFADC480C130304C2304188BF0782EDD7C7 SMOD PUSH13 0x5FF31F3ECC445F64736F6C6343 STOP ADDMOD AND STOP CALLER "},"gasEstimates":{"creation":{"codeDepositCost":"931600","executionCost":"infinite","totalCost":"infinite"},"external":{"CYCLE_DURATION()":"infinite","INITIAL_TIME()":"infinite","MAX_CYCLE()":"infinite","forwarderRegistry()":"infinite","getCycleReward(uint256)":"infinite","getUserReward(uint256,address)":"infinite","isTrustedForwarder(address)":"infinite","onERC1155BatchReceived(address,address,uint256[],uint256[],bytes)":"infinite","onERC1155Received(address,address,uint256,uint256,bytes)":"infinite","owner()":"infinite","supportsInterface(bytes4)":"infinite","tierRewards(uint256)":"4664","tiers(uint256)":"4621","tokens(address)":"2530","transferOwnership(address)":"infinite","userAshByCycle(uint256,address)":"2693"},"internal":{"_currentCycle()":"infinite","_msgData()":"infinite","_msgSender()":"infinite","_setApprovedTokens(contract IERC1155Burnable[] memory,uint256[] memory[] memory,uint256[] memory[] memory)":"infinite","_setTiers(uint256[] memory,uint256[] memory)":"infinite"}},"methodIdentifiers":{"CYCLE_DURATION()":"cd421fbf","INITIAL_TIME()":"491bde66","MAX_CYCLE()":"043063bc","forwarderRegistry()":"2b4c9f16","getCycleReward(uint256)":"04585ac7","getUserReward(uint256,address)":"2099920e","isTrustedForwarder(address)":"572b6c05","onERC1155BatchReceived(address,address,uint256[],uint256[],bytes)":"bc197c81","onERC1155Received(address,address,uint256,uint256,bytes)":"f23a6e61","owner()":"8da5cb5b","supportsInterface(bytes4)":"01ffc9a7","tierRewards(uint256)":"556c448d","tiers(uint256)":"039af9eb","tokens(address)":"e4860339","transferOwnership(address)":"f2fde38b","userAshByCycle(uint256,address)":"fa9fdc6a"}},"storageLayout":{"storage":[{"astId":1970,"contract":"contracts/burn/AnichessOrbsBurnPoolOnchainClaim.sol:AnichessOrbsBurnPool","label":"tiers","offset":0,"slot":"0","type":"t_array(t_uint256)dyn_storage"},{"astId":1973,"contract":"contracts/burn/AnichessOrbsBurnPoolOnchainClaim.sol:AnichessOrbsBurnPool","label":"tierRewards","offset":0,"slot":"1","type":"t_array(t_uint256)dyn_storage"},{"astId":1977,"contract":"contracts/burn/AnichessOrbsBurnPoolOnchainClaim.sol:AnichessOrbsBurnPool","label":"totalAshByCycle","offset":0,"slot":"2","type":"t_mapping(t_uint256,t_uint256)"},{"astId":1983,"contract":"contracts/burn/AnichessOrbsBurnPoolOnchainClaim.sol:AnichessOrbsBurnPool","label":"userAshByCycle","offset":0,"slot":"3","type":"t_mapping(t_uint256,t_mapping(t_address,t_uint256))"},{"astId":1988,"contract":"contracts/burn/AnichessOrbsBurnPoolOnchainClaim.sol:AnichessOrbsBurnPool","label":"tokens","offset":0,"slot":"4","type":"t_mapping(t_address,t_bool)"},{"astId":1995,"contract":"contracts/burn/AnichessOrbsBurnPoolOnchainClaim.sol:AnichessOrbsBurnPool","label":"tokenWeights","offset":0,"slot":"5","type":"t_mapping(t_address,t_mapping(t_uint256,t_uint256))"}],"types":{"t_address":{"encoding":"inplace","label":"address","numberOfBytes":"20"},"t_array(t_uint256)dyn_storage":{"base":"t_uint256","encoding":"dynamic_array","label":"uint256[]","numberOfBytes":"32"},"t_bool":{"encoding":"inplace","label":"bool","numberOfBytes":"1"},"t_mapping(t_address,t_bool)":{"encoding":"mapping","key":"t_address","label":"mapping(address => bool)","numberOfBytes":"32","value":"t_bool"},"t_mapping(t_address,t_mapping(t_uint256,t_uint256))":{"encoding":"mapping","key":"t_address","label":"mapping(address => mapping(uint256 => uint256))","numberOfBytes":"32","value":"t_mapping(t_uint256,t_uint256)"},"t_mapping(t_address,t_uint256)":{"encoding":"mapping","key":"t_address","label":"mapping(address => uint256)","numberOfBytes":"32","value":"t_uint256"},"t_mapping(t_uint256,t_mapping(t_address,t_uint256))":{"encoding":"mapping","key":"t_uint256","label":"mapping(uint256 => mapping(address => uint256))","numberOfBytes":"32","value":"t_mapping(t_address,t_uint256)"},"t_mapping(t_uint256,t_uint256)":{"encoding":"mapping","key":"t_uint256","label":"mapping(uint256 => uint256)","numberOfBytes":"32","value":"t_uint256"},"t_uint256":{"encoding":"inplace","label":"uint256","numberOfBytes":"32"}}},"userdoc":{"errors":{"IllegalInterfaceId()":[{"notice":"Thrown when setting the illegal interfaceId 0xffffffff."}],"InconsistentArrays()":[{"notice":"Error thrown when the array lengths are inconsistent."}],"IncorrectTiers()":[{"notice":"Error thrown when the tiers are incorrect."}],"InvalidCycle(uint256)":[{"notice":"Error thrown when the cycle is invalid."}],"InvalidToken()":[{"notice":"Error thrown when the token is not approved."}],"InvalidTokenId(address,uint256)":[{"notice":"Error thrown when the token ID is invalid."}],"NotContractOwner(address)":[{"notice":"Thrown when an account is not the contract owner but is required to."}],"NotImplemented()":[{"notice":"Error throw when the function is not implemented."}]},"events":{"OwnershipTransferred(address,address)":{"notice":"Emitted when the contract ownership changes."},"TokensBurnt(address,address,uint256,uint256,uint256[],uint256[],uint256)":{"notice":"Event emitted when tokens are burnt."}},"kind":"user","methods":{"constructor":{"notice":"Constructor for the ERC1155TokenBurn contract."},"isTrustedForwarder(address)":{"notice":"Checks whether a forwarder is trusted."},"owner()":{"notice":"Gets the address of the contract owner."},"supportsInterface(bytes4)":{"notice":"Returns whether this contract implements a given interface."},"tokens(address)":{"notice":"The IERC1155Burnable erc1155 contracts."},"transferOwnership(address)":{"notice":"Sets the address of the new contract owner."}},"version":1}}}}