{"contracts/burn/AnichessOrbsBurnPoolSimpleMultiple.sol":{"ERC1155TokenBurn":{"abi":[{"inputs":[{"internalType":"contract IERC1155Burnable[]","name":"tokens","type":"address[]"},{"internalType":"contract IForwarderRegistry","name":"forwarderRegistry","type":"address"}],"stateMutability":"nonpayable","type":"constructor"},{"inputs":[{"internalType":"bytes32","name":"epochId","type":"bytes32"}],"name":"EpochIdNotExists","type":"error"},{"inputs":[],"name":"IllegalInterfaceId","type":"error"},{"inputs":[],"name":"InconsistentArrays","type":"error"},{"inputs":[{"internalType":"address","name":"account","type":"address"}],"name":"NotContractOwner","type":"error"},{"inputs":[],"name":"TokenNotApproved","type":"error"},{"inputs":[],"name":"WalletNotApproved","type":"error"},{"anonymous":false,"inputs":[{"indexed":true,"internalType":"address","name":"previousOwner","type":"address"},{"indexed":true,"internalType":"address","name":"newOwner","type":"address"}],"name":"OwnershipTransferred","type":"event"},{"anonymous":false,"inputs":[{"indexed":true,"internalType":"address","name":"burner","type":"address"},{"indexed":true,"internalType":"uint256","name":"timestamp","type":"uint256"},{"indexed":true,"internalType":"address","name":"token","type":"address"},{"indexed":false,"internalType":"uint256[]","name":"ids","type":"uint256[]"},{"indexed":false,"internalType":"uint256[]","name":"values","type":"uint256[]"}],"name":"TokensBurnt","type":"event"},{"inputs":[{"internalType":"address[]","name":"tokens","type":"address[]"},{"internalType":"uint256[][]","name":"ids","type":"uint256[][]"},{"internalType":"uint256[][]","name":"values","type":"uint256[][]"}],"name":"burn","outputs":[],"stateMutability":"nonpayable","type":"function"},{"inputs":[{"internalType":"address[]","name":"from","type":"address[]"},{"internalType":"address[]","name":"tokens","type":"address[]"},{"internalType":"uint256[][]","name":"ids","type":"uint256[][]"},{"internalType":"uint256[][]","name":"values","type":"uint256[][]"}],"name":"burnFor","outputs":[],"stateMutability":"nonpayable","type":"function"},{"inputs":[],"name":"forwarderRegistry","outputs":[{"internalType":"contract IForwarderRegistry","name":"","type":"address"}],"stateMutability":"view","type":"function"},{"inputs":[{"internalType":"address","name":"","type":"address"}],"name":"isApprovedTokens","outputs":[{"internalType":"bool","name":"","type":"bool"}],"stateMutability":"view","type":"function"},{"inputs":[{"internalType":"address","name":"forwarder","type":"address"}],"name":"isTrustedForwarder","outputs":[{"internalType":"bool","name":"","type":"bool"}],"stateMutability":"view","type":"function"},{"inputs":[],"name":"owner","outputs":[{"internalType":"address","name":"","type":"address"}],"stateMutability":"view","type":"function"},{"inputs":[{"internalType":"contract IERC1155Burnable[]","name":"tokens","type":"address[]"},{"internalType":"bool[]","name":"enabled","type":"bool[]"}],"name":"setApprovedTokens","outputs":[],"stateMutability":"nonpayable","type":"function"},{"inputs":[{"internalType":"bytes4","name":"interfaceId","type":"bytes4"}],"name":"supportsInterface","outputs":[{"internalType":"bool","name":"","type":"bool"}],"stateMutability":"view","type":"function"},{"inputs":[{"internalType":"address","name":"newOwner","type":"address"}],"name":"transferOwnership","outputs":[],"stateMutability":"nonpayable","type":"function"}],"devdoc":{"details":"This contract allows users to claim rewards based on a Merkle proof, which verifies that they areentitled to the rewards without revealing the entire list of recipients.","errors":{"NotContractOwner(address)":[{"params":{"account":"The account that was checked."}}]},"events":{"OwnershipTransferred(address,address)":{"params":{"newOwner":"the new contract owner.","previousOwner":"the previous contract owner."}}},"kind":"dev","methods":{"burn(address[],uint256[][],uint256[][])":{"params":{"ids":"The token ids to burn.","values":"The amount of tokens to burn."}},"burnFor(address[],address[],uint256[][],uint256[][])":{"params":{"from":"The wallet to burn the tokens from.","ids":"The token ids to burn.","values":"The amount of tokens to burn."}},"constructor":{"params":{"forwarderRegistry":"The forwarder registry contract.","tokens":"The IERC1155Burnable erc1155 contract."}},"isTrustedForwarder(address)":{"params":{"forwarder":"The forwarder to check."},"returns":{"_0":"True if `forwarder` is trusted, false if not."}},"owner()":{"returns":{"_0":"The address of the contract owner."}},"supportsInterface(bytes4)":{"details":"Note: This function call must use less than 30 000 gas.","params":{"interfaceId":"the interface identifier to test."},"returns":{"_0":"True if the interface is supported, false if `interfaceId` is `0xffffffff` or if the interface is not supported."}},"transferOwnership(address)":{"details":"Reverts if the sender is not the contract owner.Emits an {OwnershipTransferred} event if `newOwner` is different from the current contract owner.","params":{"newOwner":"The address of the new contract owner. Using the zero address means renouncing ownership."}}},"title":"Anichess ERC1155 Merkle Claim Contract","version":1},"evm":{"bytecode":{"linkReferences":{},"object":"60a06040523480156200001157600080fd5b506040516200178838038062001788833981016040819052620000349162000236565b6001600160a01b03811660805233620000588162000051620000c5565b90620000fb565b5060005b8251811015620000bc576001600460008584815181106200008157620000816200031c565b6020908102919091018101516001600160a01b03168252810191909152604001600020805460ff19169115159190911790556001016200005c565b50505062000354565b600080620000f560017fc9ed16f33ab3a66c84bfd83099ccb2a8845871e2e1c1928f63797152f0fd54cd62000332565b92915050565b6001600160a01b03811615620001525781546001600160a01b0319166001600160a01b03821690811783556040516000907f8be0079c531659141344cd1fd0a4f28419497f9722a3daafe3b4186f6b6457e0908290a35b620001726307f5828d60e41b60016200016a62000176565b9190620001a6565b5050565b600080620000f560017fca9d3e17f264b0f3984e2634e94adb37fa3e6a8103f06aeae6fa59e21c769f5e62000332565b600160e01b6001600160e01b0319831601620001d5576040516372c683bb60e01b815260040160405180910390fd5b6001600160e01b03199190911660009081526020929092526040909120805460ff1916911515919091179055565b634e487b7160e01b600052604160045260246000fd5b80516001600160a01b03811681146200023157600080fd5b919050565b600080604083850312156200024a57600080fd5b82516001600160401b03808211156200026257600080fd5b818501915085601f8301126200027757600080fd5b81516020828211156200028e576200028e62000203565b8160051b604051601f19603f83011681018181108682111715620002b657620002b662000203565b604052928352818301935084810182019289841115620002d557600080fd5b948201945b83861015620002fe57620002ee8662000219565b85529482019493820193620002da565b96506200030f905087820162000219565b9450505050509250929050565b634e487b7160e01b600052603260045260246000fd5b81810381811115620000f557634e487b7160e01b600052601160045260246000fd5b608051611403620003856000396000818161010a0152818161015f01528181610e460152610ece01526114036000f3fe608060405234801561001057600080fd5b50600436106100a35760003560e01c8063572b6c051161007657806392463bed1161005b57806392463bed146101a4578063f0a71104146101b7578063f2fde38b146101ca57600080fd5b8063572b6c051461014f5780638da5cb5b1461019c57600080fd5b806301ffc9a7146100a85780630458935e146100d05780630a0a3325146100e55780632b4c9f1614610108575b600080fd5b6100bb6100b6366004610f4a565b6101dd565b60405190151581526020015b60405180910390f35b6100e36100de366004610fdf565b6101f7565b005b6100bb6100f336600461109b565b60046020526000908152604090205460ff1681565b7f00000000000000000000000000000000000000000000000000000000000000005b60405173ffffffffffffffffffffffffffffffffffffffff90911681526020016100c7565b6100bb61015d36600461109b565b7f000000000000000000000000000000000000000000000000000000000000000073ffffffffffffffffffffffffffffffffffffffff90811691161490565b61012a610528565b6100e36101b23660046110b8565b610554565b6100e36101c5366004611124565b610665565b6100e36101d836600461109b565b610b1c565b60006101f1826101eb610b3a565b90610b68565b92915050565b84831415806102065750848114155b1561023d576040517f35e83ac300000000000000000000000000000000000000000000000000000000815260040160405180910390fd5b60005b8581101561051f576004600088888481811061025e5761025e6111e8565b9050602002016020810190610273919061109b565b73ffffffffffffffffffffffffffffffffffffffff16815260208101919091526040016000205460ff166102d3576040517f32da96a300000000000000000000000000000000000000000000000000000000815260040160405180910390fd5b8282828181106102e5576102e56111e8565b90506020028101906102f79190611217565b905085858381811061030b5761030b6111e8565b905060200281019061031d9190611217565b905014610356576040517f35e83ac300000000000000000000000000000000000000000000000000000000815260040160405180910390fd5b868682818110610368576103686111e8565b905060200201602081019061037d919061109b565b73ffffffffffffffffffffffffffffffffffffffff1663805349346103a0610c42565b8787858181106103b2576103b26111e8565b90506020028101906103c49190611217565b8787878181106103d6576103d66111e8565b90506020028101906103e89190611217565b6040518663ffffffff1660e01b81526004016104089594939291906112ca565b600060405180830381600087803b15801561042257600080fd5b505af1158015610436573d6000803e3d6000fd5b5050505086868281811061044c5761044c6111e8565b9050602002016020810190610461919061109b565b73ffffffffffffffffffffffffffffffffffffffff1642610480610c42565b73ffffffffffffffffffffffffffffffffffffffff167f695b30a33e54e34d55c7836e092fa38db4283a5b243d2a8cfd4180ee227b2c0d8888868181106104c9576104c96111e8565b90506020028101906104db9190611217565b8888888181106104ed576104ed6111e8565b90506020028101906104ff9190611217565b60405161050f9493929190611319565b60405180910390a4600101610240565b50505050505050565b600061054f610535610c4c565b5473ffffffffffffffffffffffffffffffffffffffff1690565b905090565b61056d61055f610c42565b610567610c4c565b90610c7a565b8281146105a6576040517f35e83ac300000000000000000000000000000000000000000000000000000000815260040160405180910390fd5b60005b8381101561065e578282828181106105c3576105c36111e8565b90506020020160208101906105d89190611359565b600460008787858181106105ee576105ee6111e8565b9050602002016020810190610603919061109b565b73ffffffffffffffffffffffffffffffffffffffff168152602081019190915260400160002080547fffffffffffffffffffffffffffffffffffffffffffffffffffffffffffffff00169115159190911790556001016105a9565b5050505050565b86851415806106745750868314155b8061067f5750868114155b156106b6576040517f35e83ac300000000000000000000000000000000000000000000000000000000815260040160405180910390fd5b60005b87811015610b1157600460008888848181106106d7576106d76111e8565b90506020020160208101906106ec919061109b565b73ffffffffffffffffffffffffffffffffffffffff16815260208101919091526040016000205460ff1661074c576040517f32da96a300000000000000000000000000000000000000000000000000000000815260040160405180910390fd5b82828281811061075e5761075e6111e8565b90506020028101906107709190611217565b9050858583818110610784576107846111e8565b90506020028101906107969190611217565b9050146107cf576040517f35e83ac300000000000000000000000000000000000000000000000000000000815260040160405180910390fd5b8686828181106107e1576107e16111e8565b90506020020160208101906107f6919061109b565b73ffffffffffffffffffffffffffffffffffffffff1663e985e9c58a8a84818110610823576108236111e8565b9050602002016020810190610838919061109b565b610840610c42565b6040517fffffffff0000000000000000000000000000000000000000000000000000000060e085901b16815273ffffffffffffffffffffffffffffffffffffffff928316600482015291166024820152604401602060405180830381865afa1580156108b0573d6000803e3d6000fd5b505050506040513d601f19601f820116820180604052508101906108d49190611376565b61090a576040517f729d852800000000000000000000000000000000000000000000000000000000815260040160405180910390fd5b86868281811061091c5761091c6111e8565b9050602002016020810190610931919061109b565b73ffffffffffffffffffffffffffffffffffffffff1663805349348a8a8481811061095e5761095e6111e8565b9050602002016020810190610973919061109b565b878785818110610985576109856111e8565b90506020028101906109979190611217565b8787878181106109a9576109a96111e8565b90506020028101906109bb9190611217565b6040518663ffffffff1660e01b81526004016109db9594939291906112ca565b600060405180830381600087803b1580156109f557600080fd5b505af1158015610a09573d6000803e3d6000fd5b50505050868682818110610a1f57610a1f6111e8565b9050602002016020810190610a34919061109b565b73ffffffffffffffffffffffffffffffffffffffff16428a8a84818110610a5d57610a5d6111e8565b9050602002016020810190610a72919061109b565b73ffffffffffffffffffffffffffffffffffffffff167f695b30a33e54e34d55c7836e092fa38db4283a5b243d2a8cfd4180ee227b2c0d888886818110610abb57610abb6111e8565b9050602002810190610acd9190611217565b888888818110610adf57610adf6111e8565b9050602002810190610af19190611217565b604051610b019493929190611319565b60405180910390a46001016106b9565b505050505050505050565b610b37610b27610c42565b82610b30610c4c565b9190610cee565b50565b6000806101f160017fca9d3e17f264b0f3984e2634e94adb37fa3e6a8103f06aeae6fa59e21c769f5e611393565b60007c01000000000000000000000000000000000000000000000000000000007fffffffff00000000000000000000000000000000000000000000000000000000831601610bb8575060006101f1565b7ffe003659000000000000000000000000000000000000000000000000000000007fffffffff00000000000000000000000000000000000000000000000000000000831601610c09575060016101f1565b507fffffffff00000000000000000000000000000000000000000000000000000000166000908152602091909152604090205460ff1690565b600061054f610e03565b6000806101f160017fc9ed16f33ab3a66c84bfd83099ccb2a8845871e2e1c1928f63797152f0fd54cd611393565b815473ffffffffffffffffffffffffffffffffffffffff828116911614610cea576040517f2ef4875e00000000000000000000000000000000000000000000000000000000815273ffffffffffffffffffffffffffffffffffffffff821660048201526024015b60405180910390fd5b5050565b825473ffffffffffffffffffffffffffffffffffffffff9081169083168114610d5b576040517f2ef4875e00000000000000000000000000000000000000000000000000000000815273ffffffffffffffffffffffffffffffffffffffff84166004820152602401610ce1565b8173ffffffffffffffffffffffffffffffffffffffff168173ffffffffffffffffffffffffffffffffffffffff1614610dfd5783547fffffffffffffffffffffffff00000000000000000000000000000000000000001673ffffffffffffffffffffffffffffffffffffffff8381169182178655604051908316907f8be0079c531659141344cd1fd0a4f28419497f9722a3daafe3b4186f6b6457e090600090a35b50505050565b600033321480610e135750601836105b15610e1d57503390565b7fffffffffffffffffffffffffffffffffffffffffffffffffffffffffffffffec36013560601c7f000000000000000000000000000000000000000000000000000000000000000073ffffffffffffffffffffffffffffffffffffffff16331480610f3957506040517f8929a8ca00000000000000000000000000000000000000000000000000000000815273ffffffffffffffffffffffffffffffffffffffff82811660048301523360248301527f00000000000000000000000000000000000000000000000000000000000000001690638929a8ca90604401602060405180830381865afa158015610f15573d6000803e3d6000fd5b505050506040513d601f19601f82011682018060405250810190610f399190611376565b15610f4357919050565b3391505090565b600060208284031215610f5c57600080fd5b81357fffffffff0000000000000000000000000000000000000000000000000000000081168114610f8c57600080fd5b9392505050565b60008083601f840112610fa557600080fd5b50813567ffffffffffffffff811115610fbd57600080fd5b6020830191508360208260051b8501011115610fd857600080fd5b9250929050565b60008060008060008060608789031215610ff857600080fd5b863567ffffffffffffffff8082111561101057600080fd5b61101c8a838b01610f93565b9098509650602089013591508082111561103557600080fd5b6110418a838b01610f93565b9096509450604089013591508082111561105a57600080fd5b5061106789828a01610f93565b979a9699509497509295939492505050565b73ffffffffffffffffffffffffffffffffffffffff81168114610b3757600080fd5b6000602082840312156110ad57600080fd5b8135610f8c81611079565b600080600080604085870312156110ce57600080fd5b843567ffffffffffffffff808211156110e657600080fd5b6110f288838901610f93565b9096509450602087013591508082111561110b57600080fd5b5061111887828801610f93565b95989497509550505050565b6000806000806000806000806080898b03121561114057600080fd5b883567ffffffffffffffff8082111561115857600080fd5b6111648c838d01610f93565b909a50985060208b013591508082111561117d57600080fd5b6111898c838d01610f93565b909850965060408b01359150808211156111a257600080fd5b6111ae8c838d01610f93565b909650945060608b01359150808211156111c757600080fd5b506111d48b828c01610f93565b999c989b5096995094979396929594505050565b7f4e487b7100000000000000000000000000000000000000000000000000000000600052603260045260246000fd5b60008083357fffffffffffffffffffffffffffffffffffffffffffffffffffffffffffffffe184360301811261124c57600080fd5b83018035915067ffffffffffffffff82111561126757600080fd5b6020019150600581901b3603821315610fd857600080fd5b81835260007f07ffffffffffffffffffffffffffffffffffffffffffffffffffffffffffffff8311156112b157600080fd5b8260051b80836020870137939093016020019392505050565b73ffffffffffffffffffffffffffffffffffffffff861681526060602082015260006112fa60608301868861127f565b828103604084015261130d81858761127f565b98975050505050505050565b60408152600061132d60408301868861127f565b828103602084015261134081858761127f565b979650505050505050565b8015158114610b3757600080fd5b60006020828403121561136b57600080fd5b8135610f8c8161134b565b60006020828403121561138857600080fd5b8151610f8c8161134b565b818103818111156101f1577f4e487b7100000000000000000000000000000000000000000000000000000000600052601160045260246000fdfea26469706673582212201244fdf5c11cbfe6f3bd980bf3836301997e86ac4050a7ae584dba5b49b25bd164736f6c63430008160033","opcodes":"PUSH1 0xA0 PUSH1 0x40 MSTORE CALLVALUE DUP1 ISZERO PUSH3 0x11 JUMPI PUSH1 0x0 DUP1 REVERT JUMPDEST POP PUSH1 0x40 MLOAD PUSH3 0x1788 CODESIZE SUB DUP1 PUSH3 0x1788 DUP4 CODECOPY DUP2 ADD PUSH1 0x40 DUP2 SWAP1 MSTORE PUSH3 0x34 SWAP2 PUSH3 0x236 JUMP JUMPDEST PUSH1 0x1 PUSH1 0x1 PUSH1 0xA0 SHL SUB DUP2 AND PUSH1 0x80 MSTORE CALLER PUSH3 0x58 DUP2 PUSH3 0x51 PUSH3 0xC5 JUMP JUMPDEST SWAP1 PUSH3 0xFB JUMP JUMPDEST POP PUSH1 0x0 JUMPDEST DUP3 MLOAD DUP2 LT ISZERO PUSH3 0xBC JUMPI PUSH1 0x1 PUSH1 0x4 PUSH1 0x0 DUP6 DUP5 DUP2 MLOAD DUP2 LT PUSH3 0x81 JUMPI PUSH3 0x81 PUSH3 0x31C JUMP JUMPDEST PUSH1 0x20 SWAP1 DUP2 MUL SWAP2 SWAP1 SWAP2 ADD DUP2 ADD MLOAD PUSH1 0x1 PUSH1 0x1 PUSH1 0xA0 SHL SUB AND DUP3 MSTORE DUP2 ADD SWAP2 SWAP1 SWAP2 MSTORE PUSH1 0x40 ADD PUSH1 0x0 KECCAK256 DUP1 SLOAD PUSH1 0xFF NOT AND SWAP2 ISZERO ISZERO SWAP2 SWAP1 SWAP2 OR SWAP1 SSTORE PUSH1 0x1 ADD PUSH3 0x5C JUMP JUMPDEST POP POP POP PUSH3 0x354 JUMP JUMPDEST PUSH1 0x0 DUP1 PUSH3 0xF5 PUSH1 0x1 PUSH32 0xC9ED16F33AB3A66C84BFD83099CCB2A8845871E2E1C1928F63797152F0FD54CD PUSH3 0x332 JUMP JUMPDEST SWAP3 SWAP2 POP POP JUMP JUMPDEST PUSH1 0x1 PUSH1 0x1 PUSH1 0xA0 SHL SUB DUP2 AND ISZERO PUSH3 0x152 JUMPI DUP2 SLOAD PUSH1 0x1 PUSH1 0x1 PUSH1 0xA0 SHL SUB NOT AND PUSH1 0x1 PUSH1 0x1 PUSH1 0xA0 SHL SUB DUP3 AND SWAP1 DUP2 OR DUP4 SSTORE PUSH1 0x40 MLOAD PUSH1 0x0 SWAP1 PUSH32 0x8BE0079C531659141344CD1FD0A4F28419497F9722A3DAAFE3B4186F6B6457E0 SWAP1 DUP3 SWAP1 LOG3 JUMPDEST PUSH3 0x172 PUSH4 0x7F5828D PUSH1 0xE4 SHL PUSH1 0x1 PUSH3 0x16A PUSH3 0x176 JUMP JUMPDEST SWAP2 SWAP1 PUSH3 0x1A6 JUMP JUMPDEST POP POP JUMP JUMPDEST PUSH1 0x0 DUP1 PUSH3 0xF5 PUSH1 0x1 PUSH32 0xCA9D3E17F264B0F3984E2634E94ADB37FA3E6A8103F06AEAE6FA59E21C769F5E PUSH3 0x332 JUMP JUMPDEST PUSH1 0x1 PUSH1 0xE0 SHL PUSH1 0x1 PUSH1 0x1 PUSH1 0xE0 SHL SUB NOT DUP4 AND ADD PUSH3 0x1D5 JUMPI PUSH1 0x40 MLOAD PUSH4 0x72C683BB PUSH1 0xE0 SHL DUP2 MSTORE PUSH1 0x4 ADD PUSH1 0x40 MLOAD DUP1 SWAP2 SUB SWAP1 REVERT JUMPDEST PUSH1 0x1 PUSH1 0x1 PUSH1 0xE0 SHL SUB NOT SWAP2 SWAP1 SWAP2 AND PUSH1 0x0 SWAP1 DUP2 MSTORE PUSH1 0x20 SWAP3 SWAP1 SWAP3 MSTORE PUSH1 0x40 SWAP1 SWAP2 KECCAK256 DUP1 SLOAD PUSH1 0xFF NOT AND SWAP2 ISZERO ISZERO SWAP2 SWAP1 SWAP2 OR SWAP1 SSTORE JUMP JUMPDEST PUSH4 0x4E487B71 PUSH1 0xE0 SHL PUSH1 0x0 MSTORE PUSH1 0x41 PUSH1 0x4 MSTORE PUSH1 0x24 PUSH1 0x0 REVERT JUMPDEST DUP1 MLOAD PUSH1 0x1 PUSH1 0x1 PUSH1 0xA0 SHL SUB DUP2 AND DUP2 EQ PUSH3 0x231 JUMPI PUSH1 0x0 DUP1 REVERT JUMPDEST SWAP2 SWAP1 POP JUMP JUMPDEST PUSH1 0x0 DUP1 PUSH1 0x40 DUP4 DUP6 SUB SLT ISZERO PUSH3 0x24A JUMPI PUSH1 0x0 DUP1 REVERT JUMPDEST DUP3 MLOAD PUSH1 0x1 PUSH1 0x1 PUSH1 0x40 SHL SUB DUP1 DUP3 GT ISZERO PUSH3 0x262 JUMPI PUSH1 0x0 DUP1 REVERT JUMPDEST DUP2 DUP6 ADD SWAP2 POP DUP6 PUSH1 0x1F DUP4 ADD SLT PUSH3 0x277 JUMPI PUSH1 0x0 DUP1 REVERT JUMPDEST DUP2 MLOAD PUSH1 0x20 DUP3 DUP3 GT ISZERO PUSH3 0x28E JUMPI PUSH3 0x28E PUSH3 0x203 JUMP JUMPDEST DUP2 PUSH1 0x5 SHL PUSH1 0x40 MLOAD PUSH1 0x1F NOT PUSH1 0x3F DUP4 ADD AND DUP2 ADD DUP2 DUP2 LT DUP7 DUP3 GT OR ISZERO PUSH3 0x2B6 JUMPI PUSH3 0x2B6 PUSH3 0x203 JUMP JUMPDEST PUSH1 0x40 MSTORE SWAP3 DUP4 MSTORE DUP2 DUP4 ADD SWAP4 POP DUP5 DUP2 ADD DUP3 ADD SWAP3 DUP10 DUP5 GT ISZERO PUSH3 0x2D5 JUMPI PUSH1 0x0 DUP1 REVERT JUMPDEST SWAP5 DUP3 ADD SWAP5 JUMPDEST DUP4 DUP7 LT ISZERO PUSH3 0x2FE JUMPI PUSH3 0x2EE DUP7 PUSH3 0x219 JUMP JUMPDEST DUP6 MSTORE SWAP5 DUP3 ADD SWAP5 SWAP4 DUP3 ADD SWAP4 PUSH3 0x2DA JUMP JUMPDEST SWAP7 POP PUSH3 0x30F SWAP1 POP DUP8 DUP3 ADD PUSH3 0x219 JUMP JUMPDEST SWAP5 POP POP POP POP POP SWAP3 POP SWAP3 SWAP1 POP JUMP JUMPDEST PUSH4 0x4E487B71 PUSH1 0xE0 SHL PUSH1 0x0 MSTORE PUSH1 0x32 PUSH1 0x4 MSTORE PUSH1 0x24 PUSH1 0x0 REVERT JUMPDEST DUP2 DUP2 SUB DUP2 DUP2 GT ISZERO PUSH3 0xF5 JUMPI PUSH4 0x4E487B71 PUSH1 0xE0 SHL PUSH1 0x0 MSTORE PUSH1 0x11 PUSH1 0x4 MSTORE PUSH1 0x24 PUSH1 0x0 REVERT JUMPDEST PUSH1 0x80 MLOAD PUSH2 0x1403 PUSH3 0x385 PUSH1 0x0 CODECOPY PUSH1 0x0 DUP2 DUP2 PUSH2 0x10A ADD MSTORE DUP2 DUP2 PUSH2 0x15F ADD MSTORE DUP2 DUP2 PUSH2 0xE46 ADD MSTORE PUSH2 0xECE ADD MSTORE PUSH2 0x1403 PUSH1 0x0 RETURN INVALID PUSH1 0x80 PUSH1 0x40 MSTORE CALLVALUE DUP1 ISZERO PUSH2 0x10 JUMPI PUSH1 0x0 DUP1 REVERT JUMPDEST POP PUSH1 0x4 CALLDATASIZE LT PUSH2 0xA3 JUMPI PUSH1 0x0 CALLDATALOAD PUSH1 0xE0 SHR DUP1 PUSH4 0x572B6C05 GT PUSH2 0x76 JUMPI DUP1 PUSH4 0x92463BED GT PUSH2 0x5B JUMPI DUP1 PUSH4 0x92463BED EQ PUSH2 0x1A4 JUMPI DUP1 PUSH4 0xF0A71104 EQ PUSH2 0x1B7 JUMPI DUP1 PUSH4 0xF2FDE38B EQ PUSH2 0x1CA JUMPI PUSH1 0x0 DUP1 REVERT JUMPDEST DUP1 PUSH4 0x572B6C05 EQ PUSH2 0x14F JUMPI DUP1 PUSH4 0x8DA5CB5B EQ PUSH2 0x19C JUMPI PUSH1 0x0 DUP1 REVERT JUMPDEST DUP1 PUSH4 0x1FFC9A7 EQ PUSH2 0xA8 JUMPI DUP1 PUSH4 0x458935E EQ PUSH2 0xD0 JUMPI DUP1 PUSH4 0xA0A3325 EQ PUSH2 0xE5 JUMPI DUP1 PUSH4 0x2B4C9F16 EQ PUSH2 0x108 JUMPI JUMPDEST PUSH1 0x0 DUP1 REVERT JUMPDEST PUSH2 0xBB PUSH2 0xB6 CALLDATASIZE PUSH1 0x4 PUSH2 0xF4A JUMP JUMPDEST PUSH2 0x1DD JUMP JUMPDEST PUSH1 0x40 MLOAD SWAP1 ISZERO ISZERO DUP2 MSTORE PUSH1 0x20 ADD JUMPDEST PUSH1 0x40 MLOAD DUP1 SWAP2 SUB SWAP1 RETURN JUMPDEST PUSH2 0xE3 PUSH2 0xDE CALLDATASIZE PUSH1 0x4 PUSH2 0xFDF JUMP JUMPDEST PUSH2 0x1F7 JUMP JUMPDEST STOP JUMPDEST PUSH2 0xBB PUSH2 0xF3 CALLDATASIZE PUSH1 0x4 PUSH2 0x109B JUMP JUMPDEST PUSH1 0x4 PUSH1 0x20 MSTORE PUSH1 0x0 SWAP1 DUP2 MSTORE PUSH1 0x40 SWAP1 KECCAK256 SLOAD PUSH1 0xFF AND DUP2 JUMP JUMPDEST PUSH32 0x0 JUMPDEST PUSH1 0x40 MLOAD PUSH20 0xFFFFFFFFFFFFFFFFFFFFFFFFFFFFFFFFFFFFFFFF SWAP1 SWAP2 AND DUP2 MSTORE PUSH1 0x20 ADD PUSH2 0xC7 JUMP JUMPDEST PUSH2 0xBB PUSH2 0x15D CALLDATASIZE PUSH1 0x4 PUSH2 0x109B JUMP JUMPDEST PUSH32 0x0 PUSH20 0xFFFFFFFFFFFFFFFFFFFFFFFFFFFFFFFFFFFFFFFF SWAP1 DUP2 AND SWAP2 AND EQ SWAP1 JUMP JUMPDEST PUSH2 0x12A PUSH2 0x528 JUMP JUMPDEST PUSH2 0xE3 PUSH2 0x1B2 CALLDATASIZE PUSH1 0x4 PUSH2 0x10B8 JUMP JUMPDEST PUSH2 0x554 JUMP JUMPDEST PUSH2 0xE3 PUSH2 0x1C5 CALLDATASIZE PUSH1 0x4 PUSH2 0x1124 JUMP JUMPDEST PUSH2 0x665 JUMP JUMPDEST PUSH2 0xE3 PUSH2 0x1D8 CALLDATASIZE PUSH1 0x4 PUSH2 0x109B JUMP JUMPDEST PUSH2 0xB1C JUMP JUMPDEST PUSH1 0x0 PUSH2 0x1F1 DUP3 PUSH2 0x1EB PUSH2 0xB3A JUMP JUMPDEST SWAP1 PUSH2 0xB68 JUMP JUMPDEST SWAP3 SWAP2 POP POP JUMP JUMPDEST DUP5 DUP4 EQ ISZERO DUP1 PUSH2 0x206 JUMPI POP DUP5 DUP2 EQ ISZERO JUMPDEST ISZERO PUSH2 0x23D JUMPI PUSH1 0x40 MLOAD PUSH32 0x35E83AC300000000000000000000000000000000000000000000000000000000 DUP2 MSTORE PUSH1 0x4 ADD PUSH1 0x40 MLOAD DUP1 SWAP2 SUB SWAP1 REVERT JUMPDEST PUSH1 0x0 JUMPDEST DUP6 DUP2 LT ISZERO PUSH2 0x51F JUMPI PUSH1 0x4 PUSH1 0x0 DUP9 DUP9 DUP5 DUP2 DUP2 LT PUSH2 0x25E JUMPI PUSH2 0x25E PUSH2 0x11E8 JUMP JUMPDEST SWAP1 POP PUSH1 0x20 MUL ADD PUSH1 0x20 DUP2 ADD SWAP1 PUSH2 0x273 SWAP2 SWAP1 PUSH2 0x109B JUMP JUMPDEST PUSH20 0xFFFFFFFFFFFFFFFFFFFFFFFFFFFFFFFFFFFFFFFF AND DUP2 MSTORE PUSH1 0x20 DUP2 ADD SWAP2 SWAP1 SWAP2 MSTORE PUSH1 0x40 ADD PUSH1 0x0 KECCAK256 SLOAD PUSH1 0xFF AND PUSH2 0x2D3 JUMPI PUSH1 0x40 MLOAD PUSH32 0x32DA96A300000000000000000000000000000000000000000000000000000000 DUP2 MSTORE PUSH1 0x4 ADD PUSH1 0x40 MLOAD DUP1 SWAP2 SUB SWAP1 REVERT JUMPDEST DUP3 DUP3 DUP3 DUP2 DUP2 LT PUSH2 0x2E5 JUMPI PUSH2 0x2E5 PUSH2 0x11E8 JUMP JUMPDEST SWAP1 POP PUSH1 0x20 MUL DUP2 ADD SWAP1 PUSH2 0x2F7 SWAP2 SWAP1 PUSH2 0x1217 JUMP JUMPDEST SWAP1 POP DUP6 DUP6 DUP4 DUP2 DUP2 LT PUSH2 0x30B JUMPI PUSH2 0x30B PUSH2 0x11E8 JUMP JUMPDEST SWAP1 POP PUSH1 0x20 MUL DUP2 ADD SWAP1 PUSH2 0x31D SWAP2 SWAP1 PUSH2 0x1217 JUMP JUMPDEST SWAP1 POP EQ PUSH2 0x356 JUMPI PUSH1 0x40 MLOAD PUSH32 0x35E83AC300000000000000000000000000000000000000000000000000000000 DUP2 MSTORE PUSH1 0x4 ADD PUSH1 0x40 MLOAD DUP1 SWAP2 SUB SWAP1 REVERT JUMPDEST DUP7 DUP7 DUP3 DUP2 DUP2 LT PUSH2 0x368 JUMPI PUSH2 0x368 PUSH2 0x11E8 JUMP JUMPDEST SWAP1 POP PUSH1 0x20 MUL ADD PUSH1 0x20 DUP2 ADD SWAP1 PUSH2 0x37D SWAP2 SWAP1 PUSH2 0x109B JUMP JUMPDEST PUSH20 0xFFFFFFFFFFFFFFFFFFFFFFFFFFFFFFFFFFFFFFFF AND PUSH4 0x80534934 PUSH2 0x3A0 PUSH2 0xC42 JUMP JUMPDEST DUP8 DUP8 DUP6 DUP2 DUP2 LT PUSH2 0x3B2 JUMPI PUSH2 0x3B2 PUSH2 0x11E8 JUMP JUMPDEST SWAP1 POP PUSH1 0x20 MUL DUP2 ADD SWAP1 PUSH2 0x3C4 SWAP2 SWAP1 PUSH2 0x1217 JUMP JUMPDEST DUP8 DUP8 DUP8 DUP2 DUP2 LT PUSH2 0x3D6 JUMPI PUSH2 0x3D6 PUSH2 0x11E8 JUMP JUMPDEST SWAP1 POP PUSH1 0x20 MUL DUP2 ADD SWAP1 PUSH2 0x3E8 SWAP2 SWAP1 PUSH2 0x1217 JUMP JUMPDEST PUSH1 0x40 MLOAD DUP7 PUSH4 0xFFFFFFFF AND PUSH1 0xE0 SHL DUP2 MSTORE PUSH1 0x4 ADD PUSH2 0x408 SWAP6 SWAP5 SWAP4 SWAP3 SWAP2 SWAP1 PUSH2 0x12CA JUMP JUMPDEST PUSH1 0x0 PUSH1 0x40 MLOAD DUP1 DUP4 SUB DUP2 PUSH1 0x0 DUP8 DUP1 EXTCODESIZE ISZERO DUP1 ISZERO PUSH2 0x422 JUMPI PUSH1 0x0 DUP1 REVERT JUMPDEST POP GAS CALL ISZERO DUP1 ISZERO PUSH2 0x436 JUMPI RETURNDATASIZE PUSH1 0x0 DUP1 RETURNDATACOPY RETURNDATASIZE PUSH1 0x0 REVERT JUMPDEST POP POP POP POP DUP7 DUP7 DUP3 DUP2 DUP2 LT PUSH2 0x44C JUMPI PUSH2 0x44C PUSH2 0x11E8 JUMP JUMPDEST SWAP1 POP PUSH1 0x20 MUL ADD PUSH1 0x20 DUP2 ADD SWAP1 PUSH2 0x461 SWAP2 SWAP1 PUSH2 0x109B JUMP JUMPDEST PUSH20 0xFFFFFFFFFFFFFFFFFFFFFFFFFFFFFFFFFFFFFFFF AND TIMESTAMP PUSH2 0x480 PUSH2 0xC42 JUMP JUMPDEST PUSH20 0xFFFFFFFFFFFFFFFFFFFFFFFFFFFFFFFFFFFFFFFF AND PUSH32 0x695B30A33E54E34D55C7836E092FA38DB4283A5B243D2A8CFD4180EE227B2C0D DUP9 DUP9 DUP7 DUP2 DUP2 LT PUSH2 0x4C9 JUMPI PUSH2 0x4C9 PUSH2 0x11E8 JUMP JUMPDEST SWAP1 POP PUSH1 0x20 MUL DUP2 ADD SWAP1 PUSH2 0x4DB SWAP2 SWAP1 PUSH2 0x1217 JUMP JUMPDEST DUP9 DUP9 DUP9 DUP2 DUP2 LT PUSH2 0x4ED JUMPI PUSH2 0x4ED PUSH2 0x11E8 JUMP JUMPDEST SWAP1 POP PUSH1 0x20 MUL DUP2 ADD SWAP1 PUSH2 0x4FF SWAP2 SWAP1 PUSH2 0x1217 JUMP JUMPDEST PUSH1 0x40 MLOAD PUSH2 0x50F SWAP5 SWAP4 SWAP3 SWAP2 SWAP1 PUSH2 0x1319 JUMP JUMPDEST PUSH1 0x40 MLOAD DUP1 SWAP2 SUB SWAP1 LOG4 PUSH1 0x1 ADD PUSH2 0x240 JUMP JUMPDEST POP POP POP POP POP POP POP JUMP JUMPDEST PUSH1 0x0 PUSH2 0x54F PUSH2 0x535 PUSH2 0xC4C JUMP JUMPDEST SLOAD PUSH20 0xFFFFFFFFFFFFFFFFFFFFFFFFFFFFFFFFFFFFFFFF AND SWAP1 JUMP JUMPDEST SWAP1 POP SWAP1 JUMP JUMPDEST PUSH2 0x56D PUSH2 0x55F PUSH2 0xC42 JUMP JUMPDEST PUSH2 0x567 PUSH2 0xC4C JUMP JUMPDEST SWAP1 PUSH2 0xC7A JUMP JUMPDEST DUP3 DUP2 EQ PUSH2 0x5A6 JUMPI PUSH1 0x40 MLOAD PUSH32 0x35E83AC300000000000000000000000000000000000000000000000000000000 DUP2 MSTORE PUSH1 0x4 ADD PUSH1 0x40 MLOAD DUP1 SWAP2 SUB SWAP1 REVERT JUMPDEST PUSH1 0x0 JUMPDEST DUP4 DUP2 LT ISZERO PUSH2 0x65E JUMPI DUP3 DUP3 DUP3 DUP2 DUP2 LT PUSH2 0x5C3 JUMPI PUSH2 0x5C3 PUSH2 0x11E8 JUMP JUMPDEST SWAP1 POP PUSH1 0x20 MUL ADD PUSH1 0x20 DUP2 ADD SWAP1 PUSH2 0x5D8 SWAP2 SWAP1 PUSH2 0x1359 JUMP JUMPDEST PUSH1 0x4 PUSH1 0x0 DUP8 DUP8 DUP6 DUP2 DUP2 LT PUSH2 0x5EE JUMPI PUSH2 0x5EE PUSH2 0x11E8 JUMP JUMPDEST SWAP1 POP PUSH1 0x20 MUL ADD PUSH1 0x20 DUP2 ADD SWAP1 PUSH2 0x603 SWAP2 SWAP1 PUSH2 0x109B JUMP JUMPDEST PUSH20 0xFFFFFFFFFFFFFFFFFFFFFFFFFFFFFFFFFFFFFFFF AND DUP2 MSTORE PUSH1 0x20 DUP2 ADD SWAP2 SWAP1 SWAP2 MSTORE PUSH1 0x40 ADD PUSH1 0x0 KECCAK256 DUP1 SLOAD PUSH32 0xFFFFFFFFFFFFFFFFFFFFFFFFFFFFFFFFFFFFFFFFFFFFFFFFFFFFFFFFFFFFFF00 AND SWAP2 ISZERO ISZERO SWAP2 SWAP1 SWAP2 OR SWAP1 SSTORE PUSH1 0x1 ADD PUSH2 0x5A9 JUMP JUMPDEST POP POP POP POP POP JUMP JUMPDEST DUP7 DUP6 EQ ISZERO DUP1 PUSH2 0x674 JUMPI POP DUP7 DUP4 EQ ISZERO JUMPDEST DUP1 PUSH2 0x67F JUMPI POP DUP7 DUP2 EQ ISZERO JUMPDEST ISZERO PUSH2 0x6B6 JUMPI PUSH1 0x40 MLOAD PUSH32 0x35E83AC300000000000000000000000000000000000000000000000000000000 DUP2 MSTORE PUSH1 0x4 ADD PUSH1 0x40 MLOAD DUP1 SWAP2 SUB SWAP1 REVERT JUMPDEST PUSH1 0x0 JUMPDEST DUP8 DUP2 LT ISZERO PUSH2 0xB11 JUMPI PUSH1 0x4 PUSH1 0x0 DUP9 DUP9 DUP5 DUP2 DUP2 LT PUSH2 0x6D7 JUMPI PUSH2 0x6D7 PUSH2 0x11E8 JUMP JUMPDEST SWAP1 POP PUSH1 0x20 MUL ADD PUSH1 0x20 DUP2 ADD SWAP1 PUSH2 0x6EC SWAP2 SWAP1 PUSH2 0x109B JUMP JUMPDEST PUSH20 0xFFFFFFFFFFFFFFFFFFFFFFFFFFFFFFFFFFFFFFFF AND DUP2 MSTORE PUSH1 0x20 DUP2 ADD SWAP2 SWAP1 SWAP2 MSTORE PUSH1 0x40 ADD PUSH1 0x0 KECCAK256 SLOAD PUSH1 0xFF AND PUSH2 0x74C JUMPI PUSH1 0x40 MLOAD PUSH32 0x32DA96A300000000000000000000000000000000000000000000000000000000 DUP2 MSTORE PUSH1 0x4 ADD PUSH1 0x40 MLOAD DUP1 SWAP2 SUB SWAP1 REVERT JUMPDEST DUP3 DUP3 DUP3 DUP2 DUP2 LT PUSH2 0x75E JUMPI PUSH2 0x75E PUSH2 0x11E8 JUMP JUMPDEST SWAP1 POP PUSH1 0x20 MUL DUP2 ADD SWAP1 PUSH2 0x770 SWAP2 SWAP1 PUSH2 0x1217 JUMP JUMPDEST SWAP1 POP DUP6 DUP6 DUP4 DUP2 DUP2 LT PUSH2 0x784 JUMPI PUSH2 0x784 PUSH2 0x11E8 JUMP JUMPDEST SWAP1 POP PUSH1 0x20 MUL DUP2 ADD SWAP1 PUSH2 0x796 SWAP2 SWAP1 PUSH2 0x1217 JUMP JUMPDEST SWAP1 POP EQ PUSH2 0x7CF JUMPI PUSH1 0x40 MLOAD PUSH32 0x35E83AC300000000000000000000000000000000000000000000000000000000 DUP2 MSTORE PUSH1 0x4 ADD PUSH1 0x40 MLOAD DUP1 SWAP2 SUB SWAP1 REVERT JUMPDEST DUP7 DUP7 DUP3 DUP2 DUP2 LT PUSH2 0x7E1 JUMPI PUSH2 0x7E1 PUSH2 0x11E8 JUMP JUMPDEST SWAP1 POP PUSH1 0x20 MUL ADD PUSH1 0x20 DUP2 ADD SWAP1 PUSH2 0x7F6 SWAP2 SWAP1 PUSH2 0x109B JUMP JUMPDEST PUSH20 0xFFFFFFFFFFFFFFFFFFFFFFFFFFFFFFFFFFFFFFFF AND PUSH4 0xE985E9C5 DUP11 DUP11 DUP5 DUP2 DUP2 LT PUSH2 0x823 JUMPI PUSH2 0x823 PUSH2 0x11E8 JUMP JUMPDEST SWAP1 POP PUSH1 0x20 MUL ADD PUSH1 0x20 DUP2 ADD SWAP1 PUSH2 0x838 SWAP2 SWAP1 PUSH2 0x109B JUMP JUMPDEST PUSH2 0x840 PUSH2 0xC42 JUMP JUMPDEST PUSH1 0x40 MLOAD PUSH32 0xFFFFFFFF00000000000000000000000000000000000000000000000000000000 PUSH1 0xE0 DUP6 SWAP1 SHL AND DUP2 MSTORE PUSH20 0xFFFFFFFFFFFFFFFFFFFFFFFFFFFFFFFFFFFFFFFF SWAP3 DUP4 AND PUSH1 0x4 DUP3 ADD MSTORE SWAP2 AND PUSH1 0x24 DUP3 ADD MSTORE PUSH1 0x44 ADD PUSH1 0x20 PUSH1 0x40 MLOAD DUP1 DUP4 SUB DUP2 DUP7 GAS STATICCALL ISZERO DUP1 ISZERO PUSH2 0x8B0 JUMPI RETURNDATASIZE PUSH1 0x0 DUP1 RETURNDATACOPY RETURNDATASIZE PUSH1 0x0 REVERT JUMPDEST POP POP POP POP PUSH1 0x40 MLOAD RETURNDATASIZE PUSH1 0x1F NOT PUSH1 0x1F DUP3 ADD AND DUP3 ADD DUP1 PUSH1 0x40 MSTORE POP DUP2 ADD SWAP1 PUSH2 0x8D4 SWAP2 SWAP1 PUSH2 0x1376 JUMP JUMPDEST PUSH2 0x90A JUMPI PUSH1 0x40 MLOAD PUSH32 0x729D852800000000000000000000000000000000000000000000000000000000 DUP2 MSTORE PUSH1 0x4 ADD PUSH1 0x40 MLOAD DUP1 SWAP2 SUB SWAP1 REVERT JUMPDEST DUP7 DUP7 DUP3 DUP2 DUP2 LT PUSH2 0x91C JUMPI PUSH2 0x91C PUSH2 0x11E8 JUMP JUMPDEST SWAP1 POP PUSH1 0x20 MUL ADD PUSH1 0x20 DUP2 ADD SWAP1 PUSH2 0x931 SWAP2 SWAP1 PUSH2 0x109B JUMP JUMPDEST PUSH20 0xFFFFFFFFFFFFFFFFFFFFFFFFFFFFFFFFFFFFFFFF AND PUSH4 0x80534934 DUP11 DUP11 DUP5 DUP2 DUP2 LT PUSH2 0x95E JUMPI PUSH2 0x95E PUSH2 0x11E8 JUMP JUMPDEST SWAP1 POP PUSH1 0x20 MUL ADD PUSH1 0x20 DUP2 ADD SWAP1 PUSH2 0x973 SWAP2 SWAP1 PUSH2 0x109B JUMP JUMPDEST DUP8 DUP8 DUP6 DUP2 DUP2 LT PUSH2 0x985 JUMPI PUSH2 0x985 PUSH2 0x11E8 JUMP JUMPDEST SWAP1 POP PUSH1 0x20 MUL DUP2 ADD SWAP1 PUSH2 0x997 SWAP2 SWAP1 PUSH2 0x1217 JUMP JUMPDEST DUP8 DUP8 DUP8 DUP2 DUP2 LT PUSH2 0x9A9 JUMPI PUSH2 0x9A9 PUSH2 0x11E8 JUMP JUMPDEST SWAP1 POP PUSH1 0x20 MUL DUP2 ADD SWAP1 PUSH2 0x9BB SWAP2 SWAP1 PUSH2 0x1217 JUMP JUMPDEST PUSH1 0x40 MLOAD DUP7 PUSH4 0xFFFFFFFF AND PUSH1 0xE0 SHL DUP2 MSTORE PUSH1 0x4 ADD PUSH2 0x9DB SWAP6 SWAP5 SWAP4 SWAP3 SWAP2 SWAP1 PUSH2 0x12CA JUMP JUMPDEST PUSH1 0x0 PUSH1 0x40 MLOAD DUP1 DUP4 SUB DUP2 PUSH1 0x0 DUP8 DUP1 EXTCODESIZE ISZERO DUP1 ISZERO PUSH2 0x9F5 JUMPI PUSH1 0x0 DUP1 REVERT JUMPDEST POP GAS CALL ISZERO DUP1 ISZERO PUSH2 0xA09 JUMPI RETURNDATASIZE PUSH1 0x0 DUP1 RETURNDATACOPY RETURNDATASIZE PUSH1 0x0 REVERT JUMPDEST POP POP POP POP DUP7 DUP7 DUP3 DUP2 DUP2 LT PUSH2 0xA1F JUMPI PUSH2 0xA1F PUSH2 0x11E8 JUMP JUMPDEST SWAP1 POP PUSH1 0x20 MUL ADD PUSH1 0x20 DUP2 ADD SWAP1 PUSH2 0xA34 SWAP2 SWAP1 PUSH2 0x109B JUMP JUMPDEST PUSH20 0xFFFFFFFFFFFFFFFFFFFFFFFFFFFFFFFFFFFFFFFF AND TIMESTAMP DUP11 DUP11 DUP5 DUP2 DUP2 LT PUSH2 0xA5D JUMPI PUSH2 0xA5D PUSH2 0x11E8 JUMP JUMPDEST SWAP1 POP PUSH1 0x20 MUL ADD PUSH1 0x20 DUP2 ADD SWAP1 PUSH2 0xA72 SWAP2 SWAP1 PUSH2 0x109B JUMP JUMPDEST PUSH20 0xFFFFFFFFFFFFFFFFFFFFFFFFFFFFFFFFFFFFFFFF AND PUSH32 0x695B30A33E54E34D55C7836E092FA38DB4283A5B243D2A8CFD4180EE227B2C0D DUP9 DUP9 DUP7 DUP2 DUP2 LT PUSH2 0xABB JUMPI PUSH2 0xABB PUSH2 0x11E8 JUMP JUMPDEST SWAP1 POP PUSH1 0x20 MUL DUP2 ADD SWAP1 PUSH2 0xACD SWAP2 SWAP1 PUSH2 0x1217 JUMP JUMPDEST DUP9 DUP9 DUP9 DUP2 DUP2 LT PUSH2 0xADF JUMPI PUSH2 0xADF PUSH2 0x11E8 JUMP JUMPDEST SWAP1 POP PUSH1 0x20 MUL DUP2 ADD SWAP1 PUSH2 0xAF1 SWAP2 SWAP1 PUSH2 0x1217 JUMP JUMPDEST PUSH1 0x40 MLOAD PUSH2 0xB01 SWAP5 SWAP4 SWAP3 SWAP2 SWAP1 PUSH2 0x1319 JUMP JUMPDEST PUSH1 0x40 MLOAD DUP1 SWAP2 SUB SWAP1 LOG4 PUSH1 0x1 ADD PUSH2 0x6B9 JUMP JUMPDEST POP POP POP POP POP POP POP POP POP JUMP JUMPDEST PUSH2 0xB37 PUSH2 0xB27 PUSH2 0xC42 JUMP JUMPDEST DUP3 PUSH2 0xB30 PUSH2 0xC4C JUMP JUMPDEST SWAP2 SWAP1 PUSH2 0xCEE JUMP JUMPDEST POP JUMP JUMPDEST PUSH1 0x0 DUP1 PUSH2 0x1F1 PUSH1 0x1 PUSH32 0xCA9D3E17F264B0F3984E2634E94ADB37FA3E6A8103F06AEAE6FA59E21C769F5E PUSH2 0x1393 JUMP JUMPDEST PUSH1 0x0 PUSH29 0x100000000000000000000000000000000000000000000000000000000 PUSH32 0xFFFFFFFF00000000000000000000000000000000000000000000000000000000 DUP4 AND ADD PUSH2 0xBB8 JUMPI POP PUSH1 0x0 PUSH2 0x1F1 JUMP JUMPDEST PUSH32 0xFE00365900000000000000000000000000000000000000000000000000000000 PUSH32 0xFFFFFFFF00000000000000000000000000000000000000000000000000000000 DUP4 AND ADD PUSH2 0xC09 JUMPI POP PUSH1 0x1 PUSH2 0x1F1 JUMP JUMPDEST POP PUSH32 0xFFFFFFFF00000000000000000000000000000000000000000000000000000000 AND PUSH1 0x0 SWAP1 DUP2 MSTORE PUSH1 0x20 SWAP2 SWAP1 SWAP2 MSTORE PUSH1 0x40 SWAP1 KECCAK256 SLOAD PUSH1 0xFF AND SWAP1 JUMP JUMPDEST PUSH1 0x0 PUSH2 0x54F PUSH2 0xE03 JUMP JUMPDEST PUSH1 0x0 DUP1 PUSH2 0x1F1 PUSH1 0x1 PUSH32 0xC9ED16F33AB3A66C84BFD83099CCB2A8845871E2E1C1928F63797152F0FD54CD PUSH2 0x1393 JUMP JUMPDEST DUP2 SLOAD PUSH20 0xFFFFFFFFFFFFFFFFFFFFFFFFFFFFFFFFFFFFFFFF DUP3 DUP2 AND SWAP2 AND EQ PUSH2 0xCEA JUMPI PUSH1 0x40 MLOAD PUSH32 0x2EF4875E00000000000000000000000000000000000000000000000000000000 DUP2 MSTORE PUSH20 0xFFFFFFFFFFFFFFFFFFFFFFFFFFFFFFFFFFFFFFFF DUP3 AND PUSH1 0x4 DUP3 ADD MSTORE PUSH1 0x24 ADD JUMPDEST PUSH1 0x40 MLOAD DUP1 SWAP2 SUB SWAP1 REVERT JUMPDEST POP POP JUMP JUMPDEST DUP3 SLOAD PUSH20 0xFFFFFFFFFFFFFFFFFFFFFFFFFFFFFFFFFFFFFFFF SWAP1 DUP2 AND SWAP1 DUP4 AND DUP2 EQ PUSH2 0xD5B JUMPI PUSH1 0x40 MLOAD PUSH32 0x2EF4875E00000000000000000000000000000000000000000000000000000000 DUP2 MSTORE PUSH20 0xFFFFFFFFFFFFFFFFFFFFFFFFFFFFFFFFFFFFFFFF DUP5 AND PUSH1 0x4 DUP3 ADD MSTORE PUSH1 0x24 ADD PUSH2 0xCE1 JUMP JUMPDEST DUP2 PUSH20 0xFFFFFFFFFFFFFFFFFFFFFFFFFFFFFFFFFFFFFFFF AND DUP2 PUSH20 0xFFFFFFFFFFFFFFFFFFFFFFFFFFFFFFFFFFFFFFFF AND EQ PUSH2 0xDFD JUMPI DUP4 SLOAD PUSH32 0xFFFFFFFFFFFFFFFFFFFFFFFF0000000000000000000000000000000000000000 AND PUSH20 0xFFFFFFFFFFFFFFFFFFFFFFFFFFFFFFFFFFFFFFFF DUP4 DUP2 AND SWAP2 DUP3 OR DUP7 SSTORE PUSH1 0x40 MLOAD SWAP1 DUP4 AND SWAP1 PUSH32 0x8BE0079C531659141344CD1FD0A4F28419497F9722A3DAAFE3B4186F6B6457E0 SWAP1 PUSH1 0x0 SWAP1 LOG3 JUMPDEST POP POP POP POP JUMP JUMPDEST PUSH1 0x0 CALLER ORIGIN EQ DUP1 PUSH2 0xE13 JUMPI POP PUSH1 0x18 CALLDATASIZE LT JUMPDEST ISZERO PUSH2 0xE1D JUMPI POP CALLER SWAP1 JUMP JUMPDEST PUSH32 0xFFFFFFFFFFFFFFFFFFFFFFFFFFFFFFFFFFFFFFFFFFFFFFFFFFFFFFFFFFFFFFEC CALLDATASIZE ADD CALLDATALOAD PUSH1 0x60 SHR PUSH32 0x0 PUSH20 0xFFFFFFFFFFFFFFFFFFFFFFFFFFFFFFFFFFFFFFFF AND CALLER EQ DUP1 PUSH2 0xF39 JUMPI POP PUSH1 0x40 MLOAD PUSH32 0x8929A8CA00000000000000000000000000000000000000000000000000000000 DUP2 MSTORE PUSH20 0xFFFFFFFFFFFFFFFFFFFFFFFFFFFFFFFFFFFFFFFF DUP3 DUP2 AND PUSH1 0x4 DUP4 ADD MSTORE CALLER PUSH1 0x24 DUP4 ADD MSTORE PUSH32 0x0 AND SWAP1 PUSH4 0x8929A8CA SWAP1 PUSH1 0x44 ADD PUSH1 0x20 PUSH1 0x40 MLOAD DUP1 DUP4 SUB DUP2 DUP7 GAS STATICCALL ISZERO DUP1 ISZERO PUSH2 0xF15 JUMPI RETURNDATASIZE PUSH1 0x0 DUP1 RETURNDATACOPY RETURNDATASIZE PUSH1 0x0 REVERT JUMPDEST POP POP POP POP PUSH1 0x40 MLOAD RETURNDATASIZE PUSH1 0x1F NOT PUSH1 0x1F DUP3 ADD AND DUP3 ADD DUP1 PUSH1 0x40 MSTORE POP DUP2 ADD SWAP1 PUSH2 0xF39 SWAP2 SWAP1 PUSH2 0x1376 JUMP JUMPDEST ISZERO PUSH2 0xF43 JUMPI SWAP2 SWAP1 POP JUMP JUMPDEST CALLER SWAP2 POP POP SWAP1 JUMP JUMPDEST PUSH1 0x0 PUSH1 0x20 DUP3 DUP5 SUB SLT ISZERO PUSH2 0xF5C JUMPI PUSH1 0x0 DUP1 REVERT JUMPDEST DUP2 CALLDATALOAD PUSH32 0xFFFFFFFF00000000000000000000000000000000000000000000000000000000 DUP2 AND DUP2 EQ PUSH2 0xF8C JUMPI PUSH1 0x0 DUP1 REVERT JUMPDEST SWAP4 SWAP3 POP POP POP JUMP JUMPDEST PUSH1 0x0 DUP1 DUP4 PUSH1 0x1F DUP5 ADD SLT PUSH2 0xFA5 JUMPI PUSH1 0x0 DUP1 REVERT JUMPDEST POP DUP2 CALLDATALOAD PUSH8 0xFFFFFFFFFFFFFFFF DUP2 GT ISZERO PUSH2 0xFBD JUMPI PUSH1 0x0 DUP1 REVERT JUMPDEST PUSH1 0x20 DUP4 ADD SWAP2 POP DUP4 PUSH1 0x20 DUP3 PUSH1 0x5 SHL DUP6 ADD ADD GT ISZERO PUSH2 0xFD8 JUMPI PUSH1 0x0 DUP1 REVERT JUMPDEST SWAP3 POP SWAP3 SWAP1 POP JUMP JUMPDEST PUSH1 0x0 DUP1 PUSH1 0x0 DUP1 PUSH1 0x0 DUP1 PUSH1 0x60 DUP8 DUP10 SUB SLT ISZERO PUSH2 0xFF8 JUMPI PUSH1 0x0 DUP1 REVERT JUMPDEST DUP7 CALLDATALOAD PUSH8 0xFFFFFFFFFFFFFFFF DUP1 DUP3 GT ISZERO PUSH2 0x1010 JUMPI PUSH1 0x0 DUP1 REVERT JUMPDEST PUSH2 0x101C DUP11 DUP4 DUP12 ADD PUSH2 0xF93 JUMP JUMPDEST SWAP1 SWAP9 POP SWAP7 POP PUSH1 0x20 DUP10 ADD CALLDATALOAD SWAP2 POP DUP1 DUP3 GT ISZERO PUSH2 0x1035 JUMPI PUSH1 0x0 DUP1 REVERT JUMPDEST PUSH2 0x1041 DUP11 DUP4 DUP12 ADD PUSH2 0xF93 JUMP JUMPDEST SWAP1 SWAP7 POP SWAP5 POP PUSH1 0x40 DUP10 ADD CALLDATALOAD SWAP2 POP DUP1 DUP3 GT ISZERO PUSH2 0x105A JUMPI PUSH1 0x0 DUP1 REVERT JUMPDEST POP PUSH2 0x1067 DUP10 DUP3 DUP11 ADD PUSH2 0xF93 JUMP JUMPDEST SWAP8 SWAP11 SWAP7 SWAP10 POP SWAP5 SWAP8 POP SWAP3 SWAP6 SWAP4 SWAP5 SWAP3 POP POP POP JUMP JUMPDEST PUSH20 0xFFFFFFFFFFFFFFFFFFFFFFFFFFFFFFFFFFFFFFFF DUP2 AND DUP2 EQ PUSH2 0xB37 JUMPI PUSH1 0x0 DUP1 REVERT JUMPDEST PUSH1 0x0 PUSH1 0x20 DUP3 DUP5 SUB SLT ISZERO PUSH2 0x10AD JUMPI PUSH1 0x0 DUP1 REVERT JUMPDEST DUP2 CALLDATALOAD PUSH2 0xF8C DUP2 PUSH2 0x1079 JUMP JUMPDEST PUSH1 0x0 DUP1 PUSH1 0x0 DUP1 PUSH1 0x40 DUP6 DUP8 SUB SLT ISZERO PUSH2 0x10CE JUMPI PUSH1 0x0 DUP1 REVERT JUMPDEST DUP5 CALLDATALOAD PUSH8 0xFFFFFFFFFFFFFFFF DUP1 DUP3 GT ISZERO PUSH2 0x10E6 JUMPI PUSH1 0x0 DUP1 REVERT JUMPDEST PUSH2 0x10F2 DUP9 DUP4 DUP10 ADD PUSH2 0xF93 JUMP JUMPDEST SWAP1 SWAP7 POP SWAP5 POP PUSH1 0x20 DUP8 ADD CALLDATALOAD SWAP2 POP DUP1 DUP3 GT ISZERO PUSH2 0x110B JUMPI PUSH1 0x0 DUP1 REVERT JUMPDEST POP PUSH2 0x1118 DUP8 DUP3 DUP9 ADD PUSH2 0xF93 JUMP JUMPDEST SWAP6 SWAP9 SWAP5 SWAP8 POP SWAP6 POP POP POP POP JUMP JUMPDEST PUSH1 0x0 DUP1 PUSH1 0x0 DUP1 PUSH1 0x0 DUP1 PUSH1 0x0 DUP1 PUSH1 0x80 DUP10 DUP12 SUB SLT ISZERO PUSH2 0x1140 JUMPI PUSH1 0x0 DUP1 REVERT JUMPDEST DUP9 CALLDATALOAD PUSH8 0xFFFFFFFFFFFFFFFF DUP1 DUP3 GT ISZERO PUSH2 0x1158 JUMPI PUSH1 0x0 DUP1 REVERT JUMPDEST PUSH2 0x1164 DUP13 DUP4 DUP14 ADD PUSH2 0xF93 JUMP JUMPDEST SWAP1 SWAP11 POP SWAP9 POP PUSH1 0x20 DUP12 ADD CALLDATALOAD SWAP2 POP DUP1 DUP3 GT ISZERO PUSH2 0x117D JUMPI PUSH1 0x0 DUP1 REVERT JUMPDEST PUSH2 0x1189 DUP13 DUP4 DUP14 ADD PUSH2 0xF93 JUMP JUMPDEST SWAP1 SWAP9 POP SWAP7 POP PUSH1 0x40 DUP12 ADD CALLDATALOAD SWAP2 POP DUP1 DUP3 GT ISZERO PUSH2 0x11A2 JUMPI PUSH1 0x0 DUP1 REVERT JUMPDEST PUSH2 0x11AE DUP13 DUP4 DUP14 ADD PUSH2 0xF93 JUMP JUMPDEST SWAP1 SWAP7 POP SWAP5 POP PUSH1 0x60 DUP12 ADD CALLDATALOAD SWAP2 POP DUP1 DUP3 GT ISZERO PUSH2 0x11C7 JUMPI PUSH1 0x0 DUP1 REVERT JUMPDEST POP PUSH2 0x11D4 DUP12 DUP3 DUP13 ADD PUSH2 0xF93 JUMP JUMPDEST SWAP10 SWAP13 SWAP9 SWAP12 POP SWAP7 SWAP10 POP SWAP5 SWAP8 SWAP4 SWAP7 SWAP3 SWAP6 SWAP5 POP POP POP JUMP JUMPDEST PUSH32 0x4E487B7100000000000000000000000000000000000000000000000000000000 PUSH1 0x0 MSTORE PUSH1 0x32 PUSH1 0x4 MSTORE PUSH1 0x24 PUSH1 0x0 REVERT JUMPDEST PUSH1 0x0 DUP1 DUP4 CALLDATALOAD PUSH32 0xFFFFFFFFFFFFFFFFFFFFFFFFFFFFFFFFFFFFFFFFFFFFFFFFFFFFFFFFFFFFFFE1 DUP5 CALLDATASIZE SUB ADD DUP2 SLT PUSH2 0x124C JUMPI PUSH1 0x0 DUP1 REVERT JUMPDEST DUP4 ADD DUP1 CALLDATALOAD SWAP2 POP PUSH8 0xFFFFFFFFFFFFFFFF DUP3 GT ISZERO PUSH2 0x1267 JUMPI PUSH1 0x0 DUP1 REVERT JUMPDEST PUSH1 0x20 ADD SWAP2 POP PUSH1 0x5 DUP2 SWAP1 SHL CALLDATASIZE SUB DUP3 SGT ISZERO PUSH2 0xFD8 JUMPI PUSH1 0x0 DUP1 REVERT JUMPDEST DUP2 DUP4 MSTORE PUSH1 0x0 PUSH32 0x7FFFFFFFFFFFFFFFFFFFFFFFFFFFFFFFFFFFFFFFFFFFFFFFFFFFFFFFFFFFFFF DUP4 GT ISZERO PUSH2 0x12B1 JUMPI PUSH1 0x0 DUP1 REVERT JUMPDEST DUP3 PUSH1 0x5 SHL DUP1 DUP4 PUSH1 0x20 DUP8 ADD CALLDATACOPY SWAP4 SWAP1 SWAP4 ADD PUSH1 0x20 ADD SWAP4 SWAP3 POP POP POP JUMP JUMPDEST PUSH20 0xFFFFFFFFFFFFFFFFFFFFFFFFFFFFFFFFFFFFFFFF DUP7 AND DUP2 MSTORE PUSH1 0x60 PUSH1 0x20 DUP3 ADD MSTORE PUSH1 0x0 PUSH2 0x12FA PUSH1 0x60 DUP4 ADD DUP7 DUP9 PUSH2 0x127F JUMP JUMPDEST DUP3 DUP2 SUB PUSH1 0x40 DUP5 ADD MSTORE PUSH2 0x130D DUP2 DUP6 DUP8 PUSH2 0x127F JUMP JUMPDEST SWAP9 SWAP8 POP POP POP POP POP POP POP POP JUMP JUMPDEST PUSH1 0x40 DUP2 MSTORE PUSH1 0x0 PUSH2 0x132D PUSH1 0x40 DUP4 ADD DUP7 DUP9 PUSH2 0x127F JUMP JUMPDEST DUP3 DUP2 SUB PUSH1 0x20 DUP5 ADD MSTORE PUSH2 0x1340 DUP2 DUP6 DUP8 PUSH2 0x127F JUMP JUMPDEST SWAP8 SWAP7 POP POP POP POP POP POP POP JUMP JUMPDEST DUP1 ISZERO ISZERO DUP2 EQ PUSH2 0xB37 JUMPI PUSH1 0x0 DUP1 REVERT JUMPDEST PUSH1 0x0 PUSH1 0x20 DUP3 DUP5 SUB SLT ISZERO PUSH2 0x136B JUMPI PUSH1 0x0 DUP1 REVERT JUMPDEST DUP2 CALLDATALOAD PUSH2 0xF8C DUP2 PUSH2 0x134B JUMP JUMPDEST PUSH1 0x0 PUSH1 0x20 DUP3 DUP5 SUB SLT ISZERO PUSH2 0x1388 JUMPI PUSH1 0x0 DUP1 REVERT JUMPDEST DUP2 MLOAD PUSH2 0xF8C DUP2 PUSH2 0x134B JUMP JUMPDEST DUP2 DUP2 SUB DUP2 DUP2 GT ISZERO PUSH2 0x1F1 JUMPI PUSH32 0x4E487B7100000000000000000000000000000000000000000000000000000000 PUSH1 0x0 MSTORE PUSH1 0x11 PUSH1 0x4 MSTORE PUSH1 0x24 PUSH1 0x0 REVERT INVALID LOG2 PUSH5 0x6970667358 0x22 SLT KECCAK256 SLT PREVRANDAO REVERT CREATE2 0xC1 SHR 0xBF 0xE6 RETURN 0xBD SWAP9 SIGNEXTEND RETURN DUP4 PUSH4 0x1997E86 0xAC BLOCKHASH POP 0xA7 0xAE PC 0x4D 0xBA JUMPDEST 0x49 0xB2 JUMPDEST 0xD1 PUSH5 0x736F6C6343 STOP ADDMOD AND STOP CALLER "},"gasEstimates":{"creation":{"codeDepositCost":"1024600","executionCost":"infinite","totalCost":"infinite"},"external":{"burn(address[],uint256[][],uint256[][])":"infinite","burnFor(address[],address[],uint256[][],uint256[][])":"infinite","forwarderRegistry()":"infinite","isApprovedTokens(address)":"2547","isTrustedForwarder(address)":"infinite","owner()":"infinite","setApprovedTokens(address[],bool[])":"infinite","supportsInterface(bytes4)":"infinite","transferOwnership(address)":"infinite"},"internal":{"_msgData()":"infinite","_msgSender()":"infinite"}},"methodIdentifiers":{"burn(address[],uint256[][],uint256[][])":"0458935e","burnFor(address[],address[],uint256[][],uint256[][])":"f0a71104","forwarderRegistry()":"2b4c9f16","isApprovedTokens(address)":"0a0a3325","isTrustedForwarder(address)":"572b6c05","owner()":"8da5cb5b","setApprovedTokens(address[],bool[])":"92463bed","supportsInterface(bytes4)":"01ffc9a7","transferOwnership(address)":"f2fde38b"}},"storageLayout":{"storage":[{"astId":2620,"contract":"contracts/burn/AnichessOrbsBurnPoolSimpleMultiple.sol:ERC1155TokenBurn","label":"initial_time","offset":0,"slot":"0","type":"t_uint256"},{"astId":2622,"contract":"contracts/burn/AnichessOrbsBurnPoolSimpleMultiple.sol:ERC1155TokenBurn","label":"interval_length","offset":0,"slot":"1","type":"t_uint256"},{"astId":2633,"contract":"contracts/burn/AnichessOrbsBurnPoolSimpleMultiple.sol:ERC1155TokenBurn","label":"tokenWeight","offset":0,"slot":"2","type":"t_mapping(t_address,t_mapping(t_uint256,t_uint256))"},{"astId":2638,"contract":"contracts/burn/AnichessOrbsBurnPoolSimpleMultiple.sol:ERC1155TokenBurn","label":"intervalPoolStatus","offset":0,"slot":"3","type":"t_mapping(t_uint256,t_struct(PoolStatus)2627_storage)"},{"astId":2643,"contract":"contracts/burn/AnichessOrbsBurnPoolSimpleMultiple.sol:ERC1155TokenBurn","label":"isApprovedTokens","offset":0,"slot":"4","type":"t_mapping(t_address,t_bool)"}],"types":{"t_address":{"encoding":"inplace","label":"address","numberOfBytes":"20"},"t_bool":{"encoding":"inplace","label":"bool","numberOfBytes":"1"},"t_mapping(t_address,t_bool)":{"encoding":"mapping","key":"t_address","label":"mapping(address => bool)","numberOfBytes":"32","value":"t_bool"},"t_mapping(t_address,t_mapping(t_uint256,t_uint256))":{"encoding":"mapping","key":"t_address","label":"mapping(address => mapping(uint256 => uint256))","numberOfBytes":"32","value":"t_mapping(t_uint256,t_uint256)"},"t_mapping(t_uint256,t_struct(PoolStatus)2627_storage)":{"encoding":"mapping","key":"t_uint256","label":"mapping(uint256 => struct ERC1155TokenBurn.PoolStatus)","numberOfBytes":"32","value":"t_struct(PoolStatus)2627_storage"},"t_mapping(t_uint256,t_uint256)":{"encoding":"mapping","key":"t_uint256","label":"mapping(uint256 => uint256)","numberOfBytes":"32","value":"t_uint256"},"t_struct(PoolStatus)2627_storage":{"encoding":"inplace","label":"struct ERC1155TokenBurn.PoolStatus","members":[{"astId":2624,"contract":"contracts/burn/AnichessOrbsBurnPoolSimpleMultiple.sol:ERC1155TokenBurn","label":"totalBurned","offset":0,"slot":"0","type":"t_uint256"},{"astId":2626,"contract":"contracts/burn/AnichessOrbsBurnPoolSimpleMultiple.sol:ERC1155TokenBurn","label":"totalClaimed","offset":0,"slot":"1","type":"t_uint256"}],"numberOfBytes":"64"},"t_uint256":{"encoding":"inplace","label":"uint256","numberOfBytes":"32"}}},"userdoc":{"errors":{"EpochIdNotExists(bytes32)":[{"notice":"Error thrown when the epoch ID does not exist."}],"IllegalInterfaceId()":[{"notice":"Thrown when setting the illegal interfaceId 0xffffffff."}],"NotContractOwner(address)":[{"notice":"Thrown when an account is not the contract owner but is required to."}]},"events":{"OwnershipTransferred(address,address)":{"notice":"Emitted when the contract ownership changes."},"TokensBurnt(address,uint256,address,uint256[],uint256[])":{"notice":"Event emitted when tokens are burnt."}},"kind":"user","methods":{"burn(address[],uint256[][],uint256[][])":{"notice":"Burns the token from sender"},"burnFor(address[],address[],uint256[][],uint256[][])":{"notice":"Burns the token from a wallet."},"constructor":{"notice":"Constructor for the ERC1155TokenBurn contract."},"isApprovedTokens(address)":{"notice":"The IERC1155Burnable erc1155 contract."},"isTrustedForwarder(address)":{"notice":"Checks whether a forwarder is trusted."},"owner()":{"notice":"Gets the address of the contract owner."},"supportsInterface(bytes4)":{"notice":"Returns whether this contract implements a given interface."},"transferOwnership(address)":{"notice":"Sets the address of the new contract owner."}},"version":1}}}}