{"contracts/burn/AnichessOrbsBurnPool.sol":{"AnichessOrbsBurnPool":{"abi":[{"inputs":[{"internalType":"uint256","name":"initialTime","type":"uint256"},{"internalType":"uint256","name":"cycleDuration","type":"uint256"},{"internalType":"uint256","name":"maxCycle","type":"uint256"},{"internalType":"contract IERC1155Burnable","name":"sourceToken","type":"address"},{"internalType":"uint256[]","name":"tokenIds","type":"uint256[]"},{"internalType":"uint256[]","name":"weights","type":"uint256[]"},{"internalType":"bytes32","name":"merkleRoot","type":"bytes32"},{"internalType":"contract IERC1155Burnable","name":"missingOrb","type":"address"},{"internalType":"uint256","name":"tokenMultiplier","type":"uint256"},{"internalType":"contract IForwarderRegistry","name":"forwarderRegistry","type":"address"}],"stateMutability":"nonpayable","type":"constructor"},{"inputs":[{"internalType":"bytes32","name":"leaf","type":"bytes32"}],"name":"AlreadyConsumedLeaf","type":"error"},{"inputs":[{"internalType":"address","name":"recipient","type":"address"}],"name":"AlreadySetAnichessGameMultiplierNumerator","type":"error"},{"inputs":[{"internalType":"uint256","name":"tokenId","type":"uint256"}],"name":"AlreadySetTokenWeight","type":"error"},{"inputs":[{"internalType":"address","name":"wallet","type":"address"}],"name":"AlreadyUnlockedTokenMultiplier","type":"error"},{"inputs":[],"name":"IllegalInterfaceId","type":"error"},{"inputs":[],"name":"InconsistentArrays","type":"error"},{"inputs":[{"internalType":"uint256","name":"cycle","type":"uint256"}],"name":"InvalidCycle","type":"error"},{"inputs":[],"name":"InvalidProof","type":"error"},{"inputs":[{"internalType":"address","name":"token","type":"address"}],"name":"InvalidToken","type":"error"},{"inputs":[{"internalType":"uint256","name":"amount","type":"uint256"},{"internalType":"uint256","name":"expectedAmount","type":"uint256"}],"name":"InvalidTokenAmount","type":"error"},{"inputs":[{"internalType":"address","name":"token","type":"address"},{"internalType":"uint256","name":"tokenId","type":"uint256"}],"name":"InvalidTokenId","type":"error"},{"inputs":[],"name":"ZeroCycleDuration","type":"error"},{"inputs":[],"name":"ZeroMaxCycle","type":"error"},{"anonymous":false,"inputs":[{"indexed":true,"internalType":"address","name":"burner","type":"address"},{"indexed":true,"internalType":"uint256","name":"cycle","type":"uint256"},{"indexed":false,"internalType":"uint256","name":"timestamp","type":"uint256"},{"indexed":false,"internalType":"uint256[]","name":"ids","type":"uint256[]"},{"indexed":false,"internalType":"uint256[]","name":"values","type":"uint256[]"},{"indexed":false,"internalType":"uint256","name":"totalAsh","type":"uint256"},{"indexed":false,"internalType":"uint256","name":"multiplier","type":"uint256"}],"name":"AshGenerated","type":"event"},{"anonymous":false,"inputs":[{"indexed":true,"internalType":"address","name":"recipient","type":"address"},{"indexed":false,"internalType":"uint256","name":"curr","type":"uint256"},{"indexed":false,"internalType":"uint256","name":"updated","type":"uint256"}],"name":"UpdateMultiplierInfo","type":"event"},{"inputs":[],"name":"CYCLE_DURATION","outputs":[{"internalType":"uint256","name":"","type":"uint256"}],"stateMutability":"view","type":"function"},{"inputs":[],"name":"DENOMINATOR","outputs":[{"internalType":"uint256","name":"","type":"uint256"}],"stateMutability":"view","type":"function"},{"inputs":[],"name":"INITIAL_TIME","outputs":[{"internalType":"uint256","name":"","type":"uint256"}],"stateMutability":"view","type":"function"},{"inputs":[],"name":"MAX_CYCLE","outputs":[{"internalType":"uint256","name":"","type":"uint256"}],"stateMutability":"view","type":"function"},{"inputs":[],"name":"MERKLE_ROOT","outputs":[{"internalType":"bytes32","name":"","type":"bytes32"}],"stateMutability":"view","type":"function"},{"inputs":[],"name":"MISSING_ORB","outputs":[{"internalType":"contract IERC1155Burnable","name":"","type":"address"}],"stateMutability":"view","type":"function"},{"inputs":[],"name":"MISSING_ORB_TOKEN_ID","outputs":[{"internalType":"uint256","name":"","type":"uint256"}],"stateMutability":"view","type":"function"},{"inputs":[],"name":"SOURCE_TOKEN","outputs":[{"internalType":"contract IERC1155Burnable","name":"","type":"address"}],"stateMutability":"view","type":"function"},{"inputs":[],"name":"TOKEN_MULTIPLIER","outputs":[{"internalType":"uint256","name":"","type":"uint256"}],"stateMutability":"view","type":"function"},{"inputs":[],"name":"currentCycle","outputs":[{"internalType":"uint256","name":"","type":"uint256"}],"stateMutability":"view","type":"function"},{"inputs":[],"name":"forwarderRegistry","outputs":[{"internalType":"contract IForwarderRegistry","name":"","type":"address"}],"stateMutability":"view","type":"function"},{"inputs":[{"internalType":"address","name":"wallet","type":"address"}],"name":"getMultiplierInfo","outputs":[{"internalType":"uint256","name":"multiplierInfo","type":"uint256"},{"internalType":"uint128","name":"anichessGameMultiplierNumerator","type":"uint128"},{"internalType":"uint128","name":"tokenMultiplier","type":"uint128"}],"stateMutability":"view","type":"function"},{"inputs":[{"internalType":"address","name":"forwarder","type":"address"}],"name":"isTrustedForwarder","outputs":[{"internalType":"bool","name":"","type":"bool"}],"stateMutability":"view","type":"function"},{"inputs":[{"internalType":"bytes32","name":"","type":"bytes32"}],"name":"leafConsumptionStatus","outputs":[{"internalType":"bool","name":"","type":"bool"}],"stateMutability":"view","type":"function"},{"inputs":[{"internalType":"address","name":"","type":"address"}],"name":"multiplierInfos","outputs":[{"internalType":"uint256","name":"","type":"uint256"}],"stateMutability":"view","type":"function"},{"inputs":[{"internalType":"address","name":"","type":"address"},{"internalType":"address","name":"from","type":"address"},{"internalType":"uint256[]","name":"ids","type":"uint256[]"},{"internalType":"uint256[]","name":"values","type":"uint256[]"},{"internalType":"bytes","name":"","type":"bytes"}],"name":"onERC1155BatchReceived","outputs":[{"internalType":"bytes4","name":"","type":"bytes4"}],"stateMutability":"nonpayable","type":"function"},{"inputs":[{"internalType":"address","name":"","type":"address"},{"internalType":"address","name":"from","type":"address"},{"internalType":"uint256","name":"id","type":"uint256"},{"internalType":"uint256","name":"value","type":"uint256"},{"internalType":"bytes","name":"data","type":"bytes"}],"name":"onERC1155Received","outputs":[{"internalType":"bytes4","name":"","type":"bytes4"}],"stateMutability":"nonpayable","type":"function"},{"inputs":[{"internalType":"bytes32[]","name":"proof","type":"bytes32[]"},{"internalType":"address","name":"recipient","type":"address"},{"internalType":"uint256","name":"newAnichessGameMultiplierNumerator","type":"uint256"}],"name":"setAnichessGameMultiplierNumerator","outputs":[],"stateMutability":"nonpayable","type":"function"},{"inputs":[{"internalType":"bytes4","name":"interfaceId","type":"bytes4"}],"name":"supportsInterface","outputs":[{"internalType":"bool","name":"","type":"bool"}],"stateMutability":"view","type":"function"},{"inputs":[{"internalType":"uint256","name":"","type":"uint256"}],"name":"tokenWeights","outputs":[{"internalType":"uint256","name":"","type":"uint256"}],"stateMutability":"view","type":"function"},{"inputs":[{"internalType":"uint256","name":"","type":"uint256"},{"internalType":"address","name":"","type":"address"}],"name":"userAshByCycle","outputs":[{"internalType":"uint256","name":"","type":"uint256"}],"stateMutability":"view","type":"function"}],"devdoc":{"details":"This contract allows users to burn tokens and calculate rewards based on the amount of tokens burned.","kind":"dev","methods":{"constructor":{"details":"Throws if the cycle duration is zero.Throws if the max cycle is zero.","params":{"cycleDuration":"The duration of each cycle.","forwarderRegistry":"The forwarder registry contract.","initialTime":"The initial time of the contract.","maxCycle":"The maximum cycle.","merkleRoot":"The Merkle root of the AnichessGame multiplier claim.","missingOrb":"The IERC1155Burnable erc1155 missing orb contract for unlocking the token multiplier.","sourceToken":"The IERC1155Burnable erc1155 contract burn to generate ASH.","tokenIds":"The token IDs.","tokenMultiplier":"The token multiplier.","weights":"The weights for each token."}},"currentCycle()":{"returns":{"_0":"cycle The current cycle."}},"getMultiplierInfo(address)":{"params":{"wallet":"The wallet address."},"returns":{"anichessGameMultiplierNumerator":"The AnichessGame multiplier numerator.","multiplierInfo":"The multiplier info.","tokenMultiplier":"The token multiplier."}},"isTrustedForwarder(address)":{"params":{"forwarder":"The forwarder to check."},"returns":{"_0":"True if `forwarder` is trusted, false if not."}},"onERC1155BatchReceived(address,address,uint256[],uint256[],bytes)":{"details":"Throws if the token is invalid.Throws if the cycle is invalid.Throws if the token ID is invalid.","params":{"from":"The wallet address.","ids":"The token IDs to burn.","values":"The amount of tokens to burn."},"returns":{"_0":"The ERC1155Received selector."}},"onERC1155Received(address,address,uint256,uint256,bytes)":{"details":"Throws if the token is invalid.Throws if the token ID is invalid.Throws if the token amount is invalid.Throws if the token multiplier is already unlocked.If the data is not empty, the proof and the anichessGameMultiplierNumerator are decoded from the data to set the AnichessGame multiplier numerator.","params":{"data":"The data for unlocking the token multiplier.","from":"The wallet address.","id":"The token ID.","value":"The token value."},"returns":{"_0":"The ERC1155Received selector."}},"setAnichessGameMultiplierNumerator(bytes32[],address,uint256)":{"details":"Throws if the anichess game multiplier numerator is already set.Throws if the leaf is already consumed.Throws if the proof is invalid.","params":{"newAnichessGameMultiplierNumerator":"The AnichessGame multiplier numerator for the recipient.","proof":"The Merkle proof for the claim.","recipient":"The recipient of the payout."}},"supportsInterface(bytes4)":{"details":"Note: This function call must use less than 30 000 gas.","params":{"interfaceId":"the interface identifier to test."},"returns":{"_0":"True if the interface is supported, false if `interfaceId` is `0xffffffff` or if the interface is not supported."}}},"title":"AnichessOrbsBurnPool Contract","version":1},"evm":{"bytecode":{"linkReferences":{},"object":"6101c060405261271060a0526001610160523480156200001e57600080fd5b5060405162001b9f38038062001b9f833981016040819052620000419162000379565b6001600160a01b0381166080526200006e630271189760e51b60016200006662000101565b919062000137565b60e08a90526000899003620000965760405163b870efbd60e01b815260040160405180910390fd5b6101008990526000889003620000bf57604051637e5e559b60e11b815260040160405180910390fd5b6101208890526101808490526001600160a01b0380841661014052871660c0526101a0829052620000f1868662000194565b5050505050505050505062000486565b6000806200013160017fca9d3e17f264b0f3984e2634e94adb37fa3e6a8103f06aeae6fa59e21c769f5e6200044e565b92915050565b600160e01b6001600160e01b031983160162000166576040516372c683bb60e01b815260040160405180910390fd5b6001600160e01b03199190911660009081526020929092526040909120805460ff1916911515919091179055565b8051825114620001b7576040516335e83ac360e01b815260040160405180910390fd5b60005b82518110156200029a57600060046000858481518110620001df57620001df62000470565b60200260200101518152602001908152602001600020541115620002405782818151811062000212576200021262000470565b602002602001015160405163faf6788760e01b81526004016200023791815260200190565b60405180910390fd5b81818151811062000255576200025562000470565b60200260200101516004600085848151811062000276576200027662000470565b602090810291909101810151825281019190915260400160002055600101620001ba565b505050565b80516001600160a01b0381168114620002b757600080fd5b919050565b634e487b7160e01b600052604160045260246000fd5b600082601f830112620002e457600080fd5b815160206001600160401b0380831115620003035762000303620002bc565b8260051b604051601f19603f830116810181811084821117156200032b576200032b620002bc565b60405293845260208187018101949081019250878511156200034c57600080fd5b6020870191505b848210156200036e5781518352918301919083019062000353565b979650505050505050565b6000806000806000806000806000806101408b8d0312156200039a57600080fd5b8a51995060208b0151985060408b01519750620003ba60608c016200029f565b60808c01519097506001600160401b0380821115620003d857600080fd5b620003e68e838f01620002d2565b975060a08d0151915080821115620003fd57600080fd5b506200040c8d828e01620002d2565b95505060c08b015193506200042460e08c016200029f565b92506101008b015191506200043d6101208c016200029f565b90509295989b9194979a5092959850565b818103818111156200013157634e487b7160e01b600052601160045260246000fd5b634e487b7160e01b600052603260045260246000fd5b60805160a05160c05160e05161010051610120516101405161016051610180516101a051611657620005486000396000818161021a0152610c030152600081816102af0152610ed30152600081816101de0152610a820152600081816104490152610a270152600081816101a90152610678015260008181610470015261059a01526000818161028801526105be015260008181610323015261060c0152600081816103b6015261083a01526000818161023e01526102e101526116576000f3fe608060405234801561001057600080fd5b50600436106101775760003560e01c80637e26d0cd116100d8578063cd18a34f1161008c578063f23a6e6111610066578063f23a6e61146104b5578063f5f69112146104c8578063fa9fdc6a146104e857600080fd5b8063cd18a34f14610444578063cd421fbf1461046b578063e1c96c201461049257600080fd5b8063b28fd6e6116100bd578063b28fd6e6146103d8578063bab2f552146103f8578063bc197c811461040057600080fd5b80637e26d0cd14610345578063918f8674146103b157600080fd5b80632b4c9f161161012f57806351e75e8b1161011457806351e75e8b146102aa578063572b6c05146102d157806372d69aa01461031e57600080fd5b80632b4c9f161461023c578063491bde661461028357600080fd5b80631de0e40b116101605780631de0e40b146101d957806324190c6e146102005780632b093fe91461021557600080fd5b806301ffc9a71461017c578063043063bc146101a4575b600080fd5b61018f61018a366004611074565b610513565b60405190151581526020015b60405180910390f35b6101cb7f000000000000000000000000000000000000000000000000000000000000000081565b60405190815260200161019b565b6101cb7f000000000000000000000000000000000000000000000000000000000000000081565b61021361020e36600461112b565b61052d565b005b6101cb7f000000000000000000000000000000000000000000000000000000000000000081565b7f00000000000000000000000000000000000000000000000000000000000000005b60405173ffffffffffffffffffffffffffffffffffffffff909116815260200161019b565b6101cb7f000000000000000000000000000000000000000000000000000000000000000081565b6101cb7f000000000000000000000000000000000000000000000000000000000000000081565b61018f6102df366004611187565b7f000000000000000000000000000000000000000000000000000000000000000073ffffffffffffffffffffffffffffffffffffffff90811691161490565b61025e7f000000000000000000000000000000000000000000000000000000000000000081565b610383610353366004611187565b73ffffffffffffffffffffffffffffffffffffffff1660009081526003602052604090205490608082901c908290565b604080519384526fffffffffffffffffffffffffffffffff928316602085015291169082015260600161019b565b6101cb7f000000000000000000000000000000000000000000000000000000000000000081565b6101cb6103e6366004611187565b60036020526000908152604090205481565b6101cb610596565b61041361040e3660046111e4565b6105f2565b6040517fffffffff00000000000000000000000000000000000000000000000000000000909116815260200161019b565b61025e7f000000000000000000000000000000000000000000000000000000000000000081565b6101cb7f000000000000000000000000000000000000000000000000000000000000000081565b61018f6104a036600461129f565b60026020526000908152604090205460ff1681565b6104136104c33660046112b8565b610a0d565b6101cb6104d636600461129f565b60046020526000908152604090205481565b6101cb6104f6366004611330565b600160209081526000928352604080842090915290825290205481565b600061052782610521610cb0565b90610cde565b92915050565b61058f848480806020026020016040519081016040528093929190818152602001838360200280828437600092018290525073ffffffffffffffffffffffffffffffffffffffff88168152600360205260409020548793509150859050610db8565b5050505050565b60007f00000000000000000000000000000000000000000000000000000000000000006105e37f00000000000000000000000000000000000000000000000000000000000000004261138b565b6105ed919061139e565b905090565b60003373ffffffffffffffffffffffffffffffffffffffff7f0000000000000000000000000000000000000000000000000000000000000000161461066a576040517f961c9a4f0000000000000000000000000000000000000000000000000000000081523360048201526024015b60405180910390fd5b6000610674610596565b90507f00000000000000000000000000000000000000000000000000000000000000008111156106d3576040517f764e560f00000000000000000000000000000000000000000000000000000000815260048101829052602401610661565b6000805b888110156107bc576000600460008c8c858181106106f7576106f76113d9565b9050602002013581526020019081526020016000205490508060000361078357338b8b8481811061072a5761072a6113d9565b6040517f1912ea5100000000000000000000000000000000000000000000000000000000815273ffffffffffffffffffffffffffffffffffffffff90941660048501526020029190910135602483015250604401610661565b80898984818110610796576107966113d9565b905060200201356107a79190611408565b6107b1908461141f565b9250506001016106d7565b5073ffffffffffffffffffffffffffffffffffffffff8a16600090815260036020526040902054608081901c816fffffffffffffffffffffffffffffffff8116156108205761081d6fffffffffffffffffffffffffffffffff821685611408565b93505b6fffffffffffffffffffffffffffffffff821615610882577f00000000000000000000000000000000000000000000000000000000000000006108756fffffffffffffffffffffffffffffffff841686611408565b61087f919061139e565b93505b836001600087815260200190815260200160002060008f73ffffffffffffffffffffffffffffffffffffffff1673ffffffffffffffffffffffffffffffffffffffff16815260200190815260200160002060008282546108e2919061141f565b90915550506000858152602081905260408120805486929061090590849061141f565b925050819055503373ffffffffffffffffffffffffffffffffffffffff1663805349348e8e8e8e8e6040518663ffffffff1660e01b815260040161094d95949392919061147d565b600060405180830381600087803b15801561096757600080fd5b505af115801561097b573d6000803e3d6000fd5b50505050848d73ffffffffffffffffffffffffffffffffffffffff167f12154d1bf24e3c99606a6e0a08972355a7a52b92d6f9093e67f843b070e06ff6428f8f8f8f8b8b6040516109d297969594939291906114cc565b60405180910390a3507fbc197c81000000000000000000000000000000000000000000000000000000009d9c50505050505050505050505050565b60003373ffffffffffffffffffffffffffffffffffffffff7f00000000000000000000000000000000000000000000000000000000000000001614610a80576040517f961c9a4f000000000000000000000000000000000000000000000000000000008152336004820152602401610661565b7f00000000000000000000000000000000000000000000000000000000000000008514610ae2576040517f1912ea5100000000000000000000000000000000000000000000000000000000815233600482015260248101869052604401610661565b83600114610b26576040517ff789eb2f0000000000000000000000000000000000000000000000000000000081526004810185905260016024820152604401610661565b73ffffffffffffffffffffffffffffffffffffffff86166000908152600360205260409020548215610b7657600080610b618587018761153f565b91509150610b71828a8584610db8565b925050505b6fffffffffffffffffffffffffffffffff811615610bd8576040517f03a0028700000000000000000000000000000000000000000000000000000000815273ffffffffffffffffffffffffffffffffffffffff88166004820152602401610661565b73ffffffffffffffffffffffffffffffffffffffff87166000818152600360209081526040918290207f00000000000000000000000000000000000000000000000000000000000000007fffffffffffffffffffffffffffffffff0000000000000000000000000000000086161790819055825185815291820181905292917f54519572e3429998e82594d8b7f18c8099087447d701cbaa619b5e26f6de47eb910160405180910390a2507ff23a6e610000000000000000000000000000000000000000000000000000000098975050505050505050565b60008061052760017fca9d3e17f264b0f3984e2634e94adb37fa3e6a8103f06aeae6fa59e21c769f5e61138b565b60007c01000000000000000000000000000000000000000000000000000000007fffffffff00000000000000000000000000000000000000000000000000000000831601610d2e57506000610527565b7ffe003659000000000000000000000000000000000000000000000000000000007fffffffff00000000000000000000000000000000000000000000000000000000831601610d7f57506001610527565b507fffffffff00000000000000000000000000000000000000000000000000000000166000908152602091909152604090205460ff1690565b6000608083901c15610e0e576040517f18ed059000000000000000000000000000000000000000000000000000000000815273ffffffffffffffffffffffffffffffffffffffff85166004820152602401610661565b6040517fffffffffffffffffffffffffffffffffffffffff000000000000000000000000606086901b16602082015260348101839052600090605401604080517fffffffffffffffffffffffffffffffffffffffffffffffffffffffffffffffe081840301815291815281516020928301206000818152600290935291205490915060ff1615610ecd576040517f689301e800000000000000000000000000000000000000000000000000000000815260048101829052602401610661565b610ef8867f000000000000000000000000000000000000000000000000000000000000000083610fe9565b610f2e576040517f09bde33900000000000000000000000000000000000000000000000000000000815260040160405180910390fd5b73ffffffffffffffffffffffffffffffffffffffff851660008181526003602090815260408083206fffffffffffffffffffffffffffffffff8916608089901b1790819055858452600283529281902080547fffffffffffffffffffffffffffffffffffffffffffffffffffffffffffffff0016600117905580518881529182018390529194507f54519572e3429998e82594d8b7f18c8099087447d701cbaa619b5e26f6de47eb910160405180910390a250949350505050565b600082610ff68584610fff565b14949350505050565b600081815b845181101561103a5761103082868381518110611023576110236113d9565b6020026020010151611042565b9150600101611004565b509392505050565b600081831061105e57600082815260208490526040902061106d565b60008381526020839052604090205b9392505050565b60006020828403121561108657600080fd5b81357fffffffff000000000000000000000000000000000000000000000000000000008116811461106d57600080fd5b60008083601f8401126110c857600080fd5b50813567ffffffffffffffff8111156110e057600080fd5b6020830191508360208260051b85010111156110fb57600080fd5b9250929050565b803573ffffffffffffffffffffffffffffffffffffffff8116811461112657600080fd5b919050565b6000806000806060858703121561114157600080fd5b843567ffffffffffffffff81111561115857600080fd5b611164878288016110b6565b9095509350611177905060208601611102565b9396929550929360400135925050565b60006020828403121561119957600080fd5b61106d82611102565b60008083601f8401126111b457600080fd5b50813567ffffffffffffffff8111156111cc57600080fd5b6020830191508360208285010111156110fb57600080fd5b60008060008060008060008060a0898b03121561120057600080fd5b61120989611102565b975061121760208a01611102565b9650604089013567ffffffffffffffff8082111561123457600080fd5b6112408c838d016110b6565b909850965060608b013591508082111561125957600080fd5b6112658c838d016110b6565b909650945060808b013591508082111561127e57600080fd5b5061128b8b828c016111a2565b999c989b5096995094979396929594505050565b6000602082840312156112b157600080fd5b5035919050565b60008060008060008060a087890312156112d157600080fd5b6112da87611102565b95506112e860208801611102565b94506040870135935060608701359250608087013567ffffffffffffffff81111561131257600080fd5b61131e89828a016111a2565b979a9699509497509295939492505050565b6000806040838503121561134357600080fd5b8235915061135360208401611102565b90509250929050565b7f4e487b7100000000000000000000000000000000000000000000000000000000600052601160045260246000fd5b818103818111156105275761052761135c565b6000826113d4577f4e487b7100000000000000000000000000000000000000000000000000000000600052601260045260246000fd5b500490565b7f4e487b7100000000000000000000000000000000000000000000000000000000600052603260045260246000fd5b80820281158282048414176105275761052761135c565b808201808211156105275761052761135c565b81835260007f07ffffffffffffffffffffffffffffffffffffffffffffffffffffffffffffff83111561146457600080fd5b8260051b80836020870137939093016020019392505050565b73ffffffffffffffffffffffffffffffffffffffff861681526060602082015260006114ad606083018688611432565b82810360408401526114c0818587611432565b98975050505050505050565b87815260a0602082015260006114e660a08301888a611432565b82810360408401526114f9818789611432565b606084019590955250506080015295945050505050565b7f4e487b7100000000000000000000000000000000000000000000000000000000600052604160045260246000fd5b6000806040838503121561155257600080fd5b823567ffffffffffffffff8082111561156a57600080fd5b818501915085601f83011261157e57600080fd5b813560208282111561159257611592611510565b8160051b6040517fffffffffffffffffffffffffffffffffffffffffffffffffffffffffffffffe0603f830116810181811086821117156115d5576115d5611510565b6040529283528183019350848101820192898411156115f357600080fd5b948201945b83861015611611578535855294820194938201936115f8565b999790910135975050505050505056fea264697066735822122091e0eeb86e61d8253186c76308cc42d60748f95d1de3e4de16574121fb0af67864736f6c63430008160033","opcodes":"PUSH2 0x1C0 PUSH1 0x40 MSTORE PUSH2 0x2710 PUSH1 0xA0 MSTORE PUSH1 0x1 PUSH2 0x160 MSTORE CALLVALUE DUP1 ISZERO PUSH3 0x1E JUMPI PUSH1 0x0 DUP1 REVERT JUMPDEST POP PUSH1 0x40 MLOAD PUSH3 0x1B9F CODESIZE SUB DUP1 PUSH3 0x1B9F DUP4 CODECOPY DUP2 ADD PUSH1 0x40 DUP2 SWAP1 MSTORE PUSH3 0x41 SWAP2 PUSH3 0x379 JUMP JUMPDEST PUSH1 0x1 PUSH1 0x1 PUSH1 0xA0 SHL SUB DUP2 AND PUSH1 0x80 MSTORE PUSH3 0x6E PUSH4 0x2711897 PUSH1 0xE5 SHL PUSH1 0x1 PUSH3 0x66 PUSH3 0x101 JUMP JUMPDEST SWAP2 SWAP1 PUSH3 0x137 JUMP JUMPDEST PUSH1 0xE0 DUP11 SWAP1 MSTORE PUSH1 0x0 DUP10 SWAP1 SUB PUSH3 0x96 JUMPI PUSH1 0x40 MLOAD PUSH4 0xB870EFBD PUSH1 0xE0 SHL DUP2 MSTORE PUSH1 0x4 ADD PUSH1 0x40 MLOAD DUP1 SWAP2 SUB SWAP1 REVERT JUMPDEST PUSH2 0x100 DUP10 SWAP1 MSTORE PUSH1 0x0 DUP9 SWAP1 SUB PUSH3 0xBF JUMPI PUSH1 0x40 MLOAD PUSH4 0x7E5E559B PUSH1 0xE1 SHL DUP2 MSTORE PUSH1 0x4 ADD PUSH1 0x40 MLOAD DUP1 SWAP2 SUB SWAP1 REVERT JUMPDEST PUSH2 0x120 DUP9 SWAP1 MSTORE PUSH2 0x180 DUP5 SWAP1 MSTORE PUSH1 0x1 PUSH1 0x1 PUSH1 0xA0 SHL SUB DUP1 DUP5 AND PUSH2 0x140 MSTORE DUP8 AND PUSH1 0xC0 MSTORE PUSH2 0x1A0 DUP3 SWAP1 MSTORE PUSH3 0xF1 DUP7 DUP7 PUSH3 0x194 JUMP JUMPDEST POP POP POP POP POP POP POP POP POP POP PUSH3 0x486 JUMP JUMPDEST PUSH1 0x0 DUP1 PUSH3 0x131 PUSH1 0x1 PUSH32 0xCA9D3E17F264B0F3984E2634E94ADB37FA3E6A8103F06AEAE6FA59E21C769F5E PUSH3 0x44E JUMP JUMPDEST SWAP3 SWAP2 POP POP JUMP JUMPDEST PUSH1 0x1 PUSH1 0xE0 SHL PUSH1 0x1 PUSH1 0x1 PUSH1 0xE0 SHL SUB NOT DUP4 AND ADD PUSH3 0x166 JUMPI PUSH1 0x40 MLOAD PUSH4 0x72C683BB PUSH1 0xE0 SHL DUP2 MSTORE PUSH1 0x4 ADD PUSH1 0x40 MLOAD DUP1 SWAP2 SUB SWAP1 REVERT JUMPDEST PUSH1 0x1 PUSH1 0x1 PUSH1 0xE0 SHL SUB NOT SWAP2 SWAP1 SWAP2 AND PUSH1 0x0 SWAP1 DUP2 MSTORE PUSH1 0x20 SWAP3 SWAP1 SWAP3 MSTORE PUSH1 0x40 SWAP1 SWAP2 KECCAK256 DUP1 SLOAD PUSH1 0xFF NOT AND SWAP2 ISZERO ISZERO SWAP2 SWAP1 SWAP2 OR SWAP1 SSTORE JUMP JUMPDEST DUP1 MLOAD DUP3 MLOAD EQ PUSH3 0x1B7 JUMPI PUSH1 0x40 MLOAD PUSH4 0x35E83AC3 PUSH1 0xE0 SHL DUP2 MSTORE PUSH1 0x4 ADD PUSH1 0x40 MLOAD DUP1 SWAP2 SUB SWAP1 REVERT JUMPDEST PUSH1 0x0 JUMPDEST DUP3 MLOAD DUP2 LT ISZERO PUSH3 0x29A JUMPI PUSH1 0x0 PUSH1 0x4 PUSH1 0x0 DUP6 DUP5 DUP2 MLOAD DUP2 LT PUSH3 0x1DF JUMPI PUSH3 0x1DF PUSH3 0x470 JUMP JUMPDEST PUSH1 0x20 MUL PUSH1 0x20 ADD ADD MLOAD DUP2 MSTORE PUSH1 0x20 ADD SWAP1 DUP2 MSTORE PUSH1 0x20 ADD PUSH1 0x0 KECCAK256 SLOAD GT ISZERO PUSH3 0x240 JUMPI DUP3 DUP2 DUP2 MLOAD DUP2 LT PUSH3 0x212 JUMPI PUSH3 0x212 PUSH3 0x470 JUMP JUMPDEST PUSH1 0x20 MUL PUSH1 0x20 ADD ADD MLOAD PUSH1 0x40 MLOAD PUSH4 0xFAF67887 PUSH1 0xE0 SHL DUP2 MSTORE PUSH1 0x4 ADD PUSH3 0x237 SWAP2 DUP2 MSTORE PUSH1 0x20 ADD SWAP1 JUMP JUMPDEST PUSH1 0x40 MLOAD DUP1 SWAP2 SUB SWAP1 REVERT JUMPDEST DUP2 DUP2 DUP2 MLOAD DUP2 LT PUSH3 0x255 JUMPI PUSH3 0x255 PUSH3 0x470 JUMP JUMPDEST PUSH1 0x20 MUL PUSH1 0x20 ADD ADD MLOAD PUSH1 0x4 PUSH1 0x0 DUP6 DUP5 DUP2 MLOAD DUP2 LT PUSH3 0x276 JUMPI PUSH3 0x276 PUSH3 0x470 JUMP JUMPDEST PUSH1 0x20 SWAP1 DUP2 MUL SWAP2 SWAP1 SWAP2 ADD DUP2 ADD MLOAD DUP3 MSTORE DUP2 ADD SWAP2 SWAP1 SWAP2 MSTORE PUSH1 0x40 ADD PUSH1 0x0 KECCAK256 SSTORE PUSH1 0x1 ADD PUSH3 0x1BA JUMP JUMPDEST POP POP POP JUMP JUMPDEST DUP1 MLOAD PUSH1 0x1 PUSH1 0x1 PUSH1 0xA0 SHL SUB DUP2 AND DUP2 EQ PUSH3 0x2B7 JUMPI PUSH1 0x0 DUP1 REVERT JUMPDEST SWAP2 SWAP1 POP JUMP JUMPDEST PUSH4 0x4E487B71 PUSH1 0xE0 SHL PUSH1 0x0 MSTORE PUSH1 0x41 PUSH1 0x4 MSTORE PUSH1 0x24 PUSH1 0x0 REVERT JUMPDEST PUSH1 0x0 DUP3 PUSH1 0x1F DUP4 ADD SLT PUSH3 0x2E4 JUMPI PUSH1 0x0 DUP1 REVERT JUMPDEST DUP2 MLOAD PUSH1 0x20 PUSH1 0x1 PUSH1 0x1 PUSH1 0x40 SHL SUB DUP1 DUP4 GT ISZERO PUSH3 0x303 JUMPI PUSH3 0x303 PUSH3 0x2BC JUMP JUMPDEST DUP3 PUSH1 0x5 SHL PUSH1 0x40 MLOAD PUSH1 0x1F NOT PUSH1 0x3F DUP4 ADD AND DUP2 ADD DUP2 DUP2 LT DUP5 DUP3 GT OR ISZERO PUSH3 0x32B JUMPI PUSH3 0x32B PUSH3 0x2BC JUMP JUMPDEST PUSH1 0x40 MSTORE SWAP4 DUP5 MSTORE PUSH1 0x20 DUP2 DUP8 ADD DUP2 ADD SWAP5 SWAP1 DUP2 ADD SWAP3 POP DUP8 DUP6 GT ISZERO PUSH3 0x34C JUMPI PUSH1 0x0 DUP1 REVERT JUMPDEST PUSH1 0x20 DUP8 ADD SWAP2 POP JUMPDEST DUP5 DUP3 LT ISZERO PUSH3 0x36E JUMPI DUP2 MLOAD DUP4 MSTORE SWAP2 DUP4 ADD SWAP2 SWAP1 DUP4 ADD SWAP1 PUSH3 0x353 JUMP JUMPDEST SWAP8 SWAP7 POP POP POP POP POP POP POP JUMP JUMPDEST PUSH1 0x0 DUP1 PUSH1 0x0 DUP1 PUSH1 0x0 DUP1 PUSH1 0x0 DUP1 PUSH1 0x0 DUP1 PUSH2 0x140 DUP12 DUP14 SUB SLT ISZERO PUSH3 0x39A JUMPI PUSH1 0x0 DUP1 REVERT JUMPDEST DUP11 MLOAD SWAP10 POP PUSH1 0x20 DUP12 ADD MLOAD SWAP9 POP PUSH1 0x40 DUP12 ADD MLOAD SWAP8 POP PUSH3 0x3BA PUSH1 0x60 DUP13 ADD PUSH3 0x29F JUMP JUMPDEST PUSH1 0x80 DUP13 ADD MLOAD SWAP1 SWAP8 POP PUSH1 0x1 PUSH1 0x1 PUSH1 0x40 SHL SUB DUP1 DUP3 GT ISZERO PUSH3 0x3D8 JUMPI PUSH1 0x0 DUP1 REVERT JUMPDEST PUSH3 0x3E6 DUP15 DUP4 DUP16 ADD PUSH3 0x2D2 JUMP JUMPDEST SWAP8 POP PUSH1 0xA0 DUP14 ADD MLOAD SWAP2 POP DUP1 DUP3 GT ISZERO PUSH3 0x3FD JUMPI PUSH1 0x0 DUP1 REVERT JUMPDEST POP PUSH3 0x40C DUP14 DUP3 DUP15 ADD PUSH3 0x2D2 JUMP JUMPDEST SWAP6 POP POP PUSH1 0xC0 DUP12 ADD MLOAD SWAP4 POP PUSH3 0x424 PUSH1 0xE0 DUP13 ADD PUSH3 0x29F JUMP JUMPDEST SWAP3 POP PUSH2 0x100 DUP12 ADD MLOAD SWAP2 POP PUSH3 0x43D PUSH2 0x120 DUP13 ADD PUSH3 0x29F JUMP JUMPDEST SWAP1 POP SWAP3 SWAP6 SWAP9 SWAP12 SWAP2 SWAP5 SWAP8 SWAP11 POP SWAP3 SWAP6 SWAP9 POP JUMP JUMPDEST DUP2 DUP2 SUB DUP2 DUP2 GT ISZERO PUSH3 0x131 JUMPI PUSH4 0x4E487B71 PUSH1 0xE0 SHL PUSH1 0x0 MSTORE PUSH1 0x11 PUSH1 0x4 MSTORE PUSH1 0x24 PUSH1 0x0 REVERT JUMPDEST PUSH4 0x4E487B71 PUSH1 0xE0 SHL PUSH1 0x0 MSTORE PUSH1 0x32 PUSH1 0x4 MSTORE PUSH1 0x24 PUSH1 0x0 REVERT JUMPDEST PUSH1 0x80 MLOAD PUSH1 0xA0 MLOAD PUSH1 0xC0 MLOAD PUSH1 0xE0 MLOAD PUSH2 0x100 MLOAD PUSH2 0x120 MLOAD PUSH2 0x140 MLOAD PUSH2 0x160 MLOAD PUSH2 0x180 MLOAD PUSH2 0x1A0 MLOAD PUSH2 0x1657 PUSH3 0x548 PUSH1 0x0 CODECOPY PUSH1 0x0 DUP2 DUP2 PUSH2 0x21A ADD MSTORE PUSH2 0xC03 ADD MSTORE PUSH1 0x0 DUP2 DUP2 PUSH2 0x2AF ADD MSTORE PUSH2 0xED3 ADD MSTORE PUSH1 0x0 DUP2 DUP2 PUSH2 0x1DE ADD MSTORE PUSH2 0xA82 ADD MSTORE PUSH1 0x0 DUP2 DUP2 PUSH2 0x449 ADD MSTORE PUSH2 0xA27 ADD MSTORE PUSH1 0x0 DUP2 DUP2 PUSH2 0x1A9 ADD MSTORE PUSH2 0x678 ADD MSTORE PUSH1 0x0 DUP2 DUP2 PUSH2 0x470 ADD MSTORE PUSH2 0x59A ADD MSTORE PUSH1 0x0 DUP2 DUP2 PUSH2 0x288 ADD MSTORE PUSH2 0x5BE ADD MSTORE PUSH1 0x0 DUP2 DUP2 PUSH2 0x323 ADD MSTORE PUSH2 0x60C ADD MSTORE PUSH1 0x0 DUP2 DUP2 PUSH2 0x3B6 ADD MSTORE PUSH2 0x83A ADD MSTORE PUSH1 0x0 DUP2 DUP2 PUSH2 0x23E ADD MSTORE PUSH2 0x2E1 ADD MSTORE PUSH2 0x1657 PUSH1 0x0 RETURN INVALID PUSH1 0x80 PUSH1 0x40 MSTORE CALLVALUE DUP1 ISZERO PUSH2 0x10 JUMPI PUSH1 0x0 DUP1 REVERT JUMPDEST POP PUSH1 0x4 CALLDATASIZE LT PUSH2 0x177 JUMPI PUSH1 0x0 CALLDATALOAD PUSH1 0xE0 SHR DUP1 PUSH4 0x7E26D0CD GT PUSH2 0xD8 JUMPI DUP1 PUSH4 0xCD18A34F GT PUSH2 0x8C JUMPI DUP1 PUSH4 0xF23A6E61 GT PUSH2 0x66 JUMPI DUP1 PUSH4 0xF23A6E61 EQ PUSH2 0x4B5 JUMPI DUP1 PUSH4 0xF5F69112 EQ PUSH2 0x4C8 JUMPI DUP1 PUSH4 0xFA9FDC6A EQ PUSH2 0x4E8 JUMPI PUSH1 0x0 DUP1 REVERT JUMPDEST DUP1 PUSH4 0xCD18A34F EQ PUSH2 0x444 JUMPI DUP1 PUSH4 0xCD421FBF EQ PUSH2 0x46B JUMPI DUP1 PUSH4 0xE1C96C20 EQ PUSH2 0x492 JUMPI PUSH1 0x0 DUP1 REVERT JUMPDEST DUP1 PUSH4 0xB28FD6E6 GT PUSH2 0xBD JUMPI DUP1 PUSH4 0xB28FD6E6 EQ PUSH2 0x3D8 JUMPI DUP1 PUSH4 0xBAB2F552 EQ PUSH2 0x3F8 JUMPI DUP1 PUSH4 0xBC197C81 EQ PUSH2 0x400 JUMPI PUSH1 0x0 DUP1 REVERT JUMPDEST DUP1 PUSH4 0x7E26D0CD EQ PUSH2 0x345 JUMPI DUP1 PUSH4 0x918F8674 EQ PUSH2 0x3B1 JUMPI PUSH1 0x0 DUP1 REVERT JUMPDEST DUP1 PUSH4 0x2B4C9F16 GT PUSH2 0x12F JUMPI DUP1 PUSH4 0x51E75E8B GT PUSH2 0x114 JUMPI DUP1 PUSH4 0x51E75E8B EQ PUSH2 0x2AA JUMPI DUP1 PUSH4 0x572B6C05 EQ PUSH2 0x2D1 JUMPI DUP1 PUSH4 0x72D69AA0 EQ PUSH2 0x31E JUMPI PUSH1 0x0 DUP1 REVERT JUMPDEST DUP1 PUSH4 0x2B4C9F16 EQ PUSH2 0x23C JUMPI DUP1 PUSH4 0x491BDE66 EQ PUSH2 0x283 JUMPI PUSH1 0x0 DUP1 REVERT JUMPDEST DUP1 PUSH4 0x1DE0E40B GT PUSH2 0x160 JUMPI DUP1 PUSH4 0x1DE0E40B EQ PUSH2 0x1D9 JUMPI DUP1 PUSH4 0x24190C6E EQ PUSH2 0x200 JUMPI DUP1 PUSH4 0x2B093FE9 EQ PUSH2 0x215 JUMPI PUSH1 0x0 DUP1 REVERT JUMPDEST DUP1 PUSH4 0x1FFC9A7 EQ PUSH2 0x17C JUMPI DUP1 PUSH4 0x43063BC EQ PUSH2 0x1A4 JUMPI JUMPDEST PUSH1 0x0 DUP1 REVERT JUMPDEST PUSH2 0x18F PUSH2 0x18A CALLDATASIZE PUSH1 0x4 PUSH2 0x1074 JUMP JUMPDEST PUSH2 0x513 JUMP JUMPDEST PUSH1 0x40 MLOAD SWAP1 ISZERO ISZERO DUP2 MSTORE PUSH1 0x20 ADD JUMPDEST PUSH1 0x40 MLOAD DUP1 SWAP2 SUB SWAP1 RETURN JUMPDEST PUSH2 0x1CB PUSH32 0x0 DUP2 JUMP JUMPDEST PUSH1 0x40 MLOAD SWAP1 DUP2 MSTORE PUSH1 0x20 ADD PUSH2 0x19B JUMP JUMPDEST PUSH2 0x1CB PUSH32 0x0 DUP2 JUMP JUMPDEST PUSH2 0x213 PUSH2 0x20E CALLDATASIZE PUSH1 0x4 PUSH2 0x112B JUMP JUMPDEST PUSH2 0x52D JUMP JUMPDEST STOP JUMPDEST PUSH2 0x1CB PUSH32 0x0 DUP2 JUMP JUMPDEST PUSH32 0x0 JUMPDEST PUSH1 0x40 MLOAD PUSH20 0xFFFFFFFFFFFFFFFFFFFFFFFFFFFFFFFFFFFFFFFF SWAP1 SWAP2 AND DUP2 MSTORE PUSH1 0x20 ADD PUSH2 0x19B JUMP JUMPDEST PUSH2 0x1CB PUSH32 0x0 DUP2 JUMP JUMPDEST PUSH2 0x1CB PUSH32 0x0 DUP2 JUMP JUMPDEST PUSH2 0x18F PUSH2 0x2DF CALLDATASIZE PUSH1 0x4 PUSH2 0x1187 JUMP JUMPDEST PUSH32 0x0 PUSH20 0xFFFFFFFFFFFFFFFFFFFFFFFFFFFFFFFFFFFFFFFF SWAP1 DUP2 AND SWAP2 AND EQ SWAP1 JUMP JUMPDEST PUSH2 0x25E PUSH32 0x0 DUP2 JUMP JUMPDEST PUSH2 0x383 PUSH2 0x353 CALLDATASIZE PUSH1 0x4 PUSH2 0x1187 JUMP JUMPDEST PUSH20 0xFFFFFFFFFFFFFFFFFFFFFFFFFFFFFFFFFFFFFFFF AND PUSH1 0x0 SWAP1 DUP2 MSTORE PUSH1 0x3 PUSH1 0x20 MSTORE PUSH1 0x40 SWAP1 KECCAK256 SLOAD SWAP1 PUSH1 0x80 DUP3 SWAP1 SHR SWAP1 DUP3 SWAP1 JUMP JUMPDEST PUSH1 0x40 DUP1 MLOAD SWAP4 DUP5 MSTORE PUSH16 0xFFFFFFFFFFFFFFFFFFFFFFFFFFFFFFFF SWAP3 DUP4 AND PUSH1 0x20 DUP6 ADD MSTORE SWAP2 AND SWAP1 DUP3 ADD MSTORE PUSH1 0x60 ADD PUSH2 0x19B JUMP JUMPDEST PUSH2 0x1CB PUSH32 0x0 DUP2 JUMP JUMPDEST PUSH2 0x1CB PUSH2 0x3E6 CALLDATASIZE PUSH1 0x4 PUSH2 0x1187 JUMP JUMPDEST PUSH1 0x3 PUSH1 0x20 MSTORE PUSH1 0x0 SWAP1 DUP2 MSTORE PUSH1 0x40 SWAP1 KECCAK256 SLOAD DUP2 JUMP JUMPDEST PUSH2 0x1CB PUSH2 0x596 JUMP JUMPDEST PUSH2 0x413 PUSH2 0x40E CALLDATASIZE PUSH1 0x4 PUSH2 0x11E4 JUMP JUMPDEST PUSH2 0x5F2 JUMP JUMPDEST PUSH1 0x40 MLOAD PUSH32 0xFFFFFFFF00000000000000000000000000000000000000000000000000000000 SWAP1 SWAP2 AND DUP2 MSTORE PUSH1 0x20 ADD PUSH2 0x19B JUMP JUMPDEST PUSH2 0x25E PUSH32 0x0 DUP2 JUMP JUMPDEST PUSH2 0x1CB PUSH32 0x0 DUP2 JUMP JUMPDEST PUSH2 0x18F PUSH2 0x4A0 CALLDATASIZE PUSH1 0x4 PUSH2 0x129F JUMP JUMPDEST PUSH1 0x2 PUSH1 0x20 MSTORE PUSH1 0x0 SWAP1 DUP2 MSTORE PUSH1 0x40 SWAP1 KECCAK256 SLOAD PUSH1 0xFF AND DUP2 JUMP JUMPDEST PUSH2 0x413 PUSH2 0x4C3 CALLDATASIZE PUSH1 0x4 PUSH2 0x12B8 JUMP JUMPDEST PUSH2 0xA0D JUMP JUMPDEST PUSH2 0x1CB PUSH2 0x4D6 CALLDATASIZE PUSH1 0x4 PUSH2 0x129F JUMP JUMPDEST PUSH1 0x4 PUSH1 0x20 MSTORE PUSH1 0x0 SWAP1 DUP2 MSTORE PUSH1 0x40 SWAP1 KECCAK256 SLOAD DUP2 JUMP JUMPDEST PUSH2 0x1CB PUSH2 0x4F6 CALLDATASIZE PUSH1 0x4 PUSH2 0x1330 JUMP JUMPDEST PUSH1 0x1 PUSH1 0x20 SWAP1 DUP2 MSTORE PUSH1 0x0 SWAP3 DUP4 MSTORE PUSH1 0x40 DUP1 DUP5 KECCAK256 SWAP1 SWAP2 MSTORE SWAP1 DUP3 MSTORE SWAP1 KECCAK256 SLOAD DUP2 JUMP JUMPDEST PUSH1 0x0 PUSH2 0x527 DUP3 PUSH2 0x521 PUSH2 0xCB0 JUMP JUMPDEST SWAP1 PUSH2 0xCDE JUMP JUMPDEST SWAP3 SWAP2 POP POP JUMP JUMPDEST PUSH2 0x58F DUP5 DUP5 DUP1 DUP1 PUSH1 0x20 MUL PUSH1 0x20 ADD PUSH1 0x40 MLOAD SWAP1 DUP2 ADD PUSH1 0x40 MSTORE DUP1 SWAP4 SWAP3 SWAP2 SWAP1 DUP2 DUP2 MSTORE PUSH1 0x20 ADD DUP4 DUP4 PUSH1 0x20 MUL DUP1 DUP3 DUP5 CALLDATACOPY PUSH1 0x0 SWAP3 ADD DUP3 SWAP1 MSTORE POP PUSH20 0xFFFFFFFFFFFFFFFFFFFFFFFFFFFFFFFFFFFFFFFF DUP9 AND DUP2 MSTORE PUSH1 0x3 PUSH1 0x20 MSTORE PUSH1 0x40 SWAP1 KECCAK256 SLOAD DUP8 SWAP4 POP SWAP2 POP DUP6 SWAP1 POP PUSH2 0xDB8 JUMP JUMPDEST POP POP POP POP POP JUMP JUMPDEST PUSH1 0x0 PUSH32 0x0 PUSH2 0x5E3 PUSH32 0x0 TIMESTAMP PUSH2 0x138B JUMP JUMPDEST PUSH2 0x5ED SWAP2 SWAP1 PUSH2 0x139E JUMP JUMPDEST SWAP1 POP SWAP1 JUMP JUMPDEST PUSH1 0x0 CALLER PUSH20 0xFFFFFFFFFFFFFFFFFFFFFFFFFFFFFFFFFFFFFFFF PUSH32 0x0 AND EQ PUSH2 0x66A JUMPI PUSH1 0x40 MLOAD PUSH32 0x961C9A4F00000000000000000000000000000000000000000000000000000000 DUP2 MSTORE CALLER PUSH1 0x4 DUP3 ADD MSTORE PUSH1 0x24 ADD JUMPDEST PUSH1 0x40 MLOAD DUP1 SWAP2 SUB SWAP1 REVERT JUMPDEST PUSH1 0x0 PUSH2 0x674 PUSH2 0x596 JUMP JUMPDEST SWAP1 POP PUSH32 0x0 DUP2 GT ISZERO PUSH2 0x6D3 JUMPI PUSH1 0x40 MLOAD PUSH32 0x764E560F00000000000000000000000000000000000000000000000000000000 DUP2 MSTORE PUSH1 0x4 DUP2 ADD DUP3 SWAP1 MSTORE PUSH1 0x24 ADD PUSH2 0x661 JUMP JUMPDEST PUSH1 0x0 DUP1 JUMPDEST DUP9 DUP2 LT ISZERO PUSH2 0x7BC JUMPI PUSH1 0x0 PUSH1 0x4 PUSH1 0x0 DUP13 DUP13 DUP6 DUP2 DUP2 LT PUSH2 0x6F7 JUMPI PUSH2 0x6F7 PUSH2 0x13D9 JUMP JUMPDEST SWAP1 POP PUSH1 0x20 MUL ADD CALLDATALOAD DUP2 MSTORE PUSH1 0x20 ADD SWAP1 DUP2 MSTORE PUSH1 0x20 ADD PUSH1 0x0 KECCAK256 SLOAD SWAP1 POP DUP1 PUSH1 0x0 SUB PUSH2 0x783 JUMPI CALLER DUP12 DUP12 DUP5 DUP2 DUP2 LT PUSH2 0x72A JUMPI PUSH2 0x72A PUSH2 0x13D9 JUMP JUMPDEST PUSH1 0x40 MLOAD PUSH32 0x1912EA5100000000000000000000000000000000000000000000000000000000 DUP2 MSTORE PUSH20 0xFFFFFFFFFFFFFFFFFFFFFFFFFFFFFFFFFFFFFFFF SWAP1 SWAP5 AND PUSH1 0x4 DUP6 ADD MSTORE PUSH1 0x20 MUL SWAP2 SWAP1 SWAP2 ADD CALLDATALOAD PUSH1 0x24 DUP4 ADD MSTORE POP PUSH1 0x44 ADD PUSH2 0x661 JUMP JUMPDEST DUP1 DUP10 DUP10 DUP5 DUP2 DUP2 LT PUSH2 0x796 JUMPI PUSH2 0x796 PUSH2 0x13D9 JUMP JUMPDEST SWAP1 POP PUSH1 0x20 MUL ADD CALLDATALOAD PUSH2 0x7A7 SWAP2 SWAP1 PUSH2 0x1408 JUMP JUMPDEST PUSH2 0x7B1 SWAP1 DUP5 PUSH2 0x141F JUMP JUMPDEST SWAP3 POP POP PUSH1 0x1 ADD PUSH2 0x6D7 JUMP JUMPDEST POP PUSH20 0xFFFFFFFFFFFFFFFFFFFFFFFFFFFFFFFFFFFFFFFF DUP11 AND PUSH1 0x0 SWAP1 DUP2 MSTORE PUSH1 0x3 PUSH1 0x20 MSTORE PUSH1 0x40 SWAP1 KECCAK256 SLOAD PUSH1 0x80 DUP2 SWAP1 SHR DUP2 PUSH16 0xFFFFFFFFFFFFFFFFFFFFFFFFFFFFFFFF DUP2 AND ISZERO PUSH2 0x820 JUMPI PUSH2 0x81D PUSH16 0xFFFFFFFFFFFFFFFFFFFFFFFFFFFFFFFF DUP3 AND DUP6 PUSH2 0x1408 JUMP JUMPDEST SWAP4 POP JUMPDEST PUSH16 0xFFFFFFFFFFFFFFFFFFFFFFFFFFFFFFFF DUP3 AND ISZERO PUSH2 0x882 JUMPI PUSH32 0x0 PUSH2 0x875 PUSH16 0xFFFFFFFFFFFFFFFFFFFFFFFFFFFFFFFF DUP5 AND DUP7 PUSH2 0x1408 JUMP JUMPDEST PUSH2 0x87F SWAP2 SWAP1 PUSH2 0x139E JUMP JUMPDEST SWAP4 POP JUMPDEST DUP4 PUSH1 0x1 PUSH1 0x0 DUP8 DUP2 MSTORE PUSH1 0x20 ADD SWAP1 DUP2 MSTORE PUSH1 0x20 ADD PUSH1 0x0 KECCAK256 PUSH1 0x0 DUP16 PUSH20 0xFFFFFFFFFFFFFFFFFFFFFFFFFFFFFFFFFFFFFFFF AND PUSH20 0xFFFFFFFFFFFFFFFFFFFFFFFFFFFFFFFFFFFFFFFF AND DUP2 MSTORE PUSH1 0x20 ADD SWAP1 DUP2 MSTORE PUSH1 0x20 ADD PUSH1 0x0 KECCAK256 PUSH1 0x0 DUP3 DUP3 SLOAD PUSH2 0x8E2 SWAP2 SWAP1 PUSH2 0x141F JUMP JUMPDEST SWAP1 SWAP2 SSTORE POP POP PUSH1 0x0 DUP6 DUP2 MSTORE PUSH1 0x20 DUP2 SWAP1 MSTORE PUSH1 0x40 DUP2 KECCAK256 DUP1 SLOAD DUP7 SWAP3 SWAP1 PUSH2 0x905 SWAP1 DUP5 SWAP1 PUSH2 0x141F JUMP JUMPDEST SWAP3 POP POP DUP2 SWAP1 SSTORE POP CALLER PUSH20 0xFFFFFFFFFFFFFFFFFFFFFFFFFFFFFFFFFFFFFFFF AND PUSH4 0x80534934 DUP15 DUP15 DUP15 DUP15 DUP15 PUSH1 0x40 MLOAD DUP7 PUSH4 0xFFFFFFFF AND PUSH1 0xE0 SHL DUP2 MSTORE PUSH1 0x4 ADD PUSH2 0x94D SWAP6 SWAP5 SWAP4 SWAP3 SWAP2 SWAP1 PUSH2 0x147D JUMP JUMPDEST PUSH1 0x0 PUSH1 0x40 MLOAD DUP1 DUP4 SUB DUP2 PUSH1 0x0 DUP8 DUP1 EXTCODESIZE ISZERO DUP1 ISZERO PUSH2 0x967 JUMPI PUSH1 0x0 DUP1 REVERT JUMPDEST POP GAS CALL ISZERO DUP1 ISZERO PUSH2 0x97B JUMPI RETURNDATASIZE PUSH1 0x0 DUP1 RETURNDATACOPY RETURNDATASIZE PUSH1 0x0 REVERT JUMPDEST POP POP POP POP DUP5 DUP14 PUSH20 0xFFFFFFFFFFFFFFFFFFFFFFFFFFFFFFFFFFFFFFFF AND PUSH32 0x12154D1BF24E3C99606A6E0A08972355A7A52B92D6F9093E67F843B070E06FF6 TIMESTAMP DUP16 DUP16 DUP16 DUP16 DUP12 DUP12 PUSH1 0x40 MLOAD PUSH2 0x9D2 SWAP8 SWAP7 SWAP6 SWAP5 SWAP4 SWAP3 SWAP2 SWAP1 PUSH2 0x14CC JUMP JUMPDEST PUSH1 0x40 MLOAD DUP1 SWAP2 SUB SWAP1 LOG3 POP PUSH32 0xBC197C8100000000000000000000000000000000000000000000000000000000 SWAP14 SWAP13 POP POP POP POP POP POP POP POP POP POP POP POP POP JUMP JUMPDEST PUSH1 0x0 CALLER PUSH20 0xFFFFFFFFFFFFFFFFFFFFFFFFFFFFFFFFFFFFFFFF PUSH32 0x0 AND EQ PUSH2 0xA80 JUMPI PUSH1 0x40 MLOAD PUSH32 0x961C9A4F00000000000000000000000000000000000000000000000000000000 DUP2 MSTORE CALLER PUSH1 0x4 DUP3 ADD MSTORE PUSH1 0x24 ADD PUSH2 0x661 JUMP JUMPDEST PUSH32 0x0 DUP6 EQ PUSH2 0xAE2 JUMPI PUSH1 0x40 MLOAD PUSH32 0x1912EA5100000000000000000000000000000000000000000000000000000000 DUP2 MSTORE CALLER PUSH1 0x4 DUP3 ADD MSTORE PUSH1 0x24 DUP2 ADD DUP7 SWAP1 MSTORE PUSH1 0x44 ADD PUSH2 0x661 JUMP JUMPDEST DUP4 PUSH1 0x1 EQ PUSH2 0xB26 JUMPI PUSH1 0x40 MLOAD PUSH32 0xF789EB2F00000000000000000000000000000000000000000000000000000000 DUP2 MSTORE PUSH1 0x4 DUP2 ADD DUP6 SWAP1 MSTORE PUSH1 0x1 PUSH1 0x24 DUP3 ADD MSTORE PUSH1 0x44 ADD PUSH2 0x661 JUMP JUMPDEST PUSH20 0xFFFFFFFFFFFFFFFFFFFFFFFFFFFFFFFFFFFFFFFF DUP7 AND PUSH1 0x0 SWAP1 DUP2 MSTORE PUSH1 0x3 PUSH1 0x20 MSTORE PUSH1 0x40 SWAP1 KECCAK256 SLOAD DUP3 ISZERO PUSH2 0xB76 JUMPI PUSH1 0x0 DUP1 PUSH2 0xB61 DUP6 DUP8 ADD DUP8 PUSH2 0x153F JUMP JUMPDEST SWAP2 POP SWAP2 POP PUSH2 0xB71 DUP3 DUP11 DUP6 DUP5 PUSH2 0xDB8 JUMP JUMPDEST SWAP3 POP POP POP JUMPDEST PUSH16 0xFFFFFFFFFFFFFFFFFFFFFFFFFFFFFFFF DUP2 AND ISZERO PUSH2 0xBD8 JUMPI PUSH1 0x40 MLOAD PUSH32 0x3A0028700000000000000000000000000000000000000000000000000000000 DUP2 MSTORE PUSH20 0xFFFFFFFFFFFFFFFFFFFFFFFFFFFFFFFFFFFFFFFF DUP9 AND PUSH1 0x4 DUP3 ADD MSTORE PUSH1 0x24 ADD PUSH2 0x661 JUMP JUMPDEST PUSH20 0xFFFFFFFFFFFFFFFFFFFFFFFFFFFFFFFFFFFFFFFF DUP8 AND PUSH1 0x0 DUP2 DUP2 MSTORE PUSH1 0x3 PUSH1 0x20 SWAP1 DUP2 MSTORE PUSH1 0x40 SWAP2 DUP3 SWAP1 KECCAK256 PUSH32 0x0 PUSH32 0xFFFFFFFFFFFFFFFFFFFFFFFFFFFFFFFF00000000000000000000000000000000 DUP7 AND OR SWAP1 DUP2 SWAP1 SSTORE DUP3 MLOAD DUP6 DUP2 MSTORE SWAP2 DUP3 ADD DUP2 SWAP1 MSTORE SWAP3 SWAP2 PUSH32 0x54519572E3429998E82594D8B7F18C8099087447D701CBAA619B5E26F6DE47EB SWAP2 ADD PUSH1 0x40 MLOAD DUP1 SWAP2 SUB SWAP1 LOG2 POP PUSH32 0xF23A6E6100000000000000000000000000000000000000000000000000000000 SWAP9 SWAP8 POP POP POP POP POP POP POP POP JUMP JUMPDEST PUSH1 0x0 DUP1 PUSH2 0x527 PUSH1 0x1 PUSH32 0xCA9D3E17F264B0F3984E2634E94ADB37FA3E6A8103F06AEAE6FA59E21C769F5E PUSH2 0x138B JUMP JUMPDEST PUSH1 0x0 PUSH29 0x100000000000000000000000000000000000000000000000000000000 PUSH32 0xFFFFFFFF00000000000000000000000000000000000000000000000000000000 DUP4 AND ADD PUSH2 0xD2E JUMPI POP PUSH1 0x0 PUSH2 0x527 JUMP JUMPDEST PUSH32 0xFE00365900000000000000000000000000000000000000000000000000000000 PUSH32 0xFFFFFFFF00000000000000000000000000000000000000000000000000000000 DUP4 AND ADD PUSH2 0xD7F JUMPI POP PUSH1 0x1 PUSH2 0x527 JUMP JUMPDEST POP PUSH32 0xFFFFFFFF00000000000000000000000000000000000000000000000000000000 AND PUSH1 0x0 SWAP1 DUP2 MSTORE PUSH1 0x20 SWAP2 SWAP1 SWAP2 MSTORE PUSH1 0x40 SWAP1 KECCAK256 SLOAD PUSH1 0xFF AND SWAP1 JUMP JUMPDEST PUSH1 0x0 PUSH1 0x80 DUP4 SWAP1 SHR ISZERO PUSH2 0xE0E JUMPI PUSH1 0x40 MLOAD PUSH32 0x18ED059000000000000000000000000000000000000000000000000000000000 DUP2 MSTORE PUSH20 0xFFFFFFFFFFFFFFFFFFFFFFFFFFFFFFFFFFFFFFFF DUP6 AND PUSH1 0x4 DUP3 ADD MSTORE PUSH1 0x24 ADD PUSH2 0x661 JUMP JUMPDEST PUSH1 0x40 MLOAD PUSH32 0xFFFFFFFFFFFFFFFFFFFFFFFFFFFFFFFFFFFFFFFF000000000000000000000000 PUSH1 0x60 DUP7 SWAP1 SHL AND PUSH1 0x20 DUP3 ADD MSTORE PUSH1 0x34 DUP2 ADD DUP4 SWAP1 MSTORE PUSH1 0x0 SWAP1 PUSH1 0x54 ADD PUSH1 0x40 DUP1 MLOAD PUSH32 0xFFFFFFFFFFFFFFFFFFFFFFFFFFFFFFFFFFFFFFFFFFFFFFFFFFFFFFFFFFFFFFE0 DUP2 DUP5 SUB ADD DUP2 MSTORE SWAP2 DUP2 MSTORE DUP2 MLOAD PUSH1 0x20 SWAP3 DUP4 ADD KECCAK256 PUSH1 0x0 DUP2 DUP2 MSTORE PUSH1 0x2 SWAP1 SWAP4 MSTORE SWAP2 KECCAK256 SLOAD SWAP1 SWAP2 POP PUSH1 0xFF AND ISZERO PUSH2 0xECD JUMPI PUSH1 0x40 MLOAD PUSH32 0x689301E800000000000000000000000000000000000000000000000000000000 DUP2 MSTORE PUSH1 0x4 DUP2 ADD DUP3 SWAP1 MSTORE PUSH1 0x24 ADD PUSH2 0x661 JUMP JUMPDEST PUSH2 0xEF8 DUP7 PUSH32 0x0 DUP4 PUSH2 0xFE9 JUMP JUMPDEST PUSH2 0xF2E JUMPI PUSH1 0x40 MLOAD PUSH32 0x9BDE33900000000000000000000000000000000000000000000000000000000 DUP2 MSTORE PUSH1 0x4 ADD PUSH1 0x40 MLOAD DUP1 SWAP2 SUB SWAP1 REVERT JUMPDEST PUSH20 0xFFFFFFFFFFFFFFFFFFFFFFFFFFFFFFFFFFFFFFFF DUP6 AND PUSH1 0x0 DUP2 DUP2 MSTORE PUSH1 0x3 PUSH1 0x20 SWAP1 DUP2 MSTORE PUSH1 0x40 DUP1 DUP4 KECCAK256 PUSH16 0xFFFFFFFFFFFFFFFFFFFFFFFFFFFFFFFF DUP10 AND PUSH1 0x80 DUP10 SWAP1 SHL OR SWAP1 DUP2 SWAP1 SSTORE DUP6 DUP5 MSTORE PUSH1 0x2 DUP4 MSTORE SWAP3 DUP2 SWAP1 KECCAK256 DUP1 SLOAD PUSH32 0xFFFFFFFFFFFFFFFFFFFFFFFFFFFFFFFFFFFFFFFFFFFFFFFFFFFFFFFFFFFFFF00 AND PUSH1 0x1 OR SWAP1 SSTORE DUP1 MLOAD DUP9 DUP2 MSTORE SWAP2 DUP3 ADD DUP4 SWAP1 MSTORE SWAP2 SWAP5 POP PUSH32 0x54519572E3429998E82594D8B7F18C8099087447D701CBAA619B5E26F6DE47EB SWAP2 ADD PUSH1 0x40 MLOAD DUP1 SWAP2 SUB SWAP1 LOG2 POP SWAP5 SWAP4 POP POP POP POP JUMP JUMPDEST PUSH1 0x0 DUP3 PUSH2 0xFF6 DUP6 DUP5 PUSH2 0xFFF JUMP JUMPDEST EQ SWAP5 SWAP4 POP POP POP POP JUMP JUMPDEST PUSH1 0x0 DUP2 DUP2 JUMPDEST DUP5 MLOAD DUP2 LT ISZERO PUSH2 0x103A JUMPI PUSH2 0x1030 DUP3 DUP7 DUP4 DUP2 MLOAD DUP2 LT PUSH2 0x1023 JUMPI PUSH2 0x1023 PUSH2 0x13D9 JUMP JUMPDEST PUSH1 0x20 MUL PUSH1 0x20 ADD ADD MLOAD PUSH2 0x1042 JUMP JUMPDEST SWAP2 POP PUSH1 0x1 ADD PUSH2 0x1004 JUMP JUMPDEST POP SWAP4 SWAP3 POP POP POP JUMP JUMPDEST PUSH1 0x0 DUP2 DUP4 LT PUSH2 0x105E JUMPI PUSH1 0x0 DUP3 DUP2 MSTORE PUSH1 0x20 DUP5 SWAP1 MSTORE PUSH1 0x40 SWAP1 KECCAK256 PUSH2 0x106D JUMP JUMPDEST PUSH1 0x0 DUP4 DUP2 MSTORE PUSH1 0x20 DUP4 SWAP1 MSTORE PUSH1 0x40 SWAP1 KECCAK256 JUMPDEST SWAP4 SWAP3 POP POP POP JUMP JUMPDEST PUSH1 0x0 PUSH1 0x20 DUP3 DUP5 SUB SLT ISZERO PUSH2 0x1086 JUMPI PUSH1 0x0 DUP1 REVERT JUMPDEST DUP2 CALLDATALOAD PUSH32 0xFFFFFFFF00000000000000000000000000000000000000000000000000000000 DUP2 AND DUP2 EQ PUSH2 0x106D JUMPI PUSH1 0x0 DUP1 REVERT JUMPDEST PUSH1 0x0 DUP1 DUP4 PUSH1 0x1F DUP5 ADD SLT PUSH2 0x10C8 JUMPI PUSH1 0x0 DUP1 REVERT JUMPDEST POP DUP2 CALLDATALOAD PUSH8 0xFFFFFFFFFFFFFFFF DUP2 GT ISZERO PUSH2 0x10E0 JUMPI PUSH1 0x0 DUP1 REVERT JUMPDEST PUSH1 0x20 DUP4 ADD SWAP2 POP DUP4 PUSH1 0x20 DUP3 PUSH1 0x5 SHL DUP6 ADD ADD GT ISZERO PUSH2 0x10FB JUMPI PUSH1 0x0 DUP1 REVERT JUMPDEST SWAP3 POP SWAP3 SWAP1 POP JUMP JUMPDEST DUP1 CALLDATALOAD PUSH20 0xFFFFFFFFFFFFFFFFFFFFFFFFFFFFFFFFFFFFFFFF DUP2 AND DUP2 EQ PUSH2 0x1126 JUMPI PUSH1 0x0 DUP1 REVERT JUMPDEST SWAP2 SWAP1 POP JUMP JUMPDEST PUSH1 0x0 DUP1 PUSH1 0x0 DUP1 PUSH1 0x60 DUP6 DUP8 SUB SLT ISZERO PUSH2 0x1141 JUMPI PUSH1 0x0 DUP1 REVERT JUMPDEST DUP5 CALLDATALOAD PUSH8 0xFFFFFFFFFFFFFFFF DUP2 GT ISZERO PUSH2 0x1158 JUMPI PUSH1 0x0 DUP1 REVERT JUMPDEST PUSH2 0x1164 DUP8 DUP3 DUP9 ADD PUSH2 0x10B6 JUMP JUMPDEST SWAP1 SWAP6 POP SWAP4 POP PUSH2 0x1177 SWAP1 POP PUSH1 0x20 DUP7 ADD PUSH2 0x1102 JUMP JUMPDEST SWAP4 SWAP7 SWAP3 SWAP6 POP SWAP3 SWAP4 PUSH1 0x40 ADD CALLDATALOAD SWAP3 POP POP JUMP JUMPDEST PUSH1 0x0 PUSH1 0x20 DUP3 DUP5 SUB SLT ISZERO PUSH2 0x1199 JUMPI PUSH1 0x0 DUP1 REVERT JUMPDEST PUSH2 0x106D DUP3 PUSH2 0x1102 JUMP JUMPDEST PUSH1 0x0 DUP1 DUP4 PUSH1 0x1F DUP5 ADD SLT PUSH2 0x11B4 JUMPI PUSH1 0x0 DUP1 REVERT JUMPDEST POP DUP2 CALLDATALOAD PUSH8 0xFFFFFFFFFFFFFFFF DUP2 GT ISZERO PUSH2 0x11CC JUMPI PUSH1 0x0 DUP1 REVERT JUMPDEST PUSH1 0x20 DUP4 ADD SWAP2 POP DUP4 PUSH1 0x20 DUP3 DUP6 ADD ADD GT ISZERO PUSH2 0x10FB JUMPI PUSH1 0x0 DUP1 REVERT JUMPDEST PUSH1 0x0 DUP1 PUSH1 0x0 DUP1 PUSH1 0x0 DUP1 PUSH1 0x0 DUP1 PUSH1 0xA0 DUP10 DUP12 SUB SLT ISZERO PUSH2 0x1200 JUMPI PUSH1 0x0 DUP1 REVERT JUMPDEST PUSH2 0x1209 DUP10 PUSH2 0x1102 JUMP JUMPDEST SWAP8 POP PUSH2 0x1217 PUSH1 0x20 DUP11 ADD PUSH2 0x1102 JUMP JUMPDEST SWAP7 POP PUSH1 0x40 DUP10 ADD CALLDATALOAD PUSH8 0xFFFFFFFFFFFFFFFF DUP1 DUP3 GT ISZERO PUSH2 0x1234 JUMPI PUSH1 0x0 DUP1 REVERT JUMPDEST PUSH2 0x1240 DUP13 DUP4 DUP14 ADD PUSH2 0x10B6 JUMP JUMPDEST SWAP1 SWAP9 POP SWAP7 POP PUSH1 0x60 DUP12 ADD CALLDATALOAD SWAP2 POP DUP1 DUP3 GT ISZERO PUSH2 0x1259 JUMPI PUSH1 0x0 DUP1 REVERT JUMPDEST PUSH2 0x1265 DUP13 DUP4 DUP14 ADD PUSH2 0x10B6 JUMP JUMPDEST SWAP1 SWAP7 POP SWAP5 POP PUSH1 0x80 DUP12 ADD CALLDATALOAD SWAP2 POP DUP1 DUP3 GT ISZERO PUSH2 0x127E JUMPI PUSH1 0x0 DUP1 REVERT JUMPDEST POP PUSH2 0x128B DUP12 DUP3 DUP13 ADD PUSH2 0x11A2 JUMP JUMPDEST SWAP10 SWAP13 SWAP9 SWAP12 POP SWAP7 SWAP10 POP SWAP5 SWAP8 SWAP4 SWAP7 SWAP3 SWAP6 SWAP5 POP POP POP JUMP JUMPDEST PUSH1 0x0 PUSH1 0x20 DUP3 DUP5 SUB SLT ISZERO PUSH2 0x12B1 JUMPI PUSH1 0x0 DUP1 REVERT JUMPDEST POP CALLDATALOAD SWAP2 SWAP1 POP JUMP JUMPDEST PUSH1 0x0 DUP1 PUSH1 0x0 DUP1 PUSH1 0x0 DUP1 PUSH1 0xA0 DUP8 DUP10 SUB SLT ISZERO PUSH2 0x12D1 JUMPI PUSH1 0x0 DUP1 REVERT JUMPDEST PUSH2 0x12DA DUP8 PUSH2 0x1102 JUMP JUMPDEST SWAP6 POP PUSH2 0x12E8 PUSH1 0x20 DUP9 ADD PUSH2 0x1102 JUMP JUMPDEST SWAP5 POP PUSH1 0x40 DUP8 ADD CALLDATALOAD SWAP4 POP PUSH1 0x60 DUP8 ADD CALLDATALOAD SWAP3 POP PUSH1 0x80 DUP8 ADD CALLDATALOAD PUSH8 0xFFFFFFFFFFFFFFFF DUP2 GT ISZERO PUSH2 0x1312 JUMPI PUSH1 0x0 DUP1 REVERT JUMPDEST PUSH2 0x131E DUP10 DUP3 DUP11 ADD PUSH2 0x11A2 JUMP JUMPDEST SWAP8 SWAP11 SWAP7 SWAP10 POP SWAP5 SWAP8 POP SWAP3 SWAP6 SWAP4 SWAP5 SWAP3 POP POP POP JUMP JUMPDEST PUSH1 0x0 DUP1 PUSH1 0x40 DUP4 DUP6 SUB SLT ISZERO PUSH2 0x1343 JUMPI PUSH1 0x0 DUP1 REVERT JUMPDEST DUP3 CALLDATALOAD SWAP2 POP PUSH2 0x1353 PUSH1 0x20 DUP5 ADD PUSH2 0x1102 JUMP JUMPDEST SWAP1 POP SWAP3 POP SWAP3 SWAP1 POP JUMP JUMPDEST PUSH32 0x4E487B7100000000000000000000000000000000000000000000000000000000 PUSH1 0x0 MSTORE PUSH1 0x11 PUSH1 0x4 MSTORE PUSH1 0x24 PUSH1 0x0 REVERT JUMPDEST DUP2 DUP2 SUB DUP2 DUP2 GT ISZERO PUSH2 0x527 JUMPI PUSH2 0x527 PUSH2 0x135C JUMP JUMPDEST PUSH1 0x0 DUP3 PUSH2 0x13D4 JUMPI PUSH32 0x4E487B7100000000000000000000000000000000000000000000000000000000 PUSH1 0x0 MSTORE PUSH1 0x12 PUSH1 0x4 MSTORE PUSH1 0x24 PUSH1 0x0 REVERT JUMPDEST POP DIV SWAP1 JUMP JUMPDEST PUSH32 0x4E487B7100000000000000000000000000000000000000000000000000000000 PUSH1 0x0 MSTORE PUSH1 0x32 PUSH1 0x4 MSTORE PUSH1 0x24 PUSH1 0x0 REVERT JUMPDEST DUP1 DUP3 MUL DUP2 ISZERO DUP3 DUP3 DIV DUP5 EQ OR PUSH2 0x527 JUMPI PUSH2 0x527 PUSH2 0x135C JUMP JUMPDEST DUP1 DUP3 ADD DUP1 DUP3 GT ISZERO PUSH2 0x527 JUMPI PUSH2 0x527 PUSH2 0x135C JUMP JUMPDEST DUP2 DUP4 MSTORE PUSH1 0x0 PUSH32 0x7FFFFFFFFFFFFFFFFFFFFFFFFFFFFFFFFFFFFFFFFFFFFFFFFFFFFFFFFFFFFFF DUP4 GT ISZERO PUSH2 0x1464 JUMPI PUSH1 0x0 DUP1 REVERT JUMPDEST DUP3 PUSH1 0x5 SHL DUP1 DUP4 PUSH1 0x20 DUP8 ADD CALLDATACOPY SWAP4 SWAP1 SWAP4 ADD PUSH1 0x20 ADD SWAP4 SWAP3 POP POP POP JUMP JUMPDEST PUSH20 0xFFFFFFFFFFFFFFFFFFFFFFFFFFFFFFFFFFFFFFFF DUP7 AND DUP2 MSTORE PUSH1 0x60 PUSH1 0x20 DUP3 ADD MSTORE PUSH1 0x0 PUSH2 0x14AD PUSH1 0x60 DUP4 ADD DUP7 DUP9 PUSH2 0x1432 JUMP JUMPDEST DUP3 DUP2 SUB PUSH1 0x40 DUP5 ADD MSTORE PUSH2 0x14C0 DUP2 DUP6 DUP8 PUSH2 0x1432 JUMP JUMPDEST SWAP9 SWAP8 POP POP POP POP POP POP POP POP JUMP JUMPDEST DUP8 DUP2 MSTORE PUSH1 0xA0 PUSH1 0x20 DUP3 ADD MSTORE PUSH1 0x0 PUSH2 0x14E6 PUSH1 0xA0 DUP4 ADD DUP9 DUP11 PUSH2 0x1432 JUMP JUMPDEST DUP3 DUP2 SUB PUSH1 0x40 DUP5 ADD MSTORE PUSH2 0x14F9 DUP2 DUP8 DUP10 PUSH2 0x1432 JUMP JUMPDEST PUSH1 0x60 DUP5 ADD SWAP6 SWAP1 SWAP6 MSTORE POP POP PUSH1 0x80 ADD MSTORE SWAP6 SWAP5 POP POP POP POP POP JUMP JUMPDEST PUSH32 0x4E487B7100000000000000000000000000000000000000000000000000000000 PUSH1 0x0 MSTORE PUSH1 0x41 PUSH1 0x4 MSTORE PUSH1 0x24 PUSH1 0x0 REVERT JUMPDEST PUSH1 0x0 DUP1 PUSH1 0x40 DUP4 DUP6 SUB SLT ISZERO PUSH2 0x1552 JUMPI PUSH1 0x0 DUP1 REVERT JUMPDEST DUP3 CALLDATALOAD PUSH8 0xFFFFFFFFFFFFFFFF DUP1 DUP3 GT ISZERO PUSH2 0x156A JUMPI PUSH1 0x0 DUP1 REVERT JUMPDEST DUP2 DUP6 ADD SWAP2 POP DUP6 PUSH1 0x1F DUP4 ADD SLT PUSH2 0x157E JUMPI PUSH1 0x0 DUP1 REVERT JUMPDEST DUP2 CALLDATALOAD PUSH1 0x20 DUP3 DUP3 GT ISZERO PUSH2 0x1592 JUMPI PUSH2 0x1592 PUSH2 0x1510 JUMP JUMPDEST DUP2 PUSH1 0x5 SHL PUSH1 0x40 MLOAD PUSH32 0xFFFFFFFFFFFFFFFFFFFFFFFFFFFFFFFFFFFFFFFFFFFFFFFFFFFFFFFFFFFFFFE0 PUSH1 0x3F DUP4 ADD AND DUP2 ADD DUP2 DUP2 LT DUP7 DUP3 GT OR ISZERO PUSH2 0x15D5 JUMPI PUSH2 0x15D5 PUSH2 0x1510 JUMP JUMPDEST PUSH1 0x40 MSTORE SWAP3 DUP4 MSTORE DUP2 DUP4 ADD SWAP4 POP DUP5 DUP2 ADD DUP3 ADD SWAP3 DUP10 DUP5 GT ISZERO PUSH2 0x15F3 JUMPI PUSH1 0x0 DUP1 REVERT JUMPDEST SWAP5 DUP3 ADD SWAP5 JUMPDEST DUP4 DUP7 LT ISZERO PUSH2 0x1611 JUMPI DUP6 CALLDATALOAD DUP6 MSTORE SWAP5 DUP3 ADD SWAP5 SWAP4 DUP3 ADD SWAP4 PUSH2 0x15F8 JUMP JUMPDEST SWAP10 SWAP8 SWAP1 SWAP2 ADD CALLDATALOAD SWAP8 POP POP POP POP POP POP POP JUMP INVALID LOG2 PUSH5 0x6970667358 0x22 SLT KECCAK256 SWAP2 0xE0 0xEE 0xB8 PUSH15 0x61D8253186C76308CC42D60748F95D SAR 0xE3 0xE4 0xDE AND JUMPI COINBASE 0x21 0xFB EXP 0xF6 PUSH25 0x64736F6C634300081600330000000000000000000000000000 "},"gasEstimates":{"creation":{"codeDepositCost":"1143800","executionCost":"infinite","totalCost":"infinite"},"external":{"CYCLE_DURATION()":"infinite","DENOMINATOR()":"infinite","INITIAL_TIME()":"infinite","MAX_CYCLE()":"infinite","MERKLE_ROOT()":"infinite","MISSING_ORB()":"infinite","MISSING_ORB_TOKEN_ID()":"infinite","SOURCE_TOKEN()":"infinite","TOKEN_MULTIPLIER()":"infinite","currentCycle()":"infinite","forwarderRegistry()":"infinite","getMultiplierInfo(address)":"2631","isTrustedForwarder(address)":"infinite","leafConsumptionStatus(bytes32)":"2528","multiplierInfos(address)":"2552","onERC1155BatchReceived(address,address,uint256[],uint256[],bytes)":"infinite","onERC1155Received(address,address,uint256,uint256,bytes)":"infinite","setAnichessGameMultiplierNumerator(bytes32[],address,uint256)":"infinite","supportsInterface(bytes4)":"infinite","tokenWeights(uint256)":"2504","userAshByCycle(uint256,address)":"2693"},"internal":{"_msgData()":"infinite","_msgSender()":"infinite","_setAnichessGameMultiplierNumerator(bytes32[] memory,address,uint256,uint256)":"infinite","_setTokenWeights(uint256[] memory,uint256[] memory)":"infinite"}},"methodIdentifiers":{"CYCLE_DURATION()":"cd421fbf","DENOMINATOR()":"918f8674","INITIAL_TIME()":"491bde66","MAX_CYCLE()":"043063bc","MERKLE_ROOT()":"51e75e8b","MISSING_ORB()":"cd18a34f","MISSING_ORB_TOKEN_ID()":"1de0e40b","SOURCE_TOKEN()":"72d69aa0","TOKEN_MULTIPLIER()":"2b093fe9","currentCycle()":"bab2f552","forwarderRegistry()":"2b4c9f16","getMultiplierInfo(address)":"7e26d0cd","isTrustedForwarder(address)":"572b6c05","leafConsumptionStatus(bytes32)":"e1c96c20","multiplierInfos(address)":"b28fd6e6","onERC1155BatchReceived(address,address,uint256[],uint256[],bytes)":"bc197c81","onERC1155Received(address,address,uint256,uint256,bytes)":"f23a6e61","setAnichessGameMultiplierNumerator(bytes32[],address,uint256)":"24190c6e","supportsInterface(bytes4)":"01ffc9a7","tokenWeights(uint256)":"f5f69112","userAshByCycle(uint256,address)":"fa9fdc6a"}},"storageLayout":{"storage":[{"astId":1032,"contract":"contracts/burn/AnichessOrbsBurnPool.sol:AnichessOrbsBurnPool","label":"totalAshByCycle","offset":0,"slot":"0","type":"t_mapping(t_uint256,t_uint256)"},{"astId":1039,"contract":"contracts/burn/AnichessOrbsBurnPool.sol:AnichessOrbsBurnPool","label":"userAshByCycle","offset":0,"slot":"1","type":"t_mapping(t_uint256,t_mapping(t_address,t_uint256))"},{"astId":1044,"contract":"contracts/burn/AnichessOrbsBurnPool.sol:AnichessOrbsBurnPool","label":"leafConsumptionStatus","offset":0,"slot":"2","type":"t_mapping(t_bytes32,t_bool)"},{"astId":1049,"contract":"contracts/burn/AnichessOrbsBurnPool.sol:AnichessOrbsBurnPool","label":"multiplierInfos","offset":0,"slot":"3","type":"t_mapping(t_address,t_uint256)"},{"astId":1054,"contract":"contracts/burn/AnichessOrbsBurnPool.sol:AnichessOrbsBurnPool","label":"tokenWeights","offset":0,"slot":"4","type":"t_mapping(t_uint256,t_uint256)"}],"types":{"t_address":{"encoding":"inplace","label":"address","numberOfBytes":"20"},"t_bool":{"encoding":"inplace","label":"bool","numberOfBytes":"1"},"t_bytes32":{"encoding":"inplace","label":"bytes32","numberOfBytes":"32"},"t_mapping(t_address,t_uint256)":{"encoding":"mapping","key":"t_address","label":"mapping(address => uint256)","numberOfBytes":"32","value":"t_uint256"},"t_mapping(t_bytes32,t_bool)":{"encoding":"mapping","key":"t_bytes32","label":"mapping(bytes32 => bool)","numberOfBytes":"32","value":"t_bool"},"t_mapping(t_uint256,t_mapping(t_address,t_uint256))":{"encoding":"mapping","key":"t_uint256","label":"mapping(uint256 => mapping(address => uint256))","numberOfBytes":"32","value":"t_mapping(t_address,t_uint256)"},"t_mapping(t_uint256,t_uint256)":{"encoding":"mapping","key":"t_uint256","label":"mapping(uint256 => uint256)","numberOfBytes":"32","value":"t_uint256"},"t_uint256":{"encoding":"inplace","label":"uint256","numberOfBytes":"32"}}},"userdoc":{"errors":{"AlreadyConsumedLeaf(bytes32)":[{"notice":"Error thrown when the leaf is already consumed."}],"AlreadySetAnichessGameMultiplierNumerator(address)":[{"notice":"Error thrown when the payout has already been claimed."}],"AlreadySetTokenWeight(uint256)":[{"notice":"Error thrown when the token weight is already set."}],"AlreadyUnlockedTokenMultiplier(address)":[{"notice":"Error thrown when the wallet already has the token multiplier unlocked."}],"IllegalInterfaceId()":[{"notice":"Thrown when setting the illegal interfaceId 0xffffffff."}],"InconsistentArrays()":[{"notice":"Error thrown when the array lengths are inconsistent."}],"InvalidCycle(uint256)":[{"notice":"Error thrown when the cycle is invalid."}],"InvalidProof()":[{"notice":"Error thrown when the proof is invalid."}],"InvalidToken(address)":[{"notice":"Error thrown when the token is not approved."}],"InvalidTokenAmount(uint256,uint256)":[{"notice":"Error thrown when the token amount is invalid."}],"InvalidTokenId(address,uint256)":[{"notice":"Error thrown when the token ID is invalid."}],"ZeroCycleDuration()":[{"notice":"Error thrown when the cycle duration is invalid."}],"ZeroMaxCycle()":[{"notice":"Error thrown when the cycle is invalid."}]},"events":{"AshGenerated(address,uint256,uint256,uint256[],uint256[],uint256,uint256)":{"notice":"Event emitted when ASH are generated."},"UpdateMultiplierInfo(address,uint256,uint256)":{"notice":"Event emitted when the multiplier info is updated."}},"kind":"user","methods":{"CYCLE_DURATION()":{"notice":"The duration of each cycle."},"DENOMINATOR()":{"notice":"The denominator for the multiplier."},"INITIAL_TIME()":{"notice":"The initial time of the contract."},"MAX_CYCLE()":{"notice":"The maximum cycle."},"MERKLE_ROOT()":{"notice":"The Merkle root for setting the anichess game multiplier."},"MISSING_ORB()":{"notice":"The IERC1155 erc1155 contract for unlocking the token multiplier."},"MISSING_ORB_TOKEN_ID()":{"notice":"The token ID of RoC for unlocking the token multiplier."},"SOURCE_TOKEN()":{"notice":"The IERC1155Burnable erc1155 contracts burn to generate ASH."},"TOKEN_MULTIPLIER()":{"notice":"The token multiplier."},"constructor":{"notice":"Constructor for the AnichessOrbsBurnPool contract."},"currentCycle()":{"notice":"Get the current cycle."},"getMultiplierInfo(address)":{"notice":"Get the multiplier info for a wallet."},"isTrustedForwarder(address)":{"notice":"Checks whether a forwarder is trusted."},"leafConsumptionStatus(bytes32)":{"notice":"The merkle leaf consumption status for the anichess game multiplier."},"multiplierInfos(address)":{"notice":"The multiplier info for each user, first 128 bits are the anichess game multiplier numerator, last 128 bits are the token multiplier."},"onERC1155BatchReceived(address,address,uint256[],uint256[],bytes)":{"notice":"Burn the tokens and calculate the ash."},"onERC1155Received(address,address,uint256,uint256,bytes)":{"notice":"Unlock the token multiplier by burning the Riddle of Chaos."},"setAnichessGameMultiplierNumerator(bytes32[],address,uint256)":{"notice":"Set the AnichessGame multiplier through a Merkle proof."},"supportsInterface(bytes4)":{"notice":"Returns whether this contract implements a given interface."},"tokenWeights(uint256)":{"notice":"The token weights for calculating Ash."},"userAshByCycle(uint256,address)":{"notice":"The total amount of ASH generated by each user in each cycle."}},"version":1}}}}