{"contracts/staking/CStakingPool.sol":{"CStakingPool":{"abi":[{"inputs":[{"internalType":"contract IERC20","name":"cToken","type":"address"},{"internalType":"address","name":"claimContract","type":"address"},{"internalType":"contract IPoints","name":"pointsContract","type":"address"},{"internalType":"bytes32","name":"depositReasonCode","type":"bytes32"},{"internalType":"contract IForwarderRegistry","name":"forwarderRegistry","type":"address"}],"stateMutability":"nonpayable","type":"constructor"},{"inputs":[],"name":"IllegalInterfaceId","type":"error"},{"inputs":[],"name":"InvalidDuration","type":"error"},{"inputs":[],"name":"InvalidRewardAmount","type":"error"},{"inputs":[],"name":"InvalidStakeAmount","type":"error"},{"inputs":[],"name":"InvalidToken","type":"error"},{"inputs":[],"name":"InvalidTransferOperator","type":"error"},{"inputs":[],"name":"InvalidWithdrawAmount","type":"error"},{"inputs":[{"internalType":"address","name":"account","type":"address"}],"name":"NotContractOwner","type":"error"},{"inputs":[{"internalType":"bytes32","name":"role","type":"bytes32"},{"internalType":"address","name":"account","type":"address"}],"name":"NotRoleHolder","type":"error"},{"inputs":[],"name":"OnlyReceiverInterface","type":"error"},{"inputs":[],"name":"ReentrancyGuardReentrantCall","type":"error"},{"inputs":[{"internalType":"uint256","name":"reward","type":"uint256"},{"internalType":"uint256","name":"duration","type":"uint256"}],"name":"RewardTooSmallForDuration","type":"error"},{"anonymous":false,"inputs":[{"indexed":true,"internalType":"address","name":"staker","type":"address"},{"indexed":false,"internalType":"bytes","name":"claimData","type":"bytes"},{"indexed":false,"internalType":"uint256","name":"reward","type":"uint256"}],"name":"Claimed","type":"event"},{"anonymous":false,"inputs":[{"indexed":true,"internalType":"address","name":"previousOwner","type":"address"},{"indexed":true,"internalType":"address","name":"newOwner","type":"address"}],"name":"OwnershipTransferred","type":"event"},{"anonymous":false,"inputs":[{"indexed":true,"internalType":"address","name":"rewarder","type":"address"},{"indexed":false,"internalType":"uint256","name":"reward","type":"uint256"},{"indexed":false,"internalType":"uint256","name":"duration","type":"uint256"},{"indexed":false,"internalType":"uint256","name":"dust","type":"uint256"}],"name":"RewardAdded","type":"event"},{"anonymous":false,"inputs":[{"indexed":false,"internalType":"bytes32","name":"role","type":"bytes32"},{"indexed":false,"internalType":"address","name":"account","type":"address"},{"indexed":false,"internalType":"address","name":"operator","type":"address"}],"name":"RoleGranted","type":"event"},{"anonymous":false,"inputs":[{"indexed":false,"internalType":"bytes32","name":"role","type":"bytes32"},{"indexed":false,"internalType":"address","name":"account","type":"address"},{"indexed":false,"internalType":"address","name":"operator","type":"address"}],"name":"RoleRevoked","type":"event"},{"anonymous":false,"inputs":[{"indexed":true,"internalType":"address","name":"staker","type":"address"},{"indexed":false,"internalType":"bytes","name":"stakeData","type":"bytes"},{"indexed":false,"internalType":"uint256","name":"stakePoints","type":"uint256"}],"name":"Staked","type":"event"},{"anonymous":false,"inputs":[{"indexed":true,"internalType":"address","name":"staker","type":"address"},{"indexed":false,"internalType":"bytes","name":"withdrawData","type":"bytes"},{"indexed":false,"internalType":"uint256","name":"stakePoints","type":"uint256"}],"name":"Withdrawn","type":"event"},{"inputs":[],"name":"CLAIM_CONTRACT","outputs":[{"internalType":"address","name":"","type":"address"}],"stateMutability":"view","type":"function"},{"inputs":[],"name":"C_TOKEN","outputs":[{"internalType":"contract IERC20","name":"","type":"address"}],"stateMutability":"view","type":"function"},{"inputs":[],"name":"DEPOSIT_REASON_CODE","outputs":[{"internalType":"bytes32","name":"","type":"bytes32"}],"stateMutability":"view","type":"function"},{"inputs":[],"name":"POINTS_CONTRACT","outputs":[{"internalType":"contract IPoints","name":"","type":"address"}],"stateMutability":"view","type":"function"},{"inputs":[],"name":"REWARDER_ROLE","outputs":[{"internalType":"bytes32","name":"","type":"bytes32"}],"stateMutability":"view","type":"function"},{"inputs":[],"name":"SCALING_FACTOR","outputs":[{"internalType":"uint256","name":"","type":"uint256"}],"stateMutability":"view","type":"function"},{"inputs":[{"internalType":"uint256","name":"reward","type":"uint256"},{"internalType":"uint256","name":"duration","type":"uint256"}],"name":"addReward","outputs":[],"stateMutability":"payable","type":"function"},{"inputs":[],"name":"claim","outputs":[],"stateMutability":"nonpayable","type":"function"},{"inputs":[],"name":"distributionEnd","outputs":[{"internalType":"uint256","name":"","type":"uint256"}],"stateMutability":"view","type":"function"},{"inputs":[{"internalType":"address","name":"account","type":"address"}],"name":"earned","outputs":[{"internalType":"uint256","name":"","type":"uint256"}],"stateMutability":"view","type":"function"},{"inputs":[],"name":"forwarderRegistry","outputs":[{"internalType":"contract IForwarderRegistry","name":"","type":"address"}],"stateMutability":"view","type":"function"},{"inputs":[{"internalType":"bytes32","name":"role","type":"bytes32"},{"internalType":"address","name":"account","type":"address"}],"name":"grantRole","outputs":[],"stateMutability":"nonpayable","type":"function"},{"inputs":[{"internalType":"bytes32","name":"role","type":"bytes32"},{"internalType":"address","name":"account","type":"address"}],"name":"hasRole","outputs":[{"internalType":"bool","name":"hasRole_","type":"bool"}],"stateMutability":"view","type":"function"},{"inputs":[{"internalType":"address","name":"forwarder","type":"address"}],"name":"isTrustedForwarder","outputs":[{"internalType":"bool","name":"","type":"bool"}],"stateMutability":"view","type":"function"},{"inputs":[],"name":"lastTimeRewardApplicable","outputs":[{"internalType":"uint256","name":"","type":"uint256"}],"stateMutability":"view","type":"function"},{"inputs":[],"name":"lastUpdated","outputs":[{"internalType":"uint256","name":"","type":"uint256"}],"stateMutability":"view","type":"function"},{"inputs":[{"internalType":"address","name":"operator","type":"address"},{"internalType":"address","name":"","type":"address"},{"internalType":"uint256","name":"value","type":"uint256"},{"internalType":"bytes","name":"data","type":"bytes"}],"name":"onERC20Received","outputs":[{"internalType":"bytes4","name":"","type":"bytes4"}],"stateMutability":"nonpayable","type":"function"},{"inputs":[],"name":"owner","outputs":[{"internalType":"address","name":"","type":"address"}],"stateMutability":"view","type":"function"},{"inputs":[{"internalType":"bytes32","name":"role","type":"bytes32"}],"name":"renounceRole","outputs":[],"stateMutability":"nonpayable","type":"function"},{"inputs":[{"internalType":"bytes32","name":"role","type":"bytes32"},{"internalType":"address","name":"account","type":"address"}],"name":"revokeRole","outputs":[],"stateMutability":"nonpayable","type":"function"},{"inputs":[],"name":"rewardPerStakePoint","outputs":[{"internalType":"uint256","name":"","type":"uint256"}],"stateMutability":"view","type":"function"},{"inputs":[{"internalType":"address","name":"staker","type":"address"}],"name":"rewardPerStakePointPaid","outputs":[{"internalType":"uint256","name":"paid","type":"uint256"}],"stateMutability":"view","type":"function"},{"inputs":[],"name":"rewardPerStakePointStored","outputs":[{"internalType":"uint256","name":"","type":"uint256"}],"stateMutability":"view","type":"function"},{"inputs":[],"name":"rewardRate","outputs":[{"internalType":"uint256","name":"","type":"uint256"}],"stateMutability":"view","type":"function"},{"inputs":[{"internalType":"address","name":"staker","type":"address"}],"name":"rewards","outputs":[{"internalType":"uint256","name":"reward","type":"uint256"}],"stateMutability":"view","type":"function"},{"inputs":[{"internalType":"bytes","name":"","type":"bytes"}],"name":"stake","outputs":[],"stateMutability":"payable","type":"function"},{"inputs":[{"internalType":"address","name":"staker","type":"address"}],"name":"staked","outputs":[{"internalType":"uint256","name":"stakePoints","type":"uint256"}],"stateMutability":"view","type":"function"},{"inputs":[{"internalType":"bytes4","name":"interfaceId","type":"bytes4"}],"name":"supportsInterface","outputs":[{"internalType":"bool","name":"","type":"bool"}],"stateMutability":"view","type":"function"},{"inputs":[],"name":"totalStaked","outputs":[{"internalType":"uint256","name":"","type":"uint256"}],"stateMutability":"view","type":"function"},{"inputs":[{"internalType":"address","name":"newOwner","type":"address"}],"name":"transferOwnership","outputs":[],"stateMutability":"nonpayable","type":"function"},{"inputs":[{"internalType":"bytes","name":"withdrawData","type":"bytes"}],"name":"withdraw","outputs":[],"stateMutability":"nonpayable","type":"function"}],"devdoc":{"errors":{"NotContractOwner(address)":[{"params":{"account":"The account that was checked."}}],"NotRoleHolder(bytes32,address)":[{"params":{"account":"The account that was checked.","role":"The role the caller is missing."}}],"ReentrancyGuardReentrantCall()":[{"details":"Unauthorized reentrant call."}]},"events":{"OwnershipTransferred(address,address)":{"params":{"newOwner":"the new contract owner.","previousOwner":"the previous contract owner."}},"RoleGranted(bytes32,address,address)":{"params":{"account":"The account that has been granted the role.","operator":"The account that granted the role.","role":"The role that has been granted."}},"RoleRevoked(bytes32,address,address)":{"params":{"account":"The account that has been revoked the role.","operator":"The account that revoked the role.","role":"The role that has been revoked."}}},"kind":"dev","methods":{"grantRole(bytes32,address)":{"details":"Reverts with {NotContractOwner} if the sender is not the contract owner.Emits a {RoleGranted} event if the account did not previously have the role.","params":{"account":"The account to grant the role to.","role":"The role to grant."}},"hasRole(bytes32,address)":{"params":{"account":"The account.","role":"The role."},"returns":{"hasRole_":"Whether `account` has `role`."}},"isTrustedForwarder(address)":{"params":{"forwarder":"The forwarder to check."},"returns":{"_0":"True if `forwarder` is trusted, false if not."}},"owner()":{"returns":{"_0":"The address of the contract owner."}},"renounceRole(bytes32)":{"details":"Reverts if `sender` does not have `role`.Emits a {RoleRevoked} event.","params":{"role":"The role to renounce."}},"revokeRole(bytes32,address)":{"details":"Reverts with {NotContractOwner} if the sender is not the contract owner.Emits a {RoleRevoked} event if the account previously had the role.","params":{"account":"The account to revoke the role from.","role":"The role to revoke."}},"supportsInterface(bytes4)":{"details":"Note: This function call must use less than 30 000 gas.","params":{"interfaceId":"the interface identifier to test."},"returns":{"_0":"True if the interface is supported, false if `interfaceId` is `0xffffffff` or if the interface is not supported."}},"transferOwnership(address)":{"details":"Reverts if the sender is not the contract owner.Emits an {OwnershipTransferred} event if `newOwner` is different from the current contract owner.","params":{"newOwner":"The address of the new contract owner. Using the zero address means renouncing ownership."}}},"version":1},"evm":{"bytecode":{"linkReferences":{},"object":"61012060405234801561001157600080fd5b5060405161202c38038061202c833981016040819052610030916101e3565b808080336100468161004061009e565b906100d2565b50600160008190556001600160a01b0390911660805261007a9250634fc3585960e01b9150610073610141565b919061016f565b506001600160a01b0393841660a05291831660c05290911660e0526101005261026f565b6000806100cc60017fc9ed16f33ab3a66c84bfd83099ccb2a8845871e2e1c1928f63797152f0fd54cd61024e565b92915050565b6001600160a01b038116156101285781546001600160a01b0319166001600160a01b03821690811783556040516000907f8be0079c531659141344cd1fd0a4f28419497f9722a3daafe3b4186f6b6457e0908290a35b61013d6307f5828d60e41b6001610073610141565b5050565b6000806100cc60017fca9d3e17f264b0f3984e2634e94adb37fa3e6a8103f06aeae6fa59e21c769f5e61024e565b600160e01b6001600160e01b031983160161019d576040516372c683bb60e01b815260040160405180910390fd5b6001600160e01b03199190911660009081526020929092526040909120805460ff1916911515919091179055565b6001600160a01b03811681146101e057600080fd5b50565b600080600080600060a086880312156101fb57600080fd5b8551610206816101cb565b6020870151909550610217816101cb565b6040870151909450610228816101cb565b606087015160808801519194509250610240816101cb565b809150509295509295909350565b818103818111156100cc57634e487b7160e01b600052601160045260246000fd5b60805160a05160c05160e05161010051611d416102eb600039600081816102f901526112f3015260008181610388015261131c01526000818161049c015261098001526000818161025101528181610927015261192401526000818161032a0152818161044d015281816117b501526118430152611d416000f3fe6080604052600436106101d75760003560e01c806375c93bb91161010257806398807d8411610095578063d547741f11610064578063d547741f14610621578063ef4cadc514610641578063efa90b541461065d578063f2fde38b1461067357600080fd5b806398807d841461059b5780639d696e36146105c8578063c5c8f770146105de578063d0b06f5d1461060b57600080fd5b80638580cf76116100d15780638580cf76146105125780638bb9c5bf146105465780638da5cb5b1461056657806391d148541461057b57600080fd5b806375c93bb9146104be5780637b0a47ee146104d157806380faa57d146104e7578063817b1cd2146104fc57600080fd5b80632c9d0b801161017a5780634e71d92d116101495780634e71d92d146103ca5780634fc35859146103df578063572b6c051461043057806362ba90961461048a57600080fd5b80632c9d0b801461034e5780632d1e0c02146103635780632d4c2f93146103765780632f2ff15d146103aa57600080fd5b80630700037d116101b65780630700037d146102985780630968f264146102c55780632196e445146102e75780632b4c9f161461031b57600080fd5b80628cc262146101dc57806301ffc9a71461020f57806304948ea11461023f575b600080fd5b3480156101e857600080fd5b506101fc6101f73660046119d2565b610693565b6040519081526020015b60405180910390f35b34801561021b57600080fd5b5061022f61022a3660046119ef565b61072a565b6040519015158152602001610206565b34801561024b57600080fd5b506102737f000000000000000000000000000000000000000000000000000000000000000081565b60405173ffffffffffffffffffffffffffffffffffffffff9091168152602001610206565b3480156102a457600080fd5b506101fc6102b33660046119d2565b60076020526000908152604090205481565b3480156102d157600080fd5b506102e56102e0366004611a7a565b61073e565b005b3480156102f357600080fd5b506101fc7f000000000000000000000000000000000000000000000000000000000000000081565b34801561032757600080fd5b507f0000000000000000000000000000000000000000000000000000000000000000610273565b34801561035a57600080fd5b506101fc610789565b6102e5610371366004611a7a565b6107f1565b34801561038257600080fd5b506102737f000000000000000000000000000000000000000000000000000000000000000081565b3480156103b657600080fd5b506102e56103c5366004611abc565b610823565b3480156103d657600080fd5b506102e561085c565b3480156103eb57600080fd5b506103ff6103fa366004611aec565b61090d565b6040517fffffffff000000000000000000000000000000000000000000000000000000009091168152602001610206565b34801561043c57600080fd5b5061022f61044b3660046119d2565b7f000000000000000000000000000000000000000000000000000000000000000073ffffffffffffffffffffffffffffffffffffffff90811691161490565b34801561049657600080fd5b506102737f000000000000000000000000000000000000000000000000000000000000000081565b6102e56104cc366004611b5f565b610a6a565b3480156104dd57600080fd5b506101fc60035481565b3480156104f357600080fd5b506101fc610d44565b34801561050857600080fd5b506101fc60015481565b34801561051e57600080fd5b506101fc7f726577617264657200000000000000000000000000000000000000000000000081565b34801561055257600080fd5b506102e5610561366004611b81565b610d5e565b34801561057257600080fd5b50610273610d7c565b34801561058757600080fd5b5061022f610596366004611abc565b610da8565b3480156105a757600080fd5b506101fc6105b63660046119d2565b60066020526000908152604090205481565b3480156105d457600080fd5b506101fc60045481565b3480156105ea57600080fd5b506101fc6105f93660046119d2565b60086020526000908152604090205481565b34801561061757600080fd5b506101fc60025481565b34801561062d57600080fd5b506102e561063c366004611abc565b610df3565b34801561064d57600080fd5b506101fc670de0b6b3a764000081565b34801561066957600080fd5b506101fc60055481565b34801561067f57600080fd5b506102e561068e3660046119d2565b610e21565b73ffffffffffffffffffffffffffffffffffffffff81166000908152600760209081526040808320546008909252822054670de0b6b3a7640000906106d6610789565b6106e09190611bc9565b73ffffffffffffffffffffffffffffffffffffffff85166000908152600660205260409020546107109190611bdc565b61071a9190611c22565b6107249190611c36565b92915050565b600061072482610738610e3c565b90610e6a565b610785610749610f44565b83838080601f016020809104026020016040519081016040528093929190818152602001838380828437600092019190915250610f4e92505050565b5050565b60015460009080820361079e57505060045490565b80670de0b6b3a76400006003546002546107b6610d44565b6107c09190611bc9565b6107ca9190611bdc565b6107d49190611bdc565b6107de9190611c22565b6004546107eb9190611c36565b91505090565b6040517f7a404b1900000000000000000000000000000000000000000000000000000000815260040160405180910390fd5b600061082d610f44565b90506108418161083b61103a565b90611068565b61085783838361084f6110d3565b929190611101565b505050565b6000610866610f44565b9050610871816111d8565b600061087c82610693565b905080156107855773ffffffffffffffffffffffffffffffffffffffff821660009081526007602052604081208190556108b68383611266565b90508273ffffffffffffffffffffffffffffffffffffffff167f4196decb55b5644a278b6ded1c42a27acb5182aa099b1fd48974bcc0cf263fd58284604051610900929190611c49565b60405180910390a2505050565b60003373ffffffffffffffffffffffffffffffffffffffff7f0000000000000000000000000000000000000000000000000000000000000000161461097e576040517fc1ab6dc100000000000000000000000000000000000000000000000000000000815260040160405180910390fd5b7f000000000000000000000000000000000000000000000000000000000000000073ffffffffffffffffffffffffffffffffffffffff168673ffffffffffffffffffffffffffffffffffffffff1614610a03576040517f926c1d9400000000000000000000000000000000000000000000000000000000815260040160405180910390fd5b6000610a11838501856119d2565b9050610a3e8186604051602001610a2a91815260200190565b60405160208183030381529060405261137e565b507f4fc35859000000000000000000000000000000000000000000000000000000009695505050505050565b6000610a74610f44565b9050610aaa7f726577617264657200000000000000000000000000000000000000000000000082610aa36110d3565b919061146a565b82600003610ae4576040517f3853986500000000000000000000000000000000000000000000000000000000815260040160405180910390fd5b81600003610b1e576040517f7616640100000000000000000000000000000000000000000000000000000000815260040160405180910390fd5b610b2860006111d8565b60055460009081610b398542611c36565b9050814210610bb6576000610b4e8688611c22565b9050868682610b97576040517f99e66a49000000000000000000000000000000000000000000000000000000008152600481019290925260248201526044015b60405180910390fd5b50506003819055610ba88688611cbc565b60058390559350610cdf9050565b818111610c4557610bc74283611bc9565b94506000610bd58688611c22565b9050868682610c19576040517f99e66a4900000000000000000000000000000000000000000000000000000000815260048101929092526024820152604401610b8e565b50508060036000828254610c2d9190611c36565b90915550610c3d90508688611cbc565b935050610cdf565b610c4f8587611c22565b86908690610c92576040517f99e66a4900000000000000000000000000000000000000000000000000000000815260048101929092526024820152604401610b8e565b5060009050610ca14284611bc9565b600354610cae9190611bdc565b90506000610cbc8883611c36565b9050610cc88782611c22565b600355610cd58782611cbc565b6005849055945050505b42600255604080518781526020810187905290810184905273ffffffffffffffffffffffffffffffffffffffff8516907f0727302becd070529b3293f4ec8f553d9f6ae1773f638598db1205fbf89080839060600160405180910390a2505050505050565b600554600090428111610d5757806107eb565b4291505090565b610d79610d69610f44565b82610d726110d3565b91906114f0565b50565b6000610da3610d8961103a565b5473ffffffffffffffffffffffffffffffffffffffff1690565b905090565b6000610dec8383610db76110d3565b60009283526020908152604080842073ffffffffffffffffffffffffffffffffffffffff909316845291905290205460ff1690565b9392505050565b6000610dfd610f44565b9050610e0b8161083b61103a565b610857838383610e196110d3565b929190611594565b610d79610e2c610f44565b82610e3561103a565b919061165e565b60008061072460017fca9d3e17f264b0f3984e2634e94adb37fa3e6a8103f06aeae6fa59e21c769f5e611bc9565b60007c01000000000000000000000000000000000000000000000000000000007fffffffff00000000000000000000000000000000000000000000000000000000831601610eba57506000610724565b7ffe003659000000000000000000000000000000000000000000000000000000007fffffffff00000000000000000000000000000000000000000000000000000000831601610f0b57506001610724565b507fffffffff00000000000000000000000000000000000000000000000000000000166000908152602091909152604090205460ff1690565b6000610da3611772565b610f57826111d8565b6000610f6383836118bf565b905080600003610f9f576040517fdb73cdf000000000000000000000000000000000000000000000000000000000815260040160405180910390fd5b8060016000828254610fb19190611bc9565b909155505073ffffffffffffffffffffffffffffffffffffffff831660009081526006602052604081208054839290610feb908490611bc9565b925050819055508273ffffffffffffffffffffffffffffffffffffffff167faae638dec0d864ccb08558c28981bcfaee41330f57c4911cbe2d8432d0fb729e8383604051610900929190611c49565b60008061072460017fc9ed16f33ab3a66c84bfd83099ccb2a8845871e2e1c1928f63797152f0fd54cd611bc9565b815473ffffffffffffffffffffffffffffffffffffffff828116911614610785576040517f2ef4875e00000000000000000000000000000000000000000000000000000000815273ffffffffffffffffffffffffffffffffffffffff82166004820152602401610b8e565b60008061072460017fc8827d3282af6f37b64c3e9e6f3ac9df286ab0bb0fccd6f8661bf19adb368b23611bc9565b60008381526020858152604080832073ffffffffffffffffffffffffffffffffffffffff8616845290915290205460ff166111d25760008381526020858152604080832073ffffffffffffffffffffffffffffffffffffffff8681168086529184529382902080547fffffffffffffffffffffffffffffffffffffffffffffffffffffffffffffff00166001179055815187815292830152918316918101919091527f2f8788117e7eff1d82e926ec794901d17c78024a50270940304540a733656f0d906060015b60405180910390a15b50505050565b6111e0610789565b600455600554421015806111f5575060015415155b1561120657611202610d44565b6002555b73ffffffffffffffffffffffffffffffffffffffff811615610d795761122b81610693565b73ffffffffffffffffffffffffffffffffffffffff821660009081526007602090815260408083209390935560045460089091529190205550565b60608160405160200161127b91815260200190565b604080518083037fffffffffffffffffffffffffffffffffffffffffffffffffffffffffffffffe0018152908290527f26b3293f00000000000000000000000000000000000000000000000000000000825273ffffffffffffffffffffffffffffffffffffffff8581166004840152602483018590527f000000000000000000000000000000000000000000000000000000000000000060448401529092507f000000000000000000000000000000000000000000000000000000000000000016906326b3293f90606401600060405180830381600087803b15801561136057600080fd5b505af1158015611374573d6000803e3d6000fd5b5050505092915050565b611387826111d8565b6000611393838361199a565b9050806000036113cf576040517f040ef8ec00000000000000000000000000000000000000000000000000000000815260040160405180910390fd5b80600160008282546113e19190611c36565b909155505073ffffffffffffffffffffffffffffffffffffffff83166000908152600660205260408120805483929061141b908490611c36565b925050819055508273ffffffffffffffffffffffffffffffffffffffff167ff4679d394f1f97f1a3df1d73e193866ec5a813168ad5fa6958f9be21b10a594e8383604051610900929190611c49565b60008281526020848152604080832073ffffffffffffffffffffffffffffffffffffffff8516845290915290205460ff16610857576040517f7aa728820000000000000000000000000000000000000000000000000000000081526004810183905273ffffffffffffffffffffffffffffffffffffffff82166024820152604401610b8e565b6114fb83828461146a565b60008181526020848152604080832073ffffffffffffffffffffffffffffffffffffffff86168085529083529281902080547fffffffffffffffffffffffffffffffffffffffffffffffffffffffffffffff0016905580518481529182018390528101919091527ff6391f5c32d9c69d2a47ea670b442974b53935d1edc7fd64eb21e047a839171b9060600160405180910390a1505050565b60008381526020858152604080832073ffffffffffffffffffffffffffffffffffffffff8616845290915290205460ff16156111d25760008381526020858152604080832073ffffffffffffffffffffffffffffffffffffffff8681168086529184529382902080547fffffffffffffffffffffffffffffffffffffffffffffffffffffffffffffff00169055815187815292830152918316918101919091527ff6391f5c32d9c69d2a47ea670b442974b53935d1edc7fd64eb21e047a839171b906060016111c9565b825473ffffffffffffffffffffffffffffffffffffffff90811690831681146116cb576040517f2ef4875e00000000000000000000000000000000000000000000000000000000815273ffffffffffffffffffffffffffffffffffffffff84166004820152602401610b8e565b8173ffffffffffffffffffffffffffffffffffffffff168173ffffffffffffffffffffffffffffffffffffffff16146111d25783547fffffffffffffffffffffffff00000000000000000000000000000000000000001673ffffffffffffffffffffffffffffffffffffffff8381169182178655604051908316907f8be0079c531659141344cd1fd0a4f28419497f9722a3daafe3b4186f6b6457e090600090a350505050565b6000333214806117825750601836105b1561178c57503390565b7fffffffffffffffffffffffffffffffffffffffffffffffffffffffffffffffec36013560601c7f000000000000000000000000000000000000000000000000000000000000000073ffffffffffffffffffffffffffffffffffffffff163314806118ae57506040517f019a202800000000000000000000000000000000000000000000000000000000815273ffffffffffffffffffffffffffffffffffffffff82811660048301523360248301523060448301527f0000000000000000000000000000000000000000000000000000000000000000169063019a202890606401602060405180830381865afa15801561188a573d6000803e3d6000fd5b505050506040513d601f19601f820116820180604052508101906118ae9190611cd0565b156118b857919050565b3391505090565b6000818060200190518101906118d59190611cf2565b6040517fa9059cbb00000000000000000000000000000000000000000000000000000000815273ffffffffffffffffffffffffffffffffffffffff8581166004830152602482018390529192507f00000000000000000000000000000000000000000000000000000000000000009091169063a9059cbb906044016020604051808303816000875af115801561196f573d6000803e3d6000fd5b505050506040513d601f19601f820116820180604052508101906119939190611cd0565b5092915050565b600081806020019051810190610dec9190611cf2565b73ffffffffffffffffffffffffffffffffffffffff81168114610d7957600080fd5b6000602082840312156119e457600080fd5b8135610dec816119b0565b600060208284031215611a0157600080fd5b81357fffffffff0000000000000000000000000000000000000000000000000000000081168114610dec57600080fd5b60008083601f840112611a4357600080fd5b50813567ffffffffffffffff811115611a5b57600080fd5b602083019150836020828501011115611a7357600080fd5b9250929050565b60008060208385031215611a8d57600080fd5b823567ffffffffffffffff811115611aa457600080fd5b611ab085828601611a31565b90969095509350505050565b60008060408385031215611acf57600080fd5b823591506020830135611ae1816119b0565b809150509250929050565b600080600080600060808688031215611b0457600080fd5b8535611b0f816119b0565b94506020860135611b1f816119b0565b935060408601359250606086013567ffffffffffffffff811115611b4257600080fd5b611b4e88828901611a31565b969995985093965092949392505050565b60008060408385031215611b7257600080fd5b50508035926020909101359150565b600060208284031215611b9357600080fd5b5035919050565b7f4e487b7100000000000000000000000000000000000000000000000000000000600052601160045260246000fd5b8181038181111561072457610724611b9a565b808202811582820484141761072457610724611b9a565b7f4e487b7100000000000000000000000000000000000000000000000000000000600052601260045260246000fd5b600082611c3157611c31611bf3565b500490565b8082018082111561072457610724611b9a565b604081526000835180604084015260005b81811015611c775760208187018101516060868401015201611c5a565b5060006060828501015260607fffffffffffffffffffffffffffffffffffffffffffffffffffffffffffffffe0601f8301168401019150508260208301529392505050565b600082611ccb57611ccb611bf3565b500690565b600060208284031215611ce257600080fd5b81518015158114610dec57600080fd5b600060208284031215611d0457600080fd5b505191905056fea2646970667358221220b9e64f8cdb2552b9cb9515a5b950a7c6d288ceefa230af620c9720390888cf7864736f6c634300081c0033","opcodes":"PUSH2 0x120 PUSH1 0x40 MSTORE CALLVALUE DUP1 ISZERO PUSH2 0x11 JUMPI PUSH1 0x0 DUP1 REVERT JUMPDEST POP PUSH1 0x40 MLOAD PUSH2 0x202C CODESIZE SUB DUP1 PUSH2 0x202C DUP4 CODECOPY DUP2 ADD PUSH1 0x40 DUP2 SWAP1 MSTORE PUSH2 0x30 SWAP2 PUSH2 0x1E3 JUMP JUMPDEST DUP1 DUP1 DUP1 CALLER PUSH2 0x46 DUP2 PUSH2 0x40 PUSH2 0x9E JUMP JUMPDEST SWAP1 PUSH2 0xD2 JUMP JUMPDEST POP PUSH1 0x1 PUSH1 0x0 DUP2 SWAP1 SSTORE PUSH1 0x1 PUSH1 0x1 PUSH1 0xA0 SHL SUB SWAP1 SWAP2 AND PUSH1 0x80 MSTORE PUSH2 0x7A SWAP3 POP PUSH4 0x4FC35859 PUSH1 0xE0 SHL SWAP2 POP PUSH2 0x73 PUSH2 0x141 JUMP JUMPDEST SWAP2 SWAP1 PUSH2 0x16F JUMP JUMPDEST POP PUSH1 0x1 PUSH1 0x1 PUSH1 0xA0 SHL SUB SWAP4 DUP5 AND PUSH1 0xA0 MSTORE SWAP2 DUP4 AND PUSH1 0xC0 MSTORE SWAP1 SWAP2 AND PUSH1 0xE0 MSTORE PUSH2 0x100 MSTORE PUSH2 0x26F JUMP JUMPDEST PUSH1 0x0 DUP1 PUSH2 0xCC PUSH1 0x1 PUSH32 0xC9ED16F33AB3A66C84BFD83099CCB2A8845871E2E1C1928F63797152F0FD54CD PUSH2 0x24E JUMP JUMPDEST SWAP3 SWAP2 POP POP JUMP JUMPDEST PUSH1 0x1 PUSH1 0x1 PUSH1 0xA0 SHL SUB DUP2 AND ISZERO PUSH2 0x128 JUMPI DUP2 SLOAD PUSH1 0x1 PUSH1 0x1 PUSH1 0xA0 SHL SUB NOT AND PUSH1 0x1 PUSH1 0x1 PUSH1 0xA0 SHL SUB DUP3 AND SWAP1 DUP2 OR DUP4 SSTORE PUSH1 0x40 MLOAD PUSH1 0x0 SWAP1 PUSH32 0x8BE0079C531659141344CD1FD0A4F28419497F9722A3DAAFE3B4186F6B6457E0 SWAP1 DUP3 SWAP1 LOG3 JUMPDEST PUSH2 0x13D PUSH4 0x7F5828D PUSH1 0xE4 SHL PUSH1 0x1 PUSH2 0x73 PUSH2 0x141 JUMP JUMPDEST POP POP JUMP JUMPDEST PUSH1 0x0 DUP1 PUSH2 0xCC PUSH1 0x1 PUSH32 0xCA9D3E17F264B0F3984E2634E94ADB37FA3E6A8103F06AEAE6FA59E21C769F5E PUSH2 0x24E JUMP JUMPDEST PUSH1 0x1 PUSH1 0xE0 SHL PUSH1 0x1 PUSH1 0x1 PUSH1 0xE0 SHL SUB NOT DUP4 AND ADD PUSH2 0x19D JUMPI PUSH1 0x40 MLOAD PUSH4 0x72C683BB PUSH1 0xE0 SHL DUP2 MSTORE PUSH1 0x4 ADD PUSH1 0x40 MLOAD DUP1 SWAP2 SUB SWAP1 REVERT JUMPDEST PUSH1 0x1 PUSH1 0x1 PUSH1 0xE0 SHL SUB NOT SWAP2 SWAP1 SWAP2 AND PUSH1 0x0 SWAP1 DUP2 MSTORE PUSH1 0x20 SWAP3 SWAP1 SWAP3 MSTORE PUSH1 0x40 SWAP1 SWAP2 KECCAK256 DUP1 SLOAD PUSH1 0xFF NOT AND SWAP2 ISZERO ISZERO SWAP2 SWAP1 SWAP2 OR SWAP1 SSTORE JUMP JUMPDEST PUSH1 0x1 PUSH1 0x1 PUSH1 0xA0 SHL SUB DUP2 AND DUP2 EQ PUSH2 0x1E0 JUMPI PUSH1 0x0 DUP1 REVERT JUMPDEST POP JUMP JUMPDEST PUSH1 0x0 DUP1 PUSH1 0x0 DUP1 PUSH1 0x0 PUSH1 0xA0 DUP7 DUP9 SUB SLT ISZERO PUSH2 0x1FB JUMPI PUSH1 0x0 DUP1 REVERT JUMPDEST DUP6 MLOAD PUSH2 0x206 DUP2 PUSH2 0x1CB JUMP JUMPDEST PUSH1 0x20 DUP8 ADD MLOAD SWAP1 SWAP6 POP PUSH2 0x217 DUP2 PUSH2 0x1CB JUMP JUMPDEST PUSH1 0x40 DUP8 ADD MLOAD SWAP1 SWAP5 POP PUSH2 0x228 DUP2 PUSH2 0x1CB JUMP JUMPDEST PUSH1 0x60 DUP8 ADD MLOAD PUSH1 0x80 DUP9 ADD MLOAD SWAP2 SWAP5 POP SWAP3 POP PUSH2 0x240 DUP2 PUSH2 0x1CB JUMP JUMPDEST DUP1 SWAP2 POP POP SWAP3 SWAP6 POP SWAP3 SWAP6 SWAP1 SWAP4 POP JUMP JUMPDEST DUP2 DUP2 SUB DUP2 DUP2 GT ISZERO PUSH2 0xCC JUMPI PUSH4 0x4E487B71 PUSH1 0xE0 SHL PUSH1 0x0 MSTORE PUSH1 0x11 PUSH1 0x4 MSTORE PUSH1 0x24 PUSH1 0x0 REVERT JUMPDEST PUSH1 0x80 MLOAD PUSH1 0xA0 MLOAD PUSH1 0xC0 MLOAD PUSH1 0xE0 MLOAD PUSH2 0x100 MLOAD PUSH2 0x1D41 PUSH2 0x2EB PUSH1 0x0 CODECOPY PUSH1 0x0 DUP2 DUP2 PUSH2 0x2F9 ADD MSTORE PUSH2 0x12F3 ADD MSTORE PUSH1 0x0 DUP2 DUP2 PUSH2 0x388 ADD MSTORE PUSH2 0x131C ADD MSTORE PUSH1 0x0 DUP2 DUP2 PUSH2 0x49C ADD MSTORE PUSH2 0x980 ADD MSTORE PUSH1 0x0 DUP2 DUP2 PUSH2 0x251 ADD MSTORE DUP2 DUP2 PUSH2 0x927 ADD MSTORE PUSH2 0x1924 ADD MSTORE PUSH1 0x0 DUP2 DUP2 PUSH2 0x32A ADD MSTORE DUP2 DUP2 PUSH2 0x44D ADD MSTORE DUP2 DUP2 PUSH2 0x17B5 ADD MSTORE PUSH2 0x1843 ADD MSTORE PUSH2 0x1D41 PUSH1 0x0 RETURN INVALID PUSH1 0x80 PUSH1 0x40 MSTORE PUSH1 0x4 CALLDATASIZE LT PUSH2 0x1D7 JUMPI PUSH1 0x0 CALLDATALOAD PUSH1 0xE0 SHR DUP1 PUSH4 0x75C93BB9 GT PUSH2 0x102 JUMPI DUP1 PUSH4 0x98807D84 GT PUSH2 0x95 JUMPI DUP1 PUSH4 0xD547741F GT PUSH2 0x64 JUMPI DUP1 PUSH4 0xD547741F EQ PUSH2 0x621 JUMPI DUP1 PUSH4 0xEF4CADC5 EQ PUSH2 0x641 JUMPI DUP1 PUSH4 0xEFA90B54 EQ PUSH2 0x65D JUMPI DUP1 PUSH4 0xF2FDE38B EQ PUSH2 0x673 JUMPI PUSH1 0x0 DUP1 REVERT JUMPDEST DUP1 PUSH4 0x98807D84 EQ PUSH2 0x59B JUMPI DUP1 PUSH4 0x9D696E36 EQ PUSH2 0x5C8 JUMPI DUP1 PUSH4 0xC5C8F770 EQ PUSH2 0x5DE JUMPI DUP1 PUSH4 0xD0B06F5D EQ PUSH2 0x60B JUMPI PUSH1 0x0 DUP1 REVERT JUMPDEST DUP1 PUSH4 0x8580CF76 GT PUSH2 0xD1 JUMPI DUP1 PUSH4 0x8580CF76 EQ PUSH2 0x512 JUMPI DUP1 PUSH4 0x8BB9C5BF EQ PUSH2 0x546 JUMPI DUP1 PUSH4 0x8DA5CB5B EQ PUSH2 0x566 JUMPI DUP1 PUSH4 0x91D14854 EQ PUSH2 0x57B JUMPI PUSH1 0x0 DUP1 REVERT JUMPDEST DUP1 PUSH4 0x75C93BB9 EQ PUSH2 0x4BE JUMPI DUP1 PUSH4 0x7B0A47EE EQ PUSH2 0x4D1 JUMPI DUP1 PUSH4 0x80FAA57D EQ PUSH2 0x4E7 JUMPI DUP1 PUSH4 0x817B1CD2 EQ PUSH2 0x4FC JUMPI PUSH1 0x0 DUP1 REVERT JUMPDEST DUP1 PUSH4 0x2C9D0B80 GT PUSH2 0x17A JUMPI DUP1 PUSH4 0x4E71D92D GT PUSH2 0x149 JUMPI DUP1 PUSH4 0x4E71D92D EQ PUSH2 0x3CA JUMPI DUP1 PUSH4 0x4FC35859 EQ PUSH2 0x3DF JUMPI DUP1 PUSH4 0x572B6C05 EQ PUSH2 0x430 JUMPI DUP1 PUSH4 0x62BA9096 EQ PUSH2 0x48A JUMPI PUSH1 0x0 DUP1 REVERT JUMPDEST DUP1 PUSH4 0x2C9D0B80 EQ PUSH2 0x34E JUMPI DUP1 PUSH4 0x2D1E0C02 EQ PUSH2 0x363 JUMPI DUP1 PUSH4 0x2D4C2F93 EQ PUSH2 0x376 JUMPI DUP1 PUSH4 0x2F2FF15D EQ PUSH2 0x3AA JUMPI PUSH1 0x0 DUP1 REVERT JUMPDEST DUP1 PUSH4 0x700037D GT PUSH2 0x1B6 JUMPI DUP1 PUSH4 0x700037D EQ PUSH2 0x298 JUMPI DUP1 PUSH4 0x968F264 EQ PUSH2 0x2C5 JUMPI DUP1 PUSH4 0x2196E445 EQ PUSH2 0x2E7 JUMPI DUP1 PUSH4 0x2B4C9F16 EQ PUSH2 0x31B JUMPI PUSH1 0x0 DUP1 REVERT JUMPDEST DUP1 PUSH3 0x8CC262 EQ PUSH2 0x1DC JUMPI DUP1 PUSH4 0x1FFC9A7 EQ PUSH2 0x20F JUMPI DUP1 PUSH4 0x4948EA1 EQ PUSH2 0x23F JUMPI JUMPDEST PUSH1 0x0 DUP1 REVERT JUMPDEST CALLVALUE DUP1 ISZERO PUSH2 0x1E8 JUMPI PUSH1 0x0 DUP1 REVERT JUMPDEST POP PUSH2 0x1FC PUSH2 0x1F7 CALLDATASIZE PUSH1 0x4 PUSH2 0x19D2 JUMP JUMPDEST PUSH2 0x693 JUMP JUMPDEST PUSH1 0x40 MLOAD SWAP1 DUP2 MSTORE PUSH1 0x20 ADD JUMPDEST PUSH1 0x40 MLOAD DUP1 SWAP2 SUB SWAP1 RETURN JUMPDEST CALLVALUE DUP1 ISZERO PUSH2 0x21B JUMPI PUSH1 0x0 DUP1 REVERT JUMPDEST POP PUSH2 0x22F PUSH2 0x22A CALLDATASIZE PUSH1 0x4 PUSH2 0x19EF JUMP JUMPDEST PUSH2 0x72A JUMP JUMPDEST PUSH1 0x40 MLOAD SWAP1 ISZERO ISZERO DUP2 MSTORE PUSH1 0x20 ADD PUSH2 0x206 JUMP JUMPDEST CALLVALUE DUP1 ISZERO PUSH2 0x24B JUMPI PUSH1 0x0 DUP1 REVERT JUMPDEST POP PUSH2 0x273 PUSH32 0x0 DUP2 JUMP JUMPDEST PUSH1 0x40 MLOAD PUSH20 0xFFFFFFFFFFFFFFFFFFFFFFFFFFFFFFFFFFFFFFFF SWAP1 SWAP2 AND DUP2 MSTORE PUSH1 0x20 ADD PUSH2 0x206 JUMP JUMPDEST CALLVALUE DUP1 ISZERO PUSH2 0x2A4 JUMPI PUSH1 0x0 DUP1 REVERT JUMPDEST POP PUSH2 0x1FC PUSH2 0x2B3 CALLDATASIZE PUSH1 0x4 PUSH2 0x19D2 JUMP JUMPDEST PUSH1 0x7 PUSH1 0x20 MSTORE PUSH1 0x0 SWAP1 DUP2 MSTORE PUSH1 0x40 SWAP1 KECCAK256 SLOAD DUP2 JUMP JUMPDEST CALLVALUE DUP1 ISZERO PUSH2 0x2D1 JUMPI PUSH1 0x0 DUP1 REVERT JUMPDEST POP PUSH2 0x2E5 PUSH2 0x2E0 CALLDATASIZE PUSH1 0x4 PUSH2 0x1A7A JUMP JUMPDEST PUSH2 0x73E JUMP JUMPDEST STOP JUMPDEST CALLVALUE DUP1 ISZERO PUSH2 0x2F3 JUMPI PUSH1 0x0 DUP1 REVERT JUMPDEST POP PUSH2 0x1FC PUSH32 0x0 DUP2 JUMP JUMPDEST CALLVALUE DUP1 ISZERO PUSH2 0x327 JUMPI PUSH1 0x0 DUP1 REVERT JUMPDEST POP PUSH32 0x0 PUSH2 0x273 JUMP JUMPDEST CALLVALUE DUP1 ISZERO PUSH2 0x35A JUMPI PUSH1 0x0 DUP1 REVERT JUMPDEST POP PUSH2 0x1FC PUSH2 0x789 JUMP JUMPDEST PUSH2 0x2E5 PUSH2 0x371 CALLDATASIZE PUSH1 0x4 PUSH2 0x1A7A JUMP JUMPDEST PUSH2 0x7F1 JUMP JUMPDEST CALLVALUE DUP1 ISZERO PUSH2 0x382 JUMPI PUSH1 0x0 DUP1 REVERT JUMPDEST POP PUSH2 0x273 PUSH32 0x0 DUP2 JUMP JUMPDEST CALLVALUE DUP1 ISZERO PUSH2 0x3B6 JUMPI PUSH1 0x0 DUP1 REVERT JUMPDEST POP PUSH2 0x2E5 PUSH2 0x3C5 CALLDATASIZE PUSH1 0x4 PUSH2 0x1ABC JUMP JUMPDEST PUSH2 0x823 JUMP JUMPDEST CALLVALUE DUP1 ISZERO PUSH2 0x3D6 JUMPI PUSH1 0x0 DUP1 REVERT JUMPDEST POP PUSH2 0x2E5 PUSH2 0x85C JUMP JUMPDEST CALLVALUE DUP1 ISZERO PUSH2 0x3EB JUMPI PUSH1 0x0 DUP1 REVERT JUMPDEST POP PUSH2 0x3FF PUSH2 0x3FA CALLDATASIZE PUSH1 0x4 PUSH2 0x1AEC JUMP JUMPDEST PUSH2 0x90D JUMP JUMPDEST PUSH1 0x40 MLOAD PUSH32 0xFFFFFFFF00000000000000000000000000000000000000000000000000000000 SWAP1 SWAP2 AND DUP2 MSTORE PUSH1 0x20 ADD PUSH2 0x206 JUMP JUMPDEST CALLVALUE DUP1 ISZERO PUSH2 0x43C JUMPI PUSH1 0x0 DUP1 REVERT JUMPDEST POP PUSH2 0x22F PUSH2 0x44B CALLDATASIZE PUSH1 0x4 PUSH2 0x19D2 JUMP JUMPDEST PUSH32 0x0 PUSH20 0xFFFFFFFFFFFFFFFFFFFFFFFFFFFFFFFFFFFFFFFF SWAP1 DUP2 AND SWAP2 AND EQ SWAP1 JUMP JUMPDEST CALLVALUE DUP1 ISZERO PUSH2 0x496 JUMPI PUSH1 0x0 DUP1 REVERT JUMPDEST POP PUSH2 0x273 PUSH32 0x0 DUP2 JUMP JUMPDEST PUSH2 0x2E5 PUSH2 0x4CC CALLDATASIZE PUSH1 0x4 PUSH2 0x1B5F JUMP JUMPDEST PUSH2 0xA6A JUMP JUMPDEST CALLVALUE DUP1 ISZERO PUSH2 0x4DD JUMPI PUSH1 0x0 DUP1 REVERT JUMPDEST POP PUSH2 0x1FC PUSH1 0x3 SLOAD DUP2 JUMP JUMPDEST CALLVALUE DUP1 ISZERO PUSH2 0x4F3 JUMPI PUSH1 0x0 DUP1 REVERT JUMPDEST POP PUSH2 0x1FC PUSH2 0xD44 JUMP JUMPDEST CALLVALUE DUP1 ISZERO PUSH2 0x508 JUMPI PUSH1 0x0 DUP1 REVERT JUMPDEST POP PUSH2 0x1FC PUSH1 0x1 SLOAD DUP2 JUMP JUMPDEST CALLVALUE DUP1 ISZERO PUSH2 0x51E JUMPI PUSH1 0x0 DUP1 REVERT JUMPDEST POP PUSH2 0x1FC PUSH32 0x7265776172646572000000000000000000000000000000000000000000000000 DUP2 JUMP JUMPDEST CALLVALUE DUP1 ISZERO PUSH2 0x552 JUMPI PUSH1 0x0 DUP1 REVERT JUMPDEST POP PUSH2 0x2E5 PUSH2 0x561 CALLDATASIZE PUSH1 0x4 PUSH2 0x1B81 JUMP JUMPDEST PUSH2 0xD5E JUMP JUMPDEST CALLVALUE DUP1 ISZERO PUSH2 0x572 JUMPI PUSH1 0x0 DUP1 REVERT JUMPDEST POP PUSH2 0x273 PUSH2 0xD7C JUMP JUMPDEST CALLVALUE DUP1 ISZERO PUSH2 0x587 JUMPI PUSH1 0x0 DUP1 REVERT JUMPDEST POP PUSH2 0x22F PUSH2 0x596 CALLDATASIZE PUSH1 0x4 PUSH2 0x1ABC JUMP JUMPDEST PUSH2 0xDA8 JUMP JUMPDEST CALLVALUE DUP1 ISZERO PUSH2 0x5A7 JUMPI PUSH1 0x0 DUP1 REVERT JUMPDEST POP PUSH2 0x1FC PUSH2 0x5B6 CALLDATASIZE PUSH1 0x4 PUSH2 0x19D2 JUMP JUMPDEST PUSH1 0x6 PUSH1 0x20 MSTORE PUSH1 0x0 SWAP1 DUP2 MSTORE PUSH1 0x40 SWAP1 KECCAK256 SLOAD DUP2 JUMP JUMPDEST CALLVALUE DUP1 ISZERO PUSH2 0x5D4 JUMPI PUSH1 0x0 DUP1 REVERT JUMPDEST POP PUSH2 0x1FC PUSH1 0x4 SLOAD DUP2 JUMP JUMPDEST CALLVALUE DUP1 ISZERO PUSH2 0x5EA JUMPI PUSH1 0x0 DUP1 REVERT JUMPDEST POP PUSH2 0x1FC PUSH2 0x5F9 CALLDATASIZE PUSH1 0x4 PUSH2 0x19D2 JUMP JUMPDEST PUSH1 0x8 PUSH1 0x20 MSTORE PUSH1 0x0 SWAP1 DUP2 MSTORE PUSH1 0x40 SWAP1 KECCAK256 SLOAD DUP2 JUMP JUMPDEST CALLVALUE DUP1 ISZERO PUSH2 0x617 JUMPI PUSH1 0x0 DUP1 REVERT JUMPDEST POP PUSH2 0x1FC PUSH1 0x2 SLOAD DUP2 JUMP JUMPDEST CALLVALUE DUP1 ISZERO PUSH2 0x62D JUMPI PUSH1 0x0 DUP1 REVERT JUMPDEST POP PUSH2 0x2E5 PUSH2 0x63C CALLDATASIZE PUSH1 0x4 PUSH2 0x1ABC JUMP JUMPDEST PUSH2 0xDF3 JUMP JUMPDEST CALLVALUE DUP1 ISZERO PUSH2 0x64D JUMPI PUSH1 0x0 DUP1 REVERT JUMPDEST POP PUSH2 0x1FC PUSH8 0xDE0B6B3A7640000 DUP2 JUMP JUMPDEST CALLVALUE DUP1 ISZERO PUSH2 0x669 JUMPI PUSH1 0x0 DUP1 REVERT JUMPDEST POP PUSH2 0x1FC PUSH1 0x5 SLOAD DUP2 JUMP JUMPDEST CALLVALUE DUP1 ISZERO PUSH2 0x67F JUMPI PUSH1 0x0 DUP1 REVERT JUMPDEST POP PUSH2 0x2E5 PUSH2 0x68E CALLDATASIZE PUSH1 0x4 PUSH2 0x19D2 JUMP JUMPDEST PUSH2 0xE21 JUMP JUMPDEST PUSH20 0xFFFFFFFFFFFFFFFFFFFFFFFFFFFFFFFFFFFFFFFF DUP2 AND PUSH1 0x0 SWAP1 DUP2 MSTORE PUSH1 0x7 PUSH1 0x20 SWAP1 DUP2 MSTORE PUSH1 0x40 DUP1 DUP4 KECCAK256 SLOAD PUSH1 0x8 SWAP1 SWAP3 MSTORE DUP3 KECCAK256 SLOAD PUSH8 0xDE0B6B3A7640000 SWAP1 PUSH2 0x6D6 PUSH2 0x789 JUMP JUMPDEST PUSH2 0x6E0 SWAP2 SWAP1 PUSH2 0x1BC9 JUMP JUMPDEST PUSH20 0xFFFFFFFFFFFFFFFFFFFFFFFFFFFFFFFFFFFFFFFF DUP6 AND PUSH1 0x0 SWAP1 DUP2 MSTORE PUSH1 0x6 PUSH1 0x20 MSTORE PUSH1 0x40 SWAP1 KECCAK256 SLOAD PUSH2 0x710 SWAP2 SWAP1 PUSH2 0x1BDC JUMP JUMPDEST PUSH2 0x71A SWAP2 SWAP1 PUSH2 0x1C22 JUMP JUMPDEST PUSH2 0x724 SWAP2 SWAP1 PUSH2 0x1C36 JUMP JUMPDEST SWAP3 SWAP2 POP POP JUMP JUMPDEST PUSH1 0x0 PUSH2 0x724 DUP3 PUSH2 0x738 PUSH2 0xE3C JUMP JUMPDEST SWAP1 PUSH2 0xE6A JUMP JUMPDEST PUSH2 0x785 PUSH2 0x749 PUSH2 0xF44 JUMP JUMPDEST DUP4 DUP4 DUP1 DUP1 PUSH1 0x1F ADD PUSH1 0x20 DUP1 SWAP2 DIV MUL PUSH1 0x20 ADD PUSH1 0x40 MLOAD SWAP1 DUP2 ADD PUSH1 0x40 MSTORE DUP1 SWAP4 SWAP3 SWAP2 SWAP1 DUP2 DUP2 MSTORE PUSH1 0x20 ADD DUP4 DUP4 DUP1 DUP3 DUP5 CALLDATACOPY PUSH1 0x0 SWAP3 ADD SWAP2 SWAP1 SWAP2 MSTORE POP PUSH2 0xF4E SWAP3 POP POP POP JUMP JUMPDEST POP POP JUMP JUMPDEST PUSH1 0x1 SLOAD PUSH1 0x0 SWAP1 DUP1 DUP3 SUB PUSH2 0x79E JUMPI POP POP PUSH1 0x4 SLOAD SWAP1 JUMP JUMPDEST DUP1 PUSH8 0xDE0B6B3A7640000 PUSH1 0x3 SLOAD PUSH1 0x2 SLOAD PUSH2 0x7B6 PUSH2 0xD44 JUMP JUMPDEST PUSH2 0x7C0 SWAP2 SWAP1 PUSH2 0x1BC9 JUMP JUMPDEST PUSH2 0x7CA SWAP2 SWAP1 PUSH2 0x1BDC JUMP JUMPDEST PUSH2 0x7D4 SWAP2 SWAP1 PUSH2 0x1BDC JUMP JUMPDEST PUSH2 0x7DE SWAP2 SWAP1 PUSH2 0x1C22 JUMP JUMPDEST PUSH1 0x4 SLOAD PUSH2 0x7EB SWAP2 SWAP1 PUSH2 0x1C36 JUMP JUMPDEST SWAP2 POP POP SWAP1 JUMP JUMPDEST PUSH1 0x40 MLOAD PUSH32 0x7A404B1900000000000000000000000000000000000000000000000000000000 DUP2 MSTORE PUSH1 0x4 ADD PUSH1 0x40 MLOAD DUP1 SWAP2 SUB SWAP1 REVERT JUMPDEST PUSH1 0x0 PUSH2 0x82D PUSH2 0xF44 JUMP JUMPDEST SWAP1 POP PUSH2 0x841 DUP2 PUSH2 0x83B PUSH2 0x103A JUMP JUMPDEST SWAP1 PUSH2 0x1068 JUMP JUMPDEST PUSH2 0x857 DUP4 DUP4 DUP4 PUSH2 0x84F PUSH2 0x10D3 JUMP JUMPDEST SWAP3 SWAP2 SWAP1 PUSH2 0x1101 JUMP JUMPDEST POP POP POP JUMP JUMPDEST PUSH1 0x0 PUSH2 0x866 PUSH2 0xF44 JUMP JUMPDEST SWAP1 POP PUSH2 0x871 DUP2 PUSH2 0x11D8 JUMP JUMPDEST PUSH1 0x0 PUSH2 0x87C DUP3 PUSH2 0x693 JUMP JUMPDEST SWAP1 POP DUP1 ISZERO PUSH2 0x785 JUMPI PUSH20 0xFFFFFFFFFFFFFFFFFFFFFFFFFFFFFFFFFFFFFFFF DUP3 AND PUSH1 0x0 SWAP1 DUP2 MSTORE PUSH1 0x7 PUSH1 0x20 MSTORE PUSH1 0x40 DUP2 KECCAK256 DUP2 SWAP1 SSTORE PUSH2 0x8B6 DUP4 DUP4 PUSH2 0x1266 JUMP JUMPDEST SWAP1 POP DUP3 PUSH20 0xFFFFFFFFFFFFFFFFFFFFFFFFFFFFFFFFFFFFFFFF AND PUSH32 0x4196DECB55B5644A278B6DED1C42A27ACB5182AA099B1FD48974BCC0CF263FD5 DUP3 DUP5 PUSH1 0x40 MLOAD PUSH2 0x900 SWAP3 SWAP2 SWAP1 PUSH2 0x1C49 JUMP JUMPDEST PUSH1 0x40 MLOAD DUP1 SWAP2 SUB SWAP1 LOG2 POP POP POP JUMP JUMPDEST PUSH1 0x0 CALLER PUSH20 0xFFFFFFFFFFFFFFFFFFFFFFFFFFFFFFFFFFFFFFFF PUSH32 0x0 AND EQ PUSH2 0x97E JUMPI PUSH1 0x40 MLOAD PUSH32 0xC1AB6DC100000000000000000000000000000000000000000000000000000000 DUP2 MSTORE PUSH1 0x4 ADD PUSH1 0x40 MLOAD DUP1 SWAP2 SUB SWAP1 REVERT JUMPDEST PUSH32 0x0 PUSH20 0xFFFFFFFFFFFFFFFFFFFFFFFFFFFFFFFFFFFFFFFF AND DUP7 PUSH20 0xFFFFFFFFFFFFFFFFFFFFFFFFFFFFFFFFFFFFFFFF AND EQ PUSH2 0xA03 JUMPI PUSH1 0x40 MLOAD PUSH32 0x926C1D9400000000000000000000000000000000000000000000000000000000 DUP2 MSTORE PUSH1 0x4 ADD PUSH1 0x40 MLOAD DUP1 SWAP2 SUB SWAP1 REVERT JUMPDEST PUSH1 0x0 PUSH2 0xA11 DUP4 DUP6 ADD DUP6 PUSH2 0x19D2 JUMP JUMPDEST SWAP1 POP PUSH2 0xA3E DUP2 DUP7 PUSH1 0x40 MLOAD PUSH1 0x20 ADD PUSH2 0xA2A SWAP2 DUP2 MSTORE PUSH1 0x20 ADD SWAP1 JUMP JUMPDEST PUSH1 0x40 MLOAD PUSH1 0x20 DUP2 DUP4 SUB SUB DUP2 MSTORE SWAP1 PUSH1 0x40 MSTORE PUSH2 0x137E JUMP JUMPDEST POP PUSH32 0x4FC3585900000000000000000000000000000000000000000000000000000000 SWAP7 SWAP6 POP POP POP POP POP POP JUMP JUMPDEST PUSH1 0x0 PUSH2 0xA74 PUSH2 0xF44 JUMP JUMPDEST SWAP1 POP PUSH2 0xAAA PUSH32 0x7265776172646572000000000000000000000000000000000000000000000000 DUP3 PUSH2 0xAA3 PUSH2 0x10D3 JUMP JUMPDEST SWAP2 SWAP1 PUSH2 0x146A JUMP JUMPDEST DUP3 PUSH1 0x0 SUB PUSH2 0xAE4 JUMPI PUSH1 0x40 MLOAD PUSH32 0x3853986500000000000000000000000000000000000000000000000000000000 DUP2 MSTORE PUSH1 0x4 ADD PUSH1 0x40 MLOAD DUP1 SWAP2 SUB SWAP1 REVERT JUMPDEST DUP2 PUSH1 0x0 SUB PUSH2 0xB1E JUMPI PUSH1 0x40 MLOAD PUSH32 0x7616640100000000000000000000000000000000000000000000000000000000 DUP2 MSTORE PUSH1 0x4 ADD PUSH1 0x40 MLOAD DUP1 SWAP2 SUB SWAP1 REVERT JUMPDEST PUSH2 0xB28 PUSH1 0x0 PUSH2 0x11D8 JUMP JUMPDEST PUSH1 0x5 SLOAD PUSH1 0x0 SWAP1 DUP2 PUSH2 0xB39 DUP6 TIMESTAMP PUSH2 0x1C36 JUMP JUMPDEST SWAP1 POP DUP2 TIMESTAMP LT PUSH2 0xBB6 JUMPI PUSH1 0x0 PUSH2 0xB4E DUP7 DUP9 PUSH2 0x1C22 JUMP JUMPDEST SWAP1 POP DUP7 DUP7 DUP3 PUSH2 0xB97 JUMPI PUSH1 0x40 MLOAD PUSH32 0x99E66A4900000000000000000000000000000000000000000000000000000000 DUP2 MSTORE PUSH1 0x4 DUP2 ADD SWAP3 SWAP1 SWAP3 MSTORE PUSH1 0x24 DUP3 ADD MSTORE PUSH1 0x44 ADD JUMPDEST PUSH1 0x40 MLOAD DUP1 SWAP2 SUB SWAP1 REVERT JUMPDEST POP POP PUSH1 0x3 DUP2 SWAP1 SSTORE PUSH2 0xBA8 DUP7 DUP9 PUSH2 0x1CBC JUMP JUMPDEST PUSH1 0x5 DUP4 SWAP1 SSTORE SWAP4 POP PUSH2 0xCDF SWAP1 POP JUMP JUMPDEST DUP2 DUP2 GT PUSH2 0xC45 JUMPI PUSH2 0xBC7 TIMESTAMP DUP4 PUSH2 0x1BC9 JUMP JUMPDEST SWAP5 POP PUSH1 0x0 PUSH2 0xBD5 DUP7 DUP9 PUSH2 0x1C22 JUMP JUMPDEST SWAP1 POP DUP7 DUP7 DUP3 PUSH2 0xC19 JUMPI PUSH1 0x40 MLOAD PUSH32 0x99E66A4900000000000000000000000000000000000000000000000000000000 DUP2 MSTORE PUSH1 0x4 DUP2 ADD SWAP3 SWAP1 SWAP3 MSTORE PUSH1 0x24 DUP3 ADD MSTORE PUSH1 0x44 ADD PUSH2 0xB8E JUMP JUMPDEST POP POP DUP1 PUSH1 0x3 PUSH1 0x0 DUP3 DUP3 SLOAD PUSH2 0xC2D SWAP2 SWAP1 PUSH2 0x1C36 JUMP JUMPDEST SWAP1 SWAP2 SSTORE POP PUSH2 0xC3D SWAP1 POP DUP7 DUP9 PUSH2 0x1CBC JUMP JUMPDEST SWAP4 POP POP PUSH2 0xCDF JUMP JUMPDEST PUSH2 0xC4F DUP6 DUP8 PUSH2 0x1C22 JUMP JUMPDEST DUP7 SWAP1 DUP7 SWAP1 PUSH2 0xC92 JUMPI PUSH1 0x40 MLOAD PUSH32 0x99E66A4900000000000000000000000000000000000000000000000000000000 DUP2 MSTORE PUSH1 0x4 DUP2 ADD SWAP3 SWAP1 SWAP3 MSTORE PUSH1 0x24 DUP3 ADD MSTORE PUSH1 0x44 ADD PUSH2 0xB8E JUMP JUMPDEST POP PUSH1 0x0 SWAP1 POP PUSH2 0xCA1 TIMESTAMP DUP5 PUSH2 0x1BC9 JUMP JUMPDEST PUSH1 0x3 SLOAD PUSH2 0xCAE SWAP2 SWAP1 PUSH2 0x1BDC JUMP JUMPDEST SWAP1 POP PUSH1 0x0 PUSH2 0xCBC DUP9 DUP4 PUSH2 0x1C36 JUMP JUMPDEST SWAP1 POP PUSH2 0xCC8 DUP8 DUP3 PUSH2 0x1C22 JUMP JUMPDEST PUSH1 0x3 SSTORE PUSH2 0xCD5 DUP8 DUP3 PUSH2 0x1CBC JUMP JUMPDEST PUSH1 0x5 DUP5 SWAP1 SSTORE SWAP5 POP POP POP JUMPDEST TIMESTAMP PUSH1 0x2 SSTORE PUSH1 0x40 DUP1 MLOAD DUP8 DUP2 MSTORE PUSH1 0x20 DUP2 ADD DUP8 SWAP1 MSTORE SWAP1 DUP2 ADD DUP5 SWAP1 MSTORE PUSH20 0xFFFFFFFFFFFFFFFFFFFFFFFFFFFFFFFFFFFFFFFF DUP6 AND SWAP1 PUSH32 0x727302BECD070529B3293F4EC8F553D9F6AE1773F638598DB1205FBF8908083 SWAP1 PUSH1 0x60 ADD PUSH1 0x40 MLOAD DUP1 SWAP2 SUB SWAP1 LOG2 POP POP POP POP POP POP JUMP JUMPDEST PUSH1 0x5 SLOAD PUSH1 0x0 SWAP1 TIMESTAMP DUP2 GT PUSH2 0xD57 JUMPI DUP1 PUSH2 0x7EB JUMP JUMPDEST TIMESTAMP SWAP2 POP POP SWAP1 JUMP JUMPDEST PUSH2 0xD79 PUSH2 0xD69 PUSH2 0xF44 JUMP JUMPDEST DUP3 PUSH2 0xD72 PUSH2 0x10D3 JUMP JUMPDEST SWAP2 SWAP1 PUSH2 0x14F0 JUMP JUMPDEST POP JUMP JUMPDEST PUSH1 0x0 PUSH2 0xDA3 PUSH2 0xD89 PUSH2 0x103A JUMP JUMPDEST SLOAD PUSH20 0xFFFFFFFFFFFFFFFFFFFFFFFFFFFFFFFFFFFFFFFF AND SWAP1 JUMP JUMPDEST SWAP1 POP SWAP1 JUMP JUMPDEST PUSH1 0x0 PUSH2 0xDEC DUP4 DUP4 PUSH2 0xDB7 PUSH2 0x10D3 JUMP JUMPDEST PUSH1 0x0 SWAP3 DUP4 MSTORE PUSH1 0x20 SWAP1 DUP2 MSTORE PUSH1 0x40 DUP1 DUP5 KECCAK256 PUSH20 0xFFFFFFFFFFFFFFFFFFFFFFFFFFFFFFFFFFFFFFFF SWAP1 SWAP4 AND DUP5 MSTORE SWAP2 SWAP1 MSTORE SWAP1 KECCAK256 SLOAD PUSH1 0xFF AND SWAP1 JUMP JUMPDEST SWAP4 SWAP3 POP POP POP JUMP JUMPDEST PUSH1 0x0 PUSH2 0xDFD PUSH2 0xF44 JUMP JUMPDEST SWAP1 POP PUSH2 0xE0B DUP2 PUSH2 0x83B PUSH2 0x103A JUMP JUMPDEST PUSH2 0x857 DUP4 DUP4 DUP4 PUSH2 0xE19 PUSH2 0x10D3 JUMP JUMPDEST SWAP3 SWAP2 SWAP1 PUSH2 0x1594 JUMP JUMPDEST PUSH2 0xD79 PUSH2 0xE2C PUSH2 0xF44 JUMP JUMPDEST DUP3 PUSH2 0xE35 PUSH2 0x103A JUMP JUMPDEST SWAP2 SWAP1 PUSH2 0x165E JUMP JUMPDEST PUSH1 0x0 DUP1 PUSH2 0x724 PUSH1 0x1 PUSH32 0xCA9D3E17F264B0F3984E2634E94ADB37FA3E6A8103F06AEAE6FA59E21C769F5E PUSH2 0x1BC9 JUMP JUMPDEST PUSH1 0x0 PUSH29 0x100000000000000000000000000000000000000000000000000000000 PUSH32 0xFFFFFFFF00000000000000000000000000000000000000000000000000000000 DUP4 AND ADD PUSH2 0xEBA JUMPI POP PUSH1 0x0 PUSH2 0x724 JUMP JUMPDEST PUSH32 0xFE00365900000000000000000000000000000000000000000000000000000000 PUSH32 0xFFFFFFFF00000000000000000000000000000000000000000000000000000000 DUP4 AND ADD PUSH2 0xF0B JUMPI POP PUSH1 0x1 PUSH2 0x724 JUMP JUMPDEST POP PUSH32 0xFFFFFFFF00000000000000000000000000000000000000000000000000000000 AND PUSH1 0x0 SWAP1 DUP2 MSTORE PUSH1 0x20 SWAP2 SWAP1 SWAP2 MSTORE PUSH1 0x40 SWAP1 KECCAK256 SLOAD PUSH1 0xFF AND SWAP1 JUMP JUMPDEST PUSH1 0x0 PUSH2 0xDA3 PUSH2 0x1772 JUMP JUMPDEST PUSH2 0xF57 DUP3 PUSH2 0x11D8 JUMP JUMPDEST PUSH1 0x0 PUSH2 0xF63 DUP4 DUP4 PUSH2 0x18BF JUMP JUMPDEST SWAP1 POP DUP1 PUSH1 0x0 SUB PUSH2 0xF9F JUMPI PUSH1 0x40 MLOAD PUSH32 0xDB73CDF000000000000000000000000000000000000000000000000000000000 DUP2 MSTORE PUSH1 0x4 ADD PUSH1 0x40 MLOAD DUP1 SWAP2 SUB SWAP1 REVERT JUMPDEST DUP1 PUSH1 0x1 PUSH1 0x0 DUP3 DUP3 SLOAD PUSH2 0xFB1 SWAP2 SWAP1 PUSH2 0x1BC9 JUMP JUMPDEST SWAP1 SWAP2 SSTORE POP POP PUSH20 0xFFFFFFFFFFFFFFFFFFFFFFFFFFFFFFFFFFFFFFFF DUP4 AND PUSH1 0x0 SWAP1 DUP2 MSTORE PUSH1 0x6 PUSH1 0x20 MSTORE PUSH1 0x40 DUP2 KECCAK256 DUP1 SLOAD DUP4 SWAP3 SWAP1 PUSH2 0xFEB SWAP1 DUP5 SWAP1 PUSH2 0x1BC9 JUMP JUMPDEST SWAP3 POP POP DUP2 SWAP1 SSTORE POP DUP3 PUSH20 0xFFFFFFFFFFFFFFFFFFFFFFFFFFFFFFFFFFFFFFFF AND PUSH32 0xAAE638DEC0D864CCB08558C28981BCFAEE41330F57C4911CBE2D8432D0FB729E DUP4 DUP4 PUSH1 0x40 MLOAD PUSH2 0x900 SWAP3 SWAP2 SWAP1 PUSH2 0x1C49 JUMP JUMPDEST PUSH1 0x0 DUP1 PUSH2 0x724 PUSH1 0x1 PUSH32 0xC9ED16F33AB3A66C84BFD83099CCB2A8845871E2E1C1928F63797152F0FD54CD PUSH2 0x1BC9 JUMP JUMPDEST DUP2 SLOAD PUSH20 0xFFFFFFFFFFFFFFFFFFFFFFFFFFFFFFFFFFFFFFFF DUP3 DUP2 AND SWAP2 AND EQ PUSH2 0x785 JUMPI PUSH1 0x40 MLOAD PUSH32 0x2EF4875E00000000000000000000000000000000000000000000000000000000 DUP2 MSTORE PUSH20 0xFFFFFFFFFFFFFFFFFFFFFFFFFFFFFFFFFFFFFFFF DUP3 AND PUSH1 0x4 DUP3 ADD MSTORE PUSH1 0x24 ADD PUSH2 0xB8E JUMP JUMPDEST PUSH1 0x0 DUP1 PUSH2 0x724 PUSH1 0x1 PUSH32 0xC8827D3282AF6F37B64C3E9E6F3AC9DF286AB0BB0FCCD6F8661BF19ADB368B23 PUSH2 0x1BC9 JUMP JUMPDEST PUSH1 0x0 DUP4 DUP2 MSTORE PUSH1 0x20 DUP6 DUP2 MSTORE PUSH1 0x40 DUP1 DUP4 KECCAK256 PUSH20 0xFFFFFFFFFFFFFFFFFFFFFFFFFFFFFFFFFFFFFFFF DUP7 AND DUP5 MSTORE SWAP1 SWAP2 MSTORE SWAP1 KECCAK256 SLOAD PUSH1 0xFF AND PUSH2 0x11D2 JUMPI PUSH1 0x0 DUP4 DUP2 MSTORE PUSH1 0x20 DUP6 DUP2 MSTORE PUSH1 0x40 DUP1 DUP4 KECCAK256 PUSH20 0xFFFFFFFFFFFFFFFFFFFFFFFFFFFFFFFFFFFFFFFF DUP7 DUP2 AND DUP1 DUP7 MSTORE SWAP2 DUP5 MSTORE SWAP4 DUP3 SWAP1 KECCAK256 DUP1 SLOAD PUSH32 0xFFFFFFFFFFFFFFFFFFFFFFFFFFFFFFFFFFFFFFFFFFFFFFFFFFFFFFFFFFFFFF00 AND PUSH1 0x1 OR SWAP1 SSTORE DUP2 MLOAD DUP8 DUP2 MSTORE SWAP3 DUP4 ADD MSTORE SWAP2 DUP4 AND SWAP2 DUP2 ADD SWAP2 SWAP1 SWAP2 MSTORE PUSH32 0x2F8788117E7EFF1D82E926EC794901D17C78024A50270940304540A733656F0D SWAP1 PUSH1 0x60 ADD JUMPDEST PUSH1 0x40 MLOAD DUP1 SWAP2 SUB SWAP1 LOG1 JUMPDEST POP POP POP POP JUMP JUMPDEST PUSH2 0x11E0 PUSH2 0x789 JUMP JUMPDEST PUSH1 0x4 SSTORE PUSH1 0x5 SLOAD TIMESTAMP LT ISZERO DUP1 PUSH2 0x11F5 JUMPI POP PUSH1 0x1 SLOAD ISZERO ISZERO JUMPDEST ISZERO PUSH2 0x1206 JUMPI PUSH2 0x1202 PUSH2 0xD44 JUMP JUMPDEST PUSH1 0x2 SSTORE JUMPDEST PUSH20 0xFFFFFFFFFFFFFFFFFFFFFFFFFFFFFFFFFFFFFFFF DUP2 AND ISZERO PUSH2 0xD79 JUMPI PUSH2 0x122B DUP2 PUSH2 0x693 JUMP JUMPDEST PUSH20 0xFFFFFFFFFFFFFFFFFFFFFFFFFFFFFFFFFFFFFFFF DUP3 AND PUSH1 0x0 SWAP1 DUP2 MSTORE PUSH1 0x7 PUSH1 0x20 SWAP1 DUP2 MSTORE PUSH1 0x40 DUP1 DUP4 KECCAK256 SWAP4 SWAP1 SWAP4 SSTORE PUSH1 0x4 SLOAD PUSH1 0x8 SWAP1 SWAP2 MSTORE SWAP2 SWAP1 KECCAK256 SSTORE POP JUMP JUMPDEST PUSH1 0x60 DUP2 PUSH1 0x40 MLOAD PUSH1 0x20 ADD PUSH2 0x127B SWAP2 DUP2 MSTORE PUSH1 0x20 ADD SWAP1 JUMP JUMPDEST PUSH1 0x40 DUP1 MLOAD DUP1 DUP4 SUB PUSH32 0xFFFFFFFFFFFFFFFFFFFFFFFFFFFFFFFFFFFFFFFFFFFFFFFFFFFFFFFFFFFFFFE0 ADD DUP2 MSTORE SWAP1 DUP3 SWAP1 MSTORE PUSH32 0x26B3293F00000000000000000000000000000000000000000000000000000000 DUP3 MSTORE PUSH20 0xFFFFFFFFFFFFFFFFFFFFFFFFFFFFFFFFFFFFFFFF DUP6 DUP2 AND PUSH1 0x4 DUP5 ADD MSTORE PUSH1 0x24 DUP4 ADD DUP6 SWAP1 MSTORE PUSH32 0x0 PUSH1 0x44 DUP5 ADD MSTORE SWAP1 SWAP3 POP PUSH32 0x0 AND SWAP1 PUSH4 0x26B3293F SWAP1 PUSH1 0x64 ADD PUSH1 0x0 PUSH1 0x40 MLOAD DUP1 DUP4 SUB DUP2 PUSH1 0x0 DUP8 DUP1 EXTCODESIZE ISZERO DUP1 ISZERO PUSH2 0x1360 JUMPI PUSH1 0x0 DUP1 REVERT JUMPDEST POP GAS CALL ISZERO DUP1 ISZERO PUSH2 0x1374 JUMPI RETURNDATASIZE PUSH1 0x0 DUP1 RETURNDATACOPY RETURNDATASIZE PUSH1 0x0 REVERT JUMPDEST POP POP POP POP SWAP3 SWAP2 POP POP JUMP JUMPDEST PUSH2 0x1387 DUP3 PUSH2 0x11D8 JUMP JUMPDEST PUSH1 0x0 PUSH2 0x1393 DUP4 DUP4 PUSH2 0x199A JUMP JUMPDEST SWAP1 POP DUP1 PUSH1 0x0 SUB PUSH2 0x13CF JUMPI PUSH1 0x40 MLOAD PUSH32 0x40EF8EC00000000000000000000000000000000000000000000000000000000 DUP2 MSTORE PUSH1 0x4 ADD PUSH1 0x40 MLOAD DUP1 SWAP2 SUB SWAP1 REVERT JUMPDEST DUP1 PUSH1 0x1 PUSH1 0x0 DUP3 DUP3 SLOAD PUSH2 0x13E1 SWAP2 SWAP1 PUSH2 0x1C36 JUMP JUMPDEST SWAP1 SWAP2 SSTORE POP POP PUSH20 0xFFFFFFFFFFFFFFFFFFFFFFFFFFFFFFFFFFFFFFFF DUP4 AND PUSH1 0x0 SWAP1 DUP2 MSTORE PUSH1 0x6 PUSH1 0x20 MSTORE PUSH1 0x40 DUP2 KECCAK256 DUP1 SLOAD DUP4 SWAP3 SWAP1 PUSH2 0x141B SWAP1 DUP5 SWAP1 PUSH2 0x1C36 JUMP JUMPDEST SWAP3 POP POP DUP2 SWAP1 SSTORE POP DUP3 PUSH20 0xFFFFFFFFFFFFFFFFFFFFFFFFFFFFFFFFFFFFFFFF AND PUSH32 0xF4679D394F1F97F1A3DF1D73E193866EC5A813168AD5FA6958F9BE21B10A594E DUP4 DUP4 PUSH1 0x40 MLOAD PUSH2 0x900 SWAP3 SWAP2 SWAP1 PUSH2 0x1C49 JUMP JUMPDEST PUSH1 0x0 DUP3 DUP2 MSTORE PUSH1 0x20 DUP5 DUP2 MSTORE PUSH1 0x40 DUP1 DUP4 KECCAK256 PUSH20 0xFFFFFFFFFFFFFFFFFFFFFFFFFFFFFFFFFFFFFFFF DUP6 AND DUP5 MSTORE SWAP1 SWAP2 MSTORE SWAP1 KECCAK256 SLOAD PUSH1 0xFF AND PUSH2 0x857 JUMPI PUSH1 0x40 MLOAD PUSH32 0x7AA7288200000000000000000000000000000000000000000000000000000000 DUP2 MSTORE PUSH1 0x4 DUP2 ADD DUP4 SWAP1 MSTORE PUSH20 0xFFFFFFFFFFFFFFFFFFFFFFFFFFFFFFFFFFFFFFFF DUP3 AND PUSH1 0x24 DUP3 ADD MSTORE PUSH1 0x44 ADD PUSH2 0xB8E JUMP JUMPDEST PUSH2 0x14FB DUP4 DUP3 DUP5 PUSH2 0x146A JUMP JUMPDEST PUSH1 0x0 DUP2 DUP2 MSTORE PUSH1 0x20 DUP5 DUP2 MSTORE PUSH1 0x40 DUP1 DUP4 KECCAK256 PUSH20 0xFFFFFFFFFFFFFFFFFFFFFFFFFFFFFFFFFFFFFFFF DUP7 AND DUP1 DUP6 MSTORE SWAP1 DUP4 MSTORE SWAP3 DUP2 SWAP1 KECCAK256 DUP1 SLOAD PUSH32 0xFFFFFFFFFFFFFFFFFFFFFFFFFFFFFFFFFFFFFFFFFFFFFFFFFFFFFFFFFFFFFF00 AND SWAP1 SSTORE DUP1 MLOAD DUP5 DUP2 MSTORE SWAP2 DUP3 ADD DUP4 SWAP1 MSTORE DUP2 ADD SWAP2 SWAP1 SWAP2 MSTORE PUSH32 0xF6391F5C32D9C69D2A47EA670B442974B53935D1EDC7FD64EB21E047A839171B SWAP1 PUSH1 0x60 ADD PUSH1 0x40 MLOAD DUP1 SWAP2 SUB SWAP1 LOG1 POP POP POP JUMP JUMPDEST PUSH1 0x0 DUP4 DUP2 MSTORE PUSH1 0x20 DUP6 DUP2 MSTORE PUSH1 0x40 DUP1 DUP4 KECCAK256 PUSH20 0xFFFFFFFFFFFFFFFFFFFFFFFFFFFFFFFFFFFFFFFF DUP7 AND DUP5 MSTORE SWAP1 SWAP2 MSTORE SWAP1 KECCAK256 SLOAD PUSH1 0xFF AND ISZERO PUSH2 0x11D2 JUMPI PUSH1 0x0 DUP4 DUP2 MSTORE PUSH1 0x20 DUP6 DUP2 MSTORE PUSH1 0x40 DUP1 DUP4 KECCAK256 PUSH20 0xFFFFFFFFFFFFFFFFFFFFFFFFFFFFFFFFFFFFFFFF DUP7 DUP2 AND DUP1 DUP7 MSTORE SWAP2 DUP5 MSTORE SWAP4 DUP3 SWAP1 KECCAK256 DUP1 SLOAD PUSH32 0xFFFFFFFFFFFFFFFFFFFFFFFFFFFFFFFFFFFFFFFFFFFFFFFFFFFFFFFFFFFFFF00 AND SWAP1 SSTORE DUP2 MLOAD DUP8 DUP2 MSTORE SWAP3 DUP4 ADD MSTORE SWAP2 DUP4 AND SWAP2 DUP2 ADD SWAP2 SWAP1 SWAP2 MSTORE PUSH32 0xF6391F5C32D9C69D2A47EA670B442974B53935D1EDC7FD64EB21E047A839171B SWAP1 PUSH1 0x60 ADD PUSH2 0x11C9 JUMP JUMPDEST DUP3 SLOAD PUSH20 0xFFFFFFFFFFFFFFFFFFFFFFFFFFFFFFFFFFFFFFFF SWAP1 DUP2 AND SWAP1 DUP4 AND DUP2 EQ PUSH2 0x16CB JUMPI PUSH1 0x40 MLOAD PUSH32 0x2EF4875E00000000000000000000000000000000000000000000000000000000 DUP2 MSTORE PUSH20 0xFFFFFFFFFFFFFFFFFFFFFFFFFFFFFFFFFFFFFFFF DUP5 AND PUSH1 0x4 DUP3 ADD MSTORE PUSH1 0x24 ADD PUSH2 0xB8E JUMP JUMPDEST DUP2 PUSH20 0xFFFFFFFFFFFFFFFFFFFFFFFFFFFFFFFFFFFFFFFF AND DUP2 PUSH20 0xFFFFFFFFFFFFFFFFFFFFFFFFFFFFFFFFFFFFFFFF AND EQ PUSH2 0x11D2 JUMPI DUP4 SLOAD PUSH32 0xFFFFFFFFFFFFFFFFFFFFFFFF0000000000000000000000000000000000000000 AND PUSH20 0xFFFFFFFFFFFFFFFFFFFFFFFFFFFFFFFFFFFFFFFF DUP4 DUP2 AND SWAP2 DUP3 OR DUP7 SSTORE PUSH1 0x40 MLOAD SWAP1 DUP4 AND SWAP1 PUSH32 0x8BE0079C531659141344CD1FD0A4F28419497F9722A3DAAFE3B4186F6B6457E0 SWAP1 PUSH1 0x0 SWAP1 LOG3 POP POP POP POP JUMP JUMPDEST PUSH1 0x0 CALLER ORIGIN EQ DUP1 PUSH2 0x1782 JUMPI POP PUSH1 0x18 CALLDATASIZE LT JUMPDEST ISZERO PUSH2 0x178C JUMPI POP CALLER SWAP1 JUMP JUMPDEST PUSH32 0xFFFFFFFFFFFFFFFFFFFFFFFFFFFFFFFFFFFFFFFFFFFFFFFFFFFFFFFFFFFFFFEC CALLDATASIZE ADD CALLDATALOAD PUSH1 0x60 SHR PUSH32 0x0 PUSH20 0xFFFFFFFFFFFFFFFFFFFFFFFFFFFFFFFFFFFFFFFF AND CALLER EQ DUP1 PUSH2 0x18AE JUMPI POP PUSH1 0x40 MLOAD PUSH32 0x19A202800000000000000000000000000000000000000000000000000000000 DUP2 MSTORE PUSH20 0xFFFFFFFFFFFFFFFFFFFFFFFFFFFFFFFFFFFFFFFF DUP3 DUP2 AND PUSH1 0x4 DUP4 ADD MSTORE CALLER PUSH1 0x24 DUP4 ADD MSTORE ADDRESS PUSH1 0x44 DUP4 ADD MSTORE PUSH32 0x0 AND SWAP1 PUSH4 0x19A2028 SWAP1 PUSH1 0x64 ADD PUSH1 0x20 PUSH1 0x40 MLOAD DUP1 DUP4 SUB DUP2 DUP7 GAS STATICCALL ISZERO DUP1 ISZERO PUSH2 0x188A JUMPI RETURNDATASIZE PUSH1 0x0 DUP1 RETURNDATACOPY RETURNDATASIZE PUSH1 0x0 REVERT JUMPDEST POP POP POP POP PUSH1 0x40 MLOAD RETURNDATASIZE PUSH1 0x1F NOT PUSH1 0x1F DUP3 ADD AND DUP3 ADD DUP1 PUSH1 0x40 MSTORE POP DUP2 ADD SWAP1 PUSH2 0x18AE SWAP2 SWAP1 PUSH2 0x1CD0 JUMP JUMPDEST ISZERO PUSH2 0x18B8 JUMPI SWAP2 SWAP1 POP JUMP JUMPDEST CALLER SWAP2 POP POP SWAP1 JUMP JUMPDEST PUSH1 0x0 DUP2 DUP1 PUSH1 0x20 ADD SWAP1 MLOAD DUP2 ADD SWAP1 PUSH2 0x18D5 SWAP2 SWAP1 PUSH2 0x1CF2 JUMP JUMPDEST PUSH1 0x40 MLOAD PUSH32 0xA9059CBB00000000000000000000000000000000000000000000000000000000 DUP2 MSTORE PUSH20 0xFFFFFFFFFFFFFFFFFFFFFFFFFFFFFFFFFFFFFFFF DUP6 DUP2 AND PUSH1 0x4 DUP4 ADD MSTORE PUSH1 0x24 DUP3 ADD DUP4 SWAP1 MSTORE SWAP2 SWAP3 POP PUSH32 0x0 SWAP1 SWAP2 AND SWAP1 PUSH4 0xA9059CBB SWAP1 PUSH1 0x44 ADD PUSH1 0x20 PUSH1 0x40 MLOAD DUP1 DUP4 SUB DUP2 PUSH1 0x0 DUP8 GAS CALL ISZERO DUP1 ISZERO PUSH2 0x196F JUMPI RETURNDATASIZE PUSH1 0x0 DUP1 RETURNDATACOPY RETURNDATASIZE PUSH1 0x0 REVERT JUMPDEST POP POP POP POP PUSH1 0x40 MLOAD RETURNDATASIZE PUSH1 0x1F NOT PUSH1 0x1F DUP3 ADD AND DUP3 ADD DUP1 PUSH1 0x40 MSTORE POP DUP2 ADD SWAP1 PUSH2 0x1993 SWAP2 SWAP1 PUSH2 0x1CD0 JUMP JUMPDEST POP SWAP3 SWAP2 POP POP JUMP JUMPDEST PUSH1 0x0 DUP2 DUP1 PUSH1 0x20 ADD SWAP1 MLOAD DUP2 ADD SWAP1 PUSH2 0xDEC SWAP2 SWAP1 PUSH2 0x1CF2 JUMP JUMPDEST PUSH20 0xFFFFFFFFFFFFFFFFFFFFFFFFFFFFFFFFFFFFFFFF DUP2 AND DUP2 EQ PUSH2 0xD79 JUMPI PUSH1 0x0 DUP1 REVERT JUMPDEST PUSH1 0x0 PUSH1 0x20 DUP3 DUP5 SUB SLT ISZERO PUSH2 0x19E4 JUMPI PUSH1 0x0 DUP1 REVERT JUMPDEST DUP2 CALLDATALOAD PUSH2 0xDEC DUP2 PUSH2 0x19B0 JUMP JUMPDEST PUSH1 0x0 PUSH1 0x20 DUP3 DUP5 SUB SLT ISZERO PUSH2 0x1A01 JUMPI PUSH1 0x0 DUP1 REVERT JUMPDEST DUP2 CALLDATALOAD PUSH32 0xFFFFFFFF00000000000000000000000000000000000000000000000000000000 DUP2 AND DUP2 EQ PUSH2 0xDEC JUMPI PUSH1 0x0 DUP1 REVERT JUMPDEST PUSH1 0x0 DUP1 DUP4 PUSH1 0x1F DUP5 ADD SLT PUSH2 0x1A43 JUMPI PUSH1 0x0 DUP1 REVERT JUMPDEST POP DUP2 CALLDATALOAD PUSH8 0xFFFFFFFFFFFFFFFF DUP2 GT ISZERO PUSH2 0x1A5B JUMPI PUSH1 0x0 DUP1 REVERT JUMPDEST PUSH1 0x20 DUP4 ADD SWAP2 POP DUP4 PUSH1 0x20 DUP3 DUP6 ADD ADD GT ISZERO PUSH2 0x1A73 JUMPI PUSH1 0x0 DUP1 REVERT JUMPDEST SWAP3 POP SWAP3 SWAP1 POP JUMP JUMPDEST PUSH1 0x0 DUP1 PUSH1 0x20 DUP4 DUP6 SUB SLT ISZERO PUSH2 0x1A8D JUMPI PUSH1 0x0 DUP1 REVERT JUMPDEST DUP3 CALLDATALOAD PUSH8 0xFFFFFFFFFFFFFFFF DUP2 GT ISZERO PUSH2 0x1AA4 JUMPI PUSH1 0x0 DUP1 REVERT JUMPDEST PUSH2 0x1AB0 DUP6 DUP3 DUP7 ADD PUSH2 0x1A31 JUMP JUMPDEST SWAP1 SWAP7 SWAP1 SWAP6 POP SWAP4 POP POP POP POP JUMP JUMPDEST PUSH1 0x0 DUP1 PUSH1 0x40 DUP4 DUP6 SUB SLT ISZERO PUSH2 0x1ACF JUMPI PUSH1 0x0 DUP1 REVERT JUMPDEST DUP3 CALLDATALOAD SWAP2 POP PUSH1 0x20 DUP4 ADD CALLDATALOAD PUSH2 0x1AE1 DUP2 PUSH2 0x19B0 JUMP JUMPDEST DUP1 SWAP2 POP POP SWAP3 POP SWAP3 SWAP1 POP JUMP JUMPDEST PUSH1 0x0 DUP1 PUSH1 0x0 DUP1 PUSH1 0x0 PUSH1 0x80 DUP7 DUP9 SUB SLT ISZERO PUSH2 0x1B04 JUMPI PUSH1 0x0 DUP1 REVERT JUMPDEST DUP6 CALLDATALOAD PUSH2 0x1B0F DUP2 PUSH2 0x19B0 JUMP JUMPDEST SWAP5 POP PUSH1 0x20 DUP7 ADD CALLDATALOAD PUSH2 0x1B1F DUP2 PUSH2 0x19B0 JUMP JUMPDEST SWAP4 POP PUSH1 0x40 DUP7 ADD CALLDATALOAD SWAP3 POP PUSH1 0x60 DUP7 ADD CALLDATALOAD PUSH8 0xFFFFFFFFFFFFFFFF DUP2 GT ISZERO PUSH2 0x1B42 JUMPI PUSH1 0x0 DUP1 REVERT JUMPDEST PUSH2 0x1B4E DUP9 DUP3 DUP10 ADD PUSH2 0x1A31 JUMP JUMPDEST SWAP7 SWAP10 SWAP6 SWAP9 POP SWAP4 SWAP7 POP SWAP3 SWAP5 SWAP4 SWAP3 POP POP POP JUMP JUMPDEST PUSH1 0x0 DUP1 PUSH1 0x40 DUP4 DUP6 SUB SLT ISZERO PUSH2 0x1B72 JUMPI PUSH1 0x0 DUP1 REVERT JUMPDEST POP POP DUP1 CALLDATALOAD SWAP3 PUSH1 0x20 SWAP1 SWAP2 ADD CALLDATALOAD SWAP2 POP JUMP JUMPDEST PUSH1 0x0 PUSH1 0x20 DUP3 DUP5 SUB SLT ISZERO PUSH2 0x1B93 JUMPI PUSH1 0x0 DUP1 REVERT JUMPDEST POP CALLDATALOAD SWAP2 SWAP1 POP JUMP JUMPDEST PUSH32 0x4E487B7100000000000000000000000000000000000000000000000000000000 PUSH1 0x0 MSTORE PUSH1 0x11 PUSH1 0x4 MSTORE PUSH1 0x24 PUSH1 0x0 REVERT JUMPDEST DUP2 DUP2 SUB DUP2 DUP2 GT ISZERO PUSH2 0x724 JUMPI PUSH2 0x724 PUSH2 0x1B9A JUMP JUMPDEST DUP1 DUP3 MUL DUP2 ISZERO DUP3 DUP3 DIV DUP5 EQ OR PUSH2 0x724 JUMPI PUSH2 0x724 PUSH2 0x1B9A JUMP JUMPDEST PUSH32 0x4E487B7100000000000000000000000000000000000000000000000000000000 PUSH1 0x0 MSTORE PUSH1 0x12 PUSH1 0x4 MSTORE PUSH1 0x24 PUSH1 0x0 REVERT JUMPDEST PUSH1 0x0 DUP3 PUSH2 0x1C31 JUMPI PUSH2 0x1C31 PUSH2 0x1BF3 JUMP JUMPDEST POP DIV SWAP1 JUMP JUMPDEST DUP1 DUP3 ADD DUP1 DUP3 GT ISZERO PUSH2 0x724 JUMPI PUSH2 0x724 PUSH2 0x1B9A JUMP JUMPDEST PUSH1 0x40 DUP2 MSTORE PUSH1 0x0 DUP4 MLOAD DUP1 PUSH1 0x40 DUP5 ADD MSTORE PUSH1 0x0 JUMPDEST DUP2 DUP2 LT ISZERO PUSH2 0x1C77 JUMPI PUSH1 0x20 DUP2 DUP8 ADD DUP2 ADD MLOAD PUSH1 0x60 DUP7 DUP5 ADD ADD MSTORE ADD PUSH2 0x1C5A JUMP JUMPDEST POP PUSH1 0x0 PUSH1 0x60 DUP3 DUP6 ADD ADD MSTORE PUSH1 0x60 PUSH32 0xFFFFFFFFFFFFFFFFFFFFFFFFFFFFFFFFFFFFFFFFFFFFFFFFFFFFFFFFFFFFFFE0 PUSH1 0x1F DUP4 ADD AND DUP5 ADD ADD SWAP2 POP POP DUP3 PUSH1 0x20 DUP4 ADD MSTORE SWAP4 SWAP3 POP POP POP JUMP JUMPDEST PUSH1 0x0 DUP3 PUSH2 0x1CCB JUMPI PUSH2 0x1CCB PUSH2 0x1BF3 JUMP JUMPDEST POP MOD SWAP1 JUMP JUMPDEST PUSH1 0x0 PUSH1 0x20 DUP3 DUP5 SUB SLT ISZERO PUSH2 0x1CE2 JUMPI PUSH1 0x0 DUP1 REVERT JUMPDEST DUP2 MLOAD DUP1 ISZERO ISZERO DUP2 EQ PUSH2 0xDEC JUMPI PUSH1 0x0 DUP1 REVERT JUMPDEST PUSH1 0x0 PUSH1 0x20 DUP3 DUP5 SUB SLT ISZERO PUSH2 0x1D04 JUMPI PUSH1 0x0 DUP1 REVERT JUMPDEST POP MLOAD SWAP2 SWAP1 POP JUMP INVALID LOG2 PUSH5 0x6970667358 0x22 SLT KECCAK256 0xB9 0xE6 0x4F DUP13 0xDB 0x25 MSTORE 0xB9 0xCB SWAP6 ISZERO 0xA5 0xB9 POP 0xA7 0xC6 0xD2 DUP9 0xCE 0xEF LOG2 ADDRESS 0xAF PUSH3 0xC9720 CODECOPY ADDMOD DUP9 0xCF PUSH25 0x64736F6C634300081C00330000000000000000000000000000 "},"gasEstimates":{"creation":{"codeDepositCost":"1497800","executionCost":"infinite","totalCost":"infinite"},"external":{"CLAIM_CONTRACT()":"infinite","C_TOKEN()":"infinite","DEPOSIT_REASON_CODE()":"infinite","POINTS_CONTRACT()":"infinite","REWARDER_ROLE()":"229","SCALING_FACTOR()":"250","addReward(uint256,uint256)":"infinite","claim()":"infinite","distributionEnd()":"2372","earned(address)":"infinite","forwarderRegistry()":"infinite","grantRole(bytes32,address)":"infinite","hasRole(bytes32,address)":"infinite","isTrustedForwarder(address)":"infinite","lastTimeRewardApplicable()":"2435","lastUpdated()":"2395","onERC20Received(address,address,uint256,bytes)":"infinite","owner()":"infinite","renounceRole(bytes32)":"infinite","revokeRole(bytes32,address)":"infinite","rewardPerStakePoint()":"infinite","rewardPerStakePointPaid(address)":"2579","rewardPerStakePointStored()":"2351","rewardRate()":"2352","rewards(address)":"2536","stake(bytes)":"518","staked(address)":"2535","supportsInterface(bytes4)":"infinite","totalStaked()":"2396","transferOwnership(address)":"infinite","withdraw(bytes)":"infinite"},"internal":{"_computeAddReward(address,uint256,uint256)":"infinite","_computeClaim(address,uint256)":"infinite","_computeStake(address,bytes memory)":"infinite","_computeWithdraw(address,bytes memory)":"infinite"}},"methodIdentifiers":{"CLAIM_CONTRACT()":"62ba9096","C_TOKEN()":"04948ea1","DEPOSIT_REASON_CODE()":"2196e445","POINTS_CONTRACT()":"2d4c2f93","REWARDER_ROLE()":"8580cf76","SCALING_FACTOR()":"ef4cadc5","addReward(uint256,uint256)":"75c93bb9","claim()":"4e71d92d","distributionEnd()":"efa90b54","earned(address)":"008cc262","forwarderRegistry()":"2b4c9f16","grantRole(bytes32,address)":"2f2ff15d","hasRole(bytes32,address)":"91d14854","isTrustedForwarder(address)":"572b6c05","lastTimeRewardApplicable()":"80faa57d","lastUpdated()":"d0b06f5d","onERC20Received(address,address,uint256,bytes)":"4fc35859","owner()":"8da5cb5b","renounceRole(bytes32)":"8bb9c5bf","revokeRole(bytes32,address)":"d547741f","rewardPerStakePoint()":"2c9d0b80","rewardPerStakePointPaid(address)":"c5c8f770","rewardPerStakePointStored()":"9d696e36","rewardRate()":"7b0a47ee","rewards(address)":"0700037d","stake(bytes)":"2d1e0c02","staked(address)":"98807d84","supportsInterface(bytes4)":"01ffc9a7","totalStaked()":"817b1cd2","transferOwnership(address)":"f2fde38b","withdraw(bytes)":"0968f264"}},"storageLayout":{"storage":[{"astId":2714,"contract":"contracts/staking/CStakingPool.sol:CStakingPool","label":"_status","offset":0,"slot":"0","type":"t_uint256"},{"astId":1332,"contract":"contracts/staking/CStakingPool.sol:CStakingPool","label":"totalStaked","offset":0,"slot":"1","type":"t_uint256"},{"astId":1334,"contract":"contracts/staking/CStakingPool.sol:CStakingPool","label":"lastUpdated","offset":0,"slot":"2","type":"t_uint256"},{"astId":1336,"contract":"contracts/staking/CStakingPool.sol:CStakingPool","label":"rewardRate","offset":0,"slot":"3","type":"t_uint256"},{"astId":1338,"contract":"contracts/staking/CStakingPool.sol:CStakingPool","label":"rewardPerStakePointStored","offset":0,"slot":"4","type":"t_uint256"},{"astId":1340,"contract":"contracts/staking/CStakingPool.sol:CStakingPool","label":"distributionEnd","offset":0,"slot":"5","type":"t_uint256"},{"astId":1344,"contract":"contracts/staking/CStakingPool.sol:CStakingPool","label":"staked","offset":0,"slot":"6","type":"t_mapping(t_address,t_uint256)"},{"astId":1348,"contract":"contracts/staking/CStakingPool.sol:CStakingPool","label":"rewards","offset":0,"slot":"7","type":"t_mapping(t_address,t_uint256)"},{"astId":1352,"contract":"contracts/staking/CStakingPool.sol:CStakingPool","label":"rewardPerStakePointPaid","offset":0,"slot":"8","type":"t_mapping(t_address,t_uint256)"}],"types":{"t_address":{"encoding":"inplace","label":"address","numberOfBytes":"20"},"t_mapping(t_address,t_uint256)":{"encoding":"mapping","key":"t_address","label":"mapping(address => uint256)","numberOfBytes":"32","value":"t_uint256"},"t_uint256":{"encoding":"inplace","label":"uint256","numberOfBytes":"32"}}},"userdoc":{"errors":{"IllegalInterfaceId()":[{"notice":"Thrown when setting the illegal interfaceId 0xffffffff."}],"NotContractOwner(address)":[{"notice":"Thrown when an account is not the contract owner but is required to."}],"NotRoleHolder(bytes32,address)":[{"notice":"Thrown when an account does not have the required role."}]},"events":{"OwnershipTransferred(address,address)":{"notice":"Emitted when the contract ownership changes."},"RoleGranted(bytes32,address,address)":{"notice":"Emitted when `role` is granted to `account`."},"RoleRevoked(bytes32,address,address)":{"notice":"Emitted when `role` is revoked from `account`."}},"kind":"user","methods":{"grantRole(bytes32,address)":{"notice":"Grants a role to an account."},"hasRole(bytes32,address)":{"notice":"Retrieves whether an account has a role."},"isTrustedForwarder(address)":{"notice":"Checks whether a forwarder is trusted."},"owner()":{"notice":"Gets the address of the contract owner."},"renounceRole(bytes32)":{"notice":"Renounces a role by the sender."},"revokeRole(bytes32,address)":{"notice":"Revokes a role from an account."},"supportsInterface(bytes4)":{"notice":"Returns whether this contract implements a given interface."},"transferOwnership(address)":{"notice":"Sets the address of the new contract owner."}},"version":1}}}}