{
  "_format": "hh-sol-artifact-1",
  "contractName": "BitmapClaimMockReentrancyRecipient",
  "sourceName": "contracts/mocks/bitmapClaim/BitmapClaimMockReentrancyRecipient.sol",
  "abi": [
    {
      "inputs": [
        {
          "internalType": "contract BitmapClaim",
          "name": "bitmapClaim",
          "type": "address"
        }
      ],
      "stateMutability": "nonpayable",
      "type": "constructor"
    },
    {
      "inputs": [
        {
          "internalType": "address",
          "name": "recipient",
          "type": "address"
        },
        {
          "internalType": "uint256[]",
          "name": "claimBitPositions",
          "type": "uint256[]"
        },
        {
          "internalType": "bytes",
          "name": "validationData",
          "type": "bytes"
        }
      ],
      "name": "attack",
      "outputs": [],
      "stateMutability": "nonpayable",
      "type": "function"
    }
  ],
  "bytecode": "0x60a060405234801561001057600080fd5b5060405161038838038061038883398101604081905261002f91610040565b6001600160a01b0316608052610070565b60006020828403121561005257600080fd5b81516001600160a01b038116811461006957600080fd5b9392505050565b6080516102fe61008a6000396000608101526102fe6000f3fe608060405234801561001057600080fd5b506004361061002b5760003560e01c806335fee54614610030575b600080fd5b61004361003e36600461013f565b610045565b005b6040517ecfbb8500000000000000000000000000000000000000000000000000000000815273ffffffffffffffffffffffffffffffffffffffff7f0000000000000000000000000000000000000000000000000000000000000000169062cfbb85906100bd908890889088908890889060040161020c565b600060405180830381600087803b1580156100d757600080fd5b505af11580156100eb573d6000803e3d6000fd5b505050505050505050565b60008083601f84011261010857600080fd5b50813567ffffffffffffffff81111561012057600080fd5b60208301915083602082850101111561013857600080fd5b9250929050565b60008060008060006060868803121561015757600080fd5b853573ffffffffffffffffffffffffffffffffffffffff8116811461017b57600080fd5b9450602086013567ffffffffffffffff8082111561019857600080fd5b818801915088601f8301126101ac57600080fd5b8135818111156101bb57600080fd5b8960208260051b85010111156101d057600080fd5b6020830196508095505060408801359150808211156101ee57600080fd5b506101fb888289016100f6565b969995985093965092949392505050565b73ffffffffffffffffffffffffffffffffffffffff861681526060602082015283606082015260007f07ffffffffffffffffffffffffffffffffffffffffffffffffffffffffffffff85111561026157600080fd5b8460051b808760808501378201828103608090810160408501528101849052838560a0830137600060a0858301015260a07fffffffffffffffffffffffffffffffffffffffffffffffffffffffffffffffe0601f860116820101915050969550505050505056fea2646970667358221220d698709e7cb0048fb8b320dca9d284fbcc4da9463335df5e8a8c60984a13ce0a64736f6c63430008160033",
  "linkReferences": {},
  "deployedLinkReferences": {}
}