{
  "_format": "hh-sol-artifact-1",
  "contractName": "ERC20Arena",
  "sourceName": "contracts/arena/ERC20Arena.sol",
  "abi": [
    {
      "inputs": [
        {
          "internalType": "uint256",
          "name": "entryFee",
          "type": "uint256"
        },
        {
          "internalType": "uint256",
          "name": "commissionRate_",
          "type": "uint256"
        },
        {
          "internalType": "address",
          "name": "messageSigner",
          "type": "address"
        },
        {
          "internalType": "address payable",
          "name": "payoutWallet",
          "type": "address"
        },
        {
          "internalType": "address",
          "name": "erc20",
          "type": "address"
        },
        {
          "internalType": "contract IForwarderRegistry",
          "name": "forwarderRegistry",
          "type": "address"
        }
      ],
      "stateMutability": "nonpayable",
      "type": "constructor"
    },
    {
      "inputs": [
        {
          "internalType": "address",
          "name": "account",
          "type": "address"
        }
      ],
      "name": "AlreadyAdmitted",
      "type": "error"
    },
    {
      "inputs": [],
      "name": "FailedCall",
      "type": "error"
    },
    {
      "inputs": [],
      "name": "IllegalInterfaceId",
      "type": "error"
    },
    {
      "inputs": [],
      "name": "InconsistentArrayLengths",
      "type": "error"
    },
    {
      "inputs": [
        {
          "internalType": "address",
          "name": "tokenContract",
          "type": "address"
        }
      ],
      "name": "IncorrectTokenContractType",
      "type": "error"
    },
    {
      "inputs": [
        {
          "internalType": "uint256",
          "name": "balance",
          "type": "uint256"
        },
        {
          "internalType": "uint256",
          "name": "needed",
          "type": "uint256"
        }
      ],
      "name": "InsufficientBalance",
      "type": "error"
    },
    {
      "inputs": [
        {
          "internalType": "uint256",
          "name": "rate",
          "type": "uint256"
        }
      ],
      "name": "InvalidCommissionRate",
      "type": "error"
    },
    {
      "inputs": [
        {
          "internalType": "uint256",
          "name": "amount",
          "type": "uint256"
        }
      ],
      "name": "InvalidPaymentAmount",
      "type": "error"
    },
    {
      "inputs": [
        {
          "internalType": "address",
          "name": "token",
          "type": "address"
        }
      ],
      "name": "InvalidPaymentToken",
      "type": "error"
    },
    {
      "inputs": [],
      "name": "InvalidShortString",
      "type": "error"
    },
    {
      "inputs": [],
      "name": "InvalidSignature",
      "type": "error"
    },
    {
      "inputs": [
        {
          "internalType": "address",
          "name": "account",
          "type": "address"
        }
      ],
      "name": "NotContractOwner",
      "type": "error"
    },
    {
      "inputs": [
        {
          "internalType": "address",
          "name": "account",
          "type": "address"
        }
      ],
      "name": "PlayerNotAdmitted",
      "type": "error"
    },
    {
      "inputs": [
        {
          "internalType": "address",
          "name": "token",
          "type": "address"
        }
      ],
      "name": "SafeERC20FailedOperation",
      "type": "error"
    },
    {
      "inputs": [
        {
          "internalType": "string",
          "name": "str",
          "type": "string"
        }
      ],
      "name": "StringTooLong",
      "type": "error"
    },
    {
      "inputs": [
        {
          "internalType": "uint256",
          "name": "recoverableAmount",
          "type": "uint256"
        },
        {
          "internalType": "uint256",
          "name": "amount",
          "type": "uint256"
        }
      ],
      "name": "Unrecoverable",
      "type": "error"
    },
    {
      "inputs": [],
      "name": "ZeroAddressPayoutWallet",
      "type": "error"
    },
    {
      "inputs": [],
      "name": "ZeroPrice",
      "type": "error"
    },
    {
      "anonymous": false,
      "inputs": [
        {
          "indexed": true,
          "internalType": "address",
          "name": "account",
          "type": "address"
        }
      ],
      "name": "Admission",
      "type": "event"
    },
    {
      "anonymous": false,
      "inputs": [
        {
          "indexed": false,
          "internalType": "uint256",
          "name": "rate",
          "type": "uint256"
        }
      ],
      "name": "CommissionRateSet",
      "type": "event"
    },
    {
      "anonymous": false,
      "inputs": [],
      "name": "EIP712DomainChanged",
      "type": "event"
    },
    {
      "anonymous": false,
      "inputs": [
        {
          "indexed": true,
          "internalType": "uint256",
          "name": "matchId",
          "type": "uint256"
        },
        {
          "indexed": true,
          "internalType": "address",
          "name": "player1",
          "type": "address"
        },
        {
          "indexed": true,
          "internalType": "address",
          "name": "player2",
          "type": "address"
        },
        {
          "indexed": false,
          "internalType": "enum ArenaBase.MatchResult",
          "name": "result",
          "type": "uint8"
        }
      ],
      "name": "MatchCompleted",
      "type": "event"
    },
    {
      "anonymous": false,
      "inputs": [
        {
          "indexed": false,
          "internalType": "address",
          "name": "signer",
          "type": "address"
        }
      ],
      "name": "MessageSignerSet",
      "type": "event"
    },
    {
      "anonymous": false,
      "inputs": [
        {
          "indexed": true,
          "internalType": "address",
          "name": "previousOwner",
          "type": "address"
        },
        {
          "indexed": true,
          "internalType": "address",
          "name": "newOwner",
          "type": "address"
        }
      ],
      "name": "OwnershipTransferred",
      "type": "event"
    },
    {
      "anonymous": false,
      "inputs": [
        {
          "indexed": true,
          "internalType": "address",
          "name": "account",
          "type": "address"
        },
        {
          "indexed": true,
          "internalType": "uint256",
          "name": "matchId",
          "type": "uint256"
        },
        {
          "indexed": false,
          "internalType": "uint256",
          "name": "amount",
          "type": "uint256"
        }
      ],
      "name": "PayoutDelivered",
      "type": "event"
    },
    {
      "anonymous": false,
      "inputs": [
        {
          "indexed": false,
          "internalType": "address",
          "name": "payoutWallet",
          "type": "address"
        }
      ],
      "name": "PayoutWalletSet",
      "type": "event"
    },
    {
      "inputs": [],
      "name": "COMPLETE_MATCH_TYPEHASH",
      "outputs": [
        {
          "internalType": "bytes32",
          "name": "",
          "type": "bytes32"
        }
      ],
      "stateMutability": "view",
      "type": "function"
    },
    {
      "inputs": [],
      "name": "ENTRY_FEE",
      "outputs": [
        {
          "internalType": "uint256",
          "name": "",
          "type": "uint256"
        }
      ],
      "stateMutability": "view",
      "type": "function"
    },
    {
      "inputs": [],
      "name": "ERC20",
      "outputs": [
        {
          "internalType": "contract IERC20",
          "name": "",
          "type": "address"
        }
      ],
      "stateMutability": "view",
      "type": "function"
    },
    {
      "inputs": [],
      "name": "admit",
      "outputs": [],
      "stateMutability": "nonpayable",
      "type": "function"
    },
    {
      "inputs": [
        {
          "internalType": "address",
          "name": "account",
          "type": "address"
        }
      ],
      "name": "admitted",
      "outputs": [
        {
          "internalType": "bool",
          "name": "admitted",
          "type": "bool"
        }
      ],
      "stateMutability": "view",
      "type": "function"
    },
    {
      "inputs": [],
      "name": "commission",
      "outputs": [
        {
          "internalType": "uint256",
          "name": "",
          "type": "uint256"
        }
      ],
      "stateMutability": "view",
      "type": "function"
    },
    {
      "inputs": [],
      "name": "commissionRate",
      "outputs": [
        {
          "internalType": "uint256",
          "name": "",
          "type": "uint256"
        }
      ],
      "stateMutability": "view",
      "type": "function"
    },
    {
      "inputs": [
        {
          "internalType": "uint256",
          "name": "matchId",
          "type": "uint256"
        },
        {
          "internalType": "address",
          "name": "player1",
          "type": "address"
        },
        {
          "internalType": "address",
          "name": "player2",
          "type": "address"
        },
        {
          "internalType": "enum ArenaBase.MatchResult",
          "name": "result",
          "type": "uint8"
        },
        {
          "internalType": "bytes",
          "name": "signature",
          "type": "bytes"
        }
      ],
      "name": "completeMatch",
      "outputs": [],
      "stateMutability": "nonpayable",
      "type": "function"
    },
    {
      "inputs": [],
      "name": "eip712Domain",
      "outputs": [
        {
          "internalType": "bytes1",
          "name": "fields",
          "type": "bytes1"
        },
        {
          "internalType": "string",
          "name": "name",
          "type": "string"
        },
        {
          "internalType": "string",
          "name": "version",
          "type": "string"
        },
        {
          "internalType": "uint256",
          "name": "chainId",
          "type": "uint256"
        },
        {
          "internalType": "address",
          "name": "verifyingContract",
          "type": "address"
        },
        {
          "internalType": "bytes32",
          "name": "salt",
          "type": "bytes32"
        },
        {
          "internalType": "uint256[]",
          "name": "extensions",
          "type": "uint256[]"
        }
      ],
      "stateMutability": "view",
      "type": "function"
    },
    {
      "inputs": [],
      "name": "feeLocked",
      "outputs": [
        {
          "internalType": "uint256",
          "name": "",
          "type": "uint256"
        }
      ],
      "stateMutability": "view",
      "type": "function"
    },
    {
      "inputs": [],
      "name": "forwarderRegistry",
      "outputs": [
        {
          "internalType": "contract IForwarderRegistry",
          "name": "",
          "type": "address"
        }
      ],
      "stateMutability": "view",
      "type": "function"
    },
    {
      "inputs": [
        {
          "internalType": "address",
          "name": "forwarder",
          "type": "address"
        }
      ],
      "name": "isTrustedForwarder",
      "outputs": [
        {
          "internalType": "bool",
          "name": "",
          "type": "bool"
        }
      ],
      "stateMutability": "view",
      "type": "function"
    },
    {
      "inputs": [],
      "name": "messageSigner",
      "outputs": [
        {
          "internalType": "address",
          "name": "",
          "type": "address"
        }
      ],
      "stateMutability": "view",
      "type": "function"
    },
    {
      "inputs": [
        {
          "internalType": "address",
          "name": "",
          "type": "address"
        },
        {
          "internalType": "address",
          "name": "from",
          "type": "address"
        },
        {
          "internalType": "uint256",
          "name": "amount",
          "type": "uint256"
        },
        {
          "internalType": "bytes",
          "name": "",
          "type": "bytes"
        }
      ],
      "name": "onERC20Received",
      "outputs": [
        {
          "internalType": "bytes4",
          "name": "",
          "type": "bytes4"
        }
      ],
      "stateMutability": "nonpayable",
      "type": "function"
    },
    {
      "inputs": [],
      "name": "owner",
      "outputs": [
        {
          "internalType": "address",
          "name": "",
          "type": "address"
        }
      ],
      "stateMutability": "view",
      "type": "function"
    },
    {
      "inputs": [],
      "name": "payoutWallet",
      "outputs": [
        {
          "internalType": "address payable",
          "name": "wallet",
          "type": "address"
        }
      ],
      "stateMutability": "view",
      "type": "function"
    },
    {
      "inputs": [
        {
          "internalType": "address[]",
          "name": "accounts",
          "type": "address[]"
        },
        {
          "internalType": "contract IERC20[]",
          "name": "tokens",
          "type": "address[]"
        },
        {
          "internalType": "uint256[]",
          "name": "amounts",
          "type": "uint256[]"
        }
      ],
      "name": "recoverERC20s",
      "outputs": [],
      "stateMutability": "nonpayable",
      "type": "function"
    },
    {
      "inputs": [
        {
          "internalType": "address[]",
          "name": "accounts",
          "type": "address[]"
        },
        {
          "internalType": "contract IERC721[]",
          "name": "contracts",
          "type": "address[]"
        },
        {
          "internalType": "uint256[]",
          "name": "tokenIds",
          "type": "uint256[]"
        }
      ],
      "name": "recoverERC721s",
      "outputs": [],
      "stateMutability": "nonpayable",
      "type": "function"
    },
    {
      "inputs": [
        {
          "internalType": "address payable[]",
          "name": "accounts",
          "type": "address[]"
        },
        {
          "internalType": "uint256[]",
          "name": "amounts",
          "type": "uint256[]"
        }
      ],
      "name": "recoverETH",
      "outputs": [],
      "stateMutability": "nonpayable",
      "type": "function"
    },
    {
      "inputs": [],
      "name": "reward",
      "outputs": [
        {
          "internalType": "uint256",
          "name": "",
          "type": "uint256"
        }
      ],
      "stateMutability": "view",
      "type": "function"
    },
    {
      "inputs": [
        {
          "internalType": "uint256",
          "name": "newCommissionRate",
          "type": "uint256"
        }
      ],
      "name": "setCommissionRate",
      "outputs": [],
      "stateMutability": "nonpayable",
      "type": "function"
    },
    {
      "inputs": [
        {
          "internalType": "address",
          "name": "signer",
          "type": "address"
        }
      ],
      "name": "setMessageSigner",
      "outputs": [],
      "stateMutability": "nonpayable",
      "type": "function"
    },
    {
      "inputs": [
        {
          "internalType": "address payable",
          "name": "newPayoutWallet",
          "type": "address"
        }
      ],
      "name": "setPayoutWallet",
      "outputs": [],
      "stateMutability": "nonpayable",
      "type": "function"
    },
    {
      "inputs": [
        {
          "internalType": "bytes4",
          "name": "interfaceId",
          "type": "bytes4"
        }
      ],
      "name": "supportsInterface",
      "outputs": [
        {
          "internalType": "bool",
          "name": "",
          "type": "bool"
        }
      ],
      "stateMutability": "view",
      "type": "function"
    },
    {
      "inputs": [
        {
          "internalType": "address",
          "name": "newOwner",
          "type": "address"
        }
      ],
      "name": "transferOwnership",
      "outputs": [],
      "stateMutability": "nonpayable",
      "type": "function"
    }
  ],
  "bytecode": "0x6101c060405234801561001157600080fd5b5060405161337038038061337083398101604081905261003091610553565b8080848633604051806040016040528060058152602001644172656e6160d81b815250604051806040016040528060038152602001620312e360ec1b81525061008360008361021360201b90919060201c565b61012052610092816001610213565b61014052815160208084019190912060e052815190820120610100524660a05261011f60e05161010051604080517f8b73c3c69bb8fe3d512ecc4cf759cc79239f7b179b0ffacaa9a75d522b39400f60208201529081019290925260608201524660808201523060a082015260009060c00160405160208183030381529060405280519060200120905090565b60805250503060c05261013a81610134610246565b90610274565b50600280546001600160a01b0319166001600160a01b0383169081179091556040519081527f66b8dbbd7f4a59921c0e0f594b6fb8434e778851611f323b7c3d00d07a74b1209060200160405180910390a1506101a9634fc3585960e01b60016101a26102e3565b9190610311565b6101bb816101b561036d565b9061039b565b506001600160a01b0316610160525060008690036101ec57604051634dfba02360e01b815260040160405180910390fd5b6101a08690526101fb856103a5565b506001600160a01b0316610180525061081492505050565b600060208351101561022f5761022883610484565b9050610240565b8161023a8482610666565b5060ff90505b92915050565b60008061024060017fc9ed16f33ab3a66c84bfd83099ccb2a8845871e2e1c1928f63797152f0fd54cd61073a565b6001600160a01b038116156102ca5781546001600160a01b0319166001600160a01b03821690811783556040516000907f8be0079c531659141344cd1fd0a4f28419497f9722a3daafe3b4186f6b6457e0908290a35b6102df6307f5828d60e41b60016101a26102e3565b5050565b60008061024060017fca9d3e17f264b0f3984e2634e94adb37fa3e6a8103f06aeae6fa59e21c769f5e61073a565b600160e01b6001600160e01b031983160161033f576040516372c683bb60e01b815260040160405180910390fd5b6001600160e01b03199190911660009081526020929092526040909120805460ff1916911515919091179055565b60008061024060017f4fb5f8cdfbce77f22b0931a39e9f476a60a0f66524b2f379e96485471eb700ae61073a565b6102df82826104c2565b60006101a05160026103b7919061074d565b90506000821561043d576127108084106103ec57604051633e13fd7160e11b8152600481018590526024015b60405180910390fd5b806103f7858561074d565b610401919061077a565b915061040e60028361078e565b1561042f57604051633e13fd7160e11b8152600481018590526024016103e3565b610439828461073a565b9250505b6004839055600581905560068290556040518381527f2377da1065ac38e2a730070d5b9dd08aa697ba49f4b41e3dee80ab5cc06099019060200160405180910390a1505050565b600080829050601f815111156104af578260405163305a27a960e01b81526004016103e391906107a2565b80516104ba826107f0565b179392505050565b6001600160a01b0381166104e9576040516340b539cf60e01b815260040160405180910390fd5b81546001600160a01b0319166001600160a01b03821690811783556040519081527fdd880d24a789958a6398c99c2e54ce31bc10a638cbc42f7dd34285479ae0f8559060200160405180910390a15050565b6001600160a01b038116811461055057600080fd5b50565b60008060008060008060c0878903121561056c57600080fd5b86516020880151604089015191975095506105868161053b565b60608801519094506105978161053b565b60808801519093506105a88161053b565b60a08801519092506105b98161053b565b809150509295509295509295565b634e487b7160e01b600052604160045260246000fd5b600181811c908216806105f157607f821691505b60208210810361061157634e487b7160e01b600052602260045260246000fd5b50919050565b601f82111561066157806000526020600020601f840160051c8101602085101561063e5750805b601f840160051c820191505b8181101561065e576000815560010161064a565b50505b505050565b81516001600160401b0381111561067f5761067f6105c7565b6106938161068d84546105dd565b84610617565b6020601f8211600181146106c757600083156106af5750848201515b600019600385901b1c1916600184901b17845561065e565b600084815260208120601f198516915b828110156106f757878501518255602094850194600190920191016106d7565b50848210156107155786840151600019600387901b60f8161c191681555b50505050600190811b01905550565b634e487b7160e01b600052601160045260246000fd5b8181038181111561024057610240610724565b808202811582820484141761024057610240610724565b634e487b7160e01b600052601260045260246000fd5b60008261078957610789610764565b500490565b60008261079d5761079d610764565b500690565b602081526000825180602084015260005b818110156107d057602081860181015160408684010152016107b3565b506000604082850101526040601f19601f83011684010191505092915050565b805160208083015191908110156106115760001960209190910360031b1b16919050565b60805160a05160c05160e05161010051610120516101405161016051610180516101a051612a6a6109066000396000818161042d015281816104b80152818161052c015281816105ed0152818161095b015281816109bf0152610ea10152600081816103ea015281816105080152818161066e015281816106d70152818161071801528181610825015281816108b801528181610a870152610b020152600081816102650152818161030b01528181611a030152611a91015260006115440152600061151701526000611fc001526000611f9801526000611ef301526000611f1d01526000611f470152612a6a6000f3fe608060405234801561001057600080fd5b50600436106101a25760003560e01c80636b8f9c43116100ee578063a51f054e11610097578063e148919111610071578063e14891911461040c578063f2fde38b14610415578063f6d361cc14610428578063f7ba94bd1461044f57600080fd5b8063a51f054e146103ab578063c3666c36146103d2578063cc4aa204146103e557600080fd5b80638488bb4e116100c85780638488bb4e1461038057806384b0196e146103885780638da5cb5b146103a357600080fd5b80636b8f9c431461035157806373c8a9581461036457806377e404911461037757600080fd5b80634ae83719116101505780634fc358591161012a5780634fc35859146102b7578063572b6c05146102fb5780635ea1d6f81461034857600080fd5b80634ae83719146102895780634b36df53146102915780634d717e60146102a457600080fd5b806319fac8fd1161018157806319fac8fd14610237578063228cb7331461024c5780632b4c9f161461026357600080fd5b806220d939146101a757806301ffc9a7146101df578063080387b4146101f2575b600080fd5b6101ca6101b536600461238a565b60036020526000908152604090205460ff1681565b60405190151581526020015b60405180910390f35b6101ca6101ed3660046123a7565b610462565b6002546102129073ffffffffffffffffffffffffffffffffffffffff1681565b60405173ffffffffffffffffffffffffffffffffffffffff90911681526020016101d6565b61024a6102453660046123e9565b61047c565b005b61025560065481565b6040519081526020016101d6565b7f0000000000000000000000000000000000000000000000000000000000000000610212565b61024a6104a1565b61024a61029f36600461238a565b610550565b61024a6102b236600461244b565b6105d4565b6102ca6102c53660046124d4565b6108a9565b6040517fffffffff0000000000000000000000000000000000000000000000000000000090911681526020016101d6565b6101ca61030936600461238a565b7f000000000000000000000000000000000000000000000000000000000000000073ffffffffffffffffffffffffffffffffffffffff90811691161490565b61025560045481565b61024a61035f36600461238a565b610a20565b61024a61037236600461258c565b610a3d565b61025560075481565b610212610c11565b610390610c23565b6040516101d6979695949392919061268e565b610212610c85565b6102557fe12d3c3bf86185c3c62596db61beac70fac0abaa4c5e36b0d87bbca1cfdd582881565b61024a6103e036600461258c565b610c92565b6102127f000000000000000000000000000000000000000000000000000000000000000081565b61025560055481565b61024a61042336600461238a565b610cb3565b6102557f000000000000000000000000000000000000000000000000000000000000000081565b61024a61045d36600461274f565b610cce565b600061047682610470610ceb565b90610d19565b92915050565b610495610487610df3565b61048f610dfd565b90610e2b565b61049e81610e9a565b50565b60006104ab610df3565b90506104b681610fc1565b7f0000000000000000000000000000000000000000000000000000000000000000600760008282546104e891906127ef565b9091555061049e905073ffffffffffffffffffffffffffffffffffffffff7f00000000000000000000000000000000000000000000000000000000000000001682307f00000000000000000000000000000000000000000000000000000000000000006110b4565b61055b610487610df3565b600280547fffffffffffffffffffffffff00000000000000000000000000000000000000001673ffffffffffffffffffffffffffffffffffffffff83169081179091556040519081527f66b8dbbd7f4a59921c0e0f594b6fb8434e778851611f323b7c3d00d07a74b1209060200160405180910390a150565b6105e286868686868661113d565b6005546006546106137f00000000000000000000000000000000000000000000000000000000000000006002612802565b600760008282546106249190612819565b909155505081156106955761069561065761063d6113c2565b5473ffffffffffffffffffffffffffffffffffffffff1690565b73ffffffffffffffffffffffffffffffffffffffff7f00000000000000000000000000000000000000000000000000000000000000001690846113f0565b60028560028111156106a9576106a961282c565b036107e75760006106bb60028361288a565b90506106fe73ffffffffffffffffffffffffffffffffffffffff7f00000000000000000000000000000000000000000000000000000000000000001689836113f0565b61073f73ffffffffffffffffffffffffffffffffffffffff7f00000000000000000000000000000000000000000000000000000000000000001688836113f0565b888873ffffffffffffffffffffffffffffffffffffffff167f0733dbb1b7864ea8abcea54657d9fc322605c9a44f8733d80e4edb6d61b999bb8360405161078891815260200190565b60405180910390a3888773ffffffffffffffffffffffffffffffffffffffff167f0733dbb1b7864ea8abcea54657d9fc322605c9a44f8733d80e4edb6d61b999bb836040516107d991815260200190565b60405180910390a35061089f565b6000808660028111156107fc576107fc61282c565b146108075786610809565b875b905061084c73ffffffffffffffffffffffffffffffffffffffff7f00000000000000000000000000000000000000000000000000000000000000001682846113f0565b888173ffffffffffffffffffffffffffffffffffffffff167f0733dbb1b7864ea8abcea54657d9fc322605c9a44f8733d80e4edb6d61b999bb8460405161089591815260200190565b60405180910390a3505b5050505050505050565b6000806108b4610df3565b90507f000000000000000000000000000000000000000000000000000000000000000073ffffffffffffffffffffffffffffffffffffffff168173ffffffffffffffffffffffffffffffffffffffff1614610958576040517f4e34486d00000000000000000000000000000000000000000000000000000000815273ffffffffffffffffffffffffffffffffffffffff821660048201526024015b60405180910390fd5b847f0000000000000000000000000000000000000000000000000000000000000000146109b4576040517f1fe862180000000000000000000000000000000000000000000000000000000081526004810186905260240161094f565b6109bd86610fc1565b7f0000000000000000000000000000000000000000000000000000000000000000600760008282546109ef91906127ef565b909155507f4fc358590000000000000000000000000000000000000000000000000000000098975050505050505050565b610a2b610487610df3565b61049e81610a376113c2565b90611433565b6007546040517f70a082310000000000000000000000000000000000000000000000000000000081523060048201526000919073ffffffffffffffffffffffffffffffffffffffff7f000000000000000000000000000000000000000000000000000000000000000016906370a0823190602401602060405180830381865afa158015610ace573d6000803e3d6000fd5b505050506040513d601f19601f82011682018060405250810190610af2919061289e565b610afc9190612819565b905060007f0000000000000000000000000000000000000000000000000000000000000000815b86811015610bb3578173ffffffffffffffffffffffffffffffffffffffff16888883818110610b5457610b546128b7565b9050602002016020810190610b69919061238a565b73ffffffffffffffffffffffffffffffffffffffff1603610bab57858582818110610b9657610b966128b7565b9050602002013583610ba891906127ef565b92505b600101610b23565b5082821115610bf8576040517fee8784a9000000000000000000000000000000000000000000000000000000008152600481018490526024810183905260440161094f565b610c068989898989896114f7565b505050505050505050565b6000610c1e61063d6113c2565b905090565b600060608060008060006060610c37611510565b610c3f61153d565b604080516000808252602082019092527f0f000000000000000000000000000000000000000000000000000000000000009b939a50919850469750309650945092509050565b6000610c1e61063d610dfd565b610c9d610487610df3565b610cab86868686868661156a565b505050505050565b61049e610cbe610df3565b82610cc7610dfd565b9190611800565b610cd9610487610df3565b610ce584848484611914565b50505050565b60008061047660017fca9d3e17f264b0f3984e2634e94adb37fa3e6a8103f06aeae6fa59e21c769f5e612819565b60007c01000000000000000000000000000000000000000000000000000000007fffffffff00000000000000000000000000000000000000000000000000000000831601610d6957506000610476565b7ffe003659000000000000000000000000000000000000000000000000000000007fffffffff00000000000000000000000000000000000000000000000000000000831601610dba57506001610476565b507fffffffff00000000000000000000000000000000000000000000000000000000166000908152602091909152604090205460ff1690565b6000610c1e6119c0565b60008061047660017fc9ed16f33ab3a66c84bfd83099ccb2a8845871e2e1c1928f63797152f0fd54cd612819565b815473ffffffffffffffffffffffffffffffffffffffff828116911614610e96576040517f2ef4875e00000000000000000000000000000000000000000000000000000000815273ffffffffffffffffffffffffffffffffffffffff8216600482015260240161094f565b5050565b6000610ec77f00000000000000000000000000000000000000000000000000000000000000006002612802565b905060008215610f7a57612710808410610f10576040517f7c27fae20000000000000000000000000000000000000000000000000000000081526004810185905260240161094f565b80610f1b8585612802565b610f25919061288a565b9150610f326002836128e6565b15610f6c576040517f7c27fae20000000000000000000000000000000000000000000000000000000081526004810185905260240161094f565b610f768284612819565b9250505b6004839055600581905560068290556040518381527f2377da1065ac38e2a730070d5b9dd08aa697ba49f4b41e3dee80ab5cc06099019060200160405180910390a1505050565b73ffffffffffffffffffffffffffffffffffffffff811660009081526003602052604090205460ff16151560010361103d576040517f301eda9600000000000000000000000000000000000000000000000000000000815273ffffffffffffffffffffffffffffffffffffffff8216600482015260240161094f565b73ffffffffffffffffffffffffffffffffffffffff811660008181526003602052604080822080547fffffffffffffffffffffffffffffffffffffffffffffffffffffffffffffff00166001179055517f131f3edc3bd512c7b34906feb3cdacf9e893076fbb713603ff86294f0ddd28ca9190a250565b60405173ffffffffffffffffffffffffffffffffffffffff8481166024830152838116604483015260648201839052610ce59186918216906323b872dd906084015b604051602081830303815290604052915060e01b6020820180517bffffffffffffffffffffffffffffffffffffffffffffffffffffffff8381831617835250505050611b0d565b73ffffffffffffffffffffffffffffffffffffffff851660009081526003602052604090205460ff166111b4576040517f2da4098c00000000000000000000000000000000000000000000000000000000815273ffffffffffffffffffffffffffffffffffffffff8616600482015260240161094f565b73ffffffffffffffffffffffffffffffffffffffff841660009081526003602052604090205460ff1661122b576040517f2da4098c00000000000000000000000000000000000000000000000000000000815273ffffffffffffffffffffffffffffffffffffffff8516600482015260240161094f565b60006112847fe12d3c3bf86185c3c62596db61beac70fac0abaa4c5e36b0d87bbca1cfdd582888888888604051602001611269959493929190612935565b60405160208183030381529060405280519060200120611bb1565b600254604080516020601f87018190048102820181019092528581529293506000926112e49273ffffffffffffffffffffffffffffffffffffffff16918591908890889081908401838280828437600092019190915250611bf992505050565b90508061131d576040517f8baa579f00000000000000000000000000000000000000000000000000000000815260040160405180910390fd5b73ffffffffffffffffffffffffffffffffffffffff80881660008181526003602052604080822080547fffffffffffffffffffffffffffffffffffffffffffffffffffffffffffffff00908116909155938a1680835291819020805490941690935591518a907f7b58632b249761a8c023c066cf5cea7856abd6647ee13dc85b0c6526c111ed9e906113b0908a90612974565b60405180910390a45050505050505050565b60008061047660017f4fb5f8cdfbce77f22b0931a39e9f476a60a0f66524b2f379e96485471eb700ae612819565b60405173ffffffffffffffffffffffffffffffffffffffff83811660248301526044820183905261142e91859182169063a9059cbb906064016110f6565b505050565b73ffffffffffffffffffffffffffffffffffffffff8116611480576040517f40b539cf00000000000000000000000000000000000000000000000000000000815260040160405180910390fd5b81547fffffffffffffffffffffffff00000000000000000000000000000000000000001673ffffffffffffffffffffffffffffffffffffffff821690811783556040519081527fdd880d24a789958a6398c99c2e54ce31bc10a638cbc42f7dd34285479ae0f8559060200160405180910390a15050565b611502610487610df3565b610cab868686868686611c97565b6060610c1e7f00000000000000000000000000000000000000000000000000000000000000006000611d78565b6060610c1e7f00000000000000000000000000000000000000000000000000000000000000006001611d78565b84838114158061157a5750808214155b156115b1576040517f6582533600000000000000000000000000000000000000000000000000000000815260040160405180910390fd5b60005b8181101561089f5760008686838181106115d0576115d06128b7565b90506020020160208101906115e5919061238a565b6040517f01ffc9a70000000000000000000000000000000000000000000000000000000081527f80ac58cd00000000000000000000000000000000000000000000000000000000600482015290915073ffffffffffffffffffffffffffffffffffffffff8216906301ffc9a790602401602060405180830381865afa158015611672573d6000803e3d6000fd5b505050506040513d601f19601f820116820180604052508101906116969190612982565b6116e4576040517f986b9f1f00000000000000000000000000000000000000000000000000000000815273ffffffffffffffffffffffffffffffffffffffff8216600482015260240161094f565b8686838181106116f6576116f66128b7565b905060200201602081019061170b919061238a565b73ffffffffffffffffffffffffffffffffffffffff166342842e0e308b8b86818110611739576117396128b7565b905060200201602081019061174e919061238a565b888887818110611760576117606128b7565b6040517fffffffff0000000000000000000000000000000000000000000000000000000060e088901b16815273ffffffffffffffffffffffffffffffffffffffff958616600482015294909316602485015250602090910201356044820152606401600060405180830381600087803b1580156117dc57600080fd5b505af11580156117f0573d6000803e3d6000fd5b50505050508060010190506115b4565b825473ffffffffffffffffffffffffffffffffffffffff908116908316811461186d576040517f2ef4875e00000000000000000000000000000000000000000000000000000000815273ffffffffffffffffffffffffffffffffffffffff8416600482015260240161094f565b8173ffffffffffffffffffffffffffffffffffffffff168173ffffffffffffffffffffffffffffffffffffffff1614610ce55783547fffffffffffffffffffffffff00000000000000000000000000000000000000001673ffffffffffffffffffffffffffffffffffffffff8381169182178655604051908316907f8be0079c531659141344cd1fd0a4f28419497f9722a3daafe3b4186f6b6457e090600090a350505050565b8281811461194e576040517f6582533600000000000000000000000000000000000000000000000000000000815260040160405180910390fd5b60005b81811015610cab576119b884848381811061196e5761196e6128b7565b90506020020135878784818110611987576119876128b7565b905060200201602081019061199c919061238a565b73ffffffffffffffffffffffffffffffffffffffff1690611e23565b600101611951565b6000333214806119d05750601836105b156119da57503390565b7fffffffffffffffffffffffffffffffffffffffffffffffffffffffffffffffec36013560601c7f000000000000000000000000000000000000000000000000000000000000000073ffffffffffffffffffffffffffffffffffffffff16331480611afc57506040517f019a202800000000000000000000000000000000000000000000000000000000815273ffffffffffffffffffffffffffffffffffffffff82811660048301523360248301523060448301527f0000000000000000000000000000000000000000000000000000000000000000169063019a202890606401602060405180830381865afa158015611ad8573d6000803e3d6000fd5b505050506040513d601f19601f82011682018060405250810190611afc9190612982565b15611b0657919050565b3391505090565b600080602060008451602086016000885af180611b30576040513d6000823e3d81fd5b50506000513d91508115611b48578060011415611b62565b73ffffffffffffffffffffffffffffffffffffffff84163b155b15610ce5576040517f5274afe700000000000000000000000000000000000000000000000000000000815273ffffffffffffffffffffffffffffffffffffffff8516600482015260240161094f565b6000610476611bbe611ed9565b836040517f19010000000000000000000000000000000000000000000000000000000000008152600281019290925260228201526042902090565b60008373ffffffffffffffffffffffffffffffffffffffff163b600003611c8257600080611c278585612011565b5090925090506000816003811115611c4157611c4161282c565b148015611c7957508573ffffffffffffffffffffffffffffffffffffffff168273ffffffffffffffffffffffffffffffffffffffff16145b92505050611c90565b611c8d84848461205e565b90505b9392505050565b848381141580611ca75750808214155b15611cde576040517f6582533600000000000000000000000000000000000000000000000000000000815260040160405180910390fd5b60005b8181101561089f57611d70888883818110611cfe57611cfe6128b7565b9050602002016020810190611d13919061238a565b858584818110611d2557611d256128b7565b90506020020135888885818110611d3e57611d3e6128b7565b9050602002016020810190611d53919061238a565b73ffffffffffffffffffffffffffffffffffffffff1691906113f0565b600101611ce1565b606060ff8314611d9257611d8b836121ac565b9050610476565b818054611d9e906129a4565b80601f0160208091040260200160405190810160405280929190818152602001828054611dca906129a4565b8015611e175780601f10611dec57610100808354040283529160200191611e17565b820191906000526020600020905b815481529060010190602001808311611dfa57829003601f168201915b50505050509050610476565b80471015611e66576040517fcf4791810000000000000000000000000000000000000000000000000000000081524760048201526024810182905260440161094f565b6000808373ffffffffffffffffffffffffffffffffffffffff168360405160006040518083038185875af1925050503d8060008114611ec1576040519150601f19603f3d011682016040523d82523d6000602084013e611ec6565b606091505b509150915081610ce557610ce5816121eb565b60003073ffffffffffffffffffffffffffffffffffffffff7f000000000000000000000000000000000000000000000000000000000000000016148015611f3f57507f000000000000000000000000000000000000000000000000000000000000000046145b15611f6957507f000000000000000000000000000000000000000000000000000000000000000090565b610c1e604080517f8b73c3c69bb8fe3d512ecc4cf759cc79239f7b179b0ffacaa9a75d522b39400f60208201527f0000000000000000000000000000000000000000000000000000000000000000918101919091527f000000000000000000000000000000000000000000000000000000000000000060608201524660808201523060a082015260009060c00160405160208183030381529060405280519060200120905090565b6000806000835160410361204b5760208401516040850151606086015160001a61203d8882858561222d565b955095509550505050612057565b50508151600091506002905b9250925092565b60008060008573ffffffffffffffffffffffffffffffffffffffff16858560405160240161208d9291906129f7565b604080517fffffffffffffffffffffffffffffffffffffffffffffffffffffffffffffffe08184030181529181526020820180517bffffffffffffffffffffffffffffffffffffffffffffffffffffffff167f1626ba7e000000000000000000000000000000000000000000000000000000001790525161210e9190612a18565b600060405180830381855afa9150503d8060008114612149576040519150601f19603f3d011682016040523d82523d6000602084013e61214e565b606091505b509150915081801561216257506020815110155b80156121a2575080517f1626ba7e00000000000000000000000000000000000000000000000000000000906121a0908301602090810190840161289e565b145b9695505050505050565b606060006121b983612327565b604080516020808252818301909252919250600091906020820181803683375050509182525060208101929092525090565b8051156121fb5780518082602001fd5b6040517fd6bda27500000000000000000000000000000000000000000000000000000000815260040160405180910390fd5b600080807f7fffffffffffffffffffffffffffffff5d576e7357a4501ddfe92f46681b20a0841115612268575060009150600390508261231d565b604080516000808252602082018084528a905260ff891692820192909252606081018790526080810186905260019060a0016020604051602081039080840390855afa1580156122bc573d6000803e3d6000fd5b50506040517fffffffffffffffffffffffffffffffffffffffffffffffffffffffffffffffe0015191505073ffffffffffffffffffffffffffffffffffffffff81166123135750600092506001915082905061231d565b9250600091508190505b9450945094915050565b600060ff8216601f811115610476576040517fb3512b0c00000000000000000000000000000000000000000000000000000000815260040160405180910390fd5b73ffffffffffffffffffffffffffffffffffffffff8116811461049e57600080fd5b60006020828403121561239c57600080fd5b8135611c9081612368565b6000602082840312156123b957600080fd5b81357fffffffff0000000000000000000000000000000000000000000000000000000081168114611c9057600080fd5b6000602082840312156123fb57600080fd5b5035919050565b60008083601f84011261241457600080fd5b50813567ffffffffffffffff81111561242c57600080fd5b60208301915083602082850101111561244457600080fd5b9250929050565b60008060008060008060a0878903121561246457600080fd5b86359550602087013561247681612368565b9450604087013561248681612368565b935060608701356003811061249a57600080fd5b9250608087013567ffffffffffffffff8111156124b657600080fd5b6124c289828a01612402565b979a9699509497509295939492505050565b6000806000806000608086880312156124ec57600080fd5b85356124f781612368565b9450602086013561250781612368565b935060408601359250606086013567ffffffffffffffff81111561252a57600080fd5b61253688828901612402565b969995985093965092949392505050565b60008083601f84011261255957600080fd5b50813567ffffffffffffffff81111561257157600080fd5b6020830191508360208260051b850101111561244457600080fd5b600080600080600080606087890312156125a557600080fd5b863567ffffffffffffffff8111156125bc57600080fd5b6125c889828a01612547565b909750955050602087013567ffffffffffffffff8111156125e857600080fd5b6125f489828a01612547565b909550935050604087013567ffffffffffffffff81111561261457600080fd5b6124c289828a01612547565b60005b8381101561263b578181015183820152602001612623565b50506000910152565b6000815180845261265c816020860160208601612620565b601f017fffffffffffffffffffffffffffffffffffffffffffffffffffffffffffffffe0169290920160200192915050565b7fff000000000000000000000000000000000000000000000000000000000000008816815260e0602082015260006126c960e0830189612644565b82810360408401526126db8189612644565b6060840188905273ffffffffffffffffffffffffffffffffffffffff8716608085015260a0840186905283810360c08501528451808252602080870193509091019060005b8181101561273e578351835260209384019390920191600101612720565b50909b9a5050505050505050505050565b6000806000806040858703121561276557600080fd5b843567ffffffffffffffff81111561277c57600080fd5b61278887828801612547565b909550935050602085013567ffffffffffffffff8111156127a857600080fd5b6127b487828801612547565b95989497509550505050565b7f4e487b7100000000000000000000000000000000000000000000000000000000600052601160045260246000fd5b80820180821115610476576104766127c0565b8082028115828204841417610476576104766127c0565b81810381811115610476576104766127c0565b7f4e487b7100000000000000000000000000000000000000000000000000000000600052602160045260246000fd5b7f4e487b7100000000000000000000000000000000000000000000000000000000600052601260045260246000fd5b6000826128995761289961285b565b500490565b6000602082840312156128b057600080fd5b5051919050565b7f4e487b7100000000000000000000000000000000000000000000000000000000600052603260045260246000fd5b6000826128f5576128f561285b565b500690565b60038110612931577f4e487b7100000000000000000000000000000000000000000000000000000000600052602160045260246000fd5b9052565b8581526020810185905273ffffffffffffffffffffffffffffffffffffffff84811660408301528316606082015260a081016121a260808301846128fa565b6020810161047682846128fa565b60006020828403121561299457600080fd5b81518015158114611c9057600080fd5b600181811c908216806129b857607f821691505b6020821081036129f1577f4e487b7100000000000000000000000000000000000000000000000000000000600052602260045260246000fd5b50919050565b828152604060208201526000612a106040830184612644565b949350505050565b60008251612a2a818460208701612620565b919091019291505056fea264697066735822122049c86ce2fc477ba2416293f1a6b401b86948a74a2c9c12d2320ec46238ee14e364736f6c634300081c0033",
  "linkReferences": {},
  "deployedLinkReferences": {}
}