{
  "_format": "hh-sol-artifact-1",
  "contractName": "ERC20Arena",
  "sourceName": "contracts/arena/ERC20Arena.sol",
  "abi": [
    {
      "inputs": [
        {
          "internalType": "uint256",
          "name": "entryFee",
          "type": "uint256"
        },
        {
          "internalType": "uint256",
          "name": "commissionRate_",
          "type": "uint256"
        },
        {
          "internalType": "address",
          "name": "messageSigner",
          "type": "address"
        },
        {
          "internalType": "address payable",
          "name": "payoutWallet",
          "type": "address"
        },
        {
          "internalType": "address",
          "name": "erc20",
          "type": "address"
        },
        {
          "internalType": "contract IForwarderRegistry",
          "name": "forwarderRegistry",
          "type": "address"
        }
      ],
      "stateMutability": "nonpayable",
      "type": "constructor"
    },
    {
      "inputs": [
        {
          "internalType": "address",
          "name": "account",
          "type": "address"
        }
      ],
      "name": "AlreadyAdmitted",
      "type": "error"
    },
    {
      "inputs": [],
      "name": "FailedCall",
      "type": "error"
    },
    {
      "inputs": [],
      "name": "IllegalInterfaceId",
      "type": "error"
    },
    {
      "inputs": [],
      "name": "InconsistentArrayLengths",
      "type": "error"
    },
    {
      "inputs": [
        {
          "internalType": "address",
          "name": "tokenContract",
          "type": "address"
        }
      ],
      "name": "IncorrectTokenContractType",
      "type": "error"
    },
    {
      "inputs": [
        {
          "internalType": "uint256",
          "name": "balance",
          "type": "uint256"
        },
        {
          "internalType": "uint256",
          "name": "needed",
          "type": "uint256"
        }
      ],
      "name": "InsufficientBalance",
      "type": "error"
    },
    {
      "inputs": [
        {
          "internalType": "uint256",
          "name": "rate",
          "type": "uint256"
        }
      ],
      "name": "InvalidCommissionRate",
      "type": "error"
    },
    {
      "inputs": [
        {
          "internalType": "uint256",
          "name": "amount",
          "type": "uint256"
        }
      ],
      "name": "InvalidPaymentAmount",
      "type": "error"
    },
    {
      "inputs": [
        {
          "internalType": "address",
          "name": "token",
          "type": "address"
        }
      ],
      "name": "InvalidPaymentToken",
      "type": "error"
    },
    {
      "inputs": [],
      "name": "InvalidShortString",
      "type": "error"
    },
    {
      "inputs": [],
      "name": "InvalidSignature",
      "type": "error"
    },
    {
      "inputs": [
        {
          "internalType": "address",
          "name": "account",
          "type": "address"
        }
      ],
      "name": "NotContractOwner",
      "type": "error"
    },
    {
      "inputs": [
        {
          "internalType": "address",
          "name": "account",
          "type": "address"
        }
      ],
      "name": "PlayerNotAdmitted",
      "type": "error"
    },
    {
      "inputs": [
        {
          "internalType": "address",
          "name": "token",
          "type": "address"
        }
      ],
      "name": "SafeERC20FailedOperation",
      "type": "error"
    },
    {
      "inputs": [
        {
          "internalType": "string",
          "name": "str",
          "type": "string"
        }
      ],
      "name": "StringTooLong",
      "type": "error"
    },
    {
      "inputs": [
        {
          "internalType": "uint256",
          "name": "recoverableAmount",
          "type": "uint256"
        },
        {
          "internalType": "uint256",
          "name": "amount",
          "type": "uint256"
        }
      ],
      "name": "Unrecoverable",
      "type": "error"
    },
    {
      "inputs": [],
      "name": "ZeroAddressPayoutWallet",
      "type": "error"
    },
    {
      "inputs": [],
      "name": "ZeroPrice",
      "type": "error"
    },
    {
      "anonymous": false,
      "inputs": [
        {
          "indexed": true,
          "internalType": "address",
          "name": "account",
          "type": "address"
        }
      ],
      "name": "Admission",
      "type": "event"
    },
    {
      "anonymous": false,
      "inputs": [
        {
          "indexed": false,
          "internalType": "uint256",
          "name": "rate",
          "type": "uint256"
        }
      ],
      "name": "CommissionRateSet",
      "type": "event"
    },
    {
      "anonymous": false,
      "inputs": [],
      "name": "EIP712DomainChanged",
      "type": "event"
    },
    {
      "anonymous": false,
      "inputs": [
        {
          "indexed": true,
          "internalType": "uint256",
          "name": "matchId",
          "type": "uint256"
        },
        {
          "indexed": true,
          "internalType": "address",
          "name": "player1",
          "type": "address"
        },
        {
          "indexed": true,
          "internalType": "address",
          "name": "player2",
          "type": "address"
        },
        {
          "indexed": false,
          "internalType": "uint256",
          "name": "player1AdmissionTime",
          "type": "uint256"
        },
        {
          "indexed": false,
          "internalType": "uint256",
          "name": "player2AdmissionTime",
          "type": "uint256"
        },
        {
          "indexed": false,
          "internalType": "enum ArenaBase.MatchResult",
          "name": "result",
          "type": "uint8"
        }
      ],
      "name": "MatchCompleted",
      "type": "event"
    },
    {
      "anonymous": false,
      "inputs": [
        {
          "indexed": false,
          "internalType": "address",
          "name": "signer",
          "type": "address"
        }
      ],
      "name": "MessageSignerSet",
      "type": "event"
    },
    {
      "anonymous": false,
      "inputs": [
        {
          "indexed": true,
          "internalType": "address",
          "name": "previousOwner",
          "type": "address"
        },
        {
          "indexed": true,
          "internalType": "address",
          "name": "newOwner",
          "type": "address"
        }
      ],
      "name": "OwnershipTransferred",
      "type": "event"
    },
    {
      "anonymous": false,
      "inputs": [
        {
          "indexed": true,
          "internalType": "address",
          "name": "account",
          "type": "address"
        },
        {
          "indexed": true,
          "internalType": "uint256",
          "name": "matchId",
          "type": "uint256"
        },
        {
          "indexed": false,
          "internalType": "uint256",
          "name": "amount",
          "type": "uint256"
        }
      ],
      "name": "PayoutDelivered",
      "type": "event"
    },
    {
      "anonymous": false,
      "inputs": [
        {
          "indexed": false,
          "internalType": "address",
          "name": "payoutWallet",
          "type": "address"
        }
      ],
      "name": "PayoutWalletSet",
      "type": "event"
    },
    {
      "inputs": [],
      "name": "COMPLETE_MATCH_TYPEHASH",
      "outputs": [
        {
          "internalType": "bytes32",
          "name": "",
          "type": "bytes32"
        }
      ],
      "stateMutability": "view",
      "type": "function"
    },
    {
      "inputs": [],
      "name": "ENTRY_FEE",
      "outputs": [
        {
          "internalType": "uint256",
          "name": "",
          "type": "uint256"
        }
      ],
      "stateMutability": "view",
      "type": "function"
    },
    {
      "inputs": [],
      "name": "ERC20",
      "outputs": [
        {
          "internalType": "contract IERC20",
          "name": "",
          "type": "address"
        }
      ],
      "stateMutability": "view",
      "type": "function"
    },
    {
      "inputs": [],
      "name": "admit",
      "outputs": [],
      "stateMutability": "nonpayable",
      "type": "function"
    },
    {
      "inputs": [
        {
          "internalType": "address",
          "name": "account",
          "type": "address"
        }
      ],
      "name": "admitted",
      "outputs": [
        {
          "internalType": "uint256",
          "name": "admissionTime",
          "type": "uint256"
        }
      ],
      "stateMutability": "view",
      "type": "function"
    },
    {
      "inputs": [],
      "name": "commission",
      "outputs": [
        {
          "internalType": "uint256",
          "name": "",
          "type": "uint256"
        }
      ],
      "stateMutability": "view",
      "type": "function"
    },
    {
      "inputs": [],
      "name": "commissionRate",
      "outputs": [
        {
          "internalType": "uint256",
          "name": "",
          "type": "uint256"
        }
      ],
      "stateMutability": "view",
      "type": "function"
    },
    {
      "inputs": [
        {
          "internalType": "uint256",
          "name": "matchId",
          "type": "uint256"
        },
        {
          "internalType": "address",
          "name": "player1",
          "type": "address"
        },
        {
          "internalType": "address",
          "name": "player2",
          "type": "address"
        },
        {
          "internalType": "enum ArenaBase.MatchResult",
          "name": "result",
          "type": "uint8"
        },
        {
          "internalType": "bytes",
          "name": "signature",
          "type": "bytes"
        }
      ],
      "name": "completeMatch",
      "outputs": [],
      "stateMutability": "nonpayable",
      "type": "function"
    },
    {
      "inputs": [],
      "name": "eip712Domain",
      "outputs": [
        {
          "internalType": "bytes1",
          "name": "fields",
          "type": "bytes1"
        },
        {
          "internalType": "string",
          "name": "name",
          "type": "string"
        },
        {
          "internalType": "string",
          "name": "version",
          "type": "string"
        },
        {
          "internalType": "uint256",
          "name": "chainId",
          "type": "uint256"
        },
        {
          "internalType": "address",
          "name": "verifyingContract",
          "type": "address"
        },
        {
          "internalType": "bytes32",
          "name": "salt",
          "type": "bytes32"
        },
        {
          "internalType": "uint256[]",
          "name": "extensions",
          "type": "uint256[]"
        }
      ],
      "stateMutability": "view",
      "type": "function"
    },
    {
      "inputs": [],
      "name": "feeLocked",
      "outputs": [
        {
          "internalType": "uint256",
          "name": "",
          "type": "uint256"
        }
      ],
      "stateMutability": "view",
      "type": "function"
    },
    {
      "inputs": [],
      "name": "forwarderRegistry",
      "outputs": [
        {
          "internalType": "contract IForwarderRegistry",
          "name": "",
          "type": "address"
        }
      ],
      "stateMutability": "view",
      "type": "function"
    },
    {
      "inputs": [
        {
          "internalType": "address",
          "name": "forwarder",
          "type": "address"
        }
      ],
      "name": "isTrustedForwarder",
      "outputs": [
        {
          "internalType": "bool",
          "name": "",
          "type": "bool"
        }
      ],
      "stateMutability": "view",
      "type": "function"
    },
    {
      "inputs": [],
      "name": "messageSigner",
      "outputs": [
        {
          "internalType": "address",
          "name": "",
          "type": "address"
        }
      ],
      "stateMutability": "view",
      "type": "function"
    },
    {
      "inputs": [
        {
          "internalType": "address",
          "name": "",
          "type": "address"
        },
        {
          "internalType": "address",
          "name": "from",
          "type": "address"
        },
        {
          "internalType": "uint256",
          "name": "amount",
          "type": "uint256"
        },
        {
          "internalType": "bytes",
          "name": "",
          "type": "bytes"
        }
      ],
      "name": "onERC20Received",
      "outputs": [
        {
          "internalType": "bytes4",
          "name": "",
          "type": "bytes4"
        }
      ],
      "stateMutability": "nonpayable",
      "type": "function"
    },
    {
      "inputs": [],
      "name": "owner",
      "outputs": [
        {
          "internalType": "address",
          "name": "",
          "type": "address"
        }
      ],
      "stateMutability": "view",
      "type": "function"
    },
    {
      "inputs": [],
      "name": "payoutWallet",
      "outputs": [
        {
          "internalType": "address payable",
          "name": "wallet",
          "type": "address"
        }
      ],
      "stateMutability": "view",
      "type": "function"
    },
    {
      "inputs": [
        {
          "internalType": "address[]",
          "name": "accounts",
          "type": "address[]"
        },
        {
          "internalType": "contract IERC20[]",
          "name": "tokens",
          "type": "address[]"
        },
        {
          "internalType": "uint256[]",
          "name": "amounts",
          "type": "uint256[]"
        }
      ],
      "name": "recoverERC20s",
      "outputs": [],
      "stateMutability": "nonpayable",
      "type": "function"
    },
    {
      "inputs": [
        {
          "internalType": "address[]",
          "name": "accounts",
          "type": "address[]"
        },
        {
          "internalType": "contract IERC721[]",
          "name": "contracts",
          "type": "address[]"
        },
        {
          "internalType": "uint256[]",
          "name": "tokenIds",
          "type": "uint256[]"
        }
      ],
      "name": "recoverERC721s",
      "outputs": [],
      "stateMutability": "nonpayable",
      "type": "function"
    },
    {
      "inputs": [
        {
          "internalType": "address payable[]",
          "name": "accounts",
          "type": "address[]"
        },
        {
          "internalType": "uint256[]",
          "name": "amounts",
          "type": "uint256[]"
        }
      ],
      "name": "recoverETH",
      "outputs": [],
      "stateMutability": "nonpayable",
      "type": "function"
    },
    {
      "inputs": [],
      "name": "reward",
      "outputs": [
        {
          "internalType": "uint256",
          "name": "",
          "type": "uint256"
        }
      ],
      "stateMutability": "view",
      "type": "function"
    },
    {
      "inputs": [
        {
          "internalType": "uint256",
          "name": "newCommissionRate",
          "type": "uint256"
        }
      ],
      "name": "setCommissionRate",
      "outputs": [],
      "stateMutability": "nonpayable",
      "type": "function"
    },
    {
      "inputs": [
        {
          "internalType": "address",
          "name": "signer",
          "type": "address"
        }
      ],
      "name": "setMessageSigner",
      "outputs": [],
      "stateMutability": "nonpayable",
      "type": "function"
    },
    {
      "inputs": [
        {
          "internalType": "address payable",
          "name": "newPayoutWallet",
          "type": "address"
        }
      ],
      "name": "setPayoutWallet",
      "outputs": [],
      "stateMutability": "nonpayable",
      "type": "function"
    },
    {
      "inputs": [
        {
          "internalType": "bytes4",
          "name": "interfaceId",
          "type": "bytes4"
        }
      ],
      "name": "supportsInterface",
      "outputs": [
        {
          "internalType": "bool",
          "name": "",
          "type": "bool"
        }
      ],
      "stateMutability": "view",
      "type": "function"
    },
    {
      "inputs": [
        {
          "internalType": "address",
          "name": "newOwner",
          "type": "address"
        }
      ],
      "name": "transferOwnership",
      "outputs": [],
      "stateMutability": "nonpayable",
      "type": "function"
    }
  ],
  "bytecode": "0x6101c060405234801561001157600080fd5b5060405161335d38038061335d83398101604081905261003091610553565b8080848633604051806040016040528060058152602001644172656e6160d81b815250604051806040016040528060038152602001620312e360ec1b81525061008360008361021360201b90919060201c565b61012052610092816001610213565b61014052815160208084019190912060e052815190820120610100524660a05261011f60e05161010051604080517f8b73c3c69bb8fe3d512ecc4cf759cc79239f7b179b0ffacaa9a75d522b39400f60208201529081019290925260608201524660808201523060a082015260009060c00160405160208183030381529060405280519060200120905090565b60805250503060c05261013a81610134610246565b90610274565b50600280546001600160a01b0319166001600160a01b0383169081179091556040519081527f66b8dbbd7f4a59921c0e0f594b6fb8434e778851611f323b7c3d00d07a74b1209060200160405180910390a1506101a9634fc3585960e01b60016101a26102e3565b9190610311565b6101bb816101b561036d565b9061039b565b506001600160a01b0316610160525060008690036101ec57604051634dfba02360e01b815260040160405180910390fd5b6101a08690526101fb856103a5565b506001600160a01b0316610180525061081492505050565b600060208351101561022f5761022883610484565b9050610240565b8161023a8482610666565b5060ff90505b92915050565b60008061024060017fc9ed16f33ab3a66c84bfd83099ccb2a8845871e2e1c1928f63797152f0fd54cd61073a565b6001600160a01b038116156102ca5781546001600160a01b0319166001600160a01b03821690811783556040516000907f8be0079c531659141344cd1fd0a4f28419497f9722a3daafe3b4186f6b6457e0908290a35b6102df6307f5828d60e41b60016101a26102e3565b5050565b60008061024060017fca9d3e17f264b0f3984e2634e94adb37fa3e6a8103f06aeae6fa59e21c769f5e61073a565b600160e01b6001600160e01b031983160161033f576040516372c683bb60e01b815260040160405180910390fd5b6001600160e01b03199190911660009081526020929092526040909120805460ff1916911515919091179055565b60008061024060017f4fb5f8cdfbce77f22b0931a39e9f476a60a0f66524b2f379e96485471eb700ae61073a565b6102df82826104c2565b60006101a05160026103b7919061074d565b90506000821561043d576127108084106103ec57604051633e13fd7160e11b8152600481018590526024015b60405180910390fd5b806103f7858561074d565b610401919061077a565b915061040e60028361078e565b1561042f57604051633e13fd7160e11b8152600481018590526024016103e3565b610439828461073a565b9250505b6004839055600581905560068290556040518381527f2377da1065ac38e2a730070d5b9dd08aa697ba49f4b41e3dee80ab5cc06099019060200160405180910390a1505050565b600080829050601f815111156104af578260405163305a27a960e01b81526004016103e391906107a2565b80516104ba826107f0565b179392505050565b6001600160a01b0381166104e9576040516340b539cf60e01b815260040160405180910390fd5b81546001600160a01b0319166001600160a01b03821690811783556040519081527fdd880d24a789958a6398c99c2e54ce31bc10a638cbc42f7dd34285479ae0f8559060200160405180910390a15050565b6001600160a01b038116811461055057600080fd5b50565b60008060008060008060c0878903121561056c57600080fd5b86516020880151604089015191975095506105868161053b565b60608801519094506105978161053b565b60808801519093506105a88161053b565b60a08801519092506105b98161053b565b809150509295509295509295565b634e487b7160e01b600052604160045260246000fd5b600181811c908216806105f157607f821691505b60208210810361061157634e487b7160e01b600052602260045260246000fd5b50919050565b601f82111561066157806000526020600020601f840160051c8101602085101561063e5750805b601f840160051c820191505b8181101561065e576000815560010161064a565b50505b505050565b81516001600160401b0381111561067f5761067f6105c7565b6106938161068d84546105dd565b84610617565b6020601f8211600181146106c757600083156106af5750848201515b600019600385901b1c1916600184901b17845561065e565b600084815260208120601f198516915b828110156106f757878501518255602094850194600190920191016106d7565b50848210156107155786840151600019600387901b60f8161c191681555b50505050600190811b01905550565b634e487b7160e01b600052601160045260246000fd5b8181038181111561024057610240610724565b808202811582820484141761024057610240610724565b634e487b7160e01b600052601260045260246000fd5b60008261078957610789610764565b500490565b60008261079d5761079d610764565b500690565b602081526000825180602084015260005b818110156107d057602081860181015160408684010152016107b3565b506000604082850101526040601f19601f83011684010191505092915050565b805160208083015191908110156106115760001960209190910360031b1b16919050565b60805160a05160c05160e05161010051610120516101405161016051610180516101a051612a576109066000396000818161042a015281816104b501528181610529015281816105ea01528181610958015281816109bc0152610e9e0152600081816103e7015281816105050152818161066b015281816106d40152818161071501528181610822015281816108b501528181610a840152610aff01526000818161026201528181610308015281816119b40152611a42015260006114f5015260006114c801526000611f7101526000611f4901526000611ea401526000611ece01526000611ef80152612a576000f3fe608060405234801561001057600080fd5b50600436106101a25760003560e01c80636b8f9c43116100ee578063a51f054e11610097578063e148919111610071578063e148919114610409578063f2fde38b14610412578063f6d361cc14610425578063f7ba94bd1461044c57600080fd5b8063a51f054e146103a8578063c3666c36146103cf578063cc4aa204146103e257600080fd5b80638488bb4e116100c85780638488bb4e1461037d57806384b0196e146103855780638da5cb5b146103a057600080fd5b80636b8f9c431461034e57806373c8a9581461036157806377e404911461037457600080fd5b80634ae83719116101505780634fc358591161012a5780634fc35859146102b4578063572b6c05146102f85780635ea1d6f81461034557600080fd5b80634ae83719146102865780634b36df531461028e5780634d717e60146102a157600080fd5b806319fac8fd1161018157806319fac8fd14610242578063228cb733146102575780632b4c9f161461026057600080fd5b806220d939146101a757806301ffc9a7146101da578063080387b4146101fd575b600080fd5b6101c76101b536600461233b565b60036020526000908152604090205481565b6040519081526020015b60405180910390f35b6101ed6101e8366004612358565b61045f565b60405190151581526020016101d1565b60025461021d9073ffffffffffffffffffffffffffffffffffffffff1681565b60405173ffffffffffffffffffffffffffffffffffffffff90911681526020016101d1565b61025561025036600461239a565b610479565b005b6101c760065481565b7f000000000000000000000000000000000000000000000000000000000000000061021d565b61025561049e565b61025561029c36600461233b565b61054d565b6102556102af3660046123fc565b6105d1565b6102c76102c2366004612485565b6108a6565b6040517fffffffff0000000000000000000000000000000000000000000000000000000090911681526020016101d1565b6101ed61030636600461233b565b7f000000000000000000000000000000000000000000000000000000000000000073ffffffffffffffffffffffffffffffffffffffff90811691161490565b6101c760045481565b61025561035c36600461233b565b610a1d565b61025561036f36600461253d565b610a3a565b6101c760075481565b61021d610c0e565b61038d610c20565b6040516101d1979695949392919061263f565b61021d610c82565b6101c77f41d3c412792afe3502c61d7887e9d9d833c12de3149ac85d69058c8586f6347081565b6102556103dd36600461253d565b610c8f565b61021d7f000000000000000000000000000000000000000000000000000000000000000081565b6101c760055481565b61025561042036600461233b565b610cb0565b6101c77f000000000000000000000000000000000000000000000000000000000000000081565b61025561045a366004612700565b610ccb565b60006104738261046d610ce8565b90610d16565b92915050565b610492610484610df0565b61048c610dfa565b90610e28565b61049b81610e97565b50565b60006104a8610df0565b90506104b381610fbe565b7f0000000000000000000000000000000000000000000000000000000000000000600760008282546104e591906127a0565b9091555061049b905073ffffffffffffffffffffffffffffffffffffffff7f00000000000000000000000000000000000000000000000000000000000000001682307f0000000000000000000000000000000000000000000000000000000000000000611084565b610558610484610df0565b600280547fffffffffffffffffffffffff00000000000000000000000000000000000000001673ffffffffffffffffffffffffffffffffffffffff83169081179091556040519081527f66b8dbbd7f4a59921c0e0f594b6fb8434e778851611f323b7c3d00d07a74b1209060200160405180910390a150565b6105df86868686868661110d565b6005546006546106107f000000000000000000000000000000000000000000000000000000000000000060026127b3565b6007600082825461062191906127ca565b909155505081156106925761069261065461063a611373565b5473ffffffffffffffffffffffffffffffffffffffff1690565b73ffffffffffffffffffffffffffffffffffffffff7f00000000000000000000000000000000000000000000000000000000000000001690846113a1565b60028560028111156106a6576106a66127dd565b036107e45760006106b860028361283b565b90506106fb73ffffffffffffffffffffffffffffffffffffffff7f00000000000000000000000000000000000000000000000000000000000000001689836113a1565b61073c73ffffffffffffffffffffffffffffffffffffffff7f00000000000000000000000000000000000000000000000000000000000000001688836113a1565b888873ffffffffffffffffffffffffffffffffffffffff167f0733dbb1b7864ea8abcea54657d9fc322605c9a44f8733d80e4edb6d61b999bb8360405161078591815260200190565b60405180910390a3888773ffffffffffffffffffffffffffffffffffffffff167f0733dbb1b7864ea8abcea54657d9fc322605c9a44f8733d80e4edb6d61b999bb836040516107d691815260200190565b60405180910390a35061089c565b6000808660028111156107f9576107f96127dd565b146108045786610806565b875b905061084973ffffffffffffffffffffffffffffffffffffffff7f00000000000000000000000000000000000000000000000000000000000000001682846113a1565b888173ffffffffffffffffffffffffffffffffffffffff167f0733dbb1b7864ea8abcea54657d9fc322605c9a44f8733d80e4edb6d61b999bb8460405161089291815260200190565b60405180910390a3505b5050505050505050565b6000806108b1610df0565b90507f000000000000000000000000000000000000000000000000000000000000000073ffffffffffffffffffffffffffffffffffffffff168173ffffffffffffffffffffffffffffffffffffffff1614610955576040517f4e34486d00000000000000000000000000000000000000000000000000000000815273ffffffffffffffffffffffffffffffffffffffff821660048201526024015b60405180910390fd5b847f0000000000000000000000000000000000000000000000000000000000000000146109b1576040517f1fe862180000000000000000000000000000000000000000000000000000000081526004810186905260240161094c565b6109ba86610fbe565b7f0000000000000000000000000000000000000000000000000000000000000000600760008282546109ec91906127a0565b909155507f4fc358590000000000000000000000000000000000000000000000000000000098975050505050505050565b610a28610484610df0565b61049b81610a34611373565b906113e4565b6007546040517f70a082310000000000000000000000000000000000000000000000000000000081523060048201526000919073ffffffffffffffffffffffffffffffffffffffff7f000000000000000000000000000000000000000000000000000000000000000016906370a0823190602401602060405180830381865afa158015610acb573d6000803e3d6000fd5b505050506040513d601f19601f82011682018060405250810190610aef919061284f565b610af991906127ca565b905060007f0000000000000000000000000000000000000000000000000000000000000000815b86811015610bb0578173ffffffffffffffffffffffffffffffffffffffff16888883818110610b5157610b51612868565b9050602002016020810190610b66919061233b565b73ffffffffffffffffffffffffffffffffffffffff1603610ba857858582818110610b9357610b93612868565b9050602002013583610ba591906127a0565b92505b600101610b20565b5082821115610bf5576040517fee8784a9000000000000000000000000000000000000000000000000000000008152600481018490526024810183905260440161094c565b610c038989898989896114a8565b505050505050505050565b6000610c1b61063a611373565b905090565b600060608060008060006060610c346114c1565b610c3c6114ee565b604080516000808252602082019092527f0f000000000000000000000000000000000000000000000000000000000000009b939a50919850469750309650945092509050565b6000610c1b61063a610dfa565b610c9a610484610df0565b610ca886868686868661151b565b505050505050565b61049b610cbb610df0565b82610cc4610dfa565b91906117b1565b610cd6610484610df0565b610ce2848484846118c5565b50505050565b60008061047360017fca9d3e17f264b0f3984e2634e94adb37fa3e6a8103f06aeae6fa59e21c769f5e6127ca565b60007c01000000000000000000000000000000000000000000000000000000007fffffffff00000000000000000000000000000000000000000000000000000000831601610d6657506000610473565b7ffe003659000000000000000000000000000000000000000000000000000000007fffffffff00000000000000000000000000000000000000000000000000000000831601610db757506001610473565b507fffffffff00000000000000000000000000000000000000000000000000000000166000908152602091909152604090205460ff1690565b6000610c1b611971565b60008061047360017fc9ed16f33ab3a66c84bfd83099ccb2a8845871e2e1c1928f63797152f0fd54cd6127ca565b815473ffffffffffffffffffffffffffffffffffffffff828116911614610e93576040517f2ef4875e00000000000000000000000000000000000000000000000000000000815273ffffffffffffffffffffffffffffffffffffffff8216600482015260240161094c565b5050565b6000610ec47f000000000000000000000000000000000000000000000000000000000000000060026127b3565b905060008215610f7757612710808410610f0d576040517f7c27fae20000000000000000000000000000000000000000000000000000000081526004810185905260240161094c565b80610f1885856127b3565b610f22919061283b565b9150610f2f600283612897565b15610f69576040517f7c27fae20000000000000000000000000000000000000000000000000000000081526004810185905260240161094c565b610f7382846127ca565b9250505b6004839055600581905560068290556040518381527f2377da1065ac38e2a730070d5b9dd08aa697ba49f4b41e3dee80ab5cc06099019060200160405180910390a1505050565b73ffffffffffffffffffffffffffffffffffffffff811660009081526003602052604090205415611033576040517f301eda9600000000000000000000000000000000000000000000000000000000815273ffffffffffffffffffffffffffffffffffffffff8216600482015260240161094c565b73ffffffffffffffffffffffffffffffffffffffff8116600081815260036020526040808220429055517f131f3edc3bd512c7b34906feb3cdacf9e893076fbb713603ff86294f0ddd28ca9190a250565b60405173ffffffffffffffffffffffffffffffffffffffff8481166024830152838116604483015260648201839052610ce29186918216906323b872dd906084015b604051602081830303815290604052915060e01b6020820180517bffffffffffffffffffffffffffffffffffffffffffffffffffffffff8381831617835250505050611abe565b73ffffffffffffffffffffffffffffffffffffffff851660009081526003602052604081205490819003611185576040517f2da4098c00000000000000000000000000000000000000000000000000000000815273ffffffffffffffffffffffffffffffffffffffff8716600482015260240161094c565b73ffffffffffffffffffffffffffffffffffffffff8516600090815260036020526040812054908190036111fd576040517f2da4098c00000000000000000000000000000000000000000000000000000000815273ffffffffffffffffffffffffffffffffffffffff8716600482015260240161094c565b600061125a7f41d3c412792afe3502c61d7887e9d9d833c12de3149ac85d69058c8586f634708a8a8a87878c60405160200161123f97969594939291906128e6565b60405160208183030381529060405280519060200120611b62565b600254604080516020601f89018190048102820181019092528781529293506000926112ba9273ffffffffffffffffffffffffffffffffffffffff16918591908a908a9081908401838280828437600092019190915250611baa92505050565b9050806112f3576040517f8baa579f00000000000000000000000000000000000000000000000000000000815260040160405180910390fd5b73ffffffffffffffffffffffffffffffffffffffff808a16600081815260036020526040808220829055928b168082528382209190915591518c907fa41446c5ad98f98e4d30afa277dbb496694229533065ee6b8fc00f57f97f230a9061135f90899089908e90612954565b60405180910390a450505050505050505050565b60008061047360017f4fb5f8cdfbce77f22b0931a39e9f476a60a0f66524b2f379e96485471eb700ae6127ca565b60405173ffffffffffffffffffffffffffffffffffffffff8381166024830152604482018390526113df91859182169063a9059cbb906064016110c6565b505050565b73ffffffffffffffffffffffffffffffffffffffff8116611431576040517f40b539cf00000000000000000000000000000000000000000000000000000000815260040160405180910390fd5b81547fffffffffffffffffffffffff00000000000000000000000000000000000000001673ffffffffffffffffffffffffffffffffffffffff821690811783556040519081527fdd880d24a789958a6398c99c2e54ce31bc10a638cbc42f7dd34285479ae0f8559060200160405180910390a15050565b6114b3610484610df0565b610ca8868686868686611c48565b6060610c1b7f00000000000000000000000000000000000000000000000000000000000000006000611d29565b6060610c1b7f00000000000000000000000000000000000000000000000000000000000000006001611d29565b84838114158061152b5750808214155b15611562576040517f6582533600000000000000000000000000000000000000000000000000000000815260040160405180910390fd5b60005b8181101561089c57600086868381811061158157611581612868565b9050602002016020810190611596919061233b565b6040517f01ffc9a70000000000000000000000000000000000000000000000000000000081527f80ac58cd00000000000000000000000000000000000000000000000000000000600482015290915073ffffffffffffffffffffffffffffffffffffffff8216906301ffc9a790602401602060405180830381865afa158015611623573d6000803e3d6000fd5b505050506040513d601f19601f820116820180604052508101906116479190612977565b611695576040517f986b9f1f00000000000000000000000000000000000000000000000000000000815273ffffffffffffffffffffffffffffffffffffffff8216600482015260240161094c565b8686838181106116a7576116a7612868565b90506020020160208101906116bc919061233b565b73ffffffffffffffffffffffffffffffffffffffff166342842e0e308b8b868181106116ea576116ea612868565b90506020020160208101906116ff919061233b565b88888781811061171157611711612868565b6040517fffffffff0000000000000000000000000000000000000000000000000000000060e088901b16815273ffffffffffffffffffffffffffffffffffffffff958616600482015294909316602485015250602090910201356044820152606401600060405180830381600087803b15801561178d57600080fd5b505af11580156117a1573d6000803e3d6000fd5b5050505050806001019050611565565b825473ffffffffffffffffffffffffffffffffffffffff908116908316811461181e576040517f2ef4875e00000000000000000000000000000000000000000000000000000000815273ffffffffffffffffffffffffffffffffffffffff8416600482015260240161094c565b8173ffffffffffffffffffffffffffffffffffffffff168173ffffffffffffffffffffffffffffffffffffffff1614610ce25783547fffffffffffffffffffffffff00000000000000000000000000000000000000001673ffffffffffffffffffffffffffffffffffffffff8381169182178655604051908316907f8be0079c531659141344cd1fd0a4f28419497f9722a3daafe3b4186f6b6457e090600090a350505050565b828181146118ff576040517f6582533600000000000000000000000000000000000000000000000000000000815260040160405180910390fd5b60005b81811015610ca85761196984848381811061191f5761191f612868565b9050602002013587878481811061193857611938612868565b905060200201602081019061194d919061233b565b73ffffffffffffffffffffffffffffffffffffffff1690611dd4565b600101611902565b6000333214806119815750601836105b1561198b57503390565b7fffffffffffffffffffffffffffffffffffffffffffffffffffffffffffffffec36013560601c7f000000000000000000000000000000000000000000000000000000000000000073ffffffffffffffffffffffffffffffffffffffff16331480611aad57506040517f019a202800000000000000000000000000000000000000000000000000000000815273ffffffffffffffffffffffffffffffffffffffff82811660048301523360248301523060448301527f0000000000000000000000000000000000000000000000000000000000000000169063019a202890606401602060405180830381865afa158015611a89573d6000803e3d6000fd5b505050506040513d601f19601f82011682018060405250810190611aad9190612977565b15611ab757919050565b3391505090565b600080602060008451602086016000885af180611ae1576040513d6000823e3d81fd5b50506000513d91508115611af9578060011415611b13565b73ffffffffffffffffffffffffffffffffffffffff84163b155b15610ce2576040517f5274afe700000000000000000000000000000000000000000000000000000000815273ffffffffffffffffffffffffffffffffffffffff8516600482015260240161094c565b6000610473611b6f611e8a565b836040517f19010000000000000000000000000000000000000000000000000000000000008152600281019290925260228201526042902090565b60008373ffffffffffffffffffffffffffffffffffffffff163b600003611c3357600080611bd88585611fc2565b5090925090506000816003811115611bf257611bf26127dd565b148015611c2a57508573ffffffffffffffffffffffffffffffffffffffff168273ffffffffffffffffffffffffffffffffffffffff16145b92505050611c41565b611c3e84848461200f565b90505b9392505050565b848381141580611c585750808214155b15611c8f576040517f6582533600000000000000000000000000000000000000000000000000000000815260040160405180910390fd5b60005b8181101561089c57611d21888883818110611caf57611caf612868565b9050602002016020810190611cc4919061233b565b858584818110611cd657611cd6612868565b90506020020135888885818110611cef57611cef612868565b9050602002016020810190611d04919061233b565b73ffffffffffffffffffffffffffffffffffffffff1691906113a1565b600101611c92565b606060ff8314611d4357611d3c8361215d565b9050610473565b818054611d4f90612999565b80601f0160208091040260200160405190810160405280929190818152602001828054611d7b90612999565b8015611dc85780601f10611d9d57610100808354040283529160200191611dc8565b820191906000526020600020905b815481529060010190602001808311611dab57829003601f168201915b50505050509050610473565b80471015611e17576040517fcf4791810000000000000000000000000000000000000000000000000000000081524760048201526024810182905260440161094c565b6000808373ffffffffffffffffffffffffffffffffffffffff168360405160006040518083038185875af1925050503d8060008114611e72576040519150601f19603f3d011682016040523d82523d6000602084013e611e77565b606091505b509150915081610ce257610ce28161219c565b60003073ffffffffffffffffffffffffffffffffffffffff7f000000000000000000000000000000000000000000000000000000000000000016148015611ef057507f000000000000000000000000000000000000000000000000000000000000000046145b15611f1a57507f000000000000000000000000000000000000000000000000000000000000000090565b610c1b604080517f8b73c3c69bb8fe3d512ecc4cf759cc79239f7b179b0ffacaa9a75d522b39400f60208201527f0000000000000000000000000000000000000000000000000000000000000000918101919091527f000000000000000000000000000000000000000000000000000000000000000060608201524660808201523060a082015260009060c00160405160208183030381529060405280519060200120905090565b60008060008351604103611ffc5760208401516040850151606086015160001a611fee888285856121de565b955095509550505050612008565b50508151600091506002905b9250925092565b60008060008573ffffffffffffffffffffffffffffffffffffffff16858560405160240161203e9291906129ec565b604080517fffffffffffffffffffffffffffffffffffffffffffffffffffffffffffffffe08184030181529181526020820180517bffffffffffffffffffffffffffffffffffffffffffffffffffffffff167f1626ba7e00000000000000000000000000000000000000000000000000000000179052516120bf9190612a05565b600060405180830381855afa9150503d80600081146120fa576040519150601f19603f3d011682016040523d82523d6000602084013e6120ff565b606091505b509150915081801561211357506020815110155b8015612153575080517f1626ba7e0000000000000000000000000000000000000000000000000000000090612151908301602090810190840161284f565b145b9695505050505050565b6060600061216a836122d8565b604080516020808252818301909252919250600091906020820181803683375050509182525060208101929092525090565b8051156121ac5780518082602001fd5b6040517fd6bda27500000000000000000000000000000000000000000000000000000000815260040160405180910390fd5b600080807f7fffffffffffffffffffffffffffffff5d576e7357a4501ddfe92f46681b20a084111561221957506000915060039050826122ce565b604080516000808252602082018084528a905260ff891692820192909252606081018790526080810186905260019060a0016020604051602081039080840390855afa15801561226d573d6000803e3d6000fd5b50506040517fffffffffffffffffffffffffffffffffffffffffffffffffffffffffffffffe0015191505073ffffffffffffffffffffffffffffffffffffffff81166122c4575060009250600191508290506122ce565b9250600091508190505b9450945094915050565b600060ff8216601f811115610473576040517fb3512b0c00000000000000000000000000000000000000000000000000000000815260040160405180910390fd5b73ffffffffffffffffffffffffffffffffffffffff8116811461049b57600080fd5b60006020828403121561234d57600080fd5b8135611c4181612319565b60006020828403121561236a57600080fd5b81357fffffffff0000000000000000000000000000000000000000000000000000000081168114611c4157600080fd5b6000602082840312156123ac57600080fd5b5035919050565b60008083601f8401126123c557600080fd5b50813567ffffffffffffffff8111156123dd57600080fd5b6020830191508360208285010111156123f557600080fd5b9250929050565b60008060008060008060a0878903121561241557600080fd5b86359550602087013561242781612319565b9450604087013561243781612319565b935060608701356003811061244b57600080fd5b9250608087013567ffffffffffffffff81111561246757600080fd5b61247389828a016123b3565b979a9699509497509295939492505050565b60008060008060006080868803121561249d57600080fd5b85356124a881612319565b945060208601356124b881612319565b935060408601359250606086013567ffffffffffffffff8111156124db57600080fd5b6124e7888289016123b3565b969995985093965092949392505050565b60008083601f84011261250a57600080fd5b50813567ffffffffffffffff81111561252257600080fd5b6020830191508360208260051b85010111156123f557600080fd5b6000806000806000806060878903121561255657600080fd5b863567ffffffffffffffff81111561256d57600080fd5b61257989828a016124f8565b909750955050602087013567ffffffffffffffff81111561259957600080fd5b6125a589828a016124f8565b909550935050604087013567ffffffffffffffff8111156125c557600080fd5b61247389828a016124f8565b60005b838110156125ec5781810151838201526020016125d4565b50506000910152565b6000815180845261260d8160208601602086016125d1565b601f017fffffffffffffffffffffffffffffffffffffffffffffffffffffffffffffffe0169290920160200192915050565b7fff000000000000000000000000000000000000000000000000000000000000008816815260e06020820152600061267a60e08301896125f5565b828103604084015261268c81896125f5565b6060840188905273ffffffffffffffffffffffffffffffffffffffff8716608085015260a0840186905283810360c08501528451808252602080870193509091019060005b818110156126ef5783518352602093840193909201916001016126d1565b50909b9a5050505050505050505050565b6000806000806040858703121561271657600080fd5b843567ffffffffffffffff81111561272d57600080fd5b612739878288016124f8565b909550935050602085013567ffffffffffffffff81111561275957600080fd5b612765878288016124f8565b95989497509550505050565b7f4e487b7100000000000000000000000000000000000000000000000000000000600052601160045260246000fd5b8082018082111561047357610473612771565b808202811582820484141761047357610473612771565b8181038181111561047357610473612771565b7f4e487b7100000000000000000000000000000000000000000000000000000000600052602160045260246000fd5b7f4e487b7100000000000000000000000000000000000000000000000000000000600052601260045260246000fd5b60008261284a5761284a61280c565b500490565b60006020828403121561286157600080fd5b5051919050565b7f4e487b7100000000000000000000000000000000000000000000000000000000600052603260045260246000fd5b6000826128a6576128a661280c565b500690565b600381106128e2577f4e487b7100000000000000000000000000000000000000000000000000000000600052602160045260246000fd5b9052565b600060e08201905088825287602083015273ffffffffffffffffffffffffffffffffffffffff8716604083015273ffffffffffffffffffffffffffffffffffffffff861660608301528460808301528360a083015261294860c08301846128ab565b98975050505050505050565b838152602081018390526060810161296f60408301846128ab565b949350505050565b60006020828403121561298957600080fd5b81518015158114611c4157600080fd5b600181811c908216806129ad57607f821691505b6020821081036129e6577f4e487b7100000000000000000000000000000000000000000000000000000000600052602260045260246000fd5b50919050565b82815260406020820152600061296f60408301846125f5565b60008251612a178184602087016125d1565b919091019291505056fea2646970667358221220ac9383f2da46e0e1a3253248fd9d4157a43af1dbc9243237b2896fee90882c7b64736f6c634300081c0033",
  "linkReferences": {},
  "deployedLinkReferences": {}
}