{
  "_format": "hh-sol-artifact-1",
  "contractName": "PointsV2Mock",
  "sourceName": "contracts/mocks/points/PointsV2Mock.sol",
  "abi": [
    {
      "inputs": [
        {
          "internalType": "contract IForwarderRegistry",
          "name": "forwarderRegistry",
          "type": "address"
        }
      ],
      "stateMutability": "nonpayable",
      "type": "constructor"
    },
    {
      "inputs": [
        {
          "internalType": "address",
          "name": "holder",
          "type": "address"
        }
      ],
      "name": "ApprovalToAddressZero",
      "type": "error"
    },
    {
      "inputs": [
        {
          "internalType": "address",
          "name": "spender",
          "type": "address"
        },
        {
          "internalType": "uint256",
          "name": "amount",
          "type": "uint256"
        },
        {
          "internalType": "address",
          "name": "target",
          "type": "address"
        },
        {
          "internalType": "bytes",
          "name": "data",
          "type": "bytes"
        }
      ],
      "name": "CallbackRejected",
      "type": "error"
    },
    {
      "inputs": [],
      "name": "DepositToAddressZero",
      "type": "error"
    },
    {
      "inputs": [],
      "name": "DepositZeroAmount",
      "type": "error"
    },
    {
      "inputs": [],
      "name": "ExpiredSignature",
      "type": "error"
    },
    {
      "inputs": [],
      "name": "IllegalInterfaceId",
      "type": "error"
    },
    {
      "inputs": [
        {
          "internalType": "address",
          "name": "owner",
          "type": "address"
        },
        {
          "internalType": "address",
          "name": "spender",
          "type": "address"
        },
        {
          "internalType": "uint256",
          "name": "allowance",
          "type": "uint256"
        },
        {
          "internalType": "uint256",
          "name": "decrement",
          "type": "uint256"
        }
      ],
      "name": "InsufficientAllowance",
      "type": "error"
    },
    {
      "inputs": [
        {
          "internalType": "address",
          "name": "holder",
          "type": "address"
        },
        {
          "internalType": "uint256",
          "name": "availableBalance",
          "type": "uint256"
        },
        {
          "internalType": "uint256",
          "name": "requiredBalance",
          "type": "uint256"
        }
      ],
      "name": "InsufficientBalance",
      "type": "error"
    },
    {
      "inputs": [],
      "name": "InvalidShortString",
      "type": "error"
    },
    {
      "inputs": [],
      "name": "InvalidSignature",
      "type": "error"
    },
    {
      "inputs": [
        {
          "internalType": "address",
          "name": "account",
          "type": "address"
        }
      ],
      "name": "NotContractOwner",
      "type": "error"
    },
    {
      "inputs": [
        {
          "internalType": "bytes32",
          "name": "role",
          "type": "bytes32"
        },
        {
          "internalType": "address",
          "name": "account",
          "type": "address"
        }
      ],
      "name": "NotRoleHolder",
      "type": "error"
    },
    {
      "inputs": [
        {
          "internalType": "string",
          "name": "str",
          "type": "string"
        }
      ],
      "name": "StringTooLong",
      "type": "error"
    },
    {
      "anonymous": false,
      "inputs": [
        {
          "indexed": true,
          "internalType": "address",
          "name": "holder",
          "type": "address"
        },
        {
          "indexed": true,
          "internalType": "address",
          "name": "spender",
          "type": "address"
        },
        {
          "indexed": false,
          "internalType": "uint256",
          "name": "amount",
          "type": "uint256"
        }
      ],
      "name": "Approval",
      "type": "event"
    },
    {
      "anonymous": false,
      "inputs": [
        {
          "indexed": true,
          "internalType": "address",
          "name": "depositor",
          "type": "address"
        },
        {
          "indexed": true,
          "internalType": "bytes32",
          "name": "reasonCode",
          "type": "bytes32"
        },
        {
          "indexed": true,
          "internalType": "address",
          "name": "holder",
          "type": "address"
        },
        {
          "indexed": false,
          "internalType": "uint256",
          "name": "amount",
          "type": "uint256"
        }
      ],
      "name": "Deposited",
      "type": "event"
    },
    {
      "anonymous": false,
      "inputs": [],
      "name": "EIP712DomainChanged",
      "type": "event"
    },
    {
      "anonymous": false,
      "inputs": [
        {
          "indexed": true,
          "internalType": "address",
          "name": "previousOwner",
          "type": "address"
        },
        {
          "indexed": true,
          "internalType": "address",
          "name": "newOwner",
          "type": "address"
        }
      ],
      "name": "OwnershipTransferred",
      "type": "event"
    },
    {
      "anonymous": false,
      "inputs": [
        {
          "indexed": false,
          "internalType": "bytes32",
          "name": "role",
          "type": "bytes32"
        },
        {
          "indexed": false,
          "internalType": "address",
          "name": "account",
          "type": "address"
        },
        {
          "indexed": false,
          "internalType": "address",
          "name": "operator",
          "type": "address"
        }
      ],
      "name": "RoleGranted",
      "type": "event"
    },
    {
      "anonymous": false,
      "inputs": [
        {
          "indexed": false,
          "internalType": "bytes32",
          "name": "role",
          "type": "bytes32"
        },
        {
          "indexed": false,
          "internalType": "address",
          "name": "account",
          "type": "address"
        },
        {
          "indexed": false,
          "internalType": "address",
          "name": "operator",
          "type": "address"
        }
      ],
      "name": "RoleRevoked",
      "type": "event"
    },
    {
      "anonymous": false,
      "inputs": [
        {
          "indexed": true,
          "internalType": "address",
          "name": "spender",
          "type": "address"
        },
        {
          "indexed": true,
          "internalType": "address",
          "name": "holder",
          "type": "address"
        },
        {
          "indexed": false,
          "internalType": "uint256",
          "name": "amount",
          "type": "uint256"
        }
      ],
      "name": "Spent",
      "type": "event"
    },
    {
      "inputs": [],
      "name": "DEPOSITOR_ROLE",
      "outputs": [
        {
          "internalType": "bytes32",
          "name": "",
          "type": "bytes32"
        }
      ],
      "stateMutability": "view",
      "type": "function"
    },
    {
      "inputs": [],
      "name": "__msgData",
      "outputs": [
        {
          "internalType": "bytes",
          "name": "",
          "type": "bytes"
        }
      ],
      "stateMutability": "view",
      "type": "function"
    },
    {
      "inputs": [
        {
          "internalType": "address",
          "name": "holder",
          "type": "address"
        },
        {
          "internalType": "address",
          "name": "spender",
          "type": "address"
        }
      ],
      "name": "allowances",
      "outputs": [
        {
          "internalType": "uint256",
          "name": "amount",
          "type": "uint256"
        }
      ],
      "stateMutability": "view",
      "type": "function"
    },
    {
      "inputs": [
        {
          "internalType": "address",
          "name": "spender",
          "type": "address"
        },
        {
          "internalType": "uint256",
          "name": "amount",
          "type": "uint256"
        }
      ],
      "name": "approve",
      "outputs": [],
      "stateMutability": "nonpayable",
      "type": "function"
    },
    {
      "inputs": [
        {
          "internalType": "address",
          "name": "holder",
          "type": "address"
        },
        {
          "internalType": "address",
          "name": "spender",
          "type": "address"
        },
        {
          "internalType": "uint256",
          "name": "amount",
          "type": "uint256"
        },
        {
          "internalType": "uint256",
          "name": "deadline",
          "type": "uint256"
        },
        {
          "internalType": "bytes",
          "name": "signature",
          "type": "bytes"
        }
      ],
      "name": "approveWithSignature",
      "outputs": [],
      "stateMutability": "nonpayable",
      "type": "function"
    },
    {
      "inputs": [
        {
          "internalType": "address",
          "name": "holder",
          "type": "address"
        }
      ],
      "name": "balances",
      "outputs": [
        {
          "internalType": "uint256",
          "name": "balance",
          "type": "uint256"
        }
      ],
      "stateMutability": "view",
      "type": "function"
    },
    {
      "inputs": [
        {
          "internalType": "address",
          "name": "holder",
          "type": "address"
        },
        {
          "internalType": "uint256",
          "name": "amount",
          "type": "uint256"
        },
        {
          "internalType": "bytes32",
          "name": "depositReasonCode",
          "type": "bytes32"
        }
      ],
      "name": "deposit",
      "outputs": [],
      "stateMutability": "nonpayable",
      "type": "function"
    },
    {
      "inputs": [],
      "name": "eip712Domain",
      "outputs": [
        {
          "internalType": "bytes1",
          "name": "fields",
          "type": "bytes1"
        },
        {
          "internalType": "string",
          "name": "name",
          "type": "string"
        },
        {
          "internalType": "string",
          "name": "version",
          "type": "string"
        },
        {
          "internalType": "uint256",
          "name": "chainId",
          "type": "uint256"
        },
        {
          "internalType": "address",
          "name": "verifyingContract",
          "type": "address"
        },
        {
          "internalType": "bytes32",
          "name": "salt",
          "type": "bytes32"
        },
        {
          "internalType": "uint256[]",
          "name": "extensions",
          "type": "uint256[]"
        }
      ],
      "stateMutability": "view",
      "type": "function"
    },
    {
      "inputs": [],
      "name": "forwarderRegistry",
      "outputs": [
        {
          "internalType": "contract IForwarderRegistry",
          "name": "",
          "type": "address"
        }
      ],
      "stateMutability": "view",
      "type": "function"
    },
    {
      "inputs": [
        {
          "internalType": "address",
          "name": "holder",
          "type": "address"
        },
        {
          "internalType": "address",
          "name": "spender",
          "type": "address"
        }
      ],
      "name": "getNonceKey",
      "outputs": [
        {
          "internalType": "bytes32",
          "name": "",
          "type": "bytes32"
        }
      ],
      "stateMutability": "pure",
      "type": "function"
    },
    {
      "inputs": [
        {
          "internalType": "bytes32",
          "name": "role",
          "type": "bytes32"
        },
        {
          "internalType": "address",
          "name": "account",
          "type": "address"
        }
      ],
      "name": "grantRole",
      "outputs": [],
      "stateMutability": "nonpayable",
      "type": "function"
    },
    {
      "inputs": [
        {
          "internalType": "bytes32",
          "name": "role",
          "type": "bytes32"
        },
        {
          "internalType": "address",
          "name": "account",
          "type": "address"
        }
      ],
      "name": "hasRole",
      "outputs": [
        {
          "internalType": "bool",
          "name": "hasRole_",
          "type": "bool"
        }
      ],
      "stateMutability": "view",
      "type": "function"
    },
    {
      "inputs": [
        {
          "internalType": "address",
          "name": "forwarder",
          "type": "address"
        }
      ],
      "name": "isTrustedForwarder",
      "outputs": [
        {
          "internalType": "bool",
          "name": "",
          "type": "bool"
        }
      ],
      "stateMutability": "view",
      "type": "function"
    },
    {
      "inputs": [
        {
          "internalType": "bytes32",
          "name": "hashHolderSpender",
          "type": "bytes32"
        }
      ],
      "name": "nonces",
      "outputs": [
        {
          "internalType": "uint256",
          "name": "nonce",
          "type": "uint256"
        }
      ],
      "stateMutability": "view",
      "type": "function"
    },
    {
      "inputs": [],
      "name": "owner",
      "outputs": [
        {
          "internalType": "address",
          "name": "",
          "type": "address"
        }
      ],
      "stateMutability": "view",
      "type": "function"
    },
    {
      "inputs": [
        {
          "internalType": "bytes32",
          "name": "role",
          "type": "bytes32"
        }
      ],
      "name": "renounceRole",
      "outputs": [],
      "stateMutability": "nonpayable",
      "type": "function"
    },
    {
      "inputs": [
        {
          "internalType": "bytes32",
          "name": "role",
          "type": "bytes32"
        },
        {
          "internalType": "address",
          "name": "account",
          "type": "address"
        }
      ],
      "name": "revokeRole",
      "outputs": [],
      "stateMutability": "nonpayable",
      "type": "function"
    },
    {
      "inputs": [
        {
          "internalType": "uint256",
          "name": "amount",
          "type": "uint256"
        },
        {
          "internalType": "address",
          "name": "target",
          "type": "address"
        },
        {
          "internalType": "bytes",
          "name": "data",
          "type": "bytes"
        }
      ],
      "name": "spendAndCall",
      "outputs": [],
      "stateMutability": "nonpayable",
      "type": "function"
    },
    {
      "inputs": [
        {
          "internalType": "address",
          "name": "holder",
          "type": "address"
        },
        {
          "internalType": "uint256",
          "name": "amount",
          "type": "uint256"
        }
      ],
      "name": "spendFrom",
      "outputs": [],
      "stateMutability": "nonpayable",
      "type": "function"
    },
    {
      "inputs": [
        {
          "internalType": "bytes4",
          "name": "interfaceId",
          "type": "bytes4"
        }
      ],
      "name": "supportsInterface",
      "outputs": [
        {
          "internalType": "bool",
          "name": "",
          "type": "bool"
        }
      ],
      "stateMutability": "view",
      "type": "function"
    },
    {
      "inputs": [
        {
          "internalType": "address",
          "name": "newOwner",
          "type": "address"
        }
      ],
      "name": "transferOwnership",
      "outputs": [],
      "stateMutability": "nonpayable",
      "type": "function"
    }
  ],
  "bytecode": "0x610180806040523461023a576020816127358038038091610020828561023f565b83398101031261023a57516001600160a01b038116810361023a5760405161004960408261023f565b60068152602081019065506f696e747360d01b82526040519161006d60408461023f565b600183526020830191601960f91b8352336101db575b6307f5828d60e41b6000527fca9d3e17f264b0f3984e2634e94adb37fa3e6a8103f06aeae6fa59e21c769f5d6020527fa53d5a615b1d5279f1a6647c5c0f31bf064b1e70af135676a4a96aeaeb691a2f805460ff191660011790556100e781610278565b610120526100f48461043a565b61014052519020918260e05251902080610100524660a0526040519060208201927f8b73c3c69bb8fe3d512ecc4cf759cc79239f7b179b0ffacaa9a75d522b39400f8452604083015260608201524660808201523060a082015260a0815261015d60c08261023f565b5190206080523060c0526101605260405161215c90816105d9823960805181611f77015260a0518161202e015260c05181611f48015260e05181611fc601526101005181611fec0152610120518161097f015261014051816109a80152610160518181816110fa01528181611532015281816118e10152611a1c0152f35b7fc9ed16f33ab3a66c84bfd83099ccb2a8845871e2e1c1928f63797152f0fd54cc80546001600160a01b0319163390811790915560007f8be0079c531659141344cd1fd0a4f28419497f9722a3daafe3b4186f6b6457e08180a3610083565b600080fd5b601f909101601f19168101906001600160401b0382119082101761026257604052565b634e487b7160e01b600052604160045260246000fd5b90815160208110600014610310575090601f8151116102b45760208151910151602082106102a4571790565b6000198260200360031b1b161790565b6040519063305a27a960e01b8252602060048301528181519182602483015260005b8381106102f85750508160006044809484010152601f80199101168101030190fd5b602082820181015160448784010152859350016102d6565b6001600160401b03811161026257600054600181811c91168015610430575b602082101461041a57601f81116103e5575b50602092601f82116001146103815792819293600092610376575b50508160011b916000199060031b1c19161760005560ff90565b01519050388061035c565b601f1982169360008052806000209160005b8681106103cd57508360019596106103b4575b505050811b0160005560ff90565b015160001960f88460031b161c191690553880806103a6565b91926020600181928685015181550194019201610393565b60008052601f6020600020910160051c810190601f830160051c015b81811061040e5750610341565b60008155600101610401565b634e487b7160e01b600052602260045260246000fd5b90607f169061032f565b908151602081106000146104c2575090601f8151116104665760208151910151602082106102a4571790565b6040519063305a27a960e01b8252602060048301528181519182602483015260005b8381106104aa5750508160006044809484010152601f80199101168101030190fd5b60208282018101516044878401015285935001610488565b6001600160401b03811161026257600154600181811c911680156105ce575b602082101461041a57601f8111610598575b50602092601f82116001146105335792819293600092610528575b50508160011b916000199060031b1c19161760015560ff90565b01519050388061050e565b601f198216936001600052806000209160005b8681106105805750836001959610610567575b505050811b0160015560ff90565b015160001960f88460031b161c19169055388080610559565b91926020600181928685015181550194019201610546565b6001600052601f6020600020910160051c810190601f830160051c015b8181106105c257506104f3565b600081556001016105b5565b90607f16906104e156fe6080604052600436101561001257600080fd5b60003560e01c806301ffc9a7146113a3578063095ea7b31461135857806326b3293f1461118357806327e235e31461111e5780632b4c9f16146110af5780632f2ff15d14610f2357806331e66e1e14610ed157806355b6ed5c14610e41578063572b6c0514610df65780635d21f95014610bc35780636aade28814610a7f57806384b0196e146109485780638bb9c5bf146107d95780638da5cb5b1461076857806391d14854146106d05780639e317f1214610686578063a3b0b5a31461062d578063d547741f146104a4578063e9a1348d1461027a578063f2fde38b1461015a5763ff4db69c1461010357600080fd5b346101555760407ffffffffffffffffffffffffffffffffffffffffffffffffffffffffffffffffc36011261015557602061014d61013f611409565b61014761142c565b906115ea565b604051908152f35b600080fd5b346101555760207ffffffffffffffffffffffffffffffffffffffffffffffffffffffffffffffffc36011261015557610191611409565b7fc9ed16f33ab3a66c84bfd83099ccb2a8845871e2e1c1928f63797152f0fd54cc6101ba6118ca565b9080549273ffffffffffffffffffffffffffffffffffffffff808516931683810361024d575073ffffffffffffffffffffffffffffffffffffffff169283830361020057005b7fffffffffffffffffffffffff000000000000000000000000000000000000000016831790557f8be0079c531659141344cd1fd0a4f28419497f9722a3daafe3b4186f6b6457e0600080a3005b7f2ef4875e0000000000000000000000000000000000000000000000000000000060005260045260246000fd5b346101555760607ffffffffffffffffffffffffffffffffffffffffffffffffffffffffffffffffc360112610155576004356102b461142c565b60443567ffffffffffffffff8111610155576102d490369060040161148e565b9073ffffffffffffffffffffffffffffffffffffffff6102f26118ca565b936102fe8686806117f1565b169173ffffffffffffffffffffffffffffffffffffffff604051947fd2741e830000000000000000000000000000000000000000000000000000000086521693846004820152856024820152606060448201526020818061036360648201868861144f565b03816000885af190811561049857600091610416575b507fffffffff000000000000000000000000000000000000000000000000000000007fd2741e83000000000000000000000000000000000000000000000000000000009116036103c557005b610412926040519586957f520d240000000000000000000000000000000000000000000000000000000000875260048701526024860152604485015260806064850152608484019161144f565b0390fd5b6020813d602011610490575b8161042f6020938361157a565b8101031261048c5751907fffffffff000000000000000000000000000000000000000000000000000000008216820361048957507fffffffff00000000000000000000000000000000000000000000000000000000610379565b80fd5b5080fd5b3d9150610422565b6040513d6000823e3d90fd5b346101555760407ffffffffffffffffffffffffffffffffffffffffffffffffffffffffffffffffc360112610155576004356104de61142c565b6104e66118ca565b9173ffffffffffffffffffffffffffffffffffffffff7fc9ed16f33ab3a66c84bfd83099ccb2a8845871e2e1c1928f63797152f0fd54cc541673ffffffffffffffffffffffffffffffffffffffff841690810361024d57507fc8827d3282af6f37b64c3e9e6f3ac9df286ab0bb0fccd6f8661bf19adb368b228160005280602052604060002073ffffffffffffffffffffffffffffffffffffffff841660005260205260ff6040600020541661059857005b60008281526020918252604080822073ffffffffffffffffffffffffffffffffffffffff9586168084529084529181902080547fffffffffffffffffffffffffffffffffffffffffffffffffffffffffffffff0016905580519384529183015291909216908201527ff6391f5c32d9c69d2a47ea670b442974b53935d1edc7fd64eb21e047a839171b9080606081015b0390a1005b346101555760007ffffffffffffffffffffffffffffffffffffffffffffffffffffffffffffffffc3601126101555760206040517f8f4f2da22e8ac8f11e15f9fc141cddbb5deea8800186560abb6e68c5496619a98152f35b346101555760207ffffffffffffffffffffffffffffffffffffffffffffffffffffffffffffffffc3601126101555760043560005260046020526020604060002054604051908152f35b346101555760407ffffffffffffffffffffffffffffffffffffffffffffffffffffffffffffffffc3601126101555761070761142c565b7fc8827d3282af6f37b64c3e9e6f3ac9df286ab0bb0fccd6f8661bf19adb368b2260043560005260205273ffffffffffffffffffffffffffffffffffffffff60406000209116600052602052602060ff604060002054166040519015158152f35b346101555760007ffffffffffffffffffffffffffffffffffffffffffffffffffffffffffffffffc36011261015557602073ffffffffffffffffffffffffffffffffffffffff7fc9ed16f33ab3a66c84bfd83099ccb2a8845871e2e1c1928f63797152f0fd54cc5416604051908152f35b346101555760207ffffffffffffffffffffffffffffffffffffffffffffffffffffffffffffffffc360112610155577fc8827d3282af6f37b64c3e9e6f3ac9df286ab0bb0fccd6f8661bf19adb368b226004356108346118ca565b908060005282602052604060002073ffffffffffffffffffffffffffffffffffffffff831660005260205260ff60406000205416156109005760008181526020938452604080822073ffffffffffffffffffffffffffffffffffffffff949094168083529385529081902080547fffffffffffffffffffffffffffffffffffffffffffffffffffffffffffffff001690558051918252928101829052918201527ff6391f5c32d9c69d2a47ea670b442974b53935d1edc7fd64eb21e047a839171b908060608101610628565b73ffffffffffffffffffffffffffffffffffffffff92507f7aa72882000000000000000000000000000000000000000000000000000000006000526004521660245260446000fd5b346101555760007ffffffffffffffffffffffffffffffffffffffffffffffffffffffffffffffffc36011261015557610a216109a37f0000000000000000000000000000000000000000000000000000000000000000611cc7565b6109cc7f0000000000000000000000000000000000000000000000000000000000000000611e5f565b6020610a2f604051926109df838561157a565b6000845260003681376040519586957f0f00000000000000000000000000000000000000000000000000000000000000875260e08588015260e08701906114bc565b9085820360408701526114bc565b466060850152306080850152600060a085015283810360c085015281808451928381520193019160005b828110610a6857505050500390f35b835185528695509381019392810192600101610a59565b346101555760407ffffffffffffffffffffffffffffffffffffffffffffffffffffffffffffffffc36011261015557610ab6611409565b602435610ac16118ca565b9173ffffffffffffffffffffffffffffffffffffffff83169273ffffffffffffffffffffffffffffffffffffffff821693808503610b07575b50610b0593506117f1565b005b84600052600260205260406000208160005260205260406000205494848610610b81577f8c5be1e5ebec7d5bd14f71427d1e84f3dd0314c0f7b2291e5b200ac8c7c3b9256020610b5a87610b059961163a565b8360005260028252604060002085600052825280604060002055604051908152a384610afa565b8486608493604051937f91beda240000000000000000000000000000000000000000000000000000000085526004850152602484015260448301526064820152fd5b346101555760a07ffffffffffffffffffffffffffffffffffffffffffffffffffffffffffffffffc36011261015557610bfa611409565b610c0261142c565b604435906064359260843567ffffffffffffffff811161015557610c2a90369060040161148e565b9490814211610dcc57610c3d84846115ea565b9586600052600460205260426040600020549360405160208101917f57417854b9a47bf7c74564d2852a775d79b1790c7b31ab63ff902485418de762835273ffffffffffffffffffffffffffffffffffffffff8816604083015273ffffffffffffffffffffffffffffffffffffffff8916606083015289608083015260a08201528560c082015260c08152610cd360e08261157a565b519020610cde611f31565b90604051917f190100000000000000000000000000000000000000000000000000000000000083526002830152602282015220610d1a826117b7565b91610d28604051938461157a565b808352368185011161015557602081600092610d4c96838701378401015284611b4b565b15610da25760018101809111610d7357610b059460005260046020526040600020556116f6565b7f4e487b7100000000000000000000000000000000000000000000000000000000600052601160045260246000fd5b7f8baa579f0000000000000000000000000000000000000000000000000000000060005260046000fd5b7fdf4cc36d0000000000000000000000000000000000000000000000000000000060005260046000fd5b346101555760207ffffffffffffffffffffffffffffffffffffffffffffffffffffffffffffffffc360112610155576020610e37610e32611409565b61151b565b6040519015158152f35b346101555760407ffffffffffffffffffffffffffffffffffffffffffffffffffffffffffffffffc36011261015557610e78611409565b73ffffffffffffffffffffffffffffffffffffffff610e9561142c565b9116600052600260205273ffffffffffffffffffffffffffffffffffffffff604060002091166000526020526020604060002054604051908152f35b346101555760007ffffffffffffffffffffffffffffffffffffffffffffffffffffffffffffffffc36011261015557610f08611a05565b610f1f60405192839260208452602084019161144f565b0390f35b346101555760407ffffffffffffffffffffffffffffffffffffffffffffffffffffffffffffffffc36011261015557600435610f5d61142c565b610f656118ca565b9173ffffffffffffffffffffffffffffffffffffffff7fc9ed16f33ab3a66c84bfd83099ccb2a8845871e2e1c1928f63797152f0fd54cc541673ffffffffffffffffffffffffffffffffffffffff841690810361024d57507fc8827d3282af6f37b64c3e9e6f3ac9df286ab0bb0fccd6f8661bf19adb368b228160005280602052604060002073ffffffffffffffffffffffffffffffffffffffff841660005260205260ff604060002054161561101857005b60008281526020918252604080822073ffffffffffffffffffffffffffffffffffffffff9586168084529084529181902080547fffffffffffffffffffffffffffffffffffffffffffffffffffffffffffffff0016600117905580519384529183015291909216908201527f2f8788117e7eff1d82e926ec794901d17c78024a50270940304540a733656f0d908060608101610628565b346101555760007ffffffffffffffffffffffffffffffffffffffffffffffffffffffffffffffffc36011261015557602060405173ffffffffffffffffffffffffffffffffffffffff7f0000000000000000000000000000000000000000000000000000000000000000168152f35b346101555760207ffffffffffffffffffffffffffffffffffffffffffffffffffffffffffffffffc3601126101555773ffffffffffffffffffffffffffffffffffffffff61116a611409565b1660005260036020526020604060002054604051908152f35b346101555760607ffffffffffffffffffffffffffffffffffffffffffffffffffffffffffffffffc360112610155576111ba611409565b602435906111c66118ca565b73ffffffffffffffffffffffffffffffffffffffff811660009081527fb57053883a8facdd46f3aae5831e59f19992444af6b52570acc8e224c51237c2602052604090205490919060ff16156112f05773ffffffffffffffffffffffffffffffffffffffff169182156112c657801561129c578260005260036020526040600020805490828201809211610d7357556040519081527f81226022599698f02239ac5895ce7a96962ba5fe72f8f7610d1cc2cb0405f391602073ffffffffffffffffffffffffffffffffffffffff604435941692a4005b7f8b0733540000000000000000000000000000000000000000000000000000000060005260046000fd5b7fbff8f0bd0000000000000000000000000000000000000000000000000000000060005260046000fd5b73ffffffffffffffffffffffffffffffffffffffff827f7aa72882000000000000000000000000000000000000000000000000000000006000527f8f4f2da22e8ac8f11e15f9fc141cddbb5deea8800186560abb6e68c5496619a96004521660245260446000fd5b346101555760407ffffffffffffffffffffffffffffffffffffffffffffffffffffffffffffffffc36011261015557610b05611392611409565b6024359061139e6118ca565b6116f6565b346101555760207ffffffffffffffffffffffffffffffffffffffffffffffffffffffffffffffffc360112610155576004357fffffffff000000000000000000000000000000000000000000000000000000008116810361015557610e37602091611647565b6004359073ffffffffffffffffffffffffffffffffffffffff8216820361015557565b6024359073ffffffffffffffffffffffffffffffffffffffff8216820361015557565b601f82602094937fffffffffffffffffffffffffffffffffffffffffffffffffffffffffffffffe0938186528686013760008582860101520116010190565b9181601f840112156101555782359167ffffffffffffffff8311610155576020838186019501011161015557565b919082519283825260005b8481106115065750507fffffffffffffffffffffffffffffffffffffffffffffffffffffffffffffffe0601f8460006020809697860101520116010190565b806020809284010151828286010152016114c7565b73ffffffffffffffffffffffffffffffffffffffff7f0000000000000000000000000000000000000000000000000000000000000000169081156115735773ffffffffffffffffffffffffffffffffffffffff161490565b5050600090565b90601f7fffffffffffffffffffffffffffffffffffffffffffffffffffffffffffffffe0910116810190811067ffffffffffffffff8211176115bb57604052565b7f4e487b7100000000000000000000000000000000000000000000000000000000600052604160045260246000fd5b907fffffffffffffffffffffffffffffffffffffffff0000000000000000000000006040519181602084019460601b16845260601b1660348201526028815261163460488261157a565b51902090565b91908203918211610d7357565b7fffffffff00000000000000000000000000000000000000000000000000000000167fffffffff0000000000000000000000000000000000000000000000000000000081146116f0577f01ffc9a70000000000000000000000000000000000000000000000000000000081146116ea576000527fca9d3e17f264b0f3984e2634e94adb37fa3e6a8103f06aeae6fa59e21c769f5d60205260ff6040600020541690565b50600190565b50600090565b919073ffffffffffffffffffffffffffffffffffffffff1691821561177357602073ffffffffffffffffffffffffffffffffffffffff7f8c5be1e5ebec7d5bd14f71427d1e84f3dd0314c0f7b2291e5b200ac8c7c3b9259216928360005260028252604060002085600052825280604060002055604051908152a3565b73ffffffffffffffffffffffffffffffffffffffff907f060c5872000000000000000000000000000000000000000000000000000000006000521660045260246000fd5b67ffffffffffffffff81116115bb57601f017fffffffffffffffffffffffffffffffffffffffffffffffffffffffffffffffe01660200190565b919073ffffffffffffffffffffffffffffffffffffffff169182600052600360205260406000205482811061187c5773ffffffffffffffffffffffffffffffffffffffff7fc18352ae46a2296c951b2256c5ebc5b4546e6222fea2e4f36e824db9d44eb7ec926118638560209461163a565b86600052600384526040600020556040519485521692a3565b9050827fdb42144d0000000000000000000000000000000000000000000000000000000060005260045260245260445260646000fd5b90816020910312610155575180151581036101555790565b73ffffffffffffffffffffffffffffffffffffffff7f00000000000000000000000000000000000000000000000000000000000000001680156119f65732331480156119fb575b6119f6577fffffffffffffffffffffffffffffffffffffffffffffffffffffffffffffffec36013560601c90803314908115611955575b5061195257503390565b90565b6040517f019a202800000000000000000000000000000000000000000000000000000000815273ffffffffffffffffffffffffffffffffffffffff841660048201523360248201523060448201529150602090829060649082905afa908115610498576000916119c7575b5038611948565b6119e9915060203d6020116119ef575b6119e1818361157a565b8101906118b2565b386119c0565b503d6119d7565b503390565b5060183610611911565b73ffffffffffffffffffffffffffffffffffffffff7f0000000000000000000000000000000000000000000000000000000000000000168015611b39573233148015611b41575b611b3957803314908115611a98575b50611a67576000903690565b7fffffffffffffffffffffffffffffffffffffffffffffffffffffffffffffffec3601903682116101555760009190565b6040517f019a20280000000000000000000000000000000000000000000000000000000081527fffffffffffffffffffffffffffffffffffffffffffffffffffffffffffffffec36013560601c60048201523360248201523060448201529150602090829060649082905afa90811561049857600091611b1a575b5038611a5b565b611b33915060203d6020116119ef576119e1818361157a565b38611b13565b506000903690565b5060183610611a4c565b9190823b611bc25790611b5d91612054565b506004811015611b9357159182611b7357505090565b73ffffffffffffffffffffffffffffffffffffffff919250811691161490565b7f4e487b7100000000000000000000000000000000000000000000000000000000600052602160045260246000fd5b91600092611c12611c3e859460405192839160208301957f1626ba7e00000000000000000000000000000000000000000000000000000000875260248401526040604484015260648301906114bc565b037fffffffffffffffffffffffffffffffffffffffffffffffffffffffffffffffe0810183528261157a565b51915afa3d15611cc0573d611c52816117b7565b90611c60604051928361157a565b81523d6000602083013e5b81611cb2575b81611c7a575090565b905060208180518101031261015557602001517f1626ba7e000000000000000000000000000000000000000000000000000000001490565b905060208151101590611c71565b6060611c6b565b60ff8114611d495760ff811690601f8211611d1f576040805192611ceb828561157a565b602084527fffffffffffffffffffffffffffffffffffffffffffffffffffffffffffffffe060208501920136833783525290565b7fb3512b0c0000000000000000000000000000000000000000000000000000000060005260046000fd5b5060405160008054908160011c91600181168015611e55575b602084108114611e28578385528492918115611deb5750600114611d8d575b6119529250038261157a565b50600080805290917f290decd9548b62a8d60345a988386fc84ba6bc95484008f6362f93160ef3e5635b818310611dcf57505090602061195292820101611d81565b6020919350806001915483858801015201910190918392611db7565b602092506119529491507fffffffffffffffffffffffffffffffffffffffffffffffffffffffffffffff001682840152151560051b820101611d81565b6024837f4e487b710000000000000000000000000000000000000000000000000000000081526022600452fd5b92607f1692611d62565b60ff8114611e835760ff811690601f8211611d1f576040805192611ceb828561157a565b506040516000600154908160011c91600181168015611f27575b602084108114611e28578385528492918115611deb5750600114611ec7576119529250038261157a565b506001600090815290917fb10e2d527612073b26eecdfd717e6a320cf44b4afac2b0732d9fcbe2b7fa0cf65b818310611f0b57505090602061195292820101611d81565b6020919350806001915483858801015201910190918392611ef3565b92607f1692611e9d565b73ffffffffffffffffffffffffffffffffffffffff7f00000000000000000000000000000000000000000000000000000000000000001630148061202b575b15611f99577f000000000000000000000000000000000000000000000000000000000000000090565b60405160208101907f8b73c3c69bb8fe3d512ecc4cf759cc79239f7b179b0ffacaa9a75d522b39400f82527f000000000000000000000000000000000000000000000000000000000000000060408201527f000000000000000000000000000000000000000000000000000000000000000060608201524660808201523060a082015260a0815261163460c08261157a565b507f00000000000000000000000000000000000000000000000000000000000000004614611f70565b81519190604183036120855761207e92506020820151906060604084015193015160001a90612090565b9192909190565b505060009160029190565b91907f7fffffffffffffffffffffffffffffff5d576e7357a4501ddfe92f46681b20a0841161211a579160209360809260ff60009560405194855216868401526040830152606082015282805260015afa156104985760005173ffffffffffffffffffffffffffffffffffffffff81161561210e5790600090600090565b50600090600190600090565b5050506000916003919056fea26469706673582212201316b4347e716f8e83b28490e69f4e9c261d94251f425d57b0bd0ebc48b4208964736f6c634300081e0033",
  "linkReferences": {},
  "deployedLinkReferences": {}
}