{
  "_format": "hh-sol-artifact-1",
  "contractName": "Points",
  "sourceName": "contracts/points/Points.sol",
  "abi": [
    {
      "inputs": [
        {
          "internalType": "contract IForwarderRegistry",
          "name": "forwarderRegistry_",
          "type": "address"
        }
      ],
      "stateMutability": "nonpayable",
      "type": "constructor"
    },
    {
      "inputs": [
        {
          "internalType": "bytes32",
          "name": "reasonCode",
          "type": "bytes32"
        }
      ],
      "name": "ConsumeReasonCodeAlreadyExists",
      "type": "error"
    },
    {
      "inputs": [
        {
          "internalType": "bytes32",
          "name": "reasonCode",
          "type": "bytes32"
        }
      ],
      "name": "ConsumeReasonCodeDoesNotExist",
      "type": "error"
    },
    {
      "inputs": [],
      "name": "ConsumeReasonCodesArrayEmpty",
      "type": "error"
    },
    {
      "inputs": [],
      "name": "DepositZeroAmount",
      "type": "error"
    },
    {
      "inputs": [],
      "name": "ExpiredSignature",
      "type": "error"
    },
    {
      "inputs": [],
      "name": "IllegalInterfaceId",
      "type": "error"
    },
    {
      "inputs": [
        {
          "internalType": "address",
          "name": "holder",
          "type": "address"
        },
        {
          "internalType": "uint256",
          "name": "requiredBalance",
          "type": "uint256"
        }
      ],
      "name": "InsufficientBalance",
      "type": "error"
    },
    {
      "inputs": [],
      "name": "InvalidForwarderRegistry",
      "type": "error"
    },
    {
      "inputs": [],
      "name": "InvalidSignature",
      "type": "error"
    },
    {
      "inputs": [
        {
          "internalType": "address",
          "name": "account",
          "type": "address"
        }
      ],
      "name": "NotContractOwner",
      "type": "error"
    },
    {
      "inputs": [
        {
          "internalType": "bytes32",
          "name": "role",
          "type": "bytes32"
        },
        {
          "internalType": "address",
          "name": "account",
          "type": "address"
        }
      ],
      "name": "NotRoleHolder",
      "type": "error"
    },
    {
      "anonymous": false,
      "inputs": [
        {
          "indexed": true,
          "internalType": "bytes32[]",
          "name": "reasonCodes",
          "type": "bytes32[]"
        }
      ],
      "name": "ConsumeReasonCodesAdded",
      "type": "event"
    },
    {
      "anonymous": false,
      "inputs": [
        {
          "indexed": true,
          "internalType": "bytes32[]",
          "name": "reasonCodes",
          "type": "bytes32[]"
        }
      ],
      "name": "ConsumeReasonCodesRemoved",
      "type": "event"
    },
    {
      "anonymous": false,
      "inputs": [
        {
          "indexed": true,
          "internalType": "address",
          "name": "operator",
          "type": "address"
        },
        {
          "indexed": true,
          "internalType": "bytes32",
          "name": "reasonCode",
          "type": "bytes32"
        },
        {
          "indexed": true,
          "internalType": "address",
          "name": "holder",
          "type": "address"
        },
        {
          "indexed": false,
          "internalType": "uint256",
          "name": "amount",
          "type": "uint256"
        }
      ],
      "name": "Consumed",
      "type": "event"
    },
    {
      "anonymous": false,
      "inputs": [
        {
          "indexed": true,
          "internalType": "address",
          "name": "sender",
          "type": "address"
        },
        {
          "indexed": true,
          "internalType": "bytes32",
          "name": "reasonCode",
          "type": "bytes32"
        },
        {
          "indexed": true,
          "internalType": "address",
          "name": "holder",
          "type": "address"
        },
        {
          "indexed": false,
          "internalType": "uint256",
          "name": "amount",
          "type": "uint256"
        }
      ],
      "name": "Deposited",
      "type": "event"
    },
    {
      "anonymous": false,
      "inputs": [
        {
          "indexed": true,
          "internalType": "address",
          "name": "previousOwner",
          "type": "address"
        },
        {
          "indexed": true,
          "internalType": "address",
          "name": "newOwner",
          "type": "address"
        }
      ],
      "name": "OwnershipTransferred",
      "type": "event"
    },
    {
      "anonymous": false,
      "inputs": [
        {
          "indexed": false,
          "internalType": "bytes32",
          "name": "role",
          "type": "bytes32"
        },
        {
          "indexed": false,
          "internalType": "address",
          "name": "account",
          "type": "address"
        },
        {
          "indexed": false,
          "internalType": "address",
          "name": "operator",
          "type": "address"
        }
      ],
      "name": "RoleGranted",
      "type": "event"
    },
    {
      "anonymous": false,
      "inputs": [
        {
          "indexed": false,
          "internalType": "bytes32",
          "name": "role",
          "type": "bytes32"
        },
        {
          "indexed": false,
          "internalType": "address",
          "name": "account",
          "type": "address"
        },
        {
          "indexed": false,
          "internalType": "address",
          "name": "operator",
          "type": "address"
        }
      ],
      "name": "RoleRevoked",
      "type": "event"
    },
    {
      "inputs": [],
      "name": "ADMIN_ROLE",
      "outputs": [
        {
          "internalType": "bytes32",
          "name": "",
          "type": "bytes32"
        }
      ],
      "stateMutability": "view",
      "type": "function"
    },
    {
      "inputs": [],
      "name": "DEPOSITOR_ROLE",
      "outputs": [
        {
          "internalType": "bytes32",
          "name": "",
          "type": "bytes32"
        }
      ],
      "stateMutability": "view",
      "type": "function"
    },
    {
      "inputs": [],
      "name": "DOMAIN_SEPARATOR",
      "outputs": [
        {
          "internalType": "bytes32",
          "name": "domainSeparator",
          "type": "bytes32"
        }
      ],
      "stateMutability": "view",
      "type": "function"
    },
    {
      "inputs": [],
      "name": "SPENDER_ROLE",
      "outputs": [
        {
          "internalType": "bytes32",
          "name": "",
          "type": "bytes32"
        }
      ],
      "stateMutability": "view",
      "type": "function"
    },
    {
      "inputs": [
        {
          "internalType": "bytes32[]",
          "name": "reasonCodes",
          "type": "bytes32[]"
        }
      ],
      "name": "addConsumeReasonCodes",
      "outputs": [],
      "stateMutability": "nonpayable",
      "type": "function"
    },
    {
      "inputs": [
        {
          "internalType": "bytes32",
          "name": "",
          "type": "bytes32"
        }
      ],
      "name": "allowedConsumeReasonCodes",
      "outputs": [
        {
          "internalType": "bool",
          "name": "",
          "type": "bool"
        }
      ],
      "stateMutability": "view",
      "type": "function"
    },
    {
      "inputs": [
        {
          "internalType": "address",
          "name": "",
          "type": "address"
        }
      ],
      "name": "balances",
      "outputs": [
        {
          "internalType": "uint256",
          "name": "",
          "type": "uint256"
        }
      ],
      "stateMutability": "view",
      "type": "function"
    },
    {
      "inputs": [
        {
          "internalType": "address",
          "name": "holder",
          "type": "address"
        },
        {
          "internalType": "uint256",
          "name": "amount",
          "type": "uint256"
        },
        {
          "internalType": "bytes32",
          "name": "consumeReasonCode",
          "type": "bytes32"
        }
      ],
      "name": "consume",
      "outputs": [],
      "stateMutability": "nonpayable",
      "type": "function"
    },
    {
      "inputs": [
        {
          "internalType": "address",
          "name": "holder",
          "type": "address"
        },
        {
          "internalType": "uint256",
          "name": "amount",
          "type": "uint256"
        },
        {
          "internalType": "bytes32",
          "name": "consumeReasonCode",
          "type": "bytes32"
        },
        {
          "internalType": "uint256",
          "name": "deadline",
          "type": "uint256"
        },
        {
          "internalType": "bytes",
          "name": "signature",
          "type": "bytes"
        }
      ],
      "name": "consume",
      "outputs": [],
      "stateMutability": "nonpayable",
      "type": "function"
    },
    {
      "inputs": [
        {
          "internalType": "uint256",
          "name": "amount",
          "type": "uint256"
        },
        {
          "internalType": "bytes32",
          "name": "consumeReasonCode",
          "type": "bytes32"
        }
      ],
      "name": "consume",
      "outputs": [],
      "stateMutability": "nonpayable",
      "type": "function"
    },
    {
      "inputs": [
        {
          "internalType": "address",
          "name": "holder",
          "type": "address"
        },
        {
          "internalType": "uint256",
          "name": "amount",
          "type": "uint256"
        },
        {
          "internalType": "bytes32",
          "name": "depositReasonCode",
          "type": "bytes32"
        }
      ],
      "name": "deposit",
      "outputs": [],
      "stateMutability": "nonpayable",
      "type": "function"
    },
    {
      "inputs": [],
      "name": "forwarderRegistry",
      "outputs": [
        {
          "internalType": "contract IForwarderRegistry",
          "name": "",
          "type": "address"
        }
      ],
      "stateMutability": "view",
      "type": "function"
    },
    {
      "inputs": [
        {
          "internalType": "bytes32",
          "name": "role",
          "type": "bytes32"
        },
        {
          "internalType": "address",
          "name": "account",
          "type": "address"
        }
      ],
      "name": "grantRole",
      "outputs": [],
      "stateMutability": "nonpayable",
      "type": "function"
    },
    {
      "inputs": [
        {
          "internalType": "bytes32",
          "name": "role",
          "type": "bytes32"
        },
        {
          "internalType": "address",
          "name": "account",
          "type": "address"
        }
      ],
      "name": "hasRole",
      "outputs": [
        {
          "internalType": "bool",
          "name": "hasRole_",
          "type": "bool"
        }
      ],
      "stateMutability": "view",
      "type": "function"
    },
    {
      "inputs": [
        {
          "internalType": "address",
          "name": "forwarder",
          "type": "address"
        }
      ],
      "name": "isTrustedForwarder",
      "outputs": [
        {
          "internalType": "bool",
          "name": "",
          "type": "bool"
        }
      ],
      "stateMutability": "view",
      "type": "function"
    },
    {
      "inputs": [
        {
          "internalType": "bytes32",
          "name": "",
          "type": "bytes32"
        }
      ],
      "name": "nonces",
      "outputs": [
        {
          "internalType": "uint256",
          "name": "",
          "type": "uint256"
        }
      ],
      "stateMutability": "view",
      "type": "function"
    },
    {
      "inputs": [],
      "name": "owner",
      "outputs": [
        {
          "internalType": "address",
          "name": "",
          "type": "address"
        }
      ],
      "stateMutability": "view",
      "type": "function"
    },
    {
      "inputs": [
        {
          "internalType": "bytes32[]",
          "name": "reasonCodes",
          "type": "bytes32[]"
        }
      ],
      "name": "removeConsumeReasonCodes",
      "outputs": [],
      "stateMutability": "nonpayable",
      "type": "function"
    },
    {
      "inputs": [
        {
          "internalType": "bytes32",
          "name": "role",
          "type": "bytes32"
        }
      ],
      "name": "renounceRole",
      "outputs": [],
      "stateMutability": "nonpayable",
      "type": "function"
    },
    {
      "inputs": [
        {
          "internalType": "bytes32",
          "name": "role",
          "type": "bytes32"
        },
        {
          "internalType": "address",
          "name": "account",
          "type": "address"
        }
      ],
      "name": "revokeRole",
      "outputs": [],
      "stateMutability": "nonpayable",
      "type": "function"
    },
    {
      "inputs": [
        {
          "internalType": "bytes4",
          "name": "interfaceId",
          "type": "bytes4"
        }
      ],
      "name": "supportsInterface",
      "outputs": [
        {
          "internalType": "bool",
          "name": "",
          "type": "bool"
        }
      ],
      "stateMutability": "view",
      "type": "function"
    },
    {
      "inputs": [
        {
          "internalType": "address",
          "name": "newOwner",
          "type": "address"
        }
      ],
      "name": "transferOwnership",
      "outputs": [],
      "stateMutability": "nonpayable",
      "type": "function"
    }
  ],
  "bytecode": "0x60c06040523480156200001157600080fd5b506040516200206e3803806200206e83398101604081905262000034916200032d565b8080620000406200011a565b62000056816200004f6200012b565b9062000161565b506001600160a01b03908116608052821690506200008757604051633545ba1f60e21b815260040160405180910390fd5b466200010e604080517f8cad95687ba82c2ce50e74f7b754645e5117c3a5bec8151c0726d5857980a86660208201527f35b2c805c184fe2089ef51ab9cc5a8fead3fff34de87569fce78dc60e0d7596391810191909152466060820181905230608083015260009160a0016040516020818303038152906040528051906020012091505090565b60a05250620003a59050565b600062000126620001dc565b905090565b6000806200015b60017fc9ed16f33ab3a66c84bfd83099ccb2a8845871e2e1c1928f63797152f0fd54cd6200035f565b92915050565b6001600160a01b03811615620001b85781546001600160a01b0319166001600160a01b03821690811783556040516000907f8be0079c531659141344cd1fd0a4f28419497f9722a3daafe3b4186f6b6457e0908290a35b620001d86307f5828d60e41b6001620001d0620002a0565b9190620002d0565b5050565b600033321480620001ed5750601836105b15620001f857503390565b60805136601319013560601c906001600160a01b03163314806200028e5750608051604051634494d46560e11b81526001600160a01b03838116600483015233602483015290911690638929a8ca90604401602060405180830381865afa15801562000268573d6000803e3d6000fd5b505050506040513d601f19601f820116820180604052508101906200028e919062000381565b156200029957919050565b3391505090565b6000806200015b60017fca9d3e17f264b0f3984e2634e94adb37fa3e6a8103f06aeae6fa59e21c769f5e6200035f565b600160e01b6001600160e01b0319831601620002ff576040516372c683bb60e01b815260040160405180910390fd5b6001600160e01b03199190911660009081526020929092526040909120805460ff1916911515919091179055565b6000602082840312156200034057600080fd5b81516001600160a01b03811681146200035857600080fd5b9392505050565b818103818111156200015b57634e487b7160e01b600052601160045260246000fd5b6000602082840312156200039457600080fd5b815180151581146200035857600080fd5b60805160a051611c91620003dd6000396000505060008181610207015281816102ee0152818161150101526115890152611c916000f3fe608060405234801561001057600080fd5b50600436106101825760003560e01c80638bb9c5bf116100d8578063a3b0b5a31161008c578063f2fde38b11610066578063f2fde38b1461043a578063f374913c1461044d578063f95159621461046057600080fd5b8063a3b0b5a3146103ed578063d547741f14610414578063e283bfbf1461042757600080fd5b806391d14854116100bd57806391d14854146103a75780639e317f12146103ba5780639fb22119146103da57600080fd5b80638bb9c5bf1461038c5780638da5cb5b1461039f57600080fd5b80632f2ff15d1161013a57806372c16a241161011457806372c16a241461032b5780637308a1281461035257806375b238fc1461036557600080fd5b80632f2ff15d1461024c5780633644e5151461025f578063572b6c05146102de57600080fd5b806326b3293f1161016b57806326b3293f146101c457806327e235e3146101d75780632b4c9f161461020557600080fd5b806301ffc9a714610187578063212aac79146101af575b600080fd5b61019a610195366004611910565b610483565b60405190151581526020015b60405180910390f35b6101c26101bd36600461197b565b61049d565b005b6101c26101d236600461197b565b6104ef565b6101f76101e53660046119ae565b60006020819052908152604090205481565b6040519081526020016101a6565b7f00000000000000000000000000000000000000000000000000000000000000005b60405173ffffffffffffffffffffffffffffffffffffffff90911681526020016101a6565b6101c261025a3660046119c9565b61060c565b604080517f8cad95687ba82c2ce50e74f7b754645e5117c3a5bec8151c0726d5857980a8666020808301919091527f35b2c805c184fe2089ef51ab9cc5a8fead3fff34de87569fce78dc60e0d7596382840152466060830152306080808401919091528351808403909101815260a090920190925280519101206101f7565b61019a6102ec3660046119ae565b7f000000000000000000000000000000000000000000000000000000000000000073ffffffffffffffffffffffffffffffffffffffff90811691161490565b6101f77f7434c6f201a551bfd17336985361933e0c4935b520dac8a49d937b325f7d5c0a81565b6101c26103603660046119f5565b610645565b6101f77fa49807205ce4d355092ef5a8a18f56e8913cf4a201fbe287825b095693c2177581565b6101c261039a366004611a6a565b6107f9565b610227610817565b61019a6103b53660046119c9565b610843565b6101f76103c8366004611a6a565b60016020526000908152604090205481565b6101c26103e8366004611a83565b61088e565b6101f77f8f4f2da22e8ac8f11e15f9fc141cddbb5deea8800186560abb6e68c5496619a981565b6101c26104223660046119c9565b61099e565b6101c2610435366004611b22565b6109cc565b6101c26104483660046119ae565b6109e4565b6101c261045b3660046119f5565b6109ff565b61019a61046e366004611a6a565b60026020526000908152604090205460ff1681565b600061049782610491610b98565b90610bc6565b92915050565b60006104a7610ca0565b90506104dd7f7434c6f201a551bfd17336985361933e0c4935b520dac8a49d937b325f7d5c0a826104d6610caa565b9190610cd8565b6104e984848484610d5e565b50505050565b60006104f9610ca0565b90506105287f8f4f2da22e8ac8f11e15f9fc141cddbb5deea8800186560abb6e68c5496619a9826104d6610caa565b82600003610562576040517f8b07335400000000000000000000000000000000000000000000000000000000815260040160405180910390fd5b73ffffffffffffffffffffffffffffffffffffffff841660009081526020819052604081208054859290610597908490611b73565b925050819055508373ffffffffffffffffffffffffffffffffffffffff16828273ffffffffffffffffffffffffffffffffffffffff167f81226022599698f02239ac5895ce7a96962ba5fe72f8f7610d1cc2cb0405f391866040516105fe91815260200190565b60405180910390a450505050565b6000610616610ca0565b905061062a81610624610e9b565b90610ec9565b610640838383610638610caa565b929190610f38565b505050565b6106797fa49807205ce4d355092ef5a8a18f56e8913cf4a201fbe287825b095693c21775610671610ca0565b6104d6610caa565b60008190036106b4576040517f3fb4608600000000000000000000000000000000000000000000000000000000815260040160405180910390fd5b60005b818110156107b457600260008484848181106106d5576106d5611b86565b602090810292909201358352508101919091526040016000205460ff161561074e5782828281811061070957610709611b86565b905060200201356040517fb642124200000000000000000000000000000000000000000000000000000000815260040161074591815260200190565b60405180910390fd5b60016002600085858581811061076657610766611b86565b6020908102929092013583525081019190915260400160002080547fffffffffffffffffffffffffffffffffffffffffffffffffffffffffffffff00169115159190911790556001016106b7565b5081816040516107c5929190611bb5565b604051908190038120907fab25d781d5ddfd48b7ce16c5048ddf0ee9caece5921f772cfacfd1085b6f5f1b90600090a25050565b610814610804610ca0565b8261080d610caa565b919061100e565b50565b600061083e610824610e9b565b5473ffffffffffffffffffffffffffffffffffffffff1690565b905090565b60006108878383610852610caa565b60009283526020908152604080842073ffffffffffffffffffffffffffffffffffffffff909316845291905290205460ff1690565b9392505050565b824211156108c8576040517fdf4cc36d00000000000000000000000000000000000000000000000000000000815260040160405180910390fd5b60006108d2610ca0565b6040517fffffffffffffffffffffffffffffffffffffffff00000000000000000000000060608a811b8216602084015283901b166034820152909150600090604801604080517fffffffffffffffffffffffffffffffffffffffffffffffffffffffffffffffe081840301815291815281516020928301206000818152600190935291205490915061096a89848a8a8a868b8b6110b2565b61097689898986610d5e565b610981816001611b73565b600092835260016020526040909220919091555050505050505050565b60006109a8610ca0565b90506109b681610624610e9b565b6106408383836109c4610caa565b9291906112e0565b60006109d6610ca0565b905061064081848484610d5e565b6108146109ef610ca0565b826109f8610e9b565b91906113aa565b610a2b7fa49807205ce4d355092ef5a8a18f56e8913cf4a201fbe287825b095693c21775610671610ca0565b6000819003610a66576040517f3fb4608600000000000000000000000000000000000000000000000000000000815260040160405180910390fd5b60005b81811015610b535760026000848484818110610a8757610a87611b86565b602090810292909201358352508101919091526040016000205460ff16610af657828282818110610aba57610aba611b86565b905060200201356040517fa89513e100000000000000000000000000000000000000000000000000000000815260040161074591815260200190565b60026000848484818110610b0c57610b0c611b86565b6020908102929092013583525081019190915260400160002080547fffffffffffffffffffffffffffffffffffffffffffffffffffffffffffffff00169055600101610a69565b508181604051610b64929190611bb5565b604051908190038120907f507a827ea9c046f50d345ab3118c004750ae36a4dd38998391315aee8be45b9590600090a25050565b60008061049760017fca9d3e17f264b0f3984e2634e94adb37fa3e6a8103f06aeae6fa59e21c769f5e611bf7565b60007c01000000000000000000000000000000000000000000000000000000007fffffffff00000000000000000000000000000000000000000000000000000000831601610c1657506000610497565b7ffe003659000000000000000000000000000000000000000000000000000000007fffffffff00000000000000000000000000000000000000000000000000000000831601610c6757506001610497565b507fffffffff00000000000000000000000000000000000000000000000000000000166000908152602091909152604090205460ff1690565b600061083e6114be565b60008061049760017fc8827d3282af6f37b64c3e9e6f3ac9df286ab0bb0fccd6f8661bf19adb368b23611bf7565b60008281526020848152604080832073ffffffffffffffffffffffffffffffffffffffff8516845290915290205460ff16610640576040517f7aa728820000000000000000000000000000000000000000000000000000000081526004810183905273ffffffffffffffffffffffffffffffffffffffff82166024820152604401610745565b73ffffffffffffffffffffffffffffffffffffffff841660009081526020819052604090205483811015610ddd576040517ff6deaa0400000000000000000000000000000000000000000000000000000000815273ffffffffffffffffffffffffffffffffffffffff8616600482015260248101859052604401610745565b60008381526002602052604090205460ff16610e28576040517fa89513e100000000000000000000000000000000000000000000000000000000815260048101849052602401610745565b610e328482611bf7565b73ffffffffffffffffffffffffffffffffffffffff868116600081815260208181526040918290209490945551878152909286928616917f483f7fdbc58a2920f2e502b1bbbb896329d7c8ddca129d0875d589e895186857910160405180910390a45050505050565b60008061049760017fc9ed16f33ab3a66c84bfd83099ccb2a8845871e2e1c1928f63797152f0fd54cd611bf7565b815473ffffffffffffffffffffffffffffffffffffffff828116911614610f34576040517f2ef4875e00000000000000000000000000000000000000000000000000000000815273ffffffffffffffffffffffffffffffffffffffff82166004820152602401610745565b5050565b60008381526020858152604080832073ffffffffffffffffffffffffffffffffffffffff8616845290915290205460ff166104e95760008381526020858152604080832073ffffffffffffffffffffffffffffffffffffffff8681168086529184529382902080547fffffffffffffffffffffffffffffffffffffffffffffffffffffffffffffff00166001179055815187815292830152918316918101919091527f2f8788117e7eff1d82e926ec794901d17c78024a50270940304540a733656f0d906060015b60405180910390a150505050565b611019838284610cd8565b60008181526020848152604080832073ffffffffffffffffffffffffffffffffffffffff86168085529083529281902080547fffffffffffffffffffffffffffffffffffffffffffffffffffffffffffffff0016905580518481529182018390528101919091527ff6391f5c32d9c69d2a47ea670b442974b53935d1edc7fd64eb21e047a839171b9060600160405180910390a1505050565b6000611139604080517f8cad95687ba82c2ce50e74f7b754645e5117c3a5bec8151c0726d5857980a86660208201527f35b2c805c184fe2089ef51ab9cc5a8fead3fff34de87569fce78dc60e0d7596391810191909152466060820181905230608083015260009160a0016040516020818303038152906040528051906020012091505090565b604080517fa722027359a4245f54723b40c893d0e406c2a361b220451e03f9bd03c41883df602082015273ffffffffffffffffffffffffffffffffffffffff808d1692820192909252908a1660608201526080810189905260a0810188905260c0810187905260e0810186905261010001604051602081830303815290604052805190602001206040516020016112029291907f190100000000000000000000000000000000000000000000000000000000000081526002810192909252602282015260420190565b604080517fffffffffffffffffffffffffffffffffffffffffffffffffffffffffffffffe08184030181526020601f8601819004810284018101909252848352925073ffffffffffffffffffffffffffffffffffffffff8b1691611288918690869081908401838280828437600092019190915250508551602087012092915050611605565b73ffffffffffffffffffffffffffffffffffffffff16146112d5576040517f8baa579f00000000000000000000000000000000000000000000000000000000815260040160405180910390fd5b505050505050505050565b60008381526020858152604080832073ffffffffffffffffffffffffffffffffffffffff8616845290915290205460ff16156104e95760008381526020858152604080832073ffffffffffffffffffffffffffffffffffffffff8681168086529184529382902080547fffffffffffffffffffffffffffffffffffffffffffffffffffffffffffffff00169055815187815292830152918316918101919091527ff6391f5c32d9c69d2a47ea670b442974b53935d1edc7fd64eb21e047a839171b90606001611000565b825473ffffffffffffffffffffffffffffffffffffffff9081169083168114611417576040517f2ef4875e00000000000000000000000000000000000000000000000000000000815273ffffffffffffffffffffffffffffffffffffffff84166004820152602401610745565b8173ffffffffffffffffffffffffffffffffffffffff168173ffffffffffffffffffffffffffffffffffffffff16146104e95783547fffffffffffffffffffffffff00000000000000000000000000000000000000001673ffffffffffffffffffffffffffffffffffffffff8381169182178655604051908316907f8be0079c531659141344cd1fd0a4f28419497f9722a3daafe3b4186f6b6457e090600090a350505050565b6000333214806114ce5750601836105b156114d857503390565b7fffffffffffffffffffffffffffffffffffffffffffffffffffffffffffffffec36013560601c7f000000000000000000000000000000000000000000000000000000000000000073ffffffffffffffffffffffffffffffffffffffff163314806115f457506040517f8929a8ca00000000000000000000000000000000000000000000000000000000815273ffffffffffffffffffffffffffffffffffffffff82811660048301523360248301527f00000000000000000000000000000000000000000000000000000000000000001690638929a8ca90604401602060405180830381865afa1580156115d0573d6000803e3d6000fd5b505050506040513d601f19601f820116820180604052508101906115f49190611c0a565b156115fe57919050565b3391505090565b60008060006116148585611629565b915091506116218161166e565b509392505050565b600080825160410361165f5760208301516040840151606085015160001a61165387828585611821565b94509450505050611667565b506000905060025b9250929050565b600081600481111561168257611682611c2c565b0361168a5750565b600181600481111561169e5761169e611c2c565b03611705576040517f08c379a000000000000000000000000000000000000000000000000000000000815260206004820152601860248201527f45434453413a20696e76616c6964207369676e617475726500000000000000006044820152606401610745565b600281600481111561171957611719611c2c565b03611780576040517f08c379a000000000000000000000000000000000000000000000000000000000815260206004820152601f60248201527f45434453413a20696e76616c6964207369676e6174757265206c656e677468006044820152606401610745565b600381600481111561179457611794611c2c565b03610814576040517f08c379a000000000000000000000000000000000000000000000000000000000815260206004820152602260248201527f45434453413a20696e76616c6964207369676e6174757265202773272076616c60448201527f75650000000000000000000000000000000000000000000000000000000000006064820152608401610745565b6000807f7fffffffffffffffffffffffffffffff5d576e7357a4501ddfe92f46681b20a08311156118585750600090506003611907565b6040805160008082526020820180845289905260ff881692820192909252606081018690526080810185905260019060a0016020604051602081039080840390855afa1580156118ac573d6000803e3d6000fd5b50506040517fffffffffffffffffffffffffffffffffffffffffffffffffffffffffffffffe0015191505073ffffffffffffffffffffffffffffffffffffffff811661190057600060019250925050611907565b9150600090505b94509492505050565b60006020828403121561192257600080fd5b81357fffffffff000000000000000000000000000000000000000000000000000000008116811461088757600080fd5b803573ffffffffffffffffffffffffffffffffffffffff8116811461197657600080fd5b919050565b60008060006060848603121561199057600080fd5b61199984611952565b95602085013595506040909401359392505050565b6000602082840312156119c057600080fd5b61088782611952565b600080604083850312156119dc57600080fd5b823591506119ec60208401611952565b90509250929050565b60008060208385031215611a0857600080fd5b823567ffffffffffffffff80821115611a2057600080fd5b818501915085601f830112611a3457600080fd5b813581811115611a4357600080fd5b8660208260051b8501011115611a5857600080fd5b60209290920196919550909350505050565b600060208284031215611a7c57600080fd5b5035919050565b60008060008060008060a08789031215611a9c57600080fd5b611aa587611952565b9550602087013594506040870135935060608701359250608087013567ffffffffffffffff80821115611ad757600080fd5b818901915089601f830112611aeb57600080fd5b813581811115611afa57600080fd5b8a6020828501011115611b0c57600080fd5b6020830194508093505050509295509295509295565b60008060408385031215611b3557600080fd5b50508035926020909101359150565b7f4e487b7100000000000000000000000000000000000000000000000000000000600052601160045260246000fd5b8082018082111561049757610497611b44565b7f4e487b7100000000000000000000000000000000000000000000000000000000600052603260045260246000fd5b60007f07ffffffffffffffffffffffffffffffffffffffffffffffffffffffffffffff831115611be457600080fd5b8260051b80858437919091019392505050565b8181038181111561049757610497611b44565b600060208284031215611c1c57600080fd5b8151801515811461088757600080fd5b7f4e487b7100000000000000000000000000000000000000000000000000000000600052602160045260246000fdfea2646970667358221220a0d6efaaba80f20c9d4b566d2dbaa5779376f4a10d61094ccd9d6354bf3e1eaa64736f6c63430008160033",
  "linkReferences": {},
  "deployedLinkReferences": {}
}