{
  "_format": "hh-sol-artifact-1",
  "contractName": "Points",
  "sourceName": "contracts/points/Points.sol",
  "abi": [
    {
      "inputs": [
        {
          "internalType": "contract IForwarderRegistry",
          "name": "forwarderRegistry_",
          "type": "address"
        }
      ],
      "stateMutability": "nonpayable",
      "type": "constructor"
    },
    {
      "inputs": [
        {
          "internalType": "bytes32",
          "name": "reasonCode",
          "type": "bytes32"
        }
      ],
      "name": "ConsumeReasonCodeAlreadyExists",
      "type": "error"
    },
    {
      "inputs": [
        {
          "internalType": "bytes32",
          "name": "reasonCode",
          "type": "bytes32"
        }
      ],
      "name": "ConsumeReasonCodeDoesNotExist",
      "type": "error"
    },
    {
      "inputs": [],
      "name": "ConsumeReasonCodesArrayEmpty",
      "type": "error"
    },
    {
      "inputs": [],
      "name": "DepositZeroAmount",
      "type": "error"
    },
    {
      "inputs": [],
      "name": "ExpiredSignature",
      "type": "error"
    },
    {
      "inputs": [],
      "name": "IllegalInterfaceId",
      "type": "error"
    },
    {
      "inputs": [
        {
          "internalType": "address",
          "name": "holder",
          "type": "address"
        },
        {
          "internalType": "uint256",
          "name": "requiredBalance",
          "type": "uint256"
        }
      ],
      "name": "InsufficientBalance",
      "type": "error"
    },
    {
      "inputs": [],
      "name": "InvalidForwarderRegistry",
      "type": "error"
    },
    {
      "inputs": [],
      "name": "InvalidSignature",
      "type": "error"
    },
    {
      "inputs": [
        {
          "internalType": "address",
          "name": "account",
          "type": "address"
        }
      ],
      "name": "NotContractOwner",
      "type": "error"
    },
    {
      "inputs": [
        {
          "internalType": "bytes32",
          "name": "role",
          "type": "bytes32"
        },
        {
          "internalType": "address",
          "name": "account",
          "type": "address"
        }
      ],
      "name": "NotRoleHolder",
      "type": "error"
    },
    {
      "anonymous": false,
      "inputs": [
        {
          "indexed": true,
          "internalType": "bytes32[]",
          "name": "reasonCodes",
          "type": "bytes32[]"
        }
      ],
      "name": "ConsumeReasonCodesAdded",
      "type": "event"
    },
    {
      "anonymous": false,
      "inputs": [
        {
          "indexed": true,
          "internalType": "bytes32[]",
          "name": "reasonCodes",
          "type": "bytes32[]"
        }
      ],
      "name": "ConsumeReasonCodesRemoved",
      "type": "event"
    },
    {
      "anonymous": false,
      "inputs": [
        {
          "indexed": true,
          "internalType": "address",
          "name": "operator",
          "type": "address"
        },
        {
          "indexed": true,
          "internalType": "bytes32",
          "name": "reasonCode",
          "type": "bytes32"
        },
        {
          "indexed": true,
          "internalType": "address",
          "name": "holder",
          "type": "address"
        },
        {
          "indexed": false,
          "internalType": "uint256",
          "name": "amount",
          "type": "uint256"
        }
      ],
      "name": "Consumed",
      "type": "event"
    },
    {
      "anonymous": false,
      "inputs": [
        {
          "indexed": true,
          "internalType": "address",
          "name": "sender",
          "type": "address"
        },
        {
          "indexed": true,
          "internalType": "bytes32",
          "name": "reasonCode",
          "type": "bytes32"
        },
        {
          "indexed": true,
          "internalType": "address",
          "name": "holder",
          "type": "address"
        },
        {
          "indexed": false,
          "internalType": "uint256",
          "name": "amount",
          "type": "uint256"
        }
      ],
      "name": "Deposited",
      "type": "event"
    },
    {
      "anonymous": false,
      "inputs": [
        {
          "indexed": true,
          "internalType": "address",
          "name": "previousOwner",
          "type": "address"
        },
        {
          "indexed": true,
          "internalType": "address",
          "name": "newOwner",
          "type": "address"
        }
      ],
      "name": "OwnershipTransferred",
      "type": "event"
    },
    {
      "anonymous": false,
      "inputs": [
        {
          "indexed": false,
          "internalType": "bytes32",
          "name": "role",
          "type": "bytes32"
        },
        {
          "indexed": false,
          "internalType": "address",
          "name": "account",
          "type": "address"
        },
        {
          "indexed": false,
          "internalType": "address",
          "name": "operator",
          "type": "address"
        }
      ],
      "name": "RoleGranted",
      "type": "event"
    },
    {
      "anonymous": false,
      "inputs": [
        {
          "indexed": false,
          "internalType": "bytes32",
          "name": "role",
          "type": "bytes32"
        },
        {
          "indexed": false,
          "internalType": "address",
          "name": "account",
          "type": "address"
        },
        {
          "indexed": false,
          "internalType": "address",
          "name": "operator",
          "type": "address"
        }
      ],
      "name": "RoleRevoked",
      "type": "event"
    },
    {
      "inputs": [],
      "name": "ADMIN_ROLE",
      "outputs": [
        {
          "internalType": "bytes32",
          "name": "",
          "type": "bytes32"
        }
      ],
      "stateMutability": "view",
      "type": "function"
    },
    {
      "inputs": [],
      "name": "DEPOSITOR_ROLE",
      "outputs": [
        {
          "internalType": "bytes32",
          "name": "",
          "type": "bytes32"
        }
      ],
      "stateMutability": "view",
      "type": "function"
    },
    {
      "inputs": [],
      "name": "DOMAIN_SEPARATOR",
      "outputs": [
        {
          "internalType": "bytes32",
          "name": "domainSeparator",
          "type": "bytes32"
        }
      ],
      "stateMutability": "view",
      "type": "function"
    },
    {
      "inputs": [],
      "name": "SPENDER_ROLE",
      "outputs": [
        {
          "internalType": "bytes32",
          "name": "",
          "type": "bytes32"
        }
      ],
      "stateMutability": "view",
      "type": "function"
    },
    {
      "inputs": [
        {
          "internalType": "bytes32[]",
          "name": "reasonCodes",
          "type": "bytes32[]"
        }
      ],
      "name": "addConsumeReasonCodes",
      "outputs": [],
      "stateMutability": "nonpayable",
      "type": "function"
    },
    {
      "inputs": [
        {
          "internalType": "bytes32",
          "name": "",
          "type": "bytes32"
        }
      ],
      "name": "allowedConsumeReasonCodes",
      "outputs": [
        {
          "internalType": "bool",
          "name": "",
          "type": "bool"
        }
      ],
      "stateMutability": "view",
      "type": "function"
    },
    {
      "inputs": [
        {
          "internalType": "address",
          "name": "",
          "type": "address"
        }
      ],
      "name": "balances",
      "outputs": [
        {
          "internalType": "uint256",
          "name": "",
          "type": "uint256"
        }
      ],
      "stateMutability": "view",
      "type": "function"
    },
    {
      "inputs": [
        {
          "internalType": "address",
          "name": "holder",
          "type": "address"
        },
        {
          "internalType": "uint256",
          "name": "amount",
          "type": "uint256"
        },
        {
          "internalType": "bytes32",
          "name": "consumeReasonCode",
          "type": "bytes32"
        }
      ],
      "name": "consume",
      "outputs": [],
      "stateMutability": "nonpayable",
      "type": "function"
    },
    {
      "inputs": [
        {
          "internalType": "uint256",
          "name": "amount",
          "type": "uint256"
        },
        {
          "internalType": "bytes32",
          "name": "consumeReasonCode",
          "type": "bytes32"
        }
      ],
      "name": "consume",
      "outputs": [],
      "stateMutability": "nonpayable",
      "type": "function"
    },
    {
      "inputs": [
        {
          "internalType": "address",
          "name": "holder",
          "type": "address"
        },
        {
          "internalType": "uint256",
          "name": "amount",
          "type": "uint256"
        },
        {
          "internalType": "bytes32",
          "name": "consumeReasonCode",
          "type": "bytes32"
        },
        {
          "internalType": "uint256",
          "name": "deadline",
          "type": "uint256"
        },
        {
          "internalType": "uint8",
          "name": "v",
          "type": "uint8"
        },
        {
          "internalType": "bytes32",
          "name": "r",
          "type": "bytes32"
        },
        {
          "internalType": "bytes32",
          "name": "s",
          "type": "bytes32"
        }
      ],
      "name": "consume",
      "outputs": [],
      "stateMutability": "nonpayable",
      "type": "function"
    },
    {
      "inputs": [
        {
          "internalType": "address",
          "name": "holder",
          "type": "address"
        },
        {
          "internalType": "uint256",
          "name": "amount",
          "type": "uint256"
        },
        {
          "internalType": "bytes32",
          "name": "depositReasonCode",
          "type": "bytes32"
        }
      ],
      "name": "deposit",
      "outputs": [],
      "stateMutability": "nonpayable",
      "type": "function"
    },
    {
      "inputs": [],
      "name": "forwarderRegistry",
      "outputs": [
        {
          "internalType": "contract IForwarderRegistry",
          "name": "",
          "type": "address"
        }
      ],
      "stateMutability": "view",
      "type": "function"
    },
    {
      "inputs": [
        {
          "internalType": "bytes32",
          "name": "role",
          "type": "bytes32"
        },
        {
          "internalType": "address",
          "name": "account",
          "type": "address"
        }
      ],
      "name": "grantRole",
      "outputs": [],
      "stateMutability": "nonpayable",
      "type": "function"
    },
    {
      "inputs": [
        {
          "internalType": "bytes32",
          "name": "role",
          "type": "bytes32"
        },
        {
          "internalType": "address",
          "name": "account",
          "type": "address"
        }
      ],
      "name": "hasRole",
      "outputs": [
        {
          "internalType": "bool",
          "name": "hasRole_",
          "type": "bool"
        }
      ],
      "stateMutability": "view",
      "type": "function"
    },
    {
      "inputs": [
        {
          "internalType": "address",
          "name": "forwarder",
          "type": "address"
        }
      ],
      "name": "isTrustedForwarder",
      "outputs": [
        {
          "internalType": "bool",
          "name": "",
          "type": "bool"
        }
      ],
      "stateMutability": "view",
      "type": "function"
    },
    {
      "inputs": [
        {
          "internalType": "bytes32",
          "name": "",
          "type": "bytes32"
        }
      ],
      "name": "nonces",
      "outputs": [
        {
          "internalType": "uint256",
          "name": "",
          "type": "uint256"
        }
      ],
      "stateMutability": "view",
      "type": "function"
    },
    {
      "inputs": [],
      "name": "owner",
      "outputs": [
        {
          "internalType": "address",
          "name": "",
          "type": "address"
        }
      ],
      "stateMutability": "view",
      "type": "function"
    },
    {
      "inputs": [
        {
          "internalType": "bytes32[]",
          "name": "reasonCodes",
          "type": "bytes32[]"
        }
      ],
      "name": "removeConsumeReasonCodes",
      "outputs": [],
      "stateMutability": "nonpayable",
      "type": "function"
    },
    {
      "inputs": [
        {
          "internalType": "bytes32",
          "name": "role",
          "type": "bytes32"
        }
      ],
      "name": "renounceRole",
      "outputs": [],
      "stateMutability": "nonpayable",
      "type": "function"
    },
    {
      "inputs": [
        {
          "internalType": "bytes32",
          "name": "role",
          "type": "bytes32"
        },
        {
          "internalType": "address",
          "name": "account",
          "type": "address"
        }
      ],
      "name": "revokeRole",
      "outputs": [],
      "stateMutability": "nonpayable",
      "type": "function"
    },
    {
      "inputs": [
        {
          "internalType": "bytes4",
          "name": "interfaceId",
          "type": "bytes4"
        }
      ],
      "name": "supportsInterface",
      "outputs": [
        {
          "internalType": "bool",
          "name": "",
          "type": "bool"
        }
      ],
      "stateMutability": "view",
      "type": "function"
    },
    {
      "inputs": [
        {
          "internalType": "address",
          "name": "newOwner",
          "type": "address"
        }
      ],
      "name": "transferOwnership",
      "outputs": [],
      "stateMutability": "nonpayable",
      "type": "function"
    }
  ],
  "bytecode": "0x6101606040523480156200001257600080fd5b50604051620021323803806200213283398101604081905262000035916200038d565b60405180604001604052806006815260200165506f696e747360d01b815250604051806040016040528060038152602001620312e360ec1b8152508280620000826200017a60201b60201c565b6200009881620000916200018b565b90620001c1565b506001600160a01b03166080525081516020808401919091208251918301919091206101008290526101208190524660c0527f8b73c3c69bb8fe3d512ecc4cf759cc79239f7b179b0ffacaa9a75d522b39400f6200013b8184846040805160208101859052908101839052606081018290524660808201523060a082015260009060c0016040516020818303038152906040528051906020012090509392505050565b60a0523060e052610140525050506001600160a01b03821690506200017357604051633545ba1f60e21b815260040160405180910390fd5b5062000405565b6000620001866200023c565b905090565b600080620001bb60017fc9ed16f33ab3a66c84bfd83099ccb2a8845871e2e1c1928f63797152f0fd54cd620003bf565b92915050565b6001600160a01b03811615620002185781546001600160a01b0319166001600160a01b03821690811783556040516000907f8be0079c531659141344cd1fd0a4f28419497f9722a3daafe3b4186f6b6457e0908290a35b620002386307f5828d60e41b60016200023062000300565b919062000330565b5050565b6000333214806200024d5750601836105b156200025857503390565b60805136601319013560601c906001600160a01b0316331480620002ee5750608051604051634494d46560e11b81526001600160a01b03838116600483015233602483015290911690638929a8ca90604401602060405180830381865afa158015620002c8573d6000803e3d6000fd5b505050506040513d601f19601f82011682018060405250810190620002ee9190620003e1565b15620002f957919050565b3391505090565b600080620001bb60017fca9d3e17f264b0f3984e2634e94adb37fa3e6a8103f06aeae6fa59e21c769f5e620003bf565b600160e01b6001600160e01b03198316016200035f576040516372c683bb60e01b815260040160405180910390fd5b6001600160e01b03199190911660009081526020929092526040909120805460ff1916911515919091179055565b600060208284031215620003a057600080fd5b81516001600160a01b0381168114620003b857600080fd5b9392505050565b81810381811115620001bb57634e487b7160e01b600052601160045260246000fd5b600060208284031215620003f457600080fd5b81518015158114620003b857600080fd5b60805160a05160c05160e051610100516101205161014051611cbd620004756000396000611195015260006111e4015260006111bf01526000611118015260006111420152600061116c0152600081816102070152818161027701528181611584015261160c0152611cbd6000f3fe608060405234801561001057600080fd5b50600436106101825760003560e01c80638bb9c5bf116100d8578063d547741f1161008c578063f374913c11610066578063f374913c146103c3578063f65f02ec146103d6578063f9515962146103e957600080fd5b8063d547741f1461038a578063e283bfbf1461039d578063f2fde38b146103b057600080fd5b806391d14854116100bd57806391d14854146103305780639e317f1214610343578063a3b0b5a31461036357600080fd5b80638bb9c5bf146103155780638da5cb5b1461032857600080fd5b80632f2ff15d1161013a57806372c16a241161011457806372c16a24146102b45780637308a128146102db57806375b238fc146102ee57600080fd5b80632f2ff15d1461024c5780633644e5151461025f578063572b6c051461026757600080fd5b806326b3293f1161016b57806326b3293f146101c457806327e235e3146101d75780632b4c9f161461020557600080fd5b806301ffc9a714610187578063212aac79146101af575b600080fd5b61019a61019536600461196f565b61040c565b60405190151581526020015b60405180910390f35b6101c26101bd3660046119da565b610426565b005b6101c26101d23660046119da565b610478565b6101f76101e5366004611a0d565b60006020819052908152604090205481565b6040519081526020016101a6565b7f00000000000000000000000000000000000000000000000000000000000000005b60405173ffffffffffffffffffffffffffffffffffffffff90911681526020016101a6565b6101c261025a366004611a28565b610595565b6101f76105ce565b61019a610275366004611a0d565b7f000000000000000000000000000000000000000000000000000000000000000073ffffffffffffffffffffffffffffffffffffffff90811691161490565b6101f77f7434c6f201a551bfd17336985361933e0c4935b520dac8a49d937b325f7d5c0a81565b6101c26102e9366004611a54565b6105dd565b6101f77fa49807205ce4d355092ef5a8a18f56e8913cf4a201fbe287825b095693c2177581565b6101c2610323366004611ac9565b610791565b6102276107af565b61019a61033e366004611a28565b6107d6565b6101f7610351366004611ac9565b60016020526000908152604090205481565b6101f77f8f4f2da22e8ac8f11e15f9fc141cddbb5deea8800186560abb6e68c5496619a981565b6101c2610398366004611a28565b610821565b6101c26103ab366004611ae2565b61084f565b6101c26103be366004611a0d565b610867565b6101c26103d1366004611a54565b610882565b6101c26103e4366004611b04565b610a1b565b61019a6103f7366004611ac9565b60026020526000908152604090205460ff1681565b60006104208261041a610c88565b90610cb6565b92915050565b6000610430610d90565b90506104667f7434c6f201a551bfd17336985361933e0c4935b520dac8a49d937b325f7d5c0a8261045f610d9a565b9190610dc8565b61047281858585610e4e565b50505050565b6000610482610d90565b90506104b17f8f4f2da22e8ac8f11e15f9fc141cddbb5deea8800186560abb6e68c5496619a98261045f610d9a565b826000036104eb576040517f8b07335400000000000000000000000000000000000000000000000000000000815260040160405180910390fd5b73ffffffffffffffffffffffffffffffffffffffff841660009081526020819052604081208054859290610520908490611b9f565b925050819055508373ffffffffffffffffffffffffffffffffffffffff16828273ffffffffffffffffffffffffffffffffffffffff167f81226022599698f02239ac5895ce7a96962ba5fe72f8f7610d1cc2cb0405f3918660405161058791815260200190565b60405180910390a450505050565b600061059f610d90565b90506105b3816105ad610f8b565b90610fb9565b6105c98383836105c1610d9a565b929190611028565b505050565b60006105d86110fe565b905090565b6106117fa49807205ce4d355092ef5a8a18f56e8913cf4a201fbe287825b095693c21775610609610d90565b61045f610d9a565b600081900361064c576040517f3fb4608600000000000000000000000000000000000000000000000000000000815260040160405180910390fd5b60005b8181101561074c576002600084848481811061066d5761066d611bb2565b602090810292909201358352508101919091526040016000205460ff16156106e6578282828181106106a1576106a1611bb2565b905060200201356040517fb64212420000000000000000000000000000000000000000000000000000000081526004016106dd91815260200190565b60405180910390fd5b6001600260008585858181106106fe576106fe611bb2565b6020908102929092013583525081019190915260400160002080547fffffffffffffffffffffffffffffffffffffffffffffffffffffffffffffff001691151591909117905560010161064f565b50818160405161075d929190611be1565b604051908190038120907fab25d781d5ddfd48b7ce16c5048ddf0ee9caece5921f772cfacfd1085b6f5f1b90600090a25050565b6107ac61079c610d90565b826107a5610d9a565b9190611232565b50565b60006105d86107bc610f8b565b5473ffffffffffffffffffffffffffffffffffffffff1690565b600061081a83836107e5610d9a565b60009283526020908152604080842073ffffffffffffffffffffffffffffffffffffffff909316845291905290205460ff1690565b9392505050565b600061082b610d90565b9050610839816105ad610f8b565b6105c9838383610847610d9a565b9291906112d6565b6000610859610d90565b90506105c981828585610e4e565b6107ac610872610d90565b8261087b610f8b565b91906113a0565b6108ae7fa49807205ce4d355092ef5a8a18f56e8913cf4a201fbe287825b095693c21775610609610d90565b60008190036108e9576040517f3fb4608600000000000000000000000000000000000000000000000000000000815260040160405180910390fd5b60005b818110156109d6576002600084848481811061090a5761090a611bb2565b602090810292909201358352508101919091526040016000205460ff166109795782828281811061093d5761093d611bb2565b905060200201356040517fa89513e10000000000000000000000000000000000000000000000000000000081526004016106dd91815260200190565b6002600084848481811061098f5761098f611bb2565b6020908102929092013583525081019190915260400160002080547fffffffffffffffffffffffffffffffffffffffffffffffffffffffffffffff001690556001016108ec565b5081816040516109e7929190611be1565b604051908190038120907f507a827ea9c046f50d345ab3118c004750ae36a4dd38998391315aee8be45b9590600090a25050565b83421115610a55576040517fdf4cc36d00000000000000000000000000000000000000000000000000000000815260040160405180910390fd5b6000610a5f610d90565b6040517fffffffffffffffffffffffffffffffffffffffff00000000000000000000000060608b811b8216602084015283901b166034820152909150600090604801604080518083037fffffffffffffffffffffffffffffffffffffffffffffffffffffffffffffffe00181528282528051602091820120600081815260018352838120549285018990529284018790527fff0000000000000000000000000000000000000000000000000000000000000060f88a901b166060850152935091606101604080517fffffffffffffffffffffffffffffffffffffffffffffffffffffffffffffffe08184030181528282527fa722027359a4245f54723b40c893d0e406c2a361b220451e03f9bd03c41883df602084015273ffffffffffffffffffffffffffffffffffffffff808f16928401929092529086166060830152608082018c905260a082018b905260c082018a905260e082018490529150600090610be19061010001604051602081830303815290604052805190602001206114b4565b905073ffffffffffffffffffffffffffffffffffffffff8c16610c04828461151d565b73ffffffffffffffffffffffffffffffffffffffff1614610c51576040517f8baa579f00000000000000000000000000000000000000000000000000000000815260040160405180910390fd5b610c5d858d8d8d610e4e565b610c68836001611b9f565b600094855260016020526040909420939093555050505050505050505050565b60008061042060017fca9d3e17f264b0f3984e2634e94adb37fa3e6a8103f06aeae6fa59e21c769f5e611c23565b60007c01000000000000000000000000000000000000000000000000000000007fffffffff00000000000000000000000000000000000000000000000000000000831601610d0657506000610420565b7ffe003659000000000000000000000000000000000000000000000000000000007fffffffff00000000000000000000000000000000000000000000000000000000831601610d5757506001610420565b507fffffffff00000000000000000000000000000000000000000000000000000000166000908152602091909152604090205460ff1690565b60006105d8611541565b60008061042060017fc8827d3282af6f37b64c3e9e6f3ac9df286ab0bb0fccd6f8661bf19adb368b23611c23565b60008281526020848152604080832073ffffffffffffffffffffffffffffffffffffffff8516845290915290205460ff166105c9576040517f7aa728820000000000000000000000000000000000000000000000000000000081526004810183905273ffffffffffffffffffffffffffffffffffffffff821660248201526044016106dd565b73ffffffffffffffffffffffffffffffffffffffff831660009081526020819052604090205482811015610ecd576040517ff6deaa0400000000000000000000000000000000000000000000000000000000815273ffffffffffffffffffffffffffffffffffffffff85166004820152602481018490526044016106dd565b60008281526002602052604090205460ff16610f18576040517fa89513e1000000000000000000000000000000000000000000000000000000008152600481018390526024016106dd565b610f228382611c23565b73ffffffffffffffffffffffffffffffffffffffff858116600081815260208181526040918290209490945551868152909285928916917f483f7fdbc58a2920f2e502b1bbbb896329d7c8ddca129d0875d589e895186857910160405180910390a45050505050565b60008061042060017fc9ed16f33ab3a66c84bfd83099ccb2a8845871e2e1c1928f63797152f0fd54cd611c23565b815473ffffffffffffffffffffffffffffffffffffffff828116911614611024576040517f2ef4875e00000000000000000000000000000000000000000000000000000000815273ffffffffffffffffffffffffffffffffffffffff821660048201526024016106dd565b5050565b60008381526020858152604080832073ffffffffffffffffffffffffffffffffffffffff8616845290915290205460ff166104725760008381526020858152604080832073ffffffffffffffffffffffffffffffffffffffff8681168086529184529382902080547fffffffffffffffffffffffffffffffffffffffffffffffffffffffffffffff00166001179055815187815292830152918316918101919091527f2f8788117e7eff1d82e926ec794901d17c78024a50270940304540a733656f0d906060015b60405180910390a150505050565b60003073ffffffffffffffffffffffffffffffffffffffff7f00000000000000000000000000000000000000000000000000000000000000001614801561116457507f000000000000000000000000000000000000000000000000000000000000000046145b1561118e57507f000000000000000000000000000000000000000000000000000000000000000090565b50604080517f00000000000000000000000000000000000000000000000000000000000000006020808301919091527f0000000000000000000000000000000000000000000000000000000000000000828401527f000000000000000000000000000000000000000000000000000000000000000060608301524660808301523060a0808401919091528351808403909101815260c0909201909252805191012090565b61123d838284610dc8565b60008181526020848152604080832073ffffffffffffffffffffffffffffffffffffffff86168085529083529281902080547fffffffffffffffffffffffffffffffffffffffffffffffffffffffffffffff0016905580518481529182018390528101919091527ff6391f5c32d9c69d2a47ea670b442974b53935d1edc7fd64eb21e047a839171b9060600160405180910390a1505050565b60008381526020858152604080832073ffffffffffffffffffffffffffffffffffffffff8616845290915290205460ff16156104725760008381526020858152604080832073ffffffffffffffffffffffffffffffffffffffff8681168086529184529382902080547fffffffffffffffffffffffffffffffffffffffffffffffffffffffffffffff00169055815187815292830152918316918101919091527ff6391f5c32d9c69d2a47ea670b442974b53935d1edc7fd64eb21e047a839171b906060016110f0565b825473ffffffffffffffffffffffffffffffffffffffff908116908316811461140d576040517f2ef4875e00000000000000000000000000000000000000000000000000000000815273ffffffffffffffffffffffffffffffffffffffff841660048201526024016106dd565b8173ffffffffffffffffffffffffffffffffffffffff168173ffffffffffffffffffffffffffffffffffffffff16146104725783547fffffffffffffffffffffffff00000000000000000000000000000000000000001673ffffffffffffffffffffffffffffffffffffffff8381169182178655604051908316907f8be0079c531659141344cd1fd0a4f28419497f9722a3daafe3b4186f6b6457e090600090a350505050565b60006104206114c16110fe565b836040517f19010000000000000000000000000000000000000000000000000000000000006020820152602281018390526042810182905260009060620160405160208183030381529060405280519060200120905092915050565b600080600061152c8585611688565b91509150611539816116cd565b509392505050565b6000333214806115515750601836105b1561155b57503390565b7fffffffffffffffffffffffffffffffffffffffffffffffffffffffffffffffec36013560601c7f000000000000000000000000000000000000000000000000000000000000000073ffffffffffffffffffffffffffffffffffffffff1633148061167757506040517f8929a8ca00000000000000000000000000000000000000000000000000000000815273ffffffffffffffffffffffffffffffffffffffff82811660048301523360248301527f00000000000000000000000000000000000000000000000000000000000000001690638929a8ca90604401602060405180830381865afa158015611653573d6000803e3d6000fd5b505050506040513d601f19601f820116820180604052508101906116779190611c36565b1561168157919050565b3391505090565b60008082516041036116be5760208301516040840151606085015160001a6116b287828585611880565b945094505050506116c6565b506000905060025b9250929050565b60008160048111156116e1576116e1611c58565b036116e95750565b60018160048111156116fd576116fd611c58565b03611764576040517f08c379a000000000000000000000000000000000000000000000000000000000815260206004820152601860248201527f45434453413a20696e76616c6964207369676e6174757265000000000000000060448201526064016106dd565b600281600481111561177857611778611c58565b036117df576040517f08c379a000000000000000000000000000000000000000000000000000000000815260206004820152601f60248201527f45434453413a20696e76616c6964207369676e6174757265206c656e6774680060448201526064016106dd565b60038160048111156117f3576117f3611c58565b036107ac576040517f08c379a000000000000000000000000000000000000000000000000000000000815260206004820152602260248201527f45434453413a20696e76616c6964207369676e6174757265202773272076616c60448201527f756500000000000000000000000000000000000000000000000000000000000060648201526084016106dd565b6000807f7fffffffffffffffffffffffffffffff5d576e7357a4501ddfe92f46681b20a08311156118b75750600090506003611966565b6040805160008082526020820180845289905260ff881692820192909252606081018690526080810185905260019060a0016020604051602081039080840390855afa15801561190b573d6000803e3d6000fd5b50506040517fffffffffffffffffffffffffffffffffffffffffffffffffffffffffffffffe0015191505073ffffffffffffffffffffffffffffffffffffffff811661195f57600060019250925050611966565b9150600090505b94509492505050565b60006020828403121561198157600080fd5b81357fffffffff000000000000000000000000000000000000000000000000000000008116811461081a57600080fd5b803573ffffffffffffffffffffffffffffffffffffffff811681146119d557600080fd5b919050565b6000806000606084860312156119ef57600080fd5b6119f8846119b1565b95602085013595506040909401359392505050565b600060208284031215611a1f57600080fd5b61081a826119b1565b60008060408385031215611a3b57600080fd5b82359150611a4b602084016119b1565b90509250929050565b60008060208385031215611a6757600080fd5b823567ffffffffffffffff80821115611a7f57600080fd5b818501915085601f830112611a9357600080fd5b813581811115611aa257600080fd5b8660208260051b8501011115611ab757600080fd5b60209290920196919550909350505050565b600060208284031215611adb57600080fd5b5035919050565b60008060408385031215611af557600080fd5b50508035926020909101359150565b600080600080600080600060e0888a031215611b1f57600080fd5b611b28886119b1565b9650602088013595506040880135945060608801359350608088013560ff81168114611b5357600080fd5b9699959850939692959460a0840135945060c09093013592915050565b7f4e487b7100000000000000000000000000000000000000000000000000000000600052601160045260246000fd5b8082018082111561042057610420611b70565b7f4e487b7100000000000000000000000000000000000000000000000000000000600052603260045260246000fd5b60007f07ffffffffffffffffffffffffffffffffffffffffffffffffffffffffffffff831115611c1057600080fd5b8260051b80858437919091019392505050565b8181038181111561042057610420611b70565b600060208284031215611c4857600080fd5b8151801515811461081a57600080fd5b7f4e487b7100000000000000000000000000000000000000000000000000000000600052602160045260246000fdfea26469706673582212208919d9f62ee2263aa70025fd7837bee7f73a70f64e39850b3ae84c0081c4ac3364736f6c63430008160033",
  "linkReferences": {},
  "deployedLinkReferences": {}
}