{
  "_format": "hh-sol-artifact-1",
  "contractName": "Points",
  "sourceName": "contracts/points/Points.sol",
  "abi": [
    {
      "inputs": [
        {
          "internalType": "contract IForwarderRegistry",
          "name": "forwarderRegistry_",
          "type": "address"
        }
      ],
      "stateMutability": "nonpayable",
      "type": "constructor"
    },
    {
      "inputs": [
        {
          "internalType": "bytes32",
          "name": "reasonCode",
          "type": "bytes32"
        }
      ],
      "name": "ConsumeReasonCodeAlreadyExists",
      "type": "error"
    },
    {
      "inputs": [
        {
          "internalType": "bytes32",
          "name": "reasonCode",
          "type": "bytes32"
        }
      ],
      "name": "ConsumeReasonCodeDoesNotExist",
      "type": "error"
    },
    {
      "inputs": [],
      "name": "ConsumeReasonCodesArrayEmpty",
      "type": "error"
    },
    {
      "inputs": [],
      "name": "DepositZeroAmount",
      "type": "error"
    },
    {
      "inputs": [],
      "name": "ExpiredSignature",
      "type": "error"
    },
    {
      "inputs": [],
      "name": "IllegalInterfaceId",
      "type": "error"
    },
    {
      "inputs": [
        {
          "internalType": "address",
          "name": "holder",
          "type": "address"
        },
        {
          "internalType": "uint256",
          "name": "requiredBalance",
          "type": "uint256"
        }
      ],
      "name": "InsufficientBalance",
      "type": "error"
    },
    {
      "inputs": [],
      "name": "InvalidForwarderRegistry",
      "type": "error"
    },
    {
      "inputs": [],
      "name": "InvalidSignature",
      "type": "error"
    },
    {
      "inputs": [
        {
          "internalType": "address",
          "name": "account",
          "type": "address"
        }
      ],
      "name": "NotContractOwner",
      "type": "error"
    },
    {
      "inputs": [
        {
          "internalType": "bytes32",
          "name": "role",
          "type": "bytes32"
        },
        {
          "internalType": "address",
          "name": "account",
          "type": "address"
        }
      ],
      "name": "NotRoleHolder",
      "type": "error"
    },
    {
      "anonymous": false,
      "inputs": [
        {
          "indexed": true,
          "internalType": "bytes32[]",
          "name": "reasonCodes",
          "type": "bytes32[]"
        }
      ],
      "name": "ConsumeReasonCodesAdded",
      "type": "event"
    },
    {
      "anonymous": false,
      "inputs": [
        {
          "indexed": true,
          "internalType": "bytes32[]",
          "name": "reasonCodes",
          "type": "bytes32[]"
        }
      ],
      "name": "ConsumeReasonCodesRemoved",
      "type": "event"
    },
    {
      "anonymous": false,
      "inputs": [
        {
          "indexed": true,
          "internalType": "address",
          "name": "operator",
          "type": "address"
        },
        {
          "indexed": true,
          "internalType": "bytes32",
          "name": "reasonCode",
          "type": "bytes32"
        },
        {
          "indexed": true,
          "internalType": "address",
          "name": "holder",
          "type": "address"
        },
        {
          "indexed": false,
          "internalType": "uint256",
          "name": "amount",
          "type": "uint256"
        }
      ],
      "name": "Consumed",
      "type": "event"
    },
    {
      "anonymous": false,
      "inputs": [
        {
          "indexed": true,
          "internalType": "address",
          "name": "sender",
          "type": "address"
        },
        {
          "indexed": true,
          "internalType": "bytes32",
          "name": "reasonCode",
          "type": "bytes32"
        },
        {
          "indexed": true,
          "internalType": "address",
          "name": "holder",
          "type": "address"
        },
        {
          "indexed": false,
          "internalType": "uint256",
          "name": "amount",
          "type": "uint256"
        }
      ],
      "name": "Deposited",
      "type": "event"
    },
    {
      "anonymous": false,
      "inputs": [
        {
          "indexed": true,
          "internalType": "address",
          "name": "previousOwner",
          "type": "address"
        },
        {
          "indexed": true,
          "internalType": "address",
          "name": "newOwner",
          "type": "address"
        }
      ],
      "name": "OwnershipTransferred",
      "type": "event"
    },
    {
      "anonymous": false,
      "inputs": [
        {
          "indexed": false,
          "internalType": "bytes32",
          "name": "role",
          "type": "bytes32"
        },
        {
          "indexed": false,
          "internalType": "address",
          "name": "account",
          "type": "address"
        },
        {
          "indexed": false,
          "internalType": "address",
          "name": "operator",
          "type": "address"
        }
      ],
      "name": "RoleGranted",
      "type": "event"
    },
    {
      "anonymous": false,
      "inputs": [
        {
          "indexed": false,
          "internalType": "bytes32",
          "name": "role",
          "type": "bytes32"
        },
        {
          "indexed": false,
          "internalType": "address",
          "name": "account",
          "type": "address"
        },
        {
          "indexed": false,
          "internalType": "address",
          "name": "operator",
          "type": "address"
        }
      ],
      "name": "RoleRevoked",
      "type": "event"
    },
    {
      "inputs": [],
      "name": "ADMIN_ROLE",
      "outputs": [
        {
          "internalType": "bytes32",
          "name": "",
          "type": "bytes32"
        }
      ],
      "stateMutability": "view",
      "type": "function"
    },
    {
      "inputs": [],
      "name": "DEPOSITOR_ROLE",
      "outputs": [
        {
          "internalType": "bytes32",
          "name": "",
          "type": "bytes32"
        }
      ],
      "stateMutability": "view",
      "type": "function"
    },
    {
      "inputs": [],
      "name": "SPENDER_ROLE",
      "outputs": [
        {
          "internalType": "bytes32",
          "name": "",
          "type": "bytes32"
        }
      ],
      "stateMutability": "view",
      "type": "function"
    },
    {
      "inputs": [
        {
          "internalType": "bytes32[]",
          "name": "reasonCodes",
          "type": "bytes32[]"
        }
      ],
      "name": "addConsumeReasonCodes",
      "outputs": [],
      "stateMutability": "nonpayable",
      "type": "function"
    },
    {
      "inputs": [
        {
          "internalType": "bytes32",
          "name": "",
          "type": "bytes32"
        }
      ],
      "name": "allowedConsumeReasonCodes",
      "outputs": [
        {
          "internalType": "bool",
          "name": "",
          "type": "bool"
        }
      ],
      "stateMutability": "view",
      "type": "function"
    },
    {
      "inputs": [
        {
          "internalType": "address",
          "name": "",
          "type": "address"
        }
      ],
      "name": "balances",
      "outputs": [
        {
          "internalType": "uint256",
          "name": "",
          "type": "uint256"
        }
      ],
      "stateMutability": "view",
      "type": "function"
    },
    {
      "inputs": [
        {
          "internalType": "address",
          "name": "holder",
          "type": "address"
        },
        {
          "internalType": "uint256",
          "name": "amount",
          "type": "uint256"
        },
        {
          "internalType": "bytes32",
          "name": "consumeReasonCode",
          "type": "bytes32"
        }
      ],
      "name": "consume",
      "outputs": [],
      "stateMutability": "nonpayable",
      "type": "function"
    },
    {
      "inputs": [
        {
          "internalType": "uint256",
          "name": "amount",
          "type": "uint256"
        },
        {
          "internalType": "bytes32",
          "name": "consumeReasonCode",
          "type": "bytes32"
        }
      ],
      "name": "consume",
      "outputs": [],
      "stateMutability": "nonpayable",
      "type": "function"
    },
    {
      "inputs": [
        {
          "internalType": "address",
          "name": "holder",
          "type": "address"
        },
        {
          "internalType": "uint256",
          "name": "amount",
          "type": "uint256"
        },
        {
          "internalType": "bytes32",
          "name": "consumeReasonCode",
          "type": "bytes32"
        },
        {
          "internalType": "uint256",
          "name": "deadline",
          "type": "uint256"
        },
        {
          "internalType": "uint8",
          "name": "v",
          "type": "uint8"
        },
        {
          "internalType": "bytes32",
          "name": "r",
          "type": "bytes32"
        },
        {
          "internalType": "bytes32",
          "name": "s",
          "type": "bytes32"
        }
      ],
      "name": "consume",
      "outputs": [],
      "stateMutability": "nonpayable",
      "type": "function"
    },
    {
      "inputs": [
        {
          "internalType": "address",
          "name": "holder",
          "type": "address"
        },
        {
          "internalType": "uint256",
          "name": "amount",
          "type": "uint256"
        },
        {
          "internalType": "bytes32",
          "name": "depositReasonCode",
          "type": "bytes32"
        }
      ],
      "name": "deposit",
      "outputs": [],
      "stateMutability": "nonpayable",
      "type": "function"
    },
    {
      "inputs": [],
      "name": "forwarderRegistry",
      "outputs": [
        {
          "internalType": "contract IForwarderRegistry",
          "name": "",
          "type": "address"
        }
      ],
      "stateMutability": "view",
      "type": "function"
    },
    {
      "inputs": [
        {
          "internalType": "bytes32",
          "name": "role",
          "type": "bytes32"
        },
        {
          "internalType": "address",
          "name": "account",
          "type": "address"
        }
      ],
      "name": "grantRole",
      "outputs": [],
      "stateMutability": "nonpayable",
      "type": "function"
    },
    {
      "inputs": [
        {
          "internalType": "bytes32",
          "name": "role",
          "type": "bytes32"
        },
        {
          "internalType": "address",
          "name": "account",
          "type": "address"
        }
      ],
      "name": "hasRole",
      "outputs": [
        {
          "internalType": "bool",
          "name": "hasRole_",
          "type": "bool"
        }
      ],
      "stateMutability": "view",
      "type": "function"
    },
    {
      "inputs": [
        {
          "internalType": "address",
          "name": "forwarder",
          "type": "address"
        }
      ],
      "name": "isTrustedForwarder",
      "outputs": [
        {
          "internalType": "bool",
          "name": "",
          "type": "bool"
        }
      ],
      "stateMutability": "view",
      "type": "function"
    },
    {
      "inputs": [
        {
          "internalType": "bytes32",
          "name": "",
          "type": "bytes32"
        }
      ],
      "name": "nonces",
      "outputs": [
        {
          "internalType": "uint256",
          "name": "",
          "type": "uint256"
        }
      ],
      "stateMutability": "view",
      "type": "function"
    },
    {
      "inputs": [],
      "name": "owner",
      "outputs": [
        {
          "internalType": "address",
          "name": "",
          "type": "address"
        }
      ],
      "stateMutability": "view",
      "type": "function"
    },
    {
      "inputs": [
        {
          "internalType": "bytes32[]",
          "name": "reasonCodes",
          "type": "bytes32[]"
        }
      ],
      "name": "removeConsumeReasonCodes",
      "outputs": [],
      "stateMutability": "nonpayable",
      "type": "function"
    },
    {
      "inputs": [
        {
          "internalType": "bytes32",
          "name": "role",
          "type": "bytes32"
        }
      ],
      "name": "renounceRole",
      "outputs": [],
      "stateMutability": "nonpayable",
      "type": "function"
    },
    {
      "inputs": [
        {
          "internalType": "bytes32",
          "name": "role",
          "type": "bytes32"
        },
        {
          "internalType": "address",
          "name": "account",
          "type": "address"
        }
      ],
      "name": "revokeRole",
      "outputs": [],
      "stateMutability": "nonpayable",
      "type": "function"
    },
    {
      "inputs": [
        {
          "internalType": "bytes4",
          "name": "interfaceId",
          "type": "bytes4"
        }
      ],
      "name": "supportsInterface",
      "outputs": [
        {
          "internalType": "bool",
          "name": "",
          "type": "bool"
        }
      ],
      "stateMutability": "view",
      "type": "function"
    },
    {
      "inputs": [
        {
          "internalType": "address",
          "name": "newOwner",
          "type": "address"
        }
      ],
      "name": "transferOwnership",
      "outputs": [],
      "stateMutability": "nonpayable",
      "type": "function"
    }
  ],
  "bytecode": "0x6101606040523480156200001257600080fd5b50604051620021153803806200211583398101604081905262000035916200038d565b60405180604001604052806006815260200165506f696e747360d01b815250604051806040016040528060038152602001620312e360ec1b8152508280620000826200017a60201b60201c565b6200009881620000916200018b565b90620001c1565b506001600160a01b03166080525081516020808401919091208251918301919091206101008290526101208190524660c0527f8b73c3c69bb8fe3d512ecc4cf759cc79239f7b179b0ffacaa9a75d522b39400f6200013b8184846040805160208101859052908101839052606081018290524660808201523060a082015260009060c0016040516020818303038152906040528051906020012090509392505050565b60a0523060e052610140525050506001600160a01b03821690506200017357604051633545ba1f60e21b815260040160405180910390fd5b5062000405565b6000620001866200023c565b905090565b600080620001bb60017fc9ed16f33ab3a66c84bfd83099ccb2a8845871e2e1c1928f63797152f0fd54cd620003bf565b92915050565b6001600160a01b03811615620002185781546001600160a01b0319166001600160a01b03821690811783556040516000907f8be0079c531659141344cd1fd0a4f28419497f9722a3daafe3b4186f6b6457e0908290a35b620002386307f5828d60e41b60016200023062000300565b919062000330565b5050565b6000333214806200024d5750601836105b156200025857503390565b60805136601319013560601c906001600160a01b0316331480620002ee5750608051604051634494d46560e11b81526001600160a01b03838116600483015233602483015290911690638929a8ca90604401602060405180830381865afa158015620002c8573d6000803e3d6000fd5b505050506040513d601f19601f82011682018060405250810190620002ee9190620003e1565b15620002f957919050565b3391505090565b600080620001bb60017fca9d3e17f264b0f3984e2634e94adb37fa3e6a8103f06aeae6fa59e21c769f5e620003bf565b600160e01b6001600160e01b03198316016200035f576040516372c683bb60e01b815260040160405180910390fd5b6001600160e01b03199190911660009081526020929092526040909120805460ff1916911515919091179055565b600060208284031215620003a057600080fd5b81516001600160a01b0381168114620003b857600080fd5b9392505050565b81810381811115620001bb57634e487b7160e01b600052601160045260246000fd5b600060208284031215620003f457600080fd5b81518015158114620003b857600080fd5b60805160a05160c05160e051610100516101205161014051611ca06200047560003960006115ce0152600061161d015260006115f8015260006115510152600061157b015260006115a50152600081816101fc015281816102640152818161143301526114bb0152611ca06000f3fe608060405234801561001057600080fd5b50600436106101775760003560e01c80638bb9c5bf116100d8578063d547741f1161008c578063f374913c11610066578063f374913c146103b0578063f65f02ec146103c3578063f9515962146103d657600080fd5b8063d547741f14610377578063e283bfbf1461038a578063f2fde38b1461039d57600080fd5b806391d14854116100bd57806391d148541461031d5780639e317f1214610330578063a3b0b5a31461035057600080fd5b80638bb9c5bf146103025780638da5cb5b1461031557600080fd5b80632f2ff15d1161012f57806372c16a241161011457806372c16a24146102a15780637308a128146102c857806375b238fc146102db57600080fd5b80632f2ff15d14610241578063572b6c051461025457600080fd5b806326b3293f1161016057806326b3293f146101b957806327e235e3146101cc5780632b4c9f16146101fa57600080fd5b806301ffc9a71461017c578063212aac79146101a4575b600080fd5b61018f61018a366004611952565b6103f9565b60405190151581526020015b60405180910390f35b6101b76101b23660046119bd565b610413565b005b6101b76101c73660046119bd565b610465565b6101ec6101da3660046119f0565b60006020819052908152604090205481565b60405190815260200161019b565b7f00000000000000000000000000000000000000000000000000000000000000005b60405173ffffffffffffffffffffffffffffffffffffffff909116815260200161019b565b6101b761024f366004611a0b565b610582565b61018f6102623660046119f0565b7f000000000000000000000000000000000000000000000000000000000000000073ffffffffffffffffffffffffffffffffffffffff90811691161490565b6101ec7f7434c6f201a551bfd17336985361933e0c4935b520dac8a49d937b325f7d5c0a81565b6101b76102d6366004611a37565b6105bb565b6101ec7fa49807205ce4d355092ef5a8a18f56e8913cf4a201fbe287825b095693c2177581565b6101b7610310366004611aac565b61076f565b61021c61078d565b61018f61032b366004611a0b565b6107b9565b6101ec61033e366004611aac565b60016020526000908152604090205481565b6101ec7f8f4f2da22e8ac8f11e15f9fc141cddbb5deea8800186560abb6e68c5496619a981565b6101b7610385366004611a0b565b610804565b6101b7610398366004611ac5565b610832565b6101b76103ab3660046119f0565b61084a565b6101b76103be366004611a37565b610865565b6101b76103d1366004611ae7565b6109fe565b61018f6103e4366004611aac565b60026020526000908152604090205460ff1681565b600061040d82610407610c6b565b90610c99565b92915050565b600061041d610d73565b90506104537f7434c6f201a551bfd17336985361933e0c4935b520dac8a49d937b325f7d5c0a8261044c610d7d565b9190610dab565b61045f81858585610e31565b50505050565b600061046f610d73565b905061049e7f8f4f2da22e8ac8f11e15f9fc141cddbb5deea8800186560abb6e68c5496619a98261044c610d7d565b826000036104d8576040517f8b07335400000000000000000000000000000000000000000000000000000000815260040160405180910390fd5b73ffffffffffffffffffffffffffffffffffffffff84166000908152602081905260408120805485929061050d908490611b82565b925050819055508373ffffffffffffffffffffffffffffffffffffffff16828273ffffffffffffffffffffffffffffffffffffffff167f81226022599698f02239ac5895ce7a96962ba5fe72f8f7610d1cc2cb0405f3918660405161057491815260200190565b60405180910390a450505050565b600061058c610d73565b90506105a08161059a610f6e565b90610f9c565b6105b68383836105ae610d7d565b92919061100b565b505050565b6105ef7fa49807205ce4d355092ef5a8a18f56e8913cf4a201fbe287825b095693c217756105e7610d73565b61044c610d7d565b600081900361062a576040517f3fb4608600000000000000000000000000000000000000000000000000000000815260040160405180910390fd5b60005b8181101561072a576002600084848481811061064b5761064b611b95565b602090810292909201358352508101919091526040016000205460ff16156106c45782828281811061067f5761067f611b95565b905060200201356040517fb64212420000000000000000000000000000000000000000000000000000000081526004016106bb91815260200190565b60405180910390fd5b6001600260008585858181106106dc576106dc611b95565b6020908102929092013583525081019190915260400160002080547fffffffffffffffffffffffffffffffffffffffffffffffffffffffffffffff001691151591909117905560010161062d565b50818160405161073b929190611bc4565b604051908190038120907fab25d781d5ddfd48b7ce16c5048ddf0ee9caece5921f772cfacfd1085b6f5f1b90600090a25050565b61078a61077a610d73565b82610783610d7d565b91906110e1565b50565b60006107b461079a610f6e565b5473ffffffffffffffffffffffffffffffffffffffff1690565b905090565b60006107fd83836107c8610d7d565b60009283526020908152604080842073ffffffffffffffffffffffffffffffffffffffff909316845291905290205460ff1690565b9392505050565b600061080e610d73565b905061081c8161059a610f6e565b6105b683838361082a610d7d565b929190611185565b600061083c610d73565b90506105b681828585610e31565b61078a610855610d73565b8261085e610f6e565b919061124f565b6108917fa49807205ce4d355092ef5a8a18f56e8913cf4a201fbe287825b095693c217756105e7610d73565b60008190036108cc576040517f3fb4608600000000000000000000000000000000000000000000000000000000815260040160405180910390fd5b60005b818110156109b957600260008484848181106108ed576108ed611b95565b602090810292909201358352508101919091526040016000205460ff1661095c5782828281811061092057610920611b95565b905060200201356040517fa89513e10000000000000000000000000000000000000000000000000000000081526004016106bb91815260200190565b6002600084848481811061097257610972611b95565b6020908102929092013583525081019190915260400160002080547fffffffffffffffffffffffffffffffffffffffffffffffffffffffffffffff001690556001016108cf565b5081816040516109ca929190611bc4565b604051908190038120907f507a827ea9c046f50d345ab3118c004750ae36a4dd38998391315aee8be45b9590600090a25050565b83421115610a38576040517fdf4cc36d00000000000000000000000000000000000000000000000000000000815260040160405180910390fd5b6000610a42610d73565b6040517fffffffffffffffffffffffffffffffffffffffff00000000000000000000000060608b811b8216602084015283901b166034820152909150600090604801604080518083037fffffffffffffffffffffffffffffffffffffffffffffffffffffffffffffffe00181528282528051602091820120600081815260018352838120549285018990529284018790527fff0000000000000000000000000000000000000000000000000000000000000060f88a901b166060850152935091606101604080517fffffffffffffffffffffffffffffffffffffffffffffffffffffffffffffffe08184030181528282527fa722027359a4245f54723b40c893d0e406c2a361b220451e03f9bd03c41883df602084015273ffffffffffffffffffffffffffffffffffffffff808f16928401929092529086166060830152608082018c905260a082018b905260c082018a905260e082018490529150600090610bc4906101000160405160208183030381529060405280519060200120611363565b905073ffffffffffffffffffffffffffffffffffffffff8c16610be782846113cc565b73ffffffffffffffffffffffffffffffffffffffff1614610c34576040517f8baa579f00000000000000000000000000000000000000000000000000000000815260040160405180910390fd5b610c40858d8d8d610e31565b610c4b836001611b82565b600094855260016020526040909420939093555050505050505050505050565b60008061040d60017fca9d3e17f264b0f3984e2634e94adb37fa3e6a8103f06aeae6fa59e21c769f5e611c06565b60007c01000000000000000000000000000000000000000000000000000000007fffffffff00000000000000000000000000000000000000000000000000000000831601610ce95750600061040d565b7ffe003659000000000000000000000000000000000000000000000000000000007fffffffff00000000000000000000000000000000000000000000000000000000831601610d3a5750600161040d565b507fffffffff00000000000000000000000000000000000000000000000000000000166000908152602091909152604090205460ff1690565b60006107b46113f0565b60008061040d60017fc8827d3282af6f37b64c3e9e6f3ac9df286ab0bb0fccd6f8661bf19adb368b23611c06565b60008281526020848152604080832073ffffffffffffffffffffffffffffffffffffffff8516845290915290205460ff166105b6576040517f7aa728820000000000000000000000000000000000000000000000000000000081526004810183905273ffffffffffffffffffffffffffffffffffffffff821660248201526044016106bb565b73ffffffffffffffffffffffffffffffffffffffff831660009081526020819052604090205482811015610eb0576040517ff6deaa0400000000000000000000000000000000000000000000000000000000815273ffffffffffffffffffffffffffffffffffffffff85166004820152602481018490526044016106bb565b60008281526002602052604090205460ff16610efb576040517fa89513e1000000000000000000000000000000000000000000000000000000008152600481018390526024016106bb565b610f058382611c06565b73ffffffffffffffffffffffffffffffffffffffff858116600081815260208181526040918290209490945551868152909285928916917f483f7fdbc58a2920f2e502b1bbbb896329d7c8ddca129d0875d589e895186857910160405180910390a45050505050565b60008061040d60017fc9ed16f33ab3a66c84bfd83099ccb2a8845871e2e1c1928f63797152f0fd54cd611c06565b815473ffffffffffffffffffffffffffffffffffffffff828116911614611007576040517f2ef4875e00000000000000000000000000000000000000000000000000000000815273ffffffffffffffffffffffffffffffffffffffff821660048201526024016106bb565b5050565b60008381526020858152604080832073ffffffffffffffffffffffffffffffffffffffff8616845290915290205460ff1661045f5760008381526020858152604080832073ffffffffffffffffffffffffffffffffffffffff8681168086529184529382902080547fffffffffffffffffffffffffffffffffffffffffffffffffffffffffffffff00166001179055815187815292830152918316918101919091527f2f8788117e7eff1d82e926ec794901d17c78024a50270940304540a733656f0d906060015b60405180910390a150505050565b6110ec838284610dab565b60008181526020848152604080832073ffffffffffffffffffffffffffffffffffffffff86168085529083529281902080547fffffffffffffffffffffffffffffffffffffffffffffffffffffffffffffff0016905580518481529182018390528101919091527ff6391f5c32d9c69d2a47ea670b442974b53935d1edc7fd64eb21e047a839171b9060600160405180910390a1505050565b60008381526020858152604080832073ffffffffffffffffffffffffffffffffffffffff8616845290915290205460ff161561045f5760008381526020858152604080832073ffffffffffffffffffffffffffffffffffffffff8681168086529184529382902080547fffffffffffffffffffffffffffffffffffffffffffffffffffffffffffffff00169055815187815292830152918316918101919091527ff6391f5c32d9c69d2a47ea670b442974b53935d1edc7fd64eb21e047a839171b906060016110d3565b825473ffffffffffffffffffffffffffffffffffffffff90811690831681146112bc576040517f2ef4875e00000000000000000000000000000000000000000000000000000000815273ffffffffffffffffffffffffffffffffffffffff841660048201526024016106bb565b8173ffffffffffffffffffffffffffffffffffffffff168173ffffffffffffffffffffffffffffffffffffffff161461045f5783547fffffffffffffffffffffffff00000000000000000000000000000000000000001673ffffffffffffffffffffffffffffffffffffffff8381169182178655604051908316907f8be0079c531659141344cd1fd0a4f28419497f9722a3daafe3b4186f6b6457e090600090a350505050565b600061040d611370611537565b836040517f19010000000000000000000000000000000000000000000000000000000000006020820152602281018390526042810182905260009060620160405160208183030381529060405280519060200120905092915050565b60008060006113db858561166b565b915091506113e8816116b0565b509392505050565b6000333214806114005750601836105b1561140a57503390565b7fffffffffffffffffffffffffffffffffffffffffffffffffffffffffffffffec36013560601c7f000000000000000000000000000000000000000000000000000000000000000073ffffffffffffffffffffffffffffffffffffffff1633148061152657506040517f8929a8ca00000000000000000000000000000000000000000000000000000000815273ffffffffffffffffffffffffffffffffffffffff82811660048301523360248301527f00000000000000000000000000000000000000000000000000000000000000001690638929a8ca90604401602060405180830381865afa158015611502573d6000803e3d6000fd5b505050506040513d601f19601f820116820180604052508101906115269190611c19565b1561153057919050565b3391505090565b60003073ffffffffffffffffffffffffffffffffffffffff7f00000000000000000000000000000000000000000000000000000000000000001614801561159d57507f000000000000000000000000000000000000000000000000000000000000000046145b156115c757507f000000000000000000000000000000000000000000000000000000000000000090565b50604080517f00000000000000000000000000000000000000000000000000000000000000006020808301919091527f0000000000000000000000000000000000000000000000000000000000000000828401527f000000000000000000000000000000000000000000000000000000000000000060608301524660808301523060a0808401919091528351808403909101815260c0909201909252805191012090565b60008082516041036116a15760208301516040840151606085015160001a61169587828585611863565b945094505050506116a9565b506000905060025b9250929050565b60008160048111156116c4576116c4611c3b565b036116cc5750565b60018160048111156116e0576116e0611c3b565b03611747576040517f08c379a000000000000000000000000000000000000000000000000000000000815260206004820152601860248201527f45434453413a20696e76616c6964207369676e6174757265000000000000000060448201526064016106bb565b600281600481111561175b5761175b611c3b565b036117c2576040517f08c379a000000000000000000000000000000000000000000000000000000000815260206004820152601f60248201527f45434453413a20696e76616c6964207369676e6174757265206c656e6774680060448201526064016106bb565b60038160048111156117d6576117d6611c3b565b0361078a576040517f08c379a000000000000000000000000000000000000000000000000000000000815260206004820152602260248201527f45434453413a20696e76616c6964207369676e6174757265202773272076616c60448201527f756500000000000000000000000000000000000000000000000000000000000060648201526084016106bb565b6000807f7fffffffffffffffffffffffffffffff5d576e7357a4501ddfe92f46681b20a083111561189a5750600090506003611949565b6040805160008082526020820180845289905260ff881692820192909252606081018690526080810185905260019060a0016020604051602081039080840390855afa1580156118ee573d6000803e3d6000fd5b50506040517fffffffffffffffffffffffffffffffffffffffffffffffffffffffffffffffe0015191505073ffffffffffffffffffffffffffffffffffffffff811661194257600060019250925050611949565b9150600090505b94509492505050565b60006020828403121561196457600080fd5b81357fffffffff00000000000000000000000000000000000000000000000000000000811681146107fd57600080fd5b803573ffffffffffffffffffffffffffffffffffffffff811681146119b857600080fd5b919050565b6000806000606084860312156119d257600080fd5b6119db84611994565b95602085013595506040909401359392505050565b600060208284031215611a0257600080fd5b6107fd82611994565b60008060408385031215611a1e57600080fd5b82359150611a2e60208401611994565b90509250929050565b60008060208385031215611a4a57600080fd5b823567ffffffffffffffff80821115611a6257600080fd5b818501915085601f830112611a7657600080fd5b813581811115611a8557600080fd5b8660208260051b8501011115611a9a57600080fd5b60209290920196919550909350505050565b600060208284031215611abe57600080fd5b5035919050565b60008060408385031215611ad857600080fd5b50508035926020909101359150565b600080600080600080600060e0888a031215611b0257600080fd5b611b0b88611994565b9650602088013595506040880135945060608801359350608088013560ff81168114611b3657600080fd5b9699959850939692959460a0840135945060c09093013592915050565b7f4e487b7100000000000000000000000000000000000000000000000000000000600052601160045260246000fd5b8082018082111561040d5761040d611b53565b7f4e487b7100000000000000000000000000000000000000000000000000000000600052603260045260246000fd5b60007f07ffffffffffffffffffffffffffffffffffffffffffffffffffffffffffffff831115611bf357600080fd5b8260051b80858437919091019392505050565b8181038181111561040d5761040d611b53565b600060208284031215611c2b57600080fd5b815180151581146107fd57600080fd5b7f4e487b7100000000000000000000000000000000000000000000000000000000600052602160045260246000fdfea2646970667358221220c35c1843baf00dab14adaeea6ae71856e1398dbdd1dbad39c9db058f0805d0aa64736f6c63430008160033",
  "linkReferences": {},
  "deployedLinkReferences": {}
}