{
  "_format": "hh-sol-artifact-1",
  "contractName": "Points",
  "sourceName": "contracts/points/Points.sol",
  "abi": [
    {
      "inputs": [
        {
          "internalType": "contract IForwarderRegistry",
          "name": "forwarderRegistry_",
          "type": "address"
        }
      ],
      "stateMutability": "nonpayable",
      "type": "constructor"
    },
    {
      "inputs": [
        {
          "internalType": "bytes32",
          "name": "reasonCode",
          "type": "bytes32"
        }
      ],
      "name": "ConsumeReasonCodeAlreadyExists",
      "type": "error"
    },
    {
      "inputs": [
        {
          "internalType": "bytes32",
          "name": "reasonCode",
          "type": "bytes32"
        }
      ],
      "name": "ConsumeReasonCodeDoesNotExist",
      "type": "error"
    },
    {
      "inputs": [],
      "name": "ConsumeReasonCodesArrayEmpty",
      "type": "error"
    },
    {
      "inputs": [],
      "name": "DepositZeroAmount",
      "type": "error"
    },
    {
      "inputs": [],
      "name": "ExpiredSignature",
      "type": "error"
    },
    {
      "inputs": [],
      "name": "IllegalInterfaceId",
      "type": "error"
    },
    {
      "inputs": [
        {
          "internalType": "address",
          "name": "holder",
          "type": "address"
        },
        {
          "internalType": "uint256",
          "name": "requiredBalance",
          "type": "uint256"
        }
      ],
      "name": "InsufficientBalance",
      "type": "error"
    },
    {
      "inputs": [],
      "name": "InvalidForwarderRegistry",
      "type": "error"
    },
    {
      "inputs": [],
      "name": "InvalidSignature",
      "type": "error"
    },
    {
      "inputs": [
        {
          "internalType": "address",
          "name": "account",
          "type": "address"
        }
      ],
      "name": "NotContractOwner",
      "type": "error"
    },
    {
      "inputs": [
        {
          "internalType": "bytes32",
          "name": "role",
          "type": "bytes32"
        },
        {
          "internalType": "address",
          "name": "account",
          "type": "address"
        }
      ],
      "name": "NotRoleHolder",
      "type": "error"
    },
    {
      "inputs": [],
      "name": "SenderIsNotAppointedSpender",
      "type": "error"
    },
    {
      "anonymous": false,
      "inputs": [
        {
          "indexed": true,
          "internalType": "bytes32[]",
          "name": "reasonCodes",
          "type": "bytes32[]"
        }
      ],
      "name": "ConsumeReasonCodesAdded",
      "type": "event"
    },
    {
      "anonymous": false,
      "inputs": [
        {
          "indexed": true,
          "internalType": "bytes32[]",
          "name": "reasonCodes",
          "type": "bytes32[]"
        }
      ],
      "name": "ConsumeReasonCodesRemoved",
      "type": "event"
    },
    {
      "anonymous": false,
      "inputs": [
        {
          "indexed": true,
          "internalType": "address",
          "name": "operator",
          "type": "address"
        },
        {
          "indexed": true,
          "internalType": "bytes32",
          "name": "reasonCode",
          "type": "bytes32"
        },
        {
          "indexed": true,
          "internalType": "address",
          "name": "holder",
          "type": "address"
        },
        {
          "indexed": false,
          "internalType": "uint256",
          "name": "amount",
          "type": "uint256"
        }
      ],
      "name": "Consumed",
      "type": "event"
    },
    {
      "anonymous": false,
      "inputs": [
        {
          "indexed": true,
          "internalType": "address",
          "name": "sender",
          "type": "address"
        },
        {
          "indexed": true,
          "internalType": "bytes32",
          "name": "reasonCode",
          "type": "bytes32"
        },
        {
          "indexed": true,
          "internalType": "address",
          "name": "holder",
          "type": "address"
        },
        {
          "indexed": false,
          "internalType": "uint256",
          "name": "amount",
          "type": "uint256"
        }
      ],
      "name": "Deposited",
      "type": "event"
    },
    {
      "anonymous": false,
      "inputs": [
        {
          "indexed": true,
          "internalType": "address",
          "name": "previousOwner",
          "type": "address"
        },
        {
          "indexed": true,
          "internalType": "address",
          "name": "newOwner",
          "type": "address"
        }
      ],
      "name": "OwnershipTransferred",
      "type": "event"
    },
    {
      "anonymous": false,
      "inputs": [
        {
          "indexed": false,
          "internalType": "bytes32",
          "name": "role",
          "type": "bytes32"
        },
        {
          "indexed": false,
          "internalType": "address",
          "name": "account",
          "type": "address"
        },
        {
          "indexed": false,
          "internalType": "address",
          "name": "operator",
          "type": "address"
        }
      ],
      "name": "RoleGranted",
      "type": "event"
    },
    {
      "anonymous": false,
      "inputs": [
        {
          "indexed": false,
          "internalType": "bytes32",
          "name": "role",
          "type": "bytes32"
        },
        {
          "indexed": false,
          "internalType": "address",
          "name": "account",
          "type": "address"
        },
        {
          "indexed": false,
          "internalType": "address",
          "name": "operator",
          "type": "address"
        }
      ],
      "name": "RoleRevoked",
      "type": "event"
    },
    {
      "inputs": [],
      "name": "ADMIN_ROLE",
      "outputs": [
        {
          "internalType": "bytes32",
          "name": "",
          "type": "bytes32"
        }
      ],
      "stateMutability": "view",
      "type": "function"
    },
    {
      "inputs": [],
      "name": "DEPOSITOR_ROLE",
      "outputs": [
        {
          "internalType": "bytes32",
          "name": "",
          "type": "bytes32"
        }
      ],
      "stateMutability": "view",
      "type": "function"
    },
    {
      "inputs": [],
      "name": "SPENDER_ROLE",
      "outputs": [
        {
          "internalType": "bytes32",
          "name": "",
          "type": "bytes32"
        }
      ],
      "stateMutability": "view",
      "type": "function"
    },
    {
      "inputs": [
        {
          "internalType": "bytes32[]",
          "name": "reasonCodes",
          "type": "bytes32[]"
        }
      ],
      "name": "addConsumeReasonCodes",
      "outputs": [],
      "stateMutability": "nonpayable",
      "type": "function"
    },
    {
      "inputs": [
        {
          "internalType": "bytes32",
          "name": "",
          "type": "bytes32"
        }
      ],
      "name": "allowedConsumeReasonCodes",
      "outputs": [
        {
          "internalType": "bool",
          "name": "",
          "type": "bool"
        }
      ],
      "stateMutability": "view",
      "type": "function"
    },
    {
      "inputs": [
        {
          "internalType": "address",
          "name": "",
          "type": "address"
        }
      ],
      "name": "balances",
      "outputs": [
        {
          "internalType": "uint256",
          "name": "",
          "type": "uint256"
        }
      ],
      "stateMutability": "view",
      "type": "function"
    },
    {
      "inputs": [
        {
          "internalType": "address",
          "name": "holder",
          "type": "address"
        },
        {
          "internalType": "uint256",
          "name": "amount",
          "type": "uint256"
        },
        {
          "internalType": "bytes32",
          "name": "consumeReasonCode",
          "type": "bytes32"
        }
      ],
      "name": "consume",
      "outputs": [],
      "stateMutability": "nonpayable",
      "type": "function"
    },
    {
      "inputs": [
        {
          "internalType": "address",
          "name": "holder",
          "type": "address"
        },
        {
          "internalType": "uint256",
          "name": "amount",
          "type": "uint256"
        },
        {
          "internalType": "bytes32",
          "name": "consumeReasonCode",
          "type": "bytes32"
        },
        {
          "internalType": "uint256",
          "name": "deadline",
          "type": "uint256"
        },
        {
          "internalType": "address",
          "name": "spender",
          "type": "address"
        },
        {
          "internalType": "uint8",
          "name": "v",
          "type": "uint8"
        },
        {
          "internalType": "bytes32",
          "name": "r",
          "type": "bytes32"
        },
        {
          "internalType": "bytes32",
          "name": "s",
          "type": "bytes32"
        }
      ],
      "name": "consume",
      "outputs": [],
      "stateMutability": "nonpayable",
      "type": "function"
    },
    {
      "inputs": [
        {
          "internalType": "uint256",
          "name": "amount",
          "type": "uint256"
        },
        {
          "internalType": "bytes32",
          "name": "consumeReasonCode",
          "type": "bytes32"
        }
      ],
      "name": "consume",
      "outputs": [],
      "stateMutability": "nonpayable",
      "type": "function"
    },
    {
      "inputs": [
        {
          "internalType": "address",
          "name": "holder",
          "type": "address"
        },
        {
          "internalType": "uint256",
          "name": "amount",
          "type": "uint256"
        },
        {
          "internalType": "bytes32",
          "name": "depositReasonCode",
          "type": "bytes32"
        }
      ],
      "name": "deposit",
      "outputs": [],
      "stateMutability": "nonpayable",
      "type": "function"
    },
    {
      "inputs": [],
      "name": "forwarderRegistry",
      "outputs": [
        {
          "internalType": "contract IForwarderRegistry",
          "name": "",
          "type": "address"
        }
      ],
      "stateMutability": "view",
      "type": "function"
    },
    {
      "inputs": [
        {
          "internalType": "bytes32",
          "name": "role",
          "type": "bytes32"
        },
        {
          "internalType": "address",
          "name": "account",
          "type": "address"
        }
      ],
      "name": "grantRole",
      "outputs": [],
      "stateMutability": "nonpayable",
      "type": "function"
    },
    {
      "inputs": [
        {
          "internalType": "bytes32",
          "name": "role",
          "type": "bytes32"
        },
        {
          "internalType": "address",
          "name": "account",
          "type": "address"
        }
      ],
      "name": "hasRole",
      "outputs": [
        {
          "internalType": "bool",
          "name": "hasRole_",
          "type": "bool"
        }
      ],
      "stateMutability": "view",
      "type": "function"
    },
    {
      "inputs": [
        {
          "internalType": "address",
          "name": "forwarder",
          "type": "address"
        }
      ],
      "name": "isTrustedForwarder",
      "outputs": [
        {
          "internalType": "bool",
          "name": "",
          "type": "bool"
        }
      ],
      "stateMutability": "view",
      "type": "function"
    },
    {
      "inputs": [
        {
          "internalType": "bytes32",
          "name": "",
          "type": "bytes32"
        }
      ],
      "name": "nonces",
      "outputs": [
        {
          "internalType": "uint256",
          "name": "",
          "type": "uint256"
        }
      ],
      "stateMutability": "view",
      "type": "function"
    },
    {
      "inputs": [],
      "name": "owner",
      "outputs": [
        {
          "internalType": "address",
          "name": "",
          "type": "address"
        }
      ],
      "stateMutability": "view",
      "type": "function"
    },
    {
      "inputs": [
        {
          "internalType": "address",
          "name": "holder",
          "type": "address"
        },
        {
          "internalType": "address",
          "name": "spender",
          "type": "address"
        },
        {
          "internalType": "uint256",
          "name": "amount",
          "type": "uint256"
        },
        {
          "internalType": "bytes32",
          "name": "reasonCode",
          "type": "bytes32"
        },
        {
          "internalType": "uint256",
          "name": "deadline",
          "type": "uint256"
        }
      ],
      "name": "preparePayload",
      "outputs": [
        {
          "internalType": "bytes32",
          "name": "",
          "type": "bytes32"
        }
      ],
      "stateMutability": "view",
      "type": "function"
    },
    {
      "inputs": [
        {
          "internalType": "bytes32[]",
          "name": "reasonCodes",
          "type": "bytes32[]"
        }
      ],
      "name": "removeConsumeReasonCodes",
      "outputs": [],
      "stateMutability": "nonpayable",
      "type": "function"
    },
    {
      "inputs": [
        {
          "internalType": "bytes32",
          "name": "role",
          "type": "bytes32"
        }
      ],
      "name": "renounceRole",
      "outputs": [],
      "stateMutability": "nonpayable",
      "type": "function"
    },
    {
      "inputs": [
        {
          "internalType": "bytes32",
          "name": "role",
          "type": "bytes32"
        },
        {
          "internalType": "address",
          "name": "account",
          "type": "address"
        }
      ],
      "name": "revokeRole",
      "outputs": [],
      "stateMutability": "nonpayable",
      "type": "function"
    },
    {
      "inputs": [
        {
          "internalType": "bytes4",
          "name": "interfaceId",
          "type": "bytes4"
        }
      ],
      "name": "supportsInterface",
      "outputs": [
        {
          "internalType": "bool",
          "name": "",
          "type": "bool"
        }
      ],
      "stateMutability": "view",
      "type": "function"
    },
    {
      "inputs": [
        {
          "internalType": "address",
          "name": "newOwner",
          "type": "address"
        }
      ],
      "name": "transferOwnership",
      "outputs": [],
      "stateMutability": "nonpayable",
      "type": "function"
    }
  ],
  "bytecode": "0x60a06040523480156200001157600080fd5b506040516200206b3803806200206b8339810160408190526200003491620002a1565b8080620000406200008e565b62000056816200004f6200009f565b90620000d5565b506001600160a01b03908116608052821690506200008757604051633545ba1f60e21b815260040160405180910390fd5b5062000319565b60006200009a62000150565b905090565b600080620000cf60017fc9ed16f33ab3a66c84bfd83099ccb2a8845871e2e1c1928f63797152f0fd54cd620002d3565b92915050565b6001600160a01b038116156200012c5781546001600160a01b0319166001600160a01b03821690811783556040516000907f8be0079c531659141344cd1fd0a4f28419497f9722a3daafe3b4186f6b6457e0908290a35b6200014c6307f5828d60e41b60016200014462000214565b919062000244565b5050565b600033321480620001615750601836105b156200016c57503390565b60805136601319013560601c906001600160a01b0316331480620002025750608051604051634494d46560e11b81526001600160a01b03838116600483015233602483015290911690638929a8ca90604401602060405180830381865afa158015620001dc573d6000803e3d6000fd5b505050506040513d601f19601f82011682018060405250810190620002029190620002f5565b156200020d57919050565b3391505090565b600080620000cf60017fca9d3e17f264b0f3984e2634e94adb37fa3e6a8103f06aeae6fa59e21c769f5e620002d3565b600160e01b6001600160e01b031983160162000273576040516372c683bb60e01b815260040160405180910390fd5b6001600160e01b03199190911660009081526020929092526040909120805460ff1916911515919091179055565b600060208284031215620002b457600080fd5b81516001600160a01b0381168114620002cc57600080fd5b9392505050565b81810381811115620000cf57634e487b7160e01b600052601160045260246000fd5b6000602082840312156200030857600080fd5b81518015158114620002cc57600080fd5b608051611d216200034a60003960008181610207015281816102820152818161168d01526117150152611d216000f3fe608060405234801561001057600080fd5b50600436106101825760003560e01c80638bb9c5bf116100d8578063a3b0b5a31161008c578063f2fde38b11610066578063f2fde38b146103ce578063f374913c146103e1578063f9515962146103f457600080fd5b8063a3b0b5a314610381578063d547741f146103a8578063e283bfbf146103bb57600080fd5b806391d14854116100bd57806391d148541461033b5780639306f1ee1461034e5780639e317f121461036157600080fd5b80638bb9c5bf146103205780638da5cb5b1461033357600080fd5b80632f2ff15d1161013a57806372c16a241161011457806372c16a24146102bf5780637308a128146102e657806375b238fc146102f957600080fd5b80632f2ff15d1461024c57806338a207931461025f578063572b6c051461027257600080fd5b806326b3293f1161016b57806326b3293f146101c457806327e235e3146101d75780632b4c9f161461020557600080fd5b806301ffc9a714610187578063212aac79146101af575b600080fd5b61019a6101953660046118c5565b610417565b60405190151581526020015b60405180910390f35b6101c26101bd366004611930565b610431565b005b6101c26101d2366004611930565b61047c565b6101f76101e5366004611963565b60006020819052908152604090205481565b6040519081526020016101a6565b7f00000000000000000000000000000000000000000000000000000000000000005b60405173ffffffffffffffffffffffffffffffffffffffff90911681526020016101a6565b6101c261025a36600461197e565b610590565b6101c261026d3660046119aa565b6105c4565b61019a610280366004611963565b7f000000000000000000000000000000000000000000000000000000000000000073ffffffffffffffffffffffffffffffffffffffff90811691161490565b6101f77f7434c6f201a551bfd17336985361933e0c4935b520dac8a49d937b325f7d5c0a81565b6101c26102f4366004611a26565b61082e565b6101f77fa49807205ce4d355092ef5a8a18f56e8913cf4a201fbe287825b095693c2177581565b6101c261032e366004611a9b565b6109da565b6102276109f8565b61019a61034936600461197e565b610a24565b6101f761035c366004611ab4565b610a6f565b6101f761036f366004611a9b565b60016020526000908152604090205481565b6101f77f8f4f2da22e8ac8f11e15f9fc141cddbb5deea8800186560abb6e68c5496619a981565b6101c26103b636600461197e565b610b72565b6101c26103c9366004611b01565b610ba0565b6101c26103dc366004611963565b610bb6565b6101c26103ef366004611a26565b610bd1565b61019a610402366004611a9b565b60026020526000908152604090205460ff1681565b600061042b82610425610d6a565b90610d98565b92915050565b61046c7f7434c6f201a551bfd17336985361933e0c4935b520dac8a49d937b325f7d5c0a61045d610e72565b610465610e7c565b9190610eaa565b610477838383610f30565b505050565b6104a87f8f4f2da22e8ac8f11e15f9fc141cddbb5deea8800186560abb6e68c5496619a961045d610e72565b816000036104e2576040517f8b07335400000000000000000000000000000000000000000000000000000000815260040160405180910390fd5b73ffffffffffffffffffffffffffffffffffffffff831660009081526020819052604081208054849290610517908490611b52565b909155505073ffffffffffffffffffffffffffffffffffffffff83168161053c610e72565b73ffffffffffffffffffffffffffffffffffffffff167f81226022599698f02239ac5895ce7a96962ba5fe72f8f7610d1cc2cb0405f3918560405161058391815260200190565b60405180910390a4505050565b600061059a610e72565b90506105ae816105a861108b565b906110b9565b6104778383836105bc610e7c565b929190611124565b844211156105fe576040517fdf4cc36d00000000000000000000000000000000000000000000000000000000815260040160405180910390fd5b610606610e72565b73ffffffffffffffffffffffffffffffffffffffff168473ffffffffffffffffffffffffffffffffffffffff161461066a576040517f597131c000000000000000000000000000000000000000000000000000000000815260040160405180910390fd5b6040805160608a811b7fffffffffffffffffffffffffffffffffffffffff00000000000000000000000090811660208085018290529289901b9091166034840181905284516028818603018152604885018652805190840120600081815260018552868120546068870194909452607c860192909252609085018d905260b085018c905260d085018b905260f080860184905286518087039091018152610110860187528051908501207f19457468657265756d205369676e6564204d6573736167653a0a33320000000061013087015261014c8087018290528751808803909101815261016c87018852805195019490942061018c86018990526101ac860188905260f88a901b7fff00000000000000000000000000000000000000000000000000000000000000166101cc87015286518087036101ad0181526101cd909601909652949193906107bd8e84846111fb565b9050806107f6576040517f8baa579f00000000000000000000000000000000000000000000000000000000815260040160405180910390fd5b6108018e8e8e610f30565b61080c856001611b52565b6000968752600160205260409096209590955550505050505050505050505050565b61085a7fa49807205ce4d355092ef5a8a18f56e8913cf4a201fbe287825b095693c2177561045d610e72565b6000819003610895576040517f3fb4608600000000000000000000000000000000000000000000000000000000815260040160405180910390fd5b60005b8181101561099557600260008484848181106108b6576108b6611b65565b602090810292909201358352508101919091526040016000205460ff161561092f578282828181106108ea576108ea611b65565b905060200201356040517fb642124200000000000000000000000000000000000000000000000000000000815260040161092691815260200190565b60405180910390fd5b60016002600085858581811061094757610947611b65565b6020908102929092013583525081019190915260400160002080547fffffffffffffffffffffffffffffffffffffffffffffffffffffffffffffff0016911515919091179055600101610898565b5081816040516109a6929190611b94565b604051908190038120907fab25d781d5ddfd48b7ce16c5048ddf0ee9caece5921f772cfacfd1085b6f5f1b90600090a25050565b6109f56109e5610e72565b826109ee610e7c565b91906113c8565b50565b6000610a1f610a0561108b565b5473ffffffffffffffffffffffffffffffffffffffff1690565b905090565b6000610a688383610a33610e7c565b60009283526020908152604080842073ffffffffffffffffffffffffffffffffffffffff909316845291905290205460ff1690565b9392505050565b6000610b688686868686600160008d8d604051602001610ac6929190606092831b7fffffffffffffffffffffffffffffffffffffffff00000000000000000000000090811682529190921b16601482015260280190565b604051602081830303815290604052805190602001208152602001908152602001600020546040517fffffffffffffffffffffffffffffffffffffffff000000000000000000000000606088811b8216602084015287901b16603482015260488101859052606881018490526088810183905260a8810182905260009060c8016040516020818303038152906040528051906020012090509695505050505050565b9695505050505050565b6000610b7c610e72565b9050610b8a816105a861108b565b610477838383610b98610e7c565b92919061146c565b610bb2610bab610e72565b8383610f30565b5050565b6109f5610bc1610e72565b82610bca61108b565b9190611536565b610bfd7fa49807205ce4d355092ef5a8a18f56e8913cf4a201fbe287825b095693c2177561045d610e72565b6000819003610c38576040517f3fb4608600000000000000000000000000000000000000000000000000000000815260040160405180910390fd5b60005b81811015610d255760026000848484818110610c5957610c59611b65565b602090810292909201358352508101919091526040016000205460ff16610cc857828282818110610c8c57610c8c611b65565b905060200201356040517fa89513e100000000000000000000000000000000000000000000000000000000815260040161092691815260200190565b60026000848484818110610cde57610cde611b65565b6020908102929092013583525081019190915260400160002080547fffffffffffffffffffffffffffffffffffffffffffffffffffffffffffffff00169055600101610c3b565b508181604051610d36929190611b94565b604051908190038120907f507a827ea9c046f50d345ab3118c004750ae36a4dd38998391315aee8be45b9590600090a25050565b60008061042b60017fca9d3e17f264b0f3984e2634e94adb37fa3e6a8103f06aeae6fa59e21c769f5e611bd6565b60007c01000000000000000000000000000000000000000000000000000000007fffffffff00000000000000000000000000000000000000000000000000000000831601610de85750600061042b565b7ffe003659000000000000000000000000000000000000000000000000000000007fffffffff00000000000000000000000000000000000000000000000000000000831601610e395750600161042b565b507fffffffff00000000000000000000000000000000000000000000000000000000166000908152602091909152604090205460ff1690565b6000610a1f61164a565b60008061042b60017fc8827d3282af6f37b64c3e9e6f3ac9df286ab0bb0fccd6f8661bf19adb368b23611bd6565b60008281526020848152604080832073ffffffffffffffffffffffffffffffffffffffff8516845290915290205460ff16610477576040517f7aa728820000000000000000000000000000000000000000000000000000000081526004810183905273ffffffffffffffffffffffffffffffffffffffff82166024820152604401610926565b73ffffffffffffffffffffffffffffffffffffffff831660009081526020819052604090205482811015610faf576040517ff6deaa0400000000000000000000000000000000000000000000000000000000815273ffffffffffffffffffffffffffffffffffffffff8516600482015260248101849052604401610926565b60008281526002602052604090205460ff16610ffa576040517fa89513e100000000000000000000000000000000000000000000000000000000815260048101839052602401610926565b6110048382611bd6565b73ffffffffffffffffffffffffffffffffffffffff851660008181526020819052604090209190915582611036610e72565b73ffffffffffffffffffffffffffffffffffffffff167f483f7fdbc58a2920f2e502b1bbbb896329d7c8ddca129d0875d589e8951868578660405161107d91815260200190565b60405180910390a450505050565b60008061042b60017fc9ed16f33ab3a66c84bfd83099ccb2a8845871e2e1c1928f63797152f0fd54cd611bd6565b815473ffffffffffffffffffffffffffffffffffffffff828116911614610bb2576040517f2ef4875e00000000000000000000000000000000000000000000000000000000815273ffffffffffffffffffffffffffffffffffffffff82166004820152602401610926565b60008381526020858152604080832073ffffffffffffffffffffffffffffffffffffffff8616845290915290205460ff166111f55760008381526020858152604080832073ffffffffffffffffffffffffffffffffffffffff8681168086529184529382902080547fffffffffffffffffffffffffffffffffffffffffffffffffffffffffffffff00166001179055815187815292830152918316918101919091527f2f8788117e7eff1d82e926ec794901d17c78024a50270940304540a733656f0d906060015b60405180910390a15b50505050565b600080600061120a8585611791565b9092509050600081600481111561122357611223611be9565b14801561125b57508573ffffffffffffffffffffffffffffffffffffffff168273ffffffffffffffffffffffffffffffffffffffff16145b1561126b57600192505050610a68565b6000808773ffffffffffffffffffffffffffffffffffffffff16631626ba7e60e01b88886040516024016112a0929190611c3c565b604080517fffffffffffffffffffffffffffffffffffffffffffffffffffffffffffffffe08184030181529181526020820180517bffffffffffffffffffffffffffffffffffffffffffffffffffffffff167fffffffff000000000000000000000000000000000000000000000000000000009094169390931790925290516113299190611c94565b600060405180830381855afa9150503d8060008114611364576040519150601f19603f3d011682016040523d82523d6000602084013e611369565b606091505b509150915081801561137c575080516020145b80156113bc575080517f1626ba7e00000000000000000000000000000000000000000000000000000000906113ba9083016020908101908401611cb0565b145b98975050505050505050565b6113d3838284610eaa565b60008181526020848152604080832073ffffffffffffffffffffffffffffffffffffffff86168085529083529281902080547fffffffffffffffffffffffffffffffffffffffffffffffffffffffffffffff0016905580518481529182018390528101919091527ff6391f5c32d9c69d2a47ea670b442974b53935d1edc7fd64eb21e047a839171b9060600160405180910390a1505050565b60008381526020858152604080832073ffffffffffffffffffffffffffffffffffffffff8616845290915290205460ff16156111f55760008381526020858152604080832073ffffffffffffffffffffffffffffffffffffffff8681168086529184529382902080547fffffffffffffffffffffffffffffffffffffffffffffffffffffffffffffff00169055815187815292830152918316918101919091527ff6391f5c32d9c69d2a47ea670b442974b53935d1edc7fd64eb21e047a839171b906060016111ec565b825473ffffffffffffffffffffffffffffffffffffffff90811690831681146115a3576040517f2ef4875e00000000000000000000000000000000000000000000000000000000815273ffffffffffffffffffffffffffffffffffffffff84166004820152602401610926565b8173ffffffffffffffffffffffffffffffffffffffff168173ffffffffffffffffffffffffffffffffffffffff16146111f55783547fffffffffffffffffffffffff00000000000000000000000000000000000000001673ffffffffffffffffffffffffffffffffffffffff8381169182178655604051908316907f8be0079c531659141344cd1fd0a4f28419497f9722a3daafe3b4186f6b6457e090600090a350505050565b60003332148061165a5750601836105b1561166457503390565b7fffffffffffffffffffffffffffffffffffffffffffffffffffffffffffffffec36013560601c7f000000000000000000000000000000000000000000000000000000000000000073ffffffffffffffffffffffffffffffffffffffff1633148061178057506040517f8929a8ca00000000000000000000000000000000000000000000000000000000815273ffffffffffffffffffffffffffffffffffffffff82811660048301523360248301527f00000000000000000000000000000000000000000000000000000000000000001690638929a8ca90604401602060405180830381865afa15801561175c573d6000803e3d6000fd5b505050506040513d601f19601f820116820180604052508101906117809190611cc9565b1561178a57919050565b3391505090565b60008082516041036117c75760208301516040840151606085015160001a6117bb878285856117d6565b945094505050506117cf565b506000905060025b9250929050565b6000807f7fffffffffffffffffffffffffffffff5d576e7357a4501ddfe92f46681b20a083111561180d57506000905060036118bc565b6040805160008082526020820180845289905260ff881692820192909252606081018690526080810185905260019060a0016020604051602081039080840390855afa158015611861573d6000803e3d6000fd5b50506040517fffffffffffffffffffffffffffffffffffffffffffffffffffffffffffffffe0015191505073ffffffffffffffffffffffffffffffffffffffff81166118b5576000600192509250506118bc565b9150600090505b94509492505050565b6000602082840312156118d757600080fd5b81357fffffffff0000000000000000000000000000000000000000000000000000000081168114610a6857600080fd5b803573ffffffffffffffffffffffffffffffffffffffff8116811461192b57600080fd5b919050565b60008060006060848603121561194557600080fd5b61194e84611907565b95602085013595506040909401359392505050565b60006020828403121561197557600080fd5b610a6882611907565b6000806040838503121561199157600080fd5b823591506119a160208401611907565b90509250929050565b600080600080600080600080610100898b0312156119c757600080fd5b6119d089611907565b97506020890135965060408901359550606089013594506119f360808a01611907565b935060a089013560ff81168114611a0957600080fd5b979a969950949793969295929450505060c08201359160e0013590565b60008060208385031215611a3957600080fd5b823567ffffffffffffffff80821115611a5157600080fd5b818501915085601f830112611a6557600080fd5b813581811115611a7457600080fd5b8660208260051b8501011115611a8957600080fd5b60209290920196919550909350505050565b600060208284031215611aad57600080fd5b5035919050565b600080600080600060a08688031215611acc57600080fd5b611ad586611907565b9450611ae360208701611907565b94979496505050506040830135926060810135926080909101359150565b60008060408385031215611b1457600080fd5b50508035926020909101359150565b7f4e487b7100000000000000000000000000000000000000000000000000000000600052601160045260246000fd5b8082018082111561042b5761042b611b23565b7f4e487b7100000000000000000000000000000000000000000000000000000000600052603260045260246000fd5b60007f07ffffffffffffffffffffffffffffffffffffffffffffffffffffffffffffff831115611bc357600080fd5b8260051b80858437919091019392505050565b8181038181111561042b5761042b611b23565b7f4e487b7100000000000000000000000000000000000000000000000000000000600052602160045260246000fd5b60005b83811015611c33578181015183820152602001611c1b565b50506000910152565b8281526040602082015260008251806040840152611c61816060850160208701611c18565b601f017fffffffffffffffffffffffffffffffffffffffffffffffffffffffffffffffe016919091016060019392505050565b60008251611ca6818460208701611c18565b9190910192915050565b600060208284031215611cc257600080fd5b5051919050565b600060208284031215611cdb57600080fd5b81518015158114610a6857600080fdfea264697066735822122043b64ccb10b9337f6f39c784fecbc9826451a858869b293f98b9e7e3dd08fdac64736f6c63430008160033",
  "linkReferences": {},
  "deployedLinkReferences": {}
}