{
  "_format": "hh-sol-artifact-1",
  "contractName": "ERC20ToPointsMock",
  "sourceName": "contracts/mocks/swap/ERC20ToPointsMock.sol",
  "abi": [
    {
      "inputs": [
        {
          "internalType": "contract IERC20",
          "name": "token",
          "type": "address"
        },
        {
          "internalType": "contract IPointsV2",
          "name": "points",
          "type": "address"
        },
        {
          "internalType": "uint256",
          "name": "tokenToPointsRate",
          "type": "uint256"
        },
        {
          "internalType": "string",
          "name": "depositReason",
          "type": "string"
        },
        {
          "internalType": "address payable",
          "name": "payoutAddress",
          "type": "address"
        },
        {
          "internalType": "contract IForwarderRegistry",
          "name": "forwarderRegistry",
          "type": "address"
        }
      ],
      "stateMutability": "nonpayable",
      "type": "constructor"
    },
    {
      "inputs": [],
      "name": "IllegalInterfaceId",
      "type": "error"
    },
    {
      "inputs": [],
      "name": "InvalidPointsAmount",
      "type": "error"
    },
    {
      "inputs": [
        {
          "internalType": "address",
          "name": "account",
          "type": "address"
        }
      ],
      "name": "NotContractOwner",
      "type": "error"
    },
    {
      "inputs": [
        {
          "internalType": "address",
          "name": "token",
          "type": "address"
        }
      ],
      "name": "SafeERC20FailedOperation",
      "type": "error"
    },
    {
      "inputs": [],
      "name": "ZeroAddressPayoutWallet",
      "type": "error"
    },
    {
      "anonymous": false,
      "inputs": [
        {
          "indexed": true,
          "internalType": "address",
          "name": "user",
          "type": "address"
        },
        {
          "indexed": false,
          "internalType": "uint256",
          "name": "tokenAmount",
          "type": "uint256"
        },
        {
          "indexed": false,
          "internalType": "uint256",
          "name": "pointsAmount",
          "type": "uint256"
        }
      ],
      "name": "Exchanged",
      "type": "event"
    },
    {
      "anonymous": false,
      "inputs": [
        {
          "indexed": true,
          "internalType": "address",
          "name": "previousOwner",
          "type": "address"
        },
        {
          "indexed": true,
          "internalType": "address",
          "name": "newOwner",
          "type": "address"
        }
      ],
      "name": "OwnershipTransferred",
      "type": "event"
    },
    {
      "anonymous": false,
      "inputs": [
        {
          "indexed": false,
          "internalType": "address",
          "name": "payoutWallet",
          "type": "address"
        }
      ],
      "name": "PayoutWalletSet",
      "type": "event"
    },
    {
      "inputs": [],
      "name": "DEPOSIT_REASON",
      "outputs": [
        {
          "internalType": "bytes32",
          "name": "",
          "type": "bytes32"
        }
      ],
      "stateMutability": "view",
      "type": "function"
    },
    {
      "inputs": [],
      "name": "POINTS",
      "outputs": [
        {
          "internalType": "contract IPointsV2",
          "name": "",
          "type": "address"
        }
      ],
      "stateMutability": "view",
      "type": "function"
    },
    {
      "inputs": [],
      "name": "POINTS_MULTIPLIER",
      "outputs": [
        {
          "internalType": "uint256",
          "name": "",
          "type": "uint256"
        }
      ],
      "stateMutability": "view",
      "type": "function"
    },
    {
      "inputs": [],
      "name": "TOKEN",
      "outputs": [
        {
          "internalType": "contract IERC20",
          "name": "",
          "type": "address"
        }
      ],
      "stateMutability": "view",
      "type": "function"
    },
    {
      "inputs": [],
      "name": "TOKEN_TO_POINTS_RATE",
      "outputs": [
        {
          "internalType": "uint256",
          "name": "",
          "type": "uint256"
        }
      ],
      "stateMutability": "view",
      "type": "function"
    },
    {
      "inputs": [],
      "name": "__msgData",
      "outputs": [
        {
          "internalType": "bytes",
          "name": "",
          "type": "bytes"
        }
      ],
      "stateMutability": "view",
      "type": "function"
    },
    {
      "inputs": [
        {
          "internalType": "uint256",
          "name": "pointsAmount",
          "type": "uint256"
        }
      ],
      "name": "exchange",
      "outputs": [],
      "stateMutability": "nonpayable",
      "type": "function"
    },
    {
      "inputs": [],
      "name": "forwarderRegistry",
      "outputs": [
        {
          "internalType": "contract IForwarderRegistry",
          "name": "",
          "type": "address"
        }
      ],
      "stateMutability": "view",
      "type": "function"
    },
    {
      "inputs": [
        {
          "internalType": "address",
          "name": "forwarder",
          "type": "address"
        }
      ],
      "name": "isTrustedForwarder",
      "outputs": [
        {
          "internalType": "bool",
          "name": "",
          "type": "bool"
        }
      ],
      "stateMutability": "view",
      "type": "function"
    },
    {
      "inputs": [],
      "name": "owner",
      "outputs": [
        {
          "internalType": "address",
          "name": "",
          "type": "address"
        }
      ],
      "stateMutability": "view",
      "type": "function"
    },
    {
      "inputs": [],
      "name": "payoutWallet",
      "outputs": [
        {
          "internalType": "address payable",
          "name": "wallet",
          "type": "address"
        }
      ],
      "stateMutability": "view",
      "type": "function"
    },
    {
      "inputs": [
        {
          "internalType": "address payable",
          "name": "newPayoutWallet",
          "type": "address"
        }
      ],
      "name": "setPayoutWallet",
      "outputs": [],
      "stateMutability": "nonpayable",
      "type": "function"
    },
    {
      "inputs": [
        {
          "internalType": "bytes4",
          "name": "interfaceId",
          "type": "bytes4"
        }
      ],
      "name": "supportsInterface",
      "outputs": [
        {
          "internalType": "bool",
          "name": "",
          "type": "bool"
        }
      ],
      "stateMutability": "view",
      "type": "function"
    },
    {
      "inputs": [
        {
          "internalType": "address",
          "name": "newOwner",
          "type": "address"
        }
      ],
      "name": "transferOwnership",
      "outputs": [],
      "stateMutability": "nonpayable",
      "type": "function"
    }
  ],
  "bytecode": "0x610140806040523461037a57611339803803809161001d82856103aa565b833981019060c08183031261037a578051906001600160a01b03821680830361037a5760208201516001600160a01b038116810361037a57604083015160608401519091906001600160401b03811161037a57840186601f8201121561037a578051906001600160401b03821161039457604051976100a6601f8401601f19166020018a6103aa565b8289526020838301011161037a5760005b82811061037f57505060009087016020015260808401516001600160a01b038116949085900361037a5760a001516001600160a01b038116810361037a576080523361031b575b6307f5828d60e41b6000527fca9d3e17f264b0f3984e2634e94adb37fa3e6a8103f06aeae6fa59e21c769f5d6020527fa53d5a615b1d5279f1a6647c5c0f31bf064b1e70af135676a4a96aeaeb691a2f805460ff19166001179055831561030a577f4fb5f8cdfbce77f22b0931a39e9f476a60a0f66524b2f379e96485471eb700ad80546001600160a01b031916851790556040519384526004946020947fdd880d24a789958a6398c99c2e54ce31bc10a638cbc42f7dd34285479ae0f855908690a160a05260c05260e05260405163313ce56760e01b815292839182905afa9081156102fe576000916102ba575b5060ff16604d81116102a45760e05190811561028e57600a0a04610100526020815191012061012052604051610f6b90816103ce8239608051818181610a2901528181610b9401528181610cbf0152610e21015260a0518181816103c7015261069f015260c05181818161043601526107a5015260e05181610aea015261010051818181610275015261066901526101205181818161021c01526108080152f35b634e487b7160e01b600052601260045260246000fd5b634e487b7160e01b600052601160045260246000fd5b6020813d6020116102f6575b816102d3602093836103aa565b810103126102f257519060ff821682036102ef575060ff6101ed565b80fd5b5080fd5b3d91506102c6565b6040513d6000823e3d90fd5b6340b539cf60e01b60005260046000fd5b7fc9ed16f33ab3a66c84bfd83099ccb2a8845871e2e1c1928f63797152f0fd54cc80546001600160a01b0319163390811790915560007f8be0079c531659141344cd1fd0a4f28419497f9722a3daafe3b4186f6b6457e08180a36100fe565b600080fd5b80602080928401015182828c010152016100b7565b634e487b7160e01b600052604160045260246000fd5b601f909101601f19168101906001600160401b038211908210176103945760405256fe608080604052600436101561001357600080fd5b600090813560e01c908163011d4d3514610ab55750806301ffc9a714610a4d5780632b4c9f16146109de57806331e66e1e1461095b578063535565591461062e578063572b6c05146105c85780636b8f9c431461045a5780637f6e4281146103eb57806382bfefc81461037c5780638488bb4e1461030a5780638da5cb5b146102985780638f2203f61461023f578063f0d8727b146101e65763f2fde38b146100bb57600080fd5b346101e35760207ffffffffffffffffffffffffffffffffffffffffffffffffffffffffffffffffc3601126101e35760043573ffffffffffffffffffffffffffffffffffffffff81168091036101e1577fc9ed16f33ab3a66c84bfd83099ccb2a8845871e2e1c1928f63797152f0fd54cc610134610e0a565b9073ffffffffffffffffffffffffffffffffffffffff8082541692168281036101b65750828203610163578380f35b827fffffffffffffffffffffffff00000000000000000000000000000000000000008254161790557f8be0079c531659141344cd1fd0a4f28419497f9722a3daafe3b4186f6b6457e08380a33880808380f35b7f2ef4875e000000000000000000000000000000000000000000000000000000008552600452602484fd5b505b80fd5b50346101e357807ffffffffffffffffffffffffffffffffffffffffffffffffffffffffffffffffc3601126101e35760206040517f00000000000000000000000000000000000000000000000000000000000000008152f35b50346101e357807ffffffffffffffffffffffffffffffffffffffffffffffffffffffffffffffffc3601126101e35760206040517f00000000000000000000000000000000000000000000000000000000000000008152f35b50346101e357807ffffffffffffffffffffffffffffffffffffffffffffffffffffffffffffffffc3601126101e35750602073ffffffffffffffffffffffffffffffffffffffff7fc9ed16f33ab3a66c84bfd83099ccb2a8845871e2e1c1928f63797152f0fd54cc5416604051908152f35b50346101e357807ffffffffffffffffffffffffffffffffffffffffffffffffffffffffffffffffc3601126101e35750602073ffffffffffffffffffffffffffffffffffffffff7f4fb5f8cdfbce77f22b0931a39e9f476a60a0f66524b2f379e96485471eb700ad5416604051908152f35b50346101e357807ffffffffffffffffffffffffffffffffffffffffffffffffffffffffffffffffc3601126101e357602060405173ffffffffffffffffffffffffffffffffffffffff7f0000000000000000000000000000000000000000000000000000000000000000168152f35b50346101e357807ffffffffffffffffffffffffffffffffffffffffffffffffffffffffffffffffc3601126101e357602060405173ffffffffffffffffffffffffffffffffffffffff7f0000000000000000000000000000000000000000000000000000000000000000168152f35b50346101e35760207ffffffffffffffffffffffffffffffffffffffffffffffffffffffffffffffffc3601126101e35760043573ffffffffffffffffffffffffffffffffffffffff81168091036101e1577fc9ed16f33ab3a66c84bfd83099ccb2a8845871e2e1c1928f63797152f0fd54cc73ffffffffffffffffffffffffffffffffffffffff806104ea610e0a565b925416911690810361059d57507f4fb5f8cdfbce77f22b0931a39e9f476a60a0f66524b2f379e96485471eb700ad81156105755781817fdd880d24a789958a6398c99c2e54ce31bc10a638cbc42f7dd34285479ae0f855937fffffffffffffffffffffffff00000000000000000000000000000000000000006020945416179055604051908152a180f35b6004837f40b539cf000000000000000000000000000000000000000000000000000000008152fd5b7f2ef4875e000000000000000000000000000000000000000000000000000000008352600452602482fd5b50346101e35760207ffffffffffffffffffffffffffffffffffffffffffffffffffffffffffffffffc3601126101e3576004359073ffffffffffffffffffffffffffffffffffffffff821682036101e357602061062483610b7d565b6040519015158152f35b50346101e35760207ffffffffffffffffffffffffffffffffffffffffffffffffffffffffffffffffc3601126101e3576004358015610933577f000000000000000000000000000000000000000000000000000000000000000080820290828204036109065761069c610e0a565b917f000000000000000000000000000000000000000000000000000000000000000060208573ffffffffffffffffffffffffffffffffffffffff7f4fb5f8cdfbce77f22b0931a39e9f476a60a0f66524b2f379e96485471eb700ad54169560405173ffffffffffffffffffffffffffffffffffffffff848201927f23b872dd000000000000000000000000000000000000000000000000000000008452169788602483015260448201528660648201526064815261075b608482610b0d565b519082855af1156108fb5784513d6108f2575073ffffffffffffffffffffffffffffffffffffffff81163b155b6108b157508373ffffffffffffffffffffffffffffffffffffffff7f000000000000000000000000000000000000000000000000000000000000000016803b156101e15781906064604051809481937f26b3293f0000000000000000000000000000000000000000000000000000000083528960048401528760248401527f000000000000000000000000000000000000000000000000000000000000000060448401525af180156108a65761086d575b507f98e5a745dfe4f0a8952c2d09eeb25746ce9768004ab459c980d7ad1b5152cbd89160409182519182526020820152a280f35b918461089d604093967f98e5a745dfe4f0a8952c2d09eeb25746ce9768004ab459c980d7ad1b5152cbd895610b0d565b94915091610839565b6040513d87823e3d90fd5b7f5274afe700000000000000000000000000000000000000000000000000000000855273ffffffffffffffffffffffffffffffffffffffff16600452602484fd5b60011415610788565b6040513d86823e3d90fd5b6024837f4e487b710000000000000000000000000000000000000000000000000000000081526011600452fd5b6004827fb15e3914000000000000000000000000000000000000000000000000000000008152fd5b50346101e357807ffffffffffffffffffffffffffffffffffffffffffffffffffffffffffffffffc3601126101e3576040601f917fffffffffffffffffffffffffffffffffffffffffffffffffffffffffffffffe06109b8610ca8565b809591938551968795602087528160208801528787013785828601015201168101030190f35b50346101e357807ffffffffffffffffffffffffffffffffffffffffffffffffffffffffffffffffc3601126101e357602060405173ffffffffffffffffffffffffffffffffffffffff7f0000000000000000000000000000000000000000000000000000000000000000168152f35b50346101e35760207ffffffffffffffffffffffffffffffffffffffffffffffffffffffffffffffffc3601126101e357600435907fffffffff00000000000000000000000000000000000000000000000000000000821682036101e357602061062483610bdc565b9050346101e157817ffffffffffffffffffffffffffffffffffffffffffffffffffffffffffffffffc3601126101e1576020907f00000000000000000000000000000000000000000000000000000000000000008152f35b90601f7fffffffffffffffffffffffffffffffffffffffffffffffffffffffffffffffe0910116810190811067ffffffffffffffff821117610b4e57604052565b7f4e487b7100000000000000000000000000000000000000000000000000000000600052604160045260246000fd5b73ffffffffffffffffffffffffffffffffffffffff7f000000000000000000000000000000000000000000000000000000000000000016908115610bd55773ffffffffffffffffffffffffffffffffffffffff161490565b5050600090565b7fffffffff00000000000000000000000000000000000000000000000000000000167fffffffff000000000000000000000000000000000000000000000000000000008114610c85577f01ffc9a7000000000000000000000000000000000000000000000000000000008114610c7f576000527fca9d3e17f264b0f3984e2634e94adb37fa3e6a8103f06aeae6fa59e21c769f5d60205260ff6040600020541690565b50600190565b50600090565b90816020910312610ca357518015158103610ca35790565b600080fd5b73ffffffffffffffffffffffffffffffffffffffff7f0000000000000000000000000000000000000000000000000000000000000000168015610df8573233148015610e00575b610df857803314908115610d3b575b50610d0a576000903690565b7fffffffffffffffffffffffffffffffffffffffffffffffffffffffffffffffec360190368211610ca35760009190565b6040517f019a20280000000000000000000000000000000000000000000000000000000081527fffffffffffffffffffffffffffffffffffffffffffffffffffffffffffffffec36013560601c60048201523360248201523060448201529150602090829060649082905afa908115610dec57600091610dbd575b5038610cfe565b610ddf915060203d602011610de5575b610dd78183610b0d565b810190610c8b565b38610db6565b503d610dcd565b6040513d6000823e3d90fd5b506000903690565b5060183610610cef565b73ffffffffffffffffffffffffffffffffffffffff7f0000000000000000000000000000000000000000000000000000000000000000168015610f26573233148015610f2b575b610f26577fffffffffffffffffffffffffffffffffffffffffffffffffffffffffffffffec36013560601c90803314908115610e95575b50610e9257503390565b90565b6040517f019a202800000000000000000000000000000000000000000000000000000000815273ffffffffffffffffffffffffffffffffffffffff841660048201523360248201523060448201529150602090829060649082905afa908115610dec57600091610f07575b5038610e88565b610f20915060203d602011610de557610dd78183610b0d565b38610f00565b503390565b5060183610610e5156fea2646970667358221220a55e6361f6d2a955a2c12f8104a09f003e362d0c9649c517549ae0295761b79b64736f6c634300081e0033",
  "linkReferences": {},
  "deployedLinkReferences": {}
}