{
  "_format": "hh-sol-artifact-1",
  "contractName": "ORBNFTMock",
  "sourceName": "contracts/mocks/token/ERC1155/ORBNFTMock.sol",
  "abi": [
    {
      "inputs": [
        {
          "internalType": "contract IOperatorFilterRegistry",
          "name": "filterRegistry",
          "type": "address"
        },
        {
          "internalType": "string",
          "name": "tokenName",
          "type": "string"
        },
        {
          "internalType": "string",
          "name": "tokenSymbol",
          "type": "string"
        }
      ],
      "stateMutability": "nonpayable",
      "type": "constructor"
    },
    {
      "inputs": [
        {
          "internalType": "uint256",
          "name": "percentage",
          "type": "uint256"
        }
      ],
      "name": "IncorrectRoyaltyPercentage",
      "type": "error"
    },
    {
      "inputs": [],
      "name": "IncorrectRoyaltyReceiver",
      "type": "error"
    },
    {
      "inputs": [
        {
          "internalType": "address",
          "name": "operator",
          "type": "address"
        }
      ],
      "name": "OperatorNotAllowed",
      "type": "error"
    },
    {
      "anonymous": false,
      "inputs": [
        {
          "indexed": true,
          "internalType": "address",
          "name": "owner",
          "type": "address"
        },
        {
          "indexed": true,
          "internalType": "address",
          "name": "operator",
          "type": "address"
        },
        {
          "indexed": false,
          "internalType": "bool",
          "name": "approved",
          "type": "bool"
        }
      ],
      "name": "ApprovalForAll",
      "type": "event"
    },
    {
      "anonymous": false,
      "inputs": [
        {
          "indexed": false,
          "internalType": "string",
          "name": "baseMetadataURI",
          "type": "string"
        }
      ],
      "name": "BaseMetadataURISet",
      "type": "event"
    },
    {
      "anonymous": false,
      "inputs": [
        {
          "indexed": true,
          "internalType": "address",
          "name": "previousOwner",
          "type": "address"
        },
        {
          "indexed": true,
          "internalType": "address",
          "name": "newOwner",
          "type": "address"
        }
      ],
      "name": "OwnershipTransferred",
      "type": "event"
    },
    {
      "anonymous": false,
      "inputs": [
        {
          "indexed": false,
          "internalType": "bytes32",
          "name": "role",
          "type": "bytes32"
        },
        {
          "indexed": false,
          "internalType": "address",
          "name": "account",
          "type": "address"
        },
        {
          "indexed": false,
          "internalType": "address",
          "name": "operator",
          "type": "address"
        }
      ],
      "name": "RoleGranted",
      "type": "event"
    },
    {
      "anonymous": false,
      "inputs": [
        {
          "indexed": false,
          "internalType": "bytes32",
          "name": "role",
          "type": "bytes32"
        },
        {
          "indexed": false,
          "internalType": "address",
          "name": "account",
          "type": "address"
        },
        {
          "indexed": false,
          "internalType": "address",
          "name": "operator",
          "type": "address"
        }
      ],
      "name": "RoleRevoked",
      "type": "event"
    },
    {
      "anonymous": false,
      "inputs": [
        {
          "indexed": true,
          "internalType": "address",
          "name": "operator",
          "type": "address"
        },
        {
          "indexed": true,
          "internalType": "address",
          "name": "from",
          "type": "address"
        },
        {
          "indexed": true,
          "internalType": "address",
          "name": "to",
          "type": "address"
        },
        {
          "indexed": false,
          "internalType": "uint256[]",
          "name": "ids",
          "type": "uint256[]"
        },
        {
          "indexed": false,
          "internalType": "uint256[]",
          "name": "values",
          "type": "uint256[]"
        }
      ],
      "name": "TransferBatch",
      "type": "event"
    },
    {
      "anonymous": false,
      "inputs": [
        {
          "indexed": true,
          "internalType": "address",
          "name": "operator",
          "type": "address"
        },
        {
          "indexed": true,
          "internalType": "address",
          "name": "from",
          "type": "address"
        },
        {
          "indexed": true,
          "internalType": "address",
          "name": "to",
          "type": "address"
        },
        {
          "indexed": false,
          "internalType": "uint256",
          "name": "id",
          "type": "uint256"
        },
        {
          "indexed": false,
          "internalType": "uint256",
          "name": "value",
          "type": "uint256"
        }
      ],
      "name": "TransferSingle",
      "type": "event"
    },
    {
      "anonymous": false,
      "inputs": [
        {
          "indexed": false,
          "internalType": "string",
          "name": "value",
          "type": "string"
        },
        {
          "indexed": true,
          "internalType": "uint256",
          "name": "id",
          "type": "uint256"
        }
      ],
      "name": "URI",
      "type": "event"
    },
    {
      "inputs": [],
      "name": "MINTER_ROLE",
      "outputs": [
        {
          "internalType": "bytes32",
          "name": "",
          "type": "bytes32"
        }
      ],
      "stateMutability": "view",
      "type": "function"
    },
    {
      "inputs": [],
      "name": "ROYALTY_FEE_DENOMINATOR",
      "outputs": [
        {
          "internalType": "uint256",
          "name": "",
          "type": "uint256"
        }
      ],
      "stateMutability": "view",
      "type": "function"
    },
    {
      "inputs": [],
      "name": "__msgData",
      "outputs": [
        {
          "internalType": "bytes",
          "name": "",
          "type": "bytes"
        }
      ],
      "stateMutability": "view",
      "type": "function"
    },
    {
      "inputs": [
        {
          "internalType": "address",
          "name": "owner",
          "type": "address"
        },
        {
          "internalType": "uint256",
          "name": "id",
          "type": "uint256"
        }
      ],
      "name": "balanceOf",
      "outputs": [
        {
          "internalType": "uint256",
          "name": "balance",
          "type": "uint256"
        }
      ],
      "stateMutability": "view",
      "type": "function"
    },
    {
      "inputs": [
        {
          "internalType": "address[]",
          "name": "owners",
          "type": "address[]"
        },
        {
          "internalType": "uint256[]",
          "name": "ids",
          "type": "uint256[]"
        }
      ],
      "name": "balanceOfBatch",
      "outputs": [
        {
          "internalType": "uint256[]",
          "name": "balances",
          "type": "uint256[]"
        }
      ],
      "stateMutability": "view",
      "type": "function"
    },
    {
      "inputs": [],
      "name": "baseMetadataURI",
      "outputs": [
        {
          "internalType": "string",
          "name": "baseURI",
          "type": "string"
        }
      ],
      "stateMutability": "view",
      "type": "function"
    },
    {
      "inputs": [
        {
          "internalType": "address",
          "name": "from",
          "type": "address"
        },
        {
          "internalType": "uint256[]",
          "name": "ids",
          "type": "uint256[]"
        },
        {
          "internalType": "uint256[]",
          "name": "values",
          "type": "uint256[]"
        }
      ],
      "name": "batchBurnFrom",
      "outputs": [],
      "stateMutability": "nonpayable",
      "type": "function"
    },
    {
      "inputs": [
        {
          "internalType": "address",
          "name": "from",
          "type": "address"
        },
        {
          "internalType": "uint256",
          "name": "id",
          "type": "uint256"
        },
        {
          "internalType": "uint256",
          "name": "value",
          "type": "uint256"
        }
      ],
      "name": "burnFrom",
      "outputs": [],
      "stateMutability": "nonpayable",
      "type": "function"
    },
    {
      "inputs": [
        {
          "internalType": "bytes32",
          "name": "role",
          "type": "bytes32"
        },
        {
          "internalType": "address",
          "name": "account",
          "type": "address"
        }
      ],
      "name": "grantRole",
      "outputs": [],
      "stateMutability": "nonpayable",
      "type": "function"
    },
    {
      "inputs": [
        {
          "internalType": "bytes32",
          "name": "role",
          "type": "bytes32"
        },
        {
          "internalType": "address",
          "name": "account",
          "type": "address"
        }
      ],
      "name": "hasRole",
      "outputs": [
        {
          "internalType": "bool",
          "name": "",
          "type": "bool"
        }
      ],
      "stateMutability": "view",
      "type": "function"
    },
    {
      "inputs": [
        {
          "internalType": "address",
          "name": "owner",
          "type": "address"
        },
        {
          "internalType": "address",
          "name": "operator",
          "type": "address"
        }
      ],
      "name": "isApprovedForAll",
      "outputs": [
        {
          "internalType": "bool",
          "name": "approvedForAll",
          "type": "bool"
        }
      ],
      "stateMutability": "view",
      "type": "function"
    },
    {
      "inputs": [],
      "name": "name",
      "outputs": [
        {
          "internalType": "string",
          "name": "",
          "type": "string"
        }
      ],
      "stateMutability": "view",
      "type": "function"
    },
    {
      "inputs": [],
      "name": "operatorFilterRegistry",
      "outputs": [
        {
          "internalType": "contract IOperatorFilterRegistry",
          "name": "",
          "type": "address"
        }
      ],
      "stateMutability": "view",
      "type": "function"
    },
    {
      "inputs": [],
      "name": "owner",
      "outputs": [
        {
          "internalType": "address",
          "name": "",
          "type": "address"
        }
      ],
      "stateMutability": "view",
      "type": "function"
    },
    {
      "inputs": [
        {
          "internalType": "address[]",
          "name": "accounts",
          "type": "address[]"
        },
        {
          "internalType": "contract IERC20[]",
          "name": "tokens",
          "type": "address[]"
        },
        {
          "internalType": "uint256[]",
          "name": "amounts",
          "type": "uint256[]"
        }
      ],
      "name": "recoverERC20s",
      "outputs": [],
      "stateMutability": "nonpayable",
      "type": "function"
    },
    {
      "inputs": [
        {
          "internalType": "address[]",
          "name": "accounts",
          "type": "address[]"
        },
        {
          "internalType": "contract IERC721[]",
          "name": "contracts",
          "type": "address[]"
        },
        {
          "internalType": "uint256[]",
          "name": "tokenIds",
          "type": "uint256[]"
        }
      ],
      "name": "recoverERC721s",
      "outputs": [],
      "stateMutability": "nonpayable",
      "type": "function"
    },
    {
      "inputs": [
        {
          "internalType": "address payable[]",
          "name": "accounts",
          "type": "address[]"
        },
        {
          "internalType": "uint256[]",
          "name": "amounts",
          "type": "uint256[]"
        }
      ],
      "name": "recoverETH",
      "outputs": [],
      "stateMutability": "nonpayable",
      "type": "function"
    },
    {
      "inputs": [
        {
          "internalType": "bytes32",
          "name": "role",
          "type": "bytes32"
        }
      ],
      "name": "renounceRole",
      "outputs": [],
      "stateMutability": "nonpayable",
      "type": "function"
    },
    {
      "inputs": [
        {
          "internalType": "bytes32",
          "name": "role",
          "type": "bytes32"
        },
        {
          "internalType": "address",
          "name": "account",
          "type": "address"
        }
      ],
      "name": "revokeRole",
      "outputs": [],
      "stateMutability": "nonpayable",
      "type": "function"
    },
    {
      "inputs": [
        {
          "internalType": "uint256",
          "name": "tokenId",
          "type": "uint256"
        },
        {
          "internalType": "uint256",
          "name": "salePrice",
          "type": "uint256"
        }
      ],
      "name": "royaltyInfo",
      "outputs": [
        {
          "internalType": "address",
          "name": "receiver",
          "type": "address"
        },
        {
          "internalType": "uint256",
          "name": "royaltyAmount",
          "type": "uint256"
        }
      ],
      "stateMutability": "view",
      "type": "function"
    },
    {
      "inputs": [
        {
          "internalType": "address",
          "name": "to",
          "type": "address"
        },
        {
          "internalType": "uint256[]",
          "name": "ids",
          "type": "uint256[]"
        },
        {
          "internalType": "uint256[]",
          "name": "values",
          "type": "uint256[]"
        },
        {
          "internalType": "bytes",
          "name": "data",
          "type": "bytes"
        }
      ],
      "name": "safeBatchMint",
      "outputs": [],
      "stateMutability": "nonpayable",
      "type": "function"
    },
    {
      "inputs": [
        {
          "internalType": "address",
          "name": "from",
          "type": "address"
        },
        {
          "internalType": "address",
          "name": "to",
          "type": "address"
        },
        {
          "internalType": "uint256[]",
          "name": "ids",
          "type": "uint256[]"
        },
        {
          "internalType": "uint256[]",
          "name": "values",
          "type": "uint256[]"
        },
        {
          "internalType": "bytes",
          "name": "data",
          "type": "bytes"
        }
      ],
      "name": "safeBatchTransferFrom",
      "outputs": [],
      "stateMutability": "nonpayable",
      "type": "function"
    },
    {
      "inputs": [
        {
          "internalType": "address",
          "name": "to",
          "type": "address"
        },
        {
          "internalType": "uint256",
          "name": "id",
          "type": "uint256"
        },
        {
          "internalType": "uint256",
          "name": "value",
          "type": "uint256"
        },
        {
          "internalType": "bytes",
          "name": "data",
          "type": "bytes"
        }
      ],
      "name": "safeMint",
      "outputs": [],
      "stateMutability": "nonpayable",
      "type": "function"
    },
    {
      "inputs": [
        {
          "internalType": "address",
          "name": "from",
          "type": "address"
        },
        {
          "internalType": "address",
          "name": "to",
          "type": "address"
        },
        {
          "internalType": "uint256",
          "name": "id",
          "type": "uint256"
        },
        {
          "internalType": "uint256",
          "name": "value",
          "type": "uint256"
        },
        {
          "internalType": "bytes",
          "name": "data",
          "type": "bytes"
        }
      ],
      "name": "safeTransferFrom",
      "outputs": [],
      "stateMutability": "nonpayable",
      "type": "function"
    },
    {
      "inputs": [
        {
          "internalType": "address",
          "name": "operator",
          "type": "address"
        },
        {
          "internalType": "bool",
          "name": "approved",
          "type": "bool"
        }
      ],
      "name": "setApprovalForAll",
      "outputs": [],
      "stateMutability": "nonpayable",
      "type": "function"
    },
    {
      "inputs": [
        {
          "internalType": "string",
          "name": "baseURI",
          "type": "string"
        }
      ],
      "name": "setBaseMetadataURI",
      "outputs": [],
      "stateMutability": "nonpayable",
      "type": "function"
    },
    {
      "inputs": [
        {
          "internalType": "uint256",
          "name": "percentage",
          "type": "uint256"
        }
      ],
      "name": "setRoyaltyPercentage",
      "outputs": [],
      "stateMutability": "nonpayable",
      "type": "function"
    },
    {
      "inputs": [
        {
          "internalType": "address",
          "name": "receiver",
          "type": "address"
        }
      ],
      "name": "setRoyaltyReceiver",
      "outputs": [],
      "stateMutability": "nonpayable",
      "type": "function"
    },
    {
      "inputs": [
        {
          "internalType": "bytes4",
          "name": "interfaceId",
          "type": "bytes4"
        }
      ],
      "name": "supportsInterface",
      "outputs": [
        {
          "internalType": "bool",
          "name": "",
          "type": "bool"
        }
      ],
      "stateMutability": "view",
      "type": "function"
    },
    {
      "inputs": [],
      "name": "symbol",
      "outputs": [
        {
          "internalType": "string",
          "name": "",
          "type": "string"
        }
      ],
      "stateMutability": "view",
      "type": "function"
    },
    {
      "inputs": [
        {
          "internalType": "address",
          "name": "newOwner",
          "type": "address"
        }
      ],
      "name": "transferOwnership",
      "outputs": [],
      "stateMutability": "nonpayable",
      "type": "function"
    },
    {
      "inputs": [
        {
          "internalType": "contract IOperatorFilterRegistry",
          "name": "registry",
          "type": "address"
        }
      ],
      "name": "updateOperatorFilterRegistry",
      "outputs": [],
      "stateMutability": "nonpayable",
      "type": "function"
    },
    {
      "inputs": [
        {
          "internalType": "uint256",
          "name": "id",
          "type": "uint256"
        }
      ],
      "name": "uri",
      "outputs": [
        {
          "internalType": "string",
          "name": "metadataURI",
          "type": "string"
        }
      ],
      "stateMutability": "view",
      "type": "function"
    }
  ],
  "bytecode": "0x60806040523480156200001157600080fd5b506040516200390d3803806200390d833981016040819052620000349162000476565b82828282336200006781620000536200012a60201b62000b6e1760201c565b6200016060201b62000b9c1790919060201c565b506200007d620001f360201b62000bfc1760201c565b620000926200021860201b62000c131760201c565b620000a76200023b60201b62000c281760201c565b620000bc6200025e60201b62000c3d1760201c565b620000d16200028160201b62000c521760201c565b620000ff81620000eb620002a460201b62000c671760201c565b620002d460201b62000c951790919060201c565b5060006200010e83826200058f565b5060016200011d82826200058f565b505050505050506200067d565b6000806200015a60017fc9ed16f33ab3a66c84bfd83099ccb2a8845871e2e1c1928f63797152f0fd54cd6200065b565b92915050565b6001600160a01b03811615620001b75781546001600160a01b0319166001600160a01b03821690811783556040516000907f8be0079c531659141344cd1fd0a4f28419497f9722a3daafe3b4186f6b6457e0908290a35b620001ef6307f5828d60e41b6001620001da620002f160201b62000cb21760201c565b6200032160201b62000ce0179092919060201c565b5050565b62000216631464324b60e21b6001620001da620002f160201b62000cb21760201c565b565b6200021663921ed8d160e01b6001620001da620002f160201b62000cb21760201c565b620002166303a24d0760e21b6001620001da620002f160201b62000cb21760201c565b6200021663152a902d60e11b6001620001da620002f160201b62000cb21760201c565b62000216636cdb3d1360e11b6001620001da620002f160201b62000cb21760201c565b6000806200015a60017f609b85bcafa81ecfaf3ff62cdde2c6c9082a68dbe4922f07399c706bdeb7cd316200065b565b81546001600160a01b0319166001600160a01b0391909116179055565b6000806200015a60017fca9d3e17f264b0f3984e2634e94adb37fa3e6a8103f06aeae6fa59e21c769f5e6200065b565b600160e01b6001600160e01b0319831601620003835760405162461bcd60e51b815260206004820152601f60248201527f496e74657266616365446574656374696f6e3a2077726f6e672076616c756500604482015260640160405180910390fd5b6001600160e01b03199190911660009081526020929092526040909120805460ff1916911515919091179055565b634e487b7160e01b600052604160045260246000fd5b600082601f830112620003d957600080fd5b81516001600160401b0380821115620003f657620003f6620003b1565b604051601f8301601f19908116603f01168101908282118183101715620004215762000421620003b1565b816040528381526020925086838588010111156200043e57600080fd5b600091505b8382101562000462578582018301518183018401529082019062000443565b600093810190920192909252949350505050565b6000806000606084860312156200048c57600080fd5b83516001600160a01b0381168114620004a457600080fd5b60208501519093506001600160401b0380821115620004c257600080fd5b620004d087838801620003c7565b93506040860151915080821115620004e757600080fd5b50620004f686828701620003c7565b9150509250925092565b600181811c908216806200051557607f821691505b6020821081036200053657634e487b7160e01b600052602260045260246000fd5b50919050565b601f8211156200058a57600081815260208120601f850160051c81016020861015620005655750805b601f850160051c820191505b81811015620005865782815560010162000571565b5050505b505050565b81516001600160401b03811115620005ab57620005ab620003b1565b620005c381620005bc845462000500565b846200053c565b602080601f831160018114620005fb5760008415620005e25750858301515b600019600386901b1c1916600185901b17855562000586565b600085815260208120601f198616915b828110156200062c578886015182559484019460019091019084016200060b565b50858210156200064b5787850151600019600388901b60f8161c191681555b5050505050600190811b01905550565b818103818111156200015a57634e487b7160e01b600052601160045260246000fd5b613280806200068d6000396000f3fe608060405234801561001057600080fd5b506004361061018a5760003560e01c8062fdd58e1461018f57806301ffc9a7146101b557806306fdde03146101d85780630d6a5bbb146101ed5780630e89341c14610202578063114ba8ee14610215578063124d91e5146102285780632a55205a1461023b5780632eb2c2d61461025c5780632f2ff15d1461026f57806331e66e1e146102825780634e1273f4146102935780635b2bd79e146102b35780635cfa9297146102bb57806361ba27da146102ce57806373c8a958146102e15780637e518ec8146102f457806380534934146103075780638bb9c5bf1461031a5780638da5cb5b1461032d5780638dc251e31461034257806391d148541461035557806395d89b4114610368578063a22cb46514610370578063b0ccc31e14610383578063c3666c361461038b578063d53913931461039e578063d547741f146103ae578063e1a8bf2c146103c1578063e985e9c5146103cb578063f242432a146103de578063f2fde38b146103f1578063f7ba94bd14610404575b600080fd5b6101a261019d3660046124c8565b610417565b6040519081526020015b60405180910390f35b6101c86101c336600461250a565b610436565b60405190151581526020016101ac565b6101e061044a565b6040516101ac919061257e565b6102006101fb366004612616565b6104d8565b005b6101e06102103660046126c2565b6105b1565b6102006102233660046126db565b6105c5565b6102006102363660046126f8565b6105ed565b61024e61024936600461272d565b61060a565b6040516101ac92919061274f565b61020061026a366004612768565b61062d565b61020061027d366004612826565b61066f565b6000366040516101ac92919061287f565b6102a66102a1366004612893565b610692565b6040516101ac9190612939565b6101e06106b7565b6102006102c936600461294c565b6106ce565b6102006102dc3660046126c2565b61073e565b6102006102ef3660046129b5565b610759565b610200610302366004612a4e565b610822565b610200610315366004612a8f565b610843565b6102006103283660046126c2565b610866565b61033561087a565b6040516101ac9190612b00565b6102006103503660046126db565b610894565b6101c8610363366004612826565b6108af565b6101e06108c5565b61020061037e366004612b22565b6108d2565b610335610900565b6102006103993660046129b5565b61090d565b6101a26536b4b73a32b960d11b81565b6102006103bc366004612826565b610a34565b6101a2620186a081565b6101c86103d9366004612b50565b610a57565b6102006103ec366004612b7e565b610a98565b6102006103ff3660046126db565b610acd565b610200610412366004612893565b610ae1565b600061042d8383610426610d6b565b9190610d99565b90505b92915050565b600061043082610444610cb2565b90610e19565b6000805461045790612be7565b80601f016020809104026020016040519081016040528092919081815260200182805461048390612be7565b80156104d05780601f106104a5576101008083540402835291602001916104d0565b820191906000526020600020905b8154815290600101906020018083116104b357829003601f168201915b505050505081565b336104f66536b4b73a32b960d11b826104ef610e79565b9190610ea7565b6105a7818989898080602002602001604051908101604052809392919081815260200183836020028082843760009201919091525050604080516020808d0282810182019093528c82529093508c92508b91829185019084908082843760009201919091525050604080516020601f8c018190048102820181019092528a815292508a915089908190840183828082843760009201919091525061059d9250610d6b915050565b9493929190610ef5565b5050505050505050565b6060610430826105bf610ffa565b90611028565b6105d8335b6105d2610b6e565b9061105c565b6105ea816105e4610c67565b90610c95565b50565b610605338484846105fc610d6b565b93929190611088565b505050565b600080610621848461061a6110fc565b919061112a565b915091505b9250929050565b33610642818a61063b610c67565b91906111b1565b610664818a8a8a8a8a8a8a8a610656610d6b565b9897969594939291906111d4565b505050505050505050565b3361067c816105d2610b6e565b61060583838361068a610e79565b9291906113a2565b60606106ac858585856106a3610d6b565b9392919061141f565b90505b949350505050565b60606106c96106c4610ffa565b611512565b905090565b336106e56536b4b73a32b960d11b826104ef610e79565b6107368187878787878080601f01602080910402602001604051908101604052809392919081815260200183838082843760009201919091525061072c9250610d6b915050565b94939291906115a8565b505050505050565b610747336105ca565b6105ea816107536110fc565b9061163a565b610762336105ca565b84838114801561077157508082145b6107965760405162461bcd60e51b815260040161078d90612c21565b60405180910390fd5b60005b8181146105a75761081a8888838181106107b5576107b5612c58565b90506020020160208101906107ca91906126db565b8585848181106107dc576107dc612c58565b905060200201358888858181106107f5576107f5612c58565b905060200201602081019061080a91906126db565b6001600160a01b03169190611684565b600101610799565b61082b336105ca565b61083f8282610838610ffa565b91906116da565b5050565b61085f338686868686610854610d6b565b959493929190611725565b5050505050565b6105ea3382610873610e79565b919061180f565b60006106c9610887610b6e565b546001600160a01b031690565b61089d336105ca565b6105ea816108a96110fc565b90611864565b600061042d83836108be610e79565b919061188b565b6001805461045790612be7565b80156108ea576108ea826108e4610c67565b906118b2565b61083f3383836108f8610d6b565b9291906118bc565b60006106c9610887610c67565b610916336105ca565b84838114801561092557508082145b6109415760405162461bcd60e51b815260040161078d90612c21565b60005b8181146105a75785858281811061095d5761095d612c58565b905060200201602081019061097291906126db565b6001600160a01b03166323b872dd308a8a8581811061099357610993612c58565b90506020020160208101906109a891906126db565b8787868181106109ba576109ba612c58565b6040516001600160e01b031960e088901b1681526001600160a01b03958616600482015294909316602485015250602090910201356044820152606401600060405180830381600087803b158015610a1157600080fd5b505af1158015610a25573d6000803e3d6000fd5b50505050806001019050610944565b33610a41816105d2610b6e565b610605838383610a4f610e79565b92919061198d565b600061042d8383610a66610d6b565b91906001600160a01b039182166000908152600193909301602090815260408085209290931684525290205460ff1690565b33610aa6818861063b610c67565b610ac481888888888888610ab8610d6b565b969594939291906119e7565b50505050505050565b6105ea3382610ada610b6e565b9190611aea565b610aea336105ca565b82818114610b0a5760405162461bcd60e51b815260040161078d90612c21565b60005b81811461073657610b66848483818110610b2957610b29612c58565b90506020020135878784818110610b4257610b42612c58565b9050602002016020810190610b5791906126db565b6001600160a01b031690611b6e565b600101610b0d565b60008061043060017fc9ed16f33ab3a66c84bfd83099ccb2a8845871e2e1c1928f63797152f0fd54cd612c84565b6001600160a01b03811615610be05781546001600160a01b0319166001600160a01b038216908117835560405160009060008051602061320b833981519152908290a35b61083f6307f5828d60e41b6001610bf5610cb2565b9190610ce0565b610c11631464324b60e21b6001610bf5610cb2565b565b610c1163921ed8d160e01b6001610bf5610cb2565b610c116303a24d0760e21b6001610bf5610cb2565b610c1163152a902d60e11b6001610bf5610cb2565b610c11636cdb3d1360e11b6001610bf5610cb2565b60008061043060017f609b85bcafa81ecfaf3ff62cdde2c6c9082a68dbe4922f07399c706bdeb7cd31612c84565b81546001600160a01b0319166001600160a01b0391909116179055565b60008061043060017fca9d3e17f264b0f3984e2634e94adb37fa3e6a8103f06aeae6fa59e21c769f5e612c84565b600160e01b6001600160e01b0319831601610d3d5760405162461bcd60e51b815260206004820152601f60248201527f496e74657266616365446574656374696f6e3a2077726f6e672076616c756500604482015260640161078d565b6001600160e01b03199190911660009081526020929092526040909120805460ff1916911515919091179055565b60008061043060017f5ccf5846fa27a68fafc8e588671a68f5e67c2f9b56af4263806a4d71735e8613612c84565b60006001600160a01b038316610df15760405162461bcd60e51b815260206004820152601e60248201527f455243313135353a2062616c616e6365206f6620616464726573732830290000604482015260640161078d565b506000908152602092835260408082206001600160a01b039390931682529190925290205490565b6000600160e01b6001600160e01b0319831601610e3857506000610430565b63fe00365960e01b6001600160e01b0319831601610e5857506001610430565b506001600160e01b0319166000908152602091909152604090205460ff1690565b60008061043060017fc8827d3282af6f37b64c3e9e6f3ac9df286ab0bb0fccd6f8661bf19adb368b23612c84565b610eb283838361188b565b61060557610ebf82611c84565b604051602001610ecf9190612c97565b60408051601f198184030181529082905262461bcd60e51b825261078d9160040161257e565b6001600160a01b038416610f1b5760405162461bcd60e51b815260040161078d90612ce7565b825182518114610f3d5760405162461bcd60e51b815260040161078d90612d1c565b60005b818114610f8d57610f858887878481518110610f5e57610f5e612c58565b6020026020010151878581518110610f7857610f78612c58565b6020026020010151611da9565b600101610f40565b50846001600160a01b031660006001600160a01b0316876001600160a01b03166000805160206131cb8339815191528787604051610fcc929190612d52565b60405180910390a4610fe6856001600160a01b0316611e19565b15610ac457610ac486600087878787611e28565b60008061043060017fe94434e3c6b941c5d90218142fadcc69cb2e13723993540bfa1c131dd1d3475a612c84565b60608261103483611ef5565b604051602001611045929190612d80565b604051602081830303815290604052905092915050565b81546001600160a01b0382811691161461083f5760405162461bcd60e51b815260040161078d90612e07565b611093858486611f87565b6110af5760405162461bcd60e51b815260040161078d90612e39565b6110bb85848484611fd5565b60408051838152602081018390526000916001600160a01b0386811692908816916000805160206131eb833981519152910160405180910390a45050505050565b60008061043060017f2c0cf10337caabbd02dcf226f05f5fd19a0919a41a8df8958c39b80007826858612c84565b82546001600160a01b03811690600090600160a01b90046001600160601b0316831580611155575080155b1561116357600091506111a8565b620186a084101561118d57620186a061117c8286612e6f565b6111869190612e86565b91506111a8565b8061119b620186a086612e86565b6111a59190612e6f565b91505b50935093915050565b806001600160a01b0316826001600160a01b03161461060557610605838361201e565b6001600160a01b0387166111fa5760405162461bcd60e51b815260040161078d90612ea8565b8483811461121a5760405162461bcd60e51b815260040161078d90612d1c565b6112258b8a8c611f87565b6112415760405162461bcd60e51b815260040161078d90612e39565b60005b818114611290576112888c8b8b8b8b8681811061126357611263612c58565b905060200201358a8a8781811061127c5761127c612c58565b905060200201356120d6565b600101611244565b50876001600160a01b0316896001600160a01b03168b6001600160a01b03166000805160206131cb8339815191528a8a8a8a6040516112d29493929190612f11565b60405180910390a46112ec886001600160a01b0316611e19565b15611395576113958a8a8a8a8a8080602002602001604051908101604052809392919081815260200183836020028082843760009201919091525050604080516020808e0282810182019093528d82529093508d92508c91829185019084908082843760009201919091525050604080516020601f8d018190048102820181019092528b815292508b91508a9081908401838280828437600092019190915250611e2892505050565b5050505050505050505050565b6113ad84848461188b565b611419576000838152602085815260408083206001600160a01b038616845290915290819020805460ff19166001179055517f2f8788117e7eff1d82e926ec794901d17c78024a50270940304540a733656f0d9061141090859085908590612f38565b60405180910390a15b50505050565b6060838281146114415760405162461bcd60e51b815260040161078d90612d1c565b846001600160401b0381111561145957611459612f57565b604051908082528060200260200182016040528015611482578160200160208202803683370190505b50915060005b818114611507576114e28787838181106114a4576114a4612c58565b90506020020160208101906114b991906126db565b8686848181106114cb576114cb612c58565b905060200201358a610d999092919063ffffffff16565b8382815181106114f4576114f4612c58565b6020908102919091010152600101611488565b505095945050505050565b606081600001805461152390612be7565b80601f016020809104026020016040519081016040528092919081815260200182805461154f90612be7565b801561159c5780601f106115715761010080835404028352916020019161159c565b820191906000526020600020905b81548152906001019060200180831161157f57829003601f168201915b50505050509050919050565b6001600160a01b0384166115ce5760405162461bcd60e51b815260040161078d90612ce7565b6115da86858585611da9565b60408051848152602081018490526001600160a01b0380871692600092918916916000805160206131eb833981519152910160405180910390a4611626846001600160a01b0316611e19565b1561073657610736856000868686866121b4565b620186a081111561166157604051630ebff1b160e21b81526004810182905260240161078d565b81546001600160601b03909116600160a01b026001600160a01b03909116179055565b6106058363a9059cbb60e01b84846040516024016116a392919061274f565b60408051601f198184030181529190526020810180516001600160e01b03166001600160e01b0319909316929092179091526121ea565b826116e6828483612fb3565b507f04b1dc5c136a3ce9fded8db0ce3d3366c58764ec3a8e4c2b9e52e4ddfe5ebbf7828260405161171892919061287f565b60405180910390a1505050565b828181146117455760405162461bcd60e51b815260040161078d90612d1c565b611750888789611f87565b61176c5760405162461bcd60e51b815260040161078d90612e39565b60005b8181146117ba576117b2898888888581811061178d5761178d612c58565b905060200201358787868181106117a6576117a6612c58565b90506020020135611fd5565b60010161176f565b5060006001600160a01b0316866001600160a01b0316886001600160a01b03166000805160206131cb833981519152888888886040516117fd9493929190612f11565b60405180910390a45050505050505050565b61181a838284610ea7565b6000818152602084815260408083206001600160a01b038616845290915290819020805460ff191690555160008051602061322b8339815191529061171890839085908190612f38565b6001600160a01b038116610c9557604051630dfc369960e31b815260040160405180910390fd5b6000918252602092835260408083206001600160a01b039290921683529252205460ff1690565b61083f828261201e565b826001600160a01b0316826001600160a01b03160361191d5760405162461bcd60e51b815260206004820152601e60248201527f455243313135353a2073656c662d617070726f76616c20666f7220616c6c0000604482015260640161078d565b6001600160a01b038381166000818152600187016020908152604080832094871680845294825291829020805460ff191686151590811790915591519182527f17307eab39ab6107e8899845ad3d59bd9653f200f220920489ca2b5937696c31910160405180910390a350505050565b61199884848461188b565b15611419576000838152602085815260408083206001600160a01b038616845290915290819020805460ff191690555160008051602061322b8339815191529061141090859085908590612f38565b6001600160a01b038516611a0d5760405162461bcd60e51b815260040161078d90612ea8565b611a18888789611f87565b611a345760405162461bcd60e51b815260040161078d90612e39565b611a4188878787876120d6565b846001600160a01b0316866001600160a01b0316886001600160a01b03166000805160206131eb8339815191528787604051611a87929190918252602082015260400190565b60405180910390a4611aa1856001600160a01b0316611e19565b156105a7576105a7878787878787878080601f0160208091040260200160405190810160405280939291908181526020018383808284376000920191909152506121b492505050565b82546001600160a01b039081169083168114611b185760405162461bcd60e51b815260040161078d90612e07565b816001600160a01b0316816001600160a01b0316146114195783546001600160a01b0319166001600160a01b0383811691821786556040519083169060008051602061320b83398151915290600090a350505050565b80471015611bbe5760405162461bcd60e51b815260206004820152601d60248201527f416464726573733a20696e73756666696369656e742062616c616e6365000000604482015260640161078d565b6000826001600160a01b03168260405160006040518083038185875af1925050503d8060008114611c0b576040519150601f19603f3d011682016040523d82523d6000602084013e611c10565b606091505b50509050806106055760405162461bcd60e51b815260206004820152603a60248201527f416464726573733a20756e61626c6520746f2073656e642076616c75652c20726044820152791958da5c1a595b9d081b585e481a185d99481c995d995c9d195960321b606482015260840161078d565b60606000829003611ca357505060408051602081019091526000815290565b600082604051602001611cb891815260200190565b60408051601f198184030181529190529050601f5b818181518110611cdf57611cdf612c58565b01602001516001600160f81b031916600003611cfe5760001901611ccd565b6000816001016001600160401b03811115611d1b57611d1b612f57565b6040519080825280601f01601f191660200182016040528015611d45576020820181803683370190505b50905060005b828111611da057838181518110611d6457611d64612c58565b602001015160f81c60f81b828281518110611d8157611d81612c58565b60200101906001600160f81b031916908160001a905350600101611d4b565b50949350505050565b8015611419576000828152602085815260408083206001600160a01b0387168452909152902054818101818111611df25760405162461bcd60e51b815260040161078d90613072565b6000938452602095865260408085206001600160a01b039690961685529490955250502055565b6001600160a01b03163b151590565b60405163bc197c8160e01b808252906001600160a01b0386169063bc197c8190611e5e908a908a908990899089906004016130a5565b6020604051808303816000875af1158015611e7d573d6000803e3d6000fd5b505050506040513d601f19601f82011682018060405250810190611ea19190613103565b6001600160e01b031916146107365760405162461bcd60e51b815260206004820152601a602482015279115490cc4c4d4d4e881d1c985b9cd9995c881c995a9958dd195960321b604482015260640161078d565b60606000611f02836122bc565b60010190506000816001600160401b03811115611f2157611f21612f57565b6040519080825280601f01601f191660200182016040528015611f4b576020820181803683370190505b5090508181016020015b600019016f181899199a1a9b1b9c1cb0b131b232b360811b600a86061a8153600a8504945084611f5557509392505050565b6000816001600160a01b0316836001600160a01b031614806106af5750506001600160a01b039182166000908152600193909301602090815260408085209290931684525290205460ff1690565b8015611419576000828152602085815260408083206001600160a01b0387168452909152902054818103818110611df25760405162461bcd60e51b815260040161078d90613120565b81546001600160a01b0316801580159061204257506000816001600160a01b03163b115b1561060557604051633185c44d60e21b81523060048201526001600160a01b03838116602483015282169063c617113490604401602060405180830381865afa158015612093573d6000803e3d6000fd5b505050506040513d601f19601f820116820180604052508101906120b79190613157565b6106055781604051633b79c77360e21b815260040161078d9190612b00565b801561085f576000828152602086815260408083206001600160a01b038816845290915290205481810381811061211f5760405162461bcd60e51b815260040161078d90613120565b846001600160a01b0316866001600160a01b031614610ac4576000848152602088815260408083206001600160a01b038916845290915290205483810181811161217b5760405162461bcd60e51b815260040161078d90613072565b600086815260208a815260408083206001600160a01b03808d1685528184528285208890558b1684529091529020555050505050505050565b60405163f23a6e6160e01b808252906001600160a01b0386169063f23a6e6190611e5e908a908a90899089908990600401613174565b600061223f826040518060400160405280602081526020017f5361666545524332303a206c6f772d6c6576656c2063616c6c206661696c6564815250856001600160a01b03166123929092919063ffffffff16565b805190915015610605578080602001905181019061225d9190613157565b6106055760405162461bcd60e51b815260206004820152602a60248201527f5361666545524332303a204552433230206f7065726174696f6e20646964206e6044820152691bdd081cdd58d8d9595960b21b606482015260840161078d565b60008072184f03e93ff9f4daa797ed6e38ed64bf6a1f0160401b83106122fb5772184f03e93ff9f4daa797ed6e38ed64bf6a1f0160401b830492506040015b6904ee2d6d415b85acef8160201b8310612325576904ee2d6d415b85acef8160201b830492506020015b662386f26fc10000831061234357662386f26fc10000830492506010015b6305f5e100831061235b576305f5e100830492506008015b612710831061236f57612710830492506004015b60648310612381576064830492506002015b600a83106104305760010192915050565b60606106af848460008585600080866001600160a01b031685876040516123b991906131ae565b60006040518083038185875af1925050503d80600081146123f6576040519150601f19603f3d011682016040523d82523d6000602084013e6123fb565b606091505b509150915061240c87838387612417565b979650505050505050565b6060831561248457825160000361247d5761243185611e19565b61247d5760405162461bcd60e51b815260206004820152601d60248201527f416464726573733a2063616c6c20746f206e6f6e2d636f6e7472616374000000604482015260640161078d565b50816106af565b6106af83838151156124995781518083602001fd5b8060405162461bcd60e51b815260040161078d919061257e565b6001600160a01b03811681146105ea57600080fd5b600080604083850312156124db57600080fd5b82356124e6816124b3565b946020939093013593505050565b6001600160e01b0319811681146105ea57600080fd5b60006020828403121561251c57600080fd5b8135612527816124f4565b9392505050565b60005b83811015612549578181015183820152602001612531565b50506000910152565b6000815180845261256a81602086016020860161252e565b601f01601f19169290920160200192915050565b60208152600061042d6020830184612552565b60008083601f8401126125a357600080fd5b5081356001600160401b038111156125ba57600080fd5b6020830191508360208260051b850101111561062657600080fd5b60008083601f8401126125e757600080fd5b5081356001600160401b038111156125fe57600080fd5b60208301915083602082850101111561062657600080fd5b60008060008060008060006080888a03121561263157600080fd5b873561263c816124b3565b965060208801356001600160401b038082111561265857600080fd5b6126648b838c01612591565b909850965060408a013591508082111561267d57600080fd5b6126898b838c01612591565b909650945060608a01359150808211156126a257600080fd5b506126af8a828b016125d5565b989b979a50959850939692959293505050565b6000602082840312156126d457600080fd5b5035919050565b6000602082840312156126ed57600080fd5b8135612527816124b3565b60008060006060848603121561270d57600080fd5b8335612718816124b3565b95602085013595506040909401359392505050565b6000806040838503121561274057600080fd5b50508035926020909101359150565b6001600160a01b03929092168252602082015260400190565b60008060008060008060008060a0898b03121561278457600080fd5b883561278f816124b3565b9750602089013561279f816124b3565b965060408901356001600160401b03808211156127bb57600080fd5b6127c78c838d01612591565b909850965060608b01359150808211156127e057600080fd5b6127ec8c838d01612591565b909650945060808b013591508082111561280557600080fd5b506128128b828c016125d5565b999c989b5096995094979396929594505050565b6000806040838503121561283957600080fd5b82359150602083013561284b816124b3565b809150509250929050565b81835281816020850137506000828201602090810191909152601f909101601f19169091010190565b6020815260006106af602083018486612856565b600080600080604085870312156128a957600080fd5b84356001600160401b03808211156128c057600080fd5b6128cc88838901612591565b909650945060208701359150808211156128e557600080fd5b506128f287828801612591565b95989497509550505050565b600081518084526020808501945080840160005b8381101561292e57815187529582019590820190600101612912565b509495945050505050565b60208152600061042d60208301846128fe565b60008060008060006080868803121561296457600080fd5b853561296f816124b3565b9450602086013593506040860135925060608601356001600160401b0381111561299857600080fd5b6129a4888289016125d5565b969995985093965092949392505050565b600080600080600080606087890312156129ce57600080fd5b86356001600160401b03808211156129e557600080fd5b6129f18a838b01612591565b90985096506020890135915080821115612a0a57600080fd5b612a168a838b01612591565b90965094506040890135915080821115612a2f57600080fd5b50612a3c89828a01612591565b979a9699509497509295939492505050565b60008060208385031215612a6157600080fd5b82356001600160401b03811115612a7757600080fd5b612a83858286016125d5565b90969095509350505050565b600080600080600060608688031215612aa757600080fd5b8535612ab2816124b3565b945060208601356001600160401b0380821115612ace57600080fd5b612ada89838a01612591565b90965094506040880135915080821115612af357600080fd5b506129a488828901612591565b6001600160a01b0391909116815260200190565b80151581146105ea57600080fd5b60008060408385031215612b3557600080fd5b8235612b40816124b3565b9150602083013561284b81612b14565b60008060408385031215612b6357600080fd5b8235612b6e816124b3565b9150602083013561284b816124b3565b60008060008060008060a08789031215612b9757600080fd5b8635612ba2816124b3565b95506020870135612bb2816124b3565b9450604087013593506060870135925060808701356001600160401b03811115612bdb57600080fd5b612a3c89828a016125d5565b600181811c90821680612bfb57607f821691505b602082108103612c1b57634e487b7160e01b600052602260045260246000fd5b50919050565b6020808252601d908201527f5265636f766572793a20696e636f6e73697374656e7420617272617973000000604082015260600190565b634e487b7160e01b600052603260045260246000fd5b634e487b7160e01b600052601160045260246000fd5b8181038181111561043057610430612c6e565b77416363657373436f6e74726f6c3a206d697373696e67202760401b815260008251612cca81601885016020870161252e565b652720726f6c6560d01b6018939091019283015250601e01919050565b6020808252601b908201527a455243313135353a206d696e7420746f206164647265737328302960281b604082015260600190565b6020808252601c908201527b455243313135353a20696e636f6e73697374656e742061727261797360201b604082015260600190565b604081526000612d6560408301856128fe565b8281036020840152612d7781856128fe565b95945050505050565b6000808454612d8e81612be7565b60018281168015612da65760018114612dbb57612dea565b60ff1984168752821515830287019450612dea565b8860005260208060002060005b85811015612de15781548a820152908401908201612dc8565b50505082870194505b505050508351612dfe81836020880161252e565b01949350505050565b60208082526018908201527727bbb732b939b434b81d103737ba103a34329037bbb732b960411b604082015260600190565b6020808252601c908201527b22a92198989a9a9d103737b716b0b8383937bb32b21039b2b73232b960211b604082015260600190565b808202811582820484141761043057610430612c6e565b600082612ea357634e487b7160e01b600052601260045260246000fd5b500490565b6020808252601f908201527f455243313135353a207472616e7366657220746f206164647265737328302900604082015260600190565b81835260006001600160fb1b03831115612ef857600080fd5b8260051b80836020870137939093016020019392505050565b604081526000612f25604083018688612edf565b828103602084015261240c818587612edf565b9283526001600160a01b03918216602084015216604082015260600190565b634e487b7160e01b600052604160045260246000fd5b601f82111561060557600081815260208120601f850160051c81016020861015612f945750805b601f850160051c820191505b8181101561073657828155600101612fa0565b6001600160401b03831115612fca57612fca612f57565b612fde83612fd88354612be7565b83612f6d565b6000601f8411600181146130125760008515612ffa5750838201355b600019600387901b1c1916600186901b17835561085f565b600083815260209020601f19861690835b828110156130435786850135825560209485019460019092019101613023565b50868210156130605760001960f88860031b161c19848701351681555b505060018560011b0183555050505050565b602080825260199082015278455243313135353a2062616c616e6365206f766572666c6f7760381b604082015260600190565b6001600160a01b0386811682528516602082015260a0604082018190526000906130d1908301866128fe565b82810360608401526130e381866128fe565b905082810360808401526130f78185612552565b98975050505050505050565b60006020828403121561311557600080fd5b8151612527816124f4565b6020808252601d908201527f455243313135353a20696e73756666696369656e742062616c616e6365000000604082015260600190565b60006020828403121561316957600080fd5b815161252781612b14565b6001600160a01b03868116825285166020820152604081018490526060810183905260a06080820181905260009061240c90830184612552565b600082516131c081846020870161252e565b919091019291505056fe4a39dc06d4c0dbc64b70af90fd698a233a518aa5d07e595d983b8c0526c8f7fbc3d58168c5ae7397731d063d5bbf3d657854427343f4c083240f7aacaa2d0f628be0079c531659141344cd1fd0a4f28419497f9722a3daafe3b4186f6b6457e0f6391f5c32d9c69d2a47ea670b442974b53935d1edc7fd64eb21e047a839171ba264697066735822122047959b0fea16c731842630c6c1b37863712db9628a723949c999a7a2ac23776864736f6c63430008110033",
  "linkReferences": {},
  "deployedLinkReferences": {}
}