{
  "_format": "hh-sol-artifact-1",
  "contractName": "ORBNFTMock",
  "sourceName": "contracts/mocks/token/ERC1155/ORBNFTMock.sol",
  "abi": [
    {
      "inputs": [
        {
          "internalType": "contract IOperatorFilterRegistry",
          "name": "filterRegistry",
          "type": "address"
        },
        {
          "internalType": "string",
          "name": "tokenName",
          "type": "string"
        },
        {
          "internalType": "string",
          "name": "tokenSymbol",
          "type": "string"
        }
      ],
      "stateMutability": "nonpayable",
      "type": "constructor"
    },
    {
      "inputs": [
        {
          "internalType": "uint256",
          "name": "percentage",
          "type": "uint256"
        }
      ],
      "name": "IncorrectRoyaltyPercentage",
      "type": "error"
    },
    {
      "inputs": [],
      "name": "IncorrectRoyaltyReceiver",
      "type": "error"
    },
    {
      "inputs": [
        {
          "internalType": "address",
          "name": "operator",
          "type": "address"
        }
      ],
      "name": "OperatorNotAllowed",
      "type": "error"
    },
    {
      "anonymous": false,
      "inputs": [
        {
          "indexed": true,
          "internalType": "address",
          "name": "owner",
          "type": "address"
        },
        {
          "indexed": true,
          "internalType": "address",
          "name": "operator",
          "type": "address"
        },
        {
          "indexed": false,
          "internalType": "bool",
          "name": "approved",
          "type": "bool"
        }
      ],
      "name": "ApprovalForAll",
      "type": "event"
    },
    {
      "anonymous": false,
      "inputs": [
        {
          "indexed": false,
          "internalType": "string",
          "name": "baseMetadataURI",
          "type": "string"
        }
      ],
      "name": "BaseMetadataURISet",
      "type": "event"
    },
    {
      "anonymous": false,
      "inputs": [
        {
          "indexed": true,
          "internalType": "address",
          "name": "previousOwner",
          "type": "address"
        },
        {
          "indexed": true,
          "internalType": "address",
          "name": "newOwner",
          "type": "address"
        }
      ],
      "name": "OwnershipTransferred",
      "type": "event"
    },
    {
      "anonymous": false,
      "inputs": [
        {
          "indexed": false,
          "internalType": "bytes32",
          "name": "role",
          "type": "bytes32"
        },
        {
          "indexed": false,
          "internalType": "address",
          "name": "account",
          "type": "address"
        },
        {
          "indexed": false,
          "internalType": "address",
          "name": "operator",
          "type": "address"
        }
      ],
      "name": "RoleGranted",
      "type": "event"
    },
    {
      "anonymous": false,
      "inputs": [
        {
          "indexed": false,
          "internalType": "bytes32",
          "name": "role",
          "type": "bytes32"
        },
        {
          "indexed": false,
          "internalType": "address",
          "name": "account",
          "type": "address"
        },
        {
          "indexed": false,
          "internalType": "address",
          "name": "operator",
          "type": "address"
        }
      ],
      "name": "RoleRevoked",
      "type": "event"
    },
    {
      "anonymous": false,
      "inputs": [
        {
          "indexed": true,
          "internalType": "address",
          "name": "operator",
          "type": "address"
        },
        {
          "indexed": true,
          "internalType": "address",
          "name": "from",
          "type": "address"
        },
        {
          "indexed": true,
          "internalType": "address",
          "name": "to",
          "type": "address"
        },
        {
          "indexed": false,
          "internalType": "uint256[]",
          "name": "ids",
          "type": "uint256[]"
        },
        {
          "indexed": false,
          "internalType": "uint256[]",
          "name": "values",
          "type": "uint256[]"
        }
      ],
      "name": "TransferBatch",
      "type": "event"
    },
    {
      "anonymous": false,
      "inputs": [
        {
          "indexed": true,
          "internalType": "address",
          "name": "operator",
          "type": "address"
        },
        {
          "indexed": true,
          "internalType": "address",
          "name": "from",
          "type": "address"
        },
        {
          "indexed": true,
          "internalType": "address",
          "name": "to",
          "type": "address"
        },
        {
          "indexed": false,
          "internalType": "uint256",
          "name": "id",
          "type": "uint256"
        },
        {
          "indexed": false,
          "internalType": "uint256",
          "name": "value",
          "type": "uint256"
        }
      ],
      "name": "TransferSingle",
      "type": "event"
    },
    {
      "anonymous": false,
      "inputs": [
        {
          "indexed": false,
          "internalType": "string",
          "name": "value",
          "type": "string"
        },
        {
          "indexed": true,
          "internalType": "uint256",
          "name": "id",
          "type": "uint256"
        }
      ],
      "name": "URI",
      "type": "event"
    },
    {
      "inputs": [],
      "name": "MINTER_ROLE",
      "outputs": [
        {
          "internalType": "bytes32",
          "name": "",
          "type": "bytes32"
        }
      ],
      "stateMutability": "view",
      "type": "function"
    },
    {
      "inputs": [],
      "name": "ROYALTY_FEE_DENOMINATOR",
      "outputs": [
        {
          "internalType": "uint256",
          "name": "",
          "type": "uint256"
        }
      ],
      "stateMutability": "view",
      "type": "function"
    },
    {
      "inputs": [],
      "name": "__msgData",
      "outputs": [
        {
          "internalType": "bytes",
          "name": "",
          "type": "bytes"
        }
      ],
      "stateMutability": "view",
      "type": "function"
    },
    {
      "inputs": [
        {
          "internalType": "address",
          "name": "owner",
          "type": "address"
        },
        {
          "internalType": "uint256",
          "name": "id",
          "type": "uint256"
        }
      ],
      "name": "balanceOf",
      "outputs": [
        {
          "internalType": "uint256",
          "name": "balance",
          "type": "uint256"
        }
      ],
      "stateMutability": "view",
      "type": "function"
    },
    {
      "inputs": [
        {
          "internalType": "address[]",
          "name": "owners",
          "type": "address[]"
        },
        {
          "internalType": "uint256[]",
          "name": "ids",
          "type": "uint256[]"
        }
      ],
      "name": "balanceOfBatch",
      "outputs": [
        {
          "internalType": "uint256[]",
          "name": "balances",
          "type": "uint256[]"
        }
      ],
      "stateMutability": "view",
      "type": "function"
    },
    {
      "inputs": [],
      "name": "baseMetadataURI",
      "outputs": [
        {
          "internalType": "string",
          "name": "baseURI",
          "type": "string"
        }
      ],
      "stateMutability": "view",
      "type": "function"
    },
    {
      "inputs": [
        {
          "internalType": "address",
          "name": "from",
          "type": "address"
        },
        {
          "internalType": "uint256[]",
          "name": "ids",
          "type": "uint256[]"
        },
        {
          "internalType": "uint256[]",
          "name": "values",
          "type": "uint256[]"
        }
      ],
      "name": "batchBurnFrom",
      "outputs": [],
      "stateMutability": "nonpayable",
      "type": "function"
    },
    {
      "inputs": [
        {
          "internalType": "address",
          "name": "from",
          "type": "address"
        },
        {
          "internalType": "uint256",
          "name": "id",
          "type": "uint256"
        },
        {
          "internalType": "uint256",
          "name": "value",
          "type": "uint256"
        }
      ],
      "name": "burnFrom",
      "outputs": [],
      "stateMutability": "nonpayable",
      "type": "function"
    },
    {
      "inputs": [
        {
          "internalType": "bytes32",
          "name": "role",
          "type": "bytes32"
        },
        {
          "internalType": "address",
          "name": "account",
          "type": "address"
        }
      ],
      "name": "grantRole",
      "outputs": [],
      "stateMutability": "nonpayable",
      "type": "function"
    },
    {
      "inputs": [
        {
          "internalType": "bytes32",
          "name": "role",
          "type": "bytes32"
        },
        {
          "internalType": "address",
          "name": "account",
          "type": "address"
        }
      ],
      "name": "hasRole",
      "outputs": [
        {
          "internalType": "bool",
          "name": "",
          "type": "bool"
        }
      ],
      "stateMutability": "view",
      "type": "function"
    },
    {
      "inputs": [
        {
          "internalType": "address",
          "name": "owner",
          "type": "address"
        },
        {
          "internalType": "address",
          "name": "operator",
          "type": "address"
        }
      ],
      "name": "isApprovedForAll",
      "outputs": [
        {
          "internalType": "bool",
          "name": "approvedForAll",
          "type": "bool"
        }
      ],
      "stateMutability": "view",
      "type": "function"
    },
    {
      "inputs": [],
      "name": "name",
      "outputs": [
        {
          "internalType": "string",
          "name": "",
          "type": "string"
        }
      ],
      "stateMutability": "view",
      "type": "function"
    },
    {
      "inputs": [],
      "name": "operatorFilterRegistry",
      "outputs": [
        {
          "internalType": "contract IOperatorFilterRegistry",
          "name": "",
          "type": "address"
        }
      ],
      "stateMutability": "view",
      "type": "function"
    },
    {
      "inputs": [],
      "name": "owner",
      "outputs": [
        {
          "internalType": "address",
          "name": "",
          "type": "address"
        }
      ],
      "stateMutability": "view",
      "type": "function"
    },
    {
      "inputs": [
        {
          "internalType": "address[]",
          "name": "accounts",
          "type": "address[]"
        },
        {
          "internalType": "contract IERC20[]",
          "name": "tokens",
          "type": "address[]"
        },
        {
          "internalType": "uint256[]",
          "name": "amounts",
          "type": "uint256[]"
        }
      ],
      "name": "recoverERC20s",
      "outputs": [],
      "stateMutability": "nonpayable",
      "type": "function"
    },
    {
      "inputs": [
        {
          "internalType": "address[]",
          "name": "accounts",
          "type": "address[]"
        },
        {
          "internalType": "contract IERC721[]",
          "name": "contracts",
          "type": "address[]"
        },
        {
          "internalType": "uint256[]",
          "name": "tokenIds",
          "type": "uint256[]"
        }
      ],
      "name": "recoverERC721s",
      "outputs": [],
      "stateMutability": "nonpayable",
      "type": "function"
    },
    {
      "inputs": [
        {
          "internalType": "address payable[]",
          "name": "accounts",
          "type": "address[]"
        },
        {
          "internalType": "uint256[]",
          "name": "amounts",
          "type": "uint256[]"
        }
      ],
      "name": "recoverETH",
      "outputs": [],
      "stateMutability": "nonpayable",
      "type": "function"
    },
    {
      "inputs": [
        {
          "internalType": "bytes32",
          "name": "role",
          "type": "bytes32"
        }
      ],
      "name": "renounceRole",
      "outputs": [],
      "stateMutability": "nonpayable",
      "type": "function"
    },
    {
      "inputs": [
        {
          "internalType": "bytes32",
          "name": "role",
          "type": "bytes32"
        },
        {
          "internalType": "address",
          "name": "account",
          "type": "address"
        }
      ],
      "name": "revokeRole",
      "outputs": [],
      "stateMutability": "nonpayable",
      "type": "function"
    },
    {
      "inputs": [
        {
          "internalType": "uint256",
          "name": "tokenId",
          "type": "uint256"
        },
        {
          "internalType": "uint256",
          "name": "salePrice",
          "type": "uint256"
        }
      ],
      "name": "royaltyInfo",
      "outputs": [
        {
          "internalType": "address",
          "name": "receiver",
          "type": "address"
        },
        {
          "internalType": "uint256",
          "name": "royaltyAmount",
          "type": "uint256"
        }
      ],
      "stateMutability": "view",
      "type": "function"
    },
    {
      "inputs": [
        {
          "internalType": "address",
          "name": "to",
          "type": "address"
        },
        {
          "internalType": "uint256[]",
          "name": "ids",
          "type": "uint256[]"
        },
        {
          "internalType": "uint256[]",
          "name": "values",
          "type": "uint256[]"
        },
        {
          "internalType": "bytes",
          "name": "data",
          "type": "bytes"
        }
      ],
      "name": "safeBatchMint",
      "outputs": [],
      "stateMutability": "nonpayable",
      "type": "function"
    },
    {
      "inputs": [
        {
          "internalType": "address",
          "name": "from",
          "type": "address"
        },
        {
          "internalType": "address",
          "name": "to",
          "type": "address"
        },
        {
          "internalType": "uint256[]",
          "name": "ids",
          "type": "uint256[]"
        },
        {
          "internalType": "uint256[]",
          "name": "values",
          "type": "uint256[]"
        },
        {
          "internalType": "bytes",
          "name": "data",
          "type": "bytes"
        }
      ],
      "name": "safeBatchTransferFrom",
      "outputs": [],
      "stateMutability": "nonpayable",
      "type": "function"
    },
    {
      "inputs": [
        {
          "internalType": "address",
          "name": "to",
          "type": "address"
        },
        {
          "internalType": "uint256",
          "name": "id",
          "type": "uint256"
        },
        {
          "internalType": "uint256",
          "name": "value",
          "type": "uint256"
        },
        {
          "internalType": "bytes",
          "name": "data",
          "type": "bytes"
        }
      ],
      "name": "safeMint",
      "outputs": [],
      "stateMutability": "nonpayable",
      "type": "function"
    },
    {
      "inputs": [
        {
          "internalType": "address",
          "name": "from",
          "type": "address"
        },
        {
          "internalType": "address",
          "name": "to",
          "type": "address"
        },
        {
          "internalType": "uint256",
          "name": "id",
          "type": "uint256"
        },
        {
          "internalType": "uint256",
          "name": "value",
          "type": "uint256"
        },
        {
          "internalType": "bytes",
          "name": "data",
          "type": "bytes"
        }
      ],
      "name": "safeTransferFrom",
      "outputs": [],
      "stateMutability": "nonpayable",
      "type": "function"
    },
    {
      "inputs": [
        {
          "internalType": "address",
          "name": "operator",
          "type": "address"
        },
        {
          "internalType": "bool",
          "name": "approved",
          "type": "bool"
        }
      ],
      "name": "setApprovalForAll",
      "outputs": [],
      "stateMutability": "nonpayable",
      "type": "function"
    },
    {
      "inputs": [
        {
          "internalType": "string",
          "name": "baseURI",
          "type": "string"
        }
      ],
      "name": "setBaseMetadataURI",
      "outputs": [],
      "stateMutability": "nonpayable",
      "type": "function"
    },
    {
      "inputs": [
        {
          "internalType": "uint256",
          "name": "percentage",
          "type": "uint256"
        }
      ],
      "name": "setRoyaltyPercentage",
      "outputs": [],
      "stateMutability": "nonpayable",
      "type": "function"
    },
    {
      "inputs": [
        {
          "internalType": "address",
          "name": "receiver",
          "type": "address"
        }
      ],
      "name": "setRoyaltyReceiver",
      "outputs": [],
      "stateMutability": "nonpayable",
      "type": "function"
    },
    {
      "inputs": [
        {
          "internalType": "bytes4",
          "name": "interfaceId",
          "type": "bytes4"
        }
      ],
      "name": "supportsInterface",
      "outputs": [
        {
          "internalType": "bool",
          "name": "",
          "type": "bool"
        }
      ],
      "stateMutability": "view",
      "type": "function"
    },
    {
      "inputs": [],
      "name": "symbol",
      "outputs": [
        {
          "internalType": "string",
          "name": "",
          "type": "string"
        }
      ],
      "stateMutability": "view",
      "type": "function"
    },
    {
      "inputs": [
        {
          "internalType": "address",
          "name": "newOwner",
          "type": "address"
        }
      ],
      "name": "transferOwnership",
      "outputs": [],
      "stateMutability": "nonpayable",
      "type": "function"
    },
    {
      "inputs": [
        {
          "internalType": "contract IOperatorFilterRegistry",
          "name": "registry",
          "type": "address"
        }
      ],
      "name": "updateOperatorFilterRegistry",
      "outputs": [],
      "stateMutability": "nonpayable",
      "type": "function"
    },
    {
      "inputs": [
        {
          "internalType": "uint256",
          "name": "id",
          "type": "uint256"
        }
      ],
      "name": "uri",
      "outputs": [
        {
          "internalType": "string",
          "name": "metadataURI",
          "type": "string"
        }
      ],
      "stateMutability": "view",
      "type": "function"
    }
  ],
  "bytecode": "0x60806040523480156200001157600080fd5b506040516200498838038062004988833981016040819052620000349162000476565b82828282336200006781620000536200012a60201b62000e141760201c565b6200016060201b62000e421790919060201c565b506200007d620001f360201b62000eff1760201c565b620000926200021860201b62000f2f1760201c565b620000a76200023b60201b62000f5d1760201c565b620000bc6200025e60201b62000f8b1760201c565b620000d16200028160201b62000fb91760201c565b620000ff81620000eb620002a460201b62000fe71760201c565b620002d460201b620010151790919060201c565b5060006200010e83826200058f565b5060016200011d82826200058f565b505050505050506200067d565b6000806200015a60017fc9ed16f33ab3a66c84bfd83099ccb2a8845871e2e1c1928f63797152f0fd54cd6200065b565b92915050565b6001600160a01b03811615620001b75781546001600160a01b0319166001600160a01b03821690811783556040516000907f8be0079c531659141344cd1fd0a4f28419497f9722a3daafe3b4186f6b6457e0908290a35b620001ef6307f5828d60e41b6001620001da620002f160201b620010571760201c565b6200032160201b62001085179092919060201c565b5050565b62000216631464324b60e21b6001620001da620002f160201b620010571760201c565b565b6200021663921ed8d160e01b6001620001da620002f160201b620010571760201c565b620002166303a24d0760e21b6001620001da620002f160201b620010571760201c565b6200021663152a902d60e11b6001620001da620002f160201b620010571760201c565b62000216636cdb3d1360e11b6001620001da620002f160201b620010571760201c565b6000806200015a60017f609b85bcafa81ecfaf3ff62cdde2c6c9082a68dbe4922f07399c706bdeb7cd316200065b565b81546001600160a01b0319166001600160a01b0391909116179055565b6000806200015a60017fca9d3e17f264b0f3984e2634e94adb37fa3e6a8103f06aeae6fa59e21c769f5e6200065b565b600160e01b6001600160e01b0319831601620003835760405162461bcd60e51b815260206004820152601f60248201527f496e74657266616365446574656374696f6e3a2077726f6e672076616c756500604482015260640160405180910390fd5b6001600160e01b03199190911660009081526020929092526040909120805460ff1916911515919091179055565b634e487b7160e01b600052604160045260246000fd5b600082601f830112620003d957600080fd5b81516001600160401b0380821115620003f657620003f6620003b1565b604051601f8301601f19908116603f01168101908282118183101715620004215762000421620003b1565b816040528381526020925086838588010111156200043e57600080fd5b600091505b8382101562000462578582018301518183018401529082019062000443565b600093810190920192909252949350505050565b6000806000606084860312156200048c57600080fd5b83516001600160a01b0381168114620004a457600080fd5b60208501519093506001600160401b0380821115620004c257600080fd5b620004d087838801620003c7565b93506040860151915080821115620004e757600080fd5b50620004f686828701620003c7565b9150509250925092565b600181811c908216806200051557607f821691505b6020821081036200053657634e487b7160e01b600052602260045260246000fd5b50919050565b601f8211156200058a57600081815260208120601f850160051c81016020861015620005655750805b601f850160051c820191505b81811015620005865782815560010162000571565b5050505b505050565b81516001600160401b03811115620005ab57620005ab620003b1565b620005c381620005bc845462000500565b846200053c565b602080601f831160018114620005fb5760008415620005e25750858301515b600019600386901b1c1916600185901b17855562000586565b600085815260208120601f198616915b828110156200062c578886015182559484019460019091019084016200060b565b50858210156200064b5787850151600019600388901b60f8161c191681555b5050505050600190811b01905550565b818103818111156200015a57634e487b7160e01b600052601160045260246000fd5b6142fb806200068d6000396000f3fe608060405234801561001057600080fd5b506004361061020a5760003560e01c80637e518ec81161012a578063b0ccc31e116100bd578063e1a8bf2c1161008c578063f242432a11610071578063f242432a146104ab578063f2fde38b146104be578063f7ba94bd146104d157600080fd5b8063e1a8bf2c1461048e578063e985e9c51461049857600080fd5b8063b0ccc31e14610439578063c3666c3614610441578063d539139314610454578063d547741f1461047b57600080fd5b80638dc251e3116100f95780638dc251e3146103f857806391d148541461040b57806395d89b411461041e578063a22cb4651461042657600080fd5b80637e518ec81461039257806380534934146103a55780638bb9c5bf146103b85780638da5cb5b146103cb57600080fd5b80632eb2c2d6116101a25780635b2bd79e116101715780635b2bd79e146103515780635cfa92971461035957806361ba27da1461036c57806373c8a9581461037f57600080fd5b80632eb2c2d6146102fa5780632f2ff15d1461030d57806331e66e1e146103205780634e1273f41461033157600080fd5b80630e89341c116101de5780630e89341c14610282578063114ba8ee14610295578063124d91e5146102a85780632a55205a146102bb57600080fd5b8062fdd58e1461020f57806301ffc9a71461023557806306fdde03146102585780630d6a5bbb1461026d575b600080fd5b61022261021d366004613617565b6104e4565b6040519081526020015b60405180910390f35b610248610243366004613671565b610503565b604051901515815260200161022c565b610260610517565b60405161022c9190613703565b61028061027b36600461379d565b6105a5565b005b61026061029036600461384a565b610695565b6102806102a3366004613863565b6106a9565b6102806102b6366004613880565b61070e565b6102ce6102c93660046138b5565b61072b565b6040805173ffffffffffffffffffffffffffffffffffffffff909316835260208301919091520161022c565b6102806103083660046138d7565b61074e565b61028061031b366004613996565b610790565b60003660405161022c929190613a0f565b61034461033f366004613a23565b6107b3565b60405161022c9190613aca565b6102606107d8565b610280610367366004613add565b6107ef565b61028061037a36600461384a565b610876565b61028061038d366004613b47565b610891565b6102806103a0366004613be1565b6109ad565b6102806103b3366004613c23565b6109ce565b6102806103c636600461384a565b6109f1565b6103d3610a05565b60405173ffffffffffffffffffffffffffffffffffffffff909116815260200161022c565b610280610406366004613863565b610a2c565b610248610419366004613996565b610a47565b610260610a8b565b610280610434366004613ca3565b610a98565b6103d3610ac6565b61028061044f366004613b47565b610ad3565b6102227f6d696e746572000000000000000000000000000000000000000000000000000081565b610280610489366004613996565b610c76565b610222620186a081565b6102486104a6366004613cd1565b610c99565b6102806104b9366004613cff565b610ce7565b6102806104cc366004613863565b610d1c565b6102806104df366004613a23565b610d30565b60006104fa83836104f3611191565b91906111bf565b90505b92915050565b60006104fd82610511611057565b90611273565b6000805461052490613d69565b80601f016020809104026020016040519081016040528092919081815260200182805461055090613d69565b801561059d5780601f106105725761010080835404028352916020019161059d565b820191906000526020600020905b81548152906001019060200180831161058057829003601f168201915b505050505081565b336105da7f6d696e7465720000000000000000000000000000000000000000000000000000826105d361134d565b919061137b565b61068b818989898080602002602001604051908101604052809392919081815260200183836020028082843760009201919091525050604080516020808d0282810182019093528c82529093508c92508b91829185019084908082843760009201919091525050604080516020601f8c018190048102820181019092528a815292508a91508990819084018382808284376000920191909152506106819250611191915050565b9493929190611427565b5050505050505050565b60606104fd826106a361160c565b9061163a565b6106bc335b6106b6610e14565b9061166e565b61070b816106c8610fe7565b9081547fffffffffffffffffffffffff00000000000000000000000000000000000000001673ffffffffffffffffffffffffffffffffffffffff91909116179055565b50565b6107263384848461071d611191565b939291906116f1565b505050565b600080610742848461073b6117ce565b91906117fc565b915091505b9250929050565b33610763818a61075c610fe7565b91906118a6565b610785818a8a8a8a8a8a8a8a610777611191565b9897969594939291906118e3565b505050505050505050565b3361079d816106b6610e14565b6107268383836107ab61134d565b929190611bdb565b60606107cd858585856107c4611191565b93929190611cb2565b90505b949350505050565b60606107ea6107e561160c565b611df0565b905090565b3361081d7f6d696e7465720000000000000000000000000000000000000000000000000000826105d361134d565b61086e8187878787878080601f0160208091040260200160405190810160405280939291908181526020018383808284376000920191909152506108649250611191915050565b9493929190611e86565b505050505050565b61087f336106ae565b61070b8161088b6117ce565b90611f94565b61089a336106ae565b8483811480156108a957508082145b610914576040517f08c379a000000000000000000000000000000000000000000000000000000000815260206004820152601d60248201527f5265636f766572793a20696e636f6e73697374656e742061727261797300000060448201526064015b60405180910390fd5b60005b81811461068b576109a588888381811061093357610933613dbc565b90506020020160208101906109489190613863565b85858481811061095a5761095a613dbc565b9050602002013588888581811061097357610973613dbc565b90506020020160208101906109889190613863565b73ffffffffffffffffffffffffffffffffffffffff16919061201a565b600101610917565b6109b6336106ae565b6109ca82826109c361160c565b91906120a7565b5050565b6109ea3386868686866109df611191565b9594939291906120f2565b5050505050565b61070b33826109fe61134d565b91906122a9565b60006107ea610a12610e14565b5473ffffffffffffffffffffffffffffffffffffffff1690565b610a35336106ae565b61070b81610a416117ce565b90612345565b60006104fa8383610a5661134d565b60009283526020908152604080842073ffffffffffffffffffffffffffffffffffffffff909316845291905290205460ff1690565b6001805461052490613d69565b8015610ab057610ab082610aaa610fe7565b90612392565b6109ca338383610abe611191565b92919061239c565b60006107ea610a12610fe7565b610adc336106ae565b848381148015610aeb57508082145b610b51576040517f08c379a000000000000000000000000000000000000000000000000000000000815260206004820152601d60248201527f5265636f766572793a20696e636f6e73697374656e7420617272617973000000604482015260640161090b565b60005b81811461068b57858582818110610b6d57610b6d613dbc565b9050602002016020810190610b829190613863565b73ffffffffffffffffffffffffffffffffffffffff166323b872dd308a8a85818110610bb057610bb0613dbc565b9050602002016020810190610bc59190613863565b878786818110610bd757610bd7613dbc565b6040517fffffffff0000000000000000000000000000000000000000000000000000000060e088901b16815273ffffffffffffffffffffffffffffffffffffffff958616600482015294909316602485015250602090910201356044820152606401600060405180830381600087803b158015610c5357600080fd5b505af1158015610c67573d6000803e3d6000fd5b50505050806001019050610b54565b33610c83816106b6610e14565b610726838383610c9161134d565b9291906124cc565b60006104fa8383610ca8611191565b919073ffffffffffffffffffffffffffffffffffffffff9182166000908152600193909301602090815260408085209290931684525290205460ff1690565b33610cf5818861075c610fe7565b610d1381888888888888610d07611191565b96959493929190612596565b50505050505050565b61070b3382610d29610e14565b9190612779565b610d39336106ae565b82818114610da3576040517f08c379a000000000000000000000000000000000000000000000000000000000815260206004820152601d60248201527f5265636f766572793a20696e636f6e73697374656e7420617272617973000000604482015260640161090b565b60005b81811461086e57610e0c848483818110610dc257610dc2613dbc565b90506020020135878784818110610ddb57610ddb613dbc565b9050602002016020810190610df09190613863565b73ffffffffffffffffffffffffffffffffffffffff16906128a5565b600101610da6565b6000806104fd60017fc9ed16f33ab3a66c84bfd83099ccb2a8845871e2e1c1928f63797152f0fd54cd613e1a565b73ffffffffffffffffffffffffffffffffffffffff811615610eca5781547fffffffffffffffffffffffff00000000000000000000000000000000000000001673ffffffffffffffffffffffffffffffffffffffff821690811783556040516000907f8be0079c531659141344cd1fd0a4f28419497f9722a3daafe3b4186f6b6457e0908290a35b6109ca7f7f5828d0000000000000000000000000000000000000000000000000000000006001610ef8611057565b9190611085565b610f2d7f5190c92c000000000000000000000000000000000000000000000000000000006001610ef8611057565b565b610f2d7f921ed8d1000000000000000000000000000000000000000000000000000000006001610ef8611057565b610f2d7f0e89341c000000000000000000000000000000000000000000000000000000006001610ef8611057565b610f2d7f2a55205a000000000000000000000000000000000000000000000000000000006001610ef8611057565b610f2d7fd9b67a26000000000000000000000000000000000000000000000000000000006001610ef8611057565b6000806104fd60017f609b85bcafa81ecfaf3ff62cdde2c6c9082a68dbe4922f07399c706bdeb7cd31613e1a565b81547fffffffffffffffffffffffff00000000000000000000000000000000000000001673ffffffffffffffffffffffffffffffffffffffff91909116179055565b6000806104fd60017fca9d3e17f264b0f3984e2634e94adb37fa3e6a8103f06aeae6fa59e21c769f5e613e1a565b7c01000000000000000000000000000000000000000000000000000000007fffffffff0000000000000000000000000000000000000000000000000000000083160161112d576040517f08c379a000000000000000000000000000000000000000000000000000000000815260206004820152601f60248201527f496e74657266616365446574656374696f6e3a2077726f6e672076616c756500604482015260640161090b565b7fffffffff00000000000000000000000000000000000000000000000000000000919091166000908152602092909252604090912080547fffffffffffffffffffffffffffffffffffffffffffffffffffffffffffffff0016911515919091179055565b6000806104fd60017f5ccf5846fa27a68fafc8e588671a68f5e67c2f9b56af4263806a4d71735e8613613e1a565b600073ffffffffffffffffffffffffffffffffffffffff831661123e576040517f08c379a000000000000000000000000000000000000000000000000000000000815260206004820152601e60248201527f455243313135353a2062616c616e6365206f6620616464726573732830290000604482015260640161090b565b5060009081526020928352604080822073ffffffffffffffffffffffffffffffffffffffff9390931682529190925290205490565b60007c01000000000000000000000000000000000000000000000000000000007fffffffff000000000000000000000000000000000000000000000000000000008316016112c3575060006104fd565b7ffe003659000000000000000000000000000000000000000000000000000000007fffffffff00000000000000000000000000000000000000000000000000000000831601611314575060016104fd565b507fffffffff00000000000000000000000000000000000000000000000000000000166000908152602091909152604090205460ff1690565b6000806104fd60017fc8827d3282af6f37b64c3e9e6f3ac9df286ab0bb0fccd6f8661bf19adb368b23613e1a565b60008281526020848152604080832073ffffffffffffffffffffffffffffffffffffffff8516845290915290205460ff16610726576113b9826129ff565b6040516020016113c99190613e2d565b604080517fffffffffffffffffffffffffffffffffffffffffffffffffffffffffffffffe0818403018152908290527f08c379a000000000000000000000000000000000000000000000000000000000825261090b91600401613703565b73ffffffffffffffffffffffffffffffffffffffff84166114a4576040517f08c379a000000000000000000000000000000000000000000000000000000000815260206004820152601b60248201527f455243313135353a206d696e7420746f20616464726573732830290000000000604482015260640161090b565b825182518114611510576040517f08c379a000000000000000000000000000000000000000000000000000000000815260206004820152601c60248201527f455243313135353a20696e636f6e73697374656e742061727261797300000000604482015260640161090b565b60005b81811461156057611558888787848151811061153157611531613dbc565b602002602001015187858151811061154b5761154b613dbc565b6020026020010151612b91565b600101611513565b508473ffffffffffffffffffffffffffffffffffffffff16600073ffffffffffffffffffffffffffffffffffffffff168773ffffffffffffffffffffffffffffffffffffffff167f4a39dc06d4c0dbc64b70af90fd698a233a518aa5d07e595d983b8c0526c8f7fb87876040516115d8929190613e99565b60405180910390a473ffffffffffffffffffffffffffffffffffffffff85163b15610d1357610d1386600087878787612c65565b6000806104fd60017fe94434e3c6b941c5d90218142fadcc69cb2e13723993540bfa1c131dd1d3475a613e1a565b60608261164683612d8d565b604051602001611657929190613ec7565b604051602081830303815290604052905092915050565b815473ffffffffffffffffffffffffffffffffffffffff8281169116146109ca576040517f08c379a000000000000000000000000000000000000000000000000000000000815260206004820152601860248201527f4f776e6572736869703a206e6f7420746865206f776e65720000000000000000604482015260640161090b565b6116fc858486612e4b565b611762576040517f08c379a000000000000000000000000000000000000000000000000000000000815260206004820152601c60248201527f455243313135353a206e6f6e2d617070726f7665642073656e64657200000000604482015260640161090b565b61176e85848484612ec0565b604080518381526020810183905260009173ffffffffffffffffffffffffffffffffffffffff86811692908816917fc3d58168c5ae7397731d063d5bbf3d657854427343f4c083240f7aacaa2d0f62910160405180910390a45050505050565b6000806104fd60017f2c0cf10337caabbd02dcf226f05f5fd19a0919a41a8df8958c39b80007826858613e1a565b825473ffffffffffffffffffffffffffffffffffffffff8116906000907401000000000000000000000000000000000000000090046bffffffffffffffffffffffff1683158061184a575080155b15611858576000915061189d565b620186a084101561188257620186a06118718286613f6c565b61187b9190613f83565b915061189d565b80611890620186a086613f83565b61189a9190613f6c565b91505b50935093915050565b8073ffffffffffffffffffffffffffffffffffffffff168273ffffffffffffffffffffffffffffffffffffffff1614610726576107268383612f60565b73ffffffffffffffffffffffffffffffffffffffff8716611960576040517f08c379a000000000000000000000000000000000000000000000000000000000815260206004820152601f60248201527f455243313135353a207472616e7366657220746f206164647265737328302900604482015260640161090b565b848381146119ca576040517f08c379a000000000000000000000000000000000000000000000000000000000815260206004820152601c60248201527f455243313135353a20696e636f6e73697374656e742061727261797300000000604482015260640161090b565b6119d58b8a8c612e4b565b611a3b576040517f08c379a000000000000000000000000000000000000000000000000000000000815260206004820152601c60248201527f455243313135353a206e6f6e2d617070726f7665642073656e64657200000000604482015260640161090b565b60005b818114611a8a57611a828c8b8b8b8b86818110611a5d57611a5d613dbc565b905060200201358a8a87818110611a7657611a76613dbc565b90506020020135613087565b600101611a3e565b508773ffffffffffffffffffffffffffffffffffffffff168973ffffffffffffffffffffffffffffffffffffffff168b73ffffffffffffffffffffffffffffffffffffffff167f4a39dc06d4c0dbc64b70af90fd698a233a518aa5d07e595d983b8c0526c8f7fb8a8a8a8a604051611b059493929190614009565b60405180910390a473ffffffffffffffffffffffffffffffffffffffff88163b15611bce57611bce8a8a8a8a8a8080602002602001604051908101604052809392919081815260200183836020028082843760009201919091525050604080516020808e0282810182019093528d82529093508d92508c91829185019084908082843760009201919091525050604080516020601f8d018190048102820181019092528b815292508b91508a9081908401838280828437600092019190915250612c6592505050565b5050505050505050505050565b60008381526020858152604080832073ffffffffffffffffffffffffffffffffffffffff8616845290915290205460ff16611cac5760008381526020858152604080832073ffffffffffffffffffffffffffffffffffffffff8681168086529184529382902080547fffffffffffffffffffffffffffffffffffffffffffffffffffffffffffffff00166001179055815187815292830152918316918101919091527f2f8788117e7eff1d82e926ec794901d17c78024a50270940304540a733656f0d906060015b60405180910390a15b50505050565b606083828114611d1e576040517f08c379a000000000000000000000000000000000000000000000000000000000815260206004820152601c60248201527f455243313135353a20696e636f6e73697374656e742061727261797300000000604482015260640161090b565b8467ffffffffffffffff811115611d3757611d37614030565b604051908082528060200260200182016040528015611d60578160200160208202803683370190505b50915060005b818114611de557611dc0878783818110611d8257611d82613dbc565b9050602002016020810190611d979190613863565b868684818110611da957611da9613dbc565b905060200201358a6111bf9092919063ffffffff16565b838281518110611dd257611dd2613dbc565b6020908102919091010152600101611d66565b505095945050505050565b6060816000018054611e0190613d69565b80601f0160208091040260200160405190810160405280929190818152602001828054611e2d90613d69565b8015611e7a5780601f10611e4f57610100808354040283529160200191611e7a565b820191906000526020600020905b815481529060010190602001808311611e5d57829003601f168201915b50505050509050919050565b73ffffffffffffffffffffffffffffffffffffffff8416611f03576040517f08c379a000000000000000000000000000000000000000000000000000000000815260206004820152601b60248201527f455243313135353a206d696e7420746f20616464726573732830290000000000604482015260640161090b565b611f0f86858585612b91565b604080518481526020810184905273ffffffffffffffffffffffffffffffffffffffff80871692600092918916917fc3d58168c5ae7397731d063d5bbf3d657854427343f4c083240f7aacaa2d0f62910160405180910390a473ffffffffffffffffffffffffffffffffffffffff84163b1561086e5761086e8560008686868661323a565b620186a0811115611fd4576040517f3affc6c40000000000000000000000000000000000000000000000000000000081526004810182905260240161090b565b81546bffffffffffffffffffffffff909116740100000000000000000000000000000000000000000273ffffffffffffffffffffffffffffffffffffffff909116179055565b6040805173ffffffffffffffffffffffffffffffffffffffff8416602482015260448082018490528251808303909101815260649091019091526020810180517bffffffffffffffffffffffffffffffffffffffffffffffffffffffff167fa9059cbb00000000000000000000000000000000000000000000000000000000179052610726908490613296565b826120b38284836140a5565b507f04b1dc5c136a3ce9fded8db0ce3d3366c58764ec3a8e4c2b9e52e4ddfe5ebbf782826040516120e5929190613a0f565b60405180910390a1505050565b8281811461215c576040517f08c379a000000000000000000000000000000000000000000000000000000000815260206004820152601c60248201527f455243313135353a20696e636f6e73697374656e742061727261797300000000604482015260640161090b565b612167888789612e4b565b6121cd576040517f08c379a000000000000000000000000000000000000000000000000000000000815260206004820152601c60248201527f455243313135353a206e6f6e2d617070726f7665642073656e64657200000000604482015260640161090b565b60005b81811461221b5761221389888888858181106121ee576121ee613dbc565b9050602002013587878681811061220757612207613dbc565b90506020020135612ec0565b6001016121d0565b50600073ffffffffffffffffffffffffffffffffffffffff168673ffffffffffffffffffffffffffffffffffffffff168873ffffffffffffffffffffffffffffffffffffffff167f4a39dc06d4c0dbc64b70af90fd698a233a518aa5d07e595d983b8c0526c8f7fb888888886040516122979493929190614009565b60405180910390a45050505050505050565b6122b483828461137b565b60008181526020848152604080832073ffffffffffffffffffffffffffffffffffffffff86168085529083529281902080547fffffffffffffffffffffffffffffffffffffffffffffffffffffffffffffff0016905580518481529182018390528101919091527ff6391f5c32d9c69d2a47ea670b442974b53935d1edc7fd64eb21e047a839171b906060016120e5565b73ffffffffffffffffffffffffffffffffffffffff8116611015576040517f6fe1b4c800000000000000000000000000000000000000000000000000000000815260040160405180910390fd5b6109ca8282612f60565b8273ffffffffffffffffffffffffffffffffffffffff168273ffffffffffffffffffffffffffffffffffffffff1603612431576040517f08c379a000000000000000000000000000000000000000000000000000000000815260206004820152601e60248201527f455243313135353a2073656c662d617070726f76616c20666f7220616c6c0000604482015260640161090b565b73ffffffffffffffffffffffffffffffffffffffff838116600081815260018701602090815260408083209487168084529482529182902080547fffffffffffffffffffffffffffffffffffffffffffffffffffffffffffffff001686151590811790915591519182527f17307eab39ab6107e8899845ad3d59bd9653f200f220920489ca2b5937696c31910160405180910390a350505050565b60008381526020858152604080832073ffffffffffffffffffffffffffffffffffffffff8616845290915290205460ff1615611cac5760008381526020858152604080832073ffffffffffffffffffffffffffffffffffffffff8681168086529184529382902080547fffffffffffffffffffffffffffffffffffffffffffffffffffffffffffffff00169055815187815292830152918316918101919091527ff6391f5c32d9c69d2a47ea670b442974b53935d1edc7fd64eb21e047a839171b90606001611ca3565b73ffffffffffffffffffffffffffffffffffffffff8516612613576040517f08c379a000000000000000000000000000000000000000000000000000000000815260206004820152601f60248201527f455243313135353a207472616e7366657220746f206164647265737328302900604482015260640161090b565b61261e888789612e4b565b612684576040517f08c379a000000000000000000000000000000000000000000000000000000000815260206004820152601c60248201527f455243313135353a206e6f6e2d617070726f7665642073656e64657200000000604482015260640161090b565b6126918887878787613087565b8473ffffffffffffffffffffffffffffffffffffffff168673ffffffffffffffffffffffffffffffffffffffff168873ffffffffffffffffffffffffffffffffffffffff167fc3d58168c5ae7397731d063d5bbf3d657854427343f4c083240f7aacaa2d0f628787604051612710929190918252602082015260400190565b60405180910390a473ffffffffffffffffffffffffffffffffffffffff85163b1561068b5761068b878787878787878080601f01602080910402602001604051908101604052809392919081815260200183838082843760009201919091525061323a92505050565b825473ffffffffffffffffffffffffffffffffffffffff90811690831681146127fe576040517f08c379a000000000000000000000000000000000000000000000000000000000815260206004820152601860248201527f4f776e6572736869703a206e6f7420746865206f776e65720000000000000000604482015260640161090b565b8173ffffffffffffffffffffffffffffffffffffffff168173ffffffffffffffffffffffffffffffffffffffff1614611cac5783547fffffffffffffffffffffffff00000000000000000000000000000000000000001673ffffffffffffffffffffffffffffffffffffffff8381169182178655604051908316907f8be0079c531659141344cd1fd0a4f28419497f9722a3daafe3b4186f6b6457e090600090a350505050565b8047101561290f576040517f08c379a000000000000000000000000000000000000000000000000000000000815260206004820152601d60248201527f416464726573733a20696e73756666696369656e742062616c616e6365000000604482015260640161090b565b60008273ffffffffffffffffffffffffffffffffffffffff168260405160006040518083038185875af1925050503d8060008114612969576040519150601f19603f3d011682016040523d82523d6000602084013e61296e565b606091505b5050905080610726576040517f08c379a000000000000000000000000000000000000000000000000000000000815260206004820152603a60248201527f416464726573733a20756e61626c6520746f2073656e642076616c75652c207260448201527f6563697069656e74206d61792068617665207265766572746564000000000000606482015260840161090b565b60606000829003612a1e57505060408051602081019091526000815290565b600082604051602001612a3391815260200190565b604080517fffffffffffffffffffffffffffffffffffffffffffffffffffffffffffffffe08184030181529190529050601f5b818181518110612a7857612a78613dbc565b01602001517fff0000000000000000000000000000000000000000000000000000000000000016600003612acd577fffffffffffffffffffffffffffffffffffffffffffffffffffffffffffffffff01612a66565b60008160010167ffffffffffffffff811115612aeb57612aeb614030565b6040519080825280601f01601f191660200182016040528015612b15576020820181803683370190505b50905060005b828111612b8857838181518110612b3457612b34613dbc565b602001015160f81c60f81b828281518110612b5157612b51613dbc565b60200101907effffffffffffffffffffffffffffffffffffffffffffffffffffffffffffff1916908160001a905350600101612b1b565b50949350505050565b8015611cac5760008281526020858152604080832073ffffffffffffffffffffffffffffffffffffffff87168452909152902054818101818111612c31576040517f08c379a000000000000000000000000000000000000000000000000000000000815260206004820152601960248201527f455243313135353a2062616c616e6365206f766572666c6f7700000000000000604482015260640161090b565b60009384526020958652604080852073ffffffffffffffffffffffffffffffffffffffff9690961685529490955250502055565b6040517fbc197c81000000000000000000000000000000000000000000000000000000008082529073ffffffffffffffffffffffffffffffffffffffff86169063bc197c8190612cc1908a908a908990899089906004016141bf565b6020604051808303816000875af1158015612ce0573d6000803e3d6000fd5b505050506040513d601f19601f82011682018060405250810190612d04919061422a565b7fffffffff00000000000000000000000000000000000000000000000000000000161461086e576040517f08c379a000000000000000000000000000000000000000000000000000000000815260206004820152601a60248201527f455243313135353a207472616e736665722072656a6563746564000000000000604482015260640161090b565b60606000612d9a836133a2565b600101905060008167ffffffffffffffff811115612dba57612dba614030565b6040519080825280601f01601f191660200182016040528015612de4576020820181803683370190505b5090508181016020015b7fffffffffffffffffffffffffffffffffffffffffffffffffffffffffffffffff017f3031323334353637383961626364656600000000000000000000000000000000600a86061a8153600a8504945084612dee57509392505050565b60008173ffffffffffffffffffffffffffffffffffffffff168373ffffffffffffffffffffffffffffffffffffffff1614806107d057505073ffffffffffffffffffffffffffffffffffffffff9182166000908152600193909301602090815260408085209290931684525290205460ff1690565b8015611cac5760008281526020858152604080832073ffffffffffffffffffffffffffffffffffffffff87168452909152902054818103818110612c31576040517f08c379a000000000000000000000000000000000000000000000000000000000815260206004820152601d60248201527f455243313135353a20696e73756666696369656e742062616c616e6365000000604482015260640161090b565b815473ffffffffffffffffffffffffffffffffffffffff168015801590612f9e575060008173ffffffffffffffffffffffffffffffffffffffff163b115b15610726576040517fc617113400000000000000000000000000000000000000000000000000000000815230600482015273ffffffffffffffffffffffffffffffffffffffff838116602483015282169063c617113490604401602060405180830381865afa158015613015573d6000803e3d6000fd5b505050506040513d601f19601f820116820180604052508101906130399190614247565b610726576040517fede71dcc00000000000000000000000000000000000000000000000000000000815273ffffffffffffffffffffffffffffffffffffffff8316600482015260240161090b565b80156109ea5760008281526020868152604080832073ffffffffffffffffffffffffffffffffffffffff88168452909152902054818103818110613127576040517f08c379a000000000000000000000000000000000000000000000000000000000815260206004820152601d60248201527f455243313135353a20696e73756666696369656e742062616c616e6365000000604482015260640161090b565b8473ffffffffffffffffffffffffffffffffffffffff168673ffffffffffffffffffffffffffffffffffffffff1614610d135760008481526020888152604080832073ffffffffffffffffffffffffffffffffffffffff891684529091529020548381018181116131f4576040517f08c379a000000000000000000000000000000000000000000000000000000000815260206004820152601960248201527f455243313135353a2062616c616e6365206f766572666c6f7700000000000000604482015260640161090b565b600086815260208a8152604080832073ffffffffffffffffffffffffffffffffffffffff808d1685528184528285208890558b1684529091529020555050505050505050565b6040517ff23a6e61000000000000000000000000000000000000000000000000000000008082529073ffffffffffffffffffffffffffffffffffffffff86169063f23a6e6190612cc1908a908a90899089908990600401614264565b60006132f8826040518060400160405280602081526020017f5361666545524332303a206c6f772d6c6576656c2063616c6c206661696c65648152508573ffffffffffffffffffffffffffffffffffffffff166134849092919063ffffffff16565b80519091501561072657808060200190518101906133169190614247565b610726576040517f08c379a000000000000000000000000000000000000000000000000000000000815260206004820152602a60248201527f5361666545524332303a204552433230206f7065726174696f6e20646964206e60448201527f6f74207375636365656400000000000000000000000000000000000000000000606482015260840161090b565b6000807a184f03e93ff9f4daa797ed6e38ed64bf6a1f01000000000000000083106133eb577a184f03e93ff9f4daa797ed6e38ed64bf6a1f010000000000000000830492506040015b6d04ee2d6d415b85acef81000000008310613417576d04ee2d6d415b85acef8100000000830492506020015b662386f26fc10000831061343557662386f26fc10000830492506010015b6305f5e100831061344d576305f5e100830492506008015b612710831061346157612710830492506004015b60648310613473576064830492506002015b600a83106104fd5760010192915050565b60606107d08484600085856000808673ffffffffffffffffffffffffffffffffffffffff1685876040516134b891906142a9565b60006040518083038185875af1925050503d80600081146134f5576040519150601f19603f3d011682016040523d82523d6000602084013e6134fa565b606091505b509150915061350b87838387613516565b979650505050505050565b606083156135ac5782516000036135a55773ffffffffffffffffffffffffffffffffffffffff85163b6135a5576040517f08c379a000000000000000000000000000000000000000000000000000000000815260206004820152601d60248201527f416464726573733a2063616c6c20746f206e6f6e2d636f6e7472616374000000604482015260640161090b565b50816107d0565b6107d083838151156135c15781518083602001fd5b806040517f08c379a000000000000000000000000000000000000000000000000000000000815260040161090b9190613703565b73ffffffffffffffffffffffffffffffffffffffff8116811461070b57600080fd5b6000806040838503121561362a57600080fd5b8235613635816135f5565b946020939093013593505050565b7fffffffff000000000000000000000000000000000000000000000000000000008116811461070b57600080fd5b60006020828403121561368357600080fd5b813561368e81613643565b9392505050565b60005b838110156136b0578181015183820152602001613698565b50506000910152565b600081518084526136d1816020860160208601613695565b601f017fffffffffffffffffffffffffffffffffffffffffffffffffffffffffffffffe0169290920160200192915050565b6020815260006104fa60208301846136b9565b60008083601f84011261372857600080fd5b50813567ffffffffffffffff81111561374057600080fd5b6020830191508360208260051b850101111561074757600080fd5b60008083601f84011261376d57600080fd5b50813567ffffffffffffffff81111561378557600080fd5b60208301915083602082850101111561074757600080fd5b60008060008060008060006080888a0312156137b857600080fd5b87356137c3816135f5565b9650602088013567ffffffffffffffff808211156137e057600080fd5b6137ec8b838c01613716565b909850965060408a013591508082111561380557600080fd5b6138118b838c01613716565b909650945060608a013591508082111561382a57600080fd5b506138378a828b0161375b565b989b979a50959850939692959293505050565b60006020828403121561385c57600080fd5b5035919050565b60006020828403121561387557600080fd5b813561368e816135f5565b60008060006060848603121561389557600080fd5b83356138a0816135f5565b95602085013595506040909401359392505050565b600080604083850312156138c857600080fd5b50508035926020909101359150565b60008060008060008060008060a0898b0312156138f357600080fd5b88356138fe816135f5565b9750602089013561390e816135f5565b9650604089013567ffffffffffffffff8082111561392b57600080fd5b6139378c838d01613716565b909850965060608b013591508082111561395057600080fd5b61395c8c838d01613716565b909650945060808b013591508082111561397557600080fd5b506139828b828c0161375b565b999c989b5096995094979396929594505050565b600080604083850312156139a957600080fd5b8235915060208301356139bb816135f5565b809150509250929050565b8183528181602085013750600060208284010152600060207fffffffffffffffffffffffffffffffffffffffffffffffffffffffffffffffe0601f840116840101905092915050565b6020815260006107d06020830184866139c6565b60008060008060408587031215613a3957600080fd5b843567ffffffffffffffff80821115613a5157600080fd5b613a5d88838901613716565b90965094506020870135915080821115613a7657600080fd5b50613a8387828801613716565b95989497509550505050565b600081518084526020808501945080840160005b83811015613abf57815187529582019590820190600101613aa3565b509495945050505050565b6020815260006104fa6020830184613a8f565b600080600080600060808688031215613af557600080fd5b8535613b00816135f5565b94506020860135935060408601359250606086013567ffffffffffffffff811115613b2a57600080fd5b613b368882890161375b565b969995985093965092949392505050565b60008060008060008060608789031215613b6057600080fd5b863567ffffffffffffffff80821115613b7857600080fd5b613b848a838b01613716565b90985096506020890135915080821115613b9d57600080fd5b613ba98a838b01613716565b90965094506040890135915080821115613bc257600080fd5b50613bcf89828a01613716565b979a9699509497509295939492505050565b60008060208385031215613bf457600080fd5b823567ffffffffffffffff811115613c0b57600080fd5b613c178582860161375b565b90969095509350505050565b600080600080600060608688031215613c3b57600080fd5b8535613c46816135f5565b9450602086013567ffffffffffffffff80821115613c6357600080fd5b613c6f89838a01613716565b90965094506040880135915080821115613c8857600080fd5b50613b3688828901613716565b801515811461070b57600080fd5b60008060408385031215613cb657600080fd5b8235613cc1816135f5565b915060208301356139bb81613c95565b60008060408385031215613ce457600080fd5b8235613cef816135f5565b915060208301356139bb816135f5565b60008060008060008060a08789031215613d1857600080fd5b8635613d23816135f5565b95506020870135613d33816135f5565b94506040870135935060608701359250608087013567ffffffffffffffff811115613d5d57600080fd5b613bcf89828a0161375b565b600181811c90821680613d7d57607f821691505b602082108103613db6577f4e487b7100000000000000000000000000000000000000000000000000000000600052602260045260246000fd5b50919050565b7f4e487b7100000000000000000000000000000000000000000000000000000000600052603260045260246000fd5b7f4e487b7100000000000000000000000000000000000000000000000000000000600052601160045260246000fd5b818103818111156104fd576104fd613deb565b7f416363657373436f6e74726f6c3a206d697373696e6720270000000000000000815260008251613e65816018850160208701613695565b7f2720726f6c6500000000000000000000000000000000000000000000000000006018939091019283015250601e01919050565b604081526000613eac6040830185613a8f565b8281036020840152613ebe8185613a8f565b95945050505050565b6000808454613ed581613d69565b60018281168015613eed5760018114613f2057613f4f565b7fffffffffffffffffffffffffffffffffffffffffffffffffffffffffffffff0084168752821515830287019450613f4f565b8860005260208060002060005b85811015613f465781548a820152908401908201613f2d565b50505082870194505b505050508351613f63818360208801613695565b01949350505050565b80820281158282048414176104fd576104fd613deb565b600082613fb9577f4e487b7100000000000000000000000000000000000000000000000000000000600052601260045260246000fd5b500490565b81835260007f07ffffffffffffffffffffffffffffffffffffffffffffffffffffffffffffff831115613ff057600080fd5b8260051b80836020870137939093016020019392505050565b60408152600061401d604083018688613fbe565b828103602084015261350b818587613fbe565b7f4e487b7100000000000000000000000000000000000000000000000000000000600052604160045260246000fd5b601f82111561072657600081815260208120601f850160051c810160208610156140865750805b601f850160051c820191505b8181101561086e57828155600101614092565b67ffffffffffffffff8311156140bd576140bd614030565b6140d1836140cb8354613d69565b8361405f565b6000601f84116001811461412357600085156140ed5750838201355b7fffffffffffffffffffffffffffffffffffffffffffffffffffffffffffffffff600387901b1c1916600186901b1783556109ea565b6000838152602090207fffffffffffffffffffffffffffffffffffffffffffffffffffffffffffffffe0861690835b828110156141725786850135825560209485019460019092019101614152565b50868210156141ad577fffffffffffffffffffffffffffffffffffffffffffffffffffffffffffffffff60f88860031b161c19848701351681555b505060018560011b0183555050505050565b600073ffffffffffffffffffffffffffffffffffffffff808816835280871660208401525060a060408301526141f860a0830186613a8f565b828103606084015261420a8186613a8f565b9050828103608084015261421e81856136b9565b98975050505050505050565b60006020828403121561423c57600080fd5b815161368e81613643565b60006020828403121561425957600080fd5b815161368e81613c95565b600073ffffffffffffffffffffffffffffffffffffffff808816835280871660208401525084604083015283606083015260a0608083015261350b60a08301846136b9565b600082516142bb818460208701613695565b919091019291505056fea264697066735822122044a22bcf7bedbfef38e44eb74e39212936b960288a0721834757a7ebda112c2864736f6c63430008110033",
  "linkReferences": {},
  "deployedLinkReferences": {}
}