{
  "_format": "hh-sol-artifact-1",
  "contractName": "PointsMerkleClaim",
  "sourceName": "contracts/pointsMerkleClaim/PointsMerkleClaim.sol",
  "abi": [
    {
      "inputs": [
        {
          "internalType": "address",
          "name": "pointsContractAddress",
          "type": "address"
        },
        {
          "internalType": "contract IForwarderRegistry",
          "name": "forwarderRegistry_",
          "type": "address"
        }
      ],
      "stateMutability": "nonpayable",
      "type": "constructor"
    },
    {
      "inputs": [
        {
          "internalType": "address",
          "name": "holder",
          "type": "address"
        },
        {
          "internalType": "uint256",
          "name": "amount",
          "type": "uint256"
        },
        {
          "internalType": "bytes32",
          "name": "depositReasonCode",
          "type": "bytes32"
        },
        {
          "internalType": "uint256",
          "name": "deadline",
          "type": "uint256"
        }
      ],
      "name": "AlreadyClaimed",
      "type": "error"
    },
    {
      "inputs": [
        {
          "internalType": "uint256",
          "name": "deadline",
          "type": "uint256"
        }
      ],
      "name": "ClaimExpired",
      "type": "error"
    },
    {
      "inputs": [],
      "name": "IllegalInterfaceId",
      "type": "error"
    },
    {
      "inputs": [
        {
          "internalType": "uint256",
          "name": "amount",
          "type": "uint256"
        }
      ],
      "name": "InvalidClaimAmount",
      "type": "error"
    },
    {
      "inputs": [],
      "name": "InvalidForwarderRegistry",
      "type": "error"
    },
    {
      "inputs": [
        {
          "internalType": "address",
          "name": "pointsContractAddress",
          "type": "address"
        }
      ],
      "name": "InvalidPointsContractAddress",
      "type": "error"
    },
    {
      "inputs": [
        {
          "internalType": "address",
          "name": "holder",
          "type": "address"
        },
        {
          "internalType": "uint256",
          "name": "amount",
          "type": "uint256"
        },
        {
          "internalType": "bytes32",
          "name": "depositReasonCode",
          "type": "bytes32"
        },
        {
          "internalType": "uint256",
          "name": "deadline",
          "type": "uint256"
        }
      ],
      "name": "InvalidProof",
      "type": "error"
    },
    {
      "inputs": [],
      "name": "MerkleRootNotExists",
      "type": "error"
    },
    {
      "inputs": [
        {
          "internalType": "address",
          "name": "account",
          "type": "address"
        }
      ],
      "name": "NotContractOwner",
      "type": "error"
    },
    {
      "inputs": [],
      "name": "NotPaused",
      "type": "error"
    },
    {
      "inputs": [],
      "name": "Paused",
      "type": "error"
    },
    {
      "anonymous": false,
      "inputs": [
        {
          "indexed": true,
          "internalType": "bytes32",
          "name": "root",
          "type": "bytes32"
        }
      ],
      "name": "MerkleRootSet",
      "type": "event"
    },
    {
      "anonymous": false,
      "inputs": [
        {
          "indexed": true,
          "internalType": "address",
          "name": "previousOwner",
          "type": "address"
        },
        {
          "indexed": true,
          "internalType": "address",
          "name": "newOwner",
          "type": "address"
        }
      ],
      "name": "OwnershipTransferred",
      "type": "event"
    },
    {
      "anonymous": false,
      "inputs": [],
      "name": "Pause",
      "type": "event"
    },
    {
      "anonymous": false,
      "inputs": [
        {
          "indexed": true,
          "internalType": "bytes32",
          "name": "root",
          "type": "bytes32"
        },
        {
          "indexed": true,
          "internalType": "address",
          "name": "holder",
          "type": "address"
        },
        {
          "indexed": true,
          "internalType": "bytes32",
          "name": "depositReasonCode",
          "type": "bytes32"
        },
        {
          "indexed": false,
          "internalType": "uint256",
          "name": "amount",
          "type": "uint256"
        },
        {
          "indexed": false,
          "internalType": "uint256",
          "name": "deadline",
          "type": "uint256"
        }
      ],
      "name": "PayoutClaimed",
      "type": "event"
    },
    {
      "anonymous": false,
      "inputs": [],
      "name": "Unpause",
      "type": "event"
    },
    {
      "inputs": [],
      "name": "POINTS_CONTRACT",
      "outputs": [
        {
          "internalType": "contract IPoints",
          "name": "",
          "type": "address"
        }
      ],
      "stateMutability": "view",
      "type": "function"
    },
    {
      "inputs": [
        {
          "internalType": "address",
          "name": "holder",
          "type": "address"
        },
        {
          "internalType": "uint256",
          "name": "amount",
          "type": "uint256"
        },
        {
          "internalType": "bytes32",
          "name": "depositReasonCode",
          "type": "bytes32"
        },
        {
          "internalType": "uint256",
          "name": "deadline",
          "type": "uint256"
        },
        {
          "internalType": "bytes32[]",
          "name": "proof",
          "type": "bytes32[]"
        }
      ],
      "name": "claimPayout",
      "outputs": [],
      "stateMutability": "nonpayable",
      "type": "function"
    },
    {
      "inputs": [
        {
          "internalType": "bytes32",
          "name": "",
          "type": "bytes32"
        }
      ],
      "name": "claimed",
      "outputs": [
        {
          "internalType": "bool",
          "name": "",
          "type": "bool"
        }
      ],
      "stateMutability": "view",
      "type": "function"
    },
    {
      "inputs": [],
      "name": "forwarderRegistry",
      "outputs": [
        {
          "internalType": "contract IForwarderRegistry",
          "name": "",
          "type": "address"
        }
      ],
      "stateMutability": "view",
      "type": "function"
    },
    {
      "inputs": [
        {
          "internalType": "address",
          "name": "forwarder",
          "type": "address"
        }
      ],
      "name": "isTrustedForwarder",
      "outputs": [
        {
          "internalType": "bool",
          "name": "",
          "type": "bool"
        }
      ],
      "stateMutability": "view",
      "type": "function"
    },
    {
      "inputs": [],
      "name": "owner",
      "outputs": [
        {
          "internalType": "address",
          "name": "",
          "type": "address"
        }
      ],
      "stateMutability": "view",
      "type": "function"
    },
    {
      "inputs": [],
      "name": "pause",
      "outputs": [],
      "stateMutability": "nonpayable",
      "type": "function"
    },
    {
      "inputs": [],
      "name": "paused",
      "outputs": [
        {
          "internalType": "bool",
          "name": "",
          "type": "bool"
        }
      ],
      "stateMutability": "view",
      "type": "function"
    },
    {
      "inputs": [],
      "name": "root",
      "outputs": [
        {
          "internalType": "bytes32",
          "name": "",
          "type": "bytes32"
        }
      ],
      "stateMutability": "view",
      "type": "function"
    },
    {
      "inputs": [
        {
          "internalType": "bytes32",
          "name": "merkleRoot",
          "type": "bytes32"
        }
      ],
      "name": "setMerkleRoot",
      "outputs": [],
      "stateMutability": "nonpayable",
      "type": "function"
    },
    {
      "inputs": [
        {
          "internalType": "bytes4",
          "name": "interfaceId",
          "type": "bytes4"
        }
      ],
      "name": "supportsInterface",
      "outputs": [
        {
          "internalType": "bool",
          "name": "",
          "type": "bool"
        }
      ],
      "stateMutability": "view",
      "type": "function"
    },
    {
      "inputs": [
        {
          "internalType": "address",
          "name": "newOwner",
          "type": "address"
        }
      ],
      "name": "transferOwnership",
      "outputs": [],
      "stateMutability": "nonpayable",
      "type": "function"
    },
    {
      "inputs": [],
      "name": "unpause",
      "outputs": [],
      "stateMutability": "nonpayable",
      "type": "function"
    }
  ],
  "bytecode": "0x60c06040523480156200001157600080fd5b506040516200118f3803806200118f83398101604081905262000034916200021f565b8080336200004d8162000046620000c8565b90620000fe565b506001600160a01b03908116608052831690506200008d576040516302caf95f60e61b81526001600160a01b038316600482015260240160405180910390fd5b6001600160a01b038116620000b557604051633545ba1f60e21b815260040160405180910390fd5b506001600160a01b031660a05262000280565b600080620000f860017fc9ed16f33ab3a66c84bfd83099ccb2a8845871e2e1c1928f63797152f0fd54cd6200025e565b92915050565b6001600160a01b03811615620001555781546001600160a01b0319166001600160a01b03821690811783556040516000907f8be0079c531659141344cd1fd0a4f28419497f9722a3daafe3b4186f6b6457e0908290a35b620001756307f5828d60e41b60016200016d62000179565b9190620001a9565b5050565b600080620000f860017fca9d3e17f264b0f3984e2634e94adb37fa3e6a8103f06aeae6fa59e21c769f5e6200025e565b600160e01b6001600160e01b0319831601620001d8576040516372c683bb60e01b815260040160405180910390fd5b6001600160e01b03199190911660009081526020929092526040909120805460ff1916911515919091179055565b6001600160a01b03811681146200021c57600080fd5b50565b600080604083850312156200023357600080fd5b8251620002408162000206565b6020840151909250620002538162000206565b809150509250929050565b81810381811115620000f857634e487b7160e01b600052601160045260246000fd5b60805160a051610ecd620002c26000396000818161015801526105f701526000818161010e0152818161019401528181610b180152610ba00152610ecd6000f3fe608060405234801561001057600080fd5b50600436106100df5760003560e01c80637cb647591161008c578063cc3c0f0611610066578063cc3c0f06146101fc578063d71f13d71461021f578063ebf0c71714610232578063f2fde38b1461024957600080fd5b80637cb64759146101d95780638456cb59146101ec5780638da5cb5b146101f457600080fd5b80633f4ba83a116100bd5780633f4ba83a1461017a578063572b6c05146101845780635c975abb146101d157600080fd5b806301ffc9a7146100e45780632b4c9f161461010c5780632d4c2f9314610153575b600080fd5b6100f76100f2366004610ccb565b61025c565b60405190151581526020015b60405180910390f35b7f00000000000000000000000000000000000000000000000000000000000000005b60405173ffffffffffffffffffffffffffffffffffffffff9091168152602001610103565b61012e7f000000000000000000000000000000000000000000000000000000000000000081565b610182610276565b005b6100f7610192366004610d36565b7f000000000000000000000000000000000000000000000000000000000000000073ffffffffffffffffffffffffffffffffffffffff90811691161490565b6100f76102a1565b6101826101e7366004610d51565b6102ba565b6101826102f5565b61012e610310565b6100f761020a366004610d51565b60016020526000908152604090205460ff1681565b61018261022d366004610d6a565b610337565b61023b60005481565b604051908152602001610103565b610182610257366004610d36565b6106b8565b60006102708261026a6106d6565b90610704565b92915050565b61028f6102816107de565b6102896107e8565b90610816565b61029f61029a610885565b6108b3565b565b60006102b56102ae610885565b5460ff1690565b905090565b6102c56102816107de565b600081815560405182917f42cbc405e4dbf1b691e85b9a34b08ecfcf7a9ad9078bf4d645ccfa1fac11c10b91a250565b6103006102816107de565b61029f61030b610885565b61090e565b60006102b561031d6107e8565b5473ffffffffffffffffffffffffffffffffffffffff1690565b84600003610379576040517f27ab1ee2000000000000000000000000000000000000000000000000000000008152600481018690526024015b60405180910390fd5b824211156103b6576040517ff5f3b23000000000000000000000000000000000000000000000000000000000815260048101849052602401610370565b6103c66103c1610885565b61096c565b6000805490819003610404576040517f4069a05700000000000000000000000000000000000000000000000000000000815260040160405180910390fd5b6040517fffffffffffffffffffffffffffffffffffffffff000000000000000000000000606089901b166020820152603481018790526054810186905260748101859052600090609401604080517fffffffffffffffffffffffffffffffffffffffffffffffffffffffffffffffe081840301815291905280516020909101209050610492848484846109a8565b6104f5576040517fa041b52e00000000000000000000000000000000000000000000000000000000815273ffffffffffffffffffffffffffffffffffffffff89166004820152602481018890526044810187905260648101869052608401610370565b60008181526001602052604090205460ff161561056b576040517f7635807d00000000000000000000000000000000000000000000000000000000815273ffffffffffffffffffffffffffffffffffffffff89166004820152602481018890526044810187905260648101869052608401610370565b60008181526001602081905260409182902080547fffffffffffffffffffffffffffffffffffffffffffffffffffffffffffffff00169091179055517f26b3293f00000000000000000000000000000000000000000000000000000000815273ffffffffffffffffffffffffffffffffffffffff898116600483015260248201899052604482018890527f000000000000000000000000000000000000000000000000000000000000000016906326b3293f90606401600060405180830381600087803b15801561063b57600080fd5b505af115801561064f573d6000803e3d6000fd5b50505050858873ffffffffffffffffffffffffffffffffffffffff16837f3b7a2657cb0a2501536d45aeb61ad8088337c70086ba7d3b078cf6592597c3c98a896040516106a6929190918252602082015260400190565b60405180910390a45050505050505050565b6106d36106c36107de565b826106cc6107e8565b91906109c0565b50565b60008061027060017fca9d3e17f264b0f3984e2634e94adb37fa3e6a8103f06aeae6fa59e21c769f5e610e0c565b60007c01000000000000000000000000000000000000000000000000000000007fffffffff0000000000000000000000000000000000000000000000000000000083160161075457506000610270565b7ffe003659000000000000000000000000000000000000000000000000000000007fffffffff000000000000000000000000000000000000000000000000000000008316016107a557506001610270565b507fffffffff00000000000000000000000000000000000000000000000000000000166000908152602091909152604090205460ff1690565b60006102b5610ad5565b60008061027060017fc9ed16f33ab3a66c84bfd83099ccb2a8845871e2e1c1928f63797152f0fd54cd610e0c565b815473ffffffffffffffffffffffffffffffffffffffff828116911614610881576040517f2ef4875e00000000000000000000000000000000000000000000000000000000815273ffffffffffffffffffffffffffffffffffffffff82166004820152602401610370565b5050565b60008061027060017f0186a05f63b1553398ad5ea3233c0ce68b8c9eecc47717f123c5c2b42fbd6d9f610e0c565b6108bc81610c1c565b80547fffffffffffffffffffffffffffffffffffffffffffffffffffffffffffffff001681556040517f7805862f689e2f13df9f062ff482ad3ad112aca9e0847911ed832e158c525b3390600090a150565b6109178161096c565b80547fffffffffffffffffffffffffffffffffffffffffffffffffffffffffffffff001660011781556040517f6985a02210a168e66602d3235cb6db0e70f92b3ba4d376a33c0f3d9434bff62590600090a150565b805460ff16156106d3576040517f9e87fac800000000000000000000000000000000000000000000000000000000815260040160405180910390fd5b6000826109b6868685610c57565b1495945050505050565b825473ffffffffffffffffffffffffffffffffffffffff9081169083168114610a2d576040517f2ef4875e00000000000000000000000000000000000000000000000000000000815273ffffffffffffffffffffffffffffffffffffffff84166004820152602401610370565b8173ffffffffffffffffffffffffffffffffffffffff168173ffffffffffffffffffffffffffffffffffffffff1614610acf5783547fffffffffffffffffffffffff00000000000000000000000000000000000000001673ffffffffffffffffffffffffffffffffffffffff8381169182178655604051908316907f8be0079c531659141344cd1fd0a4f28419497f9722a3daafe3b4186f6b6457e090600090a35b50505050565b600033321480610ae55750601836105b15610aef57503390565b7fffffffffffffffffffffffffffffffffffffffffffffffffffffffffffffffec36013560601c7f000000000000000000000000000000000000000000000000000000000000000073ffffffffffffffffffffffffffffffffffffffff16331480610c0b57506040517f8929a8ca00000000000000000000000000000000000000000000000000000000815273ffffffffffffffffffffffffffffffffffffffff82811660048301523360248301527f00000000000000000000000000000000000000000000000000000000000000001690638929a8ca90604401602060405180830381865afa158015610be7573d6000803e3d6000fd5b505050506040513d601f19601f82011682018060405250810190610c0b9190610e46565b15610c1557919050565b3391505090565b805460ff166106d3576040517f6cd6020100000000000000000000000000000000000000000000000000000000815260040160405180910390fd5b600081815b84811015610c9057610c8682878784818110610c7a57610c7a610e68565b90506020020135610c99565b9150600101610c5c565b50949350505050565b6000818310610cb5576000828152602084905260409020610cc4565b60008381526020839052604090205b9392505050565b600060208284031215610cdd57600080fd5b81357fffffffff0000000000000000000000000000000000000000000000000000000081168114610cc457600080fd5b803573ffffffffffffffffffffffffffffffffffffffff81168114610d3157600080fd5b919050565b600060208284031215610d4857600080fd5b610cc482610d0d565b600060208284031215610d6357600080fd5b5035919050565b60008060008060008060a08789031215610d8357600080fd5b610d8c87610d0d565b9550602087013594506040870135935060608701359250608087013567ffffffffffffffff80821115610dbe57600080fd5b818901915089601f830112610dd257600080fd5b813581811115610de157600080fd5b8a60208260051b8501011115610df657600080fd5b6020830194508093505050509295509295509295565b81810381811115610270577f4e487b7100000000000000000000000000000000000000000000000000000000600052601160045260246000fd5b600060208284031215610e5857600080fd5b81518015158114610cc457600080fd5b7f4e487b7100000000000000000000000000000000000000000000000000000000600052603260045260246000fdfea264697066735822122051ca8dbb3d97709b6662ee7a911c184e9b26a8aea4febfc2d2e1c5455f9dadc064736f6c63430008160033",
  "linkReferences": {},
  "deployedLinkReferences": {}
}