{
  "_format": "hh-sol-artifact-1",
  "contractName": "Gambit",
  "sourceName": "contracts/game/Gambit.sol",
  "abi": [
    {
      "inputs": [
        {
          "internalType": "address payable",
          "name": "payoutAddress",
          "type": "address"
        },
        {
          "internalType": "contract IERC20",
          "name": "buyInToken",
          "type": "address"
        },
        {
          "internalType": "uint256",
          "name": "buyIn_",
          "type": "uint256"
        },
        {
          "internalType": "uint256",
          "name": "platformFee_",
          "type": "uint256"
        }
      ],
      "stateMutability": "nonpayable",
      "type": "constructor"
    },
    {
      "inputs": [
        {
          "internalType": "address",
          "name": "target",
          "type": "address"
        },
        {
          "internalType": "uint256",
          "name": "matchId",
          "type": "uint256"
        },
        {
          "internalType": "address",
          "name": "winner",
          "type": "address"
        },
        {
          "internalType": "address",
          "name": "loser",
          "type": "address"
        },
        {
          "internalType": "uint256",
          "name": "prize",
          "type": "uint256"
        },
        {
          "internalType": "uint256",
          "name": "totalFee",
          "type": "uint256"
        }
      ],
      "name": "CallbackRejected",
      "type": "error"
    },
    {
      "inputs": [],
      "name": "ECDSAInvalidSignature",
      "type": "error"
    },
    {
      "inputs": [
        {
          "internalType": "uint256",
          "name": "length",
          "type": "uint256"
        }
      ],
      "name": "ECDSAInvalidSignatureLength",
      "type": "error"
    },
    {
      "inputs": [
        {
          "internalType": "bytes32",
          "name": "s",
          "type": "bytes32"
        }
      ],
      "name": "ECDSAInvalidSignatureS",
      "type": "error"
    },
    {
      "inputs": [],
      "name": "ExpiredSignature",
      "type": "error"
    },
    {
      "inputs": [],
      "name": "IllegalInterfaceId",
      "type": "error"
    },
    {
      "inputs": [
        {
          "internalType": "uint256",
          "name": "matchId",
          "type": "uint256"
        }
      ],
      "name": "InsufficientMatchBalance",
      "type": "error"
    },
    {
      "inputs": [
        {
          "internalType": "uint256",
          "name": "matchId",
          "type": "uint256"
        }
      ],
      "name": "InsufficientPlayers",
      "type": "error"
    },
    {
      "inputs": [],
      "name": "InvalidPlayer",
      "type": "error"
    },
    {
      "inputs": [],
      "name": "InvalidPlayerMoveKey",
      "type": "error"
    },
    {
      "inputs": [],
      "name": "InvalidShortString",
      "type": "error"
    },
    {
      "inputs": [
        {
          "internalType": "uint256",
          "name": "matchId",
          "type": "uint256"
        }
      ],
      "name": "MatchAlreadyConcluded",
      "type": "error"
    },
    {
      "inputs": [
        {
          "internalType": "uint256",
          "name": "matchId",
          "type": "uint256"
        }
      ],
      "name": "MatchIsFull",
      "type": "error"
    },
    {
      "inputs": [
        {
          "internalType": "address",
          "name": "account",
          "type": "address"
        }
      ],
      "name": "NotContractOwner",
      "type": "error"
    },
    {
      "inputs": [
        {
          "internalType": "uint256",
          "name": "matchId",
          "type": "uint256"
        },
        {
          "internalType": "address",
          "name": "player",
          "type": "address"
        }
      ],
      "name": "NotMatchPlayer",
      "type": "error"
    },
    {
      "inputs": [],
      "name": "NotPaused",
      "type": "error"
    },
    {
      "inputs": [
        {
          "internalType": "bytes32",
          "name": "role",
          "type": "bytes32"
        },
        {
          "internalType": "address",
          "name": "account",
          "type": "address"
        }
      ],
      "name": "NotRoleHolder",
      "type": "error"
    },
    {
      "inputs": [],
      "name": "Paused",
      "type": "error"
    },
    {
      "inputs": [
        {
          "internalType": "uint256",
          "name": "buyInAmount",
          "type": "uint256"
        },
        {
          "internalType": "uint256",
          "name": "newPlatformFee",
          "type": "uint256"
        }
      ],
      "name": "PlatformFeeExceedsBuyIn",
      "type": "error"
    },
    {
      "inputs": [
        {
          "internalType": "uint256",
          "name": "matchId",
          "type": "uint256"
        },
        {
          "internalType": "address",
          "name": "player",
          "type": "address"
        }
      ],
      "name": "PlayerAlreadyJoined",
      "type": "error"
    },
    {
      "inputs": [
        {
          "internalType": "uint256",
          "name": "matchId",
          "type": "uint256"
        },
        {
          "internalType": "address",
          "name": "player",
          "type": "address"
        }
      ],
      "name": "PlayerAlreadyRefunded",
      "type": "error"
    },
    {
      "inputs": [
        {
          "internalType": "address",
          "name": "token",
          "type": "address"
        }
      ],
      "name": "SafeERC20FailedOperation",
      "type": "error"
    },
    {
      "inputs": [
        {
          "internalType": "string",
          "name": "str",
          "type": "string"
        }
      ],
      "name": "StringTooLong",
      "type": "error"
    },
    {
      "inputs": [],
      "name": "ZeroAddressPayoutWallet",
      "type": "error"
    },
    {
      "anonymous": false,
      "inputs": [
        {
          "indexed": true,
          "internalType": "uint256",
          "name": "oldBuyIn",
          "type": "uint256"
        },
        {
          "indexed": true,
          "internalType": "uint256",
          "name": "newBuyIn",
          "type": "uint256"
        }
      ],
      "name": "BuyInUpdated",
      "type": "event"
    },
    {
      "anonymous": false,
      "inputs": [],
      "name": "EIP712DomainChanged",
      "type": "event"
    },
    {
      "anonymous": false,
      "inputs": [
        {
          "indexed": true,
          "internalType": "address",
          "name": "newCallback",
          "type": "address"
        }
      ],
      "name": "MatchCompleteCallbackUpdated",
      "type": "event"
    },
    {
      "anonymous": false,
      "inputs": [
        {
          "indexed": true,
          "internalType": "uint256",
          "name": "matchId",
          "type": "uint256"
        },
        {
          "indexed": true,
          "internalType": "address",
          "name": "winner",
          "type": "address"
        },
        {
          "indexed": false,
          "internalType": "uint256",
          "name": "prizeAmount",
          "type": "uint256"
        }
      ],
      "name": "MatchCompleted",
      "type": "event"
    },
    {
      "anonymous": false,
      "inputs": [
        {
          "indexed": true,
          "internalType": "uint256",
          "name": "matchId",
          "type": "uint256"
        },
        {
          "indexed": true,
          "internalType": "address",
          "name": "player",
          "type": "address"
        },
        {
          "indexed": false,
          "internalType": "uint256",
          "name": "refundAmount",
          "type": "uint256"
        }
      ],
      "name": "MatchRefunded",
      "type": "event"
    },
    {
      "anonymous": false,
      "inputs": [
        {
          "indexed": true,
          "internalType": "address",
          "name": "previousOwner",
          "type": "address"
        },
        {
          "indexed": true,
          "internalType": "address",
          "name": "newOwner",
          "type": "address"
        }
      ],
      "name": "OwnershipTransferred",
      "type": "event"
    },
    {
      "anonymous": false,
      "inputs": [],
      "name": "Pause",
      "type": "event"
    },
    {
      "anonymous": false,
      "inputs": [
        {
          "indexed": false,
          "internalType": "address",
          "name": "payoutWallet",
          "type": "address"
        }
      ],
      "name": "PayoutWalletSet",
      "type": "event"
    },
    {
      "anonymous": false,
      "inputs": [
        {
          "indexed": true,
          "internalType": "uint256",
          "name": "oldPlatformFee",
          "type": "uint256"
        },
        {
          "indexed": true,
          "internalType": "uint256",
          "name": "newPlatformFee",
          "type": "uint256"
        }
      ],
      "name": "PlatformFeeUpdated",
      "type": "event"
    },
    {
      "anonymous": false,
      "inputs": [
        {
          "indexed": true,
          "internalType": "uint256",
          "name": "matchId",
          "type": "uint256"
        },
        {
          "indexed": true,
          "internalType": "address",
          "name": "player",
          "type": "address"
        },
        {
          "indexed": true,
          "internalType": "address",
          "name": "playerMoveKey",
          "type": "address"
        },
        {
          "indexed": false,
          "internalType": "bool",
          "name": "isPlayer1",
          "type": "bool"
        },
        {
          "indexed": false,
          "internalType": "uint256",
          "name": "buyIn",
          "type": "uint256"
        },
        {
          "indexed": false,
          "internalType": "uint256",
          "name": "platformFee",
          "type": "uint256"
        }
      ],
      "name": "PlayerJoined",
      "type": "event"
    },
    {
      "anonymous": false,
      "inputs": [
        {
          "indexed": false,
          "internalType": "bytes32",
          "name": "role",
          "type": "bytes32"
        },
        {
          "indexed": false,
          "internalType": "address",
          "name": "account",
          "type": "address"
        },
        {
          "indexed": false,
          "internalType": "address",
          "name": "operator",
          "type": "address"
        }
      ],
      "name": "RoleGranted",
      "type": "event"
    },
    {
      "anonymous": false,
      "inputs": [
        {
          "indexed": false,
          "internalType": "bytes32",
          "name": "role",
          "type": "bytes32"
        },
        {
          "indexed": false,
          "internalType": "address",
          "name": "account",
          "type": "address"
        },
        {
          "indexed": false,
          "internalType": "address",
          "name": "operator",
          "type": "address"
        }
      ],
      "name": "RoleRevoked",
      "type": "event"
    },
    {
      "anonymous": false,
      "inputs": [],
      "name": "Unpause",
      "type": "event"
    },
    {
      "inputs": [],
      "name": "ADMIN_ROLE",
      "outputs": [
        {
          "internalType": "bytes32",
          "name": "",
          "type": "bytes32"
        }
      ],
      "stateMutability": "view",
      "type": "function"
    },
    {
      "inputs": [],
      "name": "BUYIN_TOKEN",
      "outputs": [
        {
          "internalType": "contract IERC20",
          "name": "",
          "type": "address"
        }
      ],
      "stateMutability": "view",
      "type": "function"
    },
    {
      "inputs": [],
      "name": "COMPLETE_MATCH_TYPEHASH",
      "outputs": [
        {
          "internalType": "bytes32",
          "name": "",
          "type": "bytes32"
        }
      ],
      "stateMutability": "view",
      "type": "function"
    },
    {
      "inputs": [],
      "name": "DRAW_MATCH_TYPEHASH",
      "outputs": [
        {
          "internalType": "bytes32",
          "name": "",
          "type": "bytes32"
        }
      ],
      "stateMutability": "view",
      "type": "function"
    },
    {
      "inputs": [],
      "name": "JOIN_MATCH_TYPEHASH",
      "outputs": [
        {
          "internalType": "bytes32",
          "name": "",
          "type": "bytes32"
        }
      ],
      "stateMutability": "view",
      "type": "function"
    },
    {
      "inputs": [],
      "name": "REFEREE_ROLE",
      "outputs": [
        {
          "internalType": "bytes32",
          "name": "",
          "type": "bytes32"
        }
      ],
      "stateMutability": "view",
      "type": "function"
    },
    {
      "inputs": [],
      "name": "REFUND_MATCH_TYPEHASH",
      "outputs": [
        {
          "internalType": "bytes32",
          "name": "",
          "type": "bytes32"
        }
      ],
      "stateMutability": "view",
      "type": "function"
    },
    {
      "inputs": [],
      "name": "buyIn",
      "outputs": [
        {
          "internalType": "uint256",
          "name": "",
          "type": "uint256"
        }
      ],
      "stateMutability": "view",
      "type": "function"
    },
    {
      "inputs": [
        {
          "internalType": "uint256",
          "name": "matchId",
          "type": "uint256"
        },
        {
          "internalType": "address",
          "name": "winner",
          "type": "address"
        },
        {
          "internalType": "bytes",
          "name": "signature",
          "type": "bytes"
        }
      ],
      "name": "completeMatch",
      "outputs": [],
      "stateMutability": "nonpayable",
      "type": "function"
    },
    {
      "inputs": [
        {
          "internalType": "uint256",
          "name": "matchId",
          "type": "uint256"
        },
        {
          "internalType": "address",
          "name": "player",
          "type": "address"
        },
        {
          "internalType": "bytes",
          "name": "signature",
          "type": "bytes"
        }
      ],
      "name": "drawMatch",
      "outputs": [],
      "stateMutability": "nonpayable",
      "type": "function"
    },
    {
      "inputs": [],
      "name": "eip712Domain",
      "outputs": [
        {
          "internalType": "bytes1",
          "name": "fields",
          "type": "bytes1"
        },
        {
          "internalType": "string",
          "name": "name",
          "type": "string"
        },
        {
          "internalType": "string",
          "name": "version",
          "type": "string"
        },
        {
          "internalType": "uint256",
          "name": "chainId",
          "type": "uint256"
        },
        {
          "internalType": "address",
          "name": "verifyingContract",
          "type": "address"
        },
        {
          "internalType": "bytes32",
          "name": "salt",
          "type": "bytes32"
        },
        {
          "internalType": "uint256[]",
          "name": "extensions",
          "type": "uint256[]"
        }
      ],
      "stateMutability": "view",
      "type": "function"
    },
    {
      "inputs": [
        {
          "internalType": "bytes32",
          "name": "role",
          "type": "bytes32"
        },
        {
          "internalType": "address",
          "name": "account",
          "type": "address"
        }
      ],
      "name": "grantRole",
      "outputs": [],
      "stateMutability": "nonpayable",
      "type": "function"
    },
    {
      "inputs": [
        {
          "internalType": "bytes32",
          "name": "role",
          "type": "bytes32"
        },
        {
          "internalType": "address",
          "name": "account",
          "type": "address"
        }
      ],
      "name": "hasRole",
      "outputs": [
        {
          "internalType": "bool",
          "name": "hasRole_",
          "type": "bool"
        }
      ],
      "stateMutability": "view",
      "type": "function"
    },
    {
      "inputs": [
        {
          "internalType": "uint256",
          "name": "matchId",
          "type": "uint256"
        }
      ],
      "name": "isMatchConcluded",
      "outputs": [
        {
          "internalType": "bool",
          "name": "",
          "type": "bool"
        }
      ],
      "stateMutability": "view",
      "type": "function"
    },
    {
      "inputs": [
        {
          "internalType": "uint256",
          "name": "matchId",
          "type": "uint256"
        },
        {
          "internalType": "address",
          "name": "player",
          "type": "address"
        },
        {
          "internalType": "address",
          "name": "playerMoveKey",
          "type": "address"
        },
        {
          "internalType": "uint256",
          "name": "matchDeadline",
          "type": "uint256"
        },
        {
          "internalType": "bytes",
          "name": "signature",
          "type": "bytes"
        }
      ],
      "name": "joinMatch",
      "outputs": [],
      "stateMutability": "nonpayable",
      "type": "function"
    },
    {
      "inputs": [],
      "name": "matchCompleteCallback",
      "outputs": [
        {
          "internalType": "contract IGambitMatchCompleteCallback",
          "name": "",
          "type": "address"
        }
      ],
      "stateMutability": "view",
      "type": "function"
    },
    {
      "inputs": [
        {
          "internalType": "uint256",
          "name": "matchId",
          "type": "uint256"
        }
      ],
      "name": "matches",
      "outputs": [
        {
          "internalType": "address",
          "name": "p1",
          "type": "address"
        },
        {
          "internalType": "address",
          "name": "p2",
          "type": "address"
        },
        {
          "internalType": "address",
          "name": "p1MoveKey",
          "type": "address"
        },
        {
          "internalType": "address",
          "name": "p2MoveKey",
          "type": "address"
        },
        {
          "internalType": "uint256",
          "name": "p1Balance",
          "type": "uint256"
        },
        {
          "internalType": "uint256",
          "name": "p2Balance",
          "type": "uint256"
        },
        {
          "internalType": "uint256",
          "name": "platformFee",
          "type": "uint256"
        }
      ],
      "stateMutability": "view",
      "type": "function"
    },
    {
      "inputs": [],
      "name": "owner",
      "outputs": [
        {
          "internalType": "address",
          "name": "",
          "type": "address"
        }
      ],
      "stateMutability": "view",
      "type": "function"
    },
    {
      "inputs": [],
      "name": "pause",
      "outputs": [],
      "stateMutability": "nonpayable",
      "type": "function"
    },
    {
      "inputs": [],
      "name": "paused",
      "outputs": [
        {
          "internalType": "bool",
          "name": "",
          "type": "bool"
        }
      ],
      "stateMutability": "view",
      "type": "function"
    },
    {
      "inputs": [],
      "name": "payoutWallet",
      "outputs": [
        {
          "internalType": "address payable",
          "name": "wallet",
          "type": "address"
        }
      ],
      "stateMutability": "view",
      "type": "function"
    },
    {
      "inputs": [],
      "name": "platformFee",
      "outputs": [
        {
          "internalType": "uint256",
          "name": "",
          "type": "uint256"
        }
      ],
      "stateMutability": "view",
      "type": "function"
    },
    {
      "inputs": [
        {
          "internalType": "uint256",
          "name": "matchId",
          "type": "uint256"
        }
      ],
      "name": "refundMatch",
      "outputs": [],
      "stateMutability": "nonpayable",
      "type": "function"
    },
    {
      "inputs": [
        {
          "internalType": "uint256",
          "name": "matchId",
          "type": "uint256"
        },
        {
          "internalType": "address",
          "name": "player",
          "type": "address"
        },
        {
          "internalType": "bytes",
          "name": "signature",
          "type": "bytes"
        }
      ],
      "name": "refundMatch",
      "outputs": [],
      "stateMutability": "nonpayable",
      "type": "function"
    },
    {
      "inputs": [
        {
          "internalType": "bytes32",
          "name": "role",
          "type": "bytes32"
        }
      ],
      "name": "renounceRole",
      "outputs": [],
      "stateMutability": "nonpayable",
      "type": "function"
    },
    {
      "inputs": [
        {
          "internalType": "bytes32",
          "name": "role",
          "type": "bytes32"
        },
        {
          "internalType": "address",
          "name": "account",
          "type": "address"
        }
      ],
      "name": "revokeRole",
      "outputs": [],
      "stateMutability": "nonpayable",
      "type": "function"
    },
    {
      "inputs": [
        {
          "internalType": "uint256",
          "name": "newBuyIn",
          "type": "uint256"
        }
      ],
      "name": "setBuyIn",
      "outputs": [],
      "stateMutability": "nonpayable",
      "type": "function"
    },
    {
      "inputs": [
        {
          "internalType": "address",
          "name": "newCallback",
          "type": "address"
        }
      ],
      "name": "setMatchCompleteCallback",
      "outputs": [],
      "stateMutability": "nonpayable",
      "type": "function"
    },
    {
      "inputs": [
        {
          "internalType": "address payable",
          "name": "newPayoutWallet",
          "type": "address"
        }
      ],
      "name": "setPayoutWallet",
      "outputs": [],
      "stateMutability": "nonpayable",
      "type": "function"
    },
    {
      "inputs": [
        {
          "internalType": "uint256",
          "name": "newPlatformFee",
          "type": "uint256"
        }
      ],
      "name": "setPlatformFee",
      "outputs": [],
      "stateMutability": "nonpayable",
      "type": "function"
    },
    {
      "inputs": [
        {
          "internalType": "bytes4",
          "name": "interfaceId",
          "type": "bytes4"
        }
      ],
      "name": "supportsInterface",
      "outputs": [
        {
          "internalType": "bool",
          "name": "",
          "type": "bool"
        }
      ],
      "stateMutability": "view",
      "type": "function"
    },
    {
      "inputs": [
        {
          "internalType": "address",
          "name": "newOwner",
          "type": "address"
        }
      ],
      "name": "transferOwnership",
      "outputs": [],
      "stateMutability": "nonpayable",
      "type": "function"
    },
    {
      "inputs": [],
      "name": "unpause",
      "outputs": [],
      "stateMutability": "nonpayable",
      "type": "function"
    }
  ],
  "bytecode": "0x61018080604052346103c357608081613874803803809161002082856103c8565b8339810103126103c35780516001600160a01b03811691908290036103c35760208101516001600160a01b03811681036103c35760606040830151920151926040519061006e6040836103c8565b60068252602082016511d85b589a5d60d21b8152604051926100916040856103c8565b600184526020840192603160f81b845233610364575b6307f5828d60e41b6000527fca9d3e17f264b0f3984e2634e94adb37fa3e6a8103f06aeae6fa59e21c769f5d6020527fa53d5a615b1d5279f1a6647c5c0f31bf064b1e70af135676a4a96aeaeb691a2f805460ff191660011790558015610353577f4fb5f8cdfbce77f22b0931a39e9f476a60a0f66524b2f379e96485471eb700ad80546001600160a01b031916821790556040519081527fdd880d24a789958a6398c99c2e54ce31bc10a638cbc42f7dd34285479ae0f85590602090a161016e81610421565b6101205261017b846105e3565b61014052519020918260e05251902080610100524660a0526040519060208201927f8b73c3c69bb8fe3d512ecc4cf759cc79239f7b179b0ffacaa9a75d522b39400f8452604083015260608201524660808201523060a082015260a081526101e460c0826103c8565b5190206080523060c052600160ff19600080516020613854833981519152541617600080516020613854833981519152557f6985a02210a168e66602d3235cb6db0e70f92b3ba4d376a33c0f3d9434bff625600080a1610160526004549061024f8282808210610401565b80600354816003557f6abf7e21d0157ac565825936f3d73ff3c4939140c08cdc99d445e4fa204007f0600080a382610315575b6040516130d29081610782823960805181612b03015260a05181612bc0015260c05181612ad4015260e05181612b5201526101005181612b78015261012051816107d5015261014051816107fe015261016051818181610bda015281816111e6015281816112c1015281816116000152818161184901528181611d7701528181611fd00152818161202301526122600152f35b8281610322928210610401565b816004557fd347e206f25a89b917fc9482f1a2d294d749baa4dc9bde7fb495ee11fe491643600080a3388080610282565b6340b539cf60e01b60005260046000fd5b7fc9ed16f33ab3a66c84bfd83099ccb2a8845871e2e1c1928f63797152f0fd54cc80546001600160a01b0319163390811790915560007f8be0079c531659141344cd1fd0a4f28419497f9722a3daafe3b4186f6b6457e08180a36100a7565b600080fd5b601f909101601f19168101906001600160401b038211908210176103eb57604052565b634e487b7160e01b600052604160045260246000fd5b1561040a575050565b633f49e97960e21b60005260045260245260446000fd5b908151602081106000146104b9575090601f81511161045d57602081519101516020821061044d571790565b6000198260200360031b1b161790565b6040519063305a27a960e01b8252602060048301528181519182602483015260005b8381106104a15750508160006044809484010152601f80199101168101030190fd5b6020828201810151604487840101528593500161047f565b6001600160401b0381116103eb57600054600181811c911680156105d9575b60208210146105c357601f811161058e575b50602092601f821160011461052a579281929360009261051f575b50508160011b916000199060031b1c19161760005560ff90565b015190503880610505565b601f1982169360008052806000209160005b868110610576575083600195961061055d575b505050811b0160005560ff90565b015160001960f88460031b161c1916905538808061054f565b9192602060018192868501518155019401920161053c565b60008052601f6020600020910160051c810190601f830160051c015b8181106105b757506104ea565b600081556001016105aa565b634e487b7160e01b600052602260045260246000fd5b90607f16906104d8565b9081516020811060001461066b575090601f81511161060f57602081519101516020821061044d571790565b6040519063305a27a960e01b8252602060048301528181519182602483015260005b8381106106535750508160006044809484010152601f80199101168101030190fd5b60208282018101516044878401015285935001610631565b6001600160401b0381116103eb57600154600181811c91168015610777575b60208210146105c357601f8111610741575b50602092601f82116001146106dc57928192936000926106d1575b50508160011b916000199060031b1c19161760015560ff90565b0151905038806106b7565b601f198216936001600052806000209160005b8681106107295750836001959610610710575b505050811b0160015560ff90565b015160001960f88460031b161c19169055388080610702565b919260206001819286850151815501940192016106ef565b6001600052601f6020600020910160051c810190601f830160051c015b81811061076b575061069c565b6000815560010161075e565b90607f169061068a56fe6080604052600436101561001257600080fd5b60003560e01c806301ffc9a7146123e2578063086116d1146120b05780630a1a2a7914612057578063105c4c4914611ec957806312e8e2c314611e3057806319b9413f14611dd757806326232a2e14611d9b5780632852150214611d2c57806329ed45db14611c9a5780632f2ff15d14611b1457806335b8ce9314611ac25780633b25637f14611a295780633f4ba83a146119195780633f8c49d3146114cd5780634768d4ef146113ea57806353aab434146113ae578063578b7d9914610faa5780635c975abb14610f4a5780635d913d2014610e3d5780636b8f9c4314610d0557806375b238fc14610cac57806380f752ad14610a595780638456cb59146109465780638488bb4e146108d557806384b0196e1461079e5780638bb9c5bf146106665780638da5cb5b146105f557806391d148541461055d578063a51f054e14610504578063af74bc14146104ab578063bd9eb3b514610452578063d547741f146102a25763f2fde38b1461018757600080fd5b3461029d5760207ffffffffffffffffffffffffffffffffffffffffffffffffffffffffffffffffc36011261029d576101be61246b565b7fc9ed16f33ab3a66c84bfd83099ccb2a8845871e2e1c1928f63797152f0fd54cc9073ffffffffffffffffffffffffffffffffffffffff8254169081330361026f5773ffffffffffffffffffffffffffffffffffffffff169182820361022057005b827fffffffffffffffffffffffff00000000000000000000000000000000000000008254161790557f8be0079c531659141344cd1fd0a4f28419497f9722a3daafe3b4186f6b6457e0600080a3005b7f2ef4875e000000000000000000000000000000000000000000000000000000006000523360045260246000fd5b600080fd5b3461029d5760407ffffffffffffffffffffffffffffffffffffffffffffffffffffffffffffffffc36011261029d576004356102dc612448565b9073ffffffffffffffffffffffffffffffffffffffff7fc9ed16f33ab3a66c84bfd83099ccb2a8845871e2e1c1928f63797152f0fd54cc541673ffffffffffffffffffffffffffffffffffffffff331690810361042557507fc8827d3282af6f37b64c3e9e6f3ac9df286ab0bb0fccd6f8661bf19adb368b22918160005282602052604060002073ffffffffffffffffffffffffffffffffffffffff821660005260205260ff6040600020541661038f57005b60008281526020938452604080822073ffffffffffffffffffffffffffffffffffffffff939093168083529285529081902080547fffffffffffffffffffffffffffffffffffffffffffffffffffffffffffffff0016905580519283529282015233918101919091527ff6391f5c32d9c69d2a47ea670b442974b53935d1edc7fd64eb21e047a839171b9080606081015b0390a1005b7f2ef4875e0000000000000000000000000000000000000000000000000000000060005260045260246000fd5b3461029d5760007ffffffffffffffffffffffffffffffffffffffffffffffffffffffffffffffffc36011261029d5760206040517f8ee1d14670be47589129ea1abfa7b982cd34487687f4f1305145d6be32d430a28152f35b3461029d5760007ffffffffffffffffffffffffffffffffffffffffffffffffffffffffffffffffc36011261029d5760206040517faef88082b8671e875d97d0d6c81d06fb9e76f97b3ad7523a55a378e5298aeeee8152f35b3461029d5760007ffffffffffffffffffffffffffffffffffffffffffffffffffffffffffffffffc36011261029d5760206040517f0385a2f357affe267c4ac0decbf9206d8604b02181a2dd8f81b5dcba0d74951a8152f35b3461029d5760407ffffffffffffffffffffffffffffffffffffffffffffffffffffffffffffffffc36011261029d57610594612448565b7fc8827d3282af6f37b64c3e9e6f3ac9df286ab0bb0fccd6f8661bf19adb368b2260043560005260205273ffffffffffffffffffffffffffffffffffffffff60406000209116600052602052602060ff604060002054166040519015158152f35b3461029d5760007ffffffffffffffffffffffffffffffffffffffffffffffffffffffffffffffffc36011261029d57602073ffffffffffffffffffffffffffffffffffffffff7fc9ed16f33ab3a66c84bfd83099ccb2a8845871e2e1c1928f63797152f0fd54cc5416604051908152f35b3461029d5760207ffffffffffffffffffffffffffffffffffffffffffffffffffffffffffffffffc36011261029d576004357fc8827d3282af6f37b64c3e9e6f3ac9df286ab0bb0fccd6f8661bf19adb368b228160005280602052604060002073ffffffffffffffffffffffffffffffffffffffff331660005260205260ff604060002054161561076c57600082815260209182526040808220338084529084529181902080547fffffffffffffffffffffffffffffffffffffffffffffffffffffffffffffff001690558051938452918301819052908201527ff6391f5c32d9c69d2a47ea670b442974b53935d1edc7fd64eb21e047a839171b908060608101610420565b507f7aa72882000000000000000000000000000000000000000000000000000000006000526004523360245260446000fd5b3461029d5760007ffffffffffffffffffffffffffffffffffffffffffffffffffffffffffffffffc36011261029d576108776107f97f0000000000000000000000000000000000000000000000000000000000000000612d99565b6108227f0000000000000000000000000000000000000000000000000000000000000000612f34565b602061088560405192610835838561258d565b6000845260003681376040519586957f0f00000000000000000000000000000000000000000000000000000000000000875260e08588015260e087019061252e565b90858203604087015261252e565b466060850152306080850152600060a085015283810360c085015281808451928381520193019160005b8281106108be57505050500390f35b8351855286955093810193928101926001016108af565b3461029d5760007ffffffffffffffffffffffffffffffffffffffffffffffffffffffffffffffffc36011261029d57602073ffffffffffffffffffffffffffffffffffffffff7f4fb5f8cdfbce77f22b0931a39e9f476a60a0f66524b2f379e96485471eb700ad5416604051908152f35b3461029d5760007ffffffffffffffffffffffffffffffffffffffffffffffffffffffffffffffffc36011261029d577fc9ed16f33ab3a66c84bfd83099ccb2a8845871e2e1c1928f63797152f0fd54cc54339073ffffffffffffffffffffffffffffffffffffffff168103610425577f0186a05f63b1553398ad5ea3233c0ce68b8c9eecc47717f123c5c2b42fbd6d9e60ff815416610a2f5760017fffffffffffffffffffffffffffffffffffffffffffffffffffffffffffffff008254161790557f6985a02210a168e66602d3235cb6db0e70f92b3ba4d376a33c0f3d9434bff625600080a1005b7f9e87fac80000000000000000000000000000000000000000000000000000000060005260046000fd5b3461029d5773ffffffffffffffffffffffffffffffffffffffff610a7c366124bc565b93909116928315610c8257610af4610afd91610aee610b2394610ae660405160208101907f8ee1d14670be47589129ea1abfa7b982cd34487687f4f1305145d6be32d430a282528960408201528a606082015260608152610ade60808261258d565b5190206127a4565b9236916125fd565b90612be6565b90929192612c22565b7fc8827d3282af6f37b64c3e9e6f3ac9df286ab0bb0fccd6f8661bf19adb368b226127e5565b80600052600560205260406000209173ffffffffffffffffffffffffffffffffffffffff8354169273ffffffffffffffffffffffffffffffffffffffff6001820154166004820190808254946005850190610b8d88610b878b8a8654978892612969565b15612662565b808903610c0757505050509160006006602093827f7e8d9d00c67d0eca419da2afaeb9897f1995ce74ca7e6e5dab3f4c85c40721b196610bd08a8a881515612697565b550155610bfe81867f00000000000000000000000000000000000000000000000000000000000000006129b9565b604051908152a3005b92975092509350858114600014610c5157509160006006602093827f7e8d9d00c67d0eca419da2afaeb9897f1995ce74ca7e6e5dab3f4c85c40721b196610bd08a8a881515612697565b847ff99ca0120000000000000000000000000000000000000000000000000000000060005260045260245260446000fd5b7f0e8a471c0000000000000000000000000000000000000000000000000000000060005260046000fd5b3461029d5760007ffffffffffffffffffffffffffffffffffffffffffffffffffffffffffffffffc36011261029d5760206040517fa49807205ce4d355092ef5a8a18f56e8913cf4a201fbe287825b095693c217758152f35b3461029d5760207ffffffffffffffffffffffffffffffffffffffffffffffffffffffffffffffffc36011261029d5760043573ffffffffffffffffffffffffffffffffffffffff811680910361029d577fc9ed16f33ab3a66c84bfd83099ccb2a8845871e2e1c1928f63797152f0fd54cc54339073ffffffffffffffffffffffffffffffffffffffff16810361042557507f4fb5f8cdfbce77f22b0931a39e9f476a60a0f66524b2f379e96485471eb700ad8115610e135781817fdd880d24a789958a6398c99c2e54ce31bc10a638cbc42f7dd34285479ae0f855937fffffffffffffffffffffffff00000000000000000000000000000000000000006020945416179055604051908152a1005b7f40b539cf0000000000000000000000000000000000000000000000000000000060005260046000fd5b3461029d5760207ffffffffffffffffffffffffffffffffffffffffffffffffffffffffffffffffc36011261029d57610e7461246b565b7fc9ed16f33ab3a66c84bfd83099ccb2a8845871e2e1c1928f63797152f0fd54cc5433919073ffffffffffffffffffffffffffffffffffffffff168203610f1c5773ffffffffffffffffffffffffffffffffffffffff16807fffffffffffffffffffffffff000000000000000000000000000000000000000060025416176002557f7b6e63ae66af5c70fbff811fa431e7646d4ec64cf86de8b3721ee49b6c8b5ad3600080a2005b507f2ef4875e0000000000000000000000000000000000000000000000000000000060005260045260246000fd5b3461029d5760007ffffffffffffffffffffffffffffffffffffffffffffffffffffffffffffffffc36011261029d57602060ff7f0186a05f63b1553398ad5ea3233c0ce68b8c9eecc47717f123c5c2b42fbd6d9e54166040519015158152f35b3461029d5760a07ffffffffffffffffffffffffffffffffffffffffffffffffffffffffffffffffc36011261029d57600435610fe4612448565b6044359173ffffffffffffffffffffffffffffffffffffffff831680930361029d576064359160843567ffffffffffffffff811161029d5761102a90369060040161248e565b9093804210156113845773ffffffffffffffffffffffffffffffffffffffff8316948515610c8257861561135a5760ff7f0186a05f63b1553398ad5ea3233c0ce68b8c9eecc47717f123c5c2b42fbd6d9e5416610a2f576110e492610aee610af492610ae6610afd9560405160208101917f453375e4f44bb00983db3dde1abb6154e31c5aab8fe14c7a4a55bb04fe1c3eb883528b60408301528c60608301528d608083015260a082015260a08152610ade60c08261258d565b81600052600560205260406000208473ffffffffffffffffffffffffffffffffffffffff82541692600183019373ffffffffffffffffffffffffffffffffffffffff85541694600485019586549260058701916111488a610b878554888587612969565b8161121f5750505050509261120a606093927f4b149d673b8317f48d55e0c9e8ee7c19e9fd8c290b6fd36ee506f77a24cee94195886004549485600660035498899687957fffffffffffffffffffffffff000000000000000000000000000000000000000083541617825560028201907fffffffffffffffffffffffff000000000000000000000000000000000000000082541617905501555530907f0000000000000000000000000000000000000000000000000000000000000000612a56565b604051916001835260208301526040820152a4005b9194955091959296501560001461132c5787146112fa578480937f4b149d673b8317f48d55e0c9e8ee7c19e9fd8c290b6fd36ee506f77a24cee941966060969460038560066112e5970154978d7fffffffffffffffffffffffff0000000000000000000000000000000000000000825416179055018c7fffffffffffffffffffffffff00000000000000000000000000000000000000008254161790555530907f0000000000000000000000000000000000000000000000000000000000000000612a56565b604051916000835260208301526040820152a4005b86867f474dee440000000000000000000000000000000000000000000000000000000060005260045260245260446000fd5b867fdc2995c40000000000000000000000000000000000000000000000000000000060005260045260246000fd5b7f7cfdd3730000000000000000000000000000000000000000000000000000000060005260046000fd5b7fdf4cc36d0000000000000000000000000000000000000000000000000000000060005260046000fd5b3461029d5760007ffffffffffffffffffffffffffffffffffffffffffffffffffffffffffffffffc36011261029d576020600354604051908152f35b3461029d5760207ffffffffffffffffffffffffffffffffffffffffffffffffffffffffffffffffc36011261029d57600435600052600560205260e0604060002073ffffffffffffffffffffffffffffffffffffffff8154169073ffffffffffffffffffffffffffffffffffffffff6001820154169073ffffffffffffffffffffffffffffffffffffffff60028201541673ffffffffffffffffffffffffffffffffffffffff6003830154166004830154916006600585015494015494604051968752602087015260408601526060850152608084015260a083015260c0820152f35b3461029d57611550610afd610af46114e4366124bc565b610aee604097949796939592965196610ae6602089017f0385a2f357affe267c4ac0decbf9206d8604b02181a2dd8f81b5dcba0d74951a81528a60408b015273ffffffffffffffffffffffffffffffffffffffff8916998a606082015260608152610ade60808261258d565b826000526005602052604060002060048101908154600582019283549482151580611910575b156118e25773ffffffffffffffffffffffffffffffffffffffff84541673ffffffffffffffffffffffffffffffffffffffff6001860154168189146000146118a15760069150945b01948554968760011b9780890460021490151715611872578401809411611872576000958680926115f28a611624986126e8565b9889965555558561180b575b7f00000000000000000000000000000000000000000000000000000000000000006129b9565b83857f0a2413835f07421c275d3e2feac4328391c22c9ed3db28c40b45b55a0c3a2ba66020604051868152a373ffffffffffffffffffffffffffffffffffffffff60025416938461167157005b73ffffffffffffffffffffffffffffffffffffffff604051927f1aef01e1000000000000000000000000000000000000000000000000000000008452876004850152826024850152169182604482015283606482015284608482015260208160a48160008a5af19081156117ff5760009161177d575b507fffffffff000000000000000000000000000000000000000000000000000000007f1aef01e10000000000000000000000000000000000000000000000000000000091160361173357005b60c495604051957fe9db41ca0000000000000000000000000000000000000000000000000000000087526004870152602486015260448501526064840152608483015260a4820152fd5b6020813d6020116117f7575b816117966020938361258d565b810103126117f35751907fffffffff00000000000000000000000000000000000000000000000000000000821682036117f057507fffffffff000000000000000000000000000000000000000000000000000000006116e7565b80fd5b5080fd5b3d9150611789565b6040513d6000823e3d90fd5b61186d8673ffffffffffffffffffffffffffffffffffffffff7f4fb5f8cdfbce77f22b0931a39e9f476a60a0f66524b2f379e96485471eb700ad54167f00000000000000000000000000000000000000000000000000000000000000006129b9565b6115fe565b7f4e487b7100000000000000000000000000000000000000000000000000000000600052601160045260246000fd5b88036118b057600690946115be565b87897ff99ca0120000000000000000000000000000000000000000000000000000000060005260045260245260446000fd5b877fcd7235820000000000000000000000000000000000000000000000000000000060005260045260246000fd5b50851515611576565b3461029d5760007ffffffffffffffffffffffffffffffffffffffffffffffffffffffffffffffffc36011261029d577fc9ed16f33ab3a66c84bfd83099ccb2a8845871e2e1c1928f63797152f0fd54cc54339073ffffffffffffffffffffffffffffffffffffffff168103610425577f0186a05f63b1553398ad5ea3233c0ce68b8c9eecc47717f123c5c2b42fbd6d9e805460ff8116156119ff577fffffffffffffffffffffffffffffffffffffffffffffffffffffffffffffff001690557f7805862f689e2f13df9f062ff482ad3ad112aca9e0847911ed832e158c525b33600080a1005b7f6cd602010000000000000000000000000000000000000000000000000000000060005260046000fd5b3461029d5760207ffffffffffffffffffffffffffffffffffffffffffffffffffffffffffffffffc36011261029d57600435611a85337fc8827d3282af6f37b64c3e9e6f3ac9df286ab0bb0fccd6f8661bf19adb368b226128a7565b611a9460045482808210612a1d565b600354816003557f6abf7e21d0157ac565825936f3d73ff3c4939140c08cdc99d445e4fa204007f0600080a3005b3461029d5760007ffffffffffffffffffffffffffffffffffffffffffffffffffffffffffffffffc36011261029d57602073ffffffffffffffffffffffffffffffffffffffff60025416604051908152f35b3461029d5760407ffffffffffffffffffffffffffffffffffffffffffffffffffffffffffffffffc36011261029d57600435611b4e612448565b9073ffffffffffffffffffffffffffffffffffffffff7fc9ed16f33ab3a66c84bfd83099ccb2a8845871e2e1c1928f63797152f0fd54cc541673ffffffffffffffffffffffffffffffffffffffff331690810361042557507fc8827d3282af6f37b64c3e9e6f3ac9df286ab0bb0fccd6f8661bf19adb368b22918160005282602052604060002073ffffffffffffffffffffffffffffffffffffffff821660005260205260ff6040600020541615611c0257005b60008281526020938452604080822073ffffffffffffffffffffffffffffffffffffffff939093168083529285529081902080547fffffffffffffffffffffffffffffffffffffffffffffffffffffffffffffff0016600117905580519283529282015233918101919091527f2f8788117e7eff1d82e926ec794901d17c78024a50270940304540a733656f0d908060608101610420565b3461029d5760207ffffffffffffffffffffffffffffffffffffffffffffffffffffffffffffffffc36011261029d5760043560005260056020526020611d22604060002073ffffffffffffffffffffffffffffffffffffffff8154169073ffffffffffffffffffffffffffffffffffffffff6001820154166005600483015492015492612969565b6040519015158152f35b3461029d5760007ffffffffffffffffffffffffffffffffffffffffffffffffffffffffffffffffc36011261029d57602060405173ffffffffffffffffffffffffffffffffffffffff7f0000000000000000000000000000000000000000000000000000000000000000168152f35b3461029d5760007ffffffffffffffffffffffffffffffffffffffffffffffffffffffffffffffffc36011261029d576020600454604051908152f35b3461029d5760007ffffffffffffffffffffffffffffffffffffffffffffffffffffffffffffffffc36011261029d5760206040517f7e056079185997e63584b574e7ede2bc1c951a9914820d9497bb54f8c133fa478152f35b3461029d5760207ffffffffffffffffffffffffffffffffffffffffffffffffffffffffffffffffc36011261029d57600435611e8c337fc8827d3282af6f37b64c3e9e6f3ac9df286ab0bb0fccd6f8661bf19adb368b226128a7565b611e9b81600354808210612a1d565b600454816004557fd347e206f25a89b917fc9482f1a2d294d749baa4dc9bde7fb495ee11fe491643600080a3005b3461029d5760207ffffffffffffffffffffffffffffffffffffffffffffffffffffffffffffffffc36011261029d57600435611f25337fc8827d3282af6f37b64c3e9e6f3ac9df286ab0bb0fccd6f8661bf19adb368b226128a7565b80600052600560205260406000209073ffffffffffffffffffffffffffffffffffffffff82541673ffffffffffffffffffffffffffffffffffffffff6001840154169260048101918383548094600060066005870196611f8e86610b878d8b549c8d918c612969565b015581611ff4575b5050505081611fa157005b7f7e8d9d00c67d0eca419da2afaeb9897f1995ce74ca7e6e5dab3f4c85c40721b191600060209255610bfe81867f00000000000000000000000000000000000000000000000000000000000000006129b9565b7f7e8d9d00c67d0eca419da2afaeb9897f1995ce74ca7e6e5dab3f4c85c40721b19160006020925561204781867f00000000000000000000000000000000000000000000000000000000000000006129b9565b604051908152a384838180611f96565b3461029d5760007ffffffffffffffffffffffffffffffffffffffffffffffffffffffffffffffffc36011261029d5760206040517f453375e4f44bb00983db3dde1abb6154e31c5aab8fe14c7a4a55bb04fe1c3eb88152f35b3461029d57612133610af4610afd6120c7366124bc565b610aee604097949593979692965196610ae6602089017f7e056079185997e63584b574e7ede2bc1c951a9914820d9497bb54f8c133fa4781528860408b015273ffffffffffffffffffffffffffffffffffffffff8b16998a606082015260608152610ade60808261258d565b80600052600560205260406000209273ffffffffffffffffffffffffffffffffffffffff8454169373ffffffffffffffffffffffffffffffffffffffff60018201541690851515806123d9575b156123ab578394956004820191825490600581019160068354926121aa8a610b8786868c8b612969565b01805496871595919291866122dd5788999a508c989596979814600014612284575083929160006121df6121e79682946126e8565b9855556126e8565b90555b8260011b928304600214171561187257610bfe817f7e8d9d00c67d0eca419da2afaeb9897f1995ce74ca7e6e5dab3f4c85c40721b1946115fe60209573ffffffffffffffffffffffffffffffffffffffff7f4fb5f8cdfbce77f22b0931a39e9f476a60a0f66524b2f379e96485471eb700ad54167f00000000000000000000000000000000000000000000000000000000000000006129b9565b94969492935090918a036122ab5760008792816121df856122a4976126e8565b90556121ea565b89897ff99ca0120000000000000000000000000000000000000000000000000000000060005260045260245260446000fd5b925092945096955089146000146123325750505082826000610bfe9361232c7f7e8d9d00c67d0eca419da2afaeb9897f1995ce74ca7e6e5dab3f4c85c40721b198966020989788961515612697565b556115fe565b9195939450915086036123795783836000610bfe9361232c6020977f7e8d9d00c67d0eca419da2afaeb9897f1995ce74ca7e6e5dab3f4c85c40721b1999788961515612697565b85827ff99ca0120000000000000000000000000000000000000000000000000000000060005260045260245260446000fd5b837fe4b1c23d0000000000000000000000000000000000000000000000000000000060005260045260246000fd5b50811515612180565b3461029d5760207ffffffffffffffffffffffffffffffffffffffffffffffffffffffffffffffffc36011261029d576004357fffffffff000000000000000000000000000000000000000000000000000000008116810361029d57611d226020916126f5565b6024359073ffffffffffffffffffffffffffffffffffffffff8216820361029d57565b6004359073ffffffffffffffffffffffffffffffffffffffff8216820361029d57565b9181601f8401121561029d5782359167ffffffffffffffff831161029d576020838186019501011161029d57565b60607ffffffffffffffffffffffffffffffffffffffffffffffffffffffffffffffffc82011261029d576004359160243573ffffffffffffffffffffffffffffffffffffffff8116810361029d57916044359067ffffffffffffffff821161029d5761252a9160040161248e565b9091565b919082519283825260005b8481106125785750507fffffffffffffffffffffffffffffffffffffffffffffffffffffffffffffffe0601f8460006020809697860101520116010190565b80602080928401015182828601015201612539565b90601f7fffffffffffffffffffffffffffffffffffffffffffffffffffffffffffffffe0910116810190811067ffffffffffffffff8211176125ce57604052565b7f4e487b7100000000000000000000000000000000000000000000000000000000600052604160045260246000fd5b92919267ffffffffffffffff82116125ce5760405191612645601f82017fffffffffffffffffffffffffffffffffffffffffffffffffffffffffffffffe0166020018461258d565b82948184528183011161029d578281602093846000960137010152565b1561266a5750565b7f60a3df590000000000000000000000000000000000000000000000000000000060005260045260246000fd5b156126a0575050565b73ffffffffffffffffffffffffffffffffffffffff92507f49568550000000000000000000000000000000000000000000000000000000006000526004521660245260446000fd5b9190820391821161187257565b7fffffffff00000000000000000000000000000000000000000000000000000000167fffffffff00000000000000000000000000000000000000000000000000000000811461279e577f01ffc9a7000000000000000000000000000000000000000000000000000000008114612798576000527fca9d3e17f264b0f3984e2634e94adb37fa3e6a8103f06aeae6fa59e21c769f5d60205260ff6040600020541690565b50600190565b50600090565b6042906127af612abd565b90604051917f19010000000000000000000000000000000000000000000000000000000000008352600283015260228201522090565b7faef88082b8671e875d97d0d6c81d06fb9e76f97b3ad7523a55a378e5298aeeee600052602052604060002073ffffffffffffffffffffffffffffffffffffffff821660005260205260ff604060002054161561283f5750565b73ffffffffffffffffffffffffffffffffffffffff907f7aa72882000000000000000000000000000000000000000000000000000000006000527faef88082b8671e875d97d0d6c81d06fb9e76f97b3ad7523a55a378e5298aeeee6004521660245260446000fd5b7fa49807205ce4d355092ef5a8a18f56e8913cf4a201fbe287825b095693c21775600052602052604060002073ffffffffffffffffffffffffffffffffffffffff821660005260205260ff60406000205416156129015750565b73ffffffffffffffffffffffffffffffffffffffff907f7aa72882000000000000000000000000000000000000000000000000000000006000527fa49807205ce4d355092ef5a8a18f56e8913cf4a201fbe287825b095693c217756004521660245260446000fd5b9073ffffffffffffffffffffffffffffffffffffffff16156129975750159081612991575090565b90501590565b90915073ffffffffffffffffffffffffffffffffffffffff161561279e571590565b612a1b9273ffffffffffffffffffffffffffffffffffffffff604051937fa9059cbb000000000000000000000000000000000000000000000000000000006020860152166024840152604483015260448252612a1660648361258d565b612d0e565b565b15612a26575050565b7ffd27a5e40000000000000000000000000000000000000000000000000000000060005260045260245260446000fd5b90919273ffffffffffffffffffffffffffffffffffffffff612a1b9481604051957f23b872dd000000000000000000000000000000000000000000000000000000006020880152166024860152166044840152606483015260648252612a1660848361258d565b73ffffffffffffffffffffffffffffffffffffffff7f000000000000000000000000000000000000000000000000000000000000000016301480612bbd575b15612b25577f000000000000000000000000000000000000000000000000000000000000000090565b60405160208101907f8b73c3c69bb8fe3d512ecc4cf759cc79239f7b179b0ffacaa9a75d522b39400f82527f000000000000000000000000000000000000000000000000000000000000000060408201527f000000000000000000000000000000000000000000000000000000000000000060608201524660808201523060a082015260a08152612bb760c08261258d565b51902090565b507f00000000000000000000000000000000000000000000000000000000000000004614612afc565b8151919060418303612c1757612c1092506020820151906060604084015193015160001a90613006565b9192909190565b505060009160029190565b9190916004811015612cdf5780612c3857509050565b600060018203612c6c577ff645eedf0000000000000000000000000000000000000000000000000000000060005260046000fd5b5060028103612ca357827ffce698f70000000000000000000000000000000000000000000000000000000060005260045260246000fd5b9091600360009214612cb3575050565b602492507fd78bce0c000000000000000000000000000000000000000000000000000000008252600452fd5b7f4e487b7100000000000000000000000000000000000000000000000000000000600052602160045260246000fd5b906000602091828151910182855af1156117ff576000513d612d90575073ffffffffffffffffffffffffffffffffffffffff81163b155b612d4c5750565b73ffffffffffffffffffffffffffffffffffffffff907f5274afe7000000000000000000000000000000000000000000000000000000006000521660045260246000fd5b60011415612d45565b60ff8114612e1b5760ff811690601f8211612df1576040805192612dbd828561258d565b602084527fffffffffffffffffffffffffffffffffffffffffffffffffffffffffffffffe060208501920136833783525290565b7fb3512b0c0000000000000000000000000000000000000000000000000000000060005260046000fd5b5060405160008054908160011c91600181168015612f2a575b602084108114612efd578385528492918115612ec05750600114612e62575b612e5f9250038261258d565b90565b50600080805290917f290decd9548b62a8d60345a988386fc84ba6bc95484008f6362f93160ef3e5635b818310612ea4575050906020612e5f92820101612e53565b6020919350806001915483858801015201910190918392612e8c565b60209250612e5f9491507fffffffffffffffffffffffffffffffffffffffffffffffffffffffffffffff001682840152151560051b820101612e53565b6024837f4e487b710000000000000000000000000000000000000000000000000000000081526022600452fd5b92607f1692612e34565b60ff8114612f585760ff811690601f8211612df1576040805192612dbd828561258d565b506040516000600154908160011c91600181168015612ffc575b602084108114612efd578385528492918115612ec05750600114612f9c57612e5f9250038261258d565b506001600090815290917fb10e2d527612073b26eecdfd717e6a320cf44b4afac2b0732d9fcbe2b7fa0cf65b818310612fe0575050906020612e5f92820101612e53565b6020919350806001915483858801015201910190918392612fc8565b92607f1692612f72565b91907f7fffffffffffffffffffffffffffffff5d576e7357a4501ddfe92f46681b20a08411613090579160209360809260ff60009560405194855216868401526040830152606082015282805260015afa156117ff5760005173ffffffffffffffffffffffffffffffffffffffff8116156130845790600090600090565b50600090600190600090565b5050506000916003919056fea2646970667358221220769fe29967e8a954fb2cd00014bdbd6d675545a7137a3531eec341306bda72a164736f6c634300081e00330186a05f63b1553398ad5ea3233c0ce68b8c9eecc47717f123c5c2b42fbd6d9e",
  "linkReferences": {},
  "deployedLinkReferences": {}
}