{
  "_format": "hh-sol-artifact-1",
  "contractName": "Gambit",
  "sourceName": "contracts/game/Gambit.sol",
  "abi": [
    {
      "inputs": [
        {
          "internalType": "address payable",
          "name": "payoutAddress",
          "type": "address"
        },
        {
          "internalType": "contract IERC20",
          "name": "buyInToken",
          "type": "address"
        },
        {
          "internalType": "uint256",
          "name": "buyIn_",
          "type": "uint256"
        },
        {
          "internalType": "uint256",
          "name": "platformFee_",
          "type": "uint256"
        },
        {
          "internalType": "contract IForwarderRegistry",
          "name": "forwarderRegistry",
          "type": "address"
        }
      ],
      "stateMutability": "nonpayable",
      "type": "constructor"
    },
    {
      "inputs": [
        {
          "internalType": "address",
          "name": "target",
          "type": "address"
        },
        {
          "internalType": "uint256",
          "name": "matchId",
          "type": "uint256"
        },
        {
          "internalType": "address",
          "name": "winner",
          "type": "address"
        },
        {
          "internalType": "address",
          "name": "loser",
          "type": "address"
        },
        {
          "internalType": "uint256",
          "name": "prize",
          "type": "uint256"
        },
        {
          "internalType": "uint256",
          "name": "totalFee",
          "type": "uint256"
        }
      ],
      "name": "CallbackRejected",
      "type": "error"
    },
    {
      "inputs": [],
      "name": "ECDSAInvalidSignature",
      "type": "error"
    },
    {
      "inputs": [
        {
          "internalType": "uint256",
          "name": "length",
          "type": "uint256"
        }
      ],
      "name": "ECDSAInvalidSignatureLength",
      "type": "error"
    },
    {
      "inputs": [
        {
          "internalType": "bytes32",
          "name": "s",
          "type": "bytes32"
        }
      ],
      "name": "ECDSAInvalidSignatureS",
      "type": "error"
    },
    {
      "inputs": [],
      "name": "ExpiredSignature",
      "type": "error"
    },
    {
      "inputs": [],
      "name": "IllegalInterfaceId",
      "type": "error"
    },
    {
      "inputs": [
        {
          "internalType": "uint256",
          "name": "matchId",
          "type": "uint256"
        }
      ],
      "name": "InsufficientMatchBalance",
      "type": "error"
    },
    {
      "inputs": [
        {
          "internalType": "uint256",
          "name": "matchId",
          "type": "uint256"
        }
      ],
      "name": "InsufficientPlayers",
      "type": "error"
    },
    {
      "inputs": [],
      "name": "InvalidPlayer",
      "type": "error"
    },
    {
      "inputs": [],
      "name": "InvalidPlayerMoveKey",
      "type": "error"
    },
    {
      "inputs": [],
      "name": "InvalidShortString",
      "type": "error"
    },
    {
      "inputs": [
        {
          "internalType": "uint256",
          "name": "matchId",
          "type": "uint256"
        }
      ],
      "name": "MatchAlreadyConcluded",
      "type": "error"
    },
    {
      "inputs": [
        {
          "internalType": "uint256",
          "name": "matchId",
          "type": "uint256"
        }
      ],
      "name": "MatchIsFull",
      "type": "error"
    },
    {
      "inputs": [
        {
          "internalType": "address",
          "name": "account",
          "type": "address"
        }
      ],
      "name": "NotContractOwner",
      "type": "error"
    },
    {
      "inputs": [
        {
          "internalType": "uint256",
          "name": "matchId",
          "type": "uint256"
        },
        {
          "internalType": "address",
          "name": "player",
          "type": "address"
        }
      ],
      "name": "NotMatchPlayer",
      "type": "error"
    },
    {
      "inputs": [],
      "name": "NotPaused",
      "type": "error"
    },
    {
      "inputs": [
        {
          "internalType": "bytes32",
          "name": "role",
          "type": "bytes32"
        },
        {
          "internalType": "address",
          "name": "account",
          "type": "address"
        }
      ],
      "name": "NotRoleHolder",
      "type": "error"
    },
    {
      "inputs": [],
      "name": "Paused",
      "type": "error"
    },
    {
      "inputs": [
        {
          "internalType": "uint256",
          "name": "buyInAmount",
          "type": "uint256"
        },
        {
          "internalType": "uint256",
          "name": "newPlatformFee",
          "type": "uint256"
        }
      ],
      "name": "PlatformFeeExceedsBuyIn",
      "type": "error"
    },
    {
      "inputs": [
        {
          "internalType": "uint256",
          "name": "matchId",
          "type": "uint256"
        },
        {
          "internalType": "address",
          "name": "player",
          "type": "address"
        }
      ],
      "name": "PlayerAlreadyJoined",
      "type": "error"
    },
    {
      "inputs": [
        {
          "internalType": "uint256",
          "name": "matchId",
          "type": "uint256"
        },
        {
          "internalType": "address",
          "name": "player",
          "type": "address"
        }
      ],
      "name": "PlayerAlreadyRefunded",
      "type": "error"
    },
    {
      "inputs": [
        {
          "internalType": "address",
          "name": "token",
          "type": "address"
        }
      ],
      "name": "SafeERC20FailedOperation",
      "type": "error"
    },
    {
      "inputs": [
        {
          "internalType": "string",
          "name": "str",
          "type": "string"
        }
      ],
      "name": "StringTooLong",
      "type": "error"
    },
    {
      "inputs": [],
      "name": "ZeroAddressPayoutWallet",
      "type": "error"
    },
    {
      "anonymous": false,
      "inputs": [
        {
          "indexed": true,
          "internalType": "uint256",
          "name": "oldBuyIn",
          "type": "uint256"
        },
        {
          "indexed": true,
          "internalType": "uint256",
          "name": "newBuyIn",
          "type": "uint256"
        }
      ],
      "name": "BuyInUpdated",
      "type": "event"
    },
    {
      "anonymous": false,
      "inputs": [],
      "name": "EIP712DomainChanged",
      "type": "event"
    },
    {
      "anonymous": false,
      "inputs": [
        {
          "indexed": true,
          "internalType": "address",
          "name": "newCallback",
          "type": "address"
        }
      ],
      "name": "MatchCompleteCallbackUpdated",
      "type": "event"
    },
    {
      "anonymous": false,
      "inputs": [
        {
          "indexed": true,
          "internalType": "uint256",
          "name": "matchId",
          "type": "uint256"
        },
        {
          "indexed": true,
          "internalType": "address",
          "name": "winner",
          "type": "address"
        },
        {
          "indexed": false,
          "internalType": "uint256",
          "name": "prizeAmount",
          "type": "uint256"
        }
      ],
      "name": "MatchCompleted",
      "type": "event"
    },
    {
      "anonymous": false,
      "inputs": [
        {
          "indexed": true,
          "internalType": "uint256",
          "name": "matchId",
          "type": "uint256"
        },
        {
          "indexed": true,
          "internalType": "address",
          "name": "player",
          "type": "address"
        },
        {
          "indexed": false,
          "internalType": "uint256",
          "name": "refundAmount",
          "type": "uint256"
        }
      ],
      "name": "MatchRefunded",
      "type": "event"
    },
    {
      "anonymous": false,
      "inputs": [
        {
          "indexed": true,
          "internalType": "address",
          "name": "previousOwner",
          "type": "address"
        },
        {
          "indexed": true,
          "internalType": "address",
          "name": "newOwner",
          "type": "address"
        }
      ],
      "name": "OwnershipTransferred",
      "type": "event"
    },
    {
      "anonymous": false,
      "inputs": [],
      "name": "Pause",
      "type": "event"
    },
    {
      "anonymous": false,
      "inputs": [
        {
          "indexed": false,
          "internalType": "address",
          "name": "payoutWallet",
          "type": "address"
        }
      ],
      "name": "PayoutWalletSet",
      "type": "event"
    },
    {
      "anonymous": false,
      "inputs": [
        {
          "indexed": true,
          "internalType": "uint256",
          "name": "oldPlatformFee",
          "type": "uint256"
        },
        {
          "indexed": true,
          "internalType": "uint256",
          "name": "newPlatformFee",
          "type": "uint256"
        }
      ],
      "name": "PlatformFeeUpdated",
      "type": "event"
    },
    {
      "anonymous": false,
      "inputs": [
        {
          "indexed": true,
          "internalType": "uint256",
          "name": "matchId",
          "type": "uint256"
        },
        {
          "indexed": true,
          "internalType": "address",
          "name": "player",
          "type": "address"
        },
        {
          "indexed": true,
          "internalType": "address",
          "name": "playerMoveKey",
          "type": "address"
        },
        {
          "indexed": false,
          "internalType": "bool",
          "name": "isPlayer1",
          "type": "bool"
        },
        {
          "indexed": false,
          "internalType": "uint256",
          "name": "buyIn",
          "type": "uint256"
        },
        {
          "indexed": false,
          "internalType": "uint256",
          "name": "platformFee",
          "type": "uint256"
        }
      ],
      "name": "PlayerJoined",
      "type": "event"
    },
    {
      "anonymous": false,
      "inputs": [
        {
          "indexed": false,
          "internalType": "bytes32",
          "name": "role",
          "type": "bytes32"
        },
        {
          "indexed": false,
          "internalType": "address",
          "name": "account",
          "type": "address"
        },
        {
          "indexed": false,
          "internalType": "address",
          "name": "operator",
          "type": "address"
        }
      ],
      "name": "RoleGranted",
      "type": "event"
    },
    {
      "anonymous": false,
      "inputs": [
        {
          "indexed": false,
          "internalType": "bytes32",
          "name": "role",
          "type": "bytes32"
        },
        {
          "indexed": false,
          "internalType": "address",
          "name": "account",
          "type": "address"
        },
        {
          "indexed": false,
          "internalType": "address",
          "name": "operator",
          "type": "address"
        }
      ],
      "name": "RoleRevoked",
      "type": "event"
    },
    {
      "anonymous": false,
      "inputs": [],
      "name": "Unpause",
      "type": "event"
    },
    {
      "inputs": [],
      "name": "ADMIN_ROLE",
      "outputs": [
        {
          "internalType": "bytes32",
          "name": "",
          "type": "bytes32"
        }
      ],
      "stateMutability": "view",
      "type": "function"
    },
    {
      "inputs": [],
      "name": "BUYIN_TOKEN",
      "outputs": [
        {
          "internalType": "contract IERC20",
          "name": "",
          "type": "address"
        }
      ],
      "stateMutability": "view",
      "type": "function"
    },
    {
      "inputs": [],
      "name": "COMPLETE_MATCH_TYPEHASH",
      "outputs": [
        {
          "internalType": "bytes32",
          "name": "",
          "type": "bytes32"
        }
      ],
      "stateMutability": "view",
      "type": "function"
    },
    {
      "inputs": [],
      "name": "DRAW_MATCH_TYPEHASH",
      "outputs": [
        {
          "internalType": "bytes32",
          "name": "",
          "type": "bytes32"
        }
      ],
      "stateMutability": "view",
      "type": "function"
    },
    {
      "inputs": [],
      "name": "JOIN_MATCH_TYPEHASH",
      "outputs": [
        {
          "internalType": "bytes32",
          "name": "",
          "type": "bytes32"
        }
      ],
      "stateMutability": "view",
      "type": "function"
    },
    {
      "inputs": [],
      "name": "REFEREE_ROLE",
      "outputs": [
        {
          "internalType": "bytes32",
          "name": "",
          "type": "bytes32"
        }
      ],
      "stateMutability": "view",
      "type": "function"
    },
    {
      "inputs": [],
      "name": "REFUND_MATCH_TYPEHASH",
      "outputs": [
        {
          "internalType": "bytes32",
          "name": "",
          "type": "bytes32"
        }
      ],
      "stateMutability": "view",
      "type": "function"
    },
    {
      "inputs": [],
      "name": "buyIn",
      "outputs": [
        {
          "internalType": "uint256",
          "name": "",
          "type": "uint256"
        }
      ],
      "stateMutability": "view",
      "type": "function"
    },
    {
      "inputs": [
        {
          "internalType": "uint256",
          "name": "matchId",
          "type": "uint256"
        },
        {
          "internalType": "address",
          "name": "winner",
          "type": "address"
        },
        {
          "internalType": "bytes",
          "name": "signature",
          "type": "bytes"
        }
      ],
      "name": "completeMatch",
      "outputs": [],
      "stateMutability": "nonpayable",
      "type": "function"
    },
    {
      "inputs": [
        {
          "internalType": "uint256",
          "name": "matchId",
          "type": "uint256"
        },
        {
          "internalType": "address",
          "name": "player",
          "type": "address"
        },
        {
          "internalType": "bytes",
          "name": "signature",
          "type": "bytes"
        }
      ],
      "name": "drawMatch",
      "outputs": [],
      "stateMutability": "nonpayable",
      "type": "function"
    },
    {
      "inputs": [],
      "name": "eip712Domain",
      "outputs": [
        {
          "internalType": "bytes1",
          "name": "fields",
          "type": "bytes1"
        },
        {
          "internalType": "string",
          "name": "name",
          "type": "string"
        },
        {
          "internalType": "string",
          "name": "version",
          "type": "string"
        },
        {
          "internalType": "uint256",
          "name": "chainId",
          "type": "uint256"
        },
        {
          "internalType": "address",
          "name": "verifyingContract",
          "type": "address"
        },
        {
          "internalType": "bytes32",
          "name": "salt",
          "type": "bytes32"
        },
        {
          "internalType": "uint256[]",
          "name": "extensions",
          "type": "uint256[]"
        }
      ],
      "stateMutability": "view",
      "type": "function"
    },
    {
      "inputs": [],
      "name": "forwarderRegistry",
      "outputs": [
        {
          "internalType": "contract IForwarderRegistry",
          "name": "",
          "type": "address"
        }
      ],
      "stateMutability": "view",
      "type": "function"
    },
    {
      "inputs": [
        {
          "internalType": "bytes32",
          "name": "role",
          "type": "bytes32"
        },
        {
          "internalType": "address",
          "name": "account",
          "type": "address"
        }
      ],
      "name": "grantRole",
      "outputs": [],
      "stateMutability": "nonpayable",
      "type": "function"
    },
    {
      "inputs": [
        {
          "internalType": "bytes32",
          "name": "role",
          "type": "bytes32"
        },
        {
          "internalType": "address",
          "name": "account",
          "type": "address"
        }
      ],
      "name": "hasRole",
      "outputs": [
        {
          "internalType": "bool",
          "name": "hasRole_",
          "type": "bool"
        }
      ],
      "stateMutability": "view",
      "type": "function"
    },
    {
      "inputs": [
        {
          "internalType": "uint256",
          "name": "matchId",
          "type": "uint256"
        }
      ],
      "name": "isMatchConcluded",
      "outputs": [
        {
          "internalType": "bool",
          "name": "",
          "type": "bool"
        }
      ],
      "stateMutability": "view",
      "type": "function"
    },
    {
      "inputs": [
        {
          "internalType": "address",
          "name": "forwarder",
          "type": "address"
        }
      ],
      "name": "isTrustedForwarder",
      "outputs": [
        {
          "internalType": "bool",
          "name": "",
          "type": "bool"
        }
      ],
      "stateMutability": "view",
      "type": "function"
    },
    {
      "inputs": [
        {
          "internalType": "uint256",
          "name": "matchId",
          "type": "uint256"
        },
        {
          "internalType": "address",
          "name": "player",
          "type": "address"
        },
        {
          "internalType": "address",
          "name": "playerMoveKey",
          "type": "address"
        },
        {
          "internalType": "uint256",
          "name": "matchDeadline",
          "type": "uint256"
        },
        {
          "internalType": "bytes",
          "name": "signature",
          "type": "bytes"
        }
      ],
      "name": "joinMatch",
      "outputs": [],
      "stateMutability": "nonpayable",
      "type": "function"
    },
    {
      "inputs": [],
      "name": "matchCompleteCallback",
      "outputs": [
        {
          "internalType": "contract IGambitMatchCompleteCallback",
          "name": "",
          "type": "address"
        }
      ],
      "stateMutability": "view",
      "type": "function"
    },
    {
      "inputs": [
        {
          "internalType": "uint256",
          "name": "matchId",
          "type": "uint256"
        }
      ],
      "name": "matches",
      "outputs": [
        {
          "internalType": "address",
          "name": "p1",
          "type": "address"
        },
        {
          "internalType": "address",
          "name": "p2",
          "type": "address"
        },
        {
          "internalType": "address",
          "name": "p1MoveKey",
          "type": "address"
        },
        {
          "internalType": "address",
          "name": "p2MoveKey",
          "type": "address"
        },
        {
          "internalType": "uint256",
          "name": "p1Balance",
          "type": "uint256"
        },
        {
          "internalType": "uint256",
          "name": "p2Balance",
          "type": "uint256"
        },
        {
          "internalType": "uint256",
          "name": "platformFee",
          "type": "uint256"
        }
      ],
      "stateMutability": "view",
      "type": "function"
    },
    {
      "inputs": [],
      "name": "owner",
      "outputs": [
        {
          "internalType": "address",
          "name": "",
          "type": "address"
        }
      ],
      "stateMutability": "view",
      "type": "function"
    },
    {
      "inputs": [],
      "name": "pause",
      "outputs": [],
      "stateMutability": "nonpayable",
      "type": "function"
    },
    {
      "inputs": [],
      "name": "paused",
      "outputs": [
        {
          "internalType": "bool",
          "name": "",
          "type": "bool"
        }
      ],
      "stateMutability": "view",
      "type": "function"
    },
    {
      "inputs": [],
      "name": "payoutWallet",
      "outputs": [
        {
          "internalType": "address payable",
          "name": "wallet",
          "type": "address"
        }
      ],
      "stateMutability": "view",
      "type": "function"
    },
    {
      "inputs": [],
      "name": "platformFee",
      "outputs": [
        {
          "internalType": "uint256",
          "name": "",
          "type": "uint256"
        }
      ],
      "stateMutability": "view",
      "type": "function"
    },
    {
      "inputs": [
        {
          "internalType": "uint256",
          "name": "matchId",
          "type": "uint256"
        }
      ],
      "name": "refundMatch",
      "outputs": [],
      "stateMutability": "nonpayable",
      "type": "function"
    },
    {
      "inputs": [
        {
          "internalType": "uint256",
          "name": "matchId",
          "type": "uint256"
        },
        {
          "internalType": "address",
          "name": "player",
          "type": "address"
        },
        {
          "internalType": "bytes",
          "name": "signature",
          "type": "bytes"
        }
      ],
      "name": "refundMatch",
      "outputs": [],
      "stateMutability": "nonpayable",
      "type": "function"
    },
    {
      "inputs": [
        {
          "internalType": "bytes32",
          "name": "role",
          "type": "bytes32"
        }
      ],
      "name": "renounceRole",
      "outputs": [],
      "stateMutability": "nonpayable",
      "type": "function"
    },
    {
      "inputs": [
        {
          "internalType": "bytes32",
          "name": "role",
          "type": "bytes32"
        },
        {
          "internalType": "address",
          "name": "account",
          "type": "address"
        }
      ],
      "name": "revokeRole",
      "outputs": [],
      "stateMutability": "nonpayable",
      "type": "function"
    },
    {
      "inputs": [
        {
          "internalType": "uint256",
          "name": "newBuyIn",
          "type": "uint256"
        }
      ],
      "name": "setBuyIn",
      "outputs": [],
      "stateMutability": "nonpayable",
      "type": "function"
    },
    {
      "inputs": [
        {
          "internalType": "address",
          "name": "newCallback",
          "type": "address"
        }
      ],
      "name": "setMatchCompleteCallback",
      "outputs": [],
      "stateMutability": "nonpayable",
      "type": "function"
    },
    {
      "inputs": [
        {
          "internalType": "address payable",
          "name": "newPayoutWallet",
          "type": "address"
        }
      ],
      "name": "setPayoutWallet",
      "outputs": [],
      "stateMutability": "nonpayable",
      "type": "function"
    },
    {
      "inputs": [
        {
          "internalType": "uint256",
          "name": "newPlatformFee",
          "type": "uint256"
        }
      ],
      "name": "setPlatformFee",
      "outputs": [],
      "stateMutability": "nonpayable",
      "type": "function"
    },
    {
      "inputs": [
        {
          "internalType": "bytes4",
          "name": "interfaceId",
          "type": "bytes4"
        }
      ],
      "name": "supportsInterface",
      "outputs": [
        {
          "internalType": "bool",
          "name": "",
          "type": "bool"
        }
      ],
      "stateMutability": "view",
      "type": "function"
    },
    {
      "inputs": [
        {
          "internalType": "address",
          "name": "newOwner",
          "type": "address"
        }
      ],
      "name": "transferOwnership",
      "outputs": [],
      "stateMutability": "nonpayable",
      "type": "function"
    },
    {
      "inputs": [],
      "name": "unpause",
      "outputs": [],
      "stateMutability": "nonpayable",
      "type": "function"
    }
  ],
  "bytecode": "0x6101a080604052346103f55760a081613b51803803809161002082856103fa565b8339810103126103f55780516001600160a01b038116908190036103f55760208201516001600160a01b03811681036103f5576040830151606084015160809094015190926001600160a01b03821682036103f557604051906100846040836103fa565b60068252602082016511d85b589a5d60d21b8152604051926100a76040856103fa565b600184526020840192603160f81b845233610396575b6307f5828d60e41b6000527fca9d3e17f264b0f3984e2634e94adb37fa3e6a8103f06aeae6fa59e21c769f5d6020527fa53d5a615b1d5279f1a6647c5c0f31bf064b1e70af135676a4a96aeaeb691a2f805460ff191660011790558015610385577f4fb5f8cdfbce77f22b0931a39e9f476a60a0f66524b2f379e96485471eb700ad80546001600160a01b031916821790556040519081527fdd880d24a789958a6398c99c2e54ce31bc10a638cbc42f7dd34285479ae0f85590602090a161018481610453565b6101205261019184610615565b61014052519020918260e05251902080610100524660a0526040519060208201927f8b73c3c69bb8fe3d512ecc4cf759cc79239f7b179b0ffacaa9a75d522b39400f8452604083015260608201524660808201523060a082015260a081526101fa60c0826103fa565b5190206080523060c052600160ff19600080516020613b31833981519152541617600080516020613b31833981519152557f6985a02210a168e66602d3235cb6db0e70f92b3ba4d376a33c0f3d9434bff625600080a16101605261018052600454906102698282808210610433565b80600354816003557f6abf7e21d0157ac565825936f3d73ff3c4939140c08cdc99d445e4fa204007f0600080a382610347575b60405161337d90816107b4823960805181612c81015260a05181612d3e015260c05181612c52015260e05181612cd001526101005181612cf6015261012051816108060152610140518161082f015261016051818181611d9b0152818161282b0152612f2e015261018051818181610c1601528181611238015281816113130152818161169d015281816118e601528181611e92015281816120ef01528181612142015261237f0152f35b8281610354928210610433565b816004557fd347e206f25a89b917fc9482f1a2d294d749baa4dc9bde7fb495ee11fe491643600080a338808061029c565b6340b539cf60e01b60005260046000fd5b7fc9ed16f33ab3a66c84bfd83099ccb2a8845871e2e1c1928f63797152f0fd54cc80546001600160a01b0319163390811790915560007f8be0079c531659141344cd1fd0a4f28419497f9722a3daafe3b4186f6b6457e08180a36100bd565b600080fd5b601f909101601f19168101906001600160401b0382119082101761041d57604052565b634e487b7160e01b600052604160045260246000fd5b1561043c575050565b633f49e97960e21b60005260045260245260446000fd5b908151602081106000146104eb575090601f81511161048f57602081519101516020821061047f571790565b6000198260200360031b1b161790565b6040519063305a27a960e01b8252602060048301528181519182602483015260005b8381106104d35750508160006044809484010152601f80199101168101030190fd5b602082820181015160448784010152859350016104b1565b6001600160401b03811161041d57600054600181811c9116801561060b575b60208210146105f557601f81116105c0575b50602092601f821160011461055c5792819293600092610551575b50508160011b916000199060031b1c19161760005560ff90565b015190503880610537565b601f1982169360008052806000209160005b8681106105a8575083600195961061058f575b505050811b0160005560ff90565b015160001960f88460031b161c19169055388080610581565b9192602060018192868501518155019401920161056e565b60008052601f6020600020910160051c810190601f830160051c015b8181106105e9575061051c565b600081556001016105dc565b634e487b7160e01b600052602260045260246000fd5b90607f169061050a565b9081516020811060001461069d575090601f81511161064157602081519101516020821061047f571790565b6040519063305a27a960e01b8252602060048301528181519182602483015260005b8381106106855750508160006044809484010152601f80199101168101030190fd5b60208282018101516044878401015285935001610663565b6001600160401b03811161041d57600154600181811c911680156107a9575b60208210146105f557601f8111610773575b50602092601f821160011461070e5792819293600092610703575b50508160011b916000199060031b1c19161760015560ff90565b0151905038806106e9565b601f198216936001600052806000209160005b86811061075b5750836001959610610742575b505050811b0160015560ff90565b015160001960f88460031b161c19169055388080610734565b91926020600181928685015181550194019201610721565b6001600052601f6020600020910160051c810190601f830160051c015b81811061079d57506106ce565b60008155600101610790565b90607f16906106bc56fe6080604052600436101561001257600080fd5b60003560e01c806301ffc9a714612501578063086116d1146121cf5780630a1a2a7914612176578063105c4c4914611fe657806312e8e2c314611f4b57806319b9413f14611ef257806326232a2e14611eb65780632852150214611e4757806329ed45db14611dbf5780632b4c9f1614611d505780632f2ff15d14611bc457806335b8ce9314611b725780633b25637f14611ad15780633f4ba83a146119b65780633f8c49d31461156a5780634768d4ef1461148757806353aab4341461144b578063572b6c0514611400578063578b7d9914610ffc5780635c975abb14610f9c5780635d913d2014610e845780636b8f9c4314610d4157806375b238fc14610ce857806380f752ad14610a955780638456cb59146109775780638488bb4e1461090657806384b0196e146107cf5780638bb9c5bf146106605780638da5cb5b146105ef57806391d1485414610557578063a51f054e146104fe578063af74bc14146104a5578063bd9eb3b51461044c578063d547741f146102c35763f2fde38b1461019d57600080fd5b346102be5760207ffffffffffffffffffffffffffffffffffffffffffffffffffffffffffffffffc3601126102be576101d461258a565b7fc9ed16f33ab3a66c84bfd83099ccb2a8845871e2e1c1928f63797152f0fd54cc906101fe612f17565b9073ffffffffffffffffffffffffffffffffffffffff808454169216828103610291575073ffffffffffffffffffffffffffffffffffffffff169182820361024257005b827fffffffffffffffffffffffff00000000000000000000000000000000000000008254161790557f8be0079c531659141344cd1fd0a4f28419497f9722a3daafe3b4186f6b6457e0600080a3005b7f2ef4875e0000000000000000000000000000000000000000000000000000000060005260045260246000fd5b600080fd5b346102be5760407ffffffffffffffffffffffffffffffffffffffffffffffffffffffffffffffffc3601126102be576004356102fd612567565b610305612f17565b9173ffffffffffffffffffffffffffffffffffffffff7fc9ed16f33ab3a66c84bfd83099ccb2a8845871e2e1c1928f63797152f0fd54cc541673ffffffffffffffffffffffffffffffffffffffff841690810361029157507fc8827d3282af6f37b64c3e9e6f3ac9df286ab0bb0fccd6f8661bf19adb368b228160005280602052604060002073ffffffffffffffffffffffffffffffffffffffff841660005260205260ff604060002054166103b757005b60008281526020918252604080822073ffffffffffffffffffffffffffffffffffffffff9586168084529084529181902080547fffffffffffffffffffffffffffffffffffffffffffffffffffffffffffffff0016905580519384529183015291909216908201527ff6391f5c32d9c69d2a47ea670b442974b53935d1edc7fd64eb21e047a839171b9080606081015b0390a1005b346102be5760007ffffffffffffffffffffffffffffffffffffffffffffffffffffffffffffffffc3601126102be5760206040517f8ee1d14670be47589129ea1abfa7b982cd34487687f4f1305145d6be32d430a28152f35b346102be5760007ffffffffffffffffffffffffffffffffffffffffffffffffffffffffffffffffc3601126102be5760206040517faef88082b8671e875d97d0d6c81d06fb9e76f97b3ad7523a55a378e5298aeeee8152f35b346102be5760007ffffffffffffffffffffffffffffffffffffffffffffffffffffffffffffffffc3601126102be5760206040517f0385a2f357affe267c4ac0decbf9206d8604b02181a2dd8f81b5dcba0d74951a8152f35b346102be5760407ffffffffffffffffffffffffffffffffffffffffffffffffffffffffffffffffc3601126102be5761058e612567565b7fc8827d3282af6f37b64c3e9e6f3ac9df286ab0bb0fccd6f8661bf19adb368b2260043560005260205273ffffffffffffffffffffffffffffffffffffffff60406000209116600052602052602060ff604060002054166040519015158152f35b346102be5760007ffffffffffffffffffffffffffffffffffffffffffffffffffffffffffffffffc3601126102be57602073ffffffffffffffffffffffffffffffffffffffff7fc9ed16f33ab3a66c84bfd83099ccb2a8845871e2e1c1928f63797152f0fd54cc5416604051908152f35b346102be5760207ffffffffffffffffffffffffffffffffffffffffffffffffffffffffffffffffc3601126102be577fc8827d3282af6f37b64c3e9e6f3ac9df286ab0bb0fccd6f8661bf19adb368b226004356106bb612f17565b908060005282602052604060002073ffffffffffffffffffffffffffffffffffffffff831660005260205260ff60406000205416156107875760008181526020938452604080822073ffffffffffffffffffffffffffffffffffffffff949094168083529385529081902080547fffffffffffffffffffffffffffffffffffffffffffffffffffffffffffffff001690558051918252928101829052918201527ff6391f5c32d9c69d2a47ea670b442974b53935d1edc7fd64eb21e047a839171b908060608101610447565b73ffffffffffffffffffffffffffffffffffffffff92507f7aa72882000000000000000000000000000000000000000000000000000000006000526004521660245260446000fd5b346102be5760007ffffffffffffffffffffffffffffffffffffffffffffffffffffffffffffffffc3601126102be576108a861082a7f0000000000000000000000000000000000000000000000000000000000000000613047565b6108537f00000000000000000000000000000000000000000000000000000000000000006131df565b60206108b66040519261086683856126ac565b6000845260003681376040519586957f0f00000000000000000000000000000000000000000000000000000000000000875260e08588015260e087019061264d565b90858203604087015261264d565b466060850152306080850152600060a085015283810360c085015281808451928381520193019160005b8281106108ef57505050500390f35b8351855286955093810193928101926001016108e0565b346102be5760007ffffffffffffffffffffffffffffffffffffffffffffffffffffffffffffffffc3601126102be57602073ffffffffffffffffffffffffffffffffffffffff7f4fb5f8cdfbce77f22b0931a39e9f476a60a0f66524b2f379e96485471eb700ad5416604051908152f35b346102be5760007ffffffffffffffffffffffffffffffffffffffffffffffffffffffffffffffffc3601126102be577fc9ed16f33ab3a66c84bfd83099ccb2a8845871e2e1c1928f63797152f0fd54cc73ffffffffffffffffffffffffffffffffffffffff806109e5612f17565b9254169116908103610291577f0186a05f63b1553398ad5ea3233c0ce68b8c9eecc47717f123c5c2b42fbd6d9e60ff815416610a6b5760017fffffffffffffffffffffffffffffffffffffffffffffffffffffffffffffff008254161790557f6985a02210a168e66602d3235cb6db0e70f92b3ba4d376a33c0f3d9434bff625600080a1005b7f9e87fac80000000000000000000000000000000000000000000000000000000060005260046000fd5b346102be5773ffffffffffffffffffffffffffffffffffffffff610ab8366125db565b93909116928315610cbe57610b30610b3991610b2a610b5f94610b2260405160208101907f8ee1d14670be47589129ea1abfa7b982cd34487687f4f1305145d6be32d430a282528960408201528a606082015260608152610b1a6080826126ac565b519020612922565b92369161271c565b90612d64565b90929192612da0565b7fc8827d3282af6f37b64c3e9e6f3ac9df286ab0bb0fccd6f8661bf19adb368b22612963565b80600052600560205260406000209173ffffffffffffffffffffffffffffffffffffffff8354169273ffffffffffffffffffffffffffffffffffffffff6001820154166004820190808254946005850190610bc988610bc38b8a8654978892612ae7565b15612781565b808903610c4357505050509160006006602093827f7e8d9d00c67d0eca419da2afaeb9897f1995ce74ca7e6e5dab3f4c85c40721b196610c0c8a8a8815156127b6565b550155610c3a81867f0000000000000000000000000000000000000000000000000000000000000000612b37565b604051908152a3005b92975092509350858114600014610c8d57509160006006602093827f7e8d9d00c67d0eca419da2afaeb9897f1995ce74ca7e6e5dab3f4c85c40721b196610c0c8a8a8815156127b6565b847ff99ca0120000000000000000000000000000000000000000000000000000000060005260045260245260446000fd5b7f0e8a471c0000000000000000000000000000000000000000000000000000000060005260046000fd5b346102be5760007ffffffffffffffffffffffffffffffffffffffffffffffffffffffffffffffffc3601126102be5760206040517fa49807205ce4d355092ef5a8a18f56e8913cf4a201fbe287825b095693c217758152f35b346102be5760207ffffffffffffffffffffffffffffffffffffffffffffffffffffffffffffffffc3601126102be5760043573ffffffffffffffffffffffffffffffffffffffff81168091036102be577fc9ed16f33ab3a66c84bfd83099ccb2a8845871e2e1c1928f63797152f0fd54cc73ffffffffffffffffffffffffffffffffffffffff80610dd0612f17565b925416911690810361029157507f4fb5f8cdfbce77f22b0931a39e9f476a60a0f66524b2f379e96485471eb700ad8115610e5a5781817fdd880d24a789958a6398c99c2e54ce31bc10a638cbc42f7dd34285479ae0f855937fffffffffffffffffffffffff00000000000000000000000000000000000000006020945416179055604051908152a1005b7f40b539cf0000000000000000000000000000000000000000000000000000000060005260046000fd5b346102be5760207ffffffffffffffffffffffffffffffffffffffffffffffffffffffffffffffffc3601126102be57610ebb61258a565b7fc9ed16f33ab3a66c84bfd83099ccb2a8845871e2e1c1928f63797152f0fd54cc9073ffffffffffffffffffffffffffffffffffffffff80610efb612f17565b9354169216918203610f6e5773ffffffffffffffffffffffffffffffffffffffff16807fffffffffffffffffffffffff000000000000000000000000000000000000000060025416176002557f7b6e63ae66af5c70fbff811fa431e7646d4ec64cf86de8b3721ee49b6c8b5ad3600080a2005b507f2ef4875e0000000000000000000000000000000000000000000000000000000060005260045260246000fd5b346102be5760007ffffffffffffffffffffffffffffffffffffffffffffffffffffffffffffffffc3601126102be57602060ff7f0186a05f63b1553398ad5ea3233c0ce68b8c9eecc47717f123c5c2b42fbd6d9e54166040519015158152f35b346102be5760a07ffffffffffffffffffffffffffffffffffffffffffffffffffffffffffffffffc3601126102be57600435611036612567565b6044359173ffffffffffffffffffffffffffffffffffffffff83168093036102be576064359160843567ffffffffffffffff81116102be5761107c9036906004016125ad565b9093804210156113d65773ffffffffffffffffffffffffffffffffffffffff8316948515610cbe5786156113ac5760ff7f0186a05f63b1553398ad5ea3233c0ce68b8c9eecc47717f123c5c2b42fbd6d9e5416610a6b5761113692610b2a610b3092610b22610b399560405160208101917f453375e4f44bb00983db3dde1abb6154e31c5aab8fe14c7a4a55bb04fe1c3eb883528b60408301528c60608301528d608083015260a082015260a08152610b1a60c0826126ac565b81600052600560205260406000208473ffffffffffffffffffffffffffffffffffffffff82541692600183019373ffffffffffffffffffffffffffffffffffffffff855416946004850195865492600587019161119a8a610bc38554888587612ae7565b816112715750505050509261125c606093927f4b149d673b8317f48d55e0c9e8ee7c19e9fd8c290b6fd36ee506f77a24cee94195886004549485600660035498899687957fffffffffffffffffffffffff000000000000000000000000000000000000000083541617825560028201907fffffffffffffffffffffffff000000000000000000000000000000000000000082541617905501555530907f0000000000000000000000000000000000000000000000000000000000000000612bd4565b604051916001835260208301526040820152a4005b9194955091959296501560001461137e57871461134c578480937f4b149d673b8317f48d55e0c9e8ee7c19e9fd8c290b6fd36ee506f77a24cee94196606096946003856006611337970154978d7fffffffffffffffffffffffff0000000000000000000000000000000000000000825416179055018c7fffffffffffffffffffffffff00000000000000000000000000000000000000008254161790555530907f0000000000000000000000000000000000000000000000000000000000000000612bd4565b604051916000835260208301526040820152a4005b86867f474dee440000000000000000000000000000000000000000000000000000000060005260045260245260446000fd5b867fdc2995c40000000000000000000000000000000000000000000000000000000060005260045260246000fd5b7f7cfdd3730000000000000000000000000000000000000000000000000000000060005260046000fd5b7fdf4cc36d0000000000000000000000000000000000000000000000000000000060005260046000fd5b346102be5760207ffffffffffffffffffffffffffffffffffffffffffffffffffffffffffffffffc3601126102be57602061144161143c61258a565b612814565b6040519015158152f35b346102be5760007ffffffffffffffffffffffffffffffffffffffffffffffffffffffffffffffffc3601126102be576020600354604051908152f35b346102be5760207ffffffffffffffffffffffffffffffffffffffffffffffffffffffffffffffffc3601126102be57600435600052600560205260e0604060002073ffffffffffffffffffffffffffffffffffffffff8154169073ffffffffffffffffffffffffffffffffffffffff6001820154169073ffffffffffffffffffffffffffffffffffffffff60028201541673ffffffffffffffffffffffffffffffffffffffff6003830154166004830154916006600585015494015494604051968752602087015260408601526060850152608084015260a083015260c0820152f35b346102be576115ed610b39610b30611581366125db565b610b2a604097949796939592965196610b22602089017f0385a2f357affe267c4ac0decbf9206d8604b02181a2dd8f81b5dcba0d74951a81528a60408b015273ffffffffffffffffffffffffffffffffffffffff8916998a606082015260608152610b1a6080826126ac565b8260005260056020526040600020600481019081546005820192835494821515806119ad575b1561197f5773ffffffffffffffffffffffffffffffffffffffff84541673ffffffffffffffffffffffffffffffffffffffff60018601541681891460001461193e5760069150945b01948554968760011b978089046002149015171561190f57840180941161190f5760009586809261168f8a6116c198612807565b988996555555856118a8575b7f0000000000000000000000000000000000000000000000000000000000000000612b37565b83857f0a2413835f07421c275d3e2feac4328391c22c9ed3db28c40b45b55a0c3a2ba66020604051868152a373ffffffffffffffffffffffffffffffffffffffff60025416938461170e57005b73ffffffffffffffffffffffffffffffffffffffff604051927f1aef01e1000000000000000000000000000000000000000000000000000000008452876004850152826024850152169182604482015283606482015284608482015260208160a48160008a5af190811561189c5760009161181a575b507fffffffff000000000000000000000000000000000000000000000000000000007f1aef01e1000000000000000000000000000000000000000000000000000000009116036117d057005b60c495604051957fe9db41ca0000000000000000000000000000000000000000000000000000000087526004870152602486015260448501526064840152608483015260a4820152fd5b6020813d602011611894575b81611833602093836126ac565b810103126118905751907fffffffff000000000000000000000000000000000000000000000000000000008216820361188d57507fffffffff00000000000000000000000000000000000000000000000000000000611784565b80fd5b5080fd5b3d9150611826565b6040513d6000823e3d90fd5b61190a8673ffffffffffffffffffffffffffffffffffffffff7f4fb5f8cdfbce77f22b0931a39e9f476a60a0f66524b2f379e96485471eb700ad54167f0000000000000000000000000000000000000000000000000000000000000000612b37565b61169b565b7f4e487b7100000000000000000000000000000000000000000000000000000000600052601160045260246000fd5b880361194d576006909461165b565b87897ff99ca0120000000000000000000000000000000000000000000000000000000060005260045260245260446000fd5b877fcd7235820000000000000000000000000000000000000000000000000000000060005260045260246000fd5b50851515611613565b346102be5760007ffffffffffffffffffffffffffffffffffffffffffffffffffffffffffffffffc3601126102be577fc9ed16f33ab3a66c84bfd83099ccb2a8845871e2e1c1928f63797152f0fd54cc73ffffffffffffffffffffffffffffffffffffffff80611a24612f17565b9254169116908103610291577f0186a05f63b1553398ad5ea3233c0ce68b8c9eecc47717f123c5c2b42fbd6d9e805460ff811615611aa7577fffffffffffffffffffffffffffffffffffffffffffffffffffffffffffffff001690557f7805862f689e2f13df9f062ff482ad3ad112aca9e0847911ed832e158c525b33600080a1005b7f6cd602010000000000000000000000000000000000000000000000000000000060005260046000fd5b346102be5760207ffffffffffffffffffffffffffffffffffffffffffffffffffffffffffffffffc3601126102be57600435611b357fc8827d3282af6f37b64c3e9e6f3ac9df286ab0bb0fccd6f8661bf19adb368b22611b2f612f17565b90612a25565b611b4460045482808210612b9b565b600354816003557f6abf7e21d0157ac565825936f3d73ff3c4939140c08cdc99d445e4fa204007f0600080a3005b346102be5760007ffffffffffffffffffffffffffffffffffffffffffffffffffffffffffffffffc3601126102be57602073ffffffffffffffffffffffffffffffffffffffff60025416604051908152f35b346102be5760407ffffffffffffffffffffffffffffffffffffffffffffffffffffffffffffffffc3601126102be57600435611bfe612567565b611c06612f17565b9173ffffffffffffffffffffffffffffffffffffffff7fc9ed16f33ab3a66c84bfd83099ccb2a8845871e2e1c1928f63797152f0fd54cc541673ffffffffffffffffffffffffffffffffffffffff841690810361029157507fc8827d3282af6f37b64c3e9e6f3ac9df286ab0bb0fccd6f8661bf19adb368b228160005280602052604060002073ffffffffffffffffffffffffffffffffffffffff841660005260205260ff6040600020541615611cb957005b60008281526020918252604080822073ffffffffffffffffffffffffffffffffffffffff9586168084529084529181902080547fffffffffffffffffffffffffffffffffffffffffffffffffffffffffffffff0016600117905580519384529183015291909216908201527f2f8788117e7eff1d82e926ec794901d17c78024a50270940304540a733656f0d908060608101610447565b346102be5760007ffffffffffffffffffffffffffffffffffffffffffffffffffffffffffffffffc3601126102be57602060405173ffffffffffffffffffffffffffffffffffffffff7f0000000000000000000000000000000000000000000000000000000000000000168152f35b346102be5760207ffffffffffffffffffffffffffffffffffffffffffffffffffffffffffffffffc3601126102be5760043560005260056020526020611441604060002073ffffffffffffffffffffffffffffffffffffffff8154169073ffffffffffffffffffffffffffffffffffffffff6001820154166005600483015492015492612ae7565b346102be5760007ffffffffffffffffffffffffffffffffffffffffffffffffffffffffffffffffc3601126102be57602060405173ffffffffffffffffffffffffffffffffffffffff7f0000000000000000000000000000000000000000000000000000000000000000168152f35b346102be5760007ffffffffffffffffffffffffffffffffffffffffffffffffffffffffffffffffc3601126102be576020600454604051908152f35b346102be5760007ffffffffffffffffffffffffffffffffffffffffffffffffffffffffffffffffc3601126102be5760206040517f7e056079185997e63584b574e7ede2bc1c951a9914820d9497bb54f8c133fa478152f35b346102be5760207ffffffffffffffffffffffffffffffffffffffffffffffffffffffffffffffffc3601126102be57600435611fa97fc8827d3282af6f37b64c3e9e6f3ac9df286ab0bb0fccd6f8661bf19adb368b22611b2f612f17565b611fb881600354808210612b9b565b600454816004557fd347e206f25a89b917fc9482f1a2d294d749baa4dc9bde7fb495ee11fe491643600080a3005b346102be5760207ffffffffffffffffffffffffffffffffffffffffffffffffffffffffffffffffc3601126102be576004356120447fc8827d3282af6f37b64c3e9e6f3ac9df286ab0bb0fccd6f8661bf19adb368b22611b2f612f17565b80600052600560205260406000209073ffffffffffffffffffffffffffffffffffffffff82541673ffffffffffffffffffffffffffffffffffffffff60018401541692600481019183835480946000600660058701966120ad86610bc38d8b549c8d918c612ae7565b015581612113575b50505050816120c057005b7f7e8d9d00c67d0eca419da2afaeb9897f1995ce74ca7e6e5dab3f4c85c40721b191600060209255610c3a81867f0000000000000000000000000000000000000000000000000000000000000000612b37565b7f7e8d9d00c67d0eca419da2afaeb9897f1995ce74ca7e6e5dab3f4c85c40721b19160006020925561216681867f0000000000000000000000000000000000000000000000000000000000000000612b37565b604051908152a3848381806120b5565b346102be5760007ffffffffffffffffffffffffffffffffffffffffffffffffffffffffffffffffc3601126102be5760206040517f453375e4f44bb00983db3dde1abb6154e31c5aab8fe14c7a4a55bb04fe1c3eb88152f35b346102be57612252610b30610b396121e6366125db565b610b2a604097949593979692965196610b22602089017f7e056079185997e63584b574e7ede2bc1c951a9914820d9497bb54f8c133fa4781528860408b015273ffffffffffffffffffffffffffffffffffffffff8b16998a606082015260608152610b1a6080826126ac565b80600052600560205260406000209273ffffffffffffffffffffffffffffffffffffffff8454169373ffffffffffffffffffffffffffffffffffffffff60018201541690851515806124f8575b156124ca578394956004820191825490600581019160068354926122c98a610bc386868c8b612ae7565b01805496871595919291866123fc5788999a508c9895969798146000146123a3575083929160006122fe612306968294612807565b985555612807565b90555b8260011b928304600214171561190f57610c3a817f7e8d9d00c67d0eca419da2afaeb9897f1995ce74ca7e6e5dab3f4c85c40721b19461169b60209573ffffffffffffffffffffffffffffffffffffffff7f4fb5f8cdfbce77f22b0931a39e9f476a60a0f66524b2f379e96485471eb700ad54167f0000000000000000000000000000000000000000000000000000000000000000612b37565b94969492935090918a036123ca5760008792816122fe856123c397612807565b9055612309565b89897ff99ca0120000000000000000000000000000000000000000000000000000000060005260045260245260446000fd5b925092945096955089146000146124515750505082826000610c3a9361244b7f7e8d9d00c67d0eca419da2afaeb9897f1995ce74ca7e6e5dab3f4c85c40721b1989660209897889615156127b6565b5561169b565b9195939450915086036124985783836000610c3a9361244b6020977f7e8d9d00c67d0eca419da2afaeb9897f1995ce74ca7e6e5dab3f4c85c40721b19997889615156127b6565b85827ff99ca0120000000000000000000000000000000000000000000000000000000060005260045260245260446000fd5b837fe4b1c23d0000000000000000000000000000000000000000000000000000000060005260045260246000fd5b5081151561229f565b346102be5760207ffffffffffffffffffffffffffffffffffffffffffffffffffffffffffffffffc3601126102be576004357fffffffff00000000000000000000000000000000000000000000000000000000811681036102be57611441602091612873565b6024359073ffffffffffffffffffffffffffffffffffffffff821682036102be57565b6004359073ffffffffffffffffffffffffffffffffffffffff821682036102be57565b9181601f840112156102be5782359167ffffffffffffffff83116102be57602083818601950101116102be57565b60607ffffffffffffffffffffffffffffffffffffffffffffffffffffffffffffffffc8201126102be576004359160243573ffffffffffffffffffffffffffffffffffffffff811681036102be57916044359067ffffffffffffffff82116102be57612649916004016125ad565b9091565b919082519283825260005b8481106126975750507fffffffffffffffffffffffffffffffffffffffffffffffffffffffffffffffe0601f8460006020809697860101520116010190565b80602080928401015182828601015201612658565b90601f7fffffffffffffffffffffffffffffffffffffffffffffffffffffffffffffffe0910116810190811067ffffffffffffffff8211176126ed57604052565b7f4e487b7100000000000000000000000000000000000000000000000000000000600052604160045260246000fd5b92919267ffffffffffffffff82116126ed5760405191612764601f82017fffffffffffffffffffffffffffffffffffffffffffffffffffffffffffffffe016602001846126ac565b8294818452818301116102be578281602093846000960137010152565b156127895750565b7f60a3df590000000000000000000000000000000000000000000000000000000060005260045260246000fd5b156127bf575050565b73ffffffffffffffffffffffffffffffffffffffff92507f49568550000000000000000000000000000000000000000000000000000000006000526004521660245260446000fd5b9190820391821161190f57565b73ffffffffffffffffffffffffffffffffffffffff7f00000000000000000000000000000000000000000000000000000000000000001690811561286c5773ffffffffffffffffffffffffffffffffffffffff161490565b5050600090565b7fffffffff00000000000000000000000000000000000000000000000000000000167fffffffff00000000000000000000000000000000000000000000000000000000811461291c577f01ffc9a7000000000000000000000000000000000000000000000000000000008114612916576000527fca9d3e17f264b0f3984e2634e94adb37fa3e6a8103f06aeae6fa59e21c769f5d60205260ff6040600020541690565b50600190565b50600090565b60429061292d612c3b565b90604051917f19010000000000000000000000000000000000000000000000000000000000008352600283015260228201522090565b7faef88082b8671e875d97d0d6c81d06fb9e76f97b3ad7523a55a378e5298aeeee600052602052604060002073ffffffffffffffffffffffffffffffffffffffff821660005260205260ff60406000205416156129bd5750565b73ffffffffffffffffffffffffffffffffffffffff907f7aa72882000000000000000000000000000000000000000000000000000000006000527faef88082b8671e875d97d0d6c81d06fb9e76f97b3ad7523a55a378e5298aeeee6004521660245260446000fd5b7fa49807205ce4d355092ef5a8a18f56e8913cf4a201fbe287825b095693c21775600052602052604060002073ffffffffffffffffffffffffffffffffffffffff821660005260205260ff6040600020541615612a7f5750565b73ffffffffffffffffffffffffffffffffffffffff907f7aa72882000000000000000000000000000000000000000000000000000000006000527fa49807205ce4d355092ef5a8a18f56e8913cf4a201fbe287825b095693c217756004521660245260446000fd5b9073ffffffffffffffffffffffffffffffffffffffff1615612b155750159081612b0f575090565b90501590565b90915073ffffffffffffffffffffffffffffffffffffffff161561291c571590565b612b999273ffffffffffffffffffffffffffffffffffffffff604051937fa9059cbb000000000000000000000000000000000000000000000000000000006020860152166024840152604483015260448252612b946064836126ac565b612e8c565b565b15612ba4575050565b7ffd27a5e40000000000000000000000000000000000000000000000000000000060005260045260245260446000fd5b90919273ffffffffffffffffffffffffffffffffffffffff612b999481604051957f23b872dd000000000000000000000000000000000000000000000000000000006020880152166024860152166044840152606483015260648252612b946084836126ac565b73ffffffffffffffffffffffffffffffffffffffff7f000000000000000000000000000000000000000000000000000000000000000016301480612d3b575b15612ca3577f000000000000000000000000000000000000000000000000000000000000000090565b60405160208101907f8b73c3c69bb8fe3d512ecc4cf759cc79239f7b179b0ffacaa9a75d522b39400f82527f000000000000000000000000000000000000000000000000000000000000000060408201527f000000000000000000000000000000000000000000000000000000000000000060608201524660808201523060a082015260a08152612d3560c0826126ac565b51902090565b507f00000000000000000000000000000000000000000000000000000000000000004614612c7a565b8151919060418303612d9557612d8e92506020820151906060604084015193015160001a906132b1565b9192909190565b505060009160029190565b9190916004811015612e5d5780612db657509050565b600060018203612dea577ff645eedf0000000000000000000000000000000000000000000000000000000060005260046000fd5b5060028103612e2157827ffce698f70000000000000000000000000000000000000000000000000000000060005260045260246000fd5b9091600360009214612e31575050565b602492507fd78bce0c000000000000000000000000000000000000000000000000000000008252600452fd5b7f4e487b7100000000000000000000000000000000000000000000000000000000600052602160045260246000fd5b906000602091828151910182855af11561189c576000513d612f0e575073ffffffffffffffffffffffffffffffffffffffff81163b155b612eca5750565b73ffffffffffffffffffffffffffffffffffffffff907f5274afe7000000000000000000000000000000000000000000000000000000006000521660045260246000fd5b60011415612ec3565b73ffffffffffffffffffffffffffffffffffffffff7f000000000000000000000000000000000000000000000000000000000000000016801561303857323314801561303d575b613038577fffffffffffffffffffffffffffffffffffffffffffffffffffffffffffffffec36013560601c90803314908115612fa2575b50612f9f57503390565b90565b60649150602090604051928380927f019a20280000000000000000000000000000000000000000000000000000000082528660048301523360248301523060448301525afa90811561189c57600091612ffd575b5038612f95565b6020813d602011613030575b81613016602093836126ac565b81010312611890575190811515820361188d575038612ff6565b3d9150613009565b503390565b5060183610612f5e565b60ff81146130c95760ff811690601f821161309f57604080519261306b82856126ac565b602084527fffffffffffffffffffffffffffffffffffffffffffffffffffffffffffffffe060208501920136833783525290565b7fb3512b0c0000000000000000000000000000000000000000000000000000000060005260046000fd5b5060405160008054908160011c916001811680156131d5575b6020841081146131a857838552849291811561316b575060011461310d575b612f9f925003826126ac565b50600080805290917f290decd9548b62a8d60345a988386fc84ba6bc95484008f6362f93160ef3e5635b81831061314f575050906020612f9f92820101613101565b6020919350806001915483858801015201910190918392613137565b60209250612f9f9491507fffffffffffffffffffffffffffffffffffffffffffffffffffffffffffffff001682840152151560051b820101613101565b6024837f4e487b710000000000000000000000000000000000000000000000000000000081526022600452fd5b92607f16926130e2565b60ff81146132035760ff811690601f821161309f57604080519261306b82856126ac565b506040516000600154908160011c916001811680156132a7575b6020841081146131a857838552849291811561316b575060011461324757612f9f925003826126ac565b506001600090815290917fb10e2d527612073b26eecdfd717e6a320cf44b4afac2b0732d9fcbe2b7fa0cf65b81831061328b575050906020612f9f92820101613101565b6020919350806001915483858801015201910190918392613273565b92607f169261321d565b91907f7fffffffffffffffffffffffffffffff5d576e7357a4501ddfe92f46681b20a0841161333b579160209360809260ff60009560405194855216868401526040830152606082015282805260015afa1561189c5760005173ffffffffffffffffffffffffffffffffffffffff81161561332f5790600090600090565b50600090600190600090565b5050506000916003919056fea2646970667358221220445f8ce10f1c4bc2c6259c056ba6e95ecdfc0d6e2b97f8429b1f41f667dd3b7764736f6c634300081e00330186a05f63b1553398ad5ea3233c0ce68b8c9eecc47717f123c5c2b42fbd6d9e",
  "linkReferences": {},
  "deployedLinkReferences": {}
}