{
  "_format": "hh-sol-artifact-1",
  "contractName": "PointsMock",
  "sourceName": "contracts/mocks/points/PointsMock.sol",
  "abi": [
    {
      "inputs": [
        {
          "internalType": "contract IForwarderRegistry",
          "name": "forwarderRegistry_",
          "type": "address"
        }
      ],
      "stateMutability": "nonpayable",
      "type": "constructor"
    },
    {
      "inputs": [
        {
          "internalType": "bytes32",
          "name": "reasonCode",
          "type": "bytes32"
        }
      ],
      "name": "ConsumeReasonCodeAlreadyExists",
      "type": "error"
    },
    {
      "inputs": [
        {
          "internalType": "bytes32",
          "name": "reasonCode",
          "type": "bytes32"
        }
      ],
      "name": "ConsumeReasonCodeDoesNotExist",
      "type": "error"
    },
    {
      "inputs": [],
      "name": "ConsumeReasonCodesArrayEmpty",
      "type": "error"
    },
    {
      "inputs": [],
      "name": "DepositZeroAmount",
      "type": "error"
    },
    {
      "inputs": [],
      "name": "ExpiredSignature",
      "type": "error"
    },
    {
      "inputs": [],
      "name": "IllegalInterfaceId",
      "type": "error"
    },
    {
      "inputs": [
        {
          "internalType": "address",
          "name": "holder",
          "type": "address"
        },
        {
          "internalType": "uint256",
          "name": "requiredBalance",
          "type": "uint256"
        }
      ],
      "name": "InsufficientBalance",
      "type": "error"
    },
    {
      "inputs": [],
      "name": "InvalidForwarderRegistry",
      "type": "error"
    },
    {
      "inputs": [],
      "name": "InvalidSignature",
      "type": "error"
    },
    {
      "inputs": [
        {
          "internalType": "address",
          "name": "account",
          "type": "address"
        }
      ],
      "name": "NotContractOwner",
      "type": "error"
    },
    {
      "inputs": [
        {
          "internalType": "bytes32",
          "name": "role",
          "type": "bytes32"
        },
        {
          "internalType": "address",
          "name": "account",
          "type": "address"
        }
      ],
      "name": "NotRoleHolder",
      "type": "error"
    },
    {
      "inputs": [],
      "name": "SenderIsNotAppointedSpender",
      "type": "error"
    },
    {
      "anonymous": false,
      "inputs": [
        {
          "indexed": true,
          "internalType": "bytes32[]",
          "name": "reasonCodes",
          "type": "bytes32[]"
        }
      ],
      "name": "ConsumeReasonCodesAdded",
      "type": "event"
    },
    {
      "anonymous": false,
      "inputs": [
        {
          "indexed": true,
          "internalType": "bytes32[]",
          "name": "reasonCodes",
          "type": "bytes32[]"
        }
      ],
      "name": "ConsumeReasonCodesRemoved",
      "type": "event"
    },
    {
      "anonymous": false,
      "inputs": [
        {
          "indexed": true,
          "internalType": "address",
          "name": "holder",
          "type": "address"
        },
        {
          "indexed": true,
          "internalType": "bytes32",
          "name": "reasonCode",
          "type": "bytes32"
        },
        {
          "indexed": true,
          "internalType": "address",
          "name": "operator",
          "type": "address"
        },
        {
          "indexed": false,
          "internalType": "uint256",
          "name": "amount",
          "type": "uint256"
        }
      ],
      "name": "Consumed",
      "type": "event"
    },
    {
      "anonymous": false,
      "inputs": [
        {
          "indexed": true,
          "internalType": "address",
          "name": "sender",
          "type": "address"
        },
        {
          "indexed": true,
          "internalType": "bytes32",
          "name": "reasonCode",
          "type": "bytes32"
        },
        {
          "indexed": true,
          "internalType": "address",
          "name": "holder",
          "type": "address"
        },
        {
          "indexed": false,
          "internalType": "uint256",
          "name": "amount",
          "type": "uint256"
        }
      ],
      "name": "Deposited",
      "type": "event"
    },
    {
      "anonymous": false,
      "inputs": [
        {
          "indexed": true,
          "internalType": "address",
          "name": "previousOwner",
          "type": "address"
        },
        {
          "indexed": true,
          "internalType": "address",
          "name": "newOwner",
          "type": "address"
        }
      ],
      "name": "OwnershipTransferred",
      "type": "event"
    },
    {
      "anonymous": false,
      "inputs": [
        {
          "indexed": false,
          "internalType": "bytes32",
          "name": "role",
          "type": "bytes32"
        },
        {
          "indexed": false,
          "internalType": "address",
          "name": "account",
          "type": "address"
        },
        {
          "indexed": false,
          "internalType": "address",
          "name": "operator",
          "type": "address"
        }
      ],
      "name": "RoleGranted",
      "type": "event"
    },
    {
      "anonymous": false,
      "inputs": [
        {
          "indexed": false,
          "internalType": "bytes32",
          "name": "role",
          "type": "bytes32"
        },
        {
          "indexed": false,
          "internalType": "address",
          "name": "account",
          "type": "address"
        },
        {
          "indexed": false,
          "internalType": "address",
          "name": "operator",
          "type": "address"
        }
      ],
      "name": "RoleRevoked",
      "type": "event"
    },
    {
      "inputs": [],
      "name": "ADMIN_ROLE",
      "outputs": [
        {
          "internalType": "bytes32",
          "name": "",
          "type": "bytes32"
        }
      ],
      "stateMutability": "view",
      "type": "function"
    },
    {
      "inputs": [],
      "name": "DEPOSITOR_ROLE",
      "outputs": [
        {
          "internalType": "bytes32",
          "name": "",
          "type": "bytes32"
        }
      ],
      "stateMutability": "view",
      "type": "function"
    },
    {
      "inputs": [],
      "name": "SPENDER_ROLE",
      "outputs": [
        {
          "internalType": "bytes32",
          "name": "",
          "type": "bytes32"
        }
      ],
      "stateMutability": "view",
      "type": "function"
    },
    {
      "inputs": [],
      "name": "__msgData",
      "outputs": [
        {
          "internalType": "bytes",
          "name": "",
          "type": "bytes"
        }
      ],
      "stateMutability": "view",
      "type": "function"
    },
    {
      "inputs": [],
      "name": "__msgSender",
      "outputs": [
        {
          "internalType": "address",
          "name": "",
          "type": "address"
        }
      ],
      "stateMutability": "view",
      "type": "function"
    },
    {
      "inputs": [
        {
          "internalType": "bytes32[]",
          "name": "reasonCodes",
          "type": "bytes32[]"
        }
      ],
      "name": "addConsumeReasonCodes",
      "outputs": [],
      "stateMutability": "nonpayable",
      "type": "function"
    },
    {
      "inputs": [
        {
          "internalType": "bytes32",
          "name": "",
          "type": "bytes32"
        }
      ],
      "name": "allowedConsumeReasonCodes",
      "outputs": [
        {
          "internalType": "bool",
          "name": "",
          "type": "bool"
        }
      ],
      "stateMutability": "view",
      "type": "function"
    },
    {
      "inputs": [
        {
          "internalType": "address",
          "name": "",
          "type": "address"
        }
      ],
      "name": "balances",
      "outputs": [
        {
          "internalType": "uint256",
          "name": "",
          "type": "uint256"
        }
      ],
      "stateMutability": "view",
      "type": "function"
    },
    {
      "inputs": [
        {
          "internalType": "address",
          "name": "holder",
          "type": "address"
        },
        {
          "internalType": "uint256",
          "name": "amount",
          "type": "uint256"
        },
        {
          "internalType": "bytes32",
          "name": "consumeReasonCode",
          "type": "bytes32"
        }
      ],
      "name": "consume",
      "outputs": [],
      "stateMutability": "nonpayable",
      "type": "function"
    },
    {
      "inputs": [
        {
          "internalType": "address",
          "name": "holder",
          "type": "address"
        },
        {
          "internalType": "uint256",
          "name": "amount",
          "type": "uint256"
        },
        {
          "internalType": "bytes32",
          "name": "consumeReasonCode",
          "type": "bytes32"
        },
        {
          "internalType": "uint256",
          "name": "deadline",
          "type": "uint256"
        },
        {
          "internalType": "address",
          "name": "spender",
          "type": "address"
        },
        {
          "internalType": "uint8",
          "name": "v",
          "type": "uint8"
        },
        {
          "internalType": "bytes32",
          "name": "r",
          "type": "bytes32"
        },
        {
          "internalType": "bytes32",
          "name": "s",
          "type": "bytes32"
        }
      ],
      "name": "consume",
      "outputs": [],
      "stateMutability": "nonpayable",
      "type": "function"
    },
    {
      "inputs": [
        {
          "internalType": "uint256",
          "name": "amount",
          "type": "uint256"
        },
        {
          "internalType": "bytes32",
          "name": "consumeReasonCode",
          "type": "bytes32"
        }
      ],
      "name": "consume",
      "outputs": [],
      "stateMutability": "nonpayable",
      "type": "function"
    },
    {
      "inputs": [
        {
          "internalType": "address",
          "name": "holder",
          "type": "address"
        },
        {
          "internalType": "uint256",
          "name": "amount",
          "type": "uint256"
        },
        {
          "internalType": "bytes32",
          "name": "depositReasonCode",
          "type": "bytes32"
        }
      ],
      "name": "deposit",
      "outputs": [],
      "stateMutability": "nonpayable",
      "type": "function"
    },
    {
      "inputs": [],
      "name": "forwarderRegistry",
      "outputs": [
        {
          "internalType": "contract IForwarderRegistry",
          "name": "",
          "type": "address"
        }
      ],
      "stateMutability": "view",
      "type": "function"
    },
    {
      "inputs": [
        {
          "internalType": "bytes32",
          "name": "role",
          "type": "bytes32"
        },
        {
          "internalType": "address",
          "name": "account",
          "type": "address"
        }
      ],
      "name": "grantRole",
      "outputs": [],
      "stateMutability": "nonpayable",
      "type": "function"
    },
    {
      "inputs": [
        {
          "internalType": "bytes32",
          "name": "role",
          "type": "bytes32"
        },
        {
          "internalType": "address",
          "name": "account",
          "type": "address"
        }
      ],
      "name": "hasRole",
      "outputs": [
        {
          "internalType": "bool",
          "name": "hasRole_",
          "type": "bool"
        }
      ],
      "stateMutability": "view",
      "type": "function"
    },
    {
      "inputs": [
        {
          "internalType": "address",
          "name": "forwarder",
          "type": "address"
        }
      ],
      "name": "isTrustedForwarder",
      "outputs": [
        {
          "internalType": "bool",
          "name": "",
          "type": "bool"
        }
      ],
      "stateMutability": "view",
      "type": "function"
    },
    {
      "inputs": [
        {
          "internalType": "bytes32",
          "name": "",
          "type": "bytes32"
        }
      ],
      "name": "nonces",
      "outputs": [
        {
          "internalType": "uint256",
          "name": "",
          "type": "uint256"
        }
      ],
      "stateMutability": "view",
      "type": "function"
    },
    {
      "inputs": [],
      "name": "owner",
      "outputs": [
        {
          "internalType": "address",
          "name": "",
          "type": "address"
        }
      ],
      "stateMutability": "view",
      "type": "function"
    },
    {
      "inputs": [
        {
          "internalType": "address",
          "name": "holder",
          "type": "address"
        },
        {
          "internalType": "address",
          "name": "spender",
          "type": "address"
        },
        {
          "internalType": "uint256",
          "name": "amount",
          "type": "uint256"
        },
        {
          "internalType": "bytes32",
          "name": "reasonCode",
          "type": "bytes32"
        },
        {
          "internalType": "uint256",
          "name": "deadline",
          "type": "uint256"
        }
      ],
      "name": "preparePayload",
      "outputs": [
        {
          "internalType": "bytes32",
          "name": "",
          "type": "bytes32"
        }
      ],
      "stateMutability": "view",
      "type": "function"
    },
    {
      "inputs": [
        {
          "internalType": "bytes32[]",
          "name": "reasonCodes",
          "type": "bytes32[]"
        }
      ],
      "name": "removeConsumeReasonCodes",
      "outputs": [],
      "stateMutability": "nonpayable",
      "type": "function"
    },
    {
      "inputs": [
        {
          "internalType": "bytes32",
          "name": "role",
          "type": "bytes32"
        }
      ],
      "name": "renounceRole",
      "outputs": [],
      "stateMutability": "nonpayable",
      "type": "function"
    },
    {
      "inputs": [
        {
          "internalType": "bytes32",
          "name": "role",
          "type": "bytes32"
        },
        {
          "internalType": "address",
          "name": "account",
          "type": "address"
        }
      ],
      "name": "revokeRole",
      "outputs": [],
      "stateMutability": "nonpayable",
      "type": "function"
    },
    {
      "inputs": [
        {
          "internalType": "bytes4",
          "name": "interfaceId",
          "type": "bytes4"
        }
      ],
      "name": "supportsInterface",
      "outputs": [
        {
          "internalType": "bool",
          "name": "",
          "type": "bool"
        }
      ],
      "stateMutability": "view",
      "type": "function"
    },
    {
      "inputs": [
        {
          "internalType": "address",
          "name": "newOwner",
          "type": "address"
        }
      ],
      "name": "transferOwnership",
      "outputs": [],
      "stateMutability": "nonpayable",
      "type": "function"
    }
  ],
  "bytecode": "0x60a06040523480156200001157600080fd5b50604051620022fd380380620022fd8339810160408190526200003491620002a3565b8080806200004162000090565b620000578162000050620000a1565b90620000d7565b506001600160a01b03908116608052821690506200008857604051633545ba1f60e21b815260040160405180910390fd5b50506200031b565b60006200009c62000152565b905090565b600080620000d160017fc9ed16f33ab3a66c84bfd83099ccb2a8845871e2e1c1928f63797152f0fd54cd620002d5565b92915050565b6001600160a01b038116156200012e5781546001600160a01b0319166001600160a01b03821690811783556040516000907f8be0079c531659141344cd1fd0a4f28419497f9722a3daafe3b4186f6b6457e0908290a35b6200014e6307f5828d60e41b60016200014662000216565b919062000246565b5050565b600033321480620001635750601836105b156200016e57503390565b60805136601319013560601c906001600160a01b0316331480620002045750608051604051634494d46560e11b81526001600160a01b03838116600483015233602483015290911690638929a8ca90604401602060405180830381865afa158015620001de573d6000803e3d6000fd5b505050506040513d601f19601f82011682018060405250810190620002049190620002f7565b156200020f57919050565b3391505090565b600080620000d160017fca9d3e17f264b0f3984e2634e94adb37fa3e6a8103f06aeae6fa59e21c769f5e620002d5565b600160e01b6001600160e01b031983160162000275576040516372c683bb60e01b815260040160405180910390fd5b6001600160e01b03199190911660009081526020929092526040909120805460ff1916911515919091179055565b600060208284031215620002b657600080fd5b81516001600160a01b0381168114620002ce57600080fd5b9392505050565b81810381811115620000d157634e487b7160e01b600052601160045260246000fd5b6000602082840312156200030a57600080fd5b81518015158114620002ce57600080fd5b608051611fa36200035a6000396000818161021d015281816102ae015281816116fd015281816117850152818161183801526118760152611fa36000f3fe608060405234801561001057600080fd5b50600436106101985760003560e01c80638bb9c5bf116100e3578063d1a91ff21161008c578063f2fde38b11610066578063f2fde38b14610402578063f374913c14610415578063f95159621461042857600080fd5b8063d1a91ff2146103d4578063d547741f146103dc578063e283bfbf146103ef57600080fd5b80639306f1ee116100bd5780639306f1ee1461037a5780639e317f121461038d578063a3b0b5a3146103ad57600080fd5b80638bb9c5bf1461034c5780638da5cb5b1461035f57806391d148541461036757600080fd5b806331e66e1e1161014557806372c16a241161011f57806372c16a24146102eb5780637308a1281461031257806375b238fc1461032557600080fd5b806331e66e1e1461027557806338a207931461028b578063572b6c051461029e57600080fd5b806327e235e31161017657806327e235e3146101ed5780632b4c9f161461021b5780632f2ff15d1461026257600080fd5b806301ffc9a71461019d578063212aac79146101c557806326b3293f146101da575b600080fd5b6101b06101ab366004611ad0565b61044b565b60405190151581526020015b60405180910390f35b6101d86101d3366004611b3b565b610465565b005b6101d86101e8366004611b3b565b6104b0565b61020d6101fb366004611b6e565b60006020819052908152604090205481565b6040519081526020016101bc565b7f00000000000000000000000000000000000000000000000000000000000000005b60405173ffffffffffffffffffffffffffffffffffffffff90911681526020016101bc565b6101d8610270366004611b89565b6105c4565b61027d6105f8565b6040516101bc929190611bb5565b6101d8610299366004611c02565b61060b565b6101b06102ac366004611b6e565b7f000000000000000000000000000000000000000000000000000000000000000073ffffffffffffffffffffffffffffffffffffffff90811691161490565b61020d7f7434c6f201a551bfd17336985361933e0c4935b520dac8a49d937b325f7d5c0a81565b6101d8610320366004611c7e565b610875565b61020d7fa49807205ce4d355092ef5a8a18f56e8913cf4a201fbe287825b095693c2177581565b6101d861035a366004611cf3565b610a21565b61023d610a3f565b6101b0610375366004611b89565b610a6b565b61020d610388366004611d0c565b610ab6565b61020d61039b366004611cf3565b60016020526000908152604090205481565b61020d7f8f4f2da22e8ac8f11e15f9fc141cddbb5deea8800186560abb6e68c5496619a981565b61023d610bb9565b6101d86103ea366004611b89565b610bc3565b6101d86103fd366004611d59565b610bf1565b6101d8610410366004611b6e565b610c07565b6101d8610423366004611c7e565b610c22565b6101b0610436366004611cf3565b60026020526000908152604090205460ff1681565b600061045f82610459610dbb565b90610de9565b92915050565b6104a07f7434c6f201a551bfd17336985361933e0c4935b520dac8a49d937b325f7d5c0a610491610ec3565b610499610ecd565b9190610efb565b6104ab838383610f81565b505050565b6104dc7f8f4f2da22e8ac8f11e15f9fc141cddbb5deea8800186560abb6e68c5496619a9610491610ec3565b81600003610516576040517f8b07335400000000000000000000000000000000000000000000000000000000815260040160405180910390fd5b73ffffffffffffffffffffffffffffffffffffffff83166000908152602081905260408120805484929061054b908490611daa565b909155505073ffffffffffffffffffffffffffffffffffffffff831681610570610ec3565b73ffffffffffffffffffffffffffffffffffffffff167f81226022599698f02239ac5895ce7a96962ba5fe72f8f7610d1cc2cb0405f391856040516105b791815260200190565b60405180910390a4505050565b60006105ce610ec3565b90506105e2816105dc6110f0565b9061111e565b6104ab8383836105f0610ecd565b929190611189565b366000610603611260565b915091509091565b84421115610645576040517fdf4cc36d00000000000000000000000000000000000000000000000000000000815260040160405180910390fd5b61064d610ec3565b73ffffffffffffffffffffffffffffffffffffffff168473ffffffffffffffffffffffffffffffffffffffff16146106b1576040517f597131c000000000000000000000000000000000000000000000000000000000815260040160405180910390fd5b6040805160608a811b7fffffffffffffffffffffffffffffffffffffffff00000000000000000000000090811660208085018290529289901b9091166034840181905284516028818603018152604885018652805190840120600081815260018552868120546068870194909452607c860192909252609085018d905260b085018c905260d085018b905260f080860184905286518087039091018152610110860187528051908501207f19457468657265756d205369676e6564204d6573736167653a0a33320000000061013087015261014c8087018290528751808803909101815261016c87018852805195019490942061018c86018990526101ac860188905260f88a901b7fff00000000000000000000000000000000000000000000000000000000000000166101cc87015286518087036101ad0181526101cd909601909652949193906108048e848461126b565b90508061083d576040517f8baa579f00000000000000000000000000000000000000000000000000000000815260040160405180910390fd5b6108488e8e8e610f81565b610853856001611daa565b6000968752600160205260409096209590955550505050505050505050505050565b6108a17fa49807205ce4d355092ef5a8a18f56e8913cf4a201fbe287825b095693c21775610491610ec3565b60008190036108dc576040517f3fb4608600000000000000000000000000000000000000000000000000000000815260040160405180910390fd5b60005b818110156109dc57600260008484848181106108fd576108fd611dbd565b602090810292909201358352508101919091526040016000205460ff16156109765782828281811061093157610931611dbd565b905060200201356040517fb642124200000000000000000000000000000000000000000000000000000000815260040161096d91815260200190565b60405180910390fd5b60016002600085858581811061098e5761098e611dbd565b6020908102929092013583525081019190915260400160002080547fffffffffffffffffffffffffffffffffffffffffffffffffffffffffffffff00169115159190911790556001016108df565b5081816040516109ed929190611dec565b604051908190038120907fab25d781d5ddfd48b7ce16c5048ddf0ee9caece5921f772cfacfd1085b6f5f1b90600090a25050565b610a3c610a2c610ec3565b82610a35610ecd565b9190611438565b50565b6000610a66610a4c6110f0565b5473ffffffffffffffffffffffffffffffffffffffff1690565b905090565b6000610aaf8383610a7a610ecd565b60009283526020908152604080842073ffffffffffffffffffffffffffffffffffffffff909316845291905290205460ff1690565b9392505050565b6000610baf8686868686600160008d8d604051602001610b0d929190606092831b7fffffffffffffffffffffffffffffffffffffffff00000000000000000000000090811682529190921b16601482015260280190565b604051602081830303815290604052805190602001208152602001908152602001600020546040517fffffffffffffffffffffffffffffffffffffffff000000000000000000000000606088811b8216602084015287901b16603482015260488101859052606881018490526088810183905260a8810182905260009060c8016040516020818303038152906040528051906020012090509695505050505050565b9695505050505050565b6000610a66610ec3565b6000610bcd610ec3565b9050610bdb816105dc6110f0565b6104ab838383610be9610ecd565b9291906114dc565b610c03610bfc610ec3565b8383610f81565b5050565b610a3c610c12610ec3565b82610c1b6110f0565b91906115a6565b610c4e7fa49807205ce4d355092ef5a8a18f56e8913cf4a201fbe287825b095693c21775610491610ec3565b6000819003610c89576040517f3fb4608600000000000000000000000000000000000000000000000000000000815260040160405180910390fd5b60005b81811015610d765760026000848484818110610caa57610caa611dbd565b602090810292909201358352508101919091526040016000205460ff16610d1957828282818110610cdd57610cdd611dbd565b905060200201356040517fa89513e100000000000000000000000000000000000000000000000000000000815260040161096d91815260200190565b60026000848484818110610d2f57610d2f611dbd565b6020908102929092013583525081019190915260400160002080547fffffffffffffffffffffffffffffffffffffffffffffffffffffffffffffff00169055600101610c8c565b508181604051610d87929190611dec565b604051908190038120907f507a827ea9c046f50d345ab3118c004750ae36a4dd38998391315aee8be45b9590600090a25050565b60008061045f60017fca9d3e17f264b0f3984e2634e94adb37fa3e6a8103f06aeae6fa59e21c769f5e611e2e565b60007c01000000000000000000000000000000000000000000000000000000007fffffffff00000000000000000000000000000000000000000000000000000000831601610e395750600061045f565b7ffe003659000000000000000000000000000000000000000000000000000000007fffffffff00000000000000000000000000000000000000000000000000000000831601610e8a5750600161045f565b507fffffffff00000000000000000000000000000000000000000000000000000000166000908152602091909152604090205460ff1690565b6000610a666116ba565b60008061045f60017fc8827d3282af6f37b64c3e9e6f3ac9df286ab0bb0fccd6f8661bf19adb368b23611e2e565b60008281526020848152604080832073ffffffffffffffffffffffffffffffffffffffff8516845290915290205460ff166104ab576040517f7aa728820000000000000000000000000000000000000000000000000000000081526004810183905273ffffffffffffffffffffffffffffffffffffffff8216602482015260440161096d565b73ffffffffffffffffffffffffffffffffffffffff831660009081526020819052604090205482811015611000576040517ff6deaa0400000000000000000000000000000000000000000000000000000000815273ffffffffffffffffffffffffffffffffffffffff851660048201526024810184905260440161096d565b60008281526002602052604090205460ff1661104b576040517fa89513e10000000000000000000000000000000000000000000000000000000081526004810183905260240161096d565b6110558382611e2e565b73ffffffffffffffffffffffffffffffffffffffff8516600090815260208190526040902055611083610ec3565b73ffffffffffffffffffffffffffffffffffffffff16828573ffffffffffffffffffffffffffffffffffffffff167f483f7fdbc58a2920f2e502b1bbbb896329d7c8ddca129d0875d589e895186857866040516110e291815260200190565b60405180910390a450505050565b60008061045f60017fc9ed16f33ab3a66c84bfd83099ccb2a8845871e2e1c1928f63797152f0fd54cd611e2e565b815473ffffffffffffffffffffffffffffffffffffffff828116911614610c03576040517f2ef4875e00000000000000000000000000000000000000000000000000000000815273ffffffffffffffffffffffffffffffffffffffff8216600482015260240161096d565b60008381526020858152604080832073ffffffffffffffffffffffffffffffffffffffff8616845290915290205460ff1661125a5760008381526020858152604080832073ffffffffffffffffffffffffffffffffffffffff8681168086529184529382902080547fffffffffffffffffffffffffffffffffffffffffffffffffffffffffffffff00166001179055815187815292830152918316918101919091527f2f8788117e7eff1d82e926ec794901d17c78024a50270940304540a733656f0d906060015b60405180910390a15b50505050565b366000610603611801565b600080600061127a858561196b565b9092509050600081600481111561129357611293611e41565b1480156112cb57508573ffffffffffffffffffffffffffffffffffffffff168273ffffffffffffffffffffffffffffffffffffffff16145b156112db57600192505050610aaf565b6000808773ffffffffffffffffffffffffffffffffffffffff16631626ba7e60e01b8888604051602401611310929190611e94565b604080517fffffffffffffffffffffffffffffffffffffffffffffffffffffffffffffffe08184030181529181526020820180517bffffffffffffffffffffffffffffffffffffffffffffffffffffffff167fffffffff000000000000000000000000000000000000000000000000000000009094169390931790925290516113999190611eec565b600060405180830381855afa9150503d80600081146113d4576040519150601f19603f3d011682016040523d82523d6000602084013e6113d9565b606091505b50915091508180156113ec575080516020145b801561142c575080517f1626ba7e000000000000000000000000000000000000000000000000000000009061142a9083016020908101908401611f08565b145b98975050505050505050565b611443838284610efb565b60008181526020848152604080832073ffffffffffffffffffffffffffffffffffffffff86168085529083529281902080547fffffffffffffffffffffffffffffffffffffffffffffffffffffffffffffff0016905580518481529182018390528101919091527ff6391f5c32d9c69d2a47ea670b442974b53935d1edc7fd64eb21e047a839171b9060600160405180910390a1505050565b60008381526020858152604080832073ffffffffffffffffffffffffffffffffffffffff8616845290915290205460ff161561125a5760008381526020858152604080832073ffffffffffffffffffffffffffffffffffffffff8681168086529184529382902080547fffffffffffffffffffffffffffffffffffffffffffffffffffffffffffffff00169055815187815292830152918316918101919091527ff6391f5c32d9c69d2a47ea670b442974b53935d1edc7fd64eb21e047a839171b90606001611251565b825473ffffffffffffffffffffffffffffffffffffffff9081169083168114611613576040517f2ef4875e00000000000000000000000000000000000000000000000000000000815273ffffffffffffffffffffffffffffffffffffffff8416600482015260240161096d565b8173ffffffffffffffffffffffffffffffffffffffff168173ffffffffffffffffffffffffffffffffffffffff161461125a5783547fffffffffffffffffffffffff00000000000000000000000000000000000000001673ffffffffffffffffffffffffffffffffffffffff8381169182178655604051908316907f8be0079c531659141344cd1fd0a4f28419497f9722a3daafe3b4186f6b6457e090600090a350505050565b6000333214806116ca5750601836105b156116d457503390565b7fffffffffffffffffffffffffffffffffffffffffffffffffffffffffffffffec36013560601c7f000000000000000000000000000000000000000000000000000000000000000073ffffffffffffffffffffffffffffffffffffffff163314806117f057506040517f8929a8ca00000000000000000000000000000000000000000000000000000000815273ffffffffffffffffffffffffffffffffffffffff82811660048301523360248301527f00000000000000000000000000000000000000000000000000000000000000001690638929a8ca90604401602060405180830381865afa1580156117cc573d6000803e3d6000fd5b505050506040513d601f19601f820116820180604052508101906117f09190611f21565b156117fa57919050565b3391505090565b366000333214806118125750601836105b156118205750600091369150565b3373ffffffffffffffffffffffffffffffffffffffff7f0000000000000000000000000000000000000000000000000000000000000000161480611955575073ffffffffffffffffffffffffffffffffffffffff7f000000000000000000000000000000000000000000000000000000000000000016638929a8ca367fffffffffffffffffffffffffffffffffffffffffffffffffffffffffffffffec013560601c6040517fffffffff0000000000000000000000000000000000000000000000000000000060e084901b16815273ffffffffffffffffffffffffffffffffffffffff9091166004820152336024820152604401602060405180830381865afa158015611931573d6000803e3d6000fd5b505050506040513d601f19601f820116820180604052508101906119559190611f21565b15611962576106036119b0565b50600091369150565b60008082516041036119a15760208301516040840151606085015160001a611995878285856119e1565b945094505050506119a9565b506000905060025b9250929050565b3660006106037fffffffffffffffffffffffffffffffffffffffffffffffffffffffffffffffec8301828481611f43565b6000807f7fffffffffffffffffffffffffffffff5d576e7357a4501ddfe92f46681b20a0831115611a185750600090506003611ac7565b6040805160008082526020820180845289905260ff881692820192909252606081018690526080810185905260019060a0016020604051602081039080840390855afa158015611a6c573d6000803e3d6000fd5b50506040517fffffffffffffffffffffffffffffffffffffffffffffffffffffffffffffffe0015191505073ffffffffffffffffffffffffffffffffffffffff8116611ac057600060019250925050611ac7565b9150600090505b94509492505050565b600060208284031215611ae257600080fd5b81357fffffffff0000000000000000000000000000000000000000000000000000000081168114610aaf57600080fd5b803573ffffffffffffffffffffffffffffffffffffffff81168114611b3657600080fd5b919050565b600080600060608486031215611b5057600080fd5b611b5984611b12565b95602085013595506040909401359392505050565b600060208284031215611b8057600080fd5b610aaf82611b12565b60008060408385031215611b9c57600080fd5b82359150611bac60208401611b12565b90509250929050565b60208152816020820152818360408301376000818301604090810191909152601f9092017fffffffffffffffffffffffffffffffffffffffffffffffffffffffffffffffe0160101919050565b600080600080600080600080610100898b031215611c1f57600080fd5b611c2889611b12565b9750602089013596506040890135955060608901359450611c4b60808a01611b12565b935060a089013560ff81168114611c6157600080fd5b979a969950949793969295929450505060c08201359160e0013590565b60008060208385031215611c9157600080fd5b823567ffffffffffffffff80821115611ca957600080fd5b818501915085601f830112611cbd57600080fd5b813581811115611ccc57600080fd5b8660208260051b8501011115611ce157600080fd5b60209290920196919550909350505050565b600060208284031215611d0557600080fd5b5035919050565b600080600080600060a08688031215611d2457600080fd5b611d2d86611b12565b9450611d3b60208701611b12565b94979496505050506040830135926060810135926080909101359150565b60008060408385031215611d6c57600080fd5b50508035926020909101359150565b7f4e487b7100000000000000000000000000000000000000000000000000000000600052601160045260246000fd5b8082018082111561045f5761045f611d7b565b7f4e487b7100000000000000000000000000000000000000000000000000000000600052603260045260246000fd5b60007f07ffffffffffffffffffffffffffffffffffffffffffffffffffffffffffffff831115611e1b57600080fd5b8260051b80858437919091019392505050565b8181038181111561045f5761045f611d7b565b7f4e487b7100000000000000000000000000000000000000000000000000000000600052602160045260246000fd5b60005b83811015611e8b578181015183820152602001611e73565b50506000910152565b8281526040602082015260008251806040840152611eb9816060850160208701611e70565b601f017fffffffffffffffffffffffffffffffffffffffffffffffffffffffffffffffe016919091016060019392505050565b60008251611efe818460208701611e70565b9190910192915050565b600060208284031215611f1a57600080fd5b5051919050565b600060208284031215611f3357600080fd5b81518015158114610aaf57600080fd5b60008085851115611f5357600080fd5b83861115611f6057600080fd5b505082019391909203915056fea26469706673582212202798eb0b3b0047f35ed71d629a58769c078070c37d96924e5cf74cb11c65e5c264736f6c63430008160033",
  "linkReferences": {},
  "deployedLinkReferences": {}
}