{
  "_format": "hh-sol-artifact-1",
  "contractName": "PointsMock",
  "sourceName": "contracts/mocks/points/PointsMock.sol",
  "abi": [
    {
      "inputs": [
        {
          "internalType": "contract IForwarderRegistry",
          "name": "forwarderRegistry_",
          "type": "address"
        }
      ],
      "stateMutability": "nonpayable",
      "type": "constructor"
    },
    {
      "inputs": [
        {
          "internalType": "bytes32",
          "name": "reasonCode",
          "type": "bytes32"
        }
      ],
      "name": "ConsumeReasonCodeAlreadyExists",
      "type": "error"
    },
    {
      "inputs": [
        {
          "internalType": "bytes32",
          "name": "reasonCode",
          "type": "bytes32"
        }
      ],
      "name": "ConsumeReasonCodeDoesNotExist",
      "type": "error"
    },
    {
      "inputs": [],
      "name": "ConsumeReasonCodesArrayEmpty",
      "type": "error"
    },
    {
      "inputs": [],
      "name": "DepositZeroAmount",
      "type": "error"
    },
    {
      "inputs": [],
      "name": "ExpiredSignature",
      "type": "error"
    },
    {
      "inputs": [],
      "name": "IllegalInterfaceId",
      "type": "error"
    },
    {
      "inputs": [
        {
          "internalType": "address",
          "name": "holder",
          "type": "address"
        },
        {
          "internalType": "uint256",
          "name": "requiredBalance",
          "type": "uint256"
        }
      ],
      "name": "InsufficientBalance",
      "type": "error"
    },
    {
      "inputs": [],
      "name": "InvalidForwarderRegistry",
      "type": "error"
    },
    {
      "inputs": [],
      "name": "InvalidSignature",
      "type": "error"
    },
    {
      "inputs": [
        {
          "internalType": "address",
          "name": "account",
          "type": "address"
        }
      ],
      "name": "NotContractOwner",
      "type": "error"
    },
    {
      "inputs": [
        {
          "internalType": "bytes32",
          "name": "role",
          "type": "bytes32"
        },
        {
          "internalType": "address",
          "name": "account",
          "type": "address"
        }
      ],
      "name": "NotRoleHolder",
      "type": "error"
    },
    {
      "anonymous": false,
      "inputs": [
        {
          "indexed": true,
          "internalType": "bytes32[]",
          "name": "reasonCodes",
          "type": "bytes32[]"
        }
      ],
      "name": "ConsumeReasonCodesAdded",
      "type": "event"
    },
    {
      "anonymous": false,
      "inputs": [
        {
          "indexed": true,
          "internalType": "bytes32[]",
          "name": "reasonCodes",
          "type": "bytes32[]"
        }
      ],
      "name": "ConsumeReasonCodesRemoved",
      "type": "event"
    },
    {
      "anonymous": false,
      "inputs": [
        {
          "indexed": true,
          "internalType": "address",
          "name": "operator",
          "type": "address"
        },
        {
          "indexed": true,
          "internalType": "bytes32",
          "name": "reasonCode",
          "type": "bytes32"
        },
        {
          "indexed": true,
          "internalType": "address",
          "name": "holder",
          "type": "address"
        },
        {
          "indexed": false,
          "internalType": "uint256",
          "name": "amount",
          "type": "uint256"
        }
      ],
      "name": "Consumed",
      "type": "event"
    },
    {
      "anonymous": false,
      "inputs": [
        {
          "indexed": true,
          "internalType": "address",
          "name": "sender",
          "type": "address"
        },
        {
          "indexed": true,
          "internalType": "bytes32",
          "name": "reasonCode",
          "type": "bytes32"
        },
        {
          "indexed": true,
          "internalType": "address",
          "name": "holder",
          "type": "address"
        },
        {
          "indexed": false,
          "internalType": "uint256",
          "name": "amount",
          "type": "uint256"
        }
      ],
      "name": "Deposited",
      "type": "event"
    },
    {
      "anonymous": false,
      "inputs": [
        {
          "indexed": true,
          "internalType": "address",
          "name": "previousOwner",
          "type": "address"
        },
        {
          "indexed": true,
          "internalType": "address",
          "name": "newOwner",
          "type": "address"
        }
      ],
      "name": "OwnershipTransferred",
      "type": "event"
    },
    {
      "anonymous": false,
      "inputs": [
        {
          "indexed": false,
          "internalType": "bytes32",
          "name": "role",
          "type": "bytes32"
        },
        {
          "indexed": false,
          "internalType": "address",
          "name": "account",
          "type": "address"
        },
        {
          "indexed": false,
          "internalType": "address",
          "name": "operator",
          "type": "address"
        }
      ],
      "name": "RoleGranted",
      "type": "event"
    },
    {
      "anonymous": false,
      "inputs": [
        {
          "indexed": false,
          "internalType": "bytes32",
          "name": "role",
          "type": "bytes32"
        },
        {
          "indexed": false,
          "internalType": "address",
          "name": "account",
          "type": "address"
        },
        {
          "indexed": false,
          "internalType": "address",
          "name": "operator",
          "type": "address"
        }
      ],
      "name": "RoleRevoked",
      "type": "event"
    },
    {
      "inputs": [],
      "name": "ADMIN_ROLE",
      "outputs": [
        {
          "internalType": "bytes32",
          "name": "",
          "type": "bytes32"
        }
      ],
      "stateMutability": "view",
      "type": "function"
    },
    {
      "inputs": [],
      "name": "DEPOSITOR_ROLE",
      "outputs": [
        {
          "internalType": "bytes32",
          "name": "",
          "type": "bytes32"
        }
      ],
      "stateMutability": "view",
      "type": "function"
    },
    {
      "inputs": [],
      "name": "DOMAIN_SEPARATOR",
      "outputs": [
        {
          "internalType": "bytes32",
          "name": "domainSeparator",
          "type": "bytes32"
        }
      ],
      "stateMutability": "view",
      "type": "function"
    },
    {
      "inputs": [],
      "name": "SPENDER_ROLE",
      "outputs": [
        {
          "internalType": "bytes32",
          "name": "",
          "type": "bytes32"
        }
      ],
      "stateMutability": "view",
      "type": "function"
    },
    {
      "inputs": [],
      "name": "__msgData",
      "outputs": [
        {
          "internalType": "bytes",
          "name": "",
          "type": "bytes"
        }
      ],
      "stateMutability": "view",
      "type": "function"
    },
    {
      "inputs": [],
      "name": "__msgSender",
      "outputs": [
        {
          "internalType": "address",
          "name": "",
          "type": "address"
        }
      ],
      "stateMutability": "view",
      "type": "function"
    },
    {
      "inputs": [
        {
          "internalType": "bytes32[]",
          "name": "reasonCodes",
          "type": "bytes32[]"
        }
      ],
      "name": "addConsumeReasonCodes",
      "outputs": [],
      "stateMutability": "nonpayable",
      "type": "function"
    },
    {
      "inputs": [
        {
          "internalType": "bytes32",
          "name": "",
          "type": "bytes32"
        }
      ],
      "name": "allowedConsumeReasonCodes",
      "outputs": [
        {
          "internalType": "bool",
          "name": "",
          "type": "bool"
        }
      ],
      "stateMutability": "view",
      "type": "function"
    },
    {
      "inputs": [
        {
          "internalType": "address",
          "name": "",
          "type": "address"
        }
      ],
      "name": "balances",
      "outputs": [
        {
          "internalType": "uint256",
          "name": "",
          "type": "uint256"
        }
      ],
      "stateMutability": "view",
      "type": "function"
    },
    {
      "inputs": [
        {
          "internalType": "address",
          "name": "holder",
          "type": "address"
        },
        {
          "internalType": "uint256",
          "name": "amount",
          "type": "uint256"
        },
        {
          "internalType": "bytes32",
          "name": "consumeReasonCode",
          "type": "bytes32"
        }
      ],
      "name": "consume",
      "outputs": [],
      "stateMutability": "nonpayable",
      "type": "function"
    },
    {
      "inputs": [
        {
          "internalType": "uint256",
          "name": "amount",
          "type": "uint256"
        },
        {
          "internalType": "bytes32",
          "name": "consumeReasonCode",
          "type": "bytes32"
        }
      ],
      "name": "consume",
      "outputs": [],
      "stateMutability": "nonpayable",
      "type": "function"
    },
    {
      "inputs": [
        {
          "internalType": "address",
          "name": "holder",
          "type": "address"
        },
        {
          "internalType": "uint256",
          "name": "amount",
          "type": "uint256"
        },
        {
          "internalType": "bytes32",
          "name": "consumeReasonCode",
          "type": "bytes32"
        },
        {
          "internalType": "uint256",
          "name": "deadline",
          "type": "uint256"
        },
        {
          "internalType": "uint8",
          "name": "v",
          "type": "uint8"
        },
        {
          "internalType": "bytes32",
          "name": "r",
          "type": "bytes32"
        },
        {
          "internalType": "bytes32",
          "name": "s",
          "type": "bytes32"
        }
      ],
      "name": "consume",
      "outputs": [],
      "stateMutability": "nonpayable",
      "type": "function"
    },
    {
      "inputs": [
        {
          "internalType": "address",
          "name": "holder",
          "type": "address"
        },
        {
          "internalType": "uint256",
          "name": "amount",
          "type": "uint256"
        },
        {
          "internalType": "bytes32",
          "name": "depositReasonCode",
          "type": "bytes32"
        }
      ],
      "name": "deposit",
      "outputs": [],
      "stateMutability": "nonpayable",
      "type": "function"
    },
    {
      "inputs": [],
      "name": "forwarderRegistry",
      "outputs": [
        {
          "internalType": "contract IForwarderRegistry",
          "name": "",
          "type": "address"
        }
      ],
      "stateMutability": "view",
      "type": "function"
    },
    {
      "inputs": [
        {
          "internalType": "bytes32",
          "name": "role",
          "type": "bytes32"
        },
        {
          "internalType": "address",
          "name": "account",
          "type": "address"
        }
      ],
      "name": "grantRole",
      "outputs": [],
      "stateMutability": "nonpayable",
      "type": "function"
    },
    {
      "inputs": [
        {
          "internalType": "bytes32",
          "name": "role",
          "type": "bytes32"
        },
        {
          "internalType": "address",
          "name": "account",
          "type": "address"
        }
      ],
      "name": "hasRole",
      "outputs": [
        {
          "internalType": "bool",
          "name": "hasRole_",
          "type": "bool"
        }
      ],
      "stateMutability": "view",
      "type": "function"
    },
    {
      "inputs": [
        {
          "internalType": "address",
          "name": "forwarder",
          "type": "address"
        }
      ],
      "name": "isTrustedForwarder",
      "outputs": [
        {
          "internalType": "bool",
          "name": "",
          "type": "bool"
        }
      ],
      "stateMutability": "view",
      "type": "function"
    },
    {
      "inputs": [
        {
          "internalType": "bytes32",
          "name": "",
          "type": "bytes32"
        }
      ],
      "name": "nonces",
      "outputs": [
        {
          "internalType": "uint256",
          "name": "",
          "type": "uint256"
        }
      ],
      "stateMutability": "view",
      "type": "function"
    },
    {
      "inputs": [],
      "name": "owner",
      "outputs": [
        {
          "internalType": "address",
          "name": "",
          "type": "address"
        }
      ],
      "stateMutability": "view",
      "type": "function"
    },
    {
      "inputs": [
        {
          "internalType": "bytes32[]",
          "name": "reasonCodes",
          "type": "bytes32[]"
        }
      ],
      "name": "removeConsumeReasonCodes",
      "outputs": [],
      "stateMutability": "nonpayable",
      "type": "function"
    },
    {
      "inputs": [
        {
          "internalType": "bytes32",
          "name": "role",
          "type": "bytes32"
        }
      ],
      "name": "renounceRole",
      "outputs": [],
      "stateMutability": "nonpayable",
      "type": "function"
    },
    {
      "inputs": [
        {
          "internalType": "bytes32",
          "name": "role",
          "type": "bytes32"
        },
        {
          "internalType": "address",
          "name": "account",
          "type": "address"
        }
      ],
      "name": "revokeRole",
      "outputs": [],
      "stateMutability": "nonpayable",
      "type": "function"
    },
    {
      "inputs": [
        {
          "internalType": "bytes4",
          "name": "interfaceId",
          "type": "bytes4"
        }
      ],
      "name": "supportsInterface",
      "outputs": [
        {
          "internalType": "bool",
          "name": "",
          "type": "bool"
        }
      ],
      "stateMutability": "view",
      "type": "function"
    },
    {
      "inputs": [
        {
          "internalType": "address",
          "name": "newOwner",
          "type": "address"
        }
      ],
      "name": "transferOwnership",
      "outputs": [],
      "stateMutability": "nonpayable",
      "type": "function"
    }
  ],
  "bytecode": "0x6101606040523480156200001257600080fd5b50604051620023b1380380620023b1833981016040819052620000359162000390565b8060405180604001604052806006815260200165506f696e747360d01b815250604051806040016040528060038152602001620312e360ec1b8152508280620000836200017d60201b60201c565b6200009981620000926200018e565b90620001c4565b506001600160a01b03166080525081516020808401919091208251918301919091206101008290526101208190524660c0527f8b73c3c69bb8fe3d512ecc4cf759cc79239f7b179b0ffacaa9a75d522b39400f6200013c8184846040805160208101859052908101839052606081018290524660808201523060a082015260009060c0016040516020818303038152906040528051906020012090509392505050565b60a0523060e052610140525050506001600160a01b03821690506200017457604051633545ba1f60e21b815260040160405180910390fd5b50620004089050565b6000620001896200023f565b905090565b600080620001be60017fc9ed16f33ab3a66c84bfd83099ccb2a8845871e2e1c1928f63797152f0fd54cd620003c2565b92915050565b6001600160a01b038116156200021b5781546001600160a01b0319166001600160a01b03821690811783556040516000907f8be0079c531659141344cd1fd0a4f28419497f9722a3daafe3b4186f6b6457e0908290a35b6200023b6307f5828d60e41b60016200023362000303565b919062000333565b5050565b600033321480620002505750601836105b156200025b57503390565b60805136601319013560601c906001600160a01b0316331480620002f15750608051604051634494d46560e11b81526001600160a01b03838116600483015233602483015290911690638929a8ca90604401602060405180830381865afa158015620002cb573d6000803e3d6000fd5b505050506040513d601f19601f82011682018060405250810190620002f19190620003e4565b15620002fc57919050565b3391505090565b600080620001be60017fca9d3e17f264b0f3984e2634e94adb37fa3e6a8103f06aeae6fa59e21c769f5e620003c2565b600160e01b6001600160e01b031983160162000362576040516372c683bb60e01b815260040160405180910390fd5b6001600160e01b03199190911660009081526020929092526040909120805460ff1916911515919091179055565b600060208284031215620003a357600080fd5b81516001600160a01b0381168114620003bb57600080fd5b9392505050565b81810381811115620001be57634e487b7160e01b600052601160045260246000fd5b600060208284031215620003f757600080fd5b81518015158114620003bb57600080fd5b60805160a05160c05160e051610100516101205161014051611f2b6200048660003960006111f1015260006112400152600061121b015260006111740152600061119e015260006111c801526000818161021d015281816102a3015281816115e0015281816116680152818161171b01526117590152611f2b6000f3fe608060405234801561001057600080fd5b50600436106101985760003560e01c80638bb9c5bf116100e3578063d547741f1161008c578063f374913c11610066578063f374913c146103f7578063f65f02ec1461040a578063f95159621461041d57600080fd5b8063d547741f146103be578063e283bfbf146103d1578063f2fde38b146103e457600080fd5b80639e317f12116100bd5780639e317f121461036f578063a3b0b5a31461038f578063d1a91ff2146103b657600080fd5b80638bb9c5bf146103415780638da5cb5b1461035457806391d148541461035c57600080fd5b806331e66e1e1161014557806372c16a241161011f57806372c16a24146102e05780637308a1281461030757806375b238fc1461031a57600080fd5b806331e66e1e146102755780633644e5151461028b578063572b6c051461029357600080fd5b806327e235e31161017657806327e235e3146101ed5780632b4c9f161461021b5780632f2ff15d1461026257600080fd5b806301ffc9a71461019d578063212aac79146101c557806326b3293f146101da575b600080fd5b6101b06101ab366004611b66565b610440565b60405190151581526020015b60405180910390f35b6101d86101d3366004611bd1565b61045a565b005b6101d86101e8366004611bd1565b6104ac565b61020d6101fb366004611c04565b60006020819052908152604090205481565b6040519081526020016101bc565b7f00000000000000000000000000000000000000000000000000000000000000005b60405173ffffffffffffffffffffffffffffffffffffffff90911681526020016101bc565b6101d8610270366004611c1f565b6105c9565b61027d610602565b6040516101bc929190611c4b565b61020d610615565b6101b06102a1366004611c04565b7f000000000000000000000000000000000000000000000000000000000000000073ffffffffffffffffffffffffffffffffffffffff90811691161490565b61020d7f7434c6f201a551bfd17336985361933e0c4935b520dac8a49d937b325f7d5c0a81565b6101d8610315366004611c98565b610624565b61020d7fa49807205ce4d355092ef5a8a18f56e8913cf4a201fbe287825b095693c2177581565b6101d861034f366004611d0d565b6107d8565b61023d6107f6565b6101b061036a366004611c1f565b61081d565b61020d61037d366004611d0d565b60016020526000908152604090205481565b61020d7f8f4f2da22e8ac8f11e15f9fc141cddbb5deea8800186560abb6e68c5496619a981565b61023d610868565b6101d86103cc366004611c1f565b610872565b6101d86103df366004611d26565b6108a0565b6101d86103f2366004611c04565b6108b8565b6101d8610405366004611c98565b6108d3565b6101d8610418366004611d48565b610a6c565b6101b061042b366004611d0d565b60026020526000908152604090205460ff1681565b60006104548261044e610cd9565b90610d07565b92915050565b6000610464610de1565b905061049a7f7434c6f201a551bfd17336985361933e0c4935b520dac8a49d937b325f7d5c0a82610493610deb565b9190610e19565b6104a681858585610e9f565b50505050565b60006104b6610de1565b90506104e57f8f4f2da22e8ac8f11e15f9fc141cddbb5deea8800186560abb6e68c5496619a982610493610deb565b8260000361051f576040517f8b07335400000000000000000000000000000000000000000000000000000000815260040160405180910390fd5b73ffffffffffffffffffffffffffffffffffffffff841660009081526020819052604081208054859290610554908490611de3565b925050819055508373ffffffffffffffffffffffffffffffffffffffff16828273ffffffffffffffffffffffffffffffffffffffff167f81226022599698f02239ac5895ce7a96962ba5fe72f8f7610d1cc2cb0405f391866040516105bb91815260200190565b60405180910390a450505050565b60006105d3610de1565b90506105e7816105e1610fdc565b9061100a565b6105fd8383836105f5610deb565b929190611079565b505050565b36600061060d61114f565b915091509091565b600061061f61115a565b905090565b6106587fa49807205ce4d355092ef5a8a18f56e8913cf4a201fbe287825b095693c21775610650610de1565b610493610deb565b6000819003610693576040517f3fb4608600000000000000000000000000000000000000000000000000000000815260040160405180910390fd5b60005b8181101561079357600260008484848181106106b4576106b4611df6565b602090810292909201358352508101919091526040016000205460ff161561072d578282828181106106e8576106e8611df6565b905060200201356040517fb642124200000000000000000000000000000000000000000000000000000000815260040161072491815260200190565b60405180910390fd5b60016002600085858581811061074557610745611df6565b6020908102929092013583525081019190915260400160002080547fffffffffffffffffffffffffffffffffffffffffffffffffffffffffffffff0016911515919091179055600101610696565b5081816040516107a4929190611e25565b604051908190038120907fab25d781d5ddfd48b7ce16c5048ddf0ee9caece5921f772cfacfd1085b6f5f1b90600090a25050565b6107f36107e3610de1565b826107ec610deb565b919061128e565b50565b600061061f610803610fdc565b5473ffffffffffffffffffffffffffffffffffffffff1690565b6000610861838361082c610deb565b60009283526020908152604080842073ffffffffffffffffffffffffffffffffffffffff909316845291905290205460ff1690565b9392505050565b600061061f610de1565b600061087c610de1565b905061088a816105e1610fdc565b6105fd838383610898610deb565b929190611332565b60006108aa610de1565b90506105fd81828585610e9f565b6107f36108c3610de1565b826108cc610fdc565b91906113fc565b6108ff7fa49807205ce4d355092ef5a8a18f56e8913cf4a201fbe287825b095693c21775610650610de1565b600081900361093a576040517f3fb4608600000000000000000000000000000000000000000000000000000000815260040160405180910390fd5b60005b81811015610a27576002600084848481811061095b5761095b611df6565b602090810292909201358352508101919091526040016000205460ff166109ca5782828281811061098e5761098e611df6565b905060200201356040517fa89513e100000000000000000000000000000000000000000000000000000000815260040161072491815260200190565b600260008484848181106109e0576109e0611df6565b6020908102929092013583525081019190915260400160002080547fffffffffffffffffffffffffffffffffffffffffffffffffffffffffffffff0016905560010161093d565b508181604051610a38929190611e25565b604051908190038120907f507a827ea9c046f50d345ab3118c004750ae36a4dd38998391315aee8be45b9590600090a25050565b83421115610aa6576040517fdf4cc36d00000000000000000000000000000000000000000000000000000000815260040160405180910390fd5b6000610ab0610de1565b6040517fffffffffffffffffffffffffffffffffffffffff00000000000000000000000060608b811b8216602084015283901b166034820152909150600090604801604080518083037fffffffffffffffffffffffffffffffffffffffffffffffffffffffffffffffe00181528282528051602091820120600081815260018352838120549285018990529284018790527fff0000000000000000000000000000000000000000000000000000000000000060f88a901b166060850152935091606101604080517fffffffffffffffffffffffffffffffffffffffffffffffffffffffffffffffe08184030181528282527fa722027359a4245f54723b40c893d0e406c2a361b220451e03f9bd03c41883df602084015273ffffffffffffffffffffffffffffffffffffffff808f16928401929092529086166060830152608082018c905260a082018b905260c082018a905260e082018490529150600090610c32906101000160405160208183030381529060405280519060200120611510565b905073ffffffffffffffffffffffffffffffffffffffff8c16610c558284611579565b73ffffffffffffffffffffffffffffffffffffffff1614610ca2576040517f8baa579f00000000000000000000000000000000000000000000000000000000815260040160405180910390fd5b610cae858d8d8d610e9f565b610cb9836001611de3565b600094855260016020526040909420939093555050505050505050505050565b60008061045460017fca9d3e17f264b0f3984e2634e94adb37fa3e6a8103f06aeae6fa59e21c769f5e611e67565b60007c01000000000000000000000000000000000000000000000000000000007fffffffff00000000000000000000000000000000000000000000000000000000831601610d5757506000610454565b7ffe003659000000000000000000000000000000000000000000000000000000007fffffffff00000000000000000000000000000000000000000000000000000000831601610da857506001610454565b507fffffffff00000000000000000000000000000000000000000000000000000000166000908152602091909152604090205460ff1690565b600061061f61159d565b60008061045460017fc8827d3282af6f37b64c3e9e6f3ac9df286ab0bb0fccd6f8661bf19adb368b23611e67565b60008281526020848152604080832073ffffffffffffffffffffffffffffffffffffffff8516845290915290205460ff166105fd576040517f7aa728820000000000000000000000000000000000000000000000000000000081526004810183905273ffffffffffffffffffffffffffffffffffffffff82166024820152604401610724565b73ffffffffffffffffffffffffffffffffffffffff831660009081526020819052604090205482811015610f1e576040517ff6deaa0400000000000000000000000000000000000000000000000000000000815273ffffffffffffffffffffffffffffffffffffffff8516600482015260248101849052604401610724565b60008281526002602052604090205460ff16610f69576040517fa89513e100000000000000000000000000000000000000000000000000000000815260048101839052602401610724565b610f738382611e67565b73ffffffffffffffffffffffffffffffffffffffff858116600081815260208181526040918290209490945551868152909285928916917f483f7fdbc58a2920f2e502b1bbbb896329d7c8ddca129d0875d589e895186857910160405180910390a45050505050565b60008061045460017fc9ed16f33ab3a66c84bfd83099ccb2a8845871e2e1c1928f63797152f0fd54cd611e67565b815473ffffffffffffffffffffffffffffffffffffffff828116911614611075576040517f2ef4875e00000000000000000000000000000000000000000000000000000000815273ffffffffffffffffffffffffffffffffffffffff82166004820152602401610724565b5050565b60008381526020858152604080832073ffffffffffffffffffffffffffffffffffffffff8616845290915290205460ff166104a65760008381526020858152604080832073ffffffffffffffffffffffffffffffffffffffff8681168086529184529382902080547fffffffffffffffffffffffffffffffffffffffffffffffffffffffffffffff00166001179055815187815292830152918316918101919091527f2f8788117e7eff1d82e926ec794901d17c78024a50270940304540a733656f0d906060015b60405180910390a150505050565b36600061060d6116e4565b60003073ffffffffffffffffffffffffffffffffffffffff7f0000000000000000000000000000000000000000000000000000000000000000161480156111c057507f000000000000000000000000000000000000000000000000000000000000000046145b156111ea57507f000000000000000000000000000000000000000000000000000000000000000090565b50604080517f00000000000000000000000000000000000000000000000000000000000000006020808301919091527f0000000000000000000000000000000000000000000000000000000000000000828401527f000000000000000000000000000000000000000000000000000000000000000060608301524660808301523060a0808401919091528351808403909101815260c0909201909252805191012090565b611299838284610e19565b60008181526020848152604080832073ffffffffffffffffffffffffffffffffffffffff86168085529083529281902080547fffffffffffffffffffffffffffffffffffffffffffffffffffffffffffffff0016905580518481529182018390528101919091527ff6391f5c32d9c69d2a47ea670b442974b53935d1edc7fd64eb21e047a839171b9060600160405180910390a1505050565b60008381526020858152604080832073ffffffffffffffffffffffffffffffffffffffff8616845290915290205460ff16156104a65760008381526020858152604080832073ffffffffffffffffffffffffffffffffffffffff8681168086529184529382902080547fffffffffffffffffffffffffffffffffffffffffffffffffffffffffffffff00169055815187815292830152918316918101919091527ff6391f5c32d9c69d2a47ea670b442974b53935d1edc7fd64eb21e047a839171b90606001611141565b825473ffffffffffffffffffffffffffffffffffffffff9081169083168114611469576040517f2ef4875e00000000000000000000000000000000000000000000000000000000815273ffffffffffffffffffffffffffffffffffffffff84166004820152602401610724565b8173ffffffffffffffffffffffffffffffffffffffff168173ffffffffffffffffffffffffffffffffffffffff16146104a65783547fffffffffffffffffffffffff00000000000000000000000000000000000000001673ffffffffffffffffffffffffffffffffffffffff8381169182178655604051908316907f8be0079c531659141344cd1fd0a4f28419497f9722a3daafe3b4186f6b6457e090600090a350505050565b600061045461151d61115a565b836040517f19010000000000000000000000000000000000000000000000000000000000006020820152602281018390526042810182905260009060620160405160208183030381529060405280519060200120905092915050565b6000806000611588858561184e565b9150915061159581611893565b509392505050565b6000333214806115ad5750601836105b156115b757503390565b7fffffffffffffffffffffffffffffffffffffffffffffffffffffffffffffffec36013560601c7f000000000000000000000000000000000000000000000000000000000000000073ffffffffffffffffffffffffffffffffffffffff163314806116d357506040517f8929a8ca00000000000000000000000000000000000000000000000000000000815273ffffffffffffffffffffffffffffffffffffffff82811660048301523360248301527f00000000000000000000000000000000000000000000000000000000000000001690638929a8ca90604401602060405180830381865afa1580156116af573d6000803e3d6000fd5b505050506040513d601f19601f820116820180604052508101906116d39190611e7a565b156116dd57919050565b3391505090565b366000333214806116f55750601836105b156117035750600091369150565b3373ffffffffffffffffffffffffffffffffffffffff7f0000000000000000000000000000000000000000000000000000000000000000161480611838575073ffffffffffffffffffffffffffffffffffffffff7f000000000000000000000000000000000000000000000000000000000000000016638929a8ca367fffffffffffffffffffffffffffffffffffffffffffffffffffffffffffffffec013560601c6040517fffffffff0000000000000000000000000000000000000000000000000000000060e084901b16815273ffffffffffffffffffffffffffffffffffffffff9091166004820152336024820152604401602060405180830381865afa158015611814573d6000803e3d6000fd5b505050506040513d601f19601f820116820180604052508101906118389190611e7a565b156118455761060d611a46565b50600091369150565b60008082516041036118845760208301516040840151606085015160001a61187887828585611a77565b9450945050505061188c565b506000905060025b9250929050565b60008160048111156118a7576118a7611e9c565b036118af5750565b60018160048111156118c3576118c3611e9c565b0361192a576040517f08c379a000000000000000000000000000000000000000000000000000000000815260206004820152601860248201527f45434453413a20696e76616c6964207369676e617475726500000000000000006044820152606401610724565b600281600481111561193e5761193e611e9c565b036119a5576040517f08c379a000000000000000000000000000000000000000000000000000000000815260206004820152601f60248201527f45434453413a20696e76616c6964207369676e6174757265206c656e677468006044820152606401610724565b60038160048111156119b9576119b9611e9c565b036107f3576040517f08c379a000000000000000000000000000000000000000000000000000000000815260206004820152602260248201527f45434453413a20696e76616c6964207369676e6174757265202773272076616c60448201527f75650000000000000000000000000000000000000000000000000000000000006064820152608401610724565b36600061060d7fffffffffffffffffffffffffffffffffffffffffffffffffffffffffffffffec8301828481611ecb565b6000807f7fffffffffffffffffffffffffffffff5d576e7357a4501ddfe92f46681b20a0831115611aae5750600090506003611b5d565b6040805160008082526020820180845289905260ff881692820192909252606081018690526080810185905260019060a0016020604051602081039080840390855afa158015611b02573d6000803e3d6000fd5b50506040517fffffffffffffffffffffffffffffffffffffffffffffffffffffffffffffffe0015191505073ffffffffffffffffffffffffffffffffffffffff8116611b5657600060019250925050611b5d565b9150600090505b94509492505050565b600060208284031215611b7857600080fd5b81357fffffffff000000000000000000000000000000000000000000000000000000008116811461086157600080fd5b803573ffffffffffffffffffffffffffffffffffffffff81168114611bcc57600080fd5b919050565b600080600060608486031215611be657600080fd5b611bef84611ba8565b95602085013595506040909401359392505050565b600060208284031215611c1657600080fd5b61086182611ba8565b60008060408385031215611c3257600080fd5b82359150611c4260208401611ba8565b90509250929050565b60208152816020820152818360408301376000818301604090810191909152601f9092017fffffffffffffffffffffffffffffffffffffffffffffffffffffffffffffffe0160101919050565b60008060208385031215611cab57600080fd5b823567ffffffffffffffff80821115611cc357600080fd5b818501915085601f830112611cd757600080fd5b813581811115611ce657600080fd5b8660208260051b8501011115611cfb57600080fd5b60209290920196919550909350505050565b600060208284031215611d1f57600080fd5b5035919050565b60008060408385031215611d3957600080fd5b50508035926020909101359150565b600080600080600080600060e0888a031215611d6357600080fd5b611d6c88611ba8565b9650602088013595506040880135945060608801359350608088013560ff81168114611d9757600080fd5b9699959850939692959460a0840135945060c09093013592915050565b7f4e487b7100000000000000000000000000000000000000000000000000000000600052601160045260246000fd5b8082018082111561045457610454611db4565b7f4e487b7100000000000000000000000000000000000000000000000000000000600052603260045260246000fd5b60007f07ffffffffffffffffffffffffffffffffffffffffffffffffffffffffffffff831115611e5457600080fd5b8260051b80858437919091019392505050565b8181038181111561045457610454611db4565b600060208284031215611e8c57600080fd5b8151801515811461086157600080fd5b7f4e487b7100000000000000000000000000000000000000000000000000000000600052602160045260246000fd5b60008085851115611edb57600080fd5b83861115611ee857600080fd5b505082019391909203915056fea2646970667358221220f074c5bfbfa74352e343ab7cd94323a096cd2b22b45b14ac3d770f40766f2d9164736f6c63430008160033",
  "linkReferences": {},
  "deployedLinkReferences": {}
}