{
  "_format": "hh-sol-artifact-1",
  "contractName": "PointsMock",
  "sourceName": "contracts/mocks/points/PointsMock.sol",
  "abi": [
    {
      "inputs": [
        {
          "internalType": "contract IForwarderRegistry",
          "name": "forwarderRegistry_",
          "type": "address"
        }
      ],
      "stateMutability": "nonpayable",
      "type": "constructor"
    },
    {
      "inputs": [
        {
          "internalType": "bytes32",
          "name": "reasonCode",
          "type": "bytes32"
        }
      ],
      "name": "ConsumeReasonCodeAlreadyExists",
      "type": "error"
    },
    {
      "inputs": [
        {
          "internalType": "bytes32",
          "name": "reasonCode",
          "type": "bytes32"
        }
      ],
      "name": "ConsumeReasonCodeDoesNotExist",
      "type": "error"
    },
    {
      "inputs": [],
      "name": "ConsumeReasonCodesArrayEmpty",
      "type": "error"
    },
    {
      "inputs": [],
      "name": "DepositZeroAmount",
      "type": "error"
    },
    {
      "inputs": [],
      "name": "ExpiredSignature",
      "type": "error"
    },
    {
      "inputs": [],
      "name": "IllegalInterfaceId",
      "type": "error"
    },
    {
      "inputs": [
        {
          "internalType": "address",
          "name": "holder",
          "type": "address"
        },
        {
          "internalType": "uint256",
          "name": "requiredBalance",
          "type": "uint256"
        }
      ],
      "name": "InsufficientBalance",
      "type": "error"
    },
    {
      "inputs": [],
      "name": "InvalidForwarderRegistry",
      "type": "error"
    },
    {
      "inputs": [],
      "name": "InvalidSignature",
      "type": "error"
    },
    {
      "inputs": [
        {
          "internalType": "address",
          "name": "account",
          "type": "address"
        }
      ],
      "name": "NotContractOwner",
      "type": "error"
    },
    {
      "inputs": [
        {
          "internalType": "bytes32",
          "name": "role",
          "type": "bytes32"
        },
        {
          "internalType": "address",
          "name": "account",
          "type": "address"
        }
      ],
      "name": "NotRoleHolder",
      "type": "error"
    },
    {
      "anonymous": false,
      "inputs": [
        {
          "indexed": true,
          "internalType": "bytes32[]",
          "name": "reasonCodes",
          "type": "bytes32[]"
        }
      ],
      "name": "ConsumeReasonCodesAdded",
      "type": "event"
    },
    {
      "anonymous": false,
      "inputs": [
        {
          "indexed": true,
          "internalType": "bytes32[]",
          "name": "reasonCodes",
          "type": "bytes32[]"
        }
      ],
      "name": "ConsumeReasonCodesRemoved",
      "type": "event"
    },
    {
      "anonymous": false,
      "inputs": [
        {
          "indexed": true,
          "internalType": "address",
          "name": "operator",
          "type": "address"
        },
        {
          "indexed": true,
          "internalType": "bytes32",
          "name": "reasonCode",
          "type": "bytes32"
        },
        {
          "indexed": true,
          "internalType": "address",
          "name": "holder",
          "type": "address"
        },
        {
          "indexed": false,
          "internalType": "uint256",
          "name": "amount",
          "type": "uint256"
        }
      ],
      "name": "Consumed",
      "type": "event"
    },
    {
      "anonymous": false,
      "inputs": [
        {
          "indexed": true,
          "internalType": "address",
          "name": "sender",
          "type": "address"
        },
        {
          "indexed": true,
          "internalType": "bytes32",
          "name": "reasonCode",
          "type": "bytes32"
        },
        {
          "indexed": true,
          "internalType": "address",
          "name": "holder",
          "type": "address"
        },
        {
          "indexed": false,
          "internalType": "uint256",
          "name": "amount",
          "type": "uint256"
        }
      ],
      "name": "Deposited",
      "type": "event"
    },
    {
      "anonymous": false,
      "inputs": [
        {
          "indexed": true,
          "internalType": "address",
          "name": "previousOwner",
          "type": "address"
        },
        {
          "indexed": true,
          "internalType": "address",
          "name": "newOwner",
          "type": "address"
        }
      ],
      "name": "OwnershipTransferred",
      "type": "event"
    },
    {
      "anonymous": false,
      "inputs": [
        {
          "indexed": false,
          "internalType": "bytes32",
          "name": "role",
          "type": "bytes32"
        },
        {
          "indexed": false,
          "internalType": "address",
          "name": "account",
          "type": "address"
        },
        {
          "indexed": false,
          "internalType": "address",
          "name": "operator",
          "type": "address"
        }
      ],
      "name": "RoleGranted",
      "type": "event"
    },
    {
      "anonymous": false,
      "inputs": [
        {
          "indexed": false,
          "internalType": "bytes32",
          "name": "role",
          "type": "bytes32"
        },
        {
          "indexed": false,
          "internalType": "address",
          "name": "account",
          "type": "address"
        },
        {
          "indexed": false,
          "internalType": "address",
          "name": "operator",
          "type": "address"
        }
      ],
      "name": "RoleRevoked",
      "type": "event"
    },
    {
      "inputs": [],
      "name": "ADMIN_ROLE",
      "outputs": [
        {
          "internalType": "bytes32",
          "name": "",
          "type": "bytes32"
        }
      ],
      "stateMutability": "view",
      "type": "function"
    },
    {
      "inputs": [],
      "name": "DEPOSITOR_ROLE",
      "outputs": [
        {
          "internalType": "bytes32",
          "name": "",
          "type": "bytes32"
        }
      ],
      "stateMutability": "view",
      "type": "function"
    },
    {
      "inputs": [],
      "name": "SPENDER_ROLE",
      "outputs": [
        {
          "internalType": "bytes32",
          "name": "",
          "type": "bytes32"
        }
      ],
      "stateMutability": "view",
      "type": "function"
    },
    {
      "inputs": [],
      "name": "__msgData",
      "outputs": [
        {
          "internalType": "bytes",
          "name": "",
          "type": "bytes"
        }
      ],
      "stateMutability": "view",
      "type": "function"
    },
    {
      "inputs": [],
      "name": "__msgSender",
      "outputs": [
        {
          "internalType": "address",
          "name": "",
          "type": "address"
        }
      ],
      "stateMutability": "view",
      "type": "function"
    },
    {
      "inputs": [
        {
          "internalType": "bytes32[]",
          "name": "reasonCodes",
          "type": "bytes32[]"
        }
      ],
      "name": "addConsumeReasonCodes",
      "outputs": [],
      "stateMutability": "nonpayable",
      "type": "function"
    },
    {
      "inputs": [
        {
          "internalType": "bytes32",
          "name": "",
          "type": "bytes32"
        }
      ],
      "name": "allowedConsumeReasonCodes",
      "outputs": [
        {
          "internalType": "bool",
          "name": "",
          "type": "bool"
        }
      ],
      "stateMutability": "view",
      "type": "function"
    },
    {
      "inputs": [
        {
          "internalType": "address",
          "name": "",
          "type": "address"
        }
      ],
      "name": "balances",
      "outputs": [
        {
          "internalType": "uint256",
          "name": "",
          "type": "uint256"
        }
      ],
      "stateMutability": "view",
      "type": "function"
    },
    {
      "inputs": [
        {
          "internalType": "address",
          "name": "holder",
          "type": "address"
        },
        {
          "internalType": "uint256",
          "name": "amount",
          "type": "uint256"
        },
        {
          "internalType": "bytes32",
          "name": "consumeReasonCode",
          "type": "bytes32"
        }
      ],
      "name": "consume",
      "outputs": [],
      "stateMutability": "nonpayable",
      "type": "function"
    },
    {
      "inputs": [
        {
          "internalType": "uint256",
          "name": "amount",
          "type": "uint256"
        },
        {
          "internalType": "bytes32",
          "name": "consumeReasonCode",
          "type": "bytes32"
        }
      ],
      "name": "consume",
      "outputs": [],
      "stateMutability": "nonpayable",
      "type": "function"
    },
    {
      "inputs": [
        {
          "internalType": "address",
          "name": "holder",
          "type": "address"
        },
        {
          "internalType": "uint256",
          "name": "amount",
          "type": "uint256"
        },
        {
          "internalType": "bytes32",
          "name": "consumeReasonCode",
          "type": "bytes32"
        },
        {
          "internalType": "uint256",
          "name": "deadline",
          "type": "uint256"
        },
        {
          "internalType": "uint8",
          "name": "v",
          "type": "uint8"
        },
        {
          "internalType": "bytes32",
          "name": "r",
          "type": "bytes32"
        },
        {
          "internalType": "bytes32",
          "name": "s",
          "type": "bytes32"
        }
      ],
      "name": "consume",
      "outputs": [],
      "stateMutability": "nonpayable",
      "type": "function"
    },
    {
      "inputs": [
        {
          "internalType": "address",
          "name": "holder",
          "type": "address"
        },
        {
          "internalType": "uint256",
          "name": "amount",
          "type": "uint256"
        },
        {
          "internalType": "bytes32",
          "name": "depositReasonCode",
          "type": "bytes32"
        }
      ],
      "name": "deposit",
      "outputs": [],
      "stateMutability": "nonpayable",
      "type": "function"
    },
    {
      "inputs": [],
      "name": "forwarderRegistry",
      "outputs": [
        {
          "internalType": "contract IForwarderRegistry",
          "name": "",
          "type": "address"
        }
      ],
      "stateMutability": "view",
      "type": "function"
    },
    {
      "inputs": [
        {
          "internalType": "bytes32",
          "name": "role",
          "type": "bytes32"
        },
        {
          "internalType": "address",
          "name": "account",
          "type": "address"
        }
      ],
      "name": "grantRole",
      "outputs": [],
      "stateMutability": "nonpayable",
      "type": "function"
    },
    {
      "inputs": [
        {
          "internalType": "bytes32",
          "name": "role",
          "type": "bytes32"
        },
        {
          "internalType": "address",
          "name": "account",
          "type": "address"
        }
      ],
      "name": "hasRole",
      "outputs": [
        {
          "internalType": "bool",
          "name": "hasRole_",
          "type": "bool"
        }
      ],
      "stateMutability": "view",
      "type": "function"
    },
    {
      "inputs": [
        {
          "internalType": "address",
          "name": "forwarder",
          "type": "address"
        }
      ],
      "name": "isTrustedForwarder",
      "outputs": [
        {
          "internalType": "bool",
          "name": "",
          "type": "bool"
        }
      ],
      "stateMutability": "view",
      "type": "function"
    },
    {
      "inputs": [
        {
          "internalType": "bytes32",
          "name": "",
          "type": "bytes32"
        }
      ],
      "name": "nonces",
      "outputs": [
        {
          "internalType": "uint256",
          "name": "",
          "type": "uint256"
        }
      ],
      "stateMutability": "view",
      "type": "function"
    },
    {
      "inputs": [],
      "name": "owner",
      "outputs": [
        {
          "internalType": "address",
          "name": "",
          "type": "address"
        }
      ],
      "stateMutability": "view",
      "type": "function"
    },
    {
      "inputs": [
        {
          "internalType": "bytes32[]",
          "name": "reasonCodes",
          "type": "bytes32[]"
        }
      ],
      "name": "removeConsumeReasonCodes",
      "outputs": [],
      "stateMutability": "nonpayable",
      "type": "function"
    },
    {
      "inputs": [
        {
          "internalType": "bytes32",
          "name": "role",
          "type": "bytes32"
        }
      ],
      "name": "renounceRole",
      "outputs": [],
      "stateMutability": "nonpayable",
      "type": "function"
    },
    {
      "inputs": [
        {
          "internalType": "bytes32",
          "name": "role",
          "type": "bytes32"
        },
        {
          "internalType": "address",
          "name": "account",
          "type": "address"
        }
      ],
      "name": "revokeRole",
      "outputs": [],
      "stateMutability": "nonpayable",
      "type": "function"
    },
    {
      "inputs": [
        {
          "internalType": "bytes4",
          "name": "interfaceId",
          "type": "bytes4"
        }
      ],
      "name": "supportsInterface",
      "outputs": [
        {
          "internalType": "bool",
          "name": "",
          "type": "bool"
        }
      ],
      "stateMutability": "view",
      "type": "function"
    },
    {
      "inputs": [
        {
          "internalType": "address",
          "name": "newOwner",
          "type": "address"
        }
      ],
      "name": "transferOwnership",
      "outputs": [],
      "stateMutability": "nonpayable",
      "type": "function"
    }
  ],
  "bytecode": "0x6101606040523480156200001257600080fd5b50604051620024133803806200241383398101604081905262000035916200038f565b8060405180604001604052806006815260200165506f696e747360d01b815250604051806040016040528060038152602001620312e360ec1b8152508280620000836200017c60201b60201c565b6200009981620000926200018d565b90620001c3565b506001600160a01b03166080525081516020808401919091208251918301919091206101008290526101208190524660c0527f8b73c3c69bb8fe3d512ecc4cf759cc79239f7b179b0ffacaa9a75d522b39400f6200013c8184846040805160208101859052908101839052606081018290524660808201523060a082015260009060c0016040516020818303038152906040528051906020012090509392505050565b60a0523060e052610140525050506001600160a01b03821690506200017457604051633545ba1f60e21b815260040160405180910390fd5b505062000407565b6000620001886200023e565b905090565b600080620001bd60017fc9ed16f33ab3a66c84bfd83099ccb2a8845871e2e1c1928f63797152f0fd54cd620003c1565b92915050565b6001600160a01b038116156200021a5781546001600160a01b0319166001600160a01b03821690811783556040516000907f8be0079c531659141344cd1fd0a4f28419497f9722a3daafe3b4186f6b6457e0908290a35b6200023a6307f5828d60e41b60016200023262000302565b919062000332565b5050565b6000333214806200024f5750601836105b156200025a57503390565b60805136601319013560601c906001600160a01b0316331480620002f05750608051604051634494d46560e11b81526001600160a01b03838116600483015233602483015290911690638929a8ca90604401602060405180830381865afa158015620002ca573d6000803e3d6000fd5b505050506040513d601f19601f82011682018060405250810190620002f09190620003e3565b15620002fb57919050565b3391505090565b600080620001bd60017fca9d3e17f264b0f3984e2634e94adb37fa3e6a8103f06aeae6fa59e21c769f5e620003c1565b600160e01b6001600160e01b031983160162000361576040516372c683bb60e01b815260040160405180910390fd5b6001600160e01b03199190911660009081526020929092526040909120805460ff1916911515919091179055565b600060208284031215620003a257600080fd5b81516001600160a01b0381168114620003ba57600080fd5b9392505050565b81810381811115620001bd57634e487b7160e01b600052601160045260246000fd5b600060208284031215620003f657600080fd5b81518015158114620003ba57600080fd5b60805160a05160c05160e051610100516101205161014051611f8e620004856000396000611916015260006119650152600061194001526000611899015260006118c3015260006118ed0152600081816102120152818161029001528181611611015281816116990152818161174c015261178a0152611f8e6000f3fe608060405234801561001057600080fd5b506004361061018d5760003560e01c80638bb9c5bf116100e3578063d547741f1161008c578063f374913c11610066578063f374913c146103e4578063f65f02ec146103f7578063f95159621461040a57600080fd5b8063d547741f146103ab578063e283bfbf146103be578063f2fde38b146103d157600080fd5b80639e317f12116100bd5780639e317f121461035c578063a3b0b5a31461037c578063d1a91ff2146103a357600080fd5b80638bb9c5bf1461032e5780638da5cb5b1461034157806391d148541461034957600080fd5b80632f2ff15d1161014557806372c16a241161011f57806372c16a24146102cd5780637308a128146102f457806375b238fc1461030757600080fd5b80632f2ff15d1461025757806331e66e1e1461026a578063572b6c051461028057600080fd5b806326b3293f1161017657806326b3293f146101cf57806327e235e3146101e25780632b4c9f161461021057600080fd5b806301ffc9a714610192578063212aac79146101ba575b600080fd5b6101a56101a0366004611b18565b61042d565b60405190151581526020015b60405180910390f35b6101cd6101c8366004611b83565b610447565b005b6101cd6101dd366004611b83565b610499565b6102026101f0366004611bb6565b60006020819052908152604090205481565b6040519081526020016101b1565b7f00000000000000000000000000000000000000000000000000000000000000005b60405173ffffffffffffffffffffffffffffffffffffffff90911681526020016101b1565b6101cd610265366004611bd1565b6105b6565b6102726105ef565b6040516101b1929190611bfd565b6101a561028e366004611bb6565b7f000000000000000000000000000000000000000000000000000000000000000073ffffffffffffffffffffffffffffffffffffffff90811691161490565b6102027f7434c6f201a551bfd17336985361933e0c4935b520dac8a49d937b325f7d5c0a81565b6101cd610302366004611c4a565b610602565b6102027fa49807205ce4d355092ef5a8a18f56e8913cf4a201fbe287825b095693c2177581565b6101cd61033c366004611cbf565b6107b6565b6102326107d4565b6101a5610357366004611bd1565b610800565b61020261036a366004611cbf565b60016020526000908152604090205481565b6102027f8f4f2da22e8ac8f11e15f9fc141cddbb5deea8800186560abb6e68c5496619a981565b61023261084b565b6101cd6103b9366004611bd1565b610855565b6101cd6103cc366004611cd8565b610883565b6101cd6103df366004611bb6565b61089b565b6101cd6103f2366004611c4a565b6108b6565b6101cd610405366004611cfa565b610a4f565b6101a5610418366004611cbf565b60026020526000908152604090205460ff1681565b60006104418261043b610c95565b90610cc3565b92915050565b6000610451610d9d565b90506104877f7434c6f201a551bfd17336985361933e0c4935b520dac8a49d937b325f7d5c0a82610480610da7565b9190610dd5565b61049381858585610e5b565b50505050565b60006104a3610d9d565b90506104d27f8f4f2da22e8ac8f11e15f9fc141cddbb5deea8800186560abb6e68c5496619a982610480610da7565b8260000361050c576040517f8b07335400000000000000000000000000000000000000000000000000000000815260040160405180910390fd5b73ffffffffffffffffffffffffffffffffffffffff841660009081526020819052604081208054859290610541908490611d95565b925050819055508373ffffffffffffffffffffffffffffffffffffffff16828273ffffffffffffffffffffffffffffffffffffffff167f81226022599698f02239ac5895ce7a96962ba5fe72f8f7610d1cc2cb0405f391866040516105a891815260200190565b60405180910390a450505050565b60006105c0610d9d565b90506105d4816105ce610f98565b90610fc6565b6105ea8383836105e2610da7565b929190611035565b505050565b3660006105fa61110b565b915091509091565b6106367fa49807205ce4d355092ef5a8a18f56e8913cf4a201fbe287825b095693c2177561062e610d9d565b610480610da7565b6000819003610671576040517f3fb4608600000000000000000000000000000000000000000000000000000000815260040160405180910390fd5b60005b81811015610771576002600084848481811061069257610692611da8565b602090810292909201358352508101919091526040016000205460ff161561070b578282828181106106c6576106c6611da8565b905060200201356040517fb642124200000000000000000000000000000000000000000000000000000000815260040161070291815260200190565b60405180910390fd5b60016002600085858581811061072357610723611da8565b6020908102929092013583525081019190915260400160002080547fffffffffffffffffffffffffffffffffffffffffffffffffffffffffffffff0016911515919091179055600101610674565b508181604051610782929190611dd7565b604051908190038120907fab25d781d5ddfd48b7ce16c5048ddf0ee9caece5921f772cfacfd1085b6f5f1b90600090a25050565b6107d16107c1610d9d565b826107ca610da7565b9190611116565b50565b60006107fb6107e1610f98565b5473ffffffffffffffffffffffffffffffffffffffff1690565b905090565b6000610844838361080f610da7565b60009283526020908152604080842073ffffffffffffffffffffffffffffffffffffffff909316845291905290205460ff1690565b9392505050565b60006107fb610d9d565b600061085f610d9d565b905061086d816105ce610f98565b6105ea83838361087b610da7565b9291906111ba565b600061088d610d9d565b90506105ea81828585610e5b565b6107d16108a6610d9d565b826108af610f98565b9190611284565b6108e27fa49807205ce4d355092ef5a8a18f56e8913cf4a201fbe287825b095693c2177561062e610d9d565b600081900361091d576040517f3fb4608600000000000000000000000000000000000000000000000000000000815260040160405180910390fd5b60005b81811015610a0a576002600084848481811061093e5761093e611da8565b602090810292909201358352508101919091526040016000205460ff166109ad5782828281811061097157610971611da8565b905060200201356040517fa89513e100000000000000000000000000000000000000000000000000000000815260040161070291815260200190565b600260008484848181106109c3576109c3611da8565b6020908102929092013583525081019190915260400160002080547fffffffffffffffffffffffffffffffffffffffffffffffffffffffffffffff00169055600101610920565b508181604051610a1b929190611dd7565b604051908190038120907f507a827ea9c046f50d345ab3118c004750ae36a4dd38998391315aee8be45b9590600090a25050565b83421115610a89576040517fdf4cc36d00000000000000000000000000000000000000000000000000000000815260040160405180910390fd5b6000610a93610d9d565b6040517fffffffffffffffffffffffffffffffffffffffff00000000000000000000000060608b811b8216602084015283901b166034820152909150600090604801604080518083037fffffffffffffffffffffffffffffffffffffffffffffffffffffffffffffffe00181528282528051602091820120600081815260018352838120549285018990529284018790527fff0000000000000000000000000000000000000000000000000000000000000060f88a901b166060850152935091606101604080517fffffffffffffffffffffffffffffffffffffffffffffffffffffffffffffffe08184030181528282527fa722027359a4245f54723b40c893d0e406c2a361b220451e03f9bd03c41883df602084015273ffffffffffffffffffffffffffffffffffffffff808f16928401929092529086166060830152608082018c905260a082018b905260c082018a905260e082018490529150600090610c15906101000160405160208183030381529060405280519060200120611398565b90506000610c248d8385611401565b905080610c5d576040517f8baa579f00000000000000000000000000000000000000000000000000000000815260040160405180910390fd5b610c69868e8e8e610e5b565b610c74846001611d95565b60009586526001602052604090952094909455505050505050505050505050565b60008061044160017fca9d3e17f264b0f3984e2634e94adb37fa3e6a8103f06aeae6fa59e21c769f5e611e19565b60007c01000000000000000000000000000000000000000000000000000000007fffffffff00000000000000000000000000000000000000000000000000000000831601610d1357506000610441565b7ffe003659000000000000000000000000000000000000000000000000000000007fffffffff00000000000000000000000000000000000000000000000000000000831601610d6457506001610441565b507fffffffff00000000000000000000000000000000000000000000000000000000166000908152602091909152604090205460ff1690565b60006107fb6115ce565b60008061044160017fc8827d3282af6f37b64c3e9e6f3ac9df286ab0bb0fccd6f8661bf19adb368b23611e19565b60008281526020848152604080832073ffffffffffffffffffffffffffffffffffffffff8516845290915290205460ff166105ea576040517f7aa728820000000000000000000000000000000000000000000000000000000081526004810183905273ffffffffffffffffffffffffffffffffffffffff82166024820152604401610702565b73ffffffffffffffffffffffffffffffffffffffff831660009081526020819052604090205482811015610eda576040517ff6deaa0400000000000000000000000000000000000000000000000000000000815273ffffffffffffffffffffffffffffffffffffffff8516600482015260248101849052604401610702565b60008281526002602052604090205460ff16610f25576040517fa89513e100000000000000000000000000000000000000000000000000000000815260048101839052602401610702565b610f2f8382611e19565b73ffffffffffffffffffffffffffffffffffffffff858116600081815260208181526040918290209490945551868152909285928916917f483f7fdbc58a2920f2e502b1bbbb896329d7c8ddca129d0875d589e895186857910160405180910390a45050505050565b60008061044160017fc9ed16f33ab3a66c84bfd83099ccb2a8845871e2e1c1928f63797152f0fd54cd611e19565b815473ffffffffffffffffffffffffffffffffffffffff828116911614611031576040517f2ef4875e00000000000000000000000000000000000000000000000000000000815273ffffffffffffffffffffffffffffffffffffffff82166004820152602401610702565b5050565b60008381526020858152604080832073ffffffffffffffffffffffffffffffffffffffff8616845290915290205460ff166104935760008381526020858152604080832073ffffffffffffffffffffffffffffffffffffffff8681168086529184529382902080547fffffffffffffffffffffffffffffffffffffffffffffffffffffffffffffff00166001179055815187815292830152918316918101919091527f2f8788117e7eff1d82e926ec794901d17c78024a50270940304540a733656f0d906060015b60405180910390a150505050565b3660006105fa611715565b611121838284610dd5565b60008181526020848152604080832073ffffffffffffffffffffffffffffffffffffffff86168085529083529281902080547fffffffffffffffffffffffffffffffffffffffffffffffffffffffffffffff0016905580518481529182018390528101919091527ff6391f5c32d9c69d2a47ea670b442974b53935d1edc7fd64eb21e047a839171b9060600160405180910390a1505050565b60008381526020858152604080832073ffffffffffffffffffffffffffffffffffffffff8616845290915290205460ff16156104935760008381526020858152604080832073ffffffffffffffffffffffffffffffffffffffff8681168086529184529382902080547fffffffffffffffffffffffffffffffffffffffffffffffffffffffffffffff00169055815187815292830152918316918101919091527ff6391f5c32d9c69d2a47ea670b442974b53935d1edc7fd64eb21e047a839171b906060016110fd565b825473ffffffffffffffffffffffffffffffffffffffff90811690831681146112f1576040517f2ef4875e00000000000000000000000000000000000000000000000000000000815273ffffffffffffffffffffffffffffffffffffffff84166004820152602401610702565b8173ffffffffffffffffffffffffffffffffffffffff168173ffffffffffffffffffffffffffffffffffffffff16146104935783547fffffffffffffffffffffffff00000000000000000000000000000000000000001673ffffffffffffffffffffffffffffffffffffffff8381169182178655604051908316907f8be0079c531659141344cd1fd0a4f28419497f9722a3daafe3b4186f6b6457e090600090a350505050565b60006104416113a561187f565b836040517f19010000000000000000000000000000000000000000000000000000000000006020820152602281018390526042810182905260009060620160405160208183030381529060405280519060200120905092915050565b600080600061141085856119b3565b9092509050600081600481111561142957611429611e2c565b14801561146157508573ffffffffffffffffffffffffffffffffffffffff168273ffffffffffffffffffffffffffffffffffffffff16145b1561147157600192505050610844565b6000808773ffffffffffffffffffffffffffffffffffffffff16631626ba7e60e01b88886040516024016114a6929190611e7f565b604080517fffffffffffffffffffffffffffffffffffffffffffffffffffffffffffffffe08184030181529181526020820180517bffffffffffffffffffffffffffffffffffffffffffffffffffffffff167fffffffff0000000000000000000000000000000000000000000000000000000090941693909317909252905161152f9190611ed7565b600060405180830381855afa9150503d806000811461156a576040519150601f19603f3d011682016040523d82523d6000602084013e61156f565b606091505b5091509150818015611582575080516020145b80156115c2575080517f1626ba7e00000000000000000000000000000000000000000000000000000000906115c09083016020908101908401611ef3565b145b98975050505050505050565b6000333214806115de5750601836105b156115e857503390565b7fffffffffffffffffffffffffffffffffffffffffffffffffffffffffffffffec36013560601c7f000000000000000000000000000000000000000000000000000000000000000073ffffffffffffffffffffffffffffffffffffffff1633148061170457506040517f8929a8ca00000000000000000000000000000000000000000000000000000000815273ffffffffffffffffffffffffffffffffffffffff82811660048301523360248301527f00000000000000000000000000000000000000000000000000000000000000001690638929a8ca90604401602060405180830381865afa1580156116e0573d6000803e3d6000fd5b505050506040513d601f19601f820116820180604052508101906117049190611f0c565b1561170e57919050565b3391505090565b366000333214806117265750601836105b156117345750600091369150565b3373ffffffffffffffffffffffffffffffffffffffff7f0000000000000000000000000000000000000000000000000000000000000000161480611869575073ffffffffffffffffffffffffffffffffffffffff7f000000000000000000000000000000000000000000000000000000000000000016638929a8ca367fffffffffffffffffffffffffffffffffffffffffffffffffffffffffffffffec013560601c6040517fffffffff0000000000000000000000000000000000000000000000000000000060e084901b16815273ffffffffffffffffffffffffffffffffffffffff9091166004820152336024820152604401602060405180830381865afa158015611845573d6000803e3d6000fd5b505050506040513d601f19601f820116820180604052508101906118699190611f0c565b15611876576105fa6119f8565b50600091369150565b60003073ffffffffffffffffffffffffffffffffffffffff7f0000000000000000000000000000000000000000000000000000000000000000161480156118e557507f000000000000000000000000000000000000000000000000000000000000000046145b1561190f57507f000000000000000000000000000000000000000000000000000000000000000090565b50604080517f00000000000000000000000000000000000000000000000000000000000000006020808301919091527f0000000000000000000000000000000000000000000000000000000000000000828401527f000000000000000000000000000000000000000000000000000000000000000060608301524660808301523060a0808401919091528351808403909101815260c0909201909252805191012090565b60008082516041036119e95760208301516040840151606085015160001a6119dd87828585611a29565b945094505050506119f1565b506000905060025b9250929050565b3660006105fa7fffffffffffffffffffffffffffffffffffffffffffffffffffffffffffffffec8301828481611f2e565b6000807f7fffffffffffffffffffffffffffffff5d576e7357a4501ddfe92f46681b20a0831115611a605750600090506003611b0f565b6040805160008082526020820180845289905260ff881692820192909252606081018690526080810185905260019060a0016020604051602081039080840390855afa158015611ab4573d6000803e3d6000fd5b50506040517fffffffffffffffffffffffffffffffffffffffffffffffffffffffffffffffe0015191505073ffffffffffffffffffffffffffffffffffffffff8116611b0857600060019250925050611b0f565b9150600090505b94509492505050565b600060208284031215611b2a57600080fd5b81357fffffffff000000000000000000000000000000000000000000000000000000008116811461084457600080fd5b803573ffffffffffffffffffffffffffffffffffffffff81168114611b7e57600080fd5b919050565b600080600060608486031215611b9857600080fd5b611ba184611b5a565b95602085013595506040909401359392505050565b600060208284031215611bc857600080fd5b61084482611b5a565b60008060408385031215611be457600080fd5b82359150611bf460208401611b5a565b90509250929050565b60208152816020820152818360408301376000818301604090810191909152601f9092017fffffffffffffffffffffffffffffffffffffffffffffffffffffffffffffffe0160101919050565b60008060208385031215611c5d57600080fd5b823567ffffffffffffffff80821115611c7557600080fd5b818501915085601f830112611c8957600080fd5b813581811115611c9857600080fd5b8660208260051b8501011115611cad57600080fd5b60209290920196919550909350505050565b600060208284031215611cd157600080fd5b5035919050565b60008060408385031215611ceb57600080fd5b50508035926020909101359150565b600080600080600080600060e0888a031215611d1557600080fd5b611d1e88611b5a565b9650602088013595506040880135945060608801359350608088013560ff81168114611d4957600080fd5b9699959850939692959460a0840135945060c09093013592915050565b7f4e487b7100000000000000000000000000000000000000000000000000000000600052601160045260246000fd5b8082018082111561044157610441611d66565b7f4e487b7100000000000000000000000000000000000000000000000000000000600052603260045260246000fd5b60007f07ffffffffffffffffffffffffffffffffffffffffffffffffffffffffffffff831115611e0657600080fd5b8260051b80858437919091019392505050565b8181038181111561044157610441611d66565b7f4e487b7100000000000000000000000000000000000000000000000000000000600052602160045260246000fd5b60005b83811015611e76578181015183820152602001611e5e565b50506000910152565b8281526040602082015260008251806040840152611ea4816060850160208701611e5b565b601f017fffffffffffffffffffffffffffffffffffffffffffffffffffffffffffffffe016919091016060019392505050565b60008251611ee9818460208701611e5b565b9190910192915050565b600060208284031215611f0557600080fd5b5051919050565b600060208284031215611f1e57600080fd5b8151801515811461084457600080fd5b60008085851115611f3e57600080fd5b83861115611f4b57600080fd5b505082019391909203915056fea26469706673582212208cd025954fd4fa0badad075a1621429ef77782ea35ee713d1241925d3c752d9364736f6c63430008160033",
  "linkReferences": {},
  "deployedLinkReferences": {}
}