{
  "_format": "hh-sol-artifact-1",
  "contractName": "ScratchingBoard",
  "sourceName": "contracts/token/ERC721/ScratchingBoard.sol",
  "abi": [
    {
      "inputs": [
        {
          "internalType": "string",
          "name": "tokenName",
          "type": "string"
        },
        {
          "internalType": "string",
          "name": "tokenSymbol",
          "type": "string"
        },
        {
          "internalType": "contract ITokenMetadataResolver",
          "name": "metadataResolver",
          "type": "address"
        }
      ],
      "stateMutability": "nonpayable",
      "type": "constructor"
    },
    {
      "inputs": [
        {
          "internalType": "uint256",
          "name": "percentage",
          "type": "uint256"
        }
      ],
      "name": "ERC2981IncorrectRoyaltyPercentage",
      "type": "error"
    },
    {
      "inputs": [],
      "name": "ERC2981IncorrectRoyaltyReceiver",
      "type": "error"
    },
    {
      "inputs": [],
      "name": "ERC721BalanceOfAddressZero",
      "type": "error"
    },
    {
      "inputs": [
        {
          "internalType": "uint256",
          "name": "tokenId",
          "type": "uint256"
        }
      ],
      "name": "ERC721ExistingToken",
      "type": "error"
    },
    {
      "inputs": [],
      "name": "ERC721MintToAddressZero",
      "type": "error"
    },
    {
      "inputs": [
        {
          "internalType": "address",
          "name": "sender",
          "type": "address"
        },
        {
          "internalType": "address",
          "name": "owner",
          "type": "address"
        },
        {
          "internalType": "uint256",
          "name": "tokenId",
          "type": "uint256"
        }
      ],
      "name": "ERC721NonApprovedForApproval",
      "type": "error"
    },
    {
      "inputs": [
        {
          "internalType": "address",
          "name": "sender",
          "type": "address"
        },
        {
          "internalType": "address",
          "name": "owner",
          "type": "address"
        },
        {
          "internalType": "uint256",
          "name": "tokenId",
          "type": "uint256"
        }
      ],
      "name": "ERC721NonApprovedForTransfer",
      "type": "error"
    },
    {
      "inputs": [
        {
          "internalType": "uint256",
          "name": "tokenId",
          "type": "uint256"
        }
      ],
      "name": "ERC721NonExistingToken",
      "type": "error"
    },
    {
      "inputs": [
        {
          "internalType": "address",
          "name": "account",
          "type": "address"
        },
        {
          "internalType": "uint256",
          "name": "tokenId",
          "type": "uint256"
        }
      ],
      "name": "ERC721NonOwnedToken",
      "type": "error"
    },
    {
      "inputs": [
        {
          "internalType": "address",
          "name": "recipient",
          "type": "address"
        },
        {
          "internalType": "uint256",
          "name": "tokenId",
          "type": "uint256"
        }
      ],
      "name": "ERC721SafeTransferRejected",
      "type": "error"
    },
    {
      "inputs": [
        {
          "internalType": "address",
          "name": "account",
          "type": "address"
        }
      ],
      "name": "ERC721SelfApproval",
      "type": "error"
    },
    {
      "inputs": [
        {
          "internalType": "address",
          "name": "account",
          "type": "address"
        }
      ],
      "name": "ERC721SelfApprovalForAll",
      "type": "error"
    },
    {
      "inputs": [],
      "name": "ERC721TransferToAddressZero",
      "type": "error"
    },
    {
      "inputs": [],
      "name": "FailedCall",
      "type": "error"
    },
    {
      "inputs": [],
      "name": "IllegalInterfaceId",
      "type": "error"
    },
    {
      "inputs": [],
      "name": "InconsistentArrayLengths",
      "type": "error"
    },
    {
      "inputs": [
        {
          "internalType": "address",
          "name": "tokenContract",
          "type": "address"
        }
      ],
      "name": "IncorrectTokenContractType",
      "type": "error"
    },
    {
      "inputs": [
        {
          "internalType": "uint256",
          "name": "balance",
          "type": "uint256"
        },
        {
          "internalType": "uint256",
          "name": "needed",
          "type": "uint256"
        }
      ],
      "name": "InsufficientBalance",
      "type": "error"
    },
    {
      "inputs": [
        {
          "internalType": "address",
          "name": "account",
          "type": "address"
        }
      ],
      "name": "NotContractOwner",
      "type": "error"
    },
    {
      "inputs": [
        {
          "internalType": "bytes32",
          "name": "role",
          "type": "bytes32"
        },
        {
          "internalType": "address",
          "name": "account",
          "type": "address"
        }
      ],
      "name": "NotRoleHolder",
      "type": "error"
    },
    {
      "inputs": [
        {
          "internalType": "uint256",
          "name": "tokenId",
          "type": "uint256"
        },
        {
          "internalType": "uint256",
          "name": "requestId",
          "type": "uint256"
        }
      ],
      "name": "PendingScratchRequest",
      "type": "error"
    },
    {
      "inputs": [
        {
          "internalType": "address",
          "name": "token",
          "type": "address"
        }
      ],
      "name": "SafeERC20FailedOperation",
      "type": "error"
    },
    {
      "anonymous": false,
      "inputs": [
        {
          "indexed": true,
          "internalType": "address",
          "name": "owner",
          "type": "address"
        },
        {
          "indexed": true,
          "internalType": "address",
          "name": "approved",
          "type": "address"
        },
        {
          "indexed": true,
          "internalType": "uint256",
          "name": "tokenId",
          "type": "uint256"
        }
      ],
      "name": "Approval",
      "type": "event"
    },
    {
      "anonymous": false,
      "inputs": [
        {
          "indexed": true,
          "internalType": "address",
          "name": "owner",
          "type": "address"
        },
        {
          "indexed": true,
          "internalType": "address",
          "name": "operator",
          "type": "address"
        },
        {
          "indexed": false,
          "internalType": "bool",
          "name": "approved",
          "type": "bool"
        }
      ],
      "name": "ApprovalForAll",
      "type": "event"
    },
    {
      "anonymous": false,
      "inputs": [
        {
          "indexed": true,
          "internalType": "address",
          "name": "previousOwner",
          "type": "address"
        },
        {
          "indexed": true,
          "internalType": "address",
          "name": "newOwner",
          "type": "address"
        }
      ],
      "name": "OwnershipTransferred",
      "type": "event"
    },
    {
      "anonymous": false,
      "inputs": [
        {
          "indexed": false,
          "internalType": "bytes32",
          "name": "role",
          "type": "bytes32"
        },
        {
          "indexed": false,
          "internalType": "address",
          "name": "account",
          "type": "address"
        },
        {
          "indexed": false,
          "internalType": "address",
          "name": "operator",
          "type": "address"
        }
      ],
      "name": "RoleGranted",
      "type": "event"
    },
    {
      "anonymous": false,
      "inputs": [
        {
          "indexed": false,
          "internalType": "bytes32",
          "name": "role",
          "type": "bytes32"
        },
        {
          "indexed": false,
          "internalType": "address",
          "name": "account",
          "type": "address"
        },
        {
          "indexed": false,
          "internalType": "address",
          "name": "operator",
          "type": "address"
        }
      ],
      "name": "RoleRevoked",
      "type": "event"
    },
    {
      "anonymous": false,
      "inputs": [
        {
          "indexed": false,
          "internalType": "contract IScratching",
          "name": "scratchingContract",
          "type": "address"
        }
      ],
      "name": "ScratchingContractSet",
      "type": "event"
    },
    {
      "anonymous": false,
      "inputs": [
        {
          "indexed": true,
          "internalType": "address",
          "name": "from",
          "type": "address"
        },
        {
          "indexed": true,
          "internalType": "address",
          "name": "to",
          "type": "address"
        },
        {
          "indexed": true,
          "internalType": "uint256",
          "name": "tokenId",
          "type": "uint256"
        }
      ],
      "name": "Transfer",
      "type": "event"
    },
    {
      "inputs": [],
      "name": "MINTER_ROLE",
      "outputs": [
        {
          "internalType": "bytes32",
          "name": "",
          "type": "bytes32"
        }
      ],
      "stateMutability": "view",
      "type": "function"
    },
    {
      "inputs": [],
      "name": "ROYALTY_FEE_DENOMINATOR",
      "outputs": [
        {
          "internalType": "uint256",
          "name": "",
          "type": "uint256"
        }
      ],
      "stateMutability": "view",
      "type": "function"
    },
    {
      "inputs": [
        {
          "internalType": "address",
          "name": "to",
          "type": "address"
        },
        {
          "internalType": "uint256",
          "name": "tokenId",
          "type": "uint256"
        }
      ],
      "name": "approve",
      "outputs": [],
      "stateMutability": "nonpayable",
      "type": "function"
    },
    {
      "inputs": [
        {
          "internalType": "address",
          "name": "owner",
          "type": "address"
        }
      ],
      "name": "balanceOf",
      "outputs": [
        {
          "internalType": "uint256",
          "name": "balance",
          "type": "uint256"
        }
      ],
      "stateMutability": "view",
      "type": "function"
    },
    {
      "inputs": [
        {
          "internalType": "uint256",
          "name": "tokenId",
          "type": "uint256"
        }
      ],
      "name": "burn",
      "outputs": [],
      "stateMutability": "nonpayable",
      "type": "function"
    },
    {
      "inputs": [
        {
          "internalType": "uint256",
          "name": "tokenId",
          "type": "uint256"
        }
      ],
      "name": "getApproved",
      "outputs": [
        {
          "internalType": "address",
          "name": "approved",
          "type": "address"
        }
      ],
      "stateMutability": "view",
      "type": "function"
    },
    {
      "inputs": [
        {
          "internalType": "bytes32",
          "name": "role",
          "type": "bytes32"
        },
        {
          "internalType": "address",
          "name": "account",
          "type": "address"
        }
      ],
      "name": "grantRole",
      "outputs": [],
      "stateMutability": "nonpayable",
      "type": "function"
    },
    {
      "inputs": [
        {
          "internalType": "bytes32",
          "name": "role",
          "type": "bytes32"
        },
        {
          "internalType": "address",
          "name": "account",
          "type": "address"
        }
      ],
      "name": "hasRole",
      "outputs": [
        {
          "internalType": "bool",
          "name": "hasRole_",
          "type": "bool"
        }
      ],
      "stateMutability": "view",
      "type": "function"
    },
    {
      "inputs": [
        {
          "internalType": "address",
          "name": "owner",
          "type": "address"
        },
        {
          "internalType": "address",
          "name": "operator",
          "type": "address"
        }
      ],
      "name": "isApprovedForAll",
      "outputs": [
        {
          "internalType": "bool",
          "name": "approvedForAll",
          "type": "bool"
        }
      ],
      "stateMutability": "view",
      "type": "function"
    },
    {
      "inputs": [],
      "name": "metadataResolver",
      "outputs": [
        {
          "internalType": "contract ITokenMetadataResolver",
          "name": "tokenMetadataResolver",
          "type": "address"
        }
      ],
      "stateMutability": "view",
      "type": "function"
    },
    {
      "inputs": [
        {
          "internalType": "address",
          "name": "to",
          "type": "address"
        }
      ],
      "name": "mint",
      "outputs": [
        {
          "internalType": "uint256",
          "name": "tokenId",
          "type": "uint256"
        }
      ],
      "stateMutability": "nonpayable",
      "type": "function"
    },
    {
      "inputs": [],
      "name": "name",
      "outputs": [
        {
          "internalType": "string",
          "name": "tokenName",
          "type": "string"
        }
      ],
      "stateMutability": "view",
      "type": "function"
    },
    {
      "inputs": [],
      "name": "nextTokenId",
      "outputs": [
        {
          "internalType": "uint256",
          "name": "",
          "type": "uint256"
        }
      ],
      "stateMutability": "view",
      "type": "function"
    },
    {
      "inputs": [],
      "name": "owner",
      "outputs": [
        {
          "internalType": "address",
          "name": "",
          "type": "address"
        }
      ],
      "stateMutability": "view",
      "type": "function"
    },
    {
      "inputs": [
        {
          "internalType": "uint256",
          "name": "tokenId",
          "type": "uint256"
        }
      ],
      "name": "ownerOf",
      "outputs": [
        {
          "internalType": "address",
          "name": "tokenOwner",
          "type": "address"
        }
      ],
      "stateMutability": "view",
      "type": "function"
    },
    {
      "inputs": [
        {
          "internalType": "address[]",
          "name": "accounts",
          "type": "address[]"
        },
        {
          "internalType": "contract IERC20[]",
          "name": "tokens",
          "type": "address[]"
        },
        {
          "internalType": "uint256[]",
          "name": "amounts",
          "type": "uint256[]"
        }
      ],
      "name": "recoverERC20s",
      "outputs": [],
      "stateMutability": "nonpayable",
      "type": "function"
    },
    {
      "inputs": [
        {
          "internalType": "address[]",
          "name": "accounts",
          "type": "address[]"
        },
        {
          "internalType": "contract IERC721[]",
          "name": "contracts",
          "type": "address[]"
        },
        {
          "internalType": "uint256[]",
          "name": "tokenIds",
          "type": "uint256[]"
        }
      ],
      "name": "recoverERC721s",
      "outputs": [],
      "stateMutability": "nonpayable",
      "type": "function"
    },
    {
      "inputs": [
        {
          "internalType": "address payable[]",
          "name": "accounts",
          "type": "address[]"
        },
        {
          "internalType": "uint256[]",
          "name": "amounts",
          "type": "uint256[]"
        }
      ],
      "name": "recoverETH",
      "outputs": [],
      "stateMutability": "nonpayable",
      "type": "function"
    },
    {
      "inputs": [
        {
          "internalType": "bytes32",
          "name": "role",
          "type": "bytes32"
        }
      ],
      "name": "renounceRole",
      "outputs": [],
      "stateMutability": "nonpayable",
      "type": "function"
    },
    {
      "inputs": [
        {
          "internalType": "bytes32",
          "name": "role",
          "type": "bytes32"
        },
        {
          "internalType": "address",
          "name": "account",
          "type": "address"
        }
      ],
      "name": "revokeRole",
      "outputs": [],
      "stateMutability": "nonpayable",
      "type": "function"
    },
    {
      "inputs": [
        {
          "internalType": "uint256",
          "name": "tokenId",
          "type": "uint256"
        },
        {
          "internalType": "uint256",
          "name": "salePrice",
          "type": "uint256"
        }
      ],
      "name": "royaltyInfo",
      "outputs": [
        {
          "internalType": "address",
          "name": "receiver",
          "type": "address"
        },
        {
          "internalType": "uint256",
          "name": "royaltyAmount",
          "type": "uint256"
        }
      ],
      "stateMutability": "view",
      "type": "function"
    },
    {
      "inputs": [
        {
          "internalType": "address",
          "name": "from",
          "type": "address"
        },
        {
          "internalType": "address",
          "name": "to",
          "type": "address"
        },
        {
          "internalType": "uint256",
          "name": "tokenId",
          "type": "uint256"
        }
      ],
      "name": "safeTransferFrom",
      "outputs": [],
      "stateMutability": "nonpayable",
      "type": "function"
    },
    {
      "inputs": [
        {
          "internalType": "address",
          "name": "from",
          "type": "address"
        },
        {
          "internalType": "address",
          "name": "to",
          "type": "address"
        },
        {
          "internalType": "uint256",
          "name": "tokenId",
          "type": "uint256"
        },
        {
          "internalType": "bytes",
          "name": "data",
          "type": "bytes"
        }
      ],
      "name": "safeTransferFrom",
      "outputs": [],
      "stateMutability": "nonpayable",
      "type": "function"
    },
    {
      "inputs": [],
      "name": "scratchingContract",
      "outputs": [
        {
          "internalType": "contract IScratching",
          "name": "",
          "type": "address"
        }
      ],
      "stateMutability": "view",
      "type": "function"
    },
    {
      "inputs": [
        {
          "internalType": "address",
          "name": "operator",
          "type": "address"
        },
        {
          "internalType": "bool",
          "name": "approved",
          "type": "bool"
        }
      ],
      "name": "setApprovalForAll",
      "outputs": [],
      "stateMutability": "nonpayable",
      "type": "function"
    },
    {
      "inputs": [
        {
          "internalType": "uint256",
          "name": "percentage",
          "type": "uint256"
        }
      ],
      "name": "setRoyaltyPercentage",
      "outputs": [],
      "stateMutability": "nonpayable",
      "type": "function"
    },
    {
      "inputs": [
        {
          "internalType": "address",
          "name": "receiver",
          "type": "address"
        }
      ],
      "name": "setRoyaltyReceiver",
      "outputs": [],
      "stateMutability": "nonpayable",
      "type": "function"
    },
    {
      "inputs": [
        {
          "internalType": "contract IScratching",
          "name": "scratching",
          "type": "address"
        }
      ],
      "name": "setScratchingContract",
      "outputs": [],
      "stateMutability": "nonpayable",
      "type": "function"
    },
    {
      "inputs": [
        {
          "internalType": "bytes4",
          "name": "interfaceId",
          "type": "bytes4"
        }
      ],
      "name": "supportsInterface",
      "outputs": [
        {
          "internalType": "bool",
          "name": "",
          "type": "bool"
        }
      ],
      "stateMutability": "view",
      "type": "function"
    },
    {
      "inputs": [],
      "name": "symbol",
      "outputs": [
        {
          "internalType": "string",
          "name": "tokenSymbol",
          "type": "string"
        }
      ],
      "stateMutability": "view",
      "type": "function"
    },
    {
      "inputs": [
        {
          "internalType": "uint256",
          "name": "tokenId",
          "type": "uint256"
        }
      ],
      "name": "tokenURI",
      "outputs": [
        {
          "internalType": "string",
          "name": "uri",
          "type": "string"
        }
      ],
      "stateMutability": "view",
      "type": "function"
    },
    {
      "inputs": [
        {
          "internalType": "address",
          "name": "from",
          "type": "address"
        },
        {
          "internalType": "address",
          "name": "to",
          "type": "address"
        },
        {
          "internalType": "uint256",
          "name": "tokenId",
          "type": "uint256"
        }
      ],
      "name": "transferFrom",
      "outputs": [],
      "stateMutability": "nonpayable",
      "type": "function"
    },
    {
      "inputs": [
        {
          "internalType": "address",
          "name": "newOwner",
          "type": "address"
        }
      ],
      "name": "transferOwnership",
      "outputs": [],
      "stateMutability": "nonpayable",
      "type": "function"
    }
  ],
  "bytecode": "0x60806040523461051c5761330f8038038061001981610521565b92833981019060608183031261051c5780516001600160401b03811161051c5782610045918301610546565b60208201519092906001600160401b03811161051c57604091610069918401610546565b9101516001600160a01b0381169081900361051c576380ac58cd60e01b6000527fca9d3e17f264b0f3984e2634e94adb37fa3e6a8103f06aeae6fa59e21c769f5d60208190527f8ed2355fc3f859d445b81332ba1875c675be71b9fe1bab0a25be6436696b0ec7805460ff1916600117905583519091906001600160401b0381116103fe576000805160206132cf83398151915254600181811c91168015610512575b60208210146103de57601f81116104a0575b50602094601f821160011461041f57948192939495600092610414575b50508160011b916000199060031b1c1916176000805160206132cf833981519152555b82516001600160401b0381116103fe576000805160206132ef83398151915254600181811c911680156103f4575b60208210146103de57601f811161036c575b506020601f82116001146102eb57819293946000926102e0575b50508160011b916000199060031b1c1916176000805160206132ef833981519152555b7f7ea68fd2dcf1c056b94db6a0a537aa80d26fa9ab1eacd85da1ba0b61b7e7a8a680546001600160a01b031916919091179055635b5e139f60e01b6000908152602082905260409020805460ff1916600117905533610281575b6307f5828d60e41b600052806020526040600020600160ff1982541617905563152a902d60e11b6000526020526040600020600160ff19825416179055604051612d1d90816105b28239f35b7fc9ed16f33ab3a66c84bfd83099ccb2a8845871e2e1c1928f63797152f0fd54cc80546001600160a01b0319163390811790915560007f8be0079c531659141344cd1fd0a4f28419497f9722a3daafe3b4186f6b6457e08180a3610235565b0151905038806101b8565b601f198216906000805160206132ef833981519152600052806000209160005b8181106103545750958360019596971061033b575b505050811b016000805160206132ef833981519152556101db565b015160001960f88460031b161c19169055388080610320565b9192602060018192868b01518155019401920161030b565b6000805160206132ef8339815191526000527fc39bad3db5d56dccf839bc8a79759b3192b97757d993f7663c9998f4fbefc8a1601f830160051c810191602084106103d4575b601f0160051c01905b8181106103c8575061019e565b600081556001016103bb565b90915081906103b2565b634e487b7160e01b600052602260045260246000fd5b90607f169061018c565b634e487b7160e01b600052604160045260246000fd5b01519050388061013b565b601f198216956000805160206132cf833981519152600052806000209160005b8881106104885750836001959697981061046f575b505050811b016000805160206132cf8339815191525561015e565b015160001960f88460031b161c19169055388080610454565b9192602060018192868501518155019401920161043f565b6000805160206132cf8339815191526000527f565de0cfbb8a3f70c938db1afc5562690ff7c55773c7234a649300f58e3b30bc601f830160051c81019160208410610508575b601f0160051c01905b8181106104fc575061011e565b600081556001016104ef565b90915081906104e6565b90607f169061010c565b600080fd5b6040519190601f01601f191682016001600160401b038111838210176103fe57604052565b81601f8201121561051c578051906001600160401b0382116103fe57610575601f8301601f1916602001610521565b928284526020838301011161051c5760005b82811061059c57505060206000918301015290565b8060208092840101518282870101520161058756fe6080604052600436101561001257600080fd5b60003560e01c806301ffc9a71461210857806306fdde03146120ad578063081812fc14612050578063095ea7b314611e175780631548ed1914611dc557806323b872dd14611d835780632a55205a14611c905780632f2ff15d14611b0a57806342842e0e14611a9e57806342966c681461190d57806353f92e311461182657806361ba27da146117145780636352211e146116995780636a627842146114a757806370a08231146113dd57806373c8a9581461123657806375794a3c146111fa5780638bb9c5bf146110c25780638da5cb5b146110515780638dc251e314610f2f57806391d1485414610e9757806395d89b4114610e28578063a0c76f6214610db7578063a22cb46514610c7e578063b88d4fde14610b89578063c3666c3614610945578063c87b56dd14610792578063d539139314610739578063d547741f146105b6578063e1a8bf2c1461057a578063e985e9c5146104c6578063f2fde38b146103b05763f7ba94bd1461018757600080fd5b346103545760407ffffffffffffffffffffffffffffffffffffffffffffffffffffffffffffffffc3601126103545760043567ffffffffffffffff8111610354576101d6903690600401612296565b60243567ffffffffffffffff8111610354576101f6903690600401612296565b909173ffffffffffffffffffffffffffffffffffffffff7fc9ed16f33ab3a66c84bfd83099ccb2a8845871e2e1c1928f63797152f0fd54cc541673ffffffffffffffffffffffffffffffffffffffff331690810361038357508181036103595760005b81811061026257005b61026d81838761297f565b3573ffffffffffffffffffffffffffffffffffffffff81168091036103545761029782858761297f565b359081471061032257600080809381935af13d1561031a573d906102ba82612828565b916102c8604051938461247f565b82523d6000602084013e5b156102e15750600101610259565b8051156102f057805190602001fd5b7fd6bda2750000000000000000000000000000000000000000000000000000000060005260046000fd5b6060906102d3565b50477fcf4791810000000000000000000000000000000000000000000000000000000060005260045260245260446000fd5b600080fd5b7f658253360000000000000000000000000000000000000000000000000000000060005260046000fd5b7f2ef4875e0000000000000000000000000000000000000000000000000000000060005260045260246000fd5b346103545760207ffffffffffffffffffffffffffffffffffffffffffffffffffffffffffffffffc360112610354576103e76121de565b7fc9ed16f33ab3a66c84bfd83099ccb2a8845871e2e1c1928f63797152f0fd54cc9073ffffffffffffffffffffffffffffffffffffffff825416908133036104985773ffffffffffffffffffffffffffffffffffffffff169182820361044957005b827fffffffffffffffffffffffff00000000000000000000000000000000000000008254161790557f8be0079c531659141344cd1fd0a4f28419497f9722a3daafe3b4186f6b6457e0600080a3005b7f2ef4875e000000000000000000000000000000000000000000000000000000006000523360045260246000fd5b346103545760407ffffffffffffffffffffffffffffffffffffffffffffffffffffffffffffffffc360112610354576104fd6121de565b73ffffffffffffffffffffffffffffffffffffffff61051a612201565b91166000527fddf3ee18ae6d688373c219468f8be446e7ae82215f4779d821c7ea5e8c13c0c360205273ffffffffffffffffffffffffffffffffffffffff60406000209116600052602052602060ff604060002054166040519015158152f35b346103545760007ffffffffffffffffffffffffffffffffffffffffffffffffffffffffffffffffc360112610354576020604051620186a08152f35b346103545760407ffffffffffffffffffffffffffffffffffffffffffffffffffffffffffffffffc360112610354576004356105f0612201565b9073ffffffffffffffffffffffffffffffffffffffff7fc9ed16f33ab3a66c84bfd83099ccb2a8845871e2e1c1928f63797152f0fd54cc541673ffffffffffffffffffffffffffffffffffffffff331690810361038357507fc8827d3282af6f37b64c3e9e6f3ac9df286ab0bb0fccd6f8661bf19adb368b22918160005282602052604060002073ffffffffffffffffffffffffffffffffffffffff821660005260205260ff604060002054166106a357005b60008281526020938452604080822073ffffffffffffffffffffffffffffffffffffffff939093168083529285529081902080547fffffffffffffffffffffffffffffffffffffffffffffffffffffffffffffff0016905580519283529282015233918101919091527ff6391f5c32d9c69d2a47ea670b442974b53935d1edc7fd64eb21e047a839171b9080606081015b0390a1005b346103545760007ffffffffffffffffffffffffffffffffffffffffffffffffffffffffffffffffc3601126103545760206040517f6d696e74657200000000000000000000000000000000000000000000000000008152f35b346103545760207ffffffffffffffffffffffffffffffffffffffffffffffffffffffffffffffffc3601126103545761088460006004356107f3817fddf3ee18ae6d688373c219468f8be446e7ae82215f4779d821c7ea5e8c13c0c0612924565b5073ffffffffffffffffffffffffffffffffffffffff7f7ea68fd2dcf1c056b94db6a0a537aa80d26fa9ab1eacd85da1ba0b61b7e7a8a6541660405180809581947ff724dad700000000000000000000000000000000000000000000000000000000835230600484016020909392919373ffffffffffffffffffffffffffffffffffffffff60408201951681520152565b03915afa908115610939576000916108b1575b604051602080825281906108ad9082018561219b565b0390f35b3d8083833e6108c0818361247f565b8101906020818303126109315780519067ffffffffffffffff8211610935570181601f82011215610931578051926108f784612828565b92610905604051948561247f565b8484526020858401011161092e57506108ad926109289160208085019101612178565b90610897565b80fd5b8280fd5b8380fd5b6040513d6000823e3d90fd5b3461035457610953366122c7565b7fc9ed16f33ab3a66c84bfd83099ccb2a8845871e2e1c1928f63797152f0fd54cc549195939490929091339073ffffffffffffffffffffffffffffffffffffffff1681036103835750808214801590610b7f575b6103595760005b8281106109b757005b73ffffffffffffffffffffffffffffffffffffffff6109df6109da83858a61297f565b6129be565b166040517f01ffc9a70000000000000000000000000000000000000000000000000000000081527f80ac58cd000000000000000000000000000000000000000000000000000000006004820152602081602481855afa90811561093957600091610b41575b5015610b14575073ffffffffffffffffffffffffffffffffffffffff610a6e6109da83858a61297f565b1690610a7e6109da82868961297f565b91610a8a82878b61297f565b3592813b1561035457606473ffffffffffffffffffffffffffffffffffffffff916000809460405197889586947f42842e0e00000000000000000000000000000000000000000000000000000000865230600487015216602485015260448401525af191821561093957600192610b03575b50016109ae565b6000610b0e9161247f565b88610afc565b7f986b9f1f0000000000000000000000000000000000000000000000000000000060005260045260246000fd5b6020813d8211610b77575b81610b596020938361247f565b81010312610b73575190811515820361092e575089610a44565b5080fd5b3d9150610b4c565b50828214156109a7565b346103545760807ffffffffffffffffffffffffffffffffffffffffffffffffffffffffffffffffc36011261035457610bc06121de565b610bc8612201565b6044356064359167ffffffffffffffff831161035457366023840112156103545782600401359367ffffffffffffffff851161035457366024868601011161035457610c13836124ef565b610c40838383337fddf3ee18ae6d688373c219468f8be446e7ae82215f4779d821c7ea5e8c13c0c06125c6565b813b610c4857005b6000602086806024610c5c610c7c9a612828565b98610c6a6040519a8b61247f565b828a5201838901378601015233612b66565b005b346103545760407ffffffffffffffffffffffffffffffffffffffffffffffffffffffffffffffffc36011261035457610cb56121de565b602435908115158092036103545773ffffffffffffffffffffffffffffffffffffffff1690338214610d895773ffffffffffffffffffffffffffffffffffffffff33166000527fddf3ee18ae6d688373c219468f8be446e7ae82215f4779d821c7ea5e8c13c0c360205260406000208260005260205260406000207fffffffffffffffffffffffffffffffffffffffffffffffffffffffffffffff0081541660ff83161790556040519081527f17307eab39ab6107e8899845ad3d59bd9653f200f220920489ca2b5937696c3160203392a3005b7fe4215c6a000000000000000000000000000000000000000000000000000000006000523360045260246000fd5b346103545760007ffffffffffffffffffffffffffffffffffffffffffffffffffffffffffffffffc36011261035457602073ffffffffffffffffffffffffffffffffffffffff7f7ea68fd2dcf1c056b94db6a0a537aa80d26fa9ab1eacd85da1ba0b61b7e7a8a65416604051908152f35b346103545760007ffffffffffffffffffffffffffffffffffffffffffffffffffffffffffffffffc360112610354576108ad610e837f7ea68fd2dcf1c056b94db6a0a537aa80d26fa9ab1eacd85da1ba0b61b7e7a8a56129df565b60405191829160208352602083019061219b565b346103545760407ffffffffffffffffffffffffffffffffffffffffffffffffffffffffffffffffc36011261035457610ece612201565b7fc8827d3282af6f37b64c3e9e6f3ac9df286ab0bb0fccd6f8661bf19adb368b2260043560005260205273ffffffffffffffffffffffffffffffffffffffff60406000209116600052602052602060ff604060002054166040519015158152f35b346103545760207ffffffffffffffffffffffffffffffffffffffffffffffffffffffffffffffffc36011261035457610f666121de565b7fc9ed16f33ab3a66c84bfd83099ccb2a8845871e2e1c1928f63797152f0fd54cc54339073ffffffffffffffffffffffffffffffffffffffff16810361038357507f2c0cf10337caabbd02dcf226f05f5fd19a0919a41a8df8958c39b800078268579073ffffffffffffffffffffffffffffffffffffffff8116156110275773ffffffffffffffffffffffffffffffffffffffff167fffffffffffffffffffffffff0000000000000000000000000000000000000000825416179055600080f35b7f16de0c800000000000000000000000000000000000000000000000000000000060005260046000fd5b346103545760007ffffffffffffffffffffffffffffffffffffffffffffffffffffffffffffffffc36011261035457602073ffffffffffffffffffffffffffffffffffffffff7fc9ed16f33ab3a66c84bfd83099ccb2a8845871e2e1c1928f63797152f0fd54cc5416604051908152f35b346103545760207ffffffffffffffffffffffffffffffffffffffffffffffffffffffffffffffffc360112610354576004357fc8827d3282af6f37b64c3e9e6f3ac9df286ab0bb0fccd6f8661bf19adb368b228160005280602052604060002073ffffffffffffffffffffffffffffffffffffffff331660005260205260ff60406000205416156111c857600082815260209182526040808220338084529084529181902080547fffffffffffffffffffffffffffffffffffffffffffffffffffffffffffffff001690558051938452918301819052908201527ff6391f5c32d9c69d2a47ea670b442974b53935d1edc7fd64eb21e047a839171b908060608101610734565b507f7aa72882000000000000000000000000000000000000000000000000000000006000526004523360245260446000fd5b346103545760007ffffffffffffffffffffffffffffffffffffffffffffffffffffffffffffffffc360112610354576020600054604051908152f35b3461035457611244366122c7565b7fc9ed16f33ab3a66c84bfd83099ccb2a8845871e2e1c1928f63797152f0fd54cc54939493909290339073ffffffffffffffffffffffffffffffffffffffff16810361038357508084148015906113d3575b6103595760005b8481106112a657005b6112b181838861297f565b3573ffffffffffffffffffffffffffffffffffffffff8116908181036103545760006020916112e46109da868b8e61297f565b8261134e61137a6112f6898d8d61297f565b6040517fa9059cbb0000000000000000000000000000000000000000000000000000000089820190815273ffffffffffffffffffffffffffffffffffffffff9096166024820152903560448201529182906064820190565b037fffffffffffffffffffffffffffffffffffffffffffffffffffffffffffffffe0810183528261247f565b51925af115610939576000513d6113ca5750803b155b61139d575060010161129d565b7f5274afe70000000000000000000000000000000000000000000000000000000060005260045260246000fd5b60011415611390565b5082841415611296565b346103545760207ffffffffffffffffffffffffffffffffffffffffffffffffffffffffffffffffc360112610354576114146121de565b73ffffffffffffffffffffffffffffffffffffffff81161561147d5773ffffffffffffffffffffffffffffffffffffffff166000527fddf3ee18ae6d688373c219468f8be446e7ae82215f4779d821c7ea5e8c13c0c16020526020604060002054604051908152f35b7faefbce4e0000000000000000000000000000000000000000000000000000000060005260046000fd5b346103545760207ffffffffffffffffffffffffffffffffffffffffffffffffffffffffffffffffc360112610354576114de6121de565b611508337fc8827d3282af6f37b64c3e9e6f3ac9df286ab0bb0fccd6f8661bf19adb368b22612862565b600054907fffffffffffffffffffffffffffffffffffffffffffffffffffffffffffffffff821461166a576001820160005573ffffffffffffffffffffffffffffffffffffffff167fddf3ee18ae6d688373c219468f8be446e7ae82215f4779d821c7ea5e8c13c0c0811561164057826000528060205273ffffffffffffffffffffffffffffffffffffffff60406000205416611612579160209281600052835281604060002055816000527fddf3ee18ae6d688373c219468f8be446e7ae82215f4779d821c7ea5e8c13c0c18352604060002060018154019055806040519260007fddf252ad1be2c89b69c2b068fc378daa952ba7f163c4a11628f55a4df523b3ef8180a48152f35b827f753eceac0000000000000000000000000000000000000000000000000000000060005260045260246000fd5b7f7851b9cd0000000000000000000000000000000000000000000000000000000060005260046000fd5b7f4e487b7100000000000000000000000000000000000000000000000000000000600052601160045260246000fd5b346103545760207ffffffffffffffffffffffffffffffffffffffffffffffffffffffffffffffffc3601126103545760206116f66004357fddf3ee18ae6d688373c219468f8be446e7ae82215f4779d821c7ea5e8c13c0c0612924565b73ffffffffffffffffffffffffffffffffffffffff60405191168152f35b346103545760207ffffffffffffffffffffffffffffffffffffffffffffffffffffffffffffffffc360112610354577fc9ed16f33ab3a66c84bfd83099ccb2a8845871e2e1c1928f63797152f0fd54cc5460043590339073ffffffffffffffffffffffffffffffffffffffff16810361038357507f2c0cf10337caabbd02dcf226f05f5fd19a0919a41a8df8958c39b8000782685790620186a081116117f957815473ffffffffffffffffffffffffffffffffffffffff1660a09190911b7fffffffffffffffffffffffff000000000000000000000000000000000000000016179055005b7fac0404080000000000000000000000000000000000000000000000000000000060005260045260246000fd5b346103545760207ffffffffffffffffffffffffffffffffffffffffffffffffffffffffffffffffc3601126103545760043573ffffffffffffffffffffffffffffffffffffffff8116809103610354577fc9ed16f33ab3a66c84bfd83099ccb2a8845871e2e1c1928f63797152f0fd54cc54339073ffffffffffffffffffffffffffffffffffffffff168103610383577f33e85773eda69c91a470cca572dc936a94f4c242cbcbe59f4c9d8b77c16a7dda602083807fffffffffffffffffffffffff00000000000000000000000000000000000000006001541617600155604051908152a1005b346103545760207ffffffffffffffffffffffffffffffffffffffffffffffffffffffffffffffffc36011261035457600435611969337fc8827d3282af6f37b64c3e9e6f3ac9df286ab0bb0fccd6f8661bf19adb368b22612862565b7fddf3ee18ae6d688373c219468f8be446e7ae82215f4779d821c7ea5e8c13c0c0816000528060205273ffffffffffffffffffffffffffffffffffffffff604060002054168015611a70576000918383526020527fdead000000000000000000000000000000000000000000000000000000000000604083205573ffffffffffffffffffffffffffffffffffffffff811682527fddf3ee18ae6d688373c219468f8be446e7ae82215f4779d821c7ea5e8c13c0c1602052604082207fffffffffffffffffffffffffffffffffffffffffffffffffffffffffffffffff81540190557fddf252ad1be2c89b69c2b068fc378daa952ba7f163c4a11628f55a4df523b3ef8280a4005b827fdd5604750000000000000000000000000000000000000000000000000000000060005260045260246000fd5b3461035457611aac36612224565b611ab8819392936124ef565b611ae5818484337fddf3ee18ae6d688373c219468f8be446e7ae82215f4779d821c7ea5e8c13c0c06125c6565b823b611aed57005b610c7c9260405192611b0060208561247f565b6000845233612b66565b346103545760407ffffffffffffffffffffffffffffffffffffffffffffffffffffffffffffffffc36011261035457600435611b44612201565b9073ffffffffffffffffffffffffffffffffffffffff7fc9ed16f33ab3a66c84bfd83099ccb2a8845871e2e1c1928f63797152f0fd54cc541673ffffffffffffffffffffffffffffffffffffffff331690810361038357507fc8827d3282af6f37b64c3e9e6f3ac9df286ab0bb0fccd6f8661bf19adb368b22918160005282602052604060002073ffffffffffffffffffffffffffffffffffffffff821660005260205260ff6040600020541615611bf857005b60008281526020938452604080822073ffffffffffffffffffffffffffffffffffffffff939093168083529285529081902080547fffffffffffffffffffffffffffffffffffffffffffffffffffffffffffffff0016600117905580519283529282015233918101919091527f2f8788117e7eff1d82e926ec794901d17c78024a50270940304540a733656f0d908060608101610734565b346103545760407ffffffffffffffffffffffffffffffffffffffffffffffffffffffffffffffffc3601126103545773ffffffffffffffffffffffffffffffffffffffff6024357f2c0cf10337caabbd02dcf226f05f5fd19a0919a41a8df8958c39b8000782685754908160a01c9080158015611d7b575b15611d455750506108ad60005b60405193849316836020909392919373ffffffffffffffffffffffffffffffffffffffff60408201951681520152565b6108ad91620186a0821015611d6857611d6290620186a092612815565b04611d15565b620186a0611d769204612815565b611d15565b508115611d08565b3461035457610c7c611d9436612224565b91611d9e836124ef565b337fddf3ee18ae6d688373c219468f8be446e7ae82215f4779d821c7ea5e8c13c0c06125c6565b346103545760007ffffffffffffffffffffffffffffffffffffffffffffffffffffffffffffffffc36011261035457602073ffffffffffffffffffffffffffffffffffffffff60015416604051908152f35b346103545760407ffffffffffffffffffffffffffffffffffffffffffffffffffffffffffffffffc36011261035457611e4e6121de565b602435907fddf3ee18ae6d688373c219468f8be446e7ae82215f4779d821c7ea5e8c13c0c09082600052816020526040600020549173ffffffffffffffffffffffffffffffffffffffff83169182156120225773ffffffffffffffffffffffffffffffffffffffff1692828414611ff457611eca338484612ae6565b15611fbe5783611f2d577401000000000000000000000000000000000000000016611f19575b505b7f8c5be1e5ebec7d5bd14f71427d1e84f3dd0314c0f7b2291e5b200ac8c7c3b925600080a4005b836000526020528060406000205583611ef0565b90740100000000000000000000000000000000000000008217809203611faa575b5050826000527fddf3ee18ae6d688373c219468f8be446e7ae82215f4779d821c7ea5e8c13c0c26020526040600020827fffffffffffffffffffffffff0000000000000000000000000000000000000000825416179055611ef2565b846000526020526040600020558380611f4e565b84837fc7563a18000000000000000000000000000000000000000000000000000000006000523360045260245260445260646000fd5b827fb7fdc0100000000000000000000000000000000000000000000000000000000060005260045260246000fd5b847fdd5604750000000000000000000000000000000000000000000000000000000060005260045260246000fd5b346103545760207ffffffffffffffffffffffffffffffffffffffffffffffffffffffffffffffffc3601126103545760206116f66004357fddf3ee18ae6d688373c219468f8be446e7ae82215f4779d821c7ea5e8c13c0c0612409565b346103545760007ffffffffffffffffffffffffffffffffffffffffffffffffffffffffffffffffc360112610354576108ad610e837f7ea68fd2dcf1c056b94db6a0a537aa80d26fa9ab1eacd85da1ba0b61b7e7a8a46129df565b346103545760207ffffffffffffffffffffffffffffffffffffffffffffffffffffffffffffffffc360112610354576004357fffffffff00000000000000000000000000000000000000000000000000000000811681036103545761216e60209161235a565b6040519015158152f35b60005b83811061218b5750506000910152565b818101518382015260200161217b565b907fffffffffffffffffffffffffffffffffffffffffffffffffffffffffffffffe0601f6020936121d781518092818752878088019101612178565b0116010190565b6004359073ffffffffffffffffffffffffffffffffffffffff8216820361035457565b6024359073ffffffffffffffffffffffffffffffffffffffff8216820361035457565b7ffffffffffffffffffffffffffffffffffffffffffffffffffffffffffffffffc60609101126103545760043573ffffffffffffffffffffffffffffffffffffffff81168103610354579060243573ffffffffffffffffffffffffffffffffffffffff81168103610354579060443590565b9181601f840112156103545782359167ffffffffffffffff8311610354576020808501948460051b01011161035457565b60607ffffffffffffffffffffffffffffffffffffffffffffffffffffffffffffffffc8201126103545760043567ffffffffffffffff8111610354578161231091600401612296565b9290929160243567ffffffffffffffff8111610354578161233391600401612296565b929092916044359067ffffffffffffffff82116103545761235691600401612296565b9091565b7fffffffff00000000000000000000000000000000000000000000000000000000167fffffffff000000000000000000000000000000000000000000000000000000008114612403577f01ffc9a70000000000000000000000000000000000000000000000000000000081146123fd576000527fca9d3e17f264b0f3984e2634e94adb37fa3e6a8103f06aeae6fa59e21c769f5d60205260ff6040600020541690565b50600190565b50600090565b816000528060205260406000205473ffffffffffffffffffffffffffffffffffffffff811615611a7057740100000000000000000000000000000000000000001615612478576002916000520160205273ffffffffffffffffffffffffffffffffffffffff6040600020541690565b5050600090565b90601f7fffffffffffffffffffffffffffffffffffffffffffffffffffffffffffffffe0910116810190811067ffffffffffffffff8211176124c057604052565b7f4e487b7100000000000000000000000000000000000000000000000000000000600052604160045260246000fd5b73ffffffffffffffffffffffffffffffffffffffff600154169081612512575050565b6020602492604051938480927f0ac7843c0000000000000000000000000000000000000000000000000000000082528560048301525afa91821561093957600092612592575b5081612562575050565b7ff11294ae0000000000000000000000000000000000000000000000000000000060005260045260245260446000fd5b9091506020813d6020116125be575b816125ae6020938361247f565b8101031261035457519038612558565b3d91506125a1565b909273ffffffffffffffffffffffffffffffffffffffff169283156127eb57846000528160205260406000205473ffffffffffffffffffffffffffffffffffffffff81169384156127bd5773ffffffffffffffffffffffffffffffffffffffff811680950361278b578261263a9185612ae6565b156126d0575b5050836000528060205282604060002055828203612681575b507fddf252ad1be2c89b69c2b068fc378daa952ba7f163c4a11628f55a4df523b3ef600080a4565b600101816000528060205260406000207fffffffffffffffffffffffffffffffffffffffffffffffffffffffffffffffff81540190558260005260205260406000206001815401905538612659565b7401000000000000000000000000000000000000000016158015612745575b6126f95780612640565b8273ffffffffffffffffffffffffffffffffffffffff86927fa4a3018b000000000000000000000000000000000000000000000000000000006000521660045260245260445260646000fd5b50846000526002820160205273ffffffffffffffffffffffffffffffffffffffff6040600020541673ffffffffffffffffffffffffffffffffffffffff821614156126ef565b86857f14dbb5360000000000000000000000000000000000000000000000000000000060005260045260245260446000fd5b867fdd5604750000000000000000000000000000000000000000000000000000000060005260045260246000fd5b7f86c870670000000000000000000000000000000000000000000000000000000060005260046000fd5b8181029291811591840414171561166a57565b67ffffffffffffffff81116124c057601f017fffffffffffffffffffffffffffffffffffffffffffffffffffffffffffffffe01660200190565b7f6d696e7465720000000000000000000000000000000000000000000000000000600052602052604060002073ffffffffffffffffffffffffffffffffffffffff821660005260205260ff60406000205416156128bc5750565b73ffffffffffffffffffffffffffffffffffffffff907f7aa72882000000000000000000000000000000000000000000000000000000006000527f6d696e74657200000000000000000000000000000000000000000000000000006004521660245260446000fd5b8160005260205273ffffffffffffffffffffffffffffffffffffffff60406000205416908115612952575090565b7fdd5604750000000000000000000000000000000000000000000000000000000060005260045260246000fd5b919081101561298f5760051b0190565b7f4e487b7100000000000000000000000000000000000000000000000000000000600052603260045260246000fd5b3573ffffffffffffffffffffffffffffffffffffffff811681036103545790565b906040519160008154918260011c92600181168015612adc575b602085108114612aaf57848752869392918115612a6f5750600114612a28575b50612a269250038361247f565b565b90506000929192526020600020906000915b818310612a53575050906020612a269282010138612a19565b6020919350806001915483858901015201910190918492612a3a565b60209350612a269592507fffffffffffffffffffffffffffffffffffffffffffffffffffffffffffffff0091501682840152151560051b82010138612a19565b6024847f4e487b710000000000000000000000000000000000000000000000000000000081526022600452fd5b93607f16936129f9565b73ffffffffffffffffffffffffffffffffffffffff8083169084161492918315612b11575b50505090565b600392935073ffffffffffffffffffffffffffffffffffffffff166000520160205273ffffffffffffffffffffffffffffffffffffffff6040600020911660005260205260ff60406000205416388080612b0b565b73ffffffffffffffffffffffffffffffffffffffff90612bd8826020949597969716958360405196879586957f150b7a0200000000000000000000000000000000000000000000000000000000875216600486015216602484015287604484015260806064840152608483019061219b565b03816000865af190811561093957600091612c6c575b507fffffffff000000000000000000000000000000000000000000000000000000007f150b7a0200000000000000000000000000000000000000000000000000000000911603612c3c575050565b7fc215a7a10000000000000000000000000000000000000000000000000000000060005260045260245260446000fd5b6020813d602011612cdf575b81612c856020938361247f565b81010312610b735751907fffffffff000000000000000000000000000000000000000000000000000000008216820361092e57507fffffffff00000000000000000000000000000000000000000000000000000000612bee565b3d9150612c7856fea26469706673582212202abaf13513fe847c637494dc15f23e5396e583e2c3c51bc346e32a60e2f9042864736f6c634300081e00337ea68fd2dcf1c056b94db6a0a537aa80d26fa9ab1eacd85da1ba0b61b7e7a8a47ea68fd2dcf1c056b94db6a0a537aa80d26fa9ab1eacd85da1ba0b61b7e7a8a5",
  "linkReferences": {},
  "deployedLinkReferences": {}
}