{
  "_format": "hh-sol-artifact-1",
  "contractName": "ScratchingBoard",
  "sourceName": "contracts/token/ERC721/ScratchingBoard.sol",
  "abi": [
    {
      "inputs": [
        {
          "internalType": "string",
          "name": "tokenName",
          "type": "string"
        },
        {
          "internalType": "string",
          "name": "tokenSymbol",
          "type": "string"
        },
        {
          "internalType": "contract ITokenMetadataResolver",
          "name": "metadataResolver",
          "type": "address"
        },
        {
          "internalType": "contract IForwarderRegistry",
          "name": "forwarderRegistry",
          "type": "address"
        }
      ],
      "stateMutability": "nonpayable",
      "type": "constructor"
    },
    {
      "inputs": [
        {
          "internalType": "uint256",
          "name": "percentage",
          "type": "uint256"
        }
      ],
      "name": "ERC2981IncorrectRoyaltyPercentage",
      "type": "error"
    },
    {
      "inputs": [],
      "name": "ERC2981IncorrectRoyaltyReceiver",
      "type": "error"
    },
    {
      "inputs": [],
      "name": "ERC721BalanceOfAddressZero",
      "type": "error"
    },
    {
      "inputs": [
        {
          "internalType": "uint256",
          "name": "tokenId",
          "type": "uint256"
        }
      ],
      "name": "ERC721ExistingToken",
      "type": "error"
    },
    {
      "inputs": [],
      "name": "ERC721MintToAddressZero",
      "type": "error"
    },
    {
      "inputs": [
        {
          "internalType": "address",
          "name": "sender",
          "type": "address"
        },
        {
          "internalType": "address",
          "name": "owner",
          "type": "address"
        },
        {
          "internalType": "uint256",
          "name": "tokenId",
          "type": "uint256"
        }
      ],
      "name": "ERC721NonApprovedForApproval",
      "type": "error"
    },
    {
      "inputs": [
        {
          "internalType": "address",
          "name": "sender",
          "type": "address"
        },
        {
          "internalType": "address",
          "name": "owner",
          "type": "address"
        },
        {
          "internalType": "uint256",
          "name": "tokenId",
          "type": "uint256"
        }
      ],
      "name": "ERC721NonApprovedForTransfer",
      "type": "error"
    },
    {
      "inputs": [
        {
          "internalType": "uint256",
          "name": "tokenId",
          "type": "uint256"
        }
      ],
      "name": "ERC721NonExistingToken",
      "type": "error"
    },
    {
      "inputs": [
        {
          "internalType": "address",
          "name": "account",
          "type": "address"
        },
        {
          "internalType": "uint256",
          "name": "tokenId",
          "type": "uint256"
        }
      ],
      "name": "ERC721NonOwnedToken",
      "type": "error"
    },
    {
      "inputs": [
        {
          "internalType": "address",
          "name": "recipient",
          "type": "address"
        },
        {
          "internalType": "uint256",
          "name": "tokenId",
          "type": "uint256"
        }
      ],
      "name": "ERC721SafeTransferRejected",
      "type": "error"
    },
    {
      "inputs": [
        {
          "internalType": "address",
          "name": "account",
          "type": "address"
        }
      ],
      "name": "ERC721SelfApproval",
      "type": "error"
    },
    {
      "inputs": [
        {
          "internalType": "address",
          "name": "account",
          "type": "address"
        }
      ],
      "name": "ERC721SelfApprovalForAll",
      "type": "error"
    },
    {
      "inputs": [],
      "name": "ERC721TransferToAddressZero",
      "type": "error"
    },
    {
      "inputs": [],
      "name": "FailedCall",
      "type": "error"
    },
    {
      "inputs": [],
      "name": "IllegalInterfaceId",
      "type": "error"
    },
    {
      "inputs": [],
      "name": "InconsistentArrayLengths",
      "type": "error"
    },
    {
      "inputs": [
        {
          "internalType": "address",
          "name": "tokenContract",
          "type": "address"
        }
      ],
      "name": "IncorrectTokenContractType",
      "type": "error"
    },
    {
      "inputs": [
        {
          "internalType": "uint256",
          "name": "balance",
          "type": "uint256"
        },
        {
          "internalType": "uint256",
          "name": "needed",
          "type": "uint256"
        }
      ],
      "name": "InsufficientBalance",
      "type": "error"
    },
    {
      "inputs": [
        {
          "internalType": "address",
          "name": "account",
          "type": "address"
        }
      ],
      "name": "NotContractOwner",
      "type": "error"
    },
    {
      "inputs": [
        {
          "internalType": "bytes32",
          "name": "role",
          "type": "bytes32"
        },
        {
          "internalType": "address",
          "name": "account",
          "type": "address"
        }
      ],
      "name": "NotRoleHolder",
      "type": "error"
    },
    {
      "inputs": [
        {
          "internalType": "uint256",
          "name": "tokenId",
          "type": "uint256"
        },
        {
          "internalType": "uint256",
          "name": "requestId",
          "type": "uint256"
        }
      ],
      "name": "PendingScratchRequest",
      "type": "error"
    },
    {
      "inputs": [
        {
          "internalType": "address",
          "name": "token",
          "type": "address"
        }
      ],
      "name": "SafeERC20FailedOperation",
      "type": "error"
    },
    {
      "anonymous": false,
      "inputs": [
        {
          "indexed": true,
          "internalType": "address",
          "name": "owner",
          "type": "address"
        },
        {
          "indexed": true,
          "internalType": "address",
          "name": "approved",
          "type": "address"
        },
        {
          "indexed": true,
          "internalType": "uint256",
          "name": "tokenId",
          "type": "uint256"
        }
      ],
      "name": "Approval",
      "type": "event"
    },
    {
      "anonymous": false,
      "inputs": [
        {
          "indexed": true,
          "internalType": "address",
          "name": "owner",
          "type": "address"
        },
        {
          "indexed": true,
          "internalType": "address",
          "name": "operator",
          "type": "address"
        },
        {
          "indexed": false,
          "internalType": "bool",
          "name": "approved",
          "type": "bool"
        }
      ],
      "name": "ApprovalForAll",
      "type": "event"
    },
    {
      "anonymous": false,
      "inputs": [
        {
          "indexed": true,
          "internalType": "address",
          "name": "previousOwner",
          "type": "address"
        },
        {
          "indexed": true,
          "internalType": "address",
          "name": "newOwner",
          "type": "address"
        }
      ],
      "name": "OwnershipTransferred",
      "type": "event"
    },
    {
      "anonymous": false,
      "inputs": [
        {
          "indexed": false,
          "internalType": "bytes32",
          "name": "role",
          "type": "bytes32"
        },
        {
          "indexed": false,
          "internalType": "address",
          "name": "account",
          "type": "address"
        },
        {
          "indexed": false,
          "internalType": "address",
          "name": "operator",
          "type": "address"
        }
      ],
      "name": "RoleGranted",
      "type": "event"
    },
    {
      "anonymous": false,
      "inputs": [
        {
          "indexed": false,
          "internalType": "bytes32",
          "name": "role",
          "type": "bytes32"
        },
        {
          "indexed": false,
          "internalType": "address",
          "name": "account",
          "type": "address"
        },
        {
          "indexed": false,
          "internalType": "address",
          "name": "operator",
          "type": "address"
        }
      ],
      "name": "RoleRevoked",
      "type": "event"
    },
    {
      "anonymous": false,
      "inputs": [
        {
          "indexed": false,
          "internalType": "contract IScratching",
          "name": "scratchingContract",
          "type": "address"
        }
      ],
      "name": "ScratchingContractSet",
      "type": "event"
    },
    {
      "anonymous": false,
      "inputs": [
        {
          "indexed": true,
          "internalType": "address",
          "name": "from",
          "type": "address"
        },
        {
          "indexed": true,
          "internalType": "address",
          "name": "to",
          "type": "address"
        },
        {
          "indexed": true,
          "internalType": "uint256",
          "name": "tokenId",
          "type": "uint256"
        }
      ],
      "name": "Transfer",
      "type": "event"
    },
    {
      "inputs": [],
      "name": "MINTER_ROLE",
      "outputs": [
        {
          "internalType": "bytes32",
          "name": "",
          "type": "bytes32"
        }
      ],
      "stateMutability": "view",
      "type": "function"
    },
    {
      "inputs": [],
      "name": "ROYALTY_FEE_DENOMINATOR",
      "outputs": [
        {
          "internalType": "uint256",
          "name": "",
          "type": "uint256"
        }
      ],
      "stateMutability": "view",
      "type": "function"
    },
    {
      "inputs": [
        {
          "internalType": "address",
          "name": "to",
          "type": "address"
        },
        {
          "internalType": "uint256",
          "name": "tokenId",
          "type": "uint256"
        }
      ],
      "name": "approve",
      "outputs": [],
      "stateMutability": "nonpayable",
      "type": "function"
    },
    {
      "inputs": [
        {
          "internalType": "address",
          "name": "owner",
          "type": "address"
        }
      ],
      "name": "balanceOf",
      "outputs": [
        {
          "internalType": "uint256",
          "name": "balance",
          "type": "uint256"
        }
      ],
      "stateMutability": "view",
      "type": "function"
    },
    {
      "inputs": [
        {
          "internalType": "uint256",
          "name": "tokenId",
          "type": "uint256"
        }
      ],
      "name": "burn",
      "outputs": [],
      "stateMutability": "nonpayable",
      "type": "function"
    },
    {
      "inputs": [],
      "name": "forwarderRegistry",
      "outputs": [
        {
          "internalType": "contract IForwarderRegistry",
          "name": "",
          "type": "address"
        }
      ],
      "stateMutability": "view",
      "type": "function"
    },
    {
      "inputs": [
        {
          "internalType": "uint256",
          "name": "tokenId",
          "type": "uint256"
        }
      ],
      "name": "getApproved",
      "outputs": [
        {
          "internalType": "address",
          "name": "approved",
          "type": "address"
        }
      ],
      "stateMutability": "view",
      "type": "function"
    },
    {
      "inputs": [
        {
          "internalType": "bytes32",
          "name": "role",
          "type": "bytes32"
        },
        {
          "internalType": "address",
          "name": "account",
          "type": "address"
        }
      ],
      "name": "grantRole",
      "outputs": [],
      "stateMutability": "nonpayable",
      "type": "function"
    },
    {
      "inputs": [
        {
          "internalType": "bytes32",
          "name": "role",
          "type": "bytes32"
        },
        {
          "internalType": "address",
          "name": "account",
          "type": "address"
        }
      ],
      "name": "hasRole",
      "outputs": [
        {
          "internalType": "bool",
          "name": "hasRole_",
          "type": "bool"
        }
      ],
      "stateMutability": "view",
      "type": "function"
    },
    {
      "inputs": [
        {
          "internalType": "address",
          "name": "owner",
          "type": "address"
        },
        {
          "internalType": "address",
          "name": "operator",
          "type": "address"
        }
      ],
      "name": "isApprovedForAll",
      "outputs": [
        {
          "internalType": "bool",
          "name": "approvedForAll",
          "type": "bool"
        }
      ],
      "stateMutability": "view",
      "type": "function"
    },
    {
      "inputs": [
        {
          "internalType": "address",
          "name": "forwarder",
          "type": "address"
        }
      ],
      "name": "isTrustedForwarder",
      "outputs": [
        {
          "internalType": "bool",
          "name": "",
          "type": "bool"
        }
      ],
      "stateMutability": "view",
      "type": "function"
    },
    {
      "inputs": [],
      "name": "metadataResolver",
      "outputs": [
        {
          "internalType": "contract ITokenMetadataResolver",
          "name": "tokenMetadataResolver",
          "type": "address"
        }
      ],
      "stateMutability": "view",
      "type": "function"
    },
    {
      "inputs": [
        {
          "internalType": "address",
          "name": "to",
          "type": "address"
        }
      ],
      "name": "mint",
      "outputs": [
        {
          "internalType": "uint256",
          "name": "tokenId",
          "type": "uint256"
        }
      ],
      "stateMutability": "nonpayable",
      "type": "function"
    },
    {
      "inputs": [],
      "name": "name",
      "outputs": [
        {
          "internalType": "string",
          "name": "tokenName",
          "type": "string"
        }
      ],
      "stateMutability": "view",
      "type": "function"
    },
    {
      "inputs": [],
      "name": "nextTokenId",
      "outputs": [
        {
          "internalType": "uint256",
          "name": "",
          "type": "uint256"
        }
      ],
      "stateMutability": "view",
      "type": "function"
    },
    {
      "inputs": [],
      "name": "owner",
      "outputs": [
        {
          "internalType": "address",
          "name": "",
          "type": "address"
        }
      ],
      "stateMutability": "view",
      "type": "function"
    },
    {
      "inputs": [
        {
          "internalType": "uint256",
          "name": "tokenId",
          "type": "uint256"
        }
      ],
      "name": "ownerOf",
      "outputs": [
        {
          "internalType": "address",
          "name": "tokenOwner",
          "type": "address"
        }
      ],
      "stateMutability": "view",
      "type": "function"
    },
    {
      "inputs": [
        {
          "internalType": "address[]",
          "name": "accounts",
          "type": "address[]"
        },
        {
          "internalType": "contract IERC20[]",
          "name": "tokens",
          "type": "address[]"
        },
        {
          "internalType": "uint256[]",
          "name": "amounts",
          "type": "uint256[]"
        }
      ],
      "name": "recoverERC20s",
      "outputs": [],
      "stateMutability": "nonpayable",
      "type": "function"
    },
    {
      "inputs": [
        {
          "internalType": "address[]",
          "name": "accounts",
          "type": "address[]"
        },
        {
          "internalType": "contract IERC721[]",
          "name": "contracts",
          "type": "address[]"
        },
        {
          "internalType": "uint256[]",
          "name": "tokenIds",
          "type": "uint256[]"
        }
      ],
      "name": "recoverERC721s",
      "outputs": [],
      "stateMutability": "nonpayable",
      "type": "function"
    },
    {
      "inputs": [
        {
          "internalType": "address payable[]",
          "name": "accounts",
          "type": "address[]"
        },
        {
          "internalType": "uint256[]",
          "name": "amounts",
          "type": "uint256[]"
        }
      ],
      "name": "recoverETH",
      "outputs": [],
      "stateMutability": "nonpayable",
      "type": "function"
    },
    {
      "inputs": [
        {
          "internalType": "bytes32",
          "name": "role",
          "type": "bytes32"
        }
      ],
      "name": "renounceRole",
      "outputs": [],
      "stateMutability": "nonpayable",
      "type": "function"
    },
    {
      "inputs": [
        {
          "internalType": "bytes32",
          "name": "role",
          "type": "bytes32"
        },
        {
          "internalType": "address",
          "name": "account",
          "type": "address"
        }
      ],
      "name": "revokeRole",
      "outputs": [],
      "stateMutability": "nonpayable",
      "type": "function"
    },
    {
      "inputs": [
        {
          "internalType": "uint256",
          "name": "tokenId",
          "type": "uint256"
        },
        {
          "internalType": "uint256",
          "name": "salePrice",
          "type": "uint256"
        }
      ],
      "name": "royaltyInfo",
      "outputs": [
        {
          "internalType": "address",
          "name": "receiver",
          "type": "address"
        },
        {
          "internalType": "uint256",
          "name": "royaltyAmount",
          "type": "uint256"
        }
      ],
      "stateMutability": "view",
      "type": "function"
    },
    {
      "inputs": [
        {
          "internalType": "address",
          "name": "from",
          "type": "address"
        },
        {
          "internalType": "address",
          "name": "to",
          "type": "address"
        },
        {
          "internalType": "uint256",
          "name": "tokenId",
          "type": "uint256"
        }
      ],
      "name": "safeTransferFrom",
      "outputs": [],
      "stateMutability": "nonpayable",
      "type": "function"
    },
    {
      "inputs": [
        {
          "internalType": "address",
          "name": "from",
          "type": "address"
        },
        {
          "internalType": "address",
          "name": "to",
          "type": "address"
        },
        {
          "internalType": "uint256",
          "name": "tokenId",
          "type": "uint256"
        },
        {
          "internalType": "bytes",
          "name": "data",
          "type": "bytes"
        }
      ],
      "name": "safeTransferFrom",
      "outputs": [],
      "stateMutability": "nonpayable",
      "type": "function"
    },
    {
      "inputs": [],
      "name": "scratchingContract",
      "outputs": [
        {
          "internalType": "contract IScratching",
          "name": "",
          "type": "address"
        }
      ],
      "stateMutability": "view",
      "type": "function"
    },
    {
      "inputs": [
        {
          "internalType": "address",
          "name": "operator",
          "type": "address"
        },
        {
          "internalType": "bool",
          "name": "approved",
          "type": "bool"
        }
      ],
      "name": "setApprovalForAll",
      "outputs": [],
      "stateMutability": "nonpayable",
      "type": "function"
    },
    {
      "inputs": [
        {
          "internalType": "uint256",
          "name": "percentage",
          "type": "uint256"
        }
      ],
      "name": "setRoyaltyPercentage",
      "outputs": [],
      "stateMutability": "nonpayable",
      "type": "function"
    },
    {
      "inputs": [
        {
          "internalType": "address",
          "name": "receiver",
          "type": "address"
        }
      ],
      "name": "setRoyaltyReceiver",
      "outputs": [],
      "stateMutability": "nonpayable",
      "type": "function"
    },
    {
      "inputs": [
        {
          "internalType": "contract IScratching",
          "name": "scratching",
          "type": "address"
        }
      ],
      "name": "setScratchingContract",
      "outputs": [],
      "stateMutability": "nonpayable",
      "type": "function"
    },
    {
      "inputs": [
        {
          "internalType": "bytes4",
          "name": "interfaceId",
          "type": "bytes4"
        }
      ],
      "name": "supportsInterface",
      "outputs": [
        {
          "internalType": "bool",
          "name": "",
          "type": "bool"
        }
      ],
      "stateMutability": "view",
      "type": "function"
    },
    {
      "inputs": [],
      "name": "symbol",
      "outputs": [
        {
          "internalType": "string",
          "name": "tokenSymbol",
          "type": "string"
        }
      ],
      "stateMutability": "view",
      "type": "function"
    },
    {
      "inputs": [
        {
          "internalType": "uint256",
          "name": "tokenId",
          "type": "uint256"
        }
      ],
      "name": "tokenURI",
      "outputs": [
        {
          "internalType": "string",
          "name": "uri",
          "type": "string"
        }
      ],
      "stateMutability": "view",
      "type": "function"
    },
    {
      "inputs": [
        {
          "internalType": "address",
          "name": "from",
          "type": "address"
        },
        {
          "internalType": "address",
          "name": "to",
          "type": "address"
        },
        {
          "internalType": "uint256",
          "name": "tokenId",
          "type": "uint256"
        }
      ],
      "name": "transferFrom",
      "outputs": [],
      "stateMutability": "nonpayable",
      "type": "function"
    },
    {
      "inputs": [
        {
          "internalType": "address",
          "name": "newOwner",
          "type": "address"
        }
      ],
      "name": "transferOwnership",
      "outputs": [],
      "stateMutability": "nonpayable",
      "type": "function"
    }
  ],
  "bytecode": "0x60a060405234610558576135f5803803806100198161055d565b9283398101906080818303126105585780516001600160401b0381116105585782610045918301610582565b602082015190926001600160401b03821161055857610065918301610582565b604082015190926001600160a01b0382169290918390036105585760600151916001600160a01b0383168303610558576380ac58cd60e01b6000527fca9d3e17f264b0f3984e2634e94adb37fa3e6a8103f06aeae6fa59e21c769f5d60208190527f8ed2355fc3f859d445b81332ba1875c675be71b9fe1bab0a25be6436696b0ec7805460ff19166001179055825190926001600160401b03821161042e576000805160206135b58339815191525490600182811c9216801561054e575b602083101461040e5781601f8493116104d1575b50602090601f831160011461044f57600092610444575b50508160011b916000199060031b1c1916176000805160206135b5833981519152555b83516001600160401b03811161042e576000805160206135d583398151915254600181811c91168015610424575b602082101461040e57601f811161039c575b50602094601f821160011461031b57948192939495600092610310575b50508160011b916000199060031b1c1916176000805160206135d5833981519152555b7f7ea68fd2dcf1c056b94db6a0a537aa80d26fa9ab1eacd85da1ba0b61b7e7a8a680546001600160a01b031916919091179055635b5e139f60e01b6000908152602082905260409020805460ff19166001179055336102b1575b6307f5828d60e41b600052806020526040600020600160ff1982541617905563152a902d60e11b6000526020526040600020600160ff19825416179055608052604051612fc790816105ee8239608051818181611d71015281816124930152612c8f0152f35b7fc9ed16f33ab3a66c84bfd83099ccb2a8845871e2e1c1928f63797152f0fd54cc80546001600160a01b0319163390811790915560007f8be0079c531659141344cd1fd0a4f28419497f9722a3daafe3b4186f6b6457e08180a361024b565b0151905038806101ce565b601f198216956000805160206135d5833981519152600052806000209160005b8881106103845750836001959697981061036b575b505050811b016000805160206135d5833981519152556101f1565b015160001960f88460031b161c19169055388080610350565b9192602060018192868501518155019401920161033b565b6000805160206135d58339815191526000527fc39bad3db5d56dccf839bc8a79759b3192b97757d993f7663c9998f4fbefc8a1601f830160051c81019160208410610404575b601f0160051c01905b8181106103f857506101b1565b600081556001016103eb565b90915081906103e2565b634e487b7160e01b600052602260045260246000fd5b90607f169061019f565b634e487b7160e01b600052604160045260246000fd5b01519050388061014e565b6000805160206135b583398151915260009081528281209350601f198516905b8181106104b957509084600195949392106104a0575b505050811b016000805160206135b583398151915255610171565b015160001960f88460031b161c19169055388080610485565b9293602060018192878601518155019501930161046f565b6000805160206135b58339815191526000529091507f565de0cfbb8a3f70c938db1afc5562690ff7c55773c7234a649300f58e3b30bc601f840160051c81019160208510610544575b90601f859493920160051c01905b8181106105355750610137565b60008155849350600101610528565b909150819061051a565b91607f1691610123565b600080fd5b6040519190601f01601f191682016001600160401b0381118382101761042e57604052565b81601f82011215610558578051906001600160401b03821161042e576105b1601f8301601f191660200161055d565b92828452602083830101116105585760005b8281106105d857505060206000918301015290565b806020809284010151828287010152016105c356fe6080604052600436101561001257600080fd5b60003560e01c806301ffc9a71461223457806306fdde03146121d9578063081812fc1461217c578063095ea7b314611f245780631548ed1914611ed257806323b872dd14611e885780632a55205a14611d955780632b4c9f1614611d265780632f2ff15d14611b9a57806342842e0e14611b2857806342966c681461198f57806353f92e31146118a8578063572b6c051461185d57806361ba27da146117415780636352211e146116c65780636a627842146114d457806370a082311461140a57806373c8a9581461125a57806375794a3c1461121e5780638bb9c5bf146110af5780638da5cb5b1461103e5780638dc251e314610f1157806391d1485414610e7957806395d89b4114610e0a578063a0c76f6214610d99578063a22cb46514610c6e578063b88d4fde14610b71578063c3666c3614610934578063c87b56dd14610781578063d539139314610728578063d547741f1461059f578063e1a8bf2c14610563578063e985e9c5146104af578063f2fde38b146103bb5763f7ba94bd1461019d57600080fd5b3461035f5760407ffffffffffffffffffffffffffffffffffffffffffffffffffffffffffffffffc36011261035f5760043567ffffffffffffffff811161035f576101ec9036906004016123b8565b60243567ffffffffffffffff811161035f5761020c9036906004016123b8565b90917fc9ed16f33ab3a66c84bfd83099ccb2a8845871e2e1c1928f63797152f0fd54cc73ffffffffffffffffffffffffffffffffffffffff8061024d612c78565b925416911690810361038e57508181036103645760005b81811061026d57005b610278818387612af9565b3573ffffffffffffffffffffffffffffffffffffffff811680910361035f576102a2828587612af9565b359081471061032d57600080809381935af13d15610325573d906102c5826129a2565b916102d360405193846125f9565b82523d6000602084013e5b156102ec5750600101610264565b8051156102fb57805190602001fd5b7fd6bda2750000000000000000000000000000000000000000000000000000000060005260046000fd5b6060906102de565b50477fcf4791810000000000000000000000000000000000000000000000000000000060005260045260245260446000fd5b600080fd5b7f658253360000000000000000000000000000000000000000000000000000000060005260046000fd5b7f2ef4875e0000000000000000000000000000000000000000000000000000000060005260045260246000fd5b3461035f5760207ffffffffffffffffffffffffffffffffffffffffffffffffffffffffffffffffc36011261035f576103f2612300565b7fc9ed16f33ab3a66c84bfd83099ccb2a8845871e2e1c1928f63797152f0fd54cc9061041c612c78565b9073ffffffffffffffffffffffffffffffffffffffff80845416921682810361038e575073ffffffffffffffffffffffffffffffffffffffff169182820361046057005b827fffffffffffffffffffffffff00000000000000000000000000000000000000008254161790557f8be0079c531659141344cd1fd0a4f28419497f9722a3daafe3b4186f6b6457e0600080a3005b3461035f5760407ffffffffffffffffffffffffffffffffffffffffffffffffffffffffffffffffc36011261035f576104e6612300565b73ffffffffffffffffffffffffffffffffffffffff610503612323565b91166000527fddf3ee18ae6d688373c219468f8be446e7ae82215f4779d821c7ea5e8c13c0c360205273ffffffffffffffffffffffffffffffffffffffff60406000209116600052602052602060ff604060002054166040519015158152f35b3461035f5760007ffffffffffffffffffffffffffffffffffffffffffffffffffffffffffffffffc36011261035f576020604051620186a08152f35b3461035f5760407ffffffffffffffffffffffffffffffffffffffffffffffffffffffffffffffffc36011261035f576004356105d9612323565b6105e1612c78565b9173ffffffffffffffffffffffffffffffffffffffff7fc9ed16f33ab3a66c84bfd83099ccb2a8845871e2e1c1928f63797152f0fd54cc541673ffffffffffffffffffffffffffffffffffffffff841690810361038e57507fc8827d3282af6f37b64c3e9e6f3ac9df286ab0bb0fccd6f8661bf19adb368b228160005280602052604060002073ffffffffffffffffffffffffffffffffffffffff841660005260205260ff6040600020541661069357005b60008281526020918252604080822073ffffffffffffffffffffffffffffffffffffffff9586168084529084529181902080547fffffffffffffffffffffffffffffffffffffffffffffffffffffffffffffff0016905580519384529183015291909216908201527ff6391f5c32d9c69d2a47ea670b442974b53935d1edc7fd64eb21e047a839171b9080606081015b0390a1005b3461035f5760007ffffffffffffffffffffffffffffffffffffffffffffffffffffffffffffffffc36011261035f5760206040517f6d696e74657200000000000000000000000000000000000000000000000000008152f35b3461035f5760207ffffffffffffffffffffffffffffffffffffffffffffffffffffffffffffffffc36011261035f5761087360006004356107e2817fddf3ee18ae6d688373c219468f8be446e7ae82215f4779d821c7ea5e8c13c0c0612a9e565b5073ffffffffffffffffffffffffffffffffffffffff7f7ea68fd2dcf1c056b94db6a0a537aa80d26fa9ab1eacd85da1ba0b61b7e7a8a6541660405180809581947ff724dad700000000000000000000000000000000000000000000000000000000835230600484016020909392919373ffffffffffffffffffffffffffffffffffffffff60408201951681520152565b03915afa908115610928576000916108a0575b6040516020808252819061089c908201856122bd565b0390f35b3d8083833e6108af81836125f9565b8101906020818303126109205780519067ffffffffffffffff8211610924570181601f82011215610920578051926108e6846129a2565b926108f460405194856125f9565b8484526020858401011161091d575061089c92610917916020808501910161229a565b90610886565b80fd5b8280fd5b8380fd5b6040513d6000823e3d90fd5b3461035f57610942366123e9565b9094929390917fc9ed16f33ab3a66c84bfd83099ccb2a8845871e2e1c1928f63797152f0fd54cc73ffffffffffffffffffffffffffffffffffffffff80610987612c78565b925416911690810361038e5750808214801590610b67575b6103645760005b8281106109af57005b73ffffffffffffffffffffffffffffffffffffffff6109d76109d283858a612af9565b612b38565b166040517f01ffc9a70000000000000000000000000000000000000000000000000000000081527f80ac58cd000000000000000000000000000000000000000000000000000000006004820152602081602481855afa90811561092857600091610b39575b5015610b0c575073ffffffffffffffffffffffffffffffffffffffff610a666109d283858a612af9565b1690610a766109d2828689612af9565b91610a8282878b612af9565b3592813b1561035f57606473ffffffffffffffffffffffffffffffffffffffff916000809460405197889586947f42842e0e00000000000000000000000000000000000000000000000000000000865230600487015216602485015260448401525af191821561092857600192610afb575b50016109a6565b6000610b06916125f9565b88610af4565b7f986b9f1f0000000000000000000000000000000000000000000000000000000060005260045260246000fd5b610b5a915060203d8111610b60575b610b5281836125f9565b810190612b59565b89610a3c565b503d610b48565b508282141561099f565b3461035f5760807ffffffffffffffffffffffffffffffffffffffffffffffffffffffffffffffffc36011261035f57610ba8612300565b610bb0612323565b6044356064359167ffffffffffffffff831161035f573660238401121561035f5782600401359367ffffffffffffffff851161035f57366024868601011161035f57610bfb83612669565b7fddf3ee18ae6d688373c219468f8be446e7ae82215f4779d821c7ea5e8c13c0c0610c31848484610c2a612c78565b8095612740565b823b610c3957005b6000602087806024610c4d610c6c9b6129a2565b99610c5b6040519b8c6125f9565b828b5201838a013787010152612e0c565b005b3461035f5760407ffffffffffffffffffffffffffffffffffffffffffffffffffffffffffffffffc36011261035f57610ca5612300565b6024359081151580920361035f5773ffffffffffffffffffffffffffffffffffffffff80610cd1612c78565b16911691818314610d6b5760207f17307eab39ab6107e8899845ad3d59bd9653f200f220920489ca2b5937696c3191836000527fddf3ee18ae6d688373c219468f8be446e7ae82215f4779d821c7ea5e8c13c0c38252604060002085600052825260406000207fffffffffffffffffffffffffffffffffffffffffffffffffffffffffffffff0081541660ff8316179055604051908152a3005b507fe4215c6a0000000000000000000000000000000000000000000000000000000060005260045260246000fd5b3461035f5760007ffffffffffffffffffffffffffffffffffffffffffffffffffffffffffffffffc36011261035f57602073ffffffffffffffffffffffffffffffffffffffff7f7ea68fd2dcf1c056b94db6a0a537aa80d26fa9ab1eacd85da1ba0b61b7e7a8a65416604051908152f35b3461035f5760007ffffffffffffffffffffffffffffffffffffffffffffffffffffffffffffffffc36011261035f5761089c610e657f7ea68fd2dcf1c056b94db6a0a537aa80d26fa9ab1eacd85da1ba0b61b7e7a8a5612b71565b6040519182916020835260208301906122bd565b3461035f5760407ffffffffffffffffffffffffffffffffffffffffffffffffffffffffffffffffc36011261035f57610eb0612323565b7fc8827d3282af6f37b64c3e9e6f3ac9df286ab0bb0fccd6f8661bf19adb368b2260043560005260205273ffffffffffffffffffffffffffffffffffffffff60406000209116600052602052602060ff604060002054166040519015158152f35b3461035f5760207ffffffffffffffffffffffffffffffffffffffffffffffffffffffffffffffffc36011261035f57610f48612300565b7fc9ed16f33ab3a66c84bfd83099ccb2a8845871e2e1c1928f63797152f0fd54cc73ffffffffffffffffffffffffffffffffffffffff80610f87612c78565b925416911690810361038e57507f2c0cf10337caabbd02dcf226f05f5fd19a0919a41a8df8958c39b800078268579073ffffffffffffffffffffffffffffffffffffffff8116156110145773ffffffffffffffffffffffffffffffffffffffff167fffffffffffffffffffffffff0000000000000000000000000000000000000000825416179055600080f35b7f16de0c800000000000000000000000000000000000000000000000000000000060005260046000fd5b3461035f5760007ffffffffffffffffffffffffffffffffffffffffffffffffffffffffffffffffc36011261035f57602073ffffffffffffffffffffffffffffffffffffffff7fc9ed16f33ab3a66c84bfd83099ccb2a8845871e2e1c1928f63797152f0fd54cc5416604051908152f35b3461035f5760207ffffffffffffffffffffffffffffffffffffffffffffffffffffffffffffffffc36011261035f577fc8827d3282af6f37b64c3e9e6f3ac9df286ab0bb0fccd6f8661bf19adb368b2260043561110a612c78565b908060005282602052604060002073ffffffffffffffffffffffffffffffffffffffff831660005260205260ff60406000205416156111d65760008181526020938452604080822073ffffffffffffffffffffffffffffffffffffffff949094168083529385529081902080547fffffffffffffffffffffffffffffffffffffffffffffffffffffffffffffff001690558051918252928101829052918201527ff6391f5c32d9c69d2a47ea670b442974b53935d1edc7fd64eb21e047a839171b908060608101610723565b73ffffffffffffffffffffffffffffffffffffffff92507f7aa72882000000000000000000000000000000000000000000000000000000006000526004521660245260446000fd5b3461035f5760007ffffffffffffffffffffffffffffffffffffffffffffffffffffffffffffffffc36011261035f576020600054604051908152f35b3461035f57611268366123e9565b929392917fc9ed16f33ab3a66c84bfd83099ccb2a8845871e2e1c1928f63797152f0fd54cc73ffffffffffffffffffffffffffffffffffffffff806112ab612c78565b925416911690810361038e5750808414801590611400575b6103645760005b8481106112d357005b6112de818388612af9565b3573ffffffffffffffffffffffffffffffffffffffff81169081810361035f5760006020916113116109d2868b8e612af9565b8261137b6113a7611323898d8d612af9565b6040517fa9059cbb0000000000000000000000000000000000000000000000000000000089820190815273ffffffffffffffffffffffffffffffffffffffff9096166024820152903560448201529182906064820190565b037fffffffffffffffffffffffffffffffffffffffffffffffffffffffffffffffe081018352826125f9565b51925af115610928576000513d6113f75750803b155b6113ca57506001016112ca565b7f5274afe70000000000000000000000000000000000000000000000000000000060005260045260246000fd5b600114156113bd565b50828414156112c3565b3461035f5760207ffffffffffffffffffffffffffffffffffffffffffffffffffffffffffffffffc36011261035f57611441612300565b73ffffffffffffffffffffffffffffffffffffffff8116156114aa5773ffffffffffffffffffffffffffffffffffffffff166000527fddf3ee18ae6d688373c219468f8be446e7ae82215f4779d821c7ea5e8c13c0c16020526020604060002054604051908152f35b7faefbce4e0000000000000000000000000000000000000000000000000000000060005260046000fd5b3461035f5760207ffffffffffffffffffffffffffffffffffffffffffffffffffffffffffffffffc36011261035f5761150b612300565b611535337fc8827d3282af6f37b64c3e9e6f3ac9df286ab0bb0fccd6f8661bf19adb368b226129dc565b600054907fffffffffffffffffffffffffffffffffffffffffffffffffffffffffffffffff8214611697576001820160005573ffffffffffffffffffffffffffffffffffffffff167fddf3ee18ae6d688373c219468f8be446e7ae82215f4779d821c7ea5e8c13c0c0811561166d57826000528060205273ffffffffffffffffffffffffffffffffffffffff6040600020541661163f579160209281600052835281604060002055816000527fddf3ee18ae6d688373c219468f8be446e7ae82215f4779d821c7ea5e8c13c0c18352604060002060018154019055806040519260007fddf252ad1be2c89b69c2b068fc378daa952ba7f163c4a11628f55a4df523b3ef8180a48152f35b827f753eceac0000000000000000000000000000000000000000000000000000000060005260045260246000fd5b7f7851b9cd0000000000000000000000000000000000000000000000000000000060005260046000fd5b7f4e487b7100000000000000000000000000000000000000000000000000000000600052601160045260246000fd5b3461035f5760207ffffffffffffffffffffffffffffffffffffffffffffffffffffffffffffffffc36011261035f5760206117236004357fddf3ee18ae6d688373c219468f8be446e7ae82215f4779d821c7ea5e8c13c0c0612a9e565b73ffffffffffffffffffffffffffffffffffffffff60405191168152f35b3461035f5760207ffffffffffffffffffffffffffffffffffffffffffffffffffffffffffffffffc36011261035f576004357fc9ed16f33ab3a66c84bfd83099ccb2a8845871e2e1c1928f63797152f0fd54cc73ffffffffffffffffffffffffffffffffffffffff806117b2612c78565b925416911690810361038e57507f2c0cf10337caabbd02dcf226f05f5fd19a0919a41a8df8958c39b8000782685790620186a0811161183057815473ffffffffffffffffffffffffffffffffffffffff1660a09190911b7fffffffffffffffffffffffff000000000000000000000000000000000000000016179055005b7fac0404080000000000000000000000000000000000000000000000000000000060005260045260246000fd5b3461035f5760207ffffffffffffffffffffffffffffffffffffffffffffffffffffffffffffffffc36011261035f57602061189e611899612300565b61247c565b6040519015158152f35b3461035f5760207ffffffffffffffffffffffffffffffffffffffffffffffffffffffffffffffffc36011261035f5760043573ffffffffffffffffffffffffffffffffffffffff811680910361035f577fc9ed16f33ab3a66c84bfd83099ccb2a8845871e2e1c1928f63797152f0fd54cc54339073ffffffffffffffffffffffffffffffffffffffff16810361038e577f33e85773eda69c91a470cca572dc936a94f4c242cbcbe59f4c9d8b77c16a7dda602083807fffffffffffffffffffffffff00000000000000000000000000000000000000006001541617600155604051908152a1005b3461035f5760207ffffffffffffffffffffffffffffffffffffffffffffffffffffffffffffffffc36011261035f576004356119f37fc8827d3282af6f37b64c3e9e6f3ac9df286ab0bb0fccd6f8661bf19adb368b226119ed612c78565b906129dc565b7fddf3ee18ae6d688373c219468f8be446e7ae82215f4779d821c7ea5e8c13c0c0816000528060205273ffffffffffffffffffffffffffffffffffffffff604060002054168015611afa576000918383526020527fdead000000000000000000000000000000000000000000000000000000000000604083205573ffffffffffffffffffffffffffffffffffffffff811682527fddf3ee18ae6d688373c219468f8be446e7ae82215f4779d821c7ea5e8c13c0c1602052604082207fffffffffffffffffffffffffffffffffffffffffffffffffffffffffffffffff81540190557fddf252ad1be2c89b69c2b068fc378daa952ba7f163c4a11628f55a4df523b3ef8280a4005b827fdd5604750000000000000000000000000000000000000000000000000000000060005260045260246000fd5b3461035f57611b3636612346565b611b3f81612669565b7fddf3ee18ae6d688373c219468f8be446e7ae82215f4779d821c7ea5e8c13c0c091611b76828286611b6f612c78565b8097612740565b803b611b7e57005b610c6c9360405193611b916020866125f9565b60008552612e0c565b3461035f5760407ffffffffffffffffffffffffffffffffffffffffffffffffffffffffffffffffc36011261035f57600435611bd4612323565b611bdc612c78565b9173ffffffffffffffffffffffffffffffffffffffff7fc9ed16f33ab3a66c84bfd83099ccb2a8845871e2e1c1928f63797152f0fd54cc541673ffffffffffffffffffffffffffffffffffffffff841690810361038e57507fc8827d3282af6f37b64c3e9e6f3ac9df286ab0bb0fccd6f8661bf19adb368b228160005280602052604060002073ffffffffffffffffffffffffffffffffffffffff841660005260205260ff6040600020541615611c8f57005b60008281526020918252604080822073ffffffffffffffffffffffffffffffffffffffff9586168084529084529181902080547fffffffffffffffffffffffffffffffffffffffffffffffffffffffffffffff0016600117905580519384529183015291909216908201527f2f8788117e7eff1d82e926ec794901d17c78024a50270940304540a733656f0d908060608101610723565b3461035f5760007ffffffffffffffffffffffffffffffffffffffffffffffffffffffffffffffffc36011261035f57602060405173ffffffffffffffffffffffffffffffffffffffff7f0000000000000000000000000000000000000000000000000000000000000000168152f35b3461035f5760407ffffffffffffffffffffffffffffffffffffffffffffffffffffffffffffffffc36011261035f5773ffffffffffffffffffffffffffffffffffffffff6024357f2c0cf10337caabbd02dcf226f05f5fd19a0919a41a8df8958c39b8000782685754908160a01c9080158015611e80575b15611e4a57505061089c60005b60405193849316836020909392919373ffffffffffffffffffffffffffffffffffffffff60408201951681520152565b61089c91620186a0821015611e6d57611e6790620186a09261298f565b04611e1a565b620186a0611e7b920461298f565b611e1a565b508115611e0d565b3461035f57610c6c611e9936612346565b91611ea383612669565b7fddf3ee18ae6d688373c219468f8be446e7ae82215f4779d821c7ea5e8c13c0c0611ecc612c78565b90612740565b3461035f5760007ffffffffffffffffffffffffffffffffffffffffffffffffffffffffffffffffc36011261035f57602073ffffffffffffffffffffffffffffffffffffffff60015416604051908152f35b3461035f5760407ffffffffffffffffffffffffffffffffffffffffffffffffffffffffffffffffc36011261035f57611f5b612300565b602435907fddf3ee18ae6d688373c219468f8be446e7ae82215f4779d821c7ea5e8c13c0c090611f89612c78565b91836000528060205260406000205473ffffffffffffffffffffffffffffffffffffffff811692831561214e5773ffffffffffffffffffffffffffffffffffffffff169383851461212057611fdf818585612d8c565b156120d457508361204357740100000000000000000000000000000000000000001661202f575b505b7f8c5be1e5ebec7d5bd14f71427d1e84f3dd0314c0f7b2291e5b200ac8c7c3b925600080a4005b836000526020528060406000205583612006565b907401000000000000000000000000000000000000000082178092036120c0575b5050826000527fddf3ee18ae6d688373c219468f8be446e7ae82215f4779d821c7ea5e8c13c0c26020526040600020827fffffffffffffffffffffffff0000000000000000000000000000000000000000825416179055612008565b846000526020526040600020558380612064565b8373ffffffffffffffffffffffffffffffffffffffff87927fc7563a18000000000000000000000000000000000000000000000000000000006000521660045260245260445260646000fd5b837fb7fdc0100000000000000000000000000000000000000000000000000000000060005260045260246000fd5b857fdd5604750000000000000000000000000000000000000000000000000000000060005260045260246000fd5b3461035f5760207ffffffffffffffffffffffffffffffffffffffffffffffffffffffffffffffffc36011261035f5760206117236004357fddf3ee18ae6d688373c219468f8be446e7ae82215f4779d821c7ea5e8c13c0c061258a565b3461035f5760007ffffffffffffffffffffffffffffffffffffffffffffffffffffffffffffffffc36011261035f5761089c610e657f7ea68fd2dcf1c056b94db6a0a537aa80d26fa9ab1eacd85da1ba0b61b7e7a8a4612b71565b3461035f5760207ffffffffffffffffffffffffffffffffffffffffffffffffffffffffffffffffc36011261035f576004357fffffffff000000000000000000000000000000000000000000000000000000008116810361035f5761189e6020916124db565b60005b8381106122ad5750506000910152565b818101518382015260200161229d565b907fffffffffffffffffffffffffffffffffffffffffffffffffffffffffffffffe0601f6020936122f98151809281875287808801910161229a565b0116010190565b6004359073ffffffffffffffffffffffffffffffffffffffff8216820361035f57565b6024359073ffffffffffffffffffffffffffffffffffffffff8216820361035f57565b7ffffffffffffffffffffffffffffffffffffffffffffffffffffffffffffffffc606091011261035f5760043573ffffffffffffffffffffffffffffffffffffffff8116810361035f579060243573ffffffffffffffffffffffffffffffffffffffff8116810361035f579060443590565b9181601f8401121561035f5782359167ffffffffffffffff831161035f576020808501948460051b01011161035f57565b60607ffffffffffffffffffffffffffffffffffffffffffffffffffffffffffffffffc82011261035f5760043567ffffffffffffffff811161035f5781612432916004016123b8565b9290929160243567ffffffffffffffff811161035f5781612455916004016123b8565b929092916044359067ffffffffffffffff821161035f57612478916004016123b8565b9091565b73ffffffffffffffffffffffffffffffffffffffff7f0000000000000000000000000000000000000000000000000000000000000000169081156124d45773ffffffffffffffffffffffffffffffffffffffff161490565b5050600090565b7fffffffff00000000000000000000000000000000000000000000000000000000167fffffffff000000000000000000000000000000000000000000000000000000008114612584577f01ffc9a700000000000000000000000000000000000000000000000000000000811461257e576000527fca9d3e17f264b0f3984e2634e94adb37fa3e6a8103f06aeae6fa59e21c769f5d60205260ff6040600020541690565b50600190565b50600090565b816000528060205260406000205473ffffffffffffffffffffffffffffffffffffffff811615611afa577401000000000000000000000000000000000000000016156124d4576002916000520160205273ffffffffffffffffffffffffffffffffffffffff6040600020541690565b90601f7fffffffffffffffffffffffffffffffffffffffffffffffffffffffffffffffe0910116810190811067ffffffffffffffff82111761263a57604052565b7f4e487b7100000000000000000000000000000000000000000000000000000000600052604160045260246000fd5b73ffffffffffffffffffffffffffffffffffffffff60015416908161268c575050565b6020602492604051938480927f0ac7843c0000000000000000000000000000000000000000000000000000000082528560048301525afa9182156109285760009261270c575b50816126dc575050565b7ff11294ae0000000000000000000000000000000000000000000000000000000060005260045260245260446000fd5b9091506020813d602011612738575b81612728602093836125f9565b8101031261035f575190386126d2565b3d915061271b565b909273ffffffffffffffffffffffffffffffffffffffff1692831561296557846000528160205260406000205473ffffffffffffffffffffffffffffffffffffffff81169384156129375773ffffffffffffffffffffffffffffffffffffffff811680950361290557826127b49185612d8c565b1561284a575b50508360005280602052826040600020558282036127fb575b507fddf252ad1be2c89b69c2b068fc378daa952ba7f163c4a11628f55a4df523b3ef600080a4565b600101816000528060205260406000207fffffffffffffffffffffffffffffffffffffffffffffffffffffffffffffffff815401905582600052602052604060002060018154019055386127d3565b74010000000000000000000000000000000000000000161580156128bf575b61287357806127ba565b8273ffffffffffffffffffffffffffffffffffffffff86927fa4a3018b000000000000000000000000000000000000000000000000000000006000521660045260245260445260646000fd5b50846000526002820160205273ffffffffffffffffffffffffffffffffffffffff6040600020541673ffffffffffffffffffffffffffffffffffffffff82161415612869565b86857f14dbb5360000000000000000000000000000000000000000000000000000000060005260045260245260446000fd5b867fdd5604750000000000000000000000000000000000000000000000000000000060005260045260246000fd5b7f86c870670000000000000000000000000000000000000000000000000000000060005260046000fd5b8181029291811591840414171561169757565b67ffffffffffffffff811161263a57601f017fffffffffffffffffffffffffffffffffffffffffffffffffffffffffffffffe01660200190565b7f6d696e7465720000000000000000000000000000000000000000000000000000600052602052604060002073ffffffffffffffffffffffffffffffffffffffff821660005260205260ff6040600020541615612a365750565b73ffffffffffffffffffffffffffffffffffffffff907f7aa72882000000000000000000000000000000000000000000000000000000006000527f6d696e74657200000000000000000000000000000000000000000000000000006004521660245260446000fd5b8160005260205273ffffffffffffffffffffffffffffffffffffffff60406000205416908115612acc575090565b7fdd5604750000000000000000000000000000000000000000000000000000000060005260045260246000fd5b9190811015612b095760051b0190565b7f4e487b7100000000000000000000000000000000000000000000000000000000600052603260045260246000fd5b3573ffffffffffffffffffffffffffffffffffffffff8116810361035f5790565b9081602091031261035f5751801515810361035f5790565b906040519160008154918260011c92600181168015612c6e575b602085108114612c4157848752869392918115612c015750600114612bba575b50612bb8925003836125f9565b565b90506000929192526020600020906000915b818310612be5575050906020612bb89282010138612bab565b6020919350806001915483858901015201910190918492612bcc565b60209350612bb89592507fffffffffffffffffffffffffffffffffffffffffffffffffffffffffffffff0091501682840152151560051b82010138612bab565b6024847f4e487b710000000000000000000000000000000000000000000000000000000081526022600452fd5b93607f1693612b8b565b73ffffffffffffffffffffffffffffffffffffffff7f0000000000000000000000000000000000000000000000000000000000000000168015612d7d573233148015612d82575b612d7d577fffffffffffffffffffffffffffffffffffffffffffffffffffffffffffffffec36013560601c90803314908115612d03575b50612d0057503390565b90565b60649150602090604051928380927f019a20280000000000000000000000000000000000000000000000000000000082528660048301523360248301523060448301525afa90811561092857600091612d5e575b5038612cf6565b612d77915060203d602011610b6057610b5281836125f9565b38612d57565b503390565b5060183610612cbf565b73ffffffffffffffffffffffffffffffffffffffff8083169084161492918315612db7575b50505090565b600392935073ffffffffffffffffffffffffffffffffffffffff166000520160205273ffffffffffffffffffffffffffffffffffffffff6040600020911660005260205260ff60406000205416388080612db1565b73ffffffffffffffffffffffffffffffffffffffff90612e7e826020949597969716958360405196879586957f150b7a020000000000000000000000000000000000000000000000000000000087521660048601521660248401528760448401526080606484015260848301906122bd565b03816000865af190811561092857600091612f12575b507fffffffff000000000000000000000000000000000000000000000000000000007f150b7a0200000000000000000000000000000000000000000000000000000000911603612ee2575050565b7fc215a7a10000000000000000000000000000000000000000000000000000000060005260045260245260446000fd5b6020813d602011612f89575b81612f2b602093836125f9565b81010312612f855751907fffffffff000000000000000000000000000000000000000000000000000000008216820361091d57507fffffffff00000000000000000000000000000000000000000000000000000000612e94565b5080fd5b3d9150612f1e56fea264697066735822122038ffe53b0160bb72eecd4044041a6d6dc9244caed21321a767cd810c655b532664736f6c634300081e00337ea68fd2dcf1c056b94db6a0a537aa80d26fa9ab1eacd85da1ba0b61b7e7a8a47ea68fd2dcf1c056b94db6a0a537aa80d26fa9ab1eacd85da1ba0b61b7e7a8a5",
  "linkReferences": {},
  "deployedLinkReferences": {}
}