{
  "_format": "hh-sol-artifact-1",
  "contractName": "MockContractWithoutReceive",
  "sourceName": "contracts/mocks/paymaster/MockContractWithoutReceive.sol",
  "abi": [
    {
      "inputs": [
        {
          "internalType": "address payable",
          "name": "paymaster",
          "type": "address"
        },
        {
          "internalType": "uint256",
          "name": "amount",
          "type": "uint256"
        }
      ],
      "name": "withdrawFromPaymaster",
      "outputs": [],
      "stateMutability": "nonpayable",
      "type": "function"
    }
  ],
  "bytecode": "0x6080604052348015600f57600080fd5b506101448061001f6000396000f3fe608060405234801561001057600080fd5b506004361061002b5760003560e01c806391f7cf2a14610030575b600080fd5b61004361003e3660046100c9565b610045565b005b6040517f2e1a7d4d0000000000000000000000000000000000000000000000000000000081526004810182905273ffffffffffffffffffffffffffffffffffffffff831690632e1a7d4d90602401600060405180830381600087803b1580156100ad57600080fd5b505af11580156100c1573d6000803e3d6000fd5b505050505050565b600080604083850312156100dc57600080fd5b823573ffffffffffffffffffffffffffffffffffffffff8116811461010057600080fd5b94602093909301359350505056fea2646970667358221220daffcf6ee24826f63def7ca5e2962ed80fdb860afc777adf6138e80cdc8659ab64736f6c634300081c0033",
  "linkReferences": {},
  "deployedLinkReferences": {}
}