{
  "_format": "hh-sol-artifact-1",
  "contractName": "ERC20Mock",
  "sourceName": "contracts/mocks/token/ERC20/ERC20Mock.sol",
  "abi": [
    {
      "anonymous": false,
      "inputs": [
        {
          "indexed": true,
          "internalType": "address",
          "name": "from",
          "type": "address"
        },
        {
          "indexed": true,
          "internalType": "address",
          "name": "to",
          "type": "address"
        },
        {
          "indexed": true,
          "internalType": "uint256",
          "name": "value",
          "type": "uint256"
        }
      ],
      "name": "TransferMock",
      "type": "event"
    },
    {
      "inputs": [
        {
          "internalType": "address",
          "name": "from",
          "type": "address"
        },
        {
          "internalType": "address",
          "name": "to",
          "type": "address"
        },
        {
          "internalType": "uint256",
          "name": "value",
          "type": "uint256"
        },
        {
          "internalType": "bytes",
          "name": "data",
          "type": "bytes"
        }
      ],
      "name": "safeTransferFrom",
      "outputs": [
        {
          "internalType": "bool",
          "name": "",
          "type": "bool"
        }
      ],
      "stateMutability": "nonpayable",
      "type": "function"
    }
  ],
  "bytecode": "0x6080604052348015600f57600080fd5b506103778061001f6000396000f3fe608060405234801561001057600080fd5b506004361061002b5760003560e01c8063b88d4fde14610030575b600080fd5b61004361003e3660046101cd565b610057565b604051901515815260200160405180910390f35b60007fffffffffffffffffffffffffffffffffffffffffffffffffffffffffffffffff73ffffffffffffffffffffffffffffffffffffffff87160161009e5750600061019b565b6040517f4fc3585900000000000000000000000000000000000000000000000000000000815273ffffffffffffffffffffffffffffffffffffffff861690634fc35859906100f89030908a9089908990899060040161026a565b6020604051808303816000875af1158015610117573d6000803e3d6000fd5b505050506040513d601f19601f8201168201806040525081019061013b91906102f8565b50838573ffffffffffffffffffffffffffffffffffffffff168773ffffffffffffffffffffffffffffffffffffffff167fbd1602d1b2fd343a58525b15181f58a3d68623f0d298a6e880d74ab6c04924fe60405160405180910390a45060015b95945050505050565b803573ffffffffffffffffffffffffffffffffffffffff811681146101c857600080fd5b919050565b6000806000806000608086880312156101e557600080fd5b6101ee866101a4565b94506101fc602087016101a4565b935060408601359250606086013567ffffffffffffffff81111561021f57600080fd5b8601601f8101881361023057600080fd5b803567ffffffffffffffff81111561024757600080fd5b88602082840101111561025957600080fd5b959894975092955050506020019190565b73ffffffffffffffffffffffffffffffffffffffff8616815273ffffffffffffffffffffffffffffffffffffffff8516602082015283604082015260806060820152816080820152818360a0830137600081830160a090810191909152601f9092017fffffffffffffffffffffffffffffffffffffffffffffffffffffffffffffffe0160101949350505050565b60006020828403121561030a57600080fd5b81517fffffffff000000000000000000000000000000000000000000000000000000008116811461033a57600080fd5b939250505056fea264697066735822122021601711800889deba975a02aaffbe6b0f8f6f39ed21bd7e58f18cc3625acf2d64736f6c634300081c0033",
  "linkReferences": {},
  "deployedLinkReferences": {}
}