{
  "_format": "hh-sol-artifact-1",
  "contractName": "GambitMock",
  "sourceName": "contracts/mocks/game/GambitMock.sol",
  "abi": [
    {
      "inputs": [
        {
          "internalType": "address payable",
          "name": "payoutAddress",
          "type": "address"
        },
        {
          "internalType": "contract IERC20",
          "name": "buyInToken",
          "type": "address"
        },
        {
          "internalType": "uint256",
          "name": "buyIn_",
          "type": "uint256"
        },
        {
          "internalType": "uint256",
          "name": "platformFee_",
          "type": "uint256"
        },
        {
          "internalType": "contract IForwarderRegistry",
          "name": "forwarderRegistry",
          "type": "address"
        }
      ],
      "stateMutability": "nonpayable",
      "type": "constructor"
    },
    {
      "inputs": [
        {
          "internalType": "address",
          "name": "target",
          "type": "address"
        },
        {
          "internalType": "uint256",
          "name": "matchId",
          "type": "uint256"
        },
        {
          "internalType": "address",
          "name": "winner",
          "type": "address"
        },
        {
          "internalType": "address",
          "name": "loser",
          "type": "address"
        },
        {
          "internalType": "uint256",
          "name": "prize",
          "type": "uint256"
        },
        {
          "internalType": "uint256",
          "name": "totalFee",
          "type": "uint256"
        }
      ],
      "name": "CallbackRejected",
      "type": "error"
    },
    {
      "inputs": [],
      "name": "ECDSAInvalidSignature",
      "type": "error"
    },
    {
      "inputs": [
        {
          "internalType": "uint256",
          "name": "length",
          "type": "uint256"
        }
      ],
      "name": "ECDSAInvalidSignatureLength",
      "type": "error"
    },
    {
      "inputs": [
        {
          "internalType": "bytes32",
          "name": "s",
          "type": "bytes32"
        }
      ],
      "name": "ECDSAInvalidSignatureS",
      "type": "error"
    },
    {
      "inputs": [],
      "name": "ExpiredSignature",
      "type": "error"
    },
    {
      "inputs": [],
      "name": "IllegalInterfaceId",
      "type": "error"
    },
    {
      "inputs": [
        {
          "internalType": "uint256",
          "name": "matchId",
          "type": "uint256"
        }
      ],
      "name": "InsufficientMatchBalance",
      "type": "error"
    },
    {
      "inputs": [
        {
          "internalType": "uint256",
          "name": "matchId",
          "type": "uint256"
        }
      ],
      "name": "InsufficientPlayers",
      "type": "error"
    },
    {
      "inputs": [],
      "name": "InvalidPlayer",
      "type": "error"
    },
    {
      "inputs": [],
      "name": "InvalidPlayerMoveKey",
      "type": "error"
    },
    {
      "inputs": [],
      "name": "InvalidShortString",
      "type": "error"
    },
    {
      "inputs": [
        {
          "internalType": "uint256",
          "name": "matchId",
          "type": "uint256"
        }
      ],
      "name": "MatchAlreadyConcluded",
      "type": "error"
    },
    {
      "inputs": [
        {
          "internalType": "uint256",
          "name": "matchId",
          "type": "uint256"
        }
      ],
      "name": "MatchIsFull",
      "type": "error"
    },
    {
      "inputs": [
        {
          "internalType": "address",
          "name": "account",
          "type": "address"
        }
      ],
      "name": "NotContractOwner",
      "type": "error"
    },
    {
      "inputs": [
        {
          "internalType": "uint256",
          "name": "matchId",
          "type": "uint256"
        },
        {
          "internalType": "address",
          "name": "player",
          "type": "address"
        }
      ],
      "name": "NotMatchPlayer",
      "type": "error"
    },
    {
      "inputs": [],
      "name": "NotPaused",
      "type": "error"
    },
    {
      "inputs": [
        {
          "internalType": "bytes32",
          "name": "role",
          "type": "bytes32"
        },
        {
          "internalType": "address",
          "name": "account",
          "type": "address"
        }
      ],
      "name": "NotRoleHolder",
      "type": "error"
    },
    {
      "inputs": [],
      "name": "Paused",
      "type": "error"
    },
    {
      "inputs": [
        {
          "internalType": "uint256",
          "name": "buyInAmount",
          "type": "uint256"
        },
        {
          "internalType": "uint256",
          "name": "newPlatformFee",
          "type": "uint256"
        }
      ],
      "name": "PlatformFeeExceedsBuyIn",
      "type": "error"
    },
    {
      "inputs": [
        {
          "internalType": "uint256",
          "name": "matchId",
          "type": "uint256"
        },
        {
          "internalType": "address",
          "name": "player",
          "type": "address"
        }
      ],
      "name": "PlayerAlreadyJoined",
      "type": "error"
    },
    {
      "inputs": [
        {
          "internalType": "uint256",
          "name": "matchId",
          "type": "uint256"
        },
        {
          "internalType": "address",
          "name": "player",
          "type": "address"
        }
      ],
      "name": "PlayerAlreadyRefunded",
      "type": "error"
    },
    {
      "inputs": [
        {
          "internalType": "address",
          "name": "token",
          "type": "address"
        }
      ],
      "name": "SafeERC20FailedOperation",
      "type": "error"
    },
    {
      "inputs": [
        {
          "internalType": "string",
          "name": "str",
          "type": "string"
        }
      ],
      "name": "StringTooLong",
      "type": "error"
    },
    {
      "inputs": [],
      "name": "ZeroAddressPayoutWallet",
      "type": "error"
    },
    {
      "anonymous": false,
      "inputs": [
        {
          "indexed": true,
          "internalType": "uint256",
          "name": "oldBuyIn",
          "type": "uint256"
        },
        {
          "indexed": true,
          "internalType": "uint256",
          "name": "newBuyIn",
          "type": "uint256"
        }
      ],
      "name": "BuyInUpdated",
      "type": "event"
    },
    {
      "anonymous": false,
      "inputs": [],
      "name": "EIP712DomainChanged",
      "type": "event"
    },
    {
      "anonymous": false,
      "inputs": [
        {
          "indexed": true,
          "internalType": "address",
          "name": "newCallback",
          "type": "address"
        }
      ],
      "name": "MatchCompleteCallbackUpdated",
      "type": "event"
    },
    {
      "anonymous": false,
      "inputs": [
        {
          "indexed": true,
          "internalType": "uint256",
          "name": "matchId",
          "type": "uint256"
        },
        {
          "indexed": true,
          "internalType": "address",
          "name": "winner",
          "type": "address"
        },
        {
          "indexed": false,
          "internalType": "uint256",
          "name": "prizeAmount",
          "type": "uint256"
        }
      ],
      "name": "MatchCompleted",
      "type": "event"
    },
    {
      "anonymous": false,
      "inputs": [
        {
          "indexed": true,
          "internalType": "uint256",
          "name": "matchId",
          "type": "uint256"
        },
        {
          "indexed": true,
          "internalType": "address",
          "name": "player",
          "type": "address"
        },
        {
          "indexed": false,
          "internalType": "uint256",
          "name": "refundAmount",
          "type": "uint256"
        }
      ],
      "name": "MatchRefunded",
      "type": "event"
    },
    {
      "anonymous": false,
      "inputs": [
        {
          "indexed": true,
          "internalType": "address",
          "name": "previousOwner",
          "type": "address"
        },
        {
          "indexed": true,
          "internalType": "address",
          "name": "newOwner",
          "type": "address"
        }
      ],
      "name": "OwnershipTransferred",
      "type": "event"
    },
    {
      "anonymous": false,
      "inputs": [],
      "name": "Pause",
      "type": "event"
    },
    {
      "anonymous": false,
      "inputs": [
        {
          "indexed": false,
          "internalType": "address",
          "name": "payoutWallet",
          "type": "address"
        }
      ],
      "name": "PayoutWalletSet",
      "type": "event"
    },
    {
      "anonymous": false,
      "inputs": [
        {
          "indexed": true,
          "internalType": "uint256",
          "name": "oldPlatformFee",
          "type": "uint256"
        },
        {
          "indexed": true,
          "internalType": "uint256",
          "name": "newPlatformFee",
          "type": "uint256"
        }
      ],
      "name": "PlatformFeeUpdated",
      "type": "event"
    },
    {
      "anonymous": false,
      "inputs": [
        {
          "indexed": true,
          "internalType": "uint256",
          "name": "matchId",
          "type": "uint256"
        },
        {
          "indexed": true,
          "internalType": "address",
          "name": "player",
          "type": "address"
        },
        {
          "indexed": true,
          "internalType": "address",
          "name": "playerMoveKey",
          "type": "address"
        },
        {
          "indexed": false,
          "internalType": "bool",
          "name": "isPlayer1",
          "type": "bool"
        },
        {
          "indexed": false,
          "internalType": "uint256",
          "name": "buyIn",
          "type": "uint256"
        },
        {
          "indexed": false,
          "internalType": "uint256",
          "name": "platformFee",
          "type": "uint256"
        }
      ],
      "name": "PlayerJoined",
      "type": "event"
    },
    {
      "anonymous": false,
      "inputs": [
        {
          "indexed": false,
          "internalType": "bytes32",
          "name": "role",
          "type": "bytes32"
        },
        {
          "indexed": false,
          "internalType": "address",
          "name": "account",
          "type": "address"
        },
        {
          "indexed": false,
          "internalType": "address",
          "name": "operator",
          "type": "address"
        }
      ],
      "name": "RoleGranted",
      "type": "event"
    },
    {
      "anonymous": false,
      "inputs": [
        {
          "indexed": false,
          "internalType": "bytes32",
          "name": "role",
          "type": "bytes32"
        },
        {
          "indexed": false,
          "internalType": "address",
          "name": "account",
          "type": "address"
        },
        {
          "indexed": false,
          "internalType": "address",
          "name": "operator",
          "type": "address"
        }
      ],
      "name": "RoleRevoked",
      "type": "event"
    },
    {
      "anonymous": false,
      "inputs": [],
      "name": "Unpause",
      "type": "event"
    },
    {
      "inputs": [],
      "name": "ADMIN_ROLE",
      "outputs": [
        {
          "internalType": "bytes32",
          "name": "",
          "type": "bytes32"
        }
      ],
      "stateMutability": "view",
      "type": "function"
    },
    {
      "inputs": [],
      "name": "BUYIN_TOKEN",
      "outputs": [
        {
          "internalType": "contract IERC20",
          "name": "",
          "type": "address"
        }
      ],
      "stateMutability": "view",
      "type": "function"
    },
    {
      "inputs": [],
      "name": "COMPLETE_MATCH_TYPEHASH",
      "outputs": [
        {
          "internalType": "bytes32",
          "name": "",
          "type": "bytes32"
        }
      ],
      "stateMutability": "view",
      "type": "function"
    },
    {
      "inputs": [],
      "name": "DRAW_MATCH_TYPEHASH",
      "outputs": [
        {
          "internalType": "bytes32",
          "name": "",
          "type": "bytes32"
        }
      ],
      "stateMutability": "view",
      "type": "function"
    },
    {
      "inputs": [],
      "name": "JOIN_MATCH_TYPEHASH",
      "outputs": [
        {
          "internalType": "bytes32",
          "name": "",
          "type": "bytes32"
        }
      ],
      "stateMutability": "view",
      "type": "function"
    },
    {
      "inputs": [],
      "name": "REFEREE_ROLE",
      "outputs": [
        {
          "internalType": "bytes32",
          "name": "",
          "type": "bytes32"
        }
      ],
      "stateMutability": "view",
      "type": "function"
    },
    {
      "inputs": [],
      "name": "REFUND_MATCH_TYPEHASH",
      "outputs": [
        {
          "internalType": "bytes32",
          "name": "",
          "type": "bytes32"
        }
      ],
      "stateMutability": "view",
      "type": "function"
    },
    {
      "inputs": [],
      "name": "__msgData",
      "outputs": [
        {
          "internalType": "bytes",
          "name": "",
          "type": "bytes"
        }
      ],
      "stateMutability": "view",
      "type": "function"
    },
    {
      "inputs": [],
      "name": "buyIn",
      "outputs": [
        {
          "internalType": "uint256",
          "name": "",
          "type": "uint256"
        }
      ],
      "stateMutability": "view",
      "type": "function"
    },
    {
      "inputs": [
        {
          "internalType": "uint256",
          "name": "matchId",
          "type": "uint256"
        },
        {
          "internalType": "address",
          "name": "winner",
          "type": "address"
        },
        {
          "internalType": "bytes",
          "name": "signature",
          "type": "bytes"
        }
      ],
      "name": "completeMatch",
      "outputs": [],
      "stateMutability": "nonpayable",
      "type": "function"
    },
    {
      "inputs": [
        {
          "internalType": "uint256",
          "name": "matchId",
          "type": "uint256"
        },
        {
          "internalType": "address",
          "name": "player",
          "type": "address"
        },
        {
          "internalType": "bytes",
          "name": "signature",
          "type": "bytes"
        }
      ],
      "name": "drawMatch",
      "outputs": [],
      "stateMutability": "nonpayable",
      "type": "function"
    },
    {
      "inputs": [],
      "name": "eip712Domain",
      "outputs": [
        {
          "internalType": "bytes1",
          "name": "fields",
          "type": "bytes1"
        },
        {
          "internalType": "string",
          "name": "name",
          "type": "string"
        },
        {
          "internalType": "string",
          "name": "version",
          "type": "string"
        },
        {
          "internalType": "uint256",
          "name": "chainId",
          "type": "uint256"
        },
        {
          "internalType": "address",
          "name": "verifyingContract",
          "type": "address"
        },
        {
          "internalType": "bytes32",
          "name": "salt",
          "type": "bytes32"
        },
        {
          "internalType": "uint256[]",
          "name": "extensions",
          "type": "uint256[]"
        }
      ],
      "stateMutability": "view",
      "type": "function"
    },
    {
      "inputs": [],
      "name": "forwarderRegistry",
      "outputs": [
        {
          "internalType": "contract IForwarderRegistry",
          "name": "",
          "type": "address"
        }
      ],
      "stateMutability": "view",
      "type": "function"
    },
    {
      "inputs": [
        {
          "internalType": "bytes32",
          "name": "role",
          "type": "bytes32"
        },
        {
          "internalType": "address",
          "name": "account",
          "type": "address"
        }
      ],
      "name": "grantRole",
      "outputs": [],
      "stateMutability": "nonpayable",
      "type": "function"
    },
    {
      "inputs": [
        {
          "internalType": "bytes32",
          "name": "role",
          "type": "bytes32"
        },
        {
          "internalType": "address",
          "name": "account",
          "type": "address"
        }
      ],
      "name": "hasRole",
      "outputs": [
        {
          "internalType": "bool",
          "name": "hasRole_",
          "type": "bool"
        }
      ],
      "stateMutability": "view",
      "type": "function"
    },
    {
      "inputs": [
        {
          "internalType": "uint256",
          "name": "matchId",
          "type": "uint256"
        }
      ],
      "name": "isMatchConcluded",
      "outputs": [
        {
          "internalType": "bool",
          "name": "",
          "type": "bool"
        }
      ],
      "stateMutability": "view",
      "type": "function"
    },
    {
      "inputs": [
        {
          "internalType": "address",
          "name": "forwarder",
          "type": "address"
        }
      ],
      "name": "isTrustedForwarder",
      "outputs": [
        {
          "internalType": "bool",
          "name": "",
          "type": "bool"
        }
      ],
      "stateMutability": "view",
      "type": "function"
    },
    {
      "inputs": [
        {
          "internalType": "uint256",
          "name": "matchId",
          "type": "uint256"
        },
        {
          "internalType": "address",
          "name": "player",
          "type": "address"
        },
        {
          "internalType": "address",
          "name": "playerMoveKey",
          "type": "address"
        },
        {
          "internalType": "uint256",
          "name": "matchDeadline",
          "type": "uint256"
        },
        {
          "internalType": "bytes",
          "name": "signature",
          "type": "bytes"
        }
      ],
      "name": "joinMatch",
      "outputs": [],
      "stateMutability": "nonpayable",
      "type": "function"
    },
    {
      "inputs": [],
      "name": "matchCompleteCallback",
      "outputs": [
        {
          "internalType": "contract IGambitMatchCompleteCallback",
          "name": "",
          "type": "address"
        }
      ],
      "stateMutability": "view",
      "type": "function"
    },
    {
      "inputs": [
        {
          "internalType": "uint256",
          "name": "matchId",
          "type": "uint256"
        }
      ],
      "name": "matches",
      "outputs": [
        {
          "internalType": "address",
          "name": "p1",
          "type": "address"
        },
        {
          "internalType": "address",
          "name": "p2",
          "type": "address"
        },
        {
          "internalType": "address",
          "name": "p1MoveKey",
          "type": "address"
        },
        {
          "internalType": "address",
          "name": "p2MoveKey",
          "type": "address"
        },
        {
          "internalType": "uint256",
          "name": "p1Balance",
          "type": "uint256"
        },
        {
          "internalType": "uint256",
          "name": "p2Balance",
          "type": "uint256"
        },
        {
          "internalType": "uint256",
          "name": "platformFee",
          "type": "uint256"
        }
      ],
      "stateMutability": "view",
      "type": "function"
    },
    {
      "inputs": [],
      "name": "owner",
      "outputs": [
        {
          "internalType": "address",
          "name": "",
          "type": "address"
        }
      ],
      "stateMutability": "view",
      "type": "function"
    },
    {
      "inputs": [],
      "name": "pause",
      "outputs": [],
      "stateMutability": "nonpayable",
      "type": "function"
    },
    {
      "inputs": [],
      "name": "paused",
      "outputs": [
        {
          "internalType": "bool",
          "name": "",
          "type": "bool"
        }
      ],
      "stateMutability": "view",
      "type": "function"
    },
    {
      "inputs": [],
      "name": "payoutWallet",
      "outputs": [
        {
          "internalType": "address payable",
          "name": "wallet",
          "type": "address"
        }
      ],
      "stateMutability": "view",
      "type": "function"
    },
    {
      "inputs": [],
      "name": "platformFee",
      "outputs": [
        {
          "internalType": "uint256",
          "name": "",
          "type": "uint256"
        }
      ],
      "stateMutability": "view",
      "type": "function"
    },
    {
      "inputs": [
        {
          "internalType": "uint256",
          "name": "matchId",
          "type": "uint256"
        }
      ],
      "name": "refundMatch",
      "outputs": [],
      "stateMutability": "nonpayable",
      "type": "function"
    },
    {
      "inputs": [
        {
          "internalType": "uint256",
          "name": "matchId",
          "type": "uint256"
        },
        {
          "internalType": "address",
          "name": "player",
          "type": "address"
        },
        {
          "internalType": "bytes",
          "name": "signature",
          "type": "bytes"
        }
      ],
      "name": "refundMatch",
      "outputs": [],
      "stateMutability": "nonpayable",
      "type": "function"
    },
    {
      "inputs": [
        {
          "internalType": "bytes32",
          "name": "role",
          "type": "bytes32"
        }
      ],
      "name": "renounceRole",
      "outputs": [],
      "stateMutability": "nonpayable",
      "type": "function"
    },
    {
      "inputs": [
        {
          "internalType": "bytes32",
          "name": "role",
          "type": "bytes32"
        },
        {
          "internalType": "address",
          "name": "account",
          "type": "address"
        }
      ],
      "name": "revokeRole",
      "outputs": [],
      "stateMutability": "nonpayable",
      "type": "function"
    },
    {
      "inputs": [
        {
          "internalType": "uint256",
          "name": "newBuyIn",
          "type": "uint256"
        }
      ],
      "name": "setBuyIn",
      "outputs": [],
      "stateMutability": "nonpayable",
      "type": "function"
    },
    {
      "inputs": [
        {
          "internalType": "address",
          "name": "newCallback",
          "type": "address"
        }
      ],
      "name": "setMatchCompleteCallback",
      "outputs": [],
      "stateMutability": "nonpayable",
      "type": "function"
    },
    {
      "inputs": [
        {
          "internalType": "address payable",
          "name": "newPayoutWallet",
          "type": "address"
        }
      ],
      "name": "setPayoutWallet",
      "outputs": [],
      "stateMutability": "nonpayable",
      "type": "function"
    },
    {
      "inputs": [
        {
          "internalType": "uint256",
          "name": "newPlatformFee",
          "type": "uint256"
        }
      ],
      "name": "setPlatformFee",
      "outputs": [],
      "stateMutability": "nonpayable",
      "type": "function"
    },
    {
      "inputs": [
        {
          "internalType": "bytes4",
          "name": "interfaceId",
          "type": "bytes4"
        }
      ],
      "name": "supportsInterface",
      "outputs": [
        {
          "internalType": "bool",
          "name": "",
          "type": "bool"
        }
      ],
      "stateMutability": "view",
      "type": "function"
    },
    {
      "inputs": [
        {
          "internalType": "address",
          "name": "newOwner",
          "type": "address"
        }
      ],
      "name": "transferOwnership",
      "outputs": [],
      "stateMutability": "nonpayable",
      "type": "function"
    },
    {
      "inputs": [],
      "name": "unpause",
      "outputs": [],
      "stateMutability": "nonpayable",
      "type": "function"
    }
  ],
  "bytecode": "0x6101a080604052346103fc5760a081613d4f80380380916100208285610401565b8339810103126103fc5780516001600160a01b038116908190036103fc5760208201516001600160a01b03811681036103fc576040830151606084015160809094015190926001600160a01b03821682036103fc5760405190610084604083610401565b60068252602082016511d85b589a5d60d21b8152604051926100a7604085610401565b600184526020840192603160f81b84523361039d575b6307f5828d60e41b6000527fca9d3e17f264b0f3984e2634e94adb37fa3e6a8103f06aeae6fa59e21c769f5d6020527fa53d5a615b1d5279f1a6647c5c0f31bf064b1e70af135676a4a96aeaeb691a2f805460ff19166001179055801561038c577f4fb5f8cdfbce77f22b0931a39e9f476a60a0f66524b2f379e96485471eb700ad80546001600160a01b031916821790556040519081527fdd880d24a789958a6398c99c2e54ce31bc10a638cbc42f7dd34285479ae0f85590602090a16101848161045a565b610120526101918461061c565b61014052519020918260e05251902080610100524660a0526040519060208201927f8b73c3c69bb8fe3d512ecc4cf759cc79239f7b179b0ffacaa9a75d522b39400f8452604083015260608201524660808201523060a082015260a081526101fa60c082610401565b5190206080523060c052600160ff19600080516020613d2f833981519152541617600080516020613d2f833981519152557f6985a02210a168e66602d3235cb6db0e70f92b3ba4d376a33c0f3d9434bff625600080a1610160526101805260045490610269828280821061043a565b80600354816003557f6abf7e21d0157ac565825936f3d73ff3c4939140c08cdc99d445e4fa204007f0600080a38261034e575b60405161357490816107bb823960805181612d0f015260a05181612dcc015260c05181612ce0015260e05181612d5e01526101005181612d84015261012051816108110152610140518161083a015261016051818181611e29015281816128b901528181612fd4015261310f015261018051818181610c21015281816112430152818161131e015281816116a8015281816118f101528181611f200152818161217d015281816121d0015261240d0152f35b828161035b92821061043a565b816004557fd347e206f25a89b917fc9482f1a2d294d749baa4dc9bde7fb495ee11fe491643600080a338808061029c565b6340b539cf60e01b60005260046000fd5b7fc9ed16f33ab3a66c84bfd83099ccb2a8845871e2e1c1928f63797152f0fd54cc80546001600160a01b0319163390811790915560007f8be0079c531659141344cd1fd0a4f28419497f9722a3daafe3b4186f6b6457e08180a36100bd565b600080fd5b601f909101601f19168101906001600160401b0382119082101761042457604052565b634e487b7160e01b600052604160045260246000fd5b15610443575050565b633f49e97960e21b60005260045260245260446000fd5b908151602081106000146104f2575090601f815111610496576020815191015160208210610486571790565b6000198260200360031b1b161790565b6040519063305a27a960e01b8252602060048301528181519182602483015260005b8381106104da5750508160006044809484010152601f80199101168101030190fd5b602082820181015160448784010152859350016104b8565b6001600160401b03811161042457600054600181811c91168015610612575b60208210146105fc57601f81116105c7575b50602092601f82116001146105635792819293600092610558575b50508160011b916000199060031b1c19161760005560ff90565b01519050388061053e565b601f1982169360008052806000209160005b8681106105af5750836001959610610596575b505050811b0160005560ff90565b015160001960f88460031b161c19169055388080610588565b91926020600181928685015181550194019201610575565b60008052601f6020600020910160051c810190601f830160051c015b8181106105f05750610523565b600081556001016105e3565b634e487b7160e01b600052602260045260246000fd5b90607f1690610511565b908151602081106000146106a4575090601f815111610648576020815191015160208210610486571790565b6040519063305a27a960e01b8252602060048301528181519182602483015260005b83811061068c5750508160006044809484010152601f80199101168101030190fd5b6020828201810151604487840101528593500161066a565b6001600160401b03811161042457600154600181811c911680156107b0575b60208210146105fc57601f811161077a575b50602092601f8211600114610715579281929360009261070a575b50508160011b916000199060031b1c19161760015560ff90565b0151905038806106f0565b601f198216936001600052806000209160005b8681106107625750836001959610610749575b505050811b0160015560ff90565b015160001960f88460031b161c1916905538808061073b565b91926020600181928685015181550194019201610728565b6001600052601f6020600020910160051c810190601f830160051c015b8181106107a457506106d5565b60008155600101610797565b90607f16906106c356fe6080604052600436101561001257600080fd5b60003560e01c806301ffc9a71461258f578063086116d11461225d5780630a1a2a7914612204578063105c4c491461207457806312e8e2c314611fd957806319b9413f14611f8057806326232a2e14611f445780632852150214611ed557806329ed45db14611e4d5780632b4c9f1614611dde5780632f2ff15d14611c5257806331e66e1e14611bcf57806335b8ce9314611b7d5780633b25637f14611adc5780633f4ba83a146119c15780633f8c49d3146115755780634768d4ef1461149257806353aab43414611456578063572b6c051461140b578063578b7d99146110075780635c975abb14610fa75780635d913d2014610e8f5780636b8f9c4314610d4c57806375b238fc14610cf357806380f752ad14610aa05780638456cb59146109825780638488bb4e1461091157806384b0196e146107da5780638bb9c5bf1461066b5780638da5cb5b146105fa57806391d1485414610562578063a51f054e14610509578063af74bc14146104b0578063bd9eb3b514610457578063d547741f146102ce5763f2fde38b146101a857600080fd5b346102c95760207ffffffffffffffffffffffffffffffffffffffffffffffffffffffffffffffffc3601126102c9576101df612618565b7fc9ed16f33ab3a66c84bfd83099ccb2a8845871e2e1c1928f63797152f0fd54cc90610209612fbd565b9073ffffffffffffffffffffffffffffffffffffffff80845416921682810361029c575073ffffffffffffffffffffffffffffffffffffffff169182820361024d57005b827fffffffffffffffffffffffff00000000000000000000000000000000000000008254161790557f8be0079c531659141344cd1fd0a4f28419497f9722a3daafe3b4186f6b6457e0600080a3005b7f2ef4875e0000000000000000000000000000000000000000000000000000000060005260045260246000fd5b600080fd5b346102c95760407ffffffffffffffffffffffffffffffffffffffffffffffffffffffffffffffffc3601126102c9576004356103086125f5565b610310612fbd565b9173ffffffffffffffffffffffffffffffffffffffff7fc9ed16f33ab3a66c84bfd83099ccb2a8845871e2e1c1928f63797152f0fd54cc541673ffffffffffffffffffffffffffffffffffffffff841690810361029c57507fc8827d3282af6f37b64c3e9e6f3ac9df286ab0bb0fccd6f8661bf19adb368b228160005280602052604060002073ffffffffffffffffffffffffffffffffffffffff841660005260205260ff604060002054166103c257005b60008281526020918252604080822073ffffffffffffffffffffffffffffffffffffffff9586168084529084529181902080547fffffffffffffffffffffffffffffffffffffffffffffffffffffffffffffff0016905580519384529183015291909216908201527ff6391f5c32d9c69d2a47ea670b442974b53935d1edc7fd64eb21e047a839171b9080606081015b0390a1005b346102c95760007ffffffffffffffffffffffffffffffffffffffffffffffffffffffffffffffffc3601126102c95760206040517f8ee1d14670be47589129ea1abfa7b982cd34487687f4f1305145d6be32d430a28152f35b346102c95760007ffffffffffffffffffffffffffffffffffffffffffffffffffffffffffffffffc3601126102c95760206040517faef88082b8671e875d97d0d6c81d06fb9e76f97b3ad7523a55a378e5298aeeee8152f35b346102c95760007ffffffffffffffffffffffffffffffffffffffffffffffffffffffffffffffffc3601126102c95760206040517f0385a2f357affe267c4ac0decbf9206d8604b02181a2dd8f81b5dcba0d74951a8152f35b346102c95760407ffffffffffffffffffffffffffffffffffffffffffffffffffffffffffffffffc3601126102c9576105996125f5565b7fc8827d3282af6f37b64c3e9e6f3ac9df286ab0bb0fccd6f8661bf19adb368b2260043560005260205273ffffffffffffffffffffffffffffffffffffffff60406000209116600052602052602060ff604060002054166040519015158152f35b346102c95760007ffffffffffffffffffffffffffffffffffffffffffffffffffffffffffffffffc3601126102c957602073ffffffffffffffffffffffffffffffffffffffff7fc9ed16f33ab3a66c84bfd83099ccb2a8845871e2e1c1928f63797152f0fd54cc5416604051908152f35b346102c95760207ffffffffffffffffffffffffffffffffffffffffffffffffffffffffffffffffc3601126102c9577fc8827d3282af6f37b64c3e9e6f3ac9df286ab0bb0fccd6f8661bf19adb368b226004356106c6612fbd565b908060005282602052604060002073ffffffffffffffffffffffffffffffffffffffff831660005260205260ff60406000205416156107925760008181526020938452604080822073ffffffffffffffffffffffffffffffffffffffff949094168083529385529081902080547fffffffffffffffffffffffffffffffffffffffffffffffffffffffffffffff001690558051918252928101829052918201527ff6391f5c32d9c69d2a47ea670b442974b53935d1edc7fd64eb21e047a839171b908060608101610452565b73ffffffffffffffffffffffffffffffffffffffff92507f7aa72882000000000000000000000000000000000000000000000000000000006000526004521660245260446000fd5b346102c95760007ffffffffffffffffffffffffffffffffffffffffffffffffffffffffffffffffc3601126102c9576108b36108357f000000000000000000000000000000000000000000000000000000000000000061323e565b61085e7f00000000000000000000000000000000000000000000000000000000000000006133d6565b60206108c160405192610871838561273a565b6000845260003681376040519586957f0f00000000000000000000000000000000000000000000000000000000000000875260e08588015260e08701906126db565b9085820360408701526126db565b466060850152306080850152600060a085015283810360c085015281808451928381520193019160005b8281106108fa57505050500390f35b8351855286955093810193928101926001016108eb565b346102c95760007ffffffffffffffffffffffffffffffffffffffffffffffffffffffffffffffffc3601126102c957602073ffffffffffffffffffffffffffffffffffffffff7f4fb5f8cdfbce77f22b0931a39e9f476a60a0f66524b2f379e96485471eb700ad5416604051908152f35b346102c95760007ffffffffffffffffffffffffffffffffffffffffffffffffffffffffffffffffc3601126102c9577fc9ed16f33ab3a66c84bfd83099ccb2a8845871e2e1c1928f63797152f0fd54cc73ffffffffffffffffffffffffffffffffffffffff806109f0612fbd565b925416911690810361029c577f0186a05f63b1553398ad5ea3233c0ce68b8c9eecc47717f123c5c2b42fbd6d9e60ff815416610a765760017fffffffffffffffffffffffffffffffffffffffffffffffffffffffffffffff008254161790557f6985a02210a168e66602d3235cb6db0e70f92b3ba4d376a33c0f3d9434bff625600080a1005b7f9e87fac80000000000000000000000000000000000000000000000000000000060005260046000fd5b346102c95773ffffffffffffffffffffffffffffffffffffffff610ac336612669565b93909116928315610cc957610b3b610b4491610b35610b6a94610b2d60405160208101907f8ee1d14670be47589129ea1abfa7b982cd34487687f4f1305145d6be32d430a282528960408201528a606082015260608152610b2560808261273a565b5190206129b0565b9236916127aa565b90612df2565b90929192612e2e565b7fc8827d3282af6f37b64c3e9e6f3ac9df286ab0bb0fccd6f8661bf19adb368b226129f1565b80600052600560205260406000209173ffffffffffffffffffffffffffffffffffffffff8354169273ffffffffffffffffffffffffffffffffffffffff6001820154166004820190808254946005850190610bd488610bce8b8a8654978892612b75565b1561280f565b808903610c4e57505050509160006006602093827f7e8d9d00c67d0eca419da2afaeb9897f1995ce74ca7e6e5dab3f4c85c40721b196610c178a8a881515612844565b550155610c4581867f0000000000000000000000000000000000000000000000000000000000000000612bc5565b604051908152a3005b92975092509350858114600014610c9857509160006006602093827f7e8d9d00c67d0eca419da2afaeb9897f1995ce74ca7e6e5dab3f4c85c40721b196610c178a8a881515612844565b847ff99ca0120000000000000000000000000000000000000000000000000000000060005260045260245260446000fd5b7f0e8a471c0000000000000000000000000000000000000000000000000000000060005260046000fd5b346102c95760007ffffffffffffffffffffffffffffffffffffffffffffffffffffffffffffffffc3601126102c95760206040517fa49807205ce4d355092ef5a8a18f56e8913cf4a201fbe287825b095693c217758152f35b346102c95760207ffffffffffffffffffffffffffffffffffffffffffffffffffffffffffffffffc3601126102c95760043573ffffffffffffffffffffffffffffffffffffffff81168091036102c9577fc9ed16f33ab3a66c84bfd83099ccb2a8845871e2e1c1928f63797152f0fd54cc73ffffffffffffffffffffffffffffffffffffffff80610ddb612fbd565b925416911690810361029c57507f4fb5f8cdfbce77f22b0931a39e9f476a60a0f66524b2f379e96485471eb700ad8115610e655781817fdd880d24a789958a6398c99c2e54ce31bc10a638cbc42f7dd34285479ae0f855937fffffffffffffffffffffffff00000000000000000000000000000000000000006020945416179055604051908152a1005b7f40b539cf0000000000000000000000000000000000000000000000000000000060005260046000fd5b346102c95760207ffffffffffffffffffffffffffffffffffffffffffffffffffffffffffffffffc3601126102c957610ec6612618565b7fc9ed16f33ab3a66c84bfd83099ccb2a8845871e2e1c1928f63797152f0fd54cc9073ffffffffffffffffffffffffffffffffffffffff80610f06612fbd565b9354169216918203610f795773ffffffffffffffffffffffffffffffffffffffff16807fffffffffffffffffffffffff000000000000000000000000000000000000000060025416176002557f7b6e63ae66af5c70fbff811fa431e7646d4ec64cf86de8b3721ee49b6c8b5ad3600080a2005b507f2ef4875e0000000000000000000000000000000000000000000000000000000060005260045260246000fd5b346102c95760007ffffffffffffffffffffffffffffffffffffffffffffffffffffffffffffffffc3601126102c957602060ff7f0186a05f63b1553398ad5ea3233c0ce68b8c9eecc47717f123c5c2b42fbd6d9e54166040519015158152f35b346102c95760a07ffffffffffffffffffffffffffffffffffffffffffffffffffffffffffffffffc3601126102c9576004356110416125f5565b6044359173ffffffffffffffffffffffffffffffffffffffff83168093036102c9576064359160843567ffffffffffffffff81116102c95761108790369060040161263b565b9093804210156113e15773ffffffffffffffffffffffffffffffffffffffff8316948515610cc95786156113b75760ff7f0186a05f63b1553398ad5ea3233c0ce68b8c9eecc47717f123c5c2b42fbd6d9e5416610a765761114192610b35610b3b92610b2d610b449560405160208101917f453375e4f44bb00983db3dde1abb6154e31c5aab8fe14c7a4a55bb04fe1c3eb883528b60408301528c60608301528d608083015260a082015260a08152610b2560c08261273a565b81600052600560205260406000208473ffffffffffffffffffffffffffffffffffffffff82541692600183019373ffffffffffffffffffffffffffffffffffffffff85541694600485019586549260058701916111a58a610bce8554888587612b75565b8161127c57505050505092611267606093927f4b149d673b8317f48d55e0c9e8ee7c19e9fd8c290b6fd36ee506f77a24cee94195886004549485600660035498899687957fffffffffffffffffffffffff000000000000000000000000000000000000000083541617825560028201907fffffffffffffffffffffffff000000000000000000000000000000000000000082541617905501555530907f0000000000000000000000000000000000000000000000000000000000000000612c62565b604051916001835260208301526040820152a4005b91949550919592965015600014611389578714611357578480937f4b149d673b8317f48d55e0c9e8ee7c19e9fd8c290b6fd36ee506f77a24cee94196606096946003856006611342970154978d7fffffffffffffffffffffffff0000000000000000000000000000000000000000825416179055018c7fffffffffffffffffffffffff00000000000000000000000000000000000000008254161790555530907f0000000000000000000000000000000000000000000000000000000000000000612c62565b604051916000835260208301526040820152a4005b86867f474dee440000000000000000000000000000000000000000000000000000000060005260045260245260446000fd5b867fdc2995c40000000000000000000000000000000000000000000000000000000060005260045260246000fd5b7f7cfdd3730000000000000000000000000000000000000000000000000000000060005260046000fd5b7fdf4cc36d0000000000000000000000000000000000000000000000000000000060005260046000fd5b346102c95760207ffffffffffffffffffffffffffffffffffffffffffffffffffffffffffffffffc3601126102c957602061144c611447612618565b6128a2565b6040519015158152f35b346102c95760007ffffffffffffffffffffffffffffffffffffffffffffffffffffffffffffffffc3601126102c9576020600354604051908152f35b346102c95760207ffffffffffffffffffffffffffffffffffffffffffffffffffffffffffffffffc3601126102c957600435600052600560205260e0604060002073ffffffffffffffffffffffffffffffffffffffff8154169073ffffffffffffffffffffffffffffffffffffffff6001820154169073ffffffffffffffffffffffffffffffffffffffff60028201541673ffffffffffffffffffffffffffffffffffffffff6003830154166004830154916006600585015494015494604051968752602087015260408601526060850152608084015260a083015260c0820152f35b346102c9576115f8610b44610b3b61158c36612669565b610b35604097949796939592965196610b2d602089017f0385a2f357affe267c4ac0decbf9206d8604b02181a2dd8f81b5dcba0d74951a81528a60408b015273ffffffffffffffffffffffffffffffffffffffff8916998a606082015260608152610b2560808261273a565b8260005260056020526040600020600481019081546005820192835494821515806119b8575b1561198a5773ffffffffffffffffffffffffffffffffffffffff84541673ffffffffffffffffffffffffffffffffffffffff6001860154168189146000146119495760069150945b01948554968760011b978089046002149015171561191a57840180941161191a5760009586809261169a8a6116cc98612895565b988996555555856118b3575b7f0000000000000000000000000000000000000000000000000000000000000000612bc5565b83857f0a2413835f07421c275d3e2feac4328391c22c9ed3db28c40b45b55a0c3a2ba66020604051868152a373ffffffffffffffffffffffffffffffffffffffff60025416938461171957005b73ffffffffffffffffffffffffffffffffffffffff604051927f1aef01e1000000000000000000000000000000000000000000000000000000008452876004850152826024850152169182604482015283606482015284608482015260208160a48160008a5af19081156118a757600091611825575b507fffffffff000000000000000000000000000000000000000000000000000000007f1aef01e1000000000000000000000000000000000000000000000000000000009116036117db57005b60c495604051957fe9db41ca0000000000000000000000000000000000000000000000000000000087526004870152602486015260448501526064840152608483015260a4820152fd5b6020813d60201161189f575b8161183e6020938361273a565b8101031261189b5751907fffffffff000000000000000000000000000000000000000000000000000000008216820361189857507fffffffff0000000000000000000000000000000000000000000000000000000061178f565b80fd5b5080fd5b3d9150611831565b6040513d6000823e3d90fd5b6119158673ffffffffffffffffffffffffffffffffffffffff7f4fb5f8cdfbce77f22b0931a39e9f476a60a0f66524b2f379e96485471eb700ad54167f0000000000000000000000000000000000000000000000000000000000000000612bc5565b6116a6565b7f4e487b7100000000000000000000000000000000000000000000000000000000600052601160045260246000fd5b88036119585760069094611666565b87897ff99ca0120000000000000000000000000000000000000000000000000000000060005260045260245260446000fd5b877fcd7235820000000000000000000000000000000000000000000000000000000060005260045260246000fd5b5085151561161e565b346102c95760007ffffffffffffffffffffffffffffffffffffffffffffffffffffffffffffffffc3601126102c9577fc9ed16f33ab3a66c84bfd83099ccb2a8845871e2e1c1928f63797152f0fd54cc73ffffffffffffffffffffffffffffffffffffffff80611a2f612fbd565b925416911690810361029c577f0186a05f63b1553398ad5ea3233c0ce68b8c9eecc47717f123c5c2b42fbd6d9e805460ff811615611ab2577fffffffffffffffffffffffffffffffffffffffffffffffffffffffffffffff001690557f7805862f689e2f13df9f062ff482ad3ad112aca9e0847911ed832e158c525b33600080a1005b7f6cd602010000000000000000000000000000000000000000000000000000000060005260046000fd5b346102c95760207ffffffffffffffffffffffffffffffffffffffffffffffffffffffffffffffffc3601126102c957600435611b407fc8827d3282af6f37b64c3e9e6f3ac9df286ab0bb0fccd6f8661bf19adb368b22611b3a612fbd565b90612ab3565b611b4f60045482808210612c29565b600354816003557f6abf7e21d0157ac565825936f3d73ff3c4939140c08cdc99d445e4fa204007f0600080a3005b346102c95760007ffffffffffffffffffffffffffffffffffffffffffffffffffffffffffffffffc3601126102c957602073ffffffffffffffffffffffffffffffffffffffff60025416604051908152f35b346102c95760007ffffffffffffffffffffffffffffffffffffffffffffffffffffffffffffffffc3601126102c9576040611c086130f8565b91907fffffffffffffffffffffffffffffffffffffffffffffffffffffffffffffffe0601f8484519586946020865281602087015286860137600085828601015201168101030190f35b346102c95760407ffffffffffffffffffffffffffffffffffffffffffffffffffffffffffffffffc3601126102c957600435611c8c6125f5565b611c94612fbd565b9173ffffffffffffffffffffffffffffffffffffffff7fc9ed16f33ab3a66c84bfd83099ccb2a8845871e2e1c1928f63797152f0fd54cc541673ffffffffffffffffffffffffffffffffffffffff841690810361029c57507fc8827d3282af6f37b64c3e9e6f3ac9df286ab0bb0fccd6f8661bf19adb368b228160005280602052604060002073ffffffffffffffffffffffffffffffffffffffff841660005260205260ff6040600020541615611d4757005b60008281526020918252604080822073ffffffffffffffffffffffffffffffffffffffff9586168084529084529181902080547fffffffffffffffffffffffffffffffffffffffffffffffffffffffffffffff0016600117905580519384529183015291909216908201527f2f8788117e7eff1d82e926ec794901d17c78024a50270940304540a733656f0d908060608101610452565b346102c95760007ffffffffffffffffffffffffffffffffffffffffffffffffffffffffffffffffc3601126102c957602060405173ffffffffffffffffffffffffffffffffffffffff7f0000000000000000000000000000000000000000000000000000000000000000168152f35b346102c95760207ffffffffffffffffffffffffffffffffffffffffffffffffffffffffffffffffc3601126102c9576004356000526005602052602061144c604060002073ffffffffffffffffffffffffffffffffffffffff8154169073ffffffffffffffffffffffffffffffffffffffff6001820154166005600483015492015492612b75565b346102c95760007ffffffffffffffffffffffffffffffffffffffffffffffffffffffffffffffffc3601126102c957602060405173ffffffffffffffffffffffffffffffffffffffff7f0000000000000000000000000000000000000000000000000000000000000000168152f35b346102c95760007ffffffffffffffffffffffffffffffffffffffffffffffffffffffffffffffffc3601126102c9576020600454604051908152f35b346102c95760007ffffffffffffffffffffffffffffffffffffffffffffffffffffffffffffffffc3601126102c95760206040517f7e056079185997e63584b574e7ede2bc1c951a9914820d9497bb54f8c133fa478152f35b346102c95760207ffffffffffffffffffffffffffffffffffffffffffffffffffffffffffffffffc3601126102c9576004356120377fc8827d3282af6f37b64c3e9e6f3ac9df286ab0bb0fccd6f8661bf19adb368b22611b3a612fbd565b61204681600354808210612c29565b600454816004557fd347e206f25a89b917fc9482f1a2d294d749baa4dc9bde7fb495ee11fe491643600080a3005b346102c95760207ffffffffffffffffffffffffffffffffffffffffffffffffffffffffffffffffc3601126102c9576004356120d27fc8827d3282af6f37b64c3e9e6f3ac9df286ab0bb0fccd6f8661bf19adb368b22611b3a612fbd565b80600052600560205260406000209073ffffffffffffffffffffffffffffffffffffffff82541673ffffffffffffffffffffffffffffffffffffffff600184015416926004810191838354809460006006600587019661213b86610bce8d8b549c8d918c612b75565b0155816121a1575b505050508161214e57005b7f7e8d9d00c67d0eca419da2afaeb9897f1995ce74ca7e6e5dab3f4c85c40721b191600060209255610c4581867f0000000000000000000000000000000000000000000000000000000000000000612bc5565b7f7e8d9d00c67d0eca419da2afaeb9897f1995ce74ca7e6e5dab3f4c85c40721b1916000602092556121f481867f0000000000000000000000000000000000000000000000000000000000000000612bc5565b604051908152a384838180612143565b346102c95760007ffffffffffffffffffffffffffffffffffffffffffffffffffffffffffffffffc3601126102c95760206040517f453375e4f44bb00983db3dde1abb6154e31c5aab8fe14c7a4a55bb04fe1c3eb88152f35b346102c9576122e0610b3b610b4461227436612669565b610b35604097949593979692965196610b2d602089017f7e056079185997e63584b574e7ede2bc1c951a9914820d9497bb54f8c133fa4781528860408b015273ffffffffffffffffffffffffffffffffffffffff8b16998a606082015260608152610b2560808261273a565b80600052600560205260406000209273ffffffffffffffffffffffffffffffffffffffff8454169373ffffffffffffffffffffffffffffffffffffffff6001820154169085151580612586575b15612558578394956004820191825490600581019160068354926123578a610bce86868c8b612b75565b018054968715959192918661248a5788999a508c9895969798146000146124315750839291600061238c612394968294612895565b985555612895565b90555b8260011b928304600214171561191a57610c45817f7e8d9d00c67d0eca419da2afaeb9897f1995ce74ca7e6e5dab3f4c85c40721b1946116a660209573ffffffffffffffffffffffffffffffffffffffff7f4fb5f8cdfbce77f22b0931a39e9f476a60a0f66524b2f379e96485471eb700ad54167f0000000000000000000000000000000000000000000000000000000000000000612bc5565b94969492935090918a0361245857600087928161238c8561245197612895565b9055612397565b89897ff99ca0120000000000000000000000000000000000000000000000000000000060005260045260245260446000fd5b925092945096955089146000146124df5750505082826000610c45936124d97f7e8d9d00c67d0eca419da2afaeb9897f1995ce74ca7e6e5dab3f4c85c40721b198966020989788961515612844565b556116a6565b9195939450915086036125265783836000610c45936124d96020977f7e8d9d00c67d0eca419da2afaeb9897f1995ce74ca7e6e5dab3f4c85c40721b1999788961515612844565b85827ff99ca0120000000000000000000000000000000000000000000000000000000060005260045260245260446000fd5b837fe4b1c23d0000000000000000000000000000000000000000000000000000000060005260045260246000fd5b5081151561232d565b346102c95760207ffffffffffffffffffffffffffffffffffffffffffffffffffffffffffffffffc3601126102c9576004357fffffffff00000000000000000000000000000000000000000000000000000000811681036102c95761144c602091612901565b6024359073ffffffffffffffffffffffffffffffffffffffff821682036102c957565b6004359073ffffffffffffffffffffffffffffffffffffffff821682036102c957565b9181601f840112156102c95782359167ffffffffffffffff83116102c957602083818601950101116102c957565b60607ffffffffffffffffffffffffffffffffffffffffffffffffffffffffffffffffc8201126102c9576004359160243573ffffffffffffffffffffffffffffffffffffffff811681036102c957916044359067ffffffffffffffff82116102c9576126d79160040161263b565b9091565b919082519283825260005b8481106127255750507fffffffffffffffffffffffffffffffffffffffffffffffffffffffffffffffe0601f8460006020809697860101520116010190565b806020809284010151828286010152016126e6565b90601f7fffffffffffffffffffffffffffffffffffffffffffffffffffffffffffffffe0910116810190811067ffffffffffffffff82111761277b57604052565b7f4e487b7100000000000000000000000000000000000000000000000000000000600052604160045260246000fd5b92919267ffffffffffffffff821161277b57604051916127f2601f82017fffffffffffffffffffffffffffffffffffffffffffffffffffffffffffffffe0166020018461273a565b8294818452818301116102c9578281602093846000960137010152565b156128175750565b7f60a3df590000000000000000000000000000000000000000000000000000000060005260045260246000fd5b1561284d575050565b73ffffffffffffffffffffffffffffffffffffffff92507f49568550000000000000000000000000000000000000000000000000000000006000526004521660245260446000fd5b9190820391821161191a57565b73ffffffffffffffffffffffffffffffffffffffff7f0000000000000000000000000000000000000000000000000000000000000000169081156128fa5773ffffffffffffffffffffffffffffffffffffffff161490565b5050600090565b7fffffffff00000000000000000000000000000000000000000000000000000000167fffffffff0000000000000000000000000000000000000000000000000000000081146129aa577f01ffc9a70000000000000000000000000000000000000000000000000000000081146129a4576000527fca9d3e17f264b0f3984e2634e94adb37fa3e6a8103f06aeae6fa59e21c769f5d60205260ff6040600020541690565b50600190565b50600090565b6042906129bb612cc9565b90604051917f19010000000000000000000000000000000000000000000000000000000000008352600283015260228201522090565b7faef88082b8671e875d97d0d6c81d06fb9e76f97b3ad7523a55a378e5298aeeee600052602052604060002073ffffffffffffffffffffffffffffffffffffffff821660005260205260ff6040600020541615612a4b5750565b73ffffffffffffffffffffffffffffffffffffffff907f7aa72882000000000000000000000000000000000000000000000000000000006000527faef88082b8671e875d97d0d6c81d06fb9e76f97b3ad7523a55a378e5298aeeee6004521660245260446000fd5b7fa49807205ce4d355092ef5a8a18f56e8913cf4a201fbe287825b095693c21775600052602052604060002073ffffffffffffffffffffffffffffffffffffffff821660005260205260ff6040600020541615612b0d5750565b73ffffffffffffffffffffffffffffffffffffffff907f7aa72882000000000000000000000000000000000000000000000000000000006000527fa49807205ce4d355092ef5a8a18f56e8913cf4a201fbe287825b095693c217756004521660245260446000fd5b9073ffffffffffffffffffffffffffffffffffffffff1615612ba35750159081612b9d575090565b90501590565b90915073ffffffffffffffffffffffffffffffffffffffff16156129aa571590565b612c279273ffffffffffffffffffffffffffffffffffffffff604051937fa9059cbb000000000000000000000000000000000000000000000000000000006020860152166024840152604483015260448252612c2260648361273a565b612f1a565b565b15612c32575050565b7ffd27a5e40000000000000000000000000000000000000000000000000000000060005260045260245260446000fd5b90919273ffffffffffffffffffffffffffffffffffffffff612c279481604051957f23b872dd000000000000000000000000000000000000000000000000000000006020880152166024860152166044840152606483015260648252612c2260848361273a565b73ffffffffffffffffffffffffffffffffffffffff7f000000000000000000000000000000000000000000000000000000000000000016301480612dc9575b15612d31577f000000000000000000000000000000000000000000000000000000000000000090565b60405160208101907f8b73c3c69bb8fe3d512ecc4cf759cc79239f7b179b0ffacaa9a75d522b39400f82527f000000000000000000000000000000000000000000000000000000000000000060408201527f000000000000000000000000000000000000000000000000000000000000000060608201524660808201523060a082015260a08152612dc360c08261273a565b51902090565b507f00000000000000000000000000000000000000000000000000000000000000004614612d08565b8151919060418303612e2357612e1c92506020820151906060604084015193015160001a906134a8565b9192909190565b505060009160029190565b9190916004811015612eeb5780612e4457509050565b600060018203612e78577ff645eedf0000000000000000000000000000000000000000000000000000000060005260046000fd5b5060028103612eaf57827ffce698f70000000000000000000000000000000000000000000000000000000060005260045260246000fd5b9091600360009214612ebf575050565b602492507fd78bce0c000000000000000000000000000000000000000000000000000000008252600452fd5b7f4e487b7100000000000000000000000000000000000000000000000000000000600052602160045260246000fd5b906000602091828151910182855af1156118a7576000513d612f9c575073ffffffffffffffffffffffffffffffffffffffff81163b155b612f585750565b73ffffffffffffffffffffffffffffffffffffffff907f5274afe7000000000000000000000000000000000000000000000000000000006000521660045260246000fd5b60011415612f51565b908160209103126102c9575180151581036102c95790565b73ffffffffffffffffffffffffffffffffffffffff7f00000000000000000000000000000000000000000000000000000000000000001680156130e95732331480156130ee575b6130e9577fffffffffffffffffffffffffffffffffffffffffffffffffffffffffffffffec36013560601c90803314908115613048575b5061304557503390565b90565b6040517f019a202800000000000000000000000000000000000000000000000000000000815273ffffffffffffffffffffffffffffffffffffffff841660048201523360248201523060448201529150602090829060649082905afa9081156118a7576000916130ba575b503861303b565b6130dc915060203d6020116130e2575b6130d4818361273a565b810190612fa5565b386130b3565b503d6130ca565b503390565b5060183610613004565b73ffffffffffffffffffffffffffffffffffffffff7f000000000000000000000000000000000000000000000000000000000000000016801561322c573233148015613234575b61322c5780331490811561318b575b5061315a576000903690565b7fffffffffffffffffffffffffffffffffffffffffffffffffffffffffffffffec3601903682116102c95760009190565b6040517f019a20280000000000000000000000000000000000000000000000000000000081527fffffffffffffffffffffffffffffffffffffffffffffffffffffffffffffffec36013560601c60048201523360248201523060448201529150602090829060649082905afa9081156118a75760009161320d575b503861314e565b613226915060203d6020116130e2576130d4818361273a565b38613206565b506000903690565b506018361061313f565b60ff81146132c05760ff811690601f8211613296576040805192613262828561273a565b602084527fffffffffffffffffffffffffffffffffffffffffffffffffffffffffffffffe060208501920136833783525290565b7fb3512b0c0000000000000000000000000000000000000000000000000000000060005260046000fd5b5060405160008054908160011c916001811680156133cc575b60208410811461339f5783855284929181156133625750600114613304575b6130459250038261273a565b50600080805290917f290decd9548b62a8d60345a988386fc84ba6bc95484008f6362f93160ef3e5635b818310613346575050906020613045928201016132f8565b602091935080600191548385880101520191019091839261332e565b602092506130459491507fffffffffffffffffffffffffffffffffffffffffffffffffffffffffffffff001682840152151560051b8201016132f8565b6024837f4e487b710000000000000000000000000000000000000000000000000000000081526022600452fd5b92607f16926132d9565b60ff81146133fa5760ff811690601f8211613296576040805192613262828561273a565b506040516000600154908160011c9160018116801561349e575b60208410811461339f578385528492918115613362575060011461343e576130459250038261273a565b506001600090815290917fb10e2d527612073b26eecdfd717e6a320cf44b4afac2b0732d9fcbe2b7fa0cf65b818310613482575050906020613045928201016132f8565b602091935080600191548385880101520191019091839261346a565b92607f1692613414565b91907f7fffffffffffffffffffffffffffffff5d576e7357a4501ddfe92f46681b20a08411613532579160209360809260ff60009560405194855216868401526040830152606082015282805260015afa156118a75760005173ffffffffffffffffffffffffffffffffffffffff8116156135265790600090600090565b50600090600190600090565b5050506000916003919056fea2646970667358221220048608f407c00b56bb05093328e8fba8046984b882ab7c30db1968af70eaa1bd64736f6c634300081e00330186a05f63b1553398ad5ea3233c0ce68b8c9eecc47717f123c5c2b42fbd6d9e",
  "linkReferences": {},
  "deployedLinkReferences": {}
}