{
  "_format": "hh-sol-artifact-1",
  "contractName": "RNGConsumerMock",
  "sourceName": "contracts/mocks/rng/RNGConsumerMock.sol",
  "abi": [
    {
      "inputs": [
        {
          "internalType": "contract IRNGProvider",
          "name": "_rngProvider",
          "type": "address"
        }
      ],
      "stateMutability": "nonpayable",
      "type": "constructor"
    },
    {
      "inputs": [
        {
          "internalType": "address",
          "name": "wrongCaller",
          "type": "address"
        }
      ],
      "name": "OnlyRNGProviderCanFulfill",
      "type": "error"
    },
    {
      "anonymous": false,
      "inputs": [
        {
          "indexed": false,
          "internalType": "uint256",
          "name": "requestId",
          "type": "uint256"
        },
        {
          "indexed": false,
          "internalType": "uint256[]",
          "name": "randomWords",
          "type": "uint256[]"
        }
      ],
      "name": "FulfillRandomnessCalled",
      "type": "event"
    },
    {
      "inputs": [],
      "name": "RNG_PROVIDER",
      "outputs": [
        {
          "internalType": "contract IRNGProvider",
          "name": "",
          "type": "address"
        }
      ],
      "stateMutability": "view",
      "type": "function"
    },
    {
      "inputs": [
        {
          "internalType": "uint256",
          "name": "requestId",
          "type": "uint256"
        },
        {
          "internalType": "uint256[]",
          "name": "randomWords",
          "type": "uint256[]"
        }
      ],
      "name": "fulfillRandomness",
      "outputs": [],
      "stateMutability": "nonpayable",
      "type": "function"
    },
    {
      "inputs": [
        {
          "internalType": "uint32",
          "name": "numWords",
          "type": "uint32"
        }
      ],
      "name": "requestRandomness",
      "outputs": [
        {
          "internalType": "uint256",
          "name": "requestId",
          "type": "uint256"
        }
      ],
      "stateMutability": "nonpayable",
      "type": "function"
    },
    {
      "inputs": [],
      "name": "rngProvider",
      "outputs": [
        {
          "internalType": "contract IRNGProvider",
          "name": "",
          "type": "address"
        }
      ],
      "stateMutability": "view",
      "type": "function"
    }
  ],
  "bytecode": "0x60a034608257601f61048138819003918201601f19168301916001600160401b03831184841017608757808492602094604052833981010312608257516001600160a01b03811690818103608257608052600080546001600160a01b0319169190911790556040516103e3908161009e8239608051818181609601526102ea0152f35b600080fd5b634e487b7160e01b600052604160045260246000fdfe608080604052600436101561001357600080fd5b60003560e01c908163088680171461026157508063811ee32a1461011157806390dca2a2146100bf5763c440450e1461004b57600080fd5b346100ba5760007ffffffffffffffffffffffffffffffffffffffffffffffffffffffffffffffffc3601126100ba57602060405173ffffffffffffffffffffffffffffffffffffffff7f0000000000000000000000000000000000000000000000000000000000000000168152f35b600080fd5b346100ba5760007ffffffffffffffffffffffffffffffffffffffffffffffffffffffffffffffffc3601126100ba57602073ffffffffffffffffffffffffffffffffffffffff60005416604051908152f35b346100ba5760207ffffffffffffffffffffffffffffffffffffffffffffffffffffffffffffffffc3601126100ba5760043563ffffffff81168091036100ba576020600091602473ffffffffffffffffffffffffffffffffffffffff8454169160405194859384927f811ee32a00000000000000000000000000000000000000000000000000000000845260048401525af1908115610255576000916101bd575b602082604051908152f35b60203d60201161024e575b7fffffffffffffffffffffffffffffffffffffffffffffffffffffffffffffffe0601f820116820182811067ffffffffffffffff8211176102215760209183916040528101031261021d5751905060206101b2565b5080fd5b6024847f4e487b710000000000000000000000000000000000000000000000000000000081526041600452fd5b503d6101c8565b6040513d6000823e3d90fd5b346100ba5760407ffffffffffffffffffffffffffffffffffffffffffffffffffffffffffffffffc3601126100ba576024359067ffffffffffffffff82116100ba57366023830112156100ba57816004013567ffffffffffffffff81116100ba578060051b9036602483860101116100ba5773ffffffffffffffffffffffffffffffffffffffff7f000000000000000000000000000000000000000000000000000000000000000016330361037f577f07ffffffffffffffffffffffffffffffffffffffffffffffffffffffffffffff90600435845260406020850152806040850152116100ba57818160609260247fea15198093f81ef73e0f680b421b320a9b885c28a98a63b64a85e1acf6e1894a9601848401378101030190a1005b7fc05bb6cb000000000000000000000000000000000000000000000000000000006000523360045260246000fdfea26469706673582212205f0cc29da32351cc2162d2efb12fa06c8de24b37ae2fd3e8a4cb369b8fdf2b5264736f6c634300081e0033",
  "linkReferences": {},
  "deployedLinkReferences": {}
}