{
  "_format": "hh-sol-artifact-1",
  "contractName": "OrbsBurnPool",
  "sourceName": "contracts/burn/OrbsBurnPool.sol",
  "abi": [
    {
      "inputs": [
        {
          "internalType": "uint256",
          "name": "initialTime",
          "type": "uint256"
        },
        {
          "internalType": "uint256",
          "name": "cycleDuration",
          "type": "uint256"
        },
        {
          "internalType": "uint256",
          "name": "maxCycle",
          "type": "uint256"
        },
        {
          "internalType": "bytes32",
          "name": "merkleRoot",
          "type": "bytes32"
        },
        {
          "internalType": "contract IERC1155Burnable",
          "name": "orbOfPower",
          "type": "address"
        },
        {
          "internalType": "contract IERC1155Burnable",
          "name": "missingOrb",
          "type": "address"
        },
        {
          "internalType": "contract IForwarderRegistry",
          "name": "forwarderRegistry",
          "type": "address"
        }
      ],
      "stateMutability": "nonpayable",
      "type": "constructor"
    },
    {
      "inputs": [
        {
          "internalType": "address",
          "name": "wallet",
          "type": "address"
        }
      ],
      "name": "AlreadySetROCMultiplier",
      "type": "error"
    },
    {
      "inputs": [],
      "name": "IllegalInterfaceId",
      "type": "error"
    },
    {
      "inputs": [
        {
          "internalType": "uint256",
          "name": "cycle",
          "type": "uint256"
        }
      ],
      "name": "InvalidCycle",
      "type": "error"
    },
    {
      "inputs": [
        {
          "internalType": "address",
          "name": "recipient",
          "type": "address"
        },
        {
          "internalType": "uint256",
          "name": "puzzleGameMultiplierNumerator",
          "type": "uint256"
        }
      ],
      "name": "InvalidProof",
      "type": "error"
    },
    {
      "inputs": [
        {
          "internalType": "address",
          "name": "token",
          "type": "address"
        }
      ],
      "name": "InvalidTokenAddress",
      "type": "error"
    },
    {
      "inputs": [
        {
          "internalType": "address",
          "name": "token",
          "type": "address"
        },
        {
          "internalType": "uint256",
          "name": "tokenId",
          "type": "uint256"
        }
      ],
      "name": "InvalidTokenId",
      "type": "error"
    },
    {
      "inputs": [
        {
          "internalType": "address",
          "name": "token",
          "type": "address"
        },
        {
          "internalType": "uint256",
          "name": "tokenId",
          "type": "uint256"
        },
        {
          "internalType": "uint256",
          "name": "value",
          "type": "uint256"
        }
      ],
      "name": "InvalidTokenValue",
      "type": "error"
    },
    {
      "inputs": [],
      "name": "ZeroCycleDuration",
      "type": "error"
    },
    {
      "inputs": [],
      "name": "ZeroMaxCycle",
      "type": "error"
    },
    {
      "anonymous": false,
      "inputs": [
        {
          "indexed": true,
          "internalType": "address",
          "name": "burner",
          "type": "address"
        },
        {
          "indexed": true,
          "internalType": "uint256",
          "name": "cycle",
          "type": "uint256"
        },
        {
          "indexed": false,
          "internalType": "uint256[]",
          "name": "ids",
          "type": "uint256[]"
        },
        {
          "indexed": false,
          "internalType": "uint256[]",
          "name": "values",
          "type": "uint256[]"
        },
        {
          "indexed": false,
          "internalType": "uint256",
          "name": "ash",
          "type": "uint256"
        },
        {
          "indexed": false,
          "internalType": "uint256",
          "name": "totalAsh",
          "type": "uint256"
        },
        {
          "indexed": false,
          "internalType": "uint256",
          "name": "orbMultiplier",
          "type": "uint256"
        }
      ],
      "name": "GenerateAsh",
      "type": "event"
    },
    {
      "anonymous": false,
      "inputs": [
        {
          "indexed": true,
          "internalType": "address",
          "name": "recipient",
          "type": "address"
        },
        {
          "indexed": false,
          "internalType": "uint256",
          "name": "curOrbMultiplier",
          "type": "uint256"
        },
        {
          "indexed": false,
          "internalType": "uint256",
          "name": "updatedOrbMultiplier",
          "type": "uint256"
        }
      ],
      "name": "UpdateOrbMultiplier",
      "type": "event"
    },
    {
      "inputs": [],
      "name": "BURN_WEIGHT_TOKEN_1",
      "outputs": [
        {
          "internalType": "uint256",
          "name": "",
          "type": "uint256"
        }
      ],
      "stateMutability": "view",
      "type": "function"
    },
    {
      "inputs": [],
      "name": "BURN_WEIGHT_TOKEN_2",
      "outputs": [
        {
          "internalType": "uint256",
          "name": "",
          "type": "uint256"
        }
      ],
      "stateMutability": "view",
      "type": "function"
    },
    {
      "inputs": [],
      "name": "BURN_WEIGHT_TOKEN_3",
      "outputs": [
        {
          "internalType": "uint256",
          "name": "",
          "type": "uint256"
        }
      ],
      "stateMutability": "view",
      "type": "function"
    },
    {
      "inputs": [],
      "name": "BURN_WEIGHT_TOKEN_4",
      "outputs": [
        {
          "internalType": "uint256",
          "name": "",
          "type": "uint256"
        }
      ],
      "stateMutability": "view",
      "type": "function"
    },
    {
      "inputs": [],
      "name": "BURN_WEIGHT_TOKEN_5",
      "outputs": [
        {
          "internalType": "uint256",
          "name": "",
          "type": "uint256"
        }
      ],
      "stateMutability": "view",
      "type": "function"
    },
    {
      "inputs": [],
      "name": "BURN_WEIGHT_TOKEN_6",
      "outputs": [
        {
          "internalType": "uint256",
          "name": "",
          "type": "uint256"
        }
      ],
      "stateMutability": "view",
      "type": "function"
    },
    {
      "inputs": [],
      "name": "BURN_WEIGHT_TOKEN_7",
      "outputs": [
        {
          "internalType": "uint256",
          "name": "",
          "type": "uint256"
        }
      ],
      "stateMutability": "view",
      "type": "function"
    },
    {
      "inputs": [],
      "name": "CYCLE_DURATION",
      "outputs": [
        {
          "internalType": "uint256",
          "name": "",
          "type": "uint256"
        }
      ],
      "stateMutability": "view",
      "type": "function"
    },
    {
      "inputs": [],
      "name": "INITIAL_TIME",
      "outputs": [
        {
          "internalType": "uint256",
          "name": "",
          "type": "uint256"
        }
      ],
      "stateMutability": "view",
      "type": "function"
    },
    {
      "inputs": [],
      "name": "MAX_CYCLE",
      "outputs": [
        {
          "internalType": "uint256",
          "name": "",
          "type": "uint256"
        }
      ],
      "stateMutability": "view",
      "type": "function"
    },
    {
      "inputs": [],
      "name": "MERKLE_ROOT",
      "outputs": [
        {
          "internalType": "bytes32",
          "name": "",
          "type": "bytes32"
        }
      ],
      "stateMutability": "view",
      "type": "function"
    },
    {
      "inputs": [],
      "name": "MISSING_ORB",
      "outputs": [
        {
          "internalType": "contract IERC1155Burnable",
          "name": "",
          "type": "address"
        }
      ],
      "stateMutability": "view",
      "type": "function"
    },
    {
      "inputs": [],
      "name": "MISSING_ORB_TOKEN_ID",
      "outputs": [
        {
          "internalType": "uint256",
          "name": "",
          "type": "uint256"
        }
      ],
      "stateMutability": "view",
      "type": "function"
    },
    {
      "inputs": [],
      "name": "ORB_OF_POWER",
      "outputs": [
        {
          "internalType": "contract IERC1155Burnable",
          "name": "",
          "type": "address"
        }
      ],
      "stateMutability": "view",
      "type": "function"
    },
    {
      "inputs": [],
      "name": "ROC_MULTIPLIER",
      "outputs": [
        {
          "internalType": "uint256",
          "name": "",
          "type": "uint256"
        }
      ],
      "stateMutability": "view",
      "type": "function"
    },
    {
      "inputs": [],
      "name": "currentCycle",
      "outputs": [
        {
          "internalType": "uint256",
          "name": "",
          "type": "uint256"
        }
      ],
      "stateMutability": "view",
      "type": "function"
    },
    {
      "inputs": [],
      "name": "forwarderRegistry",
      "outputs": [
        {
          "internalType": "contract IForwarderRegistry",
          "name": "",
          "type": "address"
        }
      ],
      "stateMutability": "view",
      "type": "function"
    },
    {
      "inputs": [
        {
          "internalType": "address",
          "name": "forwarder",
          "type": "address"
        }
      ],
      "name": "isTrustedForwarder",
      "outputs": [
        {
          "internalType": "bool",
          "name": "",
          "type": "bool"
        }
      ],
      "stateMutability": "view",
      "type": "function"
    },
    {
      "inputs": [
        {
          "internalType": "address",
          "name": "",
          "type": "address"
        },
        {
          "internalType": "address",
          "name": "from",
          "type": "address"
        },
        {
          "internalType": "uint256[]",
          "name": "ids",
          "type": "uint256[]"
        },
        {
          "internalType": "uint256[]",
          "name": "values",
          "type": "uint256[]"
        },
        {
          "internalType": "bytes",
          "name": "data",
          "type": "bytes"
        }
      ],
      "name": "onERC1155BatchReceived",
      "outputs": [
        {
          "internalType": "bytes4",
          "name": "",
          "type": "bytes4"
        }
      ],
      "stateMutability": "nonpayable",
      "type": "function"
    },
    {
      "inputs": [
        {
          "internalType": "address",
          "name": "",
          "type": "address"
        },
        {
          "internalType": "address",
          "name": "from",
          "type": "address"
        },
        {
          "internalType": "uint256",
          "name": "id",
          "type": "uint256"
        },
        {
          "internalType": "uint256",
          "name": "value",
          "type": "uint256"
        },
        {
          "internalType": "bytes",
          "name": "data",
          "type": "bytes"
        }
      ],
      "name": "onERC1155Received",
      "outputs": [
        {
          "internalType": "bytes4",
          "name": "",
          "type": "bytes4"
        }
      ],
      "stateMutability": "nonpayable",
      "type": "function"
    },
    {
      "inputs": [
        {
          "internalType": "address",
          "name": "",
          "type": "address"
        }
      ],
      "name": "orbMultipliers",
      "outputs": [
        {
          "internalType": "uint256",
          "name": "",
          "type": "uint256"
        }
      ],
      "stateMutability": "view",
      "type": "function"
    },
    {
      "inputs": [
        {
          "internalType": "bytes4",
          "name": "interfaceId",
          "type": "bytes4"
        }
      ],
      "name": "supportsInterface",
      "outputs": [
        {
          "internalType": "bool",
          "name": "",
          "type": "bool"
        }
      ],
      "stateMutability": "view",
      "type": "function"
    },
    {
      "inputs": [
        {
          "internalType": "uint256",
          "name": "",
          "type": "uint256"
        }
      ],
      "name": "totalAshPerCycle",
      "outputs": [
        {
          "internalType": "uint256",
          "name": "",
          "type": "uint256"
        }
      ],
      "stateMutability": "view",
      "type": "function"
    },
    {
      "inputs": [
        {
          "internalType": "uint256",
          "name": "",
          "type": "uint256"
        },
        {
          "internalType": "address",
          "name": "",
          "type": "address"
        }
      ],
      "name": "userAshPerCycle",
      "outputs": [
        {
          "internalType": "uint256",
          "name": "",
          "type": "uint256"
        }
      ],
      "stateMutability": "view",
      "type": "function"
    }
  ],
  "bytecode": "0x6101606040523480156200001257600080fd5b5060405162001a4438038062001a44833981016040819052620000359162000189565b6001600160a01b03811660805262000062630271189760e51b60016200005a620000dd565b919062000113565b60e087905260008690036200008a5760405163b870efbd60e01b815260040160405180910390fd5b6101008690526000859003620000b357604051637e5e559b60e11b815260040160405180910390fd5b5061012093909352610140919091526001600160a01b0390811660a0521660c05250620002269050565b6000806200010d60017fca9d3e17f264b0f3984e2634e94adb37fa3e6a8103f06aeae6fa59e21c769f5e62000204565b92915050565b600160e01b6001600160e01b031983160162000142576040516372c683bb60e01b815260040160405180910390fd5b6001600160e01b03199190911660009081526020929092526040909120805460ff1916911515919091179055565b6001600160a01b03811681146200018657600080fd5b50565b600080600080600080600060e0888a031215620001a557600080fd5b875196506020880151955060408801519450606088015193506080880151620001ce8162000170565b60a0890151909350620001e18162000170565b60c0890151909250620001f48162000170565b8091505092959891949750929550565b818103818111156200010d57634e487b7160e01b600052601160045260246000fd5b60805160a05160c05160e05161010051610120516101405161177d620002c760003960008181610303015281816109c60152610f4b0152600081816101e0015281816105530152610d4c01526000818161041a01526104750152600081816102b101526104990152600081816103f30152610c5801526000818161022f015281816104e7015261086c015260008181610278015261033d015261177d6000f3fe608060405234801561001057600080fd5b50600436106101985760003560e01c806351e75e8b116100e3578063bc197c811161008c578063cd421fbf11610066578063cd421fbf14610415578063f23a6e611461043c578063f95d10161461044f57600080fd5b8063bc197c81146103a2578063c131754e146103e6578063cd18a34f146103ee57600080fd5b8063aa918fd5116100bd578063aa918fd5146102a4578063ab504e731461037a578063bab2f5521461039a57600080fd5b806351e75e8b146102fe57806355f5b0a814610325578063572b6c051461032d57600080fd5b806328a979cf11610145578063424ab4f71161011f578063424ab4f7146102a4578063491bde66146102ac5780634dac1c2b146102d357600080fd5b806328a979cf1461022a5780632b4c9f16146102765780633838a2011461029c57600080fd5b80630455645a116101765780630455645a1461020257806312828b7f1461020a5780631de0e40b146101c557600080fd5b806301ffc9a71461019d5780630277640e146101c5578063043063bc146101db575b600080fd5b6101b06101ab3660046111f3565b610457565b60405190151581526020015b60405180910390f35b6101cd600181565b6040519081526020016101bc565b6101cd7f000000000000000000000000000000000000000000000000000000000000000081565b6101cd600581565b6101cd61021836600461125e565b60026020526000908152604090205481565b6102517f000000000000000000000000000000000000000000000000000000000000000081565b60405173ffffffffffffffffffffffffffffffffffffffff90911681526020016101bc565b7f0000000000000000000000000000000000000000000000000000000000000000610251565b6101cd601981565b6101cd600381565b6101cd7f000000000000000000000000000000000000000000000000000000000000000081565b6101cd6102e1366004611279565b600160209081526000928352604080842090915290825290205481565b6101cd7f000000000000000000000000000000000000000000000000000000000000000081565b6101cd600281565b6101b061033b36600461125e565b7f000000000000000000000000000000000000000000000000000000000000000073ffffffffffffffffffffffffffffffffffffffff90811691161490565b6101cd6103883660046112a5565b60006020819052908152604090205481565b6101cd610471565b6103b56103b036600461134c565b6104cd565b6040517fffffffff0000000000000000000000000000000000000000000000000000000090911681526020016101bc565b6101cd601081565b6102517f000000000000000000000000000000000000000000000000000000000000000081565b6101cd7f000000000000000000000000000000000000000000000000000000000000000081565b6103b561044a366004611407565b610c3e565b6101cd600981565b600061046b82610465611060565b9061108e565b92915050565b60007f00000000000000000000000000000000000000000000000000000000000000006104be7f0000000000000000000000000000000000000000000000000000000000000000426114ae565b6104c891906114c1565b905090565b60003373ffffffffffffffffffffffffffffffffffffffff7f00000000000000000000000000000000000000000000000000000000000000001614610545576040517f733068030000000000000000000000000000000000000000000000000000000081523360048201526024015b60405180910390fd5b600061054f610471565b90507f00000000000000000000000000000000000000000000000000000000000000008111156105ae576040517f764e560f0000000000000000000000000000000000000000000000000000000081526004810182905260240161053c565b6040517f8053493400000000000000000000000000000000000000000000000000000000815233906380534934906105f29030908c908c908c908c90600401611547565b600060405180830381600087803b15801561060c57600080fd5b505af1158015610620573d6000803e3d6000fd5b505050506000805b888110156108fe5787878281811061064257610642611596565b905060200201356000036106dc57338a8a8381811061066357610663611596565b9050602002013589898481811061067c5761067c611596565b6040517fe1f366e900000000000000000000000000000000000000000000000000000000815273ffffffffffffffffffffffffffffffffffffffff909516600486015260248501939093525060209091020135604482015260640161053c565b8989828181106106ee576106ee611596565b9050602002013560010361073257600188888381811061071057610710611596565b9050602002013561072191906115c5565b61072b90836115dc565b91506108f6565b89898281811061074457610744611596565b9050602002013560020361076657600388888381811061071057610710611596565b89898281811061077857610778611596565b9050602002013560030361079a57600388888381811061071057610710611596565b8989828181106107ac576107ac611596565b905060200201356004036107ce57600588888381811061071057610710611596565b8989828181106107e0576107e0611596565b9050602002013560050361080257600988888381811061071057610710611596565b89898281811061081457610814611596565b9050602002013560060361083657601988888381811061071057610710611596565b89898281811061084857610848611596565b9050602002013560070361086a57601088888381811061071057610710611596565b7f00000000000000000000000000000000000000000000000000000000000000008a8a8381811061089d5761089d611596565b6040517f1912ea5100000000000000000000000000000000000000000000000000000000815273ffffffffffffffffffffffffffffffffffffffff9094166004850152602002919091013560248301525060440161053c565b600101610628565b5073ffffffffffffffffffffffffffffffffffffffff8a166000908152600260205260409020548a908515610ad05760008061093c888a018a61161e565b91509150608083901c600003610ab0576040517fffffffffffffffffffffffffffffffffffffffff000000000000000000000000606086901b16602082015260348101829052600090605401604080517fffffffffffffffffffffffffffffffffffffffffffffffffffffffffffffffe0818403018152919052805160209091012090506109eb837f000000000000000000000000000000000000000000000000000000000000000083611168565b610a40576040517fadbd651200000000000000000000000000000000000000000000000000000000815273ffffffffffffffffffffffffffffffffffffffff861660048201526024810183905260440161053c565b73ffffffffffffffffffffffffffffffffffffffff8516600081815260026020908152604091829020608086901b881790819055825188815291820181905292917f528dfe447bc8e2a31cbcf22a36526a2fcc9ac2b2fc9a850ddaf575bb2aab3433910160405180910390a29350505b612710610abd82876115c5565b610ac791906114c1565b94505050610af7565b608081901c8015610af557612710610ae882866115c5565b610af291906114c1565b93505b505b6fffffffffffffffffffffffffffffffff81168015610b1d57610b1a81856115c5565b93505b600085815260016020908152604080832073ffffffffffffffffffffffffffffffffffffffff87168452909152812054610b589086906115dc565b600087815260016020908152604080832073ffffffffffffffffffffffffffffffffffffffff89168452825280832084905589835290829052812080549293508792909190610ba89084906115dc565b92505081905550858473ffffffffffffffffffffffffffffffffffffffff167f6e46cd5a8f4134e080f5038ee4632b01a585b6052863e4a1f0d5c57b1a35645b8f8f8f8f8b888b604051610c029796959493929190611700565b60405180910390a3507fbc197c81000000000000000000000000000000000000000000000000000000009e9d5050505050505050505050505050565b60003373ffffffffffffffffffffffffffffffffffffffff7f00000000000000000000000000000000000000000000000000000000000000001614610cb1576040517f7330680300000000000000000000000000000000000000000000000000000000815233600482015260240161053c565b60018514610cf4576040517f1912ea510000000000000000000000000000000000000000000000000000000081523360048201526024810186905260440161053c565b83600114610d3e576040517fe1f366e9000000000000000000000000000000000000000000000000000000008152336004820152602481018690526044810185905260640161053c565b6000610d48610471565b90507f0000000000000000000000000000000000000000000000000000000000000000811115610da7576040517f764e560f0000000000000000000000000000000000000000000000000000000081526004810182905260240161053c565b73ffffffffffffffffffffffffffffffffffffffff87166000908152600260205260409020546fffffffffffffffffffffffffffffffff811615610e2f576040517f383b549300000000000000000000000000000000000000000000000000000000815273ffffffffffffffffffffffffffffffffffffffff8916600482015260240161053c565b6040517f124d91e50000000000000000000000000000000000000000000000000000000081523060048201526024810188905260448101879052339063124d91e590606401600060405180830381600087803b158015610e8e57600080fd5b505af1158015610ea2573d6000803e3d6000fd5b5050506002821790508415610fcf57608082901c600003610fcf57600080610ecc8789018961161e565b6040517fffffffffffffffffffffffffffffffffffffffff00000000000000000000000060608f901b166020820152603481018290529193509150600090605401604080517fffffffffffffffffffffffffffffffffffffffffffffffffffffffffffffffe081840301815291905280516020909101209050610f70837f000000000000000000000000000000000000000000000000000000000000000083611168565b610fc5576040517fadbd651200000000000000000000000000000000000000000000000000000000815273ffffffffffffffffffffffffffffffffffffffff8d1660048201526024810183905260440161053c565b5060801b90911790505b73ffffffffffffffffffffffffffffffffffffffff891660008181526002602090815260409182902084905581518581529081018490527f528dfe447bc8e2a31cbcf22a36526a2fcc9ac2b2fc9a850ddaf575bb2aab3433910160405180910390a2507ff23a6e61000000000000000000000000000000000000000000000000000000009998505050505050505050565b60008061046b60017fca9d3e17f264b0f3984e2634e94adb37fa3e6a8103f06aeae6fa59e21c769f5e6114ae565b60007c01000000000000000000000000000000000000000000000000000000007fffffffff000000000000000000000000000000000000000000000000000000008316016110de5750600061046b565b7ffe003659000000000000000000000000000000000000000000000000000000007fffffffff0000000000000000000000000000000000000000000000000000000083160161112f5750600161046b565b507fffffffff00000000000000000000000000000000000000000000000000000000166000908152602091909152604090205460ff1690565b600082611175858461117e565b14949350505050565b600081815b84518110156111b9576111af828683815181106111a2576111a2611596565b60200260200101516111c1565b9150600101611183565b509392505050565b60008183106111dd5760008281526020849052604090206111ec565b60008381526020839052604090205b9392505050565b60006020828403121561120557600080fd5b81357fffffffff00000000000000000000000000000000000000000000000000000000811681146111ec57600080fd5b803573ffffffffffffffffffffffffffffffffffffffff8116811461125957600080fd5b919050565b60006020828403121561127057600080fd5b6111ec82611235565b6000806040838503121561128c57600080fd5b8235915061129c60208401611235565b90509250929050565b6000602082840312156112b757600080fd5b5035919050565b60008083601f8401126112d057600080fd5b50813567ffffffffffffffff8111156112e857600080fd5b6020830191508360208260051b850101111561130357600080fd5b9250929050565b60008083601f84011261131c57600080fd5b50813567ffffffffffffffff81111561133457600080fd5b60208301915083602082850101111561130357600080fd5b60008060008060008060008060a0898b03121561136857600080fd5b61137189611235565b975061137f60208a01611235565b9650604089013567ffffffffffffffff8082111561139c57600080fd5b6113a88c838d016112be565b909850965060608b01359150808211156113c157600080fd5b6113cd8c838d016112be565b909650945060808b01359150808211156113e657600080fd5b506113f38b828c0161130a565b999c989b5096995094979396929594505050565b60008060008060008060a0878903121561142057600080fd5b61142987611235565b955061143760208801611235565b94506040870135935060608701359250608087013567ffffffffffffffff81111561146157600080fd5b61146d89828a0161130a565b979a9699509497509295939492505050565b7f4e487b7100000000000000000000000000000000000000000000000000000000600052601160045260246000fd5b8181038181111561046b5761046b61147f565b6000826114f7577f4e487b7100000000000000000000000000000000000000000000000000000000600052601260045260246000fd5b500490565b81835260007f07ffffffffffffffffffffffffffffffffffffffffffffffffffffffffffffff83111561152e57600080fd5b8260051b80836020870137939093016020019392505050565b73ffffffffffffffffffffffffffffffffffffffff861681526060602082015260006115776060830186886114fc565b828103604084015261158a8185876114fc565b98975050505050505050565b7f4e487b7100000000000000000000000000000000000000000000000000000000600052603260045260246000fd5b808202811582820484141761046b5761046b61147f565b8082018082111561046b5761046b61147f565b7f4e487b7100000000000000000000000000000000000000000000000000000000600052604160045260246000fd5b6000806040838503121561163157600080fd5b823567ffffffffffffffff8082111561164957600080fd5b818501915085601f83011261165d57600080fd5b8135602082821115611671576116716115ef565b8160051b6040517fffffffffffffffffffffffffffffffffffffffffffffffffffffffffffffffe0603f830116810181811086821117156116b4576116b46115ef565b6040529283528183019350848101820192898411156116d257600080fd5b948201945b838610156116f0578535855294820194938201936116d7565b9997909101359750505050505050565b60a08152600061171460a08301898b6114fc565b828103602084015261172781888a6114fc565b60408401969096525050606081019290925260809091015294935050505056fea2646970667358221220de8fc296f7cd15405f7f60af5181fba063d6ff5cf98ccece09612aeec702624d64736f6c63430008160033",
  "linkReferences": {},
  "deployedLinkReferences": {}
}