{
  "_format": "hh-sol-artifact-1",
  "contractName": "PointsSpenderMock",
  "sourceName": "contracts/mocks/arena/ArenaPointsMock.sol",
  "abi": [
    {
      "inputs": [
        {
          "internalType": "address",
          "name": "holder",
          "type": "address"
        },
        {
          "internalType": "uint256",
          "name": "requiredBalance",
          "type": "uint256"
        }
      ],
      "name": "InsufficientBalance",
      "type": "error"
    },
    {
      "anonymous": false,
      "inputs": [
        {
          "indexed": true,
          "internalType": "address",
          "name": "operator",
          "type": "address"
        },
        {
          "indexed": true,
          "internalType": "bytes32",
          "name": "reasonCode",
          "type": "bytes32"
        },
        {
          "indexed": true,
          "internalType": "address",
          "name": "holder",
          "type": "address"
        },
        {
          "indexed": false,
          "internalType": "uint256",
          "name": "amount",
          "type": "uint256"
        }
      ],
      "name": "Consumed",
      "type": "event"
    },
    {
      "anonymous": false,
      "inputs": [
        {
          "indexed": true,
          "internalType": "address",
          "name": "sender",
          "type": "address"
        },
        {
          "indexed": true,
          "internalType": "bytes32",
          "name": "reasonCode",
          "type": "bytes32"
        },
        {
          "indexed": true,
          "internalType": "address",
          "name": "holder",
          "type": "address"
        },
        {
          "indexed": false,
          "internalType": "uint256",
          "name": "amount",
          "type": "uint256"
        }
      ],
      "name": "Deposited",
      "type": "event"
    },
    {
      "inputs": [
        {
          "internalType": "address",
          "name": "holder",
          "type": "address"
        }
      ],
      "name": "balances",
      "outputs": [
        {
          "internalType": "uint256",
          "name": "balance",
          "type": "uint256"
        }
      ],
      "stateMutability": "view",
      "type": "function"
    },
    {
      "inputs": [
        {
          "internalType": "address",
          "name": "holder",
          "type": "address"
        },
        {
          "internalType": "uint256",
          "name": "amount",
          "type": "uint256"
        },
        {
          "internalType": "bytes32",
          "name": "consumeReasonCode",
          "type": "bytes32"
        }
      ],
      "name": "consume",
      "outputs": [],
      "stateMutability": "nonpayable",
      "type": "function"
    },
    {
      "inputs": [
        {
          "internalType": "address",
          "name": "holder",
          "type": "address"
        },
        {
          "internalType": "uint256",
          "name": "amount",
          "type": "uint256"
        },
        {
          "internalType": "bytes32",
          "name": "depositReasonCode",
          "type": "bytes32"
        }
      ],
      "name": "deposit",
      "outputs": [],
      "stateMutability": "nonpayable",
      "type": "function"
    }
  ],
  "bytecode": "0x6080604052348015600f57600080fd5b506103448061001f6000396000f3fe608060405234801561001057600080fd5b50600436106100415760003560e01c8063212aac791461004657806326b3293f1461005b57806327e235e31461006e575b600080fd5b61005961005436600461025e565b6100a0565b005b61005961006936600461025e565b6100b1565b61008e61007c366004610291565b60006020819052908152604090205481565b60405190815260200160405180910390f35b6100ac3384848461013f565b505050565b73ffffffffffffffffffffffffffffffffffffffff8316600090815260208190526040812080548492906100e69084906102e2565b909155505060405182815273ffffffffffffffffffffffffffffffffffffffff841690829033907f81226022599698f02239ac5895ce7a96962ba5fe72f8f7610d1cc2cb0405f3919060200160405180910390a4505050565b73ffffffffffffffffffffffffffffffffffffffff8316600090815260208190526040902054828110156101c2576040517ff6deaa0400000000000000000000000000000000000000000000000000000000815273ffffffffffffffffffffffffffffffffffffffff851660048201526024810184905260440160405180910390fd5b6101cc83826102fb565b73ffffffffffffffffffffffffffffffffffffffff858116600081815260208181526040918290209490945551868152909285928916917f483f7fdbc58a2920f2e502b1bbbb896329d7c8ddca129d0875d589e895186857910160405180910390a45050505050565b803573ffffffffffffffffffffffffffffffffffffffff8116811461025957600080fd5b919050565b60008060006060848603121561027357600080fd5b61027c84610235565b95602085013595506040909401359392505050565b6000602082840312156102a357600080fd5b6102ac82610235565b9392505050565b7f4e487b7100000000000000000000000000000000000000000000000000000000600052601160045260246000fd5b808201808211156102f5576102f56102b3565b92915050565b818103818111156102f5576102f56102b356fea2646970667358221220d6db9547a1f124c88840c57d034a9b266108537cb4204bf5a357a2ce4018d14d64736f6c634300081c0033",
  "linkReferences": {},
  "deployedLinkReferences": {}
}