{
  "_format": "hh-sol-artifact-1",
  "contractName": "ERC20ReceiverMock",
  "sourceName": "contracts/mocks/ERC20/ERC20ReceiverMock.sol",
  "abi": [
    {
      "inputs": [
        {
          "internalType": "address",
          "name": "",
          "type": "address"
        },
        {
          "internalType": "address",
          "name": "",
          "type": "address"
        },
        {
          "internalType": "uint256",
          "name": "",
          "type": "uint256"
        },
        {
          "internalType": "bytes",
          "name": "",
          "type": "bytes"
        }
      ],
      "name": "onERC20Received",
      "outputs": [
        {
          "internalType": "bytes4",
          "name": "",
          "type": "bytes4"
        }
      ],
      "stateMutability": "pure",
      "type": "function"
    }
  ],
  "bytecode": "0x6080604052348015600f57600080fd5b506101998061001f6000396000f3fe608060405234801561001057600080fd5b506004361061002b5760003560e01c80634fc3585914610030575b600080fd5b61006861003e3660046100c6565b7f4fc358590000000000000000000000000000000000000000000000000000000095945050505050565b6040517fffffffff00000000000000000000000000000000000000000000000000000000909116815260200160405180910390f35b803573ffffffffffffffffffffffffffffffffffffffff811681146100c157600080fd5b919050565b6000806000806000608086880312156100de57600080fd5b6100e78661009d565b94506100f56020870161009d565b935060408601359250606086013567ffffffffffffffff81111561011857600080fd5b8601601f8101881361012957600080fd5b803567ffffffffffffffff81111561014057600080fd5b88602082840101111561015257600080fd5b95989497509295505050602001919056fea2646970667358221220bd8700687f44bbeeb29e64bf712b32acbeec6dc976e13a32fcb070b77bfd8eaa64736f6c634300081c0033",
  "linkReferences": {},
  "deployedLinkReferences": {}
}