{
  "_format": "hh-sol-artifact-1",
  "contractName": "ERC20StakingPointsRewardsLimitedLinearPool",
  "sourceName": "contracts/staking/linear/ERC20StakingPointsRewardsLimitedLinearPool.sol",
  "abi": [
    {
      "inputs": [
        {
          "internalType": "address",
          "name": "claimContract",
          "type": "address"
        },
        {
          "internalType": "contract IERC20",
          "name": "stakingToken",
          "type": "address"
        },
        {
          "internalType": "contract IPointsV2",
          "name": "pointsContract",
          "type": "address"
        },
        {
          "internalType": "bytes32",
          "name": "depositReasonCode",
          "type": "bytes32"
        },
        {
          "internalType": "contract IForwarderRegistry",
          "name": "forwarderRegistry",
          "type": "address"
        }
      ],
      "stateMutability": "nonpayable",
      "type": "constructor"
    },
    {
      "inputs": [
        {
          "internalType": "address",
          "name": "staker",
          "type": "address"
        }
      ],
      "name": "AlreadyClaimed",
      "type": "error"
    },
    {
      "inputs": [],
      "name": "FailedCall",
      "type": "error"
    },
    {
      "inputs": [],
      "name": "IllegalInterfaceId",
      "type": "error"
    },
    {
      "inputs": [],
      "name": "InconsistentArrayLengths",
      "type": "error"
    },
    {
      "inputs": [
        {
          "internalType": "address",
          "name": "tokenContract",
          "type": "address"
        }
      ],
      "name": "IncorrectTokenContractType",
      "type": "error"
    },
    {
      "inputs": [
        {
          "internalType": "uint256",
          "name": "balance",
          "type": "uint256"
        },
        {
          "internalType": "uint256",
          "name": "needed",
          "type": "uint256"
        }
      ],
      "name": "InsufficientBalance",
      "type": "error"
    },
    {
      "inputs": [
        {
          "internalType": "uint256",
          "name": "claimable",
          "type": "uint256"
        },
        {
          "internalType": "uint256",
          "name": "claimed",
          "type": "uint256"
        },
        {
          "internalType": "uint256",
          "name": "unclaimed",
          "type": "uint256"
        }
      ],
      "name": "InvalidClaimSum",
      "type": "error"
    },
    {
      "inputs": [],
      "name": "InvalidDuration",
      "type": "error"
    },
    {
      "inputs": [],
      "name": "InvalidMerkleRoot",
      "type": "error"
    },
    {
      "inputs": [],
      "name": "InvalidPointsContract",
      "type": "error"
    },
    {
      "inputs": [
        {
          "internalType": "address",
          "name": "staker",
          "type": "address"
        },
        {
          "internalType": "uint256",
          "name": "amount",
          "type": "uint256"
        }
      ],
      "name": "InvalidProof",
      "type": "error"
    },
    {
      "inputs": [
        {
          "internalType": "uint256",
          "name": "requested",
          "type": "uint256"
        },
        {
          "internalType": "uint256",
          "name": "recoverable",
          "type": "uint256"
        }
      ],
      "name": "InvalidRecoveryAmount",
      "type": "error"
    },
    {
      "inputs": [],
      "name": "InvalidRewardAmount",
      "type": "error"
    },
    {
      "inputs": [],
      "name": "InvalidStakeAmount",
      "type": "error"
    },
    {
      "inputs": [],
      "name": "InvalidToken",
      "type": "error"
    },
    {
      "inputs": [],
      "name": "InvalidWithdrawAmount",
      "type": "error"
    },
    {
      "inputs": [],
      "name": "MerkleRootAlreadySet",
      "type": "error"
    },
    {
      "inputs": [],
      "name": "MerkleRootNotSet",
      "type": "error"
    },
    {
      "inputs": [
        {
          "internalType": "address",
          "name": "account",
          "type": "address"
        }
      ],
      "name": "NotContractOwner",
      "type": "error"
    },
    {
      "inputs": [
        {
          "internalType": "address",
          "name": "staker",
          "type": "address"
        },
        {
          "internalType": "uint256",
          "name": "stake",
          "type": "uint256"
        },
        {
          "internalType": "uint256",
          "name": "withdraw",
          "type": "uint256"
        }
      ],
      "name": "NotEnoughStake",
      "type": "error"
    },
    {
      "inputs": [
        {
          "internalType": "bytes32",
          "name": "role",
          "type": "bytes32"
        },
        {
          "internalType": "address",
          "name": "account",
          "type": "address"
        }
      ],
      "name": "NotRoleHolder",
      "type": "error"
    },
    {
      "inputs": [],
      "name": "ReentrancyGuardReentrantCall",
      "type": "error"
    },
    {
      "inputs": [
        {
          "internalType": "uint256",
          "name": "currentRewardRate",
          "type": "uint256"
        },
        {
          "internalType": "uint256",
          "name": "newRewardRate",
          "type": "uint256"
        }
      ],
      "name": "RewardDilution",
      "type": "error"
    },
    {
      "inputs": [],
      "name": "RewardOverflow",
      "type": "error"
    },
    {
      "inputs": [
        {
          "internalType": "address",
          "name": "token",
          "type": "address"
        }
      ],
      "name": "SafeERC20FailedOperation",
      "type": "error"
    },
    {
      "inputs": [],
      "name": "ScalingFactorOutOfBounds",
      "type": "error"
    },
    {
      "anonymous": false,
      "inputs": [
        {
          "indexed": true,
          "internalType": "address",
          "name": "staker",
          "type": "address"
        },
        {
          "indexed": false,
          "internalType": "bytes",
          "name": "claimData",
          "type": "bytes"
        },
        {
          "indexed": false,
          "internalType": "uint256",
          "name": "claimed",
          "type": "uint256"
        },
        {
          "indexed": false,
          "internalType": "uint256",
          "name": "unclaimed",
          "type": "uint256"
        }
      ],
      "name": "Claimed",
      "type": "event"
    },
    {
      "anonymous": false,
      "inputs": [
        {
          "indexed": true,
          "internalType": "bytes32",
          "name": "newRoot",
          "type": "bytes32"
        }
      ],
      "name": "MerkleRootSet",
      "type": "event"
    },
    {
      "anonymous": false,
      "inputs": [
        {
          "indexed": true,
          "internalType": "address",
          "name": "previousOwner",
          "type": "address"
        },
        {
          "indexed": true,
          "internalType": "address",
          "name": "newOwner",
          "type": "address"
        }
      ],
      "name": "OwnershipTransferred",
      "type": "event"
    },
    {
      "anonymous": false,
      "inputs": [
        {
          "indexed": true,
          "internalType": "address",
          "name": "rewarder",
          "type": "address"
        },
        {
          "indexed": false,
          "internalType": "uint256",
          "name": "reward",
          "type": "uint256"
        },
        {
          "indexed": false,
          "internalType": "uint256",
          "name": "duration",
          "type": "uint256"
        }
      ],
      "name": "RewardAdded",
      "type": "event"
    },
    {
      "anonymous": false,
      "inputs": [
        {
          "indexed": false,
          "internalType": "bytes32",
          "name": "role",
          "type": "bytes32"
        },
        {
          "indexed": false,
          "internalType": "address",
          "name": "account",
          "type": "address"
        },
        {
          "indexed": false,
          "internalType": "address",
          "name": "operator",
          "type": "address"
        }
      ],
      "name": "RoleGranted",
      "type": "event"
    },
    {
      "anonymous": false,
      "inputs": [
        {
          "indexed": false,
          "internalType": "bytes32",
          "name": "role",
          "type": "bytes32"
        },
        {
          "indexed": false,
          "internalType": "address",
          "name": "account",
          "type": "address"
        },
        {
          "indexed": false,
          "internalType": "address",
          "name": "operator",
          "type": "address"
        }
      ],
      "name": "RoleRevoked",
      "type": "event"
    },
    {
      "anonymous": false,
      "inputs": [
        {
          "indexed": true,
          "internalType": "address",
          "name": "staker",
          "type": "address"
        },
        {
          "indexed": false,
          "internalType": "bytes",
          "name": "stakeData",
          "type": "bytes"
        },
        {
          "indexed": false,
          "internalType": "uint256",
          "name": "stakePoints",
          "type": "uint256"
        }
      ],
      "name": "Staked",
      "type": "event"
    },
    {
      "anonymous": false,
      "inputs": [
        {
          "indexed": true,
          "internalType": "address",
          "name": "staker",
          "type": "address"
        },
        {
          "indexed": false,
          "internalType": "bytes",
          "name": "withdrawData",
          "type": "bytes"
        },
        {
          "indexed": false,
          "internalType": "uint256",
          "name": "stakePoints",
          "type": "uint256"
        }
      ],
      "name": "Withdrawn",
      "type": "event"
    },
    {
      "inputs": [],
      "name": "CLAIM_CONTRACT",
      "outputs": [
        {
          "internalType": "address",
          "name": "",
          "type": "address"
        }
      ],
      "stateMutability": "view",
      "type": "function"
    },
    {
      "inputs": [],
      "name": "DEPOSIT_REASON_CODE",
      "outputs": [
        {
          "internalType": "bytes32",
          "name": "",
          "type": "bytes32"
        }
      ],
      "stateMutability": "view",
      "type": "function"
    },
    {
      "inputs": [],
      "name": "POINTS_CONTRACT",
      "outputs": [
        {
          "internalType": "contract IPointsV2",
          "name": "",
          "type": "address"
        }
      ],
      "stateMutability": "view",
      "type": "function"
    },
    {
      "inputs": [],
      "name": "REWARDER_ROLE",
      "outputs": [
        {
          "internalType": "bytes32",
          "name": "",
          "type": "bytes32"
        }
      ],
      "stateMutability": "view",
      "type": "function"
    },
    {
      "inputs": [],
      "name": "SCALING_FACTOR",
      "outputs": [
        {
          "internalType": "uint256",
          "name": "",
          "type": "uint256"
        }
      ],
      "stateMutability": "view",
      "type": "function"
    },
    {
      "inputs": [],
      "name": "STAKING_TOKEN",
      "outputs": [
        {
          "internalType": "contract IERC20",
          "name": "",
          "type": "address"
        }
      ],
      "stateMutability": "view",
      "type": "function"
    },
    {
      "inputs": [
        {
          "internalType": "uint256",
          "name": "reward",
          "type": "uint256"
        },
        {
          "internalType": "uint256",
          "name": "duration",
          "type": "uint256"
        }
      ],
      "name": "addReward",
      "outputs": [],
      "stateMutability": "payable",
      "type": "function"
    },
    {
      "inputs": [],
      "name": "claim",
      "outputs": [],
      "stateMutability": "nonpayable",
      "type": "function"
    },
    {
      "inputs": [
        {
          "internalType": "bytes",
          "name": "claimData",
          "type": "bytes"
        }
      ],
      "name": "claim",
      "outputs": [],
      "stateMutability": "nonpayable",
      "type": "function"
    },
    {
      "inputs": [
        {
          "internalType": "address",
          "name": "staker",
          "type": "address"
        }
      ],
      "name": "claimed",
      "outputs": [
        {
          "internalType": "bool",
          "name": "claimed",
          "type": "bool"
        }
      ],
      "stateMutability": "view",
      "type": "function"
    },
    {
      "inputs": [],
      "name": "distributionEnd",
      "outputs": [
        {
          "internalType": "uint256",
          "name": "",
          "type": "uint256"
        }
      ],
      "stateMutability": "view",
      "type": "function"
    },
    {
      "inputs": [
        {
          "internalType": "address",
          "name": "account",
          "type": "address"
        }
      ],
      "name": "earned",
      "outputs": [
        {
          "internalType": "uint256",
          "name": "",
          "type": "uint256"
        }
      ],
      "stateMutability": "view",
      "type": "function"
    },
    {
      "inputs": [],
      "name": "forwarderRegistry",
      "outputs": [
        {
          "internalType": "contract IForwarderRegistry",
          "name": "",
          "type": "address"
        }
      ],
      "stateMutability": "view",
      "type": "function"
    },
    {
      "inputs": [
        {
          "internalType": "bytes32",
          "name": "role",
          "type": "bytes32"
        },
        {
          "internalType": "address",
          "name": "account",
          "type": "address"
        }
      ],
      "name": "grantRole",
      "outputs": [],
      "stateMutability": "nonpayable",
      "type": "function"
    },
    {
      "inputs": [
        {
          "internalType": "bytes32",
          "name": "role",
          "type": "bytes32"
        },
        {
          "internalType": "address",
          "name": "account",
          "type": "address"
        }
      ],
      "name": "hasRole",
      "outputs": [
        {
          "internalType": "bool",
          "name": "hasRole_",
          "type": "bool"
        }
      ],
      "stateMutability": "view",
      "type": "function"
    },
    {
      "inputs": [
        {
          "internalType": "address",
          "name": "forwarder",
          "type": "address"
        }
      ],
      "name": "isTrustedForwarder",
      "outputs": [
        {
          "internalType": "bool",
          "name": "",
          "type": "bool"
        }
      ],
      "stateMutability": "view",
      "type": "function"
    },
    {
      "inputs": [],
      "name": "lastTimeRewardApplicable",
      "outputs": [
        {
          "internalType": "uint256",
          "name": "",
          "type": "uint256"
        }
      ],
      "stateMutability": "view",
      "type": "function"
    },
    {
      "inputs": [],
      "name": "lastUpdated",
      "outputs": [
        {
          "internalType": "uint256",
          "name": "",
          "type": "uint256"
        }
      ],
      "stateMutability": "view",
      "type": "function"
    },
    {
      "inputs": [
        {
          "internalType": "address",
          "name": "operator",
          "type": "address"
        },
        {
          "internalType": "address",
          "name": "from",
          "type": "address"
        },
        {
          "internalType": "uint256",
          "name": "value",
          "type": "uint256"
        },
        {
          "internalType": "bytes",
          "name": "data",
          "type": "bytes"
        }
      ],
      "name": "onERC20Received",
      "outputs": [
        {
          "internalType": "bytes4",
          "name": "",
          "type": "bytes4"
        }
      ],
      "stateMutability": "nonpayable",
      "type": "function"
    },
    {
      "inputs": [],
      "name": "owner",
      "outputs": [
        {
          "internalType": "address",
          "name": "",
          "type": "address"
        }
      ],
      "stateMutability": "view",
      "type": "function"
    },
    {
      "inputs": [
        {
          "internalType": "address[]",
          "name": "accounts",
          "type": "address[]"
        },
        {
          "internalType": "contract IERC20[]",
          "name": "tokens",
          "type": "address[]"
        },
        {
          "internalType": "uint256[]",
          "name": "amounts",
          "type": "uint256[]"
        }
      ],
      "name": "recoverERC20s",
      "outputs": [],
      "stateMutability": "nonpayable",
      "type": "function"
    },
    {
      "inputs": [
        {
          "internalType": "address[]",
          "name": "accounts",
          "type": "address[]"
        },
        {
          "internalType": "contract IERC721[]",
          "name": "contracts",
          "type": "address[]"
        },
        {
          "internalType": "uint256[]",
          "name": "tokenIds",
          "type": "uint256[]"
        }
      ],
      "name": "recoverERC721s",
      "outputs": [],
      "stateMutability": "nonpayable",
      "type": "function"
    },
    {
      "inputs": [
        {
          "internalType": "address payable[]",
          "name": "accounts",
          "type": "address[]"
        },
        {
          "internalType": "uint256[]",
          "name": "amounts",
          "type": "uint256[]"
        }
      ],
      "name": "recoverETH",
      "outputs": [],
      "stateMutability": "nonpayable",
      "type": "function"
    },
    {
      "inputs": [
        {
          "internalType": "bytes32",
          "name": "role",
          "type": "bytes32"
        }
      ],
      "name": "renounceRole",
      "outputs": [],
      "stateMutability": "nonpayable",
      "type": "function"
    },
    {
      "inputs": [
        {
          "internalType": "bytes32",
          "name": "role",
          "type": "bytes32"
        },
        {
          "internalType": "address",
          "name": "account",
          "type": "address"
        }
      ],
      "name": "revokeRole",
      "outputs": [],
      "stateMutability": "nonpayable",
      "type": "function"
    },
    {
      "inputs": [],
      "name": "rewardPerStakePoint",
      "outputs": [
        {
          "internalType": "uint256",
          "name": "",
          "type": "uint256"
        }
      ],
      "stateMutability": "view",
      "type": "function"
    },
    {
      "inputs": [
        {
          "internalType": "address",
          "name": "staker",
          "type": "address"
        }
      ],
      "name": "rewardPerStakePointPaid",
      "outputs": [
        {
          "internalType": "uint256",
          "name": "paid",
          "type": "uint256"
        }
      ],
      "stateMutability": "view",
      "type": "function"
    },
    {
      "inputs": [],
      "name": "rewardPerStakePointStored",
      "outputs": [
        {
          "internalType": "uint256",
          "name": "",
          "type": "uint256"
        }
      ],
      "stateMutability": "view",
      "type": "function"
    },
    {
      "inputs": [],
      "name": "rewardRate",
      "outputs": [
        {
          "internalType": "uint256",
          "name": "",
          "type": "uint256"
        }
      ],
      "stateMutability": "view",
      "type": "function"
    },
    {
      "inputs": [
        {
          "internalType": "address",
          "name": "staker",
          "type": "address"
        }
      ],
      "name": "rewards",
      "outputs": [
        {
          "internalType": "uint256",
          "name": "reward",
          "type": "uint256"
        }
      ],
      "stateMutability": "view",
      "type": "function"
    },
    {
      "inputs": [],
      "name": "root",
      "outputs": [
        {
          "internalType": "bytes32",
          "name": "",
          "type": "bytes32"
        }
      ],
      "stateMutability": "view",
      "type": "function"
    },
    {
      "inputs": [
        {
          "internalType": "bytes32",
          "name": "newRoot",
          "type": "bytes32"
        }
      ],
      "name": "setMerkleRoot",
      "outputs": [],
      "stateMutability": "nonpayable",
      "type": "function"
    },
    {
      "inputs": [
        {
          "internalType": "bytes",
          "name": "stakeData",
          "type": "bytes"
        }
      ],
      "name": "stake",
      "outputs": [],
      "stateMutability": "payable",
      "type": "function"
    },
    {
      "inputs": [
        {
          "internalType": "address",
          "name": "staker",
          "type": "address"
        }
      ],
      "name": "staked",
      "outputs": [
        {
          "internalType": "uint256",
          "name": "stakePoints",
          "type": "uint256"
        }
      ],
      "stateMutability": "view",
      "type": "function"
    },
    {
      "inputs": [
        {
          "internalType": "bytes4",
          "name": "interfaceId",
          "type": "bytes4"
        }
      ],
      "name": "supportsInterface",
      "outputs": [
        {
          "internalType": "bool",
          "name": "",
          "type": "bool"
        }
      ],
      "stateMutability": "view",
      "type": "function"
    },
    {
      "inputs": [],
      "name": "totalStaked",
      "outputs": [
        {
          "internalType": "uint256",
          "name": "",
          "type": "uint256"
        }
      ],
      "stateMutability": "view",
      "type": "function"
    },
    {
      "inputs": [
        {
          "internalType": "address",
          "name": "newOwner",
          "type": "address"
        }
      ],
      "name": "transferOwnership",
      "outputs": [],
      "stateMutability": "nonpayable",
      "type": "function"
    },
    {
      "inputs": [
        {
          "internalType": "bytes",
          "name": "withdrawData",
          "type": "bytes"
        }
      ],
      "name": "withdraw",
      "outputs": [],
      "stateMutability": "nonpayable",
      "type": "function"
    }
  ],
  "bytecode": "0x6101403461027e57601f61378d38819003918201601f19168301916001600160401b038311848410176102835780849260a09460405283398101031261027e578051906001600160a01b038216820361027e5760208101516001600160a01b038116810361027e576040820151906001600160a01b0382169081830361027e5760608401516080909401516001600160a01b038116810361027e573361021f575b7fca9d3e17f264b0f3984e2634e94adb37fa3e6a8103f06aeae6fa59e21c769f5d6020527fa53d5a615b1d5279f1a6647c5c0f31bf064b1e70af135676a4a96aeaeb691a2f8054600160ff19918216811790925560008281556080939093527a184f03e93ff9f4daa797ed6e38ed64bf6a1f01000000000000000060a052634fc3585960e01b9092527fe65694af8bc898f30b0dd47956ad372c47424e060a94ef47c1bbc9231c44a84b805490921617905560c0521561020e5760e05261010052610120526040516134f3908161029a823960805181818161269a01528181612e7201526132b2015260a051818181610578015281816108b1015281816113820152611f2e015260c051818181611692015281816119cf015281816125e9015281816127a90152612952015260e0518181816108f901528181611f7701526122f001526101005181818161097601528181611ff301526126f40152610120518181816118f60152611a8c0152f35b631051ee9560e31b60005260046000fd5b7fc9ed16f33ab3a66c84bfd83099ccb2a8845871e2e1c1928f63797152f0fd54cc80546001600160a01b0319163390811790915560007f8be0079c531659141344cd1fd0a4f28419497f9722a3daafe3b4186f6b6457e08180a36100a0565b600080fd5b634e487b7160e01b600052604160045260246000fdfe6080604052600436101561001257600080fd5b6000803560e01c80628cc262146129de57806301ffc9a7146129765780630479d644146129075780630700037d146128a45780630968f264146127175780632196e445146126be5780632b4c9f161461264f5780632c9d0b80146126165780632d1e0c02146123145780632d4c2f93146122a55780632f2ff15d146120d65780634e71d92d14611ecd5780634fc3585914611966578063572b6c051461191a57806362ba9096146118ab57806373c8a9581461167a57806375c93bb9146112c15780637b0a47ee146112855780637cb647591461117e57806380faa57d1461113d578063817b1cd2146111015780638580cf76146110a85780638bb9c5bf14610f3e5780638da5cb5b14610ecc57806391d1485414610e3557806398807d8414610dd25780639d696e3614610d96578063c3666c3614610b04578063c5c8f77014610aa1578063c63ff8dd1461082a578063c884ef83146107c2578063d0b06f5d14610786578063d547741f146105d7578063ebf0c7171461059b578063ef4cadc514610542578063efa90b5414610506578063f2fde38b146103e05763f7ba94bd146101be57600080fd5b346103dd5760407ffffffffffffffffffffffffffffffffffffffffffffffffffffffffffffffffc3601126103dd5760043567ffffffffffffffff81116103db5761020d903690600401612a94565b60243567ffffffffffffffff81116103d75761022d903690600401612a94565b90917fc9ed16f33ab3a66c84bfd83099ccb2a8845871e2e1c1928f63797152f0fd54cc73ffffffffffffffffffffffffffffffffffffffff8061026e61329b565b92541691169081036103aa575081810361038257845b81811061028f578580f35b61029a818387612eba565b3573ffffffffffffffffffffffffffffffffffffffff811680910361037e576102c4828587612eba565b359081471061034e578780809381935af13d15610346573d906102e682612c9d565b916102f46040519384612c2d565b82523d88602084013e5b1561030c5750600101610284565b805187901561031e5750805190602001fd5b807fd6bda2750000000000000000000000000000000000000000000000000000000060049252fd5b6060906102fe565b60448883477fcf479181000000000000000000000000000000000000000000000000000000008352600452602452fd5b8680fd5b6004857f65825336000000000000000000000000000000000000000000000000000000008152fd5b7f2ef4875e0000000000000000000000000000000000000000000000000000000060005260045260246000fd5b8380fd5b505b80fd5b50346103dd5760207ffffffffffffffffffffffffffffffffffffffffffffffffffffffffffffffffc3601126103dd57610418612a20565b7fc9ed16f33ab3a66c84bfd83099ccb2a8845871e2e1c1928f63797152f0fd54cc61044161329b565b9080549273ffffffffffffffffffffffffffffffffffffffff80851693168381036104db575073ffffffffffffffffffffffffffffffffffffffff1692838303610489578480f35b7fffffffffffffffffffffffff000000000000000000000000000000000000000016831790557f8be0079c531659141344cd1fd0a4f28419497f9722a3daafe3b4186f6b6457e08380a3388080808480f35b7f2ef4875e000000000000000000000000000000000000000000000000000000008652600452602485fd5b50346103dd57807ffffffffffffffffffffffffffffffffffffffffffffffffffffffffffffffffc3601126103dd576020600554604051908152f35b50346103dd57807ffffffffffffffffffffffffffffffffffffffffffffffffffffffffffffffffc3601126103dd5760206040517f00000000000000000000000000000000000000000000000000000000000000008152f35b50346103dd57807ffffffffffffffffffffffffffffffffffffffffffffffffffffffffffffffffc3601126103dd576020600954604051908152f35b50346103dd5760407ffffffffffffffffffffffffffffffffffffffffffffffffffffffffffffffffc3601126103dd57600435610612612a43565b61061a61329b565b9173ffffffffffffffffffffffffffffffffffffffff7fc9ed16f33ab3a66c84bfd83099ccb2a8845871e2e1c1928f63797152f0fd54cc541673ffffffffffffffffffffffffffffffffffffffff84169081036103aa57507fc8827d3282af6f37b64c3e9e6f3ac9df286ab0bb0fccd6f8661bf19adb368b22818552806020526040852073ffffffffffffffffffffffffffffffffffffffff841660005260205260ff604060002054166106cc578480f35b7ff6391f5c32d9c69d2a47ea670b442974b53935d1edc7fd64eb21e047a839171b9361077b918387526020526040862073ffffffffffffffffffffffffffffffffffffffff851660005260205260406000207fffffffffffffffffffffffffffffffffffffffffffffffffffffffffffffff0081541690556040519384938491604091949373ffffffffffffffffffffffffffffffffffffffff80926060860197865216602085015216910152565b0390a1388080808480f35b50346103dd57807ffffffffffffffffffffffffffffffffffffffffffffffffffffffffffffffffc3601126103dd576020600254604051908152f35b50346103dd5760207ffffffffffffffffffffffffffffffffffffffffffffffffffffffffffffffffc3601126103dd5760ff604060209273ffffffffffffffffffffffffffffffffffffffff610816612a20565b168152600a84522054166040519015158152f35b50346103dd5760207ffffffffffffffffffffffffffffffffffffffffffffffffffffffffffffffffc3601126103dd5760043567ffffffffffffffff81116103db5761087a903690600401612a66565b610885929192613260565b61088d61329b565b90610897826131bd565b6108a082612bc3565b93846108af575b836001815580f35b7f0000000000000000000000000000000000000000000000000000000000000000946108db8682612d0e565b958015610a745773ffffffffffffffffffffffffffffffffffffffff7f00000000000000000000000000000000000000000000000000000000000000001694853b1561037e578673ffffffffffffffffffffffffffffffffffffffff6064829360405194859384927f26b3293f000000000000000000000000000000000000000000000000000000008452169a8b60048401528d60248401527f000000000000000000000000000000000000000000000000000000000000000060448401525af18015610a6957908791610a50575b5050601f847f019eda09011e476781de26947e4b78ee0a834e7182f5ff2eb62bcf8c523f42ca969798610a0c6080969585610a057fffffffffffffffffffffffffffffffffffffffffffffffffffffffffffffffe097612b94565b9106612bb6565b898b52600760205260408b2055604051968795606087528160608801528787013789868387010152602085015288604085015201168101030190a2803880806108a7565b81610a5a91612c2d565b610a655785386109aa565b8580fd5b6040513d89823e3d90fd5b6024867f4e487b710000000000000000000000000000000000000000000000000000000081526012600452fd5b50346103dd5760207ffffffffffffffffffffffffffffffffffffffffffffffffffffffffffffffffc3601126103dd57604060209173ffffffffffffffffffffffffffffffffffffffff610af3612a20565b168152600883522054604051908152f35b50346103dd57610b1336612ac5565b929490939092917fc9ed16f33ab3a66c84bfd83099ccb2a8845871e2e1c1928f63797152f0fd54cc73ffffffffffffffffffffffffffffffffffffffff80610b5961329b565b92541691169081036103aa5750808214801590610d8c575b610d6457865b828110610b82578780f35b73ffffffffffffffffffffffffffffffffffffffff610baa610ba583858b612eba565b612ef9565b166040517f01ffc9a70000000000000000000000000000000000000000000000000000000081527f80ac58cd000000000000000000000000000000000000000000000000000000006004820152602081602481855afa908115610d59578a91610d1c575b5015610cf157508773ffffffffffffffffffffffffffffffffffffffff610c39610ba584868c612eba565b16610c48610ba584878a612eba565b610c5384888b612eba565b35823b156103d7576040517f42842e0e00000000000000000000000000000000000000000000000000000000815230600482015273ffffffffffffffffffffffffffffffffffffffff92909216602483015260448201529082908290606490829084905af18015610ce657610ccd575b5050600101610b77565b81610cd791612c2d565b610ce2578738610cc3565b8780fd5b6040513d84823e3d90fd5b7f986b9f1f000000000000000000000000000000000000000000000000000000008952600452602488fd5b90506020813d8211610d51575b81610d3660209383612c2d565b81010312610d4d57610d4790613253565b38610c0e565b8980fd5b3d9150610d29565b6040513d8c823e3d90fd5b6004877f65825336000000000000000000000000000000000000000000000000000000008152fd5b5082821415610b71565b50346103dd57807ffffffffffffffffffffffffffffffffffffffffffffffffffffffffffffffffc3601126103dd576020600454604051908152f35b50346103dd5760207ffffffffffffffffffffffffffffffffffffffffffffffffffffffffffffffffc3601126103dd57604060209173ffffffffffffffffffffffffffffffffffffffff610e24612a20565b168152600683522054604051908152f35b50346103dd5760407ffffffffffffffffffffffffffffffffffffffffffffffffffffffffffffffffc3601126103dd5773ffffffffffffffffffffffffffffffffffffffff6040610e84612a43565b927fc8827d3282af6f37b64c3e9e6f3ac9df286ab0bb0fccd6f8661bf19adb368b226004358252602052209116600052602052602060ff604060002054166040519015158152f35b50346103dd57807ffffffffffffffffffffffffffffffffffffffffffffffffffffffffffffffffc3601126103dd5750602073ffffffffffffffffffffffffffffffffffffffff7fc9ed16f33ab3a66c84bfd83099ccb2a8845871e2e1c1928f63797152f0fd54cc5416604051908152f35b50346103dd5760207ffffffffffffffffffffffffffffffffffffffffffffffffffffffffffffffffc3601126103dd57600435907fc8827d3282af6f37b64c3e9e6f3ac9df286ab0bb0fccd6f8661bf19adb368b22610f9b61329b565b90838352806020526040832073ffffffffffffffffffffffffffffffffffffffff831660005260205260ff6040600020541615611062578383526020908152604080842073ffffffffffffffffffffffffffffffffffffffff9390931660008181529383529281902080547fffffffffffffffffffffffffffffffffffffffffffffffffffffffffffffff001690558051948552908401829052830152907ff6391f5c32d9c69d2a47ea670b442974b53935d1edc7fd64eb21e047a839171b90606090a180f35b5073ffffffffffffffffffffffffffffffffffffffff906044937f7aa7288200000000000000000000000000000000000000000000000000000000845260045216602452fd5b50346103dd57807ffffffffffffffffffffffffffffffffffffffffffffffffffffffffffffffffc3601126103dd5760206040517f72657761726465720000000000000000000000000000000000000000000000008152f35b50346103dd57807ffffffffffffffffffffffffffffffffffffffffffffffffffffffffffffffffc3601126103dd576020600154604051908152f35b50346103dd57807ffffffffffffffffffffffffffffffffffffffffffffffffffffffffffffffffc3601126103dd576020611176612f1a565b604051908152f35b50346103dd5760207ffffffffffffffffffffffffffffffffffffffffffffffffffffffffffffffffc3601126103dd576004357fc9ed16f33ab3a66c84bfd83099ccb2a8845871e2e1c1928f63797152f0fd54cc73ffffffffffffffffffffffffffffffffffffffff806111f061329b565b92541691169081036103aa575060095461125d57801561123557806009557f42cbc405e4dbf1b691e85b9a34b08ecfcf7a9ad9078bf4d645ccfa1fac11c10b8280a280f35b6004827f9dd854d3000000000000000000000000000000000000000000000000000000008152fd5b6004827f6006d964000000000000000000000000000000000000000000000000000000008152fd5b50346103dd57807ffffffffffffffffffffffffffffffffffffffffffffffffffffffffffffffffc3601126103dd576020600354604051908152f35b5060407ffffffffffffffffffffffffffffffffffffffffffffffffffffffffffffffffc3601126103dd576004356024356112fa61329b565b907fc8827d3282af6f37b64c3e9e6f3ac9df286ab0bb0fccd6f8661bf19adb368b227f726577617264657200000000000000000000000000000000000000000000000085526020526040842073ffffffffffffffffffffffffffffffffffffffff831660005260205260ff60406000205416156116145782156115ec5780156115c4576113a77f00000000000000000000000000000000000000000000000000000000000000008461318b565b901561159c576113b5612d47565b6004556005544210801590611591575b611581575b600554906113d88342612bb6565b914281116114415750928273ffffffffffffffffffffffffffffffffffffffff926114266040957f6a6f77044107a33658235d41bedbbaf2fe9ccdceb313143c947a5e76e1ec847497612d0e565b6003556005555b42600255835195865260208601521692a280f35b916114656003949294549461145f6114594287612b58565b87612ba3565b90613242565b949015611559578382116114cd575050507f6a6f77044107a33658235d41bedbbaf2fe9ccdceb313143c947a5e76e1ec8474926040926114c56114be73ffffffffffffffffffffffffffffffffffffffff944290612b58565b8092612d0e565b60035561142d565b916114db9193508094612d0e565b9080821061152b57509260409273ffffffffffffffffffffffffffffffffffffffff927f6a6f77044107a33658235d41bedbbaf2fe9ccdceb313143c947a5e76e1ec84749560035560055561142d565b7f19e2447d000000000000000000000000000000000000000000000000000000008752600452602452604485fd5b6004887f50082065000000000000000000000000000000000000000000000000000000008152fd5b611589612f1a565b6002556113ca565b5060015415156113c5565b6004857f50082065000000000000000000000000000000000000000000000000000000008152fd5b6004847f76166401000000000000000000000000000000000000000000000000000000008152fd5b6004847f38539865000000000000000000000000000000000000000000000000000000008152fd5b60448473ffffffffffffffffffffffffffffffffffffffff847f7aa728820000000000000000000000000000000000000000000000000000000083527f726577617264657200000000000000000000000000000000000000000000000060045216602452fd5b50346103dd5761168936612ac5565b929493909291867f000000000000000000000000000000000000000000000000000000000000000073ffffffffffffffffffffffffffffffffffffffff16815b81848a81841061185857505050508161178b575b50507fc9ed16f33ab3a66c84bfd83099ccb2a8845871e2e1c1928f63797152f0fd54cc73ffffffffffffffffffffffffffffffffffffffff8061171e61329b565b92541691169081036103aa5750808214801590611781575b610d6457865b828110611747578780f35b8061177b61175b610ba5600194868c612eba565b611769610ba584888c612eba565b61177484898b612eba565b35916133d3565b0161173c565b5082821415611736565b6020602491604051928380927f70a082310000000000000000000000000000000000000000000000000000000082523060048301525afa801561184d578990611814575b6117dd915060015490612b58565b90818111156116dd577f15c38d3e000000000000000000000000000000000000000000000000000000008952600452602452604487fd5b506020813d602011611845575b8161182e60209383612c2d565b81010312611840576117dd90516117cf565b600080fd5b3d9150611821565b6040513d8b823e3d90fd5b610ba58473ffffffffffffffffffffffffffffffffffffffff9361187b93612eba565b161461188a575b6001016116c9565b916118a360019161189c85898b612eba565b3590612bb6565b929050611882565b50346103dd57807ffffffffffffffffffffffffffffffffffffffffffffffffffffffffffffffffc3601126103dd57602060405173ffffffffffffffffffffffffffffffffffffffff7f0000000000000000000000000000000000000000000000000000000000000000168152f35b50346103dd5760207ffffffffffffffffffffffffffffffffffffffffffffffffffffffffffffffffc3601126103dd57602061195c611957612a20565b612e5b565b6040519015158152f35b50346103dd5760807ffffffffffffffffffffffffffffffffffffffffffffffffffffffffffffffffc3601126103dd5761199e612a20565b906119a7612a43565b916044359060643567ffffffffffffffff81116103d7576119cc903690600401612a66565b907f00000000000000000000000000000000000000000000000000000000000000009173ffffffffffffffffffffffffffffffffffffffff83163303611ea55760409687519580602088015260208752611a268988612c2d565b885195611a7487611a48602082019a8c8c528d83019d8e526060830190612e18565b037fffffffffffffffffffffffffffffffffffffffffffffffffffffffffffffffe08101895288612c2d565b73ffffffffffffffffffffffffffffffffffffffff807f000000000000000000000000000000000000000000000000000000000000000016911614600014611cd95750508160209181010312611cd557359273ffffffffffffffffffffffffffffffffffffffff8416809403611cd557611aec613260565b611af5846131bd565b825183019060408460208401930312610a6557611b1190613253565b955167ffffffffffffffff8111610a6557830181603f82011215610a65576020810151611b3d81612c9d565b91611b4b6040519384612c2d565b818352602083019360408284010111610ce25760209291846040611b6f9301612df5565b8051010160208260009203126103dd57505194611c3f575b508315611c1757837ff4679d394f1f97f1a3df1d73e193866ec5a813168ad5fa6958f9be21b10a594e91611bbe6001968754612bb6565b8655838552600660205260408520611bd7838254612bb6565b9055611be860405192839283612fdb565b0390a2555b60206040517f4fc35859000000000000000000000000000000000000000000000000000000008152f35b6004837f040ef8ec000000000000000000000000000000000000000000000000000000008152fd5b6040517f23b872dd00000000000000000000000000000000000000000000000000000000602082015273ffffffffffffffffffffffffffffffffffffffff8416602482015230604482015260648101869052611ccf91611cca82608481015b037fffffffffffffffffffffffffffffffffffffffffffffffffffffffffffffffe08101845283612c2d565b613432565b38611b87565b8480fd5b9183919596930190602081830312610ce25780359067ffffffffffffffff8211611ea15791611d0d91611d14949301612d8d565b9085612ff7565b611d1c613260565b611d25836131bd565b835184019060408560208401930312610a6557611d4190613253565b955167ffffffffffffffff8111610a6557840181603f82011215610a65576020810151611d6d81612c9d565b91611d7b6040519384612c2d565b818352602083019360408284010111610ce25760209291846040611d9f9301612df5565b8051010160208260009203126103dd57505194611e38575b508315611c17578373ffffffffffffffffffffffffffffffffffffffff7ff4679d394f1f97f1a3df1d73e193866ec5a813168ad5fa6958f9be21b10a594e92611e036001978854612bb6565b87551692838552600660205260408520611e1e838254612bb6565b9055611e2f60405192839283612fdb565b0390a255611bed565b6040517f23b872dd00000000000000000000000000000000000000000000000000000000602082015273ffffffffffffffffffffffffffffffffffffffff8316602482015230604482015260648101869052611e9b91611cca8260848101611c9e565b38611db7565b8880fd5b6004867fc1ab6dc1000000000000000000000000000000000000000000000000000000008152fd5b50346103dd57807ffffffffffffffffffffffffffffffffffffffffffffffffffffffffffffffffc3601126103dd57611f04613260565b611f0c61329b565b611f15816131bd565b611f1e81612bc3565b80611f2c575b826001815580f35b7f000000000000000000000000000000000000000000000000000000000000000090611f588282612d0e565b9180156120a9578473ffffffffffffffffffffffffffffffffffffffff7f00000000000000000000000000000000000000000000000000000000000000001694853b156103db5773ffffffffffffffffffffffffffffffffffffffff6064839260405194859384927f26b3293f00000000000000000000000000000000000000000000000000000000845216998a60048401528960248401527f000000000000000000000000000000000000000000000000000000000000000060448401525af1801561209e5761208a575b509161205760809284610a057f019eda09011e476781de26947e4b78ee0a834e7182f5ff2eb62bcf8c523f42ca96612b94565b84865260076020526040862055604051906060825285606083015285838301526020820152846040820152a23880611f24565b8561209791969296612c2d565b9338612024565b6040513d88823e3d90fd5b6024857f4e487b710000000000000000000000000000000000000000000000000000000081526012600452fd5b50346103dd5760407ffffffffffffffffffffffffffffffffffffffffffffffffffffffffffffffffc3601126103dd57600435612111612a43565b61211961329b565b9173ffffffffffffffffffffffffffffffffffffffff7fc9ed16f33ab3a66c84bfd83099ccb2a8845871e2e1c1928f63797152f0fd54cc541673ffffffffffffffffffffffffffffffffffffffff841690810361227a57507fc8827d3282af6f37b64c3e9e6f3ac9df286ab0bb0fccd6f8661bf19adb368b22818552806020526040852073ffffffffffffffffffffffffffffffffffffffff8416865260205260ff604086205416156121ca578480f35b7f2f8788117e7eff1d82e926ec794901d17c78024a50270940304540a733656f0d9361077b918387526020526040862073ffffffffffffffffffffffffffffffffffffffff851687526020526040862060017fffffffffffffffffffffffffffffffffffffffffffffffffffffffffffffff008254161790556040519384938491604091949373ffffffffffffffffffffffffffffffffffffffff80926060860197865216602085015216910152565b7f2ef4875e000000000000000000000000000000000000000000000000000000008552600452602484fd5b50346103dd57807ffffffffffffffffffffffffffffffffffffffffffffffffffffffffffffffffc3601126103dd57602060405173ffffffffffffffffffffffffffffffffffffffff7f0000000000000000000000000000000000000000000000000000000000000000168152f35b5060207ffffffffffffffffffffffffffffffffffffffffffffffffffffffffffffffffc3601126103dd5760043567ffffffffffffffff81116103db5761235f903690600401612a66565b810160408282031261261257813567ffffffffffffffff81116103d75781612388918401612d8d565b9160208101359067ffffffffffffffff8211611cd5570181601f820112156103d75760209181836123bb93359101612cd7565b9181835181850193849186010103126103d7576123e091516123db61329b565b612ff7565b6123e861329b565b9060405191602083016001815261243b8461240f6040820195604087526060830190612e18565b037fffffffffffffffffffffffffffffffffffffffffffffffffffffffffffffffe08101865285612c2d565b612443613260565b61244c826131bd565b835184019060408560208401930312610a655761246890613253565b925167ffffffffffffffff8111610a6557840181603f82011215610a655760208101519061249582612c9d565b916124a36040519384612c2d565b808352602083019360408383010111610ce2576020926124c98492866040819601612df5565b805101010312611cd5575191612583575b811561255b579073ffffffffffffffffffffffffffffffffffffffff7ff4679d394f1f97f1a3df1d73e193866ec5a813168ad5fa6958f9be21b10a594e9261252483600154612bb6565b6001551692838552600660205260408520612540838254612bb6565b905561255160405192839283612fdb565b0390a26001815580f35b6004847f040ef8ec000000000000000000000000000000000000000000000000000000008152fd5b6040517f23b872dd00000000000000000000000000000000000000000000000000000000602082015273ffffffffffffffffffffffffffffffffffffffff821660248201523060448201526064808201849052815261260d906125e7608482612c2d565b7f0000000000000000000000000000000000000000000000000000000000000000613432565b6124da565b8280fd5b50346103dd57807ffffffffffffffffffffffffffffffffffffffffffffffffffffffffffffffffc3601126103dd576020611176612d47565b50346103dd57807ffffffffffffffffffffffffffffffffffffffffffffffffffffffffffffffffc3601126103dd57602060405173ffffffffffffffffffffffffffffffffffffffff7f0000000000000000000000000000000000000000000000000000000000000000168152f35b50346103dd57807ffffffffffffffffffffffffffffffffffffffffffffffffffffffffffffffffc3601126103dd5760206040517f00000000000000000000000000000000000000000000000000000000000000008152f35b50346103dd5760207ffffffffffffffffffffffffffffffffffffffffffffffffffffffffffffffffc3601126103dd5760043567ffffffffffffffff81116103db5761276a61277c913690600401612a66565b919061277461329b565b923691612cd7565b90612785613260565b61278e816131bd565b81516020838101918401849003126103d75751906127cd82827f00000000000000000000000000000000000000000000000000000000000000006133d3565b811561287c5773ffffffffffffffffffffffffffffffffffffffff1691828452600660205260408420548281106128485790827faae638dec0d864ccb08558c28981bcfaee41330f57c4911cbe2d8432d0fb729e93928587526006602052036040862055816001540360015561255160405192839283612fdb565b905083927f2b6a77580000000000000000000000000000000000000000000000000000000060649552600452602452604452fd5b6004847fdb73cdf0000000000000000000000000000000000000000000000000000000008152fd5b50346103dd5760207ffffffffffffffffffffffffffffffffffffffffffffffffffffffffffffffffc3601126103dd57604060209173ffffffffffffffffffffffffffffffffffffffff6128f6612a20565b168152600783522054604051908152f35b50346103dd57807ffffffffffffffffffffffffffffffffffffffffffffffffffffffffffffffffc3601126103dd57602060405173ffffffffffffffffffffffffffffffffffffffff7f0000000000000000000000000000000000000000000000000000000000000000168152f35b50346103dd5760207ffffffffffffffffffffffffffffffffffffffffffffffffffffffffffffffffc3601126103dd57600435907fffffffff00000000000000000000000000000000000000000000000000000000821682036103dd57602061195c83612f2c565b50346103dd5760207ffffffffffffffffffffffffffffffffffffffffffffffffffffffffffffffffc3601126103dd576020611176612a1b612a20565b612bc3565b6004359073ffffffffffffffffffffffffffffffffffffffff8216820361184057565b6024359073ffffffffffffffffffffffffffffffffffffffff8216820361184057565b9181601f840112156118405782359167ffffffffffffffff8311611840576020838186019501011161184057565b9181601f840112156118405782359167ffffffffffffffff8311611840576020808501948460051b01011161184057565b60607ffffffffffffffffffffffffffffffffffffffffffffffffffffffffffffffffc8201126118405760043567ffffffffffffffff81116118405781612b0e91600401612a94565b9290929160243567ffffffffffffffff81116118405781612b3191600401612a94565b929092916044359067ffffffffffffffff821161184057612b5491600401612a94565b9091565b91908203918211612b6557565b7f4e487b7100000000000000000000000000000000000000000000000000000000600052601160045260246000fd5b906000911560011715612b6557565b81810292918115918404141715612b6557565b91908201809211612b6557565b73ffffffffffffffffffffffffffffffffffffffff612c2a9116806000526006602052612c15604060002054612c0f612bfa612d47565b84600052600860205260406000205490612b58565b90612ba3565b90600052600760205260406000205490612bb6565b90565b90601f7fffffffffffffffffffffffffffffffffffffffffffffffffffffffffffffffe0910116810190811067ffffffffffffffff821117612c6e57604052565b7f4e487b7100000000000000000000000000000000000000000000000000000000600052604160045260246000fd5b67ffffffffffffffff8111612c6e57601f017fffffffffffffffffffffffffffffffffffffffffffffffffffffffffffffffe01660200190565b929192612ce382612c9d565b91612cf16040519384612c2d565b829481845281830111611840578281602093846000960137010152565b8115612d18570490565b7f4e487b7100000000000000000000000000000000000000000000000000000000600052601260045260246000fd5b6001548015612d8657612c2a90612d8060045491612d7b612d72612d69612f1a565b60025490612b58565b60035490612ba3565b612d0e565b90612bb6565b5060045490565b9080601f830112156118405781359167ffffffffffffffff8311612c6e578260051b9060405193612dc16020840186612c2d565b845260208085019282010192831161184057602001905b828210612de55750505090565b8135815260209182019101612dd8565b60005b838110612e085750506000910152565b8181015183820152602001612df8565b907fffffffffffffffffffffffffffffffffffffffffffffffffffffffffffffffe0601f602093612e5481518092818752878088019101612df5565b0116010190565b73ffffffffffffffffffffffffffffffffffffffff7f000000000000000000000000000000000000000000000000000000000000000016908115612eb35773ffffffffffffffffffffffffffffffffffffffff161490565b5050600090565b9190811015612eca5760051b0190565b7f4e487b7100000000000000000000000000000000000000000000000000000000600052603260045260246000fd5b3573ffffffffffffffffffffffffffffffffffffffff811681036118405790565b600554804210600014612c2a57504290565b7fffffffff00000000000000000000000000000000000000000000000000000000167fffffffff000000000000000000000000000000000000000000000000000000008114612fd5577f01ffc9a7000000000000000000000000000000000000000000000000000000008114612fcf576000527fca9d3e17f264b0f3984e2634e94adb37fa3e6a8103f06aeae6fa59e21c769f5d60205260ff6040600020541690565b50600190565b50600090565b929190612ff2602091604086526040860190612e18565b930152565b91926009549283156131615760405160208101907fffffffffffffffffffffffffffffffffffffffff00000000000000000000000073ffffffffffffffffffffffffffffffffffffffff84169360601b1682528460348201526034815261305f605482612c2d565b519020926000935b86518510156130a857604060019160009060208860051b8b0101519081811060001461309c578252602052205b940193613067565b90825260205220613094565b9194929550925003613130575080600052600a60205260ff6040600020541661310357600052600a602052604060002060017fffffffffffffffffffffffffffffffffffffffffffffffffffffffffffffff00825416179055565b7f2058b6db0000000000000000000000000000000000000000000000000000000060005260045260246000fd5b907fadbd65120000000000000000000000000000000000000000000000000000000060005260045260245260446000fd5b7f9f8a28f20000000000000000000000000000000000000000000000000000000060005260046000fd5b919082156131b3576131a08184029384612d0e565b036131ab5760019190565b600091508190565b5060019150600090565b6131c5612d47565b6004556005544210801590613237575b613227575b73ffffffffffffffffffffffffffffffffffffffff811690816131fb575050565b61320490612bc3565b816000526007602052604060002055600454906000526008602052604060002055565b61322f612f1a565b6002556131da565b5060015415156131d5565b919082019182106131ab5760019190565b5190811515820361184057565b600260005414613271576002600055565b7f3ee5aeb50000000000000000000000000000000000000000000000000000000060005260046000fd5b73ffffffffffffffffffffffffffffffffffffffff7f00000000000000000000000000000000000000000000000000000000000000001680156133c45732331480156133c9575b6133c4577fffffffffffffffffffffffffffffffffffffffffffffffffffffffffffffffec36013560601c90803314908115613323575b50612c2a57503390565b60649150602090604051928380927f019a20280000000000000000000000000000000000000000000000000000000082528660048301523360248301523060448301525afa9081156133b85760009161337e575b5038613319565b90506020813d6020116133b0575b8161339960209383612c2d565b81010312611840576133aa90613253565b38613377565b3d915061338c565b6040513d6000823e3d90fd5b503390565b50601836106132e2565b6134309273ffffffffffffffffffffffffffffffffffffffff604051937fa9059cbb000000000000000000000000000000000000000000000000000000006020860152166024840152604483015260448252611cca606483612c2d565b565b906000602091828151910182855af1156133b8576000513d6134b4575073ffffffffffffffffffffffffffffffffffffffff81163b155b6134705750565b73ffffffffffffffffffffffffffffffffffffffff907f5274afe7000000000000000000000000000000000000000000000000000000006000521660045260246000fd5b6001141561346956fea264697066735822122053ce3d8ca4044b79273e725b6d78ec4c46cf59cc5ceb84a51203bcc6fc9473d264736f6c634300081e0033",
  "linkReferences": {},
  "deployedLinkReferences": {}
}