{
  "_format": "hh-sol-artifact-1",
  "contractName": "ERC20StakingPointsRewardsLimitedLinearPool",
  "sourceName": "contracts/staking/linear/ERC20StakingPointsRewardsLimitedLinearPool.sol",
  "abi": [
    {
      "inputs": [
        {
          "internalType": "address",
          "name": "claimContract",
          "type": "address"
        },
        {
          "internalType": "contract IERC20",
          "name": "stakingToken",
          "type": "address"
        },
        {
          "internalType": "contract IPointsV2",
          "name": "pointsContract",
          "type": "address"
        },
        {
          "internalType": "bytes32",
          "name": "depositReasonCode",
          "type": "bytes32"
        },
        {
          "internalType": "contract IForwarderRegistry",
          "name": "forwarderRegistry",
          "type": "address"
        }
      ],
      "stateMutability": "nonpayable",
      "type": "constructor"
    },
    {
      "inputs": [
        {
          "internalType": "address",
          "name": "staker",
          "type": "address"
        }
      ],
      "name": "AlreadyClaimed",
      "type": "error"
    },
    {
      "inputs": [],
      "name": "FailedCall",
      "type": "error"
    },
    {
      "inputs": [],
      "name": "IllegalInterfaceId",
      "type": "error"
    },
    {
      "inputs": [],
      "name": "InconsistentArrayLengths",
      "type": "error"
    },
    {
      "inputs": [
        {
          "internalType": "address",
          "name": "tokenContract",
          "type": "address"
        }
      ],
      "name": "IncorrectTokenContractType",
      "type": "error"
    },
    {
      "inputs": [
        {
          "internalType": "uint256",
          "name": "balance",
          "type": "uint256"
        },
        {
          "internalType": "uint256",
          "name": "needed",
          "type": "uint256"
        }
      ],
      "name": "InsufficientBalance",
      "type": "error"
    },
    {
      "inputs": [
        {
          "internalType": "uint256",
          "name": "claimable",
          "type": "uint256"
        },
        {
          "internalType": "uint256",
          "name": "claimed",
          "type": "uint256"
        },
        {
          "internalType": "uint256",
          "name": "unclaimed",
          "type": "uint256"
        }
      ],
      "name": "InvalidClaimSum",
      "type": "error"
    },
    {
      "inputs": [],
      "name": "InvalidDuration",
      "type": "error"
    },
    {
      "inputs": [],
      "name": "InvalidMerkleRoot",
      "type": "error"
    },
    {
      "inputs": [],
      "name": "InvalidPointsContract",
      "type": "error"
    },
    {
      "inputs": [
        {
          "internalType": "address",
          "name": "staker",
          "type": "address"
        },
        {
          "internalType": "uint256",
          "name": "amount",
          "type": "uint256"
        }
      ],
      "name": "InvalidProof",
      "type": "error"
    },
    {
      "inputs": [
        {
          "internalType": "uint256",
          "name": "requested",
          "type": "uint256"
        },
        {
          "internalType": "uint256",
          "name": "recoverable",
          "type": "uint256"
        }
      ],
      "name": "InvalidRecoveryAmount",
      "type": "error"
    },
    {
      "inputs": [],
      "name": "InvalidRewardAmount",
      "type": "error"
    },
    {
      "inputs": [],
      "name": "InvalidStakeAmount",
      "type": "error"
    },
    {
      "inputs": [],
      "name": "InvalidToken",
      "type": "error"
    },
    {
      "inputs": [],
      "name": "InvalidWithdrawAmount",
      "type": "error"
    },
    {
      "inputs": [],
      "name": "MerkleRootAlreadySet",
      "type": "error"
    },
    {
      "inputs": [],
      "name": "MerkleRootNotSet",
      "type": "error"
    },
    {
      "inputs": [
        {
          "internalType": "address",
          "name": "account",
          "type": "address"
        }
      ],
      "name": "NotContractOwner",
      "type": "error"
    },
    {
      "inputs": [
        {
          "internalType": "address",
          "name": "staker",
          "type": "address"
        },
        {
          "internalType": "uint256",
          "name": "stake",
          "type": "uint256"
        },
        {
          "internalType": "uint256",
          "name": "withdraw",
          "type": "uint256"
        }
      ],
      "name": "NotEnoughStake",
      "type": "error"
    },
    {
      "inputs": [
        {
          "internalType": "bytes32",
          "name": "role",
          "type": "bytes32"
        },
        {
          "internalType": "address",
          "name": "account",
          "type": "address"
        }
      ],
      "name": "NotRoleHolder",
      "type": "error"
    },
    {
      "inputs": [],
      "name": "ReentrancyGuardReentrantCall",
      "type": "error"
    },
    {
      "inputs": [
        {
          "internalType": "uint256",
          "name": "currentRewardRate",
          "type": "uint256"
        },
        {
          "internalType": "uint256",
          "name": "newRewardRate",
          "type": "uint256"
        }
      ],
      "name": "RewardDilution",
      "type": "error"
    },
    {
      "inputs": [],
      "name": "RewardOverflow",
      "type": "error"
    },
    {
      "inputs": [
        {
          "internalType": "address",
          "name": "token",
          "type": "address"
        }
      ],
      "name": "SafeERC20FailedOperation",
      "type": "error"
    },
    {
      "inputs": [],
      "name": "ScalingFactorOutOfBounds",
      "type": "error"
    },
    {
      "anonymous": false,
      "inputs": [
        {
          "indexed": true,
          "internalType": "address",
          "name": "staker",
          "type": "address"
        },
        {
          "indexed": false,
          "internalType": "bytes",
          "name": "claimData",
          "type": "bytes"
        },
        {
          "indexed": false,
          "internalType": "uint256",
          "name": "claimed",
          "type": "uint256"
        },
        {
          "indexed": false,
          "internalType": "uint256",
          "name": "unclaimed",
          "type": "uint256"
        }
      ],
      "name": "Claimed",
      "type": "event"
    },
    {
      "anonymous": false,
      "inputs": [
        {
          "indexed": true,
          "internalType": "bytes32",
          "name": "newRoot",
          "type": "bytes32"
        }
      ],
      "name": "MerkleRootSet",
      "type": "event"
    },
    {
      "anonymous": false,
      "inputs": [
        {
          "indexed": true,
          "internalType": "address",
          "name": "previousOwner",
          "type": "address"
        },
        {
          "indexed": true,
          "internalType": "address",
          "name": "newOwner",
          "type": "address"
        }
      ],
      "name": "OwnershipTransferred",
      "type": "event"
    },
    {
      "anonymous": false,
      "inputs": [
        {
          "indexed": true,
          "internalType": "address",
          "name": "rewarder",
          "type": "address"
        },
        {
          "indexed": false,
          "internalType": "uint256",
          "name": "reward",
          "type": "uint256"
        },
        {
          "indexed": false,
          "internalType": "uint256",
          "name": "duration",
          "type": "uint256"
        }
      ],
      "name": "RewardAdded",
      "type": "event"
    },
    {
      "anonymous": false,
      "inputs": [
        {
          "indexed": false,
          "internalType": "bytes32",
          "name": "role",
          "type": "bytes32"
        },
        {
          "indexed": false,
          "internalType": "address",
          "name": "account",
          "type": "address"
        },
        {
          "indexed": false,
          "internalType": "address",
          "name": "operator",
          "type": "address"
        }
      ],
      "name": "RoleGranted",
      "type": "event"
    },
    {
      "anonymous": false,
      "inputs": [
        {
          "indexed": false,
          "internalType": "bytes32",
          "name": "role",
          "type": "bytes32"
        },
        {
          "indexed": false,
          "internalType": "address",
          "name": "account",
          "type": "address"
        },
        {
          "indexed": false,
          "internalType": "address",
          "name": "operator",
          "type": "address"
        }
      ],
      "name": "RoleRevoked",
      "type": "event"
    },
    {
      "anonymous": false,
      "inputs": [
        {
          "indexed": true,
          "internalType": "address",
          "name": "staker",
          "type": "address"
        },
        {
          "indexed": false,
          "internalType": "bytes",
          "name": "stakeData",
          "type": "bytes"
        },
        {
          "indexed": false,
          "internalType": "uint256",
          "name": "stakePoints",
          "type": "uint256"
        }
      ],
      "name": "Staked",
      "type": "event"
    },
    {
      "anonymous": false,
      "inputs": [
        {
          "indexed": true,
          "internalType": "address",
          "name": "staker",
          "type": "address"
        },
        {
          "indexed": false,
          "internalType": "bytes",
          "name": "withdrawData",
          "type": "bytes"
        },
        {
          "indexed": false,
          "internalType": "uint256",
          "name": "stakePoints",
          "type": "uint256"
        }
      ],
      "name": "Withdrawn",
      "type": "event"
    },
    {
      "inputs": [],
      "name": "CLAIM_CONTRACT",
      "outputs": [
        {
          "internalType": "address",
          "name": "",
          "type": "address"
        }
      ],
      "stateMutability": "view",
      "type": "function"
    },
    {
      "inputs": [],
      "name": "DEPOSIT_REASON_CODE",
      "outputs": [
        {
          "internalType": "bytes32",
          "name": "",
          "type": "bytes32"
        }
      ],
      "stateMutability": "view",
      "type": "function"
    },
    {
      "inputs": [],
      "name": "POINTS_CONTRACT",
      "outputs": [
        {
          "internalType": "contract IPointsV2",
          "name": "",
          "type": "address"
        }
      ],
      "stateMutability": "view",
      "type": "function"
    },
    {
      "inputs": [],
      "name": "REWARDER_ROLE",
      "outputs": [
        {
          "internalType": "bytes32",
          "name": "",
          "type": "bytes32"
        }
      ],
      "stateMutability": "view",
      "type": "function"
    },
    {
      "inputs": [],
      "name": "SCALING_FACTOR",
      "outputs": [
        {
          "internalType": "uint256",
          "name": "",
          "type": "uint256"
        }
      ],
      "stateMutability": "view",
      "type": "function"
    },
    {
      "inputs": [],
      "name": "STAKING_TOKEN",
      "outputs": [
        {
          "internalType": "contract IERC20",
          "name": "",
          "type": "address"
        }
      ],
      "stateMutability": "view",
      "type": "function"
    },
    {
      "inputs": [
        {
          "internalType": "uint256",
          "name": "reward",
          "type": "uint256"
        },
        {
          "internalType": "uint256",
          "name": "duration",
          "type": "uint256"
        }
      ],
      "name": "addReward",
      "outputs": [],
      "stateMutability": "payable",
      "type": "function"
    },
    {
      "inputs": [],
      "name": "claim",
      "outputs": [],
      "stateMutability": "nonpayable",
      "type": "function"
    },
    {
      "inputs": [
        {
          "internalType": "bytes",
          "name": "claimData",
          "type": "bytes"
        }
      ],
      "name": "claim",
      "outputs": [],
      "stateMutability": "nonpayable",
      "type": "function"
    },
    {
      "inputs": [
        {
          "internalType": "address",
          "name": "staker",
          "type": "address"
        }
      ],
      "name": "claimed",
      "outputs": [
        {
          "internalType": "bool",
          "name": "claimed",
          "type": "bool"
        }
      ],
      "stateMutability": "view",
      "type": "function"
    },
    {
      "inputs": [],
      "name": "distributionEnd",
      "outputs": [
        {
          "internalType": "uint256",
          "name": "",
          "type": "uint256"
        }
      ],
      "stateMutability": "view",
      "type": "function"
    },
    {
      "inputs": [
        {
          "internalType": "address",
          "name": "account",
          "type": "address"
        }
      ],
      "name": "earned",
      "outputs": [
        {
          "internalType": "uint256",
          "name": "",
          "type": "uint256"
        }
      ],
      "stateMutability": "view",
      "type": "function"
    },
    {
      "inputs": [],
      "name": "forwarderRegistry",
      "outputs": [
        {
          "internalType": "contract IForwarderRegistry",
          "name": "",
          "type": "address"
        }
      ],
      "stateMutability": "view",
      "type": "function"
    },
    {
      "inputs": [
        {
          "internalType": "bytes32",
          "name": "role",
          "type": "bytes32"
        },
        {
          "internalType": "address",
          "name": "account",
          "type": "address"
        }
      ],
      "name": "grantRole",
      "outputs": [],
      "stateMutability": "nonpayable",
      "type": "function"
    },
    {
      "inputs": [
        {
          "internalType": "bytes32",
          "name": "role",
          "type": "bytes32"
        },
        {
          "internalType": "address",
          "name": "account",
          "type": "address"
        }
      ],
      "name": "hasRole",
      "outputs": [
        {
          "internalType": "bool",
          "name": "hasRole_",
          "type": "bool"
        }
      ],
      "stateMutability": "view",
      "type": "function"
    },
    {
      "inputs": [
        {
          "internalType": "address",
          "name": "forwarder",
          "type": "address"
        }
      ],
      "name": "isTrustedForwarder",
      "outputs": [
        {
          "internalType": "bool",
          "name": "",
          "type": "bool"
        }
      ],
      "stateMutability": "view",
      "type": "function"
    },
    {
      "inputs": [],
      "name": "lastTimeRewardApplicable",
      "outputs": [
        {
          "internalType": "uint256",
          "name": "",
          "type": "uint256"
        }
      ],
      "stateMutability": "view",
      "type": "function"
    },
    {
      "inputs": [],
      "name": "lastUpdated",
      "outputs": [
        {
          "internalType": "uint256",
          "name": "",
          "type": "uint256"
        }
      ],
      "stateMutability": "view",
      "type": "function"
    },
    {
      "inputs": [
        {
          "internalType": "address",
          "name": "operator",
          "type": "address"
        },
        {
          "internalType": "address",
          "name": "from",
          "type": "address"
        },
        {
          "internalType": "uint256",
          "name": "value",
          "type": "uint256"
        },
        {
          "internalType": "bytes",
          "name": "data",
          "type": "bytes"
        }
      ],
      "name": "onERC20Received",
      "outputs": [
        {
          "internalType": "bytes4",
          "name": "",
          "type": "bytes4"
        }
      ],
      "stateMutability": "nonpayable",
      "type": "function"
    },
    {
      "inputs": [],
      "name": "owner",
      "outputs": [
        {
          "internalType": "address",
          "name": "",
          "type": "address"
        }
      ],
      "stateMutability": "view",
      "type": "function"
    },
    {
      "inputs": [
        {
          "internalType": "address[]",
          "name": "accounts",
          "type": "address[]"
        },
        {
          "internalType": "contract IERC20[]",
          "name": "tokens",
          "type": "address[]"
        },
        {
          "internalType": "uint256[]",
          "name": "amounts",
          "type": "uint256[]"
        }
      ],
      "name": "recoverERC20s",
      "outputs": [],
      "stateMutability": "nonpayable",
      "type": "function"
    },
    {
      "inputs": [
        {
          "internalType": "address[]",
          "name": "accounts",
          "type": "address[]"
        },
        {
          "internalType": "contract IERC721[]",
          "name": "contracts",
          "type": "address[]"
        },
        {
          "internalType": "uint256[]",
          "name": "tokenIds",
          "type": "uint256[]"
        }
      ],
      "name": "recoverERC721s",
      "outputs": [],
      "stateMutability": "nonpayable",
      "type": "function"
    },
    {
      "inputs": [
        {
          "internalType": "address payable[]",
          "name": "accounts",
          "type": "address[]"
        },
        {
          "internalType": "uint256[]",
          "name": "amounts",
          "type": "uint256[]"
        }
      ],
      "name": "recoverETH",
      "outputs": [],
      "stateMutability": "nonpayable",
      "type": "function"
    },
    {
      "inputs": [
        {
          "internalType": "bytes32",
          "name": "role",
          "type": "bytes32"
        }
      ],
      "name": "renounceRole",
      "outputs": [],
      "stateMutability": "nonpayable",
      "type": "function"
    },
    {
      "inputs": [
        {
          "internalType": "bytes32",
          "name": "role",
          "type": "bytes32"
        },
        {
          "internalType": "address",
          "name": "account",
          "type": "address"
        }
      ],
      "name": "revokeRole",
      "outputs": [],
      "stateMutability": "nonpayable",
      "type": "function"
    },
    {
      "inputs": [],
      "name": "rewardPerStakePoint",
      "outputs": [
        {
          "internalType": "uint256",
          "name": "",
          "type": "uint256"
        }
      ],
      "stateMutability": "view",
      "type": "function"
    },
    {
      "inputs": [
        {
          "internalType": "address",
          "name": "staker",
          "type": "address"
        }
      ],
      "name": "rewardPerStakePointPaid",
      "outputs": [
        {
          "internalType": "uint256",
          "name": "paid",
          "type": "uint256"
        }
      ],
      "stateMutability": "view",
      "type": "function"
    },
    {
      "inputs": [],
      "name": "rewardPerStakePointStored",
      "outputs": [
        {
          "internalType": "uint256",
          "name": "",
          "type": "uint256"
        }
      ],
      "stateMutability": "view",
      "type": "function"
    },
    {
      "inputs": [],
      "name": "rewardRate",
      "outputs": [
        {
          "internalType": "uint256",
          "name": "",
          "type": "uint256"
        }
      ],
      "stateMutability": "view",
      "type": "function"
    },
    {
      "inputs": [
        {
          "internalType": "address",
          "name": "staker",
          "type": "address"
        }
      ],
      "name": "rewards",
      "outputs": [
        {
          "internalType": "uint256",
          "name": "reward",
          "type": "uint256"
        }
      ],
      "stateMutability": "view",
      "type": "function"
    },
    {
      "inputs": [],
      "name": "root",
      "outputs": [
        {
          "internalType": "bytes32",
          "name": "",
          "type": "bytes32"
        }
      ],
      "stateMutability": "view",
      "type": "function"
    },
    {
      "inputs": [
        {
          "internalType": "bytes32",
          "name": "newRoot",
          "type": "bytes32"
        }
      ],
      "name": "setMerkleRoot",
      "outputs": [],
      "stateMutability": "nonpayable",
      "type": "function"
    },
    {
      "inputs": [
        {
          "internalType": "bytes",
          "name": "stakeData",
          "type": "bytes"
        }
      ],
      "name": "stake",
      "outputs": [],
      "stateMutability": "payable",
      "type": "function"
    },
    {
      "inputs": [
        {
          "internalType": "address",
          "name": "staker",
          "type": "address"
        }
      ],
      "name": "staked",
      "outputs": [
        {
          "internalType": "uint256",
          "name": "stakePoints",
          "type": "uint256"
        }
      ],
      "stateMutability": "view",
      "type": "function"
    },
    {
      "inputs": [
        {
          "internalType": "bytes4",
          "name": "interfaceId",
          "type": "bytes4"
        }
      ],
      "name": "supportsInterface",
      "outputs": [
        {
          "internalType": "bool",
          "name": "",
          "type": "bool"
        }
      ],
      "stateMutability": "view",
      "type": "function"
    },
    {
      "inputs": [],
      "name": "totalStaked",
      "outputs": [
        {
          "internalType": "uint256",
          "name": "",
          "type": "uint256"
        }
      ],
      "stateMutability": "view",
      "type": "function"
    },
    {
      "inputs": [
        {
          "internalType": "address",
          "name": "newOwner",
          "type": "address"
        }
      ],
      "name": "transferOwnership",
      "outputs": [],
      "stateMutability": "nonpayable",
      "type": "function"
    },
    {
      "inputs": [
        {
          "internalType": "bytes",
          "name": "withdrawData",
          "type": "bytes"
        }
      ],
      "name": "withdraw",
      "outputs": [],
      "stateMutability": "nonpayable",
      "type": "function"
    }
  ],
  "bytecode": "0x6101403461027e57601f61378338819003918201601f19168301916001600160401b038311848410176102835780849260a09460405283398101031261027e578051906001600160a01b038216820361027e5760208101516001600160a01b038116810361027e576040820151906001600160a01b0382169081830361027e5760608401516080909401516001600160a01b038116810361027e573361021f575b7fca9d3e17f264b0f3984e2634e94adb37fa3e6a8103f06aeae6fa59e21c769f5d6020527fa53d5a615b1d5279f1a6647c5c0f31bf064b1e70af135676a4a96aeaeb691a2f8054600160ff19918216811790925560008281556080939093527a184f03e93ff9f4daa797ed6e38ed64bf6a1f01000000000000000060a052634fc3585960e01b9092527fe65694af8bc898f30b0dd47956ad372c47424e060a94ef47c1bbc9231c44a84b805490921617905560c0521561020e5760e05261010052610120526040516134e9908161029a82396080518181816125ce01528181612da601526132a8015260a051818181610578015281816108b10152818161131c0152611e62015260c0518181816115c6015281816119030152818161251d015281816126dd0152612886015260e0518181816108f901528181611eab015261222401526101005181818161097601528181611f27015261262801526101205181818161182a01526119c00152f35b631051ee9560e31b60005260046000fd5b7fc9ed16f33ab3a66c84bfd83099ccb2a8845871e2e1c1928f63797152f0fd54cc80546001600160a01b0319163390811790915560007f8be0079c531659141344cd1fd0a4f28419497f9722a3daafe3b4186f6b6457e08180a36100a0565b600080fd5b634e487b7160e01b600052604160045260246000fdfe6080604052600436101561001257600080fd5b6000803560e01c80628cc2621461291257806301ffc9a7146128aa5780630479d6441461283b5780630700037d146127d85780630968f2641461264b5780632196e445146125f25780632b4c9f16146125835780632c9d0b801461254a5780632d1e0c02146122485780632d4c2f93146121d95780632f2ff15d1461200a5780634e71d92d14611e015780634fc358591461189a578063572b6c051461184e57806362ba9096146117df57806373c8a958146115ae57806375c93bb9146112a75780637b0a47ee1461126b5780637cb647591461117e57806380faa57d1461113d578063817b1cd2146111015780638580cf76146110a85780638bb9c5bf14610f3e5780638da5cb5b14610ecc57806391d1485414610e3557806398807d8414610dd25780639d696e3614610d96578063c3666c3614610b04578063c5c8f77014610aa1578063c63ff8dd1461082a578063c884ef83146107c2578063d0b06f5d14610786578063d547741f146105d7578063ebf0c7171461059b578063ef4cadc514610542578063efa90b5414610506578063f2fde38b146103e05763f7ba94bd146101be57600080fd5b346103dd5760407ffffffffffffffffffffffffffffffffffffffffffffffffffffffffffffffffc3601126103dd5760043567ffffffffffffffff81116103db5761020d9036906004016129c8565b60243567ffffffffffffffff81116103d75761022d9036906004016129c8565b90917fc9ed16f33ab3a66c84bfd83099ccb2a8845871e2e1c1928f63797152f0fd54cc73ffffffffffffffffffffffffffffffffffffffff8061026e613291565b92541691169081036103aa575081810361038257845b81811061028f578580f35b61029a818387612dee565b3573ffffffffffffffffffffffffffffffffffffffff811680910361037e576102c4828587612dee565b359081471061034e578780809381935af13d15610346573d906102e682612bd1565b916102f46040519384612b61565b82523d88602084013e5b1561030c5750600101610284565b805187901561031e5750805190602001fd5b807fd6bda2750000000000000000000000000000000000000000000000000000000060049252fd5b6060906102fe565b60448883477fcf479181000000000000000000000000000000000000000000000000000000008352600452602452fd5b8680fd5b6004857f65825336000000000000000000000000000000000000000000000000000000008152fd5b7f2ef4875e0000000000000000000000000000000000000000000000000000000060005260045260246000fd5b8380fd5b505b80fd5b50346103dd5760207ffffffffffffffffffffffffffffffffffffffffffffffffffffffffffffffffc3601126103dd57610418612954565b7fc9ed16f33ab3a66c84bfd83099ccb2a8845871e2e1c1928f63797152f0fd54cc610441613291565b9080549273ffffffffffffffffffffffffffffffffffffffff80851693168381036104db575073ffffffffffffffffffffffffffffffffffffffff1692838303610489578480f35b7fffffffffffffffffffffffff000000000000000000000000000000000000000016831790557f8be0079c531659141344cd1fd0a4f28419497f9722a3daafe3b4186f6b6457e08380a3388080808480f35b7f2ef4875e000000000000000000000000000000000000000000000000000000008652600452602485fd5b50346103dd57807ffffffffffffffffffffffffffffffffffffffffffffffffffffffffffffffffc3601126103dd576020600554604051908152f35b50346103dd57807ffffffffffffffffffffffffffffffffffffffffffffffffffffffffffffffffc3601126103dd5760206040517f00000000000000000000000000000000000000000000000000000000000000008152f35b50346103dd57807ffffffffffffffffffffffffffffffffffffffffffffffffffffffffffffffffc3601126103dd576020600954604051908152f35b50346103dd5760407ffffffffffffffffffffffffffffffffffffffffffffffffffffffffffffffffc3601126103dd57600435610612612977565b61061a613291565b9173ffffffffffffffffffffffffffffffffffffffff7fc9ed16f33ab3a66c84bfd83099ccb2a8845871e2e1c1928f63797152f0fd54cc541673ffffffffffffffffffffffffffffffffffffffff84169081036103aa57507fc8827d3282af6f37b64c3e9e6f3ac9df286ab0bb0fccd6f8661bf19adb368b22818552806020526040852073ffffffffffffffffffffffffffffffffffffffff841660005260205260ff604060002054166106cc578480f35b7ff6391f5c32d9c69d2a47ea670b442974b53935d1edc7fd64eb21e047a839171b9361077b918387526020526040862073ffffffffffffffffffffffffffffffffffffffff851660005260205260406000207fffffffffffffffffffffffffffffffffffffffffffffffffffffffffffffff0081541690556040519384938491604091949373ffffffffffffffffffffffffffffffffffffffff80926060860197865216602085015216910152565b0390a1388080808480f35b50346103dd57807ffffffffffffffffffffffffffffffffffffffffffffffffffffffffffffffffc3601126103dd576020600254604051908152f35b50346103dd5760207ffffffffffffffffffffffffffffffffffffffffffffffffffffffffffffffffc3601126103dd5760ff604060209273ffffffffffffffffffffffffffffffffffffffff610816612954565b168152600a84522054166040519015158152f35b50346103dd5760207ffffffffffffffffffffffffffffffffffffffffffffffffffffffffffffffffc3601126103dd5760043567ffffffffffffffff81116103db5761087a90369060040161299a565b610885929192613256565b61088d613291565b90610897826131b3565b6108a082612af7565b93846108af575b836001815580f35b7f0000000000000000000000000000000000000000000000000000000000000000946108db8682612c42565b958015610a745773ffffffffffffffffffffffffffffffffffffffff7f00000000000000000000000000000000000000000000000000000000000000001694853b1561037e578673ffffffffffffffffffffffffffffffffffffffff6064829360405194859384927f26b3293f000000000000000000000000000000000000000000000000000000008452169a8b60048401528d60248401527f000000000000000000000000000000000000000000000000000000000000000060448401525af18015610a6957908791610a50575b5050601f847f019eda09011e476781de26947e4b78ee0a834e7182f5ff2eb62bcf8c523f42ca969798610a0c6080969585610a057fffffffffffffffffffffffffffffffffffffffffffffffffffffffffffffffe097612ac8565b9106612aea565b898b52600760205260408b2055604051968795606087528160608801528787013789868387010152602085015288604085015201168101030190a2803880806108a7565b81610a5a91612b61565b610a655785386109aa565b8580fd5b6040513d89823e3d90fd5b6024867f4e487b710000000000000000000000000000000000000000000000000000000081526012600452fd5b50346103dd5760207ffffffffffffffffffffffffffffffffffffffffffffffffffffffffffffffffc3601126103dd57604060209173ffffffffffffffffffffffffffffffffffffffff610af3612954565b168152600883522054604051908152f35b50346103dd57610b13366129f9565b929490939092917fc9ed16f33ab3a66c84bfd83099ccb2a8845871e2e1c1928f63797152f0fd54cc73ffffffffffffffffffffffffffffffffffffffff80610b59613291565b92541691169081036103aa5750808214801590610d8c575b610d6457865b828110610b82578780f35b73ffffffffffffffffffffffffffffffffffffffff610baa610ba583858b612dee565b612e2d565b166040517f01ffc9a70000000000000000000000000000000000000000000000000000000081527f80ac58cd000000000000000000000000000000000000000000000000000000006004820152602081602481855afa908115610d59578a91610d1c575b5015610cf157508773ffffffffffffffffffffffffffffffffffffffff610c39610ba584868c612dee565b16610c48610ba584878a612dee565b610c5384888b612dee565b35823b156103d7576040517f42842e0e00000000000000000000000000000000000000000000000000000000815230600482015273ffffffffffffffffffffffffffffffffffffffff92909216602483015260448201529082908290606490829084905af18015610ce657610ccd575b5050600101610b77565b81610cd791612b61565b610ce2578738610cc3565b8780fd5b6040513d84823e3d90fd5b7f986b9f1f000000000000000000000000000000000000000000000000000000008952600452602488fd5b90506020813d8211610d51575b81610d3660209383612b61565b81010312610d4d57610d4790613249565b38610c0e565b8980fd5b3d9150610d29565b6040513d8c823e3d90fd5b6004877f65825336000000000000000000000000000000000000000000000000000000008152fd5b5082821415610b71565b50346103dd57807ffffffffffffffffffffffffffffffffffffffffffffffffffffffffffffffffc3601126103dd576020600454604051908152f35b50346103dd5760207ffffffffffffffffffffffffffffffffffffffffffffffffffffffffffffffffc3601126103dd57604060209173ffffffffffffffffffffffffffffffffffffffff610e24612954565b168152600683522054604051908152f35b50346103dd5760407ffffffffffffffffffffffffffffffffffffffffffffffffffffffffffffffffc3601126103dd5773ffffffffffffffffffffffffffffffffffffffff6040610e84612977565b927fc8827d3282af6f37b64c3e9e6f3ac9df286ab0bb0fccd6f8661bf19adb368b226004358252602052209116600052602052602060ff604060002054166040519015158152f35b50346103dd57807ffffffffffffffffffffffffffffffffffffffffffffffffffffffffffffffffc3601126103dd5750602073ffffffffffffffffffffffffffffffffffffffff7fc9ed16f33ab3a66c84bfd83099ccb2a8845871e2e1c1928f63797152f0fd54cc5416604051908152f35b50346103dd5760207ffffffffffffffffffffffffffffffffffffffffffffffffffffffffffffffffc3601126103dd57600435907fc8827d3282af6f37b64c3e9e6f3ac9df286ab0bb0fccd6f8661bf19adb368b22610f9b613291565b90838352806020526040832073ffffffffffffffffffffffffffffffffffffffff831660005260205260ff6040600020541615611062578383526020908152604080842073ffffffffffffffffffffffffffffffffffffffff9390931660008181529383529281902080547fffffffffffffffffffffffffffffffffffffffffffffffffffffffffffffff001690558051948552908401829052830152907ff6391f5c32d9c69d2a47ea670b442974b53935d1edc7fd64eb21e047a839171b90606090a180f35b5073ffffffffffffffffffffffffffffffffffffffff906044937f7aa7288200000000000000000000000000000000000000000000000000000000845260045216602452fd5b50346103dd57807ffffffffffffffffffffffffffffffffffffffffffffffffffffffffffffffffc3601126103dd5760206040517f72657761726465720000000000000000000000000000000000000000000000008152f35b50346103dd57807ffffffffffffffffffffffffffffffffffffffffffffffffffffffffffffffffc3601126103dd576020600154604051908152f35b50346103dd57807ffffffffffffffffffffffffffffffffffffffffffffffffffffffffffffffffc3601126103dd576020611176612e4e565b604051908152f35b50346103dd5760207ffffffffffffffffffffffffffffffffffffffffffffffffffffffffffffffffc3601126103dd576004356111e37fc8827d3282af6f37b64c3e9e6f3ac9df286ab0bb0fccd6f8661bf19adb368b226111dd613291565b906130bf565b60095461124357801561121b57806009557f42cbc405e4dbf1b691e85b9a34b08ecfcf7a9ad9078bf4d645ccfa1fac11c10b8280a280f35b6004827f9dd854d3000000000000000000000000000000000000000000000000000000008152fd5b6004827f6006d964000000000000000000000000000000000000000000000000000000008152fd5b50346103dd57807ffffffffffffffffffffffffffffffffffffffffffffffffffffffffffffffffc3601126103dd576020600354604051908152f35b5060407ffffffffffffffffffffffffffffffffffffffffffffffffffffffffffffffffc3601126103dd576004356024356112e0613291565b9061130b827fc8827d3282af6f37b64c3e9e6f3ac9df286ab0bb0fccd6f8661bf19adb368b226130bf565b821561158657801561155e576113417f000000000000000000000000000000000000000000000000000000000000000084613181565b90156115365761134f612c7b565b600455600554421080159061152b575b61151b575b600554906113728342612aea565b914281116113db5750928273ffffffffffffffffffffffffffffffffffffffff926113c06040957f6a6f77044107a33658235d41bedbbaf2fe9ccdceb313143c947a5e76e1ec847497612c42565b6003556005555b42600255835195865260208601521692a280f35b916113ff600394929454946113f96113f34287612a8c565b87612ad7565b90613238565b9490156114f357838211611467575050507f6a6f77044107a33658235d41bedbbaf2fe9ccdceb313143c947a5e76e1ec84749260409261145f61145873ffffffffffffffffffffffffffffffffffffffff944290612a8c565b8092612c42565b6003556113c7565b916114759193508094612c42565b908082106114c557509260409273ffffffffffffffffffffffffffffffffffffffff927f6a6f77044107a33658235d41bedbbaf2fe9ccdceb313143c947a5e76e1ec8474956003556005556113c7565b7f19e2447d000000000000000000000000000000000000000000000000000000008752600452602452604485fd5b6004887f50082065000000000000000000000000000000000000000000000000000000008152fd5b611523612e4e565b600255611364565b50600154151561135f565b6004857f50082065000000000000000000000000000000000000000000000000000000008152fd5b6004847f76166401000000000000000000000000000000000000000000000000000000008152fd5b6004847f38539865000000000000000000000000000000000000000000000000000000008152fd5b50346103dd576115bd366129f9565b929493909291867f000000000000000000000000000000000000000000000000000000000000000073ffffffffffffffffffffffffffffffffffffffff16815b81848a81841061178c5750505050816116bf575b50507fc9ed16f33ab3a66c84bfd83099ccb2a8845871e2e1c1928f63797152f0fd54cc73ffffffffffffffffffffffffffffffffffffffff80611652613291565b92541691169081036103aa57508082148015906116b5575b610d6457865b82811061167b578780f35b806116af61168f610ba5600194868c612dee565b61169d610ba584888c612dee565b6116a884898b612dee565b35916133c9565b01611670565b508282141561166a565b6020602491604051928380927f70a082310000000000000000000000000000000000000000000000000000000082523060048301525afa8015611781578990611748575b611711915060015490612a8c565b9081811115611611577f15c38d3e000000000000000000000000000000000000000000000000000000008952600452602452604487fd5b506020813d602011611779575b8161176260209383612b61565b81010312611774576117119051611703565b600080fd5b3d9150611755565b6040513d8b823e3d90fd5b610ba58473ffffffffffffffffffffffffffffffffffffffff936117af93612dee565b16146117be575b6001016115fd565b916117d76001916117d085898b612dee565b3590612aea565b9290506117b6565b50346103dd57807ffffffffffffffffffffffffffffffffffffffffffffffffffffffffffffffffc3601126103dd57602060405173ffffffffffffffffffffffffffffffffffffffff7f0000000000000000000000000000000000000000000000000000000000000000168152f35b50346103dd5760207ffffffffffffffffffffffffffffffffffffffffffffffffffffffffffffffffc3601126103dd57602061189061188b612954565b612d8f565b6040519015158152f35b50346103dd5760807ffffffffffffffffffffffffffffffffffffffffffffffffffffffffffffffffc3601126103dd576118d2612954565b906118db612977565b916044359060643567ffffffffffffffff81116103d75761190090369060040161299a565b907f00000000000000000000000000000000000000000000000000000000000000009173ffffffffffffffffffffffffffffffffffffffff83163303611dd9576040968751958060208801526020875261195a8988612b61565b8851956119a88761197c602082019a8c8c528d83019d8e526060830190612d4c565b037fffffffffffffffffffffffffffffffffffffffffffffffffffffffffffffffe08101895288612b61565b73ffffffffffffffffffffffffffffffffffffffff807f000000000000000000000000000000000000000000000000000000000000000016911614600014611c0d5750508160209181010312611c0957359273ffffffffffffffffffffffffffffffffffffffff8416809403611c0957611a20613256565b611a29846131b3565b825183019060408460208401930312610a6557611a4590613249565b955167ffffffffffffffff8111610a6557830181603f82011215610a65576020810151611a7181612bd1565b91611a7f6040519384612b61565b818352602083019360408284010111610ce25760209291846040611aa39301612d29565b8051010160208260009203126103dd57505194611b73575b508315611b4b57837ff4679d394f1f97f1a3df1d73e193866ec5a813168ad5fa6958f9be21b10a594e91611af26001968754612aea565b8655838552600660205260408520611b0b838254612aea565b9055611b1c60405192839283612f0f565b0390a2555b60206040517f4fc35859000000000000000000000000000000000000000000000000000000008152f35b6004837f040ef8ec000000000000000000000000000000000000000000000000000000008152fd5b6040517f23b872dd00000000000000000000000000000000000000000000000000000000602082015273ffffffffffffffffffffffffffffffffffffffff8416602482015230604482015260648101869052611c0391611bfe82608481015b037fffffffffffffffffffffffffffffffffffffffffffffffffffffffffffffffe08101845283612b61565b613428565b38611abb565b8480fd5b9183919596930190602081830312610ce25780359067ffffffffffffffff8211611dd55791611c4191611c48949301612cc1565b9085612f2b565b611c50613256565b611c59836131b3565b835184019060408560208401930312610a6557611c7590613249565b955167ffffffffffffffff8111610a6557840181603f82011215610a65576020810151611ca181612bd1565b91611caf6040519384612b61565b818352602083019360408284010111610ce25760209291846040611cd39301612d29565b8051010160208260009203126103dd57505194611d6c575b508315611b4b578373ffffffffffffffffffffffffffffffffffffffff7ff4679d394f1f97f1a3df1d73e193866ec5a813168ad5fa6958f9be21b10a594e92611d376001978854612aea565b87551692838552600660205260408520611d52838254612aea565b9055611d6360405192839283612f0f565b0390a255611b21565b6040517f23b872dd00000000000000000000000000000000000000000000000000000000602082015273ffffffffffffffffffffffffffffffffffffffff8316602482015230604482015260648101869052611dcf91611bfe8260848101611bd2565b38611ceb565b8880fd5b6004867fc1ab6dc1000000000000000000000000000000000000000000000000000000008152fd5b50346103dd57807ffffffffffffffffffffffffffffffffffffffffffffffffffffffffffffffffc3601126103dd57611e38613256565b611e40613291565b611e49816131b3565b611e5281612af7565b80611e60575b826001815580f35b7f000000000000000000000000000000000000000000000000000000000000000090611e8c8282612c42565b918015611fdd578473ffffffffffffffffffffffffffffffffffffffff7f00000000000000000000000000000000000000000000000000000000000000001694853b156103db5773ffffffffffffffffffffffffffffffffffffffff6064839260405194859384927f26b3293f00000000000000000000000000000000000000000000000000000000845216998a60048401528960248401527f000000000000000000000000000000000000000000000000000000000000000060448401525af18015611fd257611fbe575b5091611f8b60809284610a057f019eda09011e476781de26947e4b78ee0a834e7182f5ff2eb62bcf8c523f42ca96612ac8565b84865260076020526040862055604051906060825285606083015285838301526020820152846040820152a23880611e58565b85611fcb91969296612b61565b9338611f58565b6040513d88823e3d90fd5b6024857f4e487b710000000000000000000000000000000000000000000000000000000081526012600452fd5b50346103dd5760407ffffffffffffffffffffffffffffffffffffffffffffffffffffffffffffffffc3601126103dd57600435612045612977565b61204d613291565b9173ffffffffffffffffffffffffffffffffffffffff7fc9ed16f33ab3a66c84bfd83099ccb2a8845871e2e1c1928f63797152f0fd54cc541673ffffffffffffffffffffffffffffffffffffffff84169081036121ae57507fc8827d3282af6f37b64c3e9e6f3ac9df286ab0bb0fccd6f8661bf19adb368b22818552806020526040852073ffffffffffffffffffffffffffffffffffffffff8416865260205260ff604086205416156120fe578480f35b7f2f8788117e7eff1d82e926ec794901d17c78024a50270940304540a733656f0d9361077b918387526020526040862073ffffffffffffffffffffffffffffffffffffffff851687526020526040862060017fffffffffffffffffffffffffffffffffffffffffffffffffffffffffffffff008254161790556040519384938491604091949373ffffffffffffffffffffffffffffffffffffffff80926060860197865216602085015216910152565b7f2ef4875e000000000000000000000000000000000000000000000000000000008552600452602484fd5b50346103dd57807ffffffffffffffffffffffffffffffffffffffffffffffffffffffffffffffffc3601126103dd57602060405173ffffffffffffffffffffffffffffffffffffffff7f0000000000000000000000000000000000000000000000000000000000000000168152f35b5060207ffffffffffffffffffffffffffffffffffffffffffffffffffffffffffffffffc3601126103dd5760043567ffffffffffffffff81116103db5761229390369060040161299a565b810160408282031261254657813567ffffffffffffffff81116103d757816122bc918401612cc1565b9160208101359067ffffffffffffffff8211611c09570181601f820112156103d75760209181836122ef93359101612c0b565b9181835181850193849186010103126103d757612314915161230f613291565b612f2b565b61231c613291565b9060405191602083016001815261236f846123436040820195604087526060830190612d4c565b037fffffffffffffffffffffffffffffffffffffffffffffffffffffffffffffffe08101865285612b61565b612377613256565b612380826131b3565b835184019060408560208401930312610a655761239c90613249565b925167ffffffffffffffff8111610a6557840181603f82011215610a65576020810151906123c982612bd1565b916123d76040519384612b61565b808352602083019360408383010111610ce2576020926123fd8492866040819601612d29565b805101010312611c095751916124b7575b811561248f579073ffffffffffffffffffffffffffffffffffffffff7ff4679d394f1f97f1a3df1d73e193866ec5a813168ad5fa6958f9be21b10a594e9261245883600154612aea565b6001551692838552600660205260408520612474838254612aea565b905561248560405192839283612f0f565b0390a26001815580f35b6004847f040ef8ec000000000000000000000000000000000000000000000000000000008152fd5b6040517f23b872dd00000000000000000000000000000000000000000000000000000000602082015273ffffffffffffffffffffffffffffffffffffffff82166024820152306044820152606480820184905281526125419061251b608482612b61565b7f0000000000000000000000000000000000000000000000000000000000000000613428565b61240e565b8280fd5b50346103dd57807ffffffffffffffffffffffffffffffffffffffffffffffffffffffffffffffffc3601126103dd576020611176612c7b565b50346103dd57807ffffffffffffffffffffffffffffffffffffffffffffffffffffffffffffffffc3601126103dd57602060405173ffffffffffffffffffffffffffffffffffffffff7f0000000000000000000000000000000000000000000000000000000000000000168152f35b50346103dd57807ffffffffffffffffffffffffffffffffffffffffffffffffffffffffffffffffc3601126103dd5760206040517f00000000000000000000000000000000000000000000000000000000000000008152f35b50346103dd5760207ffffffffffffffffffffffffffffffffffffffffffffffffffffffffffffffffc3601126103dd5760043567ffffffffffffffff81116103db5761269e6126b091369060040161299a565b91906126a8613291565b923691612c0b565b906126b9613256565b6126c2816131b3565b81516020838101918401849003126103d757519061270182827f00000000000000000000000000000000000000000000000000000000000000006133c9565b81156127b05773ffffffffffffffffffffffffffffffffffffffff16918284526006602052604084205482811061277c5790827faae638dec0d864ccb08558c28981bcfaee41330f57c4911cbe2d8432d0fb729e93928587526006602052036040862055816001540360015561248560405192839283612f0f565b905083927f2b6a77580000000000000000000000000000000000000000000000000000000060649552600452602452604452fd5b6004847fdb73cdf0000000000000000000000000000000000000000000000000000000008152fd5b50346103dd5760207ffffffffffffffffffffffffffffffffffffffffffffffffffffffffffffffffc3601126103dd57604060209173ffffffffffffffffffffffffffffffffffffffff61282a612954565b168152600783522054604051908152f35b50346103dd57807ffffffffffffffffffffffffffffffffffffffffffffffffffffffffffffffffc3601126103dd57602060405173ffffffffffffffffffffffffffffffffffffffff7f0000000000000000000000000000000000000000000000000000000000000000168152f35b50346103dd5760207ffffffffffffffffffffffffffffffffffffffffffffffffffffffffffffffffc3601126103dd57600435907fffffffff00000000000000000000000000000000000000000000000000000000821682036103dd57602061189083612e60565b50346103dd5760207ffffffffffffffffffffffffffffffffffffffffffffffffffffffffffffffffc3601126103dd57602061117661294f612954565b612af7565b6004359073ffffffffffffffffffffffffffffffffffffffff8216820361177457565b6024359073ffffffffffffffffffffffffffffffffffffffff8216820361177457565b9181601f840112156117745782359167ffffffffffffffff8311611774576020838186019501011161177457565b9181601f840112156117745782359167ffffffffffffffff8311611774576020808501948460051b01011161177457565b60607ffffffffffffffffffffffffffffffffffffffffffffffffffffffffffffffffc8201126117745760043567ffffffffffffffff81116117745781612a42916004016129c8565b9290929160243567ffffffffffffffff81116117745781612a65916004016129c8565b929092916044359067ffffffffffffffff821161177457612a88916004016129c8565b9091565b91908203918211612a9957565b7f4e487b7100000000000000000000000000000000000000000000000000000000600052601160045260246000fd5b906000911560011715612a9957565b81810292918115918404141715612a9957565b91908201809211612a9957565b73ffffffffffffffffffffffffffffffffffffffff612b5e9116806000526006602052612b49604060002054612b43612b2e612c7b565b84600052600860205260406000205490612a8c565b90612ad7565b90600052600760205260406000205490612aea565b90565b90601f7fffffffffffffffffffffffffffffffffffffffffffffffffffffffffffffffe0910116810190811067ffffffffffffffff821117612ba257604052565b7f4e487b7100000000000000000000000000000000000000000000000000000000600052604160045260246000fd5b67ffffffffffffffff8111612ba257601f017fffffffffffffffffffffffffffffffffffffffffffffffffffffffffffffffe01660200190565b929192612c1782612bd1565b91612c256040519384612b61565b829481845281830111611774578281602093846000960137010152565b8115612c4c570490565b7f4e487b7100000000000000000000000000000000000000000000000000000000600052601260045260246000fd5b6001548015612cba57612b5e90612cb460045491612caf612ca6612c9d612e4e565b60025490612a8c565b60035490612ad7565b612c42565b90612aea565b5060045490565b9080601f830112156117745781359167ffffffffffffffff8311612ba2578260051b9060405193612cf56020840186612b61565b845260208085019282010192831161177457602001905b828210612d195750505090565b8135815260209182019101612d0c565b60005b838110612d3c5750506000910152565b8181015183820152602001612d2c565b907fffffffffffffffffffffffffffffffffffffffffffffffffffffffffffffffe0601f602093612d8881518092818752878088019101612d29565b0116010190565b73ffffffffffffffffffffffffffffffffffffffff7f000000000000000000000000000000000000000000000000000000000000000016908115612de75773ffffffffffffffffffffffffffffffffffffffff161490565b5050600090565b9190811015612dfe5760051b0190565b7f4e487b7100000000000000000000000000000000000000000000000000000000600052603260045260246000fd5b3573ffffffffffffffffffffffffffffffffffffffff811681036117745790565b600554804210600014612b5e57504290565b7fffffffff00000000000000000000000000000000000000000000000000000000167fffffffff000000000000000000000000000000000000000000000000000000008114612f09577f01ffc9a7000000000000000000000000000000000000000000000000000000008114612f03576000527fca9d3e17f264b0f3984e2634e94adb37fa3e6a8103f06aeae6fa59e21c769f5d60205260ff6040600020541690565b50600190565b50600090565b929190612f26602091604086526040860190612d4c565b930152565b91926009549283156130955760405160208101907fffffffffffffffffffffffffffffffffffffffff00000000000000000000000073ffffffffffffffffffffffffffffffffffffffff84169360601b16825284603482015260348152612f93605482612b61565b519020926000935b8651851015612fdc57604060019160009060208860051b8b01015190818110600014612fd0578252602052205b940193612f9b565b90825260205220612fc8565b9194929550925003613064575080600052600a60205260ff6040600020541661303757600052600a602052604060002060017fffffffffffffffffffffffffffffffffffffffffffffffffffffffffffffff00825416179055565b7f2058b6db0000000000000000000000000000000000000000000000000000000060005260045260246000fd5b907fadbd65120000000000000000000000000000000000000000000000000000000060005260045260245260446000fd5b7f9f8a28f20000000000000000000000000000000000000000000000000000000060005260046000fd5b7f7265776172646572000000000000000000000000000000000000000000000000600052602052604060002073ffffffffffffffffffffffffffffffffffffffff821660005260205260ff60406000205416156131195750565b73ffffffffffffffffffffffffffffffffffffffff907f7aa72882000000000000000000000000000000000000000000000000000000006000527f72657761726465720000000000000000000000000000000000000000000000006004521660245260446000fd5b919082156131a9576131968184029384612c42565b036131a15760019190565b600091508190565b5060019150600090565b6131bb612c7b565b600455600554421080159061322d575b61321d575b73ffffffffffffffffffffffffffffffffffffffff811690816131f1575050565b6131fa90612af7565b816000526007602052604060002055600454906000526008602052604060002055565b613225612e4e565b6002556131d0565b5060015415156131cb565b919082019182106131a15760019190565b5190811515820361177457565b600260005414613267576002600055565b7f3ee5aeb50000000000000000000000000000000000000000000000000000000060005260046000fd5b73ffffffffffffffffffffffffffffffffffffffff7f00000000000000000000000000000000000000000000000000000000000000001680156133ba5732331480156133bf575b6133ba577fffffffffffffffffffffffffffffffffffffffffffffffffffffffffffffffec36013560601c90803314908115613319575b50612b5e57503390565b60649150602090604051928380927f019a20280000000000000000000000000000000000000000000000000000000082528660048301523360248301523060448301525afa9081156133ae57600091613374575b503861330f565b90506020813d6020116133a6575b8161338f60209383612b61565b81010312611774576133a090613249565b3861336d565b3d9150613382565b6040513d6000823e3d90fd5b503390565b50601836106132d8565b6134269273ffffffffffffffffffffffffffffffffffffffff604051937fa9059cbb000000000000000000000000000000000000000000000000000000006020860152166024840152604483015260448252611bfe606483612b61565b565b906000602091828151910182855af1156133ae576000513d6134aa575073ffffffffffffffffffffffffffffffffffffffff81163b155b6134665750565b73ffffffffffffffffffffffffffffffffffffffff907f5274afe7000000000000000000000000000000000000000000000000000000006000521660045260246000fd5b6001141561345f56fea2646970667358221220201795f705159edc31c373dbd1fb3a3248aae1b3df88420e89901efeacfde51964736f6c634300081e0033",
  "linkReferences": {},
  "deployedLinkReferences": {}
}