{
  "_format": "hh-sol-artifact-1",
  "contractName": "ScratchingBoardMock",
  "sourceName": "contracts/mocks/token/ERC721/ScratchingBoardMock.sol",
  "abi": [
    {
      "inputs": [
        {
          "internalType": "string",
          "name": "tokenName",
          "type": "string"
        },
        {
          "internalType": "string",
          "name": "tokenSymbol",
          "type": "string"
        },
        {
          "internalType": "contract ITokenMetadataResolver",
          "name": "metadataResolver",
          "type": "address"
        },
        {
          "internalType": "contract IForwarderRegistry",
          "name": "forwarderRegistry",
          "type": "address"
        }
      ],
      "stateMutability": "nonpayable",
      "type": "constructor"
    },
    {
      "inputs": [
        {
          "internalType": "uint256",
          "name": "percentage",
          "type": "uint256"
        }
      ],
      "name": "ERC2981IncorrectRoyaltyPercentage",
      "type": "error"
    },
    {
      "inputs": [],
      "name": "ERC2981IncorrectRoyaltyReceiver",
      "type": "error"
    },
    {
      "inputs": [],
      "name": "ERC721BalanceOfAddressZero",
      "type": "error"
    },
    {
      "inputs": [
        {
          "internalType": "uint256",
          "name": "tokenId",
          "type": "uint256"
        }
      ],
      "name": "ERC721ExistingToken",
      "type": "error"
    },
    {
      "inputs": [],
      "name": "ERC721MintToAddressZero",
      "type": "error"
    },
    {
      "inputs": [
        {
          "internalType": "address",
          "name": "sender",
          "type": "address"
        },
        {
          "internalType": "address",
          "name": "owner",
          "type": "address"
        },
        {
          "internalType": "uint256",
          "name": "tokenId",
          "type": "uint256"
        }
      ],
      "name": "ERC721NonApprovedForApproval",
      "type": "error"
    },
    {
      "inputs": [
        {
          "internalType": "address",
          "name": "sender",
          "type": "address"
        },
        {
          "internalType": "address",
          "name": "owner",
          "type": "address"
        },
        {
          "internalType": "uint256",
          "name": "tokenId",
          "type": "uint256"
        }
      ],
      "name": "ERC721NonApprovedForTransfer",
      "type": "error"
    },
    {
      "inputs": [
        {
          "internalType": "uint256",
          "name": "tokenId",
          "type": "uint256"
        }
      ],
      "name": "ERC721NonExistingToken",
      "type": "error"
    },
    {
      "inputs": [
        {
          "internalType": "address",
          "name": "account",
          "type": "address"
        },
        {
          "internalType": "uint256",
          "name": "tokenId",
          "type": "uint256"
        }
      ],
      "name": "ERC721NonOwnedToken",
      "type": "error"
    },
    {
      "inputs": [
        {
          "internalType": "address",
          "name": "recipient",
          "type": "address"
        },
        {
          "internalType": "uint256",
          "name": "tokenId",
          "type": "uint256"
        }
      ],
      "name": "ERC721SafeTransferRejected",
      "type": "error"
    },
    {
      "inputs": [
        {
          "internalType": "address",
          "name": "account",
          "type": "address"
        }
      ],
      "name": "ERC721SelfApproval",
      "type": "error"
    },
    {
      "inputs": [
        {
          "internalType": "address",
          "name": "account",
          "type": "address"
        }
      ],
      "name": "ERC721SelfApprovalForAll",
      "type": "error"
    },
    {
      "inputs": [],
      "name": "ERC721TransferToAddressZero",
      "type": "error"
    },
    {
      "inputs": [],
      "name": "FailedCall",
      "type": "error"
    },
    {
      "inputs": [],
      "name": "IllegalInterfaceId",
      "type": "error"
    },
    {
      "inputs": [],
      "name": "InconsistentArrayLengths",
      "type": "error"
    },
    {
      "inputs": [
        {
          "internalType": "address",
          "name": "tokenContract",
          "type": "address"
        }
      ],
      "name": "IncorrectTokenContractType",
      "type": "error"
    },
    {
      "inputs": [
        {
          "internalType": "uint256",
          "name": "balance",
          "type": "uint256"
        },
        {
          "internalType": "uint256",
          "name": "needed",
          "type": "uint256"
        }
      ],
      "name": "InsufficientBalance",
      "type": "error"
    },
    {
      "inputs": [
        {
          "internalType": "address",
          "name": "account",
          "type": "address"
        }
      ],
      "name": "NotContractOwner",
      "type": "error"
    },
    {
      "inputs": [
        {
          "internalType": "bytes32",
          "name": "role",
          "type": "bytes32"
        },
        {
          "internalType": "address",
          "name": "account",
          "type": "address"
        }
      ],
      "name": "NotRoleHolder",
      "type": "error"
    },
    {
      "inputs": [
        {
          "internalType": "uint256",
          "name": "tokenId",
          "type": "uint256"
        },
        {
          "internalType": "uint256",
          "name": "requestId",
          "type": "uint256"
        }
      ],
      "name": "PendingScratchRequest",
      "type": "error"
    },
    {
      "inputs": [
        {
          "internalType": "address",
          "name": "token",
          "type": "address"
        }
      ],
      "name": "SafeERC20FailedOperation",
      "type": "error"
    },
    {
      "anonymous": false,
      "inputs": [
        {
          "indexed": true,
          "internalType": "address",
          "name": "owner",
          "type": "address"
        },
        {
          "indexed": true,
          "internalType": "address",
          "name": "approved",
          "type": "address"
        },
        {
          "indexed": true,
          "internalType": "uint256",
          "name": "tokenId",
          "type": "uint256"
        }
      ],
      "name": "Approval",
      "type": "event"
    },
    {
      "anonymous": false,
      "inputs": [
        {
          "indexed": true,
          "internalType": "address",
          "name": "owner",
          "type": "address"
        },
        {
          "indexed": true,
          "internalType": "address",
          "name": "operator",
          "type": "address"
        },
        {
          "indexed": false,
          "internalType": "bool",
          "name": "approved",
          "type": "bool"
        }
      ],
      "name": "ApprovalForAll",
      "type": "event"
    },
    {
      "anonymous": false,
      "inputs": [
        {
          "indexed": true,
          "internalType": "address",
          "name": "previousOwner",
          "type": "address"
        },
        {
          "indexed": true,
          "internalType": "address",
          "name": "newOwner",
          "type": "address"
        }
      ],
      "name": "OwnershipTransferred",
      "type": "event"
    },
    {
      "anonymous": false,
      "inputs": [
        {
          "indexed": false,
          "internalType": "bytes32",
          "name": "role",
          "type": "bytes32"
        },
        {
          "indexed": false,
          "internalType": "address",
          "name": "account",
          "type": "address"
        },
        {
          "indexed": false,
          "internalType": "address",
          "name": "operator",
          "type": "address"
        }
      ],
      "name": "RoleGranted",
      "type": "event"
    },
    {
      "anonymous": false,
      "inputs": [
        {
          "indexed": false,
          "internalType": "bytes32",
          "name": "role",
          "type": "bytes32"
        },
        {
          "indexed": false,
          "internalType": "address",
          "name": "account",
          "type": "address"
        },
        {
          "indexed": false,
          "internalType": "address",
          "name": "operator",
          "type": "address"
        }
      ],
      "name": "RoleRevoked",
      "type": "event"
    },
    {
      "anonymous": false,
      "inputs": [
        {
          "indexed": false,
          "internalType": "contract IScratching",
          "name": "scratchingContract",
          "type": "address"
        }
      ],
      "name": "ScratchingContractSet",
      "type": "event"
    },
    {
      "anonymous": false,
      "inputs": [
        {
          "indexed": true,
          "internalType": "address",
          "name": "from",
          "type": "address"
        },
        {
          "indexed": true,
          "internalType": "address",
          "name": "to",
          "type": "address"
        },
        {
          "indexed": true,
          "internalType": "uint256",
          "name": "tokenId",
          "type": "uint256"
        }
      ],
      "name": "Transfer",
      "type": "event"
    },
    {
      "inputs": [],
      "name": "MINTER_ROLE",
      "outputs": [
        {
          "internalType": "bytes32",
          "name": "",
          "type": "bytes32"
        }
      ],
      "stateMutability": "view",
      "type": "function"
    },
    {
      "inputs": [],
      "name": "ROYALTY_FEE_DENOMINATOR",
      "outputs": [
        {
          "internalType": "uint256",
          "name": "",
          "type": "uint256"
        }
      ],
      "stateMutability": "view",
      "type": "function"
    },
    {
      "inputs": [],
      "name": "__msgData",
      "outputs": [
        {
          "internalType": "bytes",
          "name": "",
          "type": "bytes"
        }
      ],
      "stateMutability": "view",
      "type": "function"
    },
    {
      "inputs": [
        {
          "internalType": "address",
          "name": "to",
          "type": "address"
        },
        {
          "internalType": "uint256",
          "name": "tokenId",
          "type": "uint256"
        }
      ],
      "name": "approve",
      "outputs": [],
      "stateMutability": "nonpayable",
      "type": "function"
    },
    {
      "inputs": [
        {
          "internalType": "address",
          "name": "owner",
          "type": "address"
        }
      ],
      "name": "balanceOf",
      "outputs": [
        {
          "internalType": "uint256",
          "name": "balance",
          "type": "uint256"
        }
      ],
      "stateMutability": "view",
      "type": "function"
    },
    {
      "inputs": [
        {
          "internalType": "uint256",
          "name": "tokenId",
          "type": "uint256"
        }
      ],
      "name": "burn",
      "outputs": [],
      "stateMutability": "nonpayable",
      "type": "function"
    },
    {
      "inputs": [],
      "name": "forwarderRegistry",
      "outputs": [
        {
          "internalType": "contract IForwarderRegistry",
          "name": "",
          "type": "address"
        }
      ],
      "stateMutability": "view",
      "type": "function"
    },
    {
      "inputs": [
        {
          "internalType": "uint256",
          "name": "tokenId",
          "type": "uint256"
        }
      ],
      "name": "getApproved",
      "outputs": [
        {
          "internalType": "address",
          "name": "approved",
          "type": "address"
        }
      ],
      "stateMutability": "view",
      "type": "function"
    },
    {
      "inputs": [
        {
          "internalType": "bytes32",
          "name": "role",
          "type": "bytes32"
        },
        {
          "internalType": "address",
          "name": "account",
          "type": "address"
        }
      ],
      "name": "grantRole",
      "outputs": [],
      "stateMutability": "nonpayable",
      "type": "function"
    },
    {
      "inputs": [
        {
          "internalType": "bytes32",
          "name": "role",
          "type": "bytes32"
        },
        {
          "internalType": "address",
          "name": "account",
          "type": "address"
        }
      ],
      "name": "hasRole",
      "outputs": [
        {
          "internalType": "bool",
          "name": "hasRole_",
          "type": "bool"
        }
      ],
      "stateMutability": "view",
      "type": "function"
    },
    {
      "inputs": [
        {
          "internalType": "address",
          "name": "owner",
          "type": "address"
        },
        {
          "internalType": "address",
          "name": "operator",
          "type": "address"
        }
      ],
      "name": "isApprovedForAll",
      "outputs": [
        {
          "internalType": "bool",
          "name": "approvedForAll",
          "type": "bool"
        }
      ],
      "stateMutability": "view",
      "type": "function"
    },
    {
      "inputs": [
        {
          "internalType": "address",
          "name": "forwarder",
          "type": "address"
        }
      ],
      "name": "isTrustedForwarder",
      "outputs": [
        {
          "internalType": "bool",
          "name": "",
          "type": "bool"
        }
      ],
      "stateMutability": "view",
      "type": "function"
    },
    {
      "inputs": [],
      "name": "metadataResolver",
      "outputs": [
        {
          "internalType": "contract ITokenMetadataResolver",
          "name": "tokenMetadataResolver",
          "type": "address"
        }
      ],
      "stateMutability": "view",
      "type": "function"
    },
    {
      "inputs": [
        {
          "internalType": "address",
          "name": "to",
          "type": "address"
        }
      ],
      "name": "mint",
      "outputs": [
        {
          "internalType": "uint256",
          "name": "tokenId",
          "type": "uint256"
        }
      ],
      "stateMutability": "nonpayable",
      "type": "function"
    },
    {
      "inputs": [],
      "name": "name",
      "outputs": [
        {
          "internalType": "string",
          "name": "tokenName",
          "type": "string"
        }
      ],
      "stateMutability": "view",
      "type": "function"
    },
    {
      "inputs": [],
      "name": "nextTokenId",
      "outputs": [
        {
          "internalType": "uint256",
          "name": "",
          "type": "uint256"
        }
      ],
      "stateMutability": "view",
      "type": "function"
    },
    {
      "inputs": [],
      "name": "owner",
      "outputs": [
        {
          "internalType": "address",
          "name": "",
          "type": "address"
        }
      ],
      "stateMutability": "view",
      "type": "function"
    },
    {
      "inputs": [
        {
          "internalType": "uint256",
          "name": "tokenId",
          "type": "uint256"
        }
      ],
      "name": "ownerOf",
      "outputs": [
        {
          "internalType": "address",
          "name": "tokenOwner",
          "type": "address"
        }
      ],
      "stateMutability": "view",
      "type": "function"
    },
    {
      "inputs": [
        {
          "internalType": "address[]",
          "name": "accounts",
          "type": "address[]"
        },
        {
          "internalType": "contract IERC20[]",
          "name": "tokens",
          "type": "address[]"
        },
        {
          "internalType": "uint256[]",
          "name": "amounts",
          "type": "uint256[]"
        }
      ],
      "name": "recoverERC20s",
      "outputs": [],
      "stateMutability": "nonpayable",
      "type": "function"
    },
    {
      "inputs": [
        {
          "internalType": "address[]",
          "name": "accounts",
          "type": "address[]"
        },
        {
          "internalType": "contract IERC721[]",
          "name": "contracts",
          "type": "address[]"
        },
        {
          "internalType": "uint256[]",
          "name": "tokenIds",
          "type": "uint256[]"
        }
      ],
      "name": "recoverERC721s",
      "outputs": [],
      "stateMutability": "nonpayable",
      "type": "function"
    },
    {
      "inputs": [
        {
          "internalType": "address payable[]",
          "name": "accounts",
          "type": "address[]"
        },
        {
          "internalType": "uint256[]",
          "name": "amounts",
          "type": "uint256[]"
        }
      ],
      "name": "recoverETH",
      "outputs": [],
      "stateMutability": "nonpayable",
      "type": "function"
    },
    {
      "inputs": [
        {
          "internalType": "bytes32",
          "name": "role",
          "type": "bytes32"
        }
      ],
      "name": "renounceRole",
      "outputs": [],
      "stateMutability": "nonpayable",
      "type": "function"
    },
    {
      "inputs": [
        {
          "internalType": "bytes32",
          "name": "role",
          "type": "bytes32"
        },
        {
          "internalType": "address",
          "name": "account",
          "type": "address"
        }
      ],
      "name": "revokeRole",
      "outputs": [],
      "stateMutability": "nonpayable",
      "type": "function"
    },
    {
      "inputs": [
        {
          "internalType": "uint256",
          "name": "tokenId",
          "type": "uint256"
        },
        {
          "internalType": "uint256",
          "name": "salePrice",
          "type": "uint256"
        }
      ],
      "name": "royaltyInfo",
      "outputs": [
        {
          "internalType": "address",
          "name": "receiver",
          "type": "address"
        },
        {
          "internalType": "uint256",
          "name": "royaltyAmount",
          "type": "uint256"
        }
      ],
      "stateMutability": "view",
      "type": "function"
    },
    {
      "inputs": [
        {
          "internalType": "address",
          "name": "from",
          "type": "address"
        },
        {
          "internalType": "address",
          "name": "to",
          "type": "address"
        },
        {
          "internalType": "uint256",
          "name": "tokenId",
          "type": "uint256"
        }
      ],
      "name": "safeTransferFrom",
      "outputs": [],
      "stateMutability": "nonpayable",
      "type": "function"
    },
    {
      "inputs": [
        {
          "internalType": "address",
          "name": "from",
          "type": "address"
        },
        {
          "internalType": "address",
          "name": "to",
          "type": "address"
        },
        {
          "internalType": "uint256",
          "name": "tokenId",
          "type": "uint256"
        },
        {
          "internalType": "bytes",
          "name": "data",
          "type": "bytes"
        }
      ],
      "name": "safeTransferFrom",
      "outputs": [],
      "stateMutability": "nonpayable",
      "type": "function"
    },
    {
      "inputs": [],
      "name": "scratchingContract",
      "outputs": [
        {
          "internalType": "contract IScratching",
          "name": "",
          "type": "address"
        }
      ],
      "stateMutability": "view",
      "type": "function"
    },
    {
      "inputs": [
        {
          "internalType": "address",
          "name": "operator",
          "type": "address"
        },
        {
          "internalType": "bool",
          "name": "approved",
          "type": "bool"
        }
      ],
      "name": "setApprovalForAll",
      "outputs": [],
      "stateMutability": "nonpayable",
      "type": "function"
    },
    {
      "inputs": [
        {
          "internalType": "uint256",
          "name": "percentage",
          "type": "uint256"
        }
      ],
      "name": "setRoyaltyPercentage",
      "outputs": [],
      "stateMutability": "nonpayable",
      "type": "function"
    },
    {
      "inputs": [
        {
          "internalType": "address",
          "name": "receiver",
          "type": "address"
        }
      ],
      "name": "setRoyaltyReceiver",
      "outputs": [],
      "stateMutability": "nonpayable",
      "type": "function"
    },
    {
      "inputs": [
        {
          "internalType": "contract IScratching",
          "name": "scratching",
          "type": "address"
        }
      ],
      "name": "setScratchingContract",
      "outputs": [],
      "stateMutability": "nonpayable",
      "type": "function"
    },
    {
      "inputs": [
        {
          "internalType": "bytes4",
          "name": "interfaceId",
          "type": "bytes4"
        }
      ],
      "name": "supportsInterface",
      "outputs": [
        {
          "internalType": "bool",
          "name": "",
          "type": "bool"
        }
      ],
      "stateMutability": "view",
      "type": "function"
    },
    {
      "inputs": [],
      "name": "symbol",
      "outputs": [
        {
          "internalType": "string",
          "name": "tokenSymbol",
          "type": "string"
        }
      ],
      "stateMutability": "view",
      "type": "function"
    },
    {
      "inputs": [
        {
          "internalType": "uint256",
          "name": "tokenId",
          "type": "uint256"
        }
      ],
      "name": "tokenURI",
      "outputs": [
        {
          "internalType": "string",
          "name": "uri",
          "type": "string"
        }
      ],
      "stateMutability": "view",
      "type": "function"
    },
    {
      "inputs": [
        {
          "internalType": "address",
          "name": "from",
          "type": "address"
        },
        {
          "internalType": "address",
          "name": "to",
          "type": "address"
        },
        {
          "internalType": "uint256",
          "name": "tokenId",
          "type": "uint256"
        }
      ],
      "name": "transferFrom",
      "outputs": [],
      "stateMutability": "nonpayable",
      "type": "function"
    },
    {
      "inputs": [
        {
          "internalType": "address",
          "name": "newOwner",
          "type": "address"
        }
      ],
      "name": "transferOwnership",
      "outputs": [],
      "stateMutability": "nonpayable",
      "type": "function"
    }
  ],
  "bytecode": "0x60a06040523461055f576137e78038038061001981610564565b92833981019060808183031261055f5780516001600160401b03811161055f5782610045918301610589565b602082015190926001600160401b03821161055f57610065918301610589565b604082015190926001600160a01b03821692909183900361055f5760600151916001600160a01b038316830361055f576380ac58cd60e01b6000527fca9d3e17f264b0f3984e2634e94adb37fa3e6a8103f06aeae6fa59e21c769f5d60208190527f8ed2355fc3f859d445b81332ba1875c675be71b9fe1bab0a25be6436696b0ec7805460ff19166001179055825190926001600160401b038211610435576000805160206137a78339815191525490600182811c92168015610555575b60208310146104155781601f8493116104d8575b50602090601f83116001146104565760009261044b575b50508160011b916000199060031b1c1916176000805160206137a7833981519152555b83516001600160401b038111610435576000805160206137c783398151915254600181811c9116801561042b575b602082101461041557601f81116103a3575b50602094601f821160011461032257948192939495600092610317575b50508160011b916000199060031b1c1916176000805160206137c7833981519152555b7f7ea68fd2dcf1c056b94db6a0a537aa80d26fa9ab1eacd85da1ba0b61b7e7a8a680546001600160a01b031916919091179055635b5e139f60e01b6000908152602082905260409020805460ff19166001179055336102b8575b6307f5828d60e41b600052806020526040600020600160ff1982541617905563152a902d60e11b6000526020526040600020600160ff198254161790556080526040516131b290816105f58239608051818181611dff0152818161252101528181612d1d0152612ec80152f35b7fc9ed16f33ab3a66c84bfd83099ccb2a8845871e2e1c1928f63797152f0fd54cc80546001600160a01b0319163390811790915560007f8be0079c531659141344cd1fd0a4f28419497f9722a3daafe3b4186f6b6457e08180a361024b565b0151905038806101ce565b601f198216956000805160206137c7833981519152600052806000209160005b88811061038b57508360019596979810610372575b505050811b016000805160206137c7833981519152556101f1565b015160001960f88460031b161c19169055388080610357565b91926020600181928685015181550194019201610342565b6000805160206137c78339815191526000527fc39bad3db5d56dccf839bc8a79759b3192b97757d993f7663c9998f4fbefc8a1601f830160051c8101916020841061040b575b601f0160051c01905b8181106103ff57506101b1565b600081556001016103f2565b90915081906103e9565b634e487b7160e01b600052602260045260246000fd5b90607f169061019f565b634e487b7160e01b600052604160045260246000fd5b01519050388061014e565b6000805160206137a783398151915260009081528281209350601f198516905b8181106104c057509084600195949392106104a7575b505050811b016000805160206137a783398151915255610171565b015160001960f88460031b161c1916905538808061048c565b92936020600181928786015181550195019301610476565b6000805160206137a78339815191526000529091507f565de0cfbb8a3f70c938db1afc5562690ff7c55773c7234a649300f58e3b30bc601f840160051c8101916020851061054b575b90601f859493920160051c01905b81811061053c5750610137565b6000815584935060010161052f565b9091508190610521565b91607f1691610123565b600080fd5b6040519190601f01601f191682016001600160401b0381118382101761043557604052565b81601f8201121561055f578051906001600160401b038211610435576105b8601f8301601f1916602001610564565b928284526020838301011161055f5760005b8281106105df57505060206000918301015290565b806020809284010151828287010152016105ca56fe6080604052600436101561001257600080fd5b60003560e01c806301ffc9a7146122c257806306fdde0314612267578063081812fc1461220a578063095ea7b314611fb25780631548ed1914611f6057806323b872dd14611f165780632a55205a14611e235780632b4c9f1614611db45780632f2ff15d14611c2857806331e66e1e14611ba557806342842e0e14611b3357806342966c681461199a57806353f92e31146118b3578063572b6c051461186857806361ba27da1461174c5780636352211e146116d15780636a627842146114df57806370a082311461141557806373c8a9581461126557806375794a3c146112295780638bb9c5bf146110ba5780638da5cb5b146110495780638dc251e314610f1c57806391d1485414610e8457806395d89b4114610e15578063a0c76f6214610da4578063a22cb46514610c79578063b88d4fde14610b7c578063c3666c361461093f578063c87b56dd1461078c578063d539139314610733578063d547741f146105aa578063e1a8bf2c1461056e578063e985e9c5146104ba578063f2fde38b146103c65763f7ba94bd146101a857600080fd5b3461036a5760407ffffffffffffffffffffffffffffffffffffffffffffffffffffffffffffffffc36011261036a5760043567ffffffffffffffff811161036a576101f7903690600401612446565b60243567ffffffffffffffff811161036a57610217903690600401612446565b90917fc9ed16f33ab3a66c84bfd83099ccb2a8845871e2e1c1928f63797152f0fd54cc73ffffffffffffffffffffffffffffffffffffffff80610258612d06565b9254169116908103610399575081810361036f5760005b81811061027857005b610283818387612b87565b3573ffffffffffffffffffffffffffffffffffffffff811680910361036a576102ad828587612b87565b359081471061033857600080809381935af13d15610330573d906102d082612a30565b916102de6040519384612687565b82523d6000602084013e5b156102f7575060010161026f565b80511561030657805190602001fd5b7fd6bda2750000000000000000000000000000000000000000000000000000000060005260046000fd5b6060906102e9565b50477fcf4791810000000000000000000000000000000000000000000000000000000060005260045260245260446000fd5b600080fd5b7f658253360000000000000000000000000000000000000000000000000000000060005260046000fd5b7f2ef4875e0000000000000000000000000000000000000000000000000000000060005260045260246000fd5b3461036a5760207ffffffffffffffffffffffffffffffffffffffffffffffffffffffffffffffffc36011261036a576103fd61238e565b7fc9ed16f33ab3a66c84bfd83099ccb2a8845871e2e1c1928f63797152f0fd54cc90610427612d06565b9073ffffffffffffffffffffffffffffffffffffffff808454169216828103610399575073ffffffffffffffffffffffffffffffffffffffff169182820361046b57005b827fffffffffffffffffffffffff00000000000000000000000000000000000000008254161790557f8be0079c531659141344cd1fd0a4f28419497f9722a3daafe3b4186f6b6457e0600080a3005b3461036a5760407ffffffffffffffffffffffffffffffffffffffffffffffffffffffffffffffffc36011261036a576104f161238e565b73ffffffffffffffffffffffffffffffffffffffff61050e6123b1565b91166000527fddf3ee18ae6d688373c219468f8be446e7ae82215f4779d821c7ea5e8c13c0c360205273ffffffffffffffffffffffffffffffffffffffff60406000209116600052602052602060ff604060002054166040519015158152f35b3461036a5760007ffffffffffffffffffffffffffffffffffffffffffffffffffffffffffffffffc36011261036a576020604051620186a08152f35b3461036a5760407ffffffffffffffffffffffffffffffffffffffffffffffffffffffffffffffffc36011261036a576004356105e46123b1565b6105ec612d06565b9173ffffffffffffffffffffffffffffffffffffffff7fc9ed16f33ab3a66c84bfd83099ccb2a8845871e2e1c1928f63797152f0fd54cc541673ffffffffffffffffffffffffffffffffffffffff841690810361039957507fc8827d3282af6f37b64c3e9e6f3ac9df286ab0bb0fccd6f8661bf19adb368b228160005280602052604060002073ffffffffffffffffffffffffffffffffffffffff841660005260205260ff6040600020541661069e57005b60008281526020918252604080822073ffffffffffffffffffffffffffffffffffffffff9586168084529084529181902080547fffffffffffffffffffffffffffffffffffffffffffffffffffffffffffffff0016905580519384529183015291909216908201527ff6391f5c32d9c69d2a47ea670b442974b53935d1edc7fd64eb21e047a839171b9080606081015b0390a1005b3461036a5760007ffffffffffffffffffffffffffffffffffffffffffffffffffffffffffffffffc36011261036a5760206040517f6d696e74657200000000000000000000000000000000000000000000000000008152f35b3461036a5760207ffffffffffffffffffffffffffffffffffffffffffffffffffffffffffffffffc36011261036a5761087e60006004356107ed817fddf3ee18ae6d688373c219468f8be446e7ae82215f4779d821c7ea5e8c13c0c0612b2c565b5073ffffffffffffffffffffffffffffffffffffffff7f7ea68fd2dcf1c056b94db6a0a537aa80d26fa9ab1eacd85da1ba0b61b7e7a8a6541660405180809581947ff724dad700000000000000000000000000000000000000000000000000000000835230600484016020909392919373ffffffffffffffffffffffffffffffffffffffff60408201951681520152565b03915afa908115610933576000916108ab575b604051602080825281906108a79082018561234b565b0390f35b3d8083833e6108ba8183612687565b81019060208183031261092b5780519067ffffffffffffffff821161092f570181601f8201121561092b578051926108f184612a30565b926108ff6040519485612687565b8484526020858401011161092857506108a7926109229160208085019101612328565b90610891565b80fd5b8280fd5b8380fd5b6040513d6000823e3d90fd5b3461036a5761094d36612477565b9094929390917fc9ed16f33ab3a66c84bfd83099ccb2a8845871e2e1c1928f63797152f0fd54cc73ffffffffffffffffffffffffffffffffffffffff80610992612d06565b92541691169081036103995750808214801590610b72575b61036f5760005b8281106109ba57005b73ffffffffffffffffffffffffffffffffffffffff6109e26109dd83858a612b87565b612bc6565b166040517f01ffc9a70000000000000000000000000000000000000000000000000000000081527f80ac58cd000000000000000000000000000000000000000000000000000000006004820152602081602481855afa90811561093357600091610b44575b5015610b17575073ffffffffffffffffffffffffffffffffffffffff610a716109dd83858a612b87565b1690610a816109dd828689612b87565b91610a8d82878b612b87565b3592813b1561036a57606473ffffffffffffffffffffffffffffffffffffffff916000809460405197889586947f42842e0e00000000000000000000000000000000000000000000000000000000865230600487015216602485015260448401525af191821561093357600192610b06575b50016109b1565b6000610b1191612687565b88610aff565b7f986b9f1f0000000000000000000000000000000000000000000000000000000060005260045260246000fd5b610b65915060203d8111610b6b575b610b5d8183612687565b810190612be7565b89610a47565b503d610b53565b50828214156109aa565b3461036a5760807ffffffffffffffffffffffffffffffffffffffffffffffffffffffffffffffffc36011261036a57610bb361238e565b610bbb6123b1565b6044356064359167ffffffffffffffff831161036a573660238401121561036a5782600401359367ffffffffffffffff851161036a57366024868601011161036a57610c06836126f7565b7fddf3ee18ae6d688373c219468f8be446e7ae82215f4779d821c7ea5e8c13c0c0610c3c848484610c35612d06565b80956127ce565b823b610c4457005b6000602087806024610c58610c779b612a30565b99610c666040519b8c612687565b828b5201838a013787010152612ff7565b005b3461036a5760407ffffffffffffffffffffffffffffffffffffffffffffffffffffffffffffffffc36011261036a57610cb061238e565b6024359081151580920361036a5773ffffffffffffffffffffffffffffffffffffffff80610cdc612d06565b16911691818314610d765760207f17307eab39ab6107e8899845ad3d59bd9653f200f220920489ca2b5937696c3191836000527fddf3ee18ae6d688373c219468f8be446e7ae82215f4779d821c7ea5e8c13c0c38252604060002085600052825260406000207fffffffffffffffffffffffffffffffffffffffffffffffffffffffffffffff0081541660ff8316179055604051908152a3005b507fe4215c6a0000000000000000000000000000000000000000000000000000000060005260045260246000fd5b3461036a5760007ffffffffffffffffffffffffffffffffffffffffffffffffffffffffffffffffc36011261036a57602073ffffffffffffffffffffffffffffffffffffffff7f7ea68fd2dcf1c056b94db6a0a537aa80d26fa9ab1eacd85da1ba0b61b7e7a8a65416604051908152f35b3461036a5760007ffffffffffffffffffffffffffffffffffffffffffffffffffffffffffffffffc36011261036a576108a7610e707f7ea68fd2dcf1c056b94db6a0a537aa80d26fa9ab1eacd85da1ba0b61b7e7a8a5612bff565b60405191829160208352602083019061234b565b3461036a5760407ffffffffffffffffffffffffffffffffffffffffffffffffffffffffffffffffc36011261036a57610ebb6123b1565b7fc8827d3282af6f37b64c3e9e6f3ac9df286ab0bb0fccd6f8661bf19adb368b2260043560005260205273ffffffffffffffffffffffffffffffffffffffff60406000209116600052602052602060ff604060002054166040519015158152f35b3461036a5760207ffffffffffffffffffffffffffffffffffffffffffffffffffffffffffffffffc36011261036a57610f5361238e565b7fc9ed16f33ab3a66c84bfd83099ccb2a8845871e2e1c1928f63797152f0fd54cc73ffffffffffffffffffffffffffffffffffffffff80610f92612d06565b925416911690810361039957507f2c0cf10337caabbd02dcf226f05f5fd19a0919a41a8df8958c39b800078268579073ffffffffffffffffffffffffffffffffffffffff81161561101f5773ffffffffffffffffffffffffffffffffffffffff167fffffffffffffffffffffffff0000000000000000000000000000000000000000825416179055600080f35b7f16de0c800000000000000000000000000000000000000000000000000000000060005260046000fd5b3461036a5760007ffffffffffffffffffffffffffffffffffffffffffffffffffffffffffffffffc36011261036a57602073ffffffffffffffffffffffffffffffffffffffff7fc9ed16f33ab3a66c84bfd83099ccb2a8845871e2e1c1928f63797152f0fd54cc5416604051908152f35b3461036a5760207ffffffffffffffffffffffffffffffffffffffffffffffffffffffffffffffffc36011261036a577fc8827d3282af6f37b64c3e9e6f3ac9df286ab0bb0fccd6f8661bf19adb368b22600435611115612d06565b908060005282602052604060002073ffffffffffffffffffffffffffffffffffffffff831660005260205260ff60406000205416156111e15760008181526020938452604080822073ffffffffffffffffffffffffffffffffffffffff949094168083529385529081902080547fffffffffffffffffffffffffffffffffffffffffffffffffffffffffffffff001690558051918252928101829052918201527ff6391f5c32d9c69d2a47ea670b442974b53935d1edc7fd64eb21e047a839171b90806060810161072e565b73ffffffffffffffffffffffffffffffffffffffff92507f7aa72882000000000000000000000000000000000000000000000000000000006000526004521660245260446000fd5b3461036a5760007ffffffffffffffffffffffffffffffffffffffffffffffffffffffffffffffffc36011261036a576020600054604051908152f35b3461036a5761127336612477565b929392917fc9ed16f33ab3a66c84bfd83099ccb2a8845871e2e1c1928f63797152f0fd54cc73ffffffffffffffffffffffffffffffffffffffff806112b6612d06565b9254169116908103610399575080841480159061140b575b61036f5760005b8481106112de57005b6112e9818388612b87565b3573ffffffffffffffffffffffffffffffffffffffff81169081810361036a57600060209161131c6109dd868b8e612b87565b826113866113b261132e898d8d612b87565b6040517fa9059cbb0000000000000000000000000000000000000000000000000000000089820190815273ffffffffffffffffffffffffffffffffffffffff9096166024820152903560448201529182906064820190565b037fffffffffffffffffffffffffffffffffffffffffffffffffffffffffffffffe08101835282612687565b51925af115610933576000513d6114025750803b155b6113d557506001016112d5565b7f5274afe70000000000000000000000000000000000000000000000000000000060005260045260246000fd5b600114156113c8565b50828414156112ce565b3461036a5760207ffffffffffffffffffffffffffffffffffffffffffffffffffffffffffffffffc36011261036a5761144c61238e565b73ffffffffffffffffffffffffffffffffffffffff8116156114b55773ffffffffffffffffffffffffffffffffffffffff166000527fddf3ee18ae6d688373c219468f8be446e7ae82215f4779d821c7ea5e8c13c0c16020526020604060002054604051908152f35b7faefbce4e0000000000000000000000000000000000000000000000000000000060005260046000fd5b3461036a5760207ffffffffffffffffffffffffffffffffffffffffffffffffffffffffffffffffc36011261036a5761151661238e565b611540337fc8827d3282af6f37b64c3e9e6f3ac9df286ab0bb0fccd6f8661bf19adb368b22612a6a565b600054907fffffffffffffffffffffffffffffffffffffffffffffffffffffffffffffffff82146116a2576001820160005573ffffffffffffffffffffffffffffffffffffffff167fddf3ee18ae6d688373c219468f8be446e7ae82215f4779d821c7ea5e8c13c0c0811561167857826000528060205273ffffffffffffffffffffffffffffffffffffffff6040600020541661164a579160209281600052835281604060002055816000527fddf3ee18ae6d688373c219468f8be446e7ae82215f4779d821c7ea5e8c13c0c18352604060002060018154019055806040519260007fddf252ad1be2c89b69c2b068fc378daa952ba7f163c4a11628f55a4df523b3ef8180a48152f35b827f753eceac0000000000000000000000000000000000000000000000000000000060005260045260246000fd5b7f7851b9cd0000000000000000000000000000000000000000000000000000000060005260046000fd5b7f4e487b7100000000000000000000000000000000000000000000000000000000600052601160045260246000fd5b3461036a5760207ffffffffffffffffffffffffffffffffffffffffffffffffffffffffffffffffc36011261036a57602061172e6004357fddf3ee18ae6d688373c219468f8be446e7ae82215f4779d821c7ea5e8c13c0c0612b2c565b73ffffffffffffffffffffffffffffffffffffffff60405191168152f35b3461036a5760207ffffffffffffffffffffffffffffffffffffffffffffffffffffffffffffffffc36011261036a576004357fc9ed16f33ab3a66c84bfd83099ccb2a8845871e2e1c1928f63797152f0fd54cc73ffffffffffffffffffffffffffffffffffffffff806117bd612d06565b925416911690810361039957507f2c0cf10337caabbd02dcf226f05f5fd19a0919a41a8df8958c39b8000782685790620186a0811161183b57815473ffffffffffffffffffffffffffffffffffffffff1660a09190911b7fffffffffffffffffffffffff000000000000000000000000000000000000000016179055005b7fac0404080000000000000000000000000000000000000000000000000000000060005260045260246000fd5b3461036a5760207ffffffffffffffffffffffffffffffffffffffffffffffffffffffffffffffffc36011261036a5760206118a96118a461238e565b61250a565b6040519015158152f35b3461036a5760207ffffffffffffffffffffffffffffffffffffffffffffffffffffffffffffffffc36011261036a5760043573ffffffffffffffffffffffffffffffffffffffff811680910361036a577fc9ed16f33ab3a66c84bfd83099ccb2a8845871e2e1c1928f63797152f0fd54cc54339073ffffffffffffffffffffffffffffffffffffffff168103610399577f33e85773eda69c91a470cca572dc936a94f4c242cbcbe59f4c9d8b77c16a7dda602083807fffffffffffffffffffffffff00000000000000000000000000000000000000006001541617600155604051908152a1005b3461036a5760207ffffffffffffffffffffffffffffffffffffffffffffffffffffffffffffffffc36011261036a576004356119fe7fc8827d3282af6f37b64c3e9e6f3ac9df286ab0bb0fccd6f8661bf19adb368b226119f8612d06565b90612a6a565b7fddf3ee18ae6d688373c219468f8be446e7ae82215f4779d821c7ea5e8c13c0c0816000528060205273ffffffffffffffffffffffffffffffffffffffff604060002054168015611b05576000918383526020527fdead000000000000000000000000000000000000000000000000000000000000604083205573ffffffffffffffffffffffffffffffffffffffff811682527fddf3ee18ae6d688373c219468f8be446e7ae82215f4779d821c7ea5e8c13c0c1602052604082207fffffffffffffffffffffffffffffffffffffffffffffffffffffffffffffffff81540190557fddf252ad1be2c89b69c2b068fc378daa952ba7f163c4a11628f55a4df523b3ef8280a4005b827fdd5604750000000000000000000000000000000000000000000000000000000060005260045260246000fd5b3461036a57611b41366123d4565b611b4a816126f7565b7fddf3ee18ae6d688373c219468f8be446e7ae82215f4779d821c7ea5e8c13c0c091611b81828286611b7a612d06565b80976127ce565b803b611b8957005b610c779360405193611b9c602086612687565b60008552612ff7565b3461036a5760007ffffffffffffffffffffffffffffffffffffffffffffffffffffffffffffffffc36011261036a576040611bde612eb1565b91907fffffffffffffffffffffffffffffffffffffffffffffffffffffffffffffffe0601f8484519586946020865281602087015286860137600085828601015201168101030190f35b3461036a5760407ffffffffffffffffffffffffffffffffffffffffffffffffffffffffffffffffc36011261036a57600435611c626123b1565b611c6a612d06565b9173ffffffffffffffffffffffffffffffffffffffff7fc9ed16f33ab3a66c84bfd83099ccb2a8845871e2e1c1928f63797152f0fd54cc541673ffffffffffffffffffffffffffffffffffffffff841690810361039957507fc8827d3282af6f37b64c3e9e6f3ac9df286ab0bb0fccd6f8661bf19adb368b228160005280602052604060002073ffffffffffffffffffffffffffffffffffffffff841660005260205260ff6040600020541615611d1d57005b60008281526020918252604080822073ffffffffffffffffffffffffffffffffffffffff9586168084529084529181902080547fffffffffffffffffffffffffffffffffffffffffffffffffffffffffffffff0016600117905580519384529183015291909216908201527f2f8788117e7eff1d82e926ec794901d17c78024a50270940304540a733656f0d90806060810161072e565b3461036a5760007ffffffffffffffffffffffffffffffffffffffffffffffffffffffffffffffffc36011261036a57602060405173ffffffffffffffffffffffffffffffffffffffff7f0000000000000000000000000000000000000000000000000000000000000000168152f35b3461036a5760407ffffffffffffffffffffffffffffffffffffffffffffffffffffffffffffffffc36011261036a5773ffffffffffffffffffffffffffffffffffffffff6024357f2c0cf10337caabbd02dcf226f05f5fd19a0919a41a8df8958c39b8000782685754908160a01c9080158015611f0e575b15611ed85750506108a760005b60405193849316836020909392919373ffffffffffffffffffffffffffffffffffffffff60408201951681520152565b6108a791620186a0821015611efb57611ef590620186a092612a1d565b04611ea8565b620186a0611f099204612a1d565b611ea8565b508115611e9b565b3461036a57610c77611f27366123d4565b91611f31836126f7565b7fddf3ee18ae6d688373c219468f8be446e7ae82215f4779d821c7ea5e8c13c0c0611f5a612d06565b906127ce565b3461036a5760007ffffffffffffffffffffffffffffffffffffffffffffffffffffffffffffffffc36011261036a57602073ffffffffffffffffffffffffffffffffffffffff60015416604051908152f35b3461036a5760407ffffffffffffffffffffffffffffffffffffffffffffffffffffffffffffffffc36011261036a57611fe961238e565b602435907fddf3ee18ae6d688373c219468f8be446e7ae82215f4779d821c7ea5e8c13c0c090612017612d06565b91836000528060205260406000205473ffffffffffffffffffffffffffffffffffffffff81169283156121dc5773ffffffffffffffffffffffffffffffffffffffff16938385146121ae5761206d818585612e31565b156121625750836120d15774010000000000000000000000000000000000000000166120bd575b505b7f8c5be1e5ebec7d5bd14f71427d1e84f3dd0314c0f7b2291e5b200ac8c7c3b925600080a4005b836000526020528060406000205583612094565b9074010000000000000000000000000000000000000000821780920361214e575b5050826000527fddf3ee18ae6d688373c219468f8be446e7ae82215f4779d821c7ea5e8c13c0c26020526040600020827fffffffffffffffffffffffff0000000000000000000000000000000000000000825416179055612096565b8460005260205260406000205583806120f2565b8373ffffffffffffffffffffffffffffffffffffffff87927fc7563a18000000000000000000000000000000000000000000000000000000006000521660045260245260445260646000fd5b837fb7fdc0100000000000000000000000000000000000000000000000000000000060005260045260246000fd5b857fdd5604750000000000000000000000000000000000000000000000000000000060005260045260246000fd5b3461036a5760207ffffffffffffffffffffffffffffffffffffffffffffffffffffffffffffffffc36011261036a57602061172e6004357fddf3ee18ae6d688373c219468f8be446e7ae82215f4779d821c7ea5e8c13c0c0612618565b3461036a5760007ffffffffffffffffffffffffffffffffffffffffffffffffffffffffffffffffc36011261036a576108a7610e707f7ea68fd2dcf1c056b94db6a0a537aa80d26fa9ab1eacd85da1ba0b61b7e7a8a4612bff565b3461036a5760207ffffffffffffffffffffffffffffffffffffffffffffffffffffffffffffffffc36011261036a576004357fffffffff000000000000000000000000000000000000000000000000000000008116810361036a576118a9602091612569565b60005b83811061233b5750506000910152565b818101518382015260200161232b565b907fffffffffffffffffffffffffffffffffffffffffffffffffffffffffffffffe0601f60209361238781518092818752878088019101612328565b0116010190565b6004359073ffffffffffffffffffffffffffffffffffffffff8216820361036a57565b6024359073ffffffffffffffffffffffffffffffffffffffff8216820361036a57565b7ffffffffffffffffffffffffffffffffffffffffffffffffffffffffffffffffc606091011261036a5760043573ffffffffffffffffffffffffffffffffffffffff8116810361036a579060243573ffffffffffffffffffffffffffffffffffffffff8116810361036a579060443590565b9181601f8401121561036a5782359167ffffffffffffffff831161036a576020808501948460051b01011161036a57565b60607ffffffffffffffffffffffffffffffffffffffffffffffffffffffffffffffffc82011261036a5760043567ffffffffffffffff811161036a57816124c091600401612446565b9290929160243567ffffffffffffffff811161036a57816124e391600401612446565b929092916044359067ffffffffffffffff821161036a5761250691600401612446565b9091565b73ffffffffffffffffffffffffffffffffffffffff7f0000000000000000000000000000000000000000000000000000000000000000169081156125625773ffffffffffffffffffffffffffffffffffffffff161490565b5050600090565b7fffffffff00000000000000000000000000000000000000000000000000000000167fffffffff000000000000000000000000000000000000000000000000000000008114612612577f01ffc9a700000000000000000000000000000000000000000000000000000000811461260c576000527fca9d3e17f264b0f3984e2634e94adb37fa3e6a8103f06aeae6fa59e21c769f5d60205260ff6040600020541690565b50600190565b50600090565b816000528060205260406000205473ffffffffffffffffffffffffffffffffffffffff811615611b0557740100000000000000000000000000000000000000001615612562576002916000520160205273ffffffffffffffffffffffffffffffffffffffff6040600020541690565b90601f7fffffffffffffffffffffffffffffffffffffffffffffffffffffffffffffffe0910116810190811067ffffffffffffffff8211176126c857604052565b7f4e487b7100000000000000000000000000000000000000000000000000000000600052604160045260246000fd5b73ffffffffffffffffffffffffffffffffffffffff60015416908161271a575050565b6020602492604051938480927f0ac7843c0000000000000000000000000000000000000000000000000000000082528560048301525afa9182156109335760009261279a575b508161276a575050565b7ff11294ae0000000000000000000000000000000000000000000000000000000060005260045260245260446000fd5b9091506020813d6020116127c6575b816127b660209383612687565b8101031261036a57519038612760565b3d91506127a9565b909273ffffffffffffffffffffffffffffffffffffffff169283156129f357846000528160205260406000205473ffffffffffffffffffffffffffffffffffffffff81169384156129c55773ffffffffffffffffffffffffffffffffffffffff811680950361299357826128429185612e31565b156128d8575b5050836000528060205282604060002055828203612889575b507fddf252ad1be2c89b69c2b068fc378daa952ba7f163c4a11628f55a4df523b3ef600080a4565b600101816000528060205260406000207fffffffffffffffffffffffffffffffffffffffffffffffffffffffffffffffff81540190558260005260205260406000206001815401905538612861565b740100000000000000000000000000000000000000001615801561294d575b6129015780612848565b8273ffffffffffffffffffffffffffffffffffffffff86927fa4a3018b000000000000000000000000000000000000000000000000000000006000521660045260245260445260646000fd5b50846000526002820160205273ffffffffffffffffffffffffffffffffffffffff6040600020541673ffffffffffffffffffffffffffffffffffffffff821614156128f7565b86857f14dbb5360000000000000000000000000000000000000000000000000000000060005260045260245260446000fd5b867fdd5604750000000000000000000000000000000000000000000000000000000060005260045260246000fd5b7f86c870670000000000000000000000000000000000000000000000000000000060005260046000fd5b818102929181159184041417156116a257565b67ffffffffffffffff81116126c857601f017fffffffffffffffffffffffffffffffffffffffffffffffffffffffffffffffe01660200190565b7f6d696e7465720000000000000000000000000000000000000000000000000000600052602052604060002073ffffffffffffffffffffffffffffffffffffffff821660005260205260ff6040600020541615612ac45750565b73ffffffffffffffffffffffffffffffffffffffff907f7aa72882000000000000000000000000000000000000000000000000000000006000527f6d696e74657200000000000000000000000000000000000000000000000000006004521660245260446000fd5b8160005260205273ffffffffffffffffffffffffffffffffffffffff60406000205416908115612b5a575090565b7fdd5604750000000000000000000000000000000000000000000000000000000060005260045260246000fd5b9190811015612b975760051b0190565b7f4e487b7100000000000000000000000000000000000000000000000000000000600052603260045260246000fd5b3573ffffffffffffffffffffffffffffffffffffffff8116810361036a5790565b9081602091031261036a5751801515810361036a5790565b906040519160008154918260011c92600181168015612cfc575b602085108114612ccf57848752869392918115612c8f5750600114612c48575b50612c4692500383612687565b565b90506000929192526020600020906000915b818310612c73575050906020612c469282010138612c39565b6020919350806001915483858901015201910190918492612c5a565b60209350612c469592507fffffffffffffffffffffffffffffffffffffffffffffffffffffffffffffff0091501682840152151560051b82010138612c39565b6024847f4e487b710000000000000000000000000000000000000000000000000000000081526022600452fd5b93607f1693612c19565b73ffffffffffffffffffffffffffffffffffffffff7f0000000000000000000000000000000000000000000000000000000000000000168015612e22573233148015612e27575b612e22577fffffffffffffffffffffffffffffffffffffffffffffffffffffffffffffffec36013560601c90803314908115612d91575b50612d8e57503390565b90565b6040517f019a202800000000000000000000000000000000000000000000000000000000815273ffffffffffffffffffffffffffffffffffffffff841660048201523360248201523060448201529150602090829060649082905afa90811561093357600091612e03575b5038612d84565b612e1c915060203d602011610b6b57610b5d8183612687565b38612dfc565b503390565b5060183610612d4d565b73ffffffffffffffffffffffffffffffffffffffff8083169084161492918315612e5c575b50505090565b600392935073ffffffffffffffffffffffffffffffffffffffff166000520160205273ffffffffffffffffffffffffffffffffffffffff6040600020911660005260205260ff60406000205416388080612e56565b73ffffffffffffffffffffffffffffffffffffffff7f0000000000000000000000000000000000000000000000000000000000000000168015612fe5573233148015612fed575b612fe557803314908115612f44575b50612f13576000903690565b7fffffffffffffffffffffffffffffffffffffffffffffffffffffffffffffffec36019036821161036a5760009190565b6040517f019a20280000000000000000000000000000000000000000000000000000000081527fffffffffffffffffffffffffffffffffffffffffffffffffffffffffffffffec36013560601c60048201523360248201523060448201529150602090829060649082905afa90811561093357600091612fc6575b5038612f07565b612fdf915060203d602011610b6b57610b5d8183612687565b38612fbf565b506000903690565b5060183610612ef8565b73ffffffffffffffffffffffffffffffffffffffff90613069826020949597969716958360405196879586957f150b7a0200000000000000000000000000000000000000000000000000000000875216600486015216602484015287604484015260806064840152608483019061234b565b03816000865af1908115610933576000916130fd575b507fffffffff000000000000000000000000000000000000000000000000000000007f150b7a02000000000000000000000000000000000000000000000000000000009116036130cd575050565b7fc215a7a10000000000000000000000000000000000000000000000000000000060005260045260245260446000fd5b6020813d602011613174575b8161311660209383612687565b810103126131705751907fffffffff000000000000000000000000000000000000000000000000000000008216820361092857507fffffffff0000000000000000000000000000000000000000000000000000000061307f565b5080fd5b3d915061310956fea2646970667358221220052de4561fabf9c2ab3cbd8553c8f3fe556b42d18fae5fffe3e0dd0ae0c1bba464736f6c634300081e00337ea68fd2dcf1c056b94db6a0a537aa80d26fa9ab1eacd85da1ba0b61b7e7a8a47ea68fd2dcf1c056b94db6a0a537aa80d26fa9ab1eacd85da1ba0b61b7e7a8a5",
  "linkReferences": {},
  "deployedLinkReferences": {}
}