{
  "_format": "hh-sol-artifact-1",
  "contractName": "PointsBitmapClaimMock",
  "sourceName": "contracts/mocks/pointsBitmapClaimMock/PointsBitmapClaimMock.sol",
  "abi": [
    {
      "inputs": [
        {
          "internalType": "address",
          "name": "pointsContractAddress",
          "type": "address"
        },
        {
          "internalType": "contract IForwarderRegistry",
          "name": "forwarderRegistry_",
          "type": "address"
        },
        {
          "internalType": "bytes32",
          "name": "depositReasonCode",
          "type": "bytes32"
        }
      ],
      "stateMutability": "nonpayable",
      "type": "constructor"
    },
    {
      "inputs": [
        {
          "internalType": "address",
          "name": "recipient",
          "type": "address"
        },
        {
          "internalType": "uint256",
          "name": "claimBits",
          "type": "uint256"
        },
        {
          "internalType": "uint256",
          "name": "claimedBitmap",
          "type": "uint256"
        }
      ],
      "name": "AlreadyClaimed",
      "type": "error"
    },
    {
      "inputs": [
        {
          "internalType": "uint256",
          "name": "bitPosition",
          "type": "uint256"
        },
        {
          "internalType": "uint256",
          "name": "maxBitCount",
          "type": "uint256"
        }
      ],
      "name": "BitPositionTooBig",
      "type": "error"
    },
    {
      "inputs": [],
      "name": "IllegalInterfaceId",
      "type": "error"
    },
    {
      "inputs": [
        {
          "internalType": "uint256",
          "name": "claimBits",
          "type": "uint256"
        }
      ],
      "name": "InvalidClaimBits",
      "type": "error"
    },
    {
      "inputs": [],
      "name": "InvalidForwarderRegistry",
      "type": "error"
    },
    {
      "inputs": [],
      "name": "InvalidPointsContractAddress",
      "type": "error"
    },
    {
      "inputs": [],
      "name": "InvalidSignature",
      "type": "error"
    },
    {
      "inputs": [
        {
          "internalType": "address",
          "name": "account",
          "type": "address"
        }
      ],
      "name": "NotContractOwner",
      "type": "error"
    },
    {
      "anonymous": false,
      "inputs": [
        {
          "indexed": false,
          "internalType": "uint256",
          "name": "bitPosition",
          "type": "uint256"
        },
        {
          "indexed": false,
          "internalType": "uint256",
          "name": "value",
          "type": "uint256"
        }
      ],
      "name": "BitValueSet",
      "type": "event"
    },
    {
      "anonymous": false,
      "inputs": [
        {
          "indexed": false,
          "internalType": "address",
          "name": "recipient",
          "type": "address"
        },
        {
          "indexed": false,
          "internalType": "uint256",
          "name": "oldBitmap",
          "type": "uint256"
        },
        {
          "indexed": false,
          "internalType": "uint256",
          "name": "newBitmap",
          "type": "uint256"
        }
      ],
      "name": "BitmapUpdated",
      "type": "event"
    },
    {
      "anonymous": false,
      "inputs": [
        {
          "indexed": false,
          "internalType": "address",
          "name": "recipient",
          "type": "address"
        },
        {
          "indexed": false,
          "internalType": "uint256",
          "name": "claimBits",
          "type": "uint256"
        }
      ],
      "name": "Claimed",
      "type": "event"
    },
    {
      "anonymous": false,
      "inputs": [
        {
          "indexed": true,
          "internalType": "address",
          "name": "previousOwner",
          "type": "address"
        },
        {
          "indexed": true,
          "internalType": "address",
          "name": "newOwner",
          "type": "address"
        }
      ],
      "name": "OwnershipTransferred",
      "type": "event"
    },
    {
      "inputs": [],
      "name": "DEPOSIT_REASON_CODE",
      "outputs": [
        {
          "internalType": "bytes32",
          "name": "",
          "type": "bytes32"
        }
      ],
      "stateMutability": "view",
      "type": "function"
    },
    {
      "inputs": [],
      "name": "POINTS",
      "outputs": [
        {
          "internalType": "contract IPoints",
          "name": "",
          "type": "address"
        }
      ],
      "stateMutability": "view",
      "type": "function"
    },
    {
      "inputs": [
        {
          "internalType": "address",
          "name": "recipient",
          "type": "address"
        },
        {
          "internalType": "uint256",
          "name": "amount",
          "type": "uint256"
        }
      ],
      "name": "__deliver",
      "outputs": [],
      "stateMutability": "nonpayable",
      "type": "function"
    },
    {
      "inputs": [],
      "name": "__msgData",
      "outputs": [
        {
          "internalType": "bytes",
          "name": "",
          "type": "bytes"
        }
      ],
      "stateMutability": "view",
      "type": "function"
    },
    {
      "inputs": [],
      "name": "__msgSender",
      "outputs": [
        {
          "internalType": "address",
          "name": "",
          "type": "address"
        }
      ],
      "stateMutability": "view",
      "type": "function"
    },
    {
      "inputs": [
        {
          "internalType": "address",
          "name": "recipient",
          "type": "address"
        },
        {
          "internalType": "uint256",
          "name": "claimBits",
          "type": "uint256"
        },
        {
          "internalType": "bytes",
          "name": "validationData",
          "type": "bytes"
        }
      ],
      "name": "__validateClaim",
      "outputs": [],
      "stateMutability": "view",
      "type": "function"
    },
    {
      "inputs": [
        {
          "internalType": "uint256",
          "name": "bitPosition",
          "type": "uint256"
        }
      ],
      "name": "bitPositionValueMap",
      "outputs": [
        {
          "internalType": "uint256",
          "name": "value",
          "type": "uint256"
        }
      ],
      "stateMutability": "view",
      "type": "function"
    },
    {
      "inputs": [
        {
          "internalType": "address",
          "name": "recipient",
          "type": "address"
        },
        {
          "internalType": "uint256",
          "name": "claimBits",
          "type": "uint256"
        },
        {
          "internalType": "bytes",
          "name": "validationData",
          "type": "bytes"
        }
      ],
      "name": "claim",
      "outputs": [],
      "stateMutability": "nonpayable",
      "type": "function"
    },
    {
      "inputs": [
        {
          "internalType": "address",
          "name": "recipient",
          "type": "address"
        }
      ],
      "name": "claimed",
      "outputs": [
        {
          "internalType": "uint256",
          "name": "bitmap",
          "type": "uint256"
        }
      ],
      "stateMutability": "view",
      "type": "function"
    },
    {
      "inputs": [],
      "name": "forwarderRegistry",
      "outputs": [
        {
          "internalType": "contract IForwarderRegistry",
          "name": "",
          "type": "address"
        }
      ],
      "stateMutability": "view",
      "type": "function"
    },
    {
      "inputs": [
        {
          "internalType": "address",
          "name": "forwarder",
          "type": "address"
        }
      ],
      "name": "isTrustedForwarder",
      "outputs": [
        {
          "internalType": "bool",
          "name": "",
          "type": "bool"
        }
      ],
      "stateMutability": "view",
      "type": "function"
    },
    {
      "inputs": [],
      "name": "maxBitCount",
      "outputs": [
        {
          "internalType": "uint256",
          "name": "",
          "type": "uint256"
        }
      ],
      "stateMutability": "view",
      "type": "function"
    },
    {
      "inputs": [],
      "name": "owner",
      "outputs": [
        {
          "internalType": "address",
          "name": "",
          "type": "address"
        }
      ],
      "stateMutability": "view",
      "type": "function"
    },
    {
      "inputs": [
        {
          "internalType": "uint256",
          "name": "bitPosition",
          "type": "uint256"
        },
        {
          "internalType": "uint256",
          "name": "value",
          "type": "uint256"
        }
      ],
      "name": "setBitValue",
      "outputs": [],
      "stateMutability": "nonpayable",
      "type": "function"
    },
    {
      "inputs": [
        {
          "internalType": "bytes4",
          "name": "interfaceId",
          "type": "bytes4"
        }
      ],
      "name": "supportsInterface",
      "outputs": [
        {
          "internalType": "bool",
          "name": "",
          "type": "bool"
        }
      ],
      "stateMutability": "view",
      "type": "function"
    },
    {
      "inputs": [
        {
          "internalType": "address",
          "name": "newOwner",
          "type": "address"
        }
      ],
      "name": "transferOwnership",
      "outputs": [],
      "stateMutability": "nonpayable",
      "type": "function"
    }
  ],
  "bytecode": "0x6101a06040523480156200001257600080fd5b50604051620019d9380380620019d98339810160408190526200003591620002fd565b828282818060405180604001604052806011815260200170506f696e74734269746d6170436c61696d60781b815250604051806040016040528060038152602001620312e360ec1b815250336200009d8162000096620001a660201b60201c565b90620001dc565b50815160208084019190912082518383012060e08290526101008190524660a0818152604080517f8b73c3c69bb8fe3d512ecc4cf759cc79239f7b179b0ffacaa9a75d522b39400f81880181905281830187905260608201869052608082019490945230818401528151808203909301835260c00190528051940193909320919290916080523060c05261012052505050506001600160a01b0390811661014052841690506200016057604051630d082d6160e21b815260040160405180910390fd5b6001600160a01b0382166200018857604051633545ba1f60e21b815260040160405180910390fd5b6001600160a01b039092166101605250610180525062000367915050565b600080620001d660017fc9ed16f33ab3a66c84bfd83099ccb2a8845871e2e1c1928f63797152f0fd54cd62000345565b92915050565b6001600160a01b03811615620002335781546001600160a01b0319166001600160a01b03821690811783556040516000907f8be0079c531659141344cd1fd0a4f28419497f9722a3daafe3b4186f6b6457e0908290a35b620002536307f5828d60e41b60016200024b62000257565b919062000287565b5050565b600080620001d660017fca9d3e17f264b0f3984e2634e94adb37fa3e6a8103f06aeae6fa59e21c769f5e62000345565b600160e01b6001600160e01b0319831601620002b6576040516372c683bb60e01b815260040160405180910390fd5b6001600160e01b03199190911660009081526020929092526040909120805460ff1916911515919091179055565b6001600160a01b0381168114620002fa57600080fd5b50565b6000806000606084860312156200031357600080fd5b83516200032081620002e4565b60208501519093506200033381620002e4565b80925050604084015190509250925092565b81810381811115620001d657634e487b7160e01b600052601160045260246000fd5b60805160a05160c05160e05161010051610120516101405161016051610180516115d0620004096000396000818161016001526108420152600081816102620152610868015260008181610184015281816101ef01528181610b0f01528181610b4d01528181610c850152610d0d01526000611089015260006110d8015260006110b30152600061100c015260006110360152600061106001526115d06000f3fe608060405234801561001057600080fd5b50600436106101005760003560e01c8063701af92f116100975780638f0bc152116100665780638f0bc1521461029f578063c884ef83146102b2578063d1a91ff2146102d2578063f2fde38b146102da57600080fd5b8063701af92f1461024a5780637f6e42811461025d57806388a3cf96146102845780638da5cb5b1461029757600080fd5b806331e66e1e116100d357806331e66e1e146101c9578063572b6c05146101df5780635d35b7db1461022c5780636844b0191461024157600080fd5b806301ffc9a71461010557806312a53fdd1461012d5780632196e4451461015b5780632b4c9f1614610182575b600080fd5b61011861011336600461125a565b6102ed565b60405190151581526020015b60405180910390f35b61014d61013b36600461129c565b60026020526000908152604090205481565b604051908152602001610124565b61014d7f000000000000000000000000000000000000000000000000000000000000000081565b7f00000000000000000000000000000000000000000000000000000000000000005b60405173ffffffffffffffffffffffffffffffffffffffff9091168152602001610124565b6101d1610307565b6040516101249291906112b5565b6101186101ed36600461132b565b7f000000000000000000000000000000000000000000000000000000000000000073ffffffffffffffffffffffffffffffffffffffff90811691161490565b61023f61023a366004611346565b61031a565b005b61014d60005481565b61023f610258366004611368565b6103dd565b6101a47f000000000000000000000000000000000000000000000000000000000000000081565b61023f610292366004611392565b6103eb565b6101a46103fd565b61023f6102ad366004611392565b610429565b61014d6102c036600461132b565b60016020526000908152604090205481565b6101a4610618565b61023f6102e836600461132b565b610622565b6000610301826102fb610640565b9061066e565b92915050565b366000610312610748565b915091509091565b610333610325610753565b61032d61075d565b9061078b565b6000548083111561037f576040517fb09381a500000000000000000000000000000000000000000000000000000000815260048101849052602481018290526044015b60405180910390fd5b60008381526002602090815260409182902084905581518581529081018490527f8e17f10a809a83084393f091eeb493166c6d7d75f0227161b2dfe9f3867a431e910160405180910390a16103d5816001611448565b600055505050565b6103e782826107f6565b5050565b6103f7848484846108c8565b50505050565b600061042461040a61075d565b5473ffffffffffffffffffffffffffffffffffffffff1690565b905090565b82158061043a57506000805484901c115b15610474576040517fb93313e400000000000000000000000000000000000000000000000000000000815260048101849052602401610376565b73ffffffffffffffffffffffffffffffffffffffff8416600090815260016020526040902054838116156104fa576040517f6508823200000000000000000000000000000000000000000000000000000000815273ffffffffffffffffffffffffffffffffffffffff861660048201526024810185905260448101829052606401610376565b610506858585856108c8565b73ffffffffffffffffffffffffffffffffffffffff8516600081815260016020908152604091829020878517908190558251938452908301849052908201819052907fc0a92336b374372b273b5a8bc5818221d63d279d94bd12f4843377350e777f6e9060600160405180910390a16040805173ffffffffffffffffffffffffffffffffffffffff88168152602081018790527fd8138f8a3f377c5259ca548e70e4c2de94f129f5a11036a15b69513cba2b426a910160405180910390a160008054815b818110156106035760018816156105f7576000818152600260205260409020546105f49084611448565b92505b600197881c97016105ca565b5061060e88836107f6565b5050505050505050565b6000610424610753565b61063d61062d610753565b8261063661075d565b91906109c4565b50565b60008061030160017fca9d3e17f264b0f3984e2634e94adb37fa3e6a8103f06aeae6fa59e21c769f5e61145b565b60007c01000000000000000000000000000000000000000000000000000000007fffffffff000000000000000000000000000000000000000000000000000000008316016106be57506000610301565b7ffe003659000000000000000000000000000000000000000000000000000000007fffffffff0000000000000000000000000000000000000000000000000000000083160161070f57506001610301565b507fffffffff00000000000000000000000000000000000000000000000000000000166000908152602091909152604090205460ff1690565b366000610312610ad8565b6000610424610c42565b60008061030160017fc9ed16f33ab3a66c84bfd83099ccb2a8845871e2e1c1928f63797152f0fd54cd61145b565b815473ffffffffffffffffffffffffffffffffffffffff8281169116146103e7576040517f2ef4875e00000000000000000000000000000000000000000000000000000000815273ffffffffffffffffffffffffffffffffffffffff82166004820152602401610376565b6040517f26b3293f00000000000000000000000000000000000000000000000000000000815273ffffffffffffffffffffffffffffffffffffffff8381166004830152602482018390527f000000000000000000000000000000000000000000000000000000000000000060448301527f000000000000000000000000000000000000000000000000000000000000000016906326b3293f90606401600060405180830381600087803b1580156108ac57600080fd5b505af11580156108c0573d6000803e3d6000fd5b505050505050565b604080517f8d7d84f2b8bdb26fd0fef6ec4402a7ac1adf4e2bf9ec7236c54ac6268cfef0b9602082015273ffffffffffffffffffffffffffffffffffffffff8616918101919091526060810184905260009061093c9060800160405160208183030381529060405280519060200120610d89565b9050600061098b61094e61040a61075d565b8386868080601f016020809104026020016040519081016040528093929190818152602001838380828437600092019190915250610df292505050565b9050806108c0576040517f8baa579f00000000000000000000000000000000000000000000000000000000815260040160405180910390fd5b825473ffffffffffffffffffffffffffffffffffffffff9081169083168114610a31576040517f2ef4875e00000000000000000000000000000000000000000000000000000000815273ffffffffffffffffffffffffffffffffffffffff84166004820152602401610376565b8173ffffffffffffffffffffffffffffffffffffffff168173ffffffffffffffffffffffffffffffffffffffff16146103f75783547fffffffffffffffffffffffff00000000000000000000000000000000000000001673ffffffffffffffffffffffffffffffffffffffff8381169182178655604051908316907f8be0079c531659141344cd1fd0a4f28419497f9722a3daafe3b4186f6b6457e090600090a350505050565b36600033321480610ae95750601836105b15610af75750600091369150565b3373ffffffffffffffffffffffffffffffffffffffff7f0000000000000000000000000000000000000000000000000000000000000000161480610c2c575073ffffffffffffffffffffffffffffffffffffffff7f000000000000000000000000000000000000000000000000000000000000000016638929a8ca367fffffffffffffffffffffffffffffffffffffffffffffffffffffffffffffffec013560601c6040517fffffffff0000000000000000000000000000000000000000000000000000000060e084901b16815273ffffffffffffffffffffffffffffffffffffffff9091166004820152336024820152604401602060405180830381865afa158015610c08573d6000803e3d6000fd5b505050506040513d601f19601f82011682018060405250810190610c2c919061146e565b15610c3957610312610fc1565b50600091369150565b600033321480610c525750601836105b15610c5c57503390565b7fffffffffffffffffffffffffffffffffffffffffffffffffffffffffffffffec36013560601c7f000000000000000000000000000000000000000000000000000000000000000073ffffffffffffffffffffffffffffffffffffffff16331480610d7857506040517f8929a8ca00000000000000000000000000000000000000000000000000000000815273ffffffffffffffffffffffffffffffffffffffff82811660048301523360248301527f00000000000000000000000000000000000000000000000000000000000000001690638929a8ca90604401602060405180830381865afa158015610d54573d6000803e3d6000fd5b505050506040513d601f19601f82011682018060405250810190610d78919061146e565b15610d8257919050565b3391505090565b6000610301610d96610ff2565b836040517f19010000000000000000000000000000000000000000000000000000000000006020820152602281018390526042810182905260009060620160405160208183030381529060405280519060200120905092915050565b6000806000610e018585611126565b90925090506000816004811115610e1a57610e1a611490565b148015610e5257508573ffffffffffffffffffffffffffffffffffffffff168273ffffffffffffffffffffffffffffffffffffffff16145b15610e6257600192505050610fba565b6000808773ffffffffffffffffffffffffffffffffffffffff16631626ba7e60e01b8888604051602401610e979291906114e3565b604080517fffffffffffffffffffffffffffffffffffffffffffffffffffffffffffffffe08184030181529181526020820180517bffffffffffffffffffffffffffffffffffffffffffffffffffffffff167fffffffff00000000000000000000000000000000000000000000000000000000909416939093179092529051610f20919061153b565b600060405180830381855afa9150503d8060008114610f5b576040519150601f19603f3d011682016040523d82523d6000602084013e610f60565b606091505b5091509150818015610f73575080516020145b8015610fb3575080517f1626ba7e0000000000000000000000000000000000000000000000000000000090610fb19083016020908101908401611557565b145b9450505050505b9392505050565b3660006103127fffffffffffffffffffffffffffffffffffffffffffffffffffffffffffffffec8301828481611570565b60003073ffffffffffffffffffffffffffffffffffffffff7f00000000000000000000000000000000000000000000000000000000000000001614801561105857507f000000000000000000000000000000000000000000000000000000000000000046145b1561108257507f000000000000000000000000000000000000000000000000000000000000000090565b50604080517f00000000000000000000000000000000000000000000000000000000000000006020808301919091527f0000000000000000000000000000000000000000000000000000000000000000828401527f000000000000000000000000000000000000000000000000000000000000000060608301524660808301523060a0808401919091528351808403909101815260c0909201909252805191012090565b600080825160410361115c5760208301516040840151606085015160001a6111508782858561116b565b94509450505050611164565b506000905060025b9250929050565b6000807f7fffffffffffffffffffffffffffffff5d576e7357a4501ddfe92f46681b20a08311156111a25750600090506003611251565b6040805160008082526020820180845289905260ff881692820192909252606081018690526080810185905260019060a0016020604051602081039080840390855afa1580156111f6573d6000803e3d6000fd5b50506040517fffffffffffffffffffffffffffffffffffffffffffffffffffffffffffffffe0015191505073ffffffffffffffffffffffffffffffffffffffff811661124a57600060019250925050611251565b9150600090505b94509492505050565b60006020828403121561126c57600080fd5b81357fffffffff0000000000000000000000000000000000000000000000000000000081168114610fba57600080fd5b6000602082840312156112ae57600080fd5b5035919050565b60208152816020820152818360408301376000818301604090810191909152601f9092017fffffffffffffffffffffffffffffffffffffffffffffffffffffffffffffffe0160101919050565b803573ffffffffffffffffffffffffffffffffffffffff8116811461132657600080fd5b919050565b60006020828403121561133d57600080fd5b610fba82611302565b6000806040838503121561135957600080fd5b50508035926020909101359150565b6000806040838503121561137b57600080fd5b61138483611302565b946020939093013593505050565b600080600080606085870312156113a857600080fd5b6113b185611302565b935060208501359250604085013567ffffffffffffffff808211156113d557600080fd5b818701915087601f8301126113e957600080fd5b8135818111156113f857600080fd5b88602082850101111561140a57600080fd5b95989497505060200194505050565b7f4e487b7100000000000000000000000000000000000000000000000000000000600052601160045260246000fd5b8082018082111561030157610301611419565b8181038181111561030157610301611419565b60006020828403121561148057600080fd5b81518015158114610fba57600080fd5b7f4e487b7100000000000000000000000000000000000000000000000000000000600052602160045260246000fd5b60005b838110156114da5781810151838201526020016114c2565b50506000910152565b82815260406020820152600082518060408401526115088160608501602087016114bf565b601f017fffffffffffffffffffffffffffffffffffffffffffffffffffffffffffffffe016919091016060019392505050565b6000825161154d8184602087016114bf565b9190910192915050565b60006020828403121561156957600080fd5b5051919050565b6000808585111561158057600080fd5b8386111561158d57600080fd5b505082019391909203915056fea26469706673582212207ab227394cfe84f3a98b3aaed4b5e094c82a64b15bcba02fdbc8a94899a365ba64736f6c63430008160033",
  "linkReferences": {},
  "deployedLinkReferences": {}
}