{
  "_format": "hh-sol-artifact-1",
  "contractName": "PointsBitmapClaimMock",
  "sourceName": "contracts/mocks/pointsBitmapClaimMock/PointsBitmapClaimMock.sol",
  "abi": [
    {
      "inputs": [
        {
          "internalType": "address",
          "name": "pointsContractAddress",
          "type": "address"
        },
        {
          "internalType": "contract IForwarderRegistry",
          "name": "forwarderRegistry_",
          "type": "address"
        },
        {
          "internalType": "bytes32",
          "name": "depositReasonCode",
          "type": "bytes32"
        }
      ],
      "stateMutability": "nonpayable",
      "type": "constructor"
    },
    {
      "inputs": [
        {
          "internalType": "address",
          "name": "recipient",
          "type": "address"
        },
        {
          "internalType": "uint256",
          "name": "amount",
          "type": "uint256"
        },
        {
          "internalType": "uint256",
          "name": "claimBits",
          "type": "uint256"
        }
      ],
      "name": "AlreadyClaimed",
      "type": "error"
    },
    {
      "inputs": [],
      "name": "IllegalInterfaceId",
      "type": "error"
    },
    {
      "inputs": [
        {
          "internalType": "uint256",
          "name": "amount",
          "type": "uint256"
        }
      ],
      "name": "InvalidClaimAmount",
      "type": "error"
    },
    {
      "inputs": [
        {
          "internalType": "uint256",
          "name": "claimBits",
          "type": "uint256"
        }
      ],
      "name": "InvalidClaimBits",
      "type": "error"
    },
    {
      "inputs": [],
      "name": "InvalidForwarderRegistry",
      "type": "error"
    },
    {
      "inputs": [],
      "name": "InvalidPointsContractAddress",
      "type": "error"
    },
    {
      "inputs": [],
      "name": "InvalidSignature",
      "type": "error"
    },
    {
      "inputs": [
        {
          "internalType": "address",
          "name": "account",
          "type": "address"
        }
      ],
      "name": "NotContractOwner",
      "type": "error"
    },
    {
      "anonymous": false,
      "inputs": [
        {
          "indexed": false,
          "internalType": "address",
          "name": "recipient",
          "type": "address"
        },
        {
          "indexed": false,
          "internalType": "uint256",
          "name": "amount",
          "type": "uint256"
        },
        {
          "indexed": false,
          "internalType": "uint256",
          "name": "claimBits",
          "type": "uint256"
        }
      ],
      "name": "Claimed",
      "type": "event"
    },
    {
      "anonymous": false,
      "inputs": [
        {
          "indexed": true,
          "internalType": "address",
          "name": "previousOwner",
          "type": "address"
        },
        {
          "indexed": true,
          "internalType": "address",
          "name": "newOwner",
          "type": "address"
        }
      ],
      "name": "OwnershipTransferred",
      "type": "event"
    },
    {
      "inputs": [],
      "name": "DEPOSIT_REASON_CODE",
      "outputs": [
        {
          "internalType": "bytes32",
          "name": "",
          "type": "bytes32"
        }
      ],
      "stateMutability": "view",
      "type": "function"
    },
    {
      "inputs": [],
      "name": "POINTS",
      "outputs": [
        {
          "internalType": "contract IPoints",
          "name": "",
          "type": "address"
        }
      ],
      "stateMutability": "view",
      "type": "function"
    },
    {
      "inputs": [],
      "name": "__msgData",
      "outputs": [
        {
          "internalType": "bytes",
          "name": "",
          "type": "bytes"
        }
      ],
      "stateMutability": "view",
      "type": "function"
    },
    {
      "inputs": [],
      "name": "__msgSender",
      "outputs": [
        {
          "internalType": "address",
          "name": "",
          "type": "address"
        }
      ],
      "stateMutability": "view",
      "type": "function"
    },
    {
      "inputs": [
        {
          "internalType": "address",
          "name": "recipient",
          "type": "address"
        },
        {
          "internalType": "uint256",
          "name": "amount",
          "type": "uint256"
        },
        {
          "internalType": "uint256",
          "name": "claimBits",
          "type": "uint256"
        },
        {
          "internalType": "bytes",
          "name": "signature",
          "type": "bytes"
        }
      ],
      "name": "claim",
      "outputs": [],
      "stateMutability": "nonpayable",
      "type": "function"
    },
    {
      "inputs": [
        {
          "internalType": "address",
          "name": "recipient",
          "type": "address"
        }
      ],
      "name": "claimed",
      "outputs": [
        {
          "internalType": "uint256",
          "name": "claimedBitmap",
          "type": "uint256"
        }
      ],
      "stateMutability": "view",
      "type": "function"
    },
    {
      "inputs": [],
      "name": "forwarderRegistry",
      "outputs": [
        {
          "internalType": "contract IForwarderRegistry",
          "name": "",
          "type": "address"
        }
      ],
      "stateMutability": "view",
      "type": "function"
    },
    {
      "inputs": [
        {
          "internalType": "address",
          "name": "forwarder",
          "type": "address"
        }
      ],
      "name": "isTrustedForwarder",
      "outputs": [
        {
          "internalType": "bool",
          "name": "",
          "type": "bool"
        }
      ],
      "stateMutability": "view",
      "type": "function"
    },
    {
      "inputs": [],
      "name": "owner",
      "outputs": [
        {
          "internalType": "address",
          "name": "",
          "type": "address"
        }
      ],
      "stateMutability": "view",
      "type": "function"
    },
    {
      "inputs": [
        {
          "internalType": "bytes4",
          "name": "interfaceId",
          "type": "bytes4"
        }
      ],
      "name": "supportsInterface",
      "outputs": [
        {
          "internalType": "bool",
          "name": "",
          "type": "bool"
        }
      ],
      "stateMutability": "view",
      "type": "function"
    },
    {
      "inputs": [
        {
          "internalType": "address",
          "name": "newOwner",
          "type": "address"
        }
      ],
      "name": "transferOwnership",
      "outputs": [],
      "stateMutability": "nonpayable",
      "type": "function"
    }
  ],
  "bytecode": "0x6101a06040523480156200001257600080fd5b506040516200176b3803806200176b833981016040819052620000359162000323565b6040805180820182526011815270506f696e74734269746d6170436c61696d60781b6020808301918252835180850190945260038452620312e360ec1b908401528151902060e08190527fe6bbd6277e1bf288eed5e8d1780f9a50b239e86b153736bceebccf4ea79d90b36101008190524660a0528693869386933393869384939290917f8b73c3c69bb8fe3d512ecc4cf759cc79239f7b179b0ffacaa9a75d522b39400f6200012a8184846040805160208101859052908101839052606081018290524660808201523060a082015260009060c0016040516020818303038152906040528051906020012090509392505050565b6080523060c05261012052505050506001600160a01b031661014052506200015d8162000156620001cc565b9062000202565b506001600160a01b0383166200018657604051630d082d6160e21b815260040160405180910390fd5b6001600160a01b038216620001ae57604051633545ba1f60e21b815260040160405180910390fd5b6001600160a01b03909216610160525061018052506200038d915050565b600080620001fc60017fc9ed16f33ab3a66c84bfd83099ccb2a8845871e2e1c1928f63797152f0fd54cd6200036b565b92915050565b6001600160a01b03811615620002595781546001600160a01b0319166001600160a01b03821690811783556040516000907f8be0079c531659141344cd1fd0a4f28419497f9722a3daafe3b4186f6b6457e0908290a35b620002796307f5828d60e41b6001620002716200027d565b9190620002ad565b5050565b600080620001fc60017fca9d3e17f264b0f3984e2634e94adb37fa3e6a8103f06aeae6fa59e21c769f5e6200036b565b600160e01b6001600160e01b0319831601620002dc576040516372c683bb60e01b815260040160405180910390fd5b6001600160e01b03199190911660009081526020929092526040909120805460ff1916911515919091179055565b6001600160a01b03811681146200032057600080fd5b50565b6000806000606084860312156200033957600080fd5b835162000346816200030a565b602085015190935062000359816200030a565b80925050604084015190509250925092565b81810381811115620001fc57634e487b7160e01b600052601160045260246000fd5b60805160a05160c05160e051610100516101205161014051610160516101805161133d6200042e6000396000818160fb01526106da0152600081816101ef0152610700015260008181610142015281816101ad01528181610b2701528181610b6501528181610c9d0152610d2501526000610e3801526000610e8701526000610e6201526000610dbb01526000610de501526000610e0f015261133d6000f3fe608060405234801561001057600080fd5b50600436106100c95760003560e01c8063572b6c0511610081578063c884ef831161005b578063c884ef8314610219578063d1a91ff214610239578063f2fde38b1461024157600080fd5b8063572b6c051461019d5780637f6e4281146101ea5780638da5cb5b1461021157600080fd5b80632ada8a32116100b25780632ada8a321461012b5780632b4c9f161461014057806331e66e1e1461018757600080fd5b806301ffc9a7146100ce5780632196e445146100f6575b600080fd5b6100e16100dc36600461103a565b610254565b60405190151581526020015b60405180910390f35b61011d7f000000000000000000000000000000000000000000000000000000000000000081565b6040519081526020016100ed565b61013e6101393660046110a5565b61026e565b005b7f00000000000000000000000000000000000000000000000000000000000000005b60405173ffffffffffffffffffffffffffffffffffffffff90911681526020016100ed565b61018f610413565b6040516100ed929190611139565b6100e16101ab366004611186565b7f000000000000000000000000000000000000000000000000000000000000000073ffffffffffffffffffffffffffffffffffffffff90811691161490565b6101627f000000000000000000000000000000000000000000000000000000000000000081565b610162610426565b61011d610227366004611186565b60006020819052908152604090205481565b610162610452565b61013e61024f366004611186565b61045c565b60006102688261026261047a565b906104a8565b92915050565b836000036102b0576040517f27ab1ee2000000000000000000000000000000000000000000000000000000008152600481018590526024015b60405180910390fd5b826000036102ed576040517fb93313e4000000000000000000000000000000000000000000000000000000008152600481018490526024016102a7565b73ffffffffffffffffffffffffffffffffffffffff851660009081526020819052604090205483811615610373576040517f6508823200000000000000000000000000000000000000000000000000000000815273ffffffffffffffffffffffffffffffffffffffff8716600482015260248101869052604481018590526064016102a7565b6103808686868686610582565b73ffffffffffffffffffffffffffffffffffffffff8616600090815260208190526040902081851790556103b4868661068e565b6040805173ffffffffffffffffffffffffffffffffffffffff88168152602081018790529081018590527f987d620f307ff6b94d58743cb7a7509f24071586a77759b77c2d4e29f75a2f9a9060600160405180910390a1505050505050565b36600061041e610760565b915091509091565b600061044d61043361076b565b5473ffffffffffffffffffffffffffffffffffffffff1690565b905090565b600061044d610799565b610477610467610799565b8261047061076b565b91906107a3565b50565b60008061026860017fca9d3e17f264b0f3984e2634e94adb37fa3e6a8103f06aeae6fa59e21c769f5e6111a1565b60007c01000000000000000000000000000000000000000000000000000000007fffffffff000000000000000000000000000000000000000000000000000000008316016104f857506000610268565b7ffe003659000000000000000000000000000000000000000000000000000000007fffffffff0000000000000000000000000000000000000000000000000000000083160161054957506001610268565b507fffffffff00000000000000000000000000000000000000000000000000000000166000908152602091909152604090205460ff1690565b604080517fbae968306a0463058829cfbdfb428e0f7e3a531787e6c4101988c8ff0430da4d602082015273ffffffffffffffffffffffffffffffffffffffff87169181019190915260608101859052608081018490526000906105fd9060a001604051602081830303815290604052805190602001206108b8565b9050600061064c61060f61043361076b565b8386868080601f01602080910402602001604051908101604052809392919081815260200183838082843760009201919091525061092192505050565b905080610685576040517f8baa579f00000000000000000000000000000000000000000000000000000000815260040160405180910390fd5b50505050505050565b6040517f26b3293f00000000000000000000000000000000000000000000000000000000815273ffffffffffffffffffffffffffffffffffffffff8381166004830152602482018390527f000000000000000000000000000000000000000000000000000000000000000060448301527f000000000000000000000000000000000000000000000000000000000000000016906326b3293f90606401600060405180830381600087803b15801561074457600080fd5b505af1158015610758573d6000803e3d6000fd5b505050505050565b36600061041e610af0565b60008061026860017fc9ed16f33ab3a66c84bfd83099ccb2a8845871e2e1c1928f63797152f0fd54cd6111a1565b600061044d610c5a565b825473ffffffffffffffffffffffffffffffffffffffff9081169083168114610810576040517f2ef4875e00000000000000000000000000000000000000000000000000000000815273ffffffffffffffffffffffffffffffffffffffff841660048201526024016102a7565b8173ffffffffffffffffffffffffffffffffffffffff168173ffffffffffffffffffffffffffffffffffffffff16146108b25783547fffffffffffffffffffffffff00000000000000000000000000000000000000001673ffffffffffffffffffffffffffffffffffffffff8381169182178655604051908316907f8be0079c531659141344cd1fd0a4f28419497f9722a3daafe3b4186f6b6457e090600090a35b50505050565b60006102686108c5610da1565b836040517f19010000000000000000000000000000000000000000000000000000000000006020820152602281018390526042810182905260009060620160405160208183030381529060405280519060200120905092915050565b60008060006109308585610ed5565b90925090506000816004811115610949576109496111db565b14801561098157508573ffffffffffffffffffffffffffffffffffffffff168273ffffffffffffffffffffffffffffffffffffffff16145b1561099157600192505050610ae9565b6000808773ffffffffffffffffffffffffffffffffffffffff16631626ba7e60e01b88886040516024016109c692919061122e565b604080517fffffffffffffffffffffffffffffffffffffffffffffffffffffffffffffffe08184030181529181526020820180517bffffffffffffffffffffffffffffffffffffffffffffffffffffffff167fffffffff00000000000000000000000000000000000000000000000000000000909416939093179092529051610a4f9190611286565b600060405180830381855afa9150503d8060008114610a8a576040519150601f19603f3d011682016040523d82523d6000602084013e610a8f565b606091505b5091509150818015610aa2575080516020145b8015610ae2575080517f1626ba7e0000000000000000000000000000000000000000000000000000000090610ae090830160209081019084016112a2565b145b9450505050505b9392505050565b36600033321480610b015750601836105b15610b0f5750600091369150565b3373ffffffffffffffffffffffffffffffffffffffff7f0000000000000000000000000000000000000000000000000000000000000000161480610c44575073ffffffffffffffffffffffffffffffffffffffff7f000000000000000000000000000000000000000000000000000000000000000016638929a8ca367fffffffffffffffffffffffffffffffffffffffffffffffffffffffffffffffec013560601c6040517fffffffff0000000000000000000000000000000000000000000000000000000060e084901b16815273ffffffffffffffffffffffffffffffffffffffff9091166004820152336024820152604401602060405180830381865afa158015610c20573d6000803e3d6000fd5b505050506040513d601f19601f82011682018060405250810190610c4491906112bb565b15610c515761041e610f1a565b50600091369150565b600033321480610c6a5750601836105b15610c7457503390565b7fffffffffffffffffffffffffffffffffffffffffffffffffffffffffffffffec36013560601c7f000000000000000000000000000000000000000000000000000000000000000073ffffffffffffffffffffffffffffffffffffffff16331480610d9057506040517f8929a8ca00000000000000000000000000000000000000000000000000000000815273ffffffffffffffffffffffffffffffffffffffff82811660048301523360248301527f00000000000000000000000000000000000000000000000000000000000000001690638929a8ca90604401602060405180830381865afa158015610d6c573d6000803e3d6000fd5b505050506040513d601f19601f82011682018060405250810190610d9091906112bb565b15610d9a57919050565b3391505090565b60003073ffffffffffffffffffffffffffffffffffffffff7f000000000000000000000000000000000000000000000000000000000000000016148015610e0757507f000000000000000000000000000000000000000000000000000000000000000046145b15610e3157507f000000000000000000000000000000000000000000000000000000000000000090565b50604080517f00000000000000000000000000000000000000000000000000000000000000006020808301919091527f0000000000000000000000000000000000000000000000000000000000000000828401527f000000000000000000000000000000000000000000000000000000000000000060608301524660808301523060a0808401919091528351808403909101815260c0909201909252805191012090565b6000808251604103610f0b5760208301516040840151606085015160001a610eff87828585610f4b565b94509450505050610f13565b506000905060025b9250929050565b36600061041e7fffffffffffffffffffffffffffffffffffffffffffffffffffffffffffffffec83018284816112dd565b6000807f7fffffffffffffffffffffffffffffff5d576e7357a4501ddfe92f46681b20a0831115610f825750600090506003611031565b6040805160008082526020820180845289905260ff881692820192909252606081018690526080810185905260019060a0016020604051602081039080840390855afa158015610fd6573d6000803e3d6000fd5b50506040517fffffffffffffffffffffffffffffffffffffffffffffffffffffffffffffffe0015191505073ffffffffffffffffffffffffffffffffffffffff811661102a57600060019250925050611031565b9150600090505b94509492505050565b60006020828403121561104c57600080fd5b81357fffffffff0000000000000000000000000000000000000000000000000000000081168114610ae957600080fd5b803573ffffffffffffffffffffffffffffffffffffffff811681146110a057600080fd5b919050565b6000806000806000608086880312156110bd57600080fd5b6110c68661107c565b94506020860135935060408601359250606086013567ffffffffffffffff808211156110f157600080fd5b818801915088601f83011261110557600080fd5b81358181111561111457600080fd5b89602082850101111561112657600080fd5b9699959850939650602001949392505050565b60208152816020820152818360408301376000818301604090810191909152601f9092017fffffffffffffffffffffffffffffffffffffffffffffffffffffffffffffffe0160101919050565b60006020828403121561119857600080fd5b610ae98261107c565b81810381811115610268577f4e487b7100000000000000000000000000000000000000000000000000000000600052601160045260246000fd5b7f4e487b7100000000000000000000000000000000000000000000000000000000600052602160045260246000fd5b60005b8381101561122557818101518382015260200161120d565b50506000910152565b828152604060208201526000825180604084015261125381606085016020870161120a565b601f017fffffffffffffffffffffffffffffffffffffffffffffffffffffffffffffffe016919091016060019392505050565b6000825161129881846020870161120a565b9190910192915050565b6000602082840312156112b457600080fd5b5051919050565b6000602082840312156112cd57600080fd5b81518015158114610ae957600080fd5b600080858511156112ed57600080fd5b838611156112fa57600080fd5b505082019391909203915056fea2646970667358221220dd038c151ca27241be4d2caf8894584f9033b2ccc3d1b86009abb47d65dd37c264736f6c63430008160033",
  "linkReferences": {},
  "deployedLinkReferences": {}
}