{
  "_format": "hh-sol-artifact-1",
  "contractName": "Scratching",
  "sourceName": "contracts/game/Scratching.sol",
  "abi": [
    {
      "inputs": [
        {
          "internalType": "address",
          "name": "scratchingBoard",
          "type": "address"
        },
        {
          "internalType": "contract IERC20",
          "name": "erc20Token",
          "type": "address"
        },
        {
          "internalType": "contract IRNGProvider",
          "name": "rngProvider",
          "type": "address"
        },
        {
          "internalType": "contract IPointsV2",
          "name": "pointsV2",
          "type": "address"
        }
      ],
      "stateMutability": "nonpayable",
      "type": "constructor"
    },
    {
      "inputs": [],
      "name": "FailedCall",
      "type": "error"
    },
    {
      "inputs": [],
      "name": "IllegalInterfaceId",
      "type": "error"
    },
    {
      "inputs": [],
      "name": "InconsistentArrayLengths",
      "type": "error"
    },
    {
      "inputs": [
        {
          "internalType": "address",
          "name": "caller",
          "type": "address"
        }
      ],
      "name": "IncorrectCallbackCaller",
      "type": "error"
    },
    {
      "inputs": [
        {
          "internalType": "uint256",
          "name": "tokenId",
          "type": "uint256"
        },
        {
          "internalType": "uint256",
          "name": "requiredAmount",
          "type": "uint256"
        },
        {
          "internalType": "uint256",
          "name": "providedAmount",
          "type": "uint256"
        }
      ],
      "name": "IncorrectPaymentAmount",
      "type": "error"
    },
    {
      "inputs": [
        {
          "internalType": "address",
          "name": "tokenContract",
          "type": "address"
        }
      ],
      "name": "IncorrectTokenContractType",
      "type": "error"
    },
    {
      "inputs": [
        {
          "internalType": "uint256",
          "name": "balance",
          "type": "uint256"
        },
        {
          "internalType": "uint256",
          "name": "needed",
          "type": "uint256"
        }
      ],
      "name": "InsufficientBalance",
      "type": "error"
    },
    {
      "inputs": [
        {
          "internalType": "address",
          "name": "account",
          "type": "address"
        }
      ],
      "name": "NotContractOwner",
      "type": "error"
    },
    {
      "inputs": [
        {
          "internalType": "uint256",
          "name": "tokenId",
          "type": "uint256"
        },
        {
          "internalType": "address",
          "name": "owner",
          "type": "address"
        },
        {
          "internalType": "address",
          "name": "caller",
          "type": "address"
        }
      ],
      "name": "NotTheTokenOwner",
      "type": "error"
    },
    {
      "inputs": [
        {
          "internalType": "address",
          "name": "wrongCaller",
          "type": "address"
        }
      ],
      "name": "OnlyRNGProviderCanFulfill",
      "type": "error"
    },
    {
      "inputs": [
        {
          "internalType": "address",
          "name": "token",
          "type": "address"
        }
      ],
      "name": "SafeERC20FailedOperation",
      "type": "error"
    },
    {
      "inputs": [
        {
          "internalType": "uint256",
          "name": "tokenId",
          "type": "uint256"
        },
        {
          "internalType": "uint256",
          "name": "requestId",
          "type": "uint256"
        }
      ],
      "name": "ScratchRequestPending",
      "type": "error"
    },
    {
      "inputs": [
        {
          "internalType": "uint256",
          "name": "requestId",
          "type": "uint256"
        }
      ],
      "name": "UnknownRequestId",
      "type": "error"
    },
    {
      "inputs": [
        {
          "internalType": "uint8",
          "name": "decimals",
          "type": "uint8"
        }
      ],
      "name": "UnsupportedERC20TokenDecimals",
      "type": "error"
    },
    {
      "anonymous": false,
      "inputs": [
        {
          "indexed": false,
          "internalType": "address",
          "name": "newHolder",
          "type": "address"
        }
      ],
      "name": "ERC20TokenHolderUpdated",
      "type": "event"
    },
    {
      "anonymous": false,
      "inputs": [
        {
          "indexed": true,
          "internalType": "address",
          "name": "previousOwner",
          "type": "address"
        },
        {
          "indexed": true,
          "internalType": "address",
          "name": "newOwner",
          "type": "address"
        }
      ],
      "name": "OwnershipTransferred",
      "type": "event"
    },
    {
      "anonymous": false,
      "inputs": [
        {
          "indexed": false,
          "internalType": "uint256",
          "name": "tokenId",
          "type": "uint256"
        },
        {
          "indexed": false,
          "internalType": "uint256",
          "name": "startScratchPosition",
          "type": "uint256"
        },
        {
          "indexed": false,
          "internalType": "uint256",
          "name": "endScratchPosition",
          "type": "uint256"
        },
        {
          "indexed": false,
          "internalType": "enum ScratchingLib.RewardType",
          "name": "rewardType",
          "type": "uint8"
        },
        {
          "indexed": false,
          "internalType": "uint256",
          "name": "rewardAmount",
          "type": "uint256"
        }
      ],
      "name": "ScratchedRow",
      "type": "event"
    },
    {
      "anonymous": false,
      "inputs": [
        {
          "indexed": false,
          "internalType": "uint256",
          "name": "tokenId",
          "type": "uint256"
        },
        {
          "indexed": false,
          "internalType": "uint256",
          "name": "scratchPosition",
          "type": "uint256"
        },
        {
          "indexed": false,
          "internalType": "enum ScratchingLib.RewardType",
          "name": "rewardType",
          "type": "uint8"
        },
        {
          "indexed": false,
          "internalType": "uint256",
          "name": "rewardAmount",
          "type": "uint256"
        }
      ],
      "name": "ScratchedSingle",
      "type": "event"
    },
    {
      "inputs": [],
      "name": "ERC20_DECIMALS",
      "outputs": [
        {
          "internalType": "uint8",
          "name": "",
          "type": "uint8"
        }
      ],
      "stateMutability": "view",
      "type": "function"
    },
    {
      "inputs": [],
      "name": "ERC20_TOKEN",
      "outputs": [
        {
          "internalType": "contract IERC20",
          "name": "",
          "type": "address"
        }
      ],
      "stateMutability": "view",
      "type": "function"
    },
    {
      "inputs": [],
      "name": "POINTS",
      "outputs": [
        {
          "internalType": "contract IPointsV2",
          "name": "",
          "type": "address"
        }
      ],
      "stateMutability": "view",
      "type": "function"
    },
    {
      "inputs": [],
      "name": "RNG_PROVIDER",
      "outputs": [
        {
          "internalType": "contract IRNGProvider",
          "name": "",
          "type": "address"
        }
      ],
      "stateMutability": "view",
      "type": "function"
    },
    {
      "inputs": [],
      "name": "SCRATCHING_BOARD",
      "outputs": [
        {
          "internalType": "address",
          "name": "",
          "type": "address"
        }
      ],
      "stateMutability": "view",
      "type": "function"
    },
    {
      "inputs": [
        {
          "internalType": "uint256",
          "name": "tokenId",
          "type": "uint256"
        }
      ],
      "name": "boardPositions",
      "outputs": [
        {
          "internalType": "uint256",
          "name": "",
          "type": "uint256"
        }
      ],
      "stateMutability": "view",
      "type": "function"
    },
    {
      "inputs": [],
      "name": "erc20TokenHolder",
      "outputs": [
        {
          "internalType": "address",
          "name": "",
          "type": "address"
        }
      ],
      "stateMutability": "view",
      "type": "function"
    },
    {
      "inputs": [
        {
          "internalType": "uint256",
          "name": "requestId",
          "type": "uint256"
        },
        {
          "internalType": "uint256[]",
          "name": "randomWords",
          "type": "uint256[]"
        }
      ],
      "name": "fulfillRandomness",
      "outputs": [],
      "stateMutability": "nonpayable",
      "type": "function"
    },
    {
      "inputs": [],
      "name": "getMintPrice",
      "outputs": [
        {
          "internalType": "uint256",
          "name": "",
          "type": "uint256"
        }
      ],
      "stateMutability": "pure",
      "type": "function"
    },
    {
      "inputs": [
        {
          "internalType": "uint256",
          "name": "tokenId",
          "type": "uint256"
        }
      ],
      "name": "getRowScratchPrice",
      "outputs": [
        {
          "internalType": "uint256",
          "name": "",
          "type": "uint256"
        }
      ],
      "stateMutability": "view",
      "type": "function"
    },
    {
      "inputs": [
        {
          "internalType": "uint256",
          "name": "tokenId",
          "type": "uint256"
        }
      ],
      "name": "getSingleScratchPrice",
      "outputs": [
        {
          "internalType": "uint256",
          "name": "",
          "type": "uint256"
        }
      ],
      "stateMutability": "view",
      "type": "function"
    },
    {
      "inputs": [
        {
          "internalType": "address",
          "name": "spender",
          "type": "address"
        },
        {
          "internalType": "uint256",
          "name": "amount",
          "type": "uint256"
        },
        {
          "internalType": "bytes",
          "name": "data",
          "type": "bytes"
        }
      ],
      "name": "onPointsSpent",
      "outputs": [
        {
          "internalType": "bytes4",
          "name": "",
          "type": "bytes4"
        }
      ],
      "stateMutability": "nonpayable",
      "type": "function"
    },
    {
      "inputs": [],
      "name": "owner",
      "outputs": [
        {
          "internalType": "address",
          "name": "",
          "type": "address"
        }
      ],
      "stateMutability": "view",
      "type": "function"
    },
    {
      "inputs": [
        {
          "internalType": "uint256",
          "name": "tokenId",
          "type": "uint256"
        }
      ],
      "name": "pendingScratchRequest",
      "outputs": [
        {
          "internalType": "uint256",
          "name": "requestId",
          "type": "uint256"
        }
      ],
      "stateMutability": "view",
      "type": "function"
    },
    {
      "inputs": [
        {
          "internalType": "address[]",
          "name": "accounts",
          "type": "address[]"
        },
        {
          "internalType": "contract IERC20[]",
          "name": "tokens",
          "type": "address[]"
        },
        {
          "internalType": "uint256[]",
          "name": "amounts",
          "type": "uint256[]"
        }
      ],
      "name": "recoverERC20s",
      "outputs": [],
      "stateMutability": "nonpayable",
      "type": "function"
    },
    {
      "inputs": [
        {
          "internalType": "address[]",
          "name": "accounts",
          "type": "address[]"
        },
        {
          "internalType": "contract IERC721[]",
          "name": "contracts",
          "type": "address[]"
        },
        {
          "internalType": "uint256[]",
          "name": "tokenIds",
          "type": "uint256[]"
        }
      ],
      "name": "recoverERC721s",
      "outputs": [],
      "stateMutability": "nonpayable",
      "type": "function"
    },
    {
      "inputs": [
        {
          "internalType": "address payable[]",
          "name": "accounts",
          "type": "address[]"
        },
        {
          "internalType": "uint256[]",
          "name": "amounts",
          "type": "uint256[]"
        }
      ],
      "name": "recoverETH",
      "outputs": [],
      "stateMutability": "nonpayable",
      "type": "function"
    },
    {
      "inputs": [
        {
          "internalType": "uint256",
          "name": "requestId",
          "type": "uint256"
        }
      ],
      "name": "scratchRequests",
      "outputs": [
        {
          "internalType": "uint256",
          "name": "tokenId",
          "type": "uint256"
        },
        {
          "internalType": "enum Scratching.RequestType",
          "name": "requestType",
          "type": "uint8"
        }
      ],
      "stateMutability": "view",
      "type": "function"
    },
    {
      "inputs": [
        {
          "internalType": "address",
          "name": "holder",
          "type": "address"
        }
      ],
      "name": "setERC20TokenHolder",
      "outputs": [],
      "stateMutability": "nonpayable",
      "type": "function"
    },
    {
      "inputs": [
        {
          "internalType": "bytes4",
          "name": "interfaceId",
          "type": "bytes4"
        }
      ],
      "name": "supportsInterface",
      "outputs": [
        {
          "internalType": "bool",
          "name": "",
          "type": "bool"
        }
      ],
      "stateMutability": "view",
      "type": "function"
    },
    {
      "inputs": [
        {
          "internalType": "address",
          "name": "newOwner",
          "type": "address"
        }
      ],
      "name": "transferOwnership",
      "outputs": [],
      "stateMutability": "nonpayable",
      "type": "function"
    }
  ],
  "bytecode": "0x610120806040523461024557608081614d7c8038038091610020828561024a565b833981010312610245578051906001600160a01b03821682036102455760208101516001600160a01b03811690818103610245576040830151926001600160a01b03841684036102455760600151936001600160a01b038516850361024557600494602094336101e6575b6307f5828d60e41b6000527fca9d3e17f264b0f3984e2634e94adb37fa3e6a8103f06aeae6fa59e21c769f5d86526040600020600160ff1982541617905560805260a05260c05260e0526040519283809263313ce56760e01b82525afa9081156101da57600091610199575b508060ff9161010052166002811061018557604051614af8908161028482396080518181816106e301528181610bc7015261134f015260a05181818161059e0152610fdd015260c05181818161064f015281816108d90152818161127a0152611ea9015260e0518181816104ea0152611f7e0152610100518181816111c1015281816113ca01526115230152f35b633c66f6f560e21b60005260045260246000fd5b6020813d6020116101d2575b816101b26020938361024a565b810103126101ce575160ff811681036101ce57905060ff6100f7565b5080fd5b3d91506101a5565b6040513d6000823e3d90fd5b7fc9ed16f33ab3a66c84bfd83099ccb2a8845871e2e1c1928f63797152f0fd54cc80546001600160a01b0319163390811790915560007f8be0079c531659141344cd1fd0a4f28419497f9722a3daafe3b4186f6b6457e08180a361008b565b600080fd5b601f909101601f19168101906001600160401b0382119082101761026d57604052565b634e487b7160e01b600052604160045260246000fdfe6080604052600436101561001257600080fd5b60003560e01c806301ffc9a7146117a5578063024f5f4c1461175b57806308868017146112e85780630ac7843c1461129e5780633a1068001461122f578063400c1050146111e55780636b0219d71461118957806373c8a9581461104b5780637a33626c146110015780637f6e428114610f925780638da5cb5b14610f21578063a7f93ebd14610ee5578063b763d84714610e82578063be16663714610e30578063c3666c3614610beb578063c440450e14610b7c578063c8dadb9c14610a98578063d2741e831461050e578063efc4c6311461049f578063f2fde38b146103895763f7ba94bd1461010357600080fd5b3461032d5760407ffffffffffffffffffffffffffffffffffffffffffffffffffffffffffffffffc36011261032d5760043567ffffffffffffffff811161032d57610152903690600401611815565b60243567ffffffffffffffff811161032d57610172903690600401611815565b909173ffffffffffffffffffffffffffffffffffffffff7fc9ed16f33ab3a66c84bfd83099ccb2a8845871e2e1c1928f63797152f0fd54cc541673ffffffffffffffffffffffffffffffffffffffff331690810361035c57508181036103325760005b8181106101de57005b6101e98183876119ab565b3573ffffffffffffffffffffffffffffffffffffffff811680910361032d576102138285876119ab565b35908147106102fb57600080809381935af13d156102f3573d9067ffffffffffffffff82116102c4576040519161027260207fffffffffffffffffffffffffffffffffffffffffffffffffffffffffffffffe0601f8401160184611de1565b82523d6000602084013e5b1561028b57506001016101d5565b80511561029a57805190602001fd5b7fd6bda2750000000000000000000000000000000000000000000000000000000060005260046000fd5b7f4e487b7100000000000000000000000000000000000000000000000000000000600052604160045260246000fd5b60609061027d565b50477fcf4791810000000000000000000000000000000000000000000000000000000060005260045260245260446000fd5b600080fd5b7f658253360000000000000000000000000000000000000000000000000000000060005260046000fd5b7f2ef4875e0000000000000000000000000000000000000000000000000000000060005260045260246000fd5b3461032d5760207ffffffffffffffffffffffffffffffffffffffffffffffffffffffffffffffffc36011261032d576103c06118d9565b7fc9ed16f33ab3a66c84bfd83099ccb2a8845871e2e1c1928f63797152f0fd54cc9073ffffffffffffffffffffffffffffffffffffffff825416908133036104715773ffffffffffffffffffffffffffffffffffffffff169182820361042257005b827fffffffffffffffffffffffff00000000000000000000000000000000000000008254161790557f8be0079c531659141344cd1fd0a4f28419497f9722a3daafe3b4186f6b6457e0600080a3005b7f2ef4875e000000000000000000000000000000000000000000000000000000006000523360045260246000fd5b3461032d5760007ffffffffffffffffffffffffffffffffffffffffffffffffffffffffffffffffc36011261032d57602060405173ffffffffffffffffffffffffffffffffffffffff7f0000000000000000000000000000000000000000000000000000000000000000168152f35b3461032d5760607ffffffffffffffffffffffffffffffffffffffffffffffffffffffffffffffffc36011261032d576105456118d9565b602435906044359067ffffffffffffffff821161032d573660238301121561032d57816004013567ffffffffffffffff811161032d57820136602482011161032d5773ffffffffffffffffffffffffffffffffffffffff7f0000000000000000000000000000000000000000000000000000000000000000163303610a6a576040908390031261032d57602482013591600383101561032d576000919060440135828461088b57505073ffffffffffffffffffffffffffffffffffffffff604051917f6a627842000000000000000000000000000000000000000000000000000000008352166004820152602081602481600073ffffffffffffffffffffffffffffffffffffffff7f0000000000000000000000000000000000000000000000000000000000000000165af190811561081957600091610859575b5091600a936001945b81810361082557505063ffffffff604051947f811ee32a000000000000000000000000000000000000000000000000000000008652166004850152602084602481600073ffffffffffffffffffffffffffffffffffffffff7f0000000000000000000000000000000000000000000000000000000000000000165af1938415610819576000946107e2575b5060405161072181611dc5565b83815260208101926107b357600191835284600052600260205260406000209051815501905160038110156107b35760ff7fffffffffffffffffffffffffffffffffffffffffffffffffffffffffffffff008354169116179055600052600360205260406000205560206040517fd2741e83000000000000000000000000000000000000000000000000000000008152f35b7f4e487b7100000000000000000000000000000000000000000000000000000000600052602160045260246000fd5b90936020823d602011610811575b816107fd60209383611de1565b8101031261080e5750519284610714565b80fd5b3d91506107f0565b6040513d6000823e3d90fd5b847fa5b1e30c0000000000000000000000000000000000000000000000000000000060005260045260245260445260646000fd5b90506020813d602011610883575b8161087460209383611de1565b8101031261032d575184610680565b3d9150610867565b92509290604051907f6352211e00000000000000000000000000000000000000000000000000000000825284600483015260208260248173ffffffffffffffffffffffffffffffffffffffff7f0000000000000000000000000000000000000000000000000000000000000000165afa918215610a5f578492610a16575b5073ffffffffffffffffffffffffffffffffffffffff80911691168181036109e257505082825260036020526040822054158383526003602052604083205490156109b2575081600182036109795750826000526001602052610970604060002054611a4a565b93600194610689565b6040818561098e9352600160205220546119bb565b9383600052600160205263ffffffff6109ab604060002054611e68565b1694610689565b90506044927f0d687298000000000000000000000000000000000000000000000000000000008352600452602452fd5b9091506064937f4b96e575000000000000000000000000000000000000000000000000000000008452600452602452604452fd5b73ffffffffffffffffffffffffffffffffffffffff919250610a50829160203d602011610a58575b610a488183611de1565b810190611e22565b929150610909565b503d610a3e565b6040513d86823e3d90fd5b7fe588902b000000000000000000000000000000000000000000000000000000006000523360045260246000fd5b3461032d5760207ffffffffffffffffffffffffffffffffffffffffffffffffffffffffffffffffc36011261032d57610acf6118d9565b7fc9ed16f33ab3a66c84bfd83099ccb2a8845871e2e1c1928f63797152f0fd54cc54339073ffffffffffffffffffffffffffffffffffffffff16810361035c577f266c47b41c6a585ba86773281be85dbce6df3d6082fd35df894deca1a091d512602073ffffffffffffffffffffffffffffffffffffffff8416807fffffffffffffffffffffffff00000000000000000000000000000000000000006000541617600055604051908152a1005b3461032d5760007ffffffffffffffffffffffffffffffffffffffffffffffffffffffffffffffffc36011261032d57602060405173ffffffffffffffffffffffffffffffffffffffff7f0000000000000000000000000000000000000000000000000000000000000000168152f35b3461032d57610bf936611846565b7fc9ed16f33ab3a66c84bfd83099ccb2a8845871e2e1c1928f63797152f0fd54cc5493949193909290339073ffffffffffffffffffffffffffffffffffffffff16810361035c5750808214801590610e26575b6103325760005b828110610c5c57005b73ffffffffffffffffffffffffffffffffffffffff610c84610c7f83858a6119ab565b611a29565b166040517f01ffc9a70000000000000000000000000000000000000000000000000000000081527f80ac58cd000000000000000000000000000000000000000000000000000000006004820152602081602481855afa90811561081957600091610de8575b5015610dbb575073ffffffffffffffffffffffffffffffffffffffff610d13610c7f83858a6119ab565b1690610d23610c7f82868b6119ab565b610d2e8287896119ab565b35833b1561032d576040517f42842e0e00000000000000000000000000000000000000000000000000000000815230600482015273ffffffffffffffffffffffffffffffffffffffff9290921660248301526044820152916000908390606490829084905af191821561081957600192610daa575b5001610c53565b6000610db591611de1565b88610da3565b7f986b9f1f0000000000000000000000000000000000000000000000000000000060005260045260246000fd5b6020813d8211610e1e575b81610e0060209383611de1565b81010312610e1a575190811515820361080e575089610ce9565b5080fd5b3d9150610df3565b5082821415610c4c565b3461032d5760007ffffffffffffffffffffffffffffffffffffffffffffffffffffffffffffffffc36011261032d57602073ffffffffffffffffffffffffffffffffffffffff60005416604051908152f35b3461032d5760207ffffffffffffffffffffffffffffffffffffffffffffffffffffffffffffffffc36011261032d576004356000526002602052604060002060ff60018254920154169060405190815260038210156107b3576040916020820152f35b3461032d5760007ffffffffffffffffffffffffffffffffffffffffffffffffffffffffffffffffc36011261032d576020600a5b604051908152f35b3461032d5760007ffffffffffffffffffffffffffffffffffffffffffffffffffffffffffffffffc36011261032d57602073ffffffffffffffffffffffffffffffffffffffff7fc9ed16f33ab3a66c84bfd83099ccb2a8845871e2e1c1928f63797152f0fd54cc5416604051908152f35b3461032d5760007ffffffffffffffffffffffffffffffffffffffffffffffffffffffffffffffffc36011261032d57602060405173ffffffffffffffffffffffffffffffffffffffff7f0000000000000000000000000000000000000000000000000000000000000000168152f35b3461032d5760207ffffffffffffffffffffffffffffffffffffffffffffffffffffffffffffffffc36011261032d5760043560005260016020526020610f19604060002054611a4a565b3461032d5761105936611846565b929394909173ffffffffffffffffffffffffffffffffffffffff7fc9ed16f33ab3a66c84bfd83099ccb2a8845871e2e1c1928f63797152f0fd54cc541673ffffffffffffffffffffffffffffffffffffffff331690810361035c575080861480159061117f575b6103325760005b8681106110d057005b6110db8183886119ab565b359073ffffffffffffffffffffffffffffffffffffffff8216820361032d5761117960019261110e610c7f848c896119ab565b9061111a848a8a6119ab565b3573ffffffffffffffffffffffffffffffffffffffff604051937fa9059cbb000000000000000000000000000000000000000000000000000000006020860152166024840152604483015260448252611174606483611de1565b614a37565b016110c7565b50838614156110c0565b3461032d5760007ffffffffffffffffffffffffffffffffffffffffffffffffffffffffffffffffc36011261032d57602060405160ff7f0000000000000000000000000000000000000000000000000000000000000000168152f35b3461032d5760207ffffffffffffffffffffffffffffffffffffffffffffffffffffffffffffffffc36011261032d5760043560005260016020526020610f196040600020546119bb565b3461032d5760007ffffffffffffffffffffffffffffffffffffffffffffffffffffffffffffffffc36011261032d57602060405173ffffffffffffffffffffffffffffffffffffffff7f0000000000000000000000000000000000000000000000000000000000000000168152f35b3461032d5760207ffffffffffffffffffffffffffffffffffffffffffffffffffffffffffffffffc36011261032d5760043560005260036020526020604060002054604051908152f35b3461032d5760407ffffffffffffffffffffffffffffffffffffffffffffffffffffffffffffffffc36011261032d5760243567ffffffffffffffff811161032d57611337903690600401611815565b9073ffffffffffffffffffffffffffffffffffffffff7f000000000000000000000000000000000000000000000000000000000000000016330361172d57600435600052600260205260406000209160ff60018454948560005260036020526000604081205501541660038110156107b35760011061150e57156114df578160005260016020526113f1604060002054917f000000000000000000000000000000000000000000000000000000000000000090358361203b565b602081015191815191600a8310156107b3576000926114d057600182018083116114a357858452600160205260408420555b5191600a83101561147657509161146e7fad70122cc7d9de88c17d2276190cc297baa68d12f166012d2d7eab6ecb229313949260809460405194855260208501526040840190611e5b565b6060820152a1005b807f4e487b7100000000000000000000000000000000000000000000000000000000602492526021600452fd5b6024847f4e487b710000000000000000000000000000000000000000000000000000000081526011600452fd5b6114da8486611e92565b611423565b7f4e487b7100000000000000000000000000000000000000000000000000000000600052603260045260246000fd5b826000939293526001602052604060002054927f000000000000000000000000000000000000000000000000000000000000000091600061154d611e79565b506040519061155b82611dc5565b80825260208201529461156d81611e68565b9460005b875197600a8910156107b3576000981580611724575b1561160b57506115ad8661159b8386611e4e565b6115a684888a6119ab565b359061203b565b977fffffffffffffffffffffffffffffffffffffffffffffffffffffffffffffffff82146115de5750600101611571565b807f4e487b7100000000000000000000000000000000000000000000000000000000602492526011600452fd5b965092509550925061161e915082611e4e565b907fffffffffffffffffffffffffffffffffffffffffffffffffffffffffffffffff8201908282116116f557602084015193805193600a8510156107b3576000946116ca57868552600160205260408520555b5192600a84101561147657507f86ceb3931dd543c495c675a1027d6a329dbf198204ad44d696903bfd109f255d949260a094926116c292604051958652602086015260408501526060840190611e5b565b6080820152a1005b508183036116e2575b6116dd8587611e92565b611671565b85845260016020528260408520556116d3565b7f4e487b7100000000000000000000000000000000000000000000000000000000600052601160045260246000fd5b50878210611587565b7fc05bb6cb000000000000000000000000000000000000000000000000000000006000523360045260246000fd5b3461032d5760207ffffffffffffffffffffffffffffffffffffffffffffffffffffffffffffffffc36011261032d5760043560005260016020526020604060002054604051908152f35b3461032d5760207ffffffffffffffffffffffffffffffffffffffffffffffffffffffffffffffffc36011261032d576004357fffffffff000000000000000000000000000000000000000000000000000000008116810361032d5761180b6020916118fc565b6040519015158152f35b9181601f8401121561032d5782359167ffffffffffffffff831161032d576020808501948460051b01011161032d57565b60607ffffffffffffffffffffffffffffffffffffffffffffffffffffffffffffffffc82011261032d5760043567ffffffffffffffff811161032d578161188f91600401611815565b9290929160243567ffffffffffffffff811161032d57816118b291600401611815565b929092916044359067ffffffffffffffff821161032d576118d591600401611815565b9091565b6004359073ffffffffffffffffffffffffffffffffffffffff8216820361032d57565b7fffffffff00000000000000000000000000000000000000000000000000000000167fffffffff0000000000000000000000000000000000000000000000000000000081146119a5577f01ffc9a700000000000000000000000000000000000000000000000000000000811461199f576000527fca9d3e17f264b0f3984e2634e94adb37fa3e6a8103f06aeae6fa59e21c769f5d60205260ff6040600020541690565b50600190565b50600090565b91908110156114df5760051b0190565b60031c806119c95750608990565b600181036119d857506101a590565b600281036119e7575061050590565b600381036119f65750610f5990565b60048103611a055750612ef390565b60058103611a145750618fa090565b600603611a22576201b75990565b62053ff690565b3573ffffffffffffffffffffffffffffffffffffffff8116810361032d5790565b600781169060031c80611aba575080611a635750600a90565b60018103611a715750600c90565b60028103611a7f5750600d90565b60038103611a8d5750600f90565b60048103611a9b5750601190565b60058103611aa95750601490565b600603611ab557601790565b601b90565b60018103611b25575080611ace5750601f90565b60018103611adc5750602390565b60028103611aea5750602890565b60038103611af85750602f90565b60048103611b065750603690565b60058103611b145750603e90565b600603611b2057604790565b605190565b60028103611b90575080611b395750605e90565b60018103611b475750606c90565b60028103611b555750607c90565b60038103611b635750608e90565b60048103611b71575060a490565b60058103611b7f575060bc90565b600603611b8b5760d890565b60f990565b60038103611c03575080611ba5575061011e90565b60018103611bb4575061014990565b60028103611bc3575061017b90565b60038103611bd257506101b390565b60048103611be157506101f590565b60058103611bf0575061024090565b600603611bfd5761029690565b6102f990565b60048103611c76575080611c18575061036c90565b60018103611c2757506103ef90565b60028103611c36575061048690565b60038103611c45575061053490565b60048103611c5457506105fb90565b60058103611c6357506106e190565b600603611c70576107e990565b61091990565b60058103611ce9575080611c8b5750610a7790565b60018103611c9a5750610c0890565b60028103611ca95750610dd690565b60038103611cb85750610fea90565b60048103611cc7575061124d90565b60058103611cd6575061150b90565b600603611ce35761183490565b611bd590565b600603611d5a5780611cfc575061200290565b60018103611d0b57506124cf90565b60028103611d1a5750612a5490565b60038103611d2957506130ae90565b60048103611d3857506137fb90565b60058103611d47575061406090565b600603611d5457614a0890565b61552390565b80611d6657506161e890565b60018103611d75575061709890565b60028103611d84575061817c90565b60038103611d9357506194e890565b60048103611da2575061ab3e90565b60058103611db1575061c4ed90565b600603611dbe5761e27790565b6201047090565b6040810190811067ffffffffffffffff8211176102c457604052565b90601f7fffffffffffffffffffffffffffffffffffffffffffffffffffffffffffffffe0910116810190811067ffffffffffffffff8211176102c457604052565b9081602091031261032d575173ffffffffffffffffffffffffffffffffffffffff8116810361032d5790565b919082018092116116f557565b90600a8210156107b35752565b600716600803600881116116f55790565b60405190611e8682611dc5565b60006020838281520152565b73ffffffffffffffffffffffffffffffffffffffff7f000000000000000000000000000000000000000000000000000000000000000016906040517f6352211e000000000000000000000000000000000000000000000000000000008152600093826004830152602082602481875afa9182156120305790611fa29291869261200b575b5085546040517f23b872dd00000000000000000000000000000000000000000000000000000000602082015273ffffffffffffffffffffffffffffffffffffffff9182166024820152921660448301526064808301919091528152611f7c608482611de1565b7f0000000000000000000000000000000000000000000000000000000000000000614a37565b813b156120075782916024839260405194859384927f42966c6800000000000000000000000000000000000000000000000000000000845260048401525af18015611ffc57611fef575050565b81611ff991611de1565b50565b6040513d84823e3d90fd5b8280fd5b611f7c9192506120299060203d602011610a5857610a488183611de1565b9190611f16565b6040513d87823e3d90fd5b9160ff9060405161204b81611dc5565b60008152600060208201525016604d81116116f557606490600a0a049160078160031c911690801560001461222657507a01f1d75a5709c1ab17a5c1130ecb4fbd64a6520000000000000000917a184f03e93ff9f4daa797ed6e38ed64bf6a1f010000000000000000918061210457500610156120e95780600f0290600f8204036116f557604051906120dd82611dc5565b60038252602082015290565b506040516120f681611dc5565b600081526000602082015290565b6001810361212f57500610156120e957806011029060118204036116f557604051906120dd82611dc5565b6002810361215a57500610156120e957806014029060148204036116f557604051906120dd82611dc5565b6003810361218557500610156120e957806017029060178204036116f557604051906120dd82611dc5565b600481036121b057500610156120e95780601a0290601a8204036116f557604051906120dd82611dc5565b600581036121db57500610156120e95780601e0290601e8204036116f557604051906120dd82611dc5565b600603612204570610156120e957806023029060238204036116f557604051906120dd82611dc5565b0610156120e957806028029060288204036116f557604051906120dd82611dc5565b6001810361283d5750806122fa57507a01756183c147514051bc50ce4b187bce0b7cbd80000000000000007a184f03e93ff9f4daa797ed6e38ed64bf6a1f01000000000000000082061015612291575080602e0290602e8204036116f557604051906120dd82611dc5565b7a184f03e93ff9f4daa797ed6e38ed64bf6a1f0100000000000000007a01f1d75a5709c1ab17a5c1130ecb4fbd64a65200000000000000009106106000146120e95780600f0290600f8204036116f557604051906122ee82611dc5565b60018252602082015290565b600181036123bc57507a01756183c147514051bc50ce4b187bce0b7cbd80000000000000007a184f03e93ff9f4daa797ed6e38ed64bf6a1f0100000000000000008206101561235f5750806035029060358204036116f557604051906120dd82611dc5565b7a184f03e93ff9f4daa797ed6e38ed64bf6a1f0100000000000000007a01f1d75a5709c1ab17a5c1130ecb4fbd64a65200000000000000009106106000146120e957806012029060128204036116f557604051906122ee82611dc5565b6002810361247e57507a01756183c147514051bc50ce4b187bce0b7cbd80000000000000007a184f03e93ff9f4daa797ed6e38ed64bf6a1f01000000000000000082061015612421575080603d0290603d8204036116f557604051906120dd82611dc5565b7a184f03e93ff9f4daa797ed6e38ed64bf6a1f0100000000000000007a01f1d75a5709c1ab17a5c1130ecb4fbd64a65200000000000000009106106000146120e957806014029060148204036116f557604051906122ee82611dc5565b6003810361254057507a01756183c147514051bc50ce4b187bce0b7cbd80000000000000007a184f03e93ff9f4daa797ed6e38ed64bf6a1f010000000000000000820610156124e35750806046029060468204036116f557604051906120dd82611dc5565b7a184f03e93ff9f4daa797ed6e38ed64bf6a1f0100000000000000007a01f1d75a5709c1ab17a5c1130ecb4fbd64a65200000000000000009106106000146120e957806017029060178204036116f557604051906122ee82611dc5565b6004810361260257507a01756183c147514051bc50ce4b187bce0b7cbd80000000000000007a184f03e93ff9f4daa797ed6e38ed64bf6a1f010000000000000000820610156125a55750806050029060508204036116f557604051906120dd82611dc5565b7a184f03e93ff9f4daa797ed6e38ed64bf6a1f0100000000000000007a01f1d75a5709c1ab17a5c1130ecb4fbd64a65200000000000000009106106000146120e95780601b0290601b8204036116f557604051906122ee82611dc5565b600581036126c457507a01756183c147514051bc50ce4b187bce0b7cbd80000000000000007a184f03e93ff9f4daa797ed6e38ed64bf6a1f01000000000000000082061015612667575080605c0290605c8204036116f557604051906120dd82611dc5565b7a184f03e93ff9f4daa797ed6e38ed64bf6a1f0100000000000000007a01f1d75a5709c1ab17a5c1130ecb4fbd64a65200000000000000009106106000146120e95780601f0290601f8204036116f557604051906122ee82611dc5565b600603612784577a01756183c147514051bc50ce4b187bce0b7cbd80000000000000007a184f03e93ff9f4daa797ed6e38ed64bf6a1f01000000000000000082061015612727575080606a0290606a8204036116f557604051906120dd82611dc5565b7a184f03e93ff9f4daa797ed6e38ed64bf6a1f0100000000000000007a01f1d75a5709c1ab17a5c1130ecb4fbd64a65200000000000000009106106000146120e957806023029060238204036116f557604051906122ee82611dc5565b7a01756183c147514051bc50ce4b187bce0b7cbd80000000000000007a184f03e93ff9f4daa797ed6e38ed64bf6a1f010000000000000000820610156127e0575080607a0290607a8204036116f557604051906120dd82611dc5565b7a184f03e93ff9f4daa797ed6e38ed64bf6a1f0100000000000000007a01f1d75a5709c1ab17a5c1130ecb4fbd64a65200000000000000009106106000146120e957806029029060298204036116f557604051906122ee82611dc5565b60028103612e5a5750806129105750795d5860f051d450146f143392c61ef382df2f60000000000000007a184f03e93ff9f4daa797ed6e38ed64bf6a1f010000000000000000820610156128b357508060ea029060ea8204036116f557604051906128a782611dc5565b60048252602082015290565b7a184f03e93ff9f4daa797ed6e38ed64bf6a1f0100000000000000007a026e4d30eccc3215dd8f3157d27e23acbdcfe680000000000000009106106000146120e95780602f0290602f8204036116f557604051906122ee82611dc5565b600181036129d35750795d5860f051d450146f143392c61ef382df2f60000000000000007a184f03e93ff9f4daa797ed6e38ed64bf6a1f0100000000000000008206101561297657508061010d029061010d8204036116f557604051906128a782611dc5565b7a184f03e93ff9f4daa797ed6e38ed64bf6a1f0100000000000000007a026e4d30eccc3215dd8f3157d27e23acbdcfe680000000000000009106106000146120e957806036029060368204036116f557604051906122ee82611dc5565b60028103612a965750795d5860f051d450146f143392c61ef382df2f60000000000000007a184f03e93ff9f4daa797ed6e38ed64bf6a1f01000000000000000082061015612a3957508061013502906101358204036116f557604051906128a782611dc5565b7a184f03e93ff9f4daa797ed6e38ed64bf6a1f0100000000000000007a026e4d30eccc3215dd8f3157d27e23acbdcfe680000000000000009106106000146120e95780603e0290603e8204036116f557604051906122ee82611dc5565b60038103612b595750795d5860f051d450146f143392c61ef382df2f60000000000000007a184f03e93ff9f4daa797ed6e38ed64bf6a1f01000000000000000082061015612afc57508061016402906101648204036116f557604051906128a782611dc5565b7a184f03e93ff9f4daa797ed6e38ed64bf6a1f0100000000000000007a026e4d30eccc3215dd8f3157d27e23acbdcfe680000000000000009106106000146120e957806047029060478204036116f557604051906122ee82611dc5565b60048103612c1c5750795d5860f051d450146f143392c61ef382df2f60000000000000007a184f03e93ff9f4daa797ed6e38ed64bf6a1f01000000000000000082061015612bbf57508061019902906101998204036116f557604051906128a782611dc5565b7a184f03e93ff9f4daa797ed6e38ed64bf6a1f0100000000000000007a026e4d30eccc3215dd8f3157d27e23acbdcfe680000000000000009106106000146120e957806052029060528204036116f557604051906122ee82611dc5565b60058103612cdf5750795d5860f051d450146f143392c61ef382df2f60000000000000007a184f03e93ff9f4daa797ed6e38ed64bf6a1f01000000000000000082061015612c825750806101d702906101d78204036116f557604051906128a782611dc5565b7a184f03e93ff9f4daa797ed6e38ed64bf6a1f0100000000000000007a026e4d30eccc3215dd8f3157d27e23acbdcfe680000000000000009106106000146120e95780605e0290605e8204036116f557604051906122ee82611dc5565b600603612da057795d5860f051d450146f143392c61ef382df2f60000000000000007a184f03e93ff9f4daa797ed6e38ed64bf6a1f01000000000000000082061015612d4357508061021d029061021d8204036116f557604051906128a782611dc5565b7a184f03e93ff9f4daa797ed6e38ed64bf6a1f0100000000000000007a026e4d30eccc3215dd8f3157d27e23acbdcfe680000000000000009106106000146120e95780606c0290606c8204036116f557604051906122ee82611dc5565b795d5860f051d450146f143392c61ef382df2f60000000000000007a184f03e93ff9f4daa797ed6e38ed64bf6a1f01000000000000000082061015612dfd57508061026e029061026e8204036116f557604051906128a782611dc5565b7a184f03e93ff9f4daa797ed6e38ed64bf6a1f0100000000000000007a026e4d30eccc3215dd8f3157d27e23acbdcfe680000000000000009106106000146120e95780607c0290607c8204036116f557604051906122ee82611dc5565b60038103613473575080612f235750795d5860f051d450146f143392c61ef382df2f60000000000000007a184f03e93ff9f4daa797ed6e38ed64bf6a1f01000000000000000082061015612ec65750806102cc02906102cc8204036116f557604051906128a782611dc5565b7a184f03e93ff9f4daa797ed6e38ed64bf6a1f0100000000000000007a02eac307828ea280a378a19c9630f79c16f97b00000000000000009106106000146120e95780608f0290608f8204036116f557604051906122ee82611dc5565b60018103612fe65750795d5860f051d450146f143392c61ef382df2f60000000000000007a184f03e93ff9f4daa797ed6e38ed64bf6a1f01000000000000000082061015612f8957508061033702906103378204036116f557604051906128a782611dc5565b7a184f03e93ff9f4daa797ed6e38ed64bf6a1f0100000000000000007a02eac307828ea280a378a19c9630f79c16f97b00000000000000009106106000146120e9578060a5029060a58204036116f557604051906122ee82611dc5565b600281036130a95750795d5860f051d450146f143392c61ef382df2f60000000000000007a184f03e93ff9f4daa797ed6e38ed64bf6a1f0100000000000000008206101561304c5750806103b202906103b28204036116f557604051906128a782611dc5565b7a184f03e93ff9f4daa797ed6e38ed64bf6a1f0100000000000000007a02eac307828ea280a378a19c9630f79c16f97b00000000000000009106106000146120e9578060bd029060bd8204036116f557604051906122ee82611dc5565b6003810361316c5750795d5860f051d450146f143392c61ef382df2f60000000000000007a184f03e93ff9f4daa797ed6e38ed64bf6a1f0100000000000000008206101561310f57508061044002906104408204036116f557604051906128a782611dc5565b7a184f03e93ff9f4daa797ed6e38ed64bf6a1f0100000000000000007a02eac307828ea280a378a19c9630f79c16f97b00000000000000009106106000146120e9578060da029060da8204036116f557604051906122ee82611dc5565b6004810361322f5750795d5860f051d450146f143392c61ef382df2f60000000000000007a184f03e93ff9f4daa797ed6e38ed64bf6a1f010000000000000000820610156131d25750806104e402906104e48204036116f557604051906128a782611dc5565b7a184f03e93ff9f4daa797ed6e38ed64bf6a1f0100000000000000007a02eac307828ea280a378a19c9630f79c16f97b00000000000000009106106000146120e9578060fa029060fa8204036116f557604051906122ee82611dc5565b600581036132f45750795d5860f051d450146f143392c61ef382df2f60000000000000007a184f03e93ff9f4daa797ed6e38ed64bf6a1f0100000000000000008206101561329557508061059f029061059f8204036116f557604051906128a782611dc5565b7a184f03e93ff9f4daa797ed6e38ed64bf6a1f0100000000000000007a02eac307828ea280a378a19c9630f79c16f97b00000000000000009106106000146120e9578061012002906101208204036116f557604051906122ee82611dc5565b6006036133b757795d5860f051d450146f143392c61ef382df2f60000000000000007a184f03e93ff9f4daa797ed6e38ed64bf6a1f0100000000000000008206101561335857508061067702906106778204036116f557604051906128a782611dc5565b7a184f03e93ff9f4daa797ed6e38ed64bf6a1f0100000000000000007a02eac307828ea280a378a19c9630f79c16f97b00000000000000009106106000146120e9578061014b029061014b8204036116f557604051906122ee82611dc5565b795d5860f051d450146f143392c61ef382df2f60000000000000007a184f03e93ff9f4daa797ed6e38ed64bf6a1f0100000000000000008206101561341457508061077002906107708204036116f557604051906128a782611dc5565b7a184f03e93ff9f4daa797ed6e38ed64bf6a1f0100000000000000007a02eac307828ea280a378a19c9630f79c16f97b00000000000000009106106000146120e9578061017d029061017d8204036116f557604051906122ee82611dc5565b60048103613aae5750806135565750793e3aeb4ae1383562f4b82261d969f7ac94ca40000000000000007a184f03e93ff9f4daa797ed6e38ed64bf6a1f010000000000000000820610156134eb57508061111a029061111a8204036116f557604051906134df82611dc5565b60058252602082015290565b7a184f03e93ff9f4daa797ed6e38ed64bf6a1f0100000000000000007a036738de185112eb696211e159e3cb8b70230f80000000000000009106106000146120e9578061036c029061036c8204036116f5576040519061354a82611dc5565b60028252602082015290565b6001810361361b5750793e3aeb4ae1383562f4b82261d969f7ac94ca40000000000000007a184f03e93ff9f4daa797ed6e38ed64bf6a1f010000000000000000820610156135bc5750806113ab02906113ab8204036116f557604051906134df82611dc5565b7a184f03e93ff9f4daa797ed6e38ed64bf6a1f0100000000000000007a036738de185112eb696211e159e3cb8b70230f80000000000000009106106000146120e957806103ef02906103ef8204036116f5576040519061354a82611dc5565b600281036136e05750793e3aeb4ae1383562f4b82261d969f7ac94ca40000000000000007a184f03e93ff9f4daa797ed6e38ed64bf6a1f0100000000000000008206101561368157508061169e029061169e8204036116f557604051906134df82611dc5565b7a184f03e93ff9f4daa797ed6e38ed64bf6a1f0100000000000000007a036738de185112eb696211e159e3cb8b70230f80000000000000009106106000146120e9578061048602906104868204036116f5576040519061354a82611dc5565b600381036137a55750793e3aeb4ae1383562f4b82261d969f7ac94ca40000000000000007a184f03e93ff9f4daa797ed6e38ed64bf6a1f01000000000000000082061015613746575080611a030290611a038204036116f557604051906134df82611dc5565b7a184f03e93ff9f4daa797ed6e38ed64bf6a1f0100000000000000007a036738de185112eb696211e159e3cb8b70230f80000000000000009106106000146120e9578061053402906105348204036116f5576040519061354a82611dc5565b6004810361386a5750793e3aeb4ae1383562f4b82261d969f7ac94ca40000000000000007a184f03e93ff9f4daa797ed6e38ed64bf6a1f0100000000000000008206101561380b575080611de90290611de98204036116f557604051906134df82611dc5565b7a184f03e93ff9f4daa797ed6e38ed64bf6a1f0100000000000000007a036738de185112eb696211e159e3cb8b70230f80000000000000009106106000146120e957806105fb02906105fb8204036116f5576040519061354a82611dc5565b6005810361392f5750793e3aeb4ae1383562f4b82261d969f7ac94ca40000000000000007a184f03e93ff9f4daa797ed6e38ed64bf6a1f010000000000000000820610156138d057508061226602906122668204036116f557604051906134df82611dc5565b7a184f03e93ff9f4daa797ed6e38ed64bf6a1f0100000000000000007a036738de185112eb696211e159e3cb8b70230f80000000000000009106106000146120e957806106e102906106e18204036116f5576040519061354a82611dc5565b6006036139f257793e3aeb4ae1383562f4b82261d969f7ac94ca40000000000000007a184f03e93ff9f4daa797ed6e38ed64bf6a1f0100000000000000008206101561399357508061278f029061278f8204036116f557604051906134df82611dc5565b7a184f03e93ff9f4daa797ed6e38ed64bf6a1f0100000000000000007a036738de185112eb696211e159e3cb8b70230f80000000000000009106106000146120e957806107e902906107e98204036116f5576040519061354a82611dc5565b793e3aeb4ae1383562f4b82261d969f7ac94ca40000000000000007a184f03e93ff9f4daa797ed6e38ed64bf6a1f01000000000000000082061015613a4f575080612d7e0290612d7e8204036116f557604051906134df82611dc5565b7a184f03e93ff9f4daa797ed6e38ed64bf6a1f0100000000000000007a036738de185112eb696211e159e3cb8b70230f80000000000000009106106000146120e9578061091902906109198204036116f5576040519061354a82611dc5565b600581036140df575080613b855750792eac307828ea280a378a19c9630f79c16f97b0000000000000007a184f03e93ff9f4daa797ed6e38ed64bf6a1f01000000000000000082061015613b265750806168a102906168a18204036116f55760405190613b1a82611dc5565b60078252602082015290565b7a184f03e93ff9f4daa797ed6e38ed64bf6a1f0100000000000000007a03e3aeb4ae1383562f4b82261d969f7ac94ca400000000000000009106106000146120e95780610a770290610a778204036116f5576040519061354a82611dc5565b60018103613c4a5750792eac307828ea280a378a19c9630f79c16f97b0000000000000007a184f03e93ff9f4daa797ed6e38ed64bf6a1f01000000000000000082061015613beb57508061785302906178538204036116f55760405190613b1a82611dc5565b7a184f03e93ff9f4daa797ed6e38ed64bf6a1f0100000000000000007a03e3aeb4ae1383562f4b82261d969f7ac94ca400000000000000009106106000146120e95780610c080290610c088204036116f5576040519061354a82611dc5565b60028103613d0f5750792eac307828ea280a378a19c9630f79c16f97b0000000000000007a184f03e93ff9f4daa797ed6e38ed64bf6a1f01000000000000000082061015613cb0575080618a600290618a608204036116f55760405190613b1a82611dc5565b7a184f03e93ff9f4daa797ed6e38ed64bf6a1f0100000000000000007a03e3aeb4ae1383562f4b82261d969f7ac94ca400000000000000009106106000146120e95780610dd60290610dd68204036116f5576040519061354a82611dc5565b60038103613dd45750792eac307828ea280a378a19c9630f79c16f97b0000000000000007a184f03e93ff9f4daa797ed6e38ed64bf6a1f01000000000000000082061015613d75575080619f210290619f218204036116f55760405190613b1a82611dc5565b7a184f03e93ff9f4daa797ed6e38ed64bf6a1f0100000000000000007a03e3aeb4ae1383562f4b82261d969f7ac94ca400000000000000009106106000146120e95780610fea0290610fea8204036116f5576040519061354a82611dc5565b60048103613e995750792eac307828ea280a378a19c9630f79c16f97b0000000000000007a184f03e93ff9f4daa797ed6e38ed64bf6a1f01000000000000000082061015613e3a57508061b700029061b7008204036116f55760405190613b1a82611dc5565b7a184f03e93ff9f4daa797ed6e38ed64bf6a1f0100000000000000007a03e3aeb4ae1383562f4b82261d969f7ac94ca400000000000000009106106000146120e9578061124d029061124d8204036116f5576040519061354a82611dc5565b60058103613f5e5750792eac307828ea280a378a19c9630f79c16f97b0000000000000007a184f03e93ff9f4daa797ed6e38ed64bf6a1f01000000000000000082061015613eff57508061d273029061d2738204036116f55760405190613b1a82611dc5565b7a184f03e93ff9f4daa797ed6e38ed64bf6a1f0100000000000000007a03e3aeb4ae1383562f4b82261d969f7ac94ca400000000000000009106106000146120e9578061150b029061150b8204036116f5576040519061354a82611dc5565b60060361402157792eac307828ea280a378a19c9630f79c16f97b0000000000000007a184f03e93ff9f4daa797ed6e38ed64bf6a1f01000000000000000082061015613fc257508061f204029061f2048204036116f55760405190613b1a82611dc5565b7a184f03e93ff9f4daa797ed6e38ed64bf6a1f0100000000000000007a03e3aeb4ae1383562f4b82261d969f7ac94ca400000000000000009106106000146120e9578061183402906118348204036116f5576040519061354a82611dc5565b792eac307828ea280a378a19c9630f79c16f97b0000000000000007a184f03e93ff9f4daa797ed6e38ed64bf6a1f01000000000000000082061015614080575080620116520290620116528204036116f55760405190613b1a82611dc5565b7a184f03e93ff9f4daa797ed6e38ed64bf6a1f0100000000000000007a03e3aeb4ae1383562f4b82261d969f7ac94ca400000000000000009106106000146120e95780611bd50290611bd58204036116f5576040519061354a82611dc5565b60060361471c57806141b65750793e3aeb4ae1383562f4b82261d969f7ac94ca40000000000000007a184f03e93ff9f4daa797ed6e38ed64bf6a1f01000000000000000082061015614157575080620320290290620320298204036116f5576040519061414b82611dc5565b60088252602082015290565b7a184f03e93ff9f4daa797ed6e38ed64bf6a1f0100000000000000007a070caca77b835e0c35b8dbe515a1010e8cdae940000000000000009106106000146120e9578061500402906150048204036116f557604051906128a782611dc5565b6001810361427d5750793e3aeb4ae1383562f4b82261d969f7ac94ca40000000000000007a184f03e93ff9f4daa797ed6e38ed64bf6a1f0100000000000000008206101561421e5750806203982f02906203982f8204036116f5576040519061414b82611dc5565b7a184f03e93ff9f4daa797ed6e38ed64bf6a1f0100000000000000007a070caca77b835e0c35b8dbe515a1010e8cdae940000000000000009106106000146120e95780615c050290615c058204036116f557604051906128a782611dc5565b600281036143445750793e3aeb4ae1383562f4b82261d969f7ac94ca40000000000000007a184f03e93ff9f4daa797ed6e38ed64bf6a1f010000000000000000820610156142e5575080620422360290620422368204036116f5576040519061414b82611dc5565b7a184f03e93ff9f4daa797ed6e38ed64bf6a1f0100000000000000007a070caca77b835e0c35b8dbe515a1010e8cdae940000000000000009106106000146120e957806169d202906169d28204036116f557604051906128a782611dc5565b6003810361440b5750793e3aeb4ae1383562f4b82261d969f7ac94ca40000000000000007a184f03e93ff9f4daa797ed6e38ed64bf6a1f010000000000000000820610156143ac5750806204c0f202906204c0f28204036116f5576040519061414b82611dc5565b7a184f03e93ff9f4daa797ed6e38ed64bf6a1f0100000000000000007a070caca77b835e0c35b8dbe515a1010e8cdae940000000000000009106106000146120e957806179b202906179b28204036116f557604051906128a782611dc5565b600481036144d25750793e3aeb4ae1383562f4b82261d969f7ac94ca40000000000000007a184f03e93ff9f4daa797ed6e38ed64bf6a1f010000000000000000820610156144735750806205777c02906205777c8204036116f5576040519061414b82611dc5565b7a184f03e93ff9f4daa797ed6e38ed64bf6a1f0100000000000000007a070caca77b835e0c35b8dbe515a1010e8cdae940000000000000009106106000146120e95780618bf30290618bf38204036116f557604051906128a782611dc5565b600581036145995750793e3aeb4ae1383562f4b82261d969f7ac94ca40000000000000007a184f03e93ff9f4daa797ed6e38ed64bf6a1f0100000000000000008206101561453a575080620649680290620649688204036116f5576040519061414b82611dc5565b7a184f03e93ff9f4daa797ed6e38ed64bf6a1f0100000000000000007a070caca77b835e0c35b8dbe515a1010e8cdae940000000000000009106106000146120e9578061a0f1029061a0f18204036116f557604051906128a782611dc5565b60060361465e57793e3aeb4ae1383562f4b82261d969f7ac94ca40000000000000007a184f03e93ff9f4daa797ed6e38ed64bf6a1f010000000000000000820610156145ff57508062073ad2029062073ad28204036116f5576040519061414b82611dc5565b7a184f03e93ff9f4daa797ed6e38ed64bf6a1f0100000000000000007a070caca77b835e0c35b8dbe515a1010e8cdae940000000000000009106106000146120e9578061b915029061b9158204036116f557604051906128a782611dc5565b793e3aeb4ae1383562f4b82261d969f7ac94ca40000000000000007a184f03e93ff9f4daa797ed6e38ed64bf6a1f010000000000000000820610156146bd575080620850710290620850718204036116f5576040519061414b82611dc5565b7a184f03e93ff9f4daa797ed6e38ed64bf6a1f0100000000000000007a070caca77b835e0c35b8dbe515a1010e8cdae940000000000000009106106000146120e9578061d4d8029061d4d88204036116f557604051906128a782611dc5565b8061478f57507a184f03e93ff9f4daa797ed6e38ed64bf6a1f0100000000000000007a0a35aa9a48f338c23c2635a40dab62a250692e80000000000000009106106000146120e957806202de4f02906202de4f8204036116f5576040519061478382611dc5565b60068252602082015290565b600181036147f957507a184f03e93ff9f4daa797ed6e38ed64bf6a1f0100000000000000007a0a35aa9a48f338c23c2635a40dab62a250692e80000000000000009106106000146120e9578062034c74029062034c748204036116f5576040519061478382611dc5565b6002810361486357507a184f03e93ff9f4daa797ed6e38ed64bf6a1f0100000000000000007a0a35aa9a48f338c23c2635a40dab62a250692e80000000000000009106106000146120e957806203cb1f02906203cb1f8204036116f5576040519061478382611dc5565b600381036148cd57507a184f03e93ff9f4daa797ed6e38ed64bf6a1f0100000000000000007a0a35aa9a48f338c23c2635a40dab62a250692e80000000000000009106106000146120e9578062045cca029062045cca8204036116f5576040519061478382611dc5565b6004810361493757507a184f03e93ff9f4daa797ed6e38ed64bf6a1f0100000000000000007a0a35aa9a48f338c23c2635a40dab62a250692e80000000000000009106106000146120e957806205044f02906205044f8204036116f5576040519061478382611dc5565b600581036149a157507a184f03e93ff9f4daa797ed6e38ed64bf6a1f0100000000000000007a0a35aa9a48f338c23c2635a40dab62a250692e80000000000000009106106000146120e957806205c4f402906205c4f48204036116f5576040519061478382611dc5565b600603614a09577a184f03e93ff9f4daa797ed6e38ed64bf6a1f0100000000000000007a0a35aa9a48f338c23c2635a40dab62a250692e80000000000000009106106000146120e957806206a27f02906206a27f8204036116f5576040519061478382611dc5565b50806301107a4c02906301107a4c8204036116f55760405190614a2b82611dc5565b60098252602082015290565b906000602091828151910182855af115610819576000513d614ab9575073ffffffffffffffffffffffffffffffffffffffff81163b155b614a755750565b73ffffffffffffffffffffffffffffffffffffffff907f5274afe7000000000000000000000000000000000000000000000000000000006000521660045260246000fd5b60011415614a6e56fea26469706673582212200bafcb3b2907cdd5f4ec0f6569c29799a9ddd8a6df4ba132a74c8b6aad6de6ff64736f6c634300081e0033",
  "linkReferences": {},
  "deployedLinkReferences": {}
}