{
  "_format": "hh-sol-artifact-1",
  "contractName": "Scratching",
  "sourceName": "contracts/game/Scratching.sol",
  "abi": [
    {
      "inputs": [
        {
          "internalType": "address",
          "name": "scratchingBoard",
          "type": "address"
        },
        {
          "internalType": "contract IERC20",
          "name": "erc20Token",
          "type": "address"
        },
        {
          "internalType": "contract IRNGProvider",
          "name": "rngProvider",
          "type": "address"
        },
        {
          "internalType": "contract IPointsV2",
          "name": "pointsV2",
          "type": "address"
        }
      ],
      "stateMutability": "nonpayable",
      "type": "constructor"
    },
    {
      "inputs": [],
      "name": "FailedCall",
      "type": "error"
    },
    {
      "inputs": [],
      "name": "IllegalInterfaceId",
      "type": "error"
    },
    {
      "inputs": [],
      "name": "InconsistentArrayLengths",
      "type": "error"
    },
    {
      "inputs": [
        {
          "internalType": "address",
          "name": "caller",
          "type": "address"
        }
      ],
      "name": "IncorrectCallbackCaller",
      "type": "error"
    },
    {
      "inputs": [
        {
          "internalType": "uint256",
          "name": "tokenId",
          "type": "uint256"
        },
        {
          "internalType": "uint256",
          "name": "requiredAmount",
          "type": "uint256"
        },
        {
          "internalType": "uint256",
          "name": "providedAmount",
          "type": "uint256"
        }
      ],
      "name": "IncorrectPaymentAmount",
      "type": "error"
    },
    {
      "inputs": [
        {
          "internalType": "address",
          "name": "tokenContract",
          "type": "address"
        }
      ],
      "name": "IncorrectTokenContractType",
      "type": "error"
    },
    {
      "inputs": [
        {
          "internalType": "uint256",
          "name": "balance",
          "type": "uint256"
        },
        {
          "internalType": "uint256",
          "name": "needed",
          "type": "uint256"
        }
      ],
      "name": "InsufficientBalance",
      "type": "error"
    },
    {
      "inputs": [
        {
          "internalType": "address",
          "name": "account",
          "type": "address"
        }
      ],
      "name": "NotContractOwner",
      "type": "error"
    },
    {
      "inputs": [
        {
          "internalType": "uint256",
          "name": "tokenId",
          "type": "uint256"
        },
        {
          "internalType": "address",
          "name": "owner",
          "type": "address"
        },
        {
          "internalType": "address",
          "name": "caller",
          "type": "address"
        }
      ],
      "name": "NotTheTokenOwner",
      "type": "error"
    },
    {
      "inputs": [
        {
          "internalType": "address",
          "name": "wrongCaller",
          "type": "address"
        }
      ],
      "name": "OnlyRNGProviderCanFulfill",
      "type": "error"
    },
    {
      "inputs": [
        {
          "internalType": "address",
          "name": "token",
          "type": "address"
        }
      ],
      "name": "SafeERC20FailedOperation",
      "type": "error"
    },
    {
      "inputs": [
        {
          "internalType": "uint256",
          "name": "tokenId",
          "type": "uint256"
        },
        {
          "internalType": "uint256",
          "name": "requestId",
          "type": "uint256"
        }
      ],
      "name": "ScratchRequestPending",
      "type": "error"
    },
    {
      "inputs": [
        {
          "internalType": "uint256",
          "name": "requestId",
          "type": "uint256"
        }
      ],
      "name": "UnknownRequestId",
      "type": "error"
    },
    {
      "inputs": [
        {
          "internalType": "uint8",
          "name": "decimals",
          "type": "uint8"
        }
      ],
      "name": "UnsupportedERC20TokenDecimals",
      "type": "error"
    },
    {
      "anonymous": false,
      "inputs": [
        {
          "indexed": false,
          "internalType": "address",
          "name": "newHolder",
          "type": "address"
        }
      ],
      "name": "ERC20TokenHolderUpdated",
      "type": "event"
    },
    {
      "anonymous": false,
      "inputs": [
        {
          "indexed": true,
          "internalType": "address",
          "name": "previousOwner",
          "type": "address"
        },
        {
          "indexed": true,
          "internalType": "address",
          "name": "newOwner",
          "type": "address"
        }
      ],
      "name": "OwnershipTransferred",
      "type": "event"
    },
    {
      "anonymous": false,
      "inputs": [
        {
          "indexed": false,
          "internalType": "uint256",
          "name": "tokenId",
          "type": "uint256"
        },
        {
          "indexed": false,
          "internalType": "uint256",
          "name": "startScratchPosition",
          "type": "uint256"
        },
        {
          "indexed": false,
          "internalType": "uint256",
          "name": "endScratchPosition",
          "type": "uint256"
        },
        {
          "indexed": false,
          "internalType": "enum ScratchingLib.RewardType",
          "name": "rewardType",
          "type": "uint8"
        },
        {
          "indexed": false,
          "internalType": "uint256",
          "name": "rewardAmount",
          "type": "uint256"
        }
      ],
      "name": "ScratchedRow",
      "type": "event"
    },
    {
      "anonymous": false,
      "inputs": [
        {
          "indexed": false,
          "internalType": "uint256",
          "name": "tokenId",
          "type": "uint256"
        },
        {
          "indexed": false,
          "internalType": "uint256",
          "name": "scratchPosition",
          "type": "uint256"
        },
        {
          "indexed": false,
          "internalType": "enum ScratchingLib.RewardType",
          "name": "rewardType",
          "type": "uint8"
        },
        {
          "indexed": false,
          "internalType": "uint256",
          "name": "rewardAmount",
          "type": "uint256"
        }
      ],
      "name": "ScratchedSingle",
      "type": "event"
    },
    {
      "inputs": [],
      "name": "ERC20_DECIMALS",
      "outputs": [
        {
          "internalType": "uint8",
          "name": "",
          "type": "uint8"
        }
      ],
      "stateMutability": "view",
      "type": "function"
    },
    {
      "inputs": [],
      "name": "ERC20_TOKEN",
      "outputs": [
        {
          "internalType": "contract IERC20",
          "name": "",
          "type": "address"
        }
      ],
      "stateMutability": "view",
      "type": "function"
    },
    {
      "inputs": [],
      "name": "POINTS",
      "outputs": [
        {
          "internalType": "contract IPointsV2",
          "name": "",
          "type": "address"
        }
      ],
      "stateMutability": "view",
      "type": "function"
    },
    {
      "inputs": [],
      "name": "RNG_PROVIDER",
      "outputs": [
        {
          "internalType": "contract IRNGProvider",
          "name": "",
          "type": "address"
        }
      ],
      "stateMutability": "view",
      "type": "function"
    },
    {
      "inputs": [],
      "name": "SCRATCHING_BOARD",
      "outputs": [
        {
          "internalType": "address",
          "name": "",
          "type": "address"
        }
      ],
      "stateMutability": "view",
      "type": "function"
    },
    {
      "inputs": [
        {
          "internalType": "uint256",
          "name": "tokenId",
          "type": "uint256"
        }
      ],
      "name": "boardPositions",
      "outputs": [
        {
          "internalType": "uint256",
          "name": "",
          "type": "uint256"
        }
      ],
      "stateMutability": "view",
      "type": "function"
    },
    {
      "inputs": [],
      "name": "erc20TokenHolder",
      "outputs": [
        {
          "internalType": "address",
          "name": "",
          "type": "address"
        }
      ],
      "stateMutability": "view",
      "type": "function"
    },
    {
      "inputs": [
        {
          "internalType": "uint256",
          "name": "requestId",
          "type": "uint256"
        },
        {
          "internalType": "uint256[]",
          "name": "randomWords",
          "type": "uint256[]"
        }
      ],
      "name": "fulfillRandomness",
      "outputs": [],
      "stateMutability": "nonpayable",
      "type": "function"
    },
    {
      "inputs": [],
      "name": "getMintPrice",
      "outputs": [
        {
          "internalType": "uint256",
          "name": "",
          "type": "uint256"
        }
      ],
      "stateMutability": "pure",
      "type": "function"
    },
    {
      "inputs": [
        {
          "internalType": "uint256",
          "name": "tokenId",
          "type": "uint256"
        }
      ],
      "name": "getRowScratchPrice",
      "outputs": [
        {
          "internalType": "uint256",
          "name": "",
          "type": "uint256"
        }
      ],
      "stateMutability": "view",
      "type": "function"
    },
    {
      "inputs": [
        {
          "internalType": "uint256",
          "name": "tokenId",
          "type": "uint256"
        }
      ],
      "name": "getSingleScratchPrice",
      "outputs": [
        {
          "internalType": "uint256",
          "name": "",
          "type": "uint256"
        }
      ],
      "stateMutability": "view",
      "type": "function"
    },
    {
      "inputs": [
        {
          "internalType": "address",
          "name": "spender",
          "type": "address"
        },
        {
          "internalType": "uint256",
          "name": "amount",
          "type": "uint256"
        },
        {
          "internalType": "bytes",
          "name": "data",
          "type": "bytes"
        }
      ],
      "name": "onPointsSpent",
      "outputs": [
        {
          "internalType": "bytes4",
          "name": "",
          "type": "bytes4"
        }
      ],
      "stateMutability": "nonpayable",
      "type": "function"
    },
    {
      "inputs": [],
      "name": "owner",
      "outputs": [
        {
          "internalType": "address",
          "name": "",
          "type": "address"
        }
      ],
      "stateMutability": "view",
      "type": "function"
    },
    {
      "inputs": [
        {
          "internalType": "uint256",
          "name": "tokenId",
          "type": "uint256"
        }
      ],
      "name": "pendingScratchRequest",
      "outputs": [
        {
          "internalType": "uint256",
          "name": "requestId",
          "type": "uint256"
        }
      ],
      "stateMutability": "view",
      "type": "function"
    },
    {
      "inputs": [
        {
          "internalType": "address[]",
          "name": "accounts",
          "type": "address[]"
        },
        {
          "internalType": "contract IERC20[]",
          "name": "tokens",
          "type": "address[]"
        },
        {
          "internalType": "uint256[]",
          "name": "amounts",
          "type": "uint256[]"
        }
      ],
      "name": "recoverERC20s",
      "outputs": [],
      "stateMutability": "nonpayable",
      "type": "function"
    },
    {
      "inputs": [
        {
          "internalType": "address[]",
          "name": "accounts",
          "type": "address[]"
        },
        {
          "internalType": "contract IERC721[]",
          "name": "contracts",
          "type": "address[]"
        },
        {
          "internalType": "uint256[]",
          "name": "tokenIds",
          "type": "uint256[]"
        }
      ],
      "name": "recoverERC721s",
      "outputs": [],
      "stateMutability": "nonpayable",
      "type": "function"
    },
    {
      "inputs": [
        {
          "internalType": "address payable[]",
          "name": "accounts",
          "type": "address[]"
        },
        {
          "internalType": "uint256[]",
          "name": "amounts",
          "type": "uint256[]"
        }
      ],
      "name": "recoverETH",
      "outputs": [],
      "stateMutability": "nonpayable",
      "type": "function"
    },
    {
      "inputs": [
        {
          "internalType": "uint256",
          "name": "requestId",
          "type": "uint256"
        }
      ],
      "name": "scratchRequests",
      "outputs": [
        {
          "internalType": "uint256",
          "name": "tokenId",
          "type": "uint256"
        },
        {
          "internalType": "enum Scratching.RequestType",
          "name": "requestType",
          "type": "uint8"
        }
      ],
      "stateMutability": "view",
      "type": "function"
    },
    {
      "inputs": [
        {
          "internalType": "address",
          "name": "holder",
          "type": "address"
        }
      ],
      "name": "setERC20TokenHolder",
      "outputs": [],
      "stateMutability": "nonpayable",
      "type": "function"
    },
    {
      "inputs": [
        {
          "internalType": "bytes4",
          "name": "interfaceId",
          "type": "bytes4"
        }
      ],
      "name": "supportsInterface",
      "outputs": [
        {
          "internalType": "bool",
          "name": "",
          "type": "bool"
        }
      ],
      "stateMutability": "view",
      "type": "function"
    },
    {
      "inputs": [
        {
          "internalType": "address",
          "name": "newOwner",
          "type": "address"
        }
      ],
      "name": "transferOwnership",
      "outputs": [],
      "stateMutability": "nonpayable",
      "type": "function"
    }
  ],
  "bytecode": "0x610120806040523461024557608081614ce68038038091610020828561024a565b833981010312610245578051906001600160a01b03821682036102455760208101516001600160a01b03811690818103610245576040830151926001600160a01b03841684036102455760600151936001600160a01b038516850361024557600494602094336101e6575b6307f5828d60e41b6000527fca9d3e17f264b0f3984e2634e94adb37fa3e6a8103f06aeae6fa59e21c769f5d86526040600020600160ff1982541617905560805260a05260c05260e0526040519283809263313ce56760e01b82525afa9081156101da57600091610199575b508060ff9161010052166002811061018557604051614a62908161028482396080518181816106e301528181610bc7015261134f015260a05181818161059e0152610fdd015260c05181818161064f015281816108d90152818161127a0152611ecd015260e0518181816104ea0152611fa20152610100518181816111c1015281816113ca01526115230152f35b633c66f6f560e21b60005260045260246000fd5b6020813d6020116101d2575b816101b26020938361024a565b810103126101ce575160ff811681036101ce57905060ff6100f7565b5080fd5b3d91506101a5565b6040513d6000823e3d90fd5b7fc9ed16f33ab3a66c84bfd83099ccb2a8845871e2e1c1928f63797152f0fd54cc80546001600160a01b0319163390811790915560007f8be0079c531659141344cd1fd0a4f28419497f9722a3daafe3b4186f6b6457e08180a361008b565b600080fd5b601f909101601f19168101906001600160401b0382119082101761026d57604052565b634e487b7160e01b600052604160045260246000fdfe6080604052600436101561001257600080fd5b60003560e01c806301ffc9a7146117a5578063024f5f4c1461175b57806308868017146112e85780630ac7843c1461129e5780633a1068001461122f578063400c1050146111e55780636b0219d71461118957806373c8a9581461104b5780637a33626c146110015780637f6e428114610f925780638da5cb5b14610f21578063a7f93ebd14610ee5578063b763d84714610e82578063be16663714610e30578063c3666c3614610beb578063c440450e14610b7c578063c8dadb9c14610a98578063d2741e831461050e578063efc4c6311461049f578063f2fde38b146103895763f7ba94bd1461010357600080fd5b3461032d5760407ffffffffffffffffffffffffffffffffffffffffffffffffffffffffffffffffc36011261032d5760043567ffffffffffffffff811161032d57610152903690600401611815565b60243567ffffffffffffffff811161032d57610172903690600401611815565b909173ffffffffffffffffffffffffffffffffffffffff7fc9ed16f33ab3a66c84bfd83099ccb2a8845871e2e1c1928f63797152f0fd54cc541673ffffffffffffffffffffffffffffffffffffffff331690810361035c57508181036103325760005b8181106101de57005b6101e98183876119ab565b3573ffffffffffffffffffffffffffffffffffffffff811680910361032d576102138285876119ab565b35908147106102fb57600080809381935af13d156102f3573d9067ffffffffffffffff82116102c4576040519161027260207fffffffffffffffffffffffffffffffffffffffffffffffffffffffffffffffe0601f8401160184611e05565b82523d6000602084013e5b1561028b57506001016101d5565b80511561029a57805190602001fd5b7fd6bda2750000000000000000000000000000000000000000000000000000000060005260046000fd5b7f4e487b7100000000000000000000000000000000000000000000000000000000600052604160045260246000fd5b60609061027d565b50477fcf4791810000000000000000000000000000000000000000000000000000000060005260045260245260446000fd5b600080fd5b7f658253360000000000000000000000000000000000000000000000000000000060005260046000fd5b7f2ef4875e0000000000000000000000000000000000000000000000000000000060005260045260246000fd5b3461032d5760207ffffffffffffffffffffffffffffffffffffffffffffffffffffffffffffffffc36011261032d576103c06118d9565b7fc9ed16f33ab3a66c84bfd83099ccb2a8845871e2e1c1928f63797152f0fd54cc9073ffffffffffffffffffffffffffffffffffffffff825416908133036104715773ffffffffffffffffffffffffffffffffffffffff169182820361042257005b827fffffffffffffffffffffffff00000000000000000000000000000000000000008254161790557f8be0079c531659141344cd1fd0a4f28419497f9722a3daafe3b4186f6b6457e0600080a3005b7f2ef4875e000000000000000000000000000000000000000000000000000000006000523360045260246000fd5b3461032d5760007ffffffffffffffffffffffffffffffffffffffffffffffffffffffffffffffffc36011261032d57602060405173ffffffffffffffffffffffffffffffffffffffff7f0000000000000000000000000000000000000000000000000000000000000000168152f35b3461032d5760607ffffffffffffffffffffffffffffffffffffffffffffffffffffffffffffffffc36011261032d576105456118d9565b602435906044359067ffffffffffffffff821161032d573660238301121561032d57816004013567ffffffffffffffff811161032d57820136602482011161032d5773ffffffffffffffffffffffffffffffffffffffff7f0000000000000000000000000000000000000000000000000000000000000000163303610a6a576040908390031261032d57602482013591600383101561032d576000919060440135828461088b57505073ffffffffffffffffffffffffffffffffffffffff604051917f6a627842000000000000000000000000000000000000000000000000000000008352166004820152602081602481600073ffffffffffffffffffffffffffffffffffffffff7f0000000000000000000000000000000000000000000000000000000000000000165af190811561081957600091610859575b50916064936001945b81810361082557505063ffffffff604051947f811ee32a000000000000000000000000000000000000000000000000000000008652166004850152602084602481600073ffffffffffffffffffffffffffffffffffffffff7f0000000000000000000000000000000000000000000000000000000000000000165af1938415610819576000946107e2575b5060405161072181611de9565b83815260208101926107b357600191835284600052600260205260406000209051815501905160038110156107b35760ff7fffffffffffffffffffffffffffffffffffffffffffffffffffffffffffffff008354169116179055600052600360205260406000205560206040517fd2741e83000000000000000000000000000000000000000000000000000000008152f35b7f4e487b7100000000000000000000000000000000000000000000000000000000600052602160045260246000fd5b90936020823d602011610811575b816107fd60209383611e05565b8101031261080e5750519284610714565b80fd5b3d91506107f0565b6040513d6000823e3d90fd5b847fa5b1e30c0000000000000000000000000000000000000000000000000000000060005260045260245260445260646000fd5b90506020813d602011610883575b8161087460209383611e05565b8101031261032d575184610680565b3d9150610867565b92509290604051907f6352211e00000000000000000000000000000000000000000000000000000000825284600483015260208260248173ffffffffffffffffffffffffffffffffffffffff7f0000000000000000000000000000000000000000000000000000000000000000165afa918215610a5f578492610a16575b5073ffffffffffffffffffffffffffffffffffffffff80911691168181036109e257505082825260036020526040822054158383526003602052604083205490156109b2575081600182036109795750826000526001602052610970604060002054611a4d565b93600194610689565b6040818561098e9352600160205220546119bb565b9383600052600160205263ffffffff6109ab604060002054611e8c565b1694610689565b90506044927f0d687298000000000000000000000000000000000000000000000000000000008352600452602452fd5b9091506064937f4b96e575000000000000000000000000000000000000000000000000000000008452600452602452604452fd5b73ffffffffffffffffffffffffffffffffffffffff919250610a50829160203d602011610a58575b610a488183611e05565b810190611e46565b929150610909565b503d610a3e565b6040513d86823e3d90fd5b7fe588902b000000000000000000000000000000000000000000000000000000006000523360045260246000fd5b3461032d5760207ffffffffffffffffffffffffffffffffffffffffffffffffffffffffffffffffc36011261032d57610acf6118d9565b7fc9ed16f33ab3a66c84bfd83099ccb2a8845871e2e1c1928f63797152f0fd54cc54339073ffffffffffffffffffffffffffffffffffffffff16810361035c577f266c47b41c6a585ba86773281be85dbce6df3d6082fd35df894deca1a091d512602073ffffffffffffffffffffffffffffffffffffffff8416807fffffffffffffffffffffffff00000000000000000000000000000000000000006000541617600055604051908152a1005b3461032d5760007ffffffffffffffffffffffffffffffffffffffffffffffffffffffffffffffffc36011261032d57602060405173ffffffffffffffffffffffffffffffffffffffff7f0000000000000000000000000000000000000000000000000000000000000000168152f35b3461032d57610bf936611846565b7fc9ed16f33ab3a66c84bfd83099ccb2a8845871e2e1c1928f63797152f0fd54cc5493949193909290339073ffffffffffffffffffffffffffffffffffffffff16810361035c5750808214801590610e26575b6103325760005b828110610c5c57005b73ffffffffffffffffffffffffffffffffffffffff610c84610c7f83858a6119ab565b611a2c565b166040517f01ffc9a70000000000000000000000000000000000000000000000000000000081527f80ac58cd000000000000000000000000000000000000000000000000000000006004820152602081602481855afa90811561081957600091610de8575b5015610dbb575073ffffffffffffffffffffffffffffffffffffffff610d13610c7f83858a6119ab565b1690610d23610c7f82868b6119ab565b610d2e8287896119ab565b35833b1561032d576040517f42842e0e00000000000000000000000000000000000000000000000000000000815230600482015273ffffffffffffffffffffffffffffffffffffffff9290921660248301526044820152916000908390606490829084905af191821561081957600192610daa575b5001610c53565b6000610db591611e05565b88610da3565b7f986b9f1f0000000000000000000000000000000000000000000000000000000060005260045260246000fd5b6020813d8211610e1e575b81610e0060209383611e05565b81010312610e1a575190811515820361080e575089610ce9565b5080fd5b3d9150610df3565b5082821415610c4c565b3461032d5760007ffffffffffffffffffffffffffffffffffffffffffffffffffffffffffffffffc36011261032d57602073ffffffffffffffffffffffffffffffffffffffff60005416604051908152f35b3461032d5760207ffffffffffffffffffffffffffffffffffffffffffffffffffffffffffffffffc36011261032d576004356000526002602052604060002060ff60018254920154169060405190815260038210156107b3576040916020820152f35b3461032d5760007ffffffffffffffffffffffffffffffffffffffffffffffffffffffffffffffffc36011261032d57602060645b604051908152f35b3461032d5760007ffffffffffffffffffffffffffffffffffffffffffffffffffffffffffffffffc36011261032d57602073ffffffffffffffffffffffffffffffffffffffff7fc9ed16f33ab3a66c84bfd83099ccb2a8845871e2e1c1928f63797152f0fd54cc5416604051908152f35b3461032d5760007ffffffffffffffffffffffffffffffffffffffffffffffffffffffffffffffffc36011261032d57602060405173ffffffffffffffffffffffffffffffffffffffff7f0000000000000000000000000000000000000000000000000000000000000000168152f35b3461032d5760207ffffffffffffffffffffffffffffffffffffffffffffffffffffffffffffffffc36011261032d5760043560005260016020526020610f19604060002054611a4d565b3461032d5761105936611846565b929394909173ffffffffffffffffffffffffffffffffffffffff7fc9ed16f33ab3a66c84bfd83099ccb2a8845871e2e1c1928f63797152f0fd54cc541673ffffffffffffffffffffffffffffffffffffffff331690810361035c575080861480159061117f575b6103325760005b8681106110d057005b6110db8183886119ab565b359073ffffffffffffffffffffffffffffffffffffffff8216820361032d5761117960019261110e610c7f848c896119ab565b9061111a848a8a6119ab565b3573ffffffffffffffffffffffffffffffffffffffff604051937fa9059cbb000000000000000000000000000000000000000000000000000000006020860152166024840152604483015260448252611174606483611e05565b6149a1565b016110c7565b50838614156110c0565b3461032d5760007ffffffffffffffffffffffffffffffffffffffffffffffffffffffffffffffffc36011261032d57602060405160ff7f0000000000000000000000000000000000000000000000000000000000000000168152f35b3461032d5760207ffffffffffffffffffffffffffffffffffffffffffffffffffffffffffffffffc36011261032d5760043560005260016020526020610f196040600020546119bb565b3461032d5760007ffffffffffffffffffffffffffffffffffffffffffffffffffffffffffffffffc36011261032d57602060405173ffffffffffffffffffffffffffffffffffffffff7f0000000000000000000000000000000000000000000000000000000000000000168152f35b3461032d5760207ffffffffffffffffffffffffffffffffffffffffffffffffffffffffffffffffc36011261032d5760043560005260036020526020604060002054604051908152f35b3461032d5760407ffffffffffffffffffffffffffffffffffffffffffffffffffffffffffffffffc36011261032d5760243567ffffffffffffffff811161032d57611337903690600401611815565b9073ffffffffffffffffffffffffffffffffffffffff7f000000000000000000000000000000000000000000000000000000000000000016330361172d57600435600052600260205260406000209160ff60018454948560005260036020526000604081205501541660038110156107b35760011061150e57156114df578160005260016020526113f1604060002054917f000000000000000000000000000000000000000000000000000000000000000090358361205f565b60208101519181519160088310156107b3576000926114d057600182018083116114a357858452600160205260408420555b5191600883101561147657509161146e7fad70122cc7d9de88c17d2276190cc297baa68d12f166012d2d7eab6ecb229313949260809460405194855260208501526040840190611e7f565b6060820152a1005b807f4e487b7100000000000000000000000000000000000000000000000000000000602492526021600452fd5b6024847f4e487b710000000000000000000000000000000000000000000000000000000081526011600452fd5b6114da8486611eb6565b611423565b7f4e487b7100000000000000000000000000000000000000000000000000000000600052603260045260246000fd5b826000939293526001602052604060002054927f000000000000000000000000000000000000000000000000000000000000000091600061154d611e9d565b506040519061155b82611de9565b80825260208201529461156d81611e8c565b9460005b87519760088910156107b3576000981580611724575b1561160b57506115ad8661159b8386611e72565b6115a684888a6119ab565b359061205f565b977fffffffffffffffffffffffffffffffffffffffffffffffffffffffffffffffff82146115de5750600101611571565b807f4e487b7100000000000000000000000000000000000000000000000000000000602492526011600452fd5b965092509550925061161e915082611e72565b907fffffffffffffffffffffffffffffffffffffffffffffffffffffffffffffffff8201908282116116f55760208401519380519360088510156107b3576000946116ca57868552600160205260408520555b5192600884101561147657507f86ceb3931dd543c495c675a1027d6a329dbf198204ad44d696903bfd109f255d949260a094926116c292604051958652602086015260408501526060840190611e7f565b6080820152a1005b508183036116e2575b6116dd8587611eb6565b611671565b85845260016020528260408520556116d3565b7f4e487b7100000000000000000000000000000000000000000000000000000000600052601160045260246000fd5b50878210611587565b7fc05bb6cb000000000000000000000000000000000000000000000000000000006000523360045260246000fd5b3461032d5760207ffffffffffffffffffffffffffffffffffffffffffffffffffffffffffffffffc36011261032d5760043560005260016020526020604060002054604051908152f35b3461032d5760207ffffffffffffffffffffffffffffffffffffffffffffffffffffffffffffffffc36011261032d576004357fffffffff000000000000000000000000000000000000000000000000000000008116810361032d5761180b6020916118fc565b6040519015158152f35b9181601f8401121561032d5782359167ffffffffffffffff831161032d576020808501948460051b01011161032d57565b60607ffffffffffffffffffffffffffffffffffffffffffffffffffffffffffffffffc82011261032d5760043567ffffffffffffffff811161032d578161188f91600401611815565b9290929160243567ffffffffffffffff811161032d57816118b291600401611815565b929092916044359067ffffffffffffffff821161032d576118d591600401611815565b9091565b6004359073ffffffffffffffffffffffffffffffffffffffff8216820361032d57565b7fffffffff00000000000000000000000000000000000000000000000000000000167fffffffff0000000000000000000000000000000000000000000000000000000081146119a5577f01ffc9a700000000000000000000000000000000000000000000000000000000811461199f576000527fca9d3e17f264b0f3984e2634e94adb37fa3e6a8103f06aeae6fa59e21c769f5d60205260ff6040600020541690565b50600190565b50600090565b91908110156114df5760051b0190565b60031c806119ca575061055d90565b600181036119d9575061106790565b600281036119e8575061322d90565b600381036119f7575061997d90565b60048103611a0757506201d58790565b60058103611a17575062059c4b90565b600603611a2557621129a990565b62337b8e90565b3573ffffffffffffffffffffffffffffffffffffffff8116810361032d5790565b600781169060031c80611abe575080611a665750606490565b60018103611a745750607390565b60028103611a825750608490565b60038103611a905750609890565b60048103611a9e575060af90565b60058103611aac575060c990565b600603611ab85760e790565b61010a90565b60018103611b31575080611ad3575061013290565b60018103611ae2575061016090565b60028103611af1575061019590565b60038103611b0057506101d190565b60048103611b0f575061021790565b60058103611b1e575061026790565b600603611b2b576102c490565b61032e90565b60028103611ba4575080611b4657506103a890565b60018103611b55575061043490565b60028103611b6457506104d690565b60038103611b73575061058f90565b60048103611b82575061066590565b60058103611b91575061075a90565b600603611b9e5761087490565b6109b990565b60038103611c17575080611bb95750610b2f90565b60018103611bc85750610cdc90565b60028103611bd75750610eca90565b60038103611be6575061110290565b60048103611bf5575061138f90565b60058103611c04575061167e90565b600603611c11576119dd90565b611dbe90565b60048103611c8a575080611c2c575061223590565b60018103611c3b575061275690565b60028103611c4a5750612d3c90565b60038103611c59575061340690565b60048103611c685750613bd390565b60058103611c7757506144cc90565b600603611c8457614f1e90565b615afc90565b60058103611cfe575080611c9f57506168a290565b60018103611cae575061785490565b60028103611cbd5750618a6190565b60038103611ccc5750619f2390565b60048103611cdb575061b70290565b60058103611cea575061d27590565b600603611cf75761f20690565b6201165490565b600603611d775780611d1257506201401490565b60018103611d2257506201701790565b60028103611d3257506201a74e90565b60038103611d4257506201e6cd90565b60048103611d52575062022fd290565b60058103611d625750620283cb90565b600603611d70576202e45c90565b6203536a90565b80611d8457506203d32190565b60018103611d945750620465ff90565b60028103611da4575062050ee590565b60038103611db457506205d12190565b60048103611dc457506206b08090565b60058103611dd457506207b16090565b600603611de2576208d8c890565b620927c090565b6040810190811067ffffffffffffffff8211176102c457604052565b90601f7fffffffffffffffffffffffffffffffffffffffffffffffffffffffffffffffe0910116810190811067ffffffffffffffff8211176102c457604052565b9081602091031261032d575173ffffffffffffffffffffffffffffffffffffffff8116810361032d5790565b919082018092116116f557565b9060088210156107b35752565b600716600803600881116116f55790565b60405190611eaa82611de9565b60006020838281520152565b73ffffffffffffffffffffffffffffffffffffffff7f000000000000000000000000000000000000000000000000000000000000000016906040517f6352211e000000000000000000000000000000000000000000000000000000008152600093826004830152602082602481875afa9182156120545790611fc69291869261202f575b5085546040517f23b872dd00000000000000000000000000000000000000000000000000000000602082015273ffffffffffffffffffffffffffffffffffffffff9182166024820152921660448301526064808301919091528152611fa0608482611e05565b7f00000000000000000000000000000000000000000000000000000000000000006149a1565b813b1561202b5782916024839260405194859384927f42966c6800000000000000000000000000000000000000000000000000000000845260048401525af1801561202057612013575050565b8161201d91611e05565b50565b6040513d84823e3d90fd5b8280fd5b611fa091925061204d9060203d602011610a5857610a488183611e05565b9190611f3a565b6040513d87823e3d90fd5b9160ff9060405161206f81611de9565b60008152600060208201525016604d81116116f557606490600a0a049160078160031c911690801560001461225a57507a01f1d75a5709c1ab17a5c1130ecb4fbd64a6520000000000000000917a184f03e93ff9f4daa797ed6e38ed64bf6a1f010000000000000000918061212a575006101561210f578061012c029061012c8204036116f5576040519061210382611de9565b60018252602082015290565b5060405161211c81611de9565b600081526000602082015290565b60018103612157575006101561210f578061015902906101598204036116f5576040519061210382611de9565b60028103612184575006101561210f578061018d029061018d8204036116f5576040519061210382611de9565b600381036121b1575006101561210f57806101c802906101c88204036116f5576040519061210382611de9565b600481036121de575006101561210f578061020d029061020d8204036116f5576040519061210382611de9565b6005810361220b575006101561210f578061025b029061025b8204036116f5576040519061210382611de9565b6006036122365706101561210f57806102b602906102b68204036116f5576040519061210382611de9565b06101561210f578061031e029061031e8204036116f5576040519061210382611de9565b600181036123f757507a01f1d75a5709c1ab17a5c1130ecb4fbd64a6520000000000000000917a184f03e93ff9f4daa797ed6e38ed64bf6a1f01000000000000000091806122c7575006101561210f578061039602906103968204036116f5576040519061210382611de9565b600181036122f4575006101561210f578061041f029061041f8204036116f5576040519061210382611de9565b60028103612321575006101561210f57806104be02906104be8204036116f5576040519061210382611de9565b6003810361234e575006101561210f578061057402906105748204036116f5576040519061210382611de9565b6004810361237b575006101561210f578061064502906106458204036116f5576040519061210382611de9565b600581036123a8575006101561210f578061073602906107368204036116f5576040519061210382611de9565b6006036123d35706101561210f578061084b029061084b8204036116f5576040519061210382611de9565b06101561210f578061098902906109898204036116f5576040519061210382611de9565b60028103612a325750806124da5750797c75d695c2706ac5e97044c3b2d3ef59299480000000000000007a184f03e93ff9f4daa797ed6e38ed64bf6a1f0100000000000000008206101561246f57508061124702906112478204036116f5576040519061246382611de9565b60038252602082015290565b7a184f03e93ff9f4daa797ed6e38ed64bf6a1f0100000000000000007a01f1d75a5709c1ab17a5c1130ecb4fbd64a652000000000000000091061060001461210f578061075002906107508204036116f557604051906124ce82611de9565b60028252602082015290565b6001810361259f5750797c75d695c2706ac5e97044c3b2d3ef59299480000000000000007a184f03e93ff9f4daa797ed6e38ed64bf6a1f0100000000000000008206101561254057508061150502906115058204036116f5576040519061246382611de9565b7a184f03e93ff9f4daa797ed6e38ed64bf6a1f0100000000000000007a01f1d75a5709c1ab17a5c1130ecb4fbd64a652000000000000000091061060001461210f578061086802906108688204036116f557604051906124ce82611de9565b600281036126645750797c75d695c2706ac5e97044c3b2d3ef59299480000000000000007a184f03e93ff9f4daa797ed6e38ed64bf6a1f0100000000000000008206101561260557508061182c029061182c8204036116f5576040519061246382611de9565b7a184f03e93ff9f4daa797ed6e38ed64bf6a1f0100000000000000007a01f1d75a5709c1ab17a5c1130ecb4fbd64a652000000000000000091061060001461210f57806109ab02906109ab8204036116f557604051906124ce82611de9565b600381036127295750797c75d695c2706ac5e97044c3b2d3ef59299480000000000000007a184f03e93ff9f4daa797ed6e38ed64bf6a1f010000000000000000820610156126ca575080611bcc0290611bcc8204036116f5576040519061246382611de9565b7a184f03e93ff9f4daa797ed6e38ed64bf6a1f0100000000000000007a01f1d75a5709c1ab17a5c1130ecb4fbd64a652000000000000000091061060001461210f5780610b1e0290610b1e8204036116f557604051906124ce82611de9565b600481036127ee5750797c75d695c2706ac5e97044c3b2d3ef59299480000000000000007a184f03e93ff9f4daa797ed6e38ed64bf6a1f0100000000000000008206101561278f575080611ff70290611ff78204036116f5576040519061246382611de9565b7a184f03e93ff9f4daa797ed6e38ed64bf6a1f0100000000000000007a01f1d75a5709c1ab17a5c1130ecb4fbd64a652000000000000000091061060001461210f5780610cc90290610cc98204036116f557604051906124ce82611de9565b600581036128b35750797c75d695c2706ac5e97044c3b2d3ef59299480000000000000007a184f03e93ff9f4daa797ed6e38ed64bf6a1f010000000000000000820610156128545750806124c302906124c38204036116f5576040519061246382611de9565b7a184f03e93ff9f4daa797ed6e38ed64bf6a1f0100000000000000007a01f1d75a5709c1ab17a5c1130ecb4fbd64a652000000000000000091061060001461210f5780610eb40290610eb48204036116f557604051906124ce82611de9565b60060361297657797c75d695c2706ac5e97044c3b2d3ef59299480000000000000007a184f03e93ff9f4daa797ed6e38ed64bf6a1f01000000000000000082061015612917575080612a460290612a468204036116f5576040519061246382611de9565b7a184f03e93ff9f4daa797ed6e38ed64bf6a1f0100000000000000007a01f1d75a5709c1ab17a5c1130ecb4fbd64a652000000000000000091061060001461210f57806110e902906110e98204036116f557604051906124ce82611de9565b797c75d695c2706ac5e97044c3b2d3ef59299480000000000000007a184f03e93ff9f4daa797ed6e38ed64bf6a1f010000000000000000820610156129d357508061309e029061309e8204036116f5576040519061246382611de9565b7a184f03e93ff9f4daa797ed6e38ed64bf6a1f0100000000000000007a01f1d75a5709c1ab17a5c1130ecb4fbd64a652000000000000000091061060001461210f578061137202906113728204036116f557604051906124ce82611de9565b60038103613055575080612afd5750797c75d695c2706ac5e97044c3b2d3ef59299480000000000000007a184f03e93ff9f4daa797ed6e38ed64bf6a1f01000000000000000082061015612a9e5750806137e902906137e98204036116f5576040519061246382611de9565b7a184f03e93ff9f4daa797ed6e38ed64bf6a1f0100000000000000007a01f1d75a5709c1ab17a5c1130ecb4fbd64a652000000000000000091061060001461210f578061165d029061165d8204036116f557604051906124ce82611de9565b60018103612bc25750797c75d695c2706ac5e97044c3b2d3ef59299480000000000000007a184f03e93ff9f4daa797ed6e38ed64bf6a1f01000000000000000082061015612b6357508061404b029061404b8204036116f5576040519061246382611de9565b7a184f03e93ff9f4daa797ed6e38ed64bf6a1f0100000000000000007a01f1d75a5709c1ab17a5c1130ecb4fbd64a652000000000000000091061060001461210f57806119b802906119b88204036116f557604051906124ce82611de9565b60028103612c875750797c75d695c2706ac5e97044c3b2d3ef59299480000000000000007a184f03e93ff9f4daa797ed6e38ed64bf6a1f01000000000000000082061015612c285750806149f002906149f08204036116f5576040519061246382611de9565b7a184f03e93ff9f4daa797ed6e38ed64bf6a1f0100000000000000007a01f1d75a5709c1ab17a5c1130ecb4fbd64a652000000000000000091061060001461210f5780611d930290611d938204036116f557604051906124ce82611de9565b60038103612d4c5750797c75d695c2706ac5e97044c3b2d3ef59299480000000000000007a184f03e93ff9f4daa797ed6e38ed64bf6a1f01000000000000000082061015612ced57508061550802906155088204036116f5576040519061246382611de9565b7a184f03e93ff9f4daa797ed6e38ed64bf6a1f0100000000000000007a01f1d75a5709c1ab17a5c1130ecb4fbd64a652000000000000000091061060001461210f578061220302906122038204036116f557604051906124ce82611de9565b60048103612e115750797c75d695c2706ac5e97044c3b2d3ef59299480000000000000007a184f03e93ff9f4daa797ed6e38ed64bf6a1f01000000000000000082061015612db25750806161c902906161c98204036116f5576040519061246382611de9565b7a184f03e93ff9f4daa797ed6e38ed64bf6a1f0100000000000000007a01f1d75a5709c1ab17a5c1130ecb4fbd64a652000000000000000091061060001461210f578061271d029061271d8204036116f557604051906124ce82611de9565b60058103612ed65750797c75d695c2706ac5e97044c3b2d3ef59299480000000000000007a184f03e93ff9f4daa797ed6e38ed64bf6a1f01000000000000000082061015612e7757508061707402906170748204036116f5576040519061246382611de9565b7a184f03e93ff9f4daa797ed6e38ed64bf6a1f0100000000000000007a01f1d75a5709c1ab17a5c1130ecb4fbd64a652000000000000000091061060001461210f5780612cfb0290612cfb8204036116f557604051906124ce82611de9565b600603612f9957797c75d695c2706ac5e97044c3b2d3ef59299480000000000000007a184f03e93ff9f4daa797ed6e38ed64bf6a1f01000000000000000082061015612f3a57508061815202906181528204036116f5576040519061246382611de9565b7a184f03e93ff9f4daa797ed6e38ed64bf6a1f0100000000000000007a01f1d75a5709c1ab17a5c1130ecb4fbd64a652000000000000000091061060001461210f57806133ba02906133ba8204036116f557604051906124ce82611de9565b797c75d695c2706ac5e97044c3b2d3ef59299480000000000000007a184f03e93ff9f4daa797ed6e38ed64bf6a1f01000000000000000082061015612ff65750806194b802906194b88204036116f5576040519061246382611de9565b7a184f03e93ff9f4daa797ed6e38ed64bf6a1f0100000000000000007a01f1d75a5709c1ab17a5c1130ecb4fbd64a652000000000000000091061060001461210f5780613b7d0290613b7d8204036116f557604051906124ce82611de9565b6004810361369457508061312e5750797c75d695c2706ac5e97044c3b2d3ef59299480000000000000007a184f03e93ff9f4daa797ed6e38ed64bf6a1f010000000000000000820610156130cf5750806201560d02906201560d8204036116f557604051906130c382611de9565b60048252602082015290565b7a184f03e93ff9f4daa797ed6e38ed64bf6a1f0100000000000000007a01f1d75a5709c1ab17a5c1130ecb4fbd64a652000000000000000091061060001461210f578061446902906144698204036116f557604051906124ce82611de9565b600181036131f55750797c75d695c2706ac5e97044c3b2d3ef59299480000000000000007a184f03e93ff9f4daa797ed6e38ed64bf6a1f010000000000000000820610156131965750806201895c02906201895c8204036116f557604051906130c382611de9565b7a184f03e93ff9f4daa797ed6e38ed64bf6a1f0100000000000000007a01f1d75a5709c1ab17a5c1130ecb4fbd64a652000000000000000091061060001461210f5780614eac0290614eac8204036116f557604051906124ce82611de9565b600281036132bc5750797c75d695c2706ac5e97044c3b2d3ef59299480000000000000007a184f03e93ff9f4daa797ed6e38ed64bf6a1f0100000000000000008206101561325d5750806201c45d02906201c45d8204036116f557604051906130c382611de9565b7a184f03e93ff9f4daa797ed6e38ed64bf6a1f0100000000000000007a01f1d75a5709c1ab17a5c1130ecb4fbd64a652000000000000000091061060001461210f5780615a790290615a798204036116f557604051906124ce82611de9565b600381036133835750797c75d695c2706ac5e97044c3b2d3ef59299480000000000000007a184f03e93ff9f4daa797ed6e38ed64bf6a1f01000000000000000082061015613324575080620208380290620208388204036116f557604051906130c382611de9565b7a184f03e93ff9f4daa797ed6e38ed64bf6a1f0100000000000000007a01f1d75a5709c1ab17a5c1130ecb4fbd64a652000000000000000091061060001461210f578061680b029061680b8204036116f557604051906124ce82611de9565b6004810361344a5750797c75d695c2706ac5e97044c3b2d3ef59299480000000000000007a184f03e93ff9f4daa797ed6e38ed64bf6a1f010000000000000000820610156133eb575080620256400290620256408204036116f557604051906130c382611de9565b7a184f03e93ff9f4daa797ed6e38ed64bf6a1f0100000000000000007a01f1d75a5709c1ab17a5c1130ecb4fbd64a652000000000000000091061060001461210f57806177a602906177a68204036116f557604051906124ce82611de9565b600581036135115750797c75d695c2706ac5e97044c3b2d3ef59299480000000000000007a184f03e93ff9f4daa797ed6e38ed64bf6a1f010000000000000000820610156134b25750806202affd02906202affd8204036116f557604051906130c382611de9565b7a184f03e93ff9f4daa797ed6e38ed64bf6a1f0100000000000000007a01f1d75a5709c1ab17a5c1130ecb4fbd64a652000000000000000091061060001461210f578061899902906189998204036116f557604051906124ce82611de9565b6006036135d657797c75d695c2706ac5e97044c3b2d3ef59299480000000000000007a184f03e93ff9f4daa797ed6e38ed64bf6a1f010000000000000000820610156135775750806203172f02906203172f8204036116f557604051906130c382611de9565b7a184f03e93ff9f4daa797ed6e38ed64bf6a1f0100000000000000007a01f1d75a5709c1ab17a5c1130ecb4fbd64a652000000000000000091061060001461210f5780619e3d0290619e3d8204036116f557604051906124ce82611de9565b797c75d695c2706ac5e97044c3b2d3ef59299480000000000000007a184f03e93ff9f4daa797ed6e38ed64bf6a1f0100000000000000008206101561363557508062038ddd029062038ddd8204036116f557604051906130c382611de9565b7a184f03e93ff9f4daa797ed6e38ed64bf6a1f0100000000000000007a01f1d75a5709c1ab17a5c1130ecb4fbd64a652000000000000000091061060001461210f578061b5f9029061b5f98204036116f557604051906124ce82611de9565b60058103613cdf57508061376d5750797c75d695c2706ac5e97044c3b2d3ef59299480000000000000007a184f03e93ff9f4daa797ed6e38ed64bf6a1f0100000000000000008206101561370e57508062082caf029062082caf8204036116f5576040519061370282611de9565b60058252602082015290565b7a184f03e93ff9f4daa797ed6e38ed64bf6a1f0100000000000000007a01f1d75a5709c1ab17a5c1130ecb4fbd64a652000000000000000091061060001461210f578061d145029061d1458204036116f557604051906124ce82611de9565b600181036138345750797c75d695c2706ac5e97044c3b2d3ef59299480000000000000007a184f03e93ff9f4daa797ed6e38ed64bf6a1f010000000000000000820610156137d5575080620966960290620966968204036116f5576040519061370282611de9565b7a184f03e93ff9f4daa797ed6e38ed64bf6a1f0100000000000000007a01f1d75a5709c1ab17a5c1130ecb4fbd64a652000000000000000091061060001461210f578061f0a9029061f0a98204036116f557604051906124ce82611de9565b600281036138fd5750797c75d695c2706ac5e97044c3b2d3ef59299480000000000000007a184f03e93ff9f4daa797ed6e38ed64bf6a1f0100000000000000008206101561389c575080620acf930290620acf938204036116f5576040519061370282611de9565b7a184f03e93ff9f4daa797ed6e38ed64bf6a1f0100000000000000007a01f1d75a5709c1ab17a5c1130ecb4fbd64a652000000000000000091061060001461210f5780620114c20290620114c28204036116f557604051906124ce82611de9565b600381036139c65750797c75d695c2706ac5e97044c3b2d3ef59299480000000000000007a184f03e93ff9f4daa797ed6e38ed64bf6a1f01000000000000000082061015613965575080620c6eb60290620c6eb68204036116f5576040519061370282611de9565b7a184f03e93ff9f4daa797ed6e38ed64bf6a1f0100000000000000007a01f1d75a5709c1ab17a5c1130ecb4fbd64a652000000000000000091061060001461210f578062013e45029062013e458204036116f557604051906124ce82611de9565b60048103613a8f5750797c75d695c2706ac5e97044c3b2d3ef59299480000000000000007a184f03e93ff9f4daa797ed6e38ed64bf6a1f01000000000000000082061015613a2e575080620e4c1e0290620e4c1e8204036116f5576040519061370282611de9565b7a184f03e93ff9f4daa797ed6e38ed64bf6a1f0100000000000000007a01f1d75a5709c1ab17a5c1130ecb4fbd64a652000000000000000091061060001461210f578062016e03029062016e038204036116f557604051906124ce82611de9565b60058103613b585750797c75d695c2706ac5e97044c3b2d3ef59299480000000000000007a184f03e93ff9f4daa797ed6e38ed64bf6a1f01000000000000000082061015613af7575080621071230290621071238204036116f5576040519061370282611de9565b7a184f03e93ff9f4daa797ed6e38ed64bf6a1f0100000000000000007a01f1d75a5709c1ab17a5c1130ecb4fbd64a652000000000000000091061060001461210f57806201a4ea02906201a4ea8204036116f557604051906124ce82611de9565b600603613c1f57797c75d695c2706ac5e97044c3b2d3ef59299480000000000000007a184f03e93ff9f4daa797ed6e38ed64bf6a1f01000000000000000082061015613bbe5750806212e88102906212e8818204036116f5576040519061370282611de9565b7a184f03e93ff9f4daa797ed6e38ed64bf6a1f0100000000000000007a01f1d75a5709c1ab17a5c1130ecb4fbd64a652000000000000000091061060001461210f57806201e40d02906201e40d8204036116f557604051906124ce82611de9565b797c75d695c2706ac5e97044c3b2d3ef59299480000000000000007a184f03e93ff9f4daa797ed6e38ed64bf6a1f01000000000000000082061015613c7e5750806215be9502906215be958204036116f5576040519061370282611de9565b7a184f03e93ff9f4daa797ed6e38ed64bf6a1f0100000000000000007a01f1d75a5709c1ab17a5c1130ecb4fbd64a652000000000000000091061060001461210f578062022ca8029062022ca88204036116f557604051906124ce82611de9565b60060361432c5780613db85750791f1d75a5709c1ab17a5c1130ecb4fbd64a6520000000000000007a184f03e93ff9f4daa797ed6e38ed64bf6a1f01000000000000000082061015613d57575080623e83ec0290623e83ec8204036116f55760405190613d4b82611de9565b60068252602082015290565b7a184f03e93ff9f4daa797ed6e38ed64bf6a1f0100000000000000007a01f1d75a5709c1ab17a5c1130ecb4fbd64a652000000000000000091061060001461210f5780620280280290620280288204036116f557604051906124ce82611de9565b60018103613e815750791f1d75a5709c1ab17a5c1130ecb4fbd64a6520000000000000007a184f03e93ff9f4daa797ed6e38ed64bf6a1f01000000000000000082061015613e205750806247e48202906247e4828204036116f55760405190613d4b82611de9565b7a184f03e93ff9f4daa797ed6e38ed64bf6a1f0100000000000000007a01f1d75a5709c1ab17a5c1130ecb4fbd64a652000000000000000091061060001461210f57806202e02e02906202e02e8204036116f557604051906124ce82611de9565b60028103613f4a5750791f1d75a5709c1ab17a5c1130ecb4fbd64a6520000000000000007a184f03e93ff9f4daa797ed6e38ed64bf6a1f01000000000000000082061015613ee95750806252ad2f02906252ad2f8204036116f55760405190613d4b82611de9565b7a184f03e93ff9f4daa797ed6e38ed64bf6a1f0100000000000000007a01f1d75a5709c1ab17a5c1130ecb4fbd64a652000000000000000091061060001461210f578062034e9b029062034e9b8204036116f557604051906124ce82611de9565b600381036140135750791f1d75a5709c1ab17a5c1130ecb4fbd64a6520000000000000007a184f03e93ff9f4daa797ed6e38ed64bf6a1f01000000000000000082061015613fb2575080625f13f60290625f13f68204036116f55760405190613d4b82611de9565b7a184f03e93ff9f4daa797ed6e38ed64bf6a1f0100000000000000007a01f1d75a5709c1ab17a5c1130ecb4fbd64a652000000000000000091061060001461210f57806203cd9902906203cd998204036116f557604051906124ce82611de9565b600481036140dc5750791f1d75a5709c1ab17a5c1130ecb4fbd64a6520000000000000007a184f03e93ff9f4daa797ed6e38ed64bf6a1f0100000000000000008206101561407b575080626d56f50290626d56f58204036116f55760405190613d4b82611de9565b7a184f03e93ff9f4daa797ed6e38ed64bf6a1f0100000000000000007a01f1d75a5709c1ab17a5c1130ecb4fbd64a652000000000000000091061060001461210f578062045fa3029062045fa38204036116f557604051906124ce82611de9565b600581036141a55750791f1d75a5709c1ab17a5c1130ecb4fbd64a6520000000000000007a184f03e93ff9f4daa797ed6e38ed64bf6a1f01000000000000000082061015614144575080627dbd9a0290627dbd9a8204036116f55760405190613d4b82611de9565b7a184f03e93ff9f4daa797ed6e38ed64bf6a1f0100000000000000007a01f1d75a5709c1ab17a5c1130ecb4fbd64a652000000000000000091061060001461210f5780620507960290620507968204036116f557604051906124ce82611de9565b60060361426c57791f1d75a5709c1ab17a5c1130ecb4fbd64a6520000000000000007a184f03e93ff9f4daa797ed6e38ed64bf6a1f0100000000000000008206101561420b57508062909a0a029062909a0a8204036116f55760405190613d4b82611de9565b7a184f03e93ff9f4daa797ed6e38ed64bf6a1f0100000000000000007a01f1d75a5709c1ab17a5c1130ecb4fbd64a652000000000000000091061060001461210f57806205c8b902906205c8b98204036116f557604051906124ce82611de9565b791f1d75a5709c1ab17a5c1130ecb4fbd64a6520000000000000007a184f03e93ff9f4daa797ed6e38ed64bf6a1f010000000000000000820610156142cb57508062a64abf029062a64abf8204036116f55760405190613d4b82611de9565b7a184f03e93ff9f4daa797ed6e38ed64bf6a1f0100000000000000007a01f1d75a5709c1ab17a5c1130ecb4fbd64a652000000000000000091061060001461210f57806206a6d402906206a6d48204036116f557604051906124ce82611de9565b806144005750790f8ebad2b84e0d58bd2e0898765a7deb253290000000000000007a184f03e93ff9f4daa797ed6e38ed64bf6a1f0100000000000000008206101561439f57508063017e78b7029063017e78b78204036116f5576040519061439382611de9565b60078252602082015290565b7a184f03e93ff9f4daa797ed6e38ed64bf6a1f0100000000000000007a01f1d75a5709c1ab17a5c1130ecb4fbd64a652000000000000000091061060001461210f57806207a64102906207a6418204036116f557604051906124ce82611de9565b600181036144cb5750790f8ebad2b84e0d58bd2e0898765a7deb253290000000000000007a184f03e93ff9f4daa797ed6e38ed64bf6a1f0100000000000000008206101561446a5750806301b7d79f02906301b7d79f8204036116f5576040519061439382611de9565b7a184f03e93ff9f4daa797ed6e38ed64bf6a1f0100000000000000007a01f1d75a5709c1ab17a5c1130ecb4fbd64a652000000000000000091061060001461210f57806208cbfe02906208cbfe8204036116f557604051906124ce82611de9565b600281036145965750790f8ebad2b84e0d58bd2e0898765a7deb253290000000000000007a184f03e93ff9f4daa797ed6e38ed64bf6a1f010000000000000000820610156145355750806301f9d19102906301f9d1918204036116f5576040519061439382611de9565b7a184f03e93ff9f4daa797ed6e38ed64bf6a1f0100000000000000007a01f1d75a5709c1ab17a5c1130ecb4fbd64a652000000000000000091061060001461210f5780620a1dcb0290620a1dcb8204036116f557604051906124ce82611de9565b600381036146615750790f8ebad2b84e0d58bd2e0898765a7deb253290000000000000007a184f03e93ff9f4daa797ed6e38ed64bf6a1f01000000000000000082061015614600575080630245b1000290630245b1008204036116f5576040519061439382611de9565b7a184f03e93ff9f4daa797ed6e38ed64bf6a1f0100000000000000007a01f1d75a5709c1ab17a5c1130ecb4fbd64a652000000000000000091061060001461210f5780620ba2430290620ba2438204036116f557604051906124ce82611de9565b6004810361472c5750790f8ebad2b84e0d58bd2e0898765a7deb253290000000000000007a184f03e93ff9f4daa797ed6e38ed64bf6a1f010000000000000000820610156146cb57508063029cf1f3029063029cf1f38204036116f5576040519061439382611de9565b7a184f03e93ff9f4daa797ed6e38ed64bf6a1f0100000000000000007a01f1d75a5709c1ab17a5c1130ecb4fbd64a652000000000000000091061060001461210f5780620d61000290620d61008204036116f557604051906124ce82611de9565b600581036147f75750790f8ebad2b84e0d58bd2e0898765a7deb253290000000000000007a184f03e93ff9f4daa797ed6e38ed64bf6a1f010000000000000000820610156147965750806303014972029063030149728204036116f5576040519061439382611de9565b7a184f03e93ff9f4daa797ed6e38ed64bf6a1f0100000000000000007a01f1d75a5709c1ab17a5c1130ecb4fbd64a652000000000000000091061060001461210f5780620f62c00290620f62c08204036116f557604051906124ce82611de9565b6006036148c057790f8ebad2b84e0d58bd2e0898765a7deb253290000000000000007a184f03e93ff9f4daa797ed6e38ed64bf6a1f0100000000000000008206101561485f575080630374ae0f0290630374ae0f8204036116f5576040519061439382611de9565b7a184f03e93ff9f4daa797ed6e38ed64bf6a1f0100000000000000007a01f1d75a5709c1ab17a5c1130ecb4fbd64a652000000000000000091061060001461210f57806211b19002906211b1908204036116f557604051906124ce82611de9565b790f8ebad2b84e0d58bd2e0898765a7deb253290000000000000007a184f03e93ff9f4daa797ed6e38ed64bf6a1f010000000000000000820610156149215750806303938700029063039387008204036116f5576040519061439382611de9565b7a184f03e93ff9f4daa797ed6e38ed64bf6a1f0100000000000000007a01f1d75a5709c1ab17a5c1130ecb4fbd64a65200000000000000009106106000146149825780622dc6c00290622dc6c08204036116f5576040519061246382611de9565b8062124f80029062124f808204036116f557604051906124ce82611de9565b906000602091828151910182855af115610819576000513d614a23575073ffffffffffffffffffffffffffffffffffffffff81163b155b6149df5750565b73ffffffffffffffffffffffffffffffffffffffff907f5274afe7000000000000000000000000000000000000000000000000000000006000521660045260246000fd5b600114156149d856fea26469706673582212201b19d6e708d567d82aa0afa2c64d76011883a3f90340ff07093fdf3565410cad64736f6c634300081e0033",
  "linkReferences": {},
  "deployedLinkReferences": {}
}