{
  "_format": "hh-sol-artifact-1",
  "contractName": "ERC20MerkleClaimMock",
  "sourceName": "contracts/mocks/merkleClaim/ERC20MerkleClaimMock.sol",
  "abi": [
    {
      "inputs": [
        {
          "internalType": "address",
          "name": "rewardContract_",
          "type": "address"
        },
        {
          "internalType": "address",
          "name": "stakingContract_",
          "type": "address"
        },
        {
          "internalType": "address",
          "name": "payoutWallet_",
          "type": "address"
        },
        {
          "internalType": "address",
          "name": "treasuryWallet_",
          "type": "address"
        },
        {
          "internalType": "uint96",
          "name": "fee_",
          "type": "uint96"
        },
        {
          "internalType": "contract IForwarderRegistry",
          "name": "forwarderRegistry_",
          "type": "address"
        }
      ],
      "stateMutability": "nonpayable",
      "type": "constructor"
    },
    {
      "inputs": [
        {
          "internalType": "address",
          "name": "recipient",
          "type": "address"
        },
        {
          "internalType": "uint256",
          "name": "amount",
          "type": "uint256"
        },
        {
          "internalType": "uint256",
          "name": "nonce",
          "type": "uint256"
        }
      ],
      "name": "AlreadyClaimed",
      "type": "error"
    },
    {
      "inputs": [],
      "name": "IllegalInterfaceId",
      "type": "error"
    },
    {
      "inputs": [
        {
          "internalType": "uint256",
          "name": "amount",
          "type": "uint256"
        }
      ],
      "name": "InvalidClaimAmount",
      "type": "error"
    },
    {
      "inputs": [],
      "name": "InvalidFee",
      "type": "error"
    },
    {
      "inputs": [],
      "name": "InvalidForwarderRegistry",
      "type": "error"
    },
    {
      "inputs": [],
      "name": "InvalidPayoutWallet",
      "type": "error"
    },
    {
      "inputs": [
        {
          "internalType": "address",
          "name": "recipient",
          "type": "address"
        },
        {
          "internalType": "uint256",
          "name": "amount",
          "type": "uint256"
        },
        {
          "internalType": "uint256",
          "name": "nonce",
          "type": "uint256"
        }
      ],
      "name": "InvalidProof",
      "type": "error"
    },
    {
      "inputs": [
        {
          "internalType": "address",
          "name": "rewardContract",
          "type": "address"
        }
      ],
      "name": "InvalidRewardContract",
      "type": "error"
    },
    {
      "inputs": [
        {
          "internalType": "address",
          "name": "stakingContract",
          "type": "address"
        }
      ],
      "name": "InvalidStakingContract",
      "type": "error"
    },
    {
      "inputs": [],
      "name": "InvalidTreasuryWallet",
      "type": "error"
    },
    {
      "inputs": [
        {
          "internalType": "uint256",
          "name": "nonce",
          "type": "uint256"
        }
      ],
      "name": "MerkleRootNotExists",
      "type": "error"
    },
    {
      "inputs": [
        {
          "internalType": "address",
          "name": "account",
          "type": "address"
        }
      ],
      "name": "NotContractOwner",
      "type": "error"
    },
    {
      "inputs": [],
      "name": "NotPaused",
      "type": "error"
    },
    {
      "inputs": [],
      "name": "Paused",
      "type": "error"
    },
    {
      "anonymous": false,
      "inputs": [
        {
          "indexed": true,
          "internalType": "uint256",
          "name": "nonce",
          "type": "uint256"
        },
        {
          "indexed": true,
          "internalType": "bytes32",
          "name": "root",
          "type": "bytes32"
        }
      ],
      "name": "MerkleRootSet",
      "type": "event"
    },
    {
      "anonymous": false,
      "inputs": [
        {
          "indexed": true,
          "internalType": "address",
          "name": "previousOwner",
          "type": "address"
        },
        {
          "indexed": true,
          "internalType": "address",
          "name": "newOwner",
          "type": "address"
        }
      ],
      "name": "OwnershipTransferred",
      "type": "event"
    },
    {
      "anonymous": false,
      "inputs": [],
      "name": "Pause",
      "type": "event"
    },
    {
      "anonymous": false,
      "inputs": [
        {
          "indexed": true,
          "internalType": "uint256",
          "name": "nonce",
          "type": "uint256"
        },
        {
          "indexed": true,
          "internalType": "bytes32",
          "name": "root",
          "type": "bytes32"
        },
        {
          "indexed": true,
          "internalType": "address",
          "name": "recipient",
          "type": "address"
        },
        {
          "indexed": false,
          "internalType": "address",
          "name": "payoutWallet",
          "type": "address"
        },
        {
          "indexed": false,
          "internalType": "uint256",
          "name": "netClaimedAmount",
          "type": "uint256"
        },
        {
          "indexed": false,
          "internalType": "uint256",
          "name": "feeAmount",
          "type": "uint256"
        }
      ],
      "name": "PayoutClaimed",
      "type": "event"
    },
    {
      "anonymous": false,
      "inputs": [
        {
          "indexed": true,
          "internalType": "address",
          "name": "newPayoutWallet",
          "type": "address"
        }
      ],
      "name": "PayoutWalletSet",
      "type": "event"
    },
    {
      "anonymous": false,
      "inputs": [
        {
          "indexed": true,
          "internalType": "address",
          "name": "newTreasuryWallet",
          "type": "address"
        }
      ],
      "name": "TreasuryWalletSet",
      "type": "event"
    },
    {
      "anonymous": false,
      "inputs": [],
      "name": "Unpause",
      "type": "event"
    },
    {
      "inputs": [],
      "name": "FEE_PRECISION",
      "outputs": [
        {
          "internalType": "uint256",
          "name": "",
          "type": "uint256"
        }
      ],
      "stateMutability": "view",
      "type": "function"
    },
    {
      "inputs": [],
      "name": "REWARD_CONTRACT",
      "outputs": [
        {
          "internalType": "address",
          "name": "",
          "type": "address"
        }
      ],
      "stateMutability": "view",
      "type": "function"
    },
    {
      "inputs": [],
      "name": "STAKING_CONTRACT",
      "outputs": [
        {
          "internalType": "address",
          "name": "",
          "type": "address"
        }
      ],
      "stateMutability": "view",
      "type": "function"
    },
    {
      "inputs": [],
      "name": "__msgData",
      "outputs": [
        {
          "internalType": "bytes",
          "name": "",
          "type": "bytes"
        }
      ],
      "stateMutability": "view",
      "type": "function"
    },
    {
      "inputs": [],
      "name": "__msgSender",
      "outputs": [
        {
          "internalType": "address",
          "name": "",
          "type": "address"
        }
      ],
      "stateMutability": "view",
      "type": "function"
    },
    {
      "inputs": [
        {
          "internalType": "address",
          "name": "recipient",
          "type": "address"
        },
        {
          "internalType": "uint256",
          "name": "amount",
          "type": "uint256"
        },
        {
          "internalType": "uint96",
          "name": "nonce_",
          "type": "uint96"
        },
        {
          "internalType": "bytes32[]",
          "name": "proof",
          "type": "bytes32[]"
        }
      ],
      "name": "claimPayout",
      "outputs": [],
      "stateMutability": "nonpayable",
      "type": "function"
    },
    {
      "inputs": [
        {
          "internalType": "address",
          "name": "recipient",
          "type": "address"
        },
        {
          "internalType": "uint256",
          "name": "amount",
          "type": "uint256"
        },
        {
          "internalType": "uint96",
          "name": "nonce_",
          "type": "uint96"
        },
        {
          "internalType": "bytes32[]",
          "name": "proof",
          "type": "bytes32[]"
        }
      ],
      "name": "claimPayoutAndStake",
      "outputs": [],
      "stateMutability": "nonpayable",
      "type": "function"
    },
    {
      "inputs": [
        {
          "internalType": "bytes32",
          "name": "leaf",
          "type": "bytes32"
        }
      ],
      "name": "claimed",
      "outputs": [
        {
          "internalType": "bool",
          "name": "claimed",
          "type": "bool"
        }
      ],
      "stateMutability": "view",
      "type": "function"
    },
    {
      "inputs": [],
      "name": "fee",
      "outputs": [
        {
          "internalType": "uint96",
          "name": "",
          "type": "uint96"
        }
      ],
      "stateMutability": "view",
      "type": "function"
    },
    {
      "inputs": [],
      "name": "forwarderRegistry",
      "outputs": [
        {
          "internalType": "contract IForwarderRegistry",
          "name": "",
          "type": "address"
        }
      ],
      "stateMutability": "view",
      "type": "function"
    },
    {
      "inputs": [
        {
          "internalType": "address",
          "name": "forwarder",
          "type": "address"
        }
      ],
      "name": "isTrustedForwarder",
      "outputs": [
        {
          "internalType": "bool",
          "name": "",
          "type": "bool"
        }
      ],
      "stateMutability": "view",
      "type": "function"
    },
    {
      "inputs": [],
      "name": "nonce",
      "outputs": [
        {
          "internalType": "uint96",
          "name": "",
          "type": "uint96"
        }
      ],
      "stateMutability": "view",
      "type": "function"
    },
    {
      "inputs": [],
      "name": "owner",
      "outputs": [
        {
          "internalType": "address",
          "name": "",
          "type": "address"
        }
      ],
      "stateMutability": "view",
      "type": "function"
    },
    {
      "inputs": [],
      "name": "pause",
      "outputs": [],
      "stateMutability": "nonpayable",
      "type": "function"
    },
    {
      "inputs": [],
      "name": "paused",
      "outputs": [
        {
          "internalType": "bool",
          "name": "",
          "type": "bool"
        }
      ],
      "stateMutability": "view",
      "type": "function"
    },
    {
      "inputs": [],
      "name": "payoutWallet",
      "outputs": [
        {
          "internalType": "address",
          "name": "",
          "type": "address"
        }
      ],
      "stateMutability": "view",
      "type": "function"
    },
    {
      "inputs": [
        {
          "internalType": "uint96",
          "name": "nonce",
          "type": "uint96"
        }
      ],
      "name": "rootMap",
      "outputs": [
        {
          "internalType": "bytes32",
          "name": "root",
          "type": "bytes32"
        }
      ],
      "stateMutability": "view",
      "type": "function"
    },
    {
      "inputs": [
        {
          "internalType": "bytes32",
          "name": "merkleRoot",
          "type": "bytes32"
        }
      ],
      "name": "setMerkleRoot",
      "outputs": [],
      "stateMutability": "nonpayable",
      "type": "function"
    },
    {
      "inputs": [
        {
          "internalType": "address",
          "name": "newPayoutWallet",
          "type": "address"
        }
      ],
      "name": "setPayoutWallet",
      "outputs": [],
      "stateMutability": "nonpayable",
      "type": "function"
    },
    {
      "inputs": [
        {
          "internalType": "address",
          "name": "newTreasuryWallet",
          "type": "address"
        }
      ],
      "name": "setTreasuryWallet",
      "outputs": [],
      "stateMutability": "nonpayable",
      "type": "function"
    },
    {
      "inputs": [
        {
          "internalType": "bytes4",
          "name": "interfaceId",
          "type": "bytes4"
        }
      ],
      "name": "supportsInterface",
      "outputs": [
        {
          "internalType": "bool",
          "name": "",
          "type": "bool"
        }
      ],
      "stateMutability": "view",
      "type": "function"
    },
    {
      "inputs": [
        {
          "internalType": "address",
          "name": "newOwner",
          "type": "address"
        }
      ],
      "name": "transferOwnership",
      "outputs": [],
      "stateMutability": "nonpayable",
      "type": "function"
    },
    {
      "inputs": [],
      "name": "treasuryWallet",
      "outputs": [
        {
          "internalType": "address",
          "name": "",
          "type": "address"
        }
      ],
      "stateMutability": "view",
      "type": "function"
    },
    {
      "inputs": [],
      "name": "unpause",
      "outputs": [],
      "stateMutability": "nonpayable",
      "type": "function"
    }
  ],
  "bytecode": "0x60e060405234801561001057600080fd5b50604051611d4d380380611d4d83398101604081905261002f91610306565b85858585858580803361004a816100446101ba565b906101ee565b506001600160a01b039081166080528716905061008a57604051635287368360e11b81526001600160a01b03871660048201526024015b60405180910390fd5b6001600160a01b0385166100bc576040516340ecbd2f60e11b81526001600160a01b0386166004820152602401610081565b6001600160a01b0384166100e35760405163620e5f7160e11b815260040160405180910390fd5b6001600160a01b03831661010a576040516314ad71c560e31b815260040160405180910390fd5b612710826001600160601b03161115610136576040516358d620b360e01b815260040160405180910390fd5b6001600160a01b03811661015d57604051633545ba1f60e21b815260040160405180910390fd5b506001600160a01b0394851660a05292841660c052600280549285166c010000000000000000000000009081026001600160601b0394851617909155929091169216026001600160601b03191617600355506103ba945050505050565b6000806101e860017fc9ed16f33ab3a66c84bfd83099ccb2a8845871e2e1c1928f63797152f0fd54cd610399565b92915050565b6001600160a01b038116156102445781546001600160a01b0319166001600160a01b03821690811783556040516000907f8be0079c531659141344cd1fd0a4f28419497f9722a3daafe3b4186f6b6457e0908290a35b6102606307f5828d60e41b6001610259610264565b9190610292565b5050565b6000806101e860017fca9d3e17f264b0f3984e2634e94adb37fa3e6a8103f06aeae6fa59e21c769f5e610399565b600160e01b6001600160e01b03198316016102c0576040516372c683bb60e01b815260040160405180910390fd5b6001600160e01b03199190911660009081526020929092526040909120805460ff1916911515919091179055565b6001600160a01b038116811461030357600080fd5b50565b60008060008060008060c0878903121561031f57600080fd5b865161032a816102ee565b602088015190965061033b816102ee565b604088015190955061034c816102ee565b606088015190945061035d816102ee565b60808801519093506001600160601b038116811461037a57600080fd5b60a088015190925061038b816102ee565b809150509295509295509295565b818103818111156101e857634e487b7160e01b600052601160045260246000fd5b60805160a05160c0516119256104286000396000818161040a015261066f015260008181610227015281816106440152818161090f01526109f40152600081816101c70152818161029301528181611181015281816111bf015281816112fd015261138b01526119256000f3fe608060405234801561001057600080fd5b50600436106101985760003560e01c80638488bb4e116100e3578063d074eb971161008c578063ddca3f4311610066578063ddca3f431461042c578063e63a391f14610444578063f2fde38b1461044d57600080fd5b8063d074eb97146103ea578063d1a91ff2146103fd578063da19ddfb1461040557600080fd5b8063ac131658116100bd578063ac13165814610364578063affed0e014610392578063cc3c0f06146103c757600080fd5b80638488bb4e146103195780638da5cb5b14610349578063a8602fea1461035157600080fd5b8063572b6c05116101455780637cb647591161011f5780637cb64759146102eb578063808756d6146102fe5780638456cb591461031157600080fd5b8063572b6c05146102835780635c975abb146102d05780636b8f9c43146102d857600080fd5b80633a5af339116101765780633a5af339146102225780633f4ba83a146102495780634626402b1461025357600080fd5b806301ffc9a71461019d5780632b4c9f16146101c557806331e66e1e1461020c575b600080fd5b6101b06101ab36600461153b565b610460565b60405190151581526020015b60405180910390f35b7f00000000000000000000000000000000000000000000000000000000000000005b60405173ffffffffffffffffffffffffffffffffffffffff90911681526020016101bc565b61021461047a565b6040516101bc92919061157d565b6101e77f000000000000000000000000000000000000000000000000000000000000000081565b61025161048d565b005b6003546101e7906c01000000000000000000000000900473ffffffffffffffffffffffffffffffffffffffff1681565b6101b06102913660046115f3565b7f000000000000000000000000000000000000000000000000000000000000000073ffffffffffffffffffffffffffffffffffffffff90811691161490565b6101b06104b8565b6102516102e63660046115f3565b6104d1565b6102516102f936600461160e565b610549565b61025161030c366004611643565b6105f8565b61025161077a565b6002546101e7906c01000000000000000000000000900473ffffffffffffffffffffffffffffffffffffffff1681565b6101e7610795565b61025161035f3660046115f3565b6107bc565b6103846103723660046116e3565b60006020819052908152604090205481565b6040519081526020016101bc565b6002546103aa906bffffffffffffffffffffffff1681565b6040516bffffffffffffffffffffffff90911681526020016101bc565b6101b06103d536600461160e565b60016020526000908152604090205460ff1681565b6102516103f8366004611643565b610834565b6101e7610add565b6101e77f000000000000000000000000000000000000000000000000000000000000000081565b6003546103aa906bffffffffffffffffffffffff1681565b61038461271081565b61025161045b3660046115f3565b610ae7565b60006104748261046e610b05565b90610b33565b92915050565b366000610485610c0d565b915091509091565b6104a6610498610c18565b6104a0610c22565b90610c50565b6104b66104b1610cc4565b610cf2565b565b60006104cc6104c5610cc4565b5460ff1690565b905090565b6104dc610498610c18565b600280546bffffffffffffffffffffffff166c0100000000000000000000000073ffffffffffffffffffffffffffffffffffffffff8416908102919091179091556040517fdd880d24a789958a6398c99c2e54ce31bc10a638cbc42f7dd34285479ae0f85590600090a250565b610554610498610c18565b600280546bffffffffffffffffffffffff90811660008181526020819052604081208590558354919392909161058a911661172d565b91906101000a8154816bffffffffffffffffffffffff02191690836bffffffffffffffffffffffff16021790555081816bffffffffffffffffffffffff167fb04b7d6145a7588fdcf339a22877d5965f861c171204fc37688058c5f6c06d3b60405160405180910390a35050565b60006106078686868686610d4d565b6002546040805173ffffffffffffffffffffffffffffffffffffffff8a811660208301529394506c010000000000000000000000009092048316927f0000000000000000000000000000000000000000000000000000000000000000169163b88d4fde9184917f0000000000000000000000000000000000000000000000000000000000000000918b91016040516020818303038152906040526040518563ffffffff1660e01b81526004016106c09493929190611762565b6020604051808303816000875af11580156106df573d6000803e3d6000fd5b505050506040513d601f19601f82011682018060405250810190610703919061180f565b506040805173ffffffffffffffffffffffffffffffffffffffff89811682526020820189905260008284015291519183169184916bffffffffffffffffffffffff8916917f4198e253c4ae311bc3d0c7aca40cb1a9827879ca09dc5f3a430127c736748f189181900360600190a450505050505050565b610785610498610c18565b6104b6610790610cc4565b610fd7565b60006104cc6107a2610c22565b5473ffffffffffffffffffffffffffffffffffffffff1690565b6107c7610498610c18565b600380546bffffffffffffffffffffffff166c0100000000000000000000000073ffffffffffffffffffffffffffffffffffffffff8416908102919091179091556040517f5695f8b02f5f53d02b408db3ed952c16f32f9701ad2691c44733f2a2d09225a990600090a250565b60006108438686868686610d4d565b6002546003549192506c01000000000000000000000000900473ffffffffffffffffffffffffffffffffffffffff169060009061271090610892906bffffffffffffffffffffffff1689611831565b61089c9190611848565b905060006108aa8289611883565b6040517fb88d4fde00000000000000000000000000000000000000000000000000000000815273ffffffffffffffffffffffffffffffffffffffff85811660048301528b811660248301526044820183905260806064830152600060848301529192507f00000000000000000000000000000000000000000000000000000000000000009091169063b88d4fde9060a4016020604051808303816000875af115801561095a573d6000803e3d6000fd5b505050506040513d601f19601f8201168201806040525081019061097e919061180f565b506003546040517fb88d4fde00000000000000000000000000000000000000000000000000000000815273ffffffffffffffffffffffffffffffffffffffff85811660048301526c01000000000000000000000000909204821660248201526044810184905260806064820152600060848201527f00000000000000000000000000000000000000000000000000000000000000009091169063b88d4fde9060a4016020604051808303816000875af1158015610a3f573d6000803e3d6000fd5b505050506040513d601f19601f82011682018060405250810190610a63919061180f565b506040805173ffffffffffffffffffffffffffffffffffffffff8b81168252602082018490529181018490529084169085906bffffffffffffffffffffffff8a16907f4198e253c4ae311bc3d0c7aca40cb1a9827879ca09dc5f3a430127c736748f189060600160405180910390a4505050505050505050565b60006104cc610c18565b610b02610af2610c18565b82610afb610c22565b9190611035565b50565b60008061047460017fca9d3e17f264b0f3984e2634e94adb37fa3e6a8103f06aeae6fa59e21c769f5e611883565b60007c01000000000000000000000000000000000000000000000000000000007fffffffff00000000000000000000000000000000000000000000000000000000831601610b8357506000610474565b7ffe003659000000000000000000000000000000000000000000000000000000007fffffffff00000000000000000000000000000000000000000000000000000000831601610bd457506001610474565b507fffffffff00000000000000000000000000000000000000000000000000000000166000908152602091909152604090205460ff1690565b36600061048561114a565b60006104cc6112ba565b60008061047460017fc9ed16f33ab3a66c84bfd83099ccb2a8845871e2e1c1928f63797152f0fd54cd611883565b815473ffffffffffffffffffffffffffffffffffffffff828116911614610cc0576040517f2ef4875e00000000000000000000000000000000000000000000000000000000815273ffffffffffffffffffffffffffffffffffffffff821660048201526024015b60405180910390fd5b5050565b60008061047460017f0186a05f63b1553398ad5ea3233c0ce68b8c9eecc47717f123c5c2b42fbd6d9f611883565b610cfb81611407565b80547fffffffffffffffffffffffffffffffffffffffffffffffffffffffffffffff001681556040517f7805862f689e2f13df9f062ff482ad3ad112aca9e0847911ed832e158c525b3390600090a150565b600084600003610d8c576040517f27ab1ee200000000000000000000000000000000000000000000000000000000815260048101869052602401610cb7565b610d9c610d97610cc4565b611442565b506bffffffffffffffffffffffff831660009081526020819052604081205490819003610e05576040517fab4a79390000000000000000000000000000000000000000000000000000000081526bffffffffffffffffffffffff85166004820152602401610cb7565b604051606087811b7fffffffffffffffffffffffffffffffffffffffff0000000000000000000000001660208301526034820187905260a086901b7fffffffffffffffffffffffff000000000000000000000000000000000000000016605483015260009101604080517fffffffffffffffffffffffffffffffffffffffffffffffffffffffffffffffe081840301815291905280516020909101209050610eaf8484848461147e565b610f18576040517f3c6ee01b00000000000000000000000000000000000000000000000000000000815273ffffffffffffffffffffffffffffffffffffffff88166004820152602481018790526bffffffffffffffffffffffff86166044820152606401610cb7565b60008181526001602052604090205460ff1615610f94576040517f6508823200000000000000000000000000000000000000000000000000000000815273ffffffffffffffffffffffffffffffffffffffff88166004820152602481018790526bffffffffffffffffffffffff86166044820152606401610cb7565b600090815260016020819052604090912080547fffffffffffffffffffffffffffffffffffffffffffffffffffffffffffffff0016909117905595945050505050565b610fe081611442565b80547fffffffffffffffffffffffffffffffffffffffffffffffffffffffffffffff001660011781556040517f6985a02210a168e66602d3235cb6db0e70f92b3ba4d376a33c0f3d9434bff62590600090a150565b825473ffffffffffffffffffffffffffffffffffffffff90811690831681146110a2576040517f2ef4875e00000000000000000000000000000000000000000000000000000000815273ffffffffffffffffffffffffffffffffffffffff84166004820152602401610cb7565b8173ffffffffffffffffffffffffffffffffffffffff168173ffffffffffffffffffffffffffffffffffffffff16146111445783547fffffffffffffffffffffffff00000000000000000000000000000000000000001673ffffffffffffffffffffffffffffffffffffffff8381169182178655604051908316907f8be0079c531659141344cd1fd0a4f28419497f9722a3daafe3b4186f6b6457e090600090a35b50505050565b3660003332148061115b5750601836105b156111695750600091369150565b3373ffffffffffffffffffffffffffffffffffffffff7f00000000000000000000000000000000000000000000000000000000000000001614806112a4575073ffffffffffffffffffffffffffffffffffffffff7f00000000000000000000000000000000000000000000000000000000000000001663019a2028367fffffffffffffffffffffffffffffffffffffffffffffffffffffffffffffffec013560601c6040517fffffffff0000000000000000000000000000000000000000000000000000000060e084901b16815273ffffffffffffffffffffffffffffffffffffffff9091166004820152336024820152306044820152606401602060405180830381865afa158015611280573d6000803e3d6000fd5b505050506040513d601f19601f820116820180604052508101906112a4919061180f565b156112b157610485611496565b50600091369150565b6000333214806112ca5750601836105b156112d457503390565b7fffffffffffffffffffffffffffffffffffffffffffffffffffffffffffffffec36013560601c7f000000000000000000000000000000000000000000000000000000000000000073ffffffffffffffffffffffffffffffffffffffff163314806113f657506040517f019a202800000000000000000000000000000000000000000000000000000000815273ffffffffffffffffffffffffffffffffffffffff82811660048301523360248301523060448301527f0000000000000000000000000000000000000000000000000000000000000000169063019a202890606401602060405180830381865afa1580156113d2573d6000803e3d6000fd5b505050506040513d601f19601f820116820180604052508101906113f6919061180f565b1561140057919050565b3391505090565b805460ff16610b02576040517f6cd6020100000000000000000000000000000000000000000000000000000000815260040160405180910390fd5b805460ff1615610b02576040517f9e87fac800000000000000000000000000000000000000000000000000000000815260040160405180910390fd5b60008261148c8686856114c7565b1495945050505050565b3660006104857fffffffffffffffffffffffffffffffffffffffffffffffffffffffffffffffec8301828481611896565b600081815b84811015611500576114f6828787848181106114ea576114ea6118c0565b90506020020135611509565b91506001016114cc565b50949350505050565b6000818310611525576000828152602084905260409020611534565b60008381526020839052604090205b9392505050565b60006020828403121561154d57600080fd5b81357fffffffff000000000000000000000000000000000000000000000000000000008116811461153457600080fd5b60208152816020820152818360408301376000818301604090810191909152601f9092017fffffffffffffffffffffffffffffffffffffffffffffffffffffffffffffffe0160101919050565b803573ffffffffffffffffffffffffffffffffffffffff811681146115ee57600080fd5b919050565b60006020828403121561160557600080fd5b611534826115ca565b60006020828403121561162057600080fd5b5035919050565b80356bffffffffffffffffffffffff811681146115ee57600080fd5b60008060008060006080868803121561165b57600080fd5b611664866115ca565b94506020860135935061167960408701611627565b9250606086013567ffffffffffffffff81111561169557600080fd5b8601601f810188136116a657600080fd5b803567ffffffffffffffff8111156116bd57600080fd5b8860208260051b84010111156116d257600080fd5b959894975092955050506020019190565b6000602082840312156116f557600080fd5b61153482611627565b7f4e487b7100000000000000000000000000000000000000000000000000000000600052601160045260246000fd5b60006bffffffffffffffffffffffff82166bffffffffffffffffffffffff8103611759576117596116fe565b60010192915050565b73ffffffffffffffffffffffffffffffffffffffff8516815273ffffffffffffffffffffffffffffffffffffffff84166020820152826040820152608060608201526000825180608084015260005b818110156117ce57602081860181015160a08684010152016117b1565b50600060a0828501015260a07fffffffffffffffffffffffffffffffffffffffffffffffffffffffffffffffe0601f83011684010191505095945050505050565b60006020828403121561182157600080fd5b8151801515811461153457600080fd5b8082028115828204841417610474576104746116fe565b60008261187e577f4e487b7100000000000000000000000000000000000000000000000000000000600052601260045260246000fd5b500490565b81810381811115610474576104746116fe565b600080858511156118a657600080fd5b838611156118b357600080fd5b5050820193919092039150565b7f4e487b7100000000000000000000000000000000000000000000000000000000600052603260045260246000fdfea26469706673582212200035862a205c9194ed1cbc61715110f7bb522384dd89c297028c764f210000fe64736f6c634300081c0033",
  "linkReferences": {},
  "deployedLinkReferences": {}
}