{
  "_format": "hh-sol-artifact-1",
  "contractName": "ERC20MerkleClaimMock",
  "sourceName": "contracts/mocks/merkleClaim/ERC20MerkleClaimMock.sol",
  "abi": [
    {
      "inputs": [
        {
          "internalType": "address",
          "name": "rewardContract_",
          "type": "address"
        },
        {
          "internalType": "address",
          "name": "stakingContract_",
          "type": "address"
        },
        {
          "internalType": "address",
          "name": "payoutWallet_",
          "type": "address"
        },
        {
          "internalType": "address",
          "name": "treasuryWallet_",
          "type": "address"
        },
        {
          "internalType": "uint96",
          "name": "fee_",
          "type": "uint96"
        },
        {
          "internalType": "contract IForwarderRegistry",
          "name": "forwarderRegistry_",
          "type": "address"
        }
      ],
      "stateMutability": "nonpayable",
      "type": "constructor"
    },
    {
      "inputs": [
        {
          "internalType": "address",
          "name": "recipient",
          "type": "address"
        },
        {
          "internalType": "uint256",
          "name": "amount",
          "type": "uint256"
        },
        {
          "internalType": "uint256",
          "name": "nonce",
          "type": "uint256"
        }
      ],
      "name": "AlreadyClaimed",
      "type": "error"
    },
    {
      "inputs": [],
      "name": "IllegalInterfaceId",
      "type": "error"
    },
    {
      "inputs": [
        {
          "internalType": "uint256",
          "name": "amount",
          "type": "uint256"
        }
      ],
      "name": "InvalidClaimAmount",
      "type": "error"
    },
    {
      "inputs": [],
      "name": "InvalidFee",
      "type": "error"
    },
    {
      "inputs": [],
      "name": "InvalidForwarderRegistry",
      "type": "error"
    },
    {
      "inputs": [],
      "name": "InvalidPayoutWallet",
      "type": "error"
    },
    {
      "inputs": [
        {
          "internalType": "address",
          "name": "recipient",
          "type": "address"
        },
        {
          "internalType": "uint256",
          "name": "amount",
          "type": "uint256"
        },
        {
          "internalType": "uint256",
          "name": "nonce",
          "type": "uint256"
        }
      ],
      "name": "InvalidProof",
      "type": "error"
    },
    {
      "inputs": [
        {
          "internalType": "address",
          "name": "rewardContract",
          "type": "address"
        }
      ],
      "name": "InvalidRewardContract",
      "type": "error"
    },
    {
      "inputs": [
        {
          "internalType": "address",
          "name": "stakingContract",
          "type": "address"
        }
      ],
      "name": "InvalidStakingContract",
      "type": "error"
    },
    {
      "inputs": [],
      "name": "InvalidTreasuryWallet",
      "type": "error"
    },
    {
      "inputs": [
        {
          "internalType": "uint256",
          "name": "nonce",
          "type": "uint256"
        }
      ],
      "name": "MerkleRootNotExists",
      "type": "error"
    },
    {
      "inputs": [
        {
          "internalType": "address",
          "name": "account",
          "type": "address"
        }
      ],
      "name": "NotContractOwner",
      "type": "error"
    },
    {
      "inputs": [],
      "name": "NotPaused",
      "type": "error"
    },
    {
      "inputs": [],
      "name": "Paused",
      "type": "error"
    },
    {
      "anonymous": false,
      "inputs": [
        {
          "indexed": true,
          "internalType": "uint256",
          "name": "nonce",
          "type": "uint256"
        },
        {
          "indexed": true,
          "internalType": "bytes32",
          "name": "root",
          "type": "bytes32"
        }
      ],
      "name": "MerkleRootSet",
      "type": "event"
    },
    {
      "anonymous": false,
      "inputs": [
        {
          "indexed": true,
          "internalType": "address",
          "name": "previousOwner",
          "type": "address"
        },
        {
          "indexed": true,
          "internalType": "address",
          "name": "newOwner",
          "type": "address"
        }
      ],
      "name": "OwnershipTransferred",
      "type": "event"
    },
    {
      "anonymous": false,
      "inputs": [],
      "name": "Pause",
      "type": "event"
    },
    {
      "anonymous": false,
      "inputs": [
        {
          "indexed": true,
          "internalType": "uint256",
          "name": "nonce",
          "type": "uint256"
        },
        {
          "indexed": true,
          "internalType": "bytes32",
          "name": "root",
          "type": "bytes32"
        },
        {
          "indexed": true,
          "internalType": "address",
          "name": "recipient",
          "type": "address"
        },
        {
          "indexed": false,
          "internalType": "address",
          "name": "payoutWallet",
          "type": "address"
        },
        {
          "indexed": false,
          "internalType": "uint256",
          "name": "netClaimedAmount",
          "type": "uint256"
        },
        {
          "indexed": false,
          "internalType": "uint256",
          "name": "feeAmount",
          "type": "uint256"
        }
      ],
      "name": "PayoutClaimed",
      "type": "event"
    },
    {
      "anonymous": false,
      "inputs": [
        {
          "indexed": true,
          "internalType": "address",
          "name": "newPayoutWallet",
          "type": "address"
        }
      ],
      "name": "PayoutWalletSet",
      "type": "event"
    },
    {
      "anonymous": false,
      "inputs": [
        {
          "indexed": true,
          "internalType": "address",
          "name": "newTreasuryWallet",
          "type": "address"
        }
      ],
      "name": "TreasuryWalletSet",
      "type": "event"
    },
    {
      "anonymous": false,
      "inputs": [],
      "name": "Unpause",
      "type": "event"
    },
    {
      "inputs": [],
      "name": "FEE_PRECISION",
      "outputs": [
        {
          "internalType": "uint256",
          "name": "",
          "type": "uint256"
        }
      ],
      "stateMutability": "view",
      "type": "function"
    },
    {
      "inputs": [],
      "name": "REWARD_CONTRACT",
      "outputs": [
        {
          "internalType": "address",
          "name": "",
          "type": "address"
        }
      ],
      "stateMutability": "view",
      "type": "function"
    },
    {
      "inputs": [],
      "name": "STAKING_CONTRACT",
      "outputs": [
        {
          "internalType": "address",
          "name": "",
          "type": "address"
        }
      ],
      "stateMutability": "view",
      "type": "function"
    },
    {
      "inputs": [],
      "name": "__msgData",
      "outputs": [
        {
          "internalType": "bytes",
          "name": "",
          "type": "bytes"
        }
      ],
      "stateMutability": "view",
      "type": "function"
    },
    {
      "inputs": [],
      "name": "__msgSender",
      "outputs": [
        {
          "internalType": "address",
          "name": "",
          "type": "address"
        }
      ],
      "stateMutability": "view",
      "type": "function"
    },
    {
      "inputs": [
        {
          "internalType": "address",
          "name": "recipient",
          "type": "address"
        },
        {
          "internalType": "uint256",
          "name": "amount",
          "type": "uint256"
        },
        {
          "internalType": "uint256",
          "name": "nonce_",
          "type": "uint256"
        },
        {
          "internalType": "bytes32[]",
          "name": "proof",
          "type": "bytes32[]"
        }
      ],
      "name": "claimPayout",
      "outputs": [],
      "stateMutability": "nonpayable",
      "type": "function"
    },
    {
      "inputs": [
        {
          "internalType": "address",
          "name": "recipient",
          "type": "address"
        },
        {
          "internalType": "uint256",
          "name": "amount",
          "type": "uint256"
        },
        {
          "internalType": "uint256",
          "name": "nonce_",
          "type": "uint256"
        },
        {
          "internalType": "bytes32[]",
          "name": "proof",
          "type": "bytes32[]"
        }
      ],
      "name": "claimPayoutAndStake",
      "outputs": [],
      "stateMutability": "nonpayable",
      "type": "function"
    },
    {
      "inputs": [
        {
          "internalType": "bytes32",
          "name": "",
          "type": "bytes32"
        }
      ],
      "name": "claimed",
      "outputs": [
        {
          "internalType": "bool",
          "name": "",
          "type": "bool"
        }
      ],
      "stateMutability": "view",
      "type": "function"
    },
    {
      "inputs": [],
      "name": "fee",
      "outputs": [
        {
          "internalType": "uint96",
          "name": "",
          "type": "uint96"
        }
      ],
      "stateMutability": "view",
      "type": "function"
    },
    {
      "inputs": [],
      "name": "forwarderRegistry",
      "outputs": [
        {
          "internalType": "contract IForwarderRegistry",
          "name": "",
          "type": "address"
        }
      ],
      "stateMutability": "view",
      "type": "function"
    },
    {
      "inputs": [
        {
          "internalType": "address",
          "name": "forwarder",
          "type": "address"
        }
      ],
      "name": "isTrustedForwarder",
      "outputs": [
        {
          "internalType": "bool",
          "name": "",
          "type": "bool"
        }
      ],
      "stateMutability": "view",
      "type": "function"
    },
    {
      "inputs": [],
      "name": "nonce",
      "outputs": [
        {
          "internalType": "uint256",
          "name": "",
          "type": "uint256"
        }
      ],
      "stateMutability": "view",
      "type": "function"
    },
    {
      "inputs": [],
      "name": "owner",
      "outputs": [
        {
          "internalType": "address",
          "name": "",
          "type": "address"
        }
      ],
      "stateMutability": "view",
      "type": "function"
    },
    {
      "inputs": [],
      "name": "pause",
      "outputs": [],
      "stateMutability": "nonpayable",
      "type": "function"
    },
    {
      "inputs": [],
      "name": "paused",
      "outputs": [
        {
          "internalType": "bool",
          "name": "",
          "type": "bool"
        }
      ],
      "stateMutability": "view",
      "type": "function"
    },
    {
      "inputs": [],
      "name": "payoutWallet",
      "outputs": [
        {
          "internalType": "address",
          "name": "",
          "type": "address"
        }
      ],
      "stateMutability": "view",
      "type": "function"
    },
    {
      "inputs": [
        {
          "internalType": "uint256",
          "name": "nonce",
          "type": "uint256"
        }
      ],
      "name": "rootMap",
      "outputs": [
        {
          "internalType": "bytes32",
          "name": "root",
          "type": "bytes32"
        }
      ],
      "stateMutability": "view",
      "type": "function"
    },
    {
      "inputs": [
        {
          "internalType": "bytes32",
          "name": "merkleRoot",
          "type": "bytes32"
        }
      ],
      "name": "setMerkleRoot",
      "outputs": [],
      "stateMutability": "nonpayable",
      "type": "function"
    },
    {
      "inputs": [
        {
          "internalType": "address",
          "name": "newPayoutWallet",
          "type": "address"
        }
      ],
      "name": "setPayoutWallet",
      "outputs": [],
      "stateMutability": "nonpayable",
      "type": "function"
    },
    {
      "inputs": [
        {
          "internalType": "address",
          "name": "newTreasuryWallet",
          "type": "address"
        }
      ],
      "name": "setTreasuryWallet",
      "outputs": [],
      "stateMutability": "nonpayable",
      "type": "function"
    },
    {
      "inputs": [
        {
          "internalType": "bytes4",
          "name": "interfaceId",
          "type": "bytes4"
        }
      ],
      "name": "supportsInterface",
      "outputs": [
        {
          "internalType": "bool",
          "name": "",
          "type": "bool"
        }
      ],
      "stateMutability": "view",
      "type": "function"
    },
    {
      "inputs": [
        {
          "internalType": "address",
          "name": "newOwner",
          "type": "address"
        }
      ],
      "name": "transferOwnership",
      "outputs": [],
      "stateMutability": "nonpayable",
      "type": "function"
    },
    {
      "inputs": [],
      "name": "treasuryWallet",
      "outputs": [
        {
          "internalType": "address",
          "name": "",
          "type": "address"
        }
      ],
      "stateMutability": "view",
      "type": "function"
    },
    {
      "inputs": [],
      "name": "unpause",
      "outputs": [],
      "stateMutability": "nonpayable",
      "type": "function"
    }
  ],
  "bytecode": "0x60e060405234801561001057600080fd5b506040516134ff3803806134ff83398181016040528101906100329190610b4f565b85858585858580803361005b8161004d6107de60201b60201c565b61081d60201b90919060201c565b508073ffffffffffffffffffffffffffffffffffffffff1660808173ffffffffffffffffffffffffffffffffffffffff168152505050506100ac67a36d0adc33f17b3760c01b61093760201b60201c565b6100c667f41a12884d7e7e4960c01b61093760201b60201c565b6100e0675ba9bd0ada17a2b760c01b61093760201b60201c565b600073ffffffffffffffffffffffffffffffffffffffff168673ffffffffffffffffffffffffffffffffffffffff16036101855761012e67e1d3106370b5eec360c01b61093760201b60201c565b61014867f2ebf5c343b4690260c01b61093760201b60201c565b856040517fa50e6d0600000000000000000000000000000000000000000000000000000000815260040161017c9190610beb565b60405180910390fd5b61019f67d6adf97c1300073560c01b61093760201b60201c565b6101b967028224bcda3fd3f160c01b61093760201b60201c565b6101d367c6573d49b8b457ee60c01b61093760201b60201c565b600073ffffffffffffffffffffffffffffffffffffffff168573ffffffffffffffffffffffffffffffffffffffff1603610278576102216783ae3a514963d1d660c01b61093760201b60201c565b61023b672842dde92847e2ee60c01b61093760201b60201c565b846040517f81d97a5e00000000000000000000000000000000000000000000000000000000815260040161026f9190610beb565b60405180910390fd5b61029267e6fe166f375962af60c01b61093760201b60201c565b6102ac67954d1bf7b105f97260c01b61093760201b60201c565b6102c66753ffc2574d590cba60c01b61093760201b60201c565b600073ffffffffffffffffffffffffffffffffffffffff168473ffffffffffffffffffffffffffffffffffffffff1603610360576103146796dea910f583e2cf60c01b61093760201b60201c565b61032e67f511eee0969a3bef60c01b61093760201b60201c565b6040517fc41cbee200000000000000000000000000000000000000000000000000000000815260040160405180910390fd5b61037a67fcddcf9f05abce3a60c01b61093760201b60201c565b610394670f45261b1a1c9a8c60c01b61093760201b60201c565b6103ae673c524d8f2dcf1b8e60c01b61093760201b60201c565b600073ffffffffffffffffffffffffffffffffffffffff168373ffffffffffffffffffffffffffffffffffffffff1603610448576103fc67ac47d6bedafdb43760c01b61093760201b60201c565b610416678f11a9c2afff8acb60c01b61093760201b60201c565b6040517fa56b8e2800000000000000000000000000000000000000000000000000000000815260040160405180910390fd5b6104626744c28dbe437b1dfc60c01b61093760201b60201c565b61047c67284ede5b121b9d3e60c01b61093760201b60201c565b6104966745f3ef2ccb38590c60c01b61093760201b60201c565b612710826bffffffffffffffffffffffff161115610514576104c86742e5b9f0295b445b60c01b61093760201b60201c565b6104e26702f82b71c2bdc9de60c01b61093760201b60201c565b6040517f58d620b300000000000000000000000000000000000000000000000000000000815260040160405180910390fd5b61052e6731a20387d0d79ccd60c01b61093760201b60201c565b6105486754c5f1fd634dfcd160c01b61093760201b60201c565b61056267629ac93ff6bad45b60c01b61093760201b60201c565b600073ffffffffffffffffffffffffffffffffffffffff168173ffffffffffffffffffffffffffffffffffffffff16036105fc576105b067a3aa0fcab4a2adf760c01b61093760201b60201c565b6105ca6779a731af8353c2f360c01b61093760201b60201c565b6040517fd516e87c00000000000000000000000000000000000000000000000000000000815260040160405180910390fd5b61061667dbedd722de4f23c160c01b61093760201b60201c565b6106306707d6d904528705b460c01b61093760201b60201c565b8573ffffffffffffffffffffffffffffffffffffffff1660a08173ffffffffffffffffffffffffffffffffffffffff168152505061067e676e034145a881c40760c01b61093760201b60201c565b8473ffffffffffffffffffffffffffffffffffffffff1660c08173ffffffffffffffffffffffffffffffffffffffff16815250506106cc67e4361ac244b7cdf060c01b61093760201b60201c565b83600260006101000a81548173ffffffffffffffffffffffffffffffffffffffff021916908373ffffffffffffffffffffffffffffffffffffffff16021790555061072767363c98df3963001e60c01b61093760201b60201c565b82600460006101000a81548173ffffffffffffffffffffffffffffffffffffffff021916908373ffffffffffffffffffffffffffffffffffffffff160217905550610782676f476763bdd26a2660c01b61093760201b60201c565b81600460146101000a8154816bffffffffffffffffffffffff02191690836bffffffffffffffffffffffff1602179055505050505050506107d367f9b6e43d54455cc460c01b61093a60201b60201c565b505050505050610c73565b60008060017fc9ed16f33ab3a66c84bfd83099ccb2a8845871e2e1c1928f63797152f0fd54cd60001c6108119190610c3f565b60001b90508091505090565b600073ffffffffffffffffffffffffffffffffffffffff168173ffffffffffffffffffffffffffffffffffffffff16146108f057808260000160006101000a81548173ffffffffffffffffffffffffffffffffffffffff021916908373ffffffffffffffffffffffffffffffffffffffff1602179055508073ffffffffffffffffffffffffffffffffffffffff16600073ffffffffffffffffffffffffffffffffffffffff167f8be0079c531659141344cd1fd0a4f28419497f9722a3daafe3b4186f6b6457e060405160405180910390a35b6109337f7f5828d000000000000000000000000000000000000000000000000000000000600161092461093d60201b60201c565b61097c60201b9092919060201c565b5050565b50565b50565b60008060017fca9d3e17f264b0f3984e2634e94adb37fa3e6a8103f06aeae6fa59e21c769f5e60001c6109709190610c3f565b60001b90508091505090565b63ffffffff60e01b7bffffffffffffffffffffffffffffffffffffffffffffffffffffffff1916827bffffffffffffffffffffffffffffffffffffffffffffffffffffffff1916036109fa576040517f72c683bb00000000000000000000000000000000000000000000000000000000815260040160405180910390fd5b80836000016000847bffffffffffffffffffffffffffffffffffffffffffffffffffffffff19167bffffffffffffffffffffffffffffffffffffffffffffffffffffffff1916815260200190815260200160002060006101000a81548160ff021916908315150217905550505050565b600080fd5b600073ffffffffffffffffffffffffffffffffffffffff82169050919050565b6000610a9a82610a6f565b9050919050565b610aaa81610a8f565b8114610ab557600080fd5b50565b600081519050610ac781610aa1565b92915050565b60006bffffffffffffffffffffffff82169050919050565b610aee81610acd565b8114610af957600080fd5b50565b600081519050610b0b81610ae5565b92915050565b6000610b1c82610a8f565b9050919050565b610b2c81610b11565b8114610b3757600080fd5b50565b600081519050610b4981610b23565b92915050565b60008060008060008060c08789031215610b6c57610b6b610a6a565b5b6000610b7a89828a01610ab8565b9650506020610b8b89828a01610ab8565b9550506040610b9c89828a01610ab8565b9450506060610bad89828a01610ab8565b9350506080610bbe89828a01610afc565b92505060a0610bcf89828a01610b3a565b9150509295509295509295565b610be581610a8f565b82525050565b6000602082019050610c006000830184610bdc565b92915050565b6000819050919050565b7f4e487b7100000000000000000000000000000000000000000000000000000000600052601160045260246000fd5b6000610c4a82610c06565b9150610c5583610c06565b9250828203905081811115610c6d57610c6c610c10565b5b92915050565b60805160a05160c05161281e610ce160003960008181610ba7015261100d015260008181610610015281816106d90152818161089a0152610b6a0152600081816108250152818161091901528181611ace01528181611b2301528181611c440152611c99015261281e6000f3fe608060405234801561001057600080fd5b50600436106101985760003560e01c80638456cb59116100e3578063d1a91ff21161008c578063ddca3f4311610066578063ddca3f431461042a578063e63a391f14610448578063f2fde38b1461046657610198565b8063d1a91ff2146103be578063da19ddfb146103dc578063db200205146103fa57610198565b8063a8602fea116100bd578063a8602fea14610354578063affed0e014610370578063cc3c0f061461038e57610198565b80638456cb591461030e5780638488bb4e146103185780638da5cb5b1461033657610198565b80634626402b116101455780636b8f9c431161011f5780636b8f9c43146102ba5780636ed31d09146102d65780637cb64759146102f257610198565b80634626402b1461024e578063572b6c051461026c5780635c975abb1461029c57610198565b806331e66e1e1161017657806331e66e1e146102075780633a5af339146102265780633f4ba83a1461024457610198565b806301ffc9a71461019d57806321c3df25146101cd5780632b4c9f16146101e9575b600080fd5b6101b760048036038101906101b29190611ec1565b610482565b6040516101c49190611f09565b60405180910390f35b6101e760048036038101906101e2919061201d565b6104a5565b005b6101f1610821565b6040516101fe9190612104565b60405180910390f35b61020f610849565b60405161021d92919061217d565b60405180910390f35b61022e610898565b60405161023b91906121b0565b60405180910390f35b61024c6108bc565b005b6102566108ef565b60405161026391906121b0565b60405180910390f35b610286600480360381019061028191906121cb565b610915565b6040516102939190611f09565b60405180910390f35b6102a461096d565b6040516102b19190611f09565b60405180910390f35b6102d460048036038101906102cf91906121cb565b610984565b005b6102f060048036038101906102eb919061201d565b610aa4565b005b61030c6004803603810190610307919061222e565b610cd0565b005b610316610e0a565b005b610320610e3d565b60405161032d91906121b0565b60405180910390f35b61033e610e63565b60405161034b91906121b0565b60405180910390f35b61036e600480360381019061036991906121cb565b610e7a565b005b610378610f9a565b604051610385919061226a565b60405180910390f35b6103a860048036038101906103a3919061222e565b610fa0565b6040516103b59190611f09565b60405180910390f35b6103c6610fc0565b6040516103d391906121b0565b60405180910390f35b6103e461100b565b6040516103f191906121b0565b60405180910390f35b610414600480360381019061040f9190612285565b61102f565b60405161042191906122c1565b60405180910390f35b610432611047565b60405161043f9190612303565b60405180910390f35b610450611065565b60405161045d919061226a565b60405180910390f35b610480600480360381019061047b91906121cb565b61106b565b005b600061049e82610490611091565b6110d090919063ffffffff16565b9050919050565b6104b96778a933ca72bb7dbc60c01b6111ff565b6104cd679035f8f98fe4b1e160c01b6111ff565b6104e167a0f21499b3c32b7360c01b6111ff565b60006104f08686868686611202565b905061050667a984774aa3943eaf60c01b6111ff565b61051a67712e2bbcc7f9afce60c01b6111ff565b6000600260009054906101000a900473ffffffffffffffffffffffffffffffffffffffff169050610555675810c450c4878b0860c01b6111ff565b610569673171e5520acb297c60c01b6111ff565b6000612710600460149054906101000a90046bffffffffffffffffffffffff166bffffffffffffffffffffffff16886105a2919061234d565b6105ac91906123be565b90506105c267bbd9522296412b5c60c01b6111ff565b6105d6679298961c7a33fcbd60c01b6111ff565b600081886105e491906123ef565b90506105fa67e912e15f0a67591a60c01b6111ff565b61060e67e24634582e52c89c60c01b6111ff565b7f000000000000000000000000000000000000000000000000000000000000000073ffffffffffffffffffffffffffffffffffffffff1663b88d4fde848b846040518463ffffffff1660e01b815260040161066b93929190612449565b6020604051808303816000875af115801561068a573d6000803e3d6000fd5b505050506040513d601f19601f820116820180604052508101906106ae91906124bf565b506106c3676d12824caa331eac60c01b6111ff565b6106d767fdbdc225ff6e7e6160c01b6111ff565b7f000000000000000000000000000000000000000000000000000000000000000073ffffffffffffffffffffffffffffffffffffffff1663b88d4fde84600460009054906101000a900473ffffffffffffffffffffffffffffffffffffffff16856040518463ffffffff1660e01b815260040161075693929190612449565b6020604051808303816000875af1158015610775573d6000803e3d6000fd5b505050506040513d601f19601f8201168201806040525081019061079991906124bf565b506107ae6732e24239e34ad1d160c01b6111ff565b6107c26799e45fdc9469e71260c01b6111ff565b8273ffffffffffffffffffffffffffffffffffffffff1684887f4198e253c4ae311bc3d0c7aca40cb1a9827879ca09dc5f3a430127c736748f188c858760405161080e939291906124ec565b60405180910390a4505050505050505050565b60007f0000000000000000000000000000000000000000000000000000000000000000905090565b36600061086067c14d123f9de969e960c01b6115ff565b61087467cd59a43744958f7060c01b6115ff565b61088867a6ea60d12f2d09c060c01b6115ff565b610890611602565b915091509091565b7f000000000000000000000000000000000000000000000000000000000000000081565b6108dd6108c7611651565b6108cf61169c565b6116db90919063ffffffff16565b6108ed6108e8611773565b6117b2565b565b600460009054906101000a900473ffffffffffffffffffffffffffffffffffffffff1681565b60007f000000000000000000000000000000000000000000000000000000000000000073ffffffffffffffffffffffffffffffffffffffff168273ffffffffffffffffffffffffffffffffffffffff16149050919050565b600061097f61097a611773565b611807565b905090565b61099867928c33f27d01033f60c01b6111ff565b6109ac678d1614dcaecd1d8460c01b6111ff565b6109c067443ead99e20af34860c01b6111ff565b6109e16109cb611651565b6109d361169c565b6116db90919063ffffffff16565b6109f567d653c1dda23cb42660c01b6111ff565b80600260006101000a81548173ffffffffffffffffffffffffffffffffffffffff021916908373ffffffffffffffffffffffffffffffffffffffff160217905550610a4a67600cf39eb099506760c01b6111ff565b610a5e6713b3bdfb30a95acd60c01b6111ff565b8073ffffffffffffffffffffffffffffffffffffffff167fdd880d24a789958a6398c99c2e54ce31bc10a638cbc42f7dd34285479ae0f85560405160405180910390a250565b610ab8671fa9a34f82f569f560c01b6111ff565b610acc67ccdf7fc425ae651c60c01b6111ff565b610ae0677bbfc81b5d11388460c01b6111ff565b6000610aef8686868686611202565b9050610b0567d6fce75f5bb9934960c01b6111ff565b610b1967fe8125bd1e7535ff60c01b6111ff565b6000600260009054906101000a900473ffffffffffffffffffffffffffffffffffffffff169050610b546712e3a3940b2ed1cb60c01b6111ff565b610b6867c8511a1845337b1760c01b6111ff565b7f000000000000000000000000000000000000000000000000000000000000000073ffffffffffffffffffffffffffffffffffffffff1663b88d4fde827f0000000000000000000000000000000000000000000000000000000000000000898b604051602001610bd891906121b0565b6040516020818303038152906040526040518563ffffffff1660e01b8152600401610c069493929190612591565b6020604051808303816000875af1158015610c25573d6000803e3d6000fd5b505050506040513d601f19601f82011682018060405250810190610c4991906124bf565b50610c5e67471763f08e05d1f460c01b6111ff565b610c7267465a0a91b88c859460c01b6111ff565b8073ffffffffffffffffffffffffffffffffffffffff1682867f4198e253c4ae311bc3d0c7aca40cb1a9827879ca09dc5f3a430127c736748f188a8a6000604051610cbf93929190612618565b60405180910390a450505050505050565b610ce4676990f6d6e5bdc50560c01b6111ff565b610cf8675ec09081b65b9d2660c01b6111ff565b610d0c67237470c49cd9ae2a60c01b6111ff565b610d2d610d17611651565b610d1f61169c565b6116db90919063ffffffff16565b610d4167b7f67d7449fef35760c01b6111ff565b610d55675e80f1a38095b0f260c01b6111ff565b600080549050610d6f6777ad003a196f927560c01b6111ff565b816001600083815260200190815260200160002081905550610d9b67a0b843d6b512dde960c01b6111ff565b6000808154610da99061264f565b91905081905550610dc4676fa1815d9989536e60c01b6111ff565b610dd86705a0122b50355bd960c01b6111ff565b81817fb04b7d6145a7588fdcf339a22877d5965f861c171204fc37688058c5f6c06d3b60405160405180910390a35050565b610e2b610e15611651565b610e1d61169c565b6116db90919063ffffffff16565b610e3b610e36611773565b611822565b565b600260009054906101000a900473ffffffffffffffffffffffffffffffffffffffff1681565b6000610e75610e7061169c565b611877565b905090565b610e8e670aa0a42f500f709b60c01b6111ff565b610ea2675aa1f6791f6b422460c01b6111ff565b610eb66754b4f7e0fad144e360c01b6111ff565b610ed7610ec1611651565b610ec961169c565b6116db90919063ffffffff16565b610eeb67018055766956728860c01b6111ff565b80600460006101000a81548173ffffffffffffffffffffffffffffffffffffffff021916908373ffffffffffffffffffffffffffffffffffffffff160217905550610f4067a512d3ba837cc4e560c01b6111ff565b610f546786a2de4e8066dbfc60c01b6111ff565b8073ffffffffffffffffffffffffffffffffffffffff167f5695f8b02f5f53d02b408db3ed952c16f32f9701ad2691c44733f2a2d09225a960405160405180910390a250565b60005481565b60036020528060005260406000206000915054906101000a900460ff1681565b6000610fd66769b2f3a5e252866760c01b6115ff565b610fea6772a006f61dacfb2060c01b6115ff565b610ffe67c8df36afde0d87b260c01b6115ff565b611006611651565b905090565b7f000000000000000000000000000000000000000000000000000000000000000081565b60016020528060005260406000206000915090505481565b600460149054906101000a90046bffffffffffffffffffffffff1681565b61271081565b61108e611076611651565b8261107f61169c565b6118a59092919063ffffffff16565b50565b60008060017fca9d3e17f264b0f3984e2634e94adb37fa3e6a8103f06aeae6fa59e21c769f5e60001c6110c491906123ef565b60001b90508091505090565b600063ffffffff60e01b7bffffffffffffffffffffffffffffffffffffffffffffffffffffffff1916827bffffffffffffffffffffffffffffffffffffffffffffffffffffffff19160361112757600090506111f9565b7f01ffc9a7000000000000000000000000000000000000000000000000000000007bffffffffffffffffffffffffffffffffffffffffffffffffffffffff1916827bffffffffffffffffffffffffffffffffffffffffffffffffffffffff19160361119557600190506111f9565b826000016000837bffffffffffffffffffffffffffffffffffffffffffffffffffffffff19167bffffffffffffffffffffffffffffffffffffffffffffffffffffffff1916815260200190815260200160002060009054906101000a900460ff1690505b92915050565b50565b600061121867a7327f453ad5032160c01b6111ff565b61122c67075c662761029a2960c01b6111ff565b61124067bf28ab16e133c08660c01b6111ff565b600085036112ad5761125c6797603388ab818c2860c01b6111ff565b611270679fb27415628391d860c01b6111ff565b846040517f27ab1ee20000000000000000000000000000000000000000000000000000000081526004016112a4919061226a565b60405180910390fd5b6112c167e04a91daf0131d6b60c01b6111ff565b6112d567dec24d517c734c9660c01b6111ff565b6112e967d66b1d07ecab5b3360c01b6111ff565b6112f96112f4611773565b611a15565b61130d67ac81a3bc0e1c460060c01b6111ff565b6001600085815260200190815260200160002054905061133767a83abcc386f1af5160c01b6111ff565b61134b67f64cd1c6f7ddaf1c60c01b6111ff565b6000801b81036113ba57611369674fd05ae2de49f15f60c01b6111ff565b61137d673c3ab8f20eb36f5860c01b6111ff565b836040517fab4a79390000000000000000000000000000000000000000000000000000000081526004016113b1919061226a565b60405180910390fd5b6113ce672824ffb85f09520560c01b6111ff565b6113e267efd8f9e092ff2bac60c01b6111ff565b6113f667632eba0c04b014f760c01b6111ff565b600086868660405160200161140d93929190612700565b604051602081830303815290604052805190602001209050611439671e43010ee891c02460c01b6111ff565b61144d67993c2e012c4cef6960c01b6111ff565b61146982828686611a619190939291909392919063ffffffff16565b6114d657611481675aa8dc0b94b40e8360c01b6111ff565b6114956792a4bf13cb61e1e760c01b6111ff565b8686866040517f3c6ee01b0000000000000000000000000000000000000000000000000000000081526004016114cd939291906124ec565b60405180910390fd5b6114ea67781d0a12fc2b6fa260c01b6111ff565b6114fe67b0431c2e7f23866260c01b6111ff565b6115126708ba5900c37248f960c01b6111ff565b6003600082815260200190815260200160002060009054906101000a900460ff16156115a15761154c67814b93850c5c56ad60c01b6111ff565b6115606773133859a92ff36460c01b6111ff565b8686866040517f65088232000000000000000000000000000000000000000000000000000000008152600401611598939291906124ec565b60405180910390fd5b6115b567afc2d03b49a4484e60c01b6111ff565b6115c96743515cbaa4995deb60c01b6111ff565b60016003600083815260200190815260200160002060006101000a81548160ff0219169083151502179055505095945050505050565b50565b3660006116196746339f04270a88b560c01b6111ff565b61162d67205e4d60b354d13260c01b6111ff565b61164167f09250e0d4737b1d60c01b6111ff565b611649611a7a565b915091509091565b600061166767bbd9c07b9847e90c60c01b6111ff565b61167b674061a9d6377a14cb60c01b6111ff565b61168f67f0891df5316503f260c01b6111ff565b611697611be9565b905090565b60008060017fc9ed16f33ab3a66c84bfd83099ccb2a8845871e2e1c1928f63797152f0fd54cd60001c6116cf91906123ef565b60001b90508091505090565b8160000160009054906101000a900473ffffffffffffffffffffffffffffffffffffffff1673ffffffffffffffffffffffffffffffffffffffff168173ffffffffffffffffffffffffffffffffffffffff161461176f57806040517f2ef4875e00000000000000000000000000000000000000000000000000000000815260040161176691906121b0565b60405180910390fd5b5050565b60008060017f0186a05f63b1553398ad5ea3233c0ce68b8c9eecc47717f123c5c2b42fbd6d9f60001c6117a691906123ef565b60001b90508091505090565b6117bb81611d4c565b60008160000160006101000a81548160ff0219169083151502179055507f7805862f689e2f13df9f062ff482ad3ad112aca9e0847911ed832e158c525b3360405160405180910390a150565b60008160000160009054906101000a900460ff169050919050565b61182b81611a15565b60018160000160006101000a81548160ff0219169083151502179055507f6985a02210a168e66602d3235cb6db0e70f92b3ba4d376a33c0f3d9434bff62560405160405180910390a150565b60008160000160009054906101000a900473ffffffffffffffffffffffffffffffffffffffff169050919050565b60008360000160009054906101000a900473ffffffffffffffffffffffffffffffffffffffff1690508073ffffffffffffffffffffffffffffffffffffffff168373ffffffffffffffffffffffffffffffffffffffff161461193e57826040517f2ef4875e00000000000000000000000000000000000000000000000000000000815260040161193591906121b0565b60405180910390fd5b8173ffffffffffffffffffffffffffffffffffffffff168173ffffffffffffffffffffffffffffffffffffffff1614611a0f57818460000160006101000a81548173ffffffffffffffffffffffffffffffffffffffff021916908373ffffffffffffffffffffffffffffffffffffffff1602179055508173ffffffffffffffffffffffffffffffffffffffff168173ffffffffffffffffffffffffffffffffffffffff167f8be0079c531659141344cd1fd0a4f28419497f9722a3daafe3b4186f6b6457e060405160405180910390a35b50505050565b8060000160009054906101000a900460ff1615611a5e576040517f9e87fac800000000000000000000000000000000000000000000000000000000815260040160405180910390fd5b50565b600082611a6f868685611d97565b149050949350505050565b3660003273ffffffffffffffffffffffffffffffffffffffff163373ffffffffffffffffffffffffffffffffffffffff161480611abb575060186000369050105b15611acc5760003691509150611be5565b7f000000000000000000000000000000000000000000000000000000000000000073ffffffffffffffffffffffffffffffffffffffff163373ffffffffffffffffffffffffffffffffffffffff161480611bc757507f000000000000000000000000000000000000000000000000000000000000000073ffffffffffffffffffffffffffffffffffffffff1663019a2028611b65611de9565b33306040518463ffffffff1660e01b8152600401611b859392919061273d565b602060405180830381865afa158015611ba2573d6000803e3d6000fd5b505050506040513d601f19601f82011682018060405250810190611bc691906124bf565b5b15611bdd57611bd4611df8565b91509150611be5565b600036915091505b9091565b60003273ffffffffffffffffffffffffffffffffffffffff163373ffffffffffffffffffffffffffffffffffffffff161480611c29575060186000369050105b15611c3657339050611d49565b6000611c40611de9565b90507f000000000000000000000000000000000000000000000000000000000000000073ffffffffffffffffffffffffffffffffffffffff163373ffffffffffffffffffffffffffffffffffffffff161480611d3657507f000000000000000000000000000000000000000000000000000000000000000073ffffffffffffffffffffffffffffffffffffffff1663019a20288233306040518463ffffffff1660e01b8152600401611cf49392919061273d565b602060405180830381865afa158015611d11573d6000803e3d6000fd5b505050506040513d601f19601f82011682018060405250810190611d3591906124bf565b5b15611d445780915050611d49565b339150505b90565b8060000160009054906101000a900460ff16611d94576040517f6cd6020100000000000000000000000000000000000000000000000000000000815260040160405180910390fd5b50565b60008082905060005b85859050811015611ddd57611dce82878784818110611dc257611dc1612774565b5b90506020020135611e1d565b91508080600101915050611da0565b50809150509392505050565b6000601436033560601c905090565b3660008036600090601460003690500392611e15939291906127ad565b915091509091565b6000818310611e3557611e308284611e48565b611e40565b611e3f8383611e48565b5b905092915050565b600082600052816020526040600020905092915050565b600080fd5b600080fd5b60007fffffffff0000000000000000000000000000000000000000000000000000000082169050919050565b611e9e81611e69565b8114611ea957600080fd5b50565b600081359050611ebb81611e95565b92915050565b600060208284031215611ed757611ed6611e5f565b5b6000611ee584828501611eac565b91505092915050565b60008115159050919050565b611f0381611eee565b82525050565b6000602082019050611f1e6000830184611efa565b92915050565b600073ffffffffffffffffffffffffffffffffffffffff82169050919050565b6000611f4f82611f24565b9050919050565b611f5f81611f44565b8114611f6a57600080fd5b50565b600081359050611f7c81611f56565b92915050565b6000819050919050565b611f9581611f82565b8114611fa057600080fd5b50565b600081359050611fb281611f8c565b92915050565b600080fd5b600080fd5b600080fd5b60008083601f840112611fdd57611fdc611fb8565b5b8235905067ffffffffffffffff811115611ffa57611ff9611fbd565b5b60208301915083602082028301111561201657612015611fc2565b5b9250929050565b60008060008060006080868803121561203957612038611e5f565b5b600061204788828901611f6d565b955050602061205888828901611fa3565b945050604061206988828901611fa3565b935050606086013567ffffffffffffffff81111561208a57612089611e64565b5b61209688828901611fc7565b92509250509295509295909350565b6000819050919050565b60006120ca6120c56120c084611f24565b6120a5565b611f24565b9050919050565b60006120dc826120af565b9050919050565b60006120ee826120d1565b9050919050565b6120fe816120e3565b82525050565b600060208201905061211960008301846120f5565b92915050565b600082825260208201905092915050565b82818337600083830152505050565b6000601f19601f8301169050919050565b600061215c838561211f565b9350612169838584612130565b6121728361213f565b840190509392505050565b60006020820190508181036000830152612198818486612150565b90509392505050565b6121aa81611f44565b82525050565b60006020820190506121c560008301846121a1565b92915050565b6000602082840312156121e1576121e0611e5f565b5b60006121ef84828501611f6d565b91505092915050565b6000819050919050565b61220b816121f8565b811461221657600080fd5b50565b60008135905061222881612202565b92915050565b60006020828403121561224457612243611e5f565b5b600061225284828501612219565b91505092915050565b61226481611f82565b82525050565b600060208201905061227f600083018461225b565b92915050565b60006020828403121561229b5761229a611e5f565b5b60006122a984828501611fa3565b91505092915050565b6122bb816121f8565b82525050565b60006020820190506122d660008301846122b2565b92915050565b60006bffffffffffffffffffffffff82169050919050565b6122fd816122dc565b82525050565b600060208201905061231860008301846122f4565b92915050565b7f4e487b7100000000000000000000000000000000000000000000000000000000600052601160045260246000fd5b600061235882611f82565b915061236383611f82565b925082820261237181611f82565b915082820484148315176123885761238761231e565b5b5092915050565b7f4e487b7100000000000000000000000000000000000000000000000000000000600052601260045260246000fd5b60006123c982611f82565b91506123d483611f82565b9250826123e4576123e361238f565b5b828204905092915050565b60006123fa82611f82565b915061240583611f82565b925082820390508181111561241d5761241c61231e565b5b92915050565b50565b600061243360008361211f565b915061243e82612423565b600082019050919050565b600060808201905061245e60008301866121a1565b61246b60208301856121a1565b612478604083018461225b565b818103606083015261248981612426565b9050949350505050565b61249c81611eee565b81146124a757600080fd5b50565b6000815190506124b981612493565b92915050565b6000602082840312156124d5576124d4611e5f565b5b60006124e3848285016124aa565b91505092915050565b600060608201905061250160008301866121a1565b61250e602083018561225b565b61251b604083018461225b565b949350505050565b600081519050919050565b60005b8381101561254c578082015181840152602081019050612531565b60008484015250505050565b600061256382612523565b61256d818561211f565b935061257d81856020860161252e565b6125868161213f565b840191505092915050565b60006080820190506125a660008301876121a1565b6125b360208301866121a1565b6125c0604083018561225b565b81810360608301526125d28184612558565b905095945050505050565b6000819050919050565b60006126026125fd6125f8846125dd565b6120a5565b611f82565b9050919050565b612612816125e7565b82525050565b600060608201905061262d60008301866121a1565b61263a602083018561225b565b6126476040830184612609565b949350505050565b600061265a82611f82565b91507fffffffffffffffffffffffffffffffffffffffffffffffffffffffffffffffff820361268c5761268b61231e565b5b600182019050919050565b60008160601b9050919050565b60006126af82612697565b9050919050565b60006126c1826126a4565b9050919050565b6126d96126d482611f44565b6126b6565b82525050565b6000819050919050565b6126fa6126f582611f82565b6126df565b82525050565b600061270c82866126c8565b60148201915061271c82856126e9565b60208201915061272c82846126e9565b602082019150819050949350505050565b600060608201905061275260008301866121a1565b61275f60208301856121a1565b61276c60408301846121a1565b949350505050565b7f4e487b7100000000000000000000000000000000000000000000000000000000600052603260045260246000fd5b600080fd5b600080fd5b600080858511156127c1576127c06127a3565b5b838611156127d2576127d16127a8565b5b600185028301915084860390509450949250505056fea26469706673582212201ff523e1d3bc2e4f079a58a8fa6109da14a8cf14825afeb2e9b022e2b8376b5064736f6c634300081c0033",
  "linkReferences": {},
  "deployedLinkReferences": {}
}