{
  "_format": "hh-sol-artifact-1",
  "contractName": "NonReentrantAttack",
  "sourceName": "contracts/mocks/token/ERC1155/Claim/NonReentrantAttack.sol",
  "abi": [
    {
      "inputs": [
        {
          "internalType": "address",
          "name": "_tokenClaimAddress",
          "type": "address"
        }
      ],
      "stateMutability": "nonpayable",
      "type": "constructor"
    },
    {
      "inputs": [],
      "name": "attackContractAddress",
      "outputs": [
        {
          "internalType": "address",
          "name": "",
          "type": "address"
        }
      ],
      "stateMutability": "view",
      "type": "function"
    },
    {
      "inputs": [
        {
          "internalType": "address",
          "name": "",
          "type": "address"
        },
        {
          "internalType": "address",
          "name": "",
          "type": "address"
        },
        {
          "internalType": "uint256[]",
          "name": "",
          "type": "uint256[]"
        },
        {
          "internalType": "uint256[]",
          "name": "",
          "type": "uint256[]"
        },
        {
          "internalType": "bytes",
          "name": "",
          "type": "bytes"
        }
      ],
      "name": "onERC1155BatchReceived",
      "outputs": [],
      "stateMutability": "nonpayable",
      "type": "function"
    },
    {
      "inputs": [],
      "name": "tokenClaim",
      "outputs": [
        {
          "internalType": "contract TokenClaim",
          "name": "",
          "type": "address"
        }
      ],
      "stateMutability": "view",
      "type": "function"
    }
  ],
  "bytecode": "0x608060405234801561001057600080fd5b506040516105c73803806105c783398101604081905261002f91610054565b600080546001600160a01b0319166001600160a01b0392909216919091179055610084565b60006020828403121561006657600080fd5b81516001600160a01b038116811461007d57600080fd5b9392505050565b610534806100936000396000f3fe608060405234801561001057600080fd5b50600436106100415760003560e01c80637e61376d14610046578063bc197c8114610075578063facbf5a21461008a575b600080fd5b600054610059906001600160a01b031681565b6040516001600160a01b03909116815260200160405180910390f35b610088610083366004610331565b61009d565b005b600154610059906001600160a01b031681565b60408051600380825260808201909252309160009190602082016060803683370190505090506001816000815181106100d8576100d8610418565b6020026020010181815250506002816001815181106100f9576100f9610418565b60200260200101818152505060038160028151811061011a5761011a610418565b60209081029190910101526040805160038082526080820190925260009181602001602082028036833701905050905060648160008151811061015f5761015f610418565b60200260200101818152505060c88160018151811061018057610180610418565b60200260200101818152505061012c816002815181106101a2576101a2610418565b6020908102919091010152604080516003808252608082019092526000918160200160208202803683370190505090506001816000815181106101e7576101e7610418565b60200260200101818152505060018160018151811061020857610208610418565b60200260200101818152505060018160028151811061022957610229610418565b6020908102919091018101919091526040805180820182526002815261060f60f31b92810192909252600054905163f62ded8160e01b81526001600160a01b039091169063f62ded81906102899088908890889088908890600401610469565b600060405180830381600087803b1580156102a357600080fd5b505af11580156102b7573d6000803e3d6000fd5b5050505050505050505050505050505050565b80356001600160a01b03811681146102e157600080fd5b919050565b60008083601f8401126102f857600080fd5b5081356001600160401b0381111561030f57600080fd5b6020830191508360208260051b850101111561032a57600080fd5b9250929050565b60008060008060008060008060a0898b03121561034d57600080fd5b610356896102ca565b975061036460208a016102ca565b965060408901356001600160401b038082111561038057600080fd5b61038c8c838d016102e6565b909850965060608b01359150808211156103a557600080fd5b6103b18c838d016102e6565b909650945060808b01359150808211156103ca57600080fd5b818b0191508b601f8301126103de57600080fd5b8135818111156103ed57600080fd5b8c60208285010111156103ff57600080fd5b6020830194508093505050509295985092959890939650565b634e487b7160e01b600052603260045260246000fd5b600081518084526020808501945080840160005b8381101561045e57815187529582019590820190600101610442565b509495945050505050565b6001600160a01b038616815260a0602080830182905260009161048e9084018861042e565b83810360408501526104a0818861042e565b905083810360608501526104b4818761042e565b90508381036080850152845180825260005b818110156104e15786810184015183820185015283016104c6565b506000828201840152601f01601f1916010197965050505050505056fea2646970667358221220afe219d96fcc0eb8abd63045f02549e3dd817a78972582494ac6ad936698901564736f6c63430008110033",
  "linkReferences": {},
  "deployedLinkReferences": {}
}