{
  "_format": "hh-sol-artifact-1",
  "contractName": "NonReentrantAttack",
  "sourceName": "contracts/mocks/token/ERC1155/Claim/NonReentrantAttack.sol",
  "abi": [
    {
      "inputs": [
        {
          "internalType": "address",
          "name": "_tokenClaimAddress",
          "type": "address"
        }
      ],
      "stateMutability": "nonpayable",
      "type": "constructor"
    },
    {
      "inputs": [],
      "name": "attackContractAddress",
      "outputs": [
        {
          "internalType": "address",
          "name": "",
          "type": "address"
        }
      ],
      "stateMutability": "view",
      "type": "function"
    },
    {
      "inputs": [
        {
          "internalType": "address",
          "name": "",
          "type": "address"
        },
        {
          "internalType": "address",
          "name": "",
          "type": "address"
        },
        {
          "internalType": "uint256[]",
          "name": "",
          "type": "uint256[]"
        },
        {
          "internalType": "uint256[]",
          "name": "",
          "type": "uint256[]"
        },
        {
          "internalType": "bytes",
          "name": "",
          "type": "bytes"
        }
      ],
      "name": "onERC1155BatchReceived",
      "outputs": [],
      "stateMutability": "nonpayable",
      "type": "function"
    },
    {
      "inputs": [],
      "name": "tokenClaim",
      "outputs": [
        {
          "internalType": "contract TokenClaim",
          "name": "",
          "type": "address"
        }
      ],
      "stateMutability": "view",
      "type": "function"
    }
  ],
  "bytecode": "0x608060405234801561001057600080fd5b5060405161068038038061068083398101604081905261002f91610054565b600080546001600160a01b0319166001600160a01b0392909216919091179055610084565b60006020828403121561006657600080fd5b81516001600160a01b038116811461007d57600080fd5b9392505050565b6105ed806100936000396000f3fe608060405234801561001057600080fd5b50600436106100415760003560e01c80637e61376d14610046578063bc197c811461008f578063facbf5a2146100a4575b600080fd5b6000546100669073ffffffffffffffffffffffffffffffffffffffff1681565b60405173ffffffffffffffffffffffffffffffffffffffff909116815260200160405180910390f35b6100a261009d3660046103a7565b6100c4565b005b6001546100669073ffffffffffffffffffffffffffffffffffffffff1681565b60408051600380825260808201909252309160009190602082016060803683370190505090506001816000815181106100ff576100ff61048f565b6020026020010181815250506002816001815181106101205761012061048f565b6020026020010181815250506003816002815181106101415761014161048f565b6020908102919091010152604080516003808252608082019092526000918160200160208202803683370190505090506064816000815181106101865761018661048f565b60200260200101818152505060c8816001815181106101a7576101a761048f565b60200260200101818152505061012c816002815181106101c9576101c961048f565b60209081029190910101526040805160038082526080820190925260009181602001602082028036833701905050905060018160008151811061020e5761020e61048f565b60200260200101818152505060018160018151811061022f5761022f61048f565b6020026020010181815250506001816002815181106102505761025061048f565b602090810291909101810191909152604080518082018252600281527f30780000000000000000000000000000000000000000000000000000000000009281019290925260005490517ff62ded8100000000000000000000000000000000000000000000000000000000815273ffffffffffffffffffffffffffffffffffffffff9091169063f62ded81906102f190889088908890889088906004016104f9565b600060405180830381600087803b15801561030b57600080fd5b505af115801561031f573d6000803e3d6000fd5b5050505050505050505050505050505050565b803573ffffffffffffffffffffffffffffffffffffffff8116811461035657600080fd5b919050565b60008083601f84011261036d57600080fd5b50813567ffffffffffffffff81111561038557600080fd5b6020830191508360208260051b85010111156103a057600080fd5b9250929050565b60008060008060008060008060a0898b0312156103c357600080fd5b6103cc89610332565b97506103da60208a01610332565b9650604089013567ffffffffffffffff808211156103f757600080fd5b6104038c838d0161035b565b909850965060608b013591508082111561041c57600080fd5b6104288c838d0161035b565b909650945060808b013591508082111561044157600080fd5b818b0191508b601f83011261045557600080fd5b81358181111561046457600080fd5b8c602082850101111561047657600080fd5b6020830194508093505050509295985092959890939650565b7f4e487b7100000000000000000000000000000000000000000000000000000000600052603260045260246000fd5b600081518084526020808501945080840160005b838110156104ee578151875295820195908201906001016104d2565b509495945050505050565b73ffffffffffffffffffffffffffffffffffffffff861681526000602060a08184015261052960a08401886104be565b838103604085015261053b81886104be565b9050838103606085015261054f81876104be565b90508381036080850152845180825260005b8181101561057c578681018401518382018501528301610561565b506000828201840152601f017fffffffffffffffffffffffffffffffffffffffffffffffffffffffffffffffe016010197965050505050505056fea2646970667358221220a424e3650be803d6ab40ef92aa1e2aef842e290a04114f47974a5919c7ba1b4f64736f6c63430008110033",
  "linkReferences": {},
  "deployedLinkReferences": {}
}