{
  "_format": "hh-sol-artifact-1",
  "contractName": "BitmapClaimMock",
  "sourceName": "contracts/mocks/bitmapClaimMock/BitmapClaimMock.sol",
  "abi": [
    {
      "inputs": [
        {
          "internalType": "address",
          "name": "recipient",
          "type": "address"
        },
        {
          "internalType": "uint256",
          "name": "claimBits",
          "type": "uint256"
        },
        {
          "internalType": "uint256",
          "name": "claimedBitmap",
          "type": "uint256"
        }
      ],
      "name": "AlreadyClaimed",
      "type": "error"
    },
    {
      "inputs": [
        {
          "internalType": "uint256",
          "name": "bitPosition",
          "type": "uint256"
        },
        {
          "internalType": "uint256",
          "name": "maxBitCount",
          "type": "uint256"
        }
      ],
      "name": "BitPositionTooBig",
      "type": "error"
    },
    {
      "inputs": [],
      "name": "IllegalInterfaceId",
      "type": "error"
    },
    {
      "inputs": [
        {
          "internalType": "uint256",
          "name": "claimBits",
          "type": "uint256"
        }
      ],
      "name": "InvalidClaimBits",
      "type": "error"
    },
    {
      "inputs": [
        {
          "internalType": "address",
          "name": "account",
          "type": "address"
        }
      ],
      "name": "NotContractOwner",
      "type": "error"
    },
    {
      "anonymous": false,
      "inputs": [
        {
          "indexed": false,
          "internalType": "uint256",
          "name": "bitPosition",
          "type": "uint256"
        },
        {
          "indexed": false,
          "internalType": "uint256",
          "name": "value",
          "type": "uint256"
        }
      ],
      "name": "BitValueSet",
      "type": "event"
    },
    {
      "anonymous": false,
      "inputs": [
        {
          "indexed": false,
          "internalType": "address",
          "name": "recipient",
          "type": "address"
        },
        {
          "indexed": false,
          "internalType": "uint256",
          "name": "oldBitmap",
          "type": "uint256"
        },
        {
          "indexed": false,
          "internalType": "uint256",
          "name": "newBitmap",
          "type": "uint256"
        }
      ],
      "name": "Claimed",
      "type": "event"
    },
    {
      "anonymous": false,
      "inputs": [
        {
          "indexed": false,
          "internalType": "address",
          "name": "recipient",
          "type": "address"
        },
        {
          "indexed": false,
          "internalType": "uint256",
          "name": "amount",
          "type": "uint256"
        }
      ],
      "name": "DeliverCalled",
      "type": "event"
    },
    {
      "anonymous": false,
      "inputs": [
        {
          "indexed": true,
          "internalType": "address",
          "name": "previousOwner",
          "type": "address"
        },
        {
          "indexed": true,
          "internalType": "address",
          "name": "newOwner",
          "type": "address"
        }
      ],
      "name": "OwnershipTransferred",
      "type": "event"
    },
    {
      "anonymous": false,
      "inputs": [
        {
          "indexed": false,
          "internalType": "address",
          "name": "recipient",
          "type": "address"
        },
        {
          "indexed": false,
          "internalType": "uint256",
          "name": "claimBits",
          "type": "uint256"
        },
        {
          "indexed": false,
          "internalType": "bytes",
          "name": "validationData",
          "type": "bytes"
        }
      ],
      "name": "ValidateClaimCalled",
      "type": "event"
    },
    {
      "inputs": [
        {
          "internalType": "uint256",
          "name": "value",
          "type": "uint256"
        }
      ],
      "name": "addBitValue",
      "outputs": [],
      "stateMutability": "nonpayable",
      "type": "function"
    },
    {
      "inputs": [
        {
          "internalType": "uint256",
          "name": "bitPosition",
          "type": "uint256"
        }
      ],
      "name": "bitPositionValueMap",
      "outputs": [
        {
          "internalType": "uint256",
          "name": "value",
          "type": "uint256"
        }
      ],
      "stateMutability": "view",
      "type": "function"
    },
    {
      "inputs": [
        {
          "internalType": "address",
          "name": "recipient",
          "type": "address"
        },
        {
          "internalType": "uint256",
          "name": "claimBits",
          "type": "uint256"
        },
        {
          "internalType": "bytes",
          "name": "validationData",
          "type": "bytes"
        }
      ],
      "name": "claim",
      "outputs": [],
      "stateMutability": "nonpayable",
      "type": "function"
    },
    {
      "inputs": [
        {
          "internalType": "address",
          "name": "recipient",
          "type": "address"
        }
      ],
      "name": "claimed",
      "outputs": [
        {
          "internalType": "uint256",
          "name": "bitmap",
          "type": "uint256"
        }
      ],
      "stateMutability": "view",
      "type": "function"
    },
    {
      "inputs": [],
      "name": "maxBitCount",
      "outputs": [
        {
          "internalType": "uint256",
          "name": "",
          "type": "uint256"
        }
      ],
      "stateMutability": "view",
      "type": "function"
    },
    {
      "inputs": [],
      "name": "owner",
      "outputs": [
        {
          "internalType": "address",
          "name": "",
          "type": "address"
        }
      ],
      "stateMutability": "view",
      "type": "function"
    },
    {
      "inputs": [
        {
          "internalType": "bytes4",
          "name": "interfaceId",
          "type": "bytes4"
        }
      ],
      "name": "supportsInterface",
      "outputs": [
        {
          "internalType": "bool",
          "name": "",
          "type": "bool"
        }
      ],
      "stateMutability": "view",
      "type": "function"
    },
    {
      "inputs": [
        {
          "internalType": "address",
          "name": "newOwner",
          "type": "address"
        }
      ],
      "name": "transferOwnership",
      "outputs": [],
      "stateMutability": "nonpayable",
      "type": "function"
    },
    {
      "inputs": [
        {
          "internalType": "uint256",
          "name": "bitPosition",
          "type": "uint256"
        },
        {
          "internalType": "uint256",
          "name": "value",
          "type": "uint256"
        }
      ],
      "name": "updateBitValue",
      "outputs": [],
      "stateMutability": "nonpayable",
      "type": "function"
    }
  ],
  "bytecode": "0x608060405234801561001057600080fd5b50336100248161001e61002a565b9061005e565b5061017f565b60008061005860017fc9ed16f33ab3a66c84bfd83099ccb2a8845871e2e1c1928f63797152f0fd54cd61015e565b92915050565b6001600160a01b038116156100b45781546001600160a01b0319166001600160a01b03821690811783556040516000907f8be0079c531659141344cd1fd0a4f28419497f9722a3daafe3b4186f6b6457e0908290a35b6100d06307f5828d60e41b60016100c96100d4565b9190610102565b5050565b60008061005860017fca9d3e17f264b0f3984e2634e94adb37fa3e6a8103f06aeae6fa59e21c769f5e61015e565b600160e01b6001600160e01b0319831601610130576040516372c683bb60e01b815260040160405180910390fd5b6001600160e01b03199190911660009081526020929092526040909120805460ff1916911515919091179055565b8181038181111561005857634e487b7160e01b600052601160045260246000fd5b610a0e8061018e6000396000f3fe608060405234801561001057600080fd5b50600436106100a35760003560e01c80638bd5f759116100765780638f0bc1521161005b5780638f0bc1521461015c578063c884ef831461016f578063f2fde38b1461018f57600080fd5b80638bd5f7591461011c5780638da5cb5b1461012f57600080fd5b806301ffc9a7146100a857806312a53fdd146100d05780634a1e2ab7146100fe5780636844b01914610113575b600080fd5b6100bb6100b63660046107c3565b6101a2565b60405190151581526020015b60405180910390f35b6100f06100de36600461080c565b60026020526000908152604090205481565b6040519081526020016100c7565b61011161010c36600461080c565b6101bc565b005b6100f060005481565b61011161012a366004610825565b6101db565b610137610235565b60405173ffffffffffffffffffffffffffffffffffffffff90911681526020016100c7565b61011161016a366004610870565b610261565b6100f061017d3660046108f7565b60016020526000908152604090205481565b61011161019d3660046108f7565b610401565b60006101b6826101b0610418565b90610446565b92915050565b6000546101c98183610520565b6101d4816001610941565b6000555050565b600054808310610226576040517fb09381a500000000000000000000000000000000000000000000000000000000815260048101849052602481018290526044015b60405180910390fd5b6102308383610520565b505050565b600061025c610242610582565b5473ffffffffffffffffffffffffffffffffffffffff1690565b905090565b82158061027257506000805484901c115b156102ac576040517fb93313e40000000000000000000000000000000000000000000000000000000081526004810184905260240161021d565b73ffffffffffffffffffffffffffffffffffffffff841660009081526001602052604090205483811615610332576040517f6508823200000000000000000000000000000000000000000000000000000000815273ffffffffffffffffffffffffffffffffffffffff86166004820152602481018590526044810182905260640161021d565b61033e858585856105b0565b73ffffffffffffffffffffffffffffffffffffffff8516600081815260016020908152604091829020878517908190558251938452908301849052908201819052907f987d620f307ff6b94d58743cb7a7509f24071586a77759b77c2d4e29f75a2f9a9060600160405180910390a160008054815b818110156103ec5760018816156103e0576000818152600260205260409020546103dd9084610941565b92505b600197881c97016103b3565b506103f788836105f3565b5050505050505050565b610415338261040e610582565b919061063f565b50565b6000806101b660017fca9d3e17f264b0f3984e2634e94adb37fa3e6a8103f06aeae6fa59e21c769f5e610954565b60007c01000000000000000000000000000000000000000000000000000000007fffffffff00000000000000000000000000000000000000000000000000000000831601610496575060006101b6565b7ffe003659000000000000000000000000000000000000000000000000000000007fffffffff000000000000000000000000000000000000000000000000000000008316016104e7575060016101b6565b507fffffffff00000000000000000000000000000000000000000000000000000000166000908152602091909152604090205460ff1690565b6105323361052c610582565b90610754565b60008281526002602090815260409182902083905581518481529081018390527f8e17f10a809a83084393f091eeb493166c6d7d75f0227161b2dfe9f3867a431e91015b60405180910390a15050565b6000806101b660017fc9ed16f33ab3a66c84bfd83099ccb2a8845871e2e1c1928f63797152f0fd54cd610954565b7f3812351176dd2adcd2263a39bad25bab4426f37a48d66be8ea439102dab3e0d4848484846040516105e59493929190610967565b60405180910390a150505050565b6040805173ffffffffffffffffffffffffffffffffffffffff84168152602081018390527f3308e36d89c0b850e8d18c22e83ac69f8d94934805de709ace474c8723388dca9101610576565b825473ffffffffffffffffffffffffffffffffffffffff90811690831681146106ac576040517f2ef4875e00000000000000000000000000000000000000000000000000000000815273ffffffffffffffffffffffffffffffffffffffff8416600482015260240161021d565b8173ffffffffffffffffffffffffffffffffffffffff168173ffffffffffffffffffffffffffffffffffffffff161461074e5783547fffffffffffffffffffffffff00000000000000000000000000000000000000001673ffffffffffffffffffffffffffffffffffffffff8381169182178655604051908316907f8be0079c531659141344cd1fd0a4f28419497f9722a3daafe3b4186f6b6457e090600090a35b50505050565b815473ffffffffffffffffffffffffffffffffffffffff8281169116146107bf576040517f2ef4875e00000000000000000000000000000000000000000000000000000000815273ffffffffffffffffffffffffffffffffffffffff8216600482015260240161021d565b5050565b6000602082840312156107d557600080fd5b81357fffffffff000000000000000000000000000000000000000000000000000000008116811461080557600080fd5b9392505050565b60006020828403121561081e57600080fd5b5035919050565b6000806040838503121561083857600080fd5b50508035926020909101359150565b803573ffffffffffffffffffffffffffffffffffffffff8116811461086b57600080fd5b919050565b6000806000806060858703121561088657600080fd5b61088f85610847565b935060208501359250604085013567ffffffffffffffff808211156108b357600080fd5b818701915087601f8301126108c757600080fd5b8135818111156108d657600080fd5b8860208285010111156108e857600080fd5b95989497505060200194505050565b60006020828403121561090957600080fd5b61080582610847565b7f4e487b7100000000000000000000000000000000000000000000000000000000600052601160045260246000fd5b808201808211156101b6576101b6610912565b818103818111156101b6576101b6610912565b73ffffffffffffffffffffffffffffffffffffffff8516815283602082015260606040820152816060820152818360808301376000818301608090810191909152601f9092017fffffffffffffffffffffffffffffffffffffffffffffffffffffffffffffffe0160101939250505056fea26469706673582212202ad745a078e9508c1830b845fd6efa5570aacc83452469ee5099b604a401425864736f6c63430008160033",
  "linkReferences": {},
  "deployedLinkReferences": {}
}