{
  "_format": "hh-sol-artifact-1",
  "contractName": "AnichessERC1155MerkleClaimMock",
  "sourceName": "contracts/mocks/merkleClaim/AnichessERC1155MerkleClaimMock.sol",
  "abi": [
    {
      "inputs": [
        {
          "internalType": "uint256",
          "name": "mintSupply",
          "type": "uint256"
        },
        {
          "internalType": "contract IERC1155Mintable",
          "name": "rewardContract",
          "type": "address"
        },
        {
          "internalType": "contract IForwarderRegistry",
          "name": "forwarderRegistry",
          "type": "address"
        }
      ],
      "stateMutability": "nonpayable",
      "type": "constructor"
    },
    {
      "inputs": [
        {
          "internalType": "bytes32",
          "name": "epochId",
          "type": "bytes32"
        },
        {
          "internalType": "address",
          "name": "recipient",
          "type": "address"
        },
        {
          "internalType": "uint256",
          "name": "id",
          "type": "uint256"
        },
        {
          "internalType": "uint256",
          "name": "value",
          "type": "uint256"
        }
      ],
      "name": "AlreadyClaimed",
      "type": "error"
    },
    {
      "inputs": [
        {
          "internalType": "bytes32",
          "name": "epochId",
          "type": "bytes32"
        }
      ],
      "name": "EpochIdAlreadyExists",
      "type": "error"
    },
    {
      "inputs": [
        {
          "internalType": "bytes32",
          "name": "epochId",
          "type": "bytes32"
        }
      ],
      "name": "EpochIdNotExists",
      "type": "error"
    },
    {
      "inputs": [
        {
          "internalType": "bytes32",
          "name": "epochId",
          "type": "bytes32"
        },
        {
          "internalType": "address",
          "name": "recipient",
          "type": "address"
        },
        {
          "internalType": "uint256",
          "name": "id",
          "type": "uint256"
        },
        {
          "internalType": "uint256",
          "name": "value",
          "type": "uint256"
        },
        {
          "internalType": "uint256",
          "name": "totalClaimed",
          "type": "uint256"
        }
      ],
      "name": "ExceededMintSupply",
      "type": "error"
    },
    {
      "inputs": [
        {
          "internalType": "bytes32",
          "name": "epochId",
          "type": "bytes32"
        },
        {
          "internalType": "address",
          "name": "recipient",
          "type": "address"
        },
        {
          "internalType": "uint256",
          "name": "id",
          "type": "uint256"
        },
        {
          "internalType": "uint256",
          "name": "value",
          "type": "uint256"
        }
      ],
      "name": "InvalidProof",
      "type": "error"
    },
    {
      "inputs": [
        {
          "internalType": "bytes32",
          "name": "epochId",
          "type": "bytes32"
        },
        {
          "internalType": "uint256",
          "name": "currentTime",
          "type": "uint256"
        }
      ],
      "name": "OutOfClaimWindow",
      "type": "error"
    },
    {
      "anonymous": false,
      "inputs": [
        {
          "indexed": true,
          "internalType": "address",
          "name": "previousOwner",
          "type": "address"
        },
        {
          "indexed": true,
          "internalType": "address",
          "name": "newOwner",
          "type": "address"
        }
      ],
      "name": "OwnershipTransferred",
      "type": "event"
    },
    {
      "anonymous": false,
      "inputs": [
        {
          "indexed": true,
          "internalType": "bytes32",
          "name": "epochId",
          "type": "bytes32"
        },
        {
          "indexed": true,
          "internalType": "address",
          "name": "recipient",
          "type": "address"
        },
        {
          "indexed": false,
          "internalType": "bytes32",
          "name": "merkleRoot",
          "type": "bytes32"
        },
        {
          "indexed": false,
          "internalType": "uint256",
          "name": "id",
          "type": "uint256"
        },
        {
          "indexed": false,
          "internalType": "uint256",
          "name": "value",
          "type": "uint256"
        }
      ],
      "name": "PayoutClaimed",
      "type": "event"
    },
    {
      "anonymous": false,
      "inputs": [
        {
          "indexed": true,
          "internalType": "bytes32",
          "name": "epochId",
          "type": "bytes32"
        },
        {
          "indexed": true,
          "internalType": "bytes32",
          "name": "merkleRoot",
          "type": "bytes32"
        },
        {
          "indexed": false,
          "internalType": "uint256",
          "name": "startTime",
          "type": "uint256"
        },
        {
          "indexed": false,
          "internalType": "uint256",
          "name": "endTime",
          "type": "uint256"
        }
      ],
      "name": "SetEpochMerkleRoot",
      "type": "event"
    },
    {
      "inputs": [],
      "name": "MINT_SUPPLY",
      "outputs": [
        {
          "internalType": "uint256",
          "name": "",
          "type": "uint256"
        }
      ],
      "stateMutability": "view",
      "type": "function"
    },
    {
      "inputs": [],
      "name": "REWARD_CONTRACT",
      "outputs": [
        {
          "internalType": "contract IERC1155Mintable",
          "name": "",
          "type": "address"
        }
      ],
      "stateMutability": "view",
      "type": "function"
    },
    {
      "inputs": [],
      "name": "__msgData",
      "outputs": [
        {
          "internalType": "bytes",
          "name": "",
          "type": "bytes"
        }
      ],
      "stateMutability": "view",
      "type": "function"
    },
    {
      "inputs": [],
      "name": "__msgSender",
      "outputs": [
        {
          "internalType": "address",
          "name": "",
          "type": "address"
        }
      ],
      "stateMutability": "view",
      "type": "function"
    },
    {
      "inputs": [
        {
          "internalType": "bytes32",
          "name": "epochId",
          "type": "bytes32"
        },
        {
          "internalType": "bytes32[]",
          "name": "proof",
          "type": "bytes32[]"
        },
        {
          "internalType": "address",
          "name": "recipient",
          "type": "address"
        },
        {
          "internalType": "uint256",
          "name": "id",
          "type": "uint256"
        },
        {
          "internalType": "uint256",
          "name": "value",
          "type": "uint256"
        }
      ],
      "name": "claim",
      "outputs": [],
      "stateMutability": "nonpayable",
      "type": "function"
    },
    {
      "inputs": [
        {
          "internalType": "bytes32",
          "name": "",
          "type": "bytes32"
        }
      ],
      "name": "claimStatus",
      "outputs": [
        {
          "internalType": "bool",
          "name": "",
          "type": "bool"
        }
      ],
      "stateMutability": "view",
      "type": "function"
    },
    {
      "inputs": [
        {
          "internalType": "bytes32",
          "name": "",
          "type": "bytes32"
        }
      ],
      "name": "claimWindows",
      "outputs": [
        {
          "internalType": "bytes32",
          "name": "merkleRoot",
          "type": "bytes32"
        },
        {
          "internalType": "uint256",
          "name": "startTime",
          "type": "uint256"
        },
        {
          "internalType": "uint256",
          "name": "endTime",
          "type": "uint256"
        }
      ],
      "stateMutability": "view",
      "type": "function"
    },
    {
      "inputs": [],
      "name": "forwarderRegistry",
      "outputs": [
        {
          "internalType": "contract IForwarderRegistry",
          "name": "",
          "type": "address"
        }
      ],
      "stateMutability": "view",
      "type": "function"
    },
    {
      "inputs": [
        {
          "internalType": "address",
          "name": "forwarder",
          "type": "address"
        }
      ],
      "name": "isTrustedForwarder",
      "outputs": [
        {
          "internalType": "bool",
          "name": "",
          "type": "bool"
        }
      ],
      "stateMutability": "view",
      "type": "function"
    },
    {
      "inputs": [],
      "name": "noOfTokensClaimed",
      "outputs": [
        {
          "internalType": "uint256",
          "name": "",
          "type": "uint256"
        }
      ],
      "stateMutability": "view",
      "type": "function"
    },
    {
      "inputs": [],
      "name": "owner",
      "outputs": [
        {
          "internalType": "address",
          "name": "",
          "type": "address"
        }
      ],
      "stateMutability": "view",
      "type": "function"
    },
    {
      "inputs": [
        {
          "internalType": "bytes32",
          "name": "epochId",
          "type": "bytes32"
        },
        {
          "internalType": "bytes32",
          "name": "merkleRoot",
          "type": "bytes32"
        },
        {
          "internalType": "uint256",
          "name": "startTime",
          "type": "uint256"
        },
        {
          "internalType": "uint256",
          "name": "endTime",
          "type": "uint256"
        }
      ],
      "name": "setEpochMerkleRoot",
      "outputs": [],
      "stateMutability": "nonpayable",
      "type": "function"
    },
    {
      "inputs": [
        {
          "internalType": "bytes4",
          "name": "interfaceId",
          "type": "bytes4"
        }
      ],
      "name": "supportsInterface",
      "outputs": [
        {
          "internalType": "bool",
          "name": "",
          "type": "bool"
        }
      ],
      "stateMutability": "view",
      "type": "function"
    },
    {
      "inputs": [
        {
          "internalType": "address",
          "name": "newOwner",
          "type": "address"
        }
      ],
      "name": "transferOwnership",
      "outputs": [],
      "stateMutability": "nonpayable",
      "type": "function"
    }
  ],
  "bytecode": "0x60e06040523480156200001157600080fd5b50604051620016b4380380620016b4833981016040819052620000349162000234565b6001600160a01b0381166080528282823362000074816200006062000092602090811b6200087817901c565b620000c860201b620008a61790919060201c565b505060c0919091526001600160a01b031660a052506200029e915050565b600080620000c260017fc9ed16f33ab3a66c84bfd83099ccb2a8845871e2e1c1928f63797152f0fd54cd6200027c565b92915050565b6001600160a01b038116156200011f5781546001600160a01b0319166001600160a01b03821690811783556040516000907f8be0079c531659141344cd1fd0a4f28419497f9722a3daafe3b4186f6b6457e0908290a35b620001576307f5828d60e41b6001620001426200015b60201b620009671760201c565b6200018b60201b62000995179092919060201c565b5050565b600080620000c260017fca9d3e17f264b0f3984e2634e94adb37fa3e6a8103f06aeae6fa59e21c769f5e6200027c565b600160e01b6001600160e01b0319831601620001ed5760405162461bcd60e51b815260206004820152601f60248201527f496e74657266616365446574656374696f6e3a2077726f6e672076616c756500604482015260640160405180910390fd5b6001600160e01b03199190911660009081526020929092526040909120805460ff1916911515919091179055565b6001600160a01b03811681146200023157600080fd5b50565b6000806000606084860312156200024a57600080fd5b8351925060208401516200025e816200021b565b604085015190925062000271816200021b565b809150509250925092565b81810381811115620000c257634e487b7160e01b600052601160045260246000fd5b60805160a05160c0516113b5620002ff6000396000818161021d015261061801526000818161018e015261075f01526000818161012e015281816101d301528181610d9901528181610e2101528181610ed40152610f1201526113b56000f3fe608060405234801561001057600080fd5b50600436106100ea5760003560e01c80638da5cb5b1161008c578063d1a91ff211610066578063d1a91ff214610256578063dc45def61461025e578063e3a0ce09146102a7578063f2fde38b146102ca57600080fd5b80638da5cb5b146102105780639dfbcde814610218578063ba65912e1461024d57600080fd5b806331e66e1e116100c857806331e66e1e146101735780633a5af339146101895780633ec6004f146101b0578063572b6c05146101c357600080fd5b806301ffc9a7146100ef5780630328a8fc146101175780632b4c9f161461012c575b600080fd5b6101026100fd3660046110b7565b6102dd565b60405190151581526020015b60405180910390f35b61012a6101253660046110f9565b6102f7565b005b7f00000000000000000000000000000000000000000000000000000000000000005b60405173ffffffffffffffffffffffffffffffffffffffff909116815260200161010e565b61017b6103de565b60405161010e92919061112b565b61014e7f000000000000000000000000000000000000000000000000000000000000000081565b61012a6101be3660046111a1565b6103f1565b6101026101d1366004611243565b7f000000000000000000000000000000000000000000000000000000000000000073ffffffffffffffffffffffffffffffffffffffff90811691161490565b61014e610824565b61023f7f000000000000000000000000000000000000000000000000000000000000000081565b60405190815260200161010e565b61023f60005481565b61014e610850565b61028c61026c36600461125e565b600160208190526000918252604090912080549181015460029091015483565b6040805193845260208401929092529082015260600161010e565b6101026102b536600461125e565b60026020526000908152604090205460ff1681565b61012a6102d8366004611243565b61085a565b60006102f1826102eb610967565b90610aa1565b92915050565b610310610302610b7b565b61030a610878565b90610b85565b6000848152600160205260409020541561035e576040517fed10979d000000000000000000000000000000000000000000000000000000008152600481018590526024015b60405180910390fd5b604080516060810182528481526020808201858152828401858152600089815260018085529086902094518555915191840191909155516002909201919091558151848152908101839052849186917f91a4b7a2b4c6a1702be62e3b867cf7e4dbbd496a4707e8d66638d99b3946a8da910160405180910390a350505050565b3660006103e9610c08565b915091509091565b6000868152600160205260409020805461043a576040517f84f229dc00000000000000000000000000000000000000000000000000000000815260048101889052602401610355565b806001015442108061044f5750806002015442115b1561048f576040517fdbeb4f4d00000000000000000000000000000000000000000000000000000000815260048101889052426024820152604401610355565b60408051602081018990527fffffffffffffffffffffffffffffffffffffffff000000000000000000000000606087901b1691810191909152605481018490526074810183905260009060940160405160208183030381529060405280519060200120905061053a826000015482898980806020026020016040519081016040528093929190818152602001838360200280828437600092019190915250929493925050610c139050565b61059d576040517fcb4da9460000000000000000000000000000000000000000000000000000000081526004810189905273ffffffffffffffffffffffffffffffffffffffff861660248201526044810185905260648101849052608401610355565b60008181526002602052604090205460ff1615610613576040517fc5ac808b0000000000000000000000000000000000000000000000000000000081526004810189905273ffffffffffffffffffffffffffffffffffffffff861660248201526044810185905260648101849052608401610355565b6000547f000000000000000000000000000000000000000000000000000000000000000061064185836112a6565b11156106ba578886868661065581866112a6565b6040517f6073f612000000000000000000000000000000000000000000000000000000008152600481019590955273ffffffffffffffffffffffffffffffffffffffff909316602485015260448401919091526064830152608482015260a401610355565b6106c484826112a6565b60009081558281526002602052604080822080547fffffffffffffffffffffffffffffffffffffffffffffffffffffffffffffff00166001179055517f5cfa929700000000000000000000000000000000000000000000000000000000815273ffffffffffffffffffffffffffffffffffffffff888116600483015260248201889052604482018790526080606483015260848201929092527f000000000000000000000000000000000000000000000000000000000000000090911690635cfa92979060a401600060405180830381600087803b1580156107a557600080fd5b505af11580156107b9573d6000803e3d6000fd5b505084546040805191825260208201899052810187905273ffffffffffffffffffffffffffffffffffffffff891692508b91507f3b7a2657cb0a2501536d45aeb61ad8088337c70086ba7d3b078cf6592597c3c99060600160405180910390a3505050505050505050565b600061084b610831610878565b5473ffffffffffffffffffffffffffffffffffffffff1690565b905090565b600061084b610b7b565b610875610865610b7b565b8261086e610878565b9190610c29565b50565b6000806102f160017fc9ed16f33ab3a66c84bfd83099ccb2a8845871e2e1c1928f63797152f0fd54cd6112b9565b73ffffffffffffffffffffffffffffffffffffffff81161561092e5781547fffffffffffffffffffffffff00000000000000000000000000000000000000001673ffffffffffffffffffffffffffffffffffffffff821690811783556040516000907f8be0079c531659141344cd1fd0a4f28419497f9722a3daafe3b4186f6b6457e0908290a35b6109637f7f5828d000000000000000000000000000000000000000000000000000000000600161095c610967565b9190610995565b5050565b6000806102f160017fca9d3e17f264b0f3984e2634e94adb37fa3e6a8103f06aeae6fa59e21c769f5e6112b9565b7c01000000000000000000000000000000000000000000000000000000007fffffffff00000000000000000000000000000000000000000000000000000000831601610a3d576040517f08c379a000000000000000000000000000000000000000000000000000000000815260206004820152601f60248201527f496e74657266616365446574656374696f6e3a2077726f6e672076616c7565006044820152606401610355565b7fffffffff00000000000000000000000000000000000000000000000000000000919091166000908152602092909252604090912080547fffffffffffffffffffffffffffffffffffffffffffffffffffffffffffffff0016911515919091179055565b60007c01000000000000000000000000000000000000000000000000000000007fffffffff00000000000000000000000000000000000000000000000000000000831601610af1575060006102f1565b7ffe003659000000000000000000000000000000000000000000000000000000007fffffffff00000000000000000000000000000000000000000000000000000000831601610b42575060016102f1565b507fffffffff00000000000000000000000000000000000000000000000000000000166000908152602091909152604090205460ff1690565b600061084b610d56565b815473ffffffffffffffffffffffffffffffffffffffff828116911614610963576040517f08c379a000000000000000000000000000000000000000000000000000000000815260206004820152601860248201527f4f776e6572736869703a206e6f7420746865206f776e657200000000000000006044820152606401610355565b3660006103e9610e9d565b600082610c208584611007565b14949350505050565b825473ffffffffffffffffffffffffffffffffffffffff9081169083168114610cae576040517f08c379a000000000000000000000000000000000000000000000000000000000815260206004820152601860248201527f4f776e6572736869703a206e6f7420746865206f776e657200000000000000006044820152606401610355565b8173ffffffffffffffffffffffffffffffffffffffff168173ffffffffffffffffffffffffffffffffffffffff1614610d505783547fffffffffffffffffffffffff00000000000000000000000000000000000000001673ffffffffffffffffffffffffffffffffffffffff8381169182178655604051908316907f8be0079c531659141344cd1fd0a4f28419497f9722a3daafe3b4186f6b6457e090600090a35b50505050565b600033321480610d665750601836105b15610d7057503390565b7fffffffffffffffffffffffffffffffffffffffffffffffffffffffffffffffec36013560601c7f000000000000000000000000000000000000000000000000000000000000000073ffffffffffffffffffffffffffffffffffffffff16331480610e8c57506040517f8929a8ca00000000000000000000000000000000000000000000000000000000815273ffffffffffffffffffffffffffffffffffffffff82811660048301523360248301527f00000000000000000000000000000000000000000000000000000000000000001690638929a8ca90604401602060405180830381865afa158015610e68573d6000803e3d6000fd5b505050506040513d601f19601f82011682018060405250810190610e8c91906112cc565b15610e9657919050565b3391505090565b36600033321480610eae5750601836105b15610ebc5750600091369150565b3373ffffffffffffffffffffffffffffffffffffffff7f0000000000000000000000000000000000000000000000000000000000000000161480610ff1575073ffffffffffffffffffffffffffffffffffffffff7f000000000000000000000000000000000000000000000000000000000000000016638929a8ca367fffffffffffffffffffffffffffffffffffffffffffffffffffffffffffffffec013560601c6040517fffffffff0000000000000000000000000000000000000000000000000000000060e084901b16815273ffffffffffffffffffffffffffffffffffffffff9091166004820152336024820152604401602060405180830381865afa158015610fcd573d6000803e3d6000fd5b505050506040513d601f19601f82011682018060405250810190610ff191906112cc565b15610ffe576103e9611054565b50600091369150565b600081815b845181101561104c576110388286838151811061102b5761102b6112ee565b6020026020010151611085565b9150806110448161131d565b91505061100c565b509392505050565b3660006103e97fffffffffffffffffffffffffffffffffffffffffffffffffffffffffffffffec8301828481611355565b60008183106110a15760008281526020849052604090206110b0565b60008381526020839052604090205b9392505050565b6000602082840312156110c957600080fd5b81357fffffffff00000000000000000000000000000000000000000000000000000000811681146110b057600080fd5b6000806000806080858703121561110f57600080fd5b5050823594602084013594506040840135936060013592509050565b60208152816020820152818360408301376000818301604090810191909152601f9092017fffffffffffffffffffffffffffffffffffffffffffffffffffffffffffffffe0160101919050565b803573ffffffffffffffffffffffffffffffffffffffff8116811461119c57600080fd5b919050565b60008060008060008060a087890312156111ba57600080fd5b86359550602087013567ffffffffffffffff808211156111d957600080fd5b818901915089601f8301126111ed57600080fd5b8135818111156111fc57600080fd5b8a60208260051b850101111561121157600080fd5b60208301975080965050505061122960408801611178565b925060608701359150608087013590509295509295509295565b60006020828403121561125557600080fd5b6110b082611178565b60006020828403121561127057600080fd5b5035919050565b7f4e487b7100000000000000000000000000000000000000000000000000000000600052601160045260246000fd5b808201808211156102f1576102f1611277565b818103818111156102f1576102f1611277565b6000602082840312156112de57600080fd5b815180151581146110b057600080fd5b7f4e487b7100000000000000000000000000000000000000000000000000000000600052603260045260246000fd5b60007fffffffffffffffffffffffffffffffffffffffffffffffffffffffffffffffff820361134e5761134e611277565b5060010190565b6000808585111561136557600080fd5b8386111561137257600080fd5b505082019391909203915056fea264697066735822122015f74f74c30ccae5db8f2f703d3c6cc0d4386f8c5e83efb3e70c481efc76c5be64736f6c63430008110033",
  "linkReferences": {},
  "deployedLinkReferences": {}
}