{
  "_format": "hh-sol-artifact-1",
  "contractName": "AnichessERC1155MerkleClaimMock",
  "sourceName": "contracts/mocks/merkleClaim/AnichessERC1155MerkleClaimMock.sol",
  "abi": [
    {
      "inputs": [
        {
          "internalType": "bytes32",
          "name": "merkleRoot",
          "type": "bytes32"
        },
        {
          "internalType": "contract IERC1155Mintable",
          "name": "rewardContract",
          "type": "address"
        },
        {
          "internalType": "contract IForwarderRegistry",
          "name": "forwarderRegistry",
          "type": "address"
        }
      ],
      "stateMutability": "nonpayable",
      "type": "constructor"
    },
    {
      "inputs": [
        {
          "internalType": "address",
          "name": "recipient",
          "type": "address"
        },
        {
          "internalType": "uint256[]",
          "name": "ids",
          "type": "uint256[]"
        },
        {
          "internalType": "uint256[]",
          "name": "values",
          "type": "uint256[]"
        },
        {
          "internalType": "bytes32",
          "name": "epochId",
          "type": "bytes32"
        }
      ],
      "name": "AlreadyClaimed",
      "type": "error"
    },
    {
      "inputs": [
        {
          "internalType": "address",
          "name": "recipient",
          "type": "address"
        },
        {
          "internalType": "uint256[]",
          "name": "ids",
          "type": "uint256[]"
        },
        {
          "internalType": "uint256[]",
          "name": "values",
          "type": "uint256[]"
        },
        {
          "internalType": "bytes32",
          "name": "epochId",
          "type": "bytes32"
        }
      ],
      "name": "InvalidProof",
      "type": "error"
    },
    {
      "anonymous": false,
      "inputs": [
        {
          "indexed": true,
          "internalType": "bytes32",
          "name": "epochId",
          "type": "bytes32"
        },
        {
          "indexed": true,
          "internalType": "address",
          "name": "recipient",
          "type": "address"
        },
        {
          "indexed": false,
          "internalType": "uint256[]",
          "name": "ids",
          "type": "uint256[]"
        },
        {
          "indexed": false,
          "internalType": "uint256[]",
          "name": "values",
          "type": "uint256[]"
        }
      ],
      "name": "PayoutClaimed",
      "type": "event"
    },
    {
      "inputs": [],
      "name": "MERKLE_ROOT",
      "outputs": [
        {
          "internalType": "bytes32",
          "name": "",
          "type": "bytes32"
        }
      ],
      "stateMutability": "view",
      "type": "function"
    },
    {
      "inputs": [],
      "name": "REWARD_CONTRACT",
      "outputs": [
        {
          "internalType": "contract IERC1155Mintable",
          "name": "",
          "type": "address"
        }
      ],
      "stateMutability": "view",
      "type": "function"
    },
    {
      "inputs": [],
      "name": "__msgData",
      "outputs": [
        {
          "internalType": "bytes",
          "name": "",
          "type": "bytes"
        }
      ],
      "stateMutability": "view",
      "type": "function"
    },
    {
      "inputs": [],
      "name": "__msgSender",
      "outputs": [
        {
          "internalType": "address",
          "name": "",
          "type": "address"
        }
      ],
      "stateMutability": "view",
      "type": "function"
    },
    {
      "inputs": [
        {
          "internalType": "bytes",
          "name": "data",
          "type": "bytes"
        }
      ],
      "name": "claim",
      "outputs": [],
      "stateMutability": "nonpayable",
      "type": "function"
    },
    {
      "inputs": [
        {
          "internalType": "bytes32",
          "name": "",
          "type": "bytes32"
        }
      ],
      "name": "claimStatus",
      "outputs": [
        {
          "internalType": "bool",
          "name": "",
          "type": "bool"
        }
      ],
      "stateMutability": "view",
      "type": "function"
    },
    {
      "inputs": [],
      "name": "forwarderRegistry",
      "outputs": [
        {
          "internalType": "contract IForwarderRegistry",
          "name": "",
          "type": "address"
        }
      ],
      "stateMutability": "view",
      "type": "function"
    },
    {
      "inputs": [
        {
          "internalType": "address",
          "name": "forwarder",
          "type": "address"
        }
      ],
      "name": "isTrustedForwarder",
      "outputs": [
        {
          "internalType": "bool",
          "name": "",
          "type": "bool"
        }
      ],
      "stateMutability": "view",
      "type": "function"
    }
  ],
  "bytecode": "0x60e060405234801561001057600080fd5b50604051610ed5380380610ed583398101604081905261002f91610064565b6001600160a01b0390811660805260a0929092521660c0526100a7565b6001600160a01b038116811461006157600080fd5b50565b60008060006060848603121561007957600080fd5b83519250602084015161008b8161004c565b604085015190925061009c8161004c565b809150509250925092565b60805160a05160c051610dd06101056000396000818160f4015261036601526000818161011b01526102c6015260008181608f0152818161015b015281816104d7015281816105150152818161069a01526107220152610dd06000f3fe608060405234801561001057600080fd5b50600436106100885760003560e01c8063572b6c051161005b578063572b6c051461014b578063c63ff8dd146101a8578063d1a91ff2146101bd578063e3a0ce09146101c557600080fd5b80632b4c9f161461008d57806331e66e1e146100d95780633a5af339146100ef57806351e75e8b14610116575b600080fd5b7f00000000000000000000000000000000000000000000000000000000000000005b60405173ffffffffffffffffffffffffffffffffffffffff90911681526020015b60405180910390f35b6100e16101e8565b6040516100d0929190610801565b6100af7f000000000000000000000000000000000000000000000000000000000000000081565b61013d7f000000000000000000000000000000000000000000000000000000000000000081565b6040519081526020016100d0565b610198610159366004610873565b7f000000000000000000000000000000000000000000000000000000000000000073ffffffffffffffffffffffffffffffffffffffff90811691161490565b60405190151581526020016100d0565b6101bb6101b6366004610890565b6101fb565b005b6100af610466565b6101986101d3366004610902565b60006020819052908152604090205460ff1681565b3660006101f3610475565b915091509091565b60008080808061020d86880188610a38565b945094509450945094506000838383886040516020016102309493929190610b66565b604080517fffffffffffffffffffffffffffffffffffffffffffffffffffffffffffffffe0818403018152918152815160209283012060008181529283905291205490915060ff16156102c057838383886040517fb21ae00b0000000000000000000000000000000000000000000000000000000081526004016102b79493929190610be2565b60405180910390fd5b6102eb857f000000000000000000000000000000000000000000000000000000000000000083610480565b61032957838383886040517f843019320000000000000000000000000000000000000000000000000000000081526004016102b79493929190610be2565b6040517f0d6a5bbb00000000000000000000000000000000000000000000000000000000815273ffffffffffffffffffffffffffffffffffffffff7f00000000000000000000000000000000000000000000000000000000000000001690630d6a5bbb9061039f90879087908790600401610c35565b600060405180830381600087803b1580156103b957600080fd5b505af11580156103cd573d6000803e3d6000fd5b5050506000828152602081905260409081902080547fffffffffffffffffffffffffffffffffffffffffffffffffffffffffffffff001660011790555173ffffffffffffffffffffffffffffffffffffffff8616915087907f8f9c73ccaa2efe63e7eac59937a2aa225b9d0748cbfe666eff28a75e964801a4906104549087908790610c92565b60405180910390a35050505050505050565b6000610470610496565b905090565b3660006101f36104a0565b60008261048d858461060a565b14949350505050565b6000610470610657565b366000333214806104b15750601836105b156104bf5750600091369150565b3373ffffffffffffffffffffffffffffffffffffffff7f00000000000000000000000000000000000000000000000000000000000000001614806105f4575073ffffffffffffffffffffffffffffffffffffffff7f000000000000000000000000000000000000000000000000000000000000000016638929a8ca367fffffffffffffffffffffffffffffffffffffffffffffffffffffffffffffffec013560601c6040517fffffffff0000000000000000000000000000000000000000000000000000000060e084901b16815273ffffffffffffffffffffffffffffffffffffffff9091166004820152336024820152604401602060405180830381865afa1580156105d0573d6000803e3d6000fd5b505050506040513d601f19601f820116820180604052508101906105f49190610cc0565b15610601576101f361079e565b50600091369150565b600081815b845181101561064f5761063b8286838151811061062e5761062e610ce2565b60200260200101516107cf565b91508061064781610d11565b91505061060f565b509392505050565b6000333214806106675750601836105b1561067157503390565b7fffffffffffffffffffffffffffffffffffffffffffffffffffffffffffffffec36013560601c7f000000000000000000000000000000000000000000000000000000000000000073ffffffffffffffffffffffffffffffffffffffff1633148061078d57506040517f8929a8ca00000000000000000000000000000000000000000000000000000000815273ffffffffffffffffffffffffffffffffffffffff82811660048301523360248301527f00000000000000000000000000000000000000000000000000000000000000001690638929a8ca90604401602060405180830381865afa158015610769573d6000803e3d6000fd5b505050506040513d601f19601f8201168201806040525081019061078d9190610cc0565b1561079757919050565b3391505090565b3660006101f37fffffffffffffffffffffffffffffffffffffffffffffffffffffffffffffffec8301828481610d70565b60008183106107eb5760008281526020849052604090206107fa565b60008381526020839052604090205b9392505050565b60208152816020820152818360408301376000818301604090810191909152601f9092017fffffffffffffffffffffffffffffffffffffffffffffffffffffffffffffffe0160101919050565b73ffffffffffffffffffffffffffffffffffffffff8116811461087057600080fd5b50565b60006020828403121561088557600080fd5b81356107fa8161084e565b600080602083850312156108a357600080fd5b823567ffffffffffffffff808211156108bb57600080fd5b818501915085601f8301126108cf57600080fd5b8135818111156108de57600080fd5b8660208285010111156108f057600080fd5b60209290920196919550909350505050565b60006020828403121561091457600080fd5b5035919050565b7f4e487b7100000000000000000000000000000000000000000000000000000000600052604160045260246000fd5b604051601f82017fffffffffffffffffffffffffffffffffffffffffffffffffffffffffffffffe016810167ffffffffffffffff811182821017156109915761099161091b565b604052919050565b600067ffffffffffffffff8211156109b3576109b361091b565b5060051b60200190565b80356109c88161084e565b919050565b600082601f8301126109de57600080fd5b813560206109f36109ee83610999565b61094a565b82815260059290921b84018101918181019086841115610a1257600080fd5b8286015b84811015610a2d5780358352918301918301610a16565b509695505050505050565b600080600080600060a08688031215610a5057600080fd5b8535945060208087013567ffffffffffffffff80821115610a7057600080fd5b818901915089601f830112610a8457600080fd5b8135610a926109ee82610999565b81815260059190911b8301840190848101908c831115610ab157600080fd5b938501935b82851015610acf57843582529385019390850190610ab6565b9850610ae091505060408a016109bd565b95506060890135925080831115610af657600080fd5b610b028a848b016109cd565b94506080890135925080831115610b1857600080fd5b5050610b26888289016109cd565b9150509295509295909350565b60008151602080840160005b83811015610b5b57815187529582019590820190600101610b3f565b509495945050505050565b7fffffffffffffffffffffffffffffffffffffffff0000000000000000000000008560601b1681526000610ba6610ba06014840187610b33565b85610b33565b92835250506020019392505050565b805180835260209283019260009190808401838315610b5b57815187529582019590820190600101610b3f565b73ffffffffffffffffffffffffffffffffffffffff85168152608060208201526000610c116080830186610bb5565b8281036040840152610c238186610bb5565b91505082606083015295945050505050565b73ffffffffffffffffffffffffffffffffffffffff84168152608060208201526000610c646080830185610bb5565b8281036040840152610c768185610bb5565b8381036060909401939093525050600081526020019392505050565b604081526000610ca56040830185610bb5565b8281036020840152610cb78185610bb5565b95945050505050565b600060208284031215610cd257600080fd5b815180151581146107fa57600080fd5b7f4e487b7100000000000000000000000000000000000000000000000000000000600052603260045260246000fd5b60007fffffffffffffffffffffffffffffffffffffffffffffffffffffffffffffffff8203610d69577f4e487b7100000000000000000000000000000000000000000000000000000000600052601160045260246000fd5b5060010190565b60008085851115610d8057600080fd5b83861115610d8d57600080fd5b505082019391909203915056fea2646970667358221220bd0f449a99d91e599122f651f129328ea164d6508ea96ff678fff6b85d76b6d664736f6c63430008110033",
  "linkReferences": {},
  "deployedLinkReferences": {}
}