{
  "_format": "hh-sol-artifact-1",
  "contractName": "AnichessERC1155MerkleClaimMock",
  "sourceName": "contracts/mocks/merkleClaim/AnichessERC1155MerkleClaimMock.sol",
  "abi": [
    {
      "inputs": [
        {
          "internalType": "bytes32",
          "name": "merkleRoot",
          "type": "bytes32"
        },
        {
          "internalType": "contract IERC1155Mintable",
          "name": "rewardContract",
          "type": "address"
        },
        {
          "internalType": "contract IForwarderRegistry",
          "name": "forwarderRegistry",
          "type": "address"
        }
      ],
      "stateMutability": "nonpayable",
      "type": "constructor"
    },
    {
      "inputs": [
        {
          "internalType": "address",
          "name": "recipient",
          "type": "address"
        },
        {
          "internalType": "uint256[]",
          "name": "ids",
          "type": "uint256[]"
        },
        {
          "internalType": "uint256[]",
          "name": "values",
          "type": "uint256[]"
        },
        {
          "internalType": "bytes32",
          "name": "epochId",
          "type": "bytes32"
        }
      ],
      "name": "AlreadyClaimed",
      "type": "error"
    },
    {
      "inputs": [
        {
          "internalType": "address",
          "name": "recipient",
          "type": "address"
        },
        {
          "internalType": "uint256[]",
          "name": "ids",
          "type": "uint256[]"
        },
        {
          "internalType": "uint256[]",
          "name": "values",
          "type": "uint256[]"
        },
        {
          "internalType": "bytes32",
          "name": "epochId",
          "type": "bytes32"
        }
      ],
      "name": "InvalidProof",
      "type": "error"
    },
    {
      "anonymous": false,
      "inputs": [
        {
          "indexed": true,
          "internalType": "bytes32",
          "name": "epochId",
          "type": "bytes32"
        },
        {
          "indexed": true,
          "internalType": "address",
          "name": "recipient",
          "type": "address"
        },
        {
          "indexed": false,
          "internalType": "uint256[]",
          "name": "ids",
          "type": "uint256[]"
        },
        {
          "indexed": false,
          "internalType": "uint256[]",
          "name": "values",
          "type": "uint256[]"
        }
      ],
      "name": "PayoutClaimed",
      "type": "event"
    },
    {
      "inputs": [],
      "name": "MERKLE_ROOT",
      "outputs": [
        {
          "internalType": "bytes32",
          "name": "",
          "type": "bytes32"
        }
      ],
      "stateMutability": "view",
      "type": "function"
    },
    {
      "inputs": [],
      "name": "REWARD_CONTRACT",
      "outputs": [
        {
          "internalType": "contract IERC1155Mintable",
          "name": "",
          "type": "address"
        }
      ],
      "stateMutability": "view",
      "type": "function"
    },
    {
      "inputs": [],
      "name": "__msgData",
      "outputs": [
        {
          "internalType": "bytes",
          "name": "",
          "type": "bytes"
        }
      ],
      "stateMutability": "view",
      "type": "function"
    },
    {
      "inputs": [],
      "name": "__msgSender",
      "outputs": [
        {
          "internalType": "address",
          "name": "",
          "type": "address"
        }
      ],
      "stateMutability": "view",
      "type": "function"
    },
    {
      "inputs": [
        {
          "internalType": "bytes32",
          "name": "epochId",
          "type": "bytes32"
        },
        {
          "internalType": "bytes32[]",
          "name": "proof",
          "type": "bytes32[]"
        },
        {
          "internalType": "address",
          "name": "recipient",
          "type": "address"
        },
        {
          "internalType": "uint256[]",
          "name": "ids",
          "type": "uint256[]"
        },
        {
          "internalType": "uint256[]",
          "name": "values",
          "type": "uint256[]"
        }
      ],
      "name": "claim",
      "outputs": [],
      "stateMutability": "nonpayable",
      "type": "function"
    },
    {
      "inputs": [
        {
          "internalType": "bytes32",
          "name": "",
          "type": "bytes32"
        }
      ],
      "name": "claimStatus",
      "outputs": [
        {
          "internalType": "bool",
          "name": "",
          "type": "bool"
        }
      ],
      "stateMutability": "view",
      "type": "function"
    },
    {
      "inputs": [],
      "name": "forwarderRegistry",
      "outputs": [
        {
          "internalType": "contract IForwarderRegistry",
          "name": "",
          "type": "address"
        }
      ],
      "stateMutability": "view",
      "type": "function"
    },
    {
      "inputs": [
        {
          "internalType": "address",
          "name": "forwarder",
          "type": "address"
        }
      ],
      "name": "isTrustedForwarder",
      "outputs": [
        {
          "internalType": "bool",
          "name": "",
          "type": "bool"
        }
      ],
      "stateMutability": "view",
      "type": "function"
    }
  ],
  "bytecode": "0x60e060405234801561001057600080fd5b50604051610e34380380610e3483398101604081905261002f91610064565b6001600160a01b0390811660805260a0929092521660c0526100a7565b6001600160a01b038116811461006157600080fd5b50565b60008060006060848603121561007957600080fd5b83519250602084015161008b8161004c565b604085015190925061009c8161004c565b809150509250925092565b60805160a05160c051610d2f6101056000396000818160f4015261039001526000818161011b01526102b9015260008181608f0152818161015b015281816104b6015281816104f40152818161062c01526106b40152610d2f6000f3fe608060405234801561001057600080fd5b50600436106100885760003560e01c8063572b6c051161005b578063572b6c051461014b578063d1a91ff2146101a8578063e3a0ce09146101b0578063f15e20e7146101d357600080fd5b80632b4c9f161461008d57806331e66e1e146100d95780633a5af339146100ef57806351e75e8b14610116575b600080fd5b7f00000000000000000000000000000000000000000000000000000000000000005b60405173ffffffffffffffffffffffffffffffffffffffff90911681526020015b60405180910390f35b6100e16101e8565b6040516100d09291906107e0565b6100af7f000000000000000000000000000000000000000000000000000000000000000081565b61013d7f000000000000000000000000000000000000000000000000000000000000000081565b6040519081526020016100d0565b610198610159366004610856565b7f000000000000000000000000000000000000000000000000000000000000000073ffffffffffffffffffffffffffffffffffffffff90811691161490565b60405190151581526020016100d0565b6100af6101fb565b6101986101be366004610871565b60006020819052908152604090205460ff1681565b6101e66101e1366004610997565b61020a565b005b3660006101f3610454565b915091509091565b600061020561045f565b905090565b6000838383886040516020016102239493929190610ac5565b604080517fffffffffffffffffffffffffffffffffffffffffffffffffffffffffffffffe0818403018152918152815160209283012060008181529283905291205490915060ff16156102b357838383886040517fb21ae00b0000000000000000000000000000000000000000000000000000000081526004016102aa9493929190610b41565b60405180910390fd5b6102de857f000000000000000000000000000000000000000000000000000000000000000083610469565b61031c57838383886040517f843019320000000000000000000000000000000000000000000000000000000081526004016102aa9493929190610b41565b6000818152602081905260409081902080547fffffffffffffffffffffffffffffffffffffffffffffffffffffffffffffff00166001179055517f0d6a5bbb00000000000000000000000000000000000000000000000000000000815273ffffffffffffffffffffffffffffffffffffffff7f00000000000000000000000000000000000000000000000000000000000000001690630d6a5bbb906103c990879087908790600401610b94565b600060405180830381600087803b1580156103e357600080fd5b505af11580156103f7573d6000803e3d6000fd5b505050508373ffffffffffffffffffffffffffffffffffffffff16867f8f9c73ccaa2efe63e7eac59937a2aa225b9d0748cbfe666eff28a75e964801a48585604051610444929190610bf1565b60405180910390a3505050505050565b3660006101f361047f565b60006102056105e9565b6000826104768584610730565b14949350505050565b366000333214806104905750601836105b1561049e5750600091369150565b3373ffffffffffffffffffffffffffffffffffffffff7f00000000000000000000000000000000000000000000000000000000000000001614806105d3575073ffffffffffffffffffffffffffffffffffffffff7f000000000000000000000000000000000000000000000000000000000000000016638929a8ca367fffffffffffffffffffffffffffffffffffffffffffffffffffffffffffffffec013560601c6040517fffffffff0000000000000000000000000000000000000000000000000000000060e084901b16815273ffffffffffffffffffffffffffffffffffffffff9091166004820152336024820152604401602060405180830381865afa1580156105af573d6000803e3d6000fd5b505050506040513d601f19601f820116820180604052508101906105d39190610c1f565b156105e0576101f361077d565b50600091369150565b6000333214806105f95750601836105b1561060357503390565b7fffffffffffffffffffffffffffffffffffffffffffffffffffffffffffffffec36013560601c7f000000000000000000000000000000000000000000000000000000000000000073ffffffffffffffffffffffffffffffffffffffff1633148061071f57506040517f8929a8ca00000000000000000000000000000000000000000000000000000000815273ffffffffffffffffffffffffffffffffffffffff82811660048301523360248301527f00000000000000000000000000000000000000000000000000000000000000001690638929a8ca90604401602060405180830381865afa1580156106fb573d6000803e3d6000fd5b505050506040513d601f19601f8201168201806040525081019061071f9190610c1f565b1561072957919050565b3391505090565b600081815b8451811015610775576107618286838151811061075457610754610c41565b60200260200101516107ae565b91508061076d81610c70565b915050610735565b509392505050565b3660006101f37fffffffffffffffffffffffffffffffffffffffffffffffffffffffffffffffec8301828481610ccf565b60008183106107ca5760008281526020849052604090206107d9565b60008381526020839052604090205b9392505050565b60208152816020820152818360408301376000818301604090810191909152601f9092017fffffffffffffffffffffffffffffffffffffffffffffffffffffffffffffffe0160101919050565b803573ffffffffffffffffffffffffffffffffffffffff8116811461085157600080fd5b919050565b60006020828403121561086857600080fd5b6107d98261082d565b60006020828403121561088357600080fd5b5035919050565b7f4e487b7100000000000000000000000000000000000000000000000000000000600052604160045260246000fd5b604051601f82017fffffffffffffffffffffffffffffffffffffffffffffffffffffffffffffffe016810167ffffffffffffffff811182821017156109005761090061088a565b604052919050565b600067ffffffffffffffff8211156109225761092261088a565b5060051b60200190565b600082601f83011261093d57600080fd5b8135602061095261094d83610908565b6108b9565b82815260059290921b8401810191818101908684111561097157600080fd5b8286015b8481101561098c5780358352918301918301610975565b509695505050505050565b600080600080600060a086880312156109af57600080fd5b8535945060208087013567ffffffffffffffff808211156109cf57600080fd5b818901915089601f8301126109e357600080fd5b81356109f161094d82610908565b81815260059190911b8301840190848101908c831115610a1057600080fd5b938501935b82851015610a2e57843582529385019390850190610a15565b9850610a3f91505060408a0161082d565b95506060890135925080831115610a5557600080fd5b610a618a848b0161092c565b94506080890135925080831115610a7757600080fd5b5050610a858882890161092c565b9150509295509295909350565b60008151602080840160005b83811015610aba57815187529582019590820190600101610a9e565b509495945050505050565b7fffffffffffffffffffffffffffffffffffffffff0000000000000000000000008560601b1681526000610b05610aff6014840187610a92565b85610a92565b92835250506020019392505050565b805180835260209283019260009190808401838315610aba57815187529582019590820190600101610a9e565b73ffffffffffffffffffffffffffffffffffffffff85168152608060208201526000610b706080830186610b14565b8281036040840152610b828186610b14565b91505082606083015295945050505050565b73ffffffffffffffffffffffffffffffffffffffff84168152608060208201526000610bc36080830185610b14565b8281036040840152610bd58185610b14565b8381036060909401939093525050600081526020019392505050565b604081526000610c046040830185610b14565b8281036020840152610c168185610b14565b95945050505050565b600060208284031215610c3157600080fd5b815180151581146107d957600080fd5b7f4e487b7100000000000000000000000000000000000000000000000000000000600052603260045260246000fd5b60007fffffffffffffffffffffffffffffffffffffffffffffffffffffffffffffffff8203610cc8577f4e487b7100000000000000000000000000000000000000000000000000000000600052601160045260246000fd5b5060010190565b60008085851115610cdf57600080fd5b83861115610cec57600080fd5b505082019391909203915056fea2646970667358221220e51ee95e59b480e58fedc0ded872ea2add361b07da462d089cd436f71e64104964736f6c63430008110033",
  "linkReferences": {},
  "deployedLinkReferences": {}
}