{
  "_format": "hh-sol-artifact-1",
  "contractName": "ERC1155TokenReceiverMockCaller",
  "sourceName": "contracts/mocks/TokenEscrow/ERC1155TokenReceiverMockCaller.sol",
  "abi": [
    {
      "inputs": [],
      "name": "onERC1155BatchReceivedResult",
      "outputs": [
        {
          "internalType": "bytes4",
          "name": "",
          "type": "bytes4"
        }
      ],
      "stateMutability": "view",
      "type": "function"
    },
    {
      "inputs": [],
      "name": "onERC1155ReceivedResult",
      "outputs": [
        {
          "internalType": "bytes4",
          "name": "",
          "type": "bytes4"
        }
      ],
      "stateMutability": "view",
      "type": "function"
    },
    {
      "inputs": [
        {
          "internalType": "address",
          "name": "tokenReceiverAddress_",
          "type": "address"
        },
        {
          "internalType": "address",
          "name": "from",
          "type": "address"
        },
        {
          "internalType": "uint256[]",
          "name": "ids",
          "type": "uint256[]"
        },
        {
          "internalType": "uint256[]",
          "name": "values",
          "type": "uint256[]"
        },
        {
          "internalType": "bytes",
          "name": "",
          "type": "bytes"
        }
      ],
      "name": "testOnERC1155BatchReceived",
      "outputs": [],
      "stateMutability": "nonpayable",
      "type": "function"
    },
    {
      "inputs": [
        {
          "internalType": "address",
          "name": "tokenReceiverAddress_",
          "type": "address"
        },
        {
          "internalType": "address",
          "name": "from",
          "type": "address"
        },
        {
          "internalType": "uint256",
          "name": "id",
          "type": "uint256"
        },
        {
          "internalType": "uint256",
          "name": "value",
          "type": "uint256"
        },
        {
          "internalType": "bytes",
          "name": "",
          "type": "bytes"
        }
      ],
      "name": "testOnERC1155Received",
      "outputs": [],
      "stateMutability": "nonpayable",
      "type": "function"
    }
  ],
  "bytecode": "0x6080604052600080546001600160401b03191667307800003078000017905534801561002a57600080fd5b506105228061003a6000396000f3fe608060405234801561001057600080fd5b506004361061004c5760003560e01c8063068f29da14610051578063406bc17214610066578063489d0c751461007957806377f5fee5146100a3575b600080fd5b61006461005f36600461025c565b6100b7565b005b610064610074366004610317565b61014f565b6000546100869060e01b81565b6040516001600160e01b0319909116815260200160405180910390f35b60005461008690600160201b900460e01b81565b60405163f23a6e6160e01b81526000906001600160a01b0388169063f23a6e61906100ec9030908a908a908a906004016103e6565b6020604051808303816000875af115801561010b573d6000803e3d6000fd5b505050506040513d601f19601f8201168201806040525081019061012f9190610429565b6000805463ffffffff191660e09290921c91909117905550505050505050565b60405163bc197c8160e01b81526000906001600160a01b038a169063bc197c81906101889030908c908c908c908c908c9060040161048c565b6020604051808303816000875af11580156101a7573d6000803e3d6000fd5b505050506040513d601f19601f820116820180604052508101906101cb9190610429565b6000805460e09290921c600160201b0263ffffffff60201b19909216919091179055505050505050505050565b80356001600160a01b038116811461020f57600080fd5b919050565b60008083601f84011261022657600080fd5b5081356001600160401b0381111561023d57600080fd5b60208301915083602082850101111561025557600080fd5b9250929050565b60008060008060008060a0878903121561027557600080fd5b61027e876101f8565b955061028c602088016101f8565b9450604087013593506060870135925060808701356001600160401b038111156102b557600080fd5b6102c189828a01610214565b979a9699509497509295939492505050565b60008083601f8401126102e557600080fd5b5081356001600160401b038111156102fc57600080fd5b6020830191508360208260051b850101111561025557600080fd5b60008060008060008060008060a0898b03121561033357600080fd5b61033c896101f8565b975061034a60208a016101f8565b965060408901356001600160401b038082111561036657600080fd5b6103728c838d016102d3565b909850965060608b013591508082111561038b57600080fd5b6103978c838d016102d3565b909650945060808b01359150808211156103b057600080fd5b506103bd8b828c01610214565b999c989b5096995094979396929594505050565b6002815261060f60f31b602082015260400190565b6001600160a01b03858116825284166020820152604081018390526060810182905260a06080820181905260009061041f9083016103d1565b9695505050505050565b60006020828403121561043b57600080fd5b81516001600160e01b03198116811461045357600080fd5b9392505050565b81835260006001600160fb1b0383111561047357600080fd5b8260051b80836020870137939093016020019392505050565b6001600160a01b0387811682528616602082015260a0604082018190526000906104b9908301868861045a565b82810360608401526104cc81858761045a565b905082810360808401526104df816103d1565b999850505050505050505056fea26469706673582212201c688c017ed3213ab69d35e1993957c2550417a140d908d47dbd0ef0847b6f8c64736f6c63430008110033",
  "linkReferences": {},
  "deployedLinkReferences": {}
}