{
  "_format": "hh-sol-artifact-1",
  "contractName": "ERC1155TokenBurn",
  "sourceName": "contracts/burn/AnichessOrbsBurnPoolSimpleSingle.sol",
  "abi": [
    {
      "inputs": [
        {
          "internalType": "contract IERC1155Burnable",
          "name": "token",
          "type": "address"
        },
        {
          "internalType": "contract IForwarderRegistry",
          "name": "forwarderRegistry",
          "type": "address"
        }
      ],
      "stateMutability": "nonpayable",
      "type": "constructor"
    },
    {
      "inputs": [
        {
          "internalType": "bytes32",
          "name": "epochId",
          "type": "bytes32"
        }
      ],
      "name": "EpochIdNotExists",
      "type": "error"
    },
    {
      "inputs": [],
      "name": "IllegalInterfaceId",
      "type": "error"
    },
    {
      "inputs": [],
      "name": "InconsistentArrays",
      "type": "error"
    },
    {
      "inputs": [],
      "name": "NotApproved",
      "type": "error"
    },
    {
      "inputs": [
        {
          "internalType": "address",
          "name": "account",
          "type": "address"
        }
      ],
      "name": "NotContractOwner",
      "type": "error"
    },
    {
      "anonymous": false,
      "inputs": [
        {
          "indexed": true,
          "internalType": "address",
          "name": "previousOwner",
          "type": "address"
        },
        {
          "indexed": true,
          "internalType": "address",
          "name": "newOwner",
          "type": "address"
        }
      ],
      "name": "OwnershipTransferred",
      "type": "event"
    },
    {
      "anonymous": false,
      "inputs": [
        {
          "indexed": true,
          "internalType": "address",
          "name": "burner",
          "type": "address"
        },
        {
          "indexed": true,
          "internalType": "uint256",
          "name": "timestamp",
          "type": "uint256"
        },
        {
          "indexed": false,
          "internalType": "uint256[]",
          "name": "ids",
          "type": "uint256[]"
        },
        {
          "indexed": false,
          "internalType": "uint256[]",
          "name": "values",
          "type": "uint256[]"
        }
      ],
      "name": "TokensBurnt",
      "type": "event"
    },
    {
      "inputs": [],
      "name": "TOKEN",
      "outputs": [
        {
          "internalType": "contract IERC1155Burnable",
          "name": "",
          "type": "address"
        }
      ],
      "stateMutability": "view",
      "type": "function"
    },
    {
      "inputs": [
        {
          "internalType": "uint256[]",
          "name": "ids",
          "type": "uint256[]"
        },
        {
          "internalType": "uint256[]",
          "name": "values",
          "type": "uint256[]"
        }
      ],
      "name": "burn",
      "outputs": [],
      "stateMutability": "nonpayable",
      "type": "function"
    },
    {
      "inputs": [
        {
          "internalType": "address",
          "name": "from",
          "type": "address"
        },
        {
          "internalType": "uint256[]",
          "name": "ids",
          "type": "uint256[]"
        },
        {
          "internalType": "uint256[]",
          "name": "values",
          "type": "uint256[]"
        }
      ],
      "name": "burnFor",
      "outputs": [],
      "stateMutability": "nonpayable",
      "type": "function"
    },
    {
      "inputs": [],
      "name": "forwarderRegistry",
      "outputs": [
        {
          "internalType": "contract IForwarderRegistry",
          "name": "",
          "type": "address"
        }
      ],
      "stateMutability": "view",
      "type": "function"
    },
    {
      "inputs": [
        {
          "internalType": "address",
          "name": "forwarder",
          "type": "address"
        }
      ],
      "name": "isTrustedForwarder",
      "outputs": [
        {
          "internalType": "bool",
          "name": "",
          "type": "bool"
        }
      ],
      "stateMutability": "view",
      "type": "function"
    },
    {
      "inputs": [],
      "name": "owner",
      "outputs": [
        {
          "internalType": "address",
          "name": "",
          "type": "address"
        }
      ],
      "stateMutability": "view",
      "type": "function"
    },
    {
      "inputs": [
        {
          "internalType": "bytes4",
          "name": "interfaceId",
          "type": "bytes4"
        }
      ],
      "name": "supportsInterface",
      "outputs": [
        {
          "internalType": "bool",
          "name": "",
          "type": "bool"
        }
      ],
      "stateMutability": "view",
      "type": "function"
    },
    {
      "inputs": [
        {
          "internalType": "address",
          "name": "newOwner",
          "type": "address"
        }
      ],
      "name": "transferOwnership",
      "outputs": [],
      "stateMutability": "nonpayable",
      "type": "function"
    }
  ],
  "bytecode": "0x60c06040523480156200001157600080fd5b5060405162000f2938038062000f298339810160408190526200003491620001c3565b6001600160a01b038116608052336200005881620000516200006c565b90620000a2565b50506001600160a01b031660a05262000224565b6000806200009c60017fc9ed16f33ab3a66c84bfd83099ccb2a8845871e2e1c1928f63797152f0fd54cd62000202565b92915050565b6001600160a01b03811615620000f95781546001600160a01b0319166001600160a01b03821690811783556040516000907f8be0079c531659141344cd1fd0a4f28419497f9722a3daafe3b4186f6b6457e0908290a35b620001196307f5828d60e41b6001620001116200011d565b91906200014d565b5050565b6000806200009c60017fca9d3e17f264b0f3984e2634e94adb37fa3e6a8103f06aeae6fa59e21c769f5e62000202565b600160e01b6001600160e01b03198316016200017c576040516372c683bb60e01b815260040160405180910390fd5b6001600160e01b03199190911660009081526020929092526040909120805460ff1916911515919091179055565b6001600160a01b0381168114620001c057600080fd5b50565b60008060408385031215620001d757600080fd5b8251620001e481620001aa565b6020840151909250620001f781620001aa565b809150509250929050565b818103818111156200009c57634e487b7160e01b600052601160045260246000fd5b60805160a051610cb6620002736000396000818161014e01528181610234015281816103d801526104de01526000818160b70152818161010c0152818161088e01526109160152610cb66000f3fe608060405234801561001057600080fd5b50600436106100885760003560e01c80638da5cb5b1161005b5780638da5cb5b146101705780639d33fe5714610178578063e4cbb46e1461018d578063f2fde38b146101a057600080fd5b806301ffc9a71461008d5780632b4c9f16146100b5578063572b6c05146100fc57806382bfefc814610149575b600080fd5b6100a061009b366004610992565b6101b3565b60405190151581526020015b60405180910390f35b7f00000000000000000000000000000000000000000000000000000000000000005b60405173ffffffffffffffffffffffffffffffffffffffff90911681526020016100ac565b6100a061010a366004610a04565b7f000000000000000000000000000000000000000000000000000000000000000073ffffffffffffffffffffffffffffffffffffffff90811691161490565b6100d77f000000000000000000000000000000000000000000000000000000000000000081565b6100d76101cd565b61018b610186366004610a6b565b6101f9565b005b61018b61019b366004610aec565b6104a3565b61018b6101ae366004610a04565b6105d8565b60006101c7826101c16105f6565b90610624565b92915050565b60006101f46101da6106fe565b5473ffffffffffffffffffffffffffffffffffffffff1690565b905090565b828114610232576040517f35e83ac300000000000000000000000000000000000000000000000000000000815260040160405180910390fd5b7f000000000000000000000000000000000000000000000000000000000000000073ffffffffffffffffffffffffffffffffffffffff1663e985e9c58661027761072c565b6040517fffffffff0000000000000000000000000000000000000000000000000000000060e085901b16815273ffffffffffffffffffffffffffffffffffffffff928316600482015291166024820152604401602060405180830381865afa1580156102e7573d6000803e3d6000fd5b505050506040513d601f19601f8201168201806040525081019061030b9190610b58565b61039b576040517f08c379a0000000000000000000000000000000000000000000000000000000008152602060048201526024808201527f455243313135353a206275726e2063616c6c6572206973206e6f74206170707260448201527f6f7665640000000000000000000000000000000000000000000000000000000060648201526084015b60405180910390fd5b6040517f8053493400000000000000000000000000000000000000000000000000000000815273ffffffffffffffffffffffffffffffffffffffff7f000000000000000000000000000000000000000000000000000000000000000016906380534934906104159088908890889088908890600401610bc5565b600060405180830381600087803b15801561042f57600080fd5b505af1158015610443573d6000803e3d6000fd5b50505050428573ffffffffffffffffffffffffffffffffffffffff167f674e56473ddb0f588fb74339bd1423aa4224362e7323ddca32ab17328eb8003f868686866040516104949493929190610c14565b60405180910390a35050505050565b8281146104dc576040517f35e83ac300000000000000000000000000000000000000000000000000000000815260040160405180910390fd5b7f000000000000000000000000000000000000000000000000000000000000000073ffffffffffffffffffffffffffffffffffffffff16638053493461052061072c565b868686866040518663ffffffff1660e01b8152600401610544959493929190610bc5565b600060405180830381600087803b15801561055e57600080fd5b505af1158015610572573d6000803e3d6000fd5b505050504261057f61072c565b73ffffffffffffffffffffffffffffffffffffffff167f674e56473ddb0f588fb74339bd1423aa4224362e7323ddca32ab17328eb8003f868686866040516105ca9493929190610c14565b60405180910390a350505050565b6105f36105e361072c565b826105ec6106fe565b9190610736565b50565b6000806101c760017fca9d3e17f264b0f3984e2634e94adb37fa3e6a8103f06aeae6fa59e21c769f5e610c46565b60007c01000000000000000000000000000000000000000000000000000000007fffffffff00000000000000000000000000000000000000000000000000000000831601610674575060006101c7565b7ffe003659000000000000000000000000000000000000000000000000000000007fffffffff000000000000000000000000000000000000000000000000000000008316016106c5575060016101c7565b507fffffffff00000000000000000000000000000000000000000000000000000000166000908152602091909152604090205460ff1690565b6000806101c760017fc9ed16f33ab3a66c84bfd83099ccb2a8845871e2e1c1928f63797152f0fd54cd610c46565b60006101f461084b565b825473ffffffffffffffffffffffffffffffffffffffff90811690831681146107a3576040517f2ef4875e00000000000000000000000000000000000000000000000000000000815273ffffffffffffffffffffffffffffffffffffffff84166004820152602401610392565b8173ffffffffffffffffffffffffffffffffffffffff168173ffffffffffffffffffffffffffffffffffffffff16146108455783547fffffffffffffffffffffffff00000000000000000000000000000000000000001673ffffffffffffffffffffffffffffffffffffffff8381169182178655604051908316907f8be0079c531659141344cd1fd0a4f28419497f9722a3daafe3b4186f6b6457e090600090a35b50505050565b60003332148061085b5750601836105b1561086557503390565b7fffffffffffffffffffffffffffffffffffffffffffffffffffffffffffffffec36013560601c7f000000000000000000000000000000000000000000000000000000000000000073ffffffffffffffffffffffffffffffffffffffff1633148061098157506040517f8929a8ca00000000000000000000000000000000000000000000000000000000815273ffffffffffffffffffffffffffffffffffffffff82811660048301523360248301527f00000000000000000000000000000000000000000000000000000000000000001690638929a8ca90604401602060405180830381865afa15801561095d573d6000803e3d6000fd5b505050506040513d601f19601f820116820180604052508101906109819190610b58565b1561098b57919050565b3391505090565b6000602082840312156109a457600080fd5b81357fffffffff00000000000000000000000000000000000000000000000000000000811681146109d457600080fd5b9392505050565b803573ffffffffffffffffffffffffffffffffffffffff811681146109ff57600080fd5b919050565b600060208284031215610a1657600080fd5b6109d4826109db565b60008083601f840112610a3157600080fd5b50813567ffffffffffffffff811115610a4957600080fd5b6020830191508360208260051b8501011115610a6457600080fd5b9250929050565b600080600080600060608688031215610a8357600080fd5b610a8c866109db565b9450602086013567ffffffffffffffff80821115610aa957600080fd5b610ab589838a01610a1f565b90965094506040880135915080821115610ace57600080fd5b50610adb88828901610a1f565b969995985093965092949392505050565b60008060008060408587031215610b0257600080fd5b843567ffffffffffffffff80821115610b1a57600080fd5b610b2688838901610a1f565b90965094506020870135915080821115610b3f57600080fd5b50610b4c87828801610a1f565b95989497509550505050565b600060208284031215610b6a57600080fd5b815180151581146109d457600080fd5b81835260007f07ffffffffffffffffffffffffffffffffffffffffffffffffffffffffffffff831115610bac57600080fd5b8260051b80836020870137939093016020019392505050565b73ffffffffffffffffffffffffffffffffffffffff86168152606060208201526000610bf5606083018688610b7a565b8281036040840152610c08818587610b7a565b98975050505050505050565b604081526000610c28604083018688610b7a565b8281036020840152610c3b818587610b7a565b979650505050505050565b818103818111156101c7577f4e487b7100000000000000000000000000000000000000000000000000000000600052601160045260246000fdfea2646970667358221220974a73ae5e1cf1aa33e1e1ee62cbd50b98f50920c7b39a5ad80dd9a0a7b2acd864736f6c63430008160033",
  "linkReferences": {},
  "deployedLinkReferences": {}
}