{
  "_format": "hh-sol-artifact-1",
  "contractName": "PointsMerkleClaimMock",
  "sourceName": "contracts/mocks/pointsMerkleClaimMock/PointsMerkleClaimMock.sol",
  "abi": [
    {
      "inputs": [
        {
          "internalType": "address",
          "name": "pointsContractAddress",
          "type": "address"
        },
        {
          "internalType": "contract IForwarderRegistry",
          "name": "forwarderRegistry_",
          "type": "address"
        }
      ],
      "stateMutability": "nonpayable",
      "type": "constructor"
    },
    {
      "inputs": [
        {
          "internalType": "address",
          "name": "holder",
          "type": "address"
        },
        {
          "internalType": "uint256",
          "name": "amount",
          "type": "uint256"
        },
        {
          "internalType": "bytes32",
          "name": "depositReasonCode",
          "type": "bytes32"
        },
        {
          "internalType": "uint256",
          "name": "deadline",
          "type": "uint256"
        }
      ],
      "name": "AlreadyClaimed",
      "type": "error"
    },
    {
      "inputs": [
        {
          "internalType": "uint256",
          "name": "deadline",
          "type": "uint256"
        }
      ],
      "name": "ClaimExpired",
      "type": "error"
    },
    {
      "inputs": [],
      "name": "IllegalInterfaceId",
      "type": "error"
    },
    {
      "inputs": [
        {
          "internalType": "uint256",
          "name": "amount",
          "type": "uint256"
        }
      ],
      "name": "InvalidClaimAmount",
      "type": "error"
    },
    {
      "inputs": [],
      "name": "InvalidForwarderRegistry",
      "type": "error"
    },
    {
      "inputs": [
        {
          "internalType": "address",
          "name": "pointsContractAddress",
          "type": "address"
        }
      ],
      "name": "InvalidPointsContractAddress",
      "type": "error"
    },
    {
      "inputs": [
        {
          "internalType": "address",
          "name": "holder",
          "type": "address"
        },
        {
          "internalType": "uint256",
          "name": "amount",
          "type": "uint256"
        },
        {
          "internalType": "bytes32",
          "name": "depositReasonCode",
          "type": "bytes32"
        },
        {
          "internalType": "uint256",
          "name": "deadline",
          "type": "uint256"
        }
      ],
      "name": "InvalidProof",
      "type": "error"
    },
    {
      "inputs": [],
      "name": "MerkleRootNotExists",
      "type": "error"
    },
    {
      "inputs": [
        {
          "internalType": "address",
          "name": "account",
          "type": "address"
        }
      ],
      "name": "NotContractOwner",
      "type": "error"
    },
    {
      "inputs": [],
      "name": "NotPaused",
      "type": "error"
    },
    {
      "inputs": [],
      "name": "NotPaused",
      "type": "error"
    },
    {
      "inputs": [],
      "name": "Paused",
      "type": "error"
    },
    {
      "inputs": [],
      "name": "Paused",
      "type": "error"
    },
    {
      "anonymous": false,
      "inputs": [
        {
          "indexed": true,
          "internalType": "bytes32",
          "name": "root",
          "type": "bytes32"
        }
      ],
      "name": "MerkleRootSet",
      "type": "event"
    },
    {
      "anonymous": false,
      "inputs": [
        {
          "indexed": true,
          "internalType": "address",
          "name": "previousOwner",
          "type": "address"
        },
        {
          "indexed": true,
          "internalType": "address",
          "name": "newOwner",
          "type": "address"
        }
      ],
      "name": "OwnershipTransferred",
      "type": "event"
    },
    {
      "anonymous": false,
      "inputs": [],
      "name": "Pause",
      "type": "event"
    },
    {
      "anonymous": false,
      "inputs": [
        {
          "indexed": true,
          "internalType": "bytes32",
          "name": "root",
          "type": "bytes32"
        },
        {
          "indexed": true,
          "internalType": "address",
          "name": "holder",
          "type": "address"
        },
        {
          "indexed": false,
          "internalType": "uint256",
          "name": "amount",
          "type": "uint256"
        },
        {
          "indexed": true,
          "internalType": "bytes32",
          "name": "depositReasonCode",
          "type": "bytes32"
        }
      ],
      "name": "PayoutClaimed",
      "type": "event"
    },
    {
      "anonymous": false,
      "inputs": [],
      "name": "Unpause",
      "type": "event"
    },
    {
      "inputs": [],
      "name": "POINTS_CONTRACT",
      "outputs": [
        {
          "internalType": "contract IPoints",
          "name": "",
          "type": "address"
        }
      ],
      "stateMutability": "view",
      "type": "function"
    },
    {
      "inputs": [],
      "name": "__msgData",
      "outputs": [
        {
          "internalType": "bytes",
          "name": "",
          "type": "bytes"
        }
      ],
      "stateMutability": "view",
      "type": "function"
    },
    {
      "inputs": [],
      "name": "__msgSender",
      "outputs": [
        {
          "internalType": "address",
          "name": "",
          "type": "address"
        }
      ],
      "stateMutability": "view",
      "type": "function"
    },
    {
      "inputs": [
        {
          "internalType": "address",
          "name": "holder",
          "type": "address"
        },
        {
          "internalType": "uint256",
          "name": "amount",
          "type": "uint256"
        },
        {
          "internalType": "bytes32",
          "name": "depositReasonCode",
          "type": "bytes32"
        },
        {
          "internalType": "uint256",
          "name": "deadline",
          "type": "uint256"
        },
        {
          "internalType": "bytes32[]",
          "name": "proof",
          "type": "bytes32[]"
        }
      ],
      "name": "claimPayout",
      "outputs": [],
      "stateMutability": "nonpayable",
      "type": "function"
    },
    {
      "inputs": [
        {
          "internalType": "bytes32",
          "name": "",
          "type": "bytes32"
        }
      ],
      "name": "claimed",
      "outputs": [
        {
          "internalType": "bool",
          "name": "",
          "type": "bool"
        }
      ],
      "stateMutability": "view",
      "type": "function"
    },
    {
      "inputs": [],
      "name": "forwarderRegistry",
      "outputs": [
        {
          "internalType": "contract IForwarderRegistry",
          "name": "",
          "type": "address"
        }
      ],
      "stateMutability": "view",
      "type": "function"
    },
    {
      "inputs": [
        {
          "internalType": "address",
          "name": "forwarder",
          "type": "address"
        }
      ],
      "name": "isTrustedForwarder",
      "outputs": [
        {
          "internalType": "bool",
          "name": "",
          "type": "bool"
        }
      ],
      "stateMutability": "view",
      "type": "function"
    },
    {
      "inputs": [],
      "name": "owner",
      "outputs": [
        {
          "internalType": "address",
          "name": "",
          "type": "address"
        }
      ],
      "stateMutability": "view",
      "type": "function"
    },
    {
      "inputs": [],
      "name": "pause",
      "outputs": [],
      "stateMutability": "nonpayable",
      "type": "function"
    },
    {
      "inputs": [],
      "name": "paused",
      "outputs": [
        {
          "internalType": "bool",
          "name": "",
          "type": "bool"
        }
      ],
      "stateMutability": "view",
      "type": "function"
    },
    {
      "inputs": [],
      "name": "root",
      "outputs": [
        {
          "internalType": "bytes32",
          "name": "",
          "type": "bytes32"
        }
      ],
      "stateMutability": "view",
      "type": "function"
    },
    {
      "inputs": [
        {
          "internalType": "bytes32",
          "name": "merkleRoot",
          "type": "bytes32"
        }
      ],
      "name": "setMerkleRoot",
      "outputs": [],
      "stateMutability": "nonpayable",
      "type": "function"
    },
    {
      "inputs": [
        {
          "internalType": "bytes32",
          "name": "merkleRoot",
          "type": "bytes32"
        }
      ],
      "name": "setMerkleRootAndUnpause",
      "outputs": [],
      "stateMutability": "nonpayable",
      "type": "function"
    },
    {
      "inputs": [
        {
          "internalType": "bytes4",
          "name": "interfaceId",
          "type": "bytes4"
        }
      ],
      "name": "supportsInterface",
      "outputs": [
        {
          "internalType": "bool",
          "name": "",
          "type": "bool"
        }
      ],
      "stateMutability": "view",
      "type": "function"
    },
    {
      "inputs": [
        {
          "internalType": "address",
          "name": "newOwner",
          "type": "address"
        }
      ],
      "name": "transferOwnership",
      "outputs": [],
      "stateMutability": "nonpayable",
      "type": "function"
    },
    {
      "inputs": [],
      "name": "unpause",
      "outputs": [],
      "stateMutability": "nonpayable",
      "type": "function"
    }
  ],
  "bytecode": "0x60c06040523480156200001157600080fd5b50604051620014e8380380620014e8833981016040819052620000349162000224565b81818080336200004f8162000048620000cd565b9062000103565b506001600160a01b03908116608052831690506200008f576040516302caf95f60e61b81526001600160a01b038316600482015260240160405180910390fd5b6001600160a01b038116620000b757604051633545ba1f60e21b815260040160405180910390fd5b506001600160a01b031660a05250620002859050565b600080620000fd60017fc9ed16f33ab3a66c84bfd83099ccb2a8845871e2e1c1928f63797152f0fd54cd62000263565b92915050565b6001600160a01b038116156200015a5781546001600160a01b0319166001600160a01b03821690811783556040516000907f8be0079c531659141344cd1fd0a4f28419497f9722a3daafe3b4186f6b6457e0908290a35b6200017a6307f5828d60e41b6001620001726200017e565b9190620001ae565b5050565b600080620000fd60017fca9d3e17f264b0f3984e2634e94adb37fa3e6a8103f06aeae6fa59e21c769f5e62000263565b600160e01b6001600160e01b0319831601620001dd576040516372c683bb60e01b815260040160405180910390fd5b6001600160e01b03199190911660009081526020929092526040909120805460ff1916911515919091179055565b6001600160a01b03811681146200022157600080fd5b50565b600080604083850312156200023857600080fd5b825162000245816200020b565b602084015190925062000258816200020b565b809150509250929050565b81810381811115620000fd57634e487b7160e01b600052601160045260246000fd5b60805160a051611213620002d560003960008181610179015261072801526000818161012f015281816101cb01528181610c0401528181610c4201528181610d7a0152610e0201526112136000f3fe608060405234801561001057600080fd5b50600436106101005760003560e01c80637cb6475911610097578063d1a91ff211610066578063d1a91ff214610269578063d71f13d714610271578063ebf0c71714610284578063f2fde38b1461029b57600080fd5b80637cb64759146102235780638456cb59146102365780638da5cb5b1461023e578063cc3c0f061461024657600080fd5b80633f4ba83a116100d35780633f4ba83a146101b1578063572b6c05146101bb5780635c49f2d0146102085780635c975abb1461021b57600080fd5b806301ffc9a7146101055780632b4c9f161461012d5780632d4c2f931461017457806331e66e1e1461019b575b600080fd5b610118610113366004610f9a565b6102ae565b60405190151581526020015b60405180910390f35b7f00000000000000000000000000000000000000000000000000000000000000005b60405173ffffffffffffffffffffffffffffffffffffffff9091168152602001610124565b61014f7f000000000000000000000000000000000000000000000000000000000000000081565b6101a36102c8565b604051610124929190610fdc565b6101b96102db565b005b6101186101c9366004611052565b7f000000000000000000000000000000000000000000000000000000000000000073ffffffffffffffffffffffffffffffffffffffff90811691161490565b6101b961021636600461106d565b610306565b610118610398565b6101b961023136600461106d565b6103aa565b6101b96103e6565b61014f610401565b61011861025436600461106d565b60016020526000908152604090205460ff1681565b61014f610428565b6101b961027f366004611086565b610432565b61028d60005481565b604051908152602001610124565b6101b96102a9366004611052565b6107e1565b60006102c2826102bc6107ff565b9061082d565b92915050565b3660006102d3610907565b915091509091565b6102f46102e6610912565b6102ee61091c565b9061094a565b6103046102ff6109b9565b6109e7565b565b610312336102ee61091c565b61032461031d6109b9565b5460ff1690565b61035a576040517f6cd6020100000000000000000000000000000000000000000000000000000000815260040160405180910390fd5b600081905561036a6102ff6109b9565b60405181907f42cbc405e4dbf1b691e85b9a34b08ecfcf7a9ad9078bf4d645ccfa1fac11c10b90600090a250565b60006103a561031d6109b9565b905090565b6103b6336102ee61091c565b600081815560405182917f42cbc405e4dbf1b691e85b9a34b08ecfcf7a9ad9078bf4d645ccfa1fac11c10b91a250565b6103f16102e6610912565b6103046103fc6109b9565b610a42565b60006103a561040e61091c565b5473ffffffffffffffffffffffffffffffffffffffff1690565b60006103a5610912565b84600003610474576040517f27ab1ee2000000000000000000000000000000000000000000000000000000008152600481018690526024015b60405180910390fd5b824211156104b1576040517ff5f3b2300000000000000000000000000000000000000000000000000000000081526004810184905260240161046b565b6104bc61031d6109b9565b156104f3576040517f9e87fac800000000000000000000000000000000000000000000000000000000815260040160405180910390fd5b60008054900361052f576040517f4069a05700000000000000000000000000000000000000000000000000000000815260040160405180910390fd5b6040517fffffffffffffffffffffffffffffffffffffffff000000000000000000000000606088901b166020820152603481018690526054810185905260748101849052600090609401604080517fffffffffffffffffffffffffffffffffffffffffffffffffffffffffffffffe081840301815291905280516020909101206000549091506105c3908490849084610aa0565b610626576040517fa041b52e00000000000000000000000000000000000000000000000000000000815273ffffffffffffffffffffffffffffffffffffffff8816600482015260248101879052604481018690526064810185905260840161046b565b60008181526001602052604090205460ff161561069c576040517f7635807d00000000000000000000000000000000000000000000000000000000815273ffffffffffffffffffffffffffffffffffffffff8816600482015260248101879052604481018690526064810185905260840161046b565b60008181526001602081905260409182902080547fffffffffffffffffffffffffffffffffffffffffffffffffffffffffffffff00169091179055517f26b3293f00000000000000000000000000000000000000000000000000000000815273ffffffffffffffffffffffffffffffffffffffff888116600483015260248201889052604482018790527f000000000000000000000000000000000000000000000000000000000000000016906326b3293f90606401600060405180830381600087803b15801561076c57600080fd5b505af1158015610780573d6000803e3d6000fd5b50505050848773ffffffffffffffffffffffffffffffffffffffff166000547f53b9decf166576a09abfb1e906fb4e1241cf57903ab89b07f95d6a26c8568c2a896040516107d091815260200190565b60405180910390a450505050505050565b6107fc6107ec610912565b826107f561091c565b9190610ab8565b50565b6000806102c260017fca9d3e17f264b0f3984e2634e94adb37fa3e6a8103f06aeae6fa59e21c769f5e611128565b60007c01000000000000000000000000000000000000000000000000000000007fffffffff0000000000000000000000000000000000000000000000000000000083160161087d575060006102c2565b7ffe003659000000000000000000000000000000000000000000000000000000007fffffffff000000000000000000000000000000000000000000000000000000008316016108ce575060016102c2565b507fffffffff00000000000000000000000000000000000000000000000000000000166000908152602091909152604090205460ff1690565b3660006102d3610bcd565b60006103a5610d37565b6000806102c260017fc9ed16f33ab3a66c84bfd83099ccb2a8845871e2e1c1928f63797152f0fd54cd611128565b815473ffffffffffffffffffffffffffffffffffffffff8281169116146109b5576040517f2ef4875e00000000000000000000000000000000000000000000000000000000815273ffffffffffffffffffffffffffffffffffffffff8216600482015260240161046b565b5050565b6000806102c260017f0186a05f63b1553398ad5ea3233c0ce68b8c9eecc47717f123c5c2b42fbd6d9f611128565b6109f081610e7e565b80547fffffffffffffffffffffffffffffffffffffffffffffffffffffffffffffff001681556040517f7805862f689e2f13df9f062ff482ad3ad112aca9e0847911ed832e158c525b3390600090a150565b610a4b81610eb9565b80547fffffffffffffffffffffffffffffffffffffffffffffffffffffffffffffff001660011781556040517f6985a02210a168e66602d3235cb6db0e70f92b3ba4d376a33c0f3d9434bff62590600090a150565b600082610aae868685610ef5565b1495945050505050565b825473ffffffffffffffffffffffffffffffffffffffff9081169083168114610b25576040517f2ef4875e00000000000000000000000000000000000000000000000000000000815273ffffffffffffffffffffffffffffffffffffffff8416600482015260240161046b565b8173ffffffffffffffffffffffffffffffffffffffff168173ffffffffffffffffffffffffffffffffffffffff1614610bc75783547fffffffffffffffffffffffff00000000000000000000000000000000000000001673ffffffffffffffffffffffffffffffffffffffff8381169182178655604051908316907f8be0079c531659141344cd1fd0a4f28419497f9722a3daafe3b4186f6b6457e090600090a35b50505050565b36600033321480610bde5750601836105b15610bec5750600091369150565b3373ffffffffffffffffffffffffffffffffffffffff7f0000000000000000000000000000000000000000000000000000000000000000161480610d21575073ffffffffffffffffffffffffffffffffffffffff7f000000000000000000000000000000000000000000000000000000000000000016638929a8ca367fffffffffffffffffffffffffffffffffffffffffffffffffffffffffffffffec013560601c6040517fffffffff0000000000000000000000000000000000000000000000000000000060e084901b16815273ffffffffffffffffffffffffffffffffffffffff9091166004820152336024820152604401602060405180830381865afa158015610cfd573d6000803e3d6000fd5b505050506040513d601f19601f82011682018060405250810190610d219190611162565b15610d2e576102d3610f37565b50600091369150565b600033321480610d475750601836105b15610d5157503390565b7fffffffffffffffffffffffffffffffffffffffffffffffffffffffffffffffec36013560601c7f000000000000000000000000000000000000000000000000000000000000000073ffffffffffffffffffffffffffffffffffffffff16331480610e6d57506040517f8929a8ca00000000000000000000000000000000000000000000000000000000815273ffffffffffffffffffffffffffffffffffffffff82811660048301523360248301527f00000000000000000000000000000000000000000000000000000000000000001690638929a8ca90604401602060405180830381865afa158015610e49573d6000803e3d6000fd5b505050506040513d601f19601f82011682018060405250810190610e6d9190611162565b15610e7757919050565b3391505090565b805460ff166107fc576040517f6cd6020100000000000000000000000000000000000000000000000000000000815260040160405180910390fd5b805460ff16156107fc576040517f9e87fac800000000000000000000000000000000000000000000000000000000815260040160405180910390fd5b600081815b84811015610f2e57610f2482878784818110610f1857610f18611184565b90506020020135610f68565b9150600101610efa565b50949350505050565b3660006102d37fffffffffffffffffffffffffffffffffffffffffffffffffffffffffffffffec83018284816111b3565b6000818310610f84576000828152602084905260409020610f93565b60008381526020839052604090205b9392505050565b600060208284031215610fac57600080fd5b81357fffffffff0000000000000000000000000000000000000000000000000000000081168114610f9357600080fd5b60208152816020820152818360408301376000818301604090810191909152601f9092017fffffffffffffffffffffffffffffffffffffffffffffffffffffffffffffffe0160101919050565b803573ffffffffffffffffffffffffffffffffffffffff8116811461104d57600080fd5b919050565b60006020828403121561106457600080fd5b610f9382611029565b60006020828403121561107f57600080fd5b5035919050565b60008060008060008060a0878903121561109f57600080fd5b6110a887611029565b9550602087013594506040870135935060608701359250608087013567ffffffffffffffff808211156110da57600080fd5b818901915089601f8301126110ee57600080fd5b8135818111156110fd57600080fd5b8a60208260051b850101111561111257600080fd5b6020830194508093505050509295509295509295565b818103818111156102c2577f4e487b7100000000000000000000000000000000000000000000000000000000600052601160045260246000fd5b60006020828403121561117457600080fd5b81518015158114610f9357600080fd5b7f4e487b7100000000000000000000000000000000000000000000000000000000600052603260045260246000fd5b600080858511156111c357600080fd5b838611156111d057600080fd5b505082019391909203915056fea26469706673582212207392cbf1aa5df03d14de674a76542b8ee002235dd6cc5fb045d04b95495141f564736f6c63430008160033",
  "linkReferences": {},
  "deployedLinkReferences": {}
}