{
  "_format": "hh-sol-artifact-1",
  "contractName": "PointsMerkleClaimMock",
  "sourceName": "contracts/mocks/pointsMerkleClaimMock/PointsMerkleClaimMock.sol",
  "abi": [
    {
      "inputs": [
        {
          "internalType": "address",
          "name": "pointsContractAddress",
          "type": "address"
        },
        {
          "internalType": "contract IForwarderRegistry",
          "name": "forwarderRegistry_",
          "type": "address"
        }
      ],
      "stateMutability": "nonpayable",
      "type": "constructor"
    },
    {
      "inputs": [
        {
          "internalType": "address",
          "name": "holder",
          "type": "address"
        },
        {
          "internalType": "uint256",
          "name": "amount",
          "type": "uint256"
        },
        {
          "internalType": "bytes32",
          "name": "depositReasonCode",
          "type": "bytes32"
        },
        {
          "internalType": "uint256",
          "name": "deadline",
          "type": "uint256"
        }
      ],
      "name": "AlreadyClaimed",
      "type": "error"
    },
    {
      "inputs": [
        {
          "internalType": "uint256",
          "name": "deadline",
          "type": "uint256"
        }
      ],
      "name": "ClaimExpired",
      "type": "error"
    },
    {
      "inputs": [],
      "name": "IllegalInterfaceId",
      "type": "error"
    },
    {
      "inputs": [
        {
          "internalType": "uint256",
          "name": "amount",
          "type": "uint256"
        }
      ],
      "name": "InvalidClaimAmount",
      "type": "error"
    },
    {
      "inputs": [],
      "name": "InvalidForwarderRegistry",
      "type": "error"
    },
    {
      "inputs": [
        {
          "internalType": "address",
          "name": "pointsContractAddress",
          "type": "address"
        }
      ],
      "name": "InvalidPointsContractAddress",
      "type": "error"
    },
    {
      "inputs": [
        {
          "internalType": "address",
          "name": "holder",
          "type": "address"
        },
        {
          "internalType": "uint256",
          "name": "amount",
          "type": "uint256"
        },
        {
          "internalType": "bytes32",
          "name": "depositReasonCode",
          "type": "bytes32"
        },
        {
          "internalType": "uint256",
          "name": "deadline",
          "type": "uint256"
        }
      ],
      "name": "InvalidProof",
      "type": "error"
    },
    {
      "inputs": [],
      "name": "MerkleRootNotExists",
      "type": "error"
    },
    {
      "inputs": [
        {
          "internalType": "address",
          "name": "account",
          "type": "address"
        }
      ],
      "name": "NotContractOwner",
      "type": "error"
    },
    {
      "inputs": [],
      "name": "NotPaused",
      "type": "error"
    },
    {
      "inputs": [],
      "name": "Paused",
      "type": "error"
    },
    {
      "anonymous": false,
      "inputs": [
        {
          "indexed": true,
          "internalType": "bytes32",
          "name": "root",
          "type": "bytes32"
        }
      ],
      "name": "MerkleRootSet",
      "type": "event"
    },
    {
      "anonymous": false,
      "inputs": [
        {
          "indexed": true,
          "internalType": "address",
          "name": "previousOwner",
          "type": "address"
        },
        {
          "indexed": true,
          "internalType": "address",
          "name": "newOwner",
          "type": "address"
        }
      ],
      "name": "OwnershipTransferred",
      "type": "event"
    },
    {
      "anonymous": false,
      "inputs": [],
      "name": "Pause",
      "type": "event"
    },
    {
      "anonymous": false,
      "inputs": [
        {
          "indexed": true,
          "internalType": "bytes32",
          "name": "root",
          "type": "bytes32"
        },
        {
          "indexed": true,
          "internalType": "address",
          "name": "holder",
          "type": "address"
        },
        {
          "indexed": true,
          "internalType": "bytes32",
          "name": "depositReasonCode",
          "type": "bytes32"
        },
        {
          "indexed": false,
          "internalType": "uint256",
          "name": "amount",
          "type": "uint256"
        }
      ],
      "name": "PayoutClaimed",
      "type": "event"
    },
    {
      "anonymous": false,
      "inputs": [],
      "name": "Unpause",
      "type": "event"
    },
    {
      "inputs": [],
      "name": "POINTS_CONTRACT",
      "outputs": [
        {
          "internalType": "contract IPoints",
          "name": "",
          "type": "address"
        }
      ],
      "stateMutability": "view",
      "type": "function"
    },
    {
      "inputs": [],
      "name": "__msgData",
      "outputs": [
        {
          "internalType": "bytes",
          "name": "",
          "type": "bytes"
        }
      ],
      "stateMutability": "view",
      "type": "function"
    },
    {
      "inputs": [],
      "name": "__msgSender",
      "outputs": [
        {
          "internalType": "address",
          "name": "",
          "type": "address"
        }
      ],
      "stateMutability": "view",
      "type": "function"
    },
    {
      "inputs": [
        {
          "internalType": "address",
          "name": "holder",
          "type": "address"
        },
        {
          "internalType": "uint256",
          "name": "amount",
          "type": "uint256"
        },
        {
          "internalType": "bytes32",
          "name": "depositReasonCode",
          "type": "bytes32"
        },
        {
          "internalType": "uint256",
          "name": "deadline",
          "type": "uint256"
        },
        {
          "internalType": "bytes32[]",
          "name": "proof",
          "type": "bytes32[]"
        }
      ],
      "name": "claimPayout",
      "outputs": [],
      "stateMutability": "nonpayable",
      "type": "function"
    },
    {
      "inputs": [
        {
          "internalType": "bytes32",
          "name": "",
          "type": "bytes32"
        }
      ],
      "name": "claimed",
      "outputs": [
        {
          "internalType": "bool",
          "name": "",
          "type": "bool"
        }
      ],
      "stateMutability": "view",
      "type": "function"
    },
    {
      "inputs": [],
      "name": "forwarderRegistry",
      "outputs": [
        {
          "internalType": "contract IForwarderRegistry",
          "name": "",
          "type": "address"
        }
      ],
      "stateMutability": "view",
      "type": "function"
    },
    {
      "inputs": [
        {
          "internalType": "address",
          "name": "forwarder",
          "type": "address"
        }
      ],
      "name": "isTrustedForwarder",
      "outputs": [
        {
          "internalType": "bool",
          "name": "",
          "type": "bool"
        }
      ],
      "stateMutability": "view",
      "type": "function"
    },
    {
      "inputs": [],
      "name": "owner",
      "outputs": [
        {
          "internalType": "address",
          "name": "",
          "type": "address"
        }
      ],
      "stateMutability": "view",
      "type": "function"
    },
    {
      "inputs": [],
      "name": "pause",
      "outputs": [],
      "stateMutability": "nonpayable",
      "type": "function"
    },
    {
      "inputs": [],
      "name": "paused",
      "outputs": [
        {
          "internalType": "bool",
          "name": "",
          "type": "bool"
        }
      ],
      "stateMutability": "view",
      "type": "function"
    },
    {
      "inputs": [],
      "name": "root",
      "outputs": [
        {
          "internalType": "bytes32",
          "name": "",
          "type": "bytes32"
        }
      ],
      "stateMutability": "view",
      "type": "function"
    },
    {
      "inputs": [
        {
          "internalType": "bytes32",
          "name": "merkleRoot",
          "type": "bytes32"
        }
      ],
      "name": "setMerkleRoot",
      "outputs": [],
      "stateMutability": "nonpayable",
      "type": "function"
    },
    {
      "inputs": [
        {
          "internalType": "bytes32",
          "name": "merkleRoot",
          "type": "bytes32"
        }
      ],
      "name": "setMerkleRootAndUnpause",
      "outputs": [],
      "stateMutability": "nonpayable",
      "type": "function"
    },
    {
      "inputs": [
        {
          "internalType": "bytes4",
          "name": "interfaceId",
          "type": "bytes4"
        }
      ],
      "name": "supportsInterface",
      "outputs": [
        {
          "internalType": "bool",
          "name": "",
          "type": "bool"
        }
      ],
      "stateMutability": "view",
      "type": "function"
    },
    {
      "inputs": [
        {
          "internalType": "address",
          "name": "newOwner",
          "type": "address"
        }
      ],
      "name": "transferOwnership",
      "outputs": [],
      "stateMutability": "nonpayable",
      "type": "function"
    },
    {
      "inputs": [],
      "name": "unpause",
      "outputs": [],
      "stateMutability": "nonpayable",
      "type": "function"
    }
  ],
  "bytecode": "0x60c06040523480156200001157600080fd5b50604051620014b1380380620014b1833981016040819052620000349162000224565b81818080336200004f8162000048620000cd565b9062000103565b506001600160a01b03908116608052831690506200008f576040516302caf95f60e61b81526001600160a01b038316600482015260240160405180910390fd5b6001600160a01b038116620000b757604051633545ba1f60e21b815260040160405180910390fd5b506001600160a01b031660a05250620002859050565b600080620000fd60017fc9ed16f33ab3a66c84bfd83099ccb2a8845871e2e1c1928f63797152f0fd54cd62000263565b92915050565b6001600160a01b038116156200015a5781546001600160a01b0319166001600160a01b03821690811783556040516000907f8be0079c531659141344cd1fd0a4f28419497f9722a3daafe3b4186f6b6457e0908290a35b6200017a6307f5828d60e41b6001620001726200017e565b9190620001ae565b5050565b600080620000fd60017fca9d3e17f264b0f3984e2634e94adb37fa3e6a8103f06aeae6fa59e21c769f5e62000263565b600160e01b6001600160e01b0319831601620001dd576040516372c683bb60e01b815260040160405180910390fd5b6001600160e01b03199190911660009081526020929092526040909120805460ff1916911515919091179055565b6001600160a01b03811681146200022157600080fd5b50565b600080604083850312156200023857600080fd5b825162000245816200020b565b602084015190925062000258816200020b565b809150509250929050565b81810381811115620000fd57634e487b7160e01b600052601160045260246000fd5b60805160a0516111dc620002d56000396000818161017901526106f401526000818161012f015281816101cb01528181610bcd01528181610c0b01528181610d430152610dcb01526111dc6000f3fe608060405234801561001057600080fd5b50600436106101005760003560e01c80637cb6475911610097578063d1a91ff211610066578063d1a91ff214610269578063d71f13d714610271578063ebf0c71714610284578063f2fde38b1461029b57600080fd5b80637cb64759146102235780638456cb59146102365780638da5cb5b1461023e578063cc3c0f061461024657600080fd5b80633f4ba83a116100d35780633f4ba83a146101b1578063572b6c05146101bb5780635c49f2d0146102085780635c975abb1461021b57600080fd5b806301ffc9a7146101055780632b4c9f161461012d5780632d4c2f931461017457806331e66e1e1461019b575b600080fd5b610118610113366004610f63565b6102ae565b60405190151581526020015b60405180910390f35b7f00000000000000000000000000000000000000000000000000000000000000005b60405173ffffffffffffffffffffffffffffffffffffffff9091168152602001610124565b61014f7f000000000000000000000000000000000000000000000000000000000000000081565b6101a36102c8565b604051610124929190610fa5565b6101b96102db565b005b6101186101c936600461101b565b7f000000000000000000000000000000000000000000000000000000000000000073ffffffffffffffffffffffffffffffffffffffff90811691161490565b6101b9610216366004611036565b610306565b610118610365565b6101b9610231366004611036565b610377565b6101b96103b2565b61014f6103cd565b610118610254366004611036565b60016020526000908152604090205460ff1681565b61014f6103f4565b6101b961027f36600461104f565b6103fe565b61028d60005481565b604051908152602001610124565b6101b96102a936600461101b565b6107ad565b60006102c2826102bc6107c8565b906107f6565b92915050565b3660006102d36108d0565b915091509091565b6102f46102e66108db565b6102ee6108e5565b90610913565b6103046102ff610982565b6109b0565b565b610318610311610982565b5460ff1690565b61034e576040517f6cd6020100000000000000000000000000000000000000000000000000000000815260040160405180910390fd5b61035781610377565b6103626102ff610982565b50565b6000610372610311610982565b905090565b6103826102e66108db565b600081815560405182917f42cbc405e4dbf1b691e85b9a34b08ecfcf7a9ad9078bf4d645ccfa1fac11c10b91a250565b6103bd6102e66108db565b6103046103c8610982565b610a0b565b60006103726103da6108e5565b5473ffffffffffffffffffffffffffffffffffffffff1690565b60006103726108db565b84600003610440576040517f27ab1ee2000000000000000000000000000000000000000000000000000000008152600481018690526024015b60405180910390fd5b8242111561047d576040517ff5f3b23000000000000000000000000000000000000000000000000000000000815260048101849052602401610437565b610488610311610982565b156104bf576040517f9e87fac800000000000000000000000000000000000000000000000000000000815260040160405180910390fd5b6000805490036104fb576040517f4069a05700000000000000000000000000000000000000000000000000000000815260040160405180910390fd5b6040517fffffffffffffffffffffffffffffffffffffffff000000000000000000000000606088901b166020820152603481018690526054810185905260748101849052600090609401604080517fffffffffffffffffffffffffffffffffffffffffffffffffffffffffffffffe0818403018152919052805160209091012060005490915061058f908490849084610a69565b6105f2576040517fa041b52e00000000000000000000000000000000000000000000000000000000815273ffffffffffffffffffffffffffffffffffffffff88166004820152602481018790526044810186905260648101859052608401610437565b60008181526001602052604090205460ff1615610668576040517f7635807d00000000000000000000000000000000000000000000000000000000815273ffffffffffffffffffffffffffffffffffffffff88166004820152602481018790526044810186905260648101859052608401610437565b60008181526001602081905260409182902080547fffffffffffffffffffffffffffffffffffffffffffffffffffffffffffffff00169091179055517f26b3293f00000000000000000000000000000000000000000000000000000000815273ffffffffffffffffffffffffffffffffffffffff888116600483015260248201889052604482018790527f000000000000000000000000000000000000000000000000000000000000000016906326b3293f90606401600060405180830381600087803b15801561073857600080fd5b505af115801561074c573d6000803e3d6000fd5b50505050848773ffffffffffffffffffffffffffffffffffffffff166000547f01d0c7faff918c98b5c422ac66cf92225146d311b40bfde4a84c48cee8a9ecb08960405161079c91815260200190565b60405180910390a450505050505050565b6103626107b86108db565b826107c16108e5565b9190610a81565b6000806102c260017fca9d3e17f264b0f3984e2634e94adb37fa3e6a8103f06aeae6fa59e21c769f5e6110f1565b60007c01000000000000000000000000000000000000000000000000000000007fffffffff00000000000000000000000000000000000000000000000000000000831601610846575060006102c2565b7ffe003659000000000000000000000000000000000000000000000000000000007fffffffff00000000000000000000000000000000000000000000000000000000831601610897575060016102c2565b507fffffffff00000000000000000000000000000000000000000000000000000000166000908152602091909152604090205460ff1690565b3660006102d3610b96565b6000610372610d00565b6000806102c260017fc9ed16f33ab3a66c84bfd83099ccb2a8845871e2e1c1928f63797152f0fd54cd6110f1565b815473ffffffffffffffffffffffffffffffffffffffff82811691161461097e576040517f2ef4875e00000000000000000000000000000000000000000000000000000000815273ffffffffffffffffffffffffffffffffffffffff82166004820152602401610437565b5050565b6000806102c260017f0186a05f63b1553398ad5ea3233c0ce68b8c9eecc47717f123c5c2b42fbd6d9f6110f1565b6109b981610e47565b80547fffffffffffffffffffffffffffffffffffffffffffffffffffffffffffffff001681556040517f7805862f689e2f13df9f062ff482ad3ad112aca9e0847911ed832e158c525b3390600090a150565b610a1481610e82565b80547fffffffffffffffffffffffffffffffffffffffffffffffffffffffffffffff001660011781556040517f6985a02210a168e66602d3235cb6db0e70f92b3ba4d376a33c0f3d9434bff62590600090a150565b600082610a77868685610ebe565b1495945050505050565b825473ffffffffffffffffffffffffffffffffffffffff9081169083168114610aee576040517f2ef4875e00000000000000000000000000000000000000000000000000000000815273ffffffffffffffffffffffffffffffffffffffff84166004820152602401610437565b8173ffffffffffffffffffffffffffffffffffffffff168173ffffffffffffffffffffffffffffffffffffffff1614610b905783547fffffffffffffffffffffffff00000000000000000000000000000000000000001673ffffffffffffffffffffffffffffffffffffffff8381169182178655604051908316907f8be0079c531659141344cd1fd0a4f28419497f9722a3daafe3b4186f6b6457e090600090a35b50505050565b36600033321480610ba75750601836105b15610bb55750600091369150565b3373ffffffffffffffffffffffffffffffffffffffff7f0000000000000000000000000000000000000000000000000000000000000000161480610cea575073ffffffffffffffffffffffffffffffffffffffff7f000000000000000000000000000000000000000000000000000000000000000016638929a8ca367fffffffffffffffffffffffffffffffffffffffffffffffffffffffffffffffec013560601c6040517fffffffff0000000000000000000000000000000000000000000000000000000060e084901b16815273ffffffffffffffffffffffffffffffffffffffff9091166004820152336024820152604401602060405180830381865afa158015610cc6573d6000803e3d6000fd5b505050506040513d601f19601f82011682018060405250810190610cea919061112b565b15610cf7576102d3610f00565b50600091369150565b600033321480610d105750601836105b15610d1a57503390565b7fffffffffffffffffffffffffffffffffffffffffffffffffffffffffffffffec36013560601c7f000000000000000000000000000000000000000000000000000000000000000073ffffffffffffffffffffffffffffffffffffffff16331480610e3657506040517f8929a8ca00000000000000000000000000000000000000000000000000000000815273ffffffffffffffffffffffffffffffffffffffff82811660048301523360248301527f00000000000000000000000000000000000000000000000000000000000000001690638929a8ca90604401602060405180830381865afa158015610e12573d6000803e3d6000fd5b505050506040513d601f19601f82011682018060405250810190610e36919061112b565b15610e4057919050565b3391505090565b805460ff16610362576040517f6cd6020100000000000000000000000000000000000000000000000000000000815260040160405180910390fd5b805460ff1615610362576040517f9e87fac800000000000000000000000000000000000000000000000000000000815260040160405180910390fd5b600081815b84811015610ef757610eed82878784818110610ee157610ee161114d565b90506020020135610f31565b9150600101610ec3565b50949350505050565b3660006102d37fffffffffffffffffffffffffffffffffffffffffffffffffffffffffffffffec830182848161117c565b6000818310610f4d576000828152602084905260409020610f5c565b60008381526020839052604090205b9392505050565b600060208284031215610f7557600080fd5b81357fffffffff0000000000000000000000000000000000000000000000000000000081168114610f5c57600080fd5b60208152816020820152818360408301376000818301604090810191909152601f9092017fffffffffffffffffffffffffffffffffffffffffffffffffffffffffffffffe0160101919050565b803573ffffffffffffffffffffffffffffffffffffffff8116811461101657600080fd5b919050565b60006020828403121561102d57600080fd5b610f5c82610ff2565b60006020828403121561104857600080fd5b5035919050565b60008060008060008060a0878903121561106857600080fd5b61107187610ff2565b9550602087013594506040870135935060608701359250608087013567ffffffffffffffff808211156110a357600080fd5b818901915089601f8301126110b757600080fd5b8135818111156110c657600080fd5b8a60208260051b85010111156110db57600080fd5b6020830194508093505050509295509295509295565b818103818111156102c2577f4e487b7100000000000000000000000000000000000000000000000000000000600052601160045260246000fd5b60006020828403121561113d57600080fd5b81518015158114610f5c57600080fd5b7f4e487b7100000000000000000000000000000000000000000000000000000000600052603260045260246000fd5b6000808585111561118c57600080fd5b8386111561119957600080fd5b505082019391909203915056fea264697066735822122055cfccce86c7e7c3b77d86f16bfc5bb1684cb56d0a743f1541c5ef780a0ba6ce64736f6c63430008160033",
  "linkReferences": {},
  "deployedLinkReferences": {}
}