{
  "_format": "hh-sol-artifact-1",
  "contractName": "PointsArena",
  "sourceName": "contracts/arena/PointsArena.sol",
  "abi": [
    {
      "inputs": [
        {
          "internalType": "uint256",
          "name": "entryFee",
          "type": "uint256"
        },
        {
          "internalType": "uint256",
          "name": "commissionRate_",
          "type": "uint256"
        },
        {
          "internalType": "address",
          "name": "messageSigner",
          "type": "address"
        },
        {
          "internalType": "address payable",
          "name": "payoutWallet",
          "type": "address"
        },
        {
          "internalType": "address",
          "name": "points",
          "type": "address"
        },
        {
          "internalType": "bytes32",
          "name": "consumeReasonCode",
          "type": "bytes32"
        },
        {
          "internalType": "bytes32",
          "name": "rewardReasonCode",
          "type": "bytes32"
        },
        {
          "internalType": "bytes32",
          "name": "refundReasonCode",
          "type": "bytes32"
        },
        {
          "internalType": "bytes32",
          "name": "commissionReasonCode",
          "type": "bytes32"
        },
        {
          "internalType": "contract IForwarderRegistry",
          "name": "forwarderRegistry",
          "type": "address"
        }
      ],
      "stateMutability": "nonpayable",
      "type": "constructor"
    },
    {
      "inputs": [
        {
          "internalType": "address",
          "name": "account",
          "type": "address"
        }
      ],
      "name": "AlreadyAdmitted",
      "type": "error"
    },
    {
      "inputs": [],
      "name": "FailedCall",
      "type": "error"
    },
    {
      "inputs": [],
      "name": "IllegalInterfaceId",
      "type": "error"
    },
    {
      "inputs": [],
      "name": "InconsistentArrayLengths",
      "type": "error"
    },
    {
      "inputs": [
        {
          "internalType": "address",
          "name": "tokenContract",
          "type": "address"
        }
      ],
      "name": "IncorrectTokenContractType",
      "type": "error"
    },
    {
      "inputs": [
        {
          "internalType": "uint256",
          "name": "balance",
          "type": "uint256"
        },
        {
          "internalType": "uint256",
          "name": "needed",
          "type": "uint256"
        }
      ],
      "name": "InsufficientBalance",
      "type": "error"
    },
    {
      "inputs": [
        {
          "internalType": "uint256",
          "name": "rate",
          "type": "uint256"
        }
      ],
      "name": "InvalidCommissionRate",
      "type": "error"
    },
    {
      "inputs": [],
      "name": "InvalidShortString",
      "type": "error"
    },
    {
      "inputs": [],
      "name": "InvalidSignature",
      "type": "error"
    },
    {
      "inputs": [
        {
          "internalType": "address",
          "name": "account",
          "type": "address"
        }
      ],
      "name": "NotContractOwner",
      "type": "error"
    },
    {
      "inputs": [
        {
          "internalType": "address",
          "name": "account",
          "type": "address"
        }
      ],
      "name": "PlayerNotAdmitted",
      "type": "error"
    },
    {
      "inputs": [
        {
          "internalType": "address",
          "name": "token",
          "type": "address"
        }
      ],
      "name": "SafeERC20FailedOperation",
      "type": "error"
    },
    {
      "inputs": [
        {
          "internalType": "string",
          "name": "str",
          "type": "string"
        }
      ],
      "name": "StringTooLong",
      "type": "error"
    },
    {
      "inputs": [],
      "name": "ZeroAddressPayoutWallet",
      "type": "error"
    },
    {
      "inputs": [],
      "name": "ZeroPrice",
      "type": "error"
    },
    {
      "anonymous": false,
      "inputs": [
        {
          "indexed": true,
          "internalType": "address",
          "name": "account",
          "type": "address"
        }
      ],
      "name": "Admission",
      "type": "event"
    },
    {
      "anonymous": false,
      "inputs": [
        {
          "indexed": false,
          "internalType": "uint256",
          "name": "rate",
          "type": "uint256"
        }
      ],
      "name": "CommissionRateSet",
      "type": "event"
    },
    {
      "anonymous": false,
      "inputs": [],
      "name": "EIP712DomainChanged",
      "type": "event"
    },
    {
      "anonymous": false,
      "inputs": [
        {
          "indexed": true,
          "internalType": "uint256",
          "name": "matchId",
          "type": "uint256"
        },
        {
          "indexed": true,
          "internalType": "address",
          "name": "player1",
          "type": "address"
        },
        {
          "indexed": true,
          "internalType": "address",
          "name": "player2",
          "type": "address"
        },
        {
          "indexed": false,
          "internalType": "uint256",
          "name": "player1AdmissionTime",
          "type": "uint256"
        },
        {
          "indexed": false,
          "internalType": "uint256",
          "name": "player2AdmissionTime",
          "type": "uint256"
        },
        {
          "indexed": false,
          "internalType": "enum ArenaBase.MatchResult",
          "name": "result",
          "type": "uint8"
        }
      ],
      "name": "MatchCompleted",
      "type": "event"
    },
    {
      "anonymous": false,
      "inputs": [
        {
          "indexed": false,
          "internalType": "address",
          "name": "signer",
          "type": "address"
        }
      ],
      "name": "MessageSignerSet",
      "type": "event"
    },
    {
      "anonymous": false,
      "inputs": [
        {
          "indexed": true,
          "internalType": "address",
          "name": "previousOwner",
          "type": "address"
        },
        {
          "indexed": true,
          "internalType": "address",
          "name": "newOwner",
          "type": "address"
        }
      ],
      "name": "OwnershipTransferred",
      "type": "event"
    },
    {
      "anonymous": false,
      "inputs": [
        {
          "indexed": true,
          "internalType": "address",
          "name": "account",
          "type": "address"
        },
        {
          "indexed": true,
          "internalType": "uint256",
          "name": "matchId",
          "type": "uint256"
        },
        {
          "indexed": false,
          "internalType": "uint256",
          "name": "amount",
          "type": "uint256"
        }
      ],
      "name": "PayoutDelivered",
      "type": "event"
    },
    {
      "anonymous": false,
      "inputs": [
        {
          "indexed": false,
          "internalType": "address",
          "name": "payoutWallet",
          "type": "address"
        }
      ],
      "name": "PayoutWalletSet",
      "type": "event"
    },
    {
      "inputs": [],
      "name": "COMMISSION_REASON_CODE",
      "outputs": [
        {
          "internalType": "bytes32",
          "name": "",
          "type": "bytes32"
        }
      ],
      "stateMutability": "view",
      "type": "function"
    },
    {
      "inputs": [],
      "name": "COMPLETE_MATCH_TYPEHASH",
      "outputs": [
        {
          "internalType": "bytes32",
          "name": "",
          "type": "bytes32"
        }
      ],
      "stateMutability": "view",
      "type": "function"
    },
    {
      "inputs": [],
      "name": "CONSUME_REASON_CODE",
      "outputs": [
        {
          "internalType": "bytes32",
          "name": "",
          "type": "bytes32"
        }
      ],
      "stateMutability": "view",
      "type": "function"
    },
    {
      "inputs": [],
      "name": "ENTRY_FEE",
      "outputs": [
        {
          "internalType": "uint256",
          "name": "",
          "type": "uint256"
        }
      ],
      "stateMutability": "view",
      "type": "function"
    },
    {
      "inputs": [],
      "name": "POINTS",
      "outputs": [
        {
          "internalType": "contract IPointsSpender",
          "name": "",
          "type": "address"
        }
      ],
      "stateMutability": "view",
      "type": "function"
    },
    {
      "inputs": [],
      "name": "REFUND_REASON_CODE",
      "outputs": [
        {
          "internalType": "bytes32",
          "name": "",
          "type": "bytes32"
        }
      ],
      "stateMutability": "view",
      "type": "function"
    },
    {
      "inputs": [],
      "name": "REWARD_REASON_CODE",
      "outputs": [
        {
          "internalType": "bytes32",
          "name": "",
          "type": "bytes32"
        }
      ],
      "stateMutability": "view",
      "type": "function"
    },
    {
      "inputs": [],
      "name": "admit",
      "outputs": [],
      "stateMutability": "nonpayable",
      "type": "function"
    },
    {
      "inputs": [
        {
          "internalType": "address",
          "name": "account",
          "type": "address"
        }
      ],
      "name": "admitted",
      "outputs": [
        {
          "internalType": "uint256",
          "name": "admissionTime",
          "type": "uint256"
        }
      ],
      "stateMutability": "view",
      "type": "function"
    },
    {
      "inputs": [],
      "name": "commission",
      "outputs": [
        {
          "internalType": "uint256",
          "name": "",
          "type": "uint256"
        }
      ],
      "stateMutability": "view",
      "type": "function"
    },
    {
      "inputs": [],
      "name": "commissionRate",
      "outputs": [
        {
          "internalType": "uint256",
          "name": "",
          "type": "uint256"
        }
      ],
      "stateMutability": "view",
      "type": "function"
    },
    {
      "inputs": [
        {
          "internalType": "uint256",
          "name": "matchId",
          "type": "uint256"
        },
        {
          "internalType": "address",
          "name": "player1",
          "type": "address"
        },
        {
          "internalType": "address",
          "name": "player2",
          "type": "address"
        },
        {
          "internalType": "enum ArenaBase.MatchResult",
          "name": "result",
          "type": "uint8"
        },
        {
          "internalType": "bytes",
          "name": "signature",
          "type": "bytes"
        }
      ],
      "name": "completeMatch",
      "outputs": [],
      "stateMutability": "nonpayable",
      "type": "function"
    },
    {
      "inputs": [],
      "name": "eip712Domain",
      "outputs": [
        {
          "internalType": "bytes1",
          "name": "fields",
          "type": "bytes1"
        },
        {
          "internalType": "string",
          "name": "name",
          "type": "string"
        },
        {
          "internalType": "string",
          "name": "version",
          "type": "string"
        },
        {
          "internalType": "uint256",
          "name": "chainId",
          "type": "uint256"
        },
        {
          "internalType": "address",
          "name": "verifyingContract",
          "type": "address"
        },
        {
          "internalType": "bytes32",
          "name": "salt",
          "type": "bytes32"
        },
        {
          "internalType": "uint256[]",
          "name": "extensions",
          "type": "uint256[]"
        }
      ],
      "stateMutability": "view",
      "type": "function"
    },
    {
      "inputs": [],
      "name": "forwarderRegistry",
      "outputs": [
        {
          "internalType": "contract IForwarderRegistry",
          "name": "",
          "type": "address"
        }
      ],
      "stateMutability": "view",
      "type": "function"
    },
    {
      "inputs": [
        {
          "internalType": "address",
          "name": "forwarder",
          "type": "address"
        }
      ],
      "name": "isTrustedForwarder",
      "outputs": [
        {
          "internalType": "bool",
          "name": "",
          "type": "bool"
        }
      ],
      "stateMutability": "view",
      "type": "function"
    },
    {
      "inputs": [],
      "name": "messageSigner",
      "outputs": [
        {
          "internalType": "address",
          "name": "",
          "type": "address"
        }
      ],
      "stateMutability": "view",
      "type": "function"
    },
    {
      "inputs": [],
      "name": "owner",
      "outputs": [
        {
          "internalType": "address",
          "name": "",
          "type": "address"
        }
      ],
      "stateMutability": "view",
      "type": "function"
    },
    {
      "inputs": [],
      "name": "payoutWallet",
      "outputs": [
        {
          "internalType": "address payable",
          "name": "wallet",
          "type": "address"
        }
      ],
      "stateMutability": "view",
      "type": "function"
    },
    {
      "inputs": [
        {
          "internalType": "address[]",
          "name": "accounts",
          "type": "address[]"
        },
        {
          "internalType": "contract IERC20[]",
          "name": "tokens",
          "type": "address[]"
        },
        {
          "internalType": "uint256[]",
          "name": "amounts",
          "type": "uint256[]"
        }
      ],
      "name": "recoverERC20s",
      "outputs": [],
      "stateMutability": "nonpayable",
      "type": "function"
    },
    {
      "inputs": [
        {
          "internalType": "address[]",
          "name": "accounts",
          "type": "address[]"
        },
        {
          "internalType": "contract IERC721[]",
          "name": "contracts",
          "type": "address[]"
        },
        {
          "internalType": "uint256[]",
          "name": "tokenIds",
          "type": "uint256[]"
        }
      ],
      "name": "recoverERC721s",
      "outputs": [],
      "stateMutability": "nonpayable",
      "type": "function"
    },
    {
      "inputs": [
        {
          "internalType": "address payable[]",
          "name": "accounts",
          "type": "address[]"
        },
        {
          "internalType": "uint256[]",
          "name": "amounts",
          "type": "uint256[]"
        }
      ],
      "name": "recoverETH",
      "outputs": [],
      "stateMutability": "nonpayable",
      "type": "function"
    },
    {
      "inputs": [],
      "name": "reward",
      "outputs": [
        {
          "internalType": "uint256",
          "name": "",
          "type": "uint256"
        }
      ],
      "stateMutability": "view",
      "type": "function"
    },
    {
      "inputs": [
        {
          "internalType": "uint256",
          "name": "newCommissionRate",
          "type": "uint256"
        }
      ],
      "name": "setCommissionRate",
      "outputs": [],
      "stateMutability": "nonpayable",
      "type": "function"
    },
    {
      "inputs": [
        {
          "internalType": "address",
          "name": "signer",
          "type": "address"
        }
      ],
      "name": "setMessageSigner",
      "outputs": [],
      "stateMutability": "nonpayable",
      "type": "function"
    },
    {
      "inputs": [
        {
          "internalType": "address payable",
          "name": "newPayoutWallet",
          "type": "address"
        }
      ],
      "name": "setPayoutWallet",
      "outputs": [],
      "stateMutability": "nonpayable",
      "type": "function"
    },
    {
      "inputs": [
        {
          "internalType": "bytes4",
          "name": "interfaceId",
          "type": "bytes4"
        }
      ],
      "name": "supportsInterface",
      "outputs": [
        {
          "internalType": "bool",
          "name": "",
          "type": "bool"
        }
      ],
      "stateMutability": "view",
      "type": "function"
    },
    {
      "inputs": [
        {
          "internalType": "address",
          "name": "newOwner",
          "type": "address"
        }
      ],
      "name": "transferOwnership",
      "outputs": [],
      "stateMutability": "nonpayable",
      "type": "function"
    }
  ],
  "bytecode": "0x61024060405234801561001157600080fd5b5060405161328738038061328783398101604081905261003091610553565b8080888a33604051806040016040528060058152602001644172656e6160d81b815250604051806040016040528060038152602001620312e360ec1b81525061008360008361020c60201b90919060201c565b6101205261009281600161020c565b61014052815160208084019190912060e052815190820120610100524660a05261011f60e05161010051604080517f8b73c3c69bb8fe3d512ecc4cf759cc79239f7b179b0ffacaa9a75d522b39400f60208201529081019290925260608201524660808201523060a082015260009060c00160405160208183030381529060405280519060200120905090565b60805250503060c05261013a8161013461023f565b9061026d565b50600280546001600160a01b0319166001600160a01b0383169081179091556040519081527f66b8dbbd7f4a59921c0e0f594b6fb8434e778851611f323b7c3d00d07a74b1209060200160405180910390a15061019f816101996102e3565b90610311565b506001600160a01b0316610160525060008a90036101d057604051634dfba02360e01b815260040160405180910390fd5b6102208a90526101df8961031b565b506001600160a01b0390941661020052610180929092526101a0526101c0526101e0525061085792505050565b600060208351101561022857610221836103fa565b9050610239565b8161023384826106a9565b5060ff90505b92915050565b60008061023960017fc9ed16f33ab3a66c84bfd83099ccb2a8845871e2e1c1928f63797152f0fd54cd61077d565b6001600160a01b038116156102c35781546001600160a01b0319166001600160a01b03821690811783556040516000907f8be0079c531659141344cd1fd0a4f28419497f9722a3daafe3b4186f6b6457e0908290a35b6102df6307f5828d60e41b60016102d8610438565b9190610466565b5050565b60008061023960017f4fb5f8cdfbce77f22b0931a39e9f476a60a0f66524b2f379e96485471eb700ae61077d565b6102df82826104c2565b600061022051600261032d9190610790565b9050600082156103b35761271080841061036257604051633e13fd7160e11b8152600481018590526024015b60405180910390fd5b8061036d8585610790565b61037791906107bd565b91506103846002836107d1565b156103a557604051633e13fd7160e11b815260048101859052602401610359565b6103af828461077d565b9250505b6004839055600581905560068290556040518381527f2377da1065ac38e2a730070d5b9dd08aa697ba49f4b41e3dee80ab5cc06099019060200160405180910390a1505050565b600080829050601f81511115610425578260405163305a27a960e01b815260040161035991906107e5565b805161043082610833565b179392505050565b60008061023960017fca9d3e17f264b0f3984e2634e94adb37fa3e6a8103f06aeae6fa59e21c769f5e61077d565b600160e01b6001600160e01b0319831601610494576040516372c683bb60e01b815260040160405180910390fd5b6001600160e01b03199190911660009081526020929092526040909120805460ff1916911515919091179055565b6001600160a01b0381166104e9576040516340b539cf60e01b815260040160405180910390fd5b81546001600160a01b0319166001600160a01b03821690811783556040519081527fdd880d24a789958a6398c99c2e54ce31bc10a638cbc42f7dd34285479ae0f8559060200160405180910390a15050565b6001600160a01b038116811461055057600080fd5b50565b6000806000806000806000806000806101408b8d03121561057357600080fd5b8a5160208c015160408d0151919b50995061058d8161053b565b60608c015190985061059e8161053b565b60808c01519097506105af8161053b565b80965050600060a08c0151905080955050600060c08c0151905080945050600060e08c015190508093505060006101008c01519050809250506101208b01516105f78161053b565b809150509295989b9194979a5092959850565b634e487b7160e01b600052604160045260246000fd5b600181811c9082168061063457607f821691505b60208210810361065457634e487b7160e01b600052602260045260246000fd5b50919050565b601f8211156106a457806000526020600020601f840160051c810160208510156106815750805b601f840160051c820191505b818110156106a1576000815560010161068d565b50505b505050565b81516001600160401b038111156106c2576106c261060a565b6106d6816106d08454610620565b8461065a565b6020601f82116001811461070a57600083156106f25750848201515b600019600385901b1c1916600184901b1784556106a1565b600084815260208120601f198516915b8281101561073a578785015182556020948501946001909201910161071a565b50848210156107585786840151600019600387901b60f8161c191681555b50505050600190811b01905550565b634e487b7160e01b600052601160045260246000fd5b8181038181111561023957610239610767565b808202811582820484141761023957610239610767565b634e487b7160e01b600052601260045260246000fd5b6000826107cc576107cc6107a7565b500490565b6000826107e0576107e06107a7565b500690565b602081526000825180602084015260005b8181101561081357602081860181015160408684010152016107f6565b506000604082850101526040601f19601f83011684010191505092915050565b805160208083015191908110156106545760001960209190910360031b1b16919050565b60805160a05160c05160e05161010051610120516101405161016051610180516101a0516101c0516101e05161020051610220516129206109676000396000818161048f0152818161055d0152610e3f015260008181610399015281816105a9015281816106a80152818161084e0152818161091c0152610ab9015260008181610468015261075901526000818161034c0152818161082501526108f60152600081816102720152610a9001526000818161042e015261058301526000818161029f015281816103010152818161195101526119df015260006114920152600061146501526000611e1b01526000611df301526000611d4e01526000611d7801526000611da201526129206000f3fe608060405234801561001057600080fd5b50600436106101b85760003560e01c80636b8f9c43116100f9578063c3666c3611610097578063f2fde38b11610071578063f2fde38b14610450578063f6a45cd014610463578063f6d361cc1461048a578063f7ba94bd146104b157600080fd5b8063c3666c361461040d578063e148919114610420578063eb9523231461042957600080fd5b80638488bb4e116100d35780638488bb4e146103bb57806384b0196e146103c35780638da5cb5b146103de578063a51f054e146103e657600080fd5b80636b8f9c431461036e57806373c8a958146103815780637f6e42811461039457600080fd5b80632b4c9f16116101665780634d717e60116101405780634d717e60146102de578063572b6c05146102f15780635ea1d6f81461033e57806364c5384d1461034757600080fd5b80632b4c9f161461029d5780634ae83719146102c35780634b36df53146102cb57600080fd5b806319fac8fd1161019757806319fac8fd146102585780631c7a2bd11461026d578063228cb7331461029457600080fd5b806220d939146101bd57806301ffc9a7146101f0578063080387b414610213575b600080fd5b6101dd6101cb366004612289565b60036020526000908152604090205481565b6040519081526020015b60405180910390f35b6102036101fe3660046122a6565b6104c4565b60405190151581526020016101e7565b6002546102339073ffffffffffffffffffffffffffffffffffffffff1681565b60405173ffffffffffffffffffffffffffffffffffffffff90911681526020016101e7565b61026b6102663660046122e8565b6104de565b005b6101dd7f000000000000000000000000000000000000000000000000000000000000000081565b6101dd60065481565b7f0000000000000000000000000000000000000000000000000000000000000000610233565b61026b610503565b61026b6102d9366004612289565b610608565b61026b6102ec366004612301565b61068c565b6102036102ff366004612289565b7f000000000000000000000000000000000000000000000000000000000000000073ffffffffffffffffffffffffffffffffffffffff90811691161490565b6101dd60045481565b6101dd7f000000000000000000000000000000000000000000000000000000000000000081565b61026b61037c366004612289565b610b74565b61026b61038f366004612407565b610b91565b6102337f000000000000000000000000000000000000000000000000000000000000000081565b610233610bb2565b6103cb610bc4565b6040516101e7979695949392919061251b565b610233610c26565b6101dd7f41d3c412792afe3502c61d7887e9d9d833c12de3149ac85d69058c8586f6347081565b61026b61041b366004612407565b610c33565b6101dd60055481565b6101dd7f000000000000000000000000000000000000000000000000000000000000000081565b61026b61045e366004612289565b610c4c565b6101dd7f000000000000000000000000000000000000000000000000000000000000000081565b6101dd7f000000000000000000000000000000000000000000000000000000000000000081565b61026b6104bf3660046125dc565b610c67565b60006104d8826104d2610c84565b90610cb2565b92915050565b6104f76104e9610d8c565b6104f1610d96565b90610dc4565b61050081610e38565b50565b600061050d610d8c565b905061051881610f5f565b6040517f212aac7900000000000000000000000000000000000000000000000000000000815273ffffffffffffffffffffffffffffffffffffffff82811660048301527f000000000000000000000000000000000000000000000000000000000000000060248301527f000000000000000000000000000000000000000000000000000000000000000060448301527f0000000000000000000000000000000000000000000000000000000000000000169063212aac7990606401600060405180830381600087803b1580156105ed57600080fd5b505af1158015610601573d6000803e3d6000fd5b5050505050565b6106136104e9610d8c565b600280547fffffffffffffffffffffffff00000000000000000000000000000000000000001673ffffffffffffffffffffffffffffffffffffffff83169081179091556040519081527f66b8dbbd7f4a59921c0e0f594b6fb8434e778851611f323b7c3d00d07a74b1209060200160405180910390a150565b61069a868686868686611025565b60055460065481156107b3577f000000000000000000000000000000000000000000000000000000000000000073ffffffffffffffffffffffffffffffffffffffff166326b3293f6107076106ed61128b565b5473ffffffffffffffffffffffffffffffffffffffff1690565b6040517fffffffff0000000000000000000000000000000000000000000000000000000060e084901b16815273ffffffffffffffffffffffffffffffffffffffff9091166004820152602481018590527f00000000000000000000000000000000000000000000000000000000000000006044820152606401600060405180830381600087803b15801561079a57600080fd5b505af11580156107ae573d6000803e3d6000fd5b505050505b60028560028111156107c7576107c761264d565b03610a225760006107d96002836126da565b6040517f26b3293f00000000000000000000000000000000000000000000000000000000815273ffffffffffffffffffffffffffffffffffffffff8a81166004830152602482018390527f000000000000000000000000000000000000000000000000000000000000000060448301529192507f0000000000000000000000000000000000000000000000000000000000000000909116906326b3293f90606401600060405180830381600087803b15801561089457600080fd5b505af11580156108a8573d6000803e3d6000fd5b50506040517f26b3293f00000000000000000000000000000000000000000000000000000000815273ffffffffffffffffffffffffffffffffffffffff8a81166004830152602482018590527f000000000000000000000000000000000000000000000000000000000000000060448301527f00000000000000000000000000000000000000000000000000000000000000001692506326b3293f9150606401600060405180830381600087803b15801561096257600080fd5b505af1158015610976573d6000803e3d6000fd5b50505050888873ffffffffffffffffffffffffffffffffffffffff167f0733dbb1b7864ea8abcea54657d9fc322605c9a44f8733d80e4edb6d61b999bb836040516109c391815260200190565b60405180910390a3888773ffffffffffffffffffffffffffffffffffffffff167f0733dbb1b7864ea8abcea54657d9fc322605c9a44f8733d80e4edb6d61b999bb83604051610a1491815260200190565b60405180910390a350610b6a565b600080866002811115610a3757610a3761264d565b14610a425786610a44565b875b6040517f26b3293f00000000000000000000000000000000000000000000000000000000815273ffffffffffffffffffffffffffffffffffffffff8083166004830152602482018590527f000000000000000000000000000000000000000000000000000000000000000060448301529192507f0000000000000000000000000000000000000000000000000000000000000000909116906326b3293f90606401600060405180830381600087803b158015610aff57600080fd5b505af1158015610b13573d6000803e3d6000fd5b50505050888173ffffffffffffffffffffffffffffffffffffffff167f0733dbb1b7864ea8abcea54657d9fc322605c9a44f8733d80e4edb6d61b999bb84604051610b6091815260200190565b60405180910390a3505b5050505050505050565b610b7f6104e9610d8c565b61050081610b8b61128b565b906112b9565b610b9c6104e9610d8c565b610baa86868686868661137d565b505050505050565b6000610bbf6106ed61128b565b905090565b600060608060008060006060610bd861145e565b610be061148b565b604080516000808252602082019092527f0f000000000000000000000000000000000000000000000000000000000000009b939a50919850469750309650945092509050565b6000610bbf6106ed610d96565b610c3e6104e9610d8c565b610baa8686868686866114b8565b610500610c57610d8c565b82610c60610d96565b919061174e565b610c726104e9610d8c565b610c7e84848484611862565b50505050565b6000806104d860017fca9d3e17f264b0f3984e2634e94adb37fa3e6a8103f06aeae6fa59e21c769f5e6126ee565b60007c01000000000000000000000000000000000000000000000000000000007fffffffff00000000000000000000000000000000000000000000000000000000831601610d02575060006104d8565b7ffe003659000000000000000000000000000000000000000000000000000000007fffffffff00000000000000000000000000000000000000000000000000000000831601610d53575060016104d8565b507fffffffff00000000000000000000000000000000000000000000000000000000166000908152602091909152604090205460ff1690565b6000610bbf61190e565b6000806104d860017fc9ed16f33ab3a66c84bfd83099ccb2a8845871e2e1c1928f63797152f0fd54cd6126ee565b815473ffffffffffffffffffffffffffffffffffffffff828116911614610e34576040517f2ef4875e00000000000000000000000000000000000000000000000000000000815273ffffffffffffffffffffffffffffffffffffffff821660048201526024015b60405180910390fd5b5050565b6000610e657f00000000000000000000000000000000000000000000000000000000000000006002612701565b905060008215610f1857612710808410610eae576040517f7c27fae200000000000000000000000000000000000000000000000000000000815260048101859052602401610e2b565b80610eb98585612701565b610ec391906126da565b9150610ed0600283612718565b15610f0a576040517f7c27fae200000000000000000000000000000000000000000000000000000000815260048101859052602401610e2b565b610f1482846126ee565b9250505b6004839055600581905560068290556040518381527f2377da1065ac38e2a730070d5b9dd08aa697ba49f4b41e3dee80ab5cc06099019060200160405180910390a1505050565b73ffffffffffffffffffffffffffffffffffffffff811660009081526003602052604090205415610fd4576040517f301eda9600000000000000000000000000000000000000000000000000000000815273ffffffffffffffffffffffffffffffffffffffff82166004820152602401610e2b565b73ffffffffffffffffffffffffffffffffffffffff8116600081815260036020526040808220429055517f131f3edc3bd512c7b34906feb3cdacf9e893076fbb713603ff86294f0ddd28ca9190a250565b73ffffffffffffffffffffffffffffffffffffffff85166000908152600360205260408120549081900361109d576040517f2da4098c00000000000000000000000000000000000000000000000000000000815273ffffffffffffffffffffffffffffffffffffffff87166004820152602401610e2b565b73ffffffffffffffffffffffffffffffffffffffff851660009081526003602052604081205490819003611115576040517f2da4098c00000000000000000000000000000000000000000000000000000000815273ffffffffffffffffffffffffffffffffffffffff87166004820152602401610e2b565b60006111727f41d3c412792afe3502c61d7887e9d9d833c12de3149ac85d69058c8586f634708a8a8a87878c6040516020016111579796959493929190612767565b60405160208183030381529060405280519060200120611a5b565b600254604080516020601f89018190048102820181019092528781529293506000926111d29273ffffffffffffffffffffffffffffffffffffffff16918591908a908a9081908401838280828437600092019190915250611aa392505050565b90508061120b576040517f8baa579f00000000000000000000000000000000000000000000000000000000815260040160405180910390fd5b73ffffffffffffffffffffffffffffffffffffffff808a16600081815260036020526040808220829055928b168082528382209190915591518c907fa41446c5ad98f98e4d30afa277dbb496694229533065ee6b8fc00f57f97f230a9061127790899089908e906127d5565b60405180910390a450505050505050505050565b6000806104d860017f4fb5f8cdfbce77f22b0931a39e9f476a60a0f66524b2f379e96485471eb700ae6126ee565b73ffffffffffffffffffffffffffffffffffffffff8116611306576040517f40b539cf00000000000000000000000000000000000000000000000000000000815260040160405180910390fd5b81547fffffffffffffffffffffffff00000000000000000000000000000000000000001673ffffffffffffffffffffffffffffffffffffffff821690811783556040519081527fdd880d24a789958a6398c99c2e54ce31bc10a638cbc42f7dd34285479ae0f8559060200160405180910390a15050565b84838114158061138d5750808214155b156113c4576040517f6582533600000000000000000000000000000000000000000000000000000000815260040160405180910390fd5b60005b81811015610b6a576114568888838181106113e4576113e46127f8565b90506020020160208101906113f99190612289565b85858481811061140b5761140b6127f8565b90506020020135888885818110611424576114246127f8565b90506020020160208101906114399190612289565b73ffffffffffffffffffffffffffffffffffffffff169190611b41565b6001016113c7565b6060610bbf7f00000000000000000000000000000000000000000000000000000000000000006000611bd3565b6060610bbf7f00000000000000000000000000000000000000000000000000000000000000006001611bd3565b8483811415806114c85750808214155b156114ff576040517f6582533600000000000000000000000000000000000000000000000000000000815260040160405180910390fd5b60005b81811015610b6a57600086868381811061151e5761151e6127f8565b90506020020160208101906115339190612289565b6040517f01ffc9a70000000000000000000000000000000000000000000000000000000081527f80ac58cd00000000000000000000000000000000000000000000000000000000600482015290915073ffffffffffffffffffffffffffffffffffffffff8216906301ffc9a790602401602060405180830381865afa1580156115c0573d6000803e3d6000fd5b505050506040513d601f19601f820116820180604052508101906115e49190612827565b611632576040517f986b9f1f00000000000000000000000000000000000000000000000000000000815273ffffffffffffffffffffffffffffffffffffffff82166004820152602401610e2b565b868683818110611644576116446127f8565b90506020020160208101906116599190612289565b73ffffffffffffffffffffffffffffffffffffffff166342842e0e308b8b86818110611687576116876127f8565b905060200201602081019061169c9190612289565b8888878181106116ae576116ae6127f8565b6040517fffffffff0000000000000000000000000000000000000000000000000000000060e088901b16815273ffffffffffffffffffffffffffffffffffffffff958616600482015294909316602485015250602090910201356044820152606401600060405180830381600087803b15801561172a57600080fd5b505af115801561173e573d6000803e3d6000fd5b5050505050806001019050611502565b825473ffffffffffffffffffffffffffffffffffffffff90811690831681146117bb576040517f2ef4875e00000000000000000000000000000000000000000000000000000000815273ffffffffffffffffffffffffffffffffffffffff84166004820152602401610e2b565b8173ffffffffffffffffffffffffffffffffffffffff168173ffffffffffffffffffffffffffffffffffffffff1614610c7e5783547fffffffffffffffffffffffff00000000000000000000000000000000000000001673ffffffffffffffffffffffffffffffffffffffff8381169182178655604051908316907f8be0079c531659141344cd1fd0a4f28419497f9722a3daafe3b4186f6b6457e090600090a350505050565b8281811461189c576040517f6582533600000000000000000000000000000000000000000000000000000000815260040160405180910390fd5b60005b81811015610baa576119068484838181106118bc576118bc6127f8565b905060200201358787848181106118d5576118d56127f8565b90506020020160208101906118ea9190612289565b73ffffffffffffffffffffffffffffffffffffffff1690611c7e565b60010161189f565b60003332148061191e5750601836105b1561192857503390565b7fffffffffffffffffffffffffffffffffffffffffffffffffffffffffffffffec36013560601c7f000000000000000000000000000000000000000000000000000000000000000073ffffffffffffffffffffffffffffffffffffffff16331480611a4a57506040517f019a202800000000000000000000000000000000000000000000000000000000815273ffffffffffffffffffffffffffffffffffffffff82811660048301523360248301523060448301527f0000000000000000000000000000000000000000000000000000000000000000169063019a202890606401602060405180830381865afa158015611a26573d6000803e3d6000fd5b505050506040513d601f19601f82011682018060405250810190611a4a9190612827565b15611a5457919050565b3391505090565b60006104d8611a68611d34565b836040517f19010000000000000000000000000000000000000000000000000000000000008152600281019290925260228201526042902090565b60008373ffffffffffffffffffffffffffffffffffffffff163b600003611b2c57600080611ad18585611e6c565b5090925090506000816003811115611aeb57611aeb61264d565b148015611b2357508573ffffffffffffffffffffffffffffffffffffffff168273ffffffffffffffffffffffffffffffffffffffff16145b92505050611b3a565b611b37848484611eb9565b90505b9392505050565b6040805173ffffffffffffffffffffffffffffffffffffffff8416602482015260448082018490528251808303909101815260649091019091526020810180517bffffffffffffffffffffffffffffffffffffffffffffffffffffffff167fa9059cbb00000000000000000000000000000000000000000000000000000000179052611bce908490612007565b505050565b606060ff8314611bed57611be6836120ab565b90506104d8565b818054611bf990612849565b80601f0160208091040260200160405190810160405280929190818152602001828054611c2590612849565b8015611c725780601f10611c4757610100808354040283529160200191611c72565b820191906000526020600020905b815481529060010190602001808311611c5557829003601f168201915b505050505090506104d8565b80471015611cc1576040517fcf47918100000000000000000000000000000000000000000000000000000000815247600482015260248101829052604401610e2b565b6000808373ffffffffffffffffffffffffffffffffffffffff168360405160006040518083038185875af1925050503d8060008114611d1c576040519150601f19603f3d011682016040523d82523d6000602084013e611d21565b606091505b509150915081610c7e57610c7e816120ea565b60003073ffffffffffffffffffffffffffffffffffffffff7f000000000000000000000000000000000000000000000000000000000000000016148015611d9a57507f000000000000000000000000000000000000000000000000000000000000000046145b15611dc457507f000000000000000000000000000000000000000000000000000000000000000090565b610bbf604080517f8b73c3c69bb8fe3d512ecc4cf759cc79239f7b179b0ffacaa9a75d522b39400f60208201527f0000000000000000000000000000000000000000000000000000000000000000918101919091527f000000000000000000000000000000000000000000000000000000000000000060608201524660808201523060a082015260009060c00160405160208183030381529060405280519060200120905090565b60008060008351604103611ea65760208401516040850151606086015160001a611e988882858561212c565b955095509550505050611eb2565b50508151600091506002905b9250925092565b60008060008573ffffffffffffffffffffffffffffffffffffffff168585604051602401611ee892919061289c565b604080517fffffffffffffffffffffffffffffffffffffffffffffffffffffffffffffffe08184030181529181526020820180517bffffffffffffffffffffffffffffffffffffffffffffffffffffffff167f1626ba7e0000000000000000000000000000000000000000000000000000000017905251611f6991906128b5565b600060405180830381855afa9150503d8060008114611fa4576040519150601f19603f3d011682016040523d82523d6000602084013e611fa9565b606091505b5091509150818015611fbd57506020815110155b8015611ffd575080517f1626ba7e0000000000000000000000000000000000000000000000000000000090611ffb90830160209081019084016128d1565b145b9695505050505050565b600080602060008451602086016000885af18061202a576040513d6000823e3d81fd5b50506000513d9150811561204257806001141561205c565b73ffffffffffffffffffffffffffffffffffffffff84163b155b15610c7e576040517f5274afe700000000000000000000000000000000000000000000000000000000815273ffffffffffffffffffffffffffffffffffffffff85166004820152602401610e2b565b606060006120b883612226565b604080516020808252818301909252919250600091906020820181803683375050509182525060208101929092525090565b8051156120fa5780518082602001fd5b6040517fd6bda27500000000000000000000000000000000000000000000000000000000815260040160405180910390fd5b600080807f7fffffffffffffffffffffffffffffff5d576e7357a4501ddfe92f46681b20a0841115612167575060009150600390508261221c565b604080516000808252602082018084528a905260ff891692820192909252606081018790526080810186905260019060a0016020604051602081039080840390855afa1580156121bb573d6000803e3d6000fd5b50506040517fffffffffffffffffffffffffffffffffffffffffffffffffffffffffffffffe0015191505073ffffffffffffffffffffffffffffffffffffffff81166122125750600092506001915082905061221c565b9250600091508190505b9450945094915050565b600060ff8216601f8111156104d8576040517fb3512b0c00000000000000000000000000000000000000000000000000000000815260040160405180910390fd5b73ffffffffffffffffffffffffffffffffffffffff8116811461050057600080fd5b60006020828403121561229b57600080fd5b8135611b3a81612267565b6000602082840312156122b857600080fd5b81357fffffffff0000000000000000000000000000000000000000000000000000000081168114611b3a57600080fd5b6000602082840312156122fa57600080fd5b5035919050565b60008060008060008060a0878903121561231a57600080fd5b86359550602087013561232c81612267565b9450604087013561233c81612267565b935060608701356003811061235057600080fd5b9250608087013567ffffffffffffffff81111561236c57600080fd5b8701601f8101891361237d57600080fd5b803567ffffffffffffffff81111561239457600080fd5b8960208284010111156123a657600080fd5b60208201935080925050509295509295509295565b60008083601f8401126123cd57600080fd5b50813567ffffffffffffffff8111156123e557600080fd5b6020830191508360208260051b850101111561240057600080fd5b9250929050565b6000806000806000806060878903121561242057600080fd5b863567ffffffffffffffff81111561243757600080fd5b61244389828a016123bb565b909750955050602087013567ffffffffffffffff81111561246357600080fd5b61246f89828a016123bb565b909550935050604087013567ffffffffffffffff81111561248f57600080fd5b61249b89828a016123bb565b979a9699509497509295939492505050565b60005b838110156124c85781810151838201526020016124b0565b50506000910152565b600081518084526124e98160208601602086016124ad565b601f017fffffffffffffffffffffffffffffffffffffffffffffffffffffffffffffffe0169290920160200192915050565b7fff000000000000000000000000000000000000000000000000000000000000008816815260e06020820152600061255660e08301896124d1565b828103604084015261256881896124d1565b6060840188905273ffffffffffffffffffffffffffffffffffffffff8716608085015260a0840186905283810360c08501528451808252602080870193509091019060005b818110156125cb5783518352602093840193909201916001016125ad565b50909b9a5050505050505050505050565b600080600080604085870312156125f257600080fd5b843567ffffffffffffffff81111561260957600080fd5b612615878288016123bb565b909550935050602085013567ffffffffffffffff81111561263557600080fd5b612641878288016123bb565b95989497509550505050565b7f4e487b7100000000000000000000000000000000000000000000000000000000600052602160045260246000fd5b7f4e487b7100000000000000000000000000000000000000000000000000000000600052601260045260246000fd5b7f4e487b7100000000000000000000000000000000000000000000000000000000600052601160045260246000fd5b6000826126e9576126e961267c565b500490565b818103818111156104d8576104d86126ab565b80820281158282048414176104d8576104d86126ab565b6000826127275761272761267c565b500690565b60038110612763577f4e487b7100000000000000000000000000000000000000000000000000000000600052602160045260246000fd5b9052565b600060e08201905088825287602083015273ffffffffffffffffffffffffffffffffffffffff8716604083015273ffffffffffffffffffffffffffffffffffffffff861660608301528460808301528360a08301526127c960c083018461272c565b98975050505050505050565b83815260208101839052606081016127f0604083018461272c565b949350505050565b7f4e487b7100000000000000000000000000000000000000000000000000000000600052603260045260246000fd5b60006020828403121561283957600080fd5b81518015158114611b3a57600080fd5b600181811c9082168061285d57607f821691505b602082108103612896577f4e487b7100000000000000000000000000000000000000000000000000000000600052602260045260246000fd5b50919050565b8281526040602082015260006127f060408301846124d1565b600082516128c78184602087016124ad565b9190910192915050565b6000602082840312156128e357600080fd5b505191905056fea2646970667358221220cbea1711710eca7c2f94aee74592e42fd84208e3a73b60e1bb476d691dba122e64736f6c634300081c0033",
  "linkReferences": {},
  "deployedLinkReferences": {}
}