{
  "_format": "hh-sol-artifact-1",
  "contractName": "PointsArena",
  "sourceName": "contracts/arena/PointsArena.sol",
  "abi": [
    {
      "inputs": [
        {
          "internalType": "uint256",
          "name": "entryFee",
          "type": "uint256"
        },
        {
          "internalType": "uint256",
          "name": "commissionRate_",
          "type": "uint256"
        },
        {
          "internalType": "address",
          "name": "messageSigner",
          "type": "address"
        },
        {
          "internalType": "address payable",
          "name": "payoutWallet",
          "type": "address"
        },
        {
          "internalType": "address",
          "name": "points",
          "type": "address"
        },
        {
          "internalType": "bytes32",
          "name": "consumeReasonCode",
          "type": "bytes32"
        },
        {
          "internalType": "bytes32",
          "name": "rewardReasonCode",
          "type": "bytes32"
        },
        {
          "internalType": "bytes32",
          "name": "refundReasonCode",
          "type": "bytes32"
        },
        {
          "internalType": "bytes32",
          "name": "commissionReasonCode",
          "type": "bytes32"
        },
        {
          "internalType": "contract IForwarderRegistry",
          "name": "forwarderRegistry",
          "type": "address"
        }
      ],
      "stateMutability": "nonpayable",
      "type": "constructor"
    },
    {
      "inputs": [
        {
          "internalType": "address",
          "name": "account",
          "type": "address"
        }
      ],
      "name": "AlreadyAdmitted",
      "type": "error"
    },
    {
      "inputs": [],
      "name": "FailedCall",
      "type": "error"
    },
    {
      "inputs": [],
      "name": "IllegalInterfaceId",
      "type": "error"
    },
    {
      "inputs": [],
      "name": "InconsistentArrayLengths",
      "type": "error"
    },
    {
      "inputs": [
        {
          "internalType": "address",
          "name": "tokenContract",
          "type": "address"
        }
      ],
      "name": "IncorrectTokenContractType",
      "type": "error"
    },
    {
      "inputs": [
        {
          "internalType": "uint256",
          "name": "balance",
          "type": "uint256"
        },
        {
          "internalType": "uint256",
          "name": "needed",
          "type": "uint256"
        }
      ],
      "name": "InsufficientBalance",
      "type": "error"
    },
    {
      "inputs": [
        {
          "internalType": "uint256",
          "name": "rate",
          "type": "uint256"
        }
      ],
      "name": "InvalidCommissionRate",
      "type": "error"
    },
    {
      "inputs": [],
      "name": "InvalidShortString",
      "type": "error"
    },
    {
      "inputs": [],
      "name": "InvalidSignature",
      "type": "error"
    },
    {
      "inputs": [
        {
          "internalType": "address",
          "name": "account",
          "type": "address"
        }
      ],
      "name": "NotContractOwner",
      "type": "error"
    },
    {
      "inputs": [
        {
          "internalType": "address",
          "name": "account",
          "type": "address"
        }
      ],
      "name": "PlayerNotAdmitted",
      "type": "error"
    },
    {
      "inputs": [
        {
          "internalType": "address",
          "name": "token",
          "type": "address"
        }
      ],
      "name": "SafeERC20FailedOperation",
      "type": "error"
    },
    {
      "inputs": [
        {
          "internalType": "string",
          "name": "str",
          "type": "string"
        }
      ],
      "name": "StringTooLong",
      "type": "error"
    },
    {
      "inputs": [],
      "name": "ZeroAddressPayoutWallet",
      "type": "error"
    },
    {
      "inputs": [],
      "name": "ZeroPrice",
      "type": "error"
    },
    {
      "anonymous": false,
      "inputs": [
        {
          "indexed": true,
          "internalType": "address",
          "name": "account",
          "type": "address"
        }
      ],
      "name": "Admission",
      "type": "event"
    },
    {
      "anonymous": false,
      "inputs": [
        {
          "indexed": false,
          "internalType": "uint256",
          "name": "rate",
          "type": "uint256"
        }
      ],
      "name": "CommissionRateSet",
      "type": "event"
    },
    {
      "anonymous": false,
      "inputs": [],
      "name": "EIP712DomainChanged",
      "type": "event"
    },
    {
      "anonymous": false,
      "inputs": [
        {
          "indexed": true,
          "internalType": "uint256",
          "name": "matchId",
          "type": "uint256"
        },
        {
          "indexed": true,
          "internalType": "address",
          "name": "player1",
          "type": "address"
        },
        {
          "indexed": true,
          "internalType": "address",
          "name": "player2",
          "type": "address"
        },
        {
          "indexed": false,
          "internalType": "enum ArenaBase.MatchResult",
          "name": "result",
          "type": "uint8"
        }
      ],
      "name": "MatchCompleted",
      "type": "event"
    },
    {
      "anonymous": false,
      "inputs": [
        {
          "indexed": false,
          "internalType": "address",
          "name": "signer",
          "type": "address"
        }
      ],
      "name": "MessageSignerSet",
      "type": "event"
    },
    {
      "anonymous": false,
      "inputs": [
        {
          "indexed": true,
          "internalType": "address",
          "name": "previousOwner",
          "type": "address"
        },
        {
          "indexed": true,
          "internalType": "address",
          "name": "newOwner",
          "type": "address"
        }
      ],
      "name": "OwnershipTransferred",
      "type": "event"
    },
    {
      "anonymous": false,
      "inputs": [
        {
          "indexed": true,
          "internalType": "address",
          "name": "account",
          "type": "address"
        },
        {
          "indexed": true,
          "internalType": "uint256",
          "name": "matchId",
          "type": "uint256"
        },
        {
          "indexed": false,
          "internalType": "uint256",
          "name": "amount",
          "type": "uint256"
        }
      ],
      "name": "PayoutDelivered",
      "type": "event"
    },
    {
      "anonymous": false,
      "inputs": [
        {
          "indexed": false,
          "internalType": "address",
          "name": "payoutWallet",
          "type": "address"
        }
      ],
      "name": "PayoutWalletSet",
      "type": "event"
    },
    {
      "inputs": [],
      "name": "COMMISSION_REASON_CODE",
      "outputs": [
        {
          "internalType": "bytes32",
          "name": "",
          "type": "bytes32"
        }
      ],
      "stateMutability": "view",
      "type": "function"
    },
    {
      "inputs": [],
      "name": "COMPLETE_MATCH_TYPEHASH",
      "outputs": [
        {
          "internalType": "bytes32",
          "name": "",
          "type": "bytes32"
        }
      ],
      "stateMutability": "view",
      "type": "function"
    },
    {
      "inputs": [],
      "name": "CONSUME_REASON_CODE",
      "outputs": [
        {
          "internalType": "bytes32",
          "name": "",
          "type": "bytes32"
        }
      ],
      "stateMutability": "view",
      "type": "function"
    },
    {
      "inputs": [],
      "name": "ENTRY_FEE",
      "outputs": [
        {
          "internalType": "uint256",
          "name": "",
          "type": "uint256"
        }
      ],
      "stateMutability": "view",
      "type": "function"
    },
    {
      "inputs": [],
      "name": "POINTS",
      "outputs": [
        {
          "internalType": "contract IPointsSpender",
          "name": "",
          "type": "address"
        }
      ],
      "stateMutability": "view",
      "type": "function"
    },
    {
      "inputs": [],
      "name": "REFUND_REASON_CODE",
      "outputs": [
        {
          "internalType": "bytes32",
          "name": "",
          "type": "bytes32"
        }
      ],
      "stateMutability": "view",
      "type": "function"
    },
    {
      "inputs": [],
      "name": "REWARD_REASON_CODE",
      "outputs": [
        {
          "internalType": "bytes32",
          "name": "",
          "type": "bytes32"
        }
      ],
      "stateMutability": "view",
      "type": "function"
    },
    {
      "inputs": [],
      "name": "admit",
      "outputs": [],
      "stateMutability": "nonpayable",
      "type": "function"
    },
    {
      "inputs": [
        {
          "internalType": "address",
          "name": "account",
          "type": "address"
        }
      ],
      "name": "admitted",
      "outputs": [
        {
          "internalType": "bool",
          "name": "admitted",
          "type": "bool"
        }
      ],
      "stateMutability": "view",
      "type": "function"
    },
    {
      "inputs": [],
      "name": "commission",
      "outputs": [
        {
          "internalType": "uint256",
          "name": "",
          "type": "uint256"
        }
      ],
      "stateMutability": "view",
      "type": "function"
    },
    {
      "inputs": [],
      "name": "commissionRate",
      "outputs": [
        {
          "internalType": "uint256",
          "name": "",
          "type": "uint256"
        }
      ],
      "stateMutability": "view",
      "type": "function"
    },
    {
      "inputs": [
        {
          "internalType": "uint256",
          "name": "matchId",
          "type": "uint256"
        },
        {
          "internalType": "address",
          "name": "player1",
          "type": "address"
        },
        {
          "internalType": "address",
          "name": "player2",
          "type": "address"
        },
        {
          "internalType": "enum ArenaBase.MatchResult",
          "name": "result",
          "type": "uint8"
        },
        {
          "internalType": "bytes",
          "name": "signature",
          "type": "bytes"
        }
      ],
      "name": "completeMatch",
      "outputs": [],
      "stateMutability": "nonpayable",
      "type": "function"
    },
    {
      "inputs": [],
      "name": "eip712Domain",
      "outputs": [
        {
          "internalType": "bytes1",
          "name": "fields",
          "type": "bytes1"
        },
        {
          "internalType": "string",
          "name": "name",
          "type": "string"
        },
        {
          "internalType": "string",
          "name": "version",
          "type": "string"
        },
        {
          "internalType": "uint256",
          "name": "chainId",
          "type": "uint256"
        },
        {
          "internalType": "address",
          "name": "verifyingContract",
          "type": "address"
        },
        {
          "internalType": "bytes32",
          "name": "salt",
          "type": "bytes32"
        },
        {
          "internalType": "uint256[]",
          "name": "extensions",
          "type": "uint256[]"
        }
      ],
      "stateMutability": "view",
      "type": "function"
    },
    {
      "inputs": [],
      "name": "forwarderRegistry",
      "outputs": [
        {
          "internalType": "contract IForwarderRegistry",
          "name": "",
          "type": "address"
        }
      ],
      "stateMutability": "view",
      "type": "function"
    },
    {
      "inputs": [
        {
          "internalType": "address",
          "name": "forwarder",
          "type": "address"
        }
      ],
      "name": "isTrustedForwarder",
      "outputs": [
        {
          "internalType": "bool",
          "name": "",
          "type": "bool"
        }
      ],
      "stateMutability": "view",
      "type": "function"
    },
    {
      "inputs": [],
      "name": "messageSigner",
      "outputs": [
        {
          "internalType": "address",
          "name": "",
          "type": "address"
        }
      ],
      "stateMutability": "view",
      "type": "function"
    },
    {
      "inputs": [],
      "name": "owner",
      "outputs": [
        {
          "internalType": "address",
          "name": "",
          "type": "address"
        }
      ],
      "stateMutability": "view",
      "type": "function"
    },
    {
      "inputs": [],
      "name": "payoutWallet",
      "outputs": [
        {
          "internalType": "address payable",
          "name": "wallet",
          "type": "address"
        }
      ],
      "stateMutability": "view",
      "type": "function"
    },
    {
      "inputs": [
        {
          "internalType": "address[]",
          "name": "accounts",
          "type": "address[]"
        },
        {
          "internalType": "contract IERC20[]",
          "name": "tokens",
          "type": "address[]"
        },
        {
          "internalType": "uint256[]",
          "name": "amounts",
          "type": "uint256[]"
        }
      ],
      "name": "recoverERC20s",
      "outputs": [],
      "stateMutability": "nonpayable",
      "type": "function"
    },
    {
      "inputs": [
        {
          "internalType": "address[]",
          "name": "accounts",
          "type": "address[]"
        },
        {
          "internalType": "contract IERC721[]",
          "name": "contracts",
          "type": "address[]"
        },
        {
          "internalType": "uint256[]",
          "name": "tokenIds",
          "type": "uint256[]"
        }
      ],
      "name": "recoverERC721s",
      "outputs": [],
      "stateMutability": "nonpayable",
      "type": "function"
    },
    {
      "inputs": [
        {
          "internalType": "address payable[]",
          "name": "accounts",
          "type": "address[]"
        },
        {
          "internalType": "uint256[]",
          "name": "amounts",
          "type": "uint256[]"
        }
      ],
      "name": "recoverETH",
      "outputs": [],
      "stateMutability": "nonpayable",
      "type": "function"
    },
    {
      "inputs": [],
      "name": "reward",
      "outputs": [
        {
          "internalType": "uint256",
          "name": "",
          "type": "uint256"
        }
      ],
      "stateMutability": "view",
      "type": "function"
    },
    {
      "inputs": [
        {
          "internalType": "uint256",
          "name": "newCommissionRate",
          "type": "uint256"
        }
      ],
      "name": "setCommissionRate",
      "outputs": [],
      "stateMutability": "nonpayable",
      "type": "function"
    },
    {
      "inputs": [
        {
          "internalType": "address",
          "name": "signer",
          "type": "address"
        }
      ],
      "name": "setMessageSigner",
      "outputs": [],
      "stateMutability": "nonpayable",
      "type": "function"
    },
    {
      "inputs": [
        {
          "internalType": "address payable",
          "name": "newPayoutWallet",
          "type": "address"
        }
      ],
      "name": "setPayoutWallet",
      "outputs": [],
      "stateMutability": "nonpayable",
      "type": "function"
    },
    {
      "inputs": [
        {
          "internalType": "bytes4",
          "name": "interfaceId",
          "type": "bytes4"
        }
      ],
      "name": "supportsInterface",
      "outputs": [
        {
          "internalType": "bool",
          "name": "",
          "type": "bool"
        }
      ],
      "stateMutability": "view",
      "type": "function"
    },
    {
      "inputs": [
        {
          "internalType": "address",
          "name": "newOwner",
          "type": "address"
        }
      ],
      "name": "transferOwnership",
      "outputs": [],
      "stateMutability": "nonpayable",
      "type": "function"
    }
  ],
  "bytecode": "0x61024060405234801561001157600080fd5b5060405161329a38038061329a83398101604081905261003091610553565b8080888a33604051806040016040528060058152602001644172656e6160d81b815250604051806040016040528060038152602001620312e360ec1b81525061008360008361020c60201b90919060201c565b6101205261009281600161020c565b61014052815160208084019190912060e052815190820120610100524660a05261011f60e05161010051604080517f8b73c3c69bb8fe3d512ecc4cf759cc79239f7b179b0ffacaa9a75d522b39400f60208201529081019290925260608201524660808201523060a082015260009060c00160405160208183030381529060405280519060200120905090565b60805250503060c05261013a8161013461023f565b9061026d565b50600280546001600160a01b0319166001600160a01b0383169081179091556040519081527f66b8dbbd7f4a59921c0e0f594b6fb8434e778851611f323b7c3d00d07a74b1209060200160405180910390a15061019f816101996102e3565b90610311565b506001600160a01b0316610160525060008a90036101d057604051634dfba02360e01b815260040160405180910390fd5b6102208a90526101df8961031b565b506001600160a01b0390941661020052610180929092526101a0526101c0526101e0525061085792505050565b600060208351101561022857610221836103fa565b9050610239565b8161023384826106a9565b5060ff90505b92915050565b60008061023960017fc9ed16f33ab3a66c84bfd83099ccb2a8845871e2e1c1928f63797152f0fd54cd61077d565b6001600160a01b038116156102c35781546001600160a01b0319166001600160a01b03821690811783556040516000907f8be0079c531659141344cd1fd0a4f28419497f9722a3daafe3b4186f6b6457e0908290a35b6102df6307f5828d60e41b60016102d8610438565b9190610466565b5050565b60008061023960017f4fb5f8cdfbce77f22b0931a39e9f476a60a0f66524b2f379e96485471eb700ae61077d565b6102df82826104c2565b600061022051600261032d9190610790565b9050600082156103b35761271080841061036257604051633e13fd7160e11b8152600481018590526024015b60405180910390fd5b8061036d8585610790565b61037791906107bd565b91506103846002836107d1565b156103a557604051633e13fd7160e11b815260048101859052602401610359565b6103af828461077d565b9250505b6004839055600581905560068290556040518381527f2377da1065ac38e2a730070d5b9dd08aa697ba49f4b41e3dee80ab5cc06099019060200160405180910390a1505050565b600080829050601f81511115610425578260405163305a27a960e01b815260040161035991906107e5565b805161043082610833565b179392505050565b60008061023960017fca9d3e17f264b0f3984e2634e94adb37fa3e6a8103f06aeae6fa59e21c769f5e61077d565b600160e01b6001600160e01b0319831601610494576040516372c683bb60e01b815260040160405180910390fd5b6001600160e01b03199190911660009081526020929092526040909120805460ff1916911515919091179055565b6001600160a01b0381166104e9576040516340b539cf60e01b815260040160405180910390fd5b81546001600160a01b0319166001600160a01b03821690811783556040519081527fdd880d24a789958a6398c99c2e54ce31bc10a638cbc42f7dd34285479ae0f8559060200160405180910390a15050565b6001600160a01b038116811461055057600080fd5b50565b6000806000806000806000806000806101408b8d03121561057357600080fd5b8a5160208c015160408d0151919b50995061058d8161053b565b60608c015190985061059e8161053b565b60808c01519097506105af8161053b565b80965050600060a08c0151905080955050600060c08c0151905080945050600060e08c015190508093505060006101008c01519050809250506101208b01516105f78161053b565b809150509295989b9194979a5092959850565b634e487b7160e01b600052604160045260246000fd5b600181811c9082168061063457607f821691505b60208210810361065457634e487b7160e01b600052602260045260246000fd5b50919050565b601f8211156106a457806000526020600020601f840160051c810160208510156106815750805b601f840160051c820191505b818110156106a1576000815560010161068d565b50505b505050565b81516001600160401b038111156106c2576106c261060a565b6106d6816106d08454610620565b8461065a565b6020601f82116001811461070a57600083156106f25750848201515b600019600385901b1c1916600184901b1784556106a1565b600084815260208120601f198516915b8281101561073a578785015182556020948501946001909201910161071a565b50848210156107585786840151600019600387901b60f8161c191681555b50505050600190811b01905550565b634e487b7160e01b600052601160045260246000fd5b8181038181111561023957610239610767565b808202811582820484141761023957610239610767565b634e487b7160e01b600052601260045260246000fd5b6000826107cc576107cc6107a7565b500490565b6000826107e0576107e06107a7565b500690565b602081526000825180602084015260005b8181101561081357602081860181015160408684010152016107f6565b506000604082850101526040601f19601f83011684010191505092915050565b805160208083015191908110156106545760001960209190910360031b1b16919050565b60805160a05160c05160e05161010051610120516101405161016051610180516101a0516101c0516101e051610200516102205161293361096760003960008181610492015281816105600152610e4201526000818161039c015281816105ac015281816106ab015281816108510152818161091f0152610abc01526000818161046b015261075c01526000818161034f0152818161082801526108f90152600081816102670152610a9301526000818161043101526105860152600081816102a201528181610304015281816119a00152611a2e015260006114e1015260006114b401526000611e6a01526000611e4201526000611d9d01526000611dc701526000611df101526129336000f3fe608060405234801561001057600080fd5b50600436106101b85760003560e01c80636b8f9c43116100f9578063c3666c3611610097578063f2fde38b11610071578063f2fde38b14610453578063f6a45cd014610466578063f6d361cc1461048d578063f7ba94bd146104b457600080fd5b8063c3666c3614610410578063e148919114610423578063eb9523231461042c57600080fd5b80638488bb4e116100d35780638488bb4e146103be57806384b0196e146103c65780638da5cb5b146103e1578063a51f054e146103e957600080fd5b80636b8f9c431461037157806373c8a958146103845780637f6e42811461039757600080fd5b80632b4c9f16116101665780634d717e60116101405780634d717e60146102e1578063572b6c05146102f45780635ea1d6f81461034157806364c5384d1461034a57600080fd5b80632b4c9f16146102a05780634ae83719146102c65780634b36df53146102ce57600080fd5b806319fac8fd1161019757806319fac8fd1461024d5780631c7a2bd114610262578063228cb7331461029757600080fd5b806220d939146101bd57806301ffc9a7146101f5578063080387b414610208575b600080fd5b6101e06101cb3660046122d8565b60036020526000908152604090205460ff1681565b60405190151581526020015b60405180910390f35b6101e06102033660046122f5565b6104c7565b6002546102289073ffffffffffffffffffffffffffffffffffffffff1681565b60405173ffffffffffffffffffffffffffffffffffffffff90911681526020016101ec565b61026061025b366004612337565b6104e1565b005b6102897f000000000000000000000000000000000000000000000000000000000000000081565b6040519081526020016101ec565b61028960065481565b7f0000000000000000000000000000000000000000000000000000000000000000610228565b610260610506565b6102606102dc3660046122d8565b61060b565b6102606102ef366004612350565b61068f565b6101e06103023660046122d8565b7f000000000000000000000000000000000000000000000000000000000000000073ffffffffffffffffffffffffffffffffffffffff90811691161490565b61028960045481565b6102897f000000000000000000000000000000000000000000000000000000000000000081565b61026061037f3660046122d8565b610b77565b610260610392366004612456565b610b94565b6102287f000000000000000000000000000000000000000000000000000000000000000081565b610228610bb5565b6103ce610bc7565b6040516101ec979695949392919061256a565b610228610c29565b6102897fe12d3c3bf86185c3c62596db61beac70fac0abaa4c5e36b0d87bbca1cfdd582881565b61026061041e366004612456565b610c36565b61028960055481565b6102897f000000000000000000000000000000000000000000000000000000000000000081565b6102606104613660046122d8565b610c4f565b6102897f000000000000000000000000000000000000000000000000000000000000000081565b6102897f000000000000000000000000000000000000000000000000000000000000000081565b6102606104c236600461262b565b610c6a565b60006104db826104d5610c87565b90610cb5565b92915050565b6104fa6104ec610d8f565b6104f4610d99565b90610dc7565b61050381610e3b565b50565b6000610510610d8f565b905061051b81610f62565b6040517f212aac7900000000000000000000000000000000000000000000000000000000815273ffffffffffffffffffffffffffffffffffffffff82811660048301527f000000000000000000000000000000000000000000000000000000000000000060248301527f000000000000000000000000000000000000000000000000000000000000000060448301527f0000000000000000000000000000000000000000000000000000000000000000169063212aac7990606401600060405180830381600087803b1580156105f057600080fd5b505af1158015610604573d6000803e3d6000fd5b5050505050565b6106166104ec610d8f565b600280547fffffffffffffffffffffffff00000000000000000000000000000000000000001673ffffffffffffffffffffffffffffffffffffffff83169081179091556040519081527f66b8dbbd7f4a59921c0e0f594b6fb8434e778851611f323b7c3d00d07a74b1209060200160405180910390a150565b61069d868686868686611055565b60055460065481156107b6577f000000000000000000000000000000000000000000000000000000000000000073ffffffffffffffffffffffffffffffffffffffff166326b3293f61070a6106f06112da565b5473ffffffffffffffffffffffffffffffffffffffff1690565b6040517fffffffff0000000000000000000000000000000000000000000000000000000060e084901b16815273ffffffffffffffffffffffffffffffffffffffff9091166004820152602481018590527f00000000000000000000000000000000000000000000000000000000000000006044820152606401600060405180830381600087803b15801561079d57600080fd5b505af11580156107b1573d6000803e3d6000fd5b505050505b60028560028111156107ca576107ca61269c565b03610a255760006107dc600283612729565b6040517f26b3293f00000000000000000000000000000000000000000000000000000000815273ffffffffffffffffffffffffffffffffffffffff8a81166004830152602482018390527f000000000000000000000000000000000000000000000000000000000000000060448301529192507f0000000000000000000000000000000000000000000000000000000000000000909116906326b3293f90606401600060405180830381600087803b15801561089757600080fd5b505af11580156108ab573d6000803e3d6000fd5b50506040517f26b3293f00000000000000000000000000000000000000000000000000000000815273ffffffffffffffffffffffffffffffffffffffff8a81166004830152602482018590527f000000000000000000000000000000000000000000000000000000000000000060448301527f00000000000000000000000000000000000000000000000000000000000000001692506326b3293f9150606401600060405180830381600087803b15801561096557600080fd5b505af1158015610979573d6000803e3d6000fd5b50505050888873ffffffffffffffffffffffffffffffffffffffff167f0733dbb1b7864ea8abcea54657d9fc322605c9a44f8733d80e4edb6d61b999bb836040516109c691815260200190565b60405180910390a3888773ffffffffffffffffffffffffffffffffffffffff167f0733dbb1b7864ea8abcea54657d9fc322605c9a44f8733d80e4edb6d61b999bb83604051610a1791815260200190565b60405180910390a350610b6d565b600080866002811115610a3a57610a3a61269c565b14610a455786610a47565b875b6040517f26b3293f00000000000000000000000000000000000000000000000000000000815273ffffffffffffffffffffffffffffffffffffffff8083166004830152602482018590527f000000000000000000000000000000000000000000000000000000000000000060448301529192507f0000000000000000000000000000000000000000000000000000000000000000909116906326b3293f90606401600060405180830381600087803b158015610b0257600080fd5b505af1158015610b16573d6000803e3d6000fd5b50505050888173ffffffffffffffffffffffffffffffffffffffff167f0733dbb1b7864ea8abcea54657d9fc322605c9a44f8733d80e4edb6d61b999bb84604051610b6391815260200190565b60405180910390a3505b5050505050505050565b610b826104ec610d8f565b61050381610b8e6112da565b90611308565b610b9f6104ec610d8f565b610bad8686868686866113cc565b505050505050565b6000610bc26106f06112da565b905090565b600060608060008060006060610bdb6114ad565b610be36114da565b604080516000808252602082019092527f0f000000000000000000000000000000000000000000000000000000000000009b939a50919850469750309650945092509050565b6000610bc26106f0610d99565b610c416104ec610d8f565b610bad868686868686611507565b610503610c5a610d8f565b82610c63610d99565b919061179d565b610c756104ec610d8f565b610c81848484846118b1565b50505050565b6000806104db60017fca9d3e17f264b0f3984e2634e94adb37fa3e6a8103f06aeae6fa59e21c769f5e61273d565b60007c01000000000000000000000000000000000000000000000000000000007fffffffff00000000000000000000000000000000000000000000000000000000831601610d05575060006104db565b7ffe003659000000000000000000000000000000000000000000000000000000007fffffffff00000000000000000000000000000000000000000000000000000000831601610d56575060016104db565b507fffffffff00000000000000000000000000000000000000000000000000000000166000908152602091909152604090205460ff1690565b6000610bc261195d565b6000806104db60017fc9ed16f33ab3a66c84bfd83099ccb2a8845871e2e1c1928f63797152f0fd54cd61273d565b815473ffffffffffffffffffffffffffffffffffffffff828116911614610e37576040517f2ef4875e00000000000000000000000000000000000000000000000000000000815273ffffffffffffffffffffffffffffffffffffffff821660048201526024015b60405180910390fd5b5050565b6000610e687f00000000000000000000000000000000000000000000000000000000000000006002612750565b905060008215610f1b57612710808410610eb1576040517f7c27fae200000000000000000000000000000000000000000000000000000000815260048101859052602401610e2e565b80610ebc8585612750565b610ec69190612729565b9150610ed3600283612767565b15610f0d576040517f7c27fae200000000000000000000000000000000000000000000000000000000815260048101859052602401610e2e565b610f17828461273d565b9250505b6004839055600581905560068290556040518381527f2377da1065ac38e2a730070d5b9dd08aa697ba49f4b41e3dee80ab5cc06099019060200160405180910390a1505050565b73ffffffffffffffffffffffffffffffffffffffff811660009081526003602052604090205460ff161515600103610fde576040517f301eda9600000000000000000000000000000000000000000000000000000000815273ffffffffffffffffffffffffffffffffffffffff82166004820152602401610e2e565b73ffffffffffffffffffffffffffffffffffffffff811660008181526003602052604080822080547fffffffffffffffffffffffffffffffffffffffffffffffffffffffffffffff00166001179055517f131f3edc3bd512c7b34906feb3cdacf9e893076fbb713603ff86294f0ddd28ca9190a250565b73ffffffffffffffffffffffffffffffffffffffff851660009081526003602052604090205460ff166110cc576040517f2da4098c00000000000000000000000000000000000000000000000000000000815273ffffffffffffffffffffffffffffffffffffffff86166004820152602401610e2e565b73ffffffffffffffffffffffffffffffffffffffff841660009081526003602052604090205460ff16611143576040517f2da4098c00000000000000000000000000000000000000000000000000000000815273ffffffffffffffffffffffffffffffffffffffff85166004820152602401610e2e565b600061119c7fe12d3c3bf86185c3c62596db61beac70fac0abaa4c5e36b0d87bbca1cfdd5828888888886040516020016111819594939291906127b6565b60405160208183030381529060405280519060200120611aaa565b600254604080516020601f87018190048102820181019092528581529293506000926111fc9273ffffffffffffffffffffffffffffffffffffffff16918591908890889081908401838280828437600092019190915250611af292505050565b905080611235576040517f8baa579f00000000000000000000000000000000000000000000000000000000815260040160405180910390fd5b73ffffffffffffffffffffffffffffffffffffffff80881660008181526003602052604080822080547fffffffffffffffffffffffffffffffffffffffffffffffffffffffffffffff00908116909155938a1680835291819020805490941690935591518a907f7b58632b249761a8c023c066cf5cea7856abd6647ee13dc85b0c6526c111ed9e906112c8908a906127f5565b60405180910390a45050505050505050565b6000806104db60017f4fb5f8cdfbce77f22b0931a39e9f476a60a0f66524b2f379e96485471eb700ae61273d565b73ffffffffffffffffffffffffffffffffffffffff8116611355576040517f40b539cf00000000000000000000000000000000000000000000000000000000815260040160405180910390fd5b81547fffffffffffffffffffffffff00000000000000000000000000000000000000001673ffffffffffffffffffffffffffffffffffffffff821690811783556040519081527fdd880d24a789958a6398c99c2e54ce31bc10a638cbc42f7dd34285479ae0f8559060200160405180910390a15050565b8483811415806113dc5750808214155b15611413576040517f6582533600000000000000000000000000000000000000000000000000000000815260040160405180910390fd5b60005b81811015610b6d576114a588888381811061143357611433612803565b905060200201602081019061144891906122d8565b85858481811061145a5761145a612803565b9050602002013588888581811061147357611473612803565b905060200201602081019061148891906122d8565b73ffffffffffffffffffffffffffffffffffffffff169190611b90565b600101611416565b6060610bc27f00000000000000000000000000000000000000000000000000000000000000006000611c22565b6060610bc27f00000000000000000000000000000000000000000000000000000000000000006001611c22565b8483811415806115175750808214155b1561154e576040517f6582533600000000000000000000000000000000000000000000000000000000815260040160405180910390fd5b60005b81811015610b6d57600086868381811061156d5761156d612803565b905060200201602081019061158291906122d8565b6040517f01ffc9a70000000000000000000000000000000000000000000000000000000081527f80ac58cd00000000000000000000000000000000000000000000000000000000600482015290915073ffffffffffffffffffffffffffffffffffffffff8216906301ffc9a790602401602060405180830381865afa15801561160f573d6000803e3d6000fd5b505050506040513d601f19601f820116820180604052508101906116339190612832565b611681576040517f986b9f1f00000000000000000000000000000000000000000000000000000000815273ffffffffffffffffffffffffffffffffffffffff82166004820152602401610e2e565b86868381811061169357611693612803565b90506020020160208101906116a891906122d8565b73ffffffffffffffffffffffffffffffffffffffff166342842e0e308b8b868181106116d6576116d6612803565b90506020020160208101906116eb91906122d8565b8888878181106116fd576116fd612803565b6040517fffffffff0000000000000000000000000000000000000000000000000000000060e088901b16815273ffffffffffffffffffffffffffffffffffffffff958616600482015294909316602485015250602090910201356044820152606401600060405180830381600087803b15801561177957600080fd5b505af115801561178d573d6000803e3d6000fd5b5050505050806001019050611551565b825473ffffffffffffffffffffffffffffffffffffffff908116908316811461180a576040517f2ef4875e00000000000000000000000000000000000000000000000000000000815273ffffffffffffffffffffffffffffffffffffffff84166004820152602401610e2e565b8173ffffffffffffffffffffffffffffffffffffffff168173ffffffffffffffffffffffffffffffffffffffff1614610c815783547fffffffffffffffffffffffff00000000000000000000000000000000000000001673ffffffffffffffffffffffffffffffffffffffff8381169182178655604051908316907f8be0079c531659141344cd1fd0a4f28419497f9722a3daafe3b4186f6b6457e090600090a350505050565b828181146118eb576040517f6582533600000000000000000000000000000000000000000000000000000000815260040160405180910390fd5b60005b81811015610bad5761195584848381811061190b5761190b612803565b9050602002013587878481811061192457611924612803565b905060200201602081019061193991906122d8565b73ffffffffffffffffffffffffffffffffffffffff1690611ccd565b6001016118ee565b60003332148061196d5750601836105b1561197757503390565b7fffffffffffffffffffffffffffffffffffffffffffffffffffffffffffffffec36013560601c7f000000000000000000000000000000000000000000000000000000000000000073ffffffffffffffffffffffffffffffffffffffff16331480611a9957506040517f019a202800000000000000000000000000000000000000000000000000000000815273ffffffffffffffffffffffffffffffffffffffff82811660048301523360248301523060448301527f0000000000000000000000000000000000000000000000000000000000000000169063019a202890606401602060405180830381865afa158015611a75573d6000803e3d6000fd5b505050506040513d601f19601f82011682018060405250810190611a999190612832565b15611aa357919050565b3391505090565b60006104db611ab7611d83565b836040517f19010000000000000000000000000000000000000000000000000000000000008152600281019290925260228201526042902090565b60008373ffffffffffffffffffffffffffffffffffffffff163b600003611b7b57600080611b208585611ebb565b5090925090506000816003811115611b3a57611b3a61269c565b148015611b7257508573ffffffffffffffffffffffffffffffffffffffff168273ffffffffffffffffffffffffffffffffffffffff16145b92505050611b89565b611b86848484611f08565b90505b9392505050565b6040805173ffffffffffffffffffffffffffffffffffffffff8416602482015260448082018490528251808303909101815260649091019091526020810180517bffffffffffffffffffffffffffffffffffffffffffffffffffffffff167fa9059cbb00000000000000000000000000000000000000000000000000000000179052611c1d908490612056565b505050565b606060ff8314611c3c57611c35836120fa565b90506104db565b818054611c4890612854565b80601f0160208091040260200160405190810160405280929190818152602001828054611c7490612854565b8015611cc15780601f10611c9657610100808354040283529160200191611cc1565b820191906000526020600020905b815481529060010190602001808311611ca457829003601f168201915b505050505090506104db565b80471015611d10576040517fcf47918100000000000000000000000000000000000000000000000000000000815247600482015260248101829052604401610e2e565b6000808373ffffffffffffffffffffffffffffffffffffffff168360405160006040518083038185875af1925050503d8060008114611d6b576040519150601f19603f3d011682016040523d82523d6000602084013e611d70565b606091505b509150915081610c8157610c8181612139565b60003073ffffffffffffffffffffffffffffffffffffffff7f000000000000000000000000000000000000000000000000000000000000000016148015611de957507f000000000000000000000000000000000000000000000000000000000000000046145b15611e1357507f000000000000000000000000000000000000000000000000000000000000000090565b610bc2604080517f8b73c3c69bb8fe3d512ecc4cf759cc79239f7b179b0ffacaa9a75d522b39400f60208201527f0000000000000000000000000000000000000000000000000000000000000000918101919091527f000000000000000000000000000000000000000000000000000000000000000060608201524660808201523060a082015260009060c00160405160208183030381529060405280519060200120905090565b60008060008351604103611ef55760208401516040850151606086015160001a611ee78882858561217b565b955095509550505050611f01565b50508151600091506002905b9250925092565b60008060008573ffffffffffffffffffffffffffffffffffffffff168585604051602401611f379291906128a7565b604080517fffffffffffffffffffffffffffffffffffffffffffffffffffffffffffffffe08184030181529181526020820180517bffffffffffffffffffffffffffffffffffffffffffffffffffffffff167f1626ba7e0000000000000000000000000000000000000000000000000000000017905251611fb891906128c8565b600060405180830381855afa9150503d8060008114611ff3576040519150601f19603f3d011682016040523d82523d6000602084013e611ff8565b606091505b509150915081801561200c57506020815110155b801561204c575080517f1626ba7e000000000000000000000000000000000000000000000000000000009061204a90830160209081019084016128e4565b145b9695505050505050565b600080602060008451602086016000885af180612079576040513d6000823e3d81fd5b50506000513d915081156120915780600114156120ab565b73ffffffffffffffffffffffffffffffffffffffff84163b155b15610c81576040517f5274afe700000000000000000000000000000000000000000000000000000000815273ffffffffffffffffffffffffffffffffffffffff85166004820152602401610e2e565b6060600061210783612275565b604080516020808252818301909252919250600091906020820181803683375050509182525060208101929092525090565b8051156121495780518082602001fd5b6040517fd6bda27500000000000000000000000000000000000000000000000000000000815260040160405180910390fd5b600080807f7fffffffffffffffffffffffffffffff5d576e7357a4501ddfe92f46681b20a08411156121b6575060009150600390508261226b565b604080516000808252602082018084528a905260ff891692820192909252606081018790526080810186905260019060a0016020604051602081039080840390855afa15801561220a573d6000803e3d6000fd5b50506040517fffffffffffffffffffffffffffffffffffffffffffffffffffffffffffffffe0015191505073ffffffffffffffffffffffffffffffffffffffff81166122615750600092506001915082905061226b565b9250600091508190505b9450945094915050565b600060ff8216601f8111156104db576040517fb3512b0c00000000000000000000000000000000000000000000000000000000815260040160405180910390fd5b73ffffffffffffffffffffffffffffffffffffffff8116811461050357600080fd5b6000602082840312156122ea57600080fd5b8135611b89816122b6565b60006020828403121561230757600080fd5b81357fffffffff0000000000000000000000000000000000000000000000000000000081168114611b8957600080fd5b60006020828403121561234957600080fd5b5035919050565b60008060008060008060a0878903121561236957600080fd5b86359550602087013561237b816122b6565b9450604087013561238b816122b6565b935060608701356003811061239f57600080fd5b9250608087013567ffffffffffffffff8111156123bb57600080fd5b8701601f810189136123cc57600080fd5b803567ffffffffffffffff8111156123e357600080fd5b8960208284010111156123f557600080fd5b60208201935080925050509295509295509295565b60008083601f84011261241c57600080fd5b50813567ffffffffffffffff81111561243457600080fd5b6020830191508360208260051b850101111561244f57600080fd5b9250929050565b6000806000806000806060878903121561246f57600080fd5b863567ffffffffffffffff81111561248657600080fd5b61249289828a0161240a565b909750955050602087013567ffffffffffffffff8111156124b257600080fd5b6124be89828a0161240a565b909550935050604087013567ffffffffffffffff8111156124de57600080fd5b6124ea89828a0161240a565b979a9699509497509295939492505050565b60005b838110156125175781810151838201526020016124ff565b50506000910152565b600081518084526125388160208601602086016124fc565b601f017fffffffffffffffffffffffffffffffffffffffffffffffffffffffffffffffe0169290920160200192915050565b7fff000000000000000000000000000000000000000000000000000000000000008816815260e0602082015260006125a560e0830189612520565b82810360408401526125b78189612520565b6060840188905273ffffffffffffffffffffffffffffffffffffffff8716608085015260a0840186905283810360c08501528451808252602080870193509091019060005b8181101561261a5783518352602093840193909201916001016125fc565b50909b9a5050505050505050505050565b6000806000806040858703121561264157600080fd5b843567ffffffffffffffff81111561265857600080fd5b6126648782880161240a565b909550935050602085013567ffffffffffffffff81111561268457600080fd5b6126908782880161240a565b95989497509550505050565b7f4e487b7100000000000000000000000000000000000000000000000000000000600052602160045260246000fd5b7f4e487b7100000000000000000000000000000000000000000000000000000000600052601260045260246000fd5b7f4e487b7100000000000000000000000000000000000000000000000000000000600052601160045260246000fd5b600082612738576127386126cb565b500490565b818103818111156104db576104db6126fa565b80820281158282048414176104db576104db6126fa565b600082612776576127766126cb565b500690565b600381106127b2577f4e487b7100000000000000000000000000000000000000000000000000000000600052602160045260246000fd5b9052565b8581526020810185905273ffffffffffffffffffffffffffffffffffffffff84811660408301528316606082015260a0810161204c608083018461277b565b602081016104db828461277b565b7f4e487b7100000000000000000000000000000000000000000000000000000000600052603260045260246000fd5b60006020828403121561284457600080fd5b81518015158114611b8957600080fd5b600181811c9082168061286857607f821691505b6020821081036128a1577f4e487b7100000000000000000000000000000000000000000000000000000000600052602260045260246000fd5b50919050565b8281526040602082015260006128c06040830184612520565b949350505050565b600082516128da8184602087016124fc565b9190910192915050565b6000602082840312156128f657600080fd5b505191905056fea26469706673582212204a142a05f0c9cd6af7a9c61e2b0aa7ca3c7d82bf48e936157a10a5cec07c003b64736f6c634300081c0033",
  "linkReferences": {},
  "deployedLinkReferences": {}
}