{
  "_format": "hh-sol-artifact-1",
  "contractName": "ContextMock",
  "sourceName": "contracts/mocks/utils/ContextMock.sol",
  "abi": [
    {
      "anonymous": false,
      "inputs": [
        {
          "indexed": false,
          "internalType": "bytes",
          "name": "data",
          "type": "bytes"
        },
        {
          "indexed": false,
          "internalType": "uint256",
          "name": "integerValue",
          "type": "uint256"
        },
        {
          "indexed": false,
          "internalType": "string",
          "name": "stringValue",
          "type": "string"
        }
      ],
      "name": "Data",
      "type": "event"
    },
    {
      "anonymous": false,
      "inputs": [
        {
          "indexed": false,
          "internalType": "bytes",
          "name": "data",
          "type": "bytes"
        }
      ],
      "name": "DataShort",
      "type": "event"
    },
    {
      "anonymous": false,
      "inputs": [
        {
          "indexed": false,
          "internalType": "address",
          "name": "sender",
          "type": "address"
        }
      ],
      "name": "Sender",
      "type": "event"
    },
    {
      "inputs": [
        {
          "internalType": "uint256",
          "name": "integerValue",
          "type": "uint256"
        },
        {
          "internalType": "string",
          "name": "stringValue",
          "type": "string"
        }
      ],
      "name": "msgData",
      "outputs": [],
      "stateMutability": "nonpayable",
      "type": "function"
    },
    {
      "inputs": [],
      "name": "msgDataShort",
      "outputs": [],
      "stateMutability": "nonpayable",
      "type": "function"
    },
    {
      "inputs": [],
      "name": "msgSender",
      "outputs": [],
      "stateMutability": "nonpayable",
      "type": "function"
    }
  ],
  "bytecode": "0x608060405234801561001057600080fd5b506102c4806100206000396000f3fe608060405234801561001057600080fd5b50600436106100415760003560e01c8063376bf26214610046578063d737d0c71461005b578063ff5f6b5914610063575b600080fd5b61005961005436600461012b565b61006b565b005b6100596100ad565b6100596100e3565b7faf235354a0a47c91ee171961326335cb2d1a8e55b8a89859b0e61eb049e50ea060003684846040516100a1949392919061020e565b60405180910390a15050565b6040513381527fd6558c3ed910d959271054471fd1c326679d9fece99c5091b00ed89627cf2bfc906020015b60405180910390a1565b7f6d7cec71eba467294d92341ddc4e8634eb4d742a90e16f408f06e4b70bc4cd666000366040516100d9929190610272565b634e487b7160e01b600052604160045260246000fd5b6000806040838503121561013e57600080fd5b8235915060208301356001600160401b038082111561015c57600080fd5b818501915085601f83011261017057600080fd5b81358181111561018257610182610115565b604051601f8201601f19908116603f011681019083821181831017156101aa576101aa610115565b816040528281528860208487010111156101c357600080fd5b8260208601602083013760006020848301015280955050505050509250929050565b81835281816020850137506000828201602090810191909152601f909101601f19169091010190565b6060815260006102226060830186886101e5565b602085818501528382036040850152845180835260005b81811015610254578681018301518482018401528201610239565b506000838201830152601f01601f1916909101019695505050505050565b6020815260006102866020830184866101e5565b94935050505056fea264697066735822122013a372907eaddc0a345ae6f3d2ec5663082523e69c4e1cb2d6e1d6ba5e2a660664736f6c63430008110033",
  "linkReferences": {},
  "deployedLinkReferences": {}
}