{
  "_format": "hh-sol-artifact-1",
  "contractName": "AbstractSponsoredListPaymaster",
  "sourceName": "contracts/paymaster/AbstractSponsoredListPaymaster.sol",
  "abi": [
    {
      "inputs": [],
      "stateMutability": "nonpayable",
      "type": "constructor"
    },
    {
      "inputs": [],
      "name": "AccountNotSponsored",
      "type": "error"
    },
    {
      "inputs": [
        {
          "internalType": "uint256",
          "name": "fee",
          "type": "uint256"
        }
      ],
      "name": "FailedFeeTransfer",
      "type": "error"
    },
    {
      "inputs": [],
      "name": "IllegalInterfaceId",
      "type": "error"
    },
    {
      "inputs": [],
      "name": "InconsistentLengths",
      "type": "error"
    },
    {
      "inputs": [],
      "name": "InsufficientBalance",
      "type": "error"
    },
    {
      "inputs": [],
      "name": "InvalidSelector",
      "type": "error"
    },
    {
      "inputs": [],
      "name": "InvalidToAddress",
      "type": "error"
    },
    {
      "inputs": [
        {
          "internalType": "address",
          "name": "account",
          "type": "address"
        }
      ],
      "name": "NotContractOwner",
      "type": "error"
    },
    {
      "inputs": [],
      "name": "NotFromBootloader",
      "type": "error"
    },
    {
      "inputs": [],
      "name": "ShortPaymasterInput",
      "type": "error"
    },
    {
      "inputs": [],
      "name": "UnsupportedPaymasterFlow",
      "type": "error"
    },
    {
      "inputs": [],
      "name": "WithdrawFailed",
      "type": "error"
    },
    {
      "anonymous": false,
      "inputs": [
        {
          "indexed": true,
          "internalType": "uint256",
          "name": "amount",
          "type": "uint256"
        }
      ],
      "name": "BalanceWithdrawn",
      "type": "event"
    },
    {
      "anonymous": false,
      "inputs": [
        {
          "indexed": true,
          "internalType": "address",
          "name": "user",
          "type": "address"
        }
      ],
      "name": "FeeSponsored",
      "type": "event"
    },
    {
      "anonymous": false,
      "inputs": [
        {
          "indexed": true,
          "internalType": "address",
          "name": "previousOwner",
          "type": "address"
        },
        {
          "indexed": true,
          "internalType": "address",
          "name": "newOwner",
          "type": "address"
        }
      ],
      "name": "OwnershipTransferred",
      "type": "event"
    },
    {
      "anonymous": false,
      "inputs": [
        {
          "indexed": false,
          "internalType": "address",
          "name": "account",
          "type": "address"
        },
        {
          "indexed": false,
          "internalType": "bool",
          "name": "sponsored",
          "type": "bool"
        }
      ],
      "name": "SponsoredAccountSet",
      "type": "event"
    },
    {
      "inputs": [],
      "name": "owner",
      "outputs": [
        {
          "internalType": "address",
          "name": "",
          "type": "address"
        }
      ],
      "stateMutability": "view",
      "type": "function"
    },
    {
      "inputs": [
        {
          "internalType": "bytes",
          "name": "",
          "type": "bytes"
        },
        {
          "components": [
            {
              "internalType": "uint256",
              "name": "txType",
              "type": "uint256"
            },
            {
              "internalType": "uint256",
              "name": "from",
              "type": "uint256"
            },
            {
              "internalType": "uint256",
              "name": "to",
              "type": "uint256"
            },
            {
              "internalType": "uint256",
              "name": "gasLimit",
              "type": "uint256"
            },
            {
              "internalType": "uint256",
              "name": "gasPerPubdataByteLimit",
              "type": "uint256"
            },
            {
              "internalType": "uint256",
              "name": "maxFeePerGas",
              "type": "uint256"
            },
            {
              "internalType": "uint256",
              "name": "maxPriorityFeePerGas",
              "type": "uint256"
            },
            {
              "internalType": "uint256",
              "name": "paymaster",
              "type": "uint256"
            },
            {
              "internalType": "uint256",
              "name": "nonce",
              "type": "uint256"
            },
            {
              "internalType": "uint256",
              "name": "value",
              "type": "uint256"
            },
            {
              "internalType": "uint256[4]",
              "name": "reserved",
              "type": "uint256[4]"
            },
            {
              "internalType": "bytes",
              "name": "data",
              "type": "bytes"
            },
            {
              "internalType": "bytes",
              "name": "signature",
              "type": "bytes"
            },
            {
              "internalType": "bytes32[]",
              "name": "factoryDeps",
              "type": "bytes32[]"
            },
            {
              "internalType": "bytes",
              "name": "paymasterInput",
              "type": "bytes"
            },
            {
              "internalType": "bytes",
              "name": "reservedDynamic",
              "type": "bytes"
            }
          ],
          "internalType": "struct Transaction",
          "name": "_transaction",
          "type": "tuple"
        },
        {
          "internalType": "bytes32",
          "name": "",
          "type": "bytes32"
        },
        {
          "internalType": "bytes32",
          "name": "",
          "type": "bytes32"
        },
        {
          "internalType": "enum ExecutionResult",
          "name": "",
          "type": "uint8"
        },
        {
          "internalType": "uint256",
          "name": "",
          "type": "uint256"
        }
      ],
      "name": "postTransaction",
      "outputs": [],
      "stateMutability": "payable",
      "type": "function"
    },
    {
      "inputs": [
        {
          "internalType": "address[]",
          "name": "accountList_",
          "type": "address[]"
        },
        {
          "internalType": "bool[]",
          "name": "sponsoredList_",
          "type": "bool[]"
        }
      ],
      "name": "setBatchSponsored",
      "outputs": [],
      "stateMutability": "nonpayable",
      "type": "function"
    },
    {
      "inputs": [
        {
          "internalType": "address",
          "name": "account_",
          "type": "address"
        },
        {
          "internalType": "bool",
          "name": "sponsored_",
          "type": "bool"
        }
      ],
      "name": "setSponsored",
      "outputs": [],
      "stateMutability": "nonpayable",
      "type": "function"
    },
    {
      "inputs": [
        {
          "internalType": "address",
          "name": "account",
          "type": "address"
        }
      ],
      "name": "sponsoredList",
      "outputs": [
        {
          "internalType": "bool",
          "name": "sponsored",
          "type": "bool"
        }
      ],
      "stateMutability": "view",
      "type": "function"
    },
    {
      "inputs": [
        {
          "internalType": "bytes4",
          "name": "interfaceId",
          "type": "bytes4"
        }
      ],
      "name": "supportsInterface",
      "outputs": [
        {
          "internalType": "bool",
          "name": "",
          "type": "bool"
        }
      ],
      "stateMutability": "view",
      "type": "function"
    },
    {
      "inputs": [
        {
          "internalType": "address",
          "name": "newOwner",
          "type": "address"
        }
      ],
      "name": "transferOwnership",
      "outputs": [],
      "stateMutability": "nonpayable",
      "type": "function"
    },
    {
      "inputs": [
        {
          "internalType": "bytes32",
          "name": "",
          "type": "bytes32"
        },
        {
          "internalType": "bytes32",
          "name": "",
          "type": "bytes32"
        },
        {
          "components": [
            {
              "internalType": "uint256",
              "name": "txType",
              "type": "uint256"
            },
            {
              "internalType": "uint256",
              "name": "from",
              "type": "uint256"
            },
            {
              "internalType": "uint256",
              "name": "to",
              "type": "uint256"
            },
            {
              "internalType": "uint256",
              "name": "gasLimit",
              "type": "uint256"
            },
            {
              "internalType": "uint256",
              "name": "gasPerPubdataByteLimit",
              "type": "uint256"
            },
            {
              "internalType": "uint256",
              "name": "maxFeePerGas",
              "type": "uint256"
            },
            {
              "internalType": "uint256",
              "name": "maxPriorityFeePerGas",
              "type": "uint256"
            },
            {
              "internalType": "uint256",
              "name": "paymaster",
              "type": "uint256"
            },
            {
              "internalType": "uint256",
              "name": "nonce",
              "type": "uint256"
            },
            {
              "internalType": "uint256",
              "name": "value",
              "type": "uint256"
            },
            {
              "internalType": "uint256[4]",
              "name": "reserved",
              "type": "uint256[4]"
            },
            {
              "internalType": "bytes",
              "name": "data",
              "type": "bytes"
            },
            {
              "internalType": "bytes",
              "name": "signature",
              "type": "bytes"
            },
            {
              "internalType": "bytes32[]",
              "name": "factoryDeps",
              "type": "bytes32[]"
            },
            {
              "internalType": "bytes",
              "name": "paymasterInput",
              "type": "bytes"
            },
            {
              "internalType": "bytes",
              "name": "reservedDynamic",
              "type": "bytes"
            }
          ],
          "internalType": "struct Transaction",
          "name": "_transaction",
          "type": "tuple"
        }
      ],
      "name": "validateAndPayForPaymasterTransaction",
      "outputs": [
        {
          "internalType": "bytes4",
          "name": "",
          "type": "bytes4"
        },
        {
          "internalType": "bytes",
          "name": "",
          "type": "bytes"
        }
      ],
      "stateMutability": "payable",
      "type": "function"
    },
    {
      "inputs": [
        {
          "internalType": "uint256",
          "name": "amount",
          "type": "uint256"
        }
      ],
      "name": "withdraw",
      "outputs": [],
      "stateMutability": "nonpayable",
      "type": "function"
    },
    {
      "stateMutability": "payable",
      "type": "receive"
    }
  ],
  "bytecode": "0x608060405234801561001057600080fd5b50336100248161001e61002a565b9061005e565b5061017f565b60008061005860017fc9ed16f33ab3a66c84bfd83099ccb2a8845871e2e1c1928f63797152f0fd54cd61015e565b92915050565b6001600160a01b038116156100b45781546001600160a01b0319166001600160a01b03821690811783556040516000907f8be0079c531659141344cd1fd0a4f28419497f9722a3daafe3b4186f6b6457e0908290a35b6100d06307f5828d60e41b60016100c96100d4565b9190610102565b5050565b60008061005860017fca9d3e17f264b0f3984e2634e94adb37fa3e6a8103f06aeae6fa59e21c769f5e61015e565b600160e01b6001600160e01b0319831601610130576040516372c683bb60e01b815260040160405180910390fd5b6001600160e01b03199190911660009081526020929092526040909120805460ff1916911515919091179055565b8181038181111561005857634e487b7160e01b600052601160045260246000fd5b6110a28061018e6000396000f3fe60806040526004361061009a5760003560e01c80638da5cb5b11610069578063cbae9ca51161004e578063cbae9ca51461019b578063f2fde38b146101bb578063f935d0b0146101db57600080fd5b80638da5cb5b14610131578063badd52591461016b57600080fd5b806301ffc9a7146100a6578063038a24bc146100db5780632e1a7d4d146100fc578063817b17f01461011e57600080fd5b366100a157005b600080fd5b3480156100b257600080fd5b506100c66100c1366004610b27565b6101fb565b60405190151581526020015b60405180910390f35b6100ee6100e9366004610b89565b610215565b6040516100d2929190610bd9565b34801561010857600080fd5b5061011c610117366004610c6e565b6104de565b005b61011c61012c366004610c9b565b6105f5565b34801561013d57600080fd5b506101466106b4565b60405173ffffffffffffffffffffffffffffffffffffffff90911681526020016100d2565b34801561017757600080fd5b506100c6610186366004610d8d565b60006020819052908152604090205460ff1681565b3480156101a757600080fd5b5061011c6101b6366004610df4565b6106e0565b3480156101c757600080fd5b5061011c6101d6366004610d8d565b610794565b3480156101e757600080fd5b5061011c6101f6366004610e75565b6107ab565b600061020f8261020961086d565b9061089b565b92915050565b600060606004610229610220850185610ea8565b90501015610263576040517f1a53970000000000000000000000000000000000000000000000000000000000815260040160405180910390fd5b6000610273610220850185610ea8565b61028291600491600091610f0d565b61028b91610f37565b90507fffffffff0000000000000000000000000000000000000000000000000000000081167f8c5a34450000000000000000000000000000000000000000000000000000000014610308576040517fff15b06900000000000000000000000000000000000000000000000000000000815260040160405180910390fd5b6103156180006001610fcc565b73ffffffffffffffffffffffffffffffffffffffff163373ffffffffffffffffffffffffffffffffffffffff1614610379576040517f0e7b35b300000000000000000000000000000000000000000000000000000000815260040160405180910390fd5b60208481013573ffffffffffffffffffffffffffffffffffffffff16600090815290819052604090205460ff166103dc576040517fb98765a200000000000000000000000000000000000000000000000000000000815260040160405180910390fd5b60006103f060a08601356060870135610ff8565b905060006104016180006001610fcc565b73ffffffffffffffffffffffffffffffffffffffff168260405160006040518083038185875af1925050503d8060008114610458576040519150601f19603f3d011682016040523d82523d6000602084013e61045d565b606091505b50509050806104a0576040517f93f87caf000000000000000000000000000000000000000000000000000000008152600481018390526024015b60405180910390fd5b50506040805160208101909152600081527f038a24bc0000000000000000000000000000000000000000000000000000000097909650945050505050565b47811115610518576040517ff4d678b800000000000000000000000000000000000000000000000000000000815260040160405180910390fd5b3361052b81610525610975565b906109a3565b60008173ffffffffffffffffffffffffffffffffffffffff168360405160006040518083038185875af1925050503d8060008114610585576040519150601f19603f3d011682016040523d82523d6000602084013e61058a565b606091505b50509050806105c5576040517f750b219c00000000000000000000000000000000000000000000000000000000815260040160405180910390fd5b60405183907f39f8b889424a1684bd36857c25ab79691ed71adf60bbeca32820cb4de3c5884c90600090a2505050565b6106026180006001610fcc565b73ffffffffffffffffffffffffffffffffffffffff163373ffffffffffffffffffffffffffffffffffffffff1614610666576040517f0e7b35b300000000000000000000000000000000000000000000000000000000815260040160405180910390fd5b60405173ffffffffffffffffffffffffffffffffffffffff602087013516907feae3fe01386dc000c00cb2660be8a0768d61b806623bad561dcae00c0083c51190600090a250505050505050565b60006106db6106c1610975565b5473ffffffffffffffffffffffffffffffffffffffff1690565b905090565b336106ed81610525610975565b83828114610727576040517fb1f40f7700000000000000000000000000000000000000000000000000000000815260040160405180910390fd5b60005b8181101561078b576107838787838181106107475761074761100f565b905060200201602081019061075c9190610d8d565b86868481811061076e5761076e61100f565b90506020020160208101906101f6919061103e565b60010161072a565b50505050505050565b6107a833826107a1610975565b9190610a12565b50565b73ffffffffffffffffffffffffffffffffffffffff821660009081526020819052604090205460ff16801515821515146108685773ffffffffffffffffffffffffffffffffffffffff83166000818152602081815260409182902080547fffffffffffffffffffffffffffffffffffffffffffffffffffffffffffffff00168615159081179091558251938452908301527fbd7a8167f3ffcfcc911b490eb6f455b95bcbc30575062e94100f1fc03f709955910160405180910390a15b505050565b60008061020f60017fca9d3e17f264b0f3984e2634e94adb37fa3e6a8103f06aeae6fa59e21c769f5e611059565b60007c01000000000000000000000000000000000000000000000000000000007fffffffff000000000000000000000000000000000000000000000000000000008316016108eb5750600061020f565b7ffe003659000000000000000000000000000000000000000000000000000000007fffffffff0000000000000000000000000000000000000000000000000000000083160161093c5750600161020f565b507fffffffff00000000000000000000000000000000000000000000000000000000166000908152602091909152604090205460ff1690565b60008061020f60017fc9ed16f33ab3a66c84bfd83099ccb2a8845871e2e1c1928f63797152f0fd54cd611059565b815473ffffffffffffffffffffffffffffffffffffffff828116911614610a0e576040517f2ef4875e00000000000000000000000000000000000000000000000000000000815273ffffffffffffffffffffffffffffffffffffffff82166004820152602401610497565b5050565b825473ffffffffffffffffffffffffffffffffffffffff9081169083168114610a7f576040517f2ef4875e00000000000000000000000000000000000000000000000000000000815273ffffffffffffffffffffffffffffffffffffffff84166004820152602401610497565b8173ffffffffffffffffffffffffffffffffffffffff168173ffffffffffffffffffffffffffffffffffffffff1614610b215783547fffffffffffffffffffffffff00000000000000000000000000000000000000001673ffffffffffffffffffffffffffffffffffffffff8381169182178655604051908316907f8be0079c531659141344cd1fd0a4f28419497f9722a3daafe3b4186f6b6457e090600090a35b50505050565b600060208284031215610b3957600080fd5b81357fffffffff0000000000000000000000000000000000000000000000000000000081168114610b6957600080fd5b9392505050565b60006102608284031215610b8357600080fd5b50919050565b600080600060608486031215610b9e57600080fd5b8335925060208401359150604084013567ffffffffffffffff811115610bc357600080fd5b610bcf86828701610b70565b9150509250925092565b7fffffffff0000000000000000000000000000000000000000000000000000000083168152604060208201526000825180604084015260005b81811015610c2f5760208186018101516060868401015201610c12565b5060006060828501015260607fffffffffffffffffffffffffffffffffffffffffffffffffffffffffffffffe0601f8301168401019150509392505050565b600060208284031215610c8057600080fd5b5035919050565b803560028110610c9657600080fd5b919050565b600080600080600080600060c0888a031215610cb657600080fd5b873567ffffffffffffffff811115610ccd57600080fd5b8801601f81018a13610cde57600080fd5b803567ffffffffffffffff811115610cf557600080fd5b8a6020828401011115610d0757600080fd5b60209182019850965088013567ffffffffffffffff811115610d2857600080fd5b610d348a828b01610b70565b9550506040880135935060608801359250610d5160808901610c87565b96999598509396929591949193505060a09091013590565b803573ffffffffffffffffffffffffffffffffffffffff81168114610c9657600080fd5b600060208284031215610d9f57600080fd5b610b6982610d69565b60008083601f840112610dba57600080fd5b50813567ffffffffffffffff811115610dd257600080fd5b6020830191508360208260051b8501011115610ded57600080fd5b9250929050565b60008060008060408587031215610e0a57600080fd5b843567ffffffffffffffff811115610e2157600080fd5b610e2d87828801610da8565b909550935050602085013567ffffffffffffffff811115610e4d57600080fd5b610e5987828801610da8565b95989497509550505050565b80358015158114610c9657600080fd5b60008060408385031215610e8857600080fd5b610e9183610d69565b9150610e9f60208401610e65565b90509250929050565b60008083357fffffffffffffffffffffffffffffffffffffffffffffffffffffffffffffffe1843603018112610edd57600080fd5b83018035915067ffffffffffffffff821115610ef857600080fd5b602001915036819003821315610ded57600080fd5b60008085851115610f1d57600080fd5b83861115610f2a57600080fd5b5050820193919092039150565b80357fffffffff000000000000000000000000000000000000000000000000000000008116906004841015610f96577fffffffff00000000000000000000000000000000000000000000000000000000808560040360031b1b82161691505b5092915050565b7f4e487b7100000000000000000000000000000000000000000000000000000000600052601160045260246000fd5b73ffffffffffffffffffffffffffffffffffffffff818116838216019081111561020f5761020f610f9d565b808202811582820484141761020f5761020f610f9d565b7f4e487b7100000000000000000000000000000000000000000000000000000000600052603260045260246000fd5b60006020828403121561105057600080fd5b610b6982610e65565b8181038181111561020f5761020f610f9d56fea2646970667358221220edf7ccff1deffad5248f7a8fbc6ae5e2f83a0b2771d1859e36341a3f683a34f964736f6c634300081c0033",
  "linkReferences": {},
  "deployedLinkReferences": {}
}