{
  "_format": "hh-sol-artifact-1",
  "contractName": "AnichessOrbsBurnPool",
  "sourceName": "contracts/burn/AnichessOrbsBurnPool.sol",
  "abi": [
    {
      "inputs": [
        {
          "internalType": "uint256",
          "name": "initialTime",
          "type": "uint256"
        },
        {
          "internalType": "uint256",
          "name": "cycleDuration",
          "type": "uint256"
        },
        {
          "internalType": "uint256",
          "name": "maxCycle",
          "type": "uint256"
        },
        {
          "internalType": "contract IERC1155Burnable",
          "name": "sourceToken",
          "type": "address"
        },
        {
          "internalType": "uint256[]",
          "name": "tokenIds",
          "type": "uint256[]"
        },
        {
          "internalType": "uint256[]",
          "name": "weights",
          "type": "uint256[]"
        },
        {
          "internalType": "bytes32",
          "name": "merkleRoot",
          "type": "bytes32"
        },
        {
          "internalType": "contract IERC1155Burnable",
          "name": "missingOrb",
          "type": "address"
        },
        {
          "internalType": "uint256",
          "name": "tokenMultiplier",
          "type": "uint256"
        },
        {
          "internalType": "contract IForwarderRegistry",
          "name": "forwarderRegistry",
          "type": "address"
        }
      ],
      "stateMutability": "nonpayable",
      "type": "constructor"
    },
    {
      "inputs": [
        {
          "internalType": "address",
          "name": "recipient",
          "type": "address"
        }
      ],
      "name": "AlreadySetAnichessGameMultiplierNumerator",
      "type": "error"
    },
    {
      "inputs": [
        {
          "internalType": "uint256",
          "name": "tokenId",
          "type": "uint256"
        }
      ],
      "name": "AlreadySetTokenWeight",
      "type": "error"
    },
    {
      "inputs": [
        {
          "internalType": "address",
          "name": "wallet",
          "type": "address"
        }
      ],
      "name": "AlreadyUnlockedTokenMultiplier",
      "type": "error"
    },
    {
      "inputs": [],
      "name": "IllegalInterfaceId",
      "type": "error"
    },
    {
      "inputs": [],
      "name": "InconsistentArrays",
      "type": "error"
    },
    {
      "inputs": [
        {
          "internalType": "uint256",
          "name": "cycle",
          "type": "uint256"
        }
      ],
      "name": "InvalidCycle",
      "type": "error"
    },
    {
      "inputs": [],
      "name": "InvalidProof",
      "type": "error"
    },
    {
      "inputs": [],
      "name": "InvalidToken",
      "type": "error"
    },
    {
      "inputs": [
        {
          "internalType": "uint256",
          "name": "amount",
          "type": "uint256"
        },
        {
          "internalType": "uint256",
          "name": "expectedAmount",
          "type": "uint256"
        }
      ],
      "name": "InvalidTokenAmount",
      "type": "error"
    },
    {
      "inputs": [
        {
          "internalType": "address",
          "name": "token",
          "type": "address"
        },
        {
          "internalType": "uint256",
          "name": "tokenId",
          "type": "uint256"
        }
      ],
      "name": "InvalidTokenId",
      "type": "error"
    },
    {
      "inputs": [
        {
          "internalType": "address",
          "name": "account",
          "type": "address"
        }
      ],
      "name": "NotContractOwner",
      "type": "error"
    },
    {
      "anonymous": false,
      "inputs": [
        {
          "indexed": true,
          "internalType": "address",
          "name": "burner",
          "type": "address"
        },
        {
          "indexed": true,
          "internalType": "uint256",
          "name": "cycle",
          "type": "uint256"
        },
        {
          "indexed": false,
          "internalType": "uint256",
          "name": "timestamp",
          "type": "uint256"
        },
        {
          "indexed": false,
          "internalType": "uint256[]",
          "name": "ids",
          "type": "uint256[]"
        },
        {
          "indexed": false,
          "internalType": "uint256[]",
          "name": "values",
          "type": "uint256[]"
        },
        {
          "indexed": false,
          "internalType": "uint256",
          "name": "totalAsh",
          "type": "uint256"
        },
        {
          "indexed": false,
          "internalType": "uint256",
          "name": "multiplier",
          "type": "uint256"
        }
      ],
      "name": "AshGenerated",
      "type": "event"
    },
    {
      "anonymous": false,
      "inputs": [
        {
          "indexed": true,
          "internalType": "address",
          "name": "previousOwner",
          "type": "address"
        },
        {
          "indexed": true,
          "internalType": "address",
          "name": "newOwner",
          "type": "address"
        }
      ],
      "name": "OwnershipTransferred",
      "type": "event"
    },
    {
      "anonymous": false,
      "inputs": [
        {
          "indexed": true,
          "internalType": "address",
          "name": "recipient",
          "type": "address"
        },
        {
          "indexed": false,
          "internalType": "uint256",
          "name": "curr",
          "type": "uint256"
        },
        {
          "indexed": false,
          "internalType": "uint256",
          "name": "updated",
          "type": "uint256"
        }
      ],
      "name": "UpdateMultiplierInfo",
      "type": "event"
    },
    {
      "inputs": [],
      "name": "CYCLE_DURATION",
      "outputs": [
        {
          "internalType": "uint256",
          "name": "",
          "type": "uint256"
        }
      ],
      "stateMutability": "view",
      "type": "function"
    },
    {
      "inputs": [],
      "name": "DENOMINATOR",
      "outputs": [
        {
          "internalType": "uint256",
          "name": "",
          "type": "uint256"
        }
      ],
      "stateMutability": "view",
      "type": "function"
    },
    {
      "inputs": [],
      "name": "INITIAL_TIME",
      "outputs": [
        {
          "internalType": "uint256",
          "name": "",
          "type": "uint256"
        }
      ],
      "stateMutability": "view",
      "type": "function"
    },
    {
      "inputs": [],
      "name": "MAX_CYCLE",
      "outputs": [
        {
          "internalType": "uint256",
          "name": "",
          "type": "uint256"
        }
      ],
      "stateMutability": "view",
      "type": "function"
    },
    {
      "inputs": [],
      "name": "MERKLE_ROOT",
      "outputs": [
        {
          "internalType": "bytes32",
          "name": "",
          "type": "bytes32"
        }
      ],
      "stateMutability": "view",
      "type": "function"
    },
    {
      "inputs": [],
      "name": "MISSING_ORB",
      "outputs": [
        {
          "internalType": "contract IERC1155Burnable",
          "name": "",
          "type": "address"
        }
      ],
      "stateMutability": "view",
      "type": "function"
    },
    {
      "inputs": [],
      "name": "MISSING_ORB_MULTIPLIER",
      "outputs": [
        {
          "internalType": "uint256",
          "name": "",
          "type": "uint256"
        }
      ],
      "stateMutability": "view",
      "type": "function"
    },
    {
      "inputs": [],
      "name": "MISSING_ORB_TOKEN_ID",
      "outputs": [
        {
          "internalType": "uint256",
          "name": "",
          "type": "uint256"
        }
      ],
      "stateMutability": "view",
      "type": "function"
    },
    {
      "inputs": [],
      "name": "SOURCE_TOKEN",
      "outputs": [
        {
          "internalType": "contract IERC1155Burnable",
          "name": "",
          "type": "address"
        }
      ],
      "stateMutability": "view",
      "type": "function"
    },
    {
      "inputs": [],
      "name": "currentCycle",
      "outputs": [
        {
          "internalType": "uint256",
          "name": "",
          "type": "uint256"
        }
      ],
      "stateMutability": "view",
      "type": "function"
    },
    {
      "inputs": [],
      "name": "forwarderRegistry",
      "outputs": [
        {
          "internalType": "contract IForwarderRegistry",
          "name": "",
          "type": "address"
        }
      ],
      "stateMutability": "view",
      "type": "function"
    },
    {
      "inputs": [
        {
          "internalType": "address",
          "name": "wallet",
          "type": "address"
        }
      ],
      "name": "getMultiplierInfo",
      "outputs": [
        {
          "internalType": "uint256",
          "name": "multiplierInfo",
          "type": "uint256"
        },
        {
          "internalType": "uint128",
          "name": "anichessGameMultiplierNumerator",
          "type": "uint128"
        },
        {
          "internalType": "uint128",
          "name": "tokenMultiplier",
          "type": "uint128"
        }
      ],
      "stateMutability": "view",
      "type": "function"
    },
    {
      "inputs": [
        {
          "internalType": "address",
          "name": "forwarder",
          "type": "address"
        }
      ],
      "name": "isTrustedForwarder",
      "outputs": [
        {
          "internalType": "bool",
          "name": "",
          "type": "bool"
        }
      ],
      "stateMutability": "view",
      "type": "function"
    },
    {
      "inputs": [
        {
          "internalType": "bytes32",
          "name": "",
          "type": "bytes32"
        }
      ],
      "name": "leafConsumptionStatus",
      "outputs": [
        {
          "internalType": "bool",
          "name": "",
          "type": "bool"
        }
      ],
      "stateMutability": "view",
      "type": "function"
    },
    {
      "inputs": [
        {
          "internalType": "address",
          "name": "",
          "type": "address"
        }
      ],
      "name": "multiplierInfos",
      "outputs": [
        {
          "internalType": "uint256",
          "name": "",
          "type": "uint256"
        }
      ],
      "stateMutability": "view",
      "type": "function"
    },
    {
      "inputs": [
        {
          "internalType": "address",
          "name": "",
          "type": "address"
        },
        {
          "internalType": "address",
          "name": "from",
          "type": "address"
        },
        {
          "internalType": "uint256[]",
          "name": "ids",
          "type": "uint256[]"
        },
        {
          "internalType": "uint256[]",
          "name": "values",
          "type": "uint256[]"
        },
        {
          "internalType": "bytes",
          "name": "",
          "type": "bytes"
        }
      ],
      "name": "onERC1155BatchReceived",
      "outputs": [
        {
          "internalType": "bytes4",
          "name": "",
          "type": "bytes4"
        }
      ],
      "stateMutability": "nonpayable",
      "type": "function"
    },
    {
      "inputs": [
        {
          "internalType": "address",
          "name": "",
          "type": "address"
        },
        {
          "internalType": "address",
          "name": "from",
          "type": "address"
        },
        {
          "internalType": "uint256",
          "name": "id",
          "type": "uint256"
        },
        {
          "internalType": "uint256",
          "name": "value",
          "type": "uint256"
        },
        {
          "internalType": "bytes",
          "name": "data",
          "type": "bytes"
        }
      ],
      "name": "onERC1155Received",
      "outputs": [
        {
          "internalType": "bytes4",
          "name": "",
          "type": "bytes4"
        }
      ],
      "stateMutability": "nonpayable",
      "type": "function"
    },
    {
      "inputs": [],
      "name": "owner",
      "outputs": [
        {
          "internalType": "address",
          "name": "",
          "type": "address"
        }
      ],
      "stateMutability": "view",
      "type": "function"
    },
    {
      "inputs": [
        {
          "internalType": "bytes32[]",
          "name": "proof",
          "type": "bytes32[]"
        },
        {
          "internalType": "address",
          "name": "recipient",
          "type": "address"
        },
        {
          "internalType": "uint256",
          "name": "newAnichessGameMultiplierNumerator",
          "type": "uint256"
        }
      ],
      "name": "setAnichessGameMultiplierNumerator",
      "outputs": [],
      "stateMutability": "nonpayable",
      "type": "function"
    },
    {
      "inputs": [
        {
          "internalType": "bytes4",
          "name": "interfaceId",
          "type": "bytes4"
        }
      ],
      "name": "supportsInterface",
      "outputs": [
        {
          "internalType": "bool",
          "name": "",
          "type": "bool"
        }
      ],
      "stateMutability": "view",
      "type": "function"
    },
    {
      "inputs": [
        {
          "internalType": "address",
          "name": "newOwner",
          "type": "address"
        }
      ],
      "name": "transferOwnership",
      "outputs": [],
      "stateMutability": "nonpayable",
      "type": "function"
    },
    {
      "inputs": [
        {
          "internalType": "uint256",
          "name": "",
          "type": "uint256"
        },
        {
          "internalType": "address",
          "name": "",
          "type": "address"
        }
      ],
      "name": "userAshByCycle",
      "outputs": [
        {
          "internalType": "uint256",
          "name": "",
          "type": "uint256"
        }
      ],
      "stateMutability": "view",
      "type": "function"
    }
  ],
  "bytecode": "0x6101c060405261271060a0526001610160523480156200001e57600080fd5b5060405162001ef238038062001ef28339810160408190526200004191620003aa565b6001600160a01b038116608052336200006f630271189760e51b600162000067620000d3565b919062000109565b62000085816200007e62000166565b9062000196565b5060e08a90526101008990526101208890526101808490526001600160a01b0380841661014052871660c0526101a0829052620000c3868662000209565b50505050505050505050620004b7565b6000806200010360017fca9d3e17f264b0f3984e2634e94adb37fa3e6a8103f06aeae6fa59e21c769f5e6200047f565b92915050565b600160e01b6001600160e01b031983160162000138576040516372c683bb60e01b815260040160405180910390fd5b6001600160e01b03199190911660009081526020929092526040909120805460ff1916911515919091179055565b6000806200010360017fc9ed16f33ab3a66c84bfd83099ccb2a8845871e2e1c1928f63797152f0fd54cd6200047f565b6001600160a01b03811615620001ed5781546001600160a01b0319166001600160a01b03821690811783556040516000907f8be0079c531659141344cd1fd0a4f28419497f9722a3daafe3b4186f6b6457e0908290a35b620002056307f5828d60e41b600162000067620000d3565b5050565b80518251146200022c576040516335e83ac360e01b815260040160405180910390fd5b60005b8251811015620002cb57600081815260046020526040902054156200029157828181518110620002635762000263620004a1565b602002602001015160405163faf6788760e01b81526004016200028891815260200190565b60405180910390fd5b818181518110620002a657620002a6620004a1565b602090810291909101810151600083815260049092526040909120556001016200022f565b505050565b80516001600160a01b0381168114620002e857600080fd5b919050565b634e487b7160e01b600052604160045260246000fd5b600082601f8301126200031557600080fd5b815160206001600160401b0380831115620003345762000334620002ed565b8260051b604051601f19603f830116810181811084821117156200035c576200035c620002ed565b60405293845260208187018101949081019250878511156200037d57600080fd5b6020870191505b848210156200039f5781518352918301919083019062000384565b979650505050505050565b6000806000806000806000806000806101408b8d031215620003cb57600080fd5b8a51995060208b0151985060408b01519750620003eb60608c01620002d0565b60808c01519097506001600160401b03808211156200040957600080fd5b620004178e838f0162000303565b975060a08d01519150808211156200042e57600080fd5b506200043d8d828e0162000303565b95505060c08b015193506200045560e08c01620002d0565b92506101008b015191506200046e6101208c01620002d0565b90509295989b9194979a5092959850565b818103818111156200010357634e487b7160e01b600052601160045260246000fd5b634e487b7160e01b600052603260045260246000fd5b60805160a05160c05160e05161010051610120516101405161016051610180516101a05161196b62000587600039600081816103c90152610c2c0152600081816102930152610edb0152600081816101e90152610aab01526000818161045c0152610a520152600081816101b4015261069e01526000818161048301526105cc01526000818161026c01526105f001526000818161030701526106390152600081816103a20152610865015260008181610222015281816102c5015281816111ed0152611275015261196b6000f3fe608060405234801561001057600080fd5b50600436106101825760003560e01c8063918f8674116100d8578063cd18a34f1161008c578063f23a6e6111610066578063f23a6e61146104c8578063f2fde38b146104db578063fa9fdc6a146104ee57600080fd5b8063cd18a34f14610457578063cd421fbf1461047e578063e1c96c20146104a557600080fd5b8063b28fd6e6116100bd578063b28fd6e6146103eb578063bab2f5521461040b578063bc197c811461041357600080fd5b8063918f86741461039d578063a018e659146103c457600080fd5b8063491bde661161013a57806372d69aa01161011457806372d69aa0146103025780637e26d0cd146103295780638da5cb5b1461039557600080fd5b8063491bde661461026757806351e75e8b1461028e578063572b6c05146102b557600080fd5b80631de0e40b1161016b5780631de0e40b146101e457806324190c6e1461020b5780632b4c9f161461022057600080fd5b806301ffc9a714610187578063043063bc146101af575b600080fd5b61019a610195366004611366565b610519565b60405190151581526020015b60405180910390f35b6101d67f000000000000000000000000000000000000000000000000000000000000000081565b6040519081526020016101a6565b6101d67f000000000000000000000000000000000000000000000000000000000000000081565b61021e61021936600461141d565b610533565b005b7f00000000000000000000000000000000000000000000000000000000000000005b60405173ffffffffffffffffffffffffffffffffffffffff90911681526020016101a6565b6101d67f000000000000000000000000000000000000000000000000000000000000000081565b6101d67f000000000000000000000000000000000000000000000000000000000000000081565b61019a6102c3366004611479565b7f000000000000000000000000000000000000000000000000000000000000000073ffffffffffffffffffffffffffffffffffffffff90811691161490565b6102427f000000000000000000000000000000000000000000000000000000000000000081565b610367610337366004611479565b73ffffffffffffffffffffffffffffffffffffffff1660009081526003602052604090205490608082901c908290565b604080519384526fffffffffffffffffffffffffffffffff92831660208501529116908201526060016101a6565b61024261059c565b6101d67f000000000000000000000000000000000000000000000000000000000000000081565b6101d67f000000000000000000000000000000000000000000000000000000000000000081565b6101d66103f9366004611479565b60036020526000908152604090205481565b6101d66105c8565b6104266104213660046114d6565b61061f565b6040517fffffffff0000000000000000000000000000000000000000000000000000000090911681526020016101a6565b6102427f000000000000000000000000000000000000000000000000000000000000000081565b6101d67f000000000000000000000000000000000000000000000000000000000000000081565b61019a6104b3366004611591565b60026020526000908152604090205460ff1681565b6104266104d63660046115aa565b610a38565b61021e6104e9366004611479565b610cd9565b6101d66104fc366004611622565b600160209081526000928352604080842090915290825290205481565b600061052d82610527610cf7565b90610d25565b92915050565b610595848480806020026020016040519081016040528093929190818152602001838360200280828437600092018290525073ffffffffffffffffffffffffffffffffffffffff88168152600360205260409020548793509150859050610dff565b5050505050565b60006105c36105a9611047565b5473ffffffffffffffffffffffffffffffffffffffff1690565b905090565b60007f00000000000000000000000000000000000000000000000000000000000000006106157f00000000000000000000000000000000000000000000000000000000000000004261167d565b6105c39190611690565b60003373ffffffffffffffffffffffffffffffffffffffff7f00000000000000000000000000000000000000000000000000000000000000001614610690576040517fc1ab6dc100000000000000000000000000000000000000000000000000000000815260040160405180910390fd5b600061069a6105c8565b90507f00000000000000000000000000000000000000000000000000000000000000008111156106fe576040517f764e560f000000000000000000000000000000000000000000000000000000008152600481018290526024015b60405180910390fd5b6000805b888110156107e7576000600460008c8c85818110610722576107226116cb565b905060200201358152602001908152602001600020549050806000036107ae57338b8b84818110610755576107556116cb565b6040517f1912ea5100000000000000000000000000000000000000000000000000000000815273ffffffffffffffffffffffffffffffffffffffff909416600485015260200291909101356024830152506044016106f5565b808989848181106107c1576107c16116cb565b905060200201356107d291906116fa565b6107dc9084611711565b925050600101610702565b5073ffffffffffffffffffffffffffffffffffffffff8a16600090815260036020526040902054608081901c816fffffffffffffffffffffffffffffffff81161561084b576108486fffffffffffffffffffffffffffffffff8216856116fa565b93505b6fffffffffffffffffffffffffffffffff8216156108ad577f00000000000000000000000000000000000000000000000000000000000000006108a06fffffffffffffffffffffffffffffffff8416866116fa565b6108aa9190611690565b93505b836001600087815260200190815260200160002060008f73ffffffffffffffffffffffffffffffffffffffff1673ffffffffffffffffffffffffffffffffffffffff168152602001908152602001600020600082825461090d9190611711565b909155505060008581526020819052604081208054869290610930908490611711565b925050819055503373ffffffffffffffffffffffffffffffffffffffff1663805349348e8e8e8e8e6040518663ffffffff1660e01b815260040161097895949392919061176f565b600060405180830381600087803b15801561099257600080fd5b505af11580156109a6573d6000803e3d6000fd5b50505050848d73ffffffffffffffffffffffffffffffffffffffff167f12154d1bf24e3c99606a6e0a08972355a7a52b92d6f9093e67f843b070e06ff6428f8f8f8f8b8b6040516109fd97969594939291906117be565b60405180910390a3507fbc197c81000000000000000000000000000000000000000000000000000000009d9c50505050505050505050505050565b60003373ffffffffffffffffffffffffffffffffffffffff7f00000000000000000000000000000000000000000000000000000000000000001614610aa9576040517fc1ab6dc100000000000000000000000000000000000000000000000000000000815260040160405180910390fd5b7f00000000000000000000000000000000000000000000000000000000000000008514610b0b576040517f1912ea51000000000000000000000000000000000000000000000000000000008152336004820152602481018690526044016106f5565b83600114610b4f576040517ff789eb2f00000000000000000000000000000000000000000000000000000000815260048101859052600160248201526044016106f5565b73ffffffffffffffffffffffffffffffffffffffff86166000908152600360205260409020548215610b9f57600080610b8a85870187611831565b91509150610b9a828a8584610dff565b925050505b6fffffffffffffffffffffffffffffffff811615610c01576040517f03a0028700000000000000000000000000000000000000000000000000000000815273ffffffffffffffffffffffffffffffffffffffff881660048201526024016106f5565b73ffffffffffffffffffffffffffffffffffffffff87166000818152600360209081526040918290207f00000000000000000000000000000000000000000000000000000000000000007fffffffffffffffffffffffffffffffff0000000000000000000000000000000086161790819055825185815291820181905292917f54519572e3429998e82594d8b7f18c8099087447d701cbaa619b5e26f6de47eb910160405180910390a2507ff23a6e610000000000000000000000000000000000000000000000000000000098975050505050505050565b610cf4610ce4611075565b82610ced611047565b919061107f565b50565b60008061052d60017fca9d3e17f264b0f3984e2634e94adb37fa3e6a8103f06aeae6fa59e21c769f5e61167d565b60007c01000000000000000000000000000000000000000000000000000000007fffffffff00000000000000000000000000000000000000000000000000000000831601610d755750600061052d565b7ffe003659000000000000000000000000000000000000000000000000000000007fffffffff00000000000000000000000000000000000000000000000000000000831601610dc65750600161052d565b507fffffffff00000000000000000000000000000000000000000000000000000000166000908152602091909152604090205460ff1690565b6040517fffffffffffffffffffffffffffffffffffffffff000000000000000000000000606085901b166020820152603481018290526000908190605401604080517fffffffffffffffffffffffffffffffffffffffffffffffffffffffffffffffe081840301815291815281516020928301206000818152600290935291205490915060ff1615610ed5576040517f18ed059000000000000000000000000000000000000000000000000000000000815273ffffffffffffffffffffffffffffffffffffffff861660048201526024016106f5565b610f00867f000000000000000000000000000000000000000000000000000000000000000083611194565b610f36576040517f09bde33900000000000000000000000000000000000000000000000000000000815260040160405180910390fd5b608084901c8015610f8b576040517f18ed059000000000000000000000000000000000000000000000000000000000815273ffffffffffffffffffffffffffffffffffffffff871660048201526024016106f5565b73ffffffffffffffffffffffffffffffffffffffff861660008181526003602090815260408083206fffffffffffffffffffffffffffffffff8a1660808a901b1790819055868452600283529281902080547fffffffffffffffffffffffffffffffffffffffffffffffffffffffffffffff0016600117905580518981529182018390529195507f54519572e3429998e82594d8b7f18c8099087447d701cbaa619b5e26f6de47eb910160405180910390a25050949350505050565b60008061052d60017fc9ed16f33ab3a66c84bfd83099ccb2a8845871e2e1c1928f63797152f0fd54cd61167d565b60006105c36111aa565b825473ffffffffffffffffffffffffffffffffffffffff90811690831681146110ec576040517f2ef4875e00000000000000000000000000000000000000000000000000000000815273ffffffffffffffffffffffffffffffffffffffff841660048201526024016106f5565b8173ffffffffffffffffffffffffffffffffffffffff168173ffffffffffffffffffffffffffffffffffffffff161461118e5783547fffffffffffffffffffffffff00000000000000000000000000000000000000001673ffffffffffffffffffffffffffffffffffffffff8381169182178655604051908316907f8be0079c531659141344cd1fd0a4f28419497f9722a3daafe3b4186f6b6457e090600090a35b50505050565b6000826111a185846112f1565b14949350505050565b6000333214806111ba5750601836105b156111c457503390565b7fffffffffffffffffffffffffffffffffffffffffffffffffffffffffffffffec36013560601c7f000000000000000000000000000000000000000000000000000000000000000073ffffffffffffffffffffffffffffffffffffffff163314806112e057506040517f8929a8ca00000000000000000000000000000000000000000000000000000000815273ffffffffffffffffffffffffffffffffffffffff82811660048301523360248301527f00000000000000000000000000000000000000000000000000000000000000001690638929a8ca90604401602060405180830381865afa1580156112bc573d6000803e3d6000fd5b505050506040513d601f19601f820116820180604052508101906112e09190611913565b156112ea57919050565b3391505090565b600081815b845181101561132c5761132282868381518110611315576113156116cb565b6020026020010151611334565b91506001016112f6565b509392505050565b600081831061135057600082815260208490526040902061135f565b60008381526020839052604090205b9392505050565b60006020828403121561137857600080fd5b81357fffffffff000000000000000000000000000000000000000000000000000000008116811461135f57600080fd5b60008083601f8401126113ba57600080fd5b50813567ffffffffffffffff8111156113d257600080fd5b6020830191508360208260051b85010111156113ed57600080fd5b9250929050565b803573ffffffffffffffffffffffffffffffffffffffff8116811461141857600080fd5b919050565b6000806000806060858703121561143357600080fd5b843567ffffffffffffffff81111561144a57600080fd5b611456878288016113a8565b90955093506114699050602086016113f4565b9396929550929360400135925050565b60006020828403121561148b57600080fd5b61135f826113f4565b60008083601f8401126114a657600080fd5b50813567ffffffffffffffff8111156114be57600080fd5b6020830191508360208285010111156113ed57600080fd5b60008060008060008060008060a0898b0312156114f257600080fd5b6114fb896113f4565b975061150960208a016113f4565b9650604089013567ffffffffffffffff8082111561152657600080fd5b6115328c838d016113a8565b909850965060608b013591508082111561154b57600080fd5b6115578c838d016113a8565b909650945060808b013591508082111561157057600080fd5b5061157d8b828c01611494565b999c989b5096995094979396929594505050565b6000602082840312156115a357600080fd5b5035919050565b60008060008060008060a087890312156115c357600080fd5b6115cc876113f4565b95506115da602088016113f4565b94506040870135935060608701359250608087013567ffffffffffffffff81111561160457600080fd5b61161089828a01611494565b979a9699509497509295939492505050565b6000806040838503121561163557600080fd5b82359150611645602084016113f4565b90509250929050565b7f4e487b7100000000000000000000000000000000000000000000000000000000600052601160045260246000fd5b8181038181111561052d5761052d61164e565b6000826116c6577f4e487b7100000000000000000000000000000000000000000000000000000000600052601260045260246000fd5b500490565b7f4e487b7100000000000000000000000000000000000000000000000000000000600052603260045260246000fd5b808202811582820484141761052d5761052d61164e565b8082018082111561052d5761052d61164e565b81835260007f07ffffffffffffffffffffffffffffffffffffffffffffffffffffffffffffff83111561175657600080fd5b8260051b80836020870137939093016020019392505050565b73ffffffffffffffffffffffffffffffffffffffff8616815260606020820152600061179f606083018688611724565b82810360408401526117b2818587611724565b98975050505050505050565b87815260a0602082015260006117d860a08301888a611724565b82810360408401526117eb818789611724565b606084019590955250506080015295945050505050565b7f4e487b7100000000000000000000000000000000000000000000000000000000600052604160045260246000fd5b6000806040838503121561184457600080fd5b823567ffffffffffffffff8082111561185c57600080fd5b818501915085601f83011261187057600080fd5b813560208282111561188457611884611802565b8160051b6040517fffffffffffffffffffffffffffffffffffffffffffffffffffffffffffffffe0603f830116810181811086821117156118c7576118c7611802565b6040529283528183019350848101820192898411156118e557600080fd5b948201945b83861015611903578535855294820194938201936118ea565b9997909101359750505050505050565b60006020828403121561192557600080fd5b8151801515811461135f57600080fdfea2646970667358221220afea7f5ff0433caa3bb6a4d0aed4edd8c96ef1f8c7f4875c502e2a628c71fd4464736f6c63430008160033",
  "linkReferences": {},
  "deployedLinkReferences": {}
}