{
  "_format": "hh-sol-artifact-1",
  "contractName": "AnichessOrbsBurnPool",
  "sourceName": "contracts/burn/AnichessOrbsBurnPool.sol",
  "abi": [
    {
      "inputs": [
        {
          "internalType": "uint256",
          "name": "initialTime",
          "type": "uint256"
        },
        {
          "internalType": "uint256",
          "name": "cycleDuration",
          "type": "uint256"
        },
        {
          "internalType": "uint256",
          "name": "maxCycle",
          "type": "uint256"
        },
        {
          "internalType": "contract IERC1155Burnable",
          "name": "orbOfPower",
          "type": "address"
        },
        {
          "internalType": "bytes32",
          "name": "merkleRoot",
          "type": "bytes32"
        },
        {
          "internalType": "contract IERC1155Burnable",
          "name": "missingOrb",
          "type": "address"
        },
        {
          "internalType": "contract IForwarderRegistry",
          "name": "forwarderRegistry",
          "type": "address"
        }
      ],
      "stateMutability": "nonpayable",
      "type": "constructor"
    },
    {
      "inputs": [
        {
          "internalType": "bytes32",
          "name": "leaf",
          "type": "bytes32"
        }
      ],
      "name": "AlreadyConsumedLeaf",
      "type": "error"
    },
    {
      "inputs": [
        {
          "internalType": "address",
          "name": "recipient",
          "type": "address"
        }
      ],
      "name": "AlreadySetAnichessGameMultiplierNumerator",
      "type": "error"
    },
    {
      "inputs": [
        {
          "internalType": "address",
          "name": "wallet",
          "type": "address"
        }
      ],
      "name": "AlreadySetTokenMultiplier",
      "type": "error"
    },
    {
      "inputs": [],
      "name": "IllegalInterfaceId",
      "type": "error"
    },
    {
      "inputs": [
        {
          "internalType": "uint256",
          "name": "cycle",
          "type": "uint256"
        }
      ],
      "name": "InvalidCycle",
      "type": "error"
    },
    {
      "inputs": [],
      "name": "InvalidProof",
      "type": "error"
    },
    {
      "inputs": [
        {
          "internalType": "address",
          "name": "token",
          "type": "address"
        }
      ],
      "name": "InvalidToken",
      "type": "error"
    },
    {
      "inputs": [
        {
          "internalType": "address",
          "name": "token",
          "type": "address"
        },
        {
          "internalType": "uint256",
          "name": "tokenId",
          "type": "uint256"
        }
      ],
      "name": "InvalidTokenId",
      "type": "error"
    },
    {
      "inputs": [
        {
          "internalType": "uint256",
          "name": "value",
          "type": "uint256"
        },
        {
          "internalType": "uint256",
          "name": "expectedValue",
          "type": "uint256"
        }
      ],
      "name": "InvalidTokenValue",
      "type": "error"
    },
    {
      "inputs": [],
      "name": "ZeroCycleDuration",
      "type": "error"
    },
    {
      "inputs": [],
      "name": "ZeroMaxCycle",
      "type": "error"
    },
    {
      "anonymous": false,
      "inputs": [
        {
          "indexed": true,
          "internalType": "address",
          "name": "burner",
          "type": "address"
        },
        {
          "indexed": true,
          "internalType": "uint256",
          "name": "cycle",
          "type": "uint256"
        },
        {
          "indexed": false,
          "internalType": "uint256[]",
          "name": "ids",
          "type": "uint256[]"
        },
        {
          "indexed": false,
          "internalType": "uint256[]",
          "name": "values",
          "type": "uint256[]"
        },
        {
          "indexed": false,
          "internalType": "uint256",
          "name": "ash",
          "type": "uint256"
        },
        {
          "indexed": false,
          "internalType": "uint256",
          "name": "multiplierInfo",
          "type": "uint256"
        }
      ],
      "name": "GenerateAsh",
      "type": "event"
    },
    {
      "anonymous": false,
      "inputs": [
        {
          "indexed": true,
          "internalType": "address",
          "name": "recipient",
          "type": "address"
        },
        {
          "indexed": false,
          "internalType": "uint256",
          "name": "curr",
          "type": "uint256"
        },
        {
          "indexed": false,
          "internalType": "uint256",
          "name": "updated",
          "type": "uint256"
        }
      ],
      "name": "UpdateMultiplierInfo",
      "type": "event"
    },
    {
      "inputs": [],
      "name": "CYCLE_DURATION",
      "outputs": [
        {
          "internalType": "uint256",
          "name": "",
          "type": "uint256"
        }
      ],
      "stateMutability": "view",
      "type": "function"
    },
    {
      "inputs": [],
      "name": "INITIAL_TIME",
      "outputs": [
        {
          "internalType": "uint256",
          "name": "",
          "type": "uint256"
        }
      ],
      "stateMutability": "view",
      "type": "function"
    },
    {
      "inputs": [],
      "name": "MAX_CYCLE",
      "outputs": [
        {
          "internalType": "uint256",
          "name": "",
          "type": "uint256"
        }
      ],
      "stateMutability": "view",
      "type": "function"
    },
    {
      "inputs": [],
      "name": "MERKLE_ROOT",
      "outputs": [
        {
          "internalType": "bytes32",
          "name": "",
          "type": "bytes32"
        }
      ],
      "stateMutability": "view",
      "type": "function"
    },
    {
      "inputs": [],
      "name": "MISSING_ORB",
      "outputs": [
        {
          "internalType": "contract IERC1155Burnable",
          "name": "",
          "type": "address"
        }
      ],
      "stateMutability": "view",
      "type": "function"
    },
    {
      "inputs": [],
      "name": "ORB_OF_POWER",
      "outputs": [
        {
          "internalType": "contract IERC1155Burnable",
          "name": "",
          "type": "address"
        }
      ],
      "stateMutability": "view",
      "type": "function"
    },
    {
      "inputs": [],
      "name": "TOKEN_MULTIPLIER",
      "outputs": [
        {
          "internalType": "uint256",
          "name": "",
          "type": "uint256"
        }
      ],
      "stateMutability": "view",
      "type": "function"
    },
    {
      "inputs": [],
      "name": "currentCycle",
      "outputs": [
        {
          "internalType": "uint256",
          "name": "",
          "type": "uint256"
        }
      ],
      "stateMutability": "view",
      "type": "function"
    },
    {
      "inputs": [],
      "name": "forwarderRegistry",
      "outputs": [
        {
          "internalType": "contract IForwarderRegistry",
          "name": "",
          "type": "address"
        }
      ],
      "stateMutability": "view",
      "type": "function"
    },
    {
      "inputs": [
        {
          "internalType": "address",
          "name": "forwarder",
          "type": "address"
        }
      ],
      "name": "isTrustedForwarder",
      "outputs": [
        {
          "internalType": "bool",
          "name": "",
          "type": "bool"
        }
      ],
      "stateMutability": "view",
      "type": "function"
    },
    {
      "inputs": [
        {
          "internalType": "bytes32",
          "name": "",
          "type": "bytes32"
        }
      ],
      "name": "leafConsumptionStatus",
      "outputs": [
        {
          "internalType": "bool",
          "name": "",
          "type": "bool"
        }
      ],
      "stateMutability": "view",
      "type": "function"
    },
    {
      "inputs": [
        {
          "internalType": "address",
          "name": "",
          "type": "address"
        }
      ],
      "name": "multiplierInfos",
      "outputs": [
        {
          "internalType": "uint256",
          "name": "",
          "type": "uint256"
        }
      ],
      "stateMutability": "view",
      "type": "function"
    },
    {
      "inputs": [
        {
          "internalType": "address",
          "name": "",
          "type": "address"
        },
        {
          "internalType": "address",
          "name": "from",
          "type": "address"
        },
        {
          "internalType": "uint256[]",
          "name": "ids",
          "type": "uint256[]"
        },
        {
          "internalType": "uint256[]",
          "name": "values",
          "type": "uint256[]"
        },
        {
          "internalType": "bytes",
          "name": "data",
          "type": "bytes"
        }
      ],
      "name": "onERC1155BatchReceived",
      "outputs": [
        {
          "internalType": "bytes4",
          "name": "",
          "type": "bytes4"
        }
      ],
      "stateMutability": "nonpayable",
      "type": "function"
    },
    {
      "inputs": [
        {
          "internalType": "address",
          "name": "",
          "type": "address"
        },
        {
          "internalType": "address",
          "name": "from",
          "type": "address"
        },
        {
          "internalType": "uint256",
          "name": "id",
          "type": "uint256"
        },
        {
          "internalType": "uint256",
          "name": "value",
          "type": "uint256"
        },
        {
          "internalType": "bytes",
          "name": "data",
          "type": "bytes"
        }
      ],
      "name": "onERC1155Received",
      "outputs": [
        {
          "internalType": "bytes4",
          "name": "",
          "type": "bytes4"
        }
      ],
      "stateMutability": "nonpayable",
      "type": "function"
    },
    {
      "inputs": [
        {
          "internalType": "bytes4",
          "name": "interfaceId",
          "type": "bytes4"
        }
      ],
      "name": "supportsInterface",
      "outputs": [
        {
          "internalType": "bool",
          "name": "",
          "type": "bool"
        }
      ],
      "stateMutability": "view",
      "type": "function"
    },
    {
      "inputs": [
        {
          "internalType": "uint256",
          "name": "",
          "type": "uint256"
        }
      ],
      "name": "totalAshPerCycle",
      "outputs": [
        {
          "internalType": "uint256",
          "name": "",
          "type": "uint256"
        }
      ],
      "stateMutability": "view",
      "type": "function"
    },
    {
      "inputs": [
        {
          "internalType": "uint256",
          "name": "",
          "type": "uint256"
        },
        {
          "internalType": "address",
          "name": "",
          "type": "address"
        }
      ],
      "name": "userAshPerCycle",
      "outputs": [
        {
          "internalType": "uint256",
          "name": "",
          "type": "uint256"
        }
      ],
      "stateMutability": "view",
      "type": "function"
    }
  ],
  "bytecode": "0x6101606040523480156200001257600080fd5b50604051620018b8380380620018b8833981016040819052620000359162000186565b6001600160a01b03811660805262000062630271189760e51b60016200005a620000da565b919062000110565b60e087905260008690036200008a5760405163b870efbd60e01b815260040160405180910390fd5b6101008690526000859003620000b357604051637e5e559b60e11b815260040160405180910390fd5b5061012093909352610140526001600160a01b0391821660c0521660a05250620002239050565b6000806200010a60017fca9d3e17f264b0f3984e2634e94adb37fa3e6a8103f06aeae6fa59e21c769f5e62000201565b92915050565b600160e01b6001600160e01b03198316016200013f576040516372c683bb60e01b815260040160405180910390fd5b6001600160e01b03199190911660009081526020929092526040909120805460ff1916911515919091179055565b6001600160a01b03811681146200018357600080fd5b50565b600080600080600080600060e0888a031215620001a257600080fd5b8751965060208801519550604088015194506060880151620001c4816200016d565b608089015160a08a01519195509350620001de816200016d565b60c0890151909250620001f1816200016d565b8091505092959891949750929550565b818103818111156200010a57634e487b7160e01b600052601160045260246000fd5b60805160a05160c05160e0516101005161012051610140516115fb620002bd6000396000818161024e0152610e9301526000818161014d015281816104c901526109ea01526000818161037501526103eb0152600081816101fc015261040f01526000818161034e01526108fc0152600081816101820152818161045d01526105d60152600081816101d3015261028001526115fb6000f3fe608060405234801561001057600080fd5b506004361061011b5760003560e01c8063572b6c05116100b2578063bc197c8111610081578063cd421fbf11610066578063cd421fbf14610370578063e1c96c2014610397578063f23a6e61146103ba57600080fd5b8063bc197c8114610305578063cd18a34f1461034957600080fd5b8063572b6c0514610270578063ab504e73146102bd578063b28fd6e6146102dd578063bab2f552146102fd57600080fd5b80632b4c9f16116100ee5780632b4c9f16146101d1578063491bde66146101f75780634dac1c2b1461021e57806351e75e8b1461024957600080fd5b806301ffc9a714610120578063043063bc1461014857806328a979cf1461017d5780632b093fe9146101c9575b600080fd5b61013361012e366004611080565b6103cd565b60405190151581526020015b60405180910390f35b61016f7f000000000000000000000000000000000000000000000000000000000000000081565b60405190815260200161013f565b6101a47f000000000000000000000000000000000000000000000000000000000000000081565b60405173ffffffffffffffffffffffffffffffffffffffff909116815260200161013f565b61016f600281565b7f00000000000000000000000000000000000000000000000000000000000000006101a4565b61016f7f000000000000000000000000000000000000000000000000000000000000000081565b61016f61022c3660046110e6565b600160209081526000928352604080842090915290825290205481565b61016f7f000000000000000000000000000000000000000000000000000000000000000081565b61013361027e366004611112565b7f000000000000000000000000000000000000000000000000000000000000000073ffffffffffffffffffffffffffffffffffffffff90811691161490565b61016f6102cb36600461112d565b60006020819052908152604090205481565b61016f6102eb366004611112565b60036020526000908152604090205481565b61016f6103e7565b6103186103133660046111d4565b610443565b6040517fffffffff00000000000000000000000000000000000000000000000000000000909116815260200161013f565b6101a47f000000000000000000000000000000000000000000000000000000000000000081565b61016f7f000000000000000000000000000000000000000000000000000000000000000081565b6101336103a536600461112d565b60026020526000908152604090205460ff1681565b6103186103c836600461128f565b6108e2565b60006103e1826103db610c3c565b90610c6a565b92915050565b60007f00000000000000000000000000000000000000000000000000000000000000006104347f000000000000000000000000000000000000000000000000000000000000000042611336565b61043e9190611349565b905090565b60003373ffffffffffffffffffffffffffffffffffffffff7f000000000000000000000000000000000000000000000000000000000000000016146104bb576040517f961c9a4f0000000000000000000000000000000000000000000000000000000081523360048201526024015b60405180910390fd5b60006104c56103e7565b90507f0000000000000000000000000000000000000000000000000000000000000000811115610524576040517f764e560f000000000000000000000000000000000000000000000000000000008152600481018290526024016104b2565b6000805b888110156106995787878281811061054257610542611384565b905060200201356000036105a75787878281811061056257610562611384565b6040517ff3cc8ce400000000000000000000000000000000000000000000000000000000815260209091029290920135600483015250600060248201526044016104b2565b60006105ca8b8b848181106105be576105be611384565b90506020020135610d44565b905080600003610660577f00000000000000000000000000000000000000000000000000000000000000008b8b8481811061060757610607611384565b6040517f1912ea5100000000000000000000000000000000000000000000000000000000815273ffffffffffffffffffffffffffffffffffffffff909416600485015260200291909101356024830152506044016104b2565b8089898481811061067357610673611384565b9050602002013561068491906113b3565b61068e90846113ca565b925050600101610528565b5073ffffffffffffffffffffffffffffffffffffffff8a1660009081526003602052604090205484156106ea576000806106d58789018961140c565b915091506106e5828e8584610dc3565b925050505b6fffffffffffffffffffffffffffffffff8116608082901c81156107155761071282856113b3565b93505b6fffffffffffffffffffffffffffffffff8116156107595761271061074c6fffffffffffffffffffffffffffffffff8316866113b3565b6107569190611349565b93505b836001600087815260200190815260200160002060008f73ffffffffffffffffffffffffffffffffffffffff1673ffffffffffffffffffffffffffffffffffffffff16815260200190815260200160002060008282546107b991906113ca565b9091555050600085815260208190526040812080548692906107dc9084906113ca565b925050819055503373ffffffffffffffffffffffffffffffffffffffff166380534934308e8e8e8e6040518663ffffffff1660e01b8152600401610824959493929190611539565b600060405180830381600087803b15801561083e57600080fd5b505af1158015610852573d6000803e3d6000fd5b50505050848d73ffffffffffffffffffffffffffffffffffffffff167f607d04b62b6720200ee29c63ac2e4b0aa4024c85f7b80181ac61d6bb6f5e797a8e8e8e8e8a8a6040516108a796959493929190611588565b60405180910390a3507fbc197c81000000000000000000000000000000000000000000000000000000009d9c50505050505050505050505050565b60003373ffffffffffffffffffffffffffffffffffffffff7f00000000000000000000000000000000000000000000000000000000000000001614610955576040517f961c9a4f0000000000000000000000000000000000000000000000000000000081523360048201526024016104b2565b60018514610998576040517f1912ea51000000000000000000000000000000000000000000000000000000008152336004820152602481018690526044016104b2565b836001146109dc576040517ff3cc8ce400000000000000000000000000000000000000000000000000000000815260048101859052600160248201526044016104b2565b60006109e66103e7565b90507f0000000000000000000000000000000000000000000000000000000000000000811115610a45576040517f764e560f000000000000000000000000000000000000000000000000000000008152600481018290526024016104b2565b73ffffffffffffffffffffffffffffffffffffffff87166000908152600360205260409020546fffffffffffffffffffffffffffffffff811615610acd576040517f55c9045d00000000000000000000000000000000000000000000000000000000815273ffffffffffffffffffffffffffffffffffffffff891660048201526024016104b2565b73ffffffffffffffffffffffffffffffffffffffff881660009081526003602052604090207fffffffffffffffffffffffffffffffff000000000000000000000000000000008216600217908190558415610b4557600080610b318789018961140c565b91509150610b41828c8584610dc3565b5050505b6040517f124d91e50000000000000000000000000000000000000000000000000000000081523060048201526024810189905260448101889052339063124d91e590606401600060405180830381600087803b158015610ba457600080fd5b505af1158015610bb8573d6000803e3d6000fd5b5050604080518581526020810185905273ffffffffffffffffffffffffffffffffffffffff8d1693507f54519572e3429998e82594d8b7f18c8099087447d701cbaa619b5e26f6de47eb92500160405180910390a2507ff23a6e61000000000000000000000000000000000000000000000000000000009998505050505050505050565b6000806103e160017fca9d3e17f264b0f3984e2634e94adb37fa3e6a8103f06aeae6fa59e21c769f5e611336565b60007c01000000000000000000000000000000000000000000000000000000007fffffffff00000000000000000000000000000000000000000000000000000000831601610cba575060006103e1565b7ffe003659000000000000000000000000000000000000000000000000000000007fffffffff00000000000000000000000000000000000000000000000000000000831601610d0b575060016103e1565b507fffffffff00000000000000000000000000000000000000000000000000000000166000908152602091909152604090205460ff1690565b600081600103610d5657506001919050565b81600203610d6657506003919050565b81600303610d7657506003919050565b81600403610d8657506005919050565b81600503610d9657506009919050565b81600603610da657506019919050565b81600703610db657506010919050565b506000919050565b919050565b6000608083901c15610e19576040517f18ed059000000000000000000000000000000000000000000000000000000000815273ffffffffffffffffffffffffffffffffffffffff851660048201526024016104b2565b6040517fffffffffffffffffffffffffffffffffffffffff000000000000000000000000606086901b16602082015260348101839052600090605401604080517fffffffffffffffffffffffffffffffffffffffffffffffffffffffffffffffe081840301815291905280516020909101209050610eb8867f000000000000000000000000000000000000000000000000000000000000000083610ff5565b610eee576040517f09bde33900000000000000000000000000000000000000000000000000000000815260040160405180910390fd5b60008181526002602052604090205460ff1615610f3a576040517f689301e8000000000000000000000000000000000000000000000000000000008152600481018290526024016104b2565b73ffffffffffffffffffffffffffffffffffffffff851660008181526003602090815260408083206fffffffffffffffffffffffffffffffff8916608089901b1790819055858452600283529281902080547fffffffffffffffffffffffffffffffffffffffffffffffffffffffffffffff0016600117905580518881529182018390529194507f54519572e3429998e82594d8b7f18c8099087447d701cbaa619b5e26f6de47eb910160405180910390a250949350505050565b600082611002858461100b565b14949350505050565b600081815b84518110156110465761103c8286838151811061102f5761102f611384565b602002602001015161104e565b9150600101611010565b509392505050565b600081831061106a576000828152602084905260409020611079565b60008381526020839052604090205b9392505050565b60006020828403121561109257600080fd5b81357fffffffff000000000000000000000000000000000000000000000000000000008116811461107957600080fd5b803573ffffffffffffffffffffffffffffffffffffffff81168114610dbe57600080fd5b600080604083850312156110f957600080fd5b82359150611109602084016110c2565b90509250929050565b60006020828403121561112457600080fd5b611079826110c2565b60006020828403121561113f57600080fd5b5035919050565b60008083601f84011261115857600080fd5b50813567ffffffffffffffff81111561117057600080fd5b6020830191508360208260051b850101111561118b57600080fd5b9250929050565b60008083601f8401126111a457600080fd5b50813567ffffffffffffffff8111156111bc57600080fd5b60208301915083602082850101111561118b57600080fd5b60008060008060008060008060a0898b0312156111f057600080fd5b6111f9896110c2565b975061120760208a016110c2565b9650604089013567ffffffffffffffff8082111561122457600080fd5b6112308c838d01611146565b909850965060608b013591508082111561124957600080fd5b6112558c838d01611146565b909650945060808b013591508082111561126e57600080fd5b5061127b8b828c01611192565b999c989b5096995094979396929594505050565b60008060008060008060a087890312156112a857600080fd5b6112b1876110c2565b95506112bf602088016110c2565b94506040870135935060608701359250608087013567ffffffffffffffff8111156112e957600080fd5b6112f589828a01611192565b979a9699509497509295939492505050565b7f4e487b7100000000000000000000000000000000000000000000000000000000600052601160045260246000fd5b818103818111156103e1576103e1611307565b60008261137f577f4e487b7100000000000000000000000000000000000000000000000000000000600052601260045260246000fd5b500490565b7f4e487b7100000000000000000000000000000000000000000000000000000000600052603260045260246000fd5b80820281158282048414176103e1576103e1611307565b808201808211156103e1576103e1611307565b7f4e487b7100000000000000000000000000000000000000000000000000000000600052604160045260246000fd5b6000806040838503121561141f57600080fd5b823567ffffffffffffffff8082111561143757600080fd5b818501915085601f83011261144b57600080fd5b813560208282111561145f5761145f6113dd565b8160051b6040517fffffffffffffffffffffffffffffffffffffffffffffffffffffffffffffffe0603f830116810181811086821117156114a2576114a26113dd565b6040529283528183019350848101820192898411156114c057600080fd5b948201945b838610156114de578535855294820194938201936114c5565b9997909101359750505050505050565b81835260007f07ffffffffffffffffffffffffffffffffffffffffffffffffffffffffffffff83111561152057600080fd5b8260051b80836020870137939093016020019392505050565b73ffffffffffffffffffffffffffffffffffffffff861681526060602082015260006115696060830186886114ee565b828103604084015261157c8185876114ee565b98975050505050505050565b60808152600061159c60808301888a6114ee565b82810360208401526115af8187896114ee565b604084019590955250506060015294935050505056fea2646970667358221220ac0e6c448015ef23fa1c0e4b1d127972bcb0996e5e5004273b531fe02337b6de64736f6c63430008160033",
  "linkReferences": {},
  "deployedLinkReferences": {}
}