{
  "_format": "hh-sol-artifact-1",
  "contractName": "AnichessOrbsBurnPool",
  "sourceName": "contracts/burn/AnichessOrbsBurnPool.sol",
  "abi": [
    {
      "inputs": [
        {
          "internalType": "uint256",
          "name": "initialTime",
          "type": "uint256"
        },
        {
          "internalType": "uint256",
          "name": "cycleDuration",
          "type": "uint256"
        },
        {
          "internalType": "uint256",
          "name": "maxCycle",
          "type": "uint256"
        },
        {
          "internalType": "contract IERC1155Burnable",
          "name": "orbOfPower",
          "type": "address"
        },
        {
          "components": [
            {
              "internalType": "uint256",
              "name": "tokenId",
              "type": "uint256"
            },
            {
              "internalType": "uint256",
              "name": "weight",
              "type": "uint256"
            }
          ],
          "internalType": "struct AnichessOrbsBurnPool.TokenConfig[]",
          "name": "tokenConfigs",
          "type": "tuple[]"
        },
        {
          "internalType": "bytes32",
          "name": "merkleRoot",
          "type": "bytes32"
        },
        {
          "internalType": "contract IERC1155Burnable",
          "name": "missingOrb",
          "type": "address"
        },
        {
          "internalType": "contract IForwarderRegistry",
          "name": "forwarderRegistry",
          "type": "address"
        }
      ],
      "stateMutability": "nonpayable",
      "type": "constructor"
    },
    {
      "inputs": [
        {
          "internalType": "bytes32",
          "name": "leaf",
          "type": "bytes32"
        }
      ],
      "name": "AlreadyConsumedLeaf",
      "type": "error"
    },
    {
      "inputs": [
        {
          "internalType": "address",
          "name": "recipient",
          "type": "address"
        }
      ],
      "name": "AlreadySetAnichessGameMultiplierNumerator",
      "type": "error"
    },
    {
      "inputs": [
        {
          "internalType": "address",
          "name": "wallet",
          "type": "address"
        }
      ],
      "name": "AlreadySetTokenMultiplier",
      "type": "error"
    },
    {
      "inputs": [
        {
          "internalType": "uint256",
          "name": "tokenId",
          "type": "uint256"
        }
      ],
      "name": "AlreadySetTokenWeight",
      "type": "error"
    },
    {
      "inputs": [],
      "name": "IllegalInterfaceId",
      "type": "error"
    },
    {
      "inputs": [
        {
          "internalType": "uint256",
          "name": "cycle",
          "type": "uint256"
        }
      ],
      "name": "InvalidCycle",
      "type": "error"
    },
    {
      "inputs": [],
      "name": "InvalidProof",
      "type": "error"
    },
    {
      "inputs": [
        {
          "internalType": "address",
          "name": "token",
          "type": "address"
        }
      ],
      "name": "InvalidToken",
      "type": "error"
    },
    {
      "inputs": [
        {
          "internalType": "address",
          "name": "token",
          "type": "address"
        },
        {
          "internalType": "uint256",
          "name": "tokenId",
          "type": "uint256"
        }
      ],
      "name": "InvalidTokenId",
      "type": "error"
    },
    {
      "inputs": [
        {
          "internalType": "uint256",
          "name": "value",
          "type": "uint256"
        },
        {
          "internalType": "uint256",
          "name": "expectedValue",
          "type": "uint256"
        }
      ],
      "name": "InvalidTokenValue",
      "type": "error"
    },
    {
      "inputs": [],
      "name": "ZeroCycleDuration",
      "type": "error"
    },
    {
      "inputs": [],
      "name": "ZeroMaxCycle",
      "type": "error"
    },
    {
      "inputs": [
        {
          "internalType": "uint256",
          "name": "tokenId",
          "type": "uint256"
        }
      ],
      "name": "ZeroTokenWeight",
      "type": "error"
    },
    {
      "anonymous": false,
      "inputs": [
        {
          "indexed": true,
          "internalType": "address",
          "name": "burner",
          "type": "address"
        },
        {
          "indexed": true,
          "internalType": "uint256",
          "name": "cycle",
          "type": "uint256"
        },
        {
          "indexed": false,
          "internalType": "uint256",
          "name": "timestamp",
          "type": "uint256"
        },
        {
          "indexed": false,
          "internalType": "uint256[]",
          "name": "ids",
          "type": "uint256[]"
        },
        {
          "indexed": false,
          "internalType": "uint256[]",
          "name": "values",
          "type": "uint256[]"
        },
        {
          "indexed": false,
          "internalType": "uint256",
          "name": "totalAsh",
          "type": "uint256"
        },
        {
          "indexed": false,
          "internalType": "uint256",
          "name": "multiplierInfo",
          "type": "uint256"
        }
      ],
      "name": "GenerateAsh",
      "type": "event"
    },
    {
      "anonymous": false,
      "inputs": [
        {
          "indexed": true,
          "internalType": "address",
          "name": "recipient",
          "type": "address"
        },
        {
          "indexed": false,
          "internalType": "uint256",
          "name": "curr",
          "type": "uint256"
        },
        {
          "indexed": false,
          "internalType": "uint256",
          "name": "updated",
          "type": "uint256"
        }
      ],
      "name": "UpdateMultiplierInfo",
      "type": "event"
    },
    {
      "inputs": [],
      "name": "CYCLE_DURATION",
      "outputs": [
        {
          "internalType": "uint256",
          "name": "",
          "type": "uint256"
        }
      ],
      "stateMutability": "view",
      "type": "function"
    },
    {
      "inputs": [],
      "name": "INITIAL_TIME",
      "outputs": [
        {
          "internalType": "uint256",
          "name": "",
          "type": "uint256"
        }
      ],
      "stateMutability": "view",
      "type": "function"
    },
    {
      "inputs": [],
      "name": "MAX_CYCLE",
      "outputs": [
        {
          "internalType": "uint256",
          "name": "",
          "type": "uint256"
        }
      ],
      "stateMutability": "view",
      "type": "function"
    },
    {
      "inputs": [],
      "name": "MERKLE_ROOT",
      "outputs": [
        {
          "internalType": "bytes32",
          "name": "",
          "type": "bytes32"
        }
      ],
      "stateMutability": "view",
      "type": "function"
    },
    {
      "inputs": [],
      "name": "MISSING_ORB",
      "outputs": [
        {
          "internalType": "contract IERC1155Burnable",
          "name": "",
          "type": "address"
        }
      ],
      "stateMutability": "view",
      "type": "function"
    },
    {
      "inputs": [],
      "name": "ORB_OF_POWER",
      "outputs": [
        {
          "internalType": "contract IERC1155Burnable",
          "name": "",
          "type": "address"
        }
      ],
      "stateMutability": "view",
      "type": "function"
    },
    {
      "inputs": [],
      "name": "TOKEN_MULTIPLIER",
      "outputs": [
        {
          "internalType": "uint256",
          "name": "",
          "type": "uint256"
        }
      ],
      "stateMutability": "view",
      "type": "function"
    },
    {
      "inputs": [],
      "name": "currentCycle",
      "outputs": [
        {
          "internalType": "uint256",
          "name": "",
          "type": "uint256"
        }
      ],
      "stateMutability": "view",
      "type": "function"
    },
    {
      "inputs": [],
      "name": "forwarderRegistry",
      "outputs": [
        {
          "internalType": "contract IForwarderRegistry",
          "name": "",
          "type": "address"
        }
      ],
      "stateMutability": "view",
      "type": "function"
    },
    {
      "inputs": [
        {
          "internalType": "address",
          "name": "forwarder",
          "type": "address"
        }
      ],
      "name": "isTrustedForwarder",
      "outputs": [
        {
          "internalType": "bool",
          "name": "",
          "type": "bool"
        }
      ],
      "stateMutability": "view",
      "type": "function"
    },
    {
      "inputs": [
        {
          "internalType": "bytes32",
          "name": "",
          "type": "bytes32"
        }
      ],
      "name": "leafConsumptionStatus",
      "outputs": [
        {
          "internalType": "bool",
          "name": "",
          "type": "bool"
        }
      ],
      "stateMutability": "view",
      "type": "function"
    },
    {
      "inputs": [
        {
          "internalType": "address",
          "name": "",
          "type": "address"
        }
      ],
      "name": "multiplierInfos",
      "outputs": [
        {
          "internalType": "uint256",
          "name": "",
          "type": "uint256"
        }
      ],
      "stateMutability": "view",
      "type": "function"
    },
    {
      "inputs": [
        {
          "internalType": "address",
          "name": "",
          "type": "address"
        },
        {
          "internalType": "address",
          "name": "from",
          "type": "address"
        },
        {
          "internalType": "uint256[]",
          "name": "ids",
          "type": "uint256[]"
        },
        {
          "internalType": "uint256[]",
          "name": "values",
          "type": "uint256[]"
        },
        {
          "internalType": "bytes",
          "name": "",
          "type": "bytes"
        }
      ],
      "name": "onERC1155BatchReceived",
      "outputs": [
        {
          "internalType": "bytes4",
          "name": "",
          "type": "bytes4"
        }
      ],
      "stateMutability": "nonpayable",
      "type": "function"
    },
    {
      "inputs": [
        {
          "internalType": "address",
          "name": "",
          "type": "address"
        },
        {
          "internalType": "address",
          "name": "from",
          "type": "address"
        },
        {
          "internalType": "uint256",
          "name": "id",
          "type": "uint256"
        },
        {
          "internalType": "uint256",
          "name": "value",
          "type": "uint256"
        },
        {
          "internalType": "bytes",
          "name": "data",
          "type": "bytes"
        }
      ],
      "name": "onERC1155Received",
      "outputs": [
        {
          "internalType": "bytes4",
          "name": "",
          "type": "bytes4"
        }
      ],
      "stateMutability": "nonpayable",
      "type": "function"
    },
    {
      "inputs": [
        {
          "internalType": "bytes32[]",
          "name": "proof",
          "type": "bytes32[]"
        },
        {
          "internalType": "address",
          "name": "recipient",
          "type": "address"
        },
        {
          "internalType": "uint256",
          "name": "newAnichessGameMultiplierNumerator",
          "type": "uint256"
        }
      ],
      "name": "setAnichessGameMultiplierNumerator",
      "outputs": [],
      "stateMutability": "nonpayable",
      "type": "function"
    },
    {
      "inputs": [
        {
          "internalType": "bytes4",
          "name": "interfaceId",
          "type": "bytes4"
        }
      ],
      "name": "supportsInterface",
      "outputs": [
        {
          "internalType": "bool",
          "name": "",
          "type": "bool"
        }
      ],
      "stateMutability": "view",
      "type": "function"
    },
    {
      "inputs": [
        {
          "internalType": "uint256",
          "name": "",
          "type": "uint256"
        }
      ],
      "name": "tokenWeights",
      "outputs": [
        {
          "internalType": "uint256",
          "name": "",
          "type": "uint256"
        }
      ],
      "stateMutability": "view",
      "type": "function"
    },
    {
      "inputs": [
        {
          "internalType": "uint256",
          "name": "",
          "type": "uint256"
        }
      ],
      "name": "totalAshByCycle",
      "outputs": [
        {
          "internalType": "uint256",
          "name": "",
          "type": "uint256"
        }
      ],
      "stateMutability": "view",
      "type": "function"
    },
    {
      "inputs": [
        {
          "internalType": "uint256",
          "name": "",
          "type": "uint256"
        },
        {
          "internalType": "address",
          "name": "",
          "type": "address"
        }
      ],
      "name": "userAshByCycle",
      "outputs": [
        {
          "internalType": "uint256",
          "name": "",
          "type": "uint256"
        }
      ],
      "stateMutability": "view",
      "type": "function"
    }
  ],
  "bytecode": "0x6101c060405261271060a052600160c05260026101a0523480156200002357600080fd5b5060405162001b3a38038062001b3a83398101604081905262000046916200037d565b6001600160a01b03811660805262000073630271189760e51b60016200006b6200024b565b919062000281565b61010088905260008790036200009c5760405163b870efbd60e01b815260040160405180910390fd5b6101208790526000869003620000c557604051637e5e559b60e11b815260040160405180910390fd5b6101408690526101808390526001600160a01b0380831661016052851660e05260005b84518110156200023c57848181518110620001075762000107620004c5565b6020026020010151602001516000036200016257848181518110620001305762000130620004c5565b60200260200101516000015160405163f3d8422960e01b81526004016200015991815260200190565b60405180910390fd5b6000600460008784815181106200017d576200017d620004c5565b6020026020010151600001518152602001908152602001600020541115620001dd57848181518110620001b457620001b4620004c5565b60200260200101516000015160405163faf6788760e01b81526004016200015991815260200190565b848181518110620001f257620001f2620004c5565b60200260200101516020015160046000878481518110620002175762000217620004c5565b60209081029190910181015151825281019190915260400160002055600101620000e8565b505050505050505050620004fd565b6000806200027b60017fca9d3e17f264b0f3984e2634e94adb37fa3e6a8103f06aeae6fa59e21c769f5e620004db565b92915050565b600160e01b6001600160e01b0319831601620002b0576040516372c683bb60e01b815260040160405180910390fd5b6001600160e01b03199190911660009081526020929092526040909120805460ff1916911515919091179055565b6001600160a01b0381168114620002f457600080fd5b50565b80516200030481620002de565b919050565b634e487b7160e01b600052604160045260246000fd5b604080519081016001600160401b038111828210171562000344576200034462000309565b60405290565b604051601f8201601f191681016001600160401b038111828210171562000375576200037562000309565b604052919050565b600080600080600080600080610100898b0312156200039b57600080fd5b8851975060208901519650604089015195506060890151620003bd81620002de565b60808a01519095506001600160401b0380821115620003db57600080fd5b818b0191508b601f830112620003f057600080fd5b81518181111562000405576200040562000309565b6200041660208260051b016200034a565b91508181835260208301925060208260061b85010191508d8211156200043b57600080fd5b6020840193505b818410156200048a576040848f0312156200045c57600080fd5b620004666200031f565b84518152602085015160208201528084525060208301925060408401935062000442565b8097505050505060a08901519250620004a660c08a01620002f7565b9150620004b660e08a01620002f7565b90509295985092959890939650565b634e487b7160e01b600052603260045260246000fd5b818103818111156200027b57634e487b7160e01b600052601160045260246000fd5b60805160a05160c05160e05161010051610120516101405161016051610180516101a051611589620005b1600039600081816102190152610b0b01526000818161028d0152610db901526000818161038d015261095901526000818161018301526105bc0152600081816103b401526104de01526000818161026601526105020152600081816101cd0152610550015260006109b40152600061076c01526000818161023d01526102bf01526115896000f3fe608060405234801561001057600080fd5b50600436106101515760003560e01c80636dca8c06116100cd578063cd421fbf11610081578063f23a6e6111610066578063f23a6e61146103f9578063f5f691121461040c578063fa9fdc6a1461042c57600080fd5b8063cd421fbf146103af578063e1c96c20146103d657600080fd5b8063bab2f552116100b2578063bab2f5521461033c578063bc197c8114610344578063cd18a34f1461038857600080fd5b80636dca8c06146102fc578063b28fd6e61461031c57600080fd5b80632b093fe911610124578063491bde6611610109578063491bde661461026157806351e75e8b14610288578063572b6c05146102af57600080fd5b80632b093fe9146102145780632b4c9f161461023b57600080fd5b806301ffc9a714610156578063043063bc1461017e57806324190c6e146101b357806328a979cf146101c8575b600080fd5b610169610164366004610fa6565b610457565b60405190151581526020015b60405180910390f35b6101a57f000000000000000000000000000000000000000000000000000000000000000081565b604051908152602001610175565b6101c66101c136600461105d565b610471565b005b6101ef7f000000000000000000000000000000000000000000000000000000000000000081565b60405173ffffffffffffffffffffffffffffffffffffffff9091168152602001610175565b6101a57f000000000000000000000000000000000000000000000000000000000000000081565b7f00000000000000000000000000000000000000000000000000000000000000006101ef565b6101a57f000000000000000000000000000000000000000000000000000000000000000081565b6101a57f000000000000000000000000000000000000000000000000000000000000000081565b6101696102bd3660046110b9565b7f000000000000000000000000000000000000000000000000000000000000000073ffffffffffffffffffffffffffffffffffffffff90811691161490565b6101a561030a3660046110d4565b60006020819052908152604090205481565b6101a561032a3660046110b9565b60036020526000908152604090205481565b6101a56104da565b61035761035236600461112f565b610536565b6040517fffffffff000000000000000000000000000000000000000000000000000000009091168152602001610175565b6101ef7f000000000000000000000000000000000000000000000000000000000000000081565b6101a57f000000000000000000000000000000000000000000000000000000000000000081565b6101696103e43660046110d4565b60026020526000908152604090205460ff1681565b6103576104073660046111ea565b61093f565b6101a561041a3660046110d4565b60046020526000908152604090205481565b6101a561043a366004611262565b600160209081526000928352604080842090915290825290205481565b600061046b82610465610be1565b90610c0f565b92915050565b6104d3848480806020026020016040519081016040528093929190818152602001838360200280828437600092018290525073ffffffffffffffffffffffffffffffffffffffff88168152600360205260409020548793509150859050610ce9565b5050505050565b60007f00000000000000000000000000000000000000000000000000000000000000006105277f0000000000000000000000000000000000000000000000000000000000000000426112bd565b61053191906112d0565b905090565b60003373ffffffffffffffffffffffffffffffffffffffff7f000000000000000000000000000000000000000000000000000000000000000016146105ae576040517f961c9a4f0000000000000000000000000000000000000000000000000000000081523360048201526024015b60405180910390fd5b60006105b86104da565b90507f0000000000000000000000000000000000000000000000000000000000000000811115610617576040517f764e560f000000000000000000000000000000000000000000000000000000008152600481018290526024016105a5565b6000805b88811015610700576000600460008c8c8581811061063b5761063b61130b565b905060200201358152602001908152602001600020549050806000036106c757338b8b8481811061066e5761066e61130b565b6040517f1912ea5100000000000000000000000000000000000000000000000000000000815273ffffffffffffffffffffffffffffffffffffffff909416600485015260200291909101356024830152506044016105a5565b808989848181106106da576106da61130b565b905060200201356106eb919061133a565b6106f59084611351565b92505060010161061b565b5073ffffffffffffffffffffffffffffffffffffffff8a166000908152600360205260409020546fffffffffffffffffffffffffffffffff8116608082901c81156107525761074f828561133a565b93505b6fffffffffffffffffffffffffffffffff8116156107b4577f00000000000000000000000000000000000000000000000000000000000000006107a76fffffffffffffffffffffffffffffffff83168661133a565b6107b191906112d0565b93505b836001600087815260200190815260200160002060008f73ffffffffffffffffffffffffffffffffffffffff1673ffffffffffffffffffffffffffffffffffffffff16815260200190815260200160002060008282546108149190611351565b909155505060008581526020819052604081208054869290610837908490611351565b925050819055503373ffffffffffffffffffffffffffffffffffffffff166380534934308e8e8e8e6040518663ffffffff1660e01b815260040161087f9594939291906113af565b600060405180830381600087803b15801561089957600080fd5b505af11580156108ad573d6000803e3d6000fd5b50505050848d73ffffffffffffffffffffffffffffffffffffffff167f1501d0cda6731cd5958ea3b86b45b93dec9f22f125c433c0044b42d98ee4de11428f8f8f8f8b8b60405161090497969594939291906113fe565b60405180910390a3507fbc197c81000000000000000000000000000000000000000000000000000000009d9c50505050505050505050505050565b60003373ffffffffffffffffffffffffffffffffffffffff7f000000000000000000000000000000000000000000000000000000000000000016146109b2576040517f961c9a4f0000000000000000000000000000000000000000000000000000000081523360048201526024016105a5565b7f00000000000000000000000000000000000000000000000000000000000000008514610a14576040517f1912ea51000000000000000000000000000000000000000000000000000000008152336004820152602481018690526044016105a5565b83600114610a58576040517ff3cc8ce400000000000000000000000000000000000000000000000000000000815260048101859052600160248201526044016105a5565b73ffffffffffffffffffffffffffffffffffffffff86166000908152600360205260409020546fffffffffffffffffffffffffffffffff811615610ae0576040517f55c9045d00000000000000000000000000000000000000000000000000000000815273ffffffffffffffffffffffffffffffffffffffff881660048201526024016105a5565b73ffffffffffffffffffffffffffffffffffffffff87166000818152600360209081526040918290207f00000000000000000000000000000000000000000000000000000000000000007fffffffffffffffffffffffffffffffff0000000000000000000000000000000086161790819055825185815291820181905292917f54519572e3429998e82594d8b7f18c8099087447d701cbaa619b5e26f6de47eb910160405180910390a28315610bb357600080610b9f86880188611471565b91509150610baf828b8584610ce9565b5050505b507ff23a6e610000000000000000000000000000000000000000000000000000000098975050505050505050565b60008061046b60017fca9d3e17f264b0f3984e2634e94adb37fa3e6a8103f06aeae6fa59e21c769f5e6112bd565b60007c01000000000000000000000000000000000000000000000000000000007fffffffff00000000000000000000000000000000000000000000000000000000831601610c5f5750600061046b565b7ffe003659000000000000000000000000000000000000000000000000000000007fffffffff00000000000000000000000000000000000000000000000000000000831601610cb05750600161046b565b507fffffffff00000000000000000000000000000000000000000000000000000000166000908152602091909152604090205460ff1690565b6000608083901c15610d3f576040517f18ed059000000000000000000000000000000000000000000000000000000000815273ffffffffffffffffffffffffffffffffffffffff851660048201526024016105a5565b6040517fffffffffffffffffffffffffffffffffffffffff000000000000000000000000606086901b16602082015260348101839052600090605401604080517fffffffffffffffffffffffffffffffffffffffffffffffffffffffffffffffe081840301815291905280516020909101209050610dde867f000000000000000000000000000000000000000000000000000000000000000083610f1b565b610e14576040517f09bde33900000000000000000000000000000000000000000000000000000000815260040160405180910390fd5b60008181526002602052604090205460ff1615610e60576040517f689301e8000000000000000000000000000000000000000000000000000000008152600481018290526024016105a5565b73ffffffffffffffffffffffffffffffffffffffff851660008181526003602090815260408083206fffffffffffffffffffffffffffffffff8916608089901b1790819055858452600283529281902080547fffffffffffffffffffffffffffffffffffffffffffffffffffffffffffffff0016600117905580518881529182018390529194507f54519572e3429998e82594d8b7f18c8099087447d701cbaa619b5e26f6de47eb910160405180910390a250949350505050565b600082610f288584610f31565b14949350505050565b600081815b8451811015610f6c57610f6282868381518110610f5557610f5561130b565b6020026020010151610f74565b9150600101610f36565b509392505050565b6000818310610f90576000828152602084905260409020610f9f565b60008381526020839052604090205b9392505050565b600060208284031215610fb857600080fd5b81357fffffffff0000000000000000000000000000000000000000000000000000000081168114610f9f57600080fd5b60008083601f840112610ffa57600080fd5b50813567ffffffffffffffff81111561101257600080fd5b6020830191508360208260051b850101111561102d57600080fd5b9250929050565b803573ffffffffffffffffffffffffffffffffffffffff8116811461105857600080fd5b919050565b6000806000806060858703121561107357600080fd5b843567ffffffffffffffff81111561108a57600080fd5b61109687828801610fe8565b90955093506110a9905060208601611034565b9396929550929360400135925050565b6000602082840312156110cb57600080fd5b610f9f82611034565b6000602082840312156110e657600080fd5b5035919050565b60008083601f8401126110ff57600080fd5b50813567ffffffffffffffff81111561111757600080fd5b60208301915083602082850101111561102d57600080fd5b60008060008060008060008060a0898b03121561114b57600080fd5b61115489611034565b975061116260208a01611034565b9650604089013567ffffffffffffffff8082111561117f57600080fd5b61118b8c838d01610fe8565b909850965060608b01359150808211156111a457600080fd5b6111b08c838d01610fe8565b909650945060808b01359150808211156111c957600080fd5b506111d68b828c016110ed565b999c989b5096995094979396929594505050565b60008060008060008060a0878903121561120357600080fd5b61120c87611034565b955061121a60208801611034565b94506040870135935060608701359250608087013567ffffffffffffffff81111561124457600080fd5b61125089828a016110ed565b979a9699509497509295939492505050565b6000806040838503121561127557600080fd5b8235915061128560208401611034565b90509250929050565b7f4e487b7100000000000000000000000000000000000000000000000000000000600052601160045260246000fd5b8181038181111561046b5761046b61128e565b600082611306577f4e487b7100000000000000000000000000000000000000000000000000000000600052601260045260246000fd5b500490565b7f4e487b7100000000000000000000000000000000000000000000000000000000600052603260045260246000fd5b808202811582820484141761046b5761046b61128e565b8082018082111561046b5761046b61128e565b81835260007f07ffffffffffffffffffffffffffffffffffffffffffffffffffffffffffffff83111561139657600080fd5b8260051b80836020870137939093016020019392505050565b73ffffffffffffffffffffffffffffffffffffffff861681526060602082015260006113df606083018688611364565b82810360408401526113f2818587611364565b98975050505050505050565b87815260a06020820152600061141860a08301888a611364565b828103604084015261142b818789611364565b606084019590955250506080015295945050505050565b7f4e487b7100000000000000000000000000000000000000000000000000000000600052604160045260246000fd5b6000806040838503121561148457600080fd5b823567ffffffffffffffff8082111561149c57600080fd5b818501915085601f8301126114b057600080fd5b81356020828211156114c4576114c4611442565b8160051b6040517fffffffffffffffffffffffffffffffffffffffffffffffffffffffffffffffe0603f8301168101818110868211171561150757611507611442565b60405292835281830193508481018201928984111561152557600080fd5b948201945b838610156115435785358552948201949382019361152a565b999790910135975050505050505056fea2646970667358221220f24b4807494070b888c8f1f53ce8f0df7e5c5aca8ae7243d6bb9f07464310c8e64736f6c63430008160033",
  "linkReferences": {},
  "deployedLinkReferences": {}
}