{
  "_format": "hh-sol-artifact-1",
  "contractName": "AnichessOrbsBurnPool",
  "sourceName": "contracts/burn/AnichessOrbsBurnPool.sol",
  "abi": [
    {
      "inputs": [
        {
          "internalType": "uint256",
          "name": "initialTime",
          "type": "uint256"
        },
        {
          "internalType": "uint256",
          "name": "cycleDuration",
          "type": "uint256"
        },
        {
          "internalType": "uint256",
          "name": "maxCycle",
          "type": "uint256"
        },
        {
          "internalType": "contract IERC1155Burnable",
          "name": "token",
          "type": "address"
        },
        {
          "internalType": "bytes32",
          "name": "merkleRoot",
          "type": "bytes32"
        },
        {
          "internalType": "contract IERC1155Burnable",
          "name": "multiplierToken",
          "type": "address"
        },
        {
          "internalType": "uint256",
          "name": "multiplierTokenId",
          "type": "uint256"
        },
        {
          "internalType": "uint256",
          "name": "tokenMultiplier",
          "type": "uint256"
        },
        {
          "internalType": "contract IForwarderRegistry",
          "name": "forwarderRegistry",
          "type": "address"
        }
      ],
      "stateMutability": "nonpayable",
      "type": "constructor"
    },
    {
      "inputs": [
        {
          "internalType": "address",
          "name": "recipient",
          "type": "address"
        }
      ],
      "name": "AlreadyClaimedLeaderboardMultiplier",
      "type": "error"
    },
    {
      "inputs": [],
      "name": "AlreadySetTiers",
      "type": "error"
    },
    {
      "inputs": [
        {
          "internalType": "uint256",
          "name": "tokenId",
          "type": "uint256"
        }
      ],
      "name": "AlreadySetTokenWeight",
      "type": "error"
    },
    {
      "inputs": [
        {
          "internalType": "address",
          "name": "wallet",
          "type": "address"
        }
      ],
      "name": "AlreadyUnlockedTokenMultiplier",
      "type": "error"
    },
    {
      "inputs": [],
      "name": "IllegalInterfaceId",
      "type": "error"
    },
    {
      "inputs": [],
      "name": "InconsistentArrays",
      "type": "error"
    },
    {
      "inputs": [],
      "name": "IncorrectTierRewards",
      "type": "error"
    },
    {
      "inputs": [],
      "name": "IncorrectTiers",
      "type": "error"
    },
    {
      "inputs": [
        {
          "internalType": "uint256",
          "name": "cycle",
          "type": "uint256"
        }
      ],
      "name": "InvalidCycle",
      "type": "error"
    },
    {
      "inputs": [],
      "name": "InvalidProof",
      "type": "error"
    },
    {
      "inputs": [],
      "name": "InvalidToken",
      "type": "error"
    },
    {
      "inputs": [
        {
          "internalType": "uint256",
          "name": "amount",
          "type": "uint256"
        },
        {
          "internalType": "uint256",
          "name": "expectedAmount",
          "type": "uint256"
        }
      ],
      "name": "InvalidTokenAmount",
      "type": "error"
    },
    {
      "inputs": [
        {
          "internalType": "address",
          "name": "token",
          "type": "address"
        },
        {
          "internalType": "uint256",
          "name": "tokenId",
          "type": "uint256"
        }
      ],
      "name": "InvalidTokenId",
      "type": "error"
    },
    {
      "inputs": [
        {
          "internalType": "address",
          "name": "account",
          "type": "address"
        }
      ],
      "name": "NotContractOwner",
      "type": "error"
    },
    {
      "inputs": [],
      "name": "TiersNotSet",
      "type": "error"
    },
    {
      "anonymous": false,
      "inputs": [
        {
          "indexed": true,
          "internalType": "address",
          "name": "recipient",
          "type": "address"
        },
        {
          "indexed": false,
          "internalType": "uint256",
          "name": "multiplier",
          "type": "uint256"
        }
      ],
      "name": "ClaimLeaderboardMultiplier",
      "type": "event"
    },
    {
      "anonymous": false,
      "inputs": [
        {
          "indexed": true,
          "internalType": "address",
          "name": "previousOwner",
          "type": "address"
        },
        {
          "indexed": true,
          "internalType": "address",
          "name": "newOwner",
          "type": "address"
        }
      ],
      "name": "OwnershipTransferred",
      "type": "event"
    },
    {
      "anonymous": false,
      "inputs": [
        {
          "indexed": true,
          "internalType": "address",
          "name": "burner",
          "type": "address"
        },
        {
          "indexed": true,
          "internalType": "uint256",
          "name": "cycle",
          "type": "uint256"
        },
        {
          "indexed": false,
          "internalType": "uint256",
          "name": "timestamp",
          "type": "uint256"
        },
        {
          "indexed": false,
          "internalType": "uint256[]",
          "name": "ids",
          "type": "uint256[]"
        },
        {
          "indexed": false,
          "internalType": "uint256[]",
          "name": "values",
          "type": "uint256[]"
        },
        {
          "indexed": false,
          "internalType": "uint256",
          "name": "totalAsh",
          "type": "uint256"
        },
        {
          "indexed": false,
          "internalType": "uint256",
          "name": "multiplier",
          "type": "uint256"
        }
      ],
      "name": "TokensBurnt",
      "type": "event"
    },
    {
      "anonymous": false,
      "inputs": [
        {
          "indexed": false,
          "internalType": "address",
          "name": "wallet",
          "type": "address"
        },
        {
          "indexed": false,
          "internalType": "uint256",
          "name": "timestamp",
          "type": "uint256"
        }
      ],
      "name": "UnlockTokenMultiplier",
      "type": "event"
    },
    {
      "inputs": [],
      "name": "CYCLE_DURATION",
      "outputs": [
        {
          "internalType": "uint256",
          "name": "",
          "type": "uint256"
        }
      ],
      "stateMutability": "view",
      "type": "function"
    },
    {
      "inputs": [],
      "name": "INITIAL_TIME",
      "outputs": [
        {
          "internalType": "uint256",
          "name": "",
          "type": "uint256"
        }
      ],
      "stateMutability": "view",
      "type": "function"
    },
    {
      "inputs": [],
      "name": "MAX_CYCLE",
      "outputs": [
        {
          "internalType": "uint256",
          "name": "",
          "type": "uint256"
        }
      ],
      "stateMutability": "view",
      "type": "function"
    },
    {
      "inputs": [],
      "name": "MERKLE_ROOT",
      "outputs": [
        {
          "internalType": "bytes32",
          "name": "",
          "type": "bytes32"
        }
      ],
      "stateMutability": "view",
      "type": "function"
    },
    {
      "inputs": [],
      "name": "MULTIPLIER_TOKEN",
      "outputs": [
        {
          "internalType": "contract IERC1155Burnable",
          "name": "",
          "type": "address"
        }
      ],
      "stateMutability": "view",
      "type": "function"
    },
    {
      "inputs": [],
      "name": "MULTIPLIER_TOKEN_ID",
      "outputs": [
        {
          "internalType": "uint256",
          "name": "",
          "type": "uint256"
        }
      ],
      "stateMutability": "view",
      "type": "function"
    },
    {
      "inputs": [],
      "name": "TOKEN",
      "outputs": [
        {
          "internalType": "contract IERC1155Burnable",
          "name": "",
          "type": "address"
        }
      ],
      "stateMutability": "view",
      "type": "function"
    },
    {
      "inputs": [],
      "name": "TOKEN_MULTIPLIER",
      "outputs": [
        {
          "internalType": "uint256",
          "name": "",
          "type": "uint256"
        }
      ],
      "stateMutability": "view",
      "type": "function"
    },
    {
      "inputs": [
        {
          "internalType": "bytes32[]",
          "name": "proof",
          "type": "bytes32[]"
        },
        {
          "internalType": "address",
          "name": "recipient",
          "type": "address"
        },
        {
          "internalType": "uint256",
          "name": "multiplier",
          "type": "uint256"
        }
      ],
      "name": "claimLeaderboardMultiplier",
      "outputs": [],
      "stateMutability": "nonpayable",
      "type": "function"
    },
    {
      "inputs": [
        {
          "internalType": "bytes32",
          "name": "",
          "type": "bytes32"
        }
      ],
      "name": "claimStatus",
      "outputs": [
        {
          "internalType": "bool",
          "name": "",
          "type": "bool"
        }
      ],
      "stateMutability": "view",
      "type": "function"
    },
    {
      "inputs": [],
      "name": "currentCycle",
      "outputs": [
        {
          "internalType": "uint256",
          "name": "",
          "type": "uint256"
        }
      ],
      "stateMutability": "view",
      "type": "function"
    },
    {
      "inputs": [],
      "name": "forwarderRegistry",
      "outputs": [
        {
          "internalType": "contract IForwarderRegistry",
          "name": "",
          "type": "address"
        }
      ],
      "stateMutability": "view",
      "type": "function"
    },
    {
      "inputs": [
        {
          "internalType": "uint256",
          "name": "cycle",
          "type": "uint256"
        }
      ],
      "name": "getCycleReward",
      "outputs": [
        {
          "internalType": "uint256",
          "name": "",
          "type": "uint256"
        }
      ],
      "stateMutability": "view",
      "type": "function"
    },
    {
      "inputs": [
        {
          "internalType": "address",
          "name": "wallet",
          "type": "address"
        }
      ],
      "name": "getMultiplier",
      "outputs": [
        {
          "internalType": "uint256",
          "name": "multiplier",
          "type": "uint256"
        }
      ],
      "stateMutability": "view",
      "type": "function"
    },
    {
      "inputs": [
        {
          "internalType": "uint256",
          "name": "cycle",
          "type": "uint256"
        },
        {
          "internalType": "address",
          "name": "wallet",
          "type": "address"
        }
      ],
      "name": "getUserReward",
      "outputs": [
        {
          "internalType": "uint256",
          "name": "",
          "type": "uint256"
        }
      ],
      "stateMutability": "view",
      "type": "function"
    },
    {
      "inputs": [
        {
          "internalType": "address",
          "name": "forwarder",
          "type": "address"
        }
      ],
      "name": "isTrustedForwarder",
      "outputs": [
        {
          "internalType": "bool",
          "name": "",
          "type": "bool"
        }
      ],
      "stateMutability": "view",
      "type": "function"
    },
    {
      "inputs": [
        {
          "internalType": "address",
          "name": "",
          "type": "address"
        }
      ],
      "name": "leaderboardMultiplers",
      "outputs": [
        {
          "internalType": "uint256",
          "name": "",
          "type": "uint256"
        }
      ],
      "stateMutability": "view",
      "type": "function"
    },
    {
      "inputs": [
        {
          "internalType": "address",
          "name": "",
          "type": "address"
        },
        {
          "internalType": "address",
          "name": "from",
          "type": "address"
        },
        {
          "internalType": "uint256[]",
          "name": "ids",
          "type": "uint256[]"
        },
        {
          "internalType": "uint256[]",
          "name": "values",
          "type": "uint256[]"
        },
        {
          "internalType": "bytes",
          "name": "",
          "type": "bytes"
        }
      ],
      "name": "onERC1155BatchReceived",
      "outputs": [
        {
          "internalType": "bytes4",
          "name": "",
          "type": "bytes4"
        }
      ],
      "stateMutability": "nonpayable",
      "type": "function"
    },
    {
      "inputs": [
        {
          "internalType": "address",
          "name": "",
          "type": "address"
        },
        {
          "internalType": "address",
          "name": "from",
          "type": "address"
        },
        {
          "internalType": "uint256",
          "name": "id",
          "type": "uint256"
        },
        {
          "internalType": "uint256",
          "name": "value",
          "type": "uint256"
        },
        {
          "internalType": "bytes",
          "name": "",
          "type": "bytes"
        }
      ],
      "name": "onERC1155Received",
      "outputs": [
        {
          "internalType": "bytes4",
          "name": "",
          "type": "bytes4"
        }
      ],
      "stateMutability": "nonpayable",
      "type": "function"
    },
    {
      "inputs": [],
      "name": "owner",
      "outputs": [
        {
          "internalType": "address",
          "name": "",
          "type": "address"
        }
      ],
      "stateMutability": "view",
      "type": "function"
    },
    {
      "inputs": [
        {
          "internalType": "uint256[]",
          "name": "_tiers",
          "type": "uint256[]"
        },
        {
          "internalType": "uint256[]",
          "name": "_tierRewards",
          "type": "uint256[]"
        }
      ],
      "name": "setTiers",
      "outputs": [],
      "stateMutability": "nonpayable",
      "type": "function"
    },
    {
      "inputs": [
        {
          "internalType": "uint256[]",
          "name": "tokenIds",
          "type": "uint256[]"
        },
        {
          "internalType": "uint256[]",
          "name": "weights",
          "type": "uint256[]"
        }
      ],
      "name": "setTokensWeight",
      "outputs": [],
      "stateMutability": "nonpayable",
      "type": "function"
    },
    {
      "inputs": [
        {
          "internalType": "bytes4",
          "name": "interfaceId",
          "type": "bytes4"
        }
      ],
      "name": "supportsInterface",
      "outputs": [
        {
          "internalType": "bool",
          "name": "",
          "type": "bool"
        }
      ],
      "stateMutability": "view",
      "type": "function"
    },
    {
      "inputs": [
        {
          "internalType": "uint256",
          "name": "",
          "type": "uint256"
        }
      ],
      "name": "tierRewards",
      "outputs": [
        {
          "internalType": "uint256",
          "name": "",
          "type": "uint256"
        }
      ],
      "stateMutability": "view",
      "type": "function"
    },
    {
      "inputs": [
        {
          "internalType": "uint256",
          "name": "",
          "type": "uint256"
        }
      ],
      "name": "tiers",
      "outputs": [
        {
          "internalType": "uint256",
          "name": "",
          "type": "uint256"
        }
      ],
      "stateMutability": "view",
      "type": "function"
    },
    {
      "inputs": [
        {
          "internalType": "address",
          "name": "",
          "type": "address"
        }
      ],
      "name": "tokenMultiplerUnlockStatus",
      "outputs": [
        {
          "internalType": "bool",
          "name": "",
          "type": "bool"
        }
      ],
      "stateMutability": "view",
      "type": "function"
    },
    {
      "inputs": [
        {
          "internalType": "address",
          "name": "newOwner",
          "type": "address"
        }
      ],
      "name": "transferOwnership",
      "outputs": [],
      "stateMutability": "nonpayable",
      "type": "function"
    },
    {
      "inputs": [
        {
          "internalType": "uint256",
          "name": "",
          "type": "uint256"
        },
        {
          "internalType": "address",
          "name": "",
          "type": "address"
        }
      ],
      "name": "userAshByCycle",
      "outputs": [
        {
          "internalType": "uint256",
          "name": "",
          "type": "uint256"
        }
      ],
      "stateMutability": "view",
      "type": "function"
    }
  ],
  "bytecode": "0x6101a06040523480156200001257600080fd5b50604051620023f7380380620023f7833981016040819052620000359162000205565b6001600160a01b0381166080523362000063630271189760e51b60016200005b620000b6565b9190620000ec565b62000079816200007262000149565b9062000179565b505060c09790975260e09590955261010093909352610160526001600160a01b0391821661012052610140929092521660a05261018052620002b7565b600080620000e660017fca9d3e17f264b0f3984e2634e94adb37fa3e6a8103f06aeae6fa59e21c769f5e62000295565b92915050565b600160e01b6001600160e01b03198316016200011b576040516372c683bb60e01b815260040160405180910390fd5b6001600160e01b03199190911660009081526020929092526040909120805460ff1916911515919091179055565b600080620000e660017fc9ed16f33ab3a66c84bfd83099ccb2a8845871e2e1c1928f63797152f0fd54cd62000295565b6001600160a01b03811615620001d05781546001600160a01b0319166001600160a01b03821690811783556040516000907f8be0079c531659141344cd1fd0a4f28419497f9722a3daafe3b4186f6b6457e0908290a35b620001e86307f5828d60e41b60016200005b620000b6565b5050565b6001600160a01b03811681146200020257600080fd5b50565b60008060008060008060008060006101208a8c0312156200022557600080fd5b8951985060208a0151975060408a0151965060608a01516200024781620001ec565b60808b015160a08c015191975095506200026181620001ec565b8094505060c08a0151925060e08a015191506101008a01516200028481620001ec565b809150509295985092959850929598565b81810381811115620000e657634e487b7160e01b600052601160045260246000fd5b60805160a05160c05160e051610100516101205161014051610160516101805161206662000391600039600081816102a00152610c990152600081816103480152610ac801526000818161025101528181611047015261129c0152600081816103cf01528181610fd70152611243015260008181610217015281816105bf0152818161092b0152610e8e0152600081816104da0152610dbc01526000818161030e0152610de00152600081816104160152610e290152600081816102c40152818161038d015281816117a6015261182e01526120666000f3fe608060405234801561001057600080fd5b50600436106101c45760003560e01c806364c19303116100f9578063bab2f55211610097578063e3a0ce0911610071578063e3a0ce09146104fc578063f23a6e611461051f578063f2fde38b14610532578063fa9fdc6a1461054557600080fd5b8063bab2f55214610489578063bc197c8114610491578063cd421fbf146104d557600080fd5b80638da5cb5b116100d35780638da5cb5b14610438578063a5bb3ec114610440578063a9d637e114610463578063ad740fa01461047657600080fd5b806364c19303146103ca57806370d92882146103f157806382bfefc81461041157600080fd5b80632b093fe911610166578063496baa4711610140578063496baa471461033057806351e75e8b14610343578063556c448d1461036a578063572b6c051461037d57600080fd5b80632b093fe91461029b5780632b4c9f16146102c2578063491bde661461030957600080fd5b806304585ac7116101a257806304585ac71461023957806316a3138b1461024c5780631b8ebc3c146102735780632099920e1461028857600080fd5b806301ffc9a7146101c9578063039af9eb146101f1578063043063bc14610212575b600080fd5b6101dc6101d736600461197f565b610570565b60405190151581526020015b60405180910390f35b6102046101ff3660046119c1565b61058a565b6040519081526020016101e8565b6102047f000000000000000000000000000000000000000000000000000000000000000081565b6102046102473660046119c1565b6105ab565b6102047f000000000000000000000000000000000000000000000000000000000000000081565b610286610281366004611a26565b610734565b005b610204610296366004611abb565b610917565b6102047f000000000000000000000000000000000000000000000000000000000000000081565b7f00000000000000000000000000000000000000000000000000000000000000005b60405173ffffffffffffffffffffffffffffffffffffffff90911681526020016101e8565b6102047f000000000000000000000000000000000000000000000000000000000000000081565b61028661033e366004611ae7565b6109ef565b6102047f000000000000000000000000000000000000000000000000000000000000000081565b6102046103783660046119c1565b610bf1565b6101dc61038b366004611b43565b7f000000000000000000000000000000000000000000000000000000000000000073ffffffffffffffffffffffffffffffffffffffff90811691161490565b6102e47f000000000000000000000000000000000000000000000000000000000000000081565b6102046103ff366004611b43565b60056020526000908152604090205481565b6102e47f000000000000000000000000000000000000000000000000000000000000000081565b6102e4610c01565b6101dc61044e366004611b43565b60066020526000908152604090205460ff1681565b610204610471366004611b43565b610c2d565b610286610484366004611c49565b610cc8565b610204610db8565b6104a461049f366004611cef565b610e0f565b6040517fffffffff0000000000000000000000000000000000000000000000000000000090911681526020016101e8565b6102047f000000000000000000000000000000000000000000000000000000000000000081565b6101dc61050a3660046119c1565b60046020526000908152604090205460ff1681565b6104a461052d366004611daa565b611229565b610286610540366004611b43565b61146b565b610204610553366004611abb565b600360209081526000928352604080842090915290825290205481565b60006105848261057e611489565b906114b7565b92915050565b6000818154811061059a57600080fd5b600091825260209091200154905081565b60006105b5610db8565b8211806105e157507f000000000000000000000000000000000000000000000000000000000000000082115b15610620576040517f764e560f000000000000000000000000000000000000000000000000000000008152600481018390526024015b60405180910390fd5b60008054900361065c576040517fd44051ba00000000000000000000000000000000000000000000000000000000815260040160405180910390fd5b600082156106875760026000610673600186611e51565b81526020019081526020016000205461068a565b60005b905060015b60005481116106ff57600081815481106106ab576106ab611e64565b90600052602060002001548210156106ed5760016106c98183611e51565b815481106106d9576106d9611e64565b906000526020600020015492505050919050565b806106f781611e93565b91505061068f565b50600054600190610711908290611e51565b8154811061072157610721611e64565b9060005260206000200154915050919050565b61074d61073f611591565b61074761159b565b906115c9565b828114610786576040517f35e83ac300000000000000000000000000000000000000000000000000000000815260040160405180910390fd5b60008390036107c1576040517f7bd3bbea00000000000000000000000000000000000000000000000000000000815260040160405180910390fd5b600054156107fb576040517f65edd76100000000000000000000000000000000000000000000000000000000815260040160405180910390fd5b60015b838110156108f6578484610813600184611e51565b81811061082257610822611e64565b9050602002013585858381811061083b5761083b611e64565b90506020020135101561087a576040517f7bd3bbea00000000000000000000000000000000000000000000000000000000815260040160405180910390fd5b8282610887600184611e51565b81811061089657610896611e64565b905060200201358383838181106108af576108af611e64565b9050602002013510156108ee576040517fe5b30f5500000000000000000000000000000000000000000000000000000000815260040160405180910390fd5b6001016107fe565b506109036000858561191f565b506109106001838361191f565b5050505050565b6000610921610db8565b83118061094d57507f000000000000000000000000000000000000000000000000000000000000000083115b15610987576040517f764e560f00000000000000000000000000000000000000000000000000000000815260048101849052602401610617565b6000610992846105ab565b600085815260036020908152604080832073ffffffffffffffffffffffffffffffffffffffff88168452825280832054888452600290925290912054919250906109dc8383611ecb565b6109e69190611ee2565b95945050505050565b6040517fffffffffffffffffffffffffffffffffffffffff000000000000000000000000606084901b16602082015260348101829052600090605401604080517fffffffffffffffffffffffffffffffffffffffffffffffffffffffffffffffe081840301815291815281516020928301206000818152600490935291205490915060ff1615610ac3576040517f8084224300000000000000000000000000000000000000000000000000000000815273ffffffffffffffffffffffffffffffffffffffff84166004820152602401610617565b610b257f0000000000000000000000000000000000000000000000000000000000000000828787808060200260200160405190810160405280939291908181526020018383602002808284376000920191909152509294939250506116389050565b610b5b576040517f09bde33900000000000000000000000000000000000000000000000000000000815260040160405180910390fd5b73ffffffffffffffffffffffffffffffffffffffff83166000818152600560209081526040808320869055848352600482529182902080547fffffffffffffffffffffffffffffffffffffffffffffffffffffffffffffff0016600117905590518481527fad13a161261d327d2506101e44c2dd1737e7314cd7ed475a2819bdc64c76b857910160405180910390a25050505050565b6001818154811061059a57600080fd5b6000610c28610c0e61159b565b5473ffffffffffffffffffffffffffffffffffffffff1690565b905090565b73ffffffffffffffffffffffffffffffffffffffff81166000908152600560205260408120548015610c5f5780610c62565b60015b73ffffffffffffffffffffffffffffffffffffffff841660009081526006602052604090205490925060ff168015610cc157610cbe7f000000000000000000000000000000000000000000000000000000000000000084611ecb565b92505b5050919050565b610cd361073f611591565b8051825114610d0e576040517f35e83ac300000000000000000000000000000000000000000000000000000000815260040160405180910390fd5b60005b8251811015610db35760008181526007602052604090205415610d7d57828181518110610d4057610d40611e64565b60200260200101516040517ffaf6788700000000000000000000000000000000000000000000000000000000815260040161061791815260200190565b818181518110610d8f57610d8f611e64565b60209081029190910181015160008381526007909252604090912055600101610d11565b505050565b60007f0000000000000000000000000000000000000000000000000000000000000000610e057f000000000000000000000000000000000000000000000000000000000000000042611e51565b610c289190611ee2565b60003373ffffffffffffffffffffffffffffffffffffffff7f00000000000000000000000000000000000000000000000000000000000000001614610e80576040517fc1ab6dc100000000000000000000000000000000000000000000000000000000815260040160405180910390fd5b6000610e8a610db8565b90507f0000000000000000000000000000000000000000000000000000000000000000811115610ee9576040517f764e560f00000000000000000000000000000000000000000000000000000000815260048101829052602401610617565b6000805b88811015610fd2576000600760008c8c85818110610f0d57610f0d611e64565b90506020020135815260200190815260200160002054905080600003610f9957338b8b84818110610f4057610f40611e64565b6040517f1912ea5100000000000000000000000000000000000000000000000000000000815273ffffffffffffffffffffffffffffffffffffffff90941660048501526020029190910135602483015250604401610617565b80898984818110610fac57610fac611e64565b90506020020135610fbd9190611ecb565b610fc79084611f1d565b925050600101610eed565b5060607f00000000000000000000000000000000000000000000000000000000000000008160008151811061100957611009611e64565b602002602001019073ffffffffffffffffffffffffffffffffffffffff16908173ffffffffffffffffffffffffffffffffffffffff168152505060607f00000000000000000000000000000000000000000000000000000000000000008160008151811061107957611079611e64565b60200260200101818152505060006110908d610c2d565b905061109c8185611ecb565b9350836003600087815260200190815260200160002060008f73ffffffffffffffffffffffffffffffffffffffff1673ffffffffffffffffffffffffffffffffffffffff16815260200190815260200160002060008282546110fe9190611f1d565b909155505060008581526002602052604081208054869290611121908490611f1d565b925050819055503373ffffffffffffffffffffffffffffffffffffffff1663805349348e8e8e8e8e6040518663ffffffff1660e01b8152600401611169959493929190611f7b565b600060405180830381600087803b15801561118357600080fd5b505af1158015611197573d6000803e3d6000fd5b50505050848d73ffffffffffffffffffffffffffffffffffffffff167f3adb63d4fde6845c0b2322e50ebb349a765d70b1756f0c1d1cfa64da74681942428f8f8f8f8b896040516111ee9796959493929190611fca565b60405180910390a3507fbc197c81000000000000000000000000000000000000000000000000000000009d9c50505050505050505050505050565b60003373ffffffffffffffffffffffffffffffffffffffff7f0000000000000000000000000000000000000000000000000000000000000000161461129a576040517fc1ab6dc100000000000000000000000000000000000000000000000000000000815260040160405180910390fd5b7f000000000000000000000000000000000000000000000000000000000000000085146112fc576040517f1912ea5100000000000000000000000000000000000000000000000000000000815233600482015260248101869052604401610617565b83600114611340576040517ff789eb2f0000000000000000000000000000000000000000000000000000000081526004810185905260016024820152604401610617565b73ffffffffffffffffffffffffffffffffffffffff861660009081526006602052604090205460ff16156113b8576040517f03a0028700000000000000000000000000000000000000000000000000000000815273ffffffffffffffffffffffffffffffffffffffff87166004820152602401610617565b73ffffffffffffffffffffffffffffffffffffffff861660008181526006602090815260409182902080547fffffffffffffffffffffffffffffffffffffffffffffffffffffffffffffff00166001179055815192835242908301527f2f1cff01c45015e0e6d543724e40ddc5472049fe52ae6a10dda3d2363d38f38b910160405180910390a1507ff23a6e61000000000000000000000000000000000000000000000000000000009695505050505050565b611486611476611591565b8261147f61159b565b919061164e565b50565b60008061058460017fca9d3e17f264b0f3984e2634e94adb37fa3e6a8103f06aeae6fa59e21c769f5e611e51565b60007c01000000000000000000000000000000000000000000000000000000007fffffffff0000000000000000000000000000000000000000000000000000000083160161150757506000610584565b7ffe003659000000000000000000000000000000000000000000000000000000007fffffffff0000000000000000000000000000000000000000000000000000000083160161155857506001610584565b507fffffffff00000000000000000000000000000000000000000000000000000000166000908152602091909152604090205460ff1690565b6000610c28611763565b60008061058460017fc9ed16f33ab3a66c84bfd83099ccb2a8845871e2e1c1928f63797152f0fd54cd611e51565b815473ffffffffffffffffffffffffffffffffffffffff828116911614611634576040517f2ef4875e00000000000000000000000000000000000000000000000000000000815273ffffffffffffffffffffffffffffffffffffffff82166004820152602401610617565b5050565b60008261164585846118aa565b14949350505050565b825473ffffffffffffffffffffffffffffffffffffffff90811690831681146116bb576040517f2ef4875e00000000000000000000000000000000000000000000000000000000815273ffffffffffffffffffffffffffffffffffffffff84166004820152602401610617565b8173ffffffffffffffffffffffffffffffffffffffff168173ffffffffffffffffffffffffffffffffffffffff161461175d5783547fffffffffffffffffffffffff00000000000000000000000000000000000000001673ffffffffffffffffffffffffffffffffffffffff8381169182178655604051908316907f8be0079c531659141344cd1fd0a4f28419497f9722a3daafe3b4186f6b6457e090600090a35b50505050565b6000333214806117735750601836105b1561177d57503390565b7fffffffffffffffffffffffffffffffffffffffffffffffffffffffffffffffec36013560601c7f000000000000000000000000000000000000000000000000000000000000000073ffffffffffffffffffffffffffffffffffffffff1633148061189957506040517f8929a8ca00000000000000000000000000000000000000000000000000000000815273ffffffffffffffffffffffffffffffffffffffff82811660048301523360248301527f00000000000000000000000000000000000000000000000000000000000000001690638929a8ca90604401602060405180830381865afa158015611875573d6000803e3d6000fd5b505050506040513d601f19601f82011682018060405250810190611899919061200e565b156118a357919050565b3391505090565b600081815b84518110156118e5576118db828683815181106118ce576118ce611e64565b60200260200101516118ed565b91506001016118af565b509392505050565b6000818310611909576000828152602084905260409020611918565b60008381526020839052604090205b9392505050565b82805482825590600052602060002090810192821561195a579160200282015b8281111561195a57823582559160200191906001019061193f565b5061196692915061196a565b5090565b5b80821115611966576000815560010161196b565b60006020828403121561199157600080fd5b81357fffffffff000000000000000000000000000000000000000000000000000000008116811461191857600080fd5b6000602082840312156119d357600080fd5b5035919050565b60008083601f8401126119ec57600080fd5b50813567ffffffffffffffff811115611a0457600080fd5b6020830191508360208260051b8501011115611a1f57600080fd5b9250929050565b60008060008060408587031215611a3c57600080fd5b843567ffffffffffffffff80821115611a5457600080fd5b611a60888389016119da565b90965094506020870135915080821115611a7957600080fd5b50611a86878288016119da565b95989497509550505050565b803573ffffffffffffffffffffffffffffffffffffffff81168114611ab657600080fd5b919050565b60008060408385031215611ace57600080fd5b82359150611ade60208401611a92565b90509250929050565b60008060008060608587031215611afd57600080fd5b843567ffffffffffffffff811115611b1457600080fd5b611b20878288016119da565b9095509350611b33905060208601611a92565b9396929550929360400135925050565b600060208284031215611b5557600080fd5b61191882611a92565b7f4e487b7100000000000000000000000000000000000000000000000000000000600052604160045260246000fd5b600082601f830112611b9e57600080fd5b8135602067ffffffffffffffff80831115611bbb57611bbb611b5e565b8260051b6040517fffffffffffffffffffffffffffffffffffffffffffffffffffffffffffffffe0603f83011681018181108482111715611bfe57611bfe611b5e565b6040529384526020818701810194908101925087851115611c1e57600080fd5b6020870191505b84821015611c3e57813583529183019190830190611c25565b979650505050505050565b60008060408385031215611c5c57600080fd5b823567ffffffffffffffff80821115611c7457600080fd5b611c8086838701611b8d565b93506020850135915080821115611c9657600080fd5b50611ca385828601611b8d565b9150509250929050565b60008083601f840112611cbf57600080fd5b50813567ffffffffffffffff811115611cd757600080fd5b602083019150836020828501011115611a1f57600080fd5b60008060008060008060008060a0898b031215611d0b57600080fd5b611d1489611a92565b9750611d2260208a01611a92565b9650604089013567ffffffffffffffff80821115611d3f57600080fd5b611d4b8c838d016119da565b909850965060608b0135915080821115611d6457600080fd5b611d708c838d016119da565b909650945060808b0135915080821115611d8957600080fd5b50611d968b828c01611cad565b999c989b5096995094979396929594505050565b60008060008060008060a08789031215611dc357600080fd5b611dcc87611a92565b9550611dda60208801611a92565b94506040870135935060608701359250608087013567ffffffffffffffff811115611e0457600080fd5b611e1089828a01611cad565b979a9699509497509295939492505050565b7f4e487b7100000000000000000000000000000000000000000000000000000000600052601160045260246000fd5b8181038181111561058457610584611e22565b7f4e487b7100000000000000000000000000000000000000000000000000000000600052603260045260246000fd5b60007fffffffffffffffffffffffffffffffffffffffffffffffffffffffffffffffff8203611ec457611ec4611e22565b5060010190565b808202811582820484141761058457610584611e22565b600082611f18577f4e487b7100000000000000000000000000000000000000000000000000000000600052601260045260246000fd5b500490565b8082018082111561058457610584611e22565b81835260007f07ffffffffffffffffffffffffffffffffffffffffffffffffffffffffffffff831115611f6257600080fd5b8260051b80836020870137939093016020019392505050565b73ffffffffffffffffffffffffffffffffffffffff86168152606060208201526000611fab606083018688611f30565b8281036040840152611fbe818587611f30565b98975050505050505050565b87815260a060208201526000611fe460a08301888a611f30565b8281036040840152611ff7818789611f30565b606084019590955250506080015295945050505050565b60006020828403121561202057600080fd5b8151801515811461191857600080fdfea2646970667358221220b2bc665c8aa97ecd69647d0db87cfc0b73f6cf6c7f4c86b071872e02e7526ee464736f6c63430008160033",
  "linkReferences": {},
  "deployedLinkReferences": {}
}