{
  "_format": "hh-sol-artifact-1",
  "contractName": "AnichessOrbsBurnPool",
  "sourceName": "contracts/burn/AnichessOrbsBurnPool.sol",
  "abi": [
    {
      "inputs": [
        {
          "internalType": "uint256",
          "name": "initialTime",
          "type": "uint256"
        },
        {
          "internalType": "uint256",
          "name": "cycleDuration",
          "type": "uint256"
        },
        {
          "internalType": "uint256",
          "name": "maxCycle",
          "type": "uint256"
        },
        {
          "internalType": "contract IERC1155Burnable",
          "name": "sourceToken",
          "type": "address"
        },
        {
          "internalType": "uint256[]",
          "name": "tokenIds",
          "type": "uint256[]"
        },
        {
          "internalType": "uint256[]",
          "name": "weights",
          "type": "uint256[]"
        },
        {
          "internalType": "bytes32",
          "name": "merkleRoot",
          "type": "bytes32"
        },
        {
          "internalType": "contract IERC1155Burnable",
          "name": "missingOrb",
          "type": "address"
        },
        {
          "internalType": "uint256",
          "name": "tokenMultiplier",
          "type": "uint256"
        },
        {
          "internalType": "contract IForwarderRegistry",
          "name": "forwarderRegistry",
          "type": "address"
        }
      ],
      "stateMutability": "nonpayable",
      "type": "constructor"
    },
    {
      "inputs": [
        {
          "internalType": "address",
          "name": "recipient",
          "type": "address"
        }
      ],
      "name": "AlreadySetAnichessGameMultiplierNumerator",
      "type": "error"
    },
    {
      "inputs": [
        {
          "internalType": "uint256",
          "name": "tokenId",
          "type": "uint256"
        }
      ],
      "name": "AlreadySetTokenWeight",
      "type": "error"
    },
    {
      "inputs": [
        {
          "internalType": "address",
          "name": "wallet",
          "type": "address"
        }
      ],
      "name": "AlreadyUnlockedTokenMultiplier",
      "type": "error"
    },
    {
      "inputs": [],
      "name": "IllegalInterfaceId",
      "type": "error"
    },
    {
      "inputs": [],
      "name": "InconsistentArrays",
      "type": "error"
    },
    {
      "inputs": [
        {
          "internalType": "uint256",
          "name": "cycle",
          "type": "uint256"
        }
      ],
      "name": "InvalidCycle",
      "type": "error"
    },
    {
      "inputs": [],
      "name": "InvalidProof",
      "type": "error"
    },
    {
      "inputs": [
        {
          "internalType": "address",
          "name": "token",
          "type": "address"
        }
      ],
      "name": "InvalidToken",
      "type": "error"
    },
    {
      "inputs": [
        {
          "internalType": "uint256",
          "name": "amount",
          "type": "uint256"
        },
        {
          "internalType": "uint256",
          "name": "expectedAmount",
          "type": "uint256"
        }
      ],
      "name": "InvalidTokenAmount",
      "type": "error"
    },
    {
      "inputs": [
        {
          "internalType": "address",
          "name": "token",
          "type": "address"
        },
        {
          "internalType": "uint256",
          "name": "tokenId",
          "type": "uint256"
        }
      ],
      "name": "InvalidTokenId",
      "type": "error"
    },
    {
      "anonymous": false,
      "inputs": [
        {
          "indexed": true,
          "internalType": "address",
          "name": "burner",
          "type": "address"
        },
        {
          "indexed": true,
          "internalType": "uint256",
          "name": "cycle",
          "type": "uint256"
        },
        {
          "indexed": false,
          "internalType": "uint256",
          "name": "timestamp",
          "type": "uint256"
        },
        {
          "indexed": false,
          "internalType": "uint256[]",
          "name": "ids",
          "type": "uint256[]"
        },
        {
          "indexed": false,
          "internalType": "uint256[]",
          "name": "values",
          "type": "uint256[]"
        },
        {
          "indexed": false,
          "internalType": "uint256",
          "name": "totalAsh",
          "type": "uint256"
        },
        {
          "indexed": false,
          "internalType": "uint256",
          "name": "multiplier",
          "type": "uint256"
        }
      ],
      "name": "AshGenerated",
      "type": "event"
    },
    {
      "anonymous": false,
      "inputs": [
        {
          "indexed": true,
          "internalType": "address",
          "name": "recipient",
          "type": "address"
        },
        {
          "indexed": false,
          "internalType": "uint256",
          "name": "curr",
          "type": "uint256"
        },
        {
          "indexed": false,
          "internalType": "uint256",
          "name": "updated",
          "type": "uint256"
        }
      ],
      "name": "UpdateMultiplierInfo",
      "type": "event"
    },
    {
      "inputs": [],
      "name": "CYCLE_DURATION",
      "outputs": [
        {
          "internalType": "uint256",
          "name": "",
          "type": "uint256"
        }
      ],
      "stateMutability": "view",
      "type": "function"
    },
    {
      "inputs": [],
      "name": "DENOMINATOR",
      "outputs": [
        {
          "internalType": "uint256",
          "name": "",
          "type": "uint256"
        }
      ],
      "stateMutability": "view",
      "type": "function"
    },
    {
      "inputs": [],
      "name": "INITIAL_TIME",
      "outputs": [
        {
          "internalType": "uint256",
          "name": "",
          "type": "uint256"
        }
      ],
      "stateMutability": "view",
      "type": "function"
    },
    {
      "inputs": [],
      "name": "MAX_CYCLE",
      "outputs": [
        {
          "internalType": "uint256",
          "name": "",
          "type": "uint256"
        }
      ],
      "stateMutability": "view",
      "type": "function"
    },
    {
      "inputs": [],
      "name": "MERKLE_ROOT",
      "outputs": [
        {
          "internalType": "bytes32",
          "name": "",
          "type": "bytes32"
        }
      ],
      "stateMutability": "view",
      "type": "function"
    },
    {
      "inputs": [],
      "name": "MISSING_ORB",
      "outputs": [
        {
          "internalType": "contract IERC1155Burnable",
          "name": "",
          "type": "address"
        }
      ],
      "stateMutability": "view",
      "type": "function"
    },
    {
      "inputs": [],
      "name": "MISSING_ORB_TOKEN_ID",
      "outputs": [
        {
          "internalType": "uint256",
          "name": "",
          "type": "uint256"
        }
      ],
      "stateMutability": "view",
      "type": "function"
    },
    {
      "inputs": [],
      "name": "SOURCE_TOKEN",
      "outputs": [
        {
          "internalType": "contract IERC1155Burnable",
          "name": "",
          "type": "address"
        }
      ],
      "stateMutability": "view",
      "type": "function"
    },
    {
      "inputs": [],
      "name": "TOKEN_MULTIPLIER",
      "outputs": [
        {
          "internalType": "uint256",
          "name": "",
          "type": "uint256"
        }
      ],
      "stateMutability": "view",
      "type": "function"
    },
    {
      "inputs": [],
      "name": "currentCycle",
      "outputs": [
        {
          "internalType": "uint256",
          "name": "",
          "type": "uint256"
        }
      ],
      "stateMutability": "view",
      "type": "function"
    },
    {
      "inputs": [],
      "name": "forwarderRegistry",
      "outputs": [
        {
          "internalType": "contract IForwarderRegistry",
          "name": "",
          "type": "address"
        }
      ],
      "stateMutability": "view",
      "type": "function"
    },
    {
      "inputs": [
        {
          "internalType": "address",
          "name": "wallet",
          "type": "address"
        }
      ],
      "name": "getMultiplierInfo",
      "outputs": [
        {
          "internalType": "uint256",
          "name": "multiplierInfo",
          "type": "uint256"
        },
        {
          "internalType": "uint128",
          "name": "anichessGameMultiplierNumerator",
          "type": "uint128"
        },
        {
          "internalType": "uint128",
          "name": "tokenMultiplier",
          "type": "uint128"
        }
      ],
      "stateMutability": "view",
      "type": "function"
    },
    {
      "inputs": [
        {
          "internalType": "address",
          "name": "forwarder",
          "type": "address"
        }
      ],
      "name": "isTrustedForwarder",
      "outputs": [
        {
          "internalType": "bool",
          "name": "",
          "type": "bool"
        }
      ],
      "stateMutability": "view",
      "type": "function"
    },
    {
      "inputs": [
        {
          "internalType": "bytes32",
          "name": "",
          "type": "bytes32"
        }
      ],
      "name": "leafConsumptionStatus",
      "outputs": [
        {
          "internalType": "bool",
          "name": "",
          "type": "bool"
        }
      ],
      "stateMutability": "view",
      "type": "function"
    },
    {
      "inputs": [
        {
          "internalType": "address",
          "name": "",
          "type": "address"
        }
      ],
      "name": "multiplierInfos",
      "outputs": [
        {
          "internalType": "uint256",
          "name": "",
          "type": "uint256"
        }
      ],
      "stateMutability": "view",
      "type": "function"
    },
    {
      "inputs": [
        {
          "internalType": "address",
          "name": "",
          "type": "address"
        },
        {
          "internalType": "address",
          "name": "from",
          "type": "address"
        },
        {
          "internalType": "uint256[]",
          "name": "ids",
          "type": "uint256[]"
        },
        {
          "internalType": "uint256[]",
          "name": "values",
          "type": "uint256[]"
        },
        {
          "internalType": "bytes",
          "name": "",
          "type": "bytes"
        }
      ],
      "name": "onERC1155BatchReceived",
      "outputs": [
        {
          "internalType": "bytes4",
          "name": "",
          "type": "bytes4"
        }
      ],
      "stateMutability": "nonpayable",
      "type": "function"
    },
    {
      "inputs": [
        {
          "internalType": "address",
          "name": "",
          "type": "address"
        },
        {
          "internalType": "address",
          "name": "from",
          "type": "address"
        },
        {
          "internalType": "uint256",
          "name": "id",
          "type": "uint256"
        },
        {
          "internalType": "uint256",
          "name": "value",
          "type": "uint256"
        },
        {
          "internalType": "bytes",
          "name": "data",
          "type": "bytes"
        }
      ],
      "name": "onERC1155Received",
      "outputs": [
        {
          "internalType": "bytes4",
          "name": "",
          "type": "bytes4"
        }
      ],
      "stateMutability": "nonpayable",
      "type": "function"
    },
    {
      "inputs": [
        {
          "internalType": "bytes32[]",
          "name": "proof",
          "type": "bytes32[]"
        },
        {
          "internalType": "address",
          "name": "recipient",
          "type": "address"
        },
        {
          "internalType": "uint256",
          "name": "newAnichessGameMultiplierNumerator",
          "type": "uint256"
        }
      ],
      "name": "setAnichessGameMultiplierNumerator",
      "outputs": [],
      "stateMutability": "nonpayable",
      "type": "function"
    },
    {
      "inputs": [
        {
          "internalType": "bytes4",
          "name": "interfaceId",
          "type": "bytes4"
        }
      ],
      "name": "supportsInterface",
      "outputs": [
        {
          "internalType": "bool",
          "name": "",
          "type": "bool"
        }
      ],
      "stateMutability": "view",
      "type": "function"
    },
    {
      "inputs": [
        {
          "internalType": "uint256",
          "name": "",
          "type": "uint256"
        },
        {
          "internalType": "address",
          "name": "",
          "type": "address"
        }
      ],
      "name": "userAshByCycle",
      "outputs": [
        {
          "internalType": "uint256",
          "name": "",
          "type": "uint256"
        }
      ],
      "stateMutability": "view",
      "type": "function"
    }
  ],
  "bytecode": "0x6101c060405261271060a0526001610160523480156200001e57600080fd5b5060405162001aad38038062001aad8339810160408190526200004191620002ef565b6001600160a01b0381166080526200006e630271189760e51b600162000066620000bb565b9190620000f1565b60e08a90526101008990526101208890526101808490526001600160a01b0380841661014052871660c0526101a0829052620000ab86866200014e565b50505050505050505050620003fc565b600080620000eb60017fca9d3e17f264b0f3984e2634e94adb37fa3e6a8103f06aeae6fa59e21c769f5e620003c4565b92915050565b600160e01b6001600160e01b031983160162000120576040516372c683bb60e01b815260040160405180910390fd5b6001600160e01b03199190911660009081526020929092526040909120805460ff1916911515919091179055565b805182511462000171576040516335e83ac360e01b815260040160405180910390fd5b60005b8251811015620002105760008181526004602052604090205415620001d657828181518110620001a857620001a8620003e6565b602002602001015160405163faf6788760e01b8152600401620001cd91815260200190565b60405180910390fd5b818181518110620001eb57620001eb620003e6565b6020908102919091018101516000838152600490925260409091205560010162000174565b505050565b80516001600160a01b03811681146200022d57600080fd5b919050565b634e487b7160e01b600052604160045260246000fd5b600082601f8301126200025a57600080fd5b815160206001600160401b038083111562000279576200027962000232565b8260051b604051601f19603f83011681018181108482111715620002a157620002a162000232565b6040529384526020818701810194908101925087851115620002c257600080fd5b6020870191505b84821015620002e457815183529183019190830190620002c9565b979650505050505050565b6000806000806000806000806000806101408b8d0312156200031057600080fd5b8a51995060208b0151985060408b015197506200033060608c0162000215565b60808c01519097506001600160401b03808211156200034e57600080fd5b6200035c8e838f0162000248565b975060a08d01519150808211156200037357600080fd5b50620003828d828e0162000248565b95505060c08b015193506200039a60e08c0162000215565b92506101008b01519150620003b36101208c0162000215565b90509295989b9194979a5092959850565b81810381811115620000eb57634e487b7160e01b600052601160045260246000fd5b634e487b7160e01b600052603260045260246000fd5b60805160a05160c05160e05161010051610120516101405161016051610180516101a0516115ef620004be6000396000818161020f0152610bd80152600081816102a40152610e6b0152600081816101d30152610a5701526000818161043e01526109fc01526000818161019e015261064d015260008181610465015261056f01526000818161027d015261059301526000818161031801526105e10152600081816103ab015261080f01526000818161023301526102d601526115ef6000f3fe608060405234801561001057600080fd5b506004361061016c5760003560e01c80637e26d0cd116100cd578063cd18a34f11610081578063e1c96c2011610066578063e1c96c2014610487578063f23a6e61146104aa578063fa9fdc6a146104bd57600080fd5b8063cd18a34f14610439578063cd421fbf1461046057600080fd5b8063b28fd6e6116100b2578063b28fd6e6146103cd578063bab2f552146103ed578063bc197c81146103f557600080fd5b80637e26d0cd1461033a578063918f8674146103a657600080fd5b80632b4c9f161161012457806351e75e8b1161010957806351e75e8b1461029f578063572b6c05146102c657806372d69aa01461031357600080fd5b80632b4c9f1614610231578063491bde661461027857600080fd5b80631de0e40b116101555780631de0e40b146101ce57806324190c6e146101f55780632b093fe91461020a57600080fd5b806301ffc9a714610171578063043063bc14610199575b600080fd5b61018461017f36600461100c565b6104e8565b60405190151581526020015b60405180910390f35b6101c07f000000000000000000000000000000000000000000000000000000000000000081565b604051908152602001610190565b6101c07f000000000000000000000000000000000000000000000000000000000000000081565b6102086102033660046110c3565b610502565b005b6101c07f000000000000000000000000000000000000000000000000000000000000000081565b7f00000000000000000000000000000000000000000000000000000000000000005b60405173ffffffffffffffffffffffffffffffffffffffff9091168152602001610190565b6101c07f000000000000000000000000000000000000000000000000000000000000000081565b6101c07f000000000000000000000000000000000000000000000000000000000000000081565b6101846102d436600461111f565b7f000000000000000000000000000000000000000000000000000000000000000073ffffffffffffffffffffffffffffffffffffffff90811691161490565b6102537f000000000000000000000000000000000000000000000000000000000000000081565b61037861034836600461111f565b73ffffffffffffffffffffffffffffffffffffffff1660009081526003602052604090205490608082901c908290565b604080519384526fffffffffffffffffffffffffffffffff9283166020850152911690820152606001610190565b6101c07f000000000000000000000000000000000000000000000000000000000000000081565b6101c06103db36600461111f565b60036020526000908152604090205481565b6101c061056b565b61040861040336600461117c565b6105c7565b6040517fffffffff000000000000000000000000000000000000000000000000000000009091168152602001610190565b6102537f000000000000000000000000000000000000000000000000000000000000000081565b6101c07f000000000000000000000000000000000000000000000000000000000000000081565b610184610495366004611237565b60026020526000908152604090205460ff1681565b6104086104b8366004611250565b6109e2565b6101c06104cb3660046112c8565b600160209081526000928352604080842090915290825290205481565b60006104fc826104f6610c85565b90610cb3565b92915050565b610564848480806020026020016040519081016040528093929190818152602001838360200280828437600092018290525073ffffffffffffffffffffffffffffffffffffffff88168152600360205260409020548793509150859050610d8d565b5050505050565b60007f00000000000000000000000000000000000000000000000000000000000000006105b87f000000000000000000000000000000000000000000000000000000000000000042611323565b6105c29190611336565b905090565b60003373ffffffffffffffffffffffffffffffffffffffff7f0000000000000000000000000000000000000000000000000000000000000000161461063f576040517f961c9a4f0000000000000000000000000000000000000000000000000000000081523360048201526024015b60405180910390fd5b600061064961056b565b90507f00000000000000000000000000000000000000000000000000000000000000008111156106a8576040517f764e560f00000000000000000000000000000000000000000000000000000000815260048101829052602401610636565b6000805b88811015610791576000600460008c8c858181106106cc576106cc611371565b9050602002013581526020019081526020016000205490508060000361075857338b8b848181106106ff576106ff611371565b6040517f1912ea5100000000000000000000000000000000000000000000000000000000815273ffffffffffffffffffffffffffffffffffffffff90941660048501526020029190910135602483015250604401610636565b8089898481811061076b5761076b611371565b9050602002013561077c91906113a0565b61078690846113b7565b9250506001016106ac565b5073ffffffffffffffffffffffffffffffffffffffff8a16600090815260036020526040902054608081901c816fffffffffffffffffffffffffffffffff8116156107f5576107f26fffffffffffffffffffffffffffffffff8216856113a0565b93505b6fffffffffffffffffffffffffffffffff821615610857577f000000000000000000000000000000000000000000000000000000000000000061084a6fffffffffffffffffffffffffffffffff8416866113a0565b6108549190611336565b93505b836001600087815260200190815260200160002060008f73ffffffffffffffffffffffffffffffffffffffff1673ffffffffffffffffffffffffffffffffffffffff16815260200190815260200160002060008282546108b791906113b7565b9091555050600085815260208190526040812080548692906108da9084906113b7565b925050819055503373ffffffffffffffffffffffffffffffffffffffff1663805349348e8e8e8e8e6040518663ffffffff1660e01b8152600401610922959493929190611415565b600060405180830381600087803b15801561093c57600080fd5b505af1158015610950573d6000803e3d6000fd5b50505050848d73ffffffffffffffffffffffffffffffffffffffff167f12154d1bf24e3c99606a6e0a08972355a7a52b92d6f9093e67f843b070e06ff6428f8f8f8f8b8b6040516109a79796959493929190611464565b60405180910390a3507fbc197c81000000000000000000000000000000000000000000000000000000009d9c50505050505050505050505050565b60003373ffffffffffffffffffffffffffffffffffffffff7f00000000000000000000000000000000000000000000000000000000000000001614610a55576040517f961c9a4f000000000000000000000000000000000000000000000000000000008152336004820152602401610636565b7f00000000000000000000000000000000000000000000000000000000000000008514610ab7576040517f1912ea5100000000000000000000000000000000000000000000000000000000815233600482015260248101869052604401610636565b83600114610afb576040517ff789eb2f0000000000000000000000000000000000000000000000000000000081526004810185905260016024820152604401610636565b73ffffffffffffffffffffffffffffffffffffffff86166000908152600360205260409020548215610b4b57600080610b36858701876114d7565b91509150610b46828a8584610d8d565b925050505b6fffffffffffffffffffffffffffffffff811615610bad576040517f03a0028700000000000000000000000000000000000000000000000000000000815273ffffffffffffffffffffffffffffffffffffffff88166004820152602401610636565b73ffffffffffffffffffffffffffffffffffffffff87166000818152600360209081526040918290207f00000000000000000000000000000000000000000000000000000000000000007fffffffffffffffffffffffffffffffff0000000000000000000000000000000086161790819055825185815291820181905292917f54519572e3429998e82594d8b7f18c8099087447d701cbaa619b5e26f6de47eb910160405180910390a2507ff23a6e610000000000000000000000000000000000000000000000000000000098975050505050505050565b6000806104fc60017fca9d3e17f264b0f3984e2634e94adb37fa3e6a8103f06aeae6fa59e21c769f5e611323565b60007c01000000000000000000000000000000000000000000000000000000007fffffffff00000000000000000000000000000000000000000000000000000000831601610d03575060006104fc565b7ffe003659000000000000000000000000000000000000000000000000000000007fffffffff00000000000000000000000000000000000000000000000000000000831601610d54575060016104fc565b507fffffffff00000000000000000000000000000000000000000000000000000000166000908152602091909152604090205460ff1690565b6040517fffffffffffffffffffffffffffffffffffffffff000000000000000000000000606085901b1660208201526034810182905260009081906054016040516020818303038152906040528051906020012090506000608085901c6fffffffffffffffffffffffffffffffff161180610e16575060008181526002602052604090205460ff165b15610e65576040517f18ed059000000000000000000000000000000000000000000000000000000000815273ffffffffffffffffffffffffffffffffffffffff86166004820152602401610636565b610e90867f000000000000000000000000000000000000000000000000000000000000000083610f81565b610ec6576040517f09bde33900000000000000000000000000000000000000000000000000000000815260040160405180910390fd5b73ffffffffffffffffffffffffffffffffffffffff851660008181526003602090815260408083206fffffffffffffffffffffffffffffffff8916608089901b1790819055858452600283529281902080547fffffffffffffffffffffffffffffffffffffffffffffffffffffffffffffff0016600117905580518881529182018390529194507f54519572e3429998e82594d8b7f18c8099087447d701cbaa619b5e26f6de47eb910160405180910390a250949350505050565b600082610f8e8584610f97565b14949350505050565b600081815b8451811015610fd257610fc882868381518110610fbb57610fbb611371565b6020026020010151610fda565b9150600101610f9c565b509392505050565b6000818310610ff6576000828152602084905260409020611005565b60008381526020839052604090205b9392505050565b60006020828403121561101e57600080fd5b81357fffffffff000000000000000000000000000000000000000000000000000000008116811461100557600080fd5b60008083601f84011261106057600080fd5b50813567ffffffffffffffff81111561107857600080fd5b6020830191508360208260051b850101111561109357600080fd5b9250929050565b803573ffffffffffffffffffffffffffffffffffffffff811681146110be57600080fd5b919050565b600080600080606085870312156110d957600080fd5b843567ffffffffffffffff8111156110f057600080fd5b6110fc8782880161104e565b909550935061110f90506020860161109a565b9396929550929360400135925050565b60006020828403121561113157600080fd5b6110058261109a565b60008083601f84011261114c57600080fd5b50813567ffffffffffffffff81111561116457600080fd5b60208301915083602082850101111561109357600080fd5b60008060008060008060008060a0898b03121561119857600080fd5b6111a18961109a565b97506111af60208a0161109a565b9650604089013567ffffffffffffffff808211156111cc57600080fd5b6111d88c838d0161104e565b909850965060608b01359150808211156111f157600080fd5b6111fd8c838d0161104e565b909650945060808b013591508082111561121657600080fd5b506112238b828c0161113a565b999c989b5096995094979396929594505050565b60006020828403121561124957600080fd5b5035919050565b60008060008060008060a0878903121561126957600080fd5b6112728761109a565b95506112806020880161109a565b94506040870135935060608701359250608087013567ffffffffffffffff8111156112aa57600080fd5b6112b689828a0161113a565b979a9699509497509295939492505050565b600080604083850312156112db57600080fd5b823591506112eb6020840161109a565b90509250929050565b7f4e487b7100000000000000000000000000000000000000000000000000000000600052601160045260246000fd5b818103818111156104fc576104fc6112f4565b60008261136c577f4e487b7100000000000000000000000000000000000000000000000000000000600052601260045260246000fd5b500490565b7f4e487b7100000000000000000000000000000000000000000000000000000000600052603260045260246000fd5b80820281158282048414176104fc576104fc6112f4565b808201808211156104fc576104fc6112f4565b81835260007f07ffffffffffffffffffffffffffffffffffffffffffffffffffffffffffffff8311156113fc57600080fd5b8260051b80836020870137939093016020019392505050565b73ffffffffffffffffffffffffffffffffffffffff861681526060602082015260006114456060830186886113ca565b82810360408401526114588185876113ca565b98975050505050505050565b87815260a06020820152600061147e60a08301888a6113ca565b82810360408401526114918187896113ca565b606084019590955250506080015295945050505050565b7f4e487b7100000000000000000000000000000000000000000000000000000000600052604160045260246000fd5b600080604083850312156114ea57600080fd5b823567ffffffffffffffff8082111561150257600080fd5b818501915085601f83011261151657600080fd5b813560208282111561152a5761152a6114a8565b8160051b6040517fffffffffffffffffffffffffffffffffffffffffffffffffffffffffffffffe0603f8301168101818110868211171561156d5761156d6114a8565b60405292835281830193508481018201928984111561158b57600080fd5b948201945b838610156115a957853585529482019493820193611590565b999790910135975050505050505056fea26469706673582212205bdc6c3da4deb158119a9c968f428f3cd56aae3d9c226cc2d6dcb6cf562443e564736f6c63430008160033",
  "linkReferences": {},
  "deployedLinkReferences": {}
}