{
  "_format": "hh-sol-artifact-1",
  "contractName": "AnichessOrbsBurnPool",
  "sourceName": "contracts/burn/AnichessOrbsBurnPool.sol",
  "abi": [
    {
      "inputs": [
        {
          "internalType": "uint256",
          "name": "initialTime",
          "type": "uint256"
        },
        {
          "internalType": "uint256",
          "name": "cycleDuration",
          "type": "uint256"
        },
        {
          "internalType": "uint256",
          "name": "maxCycle",
          "type": "uint256"
        },
        {
          "internalType": "contract IERC1155Burnable",
          "name": "orbOfPower",
          "type": "address"
        },
        {
          "internalType": "bytes32",
          "name": "merkleRoot",
          "type": "bytes32"
        },
        {
          "internalType": "contract IERC1155Burnable",
          "name": "missingOrb",
          "type": "address"
        },
        {
          "internalType": "contract IForwarderRegistry",
          "name": "forwarderRegistry",
          "type": "address"
        }
      ],
      "stateMutability": "nonpayable",
      "type": "constructor"
    },
    {
      "inputs": [
        {
          "internalType": "bytes32",
          "name": "leaf",
          "type": "bytes32"
        }
      ],
      "name": "AlreadyConsumedLeaf",
      "type": "error"
    },
    {
      "inputs": [
        {
          "internalType": "address",
          "name": "recipient",
          "type": "address"
        }
      ],
      "name": "AlreadySetAnichessGameMultiplierNumerator",
      "type": "error"
    },
    {
      "inputs": [
        {
          "internalType": "address",
          "name": "wallet",
          "type": "address"
        }
      ],
      "name": "AlreadySetTokenMultiplier",
      "type": "error"
    },
    {
      "inputs": [],
      "name": "IllegalInterfaceId",
      "type": "error"
    },
    {
      "inputs": [
        {
          "internalType": "uint256",
          "name": "cycle",
          "type": "uint256"
        }
      ],
      "name": "InvalidCycle",
      "type": "error"
    },
    {
      "inputs": [],
      "name": "InvalidProof",
      "type": "error"
    },
    {
      "inputs": [
        {
          "internalType": "address",
          "name": "token",
          "type": "address"
        }
      ],
      "name": "InvalidToken",
      "type": "error"
    },
    {
      "inputs": [
        {
          "internalType": "address",
          "name": "token",
          "type": "address"
        },
        {
          "internalType": "uint256",
          "name": "tokenId",
          "type": "uint256"
        }
      ],
      "name": "InvalidTokenId",
      "type": "error"
    },
    {
      "inputs": [
        {
          "internalType": "uint256",
          "name": "value",
          "type": "uint256"
        },
        {
          "internalType": "uint256",
          "name": "expectedValue",
          "type": "uint256"
        }
      ],
      "name": "InvalidTokenValue",
      "type": "error"
    },
    {
      "inputs": [],
      "name": "ZeroCycleDuration",
      "type": "error"
    },
    {
      "inputs": [],
      "name": "ZeroMaxCycle",
      "type": "error"
    },
    {
      "anonymous": false,
      "inputs": [
        {
          "indexed": true,
          "internalType": "address",
          "name": "burner",
          "type": "address"
        },
        {
          "indexed": true,
          "internalType": "uint256",
          "name": "cycle",
          "type": "uint256"
        },
        {
          "indexed": false,
          "internalType": "uint256[]",
          "name": "ids",
          "type": "uint256[]"
        },
        {
          "indexed": false,
          "internalType": "uint256[]",
          "name": "values",
          "type": "uint256[]"
        },
        {
          "indexed": false,
          "internalType": "uint256",
          "name": "ash",
          "type": "uint256"
        },
        {
          "indexed": false,
          "internalType": "uint256",
          "name": "multiplierInfo",
          "type": "uint256"
        }
      ],
      "name": "GenerateAsh",
      "type": "event"
    },
    {
      "anonymous": false,
      "inputs": [
        {
          "indexed": true,
          "internalType": "address",
          "name": "recipient",
          "type": "address"
        },
        {
          "indexed": false,
          "internalType": "uint256",
          "name": "curr",
          "type": "uint256"
        },
        {
          "indexed": false,
          "internalType": "uint256",
          "name": "updated",
          "type": "uint256"
        }
      ],
      "name": "UpdateMultiplierInfo",
      "type": "event"
    },
    {
      "inputs": [],
      "name": "CYCLE_DURATION",
      "outputs": [
        {
          "internalType": "uint256",
          "name": "",
          "type": "uint256"
        }
      ],
      "stateMutability": "view",
      "type": "function"
    },
    {
      "inputs": [],
      "name": "INITIAL_TIME",
      "outputs": [
        {
          "internalType": "uint256",
          "name": "",
          "type": "uint256"
        }
      ],
      "stateMutability": "view",
      "type": "function"
    },
    {
      "inputs": [],
      "name": "MAX_CYCLE",
      "outputs": [
        {
          "internalType": "uint256",
          "name": "",
          "type": "uint256"
        }
      ],
      "stateMutability": "view",
      "type": "function"
    },
    {
      "inputs": [],
      "name": "MERKLE_ROOT",
      "outputs": [
        {
          "internalType": "bytes32",
          "name": "",
          "type": "bytes32"
        }
      ],
      "stateMutability": "view",
      "type": "function"
    },
    {
      "inputs": [],
      "name": "MISSING_ORB",
      "outputs": [
        {
          "internalType": "contract IERC1155Burnable",
          "name": "",
          "type": "address"
        }
      ],
      "stateMutability": "view",
      "type": "function"
    },
    {
      "inputs": [],
      "name": "ORB_OF_POWER",
      "outputs": [
        {
          "internalType": "contract IERC1155Burnable",
          "name": "",
          "type": "address"
        }
      ],
      "stateMutability": "view",
      "type": "function"
    },
    {
      "inputs": [],
      "name": "TOKEN_MULTIPLIER",
      "outputs": [
        {
          "internalType": "uint256",
          "name": "",
          "type": "uint256"
        }
      ],
      "stateMutability": "view",
      "type": "function"
    },
    {
      "inputs": [],
      "name": "currentCycle",
      "outputs": [
        {
          "internalType": "uint256",
          "name": "",
          "type": "uint256"
        }
      ],
      "stateMutability": "view",
      "type": "function"
    },
    {
      "inputs": [],
      "name": "forwarderRegistry",
      "outputs": [
        {
          "internalType": "contract IForwarderRegistry",
          "name": "",
          "type": "address"
        }
      ],
      "stateMutability": "view",
      "type": "function"
    },
    {
      "inputs": [
        {
          "internalType": "address",
          "name": "forwarder",
          "type": "address"
        }
      ],
      "name": "isTrustedForwarder",
      "outputs": [
        {
          "internalType": "bool",
          "name": "",
          "type": "bool"
        }
      ],
      "stateMutability": "view",
      "type": "function"
    },
    {
      "inputs": [
        {
          "internalType": "bytes32",
          "name": "",
          "type": "bytes32"
        }
      ],
      "name": "leafConsumptionStatus",
      "outputs": [
        {
          "internalType": "bool",
          "name": "",
          "type": "bool"
        }
      ],
      "stateMutability": "view",
      "type": "function"
    },
    {
      "inputs": [
        {
          "internalType": "address",
          "name": "",
          "type": "address"
        }
      ],
      "name": "multiplierInfos",
      "outputs": [
        {
          "internalType": "uint256",
          "name": "",
          "type": "uint256"
        }
      ],
      "stateMutability": "view",
      "type": "function"
    },
    {
      "inputs": [
        {
          "internalType": "address",
          "name": "",
          "type": "address"
        },
        {
          "internalType": "address",
          "name": "from",
          "type": "address"
        },
        {
          "internalType": "uint256[]",
          "name": "ids",
          "type": "uint256[]"
        },
        {
          "internalType": "uint256[]",
          "name": "values",
          "type": "uint256[]"
        },
        {
          "internalType": "bytes",
          "name": "data",
          "type": "bytes"
        }
      ],
      "name": "onERC1155BatchReceived",
      "outputs": [
        {
          "internalType": "bytes4",
          "name": "",
          "type": "bytes4"
        }
      ],
      "stateMutability": "nonpayable",
      "type": "function"
    },
    {
      "inputs": [
        {
          "internalType": "address",
          "name": "",
          "type": "address"
        },
        {
          "internalType": "address",
          "name": "from",
          "type": "address"
        },
        {
          "internalType": "uint256",
          "name": "id",
          "type": "uint256"
        },
        {
          "internalType": "uint256",
          "name": "value",
          "type": "uint256"
        },
        {
          "internalType": "bytes",
          "name": "data",
          "type": "bytes"
        }
      ],
      "name": "onERC1155Received",
      "outputs": [
        {
          "internalType": "bytes4",
          "name": "",
          "type": "bytes4"
        }
      ],
      "stateMutability": "nonpayable",
      "type": "function"
    },
    {
      "inputs": [
        {
          "internalType": "bytes4",
          "name": "interfaceId",
          "type": "bytes4"
        }
      ],
      "name": "supportsInterface",
      "outputs": [
        {
          "internalType": "bool",
          "name": "",
          "type": "bool"
        }
      ],
      "stateMutability": "view",
      "type": "function"
    },
    {
      "inputs": [
        {
          "internalType": "uint256",
          "name": "",
          "type": "uint256"
        }
      ],
      "name": "totalAshByCycle",
      "outputs": [
        {
          "internalType": "uint256",
          "name": "",
          "type": "uint256"
        }
      ],
      "stateMutability": "view",
      "type": "function"
    },
    {
      "inputs": [
        {
          "internalType": "uint256",
          "name": "",
          "type": "uint256"
        },
        {
          "internalType": "address",
          "name": "",
          "type": "address"
        }
      ],
      "name": "userAshByCycle",
      "outputs": [
        {
          "internalType": "uint256",
          "name": "",
          "type": "uint256"
        }
      ],
      "stateMutability": "view",
      "type": "function"
    }
  ],
  "bytecode": "0x6101606040523480156200001257600080fd5b5060405162001bd838038062001bd8833981016040819052620000359162000186565b6001600160a01b03811660805262000062630271189760e51b60016200005a620000da565b919062000110565b60c087905260008690036200008a5760405163b870efbd60e01b815260040160405180910390fd5b60e08690526000859003620000b257604051637e5e559b60e11b815260040160405180910390fd5b5061010093909352610140526001600160a01b03918216610120521660a05250620002239050565b6000806200010a60017fca9d3e17f264b0f3984e2634e94adb37fa3e6a8103f06aeae6fa59e21c769f5e62000201565b92915050565b600160e01b6001600160e01b03198316016200013f576040516372c683bb60e01b815260040160405180910390fd5b6001600160e01b03199190911660009081526020929092526040909120805460ff1916911515919091179055565b6001600160a01b03811681146200018357600080fd5b50565b600080600080600080600060e0888a031215620001a257600080fd5b8751965060208801519550604088015194506060880151620001c4816200016d565b608089015160a08a01519195509350620001de816200016d565b60c0890151909250620001f1816200016d565b8091505092959891949750929550565b818103818111156200010a57634e487b7160e01b600052601160045260246000fd5b60805160a05160c05160e051610100516101205161014051611922620002b6600039600081816102230152610fa40152600081816103230152610a8c01526000818161014d015281816104c90152610b7a01526000818161034a01526103eb0152600081816101fc015261040f015260008181610182015261045d0152600081816101d3015261025501526119226000f3fe608060405234801561001057600080fd5b506004361061011b5760003560e01c80636dca8c06116100b2578063cd18a34f11610081578063e1c96c2011610066578063e1c96c201461036c578063f23a6e611461038f578063fa9fdc6a146103a257600080fd5b8063cd18a34f1461031e578063cd421fbf1461034557600080fd5b80636dca8c0614610292578063b28fd6e6146102b2578063bab2f552146102d2578063bc197c81146102da57600080fd5b80632b4c9f16116100ee5780632b4c9f16146101d1578063491bde66146101f757806351e75e8b1461021e578063572b6c051461024557600080fd5b806301ffc9a714610120578063043063bc1461014857806328a979cf1461017d5780632b093fe9146101c9575b600080fd5b61013361012e3660046112e4565b6103cd565b60405190151581526020015b60405180910390f35b61016f7f000000000000000000000000000000000000000000000000000000000000000081565b60405190815260200161013f565b6101a47f000000000000000000000000000000000000000000000000000000000000000081565b60405173ffffffffffffffffffffffffffffffffffffffff909116815260200161013f565b61016f600281565b7f00000000000000000000000000000000000000000000000000000000000000006101a4565b61016f7f000000000000000000000000000000000000000000000000000000000000000081565b61016f7f000000000000000000000000000000000000000000000000000000000000000081565b61013361025336600461134f565b7f000000000000000000000000000000000000000000000000000000000000000073ffffffffffffffffffffffffffffffffffffffff90811691161490565b61016f6102a036600461136a565b60006020819052908152604090205481565b61016f6102c036600461134f565b60036020526000908152604090205481565b61016f6103e7565b6102ed6102e8366004611411565b610443565b6040517fffffffff00000000000000000000000000000000000000000000000000000000909116815260200161013f565b6101a47f000000000000000000000000000000000000000000000000000000000000000081565b61016f7f000000000000000000000000000000000000000000000000000000000000000081565b61013361037a36600461136a565b60026020526000908152604090205460ff1681565b6102ed61039d3660046114cc565b610a72565b61016f6103b0366004611544565b600160209081526000928352604080842090915290825290205481565b60006103e1826103db610dcc565b90610dfa565b92915050565b60007f00000000000000000000000000000000000000000000000000000000000000006104347f00000000000000000000000000000000000000000000000000000000000000004261159f565b61043e91906115b2565b905090565b60003373ffffffffffffffffffffffffffffffffffffffff7f000000000000000000000000000000000000000000000000000000000000000016146104bb576040517f961c9a4f0000000000000000000000000000000000000000000000000000000081523360048201526024015b60405180910390fd5b60006104c56103e7565b90507f0000000000000000000000000000000000000000000000000000000000000000811115610524576040517f764e560f000000000000000000000000000000000000000000000000000000008152600481018290526024016104b2565b6000805b888110156107665760008a8a83818110610544576105446115ed565b9050602002013560010361055a575060016106b6565b8a8a8381811061056c5761056c6115ed565b90506020020135600203610582575060036106b6565b8a8a83818110610594576105946115ed565b905060200201356003036105aa575060036106b6565b8a8a838181106105bc576105bc6115ed565b905060200201356004036105d2575060056106b6565b8a8a838181106105e4576105e46115ed565b905060200201356005036105fa575060096106b6565b8a8a8381811061060c5761060c6115ed565b90506020020135600603610622575060196106b6565b8a8a83818110610634576106346115ed565b9050602002013560070361064a575060106106b6565b338b8b8481811061065d5761065d6115ed565b6040517f1912ea5100000000000000000000000000000000000000000000000000000000815273ffffffffffffffffffffffffffffffffffffffff909416600485015260200291909101356024830152506044016104b2565b8888838181106106c8576106c86115ed565b9050602002013560000361072d578888838181106106e8576106e86115ed565b6040517ff3cc8ce400000000000000000000000000000000000000000000000000000000815260209091029290920135600483015250600060248201526044016104b2565b80898984818110610740576107406115ed565b90506020020135610751919061161c565b61075b9084611633565b925050600101610528565b5073ffffffffffffffffffffffffffffffffffffffff8a16600090815260036020526040902054841561087a576000806107a287890189611675565b915091506107b2828e8584610ed4565b92506000600360008f73ffffffffffffffffffffffffffffffffffffffff1673ffffffffffffffffffffffffffffffffffffffff1681526020019081526020016000205490506108376040518060400160405280601881526020017f6d756c7469706c696572496e666f2073746f726167653a20000000000000000081525082611106565b6108766040518060400160405280600681526020017f66726f6d3a2000000000000000000000000000000000000000000000000000008152508f61119b565b5050505b6fffffffffffffffffffffffffffffffff8116608082901c81156108a5576108a2828561161c565b93505b6fffffffffffffffffffffffffffffffff8116156108e9576127106108dc6fffffffffffffffffffffffffffffffff83168661161c565b6108e691906115b2565b93505b836001600087815260200190815260200160002060008f73ffffffffffffffffffffffffffffffffffffffff1673ffffffffffffffffffffffffffffffffffffffff16815260200190815260200160002060008282546109499190611633565b90915550506000858152602081905260408120805486929061096c908490611633565b925050819055503373ffffffffffffffffffffffffffffffffffffffff166380534934308e8e8e8e6040518663ffffffff1660e01b81526004016109b49594939291906117a2565b600060405180830381600087803b1580156109ce57600080fd5b505af11580156109e2573d6000803e3d6000fd5b50505050848d73ffffffffffffffffffffffffffffffffffffffff167f607d04b62b6720200ee29c63ac2e4b0aa4024c85f7b80181ac61d6bb6f5e797a8e8e8e8e8a8a604051610a37969594939291906117f1565b60405180910390a3507fbc197c81000000000000000000000000000000000000000000000000000000009d9c50505050505050505050505050565b60003373ffffffffffffffffffffffffffffffffffffffff7f00000000000000000000000000000000000000000000000000000000000000001614610ae5576040517f961c9a4f0000000000000000000000000000000000000000000000000000000081523360048201526024016104b2565b60018514610b28576040517f1912ea51000000000000000000000000000000000000000000000000000000008152336004820152602481018690526044016104b2565b83600114610b6c576040517ff3cc8ce400000000000000000000000000000000000000000000000000000000815260048101859052600160248201526044016104b2565b6000610b766103e7565b90507f0000000000000000000000000000000000000000000000000000000000000000811115610bd5576040517f764e560f000000000000000000000000000000000000000000000000000000008152600481018290526024016104b2565b73ffffffffffffffffffffffffffffffffffffffff87166000908152600360205260409020546fffffffffffffffffffffffffffffffff811615610c5d576040517f55c9045d00000000000000000000000000000000000000000000000000000000815273ffffffffffffffffffffffffffffffffffffffff891660048201526024016104b2565b73ffffffffffffffffffffffffffffffffffffffff881660009081526003602052604090207fffffffffffffffffffffffffffffffff000000000000000000000000000000008216600217908190558415610cd557600080610cc187890189611675565b91509150610cd1828c8584610ed4565b5050505b6040517f124d91e50000000000000000000000000000000000000000000000000000000081523060048201526024810189905260448101889052339063124d91e590606401600060405180830381600087803b158015610d3457600080fd5b505af1158015610d48573d6000803e3d6000fd5b5050604080518581526020810185905273ffffffffffffffffffffffffffffffffffffffff8d1693507f54519572e3429998e82594d8b7f18c8099087447d701cbaa619b5e26f6de47eb92500160405180910390a2507ff23a6e61000000000000000000000000000000000000000000000000000000009998505050505050505050565b6000806103e160017fca9d3e17f264b0f3984e2634e94adb37fa3e6a8103f06aeae6fa59e21c769f5e61159f565b60007c01000000000000000000000000000000000000000000000000000000007fffffffff00000000000000000000000000000000000000000000000000000000831601610e4a575060006103e1565b7ffe003659000000000000000000000000000000000000000000000000000000007fffffffff00000000000000000000000000000000000000000000000000000000831601610e9b575060016103e1565b507fffffffff00000000000000000000000000000000000000000000000000000000166000908152602091909152604090205460ff1690565b6000608083901c15610f2a576040517f18ed059000000000000000000000000000000000000000000000000000000000815273ffffffffffffffffffffffffffffffffffffffff851660048201526024016104b2565b6040517fffffffffffffffffffffffffffffffffffffffff000000000000000000000000606086901b16602082015260348101839052600090605401604080517fffffffffffffffffffffffffffffffffffffffffffffffffffffffffffffffe081840301815291905280516020909101209050610fc9867f00000000000000000000000000000000000000000000000000000000000000008361122c565b610fff576040517f09bde33900000000000000000000000000000000000000000000000000000000815260040160405180910390fd5b60008181526002602052604090205460ff161561104b576040517f689301e8000000000000000000000000000000000000000000000000000000008152600481018290526024016104b2565b73ffffffffffffffffffffffffffffffffffffffff851660008181526003602090815260408083206fffffffffffffffffffffffffffffffff8916608089901b1790819055858452600283529281902080547fffffffffffffffffffffffffffffffffffffffffffffffffffffffffffffff0016600117905580518881529182018390529194507f54519572e3429998e82594d8b7f18c8099087447d701cbaa619b5e26f6de47eb910160405180910390a250949350505050565b611197828260405160240161111c929190611892565b604080517fffffffffffffffffffffffffffffffffffffffffffffffffffffffffffffffe08184030181529190526020810180517bffffffffffffffffffffffffffffffffffffffffffffffffffffffff167fb60e72cc00000000000000000000000000000000000000000000000000000000179052611242565b5050565b61119782826040516024016111b19291906118b4565b604080517fffffffffffffffffffffffffffffffffffffffffffffffffffffffffffffffe08184030181529190526020810180517bffffffffffffffffffffffffffffffffffffffffffffffffffffffff167f319af33300000000000000000000000000000000000000000000000000000000179052611242565b600082611239858461124e565b14949350505050565b61124b81611291565b50565b600081815b84518110156112895761127f82868381518110611272576112726115ed565b60200260200101516112b2565b9150600101611253565b509392505050565b60006a636f6e736f6c652e6c6f679050600080835160208501845afa505050565b60008183106112ce5760008281526020849052604090206112dd565b60008381526020839052604090205b9392505050565b6000602082840312156112f657600080fd5b81357fffffffff00000000000000000000000000000000000000000000000000000000811681146112dd57600080fd5b803573ffffffffffffffffffffffffffffffffffffffff8116811461134a57600080fd5b919050565b60006020828403121561136157600080fd5b6112dd82611326565b60006020828403121561137c57600080fd5b5035919050565b60008083601f84011261139557600080fd5b50813567ffffffffffffffff8111156113ad57600080fd5b6020830191508360208260051b85010111156113c857600080fd5b9250929050565b60008083601f8401126113e157600080fd5b50813567ffffffffffffffff8111156113f957600080fd5b6020830191508360208285010111156113c857600080fd5b60008060008060008060008060a0898b03121561142d57600080fd5b61143689611326565b975061144460208a01611326565b9650604089013567ffffffffffffffff8082111561146157600080fd5b61146d8c838d01611383565b909850965060608b013591508082111561148657600080fd5b6114928c838d01611383565b909650945060808b01359150808211156114ab57600080fd5b506114b88b828c016113cf565b999c989b5096995094979396929594505050565b60008060008060008060a087890312156114e557600080fd5b6114ee87611326565b95506114fc60208801611326565b94506040870135935060608701359250608087013567ffffffffffffffff81111561152657600080fd5b61153289828a016113cf565b979a9699509497509295939492505050565b6000806040838503121561155757600080fd5b8235915061156760208401611326565b90509250929050565b7f4e487b7100000000000000000000000000000000000000000000000000000000600052601160045260246000fd5b818103818111156103e1576103e1611570565b6000826115e8577f4e487b7100000000000000000000000000000000000000000000000000000000600052601260045260246000fd5b500490565b7f4e487b7100000000000000000000000000000000000000000000000000000000600052603260045260246000fd5b80820281158282048414176103e1576103e1611570565b808201808211156103e1576103e1611570565b7f4e487b7100000000000000000000000000000000000000000000000000000000600052604160045260246000fd5b6000806040838503121561168857600080fd5b823567ffffffffffffffff808211156116a057600080fd5b818501915085601f8301126116b457600080fd5b81356020828211156116c8576116c8611646565b8160051b6040517fffffffffffffffffffffffffffffffffffffffffffffffffffffffffffffffe0603f8301168101818110868211171561170b5761170b611646565b60405292835281830193508481018201928984111561172957600080fd5b948201945b838610156117475785358552948201949382019361172e565b9997909101359750505050505050565b81835260007f07ffffffffffffffffffffffffffffffffffffffffffffffffffffffffffffff83111561178957600080fd5b8260051b80836020870137939093016020019392505050565b73ffffffffffffffffffffffffffffffffffffffff861681526060602082015260006117d2606083018688611757565b82810360408401526117e5818587611757565b98975050505050505050565b60808152600061180560808301888a611757565b8281036020840152611818818789611757565b6040840195909552505060600152949350505050565b6000815180845260005b8181101561185457602081850181015186830182015201611838565b5060006020828601015260207fffffffffffffffffffffffffffffffffffffffffffffffffffffffffffffffe0601f83011685010191505092915050565b6040815260006118a5604083018561182e565b90508260208301529392505050565b6040815260006118c7604083018561182e565b905073ffffffffffffffffffffffffffffffffffffffff83166020830152939250505056fea2646970667358221220662f48048836f4e1010061773f689803b5c372560361de3173c812e6a6591fae64736f6c63430008160033",
  "linkReferences": {},
  "deployedLinkReferences": {}
}