{
  "_format": "hh-sol-artifact-1",
  "contractName": "TokenClaim",
  "sourceName": "contracts/claim/TokenClaim.sol",
  "abi": [
    {
      "inputs": [
        {
          "internalType": "address",
          "name": "inventory_",
          "type": "address"
        },
        {
          "internalType": "address",
          "name": "messageSigner_",
          "type": "address"
        }
      ],
      "stateMutability": "nonpayable",
      "type": "constructor"
    },
    {
      "anonymous": false,
      "inputs": [
        {
          "indexed": false,
          "internalType": "address",
          "name": "oldMessageSigner",
          "type": "address"
        },
        {
          "indexed": false,
          "internalType": "address",
          "name": "newMessageSigner",
          "type": "address"
        }
      ],
      "name": "MessageSignerUpdated",
      "type": "event"
    },
    {
      "anonymous": false,
      "inputs": [
        {
          "indexed": true,
          "internalType": "address",
          "name": "previousOwner",
          "type": "address"
        },
        {
          "indexed": true,
          "internalType": "address",
          "name": "newOwner",
          "type": "address"
        }
      ],
      "name": "OwnershipTransferred",
      "type": "event"
    },
    {
      "anonymous": false,
      "inputs": [],
      "name": "Paused",
      "type": "event"
    },
    {
      "anonymous": false,
      "inputs": [
        {
          "indexed": false,
          "internalType": "address",
          "name": "to",
          "type": "address"
        },
        {
          "indexed": false,
          "internalType": "uint256[]",
          "name": "orbIds",
          "type": "uint256[]"
        },
        {
          "indexed": false,
          "internalType": "uint256[]",
          "name": "orbCount",
          "type": "uint256[]"
        },
        {
          "indexed": false,
          "internalType": "uint256[]",
          "name": "xp",
          "type": "uint256[]"
        },
        {
          "indexed": false,
          "internalType": "uint256",
          "name": "nonce",
          "type": "uint256"
        }
      ],
      "name": "TokensClaimed",
      "type": "event"
    },
    {
      "anonymous": false,
      "inputs": [],
      "name": "Unpaused",
      "type": "event"
    },
    {
      "inputs": [],
      "name": "ORB_INVENTORY",
      "outputs": [
        {
          "internalType": "contract IORBNFT",
          "name": "",
          "type": "address"
        }
      ],
      "stateMutability": "view",
      "type": "function"
    },
    {
      "inputs": [
        {
          "internalType": "address",
          "name": "to",
          "type": "address"
        },
        {
          "internalType": "uint256[]",
          "name": "orbIds",
          "type": "uint256[]"
        },
        {
          "internalType": "uint256[]",
          "name": "xp",
          "type": "uint256[]"
        },
        {
          "internalType": "uint256[]",
          "name": "orbCount",
          "type": "uint256[]"
        },
        {
          "internalType": "bytes",
          "name": "signature",
          "type": "bytes"
        }
      ],
      "name": "claimTokens",
      "outputs": [],
      "stateMutability": "nonpayable",
      "type": "function"
    },
    {
      "inputs": [
        {
          "internalType": "address",
          "name": "user",
          "type": "address"
        }
      ],
      "name": "getNonce",
      "outputs": [
        {
          "internalType": "uint256",
          "name": "",
          "type": "uint256"
        }
      ],
      "stateMutability": "view",
      "type": "function"
    },
    {
      "inputs": [],
      "name": "messageSigner",
      "outputs": [
        {
          "internalType": "address",
          "name": "",
          "type": "address"
        }
      ],
      "stateMutability": "view",
      "type": "function"
    },
    {
      "inputs": [],
      "name": "owner",
      "outputs": [
        {
          "internalType": "address",
          "name": "",
          "type": "address"
        }
      ],
      "stateMutability": "view",
      "type": "function"
    },
    {
      "inputs": [],
      "name": "pause",
      "outputs": [],
      "stateMutability": "nonpayable",
      "type": "function"
    },
    {
      "inputs": [],
      "name": "paused",
      "outputs": [
        {
          "internalType": "bool",
          "name": "",
          "type": "bool"
        }
      ],
      "stateMutability": "view",
      "type": "function"
    },
    {
      "inputs": [
        {
          "internalType": "address[]",
          "name": "accounts",
          "type": "address[]"
        },
        {
          "internalType": "contract IERC20[]",
          "name": "tokens",
          "type": "address[]"
        },
        {
          "internalType": "uint256[]",
          "name": "amounts",
          "type": "uint256[]"
        }
      ],
      "name": "recoverERC20s",
      "outputs": [],
      "stateMutability": "nonpayable",
      "type": "function"
    },
    {
      "inputs": [
        {
          "internalType": "address[]",
          "name": "accounts",
          "type": "address[]"
        },
        {
          "internalType": "contract IERC721[]",
          "name": "contracts",
          "type": "address[]"
        },
        {
          "internalType": "uint256[]",
          "name": "tokenIds",
          "type": "uint256[]"
        }
      ],
      "name": "recoverERC721s",
      "outputs": [],
      "stateMutability": "nonpayable",
      "type": "function"
    },
    {
      "inputs": [
        {
          "internalType": "address payable[]",
          "name": "accounts",
          "type": "address[]"
        },
        {
          "internalType": "uint256[]",
          "name": "amounts",
          "type": "uint256[]"
        }
      ],
      "name": "recoverETH",
      "outputs": [],
      "stateMutability": "nonpayable",
      "type": "function"
    },
    {
      "inputs": [
        {
          "internalType": "address",
          "name": "newMessageSigner",
          "type": "address"
        }
      ],
      "name": "setMessageSigner",
      "outputs": [],
      "stateMutability": "nonpayable",
      "type": "function"
    },
    {
      "inputs": [
        {
          "internalType": "bytes4",
          "name": "interfaceId",
          "type": "bytes4"
        }
      ],
      "name": "supportsInterface",
      "outputs": [
        {
          "internalType": "bool",
          "name": "",
          "type": "bool"
        }
      ],
      "stateMutability": "view",
      "type": "function"
    },
    {
      "inputs": [
        {
          "internalType": "address",
          "name": "newOwner",
          "type": "address"
        }
      ],
      "name": "transferOwnership",
      "outputs": [],
      "stateMutability": "nonpayable",
      "type": "function"
    },
    {
      "inputs": [],
      "name": "unpause",
      "outputs": [],
      "stateMutability": "nonpayable",
      "type": "function"
    }
  ],
  "bytecode": "0x60a06040523480156200001157600080fd5b5060405162002442380380620024428339810160408190526200003491620003c1565b600033620000658162000051620001af60201b620009de1760201c565b620001e560201b62000a0c1790919060201c565b506200009481620000806200027860201b62000acd1760201c565b620002a860201b62000afb1790919060201c565b506001600160a01b038216620000f15760405162461bcd60e51b815260206004820152601d60248201527f546f6b656e436c61696d3a20696e76616c696420696e76656e746f727900000060448201526064015b60405180910390fd5b6001600160a01b038116620001495760405162461bcd60e51b815260206004820152601a60248201527f546f6b656e436c61696d3a20696e76616c6964207369676e65720000000000006044820152606401620000e8565b6001600160a01b03828116608052600080546001600160a01b03191691831691821781556040805191825260208201929092527fb0d0791e347bdc6678365d0f8c4232c168c40192108be24902c292267defafb5910160405180910390a150506200041b565b600080620001df60017fc9ed16f33ab3a66c84bfd83099ccb2a8845871e2e1c1928f63797152f0fd54cd620003f9565b92915050565b6001600160a01b038116156200023c5781546001600160a01b0319166001600160a01b03821690811783556040516000907f8be0079c531659141344cd1fd0a4f28419497f9722a3daafe3b4186f6b6457e0908290a35b620002746307f5828d60e41b60016200025f620002e760201b62000b571760201c565b6200031760201b62000b85179092919060201c565b5050565b600080620001df60017f0186a05f63b1553398ad5ea3233c0ce68b8c9eecc47717f123c5c2b42fbd6d9f620003f9565b80156200027457815460ff191660011782556040517f9e87fac88ff661f02d44f95383c817fece4bce600a3dab7a54406878b965e75290600090a15050565b600080620001df60017fca9d3e17f264b0f3984e2634e94adb37fa3e6a8103f06aeae6fa59e21c769f5e620003f9565b600160e01b6001600160e01b0319831601620003765760405162461bcd60e51b815260206004820152601f60248201527f496e74657266616365446574656374696f6e3a2077726f6e672076616c7565006044820152606401620000e8565b6001600160e01b03199190911660009081526020929092526040909120805460ff1916911515919091179055565b80516001600160a01b0381168114620003bc57600080fd5b919050565b60008060408385031215620003d557600080fd5b620003e083620003a4565b9150620003f060208401620003a4565b90509250929050565b81810381811115620001df57634e487b7160e01b600052601160045260246000fd5b6080516120046200043e600039600081816101ed015261083201526120046000f3fe608060405234801561001057600080fd5b50600436106100ea5760003560e01c80638456cb591161008c578063c3666c3611610066578063c3666c361461020f578063f2fde38b14610222578063f62ded8114610235578063f7ba94bd1461024857600080fd5b80638456cb59146101d85780638da5cb5b146101e0578063b1386c89146101e857600080fd5b80633f4ba83a116100c85780633f4ba83a146101a05780634b36df53146101aa5780635c975abb146101bd57806373c8a958146101c557600080fd5b806301ffc9a7146100ef578063080387b4146101175780632d0335ab1461015c575b600080fd5b6101026100fd3660046119a7565b61025b565b60405190151581526020015b60405180910390f35b6000546101379073ffffffffffffffffffffffffffffffffffffffff1681565b60405173ffffffffffffffffffffffffffffffffffffffff909116815260200161010e565b61019261016a366004611a12565b73ffffffffffffffffffffffffffffffffffffffff1660009081526001602052604090205490565b60405190815260200161010e565b6101a8610275565b005b6101a86101b8366004611a12565b61029a565b6101026103c0565b6101a86101d3366004611a74565b6103d9565b6101a86104fa565b610137610513565b6101377f000000000000000000000000000000000000000000000000000000000000000081565b6101a861021d366004611a74565b61053a565b6101a8610230366004611a12565b6106dd565b6101a8610243366004611b0e565b6106f4565b6101a8610256366004611c11565b6108f2565b600061026f82610269610b57565b90610c91565b92915050565b610288335b6102826109de565b90610d6b565b610298610293610acd565b610dee565b565b6102a33361027a565b73ffffffffffffffffffffffffffffffffffffffff8116610325576040517f08c379a000000000000000000000000000000000000000000000000000000000815260206004820152601a60248201527f546f6b656e436c61696d3a20696e76616c6964207369676e657200000000000060448201526064015b60405180910390fd5b6000546040805173ffffffffffffffffffffffffffffffffffffffff928316815291831660208301527fb0d0791e347bdc6678365d0f8c4232c168c40192108be24902c292267defafb5910160405180910390a1600080547fffffffffffffffffffffffff00000000000000000000000000000000000000001673ffffffffffffffffffffffffffffffffffffffff92909216919091179055565b60006103d46103cd610acd565b5460ff1690565b905090565b6103e23361027a565b8483811480156103f157508082145b610457576040517f08c379a000000000000000000000000000000000000000000000000000000000815260206004820152601d60248201527f5265636f766572793a20696e636f6e73697374656e7420617272617973000000604482015260640161031c565b60005b8181146104f0576104e888888381811061047657610476611c7d565b905060200201602081019061048b9190611a12565b85858481811061049d5761049d611c7d565b905060200201358888858181106104b6576104b6611c7d565b90506020020160208101906104cb9190611a12565b73ffffffffffffffffffffffffffffffffffffffff169190610e49565b60010161045a565b5050505050505050565b6105033361027a565b61029861050e610acd565b610edb565b60006103d46105206109de565b5473ffffffffffffffffffffffffffffffffffffffff1690565b6105433361027a565b84838114801561055257508082145b6105b8576040517f08c379a000000000000000000000000000000000000000000000000000000000815260206004820152601d60248201527f5265636f766572793a20696e636f6e73697374656e7420617272617973000000604482015260640161031c565b60005b8181146104f0578585828181106105d4576105d4611c7d565b90506020020160208101906105e99190611a12565b73ffffffffffffffffffffffffffffffffffffffff166323b872dd308a8a8581811061061757610617611c7d565b905060200201602081019061062c9190611a12565b87878681811061063e5761063e611c7d565b6040517fffffffff0000000000000000000000000000000000000000000000000000000060e088901b16815273ffffffffffffffffffffffffffffffffffffffff958616600482015294909316602485015250602090910201356044820152606401600060405180830381600087803b1580156106ba57600080fd5b505af11580156106ce573d6000803e3d6000fd5b505050508060010190506105bb565b6106f133826106ea6109de565b9190610f39565b50565b6107046106ff610acd565b611066565b73ffffffffffffffffffffffffffffffffffffffff808a1660009081526001602052604081205490549091166107428b8b8b8b8b878c8c8c8c6110d2565b73ffffffffffffffffffffffffffffffffffffffff16146107bf576040517f08c379a000000000000000000000000000000000000000000000000000000000815260206004820152601d60248201527f546f6b656e436c61696d3a20696e76616c6964207369676e6174757265000000604482015260640161031c565b73ffffffffffffffffffffffffffffffffffffffff8a1660009081526001602052604081208054916107f083611cdb565b90915550506040517f0d6a5bbb00000000000000000000000000000000000000000000000000000000815273ffffffffffffffffffffffffffffffffffffffff7f00000000000000000000000000000000000000000000000000000000000000001690630d6a5bbb9061086f908d908d908d908b908b90600401611d5e565b600060405180830381600087803b15801561088957600080fd5b505af115801561089d573d6000803e3d6000fd5b505050507f4b9abc22f4c4dc79e3e5e71305668c0c487e00f351014a5f373472ba7e697bef8a8a8a88888c8c886040516108de989796959493929190611dbf565b60405180910390a150505050505050505050565b6108fb3361027a565b82818114610965576040517f08c379a000000000000000000000000000000000000000000000000000000000815260206004820152601d60248201527f5265636f766572793a20696e636f6e73697374656e7420617272617973000000604482015260640161031c565b60005b8181146109d6576109ce84848381811061098457610984611c7d565b9050602002013587878481811061099d5761099d611c7d565b90506020020160208101906109b29190611a12565b73ffffffffffffffffffffffffffffffffffffffff1690611169565b600101610968565b505050505050565b60008061026f60017fc9ed16f33ab3a66c84bfd83099ccb2a8845871e2e1c1928f63797152f0fd54cd611e2d565b73ffffffffffffffffffffffffffffffffffffffff811615610a945781547fffffffffffffffffffffffff00000000000000000000000000000000000000001673ffffffffffffffffffffffffffffffffffffffff821690811783556040516000907f8be0079c531659141344cd1fd0a4f28419497f9722a3daafe3b4186f6b6457e0908290a35b610ac97f7f5828d0000000000000000000000000000000000000000000000000000000006001610ac2610b57565b9190610b85565b5050565b60008061026f60017f0186a05f63b1553398ad5ea3233c0ce68b8c9eecc47717f123c5c2b42fbd6d9f611e2d565b8015610ac95781547fffffffffffffffffffffffffffffffffffffffffffffffffffffffffffffff001660011782556040517f9e87fac88ff661f02d44f95383c817fece4bce600a3dab7a54406878b965e75290600090a15050565b60008061026f60017fca9d3e17f264b0f3984e2634e94adb37fa3e6a8103f06aeae6fa59e21c769f5e611e2d565b7c01000000000000000000000000000000000000000000000000000000007fffffffff00000000000000000000000000000000000000000000000000000000831601610c2d576040517f08c379a000000000000000000000000000000000000000000000000000000000815260206004820152601f60248201527f496e74657266616365446574656374696f6e3a2077726f6e672076616c756500604482015260640161031c565b7fffffffff00000000000000000000000000000000000000000000000000000000919091166000908152602092909252604090912080547fffffffffffffffffffffffffffffffffffffffffffffffffffffffffffffff0016911515919091179055565b60007c01000000000000000000000000000000000000000000000000000000007fffffffff00000000000000000000000000000000000000000000000000000000831601610ce15750600061026f565b7ffe003659000000000000000000000000000000000000000000000000000000007fffffffff00000000000000000000000000000000000000000000000000000000831601610d325750600161026f565b507fffffffff00000000000000000000000000000000000000000000000000000000166000908152602091909152604090205460ff1690565b815473ffffffffffffffffffffffffffffffffffffffff828116911614610ac9576040517f08c379a000000000000000000000000000000000000000000000000000000000815260206004820152601860248201527f4f776e6572736869703a206e6f7420746865206f776e65720000000000000000604482015260640161031c565b610df7816112c3565b80547fffffffffffffffffffffffffffffffffffffffffffffffffffffffffffffff001681556040517fa45f47fdea8a1efdd9029a5691c7f759c32b7c698632b563573e155625d1693390600090a150565b6040805173ffffffffffffffffffffffffffffffffffffffff8416602482015260448082018490528251808303909101815260649091019091526020810180517bffffffffffffffffffffffffffffffffffffffffffffffffffffffff167fa9059cbb00000000000000000000000000000000000000000000000000000000179052610ed690849061132e565b505050565b610ee481611066565b80547fffffffffffffffffffffffffffffffffffffffffffffffffffffffffffffff001660011781556040517f9e87fac88ff661f02d44f95383c817fece4bce600a3dab7a54406878b965e75290600090a150565b825473ffffffffffffffffffffffffffffffffffffffff9081169083168114610fbe576040517f08c379a000000000000000000000000000000000000000000000000000000000815260206004820152601860248201527f4f776e6572736869703a206e6f7420746865206f776e65720000000000000000604482015260640161031c565b8173ffffffffffffffffffffffffffffffffffffffff168173ffffffffffffffffffffffffffffffffffffffff16146110605783547fffffffffffffffffffffffff00000000000000000000000000000000000000001673ffffffffffffffffffffffffffffffffffffffff8381169182178655604051908316907f8be0079c531659141344cd1fd0a4f28419497f9722a3daafe3b4186f6b6457e090600090a35b50505050565b805460ff16156106f1576040517f08c379a000000000000000000000000000000000000000000000000000000000815260206004820152600d60248201527f50617573653a2070617573656400000000000000000000000000000000000000604482015260640161031c565b6000808b8b8b8b8b8b8b8b466040516020016110f699989796959493929190611e82565b60405160208183030381529060405280519060200120905061115984848080601f016020809104026020016040519081016040528093929190818152602001838380828437600092019190915250611153925085915061143a9050565b9061148d565b9c9b505050505050505050505050565b804710156111d3576040517f08c379a000000000000000000000000000000000000000000000000000000000815260206004820152601d60248201527f416464726573733a20696e73756666696369656e742062616c616e6365000000604482015260640161031c565b60008273ffffffffffffffffffffffffffffffffffffffff168260405160006040518083038185875af1925050503d806000811461122d576040519150601f19603f3d011682016040523d82523d6000602084013e611232565b606091505b5050905080610ed6576040517f08c379a000000000000000000000000000000000000000000000000000000000815260206004820152603a60248201527f416464726573733a20756e61626c6520746f2073656e642076616c75652c207260448201527f6563697069656e74206d61792068617665207265766572746564000000000000606482015260840161031c565b805460ff166106f1576040517f08c379a000000000000000000000000000000000000000000000000000000000815260206004820152601160248201527f50617573653a206e6f7420706175736564000000000000000000000000000000604482015260640161031c565b6000611390826040518060400160405280602081526020017f5361666545524332303a206c6f772d6c6576656c2063616c6c206661696c65648152508573ffffffffffffffffffffffffffffffffffffffff166114b19092919063ffffffff16565b805190915015610ed657808060200190518101906113ae9190611eec565b610ed6576040517f08c379a000000000000000000000000000000000000000000000000000000000815260206004820152602a60248201527f5361666545524332303a204552433230206f7065726174696f6e20646964206e60448201527f6f74207375636365656400000000000000000000000000000000000000000000606482015260840161031c565b6040517f19457468657265756d205369676e6564204d6573736167653a0a3332000000006020820152603c8101829052600090605c01604051602081830303815290604052805190602001209050919050565b600080600061149c85856114c8565b915091506114a98161150d565b509392505050565b60606114c084846000856116c0565b949350505050565b60008082516041036114fe5760208301516040840151606085015160001a6114f2878285856117d9565b94509450505050611506565b506000905060025b9250929050565b600081600481111561152157611521611f0e565b036115295750565b600181600481111561153d5761153d611f0e565b036115a4576040517f08c379a000000000000000000000000000000000000000000000000000000000815260206004820152601860248201527f45434453413a20696e76616c6964207369676e61747572650000000000000000604482015260640161031c565b60028160048111156115b8576115b8611f0e565b0361161f576040517f08c379a000000000000000000000000000000000000000000000000000000000815260206004820152601f60248201527f45434453413a20696e76616c6964207369676e6174757265206c656e67746800604482015260640161031c565b600381600481111561163357611633611f0e565b036106f1576040517f08c379a000000000000000000000000000000000000000000000000000000000815260206004820152602260248201527f45434453413a20696e76616c6964207369676e6174757265202773272076616c60448201527f7565000000000000000000000000000000000000000000000000000000000000606482015260840161031c565b606082471015611752576040517f08c379a000000000000000000000000000000000000000000000000000000000815260206004820152602660248201527f416464726573733a20696e73756666696369656e742062616c616e636520666f60448201527f722063616c6c0000000000000000000000000000000000000000000000000000606482015260840161031c565b6000808673ffffffffffffffffffffffffffffffffffffffff16858760405161177b9190611f61565b60006040518083038185875af1925050503d80600081146117b8576040519150601f19603f3d011682016040523d82523d6000602084013e6117bd565b606091505b50915091506117ce878383876118c8565b979650505050505050565b6000807f7fffffffffffffffffffffffffffffff5d576e7357a4501ddfe92f46681b20a083111561181057506000905060036118bf565b6040805160008082526020820180845289905260ff881692820192909252606081018690526080810185905260019060a0016020604051602081039080840390855afa158015611864573d6000803e3d6000fd5b50506040517fffffffffffffffffffffffffffffffffffffffffffffffffffffffffffffffe0015191505073ffffffffffffffffffffffffffffffffffffffff81166118b8576000600192509250506118bf565b9150600090505b94509492505050565b6060831561195e5782516000036119575773ffffffffffffffffffffffffffffffffffffffff85163b611957576040517f08c379a000000000000000000000000000000000000000000000000000000000815260206004820152601d60248201527f416464726573733a2063616c6c20746f206e6f6e2d636f6e7472616374000000604482015260640161031c565b50816114c0565b6114c083838151156119735781518083602001fd5b806040517f08c379a000000000000000000000000000000000000000000000000000000000815260040161031c9190611f7d565b6000602082840312156119b957600080fd5b81357fffffffff00000000000000000000000000000000000000000000000000000000811681146119e957600080fd5b9392505050565b73ffffffffffffffffffffffffffffffffffffffff811681146106f157600080fd5b600060208284031215611a2457600080fd5b81356119e9816119f0565b60008083601f840112611a4157600080fd5b50813567ffffffffffffffff811115611a5957600080fd5b6020830191508360208260051b850101111561150657600080fd5b60008060008060008060608789031215611a8d57600080fd5b863567ffffffffffffffff80821115611aa557600080fd5b611ab18a838b01611a2f565b90985096506020890135915080821115611aca57600080fd5b611ad68a838b01611a2f565b90965094506040890135915080821115611aef57600080fd5b50611afc89828a01611a2f565b979a9699509497509295939492505050565b600080600080600080600080600060a08a8c031215611b2c57600080fd5b8935611b37816119f0565b985060208a013567ffffffffffffffff80821115611b5457600080fd5b611b608d838e01611a2f565b909a50985060408c0135915080821115611b7957600080fd5b611b858d838e01611a2f565b909850965060608c0135915080821115611b9e57600080fd5b611baa8d838e01611a2f565b909650945060808c0135915080821115611bc357600080fd5b818c0191508c601f830112611bd757600080fd5b813581811115611be657600080fd5b8d6020828501011115611bf857600080fd5b6020830194508093505050509295985092959850929598565b60008060008060408587031215611c2757600080fd5b843567ffffffffffffffff80821115611c3f57600080fd5b611c4b88838901611a2f565b90965094506020870135915080821115611c6457600080fd5b50611c7187828801611a2f565b95989497509550505050565b7f4e487b7100000000000000000000000000000000000000000000000000000000600052603260045260246000fd5b7f4e487b7100000000000000000000000000000000000000000000000000000000600052601160045260246000fd5b60007fffffffffffffffffffffffffffffffffffffffffffffffffffffffffffffffff8203611d0c57611d0c611cac565b5060010190565b81835260007f07ffffffffffffffffffffffffffffffffffffffffffffffffffffffffffffff831115611d4557600080fd5b8260051b80836020870137939093016020019392505050565b73ffffffffffffffffffffffffffffffffffffffff86168152608060208201526000611d8e608083018688611d13565b8281036040840152611da1818587611d13565b83810360609094019390935250506000815260200195945050505050565b73ffffffffffffffffffffffffffffffffffffffff8916815260a060208201526000611def60a08301898b611d13565b8281036040840152611e0281888a611d13565b90508281036060840152611e17818688611d13565b9150508260808301529998505050505050505050565b8181038181111561026f5761026f611cac565b60007f07ffffffffffffffffffffffffffffffffffffffffffffffffffffffffffffff831115611e6f57600080fd5b8260051b80838637939093019392505050565b7fffffffffffffffffffffffffffffffffffffffff0000000000000000000000008a60601b1681526000611ec4611ebd601484018b8d611e40565b888a611e40565b868152611ed5602082018688611e40565b938452505060209091019998505050505050505050565b600060208284031215611efe57600080fd5b815180151581146119e957600080fd5b7f4e487b7100000000000000000000000000000000000000000000000000000000600052602160045260246000fd5b60005b83811015611f58578181015183820152602001611f40565b50506000910152565b60008251611f73818460208701611f3d565b9190910192915050565b6020815260008251806020840152611f9c816040850160208701611f3d565b601f017fffffffffffffffffffffffffffffffffffffffffffffffffffffffffffffffe016919091016040019291505056fea26469706673582212203502dea2bf4276a9f7b1fb8e4b06e4f35b2a2984303e9e07cf3b2f792b5f847664736f6c63430008110033",
  "linkReferences": {},
  "deployedLinkReferences": {}
}