{
  "_format": "hh-sol-artifact-1",
  "contractName": "TokenClaim",
  "sourceName": "contracts/claim/TokenClaim.sol",
  "abi": [
    {
      "inputs": [
        {
          "internalType": "address",
          "name": "inventory_",
          "type": "address"
        },
        {
          "internalType": "address",
          "name": "messageSigner_",
          "type": "address"
        }
      ],
      "stateMutability": "nonpayable",
      "type": "constructor"
    },
    {
      "anonymous": false,
      "inputs": [
        {
          "indexed": false,
          "internalType": "address",
          "name": "oldMessageSigner",
          "type": "address"
        },
        {
          "indexed": false,
          "internalType": "address",
          "name": "newMessageSigner",
          "type": "address"
        }
      ],
      "name": "MessageSignerUpdated",
      "type": "event"
    },
    {
      "anonymous": false,
      "inputs": [
        {
          "indexed": true,
          "internalType": "address",
          "name": "previousOwner",
          "type": "address"
        },
        {
          "indexed": true,
          "internalType": "address",
          "name": "newOwner",
          "type": "address"
        }
      ],
      "name": "OwnershipTransferred",
      "type": "event"
    },
    {
      "anonymous": false,
      "inputs": [],
      "name": "Paused",
      "type": "event"
    },
    {
      "anonymous": false,
      "inputs": [
        {
          "indexed": false,
          "internalType": "address",
          "name": "to",
          "type": "address"
        },
        {
          "indexed": false,
          "internalType": "uint256[]",
          "name": "orbIds",
          "type": "uint256[]"
        },
        {
          "indexed": false,
          "internalType": "uint256[]",
          "name": "orbCount",
          "type": "uint256[]"
        },
        {
          "indexed": false,
          "internalType": "uint256[]",
          "name": "xp",
          "type": "uint256[]"
        },
        {
          "indexed": false,
          "internalType": "uint256",
          "name": "nonce",
          "type": "uint256"
        }
      ],
      "name": "TokensClaimed",
      "type": "event"
    },
    {
      "anonymous": false,
      "inputs": [],
      "name": "Unpaused",
      "type": "event"
    },
    {
      "inputs": [],
      "name": "ORB_INVENTORY",
      "outputs": [
        {
          "internalType": "contract IORBNFT",
          "name": "",
          "type": "address"
        }
      ],
      "stateMutability": "view",
      "type": "function"
    },
    {
      "inputs": [
        {
          "internalType": "address",
          "name": "to",
          "type": "address"
        },
        {
          "internalType": "uint256[]",
          "name": "orbIds",
          "type": "uint256[]"
        },
        {
          "internalType": "uint256[]",
          "name": "xp",
          "type": "uint256[]"
        },
        {
          "internalType": "uint256[]",
          "name": "orbCount",
          "type": "uint256[]"
        },
        {
          "internalType": "bytes",
          "name": "signature",
          "type": "bytes"
        }
      ],
      "name": "claimTokens",
      "outputs": [],
      "stateMutability": "nonpayable",
      "type": "function"
    },
    {
      "inputs": [
        {
          "internalType": "address",
          "name": "user",
          "type": "address"
        }
      ],
      "name": "getNonce",
      "outputs": [
        {
          "internalType": "uint256",
          "name": "",
          "type": "uint256"
        }
      ],
      "stateMutability": "view",
      "type": "function"
    },
    {
      "inputs": [],
      "name": "messageSigner",
      "outputs": [
        {
          "internalType": "address",
          "name": "",
          "type": "address"
        }
      ],
      "stateMutability": "view",
      "type": "function"
    },
    {
      "inputs": [],
      "name": "owner",
      "outputs": [
        {
          "internalType": "address",
          "name": "",
          "type": "address"
        }
      ],
      "stateMutability": "view",
      "type": "function"
    },
    {
      "inputs": [],
      "name": "pause",
      "outputs": [],
      "stateMutability": "nonpayable",
      "type": "function"
    },
    {
      "inputs": [],
      "name": "paused",
      "outputs": [
        {
          "internalType": "bool",
          "name": "",
          "type": "bool"
        }
      ],
      "stateMutability": "view",
      "type": "function"
    },
    {
      "inputs": [
        {
          "internalType": "address[]",
          "name": "accounts",
          "type": "address[]"
        },
        {
          "internalType": "contract IERC20[]",
          "name": "tokens",
          "type": "address[]"
        },
        {
          "internalType": "uint256[]",
          "name": "amounts",
          "type": "uint256[]"
        }
      ],
      "name": "recoverERC20s",
      "outputs": [],
      "stateMutability": "nonpayable",
      "type": "function"
    },
    {
      "inputs": [
        {
          "internalType": "address[]",
          "name": "accounts",
          "type": "address[]"
        },
        {
          "internalType": "contract IERC721[]",
          "name": "contracts",
          "type": "address[]"
        },
        {
          "internalType": "uint256[]",
          "name": "tokenIds",
          "type": "uint256[]"
        }
      ],
      "name": "recoverERC721s",
      "outputs": [],
      "stateMutability": "nonpayable",
      "type": "function"
    },
    {
      "inputs": [
        {
          "internalType": "address payable[]",
          "name": "accounts",
          "type": "address[]"
        },
        {
          "internalType": "uint256[]",
          "name": "amounts",
          "type": "uint256[]"
        }
      ],
      "name": "recoverETH",
      "outputs": [],
      "stateMutability": "nonpayable",
      "type": "function"
    },
    {
      "inputs": [
        {
          "internalType": "address",
          "name": "newMessageSigner",
          "type": "address"
        }
      ],
      "name": "setMessageSigner",
      "outputs": [],
      "stateMutability": "nonpayable",
      "type": "function"
    },
    {
      "inputs": [
        {
          "internalType": "bytes4",
          "name": "interfaceId",
          "type": "bytes4"
        }
      ],
      "name": "supportsInterface",
      "outputs": [
        {
          "internalType": "bool",
          "name": "",
          "type": "bool"
        }
      ],
      "stateMutability": "view",
      "type": "function"
    },
    {
      "inputs": [
        {
          "internalType": "address",
          "name": "newOwner",
          "type": "address"
        }
      ],
      "name": "transferOwnership",
      "outputs": [],
      "stateMutability": "nonpayable",
      "type": "function"
    },
    {
      "inputs": [],
      "name": "unpause",
      "outputs": [],
      "stateMutability": "nonpayable",
      "type": "function"
    }
  ],
  "bytecode": "0x60a06040523480156200001157600080fd5b5060405162001c8938038062001c898339810160408190526200003491620003c1565b600033620000658162000051620001af60201b6200078d1760201c565b620001e560201b620007bb1790919060201c565b506200009481620000806200027860201b6200081f1760201c565b620002a860201b6200084d1790919060201c565b506001600160a01b038216620000f15760405162461bcd60e51b815260206004820152601d60248201527f546f6b656e436c61696d3a20696e76616c696420696e76656e746f727900000060448201526064015b60405180910390fd5b6001600160a01b038116620001495760405162461bcd60e51b815260206004820152601a60248201527f546f6b656e436c61696d3a20696e76616c6964207369676e65720000000000006044820152606401620000e8565b6001600160a01b03828116608052600080546001600160a01b03191691831691821781556040805191825260208201929092527fb0d0791e347bdc6678365d0f8c4232c168c40192108be24902c292267defafb5910160405180910390a150506200041b565b600080620001df60017fc9ed16f33ab3a66c84bfd83099ccb2a8845871e2e1c1928f63797152f0fd54cd620003f9565b92915050565b6001600160a01b038116156200023c5781546001600160a01b0319166001600160a01b03821690811783556040516000907f8be0079c531659141344cd1fd0a4f28419497f9722a3daafe3b4186f6b6457e0908290a35b620002746307f5828d60e41b60016200025f620002e760201b620008791760201c565b6200031760201b620008a7179092919060201c565b5050565b600080620001df60017f0186a05f63b1553398ad5ea3233c0ce68b8c9eecc47717f123c5c2b42fbd6d9f620003f9565b80156200027457815460ff191660011782556040517f9e87fac88ff661f02d44f95383c817fece4bce600a3dab7a54406878b965e75290600090a15050565b600080620001df60017fca9d3e17f264b0f3984e2634e94adb37fa3e6a8103f06aeae6fa59e21c769f5e620003f9565b600160e01b6001600160e01b0319831601620003765760405162461bcd60e51b815260206004820152601f60248201527f496e74657266616365446574656374696f6e3a2077726f6e672076616c7565006044820152606401620000e8565b6001600160e01b03199190911660009081526020929092526040909120805460ff1916911515919091179055565b80516001600160a01b0381168114620003bc57600080fd5b919050565b60008060408385031215620003d557600080fd5b620003e083620003a4565b9150620003f060208401620003a4565b90509250929050565b81810381811115620001df57634e487b7160e01b600052601160045260246000fd5b60805161184b6200043e600039600081816101960152610638015261184b6000f3fe608060405234801561001057600080fd5b50600436106100ba5760003560e01c806301ffc9a7146100bf578063080387b4146100e75780632d0335ab146101125780633f4ba83a146101495780634b36df53146101535780635c975abb1461016657806373c8a9581461016e5780638456cb59146101815780638da5cb5b14610189578063b1386c8914610191578063c3666c36146101b8578063f2fde38b146101cb578063f62ded81146101de578063f7ba94bd146101f1575b600080fd5b6100d26100cd366004611255565b610204565b60405190151581526020015b60405180910390f35b6000546100fa906001600160a01b031681565b6040516001600160a01b0390911681526020016100de565b61013b61012036600461129b565b6001600160a01b031660009081526001602052604090205490565b6040519081526020016100de565b61015161021e565b005b61015161016136600461129b565b610243565b6100d261030d565b61015161017c3660046112fc565b610326565b6101516103f0565b6100fa610409565b6100fa7f000000000000000000000000000000000000000000000000000000000000000081565b6101516101c63660046112fc565b610423565b6101516101d936600461129b565b61054a565b6101516101ec366004611395565b610561565b6101516101ff366004611497565b6106f8565b600061021882610212610879565b90610932565b92915050565b610231335b61022b61078d565b90610992565b61024161023c61081f565b6109be565b565b61024c33610223565b6001600160a01b0381166102a45760405162461bcd60e51b815260206004820152601a6024820152792a37b5b2b721b630b4b69d1034b73b30b634b21039b4b3b732b960311b60448201526064015b60405180910390fd5b600054604080516001600160a01b03928316815291831660208301527fb0d0791e347bdc6678365d0f8c4232c168c40192108be24902c292267defafb5910160405180910390a1600080546001600160a01b0319166001600160a01b0392909216919091179055565b600061032161031a61081f565b5460ff1690565b905090565b61032f33610223565b84838114801561033e57508082145b61035a5760405162461bcd60e51b815260040161029b90611502565b60005b8181146103e6576103de88888381811061037957610379611539565b905060200201602081019061038e919061129b565b8585848181106103a0576103a0611539565b905060200201358888858181106103b9576103b9611539565b90506020020160208101906103ce919061129b565b6001600160a01b031691906109fb565b60010161035d565b5050505050505050565b6103f933610223565b61024161040461081f565b610a52565b600061032161041661078d565b546001600160a01b031690565b61042c33610223565b84838114801561043b57508082145b6104575760405162461bcd60e51b815260040161029b90611502565b60005b8181146103e65785858281811061047357610473611539565b9050602002016020810190610488919061129b565b6001600160a01b03166323b872dd308a8a858181106104a9576104a9611539565b90506020020160208101906104be919061129b565b8787868181106104d0576104d0611539565b6040516001600160e01b031960e088901b1681526001600160a01b03958616600482015294909316602485015250602090910201356044820152606401600060405180830381600087803b15801561052757600080fd5b505af115801561053b573d6000803e3d6000fd5b5050505080600101905061045a565b61055e338261055761078d565b9190610a80565b50565b61057161056c61081f565b610b05565b6001600160a01b03808a1660009081526001602052604081205490549091166105a28b8b8b8b8b878c8c8c8c610b47565b6001600160a01b0316146105f85760405162461bcd60e51b815260206004820152601d60248201527f546f6b656e436c61696d3a20696e76616c6964207369676e6174757265000000604482015260640161029b565b6001600160a01b038a16600090815260016020526040812080549161061c83611565565b9091555050604051630d6a5bbb60e01b81526001600160a01b037f00000000000000000000000000000000000000000000000000000000000000001690630d6a5bbb90610675908d908d908d908b908b906004016115b0565b600060405180830381600087803b15801561068f57600080fd5b505af11580156106a3573d6000803e3d6000fd5b505050507f4b9abc22f4c4dc79e3e5e71305668c0c487e00f351014a5f373472ba7e697bef8a8a8a88888c8c886040516106e4989796959493929190611606565b60405180910390a150505050505050505050565b61070133610223565b828181146107215760405162461bcd60e51b815260040161029b90611502565b60005b8181146107855761077d84848381811061074057610740611539565b9050602002013587878481811061075957610759611539565b905060200201602081019061076e919061129b565b6001600160a01b031690610bde565b600101610724565b505050505050565b60008061021860017fc9ed16f33ab3a66c84bfd83099ccb2a8845871e2e1c1928f63797152f0fd54cd611669565b6001600160a01b038116156107ff5781546001600160a01b0319166001600160a01b03821690811783556040516000906000805160206117f6833981519152908290a35b61081b6307f5828d60e41b6001610814610879565b91906108a7565b5050565b60008061021860017f0186a05f63b1553398ad5ea3233c0ce68b8c9eecc47717f123c5c2b42fbd6d9f611669565b801561081b57815460ff191660011782556040516000805160206117d683398151915290600090a15050565b60008061021860017fca9d3e17f264b0f3984e2634e94adb37fa3e6a8103f06aeae6fa59e21c769f5e611669565b600160e01b6001600160e01b03198316016109045760405162461bcd60e51b815260206004820152601f60248201527f496e74657266616365446574656374696f6e3a2077726f6e672076616c756500604482015260640161029b565b6001600160e01b03199190911660009081526020929092526040909120805460ff1916911515919091179055565b6000600160e01b6001600160e01b031983160161095157506000610218565b63fe00365960e01b6001600160e01b031983160161097157506001610218565b506001600160e01b0319166000908152602091909152604090205460ff1690565b81546001600160a01b0382811691161461081b5760405162461bcd60e51b815260040161029b9061167c565b6109c781610cf4565b805460ff191681556040517fa45f47fdea8a1efdd9029a5691c7f759c32b7c698632b563573e155625d1693390600090a150565b604080516001600160a01b038416602482015260448082018490528251808303909101815260649091019091526020810180516001600160e01b031663a9059cbb60e01b179052610a4d908490610d39565b505050565b610a5b81610b05565b805460ff191660011781556040516000805160206117d683398151915290600090a150565b82546001600160a01b039081169083168114610aae5760405162461bcd60e51b815260040161029b9061167c565b816001600160a01b0316816001600160a01b031614610aff5783546001600160a01b0319166001600160a01b038381169182178655604051908316906000805160206117f683398151915290600090a35b50505050565b805460ff161561055e5760405162461bcd60e51b815260206004820152600d60248201526c14185d5cd94e881c185d5cd959609a1b604482015260640161029b565b6000808b8b8b8b8b8b8b8b46604051602001610b6b999897969594939291906116d7565b604051602081830303815290604052805190602001209050610bce84848080601f016020809104026020016040519081016040528093929190818152602001838380828437600092019190915250610bc89250859150610e0b9050565b90610e5d565b9c9b505050505050505050505050565b80471015610c2e5760405162461bcd60e51b815260206004820152601d60248201527f416464726573733a20696e73756666696369656e742062616c616e6365000000604482015260640161029b565b6000826001600160a01b03168260405160006040518083038185875af1925050503d8060008114610c7b576040519150601f19603f3d011682016040523d82523d6000602084013e610c80565b606091505b5050905080610a4d5760405162461bcd60e51b815260206004820152603a60248201527f416464726573733a20756e61626c6520746f2073656e642076616c75652c20726044820152791958da5c1a595b9d081b585e481a185d99481c995d995c9d195960321b606482015260840161029b565b805460ff1661055e5760405162461bcd60e51b815260206004820152601160248201527014185d5cd94e881b9bdd081c185d5cd959607a1b604482015260640161029b565b6000610d8e826040518060400160405280602081526020017f5361666545524332303a206c6f772d6c6576656c2063616c6c206661696c6564815250856001600160a01b0316610e819092919063ffffffff16565b805190915015610a4d5780806020019051810190610dac919061172a565b610a4d5760405162461bcd60e51b815260206004820152602a60248201527f5361666545524332303a204552433230206f7065726174696f6e20646964206e6044820152691bdd081cdd58d8d9595960b21b606482015260840161029b565b6040517b0ca2ba3432b932bab69029b4b3b732b21026b2b9b9b0b3b29d05199960211b6020820152603c8101829052600090605c01604051602081830303815290604052805190602001209050919050565b6000806000610e6c8585610e98565b91509150610e7981610edd565b509392505050565b6060610e908484600085611022565b949350505050565b6000808251604103610ece5760208301516040840151606085015160001a610ec2878285856110fd565b94509450505050610ed6565b506000905060025b9250929050565b6000816004811115610ef157610ef161174c565b03610ef95750565b6001816004811115610f0d57610f0d61174c565b03610f555760405162461bcd60e51b815260206004820152601860248201527745434453413a20696e76616c6964207369676e617475726560401b604482015260640161029b565b6002816004811115610f6957610f6961174c565b03610fb65760405162461bcd60e51b815260206004820152601f60248201527f45434453413a20696e76616c6964207369676e6174757265206c656e67746800604482015260640161029b565b6003816004811115610fca57610fca61174c565b0361055e5760405162461bcd60e51b815260206004820152602260248201527f45434453413a20696e76616c6964207369676e6174757265202773272076616c604482015261756560f01b606482015260840161029b565b6060824710156110835760405162461bcd60e51b815260206004820152602660248201527f416464726573733a20696e73756666696369656e742062616c616e636520666f6044820152651c8818d85b1b60d21b606482015260840161029b565b600080866001600160a01b0316858760405161109f9190611786565b60006040518083038185875af1925050503d80600081146110dc576040519150601f19603f3d011682016040523d82523d6000602084013e6110e1565b606091505b50915091506110f2878383876111b7565b979650505050505050565b6000806fa2a8918ca85bafe22016d0b997e4df60600160ff1b0383111561112a57506000905060036111ae565b6040805160008082526020820180845289905260ff881692820192909252606081018690526080810185905260019060a0016020604051602081039080840390855afa15801561117e573d6000803e3d6000fd5b5050604051601f1901519150506001600160a01b0381166111a7576000600192509250506111ae565b9150600090505b94509492505050565b6060831561122657825160000361121f576001600160a01b0385163b61121f5760405162461bcd60e51b815260206004820152601d60248201527f416464726573733a2063616c6c20746f206e6f6e2d636f6e7472616374000000604482015260640161029b565b5081610e90565b610e90838381511561123b5781518083602001fd5b8060405162461bcd60e51b815260040161029b91906117a2565b60006020828403121561126757600080fd5b81356001600160e01b03198116811461127f57600080fd5b9392505050565b6001600160a01b038116811461055e57600080fd5b6000602082840312156112ad57600080fd5b813561127f81611286565b60008083601f8401126112ca57600080fd5b5081356001600160401b038111156112e157600080fd5b6020830191508360208260051b8501011115610ed657600080fd5b6000806000806000806060878903121561131557600080fd5b86356001600160401b038082111561132c57600080fd5b6113388a838b016112b8565b9098509650602089013591508082111561135157600080fd5b61135d8a838b016112b8565b9096509450604089013591508082111561137657600080fd5b5061138389828a016112b8565b979a9699509497509295939492505050565b600080600080600080600080600060a08a8c0312156113b357600080fd5b89356113be81611286565b985060208a01356001600160401b03808211156113da57600080fd5b6113e68d838e016112b8565b909a50985060408c01359150808211156113ff57600080fd5b61140b8d838e016112b8565b909850965060608c013591508082111561142457600080fd5b6114308d838e016112b8565b909650945060808c013591508082111561144957600080fd5b818c0191508c601f83011261145d57600080fd5b81358181111561146c57600080fd5b8d602082850101111561147e57600080fd5b6020830194508093505050509295985092959850929598565b600080600080604085870312156114ad57600080fd5b84356001600160401b03808211156114c457600080fd5b6114d0888389016112b8565b909650945060208701359150808211156114e957600080fd5b506114f6878288016112b8565b95989497509550505050565b6020808252601d908201527f5265636f766572793a20696e636f6e73697374656e7420617272617973000000604082015260600190565b634e487b7160e01b600052603260045260246000fd5b634e487b7160e01b600052601160045260246000fd5b6000600182016115775761157761154f565b5060010190565b81835260006001600160fb1b0383111561159757600080fd5b8260051b80836020870137939093016020019392505050565b6001600160a01b03861681526080602082018190526000906115d5908301868861157e565b82810360408401526115e881858761157e565b83810360609094019390935250506000815260200195945050505050565b6001600160a01b038916815260a06020820181905260009061162b908301898b61157e565b828103604084015261163e81888a61157e565b9050828103606084015261165381868861157e565b9150508260808301529998505050505050505050565b818103818111156102185761021861154f565b60208082526018908201527727bbb732b939b434b81d103737ba103a34329037bbb732b960411b604082015260600190565b60006001600160fb1b038311156116c457600080fd5b8260051b80838637939093019392505050565b60608a901b6001600160601b031916815260006117026116fb601484018b8d6116ae565b888a6116ae565b8681526117136020820186886116ae565b938452505060209091019998505050505050505050565b60006020828403121561173c57600080fd5b8151801515811461127f57600080fd5b634e487b7160e01b600052602160045260246000fd5b60005b8381101561177d578181015183820152602001611765565b50506000910152565b60008251611798818460208701611762565b9190910192915050565b60208152600082518060208401526117c1816040850160208701611762565b601f01601f1916919091016040019291505056fe9e87fac88ff661f02d44f95383c817fece4bce600a3dab7a54406878b965e7528be0079c531659141344cd1fd0a4f28419497f9722a3daafe3b4186f6b6457e0a264697066735822122017a831826930dd9d239f6bb824561dd38623c1ab01ab3b31474e57eb27ab342264736f6c63430008110033",
  "linkReferences": {},
  "deployedLinkReferences": {}
}