{
  "_format": "hh-sol-artifact-1",
  "contractName": "ERC20ToPoints",
  "sourceName": "contracts/swap/ERC20ToPoints.sol",
  "abi": [
    {
      "inputs": [
        {
          "internalType": "contract IERC20",
          "name": "token",
          "type": "address"
        },
        {
          "internalType": "contract IPointsV2",
          "name": "points",
          "type": "address"
        },
        {
          "internalType": "uint256",
          "name": "tokenToPointsRate",
          "type": "uint256"
        },
        {
          "internalType": "string",
          "name": "depositReason",
          "type": "string"
        },
        {
          "internalType": "address payable",
          "name": "payoutAddress",
          "type": "address"
        },
        {
          "internalType": "contract IForwarderRegistry",
          "name": "forwarderRegistry",
          "type": "address"
        }
      ],
      "stateMutability": "nonpayable",
      "type": "constructor"
    },
    {
      "inputs": [],
      "name": "IllegalInterfaceId",
      "type": "error"
    },
    {
      "inputs": [],
      "name": "InvalidPointsAmount",
      "type": "error"
    },
    {
      "inputs": [
        {
          "internalType": "address",
          "name": "account",
          "type": "address"
        }
      ],
      "name": "NotContractOwner",
      "type": "error"
    },
    {
      "inputs": [
        {
          "internalType": "address",
          "name": "token",
          "type": "address"
        }
      ],
      "name": "SafeERC20FailedOperation",
      "type": "error"
    },
    {
      "inputs": [],
      "name": "ZeroAddressPayoutWallet",
      "type": "error"
    },
    {
      "anonymous": false,
      "inputs": [
        {
          "indexed": true,
          "internalType": "address",
          "name": "user",
          "type": "address"
        },
        {
          "indexed": false,
          "internalType": "uint256",
          "name": "tokenAmount",
          "type": "uint256"
        },
        {
          "indexed": false,
          "internalType": "uint256",
          "name": "pointsAmount",
          "type": "uint256"
        }
      ],
      "name": "Exchanged",
      "type": "event"
    },
    {
      "anonymous": false,
      "inputs": [
        {
          "indexed": true,
          "internalType": "address",
          "name": "previousOwner",
          "type": "address"
        },
        {
          "indexed": true,
          "internalType": "address",
          "name": "newOwner",
          "type": "address"
        }
      ],
      "name": "OwnershipTransferred",
      "type": "event"
    },
    {
      "anonymous": false,
      "inputs": [
        {
          "indexed": false,
          "internalType": "address",
          "name": "payoutWallet",
          "type": "address"
        }
      ],
      "name": "PayoutWalletSet",
      "type": "event"
    },
    {
      "inputs": [],
      "name": "DEPOSIT_REASON",
      "outputs": [
        {
          "internalType": "bytes32",
          "name": "",
          "type": "bytes32"
        }
      ],
      "stateMutability": "view",
      "type": "function"
    },
    {
      "inputs": [],
      "name": "POINTS",
      "outputs": [
        {
          "internalType": "contract IPointsV2",
          "name": "",
          "type": "address"
        }
      ],
      "stateMutability": "view",
      "type": "function"
    },
    {
      "inputs": [],
      "name": "POINTS_MULTIPLIER",
      "outputs": [
        {
          "internalType": "uint256",
          "name": "",
          "type": "uint256"
        }
      ],
      "stateMutability": "view",
      "type": "function"
    },
    {
      "inputs": [],
      "name": "TOKEN",
      "outputs": [
        {
          "internalType": "contract IERC20",
          "name": "",
          "type": "address"
        }
      ],
      "stateMutability": "view",
      "type": "function"
    },
    {
      "inputs": [],
      "name": "TOKEN_TO_POINTS_RATE",
      "outputs": [
        {
          "internalType": "uint256",
          "name": "",
          "type": "uint256"
        }
      ],
      "stateMutability": "view",
      "type": "function"
    },
    {
      "inputs": [
        {
          "internalType": "uint256",
          "name": "pointsAmount",
          "type": "uint256"
        }
      ],
      "name": "exchange",
      "outputs": [],
      "stateMutability": "nonpayable",
      "type": "function"
    },
    {
      "inputs": [],
      "name": "forwarderRegistry",
      "outputs": [
        {
          "internalType": "contract IForwarderRegistry",
          "name": "",
          "type": "address"
        }
      ],
      "stateMutability": "view",
      "type": "function"
    },
    {
      "inputs": [
        {
          "internalType": "address",
          "name": "forwarder",
          "type": "address"
        }
      ],
      "name": "isTrustedForwarder",
      "outputs": [
        {
          "internalType": "bool",
          "name": "",
          "type": "bool"
        }
      ],
      "stateMutability": "view",
      "type": "function"
    },
    {
      "inputs": [],
      "name": "owner",
      "outputs": [
        {
          "internalType": "address",
          "name": "",
          "type": "address"
        }
      ],
      "stateMutability": "view",
      "type": "function"
    },
    {
      "inputs": [],
      "name": "payoutWallet",
      "outputs": [
        {
          "internalType": "address payable",
          "name": "wallet",
          "type": "address"
        }
      ],
      "stateMutability": "view",
      "type": "function"
    },
    {
      "inputs": [
        {
          "internalType": "address payable",
          "name": "newPayoutWallet",
          "type": "address"
        }
      ],
      "name": "setPayoutWallet",
      "outputs": [],
      "stateMutability": "nonpayable",
      "type": "function"
    },
    {
      "inputs": [
        {
          "internalType": "bytes4",
          "name": "interfaceId",
          "type": "bytes4"
        }
      ],
      "name": "supportsInterface",
      "outputs": [
        {
          "internalType": "bool",
          "name": "",
          "type": "bool"
        }
      ],
      "stateMutability": "view",
      "type": "function"
    },
    {
      "inputs": [
        {
          "internalType": "address",
          "name": "newOwner",
          "type": "address"
        }
      ],
      "name": "transferOwnership",
      "outputs": [],
      "stateMutability": "nonpayable",
      "type": "function"
    }
  ],
  "bytecode": "0x610140806040523461037357611136803803809161001d82856103a3565b833981019060c081830312610373578051906001600160a01b0382168083036103735760208201516001600160a01b038116810361037357604083015160608401519091906001600160401b03811161037357840186601f82011215610373578051906001600160401b03821161038d57604051976100a6601f8401601f19166020018a6103a3565b828952602083830101116103735760005b82811061037857505060009087016020015260808401516001600160a01b03811694908590036103735760a001516001600160a01b03811681036103735760805233610314575b6307f5828d60e41b6000527fca9d3e17f264b0f3984e2634e94adb37fa3e6a8103f06aeae6fa59e21c769f5d6020527fa53d5a615b1d5279f1a6647c5c0f31bf064b1e70af135676a4a96aeaeb691a2f805460ff191660011790558315610303577f4fb5f8cdfbce77f22b0931a39e9f476a60a0f66524b2f379e96485471eb700ad80546001600160a01b031916851790556040519384526004946020947fdd880d24a789958a6398c99c2e54ce31bc10a638cbc42f7dd34285479ae0f855908690a160a05260c05260e05260405163313ce56760e01b815292839182905afa9081156102f7576000916102b3575b5060ff16604d811161029d5760e05190811561028757600a0a04610100526020815191012061012052604051610d6f90816103c7823960805181818161099b01528181610b060152610c14015260a0518181816103bc0152610694015260c05181818161042b015261079a015260e05181610a5c01526101005181818161026a015261065e01526101205181818161021101526107fd0152f35b634e487b7160e01b600052601260045260246000fd5b634e487b7160e01b600052601160045260246000fd5b6020813d6020116102ef575b816102cc602093836103a3565b810103126102eb57519060ff821682036102e8575060ff6101ed565b80fd5b5080fd5b3d91506102bf565b6040513d6000823e3d90fd5b6340b539cf60e01b60005260046000fd5b7fc9ed16f33ab3a66c84bfd83099ccb2a8845871e2e1c1928f63797152f0fd54cc80546001600160a01b0319163390811790915560007f8be0079c531659141344cd1fd0a4f28419497f9722a3daafe3b4186f6b6457e08180a36100fe565b600080fd5b80602080928401015182828c010152016100b7565b634e487b7160e01b600052604160045260246000fd5b601f909101601f19168101906001600160401b0382119082101761038d5760405256fe608080604052600436101561001357600080fd5b600090813560e01c908163011d4d3514610a275750806301ffc9a7146109bf5780632b4c9f16146109505780635355655914610623578063572b6c05146105bd5780636b8f9c431461044f5780637f6e4281146103e057806382bfefc8146103715780638488bb4e146102ff5780638da5cb5b1461028d5780638f2203f614610234578063f0d8727b146101db5763f2fde38b146100b057600080fd5b346101d85760207ffffffffffffffffffffffffffffffffffffffffffffffffffffffffffffffffc3601126101d85760043573ffffffffffffffffffffffffffffffffffffffff81168091036101d6577fc9ed16f33ab3a66c84bfd83099ccb2a8845871e2e1c1928f63797152f0fd54cc610129610bfd565b9073ffffffffffffffffffffffffffffffffffffffff8082541692168281036101ab5750828203610158578380f35b827fffffffffffffffffffffffff00000000000000000000000000000000000000008254161790557f8be0079c531659141344cd1fd0a4f28419497f9722a3daafe3b4186f6b6457e08380a33880808380f35b7f2ef4875e000000000000000000000000000000000000000000000000000000008552600452602484fd5b505b80fd5b50346101d857807ffffffffffffffffffffffffffffffffffffffffffffffffffffffffffffffffc3601126101d85760206040517f00000000000000000000000000000000000000000000000000000000000000008152f35b50346101d857807ffffffffffffffffffffffffffffffffffffffffffffffffffffffffffffffffc3601126101d85760206040517f00000000000000000000000000000000000000000000000000000000000000008152f35b50346101d857807ffffffffffffffffffffffffffffffffffffffffffffffffffffffffffffffffc3601126101d85750602073ffffffffffffffffffffffffffffffffffffffff7fc9ed16f33ab3a66c84bfd83099ccb2a8845871e2e1c1928f63797152f0fd54cc5416604051908152f35b50346101d857807ffffffffffffffffffffffffffffffffffffffffffffffffffffffffffffffffc3601126101d85750602073ffffffffffffffffffffffffffffffffffffffff7f4fb5f8cdfbce77f22b0931a39e9f476a60a0f66524b2f379e96485471eb700ad5416604051908152f35b50346101d857807ffffffffffffffffffffffffffffffffffffffffffffffffffffffffffffffffc3601126101d857602060405173ffffffffffffffffffffffffffffffffffffffff7f0000000000000000000000000000000000000000000000000000000000000000168152f35b50346101d857807ffffffffffffffffffffffffffffffffffffffffffffffffffffffffffffffffc3601126101d857602060405173ffffffffffffffffffffffffffffffffffffffff7f0000000000000000000000000000000000000000000000000000000000000000168152f35b50346101d85760207ffffffffffffffffffffffffffffffffffffffffffffffffffffffffffffffffc3601126101d85760043573ffffffffffffffffffffffffffffffffffffffff81168091036101d6577fc9ed16f33ab3a66c84bfd83099ccb2a8845871e2e1c1928f63797152f0fd54cc73ffffffffffffffffffffffffffffffffffffffff806104df610bfd565b925416911690810361059257507f4fb5f8cdfbce77f22b0931a39e9f476a60a0f66524b2f379e96485471eb700ad811561056a5781817fdd880d24a789958a6398c99c2e54ce31bc10a638cbc42f7dd34285479ae0f855937fffffffffffffffffffffffff00000000000000000000000000000000000000006020945416179055604051908152a180f35b6004837f40b539cf000000000000000000000000000000000000000000000000000000008152fd5b7f2ef4875e000000000000000000000000000000000000000000000000000000008352600452602482fd5b50346101d85760207ffffffffffffffffffffffffffffffffffffffffffffffffffffffffffffffffc3601126101d8576004359073ffffffffffffffffffffffffffffffffffffffff821682036101d857602061061983610aef565b6040519015158152f35b50346101d85760207ffffffffffffffffffffffffffffffffffffffffffffffffffffffffffffffffc3601126101d8576004358015610928577f000000000000000000000000000000000000000000000000000000000000000080820290828204036108fb57610691610bfd565b917f000000000000000000000000000000000000000000000000000000000000000060208573ffffffffffffffffffffffffffffffffffffffff7f4fb5f8cdfbce77f22b0931a39e9f476a60a0f66524b2f379e96485471eb700ad54169560405173ffffffffffffffffffffffffffffffffffffffff848201927f23b872dd0000000000000000000000000000000000000000000000000000000084521697886024830152604482015286606482015260648152610750608482610a7f565b519082855af1156108f05784513d6108e7575073ffffffffffffffffffffffffffffffffffffffff81163b155b6108a657508373ffffffffffffffffffffffffffffffffffffffff7f000000000000000000000000000000000000000000000000000000000000000016803b156101d65781906064604051809481937f26b3293f0000000000000000000000000000000000000000000000000000000083528960048401528760248401527f000000000000000000000000000000000000000000000000000000000000000060448401525af1801561089b57610862575b507f98e5a745dfe4f0a8952c2d09eeb25746ce9768004ab459c980d7ad1b5152cbd89160409182519182526020820152a280f35b9184610892604093967f98e5a745dfe4f0a8952c2d09eeb25746ce9768004ab459c980d7ad1b5152cbd895610a7f565b9491509161082e565b6040513d87823e3d90fd5b7f5274afe700000000000000000000000000000000000000000000000000000000855273ffffffffffffffffffffffffffffffffffffffff16600452602484fd5b6001141561077d565b6040513d86823e3d90fd5b6024837f4e487b710000000000000000000000000000000000000000000000000000000081526011600452fd5b6004827fb15e3914000000000000000000000000000000000000000000000000000000008152fd5b50346101d857807ffffffffffffffffffffffffffffffffffffffffffffffffffffffffffffffffc3601126101d857602060405173ffffffffffffffffffffffffffffffffffffffff7f0000000000000000000000000000000000000000000000000000000000000000168152f35b50346101d85760207ffffffffffffffffffffffffffffffffffffffffffffffffffffffffffffffffc3601126101d857600435907fffffffff00000000000000000000000000000000000000000000000000000000821682036101d857602061061983610b4e565b9050346101d657817ffffffffffffffffffffffffffffffffffffffffffffffffffffffffffffffffc3601126101d6576020907f00000000000000000000000000000000000000000000000000000000000000008152f35b90601f7fffffffffffffffffffffffffffffffffffffffffffffffffffffffffffffffe0910116810190811067ffffffffffffffff821117610ac057604052565b7f4e487b7100000000000000000000000000000000000000000000000000000000600052604160045260246000fd5b73ffffffffffffffffffffffffffffffffffffffff7f000000000000000000000000000000000000000000000000000000000000000016908115610b475773ffffffffffffffffffffffffffffffffffffffff161490565b5050600090565b7fffffffff00000000000000000000000000000000000000000000000000000000167fffffffff000000000000000000000000000000000000000000000000000000008114610bf7577f01ffc9a7000000000000000000000000000000000000000000000000000000008114610bf1576000527fca9d3e17f264b0f3984e2634e94adb37fa3e6a8103f06aeae6fa59e21c769f5d60205260ff6040600020541690565b50600190565b50600090565b73ffffffffffffffffffffffffffffffffffffffff7f0000000000000000000000000000000000000000000000000000000000000000168015610d2a573233148015610d2f575b610d2a577fffffffffffffffffffffffffffffffffffffffffffffffffffffffffffffffec36013560601c90803314908115610c88575b50610c8557503390565b90565b60649150602090604051928380927f019a20280000000000000000000000000000000000000000000000000000000082528660048301523360248301523060448301525afa908115610d1e57600091610ce3575b5038610c7b565b6020813d602011610d16575b81610cfc60209383610a7f565b810103126101d657519081151582036101d8575038610cdc565b3d9150610cef565b6040513d6000823e3d90fd5b503390565b5060183610610c4456fea26469706673582212201a29c5b9e78442bd8539b4ad475174eb3901b3cf8bcd5d0bcff4065b3d03529564736f6c634300081e0033",
  "linkReferences": {},
  "deployedLinkReferences": {}
}