{
  "_format": "hh-sol-artifact-1",
  "contractName": "ERC721ClaimWindowMerkleClaim",
  "sourceName": "contracts/merkleClaim/ERC721ClaimWindowMerkleClaim.sol",
  "abi": [
    {
      "inputs": [
        {
          "internalType": "uint256",
          "name": "mintSupply",
          "type": "uint256"
        },
        {
          "internalType": "contract IERC721Mintable",
          "name": "rewardContract",
          "type": "address"
        },
        {
          "internalType": "contract IForwarderRegistry",
          "name": "_forwarderRegistry",
          "type": "address"
        }
      ],
      "stateMutability": "nonpayable",
      "type": "constructor"
    },
    {
      "inputs": [
        {
          "internalType": "bytes32",
          "name": "epochId",
          "type": "bytes32"
        },
        {
          "internalType": "address",
          "name": "recipient",
          "type": "address"
        }
      ],
      "name": "AlreadyClaimed",
      "type": "error"
    },
    {
      "inputs": [
        {
          "internalType": "bytes32",
          "name": "epochId",
          "type": "bytes32"
        }
      ],
      "name": "EpochIdAlreadyExists",
      "type": "error"
    },
    {
      "inputs": [
        {
          "internalType": "bytes32",
          "name": "epochId",
          "type": "bytes32"
        }
      ],
      "name": "EpochIdNotExists",
      "type": "error"
    },
    {
      "inputs": [],
      "name": "ExceededMintSupply",
      "type": "error"
    },
    {
      "inputs": [],
      "name": "IllegalInterfaceId",
      "type": "error"
    },
    {
      "inputs": [
        {
          "internalType": "uint256",
          "name": "startTime",
          "type": "uint256"
        },
        {
          "internalType": "uint256",
          "name": "endTime",
          "type": "uint256"
        },
        {
          "internalType": "uint256",
          "name": "currentTime",
          "type": "uint256"
        }
      ],
      "name": "InvalidClaimWindow",
      "type": "error"
    },
    {
      "inputs": [
        {
          "internalType": "bytes32",
          "name": "epochId",
          "type": "bytes32"
        },
        {
          "internalType": "address",
          "name": "recipient",
          "type": "address"
        }
      ],
      "name": "InvalidProof",
      "type": "error"
    },
    {
      "inputs": [
        {
          "internalType": "address",
          "name": "account",
          "type": "address"
        }
      ],
      "name": "NotContractOwner",
      "type": "error"
    },
    {
      "inputs": [
        {
          "internalType": "bytes32",
          "name": "epochId",
          "type": "bytes32"
        },
        {
          "internalType": "uint256",
          "name": "currentTime",
          "type": "uint256"
        }
      ],
      "name": "OutOfClaimWindow",
      "type": "error"
    },
    {
      "anonymous": false,
      "inputs": [
        {
          "indexed": true,
          "internalType": "bytes32",
          "name": "epochId",
          "type": "bytes32"
        },
        {
          "indexed": true,
          "internalType": "bytes32",
          "name": "merkleRoot",
          "type": "bytes32"
        },
        {
          "indexed": false,
          "internalType": "uint256",
          "name": "startTime",
          "type": "uint256"
        },
        {
          "indexed": true,
          "internalType": "uint256",
          "name": "endTime",
          "type": "uint256"
        }
      ],
      "name": "EpochMerkleRootSet",
      "type": "event"
    },
    {
      "anonymous": false,
      "inputs": [
        {
          "indexed": true,
          "internalType": "address",
          "name": "previousOwner",
          "type": "address"
        },
        {
          "indexed": true,
          "internalType": "address",
          "name": "newOwner",
          "type": "address"
        }
      ],
      "name": "OwnershipTransferred",
      "type": "event"
    },
    {
      "anonymous": false,
      "inputs": [
        {
          "indexed": true,
          "internalType": "bytes32",
          "name": "epochId",
          "type": "bytes32"
        },
        {
          "indexed": true,
          "internalType": "address",
          "name": "recipient",
          "type": "address"
        },
        {
          "indexed": true,
          "internalType": "uint256",
          "name": "tokenId",
          "type": "uint256"
        }
      ],
      "name": "RewardClaimed",
      "type": "event"
    },
    {
      "inputs": [],
      "name": "MINT_SUPPLY",
      "outputs": [
        {
          "internalType": "uint256",
          "name": "",
          "type": "uint256"
        }
      ],
      "stateMutability": "view",
      "type": "function"
    },
    {
      "inputs": [],
      "name": "REWARD_CONTRACT",
      "outputs": [
        {
          "internalType": "contract IERC721Mintable",
          "name": "",
          "type": "address"
        }
      ],
      "stateMutability": "view",
      "type": "function"
    },
    {
      "inputs": [
        {
          "internalType": "bytes32",
          "name": "epochId",
          "type": "bytes32"
        },
        {
          "internalType": "address",
          "name": "recipient",
          "type": "address"
        }
      ],
      "name": "canClaim",
      "outputs": [
        {
          "internalType": "enum ERC721ClaimWindowMerkleClaim.ClaimError",
          "name": "",
          "type": "uint8"
        }
      ],
      "stateMutability": "view",
      "type": "function"
    },
    {
      "inputs": [
        {
          "internalType": "bytes32",
          "name": "epochId",
          "type": "bytes32"
        },
        {
          "internalType": "bytes32[]",
          "name": "proof",
          "type": "bytes32[]"
        },
        {
          "internalType": "address",
          "name": "recipient",
          "type": "address"
        }
      ],
      "name": "claim",
      "outputs": [],
      "stateMutability": "nonpayable",
      "type": "function"
    },
    {
      "inputs": [
        {
          "internalType": "bytes32",
          "name": "epochId",
          "type": "bytes32"
        }
      ],
      "name": "claimWindows",
      "outputs": [
        {
          "internalType": "bytes32",
          "name": "merkleRoot",
          "type": "bytes32"
        },
        {
          "internalType": "uint256",
          "name": "startTime",
          "type": "uint256"
        },
        {
          "internalType": "uint256",
          "name": "endTime",
          "type": "uint256"
        }
      ],
      "stateMutability": "view",
      "type": "function"
    },
    {
      "inputs": [
        {
          "internalType": "address",
          "name": "recipient",
          "type": "address"
        }
      ],
      "name": "claimed",
      "outputs": [
        {
          "internalType": "bool",
          "name": "claimed",
          "type": "bool"
        }
      ],
      "stateMutability": "view",
      "type": "function"
    },
    {
      "inputs": [],
      "name": "forwarderRegistry",
      "outputs": [
        {
          "internalType": "contract IForwarderRegistry",
          "name": "",
          "type": "address"
        }
      ],
      "stateMutability": "view",
      "type": "function"
    },
    {
      "inputs": [
        {
          "internalType": "address",
          "name": "forwarder",
          "type": "address"
        }
      ],
      "name": "isTrustedForwarder",
      "outputs": [
        {
          "internalType": "bool",
          "name": "",
          "type": "bool"
        }
      ],
      "stateMutability": "view",
      "type": "function"
    },
    {
      "inputs": [],
      "name": "noOfTokensClaimed",
      "outputs": [
        {
          "internalType": "uint256",
          "name": "",
          "type": "uint256"
        }
      ],
      "stateMutability": "view",
      "type": "function"
    },
    {
      "inputs": [],
      "name": "owner",
      "outputs": [
        {
          "internalType": "address",
          "name": "",
          "type": "address"
        }
      ],
      "stateMutability": "view",
      "type": "function"
    },
    {
      "inputs": [
        {
          "internalType": "bytes32",
          "name": "epochId",
          "type": "bytes32"
        },
        {
          "internalType": "bytes32",
          "name": "merkleRoot",
          "type": "bytes32"
        },
        {
          "internalType": "uint256",
          "name": "startTime",
          "type": "uint256"
        },
        {
          "internalType": "uint256",
          "name": "endTime",
          "type": "uint256"
        }
      ],
      "name": "setEpochMerkleRoot",
      "outputs": [],
      "stateMutability": "nonpayable",
      "type": "function"
    },
    {
      "inputs": [
        {
          "internalType": "bytes4",
          "name": "interfaceId",
          "type": "bytes4"
        }
      ],
      "name": "supportsInterface",
      "outputs": [
        {
          "internalType": "bool",
          "name": "",
          "type": "bool"
        }
      ],
      "stateMutability": "view",
      "type": "function"
    },
    {
      "inputs": [
        {
          "internalType": "address",
          "name": "newOwner",
          "type": "address"
        }
      ],
      "name": "transferOwnership",
      "outputs": [],
      "stateMutability": "nonpayable",
      "type": "function"
    }
  ],
  "bytecode": "0x60e060405234801561001057600080fd5b506040516112b93803806112b983398101604081905261002f916101b4565b6001600160a01b0381166080523361004f81610049610068565b9061009c565b505060c0919091526001600160a01b031660a052610218565b60008061009660017fc9ed16f33ab3a66c84bfd83099ccb2a8845871e2e1c1928f63797152f0fd54cd6101f7565b92915050565b6001600160a01b038116156100f25781546001600160a01b0319166001600160a01b03821690811783556040516000907f8be0079c531659141344cd1fd0a4f28419497f9722a3daafe3b4186f6b6457e0908290a35b61010e6307f5828d60e41b6001610107610112565b9190610140565b5050565b60008061009660017fca9d3e17f264b0f3984e2634e94adb37fa3e6a8103f06aeae6fa59e21c769f5e6101f7565b600160e01b6001600160e01b031983160161016e576040516372c683bb60e01b815260040160405180910390fd5b6001600160e01b03199190911660009081526020929092526040909120805460ff1916911515919091179055565b6001600160a01b03811681146101b157600080fd5b50565b6000806000606084860312156101c957600080fd5b8351925060208401516101db8161019c565b60408501519092506101ec8161019c565b809150509250925092565b8181038181111561009657634e487b7160e01b600052601160045260246000fd5b60805160a05160c05161104f61026a600039600081816101e90152610a5201526000818161016d015261076c0152600081816101230152818161019f01528181610bf90152610c87015261104f6000f3fe608060405234801561001057600080fd5b50600436106100df5760003560e01c80639dfbcde81161008c578063c884ef8311610066578063c884ef8314610242578063dc45def614610265578063eb02625c146102ae578063f2fde38b146102c157600080fd5b80639dfbcde8146101e4578063aa9641ab14610219578063ba65912e1461023957600080fd5b80633a5af339116100bd5780633a5af33914610168578063572b6c051461018f5780638da5cb5b146101dc57600080fd5b806301ffc9a7146100e45780630328a8fc1461010c5780632b4c9f1614610121575b600080fd5b6100f76100f2366004610d74565b6102d4565b60405190151581526020015b60405180910390f35b61011f61011a366004610db6565b6102ee565b005b7f00000000000000000000000000000000000000000000000000000000000000005b60405173ffffffffffffffffffffffffffffffffffffffff9091168152602001610103565b6101437f000000000000000000000000000000000000000000000000000000000000000081565b6100f761019d366004610e11565b7f000000000000000000000000000000000000000000000000000000000000000073ffffffffffffffffffffffffffffffffffffffff90811691161490565b61014361042c565b61020b7f000000000000000000000000000000000000000000000000000000000000000081565b604051908152602001610103565b61022c610227366004610e2c565b610458565b6040516101039190610e87565b61020b60005481565b6100f7610250366004610e11565b60026020526000908152604090205460ff1681565b610293610273366004610ec8565b600160208190526000918252604090912080549181015460029091015483565b60408051938452602084019290925290820152606001610103565b61011f6102bc366004610ee1565b61047b565b61011f6102cf366004610e11565b61081a565b60006102e8826102e2610838565b90610866565b92915050565b6103076102f9610940565b61030161094a565b90610978565b80821015806103165750428111155b15610362576040517f790c7cef00000000000000000000000000000000000000000000000000000000815260048101839052602481018290524260448201526064015b60405180910390fd5b600084815260016020526040902054156103ab576040517fed10979d00000000000000000000000000000000000000000000000000000000815260048101859052602401610359565b60408051606081018252848152602080820185815282840185815260008981526001938490528590209351845590519183019190915551600290910155518190849086907f97df4a2fb6656595bc6eb616c2068e9d50031428ef69d8849590bc9f3dec620b9061041e9087815260200190565b60405180910390a450505050565b600061045361043961094a565b5473ffffffffffffffffffffffffffffffffffffffff1690565b905090565b60008281526001602052604081208154610474919084906109e7565b9392505050565b6000805485825260016020526040822090916104988285856109e7565b905060018160048111156104ae576104ae610e58565b036104e8576040517f84f229dc00000000000000000000000000000000000000000000000000000000815260048101889052602401610359565b60028160048111156104fc576104fc610e58565b0361053c576040517fdbeb4f4d00000000000000000000000000000000000000000000000000000000815260048101889052426024820152604401610359565b600381600481111561055057610550610e58565b036105a6576040517fa8ca238e0000000000000000000000000000000000000000000000000000000081526004810188905273ffffffffffffffffffffffffffffffffffffffff85166024820152604401610359565b60048160048111156105ba576105ba610e58565b036105f1576040517f192d175500000000000000000000000000000000000000000000000000000000815260040160405180910390fd5b6000878560405160200161063492919091825260601b7fffffffffffffffffffffffffffffffffffffffff00000000000000000000000016602082015260340190565b604080517fffffffffffffffffffffffffffffffffffffffffffffffffffffffffffffffe08184030181529190528051602090910120835490915061067d908890889084610a89565b6106d2576040517fa04a37c00000000000000000000000000000000000000000000000000000000081526004810189905273ffffffffffffffffffffffffffffffffffffffff86166024820152604401610359565b60006106df856001610fa2565b600081815573ffffffffffffffffffffffffffffffffffffffff888116808352600260205260409283902080547fffffffffffffffffffffffffffffffffffffffffffffffffffffffffffffff0016600117905591517f40c10f190000000000000000000000000000000000000000000000000000000081526004810192909252602482018390529192507f0000000000000000000000000000000000000000000000000000000000000000909116906340c10f1990604401600060405180830381600087803b1580156107b257600080fd5b505af11580156107c6573d6000803e3d6000fd5b50505050808673ffffffffffffffffffffffffffffffffffffffff168a7ffe236dfc7ce073698734b89da1aee0e7551c9c6d264404c502e6e8fefc1132a860405160405180910390a4505050505050505050565b610835610825610940565b8261082e61094a565b9190610aa1565b50565b6000806102e860017fca9d3e17f264b0f3984e2634e94adb37fa3e6a8103f06aeae6fa59e21c769f5e610fb5565b60007c01000000000000000000000000000000000000000000000000000000007fffffffff000000000000000000000000000000000000000000000000000000008316016108b6575060006102e8565b7ffe003659000000000000000000000000000000000000000000000000000000007fffffffff00000000000000000000000000000000000000000000000000000000831601610907575060016102e8565b507fffffffff00000000000000000000000000000000000000000000000000000000166000908152602091909152604090205460ff1690565b6000610453610bb6565b6000806102e860017fc9ed16f33ab3a66c84bfd83099ccb2a8845871e2e1c1928f63797152f0fd54cd610fb5565b815473ffffffffffffffffffffffffffffffffffffffff8281169116146109e3576040517f2ef4875e00000000000000000000000000000000000000000000000000000000815273ffffffffffffffffffffffffffffffffffffffff82166004820152602401610359565b5050565b82546000906109f857506001610474565b8360010154421080610a0d5750836002015442115b15610a1a57506002610474565b73ffffffffffffffffffffffffffffffffffffffff831660009081526002602052604090205460ff1615610a5057506003610474565b7f00000000000000000000000000000000000000000000000000000000000000008203610a7f57506004610474565b5060009392505050565b600082610a97868685610d03565b1495945050505050565b825473ffffffffffffffffffffffffffffffffffffffff9081169083168114610b0e576040517f2ef4875e00000000000000000000000000000000000000000000000000000000815273ffffffffffffffffffffffffffffffffffffffff84166004820152602401610359565b8173ffffffffffffffffffffffffffffffffffffffff168173ffffffffffffffffffffffffffffffffffffffff1614610bb05783547fffffffffffffffffffffffff00000000000000000000000000000000000000001673ffffffffffffffffffffffffffffffffffffffff8381169182178655604051908316907f8be0079c531659141344cd1fd0a4f28419497f9722a3daafe3b4186f6b6457e090600090a35b50505050565b600033321480610bc65750601836105b15610bd057503390565b7fffffffffffffffffffffffffffffffffffffffffffffffffffffffffffffffec36013560601c7f000000000000000000000000000000000000000000000000000000000000000073ffffffffffffffffffffffffffffffffffffffff16331480610cf257506040517f019a202800000000000000000000000000000000000000000000000000000000815273ffffffffffffffffffffffffffffffffffffffff82811660048301523360248301523060448301527f0000000000000000000000000000000000000000000000000000000000000000169063019a202890606401602060405180830381865afa158015610cce573d6000803e3d6000fd5b505050506040513d601f19601f82011682018060405250810190610cf29190610fc8565b15610cfc57919050565b3391505090565b600081815b84811015610d3c57610d3282878784818110610d2657610d26610fea565b90506020020135610d45565b9150600101610d08565b50949350505050565b6000818310610d61576000828152602084905260409020610474565b6000838152602083905260409020610474565b600060208284031215610d8657600080fd5b81357fffffffff000000000000000000000000000000000000000000000000000000008116811461047457600080fd5b60008060008060808587031215610dcc57600080fd5b5050823594602084013594506040840135936060013592509050565b803573ffffffffffffffffffffffffffffffffffffffff81168114610e0c57600080fd5b919050565b600060208284031215610e2357600080fd5b61047482610de8565b60008060408385031215610e3f57600080fd5b82359150610e4f60208401610de8565b90509250929050565b7f4e487b7100000000000000000000000000000000000000000000000000000000600052602160045260246000fd5b6020810160058310610ec2577f4e487b7100000000000000000000000000000000000000000000000000000000600052602160045260246000fd5b91905290565b600060208284031215610eda57600080fd5b5035919050565b60008060008060608587031215610ef757600080fd5b84359350602085013567ffffffffffffffff811115610f1557600080fd5b8501601f81018713610f2657600080fd5b803567ffffffffffffffff811115610f3d57600080fd5b8760208260051b8401011115610f5257600080fd5b60209190910193509150610f6860408601610de8565b905092959194509250565b7f4e487b7100000000000000000000000000000000000000000000000000000000600052601160045260246000fd5b808201808211156102e8576102e8610f73565b818103818111156102e8576102e8610f73565b600060208284031215610fda57600080fd5b8151801515811461047457600080fd5b7f4e487b7100000000000000000000000000000000000000000000000000000000600052603260045260246000fdfea2646970667358221220dedbdf5733622cb01e0f64af26bb8bbca271678c3ed7c8dd16840f9e0bef48c664736f6c634300081c0033",
  "linkReferences": {},
  "deployedLinkReferences": {}
}