{
  "_format": "hh-sol-artifact-1",
  "contractName": "TokenEscrow",
  "sourceName": "contracts/escrow/TokenEscrow.sol",
  "abi": [
    {
      "inputs": [
        {
          "internalType": "contract IForwarderRegistry",
          "name": "forwarderRegistry",
          "type": "address"
        },
        {
          "internalType": "address",
          "name": "inventory_",
          "type": "address"
        }
      ],
      "stateMutability": "nonpayable",
      "type": "constructor"
    },
    {
      "inputs": [],
      "name": "InsufficientBalance",
      "type": "error"
    },
    {
      "inputs": [
        {
          "internalType": "uint256",
          "name": "tokenId",
          "type": "uint256"
        },
        {
          "internalType": "uint256",
          "name": "amount",
          "type": "uint256"
        }
      ],
      "name": "InvalidAmount",
      "type": "error"
    },
    {
      "inputs": [],
      "name": "InvalidInputParams",
      "type": "error"
    },
    {
      "inputs": [],
      "name": "InvalidInventory",
      "type": "error"
    },
    {
      "anonymous": false,
      "inputs": [
        {
          "indexed": true,
          "internalType": "address",
          "name": "user",
          "type": "address"
        },
        {
          "indexed": true,
          "internalType": "uint256",
          "name": "id",
          "type": "uint256"
        }
      ],
      "name": "DepositToken",
      "type": "event"
    },
    {
      "anonymous": false,
      "inputs": [
        {
          "indexed": true,
          "internalType": "address",
          "name": "previousOwner",
          "type": "address"
        },
        {
          "indexed": true,
          "internalType": "address",
          "name": "newOwner",
          "type": "address"
        }
      ],
      "name": "OwnershipTransferred",
      "type": "event"
    },
    {
      "anonymous": false,
      "inputs": [
        {
          "indexed": true,
          "internalType": "address",
          "name": "user",
          "type": "address"
        },
        {
          "indexed": true,
          "internalType": "uint256",
          "name": "id",
          "type": "uint256"
        }
      ],
      "name": "WithdrawToken",
      "type": "event"
    },
    {
      "inputs": [],
      "name": "TOKEN_INVENTORY",
      "outputs": [
        {
          "internalType": "contract IERC1155",
          "name": "",
          "type": "address"
        }
      ],
      "stateMutability": "view",
      "type": "function"
    },
    {
      "inputs": [
        {
          "internalType": "uint256[]",
          "name": "ids",
          "type": "uint256[]"
        },
        {
          "internalType": "uint256[]",
          "name": "values",
          "type": "uint256[]"
        }
      ],
      "name": "deposit",
      "outputs": [],
      "stateMutability": "nonpayable",
      "type": "function"
    },
    {
      "inputs": [
        {
          "internalType": "address",
          "name": "",
          "type": "address"
        },
        {
          "internalType": "uint256",
          "name": "",
          "type": "uint256"
        }
      ],
      "name": "escrowedNFTs",
      "outputs": [
        {
          "internalType": "uint256",
          "name": "",
          "type": "uint256"
        }
      ],
      "stateMutability": "view",
      "type": "function"
    },
    {
      "inputs": [],
      "name": "forwarderRegistry",
      "outputs": [
        {
          "internalType": "contract IForwarderRegistry",
          "name": "",
          "type": "address"
        }
      ],
      "stateMutability": "view",
      "type": "function"
    },
    {
      "inputs": [
        {
          "internalType": "address",
          "name": "forwarder",
          "type": "address"
        }
      ],
      "name": "isTrustedForwarder",
      "outputs": [
        {
          "internalType": "bool",
          "name": "",
          "type": "bool"
        }
      ],
      "stateMutability": "view",
      "type": "function"
    },
    {
      "inputs": [
        {
          "internalType": "address",
          "name": "",
          "type": "address"
        },
        {
          "internalType": "address",
          "name": "from",
          "type": "address"
        },
        {
          "internalType": "uint256[]",
          "name": "ids",
          "type": "uint256[]"
        },
        {
          "internalType": "uint256[]",
          "name": "values",
          "type": "uint256[]"
        },
        {
          "internalType": "bytes",
          "name": "",
          "type": "bytes"
        }
      ],
      "name": "onERC1155BatchReceived",
      "outputs": [
        {
          "internalType": "bytes4",
          "name": "",
          "type": "bytes4"
        }
      ],
      "stateMutability": "nonpayable",
      "type": "function"
    },
    {
      "inputs": [
        {
          "internalType": "address",
          "name": "",
          "type": "address"
        },
        {
          "internalType": "address",
          "name": "from",
          "type": "address"
        },
        {
          "internalType": "uint256",
          "name": "id",
          "type": "uint256"
        },
        {
          "internalType": "uint256",
          "name": "value",
          "type": "uint256"
        },
        {
          "internalType": "bytes",
          "name": "",
          "type": "bytes"
        }
      ],
      "name": "onERC1155Received",
      "outputs": [
        {
          "internalType": "bytes4",
          "name": "",
          "type": "bytes4"
        }
      ],
      "stateMutability": "nonpayable",
      "type": "function"
    },
    {
      "inputs": [],
      "name": "owner",
      "outputs": [
        {
          "internalType": "address",
          "name": "",
          "type": "address"
        }
      ],
      "stateMutability": "view",
      "type": "function"
    },
    {
      "inputs": [
        {
          "internalType": "address[]",
          "name": "accounts",
          "type": "address[]"
        },
        {
          "internalType": "contract IERC20[]",
          "name": "tokens",
          "type": "address[]"
        },
        {
          "internalType": "uint256[]",
          "name": "amounts",
          "type": "uint256[]"
        }
      ],
      "name": "recoverERC20s",
      "outputs": [],
      "stateMutability": "nonpayable",
      "type": "function"
    },
    {
      "inputs": [
        {
          "internalType": "address[]",
          "name": "accounts",
          "type": "address[]"
        },
        {
          "internalType": "contract IERC721[]",
          "name": "contracts",
          "type": "address[]"
        },
        {
          "internalType": "uint256[]",
          "name": "tokenIds",
          "type": "uint256[]"
        }
      ],
      "name": "recoverERC721s",
      "outputs": [],
      "stateMutability": "nonpayable",
      "type": "function"
    },
    {
      "inputs": [
        {
          "internalType": "address payable[]",
          "name": "accounts",
          "type": "address[]"
        },
        {
          "internalType": "uint256[]",
          "name": "amounts",
          "type": "uint256[]"
        }
      ],
      "name": "recoverETH",
      "outputs": [],
      "stateMutability": "nonpayable",
      "type": "function"
    },
    {
      "inputs": [
        {
          "internalType": "bytes4",
          "name": "interfaceId",
          "type": "bytes4"
        }
      ],
      "name": "supportsInterface",
      "outputs": [
        {
          "internalType": "bool",
          "name": "",
          "type": "bool"
        }
      ],
      "stateMutability": "view",
      "type": "function"
    },
    {
      "inputs": [
        {
          "internalType": "address",
          "name": "newOwner",
          "type": "address"
        }
      ],
      "name": "transferOwnership",
      "outputs": [],
      "stateMutability": "nonpayable",
      "type": "function"
    },
    {
      "inputs": [
        {
          "internalType": "uint256[]",
          "name": "ids",
          "type": "uint256[]"
        },
        {
          "internalType": "uint256[]",
          "name": "values",
          "type": "uint256[]"
        }
      ],
      "name": "withdraw",
      "outputs": [],
      "stateMutability": "nonpayable",
      "type": "function"
    }
  ],
  "bytecode": "0x60c06040523480156200001157600080fd5b5060405162001c6638038062001c6683398101604081905262000034916200037f565b6200003e620000ee565b6001600160a01b0383166080526200007a81620000666200010a602090811b62000b1517901c565b6200014060201b62000b431790919060201c565b50620000b3630271189760e51b60016200009e620001be60201b62000ba71760201c565b620001ee60201b62000bd5179092919060201c565b6001600160a01b038116620000db57604051636524d08b60e01b815260040160405180910390fd5b6001600160a01b031660a052506200040b565b6000620001056200027e60201b62000c601760201c565b905090565b6000806200013a60017fc9ed16f33ab3a66c84bfd83099ccb2a8845871e2e1c1928f63797152f0fd54cd620003be565b92915050565b6001600160a01b03811615620001975781546001600160a01b0319166001600160a01b03821690811783556040516000907f8be0079c531659141344cd1fd0a4f28419497f9722a3daafe3b4186f6b6457e0908290a35b620001ba6307f5828d60e41b60016200009e620001be60201b62000ba71760201c565b5050565b6000806200013a60017fca9d3e17f264b0f3984e2634e94adb37fa3e6a8103f06aeae6fa59e21c769f5e620003be565b600160e01b6001600160e01b0319831601620002505760405162461bcd60e51b815260206004820152601f60248201527f496e74657266616365446574656374696f6e3a2077726f6e672076616c756500604482015260640160405180910390fd5b6001600160e01b03199190911660009081526020929092526040909120805460ff1916911515919091179055565b6000333214806200028f5750601836105b156200029a57503390565b6000620002b16200035a60201b62000d591760201c565b90506080516001600160a01b0316336001600160a01b03161480620003485750608051604051634494d46560e11b81526001600160a01b03838116600483015233602483015290911690638929a8ca90604401602060405180830381865afa15801562000322573d6000803e3d6000fd5b505050506040513d601f19601f82011682018060405250810190620003489190620003e0565b156200035357919050565b3391505090565b60131936013560601c90565b6001600160a01b03811681146200037c57600080fd5b50565b600080604083850312156200039357600080fd5b8251620003a08162000366565b6020840151909250620003b38162000366565b809150509250929050565b818103818111156200013a57634e487b7160e01b600052601160045260246000fd5b600060208284031215620003f357600080fd5b815180151581146200040457600080fd5b9392505050565b60805160a0516118056200046160003960008181610126015281816104c30152818161055e0152818161089e015261092b01526000818160e90152818161015801528181610c910152610cdd01526118056000f3fe608060405234801561001057600080fd5b50600436106100ba5760003560e01c806301ffc9a7146100bf5780632b4c9f16146100e75780634dfde97a14610121578063572b6c051461014857806373c8a9581461018857806381c197ed1461019d5780638da5cb5b146101b0578063bc197c81146101b8578063c3666c36146101e4578063f223885a146101f7578063f23a6e611461020a578063f2fde38b1461021d578063f7ba94bd14610230578063f997659a14610243575b600080fd5b6100d26100cd36600461124f565b610279565b60405190151581526020015b60405180910390f35b7f00000000000000000000000000000000000000000000000000000000000000005b6040516001600160a01b0390911681526020016100de565b6101097f000000000000000000000000000000000000000000000000000000000000000081565b6100d2610156366004611295565b7f00000000000000000000000000000000000000000000000000000000000000006001600160a01b0390811691161490565b61019b6101963660046112fd565b610293565b005b61019b6101ab366004611396565b610376565b61010961053b565b6101cb6101c6366004611442565b61055a565b6040516001600160e01b031990911681526020016100de565b61019b6101f23660046112fd565b610773565b61019b610205366004611396565b61089c565b6101cb610218366004611500565b610927565b61019b61022b366004611295565b610a60565b61019b61023e366004611396565b610a7e565b61026b610251366004611569565b600060208181529281526040808220909352908152205481565b6040519081526020016100de565b600061028d82610287610ba7565b90610d65565b92915050565b6102ac61029e610dc5565b6102a6610b15565b90610dcf565b8483811480156102bb57508082145b6102e05760405162461bcd60e51b81526004016102d790611595565b60405180910390fd5b60005b81811461036c576103648888838181106102ff576102ff6115cc565b90506020020160208101906103149190611295565b858584818110610326576103266115cc565b9050602002013588888581811061033f5761033f6115cc565b90506020020160208101906103549190611295565b6001600160a01b03169190610dfb565b6001016102e3565b5050505050505050565b8281146103965760405163e2a15fa360e01b815260040160405180910390fd5b60006103a0610dc5565b905060005b848110156104ab5760008686838181106103c1576103c16115cc565b90506020020135905060008585848181106103de576103de6115cc565b6001600160a01b0387166000908152602081815260408083208884528252909120549102929092013592505081111561042a57604051631e9acf1760e31b815260040160405180910390fd5b6001600160a01b0384166000908152602081815260408083208584529091528120805483929061045b9084906115f8565b909155505060405182906001600160a01b038616907f992ee874049a42cae0757a765cd7f641b6028cc35c3478bde8330bf417c3a7a990600090a3505080806104a39061160b565b9150506103a5565b50604051631759616b60e11b81526001600160a01b037f00000000000000000000000000000000000000000000000000000000000000001690632eb2c2d69061050290309085908a908a908a908a90600401611656565b600060405180830381600087803b15801561051c57600080fd5b505af1158015610530573d6000803e3d6000fd5b505050505050505050565b6000610555610548610b15565b546001600160a01b031690565b905090565b60007f00000000000000000000000000000000000000000000000000000000000000006001600160a01b031661058e610dc5565b6001600160a01b0316146105b557604051636524d08b60e01b815260040160405180910390fd5b60005b8681101561075d578585828181106105d2576105d26115cc565b905060200201356000808b6001600160a01b03166001600160a01b0316815260200190815260200160002060008a8a85818110610611576106116115cc565b905060200201358152602001908152602001600020600082825461063591906116b5565b90915550506001600160a01b03891660009081526020819052604081206001918a8a85818110610667576106676115cc565b90506020020135815260200190815260200160002054111561070e57878782818110610695576106956115cc565b905060200201356000808b6001600160a01b03166001600160a01b0316815260200190815260200160002060008a8a858181106106d4576106d46115cc565b905060200201358152602001908152602001600020546040516307c83fcf60e41b81526004016102d7929190918252602082015260400190565b878782818110610720576107206115cc565b90506020020135896001600160a01b031660008051602061179083398151915260405160405180910390a3806107558161160b565b9150506105b8565b5063bc197c8160e01b9998505050505050505050565b61077e61029e610dc5565b84838114801561078d57508082145b6107a95760405162461bcd60e51b81526004016102d790611595565b60005b81811461036c578585828181106107c5576107c56115cc565b90506020020160208101906107da9190611295565b6001600160a01b03166323b872dd308a8a858181106107fb576107fb6115cc565b90506020020160208101906108109190611295565b878786818110610822576108226115cc565b6040516001600160e01b031960e088901b1681526001600160a01b03958616600482015294909316602485015250602090910201356044820152606401600060405180830381600087803b15801561087957600080fd5b505af115801561088d573d6000803e3d6000fd5b505050508060010190506107ac565b7f00000000000000000000000000000000000000000000000000000000000000006001600160a01b0316632eb2c2d66108d3610dc5565b30878787876040518763ffffffff1660e01b81526004016108f996959493929190611656565b600060405180830381600087803b15801561091357600080fd5b505af115801561036c573d6000803e3d6000fd5b60007f00000000000000000000000000000000000000000000000000000000000000006001600160a01b031661095b610dc5565b6001600160a01b03161461098257604051636524d08b60e01b815260040160405180910390fd5b6001600160a01b038616600090815260208181526040808320888452909152812080548692906109b39084906116b5565b90915550506001600160a01b03861660009081526020818152604080832088845290915290205460011015610a29576001600160a01b038616600090815260208181526040808320888452909152908190205490516307c83fcf60e41b81526102d7918791600401918252602082015260400190565b60405185906001600160a01b0388169060008051602061179083398151915290600090a35063f23a6e6160e01b9695505050505050565b610a7b610a6b610dc5565b82610a74610b15565b9190610e52565b50565b610a8961029e610dc5565b82818114610aa95760405162461bcd60e51b81526004016102d790611595565b60005b818114610b0d57610b05848483818110610ac857610ac86115cc565b90506020020135878784818110610ae157610ae16115cc565b9050602002016020810190610af69190611295565b6001600160a01b031690610ed7565b600101610aac565b505050505050565b60008061028d60017fc9ed16f33ab3a66c84bfd83099ccb2a8845871e2e1c1928f63797152f0fd54cd6115f8565b6001600160a01b03811615610b875781546001600160a01b0319166001600160a01b03821690811783556040516000906000805160206117b0833981519152908290a35b610ba36307f5828d60e41b6001610b9c610ba7565b9190610bd5565b5050565b60008061028d60017fca9d3e17f264b0f3984e2634e94adb37fa3e6a8103f06aeae6fa59e21c769f5e6115f8565b600160e01b6001600160e01b0319831601610c325760405162461bcd60e51b815260206004820152601f60248201527f496e74657266616365446574656374696f6e3a2077726f6e672076616c75650060448201526064016102d7565b6001600160e01b03199190911660009081526020929092526040909120805460ff1916911515919091179055565b600033321480610c705750601836105b15610c7a57503390565b6000610c84610d59565b9050336001600160a01b037f0000000000000000000000000000000000000000000000000000000000000000161480610d485750604051634494d46560e11b81526001600160a01b0382811660048301523360248301527f00000000000000000000000000000000000000000000000000000000000000001690638929a8ca90604401602060405180830381865afa158015610d24573d6000803e3d6000fd5b505050506040513d601f19601f82011682018060405250810190610d4891906116c8565b15610d5257919050565b3391505090565b60131936013560601c90565b6000600160e01b6001600160e01b0319831601610d845750600061028d565b63fe00365960e01b6001600160e01b0319831601610da45750600161028d565b506001600160e01b0319166000908152602091909152604090205460ff1690565b6000610555610c60565b81546001600160a01b03828116911614610ba35760405162461bcd60e51b81526004016102d7906116ea565b604080516001600160a01b038416602482015260448082018490528251808303909101815260649091019091526020810180516001600160e01b031663a9059cbb60e01b179052610e4d908490610fed565b505050565b82546001600160a01b039081169083168114610e805760405162461bcd60e51b81526004016102d7906116ea565b816001600160a01b0316816001600160a01b031614610ed15783546001600160a01b0319166001600160a01b038381169182178655604051908316906000805160206117b083398151915290600090a35b50505050565b80471015610f275760405162461bcd60e51b815260206004820152601d60248201527f416464726573733a20696e73756666696369656e742062616c616e636500000060448201526064016102d7565b6000826001600160a01b03168260405160006040518083038185875af1925050503d8060008114610f74576040519150601f19603f3d011682016040523d82523d6000602084013e610f79565b606091505b5050905080610e4d5760405162461bcd60e51b815260206004820152603a60248201527f416464726573733a20756e61626c6520746f2073656e642076616c75652c20726044820152791958da5c1a595b9d081b585e481a185d99481c995d995c9d195960321b60648201526084016102d7565b6000611042826040518060400160405280602081526020017f5361666545524332303a206c6f772d6c6576656c2063616c6c206661696c6564815250856001600160a01b03166110bf9092919063ffffffff16565b805190915015610e4d578080602001905181019061106091906116c8565b610e4d5760405162461bcd60e51b815260206004820152602a60248201527f5361666545524332303a204552433230206f7065726174696f6e20646964206e6044820152691bdd081cdd58d8d9595960b21b60648201526084016102d7565b60606110ce84846000856110d6565b949350505050565b6060824710156111375760405162461bcd60e51b815260206004820152602660248201527f416464726573733a20696e73756666696369656e742062616c616e636520666f6044820152651c8818d85b1b60d21b60648201526084016102d7565b600080866001600160a01b031685876040516111539190611740565b60006040518083038185875af1925050503d8060008114611190576040519150601f19603f3d011682016040523d82523d6000602084013e611195565b606091505b50915091506111a6878383876111b1565b979650505050505050565b60608315611220578251600003611219576001600160a01b0385163b6112195760405162461bcd60e51b815260206004820152601d60248201527f416464726573733a2063616c6c20746f206e6f6e2d636f6e747261637400000060448201526064016102d7565b50816110ce565b6110ce83838151156112355781518083602001fd5b8060405162461bcd60e51b81526004016102d7919061175c565b60006020828403121561126157600080fd5b81356001600160e01b03198116811461127957600080fd5b9392505050565b6001600160a01b0381168114610a7b57600080fd5b6000602082840312156112a757600080fd5b813561127981611280565b60008083601f8401126112c457600080fd5b5081356001600160401b038111156112db57600080fd5b6020830191508360208260051b85010111156112f657600080fd5b9250929050565b6000806000806000806060878903121561131657600080fd5b86356001600160401b038082111561132d57600080fd5b6113398a838b016112b2565b9098509650602089013591508082111561135257600080fd5b61135e8a838b016112b2565b9096509450604089013591508082111561137757600080fd5b5061138489828a016112b2565b979a9699509497509295939492505050565b600080600080604085870312156113ac57600080fd5b84356001600160401b03808211156113c357600080fd5b6113cf888389016112b2565b909650945060208701359150808211156113e857600080fd5b506113f5878288016112b2565b95989497509550505050565b60008083601f84011261141357600080fd5b5081356001600160401b0381111561142a57600080fd5b6020830191508360208285010111156112f657600080fd5b60008060008060008060008060a0898b03121561145e57600080fd5b883561146981611280565b9750602089013561147981611280565b965060408901356001600160401b038082111561149557600080fd5b6114a18c838d016112b2565b909850965060608b01359150808211156114ba57600080fd5b6114c68c838d016112b2565b909650945060808b01359150808211156114df57600080fd5b506114ec8b828c01611401565b999c989b5096995094979396929594505050565b60008060008060008060a0878903121561151957600080fd5b863561152481611280565b9550602087013561153481611280565b9450604087013593506060870135925060808701356001600160401b0381111561155d57600080fd5b61138489828a01611401565b6000806040838503121561157c57600080fd5b823561158781611280565b946020939093013593505050565b6020808252601d908201527f5265636f766572793a20696e636f6e73697374656e7420617272617973000000604082015260600190565b634e487b7160e01b600052603260045260246000fd5b634e487b7160e01b600052601160045260246000fd5b8181038181111561028d5761028d6115e2565b60006001820161161d5761161d6115e2565b5060010190565b81835260006001600160fb1b0383111561163d57600080fd5b8260051b80836020870137939093016020019392505050565b6001600160a01b0387811682528616602082015260a0604082018190526000906116839083018688611624565b8281036060840152611696818587611624565b8381036080909401939093525050600081526020019695505050505050565b8082018082111561028d5761028d6115e2565b6000602082840312156116da57600080fd5b8151801515811461127957600080fd5b60208082526018908201527727bbb732b939b434b81d103737ba103a34329037bbb732b960411b604082015260600190565b60005b8381101561173757818101518382015260200161171f565b50506000910152565b6000825161175281846020870161171c565b9190910192915050565b602081526000825180602084015261177b81604085016020870161171c565b601f01601f1916919091016040019291505056fe2d0c0a8842b9944ece1495eb61121621b5e36bd6af3bba0318c695f525aef79f8be0079c531659141344cd1fd0a4f28419497f9722a3daafe3b4186f6b6457e0a2646970667358221220abcfd1b18ca1bf4dd652fe7b2ecdf0cf437deb74266e0fe32cc8d1ceb18d972c64736f6c63430008110033",
  "linkReferences": {},
  "deployedLinkReferences": {}
}