{
  "_format": "hh-sol-artifact-1",
  "contractName": "TokenEscrow",
  "sourceName": "contracts/escrow/TokenEscrow.sol",
  "abi": [
    {
      "inputs": [
        {
          "internalType": "contract IForwarderRegistry",
          "name": "forwarderRegistry",
          "type": "address"
        },
        {
          "internalType": "contract IERC1155",
          "name": "inventory",
          "type": "address"
        }
      ],
      "stateMutability": "nonpayable",
      "type": "constructor"
    },
    {
      "inputs": [
        {
          "internalType": "uint256",
          "name": "tokenId",
          "type": "uint256"
        },
        {
          "internalType": "uint256",
          "name": "balance",
          "type": "uint256"
        }
      ],
      "name": "BalanceExceeded",
      "type": "error"
    },
    {
      "inputs": [],
      "name": "InconsistentArrays",
      "type": "error"
    },
    {
      "inputs": [
        {
          "internalType": "uint256",
          "name": "tokenId",
          "type": "uint256"
        },
        {
          "internalType": "uint256",
          "name": "balance",
          "type": "uint256"
        }
      ],
      "name": "InsufficientBalance",
      "type": "error"
    },
    {
      "inputs": [],
      "name": "InvalidInventory",
      "type": "error"
    },
    {
      "inputs": [],
      "name": "UnsupportedMethod",
      "type": "error"
    },
    {
      "anonymous": false,
      "inputs": [
        {
          "indexed": true,
          "internalType": "address",
          "name": "user",
          "type": "address"
        },
        {
          "indexed": false,
          "internalType": "uint256[]",
          "name": "ids",
          "type": "uint256[]"
        }
      ],
      "name": "DepositTokens",
      "type": "event"
    },
    {
      "anonymous": false,
      "inputs": [
        {
          "indexed": true,
          "internalType": "address",
          "name": "previousOwner",
          "type": "address"
        },
        {
          "indexed": true,
          "internalType": "address",
          "name": "newOwner",
          "type": "address"
        }
      ],
      "name": "OwnershipTransferred",
      "type": "event"
    },
    {
      "anonymous": false,
      "inputs": [
        {
          "indexed": true,
          "internalType": "address",
          "name": "user",
          "type": "address"
        },
        {
          "indexed": false,
          "internalType": "uint256[]",
          "name": "ids",
          "type": "uint256[]"
        }
      ],
      "name": "WithdrawTokens",
      "type": "event"
    },
    {
      "inputs": [],
      "name": "TOKEN_INVENTORY",
      "outputs": [
        {
          "internalType": "contract IERC1155",
          "name": "",
          "type": "address"
        }
      ],
      "stateMutability": "view",
      "type": "function"
    },
    {
      "inputs": [
        {
          "internalType": "address",
          "name": "account",
          "type": "address"
        },
        {
          "internalType": "uint256",
          "name": "id",
          "type": "uint256"
        }
      ],
      "name": "balanceOf",
      "outputs": [
        {
          "internalType": "uint256",
          "name": "",
          "type": "uint256"
        }
      ],
      "stateMutability": "view",
      "type": "function"
    },
    {
      "inputs": [
        {
          "internalType": "uint256[]",
          "name": "ids",
          "type": "uint256[]"
        },
        {
          "internalType": "uint256[]",
          "name": "values",
          "type": "uint256[]"
        }
      ],
      "name": "deposit",
      "outputs": [],
      "stateMutability": "nonpayable",
      "type": "function"
    },
    {
      "inputs": [
        {
          "internalType": "address",
          "name": "",
          "type": "address"
        },
        {
          "internalType": "uint256",
          "name": "",
          "type": "uint256"
        }
      ],
      "name": "escrowedNFTs",
      "outputs": [
        {
          "internalType": "uint256",
          "name": "",
          "type": "uint256"
        }
      ],
      "stateMutability": "view",
      "type": "function"
    },
    {
      "inputs": [],
      "name": "forwarderRegistry",
      "outputs": [
        {
          "internalType": "contract IForwarderRegistry",
          "name": "",
          "type": "address"
        }
      ],
      "stateMutability": "view",
      "type": "function"
    },
    {
      "inputs": [
        {
          "internalType": "address",
          "name": "forwarder",
          "type": "address"
        }
      ],
      "name": "isTrustedForwarder",
      "outputs": [
        {
          "internalType": "bool",
          "name": "",
          "type": "bool"
        }
      ],
      "stateMutability": "view",
      "type": "function"
    },
    {
      "inputs": [
        {
          "internalType": "address",
          "name": "",
          "type": "address"
        },
        {
          "internalType": "address",
          "name": "from",
          "type": "address"
        },
        {
          "internalType": "uint256[]",
          "name": "ids",
          "type": "uint256[]"
        },
        {
          "internalType": "uint256[]",
          "name": "values",
          "type": "uint256[]"
        },
        {
          "internalType": "bytes",
          "name": "",
          "type": "bytes"
        }
      ],
      "name": "onERC1155BatchReceived",
      "outputs": [
        {
          "internalType": "bytes4",
          "name": "",
          "type": "bytes4"
        }
      ],
      "stateMutability": "nonpayable",
      "type": "function"
    },
    {
      "inputs": [
        {
          "internalType": "address",
          "name": "",
          "type": "address"
        },
        {
          "internalType": "address",
          "name": "",
          "type": "address"
        },
        {
          "internalType": "uint256",
          "name": "",
          "type": "uint256"
        },
        {
          "internalType": "uint256",
          "name": "",
          "type": "uint256"
        },
        {
          "internalType": "bytes",
          "name": "",
          "type": "bytes"
        }
      ],
      "name": "onERC1155Received",
      "outputs": [
        {
          "internalType": "bytes4",
          "name": "",
          "type": "bytes4"
        }
      ],
      "stateMutability": "pure",
      "type": "function"
    },
    {
      "inputs": [],
      "name": "owner",
      "outputs": [
        {
          "internalType": "address",
          "name": "",
          "type": "address"
        }
      ],
      "stateMutability": "view",
      "type": "function"
    },
    {
      "inputs": [
        {
          "internalType": "address[]",
          "name": "accounts",
          "type": "address[]"
        },
        {
          "internalType": "contract IERC20[]",
          "name": "tokens",
          "type": "address[]"
        },
        {
          "internalType": "uint256[]",
          "name": "amounts",
          "type": "uint256[]"
        }
      ],
      "name": "recoverERC20s",
      "outputs": [],
      "stateMutability": "nonpayable",
      "type": "function"
    },
    {
      "inputs": [
        {
          "internalType": "address[]",
          "name": "accounts",
          "type": "address[]"
        },
        {
          "internalType": "contract IERC721[]",
          "name": "contracts",
          "type": "address[]"
        },
        {
          "internalType": "uint256[]",
          "name": "tokenIds",
          "type": "uint256[]"
        }
      ],
      "name": "recoverERC721s",
      "outputs": [],
      "stateMutability": "nonpayable",
      "type": "function"
    },
    {
      "inputs": [
        {
          "internalType": "address payable[]",
          "name": "accounts",
          "type": "address[]"
        },
        {
          "internalType": "uint256[]",
          "name": "amounts",
          "type": "uint256[]"
        }
      ],
      "name": "recoverETH",
      "outputs": [],
      "stateMutability": "nonpayable",
      "type": "function"
    },
    {
      "inputs": [
        {
          "internalType": "bytes4",
          "name": "interfaceId",
          "type": "bytes4"
        }
      ],
      "name": "supportsInterface",
      "outputs": [
        {
          "internalType": "bool",
          "name": "",
          "type": "bool"
        }
      ],
      "stateMutability": "view",
      "type": "function"
    },
    {
      "inputs": [
        {
          "internalType": "address",
          "name": "newOwner",
          "type": "address"
        }
      ],
      "name": "transferOwnership",
      "outputs": [],
      "stateMutability": "nonpayable",
      "type": "function"
    },
    {
      "inputs": [
        {
          "internalType": "uint256[]",
          "name": "ids",
          "type": "uint256[]"
        },
        {
          "internalType": "uint256[]",
          "name": "values",
          "type": "uint256[]"
        }
      ],
      "name": "withdraw",
      "outputs": [],
      "stateMutability": "nonpayable",
      "type": "function"
    }
  ],
  "bytecode": "0x60c06040523480156200001157600080fd5b50604051620019b1380380620019b1833981016040819052620000349162000272565b6001600160a01b0382166080523362000071816200005d620000e5602090811b620009b917901c565b6200011b60201b620009e71790919060201c565b50620000aa630271189760e51b6001620000956200019960201b62000a4b1760201c565b620001c960201b62000a79179092919060201c565b6001600160a01b038116620000d257604051636524d08b60e01b815260040160405180910390fd5b6001600160a01b031660a05250620002d3565b6000806200011560017fc9ed16f33ab3a66c84bfd83099ccb2a8845871e2e1c1928f63797152f0fd54cd620002b1565b92915050565b6001600160a01b03811615620001725781546001600160a01b0319166001600160a01b03821690811783556040516000907f8be0079c531659141344cd1fd0a4f28419497f9722a3daafe3b4186f6b6457e0908290a35b620001956307f5828d60e41b6001620000956200019960201b62000a4b1760201c565b5050565b6000806200011560017fca9d3e17f264b0f3984e2634e94adb37fa3e6a8103f06aeae6fa59e21c769f5e620002b1565b600160e01b6001600160e01b03198316016200022b5760405162461bcd60e51b815260206004820152601f60248201527f496e74657266616365446574656374696f6e3a2077726f6e672076616c756500604482015260640160405180910390fd5b6001600160e01b03199190911660009081526020929092526040909120805460ff1916911515919091179055565b6001600160a01b03811681146200026f57600080fd5b50565b600080604083850312156200028657600080fd5b8251620002938162000259565b6020840151909250620002a68162000259565b809150509250929050565b818103818111156200011557634e487b7160e01b600052601160045260246000fd5b60805160a05161168e62000323600039600081816101510152818161051e015281816105c201526108600152600081816101140152818161018301528181610db10152610e06015261168e6000f3fe608060405234801561001057600080fd5b50600436106100c45760003560e01c8062fdd58e146100c957806301ffc9a7146100ef5780632b4c9f16146101125780634dfde97a1461014c578063572b6c051461017357806373c8a958146101b357806381c197ed146101c85780638da5cb5b146101db578063bc197c81146101e3578063c3666c361461020f578063f223885a14610222578063f23a6e6114610235578063f2fde38b14610248578063f7ba94bd1461025b578063f997659a1461026e575b600080fd5b6100dc6100d73660046110f9565b610296565b6040519081526020015b60405180910390f35b6101026100fd366004611125565b6102bf565b60405190151581526020016100e6565b7f00000000000000000000000000000000000000000000000000000000000000005b6040516001600160a01b0390911681526020016100e6565b6101347f000000000000000000000000000000000000000000000000000000000000000081565b610102610181366004611156565b7f00000000000000000000000000000000000000000000000000000000000000006001600160a01b0390811691161490565b6101c66101c13660046111be565b6102d3565b005b6101c66101d6366004611257565b6103b6565b610134610596565b6101f66101f1366004611303565b6105b5565b6040516001600160e01b031990911681526020016100e6565b6101c661021d3660046111be565b610735565b6101c6610230366004611257565b61085e565b6101f66102433660046113c1565b6108e9565b6101c6610256366004611156565b610904565b6101c6610269366004611257565b610922565b6100dc61027c3660046110f9565b600060208181529281526040808220909352908152205481565b6001600160a01b0382166000908152602081815260408083208484529091529020545b92915050565b60006102b9826102cd610a4b565b90610b04565b6102ec6102de610b64565b6102e66109b9565b90610b6e565b8483811480156102fb57508082145b6103205760405162461bcd60e51b81526004016103179061142a565b60405180910390fd5b60005b8181146103ac576103a488888381811061033f5761033f611461565b90506020020160208101906103549190611156565b85858481811061036657610366611461565b9050602002013588888581811061037f5761037f611461565b90506020020160208101906103949190611156565b6001600160a01b03169190610b9a565b600101610323565b5050505050505050565b8281146103d6576040516335e83ac360e01b815260040160405180910390fd5b60006103e0610b64565b905060005b848110156104c357600086868381811061040157610401611461565b905060200201359050600085858481811061041e5761041e611461565b6001600160a01b03871660009081526020818152604080832088845282529091205491029290920135925050818110156104755760405163cf47918160e01b81526004810184905260248101829052604401610317565b6001600160a01b038516600090815260208181526040808320868452909152812080548492906104a690849061148d565b9250508190555050505080806104bb906114a0565b9150506103e5565b50806001600160a01b03167f651c6d84833866465bf050fea9fb84dc59faf4fc13d4607553b539e31e53ff0286866040516104ff9291906114eb565b60405180910390a2604051631759616b60e11b81526001600160a01b037f00000000000000000000000000000000000000000000000000000000000000001690632eb2c2d69061055d90309085908a908a908a908a906004016114ff565b600060405180830381600087803b15801561057757600080fd5b505af115801561058b573d6000803e3d6000fd5b505050505050505050565b60006105b06105a36109b9565b546001600160a01b031690565b905090565b6000336001600160a01b037f0000000000000000000000000000000000000000000000000000000000000000161461060057604051636524d08b60e01b815260040160405180910390fd5b60005b868110156106dc57600088888381811061061f5761061f611461565b90506020020135905086868381811061063a5761063a611461565b6001600160a01b038d166000908152602081815260408083208784528252822080549390910294909401359392509061067490849061155e565b90915550506001600160a01b038a1660009081526020818152604080832084845290915290205460018111156106c75760405163f4dcf56b60e01b81526004810183905260248101829052604401610317565b505080806106d4906114a0565b915050610603565b50876001600160a01b03167fd4960fb57883d065fb41b7f993f9be3105af91fe2b595a398457e1ff226cdc5088886040516107189291906114eb565b60405180910390a25063bc197c8160e01b98975050505050505050565b6107406102de610b64565b84838114801561074f57508082145b61076b5760405162461bcd60e51b81526004016103179061142a565b60005b8181146103ac5785858281811061078757610787611461565b905060200201602081019061079c9190611156565b6001600160a01b03166323b872dd308a8a858181106107bd576107bd611461565b90506020020160208101906107d29190611156565b8787868181106107e4576107e4611461565b6040516001600160e01b031960e088901b1681526001600160a01b03958616600482015294909316602485015250602090910201356044820152606401600060405180830381600087803b15801561083b57600080fd5b505af115801561084f573d6000803e3d6000fd5b5050505080600101905061076e565b7f00000000000000000000000000000000000000000000000000000000000000006001600160a01b0316632eb2c2d6610895610b64565b30878787876040518763ffffffff1660e01b81526004016108bb969594939291906114ff565b600060405180830381600087803b1580156108d557600080fd5b505af11580156103ac573d6000803e3d6000fd5b600060405163036a2f6360e31b815260040160405180910390fd5b61091f61090f610b64565b826109186109b9565b9190610bf1565b50565b61092d6102de610b64565b8281811461094d5760405162461bcd60e51b81526004016103179061142a565b60005b8181146109b1576109a984848381811061096c5761096c611461565b9050602002013587878481811061098557610985611461565b905060200201602081019061099a9190611156565b6001600160a01b031690610c76565b600101610950565b505050505050565b6000806102b960017fc9ed16f33ab3a66c84bfd83099ccb2a8845871e2e1c1928f63797152f0fd54cd61148d565b6001600160a01b03811615610a2b5781546001600160a01b0319166001600160a01b0382169081178355604051600090600080516020611639833981519152908290a35b610a476307f5828d60e41b6001610a40610a4b565b9190610a79565b5050565b6000806102b960017fca9d3e17f264b0f3984e2634e94adb37fa3e6a8103f06aeae6fa59e21c769f5e61148d565b600160e01b6001600160e01b0319831601610ad65760405162461bcd60e51b815260206004820152601f60248201527f496e74657266616365446574656374696f6e3a2077726f6e672076616c7565006044820152606401610317565b6001600160e01b03199190911660009081526020929092526040909120805460ff1916911515919091179055565b6000600160e01b6001600160e01b0319831601610b23575060006102b9565b63fe00365960e01b6001600160e01b0319831601610b43575060016102b9565b506001600160e01b0319166000908152602091909152604090205460ff1690565b60006105b0610d8c565b81546001600160a01b03828116911614610a475760405162461bcd60e51b815260040161031790611571565b604080516001600160a01b038416602482015260448082018490528251808303909101815260649091019091526020810180516001600160e01b031663a9059cbb60e01b179052610bec908490610e82565b505050565b82546001600160a01b039081169083168114610c1f5760405162461bcd60e51b815260040161031790611571565b816001600160a01b0316816001600160a01b031614610c705783546001600160a01b0319166001600160a01b0383811691821786556040519083169060008051602061163983398151915290600090a35b50505050565b80471015610cc65760405162461bcd60e51b815260206004820152601d60248201527f416464726573733a20696e73756666696369656e742062616c616e63650000006044820152606401610317565b6000826001600160a01b03168260405160006040518083038185875af1925050503d8060008114610d13576040519150601f19603f3d011682016040523d82523d6000602084013e610d18565b606091505b5050905080610bec5760405162461bcd60e51b815260206004820152603a60248201527f416464726573733a20756e61626c6520746f2073656e642076616c75652c20726044820152791958da5c1a595b9d081b585e481a185d99481c995d995c9d195960321b6064820152608401610317565b600033321480610d9c5750601836105b15610da657503390565b60131936013560601c7f00000000000000000000000000000000000000000000000000000000000000006001600160a01b0316331480610e715750604051634494d46560e11b81526001600160a01b0382811660048301523360248301527f00000000000000000000000000000000000000000000000000000000000000001690638929a8ca90604401602060405180830381865afa158015610e4d573d6000803e3d6000fd5b505050506040513d601f19601f82011682018060405250810190610e7191906115a3565b15610e7b57919050565b3391505090565b6000610ed7826040518060400160405280602081526020017f5361666545524332303a206c6f772d6c6576656c2063616c6c206661696c6564815250856001600160a01b0316610f549092919063ffffffff16565b805190915015610bec5780806020019051810190610ef591906115a3565b610bec5760405162461bcd60e51b815260206004820152602a60248201527f5361666545524332303a204552433230206f7065726174696f6e20646964206e6044820152691bdd081cdd58d8d9595960b21b6064820152608401610317565b6060610f638484600085610f6b565b949350505050565b606082471015610fcc5760405162461bcd60e51b815260206004820152602660248201527f416464726573733a20696e73756666696369656e742062616c616e636520666f6044820152651c8818d85b1b60d21b6064820152608401610317565b600080866001600160a01b03168587604051610fe891906115e9565b60006040518083038185875af1925050503d8060008114611025576040519150601f19603f3d011682016040523d82523d6000602084013e61102a565b606091505b509150915061103b87838387611046565b979650505050505050565b606083156110b55782516000036110ae576001600160a01b0385163b6110ae5760405162461bcd60e51b815260206004820152601d60248201527f416464726573733a2063616c6c20746f206e6f6e2d636f6e74726163740000006044820152606401610317565b5081610f63565b610f6383838151156110ca5781518083602001fd5b8060405162461bcd60e51b81526004016103179190611605565b6001600160a01b038116811461091f57600080fd5b6000806040838503121561110c57600080fd5b8235611117816110e4565b946020939093013593505050565b60006020828403121561113757600080fd5b81356001600160e01b03198116811461114f57600080fd5b9392505050565b60006020828403121561116857600080fd5b813561114f816110e4565b60008083601f84011261118557600080fd5b5081356001600160401b0381111561119c57600080fd5b6020830191508360208260051b85010111156111b757600080fd5b9250929050565b600080600080600080606087890312156111d757600080fd5b86356001600160401b03808211156111ee57600080fd5b6111fa8a838b01611173565b9098509650602089013591508082111561121357600080fd5b61121f8a838b01611173565b9096509450604089013591508082111561123857600080fd5b5061124589828a01611173565b979a9699509497509295939492505050565b6000806000806040858703121561126d57600080fd5b84356001600160401b038082111561128457600080fd5b61129088838901611173565b909650945060208701359150808211156112a957600080fd5b506112b687828801611173565b95989497509550505050565b60008083601f8401126112d457600080fd5b5081356001600160401b038111156112eb57600080fd5b6020830191508360208285010111156111b757600080fd5b60008060008060008060008060a0898b03121561131f57600080fd5b883561132a816110e4565b9750602089013561133a816110e4565b965060408901356001600160401b038082111561135657600080fd5b6113628c838d01611173565b909850965060608b013591508082111561137b57600080fd5b6113878c838d01611173565b909650945060808b01359150808211156113a057600080fd5b506113ad8b828c016112c2565b999c989b5096995094979396929594505050565b60008060008060008060a087890312156113da57600080fd5b86356113e5816110e4565b955060208701356113f5816110e4565b9450604087013593506060870135925060808701356001600160401b0381111561141e57600080fd5b61124589828a016112c2565b6020808252601d908201527f5265636f766572793a20696e636f6e73697374656e7420617272617973000000604082015260600190565b634e487b7160e01b600052603260045260246000fd5b634e487b7160e01b600052601160045260246000fd5b818103818111156102b9576102b9611477565b6000600182016114b2576114b2611477565b5060010190565b81835260006001600160fb1b038311156114d257600080fd5b8260051b80836020870137939093016020019392505050565b602081526000610f636020830184866114b9565b6001600160a01b0387811682528616602082015260a06040820181905260009061152c90830186886114b9565b828103606084015261153f8185876114b9565b8381036080909401939093525050600081526020019695505050505050565b808201808211156102b9576102b9611477565b60208082526018908201527727bbb732b939b434b81d103737ba103a34329037bbb732b960411b604082015260600190565b6000602082840312156115b557600080fd5b8151801515811461114f57600080fd5b60005b838110156115e05781810151838201526020016115c8565b50506000910152565b600082516115fb8184602087016115c5565b9190910192915050565b60208152600082518060208401526116248160408501602087016115c5565b601f01601f1916919091016040019291505056fe8be0079c531659141344cd1fd0a4f28419497f9722a3daafe3b4186f6b6457e0a264697066735822122038c425fd98af5ddc9fbbabc4c6645ce3446d53b5a502a3057ecfe92adfebf7da64736f6c63430008110033",
  "linkReferences": {},
  "deployedLinkReferences": {}
}