{
  "_format": "hh-sol-artifact-1",
  "contractName": "BitmapClaimMock",
  "sourceName": "contracts/mocks/pointsBitmapClaimMock/BitmapClaimMock.sol",
  "abi": [
    {
      "inputs": [
        {
          "internalType": "address",
          "name": "recipient",
          "type": "address"
        },
        {
          "internalType": "uint256",
          "name": "claimBits",
          "type": "uint256"
        },
        {
          "internalType": "uint256",
          "name": "claimedBitmap",
          "type": "uint256"
        }
      ],
      "name": "AlreadyClaimed",
      "type": "error"
    },
    {
      "inputs": [
        {
          "internalType": "uint256",
          "name": "bitPosition",
          "type": "uint256"
        },
        {
          "internalType": "uint256",
          "name": "maxBitCount",
          "type": "uint256"
        }
      ],
      "name": "BitPositionTooBig",
      "type": "error"
    },
    {
      "inputs": [],
      "name": "IllegalInterfaceId",
      "type": "error"
    },
    {
      "inputs": [
        {
          "internalType": "uint256",
          "name": "claimBits",
          "type": "uint256"
        }
      ],
      "name": "InvalidClaimBits",
      "type": "error"
    },
    {
      "inputs": [
        {
          "internalType": "address",
          "name": "account",
          "type": "address"
        }
      ],
      "name": "NotContractOwner",
      "type": "error"
    },
    {
      "anonymous": false,
      "inputs": [
        {
          "indexed": false,
          "internalType": "uint256",
          "name": "bitPosition",
          "type": "uint256"
        },
        {
          "indexed": false,
          "internalType": "uint256",
          "name": "value",
          "type": "uint256"
        }
      ],
      "name": "BitPositionValueSet",
      "type": "event"
    },
    {
      "anonymous": false,
      "inputs": [
        {
          "indexed": false,
          "internalType": "address",
          "name": "recipient",
          "type": "address"
        },
        {
          "indexed": false,
          "internalType": "uint256",
          "name": "oldBitMap",
          "type": "uint256"
        },
        {
          "indexed": false,
          "internalType": "uint256",
          "name": "newBitmap",
          "type": "uint256"
        }
      ],
      "name": "BitmapUpdated",
      "type": "event"
    },
    {
      "anonymous": false,
      "inputs": [
        {
          "indexed": false,
          "internalType": "address",
          "name": "recipient",
          "type": "address"
        },
        {
          "indexed": false,
          "internalType": "uint256",
          "name": "claimBits",
          "type": "uint256"
        }
      ],
      "name": "Claimed",
      "type": "event"
    },
    {
      "anonymous": false,
      "inputs": [
        {
          "indexed": false,
          "internalType": "address",
          "name": "recipient",
          "type": "address"
        },
        {
          "indexed": false,
          "internalType": "uint256",
          "name": "amount",
          "type": "uint256"
        }
      ],
      "name": "DeliverCalled",
      "type": "event"
    },
    {
      "anonymous": false,
      "inputs": [
        {
          "indexed": true,
          "internalType": "address",
          "name": "previousOwner",
          "type": "address"
        },
        {
          "indexed": true,
          "internalType": "address",
          "name": "newOwner",
          "type": "address"
        }
      ],
      "name": "OwnershipTransferred",
      "type": "event"
    },
    {
      "anonymous": false,
      "inputs": [
        {
          "indexed": false,
          "internalType": "address",
          "name": "recipient",
          "type": "address"
        },
        {
          "indexed": false,
          "internalType": "uint256",
          "name": "claimBits",
          "type": "uint256"
        },
        {
          "indexed": false,
          "internalType": "bytes",
          "name": "validationData",
          "type": "bytes"
        }
      ],
      "name": "ValidateClaimCalled",
      "type": "event"
    },
    {
      "inputs": [
        {
          "internalType": "uint256",
          "name": "bitPosition",
          "type": "uint256"
        }
      ],
      "name": "bitPositionValueMap",
      "outputs": [
        {
          "internalType": "uint256",
          "name": "value",
          "type": "uint256"
        }
      ],
      "stateMutability": "view",
      "type": "function"
    },
    {
      "inputs": [
        {
          "internalType": "address",
          "name": "recipient",
          "type": "address"
        },
        {
          "internalType": "uint256",
          "name": "claimBits",
          "type": "uint256"
        },
        {
          "internalType": "bytes",
          "name": "validationData",
          "type": "bytes"
        }
      ],
      "name": "claim",
      "outputs": [],
      "stateMutability": "nonpayable",
      "type": "function"
    },
    {
      "inputs": [
        {
          "internalType": "address",
          "name": "recipient",
          "type": "address"
        }
      ],
      "name": "claimed",
      "outputs": [
        {
          "internalType": "uint256",
          "name": "bitmap",
          "type": "uint256"
        }
      ],
      "stateMutability": "view",
      "type": "function"
    },
    {
      "inputs": [],
      "name": "maxBitCount",
      "outputs": [
        {
          "internalType": "uint256",
          "name": "",
          "type": "uint256"
        }
      ],
      "stateMutability": "view",
      "type": "function"
    },
    {
      "inputs": [],
      "name": "owner",
      "outputs": [
        {
          "internalType": "address",
          "name": "",
          "type": "address"
        }
      ],
      "stateMutability": "view",
      "type": "function"
    },
    {
      "inputs": [
        {
          "internalType": "uint256",
          "name": "bitPosition",
          "type": "uint256"
        },
        {
          "internalType": "uint256",
          "name": "value",
          "type": "uint256"
        }
      ],
      "name": "setBitValue",
      "outputs": [],
      "stateMutability": "nonpayable",
      "type": "function"
    },
    {
      "inputs": [
        {
          "internalType": "bytes4",
          "name": "interfaceId",
          "type": "bytes4"
        }
      ],
      "name": "supportsInterface",
      "outputs": [
        {
          "internalType": "bool",
          "name": "",
          "type": "bool"
        }
      ],
      "stateMutability": "view",
      "type": "function"
    },
    {
      "inputs": [
        {
          "internalType": "address",
          "name": "newOwner",
          "type": "address"
        }
      ],
      "name": "transferOwnership",
      "outputs": [],
      "stateMutability": "nonpayable",
      "type": "function"
    }
  ],
  "bytecode": "0x608060405234801561001057600080fd5b50336100248161001e61002a565b9061005e565b5061017f565b60008061005860017fc9ed16f33ab3a66c84bfd83099ccb2a8845871e2e1c1928f63797152f0fd54cd61015e565b92915050565b6001600160a01b038116156100b45781546001600160a01b0319166001600160a01b03821690811783556040516000907f8be0079c531659141344cd1fd0a4f28419497f9722a3daafe3b4186f6b6457e0908290a35b6100d06307f5828d60e41b60016100c96100d4565b9190610102565b5050565b60008061005860017fca9d3e17f264b0f3984e2634e94adb37fa3e6a8103f06aeae6fa59e21c769f5e61015e565b600160e01b6001600160e01b0319831601610130576040516372c683bb60e01b815260040160405180910390fd5b6001600160e01b03199190911660009081526020929092526040909120805460ff1916911515919091179055565b8181038181111561005857634e487b7160e01b600052601160045260246000fd5b610a288061018e6000396000f3fe608060405234801561001057600080fd5b50600436106100885760003560e01c80638da5cb5b1161005b5780638da5cb5b146101015780638f0bc1521461012e578063c884ef8314610141578063f2fde38b1461016157600080fd5b806301ffc9a71461008d57806312a53fdd146100b55780635d35b7db146100e35780636844b019146100f8575b600080fd5b6100a061009b3660046107dd565b610174565b60405190151581526020015b60405180910390f35b6100d56100c3366004610826565b60026020526000908152604090205481565b6040519081526020016100ac565b6100f66100f136600461083f565b61018e565b005b6100d560005481565b61010961024a565b60405173ffffffffffffffffffffffffffffffffffffffff90911681526020016100ac565b6100f661013c36600461088a565b610276565b6100d561014f366004610911565b60016020526000908152604090205481565b6100f661016f366004610911565b610288565b60006101888261018261029f565b906102cd565b92915050565b6101a03361019a6103a7565b906103d5565b600054808311156101ec576040517fb09381a500000000000000000000000000000000000000000000000000000000815260048101849052602481018290526044015b60405180910390fd5b60008381526002602090815260409182902084905581518581529081018490527fc2dcdbefed2202459ea259dcfa703090c31b2825cc682c006bedeaf54be5b4bd910160405180910390a161024281600161095b565b600055505050565b60006102716102576103a7565b5473ffffffffffffffffffffffffffffffffffffffff1690565b905090565b61028284848484610444565b50505050565b61029c33826102956103a7565b9190610633565b50565b60008061018860017fca9d3e17f264b0f3984e2634e94adb37fa3e6a8103f06aeae6fa59e21c769f5e61096e565b60007c01000000000000000000000000000000000000000000000000000000007fffffffff0000000000000000000000000000000000000000000000000000000083160161031d57506000610188565b7ffe003659000000000000000000000000000000000000000000000000000000007fffffffff0000000000000000000000000000000000000000000000000000000083160161036e57506001610188565b507fffffffff00000000000000000000000000000000000000000000000000000000166000908152602091909152604090205460ff1690565b60008061018860017fc9ed16f33ab3a66c84bfd83099ccb2a8845871e2e1c1928f63797152f0fd54cd61096e565b815473ffffffffffffffffffffffffffffffffffffffff828116911614610440576040517f2ef4875e00000000000000000000000000000000000000000000000000000000815273ffffffffffffffffffffffffffffffffffffffff821660048201526024016101e3565b5050565b82158061045557506000805484901c115b1561048f576040517fb93313e4000000000000000000000000000000000000000000000000000000008152600481018490526024016101e3565b73ffffffffffffffffffffffffffffffffffffffff841660009081526001602052604090205483811615610515576040517f6508823200000000000000000000000000000000000000000000000000000000815273ffffffffffffffffffffffffffffffffffffffff8616600482015260248101859052604481018290526064016101e3565b61052185858585610747565b73ffffffffffffffffffffffffffffffffffffffff8516600081815260016020908152604091829020878517908190558251938452908301849052908201819052907fc0a92336b374372b273b5a8bc5818221d63d279d94bd12f4843377350e777f6e9060600160405180910390a16040805173ffffffffffffffffffffffffffffffffffffffff88168152602081018790527fd8138f8a3f377c5259ca548e70e4c2de94f129f5a11036a15b69513cba2b426a910160405180910390a160008054815b8181101561061e5760018816156106125760008181526002602052604090205461060f908461095b565b92505b600197881c97016105e5565b50610629888361078a565b5050505050505050565b825473ffffffffffffffffffffffffffffffffffffffff90811690831681146106a0576040517f2ef4875e00000000000000000000000000000000000000000000000000000000815273ffffffffffffffffffffffffffffffffffffffff841660048201526024016101e3565b8173ffffffffffffffffffffffffffffffffffffffff168173ffffffffffffffffffffffffffffffffffffffff16146102825783547fffffffffffffffffffffffff00000000000000000000000000000000000000001673ffffffffffffffffffffffffffffffffffffffff8381169182178655604051908316907f8be0079c531659141344cd1fd0a4f28419497f9722a3daafe3b4186f6b6457e090600090a350505050565b7f3812351176dd2adcd2263a39bad25bab4426f37a48d66be8ea439102dab3e0d48484848460405161077c9493929190610981565b60405180910390a150505050565b6040805173ffffffffffffffffffffffffffffffffffffffff84168152602081018390527f3308e36d89c0b850e8d18c22e83ac69f8d94934805de709ace474c8723388dca910160405180910390a15050565b6000602082840312156107ef57600080fd5b81357fffffffff000000000000000000000000000000000000000000000000000000008116811461081f57600080fd5b9392505050565b60006020828403121561083857600080fd5b5035919050565b6000806040838503121561085257600080fd5b50508035926020909101359150565b803573ffffffffffffffffffffffffffffffffffffffff8116811461088557600080fd5b919050565b600080600080606085870312156108a057600080fd5b6108a985610861565b935060208501359250604085013567ffffffffffffffff808211156108cd57600080fd5b818701915087601f8301126108e157600080fd5b8135818111156108f057600080fd5b88602082850101111561090257600080fd5b95989497505060200194505050565b60006020828403121561092357600080fd5b61081f82610861565b7f4e487b7100000000000000000000000000000000000000000000000000000000600052601160045260246000fd5b808201808211156101885761018861092c565b818103818111156101885761018861092c565b73ffffffffffffffffffffffffffffffffffffffff8516815283602082015260606040820152816060820152818360808301376000818301608090810191909152601f9092017fffffffffffffffffffffffffffffffffffffffffffffffffffffffffffffffe0160101939250505056fea2646970667358221220eb2016efa4ef358b86af26a7b5423a18f859a5e86b7ca37001d3f452f1de3a7c64736f6c63430008160033",
  "linkReferences": {},
  "deployedLinkReferences": {}
}