{
  "_format": "hh-sol-artifact-1",
  "contractName": "BitmapClaimMock",
  "sourceName": "contracts/mocks/pointsBitmapClaimMock/BitmapClaimMock.sol",
  "abi": [
    {
      "inputs": [
        {
          "internalType": "address",
          "name": "recipient",
          "type": "address"
        },
        {
          "internalType": "uint256",
          "name": "claimBits",
          "type": "uint256"
        },
        {
          "internalType": "uint256",
          "name": "claimedBitmap",
          "type": "uint256"
        }
      ],
      "name": "AlreadyClaimed",
      "type": "error"
    },
    {
      "inputs": [
        {
          "internalType": "uint256",
          "name": "bitPosition",
          "type": "uint256"
        },
        {
          "internalType": "uint256",
          "name": "maxBitCount",
          "type": "uint256"
        }
      ],
      "name": "BitPositionTooBig",
      "type": "error"
    },
    {
      "inputs": [],
      "name": "IllegalInterfaceId",
      "type": "error"
    },
    {
      "inputs": [
        {
          "internalType": "uint256",
          "name": "claimBits",
          "type": "uint256"
        }
      ],
      "name": "InvalidClaimBits",
      "type": "error"
    },
    {
      "inputs": [
        {
          "internalType": "address",
          "name": "account",
          "type": "address"
        }
      ],
      "name": "NotContractOwner",
      "type": "error"
    },
    {
      "anonymous": false,
      "inputs": [
        {
          "indexed": false,
          "internalType": "uint256",
          "name": "bitPosition",
          "type": "uint256"
        },
        {
          "indexed": false,
          "internalType": "uint256",
          "name": "value",
          "type": "uint256"
        }
      ],
      "name": "BitPositionValueSet",
      "type": "event"
    },
    {
      "anonymous": false,
      "inputs": [
        {
          "indexed": false,
          "internalType": "address",
          "name": "recipient",
          "type": "address"
        },
        {
          "indexed": false,
          "internalType": "uint256",
          "name": "oldBitMap",
          "type": "uint256"
        },
        {
          "indexed": false,
          "internalType": "uint256",
          "name": "newBitmap",
          "type": "uint256"
        }
      ],
      "name": "BitmapUpdated",
      "type": "event"
    },
    {
      "anonymous": false,
      "inputs": [
        {
          "indexed": false,
          "internalType": "address",
          "name": "recipient",
          "type": "address"
        },
        {
          "indexed": false,
          "internalType": "uint256",
          "name": "claimBits",
          "type": "uint256"
        }
      ],
      "name": "Claimed",
      "type": "event"
    },
    {
      "anonymous": false,
      "inputs": [
        {
          "indexed": false,
          "internalType": "address",
          "name": "recipient",
          "type": "address"
        },
        {
          "indexed": false,
          "internalType": "uint256",
          "name": "amount",
          "type": "uint256"
        }
      ],
      "name": "DeliverCalled",
      "type": "event"
    },
    {
      "anonymous": false,
      "inputs": [
        {
          "indexed": true,
          "internalType": "address",
          "name": "previousOwner",
          "type": "address"
        },
        {
          "indexed": true,
          "internalType": "address",
          "name": "newOwner",
          "type": "address"
        }
      ],
      "name": "OwnershipTransferred",
      "type": "event"
    },
    {
      "anonymous": false,
      "inputs": [
        {
          "indexed": false,
          "internalType": "address",
          "name": "recipient",
          "type": "address"
        },
        {
          "indexed": false,
          "internalType": "uint256",
          "name": "claimBits",
          "type": "uint256"
        },
        {
          "indexed": false,
          "internalType": "bytes",
          "name": "validationData",
          "type": "bytes"
        }
      ],
      "name": "ValidateClaimCalled",
      "type": "event"
    },
    {
      "inputs": [
        {
          "internalType": "uint256",
          "name": "bitPosition",
          "type": "uint256"
        }
      ],
      "name": "bitPositionValueMap",
      "outputs": [
        {
          "internalType": "uint256",
          "name": "value",
          "type": "uint256"
        }
      ],
      "stateMutability": "view",
      "type": "function"
    },
    {
      "inputs": [
        {
          "internalType": "address",
          "name": "recipient",
          "type": "address"
        },
        {
          "internalType": "uint256",
          "name": "claimBits",
          "type": "uint256"
        },
        {
          "internalType": "bytes",
          "name": "validationData",
          "type": "bytes"
        }
      ],
      "name": "claim",
      "outputs": [],
      "stateMutability": "nonpayable",
      "type": "function"
    },
    {
      "inputs": [
        {
          "internalType": "address",
          "name": "recipient",
          "type": "address"
        }
      ],
      "name": "claimed",
      "outputs": [
        {
          "internalType": "uint256",
          "name": "bitmap",
          "type": "uint256"
        }
      ],
      "stateMutability": "view",
      "type": "function"
    },
    {
      "inputs": [],
      "name": "maxBitCount",
      "outputs": [
        {
          "internalType": "uint256",
          "name": "",
          "type": "uint256"
        }
      ],
      "stateMutability": "view",
      "type": "function"
    },
    {
      "inputs": [],
      "name": "owner",
      "outputs": [
        {
          "internalType": "address",
          "name": "",
          "type": "address"
        }
      ],
      "stateMutability": "view",
      "type": "function"
    },
    {
      "inputs": [
        {
          "internalType": "uint256",
          "name": "bitPosition",
          "type": "uint256"
        },
        {
          "internalType": "uint256",
          "name": "value",
          "type": "uint256"
        }
      ],
      "name": "setBitValue",
      "outputs": [],
      "stateMutability": "nonpayable",
      "type": "function"
    },
    {
      "inputs": [
        {
          "internalType": "bytes4",
          "name": "interfaceId",
          "type": "bytes4"
        }
      ],
      "name": "supportsInterface",
      "outputs": [
        {
          "internalType": "bool",
          "name": "",
          "type": "bool"
        }
      ],
      "stateMutability": "view",
      "type": "function"
    },
    {
      "inputs": [
        {
          "internalType": "address",
          "name": "newOwner",
          "type": "address"
        }
      ],
      "name": "transferOwnership",
      "outputs": [],
      "stateMutability": "nonpayable",
      "type": "function"
    }
  ],
  "bytecode": "0x608060405234801561001057600080fd5b50336100248161001e61002a565b9061005e565b5061017f565b60008061005860017fc9ed16f33ab3a66c84bfd83099ccb2a8845871e2e1c1928f63797152f0fd54cd61015e565b92915050565b6001600160a01b038116156100b45781546001600160a01b0319166001600160a01b03821690811783556040516000907f8be0079c531659141344cd1fd0a4f28419497f9722a3daafe3b4186f6b6457e0908290a35b6100d06307f5828d60e41b60016100c96100d4565b9190610102565b5050565b60008061005860017fca9d3e17f264b0f3984e2634e94adb37fa3e6a8103f06aeae6fa59e21c769f5e61015e565b600160e01b6001600160e01b0319831601610130576040516372c683bb60e01b815260040160405180910390fd5b6001600160e01b03199190911660009081526020929092526040909120805460ff1916911515919091179055565b8181038181111561005857634e487b7160e01b600052601160045260246000fd5b610a178061018e6000396000f3fe608060405234801561001057600080fd5b50600436106100885760003560e01c80638da5cb5b1161005b5780638da5cb5b146101015780638f0bc1521461012e578063c884ef8314610141578063f2fde38b1461016157600080fd5b806301ffc9a71461008d57806312a53fdd146100b55780635d35b7db146100e35780636844b019146100f8575b600080fd5b6100a061009b3660046107cc565b610174565b60405190151581526020015b60405180910390f35b6100d56100c3366004610815565b60026020526000908152604090205481565b6040519081526020016100ac565b6100f66100f136600461082e565b61018e565b005b6100d560005481565b61010961024a565b60405173ffffffffffffffffffffffffffffffffffffffff90911681526020016100ac565b6100f661013c366004610879565b610276565b6100d561014f366004610900565b60016020526000908152604090205481565b6100f661016f366004610900565b610465565b60006101888261018261047c565b906104aa565b92915050565b6101a03361019a610584565b906105b2565b600054808311156101ec576040517fb09381a500000000000000000000000000000000000000000000000000000000815260048101849052602481018290526044015b60405180910390fd5b60008381526002602090815260409182902084905581518581529081018490527fc2dcdbefed2202459ea259dcfa703090c31b2825cc682c006bedeaf54be5b4bd910160405180910390a161024281600161094a565b600055505050565b6000610271610257610584565b5473ffffffffffffffffffffffffffffffffffffffff1690565b905090565b82158061028757506000805484901c115b156102c1576040517fb93313e4000000000000000000000000000000000000000000000000000000008152600481018490526024016101e3565b73ffffffffffffffffffffffffffffffffffffffff841660009081526001602052604090205483811615610347576040517f6508823200000000000000000000000000000000000000000000000000000000815273ffffffffffffffffffffffffffffffffffffffff8616600482015260248101859052604481018290526064016101e3565b61035385858585610621565b73ffffffffffffffffffffffffffffffffffffffff8516600081815260016020908152604091829020878517908190558251938452908301849052908201819052907fc0a92336b374372b273b5a8bc5818221d63d279d94bd12f4843377350e777f6e9060600160405180910390a16040805173ffffffffffffffffffffffffffffffffffffffff88168152602081018790527fd8138f8a3f377c5259ca548e70e4c2de94f129f5a11036a15b69513cba2b426a910160405180910390a160008054815b8181101561045057600188161561044457600081815260026020526040902054610441908461094a565b92505b600197881c9701610417565b5061045b8883610664565b5050505050505050565b6104793382610472610584565b91906106b7565b50565b60008061018860017fca9d3e17f264b0f3984e2634e94adb37fa3e6a8103f06aeae6fa59e21c769f5e61095d565b60007c01000000000000000000000000000000000000000000000000000000007fffffffff000000000000000000000000000000000000000000000000000000008316016104fa57506000610188565b7ffe003659000000000000000000000000000000000000000000000000000000007fffffffff0000000000000000000000000000000000000000000000000000000083160161054b57506001610188565b507fffffffff00000000000000000000000000000000000000000000000000000000166000908152602091909152604090205460ff1690565b60008061018860017fc9ed16f33ab3a66c84bfd83099ccb2a8845871e2e1c1928f63797152f0fd54cd61095d565b815473ffffffffffffffffffffffffffffffffffffffff82811691161461061d576040517f2ef4875e00000000000000000000000000000000000000000000000000000000815273ffffffffffffffffffffffffffffffffffffffff821660048201526024016101e3565b5050565b7f3812351176dd2adcd2263a39bad25bab4426f37a48d66be8ea439102dab3e0d4848484846040516106569493929190610970565b60405180910390a150505050565b6040805173ffffffffffffffffffffffffffffffffffffffff84168152602081018390527f3308e36d89c0b850e8d18c22e83ac69f8d94934805de709ace474c8723388dca910160405180910390a15050565b825473ffffffffffffffffffffffffffffffffffffffff9081169083168114610724576040517f2ef4875e00000000000000000000000000000000000000000000000000000000815273ffffffffffffffffffffffffffffffffffffffff841660048201526024016101e3565b8173ffffffffffffffffffffffffffffffffffffffff168173ffffffffffffffffffffffffffffffffffffffff16146107c65783547fffffffffffffffffffffffff00000000000000000000000000000000000000001673ffffffffffffffffffffffffffffffffffffffff8381169182178655604051908316907f8be0079c531659141344cd1fd0a4f28419497f9722a3daafe3b4186f6b6457e090600090a35b50505050565b6000602082840312156107de57600080fd5b81357fffffffff000000000000000000000000000000000000000000000000000000008116811461080e57600080fd5b9392505050565b60006020828403121561082757600080fd5b5035919050565b6000806040838503121561084157600080fd5b50508035926020909101359150565b803573ffffffffffffffffffffffffffffffffffffffff8116811461087457600080fd5b919050565b6000806000806060858703121561088f57600080fd5b61089885610850565b935060208501359250604085013567ffffffffffffffff808211156108bc57600080fd5b818701915087601f8301126108d057600080fd5b8135818111156108df57600080fd5b8860208285010111156108f157600080fd5b95989497505060200194505050565b60006020828403121561091257600080fd5b61080e82610850565b7f4e487b7100000000000000000000000000000000000000000000000000000000600052601160045260246000fd5b808201808211156101885761018861091b565b818103818111156101885761018861091b565b73ffffffffffffffffffffffffffffffffffffffff8516815283602082015260606040820152816060820152818360808301376000818301608090810191909152601f9092017fffffffffffffffffffffffffffffffffffffffffffffffffffffffffffffffe0160101939250505056fea26469706673582212208b0bf89170a4bd09eea23b730203cf2f181d63d657a156df8bbcc9beeda86fdb64736f6c63430008160033",
  "linkReferences": {},
  "deployedLinkReferences": {}
}