{
  "_format": "hh-sol-artifact-1",
  "contractName": "RNGProvider",
  "sourceName": "contracts/rng/RNGProvider.sol",
  "abi": [
    {
      "inputs": [
        {
          "internalType": "address",
          "name": "signer_",
          "type": "address"
        }
      ],
      "stateMutability": "nonpayable",
      "type": "constructor"
    },
    {
      "inputs": [
        {
          "internalType": "address",
          "name": "consumer",
          "type": "address"
        }
      ],
      "name": "ConsumerNotWhitelisted",
      "type": "error"
    },
    {
      "inputs": [],
      "name": "ECDSAInvalidSignature",
      "type": "error"
    },
    {
      "inputs": [
        {
          "internalType": "uint256",
          "name": "length",
          "type": "uint256"
        }
      ],
      "name": "ECDSAInvalidSignatureLength",
      "type": "error"
    },
    {
      "inputs": [
        {
          "internalType": "bytes32",
          "name": "s",
          "type": "bytes32"
        }
      ],
      "name": "ECDSAInvalidSignatureS",
      "type": "error"
    },
    {
      "inputs": [],
      "name": "IllegalInterfaceId",
      "type": "error"
    },
    {
      "inputs": [],
      "name": "InvalidShortString",
      "type": "error"
    },
    {
      "inputs": [],
      "name": "InvalidSignature",
      "type": "error"
    },
    {
      "inputs": [
        {
          "internalType": "address",
          "name": "account",
          "type": "address"
        }
      ],
      "name": "NotContractOwner",
      "type": "error"
    },
    {
      "inputs": [
        {
          "internalType": "uint256",
          "name": "requestId",
          "type": "uint256"
        }
      ],
      "name": "RequestAlreadyFulfilled",
      "type": "error"
    },
    {
      "inputs": [
        {
          "internalType": "string",
          "name": "str",
          "type": "string"
        }
      ],
      "name": "StringTooLong",
      "type": "error"
    },
    {
      "inputs": [
        {
          "internalType": "uint256",
          "name": "requestId",
          "type": "uint256"
        }
      ],
      "name": "UnknownRequestId",
      "type": "error"
    },
    {
      "inputs": [
        {
          "internalType": "uint256",
          "name": "expected",
          "type": "uint256"
        },
        {
          "internalType": "uint256",
          "name": "actual",
          "type": "uint256"
        }
      ],
      "name": "WrongRandomWordsCount",
      "type": "error"
    },
    {
      "anonymous": false,
      "inputs": [
        {
          "indexed": false,
          "internalType": "address",
          "name": "consumer",
          "type": "address"
        },
        {
          "indexed": false,
          "internalType": "bool",
          "name": "whitelisted",
          "type": "bool"
        }
      ],
      "name": "ConsumerWhitelistingUpdated",
      "type": "event"
    },
    {
      "anonymous": false,
      "inputs": [],
      "name": "EIP712DomainChanged",
      "type": "event"
    },
    {
      "anonymous": false,
      "inputs": [
        {
          "indexed": true,
          "internalType": "address",
          "name": "previousOwner",
          "type": "address"
        },
        {
          "indexed": true,
          "internalType": "address",
          "name": "newOwner",
          "type": "address"
        }
      ],
      "name": "OwnershipTransferred",
      "type": "event"
    },
    {
      "anonymous": false,
      "inputs": [
        {
          "indexed": false,
          "internalType": "address",
          "name": "consumer",
          "type": "address"
        },
        {
          "indexed": false,
          "internalType": "uint256",
          "name": "requestId",
          "type": "uint256"
        },
        {
          "indexed": false,
          "internalType": "uint256[]",
          "name": "randomWords",
          "type": "uint256[]"
        }
      ],
      "name": "RandomnessFulfilled",
      "type": "event"
    },
    {
      "anonymous": false,
      "inputs": [
        {
          "indexed": false,
          "internalType": "address",
          "name": "consumer",
          "type": "address"
        },
        {
          "indexed": false,
          "internalType": "uint256",
          "name": "requestId",
          "type": "uint256"
        },
        {
          "indexed": false,
          "internalType": "uint32",
          "name": "numWords",
          "type": "uint32"
        }
      ],
      "name": "RandomnessRequested",
      "type": "event"
    },
    {
      "anonymous": false,
      "inputs": [
        {
          "indexed": false,
          "internalType": "address",
          "name": "newSigner",
          "type": "address"
        }
      ],
      "name": "SignerSet",
      "type": "event"
    },
    {
      "inputs": [],
      "name": "FULFILL_RANDOMNESS_TYPEHASH",
      "outputs": [
        {
          "internalType": "bytes32",
          "name": "",
          "type": "bytes32"
        }
      ],
      "stateMutability": "view",
      "type": "function"
    },
    {
      "inputs": [
        {
          "internalType": "address",
          "name": "consumer",
          "type": "address"
        }
      ],
      "name": "consumersWhitelist",
      "outputs": [
        {
          "internalType": "bool",
          "name": "",
          "type": "bool"
        }
      ],
      "stateMutability": "view",
      "type": "function"
    },
    {
      "inputs": [],
      "name": "eip712Domain",
      "outputs": [
        {
          "internalType": "bytes1",
          "name": "fields",
          "type": "bytes1"
        },
        {
          "internalType": "string",
          "name": "name",
          "type": "string"
        },
        {
          "internalType": "string",
          "name": "version",
          "type": "string"
        },
        {
          "internalType": "uint256",
          "name": "chainId",
          "type": "uint256"
        },
        {
          "internalType": "address",
          "name": "verifyingContract",
          "type": "address"
        },
        {
          "internalType": "bytes32",
          "name": "salt",
          "type": "bytes32"
        },
        {
          "internalType": "uint256[]",
          "name": "extensions",
          "type": "uint256[]"
        }
      ],
      "stateMutability": "view",
      "type": "function"
    },
    {
      "inputs": [
        {
          "internalType": "uint256",
          "name": "requestId",
          "type": "uint256"
        },
        {
          "internalType": "uint256[]",
          "name": "randomWords",
          "type": "uint256[]"
        },
        {
          "internalType": "bytes",
          "name": "signature",
          "type": "bytes"
        }
      ],
      "name": "fulfillRandomness",
      "outputs": [],
      "stateMutability": "nonpayable",
      "type": "function"
    },
    {
      "inputs": [],
      "name": "nonce",
      "outputs": [
        {
          "internalType": "uint256",
          "name": "",
          "type": "uint256"
        }
      ],
      "stateMutability": "view",
      "type": "function"
    },
    {
      "inputs": [],
      "name": "owner",
      "outputs": [
        {
          "internalType": "address",
          "name": "",
          "type": "address"
        }
      ],
      "stateMutability": "view",
      "type": "function"
    },
    {
      "inputs": [
        {
          "internalType": "uint256",
          "name": "requestId",
          "type": "uint256"
        }
      ],
      "name": "requestDetails",
      "outputs": [
        {
          "components": [
            {
              "internalType": "address",
              "name": "consumer",
              "type": "address"
            },
            {
              "internalType": "bool",
              "name": "fulfilled",
              "type": "bool"
            },
            {
              "internalType": "uint32",
              "name": "numWords",
              "type": "uint32"
            },
            {
              "internalType": "uint256[]",
              "name": "randomWords",
              "type": "uint256[]"
            }
          ],
          "internalType": "struct IRNGProvider.RequestDetails",
          "name": "",
          "type": "tuple"
        }
      ],
      "stateMutability": "view",
      "type": "function"
    },
    {
      "inputs": [
        {
          "internalType": "uint32",
          "name": "numWords",
          "type": "uint32"
        }
      ],
      "name": "requestRandomness",
      "outputs": [
        {
          "internalType": "uint256",
          "name": "requestId",
          "type": "uint256"
        }
      ],
      "stateMutability": "nonpayable",
      "type": "function"
    },
    {
      "inputs": [
        {
          "internalType": "address",
          "name": "signer_",
          "type": "address"
        }
      ],
      "name": "setSigner",
      "outputs": [],
      "stateMutability": "nonpayable",
      "type": "function"
    },
    {
      "inputs": [],
      "name": "signer",
      "outputs": [
        {
          "internalType": "address",
          "name": "",
          "type": "address"
        }
      ],
      "stateMutability": "view",
      "type": "function"
    },
    {
      "inputs": [
        {
          "internalType": "bytes4",
          "name": "interfaceId",
          "type": "bytes4"
        }
      ],
      "name": "supportsInterface",
      "outputs": [
        {
          "internalType": "bool",
          "name": "",
          "type": "bool"
        }
      ],
      "stateMutability": "view",
      "type": "function"
    },
    {
      "inputs": [
        {
          "internalType": "address",
          "name": "newOwner",
          "type": "address"
        }
      ],
      "name": "transferOwnership",
      "outputs": [],
      "stateMutability": "nonpayable",
      "type": "function"
    },
    {
      "inputs": [
        {
          "internalType": "address",
          "name": "consumer",
          "type": "address"
        },
        {
          "internalType": "bool",
          "name": "whitelisted",
          "type": "bool"
        }
      ],
      "name": "whitelistConsumer",
      "outputs": [],
      "stateMutability": "nonpayable",
      "type": "function"
    }
  ],
  "bytecode": "0x610160806040523461023c57602081611daa80380380916100208285610241565b83398101031261023c57516001600160a01b0381169081900361023c5760207f9eaa897564d022fb8c5efaf0acdb5d9d27b440b2aad44400b6e1c702e65b9ed39160405161006f604082610241565b600b8152828101906a292723a83937bb34b232b960a91b825260405191610097604084610241565b6001835284830191603160f81b8352336101dd575b6307f5828d60e41b60009081527fca9d3e17f264b0f3984e2634e94adb37fa3e6a8103f06aeae6fa59e21c769f5d875260409020805460ff191660011790556100f48161027a565b610120526101018461043c565b61014052519020918260e05251902080610100524660a05260405190848201927f8b73c3c69bb8fe3d512ecc4cf759cc79239f7b179b0ffacaa9a75d522b39400f8452604083015260608201524660808201523060a082015260a0815261016960c082610241565b5190206080523060c052600280546001600160a01b03191682179055604051908152a16040516117cf90816105db8239608051816114ec015260a051816115a9015260c051816114bd015260e0518161153b01526101005181611561015261012051816108cb015261014051816108f50152f35b7fc9ed16f33ab3a66c84bfd83099ccb2a8845871e2e1c1928f63797152f0fd54cc80546001600160a01b0319163390811790915560007f8be0079c531659141344cd1fd0a4f28419497f9722a3daafe3b4186f6b6457e08180a36100ac565b600080fd5b601f909101601f19168101906001600160401b0382119082101761026457604052565b634e487b7160e01b600052604160045260246000fd5b90815160208110600014610312575090601f8151116102b65760208151910151602082106102a6571790565b6000198260200360031b1b161790565b6040519063305a27a960e01b8252602060048301528181519182602483015260005b8381106102fa5750508160006044809484010152601f80199101168101030190fd5b602082820181015160448784010152859350016102d8565b6001600160401b03811161026457600054600181811c91168015610432575b602082101461041c57601f81116103e7575b50602092601f82116001146103835792819293600092610378575b50508160011b916000199060031b1c19161760005560ff90565b01519050388061035e565b601f1982169360008052806000209160005b8681106103cf57508360019596106103b6575b505050811b0160005560ff90565b015160001960f88460031b161c191690553880806103a8565b91926020600181928685015181550194019201610395565b60008052601f6020600020910160051c810190601f830160051c015b8181106104105750610343565b60008155600101610403565b634e487b7160e01b600052602260045260246000fd5b90607f1690610331565b908151602081106000146104c4575090601f8151116104685760208151910151602082106102a6571790565b6040519063305a27a960e01b8252602060048301528181519182602483015260005b8381106104ac5750508160006044809484010152601f80199101168101030190fd5b6020828201810151604487840101528593500161048a565b6001600160401b03811161026457600154600181811c911680156105d0575b602082101461041c57601f811161059a575b50602092601f8211600114610535579281929360009261052a575b50508160011b916000199060031b1c19161760015560ff90565b015190503880610510565b601f198216936001600052806000209160005b8681106105825750836001959610610569575b505050811b0160015560ff90565b015160001960f88460031b161c1916905538808061055b565b91926020600181928685015181550194019201610548565b6001600052601f6020600020910160051c810190601f830160051c015b8181106105c457506104f5565b600081556001016105b7565b90607f16906104e356fe6080604052600436101561001257600080fd5b6000803560e01c806301ffc9a714610f4c57806303023cb014610e1a578063238ac93314610dc85780633ea4e89f14610d605780636c19e78314610c4e578063811ee32a1461099957806384b0196e146108905780638da5cb5b1461081e578063a63977e8146103a5578063affed0e014610369578063c2ba131614610222578063f2fde38b146101075763f59004ac146100ac57600080fd5b3461010457807ffffffffffffffffffffffffffffffffffffffffffffffffffffffffffffffffc3601126101045760206040517f123e1b8ff0f01a76b0890aa95e802a13651a2f2241536e36f7924cafa6cc918f8152f35b80fd5b50346101045760207ffffffffffffffffffffffffffffffffffffffffffffffffffffffffffffffffc3601126101045761013f610fbe565b7fc9ed16f33ab3a66c84bfd83099ccb2a8845871e2e1c1928f63797152f0fd54cc9073ffffffffffffffffffffffffffffffffffffffff825416908133036101f65773ffffffffffffffffffffffffffffffffffffffff16918282036101a3578380f35b827fffffffffffffffffffffffff00000000000000000000000000000000000000008254161790557f8be0079c531659141344cd1fd0a4f28419497f9722a3daafe3b4186f6b6457e08380a33880808380f35b6024847f2ef4875e00000000000000000000000000000000000000000000000000000000815233600452fd5b50346101045760207ffffffffffffffffffffffffffffffffffffffffffffffffffffffffffffffffc3601126101045760608060405161026181611079565b838152836020820152836040820152015260043581526004602052604081206040519061028d82611079565b80549073ffffffffffffffffffffffffffffffffffffffff821683526001602084019160ff8460a01c161515835263ffffffff604086019460a81c16845201604051948560208354918281520192825260208220915b8181106103535773ffffffffffffffffffffffffffffffffffffffff8761034f8a63ffffffff8a8a610317848c03856110c4565b6060860193845260405196879660208852511660208701525115156040860152511660608401525160808084015260a0830190611045565b0390f35b82548452602090930192600192830192016102e3565b503461010457807ffffffffffffffffffffffffffffffffffffffffffffffffffffffffffffffffc360112610104576020600354604051908152f35b50346101045760607ffffffffffffffffffffffffffffffffffffffffffffffffffffffffffffffffc360112610104576024359060043567ffffffffffffffff831161081a573660238401121561081a5782600401359067ffffffffffffffff82116108165760248401938260051b906024823692010111610742576044359067ffffffffffffffff821161081257366023830112156108125781600401359067ffffffffffffffff821161080e57366024838501011161080e5760405160208101917f07ffffffffffffffffffffffffffffffffffffffffffffffffffffffffffffff871161080a576020604284846104d9846105a999978f978f9881906105b29e9c37810103017fffffffffffffffffffffffffffffffffffffffffffffffffffffffffffffffe081018352826110c4565b519020604051838101917f123e1b8ff0f01a76b0890aa95e802a13651a2f2241536e36f7924cafa6cc918f83528a60408301526060820152606081526105206080826110c4565b51902061052b6114a6565b90604051917f19010000000000000000000000000000000000000000000000000000000000008352600283015260228201522092806024837fffffffffffffffffffffffffffffffffffffffffffffffffffffffffffffffe0601f840116019661059860405198896110c4565b8288520183870137840101526115cf565b9092919261160b565b73ffffffffffffffffffffffffffffffffffffffff80600254169116036107e2578083526004602052604083209384549473ffffffffffffffffffffffffffffffffffffffff86169586156107b65760ff8160a01c1661078a5763ffffffff8160a81c1680860361075a57507fffffffffffffffffffffff00ffffffffffffffffffffffffffffffffffffffff1674010000000000000000000000000000000000000000178155600101946106678487611105565b819585526020852095855b858110610746575050908492917f6870d85142100fc9ecb72349b31a1149efd9729882d1e0d6fced0f49f500a49060405182815284602082015260606040820152806106c260608201898761114d565b0390a1803b156107425761071694848094604051978895869485937f08868017000000000000000000000000000000000000000000000000000000008552600485015260406024850152604484019161114d565b03925af18015610735576107275780f35b610730916110c4565b818180f35b50604051903d90823e3d90fd5b8380fd5b60019060208335930192818a015501610672565b86866044927f79de5016000000000000000000000000000000000000000000000000000000008352600452602452fd5b602486857f502746dc000000000000000000000000000000000000000000000000000000008252600452fd5b602486857f597349fa000000000000000000000000000000000000000000000000000000008252600452fd5b6004837f8baa579f000000000000000000000000000000000000000000000000000000008152fd5b8780fd5b8580fd5b8480fd5b8280fd5b5080fd5b503461010457807ffffffffffffffffffffffffffffffffffffffffffffffffffffffffffffffffc3601126101045750602073ffffffffffffffffffffffffffffffffffffffff7fc9ed16f33ab3a66c84bfd83099ccb2a8845871e2e1c1928f63797152f0fd54cc5416604051908152f35b503461010457807ffffffffffffffffffffffffffffffffffffffffffffffffffffffffffffffffc3601126101045761096c9061034f6108ef7f0000000000000000000000000000000000000000000000000000000000000000611239565b916109197f00000000000000000000000000000000000000000000000000000000000000006113d4565b61097a6040519161092b6020846110c4565b838352833681376040519687967f0f00000000000000000000000000000000000000000000000000000000000000885260e0602089015260e0880190610fe6565b908682036040880152610fe6565b9146606086015230608086015260a085015283820360c0850152611045565b50346101045760207ffffffffffffffffffffffffffffffffffffffffffffffffffffffffffffffffc3601126101045760043563ffffffff81169081810361081657338352600560205260ff60408420541615610c22576003547fffffffffffffffffffffffffffffffffffffffffffffffffffffffffffffffff8114610bf55760018101600355604051907fffffffff0000000000000000000000000000000000000000000000000000000060208301933360601b855260e01b166034830152603882015260388152610a6e6058826110c4565b51902090602092604051610a8285826110c4565b818152813681376001604051610a9781611079565b33815286810184815260408083018781526060840195865288875260048a5290862092518354925191517fffffffffffffff0000000000000000000000000000000000000000000000000090931673ffffffffffffffffffffffffffffffffffffffff919091161790151560a01b74ff0000000000000000000000000000000000000000161760a89190911b78ffffffff000000000000000000000000000000000000000000161781559151805193919092019167ffffffffffffffff8411610bc8578690610b668585611105565b01918152858120905b838110610bb65786867f882c51d5a420dfc735d422d8f6b552de6c09bde6a5e8a875a920bb0f744695c36060886040519033825284868301526040820152a1604051908152f35b82518282015591860191600101610b6f565b6024827f4e487b710000000000000000000000000000000000000000000000000000000081526041600452fd5b6024847f4e487b710000000000000000000000000000000000000000000000000000000081526011600452fd5b6024837f75a31e5b00000000000000000000000000000000000000000000000000000000815233600452fd5b50346101045760207ffffffffffffffffffffffffffffffffffffffffffffffffffffffffffffffffc36011261010457610c86610fbe565b7fc9ed16f33ab3a66c84bfd83099ccb2a8845871e2e1c1928f63797152f0fd54cc54339073ffffffffffffffffffffffffffffffffffffffff168103610d355750602073ffffffffffffffffffffffffffffffffffffffff7f9eaa897564d022fb8c5efaf0acdb5d9d27b440b2aad44400b6e1c702e65b9ed39216807fffffffffffffffffffffffff00000000000000000000000000000000000000006002541617600255604051908152a180f35b7f2ef4875e000000000000000000000000000000000000000000000000000000008352600452602482fd5b50346101045760207ffffffffffffffffffffffffffffffffffffffffffffffffffffffffffffffffc3601126101045760ff604060209273ffffffffffffffffffffffffffffffffffffffff610db4610fbe565b168152600584522054166040519015158152f35b503461010457807ffffffffffffffffffffffffffffffffffffffffffffffffffffffffffffffffc36011261010457602073ffffffffffffffffffffffffffffffffffffffff60025416604051908152f35b50346101045760407ffffffffffffffffffffffffffffffffffffffffffffffffffffffffffffffffc36011261010457610e52610fbe565b60243590811515809203610816577fc9ed16f33ab3a66c84bfd83099ccb2a8845871e2e1c1928f63797152f0fd54cc54339073ffffffffffffffffffffffffffffffffffffffff168103610f2157507f266f709e02e4bce76491c97f12cc8c92876197a4ab963cc85f83712d9096cec39173ffffffffffffffffffffffffffffffffffffffff604092169081855260056020528285207fffffffffffffffffffffffffffffffffffffffffffffffffffffffffffffff0081541660ff831617905582519182526020820152a180f35b7f2ef4875e000000000000000000000000000000000000000000000000000000008452600452602483fd5b50346101045760207ffffffffffffffffffffffffffffffffffffffffffffffffffffffffffffffffc36011261010457600435907fffffffff0000000000000000000000000000000000000000000000000000000082168203610104576020610fb48361118a565b6040519015158152f35b6004359073ffffffffffffffffffffffffffffffffffffffff82168203610fe157565b600080fd5b919082519283825260005b8481106110305750507fffffffffffffffffffffffffffffffffffffffffffffffffffffffffffffffe0601f8460006020809697860101520116010190565b80602080928401015182828601015201610ff1565b906020808351928381520192019060005b8181106110635750505090565b8251845260209384019390920191600101611056565b6080810190811067ffffffffffffffff82111761109557604052565b7f4e487b7100000000000000000000000000000000000000000000000000000000600052604160045260246000fd5b90601f7fffffffffffffffffffffffffffffffffffffffffffffffffffffffffffffffe0910116810190811067ffffffffffffffff82111761109557604052565b906801000000000000000081116110955781549181815582821061112857505050565b600052602060002091820191015b818110611141575050565b60008155600101611136565b90918281527f07ffffffffffffffffffffffffffffffffffffffffffffffffffffffffffffff8311610fe15760209260051b809284830137010190565b7fffffffff00000000000000000000000000000000000000000000000000000000167fffffffff000000000000000000000000000000000000000000000000000000008114611233577f01ffc9a700000000000000000000000000000000000000000000000000000000811461122d576000527fca9d3e17f264b0f3984e2634e94adb37fa3e6a8103f06aeae6fa59e21c769f5d60205260ff6040600020541690565b50600190565b50600090565b60ff81146112bb5760ff811690601f821161129157604080519261125d82856110c4565b602084527fffffffffffffffffffffffffffffffffffffffffffffffffffffffffffffffe060208501920136833783525290565b7fb3512b0c0000000000000000000000000000000000000000000000000000000060005260046000fd5b5060405160008054908160011c916001811680156113ca575b60208410811461139d5783855284929181156113605750600114611302575b6112ff925003826110c4565b90565b50600080805290917f290decd9548b62a8d60345a988386fc84ba6bc95484008f6362f93160ef3e5635b8183106113445750509060206112ff928201016112f3565b602091935080600191548385880101520191019091839261132c565b602092506112ff9491507fffffffffffffffffffffffffffffffffffffffffffffffffffffffffffffff001682840152151560051b8201016112f3565b6024837f4e487b710000000000000000000000000000000000000000000000000000000081526022600452fd5b92607f16926112d4565b60ff81146113f85760ff811690601f821161129157604080519261125d82856110c4565b506040516000600154908160011c9160018116801561149c575b60208410811461139d578385528492918115611360575060011461143c576112ff925003826110c4565b506001600090815290917fb10e2d527612073b26eecdfd717e6a320cf44b4afac2b0732d9fcbe2b7fa0cf65b8183106114805750509060206112ff928201016112f3565b6020919350806001915483858801015201910190918392611468565b92607f1692611412565b73ffffffffffffffffffffffffffffffffffffffff7f0000000000000000000000000000000000000000000000000000000000000000163014806115a6575b1561150e577f000000000000000000000000000000000000000000000000000000000000000090565b60405160208101907f8b73c3c69bb8fe3d512ecc4cf759cc79239f7b179b0ffacaa9a75d522b39400f82527f000000000000000000000000000000000000000000000000000000000000000060408201527f000000000000000000000000000000000000000000000000000000000000000060608201524660808201523060a082015260a081526115a060c0826110c4565b51902090565b507f000000000000000000000000000000000000000000000000000000000000000046146114e5565b8151919060418303611600576115f992506020820151906060604084015193015160001a906116f7565b9192909190565b505060009160029190565b91909160048110156116c8578061162157509050565b600060018203611655577ff645eedf0000000000000000000000000000000000000000000000000000000060005260046000fd5b506002810361168c57827ffce698f70000000000000000000000000000000000000000000000000000000060005260045260246000fd5b909160036000921461169c575050565b602492507fd78bce0c000000000000000000000000000000000000000000000000000000008252600452fd5b7f4e487b7100000000000000000000000000000000000000000000000000000000600052602160045260246000fd5b91907f7fffffffffffffffffffffffffffffff5d576e7357a4501ddfe92f46681b20a0841161178d579160209360809260ff60009560405194855216868401526040830152606082015282805260015afa156117815760005173ffffffffffffffffffffffffffffffffffffffff8116156117755790600090600090565b50600090600190600090565b6040513d6000823e3d90fd5b5050506000916003919056fea264697066735822122040a932ec69e304533803e89ca9539631fdd896a9b38a9ae89bea47507a5908ff64736f6c634300081e0033",
  "linkReferences": {},
  "deployedLinkReferences": {}
}