{
  "_format": "hh-sol-artifact-1",
  "contractName": "PointsBitmapClaimMock",
  "sourceName": "contracts/mocks/bitmapClaim/PointsBitmapClaimMock.sol",
  "abi": [
    {
      "inputs": [
        {
          "internalType": "address",
          "name": "pointsContractAddress",
          "type": "address"
        },
        {
          "internalType": "contract IForwarderRegistry",
          "name": "forwarderRegistry_",
          "type": "address"
        },
        {
          "internalType": "bytes32",
          "name": "depositReasonCode",
          "type": "bytes32"
        },
        {
          "internalType": "address",
          "name": "_signer",
          "type": "address"
        }
      ],
      "stateMutability": "nonpayable",
      "type": "constructor"
    },
    {
      "inputs": [
        {
          "internalType": "address",
          "name": "recipient",
          "type": "address"
        },
        {
          "internalType": "uint256",
          "name": "claimBits",
          "type": "uint256"
        },
        {
          "internalType": "uint256",
          "name": "claimedBitmap",
          "type": "uint256"
        }
      ],
      "name": "AlreadyClaimed",
      "type": "error"
    },
    {
      "inputs": [
        {
          "internalType": "uint256",
          "name": "claimBitPosition",
          "type": "uint256"
        }
      ],
      "name": "DuplicateClaimBit",
      "type": "error"
    },
    {
      "inputs": [],
      "name": "IllegalInterfaceId",
      "type": "error"
    },
    {
      "inputs": [
        {
          "internalType": "uint256",
          "name": "claimBits",
          "type": "uint256"
        },
        {
          "internalType": "uint256",
          "name": "maxBitCount",
          "type": "uint256"
        }
      ],
      "name": "InvalidBitPosition",
      "type": "error"
    },
    {
      "inputs": [],
      "name": "InvalidForwarderRegistry",
      "type": "error"
    },
    {
      "inputs": [],
      "name": "InvalidPointsContractAddress",
      "type": "error"
    },
    {
      "inputs": [],
      "name": "InvalidSignature",
      "type": "error"
    },
    {
      "inputs": [
        {
          "internalType": "address",
          "name": "account",
          "type": "address"
        }
      ],
      "name": "NotContractOwner",
      "type": "error"
    },
    {
      "inputs": [
        {
          "internalType": "address",
          "name": "signer",
          "type": "address"
        }
      ],
      "name": "SignerAlreadySet",
      "type": "error"
    },
    {
      "inputs": [],
      "name": "ZeroLengthClaimBitPositions",
      "type": "error"
    },
    {
      "anonymous": false,
      "inputs": [
        {
          "indexed": false,
          "internalType": "uint256",
          "name": "bitPosition",
          "type": "uint256"
        },
        {
          "indexed": false,
          "internalType": "uint256",
          "name": "value",
          "type": "uint256"
        }
      ],
      "name": "BitValueAdded",
      "type": "event"
    },
    {
      "anonymous": false,
      "inputs": [
        {
          "indexed": false,
          "internalType": "address",
          "name": "recipient",
          "type": "address"
        },
        {
          "indexed": false,
          "internalType": "uint256",
          "name": "oldBitmap",
          "type": "uint256"
        },
        {
          "indexed": false,
          "internalType": "uint256",
          "name": "newBitmap",
          "type": "uint256"
        }
      ],
      "name": "Claimed",
      "type": "event"
    },
    {
      "anonymous": false,
      "inputs": [
        {
          "indexed": true,
          "internalType": "address",
          "name": "previousOwner",
          "type": "address"
        },
        {
          "indexed": true,
          "internalType": "address",
          "name": "newOwner",
          "type": "address"
        }
      ],
      "name": "OwnershipTransferred",
      "type": "event"
    },
    {
      "anonymous": false,
      "inputs": [
        {
          "indexed": false,
          "internalType": "address",
          "name": "signer",
          "type": "address"
        }
      ],
      "name": "SignerSet",
      "type": "event"
    },
    {
      "inputs": [],
      "name": "DEPOSIT_REASON_CODE",
      "outputs": [
        {
          "internalType": "bytes32",
          "name": "",
          "type": "bytes32"
        }
      ],
      "stateMutability": "view",
      "type": "function"
    },
    {
      "inputs": [],
      "name": "POINTS",
      "outputs": [
        {
          "internalType": "contract IPoints",
          "name": "",
          "type": "address"
        }
      ],
      "stateMutability": "view",
      "type": "function"
    },
    {
      "inputs": [
        {
          "internalType": "address",
          "name": "recipient",
          "type": "address"
        },
        {
          "internalType": "uint256",
          "name": "amount",
          "type": "uint256"
        }
      ],
      "name": "__deliver",
      "outputs": [],
      "stateMutability": "nonpayable",
      "type": "function"
    },
    {
      "inputs": [],
      "name": "__msgData",
      "outputs": [
        {
          "internalType": "bytes",
          "name": "",
          "type": "bytes"
        }
      ],
      "stateMutability": "view",
      "type": "function"
    },
    {
      "inputs": [],
      "name": "__msgSender",
      "outputs": [
        {
          "internalType": "address",
          "name": "",
          "type": "address"
        }
      ],
      "stateMutability": "view",
      "type": "function"
    },
    {
      "inputs": [
        {
          "internalType": "address",
          "name": "recipient",
          "type": "address"
        },
        {
          "internalType": "uint256[]",
          "name": "claimBitPositions",
          "type": "uint256[]"
        },
        {
          "internalType": "bytes",
          "name": "validationData",
          "type": "bytes"
        }
      ],
      "name": "__validateClaim",
      "outputs": [],
      "stateMutability": "view",
      "type": "function"
    },
    {
      "inputs": [
        {
          "internalType": "uint256",
          "name": "value",
          "type": "uint256"
        }
      ],
      "name": "addBitValue",
      "outputs": [],
      "stateMutability": "nonpayable",
      "type": "function"
    },
    {
      "inputs": [
        {
          "internalType": "uint256",
          "name": "bitPosition",
          "type": "uint256"
        }
      ],
      "name": "bitPositionValueMap",
      "outputs": [
        {
          "internalType": "uint256",
          "name": "value",
          "type": "uint256"
        }
      ],
      "stateMutability": "view",
      "type": "function"
    },
    {
      "inputs": [
        {
          "internalType": "address",
          "name": "recipient",
          "type": "address"
        },
        {
          "internalType": "uint256[]",
          "name": "claimBitPositions",
          "type": "uint256[]"
        },
        {
          "internalType": "bytes",
          "name": "validationData",
          "type": "bytes"
        }
      ],
      "name": "claim",
      "outputs": [],
      "stateMutability": "nonpayable",
      "type": "function"
    },
    {
      "inputs": [
        {
          "internalType": "address",
          "name": "recipient",
          "type": "address"
        }
      ],
      "name": "claimed",
      "outputs": [
        {
          "internalType": "uint256",
          "name": "bitmap",
          "type": "uint256"
        }
      ],
      "stateMutability": "view",
      "type": "function"
    },
    {
      "inputs": [],
      "name": "forwarderRegistry",
      "outputs": [
        {
          "internalType": "contract IForwarderRegistry",
          "name": "",
          "type": "address"
        }
      ],
      "stateMutability": "view",
      "type": "function"
    },
    {
      "inputs": [
        {
          "internalType": "address",
          "name": "forwarder",
          "type": "address"
        }
      ],
      "name": "isTrustedForwarder",
      "outputs": [
        {
          "internalType": "bool",
          "name": "",
          "type": "bool"
        }
      ],
      "stateMutability": "view",
      "type": "function"
    },
    {
      "inputs": [],
      "name": "maxBitCount",
      "outputs": [
        {
          "internalType": "uint256",
          "name": "",
          "type": "uint256"
        }
      ],
      "stateMutability": "view",
      "type": "function"
    },
    {
      "inputs": [],
      "name": "owner",
      "outputs": [
        {
          "internalType": "address",
          "name": "",
          "type": "address"
        }
      ],
      "stateMutability": "view",
      "type": "function"
    },
    {
      "inputs": [
        {
          "internalType": "address",
          "name": "newSigner",
          "type": "address"
        }
      ],
      "name": "setSigner",
      "outputs": [],
      "stateMutability": "nonpayable",
      "type": "function"
    },
    {
      "inputs": [],
      "name": "signer",
      "outputs": [
        {
          "internalType": "address",
          "name": "",
          "type": "address"
        }
      ],
      "stateMutability": "view",
      "type": "function"
    },
    {
      "inputs": [
        {
          "internalType": "bytes4",
          "name": "interfaceId",
          "type": "bytes4"
        }
      ],
      "name": "supportsInterface",
      "outputs": [
        {
          "internalType": "bool",
          "name": "",
          "type": "bool"
        }
      ],
      "stateMutability": "view",
      "type": "function"
    },
    {
      "inputs": [
        {
          "internalType": "address",
          "name": "newOwner",
          "type": "address"
        }
      ],
      "name": "transferOwnership",
      "outputs": [],
      "stateMutability": "nonpayable",
      "type": "function"
    }
  ],
  "bytecode": "0x6101a06040523480156200001257600080fd5b5060405162001c8138038062001c81833981016040819052620000359162000318565b83838383828060405180604001604052806011815260200170506f696e74734269746d6170436c61696d60781b815250604051806040016040528060038152602001620312e360ec1b815250336200009e8162000097620001c160201b60201c565b90620001f7565b50815160208084019190912082518383012060e08290526101008190524660a0818152604080517f8b73c3c69bb8fe3d512ecc4cf759cc79239f7b179b0ffacaa9a75d522b39400f81880181905281830187905260608201869052608082019490945230818401528151808203909301835260c00190528051940193909320919290916080523060c05261012052505050506001600160a01b0390811661014052851690506200016157604051630d082d6160e21b815260040160405180910390fd5b6001600160a01b0383166200018957604051633545ba1f60e21b815260040160405180910390fd5b6001600160a01b039384166101605261018091909152600380546001600160a01b031916919093161790915550620003969350505050565b600080620001f160017fc9ed16f33ab3a66c84bfd83099ccb2a8845871e2e1c1928f63797152f0fd54cd62000374565b92915050565b6001600160a01b038116156200024e5781546001600160a01b0319166001600160a01b03821690811783556040516000907f8be0079c531659141344cd1fd0a4f28419497f9722a3daafe3b4186f6b6457e0908290a35b6200026e6307f5828d60e41b60016200026662000272565b9190620002a2565b5050565b600080620001f160017fca9d3e17f264b0f3984e2634e94adb37fa3e6a8103f06aeae6fa59e21c769f5e62000374565b600160e01b6001600160e01b0319831601620002d1576040516372c683bb60e01b815260040160405180910390fd5b6001600160e01b03199190911660009081526020929092526040909120805460ff1916911515919091179055565b6001600160a01b03811681146200031557600080fd5b50565b600080600080608085870312156200032f57600080fd5b84516200033c81620002ff565b60208601519094506200034f81620002ff565b6040860151606087015191945092506200036981620002ff565b939692955090935050565b81810381811115620001f157634e487b7160e01b600052601160045260246000fd5b60805160a05160c05160e051610100516101205161014051610160516101805161184962000438600039600081816101aa01526109340152600081816102e1015261095a0152600081816102130152818161027001528181610ef401528181610f320152818161106a01526110f201526000611205015260006112540152600061122f01526000611188015260006111b2015260006111dc01526118496000f3fe608060405234801561001057600080fd5b50600436106101355760003560e01c80636844b019116100b25780638da5cb5b11610081578063d1a91ff211610066578063d1a91ff21461032b578063d4aacf0014610333578063f2fde38b1461034657600080fd5b80638da5cb5b14610303578063c884ef831461030b57600080fd5b80636844b019146102ad5780636c19e783146102b6578063701af92f146102c95780637f6e4281146102dc57600080fd5b8063238ac9331161010957806331e66e1e116100ee57806331e66e1e146102375780634a1e2ab71461024d578063572b6c051461026057600080fd5b8063238ac933146101cc5780632b4c9f161461021157600080fd5b8062cfbb851461013a57806301ffc9a71461014f57806312a53fdd146101775780632196e445146101a5575b600080fd5b61014d610148366004611472565b610359565b005b61016261015d366004611524565b610590565b60405190151581526020015b60405180910390f35b610197610185366004611566565b60026020526000908152604090205481565b60405190815260200161016e565b6101977f000000000000000000000000000000000000000000000000000000000000000081565b6003546101ec9073ffffffffffffffffffffffffffffffffffffffff1681565b60405173ffffffffffffffffffffffffffffffffffffffff909116815260200161016e565b7f00000000000000000000000000000000000000000000000000000000000000006101ec565b61023f6105aa565b60405161016e92919061157f565b61014d61025b366004611566565b6105bd565b61016261026e3660046115cc565b7f000000000000000000000000000000000000000000000000000000000000000073ffffffffffffffffffffffffffffffffffffffff90811691161490565b61019760005481565b61014d6102c43660046115cc565b610635565b61014d6102d73660046115e7565b610726565b6101ec7f000000000000000000000000000000000000000000000000000000000000000081565b6101ec610734565b6101976103193660046115cc565b60016020526000908152604090205481565b6101ec610760565b61014d610341366004611472565b61076a565b61014d6103543660046115cc565b61077e565b826000819003610395576040517fafec630d00000000000000000000000000000000000000000000000000000000815260040160405180910390fd5b60008060005b8381101561042f5760008888838181106103b7576103b7611611565b60200291909101359150506001811b84811615610408576040517f4be1d8b9000000000000000000000000000000000000000000000000000000008152600481018390526024015b60405180910390fd5b600082815260026020526040902054610421908561166f565b94179392505060010161039b565b5060005482811c15610477576040517fea46621200000000000000000000000000000000000000000000000000000000815260048101849052602481018290526044016103ff565b73ffffffffffffffffffffffffffffffffffffffff8916600090815260016020526040902054838116156104fd576040517f6508823200000000000000000000000000000000000000000000000000000000815273ffffffffffffffffffffffffffffffffffffffff8b16600482015260248101859052604481018290526064016103ff565b61050a8a8a8a8a8a61079c565b73ffffffffffffffffffffffffffffffffffffffff8a16600081815260016020908152604091829020878517908190558251938452908301849052908201819052907f987d620f307ff6b94d58743cb7a7509f24071586a77759b77c2d4e29f75a2f9a9060600160405180910390a16105838b856108e2565b5050505050505050505050565b60006105a48261059e6109ba565b906109e8565b92915050565b3660006105b5610ac2565b915091509091565b6105d66105c8610acd565b6105d0610ad7565b90610b05565b60008054808252600260205260409091208290556105f581600161166f565b60005560408051828152602081018490527fce560b7f8693cf1ce9d69f00e9293a5ee944531dd11f60ff6578840938c18a70910160405180910390a15050565b60035473ffffffffffffffffffffffffffffffffffffffff908116908216036106a2576040517fd3d310d900000000000000000000000000000000000000000000000000000000815273ffffffffffffffffffffffffffffffffffffffff821660048201526024016103ff565b6106ad6105c8610acd565b600380547fffffffffffffffffffffffff00000000000000000000000000000000000000001673ffffffffffffffffffffffffffffffffffffffff83169081179091556040519081527f9eaa897564d022fb8c5efaf0acdb5d9d27b440b2aad44400b6e1c702e65b9ed39060200160405180910390a150565b61073082826108e2565b5050565b600061075b610741610ad7565b5473ffffffffffffffffffffffffffffffffffffffff1690565b905090565b600061075b610acd565b610777858585858561079c565b5050505050565b610799610789610acd565b82610792610ad7565b9190610b70565b50565b60006108407fbf5b525228eee31af7f021c0a050e8543ccedbb9a8730831af7f7d2178503eda8787876040516020016107d6929190611682565b604051602081830303815290604052805190602001206040516020016108259392919092835273ffffffffffffffffffffffffffffffffffffffff919091166020830152604082015260600190565b60405160208183030381529060405280519060200120610c85565b600354604080516020601f87018190048102820181019092528581529293506000926108a09273ffffffffffffffffffffffffffffffffffffffff16918591908890889081908401838280828437600092019190915250610cee92505050565b9050806108d9576040517f8baa579f00000000000000000000000000000000000000000000000000000000815260040160405180910390fd5b50505050505050565b8015610730576040517f26b3293f00000000000000000000000000000000000000000000000000000000815273ffffffffffffffffffffffffffffffffffffffff8381166004830152602482018390527f000000000000000000000000000000000000000000000000000000000000000060448301527f000000000000000000000000000000000000000000000000000000000000000016906326b3293f90606401600060405180830381600087803b15801561099e57600080fd5b505af11580156109b2573d6000803e3d6000fd5b505050505050565b6000806105a460017fca9d3e17f264b0f3984e2634e94adb37fa3e6a8103f06aeae6fa59e21c769f5e6116d4565b60007c01000000000000000000000000000000000000000000000000000000007fffffffff00000000000000000000000000000000000000000000000000000000831601610a38575060006105a4565b7ffe003659000000000000000000000000000000000000000000000000000000007fffffffff00000000000000000000000000000000000000000000000000000000831601610a89575060016105a4565b507fffffffff00000000000000000000000000000000000000000000000000000000166000908152602091909152604090205460ff1690565b3660006105b5610ebd565b600061075b611027565b6000806105a460017fc9ed16f33ab3a66c84bfd83099ccb2a8845871e2e1c1928f63797152f0fd54cd6116d4565b815473ffffffffffffffffffffffffffffffffffffffff828116911614610730576040517f2ef4875e00000000000000000000000000000000000000000000000000000000815273ffffffffffffffffffffffffffffffffffffffff821660048201526024016103ff565b825473ffffffffffffffffffffffffffffffffffffffff9081169083168114610bdd576040517f2ef4875e00000000000000000000000000000000000000000000000000000000815273ffffffffffffffffffffffffffffffffffffffff841660048201526024016103ff565b8173ffffffffffffffffffffffffffffffffffffffff168173ffffffffffffffffffffffffffffffffffffffff1614610c7f5783547fffffffffffffffffffffffff00000000000000000000000000000000000000001673ffffffffffffffffffffffffffffffffffffffff8381169182178655604051908316907f8be0079c531659141344cd1fd0a4f28419497f9722a3daafe3b4186f6b6457e090600090a35b50505050565b60006105a4610c9261116e565b836040517f19010000000000000000000000000000000000000000000000000000000000006020820152602281018390526042810182905260009060620160405160208183030381529060405280519060200120905092915050565b6000806000610cfd85856112a2565b90925090506000816004811115610d1657610d166116e7565b148015610d4e57508573ffffffffffffffffffffffffffffffffffffffff168273ffffffffffffffffffffffffffffffffffffffff16145b15610d5e57600192505050610eb6565b6000808773ffffffffffffffffffffffffffffffffffffffff16631626ba7e60e01b8888604051602401610d9392919061173a565b604080517fffffffffffffffffffffffffffffffffffffffffffffffffffffffffffffffe08184030181529181526020820180517bffffffffffffffffffffffffffffffffffffffffffffffffffffffff167fffffffff00000000000000000000000000000000000000000000000000000000909416939093179092529051610e1c9190611792565b600060405180830381855afa9150503d8060008114610e57576040519150601f19603f3d011682016040523d82523d6000602084013e610e5c565b606091505b5091509150818015610e6f575080516020145b8015610eaf575080517f1626ba7e0000000000000000000000000000000000000000000000000000000090610ead90830160209081019084016117ae565b145b9450505050505b9392505050565b36600033321480610ece5750601836105b15610edc5750600091369150565b3373ffffffffffffffffffffffffffffffffffffffff7f0000000000000000000000000000000000000000000000000000000000000000161480611011575073ffffffffffffffffffffffffffffffffffffffff7f000000000000000000000000000000000000000000000000000000000000000016638929a8ca367fffffffffffffffffffffffffffffffffffffffffffffffffffffffffffffffec013560601c6040517fffffffff0000000000000000000000000000000000000000000000000000000060e084901b16815273ffffffffffffffffffffffffffffffffffffffff9091166004820152336024820152604401602060405180830381865afa158015610fed573d6000803e3d6000fd5b505050506040513d601f19601f8201168201806040525081019061101191906117c7565b1561101e576105b56112e7565b50600091369150565b6000333214806110375750601836105b1561104157503390565b7fffffffffffffffffffffffffffffffffffffffffffffffffffffffffffffffec36013560601c7f000000000000000000000000000000000000000000000000000000000000000073ffffffffffffffffffffffffffffffffffffffff1633148061115d57506040517f8929a8ca00000000000000000000000000000000000000000000000000000000815273ffffffffffffffffffffffffffffffffffffffff82811660048301523360248301527f00000000000000000000000000000000000000000000000000000000000000001690638929a8ca90604401602060405180830381865afa158015611139573d6000803e3d6000fd5b505050506040513d601f19601f8201168201806040525081019061115d91906117c7565b1561116757919050565b3391505090565b60003073ffffffffffffffffffffffffffffffffffffffff7f0000000000000000000000000000000000000000000000000000000000000000161480156111d457507f000000000000000000000000000000000000000000000000000000000000000046145b156111fe57507f000000000000000000000000000000000000000000000000000000000000000090565b50604080517f00000000000000000000000000000000000000000000000000000000000000006020808301919091527f0000000000000000000000000000000000000000000000000000000000000000828401527f000000000000000000000000000000000000000000000000000000000000000060608301524660808301523060a0808401919091528351808403909101815260c0909201909252805191012090565b60008082516041036112d85760208301516040840151606085015160001a6112cc87828585611318565b945094505050506112e0565b506000905060025b9250929050565b3660006105b57fffffffffffffffffffffffffffffffffffffffffffffffffffffffffffffffec83018284816117e9565b6000807f7fffffffffffffffffffffffffffffff5d576e7357a4501ddfe92f46681b20a083111561134f57506000905060036113fe565b6040805160008082526020820180845289905260ff881692820192909252606081018690526080810185905260019060a0016020604051602081039080840390855afa1580156113a3573d6000803e3d6000fd5b50506040517fffffffffffffffffffffffffffffffffffffffffffffffffffffffffffffffe0015191505073ffffffffffffffffffffffffffffffffffffffff81166113f7576000600192509250506113fe565b9150600090505b94509492505050565b803573ffffffffffffffffffffffffffffffffffffffff8116811461142b57600080fd5b919050565b60008083601f84011261144257600080fd5b50813567ffffffffffffffff81111561145a57600080fd5b6020830191508360208285010111156112e057600080fd5b60008060008060006060868803121561148a57600080fd5b61149386611407565b9450602086013567ffffffffffffffff808211156114b057600080fd5b818801915088601f8301126114c457600080fd5b8135818111156114d357600080fd5b8960208260051b85010111156114e857600080fd5b60208301965080955050604088013591508082111561150657600080fd5b5061151388828901611430565b969995985093965092949392505050565b60006020828403121561153657600080fd5b81357fffffffff0000000000000000000000000000000000000000000000000000000081168114610eb657600080fd5b60006020828403121561157857600080fd5b5035919050565b60208152816020820152818360408301376000818301604090810191909152601f9092017fffffffffffffffffffffffffffffffffffffffffffffffffffffffffffffffe0160101919050565b6000602082840312156115de57600080fd5b610eb682611407565b600080604083850312156115fa57600080fd5b61160383611407565b946020939093013593505050565b7f4e487b7100000000000000000000000000000000000000000000000000000000600052603260045260246000fd5b7f4e487b7100000000000000000000000000000000000000000000000000000000600052601160045260246000fd5b808201808211156105a4576105a4611640565b6020815281602082015260007f07ffffffffffffffffffffffffffffffffffffffffffffffffffffffffffffff8311156116bb57600080fd5b8260051b80856040850137919091016040019392505050565b818103818111156105a4576105a4611640565b7f4e487b7100000000000000000000000000000000000000000000000000000000600052602160045260246000fd5b60005b83811015611731578181015183820152602001611719565b50506000910152565b828152604060208201526000825180604084015261175f816060850160208701611716565b601f017fffffffffffffffffffffffffffffffffffffffffffffffffffffffffffffffe016919091016060019392505050565b600082516117a4818460208701611716565b9190910192915050565b6000602082840312156117c057600080fd5b5051919050565b6000602082840312156117d957600080fd5b81518015158114610eb657600080fd5b600080858511156117f957600080fd5b8386111561180657600080fd5b505082019391909203915056fea26469706673582212202bdde883839a174126fee17e26fabd3bfa77724cba3adc08e9341fc048be5d5e64736f6c63430008160033",
  "linkReferences": {},
  "deployedLinkReferences": {}
}