{
  "_format": "hh-sol-artifact-1",
  "contractName": "PointsBitmapClaimMock",
  "sourceName": "contracts/mocks/bitmapClaim/PointsBitmapClaimMock.sol",
  "abi": [
    {
      "inputs": [
        {
          "internalType": "address",
          "name": "pointsContractAddress",
          "type": "address"
        },
        {
          "internalType": "contract IForwarderRegistry",
          "name": "forwarderRegistry_",
          "type": "address"
        },
        {
          "internalType": "bytes32",
          "name": "depositReasonCode",
          "type": "bytes32"
        },
        {
          "internalType": "address",
          "name": "_signer",
          "type": "address"
        }
      ],
      "stateMutability": "nonpayable",
      "type": "constructor"
    },
    {
      "inputs": [
        {
          "internalType": "address",
          "name": "recipient",
          "type": "address"
        },
        {
          "internalType": "uint256",
          "name": "claimBits",
          "type": "uint256"
        },
        {
          "internalType": "uint256",
          "name": "claimedBitmap",
          "type": "uint256"
        }
      ],
      "name": "AlreadyClaimed",
      "type": "error"
    },
    {
      "inputs": [
        {
          "internalType": "uint256",
          "name": "claimBitPosition",
          "type": "uint256"
        }
      ],
      "name": "DuplicateClaimBit",
      "type": "error"
    },
    {
      "inputs": [],
      "name": "IllegalInterfaceId",
      "type": "error"
    },
    {
      "inputs": [
        {
          "internalType": "uint256",
          "name": "claimBits",
          "type": "uint256"
        },
        {
          "internalType": "uint256",
          "name": "maxBitCount",
          "type": "uint256"
        }
      ],
      "name": "InvalidBitPosition",
      "type": "error"
    },
    {
      "inputs": [],
      "name": "InvalidPointsContractAddress",
      "type": "error"
    },
    {
      "inputs": [],
      "name": "InvalidSignature",
      "type": "error"
    },
    {
      "inputs": [
        {
          "internalType": "address",
          "name": "account",
          "type": "address"
        }
      ],
      "name": "NotContractOwner",
      "type": "error"
    },
    {
      "inputs": [
        {
          "internalType": "address",
          "name": "signer",
          "type": "address"
        }
      ],
      "name": "SignerAlreadySet",
      "type": "error"
    },
    {
      "inputs": [],
      "name": "ZeroLengthClaimBitPositions",
      "type": "error"
    },
    {
      "anonymous": false,
      "inputs": [
        {
          "indexed": false,
          "internalType": "uint256",
          "name": "bitPosition",
          "type": "uint256"
        },
        {
          "indexed": false,
          "internalType": "uint256",
          "name": "value",
          "type": "uint256"
        }
      ],
      "name": "BitValueSet",
      "type": "event"
    },
    {
      "anonymous": false,
      "inputs": [
        {
          "indexed": false,
          "internalType": "address",
          "name": "recipient",
          "type": "address"
        },
        {
          "indexed": false,
          "internalType": "uint256",
          "name": "oldBitmap",
          "type": "uint256"
        },
        {
          "indexed": false,
          "internalType": "uint256",
          "name": "newBitmap",
          "type": "uint256"
        }
      ],
      "name": "Claimed",
      "type": "event"
    },
    {
      "anonymous": false,
      "inputs": [
        {
          "indexed": true,
          "internalType": "address",
          "name": "previousOwner",
          "type": "address"
        },
        {
          "indexed": true,
          "internalType": "address",
          "name": "newOwner",
          "type": "address"
        }
      ],
      "name": "OwnershipTransferred",
      "type": "event"
    },
    {
      "anonymous": false,
      "inputs": [
        {
          "indexed": false,
          "internalType": "address",
          "name": "signer",
          "type": "address"
        }
      ],
      "name": "SignerSet",
      "type": "event"
    },
    {
      "inputs": [],
      "name": "DEPOSIT_REASON_CODE",
      "outputs": [
        {
          "internalType": "bytes32",
          "name": "",
          "type": "bytes32"
        }
      ],
      "stateMutability": "view",
      "type": "function"
    },
    {
      "inputs": [],
      "name": "POINTS",
      "outputs": [
        {
          "internalType": "contract IPoints",
          "name": "",
          "type": "address"
        }
      ],
      "stateMutability": "view",
      "type": "function"
    },
    {
      "inputs": [],
      "name": "__msgData",
      "outputs": [
        {
          "internalType": "bytes",
          "name": "",
          "type": "bytes"
        }
      ],
      "stateMutability": "view",
      "type": "function"
    },
    {
      "inputs": [],
      "name": "__msgSender",
      "outputs": [
        {
          "internalType": "address",
          "name": "",
          "type": "address"
        }
      ],
      "stateMutability": "view",
      "type": "function"
    },
    {
      "inputs": [
        {
          "internalType": "uint256",
          "name": "value",
          "type": "uint256"
        }
      ],
      "name": "addBitValue",
      "outputs": [],
      "stateMutability": "nonpayable",
      "type": "function"
    },
    {
      "inputs": [
        {
          "internalType": "uint256",
          "name": "bitPosition",
          "type": "uint256"
        }
      ],
      "name": "bitPositionValueMap",
      "outputs": [
        {
          "internalType": "uint256",
          "name": "value",
          "type": "uint256"
        }
      ],
      "stateMutability": "view",
      "type": "function"
    },
    {
      "inputs": [
        {
          "internalType": "address",
          "name": "recipient",
          "type": "address"
        },
        {
          "internalType": "uint256[]",
          "name": "claimBitPositions",
          "type": "uint256[]"
        },
        {
          "internalType": "bytes",
          "name": "validationData",
          "type": "bytes"
        }
      ],
      "name": "claim",
      "outputs": [],
      "stateMutability": "nonpayable",
      "type": "function"
    },
    {
      "inputs": [
        {
          "internalType": "address",
          "name": "recipient",
          "type": "address"
        }
      ],
      "name": "claimed",
      "outputs": [
        {
          "internalType": "uint256",
          "name": "bitmap",
          "type": "uint256"
        }
      ],
      "stateMutability": "view",
      "type": "function"
    },
    {
      "inputs": [],
      "name": "forwarderRegistry",
      "outputs": [
        {
          "internalType": "contract IForwarderRegistry",
          "name": "",
          "type": "address"
        }
      ],
      "stateMutability": "view",
      "type": "function"
    },
    {
      "inputs": [
        {
          "internalType": "address",
          "name": "forwarder",
          "type": "address"
        }
      ],
      "name": "isTrustedForwarder",
      "outputs": [
        {
          "internalType": "bool",
          "name": "",
          "type": "bool"
        }
      ],
      "stateMutability": "view",
      "type": "function"
    },
    {
      "inputs": [],
      "name": "maxBitCount",
      "outputs": [
        {
          "internalType": "uint256",
          "name": "",
          "type": "uint256"
        }
      ],
      "stateMutability": "view",
      "type": "function"
    },
    {
      "inputs": [],
      "name": "owner",
      "outputs": [
        {
          "internalType": "address",
          "name": "",
          "type": "address"
        }
      ],
      "stateMutability": "view",
      "type": "function"
    },
    {
      "inputs": [
        {
          "internalType": "address",
          "name": "newSigner",
          "type": "address"
        }
      ],
      "name": "setSigner",
      "outputs": [],
      "stateMutability": "nonpayable",
      "type": "function"
    },
    {
      "inputs": [],
      "name": "signer",
      "outputs": [
        {
          "internalType": "address",
          "name": "",
          "type": "address"
        }
      ],
      "stateMutability": "view",
      "type": "function"
    },
    {
      "inputs": [
        {
          "internalType": "bytes4",
          "name": "interfaceId",
          "type": "bytes4"
        }
      ],
      "name": "supportsInterface",
      "outputs": [
        {
          "internalType": "bool",
          "name": "",
          "type": "bool"
        }
      ],
      "stateMutability": "view",
      "type": "function"
    },
    {
      "inputs": [
        {
          "internalType": "address",
          "name": "newOwner",
          "type": "address"
        }
      ],
      "name": "transferOwnership",
      "outputs": [],
      "stateMutability": "nonpayable",
      "type": "function"
    }
  ],
  "bytecode": "0x6101a06040523480156200001257600080fd5b5060405162001bb238038062001bb28339810160408190526200003591620002f0565b83838383828060405180604001604052806011815260200170506f696e74734269746d6170436c61696d60781b815250604051806040016040528060038152602001620312e360ec1b815250336200009e81620000976200019960201b60201c565b90620001cf565b50815160208084019190912082518383012060e08290526101008190524660a0818152604080517f8b73c3c69bb8fe3d512ecc4cf759cc79239f7b179b0ffacaa9a75d522b39400f81880181905281830187905260608201869052608082019490945230818401528151808203909301835260c00190528051940193909320919290916080523060c05261012052505050506001600160a01b0390811661014052851690506200016157604051630d082d6160e21b815260040160405180910390fd5b6001600160a01b039384166101605261018091909152600380546001600160a01b0319169190931617909155506200036e9350505050565b600080620001c960017fc9ed16f33ab3a66c84bfd83099ccb2a8845871e2e1c1928f63797152f0fd54cd6200034c565b92915050565b6001600160a01b03811615620002265781546001600160a01b0319166001600160a01b03821690811783556040516000907f8be0079c531659141344cd1fd0a4f28419497f9722a3daafe3b4186f6b6457e0908290a35b620002466307f5828d60e41b60016200023e6200024a565b91906200027a565b5050565b600080620001c960017fca9d3e17f264b0f3984e2634e94adb37fa3e6a8103f06aeae6fa59e21c769f5e6200034c565b600160e01b6001600160e01b0319831601620002a9576040516372c683bb60e01b815260040160405180910390fd5b6001600160e01b03199190911660009081526020929092526040909120805460ff1916911515919091179055565b6001600160a01b0381168114620002ed57600080fd5b50565b600080600080608085870312156200030757600080fd5b84516200031481620002d7565b60208601519094506200032781620002d7565b6040860151606087015191945092506200034181620002d7565b939692955090935050565b81810381811115620001c957634e487b7160e01b600052601160045260246000fd5b60805160a05160c05160e05161010051610120516101405161016051610180516117a2620004106000396000818161017401526108b601526000818161029801526108dc0152600081816101dd0152818161023a01528181610e7701528181610eb501528181610fed015261107501526000611188015260006111d7015260006111b20152600061110b015260006111350152600061115f01526117a26000f3fe608060405234801561001057600080fd5b50600436106100ff5760003560e01c8063572b6c05116100975780638da5cb5b116100665780638da5cb5b146102ba578063c884ef83146102c2578063d1a91ff2146102e2578063f2fde38b146102ea57600080fd5b8063572b6c051461022a5780636844b019146102775780636c19e783146102805780637f6e42811461029357600080fd5b8063238ac933116100d3578063238ac933146101965780632b4c9f16146101db57806331e66e1e146102015780634a1e2ab71461021757600080fd5b8062cfbb851461010457806301ffc9a71461011957806312a53fdd146101415780632196e4451461016f575b600080fd5b6101176101123660046113f5565b6102fd565b005b61012c6101273660046114a7565b610534565b60405190151581526020015b60405180910390f35b61016161014f3660046114e9565b60026020526000908152604090205481565b604051908152602001610138565b6101617f000000000000000000000000000000000000000000000000000000000000000081565b6003546101b69073ffffffffffffffffffffffffffffffffffffffff1681565b60405173ffffffffffffffffffffffffffffffffffffffff9091168152602001610138565b7f00000000000000000000000000000000000000000000000000000000000000006101b6565b61020961054e565b604051610138929190611502565b6101176102253660046114e9565b610561565b61012c61023836600461154f565b7f000000000000000000000000000000000000000000000000000000000000000073ffffffffffffffffffffffffffffffffffffffff90811691161490565b61016160005481565b61011761028e36600461154f565b6105d9565b6101b67f000000000000000000000000000000000000000000000000000000000000000081565b6101b66106ca565b6101616102d036600461154f565b60016020526000908152604090205481565b6101b66106f6565b6101176102f836600461154f565b610700565b826000819003610339576040517fafec630d00000000000000000000000000000000000000000000000000000000815260040160405180910390fd5b60008060005b838110156103d357600088888381811061035b5761035b61156a565b60200291909101359150506001811b848116156103ac576040517f4be1d8b9000000000000000000000000000000000000000000000000000000008152600481018390526024015b60405180910390fd5b6000828152600260205260409020546103c590856115c8565b94179392505060010161033f565b5060005482811c1561041b576040517fea46621200000000000000000000000000000000000000000000000000000000815260048101849052602481018290526044016103a3565b73ffffffffffffffffffffffffffffffffffffffff8916600090815260016020526040902054838116156104a1576040517f6508823200000000000000000000000000000000000000000000000000000000815273ffffffffffffffffffffffffffffffffffffffff8b16600482015260248101859052604481018290526064016103a3565b6104ae8a8a8a8a8a61071e565b73ffffffffffffffffffffffffffffffffffffffff8a16600081815260016020908152604091829020878517908190558251938452908301849052908201819052907f987d620f307ff6b94d58743cb7a7509f24071586a77759b77c2d4e29f75a2f9a9060600160405180910390a16105278b85610864565b5050505050505050505050565b60006105488261054261093d565b9061096b565b92915050565b366000610559610a45565b915091509091565b61057a61056c610a50565b610574610a5a565b90610a88565b60008054808252600260205260409091208290556105998160016115c8565b60005560408051828152602081018490527f8e17f10a809a83084393f091eeb493166c6d7d75f0227161b2dfe9f3867a431e910160405180910390a15050565b60035473ffffffffffffffffffffffffffffffffffffffff90811690821603610646576040517fd3d310d900000000000000000000000000000000000000000000000000000000815273ffffffffffffffffffffffffffffffffffffffff821660048201526024016103a3565b61065161056c610a50565b600380547fffffffffffffffffffffffff00000000000000000000000000000000000000001673ffffffffffffffffffffffffffffffffffffffff83169081179091556040519081527f9eaa897564d022fb8c5efaf0acdb5d9d27b440b2aad44400b6e1c702e65b9ed39060200160405180910390a150565b60006106f16106d7610a5a565b5473ffffffffffffffffffffffffffffffffffffffff1690565b905090565b60006106f1610a50565b61071b61070b610a50565b82610714610a5a565b9190610af3565b50565b60006107c27fbf5b525228eee31af7f021c0a050e8543ccedbb9a8730831af7f7d2178503eda8787876040516020016107589291906115db565b604051602081830303815290604052805190602001206040516020016107a79392919092835273ffffffffffffffffffffffffffffffffffffffff919091166020830152604082015260600190565b60405160208183030381529060405280519060200120610c08565b600354604080516020601f87018190048102820181019092528581529293506000926108229273ffffffffffffffffffffffffffffffffffffffff16918591908890889081908401838280828437600092019190915250610c7192505050565b90508061085b576040517f8baa579f00000000000000000000000000000000000000000000000000000000815260040160405180910390fd5b50505050505050565b8015610939576040517f26b3293f00000000000000000000000000000000000000000000000000000000815273ffffffffffffffffffffffffffffffffffffffff8381166004830152602482018390527f000000000000000000000000000000000000000000000000000000000000000060448301527f000000000000000000000000000000000000000000000000000000000000000016906326b3293f90606401600060405180830381600087803b15801561092057600080fd5b505af1158015610934573d6000803e3d6000fd5b505050505b5050565b60008061054860017fca9d3e17f264b0f3984e2634e94adb37fa3e6a8103f06aeae6fa59e21c769f5e61162d565b60007c01000000000000000000000000000000000000000000000000000000007fffffffff000000000000000000000000000000000000000000000000000000008316016109bb57506000610548565b7ffe003659000000000000000000000000000000000000000000000000000000007fffffffff00000000000000000000000000000000000000000000000000000000831601610a0c57506001610548565b507fffffffff00000000000000000000000000000000000000000000000000000000166000908152602091909152604090205460ff1690565b366000610559610e40565b60006106f1610faa565b60008061054860017fc9ed16f33ab3a66c84bfd83099ccb2a8845871e2e1c1928f63797152f0fd54cd61162d565b815473ffffffffffffffffffffffffffffffffffffffff828116911614610939576040517f2ef4875e00000000000000000000000000000000000000000000000000000000815273ffffffffffffffffffffffffffffffffffffffff821660048201526024016103a3565b825473ffffffffffffffffffffffffffffffffffffffff9081169083168114610b60576040517f2ef4875e00000000000000000000000000000000000000000000000000000000815273ffffffffffffffffffffffffffffffffffffffff841660048201526024016103a3565b8173ffffffffffffffffffffffffffffffffffffffff168173ffffffffffffffffffffffffffffffffffffffff1614610c025783547fffffffffffffffffffffffff00000000000000000000000000000000000000001673ffffffffffffffffffffffffffffffffffffffff8381169182178655604051908316907f8be0079c531659141344cd1fd0a4f28419497f9722a3daafe3b4186f6b6457e090600090a35b50505050565b6000610548610c156110f1565b836040517f19010000000000000000000000000000000000000000000000000000000000006020820152602281018390526042810182905260009060620160405160208183030381529060405280519060200120905092915050565b6000806000610c808585611225565b90925090506000816004811115610c9957610c99611640565b148015610cd157508573ffffffffffffffffffffffffffffffffffffffff168273ffffffffffffffffffffffffffffffffffffffff16145b15610ce157600192505050610e39565b6000808773ffffffffffffffffffffffffffffffffffffffff16631626ba7e60e01b8888604051602401610d16929190611693565b604080517fffffffffffffffffffffffffffffffffffffffffffffffffffffffffffffffe08184030181529181526020820180517bffffffffffffffffffffffffffffffffffffffffffffffffffffffff167fffffffff00000000000000000000000000000000000000000000000000000000909416939093179092529051610d9f91906116eb565b600060405180830381855afa9150503d8060008114610dda576040519150601f19603f3d011682016040523d82523d6000602084013e610ddf565b606091505b5091509150818015610df2575080516020145b8015610e32575080517f1626ba7e0000000000000000000000000000000000000000000000000000000090610e309083016020908101908401611707565b145b9450505050505b9392505050565b36600033321480610e515750601836105b15610e5f5750600091369150565b3373ffffffffffffffffffffffffffffffffffffffff7f0000000000000000000000000000000000000000000000000000000000000000161480610f94575073ffffffffffffffffffffffffffffffffffffffff7f000000000000000000000000000000000000000000000000000000000000000016638929a8ca367fffffffffffffffffffffffffffffffffffffffffffffffffffffffffffffffec013560601c6040517fffffffff0000000000000000000000000000000000000000000000000000000060e084901b16815273ffffffffffffffffffffffffffffffffffffffff9091166004820152336024820152604401602060405180830381865afa158015610f70573d6000803e3d6000fd5b505050506040513d601f19601f82011682018060405250810190610f949190611720565b15610fa15761055961126a565b50600091369150565b600033321480610fba5750601836105b15610fc457503390565b7fffffffffffffffffffffffffffffffffffffffffffffffffffffffffffffffec36013560601c7f000000000000000000000000000000000000000000000000000000000000000073ffffffffffffffffffffffffffffffffffffffff163314806110e057506040517f8929a8ca00000000000000000000000000000000000000000000000000000000815273ffffffffffffffffffffffffffffffffffffffff82811660048301523360248301527f00000000000000000000000000000000000000000000000000000000000000001690638929a8ca90604401602060405180830381865afa1580156110bc573d6000803e3d6000fd5b505050506040513d601f19601f820116820180604052508101906110e09190611720565b156110ea57919050565b3391505090565b60003073ffffffffffffffffffffffffffffffffffffffff7f00000000000000000000000000000000000000000000000000000000000000001614801561115757507f000000000000000000000000000000000000000000000000000000000000000046145b1561118157507f000000000000000000000000000000000000000000000000000000000000000090565b50604080517f00000000000000000000000000000000000000000000000000000000000000006020808301919091527f0000000000000000000000000000000000000000000000000000000000000000828401527f000000000000000000000000000000000000000000000000000000000000000060608301524660808301523060a0808401919091528351808403909101815260c0909201909252805191012090565b600080825160410361125b5760208301516040840151606085015160001a61124f8782858561129b565b94509450505050611263565b506000905060025b9250929050565b3660006105597fffffffffffffffffffffffffffffffffffffffffffffffffffffffffffffffec8301828481611742565b6000807f7fffffffffffffffffffffffffffffff5d576e7357a4501ddfe92f46681b20a08311156112d25750600090506003611381565b6040805160008082526020820180845289905260ff881692820192909252606081018690526080810185905260019060a0016020604051602081039080840390855afa158015611326573d6000803e3d6000fd5b50506040517fffffffffffffffffffffffffffffffffffffffffffffffffffffffffffffffe0015191505073ffffffffffffffffffffffffffffffffffffffff811661137a57600060019250925050611381565b9150600090505b94509492505050565b803573ffffffffffffffffffffffffffffffffffffffff811681146113ae57600080fd5b919050565b60008083601f8401126113c557600080fd5b50813567ffffffffffffffff8111156113dd57600080fd5b60208301915083602082850101111561126357600080fd5b60008060008060006060868803121561140d57600080fd5b6114168661138a565b9450602086013567ffffffffffffffff8082111561143357600080fd5b818801915088601f83011261144757600080fd5b81358181111561145657600080fd5b8960208260051b850101111561146b57600080fd5b60208301965080955050604088013591508082111561148957600080fd5b50611496888289016113b3565b969995985093965092949392505050565b6000602082840312156114b957600080fd5b81357fffffffff0000000000000000000000000000000000000000000000000000000081168114610e3957600080fd5b6000602082840312156114fb57600080fd5b5035919050565b60208152816020820152818360408301376000818301604090810191909152601f9092017fffffffffffffffffffffffffffffffffffffffffffffffffffffffffffffffe0160101919050565b60006020828403121561156157600080fd5b610e398261138a565b7f4e487b7100000000000000000000000000000000000000000000000000000000600052603260045260246000fd5b7f4e487b7100000000000000000000000000000000000000000000000000000000600052601160045260246000fd5b8082018082111561054857610548611599565b6020815281602082015260007f07ffffffffffffffffffffffffffffffffffffffffffffffffffffffffffffff83111561161457600080fd5b8260051b80856040850137919091016040019392505050565b8181038181111561054857610548611599565b7f4e487b7100000000000000000000000000000000000000000000000000000000600052602160045260246000fd5b60005b8381101561168a578181015183820152602001611672565b50506000910152565b82815260406020820152600082518060408401526116b881606085016020870161166f565b601f017fffffffffffffffffffffffffffffffffffffffffffffffffffffffffffffffe016919091016060019392505050565b600082516116fd81846020870161166f565b9190910192915050565b60006020828403121561171957600080fd5b5051919050565b60006020828403121561173257600080fd5b81518015158114610e3957600080fd5b6000808585111561175257600080fd5b8386111561175f57600080fd5b505082019391909203915056fea2646970667358221220d81dafac9e0af576f5f485ea42602acb82369e52fc1716aafa0bce4e2b1b77df64736f6c63430008160033",
  "linkReferences": {},
  "deployedLinkReferences": {}
}