{
  "_format": "hh-sol-artifact-1",
  "contractName": "ERC20ClaimWindowMerkleClaim",
  "sourceName": "contracts/merkleClaim/ERC20ClaimWindowMerkleClaim.sol",
  "abi": [
    {
      "inputs": [
        {
          "internalType": "address",
          "name": "rewardToken_",
          "type": "address"
        },
        {
          "internalType": "address",
          "name": "stakingPool_",
          "type": "address"
        },
        {
          "internalType": "address",
          "name": "tokenHolderWallet_",
          "type": "address"
        },
        {
          "internalType": "contract IForwarderRegistry",
          "name": "forwarderRegistry_",
          "type": "address"
        }
      ],
      "stateMutability": "nonpayable",
      "type": "constructor"
    },
    {
      "inputs": [
        {
          "internalType": "bytes32",
          "name": "epochId",
          "type": "bytes32"
        },
        {
          "internalType": "bytes32",
          "name": "leaf",
          "type": "bytes32"
        }
      ],
      "name": "AlreadyClaimed",
      "type": "error"
    },
    {
      "inputs": [
        {
          "internalType": "bytes32",
          "name": "epochId",
          "type": "bytes32"
        }
      ],
      "name": "EpochIdAlreadyExists",
      "type": "error"
    },
    {
      "inputs": [
        {
          "internalType": "bytes32",
          "name": "epochId",
          "type": "bytes32"
        }
      ],
      "name": "EpochIdNotExists",
      "type": "error"
    },
    {
      "inputs": [],
      "name": "IllegalInterfaceId",
      "type": "error"
    },
    {
      "inputs": [
        {
          "internalType": "uint256",
          "name": "startTime",
          "type": "uint256"
        },
        {
          "internalType": "uint256",
          "name": "endTime",
          "type": "uint256"
        },
        {
          "internalType": "uint256",
          "name": "currentTime",
          "type": "uint256"
        }
      ],
      "name": "InvalidClaimWindow",
      "type": "error"
    },
    {
      "inputs": [],
      "name": "InvalidMerkleRoot",
      "type": "error"
    },
    {
      "inputs": [
        {
          "internalType": "bytes32",
          "name": "epochId",
          "type": "bytes32"
        },
        {
          "internalType": "address",
          "name": "recipient",
          "type": "address"
        },
        {
          "internalType": "uint256",
          "name": "amount",
          "type": "uint256"
        }
      ],
      "name": "InvalidProof",
      "type": "error"
    },
    {
      "inputs": [],
      "name": "InvalidRewardToken",
      "type": "error"
    },
    {
      "inputs": [],
      "name": "InvalidStakingPool",
      "type": "error"
    },
    {
      "inputs": [
        {
          "internalType": "address",
          "name": "account",
          "type": "address"
        }
      ],
      "name": "NotContractOwner",
      "type": "error"
    },
    {
      "inputs": [
        {
          "internalType": "bytes32",
          "name": "epochId",
          "type": "bytes32"
        },
        {
          "internalType": "uint256",
          "name": "currentTime",
          "type": "uint256"
        }
      ],
      "name": "OutOfClaimWindow",
      "type": "error"
    },
    {
      "anonymous": false,
      "inputs": [
        {
          "indexed": true,
          "internalType": "bytes32",
          "name": "epochId",
          "type": "bytes32"
        },
        {
          "indexed": true,
          "internalType": "bytes32",
          "name": "merkleRoot",
          "type": "bytes32"
        },
        {
          "indexed": false,
          "internalType": "uint256",
          "name": "startTime",
          "type": "uint256"
        },
        {
          "indexed": true,
          "internalType": "uint256",
          "name": "endTime",
          "type": "uint256"
        }
      ],
      "name": "EpochMerkleRootSet",
      "type": "event"
    },
    {
      "anonymous": false,
      "inputs": [
        {
          "indexed": true,
          "internalType": "address",
          "name": "previousOwner",
          "type": "address"
        },
        {
          "indexed": true,
          "internalType": "address",
          "name": "newOwner",
          "type": "address"
        }
      ],
      "name": "OwnershipTransferred",
      "type": "event"
    },
    {
      "anonymous": false,
      "inputs": [
        {
          "indexed": true,
          "internalType": "bytes32",
          "name": "epochId",
          "type": "bytes32"
        },
        {
          "indexed": true,
          "internalType": "bytes32",
          "name": "root",
          "type": "bytes32"
        },
        {
          "indexed": true,
          "internalType": "address",
          "name": "recipient",
          "type": "address"
        },
        {
          "indexed": false,
          "internalType": "uint256",
          "name": "amount",
          "type": "uint256"
        }
      ],
      "name": "PayoutClaimed",
      "type": "event"
    },
    {
      "anonymous": false,
      "inputs": [
        {
          "indexed": true,
          "internalType": "address",
          "name": "newTokenHolderWallet",
          "type": "address"
        }
      ],
      "name": "TokenHolderWalletSet",
      "type": "event"
    },
    {
      "inputs": [],
      "name": "REWARD_TOKEN",
      "outputs": [
        {
          "internalType": "contract IERC20SafeTransfers",
          "name": "",
          "type": "address"
        }
      ],
      "stateMutability": "view",
      "type": "function"
    },
    {
      "inputs": [],
      "name": "STAKING_POOL",
      "outputs": [
        {
          "internalType": "address",
          "name": "",
          "type": "address"
        }
      ],
      "stateMutability": "view",
      "type": "function"
    },
    {
      "inputs": [
        {
          "internalType": "bytes32",
          "name": "epochId",
          "type": "bytes32"
        },
        {
          "internalType": "address",
          "name": "recipient",
          "type": "address"
        },
        {
          "internalType": "uint256",
          "name": "amount",
          "type": "uint256"
        }
      ],
      "name": "canClaim",
      "outputs": [
        {
          "internalType": "enum ERC20ClaimWindowMerkleClaim.ClaimError",
          "name": "",
          "type": "uint8"
        }
      ],
      "stateMutability": "view",
      "type": "function"
    },
    {
      "inputs": [
        {
          "internalType": "bytes32",
          "name": "epochId",
          "type": "bytes32"
        },
        {
          "internalType": "address",
          "name": "recipient",
          "type": "address"
        },
        {
          "internalType": "uint256",
          "name": "amount",
          "type": "uint256"
        },
        {
          "internalType": "bytes32[]",
          "name": "proof",
          "type": "bytes32[]"
        }
      ],
      "name": "claimAndStake",
      "outputs": [],
      "stateMutability": "nonpayable",
      "type": "function"
    },
    {
      "inputs": [
        {
          "internalType": "bytes32",
          "name": "epochId",
          "type": "bytes32"
        }
      ],
      "name": "claimWindows",
      "outputs": [
        {
          "internalType": "bytes32",
          "name": "merkleRoot",
          "type": "bytes32"
        },
        {
          "internalType": "uint256",
          "name": "startTime",
          "type": "uint256"
        },
        {
          "internalType": "uint256",
          "name": "endTime",
          "type": "uint256"
        }
      ],
      "stateMutability": "view",
      "type": "function"
    },
    {
      "inputs": [
        {
          "internalType": "bytes32",
          "name": "leaf",
          "type": "bytes32"
        }
      ],
      "name": "claimed",
      "outputs": [
        {
          "internalType": "bool",
          "name": "claimed",
          "type": "bool"
        }
      ],
      "stateMutability": "view",
      "type": "function"
    },
    {
      "inputs": [],
      "name": "forwarderRegistry",
      "outputs": [
        {
          "internalType": "contract IForwarderRegistry",
          "name": "",
          "type": "address"
        }
      ],
      "stateMutability": "view",
      "type": "function"
    },
    {
      "inputs": [
        {
          "internalType": "address",
          "name": "forwarder",
          "type": "address"
        }
      ],
      "name": "isTrustedForwarder",
      "outputs": [
        {
          "internalType": "bool",
          "name": "",
          "type": "bool"
        }
      ],
      "stateMutability": "view",
      "type": "function"
    },
    {
      "inputs": [],
      "name": "owner",
      "outputs": [
        {
          "internalType": "address",
          "name": "",
          "type": "address"
        }
      ],
      "stateMutability": "view",
      "type": "function"
    },
    {
      "inputs": [
        {
          "internalType": "bytes32",
          "name": "epochId",
          "type": "bytes32"
        },
        {
          "internalType": "bytes32",
          "name": "merkleRoot",
          "type": "bytes32"
        },
        {
          "internalType": "uint256",
          "name": "startTime",
          "type": "uint256"
        },
        {
          "internalType": "uint256",
          "name": "endTime",
          "type": "uint256"
        }
      ],
      "name": "setEpochMerkleRoot",
      "outputs": [],
      "stateMutability": "nonpayable",
      "type": "function"
    },
    {
      "inputs": [
        {
          "internalType": "address",
          "name": "newTokenHolderWallet",
          "type": "address"
        }
      ],
      "name": "setTokenHolderWallet",
      "outputs": [],
      "stateMutability": "nonpayable",
      "type": "function"
    },
    {
      "inputs": [
        {
          "internalType": "bytes4",
          "name": "interfaceId",
          "type": "bytes4"
        }
      ],
      "name": "supportsInterface",
      "outputs": [
        {
          "internalType": "bool",
          "name": "",
          "type": "bool"
        }
      ],
      "stateMutability": "view",
      "type": "function"
    },
    {
      "inputs": [],
      "name": "tokenHolderWallet",
      "outputs": [
        {
          "internalType": "address",
          "name": "",
          "type": "address"
        }
      ],
      "stateMutability": "view",
      "type": "function"
    },
    {
      "inputs": [
        {
          "internalType": "address",
          "name": "newOwner",
          "type": "address"
        }
      ],
      "name": "transferOwnership",
      "outputs": [],
      "stateMutability": "nonpayable",
      "type": "function"
    }
  ],
  "bytecode": "0x60e060405234801561001057600080fd5b506040516114c33803806114c383398101604081905261002f91610244565b6001600160a01b0381166080523361004f816100496100f8565b9061012c565b506001600160a01b0384166100775760405163dfde867160e01b815260040160405180910390fd5b6001600160a01b0380851660a05283166100a457604051633b106f8560e01b815260040160405180910390fd5b6001600160a01b0383811660c052600080546001600160a01b03191691841691821781556040517f329827290d5ca169f07779e969ad40b6df3087f6c12c9467c96f1a88316a5bdb9190a2505050506102c4565b60008061012660017fc9ed16f33ab3a66c84bfd83099ccb2a8845871e2e1c1928f63797152f0fd54cd6102a3565b92915050565b6001600160a01b038116156101825781546001600160a01b0319166001600160a01b03821690811783556040516000907f8be0079c531659141344cd1fd0a4f28419497f9722a3daafe3b4186f6b6457e0908290a35b61019e6307f5828d60e41b60016101976101a2565b91906101d0565b5050565b60008061012660017fca9d3e17f264b0f3984e2634e94adb37fa3e6a8103f06aeae6fa59e21c769f5e6102a3565b600160e01b6001600160e01b03198316016101fe576040516372c683bb60e01b815260040160405180910390fd5b6001600160e01b03199190911660009081526020929092526040909120805460ff1916911515919091179055565b6001600160a01b038116811461024157600080fd5b50565b6000806000806080858703121561025a57600080fd5b84516102658161022c565b60208601519094506102768161022c565b60408601519093506102878161022c565b60608601519092506102988161022c565b939692955090935050565b8181038181111561012657634e487b7160e01b600052601160045260246000fd5b60805160a05160c0516111ad6103166000396000818161013101526106e401526000818161020b01526106b701526000818161017a015281816101c101528181610cb10152610d3f01526111ad6000f3fe608060405234801561001057600080fd5b50600436106100ea5760003560e01c806399248ea71161008c578063dc45def611610066578063dc45def614610270578063ec7f7494146102b9578063f2fde38b146102cc578063fbb0f673146102df57600080fd5b806399248ea714610206578063cc3c0f061461022d578063d6a3138b1461025057600080fd5b80632b4c9f16116100c85780632b4c9f1614610178578063563cac281461019e578063572b6c05146101b15780638da5cb5b146101fe57600080fd5b806301ffc9a7146100ef5780630328a8fc1461011757806314ae36ae1461012c575b600080fd5b6101026100fd366004610e2f565b6102ff565b60405190151581526020015b60405180910390f35b61012a610125366004610e71565b610319565b005b6101537f000000000000000000000000000000000000000000000000000000000000000081565b60405173ffffffffffffffffffffffffffffffffffffffff909116815260200161010e565b7f0000000000000000000000000000000000000000000000000000000000000000610153565b61012a6101ac366004610ecc565b61048e565b6101026101bf366004610f65565b7f000000000000000000000000000000000000000000000000000000000000000073ffffffffffffffffffffffffffffffffffffffff90811691161490565b6101536107fd565b6101537f000000000000000000000000000000000000000000000000000000000000000081565b61010261023b366004610f80565b60026020526000908152604090205460ff1681565b61026361025e366004610f99565b610829565b60405161010e9190610ffe565b61029e61027e366004610f80565b600160208190526000918252604090912080549181015460029091015483565b6040805193845260208401929092529082015260600161010e565b61012a6102c7366004610f65565b6108a1565b61012a6102da366004610f65565b610919565b6000546101539073ffffffffffffffffffffffffffffffffffffffff1681565b60006103138261030d610937565b90610965565b92915050565b610332610324610a3f565b61032c610a49565b90610a77565b82610369576040517f9dd854d300000000000000000000000000000000000000000000000000000000815260040160405180910390fd5b80821015806103785750428111155b156103c4576040517f790c7cef00000000000000000000000000000000000000000000000000000000815260048101839052602481018290524260448201526064015b60405180910390fd5b6000848152600160205260409020541561040d576040517fed10979d000000000000000000000000000000000000000000000000000000008152600481018590526024016103bb565b60408051606081018252848152602080820185815282840185815260008981526001938490528590209351845590519183019190915551600290910155518190849086907f97df4a2fb6656595bc6eb616c2068e9d50031428ef69d8849590bc9f3dec620b906104809087815260200190565b60405180910390a450505050565b604080516020808201889052606087901b7fffffffffffffffffffffffffffffffffffffffff00000000000000000000000016828401526054808301879052835180840390910181526074909201835281519181019190912060008881526001909252918120906104ff8284610ae6565b9050600181600381111561051557610515610fcf565b0361054f576040517f84f229dc000000000000000000000000000000000000000000000000000000008152600481018990526024016103bb565b600281600381111561056357610563610fcf565b036105a3576040517fdbeb4f4d000000000000000000000000000000000000000000000000000000008152600481018990524260248201526044016103bb565b60038160038111156105b7576105b7610fcf565b036105f8576040517fdc20789f00000000000000000000000000000000000000000000000000000000815260048101899052602481018490526044016103bb565b815461060686868387610b41565b610662576040517fcc55900d000000000000000000000000000000000000000000000000000000008152600481018a905273ffffffffffffffffffffffffffffffffffffffff89166024820152604481018890526064016103bb565b600084815260026020908152604080832080547fffffffffffffffffffffffffffffffffffffffffffffffffffffffffffffff001660011790559154915173ffffffffffffffffffffffffffffffffffffffff7f000000000000000000000000000000000000000000000000000000000000000081169363b88d4fde939116917f0000000000000000000000000000000000000000000000000000000000000000918c9161072e918f910173ffffffffffffffffffffffffffffffffffffffff91909116815260200190565b6040516020818303038152906040526040518563ffffffff1660e01b815260040161075c949392919061103f565b6020604051808303816000875af115801561077b573d6000803e3d6000fd5b505050506040513d601f19601f8201168201806040525081019061079f91906110ec565b508773ffffffffffffffffffffffffffffffffffffffff16818a7f06da15703c9baa6922f6a2f40fe90a03f70a24b9113edd75f913454a45d996cd8a6040516107ea91815260200190565b60405180910390a4505050505050505050565b600061082461080a610a49565b5473ffffffffffffffffffffffffffffffffffffffff1690565b905090565b600083815260016020908152604080832081519283018790527fffffffffffffffffffffffffffffffffffffffff000000000000000000000000606087901b1691830191909152605482018490526108999160740160405160208183030381529060405280519060200120610ae6565b949350505050565b6108ac610324610a3f565b600080547fffffffffffffffffffffffff00000000000000000000000000000000000000001673ffffffffffffffffffffffffffffffffffffffff8316908117825560405190917f329827290d5ca169f07779e969ad40b6df3087f6c12c9467c96f1a88316a5bdb91a250565b610934610924610a3f565b8261092d610a49565b9190610b59565b50565b60008061031360017fca9d3e17f264b0f3984e2634e94adb37fa3e6a8103f06aeae6fa59e21c769f5e61110e565b60007c01000000000000000000000000000000000000000000000000000000007fffffffff000000000000000000000000000000000000000000000000000000008316016109b557506000610313565b7ffe003659000000000000000000000000000000000000000000000000000000007fffffffff00000000000000000000000000000000000000000000000000000000831601610a0657506001610313565b507fffffffff00000000000000000000000000000000000000000000000000000000166000908152602091909152604090205460ff1690565b6000610824610c6e565b60008061031360017fc9ed16f33ab3a66c84bfd83099ccb2a8845871e2e1c1928f63797152f0fd54cd61110e565b815473ffffffffffffffffffffffffffffffffffffffff828116911614610ae2576040517f2ef4875e00000000000000000000000000000000000000000000000000000000815273ffffffffffffffffffffffffffffffffffffffff821660048201526024016103bb565b5050565b8154600090610af757506001610313565b8260010154421080610b0c5750826002015442115b15610b1957506002610313565b60008281526002602052604090205460ff1615610b3857506003610313565b50600092915050565b600082610b4f868685610dbb565b1495945050505050565b825473ffffffffffffffffffffffffffffffffffffffff9081169083168114610bc6576040517f2ef4875e00000000000000000000000000000000000000000000000000000000815273ffffffffffffffffffffffffffffffffffffffff841660048201526024016103bb565b8173ffffffffffffffffffffffffffffffffffffffff168173ffffffffffffffffffffffffffffffffffffffff1614610c685783547fffffffffffffffffffffffff00000000000000000000000000000000000000001673ffffffffffffffffffffffffffffffffffffffff8381169182178655604051908316907f8be0079c531659141344cd1fd0a4f28419497f9722a3daafe3b4186f6b6457e090600090a35b50505050565b600033321480610c7e5750601836105b15610c8857503390565b7fffffffffffffffffffffffffffffffffffffffffffffffffffffffffffffffec36013560601c7f000000000000000000000000000000000000000000000000000000000000000073ffffffffffffffffffffffffffffffffffffffff16331480610daa57506040517f019a202800000000000000000000000000000000000000000000000000000000815273ffffffffffffffffffffffffffffffffffffffff82811660048301523360248301523060448301527f0000000000000000000000000000000000000000000000000000000000000000169063019a202890606401602060405180830381865afa158015610d86573d6000803e3d6000fd5b505050506040513d601f19601f82011682018060405250810190610daa91906110ec565b15610db457919050565b3391505090565b600081815b84811015610df457610dea82878784818110610dde57610dde611148565b90506020020135610dfd565b9150600101610dc0565b50949350505050565b6000818310610e19576000828152602084905260409020610e28565b60008381526020839052604090205b9392505050565b600060208284031215610e4157600080fd5b81357fffffffff0000000000000000000000000000000000000000000000000000000081168114610e2857600080fd5b60008060008060808587031215610e8757600080fd5b5050823594602084013594506040840135936060013592509050565b803573ffffffffffffffffffffffffffffffffffffffff81168114610ec757600080fd5b919050565b600080600080600060808688031215610ee457600080fd5b85359450610ef460208701610ea3565b935060408601359250606086013567ffffffffffffffff811115610f1757600080fd5b8601601f81018813610f2857600080fd5b803567ffffffffffffffff811115610f3f57600080fd5b8860208260051b8401011115610f5457600080fd5b959894975092955050506020019190565b600060208284031215610f7757600080fd5b610e2882610ea3565b600060208284031215610f9257600080fd5b5035919050565b600080600060608486031215610fae57600080fd5b83359250610fbe60208501610ea3565b929592945050506040919091013590565b7f4e487b7100000000000000000000000000000000000000000000000000000000600052602160045260246000fd5b6020810160048310611039577f4e487b7100000000000000000000000000000000000000000000000000000000600052602160045260246000fd5b91905290565b73ffffffffffffffffffffffffffffffffffffffff8516815273ffffffffffffffffffffffffffffffffffffffff84166020820152826040820152608060608201526000825180608084015260005b818110156110ab57602081860181015160a086840101520161108e565b50600060a0828501015260a07fffffffffffffffffffffffffffffffffffffffffffffffffffffffffffffffe0601f83011684010191505095945050505050565b6000602082840312156110fe57600080fd5b81518015158114610e2857600080fd5b81810381811115610313577f4e487b7100000000000000000000000000000000000000000000000000000000600052601160045260246000fd5b7f4e487b7100000000000000000000000000000000000000000000000000000000600052603260045260246000fdfea26469706673582212204d051913e907b2bf97e4ed158e5d512489a4d1246cdcc3a07e6c0b05b8309f5f64736f6c634300081c0033",
  "linkReferences": {},
  "deployedLinkReferences": {}
}