{
  "_format": "hh-sol-artifact-1",
  "contractName": "AbstractGaslessPaymaster",
  "sourceName": "contracts/paymaster/AbstractGaslessPaymaster.sol",
  "abi": [
    {
      "inputs": [
        {
          "internalType": "address",
          "name": "sponsoredContract",
          "type": "address"
        },
        {
          "internalType": "bytes4",
          "name": "sponsoredSelector",
          "type": "bytes4"
        }
      ],
      "stateMutability": "nonpayable",
      "type": "constructor"
    },
    {
      "inputs": [
        {
          "internalType": "uint256",
          "name": "fee",
          "type": "uint256"
        }
      ],
      "name": "FailedFeeTransfer",
      "type": "error"
    },
    {
      "inputs": [],
      "name": "IllegalInterfaceId",
      "type": "error"
    },
    {
      "inputs": [],
      "name": "InsufficientBalance",
      "type": "error"
    },
    {
      "inputs": [],
      "name": "InvalidSelector",
      "type": "error"
    },
    {
      "inputs": [],
      "name": "InvalidToAddress",
      "type": "error"
    },
    {
      "inputs": [
        {
          "internalType": "address",
          "name": "account",
          "type": "address"
        }
      ],
      "name": "NotContractOwner",
      "type": "error"
    },
    {
      "inputs": [],
      "name": "NotFromBootloader",
      "type": "error"
    },
    {
      "inputs": [],
      "name": "ShortPaymasterInput",
      "type": "error"
    },
    {
      "inputs": [],
      "name": "UnsupportedPaymasterFlow",
      "type": "error"
    },
    {
      "inputs": [],
      "name": "WithdrawFailed",
      "type": "error"
    },
    {
      "anonymous": false,
      "inputs": [
        {
          "indexed": true,
          "internalType": "uint256",
          "name": "amount",
          "type": "uint256"
        }
      ],
      "name": "BalanceWithdrawn",
      "type": "event"
    },
    {
      "anonymous": false,
      "inputs": [
        {
          "indexed": true,
          "internalType": "address",
          "name": "user",
          "type": "address"
        }
      ],
      "name": "FeeSponsored",
      "type": "event"
    },
    {
      "anonymous": false,
      "inputs": [
        {
          "indexed": true,
          "internalType": "address",
          "name": "previousOwner",
          "type": "address"
        },
        {
          "indexed": true,
          "internalType": "address",
          "name": "newOwner",
          "type": "address"
        }
      ],
      "name": "OwnershipTransferred",
      "type": "event"
    },
    {
      "anonymous": false,
      "inputs": [
        {
          "indexed": true,
          "internalType": "address",
          "name": "target",
          "type": "address"
        },
        {
          "indexed": true,
          "internalType": "bool",
          "name": "whitelisted",
          "type": "bool"
        }
      ],
      "name": "WhatlistedContract",
      "type": "event"
    },
    {
      "inputs": [],
      "name": "SPONSORED_CONTRACT",
      "outputs": [
        {
          "internalType": "address",
          "name": "",
          "type": "address"
        }
      ],
      "stateMutability": "view",
      "type": "function"
    },
    {
      "inputs": [],
      "name": "SPONSORED_SELECTOR",
      "outputs": [
        {
          "internalType": "bytes4",
          "name": "",
          "type": "bytes4"
        }
      ],
      "stateMutability": "view",
      "type": "function"
    },
    {
      "inputs": [],
      "name": "owner",
      "outputs": [
        {
          "internalType": "address",
          "name": "",
          "type": "address"
        }
      ],
      "stateMutability": "view",
      "type": "function"
    },
    {
      "inputs": [
        {
          "internalType": "bytes",
          "name": "",
          "type": "bytes"
        },
        {
          "components": [
            {
              "internalType": "uint256",
              "name": "txType",
              "type": "uint256"
            },
            {
              "internalType": "uint256",
              "name": "from",
              "type": "uint256"
            },
            {
              "internalType": "uint256",
              "name": "to",
              "type": "uint256"
            },
            {
              "internalType": "uint256",
              "name": "gasLimit",
              "type": "uint256"
            },
            {
              "internalType": "uint256",
              "name": "gasPerPubdataByteLimit",
              "type": "uint256"
            },
            {
              "internalType": "uint256",
              "name": "maxFeePerGas",
              "type": "uint256"
            },
            {
              "internalType": "uint256",
              "name": "maxPriorityFeePerGas",
              "type": "uint256"
            },
            {
              "internalType": "uint256",
              "name": "paymaster",
              "type": "uint256"
            },
            {
              "internalType": "uint256",
              "name": "nonce",
              "type": "uint256"
            },
            {
              "internalType": "uint256",
              "name": "value",
              "type": "uint256"
            },
            {
              "internalType": "uint256[4]",
              "name": "reserved",
              "type": "uint256[4]"
            },
            {
              "internalType": "bytes",
              "name": "data",
              "type": "bytes"
            },
            {
              "internalType": "bytes",
              "name": "signature",
              "type": "bytes"
            },
            {
              "internalType": "bytes32[]",
              "name": "factoryDeps",
              "type": "bytes32[]"
            },
            {
              "internalType": "bytes",
              "name": "paymasterInput",
              "type": "bytes"
            },
            {
              "internalType": "bytes",
              "name": "reservedDynamic",
              "type": "bytes"
            }
          ],
          "internalType": "struct Transaction",
          "name": "_transaction",
          "type": "tuple"
        },
        {
          "internalType": "bytes32",
          "name": "",
          "type": "bytes32"
        },
        {
          "internalType": "bytes32",
          "name": "",
          "type": "bytes32"
        },
        {
          "internalType": "enum ExecutionResult",
          "name": "",
          "type": "uint8"
        },
        {
          "internalType": "uint256",
          "name": "",
          "type": "uint256"
        }
      ],
      "name": "postTransaction",
      "outputs": [],
      "stateMutability": "payable",
      "type": "function"
    },
    {
      "inputs": [
        {
          "internalType": "bytes4",
          "name": "interfaceId",
          "type": "bytes4"
        }
      ],
      "name": "supportsInterface",
      "outputs": [
        {
          "internalType": "bool",
          "name": "",
          "type": "bool"
        }
      ],
      "stateMutability": "view",
      "type": "function"
    },
    {
      "inputs": [
        {
          "internalType": "address",
          "name": "newOwner",
          "type": "address"
        }
      ],
      "name": "transferOwnership",
      "outputs": [],
      "stateMutability": "nonpayable",
      "type": "function"
    },
    {
      "inputs": [
        {
          "internalType": "bytes32",
          "name": "",
          "type": "bytes32"
        },
        {
          "internalType": "bytes32",
          "name": "",
          "type": "bytes32"
        },
        {
          "components": [
            {
              "internalType": "uint256",
              "name": "txType",
              "type": "uint256"
            },
            {
              "internalType": "uint256",
              "name": "from",
              "type": "uint256"
            },
            {
              "internalType": "uint256",
              "name": "to",
              "type": "uint256"
            },
            {
              "internalType": "uint256",
              "name": "gasLimit",
              "type": "uint256"
            },
            {
              "internalType": "uint256",
              "name": "gasPerPubdataByteLimit",
              "type": "uint256"
            },
            {
              "internalType": "uint256",
              "name": "maxFeePerGas",
              "type": "uint256"
            },
            {
              "internalType": "uint256",
              "name": "maxPriorityFeePerGas",
              "type": "uint256"
            },
            {
              "internalType": "uint256",
              "name": "paymaster",
              "type": "uint256"
            },
            {
              "internalType": "uint256",
              "name": "nonce",
              "type": "uint256"
            },
            {
              "internalType": "uint256",
              "name": "value",
              "type": "uint256"
            },
            {
              "internalType": "uint256[4]",
              "name": "reserved",
              "type": "uint256[4]"
            },
            {
              "internalType": "bytes",
              "name": "data",
              "type": "bytes"
            },
            {
              "internalType": "bytes",
              "name": "signature",
              "type": "bytes"
            },
            {
              "internalType": "bytes32[]",
              "name": "factoryDeps",
              "type": "bytes32[]"
            },
            {
              "internalType": "bytes",
              "name": "paymasterInput",
              "type": "bytes"
            },
            {
              "internalType": "bytes",
              "name": "reservedDynamic",
              "type": "bytes"
            }
          ],
          "internalType": "struct Transaction",
          "name": "_transaction",
          "type": "tuple"
        }
      ],
      "name": "validateAndPayForPaymasterTransaction",
      "outputs": [
        {
          "internalType": "bytes4",
          "name": "",
          "type": "bytes4"
        },
        {
          "internalType": "bytes",
          "name": "",
          "type": "bytes"
        }
      ],
      "stateMutability": "payable",
      "type": "function"
    },
    {
      "inputs": [
        {
          "internalType": "uint256",
          "name": "amount",
          "type": "uint256"
        }
      ],
      "name": "withdraw",
      "outputs": [],
      "stateMutability": "nonpayable",
      "type": "function"
    },
    {
      "stateMutability": "payable",
      "type": "receive"
    }
  ],
  "bytecode": "0x60c060405234801561001057600080fd5b5060405161112f38038061112f83398101604081905261002f91610197565b336100428161003c610063565b90610097565b506001600160a01b039091166080526001600160e01b03191660a05261020b565b60008061009160017fc9ed16f33ab3a66c84bfd83099ccb2a8845871e2e1c1928f63797152f0fd54cd6101ea565b92915050565b6001600160a01b038116156100ed5781546001600160a01b0319166001600160a01b03821690811783556040516000907f8be0079c531659141344cd1fd0a4f28419497f9722a3daafe3b4186f6b6457e0908290a35b6101096307f5828d60e41b600161010261010d565b919061013b565b5050565b60008061009160017fca9d3e17f264b0f3984e2634e94adb37fa3e6a8103f06aeae6fa59e21c769f5e6101ea565b600160e01b6001600160e01b0319831601610169576040516372c683bb60e01b815260040160405180910390fd5b6001600160e01b03199190911660009081526020929092526040909120805460ff1916911515919091179055565b600080604083850312156101aa57600080fd5b82516001600160a01b03811681146101c157600080fd5b60208401519092506001600160e01b0319811681146101df57600080fd5b809150509250929050565b8181038181111561009157634e487b7160e01b600052601160045260246000fd5b60805160a051610ef261023d6000396000818160f3015261044c01526000818161017a01526103890152610ef26000f3fe60806040526004361061007f5760003560e01c806357b3e1121161004e57806357b3e11214610168578063817b17f0146101c15780638da5cb5b146101d4578063f2fde38b146101e957600080fd5b806301ffc9a71461008b578063038a24bc146100c05780631bf8cea7146100e15780632e1a7d4d1461014657600080fd5b3661008657005b600080fd5b34801561009757600080fd5b506100ab6100a6366004610ac3565b610209565b60405190151581526020015b60405180910390f35b6100d36100ce366004610b25565b610223565b6040516100b7929190610b75565b3480156100ed57600080fd5b506101157f000000000000000000000000000000000000000000000000000000000000000081565b6040517fffffffff0000000000000000000000000000000000000000000000000000000090911681526020016100b7565b34801561015257600080fd5b50610166610161366004610c0a565b6105f0565b005b34801561017457600080fd5b5061019c7f000000000000000000000000000000000000000000000000000000000000000081565b60405173ffffffffffffffffffffffffffffffffffffffff90911681526020016100b7565b6101666101cf366004610c37565b610707565b3480156101e057600080fd5b5061019c6107c6565b3480156101f557600080fd5b50610166610204366004610d05565b6107f2565b600061021d82610217610809565b90610837565b92915050565b600060606004610237610220850185610d3b565b90501015610271576040517f1a53970000000000000000000000000000000000000000000000000000000000815260040160405180910390fd5b6000610281610220850185610d3b565b61029091600491600091610da7565b61029991610dd1565b90507fffffffff0000000000000000000000000000000000000000000000000000000081167f8c5a34450000000000000000000000000000000000000000000000000000000014610316576040517fff15b06900000000000000000000000000000000000000000000000000000000815260040160405180910390fd5b6103236180006001610e66565b73ffffffffffffffffffffffffffffffffffffffff163373ffffffffffffffffffffffffffffffffffffffff1614610387576040517f0e7b35b300000000000000000000000000000000000000000000000000000000815260040160405180910390fd5b7f000000000000000000000000000000000000000000000000000000000000000073ffffffffffffffffffffffffffffffffffffffff16846040013573ffffffffffffffffffffffffffffffffffffffff1614610410576040517f8aa3a72f00000000000000000000000000000000000000000000000000000000815260040160405180910390fd5b60046104206101c0860186610d3b565b905010806104b757507fffffffff000000000000000000000000000000000000000000000000000000007f00000000000000000000000000000000000000000000000000000000000000001661047a6101c0860186610d3b565b61048991600491600091610da7565b61049291610dd1565b7fffffffff000000000000000000000000000000000000000000000000000000001614155b156104ee576040517f7352d91c00000000000000000000000000000000000000000000000000000000815260040160405180910390fd5b600061050260a08601356060870135610e92565b905060006105136180006001610e66565b73ffffffffffffffffffffffffffffffffffffffff168260405160006040518083038185875af1925050503d806000811461056a576040519150601f19603f3d011682016040523d82523d6000602084013e61056f565b606091505b50509050806105b2576040517f93f87caf000000000000000000000000000000000000000000000000000000008152600481018390526024015b60405180910390fd5b50506040805160208101909152600081527f038a24bc0000000000000000000000000000000000000000000000000000000097909650945050505050565b4781111561062a576040517ff4d678b800000000000000000000000000000000000000000000000000000000815260040160405180910390fd5b3361063d81610637610911565b9061093f565b60008173ffffffffffffffffffffffffffffffffffffffff168360405160006040518083038185875af1925050503d8060008114610697576040519150601f19603f3d011682016040523d82523d6000602084013e61069c565b606091505b50509050806106d7576040517f750b219c00000000000000000000000000000000000000000000000000000000815260040160405180910390fd5b60405183907f39f8b889424a1684bd36857c25ab79691ed71adf60bbeca32820cb4de3c5884c90600090a2505050565b6107146180006001610e66565b73ffffffffffffffffffffffffffffffffffffffff163373ffffffffffffffffffffffffffffffffffffffff1614610778576040517f0e7b35b300000000000000000000000000000000000000000000000000000000815260040160405180910390fd5b60405173ffffffffffffffffffffffffffffffffffffffff602087013516907feae3fe01386dc000c00cb2660be8a0768d61b806623bad561dcae00c0083c51190600090a250505050505050565b60006107ed6107d3610911565b5473ffffffffffffffffffffffffffffffffffffffff1690565b905090565b61080633826107ff610911565b91906109ae565b50565b60008061021d60017fca9d3e17f264b0f3984e2634e94adb37fa3e6a8103f06aeae6fa59e21c769f5e610ea9565b60007c01000000000000000000000000000000000000000000000000000000007fffffffff000000000000000000000000000000000000000000000000000000008316016108875750600061021d565b7ffe003659000000000000000000000000000000000000000000000000000000007fffffffff000000000000000000000000000000000000000000000000000000008316016108d85750600161021d565b507fffffffff00000000000000000000000000000000000000000000000000000000166000908152602091909152604090205460ff1690565b60008061021d60017fc9ed16f33ab3a66c84bfd83099ccb2a8845871e2e1c1928f63797152f0fd54cd610ea9565b815473ffffffffffffffffffffffffffffffffffffffff8281169116146109aa576040517f2ef4875e00000000000000000000000000000000000000000000000000000000815273ffffffffffffffffffffffffffffffffffffffff821660048201526024016105a9565b5050565b825473ffffffffffffffffffffffffffffffffffffffff9081169083168114610a1b576040517f2ef4875e00000000000000000000000000000000000000000000000000000000815273ffffffffffffffffffffffffffffffffffffffff841660048201526024016105a9565b8173ffffffffffffffffffffffffffffffffffffffff168173ffffffffffffffffffffffffffffffffffffffff1614610abd5783547fffffffffffffffffffffffff00000000000000000000000000000000000000001673ffffffffffffffffffffffffffffffffffffffff8381169182178655604051908316907f8be0079c531659141344cd1fd0a4f28419497f9722a3daafe3b4186f6b6457e090600090a35b50505050565b600060208284031215610ad557600080fd5b81357fffffffff0000000000000000000000000000000000000000000000000000000081168114610b0557600080fd5b9392505050565b60006102608284031215610b1f57600080fd5b50919050565b600080600060608486031215610b3a57600080fd5b8335925060208401359150604084013567ffffffffffffffff811115610b5f57600080fd5b610b6b86828701610b0c565b9150509250925092565b7fffffffff0000000000000000000000000000000000000000000000000000000083168152604060208201526000825180604084015260005b81811015610bcb5760208186018101516060868401015201610bae565b5060006060828501015260607fffffffffffffffffffffffffffffffffffffffffffffffffffffffffffffffe0601f8301168401019150509392505050565b600060208284031215610c1c57600080fd5b5035919050565b803560028110610c3257600080fd5b919050565b600080600080600080600060c0888a031215610c5257600080fd5b873567ffffffffffffffff811115610c6957600080fd5b8801601f81018a13610c7a57600080fd5b803567ffffffffffffffff811115610c9157600080fd5b8a6020828401011115610ca357600080fd5b60209182019850965088013567ffffffffffffffff811115610cc457600080fd5b610cd08a828b01610b0c565b9550506040880135935060608801359250610ced60808901610c23565b96999598509396929591949193505060a09091013590565b600060208284031215610d1757600080fd5b813573ffffffffffffffffffffffffffffffffffffffff81168114610b0557600080fd5b60008083357fffffffffffffffffffffffffffffffffffffffffffffffffffffffffffffffe1843603018112610d7057600080fd5b83018035915067ffffffffffffffff821115610d8b57600080fd5b602001915036819003821315610da057600080fd5b9250929050565b60008085851115610db757600080fd5b83861115610dc457600080fd5b5050820193919092039150565b80357fffffffff000000000000000000000000000000000000000000000000000000008116906004841015610e30577fffffffff00000000000000000000000000000000000000000000000000000000808560040360031b1b82161691505b5092915050565b7f4e487b7100000000000000000000000000000000000000000000000000000000600052601160045260246000fd5b73ffffffffffffffffffffffffffffffffffffffff818116838216019081111561021d5761021d610e37565b808202811582820484141761021d5761021d610e37565b8181038181111561021d5761021d610e3756fea2646970667358221220e07cb59e3a5bac6a1f02401b6dc7c72928dfc352c80b477d7e797366231b29a764736f6c634300081c0033",
  "linkReferences": {},
  "deployedLinkReferences": {}
}