{
  "_format": "hh-sol-artifact-1",
  "contractName": "ERC721ClaimWindowMerkleClaim",
  "sourceName": "contracts/profilePic/ERC721ClaimWindowMerkleClaim.sol",
  "abi": [
    {
      "inputs": [
        {
          "internalType": "uint256",
          "name": "mintSupply",
          "type": "uint256"
        },
        {
          "internalType": "contract ERC721FullBurn",
          "name": "rewardContract",
          "type": "address"
        },
        {
          "internalType": "contract IForwarderRegistry",
          "name": "_forwarderRegistry",
          "type": "address"
        }
      ],
      "stateMutability": "nonpayable",
      "type": "constructor"
    },
    {
      "inputs": [
        {
          "internalType": "bytes32",
          "name": "epochId",
          "type": "bytes32"
        },
        {
          "internalType": "address",
          "name": "recipient",
          "type": "address"
        }
      ],
      "name": "AlreadyClaimed",
      "type": "error"
    },
    {
      "inputs": [
        {
          "internalType": "bytes32",
          "name": "epochId",
          "type": "bytes32"
        }
      ],
      "name": "EpochIdAlreadyExists",
      "type": "error"
    },
    {
      "inputs": [
        {
          "internalType": "bytes32",
          "name": "epochId",
          "type": "bytes32"
        }
      ],
      "name": "EpochIdNotExists",
      "type": "error"
    },
    {
      "inputs": [],
      "name": "ExceededMintSupply",
      "type": "error"
    },
    {
      "inputs": [],
      "name": "IllegalInterfaceId",
      "type": "error"
    },
    {
      "inputs": [
        {
          "internalType": "uint256",
          "name": "startTime",
          "type": "uint256"
        },
        {
          "internalType": "uint256",
          "name": "endTime",
          "type": "uint256"
        },
        {
          "internalType": "uint256",
          "name": "currentTime",
          "type": "uint256"
        }
      ],
      "name": "InvalidClaimWindow",
      "type": "error"
    },
    {
      "inputs": [
        {
          "internalType": "bytes32",
          "name": "epochId",
          "type": "bytes32"
        },
        {
          "internalType": "address",
          "name": "recipient",
          "type": "address"
        }
      ],
      "name": "InvalidProof",
      "type": "error"
    },
    {
      "inputs": [
        {
          "internalType": "address",
          "name": "account",
          "type": "address"
        }
      ],
      "name": "NotContractOwner",
      "type": "error"
    },
    {
      "inputs": [
        {
          "internalType": "bytes32",
          "name": "epochId",
          "type": "bytes32"
        },
        {
          "internalType": "uint256",
          "name": "currentTime",
          "type": "uint256"
        }
      ],
      "name": "OutOfClaimWindow",
      "type": "error"
    },
    {
      "anonymous": false,
      "inputs": [
        {
          "indexed": true,
          "internalType": "bytes32",
          "name": "epochId",
          "type": "bytes32"
        },
        {
          "indexed": true,
          "internalType": "bytes32",
          "name": "merkleRoot",
          "type": "bytes32"
        },
        {
          "indexed": false,
          "internalType": "uint256",
          "name": "startTime",
          "type": "uint256"
        },
        {
          "indexed": false,
          "internalType": "uint256",
          "name": "endTime",
          "type": "uint256"
        }
      ],
      "name": "EpochMerkleRootSet",
      "type": "event"
    },
    {
      "anonymous": false,
      "inputs": [
        {
          "indexed": true,
          "internalType": "address",
          "name": "previousOwner",
          "type": "address"
        },
        {
          "indexed": true,
          "internalType": "address",
          "name": "newOwner",
          "type": "address"
        }
      ],
      "name": "OwnershipTransferred",
      "type": "event"
    },
    {
      "anonymous": false,
      "inputs": [
        {
          "indexed": true,
          "internalType": "bytes32",
          "name": "epochId",
          "type": "bytes32"
        },
        {
          "indexed": true,
          "internalType": "address",
          "name": "recipient",
          "type": "address"
        },
        {
          "indexed": false,
          "internalType": "uint256",
          "name": "noOfTokensClaimed",
          "type": "uint256"
        }
      ],
      "name": "RewardClaimed",
      "type": "event"
    },
    {
      "inputs": [],
      "name": "MINT_SUPPLY",
      "outputs": [
        {
          "internalType": "uint256",
          "name": "",
          "type": "uint256"
        }
      ],
      "stateMutability": "view",
      "type": "function"
    },
    {
      "inputs": [],
      "name": "REWARD_CONTRACT",
      "outputs": [
        {
          "internalType": "contract ERC721FullBurn",
          "name": "",
          "type": "address"
        }
      ],
      "stateMutability": "view",
      "type": "function"
    },
    {
      "inputs": [
        {
          "internalType": "address",
          "name": "claimer",
          "type": "address"
        }
      ],
      "name": "canClaim",
      "outputs": [
        {
          "internalType": "bool",
          "name": "",
          "type": "bool"
        }
      ],
      "stateMutability": "view",
      "type": "function"
    },
    {
      "inputs": [
        {
          "internalType": "bytes32",
          "name": "epochId",
          "type": "bytes32"
        },
        {
          "internalType": "bytes32[]",
          "name": "proof",
          "type": "bytes32[]"
        },
        {
          "internalType": "address",
          "name": "recipient",
          "type": "address"
        }
      ],
      "name": "claim",
      "outputs": [],
      "stateMutability": "nonpayable",
      "type": "function"
    },
    {
      "inputs": [
        {
          "internalType": "bytes32",
          "name": "",
          "type": "bytes32"
        }
      ],
      "name": "claimWindows",
      "outputs": [
        {
          "internalType": "bytes32",
          "name": "merkleRoot",
          "type": "bytes32"
        },
        {
          "internalType": "uint256",
          "name": "startTime",
          "type": "uint256"
        },
        {
          "internalType": "uint256",
          "name": "endTime",
          "type": "uint256"
        }
      ],
      "stateMutability": "view",
      "type": "function"
    },
    {
      "inputs": [
        {
          "internalType": "address",
          "name": "",
          "type": "address"
        }
      ],
      "name": "claimed",
      "outputs": [
        {
          "internalType": "bool",
          "name": "",
          "type": "bool"
        }
      ],
      "stateMutability": "view",
      "type": "function"
    },
    {
      "inputs": [],
      "name": "forwarderRegistry",
      "outputs": [
        {
          "internalType": "contract IForwarderRegistry",
          "name": "",
          "type": "address"
        }
      ],
      "stateMutability": "view",
      "type": "function"
    },
    {
      "inputs": [
        {
          "internalType": "address",
          "name": "forwarder",
          "type": "address"
        }
      ],
      "name": "isTrustedForwarder",
      "outputs": [
        {
          "internalType": "bool",
          "name": "",
          "type": "bool"
        }
      ],
      "stateMutability": "view",
      "type": "function"
    },
    {
      "inputs": [],
      "name": "noOfTokensClaimed",
      "outputs": [
        {
          "internalType": "uint256",
          "name": "",
          "type": "uint256"
        }
      ],
      "stateMutability": "view",
      "type": "function"
    },
    {
      "inputs": [],
      "name": "owner",
      "outputs": [
        {
          "internalType": "address",
          "name": "",
          "type": "address"
        }
      ],
      "stateMutability": "view",
      "type": "function"
    },
    {
      "inputs": [
        {
          "internalType": "bytes32",
          "name": "epochId",
          "type": "bytes32"
        },
        {
          "internalType": "bytes32",
          "name": "merkleRoot",
          "type": "bytes32"
        },
        {
          "internalType": "uint256",
          "name": "startTime",
          "type": "uint256"
        },
        {
          "internalType": "uint256",
          "name": "endTime",
          "type": "uint256"
        }
      ],
      "name": "setEpochMerkleRoot",
      "outputs": [],
      "stateMutability": "nonpayable",
      "type": "function"
    },
    {
      "inputs": [
        {
          "internalType": "bytes4",
          "name": "interfaceId",
          "type": "bytes4"
        }
      ],
      "name": "supportsInterface",
      "outputs": [
        {
          "internalType": "bool",
          "name": "",
          "type": "bool"
        }
      ],
      "stateMutability": "view",
      "type": "function"
    },
    {
      "inputs": [
        {
          "internalType": "address",
          "name": "newOwner",
          "type": "address"
        }
      ],
      "name": "transferOwnership",
      "outputs": [],
      "stateMutability": "nonpayable",
      "type": "function"
    }
  ],
  "bytecode": "0x60e06040523480156200001157600080fd5b50604051620011ec380380620011ec8339810160408190526200003491620001c9565b6001600160a01b0381166080523362000058816200005162000072565b90620000a8565b505060c0919091526001600160a01b031660a05262000233565b600080620000a260017fc9ed16f33ab3a66c84bfd83099ccb2a8845871e2e1c1928f63797152f0fd54cd62000211565b92915050565b6001600160a01b03811615620000ff5781546001600160a01b0319166001600160a01b03821690811783556040516000907f8be0079c531659141344cd1fd0a4f28419497f9722a3daafe3b4186f6b6457e0908290a35b6200011f6307f5828d60e41b60016200011762000123565b919062000153565b5050565b600080620000a260017fca9d3e17f264b0f3984e2634e94adb37fa3e6a8103f06aeae6fa59e21c769f5e62000211565b600160e01b6001600160e01b031983160162000182576040516372c683bb60e01b815260040160405180910390fd5b6001600160e01b03199190911660009081526020929092526040909120805460ff1916911515919091179055565b6001600160a01b0381168114620001c657600080fd5b50565b600080600060608486031215620001df57600080fd5b835192506020840151620001f381620001b0565b60408501519092506200020681620001b0565b809150509250925092565b81810381811115620000a257634e487b7160e01b600052601160045260246000fd5b60805160a05160c051610f5f6200028d600039600081816101e90152818161044e01526106c801526000818161016d01526107b70152600081816101230152818161019f01528181610ba90152610c310152610f5f6000f3fe608060405234801561001057600080fd5b50600436106100df5760003560e01c80639dfbcde81161008c578063c884ef8311610066578063c884ef8314610235578063dc45def614610258578063eb02625c146102a1578063f2fde38b146102b457600080fd5b80639dfbcde8146101e4578063ba65912e14610219578063bf3506c11461022257600080fd5b80633a5af339116100bd5780633a5af33914610168578063572b6c051461018f5780638da5cb5b146101dc57600080fd5b806301ffc9a7146100e45780630328a8fc1461010c5780632b4c9f1614610121575b600080fd5b6100f76100f2366004610d22565b6102c7565b60405190151581526020015b60405180910390f35b61011f61011a366004610d64565b6102e1565b005b7f00000000000000000000000000000000000000000000000000000000000000005b60405173ffffffffffffffffffffffffffffffffffffffff9091168152602001610103565b6101437f000000000000000000000000000000000000000000000000000000000000000081565b6100f761019d366004610dbf565b7f000000000000000000000000000000000000000000000000000000000000000073ffffffffffffffffffffffffffffffffffffffff90811691161490565b61014361041e565b61020b7f000000000000000000000000000000000000000000000000000000000000000081565b604051908152602001610103565b61020b60005481565b6100f7610230366004610dbf565b61044a565b6100f7610243366004610dbf565b60026020526000908152604090205460ff1681565b610286610266366004610dda565b600160208190526000918252604090912080549181015460029091015483565b60408051938452602084019290925290820152606001610103565b61011f6102af366004610df3565b6104a5565b61011f6102c2366004610dbf565b61086e565b60006102db826102d561088c565b906108ba565b92915050565b6102fa6102ec610994565b6102f461099e565b906109cc565b80821015806103095750428111155b15610355576040517f790c7cef00000000000000000000000000000000000000000000000000000000815260048101839052602481018290524260448201526064015b60405180910390fd5b6000848152600160205260409020541561039e576040517fed10979d0000000000000000000000000000000000000000000000000000000081526004810185905260240161034c565b604080516060810182528481526020808201858152828401858152600089815260018085529086902094518555915191840191909155516002909201919091558151848152908101839052849186917f97df4a2fb6656595bc6eb616c2068e9d50031428ef69d8849590bc9f3dec620b910160405180910390a350505050565b600061044561042b61099e565b5473ffffffffffffffffffffffffffffffffffffffff1690565b905090565b60007f00000000000000000000000000000000000000000000000000000000000000006000541080156102db57505073ffffffffffffffffffffffffffffffffffffffff1660009081526002602052604090205460ff161590565b60008481526001602052604090208054806104ef576040517f84f229dc0000000000000000000000000000000000000000000000000000000081526004810187905260240161034c565b81600101544210806105045750816002015442115b15610544576040517fdbeb4f4d0000000000000000000000000000000000000000000000000000000081526004810187905242602482015260440161034c565b73ffffffffffffffffffffffffffffffffffffffff831660009081526002602052604090205460ff16156105c3576040517fa8ca238e0000000000000000000000000000000000000000000000000000000081526004810187905273ffffffffffffffffffffffffffffffffffffffff8416602482015260440161034c565b6000868460405160200161060692919091825260601b7fffffffffffffffffffffffffffffffffffffffff00000000000000000000000016602082015260340190565b6040516020818303038152906040528051906020012090506106608282888880806020026020016040519081016040528093929190818152602001838360200280828437600092019190915250929493925050610a3b9050565b6106b5576040517fa04a37c00000000000000000000000000000000000000000000000000000000081526004810188905273ffffffffffffffffffffffffffffffffffffffff8516602482015260440161034c565b600080546106c4906001610eb2565b90507f0000000000000000000000000000000000000000000000000000000000000000811115610720576040517f192d175500000000000000000000000000000000000000000000000000000000815260040160405180910390fd5b600081815573ffffffffffffffffffffffffffffffffffffffff8681168083526002602052604080842080547fffffffffffffffffffffffffffffffffffffffffffffffffffffffffffffff00166001179055517f8832e6e30000000000000000000000000000000000000000000000000000000081526004810191909152602481018490526060604482015260648101929092527f00000000000000000000000000000000000000000000000000000000000000001690638832e6e390608401600060405180830381600087803b1580156107fb57600080fd5b505af115801561080f573d6000803e3d6000fd5b505050508473ffffffffffffffffffffffffffffffffffffffff16887ffe236dfc7ce073698734b89da1aee0e7551c9c6d264404c502e6e8fefc1132a88360405161085c91815260200190565b60405180910390a35050505050505050565b610889610879610994565b8261088261099e565b9190610a51565b50565b6000806102db60017fca9d3e17f264b0f3984e2634e94adb37fa3e6a8103f06aeae6fa59e21c769f5e610ec5565b60007c01000000000000000000000000000000000000000000000000000000007fffffffff0000000000000000000000000000000000000000000000000000000083160161090a575060006102db565b7ffe003659000000000000000000000000000000000000000000000000000000007fffffffff0000000000000000000000000000000000000000000000000000000083160161095b575060016102db565b507fffffffff00000000000000000000000000000000000000000000000000000000166000908152602091909152604090205460ff1690565b6000610445610b66565b6000806102db60017fc9ed16f33ab3a66c84bfd83099ccb2a8845871e2e1c1928f63797152f0fd54cd610ec5565b815473ffffffffffffffffffffffffffffffffffffffff828116911614610a37576040517f2ef4875e00000000000000000000000000000000000000000000000000000000815273ffffffffffffffffffffffffffffffffffffffff8216600482015260240161034c565b5050565b600082610a488584610cad565b14949350505050565b825473ffffffffffffffffffffffffffffffffffffffff9081169083168114610abe576040517f2ef4875e00000000000000000000000000000000000000000000000000000000815273ffffffffffffffffffffffffffffffffffffffff8416600482015260240161034c565b8173ffffffffffffffffffffffffffffffffffffffff168173ffffffffffffffffffffffffffffffffffffffff1614610b605783547fffffffffffffffffffffffff00000000000000000000000000000000000000001673ffffffffffffffffffffffffffffffffffffffff8381169182178655604051908316907f8be0079c531659141344cd1fd0a4f28419497f9722a3daafe3b4186f6b6457e090600090a35b50505050565b600033321480610b765750601836105b15610b8057503390565b7fffffffffffffffffffffffffffffffffffffffffffffffffffffffffffffffec36013560601c7f000000000000000000000000000000000000000000000000000000000000000073ffffffffffffffffffffffffffffffffffffffff16331480610c9c57506040517f8929a8ca00000000000000000000000000000000000000000000000000000000815273ffffffffffffffffffffffffffffffffffffffff82811660048301523360248301527f00000000000000000000000000000000000000000000000000000000000000001690638929a8ca90604401602060405180830381865afa158015610c78573d6000803e3d6000fd5b505050506040513d601f19601f82011682018060405250810190610c9c9190610ed8565b15610ca657919050565b3391505090565b600081815b8451811015610ce857610cde82868381518110610cd157610cd1610efa565b6020026020010151610cf0565b9150600101610cb2565b509392505050565b6000818310610d0c576000828152602084905260409020610d1b565b60008381526020839052604090205b9392505050565b600060208284031215610d3457600080fd5b81357fffffffff0000000000000000000000000000000000000000000000000000000081168114610d1b57600080fd5b60008060008060808587031215610d7a57600080fd5b5050823594602084013594506040840135936060013592509050565b803573ffffffffffffffffffffffffffffffffffffffff81168114610dba57600080fd5b919050565b600060208284031215610dd157600080fd5b610d1b82610d96565b600060208284031215610dec57600080fd5b5035919050565b60008060008060608587031215610e0957600080fd5b84359350602085013567ffffffffffffffff80821115610e2857600080fd5b818701915087601f830112610e3c57600080fd5b813581811115610e4b57600080fd5b8860208260051b8501011115610e6057600080fd5b602083019550809450505050610e7860408601610d96565b905092959194509250565b7f4e487b7100000000000000000000000000000000000000000000000000000000600052601160045260246000fd5b808201808211156102db576102db610e83565b818103818111156102db576102db610e83565b600060208284031215610eea57600080fd5b81518015158114610d1b57600080fd5b7f4e487b7100000000000000000000000000000000000000000000000000000000600052603260045260246000fdfea2646970667358221220eaf4c1cb0ef5b497fa46fb90e2a93d750701aa08ed316d2f0521997cf6aac4e864736f6c63430008160033",
  "linkReferences": {},
  "deployedLinkReferences": {}
}