{
  "_format": "hh-sol-artifact-1",
  "contractName": "ScratchingMock",
  "sourceName": "contracts/mocks/game/ScratchingMock.sol",
  "abi": [
    {
      "inputs": [
        {
          "internalType": "address",
          "name": "scratchingBoard",
          "type": "address"
        },
        {
          "internalType": "contract IERC20",
          "name": "erc20Token",
          "type": "address"
        },
        {
          "internalType": "contract IRNGProvider",
          "name": "rngProvider",
          "type": "address"
        },
        {
          "internalType": "contract IPointsV2",
          "name": "points",
          "type": "address"
        }
      ],
      "stateMutability": "nonpayable",
      "type": "constructor"
    },
    {
      "inputs": [],
      "name": "FailedCall",
      "type": "error"
    },
    {
      "inputs": [],
      "name": "IllegalInterfaceId",
      "type": "error"
    },
    {
      "inputs": [],
      "name": "InconsistentArrayLengths",
      "type": "error"
    },
    {
      "inputs": [
        {
          "internalType": "address",
          "name": "caller",
          "type": "address"
        }
      ],
      "name": "IncorrectCallbackCaller",
      "type": "error"
    },
    {
      "inputs": [
        {
          "internalType": "uint256",
          "name": "tokenId",
          "type": "uint256"
        },
        {
          "internalType": "uint256",
          "name": "requiredAmount",
          "type": "uint256"
        },
        {
          "internalType": "uint256",
          "name": "providedAmount",
          "type": "uint256"
        }
      ],
      "name": "IncorrectPaymentAmount",
      "type": "error"
    },
    {
      "inputs": [
        {
          "internalType": "address",
          "name": "tokenContract",
          "type": "address"
        }
      ],
      "name": "IncorrectTokenContractType",
      "type": "error"
    },
    {
      "inputs": [
        {
          "internalType": "uint256",
          "name": "balance",
          "type": "uint256"
        },
        {
          "internalType": "uint256",
          "name": "needed",
          "type": "uint256"
        }
      ],
      "name": "InsufficientBalance",
      "type": "error"
    },
    {
      "inputs": [
        {
          "internalType": "address",
          "name": "account",
          "type": "address"
        }
      ],
      "name": "NotContractOwner",
      "type": "error"
    },
    {
      "inputs": [
        {
          "internalType": "uint256",
          "name": "tokenId",
          "type": "uint256"
        },
        {
          "internalType": "address",
          "name": "owner",
          "type": "address"
        },
        {
          "internalType": "address",
          "name": "caller",
          "type": "address"
        }
      ],
      "name": "NotTheTokenOwner",
      "type": "error"
    },
    {
      "inputs": [
        {
          "internalType": "address",
          "name": "wrongCaller",
          "type": "address"
        }
      ],
      "name": "OnlyRNGProviderCanFulfill",
      "type": "error"
    },
    {
      "inputs": [
        {
          "internalType": "address",
          "name": "token",
          "type": "address"
        }
      ],
      "name": "SafeERC20FailedOperation",
      "type": "error"
    },
    {
      "inputs": [
        {
          "internalType": "uint256",
          "name": "tokenId",
          "type": "uint256"
        },
        {
          "internalType": "uint256",
          "name": "requestId",
          "type": "uint256"
        }
      ],
      "name": "ScratchRequestPending",
      "type": "error"
    },
    {
      "inputs": [
        {
          "internalType": "uint256",
          "name": "requestId",
          "type": "uint256"
        }
      ],
      "name": "UnknownRequestId",
      "type": "error"
    },
    {
      "inputs": [
        {
          "internalType": "uint8",
          "name": "decimals",
          "type": "uint8"
        }
      ],
      "name": "UnsupportedERC20TokenDecimals",
      "type": "error"
    },
    {
      "anonymous": false,
      "inputs": [
        {
          "indexed": false,
          "internalType": "address",
          "name": "newHolder",
          "type": "address"
        }
      ],
      "name": "ERC20TokenHolderUpdated",
      "type": "event"
    },
    {
      "anonymous": false,
      "inputs": [
        {
          "indexed": true,
          "internalType": "address",
          "name": "previousOwner",
          "type": "address"
        },
        {
          "indexed": true,
          "internalType": "address",
          "name": "newOwner",
          "type": "address"
        }
      ],
      "name": "OwnershipTransferred",
      "type": "event"
    },
    {
      "anonymous": false,
      "inputs": [
        {
          "indexed": false,
          "internalType": "uint256",
          "name": "tokenId",
          "type": "uint256"
        },
        {
          "indexed": false,
          "internalType": "uint256",
          "name": "startScratchPosition",
          "type": "uint256"
        },
        {
          "indexed": false,
          "internalType": "uint256",
          "name": "endScratchPosition",
          "type": "uint256"
        },
        {
          "indexed": false,
          "internalType": "enum ScratchingLib.RewardType",
          "name": "rewardType",
          "type": "uint8"
        },
        {
          "indexed": false,
          "internalType": "uint256",
          "name": "rewardAmount",
          "type": "uint256"
        }
      ],
      "name": "ScratchedRow",
      "type": "event"
    },
    {
      "anonymous": false,
      "inputs": [
        {
          "indexed": false,
          "internalType": "uint256",
          "name": "tokenId",
          "type": "uint256"
        },
        {
          "indexed": false,
          "internalType": "uint256",
          "name": "scratchPosition",
          "type": "uint256"
        },
        {
          "indexed": false,
          "internalType": "enum ScratchingLib.RewardType",
          "name": "rewardType",
          "type": "uint8"
        },
        {
          "indexed": false,
          "internalType": "uint256",
          "name": "rewardAmount",
          "type": "uint256"
        }
      ],
      "name": "ScratchedSingle",
      "type": "event"
    },
    {
      "inputs": [],
      "name": "ERC20_DECIMALS",
      "outputs": [
        {
          "internalType": "uint8",
          "name": "",
          "type": "uint8"
        }
      ],
      "stateMutability": "view",
      "type": "function"
    },
    {
      "inputs": [],
      "name": "ERC20_TOKEN",
      "outputs": [
        {
          "internalType": "contract IERC20",
          "name": "",
          "type": "address"
        }
      ],
      "stateMutability": "view",
      "type": "function"
    },
    {
      "inputs": [],
      "name": "POINTS",
      "outputs": [
        {
          "internalType": "contract IPointsV2",
          "name": "",
          "type": "address"
        }
      ],
      "stateMutability": "view",
      "type": "function"
    },
    {
      "inputs": [],
      "name": "RNG_PROVIDER",
      "outputs": [
        {
          "internalType": "contract IRNGProvider",
          "name": "",
          "type": "address"
        }
      ],
      "stateMutability": "view",
      "type": "function"
    },
    {
      "inputs": [],
      "name": "SCRATCHING_BOARD",
      "outputs": [
        {
          "internalType": "address",
          "name": "",
          "type": "address"
        }
      ],
      "stateMutability": "view",
      "type": "function"
    },
    {
      "inputs": [
        {
          "internalType": "uint256",
          "name": "tokenId",
          "type": "uint256"
        }
      ],
      "name": "boardPositions",
      "outputs": [
        {
          "internalType": "uint256",
          "name": "",
          "type": "uint256"
        }
      ],
      "stateMutability": "view",
      "type": "function"
    },
    {
      "inputs": [],
      "name": "erc20TokenHolder",
      "outputs": [
        {
          "internalType": "address",
          "name": "",
          "type": "address"
        }
      ],
      "stateMutability": "view",
      "type": "function"
    },
    {
      "inputs": [
        {
          "internalType": "uint256",
          "name": "requestId",
          "type": "uint256"
        },
        {
          "internalType": "uint256[]",
          "name": "randomWords",
          "type": "uint256[]"
        }
      ],
      "name": "fulfillRandomness",
      "outputs": [],
      "stateMutability": "nonpayable",
      "type": "function"
    },
    {
      "inputs": [],
      "name": "getMintPrice",
      "outputs": [
        {
          "internalType": "uint256",
          "name": "",
          "type": "uint256"
        }
      ],
      "stateMutability": "pure",
      "type": "function"
    },
    {
      "inputs": [
        {
          "internalType": "uint256",
          "name": "tokenId",
          "type": "uint256"
        }
      ],
      "name": "getRowScratchPrice",
      "outputs": [
        {
          "internalType": "uint256",
          "name": "",
          "type": "uint256"
        }
      ],
      "stateMutability": "view",
      "type": "function"
    },
    {
      "inputs": [
        {
          "internalType": "uint256",
          "name": "tokenId",
          "type": "uint256"
        }
      ],
      "name": "getSingleScratchPrice",
      "outputs": [
        {
          "internalType": "uint256",
          "name": "",
          "type": "uint256"
        }
      ],
      "stateMutability": "view",
      "type": "function"
    },
    {
      "inputs": [
        {
          "internalType": "address",
          "name": "spender",
          "type": "address"
        },
        {
          "internalType": "uint256",
          "name": "amount",
          "type": "uint256"
        },
        {
          "internalType": "bytes",
          "name": "data",
          "type": "bytes"
        }
      ],
      "name": "onPointsSpent",
      "outputs": [
        {
          "internalType": "bytes4",
          "name": "",
          "type": "bytes4"
        }
      ],
      "stateMutability": "nonpayable",
      "type": "function"
    },
    {
      "inputs": [],
      "name": "owner",
      "outputs": [
        {
          "internalType": "address",
          "name": "",
          "type": "address"
        }
      ],
      "stateMutability": "view",
      "type": "function"
    },
    {
      "inputs": [
        {
          "internalType": "uint256",
          "name": "tokenId",
          "type": "uint256"
        }
      ],
      "name": "pendingScratchRequest",
      "outputs": [
        {
          "internalType": "uint256",
          "name": "requestId",
          "type": "uint256"
        }
      ],
      "stateMutability": "view",
      "type": "function"
    },
    {
      "inputs": [
        {
          "internalType": "address[]",
          "name": "accounts",
          "type": "address[]"
        },
        {
          "internalType": "contract IERC20[]",
          "name": "tokens",
          "type": "address[]"
        },
        {
          "internalType": "uint256[]",
          "name": "amounts",
          "type": "uint256[]"
        }
      ],
      "name": "recoverERC20s",
      "outputs": [],
      "stateMutability": "nonpayable",
      "type": "function"
    },
    {
      "inputs": [
        {
          "internalType": "address[]",
          "name": "accounts",
          "type": "address[]"
        },
        {
          "internalType": "contract IERC721[]",
          "name": "contracts",
          "type": "address[]"
        },
        {
          "internalType": "uint256[]",
          "name": "tokenIds",
          "type": "uint256[]"
        }
      ],
      "name": "recoverERC721s",
      "outputs": [],
      "stateMutability": "nonpayable",
      "type": "function"
    },
    {
      "inputs": [
        {
          "internalType": "address payable[]",
          "name": "accounts",
          "type": "address[]"
        },
        {
          "internalType": "uint256[]",
          "name": "amounts",
          "type": "uint256[]"
        }
      ],
      "name": "recoverETH",
      "outputs": [],
      "stateMutability": "nonpayable",
      "type": "function"
    },
    {
      "inputs": [
        {
          "internalType": "uint256",
          "name": "requestId",
          "type": "uint256"
        }
      ],
      "name": "scratchRequests",
      "outputs": [
        {
          "internalType": "uint256",
          "name": "tokenId",
          "type": "uint256"
        },
        {
          "internalType": "enum Scratching.RequestType",
          "name": "requestType",
          "type": "uint8"
        }
      ],
      "stateMutability": "view",
      "type": "function"
    },
    {
      "inputs": [
        {
          "internalType": "uint256",
          "name": "tokenId",
          "type": "uint256"
        },
        {
          "internalType": "uint256",
          "name": "position",
          "type": "uint256"
        }
      ],
      "name": "setBoardPosition",
      "outputs": [],
      "stateMutability": "nonpayable",
      "type": "function"
    },
    {
      "inputs": [
        {
          "internalType": "address",
          "name": "holder",
          "type": "address"
        }
      ],
      "name": "setERC20TokenHolder",
      "outputs": [],
      "stateMutability": "nonpayable",
      "type": "function"
    },
    {
      "inputs": [
        {
          "internalType": "uint256",
          "name": "tokenId",
          "type": "uint256"
        },
        {
          "internalType": "uint256",
          "name": "requestId",
          "type": "uint256"
        }
      ],
      "name": "setPendingScratchRequest",
      "outputs": [],
      "stateMutability": "nonpayable",
      "type": "function"
    },
    {
      "inputs": [
        {
          "internalType": "bytes4",
          "name": "interfaceId",
          "type": "bytes4"
        }
      ],
      "name": "supportsInterface",
      "outputs": [
        {
          "internalType": "bool",
          "name": "",
          "type": "bool"
        }
      ],
      "stateMutability": "view",
      "type": "function"
    },
    {
      "inputs": [
        {
          "internalType": "address",
          "name": "newOwner",
          "type": "address"
        }
      ],
      "name": "transferOwnership",
      "outputs": [],
      "stateMutability": "nonpayable",
      "type": "function"
    }
  ],
  "bytecode": "0x610120806040523461024557608081614d738038038091610020828561024a565b833981010312610245578051906001600160a01b03821682036102455760208101516001600160a01b03811690818103610245576040830151926001600160a01b03841684036102455760600151936001600160a01b038516850361024557600494602094336101e6575b6307f5828d60e41b6000527fca9d3e17f264b0f3984e2634e94adb37fa3e6a8103f06aeae6fa59e21c769f5d86526040600020600160ff1982541617905560805260a05260c05260e0526040519283809263313ce56760e01b82525afa9081156101da57600091610199575b508060ff9161010052166002811061018557604051614aef908161028482396080518181816106f801528181610bdc0152611386015260a0518181816105b30152610ff2015260c051818181610664015281816108ee015281816112b10152611f5a015260e0518181816104ff015261202f0152610100518181816111f801528181611401015261155a0152f35b633c66f6f560e21b60005260045260246000fd5b6020813d6020116101d2575b816101b26020938361024a565b810103126101ce575160ff811681036101ce57905060ff6100f7565b5080fd5b3d91506101a5565b6040513d6000823e3d90fd5b7fc9ed16f33ab3a66c84bfd83099ccb2a8845871e2e1c1928f63797152f0fd54cc80546001600160a01b0319163390811790915560007f8be0079c531659141344cd1fd0a4f28419497f9722a3daafe3b4186f6b6457e08180a361008b565b600080fd5b601f909101601f19168101906001600160401b0382119082101761026d57604052565b634e487b7160e01b600052604160045260246000fdfe6080604052600436101561001257600080fd5b60003560e01c80624086f11461184c57806301ffc9a7146117dc578063024f5f4c14611792578063088680171461131f5780630ac7843c146112d55780633a10680014611266578063400c10501461121c5780636b0219d7146111c057806373c8a958146110825780637a33626c146110385780637cd792c2146110165780637f6e428114610fa75780638da5cb5b14610f36578063a7f93ebd14610efa578063b763d84714610e97578063be16663714610e45578063c3666c3614610c00578063c440450e14610b91578063c8dadb9c14610aad578063d2741e8314610523578063efc4c631146104b4578063f2fde38b1461039e5763f7ba94bd1461011857600080fd5b346103425760407ffffffffffffffffffffffffffffffffffffffffffffffffffffffffffffffffc3601126103425760043567ffffffffffffffff8111610342576101679036906004016118a2565b60243567ffffffffffffffff8111610342576101879036906004016118a2565b909173ffffffffffffffffffffffffffffffffffffffff7fc9ed16f33ab3a66c84bfd83099ccb2a8845871e2e1c1928f63797152f0fd54cc541673ffffffffffffffffffffffffffffffffffffffff331690810361037157508181036103475760005b8181106101f357005b6101fe818387611a38565b3573ffffffffffffffffffffffffffffffffffffffff811680910361034257610228828587611a38565b359081471061031057600080809381935af13d15610308573d9067ffffffffffffffff82116102d9576040519161028760207fffffffffffffffffffffffffffffffffffffffffffffffffffffffffffffffe0601f8401160184611e92565b82523d6000602084013e5b156102a057506001016101ea565b8051156102af57805190602001fd5b7fd6bda2750000000000000000000000000000000000000000000000000000000060005260046000fd5b7f4e487b7100000000000000000000000000000000000000000000000000000000600052604160045260246000fd5b606090610292565b50477fcf4791810000000000000000000000000000000000000000000000000000000060005260045260245260446000fd5b600080fd5b7f658253360000000000000000000000000000000000000000000000000000000060005260046000fd5b7f2ef4875e0000000000000000000000000000000000000000000000000000000060005260045260246000fd5b346103425760207ffffffffffffffffffffffffffffffffffffffffffffffffffffffffffffffffc360112610342576103d5611966565b7fc9ed16f33ab3a66c84bfd83099ccb2a8845871e2e1c1928f63797152f0fd54cc9073ffffffffffffffffffffffffffffffffffffffff825416908133036104865773ffffffffffffffffffffffffffffffffffffffff169182820361043757005b827fffffffffffffffffffffffff00000000000000000000000000000000000000008254161790557f8be0079c531659141344cd1fd0a4f28419497f9722a3daafe3b4186f6b6457e0600080a3005b7f2ef4875e000000000000000000000000000000000000000000000000000000006000523360045260246000fd5b346103425760007ffffffffffffffffffffffffffffffffffffffffffffffffffffffffffffffffc36011261034257602060405173ffffffffffffffffffffffffffffffffffffffff7f0000000000000000000000000000000000000000000000000000000000000000168152f35b346103425760607ffffffffffffffffffffffffffffffffffffffffffffffffffffffffffffffffc3601126103425761055a611966565b602435906044359067ffffffffffffffff8211610342573660238301121561034257816004013567ffffffffffffffff81116103425782013660248201116103425773ffffffffffffffffffffffffffffffffffffffff7f0000000000000000000000000000000000000000000000000000000000000000163303610a7f576040908390031261034257602482013591600383101561034257600091906044013582846108a057505073ffffffffffffffffffffffffffffffffffffffff604051917f6a627842000000000000000000000000000000000000000000000000000000008352166004820152602081602481600073ffffffffffffffffffffffffffffffffffffffff7f0000000000000000000000000000000000000000000000000000000000000000165af190811561082e5760009161086e575b50916064936001945b81810361083a57505063ffffffff604051947f811ee32a000000000000000000000000000000000000000000000000000000008652166004850152602084602481600073ffffffffffffffffffffffffffffffffffffffff7f0000000000000000000000000000000000000000000000000000000000000000165af193841561082e576000946107f7575b5060405161073681611e76565b83815260208101926107c857600191835284600052600260205260406000209051815501905160038110156107c85760ff7fffffffffffffffffffffffffffffffffffffffffffffffffffffffffffffff008354169116179055600052600360205260406000205560206040517fd2741e83000000000000000000000000000000000000000000000000000000008152f35b7f4e487b7100000000000000000000000000000000000000000000000000000000600052602160045260246000fd5b90936020823d602011610826575b8161081260209383611e92565b810103126108235750519284610729565b80fd5b3d9150610805565b6040513d6000823e3d90fd5b847fa5b1e30c0000000000000000000000000000000000000000000000000000000060005260045260245260445260646000fd5b90506020813d602011610898575b8161088960209383611e92565b81010312610342575184610695565b3d915061087c565b92509290604051907f6352211e00000000000000000000000000000000000000000000000000000000825284600483015260208260248173ffffffffffffffffffffffffffffffffffffffff7f0000000000000000000000000000000000000000000000000000000000000000165afa918215610a74578492610a2b575b5073ffffffffffffffffffffffffffffffffffffffff80911691168181036109f757505082825260036020526040822054158383526003602052604083205490156109c75750816001820361098e5750826000526001602052610985604060002054611ada565b9360019461069e565b604081856109a3935260016020522054611a48565b9383600052600160205263ffffffff6109c0604060002054611f19565b169461069e565b90506044927f0d687298000000000000000000000000000000000000000000000000000000008352600452602452fd5b9091506064937f4b96e575000000000000000000000000000000000000000000000000000000008452600452602452604452fd5b73ffffffffffffffffffffffffffffffffffffffff919250610a65829160203d602011610a6d575b610a5d8183611e92565b810190611ed3565b92915061091e565b503d610a53565b6040513d86823e3d90fd5b7fe588902b000000000000000000000000000000000000000000000000000000006000523360045260246000fd5b346103425760207ffffffffffffffffffffffffffffffffffffffffffffffffffffffffffffffffc36011261034257610ae4611966565b7fc9ed16f33ab3a66c84bfd83099ccb2a8845871e2e1c1928f63797152f0fd54cc54339073ffffffffffffffffffffffffffffffffffffffff168103610371577f266c47b41c6a585ba86773281be85dbce6df3d6082fd35df894deca1a091d512602073ffffffffffffffffffffffffffffffffffffffff8416807fffffffffffffffffffffffff00000000000000000000000000000000000000006000541617600055604051908152a1005b346103425760007ffffffffffffffffffffffffffffffffffffffffffffffffffffffffffffffffc36011261034257602060405173ffffffffffffffffffffffffffffffffffffffff7f0000000000000000000000000000000000000000000000000000000000000000168152f35b3461034257610c0e366118d3565b7fc9ed16f33ab3a66c84bfd83099ccb2a8845871e2e1c1928f63797152f0fd54cc5493949193909290339073ffffffffffffffffffffffffffffffffffffffff1681036103715750808214801590610e3b575b6103475760005b828110610c7157005b73ffffffffffffffffffffffffffffffffffffffff610c99610c9483858a611a38565b611ab9565b166040517f01ffc9a70000000000000000000000000000000000000000000000000000000081527f80ac58cd000000000000000000000000000000000000000000000000000000006004820152602081602481855afa90811561082e57600091610dfd575b5015610dd0575073ffffffffffffffffffffffffffffffffffffffff610d28610c9483858a611a38565b1690610d38610c9482868b611a38565b610d43828789611a38565b35833b15610342576040517f42842e0e00000000000000000000000000000000000000000000000000000000815230600482015273ffffffffffffffffffffffffffffffffffffffff9290921660248301526044820152916000908390606490829084905af191821561082e57600192610dbf575b5001610c68565b6000610dca91611e92565b88610db8565b7f986b9f1f0000000000000000000000000000000000000000000000000000000060005260045260246000fd5b6020813d8211610e33575b81610e1560209383611e92565b81010312610e2f5751908115158203610823575089610cfe565b5080fd5b3d9150610e08565b5082821415610c61565b346103425760007ffffffffffffffffffffffffffffffffffffffffffffffffffffffffffffffffc36011261034257602073ffffffffffffffffffffffffffffffffffffffff60005416604051908152f35b346103425760207ffffffffffffffffffffffffffffffffffffffffffffffffffffffffffffffffc360112610342576004356000526002602052604060002060ff60018254920154169060405190815260038210156107c8576040916020820152f35b346103425760007ffffffffffffffffffffffffffffffffffffffffffffffffffffffffffffffffc36011261034257602060645b604051908152f35b346103425760007ffffffffffffffffffffffffffffffffffffffffffffffffffffffffffffffffc36011261034257602073ffffffffffffffffffffffffffffffffffffffff7fc9ed16f33ab3a66c84bfd83099ccb2a8845871e2e1c1928f63797152f0fd54cc5416604051908152f35b346103425760007ffffffffffffffffffffffffffffffffffffffffffffffffffffffffffffffffc36011261034257602060405173ffffffffffffffffffffffffffffffffffffffff7f0000000000000000000000000000000000000000000000000000000000000000168152f35b34610342576110243661186e565b906000526001602052604060002055600080f35b346103425760207ffffffffffffffffffffffffffffffffffffffffffffffffffffffffffffffffc3601126103425760043560005260016020526020610f2e604060002054611ada565b3461034257611090366118d3565b929394909173ffffffffffffffffffffffffffffffffffffffff7fc9ed16f33ab3a66c84bfd83099ccb2a8845871e2e1c1928f63797152f0fd54cc541673ffffffffffffffffffffffffffffffffffffffff331690810361037157508086148015906111b6575b6103475760005b86811061110757005b611112818388611a38565b359073ffffffffffffffffffffffffffffffffffffffff82168203610342576111b0600192611145610c94848c89611a38565b90611151848a8a611a38565b3573ffffffffffffffffffffffffffffffffffffffff604051937fa9059cbb0000000000000000000000000000000000000000000000000000000060208601521660248401526044830152604482526111ab606483611e92565b614a2e565b016110fe565b50838614156110f7565b346103425760007ffffffffffffffffffffffffffffffffffffffffffffffffffffffffffffffffc36011261034257602060405160ff7f0000000000000000000000000000000000000000000000000000000000000000168152f35b346103425760207ffffffffffffffffffffffffffffffffffffffffffffffffffffffffffffffffc3601126103425760043560005260016020526020610f2e604060002054611a48565b346103425760007ffffffffffffffffffffffffffffffffffffffffffffffffffffffffffffffffc36011261034257602060405173ffffffffffffffffffffffffffffffffffffffff7f0000000000000000000000000000000000000000000000000000000000000000168152f35b346103425760207ffffffffffffffffffffffffffffffffffffffffffffffffffffffffffffffffc3601126103425760043560005260036020526020604060002054604051908152f35b346103425760407ffffffffffffffffffffffffffffffffffffffffffffffffffffffffffffffffc3601126103425760243567ffffffffffffffff81116103425761136e9036906004016118a2565b9073ffffffffffffffffffffffffffffffffffffffff7f000000000000000000000000000000000000000000000000000000000000000016330361176457600435600052600260205260406000209160ff60018454948560005260036020526000604081205501541660038110156107c857600110611545571561151657816000526001602052611428604060002054917f00000000000000000000000000000000000000000000000000000000000000009035836120ec565b60208101519181519160088310156107c85760009261150757600182018083116114da57858452600160205260408420555b519160088310156114ad5750916114a57fad70122cc7d9de88c17d2276190cc297baa68d12f166012d2d7eab6ecb229313949260809460405194855260208501526040840190611f0c565b6060820152a1005b807f4e487b7100000000000000000000000000000000000000000000000000000000602492526021600452fd5b6024847f4e487b710000000000000000000000000000000000000000000000000000000081526011600452fd5b6115118486611f43565b61145a565b7f4e487b7100000000000000000000000000000000000000000000000000000000600052603260045260246000fd5b826000939293526001602052604060002054927f0000000000000000000000000000000000000000000000000000000000000000916000611584611f2a565b506040519061159282611e76565b8082526020820152946115a481611f19565b9460005b87519760088910156107c857600098158061175b575b1561164257506115e4866115d28386611eff565b6115dd84888a611a38565b35906120ec565b977fffffffffffffffffffffffffffffffffffffffffffffffffffffffffffffffff821461161557506001016115a8565b807f4e487b7100000000000000000000000000000000000000000000000000000000602492526011600452fd5b9650925095509250611655915082611eff565b907fffffffffffffffffffffffffffffffffffffffffffffffffffffffffffffffff82019082821161172c5760208401519380519360088510156107c85760009461170157868552600160205260408520555b519260088410156114ad57507f86ceb3931dd543c495c675a1027d6a329dbf198204ad44d696903bfd109f255d949260a094926116f992604051958652602086015260408501526060840190611f0c565b6080820152a1005b50818303611719575b6117148587611f43565b6116a8565b858452600160205282604085205561170a565b7f4e487b7100000000000000000000000000000000000000000000000000000000600052601160045260246000fd5b508782106115be565b7fc05bb6cb000000000000000000000000000000000000000000000000000000006000523360045260246000fd5b346103425760207ffffffffffffffffffffffffffffffffffffffffffffffffffffffffffffffffc3601126103425760043560005260016020526020604060002054604051908152f35b346103425760207ffffffffffffffffffffffffffffffffffffffffffffffffffffffffffffffffc360112610342576004357fffffffff000000000000000000000000000000000000000000000000000000008116810361034257611842602091611989565b6040519015158152f35b346103425761185a3661186e565b906000526003602052604060002055600080f35b7ffffffffffffffffffffffffffffffffffffffffffffffffffffffffffffffffc6040910112610342576004359060243590565b9181601f840112156103425782359167ffffffffffffffff8311610342576020808501948460051b01011161034257565b60607ffffffffffffffffffffffffffffffffffffffffffffffffffffffffffffffffc8201126103425760043567ffffffffffffffff8111610342578161191c916004016118a2565b9290929160243567ffffffffffffffff8111610342578161193f916004016118a2565b929092916044359067ffffffffffffffff821161034257611962916004016118a2565b9091565b6004359073ffffffffffffffffffffffffffffffffffffffff8216820361034257565b7fffffffff00000000000000000000000000000000000000000000000000000000167fffffffff000000000000000000000000000000000000000000000000000000008114611a32577f01ffc9a7000000000000000000000000000000000000000000000000000000008114611a2c576000527fca9d3e17f264b0f3984e2634e94adb37fa3e6a8103f06aeae6fa59e21c769f5d60205260ff6040600020541690565b50600190565b50600090565b91908110156115165760051b0190565b60031c80611a57575061055d90565b60018103611a66575061106790565b60028103611a75575061322d90565b60038103611a84575061997d90565b60048103611a9457506201d58790565b60058103611aa4575062059c4b90565b600603611ab257621129a990565b62337b8e90565b3573ffffffffffffffffffffffffffffffffffffffff811681036103425790565b600781169060031c80611b4b575080611af35750606490565b60018103611b015750607390565b60028103611b0f5750608490565b60038103611b1d5750609890565b60048103611b2b575060af90565b60058103611b39575060c990565b600603611b455760e790565b61010a90565b60018103611bbe575080611b60575061013290565b60018103611b6f575061016090565b60028103611b7e575061019590565b60038103611b8d57506101d190565b60048103611b9c575061021790565b60058103611bab575061026790565b600603611bb8576102c490565b61032e90565b60028103611c31575080611bd357506103a890565b60018103611be2575061043490565b60028103611bf157506104d690565b60038103611c00575061058f90565b60048103611c0f575061066590565b60058103611c1e575061075a90565b600603611c2b5761087490565b6109b990565b60038103611ca4575080611c465750610b2f90565b60018103611c555750610cdc90565b60028103611c645750610eca90565b60038103611c73575061110290565b60048103611c82575061138f90565b60058103611c91575061167e90565b600603611c9e576119dd90565b611dbe90565b60048103611d17575080611cb9575061223590565b60018103611cc8575061275690565b60028103611cd75750612d3c90565b60038103611ce6575061340690565b60048103611cf55750613bd390565b60058103611d0457506144cc90565b600603611d1157614f1e90565b615afc90565b60058103611d8b575080611d2c57506168a290565b60018103611d3b575061785490565b60028103611d4a5750618a6190565b60038103611d595750619f2390565b60048103611d68575061b70290565b60058103611d77575061d27590565b600603611d845761f20690565b6201165490565b600603611e045780611d9f57506201401490565b60018103611daf57506201701790565b60028103611dbf57506201a74e90565b60038103611dcf57506201e6cd90565b60048103611ddf575062022fd290565b60058103611def5750620283cb90565b600603611dfd576202e45c90565b6203536a90565b80611e1157506203d32190565b60018103611e215750620465ff90565b60028103611e31575062050ee590565b60038103611e4157506205d12190565b60048103611e5157506206b08090565b60058103611e6157506207b16090565b600603611e6f576208d8c890565b620927c090565b6040810190811067ffffffffffffffff8211176102d957604052565b90601f7fffffffffffffffffffffffffffffffffffffffffffffffffffffffffffffffe0910116810190811067ffffffffffffffff8211176102d957604052565b90816020910312610342575173ffffffffffffffffffffffffffffffffffffffff811681036103425790565b9190820180921161172c57565b9060088210156107c85752565b6007166008036008811161172c5790565b60405190611f3782611e76565b60006020838281520152565b73ffffffffffffffffffffffffffffffffffffffff7f000000000000000000000000000000000000000000000000000000000000000016906040517f6352211e000000000000000000000000000000000000000000000000000000008152600093826004830152602082602481875afa9182156120e15790612053929186926120bc575b5085546040517f23b872dd00000000000000000000000000000000000000000000000000000000602082015273ffffffffffffffffffffffffffffffffffffffff918216602482015292166044830152606480830191909152815261202d608482611e92565b7f0000000000000000000000000000000000000000000000000000000000000000614a2e565b813b156120b85782916024839260405194859384927f42966c6800000000000000000000000000000000000000000000000000000000845260048401525af180156120ad576120a0575050565b816120aa91611e92565b50565b6040513d84823e3d90fd5b8280fd5b61202d9192506120da9060203d602011610a6d57610a5d8183611e92565b9190611fc7565b6040513d87823e3d90fd5b9160ff906040516120fc81611e76565b60008152600060208201525016604d811161172c57606490600a0a049160078160031c91169080156000146122e757507a01f1d75a5709c1ab17a5c1130ecb4fbd64a6520000000000000000917a184f03e93ff9f4daa797ed6e38ed64bf6a1f01000000000000000091806121b7575006101561219c578061012c029061012c82040361172c576040519061219082611e76565b60018252602082015290565b506040516121a981611e76565b600081526000602082015290565b600181036121e4575006101561219c5780610159029061015982040361172c576040519061219082611e76565b60028103612211575006101561219c578061018d029061018d82040361172c576040519061219082611e76565b6003810361223e575006101561219c57806101c802906101c882040361172c576040519061219082611e76565b6004810361226b575006101561219c578061020d029061020d82040361172c576040519061219082611e76565b60058103612298575006101561219c578061025b029061025b82040361172c576040519061219082611e76565b6006036122c35706101561219c57806102b602906102b682040361172c576040519061219082611e76565b06101561219c578061031e029061031e82040361172c576040519061219082611e76565b6001810361248457507a01f1d75a5709c1ab17a5c1130ecb4fbd64a6520000000000000000917a184f03e93ff9f4daa797ed6e38ed64bf6a1f0100000000000000009180612354575006101561219c5780610396029061039682040361172c576040519061219082611e76565b60018103612381575006101561219c578061041f029061041f82040361172c576040519061219082611e76565b600281036123ae575006101561219c57806104be02906104be82040361172c576040519061219082611e76565b600381036123db575006101561219c5780610574029061057482040361172c576040519061219082611e76565b60048103612408575006101561219c5780610645029061064582040361172c576040519061219082611e76565b60058103612435575006101561219c5780610736029061073682040361172c576040519061219082611e76565b6006036124605706101561219c578061084b029061084b82040361172c576040519061219082611e76565b06101561219c5780610989029061098982040361172c576040519061219082611e76565b60028103612abf5750806125675750797c75d695c2706ac5e97044c3b2d3ef59299480000000000000007a184f03e93ff9f4daa797ed6e38ed64bf6a1f010000000000000000820610156124fc575080611247029061124782040361172c57604051906124f082611e76565b60038252602082015290565b7a184f03e93ff9f4daa797ed6e38ed64bf6a1f0100000000000000007a01f1d75a5709c1ab17a5c1130ecb4fbd64a652000000000000000091061060001461219c5780610750029061075082040361172c576040519061255b82611e76565b60028252602082015290565b6001810361262c5750797c75d695c2706ac5e97044c3b2d3ef59299480000000000000007a184f03e93ff9f4daa797ed6e38ed64bf6a1f010000000000000000820610156125cd575080611505029061150582040361172c57604051906124f082611e76565b7a184f03e93ff9f4daa797ed6e38ed64bf6a1f0100000000000000007a01f1d75a5709c1ab17a5c1130ecb4fbd64a652000000000000000091061060001461219c5780610868029061086882040361172c576040519061255b82611e76565b600281036126f15750797c75d695c2706ac5e97044c3b2d3ef59299480000000000000007a184f03e93ff9f4daa797ed6e38ed64bf6a1f0100000000000000008206101561269257508061182c029061182c82040361172c57604051906124f082611e76565b7a184f03e93ff9f4daa797ed6e38ed64bf6a1f0100000000000000007a01f1d75a5709c1ab17a5c1130ecb4fbd64a652000000000000000091061060001461219c57806109ab02906109ab82040361172c576040519061255b82611e76565b600381036127b65750797c75d695c2706ac5e97044c3b2d3ef59299480000000000000007a184f03e93ff9f4daa797ed6e38ed64bf6a1f01000000000000000082061015612757575080611bcc0290611bcc82040361172c57604051906124f082611e76565b7a184f03e93ff9f4daa797ed6e38ed64bf6a1f0100000000000000007a01f1d75a5709c1ab17a5c1130ecb4fbd64a652000000000000000091061060001461219c5780610b1e0290610b1e82040361172c576040519061255b82611e76565b6004810361287b5750797c75d695c2706ac5e97044c3b2d3ef59299480000000000000007a184f03e93ff9f4daa797ed6e38ed64bf6a1f0100000000000000008206101561281c575080611ff70290611ff782040361172c57604051906124f082611e76565b7a184f03e93ff9f4daa797ed6e38ed64bf6a1f0100000000000000007a01f1d75a5709c1ab17a5c1130ecb4fbd64a652000000000000000091061060001461219c5780610cc90290610cc982040361172c576040519061255b82611e76565b600581036129405750797c75d695c2706ac5e97044c3b2d3ef59299480000000000000007a184f03e93ff9f4daa797ed6e38ed64bf6a1f010000000000000000820610156128e15750806124c302906124c382040361172c57604051906124f082611e76565b7a184f03e93ff9f4daa797ed6e38ed64bf6a1f0100000000000000007a01f1d75a5709c1ab17a5c1130ecb4fbd64a652000000000000000091061060001461219c5780610eb40290610eb482040361172c576040519061255b82611e76565b600603612a0357797c75d695c2706ac5e97044c3b2d3ef59299480000000000000007a184f03e93ff9f4daa797ed6e38ed64bf6a1f010000000000000000820610156129a4575080612a460290612a4682040361172c57604051906124f082611e76565b7a184f03e93ff9f4daa797ed6e38ed64bf6a1f0100000000000000007a01f1d75a5709c1ab17a5c1130ecb4fbd64a652000000000000000091061060001461219c57806110e902906110e982040361172c576040519061255b82611e76565b797c75d695c2706ac5e97044c3b2d3ef59299480000000000000007a184f03e93ff9f4daa797ed6e38ed64bf6a1f01000000000000000082061015612a6057508061309e029061309e82040361172c57604051906124f082611e76565b7a184f03e93ff9f4daa797ed6e38ed64bf6a1f0100000000000000007a01f1d75a5709c1ab17a5c1130ecb4fbd64a652000000000000000091061060001461219c5780611372029061137282040361172c576040519061255b82611e76565b600381036130e2575080612b8a5750797c75d695c2706ac5e97044c3b2d3ef59299480000000000000007a184f03e93ff9f4daa797ed6e38ed64bf6a1f01000000000000000082061015612b2b5750806137e902906137e982040361172c57604051906124f082611e76565b7a184f03e93ff9f4daa797ed6e38ed64bf6a1f0100000000000000007a01f1d75a5709c1ab17a5c1130ecb4fbd64a652000000000000000091061060001461219c578061165d029061165d82040361172c576040519061255b82611e76565b60018103612c4f5750797c75d695c2706ac5e97044c3b2d3ef59299480000000000000007a184f03e93ff9f4daa797ed6e38ed64bf6a1f01000000000000000082061015612bf057508061404b029061404b82040361172c57604051906124f082611e76565b7a184f03e93ff9f4daa797ed6e38ed64bf6a1f0100000000000000007a01f1d75a5709c1ab17a5c1130ecb4fbd64a652000000000000000091061060001461219c57806119b802906119b882040361172c576040519061255b82611e76565b60028103612d145750797c75d695c2706ac5e97044c3b2d3ef59299480000000000000007a184f03e93ff9f4daa797ed6e38ed64bf6a1f01000000000000000082061015612cb55750806149f002906149f082040361172c57604051906124f082611e76565b7a184f03e93ff9f4daa797ed6e38ed64bf6a1f0100000000000000007a01f1d75a5709c1ab17a5c1130ecb4fbd64a652000000000000000091061060001461219c5780611d930290611d9382040361172c576040519061255b82611e76565b60038103612dd95750797c75d695c2706ac5e97044c3b2d3ef59299480000000000000007a184f03e93ff9f4daa797ed6e38ed64bf6a1f01000000000000000082061015612d7a575080615508029061550882040361172c57604051906124f082611e76565b7a184f03e93ff9f4daa797ed6e38ed64bf6a1f0100000000000000007a01f1d75a5709c1ab17a5c1130ecb4fbd64a652000000000000000091061060001461219c5780612203029061220382040361172c576040519061255b82611e76565b60048103612e9e5750797c75d695c2706ac5e97044c3b2d3ef59299480000000000000007a184f03e93ff9f4daa797ed6e38ed64bf6a1f01000000000000000082061015612e3f5750806161c902906161c982040361172c57604051906124f082611e76565b7a184f03e93ff9f4daa797ed6e38ed64bf6a1f0100000000000000007a01f1d75a5709c1ab17a5c1130ecb4fbd64a652000000000000000091061060001461219c578061271d029061271d82040361172c576040519061255b82611e76565b60058103612f635750797c75d695c2706ac5e97044c3b2d3ef59299480000000000000007a184f03e93ff9f4daa797ed6e38ed64bf6a1f01000000000000000082061015612f04575080617074029061707482040361172c57604051906124f082611e76565b7a184f03e93ff9f4daa797ed6e38ed64bf6a1f0100000000000000007a01f1d75a5709c1ab17a5c1130ecb4fbd64a652000000000000000091061060001461219c5780612cfb0290612cfb82040361172c576040519061255b82611e76565b60060361302657797c75d695c2706ac5e97044c3b2d3ef59299480000000000000007a184f03e93ff9f4daa797ed6e38ed64bf6a1f01000000000000000082061015612fc7575080618152029061815282040361172c57604051906124f082611e76565b7a184f03e93ff9f4daa797ed6e38ed64bf6a1f0100000000000000007a01f1d75a5709c1ab17a5c1130ecb4fbd64a652000000000000000091061060001461219c57806133ba02906133ba82040361172c576040519061255b82611e76565b797c75d695c2706ac5e97044c3b2d3ef59299480000000000000007a184f03e93ff9f4daa797ed6e38ed64bf6a1f010000000000000000820610156130835750806194b802906194b882040361172c57604051906124f082611e76565b7a184f03e93ff9f4daa797ed6e38ed64bf6a1f0100000000000000007a01f1d75a5709c1ab17a5c1130ecb4fbd64a652000000000000000091061060001461219c5780613b7d0290613b7d82040361172c576040519061255b82611e76565b600481036137215750806131bb5750797c75d695c2706ac5e97044c3b2d3ef59299480000000000000007a184f03e93ff9f4daa797ed6e38ed64bf6a1f0100000000000000008206101561315c5750806201560d02906201560d82040361172c576040519061315082611e76565b60048252602082015290565b7a184f03e93ff9f4daa797ed6e38ed64bf6a1f0100000000000000007a01f1d75a5709c1ab17a5c1130ecb4fbd64a652000000000000000091061060001461219c5780614469029061446982040361172c576040519061255b82611e76565b600181036132825750797c75d695c2706ac5e97044c3b2d3ef59299480000000000000007a184f03e93ff9f4daa797ed6e38ed64bf6a1f010000000000000000820610156132235750806201895c02906201895c82040361172c576040519061315082611e76565b7a184f03e93ff9f4daa797ed6e38ed64bf6a1f0100000000000000007a01f1d75a5709c1ab17a5c1130ecb4fbd64a652000000000000000091061060001461219c5780614eac0290614eac82040361172c576040519061255b82611e76565b600281036133495750797c75d695c2706ac5e97044c3b2d3ef59299480000000000000007a184f03e93ff9f4daa797ed6e38ed64bf6a1f010000000000000000820610156132ea5750806201c45d02906201c45d82040361172c576040519061315082611e76565b7a184f03e93ff9f4daa797ed6e38ed64bf6a1f0100000000000000007a01f1d75a5709c1ab17a5c1130ecb4fbd64a652000000000000000091061060001461219c5780615a790290615a7982040361172c576040519061255b82611e76565b600381036134105750797c75d695c2706ac5e97044c3b2d3ef59299480000000000000007a184f03e93ff9f4daa797ed6e38ed64bf6a1f010000000000000000820610156133b15750806202083802906202083882040361172c576040519061315082611e76565b7a184f03e93ff9f4daa797ed6e38ed64bf6a1f0100000000000000007a01f1d75a5709c1ab17a5c1130ecb4fbd64a652000000000000000091061060001461219c578061680b029061680b82040361172c576040519061255b82611e76565b600481036134d75750797c75d695c2706ac5e97044c3b2d3ef59299480000000000000007a184f03e93ff9f4daa797ed6e38ed64bf6a1f010000000000000000820610156134785750806202564002906202564082040361172c576040519061315082611e76565b7a184f03e93ff9f4daa797ed6e38ed64bf6a1f0100000000000000007a01f1d75a5709c1ab17a5c1130ecb4fbd64a652000000000000000091061060001461219c57806177a602906177a682040361172c576040519061255b82611e76565b6005810361359e5750797c75d695c2706ac5e97044c3b2d3ef59299480000000000000007a184f03e93ff9f4daa797ed6e38ed64bf6a1f0100000000000000008206101561353f5750806202affd02906202affd82040361172c576040519061315082611e76565b7a184f03e93ff9f4daa797ed6e38ed64bf6a1f0100000000000000007a01f1d75a5709c1ab17a5c1130ecb4fbd64a652000000000000000091061060001461219c5780618999029061899982040361172c576040519061255b82611e76565b60060361366357797c75d695c2706ac5e97044c3b2d3ef59299480000000000000007a184f03e93ff9f4daa797ed6e38ed64bf6a1f010000000000000000820610156136045750806203172f02906203172f82040361172c576040519061315082611e76565b7a184f03e93ff9f4daa797ed6e38ed64bf6a1f0100000000000000007a01f1d75a5709c1ab17a5c1130ecb4fbd64a652000000000000000091061060001461219c5780619e3d0290619e3d82040361172c576040519061255b82611e76565b797c75d695c2706ac5e97044c3b2d3ef59299480000000000000007a184f03e93ff9f4daa797ed6e38ed64bf6a1f010000000000000000820610156136c257508062038ddd029062038ddd82040361172c576040519061315082611e76565b7a184f03e93ff9f4daa797ed6e38ed64bf6a1f0100000000000000007a01f1d75a5709c1ab17a5c1130ecb4fbd64a652000000000000000091061060001461219c578061b5f9029061b5f982040361172c576040519061255b82611e76565b60058103613d6c5750806137fa5750797c75d695c2706ac5e97044c3b2d3ef59299480000000000000007a184f03e93ff9f4daa797ed6e38ed64bf6a1f0100000000000000008206101561379b57508062082caf029062082caf82040361172c576040519061378f82611e76565b60058252602082015290565b7a184f03e93ff9f4daa797ed6e38ed64bf6a1f0100000000000000007a01f1d75a5709c1ab17a5c1130ecb4fbd64a652000000000000000091061060001461219c578061d145029061d14582040361172c576040519061255b82611e76565b600181036138c15750797c75d695c2706ac5e97044c3b2d3ef59299480000000000000007a184f03e93ff9f4daa797ed6e38ed64bf6a1f010000000000000000820610156138625750806209669602906209669682040361172c576040519061378f82611e76565b7a184f03e93ff9f4daa797ed6e38ed64bf6a1f0100000000000000007a01f1d75a5709c1ab17a5c1130ecb4fbd64a652000000000000000091061060001461219c578061f0a9029061f0a982040361172c576040519061255b82611e76565b6002810361398a5750797c75d695c2706ac5e97044c3b2d3ef59299480000000000000007a184f03e93ff9f4daa797ed6e38ed64bf6a1f01000000000000000082061015613929575080620acf930290620acf9382040361172c576040519061378f82611e76565b7a184f03e93ff9f4daa797ed6e38ed64bf6a1f0100000000000000007a01f1d75a5709c1ab17a5c1130ecb4fbd64a652000000000000000091061060001461219c5780620114c20290620114c282040361172c576040519061255b82611e76565b60038103613a535750797c75d695c2706ac5e97044c3b2d3ef59299480000000000000007a184f03e93ff9f4daa797ed6e38ed64bf6a1f010000000000000000820610156139f2575080620c6eb60290620c6eb682040361172c576040519061378f82611e76565b7a184f03e93ff9f4daa797ed6e38ed64bf6a1f0100000000000000007a01f1d75a5709c1ab17a5c1130ecb4fbd64a652000000000000000091061060001461219c578062013e45029062013e4582040361172c576040519061255b82611e76565b60048103613b1c5750797c75d695c2706ac5e97044c3b2d3ef59299480000000000000007a184f03e93ff9f4daa797ed6e38ed64bf6a1f01000000000000000082061015613abb575080620e4c1e0290620e4c1e82040361172c576040519061378f82611e76565b7a184f03e93ff9f4daa797ed6e38ed64bf6a1f0100000000000000007a01f1d75a5709c1ab17a5c1130ecb4fbd64a652000000000000000091061060001461219c578062016e03029062016e0382040361172c576040519061255b82611e76565b60058103613be55750797c75d695c2706ac5e97044c3b2d3ef59299480000000000000007a184f03e93ff9f4daa797ed6e38ed64bf6a1f01000000000000000082061015613b845750806210712302906210712382040361172c576040519061378f82611e76565b7a184f03e93ff9f4daa797ed6e38ed64bf6a1f0100000000000000007a01f1d75a5709c1ab17a5c1130ecb4fbd64a652000000000000000091061060001461219c57806201a4ea02906201a4ea82040361172c576040519061255b82611e76565b600603613cac57797c75d695c2706ac5e97044c3b2d3ef59299480000000000000007a184f03e93ff9f4daa797ed6e38ed64bf6a1f01000000000000000082061015613c4b5750806212e88102906212e88182040361172c576040519061378f82611e76565b7a184f03e93ff9f4daa797ed6e38ed64bf6a1f0100000000000000007a01f1d75a5709c1ab17a5c1130ecb4fbd64a652000000000000000091061060001461219c57806201e40d02906201e40d82040361172c576040519061255b82611e76565b797c75d695c2706ac5e97044c3b2d3ef59299480000000000000007a184f03e93ff9f4daa797ed6e38ed64bf6a1f01000000000000000082061015613d0b5750806215be9502906215be9582040361172c576040519061378f82611e76565b7a184f03e93ff9f4daa797ed6e38ed64bf6a1f0100000000000000007a01f1d75a5709c1ab17a5c1130ecb4fbd64a652000000000000000091061060001461219c578062022ca8029062022ca882040361172c576040519061255b82611e76565b6006036143b95780613e455750791f1d75a5709c1ab17a5c1130ecb4fbd64a6520000000000000007a184f03e93ff9f4daa797ed6e38ed64bf6a1f01000000000000000082061015613de4575080623e83ec0290623e83ec82040361172c5760405190613dd882611e76565b60068252602082015290565b7a184f03e93ff9f4daa797ed6e38ed64bf6a1f0100000000000000007a01f1d75a5709c1ab17a5c1130ecb4fbd64a652000000000000000091061060001461219c57806202802802906202802882040361172c576040519061255b82611e76565b60018103613f0e5750791f1d75a5709c1ab17a5c1130ecb4fbd64a6520000000000000007a184f03e93ff9f4daa797ed6e38ed64bf6a1f01000000000000000082061015613ead5750806247e48202906247e48282040361172c5760405190613dd882611e76565b7a184f03e93ff9f4daa797ed6e38ed64bf6a1f0100000000000000007a01f1d75a5709c1ab17a5c1130ecb4fbd64a652000000000000000091061060001461219c57806202e02e02906202e02e82040361172c576040519061255b82611e76565b60028103613fd75750791f1d75a5709c1ab17a5c1130ecb4fbd64a6520000000000000007a184f03e93ff9f4daa797ed6e38ed64bf6a1f01000000000000000082061015613f765750806252ad2f02906252ad2f82040361172c5760405190613dd882611e76565b7a184f03e93ff9f4daa797ed6e38ed64bf6a1f0100000000000000007a01f1d75a5709c1ab17a5c1130ecb4fbd64a652000000000000000091061060001461219c578062034e9b029062034e9b82040361172c576040519061255b82611e76565b600381036140a05750791f1d75a5709c1ab17a5c1130ecb4fbd64a6520000000000000007a184f03e93ff9f4daa797ed6e38ed64bf6a1f0100000000000000008206101561403f575080625f13f60290625f13f682040361172c5760405190613dd882611e76565b7a184f03e93ff9f4daa797ed6e38ed64bf6a1f0100000000000000007a01f1d75a5709c1ab17a5c1130ecb4fbd64a652000000000000000091061060001461219c57806203cd9902906203cd9982040361172c576040519061255b82611e76565b600481036141695750791f1d75a5709c1ab17a5c1130ecb4fbd64a6520000000000000007a184f03e93ff9f4daa797ed6e38ed64bf6a1f01000000000000000082061015614108575080626d56f50290626d56f582040361172c5760405190613dd882611e76565b7a184f03e93ff9f4daa797ed6e38ed64bf6a1f0100000000000000007a01f1d75a5709c1ab17a5c1130ecb4fbd64a652000000000000000091061060001461219c578062045fa3029062045fa382040361172c576040519061255b82611e76565b600581036142325750791f1d75a5709c1ab17a5c1130ecb4fbd64a6520000000000000007a184f03e93ff9f4daa797ed6e38ed64bf6a1f010000000000000000820610156141d1575080627dbd9a0290627dbd9a82040361172c5760405190613dd882611e76565b7a184f03e93ff9f4daa797ed6e38ed64bf6a1f0100000000000000007a01f1d75a5709c1ab17a5c1130ecb4fbd64a652000000000000000091061060001461219c57806205079602906205079682040361172c576040519061255b82611e76565b6006036142f957791f1d75a5709c1ab17a5c1130ecb4fbd64a6520000000000000007a184f03e93ff9f4daa797ed6e38ed64bf6a1f0100000000000000008206101561429857508062909a0a029062909a0a82040361172c5760405190613dd882611e76565b7a184f03e93ff9f4daa797ed6e38ed64bf6a1f0100000000000000007a01f1d75a5709c1ab17a5c1130ecb4fbd64a652000000000000000091061060001461219c57806205c8b902906205c8b982040361172c576040519061255b82611e76565b791f1d75a5709c1ab17a5c1130ecb4fbd64a6520000000000000007a184f03e93ff9f4daa797ed6e38ed64bf6a1f0100000000000000008206101561435857508062a64abf029062a64abf82040361172c5760405190613dd882611e76565b7a184f03e93ff9f4daa797ed6e38ed64bf6a1f0100000000000000007a01f1d75a5709c1ab17a5c1130ecb4fbd64a652000000000000000091061060001461219c57806206a6d402906206a6d482040361172c576040519061255b82611e76565b8061448d5750790f8ebad2b84e0d58bd2e0898765a7deb253290000000000000007a184f03e93ff9f4daa797ed6e38ed64bf6a1f0100000000000000008206101561442c57508063017e78b7029063017e78b782040361172c576040519061442082611e76565b60078252602082015290565b7a184f03e93ff9f4daa797ed6e38ed64bf6a1f0100000000000000007a01f1d75a5709c1ab17a5c1130ecb4fbd64a652000000000000000091061060001461219c57806207a64102906207a64182040361172c576040519061255b82611e76565b600181036145585750790f8ebad2b84e0d58bd2e0898765a7deb253290000000000000007a184f03e93ff9f4daa797ed6e38ed64bf6a1f010000000000000000820610156144f75750806301b7d79f02906301b7d79f82040361172c576040519061442082611e76565b7a184f03e93ff9f4daa797ed6e38ed64bf6a1f0100000000000000007a01f1d75a5709c1ab17a5c1130ecb4fbd64a652000000000000000091061060001461219c57806208cbfe02906208cbfe82040361172c576040519061255b82611e76565b600281036146235750790f8ebad2b84e0d58bd2e0898765a7deb253290000000000000007a184f03e93ff9f4daa797ed6e38ed64bf6a1f010000000000000000820610156145c25750806301f9d19102906301f9d19182040361172c576040519061442082611e76565b7a184f03e93ff9f4daa797ed6e38ed64bf6a1f0100000000000000007a01f1d75a5709c1ab17a5c1130ecb4fbd64a652000000000000000091061060001461219c5780620a1dcb0290620a1dcb82040361172c576040519061255b82611e76565b600381036146ee5750790f8ebad2b84e0d58bd2e0898765a7deb253290000000000000007a184f03e93ff9f4daa797ed6e38ed64bf6a1f0100000000000000008206101561468d575080630245b1000290630245b10082040361172c576040519061442082611e76565b7a184f03e93ff9f4daa797ed6e38ed64bf6a1f0100000000000000007a01f1d75a5709c1ab17a5c1130ecb4fbd64a652000000000000000091061060001461219c5780620ba2430290620ba24382040361172c576040519061255b82611e76565b600481036147b95750790f8ebad2b84e0d58bd2e0898765a7deb253290000000000000007a184f03e93ff9f4daa797ed6e38ed64bf6a1f0100000000000000008206101561475857508063029cf1f3029063029cf1f382040361172c576040519061442082611e76565b7a184f03e93ff9f4daa797ed6e38ed64bf6a1f0100000000000000007a01f1d75a5709c1ab17a5c1130ecb4fbd64a652000000000000000091061060001461219c5780620d61000290620d610082040361172c576040519061255b82611e76565b600581036148845750790f8ebad2b84e0d58bd2e0898765a7deb253290000000000000007a184f03e93ff9f4daa797ed6e38ed64bf6a1f0100000000000000008206101561482357508063030149720290630301497282040361172c576040519061442082611e76565b7a184f03e93ff9f4daa797ed6e38ed64bf6a1f0100000000000000007a01f1d75a5709c1ab17a5c1130ecb4fbd64a652000000000000000091061060001461219c5780620f62c00290620f62c082040361172c576040519061255b82611e76565b60060361494d57790f8ebad2b84e0d58bd2e0898765a7deb253290000000000000007a184f03e93ff9f4daa797ed6e38ed64bf6a1f010000000000000000820610156148ec575080630374ae0f0290630374ae0f82040361172c576040519061442082611e76565b7a184f03e93ff9f4daa797ed6e38ed64bf6a1f0100000000000000007a01f1d75a5709c1ab17a5c1130ecb4fbd64a652000000000000000091061060001461219c57806211b19002906211b19082040361172c576040519061255b82611e76565b790f8ebad2b84e0d58bd2e0898765a7deb253290000000000000007a184f03e93ff9f4daa797ed6e38ed64bf6a1f010000000000000000820610156149ae57508063039387000290630393870082040361172c576040519061442082611e76565b7a184f03e93ff9f4daa797ed6e38ed64bf6a1f0100000000000000007a01f1d75a5709c1ab17a5c1130ecb4fbd64a6520000000000000000910610600014614a0f5780622dc6c00290622dc6c082040361172c57604051906124f082611e76565b8062124f80029062124f8082040361172c576040519061255b82611e76565b906000602091828151910182855af11561082e576000513d614ab0575073ffffffffffffffffffffffffffffffffffffffff81163b155b614a6c5750565b73ffffffffffffffffffffffffffffffffffffffff907f5274afe7000000000000000000000000000000000000000000000000000000006000521660045260246000fd5b60011415614a6556fea264697066735822122038e9bce81ff0869e56ec75efe85660bc5d6288cc8dfc32b539f82910c1cffdf464736f6c634300081e0033",
  "linkReferences": {},
  "deployedLinkReferences": {}
}