{
  "_format": "hh-sol-artifact-1",
  "contractName": "ScratchingMock",
  "sourceName": "contracts/mocks/game/ScratchingMock.sol",
  "abi": [
    {
      "inputs": [
        {
          "internalType": "address",
          "name": "scratchingBoard",
          "type": "address"
        },
        {
          "internalType": "contract IERC20",
          "name": "erc20Token",
          "type": "address"
        },
        {
          "internalType": "contract IRNGProvider",
          "name": "rngProvider",
          "type": "address"
        },
        {
          "internalType": "contract IPointsV2",
          "name": "points",
          "type": "address"
        }
      ],
      "stateMutability": "nonpayable",
      "type": "constructor"
    },
    {
      "inputs": [],
      "name": "FailedCall",
      "type": "error"
    },
    {
      "inputs": [],
      "name": "IllegalInterfaceId",
      "type": "error"
    },
    {
      "inputs": [],
      "name": "InconsistentArrayLengths",
      "type": "error"
    },
    {
      "inputs": [
        {
          "internalType": "address",
          "name": "caller",
          "type": "address"
        }
      ],
      "name": "IncorrectCallbackCaller",
      "type": "error"
    },
    {
      "inputs": [
        {
          "internalType": "uint256",
          "name": "tokenId",
          "type": "uint256"
        },
        {
          "internalType": "uint256",
          "name": "requiredAmount",
          "type": "uint256"
        },
        {
          "internalType": "uint256",
          "name": "providedAmount",
          "type": "uint256"
        }
      ],
      "name": "IncorrectPaymentAmount",
      "type": "error"
    },
    {
      "inputs": [
        {
          "internalType": "address",
          "name": "tokenContract",
          "type": "address"
        }
      ],
      "name": "IncorrectTokenContractType",
      "type": "error"
    },
    {
      "inputs": [
        {
          "internalType": "uint256",
          "name": "balance",
          "type": "uint256"
        },
        {
          "internalType": "uint256",
          "name": "needed",
          "type": "uint256"
        }
      ],
      "name": "InsufficientBalance",
      "type": "error"
    },
    {
      "inputs": [
        {
          "internalType": "address",
          "name": "account",
          "type": "address"
        }
      ],
      "name": "NotContractOwner",
      "type": "error"
    },
    {
      "inputs": [
        {
          "internalType": "uint256",
          "name": "tokenId",
          "type": "uint256"
        },
        {
          "internalType": "address",
          "name": "owner",
          "type": "address"
        },
        {
          "internalType": "address",
          "name": "caller",
          "type": "address"
        }
      ],
      "name": "NotTheTokenOwner",
      "type": "error"
    },
    {
      "inputs": [
        {
          "internalType": "address",
          "name": "wrongCaller",
          "type": "address"
        }
      ],
      "name": "OnlyRNGProviderCanFulfill",
      "type": "error"
    },
    {
      "inputs": [
        {
          "internalType": "address",
          "name": "token",
          "type": "address"
        }
      ],
      "name": "SafeERC20FailedOperation",
      "type": "error"
    },
    {
      "inputs": [
        {
          "internalType": "uint256",
          "name": "tokenId",
          "type": "uint256"
        },
        {
          "internalType": "uint256",
          "name": "requestId",
          "type": "uint256"
        }
      ],
      "name": "ScratchRequestPending",
      "type": "error"
    },
    {
      "inputs": [
        {
          "internalType": "uint256",
          "name": "requestId",
          "type": "uint256"
        }
      ],
      "name": "UnknownRequestId",
      "type": "error"
    },
    {
      "inputs": [
        {
          "internalType": "uint8",
          "name": "decimals",
          "type": "uint8"
        }
      ],
      "name": "UnsupportedERC20TokenDecimals",
      "type": "error"
    },
    {
      "anonymous": false,
      "inputs": [
        {
          "indexed": false,
          "internalType": "address",
          "name": "newHolder",
          "type": "address"
        }
      ],
      "name": "ERC20TokenHolderUpdated",
      "type": "event"
    },
    {
      "anonymous": false,
      "inputs": [
        {
          "indexed": true,
          "internalType": "address",
          "name": "previousOwner",
          "type": "address"
        },
        {
          "indexed": true,
          "internalType": "address",
          "name": "newOwner",
          "type": "address"
        }
      ],
      "name": "OwnershipTransferred",
      "type": "event"
    },
    {
      "anonymous": false,
      "inputs": [
        {
          "indexed": false,
          "internalType": "uint256",
          "name": "tokenId",
          "type": "uint256"
        },
        {
          "indexed": false,
          "internalType": "uint256",
          "name": "startScratchPosition",
          "type": "uint256"
        },
        {
          "indexed": false,
          "internalType": "uint256",
          "name": "endScratchPosition",
          "type": "uint256"
        },
        {
          "indexed": false,
          "internalType": "enum ScratchingLib.RewardType",
          "name": "rewardType",
          "type": "uint8"
        },
        {
          "indexed": false,
          "internalType": "uint256",
          "name": "rewardAmount",
          "type": "uint256"
        }
      ],
      "name": "ScratchedRow",
      "type": "event"
    },
    {
      "anonymous": false,
      "inputs": [
        {
          "indexed": false,
          "internalType": "uint256",
          "name": "tokenId",
          "type": "uint256"
        },
        {
          "indexed": false,
          "internalType": "uint256",
          "name": "scratchPosition",
          "type": "uint256"
        },
        {
          "indexed": false,
          "internalType": "enum ScratchingLib.RewardType",
          "name": "rewardType",
          "type": "uint8"
        },
        {
          "indexed": false,
          "internalType": "uint256",
          "name": "rewardAmount",
          "type": "uint256"
        }
      ],
      "name": "ScratchedSingle",
      "type": "event"
    },
    {
      "inputs": [],
      "name": "ERC20_DECIMALS",
      "outputs": [
        {
          "internalType": "uint8",
          "name": "",
          "type": "uint8"
        }
      ],
      "stateMutability": "view",
      "type": "function"
    },
    {
      "inputs": [],
      "name": "ERC20_TOKEN",
      "outputs": [
        {
          "internalType": "contract IERC20",
          "name": "",
          "type": "address"
        }
      ],
      "stateMutability": "view",
      "type": "function"
    },
    {
      "inputs": [],
      "name": "POINTS",
      "outputs": [
        {
          "internalType": "contract IPointsV2",
          "name": "",
          "type": "address"
        }
      ],
      "stateMutability": "view",
      "type": "function"
    },
    {
      "inputs": [],
      "name": "RNG_PROVIDER",
      "outputs": [
        {
          "internalType": "contract IRNGProvider",
          "name": "",
          "type": "address"
        }
      ],
      "stateMutability": "view",
      "type": "function"
    },
    {
      "inputs": [],
      "name": "SCRATCHING_BOARD",
      "outputs": [
        {
          "internalType": "address",
          "name": "",
          "type": "address"
        }
      ],
      "stateMutability": "view",
      "type": "function"
    },
    {
      "inputs": [
        {
          "internalType": "uint256",
          "name": "tokenId",
          "type": "uint256"
        }
      ],
      "name": "boardPositions",
      "outputs": [
        {
          "internalType": "uint256",
          "name": "",
          "type": "uint256"
        }
      ],
      "stateMutability": "view",
      "type": "function"
    },
    {
      "inputs": [],
      "name": "erc20TokenHolder",
      "outputs": [
        {
          "internalType": "address",
          "name": "",
          "type": "address"
        }
      ],
      "stateMutability": "view",
      "type": "function"
    },
    {
      "inputs": [
        {
          "internalType": "uint256",
          "name": "requestId",
          "type": "uint256"
        },
        {
          "internalType": "uint256[]",
          "name": "randomWords",
          "type": "uint256[]"
        }
      ],
      "name": "fulfillRandomness",
      "outputs": [],
      "stateMutability": "nonpayable",
      "type": "function"
    },
    {
      "inputs": [],
      "name": "getMintPrice",
      "outputs": [
        {
          "internalType": "uint256",
          "name": "",
          "type": "uint256"
        }
      ],
      "stateMutability": "pure",
      "type": "function"
    },
    {
      "inputs": [
        {
          "internalType": "uint256",
          "name": "tokenId",
          "type": "uint256"
        }
      ],
      "name": "getRowScratchPrice",
      "outputs": [
        {
          "internalType": "uint256",
          "name": "",
          "type": "uint256"
        }
      ],
      "stateMutability": "view",
      "type": "function"
    },
    {
      "inputs": [
        {
          "internalType": "uint256",
          "name": "tokenId",
          "type": "uint256"
        }
      ],
      "name": "getSingleScratchPrice",
      "outputs": [
        {
          "internalType": "uint256",
          "name": "",
          "type": "uint256"
        }
      ],
      "stateMutability": "view",
      "type": "function"
    },
    {
      "inputs": [
        {
          "internalType": "address",
          "name": "spender",
          "type": "address"
        },
        {
          "internalType": "uint256",
          "name": "amount",
          "type": "uint256"
        },
        {
          "internalType": "bytes",
          "name": "data",
          "type": "bytes"
        }
      ],
      "name": "onPointsSpent",
      "outputs": [
        {
          "internalType": "bytes4",
          "name": "",
          "type": "bytes4"
        }
      ],
      "stateMutability": "nonpayable",
      "type": "function"
    },
    {
      "inputs": [],
      "name": "owner",
      "outputs": [
        {
          "internalType": "address",
          "name": "",
          "type": "address"
        }
      ],
      "stateMutability": "view",
      "type": "function"
    },
    {
      "inputs": [
        {
          "internalType": "uint256",
          "name": "tokenId",
          "type": "uint256"
        }
      ],
      "name": "pendingScratchRequest",
      "outputs": [
        {
          "internalType": "uint256",
          "name": "requestId",
          "type": "uint256"
        }
      ],
      "stateMutability": "view",
      "type": "function"
    },
    {
      "inputs": [
        {
          "internalType": "address[]",
          "name": "accounts",
          "type": "address[]"
        },
        {
          "internalType": "contract IERC20[]",
          "name": "tokens",
          "type": "address[]"
        },
        {
          "internalType": "uint256[]",
          "name": "amounts",
          "type": "uint256[]"
        }
      ],
      "name": "recoverERC20s",
      "outputs": [],
      "stateMutability": "nonpayable",
      "type": "function"
    },
    {
      "inputs": [
        {
          "internalType": "address[]",
          "name": "accounts",
          "type": "address[]"
        },
        {
          "internalType": "contract IERC721[]",
          "name": "contracts",
          "type": "address[]"
        },
        {
          "internalType": "uint256[]",
          "name": "tokenIds",
          "type": "uint256[]"
        }
      ],
      "name": "recoverERC721s",
      "outputs": [],
      "stateMutability": "nonpayable",
      "type": "function"
    },
    {
      "inputs": [
        {
          "internalType": "address payable[]",
          "name": "accounts",
          "type": "address[]"
        },
        {
          "internalType": "uint256[]",
          "name": "amounts",
          "type": "uint256[]"
        }
      ],
      "name": "recoverETH",
      "outputs": [],
      "stateMutability": "nonpayable",
      "type": "function"
    },
    {
      "inputs": [
        {
          "internalType": "uint256",
          "name": "requestId",
          "type": "uint256"
        }
      ],
      "name": "scratchRequests",
      "outputs": [
        {
          "internalType": "uint256",
          "name": "tokenId",
          "type": "uint256"
        },
        {
          "internalType": "enum Scratching.RequestType",
          "name": "requestType",
          "type": "uint8"
        }
      ],
      "stateMutability": "view",
      "type": "function"
    },
    {
      "inputs": [
        {
          "internalType": "uint256",
          "name": "tokenId",
          "type": "uint256"
        },
        {
          "internalType": "uint256",
          "name": "position",
          "type": "uint256"
        }
      ],
      "name": "setBoardPosition",
      "outputs": [],
      "stateMutability": "nonpayable",
      "type": "function"
    },
    {
      "inputs": [
        {
          "internalType": "address",
          "name": "holder",
          "type": "address"
        }
      ],
      "name": "setERC20TokenHolder",
      "outputs": [],
      "stateMutability": "nonpayable",
      "type": "function"
    },
    {
      "inputs": [
        {
          "internalType": "uint256",
          "name": "tokenId",
          "type": "uint256"
        },
        {
          "internalType": "uint256",
          "name": "requestId",
          "type": "uint256"
        }
      ],
      "name": "setPendingScratchRequest",
      "outputs": [],
      "stateMutability": "nonpayable",
      "type": "function"
    },
    {
      "inputs": [
        {
          "internalType": "bytes4",
          "name": "interfaceId",
          "type": "bytes4"
        }
      ],
      "name": "supportsInterface",
      "outputs": [
        {
          "internalType": "bool",
          "name": "",
          "type": "bool"
        }
      ],
      "stateMutability": "view",
      "type": "function"
    },
    {
      "inputs": [
        {
          "internalType": "address",
          "name": "newOwner",
          "type": "address"
        }
      ],
      "name": "transferOwnership",
      "outputs": [],
      "stateMutability": "nonpayable",
      "type": "function"
    }
  ],
  "bytecode": "0x610120806040523461024557608081614e098038038091610020828561024a565b833981010312610245578051906001600160a01b03821682036102455760208101516001600160a01b03811690818103610245576040830151926001600160a01b03841684036102455760600151936001600160a01b038516850361024557600494602094336101e6575b6307f5828d60e41b6000527fca9d3e17f264b0f3984e2634e94adb37fa3e6a8103f06aeae6fa59e21c769f5d86526040600020600160ff1982541617905560805260a05260c05260e0526040519283809263313ce56760e01b82525afa9081156101da57600091610199575b508060ff9161010052166002811061018557604051614b85908161028482396080518181816106f801528181610bdc0152611386015260a0518181816105b30152610ff2015260c051818181610664015281816108ee015281816112b10152611f36015260e0518181816104ff015261200b0152610100518181816111f801528181611401015261155a0152f35b633c66f6f560e21b60005260045260246000fd5b6020813d6020116101d2575b816101b26020938361024a565b810103126101ce575160ff811681036101ce57905060ff6100f7565b5080fd5b3d91506101a5565b6040513d6000823e3d90fd5b7fc9ed16f33ab3a66c84bfd83099ccb2a8845871e2e1c1928f63797152f0fd54cc80546001600160a01b0319163390811790915560007f8be0079c531659141344cd1fd0a4f28419497f9722a3daafe3b4186f6b6457e08180a361008b565b600080fd5b601f909101601f19168101906001600160401b0382119082101761026d57604052565b634e487b7160e01b600052604160045260246000fdfe6080604052600436101561001257600080fd5b60003560e01c80624086f11461184c57806301ffc9a7146117dc578063024f5f4c14611792578063088680171461131f5780630ac7843c146112d55780633a10680014611266578063400c10501461121c5780636b0219d7146111c057806373c8a958146110825780637a33626c146110385780637cd792c2146110165780637f6e428114610fa75780638da5cb5b14610f36578063a7f93ebd14610efa578063b763d84714610e97578063be16663714610e45578063c3666c3614610c00578063c440450e14610b91578063c8dadb9c14610aad578063d2741e8314610523578063efc4c631146104b4578063f2fde38b1461039e5763f7ba94bd1461011857600080fd5b346103425760407ffffffffffffffffffffffffffffffffffffffffffffffffffffffffffffffffc3601126103425760043567ffffffffffffffff8111610342576101679036906004016118a2565b60243567ffffffffffffffff8111610342576101879036906004016118a2565b909173ffffffffffffffffffffffffffffffffffffffff7fc9ed16f33ab3a66c84bfd83099ccb2a8845871e2e1c1928f63797152f0fd54cc541673ffffffffffffffffffffffffffffffffffffffff331690810361037157508181036103475760005b8181106101f357005b6101fe818387611a38565b3573ffffffffffffffffffffffffffffffffffffffff811680910361034257610228828587611a38565b359081471061031057600080809381935af13d15610308573d9067ffffffffffffffff82116102d9576040519161028760207fffffffffffffffffffffffffffffffffffffffffffffffffffffffffffffffe0601f8401160184611e6e565b82523d6000602084013e5b156102a057506001016101ea565b8051156102af57805190602001fd5b7fd6bda2750000000000000000000000000000000000000000000000000000000060005260046000fd5b7f4e487b7100000000000000000000000000000000000000000000000000000000600052604160045260246000fd5b606090610292565b50477fcf4791810000000000000000000000000000000000000000000000000000000060005260045260245260446000fd5b600080fd5b7f658253360000000000000000000000000000000000000000000000000000000060005260046000fd5b7f2ef4875e0000000000000000000000000000000000000000000000000000000060005260045260246000fd5b346103425760207ffffffffffffffffffffffffffffffffffffffffffffffffffffffffffffffffc360112610342576103d5611966565b7fc9ed16f33ab3a66c84bfd83099ccb2a8845871e2e1c1928f63797152f0fd54cc9073ffffffffffffffffffffffffffffffffffffffff825416908133036104865773ffffffffffffffffffffffffffffffffffffffff169182820361043757005b827fffffffffffffffffffffffff00000000000000000000000000000000000000008254161790557f8be0079c531659141344cd1fd0a4f28419497f9722a3daafe3b4186f6b6457e0600080a3005b7f2ef4875e000000000000000000000000000000000000000000000000000000006000523360045260246000fd5b346103425760007ffffffffffffffffffffffffffffffffffffffffffffffffffffffffffffffffc36011261034257602060405173ffffffffffffffffffffffffffffffffffffffff7f0000000000000000000000000000000000000000000000000000000000000000168152f35b346103425760607ffffffffffffffffffffffffffffffffffffffffffffffffffffffffffffffffc3601126103425761055a611966565b602435906044359067ffffffffffffffff8211610342573660238301121561034257816004013567ffffffffffffffff81116103425782013660248201116103425773ffffffffffffffffffffffffffffffffffffffff7f0000000000000000000000000000000000000000000000000000000000000000163303610a7f576040908390031261034257602482013591600383101561034257600091906044013582846108a057505073ffffffffffffffffffffffffffffffffffffffff604051917f6a627842000000000000000000000000000000000000000000000000000000008352166004820152602081602481600073ffffffffffffffffffffffffffffffffffffffff7f0000000000000000000000000000000000000000000000000000000000000000165af190811561082e5760009161086e575b5091600a936001945b81810361083a57505063ffffffff604051947f811ee32a000000000000000000000000000000000000000000000000000000008652166004850152602084602481600073ffffffffffffffffffffffffffffffffffffffff7f0000000000000000000000000000000000000000000000000000000000000000165af193841561082e576000946107f7575b5060405161073681611e52565b83815260208101926107c857600191835284600052600260205260406000209051815501905160038110156107c85760ff7fffffffffffffffffffffffffffffffffffffffffffffffffffffffffffffff008354169116179055600052600360205260406000205560206040517fd2741e83000000000000000000000000000000000000000000000000000000008152f35b7f4e487b7100000000000000000000000000000000000000000000000000000000600052602160045260246000fd5b90936020823d602011610826575b8161081260209383611e6e565b810103126108235750519284610729565b80fd5b3d9150610805565b6040513d6000823e3d90fd5b847fa5b1e30c0000000000000000000000000000000000000000000000000000000060005260045260245260445260646000fd5b90506020813d602011610898575b8161088960209383611e6e565b81010312610342575184610695565b3d915061087c565b92509290604051907f6352211e00000000000000000000000000000000000000000000000000000000825284600483015260208260248173ffffffffffffffffffffffffffffffffffffffff7f0000000000000000000000000000000000000000000000000000000000000000165afa918215610a74578492610a2b575b5073ffffffffffffffffffffffffffffffffffffffff80911691168181036109f757505082825260036020526040822054158383526003602052604083205490156109c75750816001820361098e5750826000526001602052610985604060002054611ad7565b9360019461069e565b604081856109a3935260016020522054611a48565b9383600052600160205263ffffffff6109c0604060002054611ef5565b169461069e565b90506044927f0d687298000000000000000000000000000000000000000000000000000000008352600452602452fd5b9091506064937f4b96e575000000000000000000000000000000000000000000000000000000008452600452602452604452fd5b73ffffffffffffffffffffffffffffffffffffffff919250610a65829160203d602011610a6d575b610a5d8183611e6e565b810190611eaf565b92915061091e565b503d610a53565b6040513d86823e3d90fd5b7fe588902b000000000000000000000000000000000000000000000000000000006000523360045260246000fd5b346103425760207ffffffffffffffffffffffffffffffffffffffffffffffffffffffffffffffffc36011261034257610ae4611966565b7fc9ed16f33ab3a66c84bfd83099ccb2a8845871e2e1c1928f63797152f0fd54cc54339073ffffffffffffffffffffffffffffffffffffffff168103610371577f266c47b41c6a585ba86773281be85dbce6df3d6082fd35df894deca1a091d512602073ffffffffffffffffffffffffffffffffffffffff8416807fffffffffffffffffffffffff00000000000000000000000000000000000000006000541617600055604051908152a1005b346103425760007ffffffffffffffffffffffffffffffffffffffffffffffffffffffffffffffffc36011261034257602060405173ffffffffffffffffffffffffffffffffffffffff7f0000000000000000000000000000000000000000000000000000000000000000168152f35b3461034257610c0e366118d3565b7fc9ed16f33ab3a66c84bfd83099ccb2a8845871e2e1c1928f63797152f0fd54cc5493949193909290339073ffffffffffffffffffffffffffffffffffffffff1681036103715750808214801590610e3b575b6103475760005b828110610c7157005b73ffffffffffffffffffffffffffffffffffffffff610c99610c9483858a611a38565b611ab6565b166040517f01ffc9a70000000000000000000000000000000000000000000000000000000081527f80ac58cd000000000000000000000000000000000000000000000000000000006004820152602081602481855afa90811561082e57600091610dfd575b5015610dd0575073ffffffffffffffffffffffffffffffffffffffff610d28610c9483858a611a38565b1690610d38610c9482868b611a38565b610d43828789611a38565b35833b15610342576040517f42842e0e00000000000000000000000000000000000000000000000000000000815230600482015273ffffffffffffffffffffffffffffffffffffffff9290921660248301526044820152916000908390606490829084905af191821561082e57600192610dbf575b5001610c68565b6000610dca91611e6e565b88610db8565b7f986b9f1f0000000000000000000000000000000000000000000000000000000060005260045260246000fd5b6020813d8211610e33575b81610e1560209383611e6e565b81010312610e2f5751908115158203610823575089610cfe565b5080fd5b3d9150610e08565b5082821415610c61565b346103425760007ffffffffffffffffffffffffffffffffffffffffffffffffffffffffffffffffc36011261034257602073ffffffffffffffffffffffffffffffffffffffff60005416604051908152f35b346103425760207ffffffffffffffffffffffffffffffffffffffffffffffffffffffffffffffffc360112610342576004356000526002602052604060002060ff60018254920154169060405190815260038210156107c8576040916020820152f35b346103425760007ffffffffffffffffffffffffffffffffffffffffffffffffffffffffffffffffc360112610342576020600a5b604051908152f35b346103425760007ffffffffffffffffffffffffffffffffffffffffffffffffffffffffffffffffc36011261034257602073ffffffffffffffffffffffffffffffffffffffff7fc9ed16f33ab3a66c84bfd83099ccb2a8845871e2e1c1928f63797152f0fd54cc5416604051908152f35b346103425760007ffffffffffffffffffffffffffffffffffffffffffffffffffffffffffffffffc36011261034257602060405173ffffffffffffffffffffffffffffffffffffffff7f0000000000000000000000000000000000000000000000000000000000000000168152f35b34610342576110243661186e565b906000526001602052604060002055600080f35b346103425760207ffffffffffffffffffffffffffffffffffffffffffffffffffffffffffffffffc3601126103425760043560005260016020526020610f2e604060002054611ad7565b3461034257611090366118d3565b929394909173ffffffffffffffffffffffffffffffffffffffff7fc9ed16f33ab3a66c84bfd83099ccb2a8845871e2e1c1928f63797152f0fd54cc541673ffffffffffffffffffffffffffffffffffffffff331690810361037157508086148015906111b6575b6103475760005b86811061110757005b611112818388611a38565b359073ffffffffffffffffffffffffffffffffffffffff82168203610342576111b0600192611145610c94848c89611a38565b90611151848a8a611a38565b3573ffffffffffffffffffffffffffffffffffffffff604051937fa9059cbb0000000000000000000000000000000000000000000000000000000060208601521660248401526044830152604482526111ab606483611e6e565b614ac4565b016110fe565b50838614156110f7565b346103425760007ffffffffffffffffffffffffffffffffffffffffffffffffffffffffffffffffc36011261034257602060405160ff7f0000000000000000000000000000000000000000000000000000000000000000168152f35b346103425760207ffffffffffffffffffffffffffffffffffffffffffffffffffffffffffffffffc3601126103425760043560005260016020526020610f2e604060002054611a48565b346103425760007ffffffffffffffffffffffffffffffffffffffffffffffffffffffffffffffffc36011261034257602060405173ffffffffffffffffffffffffffffffffffffffff7f0000000000000000000000000000000000000000000000000000000000000000168152f35b346103425760207ffffffffffffffffffffffffffffffffffffffffffffffffffffffffffffffffc3601126103425760043560005260036020526020604060002054604051908152f35b346103425760407ffffffffffffffffffffffffffffffffffffffffffffffffffffffffffffffffc3601126103425760243567ffffffffffffffff81116103425761136e9036906004016118a2565b9073ffffffffffffffffffffffffffffffffffffffff7f000000000000000000000000000000000000000000000000000000000000000016330361176457600435600052600260205260406000209160ff60018454948560005260036020526000604081205501541660038110156107c857600110611545571561151657816000526001602052611428604060002054917f00000000000000000000000000000000000000000000000000000000000000009035836120c8565b602081015191815191600a8310156107c85760009261150757600182018083116114da57858452600160205260408420555b5191600a8310156114ad5750916114a57fad70122cc7d9de88c17d2276190cc297baa68d12f166012d2d7eab6ecb229313949260809460405194855260208501526040840190611ee8565b6060820152a1005b807f4e487b7100000000000000000000000000000000000000000000000000000000602492526021600452fd5b6024847f4e487b710000000000000000000000000000000000000000000000000000000081526011600452fd5b6115118486611f1f565b61145a565b7f4e487b7100000000000000000000000000000000000000000000000000000000600052603260045260246000fd5b826000939293526001602052604060002054927f0000000000000000000000000000000000000000000000000000000000000000916000611584611f06565b506040519061159282611e52565b8082526020820152946115a481611ef5565b9460005b875197600a8910156107c857600098158061175b575b1561164257506115e4866115d28386611edb565b6115dd84888a611a38565b35906120c8565b977fffffffffffffffffffffffffffffffffffffffffffffffffffffffffffffffff821461161557506001016115a8565b807f4e487b7100000000000000000000000000000000000000000000000000000000602492526011600452fd5b9650925095509250611655915082611edb565b907fffffffffffffffffffffffffffffffffffffffffffffffffffffffffffffffff82019082821161172c57602084015193805193600a8510156107c85760009461170157868552600160205260408520555b5192600a8410156114ad57507f86ceb3931dd543c495c675a1027d6a329dbf198204ad44d696903bfd109f255d949260a094926116f992604051958652602086015260408501526060840190611ee8565b6080820152a1005b50818303611719575b6117148587611f1f565b6116a8565b858452600160205282604085205561170a565b7f4e487b7100000000000000000000000000000000000000000000000000000000600052601160045260246000fd5b508782106115be565b7fc05bb6cb000000000000000000000000000000000000000000000000000000006000523360045260246000fd5b346103425760207ffffffffffffffffffffffffffffffffffffffffffffffffffffffffffffffffc3601126103425760043560005260016020526020604060002054604051908152f35b346103425760207ffffffffffffffffffffffffffffffffffffffffffffffffffffffffffffffffc360112610342576004357fffffffff000000000000000000000000000000000000000000000000000000008116810361034257611842602091611989565b6040519015158152f35b346103425761185a3661186e565b906000526003602052604060002055600080f35b7ffffffffffffffffffffffffffffffffffffffffffffffffffffffffffffffffc6040910112610342576004359060243590565b9181601f840112156103425782359167ffffffffffffffff8311610342576020808501948460051b01011161034257565b60607ffffffffffffffffffffffffffffffffffffffffffffffffffffffffffffffffc8201126103425760043567ffffffffffffffff8111610342578161191c916004016118a2565b9290929160243567ffffffffffffffff8111610342578161193f916004016118a2565b929092916044359067ffffffffffffffff821161034257611962916004016118a2565b9091565b6004359073ffffffffffffffffffffffffffffffffffffffff8216820361034257565b7fffffffff00000000000000000000000000000000000000000000000000000000167fffffffff000000000000000000000000000000000000000000000000000000008114611a32577f01ffc9a7000000000000000000000000000000000000000000000000000000008114611a2c576000527fca9d3e17f264b0f3984e2634e94adb37fa3e6a8103f06aeae6fa59e21c769f5d60205260ff6040600020541690565b50600190565b50600090565b91908110156115165760051b0190565b60031c80611a565750608990565b60018103611a6557506101a590565b60028103611a74575061050590565b60038103611a835750610f5990565b60048103611a925750612ef390565b60058103611aa15750618fa090565b600603611aaf576201b75990565b62053ff690565b3573ffffffffffffffffffffffffffffffffffffffff811681036103425790565b600781169060031c80611b47575080611af05750600a90565b60018103611afe5750600c90565b60028103611b0c5750600d90565b60038103611b1a5750600f90565b60048103611b285750601190565b60058103611b365750601490565b600603611b4257601790565b601b90565b60018103611bb2575080611b5b5750601f90565b60018103611b695750602390565b60028103611b775750602890565b60038103611b855750602f90565b60048103611b935750603690565b60058103611ba15750603e90565b600603611bad57604790565b605190565b60028103611c1d575080611bc65750605e90565b60018103611bd45750606c90565b60028103611be25750607c90565b60038103611bf05750608e90565b60048103611bfe575060a490565b60058103611c0c575060bc90565b600603611c185760d890565b60f990565b60038103611c90575080611c32575061011e90565b60018103611c41575061014990565b60028103611c50575061017b90565b60038103611c5f57506101b390565b60048103611c6e57506101f590565b60058103611c7d575061024090565b600603611c8a5761029690565b6102f990565b60048103611d03575080611ca5575061036c90565b60018103611cb457506103ef90565b60028103611cc3575061048690565b60038103611cd2575061053490565b60048103611ce157506105fb90565b60058103611cf057506106e190565b600603611cfd576107e990565b61091990565b60058103611d76575080611d185750610a7790565b60018103611d275750610c0890565b60028103611d365750610dd690565b60038103611d455750610fea90565b60048103611d54575061124d90565b60058103611d63575061150b90565b600603611d705761183490565b611bd590565b600603611de75780611d89575061200290565b60018103611d9857506124cf90565b60028103611da75750612a5490565b60038103611db657506130ae90565b60048103611dc557506137fb90565b60058103611dd4575061406090565b600603611de157614a0890565b61552390565b80611df357506161e890565b60018103611e02575061709890565b60028103611e11575061817c90565b60038103611e2057506194e890565b60048103611e2f575061ab3e90565b60058103611e3e575061c4ed90565b600603611e4b5761e27790565b6201047090565b6040810190811067ffffffffffffffff8211176102d957604052565b90601f7fffffffffffffffffffffffffffffffffffffffffffffffffffffffffffffffe0910116810190811067ffffffffffffffff8211176102d957604052565b90816020910312610342575173ffffffffffffffffffffffffffffffffffffffff811681036103425790565b9190820180921161172c57565b90600a8210156107c85752565b6007166008036008811161172c5790565b60405190611f1382611e52565b60006020838281520152565b73ffffffffffffffffffffffffffffffffffffffff7f000000000000000000000000000000000000000000000000000000000000000016906040517f6352211e000000000000000000000000000000000000000000000000000000008152600093826004830152602082602481875afa9182156120bd579061202f92918692612098575b5085546040517f23b872dd00000000000000000000000000000000000000000000000000000000602082015273ffffffffffffffffffffffffffffffffffffffff9182166024820152921660448301526064808301919091528152612009608482611e6e565b7f0000000000000000000000000000000000000000000000000000000000000000614ac4565b813b156120945782916024839260405194859384927f42966c6800000000000000000000000000000000000000000000000000000000845260048401525af180156120895761207c575050565b8161208691611e6e565b50565b6040513d84823e3d90fd5b8280fd5b6120099192506120b69060203d602011610a6d57610a5d8183611e6e565b9190611fa3565b6040513d87823e3d90fd5b9160ff906040516120d881611e52565b60008152600060208201525016604d811161172c57606490600a0a049160078160031c91169080156000146122b357507a01f1d75a5709c1ab17a5c1130ecb4fbd64a6520000000000000000917a184f03e93ff9f4daa797ed6e38ed64bf6a1f010000000000000000918061219157500610156121765780600f0290600f82040361172c576040519061216a82611e52565b60038252602082015290565b5060405161218381611e52565b600081526000602082015290565b600181036121bc5750061015612176578060110290601182040361172c576040519061216a82611e52565b600281036121e75750061015612176578060140290601482040361172c576040519061216a82611e52565b600381036122125750061015612176578060170290601782040361172c576040519061216a82611e52565b6004810361223d57500610156121765780601a0290601a82040361172c576040519061216a82611e52565b6005810361226857500610156121765780601e0290601e82040361172c576040519061216a82611e52565b60060361229157061015612176578060230290602382040361172c576040519061216a82611e52565b061015612176578060280290602882040361172c576040519061216a82611e52565b600181036128ca57508061238757507a01756183c147514051bc50ce4b187bce0b7cbd80000000000000007a184f03e93ff9f4daa797ed6e38ed64bf6a1f0100000000000000008206101561231e575080602e0290602e82040361172c576040519061216a82611e52565b7a184f03e93ff9f4daa797ed6e38ed64bf6a1f0100000000000000007a01f1d75a5709c1ab17a5c1130ecb4fbd64a65200000000000000009106106000146121765780600f0290600f82040361172c576040519061237b82611e52565b60018252602082015290565b6001810361244957507a01756183c147514051bc50ce4b187bce0b7cbd80000000000000007a184f03e93ff9f4daa797ed6e38ed64bf6a1f010000000000000000820610156123ec57508060350290603582040361172c576040519061216a82611e52565b7a184f03e93ff9f4daa797ed6e38ed64bf6a1f0100000000000000007a01f1d75a5709c1ab17a5c1130ecb4fbd64a6520000000000000000910610600014612176578060120290601282040361172c576040519061237b82611e52565b6002810361250b57507a01756183c147514051bc50ce4b187bce0b7cbd80000000000000007a184f03e93ff9f4daa797ed6e38ed64bf6a1f010000000000000000820610156124ae575080603d0290603d82040361172c576040519061216a82611e52565b7a184f03e93ff9f4daa797ed6e38ed64bf6a1f0100000000000000007a01f1d75a5709c1ab17a5c1130ecb4fbd64a6520000000000000000910610600014612176578060140290601482040361172c576040519061237b82611e52565b600381036125cd57507a01756183c147514051bc50ce4b187bce0b7cbd80000000000000007a184f03e93ff9f4daa797ed6e38ed64bf6a1f0100000000000000008206101561257057508060460290604682040361172c576040519061216a82611e52565b7a184f03e93ff9f4daa797ed6e38ed64bf6a1f0100000000000000007a01f1d75a5709c1ab17a5c1130ecb4fbd64a6520000000000000000910610600014612176578060170290601782040361172c576040519061237b82611e52565b6004810361268f57507a01756183c147514051bc50ce4b187bce0b7cbd80000000000000007a184f03e93ff9f4daa797ed6e38ed64bf6a1f0100000000000000008206101561263257508060500290605082040361172c576040519061216a82611e52565b7a184f03e93ff9f4daa797ed6e38ed64bf6a1f0100000000000000007a01f1d75a5709c1ab17a5c1130ecb4fbd64a65200000000000000009106106000146121765780601b0290601b82040361172c576040519061237b82611e52565b6005810361275157507a01756183c147514051bc50ce4b187bce0b7cbd80000000000000007a184f03e93ff9f4daa797ed6e38ed64bf6a1f010000000000000000820610156126f4575080605c0290605c82040361172c576040519061216a82611e52565b7a184f03e93ff9f4daa797ed6e38ed64bf6a1f0100000000000000007a01f1d75a5709c1ab17a5c1130ecb4fbd64a65200000000000000009106106000146121765780601f0290601f82040361172c576040519061237b82611e52565b600603612811577a01756183c147514051bc50ce4b187bce0b7cbd80000000000000007a184f03e93ff9f4daa797ed6e38ed64bf6a1f010000000000000000820610156127b4575080606a0290606a82040361172c576040519061216a82611e52565b7a184f03e93ff9f4daa797ed6e38ed64bf6a1f0100000000000000007a01f1d75a5709c1ab17a5c1130ecb4fbd64a6520000000000000000910610600014612176578060230290602382040361172c576040519061237b82611e52565b7a01756183c147514051bc50ce4b187bce0b7cbd80000000000000007a184f03e93ff9f4daa797ed6e38ed64bf6a1f0100000000000000008206101561286d575080607a0290607a82040361172c576040519061216a82611e52565b7a184f03e93ff9f4daa797ed6e38ed64bf6a1f0100000000000000007a01f1d75a5709c1ab17a5c1130ecb4fbd64a6520000000000000000910610600014612176578060290290602982040361172c576040519061237b82611e52565b60028103612ee757508061299d5750795d5860f051d450146f143392c61ef382df2f60000000000000007a184f03e93ff9f4daa797ed6e38ed64bf6a1f0100000000000000008206101561294057508060ea029060ea82040361172c576040519061293482611e52565b60048252602082015290565b7a184f03e93ff9f4daa797ed6e38ed64bf6a1f0100000000000000007a026e4d30eccc3215dd8f3157d27e23acbdcfe680000000000000009106106000146121765780602f0290602f82040361172c576040519061237b82611e52565b60018103612a605750795d5860f051d450146f143392c61ef382df2f60000000000000007a184f03e93ff9f4daa797ed6e38ed64bf6a1f01000000000000000082061015612a0357508061010d029061010d82040361172c576040519061293482611e52565b7a184f03e93ff9f4daa797ed6e38ed64bf6a1f0100000000000000007a026e4d30eccc3215dd8f3157d27e23acbdcfe68000000000000000910610600014612176578060360290603682040361172c576040519061237b82611e52565b60028103612b235750795d5860f051d450146f143392c61ef382df2f60000000000000007a184f03e93ff9f4daa797ed6e38ed64bf6a1f01000000000000000082061015612ac6575080610135029061013582040361172c576040519061293482611e52565b7a184f03e93ff9f4daa797ed6e38ed64bf6a1f0100000000000000007a026e4d30eccc3215dd8f3157d27e23acbdcfe680000000000000009106106000146121765780603e0290603e82040361172c576040519061237b82611e52565b60038103612be65750795d5860f051d450146f143392c61ef382df2f60000000000000007a184f03e93ff9f4daa797ed6e38ed64bf6a1f01000000000000000082061015612b89575080610164029061016482040361172c576040519061293482611e52565b7a184f03e93ff9f4daa797ed6e38ed64bf6a1f0100000000000000007a026e4d30eccc3215dd8f3157d27e23acbdcfe68000000000000000910610600014612176578060470290604782040361172c576040519061237b82611e52565b60048103612ca95750795d5860f051d450146f143392c61ef382df2f60000000000000007a184f03e93ff9f4daa797ed6e38ed64bf6a1f01000000000000000082061015612c4c575080610199029061019982040361172c576040519061293482611e52565b7a184f03e93ff9f4daa797ed6e38ed64bf6a1f0100000000000000007a026e4d30eccc3215dd8f3157d27e23acbdcfe68000000000000000910610600014612176578060520290605282040361172c576040519061237b82611e52565b60058103612d6c5750795d5860f051d450146f143392c61ef382df2f60000000000000007a184f03e93ff9f4daa797ed6e38ed64bf6a1f01000000000000000082061015612d0f5750806101d702906101d782040361172c576040519061293482611e52565b7a184f03e93ff9f4daa797ed6e38ed64bf6a1f0100000000000000007a026e4d30eccc3215dd8f3157d27e23acbdcfe680000000000000009106106000146121765780605e0290605e82040361172c576040519061237b82611e52565b600603612e2d57795d5860f051d450146f143392c61ef382df2f60000000000000007a184f03e93ff9f4daa797ed6e38ed64bf6a1f01000000000000000082061015612dd057508061021d029061021d82040361172c576040519061293482611e52565b7a184f03e93ff9f4daa797ed6e38ed64bf6a1f0100000000000000007a026e4d30eccc3215dd8f3157d27e23acbdcfe680000000000000009106106000146121765780606c0290606c82040361172c576040519061237b82611e52565b795d5860f051d450146f143392c61ef382df2f60000000000000007a184f03e93ff9f4daa797ed6e38ed64bf6a1f01000000000000000082061015612e8a57508061026e029061026e82040361172c576040519061293482611e52565b7a184f03e93ff9f4daa797ed6e38ed64bf6a1f0100000000000000007a026e4d30eccc3215dd8f3157d27e23acbdcfe680000000000000009106106000146121765780607c0290607c82040361172c576040519061237b82611e52565b60038103613500575080612fb05750795d5860f051d450146f143392c61ef382df2f60000000000000007a184f03e93ff9f4daa797ed6e38ed64bf6a1f01000000000000000082061015612f535750806102cc02906102cc82040361172c576040519061293482611e52565b7a184f03e93ff9f4daa797ed6e38ed64bf6a1f0100000000000000007a02eac307828ea280a378a19c9630f79c16f97b00000000000000009106106000146121765780608f0290608f82040361172c576040519061237b82611e52565b600181036130735750795d5860f051d450146f143392c61ef382df2f60000000000000007a184f03e93ff9f4daa797ed6e38ed64bf6a1f01000000000000000082061015613016575080610337029061033782040361172c576040519061293482611e52565b7a184f03e93ff9f4daa797ed6e38ed64bf6a1f0100000000000000007a02eac307828ea280a378a19c9630f79c16f97b0000000000000000910610600014612176578060a5029060a582040361172c576040519061237b82611e52565b600281036131365750795d5860f051d450146f143392c61ef382df2f60000000000000007a184f03e93ff9f4daa797ed6e38ed64bf6a1f010000000000000000820610156130d95750806103b202906103b282040361172c576040519061293482611e52565b7a184f03e93ff9f4daa797ed6e38ed64bf6a1f0100000000000000007a02eac307828ea280a378a19c9630f79c16f97b0000000000000000910610600014612176578060bd029060bd82040361172c576040519061237b82611e52565b600381036131f95750795d5860f051d450146f143392c61ef382df2f60000000000000007a184f03e93ff9f4daa797ed6e38ed64bf6a1f0100000000000000008206101561319c575080610440029061044082040361172c576040519061293482611e52565b7a184f03e93ff9f4daa797ed6e38ed64bf6a1f0100000000000000007a02eac307828ea280a378a19c9630f79c16f97b0000000000000000910610600014612176578060da029060da82040361172c576040519061237b82611e52565b600481036132bc5750795d5860f051d450146f143392c61ef382df2f60000000000000007a184f03e93ff9f4daa797ed6e38ed64bf6a1f0100000000000000008206101561325f5750806104e402906104e482040361172c576040519061293482611e52565b7a184f03e93ff9f4daa797ed6e38ed64bf6a1f0100000000000000007a02eac307828ea280a378a19c9630f79c16f97b0000000000000000910610600014612176578060fa029060fa82040361172c576040519061237b82611e52565b600581036133815750795d5860f051d450146f143392c61ef382df2f60000000000000007a184f03e93ff9f4daa797ed6e38ed64bf6a1f0100000000000000008206101561332257508061059f029061059f82040361172c576040519061293482611e52565b7a184f03e93ff9f4daa797ed6e38ed64bf6a1f0100000000000000007a02eac307828ea280a378a19c9630f79c16f97b00000000000000009106106000146121765780610120029061012082040361172c576040519061237b82611e52565b60060361344457795d5860f051d450146f143392c61ef382df2f60000000000000007a184f03e93ff9f4daa797ed6e38ed64bf6a1f010000000000000000820610156133e5575080610677029061067782040361172c576040519061293482611e52565b7a184f03e93ff9f4daa797ed6e38ed64bf6a1f0100000000000000007a02eac307828ea280a378a19c9630f79c16f97b0000000000000000910610600014612176578061014b029061014b82040361172c576040519061237b82611e52565b795d5860f051d450146f143392c61ef382df2f60000000000000007a184f03e93ff9f4daa797ed6e38ed64bf6a1f010000000000000000820610156134a1575080610770029061077082040361172c576040519061293482611e52565b7a184f03e93ff9f4daa797ed6e38ed64bf6a1f0100000000000000007a02eac307828ea280a378a19c9630f79c16f97b0000000000000000910610600014612176578061017d029061017d82040361172c576040519061237b82611e52565b60048103613b3b5750806135e35750793e3aeb4ae1383562f4b82261d969f7ac94ca40000000000000007a184f03e93ff9f4daa797ed6e38ed64bf6a1f0100000000000000008206101561357857508061111a029061111a82040361172c576040519061356c82611e52565b60058252602082015290565b7a184f03e93ff9f4daa797ed6e38ed64bf6a1f0100000000000000007a036738de185112eb696211e159e3cb8b70230f8000000000000000910610600014612176578061036c029061036c82040361172c57604051906135d782611e52565b60028252602082015290565b600181036136a85750793e3aeb4ae1383562f4b82261d969f7ac94ca40000000000000007a184f03e93ff9f4daa797ed6e38ed64bf6a1f010000000000000000820610156136495750806113ab02906113ab82040361172c576040519061356c82611e52565b7a184f03e93ff9f4daa797ed6e38ed64bf6a1f0100000000000000007a036738de185112eb696211e159e3cb8b70230f800000000000000091061060001461217657806103ef02906103ef82040361172c57604051906135d782611e52565b6002810361376d5750793e3aeb4ae1383562f4b82261d969f7ac94ca40000000000000007a184f03e93ff9f4daa797ed6e38ed64bf6a1f0100000000000000008206101561370e57508061169e029061169e82040361172c576040519061356c82611e52565b7a184f03e93ff9f4daa797ed6e38ed64bf6a1f0100000000000000007a036738de185112eb696211e159e3cb8b70230f80000000000000009106106000146121765780610486029061048682040361172c57604051906135d782611e52565b600381036138325750793e3aeb4ae1383562f4b82261d969f7ac94ca40000000000000007a184f03e93ff9f4daa797ed6e38ed64bf6a1f010000000000000000820610156137d3575080611a030290611a0382040361172c576040519061356c82611e52565b7a184f03e93ff9f4daa797ed6e38ed64bf6a1f0100000000000000007a036738de185112eb696211e159e3cb8b70230f80000000000000009106106000146121765780610534029061053482040361172c57604051906135d782611e52565b600481036138f75750793e3aeb4ae1383562f4b82261d969f7ac94ca40000000000000007a184f03e93ff9f4daa797ed6e38ed64bf6a1f01000000000000000082061015613898575080611de90290611de982040361172c576040519061356c82611e52565b7a184f03e93ff9f4daa797ed6e38ed64bf6a1f0100000000000000007a036738de185112eb696211e159e3cb8b70230f800000000000000091061060001461217657806105fb02906105fb82040361172c57604051906135d782611e52565b600581036139bc5750793e3aeb4ae1383562f4b82261d969f7ac94ca40000000000000007a184f03e93ff9f4daa797ed6e38ed64bf6a1f0100000000000000008206101561395d575080612266029061226682040361172c576040519061356c82611e52565b7a184f03e93ff9f4daa797ed6e38ed64bf6a1f0100000000000000007a036738de185112eb696211e159e3cb8b70230f800000000000000091061060001461217657806106e102906106e182040361172c57604051906135d782611e52565b600603613a7f57793e3aeb4ae1383562f4b82261d969f7ac94ca40000000000000007a184f03e93ff9f4daa797ed6e38ed64bf6a1f01000000000000000082061015613a2057508061278f029061278f82040361172c576040519061356c82611e52565b7a184f03e93ff9f4daa797ed6e38ed64bf6a1f0100000000000000007a036738de185112eb696211e159e3cb8b70230f800000000000000091061060001461217657806107e902906107e982040361172c57604051906135d782611e52565b793e3aeb4ae1383562f4b82261d969f7ac94ca40000000000000007a184f03e93ff9f4daa797ed6e38ed64bf6a1f01000000000000000082061015613adc575080612d7e0290612d7e82040361172c576040519061356c82611e52565b7a184f03e93ff9f4daa797ed6e38ed64bf6a1f0100000000000000007a036738de185112eb696211e159e3cb8b70230f80000000000000009106106000146121765780610919029061091982040361172c57604051906135d782611e52565b6005810361416c575080613c125750792eac307828ea280a378a19c9630f79c16f97b0000000000000007a184f03e93ff9f4daa797ed6e38ed64bf6a1f01000000000000000082061015613bb35750806168a102906168a182040361172c5760405190613ba782611e52565b60078252602082015290565b7a184f03e93ff9f4daa797ed6e38ed64bf6a1f0100000000000000007a03e3aeb4ae1383562f4b82261d969f7ac94ca400000000000000009106106000146121765780610a770290610a7782040361172c57604051906135d782611e52565b60018103613cd75750792eac307828ea280a378a19c9630f79c16f97b0000000000000007a184f03e93ff9f4daa797ed6e38ed64bf6a1f01000000000000000082061015613c78575080617853029061785382040361172c5760405190613ba782611e52565b7a184f03e93ff9f4daa797ed6e38ed64bf6a1f0100000000000000007a03e3aeb4ae1383562f4b82261d969f7ac94ca400000000000000009106106000146121765780610c080290610c0882040361172c57604051906135d782611e52565b60028103613d9c5750792eac307828ea280a378a19c9630f79c16f97b0000000000000007a184f03e93ff9f4daa797ed6e38ed64bf6a1f01000000000000000082061015613d3d575080618a600290618a6082040361172c5760405190613ba782611e52565b7a184f03e93ff9f4daa797ed6e38ed64bf6a1f0100000000000000007a03e3aeb4ae1383562f4b82261d969f7ac94ca400000000000000009106106000146121765780610dd60290610dd682040361172c57604051906135d782611e52565b60038103613e615750792eac307828ea280a378a19c9630f79c16f97b0000000000000007a184f03e93ff9f4daa797ed6e38ed64bf6a1f01000000000000000082061015613e02575080619f210290619f2182040361172c5760405190613ba782611e52565b7a184f03e93ff9f4daa797ed6e38ed64bf6a1f0100000000000000007a03e3aeb4ae1383562f4b82261d969f7ac94ca400000000000000009106106000146121765780610fea0290610fea82040361172c57604051906135d782611e52565b60048103613f265750792eac307828ea280a378a19c9630f79c16f97b0000000000000007a184f03e93ff9f4daa797ed6e38ed64bf6a1f01000000000000000082061015613ec757508061b700029061b70082040361172c5760405190613ba782611e52565b7a184f03e93ff9f4daa797ed6e38ed64bf6a1f0100000000000000007a03e3aeb4ae1383562f4b82261d969f7ac94ca40000000000000000910610600014612176578061124d029061124d82040361172c57604051906135d782611e52565b60058103613feb5750792eac307828ea280a378a19c9630f79c16f97b0000000000000007a184f03e93ff9f4daa797ed6e38ed64bf6a1f01000000000000000082061015613f8c57508061d273029061d27382040361172c5760405190613ba782611e52565b7a184f03e93ff9f4daa797ed6e38ed64bf6a1f0100000000000000007a03e3aeb4ae1383562f4b82261d969f7ac94ca40000000000000000910610600014612176578061150b029061150b82040361172c57604051906135d782611e52565b6006036140ae57792eac307828ea280a378a19c9630f79c16f97b0000000000000007a184f03e93ff9f4daa797ed6e38ed64bf6a1f0100000000000000008206101561404f57508061f204029061f20482040361172c5760405190613ba782611e52565b7a184f03e93ff9f4daa797ed6e38ed64bf6a1f0100000000000000007a03e3aeb4ae1383562f4b82261d969f7ac94ca400000000000000009106106000146121765780611834029061183482040361172c57604051906135d782611e52565b792eac307828ea280a378a19c9630f79c16f97b0000000000000007a184f03e93ff9f4daa797ed6e38ed64bf6a1f0100000000000000008206101561410d5750806201165202906201165282040361172c5760405190613ba782611e52565b7a184f03e93ff9f4daa797ed6e38ed64bf6a1f0100000000000000007a03e3aeb4ae1383562f4b82261d969f7ac94ca400000000000000009106106000146121765780611bd50290611bd582040361172c57604051906135d782611e52565b6006036147a957806142435750793e3aeb4ae1383562f4b82261d969f7ac94ca40000000000000007a184f03e93ff9f4daa797ed6e38ed64bf6a1f010000000000000000820610156141e45750806203202902906203202982040361172c57604051906141d882611e52565b60088252602082015290565b7a184f03e93ff9f4daa797ed6e38ed64bf6a1f0100000000000000007a070caca77b835e0c35b8dbe515a1010e8cdae940000000000000009106106000146121765780615004029061500482040361172c576040519061293482611e52565b6001810361430a5750793e3aeb4ae1383562f4b82261d969f7ac94ca40000000000000007a184f03e93ff9f4daa797ed6e38ed64bf6a1f010000000000000000820610156142ab5750806203982f02906203982f82040361172c57604051906141d882611e52565b7a184f03e93ff9f4daa797ed6e38ed64bf6a1f0100000000000000007a070caca77b835e0c35b8dbe515a1010e8cdae940000000000000009106106000146121765780615c050290615c0582040361172c576040519061293482611e52565b600281036143d15750793e3aeb4ae1383562f4b82261d969f7ac94ca40000000000000007a184f03e93ff9f4daa797ed6e38ed64bf6a1f010000000000000000820610156143725750806204223602906204223682040361172c57604051906141d882611e52565b7a184f03e93ff9f4daa797ed6e38ed64bf6a1f0100000000000000007a070caca77b835e0c35b8dbe515a1010e8cdae9400000000000000091061060001461217657806169d202906169d282040361172c576040519061293482611e52565b600381036144985750793e3aeb4ae1383562f4b82261d969f7ac94ca40000000000000007a184f03e93ff9f4daa797ed6e38ed64bf6a1f010000000000000000820610156144395750806204c0f202906204c0f282040361172c57604051906141d882611e52565b7a184f03e93ff9f4daa797ed6e38ed64bf6a1f0100000000000000007a070caca77b835e0c35b8dbe515a1010e8cdae9400000000000000091061060001461217657806179b202906179b282040361172c576040519061293482611e52565b6004810361455f5750793e3aeb4ae1383562f4b82261d969f7ac94ca40000000000000007a184f03e93ff9f4daa797ed6e38ed64bf6a1f010000000000000000820610156145005750806205777c02906205777c82040361172c57604051906141d882611e52565b7a184f03e93ff9f4daa797ed6e38ed64bf6a1f0100000000000000007a070caca77b835e0c35b8dbe515a1010e8cdae940000000000000009106106000146121765780618bf30290618bf382040361172c576040519061293482611e52565b600581036146265750793e3aeb4ae1383562f4b82261d969f7ac94ca40000000000000007a184f03e93ff9f4daa797ed6e38ed64bf6a1f010000000000000000820610156145c75750806206496802906206496882040361172c57604051906141d882611e52565b7a184f03e93ff9f4daa797ed6e38ed64bf6a1f0100000000000000007a070caca77b835e0c35b8dbe515a1010e8cdae94000000000000000910610600014612176578061a0f1029061a0f182040361172c576040519061293482611e52565b6006036146eb57793e3aeb4ae1383562f4b82261d969f7ac94ca40000000000000007a184f03e93ff9f4daa797ed6e38ed64bf6a1f0100000000000000008206101561468c57508062073ad2029062073ad282040361172c57604051906141d882611e52565b7a184f03e93ff9f4daa797ed6e38ed64bf6a1f0100000000000000007a070caca77b835e0c35b8dbe515a1010e8cdae94000000000000000910610600014612176578061b915029061b91582040361172c576040519061293482611e52565b793e3aeb4ae1383562f4b82261d969f7ac94ca40000000000000007a184f03e93ff9f4daa797ed6e38ed64bf6a1f0100000000000000008206101561474a5750806208507102906208507182040361172c57604051906141d882611e52565b7a184f03e93ff9f4daa797ed6e38ed64bf6a1f0100000000000000007a070caca77b835e0c35b8dbe515a1010e8cdae94000000000000000910610600014612176578061d4d8029061d4d882040361172c576040519061293482611e52565b8061481c57507a184f03e93ff9f4daa797ed6e38ed64bf6a1f0100000000000000007a0a35aa9a48f338c23c2635a40dab62a250692e800000000000000091061060001461217657806202de4f02906202de4f82040361172c576040519061481082611e52565b60068252602082015290565b6001810361488657507a184f03e93ff9f4daa797ed6e38ed64bf6a1f0100000000000000007a0a35aa9a48f338c23c2635a40dab62a250692e8000000000000000910610600014612176578062034c74029062034c7482040361172c576040519061481082611e52565b600281036148f057507a184f03e93ff9f4daa797ed6e38ed64bf6a1f0100000000000000007a0a35aa9a48f338c23c2635a40dab62a250692e800000000000000091061060001461217657806203cb1f02906203cb1f82040361172c576040519061481082611e52565b6003810361495a57507a184f03e93ff9f4daa797ed6e38ed64bf6a1f0100000000000000007a0a35aa9a48f338c23c2635a40dab62a250692e8000000000000000910610600014612176578062045cca029062045cca82040361172c576040519061481082611e52565b600481036149c457507a184f03e93ff9f4daa797ed6e38ed64bf6a1f0100000000000000007a0a35aa9a48f338c23c2635a40dab62a250692e800000000000000091061060001461217657806205044f02906205044f82040361172c576040519061481082611e52565b60058103614a2e57507a184f03e93ff9f4daa797ed6e38ed64bf6a1f0100000000000000007a0a35aa9a48f338c23c2635a40dab62a250692e800000000000000091061060001461217657806205c4f402906205c4f482040361172c576040519061481082611e52565b600603614a96577a184f03e93ff9f4daa797ed6e38ed64bf6a1f0100000000000000007a0a35aa9a48f338c23c2635a40dab62a250692e800000000000000091061060001461217657806206a27f02906206a27f82040361172c576040519061481082611e52565b50806301107a4c02906301107a4c82040361172c5760405190614ab882611e52565b60098252602082015290565b906000602091828151910182855af11561082e576000513d614b46575073ffffffffffffffffffffffffffffffffffffffff81163b155b614b025750565b73ffffffffffffffffffffffffffffffffffffffff907f5274afe7000000000000000000000000000000000000000000000000000000006000521660045260246000fd5b60011415614afb56fea2646970667358221220a17557f3a4639b27699d19e6963579909cb57c027660b9c0a534d4331faff53964736f6c634300081e0033",
  "linkReferences": {},
  "deployedLinkReferences": {}
}