{
  "_format": "hh-sol-artifact-1",
  "contractName": "PointsArenaMock",
  "sourceName": "contracts/mocks/arena/PointsArenaMock.sol",
  "abi": [
    {
      "inputs": [
        {
          "internalType": "uint256",
          "name": "price",
          "type": "uint256"
        },
        {
          "internalType": "uint256",
          "name": "commissionRate",
          "type": "uint256"
        },
        {
          "internalType": "address",
          "name": "messageSigner",
          "type": "address"
        },
        {
          "internalType": "address payable",
          "name": "payoutWallet",
          "type": "address"
        },
        {
          "internalType": "address",
          "name": "points",
          "type": "address"
        },
        {
          "internalType": "bytes32",
          "name": "consumeReasonCode",
          "type": "bytes32"
        },
        {
          "internalType": "bytes32",
          "name": "rewardReasonCode",
          "type": "bytes32"
        },
        {
          "internalType": "bytes32",
          "name": "refundReasonCode",
          "type": "bytes32"
        },
        {
          "internalType": "bytes32",
          "name": "commissionReasonCode",
          "type": "bytes32"
        },
        {
          "internalType": "contract IForwarderRegistry",
          "name": "forwarderRegistry",
          "type": "address"
        }
      ],
      "stateMutability": "nonpayable",
      "type": "constructor"
    },
    {
      "inputs": [
        {
          "internalType": "address",
          "name": "account",
          "type": "address"
        }
      ],
      "name": "AlreadyAdmitted",
      "type": "error"
    },
    {
      "inputs": [],
      "name": "FailedCall",
      "type": "error"
    },
    {
      "inputs": [],
      "name": "IllegalInterfaceId",
      "type": "error"
    },
    {
      "inputs": [],
      "name": "InconsistentArrayLengths",
      "type": "error"
    },
    {
      "inputs": [
        {
          "internalType": "address",
          "name": "tokenContract",
          "type": "address"
        }
      ],
      "name": "IncorrectTokenContractType",
      "type": "error"
    },
    {
      "inputs": [
        {
          "internalType": "uint256",
          "name": "balance",
          "type": "uint256"
        },
        {
          "internalType": "uint256",
          "name": "needed",
          "type": "uint256"
        }
      ],
      "name": "InsufficientBalance",
      "type": "error"
    },
    {
      "inputs": [
        {
          "internalType": "uint256",
          "name": "rate",
          "type": "uint256"
        }
      ],
      "name": "InvalidCommissionRate",
      "type": "error"
    },
    {
      "inputs": [],
      "name": "InvalidShortString",
      "type": "error"
    },
    {
      "inputs": [],
      "name": "InvalidSignature",
      "type": "error"
    },
    {
      "inputs": [
        {
          "internalType": "address",
          "name": "account",
          "type": "address"
        }
      ],
      "name": "NotContractOwner",
      "type": "error"
    },
    {
      "inputs": [
        {
          "internalType": "address",
          "name": "account",
          "type": "address"
        }
      ],
      "name": "PlayerNotAdmitted",
      "type": "error"
    },
    {
      "inputs": [
        {
          "internalType": "address",
          "name": "token",
          "type": "address"
        }
      ],
      "name": "SafeERC20FailedOperation",
      "type": "error"
    },
    {
      "inputs": [
        {
          "internalType": "string",
          "name": "str",
          "type": "string"
        }
      ],
      "name": "StringTooLong",
      "type": "error"
    },
    {
      "inputs": [],
      "name": "ZeroAddressPayoutWallet",
      "type": "error"
    },
    {
      "inputs": [],
      "name": "ZeroPrice",
      "type": "error"
    },
    {
      "anonymous": false,
      "inputs": [
        {
          "indexed": true,
          "internalType": "address",
          "name": "account",
          "type": "address"
        }
      ],
      "name": "Admission",
      "type": "event"
    },
    {
      "anonymous": false,
      "inputs": [
        {
          "indexed": false,
          "internalType": "uint256",
          "name": "rate",
          "type": "uint256"
        }
      ],
      "name": "CommissionRateSet",
      "type": "event"
    },
    {
      "anonymous": false,
      "inputs": [],
      "name": "EIP712DomainChanged",
      "type": "event"
    },
    {
      "anonymous": false,
      "inputs": [
        {
          "indexed": true,
          "internalType": "uint256",
          "name": "matchId",
          "type": "uint256"
        },
        {
          "indexed": true,
          "internalType": "address",
          "name": "player1",
          "type": "address"
        },
        {
          "indexed": true,
          "internalType": "address",
          "name": "player2",
          "type": "address"
        },
        {
          "indexed": false,
          "internalType": "uint256",
          "name": "player1AdmissionTime",
          "type": "uint256"
        },
        {
          "indexed": false,
          "internalType": "uint256",
          "name": "player2AdmissionTime",
          "type": "uint256"
        },
        {
          "indexed": false,
          "internalType": "enum ArenaBase.MatchResult",
          "name": "result",
          "type": "uint8"
        }
      ],
      "name": "MatchCompleted",
      "type": "event"
    },
    {
      "anonymous": false,
      "inputs": [
        {
          "indexed": false,
          "internalType": "address",
          "name": "signer",
          "type": "address"
        }
      ],
      "name": "MessageSignerSet",
      "type": "event"
    },
    {
      "anonymous": false,
      "inputs": [
        {
          "indexed": true,
          "internalType": "address",
          "name": "previousOwner",
          "type": "address"
        },
        {
          "indexed": true,
          "internalType": "address",
          "name": "newOwner",
          "type": "address"
        }
      ],
      "name": "OwnershipTransferred",
      "type": "event"
    },
    {
      "anonymous": false,
      "inputs": [
        {
          "indexed": true,
          "internalType": "address",
          "name": "account",
          "type": "address"
        },
        {
          "indexed": true,
          "internalType": "uint256",
          "name": "matchId",
          "type": "uint256"
        },
        {
          "indexed": false,
          "internalType": "uint256",
          "name": "amount",
          "type": "uint256"
        }
      ],
      "name": "PayoutDelivered",
      "type": "event"
    },
    {
      "anonymous": false,
      "inputs": [
        {
          "indexed": false,
          "internalType": "address",
          "name": "payoutWallet",
          "type": "address"
        }
      ],
      "name": "PayoutWalletSet",
      "type": "event"
    },
    {
      "inputs": [],
      "name": "COMMISSION_REASON_CODE",
      "outputs": [
        {
          "internalType": "bytes32",
          "name": "",
          "type": "bytes32"
        }
      ],
      "stateMutability": "view",
      "type": "function"
    },
    {
      "inputs": [],
      "name": "COMPLETE_MATCH_TYPEHASH",
      "outputs": [
        {
          "internalType": "bytes32",
          "name": "",
          "type": "bytes32"
        }
      ],
      "stateMutability": "view",
      "type": "function"
    },
    {
      "inputs": [],
      "name": "CONSUME_REASON_CODE",
      "outputs": [
        {
          "internalType": "bytes32",
          "name": "",
          "type": "bytes32"
        }
      ],
      "stateMutability": "view",
      "type": "function"
    },
    {
      "inputs": [],
      "name": "ENTRY_FEE",
      "outputs": [
        {
          "internalType": "uint256",
          "name": "",
          "type": "uint256"
        }
      ],
      "stateMutability": "view",
      "type": "function"
    },
    {
      "inputs": [],
      "name": "POINTS",
      "outputs": [
        {
          "internalType": "contract IPointsSpender",
          "name": "",
          "type": "address"
        }
      ],
      "stateMutability": "view",
      "type": "function"
    },
    {
      "inputs": [],
      "name": "REFUND_REASON_CODE",
      "outputs": [
        {
          "internalType": "bytes32",
          "name": "",
          "type": "bytes32"
        }
      ],
      "stateMutability": "view",
      "type": "function"
    },
    {
      "inputs": [],
      "name": "REWARD_REASON_CODE",
      "outputs": [
        {
          "internalType": "bytes32",
          "name": "",
          "type": "bytes32"
        }
      ],
      "stateMutability": "view",
      "type": "function"
    },
    {
      "inputs": [],
      "name": "__msgData",
      "outputs": [
        {
          "internalType": "bytes",
          "name": "",
          "type": "bytes"
        }
      ],
      "stateMutability": "view",
      "type": "function"
    },
    {
      "inputs": [],
      "name": "__msgSender",
      "outputs": [
        {
          "internalType": "address",
          "name": "",
          "type": "address"
        }
      ],
      "stateMutability": "view",
      "type": "function"
    },
    {
      "inputs": [],
      "name": "admit",
      "outputs": [],
      "stateMutability": "nonpayable",
      "type": "function"
    },
    {
      "inputs": [
        {
          "internalType": "address",
          "name": "account",
          "type": "address"
        }
      ],
      "name": "admitted",
      "outputs": [
        {
          "internalType": "uint256",
          "name": "admissionTime",
          "type": "uint256"
        }
      ],
      "stateMutability": "view",
      "type": "function"
    },
    {
      "inputs": [],
      "name": "commission",
      "outputs": [
        {
          "internalType": "uint256",
          "name": "",
          "type": "uint256"
        }
      ],
      "stateMutability": "view",
      "type": "function"
    },
    {
      "inputs": [],
      "name": "commissionRate",
      "outputs": [
        {
          "internalType": "uint256",
          "name": "",
          "type": "uint256"
        }
      ],
      "stateMutability": "view",
      "type": "function"
    },
    {
      "inputs": [
        {
          "internalType": "uint256",
          "name": "matchId",
          "type": "uint256"
        },
        {
          "internalType": "address",
          "name": "player1",
          "type": "address"
        },
        {
          "internalType": "address",
          "name": "player2",
          "type": "address"
        },
        {
          "internalType": "enum ArenaBase.MatchResult",
          "name": "result",
          "type": "uint8"
        },
        {
          "internalType": "bytes",
          "name": "signature",
          "type": "bytes"
        }
      ],
      "name": "completeMatch",
      "outputs": [],
      "stateMutability": "nonpayable",
      "type": "function"
    },
    {
      "inputs": [],
      "name": "eip712Domain",
      "outputs": [
        {
          "internalType": "bytes1",
          "name": "fields",
          "type": "bytes1"
        },
        {
          "internalType": "string",
          "name": "name",
          "type": "string"
        },
        {
          "internalType": "string",
          "name": "version",
          "type": "string"
        },
        {
          "internalType": "uint256",
          "name": "chainId",
          "type": "uint256"
        },
        {
          "internalType": "address",
          "name": "verifyingContract",
          "type": "address"
        },
        {
          "internalType": "bytes32",
          "name": "salt",
          "type": "bytes32"
        },
        {
          "internalType": "uint256[]",
          "name": "extensions",
          "type": "uint256[]"
        }
      ],
      "stateMutability": "view",
      "type": "function"
    },
    {
      "inputs": [],
      "name": "forwarderRegistry",
      "outputs": [
        {
          "internalType": "contract IForwarderRegistry",
          "name": "",
          "type": "address"
        }
      ],
      "stateMutability": "view",
      "type": "function"
    },
    {
      "inputs": [
        {
          "internalType": "address",
          "name": "forwarder",
          "type": "address"
        }
      ],
      "name": "isTrustedForwarder",
      "outputs": [
        {
          "internalType": "bool",
          "name": "",
          "type": "bool"
        }
      ],
      "stateMutability": "view",
      "type": "function"
    },
    {
      "inputs": [],
      "name": "messageSigner",
      "outputs": [
        {
          "internalType": "address",
          "name": "",
          "type": "address"
        }
      ],
      "stateMutability": "view",
      "type": "function"
    },
    {
      "inputs": [],
      "name": "owner",
      "outputs": [
        {
          "internalType": "address",
          "name": "",
          "type": "address"
        }
      ],
      "stateMutability": "view",
      "type": "function"
    },
    {
      "inputs": [],
      "name": "payoutWallet",
      "outputs": [
        {
          "internalType": "address payable",
          "name": "wallet",
          "type": "address"
        }
      ],
      "stateMutability": "view",
      "type": "function"
    },
    {
      "inputs": [
        {
          "internalType": "address[]",
          "name": "accounts",
          "type": "address[]"
        },
        {
          "internalType": "contract IERC20[]",
          "name": "tokens",
          "type": "address[]"
        },
        {
          "internalType": "uint256[]",
          "name": "amounts",
          "type": "uint256[]"
        }
      ],
      "name": "recoverERC20s",
      "outputs": [],
      "stateMutability": "nonpayable",
      "type": "function"
    },
    {
      "inputs": [
        {
          "internalType": "address[]",
          "name": "accounts",
          "type": "address[]"
        },
        {
          "internalType": "contract IERC721[]",
          "name": "contracts",
          "type": "address[]"
        },
        {
          "internalType": "uint256[]",
          "name": "tokenIds",
          "type": "uint256[]"
        }
      ],
      "name": "recoverERC721s",
      "outputs": [],
      "stateMutability": "nonpayable",
      "type": "function"
    },
    {
      "inputs": [
        {
          "internalType": "address payable[]",
          "name": "accounts",
          "type": "address[]"
        },
        {
          "internalType": "uint256[]",
          "name": "amounts",
          "type": "uint256[]"
        }
      ],
      "name": "recoverETH",
      "outputs": [],
      "stateMutability": "nonpayable",
      "type": "function"
    },
    {
      "inputs": [],
      "name": "reward",
      "outputs": [
        {
          "internalType": "uint256",
          "name": "",
          "type": "uint256"
        }
      ],
      "stateMutability": "view",
      "type": "function"
    },
    {
      "inputs": [
        {
          "internalType": "uint256",
          "name": "newCommissionRate",
          "type": "uint256"
        }
      ],
      "name": "setCommissionRate",
      "outputs": [],
      "stateMutability": "nonpayable",
      "type": "function"
    },
    {
      "inputs": [
        {
          "internalType": "address",
          "name": "signer",
          "type": "address"
        }
      ],
      "name": "setMessageSigner",
      "outputs": [],
      "stateMutability": "nonpayable",
      "type": "function"
    },
    {
      "inputs": [
        {
          "internalType": "address payable",
          "name": "newPayoutWallet",
          "type": "address"
        }
      ],
      "name": "setPayoutWallet",
      "outputs": [],
      "stateMutability": "nonpayable",
      "type": "function"
    },
    {
      "inputs": [
        {
          "internalType": "bytes4",
          "name": "interfaceId",
          "type": "bytes4"
        }
      ],
      "name": "supportsInterface",
      "outputs": [
        {
          "internalType": "bool",
          "name": "",
          "type": "bool"
        }
      ],
      "stateMutability": "view",
      "type": "function"
    },
    {
      "inputs": [
        {
          "internalType": "address",
          "name": "newOwner",
          "type": "address"
        }
      ],
      "name": "transferOwnership",
      "outputs": [],
      "stateMutability": "nonpayable",
      "type": "function"
    }
  ],
  "bytecode": "0x61024060405234801561001157600080fd5b5060405161351d38038061351d83398101604081905261003091610567565b898989898989898989898080888a33604051806040016040528060058152602001644172656e6160d81b815250604051806040016040528060038152602001620312e360ec1b81525061008d60008361022060201b90919060201c565b6101205261009c816001610220565b61014052815160208084019190912060e052815190820120610100524660a05261012960e05161010051604080517f8b73c3c69bb8fe3d512ecc4cf759cc79239f7b179b0ffacaa9a75d522b39400f60208201529081019290925260608201524660808201523060a082015260009060c00160405160208183030381529060405280519060200120905090565b60805250503060c0526101448161013e610253565b90610281565b50600280546001600160a01b0319166001600160a01b0383169081179091556040519081527f66b8dbbd7f4a59921c0e0f594b6fb8434e778851611f323b7c3d00d07a74b1209060200160405180910390a1506101a9816101a36102f7565b90610325565b506001600160a01b0316610160525060008a90036101da57604051634dfba02360e01b815260040160405180910390fd5b6102208a90526101e98961032f565b506001600160a01b0390941661020052610180929092526101a0526101c0526101e0525061086b9c50505050505050505050505050565b600060208351101561023c576102358361040e565b905061024d565b8161024784826106bd565b5060ff90505b92915050565b60008061024d60017fc9ed16f33ab3a66c84bfd83099ccb2a8845871e2e1c1928f63797152f0fd54cd610791565b6001600160a01b038116156102d75781546001600160a01b0319166001600160a01b03821690811783556040516000907f8be0079c531659141344cd1fd0a4f28419497f9722a3daafe3b4186f6b6457e0908290a35b6102f36307f5828d60e41b60016102ec61044c565b919061047a565b5050565b60008061024d60017f4fb5f8cdfbce77f22b0931a39e9f476a60a0f66524b2f379e96485471eb700ae610791565b6102f382826104d6565b600061022051600261034191906107a4565b9050600082156103c75761271080841061037657604051633e13fd7160e11b8152600481018590526024015b60405180910390fd5b8061038185856107a4565b61038b91906107d1565b91506103986002836107e5565b156103b957604051633e13fd7160e11b81526004810185905260240161036d565b6103c38284610791565b9250505b6004839055600581905560068290556040518381527f2377da1065ac38e2a730070d5b9dd08aa697ba49f4b41e3dee80ab5cc06099019060200160405180910390a1505050565b600080829050601f81511115610439578260405163305a27a960e01b815260040161036d91906107f9565b805161044482610847565b179392505050565b60008061024d60017fca9d3e17f264b0f3984e2634e94adb37fa3e6a8103f06aeae6fa59e21c769f5e610791565b600160e01b6001600160e01b03198316016104a8576040516372c683bb60e01b815260040160405180910390fd5b6001600160e01b03199190911660009081526020929092526040909120805460ff1916911515919091179055565b6001600160a01b0381166104fd576040516340b539cf60e01b815260040160405180910390fd5b81546001600160a01b0319166001600160a01b03821690811783556040519081527fdd880d24a789958a6398c99c2e54ce31bc10a638cbc42f7dd34285479ae0f8559060200160405180910390a15050565b6001600160a01b038116811461056457600080fd5b50565b6000806000806000806000806000806101408b8d03121561058757600080fd5b8a5160208c015160408d0151919b5099506105a18161054f565b60608c01519098506105b28161054f565b60808c01519097506105c38161054f565b80965050600060a08c0151905080955050600060c08c0151905080945050600060e08c015190508093505060006101008c01519050809250506101208b015161060b8161054f565b809150509295989b9194979a5092959850565b634e487b7160e01b600052604160045260246000fd5b600181811c9082168061064857607f821691505b60208210810361066857634e487b7160e01b600052602260045260246000fd5b50919050565b601f8211156106b857806000526020600020601f840160051c810160208510156106955750805b601f840160051c820191505b818110156106b557600081556001016106a1565b50505b505050565b81516001600160401b038111156106d6576106d661061e565b6106ea816106e48454610634565b8461066e565b6020601f82116001811461071e57600083156107065750848201515b600019600385901b1c1916600184901b1784556106b5565b600084815260208120601f198516915b8281101561074e578785015182556020948501946001909201910161072e565b508482101561076c5786840151600019600387901b60f8161c191681555b50505050600190811b01905550565b634e487b7160e01b600052601160045260246000fd5b8181038181111561024d5761024d61077b565b808202811582820484141761024d5761024d61077b565b634e487b7160e01b600052601260045260246000fd5b6000826107e0576107e06107bb565b500490565b6000826107f4576107f46107bb565b500690565b602081526000825180602084015260005b81811015610827576020818601810151604086840101520161080a565b506000604082850101526040601f19601f83011684010191505092915050565b805160208083015191908110156106685760001960209190910360031b1b16919050565b60805160a05160c05160e05161010051610120516101405161016051610180516101a0516101c0516101e0516102005161022051612b94610989600039600081816104c3015281816105a40152610e900152600081816103c5015281816105f0015281816106ef01528181610895015281816109630152610b0001526000818161049c01526107a00152600081816103780152818161086c015261093d0152600081816102880152610ad701526000818161046201526105ca0152600081816102b50152818161032d015281816119ad01528181611a3b01528181611aee0152611b2c015260006114ee015260006114c10152600061201801526000611ff001526000611f4b01526000611f7501526000611f9f0152612b946000f3fe608060405234801561001057600080fd5b50600436106101ce5760003560e01c80636b8f9c4311610104578063c3666c36116100a2578063f2fde38b11610071578063f2fde38b14610484578063f6a45cd014610497578063f6d361cc146104be578063f7ba94bd146104e557600080fd5b8063c3666c3614610439578063d1a91ff21461044c578063e148919114610454578063eb9523231461045d57600080fd5b80638488bb4e116100de5780638488bb4e146103e757806384b0196e146103ef5780638da5cb5b1461040a578063a51f054e1461041257600080fd5b80636b8f9c431461039a57806373c8a958146103ad5780637f6e4281146103c057600080fd5b806331e66e1e116101715780634d717e601161014b5780634d717e601461030a578063572b6c051461031d5780635ea1d6f81461036a57806364c5384d1461037357600080fd5b806331e66e1e146102d95780634ae83719146102ef5780634b36df53146102f757600080fd5b806319fac8fd116101ad57806319fac8fd1461026e5780631c7a2bd114610283578063228cb733146102aa5780632b4c9f16146102b357600080fd5b806220d939146101d357806301ffc9a714610206578063080387b414610229575b600080fd5b6101f36101e1366004612486565b60036020526000908152604090205481565b6040519081526020015b60405180910390f35b6102196102143660046124a3565b6104f8565b60405190151581526020016101fd565b6002546102499073ffffffffffffffffffffffffffffffffffffffff1681565b60405173ffffffffffffffffffffffffffffffffffffffff90911681526020016101fd565b61028161027c3660046124e5565b610512565b005b6101f37f000000000000000000000000000000000000000000000000000000000000000081565b6101f360065481565b7f0000000000000000000000000000000000000000000000000000000000000000610249565b6102e1610537565b6040516101fd9291906124fe565b61028161054a565b610281610305366004612486565b61064f565b61028161031836600461254b565b6106d3565b61021961032b366004612486565b7f000000000000000000000000000000000000000000000000000000000000000073ffffffffffffffffffffffffffffffffffffffff90811691161490565b6101f360045481565b6101f37f000000000000000000000000000000000000000000000000000000000000000081565b6102816103a8366004612486565b610bbb565b6102816103bb366004612651565b610bd8565b6102497f000000000000000000000000000000000000000000000000000000000000000081565b610249610bf9565b6103f7610c0b565b6040516101fd9796959493929190612765565b610249610c6d565b6101f37f41d3c412792afe3502c61d7887e9d9d833c12de3149ac85d69058c8586f6347081565b610281610447366004612651565b610c7a565b610249610c93565b6101f360055481565b6101f37f000000000000000000000000000000000000000000000000000000000000000081565b610281610492366004612486565b610c9d565b6101f37f000000000000000000000000000000000000000000000000000000000000000081565b6101f37f000000000000000000000000000000000000000000000000000000000000000081565b6102816104f3366004612826565b610cb8565b600061050c82610506610cd5565b90610d03565b92915050565b61052b61051d610ddd565b610525610de7565b90610e15565b61053481610e89565b50565b366000610542610fb0565b915091509091565b6000610554610ddd565b905061055f81610fbb565b6040517f212aac7900000000000000000000000000000000000000000000000000000000815273ffffffffffffffffffffffffffffffffffffffff82811660048301527f000000000000000000000000000000000000000000000000000000000000000060248301527f000000000000000000000000000000000000000000000000000000000000000060448301527f0000000000000000000000000000000000000000000000000000000000000000169063212aac7990606401600060405180830381600087803b15801561063457600080fd5b505af1158015610648573d6000803e3d6000fd5b5050505050565b61065a61051d610ddd565b600280547fffffffffffffffffffffffff00000000000000000000000000000000000000001673ffffffffffffffffffffffffffffffffffffffff83169081179091556040519081527f66b8dbbd7f4a59921c0e0f594b6fb8434e778851611f323b7c3d00d07a74b1209060200160405180910390a150565b6106e1868686868686611081565b60055460065481156107fa577f000000000000000000000000000000000000000000000000000000000000000073ffffffffffffffffffffffffffffffffffffffff166326b3293f61074e6107346112e7565b5473ffffffffffffffffffffffffffffffffffffffff1690565b6040517fffffffff0000000000000000000000000000000000000000000000000000000060e084901b16815273ffffffffffffffffffffffffffffffffffffffff9091166004820152602481018590527f00000000000000000000000000000000000000000000000000000000000000006044820152606401600060405180830381600087803b1580156107e157600080fd5b505af11580156107f5573d6000803e3d6000fd5b505050505b600285600281111561080e5761080e612897565b03610a69576000610820600283612924565b6040517f26b3293f00000000000000000000000000000000000000000000000000000000815273ffffffffffffffffffffffffffffffffffffffff8a81166004830152602482018390527f000000000000000000000000000000000000000000000000000000000000000060448301529192507f0000000000000000000000000000000000000000000000000000000000000000909116906326b3293f90606401600060405180830381600087803b1580156108db57600080fd5b505af11580156108ef573d6000803e3d6000fd5b50506040517f26b3293f00000000000000000000000000000000000000000000000000000000815273ffffffffffffffffffffffffffffffffffffffff8a81166004830152602482018590527f000000000000000000000000000000000000000000000000000000000000000060448301527f00000000000000000000000000000000000000000000000000000000000000001692506326b3293f9150606401600060405180830381600087803b1580156109a957600080fd5b505af11580156109bd573d6000803e3d6000fd5b50505050888873ffffffffffffffffffffffffffffffffffffffff167f0733dbb1b7864ea8abcea54657d9fc322605c9a44f8733d80e4edb6d61b999bb83604051610a0a91815260200190565b60405180910390a3888773ffffffffffffffffffffffffffffffffffffffff167f0733dbb1b7864ea8abcea54657d9fc322605c9a44f8733d80e4edb6d61b999bb83604051610a5b91815260200190565b60405180910390a350610bb1565b600080866002811115610a7e57610a7e612897565b14610a895786610a8b565b875b6040517f26b3293f00000000000000000000000000000000000000000000000000000000815273ffffffffffffffffffffffffffffffffffffffff8083166004830152602482018590527f000000000000000000000000000000000000000000000000000000000000000060448301529192507f0000000000000000000000000000000000000000000000000000000000000000909116906326b3293f90606401600060405180830381600087803b158015610b4657600080fd5b505af1158015610b5a573d6000803e3d6000fd5b50505050888173ffffffffffffffffffffffffffffffffffffffff167f0733dbb1b7864ea8abcea54657d9fc322605c9a44f8733d80e4edb6d61b999bb84604051610ba791815260200190565b60405180910390a3505b5050505050505050565b610bc661051d610ddd565b61053481610bd26112e7565b90611315565b610be361051d610ddd565b610bf18686868686866113d9565b505050505050565b6000610c066107346112e7565b905090565b600060608060008060006060610c1f6114ba565b610c276114e7565b604080516000808252602082019092527f0f000000000000000000000000000000000000000000000000000000000000009b939a50919850469750309650945092509050565b6000610c06610734610de7565b610c8561051d610ddd565b610bf1868686868686611514565b6000610c06610ddd565b610534610ca8610ddd565b82610cb1610de7565b91906117aa565b610cc361051d610ddd565b610ccf848484846118be565b50505050565b60008061050c60017fca9d3e17f264b0f3984e2634e94adb37fa3e6a8103f06aeae6fa59e21c769f5e612938565b60007c01000000000000000000000000000000000000000000000000000000007fffffffff00000000000000000000000000000000000000000000000000000000831601610d535750600061050c565b7ffe003659000000000000000000000000000000000000000000000000000000007fffffffff00000000000000000000000000000000000000000000000000000000831601610da45750600161050c565b507fffffffff00000000000000000000000000000000000000000000000000000000166000908152602091909152604090205460ff1690565b6000610c0661196a565b60008061050c60017fc9ed16f33ab3a66c84bfd83099ccb2a8845871e2e1c1928f63797152f0fd54cd612938565b815473ffffffffffffffffffffffffffffffffffffffff828116911614610e85576040517f2ef4875e00000000000000000000000000000000000000000000000000000000815273ffffffffffffffffffffffffffffffffffffffff821660048201526024015b60405180910390fd5b5050565b6000610eb67f0000000000000000000000000000000000000000000000000000000000000000600261294b565b905060008215610f6957612710808410610eff576040517f7c27fae200000000000000000000000000000000000000000000000000000000815260048101859052602401610e7c565b80610f0a858561294b565b610f149190612924565b9150610f21600283612962565b15610f5b576040517f7c27fae200000000000000000000000000000000000000000000000000000000815260048101859052602401610e7c565b610f658284612938565b9250505b6004839055600581905560068290556040518381527f2377da1065ac38e2a730070d5b9dd08aa697ba49f4b41e3dee80ab5cc06099019060200160405180910390a1505050565b366000610542611ab7565b73ffffffffffffffffffffffffffffffffffffffff811660009081526003602052604090205415611030576040517f301eda9600000000000000000000000000000000000000000000000000000000815273ffffffffffffffffffffffffffffffffffffffff82166004820152602401610e7c565b73ffffffffffffffffffffffffffffffffffffffff8116600081815260036020526040808220429055517f131f3edc3bd512c7b34906feb3cdacf9e893076fbb713603ff86294f0ddd28ca9190a250565b73ffffffffffffffffffffffffffffffffffffffff8516600090815260036020526040812054908190036110f9576040517f2da4098c00000000000000000000000000000000000000000000000000000000815273ffffffffffffffffffffffffffffffffffffffff87166004820152602401610e7c565b73ffffffffffffffffffffffffffffffffffffffff851660009081526003602052604081205490819003611171576040517f2da4098c00000000000000000000000000000000000000000000000000000000815273ffffffffffffffffffffffffffffffffffffffff87166004820152602401610e7c565b60006111ce7f41d3c412792afe3502c61d7887e9d9d833c12de3149ac85d69058c8586f634708a8a8a87878c6040516020016111b397969594939291906129b1565b60405160208183030381529060405280519060200120611c27565b600254604080516020601f890181900481028201810190925287815292935060009261122e9273ffffffffffffffffffffffffffffffffffffffff16918591908a908a9081908401838280828437600092019190915250611c6f92505050565b905080611267576040517f8baa579f00000000000000000000000000000000000000000000000000000000815260040160405180910390fd5b73ffffffffffffffffffffffffffffffffffffffff808a16600081815260036020526040808220829055928b168082528382209190915591518c907fa41446c5ad98f98e4d30afa277dbb496694229533065ee6b8fc00f57f97f230a906112d390899089908e90612a1f565b60405180910390a450505050505050505050565b60008061050c60017f4fb5f8cdfbce77f22b0931a39e9f476a60a0f66524b2f379e96485471eb700ae612938565b73ffffffffffffffffffffffffffffffffffffffff8116611362576040517f40b539cf00000000000000000000000000000000000000000000000000000000815260040160405180910390fd5b81547fffffffffffffffffffffffff00000000000000000000000000000000000000001673ffffffffffffffffffffffffffffffffffffffff821690811783556040519081527fdd880d24a789958a6398c99c2e54ce31bc10a638cbc42f7dd34285479ae0f8559060200160405180910390a15050565b8483811415806113e95750808214155b15611420576040517f6582533600000000000000000000000000000000000000000000000000000000815260040160405180910390fd5b60005b81811015610bb1576114b288888381811061144057611440612a42565b90506020020160208101906114559190612486565b85858481811061146757611467612a42565b9050602002013588888581811061148057611480612a42565b90506020020160208101906114959190612486565b73ffffffffffffffffffffffffffffffffffffffff169190611d0d565b600101611423565b6060610c067f00000000000000000000000000000000000000000000000000000000000000006000611d9f565b6060610c067f00000000000000000000000000000000000000000000000000000000000000006001611d9f565b8483811415806115245750808214155b1561155b576040517f6582533600000000000000000000000000000000000000000000000000000000815260040160405180910390fd5b60005b81811015610bb157600086868381811061157a5761157a612a42565b905060200201602081019061158f9190612486565b6040517f01ffc9a70000000000000000000000000000000000000000000000000000000081527f80ac58cd00000000000000000000000000000000000000000000000000000000600482015290915073ffffffffffffffffffffffffffffffffffffffff8216906301ffc9a790602401602060405180830381865afa15801561161c573d6000803e3d6000fd5b505050506040513d601f19601f820116820180604052508101906116409190612a71565b61168e576040517f986b9f1f00000000000000000000000000000000000000000000000000000000815273ffffffffffffffffffffffffffffffffffffffff82166004820152602401610e7c565b8686838181106116a0576116a0612a42565b90506020020160208101906116b59190612486565b73ffffffffffffffffffffffffffffffffffffffff166342842e0e308b8b868181106116e3576116e3612a42565b90506020020160208101906116f89190612486565b88888781811061170a5761170a612a42565b6040517fffffffff0000000000000000000000000000000000000000000000000000000060e088901b16815273ffffffffffffffffffffffffffffffffffffffff958616600482015294909316602485015250602090910201356044820152606401600060405180830381600087803b15801561178657600080fd5b505af115801561179a573d6000803e3d6000fd5b505050505080600101905061155e565b825473ffffffffffffffffffffffffffffffffffffffff9081169083168114611817576040517f2ef4875e00000000000000000000000000000000000000000000000000000000815273ffffffffffffffffffffffffffffffffffffffff84166004820152602401610e7c565b8173ffffffffffffffffffffffffffffffffffffffff168173ffffffffffffffffffffffffffffffffffffffff1614610ccf5783547fffffffffffffffffffffffff00000000000000000000000000000000000000001673ffffffffffffffffffffffffffffffffffffffff8381169182178655604051908316907f8be0079c531659141344cd1fd0a4f28419497f9722a3daafe3b4186f6b6457e090600090a350505050565b828181146118f8576040517f6582533600000000000000000000000000000000000000000000000000000000815260040160405180910390fd5b60005b81811015610bf15761196284848381811061191857611918612a42565b9050602002013587878481811061193157611931612a42565b90506020020160208101906119469190612486565b73ffffffffffffffffffffffffffffffffffffffff1690611e4a565b6001016118fb565b60003332148061197a5750601836105b1561198457503390565b7fffffffffffffffffffffffffffffffffffffffffffffffffffffffffffffffec36013560601c7f000000000000000000000000000000000000000000000000000000000000000073ffffffffffffffffffffffffffffffffffffffff16331480611aa657506040517f019a202800000000000000000000000000000000000000000000000000000000815273ffffffffffffffffffffffffffffffffffffffff82811660048301523360248301523060448301527f0000000000000000000000000000000000000000000000000000000000000000169063019a202890606401602060405180830381865afa158015611a82573d6000803e3d6000fd5b505050506040513d601f19601f82011682018060405250810190611aa69190612a71565b15611ab057919050565b3391505090565b36600033321480611ac85750601836105b15611ad65750600091369150565b3373ffffffffffffffffffffffffffffffffffffffff7f0000000000000000000000000000000000000000000000000000000000000000161480611c11575073ffffffffffffffffffffffffffffffffffffffff7f00000000000000000000000000000000000000000000000000000000000000001663019a2028367fffffffffffffffffffffffffffffffffffffffffffffffffffffffffffffffec013560601c6040517fffffffff0000000000000000000000000000000000000000000000000000000060e084901b16815273ffffffffffffffffffffffffffffffffffffffff9091166004820152336024820152306044820152606401602060405180830381865afa158015611bed573d6000803e3d6000fd5b505050506040513d601f19601f82011682018060405250810190611c119190612a71565b15611c1e57610542611f00565b50600091369150565b600061050c611c34611f31565b836040517f19010000000000000000000000000000000000000000000000000000000000008152600281019290925260228201526042902090565b60008373ffffffffffffffffffffffffffffffffffffffff163b600003611cf857600080611c9d8585612069565b5090925090506000816003811115611cb757611cb7612897565b148015611cef57508573ffffffffffffffffffffffffffffffffffffffff168273ffffffffffffffffffffffffffffffffffffffff16145b92505050611d06565b611d038484846120b6565b90505b9392505050565b6040805173ffffffffffffffffffffffffffffffffffffffff8416602482015260448082018490528251808303909101815260649091019091526020810180517bffffffffffffffffffffffffffffffffffffffffffffffffffffffff167fa9059cbb00000000000000000000000000000000000000000000000000000000179052611d9a908490612204565b505050565b606060ff8314611db957611db2836122a8565b905061050c565b818054611dc590612a93565b80601f0160208091040260200160405190810160405280929190818152602001828054611df190612a93565b8015611e3e5780601f10611e1357610100808354040283529160200191611e3e565b820191906000526020600020905b815481529060010190602001808311611e2157829003601f168201915b5050505050905061050c565b80471015611e8d576040517fcf47918100000000000000000000000000000000000000000000000000000000815247600482015260248101829052604401610e7c565b6000808373ffffffffffffffffffffffffffffffffffffffff168360405160006040518083038185875af1925050503d8060008114611ee8576040519150601f19603f3d011682016040523d82523d6000602084013e611eed565b606091505b509150915081610ccf57610ccf816122e7565b3660006105427fffffffffffffffffffffffffffffffffffffffffffffffffffffffffffffffec8301828481612ae6565b60003073ffffffffffffffffffffffffffffffffffffffff7f000000000000000000000000000000000000000000000000000000000000000016148015611f9757507f000000000000000000000000000000000000000000000000000000000000000046145b15611fc157507f000000000000000000000000000000000000000000000000000000000000000090565b610c06604080517f8b73c3c69bb8fe3d512ecc4cf759cc79239f7b179b0ffacaa9a75d522b39400f60208201527f0000000000000000000000000000000000000000000000000000000000000000918101919091527f000000000000000000000000000000000000000000000000000000000000000060608201524660808201523060a082015260009060c00160405160208183030381529060405280519060200120905090565b600080600083516041036120a35760208401516040850151606086015160001a61209588828585612329565b9550955095505050506120af565b50508151600091506002905b9250925092565b60008060008573ffffffffffffffffffffffffffffffffffffffff1685856040516024016120e5929190612b10565b604080517fffffffffffffffffffffffffffffffffffffffffffffffffffffffffffffffe08184030181529181526020820180517bffffffffffffffffffffffffffffffffffffffffffffffffffffffff167f1626ba7e00000000000000000000000000000000000000000000000000000000179052516121669190612b29565b600060405180830381855afa9150503d80600081146121a1576040519150601f19603f3d011682016040523d82523d6000602084013e6121a6565b606091505b50915091508180156121ba57506020815110155b80156121fa575080517f1626ba7e00000000000000000000000000000000000000000000000000000000906121f89083016020908101908401612b45565b145b9695505050505050565b600080602060008451602086016000885af180612227576040513d6000823e3d81fd5b50506000513d9150811561223f578060011415612259565b73ffffffffffffffffffffffffffffffffffffffff84163b155b15610ccf576040517f5274afe700000000000000000000000000000000000000000000000000000000815273ffffffffffffffffffffffffffffffffffffffff85166004820152602401610e7c565b606060006122b583612423565b604080516020808252818301909252919250600091906020820181803683375050509182525060208101929092525090565b8051156122f75780518082602001fd5b6040517fd6bda27500000000000000000000000000000000000000000000000000000000815260040160405180910390fd5b600080807f7fffffffffffffffffffffffffffffff5d576e7357a4501ddfe92f46681b20a08411156123645750600091506003905082612419565b604080516000808252602082018084528a905260ff891692820192909252606081018790526080810186905260019060a0016020604051602081039080840390855afa1580156123b8573d6000803e3d6000fd5b50506040517fffffffffffffffffffffffffffffffffffffffffffffffffffffffffffffffe0015191505073ffffffffffffffffffffffffffffffffffffffff811661240f57506000925060019150829050612419565b9250600091508190505b9450945094915050565b600060ff8216601f81111561050c576040517fb3512b0c00000000000000000000000000000000000000000000000000000000815260040160405180910390fd5b73ffffffffffffffffffffffffffffffffffffffff8116811461053457600080fd5b60006020828403121561249857600080fd5b8135611d0681612464565b6000602082840312156124b557600080fd5b81357fffffffff0000000000000000000000000000000000000000000000000000000081168114611d0657600080fd5b6000602082840312156124f757600080fd5b5035919050565b60208152816020820152818360408301376000818301604090810191909152601f9092017fffffffffffffffffffffffffffffffffffffffffffffffffffffffffffffffe0160101919050565b60008060008060008060a0878903121561256457600080fd5b86359550602087013561257681612464565b9450604087013561258681612464565b935060608701356003811061259a57600080fd5b9250608087013567ffffffffffffffff8111156125b657600080fd5b8701601f810189136125c757600080fd5b803567ffffffffffffffff8111156125de57600080fd5b8960208284010111156125f057600080fd5b60208201935080925050509295509295509295565b60008083601f84011261261757600080fd5b50813567ffffffffffffffff81111561262f57600080fd5b6020830191508360208260051b850101111561264a57600080fd5b9250929050565b6000806000806000806060878903121561266a57600080fd5b863567ffffffffffffffff81111561268157600080fd5b61268d89828a01612605565b909750955050602087013567ffffffffffffffff8111156126ad57600080fd5b6126b989828a01612605565b909550935050604087013567ffffffffffffffff8111156126d957600080fd5b6126e589828a01612605565b979a9699509497509295939492505050565b60005b838110156127125781810151838201526020016126fa565b50506000910152565b600081518084526127338160208601602086016126f7565b601f017fffffffffffffffffffffffffffffffffffffffffffffffffffffffffffffffe0169290920160200192915050565b7fff000000000000000000000000000000000000000000000000000000000000008816815260e0602082015260006127a060e083018961271b565b82810360408401526127b2818961271b565b6060840188905273ffffffffffffffffffffffffffffffffffffffff8716608085015260a0840186905283810360c08501528451808252602080870193509091019060005b818110156128155783518352602093840193909201916001016127f7565b50909b9a5050505050505050505050565b6000806000806040858703121561283c57600080fd5b843567ffffffffffffffff81111561285357600080fd5b61285f87828801612605565b909550935050602085013567ffffffffffffffff81111561287f57600080fd5b61288b87828801612605565b95989497509550505050565b7f4e487b7100000000000000000000000000000000000000000000000000000000600052602160045260246000fd5b7f4e487b7100000000000000000000000000000000000000000000000000000000600052601260045260246000fd5b7f4e487b7100000000000000000000000000000000000000000000000000000000600052601160045260246000fd5b600082612933576129336128c6565b500490565b8181038181111561050c5761050c6128f5565b808202811582820484141761050c5761050c6128f5565b600082612971576129716128c6565b500690565b600381106129ad577f4e487b7100000000000000000000000000000000000000000000000000000000600052602160045260246000fd5b9052565b600060e08201905088825287602083015273ffffffffffffffffffffffffffffffffffffffff8716604083015273ffffffffffffffffffffffffffffffffffffffff861660608301528460808301528360a0830152612a1360c0830184612976565b98975050505050505050565b8381526020810183905260608101612a3a6040830184612976565b949350505050565b7f4e487b7100000000000000000000000000000000000000000000000000000000600052603260045260246000fd5b600060208284031215612a8357600080fd5b81518015158114611d0657600080fd5b600181811c90821680612aa757607f821691505b602082108103612ae0577f4e487b7100000000000000000000000000000000000000000000000000000000600052602260045260246000fd5b50919050565b60008085851115612af657600080fd5b83861115612b0357600080fd5b5050820193919092039150565b828152604060208201526000612a3a604083018461271b565b60008251612b3b8184602087016126f7565b9190910192915050565b600060208284031215612b5757600080fd5b505191905056fea2646970667358221220815db6e13e81b60c2e3588b8e26aa719300acac253e70c0dcfb5e719c1416e1864736f6c634300081c0033",
  "linkReferences": {},
  "deployedLinkReferences": {}
}