{
  "_format": "hh-sol-artifact-1",
  "contractName": "PointsArenaMock",
  "sourceName": "contracts/mocks/arena/PointsArenaMock.sol",
  "abi": [
    {
      "inputs": [
        {
          "internalType": "uint256",
          "name": "price",
          "type": "uint256"
        },
        {
          "internalType": "uint256",
          "name": "commissionRate",
          "type": "uint256"
        },
        {
          "internalType": "address",
          "name": "messageSigner",
          "type": "address"
        },
        {
          "internalType": "address payable",
          "name": "payoutWallet",
          "type": "address"
        },
        {
          "internalType": "address",
          "name": "points",
          "type": "address"
        },
        {
          "internalType": "bytes32",
          "name": "consumeReasonCode",
          "type": "bytes32"
        },
        {
          "internalType": "bytes32",
          "name": "rewardReasonCode",
          "type": "bytes32"
        },
        {
          "internalType": "bytes32",
          "name": "refundReasonCode",
          "type": "bytes32"
        },
        {
          "internalType": "bytes32",
          "name": "commissionReasonCode",
          "type": "bytes32"
        },
        {
          "internalType": "contract IForwarderRegistry",
          "name": "forwarderRegistry",
          "type": "address"
        }
      ],
      "stateMutability": "nonpayable",
      "type": "constructor"
    },
    {
      "inputs": [
        {
          "internalType": "address",
          "name": "account",
          "type": "address"
        }
      ],
      "name": "AlreadyAdmitted",
      "type": "error"
    },
    {
      "inputs": [],
      "name": "FailedCall",
      "type": "error"
    },
    {
      "inputs": [],
      "name": "IllegalInterfaceId",
      "type": "error"
    },
    {
      "inputs": [],
      "name": "InconsistentArrayLengths",
      "type": "error"
    },
    {
      "inputs": [
        {
          "internalType": "address",
          "name": "tokenContract",
          "type": "address"
        }
      ],
      "name": "IncorrectTokenContractType",
      "type": "error"
    },
    {
      "inputs": [
        {
          "internalType": "uint256",
          "name": "balance",
          "type": "uint256"
        },
        {
          "internalType": "uint256",
          "name": "needed",
          "type": "uint256"
        }
      ],
      "name": "InsufficientBalance",
      "type": "error"
    },
    {
      "inputs": [
        {
          "internalType": "uint256",
          "name": "rate",
          "type": "uint256"
        }
      ],
      "name": "InvalidCommissionRate",
      "type": "error"
    },
    {
      "inputs": [],
      "name": "InvalidShortString",
      "type": "error"
    },
    {
      "inputs": [],
      "name": "InvalidSignature",
      "type": "error"
    },
    {
      "inputs": [
        {
          "internalType": "address",
          "name": "account",
          "type": "address"
        }
      ],
      "name": "NotContractOwner",
      "type": "error"
    },
    {
      "inputs": [
        {
          "internalType": "address",
          "name": "account",
          "type": "address"
        }
      ],
      "name": "PlayerNotAdmitted",
      "type": "error"
    },
    {
      "inputs": [
        {
          "internalType": "address",
          "name": "token",
          "type": "address"
        }
      ],
      "name": "SafeERC20FailedOperation",
      "type": "error"
    },
    {
      "inputs": [
        {
          "internalType": "string",
          "name": "str",
          "type": "string"
        }
      ],
      "name": "StringTooLong",
      "type": "error"
    },
    {
      "inputs": [],
      "name": "ZeroAddressPayoutWallet",
      "type": "error"
    },
    {
      "inputs": [],
      "name": "ZeroPrice",
      "type": "error"
    },
    {
      "anonymous": false,
      "inputs": [
        {
          "indexed": true,
          "internalType": "address",
          "name": "account",
          "type": "address"
        }
      ],
      "name": "Admission",
      "type": "event"
    },
    {
      "anonymous": false,
      "inputs": [
        {
          "indexed": false,
          "internalType": "uint256",
          "name": "rate",
          "type": "uint256"
        }
      ],
      "name": "CommissionRateSet",
      "type": "event"
    },
    {
      "anonymous": false,
      "inputs": [],
      "name": "EIP712DomainChanged",
      "type": "event"
    },
    {
      "anonymous": false,
      "inputs": [
        {
          "indexed": true,
          "internalType": "uint256",
          "name": "matchId",
          "type": "uint256"
        },
        {
          "indexed": true,
          "internalType": "address",
          "name": "player1",
          "type": "address"
        },
        {
          "indexed": true,
          "internalType": "address",
          "name": "player2",
          "type": "address"
        },
        {
          "indexed": false,
          "internalType": "enum ArenaBase.MatchResult",
          "name": "result",
          "type": "uint8"
        }
      ],
      "name": "MatchCompleted",
      "type": "event"
    },
    {
      "anonymous": false,
      "inputs": [
        {
          "indexed": false,
          "internalType": "address",
          "name": "signer",
          "type": "address"
        }
      ],
      "name": "MessageSignerSet",
      "type": "event"
    },
    {
      "anonymous": false,
      "inputs": [
        {
          "indexed": true,
          "internalType": "address",
          "name": "previousOwner",
          "type": "address"
        },
        {
          "indexed": true,
          "internalType": "address",
          "name": "newOwner",
          "type": "address"
        }
      ],
      "name": "OwnershipTransferred",
      "type": "event"
    },
    {
      "anonymous": false,
      "inputs": [
        {
          "indexed": true,
          "internalType": "address",
          "name": "account",
          "type": "address"
        },
        {
          "indexed": true,
          "internalType": "uint256",
          "name": "matchId",
          "type": "uint256"
        },
        {
          "indexed": false,
          "internalType": "uint256",
          "name": "amount",
          "type": "uint256"
        }
      ],
      "name": "PayoutDelivered",
      "type": "event"
    },
    {
      "anonymous": false,
      "inputs": [
        {
          "indexed": false,
          "internalType": "address",
          "name": "payoutWallet",
          "type": "address"
        }
      ],
      "name": "PayoutWalletSet",
      "type": "event"
    },
    {
      "inputs": [],
      "name": "COMMISSION_REASON_CODE",
      "outputs": [
        {
          "internalType": "bytes32",
          "name": "",
          "type": "bytes32"
        }
      ],
      "stateMutability": "view",
      "type": "function"
    },
    {
      "inputs": [],
      "name": "COMPLETE_MATCH_TYPEHASH",
      "outputs": [
        {
          "internalType": "bytes32",
          "name": "",
          "type": "bytes32"
        }
      ],
      "stateMutability": "view",
      "type": "function"
    },
    {
      "inputs": [],
      "name": "CONSUME_REASON_CODE",
      "outputs": [
        {
          "internalType": "bytes32",
          "name": "",
          "type": "bytes32"
        }
      ],
      "stateMutability": "view",
      "type": "function"
    },
    {
      "inputs": [],
      "name": "ENTRY_FEE",
      "outputs": [
        {
          "internalType": "uint256",
          "name": "",
          "type": "uint256"
        }
      ],
      "stateMutability": "view",
      "type": "function"
    },
    {
      "inputs": [],
      "name": "POINTS",
      "outputs": [
        {
          "internalType": "contract IPointsSpender",
          "name": "",
          "type": "address"
        }
      ],
      "stateMutability": "view",
      "type": "function"
    },
    {
      "inputs": [],
      "name": "REFUND_REASON_CODE",
      "outputs": [
        {
          "internalType": "bytes32",
          "name": "",
          "type": "bytes32"
        }
      ],
      "stateMutability": "view",
      "type": "function"
    },
    {
      "inputs": [],
      "name": "REWARD_REASON_CODE",
      "outputs": [
        {
          "internalType": "bytes32",
          "name": "",
          "type": "bytes32"
        }
      ],
      "stateMutability": "view",
      "type": "function"
    },
    {
      "inputs": [],
      "name": "__msgData",
      "outputs": [
        {
          "internalType": "bytes",
          "name": "",
          "type": "bytes"
        }
      ],
      "stateMutability": "view",
      "type": "function"
    },
    {
      "inputs": [],
      "name": "__msgSender",
      "outputs": [
        {
          "internalType": "address",
          "name": "",
          "type": "address"
        }
      ],
      "stateMutability": "view",
      "type": "function"
    },
    {
      "inputs": [],
      "name": "admit",
      "outputs": [],
      "stateMutability": "nonpayable",
      "type": "function"
    },
    {
      "inputs": [
        {
          "internalType": "address",
          "name": "account",
          "type": "address"
        }
      ],
      "name": "admitted",
      "outputs": [
        {
          "internalType": "bool",
          "name": "admitted",
          "type": "bool"
        }
      ],
      "stateMutability": "view",
      "type": "function"
    },
    {
      "inputs": [],
      "name": "commission",
      "outputs": [
        {
          "internalType": "uint256",
          "name": "",
          "type": "uint256"
        }
      ],
      "stateMutability": "view",
      "type": "function"
    },
    {
      "inputs": [],
      "name": "commissionRate",
      "outputs": [
        {
          "internalType": "uint256",
          "name": "",
          "type": "uint256"
        }
      ],
      "stateMutability": "view",
      "type": "function"
    },
    {
      "inputs": [
        {
          "internalType": "uint256",
          "name": "matchId",
          "type": "uint256"
        },
        {
          "internalType": "address",
          "name": "player1",
          "type": "address"
        },
        {
          "internalType": "address",
          "name": "player2",
          "type": "address"
        },
        {
          "internalType": "enum ArenaBase.MatchResult",
          "name": "result",
          "type": "uint8"
        },
        {
          "internalType": "bytes",
          "name": "signature",
          "type": "bytes"
        }
      ],
      "name": "completeMatch",
      "outputs": [],
      "stateMutability": "nonpayable",
      "type": "function"
    },
    {
      "inputs": [],
      "name": "eip712Domain",
      "outputs": [
        {
          "internalType": "bytes1",
          "name": "fields",
          "type": "bytes1"
        },
        {
          "internalType": "string",
          "name": "name",
          "type": "string"
        },
        {
          "internalType": "string",
          "name": "version",
          "type": "string"
        },
        {
          "internalType": "uint256",
          "name": "chainId",
          "type": "uint256"
        },
        {
          "internalType": "address",
          "name": "verifyingContract",
          "type": "address"
        },
        {
          "internalType": "bytes32",
          "name": "salt",
          "type": "bytes32"
        },
        {
          "internalType": "uint256[]",
          "name": "extensions",
          "type": "uint256[]"
        }
      ],
      "stateMutability": "view",
      "type": "function"
    },
    {
      "inputs": [],
      "name": "forwarderRegistry",
      "outputs": [
        {
          "internalType": "contract IForwarderRegistry",
          "name": "",
          "type": "address"
        }
      ],
      "stateMutability": "view",
      "type": "function"
    },
    {
      "inputs": [
        {
          "internalType": "address",
          "name": "forwarder",
          "type": "address"
        }
      ],
      "name": "isTrustedForwarder",
      "outputs": [
        {
          "internalType": "bool",
          "name": "",
          "type": "bool"
        }
      ],
      "stateMutability": "view",
      "type": "function"
    },
    {
      "inputs": [],
      "name": "messageSigner",
      "outputs": [
        {
          "internalType": "address",
          "name": "",
          "type": "address"
        }
      ],
      "stateMutability": "view",
      "type": "function"
    },
    {
      "inputs": [],
      "name": "owner",
      "outputs": [
        {
          "internalType": "address",
          "name": "",
          "type": "address"
        }
      ],
      "stateMutability": "view",
      "type": "function"
    },
    {
      "inputs": [],
      "name": "payoutWallet",
      "outputs": [
        {
          "internalType": "address payable",
          "name": "wallet",
          "type": "address"
        }
      ],
      "stateMutability": "view",
      "type": "function"
    },
    {
      "inputs": [
        {
          "internalType": "address[]",
          "name": "accounts",
          "type": "address[]"
        },
        {
          "internalType": "contract IERC20[]",
          "name": "tokens",
          "type": "address[]"
        },
        {
          "internalType": "uint256[]",
          "name": "amounts",
          "type": "uint256[]"
        }
      ],
      "name": "recoverERC20s",
      "outputs": [],
      "stateMutability": "nonpayable",
      "type": "function"
    },
    {
      "inputs": [
        {
          "internalType": "address[]",
          "name": "accounts",
          "type": "address[]"
        },
        {
          "internalType": "contract IERC721[]",
          "name": "contracts",
          "type": "address[]"
        },
        {
          "internalType": "uint256[]",
          "name": "tokenIds",
          "type": "uint256[]"
        }
      ],
      "name": "recoverERC721s",
      "outputs": [],
      "stateMutability": "nonpayable",
      "type": "function"
    },
    {
      "inputs": [
        {
          "internalType": "address payable[]",
          "name": "accounts",
          "type": "address[]"
        },
        {
          "internalType": "uint256[]",
          "name": "amounts",
          "type": "uint256[]"
        }
      ],
      "name": "recoverETH",
      "outputs": [],
      "stateMutability": "nonpayable",
      "type": "function"
    },
    {
      "inputs": [],
      "name": "reward",
      "outputs": [
        {
          "internalType": "uint256",
          "name": "",
          "type": "uint256"
        }
      ],
      "stateMutability": "view",
      "type": "function"
    },
    {
      "inputs": [
        {
          "internalType": "uint256",
          "name": "newCommissionRate",
          "type": "uint256"
        }
      ],
      "name": "setCommissionRate",
      "outputs": [],
      "stateMutability": "nonpayable",
      "type": "function"
    },
    {
      "inputs": [
        {
          "internalType": "address",
          "name": "signer",
          "type": "address"
        }
      ],
      "name": "setMessageSigner",
      "outputs": [],
      "stateMutability": "nonpayable",
      "type": "function"
    },
    {
      "inputs": [
        {
          "internalType": "address payable",
          "name": "newPayoutWallet",
          "type": "address"
        }
      ],
      "name": "setPayoutWallet",
      "outputs": [],
      "stateMutability": "nonpayable",
      "type": "function"
    },
    {
      "inputs": [
        {
          "internalType": "bytes4",
          "name": "interfaceId",
          "type": "bytes4"
        }
      ],
      "name": "supportsInterface",
      "outputs": [
        {
          "internalType": "bool",
          "name": "",
          "type": "bool"
        }
      ],
      "stateMutability": "view",
      "type": "function"
    },
    {
      "inputs": [
        {
          "internalType": "address",
          "name": "newOwner",
          "type": "address"
        }
      ],
      "name": "transferOwnership",
      "outputs": [],
      "stateMutability": "nonpayable",
      "type": "function"
    }
  ],
  "bytecode": "0x61024060405234801561001157600080fd5b5060405161353038038061353083398101604081905261003091610567565b898989898989898989898080888a33604051806040016040528060058152602001644172656e6160d81b815250604051806040016040528060038152602001620312e360ec1b81525061008d60008361022060201b90919060201c565b6101205261009c816001610220565b61014052815160208084019190912060e052815190820120610100524660a05261012960e05161010051604080517f8b73c3c69bb8fe3d512ecc4cf759cc79239f7b179b0ffacaa9a75d522b39400f60208201529081019290925260608201524660808201523060a082015260009060c00160405160208183030381529060405280519060200120905090565b60805250503060c0526101448161013e610253565b90610281565b50600280546001600160a01b0319166001600160a01b0383169081179091556040519081527f66b8dbbd7f4a59921c0e0f594b6fb8434e778851611f323b7c3d00d07a74b1209060200160405180910390a1506101a9816101a36102f7565b90610325565b506001600160a01b0316610160525060008a90036101da57604051634dfba02360e01b815260040160405180910390fd5b6102208a90526101e98961032f565b506001600160a01b0390941661020052610180929092526101a0526101c0526101e0525061086b9c50505050505050505050505050565b600060208351101561023c576102358361040e565b905061024d565b8161024784826106bd565b5060ff90505b92915050565b60008061024d60017fc9ed16f33ab3a66c84bfd83099ccb2a8845871e2e1c1928f63797152f0fd54cd610791565b6001600160a01b038116156102d75781546001600160a01b0319166001600160a01b03821690811783556040516000907f8be0079c531659141344cd1fd0a4f28419497f9722a3daafe3b4186f6b6457e0908290a35b6102f36307f5828d60e41b60016102ec61044c565b919061047a565b5050565b60008061024d60017f4fb5f8cdfbce77f22b0931a39e9f476a60a0f66524b2f379e96485471eb700ae610791565b6102f382826104d6565b600061022051600261034191906107a4565b9050600082156103c75761271080841061037657604051633e13fd7160e11b8152600481018590526024015b60405180910390fd5b8061038185856107a4565b61038b91906107d1565b91506103986002836107e5565b156103b957604051633e13fd7160e11b81526004810185905260240161036d565b6103c38284610791565b9250505b6004839055600581905560068290556040518381527f2377da1065ac38e2a730070d5b9dd08aa697ba49f4b41e3dee80ab5cc06099019060200160405180910390a1505050565b600080829050601f81511115610439578260405163305a27a960e01b815260040161036d91906107f9565b805161044482610847565b179392505050565b60008061024d60017fca9d3e17f264b0f3984e2634e94adb37fa3e6a8103f06aeae6fa59e21c769f5e610791565b600160e01b6001600160e01b03198316016104a8576040516372c683bb60e01b815260040160405180910390fd5b6001600160e01b03199190911660009081526020929092526040909120805460ff1916911515919091179055565b6001600160a01b0381166104fd576040516340b539cf60e01b815260040160405180910390fd5b81546001600160a01b0319166001600160a01b03821690811783556040519081527fdd880d24a789958a6398c99c2e54ce31bc10a638cbc42f7dd34285479ae0f8559060200160405180910390a15050565b6001600160a01b038116811461056457600080fd5b50565b6000806000806000806000806000806101408b8d03121561058757600080fd5b8a5160208c015160408d0151919b5099506105a18161054f565b60608c01519098506105b28161054f565b60808c01519097506105c38161054f565b80965050600060a08c0151905080955050600060c08c0151905080945050600060e08c015190508093505060006101008c01519050809250506101208b015161060b8161054f565b809150509295989b9194979a5092959850565b634e487b7160e01b600052604160045260246000fd5b600181811c9082168061064857607f821691505b60208210810361066857634e487b7160e01b600052602260045260246000fd5b50919050565b601f8211156106b857806000526020600020601f840160051c810160208510156106955750805b601f840160051c820191505b818110156106b557600081556001016106a1565b50505b505050565b81516001600160401b038111156106d6576106d661061e565b6106ea816106e48454610634565b8461066e565b6020601f82116001811461071e57600083156107065750848201515b600019600385901b1c1916600184901b1784556106b5565b600084815260208120601f198516915b8281101561074e578785015182556020948501946001909201910161072e565b508482101561076c5786840151600019600387901b60f8161c191681555b50505050600190811b01905550565b634e487b7160e01b600052601160045260246000fd5b8181038181111561024d5761024d61077b565b808202811582820484141761024d5761024d61077b565b634e487b7160e01b600052601260045260246000fd5b6000826107e0576107e06107bb565b500490565b6000826107f4576107f46107bb565b500690565b602081526000825180602084015260005b81811015610827576020818601810151604086840101520161080a565b506000604082850101526040601f19601f83011684010191505092915050565b805160208083015191908110156106685760001960209190910360031b1b16919050565b60805160a05160c05160e05161010051610120516101405161016051610180516101a0516101c0516101e0516102005161022051612ba7610989600039600081816104c6015281816105a70152610e930152600081816103c8015281816105f3015281816106f201528181610898015281816109660152610b0301526000818161049f01526107a301526000818161037b0152818161086f015261094001526000818161027d0152610ada01526000818161046501526105cd0152600081816102b801528181610330015281816119fc01528181611a8a01528181611b3d0152611b7b0152600061153d01526000611510015260006120670152600061203f01526000611f9a01526000611fc401526000611fee0152612ba76000f3fe608060405234801561001057600080fd5b50600436106101ce5760003560e01c80636b8f9c4311610104578063c3666c36116100a2578063f2fde38b11610071578063f2fde38b14610487578063f6a45cd01461049a578063f6d361cc146104c1578063f7ba94bd146104e857600080fd5b8063c3666c361461043c578063d1a91ff21461044f578063e148919114610457578063eb9523231461046057600080fd5b80638488bb4e116100de5780638488bb4e146103ea57806384b0196e146103f25780638da5cb5b1461040d578063a51f054e1461041557600080fd5b80636b8f9c431461039d57806373c8a958146103b05780637f6e4281146103c357600080fd5b806331e66e1e116101715780634d717e601161014b5780634d717e601461030d578063572b6c05146103205780635ea1d6f81461036d57806364c5384d1461037657600080fd5b806331e66e1e146102dc5780634ae83719146102f25780634b36df53146102fa57600080fd5b806319fac8fd116101ad57806319fac8fd146102635780631c7a2bd114610278578063228cb733146102ad5780632b4c9f16146102b657600080fd5b806220d939146101d357806301ffc9a71461020b578063080387b41461021e575b600080fd5b6101f66101e13660046124d5565b60036020526000908152604090205460ff1681565b60405190151581526020015b60405180910390f35b6101f66102193660046124f2565b6104fb565b60025461023e9073ffffffffffffffffffffffffffffffffffffffff1681565b60405173ffffffffffffffffffffffffffffffffffffffff9091168152602001610202565b610276610271366004612534565b610515565b005b61029f7f000000000000000000000000000000000000000000000000000000000000000081565b604051908152602001610202565b61029f60065481565b7f000000000000000000000000000000000000000000000000000000000000000061023e565b6102e461053a565b60405161020292919061254d565b61027661054d565b6102766103083660046124d5565b610652565b61027661031b36600461259a565b6106d6565b6101f661032e3660046124d5565b7f000000000000000000000000000000000000000000000000000000000000000073ffffffffffffffffffffffffffffffffffffffff90811691161490565b61029f60045481565b61029f7f000000000000000000000000000000000000000000000000000000000000000081565b6102766103ab3660046124d5565b610bbe565b6102766103be3660046126a0565b610bdb565b61023e7f000000000000000000000000000000000000000000000000000000000000000081565b61023e610bfc565b6103fa610c0e565b60405161020297969594939291906127b4565b61023e610c70565b61029f7fe12d3c3bf86185c3c62596db61beac70fac0abaa4c5e36b0d87bbca1cfdd582881565b61027661044a3660046126a0565b610c7d565b61023e610c96565b61029f60055481565b61029f7f000000000000000000000000000000000000000000000000000000000000000081565b6102766104953660046124d5565b610ca0565b61029f7f000000000000000000000000000000000000000000000000000000000000000081565b61029f7f000000000000000000000000000000000000000000000000000000000000000081565b6102766104f6366004612875565b610cbb565b600061050f82610509610cd8565b90610d06565b92915050565b61052e610520610de0565b610528610dea565b90610e18565b61053781610e8c565b50565b366000610545610fb3565b915091509091565b6000610557610de0565b905061056281610fbe565b6040517f212aac7900000000000000000000000000000000000000000000000000000000815273ffffffffffffffffffffffffffffffffffffffff82811660048301527f000000000000000000000000000000000000000000000000000000000000000060248301527f000000000000000000000000000000000000000000000000000000000000000060448301527f0000000000000000000000000000000000000000000000000000000000000000169063212aac7990606401600060405180830381600087803b15801561063757600080fd5b505af115801561064b573d6000803e3d6000fd5b5050505050565b61065d610520610de0565b600280547fffffffffffffffffffffffff00000000000000000000000000000000000000001673ffffffffffffffffffffffffffffffffffffffff83169081179091556040519081527f66b8dbbd7f4a59921c0e0f594b6fb8434e778851611f323b7c3d00d07a74b1209060200160405180910390a150565b6106e48686868686866110b1565b60055460065481156107fd577f000000000000000000000000000000000000000000000000000000000000000073ffffffffffffffffffffffffffffffffffffffff166326b3293f610751610737611336565b5473ffffffffffffffffffffffffffffffffffffffff1690565b6040517fffffffff0000000000000000000000000000000000000000000000000000000060e084901b16815273ffffffffffffffffffffffffffffffffffffffff9091166004820152602481018590527f00000000000000000000000000000000000000000000000000000000000000006044820152606401600060405180830381600087803b1580156107e457600080fd5b505af11580156107f8573d6000803e3d6000fd5b505050505b6002856002811115610811576108116128e6565b03610a6c576000610823600283612973565b6040517f26b3293f00000000000000000000000000000000000000000000000000000000815273ffffffffffffffffffffffffffffffffffffffff8a81166004830152602482018390527f000000000000000000000000000000000000000000000000000000000000000060448301529192507f0000000000000000000000000000000000000000000000000000000000000000909116906326b3293f90606401600060405180830381600087803b1580156108de57600080fd5b505af11580156108f2573d6000803e3d6000fd5b50506040517f26b3293f00000000000000000000000000000000000000000000000000000000815273ffffffffffffffffffffffffffffffffffffffff8a81166004830152602482018590527f000000000000000000000000000000000000000000000000000000000000000060448301527f00000000000000000000000000000000000000000000000000000000000000001692506326b3293f9150606401600060405180830381600087803b1580156109ac57600080fd5b505af11580156109c0573d6000803e3d6000fd5b50505050888873ffffffffffffffffffffffffffffffffffffffff167f0733dbb1b7864ea8abcea54657d9fc322605c9a44f8733d80e4edb6d61b999bb83604051610a0d91815260200190565b60405180910390a3888773ffffffffffffffffffffffffffffffffffffffff167f0733dbb1b7864ea8abcea54657d9fc322605c9a44f8733d80e4edb6d61b999bb83604051610a5e91815260200190565b60405180910390a350610bb4565b600080866002811115610a8157610a816128e6565b14610a8c5786610a8e565b875b6040517f26b3293f00000000000000000000000000000000000000000000000000000000815273ffffffffffffffffffffffffffffffffffffffff8083166004830152602482018590527f000000000000000000000000000000000000000000000000000000000000000060448301529192507f0000000000000000000000000000000000000000000000000000000000000000909116906326b3293f90606401600060405180830381600087803b158015610b4957600080fd5b505af1158015610b5d573d6000803e3d6000fd5b50505050888173ffffffffffffffffffffffffffffffffffffffff167f0733dbb1b7864ea8abcea54657d9fc322605c9a44f8733d80e4edb6d61b999bb84604051610baa91815260200190565b60405180910390a3505b5050505050505050565b610bc9610520610de0565b61053781610bd5611336565b90611364565b610be6610520610de0565b610bf4868686868686611428565b505050505050565b6000610c09610737611336565b905090565b600060608060008060006060610c22611509565b610c2a611536565b604080516000808252602082019092527f0f000000000000000000000000000000000000000000000000000000000000009b939a50919850469750309650945092509050565b6000610c09610737610dea565b610c88610520610de0565b610bf4868686868686611563565b6000610c09610de0565b610537610cab610de0565b82610cb4610dea565b91906117f9565b610cc6610520610de0565b610cd28484848461190d565b50505050565b60008061050f60017fca9d3e17f264b0f3984e2634e94adb37fa3e6a8103f06aeae6fa59e21c769f5e612987565b60007c01000000000000000000000000000000000000000000000000000000007fffffffff00000000000000000000000000000000000000000000000000000000831601610d565750600061050f565b7ffe003659000000000000000000000000000000000000000000000000000000007fffffffff00000000000000000000000000000000000000000000000000000000831601610da75750600161050f565b507fffffffff00000000000000000000000000000000000000000000000000000000166000908152602091909152604090205460ff1690565b6000610c096119b9565b60008061050f60017fc9ed16f33ab3a66c84bfd83099ccb2a8845871e2e1c1928f63797152f0fd54cd612987565b815473ffffffffffffffffffffffffffffffffffffffff828116911614610e88576040517f2ef4875e00000000000000000000000000000000000000000000000000000000815273ffffffffffffffffffffffffffffffffffffffff821660048201526024015b60405180910390fd5b5050565b6000610eb97f0000000000000000000000000000000000000000000000000000000000000000600261299a565b905060008215610f6c57612710808410610f02576040517f7c27fae200000000000000000000000000000000000000000000000000000000815260048101859052602401610e7f565b80610f0d858561299a565b610f179190612973565b9150610f246002836129b1565b15610f5e576040517f7c27fae200000000000000000000000000000000000000000000000000000000815260048101859052602401610e7f565b610f688284612987565b9250505b6004839055600581905560068290556040518381527f2377da1065ac38e2a730070d5b9dd08aa697ba49f4b41e3dee80ab5cc06099019060200160405180910390a1505050565b366000610545611b06565b73ffffffffffffffffffffffffffffffffffffffff811660009081526003602052604090205460ff16151560010361103a576040517f301eda9600000000000000000000000000000000000000000000000000000000815273ffffffffffffffffffffffffffffffffffffffff82166004820152602401610e7f565b73ffffffffffffffffffffffffffffffffffffffff811660008181526003602052604080822080547fffffffffffffffffffffffffffffffffffffffffffffffffffffffffffffff00166001179055517f131f3edc3bd512c7b34906feb3cdacf9e893076fbb713603ff86294f0ddd28ca9190a250565b73ffffffffffffffffffffffffffffffffffffffff851660009081526003602052604090205460ff16611128576040517f2da4098c00000000000000000000000000000000000000000000000000000000815273ffffffffffffffffffffffffffffffffffffffff86166004820152602401610e7f565b73ffffffffffffffffffffffffffffffffffffffff841660009081526003602052604090205460ff1661119f576040517f2da4098c00000000000000000000000000000000000000000000000000000000815273ffffffffffffffffffffffffffffffffffffffff85166004820152602401610e7f565b60006111f87fe12d3c3bf86185c3c62596db61beac70fac0abaa4c5e36b0d87bbca1cfdd5828888888886040516020016111dd959493929190612a00565b60405160208183030381529060405280519060200120611c76565b600254604080516020601f87018190048102820181019092528581529293506000926112589273ffffffffffffffffffffffffffffffffffffffff16918591908890889081908401838280828437600092019190915250611cbe92505050565b905080611291576040517f8baa579f00000000000000000000000000000000000000000000000000000000815260040160405180910390fd5b73ffffffffffffffffffffffffffffffffffffffff80881660008181526003602052604080822080547fffffffffffffffffffffffffffffffffffffffffffffffffffffffffffffff00908116909155938a1680835291819020805490941690935591518a907f7b58632b249761a8c023c066cf5cea7856abd6647ee13dc85b0c6526c111ed9e90611324908a90612a3f565b60405180910390a45050505050505050565b60008061050f60017f4fb5f8cdfbce77f22b0931a39e9f476a60a0f66524b2f379e96485471eb700ae612987565b73ffffffffffffffffffffffffffffffffffffffff81166113b1576040517f40b539cf00000000000000000000000000000000000000000000000000000000815260040160405180910390fd5b81547fffffffffffffffffffffffff00000000000000000000000000000000000000001673ffffffffffffffffffffffffffffffffffffffff821690811783556040519081527fdd880d24a789958a6398c99c2e54ce31bc10a638cbc42f7dd34285479ae0f8559060200160405180910390a15050565b8483811415806114385750808214155b1561146f576040517f6582533600000000000000000000000000000000000000000000000000000000815260040160405180910390fd5b60005b81811015610bb45761150188888381811061148f5761148f612a4d565b90506020020160208101906114a491906124d5565b8585848181106114b6576114b6612a4d565b905060200201358888858181106114cf576114cf612a4d565b90506020020160208101906114e491906124d5565b73ffffffffffffffffffffffffffffffffffffffff169190611d5c565b600101611472565b6060610c097f00000000000000000000000000000000000000000000000000000000000000006000611dee565b6060610c097f00000000000000000000000000000000000000000000000000000000000000006001611dee565b8483811415806115735750808214155b156115aa576040517f6582533600000000000000000000000000000000000000000000000000000000815260040160405180910390fd5b60005b81811015610bb45760008686838181106115c9576115c9612a4d565b90506020020160208101906115de91906124d5565b6040517f01ffc9a70000000000000000000000000000000000000000000000000000000081527f80ac58cd00000000000000000000000000000000000000000000000000000000600482015290915073ffffffffffffffffffffffffffffffffffffffff8216906301ffc9a790602401602060405180830381865afa15801561166b573d6000803e3d6000fd5b505050506040513d601f19601f8201168201806040525081019061168f9190612a7c565b6116dd576040517f986b9f1f00000000000000000000000000000000000000000000000000000000815273ffffffffffffffffffffffffffffffffffffffff82166004820152602401610e7f565b8686838181106116ef576116ef612a4d565b905060200201602081019061170491906124d5565b73ffffffffffffffffffffffffffffffffffffffff166342842e0e308b8b8681811061173257611732612a4d565b905060200201602081019061174791906124d5565b88888781811061175957611759612a4d565b6040517fffffffff0000000000000000000000000000000000000000000000000000000060e088901b16815273ffffffffffffffffffffffffffffffffffffffff958616600482015294909316602485015250602090910201356044820152606401600060405180830381600087803b1580156117d557600080fd5b505af11580156117e9573d6000803e3d6000fd5b50505050508060010190506115ad565b825473ffffffffffffffffffffffffffffffffffffffff9081169083168114611866576040517f2ef4875e00000000000000000000000000000000000000000000000000000000815273ffffffffffffffffffffffffffffffffffffffff84166004820152602401610e7f565b8173ffffffffffffffffffffffffffffffffffffffff168173ffffffffffffffffffffffffffffffffffffffff1614610cd25783547fffffffffffffffffffffffff00000000000000000000000000000000000000001673ffffffffffffffffffffffffffffffffffffffff8381169182178655604051908316907f8be0079c531659141344cd1fd0a4f28419497f9722a3daafe3b4186f6b6457e090600090a350505050565b82818114611947576040517f6582533600000000000000000000000000000000000000000000000000000000815260040160405180910390fd5b60005b81811015610bf4576119b184848381811061196757611967612a4d565b9050602002013587878481811061198057611980612a4d565b905060200201602081019061199591906124d5565b73ffffffffffffffffffffffffffffffffffffffff1690611e99565b60010161194a565b6000333214806119c95750601836105b156119d357503390565b7fffffffffffffffffffffffffffffffffffffffffffffffffffffffffffffffec36013560601c7f000000000000000000000000000000000000000000000000000000000000000073ffffffffffffffffffffffffffffffffffffffff16331480611af557506040517f019a202800000000000000000000000000000000000000000000000000000000815273ffffffffffffffffffffffffffffffffffffffff82811660048301523360248301523060448301527f0000000000000000000000000000000000000000000000000000000000000000169063019a202890606401602060405180830381865afa158015611ad1573d6000803e3d6000fd5b505050506040513d601f19601f82011682018060405250810190611af59190612a7c565b15611aff57919050565b3391505090565b36600033321480611b175750601836105b15611b255750600091369150565b3373ffffffffffffffffffffffffffffffffffffffff7f0000000000000000000000000000000000000000000000000000000000000000161480611c60575073ffffffffffffffffffffffffffffffffffffffff7f00000000000000000000000000000000000000000000000000000000000000001663019a2028367fffffffffffffffffffffffffffffffffffffffffffffffffffffffffffffffec013560601c6040517fffffffff0000000000000000000000000000000000000000000000000000000060e084901b16815273ffffffffffffffffffffffffffffffffffffffff9091166004820152336024820152306044820152606401602060405180830381865afa158015611c3c573d6000803e3d6000fd5b505050506040513d601f19601f82011682018060405250810190611c609190612a7c565b15611c6d57610545611f4f565b50600091369150565b600061050f611c83611f80565b836040517f19010000000000000000000000000000000000000000000000000000000000008152600281019290925260228201526042902090565b60008373ffffffffffffffffffffffffffffffffffffffff163b600003611d4757600080611cec85856120b8565b5090925090506000816003811115611d0657611d066128e6565b148015611d3e57508573ffffffffffffffffffffffffffffffffffffffff168273ffffffffffffffffffffffffffffffffffffffff16145b92505050611d55565b611d52848484612105565b90505b9392505050565b6040805173ffffffffffffffffffffffffffffffffffffffff8416602482015260448082018490528251808303909101815260649091019091526020810180517bffffffffffffffffffffffffffffffffffffffffffffffffffffffff167fa9059cbb00000000000000000000000000000000000000000000000000000000179052611de9908490612253565b505050565b606060ff8314611e0857611e01836122f7565b905061050f565b818054611e1490612a9e565b80601f0160208091040260200160405190810160405280929190818152602001828054611e4090612a9e565b8015611e8d5780601f10611e6257610100808354040283529160200191611e8d565b820191906000526020600020905b815481529060010190602001808311611e7057829003601f168201915b5050505050905061050f565b80471015611edc576040517fcf47918100000000000000000000000000000000000000000000000000000000815247600482015260248101829052604401610e7f565b6000808373ffffffffffffffffffffffffffffffffffffffff168360405160006040518083038185875af1925050503d8060008114611f37576040519150601f19603f3d011682016040523d82523d6000602084013e611f3c565b606091505b509150915081610cd257610cd281612336565b3660006105457fffffffffffffffffffffffffffffffffffffffffffffffffffffffffffffffec8301828481612af1565b60003073ffffffffffffffffffffffffffffffffffffffff7f000000000000000000000000000000000000000000000000000000000000000016148015611fe657507f000000000000000000000000000000000000000000000000000000000000000046145b1561201057507f000000000000000000000000000000000000000000000000000000000000000090565b610c09604080517f8b73c3c69bb8fe3d512ecc4cf759cc79239f7b179b0ffacaa9a75d522b39400f60208201527f0000000000000000000000000000000000000000000000000000000000000000918101919091527f000000000000000000000000000000000000000000000000000000000000000060608201524660808201523060a082015260009060c00160405160208183030381529060405280519060200120905090565b600080600083516041036120f25760208401516040850151606086015160001a6120e488828585612378565b9550955095505050506120fe565b50508151600091506002905b9250925092565b60008060008573ffffffffffffffffffffffffffffffffffffffff168585604051602401612134929190612b1b565b604080517fffffffffffffffffffffffffffffffffffffffffffffffffffffffffffffffe08184030181529181526020820180517bffffffffffffffffffffffffffffffffffffffffffffffffffffffff167f1626ba7e00000000000000000000000000000000000000000000000000000000179052516121b59190612b3c565b600060405180830381855afa9150503d80600081146121f0576040519150601f19603f3d011682016040523d82523d6000602084013e6121f5565b606091505b509150915081801561220957506020815110155b8015612249575080517f1626ba7e00000000000000000000000000000000000000000000000000000000906122479083016020908101908401612b58565b145b9695505050505050565b600080602060008451602086016000885af180612276576040513d6000823e3d81fd5b50506000513d9150811561228e5780600114156122a8565b73ffffffffffffffffffffffffffffffffffffffff84163b155b15610cd2576040517f5274afe700000000000000000000000000000000000000000000000000000000815273ffffffffffffffffffffffffffffffffffffffff85166004820152602401610e7f565b6060600061230483612472565b604080516020808252818301909252919250600091906020820181803683375050509182525060208101929092525090565b8051156123465780518082602001fd5b6040517fd6bda27500000000000000000000000000000000000000000000000000000000815260040160405180910390fd5b600080807f7fffffffffffffffffffffffffffffff5d576e7357a4501ddfe92f46681b20a08411156123b35750600091506003905082612468565b604080516000808252602082018084528a905260ff891692820192909252606081018790526080810186905260019060a0016020604051602081039080840390855afa158015612407573d6000803e3d6000fd5b50506040517fffffffffffffffffffffffffffffffffffffffffffffffffffffffffffffffe0015191505073ffffffffffffffffffffffffffffffffffffffff811661245e57506000925060019150829050612468565b9250600091508190505b9450945094915050565b600060ff8216601f81111561050f576040517fb3512b0c00000000000000000000000000000000000000000000000000000000815260040160405180910390fd5b73ffffffffffffffffffffffffffffffffffffffff8116811461053757600080fd5b6000602082840312156124e757600080fd5b8135611d55816124b3565b60006020828403121561250457600080fd5b81357fffffffff0000000000000000000000000000000000000000000000000000000081168114611d5557600080fd5b60006020828403121561254657600080fd5b5035919050565b60208152816020820152818360408301376000818301604090810191909152601f9092017fffffffffffffffffffffffffffffffffffffffffffffffffffffffffffffffe0160101919050565b60008060008060008060a087890312156125b357600080fd5b8635955060208701356125c5816124b3565b945060408701356125d5816124b3565b93506060870135600381106125e957600080fd5b9250608087013567ffffffffffffffff81111561260557600080fd5b8701601f8101891361261657600080fd5b803567ffffffffffffffff81111561262d57600080fd5b89602082840101111561263f57600080fd5b60208201935080925050509295509295509295565b60008083601f84011261266657600080fd5b50813567ffffffffffffffff81111561267e57600080fd5b6020830191508360208260051b850101111561269957600080fd5b9250929050565b600080600080600080606087890312156126b957600080fd5b863567ffffffffffffffff8111156126d057600080fd5b6126dc89828a01612654565b909750955050602087013567ffffffffffffffff8111156126fc57600080fd5b61270889828a01612654565b909550935050604087013567ffffffffffffffff81111561272857600080fd5b61273489828a01612654565b979a9699509497509295939492505050565b60005b83811015612761578181015183820152602001612749565b50506000910152565b60008151808452612782816020860160208601612746565b601f017fffffffffffffffffffffffffffffffffffffffffffffffffffffffffffffffe0169290920160200192915050565b7fff000000000000000000000000000000000000000000000000000000000000008816815260e0602082015260006127ef60e083018961276a565b8281036040840152612801818961276a565b6060840188905273ffffffffffffffffffffffffffffffffffffffff8716608085015260a0840186905283810360c08501528451808252602080870193509091019060005b81811015612864578351835260209384019390920191600101612846565b50909b9a5050505050505050505050565b6000806000806040858703121561288b57600080fd5b843567ffffffffffffffff8111156128a257600080fd5b6128ae87828801612654565b909550935050602085013567ffffffffffffffff8111156128ce57600080fd5b6128da87828801612654565b95989497509550505050565b7f4e487b7100000000000000000000000000000000000000000000000000000000600052602160045260246000fd5b7f4e487b7100000000000000000000000000000000000000000000000000000000600052601260045260246000fd5b7f4e487b7100000000000000000000000000000000000000000000000000000000600052601160045260246000fd5b60008261298257612982612915565b500490565b8181038181111561050f5761050f612944565b808202811582820484141761050f5761050f612944565b6000826129c0576129c0612915565b500690565b600381106129fc577f4e487b7100000000000000000000000000000000000000000000000000000000600052602160045260246000fd5b9052565b8581526020810185905273ffffffffffffffffffffffffffffffffffffffff84811660408301528316606082015260a0810161224960808301846129c5565b6020810161050f82846129c5565b7f4e487b7100000000000000000000000000000000000000000000000000000000600052603260045260246000fd5b600060208284031215612a8e57600080fd5b81518015158114611d5557600080fd5b600181811c90821680612ab257607f821691505b602082108103612aeb577f4e487b7100000000000000000000000000000000000000000000000000000000600052602260045260246000fd5b50919050565b60008085851115612b0157600080fd5b83861115612b0e57600080fd5b5050820193919092039150565b828152604060208201526000612b34604083018461276a565b949350505050565b60008251612b4e818460208701612746565b9190910192915050565b600060208284031215612b6a57600080fd5b505191905056fea2646970667358221220bd15fdd397947b875cd0d32381778653c9504ce18be9a0db5463e9a3663399bf64736f6c634300081c0033",
  "linkReferences": {},
  "deployedLinkReferences": {}
}