{
  "_format": "hh-sol-artifact-1",
  "contractName": "CStakingPool",
  "sourceName": "contracts/staking/CStakingPool.sol",
  "abi": [
    {
      "inputs": [
        {
          "internalType": "contract IERC20",
          "name": "cToken",
          "type": "address"
        },
        {
          "internalType": "address",
          "name": "claimContract",
          "type": "address"
        },
        {
          "internalType": "contract IPoints",
          "name": "pointsContract",
          "type": "address"
        },
        {
          "internalType": "bytes32",
          "name": "depositReasonCode",
          "type": "bytes32"
        },
        {
          "internalType": "contract IForwarderRegistry",
          "name": "forwarderRegistry",
          "type": "address"
        }
      ],
      "stateMutability": "nonpayable",
      "type": "constructor"
    },
    {
      "inputs": [],
      "name": "IllegalInterfaceId",
      "type": "error"
    },
    {
      "inputs": [],
      "name": "InvalidDuration",
      "type": "error"
    },
    {
      "inputs": [],
      "name": "InvalidRewardAmount",
      "type": "error"
    },
    {
      "inputs": [],
      "name": "InvalidStakeAmount",
      "type": "error"
    },
    {
      "inputs": [],
      "name": "InvalidToken",
      "type": "error"
    },
    {
      "inputs": [],
      "name": "InvalidTransferOperator",
      "type": "error"
    },
    {
      "inputs": [],
      "name": "InvalidWithdrawAmount",
      "type": "error"
    },
    {
      "inputs": [
        {
          "internalType": "address",
          "name": "account",
          "type": "address"
        }
      ],
      "name": "NotContractOwner",
      "type": "error"
    },
    {
      "inputs": [
        {
          "internalType": "bytes32",
          "name": "role",
          "type": "bytes32"
        },
        {
          "internalType": "address",
          "name": "account",
          "type": "address"
        }
      ],
      "name": "NotRoleHolder",
      "type": "error"
    },
    {
      "inputs": [],
      "name": "OnlyReceiverInterface",
      "type": "error"
    },
    {
      "inputs": [],
      "name": "ReentrancyGuardReentrantCall",
      "type": "error"
    },
    {
      "inputs": [
        {
          "internalType": "uint256",
          "name": "reward",
          "type": "uint256"
        },
        {
          "internalType": "uint256",
          "name": "duration",
          "type": "uint256"
        }
      ],
      "name": "RewardTooSmallForDuration",
      "type": "error"
    },
    {
      "anonymous": false,
      "inputs": [
        {
          "indexed": true,
          "internalType": "address",
          "name": "staker",
          "type": "address"
        },
        {
          "indexed": false,
          "internalType": "bytes",
          "name": "claimData",
          "type": "bytes"
        },
        {
          "indexed": false,
          "internalType": "uint256",
          "name": "reward",
          "type": "uint256"
        }
      ],
      "name": "Claimed",
      "type": "event"
    },
    {
      "anonymous": false,
      "inputs": [
        {
          "indexed": true,
          "internalType": "address",
          "name": "previousOwner",
          "type": "address"
        },
        {
          "indexed": true,
          "internalType": "address",
          "name": "newOwner",
          "type": "address"
        }
      ],
      "name": "OwnershipTransferred",
      "type": "event"
    },
    {
      "anonymous": false,
      "inputs": [
        {
          "indexed": true,
          "internalType": "address",
          "name": "rewarder",
          "type": "address"
        },
        {
          "indexed": false,
          "internalType": "uint256",
          "name": "reward",
          "type": "uint256"
        },
        {
          "indexed": false,
          "internalType": "uint256",
          "name": "duration",
          "type": "uint256"
        },
        {
          "indexed": false,
          "internalType": "uint256",
          "name": "dust",
          "type": "uint256"
        }
      ],
      "name": "RewardAdded",
      "type": "event"
    },
    {
      "anonymous": false,
      "inputs": [
        {
          "indexed": false,
          "internalType": "bytes32",
          "name": "role",
          "type": "bytes32"
        },
        {
          "indexed": false,
          "internalType": "address",
          "name": "account",
          "type": "address"
        },
        {
          "indexed": false,
          "internalType": "address",
          "name": "operator",
          "type": "address"
        }
      ],
      "name": "RoleGranted",
      "type": "event"
    },
    {
      "anonymous": false,
      "inputs": [
        {
          "indexed": false,
          "internalType": "bytes32",
          "name": "role",
          "type": "bytes32"
        },
        {
          "indexed": false,
          "internalType": "address",
          "name": "account",
          "type": "address"
        },
        {
          "indexed": false,
          "internalType": "address",
          "name": "operator",
          "type": "address"
        }
      ],
      "name": "RoleRevoked",
      "type": "event"
    },
    {
      "anonymous": false,
      "inputs": [
        {
          "indexed": true,
          "internalType": "address",
          "name": "staker",
          "type": "address"
        },
        {
          "indexed": false,
          "internalType": "bytes",
          "name": "stakeData",
          "type": "bytes"
        },
        {
          "indexed": false,
          "internalType": "uint256",
          "name": "stakePoints",
          "type": "uint256"
        }
      ],
      "name": "Staked",
      "type": "event"
    },
    {
      "anonymous": false,
      "inputs": [
        {
          "indexed": true,
          "internalType": "address",
          "name": "staker",
          "type": "address"
        },
        {
          "indexed": false,
          "internalType": "bytes",
          "name": "withdrawData",
          "type": "bytes"
        },
        {
          "indexed": false,
          "internalType": "uint256",
          "name": "stakePoints",
          "type": "uint256"
        }
      ],
      "name": "Withdrawn",
      "type": "event"
    },
    {
      "inputs": [],
      "name": "CLAIM_CONTRACT",
      "outputs": [
        {
          "internalType": "address",
          "name": "",
          "type": "address"
        }
      ],
      "stateMutability": "view",
      "type": "function"
    },
    {
      "inputs": [],
      "name": "C_TOKEN",
      "outputs": [
        {
          "internalType": "contract IERC20",
          "name": "",
          "type": "address"
        }
      ],
      "stateMutability": "view",
      "type": "function"
    },
    {
      "inputs": [],
      "name": "DEPOSIT_REASON_CODE",
      "outputs": [
        {
          "internalType": "bytes32",
          "name": "",
          "type": "bytes32"
        }
      ],
      "stateMutability": "view",
      "type": "function"
    },
    {
      "inputs": [],
      "name": "POINTS_CONTRACT",
      "outputs": [
        {
          "internalType": "contract IPoints",
          "name": "",
          "type": "address"
        }
      ],
      "stateMutability": "view",
      "type": "function"
    },
    {
      "inputs": [],
      "name": "REWARDER_ROLE",
      "outputs": [
        {
          "internalType": "bytes32",
          "name": "",
          "type": "bytes32"
        }
      ],
      "stateMutability": "view",
      "type": "function"
    },
    {
      "inputs": [],
      "name": "SCALING_FACTOR",
      "outputs": [
        {
          "internalType": "uint256",
          "name": "",
          "type": "uint256"
        }
      ],
      "stateMutability": "view",
      "type": "function"
    },
    {
      "inputs": [
        {
          "internalType": "uint256",
          "name": "reward",
          "type": "uint256"
        },
        {
          "internalType": "uint256",
          "name": "duration",
          "type": "uint256"
        }
      ],
      "name": "addReward",
      "outputs": [],
      "stateMutability": "payable",
      "type": "function"
    },
    {
      "inputs": [],
      "name": "claim",
      "outputs": [],
      "stateMutability": "nonpayable",
      "type": "function"
    },
    {
      "inputs": [],
      "name": "distributionEnd",
      "outputs": [
        {
          "internalType": "uint256",
          "name": "",
          "type": "uint256"
        }
      ],
      "stateMutability": "view",
      "type": "function"
    },
    {
      "inputs": [
        {
          "internalType": "address",
          "name": "account",
          "type": "address"
        }
      ],
      "name": "earned",
      "outputs": [
        {
          "internalType": "uint256",
          "name": "",
          "type": "uint256"
        }
      ],
      "stateMutability": "view",
      "type": "function"
    },
    {
      "inputs": [],
      "name": "forwarderRegistry",
      "outputs": [
        {
          "internalType": "contract IForwarderRegistry",
          "name": "",
          "type": "address"
        }
      ],
      "stateMutability": "view",
      "type": "function"
    },
    {
      "inputs": [
        {
          "internalType": "bytes32",
          "name": "role",
          "type": "bytes32"
        },
        {
          "internalType": "address",
          "name": "account",
          "type": "address"
        }
      ],
      "name": "grantRole",
      "outputs": [],
      "stateMutability": "nonpayable",
      "type": "function"
    },
    {
      "inputs": [
        {
          "internalType": "bytes32",
          "name": "role",
          "type": "bytes32"
        },
        {
          "internalType": "address",
          "name": "account",
          "type": "address"
        }
      ],
      "name": "hasRole",
      "outputs": [
        {
          "internalType": "bool",
          "name": "hasRole_",
          "type": "bool"
        }
      ],
      "stateMutability": "view",
      "type": "function"
    },
    {
      "inputs": [
        {
          "internalType": "address",
          "name": "forwarder",
          "type": "address"
        }
      ],
      "name": "isTrustedForwarder",
      "outputs": [
        {
          "internalType": "bool",
          "name": "",
          "type": "bool"
        }
      ],
      "stateMutability": "view",
      "type": "function"
    },
    {
      "inputs": [],
      "name": "lastTimeRewardApplicable",
      "outputs": [
        {
          "internalType": "uint256",
          "name": "",
          "type": "uint256"
        }
      ],
      "stateMutability": "view",
      "type": "function"
    },
    {
      "inputs": [],
      "name": "lastUpdated",
      "outputs": [
        {
          "internalType": "uint256",
          "name": "",
          "type": "uint256"
        }
      ],
      "stateMutability": "view",
      "type": "function"
    },
    {
      "inputs": [
        {
          "internalType": "address",
          "name": "operator",
          "type": "address"
        },
        {
          "internalType": "address",
          "name": "",
          "type": "address"
        },
        {
          "internalType": "uint256",
          "name": "value",
          "type": "uint256"
        },
        {
          "internalType": "bytes",
          "name": "data",
          "type": "bytes"
        }
      ],
      "name": "onERC20Received",
      "outputs": [
        {
          "internalType": "bytes4",
          "name": "",
          "type": "bytes4"
        }
      ],
      "stateMutability": "nonpayable",
      "type": "function"
    },
    {
      "inputs": [],
      "name": "owner",
      "outputs": [
        {
          "internalType": "address",
          "name": "",
          "type": "address"
        }
      ],
      "stateMutability": "view",
      "type": "function"
    },
    {
      "inputs": [
        {
          "internalType": "bytes32",
          "name": "role",
          "type": "bytes32"
        }
      ],
      "name": "renounceRole",
      "outputs": [],
      "stateMutability": "nonpayable",
      "type": "function"
    },
    {
      "inputs": [
        {
          "internalType": "bytes32",
          "name": "role",
          "type": "bytes32"
        },
        {
          "internalType": "address",
          "name": "account",
          "type": "address"
        }
      ],
      "name": "revokeRole",
      "outputs": [],
      "stateMutability": "nonpayable",
      "type": "function"
    },
    {
      "inputs": [],
      "name": "rewardPerStakePoint",
      "outputs": [
        {
          "internalType": "uint256",
          "name": "",
          "type": "uint256"
        }
      ],
      "stateMutability": "view",
      "type": "function"
    },
    {
      "inputs": [
        {
          "internalType": "address",
          "name": "staker",
          "type": "address"
        }
      ],
      "name": "rewardPerStakePointPaid",
      "outputs": [
        {
          "internalType": "uint256",
          "name": "paid",
          "type": "uint256"
        }
      ],
      "stateMutability": "view",
      "type": "function"
    },
    {
      "inputs": [],
      "name": "rewardPerStakePointStored",
      "outputs": [
        {
          "internalType": "uint256",
          "name": "",
          "type": "uint256"
        }
      ],
      "stateMutability": "view",
      "type": "function"
    },
    {
      "inputs": [],
      "name": "rewardRate",
      "outputs": [
        {
          "internalType": "uint256",
          "name": "",
          "type": "uint256"
        }
      ],
      "stateMutability": "view",
      "type": "function"
    },
    {
      "inputs": [
        {
          "internalType": "address",
          "name": "staker",
          "type": "address"
        }
      ],
      "name": "rewards",
      "outputs": [
        {
          "internalType": "uint256",
          "name": "reward",
          "type": "uint256"
        }
      ],
      "stateMutability": "view",
      "type": "function"
    },
    {
      "inputs": [
        {
          "internalType": "bytes",
          "name": "",
          "type": "bytes"
        }
      ],
      "name": "stake",
      "outputs": [],
      "stateMutability": "payable",
      "type": "function"
    },
    {
      "inputs": [
        {
          "internalType": "address",
          "name": "staker",
          "type": "address"
        }
      ],
      "name": "staked",
      "outputs": [
        {
          "internalType": "uint256",
          "name": "stakePoints",
          "type": "uint256"
        }
      ],
      "stateMutability": "view",
      "type": "function"
    },
    {
      "inputs": [
        {
          "internalType": "bytes4",
          "name": "interfaceId",
          "type": "bytes4"
        }
      ],
      "name": "supportsInterface",
      "outputs": [
        {
          "internalType": "bool",
          "name": "",
          "type": "bool"
        }
      ],
      "stateMutability": "view",
      "type": "function"
    },
    {
      "inputs": [],
      "name": "totalStaked",
      "outputs": [
        {
          "internalType": "uint256",
          "name": "",
          "type": "uint256"
        }
      ],
      "stateMutability": "view",
      "type": "function"
    },
    {
      "inputs": [
        {
          "internalType": "address",
          "name": "newOwner",
          "type": "address"
        }
      ],
      "name": "transferOwnership",
      "outputs": [],
      "stateMutability": "nonpayable",
      "type": "function"
    },
    {
      "inputs": [
        {
          "internalType": "bytes",
          "name": "withdrawData",
          "type": "bytes"
        }
      ],
      "name": "withdraw",
      "outputs": [],
      "stateMutability": "nonpayable",
      "type": "function"
    }
  ],
  "bytecode": "0x61012060405234801561001157600080fd5b5060405161202c38038061202c833981016040819052610030916101e3565b808080336100468161004061009e565b906100d2565b50600160008190556001600160a01b0390911660805261007a9250634fc3585960e01b9150610073610141565b919061016f565b506001600160a01b0393841660a05291831660c05290911660e0526101005261026f565b6000806100cc60017fc9ed16f33ab3a66c84bfd83099ccb2a8845871e2e1c1928f63797152f0fd54cd61024e565b92915050565b6001600160a01b038116156101285781546001600160a01b0319166001600160a01b03821690811783556040516000907f8be0079c531659141344cd1fd0a4f28419497f9722a3daafe3b4186f6b6457e0908290a35b61013d6307f5828d60e41b6001610073610141565b5050565b6000806100cc60017fca9d3e17f264b0f3984e2634e94adb37fa3e6a8103f06aeae6fa59e21c769f5e61024e565b600160e01b6001600160e01b031983160161019d576040516372c683bb60e01b815260040160405180910390fd5b6001600160e01b03199190911660009081526020929092526040909120805460ff1916911515919091179055565b6001600160a01b03811681146101e057600080fd5b50565b600080600080600060a086880312156101fb57600080fd5b8551610206816101cb565b6020870151909550610217816101cb565b6040870151909450610228816101cb565b606087015160808801519194509250610240816101cb565b809150509295509295909350565b818103818111156100cc57634e487b7160e01b600052601160045260246000fd5b60805160a05160c05160e05161010051611d416102eb600039600081816102f901526112f3015260008181610388015261131c01526000818161049c015261098001526000818161025101528181610927015261192401526000818161032a0152818161044d015281816117b501526118430152611d416000f3fe6080604052600436106101d75760003560e01c806375c93bb91161010257806398807d8411610095578063d547741f11610064578063d547741f14610621578063ef4cadc514610641578063efa90b541461065d578063f2fde38b1461067357600080fd5b806398807d841461059b5780639d696e36146105c8578063c5c8f770146105de578063d0b06f5d1461060b57600080fd5b80638580cf76116100d15780638580cf76146105125780638bb9c5bf146105465780638da5cb5b1461056657806391d148541461057b57600080fd5b806375c93bb9146104be5780637b0a47ee146104d157806380faa57d146104e7578063817b1cd2146104fc57600080fd5b80632c9d0b801161017a5780634e71d92d116101495780634e71d92d146103ca5780634fc35859146103df578063572b6c051461043057806362ba90961461048a57600080fd5b80632c9d0b801461034e5780632d1e0c02146103635780632d4c2f93146103765780632f2ff15d146103aa57600080fd5b80630700037d116101b65780630700037d146102985780630968f264146102c55780632196e445146102e75780632b4c9f161461031b57600080fd5b80628cc262146101dc57806301ffc9a71461020f57806304948ea11461023f575b600080fd5b3480156101e857600080fd5b506101fc6101f73660046119d2565b610693565b6040519081526020015b60405180910390f35b34801561021b57600080fd5b5061022f61022a3660046119ef565b61072a565b6040519015158152602001610206565b34801561024b57600080fd5b506102737f000000000000000000000000000000000000000000000000000000000000000081565b60405173ffffffffffffffffffffffffffffffffffffffff9091168152602001610206565b3480156102a457600080fd5b506101fc6102b33660046119d2565b60076020526000908152604090205481565b3480156102d157600080fd5b506102e56102e0366004611a7a565b61073e565b005b3480156102f357600080fd5b506101fc7f000000000000000000000000000000000000000000000000000000000000000081565b34801561032757600080fd5b507f0000000000000000000000000000000000000000000000000000000000000000610273565b34801561035a57600080fd5b506101fc610789565b6102e5610371366004611a7a565b6107f1565b34801561038257600080fd5b506102737f000000000000000000000000000000000000000000000000000000000000000081565b3480156103b657600080fd5b506102e56103c5366004611abc565b610823565b3480156103d657600080fd5b506102e561085c565b3480156103eb57600080fd5b506103ff6103fa366004611aec565b61090d565b6040517fffffffff000000000000000000000000000000000000000000000000000000009091168152602001610206565b34801561043c57600080fd5b5061022f61044b3660046119d2565b7f000000000000000000000000000000000000000000000000000000000000000073ffffffffffffffffffffffffffffffffffffffff90811691161490565b34801561049657600080fd5b506102737f000000000000000000000000000000000000000000000000000000000000000081565b6102e56104cc366004611b5f565b610a6a565b3480156104dd57600080fd5b506101fc60035481565b3480156104f357600080fd5b506101fc610d44565b34801561050857600080fd5b506101fc60015481565b34801561051e57600080fd5b506101fc7f726577617264657200000000000000000000000000000000000000000000000081565b34801561055257600080fd5b506102e5610561366004611b81565b610d5e565b34801561057257600080fd5b50610273610d7c565b34801561058757600080fd5b5061022f610596366004611abc565b610da8565b3480156105a757600080fd5b506101fc6105b63660046119d2565b60066020526000908152604090205481565b3480156105d457600080fd5b506101fc60045481565b3480156105ea57600080fd5b506101fc6105f93660046119d2565b60086020526000908152604090205481565b34801561061757600080fd5b506101fc60025481565b34801561062d57600080fd5b506102e561063c366004611abc565b610df3565b34801561064d57600080fd5b506101fc670de0b6b3a764000081565b34801561066957600080fd5b506101fc60055481565b34801561067f57600080fd5b506102e561068e3660046119d2565b610e21565b73ffffffffffffffffffffffffffffffffffffffff81166000908152600760209081526040808320546008909252822054670de0b6b3a7640000906106d6610789565b6106e09190611bc9565b73ffffffffffffffffffffffffffffffffffffffff85166000908152600660205260409020546107109190611bdc565b61071a9190611c22565b6107249190611c36565b92915050565b600061072482610738610e3c565b90610e6a565b610785610749610f44565b83838080601f016020809104026020016040519081016040528093929190818152602001838380828437600092019190915250610f4e92505050565b5050565b60015460009080820361079e57505060045490565b80670de0b6b3a76400006003546002546107b6610d44565b6107c09190611bc9565b6107ca9190611bdc565b6107d49190611bdc565b6107de9190611c22565b6004546107eb9190611c36565b91505090565b6040517f7a404b1900000000000000000000000000000000000000000000000000000000815260040160405180910390fd5b600061082d610f44565b90506108418161083b61103a565b90611068565b61085783838361084f6110d3565b929190611101565b505050565b6000610866610f44565b9050610871816111d8565b600061087c82610693565b905080156107855773ffffffffffffffffffffffffffffffffffffffff821660009081526007602052604081208190556108b68383611266565b90508273ffffffffffffffffffffffffffffffffffffffff167f4196decb55b5644a278b6ded1c42a27acb5182aa099b1fd48974bcc0cf263fd58284604051610900929190611c49565b60405180910390a2505050565b60003373ffffffffffffffffffffffffffffffffffffffff7f0000000000000000000000000000000000000000000000000000000000000000161461097e576040517fc1ab6dc100000000000000000000000000000000000000000000000000000000815260040160405180910390fd5b7f000000000000000000000000000000000000000000000000000000000000000073ffffffffffffffffffffffffffffffffffffffff168673ffffffffffffffffffffffffffffffffffffffff1614610a03576040517f926c1d9400000000000000000000000000000000000000000000000000000000815260040160405180910390fd5b6000610a11838501856119d2565b9050610a3e8186604051602001610a2a91815260200190565b60405160208183030381529060405261137e565b507f4fc35859000000000000000000000000000000000000000000000000000000009695505050505050565b6000610a74610f44565b9050610aaa7f726577617264657200000000000000000000000000000000000000000000000082610aa36110d3565b919061146a565b82600003610ae4576040517f3853986500000000000000000000000000000000000000000000000000000000815260040160405180910390fd5b81600003610b1e576040517f7616640100000000000000000000000000000000000000000000000000000000815260040160405180910390fd5b610b2860006111d8565b60055460009081610b398542611c36565b9050814210610bb6576000610b4e8688611c22565b9050868682610b97576040517f99e66a49000000000000000000000000000000000000000000000000000000008152600481019290925260248201526044015b60405180910390fd5b50506003819055610ba88688611cbc565b60058390559350610cdf9050565b818111610c4557610bc74283611bc9565b94506000610bd58688611c22565b9050868682610c19576040517f99e66a4900000000000000000000000000000000000000000000000000000000815260048101929092526024820152604401610b8e565b50508060036000828254610c2d9190611c36565b90915550610c3d90508688611cbc565b935050610cdf565b610c4f8587611c22565b86908690610c92576040517f99e66a4900000000000000000000000000000000000000000000000000000000815260048101929092526024820152604401610b8e565b5060009050610ca14284611bc9565b600354610cae9190611bdc565b90506000610cbc8883611c36565b9050610cc88782611c22565b600355610cd58782611cbc565b6005849055945050505b42600255604080518781526020810187905290810184905273ffffffffffffffffffffffffffffffffffffffff8516907f0727302becd070529b3293f4ec8f553d9f6ae1773f638598db1205fbf89080839060600160405180910390a2505050505050565b600554600090428111610d5757806107eb565b4291505090565b610d79610d69610f44565b82610d726110d3565b91906114f0565b50565b6000610da3610d8961103a565b5473ffffffffffffffffffffffffffffffffffffffff1690565b905090565b6000610dec8383610db76110d3565b60009283526020908152604080842073ffffffffffffffffffffffffffffffffffffffff909316845291905290205460ff1690565b9392505050565b6000610dfd610f44565b9050610e0b8161083b61103a565b610857838383610e196110d3565b929190611594565b610d79610e2c610f44565b82610e3561103a565b919061165e565b60008061072460017fca9d3e17f264b0f3984e2634e94adb37fa3e6a8103f06aeae6fa59e21c769f5e611bc9565b60007c01000000000000000000000000000000000000000000000000000000007fffffffff00000000000000000000000000000000000000000000000000000000831601610eba57506000610724565b7ffe003659000000000000000000000000000000000000000000000000000000007fffffffff00000000000000000000000000000000000000000000000000000000831601610f0b57506001610724565b507fffffffff00000000000000000000000000000000000000000000000000000000166000908152602091909152604090205460ff1690565b6000610da3611772565b610f57826111d8565b6000610f6383836118bf565b905080600003610f9f576040517fdb73cdf000000000000000000000000000000000000000000000000000000000815260040160405180910390fd5b8060016000828254610fb19190611bc9565b909155505073ffffffffffffffffffffffffffffffffffffffff831660009081526006602052604081208054839290610feb908490611bc9565b925050819055508273ffffffffffffffffffffffffffffffffffffffff167faae638dec0d864ccb08558c28981bcfaee41330f57c4911cbe2d8432d0fb729e8383604051610900929190611c49565b60008061072460017fc9ed16f33ab3a66c84bfd83099ccb2a8845871e2e1c1928f63797152f0fd54cd611bc9565b815473ffffffffffffffffffffffffffffffffffffffff828116911614610785576040517f2ef4875e00000000000000000000000000000000000000000000000000000000815273ffffffffffffffffffffffffffffffffffffffff82166004820152602401610b8e565b60008061072460017fc8827d3282af6f37b64c3e9e6f3ac9df286ab0bb0fccd6f8661bf19adb368b23611bc9565b60008381526020858152604080832073ffffffffffffffffffffffffffffffffffffffff8616845290915290205460ff166111d25760008381526020858152604080832073ffffffffffffffffffffffffffffffffffffffff8681168086529184529382902080547fffffffffffffffffffffffffffffffffffffffffffffffffffffffffffffff00166001179055815187815292830152918316918101919091527f2f8788117e7eff1d82e926ec794901d17c78024a50270940304540a733656f0d906060015b60405180910390a15b50505050565b6111e0610789565b600455600554421015806111f5575060015415155b1561120657611202610d44565b6002555b73ffffffffffffffffffffffffffffffffffffffff811615610d795761122b81610693565b73ffffffffffffffffffffffffffffffffffffffff821660009081526007602090815260408083209390935560045460089091529190205550565b60608160405160200161127b91815260200190565b604080518083037fffffffffffffffffffffffffffffffffffffffffffffffffffffffffffffffe0018152908290527f26b3293f00000000000000000000000000000000000000000000000000000000825273ffffffffffffffffffffffffffffffffffffffff8581166004840152602483018590527f000000000000000000000000000000000000000000000000000000000000000060448401529092507f000000000000000000000000000000000000000000000000000000000000000016906326b3293f90606401600060405180830381600087803b15801561136057600080fd5b505af1158015611374573d6000803e3d6000fd5b5050505092915050565b611387826111d8565b6000611393838361199a565b9050806000036113cf576040517f040ef8ec00000000000000000000000000000000000000000000000000000000815260040160405180910390fd5b80600160008282546113e19190611c36565b909155505073ffffffffffffffffffffffffffffffffffffffff83166000908152600660205260408120805483929061141b908490611c36565b925050819055508273ffffffffffffffffffffffffffffffffffffffff167ff4679d394f1f97f1a3df1d73e193866ec5a813168ad5fa6958f9be21b10a594e8383604051610900929190611c49565b60008281526020848152604080832073ffffffffffffffffffffffffffffffffffffffff8516845290915290205460ff16610857576040517f7aa728820000000000000000000000000000000000000000000000000000000081526004810183905273ffffffffffffffffffffffffffffffffffffffff82166024820152604401610b8e565b6114fb83828461146a565b60008181526020848152604080832073ffffffffffffffffffffffffffffffffffffffff86168085529083529281902080547fffffffffffffffffffffffffffffffffffffffffffffffffffffffffffffff0016905580518481529182018390528101919091527ff6391f5c32d9c69d2a47ea670b442974b53935d1edc7fd64eb21e047a839171b9060600160405180910390a1505050565b60008381526020858152604080832073ffffffffffffffffffffffffffffffffffffffff8616845290915290205460ff16156111d25760008381526020858152604080832073ffffffffffffffffffffffffffffffffffffffff8681168086529184529382902080547fffffffffffffffffffffffffffffffffffffffffffffffffffffffffffffff00169055815187815292830152918316918101919091527ff6391f5c32d9c69d2a47ea670b442974b53935d1edc7fd64eb21e047a839171b906060016111c9565b825473ffffffffffffffffffffffffffffffffffffffff90811690831681146116cb576040517f2ef4875e00000000000000000000000000000000000000000000000000000000815273ffffffffffffffffffffffffffffffffffffffff84166004820152602401610b8e565b8173ffffffffffffffffffffffffffffffffffffffff168173ffffffffffffffffffffffffffffffffffffffff16146111d25783547fffffffffffffffffffffffff00000000000000000000000000000000000000001673ffffffffffffffffffffffffffffffffffffffff8381169182178655604051908316907f8be0079c531659141344cd1fd0a4f28419497f9722a3daafe3b4186f6b6457e090600090a350505050565b6000333214806117825750601836105b1561178c57503390565b7fffffffffffffffffffffffffffffffffffffffffffffffffffffffffffffffec36013560601c7f000000000000000000000000000000000000000000000000000000000000000073ffffffffffffffffffffffffffffffffffffffff163314806118ae57506040517f019a202800000000000000000000000000000000000000000000000000000000815273ffffffffffffffffffffffffffffffffffffffff82811660048301523360248301523060448301527f0000000000000000000000000000000000000000000000000000000000000000169063019a202890606401602060405180830381865afa15801561188a573d6000803e3d6000fd5b505050506040513d601f19601f820116820180604052508101906118ae9190611cd0565b156118b857919050565b3391505090565b6000818060200190518101906118d59190611cf2565b6040517fa9059cbb00000000000000000000000000000000000000000000000000000000815273ffffffffffffffffffffffffffffffffffffffff8581166004830152602482018390529192507f00000000000000000000000000000000000000000000000000000000000000009091169063a9059cbb906044016020604051808303816000875af115801561196f573d6000803e3d6000fd5b505050506040513d601f19601f820116820180604052508101906119939190611cd0565b5092915050565b600081806020019051810190610dec9190611cf2565b73ffffffffffffffffffffffffffffffffffffffff81168114610d7957600080fd5b6000602082840312156119e457600080fd5b8135610dec816119b0565b600060208284031215611a0157600080fd5b81357fffffffff0000000000000000000000000000000000000000000000000000000081168114610dec57600080fd5b60008083601f840112611a4357600080fd5b50813567ffffffffffffffff811115611a5b57600080fd5b602083019150836020828501011115611a7357600080fd5b9250929050565b60008060208385031215611a8d57600080fd5b823567ffffffffffffffff811115611aa457600080fd5b611ab085828601611a31565b90969095509350505050565b60008060408385031215611acf57600080fd5b823591506020830135611ae1816119b0565b809150509250929050565b600080600080600060808688031215611b0457600080fd5b8535611b0f816119b0565b94506020860135611b1f816119b0565b935060408601359250606086013567ffffffffffffffff811115611b4257600080fd5b611b4e88828901611a31565b969995985093965092949392505050565b60008060408385031215611b7257600080fd5b50508035926020909101359150565b600060208284031215611b9357600080fd5b5035919050565b7f4e487b7100000000000000000000000000000000000000000000000000000000600052601160045260246000fd5b8181038181111561072457610724611b9a565b808202811582820484141761072457610724611b9a565b7f4e487b7100000000000000000000000000000000000000000000000000000000600052601260045260246000fd5b600082611c3157611c31611bf3565b500490565b8082018082111561072457610724611b9a565b604081526000835180604084015260005b81811015611c775760208187018101516060868401015201611c5a565b5060006060828501015260607fffffffffffffffffffffffffffffffffffffffffffffffffffffffffffffffe0601f8301168401019150508260208301529392505050565b600082611ccb57611ccb611bf3565b500690565b600060208284031215611ce257600080fd5b81518015158114610dec57600080fd5b600060208284031215611d0457600080fd5b505191905056fea2646970667358221220b9e64f8cdb2552b9cb9515a5b950a7c6d288ceefa230af620c9720390888cf7864736f6c634300081c0033",
  "linkReferences": {},
  "deployedLinkReferences": {}
}