{
  "_format": "hh-sol-artifact-1",
  "contractName": "ERC721ClaimWindowMerkleClaimMock",
  "sourceName": "contracts/mocks/pfp/ERC721ClaimWindowMerkleClaimMock.sol",
  "abi": [
    {
      "inputs": [
        {
          "internalType": "uint256",
          "name": "mintSupply",
          "type": "uint256"
        },
        {
          "internalType": "contract ERC721Full",
          "name": "rewardContract",
          "type": "address"
        },
        {
          "internalType": "contract IForwarderRegistry",
          "name": "_forwarderRegistry",
          "type": "address"
        }
      ],
      "stateMutability": "nonpayable",
      "type": "constructor"
    },
    {
      "inputs": [
        {
          "internalType": "bytes32",
          "name": "epochId",
          "type": "bytes32"
        },
        {
          "internalType": "address",
          "name": "recipient",
          "type": "address"
        }
      ],
      "name": "AlreadyClaimed",
      "type": "error"
    },
    {
      "inputs": [
        {
          "internalType": "bytes32",
          "name": "epochId",
          "type": "bytes32"
        }
      ],
      "name": "EpochIdAlreadyExists",
      "type": "error"
    },
    {
      "inputs": [
        {
          "internalType": "bytes32",
          "name": "epochId",
          "type": "bytes32"
        }
      ],
      "name": "EpochIdNotExists",
      "type": "error"
    },
    {
      "inputs": [],
      "name": "ExceededMintSupply",
      "type": "error"
    },
    {
      "inputs": [],
      "name": "IllegalInterfaceId",
      "type": "error"
    },
    {
      "inputs": [
        {
          "internalType": "uint256",
          "name": "startTime",
          "type": "uint256"
        },
        {
          "internalType": "uint256",
          "name": "endTime",
          "type": "uint256"
        },
        {
          "internalType": "uint256",
          "name": "currentTime",
          "type": "uint256"
        }
      ],
      "name": "InvalidClaimWindow",
      "type": "error"
    },
    {
      "inputs": [
        {
          "internalType": "bytes32",
          "name": "epochId",
          "type": "bytes32"
        },
        {
          "internalType": "address",
          "name": "recipient",
          "type": "address"
        }
      ],
      "name": "InvalidProof",
      "type": "error"
    },
    {
      "inputs": [
        {
          "internalType": "address",
          "name": "account",
          "type": "address"
        }
      ],
      "name": "NotContractOwner",
      "type": "error"
    },
    {
      "inputs": [
        {
          "internalType": "bytes32",
          "name": "epochId",
          "type": "bytes32"
        },
        {
          "internalType": "uint256",
          "name": "currentTime",
          "type": "uint256"
        }
      ],
      "name": "OutOfClaimWindow",
      "type": "error"
    },
    {
      "anonymous": false,
      "inputs": [
        {
          "indexed": true,
          "internalType": "bytes32",
          "name": "epochId",
          "type": "bytes32"
        },
        {
          "indexed": true,
          "internalType": "bytes32",
          "name": "merkleRoot",
          "type": "bytes32"
        },
        {
          "indexed": false,
          "internalType": "uint256",
          "name": "startTime",
          "type": "uint256"
        },
        {
          "indexed": false,
          "internalType": "uint256",
          "name": "endTime",
          "type": "uint256"
        }
      ],
      "name": "EpochMerkleRootSet",
      "type": "event"
    },
    {
      "anonymous": false,
      "inputs": [
        {
          "indexed": true,
          "internalType": "address",
          "name": "previousOwner",
          "type": "address"
        },
        {
          "indexed": true,
          "internalType": "address",
          "name": "newOwner",
          "type": "address"
        }
      ],
      "name": "OwnershipTransferred",
      "type": "event"
    },
    {
      "anonymous": false,
      "inputs": [
        {
          "indexed": true,
          "internalType": "bytes32",
          "name": "epochId",
          "type": "bytes32"
        },
        {
          "indexed": true,
          "internalType": "address",
          "name": "recipient",
          "type": "address"
        },
        {
          "indexed": false,
          "internalType": "uint256",
          "name": "tokenId",
          "type": "uint256"
        }
      ],
      "name": "RewardClaimed",
      "type": "event"
    },
    {
      "inputs": [],
      "name": "MINT_SUPPLY",
      "outputs": [
        {
          "internalType": "uint256",
          "name": "",
          "type": "uint256"
        }
      ],
      "stateMutability": "view",
      "type": "function"
    },
    {
      "inputs": [],
      "name": "REWARD_CONTRACT",
      "outputs": [
        {
          "internalType": "contract ERC721Full",
          "name": "",
          "type": "address"
        }
      ],
      "stateMutability": "view",
      "type": "function"
    },
    {
      "inputs": [],
      "name": "__msgData",
      "outputs": [
        {
          "internalType": "bytes",
          "name": "",
          "type": "bytes"
        }
      ],
      "stateMutability": "view",
      "type": "function"
    },
    {
      "inputs": [],
      "name": "__msgSender",
      "outputs": [
        {
          "internalType": "address",
          "name": "",
          "type": "address"
        }
      ],
      "stateMutability": "view",
      "type": "function"
    },
    {
      "inputs": [
        {
          "internalType": "bytes32",
          "name": "epochId",
          "type": "bytes32"
        },
        {
          "internalType": "address",
          "name": "recipient",
          "type": "address"
        }
      ],
      "name": "canClaim",
      "outputs": [
        {
          "internalType": "enum ERC721ClaimWindowMerkleClaim.ClaimError",
          "name": "",
          "type": "uint8"
        }
      ],
      "stateMutability": "view",
      "type": "function"
    },
    {
      "inputs": [
        {
          "internalType": "bytes32",
          "name": "epochId",
          "type": "bytes32"
        },
        {
          "internalType": "bytes32[]",
          "name": "proof",
          "type": "bytes32[]"
        },
        {
          "internalType": "address",
          "name": "recipient",
          "type": "address"
        }
      ],
      "name": "claim",
      "outputs": [],
      "stateMutability": "nonpayable",
      "type": "function"
    },
    {
      "inputs": [
        {
          "internalType": "bytes32",
          "name": "",
          "type": "bytes32"
        }
      ],
      "name": "claimWindows",
      "outputs": [
        {
          "internalType": "bytes32",
          "name": "merkleRoot",
          "type": "bytes32"
        },
        {
          "internalType": "uint256",
          "name": "startTime",
          "type": "uint256"
        },
        {
          "internalType": "uint256",
          "name": "endTime",
          "type": "uint256"
        }
      ],
      "stateMutability": "view",
      "type": "function"
    },
    {
      "inputs": [
        {
          "internalType": "bytes32",
          "name": "",
          "type": "bytes32"
        }
      ],
      "name": "claimed",
      "outputs": [
        {
          "internalType": "bool",
          "name": "",
          "type": "bool"
        }
      ],
      "stateMutability": "view",
      "type": "function"
    },
    {
      "inputs": [],
      "name": "forwarderRegistry",
      "outputs": [
        {
          "internalType": "contract IForwarderRegistry",
          "name": "",
          "type": "address"
        }
      ],
      "stateMutability": "view",
      "type": "function"
    },
    {
      "inputs": [
        {
          "internalType": "address",
          "name": "forwarder",
          "type": "address"
        }
      ],
      "name": "isTrustedForwarder",
      "outputs": [
        {
          "internalType": "bool",
          "name": "",
          "type": "bool"
        }
      ],
      "stateMutability": "view",
      "type": "function"
    },
    {
      "inputs": [],
      "name": "noOfTokensClaimed",
      "outputs": [
        {
          "internalType": "uint256",
          "name": "",
          "type": "uint256"
        }
      ],
      "stateMutability": "view",
      "type": "function"
    },
    {
      "inputs": [],
      "name": "owner",
      "outputs": [
        {
          "internalType": "address",
          "name": "",
          "type": "address"
        }
      ],
      "stateMutability": "view",
      "type": "function"
    },
    {
      "inputs": [
        {
          "internalType": "bytes32",
          "name": "epochId",
          "type": "bytes32"
        },
        {
          "internalType": "bytes32",
          "name": "merkleRoot",
          "type": "bytes32"
        },
        {
          "internalType": "uint256",
          "name": "startTime",
          "type": "uint256"
        },
        {
          "internalType": "uint256",
          "name": "endTime",
          "type": "uint256"
        }
      ],
      "name": "setEpochMerkleRoot",
      "outputs": [],
      "stateMutability": "nonpayable",
      "type": "function"
    },
    {
      "inputs": [
        {
          "internalType": "bytes4",
          "name": "interfaceId",
          "type": "bytes4"
        }
      ],
      "name": "supportsInterface",
      "outputs": [
        {
          "internalType": "bool",
          "name": "",
          "type": "bool"
        }
      ],
      "stateMutability": "view",
      "type": "function"
    },
    {
      "inputs": [
        {
          "internalType": "address",
          "name": "newOwner",
          "type": "address"
        }
      ],
      "name": "transferOwnership",
      "outputs": [],
      "stateMutability": "nonpayable",
      "type": "function"
    }
  ],
  "bytecode": "0x60e060405234801561001057600080fd5b506040516115b03803806115b083398101604081905261002f916101bb565b6001600160a01b038116608052828282336100528161004c61006f565b906100a3565b505060c0919091526001600160a01b031660a0525061021f915050565b60008061009d60017fc9ed16f33ab3a66c84bfd83099ccb2a8845871e2e1c1928f63797152f0fd54cd6101fe565b92915050565b6001600160a01b038116156100f95781546001600160a01b0319166001600160a01b03821690811783556040516000907f8be0079c531659141344cd1fd0a4f28419497f9722a3daafe3b4186f6b6457e0908290a35b6101156307f5828d60e41b600161010e610119565b9190610147565b5050565b60008061009d60017fca9d3e17f264b0f3984e2634e94adb37fa3e6a8103f06aeae6fa59e21c769f5e6101fe565b600160e01b6001600160e01b0319831601610175576040516372c683bb60e01b815260040160405180910390fd5b6001600160e01b03199190911660009081526020929092526040909120805460ff1916911515919091179055565b6001600160a01b03811681146101b857600080fd5b50565b6000806000606084860312156101d057600080fd5b8351925060208401516101e2816101a3565b60408501519092506101f3816101a3565b809150509250925092565b8181038181111561009d57634e487b7160e01b600052601160045260246000fd5b60805160a05160c05161133161027f600039600081816102150152610b190152600081816101990152610836015260008181610139015281816101cb01528181610cbf01528181610d4d01528181610e000152610e3e01526113316000f3fe608060405234801561001057600080fd5b50600436106100f55760003560e01c80639dfbcde811610097578063d1a91ff211610066578063d1a91ff214610291578063dc45def614610299578063eb02625c146102e2578063f2fde38b146102f557600080fd5b80639dfbcde814610210578063aa9641ab14610245578063ba65912e14610265578063cc3c0f061461026e57600080fd5b806331e66e1e116100d357806331e66e1e1461017e5780633a5af33914610194578063572b6c05146101bb5780638da5cb5b1461020857600080fd5b806301ffc9a7146100fa5780630328a8fc146101225780632b4c9f1614610137575b600080fd5b61010d610108366004610fdf565b610308565b60405190151581526020015b60405180910390f35b610135610130366004611021565b610322565b005b7f00000000000000000000000000000000000000000000000000000000000000005b60405173ffffffffffffffffffffffffffffffffffffffff9091168152602001610119565b61018661045f565b604051610119929190611053565b6101597f000000000000000000000000000000000000000000000000000000000000000081565b61010d6101c93660046110c9565b7f000000000000000000000000000000000000000000000000000000000000000073ffffffffffffffffffffffffffffffffffffffff90811691161490565b610159610472565b6102377f000000000000000000000000000000000000000000000000000000000000000081565b604051908152602001610119565b6102586102533660046110e4565b61049e565b604051610119919061113f565b61023760005481565b61010d61027c366004611180565b60026020526000908152604090205460ff1681565b61015961051c565b6102c76102a7366004611180565b600160208190526000918252604090912080549181015460029091015483565b60408051938452602084019290925290820152606001610119565b6101356102f0366004611199565b610526565b6101356103033660046110c9565b6108ed565b600061031c8261031661090b565b90610939565b92915050565b61033b61032d610a13565b610335610a1d565b90610a4b565b808210158061034a5750428111155b15610396576040517f790c7cef00000000000000000000000000000000000000000000000000000000815260048101839052602481018290524260448201526064015b60405180910390fd5b600084815260016020526040902054156103df576040517fed10979d0000000000000000000000000000000000000000000000000000000081526004810185905260240161038d565b604080516060810182528481526020808201858152828401858152600089815260018085529086902094518555915191840191909155516002909201919091558151848152908101839052849186917f97df4a2fb6656595bc6eb616c2068e9d50031428ef69d8849590bc9f3dec620b910160405180910390a350505050565b36600061046a610aba565b915091509091565b600061049961047f610a1d565b5473ffffffffffffffffffffffffffffffffffffffff1690565b905090565b60008281526001602090815260408083209051909183916104f191879187910191825260601b7fffffffffffffffffffffffffffffffffffffffff00000000000000000000000016602082015260340190565b6040516020818303038152906040528051906020012090506105138282610ac5565b95945050505050565b6000610499610a13565b6000848152600160209081526040808320905190929161057891889186910191825260601b7fffffffffffffffffffffffffffffffffffffffff00000000000000000000000016602082015260340190565b604051602081830303815290604052805190602001209050600061059c8383610ac5565b905060018160048111156105b2576105b2611110565b036105ec576040517f84f229dc0000000000000000000000000000000000000000000000000000000081526004810188905260240161038d565b600281600481111561060057610600611110565b03610640576040517fdbeb4f4d0000000000000000000000000000000000000000000000000000000081526004810188905242602482015260440161038d565b600381600481111561065457610654611110565b036106aa576040517fa8ca238e0000000000000000000000000000000000000000000000000000000081526004810188905273ffffffffffffffffffffffffffffffffffffffff8516602482015260440161038d565b60048160048111156106be576106be611110565b036106f5576040517f192d175500000000000000000000000000000000000000000000000000000000815260040160405180910390fd5b61073b836000015483888880806020026020016040519081016040528093929190818152602001838360200280828437600092019190915250929493925050610b519050565b610790576040517fa04a37c00000000000000000000000000000000000000000000000000000000081526004810188905273ffffffffffffffffffffffffffffffffffffffff8516602482015260440161038d565b6000805461079f90600161125a565b60008181558481526002602052604080822080547fffffffffffffffffffffffffffffffffffffffffffffffffffffffffffffff00166001179055517f8832e6e300000000000000000000000000000000000000000000000000000000815273ffffffffffffffffffffffffffffffffffffffff8881166004830152602482018490526060604483015260648201929092529192507f00000000000000000000000000000000000000000000000000000000000000001690638832e6e390608401600060405180830381600087803b15801561087a57600080fd5b505af115801561088e573d6000803e3d6000fd5b505050508473ffffffffffffffffffffffffffffffffffffffff16887ffe236dfc7ce073698734b89da1aee0e7551c9c6d264404c502e6e8fefc1132a8836040516108db91815260200190565b60405180910390a35050505050505050565b6109086108f8610a13565b82610901610a1d565b9190610b67565b50565b60008061031c60017fca9d3e17f264b0f3984e2634e94adb37fa3e6a8103f06aeae6fa59e21c769f5e61126d565b60007c01000000000000000000000000000000000000000000000000000000007fffffffff000000000000000000000000000000000000000000000000000000008316016109895750600061031c565b7ffe003659000000000000000000000000000000000000000000000000000000007fffffffff000000000000000000000000000000000000000000000000000000008316016109da5750600161031c565b507fffffffff00000000000000000000000000000000000000000000000000000000166000908152602091909152604090205460ff1690565b6000610499610c7c565b60008061031c60017fc9ed16f33ab3a66c84bfd83099ccb2a8845871e2e1c1928f63797152f0fd54cd61126d565b815473ffffffffffffffffffffffffffffffffffffffff828116911614610ab6576040517f2ef4875e00000000000000000000000000000000000000000000000000000000815273ffffffffffffffffffffffffffffffffffffffff8216600482015260240161038d565b5050565b36600061046a610dc9565b8154600090610ad65750600161031c565b8260010154421080610aeb5750826002015442115b15610af85750600261031c565b60008281526002602052604090205460ff1615610b175750600361031c565b7f000000000000000000000000000000000000000000000000000000000000000060005403610b485750600461031c565b50600092915050565b600082610b5e8584610f39565b14949350505050565b825473ffffffffffffffffffffffffffffffffffffffff9081169083168114610bd4576040517f2ef4875e00000000000000000000000000000000000000000000000000000000815273ffffffffffffffffffffffffffffffffffffffff8416600482015260240161038d565b8173ffffffffffffffffffffffffffffffffffffffff168173ffffffffffffffffffffffffffffffffffffffff1614610c765783547fffffffffffffffffffffffff00000000000000000000000000000000000000001673ffffffffffffffffffffffffffffffffffffffff8381169182178655604051908316907f8be0079c531659141344cd1fd0a4f28419497f9722a3daafe3b4186f6b6457e090600090a35b50505050565b600033321480610c8c5750601836105b15610c9657503390565b7fffffffffffffffffffffffffffffffffffffffffffffffffffffffffffffffec36013560601c7f000000000000000000000000000000000000000000000000000000000000000073ffffffffffffffffffffffffffffffffffffffff16331480610db857506040517f019a202800000000000000000000000000000000000000000000000000000000815273ffffffffffffffffffffffffffffffffffffffff82811660048301523360248301523060448301527f0000000000000000000000000000000000000000000000000000000000000000169063019a202890606401602060405180830381865afa158015610d94573d6000803e3d6000fd5b505050506040513d601f19601f82011682018060405250810190610db89190611280565b15610dc257919050565b3391505090565b36600033321480610dda5750601836105b15610de85750600091369150565b3373ffffffffffffffffffffffffffffffffffffffff7f0000000000000000000000000000000000000000000000000000000000000000161480610f23575073ffffffffffffffffffffffffffffffffffffffff7f00000000000000000000000000000000000000000000000000000000000000001663019a2028367fffffffffffffffffffffffffffffffffffffffffffffffffffffffffffffffec013560601c6040517fffffffff0000000000000000000000000000000000000000000000000000000060e084901b16815273ffffffffffffffffffffffffffffffffffffffff9091166004820152336024820152306044820152606401602060405180830381865afa158015610eff573d6000803e3d6000fd5b505050506040513d601f19601f82011682018060405250810190610f239190611280565b15610f305761046a610f7c565b50600091369150565b600081815b8451811015610f7457610f6a82868381518110610f5d57610f5d6112a2565b6020026020010151610fad565b9150600101610f3e565b509392505050565b36600061046a7fffffffffffffffffffffffffffffffffffffffffffffffffffffffffffffffec83018284816112d1565b6000818310610fc9576000828152602084905260409020610fd8565b60008381526020839052604090205b9392505050565b600060208284031215610ff157600080fd5b81357fffffffff0000000000000000000000000000000000000000000000000000000081168114610fd857600080fd5b6000806000806080858703121561103757600080fd5b5050823594602084013594506040840135936060013592509050565b60208152816020820152818360408301376000818301604090810191909152601f9092017fffffffffffffffffffffffffffffffffffffffffffffffffffffffffffffffe0160101919050565b803573ffffffffffffffffffffffffffffffffffffffff811681146110c457600080fd5b919050565b6000602082840312156110db57600080fd5b610fd8826110a0565b600080604083850312156110f757600080fd5b82359150611107602084016110a0565b90509250929050565b7f4e487b7100000000000000000000000000000000000000000000000000000000600052602160045260246000fd5b602081016005831061117a577f4e487b7100000000000000000000000000000000000000000000000000000000600052602160045260246000fd5b91905290565b60006020828403121561119257600080fd5b5035919050565b600080600080606085870312156111af57600080fd5b84359350602085013567ffffffffffffffff8111156111cd57600080fd5b8501601f810187136111de57600080fd5b803567ffffffffffffffff8111156111f557600080fd5b8760208260051b840101111561120a57600080fd5b60209190910193509150611220604086016110a0565b905092959194509250565b7f4e487b7100000000000000000000000000000000000000000000000000000000600052601160045260246000fd5b8082018082111561031c5761031c61122b565b8181038181111561031c5761031c61122b565b60006020828403121561129257600080fd5b81518015158114610fd857600080fd5b7f4e487b7100000000000000000000000000000000000000000000000000000000600052603260045260246000fd5b600080858511156112e157600080fd5b838611156112ee57600080fd5b505082019391909203915056fea264697066735822122059456620a7ca7f357bb50dd91a437717260cecdc1e5d2bbad7df0a08cc1bdf5764736f6c634300081c0033",
  "linkReferences": {},
  "deployedLinkReferences": {}
}