{
  "_format": "hh-sol-artifact-1",
  "contractName": "ERC721ClaimWindowMerkleClaimMock",
  "sourceName": "contracts/mocks/pfp/ERC721ClaimWindowMerkleClaimMock.sol",
  "abi": [
    {
      "inputs": [
        {
          "internalType": "uint256",
          "name": "mintSupply",
          "type": "uint256"
        },
        {
          "internalType": "contract ERC721Full",
          "name": "rewardContract",
          "type": "address"
        },
        {
          "internalType": "contract IForwarderRegistry",
          "name": "_forwarderRegistry",
          "type": "address"
        }
      ],
      "stateMutability": "nonpayable",
      "type": "constructor"
    },
    {
      "inputs": [
        {
          "internalType": "bytes32",
          "name": "epochId",
          "type": "bytes32"
        },
        {
          "internalType": "address",
          "name": "recipient",
          "type": "address"
        }
      ],
      "name": "AlreadyClaimed",
      "type": "error"
    },
    {
      "inputs": [
        {
          "internalType": "bytes32",
          "name": "epochId",
          "type": "bytes32"
        }
      ],
      "name": "EpochIdAlreadyExists",
      "type": "error"
    },
    {
      "inputs": [
        {
          "internalType": "bytes32",
          "name": "epochId",
          "type": "bytes32"
        }
      ],
      "name": "EpochIdNotExists",
      "type": "error"
    },
    {
      "inputs": [],
      "name": "ExceededMintSupply",
      "type": "error"
    },
    {
      "inputs": [],
      "name": "IllegalInterfaceId",
      "type": "error"
    },
    {
      "inputs": [
        {
          "internalType": "uint256",
          "name": "startTime",
          "type": "uint256"
        },
        {
          "internalType": "uint256",
          "name": "endTime",
          "type": "uint256"
        },
        {
          "internalType": "uint256",
          "name": "currentTime",
          "type": "uint256"
        }
      ],
      "name": "InvalidClaimWindow",
      "type": "error"
    },
    {
      "inputs": [
        {
          "internalType": "bytes32",
          "name": "epochId",
          "type": "bytes32"
        },
        {
          "internalType": "address",
          "name": "recipient",
          "type": "address"
        }
      ],
      "name": "InvalidProof",
      "type": "error"
    },
    {
      "inputs": [
        {
          "internalType": "address",
          "name": "account",
          "type": "address"
        }
      ],
      "name": "NotContractOwner",
      "type": "error"
    },
    {
      "inputs": [
        {
          "internalType": "bytes32",
          "name": "epochId",
          "type": "bytes32"
        },
        {
          "internalType": "uint256",
          "name": "currentTime",
          "type": "uint256"
        }
      ],
      "name": "OutOfClaimWindow",
      "type": "error"
    },
    {
      "anonymous": false,
      "inputs": [
        {
          "indexed": true,
          "internalType": "bytes32",
          "name": "epochId",
          "type": "bytes32"
        },
        {
          "indexed": true,
          "internalType": "bytes32",
          "name": "merkleRoot",
          "type": "bytes32"
        },
        {
          "indexed": false,
          "internalType": "uint256",
          "name": "startTime",
          "type": "uint256"
        },
        {
          "indexed": false,
          "internalType": "uint256",
          "name": "endTime",
          "type": "uint256"
        }
      ],
      "name": "EpochMerkleRootSet",
      "type": "event"
    },
    {
      "anonymous": false,
      "inputs": [
        {
          "indexed": true,
          "internalType": "address",
          "name": "previousOwner",
          "type": "address"
        },
        {
          "indexed": true,
          "internalType": "address",
          "name": "newOwner",
          "type": "address"
        }
      ],
      "name": "OwnershipTransferred",
      "type": "event"
    },
    {
      "anonymous": false,
      "inputs": [
        {
          "indexed": true,
          "internalType": "bytes32",
          "name": "epochId",
          "type": "bytes32"
        },
        {
          "indexed": true,
          "internalType": "address",
          "name": "recipient",
          "type": "address"
        },
        {
          "indexed": true,
          "internalType": "uint256",
          "name": "tokenId",
          "type": "uint256"
        }
      ],
      "name": "RewardClaimed",
      "type": "event"
    },
    {
      "inputs": [],
      "name": "MINT_SUPPLY",
      "outputs": [
        {
          "internalType": "uint256",
          "name": "",
          "type": "uint256"
        }
      ],
      "stateMutability": "view",
      "type": "function"
    },
    {
      "inputs": [],
      "name": "REWARD_CONTRACT",
      "outputs": [
        {
          "internalType": "contract ERC721Full",
          "name": "",
          "type": "address"
        }
      ],
      "stateMutability": "view",
      "type": "function"
    },
    {
      "inputs": [],
      "name": "__msgData",
      "outputs": [
        {
          "internalType": "bytes",
          "name": "",
          "type": "bytes"
        }
      ],
      "stateMutability": "view",
      "type": "function"
    },
    {
      "inputs": [],
      "name": "__msgSender",
      "outputs": [
        {
          "internalType": "address",
          "name": "",
          "type": "address"
        }
      ],
      "stateMutability": "view",
      "type": "function"
    },
    {
      "inputs": [
        {
          "internalType": "bytes32",
          "name": "epochId",
          "type": "bytes32"
        },
        {
          "internalType": "address",
          "name": "recipient",
          "type": "address"
        }
      ],
      "name": "canClaim",
      "outputs": [
        {
          "internalType": "enum ERC721ClaimWindowMerkleClaim.ClaimError",
          "name": "",
          "type": "uint8"
        }
      ],
      "stateMutability": "view",
      "type": "function"
    },
    {
      "inputs": [
        {
          "internalType": "bytes32",
          "name": "epochId",
          "type": "bytes32"
        },
        {
          "internalType": "bytes32[]",
          "name": "proof",
          "type": "bytes32[]"
        },
        {
          "internalType": "address",
          "name": "recipient",
          "type": "address"
        }
      ],
      "name": "claim",
      "outputs": [],
      "stateMutability": "nonpayable",
      "type": "function"
    },
    {
      "inputs": [
        {
          "internalType": "bytes32",
          "name": "epochId",
          "type": "bytes32"
        }
      ],
      "name": "claimWindows",
      "outputs": [
        {
          "internalType": "bytes32",
          "name": "merkleRoot",
          "type": "bytes32"
        },
        {
          "internalType": "uint256",
          "name": "startTime",
          "type": "uint256"
        },
        {
          "internalType": "uint256",
          "name": "endTime",
          "type": "uint256"
        }
      ],
      "stateMutability": "view",
      "type": "function"
    },
    {
      "inputs": [
        {
          "internalType": "address",
          "name": "recipient",
          "type": "address"
        }
      ],
      "name": "claimed",
      "outputs": [
        {
          "internalType": "bool",
          "name": "claimed",
          "type": "bool"
        }
      ],
      "stateMutability": "view",
      "type": "function"
    },
    {
      "inputs": [],
      "name": "forwarderRegistry",
      "outputs": [
        {
          "internalType": "contract IForwarderRegistry",
          "name": "",
          "type": "address"
        }
      ],
      "stateMutability": "view",
      "type": "function"
    },
    {
      "inputs": [
        {
          "internalType": "address",
          "name": "forwarder",
          "type": "address"
        }
      ],
      "name": "isTrustedForwarder",
      "outputs": [
        {
          "internalType": "bool",
          "name": "",
          "type": "bool"
        }
      ],
      "stateMutability": "view",
      "type": "function"
    },
    {
      "inputs": [],
      "name": "noOfTokensClaimed",
      "outputs": [
        {
          "internalType": "uint256",
          "name": "",
          "type": "uint256"
        }
      ],
      "stateMutability": "view",
      "type": "function"
    },
    {
      "inputs": [],
      "name": "owner",
      "outputs": [
        {
          "internalType": "address",
          "name": "",
          "type": "address"
        }
      ],
      "stateMutability": "view",
      "type": "function"
    },
    {
      "inputs": [
        {
          "internalType": "bytes32",
          "name": "epochId",
          "type": "bytes32"
        },
        {
          "internalType": "bytes32",
          "name": "merkleRoot",
          "type": "bytes32"
        },
        {
          "internalType": "uint256",
          "name": "startTime",
          "type": "uint256"
        },
        {
          "internalType": "uint256",
          "name": "endTime",
          "type": "uint256"
        }
      ],
      "name": "setEpochMerkleRoot",
      "outputs": [],
      "stateMutability": "nonpayable",
      "type": "function"
    },
    {
      "inputs": [
        {
          "internalType": "bytes4",
          "name": "interfaceId",
          "type": "bytes4"
        }
      ],
      "name": "supportsInterface",
      "outputs": [
        {
          "internalType": "bool",
          "name": "",
          "type": "bool"
        }
      ],
      "stateMutability": "view",
      "type": "function"
    },
    {
      "inputs": [
        {
          "internalType": "address",
          "name": "newOwner",
          "type": "address"
        }
      ],
      "name": "transferOwnership",
      "outputs": [],
      "stateMutability": "nonpayable",
      "type": "function"
    }
  ],
  "bytecode": "0x60e060405234801561001057600080fd5b5060405161158d38038061158d83398101604081905261002f916101bb565b6001600160a01b038116608052828282336100528161004c61006f565b906100a3565b505060c0919091526001600160a01b031660a0525061021f915050565b60008061009d60017fc9ed16f33ab3a66c84bfd83099ccb2a8845871e2e1c1928f63797152f0fd54cd6101fe565b92915050565b6001600160a01b038116156100f95781546001600160a01b0319166001600160a01b03821690811783556040516000907f8be0079c531659141344cd1fd0a4f28419497f9722a3daafe3b4186f6b6457e0908290a35b6101156307f5828d60e41b600161010e610119565b9190610147565b5050565b60008061009d60017fca9d3e17f264b0f3984e2634e94adb37fa3e6a8103f06aeae6fa59e21c769f5e6101fe565b600160e01b6001600160e01b0319831601610175576040516372c683bb60e01b815260040160405180910390fd5b6001600160e01b03199190911660009081526020929092526040909120805460ff1916911515919091179055565b6001600160a01b03811681146101b857600080fd5b50565b6000806000606084860312156101d057600080fd5b8351925060208401516101e2816101a3565b60408501519092506101f3816101a3565b809150509250925092565b8181038181111561009d57634e487b7160e01b600052601160045260246000fd5b60805160a05160c05161130e61027f60003960008181610215015261051a0152600081816101990152610887015260008181610139015281816101cb01528181610c7701528181610d0501528181610db80152610df6015261130e6000f3fe608060405234801561001057600080fd5b50600436106100f55760003560e01c80639dfbcde811610097578063d1a91ff211610066578063d1a91ff214610291578063dc45def614610299578063eb02625c146102e2578063f2fde38b146102f557600080fd5b80639dfbcde814610210578063aa9641ab14610245578063ba65912e14610265578063c884ef831461026e57600080fd5b806331e66e1e116100d357806331e66e1e1461017e5780633a5af33914610194578063572b6c05146101bb5780638da5cb5b1461020857600080fd5b806301ffc9a7146100fa5780630328a8fc146101225780632b4c9f1614610137575b600080fd5b61010d610108366004610f97565b610308565b60405190151581526020015b60405180910390f35b610135610130366004610fd9565b610322565b005b7f00000000000000000000000000000000000000000000000000000000000000005b60405173ffffffffffffffffffffffffffffffffffffffff9091168152602001610119565b61018661045f565b60405161011992919061100b565b6101597f000000000000000000000000000000000000000000000000000000000000000081565b61010d6101c9366004611081565b7f000000000000000000000000000000000000000000000000000000000000000073ffffffffffffffffffffffffffffffffffffffff90811691161490565b610159610472565b6102377f000000000000000000000000000000000000000000000000000000000000000081565b604051908152602001610119565b61025861025336600461109c565b61049e565b60405161011991906110f7565b61023760005481565b61010d61027c366004611081565b60026020526000908152604090205460ff1681565b610159610555565b6102c76102a7366004611138565b600160208190526000918252604090912080549181015460029091015483565b60408051938452602084019290925290820152606001610119565b6101356102f0366004611151565b61055f565b610135610303366004611081565b610931565b600061031c8261031661094f565b9061097d565b92915050565b61033b61032d610a57565b610335610a61565b90610a8f565b808210158061034a5750428111155b15610396576040517f790c7cef00000000000000000000000000000000000000000000000000000000815260048101839052602481018290524260448201526064015b60405180910390fd5b600084815260016020526040902054156103df576040517fed10979d0000000000000000000000000000000000000000000000000000000081526004810185905260240161038d565b604080516060810182528481526020808201858152828401858152600089815260018085529086902094518555915191840191909155516002909201919091558151848152908101839052849186917f97df4a2fb6656595bc6eb616c2068e9d50031428ef69d8849590bc9f3dec620b910160405180910390a350505050565b36600061046a610afe565b915091509091565b600061049961047f610a61565b5473ffffffffffffffffffffffffffffffffffffffff1690565b905090565b600082815260016020526040812080546104bc57600191505061031c565b80600101544210806104d15750806002015442115b156104e057600291505061031c565b73ffffffffffffffffffffffffffffffffffffffff831660009081526002602052604090205460ff161561051857600391505061031c565b7f00000000000000000000000000000000000000000000000000000000000000006000540361054b57600491505061031c565b5060009392505050565b6000610499610a57565b600061056b858361049e565b90506001816004811115610581576105816110c8565b036105bb576040517f84f229dc0000000000000000000000000000000000000000000000000000000081526004810186905260240161038d565b60028160048111156105cf576105cf6110c8565b0361060f576040517fdbeb4f4d0000000000000000000000000000000000000000000000000000000081526004810186905242602482015260440161038d565b6003816004811115610623576106236110c8565b03610679576040517fa8ca238e0000000000000000000000000000000000000000000000000000000081526004810186905273ffffffffffffffffffffffffffffffffffffffff8316602482015260440161038d565b600481600481111561068d5761068d6110c8565b036106c4576040517f192d175500000000000000000000000000000000000000000000000000000000815260040160405180910390fd5b6000858360405160200161070792919091825260601b7fffffffffffffffffffffffffffffffffffffffff00000000000000000000000016602082015260340190565b604080517fffffffffffffffffffffffffffffffffffffffffffffffffffffffffffffffe0818403018152828252805160209182012060008a81526001835283902054888302808601840190945288855290945061078993909285928a918a91829190850190849080828437600092019190915250929493925050610b099050565b6107de576040517fa04a37c00000000000000000000000000000000000000000000000000000000081526004810187905273ffffffffffffffffffffffffffffffffffffffff8416602482015260440161038d565b600080600081546107ee90611212565b918290555073ffffffffffffffffffffffffffffffffffffffff85811660008181526002602052604080822080547fffffffffffffffffffffffffffffffffffffffffffffffffffffffffffffff00166001179055517f8832e6e30000000000000000000000000000000000000000000000000000000081526004810192909252602482018490526060604483015260648201529192507f00000000000000000000000000000000000000000000000000000000000000001690638832e6e390608401600060405180830381600087803b1580156108cb57600080fd5b505af11580156108df573d6000803e3d6000fd5b50505050808473ffffffffffffffffffffffffffffffffffffffff16887ffe236dfc7ce073698734b89da1aee0e7551c9c6d264404c502e6e8fefc1132a860405160405180910390a450505050505050565b61094c61093c610a57565b82610945610a61565b9190610b1f565b50565b60008061031c60017fca9d3e17f264b0f3984e2634e94adb37fa3e6a8103f06aeae6fa59e21c769f5e61124a565b60007c01000000000000000000000000000000000000000000000000000000007fffffffff000000000000000000000000000000000000000000000000000000008316016109cd5750600061031c565b7ffe003659000000000000000000000000000000000000000000000000000000007fffffffff00000000000000000000000000000000000000000000000000000000831601610a1e5750600161031c565b507fffffffff00000000000000000000000000000000000000000000000000000000166000908152602091909152604090205460ff1690565b6000610499610c34565b60008061031c60017fc9ed16f33ab3a66c84bfd83099ccb2a8845871e2e1c1928f63797152f0fd54cd61124a565b815473ffffffffffffffffffffffffffffffffffffffff828116911614610afa576040517f2ef4875e00000000000000000000000000000000000000000000000000000000815273ffffffffffffffffffffffffffffffffffffffff8216600482015260240161038d565b5050565b36600061046a610d81565b600082610b168584610ef1565b14949350505050565b825473ffffffffffffffffffffffffffffffffffffffff9081169083168114610b8c576040517f2ef4875e00000000000000000000000000000000000000000000000000000000815273ffffffffffffffffffffffffffffffffffffffff8416600482015260240161038d565b8173ffffffffffffffffffffffffffffffffffffffff168173ffffffffffffffffffffffffffffffffffffffff1614610c2e5783547fffffffffffffffffffffffff00000000000000000000000000000000000000001673ffffffffffffffffffffffffffffffffffffffff8381169182178655604051908316907f8be0079c531659141344cd1fd0a4f28419497f9722a3daafe3b4186f6b6457e090600090a35b50505050565b600033321480610c445750601836105b15610c4e57503390565b7fffffffffffffffffffffffffffffffffffffffffffffffffffffffffffffffec36013560601c7f000000000000000000000000000000000000000000000000000000000000000073ffffffffffffffffffffffffffffffffffffffff16331480610d7057506040517f019a202800000000000000000000000000000000000000000000000000000000815273ffffffffffffffffffffffffffffffffffffffff82811660048301523360248301523060448301527f0000000000000000000000000000000000000000000000000000000000000000169063019a202890606401602060405180830381865afa158015610d4c573d6000803e3d6000fd5b505050506040513d601f19601f82011682018060405250810190610d70919061125d565b15610d7a57919050565b3391505090565b36600033321480610d925750601836105b15610da05750600091369150565b3373ffffffffffffffffffffffffffffffffffffffff7f0000000000000000000000000000000000000000000000000000000000000000161480610edb575073ffffffffffffffffffffffffffffffffffffffff7f00000000000000000000000000000000000000000000000000000000000000001663019a2028367fffffffffffffffffffffffffffffffffffffffffffffffffffffffffffffffec013560601c6040517fffffffff0000000000000000000000000000000000000000000000000000000060e084901b16815273ffffffffffffffffffffffffffffffffffffffff9091166004820152336024820152306044820152606401602060405180830381865afa158015610eb7573d6000803e3d6000fd5b505050506040513d601f19601f82011682018060405250810190610edb919061125d565b15610ee85761046a610f34565b50600091369150565b600081815b8451811015610f2c57610f2282868381518110610f1557610f1561127f565b6020026020010151610f65565b9150600101610ef6565b509392505050565b36600061046a7fffffffffffffffffffffffffffffffffffffffffffffffffffffffffffffffec83018284816112ae565b6000818310610f81576000828152602084905260409020610f90565b60008381526020839052604090205b9392505050565b600060208284031215610fa957600080fd5b81357fffffffff0000000000000000000000000000000000000000000000000000000081168114610f9057600080fd5b60008060008060808587031215610fef57600080fd5b5050823594602084013594506040840135936060013592509050565b60208152816020820152818360408301376000818301604090810191909152601f9092017fffffffffffffffffffffffffffffffffffffffffffffffffffffffffffffffe0160101919050565b803573ffffffffffffffffffffffffffffffffffffffff8116811461107c57600080fd5b919050565b60006020828403121561109357600080fd5b610f9082611058565b600080604083850312156110af57600080fd5b823591506110bf60208401611058565b90509250929050565b7f4e487b7100000000000000000000000000000000000000000000000000000000600052602160045260246000fd5b6020810160058310611132577f4e487b7100000000000000000000000000000000000000000000000000000000600052602160045260246000fd5b91905290565b60006020828403121561114a57600080fd5b5035919050565b6000806000806060858703121561116757600080fd5b84359350602085013567ffffffffffffffff81111561118557600080fd5b8501601f8101871361119657600080fd5b803567ffffffffffffffff8111156111ad57600080fd5b8760208260051b84010111156111c257600080fd5b602091909101935091506111d860408601611058565b905092959194509250565b7f4e487b7100000000000000000000000000000000000000000000000000000000600052601160045260246000fd5b60007fffffffffffffffffffffffffffffffffffffffffffffffffffffffffffffffff8203611243576112436111e3565b5060010190565b8181038181111561031c5761031c6111e3565b60006020828403121561126f57600080fd5b81518015158114610f9057600080fd5b7f4e487b7100000000000000000000000000000000000000000000000000000000600052603260045260246000fd5b600080858511156112be57600080fd5b838611156112cb57600080fd5b505082019391909203915056fea26469706673582212201f8c70f0f36f88be71f55fd04c0e10f4d38ffd07a457ffa37de8e68dc6f0f9a864736f6c634300081c0033",
  "linkReferences": {},
  "deployedLinkReferences": {}
}