{
  "_format": "hh-sol-artifact-1",
  "contractName": "PointsBitmapClaim",
  "sourceName": "contracts/pointsBitmapClaim/PointsBitmapClaim.sol",
  "abi": [
    {
      "inputs": [
        {
          "internalType": "address",
          "name": "pointsContractAddress",
          "type": "address"
        },
        {
          "internalType": "contract IForwarderRegistry",
          "name": "_forwarderRegistry",
          "type": "address"
        },
        {
          "internalType": "bytes32",
          "name": "depositReasonCode",
          "type": "bytes32"
        }
      ],
      "stateMutability": "nonpayable",
      "type": "constructor"
    },
    {
      "inputs": [
        {
          "internalType": "address",
          "name": "recipient",
          "type": "address"
        },
        {
          "internalType": "uint256",
          "name": "amount",
          "type": "uint256"
        },
        {
          "internalType": "uint256",
          "name": "claimBits",
          "type": "uint256"
        }
      ],
      "name": "AlreadyClaimed",
      "type": "error"
    },
    {
      "inputs": [],
      "name": "IllegalInterfaceId",
      "type": "error"
    },
    {
      "inputs": [
        {
          "internalType": "uint256",
          "name": "amount",
          "type": "uint256"
        }
      ],
      "name": "InvalidClaimAmount",
      "type": "error"
    },
    {
      "inputs": [
        {
          "internalType": "uint256",
          "name": "claimBits",
          "type": "uint256"
        }
      ],
      "name": "InvalidClaimBits",
      "type": "error"
    },
    {
      "inputs": [],
      "name": "InvalidForwarderRegistry",
      "type": "error"
    },
    {
      "inputs": [],
      "name": "InvalidPointsContractAddress",
      "type": "error"
    },
    {
      "inputs": [],
      "name": "InvalidSignature",
      "type": "error"
    },
    {
      "inputs": [
        {
          "internalType": "address",
          "name": "account",
          "type": "address"
        }
      ],
      "name": "NotContractOwner",
      "type": "error"
    },
    {
      "anonymous": false,
      "inputs": [
        {
          "indexed": false,
          "internalType": "address",
          "name": "recipient",
          "type": "address"
        },
        {
          "indexed": false,
          "internalType": "uint256",
          "name": "amount",
          "type": "uint256"
        },
        {
          "indexed": false,
          "internalType": "uint256",
          "name": "claimBits",
          "type": "uint256"
        }
      ],
      "name": "Claimed",
      "type": "event"
    },
    {
      "anonymous": false,
      "inputs": [
        {
          "indexed": true,
          "internalType": "address",
          "name": "previousOwner",
          "type": "address"
        },
        {
          "indexed": true,
          "internalType": "address",
          "name": "newOwner",
          "type": "address"
        }
      ],
      "name": "OwnershipTransferred",
      "type": "event"
    },
    {
      "inputs": [],
      "name": "DEPOSIT_REASON_CODE",
      "outputs": [
        {
          "internalType": "bytes32",
          "name": "",
          "type": "bytes32"
        }
      ],
      "stateMutability": "view",
      "type": "function"
    },
    {
      "inputs": [],
      "name": "POINTS",
      "outputs": [
        {
          "internalType": "contract IPoints",
          "name": "",
          "type": "address"
        }
      ],
      "stateMutability": "view",
      "type": "function"
    },
    {
      "inputs": [
        {
          "internalType": "address",
          "name": "recipient",
          "type": "address"
        },
        {
          "internalType": "uint256",
          "name": "amount",
          "type": "uint256"
        },
        {
          "internalType": "uint256",
          "name": "claimBits",
          "type": "uint256"
        },
        {
          "internalType": "bytes",
          "name": "signature",
          "type": "bytes"
        }
      ],
      "name": "claim",
      "outputs": [],
      "stateMutability": "nonpayable",
      "type": "function"
    },
    {
      "inputs": [
        {
          "internalType": "address",
          "name": "recipient",
          "type": "address"
        }
      ],
      "name": "claimed",
      "outputs": [
        {
          "internalType": "uint256",
          "name": "claimedBitmap",
          "type": "uint256"
        }
      ],
      "stateMutability": "view",
      "type": "function"
    },
    {
      "inputs": [],
      "name": "forwarderRegistry",
      "outputs": [
        {
          "internalType": "contract IForwarderRegistry",
          "name": "",
          "type": "address"
        }
      ],
      "stateMutability": "view",
      "type": "function"
    },
    {
      "inputs": [
        {
          "internalType": "address",
          "name": "forwarder",
          "type": "address"
        }
      ],
      "name": "isTrustedForwarder",
      "outputs": [
        {
          "internalType": "bool",
          "name": "",
          "type": "bool"
        }
      ],
      "stateMutability": "view",
      "type": "function"
    },
    {
      "inputs": [],
      "name": "owner",
      "outputs": [
        {
          "internalType": "address",
          "name": "",
          "type": "address"
        }
      ],
      "stateMutability": "view",
      "type": "function"
    },
    {
      "inputs": [
        {
          "internalType": "bytes4",
          "name": "interfaceId",
          "type": "bytes4"
        }
      ],
      "name": "supportsInterface",
      "outputs": [
        {
          "internalType": "bool",
          "name": "",
          "type": "bool"
        }
      ],
      "stateMutability": "view",
      "type": "function"
    },
    {
      "inputs": [
        {
          "internalType": "address",
          "name": "newOwner",
          "type": "address"
        }
      ],
      "name": "transferOwnership",
      "outputs": [],
      "stateMutability": "nonpayable",
      "type": "function"
    }
  ],
  "bytecode": "0x6101a06040523480156200001257600080fd5b50604051620014ba380380620014ba8339810160408190526200003591620002fe565b6040805180820182526011815270506f696e74734269746d6170436c61696d60781b60208083019182528351808501855260038152620312e360ec1b908201529151902060e08190527fe6bbd6277e1bf288eed5e8d1780f9a50b239e86b153736bceebccf4ea79d90b36101008190524660a081815285517f8b73c3c69bb8fe3d512ecc4cf759cc79239f7b179b0ffacaa9a75d522b39400f818701819052818801959095526060810193909352608080840192909252308382018190528651808503909201825260c09384019096528051940193909320909252919052610120526001600160a01b03821661014052336200013c8162000135620001a7565b90620001dd565b506001600160a01b0383166200016557604051630d082d6160e21b815260040160405180910390fd5b6001600160a01b0382166200018d57604051633545ba1f60e21b815260040160405180910390fd5b6001600160a01b0390921661016052506101805262000368565b600080620001d760017fc9ed16f33ab3a66c84bfd83099ccb2a8845871e2e1c1928f63797152f0fd54cd62000346565b92915050565b6001600160a01b03811615620002345781546001600160a01b0319166001600160a01b03821690811783556040516000907f8be0079c531659141344cd1fd0a4f28419497f9722a3daafe3b4186f6b6457e0908290a35b620002546307f5828d60e41b60016200024c62000258565b919062000288565b5050565b600080620001d760017fca9d3e17f264b0f3984e2634e94adb37fa3e6a8103f06aeae6fa59e21c769f5e62000346565b600160e01b6001600160e01b0319831601620002b7576040516372c683bb60e01b815260040160405180910390fd5b6001600160e01b03199190911660009081526020929092526040909120805460ff1916911515919091179055565b6001600160a01b0381168114620002fb57600080fd5b50565b6000806000606084860312156200031457600080fd5b83516200032181620002e5565b60208501519093506200033481620002e5565b80925050604084015190509250925092565b81810381811115620001d757634e487b7160e01b600052601160045260246000fd5b60805160a05160c05160e05161010051610120516101405161016051610180516110bf620003fb6000396000818160d501526106790152600081816101b3015261069f01526000818161011c0152818161017101528181610ac70152610b4f01526000610c6201526000610cb101526000610c8c01526000610be501526000610c0f01526000610c3901526110bf6000f3fe608060405234801561001057600080fd5b50600436106100a35760003560e01c8063572b6c05116100765780638da5cb5b1161005b5780638da5cb5b146101d5578063c884ef83146101dd578063f2fde38b146101fd57600080fd5b8063572b6c05146101615780637f6e4281146101ae57600080fd5b806301ffc9a7146100a85780632196e445146100d05780632ada8a32146101055780632b4c9f161461011a575b600080fd5b6100bb6100b6366004610e33565b610210565b60405190151581526020015b60405180910390f35b6100f77f000000000000000000000000000000000000000000000000000000000000000081565b6040519081526020016100c7565b610118610113366004610e9e565b61022a565b005b7f00000000000000000000000000000000000000000000000000000000000000005b60405173ffffffffffffffffffffffffffffffffffffffff90911681526020016100c7565b6100bb61016f366004610f32565b7f000000000000000000000000000000000000000000000000000000000000000073ffffffffffffffffffffffffffffffffffffffff90811691161490565b61013c7f000000000000000000000000000000000000000000000000000000000000000081565b61013c6103cf565b6100f76101eb366004610f32565b60006020819052908152604090205481565b61011861020b366004610f32565b6103fb565b60006102248261021e610419565b90610447565b92915050565b8360000361026c576040517f27ab1ee2000000000000000000000000000000000000000000000000000000008152600481018590526024015b60405180910390fd5b826000036102a9576040517fb93313e400000000000000000000000000000000000000000000000000000000815260048101849052602401610263565b73ffffffffffffffffffffffffffffffffffffffff85166000908152602081905260409020548381161561032f576040517f6508823200000000000000000000000000000000000000000000000000000000815273ffffffffffffffffffffffffffffffffffffffff871660048201526024810186905260448101859052606401610263565b61033c8686868686610521565b73ffffffffffffffffffffffffffffffffffffffff861660009081526020819052604090208185179055610370868661062d565b6040805173ffffffffffffffffffffffffffffffffffffffff88168152602081018790529081018590527f987d620f307ff6b94d58743cb7a7509f24071586a77759b77c2d4e29f75a2f9a9060600160405180910390a1505050505050565b60006103f66103dc6106ff565b5473ffffffffffffffffffffffffffffffffffffffff1690565b905090565b61041661040661072d565b8261040f6106ff565b9190610737565b50565b60008061022460017fca9d3e17f264b0f3984e2634e94adb37fa3e6a8103f06aeae6fa59e21c769f5e610f4d565b60007c01000000000000000000000000000000000000000000000000000000007fffffffff0000000000000000000000000000000000000000000000000000000083160161049757506000610224565b7ffe003659000000000000000000000000000000000000000000000000000000007fffffffff000000000000000000000000000000000000000000000000000000008316016104e857506001610224565b507fffffffff00000000000000000000000000000000000000000000000000000000166000908152602091909152604090205460ff1690565b604080517fbae968306a0463058829cfbdfb428e0f7e3a531787e6c4101988c8ff0430da4d602082015273ffffffffffffffffffffffffffffffffffffffff871691810191909152606081018590526080810184905260009061059c9060a0016040516020818303038152906040528051906020012061084c565b905060006105eb6105ae6103dc6106ff565b8386868080601f0160208091040260200160405190810160405280939291908181526020018383808284376000920191909152506108b592505050565b905080610624576040517f8baa579f00000000000000000000000000000000000000000000000000000000815260040160405180910390fd5b50505050505050565b6040517f26b3293f00000000000000000000000000000000000000000000000000000000815273ffffffffffffffffffffffffffffffffffffffff8381166004830152602482018390527f000000000000000000000000000000000000000000000000000000000000000060448301527f000000000000000000000000000000000000000000000000000000000000000016906326b3293f90606401600060405180830381600087803b1580156106e357600080fd5b505af11580156106f7573d6000803e3d6000fd5b505050505050565b60008061022460017fc9ed16f33ab3a66c84bfd83099ccb2a8845871e2e1c1928f63797152f0fd54cd610f4d565b60006103f6610a84565b825473ffffffffffffffffffffffffffffffffffffffff90811690831681146107a4576040517f2ef4875e00000000000000000000000000000000000000000000000000000000815273ffffffffffffffffffffffffffffffffffffffff84166004820152602401610263565b8173ffffffffffffffffffffffffffffffffffffffff168173ffffffffffffffffffffffffffffffffffffffff16146108465783547fffffffffffffffffffffffff00000000000000000000000000000000000000001673ffffffffffffffffffffffffffffffffffffffff8381169182178655604051908316907f8be0079c531659141344cd1fd0a4f28419497f9722a3daafe3b4186f6b6457e090600090a35b50505050565b6000610224610859610bcb565b836040517f19010000000000000000000000000000000000000000000000000000000000006020820152602281018390526042810182905260009060620160405160208183030381529060405280519060200120905092915050565b60008060006108c48585610cff565b909250905060008160048111156108dd576108dd610f87565b14801561091557508573ffffffffffffffffffffffffffffffffffffffff168273ffffffffffffffffffffffffffffffffffffffff16145b1561092557600192505050610a7d565b6000808773ffffffffffffffffffffffffffffffffffffffff16631626ba7e60e01b888860405160240161095a929190610fda565b604080517fffffffffffffffffffffffffffffffffffffffffffffffffffffffffffffffe08184030181529181526020820180517bffffffffffffffffffffffffffffffffffffffffffffffffffffffff167fffffffff000000000000000000000000000000000000000000000000000000009094169390931790925290516109e39190611032565b600060405180830381855afa9150503d8060008114610a1e576040519150601f19603f3d011682016040523d82523d6000602084013e610a23565b606091505b5091509150818015610a36575080516020145b8015610a76575080517f1626ba7e0000000000000000000000000000000000000000000000000000000090610a74908301602090810190840161104e565b145b9450505050505b9392505050565b600033321480610a945750601836105b15610a9e57503390565b7fffffffffffffffffffffffffffffffffffffffffffffffffffffffffffffffec36013560601c7f000000000000000000000000000000000000000000000000000000000000000073ffffffffffffffffffffffffffffffffffffffff16331480610bba57506040517f8929a8ca00000000000000000000000000000000000000000000000000000000815273ffffffffffffffffffffffffffffffffffffffff82811660048301523360248301527f00000000000000000000000000000000000000000000000000000000000000001690638929a8ca90604401602060405180830381865afa158015610b96573d6000803e3d6000fd5b505050506040513d601f19601f82011682018060405250810190610bba9190611067565b15610bc457919050565b3391505090565b60003073ffffffffffffffffffffffffffffffffffffffff7f000000000000000000000000000000000000000000000000000000000000000016148015610c3157507f000000000000000000000000000000000000000000000000000000000000000046145b15610c5b57507f000000000000000000000000000000000000000000000000000000000000000090565b50604080517f00000000000000000000000000000000000000000000000000000000000000006020808301919091527f0000000000000000000000000000000000000000000000000000000000000000828401527f000000000000000000000000000000000000000000000000000000000000000060608301524660808301523060a0808401919091528351808403909101815260c0909201909252805191012090565b6000808251604103610d355760208301516040840151606085015160001a610d2987828585610d44565b94509450505050610d3d565b506000905060025b9250929050565b6000807f7fffffffffffffffffffffffffffffff5d576e7357a4501ddfe92f46681b20a0831115610d7b5750600090506003610e2a565b6040805160008082526020820180845289905260ff881692820192909252606081018690526080810185905260019060a0016020604051602081039080840390855afa158015610dcf573d6000803e3d6000fd5b50506040517fffffffffffffffffffffffffffffffffffffffffffffffffffffffffffffffe0015191505073ffffffffffffffffffffffffffffffffffffffff8116610e2357600060019250925050610e2a565b9150600090505b94509492505050565b600060208284031215610e4557600080fd5b81357fffffffff0000000000000000000000000000000000000000000000000000000081168114610a7d57600080fd5b803573ffffffffffffffffffffffffffffffffffffffff81168114610e9957600080fd5b919050565b600080600080600060808688031215610eb657600080fd5b610ebf86610e75565b94506020860135935060408601359250606086013567ffffffffffffffff80821115610eea57600080fd5b818801915088601f830112610efe57600080fd5b813581811115610f0d57600080fd5b896020828501011115610f1f57600080fd5b9699959850939650602001949392505050565b600060208284031215610f4457600080fd5b610a7d82610e75565b81810381811115610224577f4e487b7100000000000000000000000000000000000000000000000000000000600052601160045260246000fd5b7f4e487b7100000000000000000000000000000000000000000000000000000000600052602160045260246000fd5b60005b83811015610fd1578181015183820152602001610fb9565b50506000910152565b8281526040602082015260008251806040840152610fff816060850160208701610fb6565b601f017fffffffffffffffffffffffffffffffffffffffffffffffffffffffffffffffe016919091016060019392505050565b60008251611044818460208701610fb6565b9190910192915050565b60006020828403121561106057600080fd5b5051919050565b60006020828403121561107957600080fd5b81518015158114610a7d57600080fdfea26469706673582212200ed663bab933defabcbea69f90252be2262fba050ffbe0d5262c1cb19929fb0464736f6c63430008160033",
  "linkReferences": {},
  "deployedLinkReferences": {}
}