{
  "_format": "hh-sol-artifact-1",
  "contractName": "PointsBitmapClaim",
  "sourceName": "contracts/pointsBitmapClaim/PointsBitmapClaim.sol",
  "abi": [
    {
      "inputs": [
        {
          "internalType": "address",
          "name": "pointsContractAddress",
          "type": "address"
        },
        {
          "internalType": "contract IForwarderRegistry",
          "name": "_forwarderRegistry",
          "type": "address"
        },
        {
          "internalType": "bytes32",
          "name": "depositReasonCode",
          "type": "bytes32"
        }
      ],
      "stateMutability": "nonpayable",
      "type": "constructor"
    },
    {
      "inputs": [
        {
          "internalType": "address",
          "name": "recipient",
          "type": "address"
        },
        {
          "internalType": "uint256",
          "name": "claimBits",
          "type": "uint256"
        },
        {
          "internalType": "uint256",
          "name": "claimedBitmap",
          "type": "uint256"
        }
      ],
      "name": "AlreadyClaimed",
      "type": "error"
    },
    {
      "inputs": [
        {
          "internalType": "uint256",
          "name": "bitPosition",
          "type": "uint256"
        },
        {
          "internalType": "uint256",
          "name": "maxBitCount",
          "type": "uint256"
        }
      ],
      "name": "BitPositionTooBig",
      "type": "error"
    },
    {
      "inputs": [],
      "name": "IllegalInterfaceId",
      "type": "error"
    },
    {
      "inputs": [
        {
          "internalType": "uint256",
          "name": "claimBits",
          "type": "uint256"
        }
      ],
      "name": "InvalidClaimBits",
      "type": "error"
    },
    {
      "inputs": [],
      "name": "InvalidForwarderRegistry",
      "type": "error"
    },
    {
      "inputs": [],
      "name": "InvalidPointsContractAddress",
      "type": "error"
    },
    {
      "inputs": [],
      "name": "InvalidSignature",
      "type": "error"
    },
    {
      "inputs": [
        {
          "internalType": "address",
          "name": "account",
          "type": "address"
        }
      ],
      "name": "NotContractOwner",
      "type": "error"
    },
    {
      "anonymous": false,
      "inputs": [
        {
          "indexed": false,
          "internalType": "uint256",
          "name": "bitPosition",
          "type": "uint256"
        },
        {
          "indexed": false,
          "internalType": "uint256",
          "name": "value",
          "type": "uint256"
        }
      ],
      "name": "BitPositionValueSet",
      "type": "event"
    },
    {
      "anonymous": false,
      "inputs": [
        {
          "indexed": false,
          "internalType": "address",
          "name": "recipient",
          "type": "address"
        },
        {
          "indexed": false,
          "internalType": "uint256",
          "name": "oldBitMap",
          "type": "uint256"
        },
        {
          "indexed": false,
          "internalType": "uint256",
          "name": "newBitmap",
          "type": "uint256"
        }
      ],
      "name": "BitmapUpdated",
      "type": "event"
    },
    {
      "anonymous": false,
      "inputs": [
        {
          "indexed": false,
          "internalType": "address",
          "name": "recipient",
          "type": "address"
        },
        {
          "indexed": false,
          "internalType": "uint256",
          "name": "claimBits",
          "type": "uint256"
        }
      ],
      "name": "Claimed",
      "type": "event"
    },
    {
      "anonymous": false,
      "inputs": [
        {
          "indexed": true,
          "internalType": "address",
          "name": "previousOwner",
          "type": "address"
        },
        {
          "indexed": true,
          "internalType": "address",
          "name": "newOwner",
          "type": "address"
        }
      ],
      "name": "OwnershipTransferred",
      "type": "event"
    },
    {
      "inputs": [],
      "name": "DEPOSIT_REASON_CODE",
      "outputs": [
        {
          "internalType": "bytes32",
          "name": "",
          "type": "bytes32"
        }
      ],
      "stateMutability": "view",
      "type": "function"
    },
    {
      "inputs": [],
      "name": "POINTS",
      "outputs": [
        {
          "internalType": "contract IPoints",
          "name": "",
          "type": "address"
        }
      ],
      "stateMutability": "view",
      "type": "function"
    },
    {
      "inputs": [
        {
          "internalType": "uint256",
          "name": "bitPosition",
          "type": "uint256"
        }
      ],
      "name": "bitPositionValueMap",
      "outputs": [
        {
          "internalType": "uint256",
          "name": "value",
          "type": "uint256"
        }
      ],
      "stateMutability": "view",
      "type": "function"
    },
    {
      "inputs": [
        {
          "internalType": "address",
          "name": "recipient",
          "type": "address"
        },
        {
          "internalType": "uint256",
          "name": "claimBits",
          "type": "uint256"
        },
        {
          "internalType": "bytes",
          "name": "validationData",
          "type": "bytes"
        }
      ],
      "name": "claim",
      "outputs": [],
      "stateMutability": "nonpayable",
      "type": "function"
    },
    {
      "inputs": [
        {
          "internalType": "address",
          "name": "recipient",
          "type": "address"
        }
      ],
      "name": "claimed",
      "outputs": [
        {
          "internalType": "uint256",
          "name": "bitmap",
          "type": "uint256"
        }
      ],
      "stateMutability": "view",
      "type": "function"
    },
    {
      "inputs": [],
      "name": "forwarderRegistry",
      "outputs": [
        {
          "internalType": "contract IForwarderRegistry",
          "name": "",
          "type": "address"
        }
      ],
      "stateMutability": "view",
      "type": "function"
    },
    {
      "inputs": [
        {
          "internalType": "address",
          "name": "forwarder",
          "type": "address"
        }
      ],
      "name": "isTrustedForwarder",
      "outputs": [
        {
          "internalType": "bool",
          "name": "",
          "type": "bool"
        }
      ],
      "stateMutability": "view",
      "type": "function"
    },
    {
      "inputs": [],
      "name": "maxBitCount",
      "outputs": [
        {
          "internalType": "uint256",
          "name": "",
          "type": "uint256"
        }
      ],
      "stateMutability": "view",
      "type": "function"
    },
    {
      "inputs": [],
      "name": "owner",
      "outputs": [
        {
          "internalType": "address",
          "name": "",
          "type": "address"
        }
      ],
      "stateMutability": "view",
      "type": "function"
    },
    {
      "inputs": [
        {
          "internalType": "uint256",
          "name": "bitPosition",
          "type": "uint256"
        },
        {
          "internalType": "uint256",
          "name": "value",
          "type": "uint256"
        }
      ],
      "name": "setBitValue",
      "outputs": [],
      "stateMutability": "nonpayable",
      "type": "function"
    },
    {
      "inputs": [
        {
          "internalType": "bytes4",
          "name": "interfaceId",
          "type": "bytes4"
        }
      ],
      "name": "supportsInterface",
      "outputs": [
        {
          "internalType": "bool",
          "name": "",
          "type": "bool"
        }
      ],
      "stateMutability": "view",
      "type": "function"
    },
    {
      "inputs": [
        {
          "internalType": "address",
          "name": "newOwner",
          "type": "address"
        }
      ],
      "name": "transferOwnership",
      "outputs": [],
      "stateMutability": "nonpayable",
      "type": "function"
    }
  ],
  "bytecode": "0x6101a06040523480156200001257600080fd5b50604051620016e6380380620016e68339810160408190526200003591620002f6565b818060405180604001604052806011815260200170506f696e74734269746d6170436c61696d60781b815250604051806040016040528060038152602001620312e360ec1b815250336200009a81620000936200019f60201b60201c565b90620001d5565b50815160208084019190912082518383012060e08290526101008190524660a0818152604080517f8b73c3c69bb8fe3d512ecc4cf759cc79239f7b179b0ffacaa9a75d522b39400f81880181905281830187905260608201869052608082019490945230818401528151808203909301835260c00190528051940193909320919290916080523060c05261012052505050506001600160a01b0390811661014052841690506200015d57604051630d082d6160e21b815260040160405180910390fd5b6001600160a01b0382166200018557604051633545ba1f60e21b815260040160405180910390fd5b6001600160a01b0390921661016052506101805262000360565b600080620001cf60017fc9ed16f33ab3a66c84bfd83099ccb2a8845871e2e1c1928f63797152f0fd54cd6200033e565b92915050565b6001600160a01b038116156200022c5781546001600160a01b0319166001600160a01b03821690811783556040516000907f8be0079c531659141344cd1fd0a4f28419497f9722a3daafe3b4186f6b6457e0908290a35b6200024c6307f5828d60e41b60016200024462000250565b919062000280565b5050565b600080620001cf60017fca9d3e17f264b0f3984e2634e94adb37fa3e6a8103f06aeae6fa59e21c769f5e6200033e565b600160e01b6001600160e01b0319831601620002af576040516372c683bb60e01b815260040160405180910390fd5b6001600160e01b03199190911660009081526020929092526040909120805460ff1916911515919091179055565b6001600160a01b0381168114620002f357600080fd5b50565b6000806000606084860312156200030c57600080fd5b83516200031981620002dd565b60208501519093506200032c81620002dd565b80925050604084015190509250925092565b81810381811115620001cf57634e487b7160e01b600052601160045260246000fd5b60805160a05160c05160e05161010051610120516101405161016051610180516112f2620003f4600039600081816101340152610aff01526000818161020d0152610b25015260008181610158015281816101ad015281816108ab015261093301526000610e4c01526000610e9b01526000610e7601526000610dcf01526000610df901526000610e2301526112f26000f3fe608060405234801561001057600080fd5b50600436106100d45760003560e01c80636844b019116100815780638f0bc1521161005b5780638f0bc15214610237578063c884ef831461024a578063f2fde38b1461026a57600080fd5b80636844b019146101ff5780637f6e4281146102085780638da5cb5b1461022f57600080fd5b80632b4c9f16116100b25780632b4c9f1614610156578063572b6c051461019d5780635d35b7db146101ea57600080fd5b806301ffc9a7146100d957806312a53fdd146101015780632196e4451461012f575b600080fd5b6100ec6100e736600461101d565b61027d565b60405190151581526020015b60405180910390f35b61012161010f36600461105f565b60026020526000908152604090205481565b6040519081526020016100f8565b6101217f000000000000000000000000000000000000000000000000000000000000000081565b7f00000000000000000000000000000000000000000000000000000000000000005b60405173ffffffffffffffffffffffffffffffffffffffff90911681526020016100f8565b6100ec6101ab3660046110a1565b7f000000000000000000000000000000000000000000000000000000000000000073ffffffffffffffffffffffffffffffffffffffff90811691161490565b6101fd6101f83660046110bc565b610297565b005b61012160005481565b6101787f000000000000000000000000000000000000000000000000000000000000000081565b61017861035a565b6101fd6102453660046110de565b610386565b6101216102583660046110a1565b60016020526000908152604090205481565b6101fd6102783660046110a1565b610398565b60006102918261028b6103b6565b906103e4565b92915050565b6102b06102a26104be565b6102aa6104c8565b906104f6565b600054808311156102fc576040517fb09381a500000000000000000000000000000000000000000000000000000000815260048101849052602481018290526044015b60405180910390fd5b60008381526002602090815260409182902084905581518581529081018490527fc2dcdbefed2202459ea259dcfa703090c31b2825cc682c006bedeaf54be5b4bd910160405180910390a1610352816001611194565b600055505050565b60006103816103676104c8565b5473ffffffffffffffffffffffffffffffffffffffff1690565b905090565b61039284848484610565565b50505050565b6103b36103a36104be565b826103ac6104c8565b9190610754565b50565b60008061029160017fca9d3e17f264b0f3984e2634e94adb37fa3e6a8103f06aeae6fa59e21c769f5e6111a7565b60007c01000000000000000000000000000000000000000000000000000000007fffffffff0000000000000000000000000000000000000000000000000000000083160161043457506000610291565b7ffe003659000000000000000000000000000000000000000000000000000000007fffffffff0000000000000000000000000000000000000000000000000000000083160161048557506001610291565b507fffffffff00000000000000000000000000000000000000000000000000000000166000908152602091909152604090205460ff1690565b6000610381610868565b60008061029160017fc9ed16f33ab3a66c84bfd83099ccb2a8845871e2e1c1928f63797152f0fd54cd6111a7565b815473ffffffffffffffffffffffffffffffffffffffff828116911614610561576040517f2ef4875e00000000000000000000000000000000000000000000000000000000815273ffffffffffffffffffffffffffffffffffffffff821660048201526024016102f3565b5050565b82158061057657506000805484901c115b156105b0576040517fb93313e4000000000000000000000000000000000000000000000000000000008152600481018490526024016102f3565b73ffffffffffffffffffffffffffffffffffffffff841660009081526001602052604090205483811615610636576040517f6508823200000000000000000000000000000000000000000000000000000000815273ffffffffffffffffffffffffffffffffffffffff8616600482015260248101859052604481018290526064016102f3565b610642858585856109af565b73ffffffffffffffffffffffffffffffffffffffff8516600081815260016020908152604091829020878517908190558251938452908301849052908201819052907fc0a92336b374372b273b5a8bc5818221d63d279d94bd12f4843377350e777f6e9060600160405180910390a16040805173ffffffffffffffffffffffffffffffffffffffff88168152602081018790527fd8138f8a3f377c5259ca548e70e4c2de94f129f5a11036a15b69513cba2b426a910160405180910390a160008054815b8181101561073f576001881615610733576000818152600260205260409020546107309084611194565b92505b600197881c9701610706565b5061074a8883610ab3565b5050505050505050565b825473ffffffffffffffffffffffffffffffffffffffff90811690831681146107c1576040517f2ef4875e00000000000000000000000000000000000000000000000000000000815273ffffffffffffffffffffffffffffffffffffffff841660048201526024016102f3565b8173ffffffffffffffffffffffffffffffffffffffff168173ffffffffffffffffffffffffffffffffffffffff16146103925783547fffffffffffffffffffffffff00000000000000000000000000000000000000001673ffffffffffffffffffffffffffffffffffffffff8381169182178655604051908316907f8be0079c531659141344cd1fd0a4f28419497f9722a3daafe3b4186f6b6457e090600090a350505050565b6000333214806108785750601836105b1561088257503390565b7fffffffffffffffffffffffffffffffffffffffffffffffffffffffffffffffec36013560601c7f000000000000000000000000000000000000000000000000000000000000000073ffffffffffffffffffffffffffffffffffffffff1633148061099e57506040517f8929a8ca00000000000000000000000000000000000000000000000000000000815273ffffffffffffffffffffffffffffffffffffffff82811660048301523360248301527f00000000000000000000000000000000000000000000000000000000000000001690638929a8ca90604401602060405180830381865afa15801561097a573d6000803e3d6000fd5b505050506040513d601f19601f8201168201806040525081019061099e91906111ba565b156109a857919050565b3391505090565b604080517f8d7d84f2b8bdb26fd0fef6ec4402a7ac1adf4e2bf9ec7236c54ac6268cfef0b9602082015273ffffffffffffffffffffffffffffffffffffffff86169181019190915260608101849052600090610a239060800160405160208183030381529060405280519060200120610b7d565b90506000610a72610a356103676104c8565b8386868080601f016020809104026020016040519081016040528093929190818152602001838380828437600092019190915250610be692505050565b905080610aab576040517f8baa579f00000000000000000000000000000000000000000000000000000000815260040160405180910390fd5b505050505050565b6040517f26b3293f00000000000000000000000000000000000000000000000000000000815273ffffffffffffffffffffffffffffffffffffffff8381166004830152602482018390527f000000000000000000000000000000000000000000000000000000000000000060448301527f000000000000000000000000000000000000000000000000000000000000000016906326b3293f90606401600060405180830381600087803b158015610b6957600080fd5b505af1158015610aab573d6000803e3d6000fd5b6000610291610b8a610db5565b836040517f19010000000000000000000000000000000000000000000000000000000000006020820152602281018390526042810182905260009060620160405160208183030381529060405280519060200120905092915050565b6000806000610bf58585610ee9565b90925090506000816004811115610c0e57610c0e6111dc565b148015610c4657508573ffffffffffffffffffffffffffffffffffffffff168273ffffffffffffffffffffffffffffffffffffffff16145b15610c5657600192505050610dae565b6000808773ffffffffffffffffffffffffffffffffffffffff16631626ba7e60e01b8888604051602401610c8b92919061122f565b604080517fffffffffffffffffffffffffffffffffffffffffffffffffffffffffffffffe08184030181529181526020820180517bffffffffffffffffffffffffffffffffffffffffffffffffffffffff167fffffffff00000000000000000000000000000000000000000000000000000000909416939093179092529051610d149190611287565b600060405180830381855afa9150503d8060008114610d4f576040519150601f19603f3d011682016040523d82523d6000602084013e610d54565b606091505b5091509150818015610d67575080516020145b8015610da7575080517f1626ba7e0000000000000000000000000000000000000000000000000000000090610da590830160209081019084016112a3565b145b9450505050505b9392505050565b60003073ffffffffffffffffffffffffffffffffffffffff7f000000000000000000000000000000000000000000000000000000000000000016148015610e1b57507f000000000000000000000000000000000000000000000000000000000000000046145b15610e4557507f000000000000000000000000000000000000000000000000000000000000000090565b50604080517f00000000000000000000000000000000000000000000000000000000000000006020808301919091527f0000000000000000000000000000000000000000000000000000000000000000828401527f000000000000000000000000000000000000000000000000000000000000000060608301524660808301523060a0808401919091528351808403909101815260c0909201909252805191012090565b6000808251604103610f1f5760208301516040840151606085015160001a610f1387828585610f2e565b94509450505050610f27565b506000905060025b9250929050565b6000807f7fffffffffffffffffffffffffffffff5d576e7357a4501ddfe92f46681b20a0831115610f655750600090506003611014565b6040805160008082526020820180845289905260ff881692820192909252606081018690526080810185905260019060a0016020604051602081039080840390855afa158015610fb9573d6000803e3d6000fd5b50506040517fffffffffffffffffffffffffffffffffffffffffffffffffffffffffffffffe0015191505073ffffffffffffffffffffffffffffffffffffffff811661100d57600060019250925050611014565b9150600090505b94509492505050565b60006020828403121561102f57600080fd5b81357fffffffff0000000000000000000000000000000000000000000000000000000081168114610dae57600080fd5b60006020828403121561107157600080fd5b5035919050565b803573ffffffffffffffffffffffffffffffffffffffff8116811461109c57600080fd5b919050565b6000602082840312156110b357600080fd5b610dae82611078565b600080604083850312156110cf57600080fd5b50508035926020909101359150565b600080600080606085870312156110f457600080fd5b6110fd85611078565b935060208501359250604085013567ffffffffffffffff8082111561112157600080fd5b818701915087601f83011261113557600080fd5b81358181111561114457600080fd5b88602082850101111561115657600080fd5b95989497505060200194505050565b7f4e487b7100000000000000000000000000000000000000000000000000000000600052601160045260246000fd5b8082018082111561029157610291611165565b8181038181111561029157610291611165565b6000602082840312156111cc57600080fd5b81518015158114610dae57600080fd5b7f4e487b7100000000000000000000000000000000000000000000000000000000600052602160045260246000fd5b60005b8381101561122657818101518382015260200161120e565b50506000910152565b828152604060208201526000825180604084015261125481606085016020870161120b565b601f017fffffffffffffffffffffffffffffffffffffffffffffffffffffffffffffffe016919091016060019392505050565b6000825161129981846020870161120b565b9190910192915050565b6000602082840312156112b557600080fd5b505191905056fea26469706673582212209e76ecdd23dd7b4a3a2d67a200c6d62c5d01324245240e537f8b12a6d3c2f10864736f6c63430008160033",
  "linkReferences": {},
  "deployedLinkReferences": {}
}