{
  "_format": "hh-sol-artifact-1",
  "contractName": "ERC20MerkleClaim",
  "sourceName": "contracts/merkleClaim/ERC20MerkleClaim.sol",
  "abi": [
    {
      "inputs": [
        {
          "internalType": "address",
          "name": "rewardContract_",
          "type": "address"
        },
        {
          "internalType": "address",
          "name": "stakingContract_",
          "type": "address"
        },
        {
          "internalType": "address",
          "name": "payoutWallet_",
          "type": "address"
        },
        {
          "internalType": "address",
          "name": "treasuryWallet_",
          "type": "address"
        },
        {
          "internalType": "uint96",
          "name": "fee_",
          "type": "uint96"
        },
        {
          "internalType": "contract IForwarderRegistry",
          "name": "forwarderRegistry_",
          "type": "address"
        }
      ],
      "stateMutability": "nonpayable",
      "type": "constructor"
    },
    {
      "inputs": [
        {
          "internalType": "address",
          "name": "recipient",
          "type": "address"
        },
        {
          "internalType": "uint256",
          "name": "amount",
          "type": "uint256"
        },
        {
          "internalType": "uint256",
          "name": "nonce",
          "type": "uint256"
        }
      ],
      "name": "AlreadyClaimed",
      "type": "error"
    },
    {
      "inputs": [],
      "name": "IllegalInterfaceId",
      "type": "error"
    },
    {
      "inputs": [
        {
          "internalType": "uint256",
          "name": "amount",
          "type": "uint256"
        }
      ],
      "name": "InvalidClaimAmount",
      "type": "error"
    },
    {
      "inputs": [],
      "name": "InvalidFee",
      "type": "error"
    },
    {
      "inputs": [],
      "name": "InvalidForwarderRegistry",
      "type": "error"
    },
    {
      "inputs": [],
      "name": "InvalidPayoutWallet",
      "type": "error"
    },
    {
      "inputs": [
        {
          "internalType": "address",
          "name": "recipient",
          "type": "address"
        },
        {
          "internalType": "uint256",
          "name": "amount",
          "type": "uint256"
        },
        {
          "internalType": "uint256",
          "name": "nonce",
          "type": "uint256"
        }
      ],
      "name": "InvalidProof",
      "type": "error"
    },
    {
      "inputs": [
        {
          "internalType": "address",
          "name": "rewardContract",
          "type": "address"
        }
      ],
      "name": "InvalidRewardContract",
      "type": "error"
    },
    {
      "inputs": [
        {
          "internalType": "address",
          "name": "stakingContract",
          "type": "address"
        }
      ],
      "name": "InvalidStakingContract",
      "type": "error"
    },
    {
      "inputs": [],
      "name": "InvalidTreasuryWallet",
      "type": "error"
    },
    {
      "inputs": [
        {
          "internalType": "uint256",
          "name": "nonce",
          "type": "uint256"
        }
      ],
      "name": "MerkleRootNotExists",
      "type": "error"
    },
    {
      "inputs": [
        {
          "internalType": "address",
          "name": "account",
          "type": "address"
        }
      ],
      "name": "NotContractOwner",
      "type": "error"
    },
    {
      "inputs": [],
      "name": "NotPaused",
      "type": "error"
    },
    {
      "inputs": [],
      "name": "Paused",
      "type": "error"
    },
    {
      "anonymous": false,
      "inputs": [
        {
          "indexed": true,
          "internalType": "uint256",
          "name": "nonce",
          "type": "uint256"
        },
        {
          "indexed": true,
          "internalType": "bytes32",
          "name": "root",
          "type": "bytes32"
        }
      ],
      "name": "MerkleRootSet",
      "type": "event"
    },
    {
      "anonymous": false,
      "inputs": [
        {
          "indexed": true,
          "internalType": "address",
          "name": "previousOwner",
          "type": "address"
        },
        {
          "indexed": true,
          "internalType": "address",
          "name": "newOwner",
          "type": "address"
        }
      ],
      "name": "OwnershipTransferred",
      "type": "event"
    },
    {
      "anonymous": false,
      "inputs": [],
      "name": "Pause",
      "type": "event"
    },
    {
      "anonymous": false,
      "inputs": [
        {
          "indexed": true,
          "internalType": "uint256",
          "name": "nonce",
          "type": "uint256"
        },
        {
          "indexed": true,
          "internalType": "bytes32",
          "name": "root",
          "type": "bytes32"
        },
        {
          "indexed": true,
          "internalType": "address",
          "name": "recipient",
          "type": "address"
        },
        {
          "indexed": false,
          "internalType": "address",
          "name": "payoutWallet",
          "type": "address"
        },
        {
          "indexed": false,
          "internalType": "uint256",
          "name": "netClaimedAmount",
          "type": "uint256"
        },
        {
          "indexed": false,
          "internalType": "uint256",
          "name": "feeAmount",
          "type": "uint256"
        }
      ],
      "name": "PayoutClaimed",
      "type": "event"
    },
    {
      "anonymous": false,
      "inputs": [
        {
          "indexed": true,
          "internalType": "address",
          "name": "newPayoutWallet",
          "type": "address"
        }
      ],
      "name": "PayoutWalletSet",
      "type": "event"
    },
    {
      "anonymous": false,
      "inputs": [
        {
          "indexed": true,
          "internalType": "address",
          "name": "newTreasuryWallet",
          "type": "address"
        }
      ],
      "name": "TreasuryWalletSet",
      "type": "event"
    },
    {
      "anonymous": false,
      "inputs": [],
      "name": "Unpause",
      "type": "event"
    },
    {
      "inputs": [],
      "name": "FEE_PRECISION",
      "outputs": [
        {
          "internalType": "uint256",
          "name": "",
          "type": "uint256"
        }
      ],
      "stateMutability": "view",
      "type": "function"
    },
    {
      "inputs": [],
      "name": "REWARD_CONTRACT",
      "outputs": [
        {
          "internalType": "address",
          "name": "",
          "type": "address"
        }
      ],
      "stateMutability": "view",
      "type": "function"
    },
    {
      "inputs": [],
      "name": "STAKING_CONTRACT",
      "outputs": [
        {
          "internalType": "address",
          "name": "",
          "type": "address"
        }
      ],
      "stateMutability": "view",
      "type": "function"
    },
    {
      "inputs": [
        {
          "internalType": "address",
          "name": "recipient",
          "type": "address"
        },
        {
          "internalType": "uint256",
          "name": "amount",
          "type": "uint256"
        },
        {
          "internalType": "uint256",
          "name": "nonce_",
          "type": "uint256"
        },
        {
          "internalType": "bytes32[]",
          "name": "proof",
          "type": "bytes32[]"
        }
      ],
      "name": "claimPayout",
      "outputs": [],
      "stateMutability": "nonpayable",
      "type": "function"
    },
    {
      "inputs": [
        {
          "internalType": "address",
          "name": "recipient",
          "type": "address"
        },
        {
          "internalType": "uint256",
          "name": "amount",
          "type": "uint256"
        },
        {
          "internalType": "uint256",
          "name": "nonce_",
          "type": "uint256"
        },
        {
          "internalType": "bytes32[]",
          "name": "proof",
          "type": "bytes32[]"
        }
      ],
      "name": "claimPayoutAndStake",
      "outputs": [],
      "stateMutability": "nonpayable",
      "type": "function"
    },
    {
      "inputs": [
        {
          "internalType": "bytes32",
          "name": "",
          "type": "bytes32"
        }
      ],
      "name": "claimed",
      "outputs": [
        {
          "internalType": "bool",
          "name": "",
          "type": "bool"
        }
      ],
      "stateMutability": "view",
      "type": "function"
    },
    {
      "inputs": [],
      "name": "fee",
      "outputs": [
        {
          "internalType": "uint96",
          "name": "",
          "type": "uint96"
        }
      ],
      "stateMutability": "view",
      "type": "function"
    },
    {
      "inputs": [],
      "name": "forwarderRegistry",
      "outputs": [
        {
          "internalType": "contract IForwarderRegistry",
          "name": "",
          "type": "address"
        }
      ],
      "stateMutability": "view",
      "type": "function"
    },
    {
      "inputs": [
        {
          "internalType": "address",
          "name": "forwarder",
          "type": "address"
        }
      ],
      "name": "isTrustedForwarder",
      "outputs": [
        {
          "internalType": "bool",
          "name": "",
          "type": "bool"
        }
      ],
      "stateMutability": "view",
      "type": "function"
    },
    {
      "inputs": [],
      "name": "nonce",
      "outputs": [
        {
          "internalType": "uint256",
          "name": "",
          "type": "uint256"
        }
      ],
      "stateMutability": "view",
      "type": "function"
    },
    {
      "inputs": [],
      "name": "owner",
      "outputs": [
        {
          "internalType": "address",
          "name": "",
          "type": "address"
        }
      ],
      "stateMutability": "view",
      "type": "function"
    },
    {
      "inputs": [],
      "name": "pause",
      "outputs": [],
      "stateMutability": "nonpayable",
      "type": "function"
    },
    {
      "inputs": [],
      "name": "paused",
      "outputs": [
        {
          "internalType": "bool",
          "name": "",
          "type": "bool"
        }
      ],
      "stateMutability": "view",
      "type": "function"
    },
    {
      "inputs": [],
      "name": "payoutWallet",
      "outputs": [
        {
          "internalType": "address",
          "name": "",
          "type": "address"
        }
      ],
      "stateMutability": "view",
      "type": "function"
    },
    {
      "inputs": [
        {
          "internalType": "uint256",
          "name": "nonce",
          "type": "uint256"
        }
      ],
      "name": "rootMap",
      "outputs": [
        {
          "internalType": "bytes32",
          "name": "root",
          "type": "bytes32"
        }
      ],
      "stateMutability": "view",
      "type": "function"
    },
    {
      "inputs": [
        {
          "internalType": "bytes32",
          "name": "merkleRoot",
          "type": "bytes32"
        }
      ],
      "name": "setMerkleRoot",
      "outputs": [],
      "stateMutability": "nonpayable",
      "type": "function"
    },
    {
      "inputs": [
        {
          "internalType": "address",
          "name": "newPayoutWallet",
          "type": "address"
        }
      ],
      "name": "setPayoutWallet",
      "outputs": [],
      "stateMutability": "nonpayable",
      "type": "function"
    },
    {
      "inputs": [
        {
          "internalType": "address",
          "name": "newTreasuryWallet",
          "type": "address"
        }
      ],
      "name": "setTreasuryWallet",
      "outputs": [],
      "stateMutability": "nonpayable",
      "type": "function"
    },
    {
      "inputs": [
        {
          "internalType": "bytes4",
          "name": "interfaceId",
          "type": "bytes4"
        }
      ],
      "name": "supportsInterface",
      "outputs": [
        {
          "internalType": "bool",
          "name": "",
          "type": "bool"
        }
      ],
      "stateMutability": "view",
      "type": "function"
    },
    {
      "inputs": [
        {
          "internalType": "address",
          "name": "newOwner",
          "type": "address"
        }
      ],
      "name": "transferOwnership",
      "outputs": [],
      "stateMutability": "nonpayable",
      "type": "function"
    },
    {
      "inputs": [],
      "name": "treasuryWallet",
      "outputs": [
        {
          "internalType": "address",
          "name": "",
          "type": "address"
        }
      ],
      "stateMutability": "view",
      "type": "function"
    },
    {
      "inputs": [],
      "name": "unpause",
      "outputs": [],
      "stateMutability": "nonpayable",
      "type": "function"
    }
  ],
  "bytecode": "0x60e060405234801561001057600080fd5b5060405161315038038061315083398181016040528101906100329190610b26565b808033610055816100476107b860201b60201c565b6107f760201b90919060201c565b508073ffffffffffffffffffffffffffffffffffffffff1660808173ffffffffffffffffffffffffffffffffffffffff168152505050506100a667a36d0adc33f17b3760c01b61091160201b60201c565b6100c067f41a12884d7e7e4960c01b61091160201b60201c565b6100da675ba9bd0ada17a2b760c01b61091160201b60201c565b600073ffffffffffffffffffffffffffffffffffffffff168673ffffffffffffffffffffffffffffffffffffffff160361017f5761012867e1d3106370b5eec360c01b61091160201b60201c565b61014267f2ebf5c343b4690260c01b61091160201b60201c565b856040517fa50e6d060000000000000000000000000000000000000000000000000000000081526004016101769190610bc2565b60405180910390fd5b61019967d6adf97c1300073560c01b61091160201b60201c565b6101b367028224bcda3fd3f160c01b61091160201b60201c565b6101cd67c6573d49b8b457ee60c01b61091160201b60201c565b600073ffffffffffffffffffffffffffffffffffffffff168573ffffffffffffffffffffffffffffffffffffffff16036102725761021b6783ae3a514963d1d660c01b61091160201b60201c565b610235672842dde92847e2ee60c01b61091160201b60201c565b846040517f81d97a5e0000000000000000000000000000000000000000000000000000000081526004016102699190610bc2565b60405180910390fd5b61028c67e6fe166f375962af60c01b61091160201b60201c565b6102a667954d1bf7b105f97260c01b61091160201b60201c565b6102c06753ffc2574d590cba60c01b61091160201b60201c565b600073ffffffffffffffffffffffffffffffffffffffff168473ffffffffffffffffffffffffffffffffffffffff160361035a5761030e6796dea910f583e2cf60c01b61091160201b60201c565b61032867f511eee0969a3bef60c01b61091160201b60201c565b6040517fc41cbee200000000000000000000000000000000000000000000000000000000815260040160405180910390fd5b61037467fcddcf9f05abce3a60c01b61091160201b60201c565b61038e670f45261b1a1c9a8c60c01b61091160201b60201c565b6103a8673c524d8f2dcf1b8e60c01b61091160201b60201c565b600073ffffffffffffffffffffffffffffffffffffffff168373ffffffffffffffffffffffffffffffffffffffff1603610442576103f667ac47d6bedafdb43760c01b61091160201b60201c565b610410678f11a9c2afff8acb60c01b61091160201b60201c565b6040517fa56b8e2800000000000000000000000000000000000000000000000000000000815260040160405180910390fd5b61045c6744c28dbe437b1dfc60c01b61091160201b60201c565b61047667284ede5b121b9d3e60c01b61091160201b60201c565b6104906745f3ef2ccb38590c60c01b61091160201b60201c565b612710826bffffffffffffffffffffffff16111561050e576104c26742e5b9f0295b445b60c01b61091160201b60201c565b6104dc6702f82b71c2bdc9de60c01b61091160201b60201c565b6040517f58d620b300000000000000000000000000000000000000000000000000000000815260040160405180910390fd5b6105286731a20387d0d79ccd60c01b61091160201b60201c565b6105426754c5f1fd634dfcd160c01b61091160201b60201c565b61055c67629ac93ff6bad45b60c01b61091160201b60201c565b600073ffffffffffffffffffffffffffffffffffffffff168173ffffffffffffffffffffffffffffffffffffffff16036105f6576105aa67a3aa0fcab4a2adf760c01b61091160201b60201c565b6105c46779a731af8353c2f360c01b61091160201b60201c565b6040517fd516e87c00000000000000000000000000000000000000000000000000000000815260040160405180910390fd5b61061067dbedd722de4f23c160c01b61091160201b60201c565b61062a6707d6d904528705b460c01b61091160201b60201c565b8573ffffffffffffffffffffffffffffffffffffffff1660a08173ffffffffffffffffffffffffffffffffffffffff1681525050610678676e034145a881c40760c01b61091160201b60201c565b8473ffffffffffffffffffffffffffffffffffffffff1660c08173ffffffffffffffffffffffffffffffffffffffff16815250506106c667e4361ac244b7cdf060c01b61091160201b60201c565b83600260006101000a81548173ffffffffffffffffffffffffffffffffffffffff021916908373ffffffffffffffffffffffffffffffffffffffff16021790555061072167363c98df3963001e60c01b61091160201b60201c565b82600460006101000a81548173ffffffffffffffffffffffffffffffffffffffff021916908373ffffffffffffffffffffffffffffffffffffffff16021790555061077c676f476763bdd26a2660c01b61091160201b60201c565b81600460146101000a8154816bffffffffffffffffffffffff02191690836bffffffffffffffffffffffff160217905550505050505050610c4a565b60008060017fc9ed16f33ab3a66c84bfd83099ccb2a8845871e2e1c1928f63797152f0fd54cd60001c6107eb9190610c16565b60001b90508091505090565b600073ffffffffffffffffffffffffffffffffffffffff168173ffffffffffffffffffffffffffffffffffffffff16146108ca57808260000160006101000a81548173ffffffffffffffffffffffffffffffffffffffff021916908373ffffffffffffffffffffffffffffffffffffffff1602179055508073ffffffffffffffffffffffffffffffffffffffff16600073ffffffffffffffffffffffffffffffffffffffff167f8be0079c531659141344cd1fd0a4f28419497f9722a3daafe3b4186f6b6457e060405160405180910390a35b61090d7f7f5828d00000000000000000000000000000000000000000000000000000000060016108fe61091460201b60201c565b61095360201b9092919060201c565b5050565b50565b60008060017fca9d3e17f264b0f3984e2634e94adb37fa3e6a8103f06aeae6fa59e21c769f5e60001c6109479190610c16565b60001b90508091505090565b63ffffffff60e01b7bffffffffffffffffffffffffffffffffffffffffffffffffffffffff1916827bffffffffffffffffffffffffffffffffffffffffffffffffffffffff1916036109d1576040517f72c683bb00000000000000000000000000000000000000000000000000000000815260040160405180910390fd5b80836000016000847bffffffffffffffffffffffffffffffffffffffffffffffffffffffff19167bffffffffffffffffffffffffffffffffffffffffffffffffffffffff1916815260200190815260200160002060006101000a81548160ff021916908315150217905550505050565b600080fd5b600073ffffffffffffffffffffffffffffffffffffffff82169050919050565b6000610a7182610a46565b9050919050565b610a8181610a66565b8114610a8c57600080fd5b50565b600081519050610a9e81610a78565b92915050565b60006bffffffffffffffffffffffff82169050919050565b610ac581610aa4565b8114610ad057600080fd5b50565b600081519050610ae281610abc565b92915050565b6000610af382610a66565b9050919050565b610b0381610ae8565b8114610b0e57600080fd5b50565b600081519050610b2081610afa565b92915050565b60008060008060008060c08789031215610b4357610b42610a41565b5b6000610b5189828a01610a8f565b9650506020610b6289828a01610a8f565b9550506040610b7389828a01610a8f565b9450506060610b8489828a01610a8f565b9350506080610b9589828a01610ad3565b92505060a0610ba689828a01610b11565b9150509295509295509295565b610bbc81610a66565b82525050565b6000602082019050610bd76000830184610bb3565b92915050565b6000819050919050565b7f4e487b7100000000000000000000000000000000000000000000000000000000600052601160045260246000fd5b6000610c2182610bdd565b9150610c2c83610bdd565b9250828203905081811115610c4457610c43610be7565b5b92915050565b60805160a05160c0516124a6610caa60003960008181610b050152610f200152600081816105bd01528181610686015281816107f80152610ac80152600081816107d2015281816108770152818161199601526119eb01526124a66000f3fe608060405234801561001057600080fd5b50600436106101825760003560e01c80638456cb59116100d8578063cc3c0f061161008c578063ddca3f4311610066578063ddca3f43146103d7578063e63a391f146103f5578063f2fde38b1461041357610182565b8063cc3c0f0614610359578063da19ddfb14610389578063db200205146103a757610182565b80638da5cb5b116100bd5780638da5cb5b14610301578063a8602fea1461031f578063affed0e01461033b57610182565b80638456cb59146102d95780638488bb4e146102e357610182565b80634626402b1161013a5780636b8f9c43116101145780636b8f9c43146102855780636ed31d09146102a15780637cb64759146102bd57610182565b80634626402b14610219578063572b6c05146102375780635c975abb1461026757610182565b80632b4c9f161161016b5780632b4c9f16146101d35780633a5af339146101f15780633f4ba83a1461020f57610182565b806301ffc9a71461018757806321c3df25146101b7575b600080fd5b6101a1600480360381019061019c9190611bee565b61042f565b6040516101ae9190611c36565b60405180910390f35b6101d160048036038101906101cc9190611d4a565b610452565b005b6101db6107ce565b6040516101e89190611e31565b60405180910390f35b6101f96107f6565b6040516102069190611e5b565b60405180910390f35b61021761081a565b005b61022161084d565b60405161022e9190611e5b565b60405180910390f35b610251600480360381019061024c9190611e76565b610873565b60405161025e9190611c36565b60405180910390f35b61026f6108cb565b60405161027c9190611c36565b60405180910390f35b61029f600480360381019061029a9190611e76565b6108e2565b005b6102bb60048036038101906102b69190611d4a565b610a02565b005b6102d760048036038101906102d29190611ed9565b610c2e565b005b6102e1610d68565b005b6102eb610d9b565b6040516102f89190611e5b565b60405180910390f35b610309610dc1565b6040516103169190611e5b565b60405180910390f35b61033960048036038101906103349190611e76565b610dd8565b005b610343610ef8565b6040516103509190611f15565b60405180910390f35b610373600480360381019061036e9190611ed9565b610efe565b6040516103809190611c36565b60405180910390f35b610391610f1e565b60405161039e9190611e5b565b60405180910390f35b6103c160048036038101906103bc9190611f30565b610f42565b6040516103ce9190611f6c565b60405180910390f35b6103df610f5a565b6040516103ec9190611fae565b60405180910390f35b6103fd610f78565b60405161040a9190611f15565b60405180910390f35b61042d60048036038101906104289190611e76565b610f7e565b005b600061044b8261043d610fa4565b610fe390919063ffffffff16565b9050919050565b6104666778a933ca72bb7dbc60c01b611112565b61047a679035f8f98fe4b1e160c01b611112565b61048e67a0f21499b3c32b7360c01b611112565b600061049d8686868686611115565b90506104b367a984774aa3943eaf60c01b611112565b6104c767712e2bbcc7f9afce60c01b611112565b6000600260009054906101000a900473ffffffffffffffffffffffffffffffffffffffff169050610502675810c450c4878b0860c01b611112565b610516673171e5520acb297c60c01b611112565b6000612710600460149054906101000a90046bffffffffffffffffffffffff166bffffffffffffffffffffffff168861054f9190611ff8565b6105599190612069565b905061056f67bbd9522296412b5c60c01b611112565b610583679298961c7a33fcbd60c01b611112565b60008188610591919061209a565b90506105a767e912e15f0a67591a60c01b611112565b6105bb67e24634582e52c89c60c01b611112565b7f000000000000000000000000000000000000000000000000000000000000000073ffffffffffffffffffffffffffffffffffffffff1663b88d4fde848b846040518463ffffffff1660e01b815260040161061893929190612105565b6020604051808303816000875af1158015610637573d6000803e3d6000fd5b505050506040513d601f19601f8201168201806040525081019061065b919061217b565b50610670676d12824caa331eac60c01b611112565b61068467fdbdc225ff6e7e6160c01b611112565b7f000000000000000000000000000000000000000000000000000000000000000073ffffffffffffffffffffffffffffffffffffffff1663b88d4fde84600460009054906101000a900473ffffffffffffffffffffffffffffffffffffffff16856040518463ffffffff1660e01b815260040161070393929190612105565b6020604051808303816000875af1158015610722573d6000803e3d6000fd5b505050506040513d601f19601f82011682018060405250810190610746919061217b565b5061075b6732e24239e34ad1d160c01b611112565b61076f6799e45fdc9469e71260c01b611112565b8273ffffffffffffffffffffffffffffffffffffffff1684887f4198e253c4ae311bc3d0c7aca40cb1a9827879ca09dc5f3a430127c736748f188c85876040516107bb939291906121a8565b60405180910390a4505050505050505050565b60007f0000000000000000000000000000000000000000000000000000000000000000905090565b7f000000000000000000000000000000000000000000000000000000000000000081565b61083b610825611512565b61082d61155d565b61159c90919063ffffffff16565b61084b610846611634565b611673565b565b600460009054906101000a900473ffffffffffffffffffffffffffffffffffffffff1681565b60007f000000000000000000000000000000000000000000000000000000000000000073ffffffffffffffffffffffffffffffffffffffff168273ffffffffffffffffffffffffffffffffffffffff16149050919050565b60006108dd6108d8611634565b6116c8565b905090565b6108f667928c33f27d01033f60c01b611112565b61090a678d1614dcaecd1d8460c01b611112565b61091e67443ead99e20af34860c01b611112565b61093f610929611512565b61093161155d565b61159c90919063ffffffff16565b61095367d653c1dda23cb42660c01b611112565b80600260006101000a81548173ffffffffffffffffffffffffffffffffffffffff021916908373ffffffffffffffffffffffffffffffffffffffff1602179055506109a867600cf39eb099506760c01b611112565b6109bc6713b3bdfb30a95acd60c01b611112565b8073ffffffffffffffffffffffffffffffffffffffff167fdd880d24a789958a6398c99c2e54ce31bc10a638cbc42f7dd34285479ae0f85560405160405180910390a250565b610a16671fa9a34f82f569f560c01b611112565b610a2a67ccdf7fc425ae651c60c01b611112565b610a3e677bbfc81b5d11388460c01b611112565b6000610a4d8686868686611115565b9050610a6367d6fce75f5bb9934960c01b611112565b610a7767fe8125bd1e7535ff60c01b611112565b6000600260009054906101000a900473ffffffffffffffffffffffffffffffffffffffff169050610ab26712e3a3940b2ed1cb60c01b611112565b610ac667c8511a1845337b1760c01b611112565b7f000000000000000000000000000000000000000000000000000000000000000073ffffffffffffffffffffffffffffffffffffffff1663b88d4fde827f0000000000000000000000000000000000000000000000000000000000000000898b604051602001610b369190611e5b565b6040516020818303038152906040526040518563ffffffff1660e01b8152600401610b64949392919061225e565b6020604051808303816000875af1158015610b83573d6000803e3d6000fd5b505050506040513d601f19601f82011682018060405250810190610ba7919061217b565b50610bbc67471763f08e05d1f460c01b611112565b610bd067465a0a91b88c859460c01b611112565b8073ffffffffffffffffffffffffffffffffffffffff1682867f4198e253c4ae311bc3d0c7aca40cb1a9827879ca09dc5f3a430127c736748f188a8a6000604051610c1d939291906122e5565b60405180910390a450505050505050565b610c42676990f6d6e5bdc50560c01b611112565b610c56675ec09081b65b9d2660c01b611112565b610c6a67237470c49cd9ae2a60c01b611112565b610c8b610c75611512565b610c7d61155d565b61159c90919063ffffffff16565b610c9f67b7f67d7449fef35760c01b611112565b610cb3675e80f1a38095b0f260c01b611112565b600080549050610ccd6777ad003a196f927560c01b611112565b816001600083815260200190815260200160002081905550610cf967a0b843d6b512dde960c01b611112565b6000808154610d079061231c565b91905081905550610d22676fa1815d9989536e60c01b611112565b610d366705a0122b50355bd960c01b611112565b81817fb04b7d6145a7588fdcf339a22877d5965f861c171204fc37688058c5f6c06d3b60405160405180910390a35050565b610d89610d73611512565b610d7b61155d565b61159c90919063ffffffff16565b610d99610d94611634565b6116e3565b565b600260009054906101000a900473ffffffffffffffffffffffffffffffffffffffff1681565b6000610dd3610dce61155d565b611738565b905090565b610dec670aa0a42f500f709b60c01b611112565b610e00675aa1f6791f6b422460c01b611112565b610e146754b4f7e0fad144e360c01b611112565b610e35610e1f611512565b610e2761155d565b61159c90919063ffffffff16565b610e4967018055766956728860c01b611112565b80600460006101000a81548173ffffffffffffffffffffffffffffffffffffffff021916908373ffffffffffffffffffffffffffffffffffffffff160217905550610e9e67a512d3ba837cc4e560c01b611112565b610eb26786a2de4e8066dbfc60c01b611112565b8073ffffffffffffffffffffffffffffffffffffffff167f5695f8b02f5f53d02b408db3ed952c16f32f9701ad2691c44733f2a2d09225a960405160405180910390a250565b60005481565b60036020528060005260406000206000915054906101000a900460ff1681565b7f000000000000000000000000000000000000000000000000000000000000000081565b60016020528060005260406000206000915090505481565b600460149054906101000a90046bffffffffffffffffffffffff1681565b61271081565b610fa1610f89611512565b82610f9261155d565b6117669092919063ffffffff16565b50565b60008060017fca9d3e17f264b0f3984e2634e94adb37fa3e6a8103f06aeae6fa59e21c769f5e60001c610fd7919061209a565b60001b90508091505090565b600063ffffffff60e01b7bffffffffffffffffffffffffffffffffffffffffffffffffffffffff1916827bffffffffffffffffffffffffffffffffffffffffffffffffffffffff19160361103a576000905061110c565b7f01ffc9a7000000000000000000000000000000000000000000000000000000007bffffffffffffffffffffffffffffffffffffffffffffffffffffffff1916827bffffffffffffffffffffffffffffffffffffffffffffffffffffffff1916036110a8576001905061110c565b826000016000837bffffffffffffffffffffffffffffffffffffffffffffffffffffffff19167bffffffffffffffffffffffffffffffffffffffffffffffffffffffff1916815260200190815260200160002060009054906101000a900460ff1690505b92915050565b50565b600061112b67a7327f453ad5032160c01b611112565b61113f67075c662761029a2960c01b611112565b61115367bf28ab16e133c08660c01b611112565b600085036111c05761116f6797603388ab818c2860c01b611112565b611183679fb27415628391d860c01b611112565b846040517f27ab1ee20000000000000000000000000000000000000000000000000000000081526004016111b79190611f15565b60405180910390fd5b6111d467e04a91daf0131d6b60c01b611112565b6111e867dec24d517c734c9660c01b611112565b6111fc67d66b1d07ecab5b3360c01b611112565b61120c611207611634565b6118d6565b61122067ac81a3bc0e1c460060c01b611112565b6001600085815260200190815260200160002054905061124a67a83abcc386f1af5160c01b611112565b61125e67f64cd1c6f7ddaf1c60c01b611112565b6000801b81036112cd5761127c674fd05ae2de49f15f60c01b611112565b611290673c3ab8f20eb36f5860c01b611112565b836040517fab4a79390000000000000000000000000000000000000000000000000000000081526004016112c49190611f15565b60405180910390fd5b6112e1672824ffb85f09520560c01b611112565b6112f567efd8f9e092ff2bac60c01b611112565b61130967632eba0c04b014f760c01b611112565b6000868686604051602001611320939291906123cd565b60405160208183030381529060405280519060200120905061134c671e43010ee891c02460c01b611112565b61136067993c2e012c4cef6960c01b611112565b61137c828286866119229190939291909392919063ffffffff16565b6113e957611394675aa8dc0b94b40e8360c01b611112565b6113a86792a4bf13cb61e1e760c01b611112565b8686866040517f3c6ee01b0000000000000000000000000000000000000000000000000000000081526004016113e0939291906121a8565b60405180910390fd5b6113fd67781d0a12fc2b6fa260c01b611112565b61141167b0431c2e7f23866260c01b611112565b6114256708ba5900c37248f960c01b611112565b6003600082815260200190815260200160002060009054906101000a900460ff16156114b45761145f67814b93850c5c56ad60c01b611112565b6114736773133859a92ff36460c01b611112565b8686866040517f650882320000000000000000000000000000000000000000000000000000000081526004016114ab939291906121a8565b60405180910390fd5b6114c867afc2d03b49a4484e60c01b611112565b6114dc6743515cbaa4995deb60c01b611112565b60016003600083815260200190815260200160002060006101000a81548160ff0219169083151502179055505095945050505050565b600061152867bbd9c07b9847e90c60c01b611112565b61153c674061a9d6377a14cb60c01b611112565b61155067f0891df5316503f260c01b611112565b61155861193b565b905090565b60008060017fc9ed16f33ab3a66c84bfd83099ccb2a8845871e2e1c1928f63797152f0fd54cd60001c611590919061209a565b60001b90508091505090565b8160000160009054906101000a900473ffffffffffffffffffffffffffffffffffffffff1673ffffffffffffffffffffffffffffffffffffffff168173ffffffffffffffffffffffffffffffffffffffff161461163057806040517f2ef4875e0000000000000000000000000000000000000000000000000000000081526004016116279190611e5b565b60405180910390fd5b5050565b60008060017f0186a05f63b1553398ad5ea3233c0ce68b8c9eecc47717f123c5c2b42fbd6d9f60001c611667919061209a565b60001b90508091505090565b61167c81611a9e565b60008160000160006101000a81548160ff0219169083151502179055507f7805862f689e2f13df9f062ff482ad3ad112aca9e0847911ed832e158c525b3360405160405180910390a150565b60008160000160009054906101000a900460ff169050919050565b6116ec816118d6565b60018160000160006101000a81548160ff0219169083151502179055507f6985a02210a168e66602d3235cb6db0e70f92b3ba4d376a33c0f3d9434bff62560405160405180910390a150565b60008160000160009054906101000a900473ffffffffffffffffffffffffffffffffffffffff169050919050565b60008360000160009054906101000a900473ffffffffffffffffffffffffffffffffffffffff1690508073ffffffffffffffffffffffffffffffffffffffff168373ffffffffffffffffffffffffffffffffffffffff16146117ff57826040517f2ef4875e0000000000000000000000000000000000000000000000000000000081526004016117f69190611e5b565b60405180910390fd5b8173ffffffffffffffffffffffffffffffffffffffff168173ffffffffffffffffffffffffffffffffffffffff16146118d057818460000160006101000a81548173ffffffffffffffffffffffffffffffffffffffff021916908373ffffffffffffffffffffffffffffffffffffffff1602179055508173ffffffffffffffffffffffffffffffffffffffff168173ffffffffffffffffffffffffffffffffffffffff167f8be0079c531659141344cd1fd0a4f28419497f9722a3daafe3b4186f6b6457e060405160405180910390a35b50505050565b8060000160009054906101000a900460ff161561191f576040517f9e87fac800000000000000000000000000000000000000000000000000000000815260040160405180910390fd5b50565b600082611930868685611ae9565b149050949350505050565b60003273ffffffffffffffffffffffffffffffffffffffff163373ffffffffffffffffffffffffffffffffffffffff16148061197b575060186000369050105b1561198857339050611a9b565b6000611992611b3b565b90507f000000000000000000000000000000000000000000000000000000000000000073ffffffffffffffffffffffffffffffffffffffff163373ffffffffffffffffffffffffffffffffffffffff161480611a8857507f000000000000000000000000000000000000000000000000000000000000000073ffffffffffffffffffffffffffffffffffffffff1663019a20288233306040518463ffffffff1660e01b8152600401611a469392919061240a565b602060405180830381865afa158015611a63573d6000803e3d6000fd5b505050506040513d601f19601f82011682018060405250810190611a87919061217b565b5b15611a965780915050611a9b565b339150505b90565b8060000160009054906101000a900460ff16611ae6576040517f6cd6020100000000000000000000000000000000000000000000000000000000815260040160405180910390fd5b50565b60008082905060005b85859050811015611b2f57611b2082878784818110611b1457611b13612441565b5b90506020020135611b4a565b91508080600101915050611af2565b50809150509392505050565b6000601436033560601c905090565b6000818310611b6257611b5d8284611b75565b611b6d565b611b6c8383611b75565b5b905092915050565b600082600052816020526040600020905092915050565b600080fd5b600080fd5b60007fffffffff0000000000000000000000000000000000000000000000000000000082169050919050565b611bcb81611b96565b8114611bd657600080fd5b50565b600081359050611be881611bc2565b92915050565b600060208284031215611c0457611c03611b8c565b5b6000611c1284828501611bd9565b91505092915050565b60008115159050919050565b611c3081611c1b565b82525050565b6000602082019050611c4b6000830184611c27565b92915050565b600073ffffffffffffffffffffffffffffffffffffffff82169050919050565b6000611c7c82611c51565b9050919050565b611c8c81611c71565b8114611c9757600080fd5b50565b600081359050611ca981611c83565b92915050565b6000819050919050565b611cc281611caf565b8114611ccd57600080fd5b50565b600081359050611cdf81611cb9565b92915050565b600080fd5b600080fd5b600080fd5b60008083601f840112611d0a57611d09611ce5565b5b8235905067ffffffffffffffff811115611d2757611d26611cea565b5b602083019150836020820283011115611d4357611d42611cef565b5b9250929050565b600080600080600060808688031215611d6657611d65611b8c565b5b6000611d7488828901611c9a565b9550506020611d8588828901611cd0565b9450506040611d9688828901611cd0565b935050606086013567ffffffffffffffff811115611db757611db6611b91565b5b611dc388828901611cf4565b92509250509295509295909350565b6000819050919050565b6000611df7611df2611ded84611c51565b611dd2565b611c51565b9050919050565b6000611e0982611ddc565b9050919050565b6000611e1b82611dfe565b9050919050565b611e2b81611e10565b82525050565b6000602082019050611e466000830184611e22565b92915050565b611e5581611c71565b82525050565b6000602082019050611e706000830184611e4c565b92915050565b600060208284031215611e8c57611e8b611b8c565b5b6000611e9a84828501611c9a565b91505092915050565b6000819050919050565b611eb681611ea3565b8114611ec157600080fd5b50565b600081359050611ed381611ead565b92915050565b600060208284031215611eef57611eee611b8c565b5b6000611efd84828501611ec4565b91505092915050565b611f0f81611caf565b82525050565b6000602082019050611f2a6000830184611f06565b92915050565b600060208284031215611f4657611f45611b8c565b5b6000611f5484828501611cd0565b91505092915050565b611f6681611ea3565b82525050565b6000602082019050611f816000830184611f5d565b92915050565b60006bffffffffffffffffffffffff82169050919050565b611fa881611f87565b82525050565b6000602082019050611fc36000830184611f9f565b92915050565b7f4e487b7100000000000000000000000000000000000000000000000000000000600052601160045260246000fd5b600061200382611caf565b915061200e83611caf565b925082820261201c81611caf565b9150828204841483151761203357612032611fc9565b5b5092915050565b7f4e487b7100000000000000000000000000000000000000000000000000000000600052601260045260246000fd5b600061207482611caf565b915061207f83611caf565b92508261208f5761208e61203a565b5b828204905092915050565b60006120a582611caf565b91506120b083611caf565b92508282039050818111156120c8576120c7611fc9565b5b92915050565b600082825260208201905092915050565b50565b60006120ef6000836120ce565b91506120fa826120df565b600082019050919050565b600060808201905061211a6000830186611e4c565b6121276020830185611e4c565b6121346040830184611f06565b8181036060830152612145816120e2565b9050949350505050565b61215881611c1b565b811461216357600080fd5b50565b6000815190506121758161214f565b92915050565b60006020828403121561219157612190611b8c565b5b600061219f84828501612166565b91505092915050565b60006060820190506121bd6000830186611e4c565b6121ca6020830185611f06565b6121d76040830184611f06565b949350505050565b600081519050919050565b60005b838110156122085780820151818401526020810190506121ed565b60008484015250505050565b6000601f19601f8301169050919050565b6000612230826121df565b61223a81856120ce565b935061224a8185602086016121ea565b61225381612214565b840191505092915050565b60006080820190506122736000830187611e4c565b6122806020830186611e4c565b61228d6040830185611f06565b818103606083015261229f8184612225565b905095945050505050565b6000819050919050565b60006122cf6122ca6122c5846122aa565b611dd2565b611caf565b9050919050565b6122df816122b4565b82525050565b60006060820190506122fa6000830186611e4c565b6123076020830185611f06565b61231460408301846122d6565b949350505050565b600061232782611caf565b91507fffffffffffffffffffffffffffffffffffffffffffffffffffffffffffffffff820361235957612358611fc9565b5b600182019050919050565b60008160601b9050919050565b600061237c82612364565b9050919050565b600061238e82612371565b9050919050565b6123a66123a182611c71565b612383565b82525050565b6000819050919050565b6123c76123c282611caf565b6123ac565b82525050565b60006123d98286612395565b6014820191506123e982856123b6565b6020820191506123f982846123b6565b602082019150819050949350505050565b600060608201905061241f6000830186611e4c565b61242c6020830185611e4c565b6124396040830184611e4c565b949350505050565b7f4e487b7100000000000000000000000000000000000000000000000000000000600052603260045260246000fdfea2646970667358221220122610fe7868801f2a98cd9231f997816152ed6e7358aff973f5e24364efe69a64736f6c634300081c0033",
  "linkReferences": {},
  "deployedLinkReferences": {}
}