{
  "_format": "hh-sol-artifact-1",
  "contractName": "ERC20MerkleClaim",
  "sourceName": "contracts/merkleClaim/ERC20MerkleClaim.sol",
  "abi": [
    {
      "inputs": [
        {
          "internalType": "address",
          "name": "rewardContract_",
          "type": "address"
        },
        {
          "internalType": "address",
          "name": "stakingContract_",
          "type": "address"
        },
        {
          "internalType": "address",
          "name": "payoutWallet_",
          "type": "address"
        },
        {
          "internalType": "address",
          "name": "treasuryWallet_",
          "type": "address"
        },
        {
          "internalType": "uint96",
          "name": "fee_",
          "type": "uint96"
        },
        {
          "internalType": "contract IForwarderRegistry",
          "name": "forwarderRegistry_",
          "type": "address"
        }
      ],
      "stateMutability": "nonpayable",
      "type": "constructor"
    },
    {
      "inputs": [
        {
          "internalType": "address",
          "name": "recipient",
          "type": "address"
        },
        {
          "internalType": "uint256",
          "name": "amount",
          "type": "uint256"
        },
        {
          "internalType": "uint256",
          "name": "nonce",
          "type": "uint256"
        }
      ],
      "name": "AlreadyClaimed",
      "type": "error"
    },
    {
      "inputs": [],
      "name": "IllegalInterfaceId",
      "type": "error"
    },
    {
      "inputs": [
        {
          "internalType": "uint256",
          "name": "amount",
          "type": "uint256"
        }
      ],
      "name": "InvalidClaimAmount",
      "type": "error"
    },
    {
      "inputs": [],
      "name": "InvalidFee",
      "type": "error"
    },
    {
      "inputs": [],
      "name": "InvalidForwarderRegistry",
      "type": "error"
    },
    {
      "inputs": [],
      "name": "InvalidPayoutWallet",
      "type": "error"
    },
    {
      "inputs": [
        {
          "internalType": "address",
          "name": "recipient",
          "type": "address"
        },
        {
          "internalType": "uint256",
          "name": "amount",
          "type": "uint256"
        },
        {
          "internalType": "uint256",
          "name": "nonce",
          "type": "uint256"
        }
      ],
      "name": "InvalidProof",
      "type": "error"
    },
    {
      "inputs": [
        {
          "internalType": "address",
          "name": "rewardContract",
          "type": "address"
        }
      ],
      "name": "InvalidRewardContract",
      "type": "error"
    },
    {
      "inputs": [
        {
          "internalType": "address",
          "name": "stakingContract",
          "type": "address"
        }
      ],
      "name": "InvalidStakingContract",
      "type": "error"
    },
    {
      "inputs": [],
      "name": "InvalidTreasuryWallet",
      "type": "error"
    },
    {
      "inputs": [
        {
          "internalType": "uint256",
          "name": "nonce",
          "type": "uint256"
        }
      ],
      "name": "MerkleRootNotExists",
      "type": "error"
    },
    {
      "inputs": [
        {
          "internalType": "address",
          "name": "account",
          "type": "address"
        }
      ],
      "name": "NotContractOwner",
      "type": "error"
    },
    {
      "inputs": [],
      "name": "NotPaused",
      "type": "error"
    },
    {
      "inputs": [],
      "name": "Paused",
      "type": "error"
    },
    {
      "anonymous": false,
      "inputs": [
        {
          "indexed": true,
          "internalType": "uint256",
          "name": "nonce",
          "type": "uint256"
        },
        {
          "indexed": true,
          "internalType": "bytes32",
          "name": "root",
          "type": "bytes32"
        }
      ],
      "name": "MerkleRootSet",
      "type": "event"
    },
    {
      "anonymous": false,
      "inputs": [
        {
          "indexed": true,
          "internalType": "address",
          "name": "previousOwner",
          "type": "address"
        },
        {
          "indexed": true,
          "internalType": "address",
          "name": "newOwner",
          "type": "address"
        }
      ],
      "name": "OwnershipTransferred",
      "type": "event"
    },
    {
      "anonymous": false,
      "inputs": [],
      "name": "Pause",
      "type": "event"
    },
    {
      "anonymous": false,
      "inputs": [
        {
          "indexed": true,
          "internalType": "uint256",
          "name": "nonce",
          "type": "uint256"
        },
        {
          "indexed": true,
          "internalType": "bytes32",
          "name": "root",
          "type": "bytes32"
        },
        {
          "indexed": true,
          "internalType": "address",
          "name": "recipient",
          "type": "address"
        },
        {
          "indexed": false,
          "internalType": "address",
          "name": "payoutWallet",
          "type": "address"
        },
        {
          "indexed": false,
          "internalType": "uint256",
          "name": "netClaimedAmount",
          "type": "uint256"
        },
        {
          "indexed": false,
          "internalType": "uint256",
          "name": "feeAmount",
          "type": "uint256"
        }
      ],
      "name": "PayoutClaimed",
      "type": "event"
    },
    {
      "anonymous": false,
      "inputs": [
        {
          "indexed": true,
          "internalType": "address",
          "name": "newPayoutWallet",
          "type": "address"
        }
      ],
      "name": "PayoutWalletSet",
      "type": "event"
    },
    {
      "anonymous": false,
      "inputs": [
        {
          "indexed": true,
          "internalType": "address",
          "name": "newTreasuryWallet",
          "type": "address"
        }
      ],
      "name": "TreasuryWalletSet",
      "type": "event"
    },
    {
      "anonymous": false,
      "inputs": [],
      "name": "Unpause",
      "type": "event"
    },
    {
      "inputs": [],
      "name": "FEE_PRECISION",
      "outputs": [
        {
          "internalType": "uint256",
          "name": "",
          "type": "uint256"
        }
      ],
      "stateMutability": "view",
      "type": "function"
    },
    {
      "inputs": [],
      "name": "REWARD_CONTRACT",
      "outputs": [
        {
          "internalType": "address",
          "name": "",
          "type": "address"
        }
      ],
      "stateMutability": "view",
      "type": "function"
    },
    {
      "inputs": [],
      "name": "STAKING_CONTRACT",
      "outputs": [
        {
          "internalType": "address",
          "name": "",
          "type": "address"
        }
      ],
      "stateMutability": "view",
      "type": "function"
    },
    {
      "inputs": [
        {
          "internalType": "address",
          "name": "recipient",
          "type": "address"
        },
        {
          "internalType": "uint256",
          "name": "amount",
          "type": "uint256"
        },
        {
          "internalType": "uint96",
          "name": "nonce_",
          "type": "uint96"
        },
        {
          "internalType": "bytes32[]",
          "name": "proof",
          "type": "bytes32[]"
        }
      ],
      "name": "claimPayout",
      "outputs": [],
      "stateMutability": "nonpayable",
      "type": "function"
    },
    {
      "inputs": [
        {
          "internalType": "address",
          "name": "recipient",
          "type": "address"
        },
        {
          "internalType": "uint256",
          "name": "amount",
          "type": "uint256"
        },
        {
          "internalType": "uint96",
          "name": "nonce_",
          "type": "uint96"
        },
        {
          "internalType": "bytes32[]",
          "name": "proof",
          "type": "bytes32[]"
        }
      ],
      "name": "claimPayoutAndStake",
      "outputs": [],
      "stateMutability": "nonpayable",
      "type": "function"
    },
    {
      "inputs": [
        {
          "internalType": "bytes32",
          "name": "leaf",
          "type": "bytes32"
        }
      ],
      "name": "claimed",
      "outputs": [
        {
          "internalType": "bool",
          "name": "claimed",
          "type": "bool"
        }
      ],
      "stateMutability": "view",
      "type": "function"
    },
    {
      "inputs": [],
      "name": "fee",
      "outputs": [
        {
          "internalType": "uint96",
          "name": "",
          "type": "uint96"
        }
      ],
      "stateMutability": "view",
      "type": "function"
    },
    {
      "inputs": [],
      "name": "forwarderRegistry",
      "outputs": [
        {
          "internalType": "contract IForwarderRegistry",
          "name": "",
          "type": "address"
        }
      ],
      "stateMutability": "view",
      "type": "function"
    },
    {
      "inputs": [
        {
          "internalType": "address",
          "name": "forwarder",
          "type": "address"
        }
      ],
      "name": "isTrustedForwarder",
      "outputs": [
        {
          "internalType": "bool",
          "name": "",
          "type": "bool"
        }
      ],
      "stateMutability": "view",
      "type": "function"
    },
    {
      "inputs": [],
      "name": "nonce",
      "outputs": [
        {
          "internalType": "uint96",
          "name": "",
          "type": "uint96"
        }
      ],
      "stateMutability": "view",
      "type": "function"
    },
    {
      "inputs": [],
      "name": "owner",
      "outputs": [
        {
          "internalType": "address",
          "name": "",
          "type": "address"
        }
      ],
      "stateMutability": "view",
      "type": "function"
    },
    {
      "inputs": [],
      "name": "pause",
      "outputs": [],
      "stateMutability": "nonpayable",
      "type": "function"
    },
    {
      "inputs": [],
      "name": "paused",
      "outputs": [
        {
          "internalType": "bool",
          "name": "",
          "type": "bool"
        }
      ],
      "stateMutability": "view",
      "type": "function"
    },
    {
      "inputs": [],
      "name": "payoutWallet",
      "outputs": [
        {
          "internalType": "address",
          "name": "",
          "type": "address"
        }
      ],
      "stateMutability": "view",
      "type": "function"
    },
    {
      "inputs": [
        {
          "internalType": "uint96",
          "name": "nonce",
          "type": "uint96"
        }
      ],
      "name": "rootMap",
      "outputs": [
        {
          "internalType": "bytes32",
          "name": "root",
          "type": "bytes32"
        }
      ],
      "stateMutability": "view",
      "type": "function"
    },
    {
      "inputs": [
        {
          "internalType": "bytes32",
          "name": "merkleRoot",
          "type": "bytes32"
        }
      ],
      "name": "setMerkleRoot",
      "outputs": [],
      "stateMutability": "nonpayable",
      "type": "function"
    },
    {
      "inputs": [
        {
          "internalType": "address",
          "name": "newPayoutWallet",
          "type": "address"
        }
      ],
      "name": "setPayoutWallet",
      "outputs": [],
      "stateMutability": "nonpayable",
      "type": "function"
    },
    {
      "inputs": [
        {
          "internalType": "address",
          "name": "newTreasuryWallet",
          "type": "address"
        }
      ],
      "name": "setTreasuryWallet",
      "outputs": [],
      "stateMutability": "nonpayable",
      "type": "function"
    },
    {
      "inputs": [
        {
          "internalType": "bytes4",
          "name": "interfaceId",
          "type": "bytes4"
        }
      ],
      "name": "supportsInterface",
      "outputs": [
        {
          "internalType": "bool",
          "name": "",
          "type": "bool"
        }
      ],
      "stateMutability": "view",
      "type": "function"
    },
    {
      "inputs": [
        {
          "internalType": "address",
          "name": "newOwner",
          "type": "address"
        }
      ],
      "name": "transferOwnership",
      "outputs": [],
      "stateMutability": "nonpayable",
      "type": "function"
    },
    {
      "inputs": [],
      "name": "treasuryWallet",
      "outputs": [
        {
          "internalType": "address",
          "name": "",
          "type": "address"
        }
      ],
      "stateMutability": "view",
      "type": "function"
    },
    {
      "inputs": [],
      "name": "unpause",
      "outputs": [],
      "stateMutability": "nonpayable",
      "type": "function"
    }
  ],
  "bytecode": "0x60e060405234801561001057600080fd5b50604051611abe380380611abe83398101604081905261002f916102f9565b8080336100448161003e6101ad565b906101e1565b506001600160a01b039081166080528716905061008457604051635287368360e11b81526001600160a01b03871660048201526024015b60405180910390fd5b6001600160a01b0385166100b6576040516340ecbd2f60e11b81526001600160a01b038616600482015260240161007b565b6001600160a01b0384166100dd5760405163620e5f7160e11b815260040160405180910390fd5b6001600160a01b038316610104576040516314ad71c560e31b815260040160405180910390fd5b612710826001600160601b03161115610130576040516358d620b360e01b815260040160405180910390fd5b6001600160a01b03811661015757604051633545ba1f60e21b815260040160405180910390fd5b506001600160a01b0394851660a05292841660c052600280549285166c010000000000000000000000009081026001600160601b0394851617909155929091169216026001600160601b031916176003556103ad565b6000806101db60017fc9ed16f33ab3a66c84bfd83099ccb2a8845871e2e1c1928f63797152f0fd54cd61038c565b92915050565b6001600160a01b038116156102375781546001600160a01b0319166001600160a01b03821690811783556040516000907f8be0079c531659141344cd1fd0a4f28419497f9722a3daafe3b4186f6b6457e0908290a35b6102536307f5828d60e41b600161024c610257565b9190610285565b5050565b6000806101db60017fca9d3e17f264b0f3984e2634e94adb37fa3e6a8103f06aeae6fa59e21c769f5e61038c565b600160e01b6001600160e01b03198316016102b3576040516372c683bb60e01b815260040160405180910390fd5b6001600160e01b03199190911660009081526020929092526040909120805460ff1916911515919091179055565b6001600160a01b03811681146102f657600080fd5b50565b60008060008060008060c0878903121561031257600080fd5b865161031d816102e1565b602088015190965061032e816102e1565b604088015190955061033f816102e1565b6060880151909450610350816102e1565b60808801519093506001600160601b038116811461036d57600080fd5b60a088015190925061037e816102e1565b809150509295509295509295565b818103818111156101db57634e487b7160e01b600052601160045260246000fd5b60805160a05160c0516116b161040d600039600081816103d601526106280152600081816101fb015281816105fd015281816108c801526109ad0152600081816101b1015281816102670152818161113101526111bf01526116b16000f3fe608060405234801561001057600080fd5b50600436106101825760003560e01c80638488bb4e116100d8578063cc3c0f061161008c578063ddca3f4311610066578063ddca3f43146103f8578063e63a391f14610410578063f2fde38b1461041957600080fd5b8063cc3c0f061461039b578063d074eb97146103be578063da19ddfb146103d157600080fd5b8063a8602fea116100bd578063a8602fea14610325578063ac13165814610338578063affed0e01461036657600080fd5b80638488bb4e146102ed5780638da5cb5b1461031d57600080fd5b8063572b6c051161013a5780637cb64759116101145780637cb64759146102bf578063808756d6146102d25780638456cb59146102e557600080fd5b8063572b6c05146102575780635c975abb146102a45780636b8f9c43146102ac57600080fd5b80633a5af3391161016b5780633a5af339146101f65780633f4ba83a1461021d5780634626402b1461022757600080fd5b806301ffc9a7146101875780632b4c9f16146101af575b600080fd5b61019a61019536600461133e565b61042c565b60405190151581526020015b60405180910390f35b7f00000000000000000000000000000000000000000000000000000000000000005b60405173ffffffffffffffffffffffffffffffffffffffff90911681526020016101a6565b6101d17f000000000000000000000000000000000000000000000000000000000000000081565b610225610446565b005b6003546101d1906c01000000000000000000000000900473ffffffffffffffffffffffffffffffffffffffff1681565b61019a6102653660046113a9565b7f000000000000000000000000000000000000000000000000000000000000000073ffffffffffffffffffffffffffffffffffffffff90811691161490565b61019a610471565b6102256102ba3660046113a9565b61048a565b6102256102cd3660046113c4565b610502565b6102256102e03660046113f9565b6105b1565b610225610733565b6002546101d1906c01000000000000000000000000900473ffffffffffffffffffffffffffffffffffffffff1681565b6101d161074e565b6102256103333660046113a9565b610775565b610358610346366004611499565b60006020819052908152604090205481565b6040519081526020016101a6565b60025461037e906bffffffffffffffffffffffff1681565b6040516bffffffffffffffffffffffff90911681526020016101a6565b61019a6103a93660046113c4565b60016020526000908152604090205460ff1681565b6102256103cc3660046113f9565b6107ed565b6101d17f000000000000000000000000000000000000000000000000000000000000000081565b60035461037e906bffffffffffffffffffffffff1681565b61035861271081565b6102256104273660046113a9565b610a96565b60006104408261043a610ab4565b90610ae2565b92915050565b61045f610451610bbc565b610459610bc6565b90610bf4565b61046f61046a610c68565b610c96565b565b600061048561047e610c68565b5460ff1690565b905090565b610495610451610bbc565b600280546bffffffffffffffffffffffff166c0100000000000000000000000073ffffffffffffffffffffffffffffffffffffffff8416908102919091179091556040517fdd880d24a789958a6398c99c2e54ce31bc10a638cbc42f7dd34285479ae0f85590600090a250565b61050d610451610bbc565b600280546bffffffffffffffffffffffff90811660008181526020819052604081208590558354919392909161054391166114e3565b91906101000a8154816bffffffffffffffffffffffff02191690836bffffffffffffffffffffffff16021790555081816bffffffffffffffffffffffff167fb04b7d6145a7588fdcf339a22877d5965f861c171204fc37688058c5f6c06d3b60405160405180910390a35050565b60006105c08686868686610cf1565b6002546040805173ffffffffffffffffffffffffffffffffffffffff8a811660208301529394506c010000000000000000000000009092048316927f0000000000000000000000000000000000000000000000000000000000000000169163b88d4fde9184917f0000000000000000000000000000000000000000000000000000000000000000918b91016040516020818303038152906040526040518563ffffffff1660e01b81526004016106799493929190611518565b6020604051808303816000875af1158015610698573d6000803e3d6000fd5b505050506040513d601f19601f820116820180604052508101906106bc91906115c5565b506040805173ffffffffffffffffffffffffffffffffffffffff89811682526020820189905260008284015291519183169184916bffffffffffffffffffffffff8916917f4198e253c4ae311bc3d0c7aca40cb1a9827879ca09dc5f3a430127c736748f189181900360600190a450505050505050565b61073e610451610bbc565b61046f610749610c68565b610f7b565b600061048561075b610bc6565b5473ffffffffffffffffffffffffffffffffffffffff1690565b610780610451610bbc565b600380546bffffffffffffffffffffffff166c0100000000000000000000000073ffffffffffffffffffffffffffffffffffffffff8416908102919091179091556040517f5695f8b02f5f53d02b408db3ed952c16f32f9701ad2691c44733f2a2d09225a990600090a250565b60006107fc8686868686610cf1565b6002546003549192506c01000000000000000000000000900473ffffffffffffffffffffffffffffffffffffffff16906000906127109061084b906bffffffffffffffffffffffff16896115e7565b61085591906115fe565b905060006108638289611639565b6040517fb88d4fde00000000000000000000000000000000000000000000000000000000815273ffffffffffffffffffffffffffffffffffffffff85811660048301528b811660248301526044820183905260806064830152600060848301529192507f00000000000000000000000000000000000000000000000000000000000000009091169063b88d4fde9060a4016020604051808303816000875af1158015610913573d6000803e3d6000fd5b505050506040513d601f19601f8201168201806040525081019061093791906115c5565b506003546040517fb88d4fde00000000000000000000000000000000000000000000000000000000815273ffffffffffffffffffffffffffffffffffffffff85811660048301526c01000000000000000000000000909204821660248201526044810184905260806064820152600060848201527f00000000000000000000000000000000000000000000000000000000000000009091169063b88d4fde9060a4016020604051808303816000875af11580156109f8573d6000803e3d6000fd5b505050506040513d601f19601f82011682018060405250810190610a1c91906115c5565b506040805173ffffffffffffffffffffffffffffffffffffffff8b81168252602082018490529181018490529084169085906bffffffffffffffffffffffff8a16907f4198e253c4ae311bc3d0c7aca40cb1a9827879ca09dc5f3a430127c736748f189060600160405180910390a4505050505050505050565b610ab1610aa1610bbc565b82610aaa610bc6565b9190610fd9565b50565b60008061044060017fca9d3e17f264b0f3984e2634e94adb37fa3e6a8103f06aeae6fa59e21c769f5e611639565b60007c01000000000000000000000000000000000000000000000000000000007fffffffff00000000000000000000000000000000000000000000000000000000831601610b3257506000610440565b7ffe003659000000000000000000000000000000000000000000000000000000007fffffffff00000000000000000000000000000000000000000000000000000000831601610b8357506001610440565b507fffffffff00000000000000000000000000000000000000000000000000000000166000908152602091909152604090205460ff1690565b60006104856110ee565b60008061044060017fc9ed16f33ab3a66c84bfd83099ccb2a8845871e2e1c1928f63797152f0fd54cd611639565b815473ffffffffffffffffffffffffffffffffffffffff828116911614610c64576040517f2ef4875e00000000000000000000000000000000000000000000000000000000815273ffffffffffffffffffffffffffffffffffffffff821660048201526024015b60405180910390fd5b5050565b60008061044060017f0186a05f63b1553398ad5ea3233c0ce68b8c9eecc47717f123c5c2b42fbd6d9f611639565b610c9f8161123b565b80547fffffffffffffffffffffffffffffffffffffffffffffffffffffffffffffff001681556040517f7805862f689e2f13df9f062ff482ad3ad112aca9e0847911ed832e158c525b3390600090a150565b600084600003610d30576040517f27ab1ee200000000000000000000000000000000000000000000000000000000815260048101869052602401610c5b565b610d40610d3b610c68565b611276565b506bffffffffffffffffffffffff831660009081526020819052604081205490819003610da9576040517fab4a79390000000000000000000000000000000000000000000000000000000081526bffffffffffffffffffffffff85166004820152602401610c5b565b604051606087811b7fffffffffffffffffffffffffffffffffffffffff0000000000000000000000001660208301526034820187905260a086901b7fffffffffffffffffffffffff000000000000000000000000000000000000000016605483015260009101604080517fffffffffffffffffffffffffffffffffffffffffffffffffffffffffffffffe081840301815291905280516020909101209050610e53848484846112b2565b610ebc576040517f3c6ee01b00000000000000000000000000000000000000000000000000000000815273ffffffffffffffffffffffffffffffffffffffff88166004820152602481018790526bffffffffffffffffffffffff86166044820152606401610c5b565b60008181526001602052604090205460ff1615610f38576040517f6508823200000000000000000000000000000000000000000000000000000000815273ffffffffffffffffffffffffffffffffffffffff88166004820152602481018790526bffffffffffffffffffffffff86166044820152606401610c5b565b600090815260016020819052604090912080547fffffffffffffffffffffffffffffffffffffffffffffffffffffffffffffff0016909117905595945050505050565b610f8481611276565b80547fffffffffffffffffffffffffffffffffffffffffffffffffffffffffffffff001660011781556040517f6985a02210a168e66602d3235cb6db0e70f92b3ba4d376a33c0f3d9434bff62590600090a150565b825473ffffffffffffffffffffffffffffffffffffffff9081169083168114611046576040517f2ef4875e00000000000000000000000000000000000000000000000000000000815273ffffffffffffffffffffffffffffffffffffffff84166004820152602401610c5b565b8173ffffffffffffffffffffffffffffffffffffffff168173ffffffffffffffffffffffffffffffffffffffff16146110e85783547fffffffffffffffffffffffff00000000000000000000000000000000000000001673ffffffffffffffffffffffffffffffffffffffff8381169182178655604051908316907f8be0079c531659141344cd1fd0a4f28419497f9722a3daafe3b4186f6b6457e090600090a35b50505050565b6000333214806110fe5750601836105b1561110857503390565b7fffffffffffffffffffffffffffffffffffffffffffffffffffffffffffffffec36013560601c7f000000000000000000000000000000000000000000000000000000000000000073ffffffffffffffffffffffffffffffffffffffff1633148061122a57506040517f019a202800000000000000000000000000000000000000000000000000000000815273ffffffffffffffffffffffffffffffffffffffff82811660048301523360248301523060448301527f0000000000000000000000000000000000000000000000000000000000000000169063019a202890606401602060405180830381865afa158015611206573d6000803e3d6000fd5b505050506040513d601f19601f8201168201806040525081019061122a91906115c5565b1561123457919050565b3391505090565b805460ff16610ab1576040517f6cd6020100000000000000000000000000000000000000000000000000000000815260040160405180910390fd5b805460ff1615610ab1576040517f9e87fac800000000000000000000000000000000000000000000000000000000815260040160405180910390fd5b6000826112c08686856112ca565b1495945050505050565b600081815b84811015611303576112f9828787848181106112ed576112ed61164c565b9050602002013561130c565b91506001016112cf565b50949350505050565b6000818310611328576000828152602084905260409020611337565b60008381526020839052604090205b9392505050565b60006020828403121561135057600080fd5b81357fffffffff000000000000000000000000000000000000000000000000000000008116811461133757600080fd5b803573ffffffffffffffffffffffffffffffffffffffff811681146113a457600080fd5b919050565b6000602082840312156113bb57600080fd5b61133782611380565b6000602082840312156113d657600080fd5b5035919050565b80356bffffffffffffffffffffffff811681146113a457600080fd5b60008060008060006080868803121561141157600080fd5b61141a86611380565b94506020860135935061142f604087016113dd565b9250606086013567ffffffffffffffff81111561144b57600080fd5b8601601f8101881361145c57600080fd5b803567ffffffffffffffff81111561147357600080fd5b8860208260051b840101111561148857600080fd5b959894975092955050506020019190565b6000602082840312156114ab57600080fd5b611337826113dd565b7f4e487b7100000000000000000000000000000000000000000000000000000000600052601160045260246000fd5b60006bffffffffffffffffffffffff82166bffffffffffffffffffffffff810361150f5761150f6114b4565b60010192915050565b73ffffffffffffffffffffffffffffffffffffffff8516815273ffffffffffffffffffffffffffffffffffffffff84166020820152826040820152608060608201526000825180608084015260005b8181101561158457602081860181015160a0868401015201611567565b50600060a0828501015260a07fffffffffffffffffffffffffffffffffffffffffffffffffffffffffffffffe0601f83011684010191505095945050505050565b6000602082840312156115d757600080fd5b8151801515811461133757600080fd5b8082028115828204841417610440576104406114b4565b600082611634577f4e487b7100000000000000000000000000000000000000000000000000000000600052601260045260246000fd5b500490565b81810381811115610440576104406114b4565b7f4e487b7100000000000000000000000000000000000000000000000000000000600052603260045260246000fdfea264697066735822122035cf98e8be03b32301d1cb41aab47c64ca8334667887b0ce1488f120e3be985e64736f6c634300081c0033",
  "linkReferences": {},
  "deployedLinkReferences": {}
}