{
  "_format": "hh-sol-artifact-1",
  "contractName": "ERC20SafeTransfersAlwaysFailedMock",
  "sourceName": "contracts/mocks/ERC20/ERC20SafeTransfersAlwaysFailedMock.sol",
  "abi": [
    {
      "inputs": [
        {
          "internalType": "address",
          "name": "",
          "type": "address"
        },
        {
          "internalType": "uint256",
          "name": "",
          "type": "uint256"
        },
        {
          "internalType": "bytes",
          "name": "",
          "type": "bytes"
        }
      ],
      "name": "safeTransfer",
      "outputs": [
        {
          "internalType": "bool",
          "name": "",
          "type": "bool"
        }
      ],
      "stateMutability": "pure",
      "type": "function"
    },
    {
      "inputs": [
        {
          "internalType": "address",
          "name": "",
          "type": "address"
        },
        {
          "internalType": "address",
          "name": "",
          "type": "address"
        },
        {
          "internalType": "uint256",
          "name": "",
          "type": "uint256"
        },
        {
          "internalType": "bytes",
          "name": "",
          "type": "bytes"
        }
      ],
      "name": "safeTransferFrom",
      "outputs": [
        {
          "internalType": "bool",
          "name": "",
          "type": "bool"
        }
      ],
      "stateMutability": "pure",
      "type": "function"
    }
  ],
  "bytecode": "0x6080604052348015600f57600080fd5b506101f18061001f6000396000f3fe608060405234801561001057600080fd5b50600436106100365760003560e01c8063b88d4fde1461003b578063eb79554914610068575b600080fd5b6100546100493660046100f2565b600095945050505050565b604051901515815260200160405180910390f35b610054610076366004610161565b6000949350505050565b803573ffffffffffffffffffffffffffffffffffffffff811681146100a457600080fd5b919050565b60008083601f8401126100bb57600080fd5b50813567ffffffffffffffff8111156100d357600080fd5b6020830191508360208285010111156100eb57600080fd5b9250929050565b60008060008060006080868803121561010a57600080fd5b61011386610080565b945061012160208701610080565b935060408601359250606086013567ffffffffffffffff81111561014457600080fd5b610150888289016100a9565b969995985093965092949392505050565b6000806000806060858703121561017757600080fd5b61018085610080565b935060208501359250604085013567ffffffffffffffff8111156101a357600080fd5b6101af878288016100a9565b9598949750955050505056fea2646970667358221220f1e161e2a8589b806d287fbf2418f27e5d190acb745e1f56c3d42e858e17506964736f6c634300081c0033",
  "linkReferences": {},
  "deployedLinkReferences": {}
}