{
  "_format": "hh-sol-artifact-1",
  "contractName": "OrbsBurnPoolMock",
  "sourceName": "contracts/mocks/burn/OrbsBurnPoolMock.sol",
  "abi": [
    {
      "inputs": [
        {
          "internalType": "uint256",
          "name": "initialTime",
          "type": "uint256"
        },
        {
          "internalType": "uint256",
          "name": "cycleDuration",
          "type": "uint256"
        },
        {
          "internalType": "uint256",
          "name": "maxCycle",
          "type": "uint256"
        },
        {
          "internalType": "bytes32",
          "name": "merkleRoot",
          "type": "bytes32"
        },
        {
          "internalType": "contract IERC1155Burnable",
          "name": "orbOfPower",
          "type": "address"
        },
        {
          "internalType": "contract IERC1155Burnable",
          "name": "missingOrb",
          "type": "address"
        },
        {
          "internalType": "contract IForwarderRegistry",
          "name": "forwarderRegistry",
          "type": "address"
        }
      ],
      "stateMutability": "nonpayable",
      "type": "constructor"
    },
    {
      "inputs": [
        {
          "internalType": "address",
          "name": "wallet",
          "type": "address"
        }
      ],
      "name": "AlreadySetROCMultiplier",
      "type": "error"
    },
    {
      "inputs": [],
      "name": "IllegalInterfaceId",
      "type": "error"
    },
    {
      "inputs": [
        {
          "internalType": "uint256",
          "name": "cycle",
          "type": "uint256"
        }
      ],
      "name": "InvalidCycle",
      "type": "error"
    },
    {
      "inputs": [
        {
          "internalType": "address",
          "name": "recipient",
          "type": "address"
        },
        {
          "internalType": "uint256",
          "name": "puzzleGameMultiplierNumerator",
          "type": "uint256"
        }
      ],
      "name": "InvalidProof",
      "type": "error"
    },
    {
      "inputs": [
        {
          "internalType": "address",
          "name": "token",
          "type": "address"
        }
      ],
      "name": "InvalidTokenAddress",
      "type": "error"
    },
    {
      "inputs": [
        {
          "internalType": "address",
          "name": "token",
          "type": "address"
        },
        {
          "internalType": "uint256",
          "name": "tokenId",
          "type": "uint256"
        }
      ],
      "name": "InvalidTokenId",
      "type": "error"
    },
    {
      "inputs": [
        {
          "internalType": "address",
          "name": "token",
          "type": "address"
        },
        {
          "internalType": "uint256",
          "name": "tokenId",
          "type": "uint256"
        },
        {
          "internalType": "uint256",
          "name": "value",
          "type": "uint256"
        }
      ],
      "name": "InvalidTokenValue",
      "type": "error"
    },
    {
      "inputs": [],
      "name": "ZeroCycleDuration",
      "type": "error"
    },
    {
      "inputs": [],
      "name": "ZeroMaxCycle",
      "type": "error"
    },
    {
      "anonymous": false,
      "inputs": [
        {
          "indexed": true,
          "internalType": "address",
          "name": "burner",
          "type": "address"
        },
        {
          "indexed": true,
          "internalType": "uint256",
          "name": "cycle",
          "type": "uint256"
        },
        {
          "indexed": false,
          "internalType": "uint256[]",
          "name": "ids",
          "type": "uint256[]"
        },
        {
          "indexed": false,
          "internalType": "uint256[]",
          "name": "values",
          "type": "uint256[]"
        },
        {
          "indexed": false,
          "internalType": "uint256",
          "name": "ash",
          "type": "uint256"
        },
        {
          "indexed": false,
          "internalType": "uint256",
          "name": "totalAsh",
          "type": "uint256"
        },
        {
          "indexed": false,
          "internalType": "uint256",
          "name": "orbMultiplier",
          "type": "uint256"
        }
      ],
      "name": "GenerateAsh",
      "type": "event"
    },
    {
      "anonymous": false,
      "inputs": [
        {
          "indexed": true,
          "internalType": "address",
          "name": "recipient",
          "type": "address"
        },
        {
          "indexed": false,
          "internalType": "uint256",
          "name": "curOrbMultiplier",
          "type": "uint256"
        },
        {
          "indexed": false,
          "internalType": "uint256",
          "name": "updatedOrbMultiplier",
          "type": "uint256"
        }
      ],
      "name": "UpdateOrbMultiplier",
      "type": "event"
    },
    {
      "inputs": [],
      "name": "BURN_WEIGHT_TOKEN_1",
      "outputs": [
        {
          "internalType": "uint256",
          "name": "",
          "type": "uint256"
        }
      ],
      "stateMutability": "view",
      "type": "function"
    },
    {
      "inputs": [],
      "name": "BURN_WEIGHT_TOKEN_2",
      "outputs": [
        {
          "internalType": "uint256",
          "name": "",
          "type": "uint256"
        }
      ],
      "stateMutability": "view",
      "type": "function"
    },
    {
      "inputs": [],
      "name": "BURN_WEIGHT_TOKEN_3",
      "outputs": [
        {
          "internalType": "uint256",
          "name": "",
          "type": "uint256"
        }
      ],
      "stateMutability": "view",
      "type": "function"
    },
    {
      "inputs": [],
      "name": "BURN_WEIGHT_TOKEN_4",
      "outputs": [
        {
          "internalType": "uint256",
          "name": "",
          "type": "uint256"
        }
      ],
      "stateMutability": "view",
      "type": "function"
    },
    {
      "inputs": [],
      "name": "BURN_WEIGHT_TOKEN_5",
      "outputs": [
        {
          "internalType": "uint256",
          "name": "",
          "type": "uint256"
        }
      ],
      "stateMutability": "view",
      "type": "function"
    },
    {
      "inputs": [],
      "name": "BURN_WEIGHT_TOKEN_6",
      "outputs": [
        {
          "internalType": "uint256",
          "name": "",
          "type": "uint256"
        }
      ],
      "stateMutability": "view",
      "type": "function"
    },
    {
      "inputs": [],
      "name": "BURN_WEIGHT_TOKEN_7",
      "outputs": [
        {
          "internalType": "uint256",
          "name": "",
          "type": "uint256"
        }
      ],
      "stateMutability": "view",
      "type": "function"
    },
    {
      "inputs": [],
      "name": "CYCLE_DURATION",
      "outputs": [
        {
          "internalType": "uint256",
          "name": "",
          "type": "uint256"
        }
      ],
      "stateMutability": "view",
      "type": "function"
    },
    {
      "inputs": [],
      "name": "INITIAL_TIME",
      "outputs": [
        {
          "internalType": "uint256",
          "name": "",
          "type": "uint256"
        }
      ],
      "stateMutability": "view",
      "type": "function"
    },
    {
      "inputs": [],
      "name": "MAX_CYCLE",
      "outputs": [
        {
          "internalType": "uint256",
          "name": "",
          "type": "uint256"
        }
      ],
      "stateMutability": "view",
      "type": "function"
    },
    {
      "inputs": [],
      "name": "MERKLE_ROOT",
      "outputs": [
        {
          "internalType": "bytes32",
          "name": "",
          "type": "bytes32"
        }
      ],
      "stateMutability": "view",
      "type": "function"
    },
    {
      "inputs": [],
      "name": "MISSING_ORB",
      "outputs": [
        {
          "internalType": "contract IERC1155Burnable",
          "name": "",
          "type": "address"
        }
      ],
      "stateMutability": "view",
      "type": "function"
    },
    {
      "inputs": [],
      "name": "MISSING_ORB_TOKEN_ID",
      "outputs": [
        {
          "internalType": "uint256",
          "name": "",
          "type": "uint256"
        }
      ],
      "stateMutability": "view",
      "type": "function"
    },
    {
      "inputs": [],
      "name": "ORB_OF_POWER",
      "outputs": [
        {
          "internalType": "contract IERC1155Burnable",
          "name": "",
          "type": "address"
        }
      ],
      "stateMutability": "view",
      "type": "function"
    },
    {
      "inputs": [],
      "name": "ROC_MULTIPLIER",
      "outputs": [
        {
          "internalType": "uint256",
          "name": "",
          "type": "uint256"
        }
      ],
      "stateMutability": "view",
      "type": "function"
    },
    {
      "inputs": [],
      "name": "__msgData",
      "outputs": [
        {
          "internalType": "bytes",
          "name": "",
          "type": "bytes"
        }
      ],
      "stateMutability": "view",
      "type": "function"
    },
    {
      "inputs": [],
      "name": "__msgSender",
      "outputs": [
        {
          "internalType": "address",
          "name": "",
          "type": "address"
        }
      ],
      "stateMutability": "view",
      "type": "function"
    },
    {
      "inputs": [],
      "name": "currentCycle",
      "outputs": [
        {
          "internalType": "uint256",
          "name": "",
          "type": "uint256"
        }
      ],
      "stateMutability": "view",
      "type": "function"
    },
    {
      "inputs": [],
      "name": "forwarderRegistry",
      "outputs": [
        {
          "internalType": "contract IForwarderRegistry",
          "name": "",
          "type": "address"
        }
      ],
      "stateMutability": "view",
      "type": "function"
    },
    {
      "inputs": [
        {
          "internalType": "address",
          "name": "forwarder",
          "type": "address"
        }
      ],
      "name": "isTrustedForwarder",
      "outputs": [
        {
          "internalType": "bool",
          "name": "",
          "type": "bool"
        }
      ],
      "stateMutability": "view",
      "type": "function"
    },
    {
      "inputs": [
        {
          "internalType": "address",
          "name": "",
          "type": "address"
        },
        {
          "internalType": "address",
          "name": "from",
          "type": "address"
        },
        {
          "internalType": "uint256[]",
          "name": "ids",
          "type": "uint256[]"
        },
        {
          "internalType": "uint256[]",
          "name": "values",
          "type": "uint256[]"
        },
        {
          "internalType": "bytes",
          "name": "data",
          "type": "bytes"
        }
      ],
      "name": "onERC1155BatchReceived",
      "outputs": [
        {
          "internalType": "bytes4",
          "name": "",
          "type": "bytes4"
        }
      ],
      "stateMutability": "nonpayable",
      "type": "function"
    },
    {
      "inputs": [
        {
          "internalType": "address",
          "name": "",
          "type": "address"
        },
        {
          "internalType": "address",
          "name": "from",
          "type": "address"
        },
        {
          "internalType": "uint256",
          "name": "id",
          "type": "uint256"
        },
        {
          "internalType": "uint256",
          "name": "value",
          "type": "uint256"
        },
        {
          "internalType": "bytes",
          "name": "data",
          "type": "bytes"
        }
      ],
      "name": "onERC1155Received",
      "outputs": [
        {
          "internalType": "bytes4",
          "name": "",
          "type": "bytes4"
        }
      ],
      "stateMutability": "nonpayable",
      "type": "function"
    },
    {
      "inputs": [
        {
          "internalType": "address",
          "name": "",
          "type": "address"
        }
      ],
      "name": "orbMultipliers",
      "outputs": [
        {
          "internalType": "uint256",
          "name": "",
          "type": "uint256"
        }
      ],
      "stateMutability": "view",
      "type": "function"
    },
    {
      "inputs": [
        {
          "internalType": "bytes4",
          "name": "interfaceId",
          "type": "bytes4"
        }
      ],
      "name": "supportsInterface",
      "outputs": [
        {
          "internalType": "bool",
          "name": "",
          "type": "bool"
        }
      ],
      "stateMutability": "view",
      "type": "function"
    },
    {
      "inputs": [
        {
          "internalType": "uint256",
          "name": "",
          "type": "uint256"
        }
      ],
      "name": "totalAshPerCycle",
      "outputs": [
        {
          "internalType": "uint256",
          "name": "",
          "type": "uint256"
        }
      ],
      "stateMutability": "view",
      "type": "function"
    },
    {
      "inputs": [
        {
          "internalType": "uint256",
          "name": "",
          "type": "uint256"
        },
        {
          "internalType": "address",
          "name": "",
          "type": "address"
        }
      ],
      "name": "userAshPerCycle",
      "outputs": [
        {
          "internalType": "uint256",
          "name": "",
          "type": "uint256"
        }
      ],
      "stateMutability": "view",
      "type": "function"
    }
  ],
  "bytecode": "0x6101606040523480156200001257600080fd5b5060405162001e4e38038062001e4e833981016040819052620000359162000197565b6001600160a01b0381166080528686868686868662000069630271189760e51b600162000061620000eb565b919062000121565b60e08790526000869003620000915760405163b870efbd60e01b815260040160405180910390fd5b6101008690526000859003620000ba57604051637e5e559b60e11b815260040160405180910390fd5b5061012093909352610140919091526001600160a01b0390811660a0521660c0525062000234975050505050505050565b6000806200011b60017fca9d3e17f264b0f3984e2634e94adb37fa3e6a8103f06aeae6fa59e21c769f5e62000212565b92915050565b600160e01b6001600160e01b031983160162000150576040516372c683bb60e01b815260040160405180910390fd5b6001600160e01b03199190911660009081526020929092526040909120805460ff1916911515919091179055565b6001600160a01b03811681146200019457600080fd5b50565b600080600080600080600060e0888a031215620001b357600080fd5b875196506020880151955060408801519450606088015193506080880151620001dc816200017e565b60a0890151909350620001ef816200017e565b60c089015190925062000202816200017e565b8091505092959891949750929550565b818103818111156200011b57634e487b7160e01b600052601160045260246000fd5b60805160a05160c05160e051610100516101205161014051611b5d620002f16000396000818161032f01528181610a0d0152610f9b0152600081816101f60152818161059a0152610d9c01526000818161044601526104bc0152600081816102dd01526104e001526000818161041f0152610ca80152600081816102450152818161052e01526108b301526000818161028e015281816103690152818161121a01528181611258015281816113d3015261145b0152611b5d6000f3fe608060405234801561001057600080fd5b50600436106101ae5760003560e01c806351e75e8b116100ee578063bc197c8111610097578063cd421fbf11610071578063cd421fbf14610441578063d1a91ff214610468578063f23a6e6114610470578063f95d10161461048357600080fd5b8063bc197c81146103ce578063c131754e14610412578063cd18a34f1461041a57600080fd5b8063aa918fd5116100c8578063aa918fd5146102d0578063ab504e73146103a6578063bab2f552146103c657600080fd5b806351e75e8b1461032a57806355f5b0a814610351578063572b6c051461035957600080fd5b806328a979cf1161015b5780633838a201116101355780633838a201146102c8578063424ab4f7146102d0578063491bde66146102d85780634dac1c2b146102ff57600080fd5b806328a979cf146102405780632b4c9f161461028c57806331e66e1e146102b257600080fd5b80630455645a1161018c5780630455645a1461021857806312828b7f146102205780631de0e40b146101db57600080fd5b806301ffc9a7146101b35780630277640e146101db578063043063bc146101f1575b600080fd5b6101c66101c136600461153a565b61048b565b60405190151581526020015b60405180910390f35b6101e3600181565b6040519081526020016101d2565b6101e37f000000000000000000000000000000000000000000000000000000000000000081565b6101e3600581565b6101e361022e3660046115a5565b60026020526000908152604090205481565b6102677f000000000000000000000000000000000000000000000000000000000000000081565b60405173ffffffffffffffffffffffffffffffffffffffff90911681526020016101d2565b7f0000000000000000000000000000000000000000000000000000000000000000610267565b6102ba6104a5565b6040516101d29291906115c0565b6101e3601981565b6101e3600381565b6101e37f000000000000000000000000000000000000000000000000000000000000000081565b6101e361030d36600461160d565b600160209081526000928352604080842090915290825290205481565b6101e37f000000000000000000000000000000000000000000000000000000000000000081565b6101e3600281565b6101c66103673660046115a5565b7f000000000000000000000000000000000000000000000000000000000000000073ffffffffffffffffffffffffffffffffffffffff90811691161490565b6101e36103b4366004611639565b60006020819052908152604090205481565b6101e36104b8565b6103e16103dc3660046116e0565b610514565b6040517fffffffff0000000000000000000000000000000000000000000000000000000090911681526020016101d2565b6101e3601081565b6102677f000000000000000000000000000000000000000000000000000000000000000081565b6101e37f000000000000000000000000000000000000000000000000000000000000000081565b610267610c84565b6103e161047e36600461179b565b610c8e565b6101e3600981565b600061049f826104996110b0565b906110de565b92915050565b3660006104b06111b8565b915091509091565b60007f00000000000000000000000000000000000000000000000000000000000000006105057f000000000000000000000000000000000000000000000000000000000000000042611842565b61050f9190611855565b905090565b60003373ffffffffffffffffffffffffffffffffffffffff7f0000000000000000000000000000000000000000000000000000000000000000161461058c576040517f733068030000000000000000000000000000000000000000000000000000000081523360048201526024015b60405180910390fd5b60006105966104b8565b90507f00000000000000000000000000000000000000000000000000000000000000008111156105f5576040517f764e560f00000000000000000000000000000000000000000000000000000000815260048101829052602401610583565b6040517f8053493400000000000000000000000000000000000000000000000000000000815233906380534934906106399030908c908c908c908c906004016118db565b600060405180830381600087803b15801561065357600080fd5b505af1158015610667573d6000803e3d6000fd5b505050506000805b88811015610945578787828181106106895761068961192a565b9050602002013560000361072357338a8a838181106106aa576106aa61192a565b905060200201358989848181106106c3576106c361192a565b6040517fe1f366e900000000000000000000000000000000000000000000000000000000815273ffffffffffffffffffffffffffffffffffffffff9095166004860152602485019390935250602090910201356044820152606401610583565b8989828181106107355761073561192a565b905060200201356001036107795760018888838181106107575761075761192a565b905060200201356107689190611959565b6107729083611970565b915061093d565b89898281811061078b5761078b61192a565b905060200201356002036107ad5760038888838181106107575761075761192a565b8989828181106107bf576107bf61192a565b905060200201356003036107e15760038888838181106107575761075761192a565b8989828181106107f3576107f361192a565b905060200201356004036108155760058888838181106107575761075761192a565b8989828181106108275761082761192a565b905060200201356005036108495760098888838181106107575761075761192a565b89898281811061085b5761085b61192a565b9050602002013560060361087d5760198888838181106107575761075761192a565b89898281811061088f5761088f61192a565b905060200201356007036108b15760108888838181106107575761075761192a565b7f00000000000000000000000000000000000000000000000000000000000000008a8a838181106108e4576108e461192a565b6040517f1912ea5100000000000000000000000000000000000000000000000000000000815273ffffffffffffffffffffffffffffffffffffffff90941660048501526020029190910135602483015250604401610583565b60010161066f565b5073ffffffffffffffffffffffffffffffffffffffff8a166000908152600260205260409020548a908515610b1657600080610983888a018a6119b2565b91509150608083901c600003610af6576040517fffffffffffffffffffffffffffffffffffffffff000000000000000000000000606086901b16602082015260348101829052600090605401604080517fffffffffffffffffffffffffffffffffffffffffffffffffffffffffffffffe081840301815291905280516020909101209050610a32837f0000000000000000000000000000000000000000000000000000000000000000836111c3565b610a87576040517fadbd651200000000000000000000000000000000000000000000000000000000815273ffffffffffffffffffffffffffffffffffffffff8616600482015260248101839052604401610583565b73ffffffffffffffffffffffffffffffffffffffff8516600081815260026020908152604091829020608086901b881790819055825188815291820181905292917f528dfe447bc8e2a31cbcf22a36526a2fcc9ac2b2fc9a850ddaf575bb2aab3433910160405180910390a250505b612710610b038287611959565b610b0d9190611855565b94505050610b3d565b608081901c8015610b3b57612710610b2e8286611959565b610b389190611855565b93505b505b6fffffffffffffffffffffffffffffffff81168015610b6357610b608185611959565b93505b600085815260016020908152604080832073ffffffffffffffffffffffffffffffffffffffff87168452909152812054610b9e908690611970565b600087815260016020908152604080832073ffffffffffffffffffffffffffffffffffffffff89168452825280832084905589835290829052812080549293508792909190610bee908490611970565b92505081905550858473ffffffffffffffffffffffffffffffffffffffff167f6e46cd5a8f4134e080f5038ee4632b01a585b6052863e4a1f0d5c57b1a35645b8f8f8f8f8b888b604051610c489796959493929190611a94565b60405180910390a3507fbc197c81000000000000000000000000000000000000000000000000000000009e9d5050505050505050505050505050565b600061050f6111d9565b60003373ffffffffffffffffffffffffffffffffffffffff7f00000000000000000000000000000000000000000000000000000000000000001614610d01576040517f73306803000000000000000000000000000000000000000000000000000000008152336004820152602401610583565b60018514610d44576040517f1912ea5100000000000000000000000000000000000000000000000000000000815233600482015260248101869052604401610583565b83600114610d8e576040517fe1f366e90000000000000000000000000000000000000000000000000000000081523360048201526024810186905260448101859052606401610583565b6000610d986104b8565b90507f0000000000000000000000000000000000000000000000000000000000000000811115610df7576040517f764e560f00000000000000000000000000000000000000000000000000000000815260048101829052602401610583565b73ffffffffffffffffffffffffffffffffffffffff87166000908152600260205260409020546fffffffffffffffffffffffffffffffff811615610e7f576040517f383b549300000000000000000000000000000000000000000000000000000000815273ffffffffffffffffffffffffffffffffffffffff89166004820152602401610583565b6040517f124d91e50000000000000000000000000000000000000000000000000000000081523060048201526024810188905260448101879052339063124d91e590606401600060405180830381600087803b158015610ede57600080fd5b505af1158015610ef2573d6000803e3d6000fd5b505050600282179050841561101f57608082901c60000361101f57600080610f1c878901896119b2565b6040517fffffffffffffffffffffffffffffffffffffffff00000000000000000000000060608f901b166020820152603481018290529193509150600090605401604080517fffffffffffffffffffffffffffffffffffffffffffffffffffffffffffffffe081840301815291905280516020909101209050610fc0837f0000000000000000000000000000000000000000000000000000000000000000836111c3565b611015576040517fadbd651200000000000000000000000000000000000000000000000000000000815273ffffffffffffffffffffffffffffffffffffffff8d16600482015260248101839052604401610583565b5060801b90911790505b73ffffffffffffffffffffffffffffffffffffffff891660008181526002602090815260409182902084905581518581529081018490527f528dfe447bc8e2a31cbcf22a36526a2fcc9ac2b2fc9a850ddaf575bb2aab3433910160405180910390a2507ff23a6e61000000000000000000000000000000000000000000000000000000009998505050505050505050565b60008061049f60017fca9d3e17f264b0f3984e2634e94adb37fa3e6a8103f06aeae6fa59e21c769f5e611842565b60007c01000000000000000000000000000000000000000000000000000000007fffffffff0000000000000000000000000000000000000000000000000000000083160161112e5750600061049f565b7ffe003659000000000000000000000000000000000000000000000000000000007fffffffff0000000000000000000000000000000000000000000000000000000083160161117f5750600161049f565b507fffffffff00000000000000000000000000000000000000000000000000000000166000908152602091909152604090205460ff1690565b3660006104b06111e3565b6000826111d0858461134d565b14949350505050565b600061050f611390565b366000333214806111f45750601836105b156112025750600091369150565b3373ffffffffffffffffffffffffffffffffffffffff7f0000000000000000000000000000000000000000000000000000000000000000161480611337575073ffffffffffffffffffffffffffffffffffffffff7f000000000000000000000000000000000000000000000000000000000000000016638929a8ca367fffffffffffffffffffffffffffffffffffffffffffffffffffffffffffffffec013560601c6040517fffffffff0000000000000000000000000000000000000000000000000000000060e084901b16815273ffffffffffffffffffffffffffffffffffffffff9091166004820152336024820152604401602060405180830381865afa158015611313573d6000803e3d6000fd5b505050506040513d601f19601f820116820180604052508101906113379190611adb565b15611344576104b06114d7565b50600091369150565b600081815b84518110156113885761137e828683815181106113715761137161192a565b6020026020010151611508565b9150600101611352565b509392505050565b6000333214806113a05750601836105b156113aa57503390565b7fffffffffffffffffffffffffffffffffffffffffffffffffffffffffffffffec36013560601c7f000000000000000000000000000000000000000000000000000000000000000073ffffffffffffffffffffffffffffffffffffffff163314806114c657506040517f8929a8ca00000000000000000000000000000000000000000000000000000000815273ffffffffffffffffffffffffffffffffffffffff82811660048301523360248301527f00000000000000000000000000000000000000000000000000000000000000001690638929a8ca90604401602060405180830381865afa1580156114a2573d6000803e3d6000fd5b505050506040513d601f19601f820116820180604052508101906114c69190611adb565b156114d057919050565b3391505090565b3660006104b07fffffffffffffffffffffffffffffffffffffffffffffffffffffffffffffffec8301828481611afd565b6000818310611524576000828152602084905260409020611533565b60008381526020839052604090205b9392505050565b60006020828403121561154c57600080fd5b81357fffffffff000000000000000000000000000000000000000000000000000000008116811461153357600080fd5b803573ffffffffffffffffffffffffffffffffffffffff811681146115a057600080fd5b919050565b6000602082840312156115b757600080fd5b6115338261157c565b60208152816020820152818360408301376000818301604090810191909152601f9092017fffffffffffffffffffffffffffffffffffffffffffffffffffffffffffffffe0160101919050565b6000806040838503121561162057600080fd5b823591506116306020840161157c565b90509250929050565b60006020828403121561164b57600080fd5b5035919050565b60008083601f84011261166457600080fd5b50813567ffffffffffffffff81111561167c57600080fd5b6020830191508360208260051b850101111561169757600080fd5b9250929050565b60008083601f8401126116b057600080fd5b50813567ffffffffffffffff8111156116c857600080fd5b60208301915083602082850101111561169757600080fd5b60008060008060008060008060a0898b0312156116fc57600080fd5b6117058961157c565b975061171360208a0161157c565b9650604089013567ffffffffffffffff8082111561173057600080fd5b61173c8c838d01611652565b909850965060608b013591508082111561175557600080fd5b6117618c838d01611652565b909650945060808b013591508082111561177a57600080fd5b506117878b828c0161169e565b999c989b5096995094979396929594505050565b60008060008060008060a087890312156117b457600080fd5b6117bd8761157c565b95506117cb6020880161157c565b94506040870135935060608701359250608087013567ffffffffffffffff8111156117f557600080fd5b61180189828a0161169e565b979a9699509497509295939492505050565b7f4e487b7100000000000000000000000000000000000000000000000000000000600052601160045260246000fd5b8181038181111561049f5761049f611813565b60008261188b577f4e487b7100000000000000000000000000000000000000000000000000000000600052601260045260246000fd5b500490565b81835260007f07ffffffffffffffffffffffffffffffffffffffffffffffffffffffffffffff8311156118c257600080fd5b8260051b80836020870137939093016020019392505050565b73ffffffffffffffffffffffffffffffffffffffff8616815260606020820152600061190b606083018688611890565b828103604084015261191e818587611890565b98975050505050505050565b7f4e487b7100000000000000000000000000000000000000000000000000000000600052603260045260246000fd5b808202811582820484141761049f5761049f611813565b8082018082111561049f5761049f611813565b7f4e487b7100000000000000000000000000000000000000000000000000000000600052604160045260246000fd5b600080604083850312156119c557600080fd5b823567ffffffffffffffff808211156119dd57600080fd5b818501915085601f8301126119f157600080fd5b8135602082821115611a0557611a05611983565b8160051b6040517fffffffffffffffffffffffffffffffffffffffffffffffffffffffffffffffe0603f83011681018181108682111715611a4857611a48611983565b604052928352818301935084810182019289841115611a6657600080fd5b948201945b83861015611a8457853585529482019493820193611a6b565b9997909101359750505050505050565b60a081526000611aa860a08301898b611890565b8281036020840152611abb81888a611890565b604084019690965250506060810192909252608090910152949350505050565b600060208284031215611aed57600080fd5b8151801515811461153357600080fd5b60008085851115611b0d57600080fd5b83861115611b1a57600080fd5b505082019391909203915056fea26469706673582212207abcd35841b12b3ec6fd9cdae9c96deb238ea95f866b524f7cd345eceb2f235064736f6c63430008160033",
  "linkReferences": {},
  "deployedLinkReferences": {}
}