{
  "_format": "hh-sol-artifact-1",
  "contractName": "ORBNFT",
  "sourceName": "contracts/token/ERC1155/ORBNFT.sol",
  "abi": [
    {
      "inputs": [
        {
          "internalType": "contract IOperatorFilterRegistry",
          "name": "filterRegistry",
          "type": "address"
        },
        {
          "internalType": "string",
          "name": "name_",
          "type": "string"
        },
        {
          "internalType": "string",
          "name": "symbol_",
          "type": "string"
        }
      ],
      "stateMutability": "nonpayable",
      "type": "constructor"
    },
    {
      "inputs": [
        {
          "internalType": "uint256",
          "name": "percentage",
          "type": "uint256"
        }
      ],
      "name": "IncorrectRoyaltyPercentage",
      "type": "error"
    },
    {
      "inputs": [],
      "name": "IncorrectRoyaltyReceiver",
      "type": "error"
    },
    {
      "inputs": [
        {
          "internalType": "address",
          "name": "operator",
          "type": "address"
        }
      ],
      "name": "OperatorNotAllowed",
      "type": "error"
    },
    {
      "anonymous": false,
      "inputs": [
        {
          "indexed": true,
          "internalType": "address",
          "name": "owner",
          "type": "address"
        },
        {
          "indexed": true,
          "internalType": "address",
          "name": "operator",
          "type": "address"
        },
        {
          "indexed": false,
          "internalType": "bool",
          "name": "approved",
          "type": "bool"
        }
      ],
      "name": "ApprovalForAll",
      "type": "event"
    },
    {
      "anonymous": false,
      "inputs": [
        {
          "indexed": false,
          "internalType": "string",
          "name": "baseMetadataURI",
          "type": "string"
        }
      ],
      "name": "BaseMetadataURISet",
      "type": "event"
    },
    {
      "anonymous": false,
      "inputs": [
        {
          "indexed": true,
          "internalType": "address",
          "name": "previousOwner",
          "type": "address"
        },
        {
          "indexed": true,
          "internalType": "address",
          "name": "newOwner",
          "type": "address"
        }
      ],
      "name": "OwnershipTransferred",
      "type": "event"
    },
    {
      "anonymous": false,
      "inputs": [
        {
          "indexed": false,
          "internalType": "bytes32",
          "name": "role",
          "type": "bytes32"
        },
        {
          "indexed": false,
          "internalType": "address",
          "name": "account",
          "type": "address"
        },
        {
          "indexed": false,
          "internalType": "address",
          "name": "operator",
          "type": "address"
        }
      ],
      "name": "RoleGranted",
      "type": "event"
    },
    {
      "anonymous": false,
      "inputs": [
        {
          "indexed": false,
          "internalType": "bytes32",
          "name": "role",
          "type": "bytes32"
        },
        {
          "indexed": false,
          "internalType": "address",
          "name": "account",
          "type": "address"
        },
        {
          "indexed": false,
          "internalType": "address",
          "name": "operator",
          "type": "address"
        }
      ],
      "name": "RoleRevoked",
      "type": "event"
    },
    {
      "anonymous": false,
      "inputs": [
        {
          "indexed": true,
          "internalType": "address",
          "name": "operator",
          "type": "address"
        },
        {
          "indexed": true,
          "internalType": "address",
          "name": "from",
          "type": "address"
        },
        {
          "indexed": true,
          "internalType": "address",
          "name": "to",
          "type": "address"
        },
        {
          "indexed": false,
          "internalType": "uint256[]",
          "name": "ids",
          "type": "uint256[]"
        },
        {
          "indexed": false,
          "internalType": "uint256[]",
          "name": "values",
          "type": "uint256[]"
        }
      ],
      "name": "TransferBatch",
      "type": "event"
    },
    {
      "anonymous": false,
      "inputs": [
        {
          "indexed": true,
          "internalType": "address",
          "name": "operator",
          "type": "address"
        },
        {
          "indexed": true,
          "internalType": "address",
          "name": "from",
          "type": "address"
        },
        {
          "indexed": true,
          "internalType": "address",
          "name": "to",
          "type": "address"
        },
        {
          "indexed": false,
          "internalType": "uint256",
          "name": "id",
          "type": "uint256"
        },
        {
          "indexed": false,
          "internalType": "uint256",
          "name": "value",
          "type": "uint256"
        }
      ],
      "name": "TransferSingle",
      "type": "event"
    },
    {
      "anonymous": false,
      "inputs": [
        {
          "indexed": false,
          "internalType": "string",
          "name": "value",
          "type": "string"
        },
        {
          "indexed": true,
          "internalType": "uint256",
          "name": "id",
          "type": "uint256"
        }
      ],
      "name": "URI",
      "type": "event"
    },
    {
      "inputs": [],
      "name": "MINTER_ROLE",
      "outputs": [
        {
          "internalType": "bytes32",
          "name": "",
          "type": "bytes32"
        }
      ],
      "stateMutability": "view",
      "type": "function"
    },
    {
      "inputs": [],
      "name": "ROYALTY_FEE_DENOMINATOR",
      "outputs": [
        {
          "internalType": "uint256",
          "name": "",
          "type": "uint256"
        }
      ],
      "stateMutability": "view",
      "type": "function"
    },
    {
      "inputs": [
        {
          "internalType": "address",
          "name": "owner",
          "type": "address"
        },
        {
          "internalType": "uint256",
          "name": "id",
          "type": "uint256"
        }
      ],
      "name": "balanceOf",
      "outputs": [
        {
          "internalType": "uint256",
          "name": "balance",
          "type": "uint256"
        }
      ],
      "stateMutability": "view",
      "type": "function"
    },
    {
      "inputs": [
        {
          "internalType": "address[]",
          "name": "owners",
          "type": "address[]"
        },
        {
          "internalType": "uint256[]",
          "name": "ids",
          "type": "uint256[]"
        }
      ],
      "name": "balanceOfBatch",
      "outputs": [
        {
          "internalType": "uint256[]",
          "name": "balances",
          "type": "uint256[]"
        }
      ],
      "stateMutability": "view",
      "type": "function"
    },
    {
      "inputs": [],
      "name": "baseMetadataURI",
      "outputs": [
        {
          "internalType": "string",
          "name": "baseURI",
          "type": "string"
        }
      ],
      "stateMutability": "view",
      "type": "function"
    },
    {
      "inputs": [
        {
          "internalType": "address",
          "name": "from",
          "type": "address"
        },
        {
          "internalType": "uint256[]",
          "name": "ids",
          "type": "uint256[]"
        },
        {
          "internalType": "uint256[]",
          "name": "values",
          "type": "uint256[]"
        }
      ],
      "name": "batchBurnFrom",
      "outputs": [],
      "stateMutability": "nonpayable",
      "type": "function"
    },
    {
      "inputs": [
        {
          "internalType": "address",
          "name": "from",
          "type": "address"
        },
        {
          "internalType": "uint256",
          "name": "id",
          "type": "uint256"
        },
        {
          "internalType": "uint256",
          "name": "value",
          "type": "uint256"
        }
      ],
      "name": "burnFrom",
      "outputs": [],
      "stateMutability": "nonpayable",
      "type": "function"
    },
    {
      "inputs": [
        {
          "internalType": "bytes32",
          "name": "role",
          "type": "bytes32"
        },
        {
          "internalType": "address",
          "name": "account",
          "type": "address"
        }
      ],
      "name": "grantRole",
      "outputs": [],
      "stateMutability": "nonpayable",
      "type": "function"
    },
    {
      "inputs": [
        {
          "internalType": "bytes32",
          "name": "role",
          "type": "bytes32"
        },
        {
          "internalType": "address",
          "name": "account",
          "type": "address"
        }
      ],
      "name": "hasRole",
      "outputs": [
        {
          "internalType": "bool",
          "name": "",
          "type": "bool"
        }
      ],
      "stateMutability": "view",
      "type": "function"
    },
    {
      "inputs": [
        {
          "internalType": "address",
          "name": "owner",
          "type": "address"
        },
        {
          "internalType": "address",
          "name": "operator",
          "type": "address"
        }
      ],
      "name": "isApprovedForAll",
      "outputs": [
        {
          "internalType": "bool",
          "name": "approvedForAll",
          "type": "bool"
        }
      ],
      "stateMutability": "view",
      "type": "function"
    },
    {
      "inputs": [],
      "name": "name",
      "outputs": [
        {
          "internalType": "string",
          "name": "",
          "type": "string"
        }
      ],
      "stateMutability": "view",
      "type": "function"
    },
    {
      "inputs": [],
      "name": "operatorFilterRegistry",
      "outputs": [
        {
          "internalType": "contract IOperatorFilterRegistry",
          "name": "",
          "type": "address"
        }
      ],
      "stateMutability": "view",
      "type": "function"
    },
    {
      "inputs": [],
      "name": "owner",
      "outputs": [
        {
          "internalType": "address",
          "name": "",
          "type": "address"
        }
      ],
      "stateMutability": "view",
      "type": "function"
    },
    {
      "inputs": [
        {
          "internalType": "address[]",
          "name": "accounts",
          "type": "address[]"
        },
        {
          "internalType": "contract IERC20[]",
          "name": "tokens",
          "type": "address[]"
        },
        {
          "internalType": "uint256[]",
          "name": "amounts",
          "type": "uint256[]"
        }
      ],
      "name": "recoverERC20s",
      "outputs": [],
      "stateMutability": "nonpayable",
      "type": "function"
    },
    {
      "inputs": [
        {
          "internalType": "address[]",
          "name": "accounts",
          "type": "address[]"
        },
        {
          "internalType": "contract IERC721[]",
          "name": "contracts",
          "type": "address[]"
        },
        {
          "internalType": "uint256[]",
          "name": "tokenIds",
          "type": "uint256[]"
        }
      ],
      "name": "recoverERC721s",
      "outputs": [],
      "stateMutability": "nonpayable",
      "type": "function"
    },
    {
      "inputs": [
        {
          "internalType": "address payable[]",
          "name": "accounts",
          "type": "address[]"
        },
        {
          "internalType": "uint256[]",
          "name": "amounts",
          "type": "uint256[]"
        }
      ],
      "name": "recoverETH",
      "outputs": [],
      "stateMutability": "nonpayable",
      "type": "function"
    },
    {
      "inputs": [
        {
          "internalType": "bytes32",
          "name": "role",
          "type": "bytes32"
        }
      ],
      "name": "renounceRole",
      "outputs": [],
      "stateMutability": "nonpayable",
      "type": "function"
    },
    {
      "inputs": [
        {
          "internalType": "bytes32",
          "name": "role",
          "type": "bytes32"
        },
        {
          "internalType": "address",
          "name": "account",
          "type": "address"
        }
      ],
      "name": "revokeRole",
      "outputs": [],
      "stateMutability": "nonpayable",
      "type": "function"
    },
    {
      "inputs": [
        {
          "internalType": "uint256",
          "name": "tokenId",
          "type": "uint256"
        },
        {
          "internalType": "uint256",
          "name": "salePrice",
          "type": "uint256"
        }
      ],
      "name": "royaltyInfo",
      "outputs": [
        {
          "internalType": "address",
          "name": "receiver",
          "type": "address"
        },
        {
          "internalType": "uint256",
          "name": "royaltyAmount",
          "type": "uint256"
        }
      ],
      "stateMutability": "view",
      "type": "function"
    },
    {
      "inputs": [
        {
          "internalType": "address",
          "name": "to",
          "type": "address"
        },
        {
          "internalType": "uint256[]",
          "name": "ids",
          "type": "uint256[]"
        },
        {
          "internalType": "uint256[]",
          "name": "values",
          "type": "uint256[]"
        },
        {
          "internalType": "bytes",
          "name": "data",
          "type": "bytes"
        }
      ],
      "name": "safeBatchMint",
      "outputs": [],
      "stateMutability": "nonpayable",
      "type": "function"
    },
    {
      "inputs": [
        {
          "internalType": "address",
          "name": "from",
          "type": "address"
        },
        {
          "internalType": "address",
          "name": "to",
          "type": "address"
        },
        {
          "internalType": "uint256[]",
          "name": "ids",
          "type": "uint256[]"
        },
        {
          "internalType": "uint256[]",
          "name": "values",
          "type": "uint256[]"
        },
        {
          "internalType": "bytes",
          "name": "data",
          "type": "bytes"
        }
      ],
      "name": "safeBatchTransferFrom",
      "outputs": [],
      "stateMutability": "nonpayable",
      "type": "function"
    },
    {
      "inputs": [
        {
          "internalType": "address",
          "name": "to",
          "type": "address"
        },
        {
          "internalType": "uint256",
          "name": "id",
          "type": "uint256"
        },
        {
          "internalType": "uint256",
          "name": "value",
          "type": "uint256"
        },
        {
          "internalType": "bytes",
          "name": "data",
          "type": "bytes"
        }
      ],
      "name": "safeMint",
      "outputs": [],
      "stateMutability": "nonpayable",
      "type": "function"
    },
    {
      "inputs": [
        {
          "internalType": "address",
          "name": "from",
          "type": "address"
        },
        {
          "internalType": "address",
          "name": "to",
          "type": "address"
        },
        {
          "internalType": "uint256",
          "name": "id",
          "type": "uint256"
        },
        {
          "internalType": "uint256",
          "name": "value",
          "type": "uint256"
        },
        {
          "internalType": "bytes",
          "name": "data",
          "type": "bytes"
        }
      ],
      "name": "safeTransferFrom",
      "outputs": [],
      "stateMutability": "nonpayable",
      "type": "function"
    },
    {
      "inputs": [
        {
          "internalType": "address",
          "name": "operator",
          "type": "address"
        },
        {
          "internalType": "bool",
          "name": "approved",
          "type": "bool"
        }
      ],
      "name": "setApprovalForAll",
      "outputs": [],
      "stateMutability": "nonpayable",
      "type": "function"
    },
    {
      "inputs": [
        {
          "internalType": "string",
          "name": "baseURI",
          "type": "string"
        }
      ],
      "name": "setBaseMetadataURI",
      "outputs": [],
      "stateMutability": "nonpayable",
      "type": "function"
    },
    {
      "inputs": [
        {
          "internalType": "uint256",
          "name": "percentage",
          "type": "uint256"
        }
      ],
      "name": "setRoyaltyPercentage",
      "outputs": [],
      "stateMutability": "nonpayable",
      "type": "function"
    },
    {
      "inputs": [
        {
          "internalType": "address",
          "name": "receiver",
          "type": "address"
        }
      ],
      "name": "setRoyaltyReceiver",
      "outputs": [],
      "stateMutability": "nonpayable",
      "type": "function"
    },
    {
      "inputs": [
        {
          "internalType": "bytes4",
          "name": "interfaceId",
          "type": "bytes4"
        }
      ],
      "name": "supportsInterface",
      "outputs": [
        {
          "internalType": "bool",
          "name": "",
          "type": "bool"
        }
      ],
      "stateMutability": "view",
      "type": "function"
    },
    {
      "inputs": [],
      "name": "symbol",
      "outputs": [
        {
          "internalType": "string",
          "name": "",
          "type": "string"
        }
      ],
      "stateMutability": "view",
      "type": "function"
    },
    {
      "inputs": [
        {
          "internalType": "address",
          "name": "newOwner",
          "type": "address"
        }
      ],
      "name": "transferOwnership",
      "outputs": [],
      "stateMutability": "nonpayable",
      "type": "function"
    },
    {
      "inputs": [
        {
          "internalType": "contract IOperatorFilterRegistry",
          "name": "registry",
          "type": "address"
        }
      ],
      "name": "updateOperatorFilterRegistry",
      "outputs": [],
      "stateMutability": "nonpayable",
      "type": "function"
    },
    {
      "inputs": [
        {
          "internalType": "uint256",
          "name": "id",
          "type": "uint256"
        }
      ],
      "name": "uri",
      "outputs": [
        {
          "internalType": "string",
          "name": "metadataURI",
          "type": "string"
        }
      ],
      "stateMutability": "view",
      "type": "function"
    }
  ],
  "bytecode": "0x60806040523480156200001157600080fd5b50604051620038dd380380620038dd833981016040819052620000349162000470565b82336200006481620000506200012460201b62000b521760201c565b6200015a60201b62000b801790919060201c565b506200007a620001ed60201b62000be01760201c565b6200008f6200021260201b62000bf71760201c565b620000a46200023560201b62000c0c1760201c565b620000b96200025860201b62000c211760201c565b620000ce6200027b60201b62000c361760201c565b620000fc81620000e86200029e60201b62000c4b1760201c565b620002ce60201b62000c791790919060201c565b5060006200010b838262000589565b5060016200011a828262000589565b5050505062000677565b6000806200015460017fc9ed16f33ab3a66c84bfd83099ccb2a8845871e2e1c1928f63797152f0fd54cd62000655565b92915050565b6001600160a01b03811615620001b15781546001600160a01b0319166001600160a01b03821690811783556040516000907f8be0079c531659141344cd1fd0a4f28419497f9722a3daafe3b4186f6b6457e0908290a35b620001e96307f5828d60e41b6001620001d4620002eb60201b62000c961760201c565b6200031b60201b62000cc4179092919060201c565b5050565b62000210631464324b60e21b6001620001d4620002eb60201b62000c961760201c565b565b6200021063921ed8d160e01b6001620001d4620002eb60201b62000c961760201c565b620002106303a24d0760e21b6001620001d4620002eb60201b62000c961760201c565b6200021063152a902d60e11b6001620001d4620002eb60201b62000c961760201c565b62000210636cdb3d1360e11b6001620001d4620002eb60201b62000c961760201c565b6000806200015460017f609b85bcafa81ecfaf3ff62cdde2c6c9082a68dbe4922f07399c706bdeb7cd3162000655565b81546001600160a01b0319166001600160a01b0391909116179055565b6000806200015460017fca9d3e17f264b0f3984e2634e94adb37fa3e6a8103f06aeae6fa59e21c769f5e62000655565b600160e01b6001600160e01b03198316016200037d5760405162461bcd60e51b815260206004820152601f60248201527f496e74657266616365446574656374696f6e3a2077726f6e672076616c756500604482015260640160405180910390fd5b6001600160e01b03199190911660009081526020929092526040909120805460ff1916911515919091179055565b634e487b7160e01b600052604160045260246000fd5b600082601f830112620003d357600080fd5b81516001600160401b0380821115620003f057620003f0620003ab565b604051601f8301601f19908116603f011681019082821181831017156200041b576200041b620003ab565b816040528381526020925086838588010111156200043857600080fd5b600091505b838210156200045c57858201830151818301840152908201906200043d565b600093810190920192909252949350505050565b6000806000606084860312156200048657600080fd5b83516001600160a01b03811681146200049e57600080fd5b60208501519093506001600160401b0380821115620004bc57600080fd5b620004ca87838801620003c1565b93506040860151915080821115620004e157600080fd5b50620004f086828701620003c1565b9150509250925092565b600181811c908216806200050f57607f821691505b6020821081036200053057634e487b7160e01b600052602260045260246000fd5b50919050565b601f8211156200058457600081815260208120601f850160051c810160208610156200055f5750805b601f850160051c820191505b8181101562000580578281556001016200056b565b5050505b505050565b81516001600160401b03811115620005a557620005a5620003ab565b620005bd81620005b68454620004fa565b8462000536565b602080601f831160018114620005f55760008415620005dc5750858301515b600019600386901b1c1916600185901b17855562000580565b600085815260208120601f198616915b82811015620006265788860151825594840194600190910190840162000605565b5085821015620006455787850151600019600388901b60f8161c191681555b5050505050600190811b01905550565b818103818111156200015457634e487b7160e01b600052601160045260246000fd5b61325680620006876000396000f3fe608060405234801561001057600080fd5b506004361061017f5760003560e01c8062fdd58e1461018457806301ffc9a7146101aa57806306fdde03146101cd5780630d6a5bbb146101e25780630e89341c146101f7578063114ba8ee1461020a578063124d91e51461021d5780632a55205a146102305780632eb2c2d6146102515780632f2ff15d146102645780634e1273f4146102775780635b2bd79e146102975780635cfa92971461029f57806361ba27da146102b257806373c8a958146102c55780637e518ec8146102d857806380534934146102eb5780638bb9c5bf146102fe5780638da5cb5b146103115780638dc251e31461032657806391d148541461033957806395d89b411461034c578063a22cb46514610354578063b0ccc31e14610367578063c3666c361461036f578063d539139314610382578063d547741f14610392578063e1a8bf2c146103a5578063e985e9c5146103af578063f242432a146103c2578063f2fde38b146103d5578063f7ba94bd146103e8575b600080fd5b6101976101923660046124ac565b6103fb565b6040519081526020015b60405180910390f35b6101bd6101b83660046124ee565b61041a565b60405190151581526020016101a1565b6101d561042e565b6040516101a19190612562565b6101f56101f03660046125fa565b6104bc565b005b6101d56102053660046126a6565b610595565b6101f56102183660046126bf565b6105a9565b6101f561022b3660046126dc565b6105d1565b61024361023e366004612711565b6105ee565b6040516101a1929190612733565b6101f561025f36600461274c565b610611565b6101f561027236600461280a565b610653565b61028a61028536600461283a565b610676565b6040516101a191906128e0565b6101d561069b565b6101f56102ad3660046128f3565b6106b2565b6101f56102c03660046126a6565b610722565b6101f56102d336600461295c565b61073d565b6101f56102e63660046129f5565b610806565b6101f56102f9366004612a36565b610827565b6101f561030c3660046126a6565b61084a565b61031961085e565b6040516101a19190612aa7565b6101f56103343660046126bf565b610878565b6101bd61034736600461280a565b610893565b6101d56108a9565b6101f5610362366004612ac9565b6108b6565b6103196108e4565b6101f561037d36600461295c565b6108f1565b6101976536b4b73a32b960d11b81565b6101f56103a036600461280a565b610a18565b610197620186a081565b6101bd6103bd366004612af7565b610a3b565b6101f56103d0366004612b25565b610a7c565b6101f56103e33660046126bf565b610ab1565b6101f56103f636600461283a565b610ac5565b6000610411838361040a610d4f565b9190610d7d565b90505b92915050565b600061041482610428610c96565b90610dfd565b6000805461043b90612b8e565b80601f016020809104026020016040519081016040528092919081815260200182805461046790612b8e565b80156104b45780601f10610489576101008083540402835291602001916104b4565b820191906000526020600020905b81548152906001019060200180831161049757829003601f168201915b505050505081565b336104da6536b4b73a32b960d11b826104d3610e5d565b9190610e8b565b61058b818989898080602002602001604051908101604052809392919081815260200183836020028082843760009201919091525050604080516020808d0282810182019093528c82529093508c92508b91829185019084908082843760009201919091525050604080516020601f8c018190048102820181019092528a815292508a91508990819084018382808284376000920191909152506105819250610d4f915050565b9493929190610ed9565b5050505050505050565b6060610414826105a3610fde565b9061100c565b6105bc335b6105b6610b52565b90611040565b6105ce816105c8610c4b565b90610c79565b50565b6105e9338484846105e0610d4f565b9392919061106c565b505050565b60008061060584846105fe6110e0565b919061110e565b915091505b9250929050565b33610626818a61061f610c4b565b9190611195565b610648818a8a8a8a8a8a8a8a61063a610d4f565b9897969594939291906111b8565b505050505050505050565b33610660816105b6610b52565b6105e983838361066e610e5d565b929190611386565b606061069085858585610687610d4f565b93929190611403565b90505b949350505050565b60606106ad6106a8610fde565b6114f6565b905090565b336106c96536b4b73a32b960d11b826104d3610e5d565b61071a8187878787878080601f0160208091040260200160405190810160405280939291908181526020018383808284376000920191909152506107109250610d4f915050565b949392919061158c565b505050505050565b61072b336105ae565b6105ce816107376110e0565b9061161e565b610746336105ae565b84838114801561075557508082145b61077a5760405162461bcd60e51b815260040161077190612bc8565b60405180910390fd5b60005b81811461058b576107fe88888381811061079957610799612bff565b90506020020160208101906107ae91906126bf565b8585848181106107c0576107c0612bff565b905060200201358888858181106107d9576107d9612bff565b90506020020160208101906107ee91906126bf565b6001600160a01b03169190611668565b60010161077d565b61080f336105ae565b610823828261081c610fde565b91906116be565b5050565b610843338686868686610838610d4f565b959493929190611709565b5050505050565b6105ce3382610857610e5d565b91906117f3565b60006106ad61086b610b52565b546001600160a01b031690565b610881336105ae565b6105ce8161088d6110e0565b90611848565b600061041183836108a2610e5d565b919061186f565b6001805461043b90612b8e565b80156108ce576108ce826108c8610c4b565b90611896565b6108233383836108dc610d4f565b9291906118a0565b60006106ad61086b610c4b565b6108fa336105ae565b84838114801561090957508082145b6109255760405162461bcd60e51b815260040161077190612bc8565b60005b81811461058b5785858281811061094157610941612bff565b905060200201602081019061095691906126bf565b6001600160a01b03166323b872dd308a8a8581811061097757610977612bff565b905060200201602081019061098c91906126bf565b87878681811061099e5761099e612bff565b6040516001600160e01b031960e088901b1681526001600160a01b03958616600482015294909316602485015250602090910201356044820152606401600060405180830381600087803b1580156109f557600080fd5b505af1158015610a09573d6000803e3d6000fd5b50505050806001019050610928565b33610a25816105b6610b52565b6105e9838383610a33610e5d565b929190611971565b60006104118383610a4a610d4f565b91906001600160a01b039182166000908152600193909301602090815260408085209290931684525290205460ff1690565b33610a8a818861061f610c4b565b610aa881888888888888610a9c610d4f565b969594939291906119cb565b50505050505050565b6105ce3382610abe610b52565b9190611ace565b610ace336105ae565b82818114610aee5760405162461bcd60e51b815260040161077190612bc8565b60005b81811461071a57610b4a848483818110610b0d57610b0d612bff565b90506020020135878784818110610b2657610b26612bff565b9050602002016020810190610b3b91906126bf565b6001600160a01b031690611b52565b600101610af1565b60008061041460017fc9ed16f33ab3a66c84bfd83099ccb2a8845871e2e1c1928f63797152f0fd54cd612c2b565b6001600160a01b03811615610bc45781546001600160a01b0319166001600160a01b03821690811783556040516000906000805160206131e1833981519152908290a35b6108236307f5828d60e41b6001610bd9610c96565b9190610cc4565b610bf5631464324b60e21b6001610bd9610c96565b565b610bf563921ed8d160e01b6001610bd9610c96565b610bf56303a24d0760e21b6001610bd9610c96565b610bf563152a902d60e11b6001610bd9610c96565b610bf5636cdb3d1360e11b6001610bd9610c96565b60008061041460017f609b85bcafa81ecfaf3ff62cdde2c6c9082a68dbe4922f07399c706bdeb7cd31612c2b565b81546001600160a01b0319166001600160a01b0391909116179055565b60008061041460017fca9d3e17f264b0f3984e2634e94adb37fa3e6a8103f06aeae6fa59e21c769f5e612c2b565b600160e01b6001600160e01b0319831601610d215760405162461bcd60e51b815260206004820152601f60248201527f496e74657266616365446574656374696f6e3a2077726f6e672076616c7565006044820152606401610771565b6001600160e01b03199190911660009081526020929092526040909120805460ff1916911515919091179055565b60008061041460017f5ccf5846fa27a68fafc8e588671a68f5e67c2f9b56af4263806a4d71735e8613612c2b565b60006001600160a01b038316610dd55760405162461bcd60e51b815260206004820152601e60248201527f455243313135353a2062616c616e6365206f66206164647265737328302900006044820152606401610771565b506000908152602092835260408082206001600160a01b039390931682529190925290205490565b6000600160e01b6001600160e01b0319831601610e1c57506000610414565b63fe00365960e01b6001600160e01b0319831601610e3c57506001610414565b506001600160e01b0319166000908152602091909152604090205460ff1690565b60008061041460017fc8827d3282af6f37b64c3e9e6f3ac9df286ab0bb0fccd6f8661bf19adb368b23612c2b565b610e9683838361186f565b6105e957610ea382611c68565b604051602001610eb39190612c3e565b60408051601f198184030181529082905262461bcd60e51b825261077191600401612562565b6001600160a01b038416610eff5760405162461bcd60e51b815260040161077190612c8e565b825182518114610f215760405162461bcd60e51b815260040161077190612cc3565b60005b818114610f7157610f698887878481518110610f4257610f42612bff565b6020026020010151878581518110610f5c57610f5c612bff565b6020026020010151611d8d565b600101610f24565b50846001600160a01b031660006001600160a01b0316876001600160a01b03166000805160206131a18339815191528787604051610fb0929190612cf9565b60405180910390a4610fca856001600160a01b0316611dfd565b15610aa857610aa886600087878787611e0c565b60008061041460017fe94434e3c6b941c5d90218142fadcc69cb2e13723993540bfa1c131dd1d3475a612c2b565b60608261101883611ed9565b604051602001611029929190612d27565b604051602081830303815290604052905092915050565b81546001600160a01b038281169116146108235760405162461bcd60e51b815260040161077190612dae565b611077858486611f6b565b6110935760405162461bcd60e51b815260040161077190612de0565b61109f85848484611fb9565b60408051838152602081018390526000916001600160a01b0386811692908816916000805160206131c1833981519152910160405180910390a45050505050565b60008061041460017f2c0cf10337caabbd02dcf226f05f5fd19a0919a41a8df8958c39b80007826858612c2b565b82546001600160a01b03811690600090600160a01b90046001600160601b0316831580611139575080155b15611147576000915061118c565b620186a084101561117157620186a06111608286612e16565b61116a9190612e2d565b915061118c565b8061117f620186a086612e2d565b6111899190612e16565b91505b50935093915050565b806001600160a01b0316826001600160a01b0316146105e9576105e98383612002565b6001600160a01b0387166111de5760405162461bcd60e51b815260040161077190612e4f565b848381146111fe5760405162461bcd60e51b815260040161077190612cc3565b6112098b8a8c611f6b565b6112255760405162461bcd60e51b815260040161077190612de0565b60005b8181146112745761126c8c8b8b8b8b8681811061124757611247612bff565b905060200201358a8a8781811061126057611260612bff565b905060200201356120ba565b600101611228565b50876001600160a01b0316896001600160a01b03168b6001600160a01b03166000805160206131a18339815191528a8a8a8a6040516112b69493929190612eb8565b60405180910390a46112d0886001600160a01b0316611dfd565b15611379576113798a8a8a8a8a8080602002602001604051908101604052809392919081815260200183836020028082843760009201919091525050604080516020808e0282810182019093528d82529093508d92508c91829185019084908082843760009201919091525050604080516020601f8d018190048102820181019092528b815292508b91508a9081908401838280828437600092019190915250611e0c92505050565b5050505050505050505050565b61139184848461186f565b6113fd576000838152602085815260408083206001600160a01b038616845290915290819020805460ff19166001179055517f2f8788117e7eff1d82e926ec794901d17c78024a50270940304540a733656f0d906113f490859085908590612edf565b60405180910390a15b50505050565b6060838281146114255760405162461bcd60e51b815260040161077190612cc3565b846001600160401b0381111561143d5761143d612efe565b604051908082528060200260200182016040528015611466578160200160208202803683370190505b50915060005b8181146114eb576114c687878381811061148857611488612bff565b905060200201602081019061149d91906126bf565b8686848181106114af576114af612bff565b905060200201358a610d7d9092919063ffffffff16565b8382815181106114d8576114d8612bff565b602090810291909101015260010161146c565b505095945050505050565b606081600001805461150790612b8e565b80601f016020809104026020016040519081016040528092919081815260200182805461153390612b8e565b80156115805780601f1061155557610100808354040283529160200191611580565b820191906000526020600020905b81548152906001019060200180831161156357829003601f168201915b50505050509050919050565b6001600160a01b0384166115b25760405162461bcd60e51b815260040161077190612c8e565b6115be86858585611d8d565b60408051848152602081018490526001600160a01b0380871692600092918916916000805160206131c1833981519152910160405180910390a461160a846001600160a01b0316611dfd565b1561071a5761071a85600086868686612198565b620186a081111561164557604051630ebff1b160e21b815260048101829052602401610771565b81546001600160601b03909116600160a01b026001600160a01b03909116179055565b6105e98363a9059cbb60e01b8484604051602401611687929190612733565b60408051601f198184030181529190526020810180516001600160e01b03166001600160e01b0319909316929092179091526121ce565b826116ca828483612f5a565b507f04b1dc5c136a3ce9fded8db0ce3d3366c58764ec3a8e4c2b9e52e4ddfe5ebbf782826040516116fc929190613019565b60405180910390a1505050565b828181146117295760405162461bcd60e51b815260040161077190612cc3565b611734888789611f6b565b6117505760405162461bcd60e51b815260040161077190612de0565b60005b81811461179e57611796898888888581811061177157611771612bff565b9050602002013587878681811061178a5761178a612bff565b90506020020135611fb9565b600101611753565b5060006001600160a01b0316866001600160a01b0316886001600160a01b03166000805160206131a1833981519152888888886040516117e19493929190612eb8565b60405180910390a45050505050505050565b6117fe838284610e8b565b6000818152602084815260408083206001600160a01b038616845290915290819020805460ff1916905551600080516020613201833981519152906116fc90839085908190612edf565b6001600160a01b038116610c7957604051630dfc369960e31b815260040160405180910390fd5b6000918252602092835260408083206001600160a01b039290921683529252205460ff1690565b6108238282612002565b826001600160a01b0316826001600160a01b0316036119015760405162461bcd60e51b815260206004820152601e60248201527f455243313135353a2073656c662d617070726f76616c20666f7220616c6c00006044820152606401610771565b6001600160a01b038381166000818152600187016020908152604080832094871680845294825291829020805460ff191686151590811790915591519182527f17307eab39ab6107e8899845ad3d59bd9653f200f220920489ca2b5937696c31910160405180910390a350505050565b61197c84848461186f565b156113fd576000838152602085815260408083206001600160a01b038616845290915290819020805460ff1916905551600080516020613201833981519152906113f490859085908590612edf565b6001600160a01b0385166119f15760405162461bcd60e51b815260040161077190612e4f565b6119fc888789611f6b565b611a185760405162461bcd60e51b815260040161077190612de0565b611a2588878787876120ba565b846001600160a01b0316866001600160a01b0316886001600160a01b03166000805160206131c18339815191528787604051611a6b929190918252602082015260400190565b60405180910390a4611a85856001600160a01b0316611dfd565b1561058b5761058b878787878787878080601f01602080910402602001604051908101604052809392919081815260200183838082843760009201919091525061219892505050565b82546001600160a01b039081169083168114611afc5760405162461bcd60e51b815260040161077190612dae565b816001600160a01b0316816001600160a01b0316146113fd5783546001600160a01b0319166001600160a01b038381169182178655604051908316906000805160206131e183398151915290600090a350505050565b80471015611ba25760405162461bcd60e51b815260206004820152601d60248201527f416464726573733a20696e73756666696369656e742062616c616e63650000006044820152606401610771565b6000826001600160a01b03168260405160006040518083038185875af1925050503d8060008114611bef576040519150601f19603f3d011682016040523d82523d6000602084013e611bf4565b606091505b50509050806105e95760405162461bcd60e51b815260206004820152603a60248201527f416464726573733a20756e61626c6520746f2073656e642076616c75652c20726044820152791958da5c1a595b9d081b585e481a185d99481c995d995c9d195960321b6064820152608401610771565b60606000829003611c8757505060408051602081019091526000815290565b600082604051602001611c9c91815260200190565b60408051601f198184030181529190529050601f5b818181518110611cc357611cc3612bff565b01602001516001600160f81b031916600003611ce25760001901611cb1565b6000816001016001600160401b03811115611cff57611cff612efe565b6040519080825280601f01601f191660200182016040528015611d29576020820181803683370190505b50905060005b828111611d8457838181518110611d4857611d48612bff565b602001015160f81c60f81b828281518110611d6557611d65612bff565b60200101906001600160f81b031916908160001a905350600101611d2f565b50949350505050565b80156113fd576000828152602085815260408083206001600160a01b0387168452909152902054818101818111611dd65760405162461bcd60e51b815260040161077190613048565b6000938452602095865260408085206001600160a01b039690961685529490955250502055565b6001600160a01b03163b151590565b60405163bc197c8160e01b808252906001600160a01b0386169063bc197c8190611e42908a908a9089908990899060040161307b565b6020604051808303816000875af1158015611e61573d6000803e3d6000fd5b505050506040513d601f19601f82011682018060405250810190611e8591906130d9565b6001600160e01b0319161461071a5760405162461bcd60e51b815260206004820152601a602482015279115490cc4c4d4d4e881d1c985b9cd9995c881c995a9958dd195960321b6044820152606401610771565b60606000611ee6836122a0565b60010190506000816001600160401b03811115611f0557611f05612efe565b6040519080825280601f01601f191660200182016040528015611f2f576020820181803683370190505b5090508181016020015b600019016f181899199a1a9b1b9c1cb0b131b232b360811b600a86061a8153600a8504945084611f3957509392505050565b6000816001600160a01b0316836001600160a01b031614806106935750506001600160a01b039182166000908152600193909301602090815260408085209290931684525290205460ff1690565b80156113fd576000828152602085815260408083206001600160a01b0387168452909152902054818103818110611dd65760405162461bcd60e51b8152600401610771906130f6565b81546001600160a01b0316801580159061202657506000816001600160a01b03163b115b156105e957604051633185c44d60e21b81523060048201526001600160a01b03838116602483015282169063c617113490604401602060405180830381865afa158015612077573d6000803e3d6000fd5b505050506040513d601f19601f8201168201806040525081019061209b919061312d565b6105e95781604051633b79c77360e21b81526004016107719190612aa7565b8015610843576000828152602086815260408083206001600160a01b03881684529091529020548181038181106121035760405162461bcd60e51b8152600401610771906130f6565b846001600160a01b0316866001600160a01b031614610aa8576000848152602088815260408083206001600160a01b038916845290915290205483810181811161215f5760405162461bcd60e51b815260040161077190613048565b600086815260208a815260408083206001600160a01b03808d1685528184528285208890558b1684529091529020555050505050505050565b60405163f23a6e6160e01b808252906001600160a01b0386169063f23a6e6190611e42908a908a9089908990899060040161314a565b6000612223826040518060400160405280602081526020017f5361666545524332303a206c6f772d6c6576656c2063616c6c206661696c6564815250856001600160a01b03166123769092919063ffffffff16565b8051909150156105e95780806020019051810190612241919061312d565b6105e95760405162461bcd60e51b815260206004820152602a60248201527f5361666545524332303a204552433230206f7065726174696f6e20646964206e6044820152691bdd081cdd58d8d9595960b21b6064820152608401610771565b60008072184f03e93ff9f4daa797ed6e38ed64bf6a1f0160401b83106122df5772184f03e93ff9f4daa797ed6e38ed64bf6a1f0160401b830492506040015b6904ee2d6d415b85acef8160201b8310612309576904ee2d6d415b85acef8160201b830492506020015b662386f26fc10000831061232757662386f26fc10000830492506010015b6305f5e100831061233f576305f5e100830492506008015b612710831061235357612710830492506004015b60648310612365576064830492506002015b600a83106104145760010192915050565b6060610693848460008585600080866001600160a01b0316858760405161239d9190613184565b60006040518083038185875af1925050503d80600081146123da576040519150601f19603f3d011682016040523d82523d6000602084013e6123df565b606091505b50915091506123f0878383876123fb565b979650505050505050565b606083156124685782516000036124615761241585611dfd565b6124615760405162461bcd60e51b815260206004820152601d60248201527f416464726573733a2063616c6c20746f206e6f6e2d636f6e74726163740000006044820152606401610771565b5081610693565b610693838381511561247d5781518083602001fd5b8060405162461bcd60e51b81526004016107719190612562565b6001600160a01b03811681146105ce57600080fd5b600080604083850312156124bf57600080fd5b82356124ca81612497565b946020939093013593505050565b6001600160e01b0319811681146105ce57600080fd5b60006020828403121561250057600080fd5b813561250b816124d8565b9392505050565b60005b8381101561252d578181015183820152602001612515565b50506000910152565b6000815180845261254e816020860160208601612512565b601f01601f19169290920160200192915050565b6020815260006104116020830184612536565b60008083601f84011261258757600080fd5b5081356001600160401b0381111561259e57600080fd5b6020830191508360208260051b850101111561060a57600080fd5b60008083601f8401126125cb57600080fd5b5081356001600160401b038111156125e257600080fd5b60208301915083602082850101111561060a57600080fd5b60008060008060008060006080888a03121561261557600080fd5b873561262081612497565b965060208801356001600160401b038082111561263c57600080fd5b6126488b838c01612575565b909850965060408a013591508082111561266157600080fd5b61266d8b838c01612575565b909650945060608a013591508082111561268657600080fd5b506126938a828b016125b9565b989b979a50959850939692959293505050565b6000602082840312156126b857600080fd5b5035919050565b6000602082840312156126d157600080fd5b813561250b81612497565b6000806000606084860312156126f157600080fd5b83356126fc81612497565b95602085013595506040909401359392505050565b6000806040838503121561272457600080fd5b50508035926020909101359150565b6001600160a01b03929092168252602082015260400190565b60008060008060008060008060a0898b03121561276857600080fd5b883561277381612497565b9750602089013561278381612497565b965060408901356001600160401b038082111561279f57600080fd5b6127ab8c838d01612575565b909850965060608b01359150808211156127c457600080fd5b6127d08c838d01612575565b909650945060808b01359150808211156127e957600080fd5b506127f68b828c016125b9565b999c989b5096995094979396929594505050565b6000806040838503121561281d57600080fd5b82359150602083013561282f81612497565b809150509250929050565b6000806000806040858703121561285057600080fd5b84356001600160401b038082111561286757600080fd5b61287388838901612575565b9096509450602087013591508082111561288c57600080fd5b5061289987828801612575565b95989497509550505050565b600081518084526020808501945080840160005b838110156128d5578151875295820195908201906001016128b9565b509495945050505050565b60208152600061041160208301846128a5565b60008060008060006080868803121561290b57600080fd5b853561291681612497565b9450602086013593506040860135925060608601356001600160401b0381111561293f57600080fd5b61294b888289016125b9565b969995985093965092949392505050565b6000806000806000806060878903121561297557600080fd5b86356001600160401b038082111561298c57600080fd5b6129988a838b01612575565b909850965060208901359150808211156129b157600080fd5b6129bd8a838b01612575565b909650945060408901359150808211156129d657600080fd5b506129e389828a01612575565b979a9699509497509295939492505050565b60008060208385031215612a0857600080fd5b82356001600160401b03811115612a1e57600080fd5b612a2a858286016125b9565b90969095509350505050565b600080600080600060608688031215612a4e57600080fd5b8535612a5981612497565b945060208601356001600160401b0380821115612a7557600080fd5b612a8189838a01612575565b90965094506040880135915080821115612a9a57600080fd5b5061294b88828901612575565b6001600160a01b0391909116815260200190565b80151581146105ce57600080fd5b60008060408385031215612adc57600080fd5b8235612ae781612497565b9150602083013561282f81612abb565b60008060408385031215612b0a57600080fd5b8235612b1581612497565b9150602083013561282f81612497565b60008060008060008060a08789031215612b3e57600080fd5b8635612b4981612497565b95506020870135612b5981612497565b9450604087013593506060870135925060808701356001600160401b03811115612b8257600080fd5b6129e389828a016125b9565b600181811c90821680612ba257607f821691505b602082108103612bc257634e487b7160e01b600052602260045260246000fd5b50919050565b6020808252601d908201527f5265636f766572793a20696e636f6e73697374656e7420617272617973000000604082015260600190565b634e487b7160e01b600052603260045260246000fd5b634e487b7160e01b600052601160045260246000fd5b8181038181111561041457610414612c15565b77416363657373436f6e74726f6c3a206d697373696e67202760401b815260008251612c71816018850160208701612512565b652720726f6c6560d01b6018939091019283015250601e01919050565b6020808252601b908201527a455243313135353a206d696e7420746f206164647265737328302960281b604082015260600190565b6020808252601c908201527b455243313135353a20696e636f6e73697374656e742061727261797360201b604082015260600190565b604081526000612d0c60408301856128a5565b8281036020840152612d1e81856128a5565b95945050505050565b6000808454612d3581612b8e565b60018281168015612d4d5760018114612d6257612d91565b60ff1984168752821515830287019450612d91565b8860005260208060002060005b85811015612d885781548a820152908401908201612d6f565b50505082870194505b505050508351612da5818360208801612512565b01949350505050565b60208082526018908201527727bbb732b939b434b81d103737ba103a34329037bbb732b960411b604082015260600190565b6020808252601c908201527b22a92198989a9a9d103737b716b0b8383937bb32b21039b2b73232b960211b604082015260600190565b808202811582820484141761041457610414612c15565b600082612e4a57634e487b7160e01b600052601260045260246000fd5b500490565b6020808252601f908201527f455243313135353a207472616e7366657220746f206164647265737328302900604082015260600190565b81835260006001600160fb1b03831115612e9f57600080fd5b8260051b80836020870137939093016020019392505050565b604081526000612ecc604083018688612e86565b82810360208401526123f0818587612e86565b9283526001600160a01b03918216602084015216604082015260600190565b634e487b7160e01b600052604160045260246000fd5b601f8211156105e957600081815260208120601f850160051c81016020861015612f3b5750805b601f850160051c820191505b8181101561071a57828155600101612f47565b6001600160401b03831115612f7157612f71612efe565b612f8583612f7f8354612b8e565b83612f14565b6000601f841160018114612fb95760008515612fa15750838201355b600019600387901b1c1916600186901b178355610843565b600083815260209020601f19861690835b82811015612fea5786850135825560209485019460019092019101612fca565b50868210156130075760001960f88860031b161c19848701351681555b505060018560011b0183555050505050565b60208152816020820152818360408301376000818301604090810191909152601f909201601f19160101919050565b602080825260199082015278455243313135353a2062616c616e6365206f766572666c6f7760381b604082015260600190565b6001600160a01b0386811682528516602082015260a0604082018190526000906130a7908301866128a5565b82810360608401526130b981866128a5565b905082810360808401526130cd8185612536565b98975050505050505050565b6000602082840312156130eb57600080fd5b815161250b816124d8565b6020808252601d908201527f455243313135353a20696e73756666696369656e742062616c616e6365000000604082015260600190565b60006020828403121561313f57600080fd5b815161250b81612abb565b6001600160a01b03868116825285166020820152604081018490526060810183905260a0608082018190526000906123f090830184612536565b60008251613196818460208701612512565b919091019291505056fe4a39dc06d4c0dbc64b70af90fd698a233a518aa5d07e595d983b8c0526c8f7fbc3d58168c5ae7397731d063d5bbf3d657854427343f4c083240f7aacaa2d0f628be0079c531659141344cd1fd0a4f28419497f9722a3daafe3b4186f6b6457e0f6391f5c32d9c69d2a47ea670b442974b53935d1edc7fd64eb21e047a839171ba2646970667358221220be4d8aa644361d0c369d33d0a0086d1aad5e9e368ad35be9076178bc78950c8d64736f6c63430008110033",
  "linkReferences": {},
  "deployedLinkReferences": {}
}