{
  "_format": "hh-sol-artifact-1",
  "contractName": "GeniusScoreNFTClaim",
  "sourceName": "contracts/geniusScoreNFT/GeniusScoreNFTClaim.sol",
  "abi": [
    {
      "inputs": [
        {
          "internalType": "contract ERC721Full",
          "name": "rewardContract",
          "type": "address"
        },
        {
          "internalType": "address",
          "name": "signer_",
          "type": "address"
        }
      ],
      "stateMutability": "nonpayable",
      "type": "constructor"
    },
    {
      "inputs": [
        {
          "internalType": "address",
          "name": "recipient",
          "type": "address"
        }
      ],
      "name": "AlreadyClaimed",
      "type": "error"
    },
    {
      "inputs": [],
      "name": "IllegalInterfaceId",
      "type": "error"
    },
    {
      "inputs": [],
      "name": "InvalidRewardContractAddress",
      "type": "error"
    },
    {
      "inputs": [],
      "name": "InvalidSignature",
      "type": "error"
    },
    {
      "inputs": [
        {
          "internalType": "address",
          "name": "account",
          "type": "address"
        }
      ],
      "name": "NotContractOwner",
      "type": "error"
    },
    {
      "inputs": [
        {
          "internalType": "address",
          "name": "signer",
          "type": "address"
        }
      ],
      "name": "SignerAlreadySet",
      "type": "error"
    },
    {
      "anonymous": false,
      "inputs": [
        {
          "indexed": false,
          "internalType": "address",
          "name": "recipient",
          "type": "address"
        },
        {
          "indexed": false,
          "internalType": "uint96",
          "name": "score",
          "type": "uint96"
        }
      ],
      "name": "Claimed",
      "type": "event"
    },
    {
      "anonymous": false,
      "inputs": [
        {
          "indexed": true,
          "internalType": "address",
          "name": "previousOwner",
          "type": "address"
        },
        {
          "indexed": true,
          "internalType": "address",
          "name": "newOwner",
          "type": "address"
        }
      ],
      "name": "OwnershipTransferred",
      "type": "event"
    },
    {
      "anonymous": false,
      "inputs": [
        {
          "indexed": false,
          "internalType": "address",
          "name": "signer",
          "type": "address"
        }
      ],
      "name": "SignerSet",
      "type": "event"
    },
    {
      "inputs": [],
      "name": "REWARD_CONTRACT",
      "outputs": [
        {
          "internalType": "contract ERC721Full",
          "name": "",
          "type": "address"
        }
      ],
      "stateMutability": "view",
      "type": "function"
    },
    {
      "inputs": [
        {
          "internalType": "address",
          "name": "recipient",
          "type": "address"
        },
        {
          "internalType": "uint96",
          "name": "score",
          "type": "uint96"
        },
        {
          "internalType": "bytes",
          "name": "signature",
          "type": "bytes"
        }
      ],
      "name": "claim",
      "outputs": [],
      "stateMutability": "nonpayable",
      "type": "function"
    },
    {
      "inputs": [
        {
          "internalType": "address",
          "name": "recipient",
          "type": "address"
        }
      ],
      "name": "claimed",
      "outputs": [
        {
          "internalType": "bool",
          "name": "claimed",
          "type": "bool"
        }
      ],
      "stateMutability": "view",
      "type": "function"
    },
    {
      "inputs": [],
      "name": "owner",
      "outputs": [
        {
          "internalType": "address",
          "name": "",
          "type": "address"
        }
      ],
      "stateMutability": "view",
      "type": "function"
    },
    {
      "inputs": [
        {
          "internalType": "address",
          "name": "newSigner",
          "type": "address"
        }
      ],
      "name": "setSigner",
      "outputs": [],
      "stateMutability": "nonpayable",
      "type": "function"
    },
    {
      "inputs": [],
      "name": "signer",
      "outputs": [
        {
          "internalType": "address",
          "name": "",
          "type": "address"
        }
      ],
      "stateMutability": "view",
      "type": "function"
    },
    {
      "inputs": [
        {
          "internalType": "bytes4",
          "name": "interfaceId",
          "type": "bytes4"
        }
      ],
      "name": "supportsInterface",
      "outputs": [
        {
          "internalType": "bool",
          "name": "",
          "type": "bool"
        }
      ],
      "stateMutability": "view",
      "type": "function"
    },
    {
      "inputs": [
        {
          "internalType": "address",
          "name": "newOwner",
          "type": "address"
        }
      ],
      "name": "transferOwnership",
      "outputs": [],
      "stateMutability": "nonpayable",
      "type": "function"
    }
  ],
  "bytecode": "0x6101606040523480156200001257600080fd5b506040516200140e3803806200140e8339810160408190526200003591620002e4565b604080518082018252601381527f47656e69757353636f72654e4654436c61696d0000000000000000000000000060208083019182528351808501855260038152620312e360ec1b908201529151902060e08190527fe6bbd6277e1bf288eed5e8d1780f9a50b239e86b153736bceebccf4ea79d90b36101008190524660a081815285517f8b73c3c69bb8fe3d512ecc4cf759cc79239f7b179b0ffacaa9a75d522b39400f818701819052818801959095526060810193909352608080840192909252308382018190528651808503909201825260c0938401909652805194019390932090925291905261012052336200013a81620001336200018d565b90620001c3565b506001600160a01b038216620001635760405163baa7db8960e01b815260040160405180910390fd5b6001600160a01b0391821661014052600080546001600160a01b0319169190921617905562000345565b600080620001bd60017fc9ed16f33ab3a66c84bfd83099ccb2a8845871e2e1c1928f63797152f0fd54cd62000323565b92915050565b6001600160a01b038116156200021a5781546001600160a01b0319166001600160a01b03821690811783556040516000907f8be0079c531659141344cd1fd0a4f28419497f9722a3daafe3b4186f6b6457e0908290a35b6200023a6307f5828d60e41b6001620002326200023e565b91906200026e565b5050565b600080620001bd60017fca9d3e17f264b0f3984e2634e94adb37fa3e6a8103f06aeae6fa59e21c769f5e62000323565b600160e01b6001600160e01b03198316016200029d576040516372c683bb60e01b815260040160405180910390fd5b6001600160e01b03199190911660009081526020929092526040909120805460ff1916911515919091179055565b6001600160a01b0381168114620002e157600080fd5b50565b60008060408385031215620002f857600080fd5b82516200030581620002cb565b60208401519092506200031881620002cb565b809150509250929050565b81810381811115620001bd57634e487b7160e01b600052601160045260246000fd5b60805160a05160c05160e051610100516101205161014051611068620003a66000396000818160ff015261051f01526000610bdb01526000610c2a01526000610c0501526000610b5e01526000610b8801526000610bb201526110686000f3fe608060405234801561001057600080fd5b50600436106100885760003560e01c80638da5cb5b1161005b5780638da5cb5b14610136578063c884ef831461013e578063def7198d14610161578063f2fde38b1461017457600080fd5b806301ffc9a71461008d578063238ac933146100b55780633a5af339146100fa5780636c19e78314610121575b600080fd5b6100a061009b366004610dac565b610187565b60405190151581526020015b60405180910390f35b6000546100d59073ffffffffffffffffffffffffffffffffffffffff1681565b60405173ffffffffffffffffffffffffffffffffffffffff90911681526020016100ac565b6100d57f000000000000000000000000000000000000000000000000000000000000000081565b61013461012f366004610e17565b6101a1565b005b6100d561029e565b6100a061014c366004610e17565b60016020526000908152604090205460ff1681565b61013461016f366004610e32565b6102ca565b610134610182366004610e17565b61063b565b600061019b82610195610652565b90610680565b92915050565b60005473ffffffffffffffffffffffffffffffffffffffff90811690821603610213576040517fd3d310d900000000000000000000000000000000000000000000000000000000815273ffffffffffffffffffffffffffffffffffffffff821660048201526024015b60405180910390fd5b6102253361021f61075a565b90610788565b600080547fffffffffffffffffffffffff00000000000000000000000000000000000000001673ffffffffffffffffffffffffffffffffffffffff83169081179091556040519081527f9eaa897564d022fb8c5efaf0acdb5d9d27b440b2aad44400b6e1c702e65b9ed39060200160405180910390a150565b60006102c56102ab61075a565b5473ffffffffffffffffffffffffffffffffffffffff1690565b905090565b73ffffffffffffffffffffffffffffffffffffffff841660009081526001602052604090205460ff1615610342576040517f2058b6db00000000000000000000000000000000000000000000000000000000815273ffffffffffffffffffffffffffffffffffffffff8516600482015260240161020a565b604080517fd936778b554627522dd4fc426d74103a261439b5f72981883dd9674ddbdaff91602082015273ffffffffffffffffffffffffffffffffffffffff8616918101919091526bffffffffffffffffffffffff841660608201526000906103c390608001604051602081830303815290604052805190602001206107f7565b9050600061042860008054906101000a900473ffffffffffffffffffffffffffffffffffffffff168386868080601f01602080910402602001604051908101604052809392919081815260200183838082843760009201919091525061086092505050565b905080610461576040517f8baa579f00000000000000000000000000000000000000000000000000000000815260040160405180910390fd5b73ffffffffffffffffffffffffffffffffffffffff86811660009081526001602081815260409283902080547fffffffffffffffffffffffffffffffffffffffffffffffffffffffffffffff0016909217909155815160608a901b7fffffffffffffffffffffffffffffffffffffffff000000000000000000000000168183015260a089901b7fffffffffffffffffffffffff00000000000000000000000000000000000000001660348201528251808203909201825282019091527f0000000000000000000000000000000000000000000000000000000000000000909116906340c10f1990889061055390610ed3565b60405160e084901b7fffffffff0000000000000000000000000000000000000000000000000000000016815273ffffffffffffffffffffffffffffffffffffffff90921660048301526024820152604401600060405180830381600087803b1580156105be57600080fd5b505af11580156105d2573d6000803e3d6000fd5b50506040805173ffffffffffffffffffffffffffffffffffffffff8a1681526bffffffffffffffffffffffff891660208201527f1f1f3fe51e971f9768a1b748e2a520609176b6de88aa4d9c02ace9fb9177189f935001905060405180910390a1505050505050565b61064f338261064861075a565b9190610a2f565b50565b60008061019b60017fca9d3e17f264b0f3984e2634e94adb37fa3e6a8103f06aeae6fa59e21c769f5e610f18565b60007c01000000000000000000000000000000000000000000000000000000007fffffffff000000000000000000000000000000000000000000000000000000008316016106d05750600061019b565b7ffe003659000000000000000000000000000000000000000000000000000000007fffffffff000000000000000000000000000000000000000000000000000000008316016107215750600161019b565b507fffffffff00000000000000000000000000000000000000000000000000000000166000908152602091909152604090205460ff1690565b60008061019b60017fc9ed16f33ab3a66c84bfd83099ccb2a8845871e2e1c1928f63797152f0fd54cd610f18565b815473ffffffffffffffffffffffffffffffffffffffff8281169116146107f3576040517f2ef4875e00000000000000000000000000000000000000000000000000000000815273ffffffffffffffffffffffffffffffffffffffff8216600482015260240161020a565b5050565b600061019b610804610b44565b836040517f19010000000000000000000000000000000000000000000000000000000000006020820152602281018390526042810182905260009060620160405160208183030381529060405280519060200120905092915050565b600080600061086f8585610c78565b9092509050600081600481111561088857610888610f52565b1480156108c057508573ffffffffffffffffffffffffffffffffffffffff168273ffffffffffffffffffffffffffffffffffffffff16145b156108d057600192505050610a28565b6000808773ffffffffffffffffffffffffffffffffffffffff16631626ba7e60e01b8888604051602401610905929190610fa5565b604080517fffffffffffffffffffffffffffffffffffffffffffffffffffffffffffffffe08184030181529181526020820180517bffffffffffffffffffffffffffffffffffffffffffffffffffffffff167fffffffff0000000000000000000000000000000000000000000000000000000090941693909317909252905161098e9190610ffd565b600060405180830381855afa9150503d80600081146109c9576040519150601f19603f3d011682016040523d82523d6000602084013e6109ce565b606091505b50915091508180156109e1575080516020145b8015610a21575080517f1626ba7e0000000000000000000000000000000000000000000000000000000090610a1f9083016020908101908401611019565b145b9450505050505b9392505050565b825473ffffffffffffffffffffffffffffffffffffffff9081169083168114610a9c576040517f2ef4875e00000000000000000000000000000000000000000000000000000000815273ffffffffffffffffffffffffffffffffffffffff8416600482015260240161020a565b8173ffffffffffffffffffffffffffffffffffffffff168173ffffffffffffffffffffffffffffffffffffffff1614610b3e5783547fffffffffffffffffffffffff00000000000000000000000000000000000000001673ffffffffffffffffffffffffffffffffffffffff8381169182178655604051908316907f8be0079c531659141344cd1fd0a4f28419497f9722a3daafe3b4186f6b6457e090600090a35b50505050565b60003073ffffffffffffffffffffffffffffffffffffffff7f000000000000000000000000000000000000000000000000000000000000000016148015610baa57507f000000000000000000000000000000000000000000000000000000000000000046145b15610bd457507f000000000000000000000000000000000000000000000000000000000000000090565b50604080517f00000000000000000000000000000000000000000000000000000000000000006020808301919091527f0000000000000000000000000000000000000000000000000000000000000000828401527f000000000000000000000000000000000000000000000000000000000000000060608301524660808301523060a0808401919091528351808403909101815260c0909201909252805191012090565b6000808251604103610cae5760208301516040840151606085015160001a610ca287828585610cbd565b94509450505050610cb6565b506000905060025b9250929050565b6000807f7fffffffffffffffffffffffffffffff5d576e7357a4501ddfe92f46681b20a0831115610cf45750600090506003610da3565b6040805160008082526020820180845289905260ff881692820192909252606081018690526080810185905260019060a0016020604051602081039080840390855afa158015610d48573d6000803e3d6000fd5b50506040517fffffffffffffffffffffffffffffffffffffffffffffffffffffffffffffffe0015191505073ffffffffffffffffffffffffffffffffffffffff8116610d9c57600060019250925050610da3565b9150600090505b94509492505050565b600060208284031215610dbe57600080fd5b81357fffffffff0000000000000000000000000000000000000000000000000000000081168114610a2857600080fd5b803573ffffffffffffffffffffffffffffffffffffffff81168114610e1257600080fd5b919050565b600060208284031215610e2957600080fd5b610a2882610dee565b60008060008060608587031215610e4857600080fd5b610e5185610dee565b935060208501356bffffffffffffffffffffffff81168114610e7257600080fd5b9250604085013567ffffffffffffffff80821115610e8f57600080fd5b818701915087601f830112610ea357600080fd5b813581811115610eb257600080fd5b886020828501011115610ec457600080fd5b95989497505060200194505050565b80516020808301519190811015610f12577fffffffffffffffffffffffffffffffffffffffffffffffffffffffffffffffff8160200360031b1b821691505b50919050565b8181038181111561019b577f4e487b7100000000000000000000000000000000000000000000000000000000600052601160045260246000fd5b7f4e487b7100000000000000000000000000000000000000000000000000000000600052602160045260246000fd5b60005b83811015610f9c578181015183820152602001610f84565b50506000910152565b8281526040602082015260008251806040840152610fca816060850160208701610f81565b601f017fffffffffffffffffffffffffffffffffffffffffffffffffffffffffffffffe016919091016060019392505050565b6000825161100f818460208701610f81565b9190910192915050565b60006020828403121561102b57600080fd5b505191905056fea2646970667358221220ead2f3c685d5240428b4c3feb8f4420764e82ae23504f8b6440c82c39e1c8b1664736f6c63430008160033",
  "linkReferences": {},
  "deployedLinkReferences": {}
}