{
  "_format": "hh-sol-artifact-1",
  "contractName": "TokenEscrowMock",
  "sourceName": "contracts/mocks/TokenEscrow/TokenEscrowMock.sol",
  "abi": [
    {
      "inputs": [
        {
          "internalType": "contract IForwarderRegistry",
          "name": "forwarderRegistry",
          "type": "address"
        },
        {
          "internalType": "contract IERC1155",
          "name": "inventory_",
          "type": "address"
        }
      ],
      "stateMutability": "nonpayable",
      "type": "constructor"
    },
    {
      "inputs": [
        {
          "internalType": "uint256",
          "name": "tokenId",
          "type": "uint256"
        },
        {
          "internalType": "uint256",
          "name": "balance",
          "type": "uint256"
        }
      ],
      "name": "BalanceExceeded",
      "type": "error"
    },
    {
      "inputs": [],
      "name": "InconsistentArrays",
      "type": "error"
    },
    {
      "inputs": [
        {
          "internalType": "uint256",
          "name": "tokenId",
          "type": "uint256"
        },
        {
          "internalType": "uint256",
          "name": "balance",
          "type": "uint256"
        }
      ],
      "name": "InsufficientBalance",
      "type": "error"
    },
    {
      "inputs": [],
      "name": "InvalidInventory",
      "type": "error"
    },
    {
      "inputs": [],
      "name": "UnsupportedMethod",
      "type": "error"
    },
    {
      "anonymous": false,
      "inputs": [
        {
          "indexed": false,
          "internalType": "bytes",
          "name": "data",
          "type": "bytes"
        }
      ],
      "name": "Data",
      "type": "event"
    },
    {
      "anonymous": false,
      "inputs": [
        {
          "indexed": true,
          "internalType": "address",
          "name": "user",
          "type": "address"
        },
        {
          "indexed": false,
          "internalType": "uint256[]",
          "name": "ids",
          "type": "uint256[]"
        }
      ],
      "name": "DepositTokens",
      "type": "event"
    },
    {
      "anonymous": false,
      "inputs": [
        {
          "indexed": true,
          "internalType": "address",
          "name": "previousOwner",
          "type": "address"
        },
        {
          "indexed": true,
          "internalType": "address",
          "name": "newOwner",
          "type": "address"
        }
      ],
      "name": "OwnershipTransferred",
      "type": "event"
    },
    {
      "anonymous": false,
      "inputs": [
        {
          "indexed": true,
          "internalType": "address",
          "name": "user",
          "type": "address"
        },
        {
          "indexed": false,
          "internalType": "uint256[]",
          "name": "ids",
          "type": "uint256[]"
        }
      ],
      "name": "WithdrawTokens",
      "type": "event"
    },
    {
      "inputs": [],
      "name": "TOKEN_INVENTORY",
      "outputs": [
        {
          "internalType": "contract IERC1155",
          "name": "",
          "type": "address"
        }
      ],
      "stateMutability": "view",
      "type": "function"
    },
    {
      "inputs": [
        {
          "internalType": "address",
          "name": "account",
          "type": "address"
        },
        {
          "internalType": "uint256",
          "name": "id",
          "type": "uint256"
        }
      ],
      "name": "balanceOf",
      "outputs": [
        {
          "internalType": "uint256",
          "name": "",
          "type": "uint256"
        }
      ],
      "stateMutability": "view",
      "type": "function"
    },
    {
      "inputs": [
        {
          "internalType": "uint256[]",
          "name": "ids",
          "type": "uint256[]"
        },
        {
          "internalType": "uint256[]",
          "name": "values",
          "type": "uint256[]"
        }
      ],
      "name": "deposit",
      "outputs": [],
      "stateMutability": "nonpayable",
      "type": "function"
    },
    {
      "inputs": [
        {
          "internalType": "address",
          "name": "",
          "type": "address"
        },
        {
          "internalType": "uint256",
          "name": "",
          "type": "uint256"
        }
      ],
      "name": "escrowedNFTs",
      "outputs": [
        {
          "internalType": "uint256",
          "name": "",
          "type": "uint256"
        }
      ],
      "stateMutability": "view",
      "type": "function"
    },
    {
      "inputs": [],
      "name": "forwarderRegistry",
      "outputs": [
        {
          "internalType": "contract IForwarderRegistry",
          "name": "",
          "type": "address"
        }
      ],
      "stateMutability": "view",
      "type": "function"
    },
    {
      "inputs": [
        {
          "internalType": "address",
          "name": "forwarder",
          "type": "address"
        }
      ],
      "name": "isTrustedForwarder",
      "outputs": [
        {
          "internalType": "bool",
          "name": "",
          "type": "bool"
        }
      ],
      "stateMutability": "view",
      "type": "function"
    },
    {
      "inputs": [],
      "name": "msgData",
      "outputs": [],
      "stateMutability": "nonpayable",
      "type": "function"
    },
    {
      "inputs": [
        {
          "internalType": "address",
          "name": "",
          "type": "address"
        },
        {
          "internalType": "address",
          "name": "from",
          "type": "address"
        },
        {
          "internalType": "uint256[]",
          "name": "ids",
          "type": "uint256[]"
        },
        {
          "internalType": "uint256[]",
          "name": "values",
          "type": "uint256[]"
        },
        {
          "internalType": "bytes",
          "name": "",
          "type": "bytes"
        }
      ],
      "name": "onERC1155BatchReceived",
      "outputs": [
        {
          "internalType": "bytes4",
          "name": "",
          "type": "bytes4"
        }
      ],
      "stateMutability": "nonpayable",
      "type": "function"
    },
    {
      "inputs": [
        {
          "internalType": "address",
          "name": "",
          "type": "address"
        },
        {
          "internalType": "address",
          "name": "",
          "type": "address"
        },
        {
          "internalType": "uint256",
          "name": "",
          "type": "uint256"
        },
        {
          "internalType": "uint256",
          "name": "",
          "type": "uint256"
        },
        {
          "internalType": "bytes",
          "name": "",
          "type": "bytes"
        }
      ],
      "name": "onERC1155Received",
      "outputs": [
        {
          "internalType": "bytes4",
          "name": "",
          "type": "bytes4"
        }
      ],
      "stateMutability": "pure",
      "type": "function"
    },
    {
      "inputs": [],
      "name": "owner",
      "outputs": [
        {
          "internalType": "address",
          "name": "",
          "type": "address"
        }
      ],
      "stateMutability": "view",
      "type": "function"
    },
    {
      "inputs": [
        {
          "internalType": "address[]",
          "name": "accounts",
          "type": "address[]"
        },
        {
          "internalType": "contract IERC20[]",
          "name": "tokens",
          "type": "address[]"
        },
        {
          "internalType": "uint256[]",
          "name": "amounts",
          "type": "uint256[]"
        }
      ],
      "name": "recoverERC20s",
      "outputs": [],
      "stateMutability": "nonpayable",
      "type": "function"
    },
    {
      "inputs": [
        {
          "internalType": "address[]",
          "name": "accounts",
          "type": "address[]"
        },
        {
          "internalType": "contract IERC721[]",
          "name": "contracts",
          "type": "address[]"
        },
        {
          "internalType": "uint256[]",
          "name": "tokenIds",
          "type": "uint256[]"
        }
      ],
      "name": "recoverERC721s",
      "outputs": [],
      "stateMutability": "nonpayable",
      "type": "function"
    },
    {
      "inputs": [
        {
          "internalType": "address payable[]",
          "name": "accounts",
          "type": "address[]"
        },
        {
          "internalType": "uint256[]",
          "name": "amounts",
          "type": "uint256[]"
        }
      ],
      "name": "recoverETH",
      "outputs": [],
      "stateMutability": "nonpayable",
      "type": "function"
    },
    {
      "inputs": [
        {
          "internalType": "bytes4",
          "name": "interfaceId",
          "type": "bytes4"
        }
      ],
      "name": "supportsInterface",
      "outputs": [
        {
          "internalType": "bool",
          "name": "",
          "type": "bool"
        }
      ],
      "stateMutability": "view",
      "type": "function"
    },
    {
      "inputs": [
        {
          "internalType": "address",
          "name": "newOwner",
          "type": "address"
        }
      ],
      "name": "transferOwnership",
      "outputs": [],
      "stateMutability": "nonpayable",
      "type": "function"
    },
    {
      "inputs": [
        {
          "internalType": "uint256[]",
          "name": "ids",
          "type": "uint256[]"
        },
        {
          "internalType": "uint256[]",
          "name": "values",
          "type": "uint256[]"
        }
      ],
      "name": "withdraw",
      "outputs": [],
      "stateMutability": "nonpayable",
      "type": "function"
    }
  ],
  "bytecode": "0x60c06040523480156200001157600080fd5b5060405162001bab38038062001bab833981016040819052620000349162000277565b6001600160a01b03821660805281813362000073816200005f620000ea602090811b620009fc17901c565b6200012060201b62000a2a1790919060201c565b50620000ac630271189760e51b6001620000976200019e60201b62000a8e1760201c565b620001ce60201b62000abc179092919060201c565b6001600160a01b038116620000d457604051636524d08b60e01b815260040160405180910390fd5b6001600160a01b031660a05250620002d8915050565b6000806200011a60017fc9ed16f33ab3a66c84bfd83099ccb2a8845871e2e1c1928f63797152f0fd54cd620002b6565b92915050565b6001600160a01b03811615620001775781546001600160a01b0319166001600160a01b03821690811783556040516000907f8be0079c531659141344cd1fd0a4f28419497f9722a3daafe3b4186f6b6457e0908290a35b6200019a6307f5828d60e41b6001620000976200019e60201b62000a8e1760201c565b5050565b6000806200011a60017fca9d3e17f264b0f3984e2634e94adb37fa3e6a8103f06aeae6fa59e21c769f5e620002b6565b600160e01b6001600160e01b0319831601620002305760405162461bcd60e51b815260206004820152601f60248201527f496e74657266616365446574656374696f6e3a2077726f6e672076616c756500604482015260640160405180910390fd5b6001600160e01b03199190911660009081526020929092526040909120805460ff1916911515919091179055565b6001600160a01b03811681146200027457600080fd5b50565b600080604083850312156200028b57600080fd5b825162000298816200025e565b6020840151909250620002ab816200025e565b809150509250929050565b818103818111156200011a57634e487b7160e01b600052601160045260246000fd5b60805160a051611875620003366000396000818161015c01528181610529015281816105cd01526108a301526000818161011f0152818161018e01528181610e1301528181610e5101528181610fd60152610fff01526118756000f3fe608060405234801561001057600080fd5b50600436106100cf5760003560e01c8062fdd58e146100d457806301ffc9a7146100fa5780632b4c9f161461011d5780634dfde97a14610157578063572b6c051461017e57806373c8a958146101be57806381c197ed146101d35780638da5cb5b146101e6578063bc197c81146101ee578063c3666c361461021a578063c4c2bfdc1461022d578063f223885a14610235578063f23a6e6114610248578063f2fde38b1461025b578063f7ba94bd1461026e578063f997659a14610281575b600080fd5b6100e76100e236600461126d565b6102a9565b6040519081526020015b60405180910390f35b61010d610108366004611299565b6102d2565b60405190151581526020016100f1565b7f00000000000000000000000000000000000000000000000000000000000000005b6040516001600160a01b0390911681526020016100f1565b61013f7f000000000000000000000000000000000000000000000000000000000000000081565b61010d61018c3660046112ca565b7f00000000000000000000000000000000000000000000000000000000000000006001600160a01b0390811691161490565b6101d16101cc366004611332565b6102e6565b005b6101d16101e13660046113cb565b6103c9565b61013f6105a1565b6102016101fc366004611477565b6105c0565b6040516001600160e01b031990911681526020016100f1565b6101d1610228366004611332565b610737565b6101d1610860565b6101d16102433660046113cb565b6108a1565b610201610256366004611535565b61092c565b6101d16102693660046112ca565b610947565b6101d161027c3660046113cb565b610965565b6100e761028f36600461126d565b600060208181529281526040808220909352908152205481565b6001600160a01b0382166000908152602081815260408083208484529091529020545b92915050565b60006102cc826102e0610a8e565b90610b47565b6102ff6102f1610ba7565b6102f96109fc565b90610bb1565b84838114801561030e57508082145b6103335760405162461bcd60e51b815260040161032a9061159e565b60405180910390fd5b60005b8181146103bf576103b7888883818110610352576103526115d5565b905060200201602081019061036791906112ca565b858584818110610379576103796115d5565b90506020020135888885818110610392576103926115d5565b90506020020160208101906103a791906112ca565b6001600160a01b03169190610bdd565b600101610336565b5050505050505050565b8281146103e9576040516335e83ac360e01b815260040160405180910390fd5b60006103f3610ba7565b905060005b848110156104ce576000868683818110610414576104146115d5565b9050602002013590506000858584818110610431576104316115d5565b6001600160a01b03871660009081526020818152604080832088845282529091205491029290920135925050818110156104885760405163cf47918160e01b8152600481018490526024810182905260440161032a565b6104928282611601565b6001600160a01b0386166000908152602081815260408083209683529590529390932092909255508190506104c681611614565b9150506103f8565b50806001600160a01b03167f651c6d84833866465bf050fea9fb84dc59faf4fc13d4607553b539e31e53ff02868660405161050a92919061165f565b60405180910390a2604051631759616b60e11b81526001600160a01b037f00000000000000000000000000000000000000000000000000000000000000001690632eb2c2d69061056890309085908a908a908a908a90600401611673565b600060405180830381600087803b15801561058257600080fd5b505af1158015610596573d6000803e3d6000fd5b505050505050505050565b60006105bb6105ae6109fc565b546001600160a01b031690565b905090565b6000336001600160a01b037f0000000000000000000000000000000000000000000000000000000000000000161461060b57604051636524d08b60e01b815260040160405180910390fd5b60005b868110156106de57600088888381811061062a5761062a6115d5565b9050602002013590506000878784818110610647576106476115d5565b6001600160a01b038e1660009081526020818152604080832088845282529091205461067a9491909202013591506116d2565b905060018111156106a85760405163f4dcf56b60e01b8152600481018390526024810182905260440161032a565b6001600160a01b038b166000908152602081815260408083209483529390529190912055806106d681611614565b91505061060e565b50876001600160a01b03167fd4960fb57883d065fb41b7f993f9be3105af91fe2b595a398457e1ff226cdc50888860405161071a92919061165f565b60405180910390a25063bc197c8160e01b98975050505050505050565b6107426102f1610ba7565b84838114801561075157508082145b61076d5760405162461bcd60e51b815260040161032a9061159e565b60005b8181146103bf57858582818110610789576107896115d5565b905060200201602081019061079e91906112ca565b6001600160a01b03166323b872dd308a8a858181106107bf576107bf6115d5565b90506020020160208101906107d491906112ca565b8787868181106107e6576107e66115d5565b6040516001600160e01b031960e088901b1681526001600160a01b03958616600482015294909316602485015250602090910201356044820152606401600060405180830381600087803b15801561083d57600080fd5b505af1158015610851573d6000803e3d6000fd5b50505050806001019050610770565b7f0b76c48be4e2908f4c9d4eabaf7538e91577fd9ae26db46693fa8d861c6a42fb610889610c34565b6040516108979291906116e5565b60405180910390a1565b7f00000000000000000000000000000000000000000000000000000000000000006001600160a01b0316632eb2c2d66108d8610ba7565b30878787876040518763ffffffff1660e01b81526004016108fe96959493929190611673565b600060405180830381600087803b15801561091857600080fd5b505af11580156103bf573d6000803e3d6000fd5b600060405163036a2f6360e31b815260040160405180910390fd5b610962610952610ba7565b8261095b6109fc565b9190610c47565b50565b6109706102f1610ba7565b828181146109905760405162461bcd60e51b815260040161032a9061159e565b60005b8181146109f4576109ec8484838181106109af576109af6115d5565b905060200201358787848181106109c8576109c86115d5565b90506020020160208101906109dd91906112ca565b6001600160a01b031690610ccc565b600101610993565b505050505050565b6000806102cc60017fc9ed16f33ab3a66c84bfd83099ccb2a8845871e2e1c1928f63797152f0fd54cd611601565b6001600160a01b03811615610a6e5781546001600160a01b0319166001600160a01b0382169081178355604051600090600080516020611820833981519152908290a35b610a8a6307f5828d60e41b6001610a83610a8e565b9190610abc565b5050565b6000806102cc60017fca9d3e17f264b0f3984e2634e94adb37fa3e6a8103f06aeae6fa59e21c769f5e611601565b600160e01b6001600160e01b0319831601610b195760405162461bcd60e51b815260206004820152601f60248201527f496e74657266616365446574656374696f6e3a2077726f6e672076616c756500604482015260640161032a565b6001600160e01b03199190911660009081526020929092526040909120805460ff1916911515919091179055565b6000600160e01b6001600160e01b0319831601610b66575060006102cc565b63fe00365960e01b6001600160e01b0319831601610b86575060016102cc565b506001600160e01b0319166000908152602091909152604090205460ff1690565b60006105bb610de2565b81546001600160a01b03828116911614610a8a5760405162461bcd60e51b815260040161032a90611714565b604080516001600160a01b038416602482015260448082018490528251808303909101815260649091019091526020810180516001600160e01b031663a9059cbb60e01b179052610c2f908490610eda565b505050565b366000610c3f610fac565b915091509091565b82546001600160a01b039081169083168114610c755760405162461bcd60e51b815260040161032a90611714565b816001600160a01b0316816001600160a01b031614610cc65783546001600160a01b0319166001600160a01b0383811691821786556040519083169060008051602061182083398151915290600090a35b50505050565b80471015610d1c5760405162461bcd60e51b815260206004820152601d60248201527f416464726573733a20696e73756666696369656e742062616c616e6365000000604482015260640161032a565b6000826001600160a01b03168260405160006040518083038185875af1925050503d8060008114610d69576040519150601f19603f3d011682016040523d82523d6000602084013e610d6e565b606091505b5050905080610c2f5760405162461bcd60e51b815260206004820152603a60248201527f416464726573733a20756e61626c6520746f2073656e642076616c75652c20726044820152791958da5c1a595b9d081b585e481a185d99481c995d995c9d195960321b606482015260840161032a565b600033321480610df25750601836105b15610dfc57503390565b6000610e066110a9565b9050336001600160a01b037f0000000000000000000000000000000000000000000000000000000000000000161480610ec95750604051634494d46560e11b81526001600160a01b037f00000000000000000000000000000000000000000000000000000000000000001690638929a8ca90610e889084903390600401611746565b602060405180830381865afa158015610ea5573d6000803e3d6000fd5b505050506040513d601f19601f82011682018060405250810190610ec99190611760565b15610ed357919050565b3391505090565b6000610f2f826040518060400160405280602081526020017f5361666545524332303a206c6f772d6c6576656c2063616c6c206661696c6564815250856001600160a01b03166110b59092919063ffffffff16565b805190915015610c2f5780806020019051810190610f4d9190611760565b610c2f5760405162461bcd60e51b815260206004820152602a60248201527f5361666545524332303a204552433230206f7065726174696f6e20646964206e6044820152691bdd081cdd58d8d9595960b21b606482015260840161032a565b36600033321480610fbd5750601836105b15610fcb5750600091369150565b336001600160a01b037f000000000000000000000000000000000000000000000000000000000000000016148061109357507f00000000000000000000000000000000000000000000000000000000000000006001600160a01b0316638929a8ca6110346110a9565b336040518363ffffffff1660e01b8152600401611052929190611746565b602060405180830381865afa15801561106f573d6000803e3d6000fd5b505050506040513d601f19601f820116820180604052508101906110939190611760565b156110a057610c3f6110cc565b50600091369150565b60131936013560601c90565b60606110c484846000856110df565b949350505050565b366000610c3f6013198301828481611782565b6060824710156111405760405162461bcd60e51b815260206004820152602660248201527f416464726573733a20696e73756666696369656e742062616c616e636520666f6044820152651c8818d85b1b60d21b606482015260840161032a565b600080866001600160a01b0316858760405161115c91906117d0565b60006040518083038185875af1925050503d8060008114611199576040519150601f19603f3d011682016040523d82523d6000602084013e61119e565b606091505b50915091506111af878383876111ba565b979650505050505050565b60608315611229578251600003611222576001600160a01b0385163b6112225760405162461bcd60e51b815260206004820152601d60248201527f416464726573733a2063616c6c20746f206e6f6e2d636f6e7472616374000000604482015260640161032a565b50816110c4565b6110c4838381511561123e5781518083602001fd5b8060405162461bcd60e51b815260040161032a91906117ec565b6001600160a01b038116811461096257600080fd5b6000806040838503121561128057600080fd5b823561128b81611258565b946020939093013593505050565b6000602082840312156112ab57600080fd5b81356001600160e01b0319811681146112c357600080fd5b9392505050565b6000602082840312156112dc57600080fd5b81356112c381611258565b60008083601f8401126112f957600080fd5b5081356001600160401b0381111561131057600080fd5b6020830191508360208260051b850101111561132b57600080fd5b9250929050565b6000806000806000806060878903121561134b57600080fd5b86356001600160401b038082111561136257600080fd5b61136e8a838b016112e7565b9098509650602089013591508082111561138757600080fd5b6113938a838b016112e7565b909650945060408901359150808211156113ac57600080fd5b506113b989828a016112e7565b979a9699509497509295939492505050565b600080600080604085870312156113e157600080fd5b84356001600160401b03808211156113f857600080fd5b611404888389016112e7565b9096509450602087013591508082111561141d57600080fd5b5061142a878288016112e7565b95989497509550505050565b60008083601f84011261144857600080fd5b5081356001600160401b0381111561145f57600080fd5b60208301915083602082850101111561132b57600080fd5b60008060008060008060008060a0898b03121561149357600080fd5b883561149e81611258565b975060208901356114ae81611258565b965060408901356001600160401b03808211156114ca57600080fd5b6114d68c838d016112e7565b909850965060608b01359150808211156114ef57600080fd5b6114fb8c838d016112e7565b909650945060808b013591508082111561151457600080fd5b506115218b828c01611436565b999c989b5096995094979396929594505050565b60008060008060008060a0878903121561154e57600080fd5b863561155981611258565b9550602087013561156981611258565b9450604087013593506060870135925060808701356001600160401b0381111561159257600080fd5b6113b989828a01611436565b6020808252601d908201527f5265636f766572793a20696e636f6e73697374656e7420617272617973000000604082015260600190565b634e487b7160e01b600052603260045260246000fd5b634e487b7160e01b600052601160045260246000fd5b818103818111156102cc576102cc6115eb565b600060018201611626576116266115eb565b5060010190565b81835260006001600160fb1b0383111561164657600080fd5b8260051b80836020870137939093016020019392505050565b6020815260006110c460208301848661162d565b6001600160a01b0387811682528616602082015260a0604082018190526000906116a0908301868861162d565b82810360608401526116b381858761162d565b8381036080909401939093525050600081526020019695505050505050565b808201808211156102cc576102cc6115eb565b60208152816020820152818360408301376000818301604090810191909152601f909201601f19160101919050565b60208082526018908201527727bbb732b939b434b81d103737ba103a34329037bbb732b960411b604082015260600190565b6001600160a01b0392831681529116602082015260400190565b60006020828403121561177257600080fd5b815180151581146112c357600080fd5b6000808585111561179257600080fd5b8386111561179f57600080fd5b5050820193919092039150565b60005b838110156117c75781810151838201526020016117af565b50506000910152565b600082516117e28184602087016117ac565b9190910192915050565b602081526000825180602084015261180b8160408501602087016117ac565b601f01601f1916919091016040019291505056fe8be0079c531659141344cd1fd0a4f28419497f9722a3daafe3b4186f6b6457e0a264697066735822122034cc647a760667a019f7c66ceb962c1f9742bcc46f044a8d47ae590fc3f8d28864736f6c63430008110033",
  "linkReferences": {},
  "deployedLinkReferences": {}
}