{
  "_format": "hh-sol-artifact-1",
  "contractName": "TokenEscrowMock",
  "sourceName": "contracts/mocks/TokenEscrow/TokenEscrowMock.sol",
  "abi": [
    {
      "inputs": [
        {
          "internalType": "contract IForwarderRegistry",
          "name": "forwarderRegistry",
          "type": "address"
        },
        {
          "internalType": "address",
          "name": "inventory_",
          "type": "address"
        }
      ],
      "stateMutability": "nonpayable",
      "type": "constructor"
    },
    {
      "inputs": [],
      "name": "InsufficientBalance",
      "type": "error"
    },
    {
      "inputs": [
        {
          "internalType": "uint256",
          "name": "tokenId",
          "type": "uint256"
        },
        {
          "internalType": "uint256",
          "name": "amount",
          "type": "uint256"
        }
      ],
      "name": "InvalidAmount",
      "type": "error"
    },
    {
      "inputs": [],
      "name": "InvalidInputParams",
      "type": "error"
    },
    {
      "inputs": [],
      "name": "InvalidInventory",
      "type": "error"
    },
    {
      "anonymous": false,
      "inputs": [
        {
          "indexed": false,
          "internalType": "bytes",
          "name": "data",
          "type": "bytes"
        },
        {
          "indexed": false,
          "internalType": "uint256",
          "name": "integerValue",
          "type": "uint256"
        },
        {
          "indexed": false,
          "internalType": "string",
          "name": "stringValue",
          "type": "string"
        }
      ],
      "name": "Data",
      "type": "event"
    },
    {
      "anonymous": false,
      "inputs": [
        {
          "indexed": false,
          "internalType": "bytes",
          "name": "data",
          "type": "bytes"
        }
      ],
      "name": "DataShort",
      "type": "event"
    },
    {
      "anonymous": false,
      "inputs": [
        {
          "indexed": true,
          "internalType": "address",
          "name": "user",
          "type": "address"
        },
        {
          "indexed": true,
          "internalType": "uint256",
          "name": "id",
          "type": "uint256"
        }
      ],
      "name": "DepositToken",
      "type": "event"
    },
    {
      "anonymous": false,
      "inputs": [
        {
          "indexed": true,
          "internalType": "address",
          "name": "previousOwner",
          "type": "address"
        },
        {
          "indexed": true,
          "internalType": "address",
          "name": "newOwner",
          "type": "address"
        }
      ],
      "name": "OwnershipTransferred",
      "type": "event"
    },
    {
      "anonymous": false,
      "inputs": [
        {
          "indexed": false,
          "internalType": "address",
          "name": "sender",
          "type": "address"
        }
      ],
      "name": "Sender",
      "type": "event"
    },
    {
      "anonymous": false,
      "inputs": [
        {
          "indexed": true,
          "internalType": "address",
          "name": "user",
          "type": "address"
        },
        {
          "indexed": true,
          "internalType": "uint256",
          "name": "id",
          "type": "uint256"
        }
      ],
      "name": "WithdrawToken",
      "type": "event"
    },
    {
      "inputs": [],
      "name": "TOKEN_INVENTORY",
      "outputs": [
        {
          "internalType": "contract IERC1155",
          "name": "",
          "type": "address"
        }
      ],
      "stateMutability": "view",
      "type": "function"
    },
    {
      "inputs": [
        {
          "internalType": "uint256[]",
          "name": "ids",
          "type": "uint256[]"
        },
        {
          "internalType": "uint256[]",
          "name": "values",
          "type": "uint256[]"
        }
      ],
      "name": "deposit",
      "outputs": [],
      "stateMutability": "nonpayable",
      "type": "function"
    },
    {
      "inputs": [
        {
          "internalType": "address",
          "name": "",
          "type": "address"
        },
        {
          "internalType": "uint256",
          "name": "",
          "type": "uint256"
        }
      ],
      "name": "escrowedNFTs",
      "outputs": [
        {
          "internalType": "uint256",
          "name": "",
          "type": "uint256"
        }
      ],
      "stateMutability": "view",
      "type": "function"
    },
    {
      "inputs": [],
      "name": "forwarderRegistry",
      "outputs": [
        {
          "internalType": "contract IForwarderRegistry",
          "name": "",
          "type": "address"
        }
      ],
      "stateMutability": "view",
      "type": "function"
    },
    {
      "inputs": [
        {
          "internalType": "address",
          "name": "forwarder",
          "type": "address"
        }
      ],
      "name": "isTrustedForwarder",
      "outputs": [
        {
          "internalType": "bool",
          "name": "",
          "type": "bool"
        }
      ],
      "stateMutability": "view",
      "type": "function"
    },
    {
      "inputs": [
        {
          "internalType": "uint256",
          "name": "integerValue",
          "type": "uint256"
        },
        {
          "internalType": "string",
          "name": "stringValue",
          "type": "string"
        }
      ],
      "name": "msgData",
      "outputs": [],
      "stateMutability": "nonpayable",
      "type": "function"
    },
    {
      "inputs": [],
      "name": "msgDataShort",
      "outputs": [],
      "stateMutability": "nonpayable",
      "type": "function"
    },
    {
      "inputs": [],
      "name": "msgSender",
      "outputs": [],
      "stateMutability": "nonpayable",
      "type": "function"
    },
    {
      "inputs": [
        {
          "internalType": "address",
          "name": "",
          "type": "address"
        },
        {
          "internalType": "address",
          "name": "from",
          "type": "address"
        },
        {
          "internalType": "uint256[]",
          "name": "ids",
          "type": "uint256[]"
        },
        {
          "internalType": "uint256[]",
          "name": "values",
          "type": "uint256[]"
        },
        {
          "internalType": "bytes",
          "name": "",
          "type": "bytes"
        }
      ],
      "name": "onERC1155BatchReceived",
      "outputs": [
        {
          "internalType": "bytes4",
          "name": "",
          "type": "bytes4"
        }
      ],
      "stateMutability": "nonpayable",
      "type": "function"
    },
    {
      "inputs": [
        {
          "internalType": "address",
          "name": "",
          "type": "address"
        },
        {
          "internalType": "address",
          "name": "from",
          "type": "address"
        },
        {
          "internalType": "uint256",
          "name": "id",
          "type": "uint256"
        },
        {
          "internalType": "uint256",
          "name": "value",
          "type": "uint256"
        },
        {
          "internalType": "bytes",
          "name": "",
          "type": "bytes"
        }
      ],
      "name": "onERC1155Received",
      "outputs": [
        {
          "internalType": "bytes4",
          "name": "",
          "type": "bytes4"
        }
      ],
      "stateMutability": "nonpayable",
      "type": "function"
    },
    {
      "inputs": [],
      "name": "owner",
      "outputs": [
        {
          "internalType": "address",
          "name": "",
          "type": "address"
        }
      ],
      "stateMutability": "view",
      "type": "function"
    },
    {
      "inputs": [
        {
          "internalType": "address[]",
          "name": "accounts",
          "type": "address[]"
        },
        {
          "internalType": "contract IERC20[]",
          "name": "tokens",
          "type": "address[]"
        },
        {
          "internalType": "uint256[]",
          "name": "amounts",
          "type": "uint256[]"
        }
      ],
      "name": "recoverERC20s",
      "outputs": [],
      "stateMutability": "nonpayable",
      "type": "function"
    },
    {
      "inputs": [
        {
          "internalType": "address[]",
          "name": "accounts",
          "type": "address[]"
        },
        {
          "internalType": "contract IERC721[]",
          "name": "contracts",
          "type": "address[]"
        },
        {
          "internalType": "uint256[]",
          "name": "tokenIds",
          "type": "uint256[]"
        }
      ],
      "name": "recoverERC721s",
      "outputs": [],
      "stateMutability": "nonpayable",
      "type": "function"
    },
    {
      "inputs": [
        {
          "internalType": "address payable[]",
          "name": "accounts",
          "type": "address[]"
        },
        {
          "internalType": "uint256[]",
          "name": "amounts",
          "type": "uint256[]"
        }
      ],
      "name": "recoverETH",
      "outputs": [],
      "stateMutability": "nonpayable",
      "type": "function"
    },
    {
      "inputs": [
        {
          "internalType": "bytes4",
          "name": "interfaceId",
          "type": "bytes4"
        }
      ],
      "name": "supportsInterface",
      "outputs": [
        {
          "internalType": "bool",
          "name": "",
          "type": "bool"
        }
      ],
      "stateMutability": "view",
      "type": "function"
    },
    {
      "inputs": [
        {
          "internalType": "address",
          "name": "newOwner",
          "type": "address"
        }
      ],
      "name": "transferOwnership",
      "outputs": [],
      "stateMutability": "nonpayable",
      "type": "function"
    },
    {
      "inputs": [
        {
          "internalType": "uint256[]",
          "name": "ids",
          "type": "uint256[]"
        },
        {
          "internalType": "uint256[]",
          "name": "values",
          "type": "uint256[]"
        }
      ],
      "name": "withdraw",
      "outputs": [],
      "stateMutability": "nonpayable",
      "type": "function"
    }
  ],
  "bytecode": "0x60c06040523480156200001157600080fd5b50604051620020583803806200205883398101604081905262000034916200039b565b818162000040620000f3565b6001600160a01b0383166080526200007c81620000686200010f602090811b62000c0c17901c565b6200014560201b62000c3a1790919060201c565b50620000b5630271189760e51b6001620000a0620001c360201b62000c9e1760201c565b620001f360201b62000ccc179092919060201c565b6001600160a01b038116620000dd57604051636524d08b60e01b815260040160405180910390fd5b6001600160a01b031660a0525062000427915050565b60006200010a6200028360201b62000d571760201c565b905090565b6000806200013f60017fc9ed16f33ab3a66c84bfd83099ccb2a8845871e2e1c1928f63797152f0fd54cd620003da565b92915050565b6001600160a01b038116156200019c5781546001600160a01b0319166001600160a01b03821690811783556040516000907f8be0079c531659141344cd1fd0a4f28419497f9722a3daafe3b4186f6b6457e0908290a35b620001bf6307f5828d60e41b6001620000a0620001c360201b62000c9e1760201c565b5050565b6000806200013f60017fca9d3e17f264b0f3984e2634e94adb37fa3e6a8103f06aeae6fa59e21c769f5e620003da565b600160e01b6001600160e01b0319831601620002555760405162461bcd60e51b815260206004820152601f60248201527f496e74657266616365446574656374696f6e3a2077726f6e672076616c756500604482015260640160405180910390fd5b6001600160e01b03199190911660009081526020929092526040909120805460ff1916911515919091179055565b60006200010a6200029a60201b62000d5d1760201c565b600033321480620002ab5750601836105b15620002b657503390565b6000620002cd6200037660201b62000e551760201c565b90506080516001600160a01b0316336001600160a01b03161480620003645750608051604051634494d46560e11b81526001600160a01b03838116600483015233602483015290911690638929a8ca90604401602060405180830381865afa1580156200033e573d6000803e3d6000fd5b505050506040513d601f19601f82011682018060405250810190620003649190620003fc565b156200036f57919050565b3391505090565b60131936013560601c90565b6001600160a01b03811681146200039857600080fd5b50565b60008060408385031215620003af57600080fd5b8251620003bc8162000382565b6020840151909250620003cf8162000382565b809150509250929050565b818103818111156200013f57634e487b7160e01b600052601160045260246000fd5b6000602082840312156200040f57600080fd5b815180151581146200042057600080fd5b9392505050565b60805160a051611bcc6200048c6000396000818161015101528181610543015281816105de0152818161095e01526109eb01526000818161010a0152818161018301528181610d8e01528181610dcc01528181611203015261122c0152611bcc6000f3fe608060405234801561001057600080fd5b50600436106100db5760003560e01c806301ffc9a7146100e05780632b4c9f1614610108578063376bf262146101375780634dfde97a1461014c578063572b6c051461017357806373c8a958146101b357806381c197ed146101c65780638da5cb5b146101d9578063bc197c81146101e1578063c3666c361461020d578063d737d0c714610220578063f223885a14610228578063f23a6e611461023b578063f2fde38b1461024e578063f7ba94bd14610261578063f997659a14610274578063ff5f6b59146102aa575b600080fd5b6100f36100ee366004611479565b6102b2565b60405190151581526020015b60405180910390f35b7f00000000000000000000000000000000000000000000000000000000000000005b6040516100ff91906114aa565b61014a6101453660046114d4565b6102cc565b005b61012a7f000000000000000000000000000000000000000000000000000000000000000081565b6100f36101813660046115a3565b7f00000000000000000000000000000000000000000000000000000000000000006001600160a01b0390811691161490565b61014a6101c136600461160b565b610313565b61014a6101d43660046116a4565b6103f6565b61012a6105bb565b6101f46101ef366004611750565b6105da565b6040516001600160e01b031990911681526020016100ff565b61014a61021b36600461160b565b6107f3565b61014a61091c565b61014a6102363660046116a4565b61095c565b6101f461024936600461180e565b6109e7565b61014a61025c3660046115a3565b610b20565b61014a61026f3660046116a4565b610b3e565b61029c610282366004611877565b600060208181529281526040808220909352908152205481565b6040519081526020016100ff565b61014a610bd5565b60006102c6826102c0610c9e565b90610e61565b92915050565b7faf235354a0a47c91ee171961326335cb2d1a8e55b8a89859b0e61eb049e50ea06102f5610ec1565b8484604051610307949392919061191c565b60405180910390a15050565b61032c61031e610ed4565b610326610c0c565b90610ede565b84838114801561033b57508082145b6103605760405162461bcd60e51b815260040161035790611948565b60405180910390fd5b60005b8181146103ec576103e488888381811061037f5761037f61197f565b905060200201602081019061039491906115a3565b8585848181106103a6576103a661197f565b905060200201358888858181106103bf576103bf61197f565b90506020020160208101906103d491906115a3565b6001600160a01b03169190610f0a565b600101610363565b5050505050505050565b8281146104165760405163e2a15fa360e01b815260040160405180910390fd5b6000610420610ed4565b905060005b8481101561052b5760008686838181106104415761044161197f565b905060200201359050600085858481811061045e5761045e61197f565b6001600160a01b038716600090815260208181526040808320888452825290912054910292909201359250508111156104aa57604051631e9acf1760e31b815260040160405180910390fd5b6001600160a01b038416600090815260208181526040808320858452909152812080548392906104db9084906119ab565b909155505060405182906001600160a01b038616907f992ee874049a42cae0757a765cd7f641b6028cc35c3478bde8330bf417c3a7a990600090a350508080610523906119be565b915050610425565b50604051631759616b60e11b81526001600160a01b037f00000000000000000000000000000000000000000000000000000000000000001690632eb2c2d69061058290309085908a908a908a908a90600401611a09565b600060405180830381600087803b15801561059c57600080fd5b505af11580156105b0573d6000803e3d6000fd5b505050505050505050565b60006105d56105c8610c0c565b546001600160a01b031690565b905090565b60007f00000000000000000000000000000000000000000000000000000000000000006001600160a01b031661060e610ed4565b6001600160a01b03161461063557604051636524d08b60e01b815260040160405180910390fd5b60005b868110156107dd578585828181106106525761065261197f565b905060200201356000808b6001600160a01b03166001600160a01b0316815260200190815260200160002060008a8a858181106106915761069161197f565b90506020020135815260200190815260200160002060008282546106b59190611a68565b90915550506001600160a01b03891660009081526020819052604081206001918a8a858181106106e7576106e761197f565b90506020020135815260200190815260200160002054111561078e578787828181106107155761071561197f565b905060200201356000808b6001600160a01b03166001600160a01b0316815260200190815260200160002060008a8a858181106107545761075461197f565b905060200201358152602001908152602001600020546040516307c83fcf60e41b8152600401610357929190918252602082015260400190565b8787828181106107a0576107a061197f565b90506020020135896001600160a01b0316600080516020611b5783398151915260405160405180910390a3806107d5816119be565b915050610638565b5063bc197c8160e01b9998505050505050505050565b6107fe61031e610ed4565b84838114801561080d57508082145b6108295760405162461bcd60e51b815260040161035790611948565b60005b8181146103ec578585828181106108455761084561197f565b905060200201602081019061085a91906115a3565b6001600160a01b03166323b872dd308a8a8581811061087b5761087b61197f565b905060200201602081019061089091906115a3565b8787868181106108a2576108a261197f565b6040516001600160e01b031960e088901b1681526001600160a01b03958616600482015294909316602485015250602090910201356044820152606401600060405180830381600087803b1580156108f957600080fd5b505af115801561090d573d6000803e3d6000fd5b5050505080600101905061082c565b7fd6558c3ed910d959271054471fd1c326679d9fece99c5091b00ed89627cf2bfc610945610ed4565b60405161095291906114aa565b60405180910390a1565b7f00000000000000000000000000000000000000000000000000000000000000006001600160a01b0316632eb2c2d6610993610ed4565b30878787876040518763ffffffff1660e01b81526004016109b996959493929190611a09565b600060405180830381600087803b1580156109d357600080fd5b505af11580156103ec573d6000803e3d6000fd5b60007f00000000000000000000000000000000000000000000000000000000000000006001600160a01b0316610a1b610ed4565b6001600160a01b031614610a4257604051636524d08b60e01b815260040160405180910390fd5b6001600160a01b03861660009081526020818152604080832088845290915281208054869290610a73908490611a68565b90915550506001600160a01b03861660009081526020818152604080832088845290915290205460011015610ae9576001600160a01b038616600090815260208181526040808320888452909152908190205490516307c83fcf60e41b8152610357918791600401918252602082015260400190565b60405185906001600160a01b03881690600080516020611b5783398151915290600090a35063f23a6e6160e01b9695505050505050565b610b3b610b2b610ed4565b82610b34610c0c565b9190610f61565b50565b610b4961031e610ed4565b82818114610b695760405162461bcd60e51b815260040161035790611948565b60005b818114610bcd57610bc5848483818110610b8857610b8861197f565b90506020020135878784818110610ba157610ba161197f565b9050602002016020810190610bb691906115a3565b6001600160a01b031690610fe6565b600101610b6c565b505050505050565b7f6d7cec71eba467294d92341ddc4e8634eb4d742a90e16f408f06e4b70bc4cd66610bfe610ec1565b604051610952929190611a7b565b6000806102c660017fc9ed16f33ab3a66c84bfd83099ccb2a8845871e2e1c1928f63797152f0fd54cd6119ab565b6001600160a01b03811615610c7e5781546001600160a01b0319166001600160a01b0382169081178355604051600090600080516020611b77833981519152908290a35b610c9a6307f5828d60e41b6001610c93610c9e565b9190610ccc565b5050565b6000806102c660017fca9d3e17f264b0f3984e2634e94adb37fa3e6a8103f06aeae6fa59e21c769f5e6119ab565b600160e01b6001600160e01b0319831601610d295760405162461bcd60e51b815260206004820152601f60248201527f496e74657266616365446574656374696f6e3a2077726f6e672076616c7565006044820152606401610357565b6001600160e01b03199190911660009081526020929092526040909120805460ff1916911515919091179055565b60006105d55b600033321480610d6d5750601836105b15610d7757503390565b6000610d81610e55565b9050336001600160a01b037f0000000000000000000000000000000000000000000000000000000000000000161480610e445750604051634494d46560e11b81526001600160a01b037f00000000000000000000000000000000000000000000000000000000000000001690638929a8ca90610e039084903390600401611a8f565b602060405180830381865afa158015610e20573d6000803e3d6000fd5b505050506040513d601f19601f82011682018060405250810190610e449190611aa9565b15610e4e57919050565b3391505090565b60131936013560601c90565b6000600160e01b6001600160e01b0319831601610e80575060006102c6565b63fe00365960e01b6001600160e01b0319831601610ea0575060016102c6565b506001600160e01b0319166000908152602091909152604090205460ff1690565b366000610ecc6110fc565b915091509091565b60006105d5610d57565b81546001600160a01b03828116911614610c9a5760405162461bcd60e51b815260040161035790611acb565b604080516001600160a01b038416602482015260448082018490528251808303909101815260649091019091526020810180516001600160e01b031663a9059cbb60e01b179052610f5c908490611107565b505050565b82546001600160a01b039081169083168114610f8f5760405162461bcd60e51b815260040161035790611acb565b816001600160a01b0316816001600160a01b031614610fe05783546001600160a01b0319166001600160a01b03838116918217865560405190831690600080516020611b7783398151915290600090a35b50505050565b804710156110365760405162461bcd60e51b815260206004820152601d60248201527f416464726573733a20696e73756666696369656e742062616c616e63650000006044820152606401610357565b6000826001600160a01b03168260405160006040518083038185875af1925050503d8060008114611083576040519150601f19603f3d011682016040523d82523d6000602084013e611088565b606091505b5050905080610f5c5760405162461bcd60e51b815260206004820152603a60248201527f416464726573733a20756e61626c6520746f2073656e642076616c75652c20726044820152791958da5c1a595b9d081b585e481a185d99481c995d995c9d195960321b6064820152608401610357565b366000610ecc6111d9565b600061115c826040518060400160405280602081526020017f5361666545524332303a206c6f772d6c6576656c2063616c6c206661696c6564815250856001600160a01b03166112d69092919063ffffffff16565b805190915015610f5c578080602001905181019061117a9190611aa9565b610f5c5760405162461bcd60e51b815260206004820152602a60248201527f5361666545524332303a204552433230206f7065726174696f6e20646964206e6044820152691bdd081cdd58d8d9595960b21b6064820152608401610357565b366000333214806111ea5750601836105b156111f85750600091369150565b336001600160a01b037f00000000000000000000000000000000000000000000000000000000000000001614806112c057507f00000000000000000000000000000000000000000000000000000000000000006001600160a01b0316638929a8ca611261610e55565b336040518363ffffffff1660e01b815260040161127f929190611a8f565b602060405180830381865afa15801561129c573d6000803e3d6000fd5b505050506040513d601f19601f820116820180604052508101906112c09190611aa9565b156112cd57610ecc6112ed565b50600091369150565b60606112e58484600085611300565b949350505050565b366000610ecc6013198301828481611afd565b6060824710156113615760405162461bcd60e51b815260206004820152602660248201527f416464726573733a20696e73756666696369656e742062616c616e636520666f6044820152651c8818d85b1b60d21b6064820152608401610357565b600080866001600160a01b0316858760405161137d9190611b27565b60006040518083038185875af1925050503d80600081146113ba576040519150601f19603f3d011682016040523d82523d6000602084013e6113bf565b606091505b50915091506113d0878383876113db565b979650505050505050565b6060831561144a578251600003611443576001600160a01b0385163b6114435760405162461bcd60e51b815260206004820152601d60248201527f416464726573733a2063616c6c20746f206e6f6e2d636f6e74726163740000006044820152606401610357565b50816112e5565b6112e5838381511561145f5781518083602001fd5b8060405162461bcd60e51b81526004016103579190611b43565b60006020828403121561148b57600080fd5b81356001600160e01b0319811681146114a357600080fd5b9392505050565b6001600160a01b0391909116815260200190565b634e487b7160e01b600052604160045260246000fd5b600080604083850312156114e757600080fd5b8235915060208301356001600160401b038082111561150557600080fd5b818501915085601f83011261151957600080fd5b81358181111561152b5761152b6114be565b604051601f8201601f19908116603f01168101908382118183101715611553576115536114be565b8160405282815288602084870101111561156c57600080fd5b8260208601602083013760006020848301015280955050505050509250929050565b6001600160a01b0381168114610b3b57600080fd5b6000602082840312156115b557600080fd5b81356114a38161158e565b60008083601f8401126115d257600080fd5b5081356001600160401b038111156115e957600080fd5b6020830191508360208260051b850101111561160457600080fd5b9250929050565b6000806000806000806060878903121561162457600080fd5b86356001600160401b038082111561163b57600080fd5b6116478a838b016115c0565b9098509650602089013591508082111561166057600080fd5b61166c8a838b016115c0565b9096509450604089013591508082111561168557600080fd5b5061169289828a016115c0565b979a9699509497509295939492505050565b600080600080604085870312156116ba57600080fd5b84356001600160401b03808211156116d157600080fd5b6116dd888389016115c0565b909650945060208701359150808211156116f657600080fd5b50611703878288016115c0565b95989497509550505050565b60008083601f84011261172157600080fd5b5081356001600160401b0381111561173857600080fd5b60208301915083602082850101111561160457600080fd5b60008060008060008060008060a0898b03121561176c57600080fd5b88356117778161158e565b975060208901356117878161158e565b965060408901356001600160401b03808211156117a357600080fd5b6117af8c838d016115c0565b909850965060608b01359150808211156117c857600080fd5b6117d48c838d016115c0565b909650945060808b01359150808211156117ed57600080fd5b506117fa8b828c0161170f565b999c989b5096995094979396929594505050565b60008060008060008060a0878903121561182757600080fd5b86356118328161158e565b955060208701356118428161158e565b9450604087013593506060870135925060808701356001600160401b0381111561186b57600080fd5b61169289828a0161170f565b6000806040838503121561188a57600080fd5b82356118958161158e565b946020939093013593505050565b81835281816020850137506000828201602090810191909152601f909101601f19169091010190565b60005b838110156118e75781810151838201526020016118cf565b50506000910152565b600081518084526119088160208601602086016118cc565b601f01601f19169290920160200192915050565b6060815260006119306060830186886118a3565b84602084015282810360408401526113d081856118f0565b6020808252601d908201527f5265636f766572793a20696e636f6e73697374656e7420617272617973000000604082015260600190565b634e487b7160e01b600052603260045260246000fd5b634e487b7160e01b600052601160045260246000fd5b818103818111156102c6576102c6611995565b6000600182016119d0576119d0611995565b5060010190565b81835260006001600160fb1b038311156119f057600080fd5b8260051b80836020870137939093016020019392505050565b6001600160a01b0387811682528616602082015260a060408201819052600090611a3690830186886119d7565b8281036060840152611a498185876119d7565b8381036080909401939093525050600081526020019695505050505050565b808201808211156102c6576102c6611995565b6020815260006112e56020830184866118a3565b6001600160a01b0392831681529116602082015260400190565b600060208284031215611abb57600080fd5b815180151581146114a357600080fd5b60208082526018908201527727bbb732b939b434b81d103737ba103a34329037bbb732b960411b604082015260600190565b60008085851115611b0d57600080fd5b83861115611b1a57600080fd5b5050820193919092039150565b60008251611b398184602087016118cc565b9190910192915050565b6020815260006114a360208301846118f056fe2d0c0a8842b9944ece1495eb61121621b5e36bd6af3bba0318c695f525aef79f8be0079c531659141344cd1fd0a4f28419497f9722a3daafe3b4186f6b6457e0a264697066735822122051bf86e50aef2d293ef7776b34531fc4125d5d7856894c2a802010e05e0f0a3f64736f6c63430008110033",
  "linkReferences": {},
  "deployedLinkReferences": {}
}