{
  "_format": "hh-sol-artifact-1",
  "contractName": "TokenEscrowMock",
  "sourceName": "contracts/mocks/TokenEscrow/TokenEscrowMock.sol",
  "abi": [
    {
      "inputs": [
        {
          "internalType": "contract IForwarderRegistry",
          "name": "forwarderRegistry",
          "type": "address"
        },
        {
          "internalType": "contract IERC1155",
          "name": "inventory_",
          "type": "address"
        }
      ],
      "stateMutability": "nonpayable",
      "type": "constructor"
    },
    {
      "inputs": [
        {
          "internalType": "uint256",
          "name": "tokenId",
          "type": "uint256"
        },
        {
          "internalType": "uint256",
          "name": "balance",
          "type": "uint256"
        }
      ],
      "name": "BalanceExceeded",
      "type": "error"
    },
    {
      "inputs": [],
      "name": "InconsistentArrays",
      "type": "error"
    },
    {
      "inputs": [
        {
          "internalType": "uint256",
          "name": "tokenId",
          "type": "uint256"
        },
        {
          "internalType": "uint256",
          "name": "balance",
          "type": "uint256"
        }
      ],
      "name": "InsufficientBalance",
      "type": "error"
    },
    {
      "inputs": [],
      "name": "InvalidInventory",
      "type": "error"
    },
    {
      "inputs": [],
      "name": "UnsupportedMethod",
      "type": "error"
    },
    {
      "anonymous": false,
      "inputs": [
        {
          "indexed": false,
          "internalType": "bytes",
          "name": "data",
          "type": "bytes"
        },
        {
          "indexed": false,
          "internalType": "uint256",
          "name": "integerValue",
          "type": "uint256"
        },
        {
          "indexed": false,
          "internalType": "string",
          "name": "stringValue",
          "type": "string"
        }
      ],
      "name": "Data",
      "type": "event"
    },
    {
      "anonymous": false,
      "inputs": [
        {
          "indexed": false,
          "internalType": "bytes",
          "name": "data",
          "type": "bytes"
        }
      ],
      "name": "DataShort",
      "type": "event"
    },
    {
      "anonymous": false,
      "inputs": [
        {
          "indexed": true,
          "internalType": "address",
          "name": "user",
          "type": "address"
        },
        {
          "indexed": false,
          "internalType": "uint256[]",
          "name": "ids",
          "type": "uint256[]"
        }
      ],
      "name": "DepositTokens",
      "type": "event"
    },
    {
      "anonymous": false,
      "inputs": [
        {
          "indexed": true,
          "internalType": "address",
          "name": "previousOwner",
          "type": "address"
        },
        {
          "indexed": true,
          "internalType": "address",
          "name": "newOwner",
          "type": "address"
        }
      ],
      "name": "OwnershipTransferred",
      "type": "event"
    },
    {
      "anonymous": false,
      "inputs": [
        {
          "indexed": false,
          "internalType": "address",
          "name": "sender",
          "type": "address"
        }
      ],
      "name": "Sender",
      "type": "event"
    },
    {
      "anonymous": false,
      "inputs": [
        {
          "indexed": true,
          "internalType": "address",
          "name": "user",
          "type": "address"
        },
        {
          "indexed": false,
          "internalType": "uint256[]",
          "name": "ids",
          "type": "uint256[]"
        }
      ],
      "name": "WithdrawTokens",
      "type": "event"
    },
    {
      "inputs": [],
      "name": "TOKEN_INVENTORY",
      "outputs": [
        {
          "internalType": "contract IERC1155",
          "name": "",
          "type": "address"
        }
      ],
      "stateMutability": "view",
      "type": "function"
    },
    {
      "inputs": [
        {
          "internalType": "address",
          "name": "account",
          "type": "address"
        },
        {
          "internalType": "uint256",
          "name": "id",
          "type": "uint256"
        }
      ],
      "name": "balanceOf",
      "outputs": [
        {
          "internalType": "uint256",
          "name": "",
          "type": "uint256"
        }
      ],
      "stateMutability": "view",
      "type": "function"
    },
    {
      "inputs": [
        {
          "internalType": "uint256[]",
          "name": "ids",
          "type": "uint256[]"
        },
        {
          "internalType": "uint256[]",
          "name": "values",
          "type": "uint256[]"
        }
      ],
      "name": "deposit",
      "outputs": [],
      "stateMutability": "nonpayable",
      "type": "function"
    },
    {
      "inputs": [
        {
          "internalType": "address",
          "name": "",
          "type": "address"
        },
        {
          "internalType": "uint256",
          "name": "",
          "type": "uint256"
        }
      ],
      "name": "escrowedNFTs",
      "outputs": [
        {
          "internalType": "uint256",
          "name": "",
          "type": "uint256"
        }
      ],
      "stateMutability": "view",
      "type": "function"
    },
    {
      "inputs": [],
      "name": "forwarderRegistry",
      "outputs": [
        {
          "internalType": "contract IForwarderRegistry",
          "name": "",
          "type": "address"
        }
      ],
      "stateMutability": "view",
      "type": "function"
    },
    {
      "inputs": [
        {
          "internalType": "address",
          "name": "forwarder",
          "type": "address"
        }
      ],
      "name": "isTrustedForwarder",
      "outputs": [
        {
          "internalType": "bool",
          "name": "",
          "type": "bool"
        }
      ],
      "stateMutability": "view",
      "type": "function"
    },
    {
      "inputs": [
        {
          "internalType": "uint256",
          "name": "integerValue",
          "type": "uint256"
        },
        {
          "internalType": "string",
          "name": "stringValue",
          "type": "string"
        }
      ],
      "name": "msgData",
      "outputs": [],
      "stateMutability": "nonpayable",
      "type": "function"
    },
    {
      "inputs": [],
      "name": "msgDataShort",
      "outputs": [],
      "stateMutability": "nonpayable",
      "type": "function"
    },
    {
      "inputs": [],
      "name": "msgSender",
      "outputs": [],
      "stateMutability": "nonpayable",
      "type": "function"
    },
    {
      "inputs": [
        {
          "internalType": "address",
          "name": "",
          "type": "address"
        },
        {
          "internalType": "address",
          "name": "from",
          "type": "address"
        },
        {
          "internalType": "uint256[]",
          "name": "ids",
          "type": "uint256[]"
        },
        {
          "internalType": "uint256[]",
          "name": "values",
          "type": "uint256[]"
        },
        {
          "internalType": "bytes",
          "name": "",
          "type": "bytes"
        }
      ],
      "name": "onERC1155BatchReceived",
      "outputs": [
        {
          "internalType": "bytes4",
          "name": "",
          "type": "bytes4"
        }
      ],
      "stateMutability": "nonpayable",
      "type": "function"
    },
    {
      "inputs": [
        {
          "internalType": "address",
          "name": "",
          "type": "address"
        },
        {
          "internalType": "address",
          "name": "",
          "type": "address"
        },
        {
          "internalType": "uint256",
          "name": "",
          "type": "uint256"
        },
        {
          "internalType": "uint256",
          "name": "",
          "type": "uint256"
        },
        {
          "internalType": "bytes",
          "name": "",
          "type": "bytes"
        }
      ],
      "name": "onERC1155Received",
      "outputs": [
        {
          "internalType": "bytes4",
          "name": "",
          "type": "bytes4"
        }
      ],
      "stateMutability": "pure",
      "type": "function"
    },
    {
      "inputs": [],
      "name": "owner",
      "outputs": [
        {
          "internalType": "address",
          "name": "",
          "type": "address"
        }
      ],
      "stateMutability": "view",
      "type": "function"
    },
    {
      "inputs": [
        {
          "internalType": "address[]",
          "name": "accounts",
          "type": "address[]"
        },
        {
          "internalType": "contract IERC20[]",
          "name": "tokens",
          "type": "address[]"
        },
        {
          "internalType": "uint256[]",
          "name": "amounts",
          "type": "uint256[]"
        }
      ],
      "name": "recoverERC20s",
      "outputs": [],
      "stateMutability": "nonpayable",
      "type": "function"
    },
    {
      "inputs": [
        {
          "internalType": "address[]",
          "name": "accounts",
          "type": "address[]"
        },
        {
          "internalType": "contract IERC721[]",
          "name": "contracts",
          "type": "address[]"
        },
        {
          "internalType": "uint256[]",
          "name": "tokenIds",
          "type": "uint256[]"
        }
      ],
      "name": "recoverERC721s",
      "outputs": [],
      "stateMutability": "nonpayable",
      "type": "function"
    },
    {
      "inputs": [
        {
          "internalType": "address payable[]",
          "name": "accounts",
          "type": "address[]"
        },
        {
          "internalType": "uint256[]",
          "name": "amounts",
          "type": "uint256[]"
        }
      ],
      "name": "recoverETH",
      "outputs": [],
      "stateMutability": "nonpayable",
      "type": "function"
    },
    {
      "inputs": [
        {
          "internalType": "bytes4",
          "name": "interfaceId",
          "type": "bytes4"
        }
      ],
      "name": "supportsInterface",
      "outputs": [
        {
          "internalType": "bool",
          "name": "",
          "type": "bool"
        }
      ],
      "stateMutability": "view",
      "type": "function"
    },
    {
      "inputs": [
        {
          "internalType": "address",
          "name": "newOwner",
          "type": "address"
        }
      ],
      "name": "transferOwnership",
      "outputs": [],
      "stateMutability": "nonpayable",
      "type": "function"
    },
    {
      "inputs": [
        {
          "internalType": "uint256[]",
          "name": "ids",
          "type": "uint256[]"
        },
        {
          "internalType": "uint256[]",
          "name": "values",
          "type": "uint256[]"
        }
      ],
      "name": "withdraw",
      "outputs": [],
      "stateMutability": "nonpayable",
      "type": "function"
    }
  ],
  "bytecode": "0x60c06040523480156200001157600080fd5b5060405162001d9e38038062001d9e833981016040819052620000349162000277565b6001600160a01b03821660805281813362000073816200005f620000ea602090811b62000ab017901c565b6200012060201b62000ade1790919060201c565b50620000ac630271189760e51b6001620000976200019e60201b62000b421760201c565b620001ce60201b62000b70179092919060201c565b6001600160a01b038116620000d457604051636524d08b60e01b815260040160405180910390fd5b6001600160a01b031660a05250620002d8915050565b6000806200011a60017fc9ed16f33ab3a66c84bfd83099ccb2a8845871e2e1c1928f63797152f0fd54cd620002b6565b92915050565b6001600160a01b03811615620001775781546001600160a01b0319166001600160a01b03821690811783556040516000907f8be0079c531659141344cd1fd0a4f28419497f9722a3daafe3b4186f6b6457e0908290a35b6200019a6307f5828d60e41b6001620000976200019e60201b62000b421760201c565b5050565b6000806200011a60017fca9d3e17f264b0f3984e2634e94adb37fa3e6a8103f06aeae6fa59e21c769f5e620002b6565b600160e01b6001600160e01b0319831601620002305760405162461bcd60e51b815260206004820152601f60248201527f496e74657266616365446574656374696f6e3a2077726f6e672076616c756500604482015260640160405180910390fd5b6001600160e01b03199190911660009081526020929092526040909120805460ff1916911515919091179055565b6001600160a01b03811681146200027457600080fd5b50565b600080604083850312156200028b57600080fd5b825162000298816200025e565b6020840151909250620002ab816200025e565b809150509250929050565b818103818111156200011a57634e487b7160e01b600052601160045260246000fd5b60805160a051611a68620003366000396000818161017c0152818161059e015281816106420152610920015260008181610135015281816101ae01528181610fa701528181610fd0015281816110ab01526110e90152611a686000f3fe608060405234801561001057600080fd5b50600436106100e55760003560e01c8062fdd58e146100ea57806301ffc9a7146101105780632b4c9f1614610133578063376bf262146101625780634dfde97a14610177578063572b6c051461019e57806373c8a958146101de57806381c197ed146101f15780638da5cb5b14610204578063bc197c811461020c578063c3666c3614610238578063d737d0c71461024b578063f223885a14610253578063f23a6e6114610266578063f2fde38b14610279578063f7ba94bd1461028c578063f997659a1461029f578063ff5f6b59146102c7575b600080fd5b6100fd6100f8366004611336565b6102cf565b6040519081526020015b60405180910390f35b61012361011e366004611362565b6102f8565b6040519015158152602001610107565b7f00000000000000000000000000000000000000000000000000000000000000005b6040516101079190611393565b6101756101703660046113bd565b61030c565b005b6101557f000000000000000000000000000000000000000000000000000000000000000081565b6101236101ac366004611477565b7f00000000000000000000000000000000000000000000000000000000000000006001600160a01b0390811691161490565b6101756101ec3660046114df565b610353565b6101756101ff366004611578565b610436565b610155610616565b61021f61021a366004611624565b610635565b6040516001600160e01b03199091168152602001610107565b6101756102463660046114df565b6107b5565b6101756108de565b610175610261366004611578565b61091e565b61021f6102743660046116e2565b6109a9565b610175610287366004611477565b6109c4565b61017561029a366004611578565b6109e2565b6100fd6102ad366004611336565b600060208181529281526040808220909352908152205481565b610175610a79565b6001600160a01b0382166000908152602081815260408083208484529091529020545b92915050565b60006102f282610306610b42565b90610bfb565b7faf235354a0a47c91ee171961326335cb2d1a8e55b8a89859b0e61eb049e50ea0610335610c5b565b848460405161034794939291906117c4565b60405180910390a15050565b61036c61035e610c6e565b610366610ab0565b90610c78565b84838114801561037b57508082145b6103a05760405162461bcd60e51b8152600401610397906117f0565b60405180910390fd5b60005b81811461042c576104248888838181106103bf576103bf611827565b90506020020160208101906103d49190611477565b8585848181106103e6576103e6611827565b905060200201358888858181106103ff576103ff611827565b90506020020160208101906104149190611477565b6001600160a01b03169190610ca4565b6001016103a3565b5050505050505050565b828114610456576040516335e83ac360e01b815260040160405180910390fd5b6000610460610c6e565b905060005b8481101561054357600086868381811061048157610481611827565b905060200201359050600085858481811061049e5761049e611827565b6001600160a01b03871660009081526020818152604080832088845282529091205491029290920135925050818110156104f55760405163cf47918160e01b81526004810184905260248101829052604401610397565b6001600160a01b03851660009081526020818152604080832086845290915281208054849290610526908490611853565b92505081905550505050808061053b90611866565b915050610465565b50806001600160a01b03167f651c6d84833866465bf050fea9fb84dc59faf4fc13d4607553b539e31e53ff02868660405161057f9291906118b1565b60405180910390a2604051631759616b60e11b81526001600160a01b037f00000000000000000000000000000000000000000000000000000000000000001690632eb2c2d6906105dd90309085908a908a908a908a906004016118c5565b600060405180830381600087803b1580156105f757600080fd5b505af115801561060b573d6000803e3d6000fd5b505050505050505050565b6000610630610623610ab0565b546001600160a01b031690565b905090565b6000336001600160a01b037f0000000000000000000000000000000000000000000000000000000000000000161461068057604051636524d08b60e01b815260040160405180910390fd5b60005b8681101561075c57600088888381811061069f5761069f611827565b9050602002013590508686838181106106ba576106ba611827565b6001600160a01b038d16600090815260208181526040808320878452825282208054939091029490940135939250906106f4908490611924565b90915550506001600160a01b038a1660009081526020818152604080832084845290915290205460018111156107475760405163f4dcf56b60e01b81526004810183905260248101829052604401610397565b5050808061075490611866565b915050610683565b50876001600160a01b03167fd4960fb57883d065fb41b7f993f9be3105af91fe2b595a398457e1ff226cdc5088886040516107989291906118b1565b60405180910390a25063bc197c8160e01b98975050505050505050565b6107c061035e610c6e565b8483811480156107cf57508082145b6107eb5760405162461bcd60e51b8152600401610397906117f0565b60005b81811461042c5785858281811061080757610807611827565b905060200201602081019061081c9190611477565b6001600160a01b03166323b872dd308a8a8581811061083d5761083d611827565b90506020020160208101906108529190611477565b87878681811061086457610864611827565b6040516001600160e01b031960e088901b1681526001600160a01b03958616600482015294909316602485015250602090910201356044820152606401600060405180830381600087803b1580156108bb57600080fd5b505af11580156108cf573d6000803e3d6000fd5b505050508060010190506107ee565b7fd6558c3ed910d959271054471fd1c326679d9fece99c5091b00ed89627cf2bfc610907610c6e565b6040516109149190611393565b60405180910390a1565b7f00000000000000000000000000000000000000000000000000000000000000006001600160a01b0316632eb2c2d6610955610c6e565b30878787876040518763ffffffff1660e01b815260040161097b969594939291906118c5565b600060405180830381600087803b15801561099557600080fd5b505af115801561042c573d6000803e3d6000fd5b600060405163036a2f6360e31b815260040160405180910390fd5b6109df6109cf610c6e565b826109d8610ab0565b9190610cfb565b50565b6109ed61035e610c6e565b82818114610a0d5760405162461bcd60e51b8152600401610397906117f0565b60005b818114610a7157610a69848483818110610a2c57610a2c611827565b90506020020135878784818110610a4557610a45611827565b9050602002016020810190610a5a9190611477565b6001600160a01b031690610d80565b600101610a10565b505050505050565b7f6d7cec71eba467294d92341ddc4e8634eb4d742a90e16f408f06e4b70bc4cd66610aa2610c5b565b604051610914929190611937565b6000806102f260017fc9ed16f33ab3a66c84bfd83099ccb2a8845871e2e1c1928f63797152f0fd54cd611853565b6001600160a01b03811615610b225781546001600160a01b0319166001600160a01b0382169081178355604051600090600080516020611a13833981519152908290a35b610b3e6307f5828d60e41b6001610b37610b42565b9190610b70565b5050565b6000806102f260017fca9d3e17f264b0f3984e2634e94adb37fa3e6a8103f06aeae6fa59e21c769f5e611853565b600160e01b6001600160e01b0319831601610bcd5760405162461bcd60e51b815260206004820152601f60248201527f496e74657266616365446574656374696f6e3a2077726f6e672076616c7565006044820152606401610397565b6001600160e01b03199190911660009081526020929092526040909120805460ff1916911515919091179055565b6000600160e01b6001600160e01b0319831601610c1a575060006102f2565b63fe00365960e01b6001600160e01b0319831601610c3a575060016102f2565b506001600160e01b0319166000908152602091909152604090205460ff1690565b366000610c66610e96565b915091509091565b6000610630610ea1565b81546001600160a01b03828116911614610b3e5760405162461bcd60e51b81526004016103979061194b565b604080516001600160a01b038416602482015260448082018490528251808303909101815260649091019091526020810180516001600160e01b031663a9059cbb60e01b179052610cf6908490610eab565b505050565b82546001600160a01b039081169083168114610d295760405162461bcd60e51b81526004016103979061194b565b816001600160a01b0316816001600160a01b031614610d7a5783546001600160a01b0319166001600160a01b03838116918217865560405190831690600080516020611a1383398151915290600090a35b50505050565b80471015610dd05760405162461bcd60e51b815260206004820152601d60248201527f416464726573733a20696e73756666696369656e742062616c616e63650000006044820152606401610397565b6000826001600160a01b03168260405160006040518083038185875af1925050503d8060008114610e1d576040519150601f19603f3d011682016040523d82523d6000602084013e610e22565b606091505b5050905080610cf65760405162461bcd60e51b815260206004820152603a60248201527f416464726573733a20756e61626c6520746f2073656e642076616c75652c20726044820152791958da5c1a595b9d081b585e481a185d99481c995d995c9d195960321b6064820152608401610397565b366000610c66610f7d565b600061063061107a565b6000610f00826040518060400160405280602081526020017f5361666545524332303a206c6f772d6c6576656c2063616c6c206661696c6564815250856001600160a01b03166111729092919063ffffffff16565b805190915015610cf65780806020019051810190610f1e919061197d565b610cf65760405162461bcd60e51b815260206004820152602a60248201527f5361666545524332303a204552433230206f7065726174696f6e20646964206e6044820152691bdd081cdd58d8d9595960b21b6064820152608401610397565b36600033321480610f8e5750601836105b15610f9c5750600091369150565b336001600160a01b037f000000000000000000000000000000000000000000000000000000000000000016148061106457507f00000000000000000000000000000000000000000000000000000000000000006001600160a01b0316638929a8ca611005611189565b336040518363ffffffff1660e01b815260040161102392919061199f565b602060405180830381865afa158015611040573d6000803e3d6000fd5b505050506040513d601f19601f82011682018060405250810190611064919061197d565b1561107157610c66611195565b50600091369150565b60003332148061108a5750601836105b1561109457503390565b600061109e611189565b9050336001600160a01b037f00000000000000000000000000000000000000000000000000000000000000001614806111615750604051634494d46560e11b81526001600160a01b037f00000000000000000000000000000000000000000000000000000000000000001690638929a8ca90611120908490339060040161199f565b602060405180830381865afa15801561113d573d6000803e3d6000fd5b505050506040513d601f19601f82011682018060405250810190611161919061197d565b1561116b57919050565b3391505090565b606061118184846000856111a8565b949350505050565b60131936013560601c90565b366000610c6660131983018284816119b9565b6060824710156112095760405162461bcd60e51b815260206004820152602660248201527f416464726573733a20696e73756666696369656e742062616c616e636520666f6044820152651c8818d85b1b60d21b6064820152608401610397565b600080866001600160a01b0316858760405161122591906119e3565b60006040518083038185875af1925050503d8060008114611262576040519150601f19603f3d011682016040523d82523d6000602084013e611267565b606091505b509150915061127887838387611283565b979650505050505050565b606083156112f25782516000036112eb576001600160a01b0385163b6112eb5760405162461bcd60e51b815260206004820152601d60248201527f416464726573733a2063616c6c20746f206e6f6e2d636f6e74726163740000006044820152606401610397565b5081611181565b61118183838151156113075781518083602001fd5b8060405162461bcd60e51b815260040161039791906119ff565b6001600160a01b03811681146109df57600080fd5b6000806040838503121561134957600080fd5b823561135481611321565b946020939093013593505050565b60006020828403121561137457600080fd5b81356001600160e01b03198116811461138c57600080fd5b9392505050565b6001600160a01b0391909116815260200190565b634e487b7160e01b600052604160045260246000fd5b600080604083850312156113d057600080fd5b8235915060208301356001600160401b03808211156113ee57600080fd5b818501915085601f83011261140257600080fd5b813581811115611414576114146113a7565b604051601f8201601f19908116603f0116810190838211818310171561143c5761143c6113a7565b8160405282815288602084870101111561145557600080fd5b8260208601602083013760006020848301015280955050505050509250929050565b60006020828403121561148957600080fd5b813561138c81611321565b60008083601f8401126114a657600080fd5b5081356001600160401b038111156114bd57600080fd5b6020830191508360208260051b85010111156114d857600080fd5b9250929050565b600080600080600080606087890312156114f857600080fd5b86356001600160401b038082111561150f57600080fd5b61151b8a838b01611494565b9098509650602089013591508082111561153457600080fd5b6115408a838b01611494565b9096509450604089013591508082111561155957600080fd5b5061156689828a01611494565b979a9699509497509295939492505050565b6000806000806040858703121561158e57600080fd5b84356001600160401b03808211156115a557600080fd5b6115b188838901611494565b909650945060208701359150808211156115ca57600080fd5b506115d787828801611494565b95989497509550505050565b60008083601f8401126115f557600080fd5b5081356001600160401b0381111561160c57600080fd5b6020830191508360208285010111156114d857600080fd5b60008060008060008060008060a0898b03121561164057600080fd5b883561164b81611321565b9750602089013561165b81611321565b965060408901356001600160401b038082111561167757600080fd5b6116838c838d01611494565b909850965060608b013591508082111561169c57600080fd5b6116a88c838d01611494565b909650945060808b01359150808211156116c157600080fd5b506116ce8b828c016115e3565b999c989b5096995094979396929594505050565b60008060008060008060a087890312156116fb57600080fd5b863561170681611321565b9550602087013561171681611321565b9450604087013593506060870135925060808701356001600160401b0381111561173f57600080fd5b61156689828a016115e3565b81835281816020850137506000828201602090810191909152601f909101601f19169091010190565b60005b8381101561178f578181015183820152602001611777565b50506000910152565b600081518084526117b0816020860160208601611774565b601f01601f19169290920160200192915050565b6060815260006117d860608301868861174b565b84602084015282810360408401526112788185611798565b6020808252601d908201527f5265636f766572793a20696e636f6e73697374656e7420617272617973000000604082015260600190565b634e487b7160e01b600052603260045260246000fd5b634e487b7160e01b600052601160045260246000fd5b818103818111156102f2576102f261183d565b6000600182016118785761187861183d565b5060010190565b81835260006001600160fb1b0383111561189857600080fd5b8260051b80836020870137939093016020019392505050565b60208152600061118160208301848661187f565b6001600160a01b0387811682528616602082015260a0604082018190526000906118f2908301868861187f565b828103606084015261190581858761187f565b8381036080909401939093525050600081526020019695505050505050565b808201808211156102f2576102f261183d565b60208152600061118160208301848661174b565b60208082526018908201527727bbb732b939b434b81d103737ba103a34329037bbb732b960411b604082015260600190565b60006020828403121561198f57600080fd5b8151801515811461138c57600080fd5b6001600160a01b0392831681529116602082015260400190565b600080858511156119c957600080fd5b838611156119d657600080fd5b5050820193919092039150565b600082516119f5818460208701611774565b9190910192915050565b60208152600061138c602083018461179856fe8be0079c531659141344cd1fd0a4f28419497f9722a3daafe3b4186f6b6457e0a26469706673582212201d8bc8310204e994ca95479afba8e9ad868919dd6d0eb68d9cdb2dd427a7af5264736f6c63430008110033",
  "linkReferences": {},
  "deployedLinkReferences": {}
}