{
  "_format": "hh-sol-artifact-1",
  "contractName": "PointsBitmapClaim",
  "sourceName": "contracts/bitmapClaim/PointsBitmapClaim.sol",
  "abi": [
    {
      "inputs": [
        {
          "internalType": "address",
          "name": "pointsContractAddress",
          "type": "address"
        },
        {
          "internalType": "contract IForwarderRegistry",
          "name": "_forwarderRegistry",
          "type": "address"
        },
        {
          "internalType": "bytes32",
          "name": "depositReasonCode",
          "type": "bytes32"
        },
        {
          "internalType": "address",
          "name": "_signer",
          "type": "address"
        }
      ],
      "stateMutability": "nonpayable",
      "type": "constructor"
    },
    {
      "inputs": [
        {
          "internalType": "address",
          "name": "recipient",
          "type": "address"
        },
        {
          "internalType": "uint256",
          "name": "claimBits",
          "type": "uint256"
        },
        {
          "internalType": "uint256",
          "name": "claimedBitmap",
          "type": "uint256"
        }
      ],
      "name": "AlreadyClaimed",
      "type": "error"
    },
    {
      "inputs": [
        {
          "internalType": "uint256",
          "name": "claimBits",
          "type": "uint256"
        },
        {
          "internalType": "uint256",
          "name": "maxBitCount",
          "type": "uint256"
        }
      ],
      "name": "BitPositionTooBig",
      "type": "error"
    },
    {
      "inputs": [
        {
          "internalType": "uint256",
          "name": "claimBitPosition",
          "type": "uint256"
        }
      ],
      "name": "DuplicateClaimBit",
      "type": "error"
    },
    {
      "inputs": [],
      "name": "IllegalInterfaceId",
      "type": "error"
    },
    {
      "inputs": [],
      "name": "InvalidForwarderRegistry",
      "type": "error"
    },
    {
      "inputs": [],
      "name": "InvalidPointsContractAddress",
      "type": "error"
    },
    {
      "inputs": [],
      "name": "InvalidSignature",
      "type": "error"
    },
    {
      "inputs": [
        {
          "internalType": "address",
          "name": "account",
          "type": "address"
        }
      ],
      "name": "NotContractOwner",
      "type": "error"
    },
    {
      "inputs": [
        {
          "internalType": "address",
          "name": "signer",
          "type": "address"
        }
      ],
      "name": "SignerAlreadySet",
      "type": "error"
    },
    {
      "inputs": [
        {
          "internalType": "uint256",
          "name": "bitPosition",
          "type": "uint256"
        },
        {
          "internalType": "uint256",
          "name": "maxBitCount",
          "type": "uint256"
        }
      ],
      "name": "UpdatingInvalidBitPosition",
      "type": "error"
    },
    {
      "inputs": [],
      "name": "ZeroLengthClaimBitPositions",
      "type": "error"
    },
    {
      "anonymous": false,
      "inputs": [
        {
          "indexed": false,
          "internalType": "uint256",
          "name": "bitPosition",
          "type": "uint256"
        },
        {
          "indexed": false,
          "internalType": "uint256",
          "name": "value",
          "type": "uint256"
        }
      ],
      "name": "BitValueAdded",
      "type": "event"
    },
    {
      "anonymous": false,
      "inputs": [
        {
          "indexed": false,
          "internalType": "address",
          "name": "recipient",
          "type": "address"
        },
        {
          "indexed": false,
          "internalType": "uint256",
          "name": "oldBitmap",
          "type": "uint256"
        },
        {
          "indexed": false,
          "internalType": "uint256",
          "name": "newBitmap",
          "type": "uint256"
        }
      ],
      "name": "Claimed",
      "type": "event"
    },
    {
      "anonymous": false,
      "inputs": [
        {
          "indexed": true,
          "internalType": "address",
          "name": "previousOwner",
          "type": "address"
        },
        {
          "indexed": true,
          "internalType": "address",
          "name": "newOwner",
          "type": "address"
        }
      ],
      "name": "OwnershipTransferred",
      "type": "event"
    },
    {
      "anonymous": false,
      "inputs": [
        {
          "indexed": false,
          "internalType": "address",
          "name": "signer",
          "type": "address"
        }
      ],
      "name": "SignerSet",
      "type": "event"
    },
    {
      "inputs": [],
      "name": "DEPOSIT_REASON_CODE",
      "outputs": [
        {
          "internalType": "bytes32",
          "name": "",
          "type": "bytes32"
        }
      ],
      "stateMutability": "view",
      "type": "function"
    },
    {
      "inputs": [],
      "name": "POINTS",
      "outputs": [
        {
          "internalType": "contract IPoints",
          "name": "",
          "type": "address"
        }
      ],
      "stateMutability": "view",
      "type": "function"
    },
    {
      "inputs": [
        {
          "internalType": "uint256",
          "name": "value",
          "type": "uint256"
        }
      ],
      "name": "addBitValue",
      "outputs": [],
      "stateMutability": "nonpayable",
      "type": "function"
    },
    {
      "inputs": [
        {
          "internalType": "uint256",
          "name": "bitPosition",
          "type": "uint256"
        }
      ],
      "name": "bitPositionValueMap",
      "outputs": [
        {
          "internalType": "uint256",
          "name": "value",
          "type": "uint256"
        }
      ],
      "stateMutability": "view",
      "type": "function"
    },
    {
      "inputs": [
        {
          "internalType": "address",
          "name": "recipient",
          "type": "address"
        },
        {
          "internalType": "uint256[]",
          "name": "claimBitPositions",
          "type": "uint256[]"
        },
        {
          "internalType": "bytes",
          "name": "validationData",
          "type": "bytes"
        }
      ],
      "name": "claim",
      "outputs": [],
      "stateMutability": "nonpayable",
      "type": "function"
    },
    {
      "inputs": [
        {
          "internalType": "address",
          "name": "recipient",
          "type": "address"
        }
      ],
      "name": "claimed",
      "outputs": [
        {
          "internalType": "uint256",
          "name": "bitmap",
          "type": "uint256"
        }
      ],
      "stateMutability": "view",
      "type": "function"
    },
    {
      "inputs": [],
      "name": "forwarderRegistry",
      "outputs": [
        {
          "internalType": "contract IForwarderRegistry",
          "name": "",
          "type": "address"
        }
      ],
      "stateMutability": "view",
      "type": "function"
    },
    {
      "inputs": [
        {
          "internalType": "address",
          "name": "forwarder",
          "type": "address"
        }
      ],
      "name": "isTrustedForwarder",
      "outputs": [
        {
          "internalType": "bool",
          "name": "",
          "type": "bool"
        }
      ],
      "stateMutability": "view",
      "type": "function"
    },
    {
      "inputs": [],
      "name": "maxBitCount",
      "outputs": [
        {
          "internalType": "uint256",
          "name": "",
          "type": "uint256"
        }
      ],
      "stateMutability": "view",
      "type": "function"
    },
    {
      "inputs": [],
      "name": "owner",
      "outputs": [
        {
          "internalType": "address",
          "name": "",
          "type": "address"
        }
      ],
      "stateMutability": "view",
      "type": "function"
    },
    {
      "inputs": [
        {
          "internalType": "address",
          "name": "newSigner",
          "type": "address"
        }
      ],
      "name": "setSigner",
      "outputs": [],
      "stateMutability": "nonpayable",
      "type": "function"
    },
    {
      "inputs": [],
      "name": "signer",
      "outputs": [
        {
          "internalType": "address",
          "name": "",
          "type": "address"
        }
      ],
      "stateMutability": "view",
      "type": "function"
    },
    {
      "inputs": [
        {
          "internalType": "bytes4",
          "name": "interfaceId",
          "type": "bytes4"
        }
      ],
      "name": "supportsInterface",
      "outputs": [
        {
          "internalType": "bool",
          "name": "",
          "type": "bool"
        }
      ],
      "stateMutability": "view",
      "type": "function"
    },
    {
      "inputs": [
        {
          "internalType": "address",
          "name": "newOwner",
          "type": "address"
        }
      ],
      "name": "transferOwnership",
      "outputs": [],
      "stateMutability": "nonpayable",
      "type": "function"
    }
  ],
  "bytecode": "0x6101a06040523480156200001257600080fd5b50604051620019533803806200195383398101604081905262000035916200030f565b828060405180604001604052806011815260200170506f696e74734269746d6170436c61696d60781b815250604051806040016040528060038152602001620312e360ec1b815250336200009a8162000093620001b860201b60201c565b90620001ee565b50815160208084019190912082518383012060e08290526101008190524660a0818152604080517f8b73c3c69bb8fe3d512ecc4cf759cc79239f7b179b0ffacaa9a75d522b39400f81880181905281830187905260608201869052608082019490945230818401528151808203909301835260c00190528051940193909320919290916080523060c05261012052505050506001600160a01b0390811661014052851690506200015d57604051630d082d6160e21b815260040160405180910390fd5b6001600160a01b0383166200018557604051633545ba1f60e21b815260040160405180910390fd5b6001600160a01b039384166101605261018091909152600380546001600160a01b0319169190931617909155506200038d565b600080620001e860017fc9ed16f33ab3a66c84bfd83099ccb2a8845871e2e1c1928f63797152f0fd54cd6200036b565b92915050565b6001600160a01b03811615620002455781546001600160a01b0319166001600160a01b03821690811783556040516000907f8be0079c531659141344cd1fd0a4f28419497f9722a3daafe3b4186f6b6457e0908290a35b620002656307f5828d60e41b60016200025d62000269565b919062000299565b5050565b600080620001e860017fca9d3e17f264b0f3984e2634e94adb37fa3e6a8103f06aeae6fa59e21c769f5e6200036b565b600160e01b6001600160e01b0319831601620002c8576040516372c683bb60e01b815260040160405180910390fd5b6001600160e01b03199190911660009081526020929092526040909120805460ff1916911515919091179055565b6001600160a01b03811681146200030c57600080fd5b50565b600080600080608085870312156200032657600080fd5b84516200033381620002f6565b60208601519094506200034681620002f6565b6040860151606087015191945092506200036081620002f6565b939692955090935050565b81810381811115620001e857634e487b7160e01b600052601160045260246000fd5b60805160a05160c05160e0516101005161012051610140516101605161018051611532620004216000396000818161015e015261086301526000818161026c01526108890152600081816101c70152818161020e01528181610e250152610ead01526000610fc00152600061100f01526000610fea01526000610f4301526000610f6d01526000610f9701526115326000f3fe608060405234801561001057600080fd5b50600436106100e95760003560e01c8063572b6c051161008c5780637f6e4281116100665780637f6e4281146102675780638da5cb5b1461028e578063c884ef8314610296578063f2fde38b146102b657600080fd5b8063572b6c05146101fe5780636844b0191461024b5780636c19e7831461025457600080fd5b80632196e445116100c85780632196e44514610159578063238ac933146101805780632b4c9f16146101c55780634a1e2ab7146101eb57600080fd5b8062cfbb85146100ee57806301ffc9a71461010357806312a53fdd1461012b575b600080fd5b6101016100fc3660046111fc565b6102c9565b005b6101166101113660046112ae565b6104fe565b60405190151581526020015b60405180910390f35b61014b6101393660046112f0565b60026020526000908152604090205481565b604051908152602001610122565b61014b7f000000000000000000000000000000000000000000000000000000000000000081565b6003546101a09073ffffffffffffffffffffffffffffffffffffffff1681565b60405173ffffffffffffffffffffffffffffffffffffffff9091168152602001610122565b7f00000000000000000000000000000000000000000000000000000000000000006101a0565b6101016101f93660046112f0565b610518565b61011661020c366004611309565b7f000000000000000000000000000000000000000000000000000000000000000073ffffffffffffffffffffffffffffffffffffffff90811691161490565b61014b60005481565b610101610262366004611309565b610590565b6101a07f000000000000000000000000000000000000000000000000000000000000000081565b6101a0610681565b61014b6102a4366004611309565b60016020526000908152604090205481565b6101016102c4366004611309565b6106ad565b60008084808203610306576040517fafec630d00000000000000000000000000000000000000000000000000000000815260040160405180910390fd5b60005b8181101561039d57600088888381811061032557610325611324565b60200291909101359150506001811b85811615610376576040517f4be1d8b9000000000000000000000000000000000000000000000000000000008152600481018390526024015b60405180910390fd5b60008281526002602052604090205461038f9086611382565b951794935050600101610309565b5060005483811c156103e5576040517fb09381a5000000000000000000000000000000000000000000000000000000008152600481018590526024810182905260440161036d565b73ffffffffffffffffffffffffffffffffffffffff89166000908152600160205260409020548481161561046b576040517f6508823200000000000000000000000000000000000000000000000000000000815273ffffffffffffffffffffffffffffffffffffffff8b166004820152602481018690526044810182905260640161036d565b6104788a8a8a8a8a6106cb565b73ffffffffffffffffffffffffffffffffffffffff8a16600081815260016020908152604091829020888517908190558251938452908301849052908201819052907f987d620f307ff6b94d58743cb7a7509f24071586a77759b77c2d4e29f75a2f9a9060600160405180910390a16104f18b86610811565b5050505050505050505050565b60006105128261050c6108ea565b90610918565b92915050565b6105316105236109f2565b61052b6109fc565b90610a2a565b6000805480825260026020526040909120829055610550816001611382565b60005560408051828152602081018490527fce560b7f8693cf1ce9d69f00e9293a5ee944531dd11f60ff6578840938c18a70910160405180910390a15050565b60035473ffffffffffffffffffffffffffffffffffffffff908116908216036105fd576040517fd3d310d900000000000000000000000000000000000000000000000000000000815273ffffffffffffffffffffffffffffffffffffffff8216600482015260240161036d565b6106086105236109f2565b600380547fffffffffffffffffffffffff00000000000000000000000000000000000000001673ffffffffffffffffffffffffffffffffffffffff83169081179091556040519081527f9eaa897564d022fb8c5efaf0acdb5d9d27b440b2aad44400b6e1c702e65b9ed39060200160405180910390a150565b60006106a861068e6109fc565b5473ffffffffffffffffffffffffffffffffffffffff1690565b905090565b6106c86106b86109f2565b826106c16109fc565b9190610a95565b50565b600061076f7fbf5b525228eee31af7f021c0a050e8543ccedbb9a8730831af7f7d2178503eda878787604051602001610705929190611395565b604051602081830303815290604052805190602001206040516020016107549392919092835273ffffffffffffffffffffffffffffffffffffffff919091166020830152604082015260600190565b60405160208183030381529060405280519060200120610baa565b600354604080516020601f87018190048102820181019092528581529293506000926107cf9273ffffffffffffffffffffffffffffffffffffffff16918591908890889081908401838280828437600092019190915250610c1392505050565b905080610808576040517f8baa579f00000000000000000000000000000000000000000000000000000000815260040160405180910390fd5b50505050505050565b80156108e6576040517f26b3293f00000000000000000000000000000000000000000000000000000000815273ffffffffffffffffffffffffffffffffffffffff8381166004830152602482018390527f000000000000000000000000000000000000000000000000000000000000000060448301527f000000000000000000000000000000000000000000000000000000000000000016906326b3293f90606401600060405180830381600087803b1580156108cd57600080fd5b505af11580156108e1573d6000803e3d6000fd5b505050505b5050565b60008061051260017fca9d3e17f264b0f3984e2634e94adb37fa3e6a8103f06aeae6fa59e21c769f5e6113e7565b60007c01000000000000000000000000000000000000000000000000000000007fffffffff0000000000000000000000000000000000000000000000000000000083160161096857506000610512565b7ffe003659000000000000000000000000000000000000000000000000000000007fffffffff000000000000000000000000000000000000000000000000000000008316016109b957506001610512565b507fffffffff00000000000000000000000000000000000000000000000000000000166000908152602091909152604090205460ff1690565b60006106a8610de2565b60008061051260017fc9ed16f33ab3a66c84bfd83099ccb2a8845871e2e1c1928f63797152f0fd54cd6113e7565b815473ffffffffffffffffffffffffffffffffffffffff8281169116146108e6576040517f2ef4875e00000000000000000000000000000000000000000000000000000000815273ffffffffffffffffffffffffffffffffffffffff8216600482015260240161036d565b825473ffffffffffffffffffffffffffffffffffffffff9081169083168114610b02576040517f2ef4875e00000000000000000000000000000000000000000000000000000000815273ffffffffffffffffffffffffffffffffffffffff8416600482015260240161036d565b8173ffffffffffffffffffffffffffffffffffffffff168173ffffffffffffffffffffffffffffffffffffffff1614610ba45783547fffffffffffffffffffffffff00000000000000000000000000000000000000001673ffffffffffffffffffffffffffffffffffffffff8381169182178655604051908316907f8be0079c531659141344cd1fd0a4f28419497f9722a3daafe3b4186f6b6457e090600090a35b50505050565b6000610512610bb7610f29565b836040517f19010000000000000000000000000000000000000000000000000000000000006020820152602281018390526042810182905260009060620160405160208183030381529060405280519060200120905092915050565b6000806000610c22858561105d565b90925090506000816004811115610c3b57610c3b6113fa565b148015610c7357508573ffffffffffffffffffffffffffffffffffffffff168273ffffffffffffffffffffffffffffffffffffffff16145b15610c8357600192505050610ddb565b6000808773ffffffffffffffffffffffffffffffffffffffff16631626ba7e60e01b8888604051602401610cb892919061144d565b604080517fffffffffffffffffffffffffffffffffffffffffffffffffffffffffffffffe08184030181529181526020820180517bffffffffffffffffffffffffffffffffffffffffffffffffffffffff167fffffffff00000000000000000000000000000000000000000000000000000000909416939093179092529051610d4191906114a5565b600060405180830381855afa9150503d8060008114610d7c576040519150601f19603f3d011682016040523d82523d6000602084013e610d81565b606091505b5091509150818015610d94575080516020145b8015610dd4575080517f1626ba7e0000000000000000000000000000000000000000000000000000000090610dd290830160209081019084016114c1565b145b9450505050505b9392505050565b600033321480610df25750601836105b15610dfc57503390565b7fffffffffffffffffffffffffffffffffffffffffffffffffffffffffffffffec36013560601c7f000000000000000000000000000000000000000000000000000000000000000073ffffffffffffffffffffffffffffffffffffffff16331480610f1857506040517f8929a8ca00000000000000000000000000000000000000000000000000000000815273ffffffffffffffffffffffffffffffffffffffff82811660048301523360248301527f00000000000000000000000000000000000000000000000000000000000000001690638929a8ca90604401602060405180830381865afa158015610ef4573d6000803e3d6000fd5b505050506040513d601f19601f82011682018060405250810190610f1891906114da565b15610f2257919050565b3391505090565b60003073ffffffffffffffffffffffffffffffffffffffff7f000000000000000000000000000000000000000000000000000000000000000016148015610f8f57507f000000000000000000000000000000000000000000000000000000000000000046145b15610fb957507f000000000000000000000000000000000000000000000000000000000000000090565b50604080517f00000000000000000000000000000000000000000000000000000000000000006020808301919091527f0000000000000000000000000000000000000000000000000000000000000000828401527f000000000000000000000000000000000000000000000000000000000000000060608301524660808301523060a0808401919091528351808403909101815260c0909201909252805191012090565b60008082516041036110935760208301516040840151606085015160001a611087878285856110a2565b9450945050505061109b565b506000905060025b9250929050565b6000807f7fffffffffffffffffffffffffffffff5d576e7357a4501ddfe92f46681b20a08311156110d95750600090506003611188565b6040805160008082526020820180845289905260ff881692820192909252606081018690526080810185905260019060a0016020604051602081039080840390855afa15801561112d573d6000803e3d6000fd5b50506040517fffffffffffffffffffffffffffffffffffffffffffffffffffffffffffffffe0015191505073ffffffffffffffffffffffffffffffffffffffff811661118157600060019250925050611188565b9150600090505b94509492505050565b803573ffffffffffffffffffffffffffffffffffffffff811681146111b557600080fd5b919050565b60008083601f8401126111cc57600080fd5b50813567ffffffffffffffff8111156111e457600080fd5b60208301915083602082850101111561109b57600080fd5b60008060008060006060868803121561121457600080fd5b61121d86611191565b9450602086013567ffffffffffffffff8082111561123a57600080fd5b818801915088601f83011261124e57600080fd5b81358181111561125d57600080fd5b8960208260051b850101111561127257600080fd5b60208301965080955050604088013591508082111561129057600080fd5b5061129d888289016111ba565b969995985093965092949392505050565b6000602082840312156112c057600080fd5b81357fffffffff0000000000000000000000000000000000000000000000000000000081168114610ddb57600080fd5b60006020828403121561130257600080fd5b5035919050565b60006020828403121561131b57600080fd5b610ddb82611191565b7f4e487b7100000000000000000000000000000000000000000000000000000000600052603260045260246000fd5b7f4e487b7100000000000000000000000000000000000000000000000000000000600052601160045260246000fd5b8082018082111561051257610512611353565b6020815281602082015260007f07ffffffffffffffffffffffffffffffffffffffffffffffffffffffffffffff8311156113ce57600080fd5b8260051b80856040850137919091016040019392505050565b8181038181111561051257610512611353565b7f4e487b7100000000000000000000000000000000000000000000000000000000600052602160045260246000fd5b60005b8381101561144457818101518382015260200161142c565b50506000910152565b8281526040602082015260008251806040840152611472816060850160208701611429565b601f017fffffffffffffffffffffffffffffffffffffffffffffffffffffffffffffffe016919091016060019392505050565b600082516114b7818460208701611429565b9190910192915050565b6000602082840312156114d357600080fd5b5051919050565b6000602082840312156114ec57600080fd5b81518015158114610ddb57600080fdfea2646970667358221220df7a9a8c5767b9d1ba8ba7c45653d4565219fdf45c6a9c4522119c672099522964736f6c63430008160033",
  "linkReferences": {},
  "deployedLinkReferences": {}
}