{
  "_format": "hh-sol-artifact-1",
  "contractName": "PointsBitmapClaim",
  "sourceName": "contracts/bitmapClaim/PointsBitmapClaim.sol",
  "abi": [
    {
      "inputs": [
        {
          "internalType": "address",
          "name": "pointsContractAddress",
          "type": "address"
        },
        {
          "internalType": "contract IForwarderRegistry",
          "name": "_forwarderRegistry",
          "type": "address"
        },
        {
          "internalType": "bytes32",
          "name": "depositReasonCode",
          "type": "bytes32"
        },
        {
          "internalType": "address",
          "name": "_signer",
          "type": "address"
        }
      ],
      "stateMutability": "nonpayable",
      "type": "constructor"
    },
    {
      "inputs": [
        {
          "internalType": "address",
          "name": "recipient",
          "type": "address"
        },
        {
          "internalType": "uint256",
          "name": "claimBits",
          "type": "uint256"
        },
        {
          "internalType": "uint256",
          "name": "claimedBitmap",
          "type": "uint256"
        }
      ],
      "name": "AlreadyClaimed",
      "type": "error"
    },
    {
      "inputs": [
        {
          "internalType": "uint256",
          "name": "bitPosition",
          "type": "uint256"
        },
        {
          "internalType": "uint256",
          "name": "maxBitCount",
          "type": "uint256"
        }
      ],
      "name": "BitPositionTooBig",
      "type": "error"
    },
    {
      "inputs": [],
      "name": "IllegalInterfaceId",
      "type": "error"
    },
    {
      "inputs": [
        {
          "internalType": "uint256",
          "name": "claimBits",
          "type": "uint256"
        }
      ],
      "name": "InvalidClaimBits",
      "type": "error"
    },
    {
      "inputs": [],
      "name": "InvalidForwarderRegistry",
      "type": "error"
    },
    {
      "inputs": [],
      "name": "InvalidPointsContractAddress",
      "type": "error"
    },
    {
      "inputs": [],
      "name": "InvalidSignature",
      "type": "error"
    },
    {
      "inputs": [
        {
          "internalType": "address",
          "name": "account",
          "type": "address"
        }
      ],
      "name": "NotContractOwner",
      "type": "error"
    },
    {
      "inputs": [
        {
          "internalType": "address",
          "name": "signer",
          "type": "address"
        }
      ],
      "name": "SignerAlreadySet",
      "type": "error"
    },
    {
      "anonymous": false,
      "inputs": [
        {
          "indexed": false,
          "internalType": "uint256",
          "name": "bitPosition",
          "type": "uint256"
        },
        {
          "indexed": false,
          "internalType": "uint256",
          "name": "value",
          "type": "uint256"
        }
      ],
      "name": "BitValueSet",
      "type": "event"
    },
    {
      "anonymous": false,
      "inputs": [
        {
          "indexed": false,
          "internalType": "address",
          "name": "recipient",
          "type": "address"
        },
        {
          "indexed": false,
          "internalType": "uint256",
          "name": "oldBitmap",
          "type": "uint256"
        },
        {
          "indexed": false,
          "internalType": "uint256",
          "name": "newBitmap",
          "type": "uint256"
        }
      ],
      "name": "Claimed",
      "type": "event"
    },
    {
      "anonymous": false,
      "inputs": [
        {
          "indexed": true,
          "internalType": "address",
          "name": "previousOwner",
          "type": "address"
        },
        {
          "indexed": true,
          "internalType": "address",
          "name": "newOwner",
          "type": "address"
        }
      ],
      "name": "OwnershipTransferred",
      "type": "event"
    },
    {
      "anonymous": false,
      "inputs": [
        {
          "indexed": false,
          "internalType": "address",
          "name": "signer",
          "type": "address"
        }
      ],
      "name": "SignerSet",
      "type": "event"
    },
    {
      "inputs": [],
      "name": "DEPOSIT_REASON_CODE",
      "outputs": [
        {
          "internalType": "bytes32",
          "name": "",
          "type": "bytes32"
        }
      ],
      "stateMutability": "view",
      "type": "function"
    },
    {
      "inputs": [],
      "name": "POINTS",
      "outputs": [
        {
          "internalType": "contract IPoints",
          "name": "",
          "type": "address"
        }
      ],
      "stateMutability": "view",
      "type": "function"
    },
    {
      "inputs": [
        {
          "internalType": "uint256",
          "name": "value",
          "type": "uint256"
        }
      ],
      "name": "addBitValue",
      "outputs": [],
      "stateMutability": "nonpayable",
      "type": "function"
    },
    {
      "inputs": [
        {
          "internalType": "uint256",
          "name": "bitPosition",
          "type": "uint256"
        }
      ],
      "name": "bitPositionValueMap",
      "outputs": [
        {
          "internalType": "uint256",
          "name": "value",
          "type": "uint256"
        }
      ],
      "stateMutability": "view",
      "type": "function"
    },
    {
      "inputs": [
        {
          "internalType": "address",
          "name": "recipient",
          "type": "address"
        },
        {
          "internalType": "uint256",
          "name": "claimBits",
          "type": "uint256"
        },
        {
          "internalType": "bytes",
          "name": "validationData",
          "type": "bytes"
        }
      ],
      "name": "claim",
      "outputs": [],
      "stateMutability": "nonpayable",
      "type": "function"
    },
    {
      "inputs": [
        {
          "internalType": "address",
          "name": "recipient",
          "type": "address"
        }
      ],
      "name": "claimed",
      "outputs": [
        {
          "internalType": "uint256",
          "name": "bitmap",
          "type": "uint256"
        }
      ],
      "stateMutability": "view",
      "type": "function"
    },
    {
      "inputs": [],
      "name": "forwarderRegistry",
      "outputs": [
        {
          "internalType": "contract IForwarderRegistry",
          "name": "",
          "type": "address"
        }
      ],
      "stateMutability": "view",
      "type": "function"
    },
    {
      "inputs": [
        {
          "internalType": "address",
          "name": "forwarder",
          "type": "address"
        }
      ],
      "name": "isTrustedForwarder",
      "outputs": [
        {
          "internalType": "bool",
          "name": "",
          "type": "bool"
        }
      ],
      "stateMutability": "view",
      "type": "function"
    },
    {
      "inputs": [],
      "name": "maxBitCount",
      "outputs": [
        {
          "internalType": "uint256",
          "name": "",
          "type": "uint256"
        }
      ],
      "stateMutability": "view",
      "type": "function"
    },
    {
      "inputs": [],
      "name": "owner",
      "outputs": [
        {
          "internalType": "address",
          "name": "",
          "type": "address"
        }
      ],
      "stateMutability": "view",
      "type": "function"
    },
    {
      "inputs": [
        {
          "internalType": "address",
          "name": "newSigner",
          "type": "address"
        }
      ],
      "name": "setSigner",
      "outputs": [],
      "stateMutability": "nonpayable",
      "type": "function"
    },
    {
      "inputs": [],
      "name": "signer",
      "outputs": [
        {
          "internalType": "address",
          "name": "",
          "type": "address"
        }
      ],
      "stateMutability": "view",
      "type": "function"
    },
    {
      "inputs": [
        {
          "internalType": "bytes4",
          "name": "interfaceId",
          "type": "bytes4"
        }
      ],
      "name": "supportsInterface",
      "outputs": [
        {
          "internalType": "bool",
          "name": "",
          "type": "bool"
        }
      ],
      "stateMutability": "view",
      "type": "function"
    },
    {
      "inputs": [
        {
          "internalType": "address",
          "name": "newOwner",
          "type": "address"
        }
      ],
      "name": "transferOwnership",
      "outputs": [],
      "stateMutability": "nonpayable",
      "type": "function"
    },
    {
      "inputs": [
        {
          "internalType": "uint256",
          "name": "bitPosition",
          "type": "uint256"
        },
        {
          "internalType": "uint256",
          "name": "value",
          "type": "uint256"
        }
      ],
      "name": "updateBitValue",
      "outputs": [],
      "stateMutability": "nonpayable",
      "type": "function"
    }
  ],
  "bytecode": "0x6101a06040523480156200001257600080fd5b506040516200183e3803806200183e83398101604081905262000035916200030f565b828060405180604001604052806011815260200170506f696e74734269746d6170436c61696d60781b815250604051806040016040528060038152602001620312e360ec1b815250336200009a8162000093620001b860201b60201c565b90620001ee565b50815160208084019190912082518383012060e08290526101008190524660a0818152604080517f8b73c3c69bb8fe3d512ecc4cf759cc79239f7b179b0ffacaa9a75d522b39400f81880181905281830187905260608201869052608082019490945230818401528151808203909301835260c00190528051940193909320919290916080523060c05261012052505050506001600160a01b0390811661014052851690506200015d57604051630d082d6160e21b815260040160405180910390fd5b6001600160a01b0383166200018557604051633545ba1f60e21b815260040160405180910390fd5b6001600160a01b039384166101605261018091909152600380546001600160a01b0319169190931617909155506200038d565b600080620001e860017fc9ed16f33ab3a66c84bfd83099ccb2a8845871e2e1c1928f63797152f0fd54cd6200036b565b92915050565b6001600160a01b03811615620002455781546001600160a01b0319166001600160a01b03821690811783556040516000907f8be0079c531659141344cd1fd0a4f28419497f9722a3daafe3b4186f6b6457e0908290a35b620002656307f5828d60e41b60016200025d62000269565b919062000299565b5050565b600080620001e860017fca9d3e17f264b0f3984e2634e94adb37fa3e6a8103f06aeae6fa59e21c769f5e6200036b565b600160e01b6001600160e01b0319831601620002c8576040516372c683bb60e01b815260040160405180910390fd5b6001600160e01b03199190911660009081526020929092526040909120805460ff1916911515919091179055565b6001600160a01b03811681146200030c57600080fd5b50565b600080600080608085870312156200032657600080fd5b84516200033381620002f6565b60208601519094506200034681620002f6565b6040860151606087015191945092506200036081620002f6565b939692955090935050565b81810381811115620001e857634e487b7160e01b600052601160045260246000fd5b60805160a05160c05160e051610100516101205161014051610160516101805161141d620004216000396000818161015501526109ce01526000818161026501526109f40152600081816101be0152818161020701528181610ba40152610c2c01526000610f7701526000610fc601526000610fa101526000610efa01526000610f2401526000610f4e015261141d6000f3fe608060405234801561001057600080fd5b50600436106100f55760003560e01c80636844b019116100975780638da5cb5b116100665780638da5cb5b1461029a5780638f0bc152146102a2578063c884ef83146102b5578063f2fde38b146102d557600080fd5b80636844b019146102445780636c19e7831461024d5780637f6e4281146102605780638bd5f7591461028757600080fd5b8063238ac933116100d3578063238ac933146101775780632b4c9f16146101bc5780634a1e2ab7146101e2578063572b6c05146101f757600080fd5b806301ffc9a7146100fa57806312a53fdd146101225780632196e44514610150575b600080fd5b61010d610108366004611148565b6102e8565b60405190151581526020015b60405180910390f35b61014261013036600461118a565b60026020526000908152604090205481565b604051908152602001610119565b6101427f000000000000000000000000000000000000000000000000000000000000000081565b6003546101979073ffffffffffffffffffffffffffffffffffffffff1681565b60405173ffffffffffffffffffffffffffffffffffffffff9091168152602001610119565b7f0000000000000000000000000000000000000000000000000000000000000000610197565b6101f56101f036600461118a565b610302565b005b61010d6102053660046111cc565b7f000000000000000000000000000000000000000000000000000000000000000073ffffffffffffffffffffffffffffffffffffffff90811691161490565b61014260005481565b6101f561025b3660046111cc565b610321565b6101977f000000000000000000000000000000000000000000000000000000000000000081565b6101f56102953660046111e7565b610425565b61019761047a565b6101f56102b0366004611209565b6104a6565b6101426102c33660046111cc565b60016020526000908152604090205481565b6101f56102e33660046111cc565b610646565b60006102fc826102f6610664565b90610692565b92915050565b60005461030f818361076c565b61031a8160016112bf565b6000555050565b60035473ffffffffffffffffffffffffffffffffffffffff90811690821603610393576040517fd3d310d900000000000000000000000000000000000000000000000000000000815273ffffffffffffffffffffffffffffffffffffffff821660048201526024015b60405180910390fd5b6103ac61039e6107c6565b6103a66107d0565b906107fe565b600380547fffffffffffffffffffffffff00000000000000000000000000000000000000001673ffffffffffffffffffffffffffffffffffffffff83169081179091556040519081527f9eaa897564d022fb8c5efaf0acdb5d9d27b440b2aad44400b6e1c702e65b9ed39060200160405180910390a150565b60005480831061046b576040517fb09381a5000000000000000000000000000000000000000000000000000000008152600481018490526024810182905260440161038a565b610475838361076c565b505050565b60006104a16104876107d0565b5473ffffffffffffffffffffffffffffffffffffffff1690565b905090565b8215806104b757506000805484901c115b156104f1576040517fb93313e40000000000000000000000000000000000000000000000000000000081526004810184905260240161038a565b73ffffffffffffffffffffffffffffffffffffffff841660009081526001602052604090205483811615610577576040517f6508823200000000000000000000000000000000000000000000000000000000815273ffffffffffffffffffffffffffffffffffffffff86166004820152602481018590526044810182905260640161038a565b6105838585858561086d565b73ffffffffffffffffffffffffffffffffffffffff8516600081815260016020908152604091829020878517908190558251938452908301849052908201819052907f987d620f307ff6b94d58743cb7a7509f24071586a77759b77c2d4e29f75a2f9a9060600160405180910390a160008054815b818110156106315760018816156106255760008181526002602052604090205461062290846112bf565b92505b600197881c97016105f8565b5061063c8883610982565b5050505050505050565b6106616106516107c6565b8261065a6107d0565b9190610a4c565b50565b6000806102fc60017fca9d3e17f264b0f3984e2634e94adb37fa3e6a8103f06aeae6fa59e21c769f5e6112d2565b60007c01000000000000000000000000000000000000000000000000000000007fffffffff000000000000000000000000000000000000000000000000000000008316016106e2575060006102fc565b7ffe003659000000000000000000000000000000000000000000000000000000007fffffffff00000000000000000000000000000000000000000000000000000000831601610733575060016102fc565b507fffffffff00000000000000000000000000000000000000000000000000000000166000908152602091909152604090205460ff1690565b61077761039e6107c6565b60008281526002602090815260409182902083905581518481529081018390527f8e17f10a809a83084393f091eeb493166c6d7d75f0227161b2dfe9f3867a431e910160405180910390a15050565b60006104a1610b61565b6000806102fc60017fc9ed16f33ab3a66c84bfd83099ccb2a8845871e2e1c1928f63797152f0fd54cd6112d2565b815473ffffffffffffffffffffffffffffffffffffffff828116911614610869576040517f2ef4875e00000000000000000000000000000000000000000000000000000000815273ffffffffffffffffffffffffffffffffffffffff8216600482015260240161038a565b5050565b604080517f8d7d84f2b8bdb26fd0fef6ec4402a7ac1adf4e2bf9ec7236c54ac6268cfef0b9602082015273ffffffffffffffffffffffffffffffffffffffff861691810191909152606081018490526000906108e19060800160405160208183030381529060405280519060200120610ca8565b600354604080516020601f87018190048102820181019092528581529293506000926109419273ffffffffffffffffffffffffffffffffffffffff16918591908890889081908401838280828437600092019190915250610d1192505050565b90508061097a576040517f8baa579f00000000000000000000000000000000000000000000000000000000815260040160405180910390fd5b505050505050565b6040517f26b3293f00000000000000000000000000000000000000000000000000000000815273ffffffffffffffffffffffffffffffffffffffff8381166004830152602482018390527f000000000000000000000000000000000000000000000000000000000000000060448301527f000000000000000000000000000000000000000000000000000000000000000016906326b3293f90606401600060405180830381600087803b158015610a3857600080fd5b505af115801561097a573d6000803e3d6000fd5b825473ffffffffffffffffffffffffffffffffffffffff9081169083168114610ab9576040517f2ef4875e00000000000000000000000000000000000000000000000000000000815273ffffffffffffffffffffffffffffffffffffffff8416600482015260240161038a565b8173ffffffffffffffffffffffffffffffffffffffff168173ffffffffffffffffffffffffffffffffffffffff1614610b5b5783547fffffffffffffffffffffffff00000000000000000000000000000000000000001673ffffffffffffffffffffffffffffffffffffffff8381169182178655604051908316907f8be0079c531659141344cd1fd0a4f28419497f9722a3daafe3b4186f6b6457e090600090a35b50505050565b600033321480610b715750601836105b15610b7b57503390565b7fffffffffffffffffffffffffffffffffffffffffffffffffffffffffffffffec36013560601c7f000000000000000000000000000000000000000000000000000000000000000073ffffffffffffffffffffffffffffffffffffffff16331480610c9757506040517f8929a8ca00000000000000000000000000000000000000000000000000000000815273ffffffffffffffffffffffffffffffffffffffff82811660048301523360248301527f00000000000000000000000000000000000000000000000000000000000000001690638929a8ca90604401602060405180830381865afa158015610c73573d6000803e3d6000fd5b505050506040513d601f19601f82011682018060405250810190610c9791906112e5565b15610ca157919050565b3391505090565b60006102fc610cb5610ee0565b836040517f19010000000000000000000000000000000000000000000000000000000000006020820152602281018390526042810182905260009060620160405160208183030381529060405280519060200120905092915050565b6000806000610d208585611014565b90925090506000816004811115610d3957610d39611307565b148015610d7157508573ffffffffffffffffffffffffffffffffffffffff168273ffffffffffffffffffffffffffffffffffffffff16145b15610d8157600192505050610ed9565b6000808773ffffffffffffffffffffffffffffffffffffffff16631626ba7e60e01b8888604051602401610db692919061135a565b604080517fffffffffffffffffffffffffffffffffffffffffffffffffffffffffffffffe08184030181529181526020820180517bffffffffffffffffffffffffffffffffffffffffffffffffffffffff167fffffffff00000000000000000000000000000000000000000000000000000000909416939093179092529051610e3f91906113b2565b600060405180830381855afa9150503d8060008114610e7a576040519150601f19603f3d011682016040523d82523d6000602084013e610e7f565b606091505b5091509150818015610e92575080516020145b8015610ed2575080517f1626ba7e0000000000000000000000000000000000000000000000000000000090610ed090830160209081019084016113ce565b145b9450505050505b9392505050565b60003073ffffffffffffffffffffffffffffffffffffffff7f000000000000000000000000000000000000000000000000000000000000000016148015610f4657507f000000000000000000000000000000000000000000000000000000000000000046145b15610f7057507f000000000000000000000000000000000000000000000000000000000000000090565b50604080517f00000000000000000000000000000000000000000000000000000000000000006020808301919091527f0000000000000000000000000000000000000000000000000000000000000000828401527f000000000000000000000000000000000000000000000000000000000000000060608301524660808301523060a0808401919091528351808403909101815260c0909201909252805191012090565b600080825160410361104a5760208301516040840151606085015160001a61103e87828585611059565b94509450505050611052565b506000905060025b9250929050565b6000807f7fffffffffffffffffffffffffffffff5d576e7357a4501ddfe92f46681b20a0831115611090575060009050600361113f565b6040805160008082526020820180845289905260ff881692820192909252606081018690526080810185905260019060a0016020604051602081039080840390855afa1580156110e4573d6000803e3d6000fd5b50506040517fffffffffffffffffffffffffffffffffffffffffffffffffffffffffffffffe0015191505073ffffffffffffffffffffffffffffffffffffffff81166111385760006001925092505061113f565b9150600090505b94509492505050565b60006020828403121561115a57600080fd5b81357fffffffff0000000000000000000000000000000000000000000000000000000081168114610ed957600080fd5b60006020828403121561119c57600080fd5b5035919050565b803573ffffffffffffffffffffffffffffffffffffffff811681146111c757600080fd5b919050565b6000602082840312156111de57600080fd5b610ed9826111a3565b600080604083850312156111fa57600080fd5b50508035926020909101359150565b6000806000806060858703121561121f57600080fd5b611228856111a3565b935060208501359250604085013567ffffffffffffffff8082111561124c57600080fd5b818701915087601f83011261126057600080fd5b81358181111561126f57600080fd5b88602082850101111561128157600080fd5b95989497505060200194505050565b7f4e487b7100000000000000000000000000000000000000000000000000000000600052601160045260246000fd5b808201808211156102fc576102fc611290565b818103818111156102fc576102fc611290565b6000602082840312156112f757600080fd5b81518015158114610ed957600080fd5b7f4e487b7100000000000000000000000000000000000000000000000000000000600052602160045260246000fd5b60005b83811015611351578181015183820152602001611339565b50506000910152565b828152604060208201526000825180604084015261137f816060850160208701611336565b601f017fffffffffffffffffffffffffffffffffffffffffffffffffffffffffffffffe016919091016060019392505050565b600082516113c4818460208701611336565b9190910192915050565b6000602082840312156113e057600080fd5b505191905056fea2646970667358221220b385491527e84710c4d2439b98c5060b0ce76eb2af448d69ea8cfd65b2e66ed564736f6c63430008160033",
  "linkReferences": {},
  "deployedLinkReferences": {}
}