{
  "_format": "hh-sol-artifact-1",
  "contractName": "ERC20ArenaMock",
  "sourceName": "contracts/mocks/arena/ERC20ArenaMock.sol",
  "abi": [
    {
      "inputs": [
        {
          "internalType": "uint256",
          "name": "price",
          "type": "uint256"
        },
        {
          "internalType": "uint256",
          "name": "commissionRate",
          "type": "uint256"
        },
        {
          "internalType": "address",
          "name": "messageSigner",
          "type": "address"
        },
        {
          "internalType": "address payable",
          "name": "payoutWallet",
          "type": "address"
        },
        {
          "internalType": "address",
          "name": "erc20",
          "type": "address"
        },
        {
          "internalType": "contract IForwarderRegistry",
          "name": "forwarderRegistry",
          "type": "address"
        }
      ],
      "stateMutability": "nonpayable",
      "type": "constructor"
    },
    {
      "inputs": [
        {
          "internalType": "address",
          "name": "account",
          "type": "address"
        }
      ],
      "name": "AlreadyAdmitted",
      "type": "error"
    },
    {
      "inputs": [],
      "name": "FailedCall",
      "type": "error"
    },
    {
      "inputs": [],
      "name": "IllegalInterfaceId",
      "type": "error"
    },
    {
      "inputs": [],
      "name": "InconsistentArrayLengths",
      "type": "error"
    },
    {
      "inputs": [
        {
          "internalType": "address",
          "name": "tokenContract",
          "type": "address"
        }
      ],
      "name": "IncorrectTokenContractType",
      "type": "error"
    },
    {
      "inputs": [
        {
          "internalType": "uint256",
          "name": "balance",
          "type": "uint256"
        },
        {
          "internalType": "uint256",
          "name": "needed",
          "type": "uint256"
        }
      ],
      "name": "InsufficientBalance",
      "type": "error"
    },
    {
      "inputs": [
        {
          "internalType": "uint256",
          "name": "rate",
          "type": "uint256"
        }
      ],
      "name": "InvalidCommissionRate",
      "type": "error"
    },
    {
      "inputs": [
        {
          "internalType": "uint256",
          "name": "amount",
          "type": "uint256"
        }
      ],
      "name": "InvalidPaymentAmount",
      "type": "error"
    },
    {
      "inputs": [
        {
          "internalType": "address",
          "name": "token",
          "type": "address"
        }
      ],
      "name": "InvalidPaymentToken",
      "type": "error"
    },
    {
      "inputs": [],
      "name": "InvalidShortString",
      "type": "error"
    },
    {
      "inputs": [],
      "name": "InvalidSignature",
      "type": "error"
    },
    {
      "inputs": [
        {
          "internalType": "address",
          "name": "account",
          "type": "address"
        }
      ],
      "name": "NotContractOwner",
      "type": "error"
    },
    {
      "inputs": [
        {
          "internalType": "address",
          "name": "account",
          "type": "address"
        }
      ],
      "name": "PlayerNotAdmitted",
      "type": "error"
    },
    {
      "inputs": [
        {
          "internalType": "address",
          "name": "token",
          "type": "address"
        }
      ],
      "name": "SafeERC20FailedOperation",
      "type": "error"
    },
    {
      "inputs": [
        {
          "internalType": "string",
          "name": "str",
          "type": "string"
        }
      ],
      "name": "StringTooLong",
      "type": "error"
    },
    {
      "inputs": [
        {
          "internalType": "uint256",
          "name": "recoverableAmount",
          "type": "uint256"
        },
        {
          "internalType": "uint256",
          "name": "amount",
          "type": "uint256"
        }
      ],
      "name": "Unrecoverable",
      "type": "error"
    },
    {
      "inputs": [],
      "name": "ZeroAddressPayoutWallet",
      "type": "error"
    },
    {
      "inputs": [],
      "name": "ZeroPrice",
      "type": "error"
    },
    {
      "anonymous": false,
      "inputs": [
        {
          "indexed": true,
          "internalType": "address",
          "name": "account",
          "type": "address"
        }
      ],
      "name": "Admission",
      "type": "event"
    },
    {
      "anonymous": false,
      "inputs": [
        {
          "indexed": false,
          "internalType": "uint256",
          "name": "rate",
          "type": "uint256"
        }
      ],
      "name": "CommissionRateSet",
      "type": "event"
    },
    {
      "anonymous": false,
      "inputs": [],
      "name": "EIP712DomainChanged",
      "type": "event"
    },
    {
      "anonymous": false,
      "inputs": [
        {
          "indexed": true,
          "internalType": "uint256",
          "name": "matchId",
          "type": "uint256"
        },
        {
          "indexed": true,
          "internalType": "address",
          "name": "player1",
          "type": "address"
        },
        {
          "indexed": true,
          "internalType": "address",
          "name": "player2",
          "type": "address"
        },
        {
          "indexed": false,
          "internalType": "uint256",
          "name": "player1AdmissionTime",
          "type": "uint256"
        },
        {
          "indexed": false,
          "internalType": "uint256",
          "name": "player2AdmissionTime",
          "type": "uint256"
        },
        {
          "indexed": false,
          "internalType": "enum ArenaBase.MatchResult",
          "name": "result",
          "type": "uint8"
        }
      ],
      "name": "MatchCompleted",
      "type": "event"
    },
    {
      "anonymous": false,
      "inputs": [
        {
          "indexed": false,
          "internalType": "address",
          "name": "signer",
          "type": "address"
        }
      ],
      "name": "MessageSignerSet",
      "type": "event"
    },
    {
      "anonymous": false,
      "inputs": [
        {
          "indexed": true,
          "internalType": "address",
          "name": "previousOwner",
          "type": "address"
        },
        {
          "indexed": true,
          "internalType": "address",
          "name": "newOwner",
          "type": "address"
        }
      ],
      "name": "OwnershipTransferred",
      "type": "event"
    },
    {
      "anonymous": false,
      "inputs": [
        {
          "indexed": true,
          "internalType": "address",
          "name": "account",
          "type": "address"
        },
        {
          "indexed": true,
          "internalType": "uint256",
          "name": "matchId",
          "type": "uint256"
        },
        {
          "indexed": false,
          "internalType": "uint256",
          "name": "amount",
          "type": "uint256"
        }
      ],
      "name": "PayoutDelivered",
      "type": "event"
    },
    {
      "anonymous": false,
      "inputs": [
        {
          "indexed": false,
          "internalType": "address",
          "name": "payoutWallet",
          "type": "address"
        }
      ],
      "name": "PayoutWalletSet",
      "type": "event"
    },
    {
      "inputs": [],
      "name": "COMPLETE_MATCH_TYPEHASH",
      "outputs": [
        {
          "internalType": "bytes32",
          "name": "",
          "type": "bytes32"
        }
      ],
      "stateMutability": "view",
      "type": "function"
    },
    {
      "inputs": [],
      "name": "ENTRY_FEE",
      "outputs": [
        {
          "internalType": "uint256",
          "name": "",
          "type": "uint256"
        }
      ],
      "stateMutability": "view",
      "type": "function"
    },
    {
      "inputs": [],
      "name": "ERC20",
      "outputs": [
        {
          "internalType": "contract IERC20",
          "name": "",
          "type": "address"
        }
      ],
      "stateMutability": "view",
      "type": "function"
    },
    {
      "inputs": [],
      "name": "__msgData",
      "outputs": [
        {
          "internalType": "bytes",
          "name": "",
          "type": "bytes"
        }
      ],
      "stateMutability": "view",
      "type": "function"
    },
    {
      "inputs": [],
      "name": "__msgSender",
      "outputs": [
        {
          "internalType": "address",
          "name": "",
          "type": "address"
        }
      ],
      "stateMutability": "view",
      "type": "function"
    },
    {
      "inputs": [],
      "name": "admit",
      "outputs": [],
      "stateMutability": "nonpayable",
      "type": "function"
    },
    {
      "inputs": [
        {
          "internalType": "address",
          "name": "account",
          "type": "address"
        }
      ],
      "name": "admitted",
      "outputs": [
        {
          "internalType": "uint256",
          "name": "admissionTime",
          "type": "uint256"
        }
      ],
      "stateMutability": "view",
      "type": "function"
    },
    {
      "inputs": [],
      "name": "commission",
      "outputs": [
        {
          "internalType": "uint256",
          "name": "",
          "type": "uint256"
        }
      ],
      "stateMutability": "view",
      "type": "function"
    },
    {
      "inputs": [],
      "name": "commissionRate",
      "outputs": [
        {
          "internalType": "uint256",
          "name": "",
          "type": "uint256"
        }
      ],
      "stateMutability": "view",
      "type": "function"
    },
    {
      "inputs": [
        {
          "internalType": "uint256",
          "name": "matchId",
          "type": "uint256"
        },
        {
          "internalType": "address",
          "name": "player1",
          "type": "address"
        },
        {
          "internalType": "address",
          "name": "player2",
          "type": "address"
        },
        {
          "internalType": "enum ArenaBase.MatchResult",
          "name": "result",
          "type": "uint8"
        },
        {
          "internalType": "bytes",
          "name": "signature",
          "type": "bytes"
        }
      ],
      "name": "completeMatch",
      "outputs": [],
      "stateMutability": "nonpayable",
      "type": "function"
    },
    {
      "inputs": [],
      "name": "eip712Domain",
      "outputs": [
        {
          "internalType": "bytes1",
          "name": "fields",
          "type": "bytes1"
        },
        {
          "internalType": "string",
          "name": "name",
          "type": "string"
        },
        {
          "internalType": "string",
          "name": "version",
          "type": "string"
        },
        {
          "internalType": "uint256",
          "name": "chainId",
          "type": "uint256"
        },
        {
          "internalType": "address",
          "name": "verifyingContract",
          "type": "address"
        },
        {
          "internalType": "bytes32",
          "name": "salt",
          "type": "bytes32"
        },
        {
          "internalType": "uint256[]",
          "name": "extensions",
          "type": "uint256[]"
        }
      ],
      "stateMutability": "view",
      "type": "function"
    },
    {
      "inputs": [],
      "name": "feeLocked",
      "outputs": [
        {
          "internalType": "uint256",
          "name": "",
          "type": "uint256"
        }
      ],
      "stateMutability": "view",
      "type": "function"
    },
    {
      "inputs": [],
      "name": "forwarderRegistry",
      "outputs": [
        {
          "internalType": "contract IForwarderRegistry",
          "name": "",
          "type": "address"
        }
      ],
      "stateMutability": "view",
      "type": "function"
    },
    {
      "inputs": [
        {
          "internalType": "address",
          "name": "forwarder",
          "type": "address"
        }
      ],
      "name": "isTrustedForwarder",
      "outputs": [
        {
          "internalType": "bool",
          "name": "",
          "type": "bool"
        }
      ],
      "stateMutability": "view",
      "type": "function"
    },
    {
      "inputs": [],
      "name": "messageSigner",
      "outputs": [
        {
          "internalType": "address",
          "name": "",
          "type": "address"
        }
      ],
      "stateMutability": "view",
      "type": "function"
    },
    {
      "inputs": [
        {
          "internalType": "address",
          "name": "",
          "type": "address"
        },
        {
          "internalType": "address",
          "name": "from",
          "type": "address"
        },
        {
          "internalType": "uint256",
          "name": "amount",
          "type": "uint256"
        },
        {
          "internalType": "bytes",
          "name": "",
          "type": "bytes"
        }
      ],
      "name": "onERC20Received",
      "outputs": [
        {
          "internalType": "bytes4",
          "name": "",
          "type": "bytes4"
        }
      ],
      "stateMutability": "nonpayable",
      "type": "function"
    },
    {
      "inputs": [],
      "name": "owner",
      "outputs": [
        {
          "internalType": "address",
          "name": "",
          "type": "address"
        }
      ],
      "stateMutability": "view",
      "type": "function"
    },
    {
      "inputs": [],
      "name": "payoutWallet",
      "outputs": [
        {
          "internalType": "address payable",
          "name": "wallet",
          "type": "address"
        }
      ],
      "stateMutability": "view",
      "type": "function"
    },
    {
      "inputs": [
        {
          "internalType": "address[]",
          "name": "accounts",
          "type": "address[]"
        },
        {
          "internalType": "contract IERC20[]",
          "name": "tokens",
          "type": "address[]"
        },
        {
          "internalType": "uint256[]",
          "name": "amounts",
          "type": "uint256[]"
        }
      ],
      "name": "recoverERC20s",
      "outputs": [],
      "stateMutability": "nonpayable",
      "type": "function"
    },
    {
      "inputs": [
        {
          "internalType": "address[]",
          "name": "accounts",
          "type": "address[]"
        },
        {
          "internalType": "contract IERC721[]",
          "name": "contracts",
          "type": "address[]"
        },
        {
          "internalType": "uint256[]",
          "name": "tokenIds",
          "type": "uint256[]"
        }
      ],
      "name": "recoverERC721s",
      "outputs": [],
      "stateMutability": "nonpayable",
      "type": "function"
    },
    {
      "inputs": [
        {
          "internalType": "address payable[]",
          "name": "accounts",
          "type": "address[]"
        },
        {
          "internalType": "uint256[]",
          "name": "amounts",
          "type": "uint256[]"
        }
      ],
      "name": "recoverETH",
      "outputs": [],
      "stateMutability": "nonpayable",
      "type": "function"
    },
    {
      "inputs": [],
      "name": "reward",
      "outputs": [
        {
          "internalType": "uint256",
          "name": "",
          "type": "uint256"
        }
      ],
      "stateMutability": "view",
      "type": "function"
    },
    {
      "inputs": [
        {
          "internalType": "uint256",
          "name": "newCommissionRate",
          "type": "uint256"
        }
      ],
      "name": "setCommissionRate",
      "outputs": [],
      "stateMutability": "nonpayable",
      "type": "function"
    },
    {
      "inputs": [
        {
          "internalType": "address",
          "name": "signer",
          "type": "address"
        }
      ],
      "name": "setMessageSigner",
      "outputs": [],
      "stateMutability": "nonpayable",
      "type": "function"
    },
    {
      "inputs": [
        {
          "internalType": "address payable",
          "name": "newPayoutWallet",
          "type": "address"
        }
      ],
      "name": "setPayoutWallet",
      "outputs": [],
      "stateMutability": "nonpayable",
      "type": "function"
    },
    {
      "inputs": [
        {
          "internalType": "bytes4",
          "name": "interfaceId",
          "type": "bytes4"
        }
      ],
      "name": "supportsInterface",
      "outputs": [
        {
          "internalType": "bool",
          "name": "",
          "type": "bool"
        }
      ],
      "stateMutability": "view",
      "type": "function"
    },
    {
      "inputs": [
        {
          "internalType": "address",
          "name": "newOwner",
          "type": "address"
        }
      ],
      "name": "transferOwnership",
      "outputs": [],
      "stateMutability": "nonpayable",
      "type": "function"
    }
  ],
  "bytecode": "0x6101c060405234801561001157600080fd5b506040516135eb3803806135eb8339810160408190526100309161055f565b8585858585858080848633604051806040016040528060058152602001644172656e6160d81b815250604051806040016040528060038152602001620312e360ec1b81525061008960008361021f60201b90919060201c565b6101205261009881600161021f565b61014052815160208084019190912060e052815190820120610100524660a05261012560e05161010051604080517f8b73c3c69bb8fe3d512ecc4cf759cc79239f7b179b0ffacaa9a75d522b39400f60208201529081019290925260608201524660808201523060a082015260009060c00160405160208183030381529060405280519060200120905090565b60805250503060c0526101408161013a610252565b90610280565b50600280546001600160a01b0319166001600160a01b0383169081179091556040519081527f66b8dbbd7f4a59921c0e0f594b6fb8434e778851611f323b7c3d00d07a74b1209060200160405180910390a1506101af634fc3585960e01b60016101a86102ef565b919061031d565b6101c1816101bb610379565b906103a7565b506001600160a01b0316610160525060008690036101f257604051634dfba02360e01b815260040160405180910390fd5b6101a0869052610201856103b1565b506001600160a01b0316610180525061082098505050505050505050565b600060208351101561023b5761023483610490565b905061024c565b816102468482610672565b5060ff90505b92915050565b60008061024c60017fc9ed16f33ab3a66c84bfd83099ccb2a8845871e2e1c1928f63797152f0fd54cd610746565b6001600160a01b038116156102d65781546001600160a01b0319166001600160a01b03821690811783556040516000907f8be0079c531659141344cd1fd0a4f28419497f9722a3daafe3b4186f6b6457e0908290a35b6102eb6307f5828d60e41b60016101a86102ef565b5050565b60008061024c60017fca9d3e17f264b0f3984e2634e94adb37fa3e6a8103f06aeae6fa59e21c769f5e610746565b600160e01b6001600160e01b031983160161034b576040516372c683bb60e01b815260040160405180910390fd5b6001600160e01b03199190911660009081526020929092526040909120805460ff1916911515919091179055565b60008061024c60017f4fb5f8cdfbce77f22b0931a39e9f476a60a0f66524b2f379e96485471eb700ae610746565b6102eb82826104ce565b60006101a05160026103c39190610759565b905060008215610449576127108084106103f857604051633e13fd7160e11b8152600481018590526024015b60405180910390fd5b806104038585610759565b61040d9190610786565b915061041a60028361079a565b1561043b57604051633e13fd7160e11b8152600481018590526024016103ef565b6104458284610746565b9250505b6004839055600581905560068290556040518381527f2377da1065ac38e2a730070d5b9dd08aa697ba49f4b41e3dee80ab5cc06099019060200160405180910390a1505050565b600080829050601f815111156104bb578260405163305a27a960e01b81526004016103ef91906107ae565b80516104c6826107fc565b179392505050565b6001600160a01b0381166104f5576040516340b539cf60e01b815260040160405180910390fd5b81546001600160a01b0319166001600160a01b03821690811783556040519081527fdd880d24a789958a6398c99c2e54ce31bc10a638cbc42f7dd34285479ae0f8559060200160405180910390a15050565b6001600160a01b038116811461055c57600080fd5b50565b60008060008060008060c0878903121561057857600080fd5b865160208801516040890151919750955061059281610547565b60608801519094506105a381610547565b60808801519093506105b481610547565b60a08801519092506105c581610547565b809150509295509295509295565b634e487b7160e01b600052604160045260246000fd5b600181811c908216806105fd57607f821691505b60208210810361061d57634e487b7160e01b600052602260045260246000fd5b50919050565b601f82111561066d57806000526020600020601f840160051c8101602085101561064a5750805b601f840160051c820191505b8181101561066a5760008155600101610656565b50505b505050565b81516001600160401b0381111561068b5761068b6105d3565b61069f8161069984546105e9565b84610623565b6020601f8211600181146106d357600083156106bb5750848201515b600019600385901b1c1916600184901b17845561066a565b600084815260208120601f198516915b8281101561070357878501518255602094850194600190920191016106e3565b50848210156107215786840151600019600387901b60f8161c191681555b50505050600190811b01905550565b634e487b7160e01b600052601160045260246000fd5b8181038181111561024c5761024c610730565b808202811582820484141761024c5761024c610730565b634e487b7160e01b600052601260045260246000fd5b60008261079557610795610770565b500490565b6000826107a9576107a9610770565b500690565b602081526000825180602084015260005b818110156107dc57602081860181015160408684010152016107bf565b506000604082850101526040601f19601f83011684010191505092915050565b8051602080830151919081101561061d5760001960209190910360031b1b16919050565b60805160a05160c05160e05161010051610120516101405161016051610180516101a051612ccb6109206000396000818161045e015281816104fc01528181610570015281816106310152818161099f01528181610a030152610eef0152600081816104130152818161054c015281816106b20152818161071b0152818161075c01528181610869015281816108fc01528181610acb0152610b460152600081816102780152818161033401528181611a1001528181611a9e01528181611b510152611b8f01526000611551015260006115240152600061216e01526000612146015260006120a1015260006120cb015260006120f50152612ccb6000f3fe608060405234801561001057600080fd5b50600436106101b85760003560e01c80636b8f9c43116100f9578063c3666c3611610097578063e148919111610071578063e14891911461043d578063f2fde38b14610446578063f6d361cc14610459578063f7ba94bd1461048057600080fd5b8063c3666c36146103fb578063cc4aa2041461040e578063d1a91ff21461043557600080fd5b80638488bb4e116100d35780638488bb4e146103a957806384b0196e146103b15780638da5cb5b146103cc578063a51f054e146103d457600080fd5b80636b8f9c431461037a57806373c8a9581461038d57806377e40491146103a057600080fd5b806331e66e1e116101665780634d717e60116101405780634d717e60146102cd5780634fc35859146102e0578063572b6c05146103245780635ea1d6f81461037157600080fd5b806331e66e1e1461029c5780634ae83719146102b25780634b36df53146102ba57600080fd5b806319fac8fd1161019757806319fac8fd14610258578063228cb7331461026d5780632b4c9f161461027657600080fd5b806220d939146101bd57806301ffc9a7146101f0578063080387b414610213575b600080fd5b6101dd6101cb366004612538565b60036020526000908152604090205481565b6040519081526020015b60405180910390f35b6102036101fe366004612555565b610493565b60405190151581526020016101e7565b6002546102339073ffffffffffffffffffffffffffffffffffffffff1681565b60405173ffffffffffffffffffffffffffffffffffffffff90911681526020016101e7565b61026b610266366004612597565b6104ad565b005b6101dd60065481565b7f0000000000000000000000000000000000000000000000000000000000000000610233565b6102a46104d2565b6040516101e79291906125b0565b61026b6104e5565b61026b6102c8366004612538565b610594565b61026b6102db366004612646565b610618565b6102f36102ee3660046126cf565b6108ed565b6040517fffffffff0000000000000000000000000000000000000000000000000000000090911681526020016101e7565b610203610332366004612538565b7f000000000000000000000000000000000000000000000000000000000000000073ffffffffffffffffffffffffffffffffffffffff90811691161490565b6101dd60045481565b61026b610388366004612538565b610a64565b61026b61039b366004612787565b610a81565b6101dd60075481565b610233610c55565b6103b9610c67565b6040516101e79796959493929190612889565b610233610cc9565b6101dd7f41d3c412792afe3502c61d7887e9d9d833c12de3149ac85d69058c8586f6347081565b61026b610409366004612787565b610cd6565b6102337f000000000000000000000000000000000000000000000000000000000000000081565b610233610cf7565b6101dd60055481565b61026b610454366004612538565b610d01565b6101dd7f000000000000000000000000000000000000000000000000000000000000000081565b61026b61048e36600461294a565b610d1c565b60006104a7826104a1610d39565b90610d67565b92915050565b6104c66104b8610e41565b6104c0610e4b565b90610e79565b6104cf81610ee8565b50565b3660006104dd61100f565b915091509091565b60006104ef610e41565b90506104fa8161101a565b7f00000000000000000000000000000000000000000000000000000000000000006007600082825461052c91906129ea565b909155506104cf905073ffffffffffffffffffffffffffffffffffffffff7f00000000000000000000000000000000000000000000000000000000000000001682307f00000000000000000000000000000000000000000000000000000000000000006110e0565b61059f6104b8610e41565b600280547fffffffffffffffffffffffff00000000000000000000000000000000000000001673ffffffffffffffffffffffffffffffffffffffff83169081179091556040519081527f66b8dbbd7f4a59921c0e0f594b6fb8434e778851611f323b7c3d00d07a74b1209060200160405180910390a150565b610626868686868686611169565b6005546006546106577f000000000000000000000000000000000000000000000000000000000000000060026129fd565b600760008282546106689190612a14565b909155505081156106d9576106d961069b6106816113cf565b5473ffffffffffffffffffffffffffffffffffffffff1690565b73ffffffffffffffffffffffffffffffffffffffff7f00000000000000000000000000000000000000000000000000000000000000001690846113fd565b60028560028111156106ed576106ed612a27565b0361082b5760006106ff600283612a85565b905061074273ffffffffffffffffffffffffffffffffffffffff7f00000000000000000000000000000000000000000000000000000000000000001689836113fd565b61078373ffffffffffffffffffffffffffffffffffffffff7f00000000000000000000000000000000000000000000000000000000000000001688836113fd565b888873ffffffffffffffffffffffffffffffffffffffff167f0733dbb1b7864ea8abcea54657d9fc322605c9a44f8733d80e4edb6d61b999bb836040516107cc91815260200190565b60405180910390a3888773ffffffffffffffffffffffffffffffffffffffff167f0733dbb1b7864ea8abcea54657d9fc322605c9a44f8733d80e4edb6d61b999bb8360405161081d91815260200190565b60405180910390a3506108e3565b60008086600281111561084057610840612a27565b1461084b578661084d565b875b905061089073ffffffffffffffffffffffffffffffffffffffff7f00000000000000000000000000000000000000000000000000000000000000001682846113fd565b888173ffffffffffffffffffffffffffffffffffffffff167f0733dbb1b7864ea8abcea54657d9fc322605c9a44f8733d80e4edb6d61b999bb846040516108d991815260200190565b60405180910390a3505b5050505050505050565b6000806108f8610e41565b90507f000000000000000000000000000000000000000000000000000000000000000073ffffffffffffffffffffffffffffffffffffffff168173ffffffffffffffffffffffffffffffffffffffff161461099c576040517f4e34486d00000000000000000000000000000000000000000000000000000000815273ffffffffffffffffffffffffffffffffffffffff821660048201526024015b60405180910390fd5b847f0000000000000000000000000000000000000000000000000000000000000000146109f8576040517f1fe8621800000000000000000000000000000000000000000000000000000000815260048101869052602401610993565b610a018661101a565b7f000000000000000000000000000000000000000000000000000000000000000060076000828254610a3391906129ea565b909155507f4fc358590000000000000000000000000000000000000000000000000000000098975050505050505050565b610a6f6104b8610e41565b6104cf81610a7b6113cf565b90611440565b6007546040517f70a082310000000000000000000000000000000000000000000000000000000081523060048201526000919073ffffffffffffffffffffffffffffffffffffffff7f000000000000000000000000000000000000000000000000000000000000000016906370a0823190602401602060405180830381865afa158015610b12573d6000803e3d6000fd5b505050506040513d601f19601f82011682018060405250810190610b369190612a99565b610b409190612a14565b905060007f0000000000000000000000000000000000000000000000000000000000000000815b86811015610bf7578173ffffffffffffffffffffffffffffffffffffffff16888883818110610b9857610b98612ab2565b9050602002016020810190610bad9190612538565b73ffffffffffffffffffffffffffffffffffffffff1603610bef57858582818110610bda57610bda612ab2565b9050602002013583610bec91906129ea565b92505b600101610b67565b5082821115610c3c576040517fee8784a90000000000000000000000000000000000000000000000000000000081526004810184905260248101839052604401610993565b610c4a898989898989611504565b505050505050505050565b6000610c626106816113cf565b905090565b600060608060008060006060610c7b61151d565b610c8361154a565b604080516000808252602082019092527f0f000000000000000000000000000000000000000000000000000000000000009b939a50919850469750309650945092509050565b6000610c62610681610e4b565b610ce16104b8610e41565b610cef868686868686611577565b505050505050565b6000610c62610e41565b6104cf610d0c610e41565b82610d15610e4b565b919061180d565b610d276104b8610e41565b610d3384848484611921565b50505050565b6000806104a760017fca9d3e17f264b0f3984e2634e94adb37fa3e6a8103f06aeae6fa59e21c769f5e612a14565b60007c01000000000000000000000000000000000000000000000000000000007fffffffff00000000000000000000000000000000000000000000000000000000831601610db7575060006104a7565b7ffe003659000000000000000000000000000000000000000000000000000000007fffffffff00000000000000000000000000000000000000000000000000000000831601610e08575060016104a7565b507fffffffff00000000000000000000000000000000000000000000000000000000166000908152602091909152604090205460ff1690565b6000610c626119cd565b6000806104a760017fc9ed16f33ab3a66c84bfd83099ccb2a8845871e2e1c1928f63797152f0fd54cd612a14565b815473ffffffffffffffffffffffffffffffffffffffff828116911614610ee4576040517f2ef4875e00000000000000000000000000000000000000000000000000000000815273ffffffffffffffffffffffffffffffffffffffff82166004820152602401610993565b5050565b6000610f157f000000000000000000000000000000000000000000000000000000000000000060026129fd565b905060008215610fc857612710808410610f5e576040517f7c27fae200000000000000000000000000000000000000000000000000000000815260048101859052602401610993565b80610f6985856129fd565b610f739190612a85565b9150610f80600283612ae1565b15610fba576040517f7c27fae200000000000000000000000000000000000000000000000000000000815260048101859052602401610993565b610fc48284612a14565b9250505b6004839055600581905560068290556040518381527f2377da1065ac38e2a730070d5b9dd08aa697ba49f4b41e3dee80ab5cc06099019060200160405180910390a1505050565b3660006104dd611b1a565b73ffffffffffffffffffffffffffffffffffffffff81166000908152600360205260409020541561108f576040517f301eda9600000000000000000000000000000000000000000000000000000000815273ffffffffffffffffffffffffffffffffffffffff82166004820152602401610993565b73ffffffffffffffffffffffffffffffffffffffff8116600081815260036020526040808220429055517f131f3edc3bd512c7b34906feb3cdacf9e893076fbb713603ff86294f0ddd28ca9190a250565b60405173ffffffffffffffffffffffffffffffffffffffff8481166024830152838116604483015260648201839052610d339186918216906323b872dd906084015b604051602081830303815290604052915060e01b6020820180517bffffffffffffffffffffffffffffffffffffffffffffffffffffffff8381831617835250505050611c8a565b73ffffffffffffffffffffffffffffffffffffffff8516600090815260036020526040812054908190036111e1576040517f2da4098c00000000000000000000000000000000000000000000000000000000815273ffffffffffffffffffffffffffffffffffffffff87166004820152602401610993565b73ffffffffffffffffffffffffffffffffffffffff851660009081526003602052604081205490819003611259576040517f2da4098c00000000000000000000000000000000000000000000000000000000815273ffffffffffffffffffffffffffffffffffffffff87166004820152602401610993565b60006112b67f41d3c412792afe3502c61d7887e9d9d833c12de3149ac85d69058c8586f634708a8a8a87878c60405160200161129b9796959493929190612b30565b60405160208183030381529060405280519060200120611d2e565b600254604080516020601f89018190048102820181019092528781529293506000926113169273ffffffffffffffffffffffffffffffffffffffff16918591908a908a9081908401838280828437600092019190915250611d7692505050565b90508061134f576040517f8baa579f00000000000000000000000000000000000000000000000000000000815260040160405180910390fd5b73ffffffffffffffffffffffffffffffffffffffff808a16600081815260036020526040808220829055928b168082528382209190915591518c907fa41446c5ad98f98e4d30afa277dbb496694229533065ee6b8fc00f57f97f230a906113bb90899089908e90612b9e565b60405180910390a450505050505050505050565b6000806104a760017f4fb5f8cdfbce77f22b0931a39e9f476a60a0f66524b2f379e96485471eb700ae612a14565b60405173ffffffffffffffffffffffffffffffffffffffff83811660248301526044820183905261143b91859182169063a9059cbb90606401611122565b505050565b73ffffffffffffffffffffffffffffffffffffffff811661148d576040517f40b539cf00000000000000000000000000000000000000000000000000000000815260040160405180910390fd5b81547fffffffffffffffffffffffff00000000000000000000000000000000000000001673ffffffffffffffffffffffffffffffffffffffff821690811783556040519081527fdd880d24a789958a6398c99c2e54ce31bc10a638cbc42f7dd34285479ae0f8559060200160405180910390a15050565b61150f6104b8610e41565b610cef868686868686611e14565b6060610c627f00000000000000000000000000000000000000000000000000000000000000006000611ef5565b6060610c627f00000000000000000000000000000000000000000000000000000000000000006001611ef5565b8483811415806115875750808214155b156115be576040517f6582533600000000000000000000000000000000000000000000000000000000815260040160405180910390fd5b60005b818110156108e35760008686838181106115dd576115dd612ab2565b90506020020160208101906115f29190612538565b6040517f01ffc9a70000000000000000000000000000000000000000000000000000000081527f80ac58cd00000000000000000000000000000000000000000000000000000000600482015290915073ffffffffffffffffffffffffffffffffffffffff8216906301ffc9a790602401602060405180830381865afa15801561167f573d6000803e3d6000fd5b505050506040513d601f19601f820116820180604052508101906116a39190612bc1565b6116f1576040517f986b9f1f00000000000000000000000000000000000000000000000000000000815273ffffffffffffffffffffffffffffffffffffffff82166004820152602401610993565b86868381811061170357611703612ab2565b90506020020160208101906117189190612538565b73ffffffffffffffffffffffffffffffffffffffff166342842e0e308b8b8681811061174657611746612ab2565b905060200201602081019061175b9190612538565b88888781811061176d5761176d612ab2565b6040517fffffffff0000000000000000000000000000000000000000000000000000000060e088901b16815273ffffffffffffffffffffffffffffffffffffffff958616600482015294909316602485015250602090910201356044820152606401600060405180830381600087803b1580156117e957600080fd5b505af11580156117fd573d6000803e3d6000fd5b50505050508060010190506115c1565b825473ffffffffffffffffffffffffffffffffffffffff908116908316811461187a576040517f2ef4875e00000000000000000000000000000000000000000000000000000000815273ffffffffffffffffffffffffffffffffffffffff84166004820152602401610993565b8173ffffffffffffffffffffffffffffffffffffffff168173ffffffffffffffffffffffffffffffffffffffff1614610d335783547fffffffffffffffffffffffff00000000000000000000000000000000000000001673ffffffffffffffffffffffffffffffffffffffff8381169182178655604051908316907f8be0079c531659141344cd1fd0a4f28419497f9722a3daafe3b4186f6b6457e090600090a350505050565b8281811461195b576040517f6582533600000000000000000000000000000000000000000000000000000000815260040160405180910390fd5b60005b81811015610cef576119c584848381811061197b5761197b612ab2565b9050602002013587878481811061199457611994612ab2565b90506020020160208101906119a99190612538565b73ffffffffffffffffffffffffffffffffffffffff1690611fa0565b60010161195e565b6000333214806119dd5750601836105b156119e757503390565b7fffffffffffffffffffffffffffffffffffffffffffffffffffffffffffffffec36013560601c7f000000000000000000000000000000000000000000000000000000000000000073ffffffffffffffffffffffffffffffffffffffff16331480611b0957506040517f019a202800000000000000000000000000000000000000000000000000000000815273ffffffffffffffffffffffffffffffffffffffff82811660048301523360248301523060448301527f0000000000000000000000000000000000000000000000000000000000000000169063019a202890606401602060405180830381865afa158015611ae5573d6000803e3d6000fd5b505050506040513d601f19601f82011682018060405250810190611b099190612bc1565b15611b1357919050565b3391505090565b36600033321480611b2b5750601836105b15611b395750600091369150565b3373ffffffffffffffffffffffffffffffffffffffff7f0000000000000000000000000000000000000000000000000000000000000000161480611c74575073ffffffffffffffffffffffffffffffffffffffff7f00000000000000000000000000000000000000000000000000000000000000001663019a2028367fffffffffffffffffffffffffffffffffffffffffffffffffffffffffffffffec013560601c6040517fffffffff0000000000000000000000000000000000000000000000000000000060e084901b16815273ffffffffffffffffffffffffffffffffffffffff9091166004820152336024820152306044820152606401602060405180830381865afa158015611c50573d6000803e3d6000fd5b505050506040513d601f19601f82011682018060405250810190611c749190612bc1565b15611c81576104dd612056565b50600091369150565b600080602060008451602086016000885af180611cad576040513d6000823e3d81fd5b50506000513d91508115611cc5578060011415611cdf565b73ffffffffffffffffffffffffffffffffffffffff84163b155b15610d33576040517f5274afe700000000000000000000000000000000000000000000000000000000815273ffffffffffffffffffffffffffffffffffffffff85166004820152602401610993565b60006104a7611d3b612087565b836040517f19010000000000000000000000000000000000000000000000000000000000008152600281019290925260228201526042902090565b60008373ffffffffffffffffffffffffffffffffffffffff163b600003611dff57600080611da485856121bf565b5090925090506000816003811115611dbe57611dbe612a27565b148015611df657508573ffffffffffffffffffffffffffffffffffffffff168273ffffffffffffffffffffffffffffffffffffffff16145b92505050611e0d565b611e0a84848461220c565b90505b9392505050565b848381141580611e245750808214155b15611e5b576040517f6582533600000000000000000000000000000000000000000000000000000000815260040160405180910390fd5b60005b818110156108e357611eed888883818110611e7b57611e7b612ab2565b9050602002016020810190611e909190612538565b858584818110611ea257611ea2612ab2565b90506020020135888885818110611ebb57611ebb612ab2565b9050602002016020810190611ed09190612538565b73ffffffffffffffffffffffffffffffffffffffff1691906113fd565b600101611e5e565b606060ff8314611f0f57611f088361235a565b90506104a7565b818054611f1b90612be3565b80601f0160208091040260200160405190810160405280929190818152602001828054611f4790612be3565b8015611f945780601f10611f6957610100808354040283529160200191611f94565b820191906000526020600020905b815481529060010190602001808311611f7757829003601f168201915b505050505090506104a7565b80471015611fe3576040517fcf47918100000000000000000000000000000000000000000000000000000000815247600482015260248101829052604401610993565b6000808373ffffffffffffffffffffffffffffffffffffffff168360405160006040518083038185875af1925050503d806000811461203e576040519150601f19603f3d011682016040523d82523d6000602084013e612043565b606091505b509150915081610d3357610d3381612399565b3660006104dd7fffffffffffffffffffffffffffffffffffffffffffffffffffffffffffffffec8301828481612c36565b60003073ffffffffffffffffffffffffffffffffffffffff7f0000000000000000000000000000000000000000000000000000000000000000161480156120ed57507f000000000000000000000000000000000000000000000000000000000000000046145b1561211757507f000000000000000000000000000000000000000000000000000000000000000090565b610c62604080517f8b73c3c69bb8fe3d512ecc4cf759cc79239f7b179b0ffacaa9a75d522b39400f60208201527f0000000000000000000000000000000000000000000000000000000000000000918101919091527f000000000000000000000000000000000000000000000000000000000000000060608201524660808201523060a082015260009060c00160405160208183030381529060405280519060200120905090565b600080600083516041036121f95760208401516040850151606086015160001a6121eb888285856123db565b955095509550505050612205565b50508151600091506002905b9250925092565b60008060008573ffffffffffffffffffffffffffffffffffffffff16858560405160240161223b929190612c60565b604080517fffffffffffffffffffffffffffffffffffffffffffffffffffffffffffffffe08184030181529181526020820180517bffffffffffffffffffffffffffffffffffffffffffffffffffffffff167f1626ba7e00000000000000000000000000000000000000000000000000000000179052516122bc9190612c79565b600060405180830381855afa9150503d80600081146122f7576040519150601f19603f3d011682016040523d82523d6000602084013e6122fc565b606091505b509150915081801561231057506020815110155b8015612350575080517f1626ba7e000000000000000000000000000000000000000000000000000000009061234e9083016020908101908401612a99565b145b9695505050505050565b60606000612367836124d5565b604080516020808252818301909252919250600091906020820181803683375050509182525060208101929092525090565b8051156123a95780518082602001fd5b6040517fd6bda27500000000000000000000000000000000000000000000000000000000815260040160405180910390fd5b600080807f7fffffffffffffffffffffffffffffff5d576e7357a4501ddfe92f46681b20a084111561241657506000915060039050826124cb565b604080516000808252602082018084528a905260ff891692820192909252606081018790526080810186905260019060a0016020604051602081039080840390855afa15801561246a573d6000803e3d6000fd5b50506040517fffffffffffffffffffffffffffffffffffffffffffffffffffffffffffffffe0015191505073ffffffffffffffffffffffffffffffffffffffff81166124c1575060009250600191508290506124cb565b9250600091508190505b9450945094915050565b600060ff8216601f8111156104a7576040517fb3512b0c00000000000000000000000000000000000000000000000000000000815260040160405180910390fd5b73ffffffffffffffffffffffffffffffffffffffff811681146104cf57600080fd5b60006020828403121561254a57600080fd5b8135611e0d81612516565b60006020828403121561256757600080fd5b81357fffffffff0000000000000000000000000000000000000000000000000000000081168114611e0d57600080fd5b6000602082840312156125a957600080fd5b5035919050565b60208152816020820152818360408301376000818301604090810191909152601f9092017fffffffffffffffffffffffffffffffffffffffffffffffffffffffffffffffe0160101919050565b60008083601f84011261260f57600080fd5b50813567ffffffffffffffff81111561262757600080fd5b60208301915083602082850101111561263f57600080fd5b9250929050565b60008060008060008060a0878903121561265f57600080fd5b86359550602087013561267181612516565b9450604087013561268181612516565b935060608701356003811061269557600080fd5b9250608087013567ffffffffffffffff8111156126b157600080fd5b6126bd89828a016125fd565b979a9699509497509295939492505050565b6000806000806000608086880312156126e757600080fd5b85356126f281612516565b9450602086013561270281612516565b935060408601359250606086013567ffffffffffffffff81111561272557600080fd5b612731888289016125fd565b969995985093965092949392505050565b60008083601f84011261275457600080fd5b50813567ffffffffffffffff81111561276c57600080fd5b6020830191508360208260051b850101111561263f57600080fd5b600080600080600080606087890312156127a057600080fd5b863567ffffffffffffffff8111156127b757600080fd5b6127c389828a01612742565b909750955050602087013567ffffffffffffffff8111156127e357600080fd5b6127ef89828a01612742565b909550935050604087013567ffffffffffffffff81111561280f57600080fd5b6126bd89828a01612742565b60005b8381101561283657818101518382015260200161281e565b50506000910152565b6000815180845261285781602086016020860161281b565b601f017fffffffffffffffffffffffffffffffffffffffffffffffffffffffffffffffe0169290920160200192915050565b7fff000000000000000000000000000000000000000000000000000000000000008816815260e0602082015260006128c460e083018961283f565b82810360408401526128d6818961283f565b6060840188905273ffffffffffffffffffffffffffffffffffffffff8716608085015260a0840186905283810360c08501528451808252602080870193509091019060005b8181101561293957835183526020938401939092019160010161291b565b50909b9a5050505050505050505050565b6000806000806040858703121561296057600080fd5b843567ffffffffffffffff81111561297757600080fd5b61298387828801612742565b909550935050602085013567ffffffffffffffff8111156129a357600080fd5b6129af87828801612742565b95989497509550505050565b7f4e487b7100000000000000000000000000000000000000000000000000000000600052601160045260246000fd5b808201808211156104a7576104a76129bb565b80820281158282048414176104a7576104a76129bb565b818103818111156104a7576104a76129bb565b7f4e487b7100000000000000000000000000000000000000000000000000000000600052602160045260246000fd5b7f4e487b7100000000000000000000000000000000000000000000000000000000600052601260045260246000fd5b600082612a9457612a94612a56565b500490565b600060208284031215612aab57600080fd5b5051919050565b7f4e487b7100000000000000000000000000000000000000000000000000000000600052603260045260246000fd5b600082612af057612af0612a56565b500690565b60038110612b2c577f4e487b7100000000000000000000000000000000000000000000000000000000600052602160045260246000fd5b9052565b600060e08201905088825287602083015273ffffffffffffffffffffffffffffffffffffffff8716604083015273ffffffffffffffffffffffffffffffffffffffff861660608301528460808301528360a0830152612b9260c0830184612af5565b98975050505050505050565b8381526020810183905260608101612bb96040830184612af5565b949350505050565b600060208284031215612bd357600080fd5b81518015158114611e0d57600080fd5b600181811c90821680612bf757607f821691505b602082108103612c30577f4e487b7100000000000000000000000000000000000000000000000000000000600052602260045260246000fd5b50919050565b60008085851115612c4657600080fd5b83861115612c5357600080fd5b5050820193919092039150565b828152604060208201526000612bb9604083018461283f565b60008251612c8b81846020870161281b565b919091019291505056fea2646970667358221220c12bd5078d99bcb8447ef1c3738c15f17e33e08d82d89a870dacd5e38815127e64736f6c634300081c0033",
  "linkReferences": {},
  "deployedLinkReferences": {}
}