{
  "_format": "hh-sol-artifact-1",
  "contractName": "PointsBitmapClaimMock",
  "sourceName": "contracts/mocks/bitmapClaimMock/PointsBitmapClaimMock.sol",
  "abi": [
    {
      "inputs": [
        {
          "internalType": "address",
          "name": "pointsContractAddress",
          "type": "address"
        },
        {
          "internalType": "contract IForwarderRegistry",
          "name": "forwarderRegistry_",
          "type": "address"
        },
        {
          "internalType": "bytes32",
          "name": "depositReasonCode",
          "type": "bytes32"
        },
        {
          "internalType": "address",
          "name": "signer",
          "type": "address"
        }
      ],
      "stateMutability": "nonpayable",
      "type": "constructor"
    },
    {
      "inputs": [
        {
          "internalType": "address",
          "name": "recipient",
          "type": "address"
        },
        {
          "internalType": "uint256",
          "name": "claimBits",
          "type": "uint256"
        },
        {
          "internalType": "uint256",
          "name": "claimedBitmap",
          "type": "uint256"
        }
      ],
      "name": "AlreadyClaimed",
      "type": "error"
    },
    {
      "inputs": [
        {
          "internalType": "uint256",
          "name": "bitPosition",
          "type": "uint256"
        },
        {
          "internalType": "uint256",
          "name": "maxBitCount",
          "type": "uint256"
        }
      ],
      "name": "BitPositionTooBig",
      "type": "error"
    },
    {
      "inputs": [],
      "name": "IllegalInterfaceId",
      "type": "error"
    },
    {
      "inputs": [
        {
          "internalType": "uint256",
          "name": "claimBits",
          "type": "uint256"
        }
      ],
      "name": "InvalidClaimBits",
      "type": "error"
    },
    {
      "inputs": [],
      "name": "InvalidForwarderRegistry",
      "type": "error"
    },
    {
      "inputs": [],
      "name": "InvalidPointsContractAddress",
      "type": "error"
    },
    {
      "inputs": [],
      "name": "InvalidSignature",
      "type": "error"
    },
    {
      "inputs": [
        {
          "internalType": "address",
          "name": "account",
          "type": "address"
        }
      ],
      "name": "NotContractOwner",
      "type": "error"
    },
    {
      "anonymous": false,
      "inputs": [
        {
          "indexed": false,
          "internalType": "uint256",
          "name": "bitPosition",
          "type": "uint256"
        },
        {
          "indexed": false,
          "internalType": "uint256",
          "name": "value",
          "type": "uint256"
        }
      ],
      "name": "BitValueSet",
      "type": "event"
    },
    {
      "anonymous": false,
      "inputs": [
        {
          "indexed": false,
          "internalType": "address",
          "name": "recipient",
          "type": "address"
        },
        {
          "indexed": false,
          "internalType": "uint256",
          "name": "oldBitmap",
          "type": "uint256"
        },
        {
          "indexed": false,
          "internalType": "uint256",
          "name": "newBitmap",
          "type": "uint256"
        }
      ],
      "name": "Claimed",
      "type": "event"
    },
    {
      "anonymous": false,
      "inputs": [
        {
          "indexed": true,
          "internalType": "address",
          "name": "previousOwner",
          "type": "address"
        },
        {
          "indexed": true,
          "internalType": "address",
          "name": "newOwner",
          "type": "address"
        }
      ],
      "name": "OwnershipTransferred",
      "type": "event"
    },
    {
      "anonymous": false,
      "inputs": [
        {
          "indexed": false,
          "internalType": "address",
          "name": "signer",
          "type": "address"
        }
      ],
      "name": "SignerSet",
      "type": "event"
    },
    {
      "inputs": [],
      "name": "DEPOSIT_REASON_CODE",
      "outputs": [
        {
          "internalType": "bytes32",
          "name": "",
          "type": "bytes32"
        }
      ],
      "stateMutability": "view",
      "type": "function"
    },
    {
      "inputs": [],
      "name": "POINTS",
      "outputs": [
        {
          "internalType": "contract IPoints",
          "name": "",
          "type": "address"
        }
      ],
      "stateMutability": "view",
      "type": "function"
    },
    {
      "inputs": [
        {
          "internalType": "address",
          "name": "recipient",
          "type": "address"
        },
        {
          "internalType": "uint256",
          "name": "amount",
          "type": "uint256"
        }
      ],
      "name": "__deliver",
      "outputs": [],
      "stateMutability": "nonpayable",
      "type": "function"
    },
    {
      "inputs": [],
      "name": "__msgData",
      "outputs": [
        {
          "internalType": "bytes",
          "name": "",
          "type": "bytes"
        }
      ],
      "stateMutability": "view",
      "type": "function"
    },
    {
      "inputs": [],
      "name": "__msgSender",
      "outputs": [
        {
          "internalType": "address",
          "name": "",
          "type": "address"
        }
      ],
      "stateMutability": "view",
      "type": "function"
    },
    {
      "inputs": [
        {
          "internalType": "address",
          "name": "recipient",
          "type": "address"
        },
        {
          "internalType": "uint256",
          "name": "claimBits",
          "type": "uint256"
        },
        {
          "internalType": "bytes",
          "name": "validationData",
          "type": "bytes"
        }
      ],
      "name": "__validateClaim",
      "outputs": [],
      "stateMutability": "view",
      "type": "function"
    },
    {
      "inputs": [
        {
          "internalType": "uint256",
          "name": "value",
          "type": "uint256"
        }
      ],
      "name": "addBitValue",
      "outputs": [],
      "stateMutability": "nonpayable",
      "type": "function"
    },
    {
      "inputs": [
        {
          "internalType": "uint256",
          "name": "bitPosition",
          "type": "uint256"
        }
      ],
      "name": "bitPositionValueMap",
      "outputs": [
        {
          "internalType": "uint256",
          "name": "value",
          "type": "uint256"
        }
      ],
      "stateMutability": "view",
      "type": "function"
    },
    {
      "inputs": [
        {
          "internalType": "address",
          "name": "recipient",
          "type": "address"
        },
        {
          "internalType": "uint256",
          "name": "claimBits",
          "type": "uint256"
        },
        {
          "internalType": "bytes",
          "name": "validationData",
          "type": "bytes"
        }
      ],
      "name": "claim",
      "outputs": [],
      "stateMutability": "nonpayable",
      "type": "function"
    },
    {
      "inputs": [
        {
          "internalType": "address",
          "name": "recipient",
          "type": "address"
        }
      ],
      "name": "claimed",
      "outputs": [
        {
          "internalType": "uint256",
          "name": "bitmap",
          "type": "uint256"
        }
      ],
      "stateMutability": "view",
      "type": "function"
    },
    {
      "inputs": [],
      "name": "forwarderRegistry",
      "outputs": [
        {
          "internalType": "contract IForwarderRegistry",
          "name": "",
          "type": "address"
        }
      ],
      "stateMutability": "view",
      "type": "function"
    },
    {
      "inputs": [
        {
          "internalType": "address",
          "name": "forwarder",
          "type": "address"
        }
      ],
      "name": "isTrustedForwarder",
      "outputs": [
        {
          "internalType": "bool",
          "name": "",
          "type": "bool"
        }
      ],
      "stateMutability": "view",
      "type": "function"
    },
    {
      "inputs": [],
      "name": "maxBitCount",
      "outputs": [
        {
          "internalType": "uint256",
          "name": "",
          "type": "uint256"
        }
      ],
      "stateMutability": "view",
      "type": "function"
    },
    {
      "inputs": [],
      "name": "owner",
      "outputs": [
        {
          "internalType": "address",
          "name": "",
          "type": "address"
        }
      ],
      "stateMutability": "view",
      "type": "function"
    },
    {
      "inputs": [
        {
          "internalType": "address",
          "name": "newSigner",
          "type": "address"
        }
      ],
      "name": "setSigner",
      "outputs": [],
      "stateMutability": "nonpayable",
      "type": "function"
    },
    {
      "inputs": [],
      "name": "signer",
      "outputs": [
        {
          "internalType": "address",
          "name": "",
          "type": "address"
        }
      ],
      "stateMutability": "view",
      "type": "function"
    },
    {
      "inputs": [
        {
          "internalType": "bytes4",
          "name": "interfaceId",
          "type": "bytes4"
        }
      ],
      "name": "supportsInterface",
      "outputs": [
        {
          "internalType": "bool",
          "name": "",
          "type": "bool"
        }
      ],
      "stateMutability": "view",
      "type": "function"
    },
    {
      "inputs": [
        {
          "internalType": "address",
          "name": "newOwner",
          "type": "address"
        }
      ],
      "name": "transferOwnership",
      "outputs": [],
      "stateMutability": "nonpayable",
      "type": "function"
    },
    {
      "inputs": [
        {
          "internalType": "uint256",
          "name": "bitPosition",
          "type": "uint256"
        },
        {
          "internalType": "uint256",
          "name": "value",
          "type": "uint256"
        }
      ],
      "name": "updateBitValue",
      "outputs": [],
      "stateMutability": "nonpayable",
      "type": "function"
    }
  ],
  "bytecode": "0x6101a06040523480156200001257600080fd5b5060405162001b0738038062001b07833981016040819052620000359162000318565b83838383828060405180604001604052806011815260200170506f696e74734269746d6170436c61696d60781b815250604051806040016040528060038152602001620312e360ec1b815250336200009e8162000097620001c160201b60201c565b90620001f7565b50815160208084019190912082518383012060e08290526101008190524660a0818152604080517f8b73c3c69bb8fe3d512ecc4cf759cc79239f7b179b0ffacaa9a75d522b39400f81880181905281830187905260608201869052608082019490945230818401528151808203909301835260c00190528051940193909320919290916080523060c05261012052505050506001600160a01b0390811661014052851690506200016157604051630d082d6160e21b815260040160405180910390fd5b6001600160a01b0383166200018957604051633545ba1f60e21b815260040160405180910390fd5b6001600160a01b039384166101605261018091909152600380546001600160a01b031916919093161790915550620003969350505050565b600080620001f160017fc9ed16f33ab3a66c84bfd83099ccb2a8845871e2e1c1928f63797152f0fd54cd62000374565b92915050565b6001600160a01b038116156200024e5781546001600160a01b0319166001600160a01b03821690811783556040516000907f8be0079c531659141344cd1fd0a4f28419497f9722a3daafe3b4186f6b6457e0908290a35b6200026e6307f5828d60e41b60016200026662000272565b9190620002a2565b5050565b600080620001f160017fca9d3e17f264b0f3984e2634e94adb37fa3e6a8103f06aeae6fa59e21c769f5e62000374565b600160e01b6001600160e01b0319831601620002d1576040516372c683bb60e01b815260040160405180910390fd5b6001600160e01b03199190911660009081526020929092526040909120805460ff1916911515919091179055565b6001600160a01b03811681146200031557600080fd5b50565b600080600080608085870312156200032f57600080fd5b84516200033c81620002ff565b60208601519094506200034f81620002ff565b6040860151606087015191945092506200036981620002ff565b939692955090935050565b81810381811115620001f157634e487b7160e01b600052601160045260246000fd5b60805160a05160c05160e05161010051610120516101405161016051610180516116cf62000438600039600081816101b101526109300152600081816102ea015261095601526000818161021a0152818161027901528181610c0e01528181610c4c01528181610d840152610e0c01526000611188015260006111d7015260006111b20152600061110b015260006111350152600061115f01526116cf6000f3fe608060405234801561001057600080fd5b50600436106101515760003560e01c80636c19e783116100cd5780638da5cb5b11610081578063c884ef8311610066578063c884ef831461034d578063d1a91ff21461036d578063f2fde38b1461037557600080fd5b80638da5cb5b146103325780638f0bc1521461033a57600080fd5b80637f6e4281116100b25780637f6e4281146102e557806388a3cf961461030c5780638bd5f7591461031f57600080fd5b80636c19e783146102bf578063701af92f146102d257600080fd5b80632b4c9f16116101245780634a1e2ab7116101095780634a1e2ab714610254578063572b6c05146102695780636844b019146102b657600080fd5b80632b4c9f161461021857806331e66e1e1461023e57600080fd5b806301ffc9a71461015657806312a53fdd1461017e5780632196e445146101ac578063238ac933146101d3575b600080fd5b610169610164366004611359565b610388565b60405190151581526020015b60405180910390f35b61019e61018c36600461139b565b60026020526000908152604090205481565b604051908152602001610175565b61019e7f000000000000000000000000000000000000000000000000000000000000000081565b6003546101f39073ffffffffffffffffffffffffffffffffffffffff1681565b60405173ffffffffffffffffffffffffffffffffffffffff9091168152602001610175565b7f00000000000000000000000000000000000000000000000000000000000000006101f3565b6102466103a2565b6040516101759291906113b4565b61026761026236600461139b565b6103b5565b005b61016961027736600461142a565b7f000000000000000000000000000000000000000000000000000000000000000073ffffffffffffffffffffffffffffffffffffffff90811691161490565b61019e60005481565b6102676102cd36600461142a565b6103d4565b6102676102e0366004611445565b610466565b6101f37f000000000000000000000000000000000000000000000000000000000000000081565b61026761031a36600461146f565b610474565b61026761032d3660046114f6565b610486565b6101f36104e0565b61026761034836600461146f565b61050c565b61019e61035b36600461142a565b60016020526000908152604090205481565b6101f36106ac565b61026761038336600461142a565b6106b6565b600061039c826103966106d4565b90610702565b92915050565b3660006103ad6107dc565b915091509091565b6000546103c281836107e7565b6103cd816001611547565b6000555050565b6103ed6103df610841565b6103e761084b565b90610879565b600380547fffffffffffffffffffffffff00000000000000000000000000000000000000001673ffffffffffffffffffffffffffffffffffffffff83169081179091556040519081527f9eaa897564d022fb8c5efaf0acdb5d9d27b440b2aad44400b6e1c702e65b9ed39060200160405180910390a150565b61047082826108e4565b5050565b610480848484846109b6565b50505050565b6000548083106104d1576040517fb09381a500000000000000000000000000000000000000000000000000000000815260048101849052602481018290526044015b60405180910390fd5b6104db83836107e7565b505050565b60006105076104ed61084b565b5473ffffffffffffffffffffffffffffffffffffffff1690565b905090565b82158061051d57506000805484901c115b15610557576040517fb93313e4000000000000000000000000000000000000000000000000000000008152600481018490526024016104c8565b73ffffffffffffffffffffffffffffffffffffffff8416600090815260016020526040902054838116156105dd576040517f6508823200000000000000000000000000000000000000000000000000000000815273ffffffffffffffffffffffffffffffffffffffff8616600482015260248101859052604481018290526064016104c8565b6105e9858585856109b6565b73ffffffffffffffffffffffffffffffffffffffff8516600081815260016020908152604091829020878517908190558251938452908301849052908201819052907f987d620f307ff6b94d58743cb7a7509f24071586a77759b77c2d4e29f75a2f9a9060600160405180910390a160008054815b8181101561069757600188161561068b576000818152600260205260409020546106889084611547565b92505b600197881c970161065e565b506106a288836108e4565b5050505050505050565b6000610507610841565b6106d16106c1610841565b826106ca61084b565b9190610ac3565b50565b60008061039c60017fca9d3e17f264b0f3984e2634e94adb37fa3e6a8103f06aeae6fa59e21c769f5e61155a565b60007c01000000000000000000000000000000000000000000000000000000007fffffffff000000000000000000000000000000000000000000000000000000008316016107525750600061039c565b7ffe003659000000000000000000000000000000000000000000000000000000007fffffffff000000000000000000000000000000000000000000000000000000008316016107a35750600161039c565b507fffffffff00000000000000000000000000000000000000000000000000000000166000908152602091909152604090205460ff1690565b3660006103ad610bd7565b6107f26103df610841565b60008281526002602090815260409182902083905581518481529081018390527f8e17f10a809a83084393f091eeb493166c6d7d75f0227161b2dfe9f3867a431e910160405180910390a15050565b6000610507610d41565b60008061039c60017fc9ed16f33ab3a66c84bfd83099ccb2a8845871e2e1c1928f63797152f0fd54cd61155a565b815473ffffffffffffffffffffffffffffffffffffffff828116911614610470576040517f2ef4875e00000000000000000000000000000000000000000000000000000000815273ffffffffffffffffffffffffffffffffffffffff821660048201526024016104c8565b6040517f26b3293f00000000000000000000000000000000000000000000000000000000815273ffffffffffffffffffffffffffffffffffffffff8381166004830152602482018390527f000000000000000000000000000000000000000000000000000000000000000060448301527f000000000000000000000000000000000000000000000000000000000000000016906326b3293f90606401600060405180830381600087803b15801561099a57600080fd5b505af11580156109ae573d6000803e3d6000fd5b505050505050565b604080517f8d7d84f2b8bdb26fd0fef6ec4402a7ac1adf4e2bf9ec7236c54ac6268cfef0b9602082015273ffffffffffffffffffffffffffffffffffffffff86169181019190915260608101849052600090610a2a9060800160405160208183030381529060405280519060200120610e88565b600354604080516020601f8701819004810282018101909252858152929350600092610a8a9273ffffffffffffffffffffffffffffffffffffffff16918591908890889081908401838280828437600092019190915250610ef192505050565b9050806109ae576040517f8baa579f00000000000000000000000000000000000000000000000000000000815260040160405180910390fd5b825473ffffffffffffffffffffffffffffffffffffffff9081169083168114610b30576040517f2ef4875e00000000000000000000000000000000000000000000000000000000815273ffffffffffffffffffffffffffffffffffffffff841660048201526024016104c8565b8173ffffffffffffffffffffffffffffffffffffffff168173ffffffffffffffffffffffffffffffffffffffff16146104805783547fffffffffffffffffffffffff00000000000000000000000000000000000000001673ffffffffffffffffffffffffffffffffffffffff8381169182178655604051908316907f8be0079c531659141344cd1fd0a4f28419497f9722a3daafe3b4186f6b6457e090600090a350505050565b36600033321480610be85750601836105b15610bf65750600091369150565b3373ffffffffffffffffffffffffffffffffffffffff7f0000000000000000000000000000000000000000000000000000000000000000161480610d2b575073ffffffffffffffffffffffffffffffffffffffff7f000000000000000000000000000000000000000000000000000000000000000016638929a8ca367fffffffffffffffffffffffffffffffffffffffffffffffffffffffffffffffec013560601c6040517fffffffff0000000000000000000000000000000000000000000000000000000060e084901b16815273ffffffffffffffffffffffffffffffffffffffff9091166004820152336024820152604401602060405180830381865afa158015610d07573d6000803e3d6000fd5b505050506040513d601f19601f82011682018060405250810190610d2b919061156d565b15610d38576103ad6110c0565b50600091369150565b600033321480610d515750601836105b15610d5b57503390565b7fffffffffffffffffffffffffffffffffffffffffffffffffffffffffffffffec36013560601c7f000000000000000000000000000000000000000000000000000000000000000073ffffffffffffffffffffffffffffffffffffffff16331480610e7757506040517f8929a8ca00000000000000000000000000000000000000000000000000000000815273ffffffffffffffffffffffffffffffffffffffff82811660048301523360248301527f00000000000000000000000000000000000000000000000000000000000000001690638929a8ca90604401602060405180830381865afa158015610e53573d6000803e3d6000fd5b505050506040513d601f19601f82011682018060405250810190610e77919061156d565b15610e8157919050565b3391505090565b600061039c610e956110f1565b836040517f19010000000000000000000000000000000000000000000000000000000000006020820152602281018390526042810182905260009060620160405160208183030381529060405280519060200120905092915050565b6000806000610f008585611225565b90925090506000816004811115610f1957610f1961158f565b148015610f5157508573ffffffffffffffffffffffffffffffffffffffff168273ffffffffffffffffffffffffffffffffffffffff16145b15610f61576001925050506110b9565b6000808773ffffffffffffffffffffffffffffffffffffffff16631626ba7e60e01b8888604051602401610f969291906115e2565b604080517fffffffffffffffffffffffffffffffffffffffffffffffffffffffffffffffe08184030181529181526020820180517bffffffffffffffffffffffffffffffffffffffffffffffffffffffff167fffffffff0000000000000000000000000000000000000000000000000000000090941693909317909252905161101f919061163a565b600060405180830381855afa9150503d806000811461105a576040519150601f19603f3d011682016040523d82523d6000602084013e61105f565b606091505b5091509150818015611072575080516020145b80156110b2575080517f1626ba7e00000000000000000000000000000000000000000000000000000000906110b09083016020908101908401611656565b145b9450505050505b9392505050565b3660006103ad7fffffffffffffffffffffffffffffffffffffffffffffffffffffffffffffffec830182848161166f565b60003073ffffffffffffffffffffffffffffffffffffffff7f00000000000000000000000000000000000000000000000000000000000000001614801561115757507f000000000000000000000000000000000000000000000000000000000000000046145b1561118157507f000000000000000000000000000000000000000000000000000000000000000090565b50604080517f00000000000000000000000000000000000000000000000000000000000000006020808301919091527f0000000000000000000000000000000000000000000000000000000000000000828401527f000000000000000000000000000000000000000000000000000000000000000060608301524660808301523060a0808401919091528351808403909101815260c0909201909252805191012090565b600080825160410361125b5760208301516040840151606085015160001a61124f8782858561126a565b94509450505050611263565b506000905060025b9250929050565b6000807f7fffffffffffffffffffffffffffffff5d576e7357a4501ddfe92f46681b20a08311156112a15750600090506003611350565b6040805160008082526020820180845289905260ff881692820192909252606081018690526080810185905260019060a0016020604051602081039080840390855afa1580156112f5573d6000803e3d6000fd5b50506040517fffffffffffffffffffffffffffffffffffffffffffffffffffffffffffffffe0015191505073ffffffffffffffffffffffffffffffffffffffff811661134957600060019250925050611350565b9150600090505b94509492505050565b60006020828403121561136b57600080fd5b81357fffffffff00000000000000000000000000000000000000000000000000000000811681146110b957600080fd5b6000602082840312156113ad57600080fd5b5035919050565b60208152816020820152818360408301376000818301604090810191909152601f9092017fffffffffffffffffffffffffffffffffffffffffffffffffffffffffffffffe0160101919050565b803573ffffffffffffffffffffffffffffffffffffffff8116811461142557600080fd5b919050565b60006020828403121561143c57600080fd5b6110b982611401565b6000806040838503121561145857600080fd5b61146183611401565b946020939093013593505050565b6000806000806060858703121561148557600080fd5b61148e85611401565b935060208501359250604085013567ffffffffffffffff808211156114b257600080fd5b818701915087601f8301126114c657600080fd5b8135818111156114d557600080fd5b8860208285010111156114e757600080fd5b95989497505060200194505050565b6000806040838503121561150957600080fd5b50508035926020909101359150565b7f4e487b7100000000000000000000000000000000000000000000000000000000600052601160045260246000fd5b8082018082111561039c5761039c611518565b8181038181111561039c5761039c611518565b60006020828403121561157f57600080fd5b815180151581146110b957600080fd5b7f4e487b7100000000000000000000000000000000000000000000000000000000600052602160045260246000fd5b60005b838110156115d95781810151838201526020016115c1565b50506000910152565b82815260406020820152600082518060408401526116078160608501602087016115be565b601f017fffffffffffffffffffffffffffffffffffffffffffffffffffffffffffffffe016919091016060019392505050565b6000825161164c8184602087016115be565b9190910192915050565b60006020828403121561166857600080fd5b5051919050565b6000808585111561167f57600080fd5b8386111561168c57600080fd5b505082019391909203915056fea26469706673582212201f420afed47b29659b86587860c36dee5237e198381ac273fe2bd5c4d0ddaade64736f6c63430008160033",
  "linkReferences": {},
  "deployedLinkReferences": {}
}