{
  "_format": "hh-sol-artifact-1",
  "contractName": "ERC721ClaimWindowMerkleClaimMock",
  "sourceName": "contracts/mocks/profilePic/ERC721ClaimWindowMerkleClaimMock.sol",
  "abi": [
    {
      "inputs": [
        {
          "internalType": "uint256",
          "name": "tokenId",
          "type": "uint256"
        },
        {
          "internalType": "uint256",
          "name": "mintSupply",
          "type": "uint256"
        },
        {
          "internalType": "contract ERC721FullBurn",
          "name": "rewardContract",
          "type": "address"
        },
        {
          "internalType": "contract IForwarderRegistry",
          "name": "_forwarderRegistry",
          "type": "address"
        }
      ],
      "stateMutability": "nonpayable",
      "type": "constructor"
    },
    {
      "inputs": [
        {
          "internalType": "bytes32",
          "name": "epochId",
          "type": "bytes32"
        },
        {
          "internalType": "address",
          "name": "recipient",
          "type": "address"
        }
      ],
      "name": "AlreadyClaimed",
      "type": "error"
    },
    {
      "inputs": [
        {
          "internalType": "bytes32",
          "name": "epochId",
          "type": "bytes32"
        }
      ],
      "name": "EpochIdAlreadyExists",
      "type": "error"
    },
    {
      "inputs": [
        {
          "internalType": "bytes32",
          "name": "epochId",
          "type": "bytes32"
        }
      ],
      "name": "EpochIdNotExists",
      "type": "error"
    },
    {
      "inputs": [],
      "name": "ExceededMintSupply",
      "type": "error"
    },
    {
      "inputs": [],
      "name": "IllegalInterfaceId",
      "type": "error"
    },
    {
      "inputs": [
        {
          "internalType": "uint256",
          "name": "startTime",
          "type": "uint256"
        },
        {
          "internalType": "uint256",
          "name": "endTime",
          "type": "uint256"
        },
        {
          "internalType": "uint256",
          "name": "currentTime",
          "type": "uint256"
        }
      ],
      "name": "InvalidClaimWindow",
      "type": "error"
    },
    {
      "inputs": [
        {
          "internalType": "bytes32",
          "name": "epochId",
          "type": "bytes32"
        },
        {
          "internalType": "address",
          "name": "recipient",
          "type": "address"
        }
      ],
      "name": "InvalidProof",
      "type": "error"
    },
    {
      "inputs": [
        {
          "internalType": "address",
          "name": "account",
          "type": "address"
        }
      ],
      "name": "NotContractOwner",
      "type": "error"
    },
    {
      "inputs": [
        {
          "internalType": "bytes32",
          "name": "epochId",
          "type": "bytes32"
        },
        {
          "internalType": "uint256",
          "name": "currentTime",
          "type": "uint256"
        }
      ],
      "name": "OutOfClaimWindow",
      "type": "error"
    },
    {
      "anonymous": false,
      "inputs": [
        {
          "indexed": true,
          "internalType": "bytes32",
          "name": "epochId",
          "type": "bytes32"
        },
        {
          "indexed": true,
          "internalType": "bytes32",
          "name": "merkleRoot",
          "type": "bytes32"
        },
        {
          "indexed": false,
          "internalType": "uint256",
          "name": "startTime",
          "type": "uint256"
        },
        {
          "indexed": false,
          "internalType": "uint256",
          "name": "endTime",
          "type": "uint256"
        }
      ],
      "name": "EpochMerkleRootSet",
      "type": "event"
    },
    {
      "anonymous": false,
      "inputs": [
        {
          "indexed": true,
          "internalType": "address",
          "name": "previousOwner",
          "type": "address"
        },
        {
          "indexed": true,
          "internalType": "address",
          "name": "newOwner",
          "type": "address"
        }
      ],
      "name": "OwnershipTransferred",
      "type": "event"
    },
    {
      "anonymous": false,
      "inputs": [
        {
          "indexed": true,
          "internalType": "bytes32",
          "name": "epochId",
          "type": "bytes32"
        },
        {
          "indexed": true,
          "internalType": "address",
          "name": "recipient",
          "type": "address"
        },
        {
          "indexed": false,
          "internalType": "uint256",
          "name": "noOfTokensClaimed",
          "type": "uint256"
        }
      ],
      "name": "RewardClaimed",
      "type": "event"
    },
    {
      "inputs": [],
      "name": "MINT_SUPPLY",
      "outputs": [
        {
          "internalType": "uint256",
          "name": "",
          "type": "uint256"
        }
      ],
      "stateMutability": "view",
      "type": "function"
    },
    {
      "inputs": [],
      "name": "REWARD_CONTRACT",
      "outputs": [
        {
          "internalType": "contract ERC721FullBurn",
          "name": "",
          "type": "address"
        }
      ],
      "stateMutability": "view",
      "type": "function"
    },
    {
      "inputs": [],
      "name": "__msgData",
      "outputs": [
        {
          "internalType": "bytes",
          "name": "",
          "type": "bytes"
        }
      ],
      "stateMutability": "view",
      "type": "function"
    },
    {
      "inputs": [],
      "name": "__msgSender",
      "outputs": [
        {
          "internalType": "address",
          "name": "",
          "type": "address"
        }
      ],
      "stateMutability": "view",
      "type": "function"
    },
    {
      "inputs": [
        {
          "internalType": "bytes32",
          "name": "epochId",
          "type": "bytes32"
        },
        {
          "internalType": "address",
          "name": "recipient",
          "type": "address"
        }
      ],
      "name": "canClaim",
      "outputs": [
        {
          "internalType": "bool",
          "name": "",
          "type": "bool"
        }
      ],
      "stateMutability": "view",
      "type": "function"
    },
    {
      "inputs": [
        {
          "internalType": "bytes32",
          "name": "epochId",
          "type": "bytes32"
        },
        {
          "internalType": "bytes32[]",
          "name": "proof",
          "type": "bytes32[]"
        },
        {
          "internalType": "address",
          "name": "recipient",
          "type": "address"
        }
      ],
      "name": "claim",
      "outputs": [],
      "stateMutability": "nonpayable",
      "type": "function"
    },
    {
      "inputs": [
        {
          "internalType": "bytes32",
          "name": "",
          "type": "bytes32"
        }
      ],
      "name": "claimWindows",
      "outputs": [
        {
          "internalType": "bytes32",
          "name": "merkleRoot",
          "type": "bytes32"
        },
        {
          "internalType": "uint256",
          "name": "startTime",
          "type": "uint256"
        },
        {
          "internalType": "uint256",
          "name": "endTime",
          "type": "uint256"
        }
      ],
      "stateMutability": "view",
      "type": "function"
    },
    {
      "inputs": [
        {
          "internalType": "address",
          "name": "",
          "type": "address"
        }
      ],
      "name": "claimed",
      "outputs": [
        {
          "internalType": "bool",
          "name": "",
          "type": "bool"
        }
      ],
      "stateMutability": "view",
      "type": "function"
    },
    {
      "inputs": [],
      "name": "forwarderRegistry",
      "outputs": [
        {
          "internalType": "contract IForwarderRegistry",
          "name": "",
          "type": "address"
        }
      ],
      "stateMutability": "view",
      "type": "function"
    },
    {
      "inputs": [
        {
          "internalType": "address",
          "name": "forwarder",
          "type": "address"
        }
      ],
      "name": "isTrustedForwarder",
      "outputs": [
        {
          "internalType": "bool",
          "name": "",
          "type": "bool"
        }
      ],
      "stateMutability": "view",
      "type": "function"
    },
    {
      "inputs": [],
      "name": "noOfTokensClaimed",
      "outputs": [
        {
          "internalType": "uint256",
          "name": "",
          "type": "uint256"
        }
      ],
      "stateMutability": "view",
      "type": "function"
    },
    {
      "inputs": [],
      "name": "owner",
      "outputs": [
        {
          "internalType": "address",
          "name": "",
          "type": "address"
        }
      ],
      "stateMutability": "view",
      "type": "function"
    },
    {
      "inputs": [
        {
          "internalType": "bytes32",
          "name": "epochId",
          "type": "bytes32"
        },
        {
          "internalType": "bytes32",
          "name": "merkleRoot",
          "type": "bytes32"
        },
        {
          "internalType": "uint256",
          "name": "startTime",
          "type": "uint256"
        },
        {
          "internalType": "uint256",
          "name": "endTime",
          "type": "uint256"
        }
      ],
      "name": "setEpochMerkleRoot",
      "outputs": [],
      "stateMutability": "nonpayable",
      "type": "function"
    },
    {
      "inputs": [
        {
          "internalType": "bytes4",
          "name": "interfaceId",
          "type": "bytes4"
        }
      ],
      "name": "supportsInterface",
      "outputs": [
        {
          "internalType": "bool",
          "name": "",
          "type": "bool"
        }
      ],
      "stateMutability": "view",
      "type": "function"
    },
    {
      "inputs": [
        {
          "internalType": "address",
          "name": "newOwner",
          "type": "address"
        }
      ],
      "name": "transferOwnership",
      "outputs": [],
      "stateMutability": "nonpayable",
      "type": "function"
    }
  ],
  "bytecode": "0x60e06040523480156200001157600080fd5b50604051620014e2380380620014e28339810160408190526200003491620001d1565b6001600160a01b038116608052828282336200005b81620000546200007a565b90620000b0565b505060c0919091526001600160a01b031660a052506200024392505050565b600080620000aa60017fc9ed16f33ab3a66c84bfd83099ccb2a8845871e2e1c1928f63797152f0fd54cd62000221565b92915050565b6001600160a01b03811615620001075781546001600160a01b0319166001600160a01b03821690811783556040516000907f8be0079c531659141344cd1fd0a4f28419497f9722a3daafe3b4186f6b6457e0908290a35b620001276307f5828d60e41b60016200011f6200012b565b91906200015b565b5050565b600080620000aa60017fca9d3e17f264b0f3984e2634e94adb37fa3e6a8103f06aeae6fa59e21c769f5e62000221565b600160e01b6001600160e01b03198316016200018a576040516372c683bb60e01b815260040160405180910390fd5b6001600160e01b03199190911660009081526020929092526040909120805460ff1916911515919091179055565b6001600160a01b0381168114620001ce57600080fd5b50565b60008060008060808587031215620001e857600080fd5b845193506020850151925060408501516200020381620001b8565b60608601519092506200021681620001b8565b939692955090935050565b81810381811115620000aa57634e487b7160e01b600052601160045260246000fd5b60805160a05160c051611237620002ab60003960008181610215015281816104cc01526107570152600081816101990152610846015260008181610139015281816101cb01528181610c4301528181610ccb01528181610d7e0152610dbc01526112376000f3fe608060405234801561001057600080fd5b50600436106100f55760003560e01c80639dfbcde811610097578063d1a91ff211610066578063d1a91ff214610284578063dc45def61461028c578063eb02625c146102d5578063f2fde38b146102e857600080fd5b80639dfbcde814610210578063aa9641ab14610245578063ba65912e14610258578063c884ef831461026157600080fd5b806331e66e1e116100d357806331e66e1e1461017e5780633a5af33914610194578063572b6c05146101bb5780638da5cb5b1461020857600080fd5b806301ffc9a7146100fa5780630328a8fc146101225780632b4c9f1614610137575b600080fd5b61010d610108366004610f57565b6102fb565b60405190151581526020015b60405180910390f35b610135610130366004610f99565b610315565b005b7f00000000000000000000000000000000000000000000000000000000000000005b60405173ffffffffffffffffffffffffffffffffffffffff9091168152602001610119565b610186610452565b604051610119929190610fcb565b6101597f000000000000000000000000000000000000000000000000000000000000000081565b61010d6101c9366004611041565b7f000000000000000000000000000000000000000000000000000000000000000073ffffffffffffffffffffffffffffffffffffffff90811691161490565b610159610465565b6102377f000000000000000000000000000000000000000000000000000000000000000081565b604051908152602001610119565b61010d61025336600461105c565b610491565b61023760005481565b61010d61026f366004611041565b60026020526000908152604090205460ff1681565b61015961052a565b6102ba61029a366004611088565b600160208190526000918252604090912080549181015460029091015483565b60408051938452602084019290925290820152606001610119565b6101356102e33660046110a1565b610534565b6101356102f6366004611041565b6108fd565b600061030f8261030961091b565b90610949565b92915050565b61032e610320610a23565b610328610a2d565b90610a5b565b808210158061033d5750428111155b15610389576040517f790c7cef00000000000000000000000000000000000000000000000000000000815260048101839052602481018290524260448201526064015b60405180910390fd5b600084815260016020526040902054156103d2576040517fed10979d00000000000000000000000000000000000000000000000000000000815260048101859052602401610380565b604080516060810182528481526020808201858152828401858152600089815260018085529086902094518555915191840191909155516002909201919091558151848152908101839052849186917f97df4a2fb6656595bc6eb616c2068e9d50031428ef69d8849590bc9f3dec620b910160405180910390a350505050565b36600061045d610aca565b915091509091565b600061048c610472610a2d565b5473ffffffffffffffffffffffffffffffffffffffff1690565b905090565b60008281526001602052604081208054158015906104b3575080600101544210155b80156104c3575080600201544211155b80156104f057507f0000000000000000000000000000000000000000000000000000000000000000600054105b8015610522575073ffffffffffffffffffffffffffffffffffffffff831660009081526002602052604090205460ff16155b949350505050565b600061048c610a23565b600084815260016020526040902080548061057e576040517f84f229dc00000000000000000000000000000000000000000000000000000000815260048101879052602401610380565b81600101544210806105935750816002015442115b156105d3576040517fdbeb4f4d00000000000000000000000000000000000000000000000000000000815260048101879052426024820152604401610380565b73ffffffffffffffffffffffffffffffffffffffff831660009081526002602052604090205460ff1615610652576040517fa8ca238e0000000000000000000000000000000000000000000000000000000081526004810187905273ffffffffffffffffffffffffffffffffffffffff84166024820152604401610380565b6000868460405160200161069592919091825260601b7fffffffffffffffffffffffffffffffffffffffff00000000000000000000000016602082015260340190565b6040516020818303038152906040528051906020012090506106ef8282888880806020026020016040519081016040528093929190818152602001838360200280828437600092019190915250929493925050610ad59050565b610744576040517fa04a37c00000000000000000000000000000000000000000000000000000000081526004810188905273ffffffffffffffffffffffffffffffffffffffff85166024820152604401610380565b60008054610753906001611160565b90507f00000000000000000000000000000000000000000000000000000000000000008111156107af576040517f192d175500000000000000000000000000000000000000000000000000000000815260040160405180910390fd5b600081815573ffffffffffffffffffffffffffffffffffffffff8681168083526002602052604080842080547fffffffffffffffffffffffffffffffffffffffffffffffffffffffffffffff00166001179055517f8832e6e30000000000000000000000000000000000000000000000000000000081526004810191909152602481018490526060604482015260648101929092527f00000000000000000000000000000000000000000000000000000000000000001690638832e6e390608401600060405180830381600087803b15801561088a57600080fd5b505af115801561089e573d6000803e3d6000fd5b505050508473ffffffffffffffffffffffffffffffffffffffff16887ffe236dfc7ce073698734b89da1aee0e7551c9c6d264404c502e6e8fefc1132a8836040516108eb91815260200190565b60405180910390a35050505050505050565b610918610908610a23565b82610911610a2d565b9190610aeb565b50565b60008061030f60017fca9d3e17f264b0f3984e2634e94adb37fa3e6a8103f06aeae6fa59e21c769f5e611173565b60007c01000000000000000000000000000000000000000000000000000000007fffffffff000000000000000000000000000000000000000000000000000000008316016109995750600061030f565b7ffe003659000000000000000000000000000000000000000000000000000000007fffffffff000000000000000000000000000000000000000000000000000000008316016109ea5750600161030f565b507fffffffff00000000000000000000000000000000000000000000000000000000166000908152602091909152604090205460ff1690565b600061048c610c00565b60008061030f60017fc9ed16f33ab3a66c84bfd83099ccb2a8845871e2e1c1928f63797152f0fd54cd611173565b815473ffffffffffffffffffffffffffffffffffffffff828116911614610ac6576040517f2ef4875e00000000000000000000000000000000000000000000000000000000815273ffffffffffffffffffffffffffffffffffffffff82166004820152602401610380565b5050565b36600061045d610d47565b600082610ae28584610eb1565b14949350505050565b825473ffffffffffffffffffffffffffffffffffffffff9081169083168114610b58576040517f2ef4875e00000000000000000000000000000000000000000000000000000000815273ffffffffffffffffffffffffffffffffffffffff84166004820152602401610380565b8173ffffffffffffffffffffffffffffffffffffffff168173ffffffffffffffffffffffffffffffffffffffff1614610bfa5783547fffffffffffffffffffffffff00000000000000000000000000000000000000001673ffffffffffffffffffffffffffffffffffffffff8381169182178655604051908316907f8be0079c531659141344cd1fd0a4f28419497f9722a3daafe3b4186f6b6457e090600090a35b50505050565b600033321480610c105750601836105b15610c1a57503390565b7fffffffffffffffffffffffffffffffffffffffffffffffffffffffffffffffec36013560601c7f000000000000000000000000000000000000000000000000000000000000000073ffffffffffffffffffffffffffffffffffffffff16331480610d3657506040517f8929a8ca00000000000000000000000000000000000000000000000000000000815273ffffffffffffffffffffffffffffffffffffffff82811660048301523360248301527f00000000000000000000000000000000000000000000000000000000000000001690638929a8ca90604401602060405180830381865afa158015610d12573d6000803e3d6000fd5b505050506040513d601f19601f82011682018060405250810190610d369190611186565b15610d4057919050565b3391505090565b36600033321480610d585750601836105b15610d665750600091369150565b3373ffffffffffffffffffffffffffffffffffffffff7f0000000000000000000000000000000000000000000000000000000000000000161480610e9b575073ffffffffffffffffffffffffffffffffffffffff7f000000000000000000000000000000000000000000000000000000000000000016638929a8ca367fffffffffffffffffffffffffffffffffffffffffffffffffffffffffffffffec013560601c6040517fffffffff0000000000000000000000000000000000000000000000000000000060e084901b16815273ffffffffffffffffffffffffffffffffffffffff9091166004820152336024820152604401602060405180830381865afa158015610e77573d6000803e3d6000fd5b505050506040513d601f19601f82011682018060405250810190610e9b9190611186565b15610ea85761045d610ef4565b50600091369150565b600081815b8451811015610eec57610ee282868381518110610ed557610ed56111a8565b6020026020010151610f25565b9150600101610eb6565b509392505050565b36600061045d7fffffffffffffffffffffffffffffffffffffffffffffffffffffffffffffffec83018284816111d7565b6000818310610f41576000828152602084905260409020610f50565b60008381526020839052604090205b9392505050565b600060208284031215610f6957600080fd5b81357fffffffff0000000000000000000000000000000000000000000000000000000081168114610f5057600080fd5b60008060008060808587031215610faf57600080fd5b5050823594602084013594506040840135936060013592509050565b60208152816020820152818360408301376000818301604090810191909152601f9092017fffffffffffffffffffffffffffffffffffffffffffffffffffffffffffffffe0160101919050565b803573ffffffffffffffffffffffffffffffffffffffff8116811461103c57600080fd5b919050565b60006020828403121561105357600080fd5b610f5082611018565b6000806040838503121561106f57600080fd5b8235915061107f60208401611018565b90509250929050565b60006020828403121561109a57600080fd5b5035919050565b600080600080606085870312156110b757600080fd5b84359350602085013567ffffffffffffffff808211156110d657600080fd5b818701915087601f8301126110ea57600080fd5b8135818111156110f957600080fd5b8860208260051b850101111561110e57600080fd5b60208301955080945050505061112660408601611018565b905092959194509250565b7f4e487b7100000000000000000000000000000000000000000000000000000000600052601160045260246000fd5b8082018082111561030f5761030f611131565b8181038181111561030f5761030f611131565b60006020828403121561119857600080fd5b81518015158114610f5057600080fd5b7f4e487b7100000000000000000000000000000000000000000000000000000000600052603260045260246000fd5b600080858511156111e757600080fd5b838611156111f457600080fd5b505082019391909203915056fea264697066735822122041f59e8e84d9d14783f8925a3bd11f8f5fa199a21da686853b275f398dc57b5164736f6c63430008160033",
  "linkReferences": {},
  "deployedLinkReferences": {}
}