{
  "_format": "hh-sol-artifact-1",
  "contractName": "ERC721ClaimWindowMerkleClaimMock",
  "sourceName": "contracts/mocks/profilePic/ERC721ClaimWindowMerkleClaimMock.sol",
  "abi": [
    {
      "inputs": [
        {
          "internalType": "uint256",
          "name": "tokenId",
          "type": "uint256"
        },
        {
          "internalType": "uint256",
          "name": "mintSupply",
          "type": "uint256"
        },
        {
          "internalType": "contract ERC721FullBurn",
          "name": "rewardContract",
          "type": "address"
        },
        {
          "internalType": "contract IForwarderRegistry",
          "name": "_forwarderRegistry",
          "type": "address"
        }
      ],
      "stateMutability": "nonpayable",
      "type": "constructor"
    },
    {
      "inputs": [
        {
          "internalType": "bytes32",
          "name": "epochId",
          "type": "bytes32"
        },
        {
          "internalType": "address",
          "name": "recipient",
          "type": "address"
        }
      ],
      "name": "AlreadyClaimed",
      "type": "error"
    },
    {
      "inputs": [
        {
          "internalType": "bytes32",
          "name": "epochId",
          "type": "bytes32"
        }
      ],
      "name": "EpochIdAlreadyExists",
      "type": "error"
    },
    {
      "inputs": [
        {
          "internalType": "bytes32",
          "name": "epochId",
          "type": "bytes32"
        }
      ],
      "name": "EpochIdNotExists",
      "type": "error"
    },
    {
      "inputs": [],
      "name": "ExceededMintSupply",
      "type": "error"
    },
    {
      "inputs": [],
      "name": "IllegalInterfaceId",
      "type": "error"
    },
    {
      "inputs": [
        {
          "internalType": "uint256",
          "name": "startTime",
          "type": "uint256"
        },
        {
          "internalType": "uint256",
          "name": "endTime",
          "type": "uint256"
        },
        {
          "internalType": "uint256",
          "name": "currentTime",
          "type": "uint256"
        }
      ],
      "name": "InvalidClaimWindow",
      "type": "error"
    },
    {
      "inputs": [
        {
          "internalType": "bytes32",
          "name": "epochId",
          "type": "bytes32"
        },
        {
          "internalType": "address",
          "name": "recipient",
          "type": "address"
        }
      ],
      "name": "InvalidProof",
      "type": "error"
    },
    {
      "inputs": [
        {
          "internalType": "address",
          "name": "account",
          "type": "address"
        }
      ],
      "name": "NotContractOwner",
      "type": "error"
    },
    {
      "inputs": [
        {
          "internalType": "bytes32",
          "name": "epochId",
          "type": "bytes32"
        },
        {
          "internalType": "uint256",
          "name": "currentTime",
          "type": "uint256"
        }
      ],
      "name": "OutOfClaimWindow",
      "type": "error"
    },
    {
      "anonymous": false,
      "inputs": [
        {
          "indexed": true,
          "internalType": "bytes32",
          "name": "epochId",
          "type": "bytes32"
        },
        {
          "indexed": true,
          "internalType": "bytes32",
          "name": "merkleRoot",
          "type": "bytes32"
        },
        {
          "indexed": false,
          "internalType": "uint256",
          "name": "startTime",
          "type": "uint256"
        },
        {
          "indexed": false,
          "internalType": "uint256",
          "name": "endTime",
          "type": "uint256"
        }
      ],
      "name": "EpochMerkleRootSet",
      "type": "event"
    },
    {
      "anonymous": false,
      "inputs": [
        {
          "indexed": true,
          "internalType": "address",
          "name": "previousOwner",
          "type": "address"
        },
        {
          "indexed": true,
          "internalType": "address",
          "name": "newOwner",
          "type": "address"
        }
      ],
      "name": "OwnershipTransferred",
      "type": "event"
    },
    {
      "anonymous": false,
      "inputs": [
        {
          "indexed": true,
          "internalType": "bytes32",
          "name": "epochId",
          "type": "bytes32"
        },
        {
          "indexed": true,
          "internalType": "address",
          "name": "recipient",
          "type": "address"
        },
        {
          "indexed": false,
          "internalType": "uint256",
          "name": "noOfTokensClaimed",
          "type": "uint256"
        }
      ],
      "name": "RewardClaimed",
      "type": "event"
    },
    {
      "inputs": [],
      "name": "MINT_SUPPLY",
      "outputs": [
        {
          "internalType": "uint256",
          "name": "",
          "type": "uint256"
        }
      ],
      "stateMutability": "view",
      "type": "function"
    },
    {
      "inputs": [],
      "name": "REWARD_CONTRACT",
      "outputs": [
        {
          "internalType": "contract ERC721FullBurn",
          "name": "",
          "type": "address"
        }
      ],
      "stateMutability": "view",
      "type": "function"
    },
    {
      "inputs": [],
      "name": "__msgData",
      "outputs": [
        {
          "internalType": "bytes",
          "name": "",
          "type": "bytes"
        }
      ],
      "stateMutability": "view",
      "type": "function"
    },
    {
      "inputs": [],
      "name": "__msgSender",
      "outputs": [
        {
          "internalType": "address",
          "name": "",
          "type": "address"
        }
      ],
      "stateMutability": "view",
      "type": "function"
    },
    {
      "inputs": [
        {
          "internalType": "address",
          "name": "claimer",
          "type": "address"
        }
      ],
      "name": "canClaim",
      "outputs": [
        {
          "internalType": "bool",
          "name": "",
          "type": "bool"
        }
      ],
      "stateMutability": "view",
      "type": "function"
    },
    {
      "inputs": [
        {
          "internalType": "bytes32",
          "name": "epochId",
          "type": "bytes32"
        },
        {
          "internalType": "bytes32[]",
          "name": "proof",
          "type": "bytes32[]"
        },
        {
          "internalType": "address",
          "name": "recipient",
          "type": "address"
        }
      ],
      "name": "claim",
      "outputs": [],
      "stateMutability": "nonpayable",
      "type": "function"
    },
    {
      "inputs": [
        {
          "internalType": "bytes32",
          "name": "",
          "type": "bytes32"
        }
      ],
      "name": "claimWindows",
      "outputs": [
        {
          "internalType": "bytes32",
          "name": "merkleRoot",
          "type": "bytes32"
        },
        {
          "internalType": "uint256",
          "name": "startTime",
          "type": "uint256"
        },
        {
          "internalType": "uint256",
          "name": "endTime",
          "type": "uint256"
        }
      ],
      "stateMutability": "view",
      "type": "function"
    },
    {
      "inputs": [
        {
          "internalType": "address",
          "name": "",
          "type": "address"
        }
      ],
      "name": "claimed",
      "outputs": [
        {
          "internalType": "bool",
          "name": "",
          "type": "bool"
        }
      ],
      "stateMutability": "view",
      "type": "function"
    },
    {
      "inputs": [],
      "name": "forwarderRegistry",
      "outputs": [
        {
          "internalType": "contract IForwarderRegistry",
          "name": "",
          "type": "address"
        }
      ],
      "stateMutability": "view",
      "type": "function"
    },
    {
      "inputs": [
        {
          "internalType": "address",
          "name": "forwarder",
          "type": "address"
        }
      ],
      "name": "isTrustedForwarder",
      "outputs": [
        {
          "internalType": "bool",
          "name": "",
          "type": "bool"
        }
      ],
      "stateMutability": "view",
      "type": "function"
    },
    {
      "inputs": [],
      "name": "noOfTokensClaimed",
      "outputs": [
        {
          "internalType": "uint256",
          "name": "",
          "type": "uint256"
        }
      ],
      "stateMutability": "view",
      "type": "function"
    },
    {
      "inputs": [],
      "name": "owner",
      "outputs": [
        {
          "internalType": "address",
          "name": "",
          "type": "address"
        }
      ],
      "stateMutability": "view",
      "type": "function"
    },
    {
      "inputs": [
        {
          "internalType": "bytes32",
          "name": "epochId",
          "type": "bytes32"
        },
        {
          "internalType": "bytes32",
          "name": "merkleRoot",
          "type": "bytes32"
        },
        {
          "internalType": "uint256",
          "name": "startTime",
          "type": "uint256"
        },
        {
          "internalType": "uint256",
          "name": "endTime",
          "type": "uint256"
        }
      ],
      "name": "setEpochMerkleRoot",
      "outputs": [],
      "stateMutability": "nonpayable",
      "type": "function"
    },
    {
      "inputs": [
        {
          "internalType": "bytes4",
          "name": "interfaceId",
          "type": "bytes4"
        }
      ],
      "name": "supportsInterface",
      "outputs": [
        {
          "internalType": "bool",
          "name": "",
          "type": "bool"
        }
      ],
      "stateMutability": "view",
      "type": "function"
    },
    {
      "inputs": [
        {
          "internalType": "address",
          "name": "newOwner",
          "type": "address"
        }
      ],
      "name": "transferOwnership",
      "outputs": [],
      "stateMutability": "nonpayable",
      "type": "function"
    }
  ],
  "bytecode": "0x60e06040523480156200001157600080fd5b5060405162001478380380620014788339810160408190526200003491620001d1565b6001600160a01b038116608052828282336200005b81620000546200007a565b90620000b0565b505060c0919091526001600160a01b031660a052506200024392505050565b600080620000aa60017fc9ed16f33ab3a66c84bfd83099ccb2a8845871e2e1c1928f63797152f0fd54cd62000221565b92915050565b6001600160a01b03811615620001075781546001600160a01b0319166001600160a01b03821690811783556040516000907f8be0079c531659141344cd1fd0a4f28419497f9722a3daafe3b4186f6b6457e0908290a35b620001276307f5828d60e41b60016200011f6200012b565b91906200015b565b5050565b600080620000aa60017fca9d3e17f264b0f3984e2634e94adb37fa3e6a8103f06aeae6fa59e21c769f5e62000221565b600160e01b6001600160e01b03198316016200018a576040516372c683bb60e01b815260040160405180910390fd5b6001600160e01b03199190911660009081526020929092526040909120805460ff1916911515919091179055565b6001600160a01b0381168114620001ce57600080fd5b50565b60008060008060808587031215620001e857600080fd5b845193506020850151925060408501516200020381620001b8565b60608601519092506200021681620001b8565b939692955090935050565b81810381811115620000aa57634e487b7160e01b600052601160045260246000fd5b60805160a05160c0516111cd620002ab600039600081816102150152818161049501526107190152600081816101990152610808015260008181610139015281816101cb01528181610c0501528181610c8d01528181610d400152610d7e01526111cd6000f3fe608060405234801561001057600080fd5b50600436106100f55760003560e01c80639dfbcde811610097578063d1a91ff211610066578063d1a91ff214610284578063dc45def61461028c578063eb02625c146102d5578063f2fde38b146102e857600080fd5b80639dfbcde814610210578063ba65912e14610245578063bf3506c11461024e578063c884ef831461026157600080fd5b806331e66e1e116100d357806331e66e1e1461017e5780633a5af33914610194578063572b6c05146101bb5780638da5cb5b1461020857600080fd5b806301ffc9a7146100fa5780630328a8fc146101225780632b4c9f1614610137575b600080fd5b61010d610108366004610f19565b6102fb565b60405190151581526020015b60405180910390f35b610135610130366004610f5b565b610315565b005b7f00000000000000000000000000000000000000000000000000000000000000005b60405173ffffffffffffffffffffffffffffffffffffffff9091168152602001610119565b610186610452565b604051610119929190610f8d565b6101597f000000000000000000000000000000000000000000000000000000000000000081565b61010d6101c9366004611003565b7f000000000000000000000000000000000000000000000000000000000000000073ffffffffffffffffffffffffffffffffffffffff90811691161490565b610159610465565b6102377f000000000000000000000000000000000000000000000000000000000000000081565b604051908152602001610119565b61023760005481565b61010d61025c366004611003565b610491565b61010d61026f366004611003565b60026020526000908152604090205460ff1681565b6101596104ec565b6102ba61029a36600461101e565b600160208190526000918252604090912080549181015460029091015483565b60408051938452602084019290925290820152606001610119565b6101356102e3366004611037565b6104f6565b6101356102f6366004611003565b6108bf565b600061030f826103096108dd565b9061090b565b92915050565b61032e6103206109e5565b6103286109ef565b90610a1d565b808210158061033d5750428111155b15610389576040517f790c7cef00000000000000000000000000000000000000000000000000000000815260048101839052602481018290524260448201526064015b60405180910390fd5b600084815260016020526040902054156103d2576040517fed10979d00000000000000000000000000000000000000000000000000000000815260048101859052602401610380565b604080516060810182528481526020808201858152828401858152600089815260018085529086902094518555915191840191909155516002909201919091558151848152908101839052849186917f97df4a2fb6656595bc6eb616c2068e9d50031428ef69d8849590bc9f3dec620b910160405180910390a350505050565b36600061045d610a8c565b915091509091565b600061048c6104726109ef565b5473ffffffffffffffffffffffffffffffffffffffff1690565b905090565b60007f000000000000000000000000000000000000000000000000000000000000000060005410801561030f57505073ffffffffffffffffffffffffffffffffffffffff1660009081526002602052604090205460ff161590565b600061048c6109e5565b6000848152600160205260409020805480610540576040517f84f229dc00000000000000000000000000000000000000000000000000000000815260048101879052602401610380565b81600101544210806105555750816002015442115b15610595576040517fdbeb4f4d00000000000000000000000000000000000000000000000000000000815260048101879052426024820152604401610380565b73ffffffffffffffffffffffffffffffffffffffff831660009081526002602052604090205460ff1615610614576040517fa8ca238e0000000000000000000000000000000000000000000000000000000081526004810187905273ffffffffffffffffffffffffffffffffffffffff84166024820152604401610380565b6000868460405160200161065792919091825260601b7fffffffffffffffffffffffffffffffffffffffff00000000000000000000000016602082015260340190565b6040516020818303038152906040528051906020012090506106b18282888880806020026020016040519081016040528093929190818152602001838360200280828437600092019190915250929493925050610a979050565b610706576040517fa04a37c00000000000000000000000000000000000000000000000000000000081526004810188905273ffffffffffffffffffffffffffffffffffffffff85166024820152604401610380565b600080546107159060016110f6565b90507f0000000000000000000000000000000000000000000000000000000000000000811115610771576040517f192d175500000000000000000000000000000000000000000000000000000000815260040160405180910390fd5b600081815573ffffffffffffffffffffffffffffffffffffffff8681168083526002602052604080842080547fffffffffffffffffffffffffffffffffffffffffffffffffffffffffffffff00166001179055517f8832e6e30000000000000000000000000000000000000000000000000000000081526004810191909152602481018490526060604482015260648101929092527f00000000000000000000000000000000000000000000000000000000000000001690638832e6e390608401600060405180830381600087803b15801561084c57600080fd5b505af1158015610860573d6000803e3d6000fd5b505050508473ffffffffffffffffffffffffffffffffffffffff16887ffe236dfc7ce073698734b89da1aee0e7551c9c6d264404c502e6e8fefc1132a8836040516108ad91815260200190565b60405180910390a35050505050505050565b6108da6108ca6109e5565b826108d36109ef565b9190610aad565b50565b60008061030f60017fca9d3e17f264b0f3984e2634e94adb37fa3e6a8103f06aeae6fa59e21c769f5e611109565b60007c01000000000000000000000000000000000000000000000000000000007fffffffff0000000000000000000000000000000000000000000000000000000083160161095b5750600061030f565b7ffe003659000000000000000000000000000000000000000000000000000000007fffffffff000000000000000000000000000000000000000000000000000000008316016109ac5750600161030f565b507fffffffff00000000000000000000000000000000000000000000000000000000166000908152602091909152604090205460ff1690565b600061048c610bc2565b60008061030f60017fc9ed16f33ab3a66c84bfd83099ccb2a8845871e2e1c1928f63797152f0fd54cd611109565b815473ffffffffffffffffffffffffffffffffffffffff828116911614610a88576040517f2ef4875e00000000000000000000000000000000000000000000000000000000815273ffffffffffffffffffffffffffffffffffffffff82166004820152602401610380565b5050565b36600061045d610d09565b600082610aa48584610e73565b14949350505050565b825473ffffffffffffffffffffffffffffffffffffffff9081169083168114610b1a576040517f2ef4875e00000000000000000000000000000000000000000000000000000000815273ffffffffffffffffffffffffffffffffffffffff84166004820152602401610380565b8173ffffffffffffffffffffffffffffffffffffffff168173ffffffffffffffffffffffffffffffffffffffff1614610bbc5783547fffffffffffffffffffffffff00000000000000000000000000000000000000001673ffffffffffffffffffffffffffffffffffffffff8381169182178655604051908316907f8be0079c531659141344cd1fd0a4f28419497f9722a3daafe3b4186f6b6457e090600090a35b50505050565b600033321480610bd25750601836105b15610bdc57503390565b7fffffffffffffffffffffffffffffffffffffffffffffffffffffffffffffffec36013560601c7f000000000000000000000000000000000000000000000000000000000000000073ffffffffffffffffffffffffffffffffffffffff16331480610cf857506040517f8929a8ca00000000000000000000000000000000000000000000000000000000815273ffffffffffffffffffffffffffffffffffffffff82811660048301523360248301527f00000000000000000000000000000000000000000000000000000000000000001690638929a8ca90604401602060405180830381865afa158015610cd4573d6000803e3d6000fd5b505050506040513d601f19601f82011682018060405250810190610cf8919061111c565b15610d0257919050565b3391505090565b36600033321480610d1a5750601836105b15610d285750600091369150565b3373ffffffffffffffffffffffffffffffffffffffff7f0000000000000000000000000000000000000000000000000000000000000000161480610e5d575073ffffffffffffffffffffffffffffffffffffffff7f000000000000000000000000000000000000000000000000000000000000000016638929a8ca367fffffffffffffffffffffffffffffffffffffffffffffffffffffffffffffffec013560601c6040517fffffffff0000000000000000000000000000000000000000000000000000000060e084901b16815273ffffffffffffffffffffffffffffffffffffffff9091166004820152336024820152604401602060405180830381865afa158015610e39573d6000803e3d6000fd5b505050506040513d601f19601f82011682018060405250810190610e5d919061111c565b15610e6a5761045d610eb6565b50600091369150565b600081815b8451811015610eae57610ea482868381518110610e9757610e9761113e565b6020026020010151610ee7565b9150600101610e78565b509392505050565b36600061045d7fffffffffffffffffffffffffffffffffffffffffffffffffffffffffffffffec830182848161116d565b6000818310610f03576000828152602084905260409020610f12565b60008381526020839052604090205b9392505050565b600060208284031215610f2b57600080fd5b81357fffffffff0000000000000000000000000000000000000000000000000000000081168114610f1257600080fd5b60008060008060808587031215610f7157600080fd5b5050823594602084013594506040840135936060013592509050565b60208152816020820152818360408301376000818301604090810191909152601f9092017fffffffffffffffffffffffffffffffffffffffffffffffffffffffffffffffe0160101919050565b803573ffffffffffffffffffffffffffffffffffffffff81168114610ffe57600080fd5b919050565b60006020828403121561101557600080fd5b610f1282610fda565b60006020828403121561103057600080fd5b5035919050565b6000806000806060858703121561104d57600080fd5b84359350602085013567ffffffffffffffff8082111561106c57600080fd5b818701915087601f83011261108057600080fd5b81358181111561108f57600080fd5b8860208260051b85010111156110a457600080fd5b6020830195508094505050506110bc60408601610fda565b905092959194509250565b7f4e487b7100000000000000000000000000000000000000000000000000000000600052601160045260246000fd5b8082018082111561030f5761030f6110c7565b8181038181111561030f5761030f6110c7565b60006020828403121561112e57600080fd5b81518015158114610f1257600080fd5b7f4e487b7100000000000000000000000000000000000000000000000000000000600052603260045260246000fd5b6000808585111561117d57600080fd5b8386111561118a57600080fd5b505082019391909203915056fea2646970667358221220e8c7f02cd8ebcbb3fa04fe020140b8a75d2f7a7ce133daee56c5ae954ba28d5764736f6c63430008160033",
  "linkReferences": {},
  "deployedLinkReferences": {}
}