{
  "_format": "hh-sol-artifact-1",
  "contractName": "ERC20StakingPointsRewardsLinearPool",
  "sourceName": "contracts/staking/ERC20StakingPointsRewardsLinearPool.sol",
  "abi": [
    {
      "inputs": [
        {
          "internalType": "address",
          "name": "claimContract",
          "type": "address"
        },
        {
          "internalType": "contract IERC20",
          "name": "stakingToken",
          "type": "address"
        },
        {
          "internalType": "contract IPoints",
          "name": "pointsContract",
          "type": "address"
        },
        {
          "internalType": "bytes32",
          "name": "depositReasonCode",
          "type": "bytes32"
        },
        {
          "internalType": "contract IForwarderRegistry",
          "name": "forwarderRegistry",
          "type": "address"
        }
      ],
      "stateMutability": "nonpayable",
      "type": "constructor"
    },
    {
      "inputs": [],
      "name": "IllegalInterfaceId",
      "type": "error"
    },
    {
      "inputs": [],
      "name": "InvalidDuration",
      "type": "error"
    },
    {
      "inputs": [],
      "name": "InvalidRewardAmount",
      "type": "error"
    },
    {
      "inputs": [],
      "name": "InvalidStakeAmount",
      "type": "error"
    },
    {
      "inputs": [],
      "name": "InvalidToken",
      "type": "error"
    },
    {
      "inputs": [],
      "name": "InvalidWithdrawAmount",
      "type": "error"
    },
    {
      "inputs": [
        {
          "internalType": "address",
          "name": "account",
          "type": "address"
        }
      ],
      "name": "NotContractOwner",
      "type": "error"
    },
    {
      "inputs": [
        {
          "internalType": "address",
          "name": "staker",
          "type": "address"
        },
        {
          "internalType": "uint256",
          "name": "stake",
          "type": "uint256"
        },
        {
          "internalType": "uint256",
          "name": "withdraw",
          "type": "uint256"
        }
      ],
      "name": "NotEnoughStake",
      "type": "error"
    },
    {
      "inputs": [
        {
          "internalType": "bytes32",
          "name": "role",
          "type": "bytes32"
        },
        {
          "internalType": "address",
          "name": "account",
          "type": "address"
        }
      ],
      "name": "NotRoleHolder",
      "type": "error"
    },
    {
      "inputs": [],
      "name": "ReentrancyGuardReentrantCall",
      "type": "error"
    },
    {
      "inputs": [
        {
          "internalType": "uint256",
          "name": "reward",
          "type": "uint256"
        },
        {
          "internalType": "uint256",
          "name": "duration",
          "type": "uint256"
        }
      ],
      "name": "RewardTooSmallForDuration",
      "type": "error"
    },
    {
      "inputs": [
        {
          "internalType": "address",
          "name": "token",
          "type": "address"
        }
      ],
      "name": "SafeERC20FailedOperation",
      "type": "error"
    },
    {
      "anonymous": false,
      "inputs": [
        {
          "indexed": true,
          "internalType": "address",
          "name": "staker",
          "type": "address"
        },
        {
          "indexed": false,
          "internalType": "bytes",
          "name": "claimData",
          "type": "bytes"
        },
        {
          "indexed": false,
          "internalType": "uint256",
          "name": "reward",
          "type": "uint256"
        }
      ],
      "name": "Claimed",
      "type": "event"
    },
    {
      "anonymous": false,
      "inputs": [
        {
          "indexed": true,
          "internalType": "address",
          "name": "previousOwner",
          "type": "address"
        },
        {
          "indexed": true,
          "internalType": "address",
          "name": "newOwner",
          "type": "address"
        }
      ],
      "name": "OwnershipTransferred",
      "type": "event"
    },
    {
      "anonymous": false,
      "inputs": [
        {
          "indexed": true,
          "internalType": "address",
          "name": "rewarder",
          "type": "address"
        },
        {
          "indexed": false,
          "internalType": "uint256",
          "name": "reward",
          "type": "uint256"
        },
        {
          "indexed": false,
          "internalType": "uint256",
          "name": "duration",
          "type": "uint256"
        },
        {
          "indexed": false,
          "internalType": "uint256",
          "name": "dust",
          "type": "uint256"
        }
      ],
      "name": "RewardAdded",
      "type": "event"
    },
    {
      "anonymous": false,
      "inputs": [
        {
          "indexed": false,
          "internalType": "bytes32",
          "name": "role",
          "type": "bytes32"
        },
        {
          "indexed": false,
          "internalType": "address",
          "name": "account",
          "type": "address"
        },
        {
          "indexed": false,
          "internalType": "address",
          "name": "operator",
          "type": "address"
        }
      ],
      "name": "RoleGranted",
      "type": "event"
    },
    {
      "anonymous": false,
      "inputs": [
        {
          "indexed": false,
          "internalType": "bytes32",
          "name": "role",
          "type": "bytes32"
        },
        {
          "indexed": false,
          "internalType": "address",
          "name": "account",
          "type": "address"
        },
        {
          "indexed": false,
          "internalType": "address",
          "name": "operator",
          "type": "address"
        }
      ],
      "name": "RoleRevoked",
      "type": "event"
    },
    {
      "anonymous": false,
      "inputs": [
        {
          "indexed": true,
          "internalType": "address",
          "name": "staker",
          "type": "address"
        },
        {
          "indexed": false,
          "internalType": "bytes",
          "name": "stakeData",
          "type": "bytes"
        },
        {
          "indexed": false,
          "internalType": "uint256",
          "name": "stakePoints",
          "type": "uint256"
        }
      ],
      "name": "Staked",
      "type": "event"
    },
    {
      "anonymous": false,
      "inputs": [
        {
          "indexed": true,
          "internalType": "address",
          "name": "staker",
          "type": "address"
        },
        {
          "indexed": false,
          "internalType": "bytes",
          "name": "withdrawData",
          "type": "bytes"
        },
        {
          "indexed": false,
          "internalType": "uint256",
          "name": "stakePoints",
          "type": "uint256"
        }
      ],
      "name": "Withdrawn",
      "type": "event"
    },
    {
      "inputs": [],
      "name": "CLAIM_CONTRACT",
      "outputs": [
        {
          "internalType": "address",
          "name": "",
          "type": "address"
        }
      ],
      "stateMutability": "view",
      "type": "function"
    },
    {
      "inputs": [],
      "name": "DEPOSIT_REASON_CODE",
      "outputs": [
        {
          "internalType": "bytes32",
          "name": "",
          "type": "bytes32"
        }
      ],
      "stateMutability": "view",
      "type": "function"
    },
    {
      "inputs": [],
      "name": "POINTS_CONTRACT",
      "outputs": [
        {
          "internalType": "contract IPoints",
          "name": "",
          "type": "address"
        }
      ],
      "stateMutability": "view",
      "type": "function"
    },
    {
      "inputs": [],
      "name": "REWARDER_ROLE",
      "outputs": [
        {
          "internalType": "bytes32",
          "name": "",
          "type": "bytes32"
        }
      ],
      "stateMutability": "view",
      "type": "function"
    },
    {
      "inputs": [],
      "name": "SCALING_FACTOR",
      "outputs": [
        {
          "internalType": "uint256",
          "name": "",
          "type": "uint256"
        }
      ],
      "stateMutability": "view",
      "type": "function"
    },
    {
      "inputs": [],
      "name": "STAKING_TOKEN",
      "outputs": [
        {
          "internalType": "contract IERC20",
          "name": "",
          "type": "address"
        }
      ],
      "stateMutability": "view",
      "type": "function"
    },
    {
      "inputs": [
        {
          "internalType": "uint256",
          "name": "reward",
          "type": "uint256"
        },
        {
          "internalType": "uint256",
          "name": "duration",
          "type": "uint256"
        }
      ],
      "name": "addReward",
      "outputs": [],
      "stateMutability": "payable",
      "type": "function"
    },
    {
      "inputs": [],
      "name": "claim",
      "outputs": [],
      "stateMutability": "nonpayable",
      "type": "function"
    },
    {
      "inputs": [],
      "name": "distributionEnd",
      "outputs": [
        {
          "internalType": "uint256",
          "name": "",
          "type": "uint256"
        }
      ],
      "stateMutability": "view",
      "type": "function"
    },
    {
      "inputs": [
        {
          "internalType": "address",
          "name": "account",
          "type": "address"
        }
      ],
      "name": "earned",
      "outputs": [
        {
          "internalType": "uint256",
          "name": "",
          "type": "uint256"
        }
      ],
      "stateMutability": "view",
      "type": "function"
    },
    {
      "inputs": [],
      "name": "forwarderRegistry",
      "outputs": [
        {
          "internalType": "contract IForwarderRegistry",
          "name": "",
          "type": "address"
        }
      ],
      "stateMutability": "view",
      "type": "function"
    },
    {
      "inputs": [
        {
          "internalType": "bytes32",
          "name": "role",
          "type": "bytes32"
        },
        {
          "internalType": "address",
          "name": "account",
          "type": "address"
        }
      ],
      "name": "grantRole",
      "outputs": [],
      "stateMutability": "nonpayable",
      "type": "function"
    },
    {
      "inputs": [
        {
          "internalType": "bytes32",
          "name": "role",
          "type": "bytes32"
        },
        {
          "internalType": "address",
          "name": "account",
          "type": "address"
        }
      ],
      "name": "hasRole",
      "outputs": [
        {
          "internalType": "bool",
          "name": "hasRole_",
          "type": "bool"
        }
      ],
      "stateMutability": "view",
      "type": "function"
    },
    {
      "inputs": [
        {
          "internalType": "address",
          "name": "forwarder",
          "type": "address"
        }
      ],
      "name": "isTrustedForwarder",
      "outputs": [
        {
          "internalType": "bool",
          "name": "",
          "type": "bool"
        }
      ],
      "stateMutability": "view",
      "type": "function"
    },
    {
      "inputs": [],
      "name": "lastTimeRewardApplicable",
      "outputs": [
        {
          "internalType": "uint256",
          "name": "",
          "type": "uint256"
        }
      ],
      "stateMutability": "view",
      "type": "function"
    },
    {
      "inputs": [],
      "name": "lastUpdated",
      "outputs": [
        {
          "internalType": "uint256",
          "name": "",
          "type": "uint256"
        }
      ],
      "stateMutability": "view",
      "type": "function"
    },
    {
      "inputs": [
        {
          "internalType": "address",
          "name": "operator",
          "type": "address"
        },
        {
          "internalType": "address",
          "name": "from",
          "type": "address"
        },
        {
          "internalType": "uint256",
          "name": "value",
          "type": "uint256"
        },
        {
          "internalType": "bytes",
          "name": "data",
          "type": "bytes"
        }
      ],
      "name": "onERC20Received",
      "outputs": [
        {
          "internalType": "bytes4",
          "name": "",
          "type": "bytes4"
        }
      ],
      "stateMutability": "nonpayable",
      "type": "function"
    },
    {
      "inputs": [],
      "name": "owner",
      "outputs": [
        {
          "internalType": "address",
          "name": "",
          "type": "address"
        }
      ],
      "stateMutability": "view",
      "type": "function"
    },
    {
      "inputs": [
        {
          "internalType": "bytes32",
          "name": "role",
          "type": "bytes32"
        }
      ],
      "name": "renounceRole",
      "outputs": [],
      "stateMutability": "nonpayable",
      "type": "function"
    },
    {
      "inputs": [
        {
          "internalType": "bytes32",
          "name": "role",
          "type": "bytes32"
        },
        {
          "internalType": "address",
          "name": "account",
          "type": "address"
        }
      ],
      "name": "revokeRole",
      "outputs": [],
      "stateMutability": "nonpayable",
      "type": "function"
    },
    {
      "inputs": [],
      "name": "rewardPerStakePoint",
      "outputs": [
        {
          "internalType": "uint256",
          "name": "",
          "type": "uint256"
        }
      ],
      "stateMutability": "view",
      "type": "function"
    },
    {
      "inputs": [
        {
          "internalType": "address",
          "name": "staker",
          "type": "address"
        }
      ],
      "name": "rewardPerStakePointPaid",
      "outputs": [
        {
          "internalType": "uint256",
          "name": "paid",
          "type": "uint256"
        }
      ],
      "stateMutability": "view",
      "type": "function"
    },
    {
      "inputs": [],
      "name": "rewardPerStakePointStored",
      "outputs": [
        {
          "internalType": "uint256",
          "name": "",
          "type": "uint256"
        }
      ],
      "stateMutability": "view",
      "type": "function"
    },
    {
      "inputs": [],
      "name": "rewardRate",
      "outputs": [
        {
          "internalType": "uint256",
          "name": "",
          "type": "uint256"
        }
      ],
      "stateMutability": "view",
      "type": "function"
    },
    {
      "inputs": [
        {
          "internalType": "address",
          "name": "staker",
          "type": "address"
        }
      ],
      "name": "rewards",
      "outputs": [
        {
          "internalType": "uint256",
          "name": "reward",
          "type": "uint256"
        }
      ],
      "stateMutability": "view",
      "type": "function"
    },
    {
      "inputs": [
        {
          "internalType": "bytes",
          "name": "stakeData",
          "type": "bytes"
        }
      ],
      "name": "stake",
      "outputs": [],
      "stateMutability": "payable",
      "type": "function"
    },
    {
      "inputs": [
        {
          "internalType": "address",
          "name": "staker",
          "type": "address"
        }
      ],
      "name": "staked",
      "outputs": [
        {
          "internalType": "uint256",
          "name": "stakePoints",
          "type": "uint256"
        }
      ],
      "stateMutability": "view",
      "type": "function"
    },
    {
      "inputs": [
        {
          "internalType": "bytes4",
          "name": "interfaceId",
          "type": "bytes4"
        }
      ],
      "name": "supportsInterface",
      "outputs": [
        {
          "internalType": "bool",
          "name": "",
          "type": "bool"
        }
      ],
      "stateMutability": "view",
      "type": "function"
    },
    {
      "inputs": [],
      "name": "totalStaked",
      "outputs": [
        {
          "internalType": "uint256",
          "name": "",
          "type": "uint256"
        }
      ],
      "stateMutability": "view",
      "type": "function"
    },
    {
      "inputs": [
        {
          "internalType": "address",
          "name": "newOwner",
          "type": "address"
        }
      ],
      "name": "transferOwnership",
      "outputs": [],
      "stateMutability": "nonpayable",
      "type": "function"
    },
    {
      "inputs": [
        {
          "internalType": "bytes",
          "name": "withdrawData",
          "type": "bytes"
        }
      ],
      "name": "withdraw",
      "outputs": [],
      "stateMutability": "nonpayable",
      "type": "function"
    }
  ],
  "bytecode": "0x61012060405234801561001157600080fd5b506040516123f53803806123f5833981016040819052610030916101ed565b828285838080803361004a816100446100a8565b906100dc565b50600160008190556001600160a01b0390911660805261007e9250634fc3585960e01b915061007761014b565b9190610179565b506001600160a01b0390811660a05291821660c05260e05294909416610100525061027992505050565b6000806100d660017fc9ed16f33ab3a66c84bfd83099ccb2a8845871e2e1c1928f63797152f0fd54cd610258565b92915050565b6001600160a01b038116156101325781546001600160a01b0319166001600160a01b03821690811783556040516000907f8be0079c531659141344cd1fd0a4f28419497f9722a3daafe3b4186f6b6457e0908290a35b6101476307f5828d60e41b600161007761014b565b5050565b6000806100d660017fca9d3e17f264b0f3984e2634e94adb37fa3e6a8103f06aeae6fa59e21c769f5e610258565b600160e01b6001600160e01b03198316016101a7576040516372c683bb60e01b815260040160405180910390fd5b6001600160e01b03199190911660009081526020929092526040909120805460ff1916911515919091179055565b6001600160a01b03811681146101ea57600080fd5b50565b600080600080600060a0868803121561020557600080fd5b8551610210816101d5565b6020870151909550610221816101d5565b6040870151909450610232816101d5565b60608701516080880151919450925061024a816101d5565b809150509295509295909350565b818103818111156100d657634e487b7160e01b600052601160045260246000fd5b60805160a05160c05160e051610100516120f96102fc6000396000818161049c01526109860152600081816102f9015261199a01526000818161038801526119c30152600081816102510152818161092b0152818161186301526118dd01526000818161032a0152818161044d0152818161172701526117b501526120f96000f3fe6080604052600436106101d75760003560e01c806375c93bb91161010257806398807d8411610095578063d547741f11610064578063d547741f14610621578063ef4cadc514610641578063efa90b541461065d578063f2fde38b1461067357600080fd5b806398807d841461059b5780639d696e36146105c8578063c5c8f770146105de578063d0b06f5d1461060b57600080fd5b80638580cf76116100d15780638580cf76146105125780638bb9c5bf146105465780638da5cb5b1461056657806391d148541461057b57600080fd5b806375c93bb9146104be5780637b0a47ee146104d157806380faa57d146104e7578063817b1cd2146104fc57600080fd5b80632c9d0b801161017a5780634e71d92d116101495780634e71d92d146103ca5780634fc35859146103df578063572b6c051461043057806362ba90961461048a57600080fd5b80632c9d0b801461034e5780632d1e0c02146103635780632d4c2f93146103765780632f2ff15d146103aa57600080fd5b80630700037d116101b65780630700037d146102985780630968f264146102c55780632196e445146102e75780632b4c9f161461031b57600080fd5b80628cc262146101dc57806301ffc9a71461020f5780630479d6441461023f575b600080fd5b3480156101e857600080fd5b506101fc6101f7366004611bb2565b610693565b6040519081526020015b60405180910390f35b34801561021b57600080fd5b5061022f61022a366004611bcf565b61072a565b6040519015158152602001610206565b34801561024b57600080fd5b506102737f000000000000000000000000000000000000000000000000000000000000000081565b60405173ffffffffffffffffffffffffffffffffffffffff9091168152602001610206565b3480156102a457600080fd5b506101fc6102b3366004611bb2565b60076020526000908152604090205481565b3480156102d157600080fd5b506102e56102e0366004611c5a565b61073e565b005b3480156102f357600080fd5b506101fc7f000000000000000000000000000000000000000000000000000000000000000081565b34801561032757600080fd5b507f0000000000000000000000000000000000000000000000000000000000000000610273565b34801561035a57600080fd5b506101fc610789565b6102e5610371366004611c5a565b6107f1565b34801561038257600080fd5b506102737f000000000000000000000000000000000000000000000000000000000000000081565b3480156103b657600080fd5b506102e56103c5366004611c9c565b61082c565b3480156103d657600080fd5b506102e5610860565b3480156103eb57600080fd5b506103ff6103fa366004611ccc565b610911565b6040517fffffffff000000000000000000000000000000000000000000000000000000009091168152602001610206565b34801561043c57600080fd5b5061022f61044b366004611bb2565b7f000000000000000000000000000000000000000000000000000000000000000073ffffffffffffffffffffffffffffffffffffffff90811691161490565b34801561049657600080fd5b506102737f000000000000000000000000000000000000000000000000000000000000000081565b6102e56104cc366004611d3f565b610a85565b3480156104dd57600080fd5b506101fc60035481565b3480156104f357600080fd5b506101fc610d5f565b34801561050857600080fd5b506101fc60015481565b34801561051e57600080fd5b506101fc7f726577617264657200000000000000000000000000000000000000000000000081565b34801561055257600080fd5b506102e5610561366004611d61565b610d79565b34801561057257600080fd5b50610273610d97565b34801561058757600080fd5b5061022f610596366004611c9c565b610dc3565b3480156105a757600080fd5b506101fc6105b6366004611bb2565b60066020526000908152604090205481565b3480156105d457600080fd5b506101fc60045481565b3480156105ea57600080fd5b506101fc6105f9366004611bb2565b60086020526000908152604090205481565b34801561061757600080fd5b506101fc60025481565b34801561062d57600080fd5b506102e561063c366004611c9c565b610e0e565b34801561064d57600080fd5b506101fc670de0b6b3a764000081565b34801561066957600080fd5b506101fc60055481565b34801561067f57600080fd5b506102e561068e366004611bb2565b610e3c565b73ffffffffffffffffffffffffffffffffffffffff81166000908152600760209081526040808320546008909252822054670de0b6b3a7640000906106d6610789565b6106e09190611da9565b73ffffffffffffffffffffffffffffffffffffffff85166000908152600660205260409020546107109190611dbc565b61071a9190611e02565b6107249190611e16565b92915050565b600061072482610738610e57565b90610e85565b610785610749610f5f565b83838080601f016020809104026020016040519081016040528093929190818152602001838380828437600092019190915250610f6992505050565b5050565b60015460009080820361079e57505060045490565b80670de0b6b3a76400006003546002546107b6610d5f565b6107c09190611da9565b6107ca9190611dbc565b6107d49190611dbc565b6107de9190611e02565b6004546107eb9190611e16565b91505090565b60016108276107fe610f5f565b82858560405160200161081393929190611e29565b6040516020818303038152906040526110b8565b505050565b6000610836610f5f565b905061084a816108446111a4565b906111d2565b61082783838361085861123d565b92919061126b565b600061086a610f5f565b905061087581611342565b600061088082610693565b905080156107855773ffffffffffffffffffffffffffffffffffffffff821660009081526007602052604081208190556108ba83836113d0565b90508273ffffffffffffffffffffffffffffffffffffffff167f4196decb55b5644a278b6ded1c42a27acb5182aa099b1fd48974bcc0cf263fd58284604051610904929190611eed565b60405180910390a2505050565b60003373ffffffffffffffffffffffffffffffffffffffff7f00000000000000000000000000000000000000000000000000000000000000001614610982576040517fc1ab6dc100000000000000000000000000000000000000000000000000000000815260040160405180910390fd5b60007f000000000000000000000000000000000000000000000000000000000000000073ffffffffffffffffffffffffffffffffffffffff168773ffffffffffffffffffffffffffffffffffffffff1603610a415760006109e584860186611bb2565b9050610a3b8183886040516020016109ff91815260200190565b604080517fffffffffffffffffffffffffffffffffffffffffffffffffffffffffffffffe0818403018152908290526108139291602001611f0f565b50610a59565b610a598682876040516020016109ff91815260200190565b507f4fc35859000000000000000000000000000000000000000000000000000000009695505050505050565b6000610a8f610f5f565b9050610ac57f726577617264657200000000000000000000000000000000000000000000000082610abe61123d565b91906113dc565b82600003610aff576040517f3853986500000000000000000000000000000000000000000000000000000000815260040160405180910390fd5b81600003610b39576040517f7616640100000000000000000000000000000000000000000000000000000000815260040160405180910390fd5b610b436000611342565b60055460009081610b548542611e16565b9050814210610bd1576000610b698688611e02565b9050868682610bb2576040517f99e66a49000000000000000000000000000000000000000000000000000000008152600481019290925260248201526044015b60405180910390fd5b50506003819055610bc38688611f32565b60058390559350610cfa9050565b818111610c6057610be24283611da9565b94506000610bf08688611e02565b9050868682610c34576040517f99e66a4900000000000000000000000000000000000000000000000000000000815260048101929092526024820152604401610ba9565b50508060036000828254610c489190611e16565b90915550610c5890508688611f32565b935050610cfa565b610c6a8587611e02565b86908690610cad576040517f99e66a4900000000000000000000000000000000000000000000000000000000815260048101929092526024820152604401610ba9565b5060009050610cbc4284611da9565b600354610cc99190611dbc565b90506000610cd78883611e16565b9050610ce38782611e02565b600355610cf08782611f32565b6005849055945050505b42600255604080518781526020810187905290810184905273ffffffffffffffffffffffffffffffffffffffff8516907f0727302becd070529b3293f4ec8f553d9f6ae1773f638598db1205fbf89080839060600160405180910390a2505050505050565b600554600090428111610d7257806107eb565b4291505090565b610d94610d84610f5f565b82610d8d61123d565b9190611462565b50565b6000610dbe610da46111a4565b5473ffffffffffffffffffffffffffffffffffffffff1690565b905090565b6000610e078383610dd261123d565b60009283526020908152604080842073ffffffffffffffffffffffffffffffffffffffff909316845291905290205460ff1690565b9392505050565b6000610e18610f5f565b9050610e26816108446111a4565b610827838383610e3461123d565b929190611506565b610d94610e47610f5f565b82610e506111a4565b91906115d0565b60008061072460017fca9d3e17f264b0f3984e2634e94adb37fa3e6a8103f06aeae6fa59e21c769f5e611da9565b60007c01000000000000000000000000000000000000000000000000000000007fffffffff00000000000000000000000000000000000000000000000000000000831601610ed557506000610724565b7ffe003659000000000000000000000000000000000000000000000000000000007fffffffff00000000000000000000000000000000000000000000000000000000831601610f2657506001610724565b507fffffffff00000000000000000000000000000000000000000000000000000000166000908152602091909152604090205460ff1690565b6000610dbe6116e4565b610f7282611342565b6000610f7e8383611831565b905080600003610fba576040517fdb73cdf000000000000000000000000000000000000000000000000000000000815260040160405180910390fd5b73ffffffffffffffffffffffffffffffffffffffff831660009081526006602052604090205483818380821015611043576040517f2b6a775800000000000000000000000000000000000000000000000000000000815273ffffffffffffffffffffffffffffffffffffffff909316600484015260248301919091526044820152606401610ba9565b50505073ffffffffffffffffffffffffffffffffffffffff84166000818152600660205260409081902080548590039055838303600155517faae638dec0d864ccb08558c28981bcfaee41330f57c4911cbe2d8432d0fb729e906110aa9086908690611eed565b60405180910390a250505050565b6110c182611342565b60006110cd838361188a565b905080600003611109576040517f040ef8ec00000000000000000000000000000000000000000000000000000000815260040160405180910390fd5b806001600082825461111b9190611e16565b909155505073ffffffffffffffffffffffffffffffffffffffff831660009081526006602052604081208054839290611155908490611e16565b925050819055508273ffffffffffffffffffffffffffffffffffffffff167ff4679d394f1f97f1a3df1d73e193866ec5a813168ad5fa6958f9be21b10a594e8383604051610904929190611eed565b60008061072460017fc9ed16f33ab3a66c84bfd83099ccb2a8845871e2e1c1928f63797152f0fd54cd611da9565b815473ffffffffffffffffffffffffffffffffffffffff828116911614610785576040517f2ef4875e00000000000000000000000000000000000000000000000000000000815273ffffffffffffffffffffffffffffffffffffffff82166004820152602401610ba9565b60008061072460017fc8827d3282af6f37b64c3e9e6f3ac9df286ab0bb0fccd6f8661bf19adb368b23611da9565b60008381526020858152604080832073ffffffffffffffffffffffffffffffffffffffff8616845290915290205460ff1661133c5760008381526020858152604080832073ffffffffffffffffffffffffffffffffffffffff8681168086529184529382902080547fffffffffffffffffffffffffffffffffffffffffffffffffffffffffffffff00166001179055815187815292830152918316918101919091527f2f8788117e7eff1d82e926ec794901d17c78024a50270940304540a733656f0d906060015b60405180910390a15b50505050565b61134a610789565b6004556005544210158061135f575060015415155b156113705761136c610d5f565b6002555b73ffffffffffffffffffffffffffffffffffffffff811615610d945761139581610693565b73ffffffffffffffffffffffffffffffffffffffff821660009081526007602090815260408083209390935560045460089091529190205550565b6060610e07838361190d565b60008281526020848152604080832073ffffffffffffffffffffffffffffffffffffffff8516845290915290205460ff16610827576040517f7aa728820000000000000000000000000000000000000000000000000000000081526004810183905273ffffffffffffffffffffffffffffffffffffffff82166024820152604401610ba9565b61146d8382846113dc565b60008181526020848152604080832073ffffffffffffffffffffffffffffffffffffffff86168085529083529281902080547fffffffffffffffffffffffffffffffffffffffffffffffffffffffffffffff0016905580518481529182018390528101919091527ff6391f5c32d9c69d2a47ea670b442974b53935d1edc7fd64eb21e047a839171b9060600160405180910390a1505050565b60008381526020858152604080832073ffffffffffffffffffffffffffffffffffffffff8616845290915290205460ff161561133c5760008381526020858152604080832073ffffffffffffffffffffffffffffffffffffffff8681168086529184529382902080547fffffffffffffffffffffffffffffffffffffffffffffffffffffffffffffff00169055815187815292830152918316918101919091527ff6391f5c32d9c69d2a47ea670b442974b53935d1edc7fd64eb21e047a839171b90606001611333565b825473ffffffffffffffffffffffffffffffffffffffff908116908316811461163d576040517f2ef4875e00000000000000000000000000000000000000000000000000000000815273ffffffffffffffffffffffffffffffffffffffff84166004820152602401610ba9565b8173ffffffffffffffffffffffffffffffffffffffff168173ffffffffffffffffffffffffffffffffffffffff161461133c5783547fffffffffffffffffffffffff00000000000000000000000000000000000000001673ffffffffffffffffffffffffffffffffffffffff8381169182178655604051908316907f8be0079c531659141344cd1fd0a4f28419497f9722a3daafe3b4186f6b6457e090600090a350505050565b6000333214806116f45750601836105b156116fe57503390565b7fffffffffffffffffffffffffffffffffffffffffffffffffffffffffffffffec36013560601c7f000000000000000000000000000000000000000000000000000000000000000073ffffffffffffffffffffffffffffffffffffffff1633148061182057506040517f019a202800000000000000000000000000000000000000000000000000000000815273ffffffffffffffffffffffffffffffffffffffff82811660048301523360248301523060448301527f0000000000000000000000000000000000000000000000000000000000000000169063019a202890606401602060405180830381865afa1580156117fc573d6000803e3d6000fd5b505050506040513d601f19601f820116820180604052508101906118209190611f5b565b1561182a57919050565b3391505090565b6000818060200190518101906118479190611f76565b905061072473ffffffffffffffffffffffffffffffffffffffff7f0000000000000000000000000000000000000000000000000000000000000000168483611a25565b6000806000838060200190518101906118a39190611fbe565b91509150808060200190518101906118bb9190611f76565b925081156119055761190573ffffffffffffffffffffffffffffffffffffffff7f000000000000000000000000000000000000000000000000000000000000000016863086611aa6565b505092915050565b60608160405160200161192291815260200190565b604080518083037fffffffffffffffffffffffffffffffffffffffffffffffffffffffffffffffe0018152908290527f26b3293f00000000000000000000000000000000000000000000000000000000825273ffffffffffffffffffffffffffffffffffffffff8581166004840152602483018590527f000000000000000000000000000000000000000000000000000000000000000060448401529092507f000000000000000000000000000000000000000000000000000000000000000016906326b3293f90606401600060405180830381600087803b158015611a0757600080fd5b505af1158015611a1b573d6000803e3d6000fd5b5050505092915050565b60405173ffffffffffffffffffffffffffffffffffffffff83811660248301526044820183905261082791859182169063a9059cbb906064015b604051602081830303815290604052915060e01b6020820180517bffffffffffffffffffffffffffffffffffffffffffffffffffffffff8381831617835250505050611aec565b60405173ffffffffffffffffffffffffffffffffffffffff848116602483015283811660448301526064820183905261133c9186918216906323b872dd90608401611a5f565b600080602060008451602086016000885af180611b0f576040513d6000823e3d81fd5b50506000513d91508115611b27578060011415611b41565b73ffffffffffffffffffffffffffffffffffffffff84163b155b1561133c576040517f5274afe700000000000000000000000000000000000000000000000000000000815273ffffffffffffffffffffffffffffffffffffffff85166004820152602401610ba9565b73ffffffffffffffffffffffffffffffffffffffff81168114610d9457600080fd5b600060208284031215611bc457600080fd5b8135610e0781611b90565b600060208284031215611be157600080fd5b81357fffffffff0000000000000000000000000000000000000000000000000000000081168114610e0757600080fd5b60008083601f840112611c2357600080fd5b50813567ffffffffffffffff811115611c3b57600080fd5b602083019150836020828501011115611c5357600080fd5b9250929050565b60008060208385031215611c6d57600080fd5b823567ffffffffffffffff811115611c8457600080fd5b611c9085828601611c11565b90969095509350505050565b60008060408385031215611caf57600080fd5b823591506020830135611cc181611b90565b809150509250929050565b600080600080600060808688031215611ce457600080fd5b8535611cef81611b90565b94506020860135611cff81611b90565b935060408601359250606086013567ffffffffffffffff811115611d2257600080fd5b611d2e88828901611c11565b969995985093965092949392505050565b60008060408385031215611d5257600080fd5b50508035926020909101359150565b600060208284031215611d7357600080fd5b5035919050565b7f4e487b7100000000000000000000000000000000000000000000000000000000600052601160045260246000fd5b8181038181111561072457610724611d7a565b808202811582820484141761072457610724611d7a565b7f4e487b7100000000000000000000000000000000000000000000000000000000600052601260045260246000fd5b600082611e1157611e11611dd3565b500490565b8082018082111561072457610724611d7a565b831515815260406020820152816040820152818360608301376000818301606090810191909152601f9092017fffffffffffffffffffffffffffffffffffffffffffffffffffffffffffffffe016010192915050565b60005b83811015611e9a578181015183820152602001611e82565b50506000910152565b60008151808452611ebb816020860160208601611e7f565b601f017fffffffffffffffffffffffffffffffffffffffffffffffffffffffffffffffe0169290920160200192915050565b604081526000611f006040830185611ea3565b90508260208301529392505050565b8215158152604060208201526000611f2a6040830184611ea3565b949350505050565b600082611f4157611f41611dd3565b500690565b80518015158114611f5657600080fd5b919050565b600060208284031215611f6d57600080fd5b610e0782611f46565b600060208284031215611f8857600080fd5b5051919050565b7f4e487b7100000000000000000000000000000000000000000000000000000000600052604160045260246000fd5b60008060408385031215611fd157600080fd5b611fda83611f46565b9150602083015167ffffffffffffffff811115611ff657600080fd5b8301601f8101851361200757600080fd5b805167ffffffffffffffff81111561202157612021611f8f565b6040517fffffffffffffffffffffffffffffffffffffffffffffffffffffffffffffffe0603f7fffffffffffffffffffffffffffffffffffffffffffffffffffffffffffffffe0601f8501160116810181811067ffffffffffffffff8211171561208d5761208d611f8f565b6040528181528282016020018710156120a557600080fd5b6120b6826020830160208601611e7f565b809350505050925092905056fea2646970667358221220341cf898e7b96bfa85ae40b9eeb247fd13e60ee669b129806f58c6946c07060c64736f6c634300081c0033",
  "linkReferences": {},
  "deployedLinkReferences": {}
}