{
  "_format": "hh-sol-artifact-1",
  "contractName": "ERC20StakingPointsRewardsLinearPool",
  "sourceName": "contracts/staking/ERC20StakingPointsRewardsLinearPool.sol",
  "abi": [
    {
      "inputs": [
        {
          "internalType": "contract IERC20",
          "name": "stakingToken",
          "type": "address"
        },
        {
          "internalType": "contract IPoints",
          "name": "pointsContract",
          "type": "address"
        },
        {
          "internalType": "bytes32",
          "name": "depositReasonCode",
          "type": "bytes32"
        },
        {
          "internalType": "contract IForwarderRegistry",
          "name": "forwarderRegistry",
          "type": "address"
        }
      ],
      "stateMutability": "nonpayable",
      "type": "constructor"
    },
    {
      "inputs": [],
      "name": "IllegalInterfaceId",
      "type": "error"
    },
    {
      "inputs": [],
      "name": "InvalidDuration",
      "type": "error"
    },
    {
      "inputs": [],
      "name": "InvalidRewardAmount",
      "type": "error"
    },
    {
      "inputs": [],
      "name": "InvalidStakeAmount",
      "type": "error"
    },
    {
      "inputs": [],
      "name": "InvalidToken",
      "type": "error"
    },
    {
      "inputs": [],
      "name": "InvalidWithdrawAmount",
      "type": "error"
    },
    {
      "inputs": [
        {
          "internalType": "address",
          "name": "account",
          "type": "address"
        }
      ],
      "name": "NotContractOwner",
      "type": "error"
    },
    {
      "inputs": [
        {
          "internalType": "address",
          "name": "staker",
          "type": "address"
        },
        {
          "internalType": "uint256",
          "name": "stake",
          "type": "uint256"
        },
        {
          "internalType": "uint256",
          "name": "withdraw",
          "type": "uint256"
        }
      ],
      "name": "NotEnoughStake",
      "type": "error"
    },
    {
      "inputs": [
        {
          "internalType": "bytes32",
          "name": "role",
          "type": "bytes32"
        },
        {
          "internalType": "address",
          "name": "account",
          "type": "address"
        }
      ],
      "name": "NotRoleHolder",
      "type": "error"
    },
    {
      "inputs": [],
      "name": "ReentrancyGuardReentrantCall",
      "type": "error"
    },
    {
      "inputs": [
        {
          "internalType": "uint256",
          "name": "reward",
          "type": "uint256"
        },
        {
          "internalType": "uint256",
          "name": "duration",
          "type": "uint256"
        }
      ],
      "name": "RewardTooSmallForDuration",
      "type": "error"
    },
    {
      "inputs": [
        {
          "internalType": "address",
          "name": "token",
          "type": "address"
        }
      ],
      "name": "SafeERC20FailedOperation",
      "type": "error"
    },
    {
      "anonymous": false,
      "inputs": [
        {
          "indexed": true,
          "internalType": "address",
          "name": "staker",
          "type": "address"
        },
        {
          "indexed": false,
          "internalType": "bytes",
          "name": "claimData",
          "type": "bytes"
        },
        {
          "indexed": false,
          "internalType": "uint256",
          "name": "reward",
          "type": "uint256"
        }
      ],
      "name": "Claimed",
      "type": "event"
    },
    {
      "anonymous": false,
      "inputs": [
        {
          "indexed": true,
          "internalType": "address",
          "name": "previousOwner",
          "type": "address"
        },
        {
          "indexed": true,
          "internalType": "address",
          "name": "newOwner",
          "type": "address"
        }
      ],
      "name": "OwnershipTransferred",
      "type": "event"
    },
    {
      "anonymous": false,
      "inputs": [
        {
          "indexed": true,
          "internalType": "address",
          "name": "rewarder",
          "type": "address"
        },
        {
          "indexed": false,
          "internalType": "uint256",
          "name": "reward",
          "type": "uint256"
        },
        {
          "indexed": false,
          "internalType": "uint256",
          "name": "duration",
          "type": "uint256"
        },
        {
          "indexed": false,
          "internalType": "uint256",
          "name": "dust",
          "type": "uint256"
        }
      ],
      "name": "RewardAdded",
      "type": "event"
    },
    {
      "anonymous": false,
      "inputs": [
        {
          "indexed": false,
          "internalType": "bytes32",
          "name": "role",
          "type": "bytes32"
        },
        {
          "indexed": false,
          "internalType": "address",
          "name": "account",
          "type": "address"
        },
        {
          "indexed": false,
          "internalType": "address",
          "name": "operator",
          "type": "address"
        }
      ],
      "name": "RoleGranted",
      "type": "event"
    },
    {
      "anonymous": false,
      "inputs": [
        {
          "indexed": false,
          "internalType": "bytes32",
          "name": "role",
          "type": "bytes32"
        },
        {
          "indexed": false,
          "internalType": "address",
          "name": "account",
          "type": "address"
        },
        {
          "indexed": false,
          "internalType": "address",
          "name": "operator",
          "type": "address"
        }
      ],
      "name": "RoleRevoked",
      "type": "event"
    },
    {
      "anonymous": false,
      "inputs": [
        {
          "indexed": true,
          "internalType": "address",
          "name": "staker",
          "type": "address"
        },
        {
          "indexed": false,
          "internalType": "bytes",
          "name": "stakeData",
          "type": "bytes"
        },
        {
          "indexed": false,
          "internalType": "uint256",
          "name": "stakePoints",
          "type": "uint256"
        }
      ],
      "name": "Staked",
      "type": "event"
    },
    {
      "anonymous": false,
      "inputs": [
        {
          "indexed": true,
          "internalType": "address",
          "name": "staker",
          "type": "address"
        },
        {
          "indexed": false,
          "internalType": "bytes",
          "name": "withdrawData",
          "type": "bytes"
        },
        {
          "indexed": false,
          "internalType": "uint256",
          "name": "stakePoints",
          "type": "uint256"
        }
      ],
      "name": "Withdrawn",
      "type": "event"
    },
    {
      "inputs": [],
      "name": "DEPOSIT_REASON_CODE",
      "outputs": [
        {
          "internalType": "bytes32",
          "name": "",
          "type": "bytes32"
        }
      ],
      "stateMutability": "view",
      "type": "function"
    },
    {
      "inputs": [],
      "name": "POINTS_CONTRACT",
      "outputs": [
        {
          "internalType": "contract IPoints",
          "name": "",
          "type": "address"
        }
      ],
      "stateMutability": "view",
      "type": "function"
    },
    {
      "inputs": [],
      "name": "REWARDER_ROLE",
      "outputs": [
        {
          "internalType": "bytes32",
          "name": "",
          "type": "bytes32"
        }
      ],
      "stateMutability": "view",
      "type": "function"
    },
    {
      "inputs": [],
      "name": "SCALING_FACTOR",
      "outputs": [
        {
          "internalType": "uint256",
          "name": "",
          "type": "uint256"
        }
      ],
      "stateMutability": "view",
      "type": "function"
    },
    {
      "inputs": [],
      "name": "STAKING_TOKEN",
      "outputs": [
        {
          "internalType": "contract IERC20",
          "name": "",
          "type": "address"
        }
      ],
      "stateMutability": "view",
      "type": "function"
    },
    {
      "inputs": [
        {
          "internalType": "uint256",
          "name": "reward",
          "type": "uint256"
        },
        {
          "internalType": "uint256",
          "name": "duration",
          "type": "uint256"
        }
      ],
      "name": "addReward",
      "outputs": [],
      "stateMutability": "payable",
      "type": "function"
    },
    {
      "inputs": [],
      "name": "claim",
      "outputs": [],
      "stateMutability": "nonpayable",
      "type": "function"
    },
    {
      "inputs": [],
      "name": "distributionEnd",
      "outputs": [
        {
          "internalType": "uint256",
          "name": "",
          "type": "uint256"
        }
      ],
      "stateMutability": "view",
      "type": "function"
    },
    {
      "inputs": [
        {
          "internalType": "address",
          "name": "account",
          "type": "address"
        }
      ],
      "name": "earned",
      "outputs": [
        {
          "internalType": "uint256",
          "name": "",
          "type": "uint256"
        }
      ],
      "stateMutability": "view",
      "type": "function"
    },
    {
      "inputs": [],
      "name": "forwarderRegistry",
      "outputs": [
        {
          "internalType": "contract IForwarderRegistry",
          "name": "",
          "type": "address"
        }
      ],
      "stateMutability": "view",
      "type": "function"
    },
    {
      "inputs": [
        {
          "internalType": "bytes32",
          "name": "role",
          "type": "bytes32"
        },
        {
          "internalType": "address",
          "name": "account",
          "type": "address"
        }
      ],
      "name": "grantRole",
      "outputs": [],
      "stateMutability": "nonpayable",
      "type": "function"
    },
    {
      "inputs": [
        {
          "internalType": "bytes32",
          "name": "role",
          "type": "bytes32"
        },
        {
          "internalType": "address",
          "name": "account",
          "type": "address"
        }
      ],
      "name": "hasRole",
      "outputs": [
        {
          "internalType": "bool",
          "name": "hasRole_",
          "type": "bool"
        }
      ],
      "stateMutability": "view",
      "type": "function"
    },
    {
      "inputs": [
        {
          "internalType": "address",
          "name": "forwarder",
          "type": "address"
        }
      ],
      "name": "isTrustedForwarder",
      "outputs": [
        {
          "internalType": "bool",
          "name": "",
          "type": "bool"
        }
      ],
      "stateMutability": "view",
      "type": "function"
    },
    {
      "inputs": [],
      "name": "lastTimeRewardApplicable",
      "outputs": [
        {
          "internalType": "uint256",
          "name": "",
          "type": "uint256"
        }
      ],
      "stateMutability": "view",
      "type": "function"
    },
    {
      "inputs": [],
      "name": "lastUpdated",
      "outputs": [
        {
          "internalType": "uint256",
          "name": "",
          "type": "uint256"
        }
      ],
      "stateMutability": "view",
      "type": "function"
    },
    {
      "inputs": [
        {
          "internalType": "address",
          "name": "",
          "type": "address"
        },
        {
          "internalType": "address",
          "name": "from",
          "type": "address"
        },
        {
          "internalType": "uint256",
          "name": "value",
          "type": "uint256"
        },
        {
          "internalType": "bytes",
          "name": "",
          "type": "bytes"
        }
      ],
      "name": "onERC20Received",
      "outputs": [
        {
          "internalType": "bytes4",
          "name": "",
          "type": "bytes4"
        }
      ],
      "stateMutability": "nonpayable",
      "type": "function"
    },
    {
      "inputs": [],
      "name": "owner",
      "outputs": [
        {
          "internalType": "address",
          "name": "",
          "type": "address"
        }
      ],
      "stateMutability": "view",
      "type": "function"
    },
    {
      "inputs": [
        {
          "internalType": "bytes32",
          "name": "role",
          "type": "bytes32"
        }
      ],
      "name": "renounceRole",
      "outputs": [],
      "stateMutability": "nonpayable",
      "type": "function"
    },
    {
      "inputs": [
        {
          "internalType": "bytes32",
          "name": "role",
          "type": "bytes32"
        },
        {
          "internalType": "address",
          "name": "account",
          "type": "address"
        }
      ],
      "name": "revokeRole",
      "outputs": [],
      "stateMutability": "nonpayable",
      "type": "function"
    },
    {
      "inputs": [],
      "name": "rewardPerStakePoint",
      "outputs": [
        {
          "internalType": "uint256",
          "name": "",
          "type": "uint256"
        }
      ],
      "stateMutability": "view",
      "type": "function"
    },
    {
      "inputs": [
        {
          "internalType": "address",
          "name": "staker",
          "type": "address"
        }
      ],
      "name": "rewardPerStakePointPaid",
      "outputs": [
        {
          "internalType": "uint256",
          "name": "paid",
          "type": "uint256"
        }
      ],
      "stateMutability": "view",
      "type": "function"
    },
    {
      "inputs": [],
      "name": "rewardPerStakePointStored",
      "outputs": [
        {
          "internalType": "uint256",
          "name": "",
          "type": "uint256"
        }
      ],
      "stateMutability": "view",
      "type": "function"
    },
    {
      "inputs": [],
      "name": "rewardRate",
      "outputs": [
        {
          "internalType": "uint256",
          "name": "",
          "type": "uint256"
        }
      ],
      "stateMutability": "view",
      "type": "function"
    },
    {
      "inputs": [
        {
          "internalType": "address",
          "name": "staker",
          "type": "address"
        }
      ],
      "name": "rewards",
      "outputs": [
        {
          "internalType": "uint256",
          "name": "reward",
          "type": "uint256"
        }
      ],
      "stateMutability": "view",
      "type": "function"
    },
    {
      "inputs": [
        {
          "internalType": "bytes",
          "name": "stakeData",
          "type": "bytes"
        }
      ],
      "name": "stake",
      "outputs": [],
      "stateMutability": "payable",
      "type": "function"
    },
    {
      "inputs": [
        {
          "internalType": "address",
          "name": "staker",
          "type": "address"
        }
      ],
      "name": "staked",
      "outputs": [
        {
          "internalType": "uint256",
          "name": "stakePoints",
          "type": "uint256"
        }
      ],
      "stateMutability": "view",
      "type": "function"
    },
    {
      "inputs": [
        {
          "internalType": "bytes4",
          "name": "interfaceId",
          "type": "bytes4"
        }
      ],
      "name": "supportsInterface",
      "outputs": [
        {
          "internalType": "bool",
          "name": "",
          "type": "bool"
        }
      ],
      "stateMutability": "view",
      "type": "function"
    },
    {
      "inputs": [],
      "name": "totalStaked",
      "outputs": [
        {
          "internalType": "uint256",
          "name": "",
          "type": "uint256"
        }
      ],
      "stateMutability": "view",
      "type": "function"
    },
    {
      "inputs": [
        {
          "internalType": "address",
          "name": "newOwner",
          "type": "address"
        }
      ],
      "name": "transferOwnership",
      "outputs": [],
      "stateMutability": "nonpayable",
      "type": "function"
    },
    {
      "inputs": [
        {
          "internalType": "bytes",
          "name": "withdrawData",
          "type": "bytes"
        }
      ],
      "name": "withdraw",
      "outputs": [],
      "stateMutability": "nonpayable",
      "type": "function"
    }
  ],
  "bytecode": "0x61010060405234801561001157600080fd5b506040516122fe3803806122fe833981016040819052610030916101e6565b828285838080803361004a816100446100a1565b906100d5565b50600160008190556001600160a01b0390911660805261007e9250634fc3585960e01b9150610077610144565b9190610172565b506001600160a01b0390811660a0529190911660c05260e0525061025c92505050565b6000806100cf60017fc9ed16f33ab3a66c84bfd83099ccb2a8845871e2e1c1928f63797152f0fd54cd61023b565b92915050565b6001600160a01b0381161561012b5781546001600160a01b0319166001600160a01b03821690811783556040516000907f8be0079c531659141344cd1fd0a4f28419497f9722a3daafe3b4186f6b6457e0908290a35b6101406307f5828d60e41b6001610077610144565b5050565b6000806100cf60017fca9d3e17f264b0f3984e2634e94adb37fa3e6a8103f06aeae6fa59e21c769f5e61023b565b600160e01b6001600160e01b03198316016101a0576040516372c683bb60e01b815260040160405180910390fd5b6001600160e01b03199190911660009081526020929092526040909120805460ff1916911515919091179055565b6001600160a01b03811681146101e357600080fd5b50565b600080600080608085870312156101fc57600080fd5b8451610207816101ce565b6020860151909450610218816101ce565b604086015160608701519194509250610230816101ce565b939692955090935050565b818103818111156100cf57634e487b7160e01b600052601160045260246000fd5b60805160a05160c05160e0516120316102cd600039600081816102ee01526118da01526000818161037d0152611903015260008181610246015281816108ec015281816117a3015261181d01526000818161031f015281816104420152818161166701526116f501526120316000f3fe6080604052600436106101cc5760003560e01c80637b0a47ee116100f757806398807d8411610095578063d547741f11610064578063d547741f146105e2578063ef4cadc514610602578063efa90b541461061e578063f2fde38b1461063457600080fd5b806398807d841461055c5780639d696e3614610589578063c5c8f7701461059f578063d0b06f5d146105cc57600080fd5b80638580cf76116100d15780638580cf76146104d35780638bb9c5bf146105075780638da5cb5b1461052757806391d148541461053c57600080fd5b80637b0a47ee1461049257806380faa57d146104a8578063817b1cd2146104bd57600080fd5b80632c9d0b801161016f5780634e71d92d1161013e5780634e71d92d146103bf5780634fc35859146103d4578063572b6c051461042557806375c93bb91461047f57600080fd5b80632c9d0b80146103435780632d1e0c02146103585780632d4c2f931461036b5780632f2ff15d1461039f57600080fd5b80630700037d116101ab5780630700037d1461028d5780630968f264146102ba5780632196e445146102dc5780632b4c9f161461031057600080fd5b80628cc262146101d157806301ffc9a7146102045780630479d64414610234575b600080fd5b3480156101dd57600080fd5b506101f16101ec366004611af9565b610654565b6040519081526020015b60405180910390f35b34801561021057600080fd5b5061022461021f366004611b14565b6106eb565b60405190151581526020016101fb565b34801561024057600080fd5b506102687f000000000000000000000000000000000000000000000000000000000000000081565b60405173ffffffffffffffffffffffffffffffffffffffff90911681526020016101fb565b34801561029957600080fd5b506101f16102a8366004611af9565b60076020526000908152604090205481565b3480156102c657600080fd5b506102da6102d5366004611b9f565b6106ff565b005b3480156102e857600080fd5b506101f17f000000000000000000000000000000000000000000000000000000000000000081565b34801561031c57600080fd5b507f0000000000000000000000000000000000000000000000000000000000000000610268565b34801561034f57600080fd5b506101f161074a565b6102da610366366004611b9f565b6107b2565b34801561037757600080fd5b506102687f000000000000000000000000000000000000000000000000000000000000000081565b3480156103ab57600080fd5b506102da6103ba366004611be1565b6107ed565b3480156103cb57600080fd5b506102da610821565b3480156103e057600080fd5b506103f46103ef366004611c0d565b6108d2565b6040517fffffffff0000000000000000000000000000000000000000000000000000000090911681526020016101fb565b34801561043157600080fd5b50610224610440366004611af9565b7f000000000000000000000000000000000000000000000000000000000000000073ffffffffffffffffffffffffffffffffffffffff90811691161490565b6102da61048d366004611c7c565b6109c5565b34801561049e57600080fd5b506101f160035481565b3480156104b457600080fd5b506101f1610c9f565b3480156104c957600080fd5b506101f160015481565b3480156104df57600080fd5b506101f17f726577617264657200000000000000000000000000000000000000000000000081565b34801561051357600080fd5b506102da610522366004611c9e565b610cb9565b34801561053357600080fd5b50610268610cd7565b34801561054857600080fd5b50610224610557366004611be1565b610d03565b34801561056857600080fd5b506101f1610577366004611af9565b60066020526000908152604090205481565b34801561059557600080fd5b506101f160045481565b3480156105ab57600080fd5b506101f16105ba366004611af9565b60086020526000908152604090205481565b3480156105d857600080fd5b506101f160025481565b3480156105ee57600080fd5b506102da6105fd366004611be1565b610d4e565b34801561060e57600080fd5b506101f1670de0b6b3a764000081565b34801561062a57600080fd5b506101f160055481565b34801561064057600080fd5b506102da61064f366004611af9565b610d7c565b73ffffffffffffffffffffffffffffffffffffffff81166000908152600760209081526040808320546008909252822054670de0b6b3a76400009061069761074a565b6106a19190611ce6565b73ffffffffffffffffffffffffffffffffffffffff85166000908152600660205260409020546106d19190611cf9565b6106db9190611d3f565b6106e59190611d53565b92915050565b60006106e5826106f9610d97565b90610dc5565b61074661070a610e9f565b83838080601f016020809104026020016040519081016040528093929190818152602001838380828437600092019190915250610ea992505050565b5050565b60015460009080820361075f57505060045490565b80670de0b6b3a7640000600354600254610777610c9f565b6107819190611ce6565b61078b9190611cf9565b6107959190611cf9565b61079f9190611d3f565b6004546107ac9190611d53565b91505090565b60016107e86107bf610e9f565b8285856040516020016107d493929190611d66565b604051602081830303815290604052610ff8565b505050565b60006107f7610e9f565b905061080b816108056110e4565b90611112565b6107e883838361081961117d565b9291906111ab565b600061082b610e9f565b905061083681611282565b600061084182610654565b905080156107465773ffffffffffffffffffffffffffffffffffffffff8216600090815260076020526040812081905561087b8383611310565b90508273ffffffffffffffffffffffffffffffffffffffff167f4196decb55b5644a278b6ded1c42a27acb5182aa099b1fd48974bcc0cf263fd582846040516108c5929190611e2a565b60405180910390a2505050565b60003373ffffffffffffffffffffffffffffffffffffffff7f00000000000000000000000000000000000000000000000000000000000000001614610943576040517fc1ab6dc100000000000000000000000000000000000000000000000000000000815260040160405180910390fd5b600061099986828760405160200161095d91815260200190565b604080517fffffffffffffffffffffffffffffffffffffffffffffffffffffffffffffffe0818403018152908290526107d49291602001611e4c565b507f4fc35859000000000000000000000000000000000000000000000000000000009695505050505050565b60006109cf610e9f565b9050610a057f7265776172646572000000000000000000000000000000000000000000000000826109fe61117d565b919061131c565b82600003610a3f576040517f3853986500000000000000000000000000000000000000000000000000000000815260040160405180910390fd5b81600003610a79576040517f7616640100000000000000000000000000000000000000000000000000000000815260040160405180910390fd5b610a836000611282565b60055460009081610a948542611d53565b9050814210610b11576000610aa98688611d3f565b9050868682610af2576040517f99e66a49000000000000000000000000000000000000000000000000000000008152600481019290925260248201526044015b60405180910390fd5b50506003819055610b038688611e6f565b60058390559350610c3a9050565b818111610ba057610b224283611ce6565b94506000610b308688611d3f565b9050868682610b74576040517f99e66a4900000000000000000000000000000000000000000000000000000000815260048101929092526024820152604401610ae9565b50508060036000828254610b889190611d53565b90915550610b9890508688611e6f565b935050610c3a565b610baa8587611d3f565b86908690610bed576040517f99e66a4900000000000000000000000000000000000000000000000000000000815260048101929092526024820152604401610ae9565b5060009050610bfc4284611ce6565b600354610c099190611cf9565b90506000610c178883611d53565b9050610c238782611d3f565b600355610c308782611e6f565b6005849055945050505b42600255604080518781526020810187905290810184905273ffffffffffffffffffffffffffffffffffffffff8516907f0727302becd070529b3293f4ec8f553d9f6ae1773f638598db1205fbf89080839060600160405180910390a2505050505050565b600554600090428111610cb257806107ac565b4291505090565b610cd4610cc4610e9f565b82610ccd61117d565b91906113a2565b50565b6000610cfe610ce46110e4565b5473ffffffffffffffffffffffffffffffffffffffff1690565b905090565b6000610d478383610d1261117d565b60009283526020908152604080842073ffffffffffffffffffffffffffffffffffffffff909316845291905290205460ff1690565b9392505050565b6000610d58610e9f565b9050610d66816108056110e4565b6107e8838383610d7461117d565b929190611446565b610cd4610d87610e9f565b82610d906110e4565b9190611510565b6000806106e560017fca9d3e17f264b0f3984e2634e94adb37fa3e6a8103f06aeae6fa59e21c769f5e611ce6565b60007c01000000000000000000000000000000000000000000000000000000007fffffffff00000000000000000000000000000000000000000000000000000000831601610e15575060006106e5565b7ffe003659000000000000000000000000000000000000000000000000000000007fffffffff00000000000000000000000000000000000000000000000000000000831601610e66575060016106e5565b507fffffffff00000000000000000000000000000000000000000000000000000000166000908152602091909152604090205460ff1690565b6000610cfe611624565b610eb282611282565b6000610ebe8383611771565b905080600003610efa576040517fdb73cdf000000000000000000000000000000000000000000000000000000000815260040160405180910390fd5b73ffffffffffffffffffffffffffffffffffffffff831660009081526006602052604090205483818380821015610f83576040517f2b6a775800000000000000000000000000000000000000000000000000000000815273ffffffffffffffffffffffffffffffffffffffff909316600484015260248301919091526044820152606401610ae9565b50505073ffffffffffffffffffffffffffffffffffffffff84166000818152600660205260409081902080548590039055838303600155517faae638dec0d864ccb08558c28981bcfaee41330f57c4911cbe2d8432d0fb729e90610fea9086908690611e2a565b60405180910390a250505050565b61100182611282565b600061100d83836117ca565b905080600003611049576040517f040ef8ec00000000000000000000000000000000000000000000000000000000815260040160405180910390fd5b806001600082825461105b9190611d53565b909155505073ffffffffffffffffffffffffffffffffffffffff831660009081526006602052604081208054839290611095908490611d53565b925050819055508273ffffffffffffffffffffffffffffffffffffffff167ff4679d394f1f97f1a3df1d73e193866ec5a813168ad5fa6958f9be21b10a594e83836040516108c5929190611e2a565b6000806106e560017fc9ed16f33ab3a66c84bfd83099ccb2a8845871e2e1c1928f63797152f0fd54cd611ce6565b815473ffffffffffffffffffffffffffffffffffffffff828116911614610746576040517f2ef4875e00000000000000000000000000000000000000000000000000000000815273ffffffffffffffffffffffffffffffffffffffff82166004820152602401610ae9565b6000806106e560017fc8827d3282af6f37b64c3e9e6f3ac9df286ab0bb0fccd6f8661bf19adb368b23611ce6565b60008381526020858152604080832073ffffffffffffffffffffffffffffffffffffffff8616845290915290205460ff1661127c5760008381526020858152604080832073ffffffffffffffffffffffffffffffffffffffff8681168086529184529382902080547fffffffffffffffffffffffffffffffffffffffffffffffffffffffffffffff00166001179055815187815292830152918316918101919091527f2f8788117e7eff1d82e926ec794901d17c78024a50270940304540a733656f0d906060015b60405180910390a15b50505050565b61128a61074a565b6004556005544210158061129f575060015415155b156112b0576112ac610c9f565b6002555b73ffffffffffffffffffffffffffffffffffffffff811615610cd4576112d581610654565b73ffffffffffffffffffffffffffffffffffffffff821660009081526007602090815260408083209390935560045460089091529190205550565b6060610d47838361184d565b60008281526020848152604080832073ffffffffffffffffffffffffffffffffffffffff8516845290915290205460ff166107e8576040517f7aa728820000000000000000000000000000000000000000000000000000000081526004810183905273ffffffffffffffffffffffffffffffffffffffff82166024820152604401610ae9565b6113ad83828461131c565b60008181526020848152604080832073ffffffffffffffffffffffffffffffffffffffff86168085529083529281902080547fffffffffffffffffffffffffffffffffffffffffffffffffffffffffffffff0016905580518481529182018390528101919091527ff6391f5c32d9c69d2a47ea670b442974b53935d1edc7fd64eb21e047a839171b9060600160405180910390a1505050565b60008381526020858152604080832073ffffffffffffffffffffffffffffffffffffffff8616845290915290205460ff161561127c5760008381526020858152604080832073ffffffffffffffffffffffffffffffffffffffff8681168086529184529382902080547fffffffffffffffffffffffffffffffffffffffffffffffffffffffffffffff00169055815187815292830152918316918101919091527ff6391f5c32d9c69d2a47ea670b442974b53935d1edc7fd64eb21e047a839171b90606001611273565b825473ffffffffffffffffffffffffffffffffffffffff908116908316811461157d576040517f2ef4875e00000000000000000000000000000000000000000000000000000000815273ffffffffffffffffffffffffffffffffffffffff84166004820152602401610ae9565b8173ffffffffffffffffffffffffffffffffffffffff168173ffffffffffffffffffffffffffffffffffffffff161461127c5783547fffffffffffffffffffffffff00000000000000000000000000000000000000001673ffffffffffffffffffffffffffffffffffffffff8381169182178655604051908316907f8be0079c531659141344cd1fd0a4f28419497f9722a3daafe3b4186f6b6457e090600090a350505050565b6000333214806116345750601836105b1561163e57503390565b7fffffffffffffffffffffffffffffffffffffffffffffffffffffffffffffffec36013560601c7f000000000000000000000000000000000000000000000000000000000000000073ffffffffffffffffffffffffffffffffffffffff1633148061176057506040517f019a202800000000000000000000000000000000000000000000000000000000815273ffffffffffffffffffffffffffffffffffffffff82811660048301523360248301523060448301527f0000000000000000000000000000000000000000000000000000000000000000169063019a202890606401602060405180830381865afa15801561173c573d6000803e3d6000fd5b505050506040513d601f19601f820116820180604052508101906117609190611e93565b1561176a57919050565b3391505090565b6000818060200190518101906117879190611eae565b90506106e573ffffffffffffffffffffffffffffffffffffffff7f0000000000000000000000000000000000000000000000000000000000000000168483611965565b6000806000838060200190518101906117e39190611ef6565b91509150808060200190518101906117fb9190611eae565b925081156118455761184573ffffffffffffffffffffffffffffffffffffffff7f0000000000000000000000000000000000000000000000000000000000000000168630866119e6565b505092915050565b60608160405160200161186291815260200190565b604080518083037fffffffffffffffffffffffffffffffffffffffffffffffffffffffffffffffe0018152908290527f26b3293f00000000000000000000000000000000000000000000000000000000825273ffffffffffffffffffffffffffffffffffffffff8581166004840152602483018590527f000000000000000000000000000000000000000000000000000000000000000060448401529092507f000000000000000000000000000000000000000000000000000000000000000016906326b3293f90606401600060405180830381600087803b15801561194757600080fd5b505af115801561195b573d6000803e3d6000fd5b5050505092915050565b60405173ffffffffffffffffffffffffffffffffffffffff8381166024830152604482018390526107e891859182169063a9059cbb906064015b604051602081830303815290604052915060e01b6020820180517bffffffffffffffffffffffffffffffffffffffffffffffffffffffff8381831617835250505050611a2c565b60405173ffffffffffffffffffffffffffffffffffffffff848116602483015283811660448301526064820183905261127c9186918216906323b872dd9060840161199f565b600080602060008451602086016000885af180611a4f576040513d6000823e3d81fd5b50506000513d91508115611a67578060011415611a81565b73ffffffffffffffffffffffffffffffffffffffff84163b155b1561127c576040517f5274afe700000000000000000000000000000000000000000000000000000000815273ffffffffffffffffffffffffffffffffffffffff85166004820152602401610ae9565b803573ffffffffffffffffffffffffffffffffffffffff81168114611af457600080fd5b919050565b600060208284031215611b0b57600080fd5b610d4782611ad0565b600060208284031215611b2657600080fd5b81357fffffffff0000000000000000000000000000000000000000000000000000000081168114610d4757600080fd5b60008083601f840112611b6857600080fd5b50813567ffffffffffffffff811115611b8057600080fd5b602083019150836020828501011115611b9857600080fd5b9250929050565b60008060208385031215611bb257600080fd5b823567ffffffffffffffff811115611bc957600080fd5b611bd585828601611b56565b90969095509350505050565b60008060408385031215611bf457600080fd5b82359150611c0460208401611ad0565b90509250929050565b600080600080600060808688031215611c2557600080fd5b611c2e86611ad0565b9450611c3c60208701611ad0565b935060408601359250606086013567ffffffffffffffff811115611c5f57600080fd5b611c6b88828901611b56565b969995985093965092949392505050565b60008060408385031215611c8f57600080fd5b50508035926020909101359150565b600060208284031215611cb057600080fd5b5035919050565b7f4e487b7100000000000000000000000000000000000000000000000000000000600052601160045260246000fd5b818103818111156106e5576106e5611cb7565b80820281158282048414176106e5576106e5611cb7565b7f4e487b7100000000000000000000000000000000000000000000000000000000600052601260045260246000fd5b600082611d4e57611d4e611d10565b500490565b808201808211156106e5576106e5611cb7565b831515815260406020820152816040820152818360608301376000818301606090810191909152601f9092017fffffffffffffffffffffffffffffffffffffffffffffffffffffffffffffffe016010192915050565b60005b83811015611dd7578181015183820152602001611dbf565b50506000910152565b60008151808452611df8816020860160208601611dbc565b601f017fffffffffffffffffffffffffffffffffffffffffffffffffffffffffffffffe0169290920160200192915050565b604081526000611e3d6040830185611de0565b90508260208301529392505050565b8215158152604060208201526000611e676040830184611de0565b949350505050565b600082611e7e57611e7e611d10565b500690565b80518015158114611af457600080fd5b600060208284031215611ea557600080fd5b610d4782611e83565b600060208284031215611ec057600080fd5b5051919050565b7f4e487b7100000000000000000000000000000000000000000000000000000000600052604160045260246000fd5b60008060408385031215611f0957600080fd5b611f1283611e83565b9150602083015167ffffffffffffffff811115611f2e57600080fd5b8301601f81018513611f3f57600080fd5b805167ffffffffffffffff811115611f5957611f59611ec7565b6040517fffffffffffffffffffffffffffffffffffffffffffffffffffffffffffffffe0603f7fffffffffffffffffffffffffffffffffffffffffffffffffffffffffffffffe0601f8501160116810181811067ffffffffffffffff82111715611fc557611fc5611ec7565b604052818152828201602001871015611fdd57600080fd5b611fee826020830160208601611dbc565b809350505050925092905056fea26469706673582212202de56733e0a016774578e00ec4aad54036d5efc219eec229f4de98c84023265364736f6c634300081c0033",
  "linkReferences": {},
  "deployedLinkReferences": {}
}