{
  "_format": "hh-sol-artifact-1",
  "contractName": "CheckmateClaimWindowMerkleClaim",
  "sourceName": "contracts/merkleClaim/CheckmateClaimWindowMerkleClaim.sol",
  "abi": [
    {
      "inputs": [
        {
          "internalType": "address",
          "name": "checkmateToken_",
          "type": "address"
        },
        {
          "internalType": "address",
          "name": "stakingPool_",
          "type": "address"
        },
        {
          "internalType": "address",
          "name": "payoutWallet_",
          "type": "address"
        },
        {
          "internalType": "contract IForwarderRegistry",
          "name": "forwarderRegistry_",
          "type": "address"
        }
      ],
      "stateMutability": "nonpayable",
      "type": "constructor"
    },
    {
      "inputs": [
        {
          "internalType": "bytes32",
          "name": "epochId",
          "type": "bytes32"
        },
        {
          "internalType": "bytes32",
          "name": "leaf",
          "type": "bytes32"
        }
      ],
      "name": "AlreadyClaimed",
      "type": "error"
    },
    {
      "inputs": [
        {
          "internalType": "bytes32",
          "name": "epochId",
          "type": "bytes32"
        }
      ],
      "name": "EpochIdAlreadyExists",
      "type": "error"
    },
    {
      "inputs": [
        {
          "internalType": "bytes32",
          "name": "epochId",
          "type": "bytes32"
        }
      ],
      "name": "EpochIdNotExists",
      "type": "error"
    },
    {
      "inputs": [],
      "name": "IllegalInterfaceId",
      "type": "error"
    },
    {
      "inputs": [],
      "name": "InvalidCheckmateToken",
      "type": "error"
    },
    {
      "inputs": [
        {
          "internalType": "uint256",
          "name": "startTime",
          "type": "uint256"
        },
        {
          "internalType": "uint256",
          "name": "endTime",
          "type": "uint256"
        },
        {
          "internalType": "uint256",
          "name": "currentTime",
          "type": "uint256"
        }
      ],
      "name": "InvalidClaimWindow",
      "type": "error"
    },
    {
      "inputs": [],
      "name": "InvalidMerkleRoot",
      "type": "error"
    },
    {
      "inputs": [],
      "name": "InvalidPayoutWallet",
      "type": "error"
    },
    {
      "inputs": [
        {
          "internalType": "bytes32",
          "name": "epochId",
          "type": "bytes32"
        },
        {
          "internalType": "address",
          "name": "recipient",
          "type": "address"
        },
        {
          "internalType": "uint256",
          "name": "amount",
          "type": "uint256"
        }
      ],
      "name": "InvalidProof",
      "type": "error"
    },
    {
      "inputs": [],
      "name": "InvalidStakingPool",
      "type": "error"
    },
    {
      "inputs": [
        {
          "internalType": "address",
          "name": "account",
          "type": "address"
        }
      ],
      "name": "NotContractOwner",
      "type": "error"
    },
    {
      "inputs": [
        {
          "internalType": "bytes32",
          "name": "epochId",
          "type": "bytes32"
        },
        {
          "internalType": "uint256",
          "name": "currentTime",
          "type": "uint256"
        }
      ],
      "name": "OutOfClaimWindow",
      "type": "error"
    },
    {
      "inputs": [
        {
          "internalType": "address",
          "name": "payoutWallet",
          "type": "address"
        },
        {
          "internalType": "address",
          "name": "recipient",
          "type": "address"
        },
        {
          "internalType": "uint256",
          "name": "amount",
          "type": "uint256"
        }
      ],
      "name": "TransferFailed",
      "type": "error"
    },
    {
      "anonymous": false,
      "inputs": [
        {
          "indexed": true,
          "internalType": "bytes32",
          "name": "epochId",
          "type": "bytes32"
        },
        {
          "indexed": true,
          "internalType": "bytes32",
          "name": "merkleRoot",
          "type": "bytes32"
        },
        {
          "indexed": false,
          "internalType": "uint256",
          "name": "startTime",
          "type": "uint256"
        },
        {
          "indexed": true,
          "internalType": "uint256",
          "name": "endTime",
          "type": "uint256"
        }
      ],
      "name": "EpochMerkleRootSet",
      "type": "event"
    },
    {
      "anonymous": false,
      "inputs": [
        {
          "indexed": true,
          "internalType": "address",
          "name": "previousOwner",
          "type": "address"
        },
        {
          "indexed": true,
          "internalType": "address",
          "name": "newOwner",
          "type": "address"
        }
      ],
      "name": "OwnershipTransferred",
      "type": "event"
    },
    {
      "anonymous": false,
      "inputs": [
        {
          "indexed": true,
          "internalType": "bytes32",
          "name": "epochId",
          "type": "bytes32"
        },
        {
          "indexed": true,
          "internalType": "address",
          "name": "recipient",
          "type": "address"
        },
        {
          "indexed": true,
          "internalType": "uint256",
          "name": "amount",
          "type": "uint256"
        }
      ],
      "name": "PayoutClaimed",
      "type": "event"
    },
    {
      "anonymous": false,
      "inputs": [
        {
          "indexed": true,
          "internalType": "address",
          "name": "newPayoutWallet",
          "type": "address"
        }
      ],
      "name": "PayoutWalletSet",
      "type": "event"
    },
    {
      "inputs": [],
      "name": "CHECKMATE_TOKEN",
      "outputs": [
        {
          "internalType": "contract IERC20SafeTransfers",
          "name": "",
          "type": "address"
        }
      ],
      "stateMutability": "view",
      "type": "function"
    },
    {
      "inputs": [],
      "name": "STAKING_POOL",
      "outputs": [
        {
          "internalType": "address",
          "name": "",
          "type": "address"
        }
      ],
      "stateMutability": "view",
      "type": "function"
    },
    {
      "inputs": [
        {
          "internalType": "bytes32",
          "name": "epochId",
          "type": "bytes32"
        },
        {
          "internalType": "address",
          "name": "recipient",
          "type": "address"
        },
        {
          "internalType": "uint256",
          "name": "amount",
          "type": "uint256"
        }
      ],
      "name": "canClaim",
      "outputs": [
        {
          "internalType": "enum CheckmateClaimWindowMerkleClaim.ClaimError",
          "name": "",
          "type": "uint8"
        }
      ],
      "stateMutability": "view",
      "type": "function"
    },
    {
      "inputs": [
        {
          "internalType": "bytes32",
          "name": "epochId",
          "type": "bytes32"
        },
        {
          "internalType": "address",
          "name": "recipient",
          "type": "address"
        },
        {
          "internalType": "uint256",
          "name": "amount",
          "type": "uint256"
        },
        {
          "internalType": "bytes32[]",
          "name": "proof",
          "type": "bytes32[]"
        }
      ],
      "name": "claimAndStake",
      "outputs": [],
      "stateMutability": "nonpayable",
      "type": "function"
    },
    {
      "inputs": [
        {
          "internalType": "bytes32",
          "name": "epochId",
          "type": "bytes32"
        }
      ],
      "name": "claimWindows",
      "outputs": [
        {
          "internalType": "bytes32",
          "name": "merkleRoot",
          "type": "bytes32"
        },
        {
          "internalType": "uint256",
          "name": "startTime",
          "type": "uint256"
        },
        {
          "internalType": "uint256",
          "name": "endTime",
          "type": "uint256"
        }
      ],
      "stateMutability": "view",
      "type": "function"
    },
    {
      "inputs": [
        {
          "internalType": "bytes32",
          "name": "leaf",
          "type": "bytes32"
        }
      ],
      "name": "claimed",
      "outputs": [
        {
          "internalType": "bool",
          "name": "claimed",
          "type": "bool"
        }
      ],
      "stateMutability": "view",
      "type": "function"
    },
    {
      "inputs": [],
      "name": "forwarderRegistry",
      "outputs": [
        {
          "internalType": "contract IForwarderRegistry",
          "name": "",
          "type": "address"
        }
      ],
      "stateMutability": "view",
      "type": "function"
    },
    {
      "inputs": [
        {
          "internalType": "address",
          "name": "forwarder",
          "type": "address"
        }
      ],
      "name": "isTrustedForwarder",
      "outputs": [
        {
          "internalType": "bool",
          "name": "",
          "type": "bool"
        }
      ],
      "stateMutability": "view",
      "type": "function"
    },
    {
      "inputs": [],
      "name": "owner",
      "outputs": [
        {
          "internalType": "address",
          "name": "",
          "type": "address"
        }
      ],
      "stateMutability": "view",
      "type": "function"
    },
    {
      "inputs": [],
      "name": "payoutWallet",
      "outputs": [
        {
          "internalType": "address",
          "name": "",
          "type": "address"
        }
      ],
      "stateMutability": "view",
      "type": "function"
    },
    {
      "inputs": [
        {
          "internalType": "bytes32",
          "name": "epochId",
          "type": "bytes32"
        },
        {
          "internalType": "bytes32",
          "name": "merkleRoot",
          "type": "bytes32"
        },
        {
          "internalType": "uint256",
          "name": "startTime",
          "type": "uint256"
        },
        {
          "internalType": "uint256",
          "name": "endTime",
          "type": "uint256"
        }
      ],
      "name": "setEpochMerkleRoot",
      "outputs": [],
      "stateMutability": "nonpayable",
      "type": "function"
    },
    {
      "inputs": [
        {
          "internalType": "address",
          "name": "newPayoutWallet",
          "type": "address"
        }
      ],
      "name": "setPayoutWallet",
      "outputs": [],
      "stateMutability": "nonpayable",
      "type": "function"
    },
    {
      "inputs": [
        {
          "internalType": "bytes4",
          "name": "interfaceId",
          "type": "bytes4"
        }
      ],
      "name": "supportsInterface",
      "outputs": [
        {
          "internalType": "bool",
          "name": "",
          "type": "bool"
        }
      ],
      "stateMutability": "view",
      "type": "function"
    },
    {
      "inputs": [
        {
          "internalType": "address",
          "name": "newOwner",
          "type": "address"
        }
      ],
      "name": "transferOwnership",
      "outputs": [],
      "stateMutability": "nonpayable",
      "type": "function"
    }
  ],
  "bytecode": "0x60e060405234801561001057600080fd5b5060405161150b38038061150b83398101604081905261002f91610240565b6001600160a01b0381166080523361004f816100496100f4565b90610128565b506001600160a01b03841661007757604051630338889560e21b815260040160405180910390fd5b6001600160a01b03831661009e57604051633b106f8560e01b815260040160405180910390fd5b6001600160a01b0382166100c55760405163620e5f7160e11b815260040160405180910390fd5b506001600160a01b0392831660a05290821660c052600080546001600160a01b031916919092161790556102c0565b60008061012260017fc9ed16f33ab3a66c84bfd83099ccb2a8845871e2e1c1928f63797152f0fd54cd61029f565b92915050565b6001600160a01b0381161561017e5781546001600160a01b0319166001600160a01b03821690811783556040516000907f8be0079c531659141344cd1fd0a4f28419497f9722a3daafe3b4186f6b6457e0908290a35b61019a6307f5828d60e41b600161019361019e565b91906101cc565b5050565b60008061012260017fca9d3e17f264b0f3984e2634e94adb37fa3e6a8103f06aeae6fa59e21c769f5e61029f565b600160e01b6001600160e01b03198316016101fa576040516372c683bb60e01b815260040160405180910390fd5b6001600160e01b03199190911660009081526020929092526040909120805460ff1916911515919091179055565b6001600160a01b038116811461023d57600080fd5b50565b6000806000806080858703121561025657600080fd5b845161026181610228565b602086015190945061027281610228565b604086015190935061028381610228565b606086015190925061029481610228565b939692955090935050565b8181038181111561012257634e487b7160e01b600052601160045260246000fd5b60805160a05160c0516111f961031260003960008181610131015261072b01526000818161020301526106fa01526000818161017a015281816101c101528181610cfd0152610d8b01526111f96000f3fe608060405234801561001057600080fd5b50600436106100ea5760003560e01c80636b8f9c431161008c578063cc3c0f0611610066578063cc3c0f0614610260578063d6a3138b14610283578063dc45def6146102a3578063f2fde38b146102ec57600080fd5b80636b8f9c43146102255780638488bb4e146102385780638da5cb5b1461025857600080fd5b80632b4c9f16116100c85780632b4c9f1614610178578063563cac281461019e578063572b6c05146101b1578063592c75b8146101fe57600080fd5b806301ffc9a7146100ef5780630328a8fc1461011757806314ae36ae1461012c575b600080fd5b6101026100fd366004610e7b565b6102ff565b60405190151581526020015b60405180910390f35b61012a610125366004610ebd565b610319565b005b6101537f000000000000000000000000000000000000000000000000000000000000000081565b60405173ffffffffffffffffffffffffffffffffffffffff909116815260200161010e565b7f0000000000000000000000000000000000000000000000000000000000000000610153565b61012a6101ac366004610f18565b61048e565b6101026101bf366004610fb1565b7f000000000000000000000000000000000000000000000000000000000000000073ffffffffffffffffffffffffffffffffffffffff90811691161490565b6101537f000000000000000000000000000000000000000000000000000000000000000081565b61012a610233366004610fb1565b610849565b6000546101539073ffffffffffffffffffffffffffffffffffffffff1681565b6101536108c1565b61010261026e366004610fcc565b60026020526000908152604090205460ff1681565b610296610291366004610fe5565b6108ed565b60405161010e919061104a565b6102d16102b1366004610fcc565b600160208190526000918252604090912080549181015460029091015483565b6040805193845260208401929092529082015260600161010e565b61012a6102fa366004610fb1565b610965565b60006103138261030d610983565b906109b1565b92915050565b610332610324610a8b565b61032c610a95565b90610ac3565b82610369576040517f9dd854d300000000000000000000000000000000000000000000000000000000815260040160405180910390fd5b80821015806103785750428111155b156103c4576040517f790c7cef00000000000000000000000000000000000000000000000000000000815260048101839052602481018290524260448201526064015b60405180910390fd5b6000848152600160205260409020541561040d576040517fed10979d000000000000000000000000000000000000000000000000000000008152600481018590526024016103bb565b60408051606081018252848152602080820185815282840185815260008981526001938490528590209351845590519183019190915551600290910155518190849086907f97df4a2fb6656595bc6eb616c2068e9d50031428ef69d8849590bc9f3dec620b906104809087815260200190565b60405180910390a450505050565b604080516020808201889052606087901b7fffffffffffffffffffffffffffffffffffffffff00000000000000000000000016828401526054808301879052835180840390910181526074909201835281519181019190912060008881526001909252918120906104ff8284610b32565b905060018160038111156105155761051561101b565b0361054f576040517f84f229dc000000000000000000000000000000000000000000000000000000008152600481018990526024016103bb565b60028160038111156105635761056361101b565b036105a3576040517fdbeb4f4d000000000000000000000000000000000000000000000000000000008152600481018990524260248201526044016103bb565b60038160038111156105b7576105b761101b565b036105f8576040517fdc20789f00000000000000000000000000000000000000000000000000000000815260048101899052602481018490526044016103bb565b8154610608908690869086610b8d565b610664576040517fcc55900d0000000000000000000000000000000000000000000000000000000081526004810189905273ffffffffffffffffffffffffffffffffffffffff88166024820152604481018790526064016103bb565b600083815260026020908152604080832080547fffffffffffffffffffffffffffffffffffffffffffffffffffffffffffffff001660011790558254815173ffffffffffffffffffffffffffffffffffffffff8c81168286015283518083039095018552818401938490527fb88d4fde0000000000000000000000000000000000000000000000000000000090935290821693927f00000000000000000000000000000000000000000000000000000000000000009092169163b88d4fde916107559186917f0000000000000000000000000000000000000000000000000000000000000000918e9160440161108b565b6020604051808303816000875af1158015610774573d6000803e3d6000fd5b505050506040513d601f19601f820116820180604052508101906107989190611138565b9050806107f8576040517fbf182be800000000000000000000000000000000000000000000000000000000815273ffffffffffffffffffffffffffffffffffffffff80841660048301528a166024820152604481018990526064016103bb565b878973ffffffffffffffffffffffffffffffffffffffff168b7f038b0cdf6318f158304d2b2f11b821333b4e69a21d83e945b6a741e1bbfc234b60405160405180910390a450505050505050505050565b610854610324610a8b565b600080547fffffffffffffffffffffffff00000000000000000000000000000000000000001673ffffffffffffffffffffffffffffffffffffffff8316908117825560405190917fdd880d24a789958a6398c99c2e54ce31bc10a638cbc42f7dd34285479ae0f85591a250565b60006108e86108ce610a95565b5473ffffffffffffffffffffffffffffffffffffffff1690565b905090565b600083815260016020908152604080832081519283018790527fffffffffffffffffffffffffffffffffffffffff000000000000000000000000606087901b16918301919091526054820184905261095d9160740160405160208183030381529060405280519060200120610b32565b949350505050565b610980610970610a8b565b82610979610a95565b9190610ba5565b50565b60008061031360017fca9d3e17f264b0f3984e2634e94adb37fa3e6a8103f06aeae6fa59e21c769f5e61115a565b60007c01000000000000000000000000000000000000000000000000000000007fffffffff00000000000000000000000000000000000000000000000000000000831601610a0157506000610313565b7ffe003659000000000000000000000000000000000000000000000000000000007fffffffff00000000000000000000000000000000000000000000000000000000831601610a5257506001610313565b507fffffffff00000000000000000000000000000000000000000000000000000000166000908152602091909152604090205460ff1690565b60006108e8610cba565b60008061031360017fc9ed16f33ab3a66c84bfd83099ccb2a8845871e2e1c1928f63797152f0fd54cd61115a565b815473ffffffffffffffffffffffffffffffffffffffff828116911614610b2e576040517f2ef4875e00000000000000000000000000000000000000000000000000000000815273ffffffffffffffffffffffffffffffffffffffff821660048201526024016103bb565b5050565b8154600090610b4357506001610313565b8260010154421080610b585750826002015442115b15610b6557506002610313565b60008281526002602052604090205460ff1615610b8457506003610313565b50600092915050565b600082610b9b868685610e07565b1495945050505050565b825473ffffffffffffffffffffffffffffffffffffffff9081169083168114610c12576040517f2ef4875e00000000000000000000000000000000000000000000000000000000815273ffffffffffffffffffffffffffffffffffffffff841660048201526024016103bb565b8173ffffffffffffffffffffffffffffffffffffffff168173ffffffffffffffffffffffffffffffffffffffff1614610cb45783547fffffffffffffffffffffffff00000000000000000000000000000000000000001673ffffffffffffffffffffffffffffffffffffffff8381169182178655604051908316907f8be0079c531659141344cd1fd0a4f28419497f9722a3daafe3b4186f6b6457e090600090a35b50505050565b600033321480610cca5750601836105b15610cd457503390565b7fffffffffffffffffffffffffffffffffffffffffffffffffffffffffffffffec36013560601c7f000000000000000000000000000000000000000000000000000000000000000073ffffffffffffffffffffffffffffffffffffffff16331480610df657506040517f019a202800000000000000000000000000000000000000000000000000000000815273ffffffffffffffffffffffffffffffffffffffff82811660048301523360248301523060448301527f0000000000000000000000000000000000000000000000000000000000000000169063019a202890606401602060405180830381865afa158015610dd2573d6000803e3d6000fd5b505050506040513d601f19601f82011682018060405250810190610df69190611138565b15610e0057919050565b3391505090565b600081815b84811015610e4057610e3682878784818110610e2a57610e2a611194565b90506020020135610e49565b9150600101610e0c565b50949350505050565b6000818310610e65576000828152602084905260409020610e74565b60008381526020839052604090205b9392505050565b600060208284031215610e8d57600080fd5b81357fffffffff0000000000000000000000000000000000000000000000000000000081168114610e7457600080fd5b60008060008060808587031215610ed357600080fd5b5050823594602084013594506040840135936060013592509050565b803573ffffffffffffffffffffffffffffffffffffffff81168114610f1357600080fd5b919050565b600080600080600060808688031215610f3057600080fd5b85359450610f4060208701610eef565b935060408601359250606086013567ffffffffffffffff811115610f6357600080fd5b8601601f81018813610f7457600080fd5b803567ffffffffffffffff811115610f8b57600080fd5b8860208260051b8401011115610fa057600080fd5b959894975092955050506020019190565b600060208284031215610fc357600080fd5b610e7482610eef565b600060208284031215610fde57600080fd5b5035919050565b600080600060608486031215610ffa57600080fd5b8335925061100a60208501610eef565b929592945050506040919091013590565b7f4e487b7100000000000000000000000000000000000000000000000000000000600052602160045260246000fd5b6020810160048310611085577f4e487b7100000000000000000000000000000000000000000000000000000000600052602160045260246000fd5b91905290565b73ffffffffffffffffffffffffffffffffffffffff8516815273ffffffffffffffffffffffffffffffffffffffff84166020820152826040820152608060608201526000825180608084015260005b818110156110f757602081860181015160a08684010152016110da565b50600060a0828501015260a07fffffffffffffffffffffffffffffffffffffffffffffffffffffffffffffffe0601f83011684010191505095945050505050565b60006020828403121561114a57600080fd5b81518015158114610e7457600080fd5b81810381811115610313577f4e487b7100000000000000000000000000000000000000000000000000000000600052601160045260246000fd5b7f4e487b7100000000000000000000000000000000000000000000000000000000600052603260045260246000fdfea26469706673582212202eb36c9911ee1676f5a5d8b35762bdf01e269dd64d98697e39062ea3e901c10f64736f6c634300081c0033",
  "linkReferences": {},
  "deployedLinkReferences": {}
}