{
  "_format": "hh-sol-artifact-1",
  "contractName": "CheckmateClaimWindowMerkleClaim",
  "sourceName": "contracts/merkleClaim/CheckmateClaimWindowMerkleClaim.sol",
  "abi": [
    {
      "inputs": [
        {
          "internalType": "address",
          "name": "checkmateToken_",
          "type": "address"
        },
        {
          "internalType": "address",
          "name": "stakingPool_",
          "type": "address"
        },
        {
          "internalType": "address payable",
          "name": "payoutWallet_",
          "type": "address"
        },
        {
          "internalType": "contract IForwarderRegistry",
          "name": "forwarderRegistry_",
          "type": "address"
        }
      ],
      "stateMutability": "nonpayable",
      "type": "constructor"
    },
    {
      "inputs": [
        {
          "internalType": "bytes32",
          "name": "epochId",
          "type": "bytes32"
        },
        {
          "internalType": "bytes32",
          "name": "leaf",
          "type": "bytes32"
        }
      ],
      "name": "AlreadyClaimed",
      "type": "error"
    },
    {
      "inputs": [
        {
          "internalType": "bytes32",
          "name": "epochId",
          "type": "bytes32"
        }
      ],
      "name": "EpochIdAlreadyExists",
      "type": "error"
    },
    {
      "inputs": [
        {
          "internalType": "bytes32",
          "name": "epochId",
          "type": "bytes32"
        }
      ],
      "name": "EpochIdNotExists",
      "type": "error"
    },
    {
      "inputs": [],
      "name": "IllegalInterfaceId",
      "type": "error"
    },
    {
      "inputs": [],
      "name": "InvalidCheckmateToken",
      "type": "error"
    },
    {
      "inputs": [
        {
          "internalType": "uint256",
          "name": "startTime",
          "type": "uint256"
        },
        {
          "internalType": "uint256",
          "name": "endTime",
          "type": "uint256"
        },
        {
          "internalType": "uint256",
          "name": "currentTime",
          "type": "uint256"
        }
      ],
      "name": "InvalidClaimWindow",
      "type": "error"
    },
    {
      "inputs": [],
      "name": "InvalidMerkleRoot",
      "type": "error"
    },
    {
      "inputs": [
        {
          "internalType": "bytes32",
          "name": "epochId",
          "type": "bytes32"
        },
        {
          "internalType": "address",
          "name": "recipient",
          "type": "address"
        },
        {
          "internalType": "uint256",
          "name": "amount",
          "type": "uint256"
        }
      ],
      "name": "InvalidProof",
      "type": "error"
    },
    {
      "inputs": [],
      "name": "InvalidStakingPool",
      "type": "error"
    },
    {
      "inputs": [
        {
          "internalType": "address",
          "name": "account",
          "type": "address"
        }
      ],
      "name": "NotContractOwner",
      "type": "error"
    },
    {
      "inputs": [
        {
          "internalType": "bytes32",
          "name": "epochId",
          "type": "bytes32"
        },
        {
          "internalType": "uint256",
          "name": "currentTime",
          "type": "uint256"
        }
      ],
      "name": "OutOfClaimWindow",
      "type": "error"
    },
    {
      "inputs": [
        {
          "internalType": "address",
          "name": "payoutWallet",
          "type": "address"
        },
        {
          "internalType": "address",
          "name": "recipient",
          "type": "address"
        },
        {
          "internalType": "uint256",
          "name": "amount",
          "type": "uint256"
        }
      ],
      "name": "TransferFailed",
      "type": "error"
    },
    {
      "inputs": [],
      "name": "ZeroAddressPayoutWallet",
      "type": "error"
    },
    {
      "anonymous": false,
      "inputs": [
        {
          "indexed": true,
          "internalType": "bytes32",
          "name": "epochId",
          "type": "bytes32"
        },
        {
          "indexed": true,
          "internalType": "bytes32",
          "name": "merkleRoot",
          "type": "bytes32"
        },
        {
          "indexed": false,
          "internalType": "uint256",
          "name": "startTime",
          "type": "uint256"
        },
        {
          "indexed": true,
          "internalType": "uint256",
          "name": "endTime",
          "type": "uint256"
        }
      ],
      "name": "EpochMerkleRootSet",
      "type": "event"
    },
    {
      "anonymous": false,
      "inputs": [
        {
          "indexed": true,
          "internalType": "address",
          "name": "previousOwner",
          "type": "address"
        },
        {
          "indexed": true,
          "internalType": "address",
          "name": "newOwner",
          "type": "address"
        }
      ],
      "name": "OwnershipTransferred",
      "type": "event"
    },
    {
      "anonymous": false,
      "inputs": [
        {
          "indexed": true,
          "internalType": "bytes32",
          "name": "epochId",
          "type": "bytes32"
        },
        {
          "indexed": true,
          "internalType": "bytes32",
          "name": "root",
          "type": "bytes32"
        },
        {
          "indexed": true,
          "internalType": "address",
          "name": "recipient",
          "type": "address"
        },
        {
          "indexed": false,
          "internalType": "uint256",
          "name": "amount",
          "type": "uint256"
        }
      ],
      "name": "PayoutClaimed",
      "type": "event"
    },
    {
      "anonymous": false,
      "inputs": [
        {
          "indexed": false,
          "internalType": "address",
          "name": "payoutWallet",
          "type": "address"
        }
      ],
      "name": "PayoutWalletSet",
      "type": "event"
    },
    {
      "inputs": [],
      "name": "CHECKMATE_TOKEN",
      "outputs": [
        {
          "internalType": "contract IERC20SafeTransfers",
          "name": "",
          "type": "address"
        }
      ],
      "stateMutability": "view",
      "type": "function"
    },
    {
      "inputs": [],
      "name": "STAKING_POOL",
      "outputs": [
        {
          "internalType": "address",
          "name": "",
          "type": "address"
        }
      ],
      "stateMutability": "view",
      "type": "function"
    },
    {
      "inputs": [
        {
          "internalType": "bytes32",
          "name": "epochId",
          "type": "bytes32"
        },
        {
          "internalType": "address",
          "name": "recipient",
          "type": "address"
        },
        {
          "internalType": "uint256",
          "name": "amount",
          "type": "uint256"
        }
      ],
      "name": "canClaim",
      "outputs": [
        {
          "internalType": "enum CheckmateClaimWindowMerkleClaim.ClaimError",
          "name": "",
          "type": "uint8"
        }
      ],
      "stateMutability": "view",
      "type": "function"
    },
    {
      "inputs": [
        {
          "internalType": "bytes32",
          "name": "epochId",
          "type": "bytes32"
        },
        {
          "internalType": "address",
          "name": "recipient",
          "type": "address"
        },
        {
          "internalType": "uint256",
          "name": "amount",
          "type": "uint256"
        },
        {
          "internalType": "bytes32[]",
          "name": "proof",
          "type": "bytes32[]"
        }
      ],
      "name": "claimAndStake",
      "outputs": [],
      "stateMutability": "nonpayable",
      "type": "function"
    },
    {
      "inputs": [
        {
          "internalType": "bytes32",
          "name": "epochId",
          "type": "bytes32"
        }
      ],
      "name": "claimWindows",
      "outputs": [
        {
          "internalType": "bytes32",
          "name": "merkleRoot",
          "type": "bytes32"
        },
        {
          "internalType": "uint256",
          "name": "startTime",
          "type": "uint256"
        },
        {
          "internalType": "uint256",
          "name": "endTime",
          "type": "uint256"
        }
      ],
      "stateMutability": "view",
      "type": "function"
    },
    {
      "inputs": [
        {
          "internalType": "bytes32",
          "name": "leaf",
          "type": "bytes32"
        }
      ],
      "name": "claimed",
      "outputs": [
        {
          "internalType": "bool",
          "name": "claimed",
          "type": "bool"
        }
      ],
      "stateMutability": "view",
      "type": "function"
    },
    {
      "inputs": [],
      "name": "forwarderRegistry",
      "outputs": [
        {
          "internalType": "contract IForwarderRegistry",
          "name": "",
          "type": "address"
        }
      ],
      "stateMutability": "view",
      "type": "function"
    },
    {
      "inputs": [
        {
          "internalType": "address",
          "name": "forwarder",
          "type": "address"
        }
      ],
      "name": "isTrustedForwarder",
      "outputs": [
        {
          "internalType": "bool",
          "name": "",
          "type": "bool"
        }
      ],
      "stateMutability": "view",
      "type": "function"
    },
    {
      "inputs": [],
      "name": "owner",
      "outputs": [
        {
          "internalType": "address",
          "name": "",
          "type": "address"
        }
      ],
      "stateMutability": "view",
      "type": "function"
    },
    {
      "inputs": [],
      "name": "payoutWallet",
      "outputs": [
        {
          "internalType": "address payable",
          "name": "wallet",
          "type": "address"
        }
      ],
      "stateMutability": "view",
      "type": "function"
    },
    {
      "inputs": [
        {
          "internalType": "bytes32",
          "name": "epochId",
          "type": "bytes32"
        },
        {
          "internalType": "bytes32",
          "name": "merkleRoot",
          "type": "bytes32"
        },
        {
          "internalType": "uint256",
          "name": "startTime",
          "type": "uint256"
        },
        {
          "internalType": "uint256",
          "name": "endTime",
          "type": "uint256"
        }
      ],
      "name": "setEpochMerkleRoot",
      "outputs": [],
      "stateMutability": "nonpayable",
      "type": "function"
    },
    {
      "inputs": [
        {
          "internalType": "address payable",
          "name": "newPayoutWallet",
          "type": "address"
        }
      ],
      "name": "setPayoutWallet",
      "outputs": [],
      "stateMutability": "nonpayable",
      "type": "function"
    },
    {
      "inputs": [
        {
          "internalType": "bytes4",
          "name": "interfaceId",
          "type": "bytes4"
        }
      ],
      "name": "supportsInterface",
      "outputs": [
        {
          "internalType": "bool",
          "name": "",
          "type": "bool"
        }
      ],
      "stateMutability": "view",
      "type": "function"
    },
    {
      "inputs": [
        {
          "internalType": "address",
          "name": "newOwner",
          "type": "address"
        }
      ],
      "name": "transferOwnership",
      "outputs": [],
      "stateMutability": "nonpayable",
      "type": "function"
    }
  ],
  "bytecode": "0x60e060405234801561001057600080fd5b5060405161163238038061163283398101604081905261002f916102c5565b808083336100458161003f6100c8565b906100fc565b5061005881610052610172565b906101a0565b506001600160a01b039081166080528516905061008857604051630338889560e21b815260040160405180910390fd5b6001600160a01b0383166100af57604051633b106f8560e01b815260040160405180910390fd5b50506001600160a01b0391821660a0521660c052610345565b6000806100f660017fc9ed16f33ab3a66c84bfd83099ccb2a8845871e2e1c1928f63797152f0fd54cd610324565b92915050565b6001600160a01b038116156101525781546001600160a01b0319166001600160a01b03821690811783556040516000907f8be0079c531659141344cd1fd0a4f28419497f9722a3daafe3b4186f6b6457e0908290a35b61016e6307f5828d60e41b60016101676101aa565b91906101d8565b5050565b6000806100f660017f4fb5f8cdfbce77f22b0931a39e9f476a60a0f66524b2f379e96485471eb700ae610324565b61016e8282610234565b6000806100f660017fca9d3e17f264b0f3984e2634e94adb37fa3e6a8103f06aeae6fa59e21c769f5e610324565b600160e01b6001600160e01b0319831601610206576040516372c683bb60e01b815260040160405180910390fd5b6001600160e01b03199190911660009081526020929092526040909120805460ff1916911515919091179055565b6001600160a01b03811661025b576040516340b539cf60e01b815260040160405180910390fd5b81546001600160a01b0319166001600160a01b03821690811783556040519081527fdd880d24a789958a6398c99c2e54ce31bc10a638cbc42f7dd34285479ae0f8559060200160405180910390a15050565b6001600160a01b03811681146102c257600080fd5b50565b600080600080608085870312156102db57600080fd5b84516102e6816102ad565b60208601519094506102f7816102ad565b6040860151909350610308816102ad565b6060860151909250610319816102ad565b939692955090935050565b818103818111156100f657634e487b7160e01b600052601160045260246000fd5b60805160a05160c05161129b6103976000396000818161013101526106e701526000818161020301526106aa01526000818161017a015281816101c101528181610da00152610e2e015261129b6000f3fe608060405234801561001057600080fd5b50600436106100ea5760003560e01c80636b8f9c431161008c578063cc3c0f0611610066578063cc3c0f0614610248578063d6a3138b1461026b578063dc45def61461028b578063f2fde38b146102d557600080fd5b80636b8f9c43146102255780638488bb4e146102385780638da5cb5b1461024057600080fd5b80632b4c9f16116100c85780632b4c9f1614610178578063563cac281461019e578063572b6c05146101b1578063592c75b8146101fe57600080fd5b806301ffc9a7146100ef5780630328a8fc1461011757806314ae36ae1461012c575b600080fd5b6101026100fd366004610f1e565b6102e8565b60405190151581526020015b60405180910390f35b61012a610125366004610f60565b610302565b005b6101537f000000000000000000000000000000000000000000000000000000000000000081565b60405173ffffffffffffffffffffffffffffffffffffffff909116815260200161010e565b7f0000000000000000000000000000000000000000000000000000000000000000610153565b61012a6101ac366004610fb4565b610473565b6101026101bf36600461104f565b7f000000000000000000000000000000000000000000000000000000000000000073ffffffffffffffffffffffffffffffffffffffff90811691161490565b6101537f000000000000000000000000000000000000000000000000000000000000000081565b61012a61023336600461104f565b610864565b610153610884565b610153610896565b61010261025636600461106c565b60016020526000908152604090205460ff1681565b61027e610279366004611085565b6108a3565b60405161010e91906110ec565b6102ba61029936600461106c565b60006020819052908152604090208054600182015460029092015490919083565b6040805193845260208401929092529082015260600161010e565b61012a6102e336600461104f565b610919565b60006102fc826102f6610934565b90610962565b92915050565b61031b61030d610a3c565b610315610a46565b90610a74565b82610352576040517f9dd854d300000000000000000000000000000000000000000000000000000000815260040160405180910390fd5b80821015806103615750428111155b156103ad576040517f790c7cef00000000000000000000000000000000000000000000000000000000815260048101839052602481018290524260448201526064015b60405180910390fd5b600084815260208190526040902054156103f6576040517fed10979d000000000000000000000000000000000000000000000000000000008152600481018590526024016103a4565b604080516060810182528481526020808201858152828401858152600089815292839052918490209251835551600183015551600290910155518190849086907f97df4a2fb6656595bc6eb616c2068e9d50031428ef69d8849590bc9f3dec620b906104659087815260200190565b60405180910390a450505050565b604080516020808201889052606087901b7fffffffffffffffffffffffffffffffffffffffff000000000000000000000000168284015260548083018790528351808403909101815260749092018352815191810191909120600088815291829052918120906104e38284610ae3565b905060018160038111156104f9576104f96110bd565b03610533576040517f84f229dc000000000000000000000000000000000000000000000000000000008152600481018990526024016103a4565b6002816003811115610547576105476110bd565b03610587576040517fdbeb4f4d000000000000000000000000000000000000000000000000000000008152600481018990524260248201526044016103a4565b600381600381111561059b5761059b6110bd565b036105dc576040517fdc20789f00000000000000000000000000000000000000000000000000000000815260048101899052602481018490526044016103a4565b81546105ea86868387610b3e565b610646576040517fcc55900d000000000000000000000000000000000000000000000000000000008152600481018a905273ffffffffffffffffffffffffffffffffffffffff89166024820152604481018890526064016103a4565b6000848152600160208190526040822080547fffffffffffffffffffffffffffffffffffffffffffffffffffffffffffffff001690911790556106a461068a610b56565b5473ffffffffffffffffffffffffffffffffffffffff1690565b905060007f000000000000000000000000000000000000000000000000000000000000000073ffffffffffffffffffffffffffffffffffffffff1663b88d4fde837f00000000000000000000000000000000000000000000000000000000000000008c8e604051602001610734919073ffffffffffffffffffffffffffffffffffffffff91909116815260200190565b6040516020818303038152906040526040518563ffffffff1660e01b8152600401610762949392919061112d565b6020604051808303816000875af1158015610781573d6000803e3d6000fd5b505050506040513d601f19601f820116820180604052508101906107a591906111da565b905080610805576040517fbf182be800000000000000000000000000000000000000000000000000000000815273ffffffffffffffffffffffffffffffffffffffff80841660048301528b166024820152604481018a90526064016103a4565b8973ffffffffffffffffffffffffffffffffffffffff16838c7f06da15703c9baa6922f6a2f40fe90a03f70a24b9113edd75f913454a45d996cd8c60405161084f91815260200190565b60405180910390a45050505050505050505050565b61086f61030d610a3c565b6108818161087b610b56565b90610b84565b50565b600061089161068a610b56565b905090565b600061089161068a610a46565b60008381526020818152604080832081519283018790527fffffffffffffffffffffffffffffffffffffffff000000000000000000000000606087901b1691830191909152605482018490526109119160740160405160208183030381529060405280519060200120610ae3565b949350505050565b610881610924610a3c565b8261092d610a46565b9190610c48565b6000806102fc60017fca9d3e17f264b0f3984e2634e94adb37fa3e6a8103f06aeae6fa59e21c769f5e6111fc565b60007c01000000000000000000000000000000000000000000000000000000007fffffffff000000000000000000000000000000000000000000000000000000008316016109b2575060006102fc565b7ffe003659000000000000000000000000000000000000000000000000000000007fffffffff00000000000000000000000000000000000000000000000000000000831601610a03575060016102fc565b507fffffffff00000000000000000000000000000000000000000000000000000000166000908152602091909152604090205460ff1690565b6000610891610d5d565b6000806102fc60017fc9ed16f33ab3a66c84bfd83099ccb2a8845871e2e1c1928f63797152f0fd54cd6111fc565b815473ffffffffffffffffffffffffffffffffffffffff828116911614610adf576040517f2ef4875e00000000000000000000000000000000000000000000000000000000815273ffffffffffffffffffffffffffffffffffffffff821660048201526024016103a4565b5050565b8154600090610af4575060016102fc565b8260010154421080610b095750826002015442115b15610b16575060026102fc565b60008281526001602052604090205460ff1615610b35575060036102fc565b50600092915050565b600082610b4c868685610eaa565b1495945050505050565b6000806102fc60017f4fb5f8cdfbce77f22b0931a39e9f476a60a0f66524b2f379e96485471eb700ae6111fc565b73ffffffffffffffffffffffffffffffffffffffff8116610bd1576040517f40b539cf00000000000000000000000000000000000000000000000000000000815260040160405180910390fd5b81547fffffffffffffffffffffffff00000000000000000000000000000000000000001673ffffffffffffffffffffffffffffffffffffffff821690811783556040519081527fdd880d24a789958a6398c99c2e54ce31bc10a638cbc42f7dd34285479ae0f8559060200160405180910390a15050565b825473ffffffffffffffffffffffffffffffffffffffff9081169083168114610cb5576040517f2ef4875e00000000000000000000000000000000000000000000000000000000815273ffffffffffffffffffffffffffffffffffffffff841660048201526024016103a4565b8173ffffffffffffffffffffffffffffffffffffffff168173ffffffffffffffffffffffffffffffffffffffff1614610d575783547fffffffffffffffffffffffff00000000000000000000000000000000000000001673ffffffffffffffffffffffffffffffffffffffff8381169182178655604051908316907f8be0079c531659141344cd1fd0a4f28419497f9722a3daafe3b4186f6b6457e090600090a35b50505050565b600033321480610d6d5750601836105b15610d7757503390565b7fffffffffffffffffffffffffffffffffffffffffffffffffffffffffffffffec36013560601c7f000000000000000000000000000000000000000000000000000000000000000073ffffffffffffffffffffffffffffffffffffffff16331480610e9957506040517f019a202800000000000000000000000000000000000000000000000000000000815273ffffffffffffffffffffffffffffffffffffffff82811660048301523360248301523060448301527f0000000000000000000000000000000000000000000000000000000000000000169063019a202890606401602060405180830381865afa158015610e75573d6000803e3d6000fd5b505050506040513d601f19601f82011682018060405250810190610e9991906111da565b15610ea357919050565b3391505090565b600081815b84811015610ee357610ed982878784818110610ecd57610ecd611236565b90506020020135610eec565b9150600101610eaf565b50949350505050565b6000818310610f08576000828152602084905260409020610f17565b60008381526020839052604090205b9392505050565b600060208284031215610f3057600080fd5b81357fffffffff0000000000000000000000000000000000000000000000000000000081168114610f1757600080fd5b60008060008060808587031215610f7657600080fd5b5050823594602084013594506040840135936060013592509050565b73ffffffffffffffffffffffffffffffffffffffff8116811461088157600080fd5b600080600080600060808688031215610fcc57600080fd5b853594506020860135610fde81610f92565b935060408601359250606086013567ffffffffffffffff81111561100157600080fd5b8601601f8101881361101257600080fd5b803567ffffffffffffffff81111561102957600080fd5b8860208260051b840101111561103e57600080fd5b959894975092955050506020019190565b60006020828403121561106157600080fd5b8135610f1781610f92565b60006020828403121561107e57600080fd5b5035919050565b60008060006060848603121561109a57600080fd5b8335925060208401356110ac81610f92565b929592945050506040919091013590565b7f4e487b7100000000000000000000000000000000000000000000000000000000600052602160045260246000fd5b6020810160048310611127577f4e487b7100000000000000000000000000000000000000000000000000000000600052602160045260246000fd5b91905290565b73ffffffffffffffffffffffffffffffffffffffff8516815273ffffffffffffffffffffffffffffffffffffffff84166020820152826040820152608060608201526000825180608084015260005b8181101561119957602081860181015160a086840101520161117c565b50600060a0828501015260a07fffffffffffffffffffffffffffffffffffffffffffffffffffffffffffffffe0601f83011684010191505095945050505050565b6000602082840312156111ec57600080fd5b81518015158114610f1757600080fd5b818103818111156102fc577f4e487b7100000000000000000000000000000000000000000000000000000000600052601160045260246000fd5b7f4e487b7100000000000000000000000000000000000000000000000000000000600052603260045260246000fdfea26469706673582212202b87d58c44931dca91df80a7bb0f065449bba111157ef4746d02084937460fec64736f6c634300081c0033",
  "linkReferences": {},
  "deployedLinkReferences": {}
}