{
  "_format": "hh-sol-artifact-1",
  "contractName": "AnichessOrbsBurnPoolMock",
  "sourceName": "contracts/mocks/burn/AnichessOrbsBurnPoolMock.sol",
  "abi": [
    {
      "inputs": [
        {
          "internalType": "uint256",
          "name": "initialTime",
          "type": "uint256"
        },
        {
          "internalType": "uint256",
          "name": "cycleDuration",
          "type": "uint256"
        },
        {
          "internalType": "uint256",
          "name": "maxCycle",
          "type": "uint256"
        },
        {
          "internalType": "contract IERC1155Burnable",
          "name": "orbOfPower",
          "type": "address"
        },
        {
          "components": [
            {
              "internalType": "uint256",
              "name": "tokenId",
              "type": "uint256"
            },
            {
              "internalType": "uint256",
              "name": "weight",
              "type": "uint256"
            }
          ],
          "internalType": "struct AnichessOrbsBurnPool.TokenConfig[]",
          "name": "tokenConfigs",
          "type": "tuple[]"
        },
        {
          "internalType": "bytes32",
          "name": "merkleRoot",
          "type": "bytes32"
        },
        {
          "internalType": "contract IERC1155Burnable",
          "name": "missingOrb",
          "type": "address"
        },
        {
          "internalType": "contract IForwarderRegistry",
          "name": "forwarderRegistry",
          "type": "address"
        }
      ],
      "stateMutability": "nonpayable",
      "type": "constructor"
    },
    {
      "inputs": [
        {
          "internalType": "bytes32",
          "name": "leaf",
          "type": "bytes32"
        }
      ],
      "name": "AlreadyConsumedLeaf",
      "type": "error"
    },
    {
      "inputs": [
        {
          "internalType": "address",
          "name": "recipient",
          "type": "address"
        }
      ],
      "name": "AlreadySetAnichessGameMultiplierNumerator",
      "type": "error"
    },
    {
      "inputs": [
        {
          "internalType": "address",
          "name": "wallet",
          "type": "address"
        }
      ],
      "name": "AlreadySetTokenMultiplier",
      "type": "error"
    },
    {
      "inputs": [
        {
          "internalType": "uint256",
          "name": "tokenId",
          "type": "uint256"
        }
      ],
      "name": "AlreadySetTokenWeight",
      "type": "error"
    },
    {
      "inputs": [],
      "name": "IllegalInterfaceId",
      "type": "error"
    },
    {
      "inputs": [
        {
          "internalType": "uint256",
          "name": "cycle",
          "type": "uint256"
        }
      ],
      "name": "InvalidCycle",
      "type": "error"
    },
    {
      "inputs": [],
      "name": "InvalidProof",
      "type": "error"
    },
    {
      "inputs": [
        {
          "internalType": "address",
          "name": "token",
          "type": "address"
        }
      ],
      "name": "InvalidToken",
      "type": "error"
    },
    {
      "inputs": [
        {
          "internalType": "address",
          "name": "token",
          "type": "address"
        },
        {
          "internalType": "uint256",
          "name": "tokenId",
          "type": "uint256"
        }
      ],
      "name": "InvalidTokenId",
      "type": "error"
    },
    {
      "inputs": [
        {
          "internalType": "uint256",
          "name": "value",
          "type": "uint256"
        },
        {
          "internalType": "uint256",
          "name": "expectedValue",
          "type": "uint256"
        }
      ],
      "name": "InvalidTokenValue",
      "type": "error"
    },
    {
      "inputs": [],
      "name": "ZeroCycleDuration",
      "type": "error"
    },
    {
      "inputs": [],
      "name": "ZeroMaxCycle",
      "type": "error"
    },
    {
      "inputs": [
        {
          "internalType": "uint256",
          "name": "tokenId",
          "type": "uint256"
        }
      ],
      "name": "ZeroTokenWeight",
      "type": "error"
    },
    {
      "anonymous": false,
      "inputs": [
        {
          "indexed": true,
          "internalType": "address",
          "name": "burner",
          "type": "address"
        },
        {
          "indexed": true,
          "internalType": "uint256",
          "name": "cycle",
          "type": "uint256"
        },
        {
          "indexed": false,
          "internalType": "uint256",
          "name": "timestamp",
          "type": "uint256"
        },
        {
          "indexed": false,
          "internalType": "uint256[]",
          "name": "ids",
          "type": "uint256[]"
        },
        {
          "indexed": false,
          "internalType": "uint256[]",
          "name": "values",
          "type": "uint256[]"
        },
        {
          "indexed": false,
          "internalType": "uint256",
          "name": "totalAsh",
          "type": "uint256"
        },
        {
          "indexed": false,
          "internalType": "uint256",
          "name": "multiplierInfo",
          "type": "uint256"
        }
      ],
      "name": "GenerateAsh",
      "type": "event"
    },
    {
      "anonymous": false,
      "inputs": [
        {
          "indexed": true,
          "internalType": "address",
          "name": "recipient",
          "type": "address"
        },
        {
          "indexed": false,
          "internalType": "uint256",
          "name": "curr",
          "type": "uint256"
        },
        {
          "indexed": false,
          "internalType": "uint256",
          "name": "updated",
          "type": "uint256"
        }
      ],
      "name": "UpdateMultiplierInfo",
      "type": "event"
    },
    {
      "inputs": [],
      "name": "CYCLE_DURATION",
      "outputs": [
        {
          "internalType": "uint256",
          "name": "",
          "type": "uint256"
        }
      ],
      "stateMutability": "view",
      "type": "function"
    },
    {
      "inputs": [],
      "name": "INITIAL_TIME",
      "outputs": [
        {
          "internalType": "uint256",
          "name": "",
          "type": "uint256"
        }
      ],
      "stateMutability": "view",
      "type": "function"
    },
    {
      "inputs": [],
      "name": "MAX_CYCLE",
      "outputs": [
        {
          "internalType": "uint256",
          "name": "",
          "type": "uint256"
        }
      ],
      "stateMutability": "view",
      "type": "function"
    },
    {
      "inputs": [],
      "name": "MERKLE_ROOT",
      "outputs": [
        {
          "internalType": "bytes32",
          "name": "",
          "type": "bytes32"
        }
      ],
      "stateMutability": "view",
      "type": "function"
    },
    {
      "inputs": [],
      "name": "MISSING_ORB",
      "outputs": [
        {
          "internalType": "contract IERC1155Burnable",
          "name": "",
          "type": "address"
        }
      ],
      "stateMutability": "view",
      "type": "function"
    },
    {
      "inputs": [],
      "name": "ORB_OF_POWER",
      "outputs": [
        {
          "internalType": "contract IERC1155Burnable",
          "name": "",
          "type": "address"
        }
      ],
      "stateMutability": "view",
      "type": "function"
    },
    {
      "inputs": [],
      "name": "TOKEN_MULTIPLIER",
      "outputs": [
        {
          "internalType": "uint256",
          "name": "",
          "type": "uint256"
        }
      ],
      "stateMutability": "view",
      "type": "function"
    },
    {
      "inputs": [],
      "name": "__msgData",
      "outputs": [
        {
          "internalType": "bytes",
          "name": "",
          "type": "bytes"
        }
      ],
      "stateMutability": "view",
      "type": "function"
    },
    {
      "inputs": [],
      "name": "__msgSender",
      "outputs": [
        {
          "internalType": "address",
          "name": "",
          "type": "address"
        }
      ],
      "stateMutability": "view",
      "type": "function"
    },
    {
      "inputs": [],
      "name": "currentCycle",
      "outputs": [
        {
          "internalType": "uint256",
          "name": "",
          "type": "uint256"
        }
      ],
      "stateMutability": "view",
      "type": "function"
    },
    {
      "inputs": [],
      "name": "forwarderRegistry",
      "outputs": [
        {
          "internalType": "contract IForwarderRegistry",
          "name": "",
          "type": "address"
        }
      ],
      "stateMutability": "view",
      "type": "function"
    },
    {
      "inputs": [
        {
          "internalType": "address",
          "name": "forwarder",
          "type": "address"
        }
      ],
      "name": "isTrustedForwarder",
      "outputs": [
        {
          "internalType": "bool",
          "name": "",
          "type": "bool"
        }
      ],
      "stateMutability": "view",
      "type": "function"
    },
    {
      "inputs": [
        {
          "internalType": "bytes32",
          "name": "",
          "type": "bytes32"
        }
      ],
      "name": "leafConsumptionStatus",
      "outputs": [
        {
          "internalType": "bool",
          "name": "",
          "type": "bool"
        }
      ],
      "stateMutability": "view",
      "type": "function"
    },
    {
      "inputs": [
        {
          "internalType": "address",
          "name": "",
          "type": "address"
        }
      ],
      "name": "multiplierInfos",
      "outputs": [
        {
          "internalType": "uint256",
          "name": "",
          "type": "uint256"
        }
      ],
      "stateMutability": "view",
      "type": "function"
    },
    {
      "inputs": [
        {
          "internalType": "address",
          "name": "",
          "type": "address"
        },
        {
          "internalType": "address",
          "name": "from",
          "type": "address"
        },
        {
          "internalType": "uint256[]",
          "name": "ids",
          "type": "uint256[]"
        },
        {
          "internalType": "uint256[]",
          "name": "values",
          "type": "uint256[]"
        },
        {
          "internalType": "bytes",
          "name": "",
          "type": "bytes"
        }
      ],
      "name": "onERC1155BatchReceived",
      "outputs": [
        {
          "internalType": "bytes4",
          "name": "",
          "type": "bytes4"
        }
      ],
      "stateMutability": "nonpayable",
      "type": "function"
    },
    {
      "inputs": [
        {
          "internalType": "address",
          "name": "",
          "type": "address"
        },
        {
          "internalType": "address",
          "name": "from",
          "type": "address"
        },
        {
          "internalType": "uint256",
          "name": "id",
          "type": "uint256"
        },
        {
          "internalType": "uint256",
          "name": "value",
          "type": "uint256"
        },
        {
          "internalType": "bytes",
          "name": "data",
          "type": "bytes"
        }
      ],
      "name": "onERC1155Received",
      "outputs": [
        {
          "internalType": "bytes4",
          "name": "",
          "type": "bytes4"
        }
      ],
      "stateMutability": "nonpayable",
      "type": "function"
    },
    {
      "inputs": [
        {
          "internalType": "bytes32[]",
          "name": "proof",
          "type": "bytes32[]"
        },
        {
          "internalType": "address",
          "name": "recipient",
          "type": "address"
        },
        {
          "internalType": "uint256",
          "name": "newAnichessGameMultiplierNumerator",
          "type": "uint256"
        }
      ],
      "name": "setAnichessGameMultiplierNumerator",
      "outputs": [],
      "stateMutability": "nonpayable",
      "type": "function"
    },
    {
      "inputs": [
        {
          "internalType": "bytes4",
          "name": "interfaceId",
          "type": "bytes4"
        }
      ],
      "name": "supportsInterface",
      "outputs": [
        {
          "internalType": "bool",
          "name": "",
          "type": "bool"
        }
      ],
      "stateMutability": "view",
      "type": "function"
    },
    {
      "inputs": [
        {
          "internalType": "uint256",
          "name": "",
          "type": "uint256"
        }
      ],
      "name": "tokenWeights",
      "outputs": [
        {
          "internalType": "uint256",
          "name": "",
          "type": "uint256"
        }
      ],
      "stateMutability": "view",
      "type": "function"
    },
    {
      "inputs": [
        {
          "internalType": "uint256",
          "name": "",
          "type": "uint256"
        }
      ],
      "name": "totalAshByCycle",
      "outputs": [
        {
          "internalType": "uint256",
          "name": "",
          "type": "uint256"
        }
      ],
      "stateMutability": "view",
      "type": "function"
    },
    {
      "inputs": [
        {
          "internalType": "uint256",
          "name": "",
          "type": "uint256"
        },
        {
          "internalType": "address",
          "name": "",
          "type": "address"
        }
      ],
      "name": "userAshByCycle",
      "outputs": [
        {
          "internalType": "uint256",
          "name": "",
          "type": "uint256"
        }
      ],
      "stateMutability": "view",
      "type": "function"
    }
  ],
  "bytecode": "0x6101c060405261271060a052600160c05260026101a0523480156200002357600080fd5b5060405162001f5738038062001f5783398101604081905262000046916200038d565b6001600160a01b03811660805287878787878787876200007b630271189760e51b6001620000736200025b565b919062000291565b6101008890526000879003620000a45760405163b870efbd60e01b815260040160405180910390fd5b6101208790526000869003620000cd57604051637e5e559b60e11b815260040160405180910390fd5b6101408690526101808390526001600160a01b0380831661016052851660e05260005b845181101562000244578481815181106200010f576200010f620004d5565b6020026020010151602001516000036200016a57848181518110620001385762000138620004d5565b60200260200101516000015160405163f3d8422960e01b81526004016200016191815260200190565b60405180910390fd5b600060046000878481518110620001855762000185620004d5565b6020026020010151600001518152602001908152602001600020541115620001e557848181518110620001bc57620001bc620004d5565b60200260200101516000015160405163faf6788760e01b81526004016200016191815260200190565b848181518110620001fa57620001fa620004d5565b602002602001015160200151600460008784815181106200021f576200021f620004d5565b60209081029190910181015151825281019190915260400160002055600101620000f0565b50505050505050505050505050505050506200050d565b6000806200028b60017fca9d3e17f264b0f3984e2634e94adb37fa3e6a8103f06aeae6fa59e21c769f5e620004eb565b92915050565b600160e01b6001600160e01b0319831601620002c0576040516372c683bb60e01b815260040160405180910390fd5b6001600160e01b03199190911660009081526020929092526040909120805460ff1916911515919091179055565b6001600160a01b03811681146200030457600080fd5b50565b80516200031481620002ee565b919050565b634e487b7160e01b600052604160045260246000fd5b604080519081016001600160401b038111828210171562000354576200035462000319565b60405290565b604051601f8201601f191681016001600160401b038111828210171562000385576200038562000319565b604052919050565b600080600080600080600080610100898b031215620003ab57600080fd5b8851975060208901519650604089015195506060890151620003cd81620002ee565b60808a01519095506001600160401b0380821115620003eb57600080fd5b818b0191508b601f8301126200040057600080fd5b81518181111562000415576200041562000319565b6200042660208260051b016200035a565b91508181835260208301925060208260061b85010191508d8211156200044b57600080fd5b6020840193505b818410156200049a576040848f0312156200046c57600080fd5b620004766200032f565b84518152602085015160208201528084525060208301925060408401935062000452565b8097505050505060a08901519250620004b660c08a0162000307565b9150620004c660e08a0162000307565b90509295985092959890939650565b634e487b7160e01b600052603260045260246000fd5b818103818111156200028b57634e487b7160e01b600052601160045260246000fd5b60805160a05160c05160e05161010051610120516101405161016051610180516101a05161197a620005dd6000396000818161023f0152610b6c0152600081816102c90152610e1a0152600081816103c901526109ba0152600081816101a901526106130152600081816103f001526105350152600081816102a201526105590152600081816101f301526105a701526000610a15015260006107c3015260008181610263015281816102fb01528181610fde0152818161101c0152818161115401526111dc015261197a6000f3fe608060405234801561001057600080fd5b50600436106101775760003560e01c80636dca8c06116100d8578063cd421fbf1161008c578063f23a6e6111610066578063f23a6e611461043d578063f5f6911214610450578063fa9fdc6a1461047057600080fd5b8063cd421fbf146103eb578063d1a91ff214610412578063e1c96c201461041a57600080fd5b8063bab2f552116100bd578063bab2f55214610378578063bc197c8114610380578063cd18a34f146103c457600080fd5b80636dca8c0614610338578063b28fd6e61461035857600080fd5b80632b4c9f161161012f578063491bde6611610114578063491bde661461029d57806351e75e8b146102c4578063572b6c05146102eb57600080fd5b80632b4c9f161461026157806331e66e1e1461028757600080fd5b806324190c6e1161016057806324190c6e146101d957806328a979cf146101ee5780632b093fe91461023a57600080fd5b806301ffc9a71461017c578063043063bc146101a4575b600080fd5b61018f61018a3660046112fe565b61049b565b60405190151581526020015b60405180910390f35b6101cb7f000000000000000000000000000000000000000000000000000000000000000081565b60405190815260200161019b565b6101ec6101e73660046113b5565b6104b5565b005b6102157f000000000000000000000000000000000000000000000000000000000000000081565b60405173ffffffffffffffffffffffffffffffffffffffff909116815260200161019b565b6101cb7f000000000000000000000000000000000000000000000000000000000000000081565b7f0000000000000000000000000000000000000000000000000000000000000000610215565b61028f61051e565b60405161019b929190611411565b6101cb7f000000000000000000000000000000000000000000000000000000000000000081565b6101cb7f000000000000000000000000000000000000000000000000000000000000000081565b61018f6102f936600461145e565b7f000000000000000000000000000000000000000000000000000000000000000073ffffffffffffffffffffffffffffffffffffffff90811691161490565b6101cb610346366004611479565b60006020819052908152604090205481565b6101cb61036636600461145e565b60036020526000908152604090205481565b6101cb610531565b61039361038e3660046114d4565b61058d565b6040517fffffffff00000000000000000000000000000000000000000000000000000000909116815260200161019b565b6102157f000000000000000000000000000000000000000000000000000000000000000081565b6101cb7f000000000000000000000000000000000000000000000000000000000000000081565b610215610996565b61018f610428366004611479565b60026020526000908152604090205460ff1681565b61039361044b36600461158f565b6109a0565b6101cb61045e366004611479565b60046020526000908152604090205481565b6101cb61047e366004611607565b600160209081526000928352604080842090915290825290205481565b60006104af826104a9610c42565b90610c70565b92915050565b610517848480806020026020016040519081016040528093929190818152602001838360200280828437600092018290525073ffffffffffffffffffffffffffffffffffffffff88168152600360205260409020548793509150859050610d4a565b5050505050565b366000610529610f7c565b915091509091565b60007f000000000000000000000000000000000000000000000000000000000000000061057e7f000000000000000000000000000000000000000000000000000000000000000042611662565b6105889190611675565b905090565b60003373ffffffffffffffffffffffffffffffffffffffff7f00000000000000000000000000000000000000000000000000000000000000001614610605576040517f961c9a4f0000000000000000000000000000000000000000000000000000000081523360048201526024015b60405180910390fd5b600061060f610531565b90507f000000000000000000000000000000000000000000000000000000000000000081111561066e576040517f764e560f000000000000000000000000000000000000000000000000000000008152600481018290526024016105fc565b6000805b88811015610757576000600460008c8c85818110610692576106926116b0565b9050602002013581526020019081526020016000205490508060000361071e57338b8b848181106106c5576106c56116b0565b6040517f1912ea5100000000000000000000000000000000000000000000000000000000815273ffffffffffffffffffffffffffffffffffffffff909416600485015260200291909101356024830152506044016105fc565b80898984818110610731576107316116b0565b9050602002013561074291906116df565b61074c90846116f6565b925050600101610672565b5073ffffffffffffffffffffffffffffffffffffffff8a166000908152600360205260409020546fffffffffffffffffffffffffffffffff8116608082901c81156107a9576107a682856116df565b93505b6fffffffffffffffffffffffffffffffff81161561080b577f00000000000000000000000000000000000000000000000000000000000000006107fe6fffffffffffffffffffffffffffffffff8316866116df565b6108089190611675565b93505b836001600087815260200190815260200160002060008f73ffffffffffffffffffffffffffffffffffffffff1673ffffffffffffffffffffffffffffffffffffffff168152602001908152602001600020600082825461086b91906116f6565b90915550506000858152602081905260408120805486929061088e9084906116f6565b925050819055503373ffffffffffffffffffffffffffffffffffffffff166380534934308e8e8e8e6040518663ffffffff1660e01b81526004016108d6959493929190611754565b600060405180830381600087803b1580156108f057600080fd5b505af1158015610904573d6000803e3d6000fd5b50505050848d73ffffffffffffffffffffffffffffffffffffffff167f1501d0cda6731cd5958ea3b86b45b93dec9f22f125c433c0044b42d98ee4de11428f8f8f8f8b8b60405161095b97969594939291906117a3565b60405180910390a3507fbc197c81000000000000000000000000000000000000000000000000000000009d9c50505050505050505050505050565b6000610588610f87565b60003373ffffffffffffffffffffffffffffffffffffffff7f00000000000000000000000000000000000000000000000000000000000000001614610a13576040517f961c9a4f0000000000000000000000000000000000000000000000000000000081523360048201526024016105fc565b7f00000000000000000000000000000000000000000000000000000000000000008514610a75576040517f1912ea51000000000000000000000000000000000000000000000000000000008152336004820152602481018690526044016105fc565b83600114610ab9576040517ff3cc8ce400000000000000000000000000000000000000000000000000000000815260048101859052600160248201526044016105fc565b73ffffffffffffffffffffffffffffffffffffffff86166000908152600360205260409020546fffffffffffffffffffffffffffffffff811615610b41576040517f55c9045d00000000000000000000000000000000000000000000000000000000815273ffffffffffffffffffffffffffffffffffffffff881660048201526024016105fc565b73ffffffffffffffffffffffffffffffffffffffff87166000818152600360209081526040918290207f00000000000000000000000000000000000000000000000000000000000000007fffffffffffffffffffffffffffffffff0000000000000000000000000000000086161790819055825185815291820181905292917f54519572e3429998e82594d8b7f18c8099087447d701cbaa619b5e26f6de47eb910160405180910390a28315610c1457600080610c0086880188611816565b91509150610c10828b8584610d4a565b5050505b507ff23a6e610000000000000000000000000000000000000000000000000000000098975050505050505050565b6000806104af60017fca9d3e17f264b0f3984e2634e94adb37fa3e6a8103f06aeae6fa59e21c769f5e611662565b60007c01000000000000000000000000000000000000000000000000000000007fffffffff00000000000000000000000000000000000000000000000000000000831601610cc0575060006104af565b7ffe003659000000000000000000000000000000000000000000000000000000007fffffffff00000000000000000000000000000000000000000000000000000000831601610d11575060016104af565b507fffffffff00000000000000000000000000000000000000000000000000000000166000908152602091909152604090205460ff1690565b6000608083901c15610da0576040517f18ed059000000000000000000000000000000000000000000000000000000000815273ffffffffffffffffffffffffffffffffffffffff851660048201526024016105fc565b6040517fffffffffffffffffffffffffffffffffffffffff000000000000000000000000606086901b16602082015260348101839052600090605401604080517fffffffffffffffffffffffffffffffffffffffffffffffffffffffffffffffe081840301815291905280516020909101209050610e3f867f000000000000000000000000000000000000000000000000000000000000000083610f91565b610e75576040517f09bde33900000000000000000000000000000000000000000000000000000000815260040160405180910390fd5b60008181526002602052604090205460ff1615610ec1576040517f689301e8000000000000000000000000000000000000000000000000000000008152600481018290526024016105fc565b73ffffffffffffffffffffffffffffffffffffffff851660008181526003602090815260408083206fffffffffffffffffffffffffffffffff8916608089901b1790819055858452600283529281902080547fffffffffffffffffffffffffffffffffffffffffffffffffffffffffffffff0016600117905580518881529182018390529194507f54519572e3429998e82594d8b7f18c8099087447d701cbaa619b5e26f6de47eb910160405180910390a250949350505050565b366000610529610fa7565b6000610588611111565b600082610f9e8584611258565b14949350505050565b36600033321480610fb85750601836105b15610fc65750600091369150565b3373ffffffffffffffffffffffffffffffffffffffff7f00000000000000000000000000000000000000000000000000000000000000001614806110fb575073ffffffffffffffffffffffffffffffffffffffff7f000000000000000000000000000000000000000000000000000000000000000016638929a8ca367fffffffffffffffffffffffffffffffffffffffffffffffffffffffffffffffec013560601c6040517fffffffff0000000000000000000000000000000000000000000000000000000060e084901b16815273ffffffffffffffffffffffffffffffffffffffff9091166004820152336024820152604401602060405180830381865afa1580156110d7573d6000803e3d6000fd5b505050506040513d601f19601f820116820180604052508101906110fb91906118f8565b156111085761052961129b565b50600091369150565b6000333214806111215750601836105b1561112b57503390565b7fffffffffffffffffffffffffffffffffffffffffffffffffffffffffffffffec36013560601c7f000000000000000000000000000000000000000000000000000000000000000073ffffffffffffffffffffffffffffffffffffffff1633148061124757506040517f8929a8ca00000000000000000000000000000000000000000000000000000000815273ffffffffffffffffffffffffffffffffffffffff82811660048301523360248301527f00000000000000000000000000000000000000000000000000000000000000001690638929a8ca90604401602060405180830381865afa158015611223573d6000803e3d6000fd5b505050506040513d601f19601f8201168201806040525081019061124791906118f8565b1561125157919050565b3391505090565b600081815b8451811015611293576112898286838151811061127c5761127c6116b0565b60200260200101516112cc565b915060010161125d565b509392505050565b3660006105297fffffffffffffffffffffffffffffffffffffffffffffffffffffffffffffffec830182848161191a565b60008183106112e85760008281526020849052604090206112f7565b60008381526020839052604090205b9392505050565b60006020828403121561131057600080fd5b81357fffffffff00000000000000000000000000000000000000000000000000000000811681146112f757600080fd5b60008083601f84011261135257600080fd5b50813567ffffffffffffffff81111561136a57600080fd5b6020830191508360208260051b850101111561138557600080fd5b9250929050565b803573ffffffffffffffffffffffffffffffffffffffff811681146113b057600080fd5b919050565b600080600080606085870312156113cb57600080fd5b843567ffffffffffffffff8111156113e257600080fd5b6113ee87828801611340565b909550935061140190506020860161138c565b9396929550929360400135925050565b60208152816020820152818360408301376000818301604090810191909152601f9092017fffffffffffffffffffffffffffffffffffffffffffffffffffffffffffffffe0160101919050565b60006020828403121561147057600080fd5b6112f78261138c565b60006020828403121561148b57600080fd5b5035919050565b60008083601f8401126114a457600080fd5b50813567ffffffffffffffff8111156114bc57600080fd5b60208301915083602082850101111561138557600080fd5b60008060008060008060008060a0898b0312156114f057600080fd5b6114f98961138c565b975061150760208a0161138c565b9650604089013567ffffffffffffffff8082111561152457600080fd5b6115308c838d01611340565b909850965060608b013591508082111561154957600080fd5b6115558c838d01611340565b909650945060808b013591508082111561156e57600080fd5b5061157b8b828c01611492565b999c989b5096995094979396929594505050565b60008060008060008060a087890312156115a857600080fd5b6115b18761138c565b95506115bf6020880161138c565b94506040870135935060608701359250608087013567ffffffffffffffff8111156115e957600080fd5b6115f589828a01611492565b979a9699509497509295939492505050565b6000806040838503121561161a57600080fd5b8235915061162a6020840161138c565b90509250929050565b7f4e487b7100000000000000000000000000000000000000000000000000000000600052601160045260246000fd5b818103818111156104af576104af611633565b6000826116ab577f4e487b7100000000000000000000000000000000000000000000000000000000600052601260045260246000fd5b500490565b7f4e487b7100000000000000000000000000000000000000000000000000000000600052603260045260246000fd5b80820281158282048414176104af576104af611633565b808201808211156104af576104af611633565b81835260007f07ffffffffffffffffffffffffffffffffffffffffffffffffffffffffffffff83111561173b57600080fd5b8260051b80836020870137939093016020019392505050565b73ffffffffffffffffffffffffffffffffffffffff86168152606060208201526000611784606083018688611709565b8281036040840152611797818587611709565b98975050505050505050565b87815260a0602082015260006117bd60a08301888a611709565b82810360408401526117d0818789611709565b606084019590955250506080015295945050505050565b7f4e487b7100000000000000000000000000000000000000000000000000000000600052604160045260246000fd5b6000806040838503121561182957600080fd5b823567ffffffffffffffff8082111561184157600080fd5b818501915085601f83011261185557600080fd5b8135602082821115611869576118696117e7565b8160051b6040517fffffffffffffffffffffffffffffffffffffffffffffffffffffffffffffffe0603f830116810181811086821117156118ac576118ac6117e7565b6040529283528183019350848101820192898411156118ca57600080fd5b948201945b838610156118e8578535855294820194938201936118cf565b9997909101359750505050505050565b60006020828403121561190a57600080fd5b815180151581146112f757600080fd5b6000808585111561192a57600080fd5b8386111561193757600080fd5b505082019391909203915056fea26469706673582212201213721fdfe11a074413b4be54f41d741a0e4ce62d39469cbabcb5afdef77dcd64736f6c63430008160033",
  "linkReferences": {},
  "deployedLinkReferences": {}
}