{
  "_format": "hh-sol-artifact-1",
  "contractName": "AnichessOrbsBurnPoolMock",
  "sourceName": "contracts/mocks/burn/AnichessOrbsBurnPoolMock.sol",
  "abi": [
    {
      "inputs": [
        {
          "internalType": "uint256",
          "name": "initialTime",
          "type": "uint256"
        },
        {
          "internalType": "uint256",
          "name": "cycleDuration",
          "type": "uint256"
        },
        {
          "internalType": "uint256",
          "name": "maxCycle",
          "type": "uint256"
        },
        {
          "internalType": "contract IERC1155Burnable",
          "name": "orbOfPower",
          "type": "address"
        },
        {
          "internalType": "bytes32",
          "name": "merkleRoot",
          "type": "bytes32"
        },
        {
          "internalType": "contract IERC1155Burnable",
          "name": "missingOrb",
          "type": "address"
        },
        {
          "internalType": "contract IForwarderRegistry",
          "name": "forwarderRegistry",
          "type": "address"
        }
      ],
      "stateMutability": "nonpayable",
      "type": "constructor"
    },
    {
      "inputs": [
        {
          "internalType": "bytes32",
          "name": "leaf",
          "type": "bytes32"
        }
      ],
      "name": "AlreadyConsumedLeaf",
      "type": "error"
    },
    {
      "inputs": [
        {
          "internalType": "address",
          "name": "recipient",
          "type": "address"
        }
      ],
      "name": "AlreadySetAnichessGameMultiplierNumerator",
      "type": "error"
    },
    {
      "inputs": [
        {
          "internalType": "address",
          "name": "wallet",
          "type": "address"
        }
      ],
      "name": "AlreadySetTokenMultiplier",
      "type": "error"
    },
    {
      "inputs": [],
      "name": "IllegalInterfaceId",
      "type": "error"
    },
    {
      "inputs": [
        {
          "internalType": "uint256",
          "name": "cycle",
          "type": "uint256"
        }
      ],
      "name": "InvalidCycle",
      "type": "error"
    },
    {
      "inputs": [],
      "name": "InvalidProof",
      "type": "error"
    },
    {
      "inputs": [
        {
          "internalType": "address",
          "name": "token",
          "type": "address"
        }
      ],
      "name": "InvalidToken",
      "type": "error"
    },
    {
      "inputs": [
        {
          "internalType": "address",
          "name": "token",
          "type": "address"
        },
        {
          "internalType": "uint256",
          "name": "tokenId",
          "type": "uint256"
        }
      ],
      "name": "InvalidTokenId",
      "type": "error"
    },
    {
      "inputs": [
        {
          "internalType": "uint256",
          "name": "value",
          "type": "uint256"
        },
        {
          "internalType": "uint256",
          "name": "expectedValue",
          "type": "uint256"
        }
      ],
      "name": "InvalidTokenValue",
      "type": "error"
    },
    {
      "inputs": [],
      "name": "ZeroCycleDuration",
      "type": "error"
    },
    {
      "inputs": [],
      "name": "ZeroMaxCycle",
      "type": "error"
    },
    {
      "anonymous": false,
      "inputs": [
        {
          "indexed": true,
          "internalType": "address",
          "name": "burner",
          "type": "address"
        },
        {
          "indexed": true,
          "internalType": "uint256",
          "name": "cycle",
          "type": "uint256"
        },
        {
          "indexed": false,
          "internalType": "uint256[]",
          "name": "ids",
          "type": "uint256[]"
        },
        {
          "indexed": false,
          "internalType": "uint256[]",
          "name": "values",
          "type": "uint256[]"
        },
        {
          "indexed": false,
          "internalType": "uint256",
          "name": "ash",
          "type": "uint256"
        },
        {
          "indexed": false,
          "internalType": "uint256",
          "name": "multiplierInfo",
          "type": "uint256"
        }
      ],
      "name": "GenerateAsh",
      "type": "event"
    },
    {
      "anonymous": false,
      "inputs": [
        {
          "indexed": true,
          "internalType": "address",
          "name": "recipient",
          "type": "address"
        },
        {
          "indexed": false,
          "internalType": "uint256",
          "name": "curr",
          "type": "uint256"
        },
        {
          "indexed": false,
          "internalType": "uint256",
          "name": "updated",
          "type": "uint256"
        }
      ],
      "name": "UpdateMultiplierInfo",
      "type": "event"
    },
    {
      "inputs": [],
      "name": "CYCLE_DURATION",
      "outputs": [
        {
          "internalType": "uint256",
          "name": "",
          "type": "uint256"
        }
      ],
      "stateMutability": "view",
      "type": "function"
    },
    {
      "inputs": [],
      "name": "INITIAL_TIME",
      "outputs": [
        {
          "internalType": "uint256",
          "name": "",
          "type": "uint256"
        }
      ],
      "stateMutability": "view",
      "type": "function"
    },
    {
      "inputs": [],
      "name": "MAX_CYCLE",
      "outputs": [
        {
          "internalType": "uint256",
          "name": "",
          "type": "uint256"
        }
      ],
      "stateMutability": "view",
      "type": "function"
    },
    {
      "inputs": [],
      "name": "MERKLE_ROOT",
      "outputs": [
        {
          "internalType": "bytes32",
          "name": "",
          "type": "bytes32"
        }
      ],
      "stateMutability": "view",
      "type": "function"
    },
    {
      "inputs": [],
      "name": "MISSING_ORB",
      "outputs": [
        {
          "internalType": "contract IERC1155Burnable",
          "name": "",
          "type": "address"
        }
      ],
      "stateMutability": "view",
      "type": "function"
    },
    {
      "inputs": [],
      "name": "ORB_OF_POWER",
      "outputs": [
        {
          "internalType": "contract IERC1155Burnable",
          "name": "",
          "type": "address"
        }
      ],
      "stateMutability": "view",
      "type": "function"
    },
    {
      "inputs": [],
      "name": "TOKEN_MULTIPLIER",
      "outputs": [
        {
          "internalType": "uint256",
          "name": "",
          "type": "uint256"
        }
      ],
      "stateMutability": "view",
      "type": "function"
    },
    {
      "inputs": [],
      "name": "__msgData",
      "outputs": [
        {
          "internalType": "bytes",
          "name": "",
          "type": "bytes"
        }
      ],
      "stateMutability": "view",
      "type": "function"
    },
    {
      "inputs": [],
      "name": "__msgSender",
      "outputs": [
        {
          "internalType": "address",
          "name": "",
          "type": "address"
        }
      ],
      "stateMutability": "view",
      "type": "function"
    },
    {
      "inputs": [],
      "name": "currentCycle",
      "outputs": [
        {
          "internalType": "uint256",
          "name": "",
          "type": "uint256"
        }
      ],
      "stateMutability": "view",
      "type": "function"
    },
    {
      "inputs": [],
      "name": "forwarderRegistry",
      "outputs": [
        {
          "internalType": "contract IForwarderRegistry",
          "name": "",
          "type": "address"
        }
      ],
      "stateMutability": "view",
      "type": "function"
    },
    {
      "inputs": [
        {
          "internalType": "address",
          "name": "forwarder",
          "type": "address"
        }
      ],
      "name": "isTrustedForwarder",
      "outputs": [
        {
          "internalType": "bool",
          "name": "",
          "type": "bool"
        }
      ],
      "stateMutability": "view",
      "type": "function"
    },
    {
      "inputs": [
        {
          "internalType": "bytes32",
          "name": "",
          "type": "bytes32"
        }
      ],
      "name": "leafConsumptionStatus",
      "outputs": [
        {
          "internalType": "bool",
          "name": "",
          "type": "bool"
        }
      ],
      "stateMutability": "view",
      "type": "function"
    },
    {
      "inputs": [
        {
          "internalType": "address",
          "name": "",
          "type": "address"
        }
      ],
      "name": "multiplierInfos",
      "outputs": [
        {
          "internalType": "uint256",
          "name": "",
          "type": "uint256"
        }
      ],
      "stateMutability": "view",
      "type": "function"
    },
    {
      "inputs": [
        {
          "internalType": "address",
          "name": "",
          "type": "address"
        },
        {
          "internalType": "address",
          "name": "from",
          "type": "address"
        },
        {
          "internalType": "uint256[]",
          "name": "ids",
          "type": "uint256[]"
        },
        {
          "internalType": "uint256[]",
          "name": "values",
          "type": "uint256[]"
        },
        {
          "internalType": "bytes",
          "name": "data",
          "type": "bytes"
        }
      ],
      "name": "onERC1155BatchReceived",
      "outputs": [
        {
          "internalType": "bytes4",
          "name": "",
          "type": "bytes4"
        }
      ],
      "stateMutability": "nonpayable",
      "type": "function"
    },
    {
      "inputs": [
        {
          "internalType": "address",
          "name": "",
          "type": "address"
        },
        {
          "internalType": "address",
          "name": "from",
          "type": "address"
        },
        {
          "internalType": "uint256",
          "name": "id",
          "type": "uint256"
        },
        {
          "internalType": "uint256",
          "name": "value",
          "type": "uint256"
        },
        {
          "internalType": "bytes",
          "name": "data",
          "type": "bytes"
        }
      ],
      "name": "onERC1155Received",
      "outputs": [
        {
          "internalType": "bytes4",
          "name": "",
          "type": "bytes4"
        }
      ],
      "stateMutability": "nonpayable",
      "type": "function"
    },
    {
      "inputs": [
        {
          "internalType": "bytes4",
          "name": "interfaceId",
          "type": "bytes4"
        }
      ],
      "name": "supportsInterface",
      "outputs": [
        {
          "internalType": "bool",
          "name": "",
          "type": "bool"
        }
      ],
      "stateMutability": "view",
      "type": "function"
    },
    {
      "inputs": [
        {
          "internalType": "uint256",
          "name": "",
          "type": "uint256"
        }
      ],
      "name": "totalAshPerCycle",
      "outputs": [
        {
          "internalType": "uint256",
          "name": "",
          "type": "uint256"
        }
      ],
      "stateMutability": "view",
      "type": "function"
    },
    {
      "inputs": [
        {
          "internalType": "uint256",
          "name": "",
          "type": "uint256"
        },
        {
          "internalType": "address",
          "name": "",
          "type": "address"
        }
      ],
      "name": "userAshPerCycle",
      "outputs": [
        {
          "internalType": "uint256",
          "name": "",
          "type": "uint256"
        }
      ],
      "stateMutability": "view",
      "type": "function"
    }
  ],
  "bytecode": "0x6101606040523480156200001257600080fd5b5060405162001cb238038062001cb2833981016040819052620000359162000194565b6001600160a01b0381166080528686868686868662000069630271189760e51b600162000061620000e8565b91906200011e565b60e08790526000869003620000915760405163b870efbd60e01b815260040160405180910390fd5b6101008690526000859003620000ba57604051637e5e559b60e11b815260040160405180910390fd5b5061012093909352610140526001600160a01b0391821660c0521660a0525062000231975050505050505050565b6000806200011860017fca9d3e17f264b0f3984e2634e94adb37fa3e6a8103f06aeae6fa59e21c769f5e6200020f565b92915050565b600160e01b6001600160e01b03198316016200014d576040516372c683bb60e01b815260040160405180910390fd5b6001600160e01b03199190911660009081526020929092526040909120805460ff1916911515919091179055565b6001600160a01b03811681146200019157600080fd5b50565b600080600080600080600060e0888a031215620001b057600080fd5b8751965060208801519550604088015194506060880151620001d2816200017b565b608089015160a08a01519195509350620001ec816200017b565b60c0890151909250620001ff816200017b565b8091505092959891949750929550565b818103818111156200011857634e487b7160e01b600052601160045260246000fd5b60805160a05160c05160e0516101005161012051610140516119cb620002e76000396000818161029a0152610ede0152600081816101830152818161053001526109c10152600081816103c10152610452015260008181610248015261047601526000818161039a01526108d30152600081816101b8015281816104c40152610dd5015260008181610209015281816102cc01528181611081015281816110bf0152818161120d015261129501526119cb6000f3fe608060405234801561001057600080fd5b50600436106101515760003560e01c8063572b6c05116100cd578063cd18a34f11610081578063d1a91ff211610066578063d1a91ff2146103e3578063e1c96c20146103eb578063f23a6e611461040e57600080fd5b8063cd18a34f14610395578063cd421fbf146103bc57600080fd5b8063b28fd6e6116100b2578063b28fd6e614610329578063bab2f55214610349578063bc197c811461035157600080fd5b8063572b6c05146102bc578063ab504e731461030957600080fd5b80632b4c9f1611610124578063491bde6611610109578063491bde66146102435780634dac1c2b1461026a57806351e75e8b1461029557600080fd5b80632b4c9f161461020757806331e66e1e1461022d57600080fd5b806301ffc9a714610156578063043063bc1461017e57806328a979cf146101b35780632b093fe9146101ff575b600080fd5b6101696101643660046113b7565b610421565b60405190151581526020015b60405180910390f35b6101a57f000000000000000000000000000000000000000000000000000000000000000081565b604051908152602001610175565b6101da7f000000000000000000000000000000000000000000000000000000000000000081565b60405173ffffffffffffffffffffffffffffffffffffffff9091168152602001610175565b6101a5600281565b7f00000000000000000000000000000000000000000000000000000000000000006101da565b61023561043b565b6040516101759291906113f9565b6101a57f000000000000000000000000000000000000000000000000000000000000000081565b6101a561027836600461146a565b600160209081526000928352604080842090915290825290205481565b6101a57f000000000000000000000000000000000000000000000000000000000000000081565b6101696102ca366004611496565b7f000000000000000000000000000000000000000000000000000000000000000073ffffffffffffffffffffffffffffffffffffffff90811691161490565b6101a56103173660046114b1565b60006020819052908152604090205481565b6101a5610337366004611496565b60036020526000908152604090205481565b6101a561044e565b61036461035f366004611558565b6104aa565b6040517fffffffff000000000000000000000000000000000000000000000000000000009091168152602001610175565b6101da7f000000000000000000000000000000000000000000000000000000000000000081565b6101a57f000000000000000000000000000000000000000000000000000000000000000081565b6101da6108af565b6101696103f93660046114b1565b60026020526000908152604090205460ff1681565b61036461041c366004611613565b6108b9565b60006104358261042f610c13565b90610c41565b92915050565b366000610446610d1b565b915091509091565b60007f000000000000000000000000000000000000000000000000000000000000000061049b7f0000000000000000000000000000000000000000000000000000000000000000426116ba565b6104a591906116cd565b905090565b60003373ffffffffffffffffffffffffffffffffffffffff7f00000000000000000000000000000000000000000000000000000000000000001614610522576040517f961c9a4f0000000000000000000000000000000000000000000000000000000081523360048201526024015b60405180910390fd5b600061052c61044e565b90507f000000000000000000000000000000000000000000000000000000000000000081111561058b576040517f764e560f00000000000000000000000000000000000000000000000000000000815260048101829052602401610519565b6000805b88811015610666578787828181106105a9576105a9611708565b9050602002013560000361060e578787828181106105c9576105c9611708565b6040517ff3cc8ce40000000000000000000000000000000000000000000000000000000081526020909102929092013560048301525060006024820152604401610519565b61062f8a8a8381811061062357610623611708565b90506020020135610d26565b88888381811061064157610641611708565b905060200201356106529190611737565b61065c908361174e565b915060010161058f565b5073ffffffffffffffffffffffffffffffffffffffff8a1660009081526003602052604090205484156106b7576000806106a287890189611790565b915091506106b2828e8584610e0e565b925050505b6fffffffffffffffffffffffffffffffff8116608082901c81156106e2576106df8285611737565b93505b6fffffffffffffffffffffffffffffffff811615610726576127106107196fffffffffffffffffffffffffffffffff831686611737565b61072391906116cd565b93505b836001600087815260200190815260200160002060008f73ffffffffffffffffffffffffffffffffffffffff1673ffffffffffffffffffffffffffffffffffffffff1681526020019081526020016000206000828254610786919061174e565b9091555050600085815260208190526040812080548692906107a990849061174e565b925050819055503373ffffffffffffffffffffffffffffffffffffffff166380534934308e8e8e8e6040518663ffffffff1660e01b81526004016107f19594939291906118bd565b600060405180830381600087803b15801561080b57600080fd5b505af115801561081f573d6000803e3d6000fd5b50505050848d73ffffffffffffffffffffffffffffffffffffffff167f607d04b62b6720200ee29c63ac2e4b0aa4024c85f7b80181ac61d6bb6f5e797a8e8e8e8e8a8a6040516108749695949392919061190c565b60405180910390a3507fbc197c81000000000000000000000000000000000000000000000000000000009d9c50505050505050505050505050565b60006104a5611040565b60003373ffffffffffffffffffffffffffffffffffffffff7f0000000000000000000000000000000000000000000000000000000000000000161461092c576040517f961c9a4f000000000000000000000000000000000000000000000000000000008152336004820152602401610519565b6001851461096f576040517f1912ea5100000000000000000000000000000000000000000000000000000000815233600482015260248101869052604401610519565b836001146109b3576040517ff3cc8ce40000000000000000000000000000000000000000000000000000000081526004810185905260016024820152604401610519565b60006109bd61044e565b90507f0000000000000000000000000000000000000000000000000000000000000000811115610a1c576040517f764e560f00000000000000000000000000000000000000000000000000000000815260048101829052602401610519565b73ffffffffffffffffffffffffffffffffffffffff87166000908152600360205260409020546fffffffffffffffffffffffffffffffff811615610aa4576040517f55c9045d00000000000000000000000000000000000000000000000000000000815273ffffffffffffffffffffffffffffffffffffffff89166004820152602401610519565b73ffffffffffffffffffffffffffffffffffffffff881660009081526003602052604090207fffffffffffffffffffffffffffffffff000000000000000000000000000000008216600217908190558415610b1c57600080610b0887890189611790565b91509150610b18828c8584610e0e565b5050505b6040517f124d91e50000000000000000000000000000000000000000000000000000000081523060048201526024810189905260448101889052339063124d91e590606401600060405180830381600087803b158015610b7b57600080fd5b505af1158015610b8f573d6000803e3d6000fd5b5050604080518581526020810185905273ffffffffffffffffffffffffffffffffffffffff8d1693507f54519572e3429998e82594d8b7f18c8099087447d701cbaa619b5e26f6de47eb92500160405180910390a2507ff23a6e61000000000000000000000000000000000000000000000000000000009998505050505050505050565b60008061043560017fca9d3e17f264b0f3984e2634e94adb37fa3e6a8103f06aeae6fa59e21c769f5e6116ba565b60007c01000000000000000000000000000000000000000000000000000000007fffffffff00000000000000000000000000000000000000000000000000000000831601610c9157506000610435565b7ffe003659000000000000000000000000000000000000000000000000000000007fffffffff00000000000000000000000000000000000000000000000000000000831601610ce257506001610435565b507fffffffff00000000000000000000000000000000000000000000000000000000166000908152602091909152604090205460ff1690565b36600061044661104a565b600081600103610d3857506001919050565b81600203610d4857506003919050565b81600303610d5857506003919050565b81600403610d6857506005919050565b81600503610d7857506009919050565b81600603610d8857506019919050565b81600703610d9857506010919050565b6040517f1912ea5100000000000000000000000000000000000000000000000000000000815273ffffffffffffffffffffffffffffffffffffffff7f000000000000000000000000000000000000000000000000000000000000000016600482015260248101839052604401610519565b919050565b6000608083901c15610e64576040517f18ed059000000000000000000000000000000000000000000000000000000000815273ffffffffffffffffffffffffffffffffffffffff85166004820152602401610519565b6040517fffffffffffffffffffffffffffffffffffffffff000000000000000000000000606086901b16602082015260348101839052600090605401604080517fffffffffffffffffffffffffffffffffffffffffffffffffffffffffffffffe081840301815291905280516020909101209050610f03867f0000000000000000000000000000000000000000000000000000000000000000836111b4565b610f39576040517f09bde33900000000000000000000000000000000000000000000000000000000815260040160405180910390fd5b60008181526002602052604090205460ff1615610f85576040517f689301e800000000000000000000000000000000000000000000000000000000815260048101829052602401610519565b73ffffffffffffffffffffffffffffffffffffffff851660008181526003602090815260408083206fffffffffffffffffffffffffffffffff8916608089901b1790819055858452600283529281902080547fffffffffffffffffffffffffffffffffffffffffffffffffffffffffffffff0016600117905580518881529182018390529194507f54519572e3429998e82594d8b7f18c8099087447d701cbaa619b5e26f6de47eb910160405180910390a250949350505050565b60006104a56111ca565b3660003332148061105b5750601836105b156110695750600091369150565b3373ffffffffffffffffffffffffffffffffffffffff7f000000000000000000000000000000000000000000000000000000000000000016148061119e575073ffffffffffffffffffffffffffffffffffffffff7f000000000000000000000000000000000000000000000000000000000000000016638929a8ca367fffffffffffffffffffffffffffffffffffffffffffffffffffffffffffffffec013560601c6040517fffffffff0000000000000000000000000000000000000000000000000000000060e084901b16815273ffffffffffffffffffffffffffffffffffffffff9091166004820152336024820152604401602060405180830381865afa15801561117a573d6000803e3d6000fd5b505050506040513d601f19601f8201168201806040525081019061119e9190611949565b156111ab57610446611311565b50600091369150565b6000826111c18584611342565b14949350505050565b6000333214806111da5750601836105b156111e457503390565b7fffffffffffffffffffffffffffffffffffffffffffffffffffffffffffffffec36013560601c7f000000000000000000000000000000000000000000000000000000000000000073ffffffffffffffffffffffffffffffffffffffff1633148061130057506040517f8929a8ca00000000000000000000000000000000000000000000000000000000815273ffffffffffffffffffffffffffffffffffffffff82811660048301523360248301527f00000000000000000000000000000000000000000000000000000000000000001690638929a8ca90604401602060405180830381865afa1580156112dc573d6000803e3d6000fd5b505050506040513d601f19601f820116820180604052508101906113009190611949565b1561130a57919050565b3391505090565b3660006104467fffffffffffffffffffffffffffffffffffffffffffffffffffffffffffffffec830182848161196b565b600081815b845181101561137d576113738286838151811061136657611366611708565b6020026020010151611385565b9150600101611347565b509392505050565b60008183106113a15760008281526020849052604090206113b0565b60008381526020839052604090205b9392505050565b6000602082840312156113c957600080fd5b81357fffffffff00000000000000000000000000000000000000000000000000000000811681146113b057600080fd5b60208152816020820152818360408301376000818301604090810191909152601f9092017fffffffffffffffffffffffffffffffffffffffffffffffffffffffffffffffe0160101919050565b803573ffffffffffffffffffffffffffffffffffffffff81168114610e0957600080fd5b6000806040838503121561147d57600080fd5b8235915061148d60208401611446565b90509250929050565b6000602082840312156114a857600080fd5b6113b082611446565b6000602082840312156114c357600080fd5b5035919050565b60008083601f8401126114dc57600080fd5b50813567ffffffffffffffff8111156114f457600080fd5b6020830191508360208260051b850101111561150f57600080fd5b9250929050565b60008083601f84011261152857600080fd5b50813567ffffffffffffffff81111561154057600080fd5b60208301915083602082850101111561150f57600080fd5b60008060008060008060008060a0898b03121561157457600080fd5b61157d89611446565b975061158b60208a01611446565b9650604089013567ffffffffffffffff808211156115a857600080fd5b6115b48c838d016114ca565b909850965060608b01359150808211156115cd57600080fd5b6115d98c838d016114ca565b909650945060808b01359150808211156115f257600080fd5b506115ff8b828c01611516565b999c989b5096995094979396929594505050565b60008060008060008060a0878903121561162c57600080fd5b61163587611446565b955061164360208801611446565b94506040870135935060608701359250608087013567ffffffffffffffff81111561166d57600080fd5b61167989828a01611516565b979a9699509497509295939492505050565b7f4e487b7100000000000000000000000000000000000000000000000000000000600052601160045260246000fd5b818103818111156104355761043561168b565b600082611703577f4e487b7100000000000000000000000000000000000000000000000000000000600052601260045260246000fd5b500490565b7f4e487b7100000000000000000000000000000000000000000000000000000000600052603260045260246000fd5b80820281158282048414176104355761043561168b565b808201808211156104355761043561168b565b7f4e487b7100000000000000000000000000000000000000000000000000000000600052604160045260246000fd5b600080604083850312156117a357600080fd5b823567ffffffffffffffff808211156117bb57600080fd5b818501915085601f8301126117cf57600080fd5b81356020828211156117e3576117e3611761565b8160051b6040517fffffffffffffffffffffffffffffffffffffffffffffffffffffffffffffffe0603f8301168101818110868211171561182657611826611761565b60405292835281830193508481018201928984111561184457600080fd5b948201945b8386101561186257853585529482019493820193611849565b9997909101359750505050505050565b81835260007f07ffffffffffffffffffffffffffffffffffffffffffffffffffffffffffffff8311156118a457600080fd5b8260051b80836020870137939093016020019392505050565b73ffffffffffffffffffffffffffffffffffffffff861681526060602082015260006118ed606083018688611872565b8281036040840152611900818587611872565b98975050505050505050565b60808152600061192060808301888a611872565b8281036020840152611933818789611872565b6040840195909552505060600152949350505050565b60006020828403121561195b57600080fd5b815180151581146113b057600080fd5b6000808585111561197b57600080fd5b8386111561198857600080fd5b505082019391909203915056fea2646970667358221220933e154547f5b83abcf1724bce388c0af915d6cfe0f5b24a47d39e5e3a0804d164736f6c63430008160033",
  "linkReferences": {},
  "deployedLinkReferences": {}
}