{
  "_format": "hh-sol-artifact-1",
  "contractName": "AnichessOrbsBurnPoolMock",
  "sourceName": "contracts/mocks/burn/AnichessOrbsBurnPoolMock.sol",
  "abi": [
    {
      "inputs": [
        {
          "internalType": "uint256",
          "name": "initialTime",
          "type": "uint256"
        },
        {
          "internalType": "uint256",
          "name": "cycleDuration",
          "type": "uint256"
        },
        {
          "internalType": "uint256",
          "name": "maxCycle",
          "type": "uint256"
        },
        {
          "internalType": "contract IERC1155Burnable",
          "name": "orbOfPower",
          "type": "address"
        },
        {
          "internalType": "bytes32",
          "name": "merkleRoot",
          "type": "bytes32"
        },
        {
          "internalType": "contract IERC1155Burnable",
          "name": "missingOrb",
          "type": "address"
        },
        {
          "internalType": "contract IForwarderRegistry",
          "name": "forwarderRegistry",
          "type": "address"
        }
      ],
      "stateMutability": "nonpayable",
      "type": "constructor"
    },
    {
      "inputs": [
        {
          "internalType": "bytes32",
          "name": "leaf",
          "type": "bytes32"
        }
      ],
      "name": "AlreadyConsumedLeaf",
      "type": "error"
    },
    {
      "inputs": [
        {
          "internalType": "address",
          "name": "recipient",
          "type": "address"
        }
      ],
      "name": "AlreadySetAnichessGameMultiplierNumerator",
      "type": "error"
    },
    {
      "inputs": [
        {
          "internalType": "address",
          "name": "wallet",
          "type": "address"
        }
      ],
      "name": "AlreadySetTokenMultiplier",
      "type": "error"
    },
    {
      "inputs": [],
      "name": "IllegalInterfaceId",
      "type": "error"
    },
    {
      "inputs": [
        {
          "internalType": "uint256",
          "name": "cycle",
          "type": "uint256"
        }
      ],
      "name": "InvalidCycle",
      "type": "error"
    },
    {
      "inputs": [],
      "name": "InvalidProof",
      "type": "error"
    },
    {
      "inputs": [
        {
          "internalType": "address",
          "name": "token",
          "type": "address"
        }
      ],
      "name": "InvalidToken",
      "type": "error"
    },
    {
      "inputs": [
        {
          "internalType": "address",
          "name": "token",
          "type": "address"
        },
        {
          "internalType": "uint256",
          "name": "tokenId",
          "type": "uint256"
        }
      ],
      "name": "InvalidTokenId",
      "type": "error"
    },
    {
      "inputs": [
        {
          "internalType": "uint256",
          "name": "value",
          "type": "uint256"
        },
        {
          "internalType": "uint256",
          "name": "expectedValue",
          "type": "uint256"
        }
      ],
      "name": "InvalidTokenValue",
      "type": "error"
    },
    {
      "inputs": [],
      "name": "ZeroCycleDuration",
      "type": "error"
    },
    {
      "inputs": [],
      "name": "ZeroMaxCycle",
      "type": "error"
    },
    {
      "anonymous": false,
      "inputs": [
        {
          "indexed": true,
          "internalType": "address",
          "name": "burner",
          "type": "address"
        },
        {
          "indexed": true,
          "internalType": "uint256",
          "name": "cycle",
          "type": "uint256"
        },
        {
          "indexed": false,
          "internalType": "uint256[]",
          "name": "ids",
          "type": "uint256[]"
        },
        {
          "indexed": false,
          "internalType": "uint256[]",
          "name": "values",
          "type": "uint256[]"
        },
        {
          "indexed": false,
          "internalType": "uint256",
          "name": "ash",
          "type": "uint256"
        },
        {
          "indexed": false,
          "internalType": "uint256",
          "name": "multiplierInfo",
          "type": "uint256"
        }
      ],
      "name": "GenerateAsh",
      "type": "event"
    },
    {
      "anonymous": false,
      "inputs": [
        {
          "indexed": true,
          "internalType": "address",
          "name": "recipient",
          "type": "address"
        },
        {
          "indexed": false,
          "internalType": "uint256",
          "name": "curr",
          "type": "uint256"
        },
        {
          "indexed": false,
          "internalType": "uint256",
          "name": "updated",
          "type": "uint256"
        }
      ],
      "name": "UpdateMultiplierInfo",
      "type": "event"
    },
    {
      "inputs": [],
      "name": "CYCLE_DURATION",
      "outputs": [
        {
          "internalType": "uint256",
          "name": "",
          "type": "uint256"
        }
      ],
      "stateMutability": "view",
      "type": "function"
    },
    {
      "inputs": [],
      "name": "INITIAL_TIME",
      "outputs": [
        {
          "internalType": "uint256",
          "name": "",
          "type": "uint256"
        }
      ],
      "stateMutability": "view",
      "type": "function"
    },
    {
      "inputs": [],
      "name": "MAX_CYCLE",
      "outputs": [
        {
          "internalType": "uint256",
          "name": "",
          "type": "uint256"
        }
      ],
      "stateMutability": "view",
      "type": "function"
    },
    {
      "inputs": [],
      "name": "MERKLE_ROOT",
      "outputs": [
        {
          "internalType": "bytes32",
          "name": "",
          "type": "bytes32"
        }
      ],
      "stateMutability": "view",
      "type": "function"
    },
    {
      "inputs": [],
      "name": "MISSING_ORB",
      "outputs": [
        {
          "internalType": "contract IERC1155Burnable",
          "name": "",
          "type": "address"
        }
      ],
      "stateMutability": "view",
      "type": "function"
    },
    {
      "inputs": [],
      "name": "ORB_OF_POWER",
      "outputs": [
        {
          "internalType": "contract IERC1155Burnable",
          "name": "",
          "type": "address"
        }
      ],
      "stateMutability": "view",
      "type": "function"
    },
    {
      "inputs": [],
      "name": "TOKEN_MULTIPLIER",
      "outputs": [
        {
          "internalType": "uint256",
          "name": "",
          "type": "uint256"
        }
      ],
      "stateMutability": "view",
      "type": "function"
    },
    {
      "inputs": [],
      "name": "__msgData",
      "outputs": [
        {
          "internalType": "bytes",
          "name": "",
          "type": "bytes"
        }
      ],
      "stateMutability": "view",
      "type": "function"
    },
    {
      "inputs": [],
      "name": "__msgSender",
      "outputs": [
        {
          "internalType": "address",
          "name": "",
          "type": "address"
        }
      ],
      "stateMutability": "view",
      "type": "function"
    },
    {
      "inputs": [],
      "name": "currentCycle",
      "outputs": [
        {
          "internalType": "uint256",
          "name": "",
          "type": "uint256"
        }
      ],
      "stateMutability": "view",
      "type": "function"
    },
    {
      "inputs": [],
      "name": "forwarderRegistry",
      "outputs": [
        {
          "internalType": "contract IForwarderRegistry",
          "name": "",
          "type": "address"
        }
      ],
      "stateMutability": "view",
      "type": "function"
    },
    {
      "inputs": [
        {
          "internalType": "address",
          "name": "forwarder",
          "type": "address"
        }
      ],
      "name": "isTrustedForwarder",
      "outputs": [
        {
          "internalType": "bool",
          "name": "",
          "type": "bool"
        }
      ],
      "stateMutability": "view",
      "type": "function"
    },
    {
      "inputs": [
        {
          "internalType": "bytes32",
          "name": "",
          "type": "bytes32"
        }
      ],
      "name": "leafConsumptionStatus",
      "outputs": [
        {
          "internalType": "bool",
          "name": "",
          "type": "bool"
        }
      ],
      "stateMutability": "view",
      "type": "function"
    },
    {
      "inputs": [
        {
          "internalType": "address",
          "name": "",
          "type": "address"
        }
      ],
      "name": "multiplierInfos",
      "outputs": [
        {
          "internalType": "uint256",
          "name": "",
          "type": "uint256"
        }
      ],
      "stateMutability": "view",
      "type": "function"
    },
    {
      "inputs": [
        {
          "internalType": "address",
          "name": "",
          "type": "address"
        },
        {
          "internalType": "address",
          "name": "from",
          "type": "address"
        },
        {
          "internalType": "uint256[]",
          "name": "ids",
          "type": "uint256[]"
        },
        {
          "internalType": "uint256[]",
          "name": "values",
          "type": "uint256[]"
        },
        {
          "internalType": "bytes",
          "name": "data",
          "type": "bytes"
        }
      ],
      "name": "onERC1155BatchReceived",
      "outputs": [
        {
          "internalType": "bytes4",
          "name": "",
          "type": "bytes4"
        }
      ],
      "stateMutability": "nonpayable",
      "type": "function"
    },
    {
      "inputs": [
        {
          "internalType": "address",
          "name": "",
          "type": "address"
        },
        {
          "internalType": "address",
          "name": "from",
          "type": "address"
        },
        {
          "internalType": "uint256",
          "name": "id",
          "type": "uint256"
        },
        {
          "internalType": "uint256",
          "name": "value",
          "type": "uint256"
        },
        {
          "internalType": "bytes",
          "name": "data",
          "type": "bytes"
        }
      ],
      "name": "onERC1155Received",
      "outputs": [
        {
          "internalType": "bytes4",
          "name": "",
          "type": "bytes4"
        }
      ],
      "stateMutability": "nonpayable",
      "type": "function"
    },
    {
      "inputs": [
        {
          "internalType": "bytes4",
          "name": "interfaceId",
          "type": "bytes4"
        }
      ],
      "name": "supportsInterface",
      "outputs": [
        {
          "internalType": "bool",
          "name": "",
          "type": "bool"
        }
      ],
      "stateMutability": "view",
      "type": "function"
    },
    {
      "inputs": [
        {
          "internalType": "uint256",
          "name": "",
          "type": "uint256"
        }
      ],
      "name": "totalAshByCycle",
      "outputs": [
        {
          "internalType": "uint256",
          "name": "",
          "type": "uint256"
        }
      ],
      "stateMutability": "view",
      "type": "function"
    },
    {
      "inputs": [
        {
          "internalType": "uint256",
          "name": "",
          "type": "uint256"
        },
        {
          "internalType": "address",
          "name": "",
          "type": "address"
        }
      ],
      "name": "userAshByCycle",
      "outputs": [
        {
          "internalType": "uint256",
          "name": "",
          "type": "uint256"
        }
      ],
      "stateMutability": "view",
      "type": "function"
    }
  ],
  "bytecode": "0x6101606040523480156200001257600080fd5b506040516200200338038062002003833981016040819052620000359162000194565b6001600160a01b0381166080528686868686868662000069630271189760e51b600162000061620000e8565b91906200011e565b60c08790526000869003620000915760405163b870efbd60e01b815260040160405180910390fd5b60e08690526000859003620000b957604051637e5e559b60e11b815260040160405180910390fd5b5061010093909352610140526001600160a01b03918216610120521660a0525062000231975050505050505050565b6000806200011860017fca9d3e17f264b0f3984e2634e94adb37fa3e6a8103f06aeae6fa59e21c769f5e6200020f565b92915050565b600160e01b6001600160e01b03198316016200014d576040516372c683bb60e01b815260040160405180910390fd5b6001600160e01b03199190911660009081526020929092526040909120805460ff1916911515919091179055565b6001600160a01b03811681146200019157600080fd5b50565b600080600080600080600060e0888a031215620001b057600080fd5b8751965060208801519550604088015194506060880151620001d2816200017b565b608089015160a08a01519195509350620001ec816200017b565b60c0890151909250620001ff816200017b565b8091505092959891949750929550565b818103818111156200011857634e487b7160e01b600052601160045260246000fd5b60805160a05160c05160e051610100516101205161014051611d23620002e06000396000818161026f015261102001526000818161036f0152610afd015260008181610183015281816105300152610beb015260008181610396015261045201526000818161024801526104760152600081816101b801526104c4015260008181610209015281816102a1015281816112e9015281816113270152818161148101526115090152611d236000f3fe608060405234801561001057600080fd5b50600436106101515760003560e01c80636dca8c06116100cd578063cd421fbf11610081578063e1c96c2011610066578063e1c96c20146103c0578063f23a6e61146103e3578063fa9fdc6a146103f657600080fd5b8063cd421fbf14610391578063d1a91ff2146103b857600080fd5b8063bab2f552116100b2578063bab2f5521461031e578063bc197c8114610326578063cd18a34f1461036a57600080fd5b80636dca8c06146102de578063b28fd6e6146102fe57600080fd5b80632b4c9f1611610124578063491bde6611610109578063491bde661461024357806351e75e8b1461026a578063572b6c051461029157600080fd5b80632b4c9f161461020757806331e66e1e1461022d57600080fd5b806301ffc9a714610156578063043063bc1461017e57806328a979cf146101b35780632b093fe9146101ff575b600080fd5b61016961016436600461164c565b610421565b60405190151581526020015b60405180910390f35b6101a57f000000000000000000000000000000000000000000000000000000000000000081565b604051908152602001610175565b6101da7f000000000000000000000000000000000000000000000000000000000000000081565b60405173ffffffffffffffffffffffffffffffffffffffff9091168152602001610175565b6101a5600281565b7f00000000000000000000000000000000000000000000000000000000000000006101da565b61023561043b565b60405161017592919061168e565b6101a57f000000000000000000000000000000000000000000000000000000000000000081565b6101a57f000000000000000000000000000000000000000000000000000000000000000081565b61016961029f366004611704565b7f000000000000000000000000000000000000000000000000000000000000000073ffffffffffffffffffffffffffffffffffffffff90811691161490565b6101a56102ec36600461171f565b60006020819052908152604090205481565b6101a561030c366004611704565b60036020526000908152604090205481565b6101a561044e565b6103396103343660046117c6565b6104aa565b6040517fffffffff000000000000000000000000000000000000000000000000000000009091168152602001610175565b6101da7f000000000000000000000000000000000000000000000000000000000000000081565b6101a57f000000000000000000000000000000000000000000000000000000000000000081565b6101da610ad9565b6101696103ce36600461171f565b60026020526000908152604090205460ff1681565b6103396103f1366004611881565b610ae3565b6101a56104043660046118f9565b600160209081526000928352604080842090915290825290205481565b60006104358261042f610e3d565b90610e6b565b92915050565b366000610446610f45565b915091509091565b60007f000000000000000000000000000000000000000000000000000000000000000061049b7f000000000000000000000000000000000000000000000000000000000000000042611954565b6104a59190611967565b905090565b60003373ffffffffffffffffffffffffffffffffffffffff7f00000000000000000000000000000000000000000000000000000000000000001614610522576040517f961c9a4f0000000000000000000000000000000000000000000000000000000081523360048201526024015b60405180910390fd5b600061052c61044e565b90507f000000000000000000000000000000000000000000000000000000000000000081111561058b576040517f764e560f00000000000000000000000000000000000000000000000000000000815260048101829052602401610519565b6000805b888110156107cd5760008a8a838181106105ab576105ab6119a2565b905060200201356001036105c15750600161071d565b8a8a838181106105d3576105d36119a2565b905060200201356002036105e95750600361071d565b8a8a838181106105fb576105fb6119a2565b905060200201356003036106115750600361071d565b8a8a83818110610623576106236119a2565b905060200201356004036106395750600561071d565b8a8a8381811061064b5761064b6119a2565b905060200201356005036106615750600961071d565b8a8a83818110610673576106736119a2565b905060200201356006036106895750601961071d565b8a8a8381811061069b5761069b6119a2565b905060200201356007036106b15750601061071d565b338b8b848181106106c4576106c46119a2565b6040517f1912ea5100000000000000000000000000000000000000000000000000000000815273ffffffffffffffffffffffffffffffffffffffff90941660048501526020029190910135602483015250604401610519565b88888381811061072f5761072f6119a2565b905060200201356000036107945788888381811061074f5761074f6119a2565b6040517ff3cc8ce40000000000000000000000000000000000000000000000000000000081526020909102929092013560048301525060006024820152604401610519565b808989848181106107a7576107a76119a2565b905060200201356107b891906119d1565b6107c290846119e8565b92505060010161058f565b5073ffffffffffffffffffffffffffffffffffffffff8a1660009081526003602052604090205484156108e15760008061080987890189611a2a565b91509150610819828e8584610f50565b92506000600360008f73ffffffffffffffffffffffffffffffffffffffff1673ffffffffffffffffffffffffffffffffffffffff16815260200190815260200160002054905061089e6040518060400160405280601881526020017f6d756c7469706c696572496e666f2073746f726167653a20000000000000000081525082611182565b6108dd6040518060400160405280600681526020017f66726f6d3a2000000000000000000000000000000000000000000000000000008152508f611217565b5050505b6fffffffffffffffffffffffffffffffff8116608082901c811561090c5761090982856119d1565b93505b6fffffffffffffffffffffffffffffffff811615610950576127106109436fffffffffffffffffffffffffffffffff8316866119d1565b61094d9190611967565b93505b836001600087815260200190815260200160002060008f73ffffffffffffffffffffffffffffffffffffffff1673ffffffffffffffffffffffffffffffffffffffff16815260200190815260200160002060008282546109b091906119e8565b9091555050600085815260208190526040812080548692906109d39084906119e8565b925050819055503373ffffffffffffffffffffffffffffffffffffffff166380534934308e8e8e8e6040518663ffffffff1660e01b8152600401610a1b959493929190611b57565b600060405180830381600087803b158015610a3557600080fd5b505af1158015610a49573d6000803e3d6000fd5b50505050848d73ffffffffffffffffffffffffffffffffffffffff167f607d04b62b6720200ee29c63ac2e4b0aa4024c85f7b80181ac61d6bb6f5e797a8e8e8e8e8a8a604051610a9e96959493929190611ba6565b60405180910390a3507fbc197c81000000000000000000000000000000000000000000000000000000009d9c50505050505050505050505050565b60006104a56112a8565b60003373ffffffffffffffffffffffffffffffffffffffff7f00000000000000000000000000000000000000000000000000000000000000001614610b56576040517f961c9a4f000000000000000000000000000000000000000000000000000000008152336004820152602401610519565b60018514610b99576040517f1912ea5100000000000000000000000000000000000000000000000000000000815233600482015260248101869052604401610519565b83600114610bdd576040517ff3cc8ce40000000000000000000000000000000000000000000000000000000081526004810185905260016024820152604401610519565b6000610be761044e565b90507f0000000000000000000000000000000000000000000000000000000000000000811115610c46576040517f764e560f00000000000000000000000000000000000000000000000000000000815260048101829052602401610519565b73ffffffffffffffffffffffffffffffffffffffff87166000908152600360205260409020546fffffffffffffffffffffffffffffffff811615610cce576040517f55c9045d00000000000000000000000000000000000000000000000000000000815273ffffffffffffffffffffffffffffffffffffffff89166004820152602401610519565b73ffffffffffffffffffffffffffffffffffffffff881660009081526003602052604090207fffffffffffffffffffffffffffffffff000000000000000000000000000000008216600217908190558415610d4657600080610d3287890189611a2a565b91509150610d42828c8584610f50565b5050505b6040517f124d91e50000000000000000000000000000000000000000000000000000000081523060048201526024810189905260448101889052339063124d91e590606401600060405180830381600087803b158015610da557600080fd5b505af1158015610db9573d6000803e3d6000fd5b5050604080518581526020810185905273ffffffffffffffffffffffffffffffffffffffff8d1693507f54519572e3429998e82594d8b7f18c8099087447d701cbaa619b5e26f6de47eb92500160405180910390a2507ff23a6e61000000000000000000000000000000000000000000000000000000009998505050505050505050565b60008061043560017fca9d3e17f264b0f3984e2634e94adb37fa3e6a8103f06aeae6fa59e21c769f5e611954565b60007c01000000000000000000000000000000000000000000000000000000007fffffffff00000000000000000000000000000000000000000000000000000000831601610ebb57506000610435565b7ffe003659000000000000000000000000000000000000000000000000000000007fffffffff00000000000000000000000000000000000000000000000000000000831601610f0c57506001610435565b507fffffffff00000000000000000000000000000000000000000000000000000000166000908152602091909152604090205460ff1690565b3660006104466112b2565b6000608083901c15610fa6576040517f18ed059000000000000000000000000000000000000000000000000000000000815273ffffffffffffffffffffffffffffffffffffffff85166004820152602401610519565b6040517fffffffffffffffffffffffffffffffffffffffff000000000000000000000000606086901b16602082015260348101839052600090605401604080517fffffffffffffffffffffffffffffffffffffffffffffffffffffffffffffffe081840301815291905280516020909101209050611045867f00000000000000000000000000000000000000000000000000000000000000008361141c565b61107b576040517f09bde33900000000000000000000000000000000000000000000000000000000815260040160405180910390fd5b60008181526002602052604090205460ff16156110c7576040517f689301e800000000000000000000000000000000000000000000000000000000815260048101829052602401610519565b73ffffffffffffffffffffffffffffffffffffffff851660008181526003602090815260408083206fffffffffffffffffffffffffffffffff8916608089901b1790819055858452600283529281902080547fffffffffffffffffffffffffffffffffffffffffffffffffffffffffffffff0016600117905580518881529182018390529194507f54519572e3429998e82594d8b7f18c8099087447d701cbaa619b5e26f6de47eb910160405180910390a250949350505050565b6112138282604051602401611198929190611c47565b604080517fffffffffffffffffffffffffffffffffffffffffffffffffffffffffffffffe08184030181529190526020810180517bffffffffffffffffffffffffffffffffffffffffffffffffffffffff167fb60e72cc00000000000000000000000000000000000000000000000000000000179052611432565b5050565b611213828260405160240161122d929190611c69565b604080517fffffffffffffffffffffffffffffffffffffffffffffffffffffffffffffffe08184030181529190526020810180517bffffffffffffffffffffffffffffffffffffffffffffffffffffffff167f319af33300000000000000000000000000000000000000000000000000000000179052611432565b60006104a561143e565b366000333214806112c35750601836105b156112d15750600091369150565b3373ffffffffffffffffffffffffffffffffffffffff7f0000000000000000000000000000000000000000000000000000000000000000161480611406575073ffffffffffffffffffffffffffffffffffffffff7f000000000000000000000000000000000000000000000000000000000000000016638929a8ca367fffffffffffffffffffffffffffffffffffffffffffffffffffffffffffffffec013560601c6040517fffffffff0000000000000000000000000000000000000000000000000000000060e084901b16815273ffffffffffffffffffffffffffffffffffffffff9091166004820152336024820152604401602060405180830381865afa1580156113e2573d6000803e3d6000fd5b505050506040513d601f19601f820116820180604052508101906114069190611ca1565b1561141357610446611585565b50600091369150565b60008261142985846115b6565b14949350505050565b61143b816115f9565b50565b60003332148061144e5750601836105b1561145857503390565b7fffffffffffffffffffffffffffffffffffffffffffffffffffffffffffffffec36013560601c7f000000000000000000000000000000000000000000000000000000000000000073ffffffffffffffffffffffffffffffffffffffff1633148061157457506040517f8929a8ca00000000000000000000000000000000000000000000000000000000815273ffffffffffffffffffffffffffffffffffffffff82811660048301523360248301527f00000000000000000000000000000000000000000000000000000000000000001690638929a8ca90604401602060405180830381865afa158015611550573d6000803e3d6000fd5b505050506040513d601f19601f820116820180604052508101906115749190611ca1565b1561157e57919050565b3391505090565b3660006104467fffffffffffffffffffffffffffffffffffffffffffffffffffffffffffffffec8301828481611cc3565b600081815b84518110156115f1576115e7828683815181106115da576115da6119a2565b602002602001015161161a565b91506001016115bb565b509392505050565b60006a636f6e736f6c652e6c6f679050600080835160208501845afa505050565b6000818310611636576000828152602084905260409020611645565b60008381526020839052604090205b9392505050565b60006020828403121561165e57600080fd5b81357fffffffff000000000000000000000000000000000000000000000000000000008116811461164557600080fd5b60208152816020820152818360408301376000818301604090810191909152601f9092017fffffffffffffffffffffffffffffffffffffffffffffffffffffffffffffffe0160101919050565b803573ffffffffffffffffffffffffffffffffffffffff811681146116ff57600080fd5b919050565b60006020828403121561171657600080fd5b611645826116db565b60006020828403121561173157600080fd5b5035919050565b60008083601f84011261174a57600080fd5b50813567ffffffffffffffff81111561176257600080fd5b6020830191508360208260051b850101111561177d57600080fd5b9250929050565b60008083601f84011261179657600080fd5b50813567ffffffffffffffff8111156117ae57600080fd5b60208301915083602082850101111561177d57600080fd5b60008060008060008060008060a0898b0312156117e257600080fd5b6117eb896116db565b97506117f960208a016116db565b9650604089013567ffffffffffffffff8082111561181657600080fd5b6118228c838d01611738565b909850965060608b013591508082111561183b57600080fd5b6118478c838d01611738565b909650945060808b013591508082111561186057600080fd5b5061186d8b828c01611784565b999c989b5096995094979396929594505050565b60008060008060008060a0878903121561189a57600080fd5b6118a3876116db565b95506118b1602088016116db565b94506040870135935060608701359250608087013567ffffffffffffffff8111156118db57600080fd5b6118e789828a01611784565b979a9699509497509295939492505050565b6000806040838503121561190c57600080fd5b8235915061191c602084016116db565b90509250929050565b7f4e487b7100000000000000000000000000000000000000000000000000000000600052601160045260246000fd5b8181038181111561043557610435611925565b60008261199d577f4e487b7100000000000000000000000000000000000000000000000000000000600052601260045260246000fd5b500490565b7f4e487b7100000000000000000000000000000000000000000000000000000000600052603260045260246000fd5b808202811582820484141761043557610435611925565b8082018082111561043557610435611925565b7f4e487b7100000000000000000000000000000000000000000000000000000000600052604160045260246000fd5b60008060408385031215611a3d57600080fd5b823567ffffffffffffffff80821115611a5557600080fd5b818501915085601f830112611a6957600080fd5b8135602082821115611a7d57611a7d6119fb565b8160051b6040517fffffffffffffffffffffffffffffffffffffffffffffffffffffffffffffffe0603f83011681018181108682111715611ac057611ac06119fb565b604052928352818301935084810182019289841115611ade57600080fd5b948201945b83861015611afc57853585529482019493820193611ae3565b9997909101359750505050505050565b81835260007f07ffffffffffffffffffffffffffffffffffffffffffffffffffffffffffffff831115611b3e57600080fd5b8260051b80836020870137939093016020019392505050565b73ffffffffffffffffffffffffffffffffffffffff86168152606060208201526000611b87606083018688611b0c565b8281036040840152611b9a818587611b0c565b98975050505050505050565b608081526000611bba60808301888a611b0c565b8281036020840152611bcd818789611b0c565b6040840195909552505060600152949350505050565b6000815180845260005b81811015611c0957602081850181015186830182015201611bed565b5060006020828601015260207fffffffffffffffffffffffffffffffffffffffffffffffffffffffffffffffe0601f83011685010191505092915050565b604081526000611c5a6040830185611be3565b90508260208301529392505050565b604081526000611c7c6040830185611be3565b905073ffffffffffffffffffffffffffffffffffffffff831660208301529392505050565b600060208284031215611cb357600080fd5b8151801515811461164557600080fd5b60008085851115611cd357600080fd5b83861115611ce057600080fd5b505082019391909203915056fea2646970667358221220eb3a05e9a5eecf3f5d04d9d76ebfe97a02b9d83201bece3213045a8a887ce86664736f6c63430008160033",
  "linkReferences": {},
  "deployedLinkReferences": {}
}