{
  "_format": "hh-sol-artifact-1",
  "contractName": "BitmapClaimMockReentrancyAttack",
  "sourceName": "contracts/mocks/bitmapClaim/BitmapClaimMockReentrancyAttack.sol",
  "abi": [
    {
      "inputs": [
        {
          "internalType": "address",
          "name": "recipient",
          "type": "address"
        },
        {
          "internalType": "uint256",
          "name": "claimBits",
          "type": "uint256"
        },
        {
          "internalType": "uint256",
          "name": "claimedBitmap",
          "type": "uint256"
        }
      ],
      "name": "AlreadyClaimed",
      "type": "error"
    },
    {
      "inputs": [
        {
          "internalType": "uint256",
          "name": "claimBitPosition",
          "type": "uint256"
        }
      ],
      "name": "DuplicateClaimBit",
      "type": "error"
    },
    {
      "inputs": [],
      "name": "IllegalInterfaceId",
      "type": "error"
    },
    {
      "inputs": [
        {
          "internalType": "uint256",
          "name": "claimBits",
          "type": "uint256"
        },
        {
          "internalType": "uint256",
          "name": "maxBitCount",
          "type": "uint256"
        }
      ],
      "name": "InvalidBitPosition",
      "type": "error"
    },
    {
      "inputs": [
        {
          "internalType": "address",
          "name": "account",
          "type": "address"
        }
      ],
      "name": "NotContractOwner",
      "type": "error"
    },
    {
      "inputs": [],
      "name": "ZeroLengthClaimBitPositions",
      "type": "error"
    },
    {
      "anonymous": false,
      "inputs": [
        {
          "indexed": true,
          "internalType": "uint256",
          "name": "bitPosition",
          "type": "uint256"
        },
        {
          "indexed": true,
          "internalType": "uint256",
          "name": "value",
          "type": "uint256"
        }
      ],
      "name": "BitValueSet",
      "type": "event"
    },
    {
      "anonymous": false,
      "inputs": [
        {
          "indexed": true,
          "internalType": "address",
          "name": "recipient",
          "type": "address"
        },
        {
          "indexed": true,
          "internalType": "uint256",
          "name": "oldBitmap",
          "type": "uint256"
        },
        {
          "indexed": true,
          "internalType": "uint256",
          "name": "newBitmap",
          "type": "uint256"
        }
      ],
      "name": "Claimed",
      "type": "event"
    },
    {
      "anonymous": false,
      "inputs": [
        {
          "indexed": true,
          "internalType": "address",
          "name": "previousOwner",
          "type": "address"
        },
        {
          "indexed": true,
          "internalType": "address",
          "name": "newOwner",
          "type": "address"
        }
      ],
      "name": "OwnershipTransferred",
      "type": "event"
    },
    {
      "inputs": [
        {
          "internalType": "uint256",
          "name": "value",
          "type": "uint256"
        }
      ],
      "name": "addBitValue",
      "outputs": [],
      "stateMutability": "nonpayable",
      "type": "function"
    },
    {
      "inputs": [
        {
          "internalType": "uint256",
          "name": "bitPosition",
          "type": "uint256"
        }
      ],
      "name": "bitPositionValueMap",
      "outputs": [
        {
          "internalType": "uint256",
          "name": "value",
          "type": "uint256"
        }
      ],
      "stateMutability": "view",
      "type": "function"
    },
    {
      "inputs": [
        {
          "internalType": "address",
          "name": "recipient",
          "type": "address"
        },
        {
          "internalType": "uint256[]",
          "name": "claimBitPositions",
          "type": "uint256[]"
        },
        {
          "internalType": "bytes",
          "name": "validationData",
          "type": "bytes"
        }
      ],
      "name": "claim",
      "outputs": [],
      "stateMutability": "nonpayable",
      "type": "function"
    },
    {
      "inputs": [
        {
          "internalType": "address",
          "name": "recipient",
          "type": "address"
        }
      ],
      "name": "claimed",
      "outputs": [
        {
          "internalType": "uint256",
          "name": "bitmap",
          "type": "uint256"
        }
      ],
      "stateMutability": "view",
      "type": "function"
    },
    {
      "inputs": [],
      "name": "maxBitCount",
      "outputs": [
        {
          "internalType": "uint256",
          "name": "",
          "type": "uint256"
        }
      ],
      "stateMutability": "view",
      "type": "function"
    },
    {
      "inputs": [],
      "name": "owner",
      "outputs": [
        {
          "internalType": "address",
          "name": "",
          "type": "address"
        }
      ],
      "stateMutability": "view",
      "type": "function"
    },
    {
      "inputs": [
        {
          "internalType": "bool",
          "name": "enabled",
          "type": "bool"
        }
      ],
      "name": "setEnableValidateClaimReentrancy",
      "outputs": [],
      "stateMutability": "nonpayable",
      "type": "function"
    },
    {
      "inputs": [
        {
          "internalType": "bytes4",
          "name": "interfaceId",
          "type": "bytes4"
        }
      ],
      "name": "supportsInterface",
      "outputs": [
        {
          "internalType": "bool",
          "name": "",
          "type": "bool"
        }
      ],
      "stateMutability": "view",
      "type": "function"
    },
    {
      "inputs": [
        {
          "internalType": "address",
          "name": "newOwner",
          "type": "address"
        }
      ],
      "name": "transferOwnership",
      "outputs": [],
      "stateMutability": "nonpayable",
      "type": "function"
    }
  ],
  "bytecode": "0x608060405234801561001057600080fd5b50336100248161001e61002a565b9061005e565b5061017f565b60008061005860017fc9ed16f33ab3a66c84bfd83099ccb2a8845871e2e1c1928f63797152f0fd54cd61015e565b92915050565b6001600160a01b038116156100b45781546001600160a01b0319166001600160a01b03821690811783556040516000907f8be0079c531659141344cd1fd0a4f28419497f9722a3daafe3b4186f6b6457e0908290a35b6100d06307f5828d60e41b60016100c96100d4565b9190610102565b5050565b60008061005860017fca9d3e17f264b0f3984e2634e94adb37fa3e6a8103f06aeae6fa59e21c769f5e61015e565b600160e01b6001600160e01b0319831601610130576040516372c683bb60e01b815260040160405180910390fd5b6001600160e01b03199190911660009081526020929092526040909120805460ff1916911515919091179055565b8181038181111561005857634e487b7160e01b600052601160045260246000fd5b610ca08061018e6000396000f3fe608060405234801561001057600080fd5b50600436106100a25760003560e01c80635c1a0ea4116100765780638da5cb5b1161005b5780638da5cb5b1461016d578063c884ef831461019a578063f2fde38b146101ba57600080fd5b80635c1a0ea4146101255780636844b0191461016457600080fd5b8062cfbb85146100a757806301ffc9a7146100bc57806312a53fdd146100e45780634a1e2ab714610112575b600080fd5b6100ba6100b5366004610916565b6101cd565b005b6100cf6100ca3660046109c8565b610406565b60405190151581526020015b60405180910390f35b6101046100f2366004610a11565b60026020526000908152604090205481565b6040519081526020016100db565b6100ba610120366004610a11565b610420565b6100ba610133366004610a2a565b600380547fffffffffffffffffffffffffffffffffffffffffffffffffffffffffffffff0016911515919091179055565b61010460005481565b610175610485565b60405173ffffffffffffffffffffffffffffffffffffffff90911681526020016100db565b6101046101a8366004610a4c565b60016020526000908152604090205481565b6100ba6101c8366004610a4c565b6104b1565b826000819003610209576040517fafec630d00000000000000000000000000000000000000000000000000000000815260040160405180910390fd5b60008060005b838110156102a357600088888381811061022b5761022b610a67565b60200291909101359150506001811b8481161561027c576040517f4be1d8b9000000000000000000000000000000000000000000000000000000008152600481018390526024015b60405180910390fd5b6000828152600260205260409020546102959085610ac5565b94179392505060010161020f565b5060005482811c156102eb576040517fea4662120000000000000000000000000000000000000000000000000000000081526004810184905260248101829052604401610273565b73ffffffffffffffffffffffffffffffffffffffff891660009081526001602052604090205483811615610371576040517f6508823200000000000000000000000000000000000000000000000000000000815273ffffffffffffffffffffffffffffffffffffffff8b1660048201526024810185905260448101829052606401610273565b73ffffffffffffffffffffffffffffffffffffffff8a166000908152600160205260409020818517908190556103aa8b8b8b8b8b6104c8565b6103b48b8561054f565b80828c73ffffffffffffffffffffffffffffffffffffffff167f987d620f307ff6b94d58743cb7a7509f24071586a77759b77c2d4e29f75a2f9a60405160405180910390a45050505050505050505050565b600061041a826104146105ea565b90610618565b92915050565b6104323361042c6106f2565b90610720565b6000805480825260026020526040909120829055610451816001610ac5565b6000908155604051839183917f8e17f10a809a83084393f091eeb493166c6d7d75f0227161b2dfe9f3867a431e9190a35050565b60006104ac6104926106f2565b5473ffffffffffffffffffffffffffffffffffffffff1690565b905090565b6104c533826104be6106f2565b919061078f565b50565b60035460ff1615610548576040517ecfbb85000000000000000000000000000000000000000000000000000000008152309062cfbb85906105159088908890889088908890600401610ad8565b600060405180830381600087803b15801561052f57600080fd5b505af1158015610543573d6000803e3d6000fd5b505050505b5050505050565b6040805160018082528183019092526000916020808301908036833750506040517ecfbb8500000000000000000000000000000000000000000000000000000000815291925060609130915062cfbb85906105b290879086908690600401610b94565b600060405180830381600087803b1580156105cc57600080fd5b505af11580156105e0573d6000803e3d6000fd5b5050505050505050565b60008061041a60017fca9d3e17f264b0f3984e2634e94adb37fa3e6a8103f06aeae6fa59e21c769f5e610c57565b60007c01000000000000000000000000000000000000000000000000000000007fffffffff000000000000000000000000000000000000000000000000000000008316016106685750600061041a565b7ffe003659000000000000000000000000000000000000000000000000000000007fffffffff000000000000000000000000000000000000000000000000000000008316016106b95750600161041a565b507fffffffff00000000000000000000000000000000000000000000000000000000166000908152602091909152604090205460ff1690565b60008061041a60017fc9ed16f33ab3a66c84bfd83099ccb2a8845871e2e1c1928f63797152f0fd54cd610c57565b815473ffffffffffffffffffffffffffffffffffffffff82811691161461078b576040517f2ef4875e00000000000000000000000000000000000000000000000000000000815273ffffffffffffffffffffffffffffffffffffffff82166004820152602401610273565b5050565b825473ffffffffffffffffffffffffffffffffffffffff90811690831681146107fc576040517f2ef4875e00000000000000000000000000000000000000000000000000000000815273ffffffffffffffffffffffffffffffffffffffff84166004820152602401610273565b8173ffffffffffffffffffffffffffffffffffffffff168173ffffffffffffffffffffffffffffffffffffffff161461089e5783547fffffffffffffffffffffffff00000000000000000000000000000000000000001673ffffffffffffffffffffffffffffffffffffffff8381169182178655604051908316907f8be0079c531659141344cd1fd0a4f28419497f9722a3daafe3b4186f6b6457e090600090a35b50505050565b803573ffffffffffffffffffffffffffffffffffffffff811681146108c857600080fd5b919050565b60008083601f8401126108df57600080fd5b50813567ffffffffffffffff8111156108f757600080fd5b60208301915083602082850101111561090f57600080fd5b9250929050565b60008060008060006060868803121561092e57600080fd5b610937866108a4565b9450602086013567ffffffffffffffff8082111561095457600080fd5b818801915088601f83011261096857600080fd5b81358181111561097757600080fd5b8960208260051b850101111561098c57600080fd5b6020830196508095505060408801359150808211156109aa57600080fd5b506109b7888289016108cd565b969995985093965092949392505050565b6000602082840312156109da57600080fd5b81357fffffffff0000000000000000000000000000000000000000000000000000000081168114610a0a57600080fd5b9392505050565b600060208284031215610a2357600080fd5b5035919050565b600060208284031215610a3c57600080fd5b81358015158114610a0a57600080fd5b600060208284031215610a5e57600080fd5b610a0a826108a4565b7f4e487b7100000000000000000000000000000000000000000000000000000000600052603260045260246000fd5b7f4e487b7100000000000000000000000000000000000000000000000000000000600052601160045260246000fd5b8082018082111561041a5761041a610a96565b73ffffffffffffffffffffffffffffffffffffffff861681526060602082015283606082015260007f07ffffffffffffffffffffffffffffffffffffffffffffffffffffffffffffff851115610b2d57600080fd5b8460051b808760808501378201828103608090810160408501528101849052838560a0830137600060a0858301015260a07fffffffffffffffffffffffffffffffffffffffffffffffffffffffffffffffe0601f8601168201019150509695505050505050565b60006060820173ffffffffffffffffffffffffffffffffffffffff861683526020606081850152818651808452608086019150828801935060005b81811015610beb57845183529383019391830191600101610bcf565b505084810360408601528551925082815260005b83811015610c1a578681018301518282018401528201610bff565b506000818401830152601f9092017fffffffffffffffffffffffffffffffffffffffffffffffffffffffffffffffe0169091010195945050505050565b8181038181111561041a5761041a610a9656fea2646970667358221220056e31e4e5e4b3eac861bd21b6b87a896b615995243793cf196a812d89ec942964736f6c63430008160033",
  "linkReferences": {},
  "deployedLinkReferences": {}
}