{
  "_format": "hh-sol-artifact-1",
  "contractName": "BitmapClaimMockReentrancyAttack",
  "sourceName": "contracts/mocks/bitmapClaim/BitmapClaimMockReentrancyAttack.sol",
  "abi": [
    {
      "inputs": [
        {
          "internalType": "address",
          "name": "recipient",
          "type": "address"
        },
        {
          "internalType": "uint256",
          "name": "claimBits",
          "type": "uint256"
        },
        {
          "internalType": "uint256",
          "name": "claimedBitmap",
          "type": "uint256"
        }
      ],
      "name": "AlreadyClaimed",
      "type": "error"
    },
    {
      "inputs": [
        {
          "internalType": "uint256",
          "name": "claimBitPosition",
          "type": "uint256"
        }
      ],
      "name": "DuplicateClaimBit",
      "type": "error"
    },
    {
      "inputs": [],
      "name": "IllegalInterfaceId",
      "type": "error"
    },
    {
      "inputs": [
        {
          "internalType": "uint256",
          "name": "claimBits",
          "type": "uint256"
        },
        {
          "internalType": "uint256",
          "name": "maxBitCount",
          "type": "uint256"
        }
      ],
      "name": "InvalidBitPosition",
      "type": "error"
    },
    {
      "inputs": [
        {
          "internalType": "address",
          "name": "account",
          "type": "address"
        }
      ],
      "name": "NotContractOwner",
      "type": "error"
    },
    {
      "inputs": [],
      "name": "ZeroLengthClaimBitPositions",
      "type": "error"
    },
    {
      "anonymous": false,
      "inputs": [
        {
          "indexed": true,
          "internalType": "uint256",
          "name": "bitPosition",
          "type": "uint256"
        },
        {
          "indexed": true,
          "internalType": "uint256",
          "name": "value",
          "type": "uint256"
        }
      ],
      "name": "BitValueSet",
      "type": "event"
    },
    {
      "anonymous": false,
      "inputs": [
        {
          "indexed": true,
          "internalType": "address",
          "name": "recipient",
          "type": "address"
        },
        {
          "indexed": true,
          "internalType": "uint256",
          "name": "oldBitmap",
          "type": "uint256"
        },
        {
          "indexed": true,
          "internalType": "uint256",
          "name": "newBitmap",
          "type": "uint256"
        }
      ],
      "name": "Claimed",
      "type": "event"
    },
    {
      "anonymous": false,
      "inputs": [
        {
          "indexed": false,
          "internalType": "address",
          "name": "recipient",
          "type": "address"
        },
        {
          "indexed": false,
          "internalType": "uint256",
          "name": "amount",
          "type": "uint256"
        }
      ],
      "name": "DeliverCalled",
      "type": "event"
    },
    {
      "anonymous": false,
      "inputs": [
        {
          "indexed": true,
          "internalType": "address",
          "name": "previousOwner",
          "type": "address"
        },
        {
          "indexed": true,
          "internalType": "address",
          "name": "newOwner",
          "type": "address"
        }
      ],
      "name": "OwnershipTransferred",
      "type": "event"
    },
    {
      "anonymous": false,
      "inputs": [
        {
          "indexed": false,
          "internalType": "address",
          "name": "recipient",
          "type": "address"
        },
        {
          "indexed": false,
          "internalType": "uint256[]",
          "name": "claimBitPositions",
          "type": "uint256[]"
        },
        {
          "indexed": false,
          "internalType": "bytes",
          "name": "validationData",
          "type": "bytes"
        }
      ],
      "name": "ValidateClaimCalled",
      "type": "event"
    },
    {
      "inputs": [
        {
          "internalType": "uint256",
          "name": "value",
          "type": "uint256"
        }
      ],
      "name": "addBitValue",
      "outputs": [],
      "stateMutability": "nonpayable",
      "type": "function"
    },
    {
      "inputs": [
        {
          "internalType": "uint256",
          "name": "bitPosition",
          "type": "uint256"
        }
      ],
      "name": "bitPositionValueMap",
      "outputs": [
        {
          "internalType": "uint256",
          "name": "value",
          "type": "uint256"
        }
      ],
      "stateMutability": "view",
      "type": "function"
    },
    {
      "inputs": [
        {
          "internalType": "address",
          "name": "recipient",
          "type": "address"
        },
        {
          "internalType": "uint256[]",
          "name": "claimBitPositions",
          "type": "uint256[]"
        },
        {
          "internalType": "bytes",
          "name": "validationData",
          "type": "bytes"
        }
      ],
      "name": "claim",
      "outputs": [],
      "stateMutability": "nonpayable",
      "type": "function"
    },
    {
      "inputs": [
        {
          "internalType": "address",
          "name": "recipient",
          "type": "address"
        }
      ],
      "name": "claimed",
      "outputs": [
        {
          "internalType": "uint256",
          "name": "bitmap",
          "type": "uint256"
        }
      ],
      "stateMutability": "view",
      "type": "function"
    },
    {
      "inputs": [],
      "name": "maxBitCount",
      "outputs": [
        {
          "internalType": "uint256",
          "name": "",
          "type": "uint256"
        }
      ],
      "stateMutability": "view",
      "type": "function"
    },
    {
      "inputs": [],
      "name": "owner",
      "outputs": [
        {
          "internalType": "address",
          "name": "",
          "type": "address"
        }
      ],
      "stateMutability": "view",
      "type": "function"
    },
    {
      "inputs": [
        {
          "internalType": "bytes4",
          "name": "interfaceId",
          "type": "bytes4"
        }
      ],
      "name": "supportsInterface",
      "outputs": [
        {
          "internalType": "bool",
          "name": "",
          "type": "bool"
        }
      ],
      "stateMutability": "view",
      "type": "function"
    },
    {
      "inputs": [
        {
          "internalType": "address",
          "name": "newOwner",
          "type": "address"
        }
      ],
      "name": "transferOwnership",
      "outputs": [],
      "stateMutability": "nonpayable",
      "type": "function"
    }
  ],
  "bytecode": "0x608060405234801561001057600080fd5b50336100248161001e61002a565b9061005e565b5061017f565b60008061005860017fc9ed16f33ab3a66c84bfd83099ccb2a8845871e2e1c1928f63797152f0fd54cd61015e565b92915050565b6001600160a01b038116156100b45781546001600160a01b0319166001600160a01b03821690811783556040516000907f8be0079c531659141344cd1fd0a4f28419497f9722a3daafe3b4186f6b6457e0908290a35b6100d06307f5828d60e41b60016100c96100d4565b9190610102565b5050565b60008061005860017fca9d3e17f264b0f3984e2634e94adb37fa3e6a8103f06aeae6fa59e21c769f5e61015e565b600160e01b6001600160e01b0319831601610130576040516372c683bb60e01b815260040160405180910390fd5b6001600160e01b03199190911660009081526020929092526040909120805460ff1916911515919091179055565b8181038181111561005857634e487b7160e01b600052601160045260246000fd5b610b258061018e6000396000f3fe608060405234801561001057600080fd5b50600436106100875760003560e01c80636844b0191161005b5780636844b0191461010a5780638da5cb5b14610113578063c884ef8314610140578063f2fde38b1461016057600080fd5b8062cfbb851461008c57806301ffc9a7146100a157806312a53fdd146100c95780634a1e2ab7146100f7575b600080fd5b61009f61009a366004610880565b610173565b005b6100b46100af366004610932565b6103ac565b60405190151581526020015b60405180910390f35b6100e96100d736600461097b565b60026020526000908152604090205481565b6040519081526020016100c0565b61009f61010536600461097b565b6103c6565b6100e960005481565b61011b61042b565b60405173ffffffffffffffffffffffffffffffffffffffff90911681526020016100c0565b6100e961014e366004610994565b60016020526000908152604090205481565b61009f61016e366004610994565b610457565b8260008190036101af576040517fafec630d00000000000000000000000000000000000000000000000000000000815260040160405180910390fd5b60008060005b838110156102495760008888838181106101d1576101d16109af565b60200291909101359150506001811b84811615610222576040517f4be1d8b9000000000000000000000000000000000000000000000000000000008152600481018390526024015b60405180910390fd5b60008281526002602052604090205461023b9085610a0d565b9417939250506001016101b5565b5060005482811c15610291576040517fea4662120000000000000000000000000000000000000000000000000000000081526004810184905260248101829052604401610219565b73ffffffffffffffffffffffffffffffffffffffff891660009081526001602052604090205483811615610317576040517f6508823200000000000000000000000000000000000000000000000000000000815273ffffffffffffffffffffffffffffffffffffffff8b1660048201526024810185905260448101829052606401610219565b73ffffffffffffffffffffffffffffffffffffffff8a166000908152600160205260409020818517908190556103508b8b8b8b8b61046e565b61035a8b85610501565b80828c73ffffffffffffffffffffffffffffffffffffffff167f987d620f307ff6b94d58743cb7a7509f24071586a77759b77c2d4e29f75a2f9a60405160405180910390a45050505050505050505050565b60006103c0826103ba610554565b90610582565b92915050565b6103d8336103d261065c565b9061068a565b60008054808252600260205260409091208290556103f7816001610a0d565b6000908155604051839183917f8e17f10a809a83084393f091eeb493166c6d7d75f0227161b2dfe9f3867a431e9190a35050565b600061045261043861065c565b5473ffffffffffffffffffffffffffffffffffffffff1690565b905090565b61046b338261046461065c565b91906106f9565b50565b6040517f35fee54600000000000000000000000000000000000000000000000000000000815273ffffffffffffffffffffffffffffffffffffffff8616906335fee546906104c89088908890889088908890600401610a20565b600060405180830381600087803b1580156104e257600080fd5b505af11580156104f6573d6000803e3d6000fd5b505050505050505050565b6040805173ffffffffffffffffffffffffffffffffffffffff84168152602081018390527f3308e36d89c0b850e8d18c22e83ac69f8d94934805de709ace474c8723388dca910160405180910390a15050565b6000806103c060017fca9d3e17f264b0f3984e2634e94adb37fa3e6a8103f06aeae6fa59e21c769f5e610adc565b60007c01000000000000000000000000000000000000000000000000000000007fffffffff000000000000000000000000000000000000000000000000000000008316016105d2575060006103c0565b7ffe003659000000000000000000000000000000000000000000000000000000007fffffffff00000000000000000000000000000000000000000000000000000000831601610623575060016103c0565b507fffffffff00000000000000000000000000000000000000000000000000000000166000908152602091909152604090205460ff1690565b6000806103c060017fc9ed16f33ab3a66c84bfd83099ccb2a8845871e2e1c1928f63797152f0fd54cd610adc565b815473ffffffffffffffffffffffffffffffffffffffff8281169116146106f5576040517f2ef4875e00000000000000000000000000000000000000000000000000000000815273ffffffffffffffffffffffffffffffffffffffff82166004820152602401610219565b5050565b825473ffffffffffffffffffffffffffffffffffffffff9081169083168114610766576040517f2ef4875e00000000000000000000000000000000000000000000000000000000815273ffffffffffffffffffffffffffffffffffffffff84166004820152602401610219565b8173ffffffffffffffffffffffffffffffffffffffff168173ffffffffffffffffffffffffffffffffffffffff16146108085783547fffffffffffffffffffffffff00000000000000000000000000000000000000001673ffffffffffffffffffffffffffffffffffffffff8381169182178655604051908316907f8be0079c531659141344cd1fd0a4f28419497f9722a3daafe3b4186f6b6457e090600090a35b50505050565b803573ffffffffffffffffffffffffffffffffffffffff8116811461083257600080fd5b919050565b60008083601f84011261084957600080fd5b50813567ffffffffffffffff81111561086157600080fd5b60208301915083602082850101111561087957600080fd5b9250929050565b60008060008060006060868803121561089857600080fd5b6108a18661080e565b9450602086013567ffffffffffffffff808211156108be57600080fd5b818801915088601f8301126108d257600080fd5b8135818111156108e157600080fd5b8960208260051b85010111156108f657600080fd5b60208301965080955050604088013591508082111561091457600080fd5b5061092188828901610837565b969995985093965092949392505050565b60006020828403121561094457600080fd5b81357fffffffff000000000000000000000000000000000000000000000000000000008116811461097457600080fd5b9392505050565b60006020828403121561098d57600080fd5b5035919050565b6000602082840312156109a657600080fd5b6109748261080e565b7f4e487b7100000000000000000000000000000000000000000000000000000000600052603260045260246000fd5b7f4e487b7100000000000000000000000000000000000000000000000000000000600052601160045260246000fd5b808201808211156103c0576103c06109de565b73ffffffffffffffffffffffffffffffffffffffff861681526060602082015283606082015260007f07ffffffffffffffffffffffffffffffffffffffffffffffffffffffffffffff851115610a7557600080fd5b8460051b808760808501378201828103608090810160408501528101849052838560a0830137600060a0858301015260a07fffffffffffffffffffffffffffffffffffffffffffffffffffffffffffffffe0601f8601168201019150509695505050505050565b818103818111156103c0576103c06109de56fea2646970667358221220a141bd21bab69c426f84df61585ddd1df514ee45ee861983fbde500f148addc964736f6c63430008160033",
  "linkReferences": {},
  "deployedLinkReferences": {}
}