{
  "_format": "hh-sol-artifact-1",
  "contractName": "CheckmateMerkleClaim",
  "sourceName": "contracts/merkleClaim/CheckmateMerkleClaim.sol",
  "abi": [
    {
      "inputs": [
        {
          "internalType": "contract IERC20SafeTransfers",
          "name": "checkmateToken_",
          "type": "address"
        },
        {
          "internalType": "address",
          "name": "stakingPool_",
          "type": "address"
        },
        {
          "internalType": "address",
          "name": "payoutWallet_",
          "type": "address"
        }
      ],
      "stateMutability": "nonpayable",
      "type": "constructor"
    },
    {
      "inputs": [
        {
          "internalType": "address",
          "name": "recipient",
          "type": "address"
        },
        {
          "internalType": "uint256",
          "name": "amount",
          "type": "uint256"
        },
        {
          "internalType": "bytes32",
          "name": "root",
          "type": "bytes32"
        }
      ],
      "name": "AlreadyClaimed",
      "type": "error"
    },
    {
      "inputs": [],
      "name": "IllegalInterfaceId",
      "type": "error"
    },
    {
      "inputs": [],
      "name": "InvalidCheckmateTokenAddress",
      "type": "error"
    },
    {
      "inputs": [
        {
          "internalType": "uint256",
          "name": "amount",
          "type": "uint256"
        }
      ],
      "name": "InvalidClaimAmount",
      "type": "error"
    },
    {
      "inputs": [],
      "name": "InvalidForwarderRegistry",
      "type": "error"
    },
    {
      "inputs": [],
      "name": "InvalidPayoutWallet",
      "type": "error"
    },
    {
      "inputs": [
        {
          "internalType": "address",
          "name": "recipient",
          "type": "address"
        },
        {
          "internalType": "uint256",
          "name": "amount",
          "type": "uint256"
        },
        {
          "internalType": "uint16",
          "name": "nonce",
          "type": "uint16"
        }
      ],
      "name": "InvalidProof",
      "type": "error"
    },
    {
      "inputs": [],
      "name": "InvalidRoot",
      "type": "error"
    },
    {
      "inputs": [],
      "name": "InvalidStakingPoolAddress",
      "type": "error"
    },
    {
      "inputs": [
        {
          "internalType": "bytes32",
          "name": "root",
          "type": "bytes32"
        }
      ],
      "name": "MerkleRootNotExists",
      "type": "error"
    },
    {
      "inputs": [
        {
          "internalType": "address",
          "name": "account",
          "type": "address"
        }
      ],
      "name": "NotContractOwner",
      "type": "error"
    },
    {
      "inputs": [],
      "name": "NotPaused",
      "type": "error"
    },
    {
      "inputs": [],
      "name": "Paused",
      "type": "error"
    },
    {
      "inputs": [
        {
          "internalType": "address",
          "name": "payoutWallet",
          "type": "address"
        },
        {
          "internalType": "address",
          "name": "recipient",
          "type": "address"
        },
        {
          "internalType": "uint256",
          "name": "amount",
          "type": "uint256"
        }
      ],
      "name": "TransferFailed",
      "type": "error"
    },
    {
      "anonymous": false,
      "inputs": [
        {
          "indexed": true,
          "internalType": "bytes32",
          "name": "root",
          "type": "bytes32"
        },
        {
          "indexed": true,
          "internalType": "uint16",
          "name": "nonce",
          "type": "uint16"
        }
      ],
      "name": "MerkleRootSet",
      "type": "event"
    },
    {
      "anonymous": false,
      "inputs": [
        {
          "indexed": true,
          "internalType": "address",
          "name": "previousOwner",
          "type": "address"
        },
        {
          "indexed": true,
          "internalType": "address",
          "name": "newOwner",
          "type": "address"
        }
      ],
      "name": "OwnershipTransferred",
      "type": "event"
    },
    {
      "anonymous": false,
      "inputs": [],
      "name": "Pause",
      "type": "event"
    },
    {
      "anonymous": false,
      "inputs": [
        {
          "indexed": true,
          "internalType": "bytes32",
          "name": "root",
          "type": "bytes32"
        },
        {
          "indexed": true,
          "internalType": "address",
          "name": "payoutWallet",
          "type": "address"
        },
        {
          "indexed": true,
          "internalType": "address",
          "name": "recipient",
          "type": "address"
        },
        {
          "indexed": false,
          "internalType": "uint256",
          "name": "amount",
          "type": "uint256"
        }
      ],
      "name": "PayoutClaimed",
      "type": "event"
    },
    {
      "anonymous": false,
      "inputs": [
        {
          "indexed": true,
          "internalType": "address",
          "name": "newPayoutWallet",
          "type": "address"
        }
      ],
      "name": "PayoutWalletSet",
      "type": "event"
    },
    {
      "anonymous": false,
      "inputs": [],
      "name": "Unpause",
      "type": "event"
    },
    {
      "inputs": [],
      "name": "CHECKMATE_TOKEN",
      "outputs": [
        {
          "internalType": "contract IERC20SafeTransfers",
          "name": "",
          "type": "address"
        }
      ],
      "stateMutability": "view",
      "type": "function"
    },
    {
      "inputs": [],
      "name": "STAKING_POOL",
      "outputs": [
        {
          "internalType": "address",
          "name": "",
          "type": "address"
        }
      ],
      "stateMutability": "view",
      "type": "function"
    },
    {
      "inputs": [
        {
          "internalType": "address",
          "name": "recipient",
          "type": "address"
        },
        {
          "internalType": "uint256",
          "name": "amount",
          "type": "uint256"
        },
        {
          "internalType": "bytes32",
          "name": "root",
          "type": "bytes32"
        },
        {
          "internalType": "bytes32[]",
          "name": "proof",
          "type": "bytes32[]"
        }
      ],
      "name": "claimAndStake",
      "outputs": [],
      "stateMutability": "nonpayable",
      "type": "function"
    },
    {
      "inputs": [
        {
          "internalType": "bytes32",
          "name": "leaf",
          "type": "bytes32"
        }
      ],
      "name": "claimed",
      "outputs": [
        {
          "internalType": "bool",
          "name": "claimed",
          "type": "bool"
        }
      ],
      "stateMutability": "view",
      "type": "function"
    },
    {
      "inputs": [],
      "name": "nonce",
      "outputs": [
        {
          "internalType": "uint16",
          "name": "",
          "type": "uint16"
        }
      ],
      "stateMutability": "view",
      "type": "function"
    },
    {
      "inputs": [],
      "name": "owner",
      "outputs": [
        {
          "internalType": "address",
          "name": "",
          "type": "address"
        }
      ],
      "stateMutability": "view",
      "type": "function"
    },
    {
      "inputs": [],
      "name": "pause",
      "outputs": [],
      "stateMutability": "nonpayable",
      "type": "function"
    },
    {
      "inputs": [],
      "name": "paused",
      "outputs": [
        {
          "internalType": "bool",
          "name": "",
          "type": "bool"
        }
      ],
      "stateMutability": "view",
      "type": "function"
    },
    {
      "inputs": [],
      "name": "payoutWallet",
      "outputs": [
        {
          "internalType": "address",
          "name": "",
          "type": "address"
        }
      ],
      "stateMutability": "view",
      "type": "function"
    },
    {
      "inputs": [
        {
          "internalType": "bytes32",
          "name": "root",
          "type": "bytes32"
        }
      ],
      "name": "rootToNonceMap",
      "outputs": [
        {
          "internalType": "uint16",
          "name": "nonce",
          "type": "uint16"
        }
      ],
      "stateMutability": "view",
      "type": "function"
    },
    {
      "inputs": [
        {
          "internalType": "bytes32",
          "name": "merkleRoot",
          "type": "bytes32"
        }
      ],
      "name": "setMerkleRoot",
      "outputs": [],
      "stateMutability": "nonpayable",
      "type": "function"
    },
    {
      "inputs": [
        {
          "internalType": "address",
          "name": "newPayoutWallet",
          "type": "address"
        }
      ],
      "name": "setPayoutWallet",
      "outputs": [],
      "stateMutability": "nonpayable",
      "type": "function"
    },
    {
      "inputs": [
        {
          "internalType": "bytes4",
          "name": "interfaceId",
          "type": "bytes4"
        }
      ],
      "name": "supportsInterface",
      "outputs": [
        {
          "internalType": "bool",
          "name": "",
          "type": "bool"
        }
      ],
      "stateMutability": "view",
      "type": "function"
    },
    {
      "inputs": [
        {
          "internalType": "address",
          "name": "newOwner",
          "type": "address"
        }
      ],
      "name": "transferOwnership",
      "outputs": [],
      "stateMutability": "nonpayable",
      "type": "function"
    },
    {
      "inputs": [],
      "name": "unpause",
      "outputs": [],
      "stateMutability": "nonpayable",
      "type": "function"
    }
  ],
  "bytecode": "0x60c060405234801561001057600080fd5b5060405161139b38038061139b83398101604081905261002f91610232565b336100428161003c6100e6565b9061011a565b506001600160a01b03831661006a5760405163e52e0d9360e01b815260040160405180910390fd5b6001600160a01b038216610091576040516341261f3160e11b815260040160405180910390fd5b6001600160a01b0381166100b85760405163620e5f7160e11b815260040160405180910390fd5b6001600160a01b0392831660805290821660a052600280546001600160a01b031916919092161790556102a0565b60008061011460017fc9ed16f33ab3a66c84bfd83099ccb2a8845871e2e1c1928f63797152f0fd54cd61027f565b92915050565b6001600160a01b038116156101705781546001600160a01b0319166001600160a01b03821690811783556040516000907f8be0079c531659141344cd1fd0a4f28419497f9722a3daafe3b4186f6b6457e0908290a35b61018c6307f5828d60e41b6001610185610190565b91906101be565b5050565b60008061011460017fca9d3e17f264b0f3984e2634e94adb37fa3e6a8103f06aeae6fa59e21c769f5e61027f565b600160e01b6001600160e01b03198316016101ec576040516372c683bb60e01b815260040160405180910390fd5b6001600160e01b03199190911660009081526020929092526040909120805460ff1916911515919091179055565b6001600160a01b038116811461022f57600080fd5b50565b60008060006060848603121561024757600080fd5b83516102528161021a565b60208501519093506102638161021a565b60408501519092506102748161021a565b809150509250925092565b8181038181111561011457634e487b7160e01b600052601160045260246000fd5b60805160a0516110c86102d36000396000818161012701526105c5015260008181610190015261059601526110c86000f3fe608060405234801561001057600080fd5b50600436106100f55760003560e01c80637505fee1116100975780638da5cb5b116100665780638da5cb5b1461023f578063affed0e014610247578063cc3c0f061461026d578063f2fde38b1461029057600080fd5b80637505fee1146101cd5780637cb64759146102045780638456cb59146102175780638488bb4e1461021f57600080fd5b8063422a8b55116100d3578063422a8b5514610178578063592c75b81461018b5780635c975abb146101b25780636b8f9c43146101ba57600080fd5b806301ffc9a7146100fa57806314ae36ae146101225780633f4ba83a1461016e575b600080fd5b61010d610108366004610e00565b6102a3565b60405190151581526020015b60405180910390f35b6101497f000000000000000000000000000000000000000000000000000000000000000081565b60405173ffffffffffffffffffffffffffffffffffffffff9091168152602001610119565b6101766102bd565b005b610176610186366004610e6b565b6102e2565b6101497f000000000000000000000000000000000000000000000000000000000000000081565b61010d610705565b6101766101c8366004610f04565b61071e565b6101f16101db366004610f1f565b60006020819052908152604090205461ffff1681565b60405161ffff9091168152602001610119565b610176610212366004610f1f565b6107e3565b610176610905565b6002546101499073ffffffffffffffffffffffffffffffffffffffff1681565b61014961091e565b6002546101f19074010000000000000000000000000000000000000000900461ffff1681565b61010d61027b366004610f1f565b60016020526000908152604090205460ff1681565b61017661029e366004610f04565b610945565b60006102b7826102b161095c565b9061098a565b92915050565b6102d0335b6102ca610a64565b90610a92565b6102e06102db610b01565b610b2f565b565b83600003610324576040517f27ab1ee2000000000000000000000000000000000000000000000000000000008152600481018590526024015b60405180910390fd5b61033461032f610b01565b610b8a565b60008381526020819052604081205461ffff1690819003610384576040517f1d3bbc3f0000000000000000000000000000000000000000000000000000000081526004810185905260240161031b565b6040517fffffffffffffffffffffffffffffffffffffffff000000000000000000000000606088901b166020820152603481018690527fffff00000000000000000000000000000000000000000000000000000000000060f083901b166054820152600090605601604080517fffffffffffffffffffffffffffffffffffffffffffffffffffffffffffffffe08184030181529190528051602090910120905061043084848784610bc6565b61048f576040517facfb186500000000000000000000000000000000000000000000000000000000815273ffffffffffffffffffffffffffffffffffffffff881660048201526024810187905261ffff8316604482015260640161031b565b60008181526001602052604090205460ff16156104fe576040517f685fced700000000000000000000000000000000000000000000000000000000815273ffffffffffffffffffffffffffffffffffffffff88166004820152602481018790526044810186905260640161031b565b600081815260016020818152604080842080547fffffffffffffffffffffffffffffffffffffffffffffffffffffffffffffff0016909317909255600254825173ffffffffffffffffffffffffffffffffffffffff8c81168285015284518083039094018452818501948590527fb88d4fde0000000000000000000000000000000000000000000000000000000090945290831693927f0000000000000000000000000000000000000000000000000000000000000000169163b88d4fde916105ef9186917f0000000000000000000000000000000000000000000000000000000000000000918e91604401610f38565b6020604051808303816000875af115801561060e573d6000803e3d6000fd5b505050506040513d601f19601f820116820180604052508101906106329190610fe5565b905080610692576040517fbf182be800000000000000000000000000000000000000000000000000000000815273ffffffffffffffffffffffffffffffffffffffff80841660048301528a1660248201526044810189905260640161031b565b8873ffffffffffffffffffffffffffffffffffffffff168273ffffffffffffffffffffffffffffffffffffffff16887f96a0bda4b1c283cf8feeb70ec1fc51c1f830f0548dc9f740b8d885079be891068b6040516106f291815260200190565b60405180910390a4505050505050505050565b6000610719610712610b01565b5460ff1690565b905090565b73ffffffffffffffffffffffffffffffffffffffff811661076b576040517fc41cbee200000000000000000000000000000000000000000000000000000000815260040160405180910390fd5b610774336102c2565b600280547fffffffffffffffffffffffff00000000000000000000000000000000000000001673ffffffffffffffffffffffffffffffffffffffff83169081179091556040517fdd880d24a789958a6398c99c2e54ce31bc10a638cbc42f7dd34285479ae0f85590600090a250565b600081900361081e576040517f504570e300000000000000000000000000000000000000000000000000000000815260040160405180910390fd5b610827336102c2565b6002546000906108549074010000000000000000000000000000000000000000900461ffff166001611036565b600280547fffffffffffffffffffff0000ffffffffffffffffffffffffffffffffffffffff167401000000000000000000000000000000000000000061ffff84169081029190911790915560008481526020819052604080822080547fffffffffffffffffffffffffffffffffffffffffffffffffffffffffffff0000168417905551929350909184917fbb00584cc5258c6d02504d390995c03261d52c617c9171c16cb9edb00f672f3a91a35050565b61090e336102c2565b6102e0610919610b01565b610bde565b600061071961092b610a64565b5473ffffffffffffffffffffffffffffffffffffffff1690565b6109593382610952610a64565b9190610c3c565b50565b6000806102b760017fca9d3e17f264b0f3984e2634e94adb37fa3e6a8103f06aeae6fa59e21c769f5e611050565b60007c01000000000000000000000000000000000000000000000000000000007fffffffff000000000000000000000000000000000000000000000000000000008316016109da575060006102b7565b7ffe003659000000000000000000000000000000000000000000000000000000007fffffffff00000000000000000000000000000000000000000000000000000000831601610a2b575060016102b7565b507fffffffff00000000000000000000000000000000000000000000000000000000166000908152602091909152604090205460ff1690565b6000806102b760017fc9ed16f33ab3a66c84bfd83099ccb2a8845871e2e1c1928f63797152f0fd54cd611050565b815473ffffffffffffffffffffffffffffffffffffffff828116911614610afd576040517f2ef4875e00000000000000000000000000000000000000000000000000000000815273ffffffffffffffffffffffffffffffffffffffff8216600482015260240161031b565b5050565b6000806102b760017f0186a05f63b1553398ad5ea3233c0ce68b8c9eecc47717f123c5c2b42fbd6d9f611050565b610b3881610d51565b80547fffffffffffffffffffffffffffffffffffffffffffffffffffffffffffffff001681556040517f7805862f689e2f13df9f062ff482ad3ad112aca9e0847911ed832e158c525b3390600090a150565b805460ff1615610959576040517f9e87fac800000000000000000000000000000000000000000000000000000000815260040160405180910390fd5b600082610bd4868685610d8c565b1495945050505050565b610be781610b8a565b80547fffffffffffffffffffffffffffffffffffffffffffffffffffffffffffffff001660011781556040517f6985a02210a168e66602d3235cb6db0e70f92b3ba4d376a33c0f3d9434bff62590600090a150565b825473ffffffffffffffffffffffffffffffffffffffff9081169083168114610ca9576040517f2ef4875e00000000000000000000000000000000000000000000000000000000815273ffffffffffffffffffffffffffffffffffffffff8416600482015260240161031b565b8173ffffffffffffffffffffffffffffffffffffffff168173ffffffffffffffffffffffffffffffffffffffff1614610d4b5783547fffffffffffffffffffffffff00000000000000000000000000000000000000001673ffffffffffffffffffffffffffffffffffffffff8381169182178655604051908316907f8be0079c531659141344cd1fd0a4f28419497f9722a3daafe3b4186f6b6457e090600090a35b50505050565b805460ff16610959576040517f6cd6020100000000000000000000000000000000000000000000000000000000815260040160405180910390fd5b600081815b84811015610dc557610dbb82878784818110610daf57610daf611063565b90506020020135610dce565b9150600101610d91565b50949350505050565b6000818310610dea576000828152602084905260409020610df9565b60008381526020839052604090205b9392505050565b600060208284031215610e1257600080fd5b81357fffffffff0000000000000000000000000000000000000000000000000000000081168114610df957600080fd5b803573ffffffffffffffffffffffffffffffffffffffff81168114610e6657600080fd5b919050565b600080600080600060808688031215610e8357600080fd5b610e8c86610e42565b94506020860135935060408601359250606086013567ffffffffffffffff811115610eb657600080fd5b8601601f81018813610ec757600080fd5b803567ffffffffffffffff811115610ede57600080fd5b8860208260051b8401011115610ef357600080fd5b959894975092955050506020019190565b600060208284031215610f1657600080fd5b610df982610e42565b600060208284031215610f3157600080fd5b5035919050565b73ffffffffffffffffffffffffffffffffffffffff8516815273ffffffffffffffffffffffffffffffffffffffff84166020820152826040820152608060608201526000825180608084015260005b81811015610fa457602081860181015160a0868401015201610f87565b50600060a0828501015260a07fffffffffffffffffffffffffffffffffffffffffffffffffffffffffffffffe0601f83011684010191505095945050505050565b600060208284031215610ff757600080fd5b81518015158114610df957600080fd5b7f4e487b7100000000000000000000000000000000000000000000000000000000600052601160045260246000fd5b61ffff81811683821601908111156102b7576102b7611007565b818103818111156102b7576102b7611007565b7f4e487b7100000000000000000000000000000000000000000000000000000000600052603260045260246000fdfea2646970667358221220bb458070776c735ef1c2543ffb3e923c928abfb2ff72ac8ee7cc6435d95de75a64736f6c634300081c0033",
  "linkReferences": {},
  "deployedLinkReferences": {}
}