{
  "_format": "hh-sol-artifact-1",
  "contractName": "CheckmateMerkleClaim",
  "sourceName": "contracts/merkleClaim/CheckmateMerkleClaim.sol",
  "abi": [
    {
      "inputs": [
        {
          "internalType": "address",
          "name": "checkmateTokenContract_",
          "type": "address"
        },
        {
          "internalType": "address",
          "name": "stakingContract_",
          "type": "address"
        },
        {
          "internalType": "address",
          "name": "payoutWallet_",
          "type": "address"
        }
      ],
      "stateMutability": "nonpayable",
      "type": "constructor"
    },
    {
      "inputs": [
        {
          "internalType": "address",
          "name": "recipient",
          "type": "address"
        },
        {
          "internalType": "uint256",
          "name": "amount",
          "type": "uint256"
        },
        {
          "internalType": "bytes32",
          "name": "root",
          "type": "bytes32"
        }
      ],
      "name": "AlreadyClaimed",
      "type": "error"
    },
    {
      "inputs": [],
      "name": "IllegalInterfaceId",
      "type": "error"
    },
    {
      "inputs": [],
      "name": "InvalidCheckmateTokenContract",
      "type": "error"
    },
    {
      "inputs": [
        {
          "internalType": "uint256",
          "name": "amount",
          "type": "uint256"
        }
      ],
      "name": "InvalidClaimAmount",
      "type": "error"
    },
    {
      "inputs": [],
      "name": "InvalidForwarderRegistry",
      "type": "error"
    },
    {
      "inputs": [],
      "name": "InvalidPayoutWallet",
      "type": "error"
    },
    {
      "inputs": [
        {
          "internalType": "address",
          "name": "recipient",
          "type": "address"
        },
        {
          "internalType": "uint256",
          "name": "amount",
          "type": "uint256"
        },
        {
          "internalType": "uint16",
          "name": "nonce",
          "type": "uint16"
        }
      ],
      "name": "InvalidProof",
      "type": "error"
    },
    {
      "inputs": [],
      "name": "InvalidRoot",
      "type": "error"
    },
    {
      "inputs": [],
      "name": "InvalidStakingContract",
      "type": "error"
    },
    {
      "inputs": [
        {
          "internalType": "bytes32",
          "name": "root",
          "type": "bytes32"
        }
      ],
      "name": "MerkleRootNotExists",
      "type": "error"
    },
    {
      "inputs": [
        {
          "internalType": "address",
          "name": "account",
          "type": "address"
        }
      ],
      "name": "NotContractOwner",
      "type": "error"
    },
    {
      "inputs": [],
      "name": "NotPaused",
      "type": "error"
    },
    {
      "inputs": [],
      "name": "Paused",
      "type": "error"
    },
    {
      "anonymous": false,
      "inputs": [
        {
          "indexed": true,
          "internalType": "bytes32",
          "name": "root",
          "type": "bytes32"
        },
        {
          "indexed": true,
          "internalType": "uint256",
          "name": "nonce",
          "type": "uint256"
        }
      ],
      "name": "MerkleRootSet",
      "type": "event"
    },
    {
      "anonymous": false,
      "inputs": [
        {
          "indexed": true,
          "internalType": "address",
          "name": "previousOwner",
          "type": "address"
        },
        {
          "indexed": true,
          "internalType": "address",
          "name": "newOwner",
          "type": "address"
        }
      ],
      "name": "OwnershipTransferred",
      "type": "event"
    },
    {
      "anonymous": false,
      "inputs": [],
      "name": "Pause",
      "type": "event"
    },
    {
      "anonymous": false,
      "inputs": [
        {
          "indexed": true,
          "internalType": "bytes32",
          "name": "root",
          "type": "bytes32"
        },
        {
          "indexed": true,
          "internalType": "address",
          "name": "payoutWallet",
          "type": "address"
        },
        {
          "indexed": true,
          "internalType": "address",
          "name": "recipient",
          "type": "address"
        },
        {
          "indexed": false,
          "internalType": "uint256",
          "name": "amount",
          "type": "uint256"
        }
      ],
      "name": "PayoutClaimed",
      "type": "event"
    },
    {
      "anonymous": false,
      "inputs": [
        {
          "indexed": true,
          "internalType": "address",
          "name": "newPayoutWallet",
          "type": "address"
        }
      ],
      "name": "PayoutWalletSet",
      "type": "event"
    },
    {
      "anonymous": false,
      "inputs": [
        {
          "indexed": true,
          "internalType": "address",
          "name": "newTreasuryWallet",
          "type": "address"
        }
      ],
      "name": "TreasuryWalletSet",
      "type": "event"
    },
    {
      "anonymous": false,
      "inputs": [],
      "name": "Unpause",
      "type": "event"
    },
    {
      "inputs": [],
      "name": "CHECKMATE_TOKEN_CONTRACT",
      "outputs": [
        {
          "internalType": "address",
          "name": "",
          "type": "address"
        }
      ],
      "stateMutability": "view",
      "type": "function"
    },
    {
      "inputs": [],
      "name": "STAKING_CONTRACT",
      "outputs": [
        {
          "internalType": "address",
          "name": "",
          "type": "address"
        }
      ],
      "stateMutability": "view",
      "type": "function"
    },
    {
      "inputs": [
        {
          "internalType": "address",
          "name": "recipient",
          "type": "address"
        },
        {
          "internalType": "uint256",
          "name": "amount",
          "type": "uint256"
        },
        {
          "internalType": "bytes32",
          "name": "root",
          "type": "bytes32"
        },
        {
          "internalType": "bytes32[]",
          "name": "proof",
          "type": "bytes32[]"
        }
      ],
      "name": "claimAndStake",
      "outputs": [],
      "stateMutability": "nonpayable",
      "type": "function"
    },
    {
      "inputs": [
        {
          "internalType": "bytes32",
          "name": "leaf",
          "type": "bytes32"
        }
      ],
      "name": "claimed",
      "outputs": [
        {
          "internalType": "bool",
          "name": "claimed",
          "type": "bool"
        }
      ],
      "stateMutability": "view",
      "type": "function"
    },
    {
      "inputs": [],
      "name": "nonce",
      "outputs": [
        {
          "internalType": "uint16",
          "name": "",
          "type": "uint16"
        }
      ],
      "stateMutability": "view",
      "type": "function"
    },
    {
      "inputs": [],
      "name": "owner",
      "outputs": [
        {
          "internalType": "address",
          "name": "",
          "type": "address"
        }
      ],
      "stateMutability": "view",
      "type": "function"
    },
    {
      "inputs": [],
      "name": "pause",
      "outputs": [],
      "stateMutability": "nonpayable",
      "type": "function"
    },
    {
      "inputs": [],
      "name": "paused",
      "outputs": [
        {
          "internalType": "bool",
          "name": "",
          "type": "bool"
        }
      ],
      "stateMutability": "view",
      "type": "function"
    },
    {
      "inputs": [],
      "name": "payoutWallet",
      "outputs": [
        {
          "internalType": "address",
          "name": "",
          "type": "address"
        }
      ],
      "stateMutability": "view",
      "type": "function"
    },
    {
      "inputs": [
        {
          "internalType": "bytes32",
          "name": "root",
          "type": "bytes32"
        }
      ],
      "name": "rootToNonceMap",
      "outputs": [
        {
          "internalType": "uint16",
          "name": "nonce",
          "type": "uint16"
        }
      ],
      "stateMutability": "view",
      "type": "function"
    },
    {
      "inputs": [
        {
          "internalType": "bytes32",
          "name": "merkleRoot",
          "type": "bytes32"
        }
      ],
      "name": "setMerkleRoot",
      "outputs": [],
      "stateMutability": "nonpayable",
      "type": "function"
    },
    {
      "inputs": [
        {
          "internalType": "address",
          "name": "newPayoutWallet",
          "type": "address"
        }
      ],
      "name": "setPayoutWallet",
      "outputs": [],
      "stateMutability": "nonpayable",
      "type": "function"
    },
    {
      "inputs": [
        {
          "internalType": "bytes4",
          "name": "interfaceId",
          "type": "bytes4"
        }
      ],
      "name": "supportsInterface",
      "outputs": [
        {
          "internalType": "bool",
          "name": "",
          "type": "bool"
        }
      ],
      "stateMutability": "view",
      "type": "function"
    },
    {
      "inputs": [
        {
          "internalType": "address",
          "name": "newOwner",
          "type": "address"
        }
      ],
      "name": "transferOwnership",
      "outputs": [],
      "stateMutability": "nonpayable",
      "type": "function"
    },
    {
      "inputs": [],
      "name": "unpause",
      "outputs": [],
      "stateMutability": "nonpayable",
      "type": "function"
    }
  ],
  "bytecode": "0x60c060405234801561001057600080fd5b5060405161133238038061133283398101604081905261002f91610236565b336100428161003c6100e6565b9061011a565b506001600160a01b03831661006a57604051638246bfe760e01b815260040160405180910390fd5b6001600160a01b038216610091576040516307b18df360e31b815260040160405180910390fd5b6001600160a01b0381166100b85760405163620e5f7160e11b815260040160405180910390fd5b6001600160a01b0392831660805290821660a052600280546001600160a01b0319169190921617905561029a565b60008061011460017fc9ed16f33ab3a66c84bfd83099ccb2a8845871e2e1c1928f63797152f0fd54cd610279565b92915050565b6001600160a01b038116156101705781546001600160a01b0319166001600160a01b03821690811783556040516000907f8be0079c531659141344cd1fd0a4f28419497f9722a3daafe3b4186f6b6457e0908290a35b61018c6307f5828d60e41b6001610185610190565b91906101be565b5050565b60008061011460017fca9d3e17f264b0f3984e2634e94adb37fa3e6a8103f06aeae6fa59e21c769f5e610279565b600160e01b6001600160e01b03198316016101ec576040516372c683bb60e01b815260040160405180910390fd5b6001600160e01b03199190911660009081526020929092526040909120805460ff1916911515919091179055565b80516001600160a01b038116811461023157600080fd5b919050565b60008060006060848603121561024b57600080fd5b6102548461021a565b92506102626020850161021a565b91506102706040850161021a565b90509250925092565b8181038181111561011457634e487b7160e01b600052601160045260246000fd5b60805160a0516110656102cd6000396000818161026e01526105c5015260008181610224015261059601526110656000f3fe608060405234801561001057600080fd5b50600436106100f55760003560e01c80638456cb5911610097578063b1bb0c6c11610066578063b1bb0c6c1461021f578063cc3c0f0614610246578063da19ddfb14610269578063f2fde38b1461029057600080fd5b80638456cb59146101a45780638488bb4e146101ac5780638da5cb5b146101f1578063affed0e0146101f957600080fd5b80635c975abb116100d35780635c975abb1461013f5780636b8f9c43146101475780637505fee11461015a5780637cb647591461019157600080fd5b806301ffc9a7146100fa5780633f4ba83a14610122578063422a8b551461012c575b600080fd5b61010d610108366004610d9d565b6102a3565b60405190151581526020015b60405180910390f35b61012a6102bd565b005b61012a61013a366004610e08565b6102e2565b61010d6106a5565b61012a610155366004610ea1565b6106be565b61017e610168366004610ebc565b60006020819052908152604090205461ffff1681565b60405161ffff9091168152602001610119565b61012a61019f366004610ebc565b610783565b61012a6108a2565b6002546101cc9073ffffffffffffffffffffffffffffffffffffffff1681565b60405173ffffffffffffffffffffffffffffffffffffffff9091168152602001610119565b6101cc6108bb565b60025461017e9074010000000000000000000000000000000000000000900461ffff1681565b6101cc7f000000000000000000000000000000000000000000000000000000000000000081565b61010d610254366004610ebc565b60016020526000908152604090205460ff1681565b6101cc7f000000000000000000000000000000000000000000000000000000000000000081565b61012a61029e366004610ea1565b6108e2565b60006102b7826102b16108f9565b90610927565b92915050565b6102d0335b6102ca610a01565b90610a2f565b6102e06102db610a9e565b610acc565b565b83600003610324576040517f27ab1ee2000000000000000000000000000000000000000000000000000000008152600481018590526024015b60405180910390fd5b61033461032f610a9e565b610b27565b60008381526020819052604081205461ffff1690819003610384576040517f1d3bbc3f0000000000000000000000000000000000000000000000000000000081526004810185905260240161031b565b6040517fffffffffffffffffffffffffffffffffffffffff000000000000000000000000606088901b166020820152603481018690527fffff00000000000000000000000000000000000000000000000000000000000060f083901b166054820152600090605601604080517fffffffffffffffffffffffffffffffffffffffffffffffffffffffffffffffe08184030181529190528051602090910120905061043084848784610b63565b61048f576040517facfb186500000000000000000000000000000000000000000000000000000000815273ffffffffffffffffffffffffffffffffffffffff881660048201526024810187905261ffff8316604482015260640161031b565b60008181526001602052604090205460ff16156104fe576040517f685fced700000000000000000000000000000000000000000000000000000000815273ffffffffffffffffffffffffffffffffffffffff88166004820152602481018790526044810186905260640161031b565b60008181526001602081815260409283902080547fffffffffffffffffffffffffffffffffffffffffffffffffffffffffffffff0016909217909155600254825173ffffffffffffffffffffffffffffffffffffffff8b81168285015284518083039094018452818501948590527fb88d4fde00000000000000000000000000000000000000000000000000000000909452908316927f0000000000000000000000000000000000000000000000000000000000000000169163b88d4fde916105ef9185917f0000000000000000000000000000000000000000000000000000000000000000918d91604401610ed5565b6020604051808303816000875af115801561060e573d6000803e3d6000fd5b505050506040513d601f19601f820116820180604052508101906106329190610f82565b508773ffffffffffffffffffffffffffffffffffffffff168173ffffffffffffffffffffffffffffffffffffffff16877f96a0bda4b1c283cf8feeb70ec1fc51c1f830f0548dc9f740b8d885079be891068a60405161069391815260200190565b60405180910390a45050505050505050565b60006106b96106b2610a9e565b5460ff1690565b905090565b73ffffffffffffffffffffffffffffffffffffffff811661070b576040517fc41cbee200000000000000000000000000000000000000000000000000000000815260040160405180910390fd5b610714336102c2565b600280547fffffffffffffffffffffffff00000000000000000000000000000000000000001673ffffffffffffffffffffffffffffffffffffffff83169081179091556040517fdd880d24a789958a6398c99c2e54ce31bc10a638cbc42f7dd34285479ae0f85590600090a250565b60008190036107be576040517f504570e300000000000000000000000000000000000000000000000000000000815260040160405180910390fd5b6107c7336102c2565b6002546000906107f49074010000000000000000000000000000000000000000900461ffff166001610fd3565b60008381526020819052604080822080547fffffffffffffffffffffffffffffffffffffffffffffffffffffffffffff00001661ffff8516908117909155600280547fffffffffffffffffffff0000ffffffffffffffffffffffffffffffffffffffff1674010000000000000000000000000000000000000000830217905590519293509184917fc34c51f14a1ba51ad7984f0e9ce0ef7a0e18364f76ba670ee057653f719d9a6991a35050565b6108ab336102c2565b6102e06108b6610a9e565b610b7b565b60006106b96108c8610a01565b5473ffffffffffffffffffffffffffffffffffffffff1690565b6108f633826108ef610a01565b9190610bd9565b50565b6000806102b760017fca9d3e17f264b0f3984e2634e94adb37fa3e6a8103f06aeae6fa59e21c769f5e610fed565b60007c01000000000000000000000000000000000000000000000000000000007fffffffff00000000000000000000000000000000000000000000000000000000831601610977575060006102b7565b7ffe003659000000000000000000000000000000000000000000000000000000007fffffffff000000000000000000000000000000000000000000000000000000008316016109c8575060016102b7565b507fffffffff00000000000000000000000000000000000000000000000000000000166000908152602091909152604090205460ff1690565b6000806102b760017fc9ed16f33ab3a66c84bfd83099ccb2a8845871e2e1c1928f63797152f0fd54cd610fed565b815473ffffffffffffffffffffffffffffffffffffffff828116911614610a9a576040517f2ef4875e00000000000000000000000000000000000000000000000000000000815273ffffffffffffffffffffffffffffffffffffffff8216600482015260240161031b565b5050565b6000806102b760017f0186a05f63b1553398ad5ea3233c0ce68b8c9eecc47717f123c5c2b42fbd6d9f610fed565b610ad581610cee565b80547fffffffffffffffffffffffffffffffffffffffffffffffffffffffffffffff001681556040517f7805862f689e2f13df9f062ff482ad3ad112aca9e0847911ed832e158c525b3390600090a150565b805460ff16156108f6576040517f9e87fac800000000000000000000000000000000000000000000000000000000815260040160405180910390fd5b600082610b71868685610d29565b1495945050505050565b610b8481610b27565b80547fffffffffffffffffffffffffffffffffffffffffffffffffffffffffffffff001660011781556040517f6985a02210a168e66602d3235cb6db0e70f92b3ba4d376a33c0f3d9434bff62590600090a150565b825473ffffffffffffffffffffffffffffffffffffffff9081169083168114610c46576040517f2ef4875e00000000000000000000000000000000000000000000000000000000815273ffffffffffffffffffffffffffffffffffffffff8416600482015260240161031b565b8173ffffffffffffffffffffffffffffffffffffffff168173ffffffffffffffffffffffffffffffffffffffff1614610ce85783547fffffffffffffffffffffffff00000000000000000000000000000000000000001673ffffffffffffffffffffffffffffffffffffffff8381169182178655604051908316907f8be0079c531659141344cd1fd0a4f28419497f9722a3daafe3b4186f6b6457e090600090a35b50505050565b805460ff166108f6576040517f6cd6020100000000000000000000000000000000000000000000000000000000815260040160405180910390fd5b600081815b84811015610d6257610d5882878784818110610d4c57610d4c611000565b90506020020135610d6b565b9150600101610d2e565b50949350505050565b6000818310610d87576000828152602084905260409020610d96565b60008381526020839052604090205b9392505050565b600060208284031215610daf57600080fd5b81357fffffffff0000000000000000000000000000000000000000000000000000000081168114610d9657600080fd5b803573ffffffffffffffffffffffffffffffffffffffff81168114610e0357600080fd5b919050565b600080600080600060808688031215610e2057600080fd5b610e2986610ddf565b94506020860135935060408601359250606086013567ffffffffffffffff811115610e5357600080fd5b8601601f81018813610e6457600080fd5b803567ffffffffffffffff811115610e7b57600080fd5b8860208260051b8401011115610e9057600080fd5b959894975092955050506020019190565b600060208284031215610eb357600080fd5b610d9682610ddf565b600060208284031215610ece57600080fd5b5035919050565b73ffffffffffffffffffffffffffffffffffffffff8516815273ffffffffffffffffffffffffffffffffffffffff84166020820152826040820152608060608201526000825180608084015260005b81811015610f4157602081860181015160a0868401015201610f24565b50600060a0828501015260a07fffffffffffffffffffffffffffffffffffffffffffffffffffffffffffffffe0601f83011684010191505095945050505050565b600060208284031215610f9457600080fd5b81518015158114610d9657600080fd5b7f4e487b7100000000000000000000000000000000000000000000000000000000600052601160045260246000fd5b61ffff81811683821601908111156102b7576102b7610fa4565b818103818111156102b7576102b7610fa4565b7f4e487b7100000000000000000000000000000000000000000000000000000000600052603260045260246000fdfea2646970667358221220ff792e0bc7dca8f8333ded2d39f0b26509d026a7a5d475cdf75d7a11bdb1ec6464736f6c634300081c0033",
  "linkReferences": {},
  "deployedLinkReferences": {}
}