{
  "_format": "hh-sol-artifact-1",
  "contractName": "PointsV2",
  "sourceName": "contracts/points/PointsV2.sol",
  "abi": [
    {
      "inputs": [
        {
          "internalType": "contract IForwarderRegistry",
          "name": "forwarderRegistry",
          "type": "address"
        }
      ],
      "stateMutability": "nonpayable",
      "type": "constructor"
    },
    {
      "inputs": [
        {
          "internalType": "address",
          "name": "holder",
          "type": "address"
        }
      ],
      "name": "ApprovalToAddressZero",
      "type": "error"
    },
    {
      "inputs": [
        {
          "internalType": "address",
          "name": "spender",
          "type": "address"
        },
        {
          "internalType": "uint256",
          "name": "amount",
          "type": "uint256"
        },
        {
          "internalType": "address",
          "name": "target",
          "type": "address"
        },
        {
          "internalType": "bytes",
          "name": "data",
          "type": "bytes"
        }
      ],
      "name": "CallbackRejected",
      "type": "error"
    },
    {
      "inputs": [],
      "name": "DepositToAddressZero",
      "type": "error"
    },
    {
      "inputs": [],
      "name": "DepositZeroAmount",
      "type": "error"
    },
    {
      "inputs": [],
      "name": "ExpiredSignature",
      "type": "error"
    },
    {
      "inputs": [],
      "name": "IllegalInterfaceId",
      "type": "error"
    },
    {
      "inputs": [
        {
          "internalType": "address",
          "name": "owner",
          "type": "address"
        },
        {
          "internalType": "address",
          "name": "spender",
          "type": "address"
        },
        {
          "internalType": "uint256",
          "name": "allowance",
          "type": "uint256"
        },
        {
          "internalType": "uint256",
          "name": "decrement",
          "type": "uint256"
        }
      ],
      "name": "InsufficientAllowance",
      "type": "error"
    },
    {
      "inputs": [
        {
          "internalType": "address",
          "name": "holder",
          "type": "address"
        },
        {
          "internalType": "uint256",
          "name": "availableBalance",
          "type": "uint256"
        },
        {
          "internalType": "uint256",
          "name": "requiredBalance",
          "type": "uint256"
        }
      ],
      "name": "InsufficientBalance",
      "type": "error"
    },
    {
      "inputs": [],
      "name": "InvalidShortString",
      "type": "error"
    },
    {
      "inputs": [],
      "name": "InvalidSignature",
      "type": "error"
    },
    {
      "inputs": [
        {
          "internalType": "address",
          "name": "account",
          "type": "address"
        }
      ],
      "name": "NotContractOwner",
      "type": "error"
    },
    {
      "inputs": [
        {
          "internalType": "bytes32",
          "name": "role",
          "type": "bytes32"
        },
        {
          "internalType": "address",
          "name": "account",
          "type": "address"
        }
      ],
      "name": "NotRoleHolder",
      "type": "error"
    },
    {
      "inputs": [
        {
          "internalType": "string",
          "name": "str",
          "type": "string"
        }
      ],
      "name": "StringTooLong",
      "type": "error"
    },
    {
      "anonymous": false,
      "inputs": [
        {
          "indexed": true,
          "internalType": "address",
          "name": "holder",
          "type": "address"
        },
        {
          "indexed": true,
          "internalType": "address",
          "name": "spender",
          "type": "address"
        },
        {
          "indexed": false,
          "internalType": "uint256",
          "name": "amount",
          "type": "uint256"
        }
      ],
      "name": "Approval",
      "type": "event"
    },
    {
      "anonymous": false,
      "inputs": [
        {
          "indexed": true,
          "internalType": "address",
          "name": "depositor",
          "type": "address"
        },
        {
          "indexed": true,
          "internalType": "bytes32",
          "name": "reasonCode",
          "type": "bytes32"
        },
        {
          "indexed": true,
          "internalType": "address",
          "name": "holder",
          "type": "address"
        },
        {
          "indexed": false,
          "internalType": "uint256",
          "name": "amount",
          "type": "uint256"
        }
      ],
      "name": "Deposited",
      "type": "event"
    },
    {
      "anonymous": false,
      "inputs": [],
      "name": "EIP712DomainChanged",
      "type": "event"
    },
    {
      "anonymous": false,
      "inputs": [
        {
          "indexed": true,
          "internalType": "address",
          "name": "previousOwner",
          "type": "address"
        },
        {
          "indexed": true,
          "internalType": "address",
          "name": "newOwner",
          "type": "address"
        }
      ],
      "name": "OwnershipTransferred",
      "type": "event"
    },
    {
      "anonymous": false,
      "inputs": [
        {
          "indexed": false,
          "internalType": "bytes32",
          "name": "role",
          "type": "bytes32"
        },
        {
          "indexed": false,
          "internalType": "address",
          "name": "account",
          "type": "address"
        },
        {
          "indexed": false,
          "internalType": "address",
          "name": "operator",
          "type": "address"
        }
      ],
      "name": "RoleGranted",
      "type": "event"
    },
    {
      "anonymous": false,
      "inputs": [
        {
          "indexed": false,
          "internalType": "bytes32",
          "name": "role",
          "type": "bytes32"
        },
        {
          "indexed": false,
          "internalType": "address",
          "name": "account",
          "type": "address"
        },
        {
          "indexed": false,
          "internalType": "address",
          "name": "operator",
          "type": "address"
        }
      ],
      "name": "RoleRevoked",
      "type": "event"
    },
    {
      "anonymous": false,
      "inputs": [
        {
          "indexed": true,
          "internalType": "address",
          "name": "spender",
          "type": "address"
        },
        {
          "indexed": true,
          "internalType": "address",
          "name": "holder",
          "type": "address"
        },
        {
          "indexed": false,
          "internalType": "uint256",
          "name": "amount",
          "type": "uint256"
        }
      ],
      "name": "Spent",
      "type": "event"
    },
    {
      "inputs": [],
      "name": "DEPOSITOR_ROLE",
      "outputs": [
        {
          "internalType": "bytes32",
          "name": "",
          "type": "bytes32"
        }
      ],
      "stateMutability": "view",
      "type": "function"
    },
    {
      "inputs": [
        {
          "internalType": "address",
          "name": "holder",
          "type": "address"
        },
        {
          "internalType": "address",
          "name": "spender",
          "type": "address"
        }
      ],
      "name": "allowances",
      "outputs": [
        {
          "internalType": "uint256",
          "name": "amount",
          "type": "uint256"
        }
      ],
      "stateMutability": "view",
      "type": "function"
    },
    {
      "inputs": [
        {
          "internalType": "address",
          "name": "spender",
          "type": "address"
        },
        {
          "internalType": "uint256",
          "name": "amount",
          "type": "uint256"
        }
      ],
      "name": "approve",
      "outputs": [],
      "stateMutability": "nonpayable",
      "type": "function"
    },
    {
      "inputs": [
        {
          "internalType": "address",
          "name": "holder",
          "type": "address"
        },
        {
          "internalType": "address",
          "name": "spender",
          "type": "address"
        },
        {
          "internalType": "uint256",
          "name": "amount",
          "type": "uint256"
        },
        {
          "internalType": "uint256",
          "name": "deadline",
          "type": "uint256"
        },
        {
          "internalType": "bytes",
          "name": "signature",
          "type": "bytes"
        }
      ],
      "name": "approveWithSignature",
      "outputs": [],
      "stateMutability": "nonpayable",
      "type": "function"
    },
    {
      "inputs": [
        {
          "internalType": "address",
          "name": "holder",
          "type": "address"
        }
      ],
      "name": "balances",
      "outputs": [
        {
          "internalType": "uint256",
          "name": "balance",
          "type": "uint256"
        }
      ],
      "stateMutability": "view",
      "type": "function"
    },
    {
      "inputs": [
        {
          "internalType": "address",
          "name": "holder",
          "type": "address"
        },
        {
          "internalType": "uint256",
          "name": "amount",
          "type": "uint256"
        },
        {
          "internalType": "bytes32",
          "name": "depositReasonCode",
          "type": "bytes32"
        }
      ],
      "name": "deposit",
      "outputs": [],
      "stateMutability": "nonpayable",
      "type": "function"
    },
    {
      "inputs": [],
      "name": "eip712Domain",
      "outputs": [
        {
          "internalType": "bytes1",
          "name": "fields",
          "type": "bytes1"
        },
        {
          "internalType": "string",
          "name": "name",
          "type": "string"
        },
        {
          "internalType": "string",
          "name": "version",
          "type": "string"
        },
        {
          "internalType": "uint256",
          "name": "chainId",
          "type": "uint256"
        },
        {
          "internalType": "address",
          "name": "verifyingContract",
          "type": "address"
        },
        {
          "internalType": "bytes32",
          "name": "salt",
          "type": "bytes32"
        },
        {
          "internalType": "uint256[]",
          "name": "extensions",
          "type": "uint256[]"
        }
      ],
      "stateMutability": "view",
      "type": "function"
    },
    {
      "inputs": [],
      "name": "forwarderRegistry",
      "outputs": [
        {
          "internalType": "contract IForwarderRegistry",
          "name": "",
          "type": "address"
        }
      ],
      "stateMutability": "view",
      "type": "function"
    },
    {
      "inputs": [
        {
          "internalType": "address",
          "name": "holder",
          "type": "address"
        },
        {
          "internalType": "address",
          "name": "spender",
          "type": "address"
        }
      ],
      "name": "getNonceKey",
      "outputs": [
        {
          "internalType": "bytes32",
          "name": "",
          "type": "bytes32"
        }
      ],
      "stateMutability": "pure",
      "type": "function"
    },
    {
      "inputs": [
        {
          "internalType": "bytes32",
          "name": "role",
          "type": "bytes32"
        },
        {
          "internalType": "address",
          "name": "account",
          "type": "address"
        }
      ],
      "name": "grantRole",
      "outputs": [],
      "stateMutability": "nonpayable",
      "type": "function"
    },
    {
      "inputs": [
        {
          "internalType": "bytes32",
          "name": "role",
          "type": "bytes32"
        },
        {
          "internalType": "address",
          "name": "account",
          "type": "address"
        }
      ],
      "name": "hasRole",
      "outputs": [
        {
          "internalType": "bool",
          "name": "hasRole_",
          "type": "bool"
        }
      ],
      "stateMutability": "view",
      "type": "function"
    },
    {
      "inputs": [
        {
          "internalType": "address",
          "name": "forwarder",
          "type": "address"
        }
      ],
      "name": "isTrustedForwarder",
      "outputs": [
        {
          "internalType": "bool",
          "name": "",
          "type": "bool"
        }
      ],
      "stateMutability": "view",
      "type": "function"
    },
    {
      "inputs": [
        {
          "internalType": "bytes32",
          "name": "hashHolderSpender",
          "type": "bytes32"
        }
      ],
      "name": "nonces",
      "outputs": [
        {
          "internalType": "uint256",
          "name": "nonce",
          "type": "uint256"
        }
      ],
      "stateMutability": "view",
      "type": "function"
    },
    {
      "inputs": [],
      "name": "owner",
      "outputs": [
        {
          "internalType": "address",
          "name": "",
          "type": "address"
        }
      ],
      "stateMutability": "view",
      "type": "function"
    },
    {
      "inputs": [
        {
          "internalType": "bytes32",
          "name": "role",
          "type": "bytes32"
        }
      ],
      "name": "renounceRole",
      "outputs": [],
      "stateMutability": "nonpayable",
      "type": "function"
    },
    {
      "inputs": [
        {
          "internalType": "bytes32",
          "name": "role",
          "type": "bytes32"
        },
        {
          "internalType": "address",
          "name": "account",
          "type": "address"
        }
      ],
      "name": "revokeRole",
      "outputs": [],
      "stateMutability": "nonpayable",
      "type": "function"
    },
    {
      "inputs": [
        {
          "internalType": "uint256",
          "name": "amount",
          "type": "uint256"
        },
        {
          "internalType": "address",
          "name": "target",
          "type": "address"
        },
        {
          "internalType": "bytes",
          "name": "data",
          "type": "bytes"
        }
      ],
      "name": "spendAndCall",
      "outputs": [],
      "stateMutability": "nonpayable",
      "type": "function"
    },
    {
      "inputs": [
        {
          "internalType": "address",
          "name": "holder",
          "type": "address"
        },
        {
          "internalType": "uint256",
          "name": "amount",
          "type": "uint256"
        }
      ],
      "name": "spendFrom",
      "outputs": [],
      "stateMutability": "nonpayable",
      "type": "function"
    },
    {
      "inputs": [
        {
          "internalType": "bytes4",
          "name": "interfaceId",
          "type": "bytes4"
        }
      ],
      "name": "supportsInterface",
      "outputs": [
        {
          "internalType": "bool",
          "name": "",
          "type": "bool"
        }
      ],
      "stateMutability": "view",
      "type": "function"
    },
    {
      "inputs": [
        {
          "internalType": "address",
          "name": "newOwner",
          "type": "address"
        }
      ],
      "name": "transferOwnership",
      "outputs": [],
      "stateMutability": "nonpayable",
      "type": "function"
    }
  ],
  "bytecode": "0x61018080604052346102335760208161256880380380916100208285610238565b83398101031261023357516001600160a01b038116810361023357604051610049604082610238565b60068152602081019065506f696e747360d01b82526040519161006d604084610238565b600183526020830191601960f91b8352336101d4575b6307f5828d60e41b6000527fca9d3e17f264b0f3984e2634e94adb37fa3e6a8103f06aeae6fa59e21c769f5d6020527fa53d5a615b1d5279f1a6647c5c0f31bf064b1e70af135676a4a96aeaeb691a2f805460ff191660011790556100e781610271565b610120526100f484610433565b61014052519020918260e05251902080610100524660a0526040519060208201927f8b73c3c69bb8fe3d512ecc4cf759cc79239f7b179b0ffacaa9a75d522b39400f8452604083015260608201524660808201523060a082015260a0815261015d60c082610238565b5190206080523060c05261016052604051611f9690816105d2823960805181611db1015260a05181611e68015260c05181611d82015260e05181611e0001526101005181611e26015261012051816109740152610140518161099d01526101605181818161109d01528181611496015261186c0152f35b7fc9ed16f33ab3a66c84bfd83099ccb2a8845871e2e1c1928f63797152f0fd54cc80546001600160a01b0319163390811790915560007f8be0079c531659141344cd1fd0a4f28419497f9722a3daafe3b4186f6b6457e08180a3610083565b600080fd5b601f909101601f19168101906001600160401b0382119082101761025b57604052565b634e487b7160e01b600052604160045260246000fd5b90815160208110600014610309575090601f8151116102ad57602081519101516020821061029d571790565b6000198260200360031b1b161790565b6040519063305a27a960e01b8252602060048301528181519182602483015260005b8381106102f15750508160006044809484010152601f80199101168101030190fd5b602082820181015160448784010152859350016102cf565b6001600160401b03811161025b57600054600181811c91168015610429575b602082101461041357601f81116103de575b50602092601f821160011461037a579281929360009261036f575b50508160011b916000199060031b1c19161760005560ff90565b015190503880610355565b601f1982169360008052806000209160005b8681106103c657508360019596106103ad575b505050811b0160005560ff90565b015160001960f88460031b161c1916905538808061039f565b9192602060018192868501518155019401920161038c565b60008052601f6020600020910160051c810190601f830160051c015b818110610407575061033a565b600081556001016103fa565b634e487b7160e01b600052602260045260246000fd5b90607f1690610328565b908151602081106000146104bb575090601f81511161045f57602081519101516020821061029d571790565b6040519063305a27a960e01b8252602060048301528181519182602483015260005b8381106104a35750508160006044809484010152601f80199101168101030190fd5b60208282018101516044878401015285935001610481565b6001600160401b03811161025b57600154600181811c911680156105c7575b602082101461041357601f8111610591575b50602092601f821160011461052c5792819293600092610521575b50508160011b916000199060031b1c19161760015560ff90565b015190503880610507565b601f198216936001600052806000209160005b8681106105795750836001959610610560575b505050811b0160015560ff90565b015160001960f88460031b161c19169055388080610552565b9192602060018192868501518155019401920161053f565b6001600052601f6020600020910160051c810190601f830160051c015b8181106105bb57506104ec565b600081556001016105ae565b90607f16906104da56fe6080604052600436101561001257600080fd5b60003560e01c806301ffc9a714611346578063095ea7b3146112fb57806326b3293f1461112657806327e235e3146110c15780632b4c9f16146110525780632f2ff15d14610ec657806355b6ed5c14610e36578063572b6c0514610deb5780635d21f95014610bb85780636aade28814610a7457806384b0196e1461093d5780638bb9c5bf146107ce5780638da5cb5b1461075d57806391d14854146106c55780639e317f121461067b578063a3b0b5a314610622578063d547741f14610499578063e9a1348d1461026f578063f2fde38b1461014f5763ff4db69c146100f857600080fd5b3461014a5760407ffffffffffffffffffffffffffffffffffffffffffffffffffffffffffffffffc36011261014a5760206101426101346113ac565b61013c6113cf565b9061158d565b604051908152f35b600080fd5b3461014a5760207ffffffffffffffffffffffffffffffffffffffffffffffffffffffffffffffffc36011261014a576101866113ac565b7fc9ed16f33ab3a66c84bfd83099ccb2a8845871e2e1c1928f63797152f0fd54cc6101af611855565b9080549273ffffffffffffffffffffffffffffffffffffffff8085169316838103610242575073ffffffffffffffffffffffffffffffffffffffff16928383036101f557005b7fffffffffffffffffffffffff000000000000000000000000000000000000000016831790557f8be0079c531659141344cd1fd0a4f28419497f9722a3daafe3b4186f6b6457e0600080a3005b7f2ef4875e0000000000000000000000000000000000000000000000000000000060005260045260246000fd5b3461014a5760607ffffffffffffffffffffffffffffffffffffffffffffffffffffffffffffffffc36011261014a576004356102a96113cf565b60443567ffffffffffffffff811161014a576102c99036906004016113f2565b9073ffffffffffffffffffffffffffffffffffffffff6102e7611855565b936102f3868680611794565b169173ffffffffffffffffffffffffffffffffffffffff604051947fd2741e830000000000000000000000000000000000000000000000000000000086521693846004820152856024820152606060448201526020818061035860648201868861154e565b03816000885af190811561048d5760009161040b575b507fffffffff000000000000000000000000000000000000000000000000000000007fd2741e83000000000000000000000000000000000000000000000000000000009116036103ba57005b610407926040519586957f520d240000000000000000000000000000000000000000000000000000000000875260048701526024860152604485015260806064850152608484019161154e565b0390fd5b6020813d602011610485575b81610424602093836114de565b810103126104815751907fffffffff000000000000000000000000000000000000000000000000000000008216820361047e57507fffffffff0000000000000000000000000000000000000000000000000000000061036e565b80fd5b5080fd5b3d9150610417565b6040513d6000823e3d90fd5b3461014a5760407ffffffffffffffffffffffffffffffffffffffffffffffffffffffffffffffffc36011261014a576004356104d36113cf565b6104db611855565b9173ffffffffffffffffffffffffffffffffffffffff7fc9ed16f33ab3a66c84bfd83099ccb2a8845871e2e1c1928f63797152f0fd54cc541673ffffffffffffffffffffffffffffffffffffffff841690810361024257507fc8827d3282af6f37b64c3e9e6f3ac9df286ab0bb0fccd6f8661bf19adb368b228160005280602052604060002073ffffffffffffffffffffffffffffffffffffffff841660005260205260ff6040600020541661058d57005b60008281526020918252604080822073ffffffffffffffffffffffffffffffffffffffff9586168084529084529181902080547fffffffffffffffffffffffffffffffffffffffffffffffffffffffffffffff0016905580519384529183015291909216908201527ff6391f5c32d9c69d2a47ea670b442974b53935d1edc7fd64eb21e047a839171b9080606081015b0390a1005b3461014a5760007ffffffffffffffffffffffffffffffffffffffffffffffffffffffffffffffffc36011261014a5760206040517f8f4f2da22e8ac8f11e15f9fc141cddbb5deea8800186560abb6e68c5496619a98152f35b3461014a5760207ffffffffffffffffffffffffffffffffffffffffffffffffffffffffffffffffc36011261014a5760043560005260046020526020604060002054604051908152f35b3461014a5760407ffffffffffffffffffffffffffffffffffffffffffffffffffffffffffffffffc36011261014a576106fc6113cf565b7fc8827d3282af6f37b64c3e9e6f3ac9df286ab0bb0fccd6f8661bf19adb368b2260043560005260205273ffffffffffffffffffffffffffffffffffffffff60406000209116600052602052602060ff604060002054166040519015158152f35b3461014a5760007ffffffffffffffffffffffffffffffffffffffffffffffffffffffffffffffffc36011261014a57602073ffffffffffffffffffffffffffffffffffffffff7fc9ed16f33ab3a66c84bfd83099ccb2a8845871e2e1c1928f63797152f0fd54cc5416604051908152f35b3461014a5760207ffffffffffffffffffffffffffffffffffffffffffffffffffffffffffffffffc36011261014a577fc8827d3282af6f37b64c3e9e6f3ac9df286ab0bb0fccd6f8661bf19adb368b22600435610829611855565b908060005282602052604060002073ffffffffffffffffffffffffffffffffffffffff831660005260205260ff60406000205416156108f55760008181526020938452604080822073ffffffffffffffffffffffffffffffffffffffff949094168083529385529081902080547fffffffffffffffffffffffffffffffffffffffffffffffffffffffffffffff001690558051918252928101829052918201527ff6391f5c32d9c69d2a47ea670b442974b53935d1edc7fd64eb21e047a839171b90806060810161061d565b73ffffffffffffffffffffffffffffffffffffffff92507f7aa72882000000000000000000000000000000000000000000000000000000006000526004521660245260446000fd5b3461014a5760007ffffffffffffffffffffffffffffffffffffffffffffffffffffffffffffffffc36011261014a57610a166109987f0000000000000000000000000000000000000000000000000000000000000000611b01565b6109c17f0000000000000000000000000000000000000000000000000000000000000000611c99565b6020610a24604051926109d483856114de565b6000845260003681376040519586957f0f00000000000000000000000000000000000000000000000000000000000000875260e08588015260e0870190611420565b908582036040870152611420565b466060850152306080850152600060a085015283810360c085015281808451928381520193019160005b828110610a5d57505050500390f35b835185528695509381019392810192600101610a4e565b3461014a5760407ffffffffffffffffffffffffffffffffffffffffffffffffffffffffffffffffc36011261014a57610aab6113ac565b602435610ab6611855565b9173ffffffffffffffffffffffffffffffffffffffff83169273ffffffffffffffffffffffffffffffffffffffff821693808503610afc575b50610afa9350611794565b005b84600052600260205260406000208160005260205260406000205494848610610b76577f8c5be1e5ebec7d5bd14f71427d1e84f3dd0314c0f7b2291e5b200ac8c7c3b9256020610b4f87610afa996115dd565b8360005260028252604060002085600052825280604060002055604051908152a384610aef565b8486608493604051937f91beda240000000000000000000000000000000000000000000000000000000085526004850152602484015260448301526064820152fd5b3461014a5760a07ffffffffffffffffffffffffffffffffffffffffffffffffffffffffffffffffc36011261014a57610bef6113ac565b610bf76113cf565b604435906064359260843567ffffffffffffffff811161014a57610c1f9036906004016113f2565b9490814211610dc157610c32848461158d565b9586600052600460205260426040600020549360405160208101917f57417854b9a47bf7c74564d2852a775d79b1790c7b31ab63ff902485418de762835273ffffffffffffffffffffffffffffffffffffffff8816604083015273ffffffffffffffffffffffffffffffffffffffff8916606083015289608083015260a08201528560c082015260c08152610cc860e0826114de565b519020610cd3611d6b565b90604051917f190100000000000000000000000000000000000000000000000000000000000083526002830152602282015220610d0f8261175a565b91610d1d60405193846114de565b808352368185011161014a57602081600092610d4196838701378401015284611985565b15610d975760018101809111610d6857610afa946000526004602052604060002055611699565b7f4e487b7100000000000000000000000000000000000000000000000000000000600052601160045260246000fd5b7f8baa579f0000000000000000000000000000000000000000000000000000000060005260046000fd5b7fdf4cc36d0000000000000000000000000000000000000000000000000000000060005260046000fd5b3461014a5760207ffffffffffffffffffffffffffffffffffffffffffffffffffffffffffffffffc36011261014a576020610e2c610e276113ac565b61147f565b6040519015158152f35b3461014a5760407ffffffffffffffffffffffffffffffffffffffffffffffffffffffffffffffffc36011261014a57610e6d6113ac565b73ffffffffffffffffffffffffffffffffffffffff610e8a6113cf565b9116600052600260205273ffffffffffffffffffffffffffffffffffffffff604060002091166000526020526020604060002054604051908152f35b3461014a5760407ffffffffffffffffffffffffffffffffffffffffffffffffffffffffffffffffc36011261014a57600435610f006113cf565b610f08611855565b9173ffffffffffffffffffffffffffffffffffffffff7fc9ed16f33ab3a66c84bfd83099ccb2a8845871e2e1c1928f63797152f0fd54cc541673ffffffffffffffffffffffffffffffffffffffff841690810361024257507fc8827d3282af6f37b64c3e9e6f3ac9df286ab0bb0fccd6f8661bf19adb368b228160005280602052604060002073ffffffffffffffffffffffffffffffffffffffff841660005260205260ff6040600020541615610fbb57005b60008281526020918252604080822073ffffffffffffffffffffffffffffffffffffffff9586168084529084529181902080547fffffffffffffffffffffffffffffffffffffffffffffffffffffffffffffff0016600117905580519384529183015291909216908201527f2f8788117e7eff1d82e926ec794901d17c78024a50270940304540a733656f0d90806060810161061d565b3461014a5760007ffffffffffffffffffffffffffffffffffffffffffffffffffffffffffffffffc36011261014a57602060405173ffffffffffffffffffffffffffffffffffffffff7f0000000000000000000000000000000000000000000000000000000000000000168152f35b3461014a5760207ffffffffffffffffffffffffffffffffffffffffffffffffffffffffffffffffc36011261014a5773ffffffffffffffffffffffffffffffffffffffff61110d6113ac565b1660005260036020526020604060002054604051908152f35b3461014a5760607ffffffffffffffffffffffffffffffffffffffffffffffffffffffffffffffffc36011261014a5761115d6113ac565b60243590611169611855565b73ffffffffffffffffffffffffffffffffffffffff811660009081527fb57053883a8facdd46f3aae5831e59f19992444af6b52570acc8e224c51237c2602052604090205490919060ff16156112935773ffffffffffffffffffffffffffffffffffffffff1691821561126957801561123f578260005260036020526040600020805490828201809211610d6857556040519081527f81226022599698f02239ac5895ce7a96962ba5fe72f8f7610d1cc2cb0405f391602073ffffffffffffffffffffffffffffffffffffffff604435941692a4005b7f8b0733540000000000000000000000000000000000000000000000000000000060005260046000fd5b7fbff8f0bd0000000000000000000000000000000000000000000000000000000060005260046000fd5b73ffffffffffffffffffffffffffffffffffffffff827f7aa72882000000000000000000000000000000000000000000000000000000006000527f8f4f2da22e8ac8f11e15f9fc141cddbb5deea8800186560abb6e68c5496619a96004521660245260446000fd5b3461014a5760407ffffffffffffffffffffffffffffffffffffffffffffffffffffffffffffffffc36011261014a57610afa6113356113ac565b60243590611341611855565b611699565b3461014a5760207ffffffffffffffffffffffffffffffffffffffffffffffffffffffffffffffffc36011261014a576004357fffffffff000000000000000000000000000000000000000000000000000000008116810361014a57610e2c6020916115ea565b6004359073ffffffffffffffffffffffffffffffffffffffff8216820361014a57565b6024359073ffffffffffffffffffffffffffffffffffffffff8216820361014a57565b9181601f8401121561014a5782359167ffffffffffffffff831161014a576020838186019501011161014a57565b919082519283825260005b84811061146a5750507fffffffffffffffffffffffffffffffffffffffffffffffffffffffffffffffe0601f8460006020809697860101520116010190565b8060208092840101518282860101520161142b565b73ffffffffffffffffffffffffffffffffffffffff7f0000000000000000000000000000000000000000000000000000000000000000169081156114d75773ffffffffffffffffffffffffffffffffffffffff161490565b5050600090565b90601f7fffffffffffffffffffffffffffffffffffffffffffffffffffffffffffffffe0910116810190811067ffffffffffffffff82111761151f57604052565b7f4e487b7100000000000000000000000000000000000000000000000000000000600052604160045260246000fd5b601f82602094937fffffffffffffffffffffffffffffffffffffffffffffffffffffffffffffffe0938186528686013760008582860101520116010190565b907fffffffffffffffffffffffffffffffffffffffff0000000000000000000000006040519181602084019460601b16845260601b166034820152602881526115d76048826114de565b51902090565b91908203918211610d6857565b7fffffffff00000000000000000000000000000000000000000000000000000000167fffffffff000000000000000000000000000000000000000000000000000000008114611693577f01ffc9a700000000000000000000000000000000000000000000000000000000811461168d576000527fca9d3e17f264b0f3984e2634e94adb37fa3e6a8103f06aeae6fa59e21c769f5d60205260ff6040600020541690565b50600190565b50600090565b919073ffffffffffffffffffffffffffffffffffffffff1691821561171657602073ffffffffffffffffffffffffffffffffffffffff7f8c5be1e5ebec7d5bd14f71427d1e84f3dd0314c0f7b2291e5b200ac8c7c3b9259216928360005260028252604060002085600052825280604060002055604051908152a3565b73ffffffffffffffffffffffffffffffffffffffff907f060c5872000000000000000000000000000000000000000000000000000000006000521660045260246000fd5b67ffffffffffffffff811161151f57601f017fffffffffffffffffffffffffffffffffffffffffffffffffffffffffffffffe01660200190565b919073ffffffffffffffffffffffffffffffffffffffff169182600052600360205260406000205482811061181f5773ffffffffffffffffffffffffffffffffffffffff7fc18352ae46a2296c951b2256c5ebc5b4546e6222fea2e4f36e824db9d44eb7ec92611806856020946115dd565b86600052600384526040600020556040519485521692a3565b9050827fdb42144d0000000000000000000000000000000000000000000000000000000060005260045260245260445260646000fd5b73ffffffffffffffffffffffffffffffffffffffff7f000000000000000000000000000000000000000000000000000000000000000016801561197657323314801561197b575b611976577fffffffffffffffffffffffffffffffffffffffffffffffffffffffffffffffec36013560601c908033149081156118e0575b506118dd57503390565b90565b60649150602090604051928380927f019a20280000000000000000000000000000000000000000000000000000000082528660048301523360248301523060448301525afa90811561048d5760009161193b575b50386118d3565b6020813d60201161196e575b81611954602093836114de565b81010312610481575190811515820361047e575038611934565b3d9150611947565b503390565b506018361061189c565b9190823b6119fc579061199791611e8e565b5060048110156119cd571591826119ad57505090565b73ffffffffffffffffffffffffffffffffffffffff919250811691161490565b7f4e487b7100000000000000000000000000000000000000000000000000000000600052602160045260246000fd5b91600092611a4c611a78859460405192839160208301957f1626ba7e0000000000000000000000000000000000000000000000000000000087526024840152604060448401526064830190611420565b037fffffffffffffffffffffffffffffffffffffffffffffffffffffffffffffffe081018352826114de565b51915afa3d15611afa573d611a8c8161175a565b90611a9a60405192836114de565b81523d6000602083013e5b81611aec575b81611ab4575090565b905060208180518101031261014a57602001517f1626ba7e000000000000000000000000000000000000000000000000000000001490565b905060208151101590611aab565b6060611aa5565b60ff8114611b835760ff811690601f8211611b59576040805192611b2582856114de565b602084527fffffffffffffffffffffffffffffffffffffffffffffffffffffffffffffffe060208501920136833783525290565b7fb3512b0c0000000000000000000000000000000000000000000000000000000060005260046000fd5b5060405160008054908160011c91600181168015611c8f575b602084108114611c62578385528492918115611c255750600114611bc7575b6118dd925003826114de565b50600080805290917f290decd9548b62a8d60345a988386fc84ba6bc95484008f6362f93160ef3e5635b818310611c095750509060206118dd92820101611bbb565b6020919350806001915483858801015201910190918392611bf1565b602092506118dd9491507fffffffffffffffffffffffffffffffffffffffffffffffffffffffffffffff001682840152151560051b820101611bbb565b6024837f4e487b710000000000000000000000000000000000000000000000000000000081526022600452fd5b92607f1692611b9c565b60ff8114611cbd5760ff811690601f8211611b59576040805192611b2582856114de565b506040516000600154908160011c91600181168015611d61575b602084108114611c62578385528492918115611c255750600114611d01576118dd925003826114de565b506001600090815290917fb10e2d527612073b26eecdfd717e6a320cf44b4afac2b0732d9fcbe2b7fa0cf65b818310611d455750509060206118dd92820101611bbb565b6020919350806001915483858801015201910190918392611d2d565b92607f1692611cd7565b73ffffffffffffffffffffffffffffffffffffffff7f000000000000000000000000000000000000000000000000000000000000000016301480611e65575b15611dd3577f000000000000000000000000000000000000000000000000000000000000000090565b60405160208101907f8b73c3c69bb8fe3d512ecc4cf759cc79239f7b179b0ffacaa9a75d522b39400f82527f000000000000000000000000000000000000000000000000000000000000000060408201527f000000000000000000000000000000000000000000000000000000000000000060608201524660808201523060a082015260a081526115d760c0826114de565b507f00000000000000000000000000000000000000000000000000000000000000004614611daa565b8151919060418303611ebf57611eb892506020820151906060604084015193015160001a90611eca565b9192909190565b505060009160029190565b91907f7fffffffffffffffffffffffffffffff5d576e7357a4501ddfe92f46681b20a08411611f54579160209360809260ff60009560405194855216868401526040830152606082015282805260015afa1561048d5760005173ffffffffffffffffffffffffffffffffffffffff811615611f485790600090600090565b50600090600190600090565b5050506000916003919056fea2646970667358221220a5c5bcb4c225c48af8f507b7d49abb31171c86cab2e4a39a9c2f534dfdebc77764736f6c634300081e0033",
  "linkReferences": {},
  "deployedLinkReferences": {}
}