{
  "_format": "hh-sol-artifact-1",
  "contractName": "ERC721ClaimWindowMerkleClaim",
  "sourceName": "contracts/pfp/ERC721ClaimWindowMerkleClaim.sol",
  "abi": [
    {
      "inputs": [
        {
          "internalType": "uint256",
          "name": "mintSupply",
          "type": "uint256"
        },
        {
          "internalType": "contract ERC721Full",
          "name": "rewardContract",
          "type": "address"
        },
        {
          "internalType": "contract IForwarderRegistry",
          "name": "_forwarderRegistry",
          "type": "address"
        }
      ],
      "stateMutability": "nonpayable",
      "type": "constructor"
    },
    {
      "inputs": [
        {
          "internalType": "bytes32",
          "name": "epochId",
          "type": "bytes32"
        },
        {
          "internalType": "address",
          "name": "recipient",
          "type": "address"
        }
      ],
      "name": "AlreadyClaimed",
      "type": "error"
    },
    {
      "inputs": [
        {
          "internalType": "bytes32",
          "name": "epochId",
          "type": "bytes32"
        }
      ],
      "name": "EpochIdAlreadyExists",
      "type": "error"
    },
    {
      "inputs": [
        {
          "internalType": "bytes32",
          "name": "epochId",
          "type": "bytes32"
        }
      ],
      "name": "EpochIdNotExists",
      "type": "error"
    },
    {
      "inputs": [],
      "name": "ExceededMintSupply",
      "type": "error"
    },
    {
      "inputs": [],
      "name": "IllegalInterfaceId",
      "type": "error"
    },
    {
      "inputs": [
        {
          "internalType": "uint256",
          "name": "startTime",
          "type": "uint256"
        },
        {
          "internalType": "uint256",
          "name": "endTime",
          "type": "uint256"
        },
        {
          "internalType": "uint256",
          "name": "currentTime",
          "type": "uint256"
        }
      ],
      "name": "InvalidClaimWindow",
      "type": "error"
    },
    {
      "inputs": [
        {
          "internalType": "bytes32",
          "name": "epochId",
          "type": "bytes32"
        },
        {
          "internalType": "address",
          "name": "recipient",
          "type": "address"
        }
      ],
      "name": "InvalidProof",
      "type": "error"
    },
    {
      "inputs": [
        {
          "internalType": "address",
          "name": "account",
          "type": "address"
        }
      ],
      "name": "NotContractOwner",
      "type": "error"
    },
    {
      "inputs": [
        {
          "internalType": "bytes32",
          "name": "epochId",
          "type": "bytes32"
        },
        {
          "internalType": "uint256",
          "name": "currentTime",
          "type": "uint256"
        }
      ],
      "name": "OutOfClaimWindow",
      "type": "error"
    },
    {
      "anonymous": false,
      "inputs": [
        {
          "indexed": true,
          "internalType": "bytes32",
          "name": "epochId",
          "type": "bytes32"
        },
        {
          "indexed": true,
          "internalType": "bytes32",
          "name": "merkleRoot",
          "type": "bytes32"
        },
        {
          "indexed": false,
          "internalType": "uint256",
          "name": "startTime",
          "type": "uint256"
        },
        {
          "indexed": false,
          "internalType": "uint256",
          "name": "endTime",
          "type": "uint256"
        }
      ],
      "name": "EpochMerkleRootSet",
      "type": "event"
    },
    {
      "anonymous": false,
      "inputs": [
        {
          "indexed": true,
          "internalType": "address",
          "name": "previousOwner",
          "type": "address"
        },
        {
          "indexed": true,
          "internalType": "address",
          "name": "newOwner",
          "type": "address"
        }
      ],
      "name": "OwnershipTransferred",
      "type": "event"
    },
    {
      "anonymous": false,
      "inputs": [
        {
          "indexed": true,
          "internalType": "bytes32",
          "name": "epochId",
          "type": "bytes32"
        },
        {
          "indexed": true,
          "internalType": "address",
          "name": "recipient",
          "type": "address"
        },
        {
          "indexed": false,
          "internalType": "uint256",
          "name": "tokenId",
          "type": "uint256"
        }
      ],
      "name": "RewardClaimed",
      "type": "event"
    },
    {
      "inputs": [],
      "name": "MINT_SUPPLY",
      "outputs": [
        {
          "internalType": "uint256",
          "name": "",
          "type": "uint256"
        }
      ],
      "stateMutability": "view",
      "type": "function"
    },
    {
      "inputs": [],
      "name": "REWARD_CONTRACT",
      "outputs": [
        {
          "internalType": "contract ERC721Full",
          "name": "",
          "type": "address"
        }
      ],
      "stateMutability": "view",
      "type": "function"
    },
    {
      "inputs": [
        {
          "internalType": "bytes32",
          "name": "epochId",
          "type": "bytes32"
        },
        {
          "internalType": "address",
          "name": "recipient",
          "type": "address"
        }
      ],
      "name": "canClaim",
      "outputs": [
        {
          "internalType": "enum ERC721ClaimWindowMerkleClaim.ClaimError",
          "name": "",
          "type": "uint8"
        }
      ],
      "stateMutability": "view",
      "type": "function"
    },
    {
      "inputs": [
        {
          "internalType": "bytes32",
          "name": "epochId",
          "type": "bytes32"
        },
        {
          "internalType": "bytes32[]",
          "name": "proof",
          "type": "bytes32[]"
        },
        {
          "internalType": "address",
          "name": "recipient",
          "type": "address"
        }
      ],
      "name": "claim",
      "outputs": [],
      "stateMutability": "nonpayable",
      "type": "function"
    },
    {
      "inputs": [
        {
          "internalType": "bytes32",
          "name": "",
          "type": "bytes32"
        }
      ],
      "name": "claimWindows",
      "outputs": [
        {
          "internalType": "bytes32",
          "name": "merkleRoot",
          "type": "bytes32"
        },
        {
          "internalType": "uint256",
          "name": "startTime",
          "type": "uint256"
        },
        {
          "internalType": "uint256",
          "name": "endTime",
          "type": "uint256"
        }
      ],
      "stateMutability": "view",
      "type": "function"
    },
    {
      "inputs": [
        {
          "internalType": "bytes32",
          "name": "",
          "type": "bytes32"
        }
      ],
      "name": "claimed",
      "outputs": [
        {
          "internalType": "bool",
          "name": "",
          "type": "bool"
        }
      ],
      "stateMutability": "view",
      "type": "function"
    },
    {
      "inputs": [],
      "name": "forwarderRegistry",
      "outputs": [
        {
          "internalType": "contract IForwarderRegistry",
          "name": "",
          "type": "address"
        }
      ],
      "stateMutability": "view",
      "type": "function"
    },
    {
      "inputs": [
        {
          "internalType": "address",
          "name": "forwarder",
          "type": "address"
        }
      ],
      "name": "isTrustedForwarder",
      "outputs": [
        {
          "internalType": "bool",
          "name": "",
          "type": "bool"
        }
      ],
      "stateMutability": "view",
      "type": "function"
    },
    {
      "inputs": [],
      "name": "noOfTokensClaimed",
      "outputs": [
        {
          "internalType": "uint256",
          "name": "",
          "type": "uint256"
        }
      ],
      "stateMutability": "view",
      "type": "function"
    },
    {
      "inputs": [],
      "name": "owner",
      "outputs": [
        {
          "internalType": "address",
          "name": "",
          "type": "address"
        }
      ],
      "stateMutability": "view",
      "type": "function"
    },
    {
      "inputs": [
        {
          "internalType": "bytes32",
          "name": "epochId",
          "type": "bytes32"
        },
        {
          "internalType": "bytes32",
          "name": "merkleRoot",
          "type": "bytes32"
        },
        {
          "internalType": "uint256",
          "name": "startTime",
          "type": "uint256"
        },
        {
          "internalType": "uint256",
          "name": "endTime",
          "type": "uint256"
        }
      ],
      "name": "setEpochMerkleRoot",
      "outputs": [],
      "stateMutability": "nonpayable",
      "type": "function"
    },
    {
      "inputs": [
        {
          "internalType": "bytes4",
          "name": "interfaceId",
          "type": "bytes4"
        }
      ],
      "name": "supportsInterface",
      "outputs": [
        {
          "internalType": "bool",
          "name": "",
          "type": "bool"
        }
      ],
      "stateMutability": "view",
      "type": "function"
    },
    {
      "inputs": [
        {
          "internalType": "address",
          "name": "newOwner",
          "type": "address"
        }
      ],
      "name": "transferOwnership",
      "outputs": [],
      "stateMutability": "nonpayable",
      "type": "function"
    }
  ],
  "bytecode": "0x60e060405234801561001057600080fd5b5060405161132738038061132783398101604081905261002f916101b4565b6001600160a01b0381166080523361004f81610049610068565b9061009c565b505060c0919091526001600160a01b031660a052610218565b60008061009660017fc9ed16f33ab3a66c84bfd83099ccb2a8845871e2e1c1928f63797152f0fd54cd6101f7565b92915050565b6001600160a01b038116156100f25781546001600160a01b0319166001600160a01b03821690811783556040516000907f8be0079c531659141344cd1fd0a4f28419497f9722a3daafe3b4186f6b6457e0908290a35b61010e6307f5828d60e41b6001610107610112565b9190610140565b5050565b60008061009660017fca9d3e17f264b0f3984e2634e94adb37fa3e6a8103f06aeae6fa59e21c769f5e6101f7565b600160e01b6001600160e01b031983160161016e576040516372c683bb60e01b815260040160405180910390fd5b6001600160e01b03199190911660009081526020929092526040909120805460ff1916911515919091179055565b6001600160a01b03811681146101b157600080fd5b50565b6000806000606084860312156101c957600080fd5b8351925060208401516101db8161019c565b60408501519092506101ec8161019c565b809150509250925092565b8181038181111561009657634e487b7160e01b600052601160045260246000fd5b60805160a05160c0516110bd61026a600039600081816101e90152610abd01526000818161016d01526107e50152600081816101230152818161019f01528181610c630152610cf101526110bd6000f3fe608060405234801561001057600080fd5b50600436106100df5760003560e01c80639dfbcde81161008c578063cc3c0f0611610066578063cc3c0f0614610242578063dc45def614610265578063eb02625c146102ae578063f2fde38b146102c157600080fd5b80639dfbcde8146101e4578063aa9641ab14610219578063ba65912e1461023957600080fd5b80633a5af339116100bd5780633a5af33914610168578063572b6c051461018f5780638da5cb5b146101dc57600080fd5b806301ffc9a7146100e45780630328a8fc1461010c5780632b4c9f1614610121575b600080fd5b6100f76100f2366004610de2565b6102d4565b60405190151581526020015b60405180910390f35b61011f61011a366004610e24565b6102ee565b005b7f00000000000000000000000000000000000000000000000000000000000000005b60405173ffffffffffffffffffffffffffffffffffffffff9091168152602001610103565b6101437f000000000000000000000000000000000000000000000000000000000000000081565b6100f761019d366004610e7f565b7f000000000000000000000000000000000000000000000000000000000000000073ffffffffffffffffffffffffffffffffffffffff90811691161490565b61014361042b565b61020b7f000000000000000000000000000000000000000000000000000000000000000081565b604051908152602001610103565b61022c610227366004610e9a565b610457565b6040516101039190610ef5565b61020b60005481565b6100f7610250366004610f36565b60026020526000908152604090205460ff1681565b610293610273366004610f36565b600160208190526000918252604090912080549181015460029091015483565b60408051938452602084019290925290820152606001610103565b61011f6102bc366004610f4f565b6104d5565b61011f6102cf366004610e7f565b61089c565b60006102e8826102e26108ba565b906108e8565b92915050565b6103076102f96109c2565b6103016109cc565b906109fa565b80821015806103165750428111155b15610362576040517f790c7cef00000000000000000000000000000000000000000000000000000000815260048101839052602481018290524260448201526064015b60405180910390fd5b600084815260016020526040902054156103ab576040517fed10979d00000000000000000000000000000000000000000000000000000000815260048101859052602401610359565b604080516060810182528481526020808201858152828401858152600089815260018085529086902094518555915191840191909155516002909201919091558151848152908101839052849186917f97df4a2fb6656595bc6eb616c2068e9d50031428ef69d8849590bc9f3dec620b910160405180910390a350505050565b60006104526104386109cc565b5473ffffffffffffffffffffffffffffffffffffffff1690565b905090565b60008281526001602090815260408083209051909183916104aa91879187910191825260601b7fffffffffffffffffffffffffffffffffffffffff00000000000000000000000016602082015260340190565b6040516020818303038152906040528051906020012090506104cc8282610a69565b95945050505050565b6000848152600160209081526040808320905190929161052791889186910191825260601b7fffffffffffffffffffffffffffffffffffffffff00000000000000000000000016602082015260340190565b604051602081830303815290604052805190602001209050600061054b8383610a69565b9050600181600481111561056157610561610ec6565b0361059b576040517f84f229dc00000000000000000000000000000000000000000000000000000000815260048101889052602401610359565b60028160048111156105af576105af610ec6565b036105ef576040517fdbeb4f4d00000000000000000000000000000000000000000000000000000000815260048101889052426024820152604401610359565b600381600481111561060357610603610ec6565b03610659576040517fa8ca238e0000000000000000000000000000000000000000000000000000000081526004810188905273ffffffffffffffffffffffffffffffffffffffff85166024820152604401610359565b600481600481111561066d5761066d610ec6565b036106a4576040517f192d175500000000000000000000000000000000000000000000000000000000815260040160405180910390fd5b6106ea836000015483888880806020026020016040519081016040528093929190818152602001838360200280828437600092019190915250929493925050610af59050565b61073f576040517fa04a37c00000000000000000000000000000000000000000000000000000000081526004810188905273ffffffffffffffffffffffffffffffffffffffff85166024820152604401610359565b6000805461074e906001611010565b60008181558481526002602052604080822080547fffffffffffffffffffffffffffffffffffffffffffffffffffffffffffffff00166001179055517f8832e6e300000000000000000000000000000000000000000000000000000000815273ffffffffffffffffffffffffffffffffffffffff8881166004830152602482018490526060604483015260648201929092529192507f00000000000000000000000000000000000000000000000000000000000000001690638832e6e390608401600060405180830381600087803b15801561082957600080fd5b505af115801561083d573d6000803e3d6000fd5b505050508473ffffffffffffffffffffffffffffffffffffffff16887ffe236dfc7ce073698734b89da1aee0e7551c9c6d264404c502e6e8fefc1132a88360405161088a91815260200190565b60405180910390a35050505050505050565b6108b76108a76109c2565b826108b06109cc565b9190610b0b565b50565b6000806102e860017fca9d3e17f264b0f3984e2634e94adb37fa3e6a8103f06aeae6fa59e21c769f5e611023565b60007c01000000000000000000000000000000000000000000000000000000007fffffffff00000000000000000000000000000000000000000000000000000000831601610938575060006102e8565b7ffe003659000000000000000000000000000000000000000000000000000000007fffffffff00000000000000000000000000000000000000000000000000000000831601610989575060016102e8565b507fffffffff00000000000000000000000000000000000000000000000000000000166000908152602091909152604090205460ff1690565b6000610452610c20565b6000806102e860017fc9ed16f33ab3a66c84bfd83099ccb2a8845871e2e1c1928f63797152f0fd54cd611023565b815473ffffffffffffffffffffffffffffffffffffffff828116911614610a65576040517f2ef4875e00000000000000000000000000000000000000000000000000000000815273ffffffffffffffffffffffffffffffffffffffff82166004820152602401610359565b5050565b8154600090610a7a575060016102e8565b8260010154421080610a8f5750826002015442115b15610a9c575060026102e8565b60008281526002602052604090205460ff1615610abb575060036102e8565b7f000000000000000000000000000000000000000000000000000000000000000060005403610aec575060046102e8565b50600092915050565b600082610b028584610d6d565b14949350505050565b825473ffffffffffffffffffffffffffffffffffffffff9081169083168114610b78576040517f2ef4875e00000000000000000000000000000000000000000000000000000000815273ffffffffffffffffffffffffffffffffffffffff84166004820152602401610359565b8173ffffffffffffffffffffffffffffffffffffffff168173ffffffffffffffffffffffffffffffffffffffff1614610c1a5783547fffffffffffffffffffffffff00000000000000000000000000000000000000001673ffffffffffffffffffffffffffffffffffffffff8381169182178655604051908316907f8be0079c531659141344cd1fd0a4f28419497f9722a3daafe3b4186f6b6457e090600090a35b50505050565b600033321480610c305750601836105b15610c3a57503390565b7fffffffffffffffffffffffffffffffffffffffffffffffffffffffffffffffec36013560601c7f000000000000000000000000000000000000000000000000000000000000000073ffffffffffffffffffffffffffffffffffffffff16331480610d5c57506040517f019a202800000000000000000000000000000000000000000000000000000000815273ffffffffffffffffffffffffffffffffffffffff82811660048301523360248301523060448301527f0000000000000000000000000000000000000000000000000000000000000000169063019a202890606401602060405180830381865afa158015610d38573d6000803e3d6000fd5b505050506040513d601f19601f82011682018060405250810190610d5c9190611036565b15610d6657919050565b3391505090565b600081815b8451811015610da857610d9e82868381518110610d9157610d91611058565b6020026020010151610db0565b9150600101610d72565b509392505050565b6000818310610dcc576000828152602084905260409020610ddb565b60008381526020839052604090205b9392505050565b600060208284031215610df457600080fd5b81357fffffffff0000000000000000000000000000000000000000000000000000000081168114610ddb57600080fd5b60008060008060808587031215610e3a57600080fd5b5050823594602084013594506040840135936060013592509050565b803573ffffffffffffffffffffffffffffffffffffffff81168114610e7a57600080fd5b919050565b600060208284031215610e9157600080fd5b610ddb82610e56565b60008060408385031215610ead57600080fd5b82359150610ebd60208401610e56565b90509250929050565b7f4e487b7100000000000000000000000000000000000000000000000000000000600052602160045260246000fd5b6020810160058310610f30577f4e487b7100000000000000000000000000000000000000000000000000000000600052602160045260246000fd5b91905290565b600060208284031215610f4857600080fd5b5035919050565b60008060008060608587031215610f6557600080fd5b84359350602085013567ffffffffffffffff811115610f8357600080fd5b8501601f81018713610f9457600080fd5b803567ffffffffffffffff811115610fab57600080fd5b8760208260051b8401011115610fc057600080fd5b60209190910193509150610fd660408601610e56565b905092959194509250565b7f4e487b7100000000000000000000000000000000000000000000000000000000600052601160045260246000fd5b808201808211156102e8576102e8610fe1565b818103818111156102e8576102e8610fe1565b60006020828403121561104857600080fd5b81518015158114610ddb57600080fd5b7f4e487b7100000000000000000000000000000000000000000000000000000000600052603260045260246000fdfea26469706673582212207e30dd5ca50e966db324def9cd0284aa7d875587c546f25ce26db947fa4815f664736f6c634300081c0033",
  "linkReferences": {},
  "deployedLinkReferences": {}
}