{
  "_format": "hh-sol-artifact-1",
  "contractName": "ERC721ClaimWindowMerkleClaim",
  "sourceName": "contracts/pfp/ERC721ClaimWindowMerkleClaim.sol",
  "abi": [
    {
      "inputs": [
        {
          "internalType": "uint256",
          "name": "mintSupply",
          "type": "uint256"
        },
        {
          "internalType": "contract ERC721Full",
          "name": "rewardContract",
          "type": "address"
        },
        {
          "internalType": "contract IForwarderRegistry",
          "name": "_forwarderRegistry",
          "type": "address"
        }
      ],
      "stateMutability": "nonpayable",
      "type": "constructor"
    },
    {
      "inputs": [
        {
          "internalType": "bytes32",
          "name": "epochId",
          "type": "bytes32"
        },
        {
          "internalType": "address",
          "name": "recipient",
          "type": "address"
        }
      ],
      "name": "AlreadyClaimed",
      "type": "error"
    },
    {
      "inputs": [
        {
          "internalType": "bytes32",
          "name": "epochId",
          "type": "bytes32"
        }
      ],
      "name": "EpochIdAlreadyExists",
      "type": "error"
    },
    {
      "inputs": [
        {
          "internalType": "bytes32",
          "name": "epochId",
          "type": "bytes32"
        }
      ],
      "name": "EpochIdNotExists",
      "type": "error"
    },
    {
      "inputs": [],
      "name": "ExceededMintSupply",
      "type": "error"
    },
    {
      "inputs": [],
      "name": "IllegalInterfaceId",
      "type": "error"
    },
    {
      "inputs": [
        {
          "internalType": "uint256",
          "name": "startTime",
          "type": "uint256"
        },
        {
          "internalType": "uint256",
          "name": "endTime",
          "type": "uint256"
        },
        {
          "internalType": "uint256",
          "name": "currentTime",
          "type": "uint256"
        }
      ],
      "name": "InvalidClaimWindow",
      "type": "error"
    },
    {
      "inputs": [
        {
          "internalType": "bytes32",
          "name": "epochId",
          "type": "bytes32"
        },
        {
          "internalType": "address",
          "name": "recipient",
          "type": "address"
        }
      ],
      "name": "InvalidProof",
      "type": "error"
    },
    {
      "inputs": [
        {
          "internalType": "address",
          "name": "account",
          "type": "address"
        }
      ],
      "name": "NotContractOwner",
      "type": "error"
    },
    {
      "inputs": [
        {
          "internalType": "bytes32",
          "name": "epochId",
          "type": "bytes32"
        },
        {
          "internalType": "uint256",
          "name": "currentTime",
          "type": "uint256"
        }
      ],
      "name": "OutOfClaimWindow",
      "type": "error"
    },
    {
      "anonymous": false,
      "inputs": [
        {
          "indexed": true,
          "internalType": "bytes32",
          "name": "epochId",
          "type": "bytes32"
        },
        {
          "indexed": true,
          "internalType": "bytes32",
          "name": "merkleRoot",
          "type": "bytes32"
        },
        {
          "indexed": false,
          "internalType": "uint256",
          "name": "startTime",
          "type": "uint256"
        },
        {
          "indexed": true,
          "internalType": "uint256",
          "name": "endTime",
          "type": "uint256"
        }
      ],
      "name": "EpochMerkleRootSet",
      "type": "event"
    },
    {
      "anonymous": false,
      "inputs": [
        {
          "indexed": true,
          "internalType": "address",
          "name": "previousOwner",
          "type": "address"
        },
        {
          "indexed": true,
          "internalType": "address",
          "name": "newOwner",
          "type": "address"
        }
      ],
      "name": "OwnershipTransferred",
      "type": "event"
    },
    {
      "anonymous": false,
      "inputs": [
        {
          "indexed": true,
          "internalType": "bytes32",
          "name": "epochId",
          "type": "bytes32"
        },
        {
          "indexed": true,
          "internalType": "address",
          "name": "recipient",
          "type": "address"
        },
        {
          "indexed": true,
          "internalType": "uint256",
          "name": "tokenId",
          "type": "uint256"
        }
      ],
      "name": "RewardClaimed",
      "type": "event"
    },
    {
      "inputs": [],
      "name": "MINT_SUPPLY",
      "outputs": [
        {
          "internalType": "uint256",
          "name": "",
          "type": "uint256"
        }
      ],
      "stateMutability": "view",
      "type": "function"
    },
    {
      "inputs": [],
      "name": "REWARD_CONTRACT",
      "outputs": [
        {
          "internalType": "contract ERC721Full",
          "name": "",
          "type": "address"
        }
      ],
      "stateMutability": "view",
      "type": "function"
    },
    {
      "inputs": [
        {
          "internalType": "bytes32",
          "name": "epochId",
          "type": "bytes32"
        },
        {
          "internalType": "address",
          "name": "recipient",
          "type": "address"
        }
      ],
      "name": "canClaim",
      "outputs": [
        {
          "internalType": "enum ERC721ClaimWindowMerkleClaim.ClaimError",
          "name": "",
          "type": "uint8"
        }
      ],
      "stateMutability": "view",
      "type": "function"
    },
    {
      "inputs": [
        {
          "internalType": "bytes32",
          "name": "epochId",
          "type": "bytes32"
        },
        {
          "internalType": "bytes32[]",
          "name": "proof",
          "type": "bytes32[]"
        },
        {
          "internalType": "address",
          "name": "recipient",
          "type": "address"
        }
      ],
      "name": "claim",
      "outputs": [],
      "stateMutability": "nonpayable",
      "type": "function"
    },
    {
      "inputs": [
        {
          "internalType": "bytes32",
          "name": "epochId",
          "type": "bytes32"
        }
      ],
      "name": "claimWindows",
      "outputs": [
        {
          "internalType": "bytes32",
          "name": "merkleRoot",
          "type": "bytes32"
        },
        {
          "internalType": "uint256",
          "name": "startTime",
          "type": "uint256"
        },
        {
          "internalType": "uint256",
          "name": "endTime",
          "type": "uint256"
        }
      ],
      "stateMutability": "view",
      "type": "function"
    },
    {
      "inputs": [
        {
          "internalType": "address",
          "name": "recipient",
          "type": "address"
        }
      ],
      "name": "claimed",
      "outputs": [
        {
          "internalType": "bool",
          "name": "claimed",
          "type": "bool"
        }
      ],
      "stateMutability": "view",
      "type": "function"
    },
    {
      "inputs": [],
      "name": "forwarderRegistry",
      "outputs": [
        {
          "internalType": "contract IForwarderRegistry",
          "name": "",
          "type": "address"
        }
      ],
      "stateMutability": "view",
      "type": "function"
    },
    {
      "inputs": [
        {
          "internalType": "address",
          "name": "forwarder",
          "type": "address"
        }
      ],
      "name": "isTrustedForwarder",
      "outputs": [
        {
          "internalType": "bool",
          "name": "",
          "type": "bool"
        }
      ],
      "stateMutability": "view",
      "type": "function"
    },
    {
      "inputs": [],
      "name": "noOfTokensClaimed",
      "outputs": [
        {
          "internalType": "uint256",
          "name": "",
          "type": "uint256"
        }
      ],
      "stateMutability": "view",
      "type": "function"
    },
    {
      "inputs": [],
      "name": "owner",
      "outputs": [
        {
          "internalType": "address",
          "name": "",
          "type": "address"
        }
      ],
      "stateMutability": "view",
      "type": "function"
    },
    {
      "inputs": [
        {
          "internalType": "bytes32",
          "name": "epochId",
          "type": "bytes32"
        },
        {
          "internalType": "bytes32",
          "name": "merkleRoot",
          "type": "bytes32"
        },
        {
          "internalType": "uint256",
          "name": "startTime",
          "type": "uint256"
        },
        {
          "internalType": "uint256",
          "name": "endTime",
          "type": "uint256"
        }
      ],
      "name": "setEpochMerkleRoot",
      "outputs": [],
      "stateMutability": "nonpayable",
      "type": "function"
    },
    {
      "inputs": [
        {
          "internalType": "bytes4",
          "name": "interfaceId",
          "type": "bytes4"
        }
      ],
      "name": "supportsInterface",
      "outputs": [
        {
          "internalType": "bool",
          "name": "",
          "type": "bool"
        }
      ],
      "stateMutability": "view",
      "type": "function"
    },
    {
      "inputs": [
        {
          "internalType": "address",
          "name": "newOwner",
          "type": "address"
        }
      ],
      "name": "transferOwnership",
      "outputs": [],
      "stateMutability": "nonpayable",
      "type": "function"
    }
  ],
  "bytecode": "0x60e060405234801561001057600080fd5b5060405161130538038061130583398101604081905261002f916101b4565b6001600160a01b0381166080523361004f81610049610068565b9061009c565b505060c0919091526001600160a01b031660a052610218565b60008061009660017fc9ed16f33ab3a66c84bfd83099ccb2a8845871e2e1c1928f63797152f0fd54cd6101f7565b92915050565b6001600160a01b038116156100f25781546001600160a01b0319166001600160a01b03821690811783556040516000907f8be0079c531659141344cd1fd0a4f28419497f9722a3daafe3b4186f6b6457e0908290a35b61010e6307f5828d60e41b6001610107610112565b9190610140565b5050565b60008061009660017fca9d3e17f264b0f3984e2634e94adb37fa3e6a8103f06aeae6fa59e21c769f5e6101f7565b600160e01b6001600160e01b031983160161016e576040516372c683bb60e01b815260040160405180910390fd5b6001600160e01b03199190911660009081526020929092526040909120805460ff1916911515919091179055565b6001600160a01b03811681146101b157600080fd5b50565b6000806000606084860312156101c957600080fd5b8351925060208401516101db8161019c565b60408501519092506101ec8161019c565b809150509250925092565b8181038181111561009657634e487b7160e01b600052601160045260246000fd5b60805160a05160c05161109b61026a600039600081816101e901526104d401526000818161016d01526108370152600081816101230152818161019f01528181610c1c0152610caa015261109b6000f3fe608060405234801561001057600080fd5b50600436106100df5760003560e01c80639dfbcde81161008c578063c884ef8311610066578063c884ef8314610242578063dc45def614610265578063eb02625c146102ae578063f2fde38b146102c157600080fd5b80639dfbcde8146101e4578063aa9641ab14610219578063ba65912e1461023957600080fd5b80633a5af339116100bd5780633a5af33914610168578063572b6c051461018f5780638da5cb5b146101dc57600080fd5b806301ffc9a7146100e45780630328a8fc1461010c5780632b4c9f1614610121575b600080fd5b6100f76100f2366004610d9b565b6102d4565b60405190151581526020015b60405180910390f35b61011f61011a366004610ddd565b6102ee565b005b7f00000000000000000000000000000000000000000000000000000000000000005b60405173ffffffffffffffffffffffffffffffffffffffff9091168152602001610103565b6101437f000000000000000000000000000000000000000000000000000000000000000081565b6100f761019d366004610e38565b7f000000000000000000000000000000000000000000000000000000000000000073ffffffffffffffffffffffffffffffffffffffff90811691161490565b61014361042c565b61020b7f000000000000000000000000000000000000000000000000000000000000000081565b604051908152602001610103565b61022c610227366004610e53565b610458565b6040516101039190610eae565b61020b60005481565b6100f7610250366004610e38565b60026020526000908152604090205460ff1681565b610293610273366004610eef565b600160208190526000918252604090912080549181015460029091015483565b60408051938452602084019290925290820152606001610103565b61011f6102bc366004610f08565b61050f565b61011f6102cf366004610e38565b6108e1565b60006102e8826102e26108ff565b9061092d565b92915050565b6103076102f9610a07565b610301610a11565b90610a3f565b80821015806103165750428111155b15610362576040517f790c7cef00000000000000000000000000000000000000000000000000000000815260048101839052602481018290524260448201526064015b60405180910390fd5b600084815260016020526040902054156103ab576040517fed10979d00000000000000000000000000000000000000000000000000000000815260048101859052602401610359565b60408051606081018252848152602080820185815282840185815260008981526001938490528590209351845590519183019190915551600290910155518190849086907f97df4a2fb6656595bc6eb616c2068e9d50031428ef69d8849590bc9f3dec620b9061041e9087815260200190565b60405180910390a450505050565b6000610453610439610a11565b5473ffffffffffffffffffffffffffffffffffffffff1690565b905090565b600082815260016020526040812080546104765760019150506102e8565b806001015442108061048b5750806002015442115b1561049a5760029150506102e8565b73ffffffffffffffffffffffffffffffffffffffff831660009081526002602052604090205460ff16156104d25760039150506102e8565b7f0000000000000000000000000000000000000000000000000000000000000000600054036105055760049150506102e8565b5060009392505050565b600061051b8583610458565b9050600181600481111561053157610531610e7f565b0361056b576040517f84f229dc00000000000000000000000000000000000000000000000000000000815260048101869052602401610359565b600281600481111561057f5761057f610e7f565b036105bf576040517fdbeb4f4d00000000000000000000000000000000000000000000000000000000815260048101869052426024820152604401610359565b60038160048111156105d3576105d3610e7f565b03610629576040517fa8ca238e0000000000000000000000000000000000000000000000000000000081526004810186905273ffffffffffffffffffffffffffffffffffffffff83166024820152604401610359565b600481600481111561063d5761063d610e7f565b03610674576040517f192d175500000000000000000000000000000000000000000000000000000000815260040160405180910390fd5b600085836040516020016106b792919091825260601b7fffffffffffffffffffffffffffffffffffffffff00000000000000000000000016602082015260340190565b604080517fffffffffffffffffffffffffffffffffffffffffffffffffffffffffffffffe0818403018152828252805160209182012060008a81526001835283902054888302808601840190945288855290945061073993909285928a918a91829190850190849080828437600092019190915250929493925050610aae9050565b61078e576040517fa04a37c00000000000000000000000000000000000000000000000000000000081526004810187905273ffffffffffffffffffffffffffffffffffffffff84166024820152604401610359565b6000806000815461079e90610fc9565b918290555073ffffffffffffffffffffffffffffffffffffffff85811660008181526002602052604080822080547fffffffffffffffffffffffffffffffffffffffffffffffffffffffffffffff00166001179055517f8832e6e30000000000000000000000000000000000000000000000000000000081526004810192909252602482018490526060604483015260648201529192507f00000000000000000000000000000000000000000000000000000000000000001690638832e6e390608401600060405180830381600087803b15801561087b57600080fd5b505af115801561088f573d6000803e3d6000fd5b50505050808473ffffffffffffffffffffffffffffffffffffffff16887ffe236dfc7ce073698734b89da1aee0e7551c9c6d264404c502e6e8fefc1132a860405160405180910390a450505050505050565b6108fc6108ec610a07565b826108f5610a11565b9190610ac4565b50565b6000806102e860017fca9d3e17f264b0f3984e2634e94adb37fa3e6a8103f06aeae6fa59e21c769f5e611001565b60007c01000000000000000000000000000000000000000000000000000000007fffffffff0000000000000000000000000000000000000000000000000000000083160161097d575060006102e8565b7ffe003659000000000000000000000000000000000000000000000000000000007fffffffff000000000000000000000000000000000000000000000000000000008316016109ce575060016102e8565b507fffffffff00000000000000000000000000000000000000000000000000000000166000908152602091909152604090205460ff1690565b6000610453610bd9565b6000806102e860017fc9ed16f33ab3a66c84bfd83099ccb2a8845871e2e1c1928f63797152f0fd54cd611001565b815473ffffffffffffffffffffffffffffffffffffffff828116911614610aaa576040517f2ef4875e00000000000000000000000000000000000000000000000000000000815273ffffffffffffffffffffffffffffffffffffffff82166004820152602401610359565b5050565b600082610abb8584610d26565b14949350505050565b825473ffffffffffffffffffffffffffffffffffffffff9081169083168114610b31576040517f2ef4875e00000000000000000000000000000000000000000000000000000000815273ffffffffffffffffffffffffffffffffffffffff84166004820152602401610359565b8173ffffffffffffffffffffffffffffffffffffffff168173ffffffffffffffffffffffffffffffffffffffff1614610bd35783547fffffffffffffffffffffffff00000000000000000000000000000000000000001673ffffffffffffffffffffffffffffffffffffffff8381169182178655604051908316907f8be0079c531659141344cd1fd0a4f28419497f9722a3daafe3b4186f6b6457e090600090a35b50505050565b600033321480610be95750601836105b15610bf357503390565b7fffffffffffffffffffffffffffffffffffffffffffffffffffffffffffffffec36013560601c7f000000000000000000000000000000000000000000000000000000000000000073ffffffffffffffffffffffffffffffffffffffff16331480610d1557506040517f019a202800000000000000000000000000000000000000000000000000000000815273ffffffffffffffffffffffffffffffffffffffff82811660048301523360248301523060448301527f0000000000000000000000000000000000000000000000000000000000000000169063019a202890606401602060405180830381865afa158015610cf1573d6000803e3d6000fd5b505050506040513d601f19601f82011682018060405250810190610d159190611014565b15610d1f57919050565b3391505090565b600081815b8451811015610d6157610d5782868381518110610d4a57610d4a611036565b6020026020010151610d69565b9150600101610d2b565b509392505050565b6000818310610d85576000828152602084905260409020610d94565b60008381526020839052604090205b9392505050565b600060208284031215610dad57600080fd5b81357fffffffff0000000000000000000000000000000000000000000000000000000081168114610d9457600080fd5b60008060008060808587031215610df357600080fd5b5050823594602084013594506040840135936060013592509050565b803573ffffffffffffffffffffffffffffffffffffffff81168114610e3357600080fd5b919050565b600060208284031215610e4a57600080fd5b610d9482610e0f565b60008060408385031215610e6657600080fd5b82359150610e7660208401610e0f565b90509250929050565b7f4e487b7100000000000000000000000000000000000000000000000000000000600052602160045260246000fd5b6020810160058310610ee9577f4e487b7100000000000000000000000000000000000000000000000000000000600052602160045260246000fd5b91905290565b600060208284031215610f0157600080fd5b5035919050565b60008060008060608587031215610f1e57600080fd5b84359350602085013567ffffffffffffffff811115610f3c57600080fd5b8501601f81018713610f4d57600080fd5b803567ffffffffffffffff811115610f6457600080fd5b8760208260051b8401011115610f7957600080fd5b60209190910193509150610f8f60408601610e0f565b905092959194509250565b7f4e487b7100000000000000000000000000000000000000000000000000000000600052601160045260246000fd5b60007fffffffffffffffffffffffffffffffffffffffffffffffffffffffffffffffff8203610ffa57610ffa610f9a565b5060010190565b818103818111156102e8576102e8610f9a565b60006020828403121561102657600080fd5b81518015158114610d9457600080fd5b7f4e487b7100000000000000000000000000000000000000000000000000000000600052603260045260246000fdfea264697066735822122061ec288e22739c4aaab3f0958f6fdb304a32621bbe9ad5262bbed8953626844d64736f6c634300081c0033",
  "linkReferences": {},
  "deployedLinkReferences": {}
}