{
  "_format": "hh-sol-artifact-1",
  "contractName": "ERC20ClaimWindowMerkleClaimMock",
  "sourceName": "contracts/mocks/merkleClaim/ERC20ClaimWindowMerkleClaimMock.sol",
  "abi": [
    {
      "inputs": [
        {
          "internalType": "address",
          "name": "erc20Token_",
          "type": "address"
        },
        {
          "internalType": "address",
          "name": "stakingPool_",
          "type": "address"
        },
        {
          "internalType": "address",
          "name": "tokenHolderWallet_",
          "type": "address"
        },
        {
          "internalType": "contract IForwarderRegistry",
          "name": "forwarderRegistry_",
          "type": "address"
        }
      ],
      "stateMutability": "nonpayable",
      "type": "constructor"
    },
    {
      "inputs": [
        {
          "internalType": "bytes32",
          "name": "epochId",
          "type": "bytes32"
        },
        {
          "internalType": "bytes32",
          "name": "leaf",
          "type": "bytes32"
        }
      ],
      "name": "AlreadyClaimed",
      "type": "error"
    },
    {
      "inputs": [
        {
          "internalType": "bytes32",
          "name": "epochId",
          "type": "bytes32"
        }
      ],
      "name": "EpochIdAlreadyExists",
      "type": "error"
    },
    {
      "inputs": [
        {
          "internalType": "bytes32",
          "name": "epochId",
          "type": "bytes32"
        }
      ],
      "name": "EpochIdNotExists",
      "type": "error"
    },
    {
      "inputs": [],
      "name": "IllegalInterfaceId",
      "type": "error"
    },
    {
      "inputs": [
        {
          "internalType": "uint256",
          "name": "startTime",
          "type": "uint256"
        },
        {
          "internalType": "uint256",
          "name": "endTime",
          "type": "uint256"
        },
        {
          "internalType": "uint256",
          "name": "currentTime",
          "type": "uint256"
        }
      ],
      "name": "InvalidClaimWindow",
      "type": "error"
    },
    {
      "inputs": [],
      "name": "InvalidERC20Token",
      "type": "error"
    },
    {
      "inputs": [],
      "name": "InvalidMerkleRoot",
      "type": "error"
    },
    {
      "inputs": [
        {
          "internalType": "bytes32",
          "name": "epochId",
          "type": "bytes32"
        },
        {
          "internalType": "address",
          "name": "recipient",
          "type": "address"
        },
        {
          "internalType": "uint256",
          "name": "amount",
          "type": "uint256"
        }
      ],
      "name": "InvalidProof",
      "type": "error"
    },
    {
      "inputs": [],
      "name": "InvalidStakingPool",
      "type": "error"
    },
    {
      "inputs": [
        {
          "internalType": "address",
          "name": "account",
          "type": "address"
        }
      ],
      "name": "NotContractOwner",
      "type": "error"
    },
    {
      "inputs": [
        {
          "internalType": "bytes32",
          "name": "epochId",
          "type": "bytes32"
        },
        {
          "internalType": "uint256",
          "name": "currentTime",
          "type": "uint256"
        }
      ],
      "name": "OutOfClaimWindow",
      "type": "error"
    },
    {
      "anonymous": false,
      "inputs": [
        {
          "indexed": true,
          "internalType": "bytes32",
          "name": "epochId",
          "type": "bytes32"
        },
        {
          "indexed": true,
          "internalType": "bytes32",
          "name": "merkleRoot",
          "type": "bytes32"
        },
        {
          "indexed": false,
          "internalType": "uint256",
          "name": "startTime",
          "type": "uint256"
        },
        {
          "indexed": true,
          "internalType": "uint256",
          "name": "endTime",
          "type": "uint256"
        }
      ],
      "name": "EpochMerkleRootSet",
      "type": "event"
    },
    {
      "anonymous": false,
      "inputs": [
        {
          "indexed": true,
          "internalType": "address",
          "name": "previousOwner",
          "type": "address"
        },
        {
          "indexed": true,
          "internalType": "address",
          "name": "newOwner",
          "type": "address"
        }
      ],
      "name": "OwnershipTransferred",
      "type": "event"
    },
    {
      "anonymous": false,
      "inputs": [
        {
          "indexed": true,
          "internalType": "bytes32",
          "name": "epochId",
          "type": "bytes32"
        },
        {
          "indexed": true,
          "internalType": "bytes32",
          "name": "root",
          "type": "bytes32"
        },
        {
          "indexed": true,
          "internalType": "address",
          "name": "recipient",
          "type": "address"
        },
        {
          "indexed": false,
          "internalType": "uint256",
          "name": "amount",
          "type": "uint256"
        }
      ],
      "name": "PayoutClaimed",
      "type": "event"
    },
    {
      "anonymous": false,
      "inputs": [
        {
          "indexed": true,
          "internalType": "address",
          "name": "newTokenHolderWallet",
          "type": "address"
        }
      ],
      "name": "TokenHolderWalletSet",
      "type": "event"
    },
    {
      "inputs": [],
      "name": "ERC20_TOKEN",
      "outputs": [
        {
          "internalType": "contract IERC20SafeTransfers",
          "name": "",
          "type": "address"
        }
      ],
      "stateMutability": "view",
      "type": "function"
    },
    {
      "inputs": [],
      "name": "STAKING_POOL",
      "outputs": [
        {
          "internalType": "address",
          "name": "",
          "type": "address"
        }
      ],
      "stateMutability": "view",
      "type": "function"
    },
    {
      "inputs": [],
      "name": "__msgData",
      "outputs": [
        {
          "internalType": "bytes",
          "name": "",
          "type": "bytes"
        }
      ],
      "stateMutability": "view",
      "type": "function"
    },
    {
      "inputs": [],
      "name": "__msgSender",
      "outputs": [
        {
          "internalType": "address",
          "name": "",
          "type": "address"
        }
      ],
      "stateMutability": "view",
      "type": "function"
    },
    {
      "inputs": [
        {
          "internalType": "bytes32",
          "name": "epochId",
          "type": "bytes32"
        },
        {
          "internalType": "address",
          "name": "recipient",
          "type": "address"
        },
        {
          "internalType": "uint256",
          "name": "amount",
          "type": "uint256"
        }
      ],
      "name": "canClaim",
      "outputs": [
        {
          "internalType": "enum ERC20ClaimWindowMerkleClaim.ClaimError",
          "name": "",
          "type": "uint8"
        }
      ],
      "stateMutability": "view",
      "type": "function"
    },
    {
      "inputs": [
        {
          "internalType": "bytes32",
          "name": "epochId",
          "type": "bytes32"
        },
        {
          "internalType": "address",
          "name": "recipient",
          "type": "address"
        },
        {
          "internalType": "uint256",
          "name": "amount",
          "type": "uint256"
        },
        {
          "internalType": "bytes32[]",
          "name": "proof",
          "type": "bytes32[]"
        }
      ],
      "name": "claimAndStake",
      "outputs": [],
      "stateMutability": "nonpayable",
      "type": "function"
    },
    {
      "inputs": [
        {
          "internalType": "bytes32",
          "name": "epochId",
          "type": "bytes32"
        }
      ],
      "name": "claimWindows",
      "outputs": [
        {
          "internalType": "bytes32",
          "name": "merkleRoot",
          "type": "bytes32"
        },
        {
          "internalType": "uint256",
          "name": "startTime",
          "type": "uint256"
        },
        {
          "internalType": "uint256",
          "name": "endTime",
          "type": "uint256"
        }
      ],
      "stateMutability": "view",
      "type": "function"
    },
    {
      "inputs": [
        {
          "internalType": "bytes32",
          "name": "leaf",
          "type": "bytes32"
        }
      ],
      "name": "claimed",
      "outputs": [
        {
          "internalType": "bool",
          "name": "claimed",
          "type": "bool"
        }
      ],
      "stateMutability": "view",
      "type": "function"
    },
    {
      "inputs": [],
      "name": "forwarderRegistry",
      "outputs": [
        {
          "internalType": "contract IForwarderRegistry",
          "name": "",
          "type": "address"
        }
      ],
      "stateMutability": "view",
      "type": "function"
    },
    {
      "inputs": [
        {
          "internalType": "address",
          "name": "forwarder",
          "type": "address"
        }
      ],
      "name": "isTrustedForwarder",
      "outputs": [
        {
          "internalType": "bool",
          "name": "",
          "type": "bool"
        }
      ],
      "stateMutability": "view",
      "type": "function"
    },
    {
      "inputs": [],
      "name": "owner",
      "outputs": [
        {
          "internalType": "address",
          "name": "",
          "type": "address"
        }
      ],
      "stateMutability": "view",
      "type": "function"
    },
    {
      "inputs": [
        {
          "internalType": "bytes32",
          "name": "epochId",
          "type": "bytes32"
        },
        {
          "internalType": "bytes32",
          "name": "merkleRoot",
          "type": "bytes32"
        },
        {
          "internalType": "uint256",
          "name": "startTime",
          "type": "uint256"
        },
        {
          "internalType": "uint256",
          "name": "endTime",
          "type": "uint256"
        }
      ],
      "name": "setEpochMerkleRoot",
      "outputs": [],
      "stateMutability": "nonpayable",
      "type": "function"
    },
    {
      "inputs": [
        {
          "internalType": "address",
          "name": "newTokenHolderWallet",
          "type": "address"
        }
      ],
      "name": "setTokenHolderWallet",
      "outputs": [],
      "stateMutability": "nonpayable",
      "type": "function"
    },
    {
      "inputs": [
        {
          "internalType": "bytes4",
          "name": "interfaceId",
          "type": "bytes4"
        }
      ],
      "name": "supportsInterface",
      "outputs": [
        {
          "internalType": "bool",
          "name": "",
          "type": "bool"
        }
      ],
      "stateMutability": "view",
      "type": "function"
    },
    {
      "inputs": [],
      "name": "tokenHolderWallet",
      "outputs": [
        {
          "internalType": "address",
          "name": "",
          "type": "address"
        }
      ],
      "stateMutability": "view",
      "type": "function"
    },
    {
      "inputs": [
        {
          "internalType": "address",
          "name": "newOwner",
          "type": "address"
        }
      ],
      "name": "transferOwnership",
      "outputs": [],
      "stateMutability": "nonpayable",
      "type": "function"
    }
  ],
  "bytecode": "0x60e060405234801561001057600080fd5b5060405161174d38038061174d83398101604081905261002f9161024c565b6001600160a01b03811660805283838383336100538161004d610100565b90610134565b506001600160a01b03841661007b576040516326412d8960e21b815260040160405180910390fd5b6001600160a01b0380851660a05283166100a857604051633b106f8560e01b815260040160405180910390fd5b6001600160a01b0383811660c052600080546001600160a01b03191691841691821781556040517f329827290d5ca169f07779e969ad40b6df3087f6c12c9467c96f1a88316a5bdb9190a250505050505050506102cc565b60008061012e60017fc9ed16f33ab3a66c84bfd83099ccb2a8845871e2e1c1928f63797152f0fd54cd6102ab565b92915050565b6001600160a01b0381161561018a5781546001600160a01b0319166001600160a01b03821690811783556040516000907f8be0079c531659141344cd1fd0a4f28419497f9722a3daafe3b4186f6b6457e0908290a35b6101a66307f5828d60e41b600161019f6101aa565b91906101d8565b5050565b60008061012e60017fca9d3e17f264b0f3984e2634e94adb37fa3e6a8103f06aeae6fa59e21c769f5e6102ab565b600160e01b6001600160e01b0319831601610206576040516372c683bb60e01b815260040160405180910390fd5b6001600160e01b03199190911660009081526020929092526040909120805460ff1916911515919091179055565b6001600160a01b038116811461024957600080fd5b50565b6000806000806080858703121561026257600080fd5b845161026d81610234565b602086015190945061027e81610234565b604086015190935061028f81610234565b60608601519092506102a081610234565b939692955090935050565b8181038181111561012e57634e487b7160e01b600052601160045260246000fd5b60805160a05160c05161142161032c60003960008181610147015261072b0152600081816102de01526106fe015260008181610190015281816101ed01528181610d0d01528181610d9b01528181610e4e0152610e8c01526114216000f3fe608060405234801561001057600080fd5b50600436106101005760003560e01c8063cc3c0f0611610097578063ec7f749411610066578063ec7f7494146102c6578063efc4c631146102d9578063f2fde38b14610300578063fbb0f6731461031357600080fd5b8063cc3c0f0614610232578063d1a91ff214610255578063d6a3138b1461025d578063dc45def61461027d57600080fd5b806331e66e1e116100d357806331e66e1e146101b4578063563cac28146101ca578063572b6c05146101dd5780638da5cb5b1461022a57600080fd5b806301ffc9a7146101055780630328a8fc1461012d57806314ae36ae146101425780632b4c9f161461018e575b600080fd5b61011861011336600461102c565b610333565b60405190151581526020015b60405180910390f35b61014061013b36600461106e565b61034d565b005b6101697f000000000000000000000000000000000000000000000000000000000000000081565b60405173ffffffffffffffffffffffffffffffffffffffff9091168152602001610124565b7f0000000000000000000000000000000000000000000000000000000000000000610169565b6101bc6104c2565b6040516101249291906110a0565b6101406101d8366004611116565b6104d5565b6101186101eb3660046111af565b7f000000000000000000000000000000000000000000000000000000000000000073ffffffffffffffffffffffffffffffffffffffff90811691161490565b610169610844565b6101186102403660046111ca565b60026020526000908152604090205460ff1681565b610169610870565b61027061026b3660046111e3565b61087a565b6040516101249190611248565b6102ab61028b3660046111ca565b600160208190526000918252604090912080549181015460029091015483565b60408051938452602084019290925290820152606001610124565b6101406102d43660046111af565b6108f2565b6101697f000000000000000000000000000000000000000000000000000000000000000081565b61014061030e3660046111af565b61096a565b6000546101699073ffffffffffffffffffffffffffffffffffffffff1681565b600061034782610341610988565b906109b6565b92915050565b610366610358610a90565b610360610a9a565b90610ac8565b8261039d576040517f9dd854d300000000000000000000000000000000000000000000000000000000815260040160405180910390fd5b80821015806103ac5750428111155b156103f8576040517f790c7cef00000000000000000000000000000000000000000000000000000000815260048101839052602481018290524260448201526064015b60405180910390fd5b60008481526001602052604090205415610441576040517fed10979d000000000000000000000000000000000000000000000000000000008152600481018590526024016103ef565b60408051606081018252848152602080820185815282840185815260008981526001938490528590209351845590519183019190915551600290910155518190849086907f97df4a2fb6656595bc6eb616c2068e9d50031428ef69d8849590bc9f3dec620b906104b49087815260200190565b60405180910390a450505050565b3660006104cd610b37565b915091509091565b604080516020808201889052606087901b7fffffffffffffffffffffffffffffffffffffffff00000000000000000000000016828401526054808301879052835180840390910181526074909201835281519181019190912060008881526001909252918120906105468284610b42565b9050600181600381111561055c5761055c611219565b03610596576040517f84f229dc000000000000000000000000000000000000000000000000000000008152600481018990526024016103ef565b60028160038111156105aa576105aa611219565b036105ea576040517fdbeb4f4d000000000000000000000000000000000000000000000000000000008152600481018990524260248201526044016103ef565b60038160038111156105fe576105fe611219565b0361063f576040517fdc20789f00000000000000000000000000000000000000000000000000000000815260048101899052602481018490526044016103ef565b815461064d86868387610b9d565b6106a9576040517fcc55900d000000000000000000000000000000000000000000000000000000008152600481018a905273ffffffffffffffffffffffffffffffffffffffff89166024820152604481018890526064016103ef565b600084815260026020908152604080832080547fffffffffffffffffffffffffffffffffffffffffffffffffffffffffffffff001660011790559154915173ffffffffffffffffffffffffffffffffffffffff7f000000000000000000000000000000000000000000000000000000000000000081169363b88d4fde939116917f0000000000000000000000000000000000000000000000000000000000000000918c91610775918f910173ffffffffffffffffffffffffffffffffffffffff91909116815260200190565b6040516020818303038152906040526040518563ffffffff1660e01b81526004016107a39493929190611289565b6020604051808303816000875af11580156107c2573d6000803e3d6000fd5b505050506040513d601f19601f820116820180604052508101906107e69190611336565b508773ffffffffffffffffffffffffffffffffffffffff16818a7f06da15703c9baa6922f6a2f40fe90a03f70a24b9113edd75f913454a45d996cd8a60405161083191815260200190565b60405180910390a4505050505050505050565b600061086b610851610a9a565b5473ffffffffffffffffffffffffffffffffffffffff1690565b905090565b600061086b610a90565b600083815260016020908152604080832081519283018790527fffffffffffffffffffffffffffffffffffffffff000000000000000000000000606087901b1691830191909152605482018490526108ea9160740160405160208183030381529060405280519060200120610b42565b949350505050565b6108fd610358610a90565b600080547fffffffffffffffffffffffff00000000000000000000000000000000000000001673ffffffffffffffffffffffffffffffffffffffff8316908117825560405190917f329827290d5ca169f07779e969ad40b6df3087f6c12c9467c96f1a88316a5bdb91a250565b610985610975610a90565b8261097e610a9a565b9190610bb5565b50565b60008061034760017fca9d3e17f264b0f3984e2634e94adb37fa3e6a8103f06aeae6fa59e21c769f5e611358565b60007c01000000000000000000000000000000000000000000000000000000007fffffffff00000000000000000000000000000000000000000000000000000000831601610a0657506000610347565b7ffe003659000000000000000000000000000000000000000000000000000000007fffffffff00000000000000000000000000000000000000000000000000000000831601610a5757506001610347565b507fffffffff00000000000000000000000000000000000000000000000000000000166000908152602091909152604090205460ff1690565b600061086b610cca565b60008061034760017fc9ed16f33ab3a66c84bfd83099ccb2a8845871e2e1c1928f63797152f0fd54cd611358565b815473ffffffffffffffffffffffffffffffffffffffff828116911614610b33576040517f2ef4875e00000000000000000000000000000000000000000000000000000000815273ffffffffffffffffffffffffffffffffffffffff821660048201526024016103ef565b5050565b3660006104cd610e17565b8154600090610b5357506001610347565b8260010154421080610b685750826002015442115b15610b7557506002610347565b60008281526002602052604090205460ff1615610b9457506003610347565b50600092915050565b600082610bab868685610f87565b1495945050505050565b825473ffffffffffffffffffffffffffffffffffffffff9081169083168114610c22576040517f2ef4875e00000000000000000000000000000000000000000000000000000000815273ffffffffffffffffffffffffffffffffffffffff841660048201526024016103ef565b8173ffffffffffffffffffffffffffffffffffffffff168173ffffffffffffffffffffffffffffffffffffffff1614610cc45783547fffffffffffffffffffffffff00000000000000000000000000000000000000001673ffffffffffffffffffffffffffffffffffffffff8381169182178655604051908316907f8be0079c531659141344cd1fd0a4f28419497f9722a3daafe3b4186f6b6457e090600090a35b50505050565b600033321480610cda5750601836105b15610ce457503390565b7fffffffffffffffffffffffffffffffffffffffffffffffffffffffffffffffec36013560601c7f000000000000000000000000000000000000000000000000000000000000000073ffffffffffffffffffffffffffffffffffffffff16331480610e0657506040517f019a202800000000000000000000000000000000000000000000000000000000815273ffffffffffffffffffffffffffffffffffffffff82811660048301523360248301523060448301527f0000000000000000000000000000000000000000000000000000000000000000169063019a202890606401602060405180830381865afa158015610de2573d6000803e3d6000fd5b505050506040513d601f19601f82011682018060405250810190610e069190611336565b15610e1057919050565b3391505090565b36600033321480610e285750601836105b15610e365750600091369150565b3373ffffffffffffffffffffffffffffffffffffffff7f0000000000000000000000000000000000000000000000000000000000000000161480610f71575073ffffffffffffffffffffffffffffffffffffffff7f00000000000000000000000000000000000000000000000000000000000000001663019a2028367fffffffffffffffffffffffffffffffffffffffffffffffffffffffffffffffec013560601c6040517fffffffff0000000000000000000000000000000000000000000000000000000060e084901b16815273ffffffffffffffffffffffffffffffffffffffff9091166004820152336024820152306044820152606401602060405180830381865afa158015610f4d573d6000803e3d6000fd5b505050506040513d601f19601f82011682018060405250810190610f719190611336565b15610f7e576104cd610fc9565b50600091369150565b600081815b84811015610fc057610fb682878784818110610faa57610faa611392565b90506020020135610ffa565b9150600101610f8c565b50949350505050565b3660006104cd7fffffffffffffffffffffffffffffffffffffffffffffffffffffffffffffffec83018284816113c1565b6000818310611016576000828152602084905260409020611025565b60008381526020839052604090205b9392505050565b60006020828403121561103e57600080fd5b81357fffffffff000000000000000000000000000000000000000000000000000000008116811461102557600080fd5b6000806000806080858703121561108457600080fd5b5050823594602084013594506040840135936060013592509050565b60208152816020820152818360408301376000818301604090810191909152601f9092017fffffffffffffffffffffffffffffffffffffffffffffffffffffffffffffffe0160101919050565b803573ffffffffffffffffffffffffffffffffffffffff8116811461111157600080fd5b919050565b60008060008060006080868803121561112e57600080fd5b8535945061113e602087016110ed565b935060408601359250606086013567ffffffffffffffff81111561116157600080fd5b8601601f8101881361117257600080fd5b803567ffffffffffffffff81111561118957600080fd5b8860208260051b840101111561119e57600080fd5b959894975092955050506020019190565b6000602082840312156111c157600080fd5b611025826110ed565b6000602082840312156111dc57600080fd5b5035919050565b6000806000606084860312156111f857600080fd5b83359250611208602085016110ed565b929592945050506040919091013590565b7f4e487b7100000000000000000000000000000000000000000000000000000000600052602160045260246000fd5b6020810160048310611283577f4e487b7100000000000000000000000000000000000000000000000000000000600052602160045260246000fd5b91905290565b73ffffffffffffffffffffffffffffffffffffffff8516815273ffffffffffffffffffffffffffffffffffffffff84166020820152826040820152608060608201526000825180608084015260005b818110156112f557602081860181015160a08684010152016112d8565b50600060a0828501015260a07fffffffffffffffffffffffffffffffffffffffffffffffffffffffffffffffe0601f83011684010191505095945050505050565b60006020828403121561134857600080fd5b8151801515811461102557600080fd5b81810381811115610347577f4e487b7100000000000000000000000000000000000000000000000000000000600052601160045260246000fd5b7f4e487b7100000000000000000000000000000000000000000000000000000000600052603260045260246000fd5b600080858511156113d157600080fd5b838611156113de57600080fd5b505082019391909203915056fea2646970667358221220e87597b3be084ff56941d09115accd7e918be850b5cb9139c6fff7b5a7b8858064736f6c634300081c0033",
  "linkReferences": {},
  "deployedLinkReferences": {}
}